{
  "_format": "hh-sol-artifact-1",
  "contractName": "CandidateFactory",
  "sourceName": "contracts/dao/factory/CandidateFactory.sol",
  "abi": [
    {
      "anonymous": false,
      "inputs": [
        {
          "indexed": false,
          "internalType": "address",
          "name": "sender",
          "type": "address"
        },
        {
          "indexed": false,
          "internalType": "address",
          "name": "layer2",
          "type": "address"
        },
        {
          "indexed": false,
          "internalType": "address",
          "name": "operator",
          "type": "address"
        },
        {
          "indexed": false,
          "internalType": "bool",
          "name": "isLayer2Candidate",
          "type": "bool"
        },
        {
          "indexed": false,
          "internalType": "string",
          "name": "name",
          "type": "string"
        },
        {
          "indexed": false,
          "internalType": "address",
          "name": "committee",
          "type": "address"
        },
        {
          "indexed": false,
          "internalType": "address",
          "name": "seigManager",
          "type": "address"
        }
      ],
      "name": "DeployedCandidate",
      "type": "event"
    },
    {
      "anonymous": false,
      "inputs": [
        {
          "indexed": true,
          "internalType": "bytes32",
          "name": "role",
          "type": "bytes32"
        },
        {
          "indexed": true,
          "internalType": "bytes32",
          "name": "previousAdminRole",
          "type": "bytes32"
        },
        {
          "indexed": true,
          "internalType": "bytes32",
          "name": "newAdminRole",
          "type": "bytes32"
        }
      ],
      "name": "RoleAdminChanged",
      "type": "event"
    },
    {
      "anonymous": false,
      "inputs": [
        {
          "indexed": true,
          "internalType": "bytes32",
          "name": "role",
          "type": "bytes32"
        },
        {
          "indexed": true,
          "internalType": "address",
          "name": "account",
          "type": "address"
        },
        {
          "indexed": true,
          "internalType": "address",
          "name": "sender",
          "type": "address"
        }
      ],
      "name": "RoleGranted",
      "type": "event"
    },
    {
      "anonymous": false,
      "inputs": [
        {
          "indexed": true,
          "internalType": "bytes32",
          "name": "role",
          "type": "bytes32"
        },
        {
          "indexed": true,
          "internalType": "address",
          "name": "account",
          "type": "address"
        },
        {
          "indexed": true,
          "internalType": "address",
          "name": "sender",
          "type": "address"
        }
      ],
      "name": "RoleRevoked",
      "type": "event"
    },
    {
      "inputs": [],
      "name": "DEFAULT_ADMIN_ROLE",
      "outputs": [
        {
          "internalType": "bytes32",
          "name": "",
          "type": "bytes32"
        }
      ],
      "stateMutability": "view",
      "type": "function"
    },
    {
      "inputs": [],
      "name": "MINTER_ROLE",
      "outputs": [
        {
          "internalType": "bytes32",
          "name": "",
          "type": "bytes32"
        }
      ],
      "stateMutability": "view",
      "type": "function"
    },
    {
      "inputs": [
        {
          "internalType": "address",
          "name": "account",
          "type": "address"
        }
      ],
      "name": "addAdmin",
      "outputs": [],
      "stateMutability": "nonpayable",
      "type": "function"
    },
    {
      "inputs": [
        {
          "internalType": "address",
          "name": "",
          "type": "address"
        }
      ],
      "name": "aliveImplementation",
      "outputs": [
        {
          "internalType": "bool",
          "name": "",
          "type": "bool"
        }
      ],
      "stateMutability": "view",
      "type": "function"
    },
    {
      "inputs": [],
      "name": "candidateImp",
      "outputs": [
        {
          "internalType": "address",
          "name": "",
          "type": "address"
        }
      ],
      "stateMutability": "view",
      "type": "function"
    },
    {
      "inputs": [],
      "name": "daoCommittee",
      "outputs": [
        {
          "internalType": "address",
          "name": "",
          "type": "address"
        }
      ],
      "stateMutability": "view",
      "type": "function"
    },
    {
      "inputs": [
        {
          "internalType": "address",
          "name": "_sender",
          "type": "address"
        },
        {
          "internalType": "bool",
          "name": "_isLayer2Candidate",
          "type": "bool"
        },
        {
          "internalType": "string",
          "name": "_name",
          "type": "string"
        },
        {
          "internalType": "address",
          "name": "_committee",
          "type": "address"
        },
        {
          "internalType": "address",
          "name": "_seigManager",
          "type": "address"
        }
      ],
      "name": "deploy",
      "outputs": [
        {
          "internalType": "address",
          "name": "",
          "type": "address"
        }
      ],
      "stateMutability": "nonpayable",
      "type": "function"
    },
    {
      "inputs": [],
      "name": "depositManager",
      "outputs": [
        {
          "internalType": "address",
          "name": "",
          "type": "address"
        }
      ],
      "stateMutability": "view",
      "type": "function"
    },
    {
      "inputs": [
        {
          "internalType": "bytes32",
          "name": "role",
          "type": "bytes32"
        }
      ],
      "name": "getRoleAdmin",
      "outputs": [
        {
          "internalType": "bytes32",
          "name": "",
          "type": "bytes32"
        }
      ],
      "stateMutability": "view",
      "type": "function"
    },
    {
      "inputs": [
        {
          "internalType": "bytes32",
          "name": "role",
          "type": "bytes32"
        },
        {
          "internalType": "address",
          "name": "account",
          "type": "address"
        }
      ],
      "name": "grantRole",
      "outputs": [],
      "stateMutability": "nonpayable",
      "type": "function"
    },
    {
      "inputs": [
        {
          "internalType": "bytes32",
          "name": "role",
          "type": "bytes32"
        },
        {
          "internalType": "address",
          "name": "account",
          "type": "address"
        }
      ],
      "name": "hasRole",
      "outputs": [
        {
          "internalType": "bool",
          "name": "",
          "type": "bool"
        }
      ],
      "stateMutability": "view",
      "type": "function"
    },
    {
      "inputs": [
        {
          "internalType": "address",
          "name": "account",
          "type": "address"
        }
      ],
      "name": "isAdmin",
      "outputs": [
        {
          "internalType": "bool",
          "name": "",
          "type": "bool"
        }
      ],
      "stateMutability": "view",
      "type": "function"
    },
    {
      "inputs": [],
      "name": "isOwner",
      "outputs": [
        {
          "internalType": "bool",
          "name": "",
          "type": "bool"
        }
      ],
      "stateMutability": "view",
      "type": "function"
    },
    {
      "inputs": [],
      "name": "pauseProxy",
      "outputs": [
        {
          "internalType": "bool",
          "name": "",
          "type": "bool"
        }
      ],
      "stateMutability": "view",
      "type": "function"
    },
    {
      "inputs": [
        {
          "internalType": "uint256",
          "name": "",
          "type": "uint256"
        }
      ],
      "name": "proxyImplementation",
      "outputs": [
        {
          "internalType": "address",
          "name": "",
          "type": "address"
        }
      ],
      "stateMutability": "view",
      "type": "function"
    },
    {
      "inputs": [
        {
          "internalType": "address",
          "name": "account",
          "type": "address"
        }
      ],
      "name": "removeAdmin",
      "outputs": [],
      "stateMutability": "nonpayable",
      "type": "function"
    },
    {
      "inputs": [],
      "name": "renounceOwnership",
      "outputs": [],
      "stateMutability": "nonpayable",
      "type": "function"
    },
    {
      "inputs": [
        {
          "internalType": "bytes32",
          "name": "role",
          "type": "bytes32"
        },
        {
          "internalType": "address",
          "name": "account",
          "type": "address"
        }
      ],
      "name": "renounceRole",
      "outputs": [],
      "stateMutability": "nonpayable",
      "type": "function"
    },
    {
      "inputs": [
        {
          "internalType": "bytes32",
          "name": "role",
          "type": "bytes32"
        },
        {
          "internalType": "address",
          "name": "account",
          "type": "address"
        }
      ],
      "name": "revokeRole",
      "outputs": [],
      "stateMutability": "nonpayable",
      "type": "function"
    },
    {
      "inputs": [
        {
          "internalType": "bytes4",
          "name": "",
          "type": "bytes4"
        }
      ],
      "name": "selectorImplementation",
      "outputs": [
        {
          "internalType": "address",
          "name": "",
          "type": "address"
        }
      ],
      "stateMutability": "view",
      "type": "function"
    },
    {
      "inputs": [
        {
          "internalType": "address",
          "name": "_depositManager",
          "type": "address"
        },
        {
          "internalType": "address",
          "name": "_daoCommittee",
          "type": "address"
        },
        {
          "internalType": "address",
          "name": "_candidateImp",
          "type": "address"
        },
        {
          "internalType": "address",
          "name": "_ton",
          "type": "address"
        },
        {
          "internalType": "address",
          "name": "_wton",
          "type": "address"
        }
      ],
      "name": "setAddress",
      "outputs": [],
      "stateMutability": "nonpayable",
      "type": "function"
    },
    {
      "inputs": [
        {
          "internalType": "bytes4",
          "name": "interfaceId",
          "type": "bytes4"
        }
      ],
      "name": "supportsInterface",
      "outputs": [
        {
          "internalType": "bool",
          "name": "",
          "type": "bool"
        }
      ],
      "stateMutability": "view",
      "type": "function"
    },
    {
      "inputs": [],
      "name": "ton",
      "outputs": [
        {
          "internalType": "address",
          "name": "",
          "type": "address"
        }
      ],
      "stateMutability": "view",
      "type": "function"
    },
    {
      "inputs": [
        {
          "internalType": "address",
          "name": "newAdmin",
          "type": "address"
        }
      ],
      "name": "transferAdmin",
      "outputs": [],
      "stateMutability": "nonpayable",
      "type": "function"
    },
    {
      "inputs": [
        {
          "internalType": "address",
          "name": "newAdmin",
          "type": "address"
        }
      ],
      "name": "transferOwnership",
      "outputs": [],
      "stateMutability": "nonpayable",
      "type": "function"
    },
    {
      "inputs": [],
      "name": "wton",
      "outputs": [
        {
          "internalType": "address",
          "name": "",
          "type": "address"
        }
      ],
      "stateMutability": "view",
      "type": "function"
    }
  ],
  "bytecode": "0x608060405234801561001057600080fd5b50612cac806100206000396000f3fe60806040523480156200001157600080fd5b5060043610620001af5760003560e01c806375829def11620000f0578063b911135f11620000a3578063d547741f116200007a578063d547741f1462000409578063e64a31f61462000420578063eeac94311462000437578063f2fde38b146200044b57600080fd5b8063b911135f14620003a1578063cc48b94714620003cd578063d539139314620003e157600080fd5b806375829def146200033857806383eeaa7b146200034f5780638d62d94914620003635780638f32d59b146200037757806391d148541462000381578063a217fddf146200039857600080fd5b806336568abe116200016657806363a8fd89116200013d57806363a8fd8914620002f55780636c7ac9d81462000303578063704802751462000317578063715018a6146200032e57600080fd5b806336568abe146200027357806350d2a276146200028a578063550d01a314620002cf57600080fd5b806301ffc9a714620001b457806312c5948814620001e05780631785f53c14620001f9578063248a9ca3146200021057806324d7806c14620002455780632f2ff15d146200025c575b600080fd5b620001cb620001c536600462000f9b565b62000462565b60405190151581526020015b60405180910390f35b620001f7620001f136600462000fe4565b62000475565b005b620001f76200020a36600462001054565b6200064f565b620002366200022136600462001072565b60009081526005602052604090206001015490565b604051908152602001620001d7565b620001cb6200025636600462001054565b62000689565b620001f76200026d3660046200108c565b62000697565b620001f7620002843660046200108c565b620006c5565b620002b66200029b36600462000f9b565b6003602052600090815260409020546001600160a01b031681565b6040516001600160a01b039091168152602001620001d7565b620001cb620002e036600462001054565b60026020526000908152604090205460ff1681565b600054620001cb9060ff1681565b600654620002b6906001600160a01b031681565b620001f76200032836600462001054565b62000747565b620001f76200077e565b620001f76200034936600462001054565b620007b7565b600854620002b6906001600160a01b031681565b600a54620002b6906001600160a01b031681565b620001cb620008a6565b620001cb620003923660046200108c565b620008b9565b62000236600081565b620002b6620003b236600462001072565b6001602052600090815260409020546001600160a01b031681565b600954620002b6906001600160a01b031681565b620002367ff0887ba65ee2024ea881d91b74c2450ef19e1557f03bed3ea9f16b037cbe2dc981565b620001f76200041a3660046200108c565b620008e4565b620002b662000431366004620010d1565b6200090d565b600754620002b6906001600160a01b031681565b620001f76200045c36600462001054565b62000bbb565b60006200046f8262000bf0565b92915050565b620004803362000689565b620004a85760405162461bcd60e51b81526004016200049f90620011c1565b60405180910390fd5b6001600160a01b03821615801590620004c957506001600160a01b03811615155b8015620004de57506001600160a01b03851615155b8015620004f357506001600160a01b03841615155b80156200050857506001600160a01b03831615155b6200053f5760405162461bcd60e51b81526004016200049f906020808252600490820152637a65726f60e01b604082015260600190565b6009546001600160a01b0383811691161415806200056b5750600a546001600160a01b03828116911614155b806200058557506006546001600160a01b03868116911614155b806200059f57506007546001600160a01b03858116911614155b80620005b957506008546001600160a01b03848116911614155b620005f05760405162461bcd60e51b81526004016200049f9060208082526004908201526373616d6560e01b604082015260600190565b600680546001600160a01b03199081166001600160a01b03978816179091556007805482169587169590951790945560088054851693861693909317909255600980548416918516919091179055600a80549092169216919091179055565b6200065a3362000689565b620006795760405162461bcd60e51b81526004016200049f90620011c1565b62000686600082620006c5565b50565b60006200046f8183620008b9565b600082815260056020526040902060010154620006b48162000c18565b620006c0838362000c24565b505050565b6001600160a01b0381163314620007375760405162461bcd60e51b815260206004820152602f60248201527f416363657373436f6e74726f6c3a2063616e206f6e6c792072656e6f756e636560448201526e103937b632b9903337b91039b2b63360891b60648201526084016200049f565b62000743828262000cae565b5050565b620007523362000689565b620007715760405162461bcd60e51b81526004016200049f90620011c1565b6200068660008262000697565b620007893362000689565b620007a85760405162461bcd60e51b81526004016200049f90620011c1565b620007b5600033620006c5565b565b620007c23362000689565b620007e15760405162461bcd60e51b81526004016200049f90620011c1565b6001600160a01b038116620008395760405162461bcd60e51b815260206004820152601860248201527f41636365737369626c653a207a65726f2061646472657373000000000000000060448201526064016200049f565b6001600160a01b03811633036200088c5760405162461bcd60e51b815260206004820152601660248201527520b1b1b2b9b9b4b136329d1039b0b6b29030b236b4b760511b60448201526064016200049f565b6200089960008262000697565b62000686600033620006c5565b6000620008b48133620008b9565b905090565b60009182526005602090815260408084206001600160a01b0393909316845291905290205460ff1690565b600082815260056020526040902060010154620009018162000c18565b620006c0838362000cae565b6007546000906001600160a01b031633146200096c5760405162461bcd60e51b815260206004820152601a60248201527f73656e646572206973206e6f742064616f436f6d6d697474656500000000000060448201526064016200049f565b6007546001600160a01b03848116911614620009c45760405162461bcd60e51b8152602060048201526016602482015275646966666572656e742064616f436f6d6d697474656560501b60448201526064016200049f565b6000604051620009d49062000f8d565b604051809103906000f080158015620009f1573d6000803e3d6000fd5b5090506001600160a01b03811662000a445760405162461bcd60e51b81526020600482015260156024820152747a65726f2043616e646964617465467750726f787960581b60448201526064016200049f565b600854604051631b2ce7f360e11b81526001600160a01b03918216600482015290821690633659cfe690602401600060405180830381600087803b15801562000a8c57600080fd5b505af115801562000aa1573d6000803e3d6000fd5b5050604051630300709760e41b81526001600160a01b03841692506330070970915062000adb908a908a908a908a908a9060040162001257565b600060405180830381600087803b15801562000af657600080fd5b505af115801562000b0b573d6000803e3d6000fd5b50506040516375829def60e01b81526001600160a01b038781166004830152841692506375829def9150602401600060405180830381600087803b15801562000b5357600080fd5b505af115801562000b68573d6000803e3d6000fd5b505050507f3c4e602fb3d18b5678f3527dd1dff51d81f491ffb83393cef8fa3a3597a4c0588782898989898960405162000ba997969594939291906200129d565b60405180910390a19695505050505050565b62000bc63362000689565b62000be55760405162461bcd60e51b81526004016200049f90620011c1565b6200068681620007b7565b60006001600160e01b03198216637965db0b60e01b14806200046f57506200046f8262000d18565b62000686813362000d55565b62000c308282620008b9565b620007435760008281526005602090815260408083206001600160a01b03851684529091529020805460ff1916600117905562000c6a3390565b6001600160a01b0316816001600160a01b0316837f2f8788117e7eff1d82e926ec794901d17c78024a50270940304540a733656f0d60405160405180910390a45050565b62000cba8282620008b9565b15620007435760008281526005602090815260408083206001600160a01b0385168085529252808320805460ff1916905551339285917ff6391f5c32d9c69d2a47ea670b442974b53935d1edc7fd64eb21e047a839171b9190a45050565b60006301ffc9a760e01b6001600160e01b0319831614806200046f5750506001600160e01b03191660009081526004602052604090205460ff1690565b62000d618282620008b9565b620007435762000d718162000db9565b62000d7e83602062000dcc565b60405160200162000d91929190620012f5565b60408051601f198184030181529082905262461bcd60e51b82526200049f916004016200136e565b60606200046f6001600160a01b03831660145b6060600062000ddd83600262001399565b62000dea906002620013b3565b67ffffffffffffffff81111562000e055762000e05620010bb565b6040519080825280601f01601f19166020018201604052801562000e30576020820181803683370190505b509050600360fc1b8160008151811062000e4e5762000e4e620013c9565b60200101906001600160f81b031916908160001a905350600f60fb1b8160018151811062000e805762000e80620013c9565b60200101906001600160f81b031916908160001a905350600062000ea684600262001399565b62000eb3906001620013b3565b90505b600181111562000f35576f181899199a1a9b1b9c1cb0b131b232b360811b85600f166010811062000eeb5762000eeb620013c9565b1a60f81b82828151811062000f045762000f04620013c9565b60200101906001600160f81b031916908160001a90535060049490941c9362000f2d81620013df565b905062000eb6565b50831562000f865760405162461bcd60e51b815260206004820181905260248201527f537472696e67733a20686578206c656e67746820696e73756666696369656e7460448201526064016200049f565b9392505050565b6118a680620013fa83390190565b60006020828403121562000fae57600080fd5b81356001600160e01b03198116811462000f8657600080fd5b80356001600160a01b038116811462000fdf57600080fd5b919050565b600080600080600060a0868803121562000ffd57600080fd5b620010088662000fc7565b9450620010186020870162000fc7565b9350620010286040870162000fc7565b9250620010386060870162000fc7565b9150620010486080870162000fc7565b90509295509295909350565b6000602082840312156200106757600080fd5b62000f868262000fc7565b6000602082840312156200108557600080fd5b5035919050565b60008060408385031215620010a057600080fd5b82359150620010b26020840162000fc7565b90509250929050565b634e487b7160e01b600052604160045260246000fd5b600080600080600060a08688031215620010ea57600080fd5b620010f58662000fc7565b9450602086013580151581146200110b57600080fd5b9350604086013567ffffffffffffffff808211156200112957600080fd5b818801915088601f8301126200113e57600080fd5b813581811115620011535762001153620010bb565b604051601f8201601f19908116603f011681019083821181831017156200117e576200117e620010bb565b816040528281528b60208487010111156200119857600080fd5b826020860160208301376000602084830101528097505050505050620010386060870162000fc7565b60208082526022908201527f41636365737369626c653a2043616c6c6572206973206e6f7420616e2061646d60408201526134b760f11b606082015260800190565b60005b838110156200122057818101518382015260200162001206565b50506000910152565b600081518084526200124381602086016020860162001203565b601f01601f19169290920160200192915050565b600060018060a01b038088168352861515602084015260a060408401526200128360a084018762001229565b948116606084015292909216608090910152509392505050565b600060018060a01b03808a16835280891660208401528088166040840152861515606084015260e06080840152620012d960e084018762001229565b94811660a08401529290921660c0909101525095945050505050565b7f416363657373436f6e74726f6c3a206163636f756e74200000000000000000008152600083516200132f81601785016020880162001203565b7001034b99036b4b9b9b4b733903937b6329607d1b60179184019182015283516200136281602884016020880162001203565b01602801949350505050565b60208152600062000f86602083018462001229565b634e487b7160e01b600052601160045260246000fd5b80820281158282048414176200046f576200046f62001383565b808201808211156200046f576200046f62001383565b634e487b7160e01b600052603260045260246000fd5b600081620013f157620013f162001383565b50600019019056fe608060405234801561001057600080fd5b5061001c600033610021565b6100d1565b61002b828261002f565b5050565b60008281526005602090815260408083206001600160a01b038516845290915290205460ff1661002b5760008281526005602090815260408083206001600160a01b03851684529091529020805460ff1916600117905561008d3390565b6001600160a01b0316816001600160a01b0316837f2f8788117e7eff1d82e926ec794901d17c78024a50270940304540a733656f0d60405160405180910390a45050565b6117c6806100e06000396000f3fe6080604052600436106101e75760003560e01c8063704802751161010257806391d1485411610095578063d539139311610064578063d53913931461062f578063d547741f14610663578063d864e74014610683578063f2fde38b146106a357610230565b806391d14854146105aa5780639b638268146105ca578063a217fddf146105e4578063b911135f146105f957610230565b80637cd5f663116100d15780637cd5f663146105355780638b8f4a65146105555780638d4fdb40146105755780638f32d59b1461059557610230565b806370480275146104c0578063715018a6146104e057806375829def146104f55780637cb00d251461051557610230565b806350d2a2761161017a5780635cc797d8116101495780635cc797d81461044157806363a8fd89146104615780636c8381f81461047b5780636fb7f558146104a057610230565b806350d2a2761461036d578063550d01a3146103bb57806358c3b870146103eb5780635c60da1b1461040d57610230565b80632f2ff15d116101b65780632f2ff15d146102ed57806336568abe1461030d5780633659cfe61461032d5780634a5df50f1461034d57610230565b806301ffc9a71461023a5780631785f53c1461026f578063248a9ca31461028f57806324d7806c146102cd57610230565b366102305760405162461bcd60e51b815260206004820152601460248201527331b0b73737ba103932b1b2b4bb329022ba3432b960611b60448201526064015b60405180910390fd5b6102386106c3565b005b34801561024657600080fd5b5061025a610255366004611408565b61076c565b60405190151581526020015b60405180910390f35b34801561027b57600080fd5b5061023861028a366004611449565b61077d565b34801561029b57600080fd5b506102bf6102aa366004611464565b60009081526005602052604090206001015490565b604051908152602001610266565b3480156102d957600080fd5b5061025a6102e8366004611449565b6107b0565b3480156102f957600080fd5b5061023861030836600461147d565b6107bc565b34801561031957600080fd5b5061023861032836600461147d565b6107e1565b34801561033957600080fd5b50610238610348366004611449565b61085f565b34801561035957600080fd5b506102386103683660046114a9565b61096d565b34801561037957600080fd5b506103a3610388366004611408565b6003602052600090815260409020546001600160a01b031681565b6040516001600160a01b039091168152602001610266565b3480156103c757600080fd5b5061025a6103d6366004611449565b60026020526000908152604090205460ff1681565b3480156103f757600080fd5b50610400610bcf565b6040516102669190611551565b34801561041957600080fd5b5060008052600160205260008051602061179a833981519152546001600160a01b03166103a3565b34801561044d57600080fd5b5061023861045c366004611594565b610c62565b34801561046d57600080fd5b5060005461025a9060ff1681565b34801561048757600080fd5b506007546103a39061010090046001600160a01b031681565b3480156104ac57600080fd5b50600a546103a3906001600160a01b031681565b3480156104cc57600080fd5b506102386104db366004611449565b610c91565b3480156104ec57600080fd5b50610238610cc1565b34801561050157600080fd5b50610238610510366004611449565b610cf3565b34801561052157600080fd5b506102386105303660046115be565b610dd5565b34801561054157600080fd5b506102386105503660046115d9565b610e0d565b34801561056157600080fd5b506103a3610570366004611464565b610e3d565b34801561058157600080fd5b506103a3610590366004611408565b610e5a565b3480156105a157600080fd5b5061025a610f32565b3480156105b657600080fd5b5061025a6105c536600461147d565b610f3a565b3480156105d657600080fd5b5060075461025a9060ff1681565b3480156105f057600080fd5b506102bf600081565b34801561060557600080fd5b506103a3610614366004611464565b6001602052600090815260409020546001600160a01b031681565b34801561063b57600080fd5b506102bf7ff0887ba65ee2024ea881d91b74c2450ef19e1557f03bed3ea9f16b037cbe2dc981565b34801561066f57600080fd5b5061023861067e36600461147d565b610f65565b34801561068f57600080fd5b506009546103a3906001600160a01b031681565b3480156106af57600080fd5b506102386106be366004611449565b610f8a565b60006106da6000356001600160e01b031916610e5a565b90506001600160a01b038116158015906106f7575060005460ff16155b6107435760405162461bcd60e51b815260206004820152601d60248201527f50726f78793a20696d706c204f522070726f78792069732066616c73650000006044820152606401610227565b3660008037600080366000845af43d6000803e808015610762573d6000f35b3d6000fd5b505050565b600061077782610fb8565b92915050565b610786336107b0565b6107a25760405162461bcd60e51b81526004016102279061160c565b6107ad6000826107e1565b50565b60006107778183610f3a565b6000828152600560205260409020600101546107d781610fdd565b6107678383610fe7565b6001600160a01b03811633146108515760405162461bcd60e51b815260206004820152602f60248201527f416363657373436f6e74726f6c3a2063616e206f6e6c792072656e6f756e636560448201526e103937b632b9903337b91039b2b63360891b6064820152608401610227565b61085b828261106d565b5050565b610868336107b0565b6108845760405162461bcd60e51b81526004016102279061160c565b6001600160a01b0381166108ca5760405162461bcd60e51b815260206004820152600d60248201526c696e707574206973207a65726f60981b6044820152606401610227565b60008052600160205260008051602061179a833981519152546001600160a01b038281169116036109295760405162461bcd60e51b815260206004820152600960248201526839b0b6b29030b2323960b91b6044820152606401610227565b61093681600060016110d4565b6040516001600160a01b038216907fbc7cd75a20ee27fd9adebab32041f755214dbc6bffa90cc0225b39da2e5c2d3b90600090a250565b610976336107b0565b6109925760405162461bcd60e51b81526004016102279061160c565b816109df5760405162461bcd60e51b815260206004820181905260248201527f50726f78793a205f73656c6563746f727327732073697a65206973207a65726f6044820152606401610227565b6001600160a01b03811660009081526002602052604090205460ff16610a475760405162461bcd60e51b815260206004820152601860248201527f50726f78793a205f696d70206973206e6f7420616c69766500000000000000006044820152606401610227565b60005b82811015610bc957816001600160a01b031660036000868685818110610a7257610a7261164e565b9050602002016020810190610a879190611408565b6001600160e01b03191681526020810191909152604001600020546001600160a01b031603610af85760405162461bcd60e51b815260206004820152601d60248201527f4c69717569646974795661756c7450726f78793a2073616d6520696d700000006044820152606401610227565b8160036000868685818110610b0f57610b0f61164e565b9050602002016020810190610b249190611408565b6001600160e01b0319168152602081019190915260400160002080546001600160a01b0319166001600160a01b039283161790558216848483818110610b6c57610b6c61164e565b9050602002016020810190610b819190611408565b6001600160e01b0319167f14ebc1c32aa68f4d766e89f3e546cee249f7df25183fc10ab1568d91c2ce9b7b60405160405180910390a380610bc18161167a565b915050610a4a565b50505050565b60088054610bdc90611693565b80601f0160208091040260200160405190810160405280929190818152602001828054610c0890611693565b8015610c555780601f10610c2a57610100808354040283529160200191610c55565b820191906000526020600020905b815481529060010190602001808311610c3857829003601f168201915b505050505081565b905090565b610c6b336107b0565b610c875760405162461bcd60e51b81526004016102279061160c565b61085b828261115f565b610c9a336107b0565b610cb65760405162461bcd60e51b81526004016102279061160c565b6107ad6000826107bc565b610cca336107b0565b610ce65760405162461bcd60e51b81526004016102279061160c565b610cf16000336107e1565b565b610cfc336107b0565b610d185760405162461bcd60e51b81526004016102279061160c565b6001600160a01b038116610d6e5760405162461bcd60e51b815260206004820152601860248201527f41636365737369626c653a207a65726f206164647265737300000000000000006044820152606401610227565b6001600160a01b0381163303610dbf5760405162461bcd60e51b815260206004820152601660248201527520b1b1b2b9b9b4b136329d1039b0b6b29030b236b4b760511b6044820152606401610227565b610dca6000826107bc565b6107ad6000336107e1565b610dde336107b0565b610dfa5760405162461bcd60e51b81526004016102279061160c565b6000805460ff1916911515919091179055565b610e16336107b0565b610e325760405162461bcd60e51b81526004016102279061160c565b6107678383836110d4565b6000818152600160205260408120546001600160a01b0316610777565b6001600160e01b031981166000908152600360205260408120546001600160a01b0316610ea857505060008052600160205260008051602061179a833981519152546001600160a01b031690565b6001600160e01b031982166000908152600360209081526040808320546001600160a01b03168352600290915290205460ff1615610f0657506001600160e01b0319166000908152600360205260409020546001600160a01b031690565b505060008052600160205260008051602061179a833981519152546001600160a01b031690565b919050565b6000610c5d81335b60009182526005602090815260408084206001600160a01b0393909316845291905290205460ff1690565b600082815260056020526040902060010154610f8081610fdd565b610767838361106d565b610f93336107b0565b610faf5760405162461bcd60e51b81526004016102279061160c565b6107ad81610cf3565b60006001600160e01b03198216637965db0b60e01b14806107775750610777826111be565b6107ad81336111fa565b610ff18282610f3a565b61085b5760008281526005602090815260408083206001600160a01b03851684529091529020805460ff191660011790556110293390565b6001600160a01b0316816001600160a01b0316837f2f8788117e7eff1d82e926ec794901d17c78024a50270940304540a733656f0d60405160405180910390a45050565b6110778282610f3a565b1561085b5760008281526005602090815260408083206001600160a01b0385168085529252808320805460ff1916905551339285917ff6391f5c32d9c69d2a47ea670b442974b53935d1edc7fd64eb21e047a839171b9190a45050565b6001600160a01b0383163b61112b5760405162461bcd60e51b815260206004820152601b60248201527f50726f78793a206e6f7420636f6e7472616374206164647265737300000000006044820152606401610227565b801561115957600082815260016020526040902080546001600160a01b0319166001600160a01b0385161790555b61076783825b6001600160a01b038216600081815260026020908152604091829020805460ff191685151590811790915591519182527f72558d9bfba4210f9ef095c782589484151f6d90f7a81bb3cb9b33efc695d324910160405180910390a25050565b60006301ffc9a760e01b6001600160e01b0319831614806107775750506001600160e01b03191660009081526004602052604090205460ff1690565b6112048282610f3a565b61085b5761121181611253565b61121c836020611265565b60405160200161122d9291906116cd565b60408051601f198184030181529082905262461bcd60e51b825261022791600401611551565b60606107776001600160a01b03831660145b60606000611274836002611742565b61127f906002611759565b67ffffffffffffffff8111156112975761129761176c565b6040519080825280601f01601f1916602001820160405280156112c1576020820181803683370190505b509050600360fc1b816000815181106112dc576112dc61164e565b60200101906001600160f81b031916908160001a905350600f60fb1b8160018151811061130b5761130b61164e565b60200101906001600160f81b031916908160001a905350600061132f846002611742565b61133a906001611759565b90505b60018111156113b2576f181899199a1a9b1b9c1cb0b131b232b360811b85600f166010811061136e5761136e61164e565b1a60f81b8282815181106113845761138461164e565b60200101906001600160f81b031916908160001a90535060049490941c936113ab81611782565b905061133d565b5083156114015760405162461bcd60e51b815260206004820181905260248201527f537472696e67733a20686578206c656e67746820696e73756666696369656e746044820152606401610227565b9392505050565b60006020828403121561141a57600080fd5b81356001600160e01b03198116811461140157600080fd5b80356001600160a01b0381168114610f2d57600080fd5b60006020828403121561145b57600080fd5b61140182611432565b60006020828403121561147657600080fd5b5035919050565b6000806040838503121561149057600080fd5b823591506114a060208401611432565b90509250929050565b6000806000604084860312156114be57600080fd5b833567ffffffffffffffff808211156114d657600080fd5b818601915086601f8301126114ea57600080fd5b8135818111156114f957600080fd5b8760208260051b850101111561150e57600080fd5b6020928301955093506115249186019050611432565b90509250925092565b60005b83811015611548578181015183820152602001611530565b50506000910152565b602081526000825180602084015261157081604085016020870161152d565b601f01601f19169190910160400192915050565b80358015158114610f2d57600080fd5b600080604083850312156115a757600080fd5b6115b083611432565b91506114a060208401611584565b6000602082840312156115d057600080fd5b61140182611584565b6000806000606084860312156115ee57600080fd5b6115f784611432565b92506020840135915061152460408501611584565b60208082526022908201527f41636365737369626c653a2043616c6c6572206973206e6f7420616e2061646d60408201526134b760f11b606082015260800190565b634e487b7160e01b600052603260045260246000fd5b634e487b7160e01b600052601160045260246000fd5b60006001820161168c5761168c611664565b5060010190565b600181811c908216806116a757607f821691505b6020821081036116c757634e487b7160e01b600052602260045260246000fd5b50919050565b7f416363657373436f6e74726f6c3a206163636f756e742000000000000000000081526000835161170581601785016020880161152d565b7001034b99036b4b9b9b4b733903937b6329607d1b601791840191820152835161173681602884016020880161152d565b01602801949350505050565b808202811582820484141761077757610777611664565b8082018082111561077757610777611664565b634e487b7160e01b600052604160045260246000fd5b60008161179157611791611664565b50600019019056fea6eef7e35abe7026729641147f7915573c7e97b47efa546f5f6e3230263bcb49a164736f6c6343000813000aa164736f6c6343000813000a",
  "linkReferences": {},
  "deployedLinkReferences": {}
}