{
  "_format": "hh-sol-artifact-1",
  "contractName": "L2SeigManager",
  "sourceName": "contracts/L2/L2SeigManager.sol",
  "abi": [
    {
      "anonymous": false,
      "inputs": [
        {
          "indexed": false,
          "internalType": "address",
          "name": "layer2",
          "type": "address"
        },
        {
          "indexed": false,
          "internalType": "address",
          "name": "account",
          "type": "address"
        },
        {
          "indexed": false,
          "internalType": "uint256",
          "name": "swtonAmount",
          "type": "uint256"
        },
        {
          "indexed": false,
          "internalType": "uint256",
          "name": "lswton",
          "type": "uint256"
        }
      ],
      "name": "Deposited",
      "type": "event"
    },
    {
      "anonymous": false,
      "inputs": [
        {
          "indexed": false,
          "internalType": "uint256",
          "name": "snapshotId",
          "type": "uint256"
        }
      ],
      "name": "OnSnapshot",
      "type": "event"
    },
    {
      "anonymous": false,
      "inputs": [
        {
          "indexed": false,
          "internalType": "address",
          "name": "layer2",
          "type": "address"
        },
        {
          "indexed": false,
          "internalType": "uint256",
          "name": "sharePerRay",
          "type": "uint256"
        },
        {
          "indexed": false,
          "internalType": "uint256",
          "name": "oldIndex",
          "type": "uint256"
        },
        {
          "indexed": false,
          "internalType": "uint256",
          "name": "newIndex",
          "type": "uint256"
        }
      ],
      "name": "RebasedIndex",
      "type": "event"
    },
    {
      "anonymous": false,
      "inputs": [
        {
          "indexed": false,
          "internalType": "address",
          "name": "layer2",
          "type": "address"
        },
        {
          "indexed": false,
          "internalType": "address",
          "name": "account",
          "type": "address"
        },
        {
          "indexed": false,
          "internalType": "uint256",
          "name": "oldLswton",
          "type": "uint256"
        },
        {
          "indexed": false,
          "internalType": "uint256",
          "name": "lswton",
          "type": "uint256"
        }
      ],
      "name": "Replaced",
      "type": "event"
    },
    {
      "anonymous": false,
      "inputs": [
        {
          "indexed": true,
          "internalType": "bytes32",
          "name": "role",
          "type": "bytes32"
        },
        {
          "indexed": true,
          "internalType": "bytes32",
          "name": "previousAdminRole",
          "type": "bytes32"
        },
        {
          "indexed": true,
          "internalType": "bytes32",
          "name": "newAdminRole",
          "type": "bytes32"
        }
      ],
      "name": "RoleAdminChanged",
      "type": "event"
    },
    {
      "anonymous": false,
      "inputs": [
        {
          "indexed": true,
          "internalType": "bytes32",
          "name": "role",
          "type": "bytes32"
        },
        {
          "indexed": true,
          "internalType": "address",
          "name": "account",
          "type": "address"
        },
        {
          "indexed": true,
          "internalType": "address",
          "name": "sender",
          "type": "address"
        }
      ],
      "name": "RoleGranted",
      "type": "event"
    },
    {
      "anonymous": false,
      "inputs": [
        {
          "indexed": true,
          "internalType": "bytes32",
          "name": "role",
          "type": "bytes32"
        },
        {
          "indexed": true,
          "internalType": "address",
          "name": "account",
          "type": "address"
        },
        {
          "indexed": true,
          "internalType": "address",
          "name": "sender",
          "type": "address"
        }
      ],
      "name": "RoleRevoked",
      "type": "event"
    },
    {
      "anonymous": false,
      "inputs": [
        {
          "indexed": false,
          "internalType": "address",
          "name": "layer2",
          "type": "address"
        },
        {
          "indexed": false,
          "internalType": "address",
          "name": "account",
          "type": "address"
        },
        {
          "indexed": false,
          "internalType": "uint256",
          "name": "swtonAmount",
          "type": "uint256"
        },
        {
          "indexed": false,
          "internalType": "uint256",
          "name": "lswton",
          "type": "uint256"
        }
      ],
      "name": "Unstaked",
      "type": "event"
    },
    {
      "inputs": [],
      "name": "CHALLENGER_ROLE",
      "outputs": [
        {
          "internalType": "bytes32",
          "name": "",
          "type": "bytes32"
        }
      ],
      "stateMutability": "view",
      "type": "function"
    },
    {
      "inputs": [],
      "name": "DEFAULT_ADMIN_ROLE",
      "outputs": [
        {
          "internalType": "bytes32",
          "name": "",
          "type": "bytes32"
        }
      ],
      "stateMutability": "view",
      "type": "function"
    },
    {
      "inputs": [],
      "name": "DEFAULT_FACTOR",
      "outputs": [
        {
          "internalType": "uint256",
          "name": "",
          "type": "uint256"
        }
      ],
      "stateMutability": "view",
      "type": "function"
    },
    {
      "inputs": [],
      "name": "MINTER_ROLE",
      "outputs": [
        {
          "internalType": "bytes32",
          "name": "",
          "type": "bytes32"
        }
      ],
      "stateMutability": "view",
      "type": "function"
    },
    {
      "inputs": [],
      "name": "OPERATOR_ROLE",
      "outputs": [
        {
          "internalType": "bytes32",
          "name": "",
          "type": "bytes32"
        }
      ],
      "stateMutability": "view",
      "type": "function"
    },
    {
      "inputs": [],
      "name": "PAUSE_ROLE",
      "outputs": [
        {
          "internalType": "bytes32",
          "name": "",
          "type": "bytes32"
        }
      ],
      "stateMutability": "view",
      "type": "function"
    },
    {
      "inputs": [
        {
          "internalType": "address",
          "name": "account",
          "type": "address"
        }
      ],
      "name": "addAdmin",
      "outputs": [],
      "stateMutability": "nonpayable",
      "type": "function"
    },
    {
      "inputs": [
        {
          "internalType": "address",
          "name": "account",
          "type": "address"
        }
      ],
      "name": "addChallenger",
      "outputs": [],
      "stateMutability": "nonpayable",
      "type": "function"
    },
    {
      "inputs": [
        {
          "internalType": "address[]",
          "name": "layer2s",
          "type": "address[]"
        }
      ],
      "name": "addLayers",
      "outputs": [],
      "stateMutability": "nonpayable",
      "type": "function"
    },
    {
      "inputs": [
        {
          "internalType": "address",
          "name": "account",
          "type": "address"
        }
      ],
      "name": "addMinter",
      "outputs": [],
      "stateMutability": "nonpayable",
      "type": "function"
    },
    {
      "inputs": [
        {
          "internalType": "address",
          "name": "account",
          "type": "address"
        }
      ],
      "name": "addOperator",
      "outputs": [],
      "stateMutability": "nonpayable",
      "type": "function"
    },
    {
      "inputs": [
        {
          "internalType": "address",
          "name": "",
          "type": "address"
        }
      ],
      "name": "aliveImplementation",
      "outputs": [
        {
          "internalType": "bool",
          "name": "",
          "type": "bool"
        }
      ],
      "stateMutability": "view",
      "type": "function"
    },
    {
      "inputs": [
        {
          "internalType": "address",
          "name": "account",
          "type": "address"
        }
      ],
      "name": "balanceOf",
      "outputs": [
        {
          "internalType": "uint256",
          "name": "amount",
          "type": "uint256"
        }
      ],
      "stateMutability": "view",
      "type": "function"
    },
    {
      "inputs": [
        {
          "internalType": "address",
          "name": "layer2",
          "type": "address"
        },
        {
          "internalType": "address",
          "name": "account",
          "type": "address"
        }
      ],
      "name": "balanceOf",
      "outputs": [
        {
          "internalType": "uint256",
          "name": "",
          "type": "uint256"
        }
      ],
      "stateMutability": "view",
      "type": "function"
    },
    {
      "inputs": [],
      "name": "decimals",
      "outputs": [
        {
          "internalType": "uint256",
          "name": "",
          "type": "uint256"
        }
      ],
      "stateMutability": "pure",
      "type": "function"
    },
    {
      "inputs": [
        {
          "internalType": "address",
          "name": "layer2",
          "type": "address"
        },
        {
          "internalType": "address",
          "name": "account",
          "type": "address"
        },
        {
          "internalType": "uint256",
          "name": "swtonAmount",
          "type": "uint256"
        }
      ],
      "name": "deposit",
      "outputs": [
        {
          "internalType": "bool",
          "name": "",
          "type": "bool"
        }
      ],
      "stateMutability": "nonpayable",
      "type": "function"
    },
    {
      "inputs": [],
      "name": "getL1LayersNum",
      "outputs": [
        {
          "internalType": "uint256",
          "name": "",
          "type": "uint256"
        }
      ],
      "stateMutability": "view",
      "type": "function"
    },
    {
      "inputs": [
        {
          "internalType": "address",
          "name": "layer2",
          "type": "address"
        },
        {
          "internalType": "uint256",
          "name": "lswton_",
          "type": "uint256"
        }
      ],
      "name": "getLswtonToSwton",
      "outputs": [
        {
          "internalType": "uint256",
          "name": "",
          "type": "uint256"
        }
      ],
      "stateMutability": "view",
      "type": "function"
    },
    {
      "inputs": [
        {
          "internalType": "bytes32",
          "name": "role",
          "type": "bytes32"
        }
      ],
      "name": "getRoleAdmin",
      "outputs": [
        {
          "internalType": "bytes32",
          "name": "",
          "type": "bytes32"
        }
      ],
      "stateMutability": "view",
      "type": "function"
    },
    {
      "inputs": [
        {
          "internalType": "address",
          "name": "layer2",
          "type": "address"
        },
        {
          "internalType": "uint256",
          "name": "amount",
          "type": "uint256"
        }
      ],
      "name": "getSwtonToLswton",
      "outputs": [
        {
          "internalType": "uint256",
          "name": "",
          "type": "uint256"
        }
      ],
      "stateMutability": "view",
      "type": "function"
    },
    {
      "inputs": [
        {
          "internalType": "bytes32",
          "name": "role",
          "type": "bytes32"
        },
        {
          "internalType": "address",
          "name": "account",
          "type": "address"
        }
      ],
      "name": "grantRole",
      "outputs": [],
      "stateMutability": "nonpayable",
      "type": "function"
    },
    {
      "inputs": [
        {
          "internalType": "bytes32",
          "name": "role",
          "type": "bytes32"
        },
        {
          "internalType": "address",
          "name": "account",
          "type": "address"
        }
      ],
      "name": "hasRole",
      "outputs": [
        {
          "internalType": "bool",
          "name": "",
          "type": "bool"
        }
      ],
      "stateMutability": "view",
      "type": "function"
    },
    {
      "inputs": [
        {
          "internalType": "address",
          "name": "",
          "type": "address"
        }
      ],
      "name": "index",
      "outputs": [
        {
          "internalType": "uint256",
          "name": "",
          "type": "uint256"
        }
      ],
      "stateMutability": "view",
      "type": "function"
    },
    {
      "inputs": [
        {
          "internalType": "address",
          "name": "l1StakedTonInL2_",
          "type": "address"
        },
        {
          "internalType": "address",
          "name": "l2messanger_",
          "type": "address"
        }
      ],
      "name": "initialize",
      "outputs": [],
      "stateMutability": "nonpayable",
      "type": "function"
    },
    {
      "inputs": [
        {
          "internalType": "address",
          "name": "account",
          "type": "address"
        }
      ],
      "name": "isAdmin",
      "outputs": [
        {
          "internalType": "bool",
          "name": "",
          "type": "bool"
        }
      ],
      "stateMutability": "view",
      "type": "function"
    },
    {
      "inputs": [
        {
          "internalType": "address",
          "name": "account",
          "type": "address"
        }
      ],
      "name": "isChallenger",
      "outputs": [
        {
          "internalType": "bool",
          "name": "",
          "type": "bool"
        }
      ],
      "stateMutability": "view",
      "type": "function"
    },
    {
      "inputs": [
        {
          "internalType": "address",
          "name": "account",
          "type": "address"
        }
      ],
      "name": "isMinter",
      "outputs": [
        {
          "internalType": "bool",
          "name": "",
          "type": "bool"
        }
      ],
      "stateMutability": "view",
      "type": "function"
    },
    {
      "inputs": [
        {
          "internalType": "address",
          "name": "account",
          "type": "address"
        }
      ],
      "name": "isOperator",
      "outputs": [
        {
          "internalType": "bool",
          "name": "",
          "type": "bool"
        }
      ],
      "stateMutability": "view",
      "type": "function"
    },
    {
      "inputs": [],
      "name": "isOwner",
      "outputs": [
        {
          "internalType": "bool",
          "name": "",
          "type": "bool"
        }
      ],
      "stateMutability": "view",
      "type": "function"
    },
    {
      "inputs": [],
      "name": "l1StakedTonInL2",
      "outputs": [
        {
          "internalType": "address",
          "name": "",
          "type": "address"
        }
      ],
      "stateMutability": "view",
      "type": "function"
    },
    {
      "inputs": [
        {
          "internalType": "uint256",
          "name": "",
          "type": "uint256"
        }
      ],
      "name": "l1layer2s",
      "outputs": [
        {
          "internalType": "address",
          "name": "",
          "type": "address"
        }
      ],
      "stateMutability": "view",
      "type": "function"
    },
    {
      "inputs": [],
      "name": "l2CrossDomainMessenger",
      "outputs": [
        {
          "internalType": "address",
          "name": "",
          "type": "address"
        }
      ],
      "stateMutability": "view",
      "type": "function"
    },
    {
      "inputs": [],
      "name": "lastSnapshotId",
      "outputs": [
        {
          "internalType": "uint256",
          "name": "",
          "type": "uint256"
        }
      ],
      "stateMutability": "view",
      "type": "function"
    },
    {
      "inputs": [],
      "name": "name",
      "outputs": [
        {
          "internalType": "string",
          "name": "",
          "type": "string"
        }
      ],
      "stateMutability": "pure",
      "type": "function"
    },
    {
      "inputs": [],
      "name": "onSnapshot",
      "outputs": [
        {
          "internalType": "uint256",
          "name": "snapshotId",
          "type": "uint256"
        }
      ],
      "stateMutability": "nonpayable",
      "type": "function"
    },
    {
      "inputs": [],
      "name": "pauseProxy",
      "outputs": [
        {
          "internalType": "bool",
          "name": "",
          "type": "bool"
        }
      ],
      "stateMutability": "view",
      "type": "function"
    },
    {
      "inputs": [],
      "name": "progressSnapshotId",
      "outputs": [
        {
          "internalType": "uint256",
          "name": "",
          "type": "uint256"
        }
      ],
      "stateMutability": "view",
      "type": "function"
    },
    {
      "inputs": [
        {
          "internalType": "uint256",
          "name": "",
          "type": "uint256"
        }
      ],
      "name": "proxyImplementation",
      "outputs": [
        {
          "internalType": "address",
          "name": "",
          "type": "address"
        }
      ],
      "stateMutability": "view",
      "type": "function"
    },
    {
      "inputs": [
        {
          "internalType": "address",
          "name": "layer2",
          "type": "address"
        },
        {
          "internalType": "uint256",
          "name": "sharePerRay",
          "type": "uint256"
        }
      ],
      "name": "rebaseIndex",
      "outputs": [
        {
          "internalType": "bool",
          "name": "",
          "type": "bool"
        }
      ],
      "stateMutability": "nonpayable",
      "type": "function"
    },
    {
      "inputs": [
        {
          "internalType": "address",
          "name": "account",
          "type": "address"
        },
        {
          "components": [
            {
              "internalType": "address",
              "name": "layer",
              "type": "address"
            },
            {
              "internalType": "uint256",
              "name": "stakedAmount",
              "type": "uint256"
            }
          ],
          "internalType": "struct LibL1StakedInfo.L1StakedPacket[]",
          "name": "packets",
          "type": "tuple[]"
        }
      ],
      "name": "register",
      "outputs": [
        {
          "internalType": "bool",
          "name": "",
          "type": "bool"
        }
      ],
      "stateMutability": "nonpayable",
      "type": "function"
    },
    {
      "inputs": [
        {
          "internalType": "address",
          "name": "account",
          "type": "address"
        }
      ],
      "name": "removeAdmin",
      "outputs": [],
      "stateMutability": "nonpayable",
      "type": "function"
    },
    {
      "inputs": [
        {
          "internalType": "address",
          "name": "account",
          "type": "address"
        }
      ],
      "name": "removeChallenger",
      "outputs": [],
      "stateMutability": "nonpayable",
      "type": "function"
    },
    {
      "inputs": [
        {
          "internalType": "address",
          "name": "account",
          "type": "address"
        }
      ],
      "name": "removeMinter",
      "outputs": [],
      "stateMutability": "nonpayable",
      "type": "function"
    },
    {
      "inputs": [
        {
          "internalType": "address",
          "name": "account",
          "type": "address"
        }
      ],
      "name": "removeOperator",
      "outputs": [],
      "stateMutability": "nonpayable",
      "type": "function"
    },
    {
      "inputs": [],
      "name": "renounceChallenger",
      "outputs": [],
      "stateMutability": "nonpayable",
      "type": "function"
    },
    {
      "inputs": [],
      "name": "renounceMinter",
      "outputs": [],
      "stateMutability": "nonpayable",
      "type": "function"
    },
    {
      "inputs": [],
      "name": "renounceOperator",
      "outputs": [],
      "stateMutability": "nonpayable",
      "type": "function"
    },
    {
      "inputs": [],
      "name": "renounceOwnership",
      "outputs": [],
      "stateMutability": "nonpayable",
      "type": "function"
    },
    {
      "inputs": [
        {
          "internalType": "bytes32",
          "name": "role",
          "type": "bytes32"
        },
        {
          "internalType": "address",
          "name": "account",
          "type": "address"
        }
      ],
      "name": "renounceRole",
      "outputs": [],
      "stateMutability": "nonpayable",
      "type": "function"
    },
    {
      "inputs": [
        {
          "internalType": "address",
          "name": "account",
          "type": "address"
        }
      ],
      "name": "revokeChallenger",
      "outputs": [],
      "stateMutability": "nonpayable",
      "type": "function"
    },
    {
      "inputs": [
        {
          "internalType": "address",
          "name": "account",
          "type": "address"
        }
      ],
      "name": "revokeMinter",
      "outputs": [],
      "stateMutability": "nonpayable",
      "type": "function"
    },
    {
      "inputs": [
        {
          "internalType": "address",
          "name": "account",
          "type": "address"
        }
      ],
      "name": "revokeOperator",
      "outputs": [],
      "stateMutability": "nonpayable",
      "type": "function"
    },
    {
      "inputs": [
        {
          "internalType": "bytes32",
          "name": "role",
          "type": "bytes32"
        },
        {
          "internalType": "address",
          "name": "account",
          "type": "address"
        }
      ],
      "name": "revokeRole",
      "outputs": [],
      "stateMutability": "nonpayable",
      "type": "function"
    },
    {
      "inputs": [
        {
          "internalType": "bytes4",
          "name": "",
          "type": "bytes4"
        }
      ],
      "name": "selectorImplementation",
      "outputs": [
        {
          "internalType": "address",
          "name": "",
          "type": "address"
        }
      ],
      "stateMutability": "view",
      "type": "function"
    },
    {
      "inputs": [
        {
          "internalType": "address",
          "name": "",
          "type": "address"
        },
        {
          "internalType": "address",
          "name": "",
          "type": "address"
        }
      ],
      "name": "stakedInfo",
      "outputs": [
        {
          "internalType": "uint256",
          "name": "deposit",
          "type": "uint256"
        },
        {
          "internalType": "uint256",
          "name": "lswton",
          "type": "uint256"
        }
      ],
      "stateMutability": "view",
      "type": "function"
    },
    {
      "inputs": [
        {
          "internalType": "bytes4",
          "name": "interfaceId",
          "type": "bytes4"
        }
      ],
      "name": "supportsInterface",
      "outputs": [
        {
          "internalType": "bool",
          "name": "",
          "type": "bool"
        }
      ],
      "stateMutability": "view",
      "type": "function"
    },
    {
      "inputs": [],
      "name": "symbol",
      "outputs": [
        {
          "internalType": "string",
          "name": "",
          "type": "string"
        }
      ],
      "stateMutability": "pure",
      "type": "function"
    },
    {
      "inputs": [
        {
          "internalType": "address",
          "name": "",
          "type": "address"
        }
      ],
      "name": "totalLswton",
      "outputs": [
        {
          "internalType": "uint256",
          "name": "",
          "type": "uint256"
        }
      ],
      "stateMutability": "view",
      "type": "function"
    },
    {
      "inputs": [],
      "name": "totalSupply",
      "outputs": [
        {
          "internalType": "uint256",
          "name": "amount",
          "type": "uint256"
        }
      ],
      "stateMutability": "view",
      "type": "function"
    },
    {
      "inputs": [
        {
          "internalType": "address",
          "name": "layer2",
          "type": "address"
        }
      ],
      "name": "totalSupply",
      "outputs": [
        {
          "internalType": "uint256",
          "name": "amount",
          "type": "uint256"
        }
      ],
      "stateMutability": "view",
      "type": "function"
    },
    {
      "inputs": [
        {
          "internalType": "address",
          "name": "newAdmin",
          "type": "address"
        }
      ],
      "name": "transferAdmin",
      "outputs": [],
      "stateMutability": "nonpayable",
      "type": "function"
    },
    {
      "inputs": [
        {
          "internalType": "address",
          "name": "newAdmin",
          "type": "address"
        }
      ],
      "name": "transferOwnership",
      "outputs": [],
      "stateMutability": "nonpayable",
      "type": "function"
    },
    {
      "inputs": [
        {
          "internalType": "address",
          "name": "layer2",
          "type": "address"
        },
        {
          "internalType": "address",
          "name": "account",
          "type": "address"
        },
        {
          "internalType": "uint256",
          "name": "swtonAmount",
          "type": "uint256"
        }
      ],
      "name": "unstaking",
      "outputs": [
        {
          "internalType": "bool",
          "name": "",
          "type": "bool"
        }
      ],
      "stateMutability": "nonpayable",
      "type": "function"
    },
    {
      "inputs": [
        {
          "internalType": "address",
          "name": "layer2",
          "type": "address"
        },
        {
          "internalType": "address",
          "name": "account",
          "type": "address"
        }
      ],
      "name": "viewStakedInfo",
      "outputs": [
        {
          "components": [
            {
              "internalType": "uint256",
              "name": "deposit",
              "type": "uint256"
            },
            {
              "internalType": "uint256",
              "name": "lswton",
              "type": "uint256"
            }
          ],
          "internalType": "struct LibL2StakedInfo.StakedInfo",
          "name": "",
          "type": "tuple"
        }
      ],
      "stateMutability": "view",
      "type": "function"
    }
  ],
  "bytecode": "0x608060405234801561001057600080fd5b50612ea8806100206000396000f3fe608060405234801561001057600080fd5b50600436106103d05760003560e01c80636d70f7ae116101ff5780639870d7fe1161011a578063d547741f116100ad578063f5b541a61161007c578063f5b541a6146109b6578063f7888aec146109dd578063fad8b32a146109f0578063fbef005a14610a0357600080fd5b8063d547741f14610936578063d7da2eec14610949578063e4dc2aa414610990578063f2fde38b146109a357600080fd5b8063ac8a584a116100e9578063ac8a584a146108c0578063b911135f146108d3578063cfbd4885146108fc578063d53913931461090f57600080fd5b80639870d7fe1461087f578063a217fddf14610892578063a415d8dc1461089a578063aa271e1a146108ad57600080fd5b80638bf91dc41161019257806391d148541161016157806391d148541461080757806395d89b4114610840578063983b2d5614610864578063986502751461087757600080fd5b80638bf91dc4146107975780638c09d4ee146107aa5780638dccb481146107bd5780638f32d59b146107d057600080fd5b806375829def116101ce57806375829def146107555780637bff9da0146107685780638340f5491461077b578063837afbc01461078e57600080fd5b80636d70f7ae14610714578063704802751461072757806370a082311461073a578063715018a61461074d57600080fd5b806334b0157a116102ef578063530adbb41161028257806363a8fd891161025157806363a8fd89146106ce57806364f42e00146106db5780636c578c1d146106ee5780636d4e53ce1461070157600080fd5b8063530adbb414610674578063550d01a31461069b57806358d00cd6146106be5780635c90b858146106c657600080fd5b80633c491173116102be5780633c491173146106125780633da4245614610625578063485cc9551461063857806350d2a2761461064b57600080fd5b806334b0157a1461059a57806335c49c49146105c557806336568abe146105d8578063389ed267146105eb57600080fd5b806318def8ef116103675780632ab6f8db116103365780632ab6f8db146105655780632f2ff15d1461056d5780633092afd514610580578063313ce5671461059357600080fd5b806318def8ef14610507578063248a9ca31461052757806324d7806c1461054a57806325e90db41461055d57600080fd5b80630ceb6780116103a35780630ceb6780146104cf57806313977042146104e45780631785f53c146104ec57806318160ddd146104ff57600080fd5b806301ffc9a7146103d557806306fdde03146103fd5780630a7821891461042a5780630acdadf8146104a1575b600080fd5b6103e86103e33660046128b9565b610a16565b60405190151581526020015b60405180910390f35b6040805180820190915260088152675377746f6e204c3160c01b60208201525b6040516103f49190612933565b610486610438366004612962565b604080518082018252600080825260209182018190526001600160a01b0394851681526008825282812093909416845291825291829020825180840190935280548352600101549082015290565b604080518251815260209283015192810192909252016103f4565b6104c16104af366004612995565b60076020526000908152604090205481565b6040519081526020016103f4565b6104e26104dd366004612995565b610a27565b005b6009546104c1565b6104e26104fa366004612995565b610ae7565b6104c1610b17565b6104c1610515366004612995565b60066020526000908152604090205481565b6104c16105353660046129b0565b60009081526005602052604090206001015490565b6103e8610558366004612995565b610b9d565b6104e2610bdd565b6104e2610c09565b6104e261057b3660046129c9565b610c33565b6104e261058e366004612995565b610c5d565b601b6104c1565b6105ad6105a83660046129b0565b610cac565b6040516001600160a01b0390911681526020016103f4565b6103e86105d33660046129ec565b610cd6565b6104e26105e63660046129c9565b610e76565b6104c17ffcb9fcbfa83b897fb2d5cf4b58962164105c1e71489a37ef3ae0db3fdce576f681565b6104e2610620366004612995565b610f02565b6104e2610633366004612aaa565b610f51565b6104e2610646366004612962565b611112565b6105ad6106593660046128b9565b6003602052600090815260409020546001600160a01b031681565b6104c17fbf02bad7114723a857a3af46cea17b778a3a951c96f183784d9a2448cc479ab681565b6103e86106a9366004612995565b60026020526000908152604090205460ff1681565b6104c1611165565b600d546104c1565b6000546103e89060ff1681565b6103e86106e9366004612b47565b6111b3565b6104e26106fc366004612995565b611409565b6104c161070f3660046129ec565b611458565b6103e8610722366004612995565b6114ac565b6104e2610735366004612995565b6114ec565b6104c1610748366004612995565b61151c565b6104e26115b4565b6104e2610763366004612995565b6115e4565b6103e8610776366004612b83565b6116cd565b6103e8610789366004612b47565b61194d565b6104c160095481565b6104c16b033b2e3c9fd0803ce800000081565b600a546105ad906001600160a01b031681565b6104c16107cb3660046129ec565b611adb565b3360009081527f05b8ccbb9d4d8fb16ea74ce3c29a41f1b461fbdaff4714a0d9a8eb05499746bc602052604090205460ff166103e8565b6103e86108153660046129c9565b60009182526005602090815260408084206001600160a01b0393909316845291905290205460ff1690565b6040805180820190915260088152675357544f4e5f4c3160c01b602082015261041d565b6104e2610872366004612995565b611b1c565b6104e2611b6b565b6104e261088d366004612995565b611b95565b6104c1600081565b6103e86108a8366004612995565b611be4565b6103e86108bb366004612995565b611c24565b6104e26108ce366004612995565b611c64565b6105ad6108e13660046129b0565b6001602052600090815260409020546001600160a01b031681565b6104e261090a366004612995565b611cb3565b6104c17ff0887ba65ee2024ea881d91b74c2450ef19e1557f03bed3ea9f16b037cbe2dc981565b6104e26109443660046129c9565b611cfe565b61097b610957366004612962565b60086020908152600092835260408084209091529082529020805460019091015482565b604080519283526020830191909152016103f4565b6104c161099e366004612995565b611d23565b6104e26109b1366004612995565b611d47565b6104c17f523a704056dcd17bcf83bed8b68c59416dac1119be77755efe3bde0a64e46e0c81565b6104c16109eb366004612962565b611d75565b6104e26109fe366004612995565b611dab565b600b546105ad906001600160a01b031681565b6000610a2182611dfa565b92915050565b610a3033610b9d565b80610a6957503360009081527fca0a2f641ec05ca23127d994cf03ffc453db616acae0b86cb56bb95304d06854602052604090205460ff165b610aba5760405162461bcd60e51b815260206004820152601560248201527f6e6f74206f6e6c794d696e7465724f7241646d696e000000000000000000000060448201526064015b60405180910390fd5b610ae47fbf02bad7114723a857a3af46cea17b778a3a951c96f183784d9a2448cc479ab682610c33565b50565b610af033610b9d565b610b0c5760405162461bcd60e51b8152600401610ab190612c52565b610ae4600082610e76565b600080610b23600d5490565b905060005b81811015610b98576000600d8281548110610b4557610b45612c95565b60009182526020808320909101546001600160a01b03168083526007909152604090912054909150610b78908290611458565b610b829085612cc1565b9350508080610b9090612cd4565b915050610b28565b505090565b6001600160a01b03811660009081527f05b8ccbb9d4d8fb16ea74ce3c29a41f1b461fbdaff4714a0d9a8eb05499746bc602052604081205460ff16610a21565b610c077fbf02bad7114723a857a3af46cea17b778a3a951c96f183784d9a2448cc479ab633610e76565b565b610c077f523a704056dcd17bcf83bed8b68c59416dac1119be77755efe3bde0a64e46e0c33610e76565b600082815260056020526040902060010154610c4e81611e1f565b610c588383611e29565b505050565b610c6633610b9d565b610c825760405162461bcd60e51b8152600401610ab190612c52565b610ae47ff0887ba65ee2024ea881d91b74c2450ef19e1557f03bed3ea9f16b037cbe2dc982610e76565b600d8181548110610cbc57600080fd5b6000918252602090912001546001600160a01b0316905081565b6000610d05604051806060016040528060268152602001612e5560269139600a546001600160a01b0316611ecb565b610d27604051806060016040528060218152602001612e7b6021913933611ecb565b600a546001600160a01b03163314610d775760405162461bcd60e51b81526020600482015260136024820152723737ba103618a9ba30b5b2b22a37b724b7261960691b6044820152606401610ab1565b610d8083611f10565b6001600160a01b038316600090815260076020526040812054610da4908590611458565b905060006b033b2e3c9fd0803ce8000000610dbf8584612ced565b610dc99190612d04565b6001600160a01b03861660009081526006602052604081205491925083610df08482612cc1565b610dfa9084612ced565b610e049190612d04565b6001600160a01b038816600081815260066020908152604091829020849055815192835282018990528101849052606081018290529091507f6767d13426b216a4b3263c7a79be490a2e74a93cfcd5a93a70505af3a4f79e439060800160405180910390a15060019695505050505050565b6001600160a01b0381163314610ef45760405162461bcd60e51b815260206004820152602f60248201527f416363657373436f6e74726f6c3a2063616e206f6e6c792072656e6f756e636560448201527f20726f6c657320666f722073656c6600000000000000000000000000000000006064820152608401610ab1565b610efe8282612112565b5050565b610f0b33610b9d565b610f275760405162461bcd60e51b8152600401610ab190612c52565b610ae47fbf02bad7114723a857a3af46cea17b778a3a951c96f183784d9a2448cc479ab682611cfe565b610f5a33610b9d565b610f765760405162461bcd60e51b8152600401610ab190612c52565b60005b8151811015610efe5760066000838381518110610f9857610f98612c95565b60200260200101516001600160a01b03166001600160a01b0316815260200190815260200160002054600003611018576b033b2e3c9fd0803ce800000060066000848481518110610feb57610feb612c95565b60200260200101516001600160a01b03166001600160a01b03168152602001908152602001600020819055505b600c600083838151811061102e5761102e612c95565b6020908102919091018101516001600160a01b031682528101919091526040016000205460ff16611100576001600c600084848151811061107157611071612c95565b60200260200101516001600160a01b03166001600160a01b0316815260200190815260200160002060006101000a81548160ff021916908315150217905550600d8282815181106110c4576110c4612c95565b60209081029190910181015182546001810184556000938452919092200180546001600160a01b0319166001600160a01b039092169190911790555b8061110a81612cd4565b915050610f79565b61111b33610b9d565b6111375760405162461bcd60e51b8152600401610ab190612c52565b600a80546001600160a01b039384166001600160a01b031991821617909155600b8054929093169116179055565b6009546040518181527fac3d68540f9902349c72a28dc187ad15b504d68182767a2b00a3db86880507ba9060200160405180910390a1600980549060006111ab83612cd4565b919050555090565b60006111e2604051806060016040528060268152602001612e5560269139600a546001600160a01b0316611ecb565b611204604051806060016040528060218152602001612e7b6021913933611ecb565b600a546001600160a01b031633146112545760405162461bcd60e51b81526020600482015260136024820152723737ba103618a9ba30b5b2b22a37b724b7261960691b6044820152606401610ab1565b61125d84611f10565b60006112698584611adb565b6001600160a01b0380871660009081526008602090815260408083209389168352929052208054919250908411156112e35760405162461bcd60e51b815260206004820152601460248201527f696e73756666696369656e742062616c616e63650000000000000000000000006044820152606401610ab1565b81816001015410156112fb5760006001820155611315565b8181600101600082825461130f9190612d26565b90915550505b6001600160a01b03861660009081526007602052604090205482111561137d5760405162461bcd60e51b815260206004820152601860248201527f696e73756666696369656e7420746f74616c4c7377746f6e00000000000000006044820152606401610ab1565b6001600160a01b038616600090815260076020526040812080548492906113a5908490612d26565b9091555050604080516001600160a01b03808916825287166020820152908101859052606081018390527f06cc7e90b4f2b554a9614b0caa84f909f3498c820ae47c731f490c28c07f7d3b906080015b60405180910390a150600195945050505050565b61141233610b9d565b61142e5760405162461bcd60e51b8152600401610ab190612c52565b610ae47fbf02bad7114723a857a3af46cea17b778a3a951c96f183784d9a2448cc479ab682610e76565b60008160000361146a57506000610a21565b6001600160a01b0383166000908152600660205260409020546b033b2e3c9fd0803ce80000009061149b9084612ced565b6114a59190612d04565b9392505050565b6001600160a01b03811660009081527f02634a7c777b8129955fe1824eee49ef19dfa96f2f4cb63212492c3d84eb58e6602052604081205460ff16610a21565b6114f533610b9d565b6115115760405162461bcd60e51b8152600401610ab190612c52565b610ae4600082610c33565b600080611528600d5490565b905060005b818110156115ad576000600d828154811061154a5761154a612c95565b60009182526020808320909101546001600160a01b03908116808452600883526040808520928a168552919092529091206001015490915061158d908290611458565b6115979085612cc1565b93505080806115a590612cd4565b91505061152d565b5050919050565b6115bd33610b9d565b6115d95760405162461bcd60e51b8152600401610ab190612c52565b610c07600033610e76565b6115ed33610b9d565b6116095760405162461bcd60e51b8152600401610ab190612c52565b6001600160a01b03811661165f5760405162461bcd60e51b815260206004820152601860248201527f41636365737369626c653a207a65726f206164647265737300000000000000006044820152606401610ab1565b6001600160a01b03811633036116b75760405162461bcd60e51b815260206004820152601660248201527f41636365737369626c653a2073616d652061646d696e000000000000000000006044820152606401610ab1565b6116c2600082610c33565b610ae4600033610e76565b60006116fc604051806060016040528060268152602001612e5560269139600a546001600160a01b0316611ecb565b61171e604051806060016040528060218152602001612e7b6021913933611ecb565b600a546001600160a01b0316331461176e5760405162461bcd60e51b81526020600482015260136024820152723737ba103618a9ba30b5b2b22a37b724b7261960691b6044820152606401610ab1565b81516000036117ac5760405162461bcd60e51b815260206004820152600a6024820152696e6f207061636b65747360b01b6044820152606401610ab1565b815160408051808201909152600f81527f7265676973746572206e756d202573000000000000000000000000000000000060208201526117ec9082612195565b60005b818110156119425761181d604051806040016040528060048152602001636920257360e01b81525082612195565b6118796040518060400160405280601a81526020017f7061636b6574735b695d2e7374616b6564416d6f756e7420257300000000000081525085838151811061186857611868612c95565b602002602001015160200151612195565b600084828151811061188d5761188d612c95565b60200260200101516000015190506118da6040518060400160405280601381526020017f7061636b6574735b695d2e6c617965722025730000000000000000000000000081525082611ecb565b6118e381611f10565b61190b81878785815181106118fa576118fa612c95565b6020026020010151602001516121da565b61192f60405180604001604052806003815260200162195b9960ea1b815250612591565b508061193a81612cd4565b9150506117ef565b506001949350505050565b600061197c604051806060016040528060268152602001612e5560269139600a546001600160a01b0316611ecb565b61199e604051806060016040528060218152602001612e7b6021913933611ecb565b600a546001600160a01b031633146119ee5760405162461bcd60e51b81526020600482015260136024820152723737ba103618a9ba30b5b2b22a37b724b7261960691b6044820152606401610ab1565b6119f784611f10565b6000611a038584611adb565b6001600160a01b038087166000908152600860209081526040808320938916835292905290812080549293509185918391611a3f908490612cc1565b9250508190555081816001016000828254611a5a9190612cc1565b90915550506001600160a01b03861660009081526007602052604081208054849290611a87908490612cc1565b9091555050604080516001600160a01b03808916825287166020820152908101859052606081018390527ff5681f9d0db1b911ac18ee83d515a1cf1051853a9eae418316a2fdf7dea427c5906080016113f5565b600081600003611aed57506000610a21565b6001600160a01b03831660009081526006602052604090205461149b836b033b2e3c9fd0803ce8000000612ced565b611b2533610b9d565b611b415760405162461bcd60e51b8152600401610ab190612c52565b610ae47ff0887ba65ee2024ea881d91b74c2450ef19e1557f03bed3ea9f16b037cbe2dc982610c33565b610c077ff0887ba65ee2024ea881d91b74c2450ef19e1557f03bed3ea9f16b037cbe2dc933610e76565b611b9e33610b9d565b611bba5760405162461bcd60e51b8152600401610ab190612c52565b610ae47f523a704056dcd17bcf83bed8b68c59416dac1119be77755efe3bde0a64e46e0c82610c33565b6001600160a01b03811660009081527fedec71783a10810e436f3392a073a61717130e573433fcc6591c3061a012f767602052604081205460ff16610a21565b6001600160a01b03811660009081527fca0a2f641ec05ca23127d994cf03ffc453db616acae0b86cb56bb95304d06854602052604081205460ff16610a21565b611c6d33610b9d565b611c895760405162461bcd60e51b8152600401610ab190612c52565b610ae47f523a704056dcd17bcf83bed8b68c59416dac1119be77755efe3bde0a64e46e0c82610e76565b611cbc33610b9d565b611cd85760405162461bcd60e51b8152600401610ab190612c52565b610ae47ff0887ba65ee2024ea881d91b74c2450ef19e1557f03bed3ea9f16b037cbe2dc9825b600082815260056020526040902060010154611d1981611e1f565b610c588383612112565b6001600160a01b038116600090815260076020526040812054610a21908390611458565b611d5033610b9d565b611d6c5760405162461bcd60e51b8152600401610ab190612c52565b610ae4816115e4565b6001600160a01b0380831660009081526008602090815260408083209385168352929052908120600101546114a5908490611458565b611db433610b9d565b611dd05760405162461bcd60e51b8152600401610ab190612c52565b610ae47f523a704056dcd17bcf83bed8b68c59416dac1119be77755efe3bde0a64e46e0c82611cfe565b60006001600160e01b03198216637965db0b60e01b1480610a215750610a21826125d4565b610ae48133612610565b60008281526005602090815260408083206001600160a01b038516845290915290205460ff16610efe5760008281526005602090815260408083206001600160a01b03851684529091529020805460ff19166001179055611e873390565b6001600160a01b0316816001600160a01b0316837f2f8788117e7eff1d82e926ec794901d17c78024a50270940304540a733656f0d60405160405180910390a45050565b610efe8282604051602401611ee1929190612d39565b60408051601f198184030181529190526020810180516001600160e01b031663319af33360e01b179052612685565b600b54600160a01b900460ff161515600103611f575760405162461bcd60e51b8152602060048201526006602482015265696e2075736560d01b6044820152606401610ab1565b600b805460ff60a01b1916600160a01b1790556001600160a01b0381166000908152600660205260408120549003611fb1576001600160a01b03811660009081526006602052604090206b033b2e3c9fd0803ce800000090555b6001600160a01b0381166000908152600c602052604090205460ff166120c457611ff3604051806040016040528060018152602001603160f81b815250612591565b6001600160a01b0381166000908152600c6020908152604091829020805460ff191660011790558151808301909252601582527f32206c316c617965723273206c656e677468202573000000000000000000000090820152600d546120589190612195565b600d8054600180820183556000929092527fd7b6990105719101dabeb77144f2a3385c8033acd3af97e9423a695e81ad1eb50180546001600160a01b0319166001600160a01b03841617905560408051808201909152908152603360f81b60208201526120c490612591565b6121026040518060400160405280601081526020017f5f636865636b4c6179657220656e642000000000000000000000000000000000815250612591565b50600b805460ff60a01b19169055565b60008281526005602090815260408083206001600160a01b038516845290915290205460ff1615610efe5760008281526005602090815260408083206001600160a01b0385168085529252808320805460ff1916905551339285917ff6391f5c32d9c69d2a47ea670b442974b53935d1edc7fd64eb21e047a839171b9190a45050565b610efe82826040516024016121ab929190612d64565b60408051601f198184030181529190526020810180516001600160e01b0316632d839cb360e21b179052612685565b61221b6040518060400160405280601481526020017f5f7265706c6163652025732c2025732c2025732000000000000000000000000081525084848461268e565b60006122278483611adb565b9050612254604051806040016040528060098152602001686c7377746f6e20257360b81b81525082612195565b6001600160a01b03808516600090815260086020908152604080832093871683529281529082902060018101548351808501909452600d84527f6f6c644c7377746f6e202573200000000000000000000000000000000000000092840192909252916122c09082612195565b8083146124ba578382556001820183905560408051808201909152601081526f034b73337973232b837b9b4ba1012b9960851b60208201526123029085612195565b6123376040518060400160405280600f81526020016e034b73337973639bbba37b71012b99608d1b8152508360010154612195565b61239b6040518060400160405280601781526020017f746f74616c4c7377746f6e5b6c61796572325d2025732000000000000000000081525060076000896001600160a01b03166001600160a01b0316815260200190815260200160002054612195565b82156123cf576001600160a01b038616600090815260076020526040812080548592906123c9908490612cc1565b90915550505b8015612403576001600160a01b038616600090815260076020526040812080548392906123fd908490612d26565b90915550505b6124676040518060400160405280601781526020017f746f74616c4c7377746f6e5b6c61796572325d2025732000000000000000000081525060076000896001600160a01b03166001600160a01b0316815260200190815260200160002054612195565b604080516001600160a01b03808916825287166020820152908101829052606081018490527fcc4f099a616a7062ee67b470210f441ab83b966e103389fa7051a13d725884c69060800160405180910390a15b6124ef6040518060400160405280600f81526020016e034b73337973639bbba37b71012b99608d1b8152508360010154612195565b6125256040518060400160405280601081526020016f034b73337973232b837b9b4ba1012b9960851b8152508360000154612195565b6125896040518060400160405280601781526020017f746f74616c4c7377746f6e5b6c61796572325d2025732000000000000000000081525060076000896001600160a01b03166001600160a01b0316815260200190815260200160002054612195565b505050505050565b610ae4816040516024016125a59190612933565b60408051601f198184030181529190526020810180516001600160e01b031663104c13eb60e21b179052612685565b60006301ffc9a760e01b6001600160e01b031983161480610a215750506001600160e01b03191660009081526004602052604090205460ff1690565b60008281526005602090815260408083206001600160a01b038516845290915290205460ff16610efe57612643816126dd565b61264e8360206126ef565b60405160200161265f929190612d86565b60408051601f198184030181529082905262461bcd60e51b8252610ab191600401612933565b610ae481612898565b6126d7848484846040516024016126a89493929190612e07565b60408051601f198184030181529190526020810180516001600160e01b0316638ef3f39960e01b179052612685565b50505050565b6060610a216001600160a01b03831660145b606060006126fe836002612ced565b612709906002612cc1565b67ffffffffffffffff81111561272157612721612a16565b6040519080825280601f01601f19166020018201604052801561274b576020820181803683370190505b509050600360fc1b8160008151811061276657612766612c95565b60200101906001600160f81b031916908160001a905350600f60fb1b8160018151811061279557612795612c95565b60200101906001600160f81b031916908160001a90535060006127b9846002612ced565b6127c4906001612cc1565b90505b6001811115612849577f303132333435363738396162636465660000000000000000000000000000000085600f166010811061280557612805612c95565b1a60f81b82828151811061281b5761281b612c95565b60200101906001600160f81b031916908160001a90535060049490941c9361284281612e3d565b90506127c7565b5083156114a55760405162461bcd60e51b815260206004820181905260248201527f537472696e67733a20686578206c656e67746820696e73756666696369656e746044820152606401610ab1565b60006a636f6e736f6c652e6c6f679050600080835160208501845afa505050565b6000602082840312156128cb57600080fd5b81356001600160e01b0319811681146114a557600080fd5b60005b838110156128fe5781810151838201526020016128e6565b50506000910152565b6000815180845261291f8160208601602086016128e3565b601f01601f19169290920160200192915050565b6020815260006114a56020830184612907565b80356001600160a01b038116811461295d57600080fd5b919050565b6000806040838503121561297557600080fd5b61297e83612946565b915061298c60208401612946565b90509250929050565b6000602082840312156129a757600080fd5b6114a582612946565b6000602082840312156129c257600080fd5b5035919050565b600080604083850312156129dc57600080fd5b8235915061298c60208401612946565b600080604083850312156129ff57600080fd5b612a0883612946565b946020939093013593505050565b634e487b7160e01b600052604160045260246000fd5b6040805190810167ffffffffffffffff81118282101715612a4f57612a4f612a16565b60405290565b604051601f8201601f1916810167ffffffffffffffff81118282101715612a7e57612a7e612a16565b604052919050565b600067ffffffffffffffff821115612aa057612aa0612a16565b5060051b60200190565b60006020808385031215612abd57600080fd5b823567ffffffffffffffff811115612ad457600080fd5b8301601f81018513612ae557600080fd5b8035612af8612af382612a86565b612a55565b81815260059190911b82018301908381019087831115612b1757600080fd5b928401925b82841015612b3c57612b2d84612946565b82529284019290840190612b1c565b979650505050505050565b600080600060608486031215612b5c57600080fd5b612b6584612946565b9250612b7360208501612946565b9150604084013590509250925092565b6000806040808486031215612b9757600080fd5b612ba084612946565b925060208085013567ffffffffffffffff811115612bbd57600080fd5b8501601f81018713612bce57600080fd5b8035612bdc612af382612a86565b81815260069190911b82018301908381019089831115612bfb57600080fd5b928401925b82841015612c425785848b031215612c185760008081fd5b612c20612a2c565b612c2985612946565b8152848601358682015282529285019290840190612c00565b8096505050505050509250929050565b60208082526023908201527f41757468436f6e74726f6c3a2043616c6c6572206973206e6f7420616e20616460408201526236b4b760e91b606082015260800190565b634e487b7160e01b600052603260045260246000fd5b634e487b7160e01b600052601160045260246000fd5b80820180821115610a2157610a21612cab565b600060018201612ce657612ce6612cab565b5060010190565b8082028115828204841417610a2157610a21612cab565b600082612d2157634e487b7160e01b600052601260045260246000fd5b500490565b81810381811115610a2157610a21612cab565b604081526000612d4c6040830185612907565b90506001600160a01b03831660208301529392505050565b604081526000612d776040830185612907565b90508260208301529392505050565b7f416363657373436f6e74726f6c3a206163636f756e7420000000000000000000815260008351612dbe8160178501602088016128e3565b7f206973206d697373696e6720726f6c65200000000000000000000000000000006017918401918201528351612dfb8160288401602088016128e3565b01602801949350505050565b608081526000612e1a6080830187612907565b6001600160a01b0395861660208401529390941660408201526060015292915050565b600081612e4c57612e4c612cab565b50600019019056fe6f6e6c794c315374616b6564546f6e496e4c32206c315374616b6564546f6e496e4c322025736f6e6c794c315374616b6564546f6e496e4c32206d73672e73656e646572202573a164736f6c6343000813000a",
  "linkReferences": {},
  "deployedLinkReferences": {}
}