{
  "_format": "hh-sol-artifact-1",
  "contractName": "L2SeigManager",
  "sourceName": "contracts/L2/L2SeigManager.sol",
  "abi": [
    {
      "anonymous": false,
      "inputs": [
        {
          "indexed": true,
          "internalType": "address",
          "name": "layer2",
          "type": "address"
        },
        {
          "indexed": false,
          "internalType": "address",
          "name": "coinage",
          "type": "address"
        }
      ],
      "name": "CoinageCreated",
      "type": "event"
    },
    {
      "anonymous": false,
      "inputs": [
        {
          "indexed": false,
          "internalType": "uint256",
          "name": "snapshotId",
          "type": "uint256"
        }
      ],
      "name": "OnSnapshot",
      "type": "event"
    },
    {
      "anonymous": false,
      "inputs": [
        {
          "indexed": true,
          "internalType": "bytes32",
          "name": "role",
          "type": "bytes32"
        },
        {
          "indexed": true,
          "internalType": "bytes32",
          "name": "previousAdminRole",
          "type": "bytes32"
        },
        {
          "indexed": true,
          "internalType": "bytes32",
          "name": "newAdminRole",
          "type": "bytes32"
        }
      ],
      "name": "RoleAdminChanged",
      "type": "event"
    },
    {
      "anonymous": false,
      "inputs": [
        {
          "indexed": true,
          "internalType": "bytes32",
          "name": "role",
          "type": "bytes32"
        },
        {
          "indexed": true,
          "internalType": "address",
          "name": "account",
          "type": "address"
        },
        {
          "indexed": true,
          "internalType": "address",
          "name": "sender",
          "type": "address"
        }
      ],
      "name": "RoleGranted",
      "type": "event"
    },
    {
      "anonymous": false,
      "inputs": [
        {
          "indexed": true,
          "internalType": "bytes32",
          "name": "role",
          "type": "bytes32"
        },
        {
          "indexed": true,
          "internalType": "address",
          "name": "account",
          "type": "address"
        },
        {
          "indexed": true,
          "internalType": "address",
          "name": "sender",
          "type": "address"
        }
      ],
      "name": "RoleRevoked",
      "type": "event"
    },
    {
      "anonymous": false,
      "inputs": [
        {
          "indexed": false,
          "internalType": "uint256",
          "name": "coinageBurnAmount",
          "type": "uint256"
        },
        {
          "indexed": false,
          "internalType": "uint256",
          "name": "totBurnAmount",
          "type": "uint256"
        }
      ],
      "name": "UnstakeLog",
      "type": "event"
    },
    {
      "inputs": [],
      "name": "CHALLENGER_ROLE",
      "outputs": [
        {
          "internalType": "bytes32",
          "name": "",
          "type": "bytes32"
        }
      ],
      "stateMutability": "view",
      "type": "function"
    },
    {
      "inputs": [],
      "name": "DEFAULT_ADMIN_ROLE",
      "outputs": [
        {
          "internalType": "bytes32",
          "name": "",
          "type": "bytes32"
        }
      ],
      "stateMutability": "view",
      "type": "function"
    },
    {
      "inputs": [],
      "name": "MAX_VALID_COMMISSION",
      "outputs": [
        {
          "internalType": "uint256",
          "name": "",
          "type": "uint256"
        }
      ],
      "stateMutability": "view",
      "type": "function"
    },
    {
      "inputs": [],
      "name": "MINTER_ROLE",
      "outputs": [
        {
          "internalType": "bytes32",
          "name": "",
          "type": "bytes32"
        }
      ],
      "stateMutability": "view",
      "type": "function"
    },
    {
      "inputs": [],
      "name": "MIN_VALID_COMMISSION",
      "outputs": [
        {
          "internalType": "uint256",
          "name": "",
          "type": "uint256"
        }
      ],
      "stateMutability": "view",
      "type": "function"
    },
    {
      "inputs": [],
      "name": "OPERATOR_ROLE",
      "outputs": [
        {
          "internalType": "bytes32",
          "name": "",
          "type": "bytes32"
        }
      ],
      "stateMutability": "view",
      "type": "function"
    },
    {
      "inputs": [],
      "name": "PAUSE_ROLE",
      "outputs": [
        {
          "internalType": "bytes32",
          "name": "",
          "type": "bytes32"
        }
      ],
      "stateMutability": "view",
      "type": "function"
    },
    {
      "inputs": [],
      "name": "RAY",
      "outputs": [
        {
          "internalType": "uint256",
          "name": "",
          "type": "uint256"
        }
      ],
      "stateMutability": "view",
      "type": "function"
    },
    {
      "inputs": [],
      "name": "_DEFAULT_FACTOR",
      "outputs": [
        {
          "internalType": "uint256",
          "name": "",
          "type": "uint256"
        }
      ],
      "stateMutability": "view",
      "type": "function"
    },
    {
      "inputs": [
        {
          "internalType": "address",
          "name": "account",
          "type": "address"
        }
      ],
      "name": "addAdmin",
      "outputs": [],
      "stateMutability": "nonpayable",
      "type": "function"
    },
    {
      "inputs": [
        {
          "internalType": "address",
          "name": "account",
          "type": "address"
        }
      ],
      "name": "addChallenger",
      "outputs": [],
      "stateMutability": "nonpayable",
      "type": "function"
    },
    {
      "inputs": [
        {
          "internalType": "address",
          "name": "account",
          "type": "address"
        }
      ],
      "name": "addMinter",
      "outputs": [],
      "stateMutability": "nonpayable",
      "type": "function"
    },
    {
      "inputs": [
        {
          "internalType": "address",
          "name": "account",
          "type": "address"
        }
      ],
      "name": "addOperator",
      "outputs": [],
      "stateMutability": "nonpayable",
      "type": "function"
    },
    {
      "inputs": [
        {
          "internalType": "address",
          "name": "",
          "type": "address"
        }
      ],
      "name": "aliveImplementation",
      "outputs": [
        {
          "internalType": "bool",
          "name": "",
          "type": "bool"
        }
      ],
      "stateMutability": "view",
      "type": "function"
    },
    {
      "inputs": [
        {
          "internalType": "address",
          "name": "layer2",
          "type": "address"
        }
      ],
      "name": "coinages",
      "outputs": [
        {
          "internalType": "address",
          "name": "",
          "type": "address"
        }
      ],
      "stateMutability": "view",
      "type": "function"
    },
    {
      "inputs": [],
      "name": "factory",
      "outputs": [
        {
          "internalType": "address",
          "name": "",
          "type": "address"
        }
      ],
      "stateMutability": "view",
      "type": "function"
    },
    {
      "inputs": [
        {
          "internalType": "bytes32",
          "name": "role",
          "type": "bytes32"
        }
      ],
      "name": "getRoleAdmin",
      "outputs": [
        {
          "internalType": "bytes32",
          "name": "",
          "type": "bytes32"
        }
      ],
      "stateMutability": "view",
      "type": "function"
    },
    {
      "inputs": [
        {
          "internalType": "bytes32",
          "name": "role",
          "type": "bytes32"
        },
        {
          "internalType": "address",
          "name": "account",
          "type": "address"
        }
      ],
      "name": "grantRole",
      "outputs": [],
      "stateMutability": "nonpayable",
      "type": "function"
    },
    {
      "inputs": [
        {
          "internalType": "bytes32",
          "name": "role",
          "type": "bytes32"
        },
        {
          "internalType": "address",
          "name": "account",
          "type": "address"
        }
      ],
      "name": "hasRole",
      "outputs": [
        {
          "internalType": "bool",
          "name": "",
          "type": "bool"
        }
      ],
      "stateMutability": "view",
      "type": "function"
    },
    {
      "inputs": [
        {
          "internalType": "address",
          "name": "factory_",
          "type": "address"
        }
      ],
      "name": "initialize",
      "outputs": [],
      "stateMutability": "nonpayable",
      "type": "function"
    },
    {
      "inputs": [
        {
          "internalType": "address",
          "name": "account",
          "type": "address"
        }
      ],
      "name": "isAdmin",
      "outputs": [
        {
          "internalType": "bool",
          "name": "",
          "type": "bool"
        }
      ],
      "stateMutability": "view",
      "type": "function"
    },
    {
      "inputs": [
        {
          "internalType": "address",
          "name": "account",
          "type": "address"
        }
      ],
      "name": "isChallenger",
      "outputs": [
        {
          "internalType": "bool",
          "name": "",
          "type": "bool"
        }
      ],
      "stateMutability": "view",
      "type": "function"
    },
    {
      "inputs": [
        {
          "internalType": "address",
          "name": "account",
          "type": "address"
        }
      ],
      "name": "isMinter",
      "outputs": [
        {
          "internalType": "bool",
          "name": "",
          "type": "bool"
        }
      ],
      "stateMutability": "view",
      "type": "function"
    },
    {
      "inputs": [
        {
          "internalType": "address",
          "name": "account",
          "type": "address"
        }
      ],
      "name": "isOperator",
      "outputs": [
        {
          "internalType": "bool",
          "name": "",
          "type": "bool"
        }
      ],
      "stateMutability": "view",
      "type": "function"
    },
    {
      "inputs": [],
      "name": "isOwner",
      "outputs": [
        {
          "internalType": "bool",
          "name": "",
          "type": "bool"
        }
      ],
      "stateMutability": "view",
      "type": "function"
    },
    {
      "inputs": [],
      "name": "l1StakedTonInL2",
      "outputs": [
        {
          "internalType": "address",
          "name": "",
          "type": "address"
        }
      ],
      "stateMutability": "view",
      "type": "function"
    },
    {
      "inputs": [],
      "name": "lastSnapshotId",
      "outputs": [
        {
          "internalType": "uint256",
          "name": "",
          "type": "uint256"
        }
      ],
      "stateMutability": "view",
      "type": "function"
    },
    {
      "inputs": [],
      "name": "onSnapshot",
      "outputs": [
        {
          "internalType": "uint256",
          "name": "snapshotId",
          "type": "uint256"
        }
      ],
      "stateMutability": "nonpayable",
      "type": "function"
    },
    {
      "inputs": [],
      "name": "pauseProxy",
      "outputs": [
        {
          "internalType": "bool",
          "name": "",
          "type": "bool"
        }
      ],
      "stateMutability": "view",
      "type": "function"
    },
    {
      "inputs": [],
      "name": "progressSnapshotId",
      "outputs": [
        {
          "internalType": "uint256",
          "name": "",
          "type": "uint256"
        }
      ],
      "stateMutability": "view",
      "type": "function"
    },
    {
      "inputs": [
        {
          "internalType": "uint256",
          "name": "",
          "type": "uint256"
        }
      ],
      "name": "proxyImplementation",
      "outputs": [
        {
          "internalType": "address",
          "name": "",
          "type": "address"
        }
      ],
      "stateMutability": "view",
      "type": "function"
    },
    {
      "inputs": [
        {
          "internalType": "address",
          "name": "layer2",
          "type": "address"
        }
      ],
      "name": "register",
      "outputs": [
        {
          "internalType": "bool",
          "name": "",
          "type": "bool"
        }
      ],
      "stateMutability": "nonpayable",
      "type": "function"
    },
    {
      "inputs": [
        {
          "internalType": "address",
          "name": "account",
          "type": "address"
        }
      ],
      "name": "removeAdmin",
      "outputs": [],
      "stateMutability": "nonpayable",
      "type": "function"
    },
    {
      "inputs": [
        {
          "internalType": "address",
          "name": "account",
          "type": "address"
        }
      ],
      "name": "removeChallenger",
      "outputs": [],
      "stateMutability": "nonpayable",
      "type": "function"
    },
    {
      "inputs": [
        {
          "internalType": "address",
          "name": "account",
          "type": "address"
        }
      ],
      "name": "removeMinter",
      "outputs": [],
      "stateMutability": "nonpayable",
      "type": "function"
    },
    {
      "inputs": [
        {
          "internalType": "address",
          "name": "account",
          "type": "address"
        }
      ],
      "name": "removeOperator",
      "outputs": [],
      "stateMutability": "nonpayable",
      "type": "function"
    },
    {
      "inputs": [],
      "name": "renounceChallenger",
      "outputs": [],
      "stateMutability": "nonpayable",
      "type": "function"
    },
    {
      "inputs": [],
      "name": "renounceMinter",
      "outputs": [],
      "stateMutability": "nonpayable",
      "type": "function"
    },
    {
      "inputs": [],
      "name": "renounceOperator",
      "outputs": [],
      "stateMutability": "nonpayable",
      "type": "function"
    },
    {
      "inputs": [],
      "name": "renounceOwnership",
      "outputs": [],
      "stateMutability": "nonpayable",
      "type": "function"
    },
    {
      "inputs": [
        {
          "internalType": "bytes32",
          "name": "role",
          "type": "bytes32"
        },
        {
          "internalType": "address",
          "name": "account",
          "type": "address"
        }
      ],
      "name": "renounceRole",
      "outputs": [],
      "stateMutability": "nonpayable",
      "type": "function"
    },
    {
      "inputs": [
        {
          "internalType": "address",
          "name": "account",
          "type": "address"
        }
      ],
      "name": "revokeChallenger",
      "outputs": [],
      "stateMutability": "nonpayable",
      "type": "function"
    },
    {
      "inputs": [
        {
          "internalType": "address",
          "name": "account",
          "type": "address"
        }
      ],
      "name": "revokeMinter",
      "outputs": [],
      "stateMutability": "nonpayable",
      "type": "function"
    },
    {
      "inputs": [
        {
          "internalType": "address",
          "name": "account",
          "type": "address"
        }
      ],
      "name": "revokeOperator",
      "outputs": [],
      "stateMutability": "nonpayable",
      "type": "function"
    },
    {
      "inputs": [
        {
          "internalType": "bytes32",
          "name": "role",
          "type": "bytes32"
        },
        {
          "internalType": "address",
          "name": "account",
          "type": "address"
        }
      ],
      "name": "revokeRole",
      "outputs": [],
      "stateMutability": "nonpayable",
      "type": "function"
    },
    {
      "inputs": [
        {
          "internalType": "bytes4",
          "name": "",
          "type": "bytes4"
        }
      ],
      "name": "selectorImplementation",
      "outputs": [
        {
          "internalType": "address",
          "name": "",
          "type": "address"
        }
      ],
      "stateMutability": "view",
      "type": "function"
    },
    {
      "inputs": [
        {
          "internalType": "address",
          "name": "account",
          "type": "address"
        }
      ],
      "name": "stakeOf",
      "outputs": [
        {
          "internalType": "uint256",
          "name": "amount",
          "type": "uint256"
        }
      ],
      "stateMutability": "view",
      "type": "function"
    },
    {
      "inputs": [
        {
          "internalType": "address",
          "name": "layer2",
          "type": "address"
        },
        {
          "internalType": "address",
          "name": "account",
          "type": "address"
        }
      ],
      "name": "stakeOf",
      "outputs": [
        {
          "internalType": "uint256",
          "name": "",
          "type": "uint256"
        }
      ],
      "stateMutability": "view",
      "type": "function"
    },
    {
      "inputs": [
        {
          "internalType": "address",
          "name": "account",
          "type": "address"
        },
        {
          "internalType": "uint256",
          "name": "snapshotId",
          "type": "uint256"
        }
      ],
      "name": "stakeOfAt",
      "outputs": [
        {
          "internalType": "uint256",
          "name": "amount",
          "type": "uint256"
        }
      ],
      "stateMutability": "view",
      "type": "function"
    },
    {
      "inputs": [
        {
          "internalType": "address",
          "name": "layer2",
          "type": "address"
        },
        {
          "internalType": "address",
          "name": "account",
          "type": "address"
        },
        {
          "internalType": "uint256",
          "name": "snapshotId",
          "type": "uint256"
        }
      ],
      "name": "stakeOfAt",
      "outputs": [
        {
          "internalType": "uint256",
          "name": "amount",
          "type": "uint256"
        }
      ],
      "stateMutability": "view",
      "type": "function"
    },
    {
      "inputs": [],
      "name": "stakeOfTotal",
      "outputs": [
        {
          "internalType": "uint256",
          "name": "amount",
          "type": "uint256"
        }
      ],
      "stateMutability": "view",
      "type": "function"
    },
    {
      "inputs": [
        {
          "internalType": "uint256",
          "name": "snapshotId",
          "type": "uint256"
        }
      ],
      "name": "stakeOfTotalAt",
      "outputs": [
        {
          "internalType": "uint256",
          "name": "amount",
          "type": "uint256"
        }
      ],
      "stateMutability": "view",
      "type": "function"
    },
    {
      "inputs": [
        {
          "internalType": "bytes4",
          "name": "interfaceId",
          "type": "bytes4"
        }
      ],
      "name": "supportsInterface",
      "outputs": [
        {
          "internalType": "bool",
          "name": "",
          "type": "bool"
        }
      ],
      "stateMutability": "view",
      "type": "function"
    },
    {
      "inputs": [],
      "name": "tot",
      "outputs": [
        {
          "internalType": "address",
          "name": "",
          "type": "address"
        }
      ],
      "stateMutability": "view",
      "type": "function"
    },
    {
      "inputs": [
        {
          "internalType": "address",
          "name": "newAdmin",
          "type": "address"
        }
      ],
      "name": "transferAdmin",
      "outputs": [],
      "stateMutability": "nonpayable",
      "type": "function"
    },
    {
      "inputs": [
        {
          "internalType": "address",
          "name": "newSeigManager",
          "type": "address"
        },
        {
          "internalType": "address[]",
          "name": "coinages_",
          "type": "address[]"
        }
      ],
      "name": "transferCoinageOwnership",
      "outputs": [],
      "stateMutability": "nonpayable",
      "type": "function"
    },
    {
      "inputs": [
        {
          "internalType": "address",
          "name": "newAdmin",
          "type": "address"
        }
      ],
      "name": "transferOwnership",
      "outputs": [],
      "stateMutability": "nonpayable",
      "type": "function"
    },
    {
      "inputs": [
        {
          "internalType": "address",
          "name": "layer2",
          "type": "address"
        },
        {
          "internalType": "address",
          "name": "account",
          "type": "address"
        },
        {
          "components": [
            {
              "internalType": "uint256",
              "name": "factor",
              "type": "uint256"
            },
            {
              "internalType": "uint256",
              "name": "refactorCount",
              "type": "uint256"
            }
          ],
          "internalType": "struct IRefactor.Factor",
          "name": "totFactor",
          "type": "tuple"
        },
        {
          "components": [
            {
              "internalType": "uint256",
              "name": "balance",
              "type": "uint256"
            },
            {
              "internalType": "uint256",
              "name": "refactoredCount",
              "type": "uint256"
            }
          ],
          "internalType": "struct IRefactor.Balance",
          "name": "totTotalBalance",
          "type": "tuple"
        },
        {
          "components": [
            {
              "internalType": "uint256",
              "name": "balance",
              "type": "uint256"
            },
            {
              "internalType": "uint256",
              "name": "refactoredCount",
              "type": "uint256"
            }
          ],
          "internalType": "struct IRefactor.Balance",
          "name": "totLayerBalance",
          "type": "tuple"
        },
        {
          "components": [
            {
              "internalType": "uint256",
              "name": "factor",
              "type": "uint256"
            },
            {
              "internalType": "uint256",
              "name": "refactorCount",
              "type": "uint256"
            }
          ],
          "internalType": "struct IRefactor.Factor",
          "name": "layerFactor",
          "type": "tuple"
        },
        {
          "components": [
            {
              "internalType": "uint256",
              "name": "balance",
              "type": "uint256"
            },
            {
              "internalType": "uint256",
              "name": "refactoredCount",
              "type": "uint256"
            }
          ],
          "internalType": "struct IRefactor.Balance",
          "name": "layerTotalBalance",
          "type": "tuple"
        },
        {
          "components": [
            {
              "internalType": "uint256",
              "name": "balance",
              "type": "uint256"
            },
            {
              "internalType": "uint256",
              "name": "refactoredCount",
              "type": "uint256"
            }
          ],
          "internalType": "struct IRefactor.Balance",
          "name": "layerAccountBalance",
          "type": "tuple"
        }
      ],
      "name": "update",
      "outputs": [
        {
          "internalType": "bool",
          "name": "",
          "type": "bool"
        }
      ],
      "stateMutability": "nonpayable",
      "type": "function"
    },
    {
      "inputs": [
        {
          "internalType": "address",
          "name": "layer2",
          "type": "address"
        },
        {
          "components": [
            {
              "internalType": "uint256",
              "name": "factor",
              "type": "uint256"
            },
            {
              "internalType": "uint256",
              "name": "refactorCount",
              "type": "uint256"
            }
          ],
          "internalType": "struct IRefactor.Factor",
          "name": "totFactor",
          "type": "tuple"
        },
        {
          "components": [
            {
              "internalType": "uint256",
              "name": "factor",
              "type": "uint256"
            },
            {
              "internalType": "uint256",
              "name": "refactorCount",
              "type": "uint256"
            }
          ],
          "internalType": "struct IRefactor.Factor",
          "name": "layerFactor",
          "type": "tuple"
        }
      ],
      "name": "updateSeigniorage",
      "outputs": [
        {
          "internalType": "bool",
          "name": "",
          "type": "bool"
        }
      ],
      "stateMutability": "nonpayable",
      "type": "function"
    }
  ],
  "bytecode": "0x608060405234801561001057600080fd5b50612605806100206000396000f3fe608060405234801561001057600080fd5b50600436106103995760003560e01c8063715018a6116101e9578063a7dcc8501161010f578063ce4cb876116100ad578063d547741f1161007c578063d547741f14610846578063f2fde38b14610859578063f5b541a61461086c578063fad8b32a1461089357600080fd5b8063ce4cb876146107f1578063ce6c035514610804578063cfbd48851461080c578063d53913931461081f57600080fd5b8063b911135f116100e9578063b911135f1461078f578063c45a0155146107b8578063c4d66de8146107cb578063cd9e69fc146107de57600080fd5b8063a7dcc85014610757578063aa271e1a14610769578063ac8a584a1461077c57600080fd5b8063983b2d5611610187578063a0474ef511610156578063a0474ef514610718578063a16d6aa71461072b578063a217fddf1461073c578063a415d8dc1461074457600080fd5b8063983b2d56146106ea57806398650275146106fd5780639870d7fe1461070557806399ce04f6146104df57600080fd5b80638c09d4ee116101c35780638c09d4ee146106545780638f32d59b1461066757806391d148541461069e5780639328f1bc146106d757600080fd5b8063715018a61461063057806375829def14610638578063837afbc01461064b57600080fd5b80633c491173116102ce578063530adbb41161026c57806363a8fd891161023b57806363a8fd89146105ea5780636c578c1d146105f75780636d70f7ae1461060a578063704802751461061d57600080fd5b8063530adbb414610598578063550d01a3146105bf578063552033c4146104df57806358d00cd6146105e257600080fd5b80634420e486116102a85780634420e486146105055780634c063c19146105185780634c75ab9c1461055c57806350d2a2761461056f57600080fd5b80633c491173146104cc5780634123196f146104df57806342623360146104f257600080fd5b806325e90db41161033b5780633092afd5116103155780633092afd51461046c578063328479531461047f57806336568abe14610492578063389ed267146104a557600080fd5b806325e90db4146104495780632ab6f8db146104515780632f2ff15d1461045957600080fd5b80631785f53c116103775780631785f53c146103ed578063248a9ca31461040057806324d7806c1461042357806325979bd01461043657600080fd5b806301ffc9a71461039e5780630ceb6780146103c657806313977042146103db575b600080fd5b6103b16103ac3660046120e4565b6108a6565b60405190151581526020015b60405180910390f35b6103d96103d4366004612123565b6108b7565b005b6009545b6040519081526020016103bd565b6103d96103fb366004612123565b610977565b6103df61040e366004612140565b60009081526005602052604090206001015490565b6103b1610431366004612123565b6109a7565b6103b16104443660046121cc565b6109e7565b6103d9610b98565b6103d9610bc4565b6103d9610467366004612213565b610bee565b6103d961047a366004612123565b610c18565b6103d961048d366004612243565b610c67565b6103d96104a0366004612213565b610de7565b6103df7ffcb9fcbfa83b897fb2d5cf4b58962164105c1e71489a37ef3ae0db3fdce576f681565b6103d96104da366004612123565b610e73565b6103df6b033b2e3c9fd0803ce800000081565b6103df610500366004612123565b610ec2565b6103b1610513366004612123565b610f81565b610544610526366004612123565b6001600160a01b039081166000908152600860205260409020541690565b6040516001600160a01b0390911681526020016103bd565b6103df61056a3660046122cb565b6111f9565b61054461057d3660046120e4565b6003602052600090815260409020546001600160a01b031681565b6103df7fbf02bad7114723a857a3af46cea17b778a3a951c96f183784d9a2448cc479ab681565b6103b16105cd366004612123565b60026020526000908152604090205460ff1681565b6103df6112c0565b6000546103b19060ff1681565b6103d9610605366004612123565b61130e565b6103b1610618366004612123565b61135d565b6103d961062b366004612123565b61139d565b6103d96113cd565b6103d9610646366004612123565b6113fd565b6103df60095481565b600a54610544906001600160a01b031681565b3360009081527f05b8ccbb9d4d8fb16ea74ce3c29a41f1b461fbdaff4714a0d9a8eb05499746bc602052604090205460ff166103b1565b6103b16106ac366004612213565b60009182526005602090815260408084206001600160a01b0393909316845291905290205460ff1690565b6103df6106e53660046122f7565b6114eb565b6103d96106f8366004612123565b611577565b6103d96115c6565b6103d9610713366004612123565b6115f0565b6103df610726366004612140565b61163f565b6007546001600160a01b0316610544565b6103df600081565b6103b1610752366004612123565b6116ad565b6103df6a084595161401484a00000081565b6103b1610777366004612123565b6116ed565b6103d961078a366004612123565b61172d565b61054461079d366004612140565b6001602052600090815260409020546001600160a01b031681565b600654610544906001600160a01b031681565b6103d96107d9366004612123565b61177c565b6103b16107ec366004612338565b611863565b6103df6107ff3660046123dc565b611b45565b6103df611bc9565b6103d961081a366004612123565b611c37565b6103df7ff0887ba65ee2024ea881d91b74c2450ef19e1557f03bed3ea9f16b037cbe2dc981565b6103d9610854366004612213565b611c82565b6103d9610867366004612123565b611ca7565b6103df7f523a704056dcd17bcf83bed8b68c59416dac1119be77755efe3bde0a64e46e0c81565b6103d96108a1366004612123565b611cd5565b60006108b182611d24565b92915050565b6108c0336109a7565b806108f957503360009081527fca0a2f641ec05ca23127d994cf03ffc453db616acae0b86cb56bb95304d06854602052604090205460ff165b61094a5760405162461bcd60e51b815260206004820152601560248201527f6e6f74206f6e6c794d696e7465724f7241646d696e000000000000000000000060448201526064015b60405180910390fd5b6109747fbf02bad7114723a857a3af46cea17b778a3a951c96f183784d9a2448cc479ab682610bee565b50565b610980336109a7565b61099c5760405162461bcd60e51b81526004016109419061240a565b610974600082610de7565b6001600160a01b03811660009081527f05b8ccbb9d4d8fb16ea74ce3c29a41f1b461fbdaff4714a0d9a8eb05499746bc602052604081205460ff166108b1565b600a546000906001600160a01b03163314610a3a5760405162461bcd60e51b81526020600482015260136024820152723737ba103618a9ba30b5b2b22a37b724b7261960691b6044820152606401610941565b6001600160a01b03808516600090815260086020526040902054859116610aba5760405162461bcd60e51b815260206004820152602e60248201527f536569674d616e616765723a20636f696e61676520686173206e6f742062656560448201526d1b8819195c1b1bde5959081e595d60921b6064820152608401610941565b600754604051633ab721f560e11b81526001600160a01b039091169063756e43ea90610aea90879060040161244d565b600060405180830381600087803b158015610b0457600080fd5b505af1158015610b18573d6000803e3d6000fd5b5050506001600160a01b0380871660009081526008602052604090819020549051633ab721f560e11b81529116915063756e43ea90610b5b90869060040161244d565b600060405180830381600087803b158015610b7557600080fd5b505af1158015610b89573d6000803e3d6000fd5b50600198975050505050505050565b610bc27fbf02bad7114723a857a3af46cea17b778a3a951c96f183784d9a2448cc479ab633610de7565b565b610bc27f523a704056dcd17bcf83bed8b68c59416dac1119be77755efe3bde0a64e46e0c33610de7565b600082815260056020526040902060010154610c0981611d49565b610c138383611d53565b505050565b610c21336109a7565b610c3d5760405162461bcd60e51b81526004016109419061240a565b6109747ff0887ba65ee2024ea881d91b74c2450ef19e1557f03bed3ea9f16b037cbe2dc982610de7565b610c70336109a7565b610c8c5760405162461bcd60e51b81526004016109419061240a565b60005b81811015610de1576000838383818110610cab57610cab612464565b9050602002016020810190610cc09190612123565b604051634c1d96ab60e11b81526001600160a01b0387811660048301529192509082169063983b2d5690602401600060405180830381600087803b158015610d0757600080fd5b505af1158015610d1b573d6000803e3d6000fd5b50505050806001600160a01b031663986502756040518163ffffffff1660e01b8152600401600060405180830381600087803b158015610d5a57600080fd5b505af1158015610d6e573d6000803e3d6000fd5b505060405163f2fde38b60e01b81526001600160a01b0388811660048301528416925063f2fde38b9150602401600060405180830381600087803b158015610db557600080fd5b505af1158015610dc9573d6000803e3d6000fd5b50505050508080610dd990612490565b915050610c8f565b50505050565b6001600160a01b0381163314610e655760405162461bcd60e51b815260206004820152602f60248201527f416363657373436f6e74726f6c3a2063616e206f6e6c792072656e6f756e636560448201527f20726f6c657320666f722073656c6600000000000000000000000000000000006064820152608401610941565b610e6f8282611df5565b5050565b610e7c336109a7565b610e985760405162461bcd60e51b81526004016109419061240a565b6109747fbf02bad7114723a857a3af46cea17b778a3a951c96f183784d9a2448cc479ab682611c82565b600c54600090815b81811015610f7a576000818152600d60209081526040808320546001600160a01b0390811684526008909252918290205491516370a0823160e01b815286821660048201529116906370a0823190602401602060405180830381865afa158015610f38573d6000803e3d6000fd5b505050506040513d601f19601f82011682018060405250810190610f5c91906124a9565b610f6690846124c2565b925080610f7281612490565b915050610eca565b5050919050565b600a546000906001600160a01b0316331480610fa15750610fa1336109a7565b610fed5760405162461bcd60e51b815260206004820152601c60248201527f6e6f74206c315374616b6564546f6e496e4c32206f722061646d696e000000006044820152606401610941565b6001600160a01b0382166000908152600b602052604090205460ff16156110565760405162461bcd60e51b815260206004820152601060248201527f616c7265616479207265676973746572000000000000000000000000000000006044820152606401610941565b6001600160a01b0382811660009081526008602052604090205416156110be5760405162461bcd60e51b815260206004820152601060248201527f636f696e616765206e6f74207a65726f000000000000000000000000000000006044820152606401610941565b60065460408051631dd70c0360e21b815290516000926001600160a01b03169163775c300c916004808301926020929190829003018187875af1158015611109573d6000803e3d6000fd5b505050506040513d601f19601f8201168201806040525081019061112d91906124d5565b6001600160a01b0384166000818152600b60209081526040808320805460ff19166001908117909155600c80548552600d90935290832080546001600160a01b031916909417909355805493945091926111889084906124c2565b90915550506001600160a01b0383811660008181526008602090815260409182902080546001600160a01b0319169486169485179055905192835290917f124cac1e701d08d642237ad795ddd275670e12f2cd956a26709721c68084c2b2910160405180910390a250600192915050565b600c54600090815b818110156112b8576000818152600d60209081526040808320546001600160a01b03908116845260089092529182902054915163277166bf60e11b8152878216600482015260248101879052911690634ee2cd7e90604401602060405180830381865afa158015611276573d6000803e3d6000fd5b505050506040513d601f19601f8201168201806040525081019061129a91906124a9565b6112a490846124c2565b9250806112b081612490565b915050611201565b505092915050565b6009546040518181527fac3d68540f9902349c72a28dc187ad15b504d68182767a2b00a3db86880507ba9060200160405180910390a16009805490600061130683612490565b919050555090565b611317336109a7565b6113335760405162461bcd60e51b81526004016109419061240a565b6109747fbf02bad7114723a857a3af46cea17b778a3a951c96f183784d9a2448cc479ab682610de7565b6001600160a01b03811660009081527f02634a7c777b8129955fe1824eee49ef19dfa96f2f4cb63212492c3d84eb58e6602052604081205460ff166108b1565b6113a6336109a7565b6113c25760405162461bcd60e51b81526004016109419061240a565b610974600082610bee565b6113d6336109a7565b6113f25760405162461bcd60e51b81526004016109419061240a565b610bc2600033610de7565b611406336109a7565b6114225760405162461bcd60e51b81526004016109419061240a565b6001600160a01b0381166114785760405162461bcd60e51b815260206004820152601860248201527f41636365737369626c653a207a65726f206164647265737300000000000000006044820152606401610941565b6001600160a01b03811633036114d05760405162461bcd60e51b815260206004820152601660248201527f41636365737369626c653a2073616d652061646d696e000000000000000000006044820152606401610941565b6114db600082610bee565b610974600033610de7565b905090565b6001600160a01b0383811660009081526008602052604080822054905163277166bf60e11b815285841660048201526024810185905291921690634ee2cd7e90604401602060405180830381865afa15801561154b573d6000803e3d6000fd5b505050506040513d601f19601f8201168201806040525081019061156f91906124a9565b949350505050565b611580336109a7565b61159c5760405162461bcd60e51b81526004016109419061240a565b6109747ff0887ba65ee2024ea881d91b74c2450ef19e1557f03bed3ea9f16b037cbe2dc982610bee565b610bc27ff0887ba65ee2024ea881d91b74c2450ef19e1557f03bed3ea9f16b037cbe2dc933610de7565b6115f9336109a7565b6116155760405162461bcd60e51b81526004016109419061240a565b6109747f523a704056dcd17bcf83bed8b68c59416dac1119be77755efe3bde0a64e46e0c82610bee565b600754604051630981b24d60e41b8152600481018390526000916001600160a01b03169063981b24d090602401602060405180830381865afa158015611689573d6000803e3d6000fd5b505050506040513d601f19601f820116820180604052508101906108b191906124a9565b6001600160a01b03811660009081527fedec71783a10810e436f3392a073a61717130e573433fcc6591c3061a012f767602052604081205460ff166108b1565b6001600160a01b03811660009081527fca0a2f641ec05ca23127d994cf03ffc453db616acae0b86cb56bb95304d06854602052604081205460ff166108b1565b611736336109a7565b6117525760405162461bcd60e51b81526004016109419061240a565b6109747f523a704056dcd17bcf83bed8b68c59416dac1119be77755efe3bde0a64e46e0c82610de7565b600680546001600160a01b0319166001600160a01b03831690811790915560408051631dd70c0360e21b815290516000929163775c300c916004808301926020929190829003018187875af11580156117d9573d6000803e3d6000fd5b505050506040513d601f19601f820116820180604052508101906117fd91906124d5565b90506001600160a01b0381166118405760405162461bcd60e51b81526020600482015260086024820152671e995c9bc81d1bdd60c21b6044820152606401610941565b600780546001600160a01b0319166001600160a01b039290921691909117905550565b600a546000906001600160a01b031633146118b65760405162461bcd60e51b81526020600482015260136024820152723737ba103618a9ba30b5b2b22a37b724b7261960691b6044820152606401610941565b6001600160a01b03808a166000908152600860205260409020548a91166119365760405162461bcd60e51b815260206004820152602e60248201527f536569674d616e616765723a20636f696e61676520686173206e6f742062656560448201526d1b8819195c1b1bde5959081e595d60921b6064820152608401610941565b600754604051633ab721f560e11b81526001600160a01b039091169063756e43ea90611966908b9060040161244d565b600060405180830381600087803b15801561198057600080fd5b505af1158015611994573d6000803e3d6000fd5b5050600754604051637f7142b560e01b8152895160048201526020808b015160248301528b5160448301528b015160648201526001600160a01b038e81166084830152600160a4830181905260c48301529091169250637f7142b5915060e401600060405180830381600087803b158015611a0e57600080fd5b505af1158015611a22573d6000803e3d6000fd5b5050506001600160a01b03808c1660009081526008602052604090819020549051633ab721f560e11b81529116915063756e43ea90611a6590889060040161244d565b600060405180830381600087803b158015611a7f57600080fd5b505af1158015611a93573d6000803e3d6000fd5b505050506001600160a01b038a8116600090815260086020908152604091829020549151637f7142b560e01b815287516004820152878201516024820152865160448201529086015160648201528b83166084820152600160a4820181905260c4820152911690637f7142b59060e401600060405180830381600087803b158015611b1d57600080fd5b505af1158015611b31573d6000803e3d6000fd5b5060019d9c50505050505050505050505050565b6001600160a01b038281166000908152600860205260408082205490516370a0823160e01b81528484166004820152919216906370a0823190602401602060405180830381865afa158015611b9e573d6000803e3d6000fd5b505050506040513d601f19601f82011682018060405250810190611bc291906124a9565b9392505050565b600754604080516318160ddd60e01b815290516000926001600160a01b0316916318160ddd9160048083019260209291908290030181865afa158015611c13573d6000803e3d6000fd5b505050506040513d601f19601f820116820180604052508101906114e691906124a9565b611c40336109a7565b611c5c5760405162461bcd60e51b81526004016109419061240a565b6109747ff0887ba65ee2024ea881d91b74c2450ef19e1557f03bed3ea9f16b037cbe2dc9825b600082815260056020526040902060010154611c9d81611d49565b610c138383611df5565b611cb0336109a7565b611ccc5760405162461bcd60e51b81526004016109419061240a565b610974816113fd565b611cde336109a7565b611cfa5760405162461bcd60e51b81526004016109419061240a565b6109747f523a704056dcd17bcf83bed8b68c59416dac1119be77755efe3bde0a64e46e0c82611c82565b60006001600160e01b03198216637965db0b60e01b14806108b157506108b182611e78565b6109748133611eb4565b60008281526005602090815260408083206001600160a01b038516845290915290205460ff16610e6f5760008281526005602090815260408083206001600160a01b03851684529091529020805460ff19166001179055611db13390565b6001600160a01b0316816001600160a01b0316837f2f8788117e7eff1d82e926ec794901d17c78024a50270940304540a733656f0d60405160405180910390a45050565b60008281526005602090815260408083206001600160a01b038516845290915290205460ff1615610e6f5760008281526005602090815260408083206001600160a01b0385168085529252808320805460ff1916905551339285917ff6391f5c32d9c69d2a47ea670b442974b53935d1edc7fd64eb21e047a839171b9190a45050565b60006301ffc9a760e01b6001600160e01b0319831614806108b15750506001600160e01b03191660009081526004602052604090205460ff1690565b60008281526005602090815260408083206001600160a01b038516845290915290205460ff16610e6f57611ee781611f29565b611ef2836020611f3b565b604051602001611f03929190612516565b60408051601f198184030181529082905262461bcd60e51b825261094191600401612597565b60606108b16001600160a01b03831660145b60606000611f4a8360026125ca565b611f559060026124c2565b67ffffffffffffffff811115611f6d57611f6d612159565b6040519080825280601f01601f191660200182016040528015611f97576020820181803683370190505b509050600360fc1b81600081518110611fb257611fb2612464565b60200101906001600160f81b031916908160001a905350600f60fb1b81600181518110611fe157611fe1612464565b60200101906001600160f81b031916908160001a90535060006120058460026125ca565b6120109060016124c2565b90505b6001811115612095577f303132333435363738396162636465660000000000000000000000000000000085600f166010811061205157612051612464565b1a60f81b82828151811061206757612067612464565b60200101906001600160f81b031916908160001a90535060049490941c9361208e816125e1565b9050612013565b508315611bc25760405162461bcd60e51b815260206004820181905260248201527f537472696e67733a20686578206c656e67746820696e73756666696369656e746044820152606401610941565b6000602082840312156120f657600080fd5b81356001600160e01b031981168114611bc257600080fd5b6001600160a01b038116811461097457600080fd5b60006020828403121561213557600080fd5b8135611bc28161210e565b60006020828403121561215257600080fd5b5035919050565b634e487b7160e01b600052604160045260246000fd5b60006040828403121561218157600080fd5b6040516040810181811067ffffffffffffffff821117156121b257634e487b7160e01b600052604160045260246000fd5b604052823581526020928301359281019290925250919050565b600080600060a084860312156121e157600080fd5b83356121ec8161210e565b92506121fb856020860161216f565b915061220a856060860161216f565b90509250925092565b6000806040838503121561222657600080fd5b8235915060208301356122388161210e565b809150509250929050565b60008060006040848603121561225857600080fd5b83356122638161210e565b9250602084013567ffffffffffffffff8082111561228057600080fd5b818601915086601f83011261229457600080fd5b8135818111156122a357600080fd5b8760208260051b85010111156122b857600080fd5b6020830194508093505050509250925092565b600080604083850312156122de57600080fd5b82356122e98161210e565b946020939093013593505050565b60008060006060848603121561230c57600080fd5b83356123178161210e565b925060208401356123278161210e565b929592945050506040919091013590565b6000806000806000806000806101c0898b03121561235557600080fd5b88356123608161210e565b975060208901356123708161210e565b965061237f8a60408b0161216f565b955061238e8a60808b0161216f565b945061239d8a60c08b0161216f565b93506123ad8a6101008b0161216f565b92506123bd8a6101408b0161216f565b91506123cd8a6101808b0161216f565b90509295985092959890939650565b600080604083850312156123ef57600080fd5b82356123fa8161210e565b915060208301356122388161210e565b60208082526023908201527f41757468436f6e74726f6c3a2043616c6c6572206973206e6f7420616e20616460408201526236b4b760e91b606082015260800190565b8151815260208083015190820152604081016108b1565b634e487b7160e01b600052603260045260246000fd5b634e487b7160e01b600052601160045260246000fd5b6000600182016124a2576124a261247a565b5060010190565b6000602082840312156124bb57600080fd5b5051919050565b808201808211156108b1576108b161247a565b6000602082840312156124e757600080fd5b8151611bc28161210e565b60005b8381101561250d5781810151838201526020016124f5565b50506000910152565b7f416363657373436f6e74726f6c3a206163636f756e742000000000000000000081526000835161254e8160178501602088016124f2565b7f206973206d697373696e6720726f6c6520000000000000000000000000000000601791840191820152835161258b8160288401602088016124f2565b01602801949350505050565b60208152600082518060208401526125b68160408501602087016124f2565b601f01601f19169190910160400192915050565b80820281158282048414176108b1576108b161247a565b6000816125f0576125f061247a565b50600019019056fea164736f6c6343000813000a",
  "linkReferences": {},
  "deployedLinkReferences": {}
}