{
  "_format": "hh-sol-artifact-1",
  "contractName": "L2SeigManager",
  "sourceName": "contracts/L2/L2SeigManager.sol",
  "abi": [
    {
      "anonymous": false,
      "inputs": [
        {
          "indexed": false,
          "internalType": "address",
          "name": "layer2",
          "type": "address"
        },
        {
          "indexed": false,
          "internalType": "address",
          "name": "account",
          "type": "address"
        },
        {
          "indexed": false,
          "internalType": "uint256",
          "name": "swtonAmount",
          "type": "uint256"
        },
        {
          "indexed": false,
          "internalType": "uint256",
          "name": "lswton",
          "type": "uint256"
        }
      ],
      "name": "Deposited",
      "type": "event"
    },
    {
      "anonymous": false,
      "inputs": [
        {
          "indexed": false,
          "internalType": "uint256",
          "name": "snapshotId",
          "type": "uint256"
        }
      ],
      "name": "OnSnapshot",
      "type": "event"
    },
    {
      "anonymous": false,
      "inputs": [
        {
          "indexed": false,
          "internalType": "address",
          "name": "layer2",
          "type": "address"
        },
        {
          "indexed": false,
          "internalType": "uint256",
          "name": "sharePerRay",
          "type": "uint256"
        },
        {
          "indexed": false,
          "internalType": "uint256",
          "name": "oldIndex",
          "type": "uint256"
        },
        {
          "indexed": false,
          "internalType": "uint256",
          "name": "newIndex",
          "type": "uint256"
        }
      ],
      "name": "RebasedIndex",
      "type": "event"
    },
    {
      "anonymous": false,
      "inputs": [
        {
          "indexed": false,
          "internalType": "address",
          "name": "layer2",
          "type": "address"
        },
        {
          "indexed": false,
          "internalType": "address",
          "name": "account",
          "type": "address"
        },
        {
          "indexed": false,
          "internalType": "uint256",
          "name": "oldLswton",
          "type": "uint256"
        },
        {
          "indexed": false,
          "internalType": "uint256",
          "name": "lswton",
          "type": "uint256"
        },
        {
          "indexed": false,
          "internalType": "uint256",
          "name": "tlswton",
          "type": "uint256"
        }
      ],
      "name": "Replaced",
      "type": "event"
    },
    {
      "anonymous": false,
      "inputs": [
        {
          "indexed": true,
          "internalType": "bytes32",
          "name": "role",
          "type": "bytes32"
        },
        {
          "indexed": true,
          "internalType": "bytes32",
          "name": "previousAdminRole",
          "type": "bytes32"
        },
        {
          "indexed": true,
          "internalType": "bytes32",
          "name": "newAdminRole",
          "type": "bytes32"
        }
      ],
      "name": "RoleAdminChanged",
      "type": "event"
    },
    {
      "anonymous": false,
      "inputs": [
        {
          "indexed": true,
          "internalType": "bytes32",
          "name": "role",
          "type": "bytes32"
        },
        {
          "indexed": true,
          "internalType": "address",
          "name": "account",
          "type": "address"
        },
        {
          "indexed": true,
          "internalType": "address",
          "name": "sender",
          "type": "address"
        }
      ],
      "name": "RoleGranted",
      "type": "event"
    },
    {
      "anonymous": false,
      "inputs": [
        {
          "indexed": true,
          "internalType": "bytes32",
          "name": "role",
          "type": "bytes32"
        },
        {
          "indexed": true,
          "internalType": "address",
          "name": "account",
          "type": "address"
        },
        {
          "indexed": true,
          "internalType": "address",
          "name": "sender",
          "type": "address"
        }
      ],
      "name": "RoleRevoked",
      "type": "event"
    },
    {
      "anonymous": false,
      "inputs": [
        {
          "indexed": false,
          "internalType": "address",
          "name": "layer2",
          "type": "address"
        },
        {
          "indexed": false,
          "internalType": "address",
          "name": "account",
          "type": "address"
        },
        {
          "indexed": false,
          "internalType": "uint256",
          "name": "swtonAmount",
          "type": "uint256"
        },
        {
          "indexed": false,
          "internalType": "uint256",
          "name": "lswton",
          "type": "uint256"
        }
      ],
      "name": "Unstaked",
      "type": "event"
    },
    {
      "inputs": [],
      "name": "CHALLENGER_ROLE",
      "outputs": [
        {
          "internalType": "bytes32",
          "name": "",
          "type": "bytes32"
        }
      ],
      "stateMutability": "view",
      "type": "function"
    },
    {
      "inputs": [],
      "name": "DEFAULT_ADMIN_ROLE",
      "outputs": [
        {
          "internalType": "bytes32",
          "name": "",
          "type": "bytes32"
        }
      ],
      "stateMutability": "view",
      "type": "function"
    },
    {
      "inputs": [],
      "name": "DEFAULT_FACTOR",
      "outputs": [
        {
          "internalType": "uint256",
          "name": "",
          "type": "uint256"
        }
      ],
      "stateMutability": "view",
      "type": "function"
    },
    {
      "inputs": [],
      "name": "MINTER_ROLE",
      "outputs": [
        {
          "internalType": "bytes32",
          "name": "",
          "type": "bytes32"
        }
      ],
      "stateMutability": "view",
      "type": "function"
    },
    {
      "inputs": [],
      "name": "OPERATOR_ROLE",
      "outputs": [
        {
          "internalType": "bytes32",
          "name": "",
          "type": "bytes32"
        }
      ],
      "stateMutability": "view",
      "type": "function"
    },
    {
      "inputs": [],
      "name": "PAUSE_ROLE",
      "outputs": [
        {
          "internalType": "bytes32",
          "name": "",
          "type": "bytes32"
        }
      ],
      "stateMutability": "view",
      "type": "function"
    },
    {
      "inputs": [
        {
          "internalType": "address",
          "name": "account",
          "type": "address"
        }
      ],
      "name": "addAdmin",
      "outputs": [],
      "stateMutability": "nonpayable",
      "type": "function"
    },
    {
      "inputs": [
        {
          "internalType": "address",
          "name": "account",
          "type": "address"
        }
      ],
      "name": "addChallenger",
      "outputs": [],
      "stateMutability": "nonpayable",
      "type": "function"
    },
    {
      "inputs": [
        {
          "internalType": "address[]",
          "name": "layer2s",
          "type": "address[]"
        }
      ],
      "name": "addLayers",
      "outputs": [],
      "stateMutability": "nonpayable",
      "type": "function"
    },
    {
      "inputs": [
        {
          "internalType": "address",
          "name": "account",
          "type": "address"
        }
      ],
      "name": "addMinter",
      "outputs": [],
      "stateMutability": "nonpayable",
      "type": "function"
    },
    {
      "inputs": [
        {
          "internalType": "address",
          "name": "account",
          "type": "address"
        }
      ],
      "name": "addOperator",
      "outputs": [],
      "stateMutability": "nonpayable",
      "type": "function"
    },
    {
      "inputs": [
        {
          "internalType": "address",
          "name": "",
          "type": "address"
        }
      ],
      "name": "aliveImplementation",
      "outputs": [
        {
          "internalType": "bool",
          "name": "",
          "type": "bool"
        }
      ],
      "stateMutability": "view",
      "type": "function"
    },
    {
      "inputs": [
        {
          "internalType": "address",
          "name": "account",
          "type": "address"
        }
      ],
      "name": "balanceOf",
      "outputs": [
        {
          "internalType": "uint256",
          "name": "amount",
          "type": "uint256"
        }
      ],
      "stateMutability": "view",
      "type": "function"
    },
    {
      "inputs": [
        {
          "internalType": "address",
          "name": "layer2",
          "type": "address"
        },
        {
          "internalType": "address",
          "name": "account",
          "type": "address"
        }
      ],
      "name": "balanceOf",
      "outputs": [
        {
          "internalType": "uint256",
          "name": "",
          "type": "uint256"
        }
      ],
      "stateMutability": "view",
      "type": "function"
    },
    {
      "inputs": [],
      "name": "decimals",
      "outputs": [
        {
          "internalType": "uint256",
          "name": "",
          "type": "uint256"
        }
      ],
      "stateMutability": "pure",
      "type": "function"
    },
    {
      "inputs": [
        {
          "internalType": "address",
          "name": "layer2",
          "type": "address"
        },
        {
          "internalType": "address",
          "name": "account",
          "type": "address"
        },
        {
          "internalType": "uint256",
          "name": "swtonAmount",
          "type": "uint256"
        }
      ],
      "name": "deposit",
      "outputs": [
        {
          "internalType": "bool",
          "name": "",
          "type": "bool"
        }
      ],
      "stateMutability": "nonpayable",
      "type": "function"
    },
    {
      "inputs": [],
      "name": "getL1LayersNum",
      "outputs": [
        {
          "internalType": "uint256",
          "name": "",
          "type": "uint256"
        }
      ],
      "stateMutability": "view",
      "type": "function"
    },
    {
      "inputs": [
        {
          "internalType": "address",
          "name": "layer2",
          "type": "address"
        },
        {
          "internalType": "uint256",
          "name": "lswton_",
          "type": "uint256"
        }
      ],
      "name": "getLswtonToSwton",
      "outputs": [
        {
          "internalType": "uint256",
          "name": "",
          "type": "uint256"
        }
      ],
      "stateMutability": "view",
      "type": "function"
    },
    {
      "inputs": [
        {
          "internalType": "bytes32",
          "name": "role",
          "type": "bytes32"
        }
      ],
      "name": "getRoleAdmin",
      "outputs": [
        {
          "internalType": "bytes32",
          "name": "",
          "type": "bytes32"
        }
      ],
      "stateMutability": "view",
      "type": "function"
    },
    {
      "inputs": [
        {
          "internalType": "address",
          "name": "layer2",
          "type": "address"
        },
        {
          "internalType": "uint256",
          "name": "amount",
          "type": "uint256"
        }
      ],
      "name": "getSwtonToLswton",
      "outputs": [
        {
          "internalType": "uint256",
          "name": "",
          "type": "uint256"
        }
      ],
      "stateMutability": "view",
      "type": "function"
    },
    {
      "inputs": [
        {
          "internalType": "bytes32",
          "name": "role",
          "type": "bytes32"
        },
        {
          "internalType": "address",
          "name": "account",
          "type": "address"
        }
      ],
      "name": "grantRole",
      "outputs": [],
      "stateMutability": "nonpayable",
      "type": "function"
    },
    {
      "inputs": [
        {
          "internalType": "bytes32",
          "name": "role",
          "type": "bytes32"
        },
        {
          "internalType": "address",
          "name": "account",
          "type": "address"
        }
      ],
      "name": "hasRole",
      "outputs": [
        {
          "internalType": "bool",
          "name": "",
          "type": "bool"
        }
      ],
      "stateMutability": "view",
      "type": "function"
    },
    {
      "inputs": [
        {
          "internalType": "address",
          "name": "",
          "type": "address"
        }
      ],
      "name": "index",
      "outputs": [
        {
          "internalType": "uint256",
          "name": "",
          "type": "uint256"
        }
      ],
      "stateMutability": "view",
      "type": "function"
    },
    {
      "inputs": [
        {
          "internalType": "address",
          "name": "l1StakedTonInL2_",
          "type": "address"
        },
        {
          "internalType": "address",
          "name": "l2messanger_",
          "type": "address"
        }
      ],
      "name": "initialize",
      "outputs": [],
      "stateMutability": "nonpayable",
      "type": "function"
    },
    {
      "inputs": [
        {
          "internalType": "address",
          "name": "account",
          "type": "address"
        }
      ],
      "name": "isAdmin",
      "outputs": [
        {
          "internalType": "bool",
          "name": "",
          "type": "bool"
        }
      ],
      "stateMutability": "view",
      "type": "function"
    },
    {
      "inputs": [
        {
          "internalType": "address",
          "name": "account",
          "type": "address"
        }
      ],
      "name": "isChallenger",
      "outputs": [
        {
          "internalType": "bool",
          "name": "",
          "type": "bool"
        }
      ],
      "stateMutability": "view",
      "type": "function"
    },
    {
      "inputs": [
        {
          "internalType": "address",
          "name": "account",
          "type": "address"
        }
      ],
      "name": "isMinter",
      "outputs": [
        {
          "internalType": "bool",
          "name": "",
          "type": "bool"
        }
      ],
      "stateMutability": "view",
      "type": "function"
    },
    {
      "inputs": [
        {
          "internalType": "address",
          "name": "account",
          "type": "address"
        }
      ],
      "name": "isOperator",
      "outputs": [
        {
          "internalType": "bool",
          "name": "",
          "type": "bool"
        }
      ],
      "stateMutability": "view",
      "type": "function"
    },
    {
      "inputs": [],
      "name": "isOwner",
      "outputs": [
        {
          "internalType": "bool",
          "name": "",
          "type": "bool"
        }
      ],
      "stateMutability": "view",
      "type": "function"
    },
    {
      "inputs": [],
      "name": "l1StakedTonInL2",
      "outputs": [
        {
          "internalType": "address",
          "name": "",
          "type": "address"
        }
      ],
      "stateMutability": "view",
      "type": "function"
    },
    {
      "inputs": [
        {
          "internalType": "uint256",
          "name": "",
          "type": "uint256"
        }
      ],
      "name": "l1layer2s",
      "outputs": [
        {
          "internalType": "address",
          "name": "",
          "type": "address"
        }
      ],
      "stateMutability": "view",
      "type": "function"
    },
    {
      "inputs": [],
      "name": "l2CrossDomainMessenger",
      "outputs": [
        {
          "internalType": "address",
          "name": "",
          "type": "address"
        }
      ],
      "stateMutability": "view",
      "type": "function"
    },
    {
      "inputs": [],
      "name": "lastSnapshotId",
      "outputs": [
        {
          "internalType": "uint256",
          "name": "",
          "type": "uint256"
        }
      ],
      "stateMutability": "view",
      "type": "function"
    },
    {
      "inputs": [],
      "name": "name",
      "outputs": [
        {
          "internalType": "string",
          "name": "",
          "type": "string"
        }
      ],
      "stateMutability": "pure",
      "type": "function"
    },
    {
      "inputs": [],
      "name": "onSnapshot",
      "outputs": [
        {
          "internalType": "uint256",
          "name": "snapshotId",
          "type": "uint256"
        }
      ],
      "stateMutability": "nonpayable",
      "type": "function"
    },
    {
      "inputs": [],
      "name": "pauseProxy",
      "outputs": [
        {
          "internalType": "bool",
          "name": "",
          "type": "bool"
        }
      ],
      "stateMutability": "view",
      "type": "function"
    },
    {
      "inputs": [],
      "name": "progressSnapshotId",
      "outputs": [
        {
          "internalType": "uint256",
          "name": "",
          "type": "uint256"
        }
      ],
      "stateMutability": "view",
      "type": "function"
    },
    {
      "inputs": [
        {
          "internalType": "uint256",
          "name": "",
          "type": "uint256"
        }
      ],
      "name": "proxyImplementation",
      "outputs": [
        {
          "internalType": "address",
          "name": "",
          "type": "address"
        }
      ],
      "stateMutability": "view",
      "type": "function"
    },
    {
      "inputs": [
        {
          "internalType": "address",
          "name": "layer2",
          "type": "address"
        },
        {
          "internalType": "uint256",
          "name": "sharePerRay",
          "type": "uint256"
        }
      ],
      "name": "rebaseIndex",
      "outputs": [
        {
          "internalType": "bool",
          "name": "",
          "type": "bool"
        }
      ],
      "stateMutability": "nonpayable",
      "type": "function"
    },
    {
      "inputs": [
        {
          "internalType": "address",
          "name": "account",
          "type": "address"
        },
        {
          "components": [
            {
              "internalType": "address",
              "name": "layer",
              "type": "address"
            },
            {
              "internalType": "uint256",
              "name": "stakedAmount",
              "type": "uint256"
            }
          ],
          "internalType": "struct LibL1StakedInfo.L1StakedPacket[]",
          "name": "packets",
          "type": "tuple[]"
        }
      ],
      "name": "register",
      "outputs": [
        {
          "internalType": "bool",
          "name": "",
          "type": "bool"
        }
      ],
      "stateMutability": "nonpayable",
      "type": "function"
    },
    {
      "inputs": [
        {
          "internalType": "address",
          "name": "account",
          "type": "address"
        }
      ],
      "name": "removeAdmin",
      "outputs": [],
      "stateMutability": "nonpayable",
      "type": "function"
    },
    {
      "inputs": [
        {
          "internalType": "address",
          "name": "account",
          "type": "address"
        }
      ],
      "name": "removeChallenger",
      "outputs": [],
      "stateMutability": "nonpayable",
      "type": "function"
    },
    {
      "inputs": [
        {
          "internalType": "address",
          "name": "account",
          "type": "address"
        }
      ],
      "name": "removeMinter",
      "outputs": [],
      "stateMutability": "nonpayable",
      "type": "function"
    },
    {
      "inputs": [
        {
          "internalType": "address",
          "name": "account",
          "type": "address"
        }
      ],
      "name": "removeOperator",
      "outputs": [],
      "stateMutability": "nonpayable",
      "type": "function"
    },
    {
      "inputs": [],
      "name": "renounceChallenger",
      "outputs": [],
      "stateMutability": "nonpayable",
      "type": "function"
    },
    {
      "inputs": [],
      "name": "renounceMinter",
      "outputs": [],
      "stateMutability": "nonpayable",
      "type": "function"
    },
    {
      "inputs": [],
      "name": "renounceOperator",
      "outputs": [],
      "stateMutability": "nonpayable",
      "type": "function"
    },
    {
      "inputs": [],
      "name": "renounceOwnership",
      "outputs": [],
      "stateMutability": "nonpayable",
      "type": "function"
    },
    {
      "inputs": [
        {
          "internalType": "bytes32",
          "name": "role",
          "type": "bytes32"
        },
        {
          "internalType": "address",
          "name": "account",
          "type": "address"
        }
      ],
      "name": "renounceRole",
      "outputs": [],
      "stateMutability": "nonpayable",
      "type": "function"
    },
    {
      "inputs": [
        {
          "internalType": "address",
          "name": "account",
          "type": "address"
        }
      ],
      "name": "revokeChallenger",
      "outputs": [],
      "stateMutability": "nonpayable",
      "type": "function"
    },
    {
      "inputs": [
        {
          "internalType": "address",
          "name": "account",
          "type": "address"
        }
      ],
      "name": "revokeMinter",
      "outputs": [],
      "stateMutability": "nonpayable",
      "type": "function"
    },
    {
      "inputs": [
        {
          "internalType": "address",
          "name": "account",
          "type": "address"
        }
      ],
      "name": "revokeOperator",
      "outputs": [],
      "stateMutability": "nonpayable",
      "type": "function"
    },
    {
      "inputs": [
        {
          "internalType": "bytes32",
          "name": "role",
          "type": "bytes32"
        },
        {
          "internalType": "address",
          "name": "account",
          "type": "address"
        }
      ],
      "name": "revokeRole",
      "outputs": [],
      "stateMutability": "nonpayable",
      "type": "function"
    },
    {
      "inputs": [
        {
          "internalType": "bytes4",
          "name": "",
          "type": "bytes4"
        }
      ],
      "name": "selectorImplementation",
      "outputs": [
        {
          "internalType": "address",
          "name": "",
          "type": "address"
        }
      ],
      "stateMutability": "view",
      "type": "function"
    },
    {
      "inputs": [
        {
          "internalType": "address",
          "name": "",
          "type": "address"
        },
        {
          "internalType": "address",
          "name": "",
          "type": "address"
        }
      ],
      "name": "stakedInfo",
      "outputs": [
        {
          "internalType": "uint256",
          "name": "deposit",
          "type": "uint256"
        },
        {
          "internalType": "uint256",
          "name": "lswton",
          "type": "uint256"
        }
      ],
      "stateMutability": "view",
      "type": "function"
    },
    {
      "inputs": [
        {
          "internalType": "bytes4",
          "name": "interfaceId",
          "type": "bytes4"
        }
      ],
      "name": "supportsInterface",
      "outputs": [
        {
          "internalType": "bool",
          "name": "",
          "type": "bool"
        }
      ],
      "stateMutability": "view",
      "type": "function"
    },
    {
      "inputs": [],
      "name": "symbol",
      "outputs": [
        {
          "internalType": "string",
          "name": "",
          "type": "string"
        }
      ],
      "stateMutability": "pure",
      "type": "function"
    },
    {
      "inputs": [
        {
          "internalType": "address",
          "name": "",
          "type": "address"
        }
      ],
      "name": "totalLswton",
      "outputs": [
        {
          "internalType": "uint256",
          "name": "",
          "type": "uint256"
        }
      ],
      "stateMutability": "view",
      "type": "function"
    },
    {
      "inputs": [],
      "name": "totalSupply",
      "outputs": [
        {
          "internalType": "uint256",
          "name": "amount",
          "type": "uint256"
        }
      ],
      "stateMutability": "view",
      "type": "function"
    },
    {
      "inputs": [
        {
          "internalType": "address",
          "name": "layer2",
          "type": "address"
        }
      ],
      "name": "totalSupply",
      "outputs": [
        {
          "internalType": "uint256",
          "name": "amount",
          "type": "uint256"
        }
      ],
      "stateMutability": "view",
      "type": "function"
    },
    {
      "inputs": [
        {
          "internalType": "address",
          "name": "newAdmin",
          "type": "address"
        }
      ],
      "name": "transferAdmin",
      "outputs": [],
      "stateMutability": "nonpayable",
      "type": "function"
    },
    {
      "inputs": [
        {
          "internalType": "address",
          "name": "newAdmin",
          "type": "address"
        }
      ],
      "name": "transferOwnership",
      "outputs": [],
      "stateMutability": "nonpayable",
      "type": "function"
    },
    {
      "inputs": [
        {
          "internalType": "address",
          "name": "layer2",
          "type": "address"
        },
        {
          "internalType": "address",
          "name": "account",
          "type": "address"
        }
      ],
      "name": "viewStakedInfo",
      "outputs": [
        {
          "components": [
            {
              "internalType": "uint256",
              "name": "deposit",
              "type": "uint256"
            },
            {
              "internalType": "uint256",
              "name": "lswton",
              "type": "uint256"
            }
          ],
          "internalType": "struct LibL2StakedInfo.StakedInfo",
          "name": "",
          "type": "tuple"
        }
      ],
      "stateMutability": "view",
      "type": "function"
    },
    {
      "inputs": [
        {
          "internalType": "address",
          "name": "layer2",
          "type": "address"
        },
        {
          "internalType": "address",
          "name": "account",
          "type": "address"
        },
        {
          "internalType": "uint256",
          "name": "swtonAmount",
          "type": "uint256"
        }
      ],
      "name": "withdraw",
      "outputs": [
        {
          "internalType": "bool",
          "name": "",
          "type": "bool"
        }
      ],
      "stateMutability": "nonpayable",
      "type": "function"
    }
  ],
  "bytecode": "0x608060405234801561001057600080fd5b50612714806100206000396000f3fe608060405234801561001057600080fd5b50600436106103d05760003560e01c806370480275116101ff578063a217fddf1161011a578063d7da2eec116100ad578063f5b541a61161007c578063f5b541a6146109b6578063f7888aec146109dd578063fad8b32a146109f0578063fbef005a14610a0357600080fd5b8063d7da2eec14610936578063d9caed121461097d578063e4dc2aa414610990578063f2fde38b146109a357600080fd5b8063b911135f116100e9578063b911135f146108c0578063cfbd4885146108e9578063d5391393146108fc578063d547741f1461092357600080fd5b8063a217fddf1461087f578063a415d8dc14610887578063aa271e1a1461089a578063ac8a584a146108ad57600080fd5b80638c09d4ee1161019257806395d89b411161016157806395d89b411461082d578063983b2d561461085157806398650275146108645780639870d7fe1461086c57600080fd5b80638c09d4ee146107975780638dccb481146107aa5780638f32d59b146107bd57806391d14854146107f457600080fd5b80637bff9da0116101ce5780637bff9da0146107555780638340f54914610768578063837afbc01461077b5780638bf91dc41461078457600080fd5b8063704802751461071457806370a0823114610727578063715018a61461073a57806375829def1461074257600080fd5b806334b0157a116102ef578063530adbb41161028257806363a8fd891161025157806363a8fd89146106ce5780636c578c1d146106db5780636d4e53ce146106ee5780636d70f7ae1461070157600080fd5b8063530adbb414610674578063550d01a31461069b57806358d00cd6146106be5780635c90b858146106c657600080fd5b80633c491173116102be5780633c491173146106125780633da4245614610625578063485cc9551461063857806350d2a2761461064b57600080fd5b806334b0157a1461059a57806335c49c49146105c557806336568abe146105d8578063389ed267146105eb57600080fd5b806318def8ef116103675780632ab6f8db116103365780632ab6f8db146105655780632f2ff15d1461056d5780633092afd514610580578063313ce5671461059357600080fd5b806318def8ef14610507578063248a9ca31461052757806324d7806c1461054a57806325e90db41461055d57600080fd5b80630ceb6780116103a35780630ceb6780146104cf57806313977042146104e45780631785f53c146104ec57806318160ddd146104ff57600080fd5b806301ffc9a7146103d557806306fdde03146103fd5780630a7821891461042a5780630acdadf8146104a1575b600080fd5b6103e86103e33660046121fb565b610a16565b60405190151581526020015b60405180910390f35b6040805180820190915260088152675377746f6e204c3160c01b60208201525b6040516103f49190612249565b610486610438366004612298565b604080518082018252600080825260209182018190526001600160a01b039485168152600b825282812093909416845291825291829020825180840190935280548352600101549082015290565b604080518251815260209283015192810192909252016103f4565b6104c16104af3660046122cb565b600a6020526000908152604090205481565b6040519081526020016103f4565b6104e26104dd3660046122cb565b610a27565b005b6006546104c1565b6104e26104fa3660046122cb565b610ae7565b6104c1610b17565b6104c16105153660046122cb565b60096020526000908152604090205481565b6104c16105353660046122e6565b60009081526005602052604090206001015490565b6103e86105583660046122cb565b610b9d565b6104e2610bdd565b6104e2610c09565b6104e261057b3660046122ff565b610c33565b6104e261058e3660046122cb565b610c5d565b601b6104c1565b6105ad6105a83660046122e6565b610cac565b6040516001600160a01b0390911681526020016103f4565b6103e86105d3366004612322565b610cd6565b6104e26105e63660046122ff565b610e28565b6104c17ffcb9fcbfa83b897fb2d5cf4b58962164105c1e71489a37ef3ae0db3fdce576f681565b6104e26106203660046122cb565b610eb4565b6104e26106333660046123e0565b610f03565b6104e2610646366004612298565b6110c4565b6105ad6106593660046121fb565b6003602052600090815260409020546001600160a01b031681565b6104c17fbf02bad7114723a857a3af46cea17b778a3a951c96f183784d9a2448cc479ab681565b6103e86106a93660046122cb565b60026020526000908152604090205460ff1681565b6104c1611117565b600d546104c1565b6000546103e89060ff1681565b6104e26106e93660046122cb565b611165565b6104c16106fc366004612322565b6111b4565b6103e861070f3660046122cb565b611208565b6104e26107223660046122cb565b611248565b6104c16107353660046122cb565b611278565b6104e2611310565b6104e26107503660046122cb565b611340565b6103e861076336600461247d565b611429565b6103e861077636600461254c565b611550565b6104c160065481565b6104c16b033b2e3c9fd0803ce800000081565b6007546105ad906001600160a01b031681565b6104c16107b8366004612322565b6116a0565b3360009081527f05b8ccbb9d4d8fb16ea74ce3c29a41f1b461fbdaff4714a0d9a8eb05499746bc602052604090205460ff166103e8565b6103e86108023660046122ff565b60009182526005602090815260408084206001600160a01b0393909316845291905290205460ff1690565b6040805180820190915260088152675357544f4e5f4c3160c01b602082015261041d565b6104e261085f3660046122cb565b6116e1565b6104e2611730565b6104e261087a3660046122cb565b61175a565b6104c1600081565b6103e86108953660046122cb565b6117a9565b6103e86108a83660046122cb565b6117e9565b6104e26108bb3660046122cb565b611829565b6105ad6108ce3660046122e6565b6001602052600090815260409020546001600160a01b031681565b6104e26108f73660046122cb565b611878565b6104c17ff0887ba65ee2024ea881d91b74c2450ef19e1557f03bed3ea9f16b037cbe2dc981565b6104e26109313660046122ff565b6118c3565b610968610944366004612298565b600b6020908152600092835260408084209091529082529020805460019091015482565b604080519283526020830191909152016103f4565b6103e861098b36600461254c565b6118e8565b6104c161099e3660046122cb565b611ae0565b6104e26109b13660046122cb565b611b04565b6104c17f523a704056dcd17bcf83bed8b68c59416dac1119be77755efe3bde0a64e46e0c81565b6104c16109eb366004612298565b611b32565b6104e26109fe3660046122cb565b611b68565b6008546105ad906001600160a01b031681565b6000610a2182611bb7565b92915050565b610a3033610b9d565b80610a6957503360009081527fca0a2f641ec05ca23127d994cf03ffc453db616acae0b86cb56bb95304d06854602052604090205460ff165b610aba5760405162461bcd60e51b815260206004820152601560248201527f6e6f74206f6e6c794d696e7465724f7241646d696e000000000000000000000060448201526064015b60405180910390fd5b610ae47fbf02bad7114723a857a3af46cea17b778a3a951c96f183784d9a2448cc479ab682610c33565b50565b610af033610b9d565b610b0c5760405162461bcd60e51b8152600401610ab190612588565b610ae4600082610e28565b600080610b23600d5490565b905060005b81811015610b98576000600d8281548110610b4557610b456125cb565b60009182526020808320909101546001600160a01b0316808352600a909152604090912054909150610b789082906111b4565b610b8290856125f7565b9350508080610b909061260a565b915050610b28565b505090565b6001600160a01b03811660009081527f05b8ccbb9d4d8fb16ea74ce3c29a41f1b461fbdaff4714a0d9a8eb05499746bc602052604081205460ff16610a21565b610c077fbf02bad7114723a857a3af46cea17b778a3a951c96f183784d9a2448cc479ab633610e28565b565b610c077f523a704056dcd17bcf83bed8b68c59416dac1119be77755efe3bde0a64e46e0c33610e28565b600082815260056020526040902060010154610c4e81611bdc565b610c588383611be6565b505050565b610c6633610b9d565b610c825760405162461bcd60e51b8152600401610ab190612588565b610ae47ff0887ba65ee2024ea881d91b74c2450ef19e1557f03bed3ea9f16b037cbe2dc982610e28565b600d8181548110610cbc57600080fd5b6000918252602090912001546001600160a01b0316905081565b6007546000906001600160a01b03163314610d295760405162461bcd60e51b81526020600482015260136024820152723737ba103618a9ba30b5b2b22a37b724b7261960691b6044820152606401610ab1565b610d3283611c88565b6001600160a01b0383166000908152600a6020526040812054610d569085906111b4565b905060006b033b2e3c9fd0803ce8000000610d718584612623565b610d7b919061263a565b6001600160a01b03861660009081526009602052604081205491925083610da284826125f7565b610dac9084612623565b610db6919061263a565b6001600160a01b038816600081815260096020908152604091829020849055815192835282018990528101849052606081018290529091507f6767d13426b216a4b3263c7a79be490a2e74a93cfcd5a93a70505af3a4f79e439060800160405180910390a15060019695505050505050565b6001600160a01b0381163314610ea65760405162461bcd60e51b815260206004820152602f60248201527f416363657373436f6e74726f6c3a2063616e206f6e6c792072656e6f756e636560448201527f20726f6c657320666f722073656c6600000000000000000000000000000000006064820152608401610ab1565b610eb08282611dbf565b5050565b610ebd33610b9d565b610ed95760405162461bcd60e51b8152600401610ab190612588565b610ae47fbf02bad7114723a857a3af46cea17b778a3a951c96f183784d9a2448cc479ab6826118c3565b610f0c33610b9d565b610f285760405162461bcd60e51b8152600401610ab190612588565b60005b8151811015610eb05760096000838381518110610f4a57610f4a6125cb565b60200260200101516001600160a01b03166001600160a01b0316815260200190815260200160002054600003610fca576b033b2e3c9fd0803ce800000060096000848481518110610f9d57610f9d6125cb565b60200260200101516001600160a01b03166001600160a01b03168152602001908152602001600020819055505b600c6000838381518110610fe057610fe06125cb565b6020908102919091018101516001600160a01b031682528101919091526040016000205460ff166110b2576001600c6000848481518110611023576110236125cb565b60200260200101516001600160a01b03166001600160a01b0316815260200190815260200160002060006101000a81548160ff021916908315150217905550600d828281518110611076576110766125cb565b60209081029190910181015182546001810184556000938452919092200180546001600160a01b0319166001600160a01b039092169190911790555b806110bc8161260a565b915050610f2b565b6110cd33610b9d565b6110e95760405162461bcd60e51b8152600401610ab190612588565b600780546001600160a01b039384166001600160a01b03199182161790915560088054929093169116179055565b6006546040518181527fac3d68540f9902349c72a28dc187ad15b504d68182767a2b00a3db86880507ba9060200160405180910390a16006805490600061115d8361260a565b919050555090565b61116e33610b9d565b61118a5760405162461bcd60e51b8152600401610ab190612588565b610ae47fbf02bad7114723a857a3af46cea17b778a3a951c96f183784d9a2448cc479ab682610e28565b6000816000036111c657506000610a21565b6001600160a01b0383166000908152600960205260409020546b033b2e3c9fd0803ce8000000906111f79084612623565b611201919061263a565b9392505050565b6001600160a01b03811660009081527f02634a7c777b8129955fe1824eee49ef19dfa96f2f4cb63212492c3d84eb58e6602052604081205460ff16610a21565b61125133610b9d565b61126d5760405162461bcd60e51b8152600401610ab190612588565b610ae4600082610c33565b600080611284600d5490565b905060005b81811015611309576000600d82815481106112a6576112a66125cb565b60009182526020808320909101546001600160a01b03908116808452600b83526040808520928a16855291909252909120600101549091506112e99082906111b4565b6112f390856125f7565b93505080806113019061260a565b915050611289565b5050919050565b61131933610b9d565b6113355760405162461bcd60e51b8152600401610ab190612588565b610c07600033610e28565b61134933610b9d565b6113655760405162461bcd60e51b8152600401610ab190612588565b6001600160a01b0381166113bb5760405162461bcd60e51b815260206004820152601860248201527f41636365737369626c653a207a65726f206164647265737300000000000000006044820152606401610ab1565b6001600160a01b03811633036114135760405162461bcd60e51b815260206004820152601660248201527f41636365737369626c653a2073616d652061646d696e000000000000000000006044820152606401610ab1565b61141e600082610c33565b610ae4600033610e28565b6007546000906001600160a01b0316331461147c5760405162461bcd60e51b81526020600482015260136024820152723737ba103618a9ba30b5b2b22a37b724b7261960691b6044820152606401610ab1565b81516000036114ba5760405162461bcd60e51b815260206004820152600a6024820152696e6f207061636b65747360b01b6044820152606401610ab1565b815160005b81811015611545576114ed8482815181106114dc576114dc6125cb565b602002602001015160000151611c88565b611532848281518110611502576115026125cb565b60200260200101516000015186868481518110611521576115216125cb565b602002602001015160200151611e42565b508061153d8161260a565b9150506114bf565b506001949350505050565b6007546000906001600160a01b031633146115a35760405162461bcd60e51b81526020600482015260136024820152723737ba103618a9ba30b5b2b22a37b724b7261960691b6044820152606401610ab1565b6115ac84611c88565b60006115b885846116a0565b6001600160a01b038087166000908152600b602090815260408083209389168352929052908120805492935091859183916115f49084906125f7565b925050819055508181600101600082825461160f91906125f7565b90915550506001600160a01b0386166000908152600a60205260408120805484929061163c9084906125f7565b9091555050604080516001600160a01b03808916825287166020820152908101859052606081018390527ff5681f9d0db1b911ac18ee83d515a1cf1051853a9eae418316a2fdf7dea427c5906080015b60405180910390a150600195945050505050565b6000816000036116b257506000610a21565b6001600160a01b0383166000908152600960205260409020546111f7836b033b2e3c9fd0803ce8000000612623565b6116ea33610b9d565b6117065760405162461bcd60e51b8152600401610ab190612588565b610ae47ff0887ba65ee2024ea881d91b74c2450ef19e1557f03bed3ea9f16b037cbe2dc982610c33565b610c077ff0887ba65ee2024ea881d91b74c2450ef19e1557f03bed3ea9f16b037cbe2dc933610e28565b61176333610b9d565b61177f5760405162461bcd60e51b8152600401610ab190612588565b610ae47f523a704056dcd17bcf83bed8b68c59416dac1119be77755efe3bde0a64e46e0c82610c33565b6001600160a01b03811660009081527fedec71783a10810e436f3392a073a61717130e573433fcc6591c3061a012f767602052604081205460ff16610a21565b6001600160a01b03811660009081527fca0a2f641ec05ca23127d994cf03ffc453db616acae0b86cb56bb95304d06854602052604081205460ff16610a21565b61183233610b9d565b61184e5760405162461bcd60e51b8152600401610ab190612588565b610ae47f523a704056dcd17bcf83bed8b68c59416dac1119be77755efe3bde0a64e46e0c82610e28565b61188133610b9d565b61189d5760405162461bcd60e51b8152600401610ab190612588565b610ae47ff0887ba65ee2024ea881d91b74c2450ef19e1557f03bed3ea9f16b037cbe2dc9825b6000828152600560205260409020600101546118de81611bdc565b610c588383611dbf565b6007546000906001600160a01b0316331461193b5760405162461bcd60e51b81526020600482015260136024820152723737ba103618a9ba30b5b2b22a37b724b7261960691b6044820152606401610ab1565b61194484611c88565b600061195085846116a0565b6001600160a01b038087166000908152600b602090815260408083209389168352929052208054919250908411156119ca5760405162461bcd60e51b815260206004820152601460248201527f696e73756666696369656e742062616c616e63650000000000000000000000006044820152606401610ab1565b81816001015410156119e257600060018201556119fc565b818160010160008282546119f6919061265c565b90915550505b6001600160a01b0386166000908152600a6020526040902054821115611a645760405162461bcd60e51b815260206004820152601860248201527f696e73756666696369656e7420746f74616c4c7377746f6e00000000000000006044820152606401610ab1565b6001600160a01b0386166000908152600a602052604081208054849290611a8c90849061265c565b9091555050604080516001600160a01b03808916825287166020820152908101859052606081018390527f06cc7e90b4f2b554a9614b0caa84f909f3498c820ae47c731f490c28c07f7d3b9060800161168c565b6001600160a01b0381166000908152600a6020526040812054610a219083906111b4565b611b0d33610b9d565b611b295760405162461bcd60e51b8152600401610ab190612588565b610ae481611340565b6001600160a01b038083166000908152600b602090815260408083209385168352929052908120600101546112019084906111b4565b611b7133610b9d565b611b8d5760405162461bcd60e51b8152600401610ab190612588565b610ae47f523a704056dcd17bcf83bed8b68c59416dac1119be77755efe3bde0a64e46e0c826118c3565b60006001600160e01b03198216637965db0b60e01b1480610a215750610a2182611f8f565b610ae48133611fcb565b60008281526005602090815260408083206001600160a01b038516845290915290205460ff16610eb05760008281526005602090815260408083206001600160a01b03851684529091529020805460ff19166001179055611c443390565b6001600160a01b0316816001600160a01b0316837f2f8788117e7eff1d82e926ec794901d17c78024a50270940304540a733656f0d60405160405180910390a45050565b600854600160a01b900460ff161515600103611ccf5760405162461bcd60e51b8152602060048201526006602482015265696e2075736560d01b6044820152606401610ab1565b6008805460ff60a01b1916600160a01b1790556001600160a01b0381166000908152600960205260408120549003611d29576001600160a01b03811660009081526009602052604090206b033b2e3c9fd0803ce800000090555b6001600160a01b0381166000908152600c602052604090205460ff16611daf576001600160a01b0381166000818152600c60205260408120805460ff19166001908117909155600d805491820181559091527fd7b6990105719101dabeb77144f2a3385c8033acd3af97e9423a695e81ad1eb50180546001600160a01b03191690911790555b506008805460ff60a01b19169055565b60008281526005602090815260408083206001600160a01b038516845290915290205460ff1615610eb05760008281526005602090815260408083206001600160a01b0385168085529252808320805460ff1916905551339285917ff6391f5c32d9c69d2a47ea670b442974b53935d1edc7fd64eb21e047a839171b9190a45050565b600080611e4f85846116a0565b6001600160a01b038087166000818152600b60209081526040808320948a1683529381528382208451808601865281548152600190910154818301908152938352600a90915292902054905190945091925090808314611f85578215611ebc57611eb983856125f7565b93505b8015611ecf57611ecc818561265c565b93505b6001600160a01b038781166000818152600b60209081526040808320948b168352938152838220898155600101879055918152600a90915220548414611f2b576001600160a01b0387166000908152600a602052604090208490555b604080516001600160a01b03808a1682528816602082015290810182905260608101849052608081018590527f50b049b7a4c2f903264b5740ef6eaec8ba61d4932d2b3e7e7bc3b8570824f0499060a00160405180910390a15b5050509392505050565b60006301ffc9a760e01b6001600160e01b031983161480610a215750506001600160e01b03191660009081526004602052604090205460ff1690565b60008281526005602090815260408083206001600160a01b038516845290915290205460ff16610eb057611ffe81612040565b612009836020612052565b60405160200161201a92919061266f565b60408051601f198184030181529082905262461bcd60e51b8252610ab191600401612249565b6060610a216001600160a01b03831660145b60606000612061836002612623565b61206c9060026125f7565b67ffffffffffffffff8111156120845761208461234c565b6040519080825280601f01601f1916602001820160405280156120ae576020820181803683370190505b509050600360fc1b816000815181106120c9576120c96125cb565b60200101906001600160f81b031916908160001a905350600f60fb1b816001815181106120f8576120f86125cb565b60200101906001600160f81b031916908160001a905350600061211c846002612623565b6121279060016125f7565b90505b60018111156121ac577f303132333435363738396162636465660000000000000000000000000000000085600f1660108110612168576121686125cb565b1a60f81b82828151811061217e5761217e6125cb565b60200101906001600160f81b031916908160001a90535060049490941c936121a5816126f0565b905061212a565b5083156112015760405162461bcd60e51b815260206004820181905260248201527f537472696e67733a20686578206c656e67746820696e73756666696369656e746044820152606401610ab1565b60006020828403121561220d57600080fd5b81356001600160e01b03198116811461120157600080fd5b60005b83811015612240578181015183820152602001612228565b50506000910152565b6020815260008251806020840152612268816040850160208701612225565b601f01601f19169190910160400192915050565b80356001600160a01b038116811461229357600080fd5b919050565b600080604083850312156122ab57600080fd5b6122b48361227c565b91506122c26020840161227c565b90509250929050565b6000602082840312156122dd57600080fd5b6112018261227c565b6000602082840312156122f857600080fd5b5035919050565b6000806040838503121561231257600080fd5b823591506122c26020840161227c565b6000806040838503121561233557600080fd5b61233e8361227c565b946020939093013593505050565b634e487b7160e01b600052604160045260246000fd5b6040805190810167ffffffffffffffff811182821017156123855761238561234c565b60405290565b604051601f8201601f1916810167ffffffffffffffff811182821017156123b4576123b461234c565b604052919050565b600067ffffffffffffffff8211156123d6576123d661234c565b5060051b60200190565b600060208083850312156123f357600080fd5b823567ffffffffffffffff81111561240a57600080fd5b8301601f8101851361241b57600080fd5b803561242e612429826123bc565b61238b565b81815260059190911b8201830190838101908783111561244d57600080fd5b928401925b82841015612472576124638461227c565b82529284019290840190612452565b979650505050505050565b600080604080848603121561249157600080fd5b61249a8461227c565b925060208085013567ffffffffffffffff8111156124b757600080fd5b8501601f810187136124c857600080fd5b80356124d6612429826123bc565b81815260069190911b820183019083810190898311156124f557600080fd5b928401925b8284101561253c5785848b0312156125125760008081fd5b61251a612362565b6125238561227c565b81528486013586820152825292850192908401906124fa565b8096505050505050509250929050565b60008060006060848603121561256157600080fd5b61256a8461227c565b92506125786020850161227c565b9150604084013590509250925092565b60208082526023908201527f41757468436f6e74726f6c3a2043616c6c6572206973206e6f7420616e20616460408201526236b4b760e91b606082015260800190565b634e487b7160e01b600052603260045260246000fd5b634e487b7160e01b600052601160045260246000fd5b80820180821115610a2157610a216125e1565b60006001820161261c5761261c6125e1565b5060010190565b8082028115828204841417610a2157610a216125e1565b60008261265757634e487b7160e01b600052601260045260246000fd5b500490565b81810381811115610a2157610a216125e1565b7f416363657373436f6e74726f6c3a206163636f756e74200000000000000000008152600083516126a7816017850160208801612225565b7f206973206d697373696e6720726f6c652000000000000000000000000000000060179184019182015283516126e4816028840160208801612225565b01602801949350505050565b6000816126ff576126ff6125e1565b50600019019056fea164736f6c6343000813000a",
  "linkReferences": {},
  "deployedLinkReferences": {}
}