{
  "_format": "hh-sol-artifact-1",
  "contractName": "L2DividendPoolForTonProxy",
  "sourceName": "contracts/L2/airdrop/L2DividendPoolForTonProxy.sol",
  "abi": [
    {
      "anonymous": false,
      "inputs": [
        {
          "indexed": true,
          "internalType": "bytes32",
          "name": "role",
          "type": "bytes32"
        },
        {
          "indexed": true,
          "internalType": "bytes32",
          "name": "previousAdminRole",
          "type": "bytes32"
        },
        {
          "indexed": true,
          "internalType": "bytes32",
          "name": "newAdminRole",
          "type": "bytes32"
        }
      ],
      "name": "RoleAdminChanged",
      "type": "event"
    },
    {
      "anonymous": false,
      "inputs": [
        {
          "indexed": true,
          "internalType": "bytes32",
          "name": "role",
          "type": "bytes32"
        },
        {
          "indexed": true,
          "internalType": "address",
          "name": "account",
          "type": "address"
        },
        {
          "indexed": true,
          "internalType": "address",
          "name": "sender",
          "type": "address"
        }
      ],
      "name": "RoleGranted",
      "type": "event"
    },
    {
      "anonymous": false,
      "inputs": [
        {
          "indexed": true,
          "internalType": "bytes32",
          "name": "role",
          "type": "bytes32"
        },
        {
          "indexed": true,
          "internalType": "address",
          "name": "account",
          "type": "address"
        },
        {
          "indexed": true,
          "internalType": "address",
          "name": "sender",
          "type": "address"
        }
      ],
      "name": "RoleRevoked",
      "type": "event"
    },
    {
      "anonymous": false,
      "inputs": [
        {
          "indexed": true,
          "internalType": "address",
          "name": "impl",
          "type": "address"
        },
        {
          "indexed": false,
          "internalType": "bool",
          "name": "alive",
          "type": "bool"
        }
      ],
      "name": "SetAliveImplementation",
      "type": "event"
    },
    {
      "anonymous": false,
      "inputs": [
        {
          "indexed": true,
          "internalType": "bytes4",
          "name": "selector",
          "type": "bytes4"
        },
        {
          "indexed": true,
          "internalType": "address",
          "name": "impl",
          "type": "address"
        }
      ],
      "name": "SetSelectorImplementation",
      "type": "event"
    },
    {
      "anonymous": false,
      "inputs": [
        {
          "indexed": true,
          "internalType": "address",
          "name": "implementation",
          "type": "address"
        }
      ],
      "name": "Upgraded",
      "type": "event"
    },
    {
      "stateMutability": "payable",
      "type": "fallback"
    },
    {
      "inputs": [],
      "name": "DEFAULT_ADMIN_ROLE",
      "outputs": [
        {
          "internalType": "bytes32",
          "name": "",
          "type": "bytes32"
        }
      ],
      "stateMutability": "view",
      "type": "function"
    },
    {
      "inputs": [],
      "name": "MINTER_ROLE",
      "outputs": [
        {
          "internalType": "bytes32",
          "name": "",
          "type": "bytes32"
        }
      ],
      "stateMutability": "view",
      "type": "function"
    },
    {
      "inputs": [
        {
          "internalType": "address",
          "name": "account",
          "type": "address"
        }
      ],
      "name": "addAdmin",
      "outputs": [],
      "stateMutability": "nonpayable",
      "type": "function"
    },
    {
      "inputs": [
        {
          "internalType": "address",
          "name": "",
          "type": "address"
        }
      ],
      "name": "aliveImplementation",
      "outputs": [
        {
          "internalType": "bool",
          "name": "",
          "type": "bool"
        }
      ],
      "stateMutability": "view",
      "type": "function"
    },
    {
      "inputs": [
        {
          "internalType": "uint256",
          "name": "",
          "type": "uint256"
        }
      ],
      "name": "distributedTokens",
      "outputs": [
        {
          "internalType": "address",
          "name": "",
          "type": "address"
        }
      ],
      "stateMutability": "view",
      "type": "function"
    },
    {
      "inputs": [
        {
          "internalType": "address",
          "name": "",
          "type": "address"
        }
      ],
      "name": "distributions",
      "outputs": [
        {
          "internalType": "bool",
          "name": "exists",
          "type": "bool"
        },
        {
          "internalType": "uint256",
          "name": "totalDistribution",
          "type": "uint256"
        },
        {
          "internalType": "uint256",
          "name": "lastBalance",
          "type": "uint256"
        }
      ],
      "stateMutability": "view",
      "type": "function"
    },
    {
      "inputs": [
        {
          "internalType": "bytes32",
          "name": "role",
          "type": "bytes32"
        }
      ],
      "name": "getRoleAdmin",
      "outputs": [
        {
          "internalType": "bytes32",
          "name": "",
          "type": "bytes32"
        }
      ],
      "stateMutability": "view",
      "type": "function"
    },
    {
      "inputs": [
        {
          "internalType": "bytes4",
          "name": "_selector",
          "type": "bytes4"
        }
      ],
      "name": "getSelectorImplementation2",
      "outputs": [
        {
          "internalType": "address",
          "name": "impl",
          "type": "address"
        }
      ],
      "stateMutability": "view",
      "type": "function"
    },
    {
      "inputs": [
        {
          "internalType": "bytes32",
          "name": "role",
          "type": "bytes32"
        },
        {
          "internalType": "address",
          "name": "account",
          "type": "address"
        }
      ],
      "name": "grantRole",
      "outputs": [],
      "stateMutability": "nonpayable",
      "type": "function"
    },
    {
      "inputs": [
        {
          "internalType": "bytes32",
          "name": "role",
          "type": "bytes32"
        },
        {
          "internalType": "address",
          "name": "account",
          "type": "address"
        }
      ],
      "name": "hasRole",
      "outputs": [
        {
          "internalType": "bool",
          "name": "",
          "type": "bool"
        }
      ],
      "stateMutability": "view",
      "type": "function"
    },
    {
      "inputs": [],
      "name": "implementation",
      "outputs": [
        {
          "internalType": "address",
          "name": "",
          "type": "address"
        }
      ],
      "stateMutability": "view",
      "type": "function"
    },
    {
      "inputs": [
        {
          "internalType": "uint256",
          "name": "_index",
          "type": "uint256"
        }
      ],
      "name": "implementation2",
      "outputs": [
        {
          "internalType": "address",
          "name": "",
          "type": "address"
        }
      ],
      "stateMutability": "view",
      "type": "function"
    },
    {
      "inputs": [
        {
          "internalType": "address",
          "name": "account",
          "type": "address"
        }
      ],
      "name": "isAdmin",
      "outputs": [
        {
          "internalType": "bool",
          "name": "",
          "type": "bool"
        }
      ],
      "stateMutability": "view",
      "type": "function"
    },
    {
      "inputs": [],
      "name": "isOwner",
      "outputs": [
        {
          "internalType": "bool",
          "name": "",
          "type": "bool"
        }
      ],
      "stateMutability": "view",
      "type": "function"
    },
    {
      "inputs": [],
      "name": "l2SeigManager",
      "outputs": [
        {
          "internalType": "address",
          "name": "",
          "type": "address"
        }
      ],
      "stateMutability": "view",
      "type": "function"
    },
    {
      "inputs": [],
      "name": "pauseProxy",
      "outputs": [
        {
          "internalType": "bool",
          "name": "",
          "type": "bool"
        }
      ],
      "stateMutability": "view",
      "type": "function"
    },
    {
      "inputs": [
        {
          "internalType": "uint256",
          "name": "",
          "type": "uint256"
        }
      ],
      "name": "proxyImplementation",
      "outputs": [
        {
          "internalType": "address",
          "name": "",
          "type": "address"
        }
      ],
      "stateMutability": "view",
      "type": "function"
    },
    {
      "inputs": [
        {
          "internalType": "address",
          "name": "account",
          "type": "address"
        }
      ],
      "name": "removeAdmin",
      "outputs": [],
      "stateMutability": "nonpayable",
      "type": "function"
    },
    {
      "inputs": [],
      "name": "renounceOwnership",
      "outputs": [],
      "stateMutability": "nonpayable",
      "type": "function"
    },
    {
      "inputs": [
        {
          "internalType": "bytes32",
          "name": "role",
          "type": "bytes32"
        },
        {
          "internalType": "address",
          "name": "account",
          "type": "address"
        }
      ],
      "name": "renounceRole",
      "outputs": [],
      "stateMutability": "nonpayable",
      "type": "function"
    },
    {
      "inputs": [
        {
          "internalType": "bytes32",
          "name": "role",
          "type": "bytes32"
        },
        {
          "internalType": "address",
          "name": "account",
          "type": "address"
        }
      ],
      "name": "revokeRole",
      "outputs": [],
      "stateMutability": "nonpayable",
      "type": "function"
    },
    {
      "inputs": [
        {
          "internalType": "bytes4",
          "name": "",
          "type": "bytes4"
        }
      ],
      "name": "selectorImplementation",
      "outputs": [
        {
          "internalType": "address",
          "name": "",
          "type": "address"
        }
      ],
      "stateMutability": "view",
      "type": "function"
    },
    {
      "inputs": [
        {
          "internalType": "address",
          "name": "newImplementation",
          "type": "address"
        },
        {
          "internalType": "bool",
          "name": "_alive",
          "type": "bool"
        }
      ],
      "name": "setAliveImplementation2",
      "outputs": [],
      "stateMutability": "nonpayable",
      "type": "function"
    },
    {
      "inputs": [
        {
          "internalType": "address",
          "name": "newImplementation",
          "type": "address"
        },
        {
          "internalType": "uint256",
          "name": "_index",
          "type": "uint256"
        },
        {
          "internalType": "bool",
          "name": "_alive",
          "type": "bool"
        }
      ],
      "name": "setImplementation2",
      "outputs": [],
      "stateMutability": "nonpayable",
      "type": "function"
    },
    {
      "inputs": [
        {
          "internalType": "bool",
          "name": "_pause",
          "type": "bool"
        }
      ],
      "name": "setProxyPause",
      "outputs": [],
      "stateMutability": "nonpayable",
      "type": "function"
    },
    {
      "inputs": [
        {
          "internalType": "bytes4[]",
          "name": "_selectors",
          "type": "bytes4[]"
        },
        {
          "internalType": "address",
          "name": "_imp",
          "type": "address"
        }
      ],
      "name": "setSelectorImplementations2",
      "outputs": [],
      "stateMutability": "nonpayable",
      "type": "function"
    },
    {
      "inputs": [
        {
          "internalType": "address",
          "name": "",
          "type": "address"
        },
        {
          "internalType": "uint256",
          "name": "",
          "type": "uint256"
        }
      ],
      "name": "snapshotIds",
      "outputs": [
        {
          "internalType": "uint256",
          "name": "",
          "type": "uint256"
        }
      ],
      "stateMutability": "view",
      "type": "function"
    },
    {
      "inputs": [
        {
          "internalType": "bytes4",
          "name": "interfaceId",
          "type": "bytes4"
        }
      ],
      "name": "supportsInterface",
      "outputs": [
        {
          "internalType": "bool",
          "name": "",
          "type": "bool"
        }
      ],
      "stateMutability": "view",
      "type": "function"
    },
    {
      "inputs": [
        {
          "internalType": "address",
          "name": "newAdmin",
          "type": "address"
        }
      ],
      "name": "transferAdmin",
      "outputs": [],
      "stateMutability": "nonpayable",
      "type": "function"
    },
    {
      "inputs": [
        {
          "internalType": "address",
          "name": "newAdmin",
          "type": "address"
        }
      ],
      "name": "transferOwnership",
      "outputs": [],
      "stateMutability": "nonpayable",
      "type": "function"
    },
    {
      "inputs": [
        {
          "internalType": "address",
          "name": "impl",
          "type": "address"
        }
      ],
      "name": "upgradeTo",
      "outputs": [],
      "stateMutability": "nonpayable",
      "type": "function"
    },
    {
      "stateMutability": "payable",
      "type": "receive"
    }
  ],
  "bytecode": "0x608060405234801561001057600080fd5b5061001c600033610021565b6100d1565b61002b828261002f565b5050565b60008281526005602090815260408083206001600160a01b038516845290915290205460ff1661002b5760008281526005602090815260408083206001600160a01b03851684529091529020805460ff1916600117905561008d3390565b6001600160a01b0316816001600160a01b0316837f2f8788117e7eff1d82e926ec794901d17c78024a50270940304540a733656f0d60405160405180910390a45050565b611a4f80620000e16000396000f3fe6080604052600436106101dc5760003560e01c806363a8fd89116101025780638f32d59b11610095578063b911135f11610064578063b911135f1461069a578063d5391393146106d0578063d547741f14610704578063f2fde38b146107245761022e565b80638f32d59b1461059e57806391d14854146105e25780639353b9df14610628578063a217fddf146106855761022e565b80637cb00d25116100d15780637cb00d251461051e5780637cd5f6631461053e5780638b8f4a651461055e5780638d4fdb401461057e5761022e565b806363a8fd89146104af57806370480275146104c9578063715018a6146104e957806375829def146104fe5761022e565b80633659cfe61161017a57806353cd4eac1161014957806353cd4eac146103f9578063550d01a3146104195780635c60da1b146104495780635cc797d81461048f5761022e565b80633659cfe61461034b57806337a155031461036b5780634a5df50f146103a357806350d2a276146103c35761022e565b806324d7806c116101b657806324d7806c146102cb5780632d4316c4146102eb5780632f2ff15d1461030b57806336568abe1461032b5761022e565b806301ffc9a7146102385780631785f53c1461026d578063248a9ca31461028d5761022e565b3661022e5760405162461bcd60e51b815260206004820152601460248201527f63616e6e6f74207265636569766520457468657200000000000000000000000060448201526064015b60405180910390fd5b610236610744565b005b34801561024457600080fd5b506102586102533660046116d7565b6107ed565b60405190151581526020015b60405180910390f35b34801561027957600080fd5b50610236610288366004611718565b6107fe565b34801561029957600080fd5b506102bd6102a8366004611733565b60009081526005602052604090206001015490565b604051908152602001610264565b3480156102d757600080fd5b506102586102e6366004611718565b61085a565b3480156102f757600080fd5b506102bd61030636600461174c565b61089a565b34801561031757600080fd5b50610236610326366004611776565b6108cb565b34801561033757600080fd5b50610236610346366004611776565b6108f0565b34801561035757600080fd5b50610236610366366004611718565b61097c565b34801561037757600080fd5b5061038b610386366004611733565b610ad5565b6040516001600160a01b039091168152602001610264565b3480156103af57600080fd5b506102366103be3660046117a2565b610aff565b3480156103cf57600080fd5b5061038b6103de3660046116d7565b6003602052600090815260409020546001600160a01b031681565b34801561040557600080fd5b5060065461038b906001600160a01b031681565b34801561042557600080fd5b50610258610434366004611718565b60026020526000908152604090205460ff1681565b34801561045557600080fd5b506000805260016020527fa6eef7e35abe7026729641147f7915573c7e97b47efa546f5f6e3230263bcb49546001600160a01b031661038b565b34801561049b57600080fd5b506102366104aa366004611836565b610dac565b3480156104bb57600080fd5b506000546102589060ff1681565b3480156104d557600080fd5b506102366104e4366004611718565b610e04565b3480156104f557600080fd5b50610236610e5d565b34801561050a57600080fd5b50610236610519366004611718565b610eb8565b34801561052a57600080fd5b50610236610539366004611860565b610fca565b34801561054a57600080fd5b5061023661055936600461187b565b61102b565b34801561056a57600080fd5b5061038b610579366004611733565b611084565b34801561058a57600080fd5b5061038b6105993660046116d7565b6110a1565b3480156105aa57600080fd5b503360009081527f05b8ccbb9d4d8fb16ea74ce3c29a41f1b461fbdaff4714a0d9a8eb05499746bc602052604090205460ff16610258565b3480156105ee57600080fd5b506102586105fd366004611776565b60009182526005602090815260408084206001600160a01b0393909316845291905290205460ff1690565b34801561063457600080fd5b50610668610643366004611718565b60076020526000908152604090208054600182015460029092015460ff909116919083565b604080519315158452602084019290925290820152606001610264565b34801561069157600080fd5b506102bd600081565b3480156106a657600080fd5b5061038b6106b5366004611733565b6001602052600090815260409020546001600160a01b031681565b3480156106dc57600080fd5b506102bd7ff0887ba65ee2024ea881d91b74c2450ef19e1557f03bed3ea9f16b037cbe2dc981565b34801561071057600080fd5b5061023661071f366004611776565b61119d565b34801561073057600080fd5b5061023661073f366004611718565b6111c2565b600061075b6000356001600160e01b0319166110a1565b90506001600160a01b03811615801590610778575060005460ff16155b6107c45760405162461bcd60e51b815260206004820152601d60248201527f50726f78793a20696d706c204f522070726f78792069732066616c73650000006044820152606401610225565b3660008037600080366000845af43d6000803e8080156107e3573d6000f35b3d6000fd5b505050565b60006107f882611219565b92915050565b6108073361085a565b61084c5760405162461bcd60e51b81526020600482015260226024820152600080516020611a2383398151915260448201526134b760f11b6064820152608401610225565b6108576000826108f0565b50565b6001600160a01b03811660009081527f05b8ccbb9d4d8fb16ea74ce3c29a41f1b461fbdaff4714a0d9a8eb05499746bc602052604081205460ff166107f8565b600a60205281600052604060002081815481106108b657600080fd5b90600052602060002001600091509150505481565b6000828152600560205260409020600101546108e68161123e565b6107e88383611248565b6001600160a01b038116331461096e5760405162461bcd60e51b815260206004820152602f60248201527f416363657373436f6e74726f6c3a2063616e206f6e6c792072656e6f756e636560448201527f20726f6c657320666f722073656c6600000000000000000000000000000000006064820152608401610225565b61097882826112ea565b5050565b6109853361085a565b6109ca5760405162461bcd60e51b81526020600482015260226024820152600080516020611a2383398151915260448201526134b760f11b6064820152608401610225565b6001600160a01b038116610a205760405162461bcd60e51b815260206004820152600d60248201527f696e707574206973207a65726f000000000000000000000000000000000000006044820152606401610225565b6000805260016020527fa6eef7e35abe7026729641147f7915573c7e97b47efa546f5f6e3230263bcb49546001600160a01b03828116911603610a915760405162461bcd60e51b815260206004820152600960248201526839b0b6b29030b2323960b91b6044820152606401610225565b610a9e816000600161136d565b6040516001600160a01b038216907fbc7cd75a20ee27fd9adebab32041f755214dbc6bffa90cc0225b39da2e5c2d3b90600090a250565b600b8181548110610ae557600080fd5b6000918252602090912001546001600160a01b0316905081565b610b083361085a565b610b4d5760405162461bcd60e51b81526020600482015260226024820152600080516020611a2383398151915260448201526134b760f11b6064820152608401610225565b81610b9a5760405162461bcd60e51b815260206004820181905260248201527f50726f78793a205f73656c6563746f727327732073697a65206973207a65726f6044820152606401610225565b6001600160a01b03811660009081526002602052604090205460ff16610c025760405162461bcd60e51b815260206004820152601860248201527f50726f78793a205f696d70206973206e6f7420616c69766500000000000000006044820152606401610225565b60005b82811015610da657816001600160a01b031660036000868685818110610c2d57610c2d6118ae565b9050602002016020810190610c4291906116d7565b6001600160e01b03191681526020810191909152604001600020546001600160a01b031603610cb35760405162461bcd60e51b815260206004820152601d60248201527f4c69717569646974795661756c7450726f78793a2073616d6520696d700000006044820152606401610225565b8160036000868685818110610cca57610cca6118ae565b9050602002016020810190610cdf91906116d7565b6001600160e01b03191681526020810191909152604001600020805473ffffffffffffffffffffffffffffffffffffffff19166001600160a01b039283161790558216848483818110610d3457610d346118ae565b9050602002016020810190610d4991906116d7565b7bffffffffffffffffffffffffffffffffffffffffffffffffffffffff19167f14ebc1c32aa68f4d766e89f3e546cee249f7df25183fc10ab1568d91c2ce9b7b60405160405180910390a380610d9e816118da565b915050610c05565b50505050565b610db53361085a565b610dfa5760405162461bcd60e51b81526020600482015260226024820152600080516020611a2383398151915260448201526134b760f11b6064820152608401610225565b6109788282611405565b610e0d3361085a565b610e525760405162461bcd60e51b81526020600482015260226024820152600080516020611a2383398151915260448201526134b760f11b6064820152608401610225565b6108576000826108cb565b610e663361085a565b610eab5760405162461bcd60e51b81526020600482015260226024820152600080516020611a2383398151915260448201526134b760f11b6064820152608401610225565b610eb66000336108f0565b565b610ec13361085a565b610f065760405162461bcd60e51b81526020600482015260226024820152600080516020611a2383398151915260448201526134b760f11b6064820152608401610225565b6001600160a01b038116610f5c5760405162461bcd60e51b815260206004820152601860248201527f41636365737369626c653a207a65726f206164647265737300000000000000006044820152606401610225565b6001600160a01b0381163303610fb45760405162461bcd60e51b815260206004820152601660248201527f41636365737369626c653a2073616d652061646d696e000000000000000000006044820152606401610225565b610fbf6000826108cb565b6108576000336108f0565b610fd33361085a565b6110185760405162461bcd60e51b81526020600482015260226024820152600080516020611a2383398151915260448201526134b760f11b6064820152608401610225565b6000805460ff1916911515919091179055565b6110343361085a565b6110795760405162461bcd60e51b81526020600482015260226024820152600080516020611a2383398151915260448201526134b760f11b6064820152608401610225565b6107e883838361136d565b6000818152600160205260408120546001600160a01b03166107f8565b6001600160e01b031981166000908152600360205260408120546001600160a01b03166111015750506000805260016020527fa6eef7e35abe7026729641147f7915573c7e97b47efa546f5f6e3230263bcb49546001600160a01b031690565b6001600160e01b031982166000908152600360209081526040808320546001600160a01b03168352600290915290205460ff161561115f57506001600160e01b0319166000908152600360205260409020546001600160a01b031690565b50506000805260016020527fa6eef7e35abe7026729641147f7915573c7e97b47efa546f5f6e3230263bcb49546001600160a01b031690565b919050565b6000828152600560205260409020600101546111b88161123e565b6107e883836112ea565b6111cb3361085a565b6112105760405162461bcd60e51b81526020600482015260226024820152600080516020611a2383398151915260448201526134b760f11b6064820152608401610225565b61085781610eb8565b60006001600160e01b03198216637965db0b60e01b14806107f857506107f882611464565b61085781336114a0565b60008281526005602090815260408083206001600160a01b038516845290915290205460ff166109785760008281526005602090815260408083206001600160a01b03851684529091529020805460ff191660011790556112a63390565b6001600160a01b0316816001600160a01b0316837f2f8788117e7eff1d82e926ec794901d17c78024a50270940304540a733656f0d60405160405180910390a45050565b60008281526005602090815260408083206001600160a01b038516845290915290205460ff16156109785760008281526005602090815260408083206001600160a01b0385168085529252808320805460ff1916905551339285917ff6391f5c32d9c69d2a47ea670b442974b53935d1edc7fd64eb21e047a839171b9190a45050565b6001600160a01b0383163b6113c45760405162461bcd60e51b815260206004820152601b60248201527f50726f78793a206e6f7420636f6e7472616374206164647265737300000000006044820152606401610225565b80156113ff576000828152600160205260409020805473ffffffffffffffffffffffffffffffffffffffff19166001600160a01b0385161790555b6107e883825b6001600160a01b038216600081815260026020908152604091829020805460ff191685151590811790915591519182527f72558d9bfba4210f9ef095c782589484151f6d90f7a81bb3cb9b33efc695d324910160405180910390a25050565b60006301ffc9a760e01b6001600160e01b0319831614806107f85750506001600160e01b03191660009081526004602052604090205460ff1690565b60008281526005602090815260408083206001600160a01b038516845290915290205460ff16610978576114d381611515565b6114de836020611527565b6040516020016114ef929190611917565b60408051601f198184030181529082905262461bcd60e51b825261022591600401611998565b60606107f86001600160a01b03831660145b606060006115368360026119cb565b6115419060026119e2565b67ffffffffffffffff811115611559576115596119f5565b6040519080825280601f01601f191660200182016040528015611583576020820181803683370190505b509050600360fc1b8160008151811061159e5761159e6118ae565b60200101906001600160f81b031916908160001a905350600f60fb1b816001815181106115cd576115cd6118ae565b60200101906001600160f81b031916908160001a90535060006115f18460026119cb565b6115fc9060016119e2565b90505b6001811115611681577f303132333435363738396162636465660000000000000000000000000000000085600f166010811061163d5761163d6118ae565b1a60f81b828281518110611653576116536118ae565b60200101906001600160f81b031916908160001a90535060049490941c9361167a81611a0b565b90506115ff565b5083156116d05760405162461bcd60e51b815260206004820181905260248201527f537472696e67733a20686578206c656e67746820696e73756666696369656e746044820152606401610225565b9392505050565b6000602082840312156116e957600080fd5b81356001600160e01b0319811681146116d057600080fd5b80356001600160a01b038116811461119857600080fd5b60006020828403121561172a57600080fd5b6116d082611701565b60006020828403121561174557600080fd5b5035919050565b6000806040838503121561175f57600080fd5b61176883611701565b946020939093013593505050565b6000806040838503121561178957600080fd5b8235915061179960208401611701565b90509250929050565b6000806000604084860312156117b757600080fd5b833567ffffffffffffffff808211156117cf57600080fd5b818601915086601f8301126117e357600080fd5b8135818111156117f257600080fd5b8760208260051b850101111561180757600080fd5b60209283019550935061181d9186019050611701565b90509250925092565b8035801515811461119857600080fd5b6000806040838503121561184957600080fd5b61185283611701565b915061179960208401611826565b60006020828403121561187257600080fd5b6116d082611826565b60008060006060848603121561189057600080fd5b61189984611701565b92506020840135915061181d60408501611826565b634e487b7160e01b600052603260045260246000fd5b634e487b7160e01b600052601160045260246000fd5b6000600182016118ec576118ec6118c4565b5060010190565b60005b8381101561190e5781810151838201526020016118f6565b50506000910152565b7f416363657373436f6e74726f6c3a206163636f756e742000000000000000000081526000835161194f8160178501602088016118f3565b7f206973206d697373696e6720726f6c6520000000000000000000000000000000601791840191820152835161198c8160288401602088016118f3565b01602801949350505050565b60208152600082518060208401526119b78160408501602087016118f3565b601f01601f19169190910160400192915050565b80820281158282048414176107f8576107f86118c4565b808201808211156107f8576107f86118c4565b634e487b7160e01b600052604160045260246000fd5b600081611a1a57611a1a6118c4565b50600019019056fe41636365737369626c653a2043616c6c6572206973206e6f7420616e2061646da164736f6c6343000813000a",
  "linkReferences": {},
  "deployedLinkReferences": {}
}