{
  "_format": "hh-sol-artifact-1",
  "contractName": "AccessRolePowerTon",
  "sourceName": "contracts/common/AccessRolePowerTon.sol",
  "abi": [
    {
      "inputs": [],
      "name": "ADMIN_ROLE",
      "outputs": [
        {
          "internalType": "bytes32",
          "name": "",
          "type": "bytes32"
        }
      ],
      "stateMutability": "view",
      "type": "function"
    },
    {
      "inputs": [],
      "name": "BURNER_ROLE",
      "outputs": [
        {
          "internalType": "bytes32",
          "name": "",
          "type": "bytes32"
        }
      ],
      "stateMutability": "view",
      "type": "function"
    },
    {
      "inputs": [],
      "name": "MINTER_ROLE",
      "outputs": [
        {
          "internalType": "bytes32",
          "name": "",
          "type": "bytes32"
        }
      ],
      "stateMutability": "view",
      "type": "function"
    }
  ],
  "bytecode": "0x608080604052346100155760fb908161001b8239f35b600080fdfe6080806040526004361015601257600080fd5b600090813560e01c908163282c51f31460b25750806375b238fc1460795763d539139314603e57600080fd5b346076578060031936011260765760206040517ff0887ba65ee2024ea881d91b74c2450ef19e1557f03bed3ea9f16b037cbe2dc98152f35b80fd5b50346076578060031936011260765760206040517fdf8b4c520ffe197c5343c6f5aec59570151ef9a492f2c624fd45ddde6135ec428152f35b90503460ea578160031936011260ea57807f9667e80708b6eeeb0053fa0cca44e028ff548e2a9f029edfeac87c118b08b7c860209252f35b5080fdfea164736f6c6343000812000a",
  "linkReferences": {},
  "deployedLinkReferences": {}
}