{
  "_format": "hh-sol-artifact-1",
  "contractName": "AccessRoleCommon",
  "sourceName": "contracts/common/AccessRoleCommon.sol",
  "abi": [
    {
      "inputs": [],
      "name": "MINTER_ROLE",
      "outputs": [
        {
          "internalType": "bytes32",
          "name": "",
          "type": "bytes32"
        }
      ],
      "stateMutability": "view",
      "type": "function"
    }
  ],
  "bytecode": "0x6080604052348015600f57600080fd5b5060728061001e6000396000f3fe6080604052348015600f57600080fd5b506004361060285760003560e01c8063d539139314602d575b600080fd5b60537ff0887ba65ee2024ea881d91b74c2450ef19e1557f03bed3ea9f16b037cbe2dc981565b60405190815260200160405180910390f3fea164736f6c6343000813000a",
  "linkReferences": {},
  "deployedLinkReferences": {}
}