{
  "_format": "hh-sol-artifact-1",
  "contractName": "L2SeigManagerStorage",
  "sourceName": "contracts/L2/L2SeigManagerStorage.sol",
  "abi": [
    {
      "inputs": [],
      "name": "DEFAULT_FACTOR",
      "outputs": [
        {
          "internalType": "uint256",
          "name": "",
          "type": "uint256"
        }
      ],
      "stateMutability": "view",
      "type": "function"
    },
    {
      "inputs": [
        {
          "internalType": "address",
          "name": "",
          "type": "address"
        },
        {
          "internalType": "uint256",
          "name": "",
          "type": "uint256"
        }
      ],
      "name": "index",
      "outputs": [
        {
          "internalType": "uint256",
          "name": "",
          "type": "uint256"
        }
      ],
      "stateMutability": "view",
      "type": "function"
    },
    {
      "inputs": [],
      "name": "l1StakedTonInL2",
      "outputs": [
        {
          "internalType": "address",
          "name": "",
          "type": "address"
        }
      ],
      "stateMutability": "view",
      "type": "function"
    },
    {
      "inputs": [
        {
          "internalType": "uint256",
          "name": "",
          "type": "uint256"
        }
      ],
      "name": "l1layer2s",
      "outputs": [
        {
          "internalType": "address",
          "name": "",
          "type": "address"
        }
      ],
      "stateMutability": "view",
      "type": "function"
    },
    {
      "inputs": [],
      "name": "l2CrossDomainMessenger",
      "outputs": [
        {
          "internalType": "address",
          "name": "",
          "type": "address"
        }
      ],
      "stateMutability": "view",
      "type": "function"
    },
    {
      "inputs": [],
      "name": "lastSnapshotId",
      "outputs": [
        {
          "internalType": "uint256",
          "name": "",
          "type": "uint256"
        }
      ],
      "stateMutability": "view",
      "type": "function"
    },
    {
      "inputs": [
        {
          "internalType": "address",
          "name": "",
          "type": "address"
        },
        {
          "internalType": "uint256",
          "name": "",
          "type": "uint256"
        }
      ],
      "name": "layerIndexSnapshotIds",
      "outputs": [
        {
          "internalType": "uint256",
          "name": "",
          "type": "uint256"
        }
      ],
      "stateMutability": "view",
      "type": "function"
    },
    {
      "inputs": [
        {
          "internalType": "address",
          "name": "",
          "type": "address"
        },
        {
          "internalType": "uint256",
          "name": "",
          "type": "uint256"
        }
      ],
      "name": "layerTlswtonSnapshotIds",
      "outputs": [
        {
          "internalType": "uint256",
          "name": "",
          "type": "uint256"
        }
      ],
      "stateMutability": "view",
      "type": "function"
    },
    {
      "inputs": [
        {
          "internalType": "address",
          "name": "",
          "type": "address"
        },
        {
          "internalType": "address",
          "name": "",
          "type": "address"
        },
        {
          "internalType": "uint256",
          "name": "",
          "type": "uint256"
        }
      ],
      "name": "stakedInfo",
      "outputs": [
        {
          "internalType": "uint256",
          "name": "deposit",
          "type": "uint256"
        },
        {
          "internalType": "uint256",
          "name": "lswton",
          "type": "uint256"
        }
      ],
      "stateMutability": "view",
      "type": "function"
    },
    {
      "inputs": [
        {
          "internalType": "address",
          "name": "",
          "type": "address"
        },
        {
          "internalType": "address",
          "name": "",
          "type": "address"
        },
        {
          "internalType": "uint256",
          "name": "",
          "type": "uint256"
        }
      ],
      "name": "stakedInfoSnapshotIds",
      "outputs": [
        {
          "internalType": "uint256",
          "name": "",
          "type": "uint256"
        }
      ],
      "stateMutability": "view",
      "type": "function"
    },
    {
      "inputs": [
        {
          "internalType": "address",
          "name": "",
          "type": "address"
        },
        {
          "internalType": "uint256",
          "name": "",
          "type": "uint256"
        }
      ],
      "name": "totalLswton",
      "outputs": [
        {
          "internalType": "uint256",
          "name": "",
          "type": "uint256"
        }
      ],
      "stateMutability": "view",
      "type": "function"
    }
  ],
  "bytecode": "0x608060405234801561001057600080fd5b50610387806100206000396000f3fe608060405234801561001057600080fd5b50600436106100c95760003560e01c80638c09d4ee11610081578063ef0d94241161005b578063ef0d9424146101f1578063fbef005a14610204578063fe42e55e1461021757600080fd5b80638c09d4ee146101a05780639bc3db8e146101b3578063c870ad86146101de57600080fd5b8063837afbc0116100b2578063837afbc0146101375780638970eb40146101405780638bf91dc41461018d57600080fd5b806334b0157a146100ce57806359fc1a6e146100fe575b600080fd5b6100e16100dc3660046102df565b61022a565b6040516001600160a01b0390911681526020015b60405180910390f35b61012961010c366004610314565b600460209081526000928352604080842090915290825290205481565b6040519081526020016100f5565b61012960005481565b61017861014e36600461033e565b60086020908152600093845260408085208252928452828420905282529020805460019091015482565b604080519283526020830191909152016100f5565b6101296b033b2e3c9fd0803ce800000081565b6001546100e1906001600160a01b031681565b6101296101c1366004610314565b600660209081526000928352604080842090915290825290205481565b6101296101ec366004610314565b610254565b6101296101ff366004610314565b610285565b6002546100e1906001600160a01b031681565b61012961022536600461033e565b6102a1565b600a818154811061023a57600080fd5b6000918252602090912001546001600160a01b0316905081565b6003602052816000526040600020818154811061027057600080fd5b90600052602060002001600091509150505481565b6005602052816000526040600020818154811061027057600080fd5b600760205282600052604060002060205281600052604060002081815481106102c957600080fd5b9060005260206000200160009250925050505481565b6000602082840312156102f157600080fd5b5035919050565b80356001600160a01b038116811461030f57600080fd5b919050565b6000806040838503121561032757600080fd5b610330836102f8565b946020939093013593505050565b60008060006060848603121561035357600080fd5b61035c846102f8565b925061036a602085016102f8565b915060408401359050925092509256fea164736f6c6343000813000a",
  "linkReferences": {},
  "deployedLinkReferences": {}
}