{
  "_format": "hh-sol-artifact-1",
  "contractName": "L2SeigManagerStorage",
  "sourceName": "contracts/L2/L2SeigManagerStorage.sol",
  "abi": [
    {
      "inputs": [],
      "name": "DEFAULT_FACTOR",
      "outputs": [
        {
          "internalType": "uint256",
          "name": "",
          "type": "uint256"
        }
      ],
      "stateMutability": "view",
      "type": "function"
    },
    {
      "inputs": [
        {
          "internalType": "address",
          "name": "",
          "type": "address"
        }
      ],
      "name": "index",
      "outputs": [
        {
          "internalType": "uint256",
          "name": "",
          "type": "uint256"
        }
      ],
      "stateMutability": "view",
      "type": "function"
    },
    {
      "inputs": [],
      "name": "l1StakedTonInL2",
      "outputs": [
        {
          "internalType": "address",
          "name": "",
          "type": "address"
        }
      ],
      "stateMutability": "view",
      "type": "function"
    },
    {
      "inputs": [],
      "name": "l2CrossDomainMessenger",
      "outputs": [
        {
          "internalType": "address",
          "name": "",
          "type": "address"
        }
      ],
      "stateMutability": "view",
      "type": "function"
    },
    {
      "inputs": [],
      "name": "lastSnapshotId",
      "outputs": [
        {
          "internalType": "uint256",
          "name": "",
          "type": "uint256"
        }
      ],
      "stateMutability": "view",
      "type": "function"
    },
    {
      "inputs": [
        {
          "internalType": "address",
          "name": "",
          "type": "address"
        },
        {
          "internalType": "address",
          "name": "",
          "type": "address"
        }
      ],
      "name": "stakedInfo",
      "outputs": [
        {
          "internalType": "uint256",
          "name": "deposit",
          "type": "uint256"
        },
        {
          "internalType": "uint256",
          "name": "lswton",
          "type": "uint256"
        }
      ],
      "stateMutability": "view",
      "type": "function"
    },
    {
      "inputs": [
        {
          "internalType": "address",
          "name": "",
          "type": "address"
        }
      ],
      "name": "totalLswton",
      "outputs": [
        {
          "internalType": "uint256",
          "name": "",
          "type": "uint256"
        }
      ],
      "stateMutability": "view",
      "type": "function"
    }
  ],
  "bytecode": "0x608060405234801561001057600080fd5b506101f4806100206000396000f3fe608060405234801561001057600080fd5b506004361061007d5760003560e01c80638bf91dc41161005b5780638bf91dc4146100de5780638c09d4ee146100f1578063d7da2eec1461011c578063fbef005a1461016357600080fd5b80630acdadf81461008257806318def8ef146100b5578063837afbc0146100d5575b600080fd5b6100a2610090366004610192565b60016020526000908152604090205481565b6040519081526020015b60405180910390f35b6100a26100c3366004610192565b60006020819052908152604090205481565b6100a260035481565b6100a26b033b2e3c9fd0803ce800000081565b600454610104906001600160a01b031681565b6040516001600160a01b0390911681526020016100ac565b61014e61012a3660046101b4565b60026020908152600092835260408084209091529082529020805460019091015482565b604080519283526020830191909152016100ac565b600554610104906001600160a01b031681565b80356001600160a01b038116811461018d57600080fd5b919050565b6000602082840312156101a457600080fd5b6101ad82610176565b9392505050565b600080604083850312156101c757600080fd5b6101d083610176565b91506101de60208401610176565b9050925092905056fea164736f6c6343000813000a",
  "linkReferences": {},
  "deployedLinkReferences": {}
}