{
  "_format": "hh-sol-artifact-1",
  "contractName": "L2SeigManagerStorage",
  "sourceName": "contracts/L2/L2SeigManagerStorage.sol",
  "abi": [
    {
      "inputs": [],
      "name": "DEFAULT_FACTOR",
      "outputs": [
        {
          "internalType": "uint256",
          "name": "",
          "type": "uint256"
        }
      ],
      "stateMutability": "view",
      "type": "function"
    },
    {
      "inputs": [
        {
          "internalType": "address",
          "name": "",
          "type": "address"
        }
      ],
      "name": "index",
      "outputs": [
        {
          "internalType": "uint256",
          "name": "",
          "type": "uint256"
        }
      ],
      "stateMutability": "view",
      "type": "function"
    },
    {
      "inputs": [],
      "name": "l1StakedTonInL2",
      "outputs": [
        {
          "internalType": "address",
          "name": "",
          "type": "address"
        }
      ],
      "stateMutability": "view",
      "type": "function"
    },
    {
      "inputs": [
        {
          "internalType": "uint256",
          "name": "",
          "type": "uint256"
        }
      ],
      "name": "l1layer2s",
      "outputs": [
        {
          "internalType": "address",
          "name": "",
          "type": "address"
        }
      ],
      "stateMutability": "view",
      "type": "function"
    },
    {
      "inputs": [],
      "name": "l2CrossDomainMessenger",
      "outputs": [
        {
          "internalType": "address",
          "name": "",
          "type": "address"
        }
      ],
      "stateMutability": "view",
      "type": "function"
    },
    {
      "inputs": [],
      "name": "lastSnapshotId",
      "outputs": [
        {
          "internalType": "uint256",
          "name": "",
          "type": "uint256"
        }
      ],
      "stateMutability": "view",
      "type": "function"
    },
    {
      "inputs": [
        {
          "internalType": "address",
          "name": "",
          "type": "address"
        },
        {
          "internalType": "address",
          "name": "",
          "type": "address"
        }
      ],
      "name": "stakedInfo",
      "outputs": [
        {
          "internalType": "uint256",
          "name": "deposit",
          "type": "uint256"
        },
        {
          "internalType": "uint256",
          "name": "lswton",
          "type": "uint256"
        }
      ],
      "stateMutability": "view",
      "type": "function"
    },
    {
      "inputs": [
        {
          "internalType": "address",
          "name": "",
          "type": "address"
        }
      ],
      "name": "totalLswton",
      "outputs": [
        {
          "internalType": "uint256",
          "name": "",
          "type": "uint256"
        }
      ],
      "stateMutability": "view",
      "type": "function"
    }
  ],
  "bytecode": "0x608060405234801561001057600080fd5b50610255806100206000396000f3fe608060405234801561001057600080fd5b50600436106100885760003560e01c80638bf91dc41161005b5780638bf91dc4146101145780638c09d4ee14610127578063d7da2eec1461013a578063fbef005a1461018157600080fd5b80630acdadf81461008d57806318def8ef146100c057806334b0157a146100e0578063837afbc01461010b575b600080fd5b6100ad61009b3660046101da565b60046020526000908152604090205481565b6040519081526020015b60405180910390f35b6100ad6100ce3660046101da565b60036020526000908152604090205481565b6100f36100ee3660046101fc565b610194565b6040516001600160a01b0390911681526020016100b7565b6100ad60005481565b6100ad6b033b2e3c9fd0803ce800000081565b6001546100f3906001600160a01b031681565b61016c610148366004610215565b60056020908152600092835260408084209091529082529020805460019091015482565b604080519283526020830191909152016100b7565b6002546100f3906001600160a01b031681565b600781815481106101a457600080fd5b6000918252602090912001546001600160a01b0316905081565b80356001600160a01b03811681146101d557600080fd5b919050565b6000602082840312156101ec57600080fd5b6101f5826101be565b9392505050565b60006020828403121561020e57600080fd5b5035919050565b6000806040838503121561022857600080fd5b610231836101be565b915061023f602084016101be565b9050925092905056fea164736f6c6343000813000a",
  "linkReferences": {},
  "deployedLinkReferences": {}
}