{
  "_format": "hh-sol-artifact-1",
  "contractName": "ProxyCoinage",
  "sourceName": "contracts/proxy/ProxyCoinage.sol",
  "abi": [
    {
      "inputs": [],
      "stateMutability": "nonpayable",
      "type": "constructor"
    },
    {
      "anonymous": false,
      "inputs": [
        {
          "indexed": true,
          "internalType": "bytes32",
          "name": "role",
          "type": "bytes32"
        },
        {
          "indexed": true,
          "internalType": "bytes32",
          "name": "previousAdminRole",
          "type": "bytes32"
        },
        {
          "indexed": true,
          "internalType": "bytes32",
          "name": "newAdminRole",
          "type": "bytes32"
        }
      ],
      "name": "RoleAdminChanged",
      "type": "event"
    },
    {
      "anonymous": false,
      "inputs": [
        {
          "indexed": true,
          "internalType": "bytes32",
          "name": "role",
          "type": "bytes32"
        },
        {
          "indexed": true,
          "internalType": "address",
          "name": "account",
          "type": "address"
        },
        {
          "indexed": true,
          "internalType": "address",
          "name": "sender",
          "type": "address"
        }
      ],
      "name": "RoleGranted",
      "type": "event"
    },
    {
      "anonymous": false,
      "inputs": [
        {
          "indexed": true,
          "internalType": "bytes32",
          "name": "role",
          "type": "bytes32"
        },
        {
          "indexed": true,
          "internalType": "address",
          "name": "account",
          "type": "address"
        },
        {
          "indexed": true,
          "internalType": "address",
          "name": "sender",
          "type": "address"
        }
      ],
      "name": "RoleRevoked",
      "type": "event"
    },
    {
      "anonymous": false,
      "inputs": [
        {
          "indexed": true,
          "internalType": "address",
          "name": "impl",
          "type": "address"
        },
        {
          "indexed": false,
          "internalType": "bool",
          "name": "alive",
          "type": "bool"
        }
      ],
      "name": "SetAliveImplementation",
      "type": "event"
    },
    {
      "anonymous": false,
      "inputs": [
        {
          "indexed": true,
          "internalType": "bytes4",
          "name": "selector",
          "type": "bytes4"
        },
        {
          "indexed": true,
          "internalType": "address",
          "name": "impl",
          "type": "address"
        }
      ],
      "name": "SetSelectorImplementation",
      "type": "event"
    },
    {
      "anonymous": false,
      "inputs": [
        {
          "indexed": true,
          "internalType": "address",
          "name": "implementation",
          "type": "address"
        }
      ],
      "name": "Upgraded",
      "type": "event"
    },
    {
      "stateMutability": "payable",
      "type": "fallback"
    },
    {
      "inputs": [],
      "name": "DEFAULT_ADMIN_ROLE",
      "outputs": [
        {
          "internalType": "bytes32",
          "name": "",
          "type": "bytes32"
        }
      ],
      "stateMutability": "view",
      "type": "function"
    },
    {
      "inputs": [],
      "name": "MINTER_ROLE",
      "outputs": [
        {
          "internalType": "bytes32",
          "name": "",
          "type": "bytes32"
        }
      ],
      "stateMutability": "view",
      "type": "function"
    },
    {
      "inputs": [],
      "name": "OPERATOR_ROLE",
      "outputs": [
        {
          "internalType": "bytes32",
          "name": "",
          "type": "bytes32"
        }
      ],
      "stateMutability": "view",
      "type": "function"
    },
    {
      "inputs": [
        {
          "internalType": "address",
          "name": "account",
          "type": "address"
        }
      ],
      "name": "addAdmin",
      "outputs": [],
      "stateMutability": "nonpayable",
      "type": "function"
    },
    {
      "inputs": [
        {
          "internalType": "address",
          "name": "account",
          "type": "address"
        }
      ],
      "name": "addMinter",
      "outputs": [],
      "stateMutability": "nonpayable",
      "type": "function"
    },
    {
      "inputs": [
        {
          "internalType": "address",
          "name": "account",
          "type": "address"
        }
      ],
      "name": "addOperator",
      "outputs": [],
      "stateMutability": "nonpayable",
      "type": "function"
    },
    {
      "inputs": [
        {
          "internalType": "address",
          "name": "",
          "type": "address"
        }
      ],
      "name": "aliveImplementation",
      "outputs": [
        {
          "internalType": "bool",
          "name": "",
          "type": "bool"
        }
      ],
      "stateMutability": "view",
      "type": "function"
    },
    {
      "inputs": [
        {
          "internalType": "bytes32",
          "name": "role",
          "type": "bytes32"
        }
      ],
      "name": "getRoleAdmin",
      "outputs": [
        {
          "internalType": "bytes32",
          "name": "",
          "type": "bytes32"
        }
      ],
      "stateMutability": "view",
      "type": "function"
    },
    {
      "inputs": [
        {
          "internalType": "bytes4",
          "name": "_selector",
          "type": "bytes4"
        }
      ],
      "name": "getSelectorImplementation2",
      "outputs": [
        {
          "internalType": "address",
          "name": "impl",
          "type": "address"
        }
      ],
      "stateMutability": "view",
      "type": "function"
    },
    {
      "inputs": [
        {
          "internalType": "bytes32",
          "name": "role",
          "type": "bytes32"
        },
        {
          "internalType": "address",
          "name": "account",
          "type": "address"
        }
      ],
      "name": "grantRole",
      "outputs": [],
      "stateMutability": "nonpayable",
      "type": "function"
    },
    {
      "inputs": [
        {
          "internalType": "bytes32",
          "name": "role",
          "type": "bytes32"
        },
        {
          "internalType": "address",
          "name": "account",
          "type": "address"
        }
      ],
      "name": "hasRole",
      "outputs": [
        {
          "internalType": "bool",
          "name": "",
          "type": "bool"
        }
      ],
      "stateMutability": "view",
      "type": "function"
    },
    {
      "inputs": [],
      "name": "implementation",
      "outputs": [
        {
          "internalType": "address",
          "name": "",
          "type": "address"
        }
      ],
      "stateMutability": "view",
      "type": "function"
    },
    {
      "inputs": [
        {
          "internalType": "uint256",
          "name": "_index",
          "type": "uint256"
        }
      ],
      "name": "implementation2",
      "outputs": [
        {
          "internalType": "address",
          "name": "",
          "type": "address"
        }
      ],
      "stateMutability": "view",
      "type": "function"
    },
    {
      "inputs": [
        {
          "internalType": "address",
          "name": "account",
          "type": "address"
        }
      ],
      "name": "isAdmin",
      "outputs": [
        {
          "internalType": "bool",
          "name": "",
          "type": "bool"
        }
      ],
      "stateMutability": "view",
      "type": "function"
    },
    {
      "inputs": [
        {
          "internalType": "address",
          "name": "account",
          "type": "address"
        }
      ],
      "name": "isMinter",
      "outputs": [
        {
          "internalType": "bool",
          "name": "",
          "type": "bool"
        }
      ],
      "stateMutability": "view",
      "type": "function"
    },
    {
      "inputs": [
        {
          "internalType": "address",
          "name": "account",
          "type": "address"
        }
      ],
      "name": "isOperator",
      "outputs": [
        {
          "internalType": "bool",
          "name": "",
          "type": "bool"
        }
      ],
      "stateMutability": "view",
      "type": "function"
    },
    {
      "inputs": [],
      "name": "isOwner",
      "outputs": [
        {
          "internalType": "bool",
          "name": "",
          "type": "bool"
        }
      ],
      "stateMutability": "view",
      "type": "function"
    },
    {
      "inputs": [],
      "name": "pauseProxy",
      "outputs": [
        {
          "internalType": "bool",
          "name": "",
          "type": "bool"
        }
      ],
      "stateMutability": "view",
      "type": "function"
    },
    {
      "inputs": [
        {
          "internalType": "uint256",
          "name": "",
          "type": "uint256"
        }
      ],
      "name": "proxyImplementation",
      "outputs": [
        {
          "internalType": "address",
          "name": "",
          "type": "address"
        }
      ],
      "stateMutability": "view",
      "type": "function"
    },
    {
      "inputs": [
        {
          "internalType": "address",
          "name": "account",
          "type": "address"
        }
      ],
      "name": "removeAdmin",
      "outputs": [],
      "stateMutability": "nonpayable",
      "type": "function"
    },
    {
      "inputs": [
        {
          "internalType": "address",
          "name": "account",
          "type": "address"
        }
      ],
      "name": "removeMinter",
      "outputs": [],
      "stateMutability": "nonpayable",
      "type": "function"
    },
    {
      "inputs": [
        {
          "internalType": "address",
          "name": "account",
          "type": "address"
        }
      ],
      "name": "removeOperator",
      "outputs": [],
      "stateMutability": "nonpayable",
      "type": "function"
    },
    {
      "inputs": [],
      "name": "renounceMinter",
      "outputs": [],
      "stateMutability": "nonpayable",
      "type": "function"
    },
    {
      "inputs": [],
      "name": "renounceOperator",
      "outputs": [],
      "stateMutability": "nonpayable",
      "type": "function"
    },
    {
      "inputs": [],
      "name": "renounceOwnership",
      "outputs": [],
      "stateMutability": "nonpayable",
      "type": "function"
    },
    {
      "inputs": [
        {
          "internalType": "bytes32",
          "name": "role",
          "type": "bytes32"
        },
        {
          "internalType": "address",
          "name": "account",
          "type": "address"
        }
      ],
      "name": "renounceRole",
      "outputs": [],
      "stateMutability": "nonpayable",
      "type": "function"
    },
    {
      "inputs": [
        {
          "internalType": "address",
          "name": "account",
          "type": "address"
        }
      ],
      "name": "revokeMinter",
      "outputs": [],
      "stateMutability": "nonpayable",
      "type": "function"
    },
    {
      "inputs": [
        {
          "internalType": "address",
          "name": "account",
          "type": "address"
        }
      ],
      "name": "revokeOperator",
      "outputs": [],
      "stateMutability": "nonpayable",
      "type": "function"
    },
    {
      "inputs": [
        {
          "internalType": "bytes32",
          "name": "role",
          "type": "bytes32"
        },
        {
          "internalType": "address",
          "name": "account",
          "type": "address"
        }
      ],
      "name": "revokeRole",
      "outputs": [],
      "stateMutability": "nonpayable",
      "type": "function"
    },
    {
      "inputs": [
        {
          "internalType": "bytes4",
          "name": "",
          "type": "bytes4"
        }
      ],
      "name": "selectorImplementation",
      "outputs": [
        {
          "internalType": "address",
          "name": "",
          "type": "address"
        }
      ],
      "stateMutability": "view",
      "type": "function"
    },
    {
      "inputs": [
        {
          "internalType": "address",
          "name": "newImplementation",
          "type": "address"
        },
        {
          "internalType": "bool",
          "name": "_alive",
          "type": "bool"
        }
      ],
      "name": "setAliveImplementation2",
      "outputs": [],
      "stateMutability": "nonpayable",
      "type": "function"
    },
    {
      "inputs": [
        {
          "internalType": "address",
          "name": "newImplementation",
          "type": "address"
        },
        {
          "internalType": "uint256",
          "name": "_index",
          "type": "uint256"
        },
        {
          "internalType": "bool",
          "name": "_alive",
          "type": "bool"
        }
      ],
      "name": "setImplementation2",
      "outputs": [],
      "stateMutability": "nonpayable",
      "type": "function"
    },
    {
      "inputs": [
        {
          "internalType": "bool",
          "name": "_pause",
          "type": "bool"
        }
      ],
      "name": "setProxyPause",
      "outputs": [],
      "stateMutability": "nonpayable",
      "type": "function"
    },
    {
      "inputs": [
        {
          "internalType": "bytes4[]",
          "name": "_selectors",
          "type": "bytes4[]"
        },
        {
          "internalType": "address",
          "name": "_imp",
          "type": "address"
        }
      ],
      "name": "setSelectorImplementations2",
      "outputs": [],
      "stateMutability": "nonpayable",
      "type": "function"
    },
    {
      "inputs": [
        {
          "internalType": "bytes4",
          "name": "interfaceId",
          "type": "bytes4"
        }
      ],
      "name": "supportsInterface",
      "outputs": [
        {
          "internalType": "bool",
          "name": "",
          "type": "bool"
        }
      ],
      "stateMutability": "view",
      "type": "function"
    },
    {
      "inputs": [
        {
          "internalType": "address",
          "name": "newAdmin",
          "type": "address"
        }
      ],
      "name": "transferAdmin",
      "outputs": [],
      "stateMutability": "nonpayable",
      "type": "function"
    },
    {
      "inputs": [
        {
          "internalType": "address",
          "name": "newAdmin",
          "type": "address"
        }
      ],
      "name": "transferOwnership",
      "outputs": [],
      "stateMutability": "nonpayable",
      "type": "function"
    },
    {
      "inputs": [
        {
          "internalType": "address",
          "name": "impl",
          "type": "address"
        }
      ],
      "name": "upgradeTo",
      "outputs": [],
      "stateMutability": "nonpayable",
      "type": "function"
    },
    {
      "stateMutability": "payable",
      "type": "receive"
    }
  ],
  "bytecode": "0x60806040523480156200001157600080fd5b506200001f6000336200007f565b6200004c7ff0887ba65ee2024ea881d91b74c2450ef19e1557f03bed3ea9f16b037cbe2dc960006200008f565b620000797f523a704056dcd17bcf83bed8b68c59416dac1119be77755efe3bde0a64e46e0c60006200008f565b6200017e565b6200008b8282620000da565b5050565b600082815260056020526040808220600101805490849055905190918391839186917fbd79b86ffe0ab8e8776151514217cd7cacd52c909f66475c3af44e129f0b00ff9190a4505050565b60008281526005602090815260408083206001600160a01b038516845290915290205460ff166200008b5760008281526005602090815260408083206001600160a01b03851684529091529020805460ff191660011790556200013a3390565b6001600160a01b0316816001600160a01b0316837f2f8788117e7eff1d82e926ec794901d17c78024a50270940304540a733656f0d60405160405180910390a45050565b6119b0806200018e6000396000f3fe6080604052600436106102295760003560e01c80637cb00d2511610123578063a217fddf116100ab578063d53913931161006f578063d5391393146106fa578063d547741f1461071c578063f2fde38b1461073c578063f5b541a61461075c578063fad8b32a1461077e57610272565b8063a217fddf1461064f578063aa271e1a14610664578063ac8a584a14610684578063b911135f146106a4578063cfbd4885146106da57610272565b80638f32d59b116100f25780638f32d59b146105c557806391d14854146105da578063983b2d56146105fa578063986502751461061a5780639870d7fe1461062f57610272565b80637cb00d25146105455780637cd5f663146105655780638b8f4a65146105855780638d4fdb40146105a557610272565b80634a5df50f116101b157806363a8fd891161017557806363a8fd89146104b65780636d70f7ae146104d057806370480275146104f0578063715018a61461051057806375829def1461052557610272565b80634a5df50f146103c457806350d2a276146103e4578063550d01a3146104325780635c60da1b146104625780635cc797d81461049657610272565b80632ab6f8db116101f85780632ab6f8db1461032f5780632f2ff15d146103445780633092afd51461036457806336568abe146103845780633659cfe6146103a457610272565b806301ffc9a71461027c5780631785f53c146102b1578063248a9ca3146102d157806324d7806c1461030f57610272565b366102725760405162461bcd60e51b815260206004820152601460248201527331b0b73737ba103932b1b2b4bb329022ba3432b960611b60448201526064015b60405180910390fd5b61027a61079e565b005b34801561028857600080fd5b5061029c6102973660046115e6565b610847565b60405190151581526020015b60405180910390f35b3480156102bd57600080fd5b5061027a6102cc36600461162c565b610858565b3480156102dd57600080fd5b506103016102ec366004611647565b60009081526005602052604090206001015490565b6040519081526020016102a8565b34801561031b57600080fd5b5061029c61032a36600461162c565b61088b565b34801561033b57600080fd5b5061027a610897565b34801561035057600080fd5b5061027a61035f366004611660565b6108b1565b34801561037057600080fd5b5061027a61037f36600461162c565b6108d6565b34801561039057600080fd5b5061027a61039f366004611660565b61090f565b3480156103b057600080fd5b5061027a6103bf36600461162c565b61098d565b3480156103d057600080fd5b5061027a6103df36600461168c565b610a9b565b3480156103f057600080fd5b5061041a6103ff3660046115e6565b6003602052600090815260409020546001600160a01b031681565b6040516001600160a01b0390911681526020016102a8565b34801561043e57600080fd5b5061029c61044d36600461162c565b60026020526000908152604090205460ff1681565b34801561046e57600080fd5b50600080526001602052600080516020611944833981519152546001600160a01b031661041a565b3480156104a257600080fd5b5061027a6104b1366004611720565b610d02565b3480156104c257600080fd5b5060005461029c9060ff1681565b3480156104dc57600080fd5b5061029c6104eb36600461162c565b610d31565b3480156104fc57600080fd5b5061027a61050b36600461162c565b610d4b565b34801561051c57600080fd5b5061027a610d7b565b34801561053157600080fd5b5061027a61054036600461162c565b610dab565b34801561055157600080fd5b5061027a61056036600461174a565b610e8d565b34801561057157600080fd5b5061027a610580366004611765565b610ec5565b34801561059157600080fd5b5061041a6105a0366004611647565b610ef5565b3480156105b157600080fd5b5061041a6105c03660046115e6565b610f12565b3480156105d157600080fd5b5061029c610fb1565b3480156105e657600080fd5b5061029c6105f5366004611660565b610fb9565b34801561060657600080fd5b5061027a61061536600461162c565b610fe4565b34801561062657600080fd5b5061027a611021565b34801561063b57600080fd5b5061027a61064a36600461162c565b611039565b34801561065b57600080fd5b50610301600081565b34801561067057600080fd5b5061029c61067f36600461162c565b611076565b34801561069057600080fd5b5061027a61069f36600461162c565b611090565b3480156106b057600080fd5b5061041a6106bf366004611647565b6001602052600090815260409020546001600160a01b031681565b3480156106e657600080fd5b5061027a6106f536600461162c565b6110cd565b34801561070657600080fd5b5061030160008051602061196483398151915281565b34801561072857600080fd5b5061027a610737366004611660565b611106565b34801561074857600080fd5b5061027a61075736600461162c565b61112b565b34801561076857600080fd5b5061030160008051602061198483398151915281565b34801561078a57600080fd5b5061027a61079936600461162c565b611159565b60006107b56000356001600160e01b031916610f12565b90506001600160a01b038116158015906107d2575060005460ff16155b61081e5760405162461bcd60e51b815260206004820152601d60248201527f50726f78793a20696d706c204f522070726f78792069732066616c73650000006044820152606401610269565b3660008037600080366000845af43d6000803e80801561083d573d6000f35b3d6000fd5b505050565b600061085282611196565b92915050565b6108613361088b565b61087d5760405162461bcd60e51b815260040161026990611798565b61088860008261090f565b50565b60006108528183610fb9565b6108af6000805160206119848339815191523361090f565b565b6000828152600560205260409020600101546108cc816111bb565b61084283836111c5565b6108df3361088b565b6108fb5760405162461bcd60e51b815260040161026990611798565b610888600080516020611964833981519152825b6001600160a01b038116331461097f5760405162461bcd60e51b815260206004820152602f60248201527f416363657373436f6e74726f6c3a2063616e206f6e6c792072656e6f756e636560448201526e103937b632b9903337b91039b2b63360891b6064820152608401610269565b610989828261124b565b5050565b6109963361088b565b6109b25760405162461bcd60e51b815260040161026990611798565b6001600160a01b0381166109f85760405162461bcd60e51b815260206004820152600d60248201526c696e707574206973207a65726f60981b6044820152606401610269565b600080526001602052600080516020611944833981519152546001600160a01b03828116911603610a575760405162461bcd60e51b815260206004820152600960248201526839b0b6b29030b2323960b91b6044820152606401610269565b610a6481600060016112b2565b6040516001600160a01b038216907fbc7cd75a20ee27fd9adebab32041f755214dbc6bffa90cc0225b39da2e5c2d3b90600090a250565b610aa43361088b565b610ac05760405162461bcd60e51b815260040161026990611798565b81610b0d5760405162461bcd60e51b815260206004820181905260248201527f50726f78793a205f73656c6563746f727327732073697a65206973207a65726f6044820152606401610269565b6001600160a01b03811660009081526002602052604090205460ff16610b755760405162461bcd60e51b815260206004820152601860248201527f50726f78793a205f696d70206973206e6f7420616c69766500000000000000006044820152606401610269565b60005b82811015610cf757816001600160a01b031660036000868685818110610ba057610ba06117db565b9050602002016020810190610bb591906115e6565b6001600160e01b03191681526020810191909152604001600020546001600160a01b031603610c265760405162461bcd60e51b815260206004820152601d60248201527f4c69717569646974795661756c7450726f78793a2073616d6520696d700000006044820152606401610269565b8160036000868685818110610c3d57610c3d6117db565b9050602002016020810190610c5291906115e6565b6001600160e01b0319168152602081019190915260400160002080546001600160a01b0319166001600160a01b039283161790558216848483818110610c9a57610c9a6117db565b9050602002016020810190610caf91906115e6565b6001600160e01b0319167f14ebc1c32aa68f4d766e89f3e546cee249f7df25183fc10ab1568d91c2ce9b7b60405160405180910390a380610cef81611807565b915050610b78565b50505050565b905090565b610d0b3361088b565b610d275760405162461bcd60e51b815260040161026990611798565b610989828261133d565b600061085260008051602061198483398151915283610fb9565b610d543361088b565b610d705760405162461bcd60e51b815260040161026990611798565b6108886000826108b1565b610d843361088b565b610da05760405162461bcd60e51b815260040161026990611798565b6108af60003361090f565b610db43361088b565b610dd05760405162461bcd60e51b815260040161026990611798565b6001600160a01b038116610e265760405162461bcd60e51b815260206004820152601860248201527f41636365737369626c653a207a65726f206164647265737300000000000000006044820152606401610269565b6001600160a01b0381163303610e775760405162461bcd60e51b815260206004820152601660248201527520b1b1b2b9b9b4b136329d1039b0b6b29030b236b4b760511b6044820152606401610269565b610e826000826108b1565b61088860003361090f565b610e963361088b565b610eb25760405162461bcd60e51b815260040161026990611798565b6000805460ff1916911515919091179055565b610ece3361088b565b610eea5760405162461bcd60e51b815260040161026990611798565b6108428383836112b2565b6000818152600160205260408120546001600160a01b0316610852565b6001600160e01b031981166000908152600360205260408120546001600160a01b031680610f6257505060008052506001602052600080516020611944833981519152546001600160a01b031690565b6001600160a01b03811660009081526002602052604090205460ff1615610f895792915050565b505060008052506001602052600080516020611944833981519152546001600160a01b031690565b6000610cfd81335b60009182526005602090815260408084206001600160a01b0393909316845291905290205460ff1690565b610fed3361088b565b6110095760405162461bcd60e51b815260040161026990611798565b610888600080516020611964833981519152826108b1565b6108af6000805160206119648339815191523361090f565b6110423361088b565b61105e5760405162461bcd60e51b815260040161026990611798565b610888600080516020611984833981519152826108b1565b600061085260008051602061196483398151915283610fb9565b6110993361088b565b6110b55760405162461bcd60e51b815260040161026990611798565b6108886000805160206119848339815191528261090f565b6110d63361088b565b6110f25760405162461bcd60e51b815260040161026990611798565b610888600080516020611964833981519152825b600082815260056020526040902060010154611121816111bb565b610842838361124b565b6111343361088b565b6111505760405162461bcd60e51b815260040161026990611798565b61088881610dab565b6111623361088b565b61117e5760405162461bcd60e51b815260040161026990611798565b61088860008051602061198483398151915282611106565b60006001600160e01b03198216637965db0b60e01b148061085257506108528261139c565b61088881336113d8565b6111cf8282610fb9565b6109895760008281526005602090815260408083206001600160a01b03851684529091529020805460ff191660011790556112073390565b6001600160a01b0316816001600160a01b0316837f2f8788117e7eff1d82e926ec794901d17c78024a50270940304540a733656f0d60405160405180910390a45050565b6112558282610fb9565b156109895760008281526005602090815260408083206001600160a01b0385168085529252808320805460ff1916905551339285917ff6391f5c32d9c69d2a47ea670b442974b53935d1edc7fd64eb21e047a839171b9190a45050565b6001600160a01b0383163b6113095760405162461bcd60e51b815260206004820152601b60248201527f50726f78793a206e6f7420636f6e7472616374206164647265737300000000006044820152606401610269565b801561133757600082815260016020526040902080546001600160a01b0319166001600160a01b0385161790555b61084283825b6001600160a01b038216600081815260026020908152604091829020805460ff191685151590811790915591519182527f72558d9bfba4210f9ef095c782589484151f6d90f7a81bb3cb9b33efc695d324910160405180910390a25050565b60006301ffc9a760e01b6001600160e01b0319831614806108525750506001600160e01b03191660009081526004602052604090205460ff1690565b6113e28282610fb9565b610989576113ef81611431565b6113fa836020611443565b60405160200161140b929190611844565b60408051601f198184030181529082905262461bcd60e51b8252610269916004016118b9565b60606108526001600160a01b03831660145b606060006114528360026118ec565b61145d906002611903565b67ffffffffffffffff81111561147557611475611916565b6040519080825280601f01601f19166020018201604052801561149f576020820181803683370190505b509050600360fc1b816000815181106114ba576114ba6117db565b60200101906001600160f81b031916908160001a905350600f60fb1b816001815181106114e9576114e96117db565b60200101906001600160f81b031916908160001a905350600061150d8460026118ec565b611518906001611903565b90505b6001811115611590576f181899199a1a9b1b9c1cb0b131b232b360811b85600f166010811061154c5761154c6117db565b1a60f81b828281518110611562576115626117db565b60200101906001600160f81b031916908160001a90535060049490941c936115898161192c565b905061151b565b5083156115df5760405162461bcd60e51b815260206004820181905260248201527f537472696e67733a20686578206c656e67746820696e73756666696369656e746044820152606401610269565b9392505050565b6000602082840312156115f857600080fd5b81356001600160e01b0319811681146115df57600080fd5b80356001600160a01b038116811461162757600080fd5b919050565b60006020828403121561163e57600080fd5b6115df82611610565b60006020828403121561165957600080fd5b5035919050565b6000806040838503121561167357600080fd5b8235915061168360208401611610565b90509250929050565b6000806000604084860312156116a157600080fd5b833567ffffffffffffffff808211156116b957600080fd5b818601915086601f8301126116cd57600080fd5b8135818111156116dc57600080fd5b8760208260051b85010111156116f157600080fd5b6020928301955093506117079186019050611610565b90509250925092565b8035801515811461162757600080fd5b6000806040838503121561173357600080fd5b61173c83611610565b915061168360208401611710565b60006020828403121561175c57600080fd5b6115df82611710565b60008060006060848603121561177a57600080fd5b61178384611610565b92506020840135915061170760408501611710565b60208082526023908201527f41757468436f6e74726f6c3a2043616c6c6572206973206e6f7420616e20616460408201526236b4b760e91b606082015260800190565b634e487b7160e01b600052603260045260246000fd5b634e487b7160e01b600052601160045260246000fd5b600060018201611819576118196117f1565b5060010190565b60005b8381101561183b578181015183820152602001611823565b50506000910152565b7f416363657373436f6e74726f6c3a206163636f756e742000000000000000000081526000835161187c816017850160208801611820565b7001034b99036b4b9b9b4b733903937b6329607d1b60179184019182015283516118ad816028840160208801611820565b01602801949350505050565b60208152600082518060208401526118d8816040850160208701611820565b601f01601f19169190910160400192915050565b8082028115828204841417610852576108526117f1565b80820180821115610852576108526117f1565b634e487b7160e01b600052604160045260246000fd5b60008161193b5761193b6117f1565b50600019019056fea6eef7e35abe7026729641147f7915573c7e97b47efa546f5f6e3230263bcb49f0887ba65ee2024ea881d91b74c2450ef19e1557f03bed3ea9f16b037cbe2dc9523a704056dcd17bcf83bed8b68c59416dac1119be77755efe3bde0a64e46e0ca164736f6c6343000813000a",
  "linkReferences": {},
  "deployedLinkReferences": {}
}