{
  "_format": "hh-sol-artifact-1",
  "contractName": "OperatorFactory",
  "sourceName": "contracts/layer2/factory/OperatorFactory.sol",
  "abi": [
    {
      "inputs": [
        {
          "internalType": "address",
          "name": "_operatorImplementation",
          "type": "address"
        }
      ],
      "stateMutability": "nonpayable",
      "type": "constructor"
    },
    {
      "inputs": [],
      "name": "AlreadySetError",
      "type": "error"
    },
    {
      "inputs": [
        {
          "internalType": "uint256",
          "name": "x",
          "type": "uint256"
        }
      ],
      "name": "CreateError",
      "type": "error"
    },
    {
      "inputs": [],
      "name": "SameVariableError",
      "type": "error"
    },
    {
      "inputs": [],
      "name": "ZeroAddressError",
      "type": "error"
    },
    {
      "anonymous": false,
      "inputs": [
        {
          "indexed": false,
          "internalType": "address",
          "name": "newOperatorImplementation",
          "type": "address"
        }
      ],
      "name": "ChangedOperatorImplementaion",
      "type": "event"
    },
    {
      "anonymous": false,
      "inputs": [
        {
          "indexed": false,
          "internalType": "address",
          "name": "systemConfig",
          "type": "address"
        },
        {
          "indexed": false,
          "internalType": "address",
          "name": "owner",
          "type": "address"
        },
        {
          "indexed": false,
          "internalType": "address",
          "name": "manager",
          "type": "address"
        },
        {
          "indexed": false,
          "internalType": "address",
          "name": "operator",
          "type": "address"
        }
      ],
      "name": "CreatedOperator",
      "type": "event"
    },
    {
      "anonymous": false,
      "inputs": [
        {
          "indexed": true,
          "internalType": "address",
          "name": "previousOwner",
          "type": "address"
        },
        {
          "indexed": true,
          "internalType": "address",
          "name": "newOwner",
          "type": "address"
        }
      ],
      "name": "OwnershipTransferred",
      "type": "event"
    },
    {
      "anonymous": false,
      "inputs": [
        {
          "indexed": false,
          "internalType": "address",
          "name": "depositManager",
          "type": "address"
        },
        {
          "indexed": false,
          "internalType": "address",
          "name": "ton",
          "type": "address"
        },
        {
          "indexed": false,
          "internalType": "address",
          "name": "wton",
          "type": "address"
        },
        {
          "indexed": false,
          "internalType": "address",
          "name": "layer2Manager",
          "type": "address"
        }
      ],
      "name": "SetAddresses",
      "type": "event"
    },
    {
      "inputs": [
        {
          "internalType": "address",
          "name": "newOperatorImplementation",
          "type": "address"
        }
      ],
      "name": "changeOperatorImplementaion",
      "outputs": [],
      "stateMutability": "nonpayable",
      "type": "function"
    },
    {
      "inputs": [
        {
          "internalType": "address",
          "name": "systemConfig",
          "type": "address"
        }
      ],
      "name": "createOperator",
      "outputs": [
        {
          "internalType": "address",
          "name": "operator",
          "type": "address"
        }
      ],
      "stateMutability": "nonpayable",
      "type": "function"
    },
    {
      "inputs": [],
      "name": "depositManager",
      "outputs": [
        {
          "internalType": "address",
          "name": "",
          "type": "address"
        }
      ],
      "stateMutability": "view",
      "type": "function"
    },
    {
      "inputs": [
        {
          "internalType": "address",
          "name": "systemConfig",
          "type": "address"
        }
      ],
      "name": "getAddress",
      "outputs": [
        {
          "internalType": "address",
          "name": "",
          "type": "address"
        }
      ],
      "stateMutability": "view",
      "type": "function"
    },
    {
      "inputs": [],
      "name": "layer2Manager",
      "outputs": [
        {
          "internalType": "address",
          "name": "",
          "type": "address"
        }
      ],
      "stateMutability": "view",
      "type": "function"
    },
    {
      "inputs": [],
      "name": "operatorImplementation",
      "outputs": [
        {
          "internalType": "address",
          "name": "",
          "type": "address"
        }
      ],
      "stateMutability": "view",
      "type": "function"
    },
    {
      "inputs": [],
      "name": "owner",
      "outputs": [
        {
          "internalType": "address",
          "name": "",
          "type": "address"
        }
      ],
      "stateMutability": "view",
      "type": "function"
    },
    {
      "inputs": [],
      "name": "renounceOwnership",
      "outputs": [],
      "stateMutability": "nonpayable",
      "type": "function"
    },
    {
      "inputs": [
        {
          "internalType": "address",
          "name": "_depositManager",
          "type": "address"
        },
        {
          "internalType": "address",
          "name": "_ton",
          "type": "address"
        },
        {
          "internalType": "address",
          "name": "_wton",
          "type": "address"
        },
        {
          "internalType": "address",
          "name": "_layer2Manager",
          "type": "address"
        }
      ],
      "name": "setAddresses",
      "outputs": [],
      "stateMutability": "nonpayable",
      "type": "function"
    },
    {
      "inputs": [],
      "name": "ton",
      "outputs": [
        {
          "internalType": "address",
          "name": "",
          "type": "address"
        }
      ],
      "stateMutability": "view",
      "type": "function"
    },
    {
      "inputs": [
        {
          "internalType": "address",
          "name": "newOwner",
          "type": "address"
        }
      ],
      "name": "transferOwnership",
      "outputs": [],
      "stateMutability": "nonpayable",
      "type": "function"
    },
    {
      "inputs": [],
      "name": "wton",
      "outputs": [
        {
          "internalType": "address",
          "name": "",
          "type": "address"
        }
      ],
      "stateMutability": "view",
      "type": "function"
    }
  ],
  "bytecode": "0x6080346100a757601f6119f038819003918201601f19168301916001600160401b038311848410176100ac578084926020946040528339810103126100a757516001600160a01b0390818116908190036100a75760005460018060a01b0319903382821617600055604051933391167f8be0079c531659141344cd1fd0a4f28419497f9722a3daafe3b4186f6b6457e0600080a3600154161760015561192d90816100c38239f35b600080fd5b634e487b7160e01b600052604160045260246000fdfe608060408181526004908136101561001657600080fd5b600092833560e01c90816316b5d5bd146108d1575080634a945f8d146106e35780636c7ac9d8146106ba578063715018a6146106605780638d62d949146106385780638da5cb5b14610610578063ae22c57d146105d9578063bedabd0914610540578063c3b37ad414610517578063cc48b947146104ee578063f2fde38b1461042b5763f6ae6f13146100a857600080fd5b3461031857602092836003193601126102f3576100c36108f6565b6005546001600160a01b039081163303610414576100e0826109e0565b3b6103df578351638da5cb5b60e01b815282821693909187838881885afa9283156102f65782936103a3575b5080831696871561038c57818354169587519061073f908183019183831067ffffffffffffffff841117610379579280928d928895610aa38439815203019082f5801561036f578216978260015416893b15610300578851631b2ce7f360e11b8152838101919091528481602481838e5af180156103525761035c575b50883b1561033a578751635d07498560e11b81528281018290528481602481838e5af180156103525790859161033e575b5050883b1561033a57875190634c386bff60e11b8252828201528381602481838d5af1801561031c57908491610326575b5050873b1561031857865163f2fde38b60e01b81528181018790528381602481838d5af1801561031c57908491610304575b5050816002541690826003541692815416893b15610300578851634a945f8d60e01b8152339281019283526001600160a01b039384166020840152938316604083015290911660608201528290829081906080010381838b5af180156102f65790879392916102d9575b505084516001600160a01b0393841681529383166020850152821660408401521660608201527f499d6fef6d9b41da2877866efce1c4387a2716a14d09aa3bf969805d0fc319dd90608090a151908152f35b819293506102e690610969565b6102f35790818692610287565b80fd5b86513d84823e3d90fd5b8480fd5b61030d90610969565b61031857823861021d565b8280fd5b88513d86823e3d90fd5b61032f90610969565b6103185782386101eb565b8380fd5b61034790610969565b61033a5783386101ba565b89513d87823e3d90fd5b61036890949194610969565b9238610189565b87513d85823e3d90fd5b634e487b7160e01b875260418552602487fd5b602490600288519163883d25cf60e01b8352820152fd5b9092508781813d83116103d8575b6103bb8183610993565b810103126103d4575182811681036103d457913861010c565b5080fd5b503d6103b1565b835162461bcd60e51b8152808601879052600f60248201526e185b1c9958591e4818dc99585d1959608a1b6044820152606490fd5b835163883d25cf60e01b8152600181870152602490fd5b509034610318576020366003190112610318576104466108f6565b9061044f610911565b6001600160a01b0391821692831561049c57505082546001600160a01b0319811683178455167f8be0079c531659141344cd1fd0a4f28419497f9722a3daafe3b4186f6b6457e08380a380f35b906020608492519162461bcd60e51b8352820152602660248201527f4f776e61626c653a206e6577206f776e657220697320746865207a65726f206160448201526564647265737360d01b6064820152fd5b8382346103d457816003193601126103d45760035490516001600160a01b039091168152602090f35b8382346103d457816003193601126103d45760015490516001600160a01b039091168152602090f35b50346103185760203660031901126103185761055a6108f6565b610562610911565b6001600160a01b039081169283156105cb5783600154928316146105bd57506001600160a01b0319168217600155519081527f9ed614b997841c46ff307bf7a3067e8dac96ba3e693ae98ef9cdb081f069fdaa90602090a180f35b8251632c629ea960e11b8152fd5b8251633efa09af60e01b8152fd5b8382346103d45760203660031901126103d4576020906105ff6105fa6108f6565b6109e0565b90516001600160a01b039091168152f35b8382346103d457816003193601126103d457905490516001600160a01b039091168152602090f35b5090346103185782600319360112610318575490516001600160a01b03909116815260209150f35b83346102f357806003193601126102f357610679610911565b80546001600160a01b03198116825581906001600160a01b03167f8be0079c531659141344cd1fd0a4f28419497f9722a3daafe3b4186f6b6457e08280a380f35b8382346103d457816003193601126103d45760025490516001600160a01b039091168152602090f35b508290346103d45760803660031901126103d4576106ff6108f6565b602435916001600160a01b0390818416908185036108cd5760443591838316938484036108c95760643594818616928387036108c55761073d610911565b828816801561088b57811561085c57821561082c5784156107f3576002549384166107e3576001600160a01b0319938416176002556003805484169190911790558954821617909855600580549098161790965594516001600160a01b03928316815292821660208401529381166040830152929092166060830152907faaa9fbd44f151f33e813cad14b3227af4d0b1ec931d5dd2bc2c7e1f8925043a990608090a180f35b8551636ac1d85960e11b81528c90fd5b855162461bcd60e51b81526020818e015260136024820152723d32b937902fb630bcb2b91926b0b730b3b2b960691b6044820152606490fd5b855162461bcd60e51b81526020818e0152600a6024820152693d32b937902fbbba37b760b11b6044820152606490fd5b855162461bcd60e51b81526020818e015260096024820152683d32b937902fba37b760b91b6044820152606490fd5b855162461bcd60e51b81526020818e015260146024820152733d32b937902fb232b837b9b4ba26b0b730b3b2b960611b6044820152606490fd5b8980fd5b8780fd5b8580fd5b8490346103d457816003193601126103d4576005546001600160a01b03168152602090f35b600435906001600160a01b038216820361090c57565b600080fd5b6000546001600160a01b0316330361092557565b606460405162461bcd60e51b815260206004820152602060248201527f4f776e61626c653a2063616c6c6572206973206e6f7420746865206f776e65726044820152fd5b67ffffffffffffffff811161097d57604052565b634e487b7160e01b600052604160045260246000fd5b90601f8019910116810190811067ffffffffffffffff82111761097d57604052565b9081519160005b8381106109cd575050016000815290565b80602080928401015181850152016109bc565b61073f60408051916109f56020820184610993565b8083526111e2602084013980519160018060a01b0380941660208401526020835281830167ffffffffffffffff938082108583111761097d57610a5e90828552610a4c610a466060830180966109b5565b826109b5565b03605f1981018352603f190182610993565b51902091815191602083019360ff60f81b85523060601b60218501526000603585015260558401526055835260808301918383109083111761097d5752519020169056fe6080346100a757601f61073f38819003918201601f19168301916001600160401b038311848410176100ac578084926020946040528339810103126100a757516001600160a01b0390818116908190036100a75760005460018060a01b0319903382821617600055604051933391167f8be0079c531659141344cd1fd0a4f28419497f9722a3daafe3b4186f6b6457e0600080a3600154161760015561067c90816100c38239f35b600080fd5b634e487b7160e01b600052604160045260246000fdfe60806040526004361015610018575b366103b6576103b6565b6000803560e01c90816333d7e2bd1461008b575080633659cfe6146100865780634f1ef286146100815780635c60da1b1461007c578063715018a6146100775780638da5cb5b146100725763f2fde38b0361000e5761029b565b610272565b610217565b6101cf565b610157565b6100cf565b346100b157806003193601126100b1576001546001600160a01b03166080908152602090f35b80fd5b600435906001600160a01b03821682036100ca57565b600080fd5b346100ca5760203660031901126100ca576100f86100eb6100b4565b6100f361035e565b610402565b005b634e487b7160e01b600052604160045260246000fd5b6040519190601f01601f1916820167ffffffffffffffff81118382101761013657604052565b6100fa565b67ffffffffffffffff811161013657601f01601f191660200190565b346100ca5760403660031901126100ca576101706100b4565b6024359067ffffffffffffffff82116100ca57366023830112156100ca578160040135906101a56101a08361013b565b610110565b9180835236602482860101116100ca5760208160009260246100f8970183870137840101526104c9565b346100ca5760003660031901126100ca577f360894a13ba1a3210667c828492db98dca3e2076cc3735a920a3ca505d382bbc546040516001600160a01b039091168152602090f35b346100ca576000806003193601126100b15761023161035e565b80546001600160a01b03198116825581906001600160a01b03167f8be0079c531659141344cd1fd0a4f28419497f9722a3daafe3b4186f6b6457e08280a380f35b346100ca5760003660031901126100ca576000546040516001600160a01b039091168152602090f35b346100ca5760203660031901126100ca576102b46100b4565b6102bc61035e565b6001600160a01b03908116801561030a57600080546001600160a01b03198116831782559092167f8be0079c531659141344cd1fd0a4f28419497f9722a3daafe3b4186f6b6457e08380a380f35b60405162461bcd60e51b815260206004820152602660248201527f4f776e61626c653a206e6577206f776e657220697320746865207a65726f206160448201526564647265737360d01b6064820152608490fd5b6000546001600160a01b0316330361037257565b606460405162461bcd60e51b815260206004820152602060248201527f4f776e61626c653a2063616c6c6572206973206e6f7420746865206f776e65726044820152fd5b7f360894a13ba1a3210667c828492db98dca3e2076cc3735a920a3ca505d382bbc54600090819081906001600160a01b0316368280378136915af43d82803e156103fe573d90f35b3d90fd5b803b1561046e577f360894a13ba1a3210667c828492db98dca3e2076cc3735a920a3ca505d382bbc80546001600160a01b0319166001600160a01b039290921691821790557fbc7cd75a20ee27fd9adebab32041f755214dbc6bffa90cc0225b39da2e5c2d3b600080a2565b60405162461bcd60e51b815260206004820152602d60248201527f455243313936373a206e657720696d706c656d656e746174696f6e206973206e60448201526c1bdd08184818dbdb9d1c9858dd609a1b6064820152608490fd5b6104d161035e565b6104da81610402565b815115801590610586575b6104ed575050565b60405190606082019282841067ffffffffffffffff851117610136576000809161057b95604052602785527f416464726573733a206c6f772d6c6576656c2064656c65676174652063616c6c6020860152660819985a5b195960ca1b6040860152602081519101845af43d1561057e573d9161056b6101a08461013b565b9283523d6000602085013e6105da565b50565b6060916105da565b5060006104e5565b1561059557565b60405162461bcd60e51b815260206004820152601d60248201527f416464726573733a2063616c6c20746f206e6f6e2d636f6e74726163740000006044820152606490fd5b919290156105fd57508151156105ee575090565b6105fa903b151561058e565b90565b8251909150156106105750805190602001fd5b6040519062461bcd60e51b82528160208060048301528251908160248401526000935b828510610656575050604492506000838284010152601f80199101168101030190fd5b848101820151868601604401529381019385935061063356fea164736f6c6343000812000a6080346100a757601f61073f38819003918201601f19168301916001600160401b038311848410176100ac578084926020946040528339810103126100a757516001600160a01b0390818116908190036100a75760005460018060a01b0319903382821617600055604051933391167f8be0079c531659141344cd1fd0a4f28419497f9722a3daafe3b4186f6b6457e0600080a3600154161760015561067c90816100c38239f35b600080fd5b634e487b7160e01b600052604160045260246000fdfe60806040526004361015610018575b366103b6576103b6565b6000803560e01c90816333d7e2bd1461008b575080633659cfe6146100865780634f1ef286146100815780635c60da1b1461007c578063715018a6146100775780638da5cb5b146100725763f2fde38b0361000e5761029b565b610272565b610217565b6101cf565b610157565b6100cf565b346100b157806003193601126100b1576001546001600160a01b03166080908152602090f35b80fd5b600435906001600160a01b03821682036100ca57565b600080fd5b346100ca5760203660031901126100ca576100f86100eb6100b4565b6100f361035e565b610402565b005b634e487b7160e01b600052604160045260246000fd5b6040519190601f01601f1916820167ffffffffffffffff81118382101761013657604052565b6100fa565b67ffffffffffffffff811161013657601f01601f191660200190565b346100ca5760403660031901126100ca576101706100b4565b6024359067ffffffffffffffff82116100ca57366023830112156100ca578160040135906101a56101a08361013b565b610110565b9180835236602482860101116100ca5760208160009260246100f8970183870137840101526104c9565b346100ca5760003660031901126100ca577f360894a13ba1a3210667c828492db98dca3e2076cc3735a920a3ca505d382bbc546040516001600160a01b039091168152602090f35b346100ca576000806003193601126100b15761023161035e565b80546001600160a01b03198116825581906001600160a01b03167f8be0079c531659141344cd1fd0a4f28419497f9722a3daafe3b4186f6b6457e08280a380f35b346100ca5760003660031901126100ca576000546040516001600160a01b039091168152602090f35b346100ca5760203660031901126100ca576102b46100b4565b6102bc61035e565b6001600160a01b03908116801561030a57600080546001600160a01b03198116831782559092167f8be0079c531659141344cd1fd0a4f28419497f9722a3daafe3b4186f6b6457e08380a380f35b60405162461bcd60e51b815260206004820152602660248201527f4f776e61626c653a206e6577206f776e657220697320746865207a65726f206160448201526564647265737360d01b6064820152608490fd5b6000546001600160a01b0316330361037257565b606460405162461bcd60e51b815260206004820152602060248201527f4f776e61626c653a2063616c6c6572206973206e6f7420746865206f776e65726044820152fd5b7f360894a13ba1a3210667c828492db98dca3e2076cc3735a920a3ca505d382bbc54600090819081906001600160a01b0316368280378136915af43d82803e156103fe573d90f35b3d90fd5b803b1561046e577f360894a13ba1a3210667c828492db98dca3e2076cc3735a920a3ca505d382bbc80546001600160a01b0319166001600160a01b039290921691821790557fbc7cd75a20ee27fd9adebab32041f755214dbc6bffa90cc0225b39da2e5c2d3b600080a2565b60405162461bcd60e51b815260206004820152602d60248201527f455243313936373a206e657720696d706c656d656e746174696f6e206973206e60448201526c1bdd08184818dbdb9d1c9858dd609a1b6064820152608490fd5b6104d161035e565b6104da81610402565b815115801590610586575b6104ed575050565b60405190606082019282841067ffffffffffffffff851117610136576000809161057b95604052602785527f416464726573733a206c6f772d6c6576656c2064656c65676174652063616c6c6020860152660819985a5b195960ca1b6040860152602081519101845af43d1561057e573d9161056b6101a08461013b565b9283523d6000602085013e6105da565b50565b6060916105da565b5060006104e5565b1561059557565b60405162461bcd60e51b815260206004820152601d60248201527f416464726573733a2063616c6c20746f206e6f6e2d636f6e74726163740000006044820152606490fd5b919290156105fd57508151156105ee575090565b6105fa903b151561058e565b90565b8251909150156106105750805190602001fd5b6040519062461bcd60e51b82528160208060048301528251908160248401526000935b828510610656575050604492506000838284010152601f80199101168101030190fd5b848101820151868601604401529381019385935061063356fea164736f6c6343000812000aa164736f6c6343000812000a",
  "linkReferences": {},
  "deployedLinkReferences": {}
}