{
  "_format": "hh-sol-artifact-1",
  "contractName": "OperatorFactory",
  "sourceName": "contracts/layer2/factory/OperatorFactory.sol",
  "abi": [
    {
      "inputs": [
        {
          "internalType": "address",
          "name": "_operatorImplementation",
          "type": "address"
        }
      ],
      "stateMutability": "nonpayable",
      "type": "constructor"
    },
    {
      "anonymous": false,
      "inputs": [
        {
          "indexed": false,
          "internalType": "address",
          "name": "newOperatorImplementation",
          "type": "address"
        }
      ],
      "name": "ChangedOperatorImplementaion",
      "type": "event"
    },
    {
      "anonymous": false,
      "inputs": [
        {
          "indexed": false,
          "internalType": "address",
          "name": "systemConfig",
          "type": "address"
        },
        {
          "indexed": false,
          "internalType": "address",
          "name": "owner",
          "type": "address"
        },
        {
          "indexed": false,
          "internalType": "address",
          "name": "manager",
          "type": "address"
        },
        {
          "indexed": false,
          "internalType": "address",
          "name": "operator",
          "type": "address"
        }
      ],
      "name": "CreatedOperator",
      "type": "event"
    },
    {
      "anonymous": false,
      "inputs": [
        {
          "indexed": true,
          "internalType": "address",
          "name": "previousOwner",
          "type": "address"
        },
        {
          "indexed": true,
          "internalType": "address",
          "name": "newOwner",
          "type": "address"
        }
      ],
      "name": "OwnershipTransferred",
      "type": "event"
    },
    {
      "inputs": [
        {
          "internalType": "address",
          "name": "newOperatorImplementation",
          "type": "address"
        }
      ],
      "name": "changeOperatorImplementaion",
      "outputs": [],
      "stateMutability": "nonpayable",
      "type": "function"
    },
    {
      "inputs": [
        {
          "internalType": "address",
          "name": "systemConfig",
          "type": "address"
        }
      ],
      "name": "createOperator",
      "outputs": [
        {
          "internalType": "address",
          "name": "operator",
          "type": "address"
        }
      ],
      "stateMutability": "nonpayable",
      "type": "function"
    },
    {
      "inputs": [
        {
          "internalType": "address",
          "name": "systemConfig",
          "type": "address"
        }
      ],
      "name": "getAddress",
      "outputs": [
        {
          "internalType": "address",
          "name": "",
          "type": "address"
        }
      ],
      "stateMutability": "view",
      "type": "function"
    },
    {
      "inputs": [],
      "name": "operatorImplementation",
      "outputs": [
        {
          "internalType": "address",
          "name": "",
          "type": "address"
        }
      ],
      "stateMutability": "view",
      "type": "function"
    },
    {
      "inputs": [],
      "name": "owner",
      "outputs": [
        {
          "internalType": "address",
          "name": "",
          "type": "address"
        }
      ],
      "stateMutability": "view",
      "type": "function"
    },
    {
      "inputs": [],
      "name": "renounceOwnership",
      "outputs": [],
      "stateMutability": "nonpayable",
      "type": "function"
    },
    {
      "inputs": [
        {
          "internalType": "address",
          "name": "newOwner",
          "type": "address"
        }
      ],
      "name": "transferOwnership",
      "outputs": [],
      "stateMutability": "nonpayable",
      "type": "function"
    }
  ],
  "bytecode": "0x608060405234801561001057600080fd5b5060405161116a38038061116a83398101604081905261002f916100ad565b6100383361005d565b600180546001600160a01b0319166001600160a01b03929092169190911790556100dd565b600080546001600160a01b038381166001600160a01b0319831681178455604051919092169283917f8be0079c531659141344cd1fd0a4f28419497f9722a3daafe3b4186f6b6457e09190a35050565b6000602082840312156100bf57600080fd5b81516001600160a01b03811681146100d657600080fd5b9392505050565b61107e806100ec6000396000f3fe608060405234801561001057600080fd5b506004361061007d5760003560e01c8063bedabd091161005b578063bedabd09146100c8578063c3b37ad4146100db578063f2fde38b146100ee578063f6ae6f131461010157600080fd5b8063715018a6146100825780638da5cb5b1461008c578063ae22c57d146100b5575b600080fd5b61008a610114565b005b6000546001600160a01b03165b6040516001600160a01b03909116815260200160405180910390f35b6100996100c336600461078a565b610128565b61008a6100d636600461078a565b610208565b600154610099906001600160a01b031681565b61008a6100fc36600461078a565b6102f4565b61009961010f36600461078a565b61036d565b61011c6106be565b6101266000610718565b565b60008060009050600060ff60f81b30836040518060200161014890610768565b601f1982820381018352601f9091011660408181526001600160a01b038a1660208301520160408051601f198184030181529082905261018b92916020016107de565b604051602081830303815290604052805190602001206040516020016101e894939291906001600160f81b031994909416845260609290921b6bffffffffffffffffffffffff191660018401526015830152603582015260550190565b60408051601f198184030181529190528051602090910120949350505050565b6102106106be565b6001600160a01b03811661025a5760405162461bcd60e51b815260206004820152600c60248201526b7a65726f206164647265737360a01b60448201526064015b60405180910390fd5b6001546001600160a01b038083169116036102a05760405162461bcd60e51b81526004016102519060208082526004908201526373616d6560e01b604082015260600190565b600180546001600160a01b0319166001600160a01b0383169081179091556040519081527f9ed614b997841c46ff307bf7a3067e8dac96ba3e693ae98ef9cdb081f069fdaa9060200160405180910390a150565b6102fc6106be565b6001600160a01b0381166103615760405162461bcd60e51b815260206004820152602660248201527f4f776e61626c653a206e6577206f776e657220697320746865207a65726f206160448201526564647265737360d01b6064820152608401610251565b61036a81610718565b50565b6000806103826000546001600160a01b031690565b90506000836001600160a01b0316638da5cb5b6040518163ffffffff1660e01b8152600401602060405180830381865afa1580156103c4573d6000803e3d6000fd5b505050506040513d601f19601f820116820180604052508101906103e891906107fb565b90506001600160a01b0381166104365760405162461bcd60e51b81526020600482015260136024820152723d32b9379031b7b73334b393b99037bbb732b960691b6044820152606401610251565b60008061044286610128565b90506001600160a01b0381163b1561048e5760405162461bcd60e51b815260206004820152600f60248201526e185b1c9958591e4818dc99585d1959608a1b6044820152606401610251565b8160001b8660405161049f90610768565b6001600160a01b0390911681526020018190604051809103906000f59050801580156104cf573d6000803e3d6000fd5b50600154604051631b2ce7f360e11b81526001600160a01b039182166004820152919650861690633659cfe690602401600060405180830381600087803b15801561051957600080fd5b505af115801561052d573d6000803e3d6000fd5b5050604051635d07498560e11b81526001600160a01b0386811660048301528816925063ba0e930a9150602401600060405180830381600087803b15801561057457600080fd5b505af1158015610588573d6000803e3d6000fd5b5050604051634c386bff60e11b81526001600160a01b03868116600483015288169250639870d7fe9150602401600060405180830381600087803b1580156105cf57600080fd5b505af11580156105e3573d6000803e3d6000fd5b50505050846001600160a01b031663f2fde38b6106086000546001600160a01b031690565b6040516001600160e01b031960e084901b1681526001600160a01b039091166004820152602401600060405180830381600087803b15801561064957600080fd5b505af115801561065d573d6000803e3d6000fd5b5050604080516001600160a01b038a811682528881166020830152878116828401528916606082015290517f499d6fef6d9b41da2877866efce1c4387a2716a14d09aa3bf969805d0fc319dd9350908190036080019150a150505050919050565b6000546001600160a01b031633146101265760405162461bcd60e51b815260206004820181905260248201527f4f776e61626c653a2063616c6c6572206973206e6f7420746865206f776e65726044820152606401610251565b600080546001600160a01b038381166001600160a01b0319831681178455604051919092169283917f8be0079c531659141344cd1fd0a4f28419497f9722a3daafe3b4186f6b6457e09190a35050565b6108598061081983390190565b6001600160a01b038116811461036a57600080fd5b60006020828403121561079c57600080fd5b81356107a781610775565b9392505050565b6000815160005b818110156107cf57602081850181015186830152016107b5565b50600093019283525090919050565b60006107f36107ed83866107ae565b846107ae565b949350505050565b60006020828403121561080d57600080fd5b81516107a78161077556fe608060405234801561001057600080fd5b5060405161085938038061085983398101604081905261002f916100ad565b6100383361005d565b600180546001600160a01b0319166001600160a01b03929092169190911790556100dd565b600080546001600160a01b038381166001600160a01b0319831681178455604051919092169283917f8be0079c531659141344cd1fd0a4f28419497f9722a3daafe3b4186f6b6457e09190a35050565b6000602082840312156100bf57600080fd5b81516001600160a01b03811681146100d657600080fd5b9392505050565b61076d806100ec6000396000f3fe6080604052600436106100745760003560e01c80635c60da1b1161004e5780635c60da1b14610107578063715018a61461011c5780638da5cb5b14610131578063f2fde38b1461014f57610083565b806333d7e2bd1461008b5780633659cfe6146100c75780634f1ef286146100e757610083565b366100835761008161016f565b005b61008161016f565b34801561009757600080fd5b506001546100ab906001600160a01b031681565b6040516001600160a01b03909116815260200160405180910390f35b3480156100d357600080fd5b506100816100e23660046105d3565b610181565b3480156100f357600080fd5b50610081610102366004610604565b610195565b34801561011357600080fd5b506100ab6101ad565b34801561012857600080fd5b506100816101bc565b34801561013d57600080fd5b506000546001600160a01b03166100ab565b34801561015b57600080fd5b5061008161016a3660046105d3565b6101ce565b61017f61017a610249565b61027c565b565b6101896102a5565b610192816102ff565b50565b61019d6102a5565b6101a98282600061033f565b5050565b60006101b7610249565b905090565b6101c46102a5565b61017f600061036a565b6101d66102a5565b6001600160a01b0381166102405760405162461bcd60e51b815260206004820152602660248201527f4f776e61626c653a206e6577206f776e657220697320746865207a65726f206160448201526564647265737360d01b60648201526084015b60405180910390fd5b6101928161036a565b60006101b77f360894a13ba1a3210667c828492db98dca3e2076cc3735a920a3ca505d382bbc546001600160a01b031690565b3660008037600080366000845af43d6000803e80801561029b573d6000f35b3d6000fd5b505050565b6000546001600160a01b0316331461017f5760405162461bcd60e51b815260206004820181905260248201527f4f776e61626c653a2063616c6c6572206973206e6f7420746865206f776e65726044820152606401610237565b610308816103ba565b6040516001600160a01b038216907fbc7cd75a20ee27fd9adebab32041f755214dbc6bffa90cc0225b39da2e5c2d3b90600090a250565b610348836102ff565b6000825111806103555750805b156102a0576103648383610468565b50505050565b600080546001600160a01b038381166001600160a01b0319831681178455604051919092169283917f8be0079c531659141344cd1fd0a4f28419497f9722a3daafe3b4186f6b6457e09190a35050565b6001600160a01b0381163b6104275760405162461bcd60e51b815260206004820152602d60248201527f455243313936373a206e657720696d706c656d656e746174696f6e206973206e60448201526c1bdd08184818dbdb9d1c9858dd609a1b6064820152608401610237565b7f360894a13ba1a3210667c828492db98dca3e2076cc3735a920a3ca505d382bbc80546001600160a01b0319166001600160a01b0392909216919091179055565b606061048d838360405180606001604052806027815260200161073a60279139610494565b9392505050565b6060600080856001600160a01b0316856040516104b191906106ea565b600060405180830381855af49150503d80600081146104ec576040519150601f19603f3d011682016040523d82523d6000602084013e6104f1565b606091505b50915091506105028683838761050c565b9695505050505050565b6060831561057b578251600003610574576001600160a01b0385163b6105745760405162461bcd60e51b815260206004820152601d60248201527f416464726573733a2063616c6c20746f206e6f6e2d636f6e74726163740000006044820152606401610237565b5081610585565b610585838361058d565b949350505050565b81511561059d5781518083602001fd5b8060405162461bcd60e51b81526004016102379190610706565b80356001600160a01b03811681146105ce57600080fd5b919050565b6000602082840312156105e557600080fd5b61048d826105b7565b634e487b7160e01b600052604160045260246000fd5b6000806040838503121561061757600080fd5b610620836105b7565b9150602083013567ffffffffffffffff8082111561063d57600080fd5b818501915085601f83011261065157600080fd5b813581811115610663576106636105ee565b604051601f8201601f19908116603f0116810190838211818310171561068b5761068b6105ee565b816040528281528860208487010111156106a457600080fd5b8260208601602083013760006020848301015280955050505050509250929050565b60005b838110156106e15781810151838201526020016106c9565b50506000910152565b600082516106fc8184602087016106c6565b9190910192915050565b60208152600082518060208401526107258160408501602087016106c6565b601f01601f1916919091016040019291505056fe416464726573733a206c6f772d6c6576656c2064656c65676174652063616c6c206661696c6564a164736f6c6343000813000aa164736f6c6343000813000a",
  "linkReferences": {},
  "deployedLinkReferences": {}
}