{
  "_format": "hh-sol-artifact-1",
  "contractName": "AuthRoleLayer2Manager",
  "sourceName": "contracts/common/AuthRoleLayer2Manager.sol",
  "abi": [
    {
      "inputs": [],
      "name": "MANAGER_ROLE",
      "outputs": [
        {
          "internalType": "bytes32",
          "name": "",
          "type": "bytes32"
        }
      ],
      "stateMutability": "view",
      "type": "function"
    },
    {
      "inputs": [],
      "name": "OPERATOR_ROLE",
      "outputs": [
        {
          "internalType": "bytes32",
          "name": "",
          "type": "bytes32"
        }
      ],
      "stateMutability": "view",
      "type": "function"
    }
  ],
  "bytecode": "0x608080604052346100155760b8908161001b8239f35b600080fdfe6080806040526004361015601257600080fd5b600090813560e01c908163ec87621c14606f575063f5b541a614603457600080fd5b34606c5780600319360112606c5760206040517f523a704056dcd17bcf83bed8b68c59416dac1119be77755efe3bde0a64e46e0c8152f35b80fd5b90503460a7578160031936011260a757807faf290d8680820aad922855f39b306097b20e28774d6c1ad35a20325630c3a02c60209252f35b5080fdfea164736f6c6343000812000a",
  "linkReferences": {},
  "deployedLinkReferences": {}
}