{
  "_format": "hh-sol-artifact-1",
  "contractName": "AuthControlSeigManager",
  "sourceName": "contracts/common/AuthControlSeigManager.sol",
  "abi": [
    {
      "anonymous": false,
      "inputs": [
        {
          "indexed": true,
          "internalType": "bytes32",
          "name": "role",
          "type": "bytes32"
        },
        {
          "indexed": true,
          "internalType": "bytes32",
          "name": "previousAdminRole",
          "type": "bytes32"
        },
        {
          "indexed": true,
          "internalType": "bytes32",
          "name": "newAdminRole",
          "type": "bytes32"
        }
      ],
      "name": "RoleAdminChanged",
      "type": "event"
    },
    {
      "anonymous": false,
      "inputs": [
        {
          "indexed": true,
          "internalType": "bytes32",
          "name": "role",
          "type": "bytes32"
        },
        {
          "indexed": true,
          "internalType": "address",
          "name": "account",
          "type": "address"
        },
        {
          "indexed": true,
          "internalType": "address",
          "name": "sender",
          "type": "address"
        }
      ],
      "name": "RoleGranted",
      "type": "event"
    },
    {
      "anonymous": false,
      "inputs": [
        {
          "indexed": true,
          "internalType": "bytes32",
          "name": "role",
          "type": "bytes32"
        },
        {
          "indexed": true,
          "internalType": "address",
          "name": "account",
          "type": "address"
        },
        {
          "indexed": true,
          "internalType": "address",
          "name": "sender",
          "type": "address"
        }
      ],
      "name": "RoleRevoked",
      "type": "event"
    },
    {
      "inputs": [],
      "name": "CHALLENGER_ROLE",
      "outputs": [
        {
          "internalType": "bytes32",
          "name": "",
          "type": "bytes32"
        }
      ],
      "stateMutability": "view",
      "type": "function"
    },
    {
      "inputs": [],
      "name": "DEFAULT_ADMIN_ROLE",
      "outputs": [
        {
          "internalType": "bytes32",
          "name": "",
          "type": "bytes32"
        }
      ],
      "stateMutability": "view",
      "type": "function"
    },
    {
      "inputs": [],
      "name": "MINTER_ROLE",
      "outputs": [
        {
          "internalType": "bytes32",
          "name": "",
          "type": "bytes32"
        }
      ],
      "stateMutability": "view",
      "type": "function"
    },
    {
      "inputs": [],
      "name": "OPERATOR_ROLE",
      "outputs": [
        {
          "internalType": "bytes32",
          "name": "",
          "type": "bytes32"
        }
      ],
      "stateMutability": "view",
      "type": "function"
    },
    {
      "inputs": [],
      "name": "PAUSE_ROLE",
      "outputs": [
        {
          "internalType": "bytes32",
          "name": "",
          "type": "bytes32"
        }
      ],
      "stateMutability": "view",
      "type": "function"
    },
    {
      "inputs": [
        {
          "internalType": "address",
          "name": "account",
          "type": "address"
        }
      ],
      "name": "addAdmin",
      "outputs": [],
      "stateMutability": "nonpayable",
      "type": "function"
    },
    {
      "inputs": [
        {
          "internalType": "address",
          "name": "account",
          "type": "address"
        }
      ],
      "name": "addChallenger",
      "outputs": [],
      "stateMutability": "nonpayable",
      "type": "function"
    },
    {
      "inputs": [
        {
          "internalType": "address",
          "name": "account",
          "type": "address"
        }
      ],
      "name": "addMinter",
      "outputs": [],
      "stateMutability": "nonpayable",
      "type": "function"
    },
    {
      "inputs": [
        {
          "internalType": "address",
          "name": "account",
          "type": "address"
        }
      ],
      "name": "addOperator",
      "outputs": [],
      "stateMutability": "nonpayable",
      "type": "function"
    },
    {
      "inputs": [
        {
          "internalType": "bytes32",
          "name": "role",
          "type": "bytes32"
        }
      ],
      "name": "getRoleAdmin",
      "outputs": [
        {
          "internalType": "bytes32",
          "name": "",
          "type": "bytes32"
        }
      ],
      "stateMutability": "view",
      "type": "function"
    },
    {
      "inputs": [
        {
          "internalType": "bytes32",
          "name": "role",
          "type": "bytes32"
        },
        {
          "internalType": "address",
          "name": "account",
          "type": "address"
        }
      ],
      "name": "grantRole",
      "outputs": [],
      "stateMutability": "nonpayable",
      "type": "function"
    },
    {
      "inputs": [
        {
          "internalType": "bytes32",
          "name": "role",
          "type": "bytes32"
        },
        {
          "internalType": "address",
          "name": "account",
          "type": "address"
        }
      ],
      "name": "hasRole",
      "outputs": [
        {
          "internalType": "bool",
          "name": "",
          "type": "bool"
        }
      ],
      "stateMutability": "view",
      "type": "function"
    },
    {
      "inputs": [
        {
          "internalType": "address",
          "name": "account",
          "type": "address"
        }
      ],
      "name": "isAdmin",
      "outputs": [
        {
          "internalType": "bool",
          "name": "",
          "type": "bool"
        }
      ],
      "stateMutability": "view",
      "type": "function"
    },
    {
      "inputs": [
        {
          "internalType": "address",
          "name": "account",
          "type": "address"
        }
      ],
      "name": "isChallenger",
      "outputs": [
        {
          "internalType": "bool",
          "name": "",
          "type": "bool"
        }
      ],
      "stateMutability": "view",
      "type": "function"
    },
    {
      "inputs": [
        {
          "internalType": "address",
          "name": "account",
          "type": "address"
        }
      ],
      "name": "isMinter",
      "outputs": [
        {
          "internalType": "bool",
          "name": "",
          "type": "bool"
        }
      ],
      "stateMutability": "view",
      "type": "function"
    },
    {
      "inputs": [
        {
          "internalType": "address",
          "name": "account",
          "type": "address"
        }
      ],
      "name": "isOperator",
      "outputs": [
        {
          "internalType": "bool",
          "name": "",
          "type": "bool"
        }
      ],
      "stateMutability": "view",
      "type": "function"
    },
    {
      "inputs": [],
      "name": "isOwner",
      "outputs": [
        {
          "internalType": "bool",
          "name": "",
          "type": "bool"
        }
      ],
      "stateMutability": "view",
      "type": "function"
    },
    {
      "inputs": [
        {
          "internalType": "address",
          "name": "account",
          "type": "address"
        }
      ],
      "name": "removeAdmin",
      "outputs": [],
      "stateMutability": "nonpayable",
      "type": "function"
    },
    {
      "inputs": [
        {
          "internalType": "address",
          "name": "account",
          "type": "address"
        }
      ],
      "name": "removeChallenger",
      "outputs": [],
      "stateMutability": "nonpayable",
      "type": "function"
    },
    {
      "inputs": [
        {
          "internalType": "address",
          "name": "account",
          "type": "address"
        }
      ],
      "name": "removeMinter",
      "outputs": [],
      "stateMutability": "nonpayable",
      "type": "function"
    },
    {
      "inputs": [
        {
          "internalType": "address",
          "name": "account",
          "type": "address"
        }
      ],
      "name": "removeOperator",
      "outputs": [],
      "stateMutability": "nonpayable",
      "type": "function"
    },
    {
      "inputs": [],
      "name": "renounceChallenger",
      "outputs": [],
      "stateMutability": "nonpayable",
      "type": "function"
    },
    {
      "inputs": [],
      "name": "renounceMinter",
      "outputs": [],
      "stateMutability": "nonpayable",
      "type": "function"
    },
    {
      "inputs": [],
      "name": "renounceOperator",
      "outputs": [],
      "stateMutability": "nonpayable",
      "type": "function"
    },
    {
      "inputs": [],
      "name": "renounceOwnership",
      "outputs": [],
      "stateMutability": "nonpayable",
      "type": "function"
    },
    {
      "inputs": [
        {
          "internalType": "bytes32",
          "name": "role",
          "type": "bytes32"
        },
        {
          "internalType": "address",
          "name": "account",
          "type": "address"
        }
      ],
      "name": "renounceRole",
      "outputs": [],
      "stateMutability": "nonpayable",
      "type": "function"
    },
    {
      "inputs": [
        {
          "internalType": "address",
          "name": "account",
          "type": "address"
        }
      ],
      "name": "revokeChallenger",
      "outputs": [],
      "stateMutability": "nonpayable",
      "type": "function"
    },
    {
      "inputs": [
        {
          "internalType": "address",
          "name": "account",
          "type": "address"
        }
      ],
      "name": "revokeMinter",
      "outputs": [],
      "stateMutability": "nonpayable",
      "type": "function"
    },
    {
      "inputs": [
        {
          "internalType": "address",
          "name": "account",
          "type": "address"
        }
      ],
      "name": "revokeOperator",
      "outputs": [],
      "stateMutability": "nonpayable",
      "type": "function"
    },
    {
      "inputs": [
        {
          "internalType": "bytes32",
          "name": "role",
          "type": "bytes32"
        },
        {
          "internalType": "address",
          "name": "account",
          "type": "address"
        }
      ],
      "name": "revokeRole",
      "outputs": [],
      "stateMutability": "nonpayable",
      "type": "function"
    },
    {
      "inputs": [
        {
          "internalType": "bytes4",
          "name": "interfaceId",
          "type": "bytes4"
        }
      ],
      "name": "supportsInterface",
      "outputs": [
        {
          "internalType": "bool",
          "name": "",
          "type": "bool"
        }
      ],
      "stateMutability": "view",
      "type": "function"
    },
    {
      "inputs": [
        {
          "internalType": "address",
          "name": "newAdmin",
          "type": "address"
        }
      ],
      "name": "transferAdmin",
      "outputs": [],
      "stateMutability": "nonpayable",
      "type": "function"
    },
    {
      "inputs": [
        {
          "internalType": "address",
          "name": "newAdmin",
          "type": "address"
        }
      ],
      "name": "transferOwnership",
      "outputs": [],
      "stateMutability": "nonpayable",
      "type": "function"
    }
  ],
  "bytecode": "0x60808060405234610016576113b1908161001c8239f35b600080fdfe608060408181526004918236101561001657600080fd5b600092833560e01c91826301ffc9a714610c0d575081630ceb678014610b505781631785f53c14610b22578163248a9ca314610af857816324d7806c14610ab257816325e90db414610a985781632ab6f8db14610a7e5781632f2ff15d146109e35781633092afd5146109b557816336568abe14610923578163389ed267146108e85781633c49117314610898578163530adbb41461086f5781636c578c1d146108415781636d70f7ae146107ed578163704802751461074a578163715018a61461072457816375829def146107075781638f32d59b146106d457816391d148541461068d578163983b2d561461063d57816398650275146106235781639870d7fe14610570578163a217fddf14610555578163a415d8dc14610501578163aa271e1a146104ad578163ac8a584a1461047c578163cfbd48851461042c578163d539139314610403578163d547741f146103c8578163f2fde38b1461028457508063f5b541a61461025c5763fad8b32a1461019057600080fd5b346102585760209081600319360112610254576101ab610c85565b906101bd6101b833610cb6565b6112cc565b60008051602061136583398151915292838552600181526101e360018387200154610cf3565b838552600181528185206001600160a01b039093168086529281528185205460ff1661020d578480f35b8385526001815281852083865290528320805460ff1916905533917ff6391f5c32d9c69d2a47ea670b442974b53935d1edc7fd64eb21e047a839171b8480a4388080808480f35b8280fd5b5080fd5b5034610258578160031936011261025857602090516000805160206113658339815191528152f35b91905034610254576020806003193601126103c4576102a1610c85565b6102ad6101b833610cb6565b6102b96101b833610cb6565b6001600160a01b0316928315610383578333146103495750838052600181526102e760018386200154610cf3565b83805260018152818420838552815260ff828520541615610310575b8361030d33611029565b80f35b8380526001815281842090838552528220600160ff198254161790553390826000805160206113258339815191528180a4388080610303565b915162461bcd60e51b815291820152601660248201527520b1b1b2b9b9b4b136329d1039b0b6b29030b236b4b760511b6044820152606490fd5b915162461bcd60e51b815291820152601860248201527f41636365737369626c653a207a65726f206164647265737300000000000000006044820152606490fd5b8380fd5b9190503461025457806003193601126102545761030d91356103fe60016103ed610ca0565b938387528160205286200154610cf3565b611274565b505034610258578160031936011261025857602090516000805160206113458339815191528152f35b505034610258576020908160031936011261025457610449610c85565b906104566101b833610cb6565b60008051602061134583398151915292838552600181526101e360018387200154610cf3565b83346104aa5760203660031901126104aa5761030d610499610c85565b6104a56101b833610cb6565b6111ba565b80fd5b5050346102585760203660031901126102585760ff816020936104ce610c85565b6000805160206113458339815191528252600186528282206001600160a01b039091168252855220549151911615158152f35b5050346102585760203660031901126102585760ff81602093610522610c85565b6000805160206113858339815191528252600186528282206001600160a01b039091168252855220549151911615158152f35b50503461025857816003193601126102585751908152602090f35b50503461025857602090816003193601126102545761058d610c85565b9061059a6101b833610cb6565b60008051602061136583398151915292838552600181526105c060018387200154610cf3565b838552600181528185206001600160a01b039093168086529281528185205460ff16156105eb578480f35b8385526001815281852090838652528320600160ff1982541617905533916000805160206113258339815191528480a4388080808480f35b83346104aa57806003193601126104aa5761030d33611217565b50503461025857602090816003193601126102545761065a610c85565b906106676101b833610cb6565b60008051602061134583398151915292838552600181526105c060018387200154610cf3565b9050346102545781600319360112610254578160209360ff926106ae610ca0565b90358252600186528282206001600160a01b039091168252855220549151911615158152f35b50503461025857816003193601126102585760ff8183806020955260018552818120338252855220541690519015158152f35b91905034610254576020806003193601126103c4576102ad610c85565b83346104aa57806003193601126104aa576107416101b833610cb6565b61030d33611029565b505034610258576020908160031936011261025457610767610c85565b916107746101b833610cb6565b8380526001815261078a60018386200154610cf3565b838052600181528184206001600160a01b039093168085529281528184205460ff16156107b5578380f35b8380526001815281842090838552528220600160ff198254161790553390826000805160206113258339815191528180a43880808380f35b5050346102585760203660031901126102585760ff8160209361080e610c85565b6000805160206113658339815191528252600186528282206001600160a01b039091168252855220549151911615158152f35b83346104aa5760203660031901126104aa5761030d61085e610c85565b61086a6101b833610cb6565b611118565b505034610258578160031936011261025857602090516000805160206113858339815191528152f35b5050346102585760209081600319360112610254576108b5610c85565b906108c26101b833610cb6565b60008051602061138583398151915292838552600181526101e360018387200154610cf3565b505034610258578160031936011261025857602090517ffcb9fcbfa83b897fb2d5cf4b58962164105c1e71489a37ef3ae0db3fdce576f68152f35b8391503461025857826003193601126102585761093e610ca0565b90336001600160a01b0383160361095a579061030d9135611274565b608490602085519162461bcd60e51b8352820152602f60248201527f416363657373436f6e74726f6c3a2063616e206f6e6c792072656e6f756e636560448201526e103937b632b9903337b91039b2b63360891b6064820152fd5b83346104aa5760203660031901126104aa5761030d6109d2610c85565b6109de6101b833610cb6565b611217565b90503461025457816003193601126102545735906109ff610ca0565b908284526001602052610a1760018286200154610cf3565b828452600160209081528185206001600160a01b039093168086529290528084205460ff1615610a45578380f35b82845260016020528084208285526020528320600160ff1982541617905533916000805160206113258339815191528480a43880808380f35b83346104aa57806003193601126104aa5761030d336111ba565b83346104aa57806003193601126104aa5761030d33611118565b5050346102585760203660031901126102585760ff81602093610ad3610c85565b818052600186528282206001600160a01b039091168252855220549151911615158152f35b90503461025457602036600319011261025457816020936001923581528285522001549051908152f35b83346104aa5760203660031901126104aa5761030d610b3f610c85565b610b4b6101b833610cb6565b611029565b90503461025457602091826003193601126103c457610b6d610c85565b91610b7733610cb6565b8015610be3575b15610baa575060008051602061138583398151915292838552600181526105c060018387200154610cf3565b83606492519162461bcd60e51b835282015260156024820152743737ba1037b7363ca6b4b73a32b927b920b236b4b760591b6044820152fd5b50600080516020611345833981519152855260018452818520338652845260ff8286205416610b7e565b84849234610258576020366003190112610258573563ffffffff60e01b811680910361025857602093637965db0b60e01b8214928315610c51575b50505015158152f35b6301ffc9a760e01b8314935090918315610c71575b505050838080610c48565b60ff93508152808552205416838080610c66565b600435906001600160a01b0382168203610c9b57565b600080fd5b602435906001600160a01b0382168203610c9b57565b6001600160a01b031660009081527fa6eef7e35abe7026729641147f7915573c7e97b47efa546f5f6e3230263bcb49602052604090205460ff1690565b60009080825260016020818152604093848120338252825260ff858220541615610d1e575050505050565b33855193606085019567ffffffffffffffff9686811088821117610ff2578852602a86528486019288368537865115610fde57603084538651831015610fde576078602188015360295b838111610f745750610e9e578751906080820182811089821117610f6057895260428252858201926060368537825115610f4c57603084538251811015610f4c57607860218401536041905b808211610ee0575050610e9e5791610e3394939188936067989951968793610e098886019a7f416363657373436f6e74726f6c3a206163636f756e74200000000000000000008c525180926037880190611006565b8401917001034b99036b4b9b9b4b733903937b6329607d1b60378401525180936048840190611006565b0103602881018552601f19968791011684019684881090881117610e8a575092610e8160449593601f938880975262461bcd60e51b8752600487015251809281602488015287870190611006565b01168101030190fd5b634e487b7160e01b81526041600452602490fd5b60648589519062461bcd60e51b825280600483015260248201527f537472696e67733a20686578206c656e67746820696e73756666696369656e746044820152fd5b9091600f81166010811015610f38576f181899199a1a9b1b9c1cb0b131b232b360811b901a610f0f84866112a5565b5360041c918015610f24576000190190610db4565b634e487b7160e01b87526011600452602487fd5b634e487b7160e01b88526032600452602488fd5b634e487b7160e01b86526032600452602486fd5b634e487b7160e01b86526041600452602486fd5b90600f81166010811015610fca576f181899199a1a9b1b9c1cb0b131b232b360811b901a610fa2838a6112a5565b5360041c908015610fb65760001901610d68565b634e487b7160e01b86526011600452602486fd5b634e487b7160e01b87526032600452602487fd5b634e487b7160e01b85526032600452602485fd5b634e487b7160e01b85526041600452602485fd5b60005b8381106110195750506000910152565b8181015183820152602001611009565b6001600160a01b03163381036110bb5760008181527fa6eef7e35abe7026729641147f7915573c7e97b47efa546f5f6e3230263bcb49602052604081205490919060ff16611075575050565b8180526001602052604082208183526020526040822060ff19815416905533917ff6391f5c32d9c69d2a47ea670b442974b53935d1edc7fd64eb21e047a839171b8180a4565b60405162461bcd60e51b815260206004820152602f60248201527f416363657373436f6e74726f6c3a2063616e206f6e6c792072656e6f756e636560448201526e103937b632b9903337b91039b2b63360891b6064820152608490fd5b6001600160a01b03163381036110bb5760008181527f58c1f4e7a1a9b7c12869d09a0c82f72215f4830b8777d4a607eb11b3aa53630860205260408120549091906000805160206113858339815191529060ff1661117557505050565b8083526001602052604083208284526020526040832060ff1981541690557ff6391f5c32d9c69d2a47ea670b442974b53935d1edc7fd64eb21e047a839171b339380a4565b6001600160a01b03163381036110bb5760008181527f8ba84450219907afe912da1ddd29b6f4e773baa5c2630d42ebe0371c91fdf9ed60205260408120549091906000805160206113658339815191529060ff1661117557505050565b6001600160a01b03163381036110bb5760008181527ffe36a80dee87f02e45351a65c4bd3ccefd3fc5363e679b6e4b81a8004282b3fc60205260408120549091906000805160206113458339815191529060ff1661117557505050565b906000918083526001602052604083209160018060a01b03169182845260205260ff60408420541661117557505050565b9081518110156112b6570160200190565b634e487b7160e01b600052603260045260246000fd5b156112d357565b60405162461bcd60e51b815260206004820152602360248201527f41757468436f6e74726f6c3a2043616c6c6572206973206e6f7420616e20616460448201526236b4b760e91b6064820152608490fdfe2f8788117e7eff1d82e926ec794901d17c78024a50270940304540a733656f0df0887ba65ee2024ea881d91b74c2450ef19e1557f03bed3ea9f16b037cbe2dc9523a704056dcd17bcf83bed8b68c59416dac1119be77755efe3bde0a64e46e0cbf02bad7114723a857a3af46cea17b778a3a951c96f183784d9a2448cc479ab6a164736f6c6343000813000a",
  "linkReferences": {},
  "deployedLinkReferences": {}
}