{
  "_format": "hh-sol-artifact-1",
  "contractName": "AuthControlSeigManager",
  "sourceName": "contracts/common/AuthControlSeigManager.sol",
  "abi": [
    {
      "anonymous": false,
      "inputs": [
        {
          "indexed": true,
          "internalType": "bytes32",
          "name": "role",
          "type": "bytes32"
        },
        {
          "indexed": true,
          "internalType": "bytes32",
          "name": "previousAdminRole",
          "type": "bytes32"
        },
        {
          "indexed": true,
          "internalType": "bytes32",
          "name": "newAdminRole",
          "type": "bytes32"
        }
      ],
      "name": "RoleAdminChanged",
      "type": "event"
    },
    {
      "anonymous": false,
      "inputs": [
        {
          "indexed": true,
          "internalType": "bytes32",
          "name": "role",
          "type": "bytes32"
        },
        {
          "indexed": true,
          "internalType": "address",
          "name": "account",
          "type": "address"
        },
        {
          "indexed": true,
          "internalType": "address",
          "name": "sender",
          "type": "address"
        }
      ],
      "name": "RoleGranted",
      "type": "event"
    },
    {
      "anonymous": false,
      "inputs": [
        {
          "indexed": true,
          "internalType": "bytes32",
          "name": "role",
          "type": "bytes32"
        },
        {
          "indexed": true,
          "internalType": "address",
          "name": "account",
          "type": "address"
        },
        {
          "indexed": true,
          "internalType": "address",
          "name": "sender",
          "type": "address"
        }
      ],
      "name": "RoleRevoked",
      "type": "event"
    },
    {
      "inputs": [],
      "name": "CHALLENGER_ROLE",
      "outputs": [
        {
          "internalType": "bytes32",
          "name": "",
          "type": "bytes32"
        }
      ],
      "stateMutability": "view",
      "type": "function"
    },
    {
      "inputs": [],
      "name": "DEFAULT_ADMIN_ROLE",
      "outputs": [
        {
          "internalType": "bytes32",
          "name": "",
          "type": "bytes32"
        }
      ],
      "stateMutability": "view",
      "type": "function"
    },
    {
      "inputs": [],
      "name": "MINTER_ROLE",
      "outputs": [
        {
          "internalType": "bytes32",
          "name": "",
          "type": "bytes32"
        }
      ],
      "stateMutability": "view",
      "type": "function"
    },
    {
      "inputs": [],
      "name": "OPERATOR_ROLE",
      "outputs": [
        {
          "internalType": "bytes32",
          "name": "",
          "type": "bytes32"
        }
      ],
      "stateMutability": "view",
      "type": "function"
    },
    {
      "inputs": [],
      "name": "PAUSE_ROLE",
      "outputs": [
        {
          "internalType": "bytes32",
          "name": "",
          "type": "bytes32"
        }
      ],
      "stateMutability": "view",
      "type": "function"
    },
    {
      "inputs": [
        {
          "internalType": "address",
          "name": "account",
          "type": "address"
        }
      ],
      "name": "addAdmin",
      "outputs": [],
      "stateMutability": "nonpayable",
      "type": "function"
    },
    {
      "inputs": [
        {
          "internalType": "address",
          "name": "account",
          "type": "address"
        }
      ],
      "name": "addChallenger",
      "outputs": [],
      "stateMutability": "nonpayable",
      "type": "function"
    },
    {
      "inputs": [
        {
          "internalType": "address",
          "name": "account",
          "type": "address"
        }
      ],
      "name": "addMinter",
      "outputs": [],
      "stateMutability": "nonpayable",
      "type": "function"
    },
    {
      "inputs": [
        {
          "internalType": "address",
          "name": "account",
          "type": "address"
        }
      ],
      "name": "addOperator",
      "outputs": [],
      "stateMutability": "nonpayable",
      "type": "function"
    },
    {
      "inputs": [
        {
          "internalType": "bytes32",
          "name": "role",
          "type": "bytes32"
        }
      ],
      "name": "getRoleAdmin",
      "outputs": [
        {
          "internalType": "bytes32",
          "name": "",
          "type": "bytes32"
        }
      ],
      "stateMutability": "view",
      "type": "function"
    },
    {
      "inputs": [
        {
          "internalType": "bytes32",
          "name": "role",
          "type": "bytes32"
        },
        {
          "internalType": "address",
          "name": "account",
          "type": "address"
        }
      ],
      "name": "grantRole",
      "outputs": [],
      "stateMutability": "nonpayable",
      "type": "function"
    },
    {
      "inputs": [
        {
          "internalType": "bytes32",
          "name": "role",
          "type": "bytes32"
        },
        {
          "internalType": "address",
          "name": "account",
          "type": "address"
        }
      ],
      "name": "hasRole",
      "outputs": [
        {
          "internalType": "bool",
          "name": "",
          "type": "bool"
        }
      ],
      "stateMutability": "view",
      "type": "function"
    },
    {
      "inputs": [
        {
          "internalType": "address",
          "name": "account",
          "type": "address"
        }
      ],
      "name": "isAdmin",
      "outputs": [
        {
          "internalType": "bool",
          "name": "",
          "type": "bool"
        }
      ],
      "stateMutability": "view",
      "type": "function"
    },
    {
      "inputs": [
        {
          "internalType": "address",
          "name": "account",
          "type": "address"
        }
      ],
      "name": "isChallenger",
      "outputs": [
        {
          "internalType": "bool",
          "name": "",
          "type": "bool"
        }
      ],
      "stateMutability": "view",
      "type": "function"
    },
    {
      "inputs": [
        {
          "internalType": "address",
          "name": "account",
          "type": "address"
        }
      ],
      "name": "isMinter",
      "outputs": [
        {
          "internalType": "bool",
          "name": "",
          "type": "bool"
        }
      ],
      "stateMutability": "view",
      "type": "function"
    },
    {
      "inputs": [
        {
          "internalType": "address",
          "name": "account",
          "type": "address"
        }
      ],
      "name": "isOperator",
      "outputs": [
        {
          "internalType": "bool",
          "name": "",
          "type": "bool"
        }
      ],
      "stateMutability": "view",
      "type": "function"
    },
    {
      "inputs": [],
      "name": "isOwner",
      "outputs": [
        {
          "internalType": "bool",
          "name": "",
          "type": "bool"
        }
      ],
      "stateMutability": "view",
      "type": "function"
    },
    {
      "inputs": [
        {
          "internalType": "address",
          "name": "account",
          "type": "address"
        }
      ],
      "name": "removeAdmin",
      "outputs": [],
      "stateMutability": "nonpayable",
      "type": "function"
    },
    {
      "inputs": [
        {
          "internalType": "address",
          "name": "account",
          "type": "address"
        }
      ],
      "name": "removeChallenger",
      "outputs": [],
      "stateMutability": "nonpayable",
      "type": "function"
    },
    {
      "inputs": [
        {
          "internalType": "address",
          "name": "account",
          "type": "address"
        }
      ],
      "name": "removeMinter",
      "outputs": [],
      "stateMutability": "nonpayable",
      "type": "function"
    },
    {
      "inputs": [
        {
          "internalType": "address",
          "name": "account",
          "type": "address"
        }
      ],
      "name": "removeOperator",
      "outputs": [],
      "stateMutability": "nonpayable",
      "type": "function"
    },
    {
      "inputs": [],
      "name": "renounceChallenger",
      "outputs": [],
      "stateMutability": "nonpayable",
      "type": "function"
    },
    {
      "inputs": [],
      "name": "renounceMinter",
      "outputs": [],
      "stateMutability": "nonpayable",
      "type": "function"
    },
    {
      "inputs": [],
      "name": "renounceOperator",
      "outputs": [],
      "stateMutability": "nonpayable",
      "type": "function"
    },
    {
      "inputs": [],
      "name": "renounceOwnership",
      "outputs": [],
      "stateMutability": "nonpayable",
      "type": "function"
    },
    {
      "inputs": [
        {
          "internalType": "bytes32",
          "name": "role",
          "type": "bytes32"
        },
        {
          "internalType": "address",
          "name": "account",
          "type": "address"
        }
      ],
      "name": "renounceRole",
      "outputs": [],
      "stateMutability": "nonpayable",
      "type": "function"
    },
    {
      "inputs": [
        {
          "internalType": "address",
          "name": "account",
          "type": "address"
        }
      ],
      "name": "revokeChallenger",
      "outputs": [],
      "stateMutability": "nonpayable",
      "type": "function"
    },
    {
      "inputs": [
        {
          "internalType": "address",
          "name": "account",
          "type": "address"
        }
      ],
      "name": "revokeMinter",
      "outputs": [],
      "stateMutability": "nonpayable",
      "type": "function"
    },
    {
      "inputs": [
        {
          "internalType": "address",
          "name": "account",
          "type": "address"
        }
      ],
      "name": "revokeOperator",
      "outputs": [],
      "stateMutability": "nonpayable",
      "type": "function"
    },
    {
      "inputs": [
        {
          "internalType": "bytes32",
          "name": "role",
          "type": "bytes32"
        },
        {
          "internalType": "address",
          "name": "account",
          "type": "address"
        }
      ],
      "name": "revokeRole",
      "outputs": [],
      "stateMutability": "nonpayable",
      "type": "function"
    },
    {
      "inputs": [
        {
          "internalType": "bytes4",
          "name": "interfaceId",
          "type": "bytes4"
        }
      ],
      "name": "supportsInterface",
      "outputs": [
        {
          "internalType": "bool",
          "name": "",
          "type": "bool"
        }
      ],
      "stateMutability": "view",
      "type": "function"
    },
    {
      "inputs": [
        {
          "internalType": "address",
          "name": "newAdmin",
          "type": "address"
        }
      ],
      "name": "transferAdmin",
      "outputs": [],
      "stateMutability": "nonpayable",
      "type": "function"
    },
    {
      "inputs": [
        {
          "internalType": "address",
          "name": "newAdmin",
          "type": "address"
        }
      ],
      "name": "transferOwnership",
      "outputs": [],
      "stateMutability": "nonpayable",
      "type": "function"
    }
  ],
  "bytecode": "0x608060405234801561001057600080fd5b5061103c806100206000396000f3fe608060405234801561001057600080fd5b50600436106101fb5760003560e01c8063715018a61161011a578063a415d8dc116100ad578063d53913931161007c578063d53913931461041e578063d547741f14610433578063f2fde38b14610446578063f5b541a614610459578063fad8b32a1461046e57600080fd5b8063a415d8dc146103d2578063aa271e1a146103e5578063ac8a584a146103f8578063cfbd48851461040b57600080fd5b8063983b2d56116100e9578063983b2d561461039c57806398650275146103af5780639870d7fe146103b7578063a217fddf146103ca57600080fd5b8063715018a61461036657806375829def1461036e5780638f32d59b1461038157806391d148541461038957600080fd5b80633092afd511610192578063530adbb411610161578063530adbb4146103185780636c578c1d1461032d5780636d70f7ae14610340578063704802751461035357600080fd5b80633092afd5146102b857806336568abe146102cb578063389ed267146102de5780633c4911731461030557600080fd5b806324d7806c116101ce57806324d7806c1461028257806325e90db4146102955780632ab6f8db1461029d5780632f2ff15d146102a557600080fd5b806301ffc9a7146102005780630ceb6780146102285780631785f53c1461023d578063248a9ca314610250575b600080fd5b61021361020e366004610d97565b610481565b60405190151581526020015b60405180910390f35b61023b610236366004610ddd565b610492565b005b61023b61024b366004610ddd565b61051d565b61027461025e366004610df8565b6000908152600160208190526040909120015490565b60405190815260200161021f565b610213610290366004610ddd565b61054d565b61023b610559565b61023b610573565b61023b6102b3366004610e11565b61058b565b61023b6102c6366004610ddd565b6105b6565b61023b6102d9366004610e11565b6105ef565b6102747ffcb9fcbfa83b897fb2d5cf4b58962164105c1e71489a37ef3ae0db3fdce576f681565b61023b610313366004610ddd565b61066d565b61027460008051602061101083398151915281565b61023b61033b366004610ddd565b6106aa565b61021361034e366004610ddd565b6106e7565b61023b610361366004610ddd565b610701565b61023b610731565b61023b61037c366004610ddd565b610761565b610213610843565b610213610397366004610e11565b610854565b61023b6103aa366004610ddd565b61087f565b61023b6108bc565b61023b6103c5366004610ddd565b6108d4565b610274600081565b6102136103e0366004610ddd565b610911565b6102136103f3366004610ddd565b61092b565b61023b610406366004610ddd565b610945565b61023b610419366004610ddd565b610982565b610274600080516020610fd083398151915281565b61023b610441366004610e11565b6109bb565b61023b610454366004610ddd565b6109e1565b610274600080516020610ff083398151915281565b61023b61047c366004610ddd565b610a0f565b600061048c82610a4c565b92915050565b61049b3361054d565b806104b957506104b9600080516020610fd083398151915233610854565b6105025760405162461bcd60e51b81526020600482015260156024820152743737ba1037b7363ca6b4b73a32b927b920b236b4b760591b60448201526064015b60405180910390fd5b61051a6000805160206110108339815191528261058b565b50565b6105263361054d565b6105425760405162461bcd60e51b81526004016104f990610e3d565b61051a6000826105ef565b600061048c8183610854565b610571600080516020611010833981519152336105ef565b565b610571600080516020610ff0833981519152336105ef565b600082815260016020819052604090912001546105a781610a71565b6105b18383610a7b565b505050565b6105bf3361054d565b6105db5760405162461bcd60e51b81526004016104f990610e3d565b61051a600080516020610fd0833981519152825b6001600160a01b038116331461065f5760405162461bcd60e51b815260206004820152602f60248201527f416363657373436f6e74726f6c3a2063616e206f6e6c792072656e6f756e636560448201526e103937b632b9903337b91039b2b63360891b60648201526084016104f9565b6106698282610ae6565b5050565b6106763361054d565b6106925760405162461bcd60e51b81526004016104f990610e3d565b61051a600080516020611010833981519152826109bb565b6106b33361054d565b6106cf5760405162461bcd60e51b81526004016104f990610e3d565b61051a600080516020611010833981519152826105ef565b600061048c600080516020610ff083398151915283610854565b61070a3361054d565b6107265760405162461bcd60e51b81526004016104f990610e3d565b61051a60008261058b565b61073a3361054d565b6107565760405162461bcd60e51b81526004016104f990610e3d565b6105716000336105ef565b61076a3361054d565b6107865760405162461bcd60e51b81526004016104f990610e3d565b6001600160a01b0381166107dc5760405162461bcd60e51b815260206004820152601860248201527f41636365737369626c653a207a65726f2061646472657373000000000000000060448201526064016104f9565b6001600160a01b038116330361082d5760405162461bcd60e51b815260206004820152601660248201527520b1b1b2b9b9b4b136329d1039b0b6b29030b236b4b760511b60448201526064016104f9565b61083860008261058b565b61051a6000336105ef565b600061084f8133610854565b905090565b60009182526001602090815260408084206001600160a01b0393909316845291905290205460ff1690565b6108883361054d565b6108a45760405162461bcd60e51b81526004016104f990610e3d565b61051a600080516020610fd08339815191528261058b565b610571600080516020610fd0833981519152336105ef565b6108dd3361054d565b6108f95760405162461bcd60e51b81526004016104f990610e3d565b61051a600080516020610ff08339815191528261058b565b600061048c60008051602061101083398151915283610854565b600061048c600080516020610fd083398151915283610854565b61094e3361054d565b61096a5760405162461bcd60e51b81526004016104f990610e3d565b61051a600080516020610ff0833981519152826105ef565b61098b3361054d565b6109a75760405162461bcd60e51b81526004016104f990610e3d565b61051a600080516020610fd0833981519152825b600082815260016020819052604090912001546109d781610a71565b6105b18383610ae6565b6109ea3361054d565b610a065760405162461bcd60e51b81526004016104f990610e3d565b61051a81610761565b610a183361054d565b610a345760405162461bcd60e51b81526004016104f990610e3d565b61051a600080516020610ff0833981519152826109bb565b60006001600160e01b03198216637965db0b60e01b148061048c575061048c82610b4d565b61051a8133610b89565b610a858282610854565b6106695760008281526001602081815260408084206001600160a01b0386168086529252808420805460ff19169093179092559051339285917f2f8788117e7eff1d82e926ec794901d17c78024a50270940304540a733656f0d9190a45050565b610af08282610854565b156106695760008281526001602090815260408083206001600160a01b0385168085529252808320805460ff1916905551339285917ff6391f5c32d9c69d2a47ea670b442974b53935d1edc7fd64eb21e047a839171b9190a45050565b60006301ffc9a760e01b6001600160e01b03198316148061048c5750506001600160e01b03191660009081526020819052604090205460ff1690565b610b938282610854565b61066957610ba081610be2565b610bab836020610bf4565b604051602001610bbc929190610ea4565b60408051601f198184030181529082905262461bcd60e51b82526104f991600401610f19565b606061048c6001600160a01b03831660145b60606000610c03836002610f62565b610c0e906002610f79565b67ffffffffffffffff811115610c2657610c26610f8c565b6040519080825280601f01601f191660200182016040528015610c50576020820181803683370190505b509050600360fc1b81600081518110610c6b57610c6b610fa2565b60200101906001600160f81b031916908160001a905350600f60fb1b81600181518110610c9a57610c9a610fa2565b60200101906001600160f81b031916908160001a9053506000610cbe846002610f62565b610cc9906001610f79565b90505b6001811115610d41576f181899199a1a9b1b9c1cb0b131b232b360811b85600f1660108110610cfd57610cfd610fa2565b1a60f81b828281518110610d1357610d13610fa2565b60200101906001600160f81b031916908160001a90535060049490941c93610d3a81610fb8565b9050610ccc565b508315610d905760405162461bcd60e51b815260206004820181905260248201527f537472696e67733a20686578206c656e67746820696e73756666696369656e7460448201526064016104f9565b9392505050565b600060208284031215610da957600080fd5b81356001600160e01b031981168114610d9057600080fd5b80356001600160a01b0381168114610dd857600080fd5b919050565b600060208284031215610def57600080fd5b610d9082610dc1565b600060208284031215610e0a57600080fd5b5035919050565b60008060408385031215610e2457600080fd5b82359150610e3460208401610dc1565b90509250929050565b60208082526023908201527f41757468436f6e74726f6c3a2043616c6c6572206973206e6f7420616e20616460408201526236b4b760e91b606082015260800190565b60005b83811015610e9b578181015183820152602001610e83565b50506000910152565b7f416363657373436f6e74726f6c3a206163636f756e7420000000000000000000815260008351610edc816017850160208801610e80565b7001034b99036b4b9b9b4b733903937b6329607d1b6017918401918201528351610f0d816028840160208801610e80565b01602801949350505050565b6020815260008251806020840152610f38816040850160208701610e80565b601f01601f19169190910160400192915050565b634e487b7160e01b600052601160045260246000fd5b808202811582820484141761048c5761048c610f4c565b8082018082111561048c5761048c610f4c565b634e487b7160e01b600052604160045260246000fd5b634e487b7160e01b600052603260045260246000fd5b600081610fc757610fc7610f4c565b50600019019056fef0887ba65ee2024ea881d91b74c2450ef19e1557f03bed3ea9f16b037cbe2dc9523a704056dcd17bcf83bed8b68c59416dac1119be77755efe3bde0a64e46e0cbf02bad7114723a857a3af46cea17b778a3a951c96f183784d9a2448cc479ab6a164736f6c6343000813000a",
  "linkReferences": {},
  "deployedLinkReferences": {}
}