{
  "_format": "hh-sol-artifact-1",
  "contractName": "L1BridgeRegistryProxy",
  "sourceName": "contracts/layer2/L1BridgeRegistryProxy.sol",
  "abi": [
    {
      "anonymous": false,
      "inputs": [
        {
          "indexed": true,
          "internalType": "bytes32",
          "name": "role",
          "type": "bytes32"
        },
        {
          "indexed": true,
          "internalType": "bytes32",
          "name": "previousAdminRole",
          "type": "bytes32"
        },
        {
          "indexed": true,
          "internalType": "bytes32",
          "name": "newAdminRole",
          "type": "bytes32"
        }
      ],
      "name": "RoleAdminChanged",
      "type": "event"
    },
    {
      "anonymous": false,
      "inputs": [
        {
          "indexed": true,
          "internalType": "bytes32",
          "name": "role",
          "type": "bytes32"
        },
        {
          "indexed": true,
          "internalType": "address",
          "name": "account",
          "type": "address"
        },
        {
          "indexed": true,
          "internalType": "address",
          "name": "sender",
          "type": "address"
        }
      ],
      "name": "RoleGranted",
      "type": "event"
    },
    {
      "anonymous": false,
      "inputs": [
        {
          "indexed": true,
          "internalType": "bytes32",
          "name": "role",
          "type": "bytes32"
        },
        {
          "indexed": true,
          "internalType": "address",
          "name": "account",
          "type": "address"
        },
        {
          "indexed": true,
          "internalType": "address",
          "name": "sender",
          "type": "address"
        }
      ],
      "name": "RoleRevoked",
      "type": "event"
    },
    {
      "anonymous": false,
      "inputs": [
        {
          "indexed": true,
          "internalType": "address",
          "name": "impl",
          "type": "address"
        },
        {
          "indexed": false,
          "internalType": "bool",
          "name": "alive",
          "type": "bool"
        }
      ],
      "name": "SetAliveImplementation",
      "type": "event"
    },
    {
      "anonymous": false,
      "inputs": [
        {
          "indexed": true,
          "internalType": "bytes4",
          "name": "selector",
          "type": "bytes4"
        },
        {
          "indexed": true,
          "internalType": "address",
          "name": "impl",
          "type": "address"
        }
      ],
      "name": "SetSelectorImplementation",
      "type": "event"
    },
    {
      "anonymous": false,
      "inputs": [
        {
          "indexed": true,
          "internalType": "address",
          "name": "implementation",
          "type": "address"
        }
      ],
      "name": "Upgraded",
      "type": "event"
    },
    {
      "stateMutability": "payable",
      "type": "fallback"
    },
    {
      "inputs": [],
      "name": "DEFAULT_ADMIN_ROLE",
      "outputs": [
        {
          "internalType": "bytes32",
          "name": "",
          "type": "bytes32"
        }
      ],
      "stateMutability": "view",
      "type": "function"
    },
    {
      "inputs": [],
      "name": "MANAGER_ROLE",
      "outputs": [
        {
          "internalType": "bytes32",
          "name": "",
          "type": "bytes32"
        }
      ],
      "stateMutability": "view",
      "type": "function"
    },
    {
      "inputs": [],
      "name": "REGISTRANT_ROLE",
      "outputs": [
        {
          "internalType": "bytes32",
          "name": "",
          "type": "bytes32"
        }
      ],
      "stateMutability": "view",
      "type": "function"
    },
    {
      "inputs": [
        {
          "internalType": "address",
          "name": "account",
          "type": "address"
        }
      ],
      "name": "addAdmin",
      "outputs": [],
      "stateMutability": "nonpayable",
      "type": "function"
    },
    {
      "inputs": [
        {
          "internalType": "address",
          "name": "account",
          "type": "address"
        }
      ],
      "name": "addManager",
      "outputs": [],
      "stateMutability": "nonpayable",
      "type": "function"
    },
    {
      "inputs": [
        {
          "internalType": "address",
          "name": "account",
          "type": "address"
        }
      ],
      "name": "addRegistrant",
      "outputs": [],
      "stateMutability": "nonpayable",
      "type": "function"
    },
    {
      "inputs": [
        {
          "internalType": "address",
          "name": "",
          "type": "address"
        }
      ],
      "name": "aliveImplementation",
      "outputs": [
        {
          "internalType": "bool",
          "name": "",
          "type": "bool"
        }
      ],
      "stateMutability": "view",
      "type": "function"
    },
    {
      "inputs": [
        {
          "internalType": "bytes32",
          "name": "role",
          "type": "bytes32"
        }
      ],
      "name": "getRoleAdmin",
      "outputs": [
        {
          "internalType": "bytes32",
          "name": "",
          "type": "bytes32"
        }
      ],
      "stateMutability": "view",
      "type": "function"
    },
    {
      "inputs": [
        {
          "internalType": "bytes4",
          "name": "_selector",
          "type": "bytes4"
        }
      ],
      "name": "getSelectorImplementation2",
      "outputs": [
        {
          "internalType": "address",
          "name": "impl",
          "type": "address"
        }
      ],
      "stateMutability": "view",
      "type": "function"
    },
    {
      "inputs": [
        {
          "internalType": "bytes32",
          "name": "role",
          "type": "bytes32"
        },
        {
          "internalType": "address",
          "name": "account",
          "type": "address"
        }
      ],
      "name": "grantRole",
      "outputs": [],
      "stateMutability": "nonpayable",
      "type": "function"
    },
    {
      "inputs": [
        {
          "internalType": "bytes32",
          "name": "role",
          "type": "bytes32"
        },
        {
          "internalType": "address",
          "name": "account",
          "type": "address"
        }
      ],
      "name": "hasRole",
      "outputs": [
        {
          "internalType": "bool",
          "name": "",
          "type": "bool"
        }
      ],
      "stateMutability": "view",
      "type": "function"
    },
    {
      "inputs": [],
      "name": "implementation",
      "outputs": [
        {
          "internalType": "address",
          "name": "",
          "type": "address"
        }
      ],
      "stateMutability": "view",
      "type": "function"
    },
    {
      "inputs": [
        {
          "internalType": "uint256",
          "name": "_index",
          "type": "uint256"
        }
      ],
      "name": "implementation2",
      "outputs": [
        {
          "internalType": "address",
          "name": "",
          "type": "address"
        }
      ],
      "stateMutability": "view",
      "type": "function"
    },
    {
      "inputs": [
        {
          "internalType": "address",
          "name": "account",
          "type": "address"
        }
      ],
      "name": "isAdmin",
      "outputs": [
        {
          "internalType": "bool",
          "name": "",
          "type": "bool"
        }
      ],
      "stateMutability": "view",
      "type": "function"
    },
    {
      "inputs": [
        {
          "internalType": "address",
          "name": "account",
          "type": "address"
        }
      ],
      "name": "isManager",
      "outputs": [
        {
          "internalType": "bool",
          "name": "",
          "type": "bool"
        }
      ],
      "stateMutability": "view",
      "type": "function"
    },
    {
      "inputs": [],
      "name": "isOwner",
      "outputs": [
        {
          "internalType": "bool",
          "name": "",
          "type": "bool"
        }
      ],
      "stateMutability": "view",
      "type": "function"
    },
    {
      "inputs": [
        {
          "internalType": "address",
          "name": "account",
          "type": "address"
        }
      ],
      "name": "isRegistrant",
      "outputs": [
        {
          "internalType": "bool",
          "name": "",
          "type": "bool"
        }
      ],
      "stateMutability": "view",
      "type": "function"
    },
    {
      "inputs": [
        {
          "internalType": "address",
          "name": "",
          "type": "address"
        }
      ],
      "name": "l1Bridge",
      "outputs": [
        {
          "internalType": "bool",
          "name": "",
          "type": "bool"
        }
      ],
      "stateMutability": "view",
      "type": "function"
    },
    {
      "inputs": [
        {
          "internalType": "address",
          "name": "",
          "type": "address"
        }
      ],
      "name": "l2TON",
      "outputs": [
        {
          "internalType": "address",
          "name": "",
          "type": "address"
        }
      ],
      "stateMutability": "view",
      "type": "function"
    },
    {
      "inputs": [],
      "name": "layer2Manager",
      "outputs": [
        {
          "internalType": "address",
          "name": "",
          "type": "address"
        }
      ],
      "stateMutability": "view",
      "type": "function"
    },
    {
      "inputs": [],
      "name": "pauseProxy",
      "outputs": [
        {
          "internalType": "bool",
          "name": "",
          "type": "bool"
        }
      ],
      "stateMutability": "view",
      "type": "function"
    },
    {
      "inputs": [
        {
          "internalType": "address",
          "name": "",
          "type": "address"
        }
      ],
      "name": "portal",
      "outputs": [
        {
          "internalType": "bool",
          "name": "",
          "type": "bool"
        }
      ],
      "stateMutability": "view",
      "type": "function"
    },
    {
      "inputs": [
        {
          "internalType": "uint256",
          "name": "",
          "type": "uint256"
        }
      ],
      "name": "proxyImplementation",
      "outputs": [
        {
          "internalType": "address",
          "name": "",
          "type": "address"
        }
      ],
      "stateMutability": "view",
      "type": "function"
    },
    {
      "inputs": [
        {
          "internalType": "address",
          "name": "",
          "type": "address"
        }
      ],
      "name": "rejectRollupConfig",
      "outputs": [
        {
          "internalType": "bool",
          "name": "",
          "type": "bool"
        }
      ],
      "stateMutability": "view",
      "type": "function"
    },
    {
      "inputs": [
        {
          "internalType": "address",
          "name": "account",
          "type": "address"
        }
      ],
      "name": "removeAdmin",
      "outputs": [],
      "stateMutability": "nonpayable",
      "type": "function"
    },
    {
      "inputs": [
        {
          "internalType": "address",
          "name": "account",
          "type": "address"
        }
      ],
      "name": "removeManager",
      "outputs": [],
      "stateMutability": "nonpayable",
      "type": "function"
    },
    {
      "inputs": [
        {
          "internalType": "address",
          "name": "account",
          "type": "address"
        }
      ],
      "name": "removeRegistrant",
      "outputs": [],
      "stateMutability": "nonpayable",
      "type": "function"
    },
    {
      "inputs": [],
      "name": "renounceManager",
      "outputs": [],
      "stateMutability": "nonpayable",
      "type": "function"
    },
    {
      "inputs": [],
      "name": "renounceOwnership",
      "outputs": [],
      "stateMutability": "nonpayable",
      "type": "function"
    },
    {
      "inputs": [],
      "name": "renounceRegistrant",
      "outputs": [],
      "stateMutability": "nonpayable",
      "type": "function"
    },
    {
      "inputs": [
        {
          "internalType": "bytes32",
          "name": "role",
          "type": "bytes32"
        },
        {
          "internalType": "address",
          "name": "account",
          "type": "address"
        }
      ],
      "name": "renounceRole",
      "outputs": [],
      "stateMutability": "nonpayable",
      "type": "function"
    },
    {
      "inputs": [
        {
          "internalType": "address",
          "name": "account",
          "type": "address"
        }
      ],
      "name": "revokeManager",
      "outputs": [],
      "stateMutability": "nonpayable",
      "type": "function"
    },
    {
      "inputs": [
        {
          "internalType": "address",
          "name": "account",
          "type": "address"
        }
      ],
      "name": "revokeRegistrant",
      "outputs": [],
      "stateMutability": "nonpayable",
      "type": "function"
    },
    {
      "inputs": [
        {
          "internalType": "bytes32",
          "name": "role",
          "type": "bytes32"
        },
        {
          "internalType": "address",
          "name": "account",
          "type": "address"
        }
      ],
      "name": "revokeRole",
      "outputs": [],
      "stateMutability": "nonpayable",
      "type": "function"
    },
    {
      "inputs": [
        {
          "internalType": "address",
          "name": "",
          "type": "address"
        }
      ],
      "name": "rollupType",
      "outputs": [
        {
          "internalType": "uint8",
          "name": "",
          "type": "uint8"
        }
      ],
      "stateMutability": "view",
      "type": "function"
    },
    {
      "inputs": [],
      "name": "seigManager",
      "outputs": [
        {
          "internalType": "address",
          "name": "",
          "type": "address"
        }
      ],
      "stateMutability": "view",
      "type": "function"
    },
    {
      "inputs": [],
      "name": "seigniorageCommittee",
      "outputs": [
        {
          "internalType": "address",
          "name": "",
          "type": "address"
        }
      ],
      "stateMutability": "view",
      "type": "function"
    },
    {
      "inputs": [
        {
          "internalType": "bytes4",
          "name": "",
          "type": "bytes4"
        }
      ],
      "name": "selectorImplementation",
      "outputs": [
        {
          "internalType": "address",
          "name": "",
          "type": "address"
        }
      ],
      "stateMutability": "view",
      "type": "function"
    },
    {
      "inputs": [
        {
          "internalType": "address",
          "name": "newImplementation",
          "type": "address"
        },
        {
          "internalType": "bool",
          "name": "_alive",
          "type": "bool"
        }
      ],
      "name": "setAliveImplementation2",
      "outputs": [],
      "stateMutability": "nonpayable",
      "type": "function"
    },
    {
      "inputs": [
        {
          "internalType": "address",
          "name": "newImplementation",
          "type": "address"
        },
        {
          "internalType": "uint256",
          "name": "_index",
          "type": "uint256"
        },
        {
          "internalType": "bool",
          "name": "_alive",
          "type": "bool"
        }
      ],
      "name": "setImplementation2",
      "outputs": [],
      "stateMutability": "nonpayable",
      "type": "function"
    },
    {
      "inputs": [
        {
          "internalType": "bool",
          "name": "_pause",
          "type": "bool"
        }
      ],
      "name": "setProxyPause",
      "outputs": [],
      "stateMutability": "nonpayable",
      "type": "function"
    },
    {
      "inputs": [
        {
          "internalType": "bytes4[]",
          "name": "_selectors",
          "type": "bytes4[]"
        },
        {
          "internalType": "address",
          "name": "_imp",
          "type": "address"
        }
      ],
      "name": "setSelectorImplementations2",
      "outputs": [],
      "stateMutability": "nonpayable",
      "type": "function"
    },
    {
      "inputs": [
        {
          "internalType": "bytes4",
          "name": "interfaceId",
          "type": "bytes4"
        }
      ],
      "name": "supportsInterface",
      "outputs": [
        {
          "internalType": "bool",
          "name": "",
          "type": "bool"
        }
      ],
      "stateMutability": "view",
      "type": "function"
    },
    {
      "inputs": [],
      "name": "ton",
      "outputs": [
        {
          "internalType": "address",
          "name": "",
          "type": "address"
        }
      ],
      "stateMutability": "view",
      "type": "function"
    },
    {
      "inputs": [
        {
          "internalType": "address",
          "name": "newAdmin",
          "type": "address"
        }
      ],
      "name": "transferAdmin",
      "outputs": [],
      "stateMutability": "nonpayable",
      "type": "function"
    },
    {
      "inputs": [
        {
          "internalType": "address",
          "name": "newAdmin",
          "type": "address"
        }
      ],
      "name": "transferOwnership",
      "outputs": [],
      "stateMutability": "nonpayable",
      "type": "function"
    },
    {
      "inputs": [
        {
          "internalType": "address",
          "name": "impl",
          "type": "address"
        }
      ],
      "name": "upgradeTo",
      "outputs": [],
      "stateMutability": "nonpayable",
      "type": "function"
    },
    {
      "stateMutability": "payable",
      "type": "receive"
    }
  ],
  "bytecode": "0x608060408181523461011257600090818052600560205280822033835260205260ff8183205416156100c7575b7faf290d8680820aad922855f39b306097b20e28774d6c1ad35a20325630c3a02c9081835260056020528260018282200181815491557fbd79b86ffe0ab8e8776151514217cd7cacd52c909f66475c3af44e129f0b00ff93848380a460017f12090aa55130d5a2442eb84fc286ca6e600db6c50b6c5d9b6d0d929f0e2d8ce8918285528420019183835493558380a4611f3990816101188239f35b8180526005602052808220338352602052808220600160ff198254161790553333837f2f8788117e7eff1d82e926ec794901d17c78024a50270940304540a733656f0d8180a461002c565b600080fdfe60806040526004361015610018575b36611d2557611ce9565b60003560e01c806301ffc9a7146102fe57806316b5d5bd146102f95780631785f53c146102f4578063248a9ca3146102ef57806324d7806c146102ea5780632977c31f146102e55780632d06177a146102e05780632f2ff15d146102db57806335556fe3146102d657806335583e6c146102d157806336568abe146102cc5780633659cfe6146102c7578063377e32e614610254578063391e3b37146102c25780634a5df50f146102bd5780634b7aa5d4146102b857806350d2a276146102b3578063550d01a3146102ae5780635c60da1b146102a95780635cc797d8146102a457806363a8fd891461029f5780636f5b142b1461029a5780636fb7f558146102955780637048027514610290578063715018a61461028b57806375829def146102865780637cb00d25146102815780637cd5f6631461027c57806386ad05b6146102775780638b8f4a651461024a5780638cfc9347146102725780638d4fdb401461026d5780638f32d59b1461026857806391d1485414610263578063a217fddf1461025e578063a2cc097914610259578063ac18de4314610254578063b30347c01461024f578063b911135f1461024a578063bbfcfc1e14610245578063cc48b94714610240578063d00491c61461023b578063d547741f14610236578063ec87621c14610231578063f2fde38b1461022c578063f3ae2415146102275763f8b91abe0361000e5761147b565b611429565b611404565b6113db565b61139c565b611332565b611309565b61127a565b611098565b61123b565b610870565b6111fc565b6111e0565b61119a565b611163565b61112a565b6110cc565b611046565b610f6c565b610f14565b610e44565b610e2a565b610d3e565b610d15565b610cec565b610cc9565b610c72565b610c3e565b610bff565b610bb9565b610b7e565b610996565b610959565b610790565b6106fe565b6106d5565b6106b9565b610682565b610581565b610542565b6104f2565b6104c3565b6103e8565b610393565b61031a565b6001600160e01b031981160361031557565b600080fd5b346103155760203660031901126103155760043561033781610303565b6001600160e01b031916637965db0b60e01b8114801561035f575b6020906040519015158152f35b506301ffc9a760e01b8114801561037a575b60209150610352565b506000526004602052602060ff60406000205416610371565b34610315576000366003190112610315576006546040516001600160a01b039091168152602090f35b600435906001600160a01b038216820361031557565b602435906001600160a01b038216820361031557565b34610315576020366003190112610315576104016103bc565b61041261040d336114fb565b611a9c565b600080805260056020527f05b8ccbb9d4d8fb16ea74ce3c29a41f1b461fbdaff4714a0d9a8eb05499746bd5490919061044a906115e9565b8180526005602090815260408084206001600160a01b0384166000908152925290205460ff16610478575080f35b8180526005602090815260408084206001600160a01b038416600090815292529020805460ff1916905533906001600160a01b031682600080516020611eed8339815191528180a480f35b346103155760203660031901126103155760043560005260056020526020600160406000200154604051908152f35b3461031557602036600319011261031557602060ff6105366105126103bc565b600080526005845260406000209060018060a01b0316600052602052604060002090565b54166040519015158152f35b34610315576020366003190112610315576001600160a01b036105636103bc565b16600052600c602052602060ff604060002054166040519015158152f35b346103155760203660031901126103155761059a6103bc565b6105a661040d336114fb565b600080516020611ead833981519152600081815260056020527f67f351182989509d05df317024ac600e03d0c404c1b07ecdc5d72ea1208a722b54909291906105ee906115e9565b8083526005602090815260408085206001600160a01b03851660009081529252902060ff905b54161561061f578280f35b8083526005602090815260408085206001600160a01b038516600090815292529020805460ff1916600117905533916001600160a01b0316907f2f8788117e7eff1d82e926ec794901d17c78024a50270940304540a733656f0d8480a438808280f35b346103155760403660031901126103155760043561069e6103d2565b60009180835260056020526105ee60016040852001546115e9565b34610315576000366003190112610315576106d333611858565b005b3461031557600036600319011261031557600d546040516001600160a01b039091168152602090f35b34610315576040366003190112610315576107176103d2565b336001600160a01b03821603610733576106d3906004356118f8565b60405162461bcd60e51b815260206004820152602f60248201527f416363657373436f6e74726f6c3a2063616e206f6e6c792072656e6f756e636560448201526e103937b632b9903337b91039b2b63360891b6064820152608490fd5b34610315576020366003190112610315576107a96103bc565b336000908152600080516020611f0d833981519152602052604081209091906107d79060ff905b5416611a9c565b6001600160a01b03811690811561083b5782805260016020526040832054610814919061080f906001600160a01b0316841415611b4c565b611dc0565b7fbc7cd75a20ee27fd9adebab32041f755214dbc6bffa90cc0225b39da2e5c2d3b8280a280f35b60405162461bcd60e51b815260206004820152600d60248201526c696e707574206973207a65726f60981b6044820152606490fd5b34610315576020366003190112610315576108896103bc565b61089561040d336114fb565b600080516020611ead833981519152600081815260056020527f67f351182989509d05df317024ac600e03d0c404c1b07ecdc5d72ea1208a722b54909291906108dd906115e9565b8083526005602090815260408085206001600160a01b0385166000908152925290205460ff1661090b578280f35b8083526005602090815260408085206001600160a01b038516600090815292529020805460ff1916905533916001600160a01b031690600080516020611eed8339815191528480a438808280f35b34610315576020366003190112610315576001600160a01b0361097a6103bc565b166000526009602052602060ff60406000205416604051908152f35b346103155760403660031901126103155767ffffffffffffffff6004358181116103155736602382011215610315578060040135918211610315576024810190602436918460051b010111610315576109ed6103d2565b336000908152600080516020611f0d83398151915260205260408120909390610a189060ff906107d0565b8015610b3a57610a4e610a49610a4284959460018060a01b03166000526002602052604060002090565b5460ff1690565b611b84565b6001600160a01b03928084169290855b838110610a69578680f35b80610ab98688610ab1610aa4610a8b610a86610b35988c8c611bdf565b611bef565b63ffffffff60e01b166000526003602052604060002090565b546001600160a01b031690565b161415611bf9565b610aed83610ace610a8b610a86858a8a611bdf565b80546001600160a01b0319166001600160a01b03909216919091179055565b85610b0c610aff610a86848989611bdf565b6001600160e01b03191690565b7f14ebc1c32aa68f4d766e89f3e546cee249f7df25183fc10ab1568d91c2ce9b7b8a80a3611bd0565b610a5e565b606460405162461bcd60e51b815260206004820152602060248201527f50726f78793a205f73656c6563746f727327732073697a65206973207a65726f6044820152fd5b346103155760203660031901126103155760206001600160a01b0380610ba26103bc565b16600052600e825260406000205416604051908152f35b3461031557602036600319011261031557600435610bd681610303565b63ffffffff60e01b166000526003602052602060018060a01b0360406000205416604051908152f35b34610315576020366003190112610315576001600160a01b03610c206103bc565b166000526002602052602060ff604060002054166040519015158152f35b3461031557600080600319360112610c6f5780806020925260018252604060018060a01b0391205416604051908152f35b80fd5b3461031557604036600319011261031557610c8b6103bc565b602435801515810361031557336000908152600080516020611f0d833981519152602052604090206106d39290610cc49060ff906107d0565b611e58565b3461031557600036600319011261031557602060ff600054166040519015158152f35b34610315576000366003190112610315576020604051600080516020611ecd8339815191528152f35b34610315576000366003190112610315576007546040516001600160a01b039091168152602090f35b3461031557602036600319011261031557610d576103bc565b610d6361040d336114fb565b600080805260056020527f05b8ccbb9d4d8fb16ea74ce3c29a41f1b461fbdaff4714a0d9a8eb05499746bd54909190610d9b906115e9565b8180526005602090815260408084206001600160a01b0384166000908152925290205460ff1615610dca575080f35b8180526005602090815260408084206001600160a01b038416600090815292529020805460ff1916600117905533906001600160a01b0316827f2f8788117e7eff1d82e926ec794901d17c78024a50270940304540a733656f0d8180a480f35b34610315576000366003190112610315576106d3336117cd565b3461031557602036600319011261031557610e5d6103bc565b610e6961040d336114fb565b6001600160a01b0381168015610ecf573314610e9157610e8890611526565b6106d3336117cd565b60405162461bcd60e51b815260206004820152601660248201527520b1b1b2b9b9b4b136329d1039b0b6b29030b236b4b760511b6044820152606490fd5b60405162461bcd60e51b815260206004820152601860248201527f41636365737369626c653a207a65726f206164647265737300000000000000006044820152606490fd5b346103155760203660031901126103155760043580151580910361031557336000908152600080516020611f0d83398151915260205260408120909190610f5d9060ff906107d0565b60ff8019835416911617815580f35b3461031557606036600319011261031557610f856103bc565b60443590811515820361031557336000908152600080516020611f0d83398151915260205260408120909290610fbd9060ff906107d0565b813b1561100157610fd29181610fd557611e58565b80f35b602435845260016020526040842080546001600160a01b0319166001600160a01b038316179055611e58565b60405162461bcd60e51b815260206004820152601b60248201527f50726f78793a206e6f7420636f6e7472616374206164647265737300000000006044820152606490fd5b3461031557602036600319011261031557602060ff6105366110666103bc565b600080516020611ecd8339815191526000526005845260406000209060018060a01b0316600052602052604060002090565b34610315576020366003190112610315576004356000526001602052602060018060a01b0360406000205416604051908152f35b34610315576020366003190112610315576106d36110e86103bc565b3360009081527f67f351182989509d05df317024ac600e03d0c404c1b07ecdc5d72ea1208a722a602052604090206111259060ff905b5416611af4565b611858565b3461031557602036600319011261031557602061115160043561114c81610303565b611c45565b6040516001600160a01b039091168152f35b3461031557600080600319360112610c6f57808052600560209081526040918290203360009081529082529190912060ff90610536565b3461031557604036600319011261031557602060ff6105366111ba6103d2565b6004356000526005845260406000209060018060a01b0316600052602052604060002090565b3461031557600036600319011261031557602060405160008152f35b34610315576020366003190112610315576001600160a01b0361121d6103bc565b16600052600b602052602060ff604060002054166040519015158152f35b34610315576020366003190112610315576001600160a01b0361125c6103bc565b16600052600a602052602060ff604060002054166040519015158152f35b34610315576020366003190112610315576112936103bc565b3360009081527f67f351182989509d05df317024ac600e03d0c404c1b07ecdc5d72ea1208a722a602052604081209091906112d09060ff9061111e565b600080516020611ecd8339815191528083526005602090815260408085206001600160a01b03851660009081529252902060ff90610614565b34610315576000366003190112610315576008546040516001600160a01b039091168152602090f35b34610315576020366003190112610315576106d361134e6103bc565b61135a61040d336114fb565b600080516020611ecd83398151915260005260056020527f495d3ec9f3ad8ec6f8443b0a39852d56b07f6b1efbf2c51564addb326b83978754611125906115e9565b34610315576040366003190112610315576106d36004356113bb6103d2565b908060005260056020526113d66001604060002001546115e9565b6118f8565b34610315576000366003190112610315576020604051600080516020611ead8339815191528152f35b346103155760203660031901126103155761141d6103bc565b610e5d61040d336114fb565b3461031557602036600319011261031557602060ff6105366114496103bc565b600080516020611ead8339815191526000526005845260406000209060018060a01b0316600052602052604060002090565b3461031557600080600319360112610c6f57600080516020611ead833981519152808252600560209081526040808420336000908152925290205460ff166114c1575080f35b80825260056020908152604080842033600090815292529020805460ff1916905533908190600080516020611eed8339815191528480a480f35b6001600160a01b03166000908152600080516020611f0d833981519152602052604090205460ff1690565b600080805260056020527f05b8ccbb9d4d8fb16ea74ce3c29a41f1b461fbdaff4714a0d9a8eb05499746bd5461155b906115e9565b8080526005602090815260408083206001600160a01b0385166000908152925290205460ff161561158a575050565b8080526005602090815260408083206001600160a01b038516600090815292529020805460ff1916600117905533916001600160a01b0316907f2f8788117e7eff1d82e926ec794901d17c78024a50270940304540a733656f0d8180a4565b600081815260056020908152604080832033845290915290205460ff161561160e5750565b339061161861193a565b9160306116248461197d565b5360786116308461198a565b5360295b600181116116e3576116df61169c6116c7866116b961165c8861165789156119bd565b611a08565b611696604051958694611696602087016017907f416363657373436f6e74726f6c3a206163636f756e742000000000000000000081520190565b9061174d565b7001034b99036b4b9b9b4b733903937b6329607d1b815260110190565b03601f19810183528261177a565b60405162461bcd60e51b8152918291600483016117a1565b0390fd5b90600f811690601082101561172557611720916f181899199a1a9b1b9c1cb0b131b232b360811b901a611716848761199a565b5360041c916119ab565b611634565b611967565b60005b83811061173d5750506000910152565b818101518382015260200161172d565b906117606020928281519485920161172a565b0190565b634e487b7160e01b600052604160045260246000fd5b90601f8019910116810190811067ffffffffffffffff82111761179c57604052565b611764565b604091602082526117c1815180928160208601526020868601910161172a565b601f01601f1916010190565b6001600160a01b038116338103610733576001600160a01b0382166000908152600080516020611f0d833981519152602052604081205490929060ff1661181357505050565b61183a908380526005602052604084209060018060a01b0316600052602052604060002090565b805460ff191690553391600080516020611eed8339815191528180a4565b6001600160a01b03811660009081527f495d3ec9f3ad8ec6f8443b0a39852d56b07f6b1efbf2c51564addb326b83978660205260408120600080516020611ecd8339815191529060ff905b54166118ae57505050565b8082526005602090815260408084206001600160a01b038616600090815292529020805460ff1916905533926001600160a01b031691600080516020611eed8339815191529080a4565b600090808252600560205260ff6118a384604085209060018060a01b0316600052602052604060002090565b634e487b7160e01b600052601160045260246000fd5b604051906060820182811067ffffffffffffffff82111761179c57604052602a8252604082602036910137565b634e487b7160e01b600052603260045260246000fd5b8051156117255760200190565b8051600110156117255760210190565b908151811015611725570160200190565b80156119b8576000190190565b611924565b156119c457565b606460405162461bcd60e51b815260206004820152602060248201527f537472696e67733a20686578206c656e67746820696e73756666696369656e746044820152fd5b604051906080820182811067ffffffffffffffff82111761179c576040526042825260603660208401376030611a3d8361197d565b536078611a498361198a565b536041905b60018211611a6457611a619150156119bd565b90565b600f811690601082101561172557611a96916f181899199a1a9b1b9c1cb0b131b232b360811b901a611716848661199a565b90611a4e565b15611aa357565b60405162461bcd60e51b815260206004820152602360248201527f41757468436f6e74726f6c3a2043616c6c6572206973206e6f7420616e20616460448201526236b4b760e91b6064820152608490fd5b15611afb57565b60405162461bcd60e51b8152602060048201526024808201527f41757468436f6e74726f6c3a2043616c6c6572206973206e6f742061206d616e60448201526330b3b2b960e11b6064820152608490fd5b15611b5357565b60405162461bcd60e51b815260206004820152600960248201526839b0b6b29030b2323960b91b6044820152606490fd5b15611b8b57565b60405162461bcd60e51b815260206004820152601860248201527f50726f78793a205f696d70206973206e6f7420616c69766500000000000000006044820152606490fd5b60001981146119b85760010190565b91908110156117255760051b0190565b35611a6181610303565b15611c0057565b60405162461bcd60e51b815260206004820152601d60248201527f4c69717569646974795661756c7450726f78793a2073616d6520696d700000006044820152606490fd5b6001600160e01b0319166000908152600360205260409020546001600160a01b0390811680611c9e57506000805260016020527fa6eef7e35abe7026729641147f7915573c7e97b47efa546f5f6e3230263bcb49541690565b80600052600260205260ff60406000205416611ce457506000805260016020527fa6eef7e35abe7026729641147f7915573c7e97b47efa546f5f6e3230263bcb49541690565b905090565b60405162461bcd60e51b815260206004820152601460248201527331b0b73737ba103932b1b2b4bb329022ba3432b960611b6044820152606490fd5b6000611d3b81356001600160e01b031916611c45565b6001600160a01b038116151580611db4575b15611d6f57818091368280378136915af43d82803e15611d6b573d90f35b3d90fd5b60405162461bcd60e51b815260206004820152601d60248201527f50726f78793a20696d706c204f522070726f78792069732066616c73650000006044820152606490fd5b5060ff82541615611d4d565b803b15611001576000805260016020527fa6eef7e35abe7026729641147f7915573c7e97b47efa546f5f6e3230263bcb4980546001600160a01b0319166001600160a01b03831617905560018060a01b03168060005260026020526040600020600160ff198254161790557f72558d9bfba4210f9ef095c782589484151f6d90f7a81bb3cb9b33efc695d324602060405160018152a2565b60207f72558d9bfba4210f9ef095c782589484151f6d90f7a81bb3cb9b33efc695d3249160018060a01b031692836000526002825260406000209015159060ff1981541660ff8316179055604051908152a256feaf290d8680820aad922855f39b306097b20e28774d6c1ad35a20325630c3a02c12090aa55130d5a2442eb84fc286ca6e600db6c50b6c5d9b6d0d929f0e2d8ce8f6391f5c32d9c69d2a47ea670b442974b53935d1edc7fd64eb21e047a839171b05b8ccbb9d4d8fb16ea74ce3c29a41f1b461fbdaff4714a0d9a8eb05499746bca164736f6c6343000813000a",
  "linkReferences": {},
  "deployedLinkReferences": {}
}