{
  "_format": "hh-sol-artifact-1",
  "contractName": "L1BridgeRegistryProxy",
  "sourceName": "contracts/layer2/L1BridgeRegistryProxy.sol",
  "abi": [
    {
      "anonymous": false,
      "inputs": [
        {
          "indexed": true,
          "internalType": "bytes32",
          "name": "role",
          "type": "bytes32"
        },
        {
          "indexed": true,
          "internalType": "bytes32",
          "name": "previousAdminRole",
          "type": "bytes32"
        },
        {
          "indexed": true,
          "internalType": "bytes32",
          "name": "newAdminRole",
          "type": "bytes32"
        }
      ],
      "name": "RoleAdminChanged",
      "type": "event"
    },
    {
      "anonymous": false,
      "inputs": [
        {
          "indexed": true,
          "internalType": "bytes32",
          "name": "role",
          "type": "bytes32"
        },
        {
          "indexed": true,
          "internalType": "address",
          "name": "account",
          "type": "address"
        },
        {
          "indexed": true,
          "internalType": "address",
          "name": "sender",
          "type": "address"
        }
      ],
      "name": "RoleGranted",
      "type": "event"
    },
    {
      "anonymous": false,
      "inputs": [
        {
          "indexed": true,
          "internalType": "bytes32",
          "name": "role",
          "type": "bytes32"
        },
        {
          "indexed": true,
          "internalType": "address",
          "name": "account",
          "type": "address"
        },
        {
          "indexed": true,
          "internalType": "address",
          "name": "sender",
          "type": "address"
        }
      ],
      "name": "RoleRevoked",
      "type": "event"
    },
    {
      "anonymous": false,
      "inputs": [
        {
          "indexed": true,
          "internalType": "address",
          "name": "impl",
          "type": "address"
        },
        {
          "indexed": false,
          "internalType": "bool",
          "name": "alive",
          "type": "bool"
        }
      ],
      "name": "SetAliveImplementation",
      "type": "event"
    },
    {
      "anonymous": false,
      "inputs": [
        {
          "indexed": true,
          "internalType": "bytes4",
          "name": "selector",
          "type": "bytes4"
        },
        {
          "indexed": true,
          "internalType": "address",
          "name": "impl",
          "type": "address"
        }
      ],
      "name": "SetSelectorImplementation",
      "type": "event"
    },
    {
      "anonymous": false,
      "inputs": [
        {
          "indexed": true,
          "internalType": "address",
          "name": "implementation",
          "type": "address"
        }
      ],
      "name": "Upgraded",
      "type": "event"
    },
    {
      "stateMutability": "payable",
      "type": "fallback"
    },
    {
      "inputs": [],
      "name": "DEFAULT_ADMIN_ROLE",
      "outputs": [
        {
          "internalType": "bytes32",
          "name": "",
          "type": "bytes32"
        }
      ],
      "stateMutability": "view",
      "type": "function"
    },
    {
      "inputs": [],
      "name": "MANAGER_ROLE",
      "outputs": [
        {
          "internalType": "bytes32",
          "name": "",
          "type": "bytes32"
        }
      ],
      "stateMutability": "view",
      "type": "function"
    },
    {
      "inputs": [],
      "name": "REGISTRANT_ROLE",
      "outputs": [
        {
          "internalType": "bytes32",
          "name": "",
          "type": "bytes32"
        }
      ],
      "stateMutability": "view",
      "type": "function"
    },
    {
      "inputs": [
        {
          "internalType": "address",
          "name": "account",
          "type": "address"
        }
      ],
      "name": "addAdmin",
      "outputs": [],
      "stateMutability": "nonpayable",
      "type": "function"
    },
    {
      "inputs": [
        {
          "internalType": "address",
          "name": "account",
          "type": "address"
        }
      ],
      "name": "addManager",
      "outputs": [],
      "stateMutability": "nonpayable",
      "type": "function"
    },
    {
      "inputs": [
        {
          "internalType": "address",
          "name": "account",
          "type": "address"
        }
      ],
      "name": "addRegistrant",
      "outputs": [],
      "stateMutability": "nonpayable",
      "type": "function"
    },
    {
      "inputs": [
        {
          "internalType": "address",
          "name": "",
          "type": "address"
        }
      ],
      "name": "aliveImplementation",
      "outputs": [
        {
          "internalType": "bool",
          "name": "",
          "type": "bool"
        }
      ],
      "stateMutability": "view",
      "type": "function"
    },
    {
      "inputs": [
        {
          "internalType": "bytes32",
          "name": "role",
          "type": "bytes32"
        }
      ],
      "name": "getRoleAdmin",
      "outputs": [
        {
          "internalType": "bytes32",
          "name": "",
          "type": "bytes32"
        }
      ],
      "stateMutability": "view",
      "type": "function"
    },
    {
      "inputs": [
        {
          "internalType": "bytes4",
          "name": "_selector",
          "type": "bytes4"
        }
      ],
      "name": "getSelectorImplementation2",
      "outputs": [
        {
          "internalType": "address",
          "name": "impl",
          "type": "address"
        }
      ],
      "stateMutability": "view",
      "type": "function"
    },
    {
      "inputs": [
        {
          "internalType": "bytes32",
          "name": "role",
          "type": "bytes32"
        },
        {
          "internalType": "address",
          "name": "account",
          "type": "address"
        }
      ],
      "name": "grantRole",
      "outputs": [],
      "stateMutability": "nonpayable",
      "type": "function"
    },
    {
      "inputs": [
        {
          "internalType": "bytes32",
          "name": "role",
          "type": "bytes32"
        },
        {
          "internalType": "address",
          "name": "account",
          "type": "address"
        }
      ],
      "name": "hasRole",
      "outputs": [
        {
          "internalType": "bool",
          "name": "",
          "type": "bool"
        }
      ],
      "stateMutability": "view",
      "type": "function"
    },
    {
      "inputs": [],
      "name": "implementation",
      "outputs": [
        {
          "internalType": "address",
          "name": "",
          "type": "address"
        }
      ],
      "stateMutability": "view",
      "type": "function"
    },
    {
      "inputs": [
        {
          "internalType": "uint256",
          "name": "_index",
          "type": "uint256"
        }
      ],
      "name": "implementation2",
      "outputs": [
        {
          "internalType": "address",
          "name": "",
          "type": "address"
        }
      ],
      "stateMutability": "view",
      "type": "function"
    },
    {
      "inputs": [
        {
          "internalType": "address",
          "name": "account",
          "type": "address"
        }
      ],
      "name": "isAdmin",
      "outputs": [
        {
          "internalType": "bool",
          "name": "",
          "type": "bool"
        }
      ],
      "stateMutability": "view",
      "type": "function"
    },
    {
      "inputs": [
        {
          "internalType": "address",
          "name": "account",
          "type": "address"
        }
      ],
      "name": "isManager",
      "outputs": [
        {
          "internalType": "bool",
          "name": "",
          "type": "bool"
        }
      ],
      "stateMutability": "view",
      "type": "function"
    },
    {
      "inputs": [],
      "name": "isOwner",
      "outputs": [
        {
          "internalType": "bool",
          "name": "",
          "type": "bool"
        }
      ],
      "stateMutability": "view",
      "type": "function"
    },
    {
      "inputs": [
        {
          "internalType": "address",
          "name": "account",
          "type": "address"
        }
      ],
      "name": "isRegistrant",
      "outputs": [
        {
          "internalType": "bool",
          "name": "",
          "type": "bool"
        }
      ],
      "stateMutability": "view",
      "type": "function"
    },
    {
      "inputs": [
        {
          "internalType": "address",
          "name": "",
          "type": "address"
        }
      ],
      "name": "l1Bridge",
      "outputs": [
        {
          "internalType": "bool",
          "name": "",
          "type": "bool"
        }
      ],
      "stateMutability": "view",
      "type": "function"
    },
    {
      "inputs": [],
      "name": "layer2Manager",
      "outputs": [
        {
          "internalType": "address",
          "name": "",
          "type": "address"
        }
      ],
      "stateMutability": "view",
      "type": "function"
    },
    {
      "inputs": [],
      "name": "pauseProxy",
      "outputs": [
        {
          "internalType": "bool",
          "name": "",
          "type": "bool"
        }
      ],
      "stateMutability": "view",
      "type": "function"
    },
    {
      "inputs": [
        {
          "internalType": "address",
          "name": "",
          "type": "address"
        }
      ],
      "name": "portal",
      "outputs": [
        {
          "internalType": "bool",
          "name": "",
          "type": "bool"
        }
      ],
      "stateMutability": "view",
      "type": "function"
    },
    {
      "inputs": [
        {
          "internalType": "uint256",
          "name": "",
          "type": "uint256"
        }
      ],
      "name": "proxyImplementation",
      "outputs": [
        {
          "internalType": "address",
          "name": "",
          "type": "address"
        }
      ],
      "stateMutability": "view",
      "type": "function"
    },
    {
      "inputs": [
        {
          "internalType": "bytes32",
          "name": "",
          "type": "bytes32"
        }
      ],
      "name": "registeredNames",
      "outputs": [
        {
          "internalType": "bool",
          "name": "",
          "type": "bool"
        }
      ],
      "stateMutability": "view",
      "type": "function"
    },
    {
      "inputs": [
        {
          "internalType": "address",
          "name": "account",
          "type": "address"
        }
      ],
      "name": "removeAdmin",
      "outputs": [],
      "stateMutability": "nonpayable",
      "type": "function"
    },
    {
      "inputs": [
        {
          "internalType": "address",
          "name": "account",
          "type": "address"
        }
      ],
      "name": "removeManager",
      "outputs": [],
      "stateMutability": "nonpayable",
      "type": "function"
    },
    {
      "inputs": [
        {
          "internalType": "address",
          "name": "account",
          "type": "address"
        }
      ],
      "name": "removeRegistrant",
      "outputs": [],
      "stateMutability": "nonpayable",
      "type": "function"
    },
    {
      "inputs": [],
      "name": "renounceManager",
      "outputs": [],
      "stateMutability": "nonpayable",
      "type": "function"
    },
    {
      "inputs": [],
      "name": "renounceOwnership",
      "outputs": [],
      "stateMutability": "nonpayable",
      "type": "function"
    },
    {
      "inputs": [],
      "name": "renounceRegistrant",
      "outputs": [],
      "stateMutability": "nonpayable",
      "type": "function"
    },
    {
      "inputs": [
        {
          "internalType": "bytes32",
          "name": "role",
          "type": "bytes32"
        },
        {
          "internalType": "address",
          "name": "account",
          "type": "address"
        }
      ],
      "name": "renounceRole",
      "outputs": [],
      "stateMutability": "nonpayable",
      "type": "function"
    },
    {
      "inputs": [
        {
          "internalType": "address",
          "name": "account",
          "type": "address"
        }
      ],
      "name": "revokeManager",
      "outputs": [],
      "stateMutability": "nonpayable",
      "type": "function"
    },
    {
      "inputs": [
        {
          "internalType": "address",
          "name": "account",
          "type": "address"
        }
      ],
      "name": "revokeRegistrant",
      "outputs": [],
      "stateMutability": "nonpayable",
      "type": "function"
    },
    {
      "inputs": [
        {
          "internalType": "bytes32",
          "name": "role",
          "type": "bytes32"
        },
        {
          "internalType": "address",
          "name": "account",
          "type": "address"
        }
      ],
      "name": "revokeRole",
      "outputs": [],
      "stateMutability": "nonpayable",
      "type": "function"
    },
    {
      "inputs": [
        {
          "internalType": "address",
          "name": "",
          "type": "address"
        }
      ],
      "name": "rollupInfo",
      "outputs": [
        {
          "internalType": "uint8",
          "name": "rollupType",
          "type": "uint8"
        },
        {
          "internalType": "address",
          "name": "l2TON",
          "type": "address"
        },
        {
          "internalType": "bool",
          "name": "rejectedSeigs",
          "type": "bool"
        },
        {
          "internalType": "bool",
          "name": "rejectedL2Deposit",
          "type": "bool"
        },
        {
          "internalType": "string",
          "name": "name",
          "type": "string"
        }
      ],
      "stateMutability": "view",
      "type": "function"
    },
    {
      "inputs": [],
      "name": "seigManager",
      "outputs": [
        {
          "internalType": "address",
          "name": "",
          "type": "address"
        }
      ],
      "stateMutability": "view",
      "type": "function"
    },
    {
      "inputs": [],
      "name": "seigniorageCommittee",
      "outputs": [
        {
          "internalType": "address",
          "name": "",
          "type": "address"
        }
      ],
      "stateMutability": "view",
      "type": "function"
    },
    {
      "inputs": [
        {
          "internalType": "bytes4",
          "name": "",
          "type": "bytes4"
        }
      ],
      "name": "selectorImplementation",
      "outputs": [
        {
          "internalType": "address",
          "name": "",
          "type": "address"
        }
      ],
      "stateMutability": "view",
      "type": "function"
    },
    {
      "inputs": [
        {
          "internalType": "address",
          "name": "newImplementation",
          "type": "address"
        },
        {
          "internalType": "bool",
          "name": "_alive",
          "type": "bool"
        }
      ],
      "name": "setAliveImplementation2",
      "outputs": [],
      "stateMutability": "nonpayable",
      "type": "function"
    },
    {
      "inputs": [
        {
          "internalType": "address",
          "name": "newImplementation",
          "type": "address"
        },
        {
          "internalType": "uint256",
          "name": "_index",
          "type": "uint256"
        },
        {
          "internalType": "bool",
          "name": "_alive",
          "type": "bool"
        }
      ],
      "name": "setImplementation2",
      "outputs": [],
      "stateMutability": "nonpayable",
      "type": "function"
    },
    {
      "inputs": [
        {
          "internalType": "bool",
          "name": "_pause",
          "type": "bool"
        }
      ],
      "name": "setProxyPause",
      "outputs": [],
      "stateMutability": "nonpayable",
      "type": "function"
    },
    {
      "inputs": [
        {
          "internalType": "bytes4[]",
          "name": "_selectors",
          "type": "bytes4[]"
        },
        {
          "internalType": "address",
          "name": "_imp",
          "type": "address"
        }
      ],
      "name": "setSelectorImplementations2",
      "outputs": [],
      "stateMutability": "nonpayable",
      "type": "function"
    },
    {
      "inputs": [
        {
          "internalType": "bytes4",
          "name": "interfaceId",
          "type": "bytes4"
        }
      ],
      "name": "supportsInterface",
      "outputs": [
        {
          "internalType": "bool",
          "name": "",
          "type": "bool"
        }
      ],
      "stateMutability": "view",
      "type": "function"
    },
    {
      "inputs": [],
      "name": "ton",
      "outputs": [
        {
          "internalType": "address",
          "name": "",
          "type": "address"
        }
      ],
      "stateMutability": "view",
      "type": "function"
    },
    {
      "inputs": [
        {
          "internalType": "address",
          "name": "newAdmin",
          "type": "address"
        }
      ],
      "name": "transferAdmin",
      "outputs": [],
      "stateMutability": "nonpayable",
      "type": "function"
    },
    {
      "inputs": [
        {
          "internalType": "address",
          "name": "newAdmin",
          "type": "address"
        }
      ],
      "name": "transferOwnership",
      "outputs": [],
      "stateMutability": "nonpayable",
      "type": "function"
    },
    {
      "inputs": [
        {
          "internalType": "address",
          "name": "impl",
          "type": "address"
        }
      ],
      "name": "upgradeTo",
      "outputs": [],
      "stateMutability": "nonpayable",
      "type": "function"
    },
    {
      "stateMutability": "payable",
      "type": "receive"
    }
  ],
  "bytecode": "0x608060408181523461011257600090818052600560205280822033835260205260ff8183205416156100c7575b7faf290d8680820aad922855f39b306097b20e28774d6c1ad35a20325630c3a02c9081835260056020528260018282200181815491557fbd79b86ffe0ab8e8776151514217cd7cacd52c909f66475c3af44e129f0b00ff93848380a460017f12090aa55130d5a2442eb84fc286ca6e600db6c50b6c5d9b6d0d929f0e2d8ce8918285528420019183835493558380a461201590816101188239f35b8180526005602052808220338352602052808220600160ff198254161790553333837f2f8788117e7eff1d82e926ec794901d17c78024a50270940304540a733656f0d8180a461002c565b600080fdfe60806040526004361015610018575b36611e0157611dc5565b60003560e01c806301ffc9a7146102ee57806316b5d5bd146102e95780631785f53c146102e4578063248a9ca3146102df57806324d7806c146102da57806325b9535f146102d55780632d06177a146102d05780632f2ff15d146102cb57806335556fe3146102c657806335583e6c146102c157806336568abe146102bc5780633659cfe6146102b7578063377e32e61461024e5780634a5df50f146102b257806350d2a276146102ad578063550d01a3146102a85780635c60da1b146102a35780635cc797d81461029e57806363a8fd89146102995780636f5b142b146102945780636fb7f5581461028f578063704802751461028a578063715018a61461028557806375829def146102805780637cb00d251461027b5780637cd5f6631461027657806386ad05b6146102715780638b8f4a65146102445780638cfc93471461026c5780638d4fdb40146102675780638f32d59b1461026257806391d148541461025d578063a217fddf14610258578063a2cc097914610253578063ac18de431461024e578063b30347c014610249578063b911135f14610244578063bbfcfc1e1461023f578063cc48b9471461023a578063d00491c614610235578063d3c215d814610230578063d547741f1461022b578063ec87621c14610226578063f2fde38b14610221578063f3ae24151461021c5763f8b91abe0361000e576115d5565b611583565b61155e565b611535565b6114f6565b6113c5565b61129c565b611273565b6111e4565b611002565b6111a5565b610852565b611166565b61114a565b611104565b6110cd565b611094565b611036565b610fb0565b610ed6565b610e7e565b610dae565b610d94565b610ca8565b610c7f565b610c56565b610c33565b610bdc565b610ba8565b610b69565b610b23565b61093b565b610772565b6106e0565b6106b7565b61069b565b610664565b610563565b610532565b6104e2565b6104b3565b6103d8565b610383565b61030a565b6001600160e01b031981160361030557565b600080fd5b3461030557602036600319011261030557600435610327816102f3565b6001600160e01b031916637965db0b60e01b8114801561034f575b6020906040519015158152f35b506301ffc9a760e01b8114801561036a575b60209150610342565b506000526004602052602060ff60406000205416610361565b34610305576000366003190112610305576006546040516001600160a01b039091168152602090f35b600435906001600160a01b038216820361030557565b602435906001600160a01b038216820361030557565b34610305576020366003190112610305576103f16103ac565b6104026103fd33611655565b611b78565b600080805260056020527f05b8ccbb9d4d8fb16ea74ce3c29a41f1b461fbdaff4714a0d9a8eb05499746bd5490919061043a90611743565b8180526005602090815260408084206001600160a01b0384166000908152925290205460ff16610468575080f35b8180526005602090815260408084206001600160a01b038416600090815292529020805460ff1916905533906001600160a01b031682600080516020611fc98339815191528180a480f35b346103055760203660031901126103055760043560005260056020526020600160406000200154604051908152f35b3461030557602036600319011261030557602060ff6105266105026103ac565b600080526005845260406000209060018060a01b0316600052602052604060002090565b54166040519015158152f35b3461030557602036600319011261030557600435600052600d602052602060ff604060002054166040519015158152f35b346103055760203660031901126103055761057c6103ac565b6105886103fd33611655565b600080516020611f89833981519152600081815260056020527f67f351182989509d05df317024ac600e03d0c404c1b07ecdc5d72ea1208a722b54909291906105d090611743565b8083526005602090815260408085206001600160a01b03851660009081529252902060ff905b541615610601578280f35b8083526005602090815260408085206001600160a01b038516600090815292529020805460ff1916600117905533916001600160a01b0316907f2f8788117e7eff1d82e926ec794901d17c78024a50270940304540a733656f0d8480a438808280f35b34610305576040366003190112610305576004356106806103c2565b60009180835260056020526105d06001604085200154611743565b34610305576000366003190112610305576106b533611937565b005b34610305576000366003190112610305576009546040516001600160a01b039091168152602090f35b34610305576040366003190112610305576106f96103c2565b336001600160a01b03821603610715576106b5906004356119d7565b60405162461bcd60e51b815260206004820152602f60248201527f416363657373436f6e74726f6c3a2063616e206f6e6c792072656e6f756e636560448201526e103937b632b9903337b91039b2b63360891b6064820152608490fd5b346103055760203660031901126103055761078b6103ac565b336000908152600080516020611fe9833981519152602052604081209091906107b99060ff905b5416611b78565b6001600160a01b03811690811561081d57828052600160205260408320546107f691906107f1906001600160a01b0316841415611c28565b611e9c565b7fbc7cd75a20ee27fd9adebab32041f755214dbc6bffa90cc0225b39da2e5c2d3b8280a280f35b60405162461bcd60e51b815260206004820152600d60248201526c696e707574206973207a65726f60981b6044820152606490fd5b346103055760203660031901126103055761086b6103ac565b6108776103fd33611655565b600080516020611f89833981519152600081815260056020527f67f351182989509d05df317024ac600e03d0c404c1b07ecdc5d72ea1208a722b54909291906108bf90611743565b8083526005602090815260408085206001600160a01b0385166000908152925290205460ff166108ed578280f35b8083526005602090815260408085206001600160a01b038516600090815292529020805460ff1916905533916001600160a01b031690600080516020611fc98339815191528480a438808280f35b346103055760403660031901126103055767ffffffffffffffff6004358181116103055736602382011215610305578060040135918211610305576024810190602436918460051b010111610305576109926103c2565b336000908152600080516020611fe9833981519152602052604081209093906109bd9060ff906107b2565b8015610adf576109f36109ee6109e784959460018060a01b03166000526002602052604060002090565b5460ff1690565b611c60565b6001600160a01b03928084169290855b838110610a0e578680f35b80610a5e8688610a56610a49610a30610a2b610ada988c8c611cbb565b611ccb565b63ffffffff60e01b166000526003602052604060002090565b546001600160a01b031690565b161415611cd5565b610a9283610a73610a30610a2b858a8a611cbb565b80546001600160a01b0319166001600160a01b03909216919091179055565b85610ab1610aa4610a2b848989611cbb565b6001600160e01b03191690565b7f14ebc1c32aa68f4d766e89f3e546cee249f7df25183fc10ab1568d91c2ce9b7b8a80a3611cac565b610a03565b606460405162461bcd60e51b815260206004820152602060248201527f50726f78793a205f73656c6563746f727327732073697a65206973207a65726f6044820152fd5b3461030557602036600319011261030557600435610b40816102f3565b63ffffffff60e01b166000526003602052602060018060a01b0360406000205416604051908152f35b34610305576020366003190112610305576001600160a01b03610b8a6103ac565b166000526002602052602060ff604060002054166040519015158152f35b3461030557600080600319360112610bd95780806020925260018252604060018060a01b0391205416604051908152f35b80fd5b3461030557604036600319011261030557610bf56103ac565b602435801515810361030557336000908152600080516020611fe9833981519152602052604090206106b59290610c2e9060ff906107b2565b611f34565b3461030557600036600319011261030557602060ff600054166040519015158152f35b34610305576000366003190112610305576020604051600080516020611fa98339815191528152f35b34610305576000366003190112610305576007546040516001600160a01b039091168152602090f35b3461030557602036600319011261030557610cc16103ac565b610ccd6103fd33611655565b600080805260056020527f05b8ccbb9d4d8fb16ea74ce3c29a41f1b461fbdaff4714a0d9a8eb05499746bd54909190610d0590611743565b8180526005602090815260408084206001600160a01b0384166000908152925290205460ff1615610d34575080f35b8180526005602090815260408084206001600160a01b038416600090815292529020805460ff1916600117905533906001600160a01b0316827f2f8788117e7eff1d82e926ec794901d17c78024a50270940304540a733656f0d8180a480f35b34610305576000366003190112610305576106b5336118ac565b3461030557602036600319011261030557610dc76103ac565b610dd36103fd33611655565b6001600160a01b0381168015610e39573314610dfb57610df290611680565b6106b5336118ac565b60405162461bcd60e51b815260206004820152601660248201527520b1b1b2b9b9b4b136329d1039b0b6b29030b236b4b760511b6044820152606490fd5b60405162461bcd60e51b815260206004820152601860248201527f41636365737369626c653a207a65726f206164647265737300000000000000006044820152606490fd5b346103055760203660031901126103055760043580151580910361030557336000908152600080516020611fe983398151915260205260408120909190610ec79060ff906107b2565b60ff8019835416911617815580f35b3461030557606036600319011261030557610eef6103ac565b60443590811515820361030557336000908152600080516020611fe983398151915260205260408120909290610f279060ff906107b2565b813b15610f6b57610f3c9181610f3f57611f34565b80f35b602435845260016020526040842080546001600160a01b0319166001600160a01b038316179055611f34565b60405162461bcd60e51b815260206004820152601b60248201527f50726f78793a206e6f7420636f6e7472616374206164647265737300000000006044820152606490fd5b3461030557602036600319011261030557602060ff610526610fd06103ac565b600080516020611fa98339815191526000526005845260406000209060018060a01b0316600052602052604060002090565b34610305576020366003190112610305576004356000526001602052602060018060a01b0360406000205416604051908152f35b34610305576020366003190112610305576106b56110526103ac565b3360009081527f67f351182989509d05df317024ac600e03d0c404c1b07ecdc5d72ea1208a722a6020526040902061108f9060ff905b5416611bd0565b611937565b346103055760203660031901126103055760206110bb6004356110b6816102f3565b611d21565b6040516001600160a01b039091168152f35b3461030557600080600319360112610bd957808052600560209081526040918290203360009081529082529190912060ff90610526565b3461030557604036600319011261030557602060ff6105266111246103c2565b6004356000526005845260406000209060018060a01b0316600052602052604060002090565b3461030557600036600319011261030557602060405160008152f35b34610305576020366003190112610305576001600160a01b036111876103ac565b16600052600c602052602060ff604060002054166040519015158152f35b34610305576020366003190112610305576001600160a01b036111c66103ac565b16600052600b602052602060ff604060002054166040519015158152f35b34610305576020366003190112610305576111fd6103ac565b3360009081527f67f351182989509d05df317024ac600e03d0c404c1b07ecdc5d72ea1208a722a6020526040812090919061123a9060ff90611088565b600080516020611fa98339815191528083526005602090815260408085206001600160a01b03851660009081529252902060ff906105f6565b34610305576000366003190112610305576008546040516001600160a01b039091168152602090f35b34610305576020366003190112610305576106b56112b86103ac565b6112c46103fd33611655565b600080516020611fa983398151915260005260056020527f495d3ec9f3ad8ec6f8443b0a39852d56b07f6b1efbf2c51564addb326b8397875461108f90611743565b634e487b7160e01b600052604160045260246000fd5b90601f8019910116810190811067ffffffffffffffff82111761133e57604052565b611306565b60005b8381106113565750506000910152565b8181015183820152602001611346565b9060209161137f81518092818552858086019101611343565b601f01601f1916010190565b919260a09360ff6113c2979693168452600180861b0316602084015215156040830152151560608201528160808201520190611366565b90565b3461030557602080600319360112610305576001600160a01b03806113e86103ac565b16916000928352600a81526040832080549360018092019060405193819383549283821c948285169485156114ec575b84871086146114d85786895260208901959081156114b55750600114611473575b898961146f8a61144b818c038261131c565b60405193849360ff8260b01c169160ff808260a81c16928260081c1691168661138b565b0390f35b611487919650949394600052602060002090565b8386106114a4575050509101905061144b8261146f388080611439565b805485870152948201948101611487565b60ff19168652505050505090151560051b01905061144b8261146f388080611439565b634e487b7160e01b83526022600452602483fd5b95607f1695611418565b34610305576040366003190112610305576106b56004356115156103c2565b90806000526005602052611530600160406000200154611743565b6119d7565b34610305576000366003190112610305576020604051600080516020611f898339815191528152f35b34610305576020366003190112610305576115776103ac565b610dc76103fd33611655565b3461030557602036600319011261030557602060ff6105266115a36103ac565b600080516020611f898339815191526000526005845260406000209060018060a01b0316600052602052604060002090565b3461030557600080600319360112610bd957600080516020611f89833981519152808252600560209081526040808420336000908152925290205460ff1661161b575080f35b80825260056020908152604080842033600090815292529020805460ff1916905533908190600080516020611fc98339815191528480a480f35b6001600160a01b03166000908152600080516020611fe9833981519152602052604090205460ff1690565b600080805260056020527f05b8ccbb9d4d8fb16ea74ce3c29a41f1b461fbdaff4714a0d9a8eb05499746bd546116b590611743565b8080526005602090815260408083206001600160a01b0385166000908152925290205460ff16156116e4575050565b8080526005602090815260408083206001600160a01b038516600090815292529020805460ff1916600117905533916001600160a01b0316907f2f8788117e7eff1d82e926ec794901d17c78024a50270940304540a733656f0d8180a4565b600081815260056020908152604080832033845290915290205460ff16156117685750565b3390611772611a19565b91603061177e84611a5c565b53607861178a84611a69565b5360295b6001811161183d576118396117f6611821866118136117b6886117b18915611a9c565b611ae7565b6117f06040519586946117f0602087016017907f416363657373436f6e74726f6c3a206163636f756e742000000000000000000081520190565b90611884565b7001034b99036b4b9b9b4b733903937b6329607d1b815260110190565b03601f19810183528261131c565b60405162461bcd60e51b81529182916004830161189b565b0390fd5b90600f811690601082101561187f5761187a916f181899199a1a9b1b9c1cb0b131b232b360811b901a6118708487611a79565b5360041c91611a8a565b61178e565b611a46565b9061189760209282815194859201611343565b0190565b9060206113c2928181520190611366565b6001600160a01b038116338103610715576001600160a01b0382166000908152600080516020611fe9833981519152602052604081205490929060ff166118f257505050565b611919908380526005602052604084209060018060a01b0316600052602052604060002090565b805460ff191690553391600080516020611fc98339815191528180a4565b6001600160a01b03811660009081527f495d3ec9f3ad8ec6f8443b0a39852d56b07f6b1efbf2c51564addb326b83978660205260408120600080516020611fa98339815191529060ff905b541661198d57505050565b8082526005602090815260408084206001600160a01b038616600090815292529020805460ff1916905533926001600160a01b031691600080516020611fc98339815191529080a4565b600090808252600560205260ff61198284604085209060018060a01b0316600052602052604060002090565b634e487b7160e01b600052601160045260246000fd5b604051906060820182811067ffffffffffffffff82111761133e57604052602a8252604082602036910137565b634e487b7160e01b600052603260045260246000fd5b80511561187f5760200190565b80516001101561187f5760210190565b90815181101561187f570160200190565b8015611a97576000190190565b611a03565b15611aa357565b606460405162461bcd60e51b815260206004820152602060248201527f537472696e67733a20686578206c656e67746820696e73756666696369656e746044820152fd5b604051906080820182811067ffffffffffffffff82111761133e576040526042825260603660208401376030611b1c83611a5c565b536078611b2883611a69565b536041905b60018211611b40576113c2915015611a9c565b600f811690601082101561187f57611b72916f181899199a1a9b1b9c1cb0b131b232b360811b901a6118708486611a79565b90611b2d565b15611b7f57565b60405162461bcd60e51b815260206004820152602360248201527f41757468436f6e74726f6c3a2043616c6c6572206973206e6f7420616e20616460448201526236b4b760e91b6064820152608490fd5b15611bd757565b60405162461bcd60e51b8152602060048201526024808201527f41757468436f6e74726f6c3a2043616c6c6572206973206e6f742061206d616e60448201526330b3b2b960e11b6064820152608490fd5b15611c2f57565b60405162461bcd60e51b815260206004820152600960248201526839b0b6b29030b2323960b91b6044820152606490fd5b15611c6757565b60405162461bcd60e51b815260206004820152601860248201527f50726f78793a205f696d70206973206e6f7420616c69766500000000000000006044820152606490fd5b6000198114611a975760010190565b919081101561187f5760051b0190565b356113c2816102f3565b15611cdc57565b60405162461bcd60e51b815260206004820152601d60248201527f4c69717569646974795661756c7450726f78793a2073616d6520696d700000006044820152606490fd5b6001600160e01b0319166000908152600360205260409020546001600160a01b0390811680611d7a57506000805260016020527fa6eef7e35abe7026729641147f7915573c7e97b47efa546f5f6e3230263bcb49541690565b80600052600260205260ff60406000205416611dc057506000805260016020527fa6eef7e35abe7026729641147f7915573c7e97b47efa546f5f6e3230263bcb49541690565b905090565b60405162461bcd60e51b815260206004820152601460248201527331b0b73737ba103932b1b2b4bb329022ba3432b960611b6044820152606490fd5b6000611e1781356001600160e01b031916611d21565b6001600160a01b038116151580611e90575b15611e4b57818091368280378136915af43d82803e15611e47573d90f35b3d90fd5b60405162461bcd60e51b815260206004820152601d60248201527f50726f78793a20696d706c204f522070726f78792069732066616c73650000006044820152606490fd5b5060ff82541615611e29565b803b15610f6b576000805260016020527fa6eef7e35abe7026729641147f7915573c7e97b47efa546f5f6e3230263bcb4980546001600160a01b0319166001600160a01b03831617905560018060a01b03168060005260026020526040600020600160ff198254161790557f72558d9bfba4210f9ef095c782589484151f6d90f7a81bb3cb9b33efc695d324602060405160018152a2565b60207f72558d9bfba4210f9ef095c782589484151f6d90f7a81bb3cb9b33efc695d3249160018060a01b031692836000526002825260406000209015159060ff1981541660ff8316179055604051908152a256feaf290d8680820aad922855f39b306097b20e28774d6c1ad35a20325630c3a02c12090aa55130d5a2442eb84fc286ca6e600db6c50b6c5d9b6d0d929f0e2d8ce8f6391f5c32d9c69d2a47ea670b442974b53935d1edc7fd64eb21e047a839171b05b8ccbb9d4d8fb16ea74ce3c29a41f1b461fbdaff4714a0d9a8eb05499746bca164736f6c6343000813000a",
  "linkReferences": {},
  "deployedLinkReferences": {}
}