{
  "_format": "hh-sol-artifact-1",
  "contractName": "PowerTONUpgrade",
  "sourceName": "contracts/stake/powerton/PowerTONUpgrade.sol",
  "abi": [
    {
      "anonymous": false,
      "inputs": [
        {
          "indexed": false,
          "internalType": "address",
          "name": "token",
          "type": "address"
        },
        {
          "indexed": false,
          "internalType": "uint256",
          "name": "amount",
          "type": "uint256"
        }
      ],
      "name": "Distributed",
      "type": "event"
    },
    {
      "anonymous": false,
      "inputs": [
        {
          "indexed": false,
          "internalType": "address",
          "name": "layer2",
          "type": "address"
        },
        {
          "indexed": true,
          "internalType": "address",
          "name": "account",
          "type": "address"
        },
        {
          "indexed": false,
          "internalType": "uint256",
          "name": "amount",
          "type": "uint256"
        }
      ],
      "name": "OnDeposit",
      "type": "event"
    },
    {
      "anonymous": false,
      "inputs": [
        {
          "indexed": false,
          "internalType": "address",
          "name": "layer2",
          "type": "address"
        },
        {
          "indexed": true,
          "internalType": "address",
          "name": "account",
          "type": "address"
        },
        {
          "indexed": false,
          "internalType": "uint256",
          "name": "amount",
          "type": "uint256"
        }
      ],
      "name": "OnWithdraw",
      "type": "event"
    },
    {
      "anonymous": false,
      "inputs": [
        {
          "indexed": true,
          "internalType": "bytes32",
          "name": "role",
          "type": "bytes32"
        },
        {
          "indexed": true,
          "internalType": "bytes32",
          "name": "previousAdminRole",
          "type": "bytes32"
        },
        {
          "indexed": true,
          "internalType": "bytes32",
          "name": "newAdminRole",
          "type": "bytes32"
        }
      ],
      "name": "RoleAdminChanged",
      "type": "event"
    },
    {
      "anonymous": false,
      "inputs": [
        {
          "indexed": true,
          "internalType": "bytes32",
          "name": "role",
          "type": "bytes32"
        },
        {
          "indexed": true,
          "internalType": "address",
          "name": "account",
          "type": "address"
        },
        {
          "indexed": true,
          "internalType": "address",
          "name": "sender",
          "type": "address"
        }
      ],
      "name": "RoleGranted",
      "type": "event"
    },
    {
      "anonymous": false,
      "inputs": [
        {
          "indexed": true,
          "internalType": "bytes32",
          "name": "role",
          "type": "bytes32"
        },
        {
          "indexed": true,
          "internalType": "address",
          "name": "account",
          "type": "address"
        },
        {
          "indexed": true,
          "internalType": "address",
          "name": "sender",
          "type": "address"
        }
      ],
      "name": "RoleRevoked",
      "type": "event"
    },
    {
      "anonymous": false,
      "inputs": [
        {
          "indexed": false,
          "internalType": "uint256",
          "name": "amount",
          "type": "uint256"
        }
      ],
      "name": "Swapped",
      "type": "event"
    },
    {
      "inputs": [],
      "name": "ADMIN_ROLE",
      "outputs": [
        {
          "internalType": "bytes32",
          "name": "",
          "type": "bytes32"
        }
      ],
      "stateMutability": "view",
      "type": "function"
    },
    {
      "inputs": [],
      "name": "BURNER_ROLE",
      "outputs": [
        {
          "internalType": "bytes32",
          "name": "",
          "type": "bytes32"
        }
      ],
      "stateMutability": "view",
      "type": "function"
    },
    {
      "inputs": [],
      "name": "DEFAULT_ADMIN_ROLE",
      "outputs": [
        {
          "internalType": "bytes32",
          "name": "",
          "type": "bytes32"
        }
      ],
      "stateMutability": "view",
      "type": "function"
    },
    {
      "inputs": [],
      "name": "MINTER_ROLE",
      "outputs": [
        {
          "internalType": "bytes32",
          "name": "",
          "type": "bytes32"
        }
      ],
      "stateMutability": "view",
      "type": "function"
    },
    {
      "inputs": [
        {
          "internalType": "address",
          "name": "account",
          "type": "address"
        }
      ],
      "name": "addAdmin",
      "outputs": [],
      "stateMutability": "nonpayable",
      "type": "function"
    },
    {
      "inputs": [],
      "name": "autocoinageSnapshot",
      "outputs": [
        {
          "internalType": "address",
          "name": "",
          "type": "address"
        }
      ],
      "stateMutability": "view",
      "type": "function"
    },
    {
      "inputs": [],
      "name": "distribute",
      "outputs": [],
      "stateMutability": "nonpayable",
      "type": "function"
    },
    {
      "inputs": [],
      "name": "dividiedPool",
      "outputs": [
        {
          "internalType": "contract ILockTOSDividend",
          "name": "",
          "type": "address"
        }
      ],
      "stateMutability": "view",
      "type": "function"
    },
    {
      "inputs": [
        {
          "internalType": "bytes32",
          "name": "role",
          "type": "bytes32"
        }
      ],
      "name": "getRoleAdmin",
      "outputs": [
        {
          "internalType": "bytes32",
          "name": "",
          "type": "bytes32"
        }
      ],
      "stateMutability": "view",
      "type": "function"
    },
    {
      "inputs": [],
      "name": "getWTONBalance",
      "outputs": [
        {
          "internalType": "uint256",
          "name": "",
          "type": "uint256"
        }
      ],
      "stateMutability": "view",
      "type": "function"
    },
    {
      "inputs": [
        {
          "internalType": "bytes32",
          "name": "role",
          "type": "bytes32"
        },
        {
          "internalType": "address",
          "name": "account",
          "type": "address"
        }
      ],
      "name": "grantRole",
      "outputs": [],
      "stateMutability": "nonpayable",
      "type": "function"
    },
    {
      "inputs": [
        {
          "internalType": "bytes32",
          "name": "role",
          "type": "bytes32"
        },
        {
          "internalType": "address",
          "name": "account",
          "type": "address"
        }
      ],
      "name": "hasRole",
      "outputs": [
        {
          "internalType": "bool",
          "name": "",
          "type": "bool"
        }
      ],
      "stateMutability": "view",
      "type": "function"
    },
    {
      "inputs": [
        {
          "internalType": "address",
          "name": "account",
          "type": "address"
        }
      ],
      "name": "isAdmin",
      "outputs": [
        {
          "internalType": "bool",
          "name": "",
          "type": "bool"
        }
      ],
      "stateMutability": "view",
      "type": "function"
    },
    {
      "inputs": [],
      "name": "layer2Registry",
      "outputs": [
        {
          "internalType": "address",
          "name": "",
          "type": "address"
        }
      ],
      "stateMutability": "view",
      "type": "function"
    },
    {
      "inputs": [],
      "name": "migratedL2",
      "outputs": [
        {
          "internalType": "bool",
          "name": "",
          "type": "bool"
        }
      ],
      "stateMutability": "view",
      "type": "function"
    },
    {
      "inputs": [
        {
          "internalType": "address",
          "name": "layer2",
          "type": "address"
        },
        {
          "internalType": "address",
          "name": "account",
          "type": "address"
        },
        {
          "internalType": "uint256",
          "name": "amount",
          "type": "uint256"
        }
      ],
      "name": "onDeposit",
      "outputs": [],
      "stateMutability": "nonpayable",
      "type": "function"
    },
    {
      "inputs": [
        {
          "internalType": "address",
          "name": "layer2",
          "type": "address"
        },
        {
          "internalType": "address",
          "name": "account",
          "type": "address"
        },
        {
          "internalType": "uint256",
          "name": "amount",
          "type": "uint256"
        }
      ],
      "name": "onWithdraw",
      "outputs": [],
      "stateMutability": "nonpayable",
      "type": "function"
    },
    {
      "inputs": [],
      "name": "pauseProxy",
      "outputs": [
        {
          "internalType": "bool",
          "name": "",
          "type": "bool"
        }
      ],
      "stateMutability": "view",
      "type": "function"
    },
    {
      "inputs": [
        {
          "internalType": "address",
          "name": "account",
          "type": "address"
        }
      ],
      "name": "removeAdmin",
      "outputs": [],
      "stateMutability": "nonpayable",
      "type": "function"
    },
    {
      "inputs": [
        {
          "internalType": "bytes32",
          "name": "role",
          "type": "bytes32"
        },
        {
          "internalType": "address",
          "name": "account",
          "type": "address"
        }
      ],
      "name": "renounceRole",
      "outputs": [],
      "stateMutability": "nonpayable",
      "type": "function"
    },
    {
      "inputs": [
        {
          "internalType": "bytes32",
          "name": "role",
          "type": "bytes32"
        },
        {
          "internalType": "address",
          "name": "account",
          "type": "address"
        }
      ],
      "name": "revokeRole",
      "outputs": [],
      "stateMutability": "nonpayable",
      "type": "function"
    },
    {
      "inputs": [],
      "name": "seigManager",
      "outputs": [
        {
          "internalType": "address",
          "name": "",
          "type": "address"
        }
      ],
      "stateMutability": "view",
      "type": "function"
    },
    {
      "inputs": [
        {
          "internalType": "address",
          "name": "_autocoinageSnapshot",
          "type": "address"
        }
      ],
      "name": "setAutocoinageSnapshot",
      "outputs": [],
      "stateMutability": "nonpayable",
      "type": "function"
    },
    {
      "inputs": [
        {
          "internalType": "address",
          "name": "_seigManager",
          "type": "address"
        }
      ],
      "name": "setSeigManager",
      "outputs": [],
      "stateMutability": "nonpayable",
      "type": "function"
    },
    {
      "inputs": [
        {
          "internalType": "bytes4",
          "name": "interfaceId",
          "type": "bytes4"
        }
      ],
      "name": "supportsInterface",
      "outputs": [
        {
          "internalType": "bool",
          "name": "",
          "type": "bool"
        }
      ],
      "stateMutability": "view",
      "type": "function"
    },
    {
      "inputs": [],
      "name": "tos",
      "outputs": [
        {
          "internalType": "contract ITOS",
          "name": "",
          "type": "address"
        }
      ],
      "stateMutability": "view",
      "type": "function"
    },
    {
      "inputs": [
        {
          "internalType": "address",
          "name": "newAdmin",
          "type": "address"
        }
      ],
      "name": "transferAdmin",
      "outputs": [],
      "stateMutability": "nonpayable",
      "type": "function"
    },
    {
      "inputs": [],
      "name": "uniswapRouter",
      "outputs": [
        {
          "internalType": "contract ISwapRouter",
          "name": "",
          "type": "address"
        }
      ],
      "stateMutability": "view",
      "type": "function"
    },
    {
      "inputs": [
        {
          "internalType": "uint256",
          "name": "amount",
          "type": "uint256"
        }
      ],
      "name": "updateSeigniorage",
      "outputs": [],
      "stateMutability": "nonpayable",
      "type": "function"
    },
    {
      "inputs": [],
      "name": "wton",
      "outputs": [
        {
          "internalType": "address",
          "name": "",
          "type": "address"
        }
      ],
      "stateMutability": "view",
      "type": "function"
    }
  ],
  "bytecode": "0x6080806040523461001657611257908161001c8239f35b600080fdfe608060408181526004908136101561001657600080fd5b600090813560e01c93846301ffc9a714610b6757508363027aa37b14610b525783631373fa9414610b115783631785f53c14610ae0578363248a9ca314610ab657836324d7806c14610a64578363282c51f314610a2b5783632f2ff15d1461097f578363309d72731461095857836336568abe146108c8578363412c6d5014610171578363442ff62d146108a657836363a8fd89146108865783636fb7f5581461085f578363704802751461079c578363735de9f71461077557836375829def1461061e57836375b238fc146105f75783637657f20a1461058d578363784330c01461056657836389f395de1461053f5783638d62d9491461051557836391d14854146104cf578363a1f5f50e146104aa578363a217fddf14610491578363cf2a239c1461046a578363d539139314610431578363d547741f146103ef578363e4fc6b6d146101765750505063f850ffaa1461017157600080fd5b610bec565b346103eb57816003193601126103eb5761018e6111af565b9081156103b25760018060a01b039384845460081c168560075416835191636eb1769f60e11b835230848401528160248401526020928381604481855afa9081156103a857908894939291859161036d575b5087116102f2575b50505050846007541685855460081c16813b156102ee578351631f72642160e31b81526001600160a01b03909116838201908152602081018690529091869183919082908490829060400103925af180156102e457610290575b5050825490516001600160a01b0360089290921c9094161683526020830152907fb649c98f58055c520df0dcb5709eff2e931217ff2fb1e21376130d31bbb1c0af9080604081015b0390a180f35b67ffffffffffffffff8196959296116102d157825292935061028a7fb649c98f58055c520df0dcb5709eff2e931217ff2fb1e21376130d31bbb1c0af610242565b634e487b7160e01b825260418652602482fd5b83513d87823e3d90fd5b8580fd5b604483928751958693849263095ea7b360e01b84528984015260001960248401525af1801561036357610328575b8086926101e8565b81813d831161035c575b61033c8183610fc9565b81010312610358575180151503610354578580610320565b8380fd5b8480fd5b503d610332565b84513d88823e3d90fd5b848096508193949592503d83116103a1575b6103898183610fc9565b8101031261039d579087939291518a6101e0565b8780fd5b503d61037f565b86513d8a823e3d90fd5b5162461bcd60e51b81526020818501526014602482015273062616c616e6365206f662057544f4e20697320360641b6044820152606490fd5b5080fd5b82903461042d578060031936011261042d5761042a91356104256001610413610bd6565b93838752600660205286200154610c5a565b611100565b80f35b8280fd5b346103eb57816003193601126103eb57602090517ff0887ba65ee2024ea881d91b74c2450ef19e1557f03bed3ea9f16b037cbe2dc98152f35b823461042d578260031936011261042d575490516001600160a01b03909116815260209150f35b346103eb57816003193601126103eb5751908152602090f35b346103eb57816003193601126103eb5760209060ff60055460a01c1690519015158152f35b823461042d578160031936011261042d578160209360ff926104ef610bd6565b90358252600686528282206001600160a01b039091168252855220549151911615158152f35b346103eb57816003193601126103eb579054905160089190911c6001600160a01b03168152602090f35b346103eb57816003193601126103eb5760015490516001600160a01b039091168152602090f35b346103eb57816003193601126103eb5760075490516001600160a01b039091168152602090f35b346103eb5760203660031901126103eb576105d460ff6105ab610bbb565b9260008051602061122b8339815191528552600660205280852033865260205284205416611158565b60018060a01b03166bffffffffffffffffffffffff60a01b600554161760055580f35b346103eb57816003193601126103eb576020905160008051602061122b8339815191528152f35b823461042d57602091826003193601126103545761063a610bbb565b61064b61064633610c1d565b611158565b6001600160a01b0316918215610734578233146106fa575060008051602061122b833981519152928385526006815261068960018387200154610c5a565b83855260068152818520838652815260ff8286205416156106af575b8461042a33611001565b8385526006815281852083865290528320805460ff1916600117905533917f2f8788117e7eff1d82e926ec794901d17c78024a50270940304540a733656f0d8480a4818080806106a5565b83606492519162461bcd60e51b8352820152601660248201527520b1b1b2b9b9b4b136329d1039b0b6b29030b236b4b760511b6044820152fd5b83606492519162461bcd60e51b8352820152601860248201527f41636365737369626c653a207a65726f206164647265737300000000000000006044820152fd5b346103eb57816003193601126103eb5760025490516001600160a01b039091168152602090f35b346103eb576020908160031936011261042d576107b7610bbb565b906107c461064633610c1d565b60008051602061122b83398151915292838552600681526107ea60018387200154610c5a565b838552600681528185206001600160a01b039093168086529281528185205460ff1615610815578480f35b8385526006815281852083865290528320805460ff1916600117905533917f2f8788117e7eff1d82e926ec794901d17c78024a50270940304540a733656f0d8480a4818080808480f35b346103eb57816003193601126103eb5760055490516001600160a01b039091168152602090f35b346103eb57816003193601126103eb5760ff602092541690519015158152f35b346103eb57816003193601126103eb576020906108c16111af565b9051908152f35b91346103eb57826003193601126103eb576108e1610bd6565b90336001600160a01b038316036108fd579061042a9135611100565b608490602085519162461bcd60e51b8352820152602f60248201527f416363657373436f6e74726f6c3a2063616e206f6e6c792072656e6f756e636560448201526e103937b632b9903337b91039b2b63360891b6064820152fd5b346103eb57816003193601126103eb5760035490516001600160a01b039091168152602090f35b823461042d578160031936011261042d57359061099a610bd6565b9082845260066020526109b260018286200154610c5a565b828452600660209081528185206001600160a01b039093168086529290528084205460ff16156109e0578380f35b82845260066020528084208285526020528320600160ff1982541617905533917f2f8788117e7eff1d82e926ec794901d17c78024a50270940304540a733656f0d8480a48180808380f35b346103eb57816003193601126103eb57602090517f9667e80708b6eeeb0053fa0cca44e028ff548e2a9f029edfeac87c118b08b7c88152f35b346103eb5760203660031901126103eb5760ff81602093610a83610bbb565b60008051602061122b8339815191528252600686528282206001600160a01b039091168252855220549151911615158152f35b823461042d57602036600319011261042d5781602093600192358152600685522001549051908152f35b5034610b0e576020366003190112610b0e5761042a610afd610bbb565b610b0961064633610c1d565b611001565b80fd5b346103eb5760203660031901126103eb57610b2f60ff6105ab610bbb565b60018060a01b03166bffffffffffffffffffffffff60a01b600354161760035580f35b5034610b0e576020366003190112610b0e5780f35b9050823461042d57602036600319011261042d573563ffffffff60e01b811680910361042d5760209250637965db0b60e01b8114908115610baa575b5015158152f35b6301ffc9a760e01b14905083610ba3565b600435906001600160a01b0382168203610bd157565b600080fd5b602435906001600160a01b0382168203610bd157565b34610bd1576060366003190112610bd1576001600160a01b0360043581811603610bd15760243590811603610bd157005b6001600160a01b031660009081527f31f4bc5980931cfff8fcc0887a354f492c853dee1983bdef4d9cb3e8a5ff876e602052604090205460ff1690565b60009080825260209060068252604090818420338552835260ff828520541615610c845750505050565b81519367ffffffffffffffff336060870182811188821017610f92578552602a87528587019385368637875115610f7e5760308553875191600192831015610f6a57607860218a015360295b838111610f005750610ebe5790855192608084019084821090821117610eaa57865260428352868301936060368637835115610e9657603085538351821015610e965790607860218501536041915b818311610e2857505050610de65792610db46048610da59794610dd8946044989785519a8b93610d7c8b86019a7f416363657373436f6e74726f6c3a206163636f756e74200000000000000000008c525180926037880190610fa6565b8401917001034b99036b4b9b9b4b733903937b6329607d1b603784015251809386840190610fa6565b01036028810189520187610fc9565b5194859362461bcd60e51b8552600485015251809281602486015285850190610fa6565b601f01601f19168101030190fd5b60648585519062461bcd60e51b825280600483015260248201527f537472696e67733a20686578206c656e67746820696e73756666696369656e746044820152fd5b909192600f81166010811015610e82576f181899199a1a9b1b9c1cb0b131b232b360811b901a610e588587611131565b5360041c928015610e6e57600019019190610d1f565b634e487b7160e01b82526011600452602482fd5b634e487b7160e01b83526032600452602483fd5b634e487b7160e01b81526032600452602490fd5b634e487b7160e01b85526041600452602485fd5b60648787519062461bcd60e51b825280600483015260248201527f537472696e67733a20686578206c656e67746820696e73756666696369656e746044820152fd5b90600f81166010811015610f56576f181899199a1a9b1b9c1cb0b131b232b360811b901a610f2e838c611131565b5360041c908015610f425760001901610cd0565b634e487b7160e01b86526011600452602486fd5b634e487b7160e01b87526032600452602487fd5b634e487b7160e01b85526032600452602485fd5b634e487b7160e01b84526032600452602484fd5b634e487b7160e01b84526041600452602484fd5b60005b838110610fb95750506000910152565b8181015183820152602001610fa9565b90601f8019910116810190811067ffffffffffffffff821117610feb57604052565b634e487b7160e01b600052604160045260246000fd5b6001600160a01b03163381036110a35760008181527f31f4bc5980931cfff8fcc0887a354f492c853dee1983bdef4d9cb3e8a5ff876e602052604081205490919060008051602061122b8339815191529060ff1661105e57505050565b8083526006602052604083208284526020526040832060ff1981541690557ff6391f5c32d9c69d2a47ea670b442974b53935d1edc7fd64eb21e047a839171b339380a4565b60405162461bcd60e51b815260206004820152602f60248201527f416363657373436f6e74726f6c3a2063616e206f6e6c792072656e6f756e636560448201526e103937b632b9903337b91039b2b63360891b6064820152608490fd5b906000918083526006602052604083209160018060a01b03169182845260205260ff60408420541661105e57505050565b908151811015611142570160200190565b634e487b7160e01b600052603260045260246000fd5b1561115f57565b60405162461bcd60e51b815260206004820152602260248201527f41636365737369626c653a2043616c6c6572206973206e6f7420616e2061646d60448201526134b760f11b6064820152608490fd5b6000546040516370a0823160e01b8152306004820152906020908290602490829060081c6001600160a01b03165afa90811561121e576000916111f0575090565b906020823d8211611216575b8161120960209383610fc9565b81010312610b0e57505190565b3d91506111fc565b6040513d6000823e3d90fdfedf8b4c520ffe197c5343c6f5aec59570151ef9a492f2c624fd45ddde6135ec42a164736f6c6343000813000a",
  "linkReferences": {},
  "deployedLinkReferences": {}
}