{
  "_format": "hh-sol-artifact-1",
  "contractName": "PowerTONUpgrade",
  "sourceName": "contracts/stake/powerton/PowerTONUpgrade.sol",
  "abi": [
    {
      "anonymous": false,
      "inputs": [
        {
          "indexed": false,
          "internalType": "address",
          "name": "token",
          "type": "address"
        },
        {
          "indexed": false,
          "internalType": "uint256",
          "name": "amount",
          "type": "uint256"
        }
      ],
      "name": "Distributed",
      "type": "event"
    },
    {
      "anonymous": false,
      "inputs": [
        {
          "indexed": false,
          "internalType": "address",
          "name": "layer2",
          "type": "address"
        },
        {
          "indexed": true,
          "internalType": "address",
          "name": "account",
          "type": "address"
        },
        {
          "indexed": false,
          "internalType": "uint256",
          "name": "amount",
          "type": "uint256"
        }
      ],
      "name": "OnDeposit",
      "type": "event"
    },
    {
      "anonymous": false,
      "inputs": [
        {
          "indexed": false,
          "internalType": "address",
          "name": "layer2",
          "type": "address"
        },
        {
          "indexed": true,
          "internalType": "address",
          "name": "account",
          "type": "address"
        },
        {
          "indexed": false,
          "internalType": "uint256",
          "name": "amount",
          "type": "uint256"
        }
      ],
      "name": "OnWithdraw",
      "type": "event"
    },
    {
      "anonymous": false,
      "inputs": [
        {
          "indexed": true,
          "internalType": "bytes32",
          "name": "role",
          "type": "bytes32"
        },
        {
          "indexed": true,
          "internalType": "bytes32",
          "name": "previousAdminRole",
          "type": "bytes32"
        },
        {
          "indexed": true,
          "internalType": "bytes32",
          "name": "newAdminRole",
          "type": "bytes32"
        }
      ],
      "name": "RoleAdminChanged",
      "type": "event"
    },
    {
      "anonymous": false,
      "inputs": [
        {
          "indexed": true,
          "internalType": "bytes32",
          "name": "role",
          "type": "bytes32"
        },
        {
          "indexed": true,
          "internalType": "address",
          "name": "account",
          "type": "address"
        },
        {
          "indexed": true,
          "internalType": "address",
          "name": "sender",
          "type": "address"
        }
      ],
      "name": "RoleGranted",
      "type": "event"
    },
    {
      "anonymous": false,
      "inputs": [
        {
          "indexed": true,
          "internalType": "bytes32",
          "name": "role",
          "type": "bytes32"
        },
        {
          "indexed": true,
          "internalType": "address",
          "name": "account",
          "type": "address"
        },
        {
          "indexed": true,
          "internalType": "address",
          "name": "sender",
          "type": "address"
        }
      ],
      "name": "RoleRevoked",
      "type": "event"
    },
    {
      "anonymous": false,
      "inputs": [
        {
          "indexed": false,
          "internalType": "uint256",
          "name": "amount",
          "type": "uint256"
        }
      ],
      "name": "Swapped",
      "type": "event"
    },
    {
      "inputs": [],
      "name": "ADMIN_ROLE",
      "outputs": [
        {
          "internalType": "bytes32",
          "name": "",
          "type": "bytes32"
        }
      ],
      "stateMutability": "view",
      "type": "function"
    },
    {
      "inputs": [],
      "name": "BURNER_ROLE",
      "outputs": [
        {
          "internalType": "bytes32",
          "name": "",
          "type": "bytes32"
        }
      ],
      "stateMutability": "view",
      "type": "function"
    },
    {
      "inputs": [],
      "name": "DEFAULT_ADMIN_ROLE",
      "outputs": [
        {
          "internalType": "bytes32",
          "name": "",
          "type": "bytes32"
        }
      ],
      "stateMutability": "view",
      "type": "function"
    },
    {
      "inputs": [],
      "name": "MINTER_ROLE",
      "outputs": [
        {
          "internalType": "bytes32",
          "name": "",
          "type": "bytes32"
        }
      ],
      "stateMutability": "view",
      "type": "function"
    },
    {
      "inputs": [
        {
          "internalType": "address",
          "name": "account",
          "type": "address"
        }
      ],
      "name": "addAdmin",
      "outputs": [],
      "stateMutability": "nonpayable",
      "type": "function"
    },
    {
      "inputs": [],
      "name": "autocoinageSnapshot",
      "outputs": [
        {
          "internalType": "address",
          "name": "",
          "type": "address"
        }
      ],
      "stateMutability": "view",
      "type": "function"
    },
    {
      "inputs": [],
      "name": "distribute",
      "outputs": [],
      "stateMutability": "nonpayable",
      "type": "function"
    },
    {
      "inputs": [],
      "name": "dividiedPool",
      "outputs": [
        {
          "internalType": "contract ILockTOSDividend",
          "name": "",
          "type": "address"
        }
      ],
      "stateMutability": "view",
      "type": "function"
    },
    {
      "inputs": [
        {
          "internalType": "bytes32",
          "name": "role",
          "type": "bytes32"
        }
      ],
      "name": "getRoleAdmin",
      "outputs": [
        {
          "internalType": "bytes32",
          "name": "",
          "type": "bytes32"
        }
      ],
      "stateMutability": "view",
      "type": "function"
    },
    {
      "inputs": [],
      "name": "getWTONBalance",
      "outputs": [
        {
          "internalType": "uint256",
          "name": "",
          "type": "uint256"
        }
      ],
      "stateMutability": "view",
      "type": "function"
    },
    {
      "inputs": [
        {
          "internalType": "bytes32",
          "name": "role",
          "type": "bytes32"
        },
        {
          "internalType": "address",
          "name": "account",
          "type": "address"
        }
      ],
      "name": "grantRole",
      "outputs": [],
      "stateMutability": "nonpayable",
      "type": "function"
    },
    {
      "inputs": [
        {
          "internalType": "bytes32",
          "name": "role",
          "type": "bytes32"
        },
        {
          "internalType": "address",
          "name": "account",
          "type": "address"
        }
      ],
      "name": "hasRole",
      "outputs": [
        {
          "internalType": "bool",
          "name": "",
          "type": "bool"
        }
      ],
      "stateMutability": "view",
      "type": "function"
    },
    {
      "inputs": [
        {
          "internalType": "address",
          "name": "account",
          "type": "address"
        }
      ],
      "name": "isAdmin",
      "outputs": [
        {
          "internalType": "bool",
          "name": "",
          "type": "bool"
        }
      ],
      "stateMutability": "view",
      "type": "function"
    },
    {
      "inputs": [],
      "name": "layer2Registry",
      "outputs": [
        {
          "internalType": "address",
          "name": "",
          "type": "address"
        }
      ],
      "stateMutability": "view",
      "type": "function"
    },
    {
      "inputs": [],
      "name": "migratedL2",
      "outputs": [
        {
          "internalType": "bool",
          "name": "",
          "type": "bool"
        }
      ],
      "stateMutability": "view",
      "type": "function"
    },
    {
      "inputs": [
        {
          "internalType": "address",
          "name": "layer2",
          "type": "address"
        },
        {
          "internalType": "address",
          "name": "account",
          "type": "address"
        },
        {
          "internalType": "uint256",
          "name": "amount",
          "type": "uint256"
        }
      ],
      "name": "onDeposit",
      "outputs": [],
      "stateMutability": "nonpayable",
      "type": "function"
    },
    {
      "inputs": [
        {
          "internalType": "address",
          "name": "layer2",
          "type": "address"
        },
        {
          "internalType": "address",
          "name": "account",
          "type": "address"
        },
        {
          "internalType": "uint256",
          "name": "amount",
          "type": "uint256"
        }
      ],
      "name": "onWithdraw",
      "outputs": [],
      "stateMutability": "nonpayable",
      "type": "function"
    },
    {
      "inputs": [],
      "name": "pauseProxy",
      "outputs": [
        {
          "internalType": "bool",
          "name": "",
          "type": "bool"
        }
      ],
      "stateMutability": "view",
      "type": "function"
    },
    {
      "inputs": [
        {
          "internalType": "address",
          "name": "account",
          "type": "address"
        }
      ],
      "name": "removeAdmin",
      "outputs": [],
      "stateMutability": "nonpayable",
      "type": "function"
    },
    {
      "inputs": [
        {
          "internalType": "bytes32",
          "name": "role",
          "type": "bytes32"
        },
        {
          "internalType": "address",
          "name": "account",
          "type": "address"
        }
      ],
      "name": "renounceRole",
      "outputs": [],
      "stateMutability": "nonpayable",
      "type": "function"
    },
    {
      "inputs": [
        {
          "internalType": "bytes32",
          "name": "role",
          "type": "bytes32"
        },
        {
          "internalType": "address",
          "name": "account",
          "type": "address"
        }
      ],
      "name": "revokeRole",
      "outputs": [],
      "stateMutability": "nonpayable",
      "type": "function"
    },
    {
      "inputs": [],
      "name": "seigManager",
      "outputs": [
        {
          "internalType": "address",
          "name": "",
          "type": "address"
        }
      ],
      "stateMutability": "view",
      "type": "function"
    },
    {
      "inputs": [
        {
          "internalType": "address",
          "name": "_autocoinageSnapshot",
          "type": "address"
        }
      ],
      "name": "setAutocoinageSnapshot",
      "outputs": [],
      "stateMutability": "nonpayable",
      "type": "function"
    },
    {
      "inputs": [
        {
          "internalType": "address",
          "name": "_dividiedPool",
          "type": "address"
        }
      ],
      "name": "setDividiedPool",
      "outputs": [],
      "stateMutability": "nonpayable",
      "type": "function"
    },
    {
      "inputs": [
        {
          "internalType": "address",
          "name": "_seigManager",
          "type": "address"
        }
      ],
      "name": "setSeigManager",
      "outputs": [],
      "stateMutability": "nonpayable",
      "type": "function"
    },
    {
      "inputs": [
        {
          "internalType": "bytes4",
          "name": "interfaceId",
          "type": "bytes4"
        }
      ],
      "name": "supportsInterface",
      "outputs": [
        {
          "internalType": "bool",
          "name": "",
          "type": "bool"
        }
      ],
      "stateMutability": "view",
      "type": "function"
    },
    {
      "inputs": [],
      "name": "tos",
      "outputs": [
        {
          "internalType": "contract ITOS",
          "name": "",
          "type": "address"
        }
      ],
      "stateMutability": "view",
      "type": "function"
    },
    {
      "inputs": [
        {
          "internalType": "address",
          "name": "newAdmin",
          "type": "address"
        }
      ],
      "name": "transferAdmin",
      "outputs": [],
      "stateMutability": "nonpayable",
      "type": "function"
    },
    {
      "inputs": [],
      "name": "uniswapRouter",
      "outputs": [
        {
          "internalType": "contract ISwapRouter",
          "name": "",
          "type": "address"
        }
      ],
      "stateMutability": "view",
      "type": "function"
    },
    {
      "inputs": [
        {
          "internalType": "uint256",
          "name": "amount",
          "type": "uint256"
        }
      ],
      "name": "updateSeigniorage",
      "outputs": [],
      "stateMutability": "nonpayable",
      "type": "function"
    },
    {
      "inputs": [],
      "name": "wton",
      "outputs": [
        {
          "internalType": "address",
          "name": "",
          "type": "address"
        }
      ],
      "stateMutability": "view",
      "type": "function"
    }
  ],
  "bytecode": "0x608060405234801561001057600080fd5b50611290806100206000396000f3fe608060405234801561001057600080fd5b50600436106101e55760003560e01c8063735de9f71161010f5780639c51005e116100a2578063d539139311610071578063d53913931461047f578063d547741f146104a6578063e4fc6b6d146104b9578063f850ffaa1461030757600080fd5b80639c51005e1461042c578063a1f5f50e1461043f578063a217fddf14610464578063cf2a239c1461046c57600080fd5b8063784330c0116100de578063784330c0146103b557806389f395de146103c85780638d62d949146103db57806391d14854146103f357600080fd5b8063735de9f71461035557806375829def1461036857806375b238fc1461037b5780637657f20a146103a257600080fd5b80632f2ff15d11610187578063442ff62d11610156578063442ff62d1461031a57806363a8fd89146103225780636fb7f5581461032f578063704802751461034257600080fd5b80632f2ff15d146102b6578063309d7273146102c957806336568abe146102f4578063412c6d501461030757600080fd5b80631785f53c116101c35780631785f53c14610238578063248a9ca31461024b57806324d7806c1461027c578063282c51f31461028f57600080fd5b806301ffc9a7146101ea578063027aa37b146102125780631373fa9414610225575b600080fd5b6101fd6101f836600461100b565b6104c1565b60405190151581526020015b60405180910390f35b610223610220366004611035565b50565b005b61022361023336600461106a565b6104f8565b61022361024636600461106a565b61057f565b61026e610259366004611035565b60009081526006602052604090206001015490565b604051908152602001610209565b6101fd61028a36600461106a565b610609565b61026e7f9667e80708b6eeeb0053fa0cca44e028ff548e2a9f029edfeac87c118b08b7c881565b6102236102c4366004611085565b610649565b6003546102dc906001600160a01b031681565b6040516001600160a01b039091168152602001610209565b610223610302366004611085565b61066e565b6102236103153660046110b1565b505050565b61026e6106fa565b6000546101fd9060ff1681565b6005546102dc906001600160a01b031681565b61022361035036600461106a565b610770565b6002546102dc906001600160a01b031681565b61022361037636600461106a565b6107fa565b61026e7fdf8b4c520ffe197c5343c6f5aec59570151ef9a492f2c624fd45ddde6135ec4281565b6102236103b036600461106a565b61095c565b6007546102dc906001600160a01b031681565b6001546102dc906001600160a01b031681565b6000546102dc9061010090046001600160a01b031681565b6101fd610401366004611085565b60009182526006602090815260408084206001600160a01b0393909316845291905290205460ff1690565b61022361043a36600461106a565b6109de565b6005546101fd9074010000000000000000000000000000000000000000900460ff1681565b61026e600081565b6004546102dc906001600160a01b031681565b61026e7ff0887ba65ee2024ea881d91b74c2450ef19e1557f03bed3ea9f16b037cbe2dc981565b6102236104b4366004611085565b610a60565b610223610a85565b60006001600160e01b03198216637965db0b60e01b14806104f257506301ffc9a760e01b6001600160e01b03198316145b92915050565b61050133610609565b61055d5760405162461bcd60e51b815260206004820152602260248201527f41636365737369626c653a2043616c6c6572206973206e6f7420616e2061646d60448201526134b760f11b60648201526084015b60405180910390fd5b600380546001600160a01b0319166001600160a01b0392909216919091179055565b61058833610609565b6105df5760405162461bcd60e51b815260206004820152602260248201527f41636365737369626c653a2043616c6c6572206973206e6f7420616e2061646d60448201526134b760f11b6064820152608401610554565b6102207fdf8b4c520ffe197c5343c6f5aec59570151ef9a492f2c624fd45ddde6135ec428261066e565b6001600160a01b03811660009081527f31f4bc5980931cfff8fcc0887a354f492c853dee1983bdef4d9cb3e8a5ff876e602052604081205460ff166104f2565b60008281526006602052604090206001015461066481610c26565b6103158383610c30565b6001600160a01b03811633146106ec5760405162461bcd60e51b815260206004820152602f60248201527f416363657373436f6e74726f6c3a2063616e206f6e6c792072656e6f756e636560448201527f20726f6c657320666f722073656c6600000000000000000000000000000000006064820152608401610554565b6106f68282610cd2565b5050565b600080546040516370a0823160e01b81523060048201526101009091046001600160a01b0316906370a0823190602401602060405180830381865afa158015610747573d6000803e3d6000fd5b505050506040513d601f19601f8201168201806040525081019061076b91906110ed565b905090565b61077933610609565b6107d05760405162461bcd60e51b815260206004820152602260248201527f41636365737369626c653a2043616c6c6572206973206e6f7420616e2061646d60448201526134b760f11b6064820152608401610554565b6102207fdf8b4c520ffe197c5343c6f5aec59570151ef9a492f2c624fd45ddde6135ec4282610649565b61080333610609565b61085a5760405162461bcd60e51b815260206004820152602260248201527f41636365737369626c653a2043616c6c6572206973206e6f7420616e2061646d60448201526134b760f11b6064820152608401610554565b6001600160a01b0381166108b05760405162461bcd60e51b815260206004820152601860248201527f41636365737369626c653a207a65726f206164647265737300000000000000006044820152606401610554565b6001600160a01b03811633036109085760405162461bcd60e51b815260206004820152601660248201527f41636365737369626c653a2073616d652061646d696e000000000000000000006044820152606401610554565b6109327fdf8b4c520ffe197c5343c6f5aec59570151ef9a492f2c624fd45ddde6135ec4282610649565b6102207fdf8b4c520ffe197c5343c6f5aec59570151ef9a492f2c624fd45ddde6135ec423361066e565b61096533610609565b6109bc5760405162461bcd60e51b815260206004820152602260248201527f41636365737369626c653a2043616c6c6572206973206e6f7420616e2061646d60448201526134b760f11b6064820152608401610554565b600580546001600160a01b0319166001600160a01b0392909216919091179055565b6109e733610609565b610a3e5760405162461bcd60e51b815260206004820152602260248201527f41636365737369626c653a2043616c6c6572206973206e6f7420616e2061646d60448201526134b760f11b6064820152608401610554565b600780546001600160a01b0319166001600160a01b0392909216919091179055565b600082815260066020526040902060010154610a7b81610c26565b6103158383610cd2565b6000610a8f6106fa565b905060008111610ae15760405162461bcd60e51b815260206004820152601460248201527f62616c616e6365206f662057544f4e20697320300000000000000000000000006044820152606401610554565b600054600754604051636eb1769f60e11b81523060048201526001600160a01b039182166024820152610100909204169063dd62ed3e90604401602060405180830381865afa158015610b38573d6000803e3d6000fd5b505050506040513d601f19601f82011682018060405250810190610b5c91906110ed565b811115610b6b57610b6b610d55565b600754600054604051631f72642160e31b81526001600160a01b03610100909204821660048201526024810184905291169063fb93210890604401600060405180830381600087803b158015610bc057600080fd5b505af1158015610bd4573d6000803e3d6000fd5b5050600054604080516101009092046001600160a01b03168252602082018590527fb649c98f58055c520df0dcb5709eff2e931217ff2fb1e21376130d31bbb1c0af935001905060405180910390a150565b6102208133610dd4565b60008281526006602090815260408083206001600160a01b038516845290915290205460ff166106f65760008281526006602090815260408083206001600160a01b03851684529091529020805460ff19166001179055610c8e3390565b6001600160a01b0316816001600160a01b0316837f2f8788117e7eff1d82e926ec794901d17c78024a50270940304540a733656f0d60405160405180910390a45050565b60008281526006602090815260408083206001600160a01b038516845290915290205460ff16156106f65760008281526006602090815260408083206001600160a01b0385168085529252808320805460ff1916905551339285917ff6391f5c32d9c69d2a47ea670b442974b53935d1edc7fd64eb21e047a839171b9190a45050565b60005460075460405163095ea7b360e01b81526001600160a01b0391821660048201526000196024820152610100909204169063095ea7b3906044016020604051808303816000875af1158015610db0573d6000803e3d6000fd5b505050506040513d601f19601f820116820180604052508101906102209190611106565b60008281526006602090815260408083206001600160a01b038516845290915290205460ff166106f657610e0781610e49565b610e12836020610e5b565b604051602001610e2392919061114c565b60408051601f198184030181529082905262461bcd60e51b8252610554916004016111cd565b60606104f26001600160a01b03831660145b60606000610e6a836002611216565b610e7590600261122d565b67ffffffffffffffff811115610e8d57610e8d611240565b6040519080825280601f01601f191660200182016040528015610eb7576020820181803683370190505b509050600360fc1b81600081518110610ed257610ed2611256565b60200101906001600160f81b031916908160001a905350600f60fb1b81600181518110610f0157610f01611256565b60200101906001600160f81b031916908160001a9053506000610f25846002611216565b610f3090600161122d565b90505b6001811115610fb5577f303132333435363738396162636465660000000000000000000000000000000085600f1660108110610f7157610f71611256565b1a60f81b828281518110610f8757610f87611256565b60200101906001600160f81b031916908160001a90535060049490941c93610fae8161126c565b9050610f33565b5083156110045760405162461bcd60e51b815260206004820181905260248201527f537472696e67733a20686578206c656e67746820696e73756666696369656e746044820152606401610554565b9392505050565b60006020828403121561101d57600080fd5b81356001600160e01b03198116811461100457600080fd5b60006020828403121561104757600080fd5b5035919050565b80356001600160a01b038116811461106557600080fd5b919050565b60006020828403121561107c57600080fd5b6110048261104e565b6000806040838503121561109857600080fd5b823591506110a86020840161104e565b90509250929050565b6000806000606084860312156110c657600080fd5b6110cf8461104e565b92506110dd6020850161104e565b9150604084013590509250925092565b6000602082840312156110ff57600080fd5b5051919050565b60006020828403121561111857600080fd5b8151801515811461100457600080fd5b60005b8381101561114357818101518382015260200161112b565b50506000910152565b7f416363657373436f6e74726f6c3a206163636f756e7420000000000000000000815260008351611184816017850160208801611128565b7f206973206d697373696e6720726f6c652000000000000000000000000000000060179184019182015283516111c1816028840160208801611128565b01602801949350505050565b60208152600082518060208401526111ec816040850160208701611128565b601f01601f19169190910160400192915050565b634e487b7160e01b600052601160045260246000fd5b80820281158282048414176104f2576104f2611200565b808201808211156104f2576104f2611200565b634e487b7160e01b600052604160045260246000fd5b634e487b7160e01b600052603260045260246000fd5b60008161127b5761127b611200565b50600019019056fea164736f6c6343000813000a",
  "linkReferences": {},
  "deployedLinkReferences": {}
}