{
  "_format": "hh-sol-artifact-1",
  "contractName": "PowerTONUpgrade",
  "sourceName": "contracts/stake/powerton/PowerTONUpgrade.sol",
  "abi": [
    {
      "anonymous": false,
      "inputs": [
        {
          "indexed": false,
          "internalType": "address",
          "name": "token",
          "type": "address"
        },
        {
          "indexed": false,
          "internalType": "uint256",
          "name": "amount",
          "type": "uint256"
        }
      ],
      "name": "Distributed",
      "type": "event"
    },
    {
      "anonymous": false,
      "inputs": [
        {
          "indexed": false,
          "internalType": "address",
          "name": "layer2",
          "type": "address"
        },
        {
          "indexed": true,
          "internalType": "address",
          "name": "account",
          "type": "address"
        },
        {
          "indexed": false,
          "internalType": "uint256",
          "name": "amount",
          "type": "uint256"
        }
      ],
      "name": "OnDeposit",
      "type": "event"
    },
    {
      "anonymous": false,
      "inputs": [
        {
          "indexed": false,
          "internalType": "address",
          "name": "layer2",
          "type": "address"
        },
        {
          "indexed": true,
          "internalType": "address",
          "name": "account",
          "type": "address"
        },
        {
          "indexed": false,
          "internalType": "uint256",
          "name": "amount",
          "type": "uint256"
        }
      ],
      "name": "OnWithdraw",
      "type": "event"
    },
    {
      "anonymous": false,
      "inputs": [
        {
          "indexed": true,
          "internalType": "bytes32",
          "name": "role",
          "type": "bytes32"
        },
        {
          "indexed": true,
          "internalType": "bytes32",
          "name": "previousAdminRole",
          "type": "bytes32"
        },
        {
          "indexed": true,
          "internalType": "bytes32",
          "name": "newAdminRole",
          "type": "bytes32"
        }
      ],
      "name": "RoleAdminChanged",
      "type": "event"
    },
    {
      "anonymous": false,
      "inputs": [
        {
          "indexed": true,
          "internalType": "bytes32",
          "name": "role",
          "type": "bytes32"
        },
        {
          "indexed": true,
          "internalType": "address",
          "name": "account",
          "type": "address"
        },
        {
          "indexed": true,
          "internalType": "address",
          "name": "sender",
          "type": "address"
        }
      ],
      "name": "RoleGranted",
      "type": "event"
    },
    {
      "anonymous": false,
      "inputs": [
        {
          "indexed": true,
          "internalType": "bytes32",
          "name": "role",
          "type": "bytes32"
        },
        {
          "indexed": true,
          "internalType": "address",
          "name": "account",
          "type": "address"
        },
        {
          "indexed": true,
          "internalType": "address",
          "name": "sender",
          "type": "address"
        }
      ],
      "name": "RoleRevoked",
      "type": "event"
    },
    {
      "anonymous": false,
      "inputs": [
        {
          "indexed": false,
          "internalType": "uint256",
          "name": "amount",
          "type": "uint256"
        }
      ],
      "name": "Swapped",
      "type": "event"
    },
    {
      "inputs": [],
      "name": "ADMIN_ROLE",
      "outputs": [
        {
          "internalType": "bytes32",
          "name": "",
          "type": "bytes32"
        }
      ],
      "stateMutability": "view",
      "type": "function"
    },
    {
      "inputs": [],
      "name": "BURNER_ROLE",
      "outputs": [
        {
          "internalType": "bytes32",
          "name": "",
          "type": "bytes32"
        }
      ],
      "stateMutability": "view",
      "type": "function"
    },
    {
      "inputs": [],
      "name": "DEFAULT_ADMIN_ROLE",
      "outputs": [
        {
          "internalType": "bytes32",
          "name": "",
          "type": "bytes32"
        }
      ],
      "stateMutability": "view",
      "type": "function"
    },
    {
      "inputs": [],
      "name": "MINTER_ROLE",
      "outputs": [
        {
          "internalType": "bytes32",
          "name": "",
          "type": "bytes32"
        }
      ],
      "stateMutability": "view",
      "type": "function"
    },
    {
      "inputs": [
        {
          "internalType": "address",
          "name": "account",
          "type": "address"
        }
      ],
      "name": "addAdmin",
      "outputs": [],
      "stateMutability": "nonpayable",
      "type": "function"
    },
    {
      "inputs": [],
      "name": "autocoinageSnapshot",
      "outputs": [
        {
          "internalType": "address",
          "name": "",
          "type": "address"
        }
      ],
      "stateMutability": "view",
      "type": "function"
    },
    {
      "inputs": [],
      "name": "distribute",
      "outputs": [],
      "stateMutability": "nonpayable",
      "type": "function"
    },
    {
      "inputs": [],
      "name": "dividiedPool",
      "outputs": [
        {
          "internalType": "contract ILockTOSDividend",
          "name": "",
          "type": "address"
        }
      ],
      "stateMutability": "view",
      "type": "function"
    },
    {
      "inputs": [
        {
          "internalType": "bytes32",
          "name": "role",
          "type": "bytes32"
        }
      ],
      "name": "getRoleAdmin",
      "outputs": [
        {
          "internalType": "bytes32",
          "name": "",
          "type": "bytes32"
        }
      ],
      "stateMutability": "view",
      "type": "function"
    },
    {
      "inputs": [],
      "name": "getWTONBalance",
      "outputs": [
        {
          "internalType": "uint256",
          "name": "",
          "type": "uint256"
        }
      ],
      "stateMutability": "view",
      "type": "function"
    },
    {
      "inputs": [
        {
          "internalType": "bytes32",
          "name": "role",
          "type": "bytes32"
        },
        {
          "internalType": "address",
          "name": "account",
          "type": "address"
        }
      ],
      "name": "grantRole",
      "outputs": [],
      "stateMutability": "nonpayable",
      "type": "function"
    },
    {
      "inputs": [
        {
          "internalType": "bytes32",
          "name": "role",
          "type": "bytes32"
        },
        {
          "internalType": "address",
          "name": "account",
          "type": "address"
        }
      ],
      "name": "hasRole",
      "outputs": [
        {
          "internalType": "bool",
          "name": "",
          "type": "bool"
        }
      ],
      "stateMutability": "view",
      "type": "function"
    },
    {
      "inputs": [
        {
          "internalType": "address",
          "name": "account",
          "type": "address"
        }
      ],
      "name": "isAdmin",
      "outputs": [
        {
          "internalType": "bool",
          "name": "",
          "type": "bool"
        }
      ],
      "stateMutability": "view",
      "type": "function"
    },
    {
      "inputs": [],
      "name": "layer2Registry",
      "outputs": [
        {
          "internalType": "address",
          "name": "",
          "type": "address"
        }
      ],
      "stateMutability": "view",
      "type": "function"
    },
    {
      "inputs": [],
      "name": "migratedL2",
      "outputs": [
        {
          "internalType": "bool",
          "name": "",
          "type": "bool"
        }
      ],
      "stateMutability": "view",
      "type": "function"
    },
    {
      "inputs": [
        {
          "internalType": "address",
          "name": "layer2",
          "type": "address"
        },
        {
          "internalType": "address",
          "name": "account",
          "type": "address"
        },
        {
          "internalType": "uint256",
          "name": "amount",
          "type": "uint256"
        }
      ],
      "name": "onDeposit",
      "outputs": [],
      "stateMutability": "nonpayable",
      "type": "function"
    },
    {
      "inputs": [
        {
          "internalType": "address",
          "name": "layer2",
          "type": "address"
        },
        {
          "internalType": "address",
          "name": "account",
          "type": "address"
        },
        {
          "internalType": "uint256",
          "name": "amount",
          "type": "uint256"
        }
      ],
      "name": "onWithdraw",
      "outputs": [],
      "stateMutability": "nonpayable",
      "type": "function"
    },
    {
      "inputs": [],
      "name": "pauseProxy",
      "outputs": [
        {
          "internalType": "bool",
          "name": "",
          "type": "bool"
        }
      ],
      "stateMutability": "view",
      "type": "function"
    },
    {
      "inputs": [
        {
          "internalType": "address",
          "name": "account",
          "type": "address"
        }
      ],
      "name": "removeAdmin",
      "outputs": [],
      "stateMutability": "nonpayable",
      "type": "function"
    },
    {
      "inputs": [
        {
          "internalType": "bytes32",
          "name": "role",
          "type": "bytes32"
        },
        {
          "internalType": "address",
          "name": "account",
          "type": "address"
        }
      ],
      "name": "renounceRole",
      "outputs": [],
      "stateMutability": "nonpayable",
      "type": "function"
    },
    {
      "inputs": [
        {
          "internalType": "bytes32",
          "name": "role",
          "type": "bytes32"
        },
        {
          "internalType": "address",
          "name": "account",
          "type": "address"
        }
      ],
      "name": "revokeRole",
      "outputs": [],
      "stateMutability": "nonpayable",
      "type": "function"
    },
    {
      "inputs": [],
      "name": "seigManager",
      "outputs": [
        {
          "internalType": "address",
          "name": "",
          "type": "address"
        }
      ],
      "stateMutability": "view",
      "type": "function"
    },
    {
      "inputs": [
        {
          "internalType": "address",
          "name": "_autocoinageSnapshot",
          "type": "address"
        }
      ],
      "name": "setAutocoinageSnapshot",
      "outputs": [],
      "stateMutability": "nonpayable",
      "type": "function"
    },
    {
      "inputs": [
        {
          "internalType": "address",
          "name": "_seigManager",
          "type": "address"
        }
      ],
      "name": "setSeigManager",
      "outputs": [],
      "stateMutability": "nonpayable",
      "type": "function"
    },
    {
      "inputs": [
        {
          "internalType": "bytes4",
          "name": "interfaceId",
          "type": "bytes4"
        }
      ],
      "name": "supportsInterface",
      "outputs": [
        {
          "internalType": "bool",
          "name": "",
          "type": "bool"
        }
      ],
      "stateMutability": "view",
      "type": "function"
    },
    {
      "inputs": [],
      "name": "tos",
      "outputs": [
        {
          "internalType": "contract ITOS",
          "name": "",
          "type": "address"
        }
      ],
      "stateMutability": "view",
      "type": "function"
    },
    {
      "inputs": [
        {
          "internalType": "address",
          "name": "newAdmin",
          "type": "address"
        }
      ],
      "name": "transferAdmin",
      "outputs": [],
      "stateMutability": "nonpayable",
      "type": "function"
    },
    {
      "inputs": [],
      "name": "uniswapRouter",
      "outputs": [
        {
          "internalType": "contract ISwapRouter",
          "name": "",
          "type": "address"
        }
      ],
      "stateMutability": "view",
      "type": "function"
    },
    {
      "inputs": [
        {
          "internalType": "uint256",
          "name": "amount",
          "type": "uint256"
        }
      ],
      "name": "updateSeigniorage",
      "outputs": [],
      "stateMutability": "nonpayable",
      "type": "function"
    },
    {
      "inputs": [],
      "name": "wton",
      "outputs": [
        {
          "internalType": "address",
          "name": "",
          "type": "address"
        }
      ],
      "stateMutability": "view",
      "type": "function"
    }
  ],
  "bytecode": "0x608060405234801561001057600080fd5b50611018806100206000396000f3fe608060405234801561001057600080fd5b50600436106101da5760003560e01c8063735de9f71161010457806391d14854116100a2578063d539139311610071578063d539139314610418578063d547741f1461043f578063e4fc6b6d14610452578063f850ffaa146102fc57600080fd5b806391d14854146103d6578063a1f5f50e146103e9578063a217fddf146103fd578063cf2a239c1461040557600080fd5b80637657f20a116100de5780637657f20a14610385578063784330c01461039857806389f395de146103ab5780638d62d949146103be57600080fd5b8063735de9f71461034a57806375829def1461035d57806375b238fc1461037057600080fd5b80632f2ff15d1161017c578063442ff62d1161014b578063442ff62d1461030f57806363a8fd89146103175780636fb7f55814610324578063704802751461033757600080fd5b80632f2ff15d146102ab578063309d7273146102be57806336568abe146102e9578063412c6d50146102fc57600080fd5b80631785f53c116101b85780631785f53c1461022d578063248a9ca31461024057806324d7806c14610271578063282c51f31461028457600080fd5b806301ffc9a7146101df578063027aa37b146102075780631373fa941461021a575b600080fd5b6101f26101ed366004610d3d565b61045a565b60405190151581526020015b60405180910390f35b610218610215366004610d67565b50565b005b610218610228366004610d9c565b610491565b61021861023b366004610d9c565b6104e1565b61026361024e366004610d67565b60009081526006602052604090206001015490565b6040519081526020016101fe565b6101f261027f366004610d9c565b61051e565b6102637f9667e80708b6eeeb0053fa0cca44e028ff548e2a9f029edfeac87c118b08b7c881565b6102186102b9366004610db7565b610538565b6003546102d1906001600160a01b031681565b6040516001600160a01b0390911681526020016101fe565b6102186102f7366004610db7565b61055d565b61021861030a366004610de3565b505050565b6102636105db565b6000546101f29060ff1681565b6005546102d1906001600160a01b031681565b610218610345366004610d9c565b610651565b6002546102d1906001600160a01b031681565b61021861036b366004610d9c565b61068e565b610263600080516020610fec83398151915281565b610218610393366004610d9c565b61078a565b6007546102d1906001600160a01b031681565b6001546102d1906001600160a01b031681565b6000546102d19061010090046001600160a01b031681565b6101f26103e4366004610db7565b6107d1565b6005546101f290600160a01b900460ff1681565b610263600081565b6004546102d1906001600160a01b031681565b6102637ff0887ba65ee2024ea881d91b74c2450ef19e1557f03bed3ea9f16b037cbe2dc981565b61021861044d366004610db7565b6107fc565b610218610821565b60006001600160e01b03198216637965db0b60e01b148061048b57506301ffc9a760e01b6001600160e01b03198316145b92915050565b61049a3361051e565b6104bf5760405162461bcd60e51b81526004016104b690610e1f565b60405180910390fd5b600380546001600160a01b0319166001600160a01b0392909216919091179055565b6104ea3361051e565b6105065760405162461bcd60e51b81526004016104b690610e1f565b610215600080516020610fec8339815191528261055d565b600061048b600080516020610fec833981519152836107d1565b600082815260066020526040902060010154610553816109b9565b61030a83836109c3565b6001600160a01b03811633146105cd5760405162461bcd60e51b815260206004820152602f60248201527f416363657373436f6e74726f6c3a2063616e206f6e6c792072656e6f756e636560448201526e103937b632b9903337b91039b2b63360891b60648201526084016104b6565b6105d78282610a49565b5050565b600080546040516370a0823160e01b81523060048201526101009091046001600160a01b0316906370a0823190602401602060405180830381865afa158015610628573d6000803e3d6000fd5b505050506040513d601f19601f8201168201806040525081019061064c9190610e61565b905090565b61065a3361051e565b6106765760405162461bcd60e51b81526004016104b690610e1f565b610215600080516020610fec83398151915282610538565b6106973361051e565b6106b35760405162461bcd60e51b81526004016104b690610e1f565b6001600160a01b0381166107095760405162461bcd60e51b815260206004820152601860248201527f41636365737369626c653a207a65726f2061646472657373000000000000000060448201526064016104b6565b6001600160a01b038116330361075a5760405162461bcd60e51b815260206004820152601660248201527520b1b1b2b9b9b4b136329d1039b0b6b29030b236b4b760511b60448201526064016104b6565b610772600080516020610fec83398151915282610538565b610215600080516020610fec8339815191523361055d565b6107933361051e565b6107af5760405162461bcd60e51b81526004016104b690610e1f565b600580546001600160a01b0319166001600160a01b0392909216919091179055565b60009182526006602090815260408084206001600160a01b0393909316845291905290205460ff1690565b600082815260066020526040902060010154610817816109b9565b61030a8383610a49565b600061082b6105db565b9050600081116108745760405162461bcd60e51b8152602060048201526014602482015273062616c616e6365206f662057544f4e20697320360641b60448201526064016104b6565b600054600754604051636eb1769f60e11b81523060048201526001600160a01b039182166024820152610100909204169063dd62ed3e90604401602060405180830381865afa1580156108cb573d6000803e3d6000fd5b505050506040513d601f19601f820116820180604052508101906108ef9190610e61565b8111156108fe576108fe610ab0565b600754600054604051631f72642160e31b81526001600160a01b03610100909204821660048201526024810184905291169063fb93210890604401600060405180830381600087803b15801561095357600080fd5b505af1158015610967573d6000803e3d6000fd5b5050600054604080516101009092046001600160a01b03168252602082018590527fb649c98f58055c520df0dcb5709eff2e931217ff2fb1e21376130d31bbb1c0af935001905060405180910390a150565b6102158133610b2f565b6109cd82826107d1565b6105d75760008281526006602090815260408083206001600160a01b03851684529091529020805460ff19166001179055610a053390565b6001600160a01b0316816001600160a01b0316837f2f8788117e7eff1d82e926ec794901d17c78024a50270940304540a733656f0d60405160405180910390a45050565b610a5382826107d1565b156105d75760008281526006602090815260408083206001600160a01b0385168085529252808320805460ff1916905551339285917ff6391f5c32d9c69d2a47ea670b442974b53935d1edc7fd64eb21e047a839171b9190a45050565b60005460075460405163095ea7b360e01b81526001600160a01b0391821660048201526000196024820152610100909204169063095ea7b3906044016020604051808303816000875af1158015610b0b573d6000803e3d6000fd5b505050506040513d601f19601f820116820180604052508101906102159190610e7a565b610b3982826107d1565b6105d757610b4681610b88565b610b51836020610b9a565b604051602001610b62929190610ec0565b60408051601f198184030181529082905262461bcd60e51b82526104b691600401610f35565b606061048b6001600160a01b03831660145b60606000610ba9836002610f7e565b610bb4906002610f95565b67ffffffffffffffff811115610bcc57610bcc610fa8565b6040519080825280601f01601f191660200182016040528015610bf6576020820181803683370190505b509050600360fc1b81600081518110610c1157610c11610fbe565b60200101906001600160f81b031916908160001a905350600f60fb1b81600181518110610c4057610c40610fbe565b60200101906001600160f81b031916908160001a9053506000610c64846002610f7e565b610c6f906001610f95565b90505b6001811115610ce7576f181899199a1a9b1b9c1cb0b131b232b360811b85600f1660108110610ca357610ca3610fbe565b1a60f81b828281518110610cb957610cb9610fbe565b60200101906001600160f81b031916908160001a90535060049490941c93610ce081610fd4565b9050610c72565b508315610d365760405162461bcd60e51b815260206004820181905260248201527f537472696e67733a20686578206c656e67746820696e73756666696369656e7460448201526064016104b6565b9392505050565b600060208284031215610d4f57600080fd5b81356001600160e01b031981168114610d3657600080fd5b600060208284031215610d7957600080fd5b5035919050565b80356001600160a01b0381168114610d9757600080fd5b919050565b600060208284031215610dae57600080fd5b610d3682610d80565b60008060408385031215610dca57600080fd5b82359150610dda60208401610d80565b90509250929050565b600080600060608486031215610df857600080fd5b610e0184610d80565b9250610e0f60208501610d80565b9150604084013590509250925092565b60208082526022908201527f41636365737369626c653a2043616c6c6572206973206e6f7420616e2061646d60408201526134b760f11b606082015260800190565b600060208284031215610e7357600080fd5b5051919050565b600060208284031215610e8c57600080fd5b81518015158114610d3657600080fd5b60005b83811015610eb7578181015183820152602001610e9f565b50506000910152565b7f416363657373436f6e74726f6c3a206163636f756e7420000000000000000000815260008351610ef8816017850160208801610e9c565b7001034b99036b4b9b9b4b733903937b6329607d1b6017918401918201528351610f29816028840160208801610e9c565b01602801949350505050565b6020815260008251806020840152610f54816040850160208701610e9c565b601f01601f19169190910160400192915050565b634e487b7160e01b600052601160045260246000fd5b808202811582820484141761048b5761048b610f68565b8082018082111561048b5761048b610f68565b634e487b7160e01b600052604160045260246000fd5b634e487b7160e01b600052603260045260246000fd5b600081610fe357610fe3610f68565b50600019019056fedf8b4c520ffe197c5343c6f5aec59570151ef9a492f2c624fd45ddde6135ec42a164736f6c6343000813000a",
  "linkReferences": {},
  "deployedLinkReferences": {}
}