{
  "_format": "hh-sol-artifact-1",
  "contractName": "L1StakedTonToL2Storage",
  "sourceName": "contracts/L1/L1StakedTonToL2Storage.sol",
  "abi": [
    {
      "inputs": [],
      "name": "addressManager",
      "outputs": [
        {
          "internalType": "address",
          "name": "",
          "type": "address"
        }
      ],
      "stateMutability": "view",
      "type": "function"
    },
    {
      "inputs": [],
      "name": "l1StakedTonInL2",
      "outputs": [
        {
          "internalType": "address",
          "name": "",
          "type": "address"
        }
      ],
      "stateMutability": "view",
      "type": "function"
    },
    {
      "inputs": [
        {
          "internalType": "address",
          "name": "",
          "type": "address"
        },
        {
          "internalType": "address",
          "name": "",
          "type": "address"
        }
      ],
      "name": "lastRegisterTime",
      "outputs": [
        {
          "internalType": "uint256",
          "name": "",
          "type": "uint256"
        }
      ],
      "stateMutability": "view",
      "type": "function"
    },
    {
      "inputs": [],
      "name": "manager",
      "outputs": [
        {
          "internalType": "address",
          "name": "",
          "type": "address"
        }
      ],
      "stateMutability": "view",
      "type": "function"
    },
    {
      "inputs": [],
      "name": "minGasLimit",
      "outputs": [
        {
          "internalType": "uint32",
          "name": "",
          "type": "uint32"
        }
      ],
      "stateMutability": "view",
      "type": "function"
    },
    {
      "inputs": [],
      "name": "registry",
      "outputs": [
        {
          "internalType": "address",
          "name": "",
          "type": "address"
        }
      ],
      "stateMutability": "view",
      "type": "function"
    },
    {
      "inputs": [],
      "name": "seigManager",
      "outputs": [
        {
          "internalType": "address",
          "name": "",
          "type": "address"
        }
      ],
      "stateMutability": "view",
      "type": "function"
    },
    {
      "inputs": [
        {
          "internalType": "address",
          "name": "",
          "type": "address"
        },
        {
          "internalType": "address",
          "name": "",
          "type": "address"
        }
      ],
      "name": "syncInfo",
      "outputs": [
        {
          "internalType": "uint32",
          "name": "syncTime",
          "type": "uint32"
        },
        {
          "internalType": "uint256",
          "name": "balanceFactor",
          "type": "uint256"
        },
        {
          "internalType": "uint256",
          "name": "factor",
          "type": "uint256"
        },
        {
          "internalType": "uint256",
          "name": "stakedAmount",
          "type": "uint256"
        }
      ],
      "stateMutability": "view",
      "type": "function"
    },
    {
      "inputs": [],
      "name": "tot",
      "outputs": [
        {
          "internalType": "address",
          "name": "",
          "type": "address"
        }
      ],
      "stateMutability": "view",
      "type": "function"
    }
  ],
  "bytecode": "0x608060405234801561001057600080fd5b50610277806100206000396000f3fe608060405234801561001057600080fd5b50600436106100a35760003560e01c80636fb7f558116100765780638c09d4ee1161005b5780638c09d4ee146101bc578063a16d6aa7146101cf578063bd0bfecd146101e257600080fd5b80636fb7f558146101965780637b103999146101a957600080fd5b80633ab76e9f146100a85780633eba3079146100d8578063481c6a75146101465780635aeb4d7714610159575b600080fd5b6001546100bb906001600160a01b031681565b6040516001600160a01b0390911681526020015b60405180910390f35b61011f6100e6366004610237565b6006602090815260009283526040808420909152908252902080546001820154600283015460039093015463ffffffff90921692909184565b6040805163ffffffff909516855260208501939093529183015260608201526080016100cf565b6000546100bb906001600160a01b031681565b6005546101819074010000000000000000000000000000000000000000900463ffffffff1681565b60405163ffffffff90911681526020016100cf565b6002546100bb906001600160a01b031681565b6003546100bb906001600160a01b031681565b6005546100bb906001600160a01b031681565b6004546100bb906001600160a01b031681565b61020d6101f0366004610237565b600760209081526000928352604080842090915290825290205481565b6040519081526020016100cf565b80356001600160a01b038116811461023257600080fd5b919050565b6000806040838503121561024a57600080fd5b6102538361021b565b91506102616020840161021b565b9050925092905056fea164736f6c6343000813000a",
  "linkReferences": {},
  "deployedLinkReferences": {}
}