{
  "_format": "hh-sol-artifact-1",
  "contractName": "L1StakedTonToL2Storage",
  "sourceName": "contracts/L1/L1StakedTonToL2Storage.sol",
  "abi": [
    {
      "inputs": [],
      "name": "addressManager",
      "outputs": [
        {
          "internalType": "address",
          "name": "",
          "type": "address"
        }
      ],
      "stateMutability": "view",
      "type": "function"
    },
    {
      "inputs": [],
      "name": "l1StakedTonInL2",
      "outputs": [
        {
          "internalType": "address",
          "name": "",
          "type": "address"
        }
      ],
      "stateMutability": "view",
      "type": "function"
    },
    {
      "inputs": [
        {
          "internalType": "address",
          "name": "",
          "type": "address"
        },
        {
          "internalType": "address",
          "name": "",
          "type": "address"
        }
      ],
      "name": "lastRegisterTime",
      "outputs": [
        {
          "internalType": "uint256",
          "name": "",
          "type": "uint256"
        }
      ],
      "stateMutability": "view",
      "type": "function"
    },
    {
      "inputs": [],
      "name": "manager",
      "outputs": [
        {
          "internalType": "address",
          "name": "",
          "type": "address"
        }
      ],
      "stateMutability": "view",
      "type": "function"
    },
    {
      "inputs": [],
      "name": "minGasLimit",
      "outputs": [
        {
          "internalType": "uint32",
          "name": "",
          "type": "uint32"
        }
      ],
      "stateMutability": "view",
      "type": "function"
    },
    {
      "inputs": [],
      "name": "minGasLimit2",
      "outputs": [
        {
          "internalType": "uint32",
          "name": "",
          "type": "uint32"
        }
      ],
      "stateMutability": "view",
      "type": "function"
    },
    {
      "inputs": [],
      "name": "registry",
      "outputs": [
        {
          "internalType": "address",
          "name": "",
          "type": "address"
        }
      ],
      "stateMutability": "view",
      "type": "function"
    },
    {
      "inputs": [],
      "name": "seigManager",
      "outputs": [
        {
          "internalType": "address",
          "name": "",
          "type": "address"
        }
      ],
      "stateMutability": "view",
      "type": "function"
    }
  ],
  "bytecode": "0x608060405234801561001057600080fd5b506101f2806100206000396000f3fe608060405234801561001057600080fd5b50600436106100885760003560e01c80637b1039991161005b5780637b103999146101205780638c09d4ee1461013357806394d0ca3814610146578063bd0bfecd1461015d57600080fd5b80633ab76e9f1461008d578063481c6a75146100bd5780635aeb4d77146100d05780636fb7f5581461010d575b600080fd5b6001546100a0906001600160a01b031681565b6040516001600160a01b0390911681526020015b60405180910390f35b6000546100a0906001600160a01b031681565b6004546100f89074010000000000000000000000000000000000000000900463ffffffff1681565b60405163ffffffff90911681526020016100b4565b6002546100a0906001600160a01b031681565b6003546100a0906001600160a01b031681565b6004546100a0906001600160a01b031681565b6004546100f890600160c01b900463ffffffff1681565b61018861016b3660046101b2565b600560209081526000928352604080842090915290825290205481565b6040519081526020016100b4565b80356001600160a01b03811681146101ad57600080fd5b919050565b600080604083850312156101c557600080fd5b6101ce83610196565b91506101dc60208401610196565b9050925092905056fea164736f6c6343000813000a",
  "linkReferences": {},
  "deployedLinkReferences": {}
}