{
  "_format": "hh-sol-artifact-1",
  "contractName": "ProxyLayer2Manager",
  "sourceName": "contracts/proxy/ProxyLayer2Manager.sol",
  "abi": [
    {
      "inputs": [],
      "stateMutability": "nonpayable",
      "type": "constructor"
    },
    {
      "anonymous": false,
      "inputs": [
        {
          "indexed": true,
          "internalType": "bytes32",
          "name": "role",
          "type": "bytes32"
        },
        {
          "indexed": true,
          "internalType": "bytes32",
          "name": "previousAdminRole",
          "type": "bytes32"
        },
        {
          "indexed": true,
          "internalType": "bytes32",
          "name": "newAdminRole",
          "type": "bytes32"
        }
      ],
      "name": "RoleAdminChanged",
      "type": "event"
    },
    {
      "anonymous": false,
      "inputs": [
        {
          "indexed": true,
          "internalType": "bytes32",
          "name": "role",
          "type": "bytes32"
        },
        {
          "indexed": true,
          "internalType": "address",
          "name": "account",
          "type": "address"
        },
        {
          "indexed": true,
          "internalType": "address",
          "name": "sender",
          "type": "address"
        }
      ],
      "name": "RoleGranted",
      "type": "event"
    },
    {
      "anonymous": false,
      "inputs": [
        {
          "indexed": true,
          "internalType": "bytes32",
          "name": "role",
          "type": "bytes32"
        },
        {
          "indexed": true,
          "internalType": "address",
          "name": "account",
          "type": "address"
        },
        {
          "indexed": true,
          "internalType": "address",
          "name": "sender",
          "type": "address"
        }
      ],
      "name": "RoleRevoked",
      "type": "event"
    },
    {
      "anonymous": false,
      "inputs": [
        {
          "indexed": true,
          "internalType": "address",
          "name": "impl",
          "type": "address"
        },
        {
          "indexed": false,
          "internalType": "bool",
          "name": "alive",
          "type": "bool"
        }
      ],
      "name": "SetAliveImplementation",
      "type": "event"
    },
    {
      "anonymous": false,
      "inputs": [
        {
          "indexed": true,
          "internalType": "bytes4",
          "name": "selector",
          "type": "bytes4"
        },
        {
          "indexed": true,
          "internalType": "address",
          "name": "impl",
          "type": "address"
        }
      ],
      "name": "SetSelectorImplementation",
      "type": "event"
    },
    {
      "anonymous": false,
      "inputs": [
        {
          "indexed": true,
          "internalType": "address",
          "name": "implementation",
          "type": "address"
        }
      ],
      "name": "Upgraded",
      "type": "event"
    },
    {
      "stateMutability": "payable",
      "type": "fallback"
    },
    {
      "inputs": [],
      "name": "DEFAULT_ADMIN_ROLE",
      "outputs": [
        {
          "internalType": "bytes32",
          "name": "",
          "type": "bytes32"
        }
      ],
      "stateMutability": "view",
      "type": "function"
    },
    {
      "inputs": [],
      "name": "MANAGER_ROLE",
      "outputs": [
        {
          "internalType": "bytes32",
          "name": "",
          "type": "bytes32"
        }
      ],
      "stateMutability": "view",
      "type": "function"
    },
    {
      "inputs": [],
      "name": "OPERATOR_ROLE",
      "outputs": [
        {
          "internalType": "bytes32",
          "name": "",
          "type": "bytes32"
        }
      ],
      "stateMutability": "view",
      "type": "function"
    },
    {
      "inputs": [
        {
          "internalType": "address",
          "name": "account",
          "type": "address"
        }
      ],
      "name": "addAdmin",
      "outputs": [],
      "stateMutability": "nonpayable",
      "type": "function"
    },
    {
      "inputs": [
        {
          "internalType": "address",
          "name": "account",
          "type": "address"
        }
      ],
      "name": "addManager",
      "outputs": [],
      "stateMutability": "nonpayable",
      "type": "function"
    },
    {
      "inputs": [
        {
          "internalType": "address",
          "name": "account",
          "type": "address"
        }
      ],
      "name": "addOperator",
      "outputs": [],
      "stateMutability": "nonpayable",
      "type": "function"
    },
    {
      "inputs": [
        {
          "internalType": "address",
          "name": "",
          "type": "address"
        }
      ],
      "name": "aliveImplementation",
      "outputs": [
        {
          "internalType": "bool",
          "name": "",
          "type": "bool"
        }
      ],
      "stateMutability": "view",
      "type": "function"
    },
    {
      "inputs": [
        {
          "internalType": "bytes32",
          "name": "role",
          "type": "bytes32"
        }
      ],
      "name": "getRoleAdmin",
      "outputs": [
        {
          "internalType": "bytes32",
          "name": "",
          "type": "bytes32"
        }
      ],
      "stateMutability": "view",
      "type": "function"
    },
    {
      "inputs": [
        {
          "internalType": "bytes4",
          "name": "_selector",
          "type": "bytes4"
        }
      ],
      "name": "getSelectorImplementation2",
      "outputs": [
        {
          "internalType": "address",
          "name": "impl",
          "type": "address"
        }
      ],
      "stateMutability": "view",
      "type": "function"
    },
    {
      "inputs": [
        {
          "internalType": "bytes32",
          "name": "role",
          "type": "bytes32"
        },
        {
          "internalType": "address",
          "name": "account",
          "type": "address"
        }
      ],
      "name": "grantRole",
      "outputs": [],
      "stateMutability": "nonpayable",
      "type": "function"
    },
    {
      "inputs": [
        {
          "internalType": "bytes32",
          "name": "role",
          "type": "bytes32"
        },
        {
          "internalType": "address",
          "name": "account",
          "type": "address"
        }
      ],
      "name": "hasRole",
      "outputs": [
        {
          "internalType": "bool",
          "name": "",
          "type": "bool"
        }
      ],
      "stateMutability": "view",
      "type": "function"
    },
    {
      "inputs": [],
      "name": "implementation",
      "outputs": [
        {
          "internalType": "address",
          "name": "",
          "type": "address"
        }
      ],
      "stateMutability": "view",
      "type": "function"
    },
    {
      "inputs": [
        {
          "internalType": "uint256",
          "name": "_index",
          "type": "uint256"
        }
      ],
      "name": "implementation2",
      "outputs": [
        {
          "internalType": "address",
          "name": "",
          "type": "address"
        }
      ],
      "stateMutability": "view",
      "type": "function"
    },
    {
      "inputs": [
        {
          "internalType": "address",
          "name": "account",
          "type": "address"
        }
      ],
      "name": "isAdmin",
      "outputs": [
        {
          "internalType": "bool",
          "name": "",
          "type": "bool"
        }
      ],
      "stateMutability": "view",
      "type": "function"
    },
    {
      "inputs": [
        {
          "internalType": "address",
          "name": "account",
          "type": "address"
        }
      ],
      "name": "isManager",
      "outputs": [
        {
          "internalType": "bool",
          "name": "",
          "type": "bool"
        }
      ],
      "stateMutability": "view",
      "type": "function"
    },
    {
      "inputs": [
        {
          "internalType": "address",
          "name": "account",
          "type": "address"
        }
      ],
      "name": "isOperator",
      "outputs": [
        {
          "internalType": "bool",
          "name": "",
          "type": "bool"
        }
      ],
      "stateMutability": "view",
      "type": "function"
    },
    {
      "inputs": [],
      "name": "isOwner",
      "outputs": [
        {
          "internalType": "bool",
          "name": "",
          "type": "bool"
        }
      ],
      "stateMutability": "view",
      "type": "function"
    },
    {
      "inputs": [],
      "name": "pauseProxy",
      "outputs": [
        {
          "internalType": "bool",
          "name": "",
          "type": "bool"
        }
      ],
      "stateMutability": "view",
      "type": "function"
    },
    {
      "inputs": [
        {
          "internalType": "uint256",
          "name": "",
          "type": "uint256"
        }
      ],
      "name": "proxyImplementation",
      "outputs": [
        {
          "internalType": "address",
          "name": "",
          "type": "address"
        }
      ],
      "stateMutability": "view",
      "type": "function"
    },
    {
      "inputs": [
        {
          "internalType": "address",
          "name": "account",
          "type": "address"
        }
      ],
      "name": "removeAdmin",
      "outputs": [],
      "stateMutability": "nonpayable",
      "type": "function"
    },
    {
      "inputs": [
        {
          "internalType": "address",
          "name": "account",
          "type": "address"
        }
      ],
      "name": "removeManager",
      "outputs": [],
      "stateMutability": "nonpayable",
      "type": "function"
    },
    {
      "inputs": [
        {
          "internalType": "address",
          "name": "account",
          "type": "address"
        }
      ],
      "name": "removeOperator",
      "outputs": [],
      "stateMutability": "nonpayable",
      "type": "function"
    },
    {
      "inputs": [],
      "name": "renounceManager",
      "outputs": [],
      "stateMutability": "nonpayable",
      "type": "function"
    },
    {
      "inputs": [],
      "name": "renounceOperator",
      "outputs": [],
      "stateMutability": "nonpayable",
      "type": "function"
    },
    {
      "inputs": [],
      "name": "renounceOwnership",
      "outputs": [],
      "stateMutability": "nonpayable",
      "type": "function"
    },
    {
      "inputs": [
        {
          "internalType": "bytes32",
          "name": "role",
          "type": "bytes32"
        },
        {
          "internalType": "address",
          "name": "account",
          "type": "address"
        }
      ],
      "name": "renounceRole",
      "outputs": [],
      "stateMutability": "nonpayable",
      "type": "function"
    },
    {
      "inputs": [
        {
          "internalType": "address",
          "name": "account",
          "type": "address"
        }
      ],
      "name": "revokeManager",
      "outputs": [],
      "stateMutability": "nonpayable",
      "type": "function"
    },
    {
      "inputs": [
        {
          "internalType": "address",
          "name": "account",
          "type": "address"
        }
      ],
      "name": "revokeOperator",
      "outputs": [],
      "stateMutability": "nonpayable",
      "type": "function"
    },
    {
      "inputs": [
        {
          "internalType": "bytes32",
          "name": "role",
          "type": "bytes32"
        },
        {
          "internalType": "address",
          "name": "account",
          "type": "address"
        }
      ],
      "name": "revokeRole",
      "outputs": [],
      "stateMutability": "nonpayable",
      "type": "function"
    },
    {
      "inputs": [
        {
          "internalType": "bytes4",
          "name": "",
          "type": "bytes4"
        }
      ],
      "name": "selectorImplementation",
      "outputs": [
        {
          "internalType": "address",
          "name": "",
          "type": "address"
        }
      ],
      "stateMutability": "view",
      "type": "function"
    },
    {
      "inputs": [
        {
          "internalType": "address",
          "name": "newImplementation",
          "type": "address"
        },
        {
          "internalType": "bool",
          "name": "_alive",
          "type": "bool"
        }
      ],
      "name": "setAliveImplementation2",
      "outputs": [],
      "stateMutability": "nonpayable",
      "type": "function"
    },
    {
      "inputs": [
        {
          "internalType": "address",
          "name": "newImplementation",
          "type": "address"
        },
        {
          "internalType": "uint256",
          "name": "_index",
          "type": "uint256"
        },
        {
          "internalType": "bool",
          "name": "_alive",
          "type": "bool"
        }
      ],
      "name": "setImplementation2",
      "outputs": [],
      "stateMutability": "nonpayable",
      "type": "function"
    },
    {
      "inputs": [
        {
          "internalType": "bool",
          "name": "_pause",
          "type": "bool"
        }
      ],
      "name": "setProxyPause",
      "outputs": [],
      "stateMutability": "nonpayable",
      "type": "function"
    },
    {
      "inputs": [
        {
          "internalType": "bytes4[]",
          "name": "_selectors",
          "type": "bytes4[]"
        },
        {
          "internalType": "address",
          "name": "_imp",
          "type": "address"
        }
      ],
      "name": "setSelectorImplementations2",
      "outputs": [],
      "stateMutability": "nonpayable",
      "type": "function"
    },
    {
      "inputs": [
        {
          "internalType": "bytes4",
          "name": "interfaceId",
          "type": "bytes4"
        }
      ],
      "name": "supportsInterface",
      "outputs": [
        {
          "internalType": "bool",
          "name": "",
          "type": "bool"
        }
      ],
      "stateMutability": "view",
      "type": "function"
    },
    {
      "inputs": [
        {
          "internalType": "address",
          "name": "newAdmin",
          "type": "address"
        }
      ],
      "name": "transferAdmin",
      "outputs": [],
      "stateMutability": "nonpayable",
      "type": "function"
    },
    {
      "inputs": [
        {
          "internalType": "address",
          "name": "newAdmin",
          "type": "address"
        }
      ],
      "name": "transferOwnership",
      "outputs": [],
      "stateMutability": "nonpayable",
      "type": "function"
    },
    {
      "inputs": [
        {
          "internalType": "address",
          "name": "impl",
          "type": "address"
        }
      ],
      "name": "upgradeTo",
      "outputs": [],
      "stateMutability": "nonpayable",
      "type": "function"
    },
    {
      "stateMutability": "payable",
      "type": "receive"
    }
  ],
  "bytecode": "0x608060408181523461011257600090818052600560205280822033835260205260ff8183205416156100c7575b7faf290d8680820aad922855f39b306097b20e28774d6c1ad35a20325630c3a02c9081835260056020528260018282200181815491557fbd79b86ffe0ab8e8776151514217cd7cacd52c909f66475c3af44e129f0b00ff93848380a460017f523a704056dcd17bcf83bed8b68c59416dac1119be77755efe3bde0a64e46e0c918285528420019183835493558380a4611bd790816101188239f35b8180526005602052808220338352602052808220600160ff198254161790553333837f2f8788117e7eff1d82e926ec794901d17c78024a50270940304540a733656f0d8180a461002c565b600080fdfe60806040526004361015610018575b366119c357611987565b60003560e01c806301ffc9a71461026a5780631785f53c14610265578063248a9ca31461026057806324d7806c1461025b5780632ab6f8db146102565780632d06177a146102515780632f2ff15d1461024c57806336568abe146102475780633659cfe614610242578063377e32e6146101e85780634a5df50f1461023d57806350d2a27614610238578063550d01a3146102335780635c60da1b1461022e5780635cc797d81461022957806363a8fd89146102245780636d70f7ae1461021f578063704802751461021a578063715018a61461021557806375829def146102105780637cb00d251461020b5780637cd5f663146102065780638b8f4a65146101e35780638d4fdb40146102015780638f32d59b146101fc57806391d14854146101f75780639870d7fe146101f2578063a217fddf146101ed578063ac18de43146101e8578063ac8a584a146101c0578063b911135f146101e3578063d547741f146101de578063ec87621c146101d9578063f2fde38b146101d4578063f3ae2415146101cf578063f5b541a6146101ca578063f8b91abe146101c55763fad8b32a0361000e575b611085565b6111fa565b6111d1565b61117f565b61115a565b611131565b6110f2565b610f12565b6107b4565b611069565b610ffc565b610fb6565b610f7f565b610f46565b610e38565b610de0565b610d19565b610cf3565b610c07565b610bb5565b610b92565b610b3b565b610b0a565b610acb565b610a85565b61089d565b6106d4565b610640565b610609565b61050a565b610485565b610435565b610406565b61032b565b610286565b6001600160e01b031981160361028157565b600080fd5b34610281576020366003190112610281576004356102a38161026f565b6001600160e01b031916637965db0b60e01b811480156102cb575b6020906040519015158152f35b506301ffc9a760e01b811480156102e6575b602091506102be565b506000526004602052602060ff604060002054166102dd565b600435906001600160a01b038216820361028157565b602435906001600160a01b038216820361028157565b34610281576020366003190112610281576103446102ff565b6103556103503361123c565b611792565b600080805260056020527f05b8ccbb9d4d8fb16ea74ce3c29a41f1b461fbdaff4714a0d9a8eb05499746bd5490919061038d9061132a565b8180526005602090815260408084206001600160a01b0384166000908152925290205460ff166103bb575080f35b8180526005602090815260408084206001600160a01b038416600090815292529020805460ff1916905533906001600160a01b031682600080516020611b8b8339815191528180a480f35b346102815760203660031901126102815760043560005260056020526020600160406000200154604051908152f35b3461028157602036600319011261028157602060ff6104796104556102ff565b600080526005845260406000209060018060a01b0316600052602052604060002090565b54166040519015158152f35b346102815760008060031936011261050757600080516020611b6b8339815191528082526005602090815260408084203360009081529252902060ff905b54166104cd575080f35b80825260056020908152604080842033600090815292529020805460ff1916905533908190600080516020611b8b8339815191528480a480f35b80fd5b34610281576020366003190112610281576105236102ff565b61052f6103503361123c565b600080516020611b4b833981519152600081815260056020527f67f351182989509d05df317024ac600e03d0c404c1b07ecdc5d72ea1208a722b54909291906105779061132a565b8083526005602090815260408085206001600160a01b0385166000908152925290205460ff16156105a6578280f35b8083526005602090815260408085206001600160a01b038516600090815292529020805460ff1916600117905533916001600160a01b0316907f2f8788117e7eff1d82e926ec794901d17c78024a50270940304540a733656f0d8480a438808280f35b3461028157604036600319011261028157600435610625610315565b6000918083526005602052610577600160408520015461132a565b3461028157604036600319011261028157610659610315565b336001600160a01b038216036106775761067590600435611599565b005b60405162461bcd60e51b815260206004820152602f60248201527f416363657373436f6e74726f6c3a2063616e206f6e6c792072656e6f756e636560448201526e103937b632b9903337b91039b2b63360891b6064820152608490fd5b34610281576020366003190112610281576106ed6102ff565b336000908152600080516020611bab8339815191526020526040812090919061071b9060ff905b5416611792565b6001600160a01b03811690811561077f57828052600160205260408320546107589190610753906001600160a01b03168414156117ea565b611a5e565b7fbc7cd75a20ee27fd9adebab32041f755214dbc6bffa90cc0225b39da2e5c2d3b8280a280f35b60405162461bcd60e51b815260206004820152600d60248201526c696e707574206973207a65726f60981b6044820152606490fd5b34610281576020366003190112610281576107cd6102ff565b6107d96103503361123c565b600080516020611b4b833981519152600081815260056020527f67f351182989509d05df317024ac600e03d0c404c1b07ecdc5d72ea1208a722b54909291906108219061132a565b8083526005602090815260408085206001600160a01b0385166000908152925290205460ff1661084f578280f35b8083526005602090815260408085206001600160a01b038516600090815292529020805460ff1916905533916001600160a01b031690600080516020611b8b8339815191528480a438808280f35b346102815760403660031901126102815767ffffffffffffffff6004358181116102815736602382011215610281578060040135918211610281576024810190602436918460051b010111610281576108f4610315565b336000908152600080516020611bab8339815191526020526040812090939061091f9060ff90610714565b8015610a415761095561095061094984959460018060a01b03166000526002602052604060002090565b5460ff1690565b611822565b6001600160a01b03928084169290855b838110610970578680f35b806109c086886109b86109ab61099261098d610a3c988c8c61187d565b61188d565b63ffffffff60e01b166000526003602052604060002090565b546001600160a01b031690565b161415611897565b6109f4836109d561099261098d858a8a61187d565b80546001600160a01b0319166001600160a01b03909216919091179055565b85610a13610a0661098d84898961187d565b6001600160e01b03191690565b7f14ebc1c32aa68f4d766e89f3e546cee249f7df25183fc10ab1568d91c2ce9b7b8a80a361186e565b610965565b606460405162461bcd60e51b815260206004820152602060248201527f50726f78793a205f73656c6563746f727327732073697a65206973207a65726f6044820152fd5b3461028157602036600319011261028157600435610aa28161026f565b63ffffffff60e01b166000526003602052602060018060a01b0360406000205416604051908152f35b34610281576020366003190112610281576001600160a01b03610aec6102ff565b166000526002602052602060ff604060002054166040519015158152f35b34610281576000806003193601126105075780806020925260018252604060018060a01b0391205416604051908152f35b3461028157604036600319011261028157610b546102ff565b602435801515810361028157336000908152600080516020611bab833981519152602052604090206106759290610b8d9060ff90610714565b611af6565b3461028157600036600319011261028157602060ff600054166040519015158152f35b3461028157602036600319011261028157602060ff610479610bd56102ff565b600080516020611b6b8339815191526000526005845260406000209060018060a01b0316600052602052604060002090565b3461028157602036600319011261028157610c206102ff565b610c2c6103503361123c565b600080805260056020527f05b8ccbb9d4d8fb16ea74ce3c29a41f1b461fbdaff4714a0d9a8eb05499746bd54909190610c649061132a565b8180526005602090815260408084206001600160a01b0384166000908152925290205460ff1615610c93575080f35b8180526005602090815260408084206001600160a01b038416600090815292529020805460ff1916600117905533906001600160a01b0316827f2f8788117e7eff1d82e926ec794901d17c78024a50270940304540a733656f0d8180a480f35b3461028157600036600319011261028157610d106103503361123c565b6106753361150e565b3461028157602036600319011261028157610d326102ff565b610d3e6103503361123c565b6001600160a01b0381168015610d9b573314610d5d57610d1090611267565b60405162461bcd60e51b815260206004820152601660248201527520b1b1b2b9b9b4b136329d1039b0b6b29030b236b4b760511b6044820152606490fd5b60405162461bcd60e51b815260206004820152601860248201527f41636365737369626c653a207a65726f206164647265737300000000000000006044820152606490fd5b346102815760203660031901126102815760043580151580910361028157336000908152600080516020611bab83398151915260205260408120909190610e299060ff90610714565b60ff8019835416911617815580f35b3461028157606036600319011261028157610e516102ff565b60443590811515820361028157336000908152600080516020611bab83398151915260205260408120909290610e899060ff90610714565b813b15610ecd57610e9e9181610ea157611af6565b80f35b602435845260016020526040842080546001600160a01b0319166001600160a01b038316179055611af6565b60405162461bcd60e51b815260206004820152601b60248201527f50726f78793a206e6f7420636f6e7472616374206164647265737300000000006044820152606490fd5b34610281576020366003190112610281576004356000526001602052602060018060a01b0360406000205416604051908152f35b34610281576020366003190112610281576020610f6d600435610f688161026f565b6118e3565b6040516001600160a01b039091168152f35b346102815760008060031936011261050757808052600560209081526040918290203360009081529082529190912060ff90610479565b3461028157604036600319011261028157602060ff610479610fd6610315565b6004356000526005845260406000209060018060a01b0316600052602052604060002090565b34610281576020366003190112610281576110156102ff565b6110216103503361123c565b600080516020611b6b833981519152600081815260056020527f02634a7c777b8129955fe1824eee49ef19dfa96f2f4cb63212492c3d84eb58e754909291906105779061132a565b3461028157600036600319011261028157602060405160008152f35b346102815760203660031901126102815761109e6102ff565b6110aa6103503361123c565b600080516020611b6b833981519152600081815260056020527f02634a7c777b8129955fe1824eee49ef19dfa96f2f4cb63212492c3d84eb58e754909291906108219061132a565b3461028157604036600319011261028157610675600435611111610315565b9080600052600560205261112c60016040600020015461132a565b611599565b34610281576000366003190112610281576020604051600080516020611b4b8339815191528152f35b34610281576020366003190112610281576111736102ff565b610d326103503361123c565b3461028157602036600319011261028157602060ff61047961119f6102ff565b600080516020611b4b8339815191526000526005845260406000209060018060a01b0316600052602052604060002090565b34610281576000366003190112610281576020604051600080516020611b6b8339815191528152f35b346102815760008060031936011261050757600080516020611b4b8339815191528082526005602090815260408084203360009081529252902060ff906104c3565b6001600160a01b03166000908152600080516020611bab833981519152602052604090205460ff1690565b600080805260056020527f05b8ccbb9d4d8fb16ea74ce3c29a41f1b461fbdaff4714a0d9a8eb05499746bd5461129c9061132a565b8080526005602090815260408083206001600160a01b0385166000908152925290205460ff16156112cb575050565b8080526005602090815260408083206001600160a01b038516600090815292529020805460ff1916600117905533916001600160a01b0316907f2f8788117e7eff1d82e926ec794901d17c78024a50270940304540a733656f0d8180a4565b600081815260056020908152604080832033845290915290205460ff161561134f5750565b3390611359611630565b91603061136584611673565b53607861137184611680565b5360295b60018111611424576114206113dd611408866113fa61139d8861139889156116b3565b6116fe565b6113d76040519586946113d7602087016017907f416363657373436f6e74726f6c3a206163636f756e742000000000000000000081520190565b9061148e565b7001034b99036b4b9b9b4b733903937b6329607d1b815260110190565b03601f1981018352826114bb565b60405162461bcd60e51b8152918291600483016114e2565b0390fd5b90600f811690601082101561146657611461916f181899199a1a9b1b9c1cb0b131b232b360811b901a6114578487611690565b5360041c916116a1565b611375565b61165d565b60005b83811061147e5750506000910152565b818101518382015260200161146e565b906114a16020928281519485920161146b565b0190565b634e487b7160e01b600052604160045260246000fd5b90601f8019910116810190811067ffffffffffffffff8211176114dd57604052565b6114a5565b60409160208252611502815180928160208601526020868601910161146b565b601f01601f1916010190565b6001600160a01b038116338103610677576001600160a01b0382166000908152600080516020611bab833981519152602052604081205490929060ff1661155457505050565b61157b908380526005602052604084209060018060a01b0316600052602052604060002090565b805460ff191690553391600080516020611b8b8339815191528180a4565b600090808252600560205260ff6115c584604085209060018060a01b0316600052602052604060002090565b54166115d057505050565b8082526005602090815260408084206001600160a01b038616600090815292529020805460ff1916905533926001600160a01b031691600080516020611b8b8339815191529080a4565b634e487b7160e01b600052601160045260246000fd5b604051906060820182811067ffffffffffffffff8211176114dd57604052602a8252604082602036910137565b634e487b7160e01b600052603260045260246000fd5b8051156114665760200190565b8051600110156114665760210190565b908151811015611466570160200190565b80156116ae576000190190565b61161a565b156116ba57565b606460405162461bcd60e51b815260206004820152602060248201527f537472696e67733a20686578206c656e67746820696e73756666696369656e746044820152fd5b604051906080820182811067ffffffffffffffff8211176114dd57604052604282526060366020840137603061173383611673565b53607861173f83611680565b536041905b6001821161175a576117579150156116b3565b90565b600f81169060108210156114665761178c916f181899199a1a9b1b9c1cb0b131b232b360811b901a6114578486611690565b90611744565b1561179957565b60405162461bcd60e51b815260206004820152602360248201527f41757468436f6e74726f6c3a2043616c6c6572206973206e6f7420616e20616460448201526236b4b760e91b6064820152608490fd5b156117f157565b60405162461bcd60e51b815260206004820152600960248201526839b0b6b29030b2323960b91b6044820152606490fd5b1561182957565b60405162461bcd60e51b815260206004820152601860248201527f50726f78793a205f696d70206973206e6f7420616c69766500000000000000006044820152606490fd5b60001981146116ae5760010190565b91908110156114665760051b0190565b356117578161026f565b1561189e57565b60405162461bcd60e51b815260206004820152601d60248201527f4c69717569646974795661756c7450726f78793a2073616d6520696d700000006044820152606490fd5b6001600160e01b0319166000908152600360205260409020546001600160a01b039081168061193c57506000805260016020527fa6eef7e35abe7026729641147f7915573c7e97b47efa546f5f6e3230263bcb49541690565b80600052600260205260ff6040600020541661198257506000805260016020527fa6eef7e35abe7026729641147f7915573c7e97b47efa546f5f6e3230263bcb49541690565b905090565b60405162461bcd60e51b815260206004820152601460248201527331b0b73737ba103932b1b2b4bb329022ba3432b960611b6044820152606490fd5b60006119d981356001600160e01b0319166118e3565b6001600160a01b038116151580611a52575b15611a0d57818091368280378136915af43d82803e15611a09573d90f35b3d90fd5b60405162461bcd60e51b815260206004820152601d60248201527f50726f78793a20696d706c204f522070726f78792069732066616c73650000006044820152606490fd5b5060ff825416156119eb565b803b15610ecd576000805260016020527fa6eef7e35abe7026729641147f7915573c7e97b47efa546f5f6e3230263bcb4980546001600160a01b0319166001600160a01b03831617905560018060a01b03168060005260026020526040600020600160ff198254161790557f72558d9bfba4210f9ef095c782589484151f6d90f7a81bb3cb9b33efc695d324602060405160018152a2565b60207f72558d9bfba4210f9ef095c782589484151f6d90f7a81bb3cb9b33efc695d3249160018060a01b031692836000526002825260406000209015159060ff1981541660ff8316179055604051908152a256feaf290d8680820aad922855f39b306097b20e28774d6c1ad35a20325630c3a02c523a704056dcd17bcf83bed8b68c59416dac1119be77755efe3bde0a64e46e0cf6391f5c32d9c69d2a47ea670b442974b53935d1edc7fd64eb21e047a839171b05b8ccbb9d4d8fb16ea74ce3c29a41f1b461fbdaff4714a0d9a8eb05499746bca164736f6c6343000813000a",
  "linkReferences": {},
  "deployedLinkReferences": {}
}