{
  "_format": "hh-sol-artifact-1",
  "contractName": "ProxyL2Registry",
  "sourceName": "contracts/proxy/ProxyLayer2Manager.sol",
  "abi": [
    {
      "inputs": [],
      "stateMutability": "nonpayable",
      "type": "constructor"
    },
    {
      "anonymous": false,
      "inputs": [
        {
          "indexed": true,
          "internalType": "bytes32",
          "name": "role",
          "type": "bytes32"
        },
        {
          "indexed": true,
          "internalType": "bytes32",
          "name": "previousAdminRole",
          "type": "bytes32"
        },
        {
          "indexed": true,
          "internalType": "bytes32",
          "name": "newAdminRole",
          "type": "bytes32"
        }
      ],
      "name": "RoleAdminChanged",
      "type": "event"
    },
    {
      "anonymous": false,
      "inputs": [
        {
          "indexed": true,
          "internalType": "bytes32",
          "name": "role",
          "type": "bytes32"
        },
        {
          "indexed": true,
          "internalType": "address",
          "name": "account",
          "type": "address"
        },
        {
          "indexed": true,
          "internalType": "address",
          "name": "sender",
          "type": "address"
        }
      ],
      "name": "RoleGranted",
      "type": "event"
    },
    {
      "anonymous": false,
      "inputs": [
        {
          "indexed": true,
          "internalType": "bytes32",
          "name": "role",
          "type": "bytes32"
        },
        {
          "indexed": true,
          "internalType": "address",
          "name": "account",
          "type": "address"
        },
        {
          "indexed": true,
          "internalType": "address",
          "name": "sender",
          "type": "address"
        }
      ],
      "name": "RoleRevoked",
      "type": "event"
    },
    {
      "anonymous": false,
      "inputs": [
        {
          "indexed": true,
          "internalType": "address",
          "name": "impl",
          "type": "address"
        },
        {
          "indexed": false,
          "internalType": "bool",
          "name": "alive",
          "type": "bool"
        }
      ],
      "name": "SetAliveImplementation",
      "type": "event"
    },
    {
      "anonymous": false,
      "inputs": [
        {
          "indexed": true,
          "internalType": "bytes4",
          "name": "selector",
          "type": "bytes4"
        },
        {
          "indexed": true,
          "internalType": "address",
          "name": "impl",
          "type": "address"
        }
      ],
      "name": "SetSelectorImplementation",
      "type": "event"
    },
    {
      "anonymous": false,
      "inputs": [
        {
          "indexed": true,
          "internalType": "address",
          "name": "implementation",
          "type": "address"
        }
      ],
      "name": "Upgraded",
      "type": "event"
    },
    {
      "stateMutability": "payable",
      "type": "fallback"
    },
    {
      "inputs": [],
      "name": "DEFAULT_ADMIN_ROLE",
      "outputs": [
        {
          "internalType": "bytes32",
          "name": "",
          "type": "bytes32"
        }
      ],
      "stateMutability": "view",
      "type": "function"
    },
    {
      "inputs": [],
      "name": "MANAGER_ROLE",
      "outputs": [
        {
          "internalType": "bytes32",
          "name": "",
          "type": "bytes32"
        }
      ],
      "stateMutability": "view",
      "type": "function"
    },
    {
      "inputs": [],
      "name": "OPERATOR_ROLE",
      "outputs": [
        {
          "internalType": "bytes32",
          "name": "",
          "type": "bytes32"
        }
      ],
      "stateMutability": "view",
      "type": "function"
    },
    {
      "inputs": [
        {
          "internalType": "address",
          "name": "account",
          "type": "address"
        }
      ],
      "name": "addAdmin",
      "outputs": [],
      "stateMutability": "nonpayable",
      "type": "function"
    },
    {
      "inputs": [
        {
          "internalType": "address",
          "name": "account",
          "type": "address"
        }
      ],
      "name": "addManager",
      "outputs": [],
      "stateMutability": "nonpayable",
      "type": "function"
    },
    {
      "inputs": [
        {
          "internalType": "address",
          "name": "account",
          "type": "address"
        }
      ],
      "name": "addOperator",
      "outputs": [],
      "stateMutability": "nonpayable",
      "type": "function"
    },
    {
      "inputs": [
        {
          "internalType": "address",
          "name": "",
          "type": "address"
        }
      ],
      "name": "aliveImplementation",
      "outputs": [
        {
          "internalType": "bool",
          "name": "",
          "type": "bool"
        }
      ],
      "stateMutability": "view",
      "type": "function"
    },
    {
      "inputs": [
        {
          "internalType": "bytes32",
          "name": "role",
          "type": "bytes32"
        }
      ],
      "name": "getRoleAdmin",
      "outputs": [
        {
          "internalType": "bytes32",
          "name": "",
          "type": "bytes32"
        }
      ],
      "stateMutability": "view",
      "type": "function"
    },
    {
      "inputs": [
        {
          "internalType": "bytes4",
          "name": "_selector",
          "type": "bytes4"
        }
      ],
      "name": "getSelectorImplementation2",
      "outputs": [
        {
          "internalType": "address",
          "name": "impl",
          "type": "address"
        }
      ],
      "stateMutability": "view",
      "type": "function"
    },
    {
      "inputs": [
        {
          "internalType": "bytes32",
          "name": "role",
          "type": "bytes32"
        },
        {
          "internalType": "address",
          "name": "account",
          "type": "address"
        }
      ],
      "name": "grantRole",
      "outputs": [],
      "stateMutability": "nonpayable",
      "type": "function"
    },
    {
      "inputs": [
        {
          "internalType": "bytes32",
          "name": "role",
          "type": "bytes32"
        },
        {
          "internalType": "address",
          "name": "account",
          "type": "address"
        }
      ],
      "name": "hasRole",
      "outputs": [
        {
          "internalType": "bool",
          "name": "",
          "type": "bool"
        }
      ],
      "stateMutability": "view",
      "type": "function"
    },
    {
      "inputs": [],
      "name": "implementation",
      "outputs": [
        {
          "internalType": "address",
          "name": "",
          "type": "address"
        }
      ],
      "stateMutability": "view",
      "type": "function"
    },
    {
      "inputs": [
        {
          "internalType": "uint256",
          "name": "_index",
          "type": "uint256"
        }
      ],
      "name": "implementation2",
      "outputs": [
        {
          "internalType": "address",
          "name": "",
          "type": "address"
        }
      ],
      "stateMutability": "view",
      "type": "function"
    },
    {
      "inputs": [
        {
          "internalType": "address",
          "name": "account",
          "type": "address"
        }
      ],
      "name": "isAdmin",
      "outputs": [
        {
          "internalType": "bool",
          "name": "",
          "type": "bool"
        }
      ],
      "stateMutability": "view",
      "type": "function"
    },
    {
      "inputs": [
        {
          "internalType": "address",
          "name": "account",
          "type": "address"
        }
      ],
      "name": "isManager",
      "outputs": [
        {
          "internalType": "bool",
          "name": "",
          "type": "bool"
        }
      ],
      "stateMutability": "view",
      "type": "function"
    },
    {
      "inputs": [
        {
          "internalType": "address",
          "name": "account",
          "type": "address"
        }
      ],
      "name": "isOperator",
      "outputs": [
        {
          "internalType": "bool",
          "name": "",
          "type": "bool"
        }
      ],
      "stateMutability": "view",
      "type": "function"
    },
    {
      "inputs": [],
      "name": "isOwner",
      "outputs": [
        {
          "internalType": "bool",
          "name": "",
          "type": "bool"
        }
      ],
      "stateMutability": "view",
      "type": "function"
    },
    {
      "inputs": [],
      "name": "pauseProxy",
      "outputs": [
        {
          "internalType": "bool",
          "name": "",
          "type": "bool"
        }
      ],
      "stateMutability": "view",
      "type": "function"
    },
    {
      "inputs": [
        {
          "internalType": "uint256",
          "name": "",
          "type": "uint256"
        }
      ],
      "name": "proxyImplementation",
      "outputs": [
        {
          "internalType": "address",
          "name": "",
          "type": "address"
        }
      ],
      "stateMutability": "view",
      "type": "function"
    },
    {
      "inputs": [
        {
          "internalType": "address",
          "name": "account",
          "type": "address"
        }
      ],
      "name": "removeAdmin",
      "outputs": [],
      "stateMutability": "nonpayable",
      "type": "function"
    },
    {
      "inputs": [
        {
          "internalType": "address",
          "name": "account",
          "type": "address"
        }
      ],
      "name": "removeManager",
      "outputs": [],
      "stateMutability": "nonpayable",
      "type": "function"
    },
    {
      "inputs": [
        {
          "internalType": "address",
          "name": "account",
          "type": "address"
        }
      ],
      "name": "removeOperator",
      "outputs": [],
      "stateMutability": "nonpayable",
      "type": "function"
    },
    {
      "inputs": [],
      "name": "renounceManager",
      "outputs": [],
      "stateMutability": "nonpayable",
      "type": "function"
    },
    {
      "inputs": [],
      "name": "renounceOperator",
      "outputs": [],
      "stateMutability": "nonpayable",
      "type": "function"
    },
    {
      "inputs": [],
      "name": "renounceOwnership",
      "outputs": [],
      "stateMutability": "nonpayable",
      "type": "function"
    },
    {
      "inputs": [
        {
          "internalType": "bytes32",
          "name": "role",
          "type": "bytes32"
        },
        {
          "internalType": "address",
          "name": "account",
          "type": "address"
        }
      ],
      "name": "renounceRole",
      "outputs": [],
      "stateMutability": "nonpayable",
      "type": "function"
    },
    {
      "inputs": [
        {
          "internalType": "address",
          "name": "account",
          "type": "address"
        }
      ],
      "name": "revokeManager",
      "outputs": [],
      "stateMutability": "nonpayable",
      "type": "function"
    },
    {
      "inputs": [
        {
          "internalType": "address",
          "name": "account",
          "type": "address"
        }
      ],
      "name": "revokeOperator",
      "outputs": [],
      "stateMutability": "nonpayable",
      "type": "function"
    },
    {
      "inputs": [
        {
          "internalType": "bytes32",
          "name": "role",
          "type": "bytes32"
        },
        {
          "internalType": "address",
          "name": "account",
          "type": "address"
        }
      ],
      "name": "revokeRole",
      "outputs": [],
      "stateMutability": "nonpayable",
      "type": "function"
    },
    {
      "inputs": [
        {
          "internalType": "bytes4",
          "name": "",
          "type": "bytes4"
        }
      ],
      "name": "selectorImplementation",
      "outputs": [
        {
          "internalType": "address",
          "name": "",
          "type": "address"
        }
      ],
      "stateMutability": "view",
      "type": "function"
    },
    {
      "inputs": [
        {
          "internalType": "address",
          "name": "newImplementation",
          "type": "address"
        },
        {
          "internalType": "bool",
          "name": "_alive",
          "type": "bool"
        }
      ],
      "name": "setAliveImplementation2",
      "outputs": [],
      "stateMutability": "nonpayable",
      "type": "function"
    },
    {
      "inputs": [
        {
          "internalType": "address",
          "name": "newImplementation",
          "type": "address"
        },
        {
          "internalType": "uint256",
          "name": "_index",
          "type": "uint256"
        },
        {
          "internalType": "bool",
          "name": "_alive",
          "type": "bool"
        }
      ],
      "name": "setImplementation2",
      "outputs": [],
      "stateMutability": "nonpayable",
      "type": "function"
    },
    {
      "inputs": [
        {
          "internalType": "bool",
          "name": "_pause",
          "type": "bool"
        }
      ],
      "name": "setProxyPause",
      "outputs": [],
      "stateMutability": "nonpayable",
      "type": "function"
    },
    {
      "inputs": [
        {
          "internalType": "bytes4[]",
          "name": "_selectors",
          "type": "bytes4[]"
        },
        {
          "internalType": "address",
          "name": "_imp",
          "type": "address"
        }
      ],
      "name": "setSelectorImplementations2",
      "outputs": [],
      "stateMutability": "nonpayable",
      "type": "function"
    },
    {
      "inputs": [
        {
          "internalType": "bytes4",
          "name": "interfaceId",
          "type": "bytes4"
        }
      ],
      "name": "supportsInterface",
      "outputs": [
        {
          "internalType": "bool",
          "name": "",
          "type": "bool"
        }
      ],
      "stateMutability": "view",
      "type": "function"
    },
    {
      "inputs": [
        {
          "internalType": "address",
          "name": "newAdmin",
          "type": "address"
        }
      ],
      "name": "transferAdmin",
      "outputs": [],
      "stateMutability": "nonpayable",
      "type": "function"
    },
    {
      "inputs": [
        {
          "internalType": "address",
          "name": "newAdmin",
          "type": "address"
        }
      ],
      "name": "transferOwnership",
      "outputs": [],
      "stateMutability": "nonpayable",
      "type": "function"
    },
    {
      "inputs": [
        {
          "internalType": "address",
          "name": "impl",
          "type": "address"
        }
      ],
      "name": "upgradeTo",
      "outputs": [],
      "stateMutability": "nonpayable",
      "type": "function"
    },
    {
      "stateMutability": "payable",
      "type": "receive"
    }
  ],
  "bytecode": "0x608060408181523461011257600090818052600560205280822033835260205260ff8183205416156100c7575b7faf290d8680820aad922855f39b306097b20e28774d6c1ad35a20325630c3a02c9081835260056020528260018282200181815491557fbd79b86ffe0ab8e8776151514217cd7cacd52c909f66475c3af44e129f0b00ff93848380a460017f523a704056dcd17bcf83bed8b68c59416dac1119be77755efe3bde0a64e46e0c918285528420019183835493558380a4611c1990816101188239f35b8180526005602052808220338352602052808220600160ff198254161790553333837f2f8788117e7eff1d82e926ec794901d17c78024a50270940304540a733656f0d8180a461002c565b600080fdfe60806040526004361015610018575b36611a05576119c9565b60003560e01c806301ffc9a7146102735780631785f53c1461026e578063248a9ca31461026957806324d7806c146102645780632ab6f8db1461025f5780632d06177a1461025a5780632f2ff15d1461025557806336568abe146102505780633659cfe61461024b578063377e32e6146102465780634a5df50f1461024157806350d2a2761461023c578063550d01a3146102375780635c60da1b146102325780635cc797d81461022d57806363a8fd89146102285780636d70f7ae14610223578063704802751461021e578063715018a61461021957806375829def146102145780637cb00d251461020f5780637cd5f6631461020a5780638b8f4a65146101e25780638d4fdb40146102055780638f32d59b1461020057806391d14854146101fb5780639870d7fe146101f6578063a217fddf146101f1578063ac18de43146101ec578063ac8a584a146101e7578063b911135f146101e2578063d547741f146101dd578063ec87621c146101d8578063f2fde38b146101d3578063f3ae2415146101ce578063f5b541a6146101c9578063f8b91abe146101c45763fad8b32a0361000e576110f9565b6110df565b6110b6565b611064565b61103f565b611016565b610fd7565b610e0a565b610faa565b610f7d565b610f61565b610ef4565b610eae565b610e77565b610e3e565b610d30565b610cd8565b610c11565b610beb565b610aff565b610aad565b610a8a565b610a33565b6109ff565b6109c0565b61097a565b610792565b6106a9565b6105c9565b610537565b610500565b610401565b6103e7565b610397565b610368565b610334565b61028f565b6001600160e01b031981160361028a57565b600080fd5b3461028a57602036600319011261028a576004356102ac81610278565b6001600160e01b031916637965db0b60e01b811480156102d4575b6020906040519015158152f35b506301ffc9a760e01b811480156102ef575b602091506102c7565b506000526004602052602060ff604060002054166102e6565b600435906001600160a01b038216820361028a57565b602435906001600160a01b038216820361028a57565b3461028a57602036600319011261028a57610366610350610308565b61036161035c33611166565b6117d4565b611438565b005b3461028a57602036600319011261028a5760043560005260056020526020600160406000200154604051908152f35b3461028a57602036600319011261028a57602060ff6103db6103b7610308565b600080526005845260406000209060018060a01b0316600052602052604060002090565b54166040519015158152f35b3461028a57600036600319011261028a57610366336114c3565b3461028a57602036600319011261028a5761041a610308565b61042661035c33611166565b600080516020611b8d833981519152600081815260056020527f67f351182989509d05df317024ac600e03d0c404c1b07ecdc5d72ea1208a722b549092919061046e90611254565b8083526005602090815260408085206001600160a01b0385166000908152925290205460ff161561049d578280f35b8083526005602090815260408085206001600160a01b038516600090815292529020805460ff1916600117905533916001600160a01b0316907f2f8788117e7eff1d82e926ec794901d17c78024a50270940304540a733656f0d8480a438808280f35b3461028a57604036600319011261028a5760043561051c61031e565b600091808352600560205261046e6001604085200154611254565b3461028a57604036600319011261028a5761055061031e565b336001600160a01b0382160361056c57610366906004356115db565b60405162461bcd60e51b815260206004820152602f60248201527f416363657373436f6e74726f6c3a2063616e206f6e6c792072656e6f756e636560448201526e103937b632b9903337b91039b2b63360891b6064820152608490fd5b3461028a57602036600319011261028a576105e2610308565b336000908152600080516020611bed833981519152602052604081209091906106109060ff905b54166117d4565b6001600160a01b038116908115610674578280526001602052604083205461064d9190610648906001600160a01b031684141561182c565b611aa0565b7fbc7cd75a20ee27fd9adebab32041f755214dbc6bffa90cc0225b39da2e5c2d3b8280a280f35b60405162461bcd60e51b815260206004820152600d60248201526c696e707574206973207a65726f60981b6044820152606490fd5b3461028a57602036600319011261028a576106c2610308565b6106ce61035c33611166565b600080516020611b8d833981519152600081815260056020527f67f351182989509d05df317024ac600e03d0c404c1b07ecdc5d72ea1208a722b549092919061071690611254565b8083526005602090815260408085206001600160a01b0385166000908152925290205460ff16610744578280f35b8083526005602090815260408085206001600160a01b038516600090815292529020805460ff1916905533916001600160a01b031690600080516020611bcd8339815191528480a438808280f35b3461028a57604036600319011261028a5767ffffffffffffffff60043581811161028a573660238201121561028a57806004013591821161028a576024810190602436918460051b01011161028a576107e961031e565b336000908152600080516020611bed833981519152602052604081209093906108149060ff90610609565b80156109365761084a61084561083e84959460018060a01b03166000526002602052604060002090565b5460ff1690565b611864565b6001600160a01b03928084169290855b838110610865578680f35b806108b586886108ad6108a0610887610882610931988c8c6118bf565b6118cf565b63ffffffff60e01b166000526003602052604060002090565b546001600160a01b031690565b1614156118d9565b6108e9836108ca610887610882858a8a6118bf565b80546001600160a01b0319166001600160a01b03909216919091179055565b856109086108fb6108828489896118bf565b6001600160e01b03191690565b7f14ebc1c32aa68f4d766e89f3e546cee249f7df25183fc10ab1568d91c2ce9b7b8a80a36118b0565b61085a565b606460405162461bcd60e51b815260206004820152602060248201527f50726f78793a205f73656c6563746f727327732073697a65206973207a65726f6044820152fd5b3461028a57602036600319011261028a5760043561099781610278565b63ffffffff60e01b166000526003602052602060018060a01b0360406000205416604051908152f35b3461028a57602036600319011261028a576001600160a01b036109e1610308565b166000526002602052602060ff604060002054166040519015158152f35b3461028a57600080600319360112610a305780806020925260018252604060018060a01b0391205416604051908152f35b80fd5b3461028a57604036600319011261028a57610a4c610308565b602435801515810361028a57336000908152600080516020611bed833981519152602052604090206103669290610a859060ff90610609565b611b38565b3461028a57600036600319011261028a57602060ff600054166040519015158152f35b3461028a57602036600319011261028a57602060ff6103db610acd610308565b600080516020611bad8339815191526000526005845260406000209060018060a01b0316600052602052604060002090565b3461028a57602036600319011261028a57610b18610308565b610b2461035c33611166565b600080805260056020527f05b8ccbb9d4d8fb16ea74ce3c29a41f1b461fbdaff4714a0d9a8eb05499746bd54909190610b5c90611254565b8180526005602090815260408084206001600160a01b0384166000908152925290205460ff1615610b8b575080f35b8180526005602090815260408084206001600160a01b038416600090815292529020805460ff1916600117905533906001600160a01b0316827f2f8788117e7eff1d82e926ec794901d17c78024a50270940304540a733656f0d8180a480f35b3461028a57600036600319011261028a57610c0861035c33611166565b61036633611438565b3461028a57602036600319011261028a57610c2a610308565b610c3661035c33611166565b6001600160a01b0381168015610c93573314610c5557610c0890611191565b60405162461bcd60e51b815260206004820152601660248201527520b1b1b2b9b9b4b136329d1039b0b6b29030b236b4b760511b6044820152606490fd5b60405162461bcd60e51b815260206004820152601860248201527f41636365737369626c653a207a65726f206164647265737300000000000000006044820152606490fd5b3461028a57602036600319011261028a5760043580151580910361028a57336000908152600080516020611bed83398151915260205260408120909190610d219060ff90610609565b60ff8019835416911617815580f35b3461028a57606036600319011261028a57610d49610308565b60443590811515820361028a57336000908152600080516020611bed83398151915260205260408120909290610d819060ff90610609565b813b15610dc557610d969181610d9957611b38565b80f35b602435845260016020526040842080546001600160a01b0319166001600160a01b038316179055611b38565b60405162461bcd60e51b815260206004820152601b60248201527f50726f78793a206e6f7420636f6e7472616374206164647265737300000000006044820152606490fd5b3461028a57602036600319011261028a576004356000526001602052602060018060a01b0360406000205416604051908152f35b3461028a57602036600319011261028a576020610e65600435610e6081610278565b611925565b6040516001600160a01b039091168152f35b3461028a57600080600319360112610a3057808052600560209081526040918290203360009081529082529190912060ff906103db565b3461028a57604036600319011261028a57602060ff6103db610ece61031e565b6004356000526005845260406000209060018060a01b0316600052602052604060002090565b3461028a57602036600319011261028a57610f0d610308565b610f1961035c33611166565b600080516020611bad833981519152600081815260056020527f02634a7c777b8129955fe1824eee49ef19dfa96f2f4cb63212492c3d84eb58e7549092919061046e90611254565b3461028a57600036600319011261028a57602060405160008152f35b3461028a57602036600319011261028a57610366610f99610308565b610fa561035c33611166565b611579565b3461028a57602036600319011261028a57610366610fc6610308565b610fd261035c33611166565b6114c3565b3461028a57604036600319011261028a57610366600435610ff661031e565b90806000526005602052611011600160406000200154611254565b6115db565b3461028a57600036600319011261028a576020604051600080516020611b8d8339815191528152f35b3461028a57602036600319011261028a57611058610308565b610c2a61035c33611166565b3461028a57602036600319011261028a57602060ff6103db611084610308565b600080516020611b8d8339815191526000526005845260406000209060018060a01b0316600052602052604060002090565b3461028a57600036600319011261028a576020604051600080516020611bad8339815191528152f35b3461028a57600036600319011261028a5761036633611579565b3461028a57602036600319011261028a57611112610308565b61111e61035c33611166565b600080516020611bad833981519152600081815260056020527f02634a7c777b8129955fe1824eee49ef19dfa96f2f4cb63212492c3d84eb58e7549092919061071690611254565b6001600160a01b03166000908152600080516020611bed833981519152602052604090205460ff1690565b600080805260056020527f05b8ccbb9d4d8fb16ea74ce3c29a41f1b461fbdaff4714a0d9a8eb05499746bd546111c690611254565b8080526005602090815260408083206001600160a01b0385166000908152925290205460ff16156111f5575050565b8080526005602090815260408083206001600160a01b038516600090815292529020805460ff1916600117905533916001600160a01b0316907f2f8788117e7eff1d82e926ec794901d17c78024a50270940304540a733656f0d8180a4565b600081815260056020908152604080832033845290915290205460ff16156112795750565b3390611283611672565b91603061128f846116b5565b53607861129b846116c2565b5360295b6001811161134e5761134a611307611332866113246112c7886112c289156116f5565b611740565b611301604051958694611301602087016017907f416363657373436f6e74726f6c3a206163636f756e742000000000000000000081520190565b906113b8565b7001034b99036b4b9b9b4b733903937b6329607d1b815260110190565b03601f1981018352826113e5565b60405162461bcd60e51b81529182916004830161140c565b0390fd5b90600f81169060108210156113905761138b916f181899199a1a9b1b9c1cb0b131b232b360811b901a61138184876116d2565b5360041c916116e3565b61129f565b61169f565b60005b8381106113a85750506000910152565b8181015183820152602001611398565b906113cb60209282815194859201611395565b0190565b634e487b7160e01b600052604160045260246000fd5b90601f8019910116810190811067ffffffffffffffff82111761140757604052565b6113cf565b6040916020825261142c8151809281602086015260208686019101611395565b601f01601f1916010190565b6001600160a01b03811633810361056c576001600160a01b0382166000908152600080516020611bed833981519152602052604081205490929060ff1661147e57505050565b6114a5908380526005602052604084209060018060a01b0316600052602052604060002090565b805460ff191690553391600080516020611bcd8339815191528180a4565b6001600160a01b03811633810361056c576001600160a01b03821660009081527f02634a7c777b8129955fe1824eee49ef19dfa96f2f4cb63212492c3d84eb58e6602052604081209092600080516020611bad8339815191529160ff905b541661152e575b50505050565b611555908285526005602052604085209060018060a01b0316600052602052604060002090565b60ff198154169055600080516020611bcd833981519152339380a438808080611528565b6001600160a01b03811633810361056c576001600160a01b03821660009081527f67f351182989509d05df317024ac600e03d0c404c1b07ecdc5d72ea1208a722a602052604081209092600080516020611b8d8339815191529160ff90611521565b600090808252600560205260ff61160784604085209060018060a01b0316600052602052604060002090565b541661161257505050565b8082526005602090815260408084206001600160a01b038616600090815292529020805460ff1916905533926001600160a01b031691600080516020611bcd8339815191529080a4565b634e487b7160e01b600052601160045260246000fd5b604051906060820182811067ffffffffffffffff82111761140757604052602a8252604082602036910137565b634e487b7160e01b600052603260045260246000fd5b8051156113905760200190565b8051600110156113905760210190565b908151811015611390570160200190565b80156116f0576000190190565b61165c565b156116fc57565b606460405162461bcd60e51b815260206004820152602060248201527f537472696e67733a20686578206c656e67746820696e73756666696369656e746044820152fd5b604051906080820182811067ffffffffffffffff821117611407576040526042825260603660208401376030611775836116b5565b536078611781836116c2565b536041905b6001821161179c576117999150156116f5565b90565b600f8116906010821015611390576117ce916f181899199a1a9b1b9c1cb0b131b232b360811b901a61138184866116d2565b90611786565b156117db57565b60405162461bcd60e51b815260206004820152602360248201527f41757468436f6e74726f6c3a2043616c6c6572206973206e6f7420616e20616460448201526236b4b760e91b6064820152608490fd5b1561183357565b60405162461bcd60e51b815260206004820152600960248201526839b0b6b29030b2323960b91b6044820152606490fd5b1561186b57565b60405162461bcd60e51b815260206004820152601860248201527f50726f78793a205f696d70206973206e6f7420616c69766500000000000000006044820152606490fd5b60001981146116f05760010190565b91908110156113905760051b0190565b3561179981610278565b156118e057565b60405162461bcd60e51b815260206004820152601d60248201527f4c69717569646974795661756c7450726f78793a2073616d6520696d700000006044820152606490fd5b6001600160e01b0319166000908152600360205260409020546001600160a01b039081168061197e57506000805260016020527fa6eef7e35abe7026729641147f7915573c7e97b47efa546f5f6e3230263bcb49541690565b80600052600260205260ff604060002054166119c457506000805260016020527fa6eef7e35abe7026729641147f7915573c7e97b47efa546f5f6e3230263bcb49541690565b905090565b60405162461bcd60e51b815260206004820152601460248201527331b0b73737ba103932b1b2b4bb329022ba3432b960611b6044820152606490fd5b6000611a1b81356001600160e01b031916611925565b6001600160a01b038116151580611a94575b15611a4f57818091368280378136915af43d82803e15611a4b573d90f35b3d90fd5b60405162461bcd60e51b815260206004820152601d60248201527f50726f78793a20696d706c204f522070726f78792069732066616c73650000006044820152606490fd5b5060ff82541615611a2d565b803b15610dc5576000805260016020527fa6eef7e35abe7026729641147f7915573c7e97b47efa546f5f6e3230263bcb4980546001600160a01b0319166001600160a01b03831617905560018060a01b03168060005260026020526040600020600160ff198254161790557f72558d9bfba4210f9ef095c782589484151f6d90f7a81bb3cb9b33efc695d324602060405160018152a2565b60207f72558d9bfba4210f9ef095c782589484151f6d90f7a81bb3cb9b33efc695d3249160018060a01b031692836000526002825260406000209015159060ff1981541660ff8316179055604051908152a256feaf290d8680820aad922855f39b306097b20e28774d6c1ad35a20325630c3a02c523a704056dcd17bcf83bed8b68c59416dac1119be77755efe3bde0a64e46e0cf6391f5c32d9c69d2a47ea670b442974b53935d1edc7fd64eb21e047a839171b05b8ccbb9d4d8fb16ea74ce3c29a41f1b461fbdaff4714a0d9a8eb05499746bca164736f6c6343000812000a",
  "linkReferences": {},
  "deployedLinkReferences": {}
}