{
  "_format": "hh-sol-artifact-1",
  "contractName": "CandidateAddOnV1_1",
  "sourceName": "contracts/dao/CandidateAddOnV1_1.sol",
  "abi": [
    {
      "anonymous": false,
      "inputs": [
        {
          "indexed": false,
          "internalType": "address",
          "name": "_operateContract",
          "type": "address"
        },
        {
          "indexed": false,
          "internalType": "string",
          "name": "memo",
          "type": "string"
        },
        {
          "indexed": false,
          "internalType": "address",
          "name": "committee",
          "type": "address"
        },
        {
          "indexed": false,
          "internalType": "address",
          "name": "seigManager",
          "type": "address"
        }
      ],
      "name": "Initialized",
      "type": "event"
    },
    {
      "anonymous": false,
      "inputs": [
        {
          "indexed": true,
          "internalType": "bytes32",
          "name": "role",
          "type": "bytes32"
        },
        {
          "indexed": true,
          "internalType": "bytes32",
          "name": "previousAdminRole",
          "type": "bytes32"
        },
        {
          "indexed": true,
          "internalType": "bytes32",
          "name": "newAdminRole",
          "type": "bytes32"
        }
      ],
      "name": "RoleAdminChanged",
      "type": "event"
    },
    {
      "anonymous": false,
      "inputs": [
        {
          "indexed": true,
          "internalType": "bytes32",
          "name": "role",
          "type": "bytes32"
        },
        {
          "indexed": true,
          "internalType": "address",
          "name": "account",
          "type": "address"
        },
        {
          "indexed": true,
          "internalType": "address",
          "name": "sender",
          "type": "address"
        }
      ],
      "name": "RoleGranted",
      "type": "event"
    },
    {
      "anonymous": false,
      "inputs": [
        {
          "indexed": true,
          "internalType": "bytes32",
          "name": "role",
          "type": "bytes32"
        },
        {
          "indexed": true,
          "internalType": "address",
          "name": "account",
          "type": "address"
        },
        {
          "indexed": true,
          "internalType": "address",
          "name": "sender",
          "type": "address"
        }
      ],
      "name": "RoleRevoked",
      "type": "event"
    },
    {
      "anonymous": false,
      "inputs": [
        {
          "indexed": false,
          "internalType": "string",
          "name": "_memo",
          "type": "string"
        }
      ],
      "name": "SetMemo",
      "type": "event"
    },
    {
      "inputs": [],
      "name": "DEFAULT_ADMIN_ROLE",
      "outputs": [
        {
          "internalType": "bytes32",
          "name": "",
          "type": "bytes32"
        }
      ],
      "stateMutability": "view",
      "type": "function"
    },
    {
      "inputs": [],
      "name": "MINTER_ROLE",
      "outputs": [
        {
          "internalType": "bytes32",
          "name": "",
          "type": "bytes32"
        }
      ],
      "stateMutability": "view",
      "type": "function"
    },
    {
      "inputs": [
        {
          "internalType": "address",
          "name": "account",
          "type": "address"
        }
      ],
      "name": "addAdmin",
      "outputs": [],
      "stateMutability": "nonpayable",
      "type": "function"
    },
    {
      "inputs": [
        {
          "internalType": "address",
          "name": "",
          "type": "address"
        }
      ],
      "name": "aliveImplementation",
      "outputs": [
        {
          "internalType": "bool",
          "name": "",
          "type": "bool"
        }
      ],
      "stateMutability": "view",
      "type": "function"
    },
    {
      "inputs": [],
      "name": "candidate",
      "outputs": [
        {
          "internalType": "address",
          "name": "",
          "type": "address"
        }
      ],
      "stateMutability": "view",
      "type": "function"
    },
    {
      "inputs": [
        {
          "internalType": "uint256",
          "name": "_agendaID",
          "type": "uint256"
        },
        {
          "internalType": "uint256",
          "name": "_vote",
          "type": "uint256"
        },
        {
          "internalType": "string",
          "name": "_comment",
          "type": "string"
        }
      ],
      "name": "castVote",
      "outputs": [],
      "stateMutability": "nonpayable",
      "type": "function"
    },
    {
      "inputs": [
        {
          "internalType": "uint256",
          "name": "_memberIndex",
          "type": "uint256"
        }
      ],
      "name": "changeMember",
      "outputs": [
        {
          "internalType": "bool",
          "name": "",
          "type": "bool"
        }
      ],
      "stateMutability": "nonpayable",
      "type": "function"
    },
    {
      "inputs": [],
      "name": "claimActivityReward",
      "outputs": [],
      "stateMutability": "nonpayable",
      "type": "function"
    },
    {
      "inputs": [],
      "name": "committee",
      "outputs": [
        {
          "internalType": "address",
          "name": "",
          "type": "address"
        }
      ],
      "stateMutability": "view",
      "type": "function"
    },
    {
      "inputs": [],
      "name": "currentFork",
      "outputs": [
        {
          "internalType": "uint256",
          "name": "",
          "type": "uint256"
        }
      ],
      "stateMutability": "pure",
      "type": "function"
    },
    {
      "inputs": [
        {
          "internalType": "bytes32",
          "name": "role",
          "type": "bytes32"
        }
      ],
      "name": "getRoleAdmin",
      "outputs": [
        {
          "internalType": "bytes32",
          "name": "",
          "type": "bytes32"
        }
      ],
      "stateMutability": "view",
      "type": "function"
    },
    {
      "inputs": [
        {
          "internalType": "bytes32",
          "name": "role",
          "type": "bytes32"
        },
        {
          "internalType": "address",
          "name": "account",
          "type": "address"
        }
      ],
      "name": "grantRole",
      "outputs": [],
      "stateMutability": "nonpayable",
      "type": "function"
    },
    {
      "inputs": [
        {
          "internalType": "bytes32",
          "name": "role",
          "type": "bytes32"
        },
        {
          "internalType": "address",
          "name": "account",
          "type": "address"
        }
      ],
      "name": "hasRole",
      "outputs": [
        {
          "internalType": "bool",
          "name": "",
          "type": "bool"
        }
      ],
      "stateMutability": "view",
      "type": "function"
    },
    {
      "inputs": [
        {
          "internalType": "address",
          "name": "_operateContract",
          "type": "address"
        },
        {
          "internalType": "string",
          "name": "_memo",
          "type": "string"
        },
        {
          "internalType": "address",
          "name": "_committee",
          "type": "address"
        },
        {
          "internalType": "address",
          "name": "_seigManager",
          "type": "address"
        },
        {
          "internalType": "address",
          "name": "_ton",
          "type": "address"
        },
        {
          "internalType": "address",
          "name": "_wton",
          "type": "address"
        }
      ],
      "name": "initialize",
      "outputs": [],
      "stateMutability": "nonpayable",
      "type": "function"
    },
    {
      "inputs": [
        {
          "internalType": "address",
          "name": "account",
          "type": "address"
        }
      ],
      "name": "isAdmin",
      "outputs": [
        {
          "internalType": "bool",
          "name": "",
          "type": "bool"
        }
      ],
      "stateMutability": "view",
      "type": "function"
    },
    {
      "inputs": [],
      "name": "isCandidateContract",
      "outputs": [
        {
          "internalType": "bool",
          "name": "",
          "type": "bool"
        }
      ],
      "stateMutability": "pure",
      "type": "function"
    },
    {
      "inputs": [],
      "name": "isCandidateFwContract",
      "outputs": [
        {
          "internalType": "bool",
          "name": "",
          "type": "bool"
        }
      ],
      "stateMutability": "pure",
      "type": "function"
    },
    {
      "inputs": [],
      "name": "isLayer2",
      "outputs": [
        {
          "internalType": "bool",
          "name": "",
          "type": "bool"
        }
      ],
      "stateMutability": "pure",
      "type": "function"
    },
    {
      "inputs": [],
      "name": "isLayer2Candidate",
      "outputs": [
        {
          "internalType": "bool",
          "name": "",
          "type": "bool"
        }
      ],
      "stateMutability": "view",
      "type": "function"
    },
    {
      "inputs": [],
      "name": "isOwner",
      "outputs": [
        {
          "internalType": "bool",
          "name": "",
          "type": "bool"
        }
      ],
      "stateMutability": "view",
      "type": "function"
    },
    {
      "inputs": [
        {
          "internalType": "uint256",
          "name": "forkNumber",
          "type": "uint256"
        }
      ],
      "name": "lastEpoch",
      "outputs": [
        {
          "internalType": "uint256",
          "name": "",
          "type": "uint256"
        }
      ],
      "stateMutability": "pure",
      "type": "function"
    },
    {
      "inputs": [],
      "name": "memo",
      "outputs": [
        {
          "internalType": "string",
          "name": "",
          "type": "string"
        }
      ],
      "stateMutability": "view",
      "type": "function"
    },
    {
      "inputs": [],
      "name": "operator",
      "outputs": [
        {
          "internalType": "address",
          "name": "",
          "type": "address"
        }
      ],
      "stateMutability": "view",
      "type": "function"
    },
    {
      "inputs": [],
      "name": "pauseProxy",
      "outputs": [
        {
          "internalType": "bool",
          "name": "",
          "type": "bool"
        }
      ],
      "stateMutability": "view",
      "type": "function"
    },
    {
      "inputs": [
        {
          "internalType": "uint256",
          "name": "",
          "type": "uint256"
        }
      ],
      "name": "proxyImplementation",
      "outputs": [
        {
          "internalType": "address",
          "name": "",
          "type": "address"
        }
      ],
      "stateMutability": "view",
      "type": "function"
    },
    {
      "inputs": [
        {
          "internalType": "address",
          "name": "account",
          "type": "address"
        }
      ],
      "name": "removeAdmin",
      "outputs": [],
      "stateMutability": "nonpayable",
      "type": "function"
    },
    {
      "inputs": [],
      "name": "renounceOwnership",
      "outputs": [],
      "stateMutability": "nonpayable",
      "type": "function"
    },
    {
      "inputs": [
        {
          "internalType": "bytes32",
          "name": "role",
          "type": "bytes32"
        },
        {
          "internalType": "address",
          "name": "account",
          "type": "address"
        }
      ],
      "name": "renounceRole",
      "outputs": [],
      "stateMutability": "nonpayable",
      "type": "function"
    },
    {
      "inputs": [],
      "name": "retireMember",
      "outputs": [
        {
          "internalType": "bool",
          "name": "",
          "type": "bool"
        }
      ],
      "stateMutability": "nonpayable",
      "type": "function"
    },
    {
      "inputs": [
        {
          "internalType": "bytes32",
          "name": "role",
          "type": "bytes32"
        },
        {
          "internalType": "address",
          "name": "account",
          "type": "address"
        }
      ],
      "name": "revokeRole",
      "outputs": [],
      "stateMutability": "nonpayable",
      "type": "function"
    },
    {
      "inputs": [],
      "name": "seigManager",
      "outputs": [
        {
          "internalType": "address",
          "name": "",
          "type": "address"
        }
      ],
      "stateMutability": "view",
      "type": "function"
    },
    {
      "inputs": [
        {
          "internalType": "bytes4",
          "name": "",
          "type": "bytes4"
        }
      ],
      "name": "selectorImplementation",
      "outputs": [
        {
          "internalType": "address",
          "name": "",
          "type": "address"
        }
      ],
      "stateMutability": "view",
      "type": "function"
    },
    {
      "inputs": [
        {
          "internalType": "string",
          "name": "_memo",
          "type": "string"
        }
      ],
      "name": "setMemo",
      "outputs": [],
      "stateMutability": "nonpayable",
      "type": "function"
    },
    {
      "inputs": [
        {
          "internalType": "address",
          "name": "_account",
          "type": "address"
        }
      ],
      "name": "stakedOf",
      "outputs": [
        {
          "internalType": "uint256",
          "name": "amount",
          "type": "uint256"
        }
      ],
      "stateMutability": "view",
      "type": "function"
    },
    {
      "inputs": [
        {
          "internalType": "bytes4",
          "name": "interfaceId",
          "type": "bytes4"
        }
      ],
      "name": "supportsInterface",
      "outputs": [
        {
          "internalType": "bool",
          "name": "",
          "type": "bool"
        }
      ],
      "stateMutability": "view",
      "type": "function"
    },
    {
      "inputs": [],
      "name": "ton",
      "outputs": [
        {
          "internalType": "address",
          "name": "",
          "type": "address"
        }
      ],
      "stateMutability": "view",
      "type": "function"
    },
    {
      "inputs": [],
      "name": "totalStaked",
      "outputs": [
        {
          "internalType": "uint256",
          "name": "totalSupply",
          "type": "uint256"
        }
      ],
      "stateMutability": "view",
      "type": "function"
    },
    {
      "inputs": [
        {
          "internalType": "address",
          "name": "newAdmin",
          "type": "address"
        }
      ],
      "name": "transferAdmin",
      "outputs": [],
      "stateMutability": "nonpayable",
      "type": "function"
    },
    {
      "inputs": [
        {
          "internalType": "address",
          "name": "newAdmin",
          "type": "address"
        }
      ],
      "name": "transferOwnership",
      "outputs": [],
      "stateMutability": "nonpayable",
      "type": "function"
    },
    {
      "inputs": [
        {
          "internalType": "uint256",
          "name": "afterCall",
          "type": "uint256"
        }
      ],
      "name": "updateSeigniorage",
      "outputs": [
        {
          "internalType": "bool",
          "name": "",
          "type": "bool"
        }
      ],
      "stateMutability": "nonpayable",
      "type": "function"
    },
    {
      "inputs": [],
      "name": "updateSeigniorage",
      "outputs": [
        {
          "internalType": "bool",
          "name": "",
          "type": "bool"
        }
      ],
      "stateMutability": "nonpayable",
      "type": "function"
    },
    {
      "inputs": [],
      "name": "wton",
      "outputs": [
        {
          "internalType": "address",
          "name": "",
          "type": "address"
        }
      ],
      "stateMutability": "view",
      "type": "function"
    }
  ],
  "bytecode": "0x608080604052346100165761225e908161001c8239f35b600080fdfe608060408181526004908136101561001657600080fd5b600092833560e01c90816301ffc9a71461198a57508063027aa37b1461168b57806311e4c9141461166e57806311f19e04146115bd5780631785f53c1461158f578063183d2d1c1461157357806320db00b0146111a1578063248a9ca31461117657806324d7806c1461113057806324f99b1e1461103057806325d6086114610e9f5780632f2ff15d14610df157806336568abe14610d5f57806350d2a27614610d1b578063550d01a314610cdd578063570ca73514610bb757806358c3b87014610c0657806363a8fd8914610be45780636c8381f814610bb75780636fb7f55814610b8e5780637048027514610ad5578063715018a614610aaf57806375829def14610a94578063764a78561461082957806377ff21c4146105d6578063817b1cd21461079b578063882eed2c146105d6578381638bf7a3ab146106be575080638d62d949146106955780638f32d59b1461066057806391d148541461061a5780639b638268146105f6578063a217fddf146105db578063acb4c061146105d6578063af500ba314610541578063b911135f1461050e578063c4ef9c001461041e578063cc48b947146103f5578063d5391393146103ba578063d547741f14610380578063d864e740146103535763f2fde38b146101f457600080fd5b3461034f5760208060031936011261034b5761020e611a2c565b61021f61021a33611b70565b61206f565b61022b61021a33611b70565b6001600160a01b031692831561030a578333146102d057508380526005815261025960018386200154611bad565b8380526005815281842083600052815260ff82600020541615610284575b8361028133611ee3565b80f35b838052600581528184206000848152915220805460ff191660011790553390827f2f8788117e7eff1d82e926ec794901d17c78024a50270940304540a733656f0d8180a4388080610277565b915162461bcd60e51b815291820152601660248201527520b1b1b2b9b9b4b136329d1039b0b6b29030b236b4b760511b6044820152606490fd5b915162461bcd60e51b815291820152601860248201527f41636365737369626c653a207a65726f206164647265737300000000000000006044820152606490fd5b8380fd5b8280fd5b83823461037c578160031936011261037c5760095490516001600160a01b039091168152602090f35b5080fd5b503461034f578060031936011261034f5761028191356103b560016103a3611a42565b93838752600560205286200154611bad565b611fd2565b83823461037c578160031936011261037c57602090517ff0887ba65ee2024ea881d91b74c2450ef19e1557f03bed3ea9f16b037cbe2dc98152f35b83823461037c578160031936011261037c57600b5490516001600160a01b039091168152602090f35b5082903461037c578160031936011261037c5760075481516336b87bd760e11b81523381860152602094916001600160a01b03919086908290602490829060081c86165afa9081156105045791610480869492889486916104e7575b5061217d565b600954855162313be760ea1b8152948593928492165af19283156104dc57926104ad575b50519015158152f35b6104ce919250833d85116104d5575b6104c68183611a82565b810190612165565b90836104a4565b503d6104bc565b8251903d90823e3d90fd5b6104fe9150853d87116104d5576104c68183611a82565b8961047a565b84513d87823e3d90fd5b50903461034f57602036600319011261034f5735825260016020908152918190205490516001600160a01b039091168152f35b5082903461037c576020928360031936011261034f5783610560611a2c565b6001600160a01b0390602490826105756121c9565b16865195869485936370a0823160e01b855216908301525afa9283156104dc57926105a2575b5051908152f35b9091508281813d83116105cf575b6105ba8183611a82565b810103126105ca5751908361059b565b600080fd5b503d6105b0565b611b54565b83823461037c578160031936011261037c5751908152602090f35b83823461037c578160031936011261037c5760209060ff6007541690519015158152f35b50903461034f578160031936011261034f5781602093610638611a42565b9235815260058552209060018060a01b0316600052825260ff81600020541690519015158152f35b83823461037c578160031936011261037c5780828060209452600584522033600052825260ff81600020541690519015158152f35b83823461037c578160031936011261037c57600c5490516001600160a01b039091168152602090f35b8084843461079757826003193601126107975760075481516336b87bd760e11b8152338185015260089190911c6001600160a01b039081169391602081602481885afa90811561078d579061071991879161076f575061217d565b6009541692833b1561076b57602485928385519687948593636becff2760e01b85528401525af1908115610762575061074f5750f35b61075890611a58565b61075f5780f35b80fd5b513d84823e3d90fd5b8480fd5b610787915060203d81116104d5576104c68183611a82565b8861047a565b84513d88823e3d90fd5b5050fd5b5082903461037c578160031936011261037c5760206001600160a01b036107c06121c9565b168251948580926318160ddd60e01b82525afa91821561081e57916107ea575b6020925051908152f35b90506020823d8211610816575b8161080460209383611a82565b810103126105ca5760209151906107e0565b3d91506107f7565b9051903d90823e3d90fd5b50823461075f578060031936011261075f57506007548151926336b87bd760e11b84523381850152602093848160248160018060a01b03809760081c165afa90811561097457908591600091610a77575b50156109df5760009083600a5416838651809481936307efaad560e21b83525af1908115610974576000916109c2575b501561097f5760248483600c54169360075460081c16938551928380926370a0823160e01b825287878301525afa90811561097457600091610947575b50806108f9575b5050505b5160018152f35b823b156105ca5760246000928386519586948593627f1c4960e81b85528401525af1801561093c5761092d575b80806108ee565b61093690611a58565b82610926565b82513d6000823e3d90fd5b908582813d831161096d575b61095d8183611a82565b8101031261075f575051856108e7565b503d610953565b84513d6000823e3d90fd5b825162461bcd60e51b8152908101849052601e60248201527f6661696c20757064617465536569676e696f726167654f70657261746f7200006044820152606490fd5b6109d99150853d87116104d5576104c68183611a82565b856108aa565b60009192600a541683855180948193633b253c2b60e11b83525af1908115610a6c57600091610a4f575b5015610a1557506108f2565b82606492519162461bcd60e51b835282015260166024820152756661696c20757064617465536569676e696f7261676560501b6044820152fd5b610a669150843d86116104d5576104c68183611a82565b84610a09565b83513d6000823e3d90fd5b610a8e9150823d84116104d5576104c68183611a82565b8661087a565b503461034f5760208060031936011261034b5761021f611a2c565b833461075f578060031936011261075f57610acc61021a33611b70565b61028133611ee3565b83823461037c576020908160031936011261034f57610af2611a2c565b91610aff61021a33611b70565b83805260058152610b1560018386200154611bad565b838052600581528184206001600160a01b039093166000818152938252928290205460ff1615610b43578380f35b838052600581528184206000848152915220805460ff191660011790553390827f2f8788117e7eff1d82e926ec794901d17c78024a50270940304540a733656f0d8180a48180808380f35b83823461037c578160031936011261037c57600a5490516001600160a01b039091168152602090f35b83823461037c578160031936011261037c57600754905160089190911c6001600160a01b03168152602090f35b83823461037c578160031936011261037c5760ff602092541690519015158152f35b83823461037c578160031936011261037c5780519082600854610c2881611ad2565b80855291600191808316908115610cb55750600114610c6a575b505050610c5482610c66940383611a82565b51918291602083526020830190611b2f565b0390f35b9450600885526000805160206122328339815191525b828610610c9d57505050610c54826020610c669582010194610c42565b80546020878701810191909152909501948101610c80565b610c66975086935060209250610c5494915060ff191682840152151560051b82010194610c42565b83823461037c57602036600319011261037c5760209160ff9082906001600160a01b03610d08611a2c565b1681526002855220541690519015158152f35b50903461034f57602036600319011261034f573563ffffffff60e01b811680910361034f57825260036020908152918190205490516001600160a01b039091168152f35b5091903461037c578260031936011261037c57610d7a611a42565b90336001600160a01b03831603610d9657906102819135611fd2565b608490602085519162461bcd60e51b8352820152602f60248201527f416363657373436f6e74726f6c3a2063616e206f6e6c792072656e6f756e636560448201526e103937b632b9903337b91039b2b63360891b6064820152fd5b50903461034f578160031936011261034f573590610e0d611a42565b908284526005602052610e2560018286200154611bad565b82845260056020528084209160018060a01b0316918260005260205260ff81600020541615610e52578380f35b828452600560205280842082600052602052600020600160ff1982541617905533917f2f8788117e7eff1d82e926ec794901d17c78024a50270940304540a733656f0d8480a43880808380f35b503461034f576020908160031936011261034b5767ffffffffffffffff90833582811161102c57610ed39036908601611aa4565b94909286805260058552828720336000528552610ef660ff84600020541661206f565b85116110195750610f1184610f0c600854611ad2565b6120e5565b84601f8511600114610f835791610f7291857f80eb700793f6b70448e6801ac4bb924bbebe9c6027958691fd7e2caaec848f119695948891610f78575b508560011b906000198760031b1c1916176008555b51938385948552840191612144565b0390a180f35b905082013538610f4e565b6008865260008051602061223283398151915290601f198616875b818110611002575091610f729391877f80eb700793f6b70448e6801ac4bb924bbebe9c6027958691fd7e2caaec848f119897969410610fe8575b5050600185811b01600855610f63565b830135600019600388901b60f8161c191690553880610fd8565b919286600181928689013581550194019201610f9e565b634e487b7160e01b865260419052602485fd5b8580fd5b503461034f57606036600319011261034f578260443567ffffffffffffffff811161037c576110629036908501611aa4565b60075484516336b87bd760e11b815233878201526001600160a01b03916020908290602490829060081c86165afa90811561112657906110a8918691611108575061217d565b6009541690813b1561034b57836110eb9686519788958694859363127ccd8f60e11b85528035908501526024356024850152606060448501526064840191612144565b03925af190811561076257506110ff575080f35b61028190611a58565b611120915060203d81116104d5576104c68183611a82565b3861047a565b86513d87823e3d90fd5b83823461037c57602036600319011261037c5760ff81602093611151611a2c565b818052600586528282206001600160a01b039091168252855220549151911615158152f35b50903461034f57602036600319011261034f5781602093600192358152600585522001549051908152f35b5091903461037c5760c036600319011261037c576111bd611a2c565b9260249081359167ffffffffffffffff9081841161102c573660238501121561102c57838501359482861161156257835197602096601f1996611207601f830189168a018c611a82565b818b523685838301011161155e57818a928c8b888195019101378b0101526001600160a01b039560443587811694919085900361155e576064359588871680970361155a57608435918983168093036115565760a435948a86168096036115525761128760ff8b8f8f81805260058152828220903383525220541661206f565b8a81169a8b15801590611549575b8015611540575b156114fd57878d8d8d51928380926354ce9b1760e11b82525afa9081156114f1578f8f90926114c4575b5050161561148e57600190600754906101008360a81b039060081b16906affffffffffffffffffffff60a81b1617176007556bffffffffffffffffffffffff60a01b93878560095416176009558885600a541617600a558d5192831161147d575061133682610f0c600854611ad2565b8a90601f83116001146113e8575091816113ce9694928d9e96947fc5baacc5b56737fe7626e78b23f38bf90b9cfd7dfd9a93b4300f6565334981b59e916113dd575b508160011b916000199060031b1c1916176008555b81600b541617600b55600c541617600c55631dffc87160e21b8a528752848920600160ff198254161790556080855197889788528701526080860190611b2f565b9284015260608301520390a180f35b905086015138611378565b82169060088d52600080516020612232833981519152918d5b8181106114665750927fc5baacc5b56737fe7626e78b23f38bf90b9cfd7dfd9a93b4300f6565334981b59d9e969492600192826113ce9a98961061144d575b5050811b0160085561138d565b88015160001960f88460031b161c191690553880611440565b8f8301518455600190930192918d01918d01611401565b634e487b7160e01b8d52604187528cfd5b895162461bcd60e51b81528088018d9052601181870152707a65726f20726f6c6c7570436f6e66696760781b6044820152606490fd5b6114e39250803d106114ea575b6114db8183611a82565b8101906120c6565b388e6112c6565b503d6114d1565b8f8d51903d90823e3d90fd5b50895162461bcd60e51b81528088018d90526018818701527f43616e6469646174653a20696e707574206973207a65726f00000000000000006044820152606490fd5b5089151561129c565b50881515611295565b8c80fd5b8b80fd5b8a80fd5b8980fd5b634e487b7160e01b87526041905285fd5b83823461037c578160031936011261037c576020905160018152f35b833461075f57602036600319011261075f576102816115ac611a2c565b6115b861021a33611b70565b611ee3565b5082903461037c576020928360031936011261034f5760075482516336b87bd760e11b815233838201526001600160a01b039186908290602490829060081c86165afa90811561050457869261161e8795936024938791611651575061217d565b60095416918551948593849263047c678160e21b84528035908401525af19283156104dc57926104ad5750519015158152f35b6116689150863d88116104d5576104c68183611a82565b8a61047a565b83823461037c57602036600319011261037c576020905160018152f35b50903461034f576020928360031936011261075f5760075483516336b87bd760e11b815233818501526024918435916001600160a01b0391889082908690829060081c86165afa9081156118cb57908891869161196d575b50156118d557849082600a5416878951809481936307efaad560e21b83525af19081156118cb5785916118ae575b501561186c5781611729575b50505050505160018152f35b829181600c541690888360075460081c16928951968780926370a0823160e01b8252868c8301525afa948515611862578695611833575b508461176e575b505061171d565b600281036117d657505060075460081c1693843b1561034b57908392918387519687948593627f1c4960e81b85528401525af19081156117cb57506117bc575b505b38808080808080611767565b6117c590611a58565b386117ae565b8351903d90823e3d90fd5b600191969250146117ec575b50505050506117b0565b843b1561034b57908392918387519687948593634564843160e11b85528401525af19081156117cb5750611824575b808080806117e2565b61182d90611a58565b3861181b565b9094508881813d831161185b575b61184b8183611a82565b8101031261102c57519338611760565b503d611841565b88513d88823e3d90fd5b855162461bcd60e51b8152808601889052601e818501527f6661696c20757064617465536569676e696f726167654f70657261746f7200006044820152606490fd5b6118c59150883d8a116104d5576104c68183611a82565b38611711565b87513d87823e3d90fd5b908493949250600a541685875180948193633b253c2b60e11b83525af19182156119625791611945575b501561190c5750506108f2565b60649360169293519362461bcd60e51b8552840152820152756661696c20757064617465536569676e696f7261676560501b6044820152fd5b61195c9150853d87116104d5576104c68183611a82565b386118ff565b8551903d90823e3d90fd5b6119849150823d84116104d5576104c68183611a82565b386116e3565b905083833461037c57602036600319011261037c5780359063ffffffff60e01b821680920361034f576020948284526006865260ff81852054169384156119d6575b5050505015158152f35b637965db0b60e01b84149450919290919084156119fb575b50505050838080806119cc565b6301ffc9a760e01b14935090918315611a1b575b505050838080806119ee565b60ff93508552205416838080611a0f565b600435906001600160a01b03821682036105ca57565b602435906001600160a01b03821682036105ca57565b67ffffffffffffffff8111611a6c57604052565b634e487b7160e01b600052604160045260246000fd5b90601f8019910116810190811067ffffffffffffffff821117611a6c57604052565b9181601f840112156105ca5782359167ffffffffffffffff83116105ca57602083818601950101116105ca57565b90600182811c92168015611b02575b6020831014611aec57565b634e487b7160e01b600052602260045260246000fd5b91607f1691611ae1565b60005b838110611b1f5750506000910152565b8181015183820152602001611b0f565b90602091611b4881518092818552858086019101611b0c565b601f01601f1916010190565b346105ca5760003660031901126105ca57602060405160018152f35b6001600160a01b031660009081527f05b8ccbb9d4d8fb16ea74ce3c29a41f1b461fbdaff4714a0d9a8eb05499746bc602052604090205460ff1690565b60009080825260209060058252604092838120338252835260ff848220541615611bd75750505050565b83519167ffffffffffffffff90336060850183811186821017611ecf578752602a85528585019187368437855115611ebb5760308353855191600192831015611ea7576078602188015360295b838111611e3d5750611dfb5790875193608085019085821090821117611de757885260428452868401946060368737845115611dd357603086538451821015611dd35790607860218601536041915b818311611d6557505050611d2357611d1f938693611d0393611cf4604894611ccb9a519a8b957f416363657373436f6e74726f6c3a206163636f756e74200000000000000000008c8801525180926037880190611b0c565b8401917001034b99036b4b9b9b4b733903937b6329607d1b603784015251809386840190611b0c565b01036028810187520185611a82565b5192839262461bcd60e51b845260048401526024830190611b2f565b0390fd5b60648587519062461bcd60e51b825280600483015260248201527f537472696e67733a20686578206c656e67746820696e73756666696369656e746044820152fd5b909192600f81166010811015611dbf576f181899199a1a9b1b9c1cb0b131b232b360811b901a611d958588612048565b5360041c928015611dab57600019019190611c73565b634e487b7160e01b82526011600452602482fd5b634e487b7160e01b83526032600452602483fd5b634e487b7160e01b81526032600452602490fd5b634e487b7160e01b86526041600452602486fd5b60648789519062461bcd60e51b825280600483015260248201527f537472696e67733a20686578206c656e67746820696e73756666696369656e746044820152fd5b90600f81166010811015611e93576f181899199a1a9b1b9c1cb0b131b232b360811b901a611e6b838a612048565b5360041c908015611e7f5760001901611c24565b634e487b7160e01b87526011600452602487fd5b634e487b7160e01b88526032600452602488fd5b634e487b7160e01b86526032600452602486fd5b634e487b7160e01b85526032600452602485fd5b634e487b7160e01b85526041600452602485fd5b6001600160a01b0316338103611f755760008181527f05b8ccbb9d4d8fb16ea74ce3c29a41f1b461fbdaff4714a0d9a8eb05499746bc602052604081205490919060ff16611f2f575050565b8180526005602052604082208183526020526040822060ff19815416905533917ff6391f5c32d9c69d2a47ea670b442974b53935d1edc7fd64eb21e047a839171b8180a4565b60405162461bcd60e51b815260206004820152602f60248201527f416363657373436f6e74726f6c3a2063616e206f6e6c792072656e6f756e636560448201526e103937b632b9903337b91039b2b63360891b6064820152608490fd5b906000918083526005602052604083209160018060a01b03169182845260205260ff60408420541661200357505050565b8083526005602052604083208284526020526040832060ff1981541690557ff6391f5c32d9c69d2a47ea670b442974b53935d1edc7fd64eb21e047a839171b339380a4565b908151811015612059570160200190565b634e487b7160e01b600052603260045260246000fd5b1561207657565b60405162461bcd60e51b815260206004820152602260248201527f41636365737369626c653a2043616c6c6572206973206e6f7420616e2061646d60448201526134b760f11b6064820152608490fd5b908160209103126105ca57516001600160a01b03811681036105ca5790565b601f81116120f1575050565b60009060088252600080516020612232833981519152906020601f850160051c8301941061213a575b601f0160051c01915b82811061212f57505050565b818155600101612123565b909250829061211a565b908060209392818452848401376000828201840152601f01601f1916010190565b908160209103126105ca575180151581036105ca5790565b1561218457565b60405162461bcd60e51b815260206004820152601960248201527f73656e646572206973206e6f7420616e206f70657261746f72000000000000006044820152606490fd5b600a54604051634c063c1960e01b81523060048201526001600160a01b03916020908290602490829086165afa9081156122255760009161220957501690565b612221915060203d81116114ea576114db8183611a82565b1690565b6040513d6000823e3d90fdfef3f7a9fe364faab93b216da50a3214154f22a0a2b415b23a84c8169e8b636ee3a164736f6c6343000813000a",
  "linkReferences": {},
  "deployedLinkReferences": {}
}