{
  "_format": "hh-sol-artifact-1",
  "contractName": "OperatorV1_1",
  "sourceName": "contracts/layer2/OperatorV1_1.sol",
  "abi": [
    {
      "inputs": [],
      "stateMutability": "nonpayable",
      "type": "constructor"
    },
    {
      "anonymous": false,
      "inputs": [
        {
          "indexed": false,
          "internalType": "address",
          "name": "operator",
          "type": "address"
        }
      ],
      "name": "AddedOperator",
      "type": "event"
    },
    {
      "anonymous": false,
      "inputs": [
        {
          "indexed": false,
          "internalType": "address",
          "name": "operator",
          "type": "address"
        }
      ],
      "name": "DeletedOperator",
      "type": "event"
    },
    {
      "anonymous": false,
      "inputs": [
        {
          "indexed": true,
          "internalType": "address",
          "name": "previousOwner",
          "type": "address"
        },
        {
          "indexed": true,
          "internalType": "address",
          "name": "newOwner",
          "type": "address"
        }
      ],
      "name": "OwnershipTransferred",
      "type": "event"
    },
    {
      "anonymous": false,
      "inputs": [
        {
          "indexed": false,
          "internalType": "address",
          "name": "_layer2Manager",
          "type": "address"
        },
        {
          "indexed": false,
          "internalType": "address",
          "name": "_depositManager",
          "type": "address"
        },
        {
          "indexed": false,
          "internalType": "address",
          "name": "_ton",
          "type": "address"
        },
        {
          "indexed": false,
          "internalType": "address",
          "name": "_wton",
          "type": "address"
        }
      ],
      "name": "SetAddresses",
      "type": "event"
    },
    {
      "anonymous": false,
      "inputs": [
        {
          "indexed": false,
          "internalType": "address",
          "name": "previousManager",
          "type": "address"
        },
        {
          "indexed": false,
          "internalType": "address",
          "name": "newManager",
          "type": "address"
        }
      ],
      "name": "TransferredManager",
      "type": "event"
    },
    {
      "inputs": [],
      "name": "acquireManager",
      "outputs": [],
      "stateMutability": "nonpayable",
      "type": "function"
    },
    {
      "inputs": [
        {
          "internalType": "address",
          "name": "addr_",
          "type": "address"
        }
      ],
      "name": "addOperator",
      "outputs": [],
      "stateMutability": "nonpayable",
      "type": "function"
    },
    {
      "inputs": [],
      "name": "checkL1Bridge",
      "outputs": [
        {
          "internalType": "bool",
          "name": "result",
          "type": "bool"
        },
        {
          "internalType": "address",
          "name": "l1Bridge",
          "type": "address"
        },
        {
          "internalType": "address",
          "name": "l2Ton",
          "type": "address"
        }
      ],
      "stateMutability": "view",
      "type": "function"
    },
    {
      "inputs": [
        {
          "internalType": "uint256",
          "name": "amount",
          "type": "uint256"
        }
      ],
      "name": "claimByLayer2Candidate",
      "outputs": [],
      "stateMutability": "nonpayable",
      "type": "function"
    },
    {
      "inputs": [
        {
          "internalType": "address",
          "name": "addr_",
          "type": "address"
        }
      ],
      "name": "deleteOperator",
      "outputs": [],
      "stateMutability": "nonpayable",
      "type": "function"
    },
    {
      "inputs": [
        {
          "internalType": "uint256",
          "name": "amount",
          "type": "uint256"
        }
      ],
      "name": "depositByLayer2Canddiate",
      "outputs": [],
      "stateMutability": "nonpayable",
      "type": "function"
    },
    {
      "inputs": [],
      "name": "depositManager",
      "outputs": [
        {
          "internalType": "address",
          "name": "",
          "type": "address"
        }
      ],
      "stateMutability": "view",
      "type": "function"
    },
    {
      "inputs": [
        {
          "internalType": "address",
          "name": "dest",
          "type": "address"
        },
        {
          "internalType": "uint256",
          "name": "value",
          "type": "uint256"
        },
        {
          "internalType": "bytes",
          "name": "func",
          "type": "bytes"
        }
      ],
      "name": "execute",
      "outputs": [],
      "stateMutability": "nonpayable",
      "type": "function"
    },
    {
      "inputs": [
        {
          "internalType": "address[]",
          "name": "dest",
          "type": "address[]"
        },
        {
          "internalType": "bytes[]",
          "name": "func",
          "type": "bytes[]"
        }
      ],
      "name": "executeBatch",
      "outputs": [],
      "stateMutability": "nonpayable",
      "type": "function"
    },
    {
      "inputs": [
        {
          "internalType": "address",
          "name": "addr",
          "type": "address"
        }
      ],
      "name": "isOperator",
      "outputs": [
        {
          "internalType": "bool",
          "name": "",
          "type": "bool"
        }
      ],
      "stateMutability": "view",
      "type": "function"
    },
    {
      "inputs": [],
      "name": "layer2Manager",
      "outputs": [
        {
          "internalType": "address",
          "name": "",
          "type": "address"
        }
      ],
      "stateMutability": "view",
      "type": "function"
    },
    {
      "inputs": [],
      "name": "manager",
      "outputs": [
        {
          "internalType": "address",
          "name": "",
          "type": "address"
        }
      ],
      "stateMutability": "view",
      "type": "function"
    },
    {
      "inputs": [
        {
          "internalType": "address",
          "name": "",
          "type": "address"
        }
      ],
      "name": "operator",
      "outputs": [
        {
          "internalType": "bool",
          "name": "",
          "type": "bool"
        }
      ],
      "stateMutability": "view",
      "type": "function"
    },
    {
      "inputs": [],
      "name": "owner",
      "outputs": [
        {
          "internalType": "address",
          "name": "",
          "type": "address"
        }
      ],
      "stateMutability": "view",
      "type": "function"
    },
    {
      "inputs": [],
      "name": "renounceOwnership",
      "outputs": [],
      "stateMutability": "nonpayable",
      "type": "function"
    },
    {
      "inputs": [
        {
          "internalType": "address",
          "name": "_layer2Manager",
          "type": "address"
        },
        {
          "internalType": "address",
          "name": "_depositManager",
          "type": "address"
        },
        {
          "internalType": "address",
          "name": "_ton",
          "type": "address"
        },
        {
          "internalType": "address",
          "name": "_wton",
          "type": "address"
        }
      ],
      "name": "setAddresses",
      "outputs": [],
      "stateMutability": "nonpayable",
      "type": "function"
    },
    {
      "inputs": [],
      "name": "systemConfig",
      "outputs": [
        {
          "internalType": "address",
          "name": "",
          "type": "address"
        }
      ],
      "stateMutability": "view",
      "type": "function"
    },
    {
      "inputs": [],
      "name": "ton",
      "outputs": [
        {
          "internalType": "address",
          "name": "",
          "type": "address"
        }
      ],
      "stateMutability": "view",
      "type": "function"
    },
    {
      "inputs": [
        {
          "internalType": "address",
          "name": "newManager",
          "type": "address"
        }
      ],
      "name": "transferManager",
      "outputs": [],
      "stateMutability": "nonpayable",
      "type": "function"
    },
    {
      "inputs": [
        {
          "internalType": "address",
          "name": "newOwner",
          "type": "address"
        }
      ],
      "name": "transferOwnership",
      "outputs": [],
      "stateMutability": "nonpayable",
      "type": "function"
    },
    {
      "inputs": [],
      "name": "wton",
      "outputs": [
        {
          "internalType": "address",
          "name": "",
          "type": "address"
        }
      ],
      "stateMutability": "view",
      "type": "function"
    }
  ],
  "bytecode": "0x6080806040523461005b5760008054336001600160a01b0319821681178355916001600160a01b03909116907f8be0079c531659141344cd1fd0a4f28419497f9722a3daafe3b4186f6b6457e09080a361150490816100618239f35b600080fdfe6080604052600436101561001257600080fd5b60003560e01c806316b5d5bd14610162578063177be4d41461015d57806318dfb3c71461015857806333d7e2bd14610153578063481c6a751461014e5780634a945f8d14610149578063632b03ad146101445780636c7ac9d81461013f5780636d70f7ae14610121578063715018a61461013a5780638d62d949146101355780638da5cb5b1461013057806392032c3e1461012b5780639870d7fe146101265780639a30739114610121578063b40992a11461011c578063b61d27f614610117578063ba0e930a14610112578063cc48b9471461010d578063f2fde38b146101085763fd39beb41461010357600080fd5b610b7e565b610ab7565b610a8e565b610993565b61092d565b610889565b610628565b61077b565b610717565b6106ee565b6106c5565b61066a565b6105ff565b610548565b6103c6565b61038c565b610363565b61025b565b610190565b3461018b57600036600319011261018b576002546040516001600160a01b039091168152602090f35b600080fd5b3461018b57602036600319011261018b5760025460405163b17dba1b60e01b8152306004820152906001600160a01b03906020908390602490829085165afa8015610225576101ea926000916101f7575b50163314610e06565b6101f5600435610fd7565b005b610218915060203d811161021e575b6102108183610dc0565b810190610de2565b386101e1565b503d610206565b610dfa565b9181601f8401121561018b5782359167ffffffffffffffff831161018b576020808501948460051b01011161018b57565b3461018b57604036600319011261018b57600467ffffffffffffffff813581811161018b5761028d903690840161022a565b92602492833590811161018b576102a7903690830161022a565b60009533875260076020526102c260ff604089205416610d4e565b81810361032a57865b8181106102d6578780f35b6103076102ec6102e783858a61112d565b611142565b6103016102fa84878961114c565b36916110e0565b906114e0565b6000198114610318576001016102cb565b634e487b7160e01b8852601185528688fd5b60405162461bcd60e51b81526020818601526013818801527277726f6e67206172726179206c656e6774687360681b6044820152606490fd5b3461018b57600036600319011261018b576001546040516001600160a01b039091168152602090f35b3461018b57600036600319011261018b576006546040516001600160a01b039091168152602090f35b6001600160a01b0381160361018b57565b3461018b57608036600319011261018b576004356103e3816103b5565b6024356103ef816103b5565b604435916103fc836103b5565b60643592610409846103b5565b6001600160a01b0361041e8382161515610cce565b61042b8185161515610cce565b6104388183161515610cce565b6104458186161515610cce565b6002541661051557600280546001600160a01b0319166001600160a01b0384161790557faaa9fbd44f151f33e813cad14b3227af4d0b1ec931d5dd2bc2c7e1f8925043a99361051091600380546001600160a01b0319166001600160a01b038716179055600480546001600160a01b0319166001600160a01b038316179055600580546001600160a01b0319166001600160a01b038416179055604080516001600160a01b039586168152958516602087015290841690850152909116606083015281906080820190565b0390a1005b60405162461bcd60e51b815260206004820152600b60248201526a185b1c9958591e481cd95d60aa1b6044820152606490fd5b3461018b576000806003193601126105fc576002546001546040516358bf884f60e01b81526001600160a01b0391821660048201529160609183916024918391165afa801561022557829183916105c6575b506040805192151583526001600160a01b039384166020840152921691810191909152606090f35b0390f35b90506105c292506105ee915060603d81116105f5575b6105e68183610dc0565b81019061121a565b909261059a565b503d6105dc565b80fd5b3461018b57600036600319011261018b576003546040516001600160a01b039091168152602090f35b3461018b57602036600319011261018b57600435610645816103b5565b60018060a01b03166000526007602052602060ff604060002054166040519015158152f35b3461018b576000806003193601126105fc57610684610c76565b80546001600160a01b03198116825581906001600160a01b03167f8be0079c531659141344cd1fd0a4f28419497f9722a3daafe3b4186f6b6457e08280a380f35b3461018b57600036600319011261018b576005546040516001600160a01b039091168152602090f35b3461018b57600036600319011261018b576000546040516001600160a01b039091168152602090f35b3461018b57602036600319011261018b5760025460405163b17dba1b60e01b8152306004820152906001600160a01b03906020908390602490829085165afa801561022557610770926000916101f75750163314610e06565b6101f5600435610e52565b3461018b57602036600319011261018b57600435610798816103b5565b6001600160a01b03818116906107c8906107b3831515610cce565b8060005416331490811561087b575b50610d09565b600052600760205260ff60406000205416610846576001600160a01b03811660009081526007602052604090207f62cb02f3de5017db2b7d0bffac1845be0b5034dc8dbde6e56dd561e2b22446c2916105109161082c90805460ff19166001179055565b6040516001600160a01b0390911681529081906020820190565b60405162461bcd60e51b815260206004820152600d60248201526c185b1c9958591e481859191959609a1b6044820152606490fd5b9050600654163314386107c2565b3461018b57602036600319011261018b576004356108a6816103b5565b6001600160a01b03907f5246ab7a3f5d15cd364c3a3853532b3b293320d173ce277988d7960dcf48dd219060209083166108e1811515610cce565b6108fa60009480865416331490811561087b5750610d09565b8084526007825261091160ff604086205416610d4e565b808452600782526040808520805460ff1916905551908152a180f35b3461018b57606036600319011261018b5760043561094a816103b5565b6044359067ffffffffffffffff9081831161018b573660238401121561018b57826004013591821161018b57366024838501011161018b5760246101f593019060243590611080565b3461018b57602036600319011261018b576004356109b0816103b5565b6001600160a01b03818116906109c7821515610cce565b806000541633148015610a81575b6109de90610d09565b60065416908114610a5657610a307f36fc11e471af868224a71dcc29384ac6c46dda656aba95f6ee2461587368a9889260018060a01b03166bffffffffffffffffffffffff60a01b6006541617600655565b600654604080516001600160a01b03938416815292909116602083015281908101610510565b606460405162461bcd60e51b815260206004820152600460248201526373616d6560e01b6044820152fd5b50600654811633146109d5565b3461018b57600036600319011261018b576004546040516001600160a01b039091168152602090f35b3461018b57602036600319011261018b57600435610ad4816103b5565b610adc610c76565b6001600160a01b039081168015610b2a57600080546001600160a01b03198116831782559092167f8be0079c531659141344cd1fd0a4f28419497f9722a3daafe3b4186f6b6457e08380a380f35b60405162461bcd60e51b815260206004820152602660248201527f4f776e61626c653a206e6577206f776e657220697320746865207a65726f206160448201526564647265737360d01b6064820152608490fd5b3461018b576000806003193601126105fc576006546001600160a01b03908116610baa3382141561118e565b600154600490602090610bd390610bc7906001600160a01b031681565b6001600160a01b031690565b604051638da5cb5b60e01b815292839182905afa928315610225577f36fc11e471af868224a71dcc29384ac6c46dda656aba95f6ee2461587368a98893610c24928691610c58575b501633146111cc565b600680546001600160a01b03191633908117909155604080516001600160a01b03939093168352602083019190915290a180f35b610c70915060203d811161021e576102108183610dc0565b38610c1b565b6000546001600160a01b03163303610c8a57565b606460405162461bcd60e51b815260206004820152602060248201527f4f776e61626c653a2063616c6c6572206973206e6f7420746865206f776e65726044820152fd5b15610cd557565b60405162461bcd60e51b815260206004820152600c60248201526b7a65726f206164647265737360a01b6044820152606490fd5b15610d1057565b60405162461bcd60e51b81526020600482015260166024820152753737ba1037b7363ca7bbb732b927b926b0b730b3b2b960511b6044820152606490fd5b15610d5557565b60405162461bcd60e51b815260206004820152600c60248201526b3737ba1037b832b930ba37b960a11b6044820152606490fd5b634e487b7160e01b600052604160045260246000fd5b6040810190811067ffffffffffffffff821117610dbb57604052565b610d89565b90601f8019910116810190811067ffffffffffffffff821117610dbb57604052565b9081602091031261018b5751610df7816103b5565b90565b6040513d6000823e3d90fd5b15610e0d57565b60405162461bcd60e51b815260206004820152601760248201527f6e6f74206f6e6c794c617965723243616e6469646174650000000000000000006044820152606490fd5b600554610e6990610bc7906001600160a01b031681565b600354604051636eb1769f60e11b81523060048201526001600160a01b039091166024820181905260209392908483604481855afa9283156102255785938591600091610faa575b5010610f3e575b5050600354600092610f0391610ed890610bc7906001600160a01b031681565b6040516311f9fbc960e21b815233600482015260248101929092529093849283919082906044820190565b03925af1801561022557610f15575050565b81610f3492903d10610f37575b610f2c8183610dc0565b8101906113be565b50565b503d610f22565b60405163095ea7b360e01b81526001600160a01b0391909116600482015260001960248201529190829060449082906000905af18015610225576000928492610f0392610f8d575b5092610eb8565b610fa390843d8611610f3757610f2c8183610dc0565b5038610f86565b610fca9150853d8711610fd0575b610fc28183610dc0565b81019061124b565b38610eb1565b503d610fb8565b6005546006546001600160a01b039182169291168261101f57600080935082819392611006839447101561125a565b828215611016575bf11561022557565b506108fc61100e565b6040516370a0823160e01b815230600482015292602084602481845afa8015610225578361105b9161106096600091611062575b50101561125a565b61129d565b565b61107a915060203d8111610fd057610fc28183610dc0565b38611053565b6110a160009493859433865260076020526102fa60ff604088205416610d4e565b91602083519301915af16110b36113d2565b90156110bc5750565b602081519101fd5b67ffffffffffffffff8111610dbb57601f01601f191660200190565b9291926110ec826110c4565b916110fa6040519384610dc0565b82948184528183011161018b578281602093846000960137010152565b634e487b7160e01b600052603260045260246000fd5b919081101561113d5760051b0190565b611117565b35610df7816103b5565b919081101561113d5760051b81013590601e198136030182121561018b57019081359167ffffffffffffffff831161018b57602001823603811361018b579190565b1561119557565b60405162461bcd60e51b815260206004820152600f60248201526e30b63932b0b23c9036b0b730b3b2b960891b6044820152606490fd5b156111d357565b60405162461bcd60e51b81526020600482015260126024820152713737ba1031b7b73334b393b99037bbb732b960711b6044820152606490fd5b5190811515820361018b57565b9081606091031261018b5761122e8161120d565b916040602083015161123f816103b5565b920151610df7816103b5565b9081602091031261018b575190565b1561126157565b60405162461bcd60e51b8152602060048201526014602482015273696e73756666696369656e742062616c616e636560601b6044820152606490fd5b60405163a9059cbb60e01b60208083019182526001600160a01b039490941660248301526044808301959095529381529192611336929160009081906112e4606486610dc0565b60018060a01b031692604051946112fa86610d9f565b8786527f5361666545524332303a206c6f772d6c6576656c2063616c6c206661696c656488870152519082855af16113306113d2565b9161144e565b8051908282159283156113a6575b5050501561134f5750565b6084906040519062461bcd60e51b82526004820152602a60248201527f5361666545524332303a204552433230206f7065726174696f6e20646964206e6044820152691bdd081cdd58d8d9595960b21b6064820152fd5b6113b693508201810191016113be565b388281611344565b9081602091031261018b57610df79061120d565b3d156113fd573d906113e3826110c4565b916113f16040519384610dc0565b82523d6000602084013e565b606090565b1561140957565b60405162461bcd60e51b815260206004820152601d60248201527f416464726573733a2063616c6c20746f206e6f6e2d636f6e74726163740000006044820152606490fd5b9192901561146e5750815115611462575090565b610df7903b1515611402565b8251909150156114815750805190602001fd5b6040519062461bcd60e51b82528160208060048301528251908160248401526000935b8285106114c7575050604492506000838284010152601f80199101168101030190fd5b84810182015186860160440152938101938593506114a4565b600091829182602083519301915af16110b36113d256fea164736f6c6343000813000a",
  "linkReferences": {},
  "deployedLinkReferences": {}
}