{
  "_format": "hh-sol-artifact-1",
  "contractName": "OperatorV1_1",
  "sourceName": "contracts/layer2/OperatorV1_1.sol",
  "abi": [
    {
      "inputs": [],
      "stateMutability": "nonpayable",
      "type": "constructor"
    },
    {
      "anonymous": false,
      "inputs": [
        {
          "indexed": false,
          "internalType": "address",
          "name": "operator",
          "type": "address"
        }
      ],
      "name": "AddedOperator",
      "type": "event"
    },
    {
      "anonymous": false,
      "inputs": [
        {
          "indexed": false,
          "internalType": "address",
          "name": "operator",
          "type": "address"
        }
      ],
      "name": "DeletedOperator",
      "type": "event"
    },
    {
      "anonymous": false,
      "inputs": [
        {
          "indexed": true,
          "internalType": "address",
          "name": "previousOwner",
          "type": "address"
        },
        {
          "indexed": true,
          "internalType": "address",
          "name": "newOwner",
          "type": "address"
        }
      ],
      "name": "OwnershipTransferred",
      "type": "event"
    },
    {
      "anonymous": false,
      "inputs": [
        {
          "indexed": false,
          "internalType": "address",
          "name": "_layer2Manager",
          "type": "address"
        },
        {
          "indexed": false,
          "internalType": "address",
          "name": "_depositManager",
          "type": "address"
        },
        {
          "indexed": false,
          "internalType": "address",
          "name": "_ton",
          "type": "address"
        },
        {
          "indexed": false,
          "internalType": "address",
          "name": "_wton",
          "type": "address"
        }
      ],
      "name": "SetAddresses",
      "type": "event"
    },
    {
      "anonymous": false,
      "inputs": [
        {
          "indexed": false,
          "internalType": "address",
          "name": "previousManager",
          "type": "address"
        },
        {
          "indexed": false,
          "internalType": "address",
          "name": "newManager",
          "type": "address"
        }
      ],
      "name": "TransferredManager",
      "type": "event"
    },
    {
      "inputs": [],
      "name": "acquireManager",
      "outputs": [],
      "stateMutability": "nonpayable",
      "type": "function"
    },
    {
      "inputs": [
        {
          "internalType": "address",
          "name": "addr_",
          "type": "address"
        }
      ],
      "name": "addOperator",
      "outputs": [],
      "stateMutability": "nonpayable",
      "type": "function"
    },
    {
      "inputs": [
        {
          "internalType": "uint256",
          "name": "amount",
          "type": "uint256"
        }
      ],
      "name": "claimByLayer2Candidate",
      "outputs": [],
      "stateMutability": "nonpayable",
      "type": "function"
    },
    {
      "inputs": [
        {
          "internalType": "address",
          "name": "addr_",
          "type": "address"
        }
      ],
      "name": "deleteOperator",
      "outputs": [],
      "stateMutability": "nonpayable",
      "type": "function"
    },
    {
      "inputs": [
        {
          "internalType": "uint256",
          "name": "amount",
          "type": "uint256"
        }
      ],
      "name": "depositByLayer2Canddiate",
      "outputs": [],
      "stateMutability": "nonpayable",
      "type": "function"
    },
    {
      "inputs": [],
      "name": "depositManager",
      "outputs": [
        {
          "internalType": "address",
          "name": "",
          "type": "address"
        }
      ],
      "stateMutability": "view",
      "type": "function"
    },
    {
      "inputs": [
        {
          "internalType": "address",
          "name": "dest",
          "type": "address"
        },
        {
          "internalType": "uint256",
          "name": "value",
          "type": "uint256"
        },
        {
          "internalType": "bytes",
          "name": "func",
          "type": "bytes"
        }
      ],
      "name": "execute",
      "outputs": [],
      "stateMutability": "nonpayable",
      "type": "function"
    },
    {
      "inputs": [
        {
          "internalType": "address[]",
          "name": "dest",
          "type": "address[]"
        },
        {
          "internalType": "bytes[]",
          "name": "func",
          "type": "bytes[]"
        }
      ],
      "name": "executeBatch",
      "outputs": [],
      "stateMutability": "nonpayable",
      "type": "function"
    },
    {
      "inputs": [
        {
          "internalType": "address",
          "name": "addr",
          "type": "address"
        }
      ],
      "name": "isOperator",
      "outputs": [
        {
          "internalType": "bool",
          "name": "",
          "type": "bool"
        }
      ],
      "stateMutability": "view",
      "type": "function"
    },
    {
      "inputs": [],
      "name": "layer2Manager",
      "outputs": [
        {
          "internalType": "address",
          "name": "",
          "type": "address"
        }
      ],
      "stateMutability": "view",
      "type": "function"
    },
    {
      "inputs": [],
      "name": "manager",
      "outputs": [
        {
          "internalType": "address",
          "name": "",
          "type": "address"
        }
      ],
      "stateMutability": "view",
      "type": "function"
    },
    {
      "inputs": [
        {
          "internalType": "address",
          "name": "",
          "type": "address"
        }
      ],
      "name": "operator",
      "outputs": [
        {
          "internalType": "bool",
          "name": "",
          "type": "bool"
        }
      ],
      "stateMutability": "view",
      "type": "function"
    },
    {
      "inputs": [],
      "name": "owner",
      "outputs": [
        {
          "internalType": "address",
          "name": "",
          "type": "address"
        }
      ],
      "stateMutability": "view",
      "type": "function"
    },
    {
      "inputs": [],
      "name": "renounceOwnership",
      "outputs": [],
      "stateMutability": "nonpayable",
      "type": "function"
    },
    {
      "inputs": [
        {
          "internalType": "address",
          "name": "_layer2Manager",
          "type": "address"
        },
        {
          "internalType": "address",
          "name": "_depositManager",
          "type": "address"
        },
        {
          "internalType": "address",
          "name": "_ton",
          "type": "address"
        },
        {
          "internalType": "address",
          "name": "_wton",
          "type": "address"
        }
      ],
      "name": "setAddresses",
      "outputs": [],
      "stateMutability": "nonpayable",
      "type": "function"
    },
    {
      "inputs": [],
      "name": "systemConfig",
      "outputs": [
        {
          "internalType": "address",
          "name": "",
          "type": "address"
        }
      ],
      "stateMutability": "view",
      "type": "function"
    },
    {
      "inputs": [],
      "name": "ton",
      "outputs": [
        {
          "internalType": "address",
          "name": "",
          "type": "address"
        }
      ],
      "stateMutability": "view",
      "type": "function"
    },
    {
      "inputs": [
        {
          "internalType": "address",
          "name": "newManager",
          "type": "address"
        }
      ],
      "name": "transferManager",
      "outputs": [],
      "stateMutability": "nonpayable",
      "type": "function"
    },
    {
      "inputs": [
        {
          "internalType": "address",
          "name": "newOwner",
          "type": "address"
        }
      ],
      "name": "transferOwnership",
      "outputs": [],
      "stateMutability": "nonpayable",
      "type": "function"
    },
    {
      "inputs": [],
      "name": "wton",
      "outputs": [
        {
          "internalType": "address",
          "name": "",
          "type": "address"
        }
      ],
      "stateMutability": "view",
      "type": "function"
    }
  ],
  "bytecode": "0x6080806040523461005b5760008054336001600160a01b0319821681178355916001600160a01b03909116907f8be0079c531659141344cd1fd0a4f28419497f9722a3daafe3b4186f6b6457e09080a361140690816100618239f35b600080fdfe6080604052600436101561001257600080fd5b60003560e01c806316b5d5bd14610152578063177be4d41461014d57806318dfb3c71461014857806333d7e2bd14610143578063481c6a751461013e5780634a945f8d146101395780636c7ac9d8146101345780636d70f7ae14610116578063715018a61461012f5780638d62d9491461012a5780638da5cb5b1461012557806392032c3e146101205780639870d7fe1461011b5780639a30739114610116578063b40992a114610111578063b61d27f61461010c578063ba0e930a14610107578063cc48b94714610102578063f2fde38b146100fd5763fd39beb4146100f857600080fd5b610aba565b6109f3565b6109ca565b6108cf565b610869565b6107c5565b610561565b6106b7565b610653565b61062a565b610601565b6105a3565b610538565b6103b6565b61037c565b610353565b61024b565b610180565b3461017b57600036600319011261017b576002546040516001600160a01b039091168152602090f35b600080fd5b3461017b57602036600319011261017b5760025460405163b17dba1b60e01b8152306004820152906001600160a01b03906020908390602490829085165afa8015610215576101da926000916101e7575b50163314610d42565b6101e5600435610f13565b005b610208915060203d811161020e575b6102008183610cfc565b810190610d1e565b386101d1565b503d6101f6565b610d36565b9181601f8401121561017b5782359167ffffffffffffffff831161017b576020808501948460051b01011161017b57565b3461017b57604036600319011261017b57600467ffffffffffffffff813581811161017b5761027d903690840161021a565b92602492833590811161017b57610297903690830161021a565b60009533875260076020526102b260ff604089205416610c8a565b81810361031a57865b8181106102c6578780f35b6102f76102dc6102d783858a611069565b61107e565b6102f16102ea848789611088565b369161101c565b906113e2565b6000198114610308576001016102bb565b634e487b7160e01b8852601185528688fd5b60405162461bcd60e51b81526020818601526013818801527277726f6e67206172726179206c656e6774687360681b6044820152606490fd5b3461017b57600036600319011261017b576001546040516001600160a01b039091168152602090f35b3461017b57600036600319011261017b576006546040516001600160a01b039091168152602090f35b6001600160a01b0381160361017b57565b3461017b57608036600319011261017b576004356103d3816103a5565b6024356103df816103a5565b604435916103ec836103a5565b606435926103f9846103a5565b6001600160a01b0361040e8382161515610c0a565b61041b8185161515610c0a565b6104288183161515610c0a565b6104358186161515610c0a565b6002541661050557600280546001600160a01b0319166001600160a01b0384161790557faaa9fbd44f151f33e813cad14b3227af4d0b1ec931d5dd2bc2c7e1f8925043a99361050091600380546001600160a01b0319166001600160a01b038716179055600480546001600160a01b0319166001600160a01b038316179055600580546001600160a01b0319166001600160a01b038416179055604080516001600160a01b039586168152958516602087015290841690850152909116606083015281906080820190565b0390a1005b60405162461bcd60e51b815260206004820152600b60248201526a185b1c9958591e481cd95d60aa1b6044820152606490fd5b3461017b57600036600319011261017b576003546040516001600160a01b039091168152602090f35b3461017b57602036600319011261017b5760043561057e816103a5565b60018060a01b03166000526007602052602060ff604060002054166040519015158152f35b3461017b576000806003193601126105fe576105bd610bb2565b80546001600160a01b03198116825581906001600160a01b03167f8be0079c531659141344cd1fd0a4f28419497f9722a3daafe3b4186f6b6457e08280a380f35b80fd5b3461017b57600036600319011261017b576005546040516001600160a01b039091168152602090f35b3461017b57600036600319011261017b576000546040516001600160a01b039091168152602090f35b3461017b57602036600319011261017b5760025460405163b17dba1b60e01b8152306004820152906001600160a01b03906020908390602490829085165afa8015610215576106ac926000916101e75750163314610d42565b6101e5600435610d8e565b3461017b57602036600319011261017b576004356106d4816103a5565b6001600160a01b0381811690610704906106ef831515610c0a565b806000541633149081156107b7575b50610c45565b600052600760205260ff60406000205416610782576001600160a01b03811660009081526007602052604090207f62cb02f3de5017db2b7d0bffac1845be0b5034dc8dbde6e56dd561e2b22446c2916105009161076890805460ff19166001179055565b6040516001600160a01b0390911681529081906020820190565b60405162461bcd60e51b815260206004820152600d60248201526c185b1c9958591e481859191959609a1b6044820152606490fd5b9050600654163314386106fe565b3461017b57602036600319011261017b576004356107e2816103a5565b6001600160a01b03907f5246ab7a3f5d15cd364c3a3853532b3b293320d173ce277988d7960dcf48dd2190602090831661081d811515610c0a565b6108366000948086541633149081156107b75750610c45565b8084526007825261084d60ff604086205416610c8a565b808452600782526040808520805460ff1916905551908152a180f35b3461017b57606036600319011261017b57600435610886816103a5565b6044359067ffffffffffffffff9081831161017b573660238401121561017b57826004013591821161017b57366024838501011161017b5760246101e593019060243590610fbc565b3461017b57602036600319011261017b576004356108ec816103a5565b6001600160a01b0381811690610903821515610c0a565b8060005416331480156109bd575b61091a90610c45565b600654169081146109925761096c7f36fc11e471af868224a71dcc29384ac6c46dda656aba95f6ee2461587368a9889260018060a01b03166bffffffffffffffffffffffff60a01b6006541617600655565b600654604080516001600160a01b03938416815292909116602083015281908101610500565b606460405162461bcd60e51b815260206004820152600460248201526373616d6560e01b6044820152fd5b5060065481163314610911565b3461017b57600036600319011261017b576004546040516001600160a01b039091168152602090f35b3461017b57602036600319011261017b57600435610a10816103a5565b610a18610bb2565b6001600160a01b039081168015610a6657600080546001600160a01b03198116831782559092167f8be0079c531659141344cd1fd0a4f28419497f9722a3daafe3b4186f6b6457e08380a380f35b60405162461bcd60e51b815260206004820152602660248201527f4f776e61626c653a206e6577206f776e657220697320746865207a65726f206160448201526564647265737360d01b6064820152608490fd5b3461017b576000806003193601126105fe576006546001600160a01b03908116610ae6338214156110ca565b600154600490602090610b0f90610b03906001600160a01b031681565b6001600160a01b031690565b604051638da5cb5b60e01b815292839182905afa928315610215577f36fc11e471af868224a71dcc29384ac6c46dda656aba95f6ee2461587368a98893610b60928691610b94575b50163314611108565b600680546001600160a01b03191633908117909155604080516001600160a01b03939093168352602083019190915290a180f35b610bac915060203d811161020e576102008183610cfc565b38610b57565b6000546001600160a01b03163303610bc657565b606460405162461bcd60e51b815260206004820152602060248201527f4f776e61626c653a2063616c6c6572206973206e6f7420746865206f776e65726044820152fd5b15610c1157565b60405162461bcd60e51b815260206004820152600c60248201526b7a65726f206164647265737360a01b6044820152606490fd5b15610c4c57565b60405162461bcd60e51b81526020600482015260166024820152753737ba1037b7363ca7bbb732b927b926b0b730b3b2b960511b6044820152606490fd5b15610c9157565b60405162461bcd60e51b815260206004820152600c60248201526b3737ba1037b832b930ba37b960a11b6044820152606490fd5b634e487b7160e01b600052604160045260246000fd5b6040810190811067ffffffffffffffff821117610cf757604052565b610cc5565b90601f8019910116810190811067ffffffffffffffff821117610cf757604052565b9081602091031261017b5751610d33816103a5565b90565b6040513d6000823e3d90fd5b15610d4957565b60405162461bcd60e51b815260206004820152601760248201527f6e6f74206f6e6c794c617965723243616e6469646174650000000000000000006044820152606490fd5b600554610da590610b03906001600160a01b031681565b600354604051636eb1769f60e11b81523060048201526001600160a01b039091166024820181905260209392908483604481855afa9283156102155785938591600091610ee6575b5010610e7a575b5050600354600092610e3f91610e1490610b03906001600160a01b031681565b6040516311f9fbc960e21b815233600482015260248101929092529093849283919082906044820190565b03925af1801561021557610e51575050565b81610e7092903d10610e73575b610e688183610cfc565b8101906112bc565b50565b503d610e5e565b60405163095ea7b360e01b81526001600160a01b0391909116600482015260001960248201529190829060449082906000905af18015610215576000928492610e3f92610ec9575b5092610df4565b610edf90843d8611610e7357610e688183610cfc565b5038610ec2565b610f069150853d8711610f0c575b610efe8183610cfc565b810190611149565b38610ded565b503d610ef4565b6005546006546001600160a01b0391821692911682610f5b57600080935082819392610f428394471015611158565b828215610f52575bf11561021557565b506108fc610f4a565b6040516370a0823160e01b815230600482015292602084602481845afa80156102155783610f9791610f9c96600091610f9e575b501015611158565b61119b565b565b610fb6915060203d8111610f0c57610efe8183610cfc565b38610f8f565b610fdd60009493859433865260076020526102ea60ff604088205416610c8a565b91602083519301915af1610fef6112d4565b9015610ff85750565b602081519101fd5b67ffffffffffffffff8111610cf757601f01601f191660200190565b92919261102882611000565b916110366040519384610cfc565b82948184528183011161017b578281602093846000960137010152565b634e487b7160e01b600052603260045260246000fd5b91908110156110795760051b0190565b611053565b35610d33816103a5565b91908110156110795760051b81013590601e198136030182121561017b57019081359167ffffffffffffffff831161017b57602001823603811361017b579190565b156110d157565b60405162461bcd60e51b815260206004820152600f60248201526e30b63932b0b23c9036b0b730b3b2b960891b6044820152606490fd5b1561110f57565b60405162461bcd60e51b81526020600482015260126024820152713737ba1031b7b73334b393b99037bbb732b960711b6044820152606490fd5b9081602091031261017b575190565b1561115f57565b60405162461bcd60e51b8152602060048201526014602482015273696e73756666696369656e742062616c616e636560601b6044820152606490fd5b60405163a9059cbb60e01b60208083019182526001600160a01b039490941660248301526044808301959095529381529192611234929160009081906111e2606486610cfc565b60018060a01b031692604051946111f886610cdb565b8786527f5361666545524332303a206c6f772d6c6576656c2063616c6c206661696c656488870152519082855af161122e6112d4565b91611350565b8051908282159283156112a4575b5050501561124d5750565b6084906040519062461bcd60e51b82526004820152602a60248201527f5361666545524332303a204552433230206f7065726174696f6e20646964206e6044820152691bdd081cdd58d8d9595960b21b6064820152fd5b6112b493508201810191016112bc565b388281611242565b9081602091031261017b5751801515810361017b5790565b3d156112ff573d906112e582611000565b916112f36040519384610cfc565b82523d6000602084013e565b606090565b1561130b57565b60405162461bcd60e51b815260206004820152601d60248201527f416464726573733a2063616c6c20746f206e6f6e2d636f6e74726163740000006044820152606490fd5b919290156113705750815115611364575090565b610d33903b1515611304565b8251909150156113835750805190602001fd5b6040519062461bcd60e51b82528160208060048301528251908160248401526000935b8285106113c9575050604492506000838284010152601f80199101168101030190fd5b84810182015186860160440152938101938593506113a6565b600091829182602083519301915af1610fef6112d456fea164736f6c6343000813000a",
  "linkReferences": {},
  "deployedLinkReferences": {}
}