{
  "_format": "hh-sol-artifact-1",
  "contractName": "OperatorV1_1",
  "sourceName": "contracts/layer2/OperatorV1_1.sol",
  "abi": [
    {
      "inputs": [],
      "stateMutability": "nonpayable",
      "type": "constructor"
    },
    {
      "inputs": [],
      "name": "AlreadySetError",
      "type": "error"
    },
    {
      "inputs": [],
      "name": "InsufficientBalanceError",
      "type": "error"
    },
    {
      "inputs": [],
      "name": "SameAddressError",
      "type": "error"
    },
    {
      "inputs": [],
      "name": "SameError",
      "type": "error"
    },
    {
      "inputs": [],
      "name": "TransferEthError",
      "type": "error"
    },
    {
      "anonymous": false,
      "inputs": [
        {
          "indexed": false,
          "internalType": "address",
          "name": "operator",
          "type": "address"
        }
      ],
      "name": "AddedOperator",
      "type": "event"
    },
    {
      "anonymous": false,
      "inputs": [
        {
          "indexed": false,
          "internalType": "address",
          "name": "token",
          "type": "address"
        },
        {
          "indexed": false,
          "internalType": "address",
          "name": "caller",
          "type": "address"
        },
        {
          "indexed": false,
          "internalType": "address",
          "name": "to",
          "type": "address"
        },
        {
          "indexed": false,
          "internalType": "uint256",
          "name": "amount",
          "type": "uint256"
        }
      ],
      "name": "Claimed",
      "type": "event"
    },
    {
      "anonymous": false,
      "inputs": [
        {
          "indexed": false,
          "internalType": "address",
          "name": "operator",
          "type": "address"
        }
      ],
      "name": "DeletedOperator",
      "type": "event"
    },
    {
      "anonymous": false,
      "inputs": [
        {
          "indexed": true,
          "internalType": "address",
          "name": "previousOwner",
          "type": "address"
        },
        {
          "indexed": true,
          "internalType": "address",
          "name": "newOwner",
          "type": "address"
        }
      ],
      "name": "OwnershipTransferred",
      "type": "event"
    },
    {
      "anonymous": false,
      "inputs": [
        {
          "indexed": false,
          "internalType": "address",
          "name": "_layer2Manager",
          "type": "address"
        },
        {
          "indexed": false,
          "internalType": "address",
          "name": "_depositManager",
          "type": "address"
        },
        {
          "indexed": false,
          "internalType": "address",
          "name": "_ton",
          "type": "address"
        },
        {
          "indexed": false,
          "internalType": "address",
          "name": "_wton",
          "type": "address"
        }
      ],
      "name": "SetAddresses",
      "type": "event"
    },
    {
      "anonymous": false,
      "inputs": [
        {
          "indexed": false,
          "internalType": "string",
          "name": "_explorer",
          "type": "string"
        }
      ],
      "name": "SetExplorer",
      "type": "event"
    },
    {
      "anonymous": false,
      "inputs": [
        {
          "indexed": false,
          "internalType": "address",
          "name": "previousManager",
          "type": "address"
        },
        {
          "indexed": false,
          "internalType": "address",
          "name": "newManager",
          "type": "address"
        }
      ],
      "name": "TransferredManager",
      "type": "event"
    },
    {
      "inputs": [],
      "name": "acquireManager",
      "outputs": [],
      "stateMutability": "nonpayable",
      "type": "function"
    },
    {
      "inputs": [
        {
          "internalType": "address",
          "name": "addr_",
          "type": "address"
        }
      ],
      "name": "addOperator",
      "outputs": [],
      "stateMutability": "nonpayable",
      "type": "function"
    },
    {
      "inputs": [],
      "name": "checkL1Bridge",
      "outputs": [
        {
          "internalType": "bool",
          "name": "result",
          "type": "bool"
        },
        {
          "internalType": "address",
          "name": "l1Bridge",
          "type": "address"
        },
        {
          "internalType": "address",
          "name": "portal",
          "type": "address"
        },
        {
          "internalType": "address",
          "name": "l2Ton",
          "type": "address"
        }
      ],
      "stateMutability": "view",
      "type": "function"
    },
    {
      "inputs": [
        {
          "internalType": "uint256",
          "name": "amount",
          "type": "uint256"
        }
      ],
      "name": "claimByLayer2Candidate",
      "outputs": [],
      "stateMutability": "nonpayable",
      "type": "function"
    },
    {
      "inputs": [
        {
          "internalType": "address",
          "name": "token",
          "type": "address"
        },
        {
          "internalType": "uint256",
          "name": "amount",
          "type": "uint256"
        }
      ],
      "name": "claimERC20",
      "outputs": [],
      "stateMutability": "nonpayable",
      "type": "function"
    },
    {
      "inputs": [],
      "name": "claimETH",
      "outputs": [],
      "stateMutability": "nonpayable",
      "type": "function"
    },
    {
      "inputs": [
        {
          "internalType": "address",
          "name": "addr_",
          "type": "address"
        }
      ],
      "name": "deleteOperator",
      "outputs": [],
      "stateMutability": "nonpayable",
      "type": "function"
    },
    {
      "inputs": [
        {
          "internalType": "uint256",
          "name": "amount",
          "type": "uint256"
        }
      ],
      "name": "depositByLayer2Canddiate",
      "outputs": [],
      "stateMutability": "nonpayable",
      "type": "function"
    },
    {
      "inputs": [],
      "name": "depositManager",
      "outputs": [
        {
          "internalType": "address",
          "name": "",
          "type": "address"
        }
      ],
      "stateMutability": "view",
      "type": "function"
    },
    {
      "inputs": [],
      "name": "explorer",
      "outputs": [
        {
          "internalType": "string",
          "name": "",
          "type": "string"
        }
      ],
      "stateMutability": "view",
      "type": "function"
    },
    {
      "inputs": [
        {
          "internalType": "address",
          "name": "addr",
          "type": "address"
        }
      ],
      "name": "isOperator",
      "outputs": [
        {
          "internalType": "bool",
          "name": "",
          "type": "bool"
        }
      ],
      "stateMutability": "view",
      "type": "function"
    },
    {
      "inputs": [],
      "name": "layer2Manager",
      "outputs": [
        {
          "internalType": "address",
          "name": "",
          "type": "address"
        }
      ],
      "stateMutability": "view",
      "type": "function"
    },
    {
      "inputs": [],
      "name": "manager",
      "outputs": [
        {
          "internalType": "address",
          "name": "",
          "type": "address"
        }
      ],
      "stateMutability": "view",
      "type": "function"
    },
    {
      "inputs": [
        {
          "internalType": "address",
          "name": "",
          "type": "address"
        }
      ],
      "name": "operator",
      "outputs": [
        {
          "internalType": "bool",
          "name": "",
          "type": "bool"
        }
      ],
      "stateMutability": "view",
      "type": "function"
    },
    {
      "inputs": [],
      "name": "owner",
      "outputs": [
        {
          "internalType": "address",
          "name": "",
          "type": "address"
        }
      ],
      "stateMutability": "view",
      "type": "function"
    },
    {
      "inputs": [],
      "name": "renounceOwnership",
      "outputs": [],
      "stateMutability": "nonpayable",
      "type": "function"
    },
    {
      "inputs": [
        {
          "internalType": "address",
          "name": "_layer2Manager",
          "type": "address"
        },
        {
          "internalType": "address",
          "name": "_depositManager",
          "type": "address"
        },
        {
          "internalType": "address",
          "name": "_ton",
          "type": "address"
        },
        {
          "internalType": "address",
          "name": "_wton",
          "type": "address"
        }
      ],
      "name": "setAddresses",
      "outputs": [],
      "stateMutability": "nonpayable",
      "type": "function"
    },
    {
      "inputs": [
        {
          "internalType": "string",
          "name": "_explorer",
          "type": "string"
        }
      ],
      "name": "setExplorer",
      "outputs": [],
      "stateMutability": "nonpayable",
      "type": "function"
    },
    {
      "inputs": [],
      "name": "systemConfig",
      "outputs": [
        {
          "internalType": "address",
          "name": "",
          "type": "address"
        }
      ],
      "stateMutability": "view",
      "type": "function"
    },
    {
      "inputs": [],
      "name": "ton",
      "outputs": [
        {
          "internalType": "address",
          "name": "",
          "type": "address"
        }
      ],
      "stateMutability": "view",
      "type": "function"
    },
    {
      "inputs": [
        {
          "internalType": "address",
          "name": "newManager",
          "type": "address"
        }
      ],
      "name": "transferManager",
      "outputs": [],
      "stateMutability": "nonpayable",
      "type": "function"
    },
    {
      "inputs": [
        {
          "internalType": "address",
          "name": "newOwner",
          "type": "address"
        }
      ],
      "name": "transferOwnership",
      "outputs": [],
      "stateMutability": "nonpayable",
      "type": "function"
    },
    {
      "inputs": [],
      "name": "wton",
      "outputs": [
        {
          "internalType": "address",
          "name": "",
          "type": "address"
        }
      ],
      "stateMutability": "view",
      "type": "function"
    }
  ],
  "bytecode": "0x6080806040523461005b5760008054336001600160a01b0319821681178355916001600160a01b03909116907f8be0079c531659141344cd1fd0a4f28419497f9722a3daafe3b4186f6b6457e09080a361167990816100618239f35b600080fdfe6080604081815260048036101561001557600080fd5b600092833560e01c90816312629ae31461101a5750806316b5d5bd14610ff1578063177be4d414610f3657806333d7e2bd14610f0d578063481c6a7514610ee45780634a945f8d14610ddd578063632b03ad14610ce85780636727299914610c2e5780636c7ac9d814610c055780636d70f7ae14610563578063715018a614610bab57806385c25599146108be5780638d62d949146108955780638da5cb5b1461086d57806392032c3e146106515780639870d7fe146105a15780639a30739114610563578063b35fb54214610502578063b40992a114610426578063ba0e930a14610366578063cc48b9471461033f578063f2fde38b1461027d5763fd39beb41461012057600080fd5b34610279578260031936011261027957600654916001600160a01b038084169290338414610244578160208260015416855192838092638da5cb5b60e01b82525afa90811561023a5787916101fd575b501633036101c65750516001600160a01b039190911681523360208201527f36fc11e471af868224a71dcc29384ac6c46dda656aba95f6ee2461587368a98890604090a16001600160a01b031916331760065580f35b6020606492519162461bcd60e51b835282015260126024820152713737ba1031b7b73334b393b99037bbb732b960711b6044820152fd5b90506020813d8211610232575b8161021760209383611121565b8101031261022e57610228906112b1565b38610170565b8680fd5b3d915061020a565b84513d89823e3d90fd5b506020606492519162461bcd60e51b8352820152600f60248201526e30b63932b0b23c9036b0b730b3b2b960891b6044820152fd5b8280fd5b5034610279576020366003190112610279576102976111a2565b906102a06111bd565b6001600160a01b039182169283156102ed57505082546001600160a01b0319811683178455167f8be0079c531659141344cd1fd0a4f28419497f9722a3daafe3b4186f6b6457e08380a380f35b906020608492519162461bcd60e51b8352820152602660248201527f4f776e61626c653a206e6577206f776e657220697320746865207a65726f206160448201526564647265737360d01b6064820152fd5b50346102795782600319360112610279575490516001600160a01b03909116815260209150f35b5034610279576020366003190112610279576103806111a2565b6001600160a01b038181169390929061039a851515611215565b8386541633148015610419575b6103b090611250565b6006549384169185831461040b5750516001600160a01b039182168152911660208201527f36fc11e471af868224a71dcc29384ac6c46dda656aba95f6ee2461587368a98890604090a16001600160a01b0319161760065580f35b9051631757e84760e01b8152fd5b50600654841633146103a7565b509034610279576020366003190112610279576001600160a01b039161046f8361044e6111a2565b169361045b851515611215565b8086541633149081156104f4575b50611250565b828452600760205260ff8285205416156104c35750816020917f5246ab7a3f5d15cd364c3a3853532b3b293320d173ce277988d7960dcf48dd219385526007835280852060ff19815416905551908152a180f35b6020606492519162461bcd60e51b8352820152600c60248201526b3737ba1037b832b930ba37b960a11b6044820152fd5b905060065416331438610469565b50503461055f5736600319011261055c5761054c61051e6111a2565b82546001600160a01b03919082163314801561054f575b61053e90611250565b60243591600654169061134e565b80f35b5060065482163314610535565b80fd5b5080fd5b50503461055f57602036600319011261055f5760209160ff9082906001600160a01b0361058e6111a2565b1681526007855220541690519015158152f35b509034610279576020366003190112610279576001600160a01b03916105c98361044e6111a2565b828452600760205260ff828520541661061f5750816020917f62cb02f3de5017db2b7d0bffac1845be0b5034dc8dbde6e56dd561e2b22446c293855260078352808520600160ff1982541617905551908152a180f35b6020606492519162461bcd60e51b8352820152600d60248201526c185b1c9958591e481859191959609a1b6044820152fd5b509034610279576020908160031936011261086957600254815163b17dba1b60e01b815230818601528435916001600160a01b03919085908290602490829086165afa801561023a5782908890610831575b6106b092501633146112c5565b6003546005548451636eb1769f60e11b8152308882019081529284166001600160a01b03811660208501529389939216918790829081906040010381855afa9081156108275790859184916107f6575b5010610783575b5083516311f9fbc960e21b81523396810196875260208701939093529194849286929183919082906040015b03925af190811561077a5750610747578280f35b81813d8311610773575b61075b8183611121565b8101031261055f5761076c90611311565b5038808280f35b503d610751565b513d85823e3d90fd5b8590604486518094819363095ea7b360e01b8352878c84015260001960248401525af1801561023a576107b8575b8690610707565b91908483813d83116107ef575b6107cf8183611121565b8101031261022e57610733956107e58694611311565b50955090916107b1565b503d6107c5565b809250888092503d8311610820575b61080f8183611121565b810103126102795784905138610700565b503d610805565b86513d85823e3d90fd5b50508481813d8311610862575b6108488183611121565b8101031261022e578161085d6106b0926112b1565b6106a3565b503d61083e565b8380fd5b50503461055f578160031936011261055f57905490516001600160a01b039091168152602090f35b50503461055f578160031936011261055f5760055490516001600160a01b039091168152602090f35b5082903461055f57602092836003193601126102795781359367ffffffffffffffff92838611610ba75736602387011215610ba75785810135938411610ba757602490818701913681878a01011161022e57865461093090336001600160a01b0391821614908115610b995750611250565b8451978798600893845491610944836110e7565b90818152888101918160019e8f87168c81600014610b7e5750600114610b36575b61097192500382611121565b51902061097d8a611295565b6109898a519182611121565b8a8152888101908b8983378c8a8d8301015251902014610b2957506109ad906110e7565b601f8111610ad7575b508790601f8811600114610a3e5787899a81969482969483947f5a51713569d43b1fc098b7927d1c1bf7a9ccc76f16dea3e84a7a8f180e033d089d95610a31575b5050501b906000198560031b1c19161790555b8451958487958652850152848401378181018301869052601f01601f19168101030190a180f35b01013592508c80806109f7565b83895260008051602061164d833981519152929091601f1989168a5b818110610ac05750927f5a51713569d43b1fc098b7927d1c1bf7a9ccc76f16dea3e84a7a8f180e033d089a9b928a9795928880989610610aa4575b5050505083811b019055610a0a565b60001960f88960031b161c19920101351690558a808080610a95565b8483018401358655948c0194918801918801610a5a565b83895260008051602061164d833981519152601f890160051c810191878a10610b1f575b601f0160051c01908a905b828110610b145750506109b6565b8a8155018a90610b06565b9091508190610afb565b875162d0a6fb60e71b8152fd5b508a8f8f908b825260008051602061164d8339815191525b858310610b645750506109719350820101610965565b8091929450548385880101520191018f908c918593610b4e565b9150506109719260ff1988168652151560051b820101610965565b90506006541633148a610469565b8480fd5b833461055c578060031936011261055c57610bc46111bd565b80546001600160a01b03198116825581906001600160a01b03167f8be0079c531659141344cd1fd0a4f28419497f9722a3daafe3b4186f6b6457e08280a380f35b50503461055f578160031936011261055f5760035490516001600160a01b039091168152602090f35b503461027957826003193601126102795782546001600160a01b0390811633148015610cdb575b610c5e90611250565b600654164791824710610ccd578480808086865af1610c7b61131e565b5015610cbf575082518481523360208201529283015260608201527f913c992353dc81b7a8ba31496c484e9b6306bd2f6c509a649a38fdf5e1c953b290608090a180f35b83516307e61b4360e51b8152fd5b835163384d3c5960e01b8152fd5b5060065481163314610c55565b5091903461055f578160031936011261055f5760025460015482516358bf884f60e01b81526001600160a01b039182169581019590955291906080908590602490829086165afa908115610dd457838080968194610d63575b5050608095848092845197151588521660208701521690840152166060820152f35b935095505092506080813d8211610dcc575b81610d8260809383611121565b810103126108695760809350610d9781611311565b9282610da5602084016112b1565b9481610dbe6060610db78688016112b1565b96016112b1565b949750909591508690610d41565b3d9150610d75565b513d84823e3d90fd5b50903461027957608036600319011261027957610df86111a2565b906001600160a01b039060243582811690819003610ee0576044359280841680940361022e5760643594818616809603610edc57811695610e3a871515611215565b610e45831515611215565b610e50851515611215565b610e5b861515611215565b600254918216610ece576001600160a01b0319918216871760025560038054831684179055805482168517905560058054909116851790558151948552602085015283015260608201527faaa9fbd44f151f33e813cad14b3227af4d0b1ec931d5dd2bc2c7e1f8925043a990608090a180f35b8351636ac1d85960e11b8152fd5b8780fd5b8580fd5b50503461055f578160031936011261055f5760065490516001600160a01b039091168152602090f35b50503461055f578160031936011261055f5760015490516001600160a01b039091168152602090f35b503461027957602036600319011261027957600254825163b17dba1b60e01b815230818401526001600160a01b0392916020908290602490829087165afa938415610fe857508493610fa6575b50610f948261054c941633146112c5565b8160055416903591600654169061134e565b92506020833d8211610fe0575b81610fc060209383611121565b8101031261086957610f9482610fd861054c956112b1565b945050610f83565b3d9150610fb3565b513d86823e3d90fd5b50503461055f578160031936011261055f5760025490516001600160a01b039091168152602090f35b849084346102795782600319360112610279578260085461103a816110e7565b808552916001918083169081156110bf5750600114611074575b50505061106682611070940383611121565b5191829182611159565b0390f35b94506008855260008051602061164d8339815191525b8286106110a7575050506110668260206110709582010194611054565b8054602087870181019190915290950194810161108a565b61107097508693506020925061106694915060ff191682840152151560051b82010194611054565b90600182811c92168015611117575b602083101461110157565b634e487b7160e01b600052602260045260246000fd5b91607f16916110f6565b90601f8019910116810190811067ffffffffffffffff82111761114357604052565b634e487b7160e01b600052604160045260246000fd5b6020808252825181830181905290939260005b82811061118e57505060409293506000838284010152601f8019910116010190565b81810186015184820160400152850161116c565b600435906001600160a01b03821682036111b857565b600080fd5b6000546001600160a01b031633036111d157565b606460405162461bcd60e51b815260206004820152602060248201527f4f776e61626c653a2063616c6c6572206973206e6f7420746865206f776e65726044820152fd5b1561121c57565b60405162461bcd60e51b815260206004820152600c60248201526b7a65726f206164647265737360a01b6044820152606490fd5b1561125757565b60405162461bcd60e51b81526020600482015260166024820152753737ba1037b7363ca7bbb732b927b926b0b730b3b2b960511b6044820152606490fd5b67ffffffffffffffff811161114357601f01601f191660200190565b51906001600160a01b03821682036111b857565b156112cc57565b60405162461bcd60e51b815260206004820152601760248201527f6e6f74206f6e6c794c617965723243616e6469646174650000000000000000006044820152606490fd5b519081151582036111b857565b3d15611349573d9061132f82611295565b9161133d6040519384611121565b82523d6000602084013e565b606090565b6001600160a01b039290831690816113e2578047106113d057600080808084875af161137861131e565b50156113be577f913c992353dc81b7a8ba31496c484e9b6306bd2f6c509a649a38fdf5e1c953b2936080935b6040519384523360208501521660408301526060820152a1565b6040516307e61b4360e51b8152600490fd5b60405163384d3c5960e01b8152600490fd5b9160409391938051906370a0823160e01b825230600483015260209182816024818a5afa9081156115ac5790869160009161157c575b501061156c57805163a9059cbb60e01b8382019081526001600160a01b03851660248301526044808301889052825290611453606482611121565b82519083820182811067ffffffffffffffff8211176111435784528482527f5361666545524332303a206c6f772d6c6576656c2063616c6c206661696c656482860152516114b3926000918291828c5af16114ac61131e565b90896115b7565b805183811591821561154d575b50509050156114f7575050917f913c992353dc81b7a8ba31496c484e9b6306bd2f6c509a649a38fdf5e1c953b293916080936113a4565b60849250519062461bcd60e51b82526004820152602a60248201527f5361666545524332303a204552433230206f7065726174696f6e20646964206e6044820152691bdd081cdd58d8d9595960b21b6064820152fd5b83809293500103126111b857826115649101611311565b8083386114c0565b5163384d3c5960e01b8152600490fd5b91508382813d83116115a5575b6115938183611121565b8101031261055c575085905138611418565b503d611589565b82513d6000823e3d90fd5b9192901561161957508151156115cb575090565b3b156115d45790565b60405162461bcd60e51b815260206004820152601d60248201527f416464726573733a2063616c6c20746f206e6f6e2d636f6e74726163740000006044820152606490fd5b82519091501561162c5750805190602001fd5b60405162461bcd60e51b81529081906116489060048301611159565b0390fdfef3f7a9fe364faab93b216da50a3214154f22a0a2b415b23a84c8169e8b636ee3a164736f6c6343000813000a",
  "linkReferences": {},
  "deployedLinkReferences": {}
}