{
  "_format": "hh-sol-artifact-1",
  "contractName": "OperatorV1_1",
  "sourceName": "contracts/layer2/OperatorV1_1.sol",
  "abi": [
    {
      "inputs": [],
      "stateMutability": "nonpayable",
      "type": "constructor"
    },
    {
      "inputs": [],
      "name": "AlreadySetError",
      "type": "error"
    },
    {
      "inputs": [],
      "name": "InsufficientBalanceError",
      "type": "error"
    },
    {
      "inputs": [],
      "name": "NotOperatorError",
      "type": "error"
    },
    {
      "inputs": [],
      "name": "ParameterError",
      "type": "error"
    },
    {
      "inputs": [],
      "name": "SameAddressError",
      "type": "error"
    },
    {
      "inputs": [],
      "name": "TransferEthError",
      "type": "error"
    },
    {
      "anonymous": false,
      "inputs": [
        {
          "indexed": false,
          "internalType": "address",
          "name": "operator",
          "type": "address"
        }
      ],
      "name": "AddedOperator",
      "type": "event"
    },
    {
      "anonymous": false,
      "inputs": [
        {
          "indexed": false,
          "internalType": "address",
          "name": "token",
          "type": "address"
        },
        {
          "indexed": false,
          "internalType": "address",
          "name": "caller",
          "type": "address"
        },
        {
          "indexed": false,
          "internalType": "address",
          "name": "to",
          "type": "address"
        },
        {
          "indexed": false,
          "internalType": "uint256",
          "name": "amount",
          "type": "uint256"
        }
      ],
      "name": "Claimed",
      "type": "event"
    },
    {
      "anonymous": false,
      "inputs": [
        {
          "indexed": false,
          "internalType": "address",
          "name": "operator",
          "type": "address"
        }
      ],
      "name": "DeletedOperator",
      "type": "event"
    },
    {
      "anonymous": false,
      "inputs": [
        {
          "indexed": true,
          "internalType": "address",
          "name": "previousOwner",
          "type": "address"
        },
        {
          "indexed": true,
          "internalType": "address",
          "name": "newOwner",
          "type": "address"
        }
      ],
      "name": "OwnershipTransferred",
      "type": "event"
    },
    {
      "anonymous": false,
      "inputs": [
        {
          "indexed": false,
          "internalType": "address",
          "name": "_layer2Manager",
          "type": "address"
        },
        {
          "indexed": false,
          "internalType": "address",
          "name": "_depositManager",
          "type": "address"
        },
        {
          "indexed": false,
          "internalType": "address",
          "name": "_ton",
          "type": "address"
        },
        {
          "indexed": false,
          "internalType": "address",
          "name": "_wton",
          "type": "address"
        }
      ],
      "name": "SetAddresses",
      "type": "event"
    },
    {
      "anonymous": false,
      "inputs": [
        {
          "indexed": false,
          "internalType": "address",
          "name": "previousManager",
          "type": "address"
        },
        {
          "indexed": false,
          "internalType": "address",
          "name": "newManager",
          "type": "address"
        }
      ],
      "name": "TransferredManager",
      "type": "event"
    },
    {
      "inputs": [],
      "name": "acquireManager",
      "outputs": [],
      "stateMutability": "nonpayable",
      "type": "function"
    },
    {
      "inputs": [
        {
          "internalType": "address",
          "name": "addr_",
          "type": "address"
        }
      ],
      "name": "addOperator",
      "outputs": [],
      "stateMutability": "nonpayable",
      "type": "function"
    },
    {
      "inputs": [],
      "name": "checkL1Bridge",
      "outputs": [
        {
          "internalType": "bool",
          "name": "result",
          "type": "bool"
        },
        {
          "internalType": "address",
          "name": "l1Bridge",
          "type": "address"
        },
        {
          "internalType": "address",
          "name": "portal",
          "type": "address"
        },
        {
          "internalType": "address",
          "name": "l2Ton",
          "type": "address"
        }
      ],
      "stateMutability": "view",
      "type": "function"
    },
    {
      "inputs": [
        {
          "internalType": "uint256",
          "name": "amount",
          "type": "uint256"
        }
      ],
      "name": "claimByLayer2Candidate",
      "outputs": [],
      "stateMutability": "nonpayable",
      "type": "function"
    },
    {
      "inputs": [
        {
          "internalType": "address",
          "name": "token",
          "type": "address"
        },
        {
          "internalType": "uint256",
          "name": "amount",
          "type": "uint256"
        }
      ],
      "name": "claimERC20",
      "outputs": [],
      "stateMutability": "nonpayable",
      "type": "function"
    },
    {
      "inputs": [],
      "name": "claimETH",
      "outputs": [],
      "stateMutability": "nonpayable",
      "type": "function"
    },
    {
      "inputs": [
        {
          "internalType": "address",
          "name": "addr_",
          "type": "address"
        }
      ],
      "name": "deleteOperator",
      "outputs": [],
      "stateMutability": "nonpayable",
      "type": "function"
    },
    {
      "inputs": [
        {
          "internalType": "uint256",
          "name": "amount",
          "type": "uint256"
        }
      ],
      "name": "depositByLayer2Canddiate",
      "outputs": [],
      "stateMutability": "nonpayable",
      "type": "function"
    },
    {
      "inputs": [],
      "name": "depositManager",
      "outputs": [
        {
          "internalType": "address",
          "name": "",
          "type": "address"
        }
      ],
      "stateMutability": "view",
      "type": "function"
    },
    {
      "inputs": [
        {
          "internalType": "address",
          "name": "dest",
          "type": "address"
        },
        {
          "internalType": "uint256",
          "name": "value",
          "type": "uint256"
        },
        {
          "internalType": "bytes",
          "name": "func",
          "type": "bytes"
        }
      ],
      "name": "execute",
      "outputs": [],
      "stateMutability": "nonpayable",
      "type": "function"
    },
    {
      "inputs": [
        {
          "internalType": "address[]",
          "name": "dest",
          "type": "address[]"
        },
        {
          "internalType": "bytes[]",
          "name": "func",
          "type": "bytes[]"
        }
      ],
      "name": "executeBatch",
      "outputs": [],
      "stateMutability": "nonpayable",
      "type": "function"
    },
    {
      "inputs": [
        {
          "internalType": "address",
          "name": "addr",
          "type": "address"
        }
      ],
      "name": "isOperator",
      "outputs": [
        {
          "internalType": "bool",
          "name": "",
          "type": "bool"
        }
      ],
      "stateMutability": "view",
      "type": "function"
    },
    {
      "inputs": [],
      "name": "layer2Manager",
      "outputs": [
        {
          "internalType": "address",
          "name": "",
          "type": "address"
        }
      ],
      "stateMutability": "view",
      "type": "function"
    },
    {
      "inputs": [],
      "name": "manager",
      "outputs": [
        {
          "internalType": "address",
          "name": "",
          "type": "address"
        }
      ],
      "stateMutability": "view",
      "type": "function"
    },
    {
      "inputs": [
        {
          "internalType": "address",
          "name": "",
          "type": "address"
        }
      ],
      "name": "operator",
      "outputs": [
        {
          "internalType": "bool",
          "name": "",
          "type": "bool"
        }
      ],
      "stateMutability": "view",
      "type": "function"
    },
    {
      "inputs": [],
      "name": "owner",
      "outputs": [
        {
          "internalType": "address",
          "name": "",
          "type": "address"
        }
      ],
      "stateMutability": "view",
      "type": "function"
    },
    {
      "inputs": [],
      "name": "renounceOwnership",
      "outputs": [],
      "stateMutability": "nonpayable",
      "type": "function"
    },
    {
      "inputs": [
        {
          "internalType": "address",
          "name": "_layer2Manager",
          "type": "address"
        },
        {
          "internalType": "address",
          "name": "_depositManager",
          "type": "address"
        },
        {
          "internalType": "address",
          "name": "_ton",
          "type": "address"
        },
        {
          "internalType": "address",
          "name": "_wton",
          "type": "address"
        }
      ],
      "name": "setAddresses",
      "outputs": [],
      "stateMutability": "nonpayable",
      "type": "function"
    },
    {
      "inputs": [],
      "name": "systemConfig",
      "outputs": [
        {
          "internalType": "address",
          "name": "",
          "type": "address"
        }
      ],
      "stateMutability": "view",
      "type": "function"
    },
    {
      "inputs": [],
      "name": "ton",
      "outputs": [
        {
          "internalType": "address",
          "name": "",
          "type": "address"
        }
      ],
      "stateMutability": "view",
      "type": "function"
    },
    {
      "inputs": [
        {
          "internalType": "address",
          "name": "newManager",
          "type": "address"
        }
      ],
      "name": "transferManager",
      "outputs": [],
      "stateMutability": "nonpayable",
      "type": "function"
    },
    {
      "inputs": [
        {
          "internalType": "address",
          "name": "newOwner",
          "type": "address"
        }
      ],
      "name": "transferOwnership",
      "outputs": [],
      "stateMutability": "nonpayable",
      "type": "function"
    },
    {
      "inputs": [],
      "name": "wton",
      "outputs": [
        {
          "internalType": "address",
          "name": "",
          "type": "address"
        }
      ],
      "stateMutability": "view",
      "type": "function"
    }
  ],
  "bytecode": "0x6080806040523461005b5760008054336001600160a01b0319821681178355916001600160a01b03909116907f8be0079c531659141344cd1fd0a4f28419497f9722a3daafe3b4186f6b6457e09080a361162b90816100618239f35b600080fdfe6080604052600436101561001257600080fd5b60003560e01c806316b5d5bd14610182578063177be4d41461017d57806318dfb3c71461017857806333d7e2bd14610173578063481c6a751461016e5780634a945f8d14610169578063632b03ad14610164578063672729991461015f5780636c7ac9d81461015a5780636d70f7ae1461013c578063715018a6146101555780638d62d949146101505780638da5cb5b1461014b57806392032c3e146101465780639870d7fe146101415780639a3073911461013c578063b35fb54214610137578063b40992a114610132578063b61d27f61461012d578063ba0e930a14610128578063cc48b94714610123578063f2fde38b1461011e5763fd39beb41461011957600080fd5b610c7a565b610bb3565b610b8a565b610ac4565b610a5e565b610991565b610935565b6106d4565b610827565b6107c3565b61079a565b610771565b610716565b6106ab565b6105db565b610519565b6103be565b610384565b61035b565b61027b565b6101b0565b346101ab5760003660031901126101ab576002546040516001600160a01b039091168152602090f35b600080fd5b346101ab5760203660031901126101ab5760025460405163b17dba1b60e01b8152306004820152906001600160a01b03906020908390602490829085165afa80156102455761020a92600091610217575b50163314610ecf565b61021560043561108f565b005b610238915060203d811161023e575b6102308183610e89565b810190610eab565b38610201565b503d610226565b610ec3565b9181601f840112156101ab5782359167ffffffffffffffff83116101ab576020808501948460051b0101116101ab57565b346101ab5760403660031901126101ab5767ffffffffffffffff600480358281116101ab576102ad903690830161024a565b60249291929384359081116101ab576102c9903690840161024a565b6102d1611279565b808314801590610353575b6103425760005b8381106102ec57005b61031d6103026102fd83878a61114b565b611160565b61031761031084868861116a565b36916110ca565b90611607565b600019811461032e576001016102e3565b86601186634e487b7160e01b600052526000fd5b604051631372c76160e11b81528490fd5b5082156102dc565b346101ab5760003660031901126101ab576001546040516001600160a01b039091168152602090f35b346101ab5760003660031901126101ab576006546040516001600160a01b039091168152602090f35b6001600160a01b038116036101ab57565b346101ab5760803660031901126101ab576004356103db816103ad565b6024356103e7816103ad565b604435916103f4836103ad565b60643592610401846103ad565b6001600160a01b039382851691610419831515610dd2565b858516610427811515610dd2565b6104348783161515610dd2565b6104418784161515610dd2565b600254968716610507577faaa9fbd44f151f33e813cad14b3227af4d0b1ec931d5dd2bc2c7e1f8925043a996610502946bffffffffffffffffffffffff60a01b8092161760025560035416176003556104b68160018060a01b03166bffffffffffffffffffffffff60a01b6004541617600455565b600580546001600160a01b0319166001600160a01b038416179055604080516001600160a01b039586168152958516602087015290841690850152909116606083015281906080820190565b0390a1005b604051636ac1d85960e11b8152600490fd5b346101ab576000806003193601126105d8576002546001546040516358bf884f60e01b81526001600160a01b039182166004820152929160809184916024918391165afa801561024557819082809161059e575b6040805193151584526001600160a01b039485166020850152908416908301529091166060820152608090f35b0390f35b505050506105c561059a9160803d81116105d1575b6105bd8183610e89565b810190611238565b9193508392919061056d565b503d6105b3565b80fd5b346101ab576000806003193601126105d85780546001600160a01b039081163314801561069e575b61060c90610e0d565b600654164780471061068c578280808084865af16106286112b3565b501561067a5760408051600081523360208201526001600160a01b03939093169083015260608201527f913c992353dc81b7a8ba31496c484e9b6306bd2f6c509a649a38fdf5e1c953b290608090a180f35b6040516307e61b4360e51b8152600490fd5b60405163384d3c5960e01b8152600490fd5b5060065481163314610603565b346101ab5760003660031901126101ab576003546040516001600160a01b039091168152602090f35b346101ab5760203660031901126101ab576004356106f1816103ad565b60018060a01b03166000526007602052602060ff604060002054166040519015158152f35b346101ab576000806003193601126105d857610730610d7a565b80546001600160a01b03198116825581906001600160a01b03167f8be0079c531659141344cd1fd0a4f28419497f9722a3daafe3b4186f6b6457e08280a380f35b346101ab5760003660031901126101ab576005546040516001600160a01b039091168152602090f35b346101ab5760003660031901126101ab576000546040516001600160a01b039091168152602090f35b346101ab5760203660031901126101ab5760025460405163b17dba1b60e01b8152306004820152906001600160a01b03906020908390602490829085165afa80156102455761081c926000916102175750163314610ecf565b610215600435610f1b565b346101ab5760203660031901126101ab57600435610844816103ad565b6001600160a01b03818116906108749061085f831515610dd2565b80600054163314908115610927575b50610e0d565b600052600760205260ff604060002054166108f2576001600160a01b03811660009081526007602052604090207f62cb02f3de5017db2b7d0bffac1845be0b5034dc8dbde6e56dd561e2b22446c291610502916108d890805460ff19166001179055565b6040516001600160a01b0390911681529081906020820190565b60405162461bcd60e51b815260206004820152600d60248201526c185b1c9958591e481859191959609a1b6044820152606490fd5b90506006541633143861086e565b346101ab5760403660031901126101ab57610215600435610955816103ad565b6000546001600160a01b039190821633148015610984575b61097690610e0d565b6024359160065416906112e3565b506006548216331461096d565b346101ab5760203660031901126101ab576004356109ae816103ad565b6001600160a01b03818116906109c99061085f831515610dd2565b600052600760205260ff6040600020541615610a2a576001600160a01b0381166000908152600760205260409020805460ff191690557f5246ab7a3f5d15cd364c3a3853532b3b293320d173ce277988d7960dcf48dd2190610502906108d8565b60405162461bcd60e51b815260206004820152600c60248201526b3737ba1037b832b930ba37b960a11b6044820152606490fd5b346101ab5760603660031901126101ab57600435610a7b816103ad565b6044359067ffffffffffffffff908183116101ab57366023840112156101ab5782600401359182116101ab5736602483850101116101ab57602461021593019060243590611101565b346101ab5760203660031901126101ab57600435610ae1816103ad565b6001600160a01b0381811691610af8831515610dd2565b816000541633148015610b7d575b610b0f90610e0d565b60065491821690838214610b6b57604080516001600160a01b0393841681529190921660208201527f36fc11e471af868224a71dcc29384ac6c46dda656aba95f6ee2461587368a9889190a16001600160a01b03191617600655005b604051631757e84760e01b8152600490fd5b5060065482163314610b06565b346101ab5760003660031901126101ab576004546040516001600160a01b039091168152602090f35b346101ab5760203660031901126101ab57600435610bd0816103ad565b610bd8610d7a565b6001600160a01b039081168015610c2657600080546001600160a01b03198116831782559092167f8be0079c531659141344cd1fd0a4f28419497f9722a3daafe3b4186f6b6457e08380a380f35b60405162461bcd60e51b815260206004820152602660248201527f4f776e61626c653a206e6577206f776e657220697320746865207a65726f206160448201526564647265737360d01b6064820152608490fd5b346101ab576000806003193601126105d8576006546001600160a01b03906004908216610ca9338214156111ac565b600154602090610ccf90610cc3906001600160a01b031681565b6001600160a01b031690565b604051638da5cb5b60e01b815293849182905afa918215610245577f36fc11e471af868224a71dcc29384ac6c46dda656aba95f6ee2461587368a98893610d4493610d24928791610d5c575b501633146111ea565b604080516001600160a01b03909216825233602083015290918291820190565b0390a1600680546001600160a01b0319163317905580f35b610d74915060203d811161023e576102308183610e89565b38610d1b565b6000546001600160a01b03163303610d8e57565b606460405162461bcd60e51b815260206004820152602060248201527f4f776e61626c653a2063616c6c6572206973206e6f7420746865206f776e65726044820152fd5b15610dd957565b60405162461bcd60e51b815260206004820152600c60248201526b7a65726f206164647265737360a01b6044820152606490fd5b15610e1457565b60405162461bcd60e51b81526020600482015260166024820152753737ba1037b7363ca7bbb732b927b926b0b730b3b2b960511b6044820152606490fd5b634e487b7160e01b600052604160045260246000fd5b6040810190811067ffffffffffffffff821117610e8457604052565b610e52565b90601f8019910116810190811067ffffffffffffffff821117610e8457604052565b908160209103126101ab5751610ec0816103ad565b90565b6040513d6000823e3d90fd5b15610ed657565b60405162461bcd60e51b815260206004820152601760248201527f6e6f74206f6e6c794c617965723243616e6469646174650000000000000000006044820152606490fd5b6003546001600160a01b0316600554909190610f4190610cc3906001600160a01b031681565b604051636eb1769f60e11b81523060048201526001600160a01b038416602482015260209390918483604481845afa9283156102455785938591600091611062575b5010610ff5575b506040516311f9fbc960e21b81523360048201526024810193909352829081600081604481015b03926001600160a01b03165af1801561024557610fcc575050565b81610feb92903d10610fee575b610fe38183610e89565b810190611515565b50565b503d610fd9565b60405163095ea7b360e01b81526001600160a01b038316600482015260001960248201529290839060449082906000905af1908115610245576000938593610fb193611045575b50935090610f8a565b61105b90853d8711610fee57610fe38183610e89565b503861103c565b6110829150853d8711611088575b61107a8183610e89565b8101906112a4565b38610f83565b503d611070565b6005546006546110ac92916001600160a01b0391821691166112e3565b565b67ffffffffffffffff8111610e8457601f01601f191660200190565b9291926110d6826110ae565b916110e46040519384610e89565b8294818452818301116101ab578281602093846000960137010152565b611112600094938594610310611279565b91602083519301915af16111246112b3565b901561112d5750565b602081519101fd5b634e487b7160e01b600052603260045260246000fd5b919081101561115b5760051b0190565b611135565b35610ec0816103ad565b919081101561115b5760051b81013590601e19813603018212156101ab57019081359167ffffffffffffffff83116101ab5760200182360381136101ab579190565b156111b357565b60405162461bcd60e51b815260206004820152600f60248201526e30b63932b0b23c9036b0b730b3b2b960891b6044820152606490fd5b156111f157565b60405162461bcd60e51b81526020600482015260126024820152713737ba1031b7b73334b393b99037bbb732b960711b6044820152606490fd5b519081151582036101ab57565b91908260809103126101ab5761124d8261122b565b91602081015161125c816103ad565b916060604083015161126d816103ad565b920151610ec0816103ad565b33600052600760205260ff604060002054161561129257565b604051630ada8c9560e01b8152600490fd5b908160209103126101ab575190565b3d156112de573d906112c4826110ae565b916112d26040519384610e89565b82523d6000602084013e565b606090565b6001600160a01b0381168061136f575082471061068c57600080808086865af161130b6112b3565b501561067a5761136a7f913c992353dc81b7a8ba31496c484e9b6306bd2f6c509a649a38fdf5e1c953b2935b604080516001600160a01b0394851681523360208201529490931692840192909252606083019190915281906080820190565b0390a1565b6040516370a0823160e01b8152306004820152602081602481855afa80156102455785916000916113d6575b501061068c57836113d17f913c992353dc81b7a8ba31496c484e9b6306bd2f6c509a649a38fdf5e1c953b2958561136a946113f4565b611337565b6113ee915060203d81116110885761107a8183610e89565b3861139b565b60405163a9059cbb60e01b60208083019182526001600160a01b03949094166024830152604480830195909552938152919261148d9291600090819061143b606486610e89565b60018060a01b0316926040519461145186610e68565b8786527f5361666545524332303a206c6f772d6c6576656c2063616c6c206661696c656488870152519082855af16114876112b3565b91611575565b8051908282159283156114fd575b505050156114a65750565b6084906040519062461bcd60e51b82526004820152602a60248201527f5361666545524332303a204552433230206f7065726174696f6e20646964206e6044820152691bdd081cdd58d8d9595960b21b6064820152fd5b61150d9350820181019101611515565b38828161149b565b908160209103126101ab57610ec09061122b565b1561153057565b60405162461bcd60e51b815260206004820152601d60248201527f416464726573733a2063616c6c20746f206e6f6e2d636f6e74726163740000006044820152606490fd5b919290156115955750815115611589575090565b610ec0903b1515611529565b8251909150156115a85750805190602001fd5b6040519062461bcd60e51b82528160208060048301528251908160248401526000935b8285106115ee575050604492506000838284010152601f80199101168101030190fd5b84810182015186860160440152938101938593506115cb565b600091829182602083519301915af16111246112b356fea164736f6c6343000812000a",
  "linkReferences": {},
  "deployedLinkReferences": {}
}