{
  "_format": "hh-sol-artifact-1",
  "contractName": "OperatorV1_1",
  "sourceName": "contracts/layer2/OperatorV1_1.sol",
  "abi": [
    {
      "inputs": [],
      "stateMutability": "nonpayable",
      "type": "constructor"
    },
    {
      "anonymous": false,
      "inputs": [
        {
          "indexed": false,
          "internalType": "address",
          "name": "operator",
          "type": "address"
        }
      ],
      "name": "AddedOperator",
      "type": "event"
    },
    {
      "anonymous": false,
      "inputs": [
        {
          "indexed": false,
          "internalType": "address",
          "name": "operator",
          "type": "address"
        }
      ],
      "name": "DeletedOperator",
      "type": "event"
    },
    {
      "anonymous": false,
      "inputs": [
        {
          "indexed": true,
          "internalType": "address",
          "name": "previousOwner",
          "type": "address"
        },
        {
          "indexed": true,
          "internalType": "address",
          "name": "newOwner",
          "type": "address"
        }
      ],
      "name": "OwnershipTransferred",
      "type": "event"
    },
    {
      "anonymous": false,
      "inputs": [
        {
          "indexed": false,
          "internalType": "address",
          "name": "systemConfig",
          "type": "address"
        }
      ],
      "name": "SetSystemConfig",
      "type": "event"
    },
    {
      "anonymous": false,
      "inputs": [
        {
          "indexed": false,
          "internalType": "address",
          "name": "previousManager",
          "type": "address"
        },
        {
          "indexed": false,
          "internalType": "address",
          "name": "newManager",
          "type": "address"
        }
      ],
      "name": "TransferredManager",
      "type": "event"
    },
    {
      "inputs": [],
      "name": "acquireManager",
      "outputs": [],
      "stateMutability": "nonpayable",
      "type": "function"
    },
    {
      "inputs": [
        {
          "internalType": "address",
          "name": "addr_",
          "type": "address"
        }
      ],
      "name": "addOperator",
      "outputs": [],
      "stateMutability": "nonpayable",
      "type": "function"
    },
    {
      "inputs": [
        {
          "internalType": "address",
          "name": "token",
          "type": "address"
        },
        {
          "internalType": "address",
          "name": "to",
          "type": "address"
        },
        {
          "internalType": "uint256",
          "name": "amount",
          "type": "uint256"
        }
      ],
      "name": "claim",
      "outputs": [],
      "stateMutability": "nonpayable",
      "type": "function"
    },
    {
      "inputs": [
        {
          "internalType": "address",
          "name": "addr_",
          "type": "address"
        }
      ],
      "name": "deleteOperator",
      "outputs": [],
      "stateMutability": "nonpayable",
      "type": "function"
    },
    {
      "inputs": [
        {
          "internalType": "address",
          "name": "addr",
          "type": "address"
        }
      ],
      "name": "isOperator",
      "outputs": [
        {
          "internalType": "bool",
          "name": "",
          "type": "bool"
        }
      ],
      "stateMutability": "view",
      "type": "function"
    },
    {
      "inputs": [],
      "name": "manager",
      "outputs": [
        {
          "internalType": "address",
          "name": "",
          "type": "address"
        }
      ],
      "stateMutability": "view",
      "type": "function"
    },
    {
      "inputs": [
        {
          "internalType": "address",
          "name": "",
          "type": "address"
        }
      ],
      "name": "operator",
      "outputs": [
        {
          "internalType": "bool",
          "name": "",
          "type": "bool"
        }
      ],
      "stateMutability": "view",
      "type": "function"
    },
    {
      "inputs": [],
      "name": "owner",
      "outputs": [
        {
          "internalType": "address",
          "name": "",
          "type": "address"
        }
      ],
      "stateMutability": "view",
      "type": "function"
    },
    {
      "inputs": [],
      "name": "renounceOwnership",
      "outputs": [],
      "stateMutability": "nonpayable",
      "type": "function"
    },
    {
      "inputs": [],
      "name": "systemConfig",
      "outputs": [
        {
          "internalType": "address",
          "name": "",
          "type": "address"
        }
      ],
      "stateMutability": "view",
      "type": "function"
    },
    {
      "inputs": [
        {
          "internalType": "address",
          "name": "newManager",
          "type": "address"
        }
      ],
      "name": "transferManager",
      "outputs": [],
      "stateMutability": "nonpayable",
      "type": "function"
    },
    {
      "inputs": [
        {
          "internalType": "address",
          "name": "newOwner",
          "type": "address"
        }
      ],
      "name": "transferOwnership",
      "outputs": [],
      "stateMutability": "nonpayable",
      "type": "function"
    }
  ],
  "bytecode": "0x608060405234801561001057600080fd5b5061001a3361001f565b61006f565b600080546001600160a01b038381166001600160a01b0319831681178455604051919092169283917f8be0079c531659141344cd1fd0a4f28419497f9722a3daafe3b4186f6b6457e09190a35050565b610e5c8061007e6000396000f3fe608060405234801561001057600080fd5b50600436106100b45760003560e01c8063996cba6811610071578063996cba68146101665780639a30739114610179578063b40992a11461019c578063ba0e930a146101af578063f2fde38b146101c2578063fd39beb4146101d557600080fd5b806333d7e2bd146100b9578063481c6a75146100e95780636d70f7ae146100fc578063715018a6146101385780638da5cb5b146101425780639870d7fe14610153575b600080fd5b6001546100cc906001600160a01b031681565b6040516001600160a01b0390911681526020015b60405180910390f35b6002546100cc906001600160a01b031681565b61012861010a366004610cc9565b6001600160a01b031660009081526003602052604090205460ff1690565b60405190151581526020016100e0565b6101406101dd565b005b6000546001600160a01b03166100cc565b610140610161366004610cc9565b6101f1565b610140610174366004610ced565b610324565b610128610187366004610cc9565b60036020526000908152604090205460ff1681565b6101406101aa366004610cc9565b610526565b6101406101bd366004610cc9565b610643565b6101406101d0366004610cc9565b610760565b6101406107d9565b6101e561094e565b6101ef60006109a8565b565b806001600160a01b0381166102215760405162461bcd60e51b815260040161021890610d2e565b60405180910390fd5b336102346000546001600160a01b031690565b6001600160a01b0316148061025357506002546001600160a01b031633145b61026f5760405162461bcd60e51b815260040161021890610d54565b6001600160a01b03821660009081526003602052604090205460ff16156102c85760405162461bcd60e51b815260206004820152600d60248201526c185b1c9958591e481859191959609a1b6044820152606401610218565b6001600160a01b038216600081815260036020908152604091829020805460ff1916600117905590519182527f62cb02f3de5017db2b7d0bffac1845be0b5034dc8dbde6e56dd561e2b22446c291015b60405180910390a15050565b816001600160a01b03811661034b5760405162461bcd60e51b815260040161021890610d2e565b6002546001600160a01b031633146103935760405162461bcd60e51b815260206004820152600b60248201526a3737ba1036b0b730b3b2b960a91b6044820152606401610218565b816000036103cc5760405162461bcd60e51b8152600401610218906020808252600490820152637a65726f60e01b604082015260600190565b6001600160a01b03841661045d57814710156104215760405162461bcd60e51b8152602060048201526014602482015273696e73756666696369656e742062616c616e636560601b6044820152606401610218565b6040516001600160a01b0384169083156108fc029084906000818181858888f19350505050158015610457573d6000803e3d6000fd5b50610520565b6040516370a0823160e01b815230600482015282906001600160a01b038616906370a0823190602401602060405180830381865afa1580156104a3573d6000803e3d6000fd5b505050506040513d601f19601f820116820180604052508101906104c79190610d84565b101561050c5760405162461bcd60e51b8152602060048201526014602482015273696e73756666696369656e742062616c616e636560601b6044820152606401610218565b6105206001600160a01b03851684846109f8565b50505050565b806001600160a01b03811661054d5760405162461bcd60e51b815260040161021890610d2e565b336105606000546001600160a01b031690565b6001600160a01b0316148061057f57506002546001600160a01b031633145b61059b5760405162461bcd60e51b815260040161021890610d54565b6001600160a01b03821660009081526003602052604090205460ff166105f25760405162461bcd60e51b815260206004820152600c60248201526b3737ba1037b832b930ba37b960a11b6044820152606401610218565b6001600160a01b038216600081815260036020908152604091829020805460ff1916905590519182527f5246ab7a3f5d15cd364c3a3853532b3b293320d173ce277988d7960dcf48dd219101610318565b806001600160a01b03811661066a5760405162461bcd60e51b815260040161021890610d2e565b3361067d6000546001600160a01b031690565b6001600160a01b0316148061069c57506002546001600160a01b031633145b6106b85760405162461bcd60e51b815260040161021890610d54565b6002546001600160a01b038084169116036106fe5760405162461bcd60e51b81526004016102189060208082526004908201526373616d6560e01b604082015260600190565b600280546001600160a01b038481166001600160a01b031983168117909355604080519190921680825260208201939093527f36fc11e471af868224a71dcc29384ac6c46dda656aba95f6ee2461587368a988910160405180910390a1505050565b61076861094e565b6001600160a01b0381166107cd5760405162461bcd60e51b815260206004820152602660248201527f4f776e61626c653a206e6577206f776e657220697320746865207a65726f206160448201526564647265737360d01b6064820152608401610218565b6107d6816109a8565b50565b6002546001600160a01b031633036108255760405162461bcd60e51b815260206004820152600f60248201526e30b63932b0b23c9036b0b730b3b2b960891b6044820152606401610218565b600160009054906101000a90046001600160a01b03166001600160a01b0316638da5cb5b6040518163ffffffff1660e01b8152600401602060405180830381865afa158015610878573d6000803e3d6000fd5b505050506040513d601f19601f8201168201806040525081019061089c9190610d9d565b6001600160a01b0316336001600160a01b0316146108f15760405162461bcd60e51b81526020600482015260126024820152713737ba1031b7b73334b393b99037bbb732b960711b6044820152606401610218565b60028054336001600160a01b031982168117909255604080516001600160a01b0390921680835260208301939093527f36fc11e471af868224a71dcc29384ac6c46dda656aba95f6ee2461587368a988910160405180910390a150565b6000546001600160a01b031633146101ef5760405162461bcd60e51b815260206004820181905260248201527f4f776e61626c653a2063616c6c6572206973206e6f7420746865206f776e65726044820152606401610218565b600080546001600160a01b038381166001600160a01b0319831681178455604051919092169283917f8be0079c531659141344cd1fd0a4f28419497f9722a3daafe3b4186f6b6457e09190a35050565b604080516001600160a01b038416602482015260448082018490528251808303909101815260649091019091526020810180516001600160e01b031663a9059cbb60e01b179052610a4a908490610a4f565b505050565b6000610aa4826040518060400160405280602081526020017f5361666545524332303a206c6f772d6c6576656c2063616c6c206661696c6564815250856001600160a01b0316610b249092919063ffffffff16565b9050805160001480610ac5575080806020019051810190610ac59190610dba565b610a4a5760405162461bcd60e51b815260206004820152602a60248201527f5361666545524332303a204552433230206f7065726174696f6e20646964206e6044820152691bdd081cdd58d8d9595960b21b6064820152608401610218565b6060610b338484600085610b3b565b949350505050565b606082471015610b9c5760405162461bcd60e51b815260206004820152602660248201527f416464726573733a20696e73756666696369656e742062616c616e636520666f6044820152651c8818d85b1b60d21b6064820152608401610218565b600080866001600160a01b03168587604051610bb89190610e00565b60006040518083038185875af1925050503d8060008114610bf5576040519150601f19603f3d011682016040523d82523d6000602084013e610bfa565b606091505b5091509150610c0b87838387610c16565b979650505050505050565b60608315610c85578251600003610c7e576001600160a01b0385163b610c7e5760405162461bcd60e51b815260206004820152601d60248201527f416464726573733a2063616c6c20746f206e6f6e2d636f6e74726163740000006044820152606401610218565b5081610b33565b610b338383815115610c9a5781518083602001fd5b8060405162461bcd60e51b81526004016102189190610e1c565b6001600160a01b03811681146107d657600080fd5b600060208284031215610cdb57600080fd5b8135610ce681610cb4565b9392505050565b600080600060608486031215610d0257600080fd5b8335610d0d81610cb4565b92506020840135610d1d81610cb4565b929592945050506040919091013590565b6020808252600c908201526b7a65726f206164647265737360a01b604082015260600190565b6020808252601690820152753737ba1037b7363ca7bbb732b927b926b0b730b3b2b960511b604082015260600190565b600060208284031215610d9657600080fd5b5051919050565b600060208284031215610daf57600080fd5b8151610ce681610cb4565b600060208284031215610dcc57600080fd5b81518015158114610ce657600080fd5b60005b83811015610df7578181015183820152602001610ddf565b50506000910152565b60008251610e12818460208701610ddc565b9190910192915050565b6020815260008251806020840152610e3b816040850160208701610ddc565b601f01601f1916919091016040019291505056fea164736f6c6343000813000a",
  "linkReferences": {},
  "deployedLinkReferences": {}
}