{
  "_format": "hh-sol-artifact-1",
  "contractName": "L2RefactorCoinageSnapshotStorage",
  "sourceName": "contracts/L2/L2RefactorCoinageSnapshotStorage.sol",
  "abi": [
    {
      "inputs": [],
      "name": "REFACTOR_BOUNDARY",
      "outputs": [
        {
          "internalType": "uint256",
          "name": "",
          "type": "uint256"
        }
      ],
      "stateMutability": "view",
      "type": "function"
    },
    {
      "inputs": [],
      "name": "REFACTOR_DIVIDER",
      "outputs": [
        {
          "internalType": "uint256",
          "name": "",
          "type": "uint256"
        }
      ],
      "stateMutability": "view",
      "type": "function"
    },
    {
      "inputs": [
        {
          "internalType": "address",
          "name": "",
          "type": "address"
        },
        {
          "internalType": "address",
          "name": "",
          "type": "address"
        }
      ],
      "name": "_allowances",
      "outputs": [
        {
          "internalType": "uint256",
          "name": "",
          "type": "uint256"
        }
      ],
      "stateMutability": "view",
      "type": "function"
    },
    {
      "inputs": [
        {
          "internalType": "address",
          "name": "",
          "type": "address"
        },
        {
          "internalType": "uint256",
          "name": "",
          "type": "uint256"
        }
      ],
      "name": "accountBalanceIds",
      "outputs": [
        {
          "internalType": "uint256",
          "name": "",
          "type": "uint256"
        }
      ],
      "stateMutability": "view",
      "type": "function"
    },
    {
      "inputs": [
        {
          "internalType": "address",
          "name": "",
          "type": "address"
        },
        {
          "internalType": "uint256",
          "name": "",
          "type": "uint256"
        }
      ],
      "name": "accountBalanceSnapshots",
      "outputs": [
        {
          "internalType": "uint256",
          "name": "balance",
          "type": "uint256"
        },
        {
          "internalType": "uint256",
          "name": "refactoredCount",
          "type": "uint256"
        }
      ],
      "stateMutability": "view",
      "type": "function"
    },
    {
      "inputs": [
        {
          "internalType": "uint256",
          "name": "",
          "type": "uint256"
        }
      ],
      "name": "factorSnapshotIds",
      "outputs": [
        {
          "internalType": "uint256",
          "name": "",
          "type": "uint256"
        }
      ],
      "stateMutability": "view",
      "type": "function"
    },
    {
      "inputs": [
        {
          "internalType": "uint256",
          "name": "",
          "type": "uint256"
        }
      ],
      "name": "factorSnapshots",
      "outputs": [
        {
          "internalType": "uint256",
          "name": "factor",
          "type": "uint256"
        },
        {
          "internalType": "uint256",
          "name": "refactorCount",
          "type": "uint256"
        }
      ],
      "stateMutability": "view",
      "type": "function"
    },
    {
      "inputs": [],
      "name": "lastSnapshotId",
      "outputs": [
        {
          "internalType": "uint256",
          "name": "",
          "type": "uint256"
        }
      ],
      "stateMutability": "view",
      "type": "function"
    },
    {
      "inputs": [],
      "name": "name",
      "outputs": [
        {
          "internalType": "string",
          "name": "",
          "type": "string"
        }
      ],
      "stateMutability": "view",
      "type": "function"
    },
    {
      "inputs": [],
      "name": "seigManager",
      "outputs": [
        {
          "internalType": "address",
          "name": "",
          "type": "address"
        }
      ],
      "stateMutability": "view",
      "type": "function"
    },
    {
      "inputs": [],
      "name": "symbol",
      "outputs": [
        {
          "internalType": "string",
          "name": "",
          "type": "string"
        }
      ],
      "stateMutability": "view",
      "type": "function"
    },
    {
      "inputs": [
        {
          "internalType": "uint256",
          "name": "",
          "type": "uint256"
        }
      ],
      "name": "totalSupplySnapshotIds",
      "outputs": [
        {
          "internalType": "uint256",
          "name": "",
          "type": "uint256"
        }
      ],
      "stateMutability": "view",
      "type": "function"
    },
    {
      "inputs": [
        {
          "internalType": "uint256",
          "name": "",
          "type": "uint256"
        }
      ],
      "name": "totalSupplySnapshots",
      "outputs": [
        {
          "internalType": "uint256",
          "name": "balance",
          "type": "uint256"
        },
        {
          "internalType": "uint256",
          "name": "refactoredCount",
          "type": "uint256"
        }
      ],
      "stateMutability": "view",
      "type": "function"
    }
  ],
  "bytecode": "0x608060405234801561001057600080fd5b5061047f806100206000396000f3fe608060405234801561001057600080fd5b50600436106100de5760003560e01c8063614db8b21161008c578063837afbc011610066578063837afbc01461021057806395d89b4114610219578063b7c246d714610221578063b7d78b1a1461023457600080fd5b8063614db8b2146101bf57806369f499b1146101d25780636fb7f558146101e557600080fd5b806306fdde03116100bd57806306fdde031461017057806356fabf68146101855780635deaecec1461019857600080fd5b8062d87a9c146100e3578063024c2ddd146100fe5780630461fdc514610129575b600080fd5b6100eb600281565b6040519081526020015b60405180910390f35b6100eb61010c366004610374565b600360209081526000928352604080842090915290825290205481565b61015b6101373660046103a7565b60096020908152600092835260408084209091529082529020805460019091015482565b604080519283526020830191909152016100f5565b61017861025b565b6040516100f591906103d1565b6100eb61019336600461041f565b6102e9565b61015b6101a636600461041f565b6007602052600090815260409020805460019091015482565b6100eb6101cd36600461041f565b61030a565b6100eb6101e03660046103a7565b61031a565b6000546101f8906001600160a01b031681565b6040516001600160a01b0390911681526020016100f5565b6100eb600a5481565b61017861034b565b6100eb6b204fce5e3e2502611000000081565b61015b61024236600461041f565b6005602052600090815260409020805460019091015482565b6001805461026890610438565b80601f016020809104026020016040519081016040528092919081815260200182805461029490610438565b80156102e15780601f106102b6576101008083540402835291602001916102e1565b820191906000526020600020905b8154815290600101906020018083116102c457829003601f168201915b505050505081565b600681815481106102f957600080fd5b600091825260209091200154905081565b600481815481106102f957600080fd5b6008602052816000526040600020818154811061033657600080fd5b90600052602060002001600091509150505481565b6002805461026890610438565b80356001600160a01b038116811461036f57600080fd5b919050565b6000806040838503121561038757600080fd5b61039083610358565b915061039e60208401610358565b90509250929050565b600080604083850312156103ba57600080fd5b6103c383610358565b946020939093013593505050565b600060208083528351808285015260005b818110156103fe578581018301518582016040015282016103e2565b506000604082860101526040601f19601f8301168501019250505092915050565b60006020828403121561043157600080fd5b5035919050565b600181811c9082168061044c57607f821691505b60208210810361046c57634e487b7160e01b600052602260045260246000fd5b5091905056fea164736f6c6343000813000a",
  "linkReferences": {},
  "deployedLinkReferences": {}
}