{
  "_format": "hh-sol-artifact-1",
  "contractName": "LegacySystemConfig",
  "sourceName": "contracts/layer2/LegacySystemConfig.sol",
  "abi": [
    {
      "inputs": [],
      "stateMutability": "nonpayable",
      "type": "constructor"
    },
    {
      "anonymous": false,
      "inputs": [
        {
          "indexed": true,
          "internalType": "address",
          "name": "previousOwner",
          "type": "address"
        },
        {
          "indexed": true,
          "internalType": "address",
          "name": "newOwner",
          "type": "address"
        }
      ],
      "name": "OwnershipTransferred",
      "type": "event"
    },
    {
      "inputs": [],
      "name": "addresses",
      "outputs": [
        {
          "internalType": "address",
          "name": "l1CrossDomainMessenger",
          "type": "address"
        },
        {
          "internalType": "address",
          "name": "l1ERC721Bridge",
          "type": "address"
        },
        {
          "internalType": "address",
          "name": "l1StandardBridge",
          "type": "address"
        },
        {
          "internalType": "address",
          "name": "l2OutputOracle",
          "type": "address"
        },
        {
          "internalType": "address",
          "name": "optimismPortal",
          "type": "address"
        },
        {
          "internalType": "address",
          "name": "optimismMintableERC20Factory",
          "type": "address"
        }
      ],
      "stateMutability": "view",
      "type": "function"
    },
    {
      "inputs": [],
      "name": "gasLimit",
      "outputs": [
        {
          "internalType": "uint64",
          "name": "",
          "type": "uint64"
        }
      ],
      "stateMutability": "view",
      "type": "function"
    },
    {
      "inputs": [],
      "name": "l1CrossDomainMessenger",
      "outputs": [
        {
          "internalType": "address",
          "name": "addr_",
          "type": "address"
        }
      ],
      "stateMutability": "view",
      "type": "function"
    },
    {
      "inputs": [],
      "name": "l1ERC721Bridge",
      "outputs": [
        {
          "internalType": "address",
          "name": "addr_",
          "type": "address"
        }
      ],
      "stateMutability": "view",
      "type": "function"
    },
    {
      "inputs": [],
      "name": "l1StandardBridge",
      "outputs": [
        {
          "internalType": "address",
          "name": "addr_",
          "type": "address"
        }
      ],
      "stateMutability": "view",
      "type": "function"
    },
    {
      "inputs": [],
      "name": "l2OutputOracle",
      "outputs": [
        {
          "internalType": "address",
          "name": "addr_",
          "type": "address"
        }
      ],
      "stateMutability": "view",
      "type": "function"
    },
    {
      "inputs": [],
      "name": "l2Registry",
      "outputs": [
        {
          "internalType": "address",
          "name": "",
          "type": "address"
        }
      ],
      "stateMutability": "view",
      "type": "function"
    },
    {
      "inputs": [],
      "name": "l2Ton",
      "outputs": [
        {
          "internalType": "address",
          "name": "",
          "type": "address"
        }
      ],
      "stateMutability": "view",
      "type": "function"
    },
    {
      "inputs": [],
      "name": "name",
      "outputs": [
        {
          "internalType": "string",
          "name": "",
          "type": "string"
        }
      ],
      "stateMutability": "view",
      "type": "function"
    },
    {
      "inputs": [],
      "name": "optimismMintableERC20Factory",
      "outputs": [
        {
          "internalType": "address",
          "name": "addr_",
          "type": "address"
        }
      ],
      "stateMutability": "view",
      "type": "function"
    },
    {
      "inputs": [],
      "name": "optimismPortal",
      "outputs": [
        {
          "internalType": "address",
          "name": "addr_",
          "type": "address"
        }
      ],
      "stateMutability": "view",
      "type": "function"
    },
    {
      "inputs": [],
      "name": "owner",
      "outputs": [
        {
          "internalType": "address",
          "name": "",
          "type": "address"
        }
      ],
      "stateMutability": "view",
      "type": "function"
    },
    {
      "inputs": [],
      "name": "renounceOwnership",
      "outputs": [],
      "stateMutability": "nonpayable",
      "type": "function"
    },
    {
      "inputs": [
        {
          "internalType": "string",
          "name": "_name",
          "type": "string"
        },
        {
          "components": [
            {
              "internalType": "address",
              "name": "l1CrossDomainMessenger",
              "type": "address"
            },
            {
              "internalType": "address",
              "name": "l1ERC721Bridge",
              "type": "address"
            },
            {
              "internalType": "address",
              "name": "l1StandardBridge",
              "type": "address"
            },
            {
              "internalType": "address",
              "name": "l2OutputOracle",
              "type": "address"
            },
            {
              "internalType": "address",
              "name": "optimismPortal",
              "type": "address"
            },
            {
              "internalType": "address",
              "name": "optimismMintableERC20Factory",
              "type": "address"
            }
          ],
          "internalType": "struct LegacySystemConfig.Addresses",
          "name": "_addresses",
          "type": "tuple"
        },
        {
          "internalType": "address",
          "name": "_l2Ton",
          "type": "address"
        },
        {
          "internalType": "address",
          "name": "_l2Registry",
          "type": "address"
        }
      ],
      "name": "setAddresses",
      "outputs": [],
      "stateMutability": "nonpayable",
      "type": "function"
    },
    {
      "inputs": [
        {
          "internalType": "uint64",
          "name": "_gasLimit",
          "type": "uint64"
        }
      ],
      "name": "setGasLimit",
      "outputs": [],
      "stateMutability": "nonpayable",
      "type": "function"
    },
    {
      "inputs": [
        {
          "internalType": "address",
          "name": "newOwner",
          "type": "address"
        }
      ],
      "name": "transferOwnership",
      "outputs": [],
      "stateMutability": "nonpayable",
      "type": "function"
    }
  ],
  "bytecode": "0x6080806040523461005b5760008054336001600160a01b0319821681178355916001600160a01b03909116907f8be0079c531659141344cd1fd0a4f28419497f9722a3daafe3b4186f6b6457e09080a361099190816100618239f35b600080fdfe6080604090808252600436101561001557600080fd5b60003560e01c90816306fdde03146107af57508063078f29cf146107865780630a49cb031461075d5780634d9f1559146107345780635411f6e0146103d6578063715018a61461037d5780638da5cb5b146103545780639b7d7f0a1461032b578063a711986914610302578063b40a817c146102a8578063bce5c11f1461027f578063c2e5dcc914610256578063c4e8ddfa1461022d578063da0321cd146101cd578063f2fde38b146101015763f68016b7146100d157600080fd5b346100fc5760003660031901126100fc5760209067ffffffffffffffff60075460a01c169051908152f35b600080fd5b50346100fc5760203660031901126100fc576001600160a01b0360043581811692908390036100fc5761013261090c565b821561017b5750600054826bffffffffffffffffffffffff60a01b821617600055167f8be0079c531659141344cd1fd0a4f28419497f9722a3daafe3b4186f6b6457e0600080a3005b5162461bcd60e51b815260206004820152602660248201527f4f776e61626c653a206e6577206f776e657220697320746865207a65726f206160448201526564647265737360d01b6064820152608490fd5b50346100fc5760003660031901126100fc5760015460025460035460045460055460065486516001600160a01b039687168152948616602086015292851695840195909552831660608301529282166080820152911660a082015260c090f35b50346100fc5760003660031901126100fc5760025490516001600160a01b039091168152602090f35b50346100fc5760003660031901126100fc5760095490516001600160a01b039091168152602090f35b50346100fc5760003660031901126100fc5760075490516001600160a01b039091168152602090f35b346100fc5760203660031901126100fc5760043567ffffffffffffffff811681036100fc576102d561090c565b6007805467ffffffffffffffff60a01b191660a09290921b67ffffffffffffffff60a01b16919091179055005b50346100fc5760003660031901126100fc5760015490516001600160a01b039091168152602090f35b50346100fc5760003660031901126100fc5760065490516001600160a01b039091168152602090f35b50346100fc5760003660031901126100fc5760005490516001600160a01b039091168152602090f35b346100fc5760003660031901126100fc5761039661090c565b600080546001600160a01b0319811682556001600160a01b03167f8be0079c531659141344cd1fd0a4f28419497f9722a3daafe3b4186f6b6457e08280a3005b50346100fc576101203660031901126100fc5760043567ffffffffffffffff8082116100fc57366023830112156100fc57816004013581811161071e5783519261042a601f8301601f1916602001856108ea565b81845236602483830101116100fc5781600092602460209301838701378401015260c03660231901126100fc57825160c081018181108382111761071e5784526024356001600160a01b03811681036100fc5781526044356001600160a01b03811681036100fc5760208201526064356001600160a01b03811681036100fc57818501526084356001600160a01b03811681036100fc57606082015260a4356001600160a01b03811681036100fc57608082015260c4356001600160a01b03811681036100fc5760a082015260e435916001600160a01b03831683036100fc5761010435936001600160a01b03851685036100fc5761052761090c565b805191821161071e57819061053d6008546108b0565b601f81116106aa575b50602090601f83116001146106365760009261062b575b50508160011b916000199060031b1c1916176008555b60018060a01b03815116936bffffffffffffffffffffffff60a01b9485600154161760015560018060a01b0360208301511685600254161760025560018060a01b03908201511684600354161760035560018060a01b0360608201511684600454161760045560018060a01b0360808201511684600554161760055560a0600180821b039101511683600654161760065560018060a01b031682600754161760075560018060a01b0316906009541617600955600080f35b01519050388061055d565b600860009081526000805160206109658339815191529350601f198516905b8181106106925750908460019594939210610679575b505050811b01600855610573565b015160001960f88460031b161c1916905538808061066b565b92936020600181928786015181550195019301610655565b9091506008600052601f830160051c6000805160206109658339815191520160208410610709575b908392915b601f820160051c6000805160206109658339815191520181106106fa5750610546565b600081558493506001016106d7565b506000805160206109658339815191526106d2565b634e487b7160e01b600052604160045260246000fd5b50346100fc5760003660031901126100fc5760045490516001600160a01b039091168152602090f35b50346100fc5760003660031901126100fc5760055490516001600160a01b039091168152602090f35b50346100fc5760003660031901126100fc5760035490516001600160a01b039091168152602090f35b82346100fc5760003660031901126100fc576008548260006107d0836108b0565b8083529260019081811690811561088e5750600114610841575b506107f7925003836108ea565b805180926020808352815191828285015260005b83811061082b575050600083830185015250601f01601f19168101030190f35b818101830151878201870152869450820161080b565b6008600090815291506000805160206109658339815191525b84831061087357506107f79350508101602001856107ea565b81935090816020925483858a0101520191019091859261085a565b9050602092506107f794915060ff191682840152151560051b820101856107ea565b90600182811c921680156108e0575b60208310146108ca57565b634e487b7160e01b600052602260045260246000fd5b91607f16916108bf565b90601f8019910116810190811067ffffffffffffffff82111761071e57604052565b6000546001600160a01b0316330361092057565b606460405162461bcd60e51b815260206004820152602060248201527f4f776e61626c653a2063616c6c6572206973206e6f7420746865206f776e65726044820152fdfef3f7a9fe364faab93b216da50a3214154f22a0a2b415b23a84c8169e8b636ee3a164736f6c6343000813000a",
  "linkReferences": {},
  "deployedLinkReferences": {}
}