{
  "_format": "hh-sol-artifact-1",
  "contractName": "LegacySystemConfig",
  "sourceName": "contracts/layer2/LegacySystemConfig.sol",
  "abi": [
    {
      "inputs": [],
      "stateMutability": "nonpayable",
      "type": "constructor"
    },
    {
      "anonymous": false,
      "inputs": [
        {
          "indexed": true,
          "internalType": "address",
          "name": "previousOwner",
          "type": "address"
        },
        {
          "indexed": true,
          "internalType": "address",
          "name": "newOwner",
          "type": "address"
        }
      ],
      "name": "OwnershipTransferred",
      "type": "event"
    },
    {
      "inputs": [],
      "name": "addresses",
      "outputs": [
        {
          "internalType": "address",
          "name": "l1CrossDomainMessenger",
          "type": "address"
        },
        {
          "internalType": "address",
          "name": "l1ERC721Bridge",
          "type": "address"
        },
        {
          "internalType": "address",
          "name": "l1StandardBridge",
          "type": "address"
        },
        {
          "internalType": "address",
          "name": "l2OutputOracle",
          "type": "address"
        },
        {
          "internalType": "address",
          "name": "optimismPortal",
          "type": "address"
        },
        {
          "internalType": "address",
          "name": "optimismMintableERC20Factory",
          "type": "address"
        }
      ],
      "stateMutability": "view",
      "type": "function"
    },
    {
      "inputs": [],
      "name": "l1BridgeRegistry",
      "outputs": [
        {
          "internalType": "address",
          "name": "",
          "type": "address"
        }
      ],
      "stateMutability": "view",
      "type": "function"
    },
    {
      "inputs": [],
      "name": "l1CrossDomainMessenger",
      "outputs": [
        {
          "internalType": "address",
          "name": "addr_",
          "type": "address"
        }
      ],
      "stateMutability": "view",
      "type": "function"
    },
    {
      "inputs": [],
      "name": "l1ERC721Bridge",
      "outputs": [
        {
          "internalType": "address",
          "name": "addr_",
          "type": "address"
        }
      ],
      "stateMutability": "view",
      "type": "function"
    },
    {
      "inputs": [],
      "name": "l1StandardBridge",
      "outputs": [
        {
          "internalType": "address",
          "name": "addr_",
          "type": "address"
        }
      ],
      "stateMutability": "view",
      "type": "function"
    },
    {
      "inputs": [],
      "name": "l2OutputOracle",
      "outputs": [
        {
          "internalType": "address",
          "name": "addr_",
          "type": "address"
        }
      ],
      "stateMutability": "view",
      "type": "function"
    },
    {
      "inputs": [],
      "name": "name",
      "outputs": [
        {
          "internalType": "string",
          "name": "",
          "type": "string"
        }
      ],
      "stateMutability": "view",
      "type": "function"
    },
    {
      "inputs": [],
      "name": "optimismMintableERC20Factory",
      "outputs": [
        {
          "internalType": "address",
          "name": "addr_",
          "type": "address"
        }
      ],
      "stateMutability": "view",
      "type": "function"
    },
    {
      "inputs": [],
      "name": "optimismPortal",
      "outputs": [
        {
          "internalType": "address",
          "name": "addr_",
          "type": "address"
        }
      ],
      "stateMutability": "view",
      "type": "function"
    },
    {
      "inputs": [],
      "name": "owner",
      "outputs": [
        {
          "internalType": "address",
          "name": "",
          "type": "address"
        }
      ],
      "stateMutability": "view",
      "type": "function"
    },
    {
      "inputs": [],
      "name": "proxyOwner",
      "outputs": [
        {
          "internalType": "address",
          "name": "",
          "type": "address"
        }
      ],
      "stateMutability": "view",
      "type": "function"
    },
    {
      "inputs": [],
      "name": "renounceOwnership",
      "outputs": [],
      "stateMutability": "nonpayable",
      "type": "function"
    },
    {
      "inputs": [
        {
          "internalType": "string",
          "name": "_name",
          "type": "string"
        },
        {
          "components": [
            {
              "internalType": "address",
              "name": "l1CrossDomainMessenger",
              "type": "address"
            },
            {
              "internalType": "address",
              "name": "l1ERC721Bridge",
              "type": "address"
            },
            {
              "internalType": "address",
              "name": "l1StandardBridge",
              "type": "address"
            },
            {
              "internalType": "address",
              "name": "l2OutputOracle",
              "type": "address"
            },
            {
              "internalType": "address",
              "name": "optimismPortal",
              "type": "address"
            },
            {
              "internalType": "address",
              "name": "optimismMintableERC20Factory",
              "type": "address"
            }
          ],
          "internalType": "struct LegacySystemConfigStorage.Addresses",
          "name": "_addresses",
          "type": "tuple"
        },
        {
          "internalType": "address",
          "name": "_l1BridgeRegistry",
          "type": "address"
        }
      ],
      "name": "setAddresses",
      "outputs": [],
      "stateMutability": "nonpayable",
      "type": "function"
    },
    {
      "inputs": [
        {
          "internalType": "address",
          "name": "newOwner",
          "type": "address"
        }
      ],
      "name": "transferOwnership",
      "outputs": [],
      "stateMutability": "nonpayable",
      "type": "function"
    }
  ],
  "bytecode": "0x6080806040523461005b5760008054336001600160a01b0319821681178355916001600160a01b03909116907f8be0079c531659141344cd1fd0a4f28419497f9722a3daafe3b4186f6b6457e09080a36108e190816100618239f35b600080fdfe608060408181526004908136101561001657600080fd5b600092833560e01c908163025313a2146107e55750806306fdde03146106d2578063078f29cf146106aa5780630a49cb03146106815780634d9f1559146106585780634ee13ca314610312578063715018a6146102b55780638da5cb5b1461028d5780639b7d7f0a14610264578063a71198691461023b578063c4e8ddfa14610212578063cf8f9110146101e5578063da0321cd1461018a5763f2fde38b146100be57600080fd5b34610186576020366003190112610186576001600160a01b03823581811693919290849003610182576100ef61087c565b831561013057505082546001600160a01b0319811683178455167f8be0079c531659141344cd1fd0a4f28419497f9722a3daafe3b4186f6b6457e08380a380f35b906020608492519162461bcd60e51b8352820152602660248201527f4f776e61626c653a206e6577206f776e657220697320746865207a65726f206160448201526564647265737360d01b6064820152fd5b8480fd5b8280fd5b50903461018657826003193601126101865760c0925060018060a01b038060025416928180600354169354168260055416918360065416936007541694815196875260208701528501526060840152608083015260a0820152f35b83823461020e578160031936011261020e5760095490516001600160a01b039091168152602090f35b5080fd5b83823461020e578160031936011261020e5760035490516001600160a01b039091168152602090f35b83823461020e578160031936011261020e5760025490516001600160a01b039091168152602090f35b83823461020e578160031936011261020e5760075490516001600160a01b039091168152602090f35b83823461020e578160031936011261020e57905490516001600160a01b039091168152602090f35b833461030f578060031936011261030f576102ce61087c565b80546001600160a01b03198116825581906001600160a01b03167f8be0079c531659141344cd1fd0a4f28419497f9722a3daafe3b4186f6b6457e08280a380f35b80fd5b5091903461020e5761010036600319011261020e5780359267ffffffffffffffff91828511610654573660238601121561065457848101359483861161064157825193602096601f199261036d8985601f8501160188610844565b818752366024838301011161063d5781889260248b9301838a01378701015260c036602319011261063957835160c08101818110838211176106265785526001600160a01b039360243585811681036106225782526044359585871687036106225789830196875260643590868216820361061e57830190815260843592868416840361061e576060810193845260a43594878616860361061a576080820195865260c4359688881688036106165760a0830197885260e4359a898c16809c036106125761043961087c565b80519283116105ff5761044d60085461080a565b601f811161059b575b508c809e8b9c9d9e9b9a9b508093601f861160011461050457505093838a989796948996948795948695926104f9575b50508160011b916000199060031b1c1916176008555b51169a6bffffffffffffffffffffffff60a01b9b8c600254161760025551168a6003541617600355511688825416179055511685600554161760055551168360065416176006555116816007541617600755600954161760095580f35b015190503880610486565b85949293919b9a999897969516600884527ff3f7a9fe364faab93b216da50a3214154f22a0a2b415b23a84c8169e8b636ee3935b81811061058157508a9b50938a999a9695929387959460019383889710610568575b505050811b0160085561049c565b015160001960f88460031b161c1916905538808061055a565b8383015185558e9b50600190940193928c01928c01610538565b8e9060088f527ff3f7a9fe364faab93b216da50a3214154f22a0a2b415b23a84c8169e8b636ee390601f860160051c82019286106105f5575b601f0160051c01905b8181106105ea5750610456565b8e81556001016105dd565b90915081906105d4565b634e487b7160e01b8d526041865260248dfd5b8c80fd5b8b80fd5b8a80fd5b8980fd5b8880fd5b634e487b7160e01b885260418552602488fd5b8580fd5b8780fd5b634e487b7160e01b855260418252602485fd5b8380fd5b83823461020e578160031936011261020e5760055490516001600160a01b039091168152602090f35b83823461020e578160031936011261020e5760065490516001600160a01b039091168152602090f35b5090346101865782600319360112610186575490516001600160a01b03909116815260209150f35b83823461020e578160031936011261020e57805160085481846106f48361080a565b808352926001908181169081156107c35750600114610766575b5061071e92509492940384610844565b815192839160208084528251928382860152825b84811061075057505050828201840152601f01601f19168101030190f35b8181018301518882018801528795508201610732565b600887528691507ff3f7a9fe364faab93b216da50a3214154f22a0a2b415b23a84c8169e8b636ee35b8483106107a8575061071e93505081016020018661070e565b8193509081602092548385890101520191019091849261078f565b90506020925061071e94915060ff191682840152151560051b8201018661070e565b84903461020e578160031936011261020e576001546001600160a01b03168152602090f35b90600182811c9216801561083a575b602083101461082457565b634e487b7160e01b600052602260045260246000fd5b91607f1691610819565b90601f8019910116810190811067ffffffffffffffff82111761086657604052565b634e487b7160e01b600052604160045260246000fd5b6000546001600160a01b0316330361089057565b606460405162461bcd60e51b815260206004820152602060248201527f4f776e61626c653a2063616c6c6572206973206e6f7420746865206f776e65726044820152fdfea164736f6c6343000813000a",
  "linkReferences": {},
  "deployedLinkReferences": {}
}