{
  "_format": "hh-sol-artifact-1",
  "contractName": "LegacySystemConfig",
  "sourceName": "contracts/layer2/LegacySystemConfig.sol",
  "abi": [
    {
      "inputs": [],
      "stateMutability": "nonpayable",
      "type": "constructor"
    },
    {
      "anonymous": false,
      "inputs": [
        {
          "indexed": true,
          "internalType": "address",
          "name": "previousOwner",
          "type": "address"
        },
        {
          "indexed": true,
          "internalType": "address",
          "name": "newOwner",
          "type": "address"
        }
      ],
      "name": "OwnershipTransferred",
      "type": "event"
    },
    {
      "inputs": [],
      "name": "addresses",
      "outputs": [
        {
          "internalType": "address",
          "name": "l1CrossDomainMessenger",
          "type": "address"
        },
        {
          "internalType": "address",
          "name": "l1ERC721Bridge",
          "type": "address"
        },
        {
          "internalType": "address",
          "name": "l1StandardBridge",
          "type": "address"
        },
        {
          "internalType": "address",
          "name": "l2OutputOracle",
          "type": "address"
        },
        {
          "internalType": "address",
          "name": "optimismPortal",
          "type": "address"
        },
        {
          "internalType": "address",
          "name": "optimismMintableERC20Factory",
          "type": "address"
        }
      ],
      "stateMutability": "view",
      "type": "function"
    },
    {
      "inputs": [],
      "name": "l1BridgeRegistry",
      "outputs": [
        {
          "internalType": "address",
          "name": "",
          "type": "address"
        }
      ],
      "stateMutability": "view",
      "type": "function"
    },
    {
      "inputs": [],
      "name": "l1CrossDomainMessenger",
      "outputs": [
        {
          "internalType": "address",
          "name": "addr_",
          "type": "address"
        }
      ],
      "stateMutability": "view",
      "type": "function"
    },
    {
      "inputs": [],
      "name": "l1ERC721Bridge",
      "outputs": [
        {
          "internalType": "address",
          "name": "addr_",
          "type": "address"
        }
      ],
      "stateMutability": "view",
      "type": "function"
    },
    {
      "inputs": [],
      "name": "l1StandardBridge",
      "outputs": [
        {
          "internalType": "address",
          "name": "addr_",
          "type": "address"
        }
      ],
      "stateMutability": "view",
      "type": "function"
    },
    {
      "inputs": [],
      "name": "l2OutputOracle",
      "outputs": [
        {
          "internalType": "address",
          "name": "addr_",
          "type": "address"
        }
      ],
      "stateMutability": "view",
      "type": "function"
    },
    {
      "inputs": [],
      "name": "name",
      "outputs": [
        {
          "internalType": "string",
          "name": "",
          "type": "string"
        }
      ],
      "stateMutability": "view",
      "type": "function"
    },
    {
      "inputs": [],
      "name": "optimismMintableERC20Factory",
      "outputs": [
        {
          "internalType": "address",
          "name": "addr_",
          "type": "address"
        }
      ],
      "stateMutability": "view",
      "type": "function"
    },
    {
      "inputs": [],
      "name": "optimismPortal",
      "outputs": [
        {
          "internalType": "address",
          "name": "addr_",
          "type": "address"
        }
      ],
      "stateMutability": "view",
      "type": "function"
    },
    {
      "inputs": [],
      "name": "owner",
      "outputs": [
        {
          "internalType": "address",
          "name": "",
          "type": "address"
        }
      ],
      "stateMutability": "view",
      "type": "function"
    },
    {
      "inputs": [],
      "name": "renounceOwnership",
      "outputs": [],
      "stateMutability": "nonpayable",
      "type": "function"
    },
    {
      "inputs": [
        {
          "internalType": "string",
          "name": "_name",
          "type": "string"
        },
        {
          "components": [
            {
              "internalType": "address",
              "name": "l1CrossDomainMessenger",
              "type": "address"
            },
            {
              "internalType": "address",
              "name": "l1ERC721Bridge",
              "type": "address"
            },
            {
              "internalType": "address",
              "name": "l1StandardBridge",
              "type": "address"
            },
            {
              "internalType": "address",
              "name": "l2OutputOracle",
              "type": "address"
            },
            {
              "internalType": "address",
              "name": "optimismPortal",
              "type": "address"
            },
            {
              "internalType": "address",
              "name": "optimismMintableERC20Factory",
              "type": "address"
            }
          ],
          "internalType": "struct LegacySystemConfig.Addresses",
          "name": "_addresses",
          "type": "tuple"
        },
        {
          "internalType": "address",
          "name": "_l1BridgeRegistry",
          "type": "address"
        }
      ],
      "name": "setAddresses",
      "outputs": [],
      "stateMutability": "nonpayable",
      "type": "function"
    },
    {
      "inputs": [
        {
          "internalType": "address",
          "name": "newOwner",
          "type": "address"
        }
      ],
      "name": "transferOwnership",
      "outputs": [],
      "stateMutability": "nonpayable",
      "type": "function"
    }
  ],
  "bytecode": "0x6080806040523461005b5760008054336001600160a01b0319821681178355916001600160a01b03909116907f8be0079c531659141344cd1fd0a4f28419497f9722a3daafe3b4186f6b6457e09080a36108ae90816100618239f35b600080fdfe608060408181526004908136101561001657600080fd5b600092833560e01c90816306fdde03146106c557508063078f29cf1461069c5780630a49cb03146106735780634d9f15591461064b5780634ee13ca31461030b578063715018a6146102ae5780638da5cb5b146102865780639b7d7f0a1461025d578063a711986914610234578063c4e8ddfa1461020b578063cf8f9110146101de578063da0321cd1461017f5763f2fde38b146100b357600080fd5b3461017b57602036600319011261017b576001600160a01b03823581811693919290849003610177576100e4610849565b831561012557505082546001600160a01b0319811683178455167f8be0079c531659141344cd1fd0a4f28419497f9722a3daafe3b4186f6b6457e08380a380f35b906020608492519162461bcd60e51b8352820152602660248201527f4f776e61626c653a206e6577206f776e657220697320746865207a65726f206160448201526564647265737360d01b6064820152fd5b8480fd5b8280fd5b50903461017b578260031936011261017b57600154600254600354925460055460065486516001600160a01b0395861681529385166020850152948416958301959095528216606082015292811660808401521660a082015260c09150f35b83823461020757816003193601126102075760085490516001600160a01b039091168152602090f35b5080fd5b83823461020757816003193601126102075760025490516001600160a01b039091168152602090f35b83823461020757816003193601126102075760015490516001600160a01b039091168152602090f35b83823461020757816003193601126102075760065490516001600160a01b039091168152602090f35b838234610207578160031936011261020757905490516001600160a01b039091168152602090f35b83346103085780600319360112610308576102c7610849565b80546001600160a01b03198116825581906001600160a01b03167f8be0079c531659141344cd1fd0a4f28419497f9722a3daafe3b4186f6b6457e08280a380f35b80fd5b50919034610207576101003660031901126102075780359267ffffffffffffffff91828511610647573660238601121561064757848101359483861161063457825193602096601f19926103668985601f8501160188610811565b81875236602483830101116106305781889260248b9301838a01378701015260c036602319011261062c5783519260c08401848110838211176106195785526001600160a01b0393602435858116810361061557815260443595858716870361061557898201968752606435908682168203610611578201908152608435918683168303610611576060810192835260a43594878616860361060d576080820195865260c4359688881688036106095760a0830197885260e4359a898c16809c0361060557610433610849565b80519283116105f2576104476007546107d7565b601f811161058e575b508c809e8b9c9d9e9b9a9b508093601f86116001146104fd57505093838a9796948896948795948695926104f2575b50508160011b916000199060031b1c1916176007555b51169a6bffffffffffffffffffffffff60a01b9b8c600154161760015551168a6002541617600255511688600354161760035551168682541617905551168360055416176005555116816006541617600655600854161760085580f35b01519050388061047f565b600783527fa66cc928b5edb82af9bd49922954155ab7b0942694bea4ce44661d9a8736c688949392908616915b828210610572575050848b9897959489979394889695879660019510610559575b505050811b01600755610495565b015160001960f88460031b161c1916905538808061054b565b8484015186558e9c50600190950194938401939081019061052a565b8e9060078f527fa66cc928b5edb82af9bd49922954155ab7b0942694bea4ce44661d9a8736c68890601f860160051c82019286106105e8575b601f0160051c01905b8181106105dd5750610450565b8e81556001016105d0565b90915081906105c7565b634e487b7160e01b8d526041875260248dfd5b8c80fd5b8b80fd5b8a80fd5b8980fd5b8880fd5b634e487b7160e01b885260418252602488fd5b8580fd5b8780fd5b634e487b7160e01b855260418252602485fd5b8380fd5b50903461017b578260031936011261017b575490516001600160a01b03909116815260209150f35b83823461020757816003193601126102075760055490516001600160a01b039091168152602090f35b83823461020757816003193601126102075760035490516001600160a01b039091168152602090f35b8285913461017b578260031936011261017b5760075481846106e6836107d7565b808352926001908181169081156107b55750600114610758575b5061071092509492940384610811565b815192839160208084528251928382860152825b84811061074257505050828201840152601f01601f19168101030190f35b8181018301518882018801528795508201610724565b600787528691507fa66cc928b5edb82af9bd49922954155ab7b0942694bea4ce44661d9a8736c6885b84831061079a5750610710935050810160200186610700565b81935090816020925483858901015201910190918492610781565b90506020925061071094915060ff191682840152151560051b82010186610700565b90600182811c92168015610807575b60208310146107f157565b634e487b7160e01b600052602260045260246000fd5b91607f16916107e6565b90601f8019910116810190811067ffffffffffffffff82111761083357604052565b634e487b7160e01b600052604160045260246000fd5b6000546001600160a01b0316330361085d57565b606460405162461bcd60e51b815260206004820152602060248201527f4f776e61626c653a2063616c6c6572206973206e6f7420746865206f776e65726044820152fdfea164736f6c6343000813000a",
  "linkReferences": {},
  "deployedLinkReferences": {}
}