{
  "_format": "hh-sol-artifact-1",
  "contractName": "LegacySystemConfig",
  "sourceName": "contracts/layer2/LegacySystemConfig.sol",
  "abi": [
    {
      "inputs": [],
      "stateMutability": "nonpayable",
      "type": "constructor"
    },
    {
      "anonymous": false,
      "inputs": [
        {
          "indexed": true,
          "internalType": "address",
          "name": "previousOwner",
          "type": "address"
        },
        {
          "indexed": true,
          "internalType": "address",
          "name": "newOwner",
          "type": "address"
        }
      ],
      "name": "OwnershipTransferred",
      "type": "event"
    },
    {
      "inputs": [],
      "name": "addresses",
      "outputs": [
        {
          "internalType": "address",
          "name": "l1CrossDomainMessenger",
          "type": "address"
        },
        {
          "internalType": "address",
          "name": "l1ERC721Bridge",
          "type": "address"
        },
        {
          "internalType": "address",
          "name": "l1StandardBridge",
          "type": "address"
        },
        {
          "internalType": "address",
          "name": "l2OutputOracle",
          "type": "address"
        },
        {
          "internalType": "address",
          "name": "optimismPortal",
          "type": "address"
        },
        {
          "internalType": "address",
          "name": "optimismMintableERC20Factory",
          "type": "address"
        }
      ],
      "stateMutability": "view",
      "type": "function"
    },
    {
      "inputs": [
        {
          "internalType": "uint256",
          "name": "amount",
          "type": "uint256"
        }
      ],
      "name": "decreaseTvl",
      "outputs": [],
      "stateMutability": "nonpayable",
      "type": "function"
    },
    {
      "inputs": [],
      "name": "gasLimit",
      "outputs": [
        {
          "internalType": "uint64",
          "name": "",
          "type": "uint64"
        }
      ],
      "stateMutability": "view",
      "type": "function"
    },
    {
      "inputs": [
        {
          "internalType": "uint256",
          "name": "amount",
          "type": "uint256"
        }
      ],
      "name": "increaseTvl",
      "outputs": [],
      "stateMutability": "nonpayable",
      "type": "function"
    },
    {
      "inputs": [],
      "name": "l1CrossDomainMessenger",
      "outputs": [
        {
          "internalType": "address",
          "name": "addr_",
          "type": "address"
        }
      ],
      "stateMutability": "view",
      "type": "function"
    },
    {
      "inputs": [],
      "name": "l1ERC721Bridge",
      "outputs": [
        {
          "internalType": "address",
          "name": "addr_",
          "type": "address"
        }
      ],
      "stateMutability": "view",
      "type": "function"
    },
    {
      "inputs": [],
      "name": "l1StandardBridge",
      "outputs": [
        {
          "internalType": "address",
          "name": "addr_",
          "type": "address"
        }
      ],
      "stateMutability": "view",
      "type": "function"
    },
    {
      "inputs": [],
      "name": "l2OutputOracle",
      "outputs": [
        {
          "internalType": "address",
          "name": "addr_",
          "type": "address"
        }
      ],
      "stateMutability": "view",
      "type": "function"
    },
    {
      "inputs": [],
      "name": "l2Registry",
      "outputs": [
        {
          "internalType": "address",
          "name": "",
          "type": "address"
        }
      ],
      "stateMutability": "view",
      "type": "function"
    },
    {
      "inputs": [],
      "name": "l2Ton",
      "outputs": [
        {
          "internalType": "address",
          "name": "",
          "type": "address"
        }
      ],
      "stateMutability": "view",
      "type": "function"
    },
    {
      "inputs": [],
      "name": "name",
      "outputs": [
        {
          "internalType": "string",
          "name": "",
          "type": "string"
        }
      ],
      "stateMutability": "view",
      "type": "function"
    },
    {
      "inputs": [],
      "name": "optimismMintableERC20Factory",
      "outputs": [
        {
          "internalType": "address",
          "name": "addr_",
          "type": "address"
        }
      ],
      "stateMutability": "view",
      "type": "function"
    },
    {
      "inputs": [],
      "name": "optimismPortal",
      "outputs": [
        {
          "internalType": "address",
          "name": "addr_",
          "type": "address"
        }
      ],
      "stateMutability": "view",
      "type": "function"
    },
    {
      "inputs": [],
      "name": "owner",
      "outputs": [
        {
          "internalType": "address",
          "name": "",
          "type": "address"
        }
      ],
      "stateMutability": "view",
      "type": "function"
    },
    {
      "inputs": [],
      "name": "renounceOwnership",
      "outputs": [],
      "stateMutability": "nonpayable",
      "type": "function"
    },
    {
      "inputs": [
        {
          "internalType": "string",
          "name": "_name",
          "type": "string"
        },
        {
          "components": [
            {
              "internalType": "address",
              "name": "l1CrossDomainMessenger",
              "type": "address"
            },
            {
              "internalType": "address",
              "name": "l1ERC721Bridge",
              "type": "address"
            },
            {
              "internalType": "address",
              "name": "l1StandardBridge",
              "type": "address"
            },
            {
              "internalType": "address",
              "name": "l2OutputOracle",
              "type": "address"
            },
            {
              "internalType": "address",
              "name": "optimismPortal",
              "type": "address"
            },
            {
              "internalType": "address",
              "name": "optimismMintableERC20Factory",
              "type": "address"
            }
          ],
          "internalType": "struct LegacySystemConfig.Addresses",
          "name": "_addresses",
          "type": "tuple"
        },
        {
          "internalType": "address",
          "name": "_l2Ton",
          "type": "address"
        },
        {
          "internalType": "address",
          "name": "_l2Registry",
          "type": "address"
        }
      ],
      "name": "setAddresses",
      "outputs": [],
      "stateMutability": "nonpayable",
      "type": "function"
    },
    {
      "inputs": [
        {
          "internalType": "uint64",
          "name": "_gasLimit",
          "type": "uint64"
        }
      ],
      "name": "setGasLimit",
      "outputs": [],
      "stateMutability": "nonpayable",
      "type": "function"
    },
    {
      "inputs": [
        {
          "internalType": "address",
          "name": "newOwner",
          "type": "address"
        }
      ],
      "name": "transferOwnership",
      "outputs": [],
      "stateMutability": "nonpayable",
      "type": "function"
    }
  ],
  "bytecode": "0x608060405234801561001057600080fd5b5061001a3361001f565b61006f565b600080546001600160a01b038381166001600160a01b0319831681178455604051919092169283917f8be0079c531659141344cd1fd0a4f28419497f9722a3daafe3b4186f6b6457e09190a35050565b610b8d8061007e6000396000f3fe608060405234801561001057600080fd5b50600436106101165760003560e01c8063a7119869116100a2578063c4e8ddfa11610071578063c4e8ddfa1461021c578063d8305d601461022d578063da0321cd14610240578063f2fde38b146102b4578063f68016b7146102c757600080fd5b8063a7119869146101d2578063b40a817c146101e3578063bce5c11f146101f6578063c2e5dcc91461020957600080fd5b80635411f6e0116100e95780635411f6e01461018057806366d88b1014610195578063715018a6146101a85780638da5cb5b146101b05780639b7d7f0a146101c157600080fd5b806306fdde031461011b578063078f29cf146101395780630a49cb031461015e5780634d9f15591461016f575b600080fd5b6101236102fb565b60405161013091906107b9565b60405180910390f35b6003546001600160a01b03165b6040516001600160a01b039091168152602001610130565b6005546001600160a01b0316610146565b6004546001600160a01b0316610146565b61019361018e36600461090c565b610389565b005b6101936101a33660046109d6565b610443565b610193610563565b6000546001600160a01b0316610146565b6006546001600160a01b0316610146565b6001546001600160a01b0316610146565b6101936101f13660046109ef565b610577565b600754610146906001600160a01b031681565b600954610146906001600160a01b031681565b6002546001600160a01b0316610146565b61019361023b3660046109d6565b6105ad565b600154600254600354600454600554600654610272956001600160a01b03908116958116948116938116928116911686565b604080516001600160a01b03978816815295871660208701529386169385019390935290841660608401528316608083015290911660a082015260c001610130565b6101936102c2366004610a20565b610696565b6007546102e290600160a01b900467ffffffffffffffff1681565b60405167ffffffffffffffff9091168152602001610130565b6008805461030890610a3b565b80601f016020809104026020016040519081016040528092919081815260200182805461033490610a3b565b80156103815780601f1061035657610100808354040283529160200191610381565b820191906000526020600020905b81548152906001019060200180831161036457829003601f168201915b505050505081565b61039161070f565b600861039d8582610ac0565b508251600180546001600160a01b03199081166001600160a01b0393841617909155602085015160028054831691841691909117905560408501516003805483169184169190911790556060850151600480548316918416919091179055608085015160058054831691841691909117905560a0909401516006805486169183169190911790556007805485169382169390931790925560098054909316911617905550565b6003546001600160a01b031633148061047557503361046a6000546001600160a01b031690565b6001600160a01b0316145b6104c65760405162461bcd60e51b815260206004820152601e60248201527f6e6f74206c315374616e64617264427269646765206e6f72206f776e6572000060448201526064015b60405180910390fd5b80806000036105005760405162461bcd60e51b81526004016104bd906020808252600490820152637a65726f60e01b604082015260600190565b60095460405163066d88b160e41b8152600481018490526001600160a01b03909116906366d88b10906024015b600060405180830381600087803b15801561054757600080fd5b505af115801561055b573d6000803e3d6000fd5b505050505050565b61056b61070f565b6105756000610769565b565b61057f61070f565b6007805467ffffffffffffffff909216600160a01b0267ffffffffffffffff60a01b19909216919091179055565b6003546001600160a01b03163314806105df5750336105d46000546001600160a01b031690565b6001600160a01b0316145b61062b5760405162461bcd60e51b815260206004820152601e60248201527f6e6f74206c315374616e64617264427269646765206e6f72206f776e6572000060448201526064016104bd565b80806000036106655760405162461bcd60e51b81526004016104bd906020808252600490820152637a65726f60e01b604082015260600190565b6009546040516306c182eb60e51b8152600481018490526001600160a01b039091169063d8305d609060240161052d565b61069e61070f565b6001600160a01b0381166107035760405162461bcd60e51b815260206004820152602660248201527f4f776e61626c653a206e6577206f776e657220697320746865207a65726f206160448201526564647265737360d01b60648201526084016104bd565b61070c81610769565b50565b6000546001600160a01b031633146105755760405162461bcd60e51b815260206004820181905260248201527f4f776e61626c653a2063616c6c6572206973206e6f7420746865206f776e657260448201526064016104bd565b600080546001600160a01b038381166001600160a01b0319831681178455604051919092169283917f8be0079c531659141344cd1fd0a4f28419497f9722a3daafe3b4186f6b6457e09190a35050565b600060208083528351808285015260005b818110156107e6578581018301518582016040015282016107ca565b506000604082860101526040601f19601f8301168501019250505092915050565b634e487b7160e01b600052604160045260246000fd5b604051601f8201601f1916810167ffffffffffffffff8111828210171561084657610846610807565b604052919050565b80356001600160a01b038116811461086557600080fd5b919050565b600060c0828403121561087c57600080fd5b60405160c0810181811067ffffffffffffffff8211171561089f5761089f610807565b6040529050806108ae8361084e565b81526108bc6020840161084e565b60208201526108cd6040840161084e565b60408201526108de6060840161084e565b60608201526108ef6080840161084e565b608082015261090060a0840161084e565b60a08201525092915050565b600080600080610120858703121561092357600080fd5b843567ffffffffffffffff8082111561093b57600080fd5b818701915087601f83011261094f57600080fd5b813560208282111561096357610963610807565b610975601f8301601f1916820161081d565b9250818352898183860101111561098b57600080fd5b818185018285013760008183850101528297506109aa8a828b0161086a565b9650505050506109bc60e0860161084e565b91506109cb610100860161084e565b905092959194509250565b6000602082840312156109e857600080fd5b5035919050565b600060208284031215610a0157600080fd5b813567ffffffffffffffff81168114610a1957600080fd5b9392505050565b600060208284031215610a3257600080fd5b610a198261084e565b600181811c90821680610a4f57607f821691505b602082108103610a6f57634e487b7160e01b600052602260045260246000fd5b50919050565b601f821115610abb57600081815260208120601f850160051c81016020861015610a9c5750805b601f850160051c820191505b8181101561055b57828155600101610aa8565b505050565b815167ffffffffffffffff811115610ada57610ada610807565b610aee81610ae88454610a3b565b84610a75565b602080601f831160018114610b235760008415610b0b5750858301515b600019600386901b1c1916600185901b17855561055b565b600085815260208120601f198616915b82811015610b5257888601518255948401946001909101908401610b33565b5085821015610b705787850151600019600388901b60f8161c191681555b5050505050600190811b0190555056fea164736f6c6343000813000a",
  "linkReferences": {},
  "deployedLinkReferences": {}
}