{
  "_format": "hh-sol-artifact-1",
  "contractName": "L1BridgeRegistryV1_1",
  "sourceName": "contracts/layer2/L1BridgeRegistryV1_1.sol",
  "abi": [
    {
      "inputs": [],
      "stateMutability": "nonpayable",
      "type": "constructor"
    },
    {
      "inputs": [],
      "name": "BridgeError",
      "type": "error"
    },
    {
      "inputs": [
        {
          "internalType": "uint256",
          "name": "x",
          "type": "uint256"
        }
      ],
      "name": "ChangeError",
      "type": "error"
    },
    {
      "inputs": [],
      "name": "NonRejectedError",
      "type": "error"
    },
    {
      "inputs": [],
      "name": "OnlyRejectedError",
      "type": "error"
    },
    {
      "inputs": [],
      "name": "PortalError",
      "type": "error"
    },
    {
      "inputs": [
        {
          "internalType": "uint256",
          "name": "x",
          "type": "uint256"
        }
      ],
      "name": "RegisterError",
      "type": "error"
    },
    {
      "inputs": [],
      "name": "ZeroAddressError",
      "type": "error"
    },
    {
      "anonymous": false,
      "inputs": [
        {
          "indexed": false,
          "internalType": "address",
          "name": "rollupConfig",
          "type": "address"
        },
        {
          "indexed": false,
          "internalType": "address",
          "name": "bridge",
          "type": "address"
        }
      ],
      "name": "AddedBridge",
      "type": "event"
    },
    {
      "anonymous": false,
      "inputs": [
        {
          "indexed": false,
          "internalType": "address",
          "name": "rollupConfig",
          "type": "address"
        },
        {
          "indexed": false,
          "internalType": "address",
          "name": "portal",
          "type": "address"
        }
      ],
      "name": "AddedPortal",
      "type": "event"
    },
    {
      "anonymous": false,
      "inputs": [
        {
          "indexed": false,
          "internalType": "address",
          "name": "rollupConfig",
          "type": "address"
        },
        {
          "indexed": false,
          "internalType": "uint8",
          "name": "type_",
          "type": "uint8"
        }
      ],
      "name": "ChangedType",
      "type": "event"
    },
    {
      "anonymous": false,
      "inputs": [
        {
          "indexed": false,
          "internalType": "address",
          "name": "rollupConfig",
          "type": "address"
        },
        {
          "indexed": false,
          "internalType": "uint8",
          "name": "type_",
          "type": "uint8"
        }
      ],
      "name": "RegisteredRollupConfig",
      "type": "event"
    },
    {
      "anonymous": false,
      "inputs": [
        {
          "indexed": false,
          "internalType": "address",
          "name": "rollupConfig",
          "type": "address"
        }
      ],
      "name": "RejectedCandidateAddOn",
      "type": "event"
    },
    {
      "anonymous": false,
      "inputs": [
        {
          "indexed": false,
          "internalType": "address",
          "name": "rollupConfig",
          "type": "address"
        }
      ],
      "name": "RestoredCandidateAddOn",
      "type": "event"
    },
    {
      "anonymous": false,
      "inputs": [
        {
          "indexed": true,
          "internalType": "bytes32",
          "name": "role",
          "type": "bytes32"
        },
        {
          "indexed": true,
          "internalType": "bytes32",
          "name": "previousAdminRole",
          "type": "bytes32"
        },
        {
          "indexed": true,
          "internalType": "bytes32",
          "name": "newAdminRole",
          "type": "bytes32"
        }
      ],
      "name": "RoleAdminChanged",
      "type": "event"
    },
    {
      "anonymous": false,
      "inputs": [
        {
          "indexed": true,
          "internalType": "bytes32",
          "name": "role",
          "type": "bytes32"
        },
        {
          "indexed": true,
          "internalType": "address",
          "name": "account",
          "type": "address"
        },
        {
          "indexed": true,
          "internalType": "address",
          "name": "sender",
          "type": "address"
        }
      ],
      "name": "RoleGranted",
      "type": "event"
    },
    {
      "anonymous": false,
      "inputs": [
        {
          "indexed": true,
          "internalType": "bytes32",
          "name": "role",
          "type": "bytes32"
        },
        {
          "indexed": true,
          "internalType": "address",
          "name": "account",
          "type": "address"
        },
        {
          "indexed": true,
          "internalType": "address",
          "name": "sender",
          "type": "address"
        }
      ],
      "name": "RoleRevoked",
      "type": "event"
    },
    {
      "anonymous": false,
      "inputs": [
        {
          "indexed": false,
          "internalType": "address",
          "name": "_layer2Manager",
          "type": "address"
        },
        {
          "indexed": false,
          "internalType": "address",
          "name": "_seigManager",
          "type": "address"
        },
        {
          "indexed": false,
          "internalType": "address",
          "name": "_ton",
          "type": "address"
        }
      ],
      "name": "SetAddresses",
      "type": "event"
    },
    {
      "anonymous": false,
      "inputs": [
        {
          "indexed": false,
          "internalType": "address",
          "name": "_seigniorageCommittee",
          "type": "address"
        }
      ],
      "name": "SetSeigniorageCommittee",
      "type": "event"
    },
    {
      "inputs": [],
      "name": "DEFAULT_ADMIN_ROLE",
      "outputs": [
        {
          "internalType": "bytes32",
          "name": "",
          "type": "bytes32"
        }
      ],
      "stateMutability": "view",
      "type": "function"
    },
    {
      "inputs": [],
      "name": "MANAGER_ROLE",
      "outputs": [
        {
          "internalType": "bytes32",
          "name": "",
          "type": "bytes32"
        }
      ],
      "stateMutability": "view",
      "type": "function"
    },
    {
      "inputs": [],
      "name": "REGISTRANT_ROLE",
      "outputs": [
        {
          "internalType": "bytes32",
          "name": "",
          "type": "bytes32"
        }
      ],
      "stateMutability": "view",
      "type": "function"
    },
    {
      "inputs": [
        {
          "internalType": "address",
          "name": "account",
          "type": "address"
        }
      ],
      "name": "addAdmin",
      "outputs": [],
      "stateMutability": "nonpayable",
      "type": "function"
    },
    {
      "inputs": [
        {
          "internalType": "address",
          "name": "account",
          "type": "address"
        }
      ],
      "name": "addManager",
      "outputs": [],
      "stateMutability": "nonpayable",
      "type": "function"
    },
    {
      "inputs": [
        {
          "internalType": "address",
          "name": "account",
          "type": "address"
        }
      ],
      "name": "addRegistrant",
      "outputs": [],
      "stateMutability": "nonpayable",
      "type": "function"
    },
    {
      "inputs": [
        {
          "internalType": "address",
          "name": "",
          "type": "address"
        }
      ],
      "name": "aliveImplementation",
      "outputs": [
        {
          "internalType": "bool",
          "name": "",
          "type": "bool"
        }
      ],
      "stateMutability": "view",
      "type": "function"
    },
    {
      "inputs": [
        {
          "internalType": "address",
          "name": "rollupConfig",
          "type": "address"
        },
        {
          "internalType": "uint8",
          "name": "_type",
          "type": "uint8"
        }
      ],
      "name": "availableForRegistration",
      "outputs": [
        {
          "internalType": "bool",
          "name": "valid",
          "type": "bool"
        }
      ],
      "stateMutability": "view",
      "type": "function"
    },
    {
      "inputs": [
        {
          "internalType": "address",
          "name": "rollupConfig",
          "type": "address"
        },
        {
          "internalType": "uint8",
          "name": "_type",
          "type": "uint8"
        }
      ],
      "name": "changeType",
      "outputs": [],
      "stateMutability": "nonpayable",
      "type": "function"
    },
    {
      "inputs": [
        {
          "internalType": "bytes32",
          "name": "role",
          "type": "bytes32"
        }
      ],
      "name": "getRoleAdmin",
      "outputs": [
        {
          "internalType": "bytes32",
          "name": "",
          "type": "bytes32"
        }
      ],
      "stateMutability": "view",
      "type": "function"
    },
    {
      "inputs": [
        {
          "internalType": "bytes32",
          "name": "role",
          "type": "bytes32"
        },
        {
          "internalType": "address",
          "name": "account",
          "type": "address"
        }
      ],
      "name": "grantRole",
      "outputs": [],
      "stateMutability": "nonpayable",
      "type": "function"
    },
    {
      "inputs": [
        {
          "internalType": "bytes32",
          "name": "role",
          "type": "bytes32"
        },
        {
          "internalType": "address",
          "name": "account",
          "type": "address"
        }
      ],
      "name": "hasRole",
      "outputs": [
        {
          "internalType": "bool",
          "name": "",
          "type": "bool"
        }
      ],
      "stateMutability": "view",
      "type": "function"
    },
    {
      "inputs": [
        {
          "internalType": "address",
          "name": "account",
          "type": "address"
        }
      ],
      "name": "isAdmin",
      "outputs": [
        {
          "internalType": "bool",
          "name": "",
          "type": "bool"
        }
      ],
      "stateMutability": "view",
      "type": "function"
    },
    {
      "inputs": [
        {
          "internalType": "address",
          "name": "account",
          "type": "address"
        }
      ],
      "name": "isManager",
      "outputs": [
        {
          "internalType": "bool",
          "name": "",
          "type": "bool"
        }
      ],
      "stateMutability": "view",
      "type": "function"
    },
    {
      "inputs": [],
      "name": "isOwner",
      "outputs": [
        {
          "internalType": "bool",
          "name": "",
          "type": "bool"
        }
      ],
      "stateMutability": "view",
      "type": "function"
    },
    {
      "inputs": [
        {
          "internalType": "address",
          "name": "account",
          "type": "address"
        }
      ],
      "name": "isRegistrant",
      "outputs": [
        {
          "internalType": "bool",
          "name": "",
          "type": "bool"
        }
      ],
      "stateMutability": "view",
      "type": "function"
    },
    {
      "inputs": [
        {
          "internalType": "address",
          "name": "",
          "type": "address"
        }
      ],
      "name": "l1Bridge",
      "outputs": [
        {
          "internalType": "bool",
          "name": "",
          "type": "bool"
        }
      ],
      "stateMutability": "view",
      "type": "function"
    },
    {
      "inputs": [
        {
          "internalType": "address",
          "name": "",
          "type": "address"
        }
      ],
      "name": "l2TON",
      "outputs": [
        {
          "internalType": "address",
          "name": "",
          "type": "address"
        }
      ],
      "stateMutability": "view",
      "type": "function"
    },
    {
      "inputs": [],
      "name": "layer2Manager",
      "outputs": [
        {
          "internalType": "address",
          "name": "",
          "type": "address"
        }
      ],
      "stateMutability": "view",
      "type": "function"
    },
    {
      "inputs": [
        {
          "internalType": "address",
          "name": "rollupConfig",
          "type": "address"
        }
      ],
      "name": "layer2TVL",
      "outputs": [
        {
          "internalType": "uint256",
          "name": "amount",
          "type": "uint256"
        }
      ],
      "stateMutability": "view",
      "type": "function"
    },
    {
      "inputs": [],
      "name": "pauseProxy",
      "outputs": [
        {
          "internalType": "bool",
          "name": "",
          "type": "bool"
        }
      ],
      "stateMutability": "view",
      "type": "function"
    },
    {
      "inputs": [
        {
          "internalType": "address",
          "name": "",
          "type": "address"
        }
      ],
      "name": "portal",
      "outputs": [
        {
          "internalType": "bool",
          "name": "",
          "type": "bool"
        }
      ],
      "stateMutability": "view",
      "type": "function"
    },
    {
      "inputs": [
        {
          "internalType": "uint256",
          "name": "",
          "type": "uint256"
        }
      ],
      "name": "proxyImplementation",
      "outputs": [
        {
          "internalType": "address",
          "name": "",
          "type": "address"
        }
      ],
      "stateMutability": "view",
      "type": "function"
    },
    {
      "inputs": [
        {
          "internalType": "address",
          "name": "rollupConfig",
          "type": "address"
        },
        {
          "internalType": "uint8",
          "name": "_type",
          "type": "uint8"
        },
        {
          "internalType": "address",
          "name": "_l2TON",
          "type": "address"
        }
      ],
      "name": "registerRollupConfig",
      "outputs": [],
      "stateMutability": "nonpayable",
      "type": "function"
    },
    {
      "inputs": [
        {
          "internalType": "address",
          "name": "rollupConfig",
          "type": "address"
        },
        {
          "internalType": "uint8",
          "name": "_type",
          "type": "uint8"
        },
        {
          "internalType": "address",
          "name": "_l2TON",
          "type": "address"
        }
      ],
      "name": "registerRollupConfigByManager",
      "outputs": [],
      "stateMutability": "nonpayable",
      "type": "function"
    },
    {
      "inputs": [
        {
          "internalType": "address",
          "name": "rollupConfig",
          "type": "address"
        }
      ],
      "name": "rejectCandidateAddOn",
      "outputs": [],
      "stateMutability": "nonpayable",
      "type": "function"
    },
    {
      "inputs": [
        {
          "internalType": "address",
          "name": "",
          "type": "address"
        }
      ],
      "name": "rejectRollupConfig",
      "outputs": [
        {
          "internalType": "bool",
          "name": "",
          "type": "bool"
        }
      ],
      "stateMutability": "view",
      "type": "function"
    },
    {
      "inputs": [
        {
          "internalType": "address",
          "name": "account",
          "type": "address"
        }
      ],
      "name": "removeAdmin",
      "outputs": [],
      "stateMutability": "nonpayable",
      "type": "function"
    },
    {
      "inputs": [
        {
          "internalType": "address",
          "name": "account",
          "type": "address"
        }
      ],
      "name": "removeManager",
      "outputs": [],
      "stateMutability": "nonpayable",
      "type": "function"
    },
    {
      "inputs": [
        {
          "internalType": "address",
          "name": "account",
          "type": "address"
        }
      ],
      "name": "removeRegistrant",
      "outputs": [],
      "stateMutability": "nonpayable",
      "type": "function"
    },
    {
      "inputs": [],
      "name": "renounceManager",
      "outputs": [],
      "stateMutability": "nonpayable",
      "type": "function"
    },
    {
      "inputs": [],
      "name": "renounceOwnership",
      "outputs": [],
      "stateMutability": "nonpayable",
      "type": "function"
    },
    {
      "inputs": [],
      "name": "renounceRegistrant",
      "outputs": [],
      "stateMutability": "nonpayable",
      "type": "function"
    },
    {
      "inputs": [
        {
          "internalType": "bytes32",
          "name": "role",
          "type": "bytes32"
        },
        {
          "internalType": "address",
          "name": "account",
          "type": "address"
        }
      ],
      "name": "renounceRole",
      "outputs": [],
      "stateMutability": "nonpayable",
      "type": "function"
    },
    {
      "inputs": [
        {
          "internalType": "address",
          "name": "rollupConfig",
          "type": "address"
        }
      ],
      "name": "restoreCandidateAddOn",
      "outputs": [],
      "stateMutability": "nonpayable",
      "type": "function"
    },
    {
      "inputs": [
        {
          "internalType": "address",
          "name": "account",
          "type": "address"
        }
      ],
      "name": "revokeManager",
      "outputs": [],
      "stateMutability": "nonpayable",
      "type": "function"
    },
    {
      "inputs": [
        {
          "internalType": "address",
          "name": "account",
          "type": "address"
        }
      ],
      "name": "revokeRegistrant",
      "outputs": [],
      "stateMutability": "nonpayable",
      "type": "function"
    },
    {
      "inputs": [
        {
          "internalType": "bytes32",
          "name": "role",
          "type": "bytes32"
        },
        {
          "internalType": "address",
          "name": "account",
          "type": "address"
        }
      ],
      "name": "revokeRole",
      "outputs": [],
      "stateMutability": "nonpayable",
      "type": "function"
    },
    {
      "inputs": [
        {
          "internalType": "address",
          "name": "",
          "type": "address"
        }
      ],
      "name": "rollupType",
      "outputs": [
        {
          "internalType": "uint8",
          "name": "",
          "type": "uint8"
        }
      ],
      "stateMutability": "view",
      "type": "function"
    },
    {
      "inputs": [],
      "name": "seigManager",
      "outputs": [
        {
          "internalType": "address",
          "name": "",
          "type": "address"
        }
      ],
      "stateMutability": "view",
      "type": "function"
    },
    {
      "inputs": [],
      "name": "seigniorageCommittee",
      "outputs": [
        {
          "internalType": "address",
          "name": "",
          "type": "address"
        }
      ],
      "stateMutability": "view",
      "type": "function"
    },
    {
      "inputs": [
        {
          "internalType": "bytes4",
          "name": "",
          "type": "bytes4"
        }
      ],
      "name": "selectorImplementation",
      "outputs": [
        {
          "internalType": "address",
          "name": "",
          "type": "address"
        }
      ],
      "stateMutability": "view",
      "type": "function"
    },
    {
      "inputs": [
        {
          "internalType": "address",
          "name": "_layer2Manager",
          "type": "address"
        },
        {
          "internalType": "address",
          "name": "_seigManager",
          "type": "address"
        },
        {
          "internalType": "address",
          "name": "_ton",
          "type": "address"
        }
      ],
      "name": "setAddresses",
      "outputs": [],
      "stateMutability": "nonpayable",
      "type": "function"
    },
    {
      "inputs": [
        {
          "internalType": "address",
          "name": "_seigniorageCommittee",
          "type": "address"
        }
      ],
      "name": "setSeigniorageCommittee",
      "outputs": [],
      "stateMutability": "nonpayable",
      "type": "function"
    },
    {
      "inputs": [
        {
          "internalType": "bytes4",
          "name": "interfaceId",
          "type": "bytes4"
        }
      ],
      "name": "supportsInterface",
      "outputs": [
        {
          "internalType": "bool",
          "name": "",
          "type": "bool"
        }
      ],
      "stateMutability": "view",
      "type": "function"
    },
    {
      "inputs": [],
      "name": "ton",
      "outputs": [
        {
          "internalType": "address",
          "name": "",
          "type": "address"
        }
      ],
      "stateMutability": "view",
      "type": "function"
    },
    {
      "inputs": [
        {
          "internalType": "address",
          "name": "newAdmin",
          "type": "address"
        }
      ],
      "name": "transferAdmin",
      "outputs": [],
      "stateMutability": "nonpayable",
      "type": "function"
    },
    {
      "inputs": [
        {
          "internalType": "address",
          "name": "newAdmin",
          "type": "address"
        }
      ],
      "name": "transferOwnership",
      "outputs": [],
      "stateMutability": "nonpayable",
      "type": "function"
    }
  ],
  "bytecode": "0x6080806040523461001657612381908161001c8239f35b600080fdfe608060408181526004918236101561001657600080fd5b600092833560e01c91826301ffc9a71461155257508163107c142d1461143857816316b5d5bd1461140f5781631785f53c146113705781631c564985146112eb578163248a9ca3146112c057816324d7806c1461127a5781632977c31f1461123c5781632d06177a146111895781632f02c3e01461112b5781632f2ff15d1461109057816335556fe31461107657816335583e6c1461104d578163363bf96414610f4f57816336568abe14610ebd578163377e32e614610974578163391e3b3714610e815781634b49264c14610d355781634b7aa5d414610cfa57816350d2a27614610cb6578163550d01a314610c7857816363a8fd8914610c565781636e91948d14610bf15781636f5b142b14610bc85781636fb7f55814610b9f5781637048027514610b5d578163715018a614610b4357816375829def14610b1a57816386ad05b614610ac55781638cfc934714610a765781638f32d59b14610a4157816391d14854146109fb578163a217fddf146109e0578163a2cc0979146109a2578163ac18de4314610974578163b30347c014610936578163b466283914610844578163b911135f14610811578163bbfcfc1e1461074b578163c81ae6db14610527578163c87957e7146104f0578163cc48b947146104c7578163d00491c614610472578163d547741f14610432578163ec87621c14610409578163f2fde38b1461030d57508063f3ae2415146102b95763f8b91abe1461023557600080fd5b346102b557816003193601126102b55760008051602061231583398151915290816000526005602052806000203360005260205260ff816000205416610279578280f35b816000526005602052806000203360005260205260002060ff19815416905533903390600080516020612355833981519152600080a438808280f35b5080fd5b50346102b55760203660031901126102b557602091816102d76115d6565b91600080516020612315833981519152815260058552209060018060a01b0316600052825260ff81600020541690519015158152f35b839150346102b55760203660031901126102b5576103296115d6565b9061033b61033633611628565b611c5b565b61034761033633611628565b6001600160a01b03821680156103c657331461038a5750610379600183948461037e9552600560205285200154611665565b611afd565b61038733611a20565b80f35b606490602085519162461bcd60e51b8352820152601660248201527520b1b1b2b9b9b4b136329d1039b0b6b29030b236b4b760511b6044820152fd5b845162461bcd60e51b8152602081840152601860248201527f41636365737369626c653a207a65726f206164647265737300000000000000006044820152606490fd5b5050346102b557816003193601126102b557602090516000805160206123158339815191528152f35b9190503461046e578060031936011261046e5761038791356104696001610457611602565b93838752600560205286200154611665565b611c03565b8280fd5b5050346102b55760203660031901126102b557610387906104c260016104966115d6565b926104a361033633611628565b6000805160206123358339815191528652600560205285200154611665565b611b7a565b5050346102b557816003193601126102b55760085490516001600160a01b039091168152602090f35b5050346102b557806003193601126102b55760209061051e6105106115d6565b610518611618565b90612165565b90519015158152f35b9190503461046e5760209283600319360112610748576105456115d6565b928193818660018060a01b038093168086526009825260ff8787205416600181146000146106675750865163078f29cf60e01b815292839182905afa90811561065d5791809188938691610630575b501690818552600a835260ff86862054166105b6575b50505050505b51908152f35b6024919293949596506008541693865194859384926370a0823160e01b84528301525afa91821561062557916105f3575b509038808481806105aa565b90508281813d831161061e575b61060a81836119fe565b810103126106195751386105e7565b600080fd5b503d610600565b8351903d90823e3d90fd5b6106509150843d8611610656575b61064881836119fe565b810190612146565b38610594565b503d61063e565b85513d86823e3d90fd5b60029193501461067c575b50505050506105b0565b8551630a49cb0360e01b8152918290859082905afa90811561065d579180918893869161072b575b501690818552600b835260ff86862054166106c1575b5081610672565b6024919293949596506008541693865194859384926370a0823160e01b84528301525afa91821561062557916106fe575b509038808481806106ba565b90508281813d8311610724575b61071581836119fe565b810103126106195751386106f2565b503d61070b565b6107429150843d86116106565761064881836119fe565b386106a4565b80fd5b5050346102b5576020908160031936011261046e576107686115d6565b9060008051602061231583398151915284526005835280842033600052835261079760ff826000205416611cb3565b600080516020612335833981519152928360005260058152816000209260018060a01b03169283600052815260ff826000205416156107d4578480f35b836000526005815281600020908360005252600020600160ff1982541617905533916000805160206122f5833981519152600080a4388080808480f35b90503461046e57602036600319011261046e5735825260016020908152918190205490516001600160a01b039091168152f35b9190503461046e57602036600319011261046e576108606115d6565b600d546001600160a01b039391849161087c9083163314611d80565b1692838552600c60205260ff83862054161561092757838552600c602052828520805460ff191690556006548592911690813b1561046e578460248492838751958694859363d523c07760e01b85528401525af1801561091d57610909575b507fbc89b42e2b372c8e9e1d48bb5dc897d26927cbe07da9bff7d167d0dbef68e9b36020848451908152a180f35b610912906119d4565b61046e5782386108db565b83513d84823e3d90fd5b5090516326c10e1560e01b8152fd5b5050346102b55760203660031901126102b55760209160ff9082906001600160a01b036109616115d6565b168152600a855220541690519015158152f35b8334610748576020366003190112610748576103876109916115d6565b61099d61033633611628565b611d0b565b5050346102b55760203660031901126102b55760209160ff9082906001600160a01b036109cd6115d6565b168152600b855220541690519015158152f35b5050346102b557816003193601126102b55751908152602090f35b90503461046e578160031936011261046e5781602093610a19611602565b9235815260058552209060018060a01b0316600052825260ff81600020541690519015158152f35b5050346102b557816003193601126102b55780828060209452600584522033600052825260ff81600020541690519015158152f35b5050346102b55760203660031901126102b557610387906104c260ff610a9a6115d6565b9260008051602061231583398151915286526005602052808620336000526020526000205416611cb3565b5050346102b55760203660031901126102b55760209181610ae46115d6565b91600080516020612335833981519152815260058552209060018060a01b0316600052825260ff81600020541690519015158152f35b839150346102b55760203660031901126102b557610b366115d6565b9061034761033633611628565b833461074857806003193601126107485761038733611a20565b5050346102b55760203660031901126102b557610387906103796001610b816115d6565b92610b8e61033633611628565b858052600560205285200154611665565b5050346102b557816003193601126102b55760075490516001600160a01b039091168152602090f35b5050346102b557816003193601126102b557602090516000805160206123358339815191528152f35b5050346102b55760603660031901126102b55761038790610c106115d6565b610c18611618565b90610c5160ff610c266115ec565b94600080516020612335833981519152885260056020528088203360005260205260002054166120ea565b611dbe565b5050346102b557816003193601126102b55760ff602092541690519015158152f35b5050346102b55760203660031901126102b55760209160ff9082906001600160a01b03610ca36115d6565b1681526002855220541690519015158152f35b90503461046e57602036600319011261046e573563ffffffff60e01b811680910361046e57825260036020908152918190205490516001600160a01b039091168152f35b5050346102b55760203660031901126102b5576020916001600160a01b0390829082610d246115d6565b168152600e85522054169051908152f35b839150346102b5576020908160031936011261046e57610d536115d6565b600d546001600160a01b0392918391610d6f9083163314611d80565b1691828552600c845260ff8686205416610e72578285526009845260ff868620541615610e3f57828552600c8452858520805460ff191660011790556006541690813b15610e3b578260248692838951958694859363196c4e6360e11b85528401525af1801561065d57610e0a575b507f0d294c5651970c5fab6bc6f2c023263af93bc2c381b1dc76215156cc95ea675d929351908152a180f35b92610e357f0d294c5651970c5fab6bc6f2c023263af93bc2c381b1dc76215156cc95ea675d946119d4565b92610dde565b8480fd5b855162461bcd60e51b8152808301859052600d60248201526c139bdb949959da5cdd195c9959609a1b6044820152606490fd5b5084516318cd26e360e11b8152fd5b5050346102b55760203660031901126102b55760209160ff9082906001600160a01b03610eac6115d6565b168152600985522054169051908152f35b839150346102b557826003193601126102b557610ed8611602565b90336001600160a01b03831603610ef457906103879135611c03565b608490602085519162461bcd60e51b8352820152602f60248201527f416363657373436f6e74726f6c3a2063616e206f6e6c792072656e6f756e636560448201526e103937b632b9903337b91039b2b63360891b6064820152fd5b9190503461046e57606036600319011261046e57610f6b6115d6565b90610f74611602565b91610f7d6115ec565b908580526005602052828620338752602052610f9e60ff8488205416611c5b565b6001600160a01b039081169485158015611043575b8015611039575b61102b57509160609391837fbbfb274df95bebde0669697bf0d15986b4ad73e11c495ae4e2d08d1bc5c90bad96946bffffffffffffffffffffffff60a01b9486866006541617600655169182856007541617600755168093600854161760085581519384526020840152820152a180f35b8351633efa09af60e01b8152fd5b5081831615610fba565b5081851615610fb3565b5050346102b557816003193601126102b557600d5490516001600160a01b039091168152602090f35b833461074857806003193601126107485761038733611b7a565b90503461046e578160031936011261046e5735906110ac611602565b9082845260056020526110c460018286200154611665565b828452600560209081528185206001600160a01b039093168086529290528084205460ff16156110f2578380f35b82845260056020528084208285526020528320600160ff1982541617905533916000805160206122f58339815191528480a43880808380f35b5050346102b55760603660031901126102b5576103879061114a6115d6565b611152611618565b90610c5160ff6111606115ec565b946000805160206123158339815191528852600560205280882033895260205287205416611cb3565b5050346102b5576020908160031936011261046e576111a66115d6565b906111b361033633611628565b60008051602061231583398151915292838552600581526111d960018387200154611665565b838552600581528185206001600160a01b039093168086529281528185205460ff1615611204578480f35b8385526005815281852083865290528320805460ff1916600117905533916000805160206122f58339815191528480a4388080808480f35b5050346102b55760203660031901126102b55760209160ff9082906001600160a01b036112676115d6565b168152600c855220541690519015158152f35b5050346102b55760203660031901126102b55760ff8160209361129b6115d6565b818052600586528282206001600160a01b039091168252855220549151911615158152f35b90503461046e57602036600319011261046e5781602093600192358152600585522001549051908152f35b5050346102b55760203660031901126102b55760207f1c7847585b331d5fb688c03d1dc8e73e13231744377f3b1e2f5c26e548c621c19161132a6115d6565b84805260058352818520338652835261134860ff8387205416611c5b565b600d80546001600160a01b0319166001600160a01b039290921691821790559051908152a180f35b5050346102b5576020908160031936011261046e5761138d6115d6565b9161139a61033633611628565b838052600581526113b060018386200154611665565b838052600581528184206001600160a01b039093168085529281528184205460ff166113da578380f35b8380526005815281842083855290528220805460ff191690553390826000805160206123558339815191528180a43880808380f35b5050346102b557816003193601126102b55760065490516001600160a01b039091168152602090f35b839150346102b557826003193601126102b5576114536115d6565b61145b611618565b916000805160206123358339815191528452600560205284842033855260205261148a60ff86862054166120ea565b6001600160a01b03821680855260096020528585205460ff161561153b57808552600960205260ff86862054169160ff85168093146115245750845260096020908152858520805460ff19169290921790915593516001600160a01b0391909116815260ff9190911692810192909252907faaca8c26723d15f66bf805bb082d6ed8661aa808aa167a822cb51bce9ccd73e290604090a180f35b6024906002885191636f915a8560e11b8352820152fd5b8551636f915a8560e11b8152600181840152602490fd5b849184346115d25760203660031901126115d25781359063ffffffff60e01b8216809203610e3b57602094637965db0b60e01b8314938415611599575b5050505015158152f35b6301ffc9a760e01b84149450919290919084156115be575b505050508380808061158f565b60ff945082528552205416838080806115b1565b8380fd5b600435906001600160a01b038216820361061957565b604435906001600160a01b038216820361061957565b602435906001600160a01b038216820361061957565b6024359060ff8216820361061957565b6001600160a01b031660009081527f05b8ccbb9d4d8fb16ea74ce3c29a41f1b461fbdaff4714a0d9a8eb05499746bc602052604090205460ff1690565b60009080825260209060058252604090818420338552835260ff82852054161561168f5750505050565b81519367ffffffffffffffff33606087018281118882101761199d578552602a87528587019385368637875115611989576030855387519160019283101561197557607860218a015360295b83811161190b57506118c957908551926080840190848210908211176118b5578652604283528683019360603686378351156118a1576030855383518210156118a15790607860218501536041915b818311611833575050506117f157926117bf60486117b097946117e3946044989785519a8b936117878b86019a7f416363657373436f6e74726f6c3a206163636f756e74200000000000000000008c5251809260378801906119b1565b8401917001034b99036b4b9b9b4b733903937b6329607d1b6037840152518093868401906119b1565b010360288101895201876119fe565b5194859362461bcd60e51b85526004850152518092816024860152858501906119b1565b601f01601f19168101030190fd5b60648585519062461bcd60e51b825280600483015260248201527f537472696e67733a20686578206c656e67746820696e73756666696369656e746044820152fd5b909192600f8116601081101561188d576f181899199a1a9b1b9c1cb0b131b232b360811b901a6118638587611c34565b5360041c9280156118795760001901919061172a565b634e487b7160e01b82526011600452602482fd5b634e487b7160e01b83526032600452602483fd5b634e487b7160e01b81526032600452602490fd5b634e487b7160e01b85526041600452602485fd5b60648787519062461bcd60e51b825280600483015260248201527f537472696e67733a20686578206c656e67746820696e73756666696369656e746044820152fd5b90600f81166010811015611961576f181899199a1a9b1b9c1cb0b131b232b360811b901a611939838c611c34565b5360041c90801561194d57600019016116db565b634e487b7160e01b86526011600452602486fd5b634e487b7160e01b87526032600452602487fd5b634e487b7160e01b85526032600452602485fd5b634e487b7160e01b84526032600452602484fd5b634e487b7160e01b84526041600452602484fd5b60005b8381106119c45750506000910152565b81810151838201526020016119b4565b67ffffffffffffffff81116119e857604052565b634e487b7160e01b600052604160045260246000fd5b90601f8019910116810190811067ffffffffffffffff8211176119e857604052565b6001600160a01b0316338103611aa05760008181527f05b8ccbb9d4d8fb16ea74ce3c29a41f1b461fbdaff4714a0d9a8eb05499746bc602052604081205490919060ff16611a6c575050565b8180526005602052604082208183526020526040822060ff19815416905533916000805160206123558339815191528180a4565b60405162461bcd60e51b815260206004820152602f60248201527f416363657373436f6e74726f6c3a2063616e206f6e6c792072656e6f756e636560448201526e103937b632b9903337b91039b2b63360891b6064820152608490fd5b6001600160a01b031660008181527f05b8ccbb9d4d8fb16ea74ce3c29a41f1b461fbdaff4714a0d9a8eb05499746bc602052604081205490919060ff1615611b43575050565b81805260056020526040822081835260205260408220600160ff1982541617905533916000805160206122f58339815191528180a4565b6001600160a01b031660008181527f495d3ec9f3ad8ec6f8443b0a39852d56b07f6b1efbf2c51564addb326b83978660205260408120549091906000805160206123358339815191529060ff16611bd057505050565b8083526005602052604083208284526020526040832060ff198154169055600080516020612355833981519152339380a4565b906000918083526005602052604083209160018060a01b03169182845260205260ff604084205416611bd057505050565b908151811015611c45570160200190565b634e487b7160e01b600052603260045260246000fd5b15611c6257565b60405162461bcd60e51b815260206004820152602360248201527f41757468436f6e74726f6c3a2043616c6c6572206973206e6f7420616e20616460448201526236b4b760e91b6064820152608490fd5b15611cba57565b60405162461bcd60e51b8152602060048201526024808201527f41757468436f6e74726f6c3a2043616c6c6572206973206e6f742061206d616e60448201526330b3b2b960e11b6064820152608490fd5b600080516020612315833981519152600081815260056020527f67f351182989509d05df317024ac600e03d0c404c1b07ecdc5d72ea1208a722b5490929190611d5390611665565b8083526005602052604083209160018060a01b03169182845260205260ff604084205416611bd057505050565b15611d8757565b60405162461bcd60e51b815260206004820152600f60248201526e2832b936b4b9b9b4b7b722b93937b960891b6044820152606490fd5b929060018060a01b03938481169460008681526020600c815260409660ff88842054166120d9578316156120c25760ff851692831580156120b8575b6120a0578883526009825260ff888420541661208857611e1a8686612165565b156120705788835260098252878320805460ff1990811686179091559360018103611f4e5750818899600496979899519687809263078f29cf60e01b82525afa948515611f44578395611f25575b5084168015611f14578252600a9052869020805491909116600117905584516001600160a01b03838116825291909116602082015292937f36da3e17ccf885cea72a4722586665318d2d7a7c6ac13203731c85a120a6284893611f0f91907f43251870f9292d3c0a61a78baa68c9f29d70ea868008a66d8afdb4d574f2c23190604090a15b516001600160a01b03909216825260ff90921660208201529081906040820190565b0390a1565b885163e0fec00360e01b8152600490fd5b611f3d919550823d84116106565761064881836119fe565b9338611e68565b89513d85823e3d90fd5b600290989596979814611f8d575b505050507f36da3e17ccf885cea72a4722586665318d2d7a7c6ac13203731c85a120a62848939450611f0f90611eed565b8185996004965196878092630a49cb0360e01b82525afa948515611f44578395612051575b5084168015612040578252600b9052869020805491909116600117905584516001600160a01b03838116825291909116602082015292937f36da3e17ccf885cea72a4722586665318d2d7a7c6ac13203731c85a120a6284893611f0f91907ff8bdba0336133f3634bf70846cd60e94e3b9dd7ce3a59c5831262cfdb636d00690604090a19085943880611f5c565b8851631477227360e01b8152600490fd5b612069919550823d84116106565761064881836119fe565b9338611fb2565b875163472ed10360e01b815260036004820152602490fd5b875163472ed10360e01b815260026004820152602490fd5b875163472ed10360e01b815260016004820152602490fd5b5060028411611dfa565b865163472ed10360e01b8152600480820152602490fd5b87516318cd26e360e11b8152600490fd5b156120f157565b60405162461bcd60e51b815260206004820152602760248201527f41757468436f6e74726f6c3a2043616c6c6572206973206e6f742061207265676044820152661a5cdd1c985b9d60ca1b6064820152608490fd5b9081602091031261061957516001600160a01b03811681036106195790565b919060009260009060018060a01b03809116918281526020600c815260ff936040938585852054161561219c575b50505050505050565b845163078f29cf60e01b81528381600481865afa9081156122ea5790829186916122cd575b501696876121d0575b50612193565b861660018103612226575050825260098152838383205416159485612210575b5050505050612207575b38808080808080806121ca565b600191506121fa565b8252600a905220541615905038808080806121f0565b6002919297501461223d575b5050505050506121fa565b8351630a49cb0360e01b815282816004818a5afa90811561065d5784916122b0575b50169485156122325782526009815283838320541615948561229a575b5050505050612291575b388080808080612232565b60019150612286565b8252600b9052205416159050388080808061227c565b6122c79150833d85116106565761064881836119fe565b3861225f565b6122e49150853d87116106565761064881836119fe565b386121c1565b86513d87823e3d90fdfe2f8788117e7eff1d82e926ec794901d17c78024a50270940304540a733656f0daf290d8680820aad922855f39b306097b20e28774d6c1ad35a20325630c3a02c12090aa55130d5a2442eb84fc286ca6e600db6c50b6c5d9b6d0d929f0e2d8ce8f6391f5c32d9c69d2a47ea670b442974b53935d1edc7fd64eb21e047a839171ba164736f6c6343000813000a",
  "linkReferences": {},
  "deployedLinkReferences": {}
}