{
  "_format": "hh-sol-artifact-1",
  "contractName": "L1BridgeRegistryV1_1",
  "sourceName": "contracts/layer2/L1BridgeRegistryV1_1.sol",
  "abi": [
    {
      "inputs": [],
      "stateMutability": "nonpayable",
      "type": "constructor"
    },
    {
      "inputs": [],
      "name": "BridgeError",
      "type": "error"
    },
    {
      "inputs": [
        {
          "internalType": "uint256",
          "name": "x",
          "type": "uint256"
        }
      ],
      "name": "ChangeError",
      "type": "error"
    },
    {
      "inputs": [],
      "name": "NonRejectedError",
      "type": "error"
    },
    {
      "inputs": [],
      "name": "OnlyRejectedError",
      "type": "error"
    },
    {
      "inputs": [],
      "name": "PortalError",
      "type": "error"
    },
    {
      "inputs": [
        {
          "internalType": "uint256",
          "name": "x",
          "type": "uint256"
        }
      ],
      "name": "RegisterError",
      "type": "error"
    },
    {
      "inputs": [],
      "name": "ZeroAddressError",
      "type": "error"
    },
    {
      "anonymous": false,
      "inputs": [
        {
          "indexed": false,
          "internalType": "address",
          "name": "rollupConfig",
          "type": "address"
        },
        {
          "indexed": false,
          "internalType": "address",
          "name": "bridge",
          "type": "address"
        }
      ],
      "name": "AddedBridge",
      "type": "event"
    },
    {
      "anonymous": false,
      "inputs": [
        {
          "indexed": false,
          "internalType": "address",
          "name": "rollupConfig",
          "type": "address"
        },
        {
          "indexed": false,
          "internalType": "address",
          "name": "portal",
          "type": "address"
        }
      ],
      "name": "AddedPortal",
      "type": "event"
    },
    {
      "anonymous": false,
      "inputs": [
        {
          "indexed": false,
          "internalType": "address",
          "name": "rollupConfig",
          "type": "address"
        },
        {
          "indexed": false,
          "internalType": "uint8",
          "name": "type_",
          "type": "uint8"
        },
        {
          "indexed": false,
          "internalType": "address",
          "name": "l2TON",
          "type": "address"
        },
        {
          "indexed": false,
          "internalType": "string",
          "name": "name",
          "type": "string"
        }
      ],
      "name": "ChangedType",
      "type": "event"
    },
    {
      "anonymous": false,
      "inputs": [
        {
          "indexed": false,
          "internalType": "address",
          "name": "rollupConfig",
          "type": "address"
        },
        {
          "indexed": false,
          "internalType": "uint8",
          "name": "type_",
          "type": "uint8"
        },
        {
          "indexed": false,
          "internalType": "address",
          "name": "l2TON",
          "type": "address"
        },
        {
          "indexed": false,
          "internalType": "string",
          "name": "name",
          "type": "string"
        }
      ],
      "name": "RegisteredRollupConfig",
      "type": "event"
    },
    {
      "anonymous": false,
      "inputs": [
        {
          "indexed": false,
          "internalType": "address",
          "name": "rollupConfig",
          "type": "address"
        }
      ],
      "name": "RejectedCandidateAddOn",
      "type": "event"
    },
    {
      "anonymous": false,
      "inputs": [
        {
          "indexed": false,
          "internalType": "address",
          "name": "rollupConfig",
          "type": "address"
        }
      ],
      "name": "RestoredCandidateAddOn",
      "type": "event"
    },
    {
      "anonymous": false,
      "inputs": [
        {
          "indexed": true,
          "internalType": "bytes32",
          "name": "role",
          "type": "bytes32"
        },
        {
          "indexed": true,
          "internalType": "bytes32",
          "name": "previousAdminRole",
          "type": "bytes32"
        },
        {
          "indexed": true,
          "internalType": "bytes32",
          "name": "newAdminRole",
          "type": "bytes32"
        }
      ],
      "name": "RoleAdminChanged",
      "type": "event"
    },
    {
      "anonymous": false,
      "inputs": [
        {
          "indexed": true,
          "internalType": "bytes32",
          "name": "role",
          "type": "bytes32"
        },
        {
          "indexed": true,
          "internalType": "address",
          "name": "account",
          "type": "address"
        },
        {
          "indexed": true,
          "internalType": "address",
          "name": "sender",
          "type": "address"
        }
      ],
      "name": "RoleGranted",
      "type": "event"
    },
    {
      "anonymous": false,
      "inputs": [
        {
          "indexed": true,
          "internalType": "bytes32",
          "name": "role",
          "type": "bytes32"
        },
        {
          "indexed": true,
          "internalType": "address",
          "name": "account",
          "type": "address"
        },
        {
          "indexed": true,
          "internalType": "address",
          "name": "sender",
          "type": "address"
        }
      ],
      "name": "RoleRevoked",
      "type": "event"
    },
    {
      "anonymous": false,
      "inputs": [
        {
          "indexed": false,
          "internalType": "address",
          "name": "_layer2Manager",
          "type": "address"
        },
        {
          "indexed": false,
          "internalType": "address",
          "name": "_seigManager",
          "type": "address"
        },
        {
          "indexed": false,
          "internalType": "address",
          "name": "_ton",
          "type": "address"
        }
      ],
      "name": "SetAddresses",
      "type": "event"
    },
    {
      "anonymous": false,
      "inputs": [
        {
          "indexed": false,
          "internalType": "address",
          "name": "rollupConfig",
          "type": "address"
        },
        {
          "indexed": false,
          "internalType": "bool",
          "name": "rejectedL2Deposit",
          "type": "bool"
        }
      ],
      "name": "SetBlockingL2Deposit",
      "type": "event"
    },
    {
      "anonymous": false,
      "inputs": [
        {
          "indexed": false,
          "internalType": "address",
          "name": "_seigniorageCommittee",
          "type": "address"
        }
      ],
      "name": "SetSeigniorageCommittee",
      "type": "event"
    },
    {
      "inputs": [],
      "name": "DEFAULT_ADMIN_ROLE",
      "outputs": [
        {
          "internalType": "bytes32",
          "name": "",
          "type": "bytes32"
        }
      ],
      "stateMutability": "view",
      "type": "function"
    },
    {
      "inputs": [],
      "name": "MANAGER_ROLE",
      "outputs": [
        {
          "internalType": "bytes32",
          "name": "",
          "type": "bytes32"
        }
      ],
      "stateMutability": "view",
      "type": "function"
    },
    {
      "inputs": [],
      "name": "REGISTRANT_ROLE",
      "outputs": [
        {
          "internalType": "bytes32",
          "name": "",
          "type": "bytes32"
        }
      ],
      "stateMutability": "view",
      "type": "function"
    },
    {
      "inputs": [
        {
          "internalType": "address",
          "name": "account",
          "type": "address"
        }
      ],
      "name": "addAdmin",
      "outputs": [],
      "stateMutability": "nonpayable",
      "type": "function"
    },
    {
      "inputs": [
        {
          "internalType": "address",
          "name": "account",
          "type": "address"
        }
      ],
      "name": "addManager",
      "outputs": [],
      "stateMutability": "nonpayable",
      "type": "function"
    },
    {
      "inputs": [
        {
          "internalType": "address",
          "name": "account",
          "type": "address"
        }
      ],
      "name": "addRegistrant",
      "outputs": [],
      "stateMutability": "nonpayable",
      "type": "function"
    },
    {
      "inputs": [
        {
          "internalType": "address",
          "name": "",
          "type": "address"
        }
      ],
      "name": "aliveImplementation",
      "outputs": [
        {
          "internalType": "bool",
          "name": "",
          "type": "bool"
        }
      ],
      "stateMutability": "view",
      "type": "function"
    },
    {
      "inputs": [
        {
          "internalType": "address",
          "name": "rollupConfig",
          "type": "address"
        },
        {
          "internalType": "uint8",
          "name": "_type",
          "type": "uint8"
        }
      ],
      "name": "availableForRegistration",
      "outputs": [
        {
          "internalType": "bool",
          "name": "valid",
          "type": "bool"
        }
      ],
      "stateMutability": "view",
      "type": "function"
    },
    {
      "inputs": [
        {
          "internalType": "address",
          "name": "rollupConfig",
          "type": "address"
        },
        {
          "internalType": "uint8",
          "name": "_type",
          "type": "uint8"
        },
        {
          "internalType": "address",
          "name": "_l2TON",
          "type": "address"
        },
        {
          "internalType": "string",
          "name": "_name",
          "type": "string"
        }
      ],
      "name": "changeType",
      "outputs": [],
      "stateMutability": "nonpayable",
      "type": "function"
    },
    {
      "inputs": [
        {
          "internalType": "bytes32",
          "name": "role",
          "type": "bytes32"
        }
      ],
      "name": "getRoleAdmin",
      "outputs": [
        {
          "internalType": "bytes32",
          "name": "",
          "type": "bytes32"
        }
      ],
      "stateMutability": "view",
      "type": "function"
    },
    {
      "inputs": [
        {
          "internalType": "address",
          "name": "rollupConfig",
          "type": "address"
        }
      ],
      "name": "getRollupInfo",
      "outputs": [
        {
          "internalType": "uint8",
          "name": "type_",
          "type": "uint8"
        },
        {
          "internalType": "address",
          "name": "l2TON_",
          "type": "address"
        },
        {
          "internalType": "bool",
          "name": "rejectedSeigs_",
          "type": "bool"
        },
        {
          "internalType": "bool",
          "name": "rejectedL2Deposit_",
          "type": "bool"
        },
        {
          "internalType": "string",
          "name": "name_",
          "type": "string"
        }
      ],
      "stateMutability": "view",
      "type": "function"
    },
    {
      "inputs": [
        {
          "internalType": "bytes32",
          "name": "role",
          "type": "bytes32"
        },
        {
          "internalType": "address",
          "name": "account",
          "type": "address"
        }
      ],
      "name": "grantRole",
      "outputs": [],
      "stateMutability": "nonpayable",
      "type": "function"
    },
    {
      "inputs": [
        {
          "internalType": "bytes32",
          "name": "role",
          "type": "bytes32"
        },
        {
          "internalType": "address",
          "name": "account",
          "type": "address"
        }
      ],
      "name": "hasRole",
      "outputs": [
        {
          "internalType": "bool",
          "name": "",
          "type": "bool"
        }
      ],
      "stateMutability": "view",
      "type": "function"
    },
    {
      "inputs": [
        {
          "internalType": "address",
          "name": "account",
          "type": "address"
        }
      ],
      "name": "isAdmin",
      "outputs": [
        {
          "internalType": "bool",
          "name": "",
          "type": "bool"
        }
      ],
      "stateMutability": "view",
      "type": "function"
    },
    {
      "inputs": [
        {
          "internalType": "address",
          "name": "account",
          "type": "address"
        }
      ],
      "name": "isManager",
      "outputs": [
        {
          "internalType": "bool",
          "name": "",
          "type": "bool"
        }
      ],
      "stateMutability": "view",
      "type": "function"
    },
    {
      "inputs": [],
      "name": "isOwner",
      "outputs": [
        {
          "internalType": "bool",
          "name": "",
          "type": "bool"
        }
      ],
      "stateMutability": "view",
      "type": "function"
    },
    {
      "inputs": [
        {
          "internalType": "address",
          "name": "account",
          "type": "address"
        }
      ],
      "name": "isRegistrant",
      "outputs": [
        {
          "internalType": "bool",
          "name": "",
          "type": "bool"
        }
      ],
      "stateMutability": "view",
      "type": "function"
    },
    {
      "inputs": [
        {
          "internalType": "address",
          "name": "rollupConfig",
          "type": "address"
        }
      ],
      "name": "isRejectedL2Deposit",
      "outputs": [
        {
          "internalType": "bool",
          "name": "rejectedL2Deposit",
          "type": "bool"
        }
      ],
      "stateMutability": "view",
      "type": "function"
    },
    {
      "inputs": [
        {
          "internalType": "address",
          "name": "rollupConfig",
          "type": "address"
        }
      ],
      "name": "isRejectedSeigs",
      "outputs": [
        {
          "internalType": "bool",
          "name": "rejectedSeigs",
          "type": "bool"
        }
      ],
      "stateMutability": "view",
      "type": "function"
    },
    {
      "inputs": [
        {
          "internalType": "address",
          "name": "",
          "type": "address"
        }
      ],
      "name": "l1Bridge",
      "outputs": [
        {
          "internalType": "bool",
          "name": "",
          "type": "bool"
        }
      ],
      "stateMutability": "view",
      "type": "function"
    },
    {
      "inputs": [
        {
          "internalType": "address",
          "name": "rollupConfig",
          "type": "address"
        }
      ],
      "name": "l2TON",
      "outputs": [
        {
          "internalType": "address",
          "name": "l2TonAddress",
          "type": "address"
        }
      ],
      "stateMutability": "view",
      "type": "function"
    },
    {
      "inputs": [],
      "name": "layer2Manager",
      "outputs": [
        {
          "internalType": "address",
          "name": "",
          "type": "address"
        }
      ],
      "stateMutability": "view",
      "type": "function"
    },
    {
      "inputs": [
        {
          "internalType": "address",
          "name": "rollupConfig",
          "type": "address"
        }
      ],
      "name": "layer2TVL",
      "outputs": [
        {
          "internalType": "uint256",
          "name": "amount",
          "type": "uint256"
        }
      ],
      "stateMutability": "view",
      "type": "function"
    },
    {
      "inputs": [],
      "name": "pauseProxy",
      "outputs": [
        {
          "internalType": "bool",
          "name": "",
          "type": "bool"
        }
      ],
      "stateMutability": "view",
      "type": "function"
    },
    {
      "inputs": [
        {
          "internalType": "address",
          "name": "",
          "type": "address"
        }
      ],
      "name": "portal",
      "outputs": [
        {
          "internalType": "bool",
          "name": "",
          "type": "bool"
        }
      ],
      "stateMutability": "view",
      "type": "function"
    },
    {
      "inputs": [
        {
          "internalType": "uint256",
          "name": "",
          "type": "uint256"
        }
      ],
      "name": "proxyImplementation",
      "outputs": [
        {
          "internalType": "address",
          "name": "",
          "type": "address"
        }
      ],
      "stateMutability": "view",
      "type": "function"
    },
    {
      "inputs": [
        {
          "internalType": "address",
          "name": "rollupConfig",
          "type": "address"
        },
        {
          "internalType": "uint8",
          "name": "_type",
          "type": "uint8"
        },
        {
          "internalType": "address",
          "name": "_l2TON",
          "type": "address"
        },
        {
          "internalType": "string",
          "name": "_name",
          "type": "string"
        }
      ],
      "name": "registerRollupConfig",
      "outputs": [],
      "stateMutability": "nonpayable",
      "type": "function"
    },
    {
      "inputs": [
        {
          "internalType": "address",
          "name": "rollupConfig",
          "type": "address"
        },
        {
          "internalType": "uint8",
          "name": "_type",
          "type": "uint8"
        },
        {
          "internalType": "address",
          "name": "_l2TON",
          "type": "address"
        }
      ],
      "name": "registerRollupConfig",
      "outputs": [],
      "stateMutability": "nonpayable",
      "type": "function"
    },
    {
      "inputs": [
        {
          "internalType": "address",
          "name": "rollupConfig",
          "type": "address"
        },
        {
          "internalType": "uint8",
          "name": "_type",
          "type": "uint8"
        },
        {
          "internalType": "address",
          "name": "_l2TON",
          "type": "address"
        }
      ],
      "name": "registerRollupConfigByManager",
      "outputs": [],
      "stateMutability": "nonpayable",
      "type": "function"
    },
    {
      "inputs": [
        {
          "internalType": "address",
          "name": "rollupConfig",
          "type": "address"
        },
        {
          "internalType": "uint8",
          "name": "_type",
          "type": "uint8"
        },
        {
          "internalType": "address",
          "name": "_l2TON",
          "type": "address"
        },
        {
          "internalType": "string",
          "name": "_name",
          "type": "string"
        }
      ],
      "name": "registerRollupConfigByManager",
      "outputs": [],
      "stateMutability": "nonpayable",
      "type": "function"
    },
    {
      "inputs": [
        {
          "internalType": "bytes32",
          "name": "",
          "type": "bytes32"
        }
      ],
      "name": "registeredNames",
      "outputs": [
        {
          "internalType": "bool",
          "name": "",
          "type": "bool"
        }
      ],
      "stateMutability": "view",
      "type": "function"
    },
    {
      "inputs": [
        {
          "internalType": "address",
          "name": "rollupConfig",
          "type": "address"
        }
      ],
      "name": "rejectCandidateAddOn",
      "outputs": [],
      "stateMutability": "nonpayable",
      "type": "function"
    },
    {
      "inputs": [
        {
          "internalType": "address",
          "name": "rollupConfig",
          "type": "address"
        }
      ],
      "name": "rejectRollupConfig",
      "outputs": [
        {
          "internalType": "bool",
          "name": "rejectedSeigs",
          "type": "bool"
        }
      ],
      "stateMutability": "view",
      "type": "function"
    },
    {
      "inputs": [
        {
          "internalType": "address",
          "name": "account",
          "type": "address"
        }
      ],
      "name": "removeAdmin",
      "outputs": [],
      "stateMutability": "nonpayable",
      "type": "function"
    },
    {
      "inputs": [
        {
          "internalType": "address",
          "name": "account",
          "type": "address"
        }
      ],
      "name": "removeManager",
      "outputs": [],
      "stateMutability": "nonpayable",
      "type": "function"
    },
    {
      "inputs": [
        {
          "internalType": "address",
          "name": "account",
          "type": "address"
        }
      ],
      "name": "removeRegistrant",
      "outputs": [],
      "stateMutability": "nonpayable",
      "type": "function"
    },
    {
      "inputs": [],
      "name": "renounceManager",
      "outputs": [],
      "stateMutability": "nonpayable",
      "type": "function"
    },
    {
      "inputs": [],
      "name": "renounceOwnership",
      "outputs": [],
      "stateMutability": "nonpayable",
      "type": "function"
    },
    {
      "inputs": [],
      "name": "renounceRegistrant",
      "outputs": [],
      "stateMutability": "nonpayable",
      "type": "function"
    },
    {
      "inputs": [
        {
          "internalType": "bytes32",
          "name": "role",
          "type": "bytes32"
        },
        {
          "internalType": "address",
          "name": "account",
          "type": "address"
        }
      ],
      "name": "renounceRole",
      "outputs": [],
      "stateMutability": "nonpayable",
      "type": "function"
    },
    {
      "inputs": [
        {
          "internalType": "address",
          "name": "rollupConfig",
          "type": "address"
        },
        {
          "internalType": "bool",
          "name": "rejectedL2Deposit",
          "type": "bool"
        }
      ],
      "name": "restoreCandidateAddOn",
      "outputs": [],
      "stateMutability": "nonpayable",
      "type": "function"
    },
    {
      "inputs": [
        {
          "internalType": "address",
          "name": "account",
          "type": "address"
        }
      ],
      "name": "revokeManager",
      "outputs": [],
      "stateMutability": "nonpayable",
      "type": "function"
    },
    {
      "inputs": [
        {
          "internalType": "address",
          "name": "account",
          "type": "address"
        }
      ],
      "name": "revokeRegistrant",
      "outputs": [],
      "stateMutability": "nonpayable",
      "type": "function"
    },
    {
      "inputs": [
        {
          "internalType": "bytes32",
          "name": "role",
          "type": "bytes32"
        },
        {
          "internalType": "address",
          "name": "account",
          "type": "address"
        }
      ],
      "name": "revokeRole",
      "outputs": [],
      "stateMutability": "nonpayable",
      "type": "function"
    },
    {
      "inputs": [
        {
          "internalType": "address",
          "name": "",
          "type": "address"
        }
      ],
      "name": "rollupInfo",
      "outputs": [
        {
          "internalType": "uint8",
          "name": "rollupType",
          "type": "uint8"
        },
        {
          "internalType": "address",
          "name": "l2TON",
          "type": "address"
        },
        {
          "internalType": "bool",
          "name": "rejectedSeigs",
          "type": "bool"
        },
        {
          "internalType": "bool",
          "name": "rejectedL2Deposit",
          "type": "bool"
        },
        {
          "internalType": "string",
          "name": "name",
          "type": "string"
        }
      ],
      "stateMutability": "view",
      "type": "function"
    },
    {
      "inputs": [
        {
          "internalType": "address",
          "name": "rollupConfig",
          "type": "address"
        }
      ],
      "name": "rollupType",
      "outputs": [
        {
          "internalType": "uint8",
          "name": "rollupType_",
          "type": "uint8"
        }
      ],
      "stateMutability": "view",
      "type": "function"
    },
    {
      "inputs": [],
      "name": "seigManager",
      "outputs": [
        {
          "internalType": "address",
          "name": "",
          "type": "address"
        }
      ],
      "stateMutability": "view",
      "type": "function"
    },
    {
      "inputs": [],
      "name": "seigniorageCommittee",
      "outputs": [
        {
          "internalType": "address",
          "name": "",
          "type": "address"
        }
      ],
      "stateMutability": "view",
      "type": "function"
    },
    {
      "inputs": [
        {
          "internalType": "bytes4",
          "name": "",
          "type": "bytes4"
        }
      ],
      "name": "selectorImplementation",
      "outputs": [
        {
          "internalType": "address",
          "name": "",
          "type": "address"
        }
      ],
      "stateMutability": "view",
      "type": "function"
    },
    {
      "inputs": [
        {
          "internalType": "address",
          "name": "_layer2Manager",
          "type": "address"
        },
        {
          "internalType": "address",
          "name": "_seigManager",
          "type": "address"
        },
        {
          "internalType": "address",
          "name": "_ton",
          "type": "address"
        }
      ],
      "name": "setAddresses",
      "outputs": [],
      "stateMutability": "nonpayable",
      "type": "function"
    },
    {
      "inputs": [
        {
          "internalType": "address",
          "name": "_seigniorageCommittee",
          "type": "address"
        }
      ],
      "name": "setSeigniorageCommittee",
      "outputs": [],
      "stateMutability": "nonpayable",
      "type": "function"
    },
    {
      "inputs": [
        {
          "internalType": "bytes4",
          "name": "interfaceId",
          "type": "bytes4"
        }
      ],
      "name": "supportsInterface",
      "outputs": [
        {
          "internalType": "bool",
          "name": "",
          "type": "bool"
        }
      ],
      "stateMutability": "view",
      "type": "function"
    },
    {
      "inputs": [],
      "name": "ton",
      "outputs": [
        {
          "internalType": "address",
          "name": "",
          "type": "address"
        }
      ],
      "stateMutability": "view",
      "type": "function"
    },
    {
      "inputs": [
        {
          "internalType": "address",
          "name": "newAdmin",
          "type": "address"
        }
      ],
      "name": "transferAdmin",
      "outputs": [],
      "stateMutability": "nonpayable",
      "type": "function"
    },
    {
      "inputs": [
        {
          "internalType": "address",
          "name": "newAdmin",
          "type": "address"
        }
      ],
      "name": "transferOwnership",
      "outputs": [],
      "stateMutability": "nonpayable",
      "type": "function"
    }
  ],
  "bytecode": "0x6080806040523461001657612ca6908161001c8239f35b600080fdfe6080806040526004908136101561001557600080fd5b600091823560e01c91826301ffc9a714611a795750816316b5d5bd14611a505781631785f53c146119af5781631c564985146119295781631d4c9c88146118e0578163248a9ca3146118b357816324d7806c1461186c57816325b9535f1461183d5781632977c31f14610b995781632d06177a146117895781632f02c3e01461172b5781632f2ff15d1461168f5781633163b4b51461163057816335556fe31461161657816335583e6c146115ed578163363bf964146114ec57816336568abe1461145b578163377e32e614610a3d578163391e3b371461141e5781634b49264c146112cf5781634b7aa5d4146112905781634fb1aee61461116b57816350d2a27614611127578163550d01a3146110e857816363a8fd89146110c65781636af685c114610d495781636e91948d14610ccb5781636f5b142b14610ca25781636fb7f55814610c795781637048027514610c38578163715018a614610c1e57816375829def14610bf657816386ad05b614610b9e57816388462d0714610b995781638cfc934714610b4a5781638f32d59b14610b1157816391d1485414610ac6578163a217fddf14610aaa578163a2cc097914610a6b578163ac18de4314610a3d578163b30347c0146109fe578163b911135f146109cb578163bbfcfc1e14610902578163c81ae6db146106db578163c87957e7146106a4578163cc48b9471461067b578163d00491c614610627578163d3c215d8146105c1578163d547741f14610583578163e65906e014610541578163ec87621c14610518578163f2fde38b1461041657508063f3ae2415146103be578063f5e9b26b1461031a5763f8b91abe1461028157600080fd5b346103175780600319360112610317573360009081527f67f351182989509d05df317024ac600e03d0c404c1b07ecdc5d72ea1208a722a6020526040902054600080516020612c3a8339815191529060ff166102db575080f35b806000526005602052604060002033600052602052604060002060ff19815416905533903390600080516020612c7a833981519152600080a480f35b80fd5b5034610317576020366003190112610317576001600160a01b039060409082610341611af4565b168152600a60205220906103ba60405161035a81611c67565b835460ff811682526020820193808260081c16855260ff61039960016040860198838660a81c1615158a5283606088019660b01c161515865201611cc1565b93846080820152511694511694511515905115159060405195869586611daf565b0390f35b50346103175760203660031901126103175760406103da611af4565b91600080516020612c3a83398151915281526005602052209060018060a01b0316600052602052602060ff604060002054166040519015158152f35b90503461051457602036600319011261051457610431611af4565b9061044361043e33611de9565b612397565b61044f61043e33611de9565b6001600160a01b03821680156104d057331461049357506104879082805260056020526104826001604085200154611e26565b612239565b6104903361215c565b80f35b60649060206040519162461bcd60e51b8352820152601660248201527520b1b1b2b9b9b4b136329d1039b0b6b29030b236b4b760511b6044820152fd5b60405162461bcd60e51b8152602081840152601860248201527f41636365737369626c653a207a65726f206164647265737300000000000000006044820152606490fd5b5080fd5b82346103175780600319360112610317576020604051600080516020612c3a8339815191528152f35b82346103175760203660031901126103175760209060ff906040906001600160a01b0361056c611af4565b168152600a8452205460b01c166040519015158152f35b9050346105145760403660031901126105145761049090356105a3611b20565b9080845260056020526105bc6001604086200154611e26565b61233f565b8234610317576020366003190112610317576001600160a01b0390604090826105e8611af4565b168152600a60205220906103ba610603600184549401611cc1565b60405193849360ff8260b01c169160ff808260a81c16928260081c16911686611daf565b823461031757602036600319011261031757610490610644611af4565b61065061043e33611de9565b600080516020612c5a833981519152835260056020526106766001604085200154611e26565b6122b6565b82346103175780600319360112610317576008546040516001600160a01b039091168152602090f35b82346103175760403660031901126103175760206106d16106c3611af4565b6106cb611b36565b90612a3f565b6040519015158152f35b9050346105145760209182600319360112610317576106f8611af4565b918192818560018060a01b03809316808652600a825260ff60408720541660018114600014610820575060405163078f29cf60e01b815292839182905afa90811561081557918091879386916107e8575b501690818552600b835260ff60408620541661076e575b50505050505b604051908152f35b6024919293949550600854169360405194859384926370a0823160e01b84528301525afa9182156107dc57916107aa575b503880838180610760565b90508181813d83116107d5575b6107c18183611c9f565b810103126107d057513861079f565b600080fd5b503d6107b7565b604051903d90823e3d90fd5b6108089150843d861161080e575b6108008183611c9f565b81019061259d565b38610749565b503d6107f6565b6040513d86823e3d90fd5b600291935014610835575b5050505050610766565b604051630a49cb0360e01b8152918290859082905afa90811561081557918091879386916108e5575b501690818552600c835260ff60408620541661087c575b508161082b565b6024919293949550600854169360405194859384926370a0823160e01b84528301525afa9182156107dc57916108b8575b503880838180610875565b90508181813d83116108de575b6108cf8183611c9f565b810103126107d05751386108ad565b503d6108c5565b6108fc9150843d861161080e576108008183611c9f565b3861085e565b8234610317576020806003193601126105145761091d611af4565b600080516020612c3a8339815191528352600582526040832033600052825261094d60ff604060002054166123ef565b600080516020612c5a83398151915291826000526005815260406000209160018060a01b03169182600052815260ff604060002054161561098c578380f35b826000526005815260406000209082600052526040600020600160ff198254161790553391600080516020612c1a833981519152600080a48180808380f35b905034610514576020366003190112610514579060209135815260018252604060018060a01b0391205416604051908152f35b82346103175760203660031901126103175760209060ff906040906001600160a01b03610a29611af4565b168152600b84522054166040519015158152f35b823461031757602036600319011261031757610490610a5a611af4565b610a6661043e33611de9565b612447565b82346103175760203660031901126103175760209060ff906040906001600160a01b03610a96611af4565b168152600c84522054166040519015158152f35b8234610317578060031936011261031757602090604051908152f35b823461031757604036600319011261031757604090610ae3611b20565b923581526005602052209060018060a01b0316600052602052602060ff604060002054166040519015158152f35b823461031757806003193601126103175780806040925260056020522033600052602052602060ff604060002054166040519015158152f35b823461031757602036600319011261031757610490610b67611af4565b600080516020612c3a83398151915283526005602052604083203360005260205261067660ff604060002054166123ef565b611bc1565b8234610317576020366003190112610317576040610bba611af4565b91600080516020612c5a83398151915281526005602052209060018060a01b0316600052602052602060ff604060002054166040519015158152f35b90503461051457602036600319011261051457610c11611af4565b9061044f61043e33611de9565b82346103175780600319360112610317576104903361215c565b823461031757602036600319011261031757610490610c55611af4565b610c6161043e33611de9565b82805260056020526104826001604085200154611e26565b82346103175780600319360112610317576007546040516001600160a01b039091168152602090f35b82346103175780600319360112610317576020604051600080516020612c5a8339815191528152f35b823461031757606036600319011261031757610490610ce8611af4565b610cf0611b36565b610cf8611b0a565b90600080516020612c5a833981519152855260056020526040852033600052602052610d2b60ff60406000205416612541565b610d34836125bc565b60405192610d4184611c83565b858452612609565b90503461051457610d5936611b46565b9094929391600080516020612c5a833981519152875260056020526040872033600052602052610d9060ff60406000205416612541565b6001600160a01b0383168752600a6020526040808820905190610df090600190610db984611c67565b60ff81548181168652838060a01b038160081c166020870152818160a81c161515604087015260b01c161515606085015201611cc1565b608082015260ff815116156110ae5760ff90511660ff861614611096576001600160a01b0381161561107e578115611066576001600160a01b0383168752600a60205260408720805490969060a81c60ff166110555760405163078f29cf60e01b81529160208387816001600160a01b0389165afa92831561104a578993611029575b50604051630a49cb0360e01b8152956020908790816001600160a01b0389165afa958987156107dc577f5260076e8db4ab859cb61bfb44f01112e492e853d3e7af965d698c8ef6e76d1b9960a098879660009460019492611008575b5083808c1b03168d8115159081610ff0575b50610fd7575b5082808b1b03168c8115159081610fbf575b50610fa6575b5080546001600160b81b0319168155018054610f1a90611c03565b601f8111610f87575b5055610f3b610f333685856124fa565b828988612609565b60ff6040519788966001808a1b03168752166020860152600180871b0316604085015260806060850152816080850152848401378181018301869052601f01601f19168101030190a180f35b81835260208320610fa091601f0160051c8101906125f2565b38610f23565b8c52600c60205260408c20805460ff1916905538610eff565b60ff9150808360409252600c6020522054168d610ef9565b8d52600b60205260408d20805460ff1916905538610ee7565b60ff9150808360409252600b6020522054168e610ee1565b61102291925060203d60201161080e576108008183611c9f565b9038610ecf565b61104391935060203d60201161080e576108008183611c9f565b9138610e73565b6040513d8b823e3d90fd5b6040516318cd26e360e11b81528590fd5b604051636f915a8560e11b8152808501859052602490fd5b604051636f915a8560e11b8152600381860152602490fd5b604051636f915a8560e11b8152600281860152602490fd5b604051636f915a8560e11b8152600181870152602490fd5b823461031757806003193601126103175760ff60209154166040519015158152f35b82346103175760203660031901126103175760209060ff906040906001600160a01b03611113611af4565b168152600284522054166040519015158152f35b905034610514576020366003190112610514573563ffffffff60e01b81168091036105145790602091815260038252604060018060a01b0391205416604051908152f35b90503461051457604036600319011261051457611186611af4565b906024359182151580930361128c576009546001600160a01b039182916111b090831633146124bc565b1692838552600a60205260ff604086205460a81c161561127b57838552600a60205260408520805461ffff60a81b191660b09290921b60ff60b01b169190911790556006548492911690813b1561127757836024849283604051958694859363d523c07760e01b85528401525af1801561126c57611258575b507fbc89b42e2b372c8e9e1d48bb5dc897d26927cbe07da9bff7d167d0dbef68e9b3602083604051908152a180f35b61126190611c3d565b610514578138611229565b6040513d84823e3d90fd5b8280fd5b6040516326c10e1560e01b81528390fd5b8380fd5b8234610317576020366003190112610317576020906001600160a01b0390604090826112ba611af4565b168152600a8452205460081c16604051908152f35b905034610514576020366003190112610514576112ea611af4565b6009546001600160a01b039291839161130690831633146124bc565b61130f816125bc565b1691828452600a60205260ff604085205416156113ea57828452600a60205260408420805461ffff60a81b191661010160a81b17905560065416908390823b15610514576024849183604051958694859363196c4e6360e11b85528401525af180156113df576113a9575b5060207f0d294c5651970c5fab6bc6f2c023263af93bc2c381b1dc76215156cc95ea675d91604051908152a180f35b7f0d294c5651970c5fab6bc6f2c023263af93bc2c381b1dc76215156cc95ea675d91926113d7602092611c3d565b92915061137a565b6040513d85823e3d90fd5b60405162461bcd60e51b8152602081840152600d60248201526c139bdb949959da5cdd195c9959609a1b6044820152606490fd5b82346103175760203660031901126103175760209060ff906040906001600160a01b03611449611af4565b168152600a8452205416604051908152f35b823461031757604036600319011261031757611475611b20565b336001600160a01b038216036114905761049091923561233f565b60405162461bcd60e51b8152602081850152602f60248201527f416363657373436f6e74726f6c3a2063616e206f6e6c792072656e6f756e636560448201526e103937b632b9903337b91039b2b63360891b6064820152608490fd5b90503461051457606036600319011261051457611507611af4565b61150f611b20565b90611518611b0a565b9084805260056020526040852033865260205261153b60ff604087205416612397565b6001600160a01b0390811693841580156115e3575b80156115d9575b6115ca5750917fbbfb274df95bebde0669697bf0d15986b4ad73e11c495ae4e2d08d1bc5c90bad9391836060946bffffffffffffffffffffffff60a01b9385856006541617600655169182846007541617600755168092600854161760085560405192835260208301526040820152a180f35b604051633efa09af60e01b8152fd5b5081831615611557565b5081841615611550565b82346103175780600319360112610317576009546040516001600160a01b039091168152602090f35b8234610317578060031936011261031757610490336122b6565b82346103175761049061168961164536611b46565b600080516020612c3a83398151915288969395965260056020526040882033895260205261167960ff60408a2054166123ef565b611682866125bc565b36916124fa565b92612609565b90503461051457604036600319011261051457356116ab611b20565b81835260056020526116c36001604085200154611e26565b8183526005602052604083209060018060a01b03169081845260205260ff604084205416156116f0578280f35b81835260056020526040832081845260205260408320600160ff198254161790553391600080516020612c1a8339815191528480a438808280f35b823461031757606036600319011261031757610490611748611af4565b611750611b36565b611758611b0a565b90600080516020612c3a8339815191528552600560205260408520338652602052610d2b60ff6040872054166123ef565b823461031757602080600319360112610514576117a4611af4565b6117b061043e33611de9565b600080516020612c3a83398151915291828452600581526117d76001604086200154611e26565b8284526005815260408085206001600160a01b0390931680865292825284205460ff1615611803578380f35b8284526005815260408420908285525260408320600160ff198254161790553391600080516020612c1a8339815191528480a48180808380f35b90503461051457602036600319011261051457604060209260ff92358152600d84522054166040519015158152f35b82346103175760203660031901126103175760ff604060209261188d611af4565b818052600585528282206001600160a01b03909116825284522054604051911615158152f35b90503461051457602036600319011261051457604060209260019235815260058452200154604051908152f35b8234610317576104906116896118f536611b46565b600080516020612c5a83398151915288969395965260056020526040882033895260205261167960ff60408a205416612541565b8234610317576020366003190112610317577f1c7847585b331d5fb688c03d1dc8e73e13231744377f3b1e2f5c26e548c621c16020611966611af4565b8380526005825260408420338552825261198660ff604086205416612397565b600980546001600160a01b0319166001600160a01b03929092169182179055604051908152a180f35b823461031757602080600319360112610514576119ca611af4565b906119d761043e33611de9565b828052600581526119ee6001604085200154611e26565b8280526005815260408084206001600160a01b0390931680855292825283205460ff16611a19578280f35b828052600581526040832090828452526040822060ff198154169055339082600080516020612c7a8339815191528180a481808280f35b82346103175780600319360112610317576006546040516001600160a01b039091168152602090f35b833461031757602036600319011261031757823563ffffffff60e01b811680910361051457602093637965db0b60e01b8214928315611abc575b50505015158152f35b9192506301ffc9a760e01b831491908215611ade575b50509050838080611ab3565b6040925060ff9382528552205416808480611ad2565b600435906001600160a01b03821682036107d057565b604435906001600160a01b03821682036107d057565b602435906001600160a01b03821682036107d057565b6024359060ff821682036107d057565b9060806003198301126107d0576001600160a01b039060043582811681036107d0579260243560ff811681036107d0579260443590811681036107d0579160643567ffffffffffffffff928382116107d057806023830112156107d05781600401359384116107d057602484830101116107d0576024019190565b346107d05760203660031901126107d0576001600160a01b03611be2611af4565b16600052600a602052602060ff60406000205460a81c166040519015158152f35b90600182811c92168015611c33575b6020831014611c1d57565b634e487b7160e01b600052602260045260246000fd5b91607f1691611c12565b67ffffffffffffffff8111611c5157604052565b634e487b7160e01b600052604160045260246000fd5b60a0810190811067ffffffffffffffff821117611c5157604052565b6020810190811067ffffffffffffffff821117611c5157604052565b90601f8019910116810190811067ffffffffffffffff821117611c5157604052565b9060405191826000825492611cd584611c03565b908184526001948581169081600014611d445750600114611d01575b5050611cff92500383611c9f565b565b9093915060005260209081600020936000915b818310611d2c575050611cff93508201013880611cf1565b85548884018501529485019487945091830191611d14565b915050611cff94506020925060ff191682840152151560051b8201013880611cf1565b60005b838110611d7a5750506000910152565b8181015183820152602001611d6a565b90602091611da381518092818552858086019101611d67565b601f01601f1916010190565b919260a09360ff611de6979693168452600180861b0316602084015215156040830152151560608201528160808201520190611d8a565b90565b6001600160a01b031660009081527f05b8ccbb9d4d8fb16ea74ce3c29a41f1b461fbdaff4714a0d9a8eb05499746bc602052604090205460ff1690565b60009080825260209060058252604092838120338252835260ff848220541615611e505750505050565b83519167ffffffffffffffff90336060850183811186821017612148578752602a855285850191873684378551156121345760308353855191600192831015612120576078602188015360295b8381116120b6575061207457908751936080850190858210908211176120605788526042845286840194606036873784511561204c5760308653845182101561204c5790607860218601536041915b818311611fde57505050611f9c57611f98938693611f7c93611f6d604894611f449a519a8b957f416363657373436f6e74726f6c3a206163636f756e74200000000000000000008c8801525180926037880190611d67565b8401917001034b99036b4b9b9b4b733903937b6329607d1b603784015251809386840190611d67565b01036028810187520185611c9f565b5192839262461bcd60e51b845260048401526024830190611d8a565b0390fd5b60648587519062461bcd60e51b825280600483015260248201527f537472696e67733a20686578206c656e67746820696e73756666696369656e746044820152fd5b909192600f81166010811015612038576f181899199a1a9b1b9c1cb0b131b232b360811b901a61200e8588612370565b5360041c92801561202457600019019190611eec565b634e487b7160e01b82526011600452602482fd5b634e487b7160e01b83526032600452602483fd5b634e487b7160e01b81526032600452602490fd5b634e487b7160e01b86526041600452602486fd5b60648789519062461bcd60e51b825280600483015260248201527f537472696e67733a20686578206c656e67746820696e73756666696369656e746044820152fd5b90600f8116601081101561210c576f181899199a1a9b1b9c1cb0b131b232b360811b901a6120e4838a612370565b5360041c9080156120f85760001901611e9d565b634e487b7160e01b87526011600452602487fd5b634e487b7160e01b88526032600452602488fd5b634e487b7160e01b86526032600452602486fd5b634e487b7160e01b85526032600452602485fd5b634e487b7160e01b85526041600452602485fd5b6001600160a01b03163381036121dc5760008181527f05b8ccbb9d4d8fb16ea74ce3c29a41f1b461fbdaff4714a0d9a8eb05499746bc602052604081205490919060ff166121a8575050565b8180526005602052604082208183526020526040822060ff1981541690553391600080516020612c7a8339815191528180a4565b60405162461bcd60e51b815260206004820152602f60248201527f416363657373436f6e74726f6c3a2063616e206f6e6c792072656e6f756e636560448201526e103937b632b9903337b91039b2b63360891b6064820152608490fd5b6001600160a01b031660008181527f05b8ccbb9d4d8fb16ea74ce3c29a41f1b461fbdaff4714a0d9a8eb05499746bc602052604081205490919060ff161561227f575050565b81805260056020526040822081835260205260408220600160ff198254161790553391600080516020612c1a8339815191528180a4565b6001600160a01b031660008181527f495d3ec9f3ad8ec6f8443b0a39852d56b07f6b1efbf2c51564addb326b8397866020526040812054909190600080516020612c5a8339815191529060ff1661230c57505050565b8083526005602052604083208284526020526040832060ff198154169055600080516020612c7a833981519152339380a4565b906000918083526005602052604083209160018060a01b03169182845260205260ff60408420541661230c57505050565b908151811015612381570160200190565b634e487b7160e01b600052603260045260246000fd5b1561239e57565b60405162461bcd60e51b815260206004820152602360248201527f41757468436f6e74726f6c3a2043616c6c6572206973206e6f7420616e20616460448201526236b4b760e91b6064820152608490fd5b156123f657565b60405162461bcd60e51b8152602060048201526024808201527f41757468436f6e74726f6c3a2043616c6c6572206973206e6f742061206d616e60448201526330b3b2b960e11b6064820152608490fd5b600080516020612c3a833981519152600081815260056020527f67f351182989509d05df317024ac600e03d0c404c1b07ecdc5d72ea1208a722b549092919061248f90611e26565b8083526005602052604083209160018060a01b03169182845260205260ff60408420541661230c57505050565b156124c357565b60405162461bcd60e51b815260206004820152600f60248201526e2832b936b4b9b9b4b7b722b93937b960891b6044820152606490fd5b92919267ffffffffffffffff8211611c515760405191612524601f8201601f191660200184611c9f565b8294818452818301116107d0578281602093846000960137010152565b1561254857565b60405162461bcd60e51b815260206004820152602760248201527f41757468436f6e74726f6c3a2043616c6c6572206973206e6f742061207265676044820152661a5cdd1c985b9d60ca1b6064820152608490fd5b908160209103126107d057516001600160a01b03811681036107d05790565b6001600160a01b03166000908152600a602052604090205460a81c60ff166125e057565b6040516318cd26e360e11b8152600490fd5b8181106125fd575050565b600081556001016125f2565b9293926001600160a01b03838116918215612a275760ff84169081158015612a1d575b612a045782811694600091868352602097600a89526040958685209360ff8554166129ec5761265b9084612a3f565b156129d45760019283871480156129ca575b61291a575b6002871461285e575b505082546001600160a81b031916851760089190911b610100600160a81b0316178255895191826126f7575b5050505091816126f2937f79025bb0223ed3a500c1098338b784302bcf993c87487625036460907a45939e979893519687968752860152840152608060608401526080830190611d8a565b0390a1565b81019267ffffffffffffffff831161284a576127138454611c03565b601f8111612811575b508890601f84116001146127885792807f79025bb0223ed3a500c1098338b784302bcf993c87487625036460907a45939e9b9c97959381936126f29a98969361277d575b501b916000199060031b1c19161790555b919381939897386126a7565b890151925038612760565b90601f9392931983168583528a8320925b8181106127fc57509183917f79025bb0223ed3a500c1098338b784302bcf993c87487625036460907a45939e9c9d9896946126f29a989694106127e3575b5050811b019055612771565b88015160001960f88460031b161c1916905538806127d7565b8d830151845592850192918b01918b01612799565b61283a908583528a8320601f860160051c8101918c8710612840575b601f0160051c01906125f2565b3861271c565b909150819061282d565b634e487b7160e01b81526041600452602490fd5b8751630a49cb0360e01b8152918b836004818e5afa9283156129105787936128f1575b50821680156128e0578652600c8b52878620805460ff19168517905587516001600160a01b039182168152911660208201527ff8bdba0336133f3634bf70846cd60e94e3b9dd7ce3a59c5831262cfdb636d00690604090a1388061267b565b8851631477227360e01b8152600490fd5b6129099193508c8d3d1061080e576108008183611c9f565b9138612881565b89513d89823e3d90fd5b875163078f29cf60e01b81528b816004818e5afa9081156129105787916129ad575b50828116801561299c578752600b8c52888720805460ff19168617905588516001600160a01b0383811682529190911660208201527f43251870f9292d3c0a61a78baa68c9f29d70ea868008a66d8afdb4d574f2c23190604090a1612672565b895163e0fec00360e01b8152600490fd5b6129c491508c8d3d1061080e576108008183611c9f565b3861293c565b506002871461266d565b865163472ed10360e01b815260036004820152602490fd5b875163472ed10360e01b815260026004820152602490fd5b60405163472ed10360e01b815260016004820152602490fd5b506002821161262c565b60405163472ed10360e01b8152600480820152602490fd5b9190600092600060018060a01b03809216908181526020600a815260409283832094845191612a6d83611c67565b8654612aa6600160ff998a84168752858460081c16888801528a8a880194818160a81c161515865260b01c161515606088015201611cc1565b60808501525115612abc575b5050505050505050565b855163078f29cf60e01b81528481600481855afa908115612c0f579083918791612bf2575b50169788612af0575b50612ab2565b871660018103612b405750505084905116159485612b2a575b5050505050612b21575b388080808080808080612aea565b60019150612b13565b8252600b90522054161590503880808080612b09565b6002919293985014612b59575b50505050505050612b13565b82600491865192838092630a49cb0360e01b82525afa908115612be8578491612bcb575b50169485612b8c575b80612b4d565b518416159485612bb5575b5050505050612bac575b388080808080612b86565b60019150612ba1565b8252600c90522054161590503880808080612b97565b612be29150833d851161080e576108008183611c9f565b38612b7d565b85513d86823e3d90fd5b612c099150863d881161080e576108008183611c9f565b38612ae1565b87513d88823e3d90fdfe2f8788117e7eff1d82e926ec794901d17c78024a50270940304540a733656f0daf290d8680820aad922855f39b306097b20e28774d6c1ad35a20325630c3a02c12090aa55130d5a2442eb84fc286ca6e600db6c50b6c5d9b6d0d929f0e2d8ce8f6391f5c32d9c69d2a47ea670b442974b53935d1edc7fd64eb21e047a839171ba164736f6c6343000813000a",
  "linkReferences": {},
  "deployedLinkReferences": {}
}