{
  "_format": "hh-sol-artifact-1",
  "contractName": "L1BridgeRegistryV1_1",
  "sourceName": "contracts/layer2/L1BridgeRegistryV1_1.sol",
  "abi": [
    {
      "inputs": [],
      "stateMutability": "nonpayable",
      "type": "constructor"
    },
    {
      "inputs": [],
      "name": "BridgeError",
      "type": "error"
    },
    {
      "inputs": [
        {
          "internalType": "uint256",
          "name": "x",
          "type": "uint256"
        }
      ],
      "name": "ChangeError",
      "type": "error"
    },
    {
      "inputs": [],
      "name": "NonRejectedError",
      "type": "error"
    },
    {
      "inputs": [],
      "name": "OnlyRejectedError",
      "type": "error"
    },
    {
      "inputs": [],
      "name": "PortalError",
      "type": "error"
    },
    {
      "inputs": [
        {
          "internalType": "uint256",
          "name": "x",
          "type": "uint256"
        }
      ],
      "name": "RegisterError",
      "type": "error"
    },
    {
      "inputs": [],
      "name": "ZeroAddressError",
      "type": "error"
    },
    {
      "anonymous": false,
      "inputs": [
        {
          "indexed": false,
          "internalType": "address",
          "name": "rollupConfig",
          "type": "address"
        },
        {
          "indexed": false,
          "internalType": "address",
          "name": "bridge",
          "type": "address"
        }
      ],
      "name": "AddedBridge",
      "type": "event"
    },
    {
      "anonymous": false,
      "inputs": [
        {
          "indexed": false,
          "internalType": "address",
          "name": "rollupConfig",
          "type": "address"
        },
        {
          "indexed": false,
          "internalType": "address",
          "name": "portal",
          "type": "address"
        }
      ],
      "name": "AddedPortal",
      "type": "event"
    },
    {
      "anonymous": false,
      "inputs": [
        {
          "indexed": false,
          "internalType": "address",
          "name": "rollupConfig",
          "type": "address"
        },
        {
          "indexed": false,
          "internalType": "uint8",
          "name": "type_",
          "type": "uint8"
        },
        {
          "indexed": false,
          "internalType": "address",
          "name": "l2TON",
          "type": "address"
        },
        {
          "indexed": false,
          "internalType": "string",
          "name": "name",
          "type": "string"
        }
      ],
      "name": "ChangedType",
      "type": "event"
    },
    {
      "anonymous": false,
      "inputs": [
        {
          "indexed": false,
          "internalType": "address",
          "name": "rollupConfig",
          "type": "address"
        },
        {
          "indexed": false,
          "internalType": "uint8",
          "name": "type_",
          "type": "uint8"
        },
        {
          "indexed": false,
          "internalType": "address",
          "name": "l2TON",
          "type": "address"
        },
        {
          "indexed": false,
          "internalType": "string",
          "name": "name",
          "type": "string"
        }
      ],
      "name": "RegisteredRollupConfig",
      "type": "event"
    },
    {
      "anonymous": false,
      "inputs": [
        {
          "indexed": false,
          "internalType": "address",
          "name": "rollupConfig",
          "type": "address"
        }
      ],
      "name": "RejectedCandidateAddOn",
      "type": "event"
    },
    {
      "anonymous": false,
      "inputs": [
        {
          "indexed": false,
          "internalType": "address",
          "name": "rollupConfig",
          "type": "address"
        }
      ],
      "name": "RestoredCandidateAddOn",
      "type": "event"
    },
    {
      "anonymous": false,
      "inputs": [
        {
          "indexed": true,
          "internalType": "bytes32",
          "name": "role",
          "type": "bytes32"
        },
        {
          "indexed": true,
          "internalType": "bytes32",
          "name": "previousAdminRole",
          "type": "bytes32"
        },
        {
          "indexed": true,
          "internalType": "bytes32",
          "name": "newAdminRole",
          "type": "bytes32"
        }
      ],
      "name": "RoleAdminChanged",
      "type": "event"
    },
    {
      "anonymous": false,
      "inputs": [
        {
          "indexed": true,
          "internalType": "bytes32",
          "name": "role",
          "type": "bytes32"
        },
        {
          "indexed": true,
          "internalType": "address",
          "name": "account",
          "type": "address"
        },
        {
          "indexed": true,
          "internalType": "address",
          "name": "sender",
          "type": "address"
        }
      ],
      "name": "RoleGranted",
      "type": "event"
    },
    {
      "anonymous": false,
      "inputs": [
        {
          "indexed": true,
          "internalType": "bytes32",
          "name": "role",
          "type": "bytes32"
        },
        {
          "indexed": true,
          "internalType": "address",
          "name": "account",
          "type": "address"
        },
        {
          "indexed": true,
          "internalType": "address",
          "name": "sender",
          "type": "address"
        }
      ],
      "name": "RoleRevoked",
      "type": "event"
    },
    {
      "anonymous": false,
      "inputs": [
        {
          "indexed": false,
          "internalType": "address",
          "name": "_layer2Manager",
          "type": "address"
        },
        {
          "indexed": false,
          "internalType": "address",
          "name": "_seigManager",
          "type": "address"
        },
        {
          "indexed": false,
          "internalType": "address",
          "name": "_ton",
          "type": "address"
        }
      ],
      "name": "SetAddresses",
      "type": "event"
    },
    {
      "anonymous": false,
      "inputs": [
        {
          "indexed": false,
          "internalType": "address",
          "name": "rollupConfig",
          "type": "address"
        },
        {
          "indexed": false,
          "internalType": "bool",
          "name": "rejectedL2Deposit",
          "type": "bool"
        }
      ],
      "name": "SetBlockingL2Deposit",
      "type": "event"
    },
    {
      "anonymous": false,
      "inputs": [
        {
          "indexed": false,
          "internalType": "address",
          "name": "_seigniorageCommittee",
          "type": "address"
        }
      ],
      "name": "SetSeigniorageCommittee",
      "type": "event"
    },
    {
      "inputs": [],
      "name": "DEFAULT_ADMIN_ROLE",
      "outputs": [
        {
          "internalType": "bytes32",
          "name": "",
          "type": "bytes32"
        }
      ],
      "stateMutability": "view",
      "type": "function"
    },
    {
      "inputs": [],
      "name": "MANAGER_ROLE",
      "outputs": [
        {
          "internalType": "bytes32",
          "name": "",
          "type": "bytes32"
        }
      ],
      "stateMutability": "view",
      "type": "function"
    },
    {
      "inputs": [],
      "name": "REGISTRANT_ROLE",
      "outputs": [
        {
          "internalType": "bytes32",
          "name": "",
          "type": "bytes32"
        }
      ],
      "stateMutability": "view",
      "type": "function"
    },
    {
      "inputs": [
        {
          "internalType": "address",
          "name": "account",
          "type": "address"
        }
      ],
      "name": "addAdmin",
      "outputs": [],
      "stateMutability": "nonpayable",
      "type": "function"
    },
    {
      "inputs": [
        {
          "internalType": "address",
          "name": "account",
          "type": "address"
        }
      ],
      "name": "addManager",
      "outputs": [],
      "stateMutability": "nonpayable",
      "type": "function"
    },
    {
      "inputs": [
        {
          "internalType": "address",
          "name": "account",
          "type": "address"
        }
      ],
      "name": "addRegistrant",
      "outputs": [],
      "stateMutability": "nonpayable",
      "type": "function"
    },
    {
      "inputs": [
        {
          "internalType": "address",
          "name": "",
          "type": "address"
        }
      ],
      "name": "aliveImplementation",
      "outputs": [
        {
          "internalType": "bool",
          "name": "",
          "type": "bool"
        }
      ],
      "stateMutability": "view",
      "type": "function"
    },
    {
      "inputs": [
        {
          "internalType": "address",
          "name": "rollupConfig",
          "type": "address"
        },
        {
          "internalType": "uint8",
          "name": "_type",
          "type": "uint8"
        },
        {
          "internalType": "string",
          "name": "_name",
          "type": "string"
        }
      ],
      "name": "availableForRegistration",
      "outputs": [
        {
          "internalType": "bool",
          "name": "valid",
          "type": "bool"
        }
      ],
      "stateMutability": "view",
      "type": "function"
    },
    {
      "inputs": [
        {
          "internalType": "address",
          "name": "rollupConfig",
          "type": "address"
        },
        {
          "internalType": "uint8",
          "name": "_type",
          "type": "uint8"
        },
        {
          "internalType": "address",
          "name": "_l2TON",
          "type": "address"
        },
        {
          "internalType": "string",
          "name": "_name",
          "type": "string"
        }
      ],
      "name": "changeType",
      "outputs": [],
      "stateMutability": "nonpayable",
      "type": "function"
    },
    {
      "inputs": [
        {
          "internalType": "bytes32",
          "name": "role",
          "type": "bytes32"
        }
      ],
      "name": "getRoleAdmin",
      "outputs": [
        {
          "internalType": "bytes32",
          "name": "",
          "type": "bytes32"
        }
      ],
      "stateMutability": "view",
      "type": "function"
    },
    {
      "inputs": [
        {
          "internalType": "address",
          "name": "rollupConfig",
          "type": "address"
        }
      ],
      "name": "getRollupInfo",
      "outputs": [
        {
          "internalType": "uint8",
          "name": "type_",
          "type": "uint8"
        },
        {
          "internalType": "address",
          "name": "l2TON_",
          "type": "address"
        },
        {
          "internalType": "bool",
          "name": "rejectedSeigs_",
          "type": "bool"
        },
        {
          "internalType": "bool",
          "name": "rejectedL2Deposit_",
          "type": "bool"
        },
        {
          "internalType": "string",
          "name": "name_",
          "type": "string"
        }
      ],
      "stateMutability": "view",
      "type": "function"
    },
    {
      "inputs": [
        {
          "internalType": "bytes32",
          "name": "role",
          "type": "bytes32"
        },
        {
          "internalType": "address",
          "name": "account",
          "type": "address"
        }
      ],
      "name": "grantRole",
      "outputs": [],
      "stateMutability": "nonpayable",
      "type": "function"
    },
    {
      "inputs": [
        {
          "internalType": "bytes32",
          "name": "role",
          "type": "bytes32"
        },
        {
          "internalType": "address",
          "name": "account",
          "type": "address"
        }
      ],
      "name": "hasRole",
      "outputs": [
        {
          "internalType": "bool",
          "name": "",
          "type": "bool"
        }
      ],
      "stateMutability": "view",
      "type": "function"
    },
    {
      "inputs": [
        {
          "internalType": "address",
          "name": "account",
          "type": "address"
        }
      ],
      "name": "isAdmin",
      "outputs": [
        {
          "internalType": "bool",
          "name": "",
          "type": "bool"
        }
      ],
      "stateMutability": "view",
      "type": "function"
    },
    {
      "inputs": [
        {
          "internalType": "address",
          "name": "account",
          "type": "address"
        }
      ],
      "name": "isManager",
      "outputs": [
        {
          "internalType": "bool",
          "name": "",
          "type": "bool"
        }
      ],
      "stateMutability": "view",
      "type": "function"
    },
    {
      "inputs": [],
      "name": "isOwner",
      "outputs": [
        {
          "internalType": "bool",
          "name": "",
          "type": "bool"
        }
      ],
      "stateMutability": "view",
      "type": "function"
    },
    {
      "inputs": [
        {
          "internalType": "address",
          "name": "account",
          "type": "address"
        }
      ],
      "name": "isRegistrant",
      "outputs": [
        {
          "internalType": "bool",
          "name": "",
          "type": "bool"
        }
      ],
      "stateMutability": "view",
      "type": "function"
    },
    {
      "inputs": [
        {
          "internalType": "address",
          "name": "rollupConfig",
          "type": "address"
        }
      ],
      "name": "isRejectedL2Deposit",
      "outputs": [
        {
          "internalType": "bool",
          "name": "rejectedL2Deposit",
          "type": "bool"
        }
      ],
      "stateMutability": "view",
      "type": "function"
    },
    {
      "inputs": [
        {
          "internalType": "address",
          "name": "rollupConfig",
          "type": "address"
        }
      ],
      "name": "isRejectedSeigs",
      "outputs": [
        {
          "internalType": "bool",
          "name": "rejectedSeigs",
          "type": "bool"
        }
      ],
      "stateMutability": "view",
      "type": "function"
    },
    {
      "inputs": [
        {
          "internalType": "address",
          "name": "",
          "type": "address"
        }
      ],
      "name": "l1Bridge",
      "outputs": [
        {
          "internalType": "bool",
          "name": "",
          "type": "bool"
        }
      ],
      "stateMutability": "view",
      "type": "function"
    },
    {
      "inputs": [
        {
          "internalType": "address",
          "name": "rollupConfig",
          "type": "address"
        }
      ],
      "name": "l2TON",
      "outputs": [
        {
          "internalType": "address",
          "name": "l2TonAddress",
          "type": "address"
        }
      ],
      "stateMutability": "view",
      "type": "function"
    },
    {
      "inputs": [],
      "name": "layer2Manager",
      "outputs": [
        {
          "internalType": "address",
          "name": "",
          "type": "address"
        }
      ],
      "stateMutability": "view",
      "type": "function"
    },
    {
      "inputs": [
        {
          "internalType": "address",
          "name": "rollupConfig",
          "type": "address"
        }
      ],
      "name": "layer2TVL",
      "outputs": [
        {
          "internalType": "uint256",
          "name": "amount",
          "type": "uint256"
        }
      ],
      "stateMutability": "view",
      "type": "function"
    },
    {
      "inputs": [],
      "name": "pauseProxy",
      "outputs": [
        {
          "internalType": "bool",
          "name": "",
          "type": "bool"
        }
      ],
      "stateMutability": "view",
      "type": "function"
    },
    {
      "inputs": [
        {
          "internalType": "address",
          "name": "",
          "type": "address"
        }
      ],
      "name": "portal",
      "outputs": [
        {
          "internalType": "bool",
          "name": "",
          "type": "bool"
        }
      ],
      "stateMutability": "view",
      "type": "function"
    },
    {
      "inputs": [
        {
          "internalType": "uint256",
          "name": "",
          "type": "uint256"
        }
      ],
      "name": "proxyImplementation",
      "outputs": [
        {
          "internalType": "address",
          "name": "",
          "type": "address"
        }
      ],
      "stateMutability": "view",
      "type": "function"
    },
    {
      "inputs": [
        {
          "internalType": "address",
          "name": "rollupConfig",
          "type": "address"
        },
        {
          "internalType": "uint8",
          "name": "_type",
          "type": "uint8"
        },
        {
          "internalType": "address",
          "name": "_l2TON",
          "type": "address"
        },
        {
          "internalType": "string",
          "name": "_name",
          "type": "string"
        }
      ],
      "name": "registerRollupConfig",
      "outputs": [],
      "stateMutability": "nonpayable",
      "type": "function"
    },
    {
      "inputs": [
        {
          "internalType": "address",
          "name": "rollupConfig",
          "type": "address"
        },
        {
          "internalType": "uint8",
          "name": "_type",
          "type": "uint8"
        },
        {
          "internalType": "address",
          "name": "_l2TON",
          "type": "address"
        },
        {
          "internalType": "string",
          "name": "_name",
          "type": "string"
        }
      ],
      "name": "registerRollupConfigByManager",
      "outputs": [],
      "stateMutability": "nonpayable",
      "type": "function"
    },
    {
      "inputs": [
        {
          "internalType": "bytes32",
          "name": "",
          "type": "bytes32"
        }
      ],
      "name": "registeredNames",
      "outputs": [
        {
          "internalType": "bool",
          "name": "",
          "type": "bool"
        }
      ],
      "stateMutability": "view",
      "type": "function"
    },
    {
      "inputs": [
        {
          "internalType": "address",
          "name": "rollupConfig",
          "type": "address"
        }
      ],
      "name": "rejectCandidateAddOn",
      "outputs": [],
      "stateMutability": "nonpayable",
      "type": "function"
    },
    {
      "inputs": [
        {
          "internalType": "address",
          "name": "rollupConfig",
          "type": "address"
        }
      ],
      "name": "rejectRollupConfig",
      "outputs": [
        {
          "internalType": "bool",
          "name": "rejectedSeigs",
          "type": "bool"
        }
      ],
      "stateMutability": "view",
      "type": "function"
    },
    {
      "inputs": [
        {
          "internalType": "address",
          "name": "account",
          "type": "address"
        }
      ],
      "name": "removeAdmin",
      "outputs": [],
      "stateMutability": "nonpayable",
      "type": "function"
    },
    {
      "inputs": [
        {
          "internalType": "address",
          "name": "account",
          "type": "address"
        }
      ],
      "name": "removeManager",
      "outputs": [],
      "stateMutability": "nonpayable",
      "type": "function"
    },
    {
      "inputs": [
        {
          "internalType": "address",
          "name": "account",
          "type": "address"
        }
      ],
      "name": "removeRegistrant",
      "outputs": [],
      "stateMutability": "nonpayable",
      "type": "function"
    },
    {
      "inputs": [],
      "name": "renounceManager",
      "outputs": [],
      "stateMutability": "nonpayable",
      "type": "function"
    },
    {
      "inputs": [],
      "name": "renounceOwnership",
      "outputs": [],
      "stateMutability": "nonpayable",
      "type": "function"
    },
    {
      "inputs": [],
      "name": "renounceRegistrant",
      "outputs": [],
      "stateMutability": "nonpayable",
      "type": "function"
    },
    {
      "inputs": [
        {
          "internalType": "bytes32",
          "name": "role",
          "type": "bytes32"
        },
        {
          "internalType": "address",
          "name": "account",
          "type": "address"
        }
      ],
      "name": "renounceRole",
      "outputs": [],
      "stateMutability": "nonpayable",
      "type": "function"
    },
    {
      "inputs": [
        {
          "internalType": "address",
          "name": "rollupConfig",
          "type": "address"
        },
        {
          "internalType": "bool",
          "name": "rejectedL2Deposit",
          "type": "bool"
        }
      ],
      "name": "restoreCandidateAddOn",
      "outputs": [],
      "stateMutability": "nonpayable",
      "type": "function"
    },
    {
      "inputs": [
        {
          "internalType": "address",
          "name": "account",
          "type": "address"
        }
      ],
      "name": "revokeManager",
      "outputs": [],
      "stateMutability": "nonpayable",
      "type": "function"
    },
    {
      "inputs": [
        {
          "internalType": "address",
          "name": "account",
          "type": "address"
        }
      ],
      "name": "revokeRegistrant",
      "outputs": [],
      "stateMutability": "nonpayable",
      "type": "function"
    },
    {
      "inputs": [
        {
          "internalType": "bytes32",
          "name": "role",
          "type": "bytes32"
        },
        {
          "internalType": "address",
          "name": "account",
          "type": "address"
        }
      ],
      "name": "revokeRole",
      "outputs": [],
      "stateMutability": "nonpayable",
      "type": "function"
    },
    {
      "inputs": [
        {
          "internalType": "address",
          "name": "",
          "type": "address"
        }
      ],
      "name": "rollupInfo",
      "outputs": [
        {
          "internalType": "uint8",
          "name": "rollupType",
          "type": "uint8"
        },
        {
          "internalType": "address",
          "name": "l2TON",
          "type": "address"
        },
        {
          "internalType": "bool",
          "name": "rejectedSeigs",
          "type": "bool"
        },
        {
          "internalType": "bool",
          "name": "rejectedL2Deposit",
          "type": "bool"
        },
        {
          "internalType": "string",
          "name": "name",
          "type": "string"
        }
      ],
      "stateMutability": "view",
      "type": "function"
    },
    {
      "inputs": [
        {
          "internalType": "address",
          "name": "rollupConfig",
          "type": "address"
        }
      ],
      "name": "rollupType",
      "outputs": [
        {
          "internalType": "uint8",
          "name": "rollupType_",
          "type": "uint8"
        }
      ],
      "stateMutability": "view",
      "type": "function"
    },
    {
      "inputs": [],
      "name": "seigManager",
      "outputs": [
        {
          "internalType": "address",
          "name": "",
          "type": "address"
        }
      ],
      "stateMutability": "view",
      "type": "function"
    },
    {
      "inputs": [],
      "name": "seigniorageCommittee",
      "outputs": [
        {
          "internalType": "address",
          "name": "",
          "type": "address"
        }
      ],
      "stateMutability": "view",
      "type": "function"
    },
    {
      "inputs": [
        {
          "internalType": "bytes4",
          "name": "",
          "type": "bytes4"
        }
      ],
      "name": "selectorImplementation",
      "outputs": [
        {
          "internalType": "address",
          "name": "",
          "type": "address"
        }
      ],
      "stateMutability": "view",
      "type": "function"
    },
    {
      "inputs": [
        {
          "internalType": "address",
          "name": "_layer2Manager",
          "type": "address"
        },
        {
          "internalType": "address",
          "name": "_seigManager",
          "type": "address"
        },
        {
          "internalType": "address",
          "name": "_ton",
          "type": "address"
        }
      ],
      "name": "setAddresses",
      "outputs": [],
      "stateMutability": "nonpayable",
      "type": "function"
    },
    {
      "inputs": [
        {
          "internalType": "address",
          "name": "_seigniorageCommittee",
          "type": "address"
        }
      ],
      "name": "setSeigniorageCommittee",
      "outputs": [],
      "stateMutability": "nonpayable",
      "type": "function"
    },
    {
      "inputs": [
        {
          "internalType": "bytes4",
          "name": "interfaceId",
          "type": "bytes4"
        }
      ],
      "name": "supportsInterface",
      "outputs": [
        {
          "internalType": "bool",
          "name": "",
          "type": "bool"
        }
      ],
      "stateMutability": "view",
      "type": "function"
    },
    {
      "inputs": [],
      "name": "ton",
      "outputs": [
        {
          "internalType": "address",
          "name": "",
          "type": "address"
        }
      ],
      "stateMutability": "view",
      "type": "function"
    },
    {
      "inputs": [
        {
          "internalType": "address",
          "name": "newAdmin",
          "type": "address"
        }
      ],
      "name": "transferAdmin",
      "outputs": [],
      "stateMutability": "nonpayable",
      "type": "function"
    },
    {
      "inputs": [
        {
          "internalType": "address",
          "name": "newAdmin",
          "type": "address"
        }
      ],
      "name": "transferOwnership",
      "outputs": [],
      "stateMutability": "nonpayable",
      "type": "function"
    }
  ],
  "bytecode": "0x6080806040523461001657612c57908161001c8239f35b600080fdfe6080806040526004908136101561001557600080fd5b600091823560e01c91826301ffc9a714611a065750816316b5d5bd146119dd5781631785f53c1461193c5781631c564985146118b65781631d4c9c881461186d578163248a9ca31461184057816324d7806c146117f957816325b9535f146117ca5781632977c31f14610bb55781632d06177a146117165781632f2ff15d1461167a5781633163b4b51461162257816335556fe31461160857816335583e6c146115df578163363bf964146114da57816336568abe14611449578163377e32e614610a59578163391e3b371461140c5781634b49264c146112bd5781634b7aa5d41461127e5781634fb1aee61461115957816350d2a27614611115578163550d01a3146110d657816363a8fd89146110b45781636af685c114610ce75781636f5b142b14610cbe5781636fb7f55814610c955781637048027514610c54578163715018a614610c3a57816375829def14610c1257816386ad05b614610bba57816388462d0714610bb55781638cfc934714610b665781638f32d59b14610b2d57816391d1485414610ae2578163a217fddf14610ac6578163a2cc097914610a87578163ac18de4314610a59578163b30347c014610a1a578163b911135f146109e7578163bbfcfc1e1461091e578163c50b84e6146108b5578163c81ae6db1461068e578163cc48b94714610665578163d00491c614610611578163d3c215d8146105ab578163d547741f1461056d578163e65906e01461052b578163ec87621c14610502578163f2fde38b1461040057508063f3ae2415146103a8578063f5e9b26b146103045763f8b91abe1461026b57600080fd5b346103015780600319360112610301573360009081527f67f351182989509d05df317024ac600e03d0c404c1b07ecdc5d72ea1208a722a6020526040902054600080516020612beb8339815191529060ff166102c5575080f35b806000526005602052604060002033600052602052604060002060ff19815416905533903390600080516020612c2b833981519152600080a480f35b80fd5b5034610301576020366003190112610301576001600160a01b03906040908261032b611a81565b168152600a60205220906103a460405161034481611be1565b835460ff811682526020820193808260081c16855260ff61038360016040860198838660a81c1615158a5283606088019660b01c161515865201611c1f565b93846080820152511694511694511515905115159060405195869586611d0d565b0390f35b50346103015760203660031901126103015760406103c4611a81565b91600080516020612beb83398151915281526005602052209060018060a01b0316600052602052602060ff604060002054166040519015158152f35b9050346104fe5760203660031901126104fe5761041b611a81565b9061042d61042833611d47565b6122f5565b61043961042833611d47565b6001600160a01b03821680156104ba57331461047d575061047190828052600560205261046c6001604085200154611d84565b612197565b61047a336120ba565b80f35b60649060206040519162461bcd60e51b8352820152601660248201527520b1b1b2b9b9b4b136329d1039b0b6b29030b236b4b760511b6044820152fd5b60405162461bcd60e51b8152602081840152601860248201527f41636365737369626c653a207a65726f206164647265737300000000000000006044820152606490fd5b5080fd5b82346103015780600319360112610301576020604051600080516020612beb8339815191528152f35b82346103015760203660031901126103015760209060ff906040906001600160a01b03610556611a81565b168152600a8452205460b01c166040519015158152f35b9050346104fe5760403660031901126104fe5761047a903561058d611a97565b9080845260056020526105a66001604086200154611d84565b61229d565b8234610301576020366003190112610301576001600160a01b0390604090826105d2611a81565b168152600a60205220906103a46105ed600184549401611c1f565b60405193849360ff8260b01c169160ff808260a81c16928260081c16911686611d0d565b82346103015760203660031901126103015761047a61062e611a81565b61063a61042833611d47565b600080516020612c0b833981519152835260056020526106606001604085200154611d84565b612214565b82346103015780600319360112610301576008546040516001600160a01b039091168152602090f35b9050346104fe5760209182600319360112610301576106ab611a81565b918192818560018060a01b03809316808652600a825260ff604087205416600181146000146107d3575060405163078f29cf60e01b815292839182905afa9081156107c8579180918793869161079b575b501690818552600b835260ff604086205416610721575b50505050505b604051908152f35b6024919293949550600854169360405194859384926370a0823160e01b84528301525afa91821561078f579161075d575b503880838180610713565b90508181813d8311610788575b6107748183611bfd565b81010312610783575138610752565b600080fd5b503d61076a565b604051903d90823e3d90fd5b6107bb9150843d86116107c1575b6107b38183611bfd565b8101906124fb565b386106fc565b503d6107a9565b6040513d86823e3d90fd5b6002919350146107e8575b5050505050610719565b604051630a49cb0360e01b8152918290859082905afa9081156107c85791809187938691610898575b501690818552600c835260ff60408620541661082f575b50816107de565b6024919293949550600854169360405194859384926370a0823160e01b84528301525afa91821561078f579161086b575b503880838180610828565b90508181813d8311610891575b6108828183611bfd565b81010312610783575138610860565b503d610878565b6108af9150843d86116107c1576107b38183611bfd565b38610811565b8234610301576060366003190112610301576108cf611a81565b916024359160ff83168303610783576044359067ffffffffffffffff8211610301576020610914868661090e61090736888a01611aad565b3691612458565b916129bb565b6040519015158152f35b8234610301576020806003193601126104fe57610939611a81565b600080516020612beb8339815191528352600582526040832033600052825261096960ff6040600020541661234d565b600080516020612c0b83398151915291826000526005815260406000209160018060a01b03169182600052815260ff60406000205416156109a8578380f35b826000526005815260406000209082600052526040600020600160ff198254161790553391600080516020612bcb833981519152600080a48180808380f35b9050346104fe5760203660031901126104fe579060209135815260018252604060018060a01b0391205416604051908152f35b82346103015760203660031901126103015760209060ff906040906001600160a01b03610a45611a81565b168152600b84522054166040519015158152f35b82346103015760203660031901126103015761047a610a76611a81565b610a8261042833611d47565b6123a5565b82346103015760203660031901126103015760209060ff906040906001600160a01b03610ab2611a81565b168152600c84522054166040519015158152f35b8234610301578060031936011261030157602090604051908152f35b823461030157604036600319011261030157604090610aff611a97565b923581526005602052209060018060a01b0316600052602052602060ff604060002054166040519015158152f35b823461030157806003193601126103015780806040925260056020522033600052602052602060ff604060002054166040519015158152f35b82346103015760203660031901126103015761047a610b83611a81565b600080516020612beb83398151915283526005602052604083203360005260205261066060ff6040600020541661234d565b611b3b565b8234610301576020366003190112610301576040610bd6611a81565b91600080516020612c0b83398151915281526005602052209060018060a01b0316600052602052602060ff604060002054166040519015158152f35b9050346104fe5760203660031901126104fe57610c2d611a81565b9061043961042833611d47565b823461030157806003193601126103015761047a336120ba565b82346103015760203660031901126103015761047a610c71611a81565b610c7d61042833611d47565b828052600560205261046c6001604085200154611d84565b82346103015780600319360112610301576007546040516001600160a01b039091168152602090f35b82346103015780600319360112610301576020604051600080516020612c0b8339815191528152f35b9050346104fe57610cf736611adb565b9094929391600080516020612c0b833981519152875260056020526040872033600052602052610d2e60ff6040600020541661249f565b6001600160a01b0383168752600a6020526040808820905190610d8e90600190610d5784611be1565b60ff81548181168652838060a01b038160081c166020870152818160a81c161515604087015260b01c161515606085015201611c1f565b608082015260ff8151161561109c5760ff90511660ff861614611084576001600160a01b0381161561106c578115611054576001600160a01b0383168752600a60205260408720805490969060a81c60ff166110435760405163078f29cf60e01b81529160208387816001600160a01b0389165afa928315611017578993611022575b50604051630a49cb0360e01b8152956020908790816001600160a01b0389165afa958615611017577f5260076e8db4ab859cb61bfb44f01112e492e853d3e7af965d698c8ef6e76d1b9860a09786956000938d92610ff6575b5060001960018b1b01168015158d81610fde575b50610fc5575b506001808a1b031680151580610faf575b610f96575b506001810190610eaa8254611b7d565b82601f8211610f89575b549060208110610f78575b508c52600d60205260408c20805460ff1916905580546001600160b81b03191690558054610eec90611b7d565b601f8111610f59575b5055610f0d610f05368585612458565b82898861258a565b60ff6040519788966001808a1b03168752166020860152600180871b0316604085015260806060850152816080850152848401378181018301869052601f01601f19168101030190a180f35b81835260208320610f7291601f0160051c810190612550565b38610ef5565b84199060200360031b1b1638610ebf565b50828d5260208d20610eb4565b8b52600c60205260408b20805460ff1916905538610e9a565b50808c52600c60205260ff60408d205416610e95565b8c52600b60205260408c20805460ff1916905538610e84565b60ff9150808360409252600b6020522054168d610e7e565b61101091925060203d6020116107c1576107b38183611bfd565b9038610e6a565b6040513d8b823e3d90fd5b61103c91935060203d6020116107c1576107b38183611bfd565b9138610e11565b6040516318cd26e360e11b81528590fd5b604051636f915a8560e11b8152808501859052602490fd5b604051636f915a8560e11b8152600381860152602490fd5b604051636f915a8560e11b8152600281860152602490fd5b604051636f915a8560e11b8152600181870152602490fd5b823461030157806003193601126103015760ff60209154166040519015158152f35b82346103015760203660031901126103015760209060ff906040906001600160a01b03611101611a81565b168152600284522054166040519015158152f35b9050346104fe5760203660031901126104fe573563ffffffff60e01b81168091036104fe5790602091815260038252604060018060a01b0391205416604051908152f35b9050346104fe5760403660031901126104fe57611174611a81565b906024359182151580930361127a576009546001600160a01b0391829161119e908316331461241a565b1692838552600a60205260ff604086205460a81c161561126957838552600a60205260408520805461ffff60a81b191660b09290921b60ff60b01b169190911790556006548492911690813b1561126557836024849283604051958694859363d523c07760e01b85528401525af1801561125a57611246575b507fbc89b42e2b372c8e9e1d48bb5dc897d26927cbe07da9bff7d167d0dbef68e9b3602083604051908152a180f35b61124f90611bb7565b6104fe578138611217565b6040513d84823e3d90fd5b8280fd5b6040516326c10e1560e01b81528390fd5b8380fd5b8234610301576020366003190112610301576020906001600160a01b0390604090826112a8611a81565b168152600a8452205460081c16604051908152f35b9050346104fe5760203660031901126104fe576112d8611a81565b6009546001600160a01b03929183916112f4908316331461241a565b6112fd8161251a565b1691828452600a60205260ff604085205416156113d857828452600a60205260408420805461ffff60a81b191661010160a81b17905560065416908390823b156104fe576024849183604051958694859363196c4e6360e11b85528401525af180156113cd57611397575b5060207f0d294c5651970c5fab6bc6f2c023263af93bc2c381b1dc76215156cc95ea675d91604051908152a180f35b7f0d294c5651970c5fab6bc6f2c023263af93bc2c381b1dc76215156cc95ea675d91926113c5602092611bb7565b929150611368565b6040513d85823e3d90fd5b60405162461bcd60e51b8152602081840152600d60248201526c139bdb949959da5cdd195c9959609a1b6044820152606490fd5b82346103015760203660031901126103015760209060ff906040906001600160a01b03611437611a81565b168152600a8452205416604051908152f35b823461030157604036600319011261030157611463611a97565b336001600160a01b0382160361147e5761047a91923561229d565b60405162461bcd60e51b8152602081850152602f60248201527f416363657373436f6e74726f6c3a2063616e206f6e6c792072656e6f756e636560448201526e103937b632b9903337b91039b2b63360891b6064820152608490fd5b9050346104fe5760603660031901126104fe576114f5611a81565b6114fd611a97565b6001600160a01b0360443581811693908490036115db57819086805260056020526040872033885260205261153860ff6040892054166122f5565b1693841580156115d1575b80156115c9575b6115ba5750917fbbfb274df95bebde0669697bf0d15986b4ad73e11c495ae4e2d08d1bc5c90bad9391816060946bffffffffffffffffffffffff60a01b9285846006541617600655169182816007541617600755600854161760085560405192835260208301526040820152a180f35b604051633efa09af60e01b8152fd5b50831561154a565b5081831615611543565b8580fd5b82346103015780600319360112610301576009546040516001600160a01b039091168152602090f35b823461030157806003193601126103015761047a33612214565b82346103015761047a61167461163736611adb565b600080516020612beb83398151915288969395965260056020526040882033895260205261166b60ff60408a20541661234d565b6109078661251a565b9261258a565b9050346104fe5760403660031901126104fe5735611696611a97565b81835260056020526116ae6001604085200154611d84565b8183526005602052604083209060018060a01b03169081845260205260ff604084205416156116db578280f35b81835260056020526040832081845260205260408320600160ff198254161790553391600080516020612bcb8339815191528480a438808280f35b8234610301576020806003193601126104fe57611731611a81565b61173d61042833611d47565b600080516020612beb83398151915291828452600581526117646001604086200154611d84565b8284526005815260408085206001600160a01b0390931680865292825284205460ff1615611790578380f35b8284526005815260408420908285525260408320600160ff198254161790553391600080516020612bcb8339815191528480a48180808380f35b9050346104fe5760203660031901126104fe57604060209260ff92358152600d84522054166040519015158152f35b82346103015760203660031901126103015760ff604060209261181a611a81565b818052600585528282206001600160a01b03909116825284522054604051911615158152f35b9050346104fe5760203660031901126104fe57604060209260019235815260058452200154604051908152f35b82346103015761047a61167461188236611adb565b600080516020612c0b83398151915288969395965260056020526040882033895260205261166b60ff60408a20541661249f565b8234610301576020366003190112610301577f1c7847585b331d5fb688c03d1dc8e73e13231744377f3b1e2f5c26e548c621c160206118f3611a81565b8380526005825260408420338552825261191360ff6040862054166122f5565b600980546001600160a01b0319166001600160a01b03929092169182179055604051908152a180f35b8234610301576020806003193601126104fe57611957611a81565b9061196461042833611d47565b8280526005815261197b6001604085200154611d84565b8280526005815260408084206001600160a01b0390931680855292825283205460ff166119a6578280f35b828052600581526040832090828452526040822060ff198154169055339082600080516020612c2b8339815191528180a481808280f35b82346103015780600319360112610301576006546040516001600160a01b039091168152602090f35b833461030157602036600319011261030157823563ffffffff60e01b81168091036104fe57602093637965db0b60e01b8214928315611a49575b50505015158152f35b9192506301ffc9a760e01b831491908215611a6b575b50509050838080611a40565b6040925060ff9382528552205416808480611a5f565b600435906001600160a01b038216820361078357565b602435906001600160a01b038216820361078357565b9181601f840112156107835782359167ffffffffffffffff8311610783576020838186019501011161078357565b6080600319820112610783576001600160a01b03906004358281168103610783579260243560ff811681036107835792604435908116810361078357916064359067ffffffffffffffff821161078357611b3791600401611aad565b9091565b34610783576020366003190112610783576001600160a01b03611b5c611a81565b16600052600a602052602060ff60406000205460a81c166040519015158152f35b90600182811c92168015611bad575b6020831014611b9757565b634e487b7160e01b600052602260045260246000fd5b91607f1691611b8c565b67ffffffffffffffff8111611bcb57604052565b634e487b7160e01b600052604160045260246000fd5b60a0810190811067ffffffffffffffff821117611bcb57604052565b90601f8019910116810190811067ffffffffffffffff821117611bcb57604052565b9060405191826000825492611c3384611b7d565b908184526001948581169081600014611ca25750600114611c5f575b5050611c5d92500383611bfd565b565b9093915060005260209081600020936000915b818310611c8a575050611c5d93508201013880611c4f565b85548884018501529485019487945091830191611c72565b915050611c5d94506020925060ff191682840152151560051b8201013880611c4f565b60005b838110611cd85750506000910152565b8181015183820152602001611cc8565b90602091611d0181518092818552858086019101611cc5565b601f01601f1916010190565b919260a09360ff611d44979693168452600180861b0316602084015215156040830152151560608201528160808201520190611ce8565b90565b6001600160a01b031660009081527f05b8ccbb9d4d8fb16ea74ce3c29a41f1b461fbdaff4714a0d9a8eb05499746bc602052604090205460ff1690565b60009080825260209060058252604092838120338252835260ff848220541615611dae5750505050565b83519167ffffffffffffffff903360608501838111868210176120a6578752602a85528585019187368437855115612092576030835385519160019283101561207e576078602188015360295b8381116120145750611fd25790875193608085019085821090821117611fbe57885260428452868401946060368737845115611faa57603086538451821015611faa5790607860218601536041915b818311611f3c57505050611efa57611ef6938693611eda93611ecb604894611ea29a519a8b957f416363657373436f6e74726f6c3a206163636f756e74200000000000000000008c8801525180926037880190611cc5565b8401917001034b99036b4b9b9b4b733903937b6329607d1b603784015251809386840190611cc5565b01036028810187520185611bfd565b5192839262461bcd60e51b845260048401526024830190611ce8565b0390fd5b60648587519062461bcd60e51b825280600483015260248201527f537472696e67733a20686578206c656e67746820696e73756666696369656e746044820152fd5b909192600f81166010811015611f96576f181899199a1a9b1b9c1cb0b131b232b360811b901a611f6c85886122ce565b5360041c928015611f8257600019019190611e4a565b634e487b7160e01b82526011600452602482fd5b634e487b7160e01b83526032600452602483fd5b634e487b7160e01b81526032600452602490fd5b634e487b7160e01b86526041600452602486fd5b60648789519062461bcd60e51b825280600483015260248201527f537472696e67733a20686578206c656e67746820696e73756666696369656e746044820152fd5b90600f8116601081101561206a576f181899199a1a9b1b9c1cb0b131b232b360811b901a612042838a6122ce565b5360041c9080156120565760001901611dfb565b634e487b7160e01b87526011600452602487fd5b634e487b7160e01b88526032600452602488fd5b634e487b7160e01b86526032600452602486fd5b634e487b7160e01b85526032600452602485fd5b634e487b7160e01b85526041600452602485fd5b6001600160a01b031633810361213a5760008181527f05b8ccbb9d4d8fb16ea74ce3c29a41f1b461fbdaff4714a0d9a8eb05499746bc602052604081205490919060ff16612106575050565b8180526005602052604082208183526020526040822060ff1981541690553391600080516020612c2b8339815191528180a4565b60405162461bcd60e51b815260206004820152602f60248201527f416363657373436f6e74726f6c3a2063616e206f6e6c792072656e6f756e636560448201526e103937b632b9903337b91039b2b63360891b6064820152608490fd5b6001600160a01b031660008181527f05b8ccbb9d4d8fb16ea74ce3c29a41f1b461fbdaff4714a0d9a8eb05499746bc602052604081205490919060ff16156121dd575050565b81805260056020526040822081835260205260408220600160ff198254161790553391600080516020612bcb8339815191528180a4565b6001600160a01b031660008181527f495d3ec9f3ad8ec6f8443b0a39852d56b07f6b1efbf2c51564addb326b8397866020526040812054909190600080516020612c0b8339815191529060ff1661226a57505050565b8083526005602052604083208284526020526040832060ff198154169055600080516020612c2b833981519152339380a4565b906000918083526005602052604083209160018060a01b03169182845260205260ff60408420541661226a57505050565b9081518110156122df570160200190565b634e487b7160e01b600052603260045260246000fd5b156122fc57565b60405162461bcd60e51b815260206004820152602360248201527f41757468436f6e74726f6c3a2043616c6c6572206973206e6f7420616e20616460448201526236b4b760e91b6064820152608490fd5b1561235457565b60405162461bcd60e51b8152602060048201526024808201527f41757468436f6e74726f6c3a2043616c6c6572206973206e6f742061206d616e60448201526330b3b2b960e11b6064820152608490fd5b600080516020612beb833981519152600081815260056020527f67f351182989509d05df317024ac600e03d0c404c1b07ecdc5d72ea1208a722b54909291906123ed90611d84565b8083526005602052604083209160018060a01b03169182845260205260ff60408420541661226a57505050565b1561242157565b60405162461bcd60e51b815260206004820152600f60248201526e2832b936b4b9b9b4b7b722b93937b960891b6044820152606490fd5b92919267ffffffffffffffff8211611bcb5760405191612482601f8201601f191660200184611bfd565b829481845281830111610783578281602093846000960137010152565b156124a657565b60405162461bcd60e51b815260206004820152602760248201527f41757468436f6e74726f6c3a2043616c6c6572206973206e6f742061207265676044820152661a5cdd1c985b9d60ca1b6064820152608490fd5b9081602091031261078357516001600160a01b03811681036107835790565b6001600160a01b03166000908152600a602052604090205460a81c60ff1661253e57565b6040516318cd26e360e11b8152600490fd5b81811061255b575050565b60008155600101612550565b60208151910151906020811061257b575090565b6000199060200360031b1b1690565b92939290916001600160a01b0391828216919082156129a35760ff85169081158015612999575b6129805784811694600090868252602097600a89526040958684209160ff835416612968578c6125e191876129bb565b156129505760019485938488148015612946575b612888575b600288146127c3575b505081546001600160a81b031916861760089190911b610100600160a81b03161781558a5191019067ffffffffffffffff81116127af576126448254611b7d565b601f8111612776575b5088601f82116001146126ec5792869492827f79025bb0223ed3a500c1098338b784302bcf993c87487625036460907a45939e9c9d98936126dc9a989684916126e1575b50600019600383901b1c191690851b1790555b6126ad87612567565b8152600d8a52209060ff1982541617905581519687968752860152840152608060608401526080830190611ce8565b0390a1565b905089015138612691565b82845289842090601f198316855b818110612761575095836126dc9a9896937f79025bb0223ed3a500c1098338b784302bcf993c87487625036460907a45939e9e9f9a9893899684989510612748575b5050811b0190556126a4565b8b015160001960f88460031b161c19169055388061273c565b8e830151845592870192918c01918c016126fa565b61279f908385528a8520601f840160051c8101918c85106127a5575b601f0160051c0190612550565b3861264d565b9091508190612792565b634e487b7160e01b83526041600452602483fd5b8851630a49cb0360e01b81529394509192918b836004818e5afa92831561287e57869361285f575b508216801561284e578552600c8b52878520805460ff19168717905587516001600160a01b03918216815291166020820152849291907ff8bdba0336133f3634bf70846cd60e94e3b9dd7ce3a59c5831262cfdb636d00690604090a13880612603565b8851631477227360e01b8152600490fd5b6128779193508c8d3d106107c1576107b38183611bfd565b91386127eb565b89513d88823e3d90fd5b885163078f29cf60e01b815293945091929091908b816004818e5afa90811561287e578691612929575b508181168015612918578652600b8c52888620805460ff19168817905588516001600160a01b0384811682529190911660208201528694939291907f43251870f9292d3c0a61a78baa68c9f29d70ea868008a66d8afdb4d574f2c23190604090a16125fa565b895163e0fec00360e01b8152600490fd5b61294091508c8d3d106107c1576107b38183611bfd565b386128b2565b50600288146125f5565b865163472ed10360e01b815260036004820152602490fd5b875163472ed10360e01b815260026004820152602490fd5b60405163472ed10360e01b815260016004820152602490fd5b50600282116125b1565b60405163472ed10360e01b8152600480820152602490fd5b906000916129ca600094612567565b8452602090600d825260ff9160409160018484892054161515146000146129f45750505050505090565b6001600160a01b03908116808852600a83528388208451979998969795969495929190612a2084611be1565b612a5760018254928a84168752858460081c16888801528a8a880194818160a81c161515865260b01c161515606088015201611c1f565b60808501525115612a6d575b5050505050505050565b855163078f29cf60e01b81528481600481855afa908115612bc0579083918791612ba3575b50169788612aa1575b50612a63565b871660018103612af15750505084905116159485612adb575b5050505050612ad2575b388080808080808080612a9b565b60019150612ac4565b8252600b90522054161590503880808080612aba565b6002919293985014612b0a575b50505050505050612ac4565b82600491865192838092630a49cb0360e01b82525afa908115612b99578491612b7c575b50169485612b3d575b80612afe565b518416159485612b66575b5050505050612b5d575b388080808080612b37565b60019150612b52565b8252600c90522054161590503880808080612b48565b612b939150833d85116107c1576107b38183611bfd565b38612b2e565b85513d86823e3d90fd5b612bba9150863d88116107c1576107b38183611bfd565b38612a92565b87513d88823e3d90fdfe2f8788117e7eff1d82e926ec794901d17c78024a50270940304540a733656f0daf290d8680820aad922855f39b306097b20e28774d6c1ad35a20325630c3a02c12090aa55130d5a2442eb84fc286ca6e600db6c50b6c5d9b6d0d929f0e2d8ce8f6391f5c32d9c69d2a47ea670b442974b53935d1edc7fd64eb21e047a839171ba164736f6c6343000813000a",
  "linkReferences": {},
  "deployedLinkReferences": {}
}