{
  "_format": "hh-sol-artifact-1",
  "contractName": "L1BridgeRegistryV1_1",
  "sourceName": "contracts/layer2/L1BridgeRegistryV1_1.sol",
  "abi": [
    {
      "inputs": [],
      "stateMutability": "nonpayable",
      "type": "constructor"
    },
    {
      "inputs": [],
      "name": "BridgeError",
      "type": "error"
    },
    {
      "inputs": [
        {
          "internalType": "uint256",
          "name": "x",
          "type": "uint256"
        }
      ],
      "name": "ChangeError",
      "type": "error"
    },
    {
      "inputs": [],
      "name": "NonRejectedError",
      "type": "error"
    },
    {
      "inputs": [],
      "name": "OnlyRejectedError",
      "type": "error"
    },
    {
      "inputs": [],
      "name": "PortalError",
      "type": "error"
    },
    {
      "inputs": [
        {
          "internalType": "uint256",
          "name": "x",
          "type": "uint256"
        }
      ],
      "name": "RegisterError",
      "type": "error"
    },
    {
      "inputs": [],
      "name": "ZeroAddressError",
      "type": "error"
    },
    {
      "anonymous": false,
      "inputs": [
        {
          "indexed": false,
          "internalType": "address",
          "name": "rollupConfig",
          "type": "address"
        },
        {
          "indexed": false,
          "internalType": "address",
          "name": "bridge",
          "type": "address"
        }
      ],
      "name": "AddedBridge",
      "type": "event"
    },
    {
      "anonymous": false,
      "inputs": [
        {
          "indexed": false,
          "internalType": "address",
          "name": "rollupConfig",
          "type": "address"
        },
        {
          "indexed": false,
          "internalType": "address",
          "name": "portal",
          "type": "address"
        }
      ],
      "name": "AddedPortal",
      "type": "event"
    },
    {
      "anonymous": false,
      "inputs": [
        {
          "indexed": false,
          "internalType": "address",
          "name": "rollupConfig",
          "type": "address"
        },
        {
          "indexed": false,
          "internalType": "uint8",
          "name": "type_",
          "type": "uint8"
        },
        {
          "indexed": false,
          "internalType": "address",
          "name": "_l2TON",
          "type": "address"
        }
      ],
      "name": "ChangedType",
      "type": "event"
    },
    {
      "anonymous": false,
      "inputs": [
        {
          "indexed": false,
          "internalType": "address",
          "name": "rollupConfig",
          "type": "address"
        },
        {
          "indexed": false,
          "internalType": "uint8",
          "name": "type_",
          "type": "uint8"
        },
        {
          "indexed": false,
          "internalType": "address",
          "name": "_l2TON",
          "type": "address"
        }
      ],
      "name": "RegisteredRollupConfig",
      "type": "event"
    },
    {
      "anonymous": false,
      "inputs": [
        {
          "indexed": false,
          "internalType": "address",
          "name": "rollupConfig",
          "type": "address"
        }
      ],
      "name": "RejectedCandidateAddOn",
      "type": "event"
    },
    {
      "anonymous": false,
      "inputs": [
        {
          "indexed": false,
          "internalType": "address",
          "name": "rollupConfig",
          "type": "address"
        }
      ],
      "name": "RestoredCandidateAddOn",
      "type": "event"
    },
    {
      "anonymous": false,
      "inputs": [
        {
          "indexed": true,
          "internalType": "bytes32",
          "name": "role",
          "type": "bytes32"
        },
        {
          "indexed": true,
          "internalType": "bytes32",
          "name": "previousAdminRole",
          "type": "bytes32"
        },
        {
          "indexed": true,
          "internalType": "bytes32",
          "name": "newAdminRole",
          "type": "bytes32"
        }
      ],
      "name": "RoleAdminChanged",
      "type": "event"
    },
    {
      "anonymous": false,
      "inputs": [
        {
          "indexed": true,
          "internalType": "bytes32",
          "name": "role",
          "type": "bytes32"
        },
        {
          "indexed": true,
          "internalType": "address",
          "name": "account",
          "type": "address"
        },
        {
          "indexed": true,
          "internalType": "address",
          "name": "sender",
          "type": "address"
        }
      ],
      "name": "RoleGranted",
      "type": "event"
    },
    {
      "anonymous": false,
      "inputs": [
        {
          "indexed": true,
          "internalType": "bytes32",
          "name": "role",
          "type": "bytes32"
        },
        {
          "indexed": true,
          "internalType": "address",
          "name": "account",
          "type": "address"
        },
        {
          "indexed": true,
          "internalType": "address",
          "name": "sender",
          "type": "address"
        }
      ],
      "name": "RoleRevoked",
      "type": "event"
    },
    {
      "anonymous": false,
      "inputs": [
        {
          "indexed": false,
          "internalType": "address",
          "name": "_layer2Manager",
          "type": "address"
        },
        {
          "indexed": false,
          "internalType": "address",
          "name": "_seigManager",
          "type": "address"
        },
        {
          "indexed": false,
          "internalType": "address",
          "name": "_ton",
          "type": "address"
        }
      ],
      "name": "SetAddresses",
      "type": "event"
    },
    {
      "anonymous": false,
      "inputs": [
        {
          "indexed": false,
          "internalType": "address",
          "name": "_seigniorageCommittee",
          "type": "address"
        }
      ],
      "name": "SetSeigniorageCommittee",
      "type": "event"
    },
    {
      "inputs": [],
      "name": "DEFAULT_ADMIN_ROLE",
      "outputs": [
        {
          "internalType": "bytes32",
          "name": "",
          "type": "bytes32"
        }
      ],
      "stateMutability": "view",
      "type": "function"
    },
    {
      "inputs": [],
      "name": "MANAGER_ROLE",
      "outputs": [
        {
          "internalType": "bytes32",
          "name": "",
          "type": "bytes32"
        }
      ],
      "stateMutability": "view",
      "type": "function"
    },
    {
      "inputs": [],
      "name": "REGISTRANT_ROLE",
      "outputs": [
        {
          "internalType": "bytes32",
          "name": "",
          "type": "bytes32"
        }
      ],
      "stateMutability": "view",
      "type": "function"
    },
    {
      "inputs": [
        {
          "internalType": "address",
          "name": "account",
          "type": "address"
        }
      ],
      "name": "addAdmin",
      "outputs": [],
      "stateMutability": "nonpayable",
      "type": "function"
    },
    {
      "inputs": [
        {
          "internalType": "address",
          "name": "account",
          "type": "address"
        }
      ],
      "name": "addManager",
      "outputs": [],
      "stateMutability": "nonpayable",
      "type": "function"
    },
    {
      "inputs": [
        {
          "internalType": "address",
          "name": "account",
          "type": "address"
        }
      ],
      "name": "addRegistrant",
      "outputs": [],
      "stateMutability": "nonpayable",
      "type": "function"
    },
    {
      "inputs": [
        {
          "internalType": "address",
          "name": "",
          "type": "address"
        }
      ],
      "name": "aliveImplementation",
      "outputs": [
        {
          "internalType": "bool",
          "name": "",
          "type": "bool"
        }
      ],
      "stateMutability": "view",
      "type": "function"
    },
    {
      "inputs": [
        {
          "internalType": "address",
          "name": "rollupConfig",
          "type": "address"
        },
        {
          "internalType": "uint8",
          "name": "_type",
          "type": "uint8"
        }
      ],
      "name": "availableForRegistration",
      "outputs": [
        {
          "internalType": "bool",
          "name": "valid",
          "type": "bool"
        }
      ],
      "stateMutability": "view",
      "type": "function"
    },
    {
      "inputs": [
        {
          "internalType": "address",
          "name": "rollupConfig",
          "type": "address"
        },
        {
          "internalType": "uint8",
          "name": "_type",
          "type": "uint8"
        },
        {
          "internalType": "address",
          "name": "_l2TON",
          "type": "address"
        }
      ],
      "name": "changeType",
      "outputs": [],
      "stateMutability": "nonpayable",
      "type": "function"
    },
    {
      "inputs": [
        {
          "internalType": "bytes32",
          "name": "role",
          "type": "bytes32"
        }
      ],
      "name": "getRoleAdmin",
      "outputs": [
        {
          "internalType": "bytes32",
          "name": "",
          "type": "bytes32"
        }
      ],
      "stateMutability": "view",
      "type": "function"
    },
    {
      "inputs": [
        {
          "internalType": "bytes32",
          "name": "role",
          "type": "bytes32"
        },
        {
          "internalType": "address",
          "name": "account",
          "type": "address"
        }
      ],
      "name": "grantRole",
      "outputs": [],
      "stateMutability": "nonpayable",
      "type": "function"
    },
    {
      "inputs": [
        {
          "internalType": "bytes32",
          "name": "role",
          "type": "bytes32"
        },
        {
          "internalType": "address",
          "name": "account",
          "type": "address"
        }
      ],
      "name": "hasRole",
      "outputs": [
        {
          "internalType": "bool",
          "name": "",
          "type": "bool"
        }
      ],
      "stateMutability": "view",
      "type": "function"
    },
    {
      "inputs": [
        {
          "internalType": "address",
          "name": "account",
          "type": "address"
        }
      ],
      "name": "isAdmin",
      "outputs": [
        {
          "internalType": "bool",
          "name": "",
          "type": "bool"
        }
      ],
      "stateMutability": "view",
      "type": "function"
    },
    {
      "inputs": [
        {
          "internalType": "address",
          "name": "account",
          "type": "address"
        }
      ],
      "name": "isManager",
      "outputs": [
        {
          "internalType": "bool",
          "name": "",
          "type": "bool"
        }
      ],
      "stateMutability": "view",
      "type": "function"
    },
    {
      "inputs": [],
      "name": "isOwner",
      "outputs": [
        {
          "internalType": "bool",
          "name": "",
          "type": "bool"
        }
      ],
      "stateMutability": "view",
      "type": "function"
    },
    {
      "inputs": [
        {
          "internalType": "address",
          "name": "account",
          "type": "address"
        }
      ],
      "name": "isRegistrant",
      "outputs": [
        {
          "internalType": "bool",
          "name": "",
          "type": "bool"
        }
      ],
      "stateMutability": "view",
      "type": "function"
    },
    {
      "inputs": [
        {
          "internalType": "address",
          "name": "",
          "type": "address"
        }
      ],
      "name": "l1Bridge",
      "outputs": [
        {
          "internalType": "bool",
          "name": "",
          "type": "bool"
        }
      ],
      "stateMutability": "view",
      "type": "function"
    },
    {
      "inputs": [
        {
          "internalType": "address",
          "name": "",
          "type": "address"
        }
      ],
      "name": "l2TON",
      "outputs": [
        {
          "internalType": "address",
          "name": "",
          "type": "address"
        }
      ],
      "stateMutability": "view",
      "type": "function"
    },
    {
      "inputs": [],
      "name": "layer2Manager",
      "outputs": [
        {
          "internalType": "address",
          "name": "",
          "type": "address"
        }
      ],
      "stateMutability": "view",
      "type": "function"
    },
    {
      "inputs": [
        {
          "internalType": "address",
          "name": "rollupConfig",
          "type": "address"
        }
      ],
      "name": "layer2TVL",
      "outputs": [
        {
          "internalType": "uint256",
          "name": "amount",
          "type": "uint256"
        }
      ],
      "stateMutability": "view",
      "type": "function"
    },
    {
      "inputs": [],
      "name": "pauseProxy",
      "outputs": [
        {
          "internalType": "bool",
          "name": "",
          "type": "bool"
        }
      ],
      "stateMutability": "view",
      "type": "function"
    },
    {
      "inputs": [
        {
          "internalType": "address",
          "name": "",
          "type": "address"
        }
      ],
      "name": "portal",
      "outputs": [
        {
          "internalType": "bool",
          "name": "",
          "type": "bool"
        }
      ],
      "stateMutability": "view",
      "type": "function"
    },
    {
      "inputs": [
        {
          "internalType": "uint256",
          "name": "",
          "type": "uint256"
        }
      ],
      "name": "proxyImplementation",
      "outputs": [
        {
          "internalType": "address",
          "name": "",
          "type": "address"
        }
      ],
      "stateMutability": "view",
      "type": "function"
    },
    {
      "inputs": [
        {
          "internalType": "address",
          "name": "rollupConfig",
          "type": "address"
        },
        {
          "internalType": "uint8",
          "name": "_type",
          "type": "uint8"
        },
        {
          "internalType": "address",
          "name": "_l2TON",
          "type": "address"
        }
      ],
      "name": "registerRollupConfig",
      "outputs": [],
      "stateMutability": "nonpayable",
      "type": "function"
    },
    {
      "inputs": [
        {
          "internalType": "address",
          "name": "rollupConfig",
          "type": "address"
        },
        {
          "internalType": "uint8",
          "name": "_type",
          "type": "uint8"
        },
        {
          "internalType": "address",
          "name": "_l2TON",
          "type": "address"
        }
      ],
      "name": "registerRollupConfigByManager",
      "outputs": [],
      "stateMutability": "nonpayable",
      "type": "function"
    },
    {
      "inputs": [
        {
          "internalType": "address",
          "name": "rollupConfig",
          "type": "address"
        }
      ],
      "name": "rejectCandidateAddOn",
      "outputs": [],
      "stateMutability": "nonpayable",
      "type": "function"
    },
    {
      "inputs": [
        {
          "internalType": "address",
          "name": "",
          "type": "address"
        }
      ],
      "name": "rejectRollupConfig",
      "outputs": [
        {
          "internalType": "bool",
          "name": "",
          "type": "bool"
        }
      ],
      "stateMutability": "view",
      "type": "function"
    },
    {
      "inputs": [
        {
          "internalType": "address",
          "name": "account",
          "type": "address"
        }
      ],
      "name": "removeAdmin",
      "outputs": [],
      "stateMutability": "nonpayable",
      "type": "function"
    },
    {
      "inputs": [
        {
          "internalType": "address",
          "name": "account",
          "type": "address"
        }
      ],
      "name": "removeManager",
      "outputs": [],
      "stateMutability": "nonpayable",
      "type": "function"
    },
    {
      "inputs": [
        {
          "internalType": "address",
          "name": "account",
          "type": "address"
        }
      ],
      "name": "removeRegistrant",
      "outputs": [],
      "stateMutability": "nonpayable",
      "type": "function"
    },
    {
      "inputs": [],
      "name": "renounceManager",
      "outputs": [],
      "stateMutability": "nonpayable",
      "type": "function"
    },
    {
      "inputs": [],
      "name": "renounceOwnership",
      "outputs": [],
      "stateMutability": "nonpayable",
      "type": "function"
    },
    {
      "inputs": [],
      "name": "renounceRegistrant",
      "outputs": [],
      "stateMutability": "nonpayable",
      "type": "function"
    },
    {
      "inputs": [
        {
          "internalType": "bytes32",
          "name": "role",
          "type": "bytes32"
        },
        {
          "internalType": "address",
          "name": "account",
          "type": "address"
        }
      ],
      "name": "renounceRole",
      "outputs": [],
      "stateMutability": "nonpayable",
      "type": "function"
    },
    {
      "inputs": [
        {
          "internalType": "address",
          "name": "rollupConfig",
          "type": "address"
        }
      ],
      "name": "restoreCandidateAddOn",
      "outputs": [],
      "stateMutability": "nonpayable",
      "type": "function"
    },
    {
      "inputs": [
        {
          "internalType": "address",
          "name": "account",
          "type": "address"
        }
      ],
      "name": "revokeManager",
      "outputs": [],
      "stateMutability": "nonpayable",
      "type": "function"
    },
    {
      "inputs": [
        {
          "internalType": "address",
          "name": "account",
          "type": "address"
        }
      ],
      "name": "revokeRegistrant",
      "outputs": [],
      "stateMutability": "nonpayable",
      "type": "function"
    },
    {
      "inputs": [
        {
          "internalType": "bytes32",
          "name": "role",
          "type": "bytes32"
        },
        {
          "internalType": "address",
          "name": "account",
          "type": "address"
        }
      ],
      "name": "revokeRole",
      "outputs": [],
      "stateMutability": "nonpayable",
      "type": "function"
    },
    {
      "inputs": [
        {
          "internalType": "address",
          "name": "",
          "type": "address"
        }
      ],
      "name": "rollupType",
      "outputs": [
        {
          "internalType": "uint8",
          "name": "",
          "type": "uint8"
        }
      ],
      "stateMutability": "view",
      "type": "function"
    },
    {
      "inputs": [],
      "name": "seigManager",
      "outputs": [
        {
          "internalType": "address",
          "name": "",
          "type": "address"
        }
      ],
      "stateMutability": "view",
      "type": "function"
    },
    {
      "inputs": [],
      "name": "seigniorageCommittee",
      "outputs": [
        {
          "internalType": "address",
          "name": "",
          "type": "address"
        }
      ],
      "stateMutability": "view",
      "type": "function"
    },
    {
      "inputs": [
        {
          "internalType": "bytes4",
          "name": "",
          "type": "bytes4"
        }
      ],
      "name": "selectorImplementation",
      "outputs": [
        {
          "internalType": "address",
          "name": "",
          "type": "address"
        }
      ],
      "stateMutability": "view",
      "type": "function"
    },
    {
      "inputs": [
        {
          "internalType": "address",
          "name": "_layer2Manager",
          "type": "address"
        },
        {
          "internalType": "address",
          "name": "_seigManager",
          "type": "address"
        },
        {
          "internalType": "address",
          "name": "_ton",
          "type": "address"
        }
      ],
      "name": "setAddresses",
      "outputs": [],
      "stateMutability": "nonpayable",
      "type": "function"
    },
    {
      "inputs": [
        {
          "internalType": "address",
          "name": "_seigniorageCommittee",
          "type": "address"
        }
      ],
      "name": "setSeigniorageCommittee",
      "outputs": [],
      "stateMutability": "nonpayable",
      "type": "function"
    },
    {
      "inputs": [
        {
          "internalType": "bytes4",
          "name": "interfaceId",
          "type": "bytes4"
        }
      ],
      "name": "supportsInterface",
      "outputs": [
        {
          "internalType": "bool",
          "name": "",
          "type": "bool"
        }
      ],
      "stateMutability": "view",
      "type": "function"
    },
    {
      "inputs": [],
      "name": "ton",
      "outputs": [
        {
          "internalType": "address",
          "name": "",
          "type": "address"
        }
      ],
      "stateMutability": "view",
      "type": "function"
    },
    {
      "inputs": [
        {
          "internalType": "address",
          "name": "newAdmin",
          "type": "address"
        }
      ],
      "name": "transferAdmin",
      "outputs": [],
      "stateMutability": "nonpayable",
      "type": "function"
    },
    {
      "inputs": [
        {
          "internalType": "address",
          "name": "newAdmin",
          "type": "address"
        }
      ],
      "name": "transferOwnership",
      "outputs": [],
      "stateMutability": "nonpayable",
      "type": "function"
    }
  ],
  "bytecode": "0x6080806040523461001657612528908161001c8239f35b600080fdfe608060408181526004918236101561001657600080fd5b600092833560e01c91826301ffc9a7146116dd5750816316b5d5bd146116b45781631785f53c146116155781631c56498514611590578163248a9ca31461156557816324d7806c1461151f5781632977c31f146114e15781632d06177a1461142e5781632f02c3e0146113d05781632f2ff15d1461133557816335556fe31461131b57816335583e6c146112f2578163363bf964146111f457816336568abe14611162578163377e32e61461097457816338305a0a14610ebd578163391e3b3714610e815781634b49264c14610d355781634b7aa5d414610cfa57816350d2a27614610cb6578163550d01a314610c7857816363a8fd8914610c565781636e91948d14610bf15781636f5b142b14610bc85781636fb7f55814610b9f5781637048027514610b5d578163715018a614610b4357816375829def14610b1a57816386ad05b614610ac55781638cfc934714610a765781638f32d59b14610a4157816391d14854146109fb578163a217fddf146109e0578163a2cc0979146109a2578163ac18de4314610974578163b30347c014610936578163b466283914610844578163b911135f14610811578163bbfcfc1e1461074b578163c81ae6db14610527578163c87957e7146104f0578163cc48b947146104c7578163d00491c614610472578163d547741f14610432578163ec87621c14610409578163f2fde38b1461030d57508063f3ae2415146102b95763f8b91abe1461023557600080fd5b346102b557816003193601126102b5576000805160206124bc83398151915290816000526005602052806000203360005260205260ff816000205416610279578280f35b816000526005602052806000203360005260205260002060ff198154169055339033906000805160206124fc833981519152600080a438808280f35b5080fd5b50346102b55760203660031901126102b557602091816102d7611761565b916000805160206124bc833981519152815260058552209060018060a01b0316600052825260ff81600020541690519015158152f35b839150346102b55760203660031901126102b557610329611761565b9061033b610336336117b3565b611de6565b610347610336336117b3565b6001600160a01b03821680156103c657331461038a5750610379600183948461037e95526005602052852001546117f0565b611c88565b61038733611bab565b80f35b606490602085519162461bcd60e51b8352820152601660248201527520b1b1b2b9b9b4b136329d1039b0b6b29030b236b4b760511b6044820152fd5b845162461bcd60e51b8152602081840152601860248201527f41636365737369626c653a207a65726f206164647265737300000000000000006044820152606490fd5b5050346102b557816003193601126102b557602090516000805160206124bc8339815191528152f35b9190503461046e578060031936011261046e576103879135610469600161045761178d565b938387526005602052862001546117f0565b611d8e565b8280fd5b5050346102b55760203660031901126102b557610387906104c26001610496611761565b926104a3610336336117b3565b6000805160206124dc83398151915286526005602052852001546117f0565b611d05565b5050346102b557816003193601126102b55760085490516001600160a01b039091168152602090f35b5050346102b557806003193601126102b55760209061051e610510611761565b6105186117a3565b9061230c565b90519015158152f35b9190503461046e576020928360031936011261074857610545611761565b928193818660018060a01b038093168086526009825260ff8787205416600181146000146106675750865163078f29cf60e01b815292839182905afa90811561065d5791809188938691610630575b501690818552600a835260ff86862054166105b6575b50505050505b51908152f35b6024919293949596506008541693865194859384926370a0823160e01b84528301525afa91821561062557916105f3575b509038808481806105aa565b90508281813d831161061e575b61060a8183611b89565b810103126106195751386105e7565b600080fd5b503d610600565b8351903d90823e3d90fd5b6106509150843d8611610656575b6106488183611b89565b810190611fe2565b38610594565b503d61063e565b85513d86823e3d90fd5b60029193501461067c575b50505050506105b0565b8551630a49cb0360e01b8152918290859082905afa90811561065d579180918893869161072b575b501690818552600b835260ff86862054166106c1575b5081610672565b6024919293949596506008541693865194859384926370a0823160e01b84528301525afa91821561062557916106fe575b509038808481806106ba565b90508281813d8311610724575b6107158183611b89565b810103126106195751386106f2565b503d61070b565b6107429150843d8611610656576106488183611b89565b386106a4565b80fd5b5050346102b5576020908160031936011261046e57610768611761565b906000805160206124bc83398151915284526005835280842033600052835261079760ff826000205416611e3e565b6000805160206124dc833981519152928360005260058152816000209260018060a01b03169283600052815260ff826000205416156107d4578480f35b836000526005815281600020908360005252600020600160ff19825416179055339160008051602061249c833981519152600080a4388080808480f35b90503461046e57602036600319011261046e5735825260016020908152918190205490516001600160a01b039091168152f35b9190503461046e57602036600319011261046e57610860611761565b600d546001600160a01b039391849161087c9083163314611f0b565b1692838552600c60205260ff83862054161561092757838552600c602052828520805460ff191690556006548592911690813b1561046e578460248492838751958694859363d523c07760e01b85528401525af1801561091d57610909575b507fbc89b42e2b372c8e9e1d48bb5dc897d26927cbe07da9bff7d167d0dbef68e9b36020848451908152a180f35b61091290611b5f565b61046e5782386108db565b83513d84823e3d90fd5b5090516326c10e1560e01b8152fd5b5050346102b55760203660031901126102b55760209160ff9082906001600160a01b03610961611761565b168152600a855220541690519015158152f35b833461074857602036600319011261074857610387610991611761565b61099d610336336117b3565b611e96565b5050346102b55760203660031901126102b55760209160ff9082906001600160a01b036109cd611761565b168152600b855220541690519015158152f35b5050346102b557816003193601126102b55751908152602090f35b90503461046e578160031936011261046e5781602093610a1961178d565b9235815260058552209060018060a01b0316600052825260ff81600020541690519015158152f35b5050346102b557816003193601126102b55780828060209452600584522033600052825260ff81600020541690519015158152f35b5050346102b55760203660031901126102b557610387906104c260ff610a9a611761565b926000805160206124bc83398151915286526005602052808620336000526020526000205416611e3e565b5050346102b55760203660031901126102b55760209181610ae4611761565b916000805160206124dc833981519152815260058552209060018060a01b0316600052825260ff81600020541690519015158152f35b839150346102b55760203660031901126102b557610b36611761565b90610347610336336117b3565b833461074857806003193601126107485761038733611bab565b5050346102b55760203660031901126102b557610387906103796001610b81611761565b92610b8e610336336117b3565b8580526005602052852001546117f0565b5050346102b557816003193601126102b55760075490516001600160a01b039091168152602090f35b5050346102b557816003193601126102b557602090516000805160206124dc8339815191528152f35b5050346102b55760603660031901126102b55761038790610c10611761565b610c186117a3565b90610c5160ff610c26611777565b946000805160206124dc83398151915288526005602052808820336000526020526000205416611f86565b611f49565b5050346102b557816003193601126102b55760ff602092541690519015158152f35b5050346102b55760203660031901126102b55760209160ff9082906001600160a01b03610ca3611761565b1681526002855220541690519015158152f35b90503461046e57602036600319011261046e573563ffffffff60e01b811680910361046e57825260036020908152918190205490516001600160a01b039091168152f35b5050346102b55760203660031901126102b5576020916001600160a01b0390829082610d24611761565b168152600e85522054169051908152f35b839150346102b5576020908160031936011261046e57610d53611761565b600d546001600160a01b0392918391610d6f9083163314611f0b565b1691828552600c845260ff8686205416610e72578285526009845260ff868620541615610e3f57828552600c8452858520805460ff191660011790556006541690813b15610e3b578260248692838951958694859363196c4e6360e11b85528401525af1801561065d57610e0a575b507f0d294c5651970c5fab6bc6f2c023263af93bc2c381b1dc76215156cc95ea675d929351908152a180f35b92610e357f0d294c5651970c5fab6bc6f2c023263af93bc2c381b1dc76215156cc95ea675d94611b5f565b92610dde565b8480fd5b855162461bcd60e51b8152808301859052600d60248201526c139bdb949959da5cdd195c9959609a1b6044820152606490fd5b5084516318cd26e360e11b8152fd5b5050346102b55760203660031901126102b55760209160ff9082906001600160a01b03610eac611761565b168152600985522054169051908152f35b90503461046e57606036600319011261046e57610ed8611761565b610ee06117a3565b91610ee9611777565b906000805160206124dc833981519152865260209060058252858720338852825260ff610f1a81888a205416611f86565b6001600160a01b03858116808a5260098552888a205490939083161561114b57838a526009855282898b20541683891614611134578186161561111d57838a52600c855282898b20541661110f57885163078f29cf60e01b815285818381885afa908115611105578b916110e8575b50858a518093630a49cb0360e01b825281885afa918b83156110dd5792846009969361105f9a9996937f463ed31e1d62f8f5c6e705351da2df7acad8bd9db349dd63fc5e4458e15ff9049e9996936110be575b50168d848983151592836110a7575b505050611090575b501690811515908161107c575b50611065575b508952600e815282892080546001600160a01b031916905552808720805460ff19169055611035828686612001565b516001600160a01b03938416815260ff909416602085015291909116604083015281906060820190565b0390a180f35b8a52600b8252838a20805460ff1916905538611006565b9050818c52600b8452858c20541638611000565b8d52600a8552868d20805460ff1916905538610ff3565b90919250838152600a8952205416848f8a90610feb565b6110d6919350873d8911610656576106488183611b89565b9138610fdc565b8b51903d90823e3d90fd5b6110ff9150863d8811610656576106488183611b89565b38610f89565b8a513d8d823e3d90fd5b88516318cd26e360e11b8152fd5b60249060038a5191636f915a8560e11b8352820152fd5b60249060028a5191636f915a8560e11b8352820152fd5b60249060018a5191636f915a8560e11b8352820152fd5b839150346102b557826003193601126102b55761117d61178d565b90336001600160a01b0383160361119957906103879135611d8e565b608490602085519162461bcd60e51b8352820152602f60248201527f416363657373436f6e74726f6c3a2063616e206f6e6c792072656e6f756e636560448201526e103937b632b9903337b91039b2b63360891b6064820152fd5b9190503461046e57606036600319011261046e57611210611761565b9061121961178d565b91611222611777565b90858052600560205282862033875260205261124360ff8488205416611de6565b6001600160a01b0390811694851580156112e8575b80156112de575b6112d057509160609391837fbbfb274df95bebde0669697bf0d15986b4ad73e11c495ae4e2d08d1bc5c90bad96946bffffffffffffffffffffffff60a01b9486866006541617600655169182856007541617600755168093600854161760085581519384526020840152820152a180f35b8351633efa09af60e01b8152fd5b508183161561125f565b5081851615611258565b5050346102b557816003193601126102b557600d5490516001600160a01b039091168152602090f35b833461074857806003193601126107485761038733611d05565b90503461046e578160031936011261046e57359061135161178d565b908284526005602052611369600182862001546117f0565b828452600560209081528185206001600160a01b039093168086529290528084205460ff1615611397578380f35b82845260056020528084208285526020528320600160ff19825416179055339160008051602061249c8339815191528480a43880808380f35b5050346102b55760603660031901126102b557610387906113ef611761565b6113f76117a3565b90610c5160ff611405611777565b946000805160206124bc8339815191528852600560205280882033895260205287205416611e3e565b5050346102b5576020908160031936011261046e5761144b611761565b90611458610336336117b3565b6000805160206124bc833981519152928385526005815261147e600183872001546117f0565b838552600581528185206001600160a01b039093168086529281528185205460ff16156114a9578480f35b8385526005815281852083865290528320805460ff19166001179055339160008051602061249c8339815191528480a4388080808480f35b5050346102b55760203660031901126102b55760209160ff9082906001600160a01b0361150c611761565b168152600c855220541690519015158152f35b5050346102b55760203660031901126102b55760ff81602093611540611761565b818052600586528282206001600160a01b039091168252855220549151911615158152f35b90503461046e57602036600319011261046e5781602093600192358152600585522001549051908152f35b5050346102b55760203660031901126102b55760207f1c7847585b331d5fb688c03d1dc8e73e13231744377f3b1e2f5c26e548c621c1916115cf611761565b8480526005835281852033865283526115ed60ff8387205416611de6565b600d80546001600160a01b0319166001600160a01b039290921691821790559051908152a180f35b5050346102b5576020908160031936011261046e57611632611761565b9161163f610336336117b3565b83805260058152611655600183862001546117f0565b838052600581528184206001600160a01b039093168085529281528184205460ff1661167f578380f35b8380526005815281842083855290528220805460ff191690553390826000805160206124fc8339815191528180a43880808380f35b5050346102b557816003193601126102b55760065490516001600160a01b039091168152602090f35b8491843461175d57602036600319011261175d5781359063ffffffff60e01b8216809203610e3b57602094637965db0b60e01b8314938415611724575b5050505015158152f35b6301ffc9a760e01b8414945091929091908415611749575b505050508380808061171a565b60ff9450825285522054168380808061173c565b8380fd5b600435906001600160a01b038216820361061957565b604435906001600160a01b038216820361061957565b602435906001600160a01b038216820361061957565b6024359060ff8216820361061957565b6001600160a01b031660009081527f05b8ccbb9d4d8fb16ea74ce3c29a41f1b461fbdaff4714a0d9a8eb05499746bc602052604090205460ff1690565b60009080825260209060058252604090818420338552835260ff82852054161561181a5750505050565b81519367ffffffffffffffff336060870182811188821017611b28578552602a87528587019385368637875115611b145760308553875191600192831015611b0057607860218a015360295b838111611a965750611a545790855192608084019084821090821117611a4057865260428352868301936060368637835115611a2c57603085538351821015611a2c5790607860218501536041915b8183116119be5750505061197c579261194a604861193b979461196e946044989785519a8b936119128b86019a7f416363657373436f6e74726f6c3a206163636f756e74200000000000000000008c525180926037880190611b3c565b8401917001034b99036b4b9b9b4b733903937b6329607d1b603784015251809386840190611b3c565b01036028810189520187611b89565b5194859362461bcd60e51b8552600485015251809281602486015285850190611b3c565b601f01601f19168101030190fd5b60648585519062461bcd60e51b825280600483015260248201527f537472696e67733a20686578206c656e67746820696e73756666696369656e746044820152fd5b909192600f81166010811015611a18576f181899199a1a9b1b9c1cb0b131b232b360811b901a6119ee8587611dbf565b5360041c928015611a04576000190191906118b5565b634e487b7160e01b82526011600452602482fd5b634e487b7160e01b83526032600452602483fd5b634e487b7160e01b81526032600452602490fd5b634e487b7160e01b85526041600452602485fd5b60648787519062461bcd60e51b825280600483015260248201527f537472696e67733a20686578206c656e67746820696e73756666696369656e746044820152fd5b90600f81166010811015611aec576f181899199a1a9b1b9c1cb0b131b232b360811b901a611ac4838c611dbf565b5360041c908015611ad85760001901611866565b634e487b7160e01b86526011600452602486fd5b634e487b7160e01b87526032600452602487fd5b634e487b7160e01b85526032600452602485fd5b634e487b7160e01b84526032600452602484fd5b634e487b7160e01b84526041600452602484fd5b60005b838110611b4f5750506000910152565b8181015183820152602001611b3f565b67ffffffffffffffff8111611b7357604052565b634e487b7160e01b600052604160045260246000fd5b90601f8019910116810190811067ffffffffffffffff821117611b7357604052565b6001600160a01b0316338103611c2b5760008181527f05b8ccbb9d4d8fb16ea74ce3c29a41f1b461fbdaff4714a0d9a8eb05499746bc602052604081205490919060ff16611bf7575050565b8180526005602052604082208183526020526040822060ff19815416905533916000805160206124fc8339815191528180a4565b60405162461bcd60e51b815260206004820152602f60248201527f416363657373436f6e74726f6c3a2063616e206f6e6c792072656e6f756e636560448201526e103937b632b9903337b91039b2b63360891b6064820152608490fd5b6001600160a01b031660008181527f05b8ccbb9d4d8fb16ea74ce3c29a41f1b461fbdaff4714a0d9a8eb05499746bc602052604081205490919060ff1615611cce575050565b81805260056020526040822081835260205260408220600160ff19825416179055339160008051602061249c8339815191528180a4565b6001600160a01b031660008181527f495d3ec9f3ad8ec6f8443b0a39852d56b07f6b1efbf2c51564addb326b83978660205260408120549091906000805160206124dc8339815191529060ff16611d5b57505050565b8083526005602052604083208284526020526040832060ff1981541690556000805160206124fc833981519152339380a4565b906000918083526005602052604083209160018060a01b03169182845260205260ff604084205416611d5b57505050565b908151811015611dd0570160200190565b634e487b7160e01b600052603260045260246000fd5b15611ded57565b60405162461bcd60e51b815260206004820152602360248201527f41757468436f6e74726f6c3a2043616c6c6572206973206e6f7420616e20616460448201526236b4b760e91b6064820152608490fd5b15611e4557565b60405162461bcd60e51b8152602060048201526024808201527f41757468436f6e74726f6c3a2043616c6c6572206973206e6f742061206d616e60448201526330b3b2b960e11b6064820152608490fd5b6000805160206124bc833981519152600081815260056020527f67f351182989509d05df317024ac600e03d0c404c1b07ecdc5d72ea1208a722b5490929190611ede906117f0565b8083526005602052604083209160018060a01b03169182845260205260ff604084205416611d5b57505050565b15611f1257565b60405162461bcd60e51b815260206004820152600f60248201526e2832b936b4b9b9b4b7b722b93937b960891b6044820152606490fd5b919060018060a01b038316600052600c60205260ff60406000205416611f7457611f7292612001565b565b6040516318cd26e360e11b8152600490fd5b15611f8d57565b60405162461bcd60e51b815260206004820152602760248201527f41757468436f6e74726f6c3a2043616c6c6572206973206e6f742061207265676044820152661a5cdd1c985b9d60ca1b6064820152608490fd5b9081602091031261061957516001600160a01b03811681036106195790565b6001600160a01b03939284811680156122f45760ff8416801580156122ea575b6122d1578684166000918183526020916009835260409960ff8b862054166122b95761204d898961230c565b156122a157600183148015612297575b6121e6575b600283146120e8575b50835260098252888320805460ff19169091179055600e905286902080546001600160a01b031916909117905593516001600160a01b03918216815260ff9290921660208301529092166040830152907fed5e6b6d02313cca8b10582adc2e959bce2271ec2b38da9d9239a1d0890488569080606081015b0390a1565b8a51630a49cb0360e01b8152908482600481865afa9182156121dc5786926121bd575b50811680156121ac578552600b84528a8520805460ff191660011790558a516001600160a01b03898116825291909116602082015298997fed5e6b6d02313cca8b10582adc2e959bce2271ec2b38da9d9239a1d089048856996120e397969195919486949293600e9391927ff8bdba0336133f3634bf70846cd60e94e3b9dd7ce3a59c5831262cfdb636d00690604090a1939650939b9a509395965061206b565b8b51631477227360e01b8152600490fd5b6121d5919250853d8711610656576106488183611b89565b903861210b565b8c513d88823e3d90fd5b8a5163078f29cf60e01b81528481600481865afa9081156121dc57869161227a575b508181168015612269578652600a85528b8620805460ff191660011790558b516001600160a01b038a811682529190911660208201527f43251870f9292d3c0a61a78baa68c9f29d70ea868008a66d8afdb4d574f2c23190604090a1612062565b8c5163e0fec00360e01b8152600490fd5b6122919150853d8711610656576106488183611b89565b38612208565b506002831461205d565b8a5163472ed10360e01b815260036004820152602490fd5b8a5163472ed10360e01b815260026004820152602490fd5b60405163472ed10360e01b815260016004820152602490fd5b5060028111612021565b60405163472ed10360e01b8152600480820152602490fd5b919060009260009060018060a01b03809116918281526020600c815260ff9360409385858520541615612343575b50505050505050565b845163078f29cf60e01b81528381600481865afa908115612491579082918691612474575b50169687612377575b5061233a565b8616600181036123cd5750508252600981528383832054161594856123b7575b50505050506123ae575b3880808080808080612371565b600191506123a1565b8252600a90522054161590503880808080612397565b600291929750146123e4575b5050505050506123a1565b8351630a49cb0360e01b815282816004818a5afa90811561065d578491612457575b50169485156123d957825260098152838383205416159485612441575b5050505050612438575b3880808080806123d9565b6001915061242d565b8252600b90522054161590503880808080612423565b61246e9150833d8511610656576106488183611b89565b38612406565b61248b9150853d8711610656576106488183611b89565b38612368565b86513d87823e3d90fdfe2f8788117e7eff1d82e926ec794901d17c78024a50270940304540a733656f0daf290d8680820aad922855f39b306097b20e28774d6c1ad35a20325630c3a02c12090aa55130d5a2442eb84fc286ca6e600db6c50b6c5d9b6d0d929f0e2d8ce8f6391f5c32d9c69d2a47ea670b442974b53935d1edc7fd64eb21e047a839171ba164736f6c6343000813000a",
  "linkReferences": {},
  "deployedLinkReferences": {}
}