{
  "_format": "hh-sol-artifact-1",
  "contractName": "L1BridgeRegistryV1_1",
  "sourceName": "contracts/layer2/L1BridgeRegistryV1_1.sol",
  "abi": [
    {
      "inputs": [],
      "stateMutability": "nonpayable",
      "type": "constructor"
    },
    {
      "inputs": [],
      "name": "BridgeError",
      "type": "error"
    },
    {
      "inputs": [
        {
          "internalType": "uint256",
          "name": "x",
          "type": "uint256"
        }
      ],
      "name": "ChangeError",
      "type": "error"
    },
    {
      "inputs": [],
      "name": "NonRejectedError",
      "type": "error"
    },
    {
      "inputs": [],
      "name": "OnlyRejectedError",
      "type": "error"
    },
    {
      "inputs": [],
      "name": "PortalError",
      "type": "error"
    },
    {
      "inputs": [
        {
          "internalType": "uint256",
          "name": "x",
          "type": "uint256"
        }
      ],
      "name": "RegisterError",
      "type": "error"
    },
    {
      "inputs": [],
      "name": "ZeroAddressError",
      "type": "error"
    },
    {
      "anonymous": false,
      "inputs": [
        {
          "indexed": false,
          "internalType": "address",
          "name": "rollupConfig",
          "type": "address"
        },
        {
          "indexed": false,
          "internalType": "address",
          "name": "bridge",
          "type": "address"
        }
      ],
      "name": "AddedBridge",
      "type": "event"
    },
    {
      "anonymous": false,
      "inputs": [
        {
          "indexed": false,
          "internalType": "address",
          "name": "rollupConfig",
          "type": "address"
        },
        {
          "indexed": false,
          "internalType": "address",
          "name": "portal",
          "type": "address"
        }
      ],
      "name": "AddedPortal",
      "type": "event"
    },
    {
      "anonymous": false,
      "inputs": [
        {
          "indexed": false,
          "internalType": "address",
          "name": "rollupConfig",
          "type": "address"
        },
        {
          "indexed": false,
          "internalType": "uint8",
          "name": "type_",
          "type": "uint8"
        },
        {
          "indexed": false,
          "internalType": "address",
          "name": "l2TON",
          "type": "address"
        },
        {
          "indexed": false,
          "internalType": "string",
          "name": "name",
          "type": "string"
        }
      ],
      "name": "ChangedType",
      "type": "event"
    },
    {
      "anonymous": false,
      "inputs": [
        {
          "indexed": false,
          "internalType": "address",
          "name": "rollupConfig",
          "type": "address"
        },
        {
          "indexed": false,
          "internalType": "uint8",
          "name": "type_",
          "type": "uint8"
        },
        {
          "indexed": false,
          "internalType": "address",
          "name": "l2TON",
          "type": "address"
        },
        {
          "indexed": false,
          "internalType": "string",
          "name": "name",
          "type": "string"
        }
      ],
      "name": "RegisteredRollupConfig",
      "type": "event"
    },
    {
      "anonymous": false,
      "inputs": [
        {
          "indexed": false,
          "internalType": "address",
          "name": "rollupConfig",
          "type": "address"
        }
      ],
      "name": "RejectedCandidateAddOn",
      "type": "event"
    },
    {
      "anonymous": false,
      "inputs": [
        {
          "indexed": false,
          "internalType": "address",
          "name": "rollupConfig",
          "type": "address"
        }
      ],
      "name": "RestoredCandidateAddOn",
      "type": "event"
    },
    {
      "anonymous": false,
      "inputs": [
        {
          "indexed": true,
          "internalType": "bytes32",
          "name": "role",
          "type": "bytes32"
        },
        {
          "indexed": true,
          "internalType": "bytes32",
          "name": "previousAdminRole",
          "type": "bytes32"
        },
        {
          "indexed": true,
          "internalType": "bytes32",
          "name": "newAdminRole",
          "type": "bytes32"
        }
      ],
      "name": "RoleAdminChanged",
      "type": "event"
    },
    {
      "anonymous": false,
      "inputs": [
        {
          "indexed": true,
          "internalType": "bytes32",
          "name": "role",
          "type": "bytes32"
        },
        {
          "indexed": true,
          "internalType": "address",
          "name": "account",
          "type": "address"
        },
        {
          "indexed": true,
          "internalType": "address",
          "name": "sender",
          "type": "address"
        }
      ],
      "name": "RoleGranted",
      "type": "event"
    },
    {
      "anonymous": false,
      "inputs": [
        {
          "indexed": true,
          "internalType": "bytes32",
          "name": "role",
          "type": "bytes32"
        },
        {
          "indexed": true,
          "internalType": "address",
          "name": "account",
          "type": "address"
        },
        {
          "indexed": true,
          "internalType": "address",
          "name": "sender",
          "type": "address"
        }
      ],
      "name": "RoleRevoked",
      "type": "event"
    },
    {
      "anonymous": false,
      "inputs": [
        {
          "indexed": false,
          "internalType": "address",
          "name": "_layer2Manager",
          "type": "address"
        },
        {
          "indexed": false,
          "internalType": "address",
          "name": "_seigManager",
          "type": "address"
        },
        {
          "indexed": false,
          "internalType": "address",
          "name": "_ton",
          "type": "address"
        }
      ],
      "name": "SetAddresses",
      "type": "event"
    },
    {
      "anonymous": false,
      "inputs": [
        {
          "indexed": false,
          "internalType": "address",
          "name": "rollupConfig",
          "type": "address"
        },
        {
          "indexed": false,
          "internalType": "bool",
          "name": "rejectedL2Deposit",
          "type": "bool"
        }
      ],
      "name": "SetBlockingL2Deposit",
      "type": "event"
    },
    {
      "anonymous": false,
      "inputs": [
        {
          "indexed": false,
          "internalType": "address",
          "name": "_seigniorageCommittee",
          "type": "address"
        }
      ],
      "name": "SetSeigniorageCommittee",
      "type": "event"
    },
    {
      "inputs": [],
      "name": "DEFAULT_ADMIN_ROLE",
      "outputs": [
        {
          "internalType": "bytes32",
          "name": "",
          "type": "bytes32"
        }
      ],
      "stateMutability": "view",
      "type": "function"
    },
    {
      "inputs": [],
      "name": "MANAGER_ROLE",
      "outputs": [
        {
          "internalType": "bytes32",
          "name": "",
          "type": "bytes32"
        }
      ],
      "stateMutability": "view",
      "type": "function"
    },
    {
      "inputs": [],
      "name": "REGISTRANT_ROLE",
      "outputs": [
        {
          "internalType": "bytes32",
          "name": "",
          "type": "bytes32"
        }
      ],
      "stateMutability": "view",
      "type": "function"
    },
    {
      "inputs": [
        {
          "internalType": "address",
          "name": "account",
          "type": "address"
        }
      ],
      "name": "addAdmin",
      "outputs": [],
      "stateMutability": "nonpayable",
      "type": "function"
    },
    {
      "inputs": [
        {
          "internalType": "address",
          "name": "account",
          "type": "address"
        }
      ],
      "name": "addManager",
      "outputs": [],
      "stateMutability": "nonpayable",
      "type": "function"
    },
    {
      "inputs": [
        {
          "internalType": "address",
          "name": "account",
          "type": "address"
        }
      ],
      "name": "addRegistrant",
      "outputs": [],
      "stateMutability": "nonpayable",
      "type": "function"
    },
    {
      "inputs": [
        {
          "internalType": "address",
          "name": "",
          "type": "address"
        }
      ],
      "name": "aliveImplementation",
      "outputs": [
        {
          "internalType": "bool",
          "name": "",
          "type": "bool"
        }
      ],
      "stateMutability": "view",
      "type": "function"
    },
    {
      "inputs": [
        {
          "internalType": "address",
          "name": "rollupConfig",
          "type": "address"
        },
        {
          "internalType": "uint8",
          "name": "_type",
          "type": "uint8"
        },
        {
          "internalType": "string",
          "name": "_name",
          "type": "string"
        }
      ],
      "name": "availableForRegistration",
      "outputs": [
        {
          "internalType": "bool",
          "name": "valid",
          "type": "bool"
        }
      ],
      "stateMutability": "view",
      "type": "function"
    },
    {
      "inputs": [
        {
          "internalType": "address",
          "name": "rollupConfig",
          "type": "address"
        },
        {
          "internalType": "uint8",
          "name": "_type",
          "type": "uint8"
        },
        {
          "internalType": "address",
          "name": "_l2TON",
          "type": "address"
        },
        {
          "internalType": "string",
          "name": "_name",
          "type": "string"
        }
      ],
      "name": "changeType",
      "outputs": [],
      "stateMutability": "nonpayable",
      "type": "function"
    },
    {
      "inputs": [
        {
          "internalType": "bytes32",
          "name": "role",
          "type": "bytes32"
        }
      ],
      "name": "getRoleAdmin",
      "outputs": [
        {
          "internalType": "bytes32",
          "name": "",
          "type": "bytes32"
        }
      ],
      "stateMutability": "view",
      "type": "function"
    },
    {
      "inputs": [
        {
          "internalType": "address",
          "name": "rollupConfig",
          "type": "address"
        }
      ],
      "name": "getRollupInfo",
      "outputs": [
        {
          "internalType": "uint8",
          "name": "type_",
          "type": "uint8"
        },
        {
          "internalType": "address",
          "name": "l2TON_",
          "type": "address"
        },
        {
          "internalType": "bool",
          "name": "rejectedSeigs_",
          "type": "bool"
        },
        {
          "internalType": "bool",
          "name": "rejectedL2Deposit_",
          "type": "bool"
        },
        {
          "internalType": "string",
          "name": "name_",
          "type": "string"
        }
      ],
      "stateMutability": "view",
      "type": "function"
    },
    {
      "inputs": [
        {
          "internalType": "bytes32",
          "name": "role",
          "type": "bytes32"
        },
        {
          "internalType": "address",
          "name": "account",
          "type": "address"
        }
      ],
      "name": "grantRole",
      "outputs": [],
      "stateMutability": "nonpayable",
      "type": "function"
    },
    {
      "inputs": [
        {
          "internalType": "bytes32",
          "name": "role",
          "type": "bytes32"
        },
        {
          "internalType": "address",
          "name": "account",
          "type": "address"
        }
      ],
      "name": "hasRole",
      "outputs": [
        {
          "internalType": "bool",
          "name": "",
          "type": "bool"
        }
      ],
      "stateMutability": "view",
      "type": "function"
    },
    {
      "inputs": [
        {
          "internalType": "address",
          "name": "account",
          "type": "address"
        }
      ],
      "name": "isAdmin",
      "outputs": [
        {
          "internalType": "bool",
          "name": "",
          "type": "bool"
        }
      ],
      "stateMutability": "view",
      "type": "function"
    },
    {
      "inputs": [
        {
          "internalType": "address",
          "name": "account",
          "type": "address"
        }
      ],
      "name": "isManager",
      "outputs": [
        {
          "internalType": "bool",
          "name": "",
          "type": "bool"
        }
      ],
      "stateMutability": "view",
      "type": "function"
    },
    {
      "inputs": [],
      "name": "isOwner",
      "outputs": [
        {
          "internalType": "bool",
          "name": "",
          "type": "bool"
        }
      ],
      "stateMutability": "view",
      "type": "function"
    },
    {
      "inputs": [
        {
          "internalType": "address",
          "name": "account",
          "type": "address"
        }
      ],
      "name": "isRegistrant",
      "outputs": [
        {
          "internalType": "bool",
          "name": "",
          "type": "bool"
        }
      ],
      "stateMutability": "view",
      "type": "function"
    },
    {
      "inputs": [
        {
          "internalType": "address",
          "name": "rollupConfig",
          "type": "address"
        }
      ],
      "name": "isRejectedL2Deposit",
      "outputs": [
        {
          "internalType": "bool",
          "name": "rejectedL2Deposit",
          "type": "bool"
        }
      ],
      "stateMutability": "view",
      "type": "function"
    },
    {
      "inputs": [
        {
          "internalType": "address",
          "name": "rollupConfig",
          "type": "address"
        }
      ],
      "name": "isRejectedSeigs",
      "outputs": [
        {
          "internalType": "bool",
          "name": "rejectedSeigs",
          "type": "bool"
        }
      ],
      "stateMutability": "view",
      "type": "function"
    },
    {
      "inputs": [
        {
          "internalType": "address",
          "name": "",
          "type": "address"
        }
      ],
      "name": "l1Bridge",
      "outputs": [
        {
          "internalType": "bool",
          "name": "",
          "type": "bool"
        }
      ],
      "stateMutability": "view",
      "type": "function"
    },
    {
      "inputs": [
        {
          "internalType": "address",
          "name": "rollupConfig",
          "type": "address"
        }
      ],
      "name": "l2TON",
      "outputs": [
        {
          "internalType": "address",
          "name": "l2TonAddress",
          "type": "address"
        }
      ],
      "stateMutability": "view",
      "type": "function"
    },
    {
      "inputs": [],
      "name": "layer2Manager",
      "outputs": [
        {
          "internalType": "address",
          "name": "",
          "type": "address"
        }
      ],
      "stateMutability": "view",
      "type": "function"
    },
    {
      "inputs": [
        {
          "internalType": "address",
          "name": "rollupConfig",
          "type": "address"
        }
      ],
      "name": "layer2TVL",
      "outputs": [
        {
          "internalType": "uint256",
          "name": "amount",
          "type": "uint256"
        }
      ],
      "stateMutability": "view",
      "type": "function"
    },
    {
      "inputs": [],
      "name": "pauseProxy",
      "outputs": [
        {
          "internalType": "bool",
          "name": "",
          "type": "bool"
        }
      ],
      "stateMutability": "view",
      "type": "function"
    },
    {
      "inputs": [
        {
          "internalType": "address",
          "name": "",
          "type": "address"
        }
      ],
      "name": "portal",
      "outputs": [
        {
          "internalType": "bool",
          "name": "",
          "type": "bool"
        }
      ],
      "stateMutability": "view",
      "type": "function"
    },
    {
      "inputs": [
        {
          "internalType": "uint256",
          "name": "",
          "type": "uint256"
        }
      ],
      "name": "proxyImplementation",
      "outputs": [
        {
          "internalType": "address",
          "name": "",
          "type": "address"
        }
      ],
      "stateMutability": "view",
      "type": "function"
    },
    {
      "inputs": [
        {
          "internalType": "address",
          "name": "rollupConfig",
          "type": "address"
        },
        {
          "internalType": "uint8",
          "name": "_type",
          "type": "uint8"
        },
        {
          "internalType": "address",
          "name": "_l2TON",
          "type": "address"
        },
        {
          "internalType": "string",
          "name": "_name",
          "type": "string"
        }
      ],
      "name": "registerRollupConfig",
      "outputs": [],
      "stateMutability": "nonpayable",
      "type": "function"
    },
    {
      "inputs": [
        {
          "internalType": "address",
          "name": "rollupConfig",
          "type": "address"
        },
        {
          "internalType": "uint8",
          "name": "_type",
          "type": "uint8"
        },
        {
          "internalType": "address",
          "name": "_l2TON",
          "type": "address"
        }
      ],
      "name": "registerRollupConfig",
      "outputs": [],
      "stateMutability": "nonpayable",
      "type": "function"
    },
    {
      "inputs": [
        {
          "internalType": "address",
          "name": "rollupConfig",
          "type": "address"
        },
        {
          "internalType": "uint8",
          "name": "_type",
          "type": "uint8"
        },
        {
          "internalType": "address",
          "name": "_l2TON",
          "type": "address"
        }
      ],
      "name": "registerRollupConfigByManager",
      "outputs": [],
      "stateMutability": "nonpayable",
      "type": "function"
    },
    {
      "inputs": [
        {
          "internalType": "address",
          "name": "rollupConfig",
          "type": "address"
        },
        {
          "internalType": "uint8",
          "name": "_type",
          "type": "uint8"
        },
        {
          "internalType": "address",
          "name": "_l2TON",
          "type": "address"
        },
        {
          "internalType": "string",
          "name": "_name",
          "type": "string"
        }
      ],
      "name": "registerRollupConfigByManager",
      "outputs": [],
      "stateMutability": "nonpayable",
      "type": "function"
    },
    {
      "inputs": [
        {
          "internalType": "bytes32",
          "name": "",
          "type": "bytes32"
        }
      ],
      "name": "registeredNames",
      "outputs": [
        {
          "internalType": "bool",
          "name": "",
          "type": "bool"
        }
      ],
      "stateMutability": "view",
      "type": "function"
    },
    {
      "inputs": [
        {
          "internalType": "address",
          "name": "rollupConfig",
          "type": "address"
        }
      ],
      "name": "rejectCandidateAddOn",
      "outputs": [],
      "stateMutability": "nonpayable",
      "type": "function"
    },
    {
      "inputs": [
        {
          "internalType": "address",
          "name": "rollupConfig",
          "type": "address"
        }
      ],
      "name": "rejectRollupConfig",
      "outputs": [
        {
          "internalType": "bool",
          "name": "rejectedSeigs",
          "type": "bool"
        }
      ],
      "stateMutability": "view",
      "type": "function"
    },
    {
      "inputs": [
        {
          "internalType": "address",
          "name": "account",
          "type": "address"
        }
      ],
      "name": "removeAdmin",
      "outputs": [],
      "stateMutability": "nonpayable",
      "type": "function"
    },
    {
      "inputs": [
        {
          "internalType": "address",
          "name": "account",
          "type": "address"
        }
      ],
      "name": "removeManager",
      "outputs": [],
      "stateMutability": "nonpayable",
      "type": "function"
    },
    {
      "inputs": [
        {
          "internalType": "address",
          "name": "account",
          "type": "address"
        }
      ],
      "name": "removeRegistrant",
      "outputs": [],
      "stateMutability": "nonpayable",
      "type": "function"
    },
    {
      "inputs": [],
      "name": "renounceManager",
      "outputs": [],
      "stateMutability": "nonpayable",
      "type": "function"
    },
    {
      "inputs": [],
      "name": "renounceOwnership",
      "outputs": [],
      "stateMutability": "nonpayable",
      "type": "function"
    },
    {
      "inputs": [],
      "name": "renounceRegistrant",
      "outputs": [],
      "stateMutability": "nonpayable",
      "type": "function"
    },
    {
      "inputs": [
        {
          "internalType": "bytes32",
          "name": "role",
          "type": "bytes32"
        },
        {
          "internalType": "address",
          "name": "account",
          "type": "address"
        }
      ],
      "name": "renounceRole",
      "outputs": [],
      "stateMutability": "nonpayable",
      "type": "function"
    },
    {
      "inputs": [
        {
          "internalType": "address",
          "name": "rollupConfig",
          "type": "address"
        },
        {
          "internalType": "bool",
          "name": "rejectedL2Deposit",
          "type": "bool"
        }
      ],
      "name": "restoreCandidateAddOn",
      "outputs": [],
      "stateMutability": "nonpayable",
      "type": "function"
    },
    {
      "inputs": [
        {
          "internalType": "address",
          "name": "account",
          "type": "address"
        }
      ],
      "name": "revokeManager",
      "outputs": [],
      "stateMutability": "nonpayable",
      "type": "function"
    },
    {
      "inputs": [
        {
          "internalType": "address",
          "name": "account",
          "type": "address"
        }
      ],
      "name": "revokeRegistrant",
      "outputs": [],
      "stateMutability": "nonpayable",
      "type": "function"
    },
    {
      "inputs": [
        {
          "internalType": "bytes32",
          "name": "role",
          "type": "bytes32"
        },
        {
          "internalType": "address",
          "name": "account",
          "type": "address"
        }
      ],
      "name": "revokeRole",
      "outputs": [],
      "stateMutability": "nonpayable",
      "type": "function"
    },
    {
      "inputs": [
        {
          "internalType": "address",
          "name": "",
          "type": "address"
        }
      ],
      "name": "rollupInfo",
      "outputs": [
        {
          "internalType": "uint8",
          "name": "rollupType",
          "type": "uint8"
        },
        {
          "internalType": "address",
          "name": "l2TON",
          "type": "address"
        },
        {
          "internalType": "bool",
          "name": "rejectedSeigs",
          "type": "bool"
        },
        {
          "internalType": "bool",
          "name": "rejectedL2Deposit",
          "type": "bool"
        },
        {
          "internalType": "string",
          "name": "name",
          "type": "string"
        }
      ],
      "stateMutability": "view",
      "type": "function"
    },
    {
      "inputs": [
        {
          "internalType": "address",
          "name": "rollupConfig",
          "type": "address"
        }
      ],
      "name": "rollupType",
      "outputs": [
        {
          "internalType": "uint8",
          "name": "rollupType_",
          "type": "uint8"
        }
      ],
      "stateMutability": "view",
      "type": "function"
    },
    {
      "inputs": [],
      "name": "seigManager",
      "outputs": [
        {
          "internalType": "address",
          "name": "",
          "type": "address"
        }
      ],
      "stateMutability": "view",
      "type": "function"
    },
    {
      "inputs": [],
      "name": "seigniorageCommittee",
      "outputs": [
        {
          "internalType": "address",
          "name": "",
          "type": "address"
        }
      ],
      "stateMutability": "view",
      "type": "function"
    },
    {
      "inputs": [
        {
          "internalType": "bytes4",
          "name": "",
          "type": "bytes4"
        }
      ],
      "name": "selectorImplementation",
      "outputs": [
        {
          "internalType": "address",
          "name": "",
          "type": "address"
        }
      ],
      "stateMutability": "view",
      "type": "function"
    },
    {
      "inputs": [
        {
          "internalType": "address",
          "name": "_layer2Manager",
          "type": "address"
        },
        {
          "internalType": "address",
          "name": "_seigManager",
          "type": "address"
        },
        {
          "internalType": "address",
          "name": "_ton",
          "type": "address"
        }
      ],
      "name": "setAddresses",
      "outputs": [],
      "stateMutability": "nonpayable",
      "type": "function"
    },
    {
      "inputs": [
        {
          "internalType": "address",
          "name": "_seigniorageCommittee",
          "type": "address"
        }
      ],
      "name": "setSeigniorageCommittee",
      "outputs": [],
      "stateMutability": "nonpayable",
      "type": "function"
    },
    {
      "inputs": [
        {
          "internalType": "bytes4",
          "name": "interfaceId",
          "type": "bytes4"
        }
      ],
      "name": "supportsInterface",
      "outputs": [
        {
          "internalType": "bool",
          "name": "",
          "type": "bool"
        }
      ],
      "stateMutability": "view",
      "type": "function"
    },
    {
      "inputs": [],
      "name": "ton",
      "outputs": [
        {
          "internalType": "address",
          "name": "",
          "type": "address"
        }
      ],
      "stateMutability": "view",
      "type": "function"
    },
    {
      "inputs": [
        {
          "internalType": "address",
          "name": "newAdmin",
          "type": "address"
        }
      ],
      "name": "transferAdmin",
      "outputs": [],
      "stateMutability": "nonpayable",
      "type": "function"
    },
    {
      "inputs": [
        {
          "internalType": "address",
          "name": "newAdmin",
          "type": "address"
        }
      ],
      "name": "transferOwnership",
      "outputs": [],
      "stateMutability": "nonpayable",
      "type": "function"
    }
  ],
  "bytecode": "0x6080806040523461001657612d6b908161001c8239f35b600080fdfe6080806040526004908136101561001557600080fd5b600091823560e01c91826301ffc9a714611af05750816316b5d5bd14611ac75781631785f53c14611a265781631c564985146119a05781631d4c9c8814611957578163248a9ca31461192a57816324d7806c146118e357816325b9535f146118b45781632977c31f14610bc75781632d06177a146118005781632f02c3e0146117a25781632f2ff15d146117065781633163b4b5146116ae57816335556fe31461169457816335583e6c1461166b578163363bf9641461156a57816336568abe146114d9578163377e32e614610a6b578163391e3b371461149c5781634b49264c1461134d5781634b7aa5d41461130e5781634fb1aee6146111e957816350d2a276146111a5578163550d01a31461116657816363a8fd89146111445781636af685c114610d775781636e91948d14610cf95781636f5b142b14610cd05781636fb7f55814610ca75781637048027514610c66578163715018a614610c4c57816375829def14610c2457816386ad05b614610bcc57816388462d0714610bc75781638cfc934714610b785781638f32d59b14610b3f57816391d1485414610af4578163a217fddf14610ad8578163a2cc097914610a99578163ac18de4314610a6b578163b30347c014610a2c578163b911135f146109f9578163bbfcfc1e14610930578163c50b84e6146108cb578163c81ae6db146106a4578163cc48b9471461067b578163d00491c614610627578163d3c215d8146105c1578163d547741f14610583578163e65906e014610541578163ec87621c14610518578163f2fde38b1461041657508063f3ae2415146103be578063f5e9b26b1461031a5763f8b91abe1461028157600080fd5b346103175780600319360112610317573360009081527f67f351182989509d05df317024ac600e03d0c404c1b07ecdc5d72ea1208a722a6020526040902054600080516020612cff8339815191529060ff166102db575080f35b806000526005602052604060002033600052602052604060002060ff19815416905533903390600080516020612d3f833981519152600080a480f35b80fd5b5034610317576020366003190112610317576001600160a01b039060409082610341611b6b565b168152600a60205220906103ba60405161035a81611cf1565b835460ff811682526020820193808260081c16855260ff61039960016040860198838660a81c1615158a5283606088019660b01c161515865201611d4b565b93846080820152511694511694511515905115159060405195869586611e39565b0390f35b50346103175760203660031901126103175760406103da611b6b565b91600080516020612cff83398151915281526005602052209060018060a01b0316600052602052602060ff604060002054166040519015158152f35b90503461051457602036600319011261051457610431611b6b565b9061044361043e33611e73565b612421565b61044f61043e33611e73565b6001600160a01b03821680156104d057331461049357506104879082805260056020526104826001604085200154611eb0565b6122c3565b610490336121e6565b80f35b60649060206040519162461bcd60e51b8352820152601660248201527520b1b1b2b9b9b4b136329d1039b0b6b29030b236b4b760511b6044820152fd5b60405162461bcd60e51b8152602081840152601860248201527f41636365737369626c653a207a65726f206164647265737300000000000000006044820152606490fd5b5080fd5b82346103175780600319360112610317576020604051600080516020612cff8339815191528152f35b82346103175760203660031901126103175760209060ff906040906001600160a01b0361056c611b6b565b168152600a8452205460b01c166040519015158152f35b9050346105145760403660031901126105145761049090356105a3611b97565b9080845260056020526105bc6001604086200154611eb0565b6123c9565b8234610317576020366003190112610317576001600160a01b0390604090826105e8611b6b565b168152600a60205220906103ba610603600184549401611d4b565b60405193849360ff8260b01c169160ff808260a81c16928260081c16911686611e39565b823461031757602036600319011261031757610490610644611b6b565b61065061043e33611e73565b600080516020612d1f833981519152835260056020526106766001604085200154611eb0565b612340565b82346103175780600319360112610317576008546040516001600160a01b039091168152602090f35b9050346105145760209182600319360112610317576106c1611b6b565b918192818560018060a01b03809316808652600a825260ff604087205416600181146000146107e9575060405163078f29cf60e01b815292839182905afa9081156107de57918091879386916107b1575b501690818552600b835260ff604086205416610737575b50505050505b604051908152f35b6024919293949550600854169360405194859384926370a0823160e01b84528301525afa9182156107a55791610773575b503880838180610729565b90508181813d831161079e575b61078a8183611d29565b81010312610799575138610768565b600080fd5b503d610780565b604051903d90823e3d90fd5b6107d19150843d86116107d7575b6107c98183611d29565b810190612627565b38610712565b503d6107bf565b6040513d86823e3d90fd5b6002919350146107fe575b505050505061072f565b604051630a49cb0360e01b8152918290859082905afa9081156107de57918091879386916108ae575b501690818552600c835260ff604086205416610845575b50816107f4565b6024919293949550600854169360405194859384926370a0823160e01b84528301525afa9182156107a55791610881575b50388083818061083e565b90508181813d83116108a7575b6108988183611d29565b81010312610799575138610876565b503d61088e565b6108c59150843d86116107d7576107c98183611d29565b38610827565b905034610514576060366003190112610514576108e6611b6b565b906108ef611bad565b926044359067ffffffffffffffff8211610317576020610926868661092061091936888a01611bbd565b3691612584565b50612b04565b6040519015158152f35b8234610317576020806003193601126105145761094b611b6b565b600080516020612cff8339815191528352600582526040832033600052825261097b60ff60406000205416612479565b600080516020612d1f83398151915291826000526005815260406000209160018060a01b03169182600052815260ff60406000205416156109ba578380f35b826000526005815260406000209082600052526040600020600160ff198254161790553391600080516020612cdf833981519152600080a48180808380f35b905034610514576020366003190112610514579060209135815260018252604060018060a01b0391205416604051908152f35b82346103175760203660031901126103175760209060ff906040906001600160a01b03610a57611b6b565b168152600b84522054166040519015158152f35b823461031757602036600319011261031757610490610a88611b6b565b610a9461043e33611e73565b6124d1565b82346103175760203660031901126103175760209060ff906040906001600160a01b03610ac4611b6b565b168152600c84522054166040519015158152f35b8234610317578060031936011261031757602090604051908152f35b823461031757604036600319011261031757604090610b11611b97565b923581526005602052209060018060a01b0316600052602052602060ff604060002054166040519015158152f35b823461031757806003193601126103175780806040925260056020522033600052602052602060ff604060002054166040519015158152f35b823461031757602036600319011261031757610490610b95611b6b565b600080516020612cff83398151915283526005602052604083203360005260205261067660ff60406000205416612479565b611c4b565b8234610317576020366003190112610317576040610be8611b6b565b91600080516020612d1f83398151915281526005602052209060018060a01b0316600052602052602060ff604060002054166040519015158152f35b90503461051457602036600319011261051457610c3f611b6b565b9061044f61043e33611e73565b8234610317578060031936011261031757610490336121e6565b823461031757602036600319011261031757610490610c83611b6b565b610c8f61043e33611e73565b82805260056020526104826001604085200154611eb0565b82346103175780600319360112610317576007546040516001600160a01b039091168152602090f35b82346103175780600319360112610317576020604051600080516020612d1f8339815191528152f35b823461031757606036600319011261031757610490610d16611b6b565b610d1e611bad565b610d26611b81565b90600080516020612d1f833981519152855260056020526040852033600052602052610d5960ff604060002054166125cb565b610d6283612646565b60405192610d6f84611d0d565b858452612693565b90503461051457610d8736611beb565b9094929391600080516020612d1f833981519152875260056020526040872033600052602052610dbe60ff604060002054166125cb565b6001600160a01b0383168752600a6020526040808820905190610e1e90600190610de784611cf1565b60ff81548181168652838060a01b038160081c166020870152818160a81c161515604087015260b01c161515606085015201611d4b565b608082015260ff8151161561112c5760ff90511660ff861614611114576001600160a01b038116156110fc5781156110e4576001600160a01b0383168752600a60205260408720805490969060a81c60ff166110d35760405163078f29cf60e01b81529160208387816001600160a01b0389165afa9283156110a75789936110b2575b50604051630a49cb0360e01b8152956020908790816001600160a01b0389165afa9586156110a7577f5260076e8db4ab859cb61bfb44f01112e492e853d3e7af965d698c8ef6e76d1b9860a09786956000938d92611086575b5060001960018b1b01168015158d8161106e575b50611055575b506001808a1b03168015158061103f575b611026575b506001810190610f3a8254611c8d565b82601f8211611019575b549060208110611008575b508c52600d60205260408c20805460ff1916905580546001600160b81b03191690558054610f7c90611c8d565b601f8111610fe9575b5055610f9d610f95368585612584565b828988612693565b60ff6040519788966001808a1b03168752166020860152600180871b0316604085015260806060850152816080850152848401378181018301869052601f01601f19168101030190a180f35b8183526020832061100291601f0160051c81019061267c565b38610f85565b84199060200360031b1b1638610f4f565b50828d5260208d20610f44565b8b52600c60205260408b20805460ff1916905538610f2a565b50808c52600c60205260ff60408d205416610f25565b8c52600b60205260408c20805460ff1916905538610f14565b60ff9150808360409252600b6020522054168d610f0e565b6110a091925060203d6020116107d7576107c98183611d29565b9038610efa565b6040513d8b823e3d90fd5b6110cc91935060203d6020116107d7576107c98183611d29565b9138610ea1565b6040516318cd26e360e11b81528590fd5b604051636f915a8560e11b8152808501859052602490fd5b604051636f915a8560e11b8152600381860152602490fd5b604051636f915a8560e11b8152600281860152602490fd5b604051636f915a8560e11b8152600181870152602490fd5b823461031757806003193601126103175760ff60209154166040519015158152f35b82346103175760203660031901126103175760209060ff906040906001600160a01b03611191611b6b565b168152600284522054166040519015158152f35b905034610514576020366003190112610514573563ffffffff60e01b81168091036105145790602091815260038252604060018060a01b0391205416604051908152f35b90503461051457604036600319011261051457611204611b6b565b906024359182151580930361130a576009546001600160a01b0391829161122e9083163314612546565b1692838552600a60205260ff604086205460a81c16156112f957838552600a60205260408520805461ffff60a81b191660b09290921b60ff60b01b169190911790556006548492911690813b156112f557836024849283604051958694859363d523c07760e01b85528401525af180156112ea576112d6575b507fbc89b42e2b372c8e9e1d48bb5dc897d26927cbe07da9bff7d167d0dbef68e9b3602083604051908152a180f35b6112df90611cc7565b6105145781386112a7565b6040513d84823e3d90fd5b8280fd5b6040516326c10e1560e01b81528390fd5b8380fd5b8234610317576020366003190112610317576020906001600160a01b039060409082611338611b6b565b168152600a8452205460081c16604051908152f35b90503461051457602036600319011261051457611368611b6b565b6009546001600160a01b03929183916113849083163314612546565b61138d81612646565b1691828452600a60205260ff6040852054161561146857828452600a60205260408420805461ffff60a81b191661010160a81b17905560065416908390823b15610514576024849183604051958694859363196c4e6360e11b85528401525af1801561145d57611427575b5060207f0d294c5651970c5fab6bc6f2c023263af93bc2c381b1dc76215156cc95ea675d91604051908152a180f35b7f0d294c5651970c5fab6bc6f2c023263af93bc2c381b1dc76215156cc95ea675d9192611455602092611cc7565b9291506113f8565b6040513d85823e3d90fd5b60405162461bcd60e51b8152602081840152600d60248201526c139bdb949959da5cdd195c9959609a1b6044820152606490fd5b82346103175760203660031901126103175760209060ff906040906001600160a01b036114c7611b6b565b168152600a8452205416604051908152f35b8234610317576040366003190112610317576114f3611b97565b336001600160a01b0382160361150e576104909192356123c9565b60405162461bcd60e51b8152602081850152602f60248201527f416363657373436f6e74726f6c3a2063616e206f6e6c792072656e6f756e636560448201526e103937b632b9903337b91039b2b63360891b6064820152608490fd5b90503461051457606036600319011261051457611585611b6b565b61158d611b97565b90611596611b81565b908480526005602052604085203386526020526115b960ff604087205416612421565b6001600160a01b039081169384158015611661575b8015611657575b6116485750917fbbfb274df95bebde0669697bf0d15986b4ad73e11c495ae4e2d08d1bc5c90bad9391836060946bffffffffffffffffffffffff60a01b9385856006541617600655169182846007541617600755168092600854161760085560405192835260208301526040820152a180f35b604051633efa09af60e01b8152fd5b50818316156115d5565b50818416156115ce565b82346103175780600319360112610317576009546040516001600160a01b039091168152602090f35b823461031757806003193601126103175761049033612340565b8234610317576104906117006116c336611beb565b600080516020612cff8339815191528896939596526005602052604088203389526020526116f760ff60408a205416612479565b61091986612646565b92612693565b9050346105145760403660031901126105145735611722611b97565b818352600560205261173a6001604085200154611eb0565b8183526005602052604083209060018060a01b03169081845260205260ff60408420541615611767578280f35b81835260056020526040832081845260205260408320600160ff198254161790553391600080516020612cdf8339815191528480a438808280f35b8234610317576060366003190112610317576104906117bf611b6b565b6117c7611bad565b6117cf611b81565b90600080516020612cff8339815191528552600560205260408520338652602052610d5960ff604087205416612479565b8234610317576020806003193601126105145761181b611b6b565b61182761043e33611e73565b600080516020612cff833981519152918284526005815261184e6001604086200154611eb0565b8284526005815260408085206001600160a01b0390931680865292825284205460ff161561187a578380f35b8284526005815260408420908285525260408320600160ff198254161790553391600080516020612cdf8339815191528480a48180808380f35b90503461051457602036600319011261051457604060209260ff92358152600d84522054166040519015158152f35b82346103175760203660031901126103175760ff6040602092611904611b6b565b818052600585528282206001600160a01b03909116825284522054604051911615158152f35b90503461051457602036600319011261051457604060209260019235815260058452200154604051908152f35b82346103175761049061170061196c36611beb565b600080516020612d1f8339815191528896939596526005602052604088203389526020526116f760ff60408a2054166125cb565b8234610317576020366003190112610317577f1c7847585b331d5fb688c03d1dc8e73e13231744377f3b1e2f5c26e548c621c160206119dd611b6b565b838052600582526040842033855282526119fd60ff604086205416612421565b600980546001600160a01b0319166001600160a01b03929092169182179055604051908152a180f35b82346103175760208060031936011261051457611a41611b6b565b90611a4e61043e33611e73565b82805260058152611a656001604085200154611eb0565b8280526005815260408084206001600160a01b0390931680855292825283205460ff16611a90578280f35b828052600581526040832090828452526040822060ff198154169055339082600080516020612d3f8339815191528180a481808280f35b82346103175780600319360112610317576006546040516001600160a01b039091168152602090f35b833461031757602036600319011261031757823563ffffffff60e01b811680910361051457602093637965db0b60e01b8214928315611b33575b50505015158152f35b9192506301ffc9a760e01b831491908215611b55575b50509050838080611b2a565b6040925060ff9382528552205416808480611b49565b600435906001600160a01b038216820361079957565b604435906001600160a01b038216820361079957565b602435906001600160a01b038216820361079957565b6024359060ff8216820361079957565b9181601f840112156107995782359167ffffffffffffffff8311610799576020838186019501011161079957565b6080600319820112610799576001600160a01b03906004358281168103610799579260243560ff811681036107995792604435908116810361079957916064359067ffffffffffffffff821161079957611c4791600401611bbd565b9091565b34610799576020366003190112610799576001600160a01b03611c6c611b6b565b16600052600a602052602060ff60406000205460a81c166040519015158152f35b90600182811c92168015611cbd575b6020831014611ca757565b634e487b7160e01b600052602260045260246000fd5b91607f1691611c9c565b67ffffffffffffffff8111611cdb57604052565b634e487b7160e01b600052604160045260246000fd5b60a0810190811067ffffffffffffffff821117611cdb57604052565b6020810190811067ffffffffffffffff821117611cdb57604052565b90601f8019910116810190811067ffffffffffffffff821117611cdb57604052565b9060405191826000825492611d5f84611c8d565b908184526001948581169081600014611dce5750600114611d8b575b5050611d8992500383611d29565b565b9093915060005260209081600020936000915b818310611db6575050611d8993508201013880611d7b565b85548884018501529485019487945091830191611d9e565b915050611d8994506020925060ff191682840152151560051b8201013880611d7b565b60005b838110611e045750506000910152565b8181015183820152602001611df4565b90602091611e2d81518092818552858086019101611df1565b601f01601f1916010190565b919260a09360ff611e70979693168452600180861b0316602084015215156040830152151560608201528160808201520190611e14565b90565b6001600160a01b031660009081527f05b8ccbb9d4d8fb16ea74ce3c29a41f1b461fbdaff4714a0d9a8eb05499746bc602052604090205460ff1690565b60009080825260209060058252604092838120338252835260ff848220541615611eda5750505050565b83519167ffffffffffffffff903360608501838111868210176121d2578752602a855285850191873684378551156121be57603083538551916001928310156121aa576078602188015360295b83811161214057506120fe57908751936080850190858210908211176120ea578852604284528684019460603687378451156120d6576030865384518210156120d65790607860218601536041915b818311612068575050506120265761202293869361200693611ff7604894611fce9a519a8b957f416363657373436f6e74726f6c3a206163636f756e74200000000000000000008c8801525180926037880190611df1565b8401917001034b99036b4b9b9b4b733903937b6329607d1b603784015251809386840190611df1565b01036028810187520185611d29565b5192839262461bcd60e51b845260048401526024830190611e14565b0390fd5b60648587519062461bcd60e51b825280600483015260248201527f537472696e67733a20686578206c656e67746820696e73756666696369656e746044820152fd5b909192600f811660108110156120c2576f181899199a1a9b1b9c1cb0b131b232b360811b901a61209885886123fa565b5360041c9280156120ae57600019019190611f76565b634e487b7160e01b82526011600452602482fd5b634e487b7160e01b83526032600452602483fd5b634e487b7160e01b81526032600452602490fd5b634e487b7160e01b86526041600452602486fd5b60648789519062461bcd60e51b825280600483015260248201527f537472696e67733a20686578206c656e67746820696e73756666696369656e746044820152fd5b90600f81166010811015612196576f181899199a1a9b1b9c1cb0b131b232b360811b901a61216e838a6123fa565b5360041c9080156121825760001901611f27565b634e487b7160e01b87526011600452602487fd5b634e487b7160e01b88526032600452602488fd5b634e487b7160e01b86526032600452602486fd5b634e487b7160e01b85526032600452602485fd5b634e487b7160e01b85526041600452602485fd5b6001600160a01b03163381036122665760008181527f05b8ccbb9d4d8fb16ea74ce3c29a41f1b461fbdaff4714a0d9a8eb05499746bc602052604081205490919060ff16612232575050565b8180526005602052604082208183526020526040822060ff1981541690553391600080516020612d3f8339815191528180a4565b60405162461bcd60e51b815260206004820152602f60248201527f416363657373436f6e74726f6c3a2063616e206f6e6c792072656e6f756e636560448201526e103937b632b9903337b91039b2b63360891b6064820152608490fd5b6001600160a01b031660008181527f05b8ccbb9d4d8fb16ea74ce3c29a41f1b461fbdaff4714a0d9a8eb05499746bc602052604081205490919060ff1615612309575050565b81805260056020526040822081835260205260408220600160ff198254161790553391600080516020612cdf8339815191528180a4565b6001600160a01b031660008181527f495d3ec9f3ad8ec6f8443b0a39852d56b07f6b1efbf2c51564addb326b8397866020526040812054909190600080516020612d1f8339815191529060ff1661239657505050565b8083526005602052604083208284526020526040832060ff198154169055600080516020612d3f833981519152339380a4565b906000918083526005602052604083209160018060a01b03169182845260205260ff60408420541661239657505050565b90815181101561240b570160200190565b634e487b7160e01b600052603260045260246000fd5b1561242857565b60405162461bcd60e51b815260206004820152602360248201527f41757468436f6e74726f6c3a2043616c6c6572206973206e6f7420616e20616460448201526236b4b760e91b6064820152608490fd5b1561248057565b60405162461bcd60e51b8152602060048201526024808201527f41757468436f6e74726f6c3a2043616c6c6572206973206e6f742061206d616e60448201526330b3b2b960e11b6064820152608490fd5b600080516020612cff833981519152600081815260056020527f67f351182989509d05df317024ac600e03d0c404c1b07ecdc5d72ea1208a722b549092919061251990611eb0565b8083526005602052604083209160018060a01b03169182845260205260ff60408420541661239657505050565b1561254d57565b60405162461bcd60e51b815260206004820152600f60248201526e2832b936b4b9b9b4b7b722b93937b960891b6044820152606490fd5b92919267ffffffffffffffff8211611cdb57604051916125ae601f8201601f191660200184611d29565b829481845281830111610799578281602093846000960137010152565b156125d257565b60405162461bcd60e51b815260206004820152602760248201527f41757468436f6e74726f6c3a2043616c6c6572206973206e6f742061207265676044820152661a5cdd1c985b9d60ca1b6064820152608490fd5b9081602091031261079957516001600160a01b03811681036107995790565b6001600160a01b03166000908152600a602052604090205460a81c60ff1661266a57565b6040516318cd26e360e11b8152600490fd5b818110612687575050565b6000815560010161267c565b9293926001600160a01b03838116918215612aec5760ff84169081158015612ae2575b612ac95782811694600090868252602097600a89526040958684209260ff845416612ab1576126e59086612b04565b15612a99576001948587148015612a8f575b6129df575b60028714612923575b505081546001600160a81b031916851760089190911b610100600160a81b0316178155895190816127b6575b50509183917f79025bb0223ed3a500c1098338b784302bcf993c87487625036460907a45939e989994846127a097955086518a880151908b81106127a5575b508152600d8a52209060ff1982541617905581519687968752860152840152608060608401526080830190611e14565b0390a1565b600019908c0360031b1b1638612770565b83019067ffffffffffffffff811161290f576127d28254611c8d565b601f81116128d6575b5088601f821160011461284c5792869492827f79025bb0223ed3a500c1098338b784302bcf993c87487625036460907a45939e9c9d98936127a09a98968491612841575b50600019600383901b1c191690851b1790555b92949650949998819350612731565b90508901513861281f565b82845289842090601f198316855b8181106128c1575095836127a09a9896937f79025bb0223ed3a500c1098338b784302bcf993c87487625036460907a45939e9e9f9a98938996849895106128a8575b5050811b019055612832565b8b015160001960f88460031b161c19169055388061289c565b8e830151845592870192918c01918c0161285a565b6128ff908385528a8520601f840160051c8101918c8510612905575b601f0160051c019061267c565b386127db565b90915081906128f2565b634e487b7160e01b83526041600452602483fd5b8751630a49cb0360e01b8152918b836004818e5afa9283156129d55786936129b6575b50821680156129a5578552600c8b52878520805460ff19168717905587516001600160a01b039182168152911660208201527ff8bdba0336133f3634bf70846cd60e94e3b9dd7ce3a59c5831262cfdb636d00690604090a13880612705565b8851631477227360e01b8152600490fd5b6129ce9193508c8d3d106107d7576107c98183611d29565b9138612946565b89513d88823e3d90fd5b875163078f29cf60e01b81528b816004818e5afa9081156129d5578691612a72575b508281168015612a61578652600b8c52888620805460ff19168817905588516001600160a01b0383811682529190911660208201527f43251870f9292d3c0a61a78baa68c9f29d70ea868008a66d8afdb4d574f2c23190604090a16126fc565b895163e0fec00360e01b8152600490fd5b612a8991508c8d3d106107d7576107c98183611d29565b38612a01565b50600287146126f7565b865163472ed10360e01b815260036004820152602490fd5b875163472ed10360e01b815260026004820152602490fd5b60405163472ed10360e01b815260016004820152602490fd5b50600282116126b6565b60405163472ed10360e01b8152600480820152602490fd5b9190600092600060018060a01b03809216908181526020600a815260409283832094845191612b3283611cf1565b8654612b6b600160ff998a84168752858460081c16888801528a8a880194818160a81c161515865260b01c161515606088015201611d4b565b60808501525115612b81575b5050505050505050565b855163078f29cf60e01b81528481600481855afa908115612cd4579083918791612cb7575b50169788612bb5575b50612b77565b871660018103612c055750505084905116159485612bef575b5050505050612be6575b388080808080808080612baf565b60019150612bd8565b8252600b90522054161590503880808080612bce565b6002919293985014612c1e575b50505050505050612bd8565b82600491865192838092630a49cb0360e01b82525afa908115612cad578491612c90575b50169485612c51575b80612c12565b518416159485612c7a575b5050505050612c71575b388080808080612c4b565b60019150612c66565b8252600c90522054161590503880808080612c5c565b612ca79150833d85116107d7576107c98183611d29565b38612c42565b85513d86823e3d90fd5b612cce9150863d88116107d7576107c98183611d29565b38612ba6565b87513d88823e3d90fdfe2f8788117e7eff1d82e926ec794901d17c78024a50270940304540a733656f0daf290d8680820aad922855f39b306097b20e28774d6c1ad35a20325630c3a02c12090aa55130d5a2442eb84fc286ca6e600db6c50b6c5d9b6d0d929f0e2d8ce8f6391f5c32d9c69d2a47ea670b442974b53935d1edc7fd64eb21e047a839171ba164736f6c6343000813000a",
  "linkReferences": {},
  "deployedLinkReferences": {}
}