{
  "_format": "hh-sol-artifact-1",
  "contractName": "DAOCommitteeAddV1_1",
  "sourceName": "contracts/dao/DAOCommitteeAddV1_1.sol",
  "abi": [
    {
      "inputs": [
        {
          "internalType": "uint256",
          "name": "x",
          "type": "uint256"
        }
      ],
      "name": "CreateCandiateError",
      "type": "error"
    },
    {
      "inputs": [],
      "name": "PermissionError",
      "type": "error"
    },
    {
      "inputs": [],
      "name": "ZeroAddressError",
      "type": "error"
    },
    {
      "anonymous": false,
      "inputs": [
        {
          "indexed": true,
          "internalType": "address",
          "name": "candidate",
          "type": "address"
        },
        {
          "indexed": true,
          "internalType": "address",
          "name": "candidateContract",
          "type": "address"
        },
        {
          "indexed": false,
          "internalType": "string",
          "name": "memo",
          "type": "string"
        }
      ],
      "name": "CandidateContractCreated",
      "type": "event"
    },
    {
      "anonymous": false,
      "inputs": [
        {
          "indexed": true,
          "internalType": "bytes32",
          "name": "role",
          "type": "bytes32"
        },
        {
          "indexed": true,
          "internalType": "bytes32",
          "name": "previousAdminRole",
          "type": "bytes32"
        },
        {
          "indexed": true,
          "internalType": "bytes32",
          "name": "newAdminRole",
          "type": "bytes32"
        }
      ],
      "name": "RoleAdminChanged",
      "type": "event"
    },
    {
      "anonymous": false,
      "inputs": [
        {
          "indexed": true,
          "internalType": "bytes32",
          "name": "role",
          "type": "bytes32"
        },
        {
          "indexed": true,
          "internalType": "address",
          "name": "account",
          "type": "address"
        },
        {
          "indexed": true,
          "internalType": "address",
          "name": "sender",
          "type": "address"
        }
      ],
      "name": "RoleGranted",
      "type": "event"
    },
    {
      "anonymous": false,
      "inputs": [
        {
          "indexed": true,
          "internalType": "bytes32",
          "name": "role",
          "type": "bytes32"
        },
        {
          "indexed": true,
          "internalType": "address",
          "name": "account",
          "type": "address"
        },
        {
          "indexed": true,
          "internalType": "address",
          "name": "sender",
          "type": "address"
        }
      ],
      "name": "RoleRevoked",
      "type": "event"
    },
    {
      "inputs": [],
      "name": "DEFAULT_ADMIN_ROLE",
      "outputs": [
        {
          "internalType": "bytes32",
          "name": "",
          "type": "bytes32"
        }
      ],
      "stateMutability": "view",
      "type": "function"
    },
    {
      "inputs": [],
      "name": "activityRewardPerSecond",
      "outputs": [
        {
          "internalType": "uint256",
          "name": "",
          "type": "uint256"
        }
      ],
      "stateMutability": "view",
      "type": "function"
    },
    {
      "inputs": [],
      "name": "agendaManager",
      "outputs": [
        {
          "internalType": "contract IDAOAgendaManager",
          "name": "",
          "type": "address"
        }
      ],
      "stateMutability": "view",
      "type": "function"
    },
    {
      "inputs": [],
      "name": "candidateAddOnFactory",
      "outputs": [
        {
          "internalType": "address",
          "name": "",
          "type": "address"
        }
      ],
      "stateMutability": "view",
      "type": "function"
    },
    {
      "inputs": [
        {
          "internalType": "address",
          "name": "_candidate",
          "type": "address"
        }
      ],
      "name": "candidateContract",
      "outputs": [
        {
          "internalType": "address",
          "name": "",
          "type": "address"
        }
      ],
      "stateMutability": "view",
      "type": "function"
    },
    {
      "inputs": [],
      "name": "candidateFactory",
      "outputs": [
        {
          "internalType": "contract ICandidateFactory",
          "name": "",
          "type": "address"
        }
      ],
      "stateMutability": "view",
      "type": "function"
    },
    {
      "inputs": [
        {
          "internalType": "address",
          "name": "_candidate",
          "type": "address"
        }
      ],
      "name": "candidateInfos",
      "outputs": [
        {
          "components": [
            {
              "internalType": "address",
              "name": "candidateContract",
              "type": "address"
            },
            {
              "internalType": "uint256",
              "name": "indexMembers",
              "type": "uint256"
            },
            {
              "internalType": "uint128",
              "name": "memberJoinedTime",
              "type": "uint128"
            },
            {
              "internalType": "uint128",
              "name": "rewardPeriod",
              "type": "uint128"
            },
            {
              "internalType": "uint128",
              "name": "claimedTimestamp",
              "type": "uint128"
            }
          ],
          "internalType": "struct StorageStateCommittee.CandidateInfo",
          "name": "",
          "type": "tuple"
        }
      ],
      "stateMutability": "view",
      "type": "function"
    },
    {
      "inputs": [
        {
          "internalType": "uint256",
          "name": "",
          "type": "uint256"
        }
      ],
      "name": "candidates",
      "outputs": [
        {
          "internalType": "address",
          "name": "",
          "type": "address"
        }
      ],
      "stateMutability": "view",
      "type": "function"
    },
    {
      "inputs": [
        {
          "internalType": "string",
          "name": "_memo",
          "type": "string"
        },
        {
          "internalType": "address",
          "name": "_operatorAddress",
          "type": "address"
        }
      ],
      "name": "createCandidateAddOn",
      "outputs": [
        {
          "internalType": "address",
          "name": "",
          "type": "address"
        }
      ],
      "stateMutability": "nonpayable",
      "type": "function"
    },
    {
      "inputs": [],
      "name": "daoVault",
      "outputs": [
        {
          "internalType": "contract IDAOVault",
          "name": "",
          "type": "address"
        }
      ],
      "stateMutability": "view",
      "type": "function"
    },
    {
      "inputs": [
        {
          "internalType": "bytes32",
          "name": "role",
          "type": "bytes32"
        }
      ],
      "name": "getRoleAdmin",
      "outputs": [
        {
          "internalType": "bytes32",
          "name": "",
          "type": "bytes32"
        }
      ],
      "stateMutability": "view",
      "type": "function"
    },
    {
      "inputs": [
        {
          "internalType": "bytes32",
          "name": "role",
          "type": "bytes32"
        },
        {
          "internalType": "uint256",
          "name": "index",
          "type": "uint256"
        }
      ],
      "name": "getRoleMember",
      "outputs": [
        {
          "internalType": "address",
          "name": "",
          "type": "address"
        }
      ],
      "stateMutability": "view",
      "type": "function"
    },
    {
      "inputs": [
        {
          "internalType": "bytes32",
          "name": "role",
          "type": "bytes32"
        }
      ],
      "name": "getRoleMemberCount",
      "outputs": [
        {
          "internalType": "uint256",
          "name": "",
          "type": "uint256"
        }
      ],
      "stateMutability": "view",
      "type": "function"
    },
    {
      "inputs": [
        {
          "internalType": "bytes32",
          "name": "role",
          "type": "bytes32"
        },
        {
          "internalType": "address",
          "name": "account",
          "type": "address"
        }
      ],
      "name": "grantRole",
      "outputs": [],
      "stateMutability": "nonpayable",
      "type": "function"
    },
    {
      "inputs": [
        {
          "internalType": "bytes32",
          "name": "role",
          "type": "bytes32"
        },
        {
          "internalType": "address",
          "name": "account",
          "type": "address"
        }
      ],
      "name": "hasRole",
      "outputs": [
        {
          "internalType": "bool",
          "name": "",
          "type": "bool"
        }
      ],
      "stateMutability": "view",
      "type": "function"
    },
    {
      "inputs": [
        {
          "internalType": "address",
          "name": "_candidate",
          "type": "address"
        }
      ],
      "name": "isMember",
      "outputs": [
        {
          "internalType": "bool",
          "name": "",
          "type": "bool"
        }
      ],
      "stateMutability": "view",
      "type": "function"
    },
    {
      "inputs": [],
      "name": "layer2Manager",
      "outputs": [
        {
          "internalType": "address",
          "name": "",
          "type": "address"
        }
      ],
      "stateMutability": "view",
      "type": "function"
    },
    {
      "inputs": [],
      "name": "layer2Registry",
      "outputs": [
        {
          "internalType": "contract ILayer2Registry",
          "name": "",
          "type": "address"
        }
      ],
      "stateMutability": "view",
      "type": "function"
    },
    {
      "inputs": [],
      "name": "maxMember",
      "outputs": [
        {
          "internalType": "uint256",
          "name": "",
          "type": "uint256"
        }
      ],
      "stateMutability": "view",
      "type": "function"
    },
    {
      "inputs": [
        {
          "internalType": "uint256",
          "name": "",
          "type": "uint256"
        }
      ],
      "name": "members",
      "outputs": [
        {
          "internalType": "address",
          "name": "",
          "type": "address"
        }
      ],
      "stateMutability": "view",
      "type": "function"
    },
    {
      "inputs": [],
      "name": "pauseProxy",
      "outputs": [
        {
          "internalType": "bool",
          "name": "",
          "type": "bool"
        }
      ],
      "stateMutability": "view",
      "type": "function"
    },
    {
      "inputs": [],
      "name": "quorum",
      "outputs": [
        {
          "internalType": "uint256",
          "name": "",
          "type": "uint256"
        }
      ],
      "stateMutability": "view",
      "type": "function"
    },
    {
      "inputs": [
        {
          "internalType": "bytes32",
          "name": "role",
          "type": "bytes32"
        },
        {
          "internalType": "address",
          "name": "account",
          "type": "address"
        }
      ],
      "name": "renounceRole",
      "outputs": [],
      "stateMutability": "nonpayable",
      "type": "function"
    },
    {
      "inputs": [
        {
          "internalType": "bytes32",
          "name": "role",
          "type": "bytes32"
        },
        {
          "internalType": "address",
          "name": "account",
          "type": "address"
        }
      ],
      "name": "revokeRole",
      "outputs": [],
      "stateMutability": "nonpayable",
      "type": "function"
    },
    {
      "inputs": [],
      "name": "seigManager",
      "outputs": [
        {
          "internalType": "contract ISeigManager",
          "name": "",
          "type": "address"
        }
      ],
      "stateMutability": "view",
      "type": "function"
    },
    {
      "inputs": [
        {
          "internalType": "address",
          "name": "_candidateAddOnFactory",
          "type": "address"
        }
      ],
      "name": "setCandidateAddOnFactory",
      "outputs": [],
      "stateMutability": "nonpayable",
      "type": "function"
    },
    {
      "inputs": [
        {
          "internalType": "address",
          "name": "_layer2Manager",
          "type": "address"
        }
      ],
      "name": "setLayer2Manager",
      "outputs": [],
      "stateMutability": "nonpayable",
      "type": "function"
    },
    {
      "inputs": [
        {
          "internalType": "address",
          "name": "target",
          "type": "address"
        },
        {
          "internalType": "uint256",
          "name": "startBlock_",
          "type": "uint256"
        }
      ],
      "name": "setTargetLayer2StartBlock",
      "outputs": [],
      "stateMutability": "nonpayable",
      "type": "function"
    },
    {
      "inputs": [
        {
          "internalType": "address",
          "name": "target",
          "type": "address"
        },
        {
          "internalType": "address",
          "name": "newImplementation",
          "type": "address"
        },
        {
          "internalType": "uint256",
          "name": "index",
          "type": "uint256"
        },
        {
          "internalType": "bool",
          "name": "alive",
          "type": "bool"
        }
      ],
      "name": "setTargetSetImplementation2",
      "outputs": [],
      "stateMutability": "nonpayable",
      "type": "function"
    },
    {
      "inputs": [
        {
          "internalType": "address",
          "name": "target",
          "type": "address"
        },
        {
          "internalType": "address",
          "name": "l1BridgeRegistry_",
          "type": "address"
        }
      ],
      "name": "setTargetSetL1BridgeRegistry",
      "outputs": [],
      "stateMutability": "nonpayable",
      "type": "function"
    },
    {
      "inputs": [
        {
          "internalType": "address",
          "name": "target",
          "type": "address"
        },
        {
          "internalType": "address",
          "name": "layer2Manager_",
          "type": "address"
        }
      ],
      "name": "setTargetSetLayer2Manager",
      "outputs": [],
      "stateMutability": "nonpayable",
      "type": "function"
    },
    {
      "inputs": [
        {
          "internalType": "address",
          "name": "target",
          "type": "address"
        },
        {
          "internalType": "bytes4[]",
          "name": "_selectors",
          "type": "bytes4[]"
        },
        {
          "internalType": "address",
          "name": "_imp",
          "type": "address"
        }
      ],
      "name": "setTargetSetSelectorImplementations2",
      "outputs": [],
      "stateMutability": "nonpayable",
      "type": "function"
    },
    {
      "inputs": [
        {
          "internalType": "bytes4",
          "name": "interfaceId",
          "type": "bytes4"
        }
      ],
      "name": "supportsInterface",
      "outputs": [
        {
          "internalType": "bool",
          "name": "",
          "type": "bool"
        }
      ],
      "stateMutability": "view",
      "type": "function"
    },
    {
      "inputs": [],
      "name": "ton",
      "outputs": [
        {
          "internalType": "address",
          "name": "",
          "type": "address"
        }
      ],
      "stateMutability": "view",
      "type": "function"
    },
    {
      "inputs": [],
      "name": "wton",
      "outputs": [
        {
          "internalType": "address",
          "name": "",
          "type": "address"
        }
      ],
      "stateMutability": "view",
      "type": "function"
    }
  ],
  "bytecode": "0x60808060405234610052576301ffc9a760e01b600052600d6020527f49c01d976ca1c616ed1de1469e98d664903a805642011c315785aa325a483c71805460ff191660011790556113f090816100588239f35b600080fdfe6080604081815260048036101561001557600080fd5b600092833560e01c90816301ffc9a7146110805750806303e3c9ac1461106157806316b5d5bd146110385780631703a01814611019578063248a9ca314610fef57806327fd92fd14610fc65780632e011c1e14610eff5780632f2ff15d14610e00578063342478c214610cc65780633477ee2e14610c9c57806336568abe14610c0a578063401e23e614610bc25780634892afd3146108b4578381634a15efa7146108095781634e24ce491461077f575080635903bd6c146107565780635daf08ca146106fc57806363a8fd89146106d5578063651d08cd1461069a5780636fb7f5581461067157806375362819146106485780637f331636146106295780638d62d949146106005780639010d07c1461056357806391d148541461050e578063a217fddf146104f3578063a230c524146104ab578063b5dd115814610482578063baa1253614610418578063ca15c873146103f1578063cc48b947146103c9578063cf2a239c1461039e578063d547741f146102e057838163e9152a331461025a575063e93d3a1d146101a857600080fd5b8291346102565780600319360112610256576101c26110bc565b6101ca6110d7565b90848052600c6020526101f76101f23385882060019160005201602052604060002054151590565b611309565b6001600160a01b03908116803b156102525785928360249286519788958694630c1da8df60e01b865216908401525af190811561024957506102365750f35b61023f9061136a565b6102465780f35b80fd5b513d84823e3d90fd5b8580fd5b5050fd5b929050346102565780600319360112610256576102756110bc565b838052600c60205261029c6101f23384872060019160005201602052604060002054151590565b6001600160a01b031691823b156102db578392602484928451958693849263ac28e2ed60e01b84528435908401525af190811561024957506102365750f35b505050fd5b5082903461039a578260031936011261039a5780356102fd6110d7565b91818452600c60205260028585200154845261032b3386862060019160005201602052604060002054151590565b1561033e57509061033b91611152565b80f35b608490602086519162461bcd60e51b8352820152603060248201527f416363657373436f6e74726f6c3a2073656e646572206d75737420626520616e60448201526f2061646d696e20746f207265766f6b6560801b6064820152fd5b5080fd5b50346103c557826003193601126103c5575490516001600160a01b03909116815260209150f35b8280fd5b50503461039a578160031936011261039a57905490516001600160a01b039091168152602090f35b50346103c55760203660031901126103c5576020928291358152600c845220549051908152f35b50503461039a57602036600319011261039a5761045b6101f26104396110bc565b92848052600c6020523390852060019160005201602052604060002054151590565b610464816113c1565b60018060a01b03166001600160601b0360a01b601154161760115580f35b50503461039a578160031936011261039a5760035490516001600160a01b039091168152602090f35b50503461039a57602036600319011261039a576020916001600160801b039060029083906001600160a01b036104df6110bc565b168152600986522001541615159051908152f35b50503461039a578160031936011261039a5751908152602090f35b50346103c557816003193601126103c55761055a908260209461052f6110d7565b92358152600c8652206001600160a01b03909116600090815260019091016020526040902054151590565b90519015158152f35b5082903461039a578260031936011261039a57826024359282358152600c602052209082825411156105b25760208461059c858561113a565b905491519160018060a01b039160031b1c168152f35b608490602085519162461bcd60e51b8352820152602260248201527f456e756d657261626c655365743a20696e646578206f7574206f6620626f756e604482015261647360f01b6064820152fd5b50503461039a578160031936011261039a5760105490516001600160a01b039091168152602090f35b50503461039a578160031936011261039a57602090600b549051908152f35b50503461039a578160031936011261039a5760125490516001600160a01b039091168152602090f35b50503461039a578160031936011261039a5760055490516001600160a01b039091168152602090f35b50503461039a57602036600319011261039a576020916001600160a01b03908290826106c46110bc565b168152600985522054169051908152f35b50503461039a578160031936011261039a5760209060ff600e5460a01c1690519015158152f35b50346103c55760203660031901126103c557356007548110156103c55760076000527fa66cc928b5edb82af9bd49922954155ab7b0942694bea4ce44661d9a8736c688015490516001600160a01b03909116815260209150f35b50503461039a578160031936011261039a5760015490516001600160a01b039091168152602090f35b9290503461025657806003193601126102565761079a6110bc565b6107a26110d7565b90848052600c6020526107ca6101f23385882060019160005201602052604060002054151590565b6001600160a01b03908116803b156102525785928360249286519788958694635d50929b60e11b865216908401525af190811561024957506102365750f35b92905034610256576080366003190112610256576108256110bc565b61082d6110d7565b906064359182151580930361025257858052600c6020526108636101f23386892060019160005201602052604060002054151590565b6001600160a01b0391821690813b156108b05786606492819587519889968795637cd5f66360e01b87521690850152604435602485015260448401525af190811561024957506102365750f35b8680fd5b5091903461039a578060031936011261039a5767ffffffffffffffff8335818111610bbe5736602382011215610bbe5780850135918211610bbe576024918282019183823692010111610bba576109096110d7565b6011546001600160a01b03979194919088163303610bac578780601254169581600554168851809b81936337d5af5f60e01b83521698898683015260808783015261095860848301898b6113a0565b923060448401526064830152818c60209e8f9503925af1908115610ba2579082918a91610b64575b5016978815610b4e5786815260098a52818882205416610b3857868a89600381516109aa8161134e565b8d81528381018681528784830194888652600960608501978a895260808601998b8b528b525288209251166001600160601b0360a01b8354161782555160018201556001600160801b03809351166001600160801b031980955160801b161760028201550192511690825416179055600654600160401b811015610b2657806001610a3892016006556110ed565b81549060031b90848a831b921b19161790558982845416926005541660448b848c519687948593635e58d38f60e11b85528a8501528a8401525af1918215610b1a578192610ae0575b505015610acc5750508492917f7cf8db18d9a5c7f44156bfabdbb59ac982a8a004e461ca1b87ee71a5cdfbc5ef91610ac386519283928a84528a8401916113a0565b0390a351908152f35b600386519163e378c44560e01b8352820152fd5b9091508981813d8311610b13575b610af8818361137e565b8101031261039a575190811515820361024657503880610a81565b503d610aee565b508751903d90823e3d90fd5b634e487b7160e01b8252604184528482fd5b5050600286519163e378c44560e01b8352820152fd5b5050600186519163e378c44560e01b8352820152fd5b8092508b8092503d8311610b9b575b610b7d818361137e565b81010312610b9757518181168103610b9757819038610980565b8880fd5b503d610b73565b88513d8b823e3d90fd5b855163a648679560e01b8152fd5b8480fd5b8380fd5b50503461039a57602036600319011261039a57610be36101f26104396110bc565b610bec816113c1565b60018060a01b03166001600160601b0360a01b601254161760125580f35b5082903461039a578260031936011261039a57610c256110d7565b90336001600160a01b03831603610c41579061033b9135611152565b608490602085519162461bcd60e51b8352820152602f60248201527f416363657373436f6e74726f6c3a2063616e206f6e6c792072656e6f756e636560448201526e103937b632b9903337b91039b2b63360891b6064820152fd5b50346103c55760203660031901126103c5573591600654831015610246575061059c6020926110ed565b5090346103c55760603660031901126103c557610ce16110bc565b60243567ffffffffffffffff80821161025257366023830112156102525781850135908111610252573660248260051b84010111610252576044356001600160a01b038181169291839003610dfc57878052602094600c8652610d596101f233898c2060019160005201602052604060002054151590565b1693843b15610dfc578551634a5df50f60e01b81529687018690526044870182905287948794909360648601939092602490920191875b828110610dc257505050508380928692602483015203925af19081156102495750610db9575080f35b61033b9061136a565b929650929496509285359063ffffffff60e01b8216809203610df857838160019382935201960191019289969492899694610d90565b8a80fd5b8780fd5b50346103c557816003193601126103c557803591610e1c6110d7565b91838552600c602052600282862001548552610e4a3383872060019160005201602052604060002054151590565b15610ea55750828452600c60205283206001600160a01b0390911690610e719082906111a8565b610e79578280f35b33917f2f8788117e7eff1d82e926ec794901d17c78024a50270940304540a733656f0d8480a438808280f35b6020608492519162461bcd60e51b8352820152602f60248201527f416363657373436f6e74726f6c3a2073656e646572206d75737420626520616e60448201526e0818591b5a5b881d1bc819dc985b9d608a1b6064820152fd5b50503461039a57602036600319011261039a57608060a092600383610f226110bc565b9280858351610f308161134e565b82815282602082015282858201528260608201520152600180881b038094168152600960205220845192610f638461134e565b8154169485845260018201549160208501928352600281015492828601906001600160801b03978880978195828916865260608b0198841c8952015416970196875283519889525160208901525116908601525116606084015251166080820152f35b50503461039a578160031936011261039a5760025490516001600160a01b039091168152602090f35b50346103c55760203660031901126103c55781602093600292358152600c85522001549051908152f35b50503461039a578160031936011261039a57602090600a549051908152f35b50503461039a578160031936011261039a5760115490516001600160a01b039091168152602090f35b50503461039a578160031936011261039a576020906008549051908152f35b9291905034610bbe576020366003190112610bbe573563ffffffff60e01b8116809103610bbe578352600d602090815292205460ff1615158152f35b600435906001600160a01b03821682036110d257565b600080fd5b602435906001600160a01b03821682036110d257565b6006548110156111245760066000527ff652222313e28459528d920b65115c16c04f3efc82aaedc97be59f3f377c0d3f0190600090565b634e487b7160e01b600052603260045260246000fd5b80548210156111245760005260206000200190600090565b6000818152600c6020526040902090916001600160a01b03169061117790829061122c565b61117f575050565b33917ff6391f5c32d9c69d2a47ea670b442974b53935d1edc7fd64eb21e047a839171b600080a4565b600082815260018201602052604090205461122557805490600160401b82101561120f57826111f86111e184600180960185558461113a565b819391549060031b91821b91600019901b19161790565b905580549260005201602052604060002055600190565b634e487b7160e01b600052604160045260246000fd5b5050600090565b9060018201906000928184528260205260408420549081151560001461130257600019918083018181116112ee5782548481019081116112da57906112876112776111e1938661113a565b90549060031b1c9283928661113a565b90558652846020526040862055805480156112c6578201916112a9838361113a565b909182549160031b1b191690555582526020526040812055600190565b634e487b7160e01b86526031600452602486fd5b634e487b7160e01b88526011600452602488fd5b634e487b7160e01b87526011600452602487fd5b5050505090565b1561131057565b60405162461bcd60e51b815260206004820152601660248201527539b2b73232b91034b9903737ba1030b71030b236b4b760511b6044820152606490fd5b60a0810190811067ffffffffffffffff82111761120f57604052565b67ffffffffffffffff811161120f57604052565b90601f8019910116810190811067ffffffffffffffff82111761120f57604052565b908060209392818452848401376000828201840152601f01601f1916010190565b6001600160a01b0316156113d157565b604051633efa09af60e01b8152600490fdfea164736f6c6343000813000a",
  "linkReferences": {},
  "deployedLinkReferences": {}
}