{
  "_format": "hh-sol-artifact-1",
  "contractName": "DAOCommitteeAddV1_1",
  "sourceName": "contracts/dao/DAOCommitteeAddV1_1.sol",
  "abi": [
    {
      "anonymous": false,
      "inputs": [
        {
          "indexed": true,
          "internalType": "address",
          "name": "candidate",
          "type": "address"
        },
        {
          "indexed": true,
          "internalType": "address",
          "name": "candidateContract",
          "type": "address"
        },
        {
          "indexed": false,
          "internalType": "string",
          "name": "memo",
          "type": "string"
        }
      ],
      "name": "CandidateContractCreated",
      "type": "event"
    },
    {
      "anonymous": false,
      "inputs": [
        {
          "indexed": true,
          "internalType": "bytes32",
          "name": "role",
          "type": "bytes32"
        },
        {
          "indexed": true,
          "internalType": "bytes32",
          "name": "previousAdminRole",
          "type": "bytes32"
        },
        {
          "indexed": true,
          "internalType": "bytes32",
          "name": "newAdminRole",
          "type": "bytes32"
        }
      ],
      "name": "RoleAdminChanged",
      "type": "event"
    },
    {
      "anonymous": false,
      "inputs": [
        {
          "indexed": true,
          "internalType": "bytes32",
          "name": "role",
          "type": "bytes32"
        },
        {
          "indexed": true,
          "internalType": "address",
          "name": "account",
          "type": "address"
        },
        {
          "indexed": true,
          "internalType": "address",
          "name": "sender",
          "type": "address"
        }
      ],
      "name": "RoleGranted",
      "type": "event"
    },
    {
      "anonymous": false,
      "inputs": [
        {
          "indexed": true,
          "internalType": "bytes32",
          "name": "role",
          "type": "bytes32"
        },
        {
          "indexed": true,
          "internalType": "address",
          "name": "account",
          "type": "address"
        },
        {
          "indexed": true,
          "internalType": "address",
          "name": "sender",
          "type": "address"
        }
      ],
      "name": "RoleRevoked",
      "type": "event"
    },
    {
      "inputs": [],
      "name": "DEFAULT_ADMIN_ROLE",
      "outputs": [
        {
          "internalType": "bytes32",
          "name": "",
          "type": "bytes32"
        }
      ],
      "stateMutability": "view",
      "type": "function"
    },
    {
      "inputs": [],
      "name": "activityRewardPerSecond",
      "outputs": [
        {
          "internalType": "uint256",
          "name": "",
          "type": "uint256"
        }
      ],
      "stateMutability": "view",
      "type": "function"
    },
    {
      "inputs": [],
      "name": "agendaManager",
      "outputs": [
        {
          "internalType": "contract IDAOAgendaManager",
          "name": "",
          "type": "address"
        }
      ],
      "stateMutability": "view",
      "type": "function"
    },
    {
      "inputs": [
        {
          "internalType": "address",
          "name": "_candidate",
          "type": "address"
        }
      ],
      "name": "candidateContract",
      "outputs": [
        {
          "internalType": "address",
          "name": "",
          "type": "address"
        }
      ],
      "stateMutability": "view",
      "type": "function"
    },
    {
      "inputs": [],
      "name": "candidateFactory",
      "outputs": [
        {
          "internalType": "contract ICandidateFactory",
          "name": "",
          "type": "address"
        }
      ],
      "stateMutability": "view",
      "type": "function"
    },
    {
      "inputs": [
        {
          "internalType": "address",
          "name": "_candidate",
          "type": "address"
        }
      ],
      "name": "candidateInfos",
      "outputs": [
        {
          "components": [
            {
              "internalType": "address",
              "name": "candidateContract",
              "type": "address"
            },
            {
              "internalType": "uint256",
              "name": "indexMembers",
              "type": "uint256"
            },
            {
              "internalType": "uint128",
              "name": "memberJoinedTime",
              "type": "uint128"
            },
            {
              "internalType": "uint128",
              "name": "rewardPeriod",
              "type": "uint128"
            },
            {
              "internalType": "uint128",
              "name": "claimedTimestamp",
              "type": "uint128"
            }
          ],
          "internalType": "struct StorageStateCommittee.CandidateInfo",
          "name": "",
          "type": "tuple"
        }
      ],
      "stateMutability": "view",
      "type": "function"
    },
    {
      "inputs": [
        {
          "internalType": "uint256",
          "name": "",
          "type": "uint256"
        }
      ],
      "name": "candidates",
      "outputs": [
        {
          "internalType": "address",
          "name": "",
          "type": "address"
        }
      ],
      "stateMutability": "view",
      "type": "function"
    },
    {
      "inputs": [
        {
          "internalType": "string",
          "name": "_memo",
          "type": "string"
        },
        {
          "internalType": "address",
          "name": "_operatorAddress",
          "type": "address"
        }
      ],
      "name": "createLayer2Candidate",
      "outputs": [
        {
          "internalType": "address",
          "name": "",
          "type": "address"
        }
      ],
      "stateMutability": "nonpayable",
      "type": "function"
    },
    {
      "inputs": [],
      "name": "daoVault",
      "outputs": [
        {
          "internalType": "contract IDAOVault",
          "name": "",
          "type": "address"
        }
      ],
      "stateMutability": "view",
      "type": "function"
    },
    {
      "inputs": [
        {
          "internalType": "bytes32",
          "name": "role",
          "type": "bytes32"
        }
      ],
      "name": "getRoleAdmin",
      "outputs": [
        {
          "internalType": "bytes32",
          "name": "",
          "type": "bytes32"
        }
      ],
      "stateMutability": "view",
      "type": "function"
    },
    {
      "inputs": [
        {
          "internalType": "bytes32",
          "name": "role",
          "type": "bytes32"
        },
        {
          "internalType": "uint256",
          "name": "index",
          "type": "uint256"
        }
      ],
      "name": "getRoleMember",
      "outputs": [
        {
          "internalType": "address",
          "name": "",
          "type": "address"
        }
      ],
      "stateMutability": "view",
      "type": "function"
    },
    {
      "inputs": [
        {
          "internalType": "bytes32",
          "name": "role",
          "type": "bytes32"
        }
      ],
      "name": "getRoleMemberCount",
      "outputs": [
        {
          "internalType": "uint256",
          "name": "",
          "type": "uint256"
        }
      ],
      "stateMutability": "view",
      "type": "function"
    },
    {
      "inputs": [
        {
          "internalType": "bytes32",
          "name": "role",
          "type": "bytes32"
        },
        {
          "internalType": "address",
          "name": "account",
          "type": "address"
        }
      ],
      "name": "grantRole",
      "outputs": [],
      "stateMutability": "nonpayable",
      "type": "function"
    },
    {
      "inputs": [
        {
          "internalType": "bytes32",
          "name": "role",
          "type": "bytes32"
        },
        {
          "internalType": "address",
          "name": "account",
          "type": "address"
        }
      ],
      "name": "hasRole",
      "outputs": [
        {
          "internalType": "bool",
          "name": "",
          "type": "bool"
        }
      ],
      "stateMutability": "view",
      "type": "function"
    },
    {
      "inputs": [
        {
          "internalType": "address",
          "name": "_candidate",
          "type": "address"
        }
      ],
      "name": "isMember",
      "outputs": [
        {
          "internalType": "bool",
          "name": "",
          "type": "bool"
        }
      ],
      "stateMutability": "view",
      "type": "function"
    },
    {
      "inputs": [],
      "name": "layer2CandidateFactory",
      "outputs": [
        {
          "internalType": "address",
          "name": "",
          "type": "address"
        }
      ],
      "stateMutability": "view",
      "type": "function"
    },
    {
      "inputs": [],
      "name": "layer2Manager",
      "outputs": [
        {
          "internalType": "address",
          "name": "",
          "type": "address"
        }
      ],
      "stateMutability": "view",
      "type": "function"
    },
    {
      "inputs": [],
      "name": "layer2Registry",
      "outputs": [
        {
          "internalType": "contract ILayer2Registry",
          "name": "",
          "type": "address"
        }
      ],
      "stateMutability": "view",
      "type": "function"
    },
    {
      "inputs": [],
      "name": "maxMember",
      "outputs": [
        {
          "internalType": "uint256",
          "name": "",
          "type": "uint256"
        }
      ],
      "stateMutability": "view",
      "type": "function"
    },
    {
      "inputs": [
        {
          "internalType": "uint256",
          "name": "",
          "type": "uint256"
        }
      ],
      "name": "members",
      "outputs": [
        {
          "internalType": "address",
          "name": "",
          "type": "address"
        }
      ],
      "stateMutability": "view",
      "type": "function"
    },
    {
      "inputs": [],
      "name": "pauseProxy",
      "outputs": [
        {
          "internalType": "bool",
          "name": "",
          "type": "bool"
        }
      ],
      "stateMutability": "view",
      "type": "function"
    },
    {
      "inputs": [],
      "name": "quorum",
      "outputs": [
        {
          "internalType": "uint256",
          "name": "",
          "type": "uint256"
        }
      ],
      "stateMutability": "view",
      "type": "function"
    },
    {
      "inputs": [
        {
          "internalType": "bytes32",
          "name": "role",
          "type": "bytes32"
        },
        {
          "internalType": "address",
          "name": "account",
          "type": "address"
        }
      ],
      "name": "renounceRole",
      "outputs": [],
      "stateMutability": "nonpayable",
      "type": "function"
    },
    {
      "inputs": [
        {
          "internalType": "bytes32",
          "name": "role",
          "type": "bytes32"
        },
        {
          "internalType": "address",
          "name": "account",
          "type": "address"
        }
      ],
      "name": "revokeRole",
      "outputs": [],
      "stateMutability": "nonpayable",
      "type": "function"
    },
    {
      "inputs": [],
      "name": "seigManager",
      "outputs": [
        {
          "internalType": "contract ISeigManager",
          "name": "",
          "type": "address"
        }
      ],
      "stateMutability": "view",
      "type": "function"
    },
    {
      "inputs": [
        {
          "internalType": "address",
          "name": "_layer2CandidateFactory",
          "type": "address"
        }
      ],
      "name": "setLayer2CandidateFactory",
      "outputs": [],
      "stateMutability": "nonpayable",
      "type": "function"
    },
    {
      "inputs": [
        {
          "internalType": "address",
          "name": "_layer2CandidateFactory",
          "type": "address"
        }
      ],
      "name": "setLayer2Manager",
      "outputs": [],
      "stateMutability": "nonpayable",
      "type": "function"
    },
    {
      "inputs": [
        {
          "internalType": "address",
          "name": "target",
          "type": "address"
        },
        {
          "internalType": "address",
          "name": "layer2Manager_",
          "type": "address"
        }
      ],
      "name": "setTargetSetLayer2Manager",
      "outputs": [],
      "stateMutability": "nonpayable",
      "type": "function"
    },
    {
      "inputs": [
        {
          "internalType": "bytes4",
          "name": "interfaceId",
          "type": "bytes4"
        }
      ],
      "name": "supportsInterface",
      "outputs": [
        {
          "internalType": "bool",
          "name": "",
          "type": "bool"
        }
      ],
      "stateMutability": "view",
      "type": "function"
    },
    {
      "inputs": [],
      "name": "ton",
      "outputs": [
        {
          "internalType": "address",
          "name": "",
          "type": "address"
        }
      ],
      "stateMutability": "view",
      "type": "function"
    },
    {
      "inputs": [],
      "name": "wton",
      "outputs": [
        {
          "internalType": "address",
          "name": "",
          "type": "address"
        }
      ],
      "stateMutability": "view",
      "type": "function"
    }
  ],
  "bytecode": "0x608060405234801561001057600080fd5b506100216301ffc9a760e01b610026565b6100a9565b6001600160e01b031980821690036100845760405162461bcd60e51b815260206004820152601c60248201527f4552433136353a20696e76616c696420696e7465726661636520696400000000604482015260640160405180910390fd5b6001600160e01b0319166000908152600d60205260409020805460ff19166001179055565b6112f6806100b86000396000f3fe608060405234801561001057600080fd5b50600436106101e55760003560e01c8063627ac99d1161010f578063a217fddf116100a2578063ca15c87311610071578063ca15c87314610545578063cc48b94714610558578063cf2a239c1461056b578063d547741f1461057e57600080fd5b8063a217fddf146104e0578063a230c524146104e8578063b5dd11581461051f578063baa125361461053257600080fd5b80637f331636116100de5780637f3316361461049e5780638d62d949146104a75780639010d07c146104ba57806391d14854146104cd57600080fd5b8063627ac99d1461043857806363a8fd891461044b578063651d08cd1461045f5780636fb7f5581461048b57600080fd5b80632a5c2a9c1161018757806336568abe1161015657806336568abe146103ec5780634e24ce49146103ff5780635903bd6c146104125780635daf08ca1461042557600080fd5b80632a5c2a9c146102c05780632e011c1e146102d55780632f2ff15d146103c65780633477ee2e146103d957600080fd5b806316b5d5bd116101c357806316b5d5bd1461026e5780631703a01814610281578063248a9ca31461028a57806327fd92fd146102ad57600080fd5b806301ffc9a7146101ea57806303e3c9ac1461022c57806309a17bce14610243575b600080fd5b6102176101f836600461100e565b6001600160e01b0319166000908152600d602052604090205460ff1690565b60405190151581526020015b60405180910390f35b61023560085481565b604051908152602001610223565b610256610251366004611057565b610591565b6040516001600160a01b039091168152602001610223565b601154610256906001600160a01b031681565b610235600a5481565b6102356102983660046110da565b6000908152600c602052604090206002015490565b600254610256906001600160a01b031681565b6102d36102ce3660046110f3565b610979565b005b6103716102e33660046110f3565b6040805160a0808201835260008083526020808401829052838501829052606080850183905260809485018390526001600160a01b0396871683526009825291859020855193840186528054909616835260018601549083015260028501546001600160801b0380821695840195909552600160801b90048416908201526003909301549091169082015290565b6040805182516001600160a01b0316815260208084015190820152828201516001600160801b03908116928201929092526060808401518316908201526080928301519091169181019190915260a001610223565b6102d36103d4366004611110565b610a09565b6102566103e73660046110da565b610a97565b6102d36103fa366004611110565b610ac1565b6102d361040d366004611140565b610b3b565b600154610256906001600160a01b031681565b6102566104333660046110da565b610bc1565b601254610256906001600160a01b031681565b600e5461021790600160a01b900460ff1681565b61025661046d3660046110f3565b6001600160a01b039081166000908152600960205260409020541690565b600554610256906001600160a01b031681565b610235600b5481565b601054610256906001600160a01b031681565b6102566104c836600461116e565b610bd1565b6102176104db366004611110565b610bf2565b610235600081565b6102176104f63660046110f3565b6001600160a01b03166000908152600960205260409020600201546001600160801b0316151590565b600354610256906001600160a01b031681565b6102d36105403660046110f3565b610c0a565b6102356105533660046110da565b610c9a565b600054610256906001600160a01b031681565b600454610256906001600160a01b031681565b6102d361058c366004611110565b610cb1565b6011546000906001600160a01b031633146105f35760405162461bcd60e51b815260206004820152601d60248201527f73656e646572206973206e6f742061206c61796572324d616e6167657200000060448201526064015b60405180910390fd5b6012546005546040516337d5af5f60e01b81526000926001600160a01b03908116926337d5af5f926106319288928b928b92309216906004016111b9565b6020604051808303816000875af1158015610650573d6000803e3d6000fd5b505050506040513d601f19601f8201168201806040525081019061067491906111f6565b90506001600160a01b0381166106e55760405162461bcd60e51b815260206004820152603060248201527f44414f436f6d6d69747465653a206465706c6f7965642063616e64696461746560448201526f436f6e7472616374206973207a65726f60801b60648201526084016105ea565b6001600160a01b0383811660009081526009602052604090205416156107665760405162461bcd60e51b815260206004820152603060248201527f44414f436f6d6d69747465653a205468652063616e64696461746520616c726560448201526f18591e481a185cc818dbdb9d1c9858dd60821b60648201526084016105ea565b6040805160a0810182526001600160a01b038381168083526000602080850182815285870183815260608701848152608088018581528c88168087526009909552898620985189549089166001600160a01b0319918216178a5593516001808b0191909155925191516001600160801b03908116600160801b029281169290921760028a01555160039098018054989091166fffffffffffffffffffffffffffffffff19909816979097179096556006805496870181559092527ff652222313e28459528d920b65115c16c04f3efc82aaedc97be59f3f377c0d3f9094018054909116909317909255600480546005549451635e58d38f60e11b8152918201939093529281166024840152169063bcb1a71e906044016020604051808303816000875af115801561089b573d6000803e3d6000fd5b505050506040513d601f19601f820116820180604052508101906108bf9190611213565b6109245760405162461bcd60e51b815260206004820152603060248201527f44414f436f6d6d69747465653a206661696c656420746f20726567697374657260448201526f416e644465706c6f79436f696e61676560801b60648201526084016105ea565b806001600160a01b0316836001600160a01b03167f7cf8db18d9a5c7f44156bfabdbb59ac982a8a004e461ca1b87ee71a5cdfbc5ef8787604051610969929190611235565b60405180910390a3949350505050565b610984600033610bf2565b6109a05760405162461bcd60e51b81526004016105ea90611251565b806001600160a01b0381166109e65760405162461bcd60e51b815260206004820152600c60248201526b7a65726f206164647265737360a01b60448201526064016105ea565b50601280546001600160a01b0319166001600160a01b0392909216919091179055565b6000828152600c6020526040902060020154610a259033610bf2565b610a895760405162461bcd60e51b815260206004820152602f60248201527f416363657373436f6e74726f6c3a2073656e646572206d75737420626520616e60448201526e0818591b5a5b881d1bc819dc985b9d608a1b60648201526084016105ea565b610a938282610d32565b5050565b60068181548110610aa757600080fd5b6000918252602090912001546001600160a01b0316905081565b6001600160a01b0381163314610b315760405162461bcd60e51b815260206004820152602f60248201527f416363657373436f6e74726f6c3a2063616e206f6e6c792072656e6f756e636560448201526e103937b632b9903337b91039b2b63360891b60648201526084016105ea565b610a938282610d8b565b610b46600033610bf2565b610b625760405162461bcd60e51b81526004016105ea90611251565b604051635d50929b60e11b81526001600160a01b03828116600483015283169063baa1253690602401600060405180830381600087803b158015610ba557600080fd5b505af1158015610bb9573d6000803e3d6000fd5b505050505050565b60078181548110610aa757600080fd5b6000828152600c60205260408120610be99083610de4565b90505b92915050565b6000828152600c60205260408120610be99083610df0565b610c15600033610bf2565b610c315760405162461bcd60e51b81526004016105ea90611251565b806001600160a01b038116610c775760405162461bcd60e51b815260206004820152600c60248201526b7a65726f206164647265737360a01b60448201526064016105ea565b50601180546001600160a01b0319166001600160a01b0392909216919091179055565b6000818152600c60205260408120610bec90610e12565b6000828152600c6020526040902060020154610ccd9033610bf2565b610b315760405162461bcd60e51b815260206004820152603060248201527f416363657373436f6e74726f6c3a2073656e646572206d75737420626520616e60448201526f2061646d696e20746f207265766f6b6560801b60648201526084016105ea565b6000828152600c60205260409020610d4a9082610e1c565b15610a935760405133906001600160a01b0383169084907f2f8788117e7eff1d82e926ec794901d17c78024a50270940304540a733656f0d90600090a45050565b6000828152600c60205260409020610da39082610e31565b15610a935760405133906001600160a01b0383169084907ff6391f5c32d9c69d2a47ea670b442974b53935d1edc7fd64eb21e047a839171b90600090a45050565b6000610be98383610e46565b6001600160a01b03811660009081526001830160205260408120541515610be9565b6000610bec825490565b6000610be9836001600160a01b038416610ecc565b6000610be9836001600160a01b038416610f1b565b81546000908210610ea45760405162461bcd60e51b815260206004820152602260248201527f456e756d657261626c655365743a20696e646578206f7574206f6620626f756e604482015261647360f01b60648201526084016105ea565b826000018281548110610eb957610eb9611281565b9060005260206000200154905092915050565b6000818152600183016020526040812054610f1357508154600181810184556000848152602080822090930184905584548482528286019093526040902091909155610bec565b506000610bec565b60008181526001830160205260408120548015611004576000610f3f6001836112ad565b8554909150600090610f53906001906112ad565b90506000866000018281548110610f6c57610f6c611281565b9060005260206000200154905080876000018481548110610f8f57610f8f611281565b600091825260209091200155610fa68360016112c0565b60008281526001890160205260409020558654879080610fc857610fc86112d3565b60019003818190600052602060002001600090559055866001016000878152602001908152602001600020600090556001945050505050610bec565b6000915050610bec565b60006020828403121561102057600080fd5b81356001600160e01b03198116811461103857600080fd5b9392505050565b6001600160a01b038116811461105457600080fd5b50565b60008060006040848603121561106c57600080fd5b833567ffffffffffffffff8082111561108457600080fd5b818601915086601f83011261109857600080fd5b8135818111156110a757600080fd5b8760208285010111156110b957600080fd5b602092830195509350508401356110cf8161103f565b809150509250925092565b6000602082840312156110ec57600080fd5b5035919050565b60006020828403121561110557600080fd5b81356110388161103f565b6000806040838503121561112357600080fd5b8235915060208301356111358161103f565b809150509250929050565b6000806040838503121561115357600080fd5b823561115e8161103f565b915060208301356111358161103f565b6000806040838503121561118157600080fd5b50508035926020909101359150565b81835281816020850137506000828201602090810191909152601f909101601f19169091010190565b600060018060a01b038088168352608060208401526111dc608084018789611190565b948116604084015292909216606090910152509392505050565b60006020828403121561120857600080fd5b81516110388161103f565b60006020828403121561122557600080fd5b8151801515811461103857600080fd5b602081526000611249602083018486611190565b949350505050565b60208082526016908201527539b2b73232b91034b9903737ba1030b71030b236b4b760511b604082015260600190565b634e487b7160e01b600052603260045260246000fd5b634e487b7160e01b600052601160045260246000fd5b81810381811115610bec57610bec611297565b80820180821115610bec57610bec611297565b634e487b7160e01b600052603160045260246000fdfea164736f6c6343000813000a",
  "linkReferences": {},
  "deployedLinkReferences": {}
}