{
  "_format": "hh-sol-artifact-1",
  "contractName": "RefactorCoinageSnapshot",
  "sourceName": "contracts/stake/tokens/RefactorCoinageSnapshot.sol",
  "abi": [
    {
      "anonymous": false,
      "inputs": [
        {
          "indexed": true,
          "internalType": "address",
          "name": "account",
          "type": "address"
        },
        {
          "components": [
            {
              "internalType": "uint256",
              "name": "balance",
              "type": "uint256"
            },
            {
              "internalType": "uint256",
              "name": "refactoredCount",
              "type": "uint256"
            }
          ],
          "indexed": false,
          "internalType": "struct IRefactor.Balance",
          "name": "oldBalance",
          "type": "tuple"
        },
        {
          "components": [
            {
              "internalType": "uint256",
              "name": "balance",
              "type": "uint256"
            },
            {
              "internalType": "uint256",
              "name": "refactoredCount",
              "type": "uint256"
            }
          ],
          "indexed": false,
          "internalType": "struct IRefactor.Balance",
          "name": "newBalance",
          "type": "tuple"
        },
        {
          "components": [
            {
              "internalType": "uint256",
              "name": "balance",
              "type": "uint256"
            },
            {
              "internalType": "uint256",
              "name": "refactoredCount",
              "type": "uint256"
            }
          ],
          "indexed": false,
          "internalType": "struct IRefactor.Balance",
          "name": "oldTotalBalance",
          "type": "tuple"
        },
        {
          "components": [
            {
              "internalType": "uint256",
              "name": "balance",
              "type": "uint256"
            },
            {
              "internalType": "uint256",
              "name": "refactoredCount",
              "type": "uint256"
            }
          ],
          "indexed": false,
          "internalType": "struct IRefactor.Balance",
          "name": "newTotalBalance",
          "type": "tuple"
        }
      ],
      "name": "ChangedBalance",
      "type": "event"
    },
    {
      "anonymous": false,
      "inputs": [
        {
          "components": [
            {
              "internalType": "uint256",
              "name": "factor",
              "type": "uint256"
            },
            {
              "internalType": "uint256",
              "name": "refactorCount",
              "type": "uint256"
            }
          ],
          "indexed": false,
          "internalType": "struct IRefactor.Factor",
          "name": "previous",
          "type": "tuple"
        },
        {
          "components": [
            {
              "internalType": "uint256",
              "name": "factor",
              "type": "uint256"
            },
            {
              "internalType": "uint256",
              "name": "refactorCount",
              "type": "uint256"
            }
          ],
          "indexed": false,
          "internalType": "struct IRefactor.Factor",
          "name": "next",
          "type": "tuple"
        }
      ],
      "name": "ChangedFactor",
      "type": "event"
    },
    {
      "anonymous": false,
      "inputs": [
        {
          "indexed": false,
          "internalType": "uint256",
          "name": "previous",
          "type": "uint256"
        },
        {
          "indexed": false,
          "internalType": "uint256",
          "name": "current",
          "type": "uint256"
        },
        {
          "indexed": false,
          "internalType": "uint256",
          "name": "shiftCount",
          "type": "uint256"
        }
      ],
      "name": "FactorSet",
      "type": "event"
    },
    {
      "anonymous": false,
      "inputs": [
        {
          "indexed": true,
          "internalType": "bytes32",
          "name": "role",
          "type": "bytes32"
        },
        {
          "indexed": true,
          "internalType": "bytes32",
          "name": "previousAdminRole",
          "type": "bytes32"
        },
        {
          "indexed": true,
          "internalType": "bytes32",
          "name": "newAdminRole",
          "type": "bytes32"
        }
      ],
      "name": "RoleAdminChanged",
      "type": "event"
    },
    {
      "anonymous": false,
      "inputs": [
        {
          "indexed": true,
          "internalType": "bytes32",
          "name": "role",
          "type": "bytes32"
        },
        {
          "indexed": true,
          "internalType": "address",
          "name": "account",
          "type": "address"
        },
        {
          "indexed": true,
          "internalType": "address",
          "name": "sender",
          "type": "address"
        }
      ],
      "name": "RoleGranted",
      "type": "event"
    },
    {
      "anonymous": false,
      "inputs": [
        {
          "indexed": true,
          "internalType": "bytes32",
          "name": "role",
          "type": "bytes32"
        },
        {
          "indexed": true,
          "internalType": "address",
          "name": "account",
          "type": "address"
        },
        {
          "indexed": true,
          "internalType": "address",
          "name": "sender",
          "type": "address"
        }
      ],
      "name": "RoleRevoked",
      "type": "event"
    },
    {
      "anonymous": false,
      "inputs": [
        {
          "indexed": true,
          "internalType": "address",
          "name": "from",
          "type": "address"
        },
        {
          "indexed": true,
          "internalType": "address",
          "name": "to",
          "type": "address"
        },
        {
          "indexed": false,
          "internalType": "uint256",
          "name": "value",
          "type": "uint256"
        }
      ],
      "name": "Transfer",
      "type": "event"
    },
    {
      "inputs": [],
      "name": "DEFAULT_ADMIN_ROLE",
      "outputs": [
        {
          "internalType": "bytes32",
          "name": "",
          "type": "bytes32"
        }
      ],
      "stateMutability": "view",
      "type": "function"
    },
    {
      "inputs": [],
      "name": "MINTER_ROLE",
      "outputs": [
        {
          "internalType": "bytes32",
          "name": "",
          "type": "bytes32"
        }
      ],
      "stateMutability": "view",
      "type": "function"
    },
    {
      "inputs": [],
      "name": "OPERATOR_ROLE",
      "outputs": [
        {
          "internalType": "bytes32",
          "name": "",
          "type": "bytes32"
        }
      ],
      "stateMutability": "view",
      "type": "function"
    },
    {
      "inputs": [],
      "name": "REFACTOR_BOUNDARY",
      "outputs": [
        {
          "internalType": "uint256",
          "name": "",
          "type": "uint256"
        }
      ],
      "stateMutability": "view",
      "type": "function"
    },
    {
      "inputs": [],
      "name": "REFACTOR_DIVIDER",
      "outputs": [
        {
          "internalType": "uint256",
          "name": "",
          "type": "uint256"
        }
      ],
      "stateMutability": "view",
      "type": "function"
    },
    {
      "inputs": [
        {
          "internalType": "address",
          "name": "",
          "type": "address"
        },
        {
          "internalType": "address",
          "name": "",
          "type": "address"
        }
      ],
      "name": "_allowances",
      "outputs": [
        {
          "internalType": "uint256",
          "name": "",
          "type": "uint256"
        }
      ],
      "stateMutability": "view",
      "type": "function"
    },
    {
      "inputs": [
        {
          "internalType": "address",
          "name": "",
          "type": "address"
        },
        {
          "internalType": "uint256",
          "name": "",
          "type": "uint256"
        }
      ],
      "name": "accountBalanceIds",
      "outputs": [
        {
          "internalType": "uint256",
          "name": "",
          "type": "uint256"
        }
      ],
      "stateMutability": "view",
      "type": "function"
    },
    {
      "inputs": [
        {
          "internalType": "address",
          "name": "",
          "type": "address"
        },
        {
          "internalType": "uint256",
          "name": "",
          "type": "uint256"
        }
      ],
      "name": "accountBalanceSnapshots",
      "outputs": [
        {
          "internalType": "uint256",
          "name": "balance",
          "type": "uint256"
        },
        {
          "internalType": "uint256",
          "name": "refactoredCount",
          "type": "uint256"
        }
      ],
      "stateMutability": "view",
      "type": "function"
    },
    {
      "inputs": [
        {
          "internalType": "address",
          "name": "account",
          "type": "address"
        }
      ],
      "name": "addAdmin",
      "outputs": [],
      "stateMutability": "nonpayable",
      "type": "function"
    },
    {
      "inputs": [
        {
          "internalType": "address",
          "name": "account",
          "type": "address"
        }
      ],
      "name": "addMinter",
      "outputs": [],
      "stateMutability": "nonpayable",
      "type": "function"
    },
    {
      "inputs": [
        {
          "internalType": "address",
          "name": "account",
          "type": "address"
        }
      ],
      "name": "addOperator",
      "outputs": [],
      "stateMutability": "nonpayable",
      "type": "function"
    },
    {
      "inputs": [
        {
          "internalType": "address",
          "name": "",
          "type": "address"
        }
      ],
      "name": "aliveImplementation",
      "outputs": [
        {
          "internalType": "bool",
          "name": "",
          "type": "bool"
        }
      ],
      "stateMutability": "view",
      "type": "function"
    },
    {
      "inputs": [
        {
          "components": [
            {
              "internalType": "uint256",
              "name": "balance",
              "type": "uint256"
            },
            {
              "internalType": "uint256",
              "name": "refactoredCount",
              "type": "uint256"
            }
          ],
          "internalType": "struct IRefactor.Balance",
          "name": "_balance",
          "type": "tuple"
        }
      ],
      "name": "applyFactor",
      "outputs": [
        {
          "internalType": "uint256",
          "name": "amount",
          "type": "uint256"
        }
      ],
      "stateMutability": "view",
      "type": "function"
    },
    {
      "inputs": [
        {
          "internalType": "address",
          "name": "account",
          "type": "address"
        }
      ],
      "name": "balanceOf",
      "outputs": [
        {
          "internalType": "uint256",
          "name": "amount",
          "type": "uint256"
        }
      ],
      "stateMutability": "view",
      "type": "function"
    },
    {
      "inputs": [
        {
          "internalType": "address",
          "name": "account",
          "type": "address"
        },
        {
          "internalType": "uint256",
          "name": "snapshotId",
          "type": "uint256"
        }
      ],
      "name": "balanceOfAt",
      "outputs": [
        {
          "internalType": "uint256",
          "name": "amount",
          "type": "uint256"
        }
      ],
      "stateMutability": "view",
      "type": "function"
    },
    {
      "inputs": [
        {
          "internalType": "uint256",
          "name": "amount",
          "type": "uint256"
        }
      ],
      "name": "burn",
      "outputs": [],
      "stateMutability": "nonpayable",
      "type": "function"
    },
    {
      "inputs": [
        {
          "internalType": "address",
          "name": "account",
          "type": "address"
        },
        {
          "internalType": "uint256",
          "name": "amount",
          "type": "uint256"
        }
      ],
      "name": "burnFrom",
      "outputs": [],
      "stateMutability": "nonpayable",
      "type": "function"
    },
    {
      "inputs": [],
      "name": "decimals",
      "outputs": [
        {
          "internalType": "uint8",
          "name": "",
          "type": "uint8"
        }
      ],
      "stateMutability": "pure",
      "type": "function"
    },
    {
      "inputs": [],
      "name": "factor",
      "outputs": [
        {
          "internalType": "uint256",
          "name": "",
          "type": "uint256"
        }
      ],
      "stateMutability": "view",
      "type": "function"
    },
    {
      "inputs": [
        {
          "internalType": "uint256",
          "name": "",
          "type": "uint256"
        }
      ],
      "name": "factorSnapshotIds",
      "outputs": [
        {
          "internalType": "uint256",
          "name": "",
          "type": "uint256"
        }
      ],
      "stateMutability": "view",
      "type": "function"
    },
    {
      "inputs": [
        {
          "internalType": "uint256",
          "name": "",
          "type": "uint256"
        }
      ],
      "name": "factorSnapshots",
      "outputs": [
        {
          "internalType": "uint256",
          "name": "factor",
          "type": "uint256"
        },
        {
          "internalType": "uint256",
          "name": "refactorCount",
          "type": "uint256"
        }
      ],
      "stateMutability": "view",
      "type": "function"
    },
    {
      "inputs": [
        {
          "internalType": "address",
          "name": "account",
          "type": "address"
        }
      ],
      "name": "getBalanceAndFactor",
      "outputs": [
        {
          "components": [
            {
              "internalType": "uint256",
              "name": "balance",
              "type": "uint256"
            },
            {
              "internalType": "uint256",
              "name": "refactoredCount",
              "type": "uint256"
            }
          ],
          "internalType": "struct IRefactor.Balance",
          "name": "",
          "type": "tuple"
        },
        {
          "components": [
            {
              "internalType": "uint256",
              "name": "factor",
              "type": "uint256"
            },
            {
              "internalType": "uint256",
              "name": "refactorCount",
              "type": "uint256"
            }
          ],
          "internalType": "struct IRefactor.Factor",
          "name": "",
          "type": "tuple"
        }
      ],
      "stateMutability": "view",
      "type": "function"
    },
    {
      "inputs": [
        {
          "internalType": "address",
          "name": "account",
          "type": "address"
        },
        {
          "internalType": "uint256",
          "name": "snapshotId",
          "type": "uint256"
        }
      ],
      "name": "getBalanceAndFactorAt",
      "outputs": [
        {
          "components": [
            {
              "internalType": "uint256",
              "name": "balance",
              "type": "uint256"
            },
            {
              "internalType": "uint256",
              "name": "refactoredCount",
              "type": "uint256"
            }
          ],
          "internalType": "struct IRefactor.Balance",
          "name": "",
          "type": "tuple"
        },
        {
          "components": [
            {
              "internalType": "uint256",
              "name": "factor",
              "type": "uint256"
            },
            {
              "internalType": "uint256",
              "name": "refactorCount",
              "type": "uint256"
            }
          ],
          "internalType": "struct IRefactor.Factor",
          "name": "",
          "type": "tuple"
        }
      ],
      "stateMutability": "view",
      "type": "function"
    },
    {
      "inputs": [
        {
          "internalType": "bytes32",
          "name": "role",
          "type": "bytes32"
        }
      ],
      "name": "getRoleAdmin",
      "outputs": [
        {
          "internalType": "bytes32",
          "name": "",
          "type": "bytes32"
        }
      ],
      "stateMutability": "view",
      "type": "function"
    },
    {
      "inputs": [],
      "name": "getTotalAndFactor",
      "outputs": [
        {
          "components": [
            {
              "internalType": "uint256",
              "name": "balance",
              "type": "uint256"
            },
            {
              "internalType": "uint256",
              "name": "refactoredCount",
              "type": "uint256"
            }
          ],
          "internalType": "struct IRefactor.Balance",
          "name": "",
          "type": "tuple"
        },
        {
          "components": [
            {
              "internalType": "uint256",
              "name": "factor",
              "type": "uint256"
            },
            {
              "internalType": "uint256",
              "name": "refactorCount",
              "type": "uint256"
            }
          ],
          "internalType": "struct IRefactor.Factor",
          "name": "",
          "type": "tuple"
        }
      ],
      "stateMutability": "view",
      "type": "function"
    },
    {
      "inputs": [
        {
          "internalType": "uint256",
          "name": "snapshotId",
          "type": "uint256"
        }
      ],
      "name": "getTotalAndFactorAt",
      "outputs": [
        {
          "components": [
            {
              "internalType": "uint256",
              "name": "balance",
              "type": "uint256"
            },
            {
              "internalType": "uint256",
              "name": "refactoredCount",
              "type": "uint256"
            }
          ],
          "internalType": "struct IRefactor.Balance",
          "name": "",
          "type": "tuple"
        },
        {
          "components": [
            {
              "internalType": "uint256",
              "name": "factor",
              "type": "uint256"
            },
            {
              "internalType": "uint256",
              "name": "refactorCount",
              "type": "uint256"
            }
          ],
          "internalType": "struct IRefactor.Factor",
          "name": "",
          "type": "tuple"
        }
      ],
      "stateMutability": "view",
      "type": "function"
    },
    {
      "inputs": [
        {
          "internalType": "bytes32",
          "name": "role",
          "type": "bytes32"
        },
        {
          "internalType": "address",
          "name": "account",
          "type": "address"
        }
      ],
      "name": "grantRole",
      "outputs": [],
      "stateMutability": "nonpayable",
      "type": "function"
    },
    {
      "inputs": [
        {
          "internalType": "bytes32",
          "name": "role",
          "type": "bytes32"
        },
        {
          "internalType": "address",
          "name": "account",
          "type": "address"
        }
      ],
      "name": "hasRole",
      "outputs": [
        {
          "internalType": "bool",
          "name": "",
          "type": "bool"
        }
      ],
      "stateMutability": "view",
      "type": "function"
    },
    {
      "inputs": [
        {
          "internalType": "string",
          "name": "name_",
          "type": "string"
        },
        {
          "internalType": "string",
          "name": "symbol_",
          "type": "string"
        },
        {
          "internalType": "uint256",
          "name": "factor_",
          "type": "uint256"
        },
        {
          "internalType": "address",
          "name": "seigManager_",
          "type": "address"
        }
      ],
      "name": "initialize",
      "outputs": [],
      "stateMutability": "nonpayable",
      "type": "function"
    },
    {
      "inputs": [
        {
          "internalType": "address",
          "name": "account",
          "type": "address"
        }
      ],
      "name": "isAdmin",
      "outputs": [
        {
          "internalType": "bool",
          "name": "",
          "type": "bool"
        }
      ],
      "stateMutability": "view",
      "type": "function"
    },
    {
      "inputs": [
        {
          "internalType": "address",
          "name": "account",
          "type": "address"
        }
      ],
      "name": "isMinter",
      "outputs": [
        {
          "internalType": "bool",
          "name": "",
          "type": "bool"
        }
      ],
      "stateMutability": "view",
      "type": "function"
    },
    {
      "inputs": [
        {
          "internalType": "address",
          "name": "account",
          "type": "address"
        }
      ],
      "name": "isOperator",
      "outputs": [
        {
          "internalType": "bool",
          "name": "",
          "type": "bool"
        }
      ],
      "stateMutability": "view",
      "type": "function"
    },
    {
      "inputs": [],
      "name": "isOwner",
      "outputs": [
        {
          "internalType": "bool",
          "name": "",
          "type": "bool"
        }
      ],
      "stateMutability": "view",
      "type": "function"
    },
    {
      "inputs": [],
      "name": "lastSnapshotId",
      "outputs": [
        {
          "internalType": "uint256",
          "name": "",
          "type": "uint256"
        }
      ],
      "stateMutability": "view",
      "type": "function"
    },
    {
      "inputs": [
        {
          "internalType": "address",
          "name": "account",
          "type": "address"
        },
        {
          "internalType": "uint256",
          "name": "amount",
          "type": "uint256"
        }
      ],
      "name": "mint",
      "outputs": [
        {
          "internalType": "bool",
          "name": "",
          "type": "bool"
        }
      ],
      "stateMutability": "nonpayable",
      "type": "function"
    },
    {
      "inputs": [],
      "name": "name",
      "outputs": [
        {
          "internalType": "string",
          "name": "",
          "type": "string"
        }
      ],
      "stateMutability": "view",
      "type": "function"
    },
    {
      "inputs": [],
      "name": "pauseProxy",
      "outputs": [
        {
          "internalType": "bool",
          "name": "",
          "type": "bool"
        }
      ],
      "stateMutability": "view",
      "type": "function"
    },
    {
      "inputs": [],
      "name": "progressSnapshotId",
      "outputs": [
        {
          "internalType": "uint256",
          "name": "",
          "type": "uint256"
        }
      ],
      "stateMutability": "view",
      "type": "function"
    },
    {
      "inputs": [
        {
          "internalType": "uint256",
          "name": "",
          "type": "uint256"
        }
      ],
      "name": "proxyImplementation",
      "outputs": [
        {
          "internalType": "address",
          "name": "",
          "type": "address"
        }
      ],
      "stateMutability": "view",
      "type": "function"
    },
    {
      "inputs": [
        {
          "internalType": "address",
          "name": "account",
          "type": "address"
        }
      ],
      "name": "removeAdmin",
      "outputs": [],
      "stateMutability": "nonpayable",
      "type": "function"
    },
    {
      "inputs": [
        {
          "internalType": "address",
          "name": "account",
          "type": "address"
        }
      ],
      "name": "removeMinter",
      "outputs": [],
      "stateMutability": "nonpayable",
      "type": "function"
    },
    {
      "inputs": [
        {
          "internalType": "address",
          "name": "account",
          "type": "address"
        }
      ],
      "name": "removeOperator",
      "outputs": [],
      "stateMutability": "nonpayable",
      "type": "function"
    },
    {
      "inputs": [],
      "name": "renounceMinter",
      "outputs": [],
      "stateMutability": "nonpayable",
      "type": "function"
    },
    {
      "inputs": [],
      "name": "renounceOperator",
      "outputs": [],
      "stateMutability": "nonpayable",
      "type": "function"
    },
    {
      "inputs": [],
      "name": "renounceOwnership",
      "outputs": [],
      "stateMutability": "nonpayable",
      "type": "function"
    },
    {
      "inputs": [
        {
          "internalType": "bytes32",
          "name": "role",
          "type": "bytes32"
        },
        {
          "internalType": "address",
          "name": "account",
          "type": "address"
        }
      ],
      "name": "renounceRole",
      "outputs": [],
      "stateMutability": "nonpayable",
      "type": "function"
    },
    {
      "inputs": [
        {
          "internalType": "address",
          "name": "account",
          "type": "address"
        }
      ],
      "name": "revokeMinter",
      "outputs": [],
      "stateMutability": "nonpayable",
      "type": "function"
    },
    {
      "inputs": [
        {
          "internalType": "address",
          "name": "account",
          "type": "address"
        }
      ],
      "name": "revokeOperator",
      "outputs": [],
      "stateMutability": "nonpayable",
      "type": "function"
    },
    {
      "inputs": [
        {
          "internalType": "bytes32",
          "name": "role",
          "type": "bytes32"
        },
        {
          "internalType": "address",
          "name": "account",
          "type": "address"
        }
      ],
      "name": "revokeRole",
      "outputs": [],
      "stateMutability": "nonpayable",
      "type": "function"
    },
    {
      "inputs": [],
      "name": "seigManager",
      "outputs": [
        {
          "internalType": "address",
          "name": "",
          "type": "address"
        }
      ],
      "stateMutability": "view",
      "type": "function"
    },
    {
      "inputs": [
        {
          "internalType": "bytes4",
          "name": "",
          "type": "bytes4"
        }
      ],
      "name": "selectorImplementation",
      "outputs": [
        {
          "internalType": "address",
          "name": "",
          "type": "address"
        }
      ],
      "stateMutability": "view",
      "type": "function"
    },
    {
      "inputs": [
        {
          "internalType": "uint256",
          "name": "factor_",
          "type": "uint256"
        }
      ],
      "name": "setFactor",
      "outputs": [
        {
          "internalType": "bool",
          "name": "",
          "type": "bool"
        }
      ],
      "stateMutability": "nonpayable",
      "type": "function"
    },
    {
      "inputs": [
        {
          "internalType": "address",
          "name": "_seigManager",
          "type": "address"
        }
      ],
      "name": "setSeigManager",
      "outputs": [],
      "stateMutability": "nonpayable",
      "type": "function"
    },
    {
      "inputs": [
        {
          "internalType": "bytes4",
          "name": "interfaceId",
          "type": "bytes4"
        }
      ],
      "name": "supportsInterface",
      "outputs": [
        {
          "internalType": "bool",
          "name": "",
          "type": "bool"
        }
      ],
      "stateMutability": "view",
      "type": "function"
    },
    {
      "inputs": [],
      "name": "symbol",
      "outputs": [
        {
          "internalType": "string",
          "name": "",
          "type": "string"
        }
      ],
      "stateMutability": "view",
      "type": "function"
    },
    {
      "inputs": [],
      "name": "totalSupply",
      "outputs": [
        {
          "internalType": "uint256",
          "name": "amount",
          "type": "uint256"
        }
      ],
      "stateMutability": "view",
      "type": "function"
    },
    {
      "inputs": [
        {
          "internalType": "uint256",
          "name": "snapshotId",
          "type": "uint256"
        }
      ],
      "name": "totalSupplyAt",
      "outputs": [
        {
          "internalType": "uint256",
          "name": "amount",
          "type": "uint256"
        }
      ],
      "stateMutability": "view",
      "type": "function"
    },
    {
      "inputs": [
        {
          "internalType": "uint256",
          "name": "",
          "type": "uint256"
        }
      ],
      "name": "totalSupplySnapshotIds",
      "outputs": [
        {
          "internalType": "uint256",
          "name": "",
          "type": "uint256"
        }
      ],
      "stateMutability": "view",
      "type": "function"
    },
    {
      "inputs": [
        {
          "internalType": "uint256",
          "name": "",
          "type": "uint256"
        }
      ],
      "name": "totalSupplySnapshots",
      "outputs": [
        {
          "internalType": "uint256",
          "name": "balance",
          "type": "uint256"
        },
        {
          "internalType": "uint256",
          "name": "refactoredCount",
          "type": "uint256"
        }
      ],
      "stateMutability": "view",
      "type": "function"
    },
    {
      "inputs": [
        {
          "internalType": "address",
          "name": "newAdmin",
          "type": "address"
        }
      ],
      "name": "transferAdmin",
      "outputs": [],
      "stateMutability": "nonpayable",
      "type": "function"
    },
    {
      "inputs": [
        {
          "internalType": "address",
          "name": "newAdmin",
          "type": "address"
        }
      ],
      "name": "transferOwnership",
      "outputs": [],
      "stateMutability": "nonpayable",
      "type": "function"
    }
  ],
  "bytecode": "0x608060405234801561001057600080fd5b506129d1806100206000396000f3fe608060405234801561001057600080fd5b50600436106103ae5760003560e01c80636d70f7ae116101f4578063983b2d561161011a578063b911135f116100ad578063d547741f1161007c578063d547741f14610870578063f2fde38b14610883578063f5b541a614610896578063fad8b32a146108ab57600080fd5b8063b911135f1461080c578063bd3a13f614610835578063cfbd488514610848578063d53913931461085b57600080fd5b8063aa271e1a116100e9578063aa271e1a146107ac578063ac8a584a146107bf578063b7c246d7146107d2578063b7d78b1a146107e557600080fd5b8063983b2d561461077657806398650275146107895780639870d7fe14610791578063a217fddf146107a457600080fd5b806379cc6790116101925780638f32d59b116101615780638f32d59b1461074057806391d148541461074857806395d89b411461075b578063981b24d01461076357600080fd5b806379cc6790146106fe578063817e9d3114610711578063837afbc0146107245780638639583f1461072d57600080fd5b806370a08231116101ce57806370a08231146106bd578063715018a6146106d057806375829def146106d85780637657f20a146106eb57600080fd5b80636d70f7ae146106845780636fb7f5581461069757806370480275146106aa57600080fd5b80633092afd5116102d957806354f703f811610277578063614db8b211610246578063614db8b21461063e57806363a8fd89146106515780636957f38b1461065e57806369f499b11461067157600080fd5b806354f703f8146105d9578063550d01a3146105e157806356fabf68146106045780635deaecec1461061757600080fd5b806340c10f19116102b357806340c10f191461055f57806342966c68146105725780634ee2cd7e1461058557806350d2a2761461059857600080fd5b80633092afd51461052a578063313ce5671461053d57806336568abe1461054c57600080fd5b80631397704211610351578063248a9ca311610320578063248a9ca3146104d957806324d7806c146104fc5780632ab6f8db1461050f5780632f2ff15d1461051757600080fd5b806313977042146104a15780631785f53c146104a957806318160ddd146104be57806319d5dce9146104c657600080fd5b8063024c2ddd1161038d578063024c2ddd146104045780630461fdc51461042f57806306fdde031461047657806308eef06d1461048b57600080fd5b8062d87a9c146103b357806301f6a80a146103ce57806301ffc9a7146103e1575b600080fd5b6103bb600281565b6040519081526020015b60405180910390f35b6103bb6103dc366004612233565b6108be565b6103f46103ef366004612282565b6108d8565b60405190151581526020016103c5565b6103bb6104123660046122c3565b600960209081526000928352604080842090915290825290205481565b61046161043d3660046122f6565b600f6020908152600092835260408084209091529082529020805460019091015482565b604080519283526020830191909152016103c5565b61047e6108e3565b6040516103c59190612344565b610493610971565b6040516103c5929190612377565b6103bb6109b1565b6104bc6104b736600461239d565b610a24565b005b6103bb610a60565b6104936104d436600461239d565b610a6d565b6103bb6104e73660046123b8565b60009081526005602052604090206001015490565b6103f461050a36600461239d565b610aaf565b6104bc610abb565b6104bc6105253660046123d1565b610ad5565b6104bc61053836600461239d565b610aff565b604051601b81526020016103c5565b6104bc61055a3660046123d1565b610b38565b6103f461056d3660046122f6565b610bb6565b6104bc6105803660046123b8565b610bff565b6103bb6105933660046122f6565b610c09565b6105c16105a6366004612282565b6003602052600090815260409020546001600160a01b031681565b6040516001600160a01b0390911681526020016103c5565b6103bb610c2f565b6103f46105ef36600461239d565b60026020526000908152604090205460ff1681565b6103bb6106123660046123b8565b610c5f565b6104616106253660046123b8565b600d602052600090815260409020805460019091015482565b6103bb61064c3660046123b8565b610c80565b6000546103f49060ff1681565b61049361066c3660046123b8565b610c90565b6103bb61067f3660046122f6565b610cca565b6103f461069236600461239d565b610cfb565b6006546105c1906001600160a01b031681565b6104bc6106b836600461239d565b610d15565b6103bb6106cb36600461239d565b610d45565b6104bc610d53565b6104bc6106e636600461239d565b610d83565b6104bc6106f936600461239d565b610e65565b6104bc61070c3660046122f6565b610eac565b6103f461071f3660046123b8565b610eea565b6103bb60105481565b61049361073b3660046122f6565b610fb8565b6103f4610ffe565b6103f46107563660046123d1565b611006565b61047e611031565b6103bb6107713660046123b8565b61103e565b6104bc61078436600461239d565b611062565b6104bc61109f565b6104bc61079f36600461239d565b6110b7565b6103bb600081565b6103f46107ba36600461239d565b6110f4565b6104bc6107cd36600461239d565b61110e565b6103bb6b204fce5e3e2502611000000081565b6104616107f33660046123b8565b600b602052600090815260409020805460019091015482565b6105c161081a3660046123b8565b6001602052600090815260409020546001600160a01b031681565b6104bc610843366004612481565b61114b565b6104bc61085636600461239d565b61125c565b6103bb60008051602061298583398151915281565b6104bc61087e3660046123d1565b611295565b6104bc61089136600461239d565b6112ba565b6103bb6000805160206129a583398151915281565b6104bc6108b936600461239d565b6112e8565b60006108d282600001518360200151611325565b92915050565b60006108d28261138f565b600780546108f0906124ff565b80601f016020809104026020016040519081016040528092919081815260200182805461091c906124ff565b80156109695780601f1061093e57610100808354040283529160200191610969565b820191906000526020600020905b81548152906001019060200180831161094c57829003601f168201915b505050505081565b604080518082019091526000808252602082015260408051808201909152600080825260208201526109a16113b4565b6109a961142b565b915091509091565b600654604080516309cbb82160e11b815290516000926001600160a01b03169163139770429160048083019260209291908290030181865afa1580156109fb573d6000803e3d6000fd5b505050506040513d601f19601f82011682018060405250810190610a1f9190612539565b905090565b610a2d33610aaf565b610a525760405162461bcd60e51b8152600401610a4990612552565b60405180910390fd5b610a5d600082610b38565b50565b6000610a1f6103dc6113b4565b60408051808201909152600080825260208201526040805180820190915260008082526020820152610a9e836114a2565b610aa661142b565b91509150915091565b60006108d28183611006565b610ad36000805160206129a583398151915233610b38565b565b600082815260056020526040902060010154610af081611555565b610afa838361155f565b505050565b610b0833610aaf565b610b245760405162461bcd60e51b8152600401610a4990612552565b610a5d600080516020612985833981519152825b6001600160a01b0381163314610ba85760405162461bcd60e51b815260206004820152602f60248201527f416363657373436f6e74726f6c3a2063616e206f6e6c792072656e6f756e636560448201526e103937b632b9903337b91039b2b63360891b6064820152608401610a49565b610bb282826115e5565b5050565b6000610bd060008051602061298583398151915233611006565b610bec5760405162461bcd60e51b8152600401610a4990612595565b610bf6838361164c565b50600192915050565b610a5d33826117ea565b6000806000610c188585610fb8565b91509150610c2682826119c7565b95945050505050565b600080610c3a61142b565b905080602001516002610c4d91906126d2565b8151610c5991906126de565b91505090565b600c8181548110610c6f57600080fd5b600091825260209091200154905081565b600a8181548110610c6f57600080fd5b60408051808201909152600080825260208201526040805180820190915260008082526020820152610cc183611a2e565b610aa684611aa3565b600e6020528160005260406000208181548110610ce657600080fd5b90600052602060002001600091509150505481565b60006108d26000805160206129a583398151915283611006565b610d1e33610aaf565b610d3a5760405162461bcd60e51b8152600401610a4990612552565b610a5d600082610ad5565b60006108d26103dc836114a2565b610d5c33610aaf565b610d785760405162461bcd60e51b8152600401610a4990612552565b610ad3600033610b38565b610d8c33610aaf565b610da85760405162461bcd60e51b8152600401610a4990612552565b6001600160a01b038116610dfe5760405162461bcd60e51b815260206004820152601860248201527f41636365737369626c653a207a65726f206164647265737300000000000000006044820152606401610a49565b6001600160a01b0381163303610e4f5760405162461bcd60e51b815260206004820152601660248201527520b1b1b2b9b9b4b136329d1039b0b6b29030b236b4b760511b6044820152606401610a49565b610e5a600082610ad5565b610a5d600033610b38565b610e6e33610aaf565b610e8a5760405162461bcd60e51b8152600401610a4990612552565b600680546001600160a01b0319166001600160a01b0392909216919091179055565b610ec460008051602061298583398151915233611006565b610ee05760405162461bcd60e51b8152600401610a4990612595565b610bb282826117ea565b6000610ef533610aaf565b610f115760405162461bcd60e51b8152600401610a4990612552565b6000610f1b61142b565b90506000835b6b204fce5e3e250261100000008110610f545781610f3e816126f5565b9250610f4d905060028261270e565b9050610f21565b6040805180820190915281815260208101839052610f7181611b18565b7f29ca2230155ed7b305631c2160bcce185fe471567c0e99ae17de3b6a909a838d8482604051610fa2929190612377565b60405180910390a160019450505050505b919050565b60408051808201909152600080825260208201526040805180820190915260008082526020820152610fea8385611b91565b610ff384611aa3565b915091509250929050565b6000610a1f81335b60009182526005602090815260408084206001600160a01b0393909316845291905290205460ff1690565b600880546108f0906124ff565b600080600061104c84610c90565b9150915061105a82826119c7565b949350505050565b61106b33610aaf565b6110875760405162461bcd60e51b8152600401610a4990612552565b610a5d60008051602061298583398151915282610ad5565b610ad360008051602061298583398151915233610b38565b6110c033610aaf565b6110dc5760405162461bcd60e51b8152600401610a4990612552565b610a5d6000805160206129a583398151915282610ad5565b60006108d260008051602061298583398151915283611006565b61111733610aaf565b6111335760405162461bcd60e51b8152600401610a4990612552565b610a5d6000805160206129a583398151915282610b38565b60008052600d6020527f81955a0a11e65eac625c29e8882660bae4e165a75d72780094acae8ece9a29ee54156111b95760405162461bcd60e51b8152602060048201526013602482015272185b1c9958591e481a5b9a5d1a585b1a5e9959606a1b6044820152606401610a49565b60076111c5858261277e565b5060086111d2848261277e565b506040805180820190915291825260006020808401828152918052600d905291517f81955a0a11e65eac625c29e8882660bae4e165a75d72780094acae8ece9a29ee5590517f81955a0a11e65eac625c29e8882660bae4e165a75d72780094acae8ece9a29ef55600680546001600160a01b0319166001600160a01b039092169190911790555050565b61126533610aaf565b6112815760405162461bcd60e51b8152600401610a4990612552565b610a5d600080516020612985833981519152825b6000828152600560205260409020600101546112b081611555565b610afa83836115e5565b6112c333610aaf565b6112df5760405162461bcd60e51b8152600401610a4990612552565b610a5d81610d83565b6112f133610aaf565b61130d5760405162461bcd60e51b8152600401610a4990612552565b610a5d6000805160206129a583398151915282611295565b600082600003611337575060006108d2565b600061134161142b565b9050611351848260000151611c30565b935082816020015111156113875782816020015161136f919061283e565b61137a9060026126d2565b61138490856126de565b93505b509192915050565b60006001600160e01b03198216637965db0b60e01b14806108d257506108d282611c5a565b6040805180820190915260008082526020820152600a5460009080156113ff57600a6113e160018361283e565b815481106113f1576113f1612851565b906000526020600020015491505b506000908152600b60209081526040918290208251808401909352805483526001015490820152919050565b6040805180820190915260008082526020820152600c54600090801561147657600c61145860018361283e565b8154811061146857611468612851565b906000526020600020015491505b506000908152600d60209081526040918290208251808401909352805483526001015490820152919050565b60408051808201909152600080825260208201526001600160a01b0382166000908152600e60205260408120548015611516576001600160a01b0384166000908152600e602052604090206114f860018361283e565b8154811061150857611508612851565b906000526020600020015491505b506001600160a01b039092166000908152600f602090815260408083209483529381529083902083518085019094528054845260010154908301525090565b610a5d8133611c96565b6115698282611006565b610bb25760008281526005602090815260408083206001600160a01b03851684529091529020805460ff191660011790556115a13390565b6001600160a01b0316816001600160a01b0316837f2f8788117e7eff1d82e926ec794901d17c78024a50270940304540a733656f0d60405160405180910390a45050565b6115ef8282611006565b15610bb25760008281526005602090815260408083206001600160a01b0385168085529252808320805460ff1916905551339285917ff6391f5c32d9c69d2a47ea670b442974b53935d1edc7fd64eb21e047a839171b9190a45050565b6001600160a01b0382166116b85760405162461bcd60e51b815260206004820152602d60248201527f4175746f5265666163746f72436f696e6167653a206d696e7420746f2074686560448201526c207a65726f206164647265737360981b6064820152608401610a49565b60006116c261142b565b905060006116ce6113b4565b905060006116db856114a2565b905060006116e8826108be565b905060006116f5846108be565b9050600061170b6117068885612867565b611cef565b9050600061171c6117068985612867565b60408051808201825284815260208a81018051828401528351808501909452848452519083015291925061175482828d600180611d03565b8a6001600160a01b03167f452b30c947ea249a4a1a2c0410f1780e479e022d06691644108f38c3b3e17c4788848b85604051611793949392919061287a565b60405180910390a26040518a81526001600160a01b038c16906000907fddf252ad1be2c89b69c2b068fc378daa952ba7f163c4a11628f55a4df523b3ef906020015b60405180910390a35050505050505050505050565b6001600160a01b0382166118585760405162461bcd60e51b815260206004820152602f60248201527f4175746f5265666163746f72436f696e6167653a206275726e2066726f6d207460448201526e6865207a65726f206164647265737360881b6064820152608401610a49565b600061186261142b565b9050600061186e6113b4565b9050600061187b856114a2565b90506000611888836108be565b90506000611895836108be565b90508581101580156118a75750858210155b6118ea5760405162461bcd60e51b8152602060048201526014602482015273696e73756666696369656e742062616c616e636560601b6044820152606401610a49565b60006118f9611706888561283e565b9050600061190a611706898561283e565b60408051808201825284815260208a81018051828401528351808501909452848452519083015291925061194281838d600180611d03565b8a6001600160a01b03167f452b30c947ea249a4a1a2c0410f1780e479e022d06691644108f38c3b3e17c4788838b86604051611981949392919061287a565b60405180910390a26040518a81526000906001600160a01b038d16907fddf252ad1be2c89b69c2b068fc378daa952ba7f163c4a11628f55a4df523b3ef906020016117d5565b815160009081036119da575060006108d2565b825182516119e89190611c30565b8352602080840151908301511115611a285782602001518260200151611a0e919061283e565b611a199060026126d2565b8351611a2591906126de565b83525b50505190565b6040805180820190915260008082526020820152611a4a6109b1565b821115611a695760405162461bcd60e51b8152600401610a49906128c1565b6000611a76600a84611e61565b6000908152600b602090815260409182902082518084019093528054835260010154908201529392505050565b6040805180820190915260008082526020820152611abf6109b1565b821115611ade5760405162461bcd60e51b8152600401610a49906128c1565b6000611aeb600c84611e61565b6000908152600d602090815260409182902082518084019093528054835260010154908201529392505050565b6000611b226109b1565b90506000611b30600c611fad565b905081811015611b7057600c80546001810182556000919091527fdf6966c971051c3d54ec59162606531493a51404a002842f56009d7e5cf4a8c7018290555b506000908152600d6020908152604090912082518155910151600190910155565b6040805180820190915260008082526020820152611bad6109b1565b831115611bcc5760405162461bcd60e51b8152600401610a49906128c1565b6001600160a01b0382166000908152600e60205260408120611bee9085611e61565b6001600160a01b0384166000908152600f6020908152604080832093835292815290829020825180840190935280548352600101549082015291505092915050565b60006b033b2e3c9fd0803ce8000000611c498484611fef565b611c53919061270e565b9392505050565b60006301ffc9a760e01b6001600160e01b0319831614806108d25750506001600160e01b03191660009081526004602052604090205460ff1690565b611ca08282611006565b610bb257611cad81612056565b611cb8836020612068565b604051602001611cc99291906128f8565b60408051601f198184030181529082905262461bcd60e51b8252610a4991600401612344565b60006108d282611cfd61142b565b51612204565b6000611d0d6109b1565b6001600160a01b0385166000908152600e6020526040812091925090611d3290611fad565b90506000611d40600a611fad565b90508415611df3576001600160a01b038616611d8d5760405162461bcd60e51b815260206004820152600c60248201526b1e995c9bc81858d8dbdd5b9d60a21b6044820152606401610a49565b82821015611dc1576001600160a01b0386166000908152600e60209081526040822080546001810182559083529120018390555b6001600160a01b0386166000908152600f60209081526040808320868452825290912089518155908901516001909101555b8315611e575782811015611e3757600a80546001810182556000919091527fc65a7bb8d6351c1cf70c95a316cc6a92839c986682d98bc35f958f4883f9d2a8018390555b6000838152600b6020908152604090912088518155908801516001909101555b5050505050505050565b81546000908103611e74575060006108d2565b82548390611e849060019061283e565b81548110611e9457611e94612851565b90600052602060002001548210611ed75782548390611eb59060019061283e565b81548110611ec557611ec5612851565b906000526020600020015490506108d2565b82600081548110611eea57611eea612851565b9060005260206000200154821015611f04575060006108d2565b82546000908190611f179060019061283e565b90505b81811115611f865760006002611f308484612867565b611f3b906001612867565b611f45919061270e565b905084868281548110611f5a57611f5a612851565b906000526020600020015411611f7257809250611f80565b611f7d60018261283e565b91505b50611f1a565b848281548110611f9857611f98612851565b90600052602060002001549250505092915050565b805460009015611fe75781548290611fc79060019061283e565b81548110611fd757611fd7612851565b90600052602060002001546108d2565b600092915050565b60008115806120135750828261200581836126de565b9250612011908361270e565b145b6108d25760405162461bcd60e51b815260206004820152601460248201527364732d6d6174682d6d756c2d6f766572666c6f7760601b6044820152606401610a49565b60606108d26001600160a01b03831660145b606060006120778360026126de565b612082906002612867565b67ffffffffffffffff81111561209a5761209a61221d565b6040519080825280601f01601f1916602001820160405280156120c4576020820181803683370190505b509050600360fc1b816000815181106120df576120df612851565b60200101906001600160f81b031916908160001a905350600f60fb1b8160018151811061210e5761210e612851565b60200101906001600160f81b031916908160001a90535060006121328460026126de565b61213d906001612867565b90505b60018111156121b5576f181899199a1a9b1b9c1cb0b131b232b360811b85600f166010811061217157612171612851565b1a60f81b82828151811061218757612187612851565b60200101906001600160f81b031916908160001a90535060049490941c936121ae8161296d565b9050612140565b508315611c535760405162461bcd60e51b815260206004820181905260248201527f537472696e67733a20686578206c656e67746820696e73756666696369656e746044820152606401610a49565b600081611c49846b033b2e3c9fd0803ce8000000611fef565b634e487b7160e01b600052604160045260246000fd5b60006040828403121561224557600080fd5b6040516040810181811067ffffffffffffffff821117156122685761226861221d565b604052823581526020928301359281019290925250919050565b60006020828403121561229457600080fd5b81356001600160e01b031981168114611c5357600080fd5b80356001600160a01b0381168114610fb357600080fd5b600080604083850312156122d657600080fd5b6122df836122ac565b91506122ed602084016122ac565b90509250929050565b6000806040838503121561230957600080fd5b612312836122ac565b946020939093013593505050565b60005b8381101561233b578181015183820152602001612323565b50506000910152565b6020815260008251806020840152612363816040850160208701612320565b601f01601f19169190910160400192915050565b825181526020808401518183015282516040830152820151606082015260808101611c53565b6000602082840312156123af57600080fd5b611c53826122ac565b6000602082840312156123ca57600080fd5b5035919050565b600080604083850312156123e457600080fd5b823591506122ed602084016122ac565b600082601f83011261240557600080fd5b813567ffffffffffffffff808211156124205761242061221d565b604051601f8301601f19908116603f011681019082821181831017156124485761244861221d565b8160405283815286602085880101111561246157600080fd5b836020870160208301376000602085830101528094505050505092915050565b6000806000806080858703121561249757600080fd5b843567ffffffffffffffff808211156124af57600080fd5b6124bb888389016123f4565b955060208701359150808211156124d157600080fd5b506124de878288016123f4565b935050604085013591506124f4606086016122ac565b905092959194509250565b600181811c9082168061251357607f821691505b60208210810361253357634e487b7160e01b600052602260045260246000fd5b50919050565b60006020828403121561254b57600080fd5b5051919050565b60208082526023908201527f41757468436f6e74726f6c3a2043616c6c6572206973206e6f7420616e20616460408201526236b4b760e91b606082015260800190565b60208082526023908201527f41757468436f6e74726f6c3a2043616c6c6572206973206e6f742061206d696e6040820152623a32b960e91b606082015260800190565b634e487b7160e01b600052601160045260246000fd5b600181815b8085111561262957816000190482111561260f5761260f6125d8565b8085161561261c57918102915b93841c93908002906125f3565b509250929050565b600082612640575060016108d2565b8161264d575060006108d2565b8160018114612663576002811461266d57612689565b60019150506108d2565b60ff84111561267e5761267e6125d8565b50506001821b6108d2565b5060208310610133831016604e8410600b84101617156126ac575081810a6108d2565b6126b683836125ee565b80600019048211156126ca576126ca6125d8565b029392505050565b6000611c538383612631565b80820281158282048414176108d2576108d26125d8565b600060018201612707576127076125d8565b5060010190565b60008261272b57634e487b7160e01b600052601260045260246000fd5b500490565b601f821115610afa57600081815260208120601f850160051c810160208610156127575750805b601f850160051c820191505b8181101561277657828155600101612763565b505050505050565b815167ffffffffffffffff8111156127985761279861221d565b6127ac816127a684546124ff565b84612730565b602080601f8311600181146127e157600084156127c95750858301515b600019600386901b1c1916600185901b178555612776565b600085815260208120601f198616915b82811015612810578886015182559484019460019091019084016127f1565b508582101561282e5787850151600019600388901b60f8161c191681555b5050505050600190811b01905550565b818103818111156108d2576108d26125d8565b634e487b7160e01b600052603260045260246000fd5b808201808211156108d2576108d26125d8565b845181526020808601518183015284516040830152848101516060830152835160808301528381015160a0830152825160c083015282015160e08201526101008101610c26565b6020808252601f908201527f736e617073686f744964203e2070726f6772657373536e617073686f74496400604082015260600190565b7f416363657373436f6e74726f6c3a206163636f756e7420000000000000000000815260008351612930816017850160208801612320565b7001034b99036b4b9b9b4b733903937b6329607d1b6017918401918201528351612961816028840160208801612320565b01602801949350505050565b60008161297c5761297c6125d8565b50600019019056fef0887ba65ee2024ea881d91b74c2450ef19e1557f03bed3ea9f16b037cbe2dc9523a704056dcd17bcf83bed8b68c59416dac1119be77755efe3bde0a64e46e0ca164736f6c6343000813000a",
  "linkReferences": {},
  "deployedLinkReferences": {}
}