{
  "_format": "hh-sol-artifact-1",
  "contractName": "RefactorCoinageSnapshot",
  "sourceName": "contracts/stake/tokens/RefactorCoinageSnapshot.sol",
  "abi": [
    {
      "anonymous": false,
      "inputs": [
        {
          "indexed": true,
          "internalType": "address",
          "name": "account",
          "type": "address"
        },
        {
          "components": [
            {
              "internalType": "uint256",
              "name": "balance",
              "type": "uint256"
            },
            {
              "internalType": "uint256",
              "name": "refactoredCount",
              "type": "uint256"
            }
          ],
          "indexed": false,
          "internalType": "struct IRefactor.Balance",
          "name": "oldBalance",
          "type": "tuple"
        },
        {
          "components": [
            {
              "internalType": "uint256",
              "name": "balance",
              "type": "uint256"
            },
            {
              "internalType": "uint256",
              "name": "refactoredCount",
              "type": "uint256"
            }
          ],
          "indexed": false,
          "internalType": "struct IRefactor.Balance",
          "name": "newBalance",
          "type": "tuple"
        },
        {
          "components": [
            {
              "internalType": "uint256",
              "name": "balance",
              "type": "uint256"
            },
            {
              "internalType": "uint256",
              "name": "refactoredCount",
              "type": "uint256"
            }
          ],
          "indexed": false,
          "internalType": "struct IRefactor.Balance",
          "name": "oldTotalBalance",
          "type": "tuple"
        },
        {
          "components": [
            {
              "internalType": "uint256",
              "name": "balance",
              "type": "uint256"
            },
            {
              "internalType": "uint256",
              "name": "refactoredCount",
              "type": "uint256"
            }
          ],
          "indexed": false,
          "internalType": "struct IRefactor.Balance",
          "name": "newTotalBalance",
          "type": "tuple"
        }
      ],
      "name": "ChangedBalance",
      "type": "event"
    },
    {
      "anonymous": false,
      "inputs": [
        {
          "components": [
            {
              "internalType": "uint256",
              "name": "factor",
              "type": "uint256"
            },
            {
              "internalType": "uint256",
              "name": "refactorCount",
              "type": "uint256"
            }
          ],
          "indexed": false,
          "internalType": "struct IRefactor.Factor",
          "name": "previous",
          "type": "tuple"
        },
        {
          "components": [
            {
              "internalType": "uint256",
              "name": "factor",
              "type": "uint256"
            },
            {
              "internalType": "uint256",
              "name": "refactorCount",
              "type": "uint256"
            }
          ],
          "indexed": false,
          "internalType": "struct IRefactor.Factor",
          "name": "next",
          "type": "tuple"
        }
      ],
      "name": "ChangedFactor",
      "type": "event"
    },
    {
      "anonymous": false,
      "inputs": [
        {
          "indexed": false,
          "internalType": "uint256",
          "name": "previous",
          "type": "uint256"
        },
        {
          "indexed": false,
          "internalType": "uint256",
          "name": "current",
          "type": "uint256"
        },
        {
          "indexed": false,
          "internalType": "uint256",
          "name": "shiftCount",
          "type": "uint256"
        }
      ],
      "name": "FactorSet",
      "type": "event"
    },
    {
      "anonymous": false,
      "inputs": [
        {
          "indexed": true,
          "internalType": "bytes32",
          "name": "role",
          "type": "bytes32"
        },
        {
          "indexed": true,
          "internalType": "bytes32",
          "name": "previousAdminRole",
          "type": "bytes32"
        },
        {
          "indexed": true,
          "internalType": "bytes32",
          "name": "newAdminRole",
          "type": "bytes32"
        }
      ],
      "name": "RoleAdminChanged",
      "type": "event"
    },
    {
      "anonymous": false,
      "inputs": [
        {
          "indexed": true,
          "internalType": "bytes32",
          "name": "role",
          "type": "bytes32"
        },
        {
          "indexed": true,
          "internalType": "address",
          "name": "account",
          "type": "address"
        },
        {
          "indexed": true,
          "internalType": "address",
          "name": "sender",
          "type": "address"
        }
      ],
      "name": "RoleGranted",
      "type": "event"
    },
    {
      "anonymous": false,
      "inputs": [
        {
          "indexed": true,
          "internalType": "bytes32",
          "name": "role",
          "type": "bytes32"
        },
        {
          "indexed": true,
          "internalType": "address",
          "name": "account",
          "type": "address"
        },
        {
          "indexed": true,
          "internalType": "address",
          "name": "sender",
          "type": "address"
        }
      ],
      "name": "RoleRevoked",
      "type": "event"
    },
    {
      "anonymous": false,
      "inputs": [
        {
          "indexed": true,
          "internalType": "address",
          "name": "from",
          "type": "address"
        },
        {
          "indexed": true,
          "internalType": "address",
          "name": "to",
          "type": "address"
        },
        {
          "indexed": false,
          "internalType": "uint256",
          "name": "value",
          "type": "uint256"
        }
      ],
      "name": "Transfer",
      "type": "event"
    },
    {
      "inputs": [],
      "name": "DEFAULT_ADMIN_ROLE",
      "outputs": [
        {
          "internalType": "bytes32",
          "name": "",
          "type": "bytes32"
        }
      ],
      "stateMutability": "view",
      "type": "function"
    },
    {
      "inputs": [],
      "name": "MINTER_ROLE",
      "outputs": [
        {
          "internalType": "bytes32",
          "name": "",
          "type": "bytes32"
        }
      ],
      "stateMutability": "view",
      "type": "function"
    },
    {
      "inputs": [],
      "name": "OPERATOR_ROLE",
      "outputs": [
        {
          "internalType": "bytes32",
          "name": "",
          "type": "bytes32"
        }
      ],
      "stateMutability": "view",
      "type": "function"
    },
    {
      "inputs": [],
      "name": "REFACTOR_BOUNDARY",
      "outputs": [
        {
          "internalType": "uint256",
          "name": "",
          "type": "uint256"
        }
      ],
      "stateMutability": "view",
      "type": "function"
    },
    {
      "inputs": [],
      "name": "REFACTOR_DIVIDER",
      "outputs": [
        {
          "internalType": "uint256",
          "name": "",
          "type": "uint256"
        }
      ],
      "stateMutability": "view",
      "type": "function"
    },
    {
      "inputs": [
        {
          "internalType": "address",
          "name": "",
          "type": "address"
        },
        {
          "internalType": "address",
          "name": "",
          "type": "address"
        }
      ],
      "name": "_allowances",
      "outputs": [
        {
          "internalType": "uint256",
          "name": "",
          "type": "uint256"
        }
      ],
      "stateMutability": "view",
      "type": "function"
    },
    {
      "inputs": [
        {
          "internalType": "address",
          "name": "",
          "type": "address"
        },
        {
          "internalType": "uint256",
          "name": "",
          "type": "uint256"
        }
      ],
      "name": "accountBalanceIds",
      "outputs": [
        {
          "internalType": "uint256",
          "name": "",
          "type": "uint256"
        }
      ],
      "stateMutability": "view",
      "type": "function"
    },
    {
      "inputs": [
        {
          "internalType": "address",
          "name": "",
          "type": "address"
        },
        {
          "internalType": "uint256",
          "name": "",
          "type": "uint256"
        }
      ],
      "name": "accountBalanceSnapshots",
      "outputs": [
        {
          "internalType": "uint256",
          "name": "balance",
          "type": "uint256"
        },
        {
          "internalType": "uint256",
          "name": "refactoredCount",
          "type": "uint256"
        }
      ],
      "stateMutability": "view",
      "type": "function"
    },
    {
      "inputs": [
        {
          "internalType": "address",
          "name": "account",
          "type": "address"
        }
      ],
      "name": "addAdmin",
      "outputs": [],
      "stateMutability": "nonpayable",
      "type": "function"
    },
    {
      "inputs": [
        {
          "internalType": "address",
          "name": "account",
          "type": "address"
        }
      ],
      "name": "addMinter",
      "outputs": [],
      "stateMutability": "nonpayable",
      "type": "function"
    },
    {
      "inputs": [
        {
          "internalType": "address",
          "name": "account",
          "type": "address"
        }
      ],
      "name": "addOperator",
      "outputs": [],
      "stateMutability": "nonpayable",
      "type": "function"
    },
    {
      "inputs": [
        {
          "internalType": "address",
          "name": "",
          "type": "address"
        }
      ],
      "name": "aliveImplementation",
      "outputs": [
        {
          "internalType": "bool",
          "name": "",
          "type": "bool"
        }
      ],
      "stateMutability": "view",
      "type": "function"
    },
    {
      "inputs": [
        {
          "components": [
            {
              "internalType": "uint256",
              "name": "balance",
              "type": "uint256"
            },
            {
              "internalType": "uint256",
              "name": "refactoredCount",
              "type": "uint256"
            }
          ],
          "internalType": "struct IRefactor.Balance",
          "name": "_balance",
          "type": "tuple"
        }
      ],
      "name": "applyFactor",
      "outputs": [
        {
          "internalType": "uint256",
          "name": "amount",
          "type": "uint256"
        }
      ],
      "stateMutability": "view",
      "type": "function"
    },
    {
      "inputs": [
        {
          "internalType": "address",
          "name": "account",
          "type": "address"
        }
      ],
      "name": "balanceOf",
      "outputs": [
        {
          "internalType": "uint256",
          "name": "amount",
          "type": "uint256"
        }
      ],
      "stateMutability": "view",
      "type": "function"
    },
    {
      "inputs": [
        {
          "internalType": "address",
          "name": "account",
          "type": "address"
        },
        {
          "internalType": "uint256",
          "name": "snapshotId",
          "type": "uint256"
        }
      ],
      "name": "balanceOfAt",
      "outputs": [
        {
          "internalType": "uint256",
          "name": "amount",
          "type": "uint256"
        }
      ],
      "stateMutability": "view",
      "type": "function"
    },
    {
      "inputs": [
        {
          "internalType": "uint256",
          "name": "amount",
          "type": "uint256"
        }
      ],
      "name": "burn",
      "outputs": [],
      "stateMutability": "nonpayable",
      "type": "function"
    },
    {
      "inputs": [
        {
          "internalType": "address",
          "name": "account",
          "type": "address"
        },
        {
          "internalType": "uint256",
          "name": "amount",
          "type": "uint256"
        }
      ],
      "name": "burnFrom",
      "outputs": [],
      "stateMutability": "nonpayable",
      "type": "function"
    },
    {
      "inputs": [],
      "name": "decimals",
      "outputs": [
        {
          "internalType": "uint8",
          "name": "",
          "type": "uint8"
        }
      ],
      "stateMutability": "pure",
      "type": "function"
    },
    {
      "inputs": [],
      "name": "factor",
      "outputs": [
        {
          "internalType": "uint256",
          "name": "",
          "type": "uint256"
        }
      ],
      "stateMutability": "view",
      "type": "function"
    },
    {
      "inputs": [
        {
          "internalType": "uint256",
          "name": "",
          "type": "uint256"
        }
      ],
      "name": "factorSnapshotIds",
      "outputs": [
        {
          "internalType": "uint256",
          "name": "",
          "type": "uint256"
        }
      ],
      "stateMutability": "view",
      "type": "function"
    },
    {
      "inputs": [
        {
          "internalType": "uint256",
          "name": "",
          "type": "uint256"
        }
      ],
      "name": "factorSnapshots",
      "outputs": [
        {
          "internalType": "uint256",
          "name": "factor",
          "type": "uint256"
        },
        {
          "internalType": "uint256",
          "name": "refactorCount",
          "type": "uint256"
        }
      ],
      "stateMutability": "view",
      "type": "function"
    },
    {
      "inputs": [
        {
          "internalType": "address",
          "name": "account",
          "type": "address"
        }
      ],
      "name": "getBalanceAndFactor",
      "outputs": [
        {
          "components": [
            {
              "internalType": "uint256",
              "name": "balance",
              "type": "uint256"
            },
            {
              "internalType": "uint256",
              "name": "refactoredCount",
              "type": "uint256"
            }
          ],
          "internalType": "struct IRefactor.Balance",
          "name": "",
          "type": "tuple"
        },
        {
          "components": [
            {
              "internalType": "uint256",
              "name": "factor",
              "type": "uint256"
            },
            {
              "internalType": "uint256",
              "name": "refactorCount",
              "type": "uint256"
            }
          ],
          "internalType": "struct IRefactor.Factor",
          "name": "",
          "type": "tuple"
        }
      ],
      "stateMutability": "view",
      "type": "function"
    },
    {
      "inputs": [
        {
          "internalType": "address",
          "name": "account",
          "type": "address"
        },
        {
          "internalType": "uint256",
          "name": "snapshotId",
          "type": "uint256"
        }
      ],
      "name": "getBalanceAndFactorAt",
      "outputs": [
        {
          "components": [
            {
              "internalType": "uint256",
              "name": "balance",
              "type": "uint256"
            },
            {
              "internalType": "uint256",
              "name": "refactoredCount",
              "type": "uint256"
            }
          ],
          "internalType": "struct IRefactor.Balance",
          "name": "",
          "type": "tuple"
        },
        {
          "components": [
            {
              "internalType": "uint256",
              "name": "factor",
              "type": "uint256"
            },
            {
              "internalType": "uint256",
              "name": "refactorCount",
              "type": "uint256"
            }
          ],
          "internalType": "struct IRefactor.Factor",
          "name": "",
          "type": "tuple"
        }
      ],
      "stateMutability": "view",
      "type": "function"
    },
    {
      "inputs": [
        {
          "internalType": "bytes32",
          "name": "role",
          "type": "bytes32"
        }
      ],
      "name": "getRoleAdmin",
      "outputs": [
        {
          "internalType": "bytes32",
          "name": "",
          "type": "bytes32"
        }
      ],
      "stateMutability": "view",
      "type": "function"
    },
    {
      "inputs": [],
      "name": "getTotalAndFactor",
      "outputs": [
        {
          "components": [
            {
              "internalType": "uint256",
              "name": "balance",
              "type": "uint256"
            },
            {
              "internalType": "uint256",
              "name": "refactoredCount",
              "type": "uint256"
            }
          ],
          "internalType": "struct IRefactor.Balance",
          "name": "",
          "type": "tuple"
        },
        {
          "components": [
            {
              "internalType": "uint256",
              "name": "factor",
              "type": "uint256"
            },
            {
              "internalType": "uint256",
              "name": "refactorCount",
              "type": "uint256"
            }
          ],
          "internalType": "struct IRefactor.Factor",
          "name": "",
          "type": "tuple"
        }
      ],
      "stateMutability": "view",
      "type": "function"
    },
    {
      "inputs": [
        {
          "internalType": "uint256",
          "name": "snapshotId",
          "type": "uint256"
        }
      ],
      "name": "getTotalAndFactorAt",
      "outputs": [
        {
          "components": [
            {
              "internalType": "uint256",
              "name": "balance",
              "type": "uint256"
            },
            {
              "internalType": "uint256",
              "name": "refactoredCount",
              "type": "uint256"
            }
          ],
          "internalType": "struct IRefactor.Balance",
          "name": "",
          "type": "tuple"
        },
        {
          "components": [
            {
              "internalType": "uint256",
              "name": "factor",
              "type": "uint256"
            },
            {
              "internalType": "uint256",
              "name": "refactorCount",
              "type": "uint256"
            }
          ],
          "internalType": "struct IRefactor.Factor",
          "name": "",
          "type": "tuple"
        }
      ],
      "stateMutability": "view",
      "type": "function"
    },
    {
      "inputs": [
        {
          "internalType": "bytes32",
          "name": "role",
          "type": "bytes32"
        },
        {
          "internalType": "address",
          "name": "account",
          "type": "address"
        }
      ],
      "name": "grantRole",
      "outputs": [],
      "stateMutability": "nonpayable",
      "type": "function"
    },
    {
      "inputs": [
        {
          "internalType": "bytes32",
          "name": "role",
          "type": "bytes32"
        },
        {
          "internalType": "address",
          "name": "account",
          "type": "address"
        }
      ],
      "name": "hasRole",
      "outputs": [
        {
          "internalType": "bool",
          "name": "",
          "type": "bool"
        }
      ],
      "stateMutability": "view",
      "type": "function"
    },
    {
      "inputs": [
        {
          "internalType": "string",
          "name": "name_",
          "type": "string"
        },
        {
          "internalType": "string",
          "name": "symbol_",
          "type": "string"
        },
        {
          "internalType": "uint256",
          "name": "factor_",
          "type": "uint256"
        },
        {
          "internalType": "address",
          "name": "seigManager_",
          "type": "address"
        }
      ],
      "name": "initialize",
      "outputs": [],
      "stateMutability": "nonpayable",
      "type": "function"
    },
    {
      "inputs": [
        {
          "internalType": "address",
          "name": "account",
          "type": "address"
        }
      ],
      "name": "isAdmin",
      "outputs": [
        {
          "internalType": "bool",
          "name": "",
          "type": "bool"
        }
      ],
      "stateMutability": "view",
      "type": "function"
    },
    {
      "inputs": [
        {
          "internalType": "address",
          "name": "account",
          "type": "address"
        }
      ],
      "name": "isMinter",
      "outputs": [
        {
          "internalType": "bool",
          "name": "",
          "type": "bool"
        }
      ],
      "stateMutability": "view",
      "type": "function"
    },
    {
      "inputs": [
        {
          "internalType": "address",
          "name": "account",
          "type": "address"
        }
      ],
      "name": "isOperator",
      "outputs": [
        {
          "internalType": "bool",
          "name": "",
          "type": "bool"
        }
      ],
      "stateMutability": "view",
      "type": "function"
    },
    {
      "inputs": [],
      "name": "isOwner",
      "outputs": [
        {
          "internalType": "bool",
          "name": "",
          "type": "bool"
        }
      ],
      "stateMutability": "view",
      "type": "function"
    },
    {
      "inputs": [],
      "name": "lastSnapshotId",
      "outputs": [
        {
          "internalType": "uint256",
          "name": "",
          "type": "uint256"
        }
      ],
      "stateMutability": "view",
      "type": "function"
    },
    {
      "inputs": [
        {
          "internalType": "address",
          "name": "account",
          "type": "address"
        },
        {
          "internalType": "uint256",
          "name": "amount",
          "type": "uint256"
        }
      ],
      "name": "mint",
      "outputs": [
        {
          "internalType": "bool",
          "name": "",
          "type": "bool"
        }
      ],
      "stateMutability": "nonpayable",
      "type": "function"
    },
    {
      "inputs": [],
      "name": "name",
      "outputs": [
        {
          "internalType": "string",
          "name": "",
          "type": "string"
        }
      ],
      "stateMutability": "view",
      "type": "function"
    },
    {
      "inputs": [],
      "name": "pauseProxy",
      "outputs": [
        {
          "internalType": "bool",
          "name": "",
          "type": "bool"
        }
      ],
      "stateMutability": "view",
      "type": "function"
    },
    {
      "inputs": [],
      "name": "progressSnapshotId",
      "outputs": [
        {
          "internalType": "uint256",
          "name": "",
          "type": "uint256"
        }
      ],
      "stateMutability": "view",
      "type": "function"
    },
    {
      "inputs": [
        {
          "internalType": "uint256",
          "name": "",
          "type": "uint256"
        }
      ],
      "name": "proxyImplementation",
      "outputs": [
        {
          "internalType": "address",
          "name": "",
          "type": "address"
        }
      ],
      "stateMutability": "view",
      "type": "function"
    },
    {
      "inputs": [
        {
          "internalType": "address",
          "name": "account",
          "type": "address"
        }
      ],
      "name": "removeAdmin",
      "outputs": [],
      "stateMutability": "nonpayable",
      "type": "function"
    },
    {
      "inputs": [
        {
          "internalType": "address",
          "name": "account",
          "type": "address"
        }
      ],
      "name": "removeMinter",
      "outputs": [],
      "stateMutability": "nonpayable",
      "type": "function"
    },
    {
      "inputs": [
        {
          "internalType": "address",
          "name": "account",
          "type": "address"
        }
      ],
      "name": "removeOperator",
      "outputs": [],
      "stateMutability": "nonpayable",
      "type": "function"
    },
    {
      "inputs": [],
      "name": "renounceMinter",
      "outputs": [],
      "stateMutability": "nonpayable",
      "type": "function"
    },
    {
      "inputs": [],
      "name": "renounceOperator",
      "outputs": [],
      "stateMutability": "nonpayable",
      "type": "function"
    },
    {
      "inputs": [],
      "name": "renounceOwnership",
      "outputs": [],
      "stateMutability": "nonpayable",
      "type": "function"
    },
    {
      "inputs": [
        {
          "internalType": "bytes32",
          "name": "role",
          "type": "bytes32"
        },
        {
          "internalType": "address",
          "name": "account",
          "type": "address"
        }
      ],
      "name": "renounceRole",
      "outputs": [],
      "stateMutability": "nonpayable",
      "type": "function"
    },
    {
      "inputs": [
        {
          "internalType": "address",
          "name": "account",
          "type": "address"
        }
      ],
      "name": "revokeMinter",
      "outputs": [],
      "stateMutability": "nonpayable",
      "type": "function"
    },
    {
      "inputs": [
        {
          "internalType": "address",
          "name": "account",
          "type": "address"
        }
      ],
      "name": "revokeOperator",
      "outputs": [],
      "stateMutability": "nonpayable",
      "type": "function"
    },
    {
      "inputs": [
        {
          "internalType": "bytes32",
          "name": "role",
          "type": "bytes32"
        },
        {
          "internalType": "address",
          "name": "account",
          "type": "address"
        }
      ],
      "name": "revokeRole",
      "outputs": [],
      "stateMutability": "nonpayable",
      "type": "function"
    },
    {
      "inputs": [],
      "name": "seigManager",
      "outputs": [
        {
          "internalType": "address",
          "name": "",
          "type": "address"
        }
      ],
      "stateMutability": "view",
      "type": "function"
    },
    {
      "inputs": [
        {
          "internalType": "bytes4",
          "name": "",
          "type": "bytes4"
        }
      ],
      "name": "selectorImplementation",
      "outputs": [
        {
          "internalType": "address",
          "name": "",
          "type": "address"
        }
      ],
      "stateMutability": "view",
      "type": "function"
    },
    {
      "inputs": [
        {
          "internalType": "uint256",
          "name": "factor_",
          "type": "uint256"
        }
      ],
      "name": "setFactor",
      "outputs": [
        {
          "internalType": "bool",
          "name": "",
          "type": "bool"
        }
      ],
      "stateMutability": "nonpayable",
      "type": "function"
    },
    {
      "inputs": [
        {
          "internalType": "address",
          "name": "_seigManager",
          "type": "address"
        }
      ],
      "name": "setSeigManager",
      "outputs": [],
      "stateMutability": "nonpayable",
      "type": "function"
    },
    {
      "inputs": [
        {
          "internalType": "bytes4",
          "name": "interfaceId",
          "type": "bytes4"
        }
      ],
      "name": "supportsInterface",
      "outputs": [
        {
          "internalType": "bool",
          "name": "",
          "type": "bool"
        }
      ],
      "stateMutability": "view",
      "type": "function"
    },
    {
      "inputs": [],
      "name": "symbol",
      "outputs": [
        {
          "internalType": "string",
          "name": "",
          "type": "string"
        }
      ],
      "stateMutability": "view",
      "type": "function"
    },
    {
      "inputs": [],
      "name": "totalSupply",
      "outputs": [
        {
          "internalType": "uint256",
          "name": "amount",
          "type": "uint256"
        }
      ],
      "stateMutability": "view",
      "type": "function"
    },
    {
      "inputs": [
        {
          "internalType": "uint256",
          "name": "snapshotId",
          "type": "uint256"
        }
      ],
      "name": "totalSupplyAt",
      "outputs": [
        {
          "internalType": "uint256",
          "name": "amount",
          "type": "uint256"
        }
      ],
      "stateMutability": "view",
      "type": "function"
    },
    {
      "inputs": [
        {
          "internalType": "uint256",
          "name": "",
          "type": "uint256"
        }
      ],
      "name": "totalSupplySnapshotIds",
      "outputs": [
        {
          "internalType": "uint256",
          "name": "",
          "type": "uint256"
        }
      ],
      "stateMutability": "view",
      "type": "function"
    },
    {
      "inputs": [
        {
          "internalType": "uint256",
          "name": "",
          "type": "uint256"
        }
      ],
      "name": "totalSupplySnapshots",
      "outputs": [
        {
          "internalType": "uint256",
          "name": "balance",
          "type": "uint256"
        },
        {
          "internalType": "uint256",
          "name": "refactoredCount",
          "type": "uint256"
        }
      ],
      "stateMutability": "view",
      "type": "function"
    },
    {
      "inputs": [
        {
          "internalType": "address",
          "name": "newAdmin",
          "type": "address"
        }
      ],
      "name": "transferAdmin",
      "outputs": [],
      "stateMutability": "nonpayable",
      "type": "function"
    },
    {
      "inputs": [
        {
          "internalType": "address",
          "name": "newAdmin",
          "type": "address"
        }
      ],
      "name": "transferOwnership",
      "outputs": [],
      "stateMutability": "nonpayable",
      "type": "function"
    }
  ],
  "bytecode": "0x6080806040523461001657612f5d908161001c8239f35b600080fdfe608060408181526004918236101561001657600080fd5b600092833560e01c918262d87a9c14611aa85750816301f6a80a14611a7057816301ffc9a7146119f4578163024c2ddd146119ab5781630461fdc51461195f57816306fdde03146118b557816308eef06d1461187657816313977042146118595781631785f53c1461182b57816318160ddd1461180b57816319d5dce91461178b578163248a9ca31461176057816324d7806c1461171a5781632ab6f8db146117005781632f2ff15d146116655781633092afd514611637578163313ce5671461161b57816336568abe1461158957816340c10f19146113ce57816342966c68146113b05781634ee2cd7e1461138d57816350d2a2761461134957816354f703f814611315578163550d01a3146112d757816356fabf68146112ac5781635deaecec1461127a578163614db8b21461124f57816363a8fd891461122d5781636957f38b1461120c57816369f499b1146111b65781636d70f7ae146111625781636fb7f55814611139578163704802751461109657816370a0823114611061578163715018a61461103b57816375829def1461101e5781637657f20a14610fc057816379cc679014610f6b578163817e9d3114610da2578163837afbc014610d835781638639583f14610d305781638f32d59b14610cfd57816391d1485414610cb657816395d89b4114610bd5578163981b24d014610ba5578163983b2d5614610b555781639865027514610b3b5781639870d7fe14610a88578163a217fddf14610a6d578163aa271e1a14610a19578163ac8a584a146109e8578163b7c246d7146109c1578163b7d78b1a1461098f578163b911135f1461095c578163bd3a13f6146105b0578163cfbd488514610560578163d539139314610537578163d547741f146104fb578163f2fde38b146103b757508063f5b541a61461038f5763fad8b32a146102c357600080fd5b3461038b5760209081600319360112610387576102de611b17565b906102f06102eb33611cc4565b612296565b600080516020612f31833981519152928385526005815261031660018387200154611d01565b838552600581528185206001600160a01b039093168086529281528185205460ff16610340578480f35b8385526005815281852083865290528320805460ff1916905533917ff6391f5c32d9c69d2a47ea670b442974b53935d1edc7fd64eb21e047a839171b8480a4388080808480f35b8280fd5b5080fd5b503461038b578160031936011261038b5760209051600080516020612f318339815191528152f35b91905034610387576020806003193601126104f7576103d4611b17565b6103e06102eb33611cc4565b6103ec6102eb33611cc4565b6001600160a01b03169283156104b65783331461047c57508380526005815261041a60018386200154611d01565b83805260058152818420838552815260ff828520541615610443575b8361044033612030565b80f35b8380526005815281842083855290528220805460ff19166001179055339082600080516020612ef18339815191528180a4388080610436565b915162461bcd60e51b815291820152601660248201527520b1b1b2b9b9b4b136329d1039b0b6b29030b236b4b760511b6044820152606490fd5b915162461bcd60e51b815291820152601860248201527f41636365737369626c653a207a65726f206164647265737300000000000000006044820152606490fd5b8380fd5b9190503461038757806003193601126103875761044091356105326001610520611b32565b93838752600560205286200154611d01565b61221e565b50503461038b578160031936011261038b5760209051600080516020612f118339815191528152f35b50503461038b57602090816003193601126103875761057d611b17565b9061058a6102eb33611cc4565b600080516020612f11833981519152928385526005815261031660018387200154611d01565b9050346103875760803660031901126103875767ffffffffffffffff918135838111610958576105e39036908401611c6d565b92602435818111610954576105fb9036908501611c6d565b6064356001600160a01b03811695919086900361095057868052602094600d8652848820546109175782518481116109045780610639600754611b48565b94601f95868111610899575b508890868311600114610816578b9261080b575b50508160011b916000199060031b1c1916176007555b81519384116107f85750610684600854611b48565b828111610799575b5084918311600114610712576106ec94939291879183610707575b50508160011b916000199060031b1c1916176008555b600d8151926106cb84611ac3565b60443584528681850152868052528420906020600191805184550151910155565b6bffffffffffffffffffffffff60a01b600654161760065580f35b0151905038806106a7565b600887527ff3f7a9fe364faab93b216da50a3214154f22a0a2b415b23a84c8169e8b636ee39190601f198416885b81811061078257509160019391856106ec9897969410610769575b505050811b016008556106bd565b015160001960f88460031b161c1916905538808061075b565b929387600181928786015181550195019301610740565b600888527ff3f7a9fe364faab93b216da50a3214154f22a0a2b415b23a84c8169e8b636ee38380860160051c8201928887106107ef575b0160051c01905b8181106107e4575061068c565b8881556001016107d7565b925081926107d0565b634e487b7160e01b885260419052602487fd5b015190503880610659565b60078c527fa66cc928b5edb82af9bd49922954155ab7b0942694bea4ce44661d9a8736c6889250601f1984168c5b8b82821061088357505090846001959493921061086a575b505050811b0160075561066f565b015160001960f88460031b161c1916905538808061085c565b6001859682939686015181550195019301610844565b90915060078b527fa66cc928b5edb82af9bd49922954155ab7b0942694bea4ce44661d9a8736c6888680850160051c8201928b86106108fb575b9085949392910160051c01905b8181106108ed5750610645565b8c81558493506001016108e0565b925081926108d3565b634e487b7160e01b895260418252602489fd5b845162461bcd60e51b81529081018690526013602482015272185b1c9958591e481a5b9a5d1a585b1a5e9959606a1b6044820152606490fd5b8680fd5b8580fd5b8480fd5b9050346103875760203660031901126103875735825260016020908152918190205490516001600160a01b039091168152f35b90503461038757602036600319011261038757918192358152600b602052206001815491015482519182526020820152f35b50503461038b578160031936011261038b57602090516b204fce5e3e250261100000008152f35b8334610a16576020366003190112610a1657610440610a05611b17565b610a116102eb33611cc4565b61211f565b80fd5b50503461038b57602036600319011261038b5760ff81602093610a3a611b17565b600080516020612f118339815191528252600586528282206001600160a01b039091168252855220549151911615158152f35b50503461038b578160031936011261038b5751908152602090f35b50503461038b576020908160031936011261038757610aa5611b17565b90610ab26102eb33611cc4565b600080516020612f318339815191529283855260058152610ad860018387200154611d01565b838552600581528185206001600160a01b039093168086529281528185205460ff1615610b03578480f35b8385526005815281852083865290528320805460ff191660011790553391600080516020612ef18339815191528480a4388080808480f35b8334610a165780600319360112610a1657610440336121c1565b50503461038b576020908160031936011261038757610b72611b17565b90610b7f6102eb33611cc4565b600080516020612f118339815191529283855260058152610ad860018387200154611d01565b828434610a16576020366003190112610a165750610bce610bc86020933561290b565b906128b7565b9051908152f35b50503461038b578160031936011261038b5780519082600854610bf781611b48565b80855291600191808316908115610c8e5750600114610c31575b505050610c2382610c2d940383611af5565b5191829182611ba5565b0390f35b9450600885527ff3f7a9fe364faab93b216da50a3214154f22a0a2b415b23a84c8169e8b636ee35b828610610c7657505050610c23826020610c2d9582010194610c11565b80546020878701810191909152909501948101610c59565b610c2d975086935060209250610c2394915060ff191682840152151560051b82010194610c11565b9050346103875781600319360112610387578160209360ff92610cd7611b32565b90358252600586528282206001600160a01b039091168252855220549151911615158152f35b50503461038b578160031936011261038b5760ff8183806020955260058552818120338252855220541690519015158152f35b50503461038b578060031936011261038b57610c2d90610d5a610d51611b17565b60243590612983565b915181518152602091820151828201528251604082015291015160608201529081906080820190565b50503461038b578160031936011261038b576020906010549051908152f35b83833461038b5760209182600319360112610a1657808052600583528181203382528352610dd560ff8383205416612296565b610ddd612a8b565b818535925b6b204fce5e3e25026110000000841015610f4257845193610e0285611ac3565b845285840152610e106127a9565b600c5480610f0d5781835b10610e88575b508152600d85528390208251815560208301516001909101557f29ca2230155ed7b305631c2160bcce185fe471567c0e99ae17de3b6a909a838d91905b83518151815260209182015182820152825160408201529101516060820152608090a15160018152f35b600160401b811015610efa578596975094610e5e9282610eed8794610ed48a60017f29ca2230155ed7b305631c2160bcce185fe471567c0e99ae17de3b6a909a838d9c01600c55611bd1565b90919082549060031b91821b91600019901b1916179055565b9250925094879650610e21565b634e487b7160e01b835260418852602483fd5b6000198101818111610f2f57610f238391611bd1565b90549060031b1c610e1b565b634e487b7160e01b845260118952602484fd5b6000198114610f58576001019260011c92610de2565b634e487b7160e01b825260118752602482fd5b50503461038b578060031936011261038b5761044090610fb760ff610f8e611b17565b92600080516020612f11833981519152865260056020528086203387526020528520541661230e565b602435906123d2565b50503461038b57602036600319011261038b57610ffb60ff610fe0611b17565b92848052600560205280852033865260205284205416612296565b60018060a01b03166bffffffffffffffffffffffff60a01b600654161760065580f35b91905034610387576020806003193601126104f7576103e0611b17565b8334610a165780600319360112610a16576110586102eb33611cc4565b61044033612030565b50503461038b57602036600319011261038b57602090610bce61108a611085611b17565b612aed565b8381519101519061281b565b50503461038b5760209081600319360112610387576110b3611b17565b916110c06102eb33611cc4565b838052600581526110d660018386200154611d01565b838052600581528184206001600160a01b039093168085529281528184205460ff1615611101578380f35b8380526005815281842083855290528220805460ff19166001179055339082600080516020612ef18339815191528180a43880808380f35b50503461038b578160031936011261038b5760065490516001600160a01b039091168152602090f35b50503461038b57602036600319011261038b5760ff81602093611183611b17565b600080516020612f318339815191528252600586528282206001600160a01b039091168252855220549151911615158152f35b50503461038b578060031936011261038b576111d0611b17565b6001600160a01b03168252600e60205280822080546024359390841015610a1657506020926111fe91611c55565b91905490519160031b1c8152f35b828434610a16576020366003190112610a165750610d5a610c2d923561290b565b50503461038b578160031936011261038b5760ff602092541690519015158152f35b905034610387576020366003190112610387573591600a54831015610a1657506111fe602092611c1e565b90503461038757602036600319011261038757918192358152600d602052206001815491015482519182526020820152f35b905034610387576020366003190112610387573591600c54831015610a1657506111fe602092611bd1565b50503461038b57602036600319011261038b5760209160ff9082906001600160a01b03611302611b17565b1681526002855220541690519015158152f35b50503461038b578160031936011261038b57602090610bce611335612a8b565b611343848251920151612366565b9061224f565b905034610387576020366003190112610387573563ffffffff60e01b811680910361038757825260036020908152918190205490516001600160a01b039091168152f35b50503461038b578060031936011261038b57602090610bce610bc8610d51611b17565b83903461038b57602036600319011261038b576104409035336123d2565b9050346103875781600319360112610387576113e8611b17565b92602435600080516020612f11833981519152825260209460058652848320338452865261141b60ff868520541661230e565b6001600160a01b03811693841561153057507fddf252ad1be2c89b69c2b068fc378daa952ba7f163c4a11628f55a4df523b3ef91847f452b30c947ea249a4a1a2c0410f1780e479e022d06691644108f38c3b3e17c4787899461152061147f612a8b565b611487612a29565b61151561149385612aed565b946114a386518c8801519061281b565b968b6114e56114c88d6114df6114c8826114c28b51888d01519061281b565b9e612278565b6114da6114d3612a8b565b519161258f565b6122ee565b9b612278565b950180518251996114f58b611ac3565b8a528d8a01525190519461150886611ac3565b85528b85015283876125f4565b8c5194859485612381565b0390a28551908152a35160018152f35b855162461bcd60e51b8152908101879052602d60248201527f4175746f5265666163746f72436f696e6167653a206d696e7420746f2074686560448201526c207a65726f206164647265737360981b6064820152608490fd5b8391503461038b578260031936011261038b576115a4611b32565b90336001600160a01b038316036115c05790610440913561221e565b608490602085519162461bcd60e51b8352820152602f60248201527f416363657373436f6e74726f6c3a2063616e206f6e6c792072656e6f756e636560448201526e103937b632b9903337b91039b2b63360891b6064820152fd5b50503461038b578160031936011261038b5760209051601b8152f35b8334610a16576020366003190112610a1657610440611654611b17565b6116606102eb33611cc4565b6121c1565b9050346103875781600319360112610387573590611681611b32565b90828452600560205261169960018286200154611d01565b828452600560209081528185206001600160a01b039093168086529290528084205460ff16156116c7578380f35b82845260056020528084208285526020528320600160ff198254161790553391600080516020612ef18339815191528480a43880808380f35b8334610a165780600319360112610a16576104403361211f565b50503461038b57602036600319011261038b5760ff8160209361173b611b17565b818052600586528282206001600160a01b039091168252855220549151911615158152f35b9050346103875760203660031901126103875781602093600192358152600585522001549051908152f35b828434610a16576020366003190112610a16576117d5906117aa611b17565b9080602085516117b981611ac3565b8281520152602084516117cb81611ac3565b8281520152612aed565b610c2d6117e0612a8b565b9251825181526020928301518382015283516040820152919092015160608201529081906080820190565b50503461038b578160031936011261038b57602090610bce61108a612a29565b8334610a16576020366003190112610a1657610440611848611b17565b6118546102eb33611cc4565b612030565b50503461038b578160031936011261038b57602090610bce6127a9565b828434610a165780600319360112610a1657806020835161189681611ac3565b8281520152602082516118a881611ac3565b82815201526117d5612a29565b50503461038b578160031936011261038b57805190826007546118d781611b48565b80855291600191808316908115610c8e575060011461190257505050610c2382610c2d940383611af5565b9450600785527fa66cc928b5edb82af9bd49922954155ab7b0942694bea4ce44661d9a8736c6885b82861061194757505050610c23826020610c2d9582010194610c11565b8054602087870181019190915290950194810161192a565b50503461038b578060031936011261038b579081906001600160a01b03611984611b17565b168152600f6020528181206024358252602052206001815491015482519182526020820152f35b50503461038b578060031936011261038b57806020926119c9611b17565b6119d1611b32565b6001600160a01b0391821683526009865283832091168252845220549051908152f35b90503461038757602036600319011261038757803563ffffffff60e01b81168091036104f757602093637965db0b60e01b8214928315611a3b575b50505090519015158152f35b6301ffc9a760e01b8314935084928415611a5c575b50505050388080611a2f565b60ff94508252855220541681388080611a50565b828434610a165781600319360112610a165750610bce60208093835190611a9682611ac3565b3590818152602435928391015261281b565b84903461038b578160031936011261038b5780600260209252f35b6040810190811067ffffffffffffffff821117611adf57604052565b634e487b7160e01b600052604160045260246000fd5b90601f8019910116810190811067ffffffffffffffff821117611adf57604052565b600435906001600160a01b0382168203611b2d57565b600080fd5b602435906001600160a01b0382168203611b2d57565b90600182811c92168015611b78575b6020831014611b6257565b634e487b7160e01b600052602260045260246000fd5b91607f1691611b57565b60005b838110611b955750506000910152565b8181015183820152602001611b85565b60409160208252611bc58151809281602086015260208686019101611b82565b601f01601f1916010190565b600c54811015611c0857600c6000527fdf6966c971051c3d54ec59162606531493a51404a002842f56009d7e5cf4a8c70190600090565b634e487b7160e01b600052603260045260246000fd5b600a54811015611c0857600a6000527fc65a7bb8d6351c1cf70c95a316cc6a92839c986682d98bc35f958f4883f9d2a80190600090565b8054821015611c085760005260206000200190600090565b81601f82011215611b2d5780359067ffffffffffffffff8211611adf5760405192611ca2601f8401601f191660200185611af5565b82845260208383010111611b2d57816000926020809301838601378301015290565b6001600160a01b031660009081527f05b8ccbb9d4d8fb16ea74ce3c29a41f1b461fbdaff4714a0d9a8eb05499746bc602052604090205460ff1690565b600081815260209060058252604092838220338352835260ff848320541615611d2a5750505050565b835167ffffffffffffffff919033606082018481118382101761201c578752602a825285820192873685378251156120085760308453825191600192831015611ff4576078602185015360295b838111611f8a5750611f485790875194608086019086821090821117611f3457885260428552868501956060368837855115611f2057603087538551821015611f205790607860218701536041915b818311611eb257505050611e7057938593611e5693611e47604894611e1e7f416363657373436f6e74726f6c3a206163636f756e742000000000000000000099611e6c9b519a8b978801525180926037880190611b82565b8401917001034b99036b4b9b9b4b733903937b6329607d1b603784015251809386840190611b82565b01036028810185520183611af5565b5162461bcd60e51b815291829160048301611ba5565b0390fd5b60648587519062461bcd60e51b825280600483015260248201527f537472696e67733a20686578206c656e67746820696e73756666696369656e746044820152fd5b909192600f81166010811015611f0c576f181899199a1a9b1b9c1cb0b131b232b360811b901a611ee28589612285565b5360041c928015611ef857600019019190611dc6565b634e487b7160e01b82526011600452602482fd5b634e487b7160e01b83526032600452602483fd5b634e487b7160e01b81526032600452602490fd5b634e487b7160e01b87526041600452602487fd5b60648789519062461bcd60e51b825280600483015260248201527f537472696e67733a20686578206c656e67746820696e73756666696369656e746044820152fd5b90600f81166010811015611fe0576f181899199a1a9b1b9c1cb0b131b232b360811b901a611fb88387612285565b5360041c908015611fcc5760001901611d77565b634e487b7160e01b88526011600452602488fd5b634e487b7160e01b89526032600452602489fd5b634e487b7160e01b87526032600452602487fd5b634e487b7160e01b86526032600452602486fd5b634e487b7160e01b86526041600452602486fd5b6001600160a01b03163381036120c25760008181527f05b8ccbb9d4d8fb16ea74ce3c29a41f1b461fbdaff4714a0d9a8eb05499746bc602052604081205490919060ff1661207c575050565b8180526005602052604082208183526020526040822060ff19815416905533917ff6391f5c32d9c69d2a47ea670b442974b53935d1edc7fd64eb21e047a839171b8180a4565b60405162461bcd60e51b815260206004820152602f60248201527f416363657373436f6e74726f6c3a2063616e206f6e6c792072656e6f756e636560448201526e103937b632b9903337b91039b2b63360891b6064820152608490fd5b6001600160a01b03163381036120c25760008181527f02634a7c777b8129955fe1824eee49ef19dfa96f2f4cb63212492c3d84eb58e66020526040812054909190600080516020612f318339815191529060ff1661217c57505050565b8083526005602052604083208284526020526040832060ff1981541690557ff6391f5c32d9c69d2a47ea670b442974b53935d1edc7fd64eb21e047a839171b339380a4565b6001600160a01b03163381036120c25760008181527fca0a2f641ec05ca23127d994cf03ffc453db616acae0b86cb56bb95304d068546020526040812054909190600080516020612f118339815191529060ff1661217c57505050565b906000918083526005602052604083209160018060a01b03169182845260205260ff60408420541661217c57505050565b8181029291811591840414171561226257565b634e487b7160e01b600052601160045260246000fd5b9190820180921161226257565b908151811015611c08570160200190565b1561229d57565b60405162461bcd60e51b815260206004820152602360248201527f41757468436f6e74726f6c3a2043616c6c6572206973206e6f7420616e20616460448201526236b4b760e91b6064820152608490fd5b81156122f8570490565b634e487b7160e01b600052601260045260246000fd5b1561231557565b60405162461bcd60e51b815260206004820152602360248201527f41757468436f6e74726f6c3a2043616c6c6572206973206e6f742061206d696e6044820152623a32b960e91b6064820152608490fd5b801561237b5760ff8111612262576001901b90565b50600190565b815181526020918201518282015282516040820152918101516060830152825160808301529182015160a0820152825160c082015291015160e08201526101000190565b9190820391821161226257565b91906001600160a01b038316908115612532576123ed612a8b565b6123f5612a29565b946123ff81612aed565b90865196612413602098898301519061281b565b9161242384518a8601519061281b565b928684101580612528575b156124ec57936124e088947f452b30c947ea249a4a1a2c0410f1780e479e022d06691644108f38c3b3e17c47946124d48d999560009d9e6124a26114c88e7fddf252ad1be2c89b69c2b068fc378daa952ba7f163c4a11628f55a4df523b3ef9f9d6114c88261249c926123c5565b976123c5565b97018051604051956124b387611ac3565b86528c86015251604051976124c789611ac3565b88528b88015283876125f4565b60405194859485612381565b0390a2604051908152a3565b60405162461bcd60e51b8152600481018b90526014602482015273696e73756666696369656e742062616c616e636560601b6044820152606490fd5b508681101561242e565b60405162461bcd60e51b815260206004820152602f60248201527f4175746f5265666163746f72436f696e6167653a206275726e2066726f6d207460448201526e6865207a65726f206164647265737360881b6064820152608490fd5b906b033b2e3c9fd0803ce80000009182810292818404811482151715612262578304036125b857565b60405162461bcd60e51b815260206004820152601460248201527364732d6d6174682d6d756c2d6f766572666c6f7760601b6044820152606490fd5b9291926125ff6127a9565b9360018060a01b0316600094818652602091600e8352604093848820805490811560001461278657505087915b600a5480612750575088925b811561271d57908480949392106126c9575b8952600f8552858920838a528552858920815181556020909101516001909101555b10612692575b8591600b916126909697525220906020600191805184550151910155565b565b600a54600160401b811015611f345791816126be600b93610ed48660016126909b9c9801600a55611c1e565b915091959450612672565b80919293508952600e8552858920805490600160401b821015612709579161270186610ed48461266c966001849a9997018155611c55565b90915061264a565b634e487b7160e01b8b52604160045260248bfd5b865162461bcd60e51b815260048101879052600c60248201526b1e995c9bc81858d8dbdd5b9d60a21b6044820152606490fd5b60001981019081116127725761276590611c1e565b90549060031b1c92612638565b634e487b7160e01b8a52601160045260248afd5b6000198201918211612772579061279c91611c55565b90549060031b1c9161262c565b6006546040516309cbb82160e11b815290602090829060049082906001600160a01b03165afa90811561280f576000916127e1575090565b906020823d8211612807575b816127fa60209383611af5565b81010312610a1657505190565b3d91506127ed565b6040513d6000823e3d90fd5b90811561286a5761283661282d612a8b565b92835190612871565b9060208293015181811161284b575b50505090565b61286293506113439161285d916123c5565b612366565b388080612845565b5050600090565b6000918015918215612897575b5050156125b8576b033b2e3c9fd0803ce8000000900490565b915091506128af6128a8838361224f565b92836122ee565b14388061287e565b9081518015612903576128ce602091835190612871565b9182845201519060208301518083116128e9575b5050505190565b61285d611343916128f9946123c5565b81523880806128e2565b505050600090565b9061298061297a60406020815161292181611ac3565b60009181838093520152806020835161293981611ac3565b8281520152806020835161294c81611ac3565b828152015261296461295c6127a9565b871115612b8c565b61296d86612bd8565b8152600b60205220612a0b565b92612eaa565b90565b61297a61298091939293604090815161299b81611ac3565b60009182825282602080930152828285516129b581611ac3565b8281520152828285516129c781611ac3565b82815201526129df6129d76127a9565b891115612b8c565b60018060a01b031690818352600e81526129fb88858520612dcf565b918352600f815283832091835252205b90604051612a1881611ac3565b602060018294805484520154910152565b6020604051612a3781611ac3565b6000918183809352015280600a5480612a60575b50816040916129809352600b60205220612a0b565b600019810191508111611ef85761298091612a7c604092611c1e565b90549060031b1c915091612a4b565b6020604051612a9981611ac3565b6000918183809352015280600c5480612ac2575b50816040916129809352600d60205220612a0b565b600019810191508111611ef85761298091612ade604092611bd1565b90549060031b1c915091612aad565b602090604051612afc81611ac3565b600080825292018290526001600160a01b0316808252600e60205260408220805483929181612b46575b505091604091612980938252600f60205282822090825260205220612a0b565b919250600019810191908211612b785791612b676129809492604094611c55565b90549060031b1c9281929450612b26565b634e487b7160e01b84526011600452602484fd5b15612b9357565b60405162461bcd60e51b815260206004820152601f60248201527f736e617073686f744964203e2070726f6772657373536e617073686f744964006044820152606490fd5b600a54801561286a5760001981810191821191908261226257612bfa82611c1e565b949054600395861b1c811015612cda57600092600a84527fc65a7bb8d6351c1cf70c95a316cc6a92839c986682d98bc35f958f4883f9d2a8548210612cd1578394612b7857939291905b838511612c6057505050612c589150611c1e565b9054911b1c90565b909192612c6d8186612278565b6001808201809211612cbd571c9082612c8583611c1e565b905490891b1c11612c9c5750935b93929190612c44565b945082810190811115612c9357634e487b7160e01b84526011600452602484fd5b634e487b7160e01b86526011600452602486fd5b50505091505090565b5050612c589150611c1e565b600c54801561286a5760001981810191821191908261226257612d0882611bd1565b949054600395861b1c811015612dc357600092600c84527fdf6966c971051c3d54ec59162606531493a51404a002842f56009d7e5cf4a8c7548210612cd1578394612b7857939291905b838511612d6657505050612c589150611bd1565b909192612d738186612278565b6001808201809211612cbd571c9082612d8b83611bd1565b905490891b1c11612da25750935b93929190612d52565b945082810190811115612d9957634e487b7160e01b84526011600452602484fd5b5050612c589150611bd1565b80549081156129035760001982810192831192908361226257612df28284611c55565b959054600396871b1c811015612e9d5760009284845260208420548210612e93578395612b785794939291905b848611612e3357505050612c589250611c55565b90919293612e418187612278565b6001808201809211612cbd571c9082612e5a8388611c55565b9054908a1b1c11612e725750945b9493929190612e1f565b955082810190811115612e6857634e487b7160e01b84526011600452602484fd5b5050509250505090565b505090612c589250611c55565b612edb9060006020604051612ebe81611ac3565b8281520152612ed6612ece6127a9565b821115612b8c565b612ce6565b600052600d6020526129806040600020612a0b56fe2f8788117e7eff1d82e926ec794901d17c78024a50270940304540a733656f0df0887ba65ee2024ea881d91b74c2450ef19e1557f03bed3ea9f16b037cbe2dc9523a704056dcd17bcf83bed8b68c59416dac1119be77755efe3bde0a64e46e0ca164736f6c6343000813000a",
  "linkReferences": {},
  "deployedLinkReferences": {}
}