{
  "_format": "hh-sol-artifact-1",
  "contractName": "DepositManagerProxy",
  "sourceName": "contracts/stake/managers/DepositManagerProxy.sol",
  "abi": [
    {
      "anonymous": false,
      "inputs": [
        {
          "indexed": true,
          "internalType": "bytes32",
          "name": "role",
          "type": "bytes32"
        },
        {
          "indexed": true,
          "internalType": "bytes32",
          "name": "previousAdminRole",
          "type": "bytes32"
        },
        {
          "indexed": true,
          "internalType": "bytes32",
          "name": "newAdminRole",
          "type": "bytes32"
        }
      ],
      "name": "RoleAdminChanged",
      "type": "event"
    },
    {
      "anonymous": false,
      "inputs": [
        {
          "indexed": true,
          "internalType": "bytes32",
          "name": "role",
          "type": "bytes32"
        },
        {
          "indexed": true,
          "internalType": "address",
          "name": "account",
          "type": "address"
        },
        {
          "indexed": true,
          "internalType": "address",
          "name": "sender",
          "type": "address"
        }
      ],
      "name": "RoleGranted",
      "type": "event"
    },
    {
      "anonymous": false,
      "inputs": [
        {
          "indexed": true,
          "internalType": "bytes32",
          "name": "role",
          "type": "bytes32"
        },
        {
          "indexed": true,
          "internalType": "address",
          "name": "account",
          "type": "address"
        },
        {
          "indexed": true,
          "internalType": "address",
          "name": "sender",
          "type": "address"
        }
      ],
      "name": "RoleRevoked",
      "type": "event"
    },
    {
      "anonymous": false,
      "inputs": [
        {
          "indexed": true,
          "internalType": "address",
          "name": "impl",
          "type": "address"
        },
        {
          "indexed": false,
          "internalType": "bool",
          "name": "alive",
          "type": "bool"
        }
      ],
      "name": "SetAliveImplementation",
      "type": "event"
    },
    {
      "anonymous": false,
      "inputs": [
        {
          "indexed": true,
          "internalType": "bytes4",
          "name": "selector",
          "type": "bytes4"
        },
        {
          "indexed": true,
          "internalType": "address",
          "name": "impl",
          "type": "address"
        }
      ],
      "name": "SetSelectorImplementation",
      "type": "event"
    },
    {
      "anonymous": false,
      "inputs": [
        {
          "indexed": true,
          "internalType": "address",
          "name": "implementation",
          "type": "address"
        }
      ],
      "name": "Upgraded",
      "type": "event"
    },
    {
      "stateMutability": "payable",
      "type": "fallback"
    },
    {
      "inputs": [],
      "name": "DEFAULT_ADMIN_ROLE",
      "outputs": [
        {
          "internalType": "bytes32",
          "name": "",
          "type": "bytes32"
        }
      ],
      "stateMutability": "view",
      "type": "function"
    },
    {
      "inputs": [],
      "name": "MINTER_ROLE",
      "outputs": [
        {
          "internalType": "bytes32",
          "name": "",
          "type": "bytes32"
        }
      ],
      "stateMutability": "view",
      "type": "function"
    },
    {
      "inputs": [
        {
          "internalType": "address",
          "name": "account",
          "type": "address"
        }
      ],
      "name": "addAdmin",
      "outputs": [],
      "stateMutability": "nonpayable",
      "type": "function"
    },
    {
      "inputs": [
        {
          "internalType": "address",
          "name": "",
          "type": "address"
        }
      ],
      "name": "aliveImplementation",
      "outputs": [
        {
          "internalType": "bool",
          "name": "",
          "type": "bool"
        }
      ],
      "stateMutability": "view",
      "type": "function"
    },
    {
      "inputs": [
        {
          "internalType": "bytes32",
          "name": "role",
          "type": "bytes32"
        }
      ],
      "name": "getRoleAdmin",
      "outputs": [
        {
          "internalType": "bytes32",
          "name": "",
          "type": "bytes32"
        }
      ],
      "stateMutability": "view",
      "type": "function"
    },
    {
      "inputs": [
        {
          "internalType": "bytes4",
          "name": "_selector",
          "type": "bytes4"
        }
      ],
      "name": "getSelectorImplementation2",
      "outputs": [
        {
          "internalType": "address",
          "name": "impl",
          "type": "address"
        }
      ],
      "stateMutability": "view",
      "type": "function"
    },
    {
      "inputs": [],
      "name": "globalWithdrawalDelay",
      "outputs": [
        {
          "internalType": "uint256",
          "name": "",
          "type": "uint256"
        }
      ],
      "stateMutability": "view",
      "type": "function"
    },
    {
      "inputs": [
        {
          "internalType": "bytes32",
          "name": "role",
          "type": "bytes32"
        },
        {
          "internalType": "address",
          "name": "account",
          "type": "address"
        }
      ],
      "name": "grantRole",
      "outputs": [],
      "stateMutability": "nonpayable",
      "type": "function"
    },
    {
      "inputs": [
        {
          "internalType": "bytes32",
          "name": "role",
          "type": "bytes32"
        },
        {
          "internalType": "address",
          "name": "account",
          "type": "address"
        }
      ],
      "name": "hasRole",
      "outputs": [
        {
          "internalType": "bool",
          "name": "",
          "type": "bool"
        }
      ],
      "stateMutability": "view",
      "type": "function"
    },
    {
      "inputs": [],
      "name": "implementation",
      "outputs": [
        {
          "internalType": "address",
          "name": "",
          "type": "address"
        }
      ],
      "stateMutability": "view",
      "type": "function"
    },
    {
      "inputs": [
        {
          "internalType": "uint256",
          "name": "_index",
          "type": "uint256"
        }
      ],
      "name": "implementation2",
      "outputs": [
        {
          "internalType": "address",
          "name": "",
          "type": "address"
        }
      ],
      "stateMutability": "view",
      "type": "function"
    },
    {
      "inputs": [
        {
          "internalType": "address",
          "name": "account",
          "type": "address"
        }
      ],
      "name": "isAdmin",
      "outputs": [
        {
          "internalType": "bool",
          "name": "",
          "type": "bool"
        }
      ],
      "stateMutability": "view",
      "type": "function"
    },
    {
      "inputs": [],
      "name": "isOwner",
      "outputs": [
        {
          "internalType": "bool",
          "name": "",
          "type": "bool"
        }
      ],
      "stateMutability": "view",
      "type": "function"
    },
    {
      "inputs": [],
      "name": "oldDepositManager",
      "outputs": [
        {
          "internalType": "address",
          "name": "",
          "type": "address"
        }
      ],
      "stateMutability": "view",
      "type": "function"
    },
    {
      "inputs": [],
      "name": "pauseProxy",
      "outputs": [
        {
          "internalType": "bool",
          "name": "",
          "type": "bool"
        }
      ],
      "stateMutability": "view",
      "type": "function"
    },
    {
      "inputs": [
        {
          "internalType": "uint256",
          "name": "",
          "type": "uint256"
        }
      ],
      "name": "proxyImplementation",
      "outputs": [
        {
          "internalType": "address",
          "name": "",
          "type": "address"
        }
      ],
      "stateMutability": "view",
      "type": "function"
    },
    {
      "inputs": [
        {
          "internalType": "address",
          "name": "account",
          "type": "address"
        }
      ],
      "name": "removeAdmin",
      "outputs": [],
      "stateMutability": "nonpayable",
      "type": "function"
    },
    {
      "inputs": [],
      "name": "renounceOwnership",
      "outputs": [],
      "stateMutability": "nonpayable",
      "type": "function"
    },
    {
      "inputs": [
        {
          "internalType": "bytes32",
          "name": "role",
          "type": "bytes32"
        },
        {
          "internalType": "address",
          "name": "account",
          "type": "address"
        }
      ],
      "name": "renounceRole",
      "outputs": [],
      "stateMutability": "nonpayable",
      "type": "function"
    },
    {
      "inputs": [
        {
          "internalType": "bytes32",
          "name": "role",
          "type": "bytes32"
        },
        {
          "internalType": "address",
          "name": "account",
          "type": "address"
        }
      ],
      "name": "revokeRole",
      "outputs": [],
      "stateMutability": "nonpayable",
      "type": "function"
    },
    {
      "inputs": [
        {
          "internalType": "bytes4",
          "name": "",
          "type": "bytes4"
        }
      ],
      "name": "selectorImplementation",
      "outputs": [
        {
          "internalType": "address",
          "name": "",
          "type": "address"
        }
      ],
      "stateMutability": "view",
      "type": "function"
    },
    {
      "inputs": [
        {
          "internalType": "address",
          "name": "newImplementation",
          "type": "address"
        },
        {
          "internalType": "bool",
          "name": "_alive",
          "type": "bool"
        }
      ],
      "name": "setAliveImplementation2",
      "outputs": [],
      "stateMutability": "nonpayable",
      "type": "function"
    },
    {
      "inputs": [
        {
          "internalType": "address",
          "name": "newImplementation",
          "type": "address"
        },
        {
          "internalType": "uint256",
          "name": "_index",
          "type": "uint256"
        },
        {
          "internalType": "bool",
          "name": "_alive",
          "type": "bool"
        }
      ],
      "name": "setImplementation2",
      "outputs": [],
      "stateMutability": "nonpayable",
      "type": "function"
    },
    {
      "inputs": [
        {
          "internalType": "bool",
          "name": "_pause",
          "type": "bool"
        }
      ],
      "name": "setProxyPause",
      "outputs": [],
      "stateMutability": "nonpayable",
      "type": "function"
    },
    {
      "inputs": [
        {
          "internalType": "bytes4[]",
          "name": "_selectors",
          "type": "bytes4[]"
        },
        {
          "internalType": "address",
          "name": "_imp",
          "type": "address"
        }
      ],
      "name": "setSelectorImplementations2",
      "outputs": [],
      "stateMutability": "nonpayable",
      "type": "function"
    },
    {
      "inputs": [
        {
          "internalType": "bytes4",
          "name": "interfaceId",
          "type": "bytes4"
        }
      ],
      "name": "supportsInterface",
      "outputs": [
        {
          "internalType": "bool",
          "name": "",
          "type": "bool"
        }
      ],
      "stateMutability": "view",
      "type": "function"
    },
    {
      "inputs": [
        {
          "internalType": "address",
          "name": "newAdmin",
          "type": "address"
        }
      ],
      "name": "transferAdmin",
      "outputs": [],
      "stateMutability": "nonpayable",
      "type": "function"
    },
    {
      "inputs": [
        {
          "internalType": "address",
          "name": "newAdmin",
          "type": "address"
        }
      ],
      "name": "transferOwnership",
      "outputs": [],
      "stateMutability": "nonpayable",
      "type": "function"
    },
    {
      "inputs": [
        {
          "internalType": "address",
          "name": "impl",
          "type": "address"
        }
      ],
      "name": "upgradeTo",
      "outputs": [],
      "stateMutability": "nonpayable",
      "type": "function"
    },
    {
      "inputs": [
        {
          "internalType": "address",
          "name": "",
          "type": "address"
        }
      ],
      "name": "withdrawalDelay",
      "outputs": [
        {
          "internalType": "uint256",
          "name": "",
          "type": "uint256"
        }
      ],
      "stateMutability": "view",
      "type": "function"
    },
    {
      "stateMutability": "payable",
      "type": "receive"
    }
  ],
  "bytecode": "0x608060405234801561001057600080fd5b5061001c600033610021565b6100d1565b61002b828261002f565b5050565b60008281526005602090815260408083206001600160a01b038516845290915290205460ff1661002b5760008281526005602090815260408083206001600160a01b03851684529091529020805460ff1916600117905561008d3390565b6001600160a01b0316816001600160a01b0316837f2f8788117e7eff1d82e926ec794901d17c78024a50270940304540a733656f0d60405160405180910390a45050565b611965806100e06000396000f3fe6080604052600436106101d15760003560e01c80636ec3d5ae116100f75780638d4fdb4011610095578063b911135f11610064578063b911135f14610635578063d53913931461066b578063d547741f1461069f578063f2fde38b146106bf57610223565b80638d4fdb40146105765780638f32d59b1461059657806391d14854146105da578063a217fddf1461062057610223565b806375829def116100d157806375829def146104f65780637cb00d25146105165780637cd5f663146105365780638b8f4a651461055657610223565b80636ec3d5ae146104ab57806370480275146104c1578063715018a6146104e157610223565b80633659cfe61161016f578063550d01a31161013e578063550d01a3146103fb5780635c60da1b1461042b5780635cc797d81461047157806363a8fd891461049157610223565b80633659cfe6146103585780634a5df50f146103785780634ce970361461039857806350d2a276146103c557610223565b8063248a9ca3116101ab578063248a9ca3146102ba57806324d7806c146102f85780632f2ff15d1461031857806336568abe1461033857610223565b806301ffc9a71461022d5780631785f53c146102625780632153c2391461028257610223565b366102235760405162461bcd60e51b815260206004820152601460248201527f63616e6e6f74207265636569766520457468657200000000000000000000000060448201526064015b60405180910390fd5b61022b6106df565b005b34801561023957600080fd5b5061024d610248366004611617565b610788565b60405190151581526020015b60405180910390f35b34801561026e57600080fd5b5061022b61027d366004611658565b610799565b34801561028e57600080fd5b506009546102a2906001600160a01b031681565b6040516001600160a01b039091168152602001610259565b3480156102c657600080fd5b506102ea6102d5366004611673565b60009081526005602052604090206001015490565b604051908152602001610259565b34801561030457600080fd5b5061024d610313366004611658565b6107f5565b34801561032457600080fd5b5061022b61033336600461168c565b610835565b34801561034457600080fd5b5061022b61035336600461168c565b61085a565b34801561036457600080fd5b5061022b610373366004611658565b6108e6565b34801561038457600080fd5b5061022b6103933660046116b8565b610a3f565b3480156103a457600080fd5b506102ea6103b3366004611658565b60166020526000908152604090205481565b3480156103d157600080fd5b506102a26103e0366004611617565b6003602052600090815260409020546001600160a01b031681565b34801561040757600080fd5b5061024d610416366004611658565b60026020526000908152604090205460ff1681565b34801561043757600080fd5b506000805260016020527fa6eef7e35abe7026729641147f7915573c7e97b47efa546f5f6e3230263bcb49546001600160a01b03166102a2565b34801561047d57600080fd5b5061022b61048c36600461174c565b610cec565b34801561049d57600080fd5b5060005461024d9060ff1681565b3480156104b757600080fd5b506102ea60155481565b3480156104cd57600080fd5b5061022b6104dc366004611658565b610d44565b3480156104ed57600080fd5b5061022b610d9d565b34801561050257600080fd5b5061022b610511366004611658565b610df8565b34801561052257600080fd5b5061022b610531366004611776565b610f0a565b34801561054257600080fd5b5061022b610551366004611791565b610f6b565b34801561056257600080fd5b506102a2610571366004611673565b610fc4565b34801561058257600080fd5b506102a2610591366004611617565b610fe1565b3480156105a257600080fd5b503360009081527f05b8ccbb9d4d8fb16ea74ce3c29a41f1b461fbdaff4714a0d9a8eb05499746bc602052604090205460ff1661024d565b3480156105e657600080fd5b5061024d6105f536600461168c565b60009182526005602090815260408084206001600160a01b0393909316845291905290205460ff1690565b34801561062c57600080fd5b506102ea600081565b34801561064157600080fd5b506102a2610650366004611673565b6001602052600090815260409020546001600160a01b031681565b34801561067757600080fd5b506102ea7ff0887ba65ee2024ea881d91b74c2450ef19e1557f03bed3ea9f16b037cbe2dc981565b3480156106ab57600080fd5b5061022b6106ba36600461168c565b6110dd565b3480156106cb57600080fd5b5061022b6106da366004611658565b611102565b60006106f66000356001600160e01b031916610fe1565b90506001600160a01b03811615801590610713575060005460ff16155b61075f5760405162461bcd60e51b815260206004820152601d60248201527f50726f78793a20696d706c204f522070726f78792069732066616c7365000000604482015260640161021a565b3660008037600080366000845af43d6000803e80801561077e573d6000f35b3d6000fd5b505050565b600061079382611159565b92915050565b6107a2336107f5565b6107e75760405162461bcd60e51b8152602060048201526022602482015260008051602061193983398151915260448201526134b760f11b606482015260840161021a565b6107f260008261085a565b50565b6001600160a01b03811660009081527f05b8ccbb9d4d8fb16ea74ce3c29a41f1b461fbdaff4714a0d9a8eb05499746bc602052604081205460ff16610793565b6000828152600560205260409020600101546108508161117e565b6107838383611188565b6001600160a01b03811633146108d85760405162461bcd60e51b815260206004820152602f60248201527f416363657373436f6e74726f6c3a2063616e206f6e6c792072656e6f756e636560448201527f20726f6c657320666f722073656c660000000000000000000000000000000000606482015260840161021a565b6108e2828261122a565b5050565b6108ef336107f5565b6109345760405162461bcd60e51b8152602060048201526022602482015260008051602061193983398151915260448201526134b760f11b606482015260840161021a565b6001600160a01b03811661098a5760405162461bcd60e51b815260206004820152600d60248201527f696e707574206973207a65726f00000000000000000000000000000000000000604482015260640161021a565b6000805260016020527fa6eef7e35abe7026729641147f7915573c7e97b47efa546f5f6e3230263bcb49546001600160a01b038281169116036109fb5760405162461bcd60e51b815260206004820152600960248201526839b0b6b29030b2323960b91b604482015260640161021a565b610a0881600060016112ad565b6040516001600160a01b038216907fbc7cd75a20ee27fd9adebab32041f755214dbc6bffa90cc0225b39da2e5c2d3b90600090a250565b610a48336107f5565b610a8d5760405162461bcd60e51b8152602060048201526022602482015260008051602061193983398151915260448201526134b760f11b606482015260840161021a565b81610ada5760405162461bcd60e51b815260206004820181905260248201527f50726f78793a205f73656c6563746f727327732073697a65206973207a65726f604482015260640161021a565b6001600160a01b03811660009081526002602052604090205460ff16610b425760405162461bcd60e51b815260206004820152601860248201527f50726f78793a205f696d70206973206e6f7420616c6976650000000000000000604482015260640161021a565b60005b82811015610ce657816001600160a01b031660036000868685818110610b6d57610b6d6117c4565b9050602002016020810190610b829190611617565b6001600160e01b03191681526020810191909152604001600020546001600160a01b031603610bf35760405162461bcd60e51b815260206004820152601d60248201527f4c69717569646974795661756c7450726f78793a2073616d6520696d70000000604482015260640161021a565b8160036000868685818110610c0a57610c0a6117c4565b9050602002016020810190610c1f9190611617565b6001600160e01b03191681526020810191909152604001600020805473ffffffffffffffffffffffffffffffffffffffff19166001600160a01b039283161790558216848483818110610c7457610c746117c4565b9050602002016020810190610c899190611617565b7bffffffffffffffffffffffffffffffffffffffffffffffffffffffff19167f14ebc1c32aa68f4d766e89f3e546cee249f7df25183fc10ab1568d91c2ce9b7b60405160405180910390a380610cde816117f0565b915050610b45565b50505050565b610cf5336107f5565b610d3a5760405162461bcd60e51b8152602060048201526022602482015260008051602061193983398151915260448201526134b760f11b606482015260840161021a565b6108e28282611345565b610d4d336107f5565b610d925760405162461bcd60e51b8152602060048201526022602482015260008051602061193983398151915260448201526134b760f11b606482015260840161021a565b6107f2600082610835565b610da6336107f5565b610deb5760405162461bcd60e51b8152602060048201526022602482015260008051602061193983398151915260448201526134b760f11b606482015260840161021a565b610df660003361085a565b565b610e01336107f5565b610e465760405162461bcd60e51b8152602060048201526022602482015260008051602061193983398151915260448201526134b760f11b606482015260840161021a565b6001600160a01b038116610e9c5760405162461bcd60e51b815260206004820152601860248201527f41636365737369626c653a207a65726f20616464726573730000000000000000604482015260640161021a565b6001600160a01b0381163303610ef45760405162461bcd60e51b815260206004820152601660248201527f41636365737369626c653a2073616d652061646d696e00000000000000000000604482015260640161021a565b610eff600082610835565b6107f260003361085a565b610f13336107f5565b610f585760405162461bcd60e51b8152602060048201526022602482015260008051602061193983398151915260448201526134b760f11b606482015260840161021a565b6000805460ff1916911515919091179055565b610f74336107f5565b610fb95760405162461bcd60e51b8152602060048201526022602482015260008051602061193983398151915260448201526134b760f11b606482015260840161021a565b6107838383836112ad565b6000818152600160205260408120546001600160a01b0316610793565b6001600160e01b031981166000908152600360205260408120546001600160a01b03166110415750506000805260016020527fa6eef7e35abe7026729641147f7915573c7e97b47efa546f5f6e3230263bcb49546001600160a01b031690565b6001600160e01b031982166000908152600360209081526040808320546001600160a01b03168352600290915290205460ff161561109f57506001600160e01b0319166000908152600360205260409020546001600160a01b031690565b50506000805260016020527fa6eef7e35abe7026729641147f7915573c7e97b47efa546f5f6e3230263bcb49546001600160a01b031690565b919050565b6000828152600560205260409020600101546110f88161117e565b610783838361122a565b61110b336107f5565b6111505760405162461bcd60e51b8152602060048201526022602482015260008051602061193983398151915260448201526134b760f11b606482015260840161021a565b6107f281610df8565b60006001600160e01b03198216637965db0b60e01b14806107935750610793826113a4565b6107f281336113e0565b60008281526005602090815260408083206001600160a01b038516845290915290205460ff166108e25760008281526005602090815260408083206001600160a01b03851684529091529020805460ff191660011790556111e63390565b6001600160a01b0316816001600160a01b0316837f2f8788117e7eff1d82e926ec794901d17c78024a50270940304540a733656f0d60405160405180910390a45050565b60008281526005602090815260408083206001600160a01b038516845290915290205460ff16156108e25760008281526005602090815260408083206001600160a01b0385168085529252808320805460ff1916905551339285917ff6391f5c32d9c69d2a47ea670b442974b53935d1edc7fd64eb21e047a839171b9190a45050565b6001600160a01b0383163b6113045760405162461bcd60e51b815260206004820152601b60248201527f50726f78793a206e6f7420636f6e747261637420616464726573730000000000604482015260640161021a565b801561133f576000828152600160205260409020805473ffffffffffffffffffffffffffffffffffffffff19166001600160a01b0385161790555b61078383825b6001600160a01b038216600081815260026020908152604091829020805460ff191685151590811790915591519182527f72558d9bfba4210f9ef095c782589484151f6d90f7a81bb3cb9b33efc695d324910160405180910390a25050565b60006301ffc9a760e01b6001600160e01b0319831614806107935750506001600160e01b03191660009081526004602052604090205460ff1690565b60008281526005602090815260408083206001600160a01b038516845290915290205460ff166108e25761141381611455565b61141e836020611467565b60405160200161142f92919061182d565b60408051601f198184030181529082905262461bcd60e51b825261021a916004016118ae565b60606107936001600160a01b03831660145b606060006114768360026118e1565b6114819060026118f8565b67ffffffffffffffff8111156114995761149961190b565b6040519080825280601f01601f1916602001820160405280156114c3576020820181803683370190505b509050600360fc1b816000815181106114de576114de6117c4565b60200101906001600160f81b031916908160001a905350600f60fb1b8160018151811061150d5761150d6117c4565b60200101906001600160f81b031916908160001a90535060006115318460026118e1565b61153c9060016118f8565b90505b60018111156115c1577f303132333435363738396162636465660000000000000000000000000000000085600f166010811061157d5761157d6117c4565b1a60f81b828281518110611593576115936117c4565b60200101906001600160f81b031916908160001a90535060049490941c936115ba81611921565b905061153f565b5083156116105760405162461bcd60e51b815260206004820181905260248201527f537472696e67733a20686578206c656e67746820696e73756666696369656e74604482015260640161021a565b9392505050565b60006020828403121561162957600080fd5b81356001600160e01b03198116811461161057600080fd5b80356001600160a01b03811681146110d857600080fd5b60006020828403121561166a57600080fd5b61161082611641565b60006020828403121561168557600080fd5b5035919050565b6000806040838503121561169f57600080fd5b823591506116af60208401611641565b90509250929050565b6000806000604084860312156116cd57600080fd5b833567ffffffffffffffff808211156116e557600080fd5b818601915086601f8301126116f957600080fd5b81358181111561170857600080fd5b8760208260051b850101111561171d57600080fd5b6020928301955093506117339186019050611641565b90509250925092565b803580151581146110d857600080fd5b6000806040838503121561175f57600080fd5b61176883611641565b91506116af6020840161173c565b60006020828403121561178857600080fd5b6116108261173c565b6000806000606084860312156117a657600080fd5b6117af84611641565b9250602084013591506117336040850161173c565b634e487b7160e01b600052603260045260246000fd5b634e487b7160e01b600052601160045260246000fd5b600060018201611802576118026117da565b5060010190565b60005b8381101561182457818101518382015260200161180c565b50506000910152565b7f416363657373436f6e74726f6c3a206163636f756e7420000000000000000000815260008351611865816017850160208801611809565b7f206973206d697373696e6720726f6c652000000000000000000000000000000060179184019182015283516118a2816028840160208801611809565b01602801949350505050565b60208152600082518060208401526118cd816040850160208701611809565b601f01601f19169190910160400192915050565b8082028115828204841417610793576107936117da565b80820180821115610793576107936117da565b634e487b7160e01b600052604160045260246000fd5b600081611930576119306117da565b50600019019056fe41636365737369626c653a2043616c6c6572206973206e6f7420616e2061646da164736f6c6343000813000a",
  "linkReferences": {},
  "deployedLinkReferences": {}
}