{
  "_format": "hh-sol-artifact-1",
  "contractName": "CandidateStorage",
  "sourceName": "contracts/dao/CandidateStorage.sol",
  "abi": [
    {
      "inputs": [],
      "name": "candidate",
      "outputs": [
        {
          "internalType": "address",
          "name": "",
          "type": "address"
        }
      ],
      "stateMutability": "view",
      "type": "function"
    },
    {
      "inputs": [],
      "name": "committee",
      "outputs": [
        {
          "internalType": "address",
          "name": "",
          "type": "address"
        }
      ],
      "stateMutability": "view",
      "type": "function"
    },
    {
      "inputs": [],
      "name": "isLayer2Candidate",
      "outputs": [
        {
          "internalType": "bool",
          "name": "",
          "type": "bool"
        }
      ],
      "stateMutability": "view",
      "type": "function"
    },
    {
      "inputs": [],
      "name": "memo",
      "outputs": [
        {
          "internalType": "string",
          "name": "",
          "type": "string"
        }
      ],
      "stateMutability": "view",
      "type": "function"
    },
    {
      "inputs": [],
      "name": "seigManager",
      "outputs": [
        {
          "internalType": "address",
          "name": "",
          "type": "address"
        }
      ],
      "stateMutability": "view",
      "type": "function"
    }
  ],
  "bytecode": "0x608060405234801561001057600080fd5b50610210806100206000396000f3fe608060405234801561001057600080fd5b50600436106100575760003560e01c806358c3b8701461005c5780636c8381f81461007a5780636fb7f558146100aa5780639b638268146100bd578063d864e740146100da575b600080fd5b6100646100ed565b604051610071919061017b565b60405180910390f35b6001546100929061010090046001600160a01b031681565b6040516001600160a01b039091168152602001610071565b600454610092906001600160a01b031681565b6001546100ca9060ff1681565b6040519015158152602001610071565b600354610092906001600160a01b031681565b600280546100fa906101c9565b80601f0160208091040260200160405190810160405280929190818152602001828054610126906101c9565b80156101735780601f1061014857610100808354040283529160200191610173565b820191906000526020600020905b81548152906001019060200180831161015657829003601f168201915b505050505081565b600060208083528351808285015260005b818110156101a85785810183015185820160400152820161018c565b506000604082860101526040601f19601f8301168501019250505092915050565b600181811c908216806101dd57607f821691505b6020821081036101fd57634e487b7160e01b600052602260045260246000fd5b5091905056fea164736f6c6343000813000a",
  "linkReferences": {},
  "deployedLinkReferences": {}
}