{
  "_format": "hh-sol-artifact-1",
  "contractName": "CandidateStorage",
  "sourceName": "contracts/dao/CandidateStorage.sol",
  "abi": [
    {
      "inputs": [],
      "name": "candidate",
      "outputs": [
        {
          "internalType": "address",
          "name": "",
          "type": "address"
        }
      ],
      "stateMutability": "view",
      "type": "function"
    },
    {
      "inputs": [],
      "name": "committee",
      "outputs": [
        {
          "internalType": "address",
          "name": "",
          "type": "address"
        }
      ],
      "stateMutability": "view",
      "type": "function"
    },
    {
      "inputs": [],
      "name": "isLayer2Candidate",
      "outputs": [
        {
          "internalType": "bool",
          "name": "",
          "type": "bool"
        }
      ],
      "stateMutability": "view",
      "type": "function"
    },
    {
      "inputs": [],
      "name": "memo",
      "outputs": [
        {
          "internalType": "string",
          "name": "",
          "type": "string"
        }
      ],
      "stateMutability": "view",
      "type": "function"
    },
    {
      "inputs": [],
      "name": "seigManager",
      "outputs": [
        {
          "internalType": "address",
          "name": "",
          "type": "address"
        }
      ],
      "stateMutability": "view",
      "type": "function"
    }
  ],
  "bytecode": "0x608060405234801561001057600080fd5b50610220806100206000396000f3fe608060405234801561001057600080fd5b50600436106100675760003560e01c80636fb7f558116100505780636fb7f558146100ba5780639b638268146100cd578063d864e740146100ea57600080fd5b806358c3b8701461006c5780636c8381f81461008a575b600080fd5b6100746100fd565b604051610081919061018b565b60405180910390f35b6001546100a29061010090046001600160a01b031681565b6040516001600160a01b039091168152602001610081565b6004546100a2906001600160a01b031681565b6001546100da9060ff1681565b6040519015158152602001610081565b6003546100a2906001600160a01b031681565b6002805461010a906101d9565b80601f0160208091040260200160405190810160405280929190818152602001828054610136906101d9565b80156101835780601f1061015857610100808354040283529160200191610183565b820191906000526020600020905b81548152906001019060200180831161016657829003601f168201915b505050505081565b600060208083528351808285015260005b818110156101b85785810183015185820160400152820161019c565b506000604082860101526040601f19601f8301168501019250505092915050565b600181811c908216806101ed57607f821691505b60208210810361020d57634e487b7160e01b600052602260045260246000fd5b5091905056fea164736f6c6343000813000a",
  "linkReferences": {},
  "deployedLinkReferences": {}
}