{
  "_format": "hh-sol-artifact-1",
  "contractName": "AuthRoleCoinage",
  "sourceName": "contracts/common/AuthRoleCoinage.sol",
  "abi": [
    {
      "inputs": [],
      "name": "MINTER_ROLE",
      "outputs": [
        {
          "internalType": "bytes32",
          "name": "",
          "type": "bytes32"
        }
      ],
      "stateMutability": "view",
      "type": "function"
    },
    {
      "inputs": [],
      "name": "OPERATOR_ROLE",
      "outputs": [
        {
          "internalType": "bytes32",
          "name": "",
          "type": "bytes32"
        }
      ],
      "stateMutability": "view",
      "type": "function"
    }
  ],
  "bytecode": "0x6080604052348015600f57600080fd5b5060a28061001e6000396000f3fe6080604052348015600f57600080fd5b506004361060325760003560e01c8063d5391393146037578063f5b541a614606f575b600080fd5b605d7ff0887ba65ee2024ea881d91b74c2450ef19e1557f03bed3ea9f16b037cbe2dc981565b60405190815260200160405180910390f35b605d7f523a704056dcd17bcf83bed8b68c59416dac1119be77755efe3bde0a64e46e0c8156fea164736f6c6343000813000a",
  "linkReferences": {},
  "deployedLinkReferences": {}
}