{
  "_format": "hh-sol-artifact-1",
  "contractName": "SeigManagerMigration",
  "sourceName": "contracts/stake/managers/SeigManagerMigration.sol",
  "abi": [
    {
      "anonymous": false,
      "inputs": [
        {
          "indexed": false,
          "internalType": "address",
          "name": "layer2",
          "type": "address"
        },
        {
          "indexed": false,
          "internalType": "uint256",
          "name": "seigs",
          "type": "uint256"
        },
        {
          "indexed": false,
          "internalType": "uint256",
          "name": "operatorSeigs",
          "type": "uint256"
        },
        {
          "indexed": false,
          "internalType": "uint256",
          "name": "nextTotalSupply",
          "type": "uint256"
        },
        {
          "indexed": false,
          "internalType": "uint256",
          "name": "prevTotalSupply",
          "type": "uint256"
        }
      ],
      "name": "AddedSeigAtLayer",
      "type": "event"
    },
    {
      "anonymous": false,
      "inputs": [
        {
          "indexed": true,
          "internalType": "address",
          "name": "layer2",
          "type": "address"
        },
        {
          "indexed": false,
          "internalType": "address",
          "name": "coinage",
          "type": "address"
        }
      ],
      "name": "CoinageCreated",
      "type": "event"
    },
    {
      "anonymous": false,
      "inputs": [
        {
          "indexed": true,
          "internalType": "address",
          "name": "layer2",
          "type": "address"
        }
      ],
      "name": "Comitted",
      "type": "event"
    },
    {
      "anonymous": false,
      "inputs": [
        {
          "indexed": true,
          "internalType": "address",
          "name": "layer2",
          "type": "address"
        },
        {
          "indexed": false,
          "internalType": "uint256",
          "name": "previousRate",
          "type": "uint256"
        },
        {
          "indexed": false,
          "internalType": "uint256",
          "name": "newRate",
          "type": "uint256"
        }
      ],
      "name": "CommissionRateSet",
      "type": "event"
    },
    {
      "anonymous": false,
      "inputs": [
        {
          "indexed": false,
          "internalType": "uint256",
          "name": "snapshotId",
          "type": "uint256"
        }
      ],
      "name": "OnSnapshot",
      "type": "event"
    },
    {
      "anonymous": false,
      "inputs": [
        {
          "indexed": false,
          "internalType": "address",
          "name": "account",
          "type": "address"
        }
      ],
      "name": "Paused",
      "type": "event"
    },
    {
      "anonymous": false,
      "inputs": [
        {
          "indexed": true,
          "internalType": "bytes32",
          "name": "role",
          "type": "bytes32"
        },
        {
          "indexed": true,
          "internalType": "bytes32",
          "name": "previousAdminRole",
          "type": "bytes32"
        },
        {
          "indexed": true,
          "internalType": "bytes32",
          "name": "newAdminRole",
          "type": "bytes32"
        }
      ],
      "name": "RoleAdminChanged",
      "type": "event"
    },
    {
      "anonymous": false,
      "inputs": [
        {
          "indexed": true,
          "internalType": "bytes32",
          "name": "role",
          "type": "bytes32"
        },
        {
          "indexed": true,
          "internalType": "address",
          "name": "account",
          "type": "address"
        },
        {
          "indexed": true,
          "internalType": "address",
          "name": "sender",
          "type": "address"
        }
      ],
      "name": "RoleGranted",
      "type": "event"
    },
    {
      "anonymous": false,
      "inputs": [
        {
          "indexed": true,
          "internalType": "bytes32",
          "name": "role",
          "type": "bytes32"
        },
        {
          "indexed": true,
          "internalType": "address",
          "name": "account",
          "type": "address"
        },
        {
          "indexed": true,
          "internalType": "address",
          "name": "sender",
          "type": "address"
        }
      ],
      "name": "RoleRevoked",
      "type": "event"
    },
    {
      "anonymous": false,
      "inputs": [
        {
          "indexed": true,
          "internalType": "address",
          "name": "layer2",
          "type": "address"
        },
        {
          "indexed": false,
          "internalType": "uint256",
          "name": "totalSeig",
          "type": "uint256"
        },
        {
          "indexed": false,
          "internalType": "uint256",
          "name": "stakedSeig",
          "type": "uint256"
        },
        {
          "indexed": false,
          "internalType": "uint256",
          "name": "unstakedSeig",
          "type": "uint256"
        },
        {
          "indexed": false,
          "internalType": "uint256",
          "name": "powertonSeig",
          "type": "uint256"
        },
        {
          "indexed": false,
          "internalType": "uint256",
          "name": "pseig",
          "type": "uint256"
        }
      ],
      "name": "SeigGiven",
      "type": "event"
    },
    {
      "anonymous": false,
      "inputs": [
        {
          "indexed": false,
          "internalType": "uint256",
          "name": "daoSeigRate",
          "type": "uint256"
        }
      ],
      "name": "SetDaoSeigRate",
      "type": "event"
    },
    {
      "anonymous": false,
      "inputs": [
        {
          "indexed": false,
          "internalType": "uint256",
          "name": "powerTONSeigRate",
          "type": "uint256"
        }
      ],
      "name": "SetPowerTONSeigRate",
      "type": "event"
    },
    {
      "anonymous": false,
      "inputs": [
        {
          "indexed": false,
          "internalType": "uint256",
          "name": "pseigRate",
          "type": "uint256"
        }
      ],
      "name": "SetPseigRate",
      "type": "event"
    },
    {
      "anonymous": false,
      "inputs": [
        {
          "indexed": false,
          "internalType": "address",
          "name": "account",
          "type": "address"
        }
      ],
      "name": "Unpaused",
      "type": "event"
    },
    {
      "anonymous": false,
      "inputs": [
        {
          "indexed": false,
          "internalType": "uint256",
          "name": "coinageBurnAmount",
          "type": "uint256"
        },
        {
          "indexed": false,
          "internalType": "uint256",
          "name": "totBurnAmount",
          "type": "uint256"
        }
      ],
      "name": "UnstakeLog",
      "type": "event"
    },
    {
      "inputs": [],
      "name": "CHALLENGER_ROLE",
      "outputs": [
        {
          "internalType": "bytes32",
          "name": "",
          "type": "bytes32"
        }
      ],
      "stateMutability": "view",
      "type": "function"
    },
    {
      "inputs": [],
      "name": "DEFAULT_ADMIN_ROLE",
      "outputs": [
        {
          "internalType": "bytes32",
          "name": "",
          "type": "bytes32"
        }
      ],
      "stateMutability": "view",
      "type": "function"
    },
    {
      "inputs": [],
      "name": "DEFAULT_FACTOR",
      "outputs": [
        {
          "internalType": "uint256",
          "name": "",
          "type": "uint256"
        }
      ],
      "stateMutability": "pure",
      "type": "function"
    },
    {
      "inputs": [],
      "name": "MAX_VALID_COMMISSION",
      "outputs": [
        {
          "internalType": "uint256",
          "name": "",
          "type": "uint256"
        }
      ],
      "stateMutability": "view",
      "type": "function"
    },
    {
      "inputs": [],
      "name": "MINTER_ROLE",
      "outputs": [
        {
          "internalType": "bytes32",
          "name": "",
          "type": "bytes32"
        }
      ],
      "stateMutability": "view",
      "type": "function"
    },
    {
      "inputs": [],
      "name": "MIN_VALID_COMMISSION",
      "outputs": [
        {
          "internalType": "uint256",
          "name": "",
          "type": "uint256"
        }
      ],
      "stateMutability": "view",
      "type": "function"
    },
    {
      "inputs": [],
      "name": "OPERATOR_ROLE",
      "outputs": [
        {
          "internalType": "bytes32",
          "name": "",
          "type": "bytes32"
        }
      ],
      "stateMutability": "view",
      "type": "function"
    },
    {
      "inputs": [],
      "name": "PAUSE_ROLE",
      "outputs": [
        {
          "internalType": "bytes32",
          "name": "",
          "type": "bytes32"
        }
      ],
      "stateMutability": "view",
      "type": "function"
    },
    {
      "inputs": [],
      "name": "RAY",
      "outputs": [
        {
          "internalType": "uint256",
          "name": "",
          "type": "uint256"
        }
      ],
      "stateMutability": "view",
      "type": "function"
    },
    {
      "inputs": [],
      "name": "accRelativeSeig",
      "outputs": [
        {
          "internalType": "uint256",
          "name": "",
          "type": "uint256"
        }
      ],
      "stateMutability": "view",
      "type": "function"
    },
    {
      "inputs": [
        {
          "internalType": "address",
          "name": "account",
          "type": "address"
        }
      ],
      "name": "addAdmin",
      "outputs": [],
      "stateMutability": "nonpayable",
      "type": "function"
    },
    {
      "inputs": [
        {
          "internalType": "address",
          "name": "account",
          "type": "address"
        }
      ],
      "name": "addChallenger",
      "outputs": [],
      "stateMutability": "nonpayable",
      "type": "function"
    },
    {
      "inputs": [
        {
          "internalType": "address",
          "name": "account",
          "type": "address"
        }
      ],
      "name": "addMinter",
      "outputs": [],
      "stateMutability": "nonpayable",
      "type": "function"
    },
    {
      "inputs": [
        {
          "internalType": "address",
          "name": "account",
          "type": "address"
        }
      ],
      "name": "addOperator",
      "outputs": [],
      "stateMutability": "nonpayable",
      "type": "function"
    },
    {
      "inputs": [
        {
          "internalType": "address",
          "name": "layer2",
          "type": "address"
        },
        {
          "internalType": "address",
          "name": "account",
          "type": "address"
        },
        {
          "internalType": "uint256",
          "name": "amount",
          "type": "uint256"
        }
      ],
      "name": "additionalTotBurnAmount",
      "outputs": [
        {
          "internalType": "uint256",
          "name": "totAmount",
          "type": "uint256"
        }
      ],
      "stateMutability": "view",
      "type": "function"
    },
    {
      "inputs": [],
      "name": "adjustCommissionDelay",
      "outputs": [
        {
          "internalType": "uint256",
          "name": "",
          "type": "uint256"
        }
      ],
      "stateMutability": "view",
      "type": "function"
    },
    {
      "inputs": [
        {
          "internalType": "address",
          "name": "layer",
          "type": "address"
        },
        {
          "internalType": "uint256",
          "name": "amount",
          "type": "uint256"
        }
      ],
      "name": "adjustTotBalance",
      "outputs": [],
      "stateMutability": "nonpayable",
      "type": "function"
    },
    {
      "inputs": [
        {
          "internalType": "address",
          "name": "",
          "type": "address"
        }
      ],
      "name": "aliveImplementation",
      "outputs": [
        {
          "internalType": "bool",
          "name": "",
          "type": "bool"
        }
      ],
      "stateMutability": "view",
      "type": "function"
    },
    {
      "inputs": [
        {
          "internalType": "address",
          "name": "layer2",
          "type": "address"
        }
      ],
      "name": "coinages",
      "outputs": [
        {
          "internalType": "address",
          "name": "",
          "type": "address"
        }
      ],
      "stateMutability": "view",
      "type": "function"
    },
    {
      "inputs": [
        {
          "internalType": "address",
          "name": "layer2",
          "type": "address"
        }
      ],
      "name": "commissionRates",
      "outputs": [
        {
          "internalType": "uint256",
          "name": "",
          "type": "uint256"
        }
      ],
      "stateMutability": "view",
      "type": "function"
    },
    {
      "inputs": [],
      "name": "dao",
      "outputs": [
        {
          "internalType": "address",
          "name": "",
          "type": "address"
        }
      ],
      "stateMutability": "view",
      "type": "function"
    },
    {
      "inputs": [],
      "name": "daoSeigRate",
      "outputs": [
        {
          "internalType": "uint256",
          "name": "",
          "type": "uint256"
        }
      ],
      "stateMutability": "view",
      "type": "function"
    },
    {
      "inputs": [
        {
          "internalType": "address",
          "name": "",
          "type": "address"
        }
      ],
      "name": "delayedCommissionBlock",
      "outputs": [
        {
          "internalType": "uint256",
          "name": "",
          "type": "uint256"
        }
      ],
      "stateMutability": "view",
      "type": "function"
    },
    {
      "inputs": [
        {
          "internalType": "address",
          "name": "",
          "type": "address"
        }
      ],
      "name": "delayedCommissionRate",
      "outputs": [
        {
          "internalType": "uint256",
          "name": "",
          "type": "uint256"
        }
      ],
      "stateMutability": "view",
      "type": "function"
    },
    {
      "inputs": [
        {
          "internalType": "address",
          "name": "",
          "type": "address"
        }
      ],
      "name": "delayedCommissionRateNegative",
      "outputs": [
        {
          "internalType": "bool",
          "name": "",
          "type": "bool"
        }
      ],
      "stateMutability": "view",
      "type": "function"
    },
    {
      "inputs": [
        {
          "internalType": "address",
          "name": "layer2",
          "type": "address"
        }
      ],
      "name": "deployCoinage",
      "outputs": [
        {
          "internalType": "bool",
          "name": "",
          "type": "bool"
        }
      ],
      "stateMutability": "nonpayable",
      "type": "function"
    },
    {
      "inputs": [],
      "name": "depositManager",
      "outputs": [
        {
          "internalType": "address",
          "name": "",
          "type": "address"
        }
      ],
      "stateMutability": "view",
      "type": "function"
    },
    {
      "inputs": [],
      "name": "factory",
      "outputs": [
        {
          "internalType": "address",
          "name": "",
          "type": "address"
        }
      ],
      "stateMutability": "view",
      "type": "function"
    },
    {
      "inputs": [
        {
          "internalType": "address",
          "name": "layer2",
          "type": "address"
        }
      ],
      "name": "getOperatorAmount",
      "outputs": [
        {
          "internalType": "uint256",
          "name": "",
          "type": "uint256"
        }
      ],
      "stateMutability": "view",
      "type": "function"
    },
    {
      "inputs": [
        {
          "internalType": "bytes32",
          "name": "role",
          "type": "bytes32"
        }
      ],
      "name": "getRoleAdmin",
      "outputs": [
        {
          "internalType": "bytes32",
          "name": "",
          "type": "bytes32"
        }
      ],
      "stateMutability": "view",
      "type": "function"
    },
    {
      "inputs": [
        {
          "internalType": "bytes32",
          "name": "role",
          "type": "bytes32"
        },
        {
          "internalType": "address",
          "name": "account",
          "type": "address"
        }
      ],
      "name": "grantRole",
      "outputs": [],
      "stateMutability": "nonpayable",
      "type": "function"
    },
    {
      "inputs": [
        {
          "internalType": "bytes32",
          "name": "role",
          "type": "bytes32"
        },
        {
          "internalType": "address",
          "name": "account",
          "type": "address"
        }
      ],
      "name": "hasRole",
      "outputs": [
        {
          "internalType": "bool",
          "name": "",
          "type": "bool"
        }
      ],
      "stateMutability": "view",
      "type": "function"
    },
    {
      "inputs": [
        {
          "internalType": "address",
          "name": "ton_",
          "type": "address"
        },
        {
          "internalType": "address",
          "name": "wton_",
          "type": "address"
        },
        {
          "internalType": "address",
          "name": "registry_",
          "type": "address"
        },
        {
          "internalType": "address",
          "name": "depositManager_",
          "type": "address"
        },
        {
          "internalType": "uint256",
          "name": "seigPerBlock_",
          "type": "uint256"
        },
        {
          "internalType": "address",
          "name": "factory_",
          "type": "address"
        },
        {
          "internalType": "uint256",
          "name": "lastSeigBlock_",
          "type": "uint256"
        }
      ],
      "name": "initialize",
      "outputs": [],
      "stateMutability": "nonpayable",
      "type": "function"
    },
    {
      "inputs": [
        {
          "internalType": "address",
          "name": "account",
          "type": "address"
        }
      ],
      "name": "isAdmin",
      "outputs": [
        {
          "internalType": "bool",
          "name": "",
          "type": "bool"
        }
      ],
      "stateMutability": "view",
      "type": "function"
    },
    {
      "inputs": [
        {
          "internalType": "address",
          "name": "account",
          "type": "address"
        }
      ],
      "name": "isChallenger",
      "outputs": [
        {
          "internalType": "bool",
          "name": "",
          "type": "bool"
        }
      ],
      "stateMutability": "view",
      "type": "function"
    },
    {
      "inputs": [
        {
          "internalType": "address",
          "name": "layer2",
          "type": "address"
        }
      ],
      "name": "isCommissionRateNegative",
      "outputs": [
        {
          "internalType": "bool",
          "name": "",
          "type": "bool"
        }
      ],
      "stateMutability": "view",
      "type": "function"
    },
    {
      "inputs": [
        {
          "internalType": "address",
          "name": "account",
          "type": "address"
        }
      ],
      "name": "isMinter",
      "outputs": [
        {
          "internalType": "bool",
          "name": "",
          "type": "bool"
        }
      ],
      "stateMutability": "view",
      "type": "function"
    },
    {
      "inputs": [
        {
          "internalType": "address",
          "name": "account",
          "type": "address"
        }
      ],
      "name": "isOperator",
      "outputs": [
        {
          "internalType": "bool",
          "name": "",
          "type": "bool"
        }
      ],
      "stateMutability": "view",
      "type": "function"
    },
    {
      "inputs": [],
      "name": "isOwner",
      "outputs": [
        {
          "internalType": "bool",
          "name": "",
          "type": "bool"
        }
      ],
      "stateMutability": "view",
      "type": "function"
    },
    {
      "inputs": [
        {
          "internalType": "address",
          "name": "layer2",
          "type": "address"
        }
      ],
      "name": "lastCommitBlock",
      "outputs": [
        {
          "internalType": "uint256",
          "name": "",
          "type": "uint256"
        }
      ],
      "stateMutability": "view",
      "type": "function"
    },
    {
      "inputs": [],
      "name": "lastSeigBlock",
      "outputs": [
        {
          "internalType": "uint256",
          "name": "",
          "type": "uint256"
        }
      ],
      "stateMutability": "view",
      "type": "function"
    },
    {
      "inputs": [],
      "name": "lastSnapshotId",
      "outputs": [
        {
          "internalType": "uint256",
          "name": "",
          "type": "uint256"
        }
      ],
      "stateMutability": "view",
      "type": "function"
    },
    {
      "inputs": [],
      "name": "minimumAmount",
      "outputs": [
        {
          "internalType": "uint256",
          "name": "",
          "type": "uint256"
        }
      ],
      "stateMutability": "view",
      "type": "function"
    },
    {
      "inputs": [
        {
          "internalType": "address",
          "name": "layer2",
          "type": "address"
        },
        {
          "internalType": "address",
          "name": "account",
          "type": "address"
        },
        {
          "internalType": "uint256",
          "name": "amount",
          "type": "uint256"
        }
      ],
      "name": "onDeposit",
      "outputs": [
        {
          "internalType": "bool",
          "name": "",
          "type": "bool"
        }
      ],
      "stateMutability": "nonpayable",
      "type": "function"
    },
    {
      "inputs": [],
      "name": "onSnapshot",
      "outputs": [
        {
          "internalType": "uint256",
          "name": "snapshotId",
          "type": "uint256"
        }
      ],
      "stateMutability": "nonpayable",
      "type": "function"
    },
    {
      "inputs": [
        {
          "internalType": "address",
          "name": "sender",
          "type": "address"
        },
        {
          "internalType": "address",
          "name": "recipient",
          "type": "address"
        },
        {
          "internalType": "uint256",
          "name": "amount",
          "type": "uint256"
        }
      ],
      "name": "onTransfer",
      "outputs": [
        {
          "internalType": "bool",
          "name": "",
          "type": "bool"
        }
      ],
      "stateMutability": "nonpayable",
      "type": "function"
    },
    {
      "inputs": [
        {
          "internalType": "address",
          "name": "layer2",
          "type": "address"
        },
        {
          "internalType": "address",
          "name": "account",
          "type": "address"
        },
        {
          "internalType": "uint256",
          "name": "amount",
          "type": "uint256"
        }
      ],
      "name": "onWithdraw",
      "outputs": [
        {
          "internalType": "bool",
          "name": "",
          "type": "bool"
        }
      ],
      "stateMutability": "nonpayable",
      "type": "function"
    },
    {
      "inputs": [],
      "name": "pause",
      "outputs": [],
      "stateMutability": "nonpayable",
      "type": "function"
    },
    {
      "inputs": [],
      "name": "pauseProxy",
      "outputs": [
        {
          "internalType": "bool",
          "name": "",
          "type": "bool"
        }
      ],
      "stateMutability": "view",
      "type": "function"
    },
    {
      "inputs": [],
      "name": "paused",
      "outputs": [
        {
          "internalType": "bool",
          "name": "",
          "type": "bool"
        }
      ],
      "stateMutability": "view",
      "type": "function"
    },
    {
      "inputs": [],
      "name": "pausedBlock",
      "outputs": [
        {
          "internalType": "uint256",
          "name": "",
          "type": "uint256"
        }
      ],
      "stateMutability": "view",
      "type": "function"
    },
    {
      "inputs": [],
      "name": "powerTONSeigRate",
      "outputs": [
        {
          "internalType": "uint256",
          "name": "",
          "type": "uint256"
        }
      ],
      "stateMutability": "view",
      "type": "function"
    },
    {
      "inputs": [],
      "name": "powerton",
      "outputs": [
        {
          "internalType": "address",
          "name": "",
          "type": "address"
        }
      ],
      "stateMutability": "view",
      "type": "function"
    },
    {
      "inputs": [],
      "name": "progressSnapshotId",
      "outputs": [
        {
          "internalType": "uint256",
          "name": "",
          "type": "uint256"
        }
      ],
      "stateMutability": "view",
      "type": "function"
    },
    {
      "inputs": [
        {
          "internalType": "uint256",
          "name": "",
          "type": "uint256"
        }
      ],
      "name": "proxyImplementation",
      "outputs": [
        {
          "internalType": "address",
          "name": "",
          "type": "address"
        }
      ],
      "stateMutability": "view",
      "type": "function"
    },
    {
      "inputs": [],
      "name": "registry",
      "outputs": [
        {
          "internalType": "address",
          "name": "",
          "type": "address"
        }
      ],
      "stateMutability": "view",
      "type": "function"
    },
    {
      "inputs": [],
      "name": "relativeSeigRate",
      "outputs": [
        {
          "internalType": "uint256",
          "name": "",
          "type": "uint256"
        }
      ],
      "stateMutability": "view",
      "type": "function"
    },
    {
      "inputs": [
        {
          "internalType": "address",
          "name": "account",
          "type": "address"
        }
      ],
      "name": "removeAdmin",
      "outputs": [],
      "stateMutability": "nonpayable",
      "type": "function"
    },
    {
      "inputs": [
        {
          "internalType": "address",
          "name": "account",
          "type": "address"
        }
      ],
      "name": "removeChallenger",
      "outputs": [],
      "stateMutability": "nonpayable",
      "type": "function"
    },
    {
      "inputs": [
        {
          "internalType": "address",
          "name": "account",
          "type": "address"
        }
      ],
      "name": "removeMinter",
      "outputs": [],
      "stateMutability": "nonpayable",
      "type": "function"
    },
    {
      "inputs": [
        {
          "internalType": "address",
          "name": "account",
          "type": "address"
        }
      ],
      "name": "removeOperator",
      "outputs": [],
      "stateMutability": "nonpayable",
      "type": "function"
    },
    {
      "inputs": [],
      "name": "renounceChallenger",
      "outputs": [],
      "stateMutability": "nonpayable",
      "type": "function"
    },
    {
      "inputs": [
        {
          "internalType": "address",
          "name": "target",
          "type": "address"
        }
      ],
      "name": "renounceMinter",
      "outputs": [],
      "stateMutability": "nonpayable",
      "type": "function"
    },
    {
      "inputs": [],
      "name": "renounceMinter",
      "outputs": [],
      "stateMutability": "nonpayable",
      "type": "function"
    },
    {
      "inputs": [],
      "name": "renounceOperator",
      "outputs": [],
      "stateMutability": "nonpayable",
      "type": "function"
    },
    {
      "inputs": [
        {
          "internalType": "address",
          "name": "target",
          "type": "address"
        }
      ],
      "name": "renounceOwnership",
      "outputs": [],
      "stateMutability": "nonpayable",
      "type": "function"
    },
    {
      "inputs": [],
      "name": "renounceOwnership",
      "outputs": [],
      "stateMutability": "nonpayable",
      "type": "function"
    },
    {
      "inputs": [
        {
          "internalType": "address",
          "name": "target",
          "type": "address"
        }
      ],
      "name": "renouncePauser",
      "outputs": [],
      "stateMutability": "nonpayable",
      "type": "function"
    },
    {
      "inputs": [
        {
          "internalType": "bytes32",
          "name": "role",
          "type": "bytes32"
        },
        {
          "internalType": "address",
          "name": "account",
          "type": "address"
        }
      ],
      "name": "renounceRole",
      "outputs": [],
      "stateMutability": "nonpayable",
      "type": "function"
    },
    {
      "inputs": [],
      "name": "renounceWTONMinter",
      "outputs": [],
      "stateMutability": "nonpayable",
      "type": "function"
    },
    {
      "inputs": [
        {
          "internalType": "address",
          "name": "account",
          "type": "address"
        }
      ],
      "name": "revokeChallenger",
      "outputs": [],
      "stateMutability": "nonpayable",
      "type": "function"
    },
    {
      "inputs": [
        {
          "internalType": "address",
          "name": "account",
          "type": "address"
        }
      ],
      "name": "revokeMinter",
      "outputs": [],
      "stateMutability": "nonpayable",
      "type": "function"
    },
    {
      "inputs": [
        {
          "internalType": "address",
          "name": "account",
          "type": "address"
        }
      ],
      "name": "revokeOperator",
      "outputs": [],
      "stateMutability": "nonpayable",
      "type": "function"
    },
    {
      "inputs": [
        {
          "internalType": "bytes32",
          "name": "role",
          "type": "bytes32"
        },
        {
          "internalType": "address",
          "name": "account",
          "type": "address"
        }
      ],
      "name": "revokeRole",
      "outputs": [],
      "stateMutability": "nonpayable",
      "type": "function"
    },
    {
      "inputs": [],
      "name": "seigPerBlock",
      "outputs": [
        {
          "internalType": "uint256",
          "name": "",
          "type": "uint256"
        }
      ],
      "stateMutability": "view",
      "type": "function"
    },
    {
      "inputs": [
        {
          "internalType": "bytes4",
          "name": "",
          "type": "bytes4"
        }
      ],
      "name": "selectorImplementation",
      "outputs": [
        {
          "internalType": "address",
          "name": "",
          "type": "address"
        }
      ],
      "stateMutability": "view",
      "type": "function"
    },
    {
      "inputs": [
        {
          "internalType": "uint256",
          "name": "adjustDelay_",
          "type": "uint256"
        }
      ],
      "name": "setAdjustDelay",
      "outputs": [],
      "stateMutability": "nonpayable",
      "type": "function"
    },
    {
      "inputs": [
        {
          "internalType": "address",
          "name": "factory_",
          "type": "address"
        }
      ],
      "name": "setCoinageFactory",
      "outputs": [],
      "stateMutability": "nonpayable",
      "type": "function"
    },
    {
      "inputs": [
        {
          "internalType": "address",
          "name": "layer2",
          "type": "address"
        },
        {
          "internalType": "uint256",
          "name": "commissionRate",
          "type": "uint256"
        },
        {
          "internalType": "bool",
          "name": "isCommissionRateNegative_",
          "type": "bool"
        }
      ],
      "name": "setCommissionRate",
      "outputs": [
        {
          "internalType": "bool",
          "name": "",
          "type": "bool"
        }
      ],
      "stateMutability": "nonpayable",
      "type": "function"
    },
    {
      "inputs": [
        {
          "internalType": "address",
          "name": "layer2",
          "type": "address"
        },
        {
          "internalType": "uint256",
          "name": "commissionRate",
          "type": "uint256"
        },
        {
          "internalType": "bool",
          "name": "isCommissionRateNegative_",
          "type": "bool"
        }
      ],
      "name": "setCommissionRateOnlyOwner",
      "outputs": [
        {
          "internalType": "bool",
          "name": "",
          "type": "bool"
        }
      ],
      "stateMutability": "nonpayable",
      "type": "function"
    },
    {
      "inputs": [
        {
          "internalType": "address",
          "name": "daoAddress",
          "type": "address"
        }
      ],
      "name": "setDao",
      "outputs": [],
      "stateMutability": "nonpayable",
      "type": "function"
    },
    {
      "inputs": [
        {
          "internalType": "uint256",
          "name": "daoSeigRate_",
          "type": "uint256"
        }
      ],
      "name": "setDaoSeigRate",
      "outputs": [],
      "stateMutability": "nonpayable",
      "type": "function"
    },
    {
      "inputs": [
        {
          "internalType": "address",
          "name": "powerton_",
          "type": "address"
        },
        {
          "internalType": "address",
          "name": "daoAddress",
          "type": "address"
        },
        {
          "internalType": "uint256",
          "name": "powerTONSeigRate_",
          "type": "uint256"
        },
        {
          "internalType": "uint256",
          "name": "daoSeigRate_",
          "type": "uint256"
        },
        {
          "internalType": "uint256",
          "name": "relativeSeigRate_",
          "type": "uint256"
        },
        {
          "internalType": "uint256",
          "name": "adjustDelay_",
          "type": "uint256"
        },
        {
          "internalType": "uint256",
          "name": "minimumAmount_",
          "type": "uint256"
        }
      ],
      "name": "setData",
      "outputs": [],
      "stateMutability": "nonpayable",
      "type": "function"
    },
    {
      "inputs": [
        {
          "internalType": "uint256",
          "name": "minimumAmount_",
          "type": "uint256"
        }
      ],
      "name": "setMinimumAmount",
      "outputs": [],
      "stateMutability": "nonpayable",
      "type": "function"
    },
    {
      "inputs": [
        {
          "internalType": "address",
          "name": "powerton_",
          "type": "address"
        }
      ],
      "name": "setPowerTON",
      "outputs": [],
      "stateMutability": "nonpayable",
      "type": "function"
    },
    {
      "inputs": [
        {
          "internalType": "uint256",
          "name": "powerTONSeigRate_",
          "type": "uint256"
        }
      ],
      "name": "setPowerTONSeigRate",
      "outputs": [],
      "stateMutability": "nonpayable",
      "type": "function"
    },
    {
      "inputs": [
        {
          "internalType": "uint256",
          "name": "pseigRate_",
          "type": "uint256"
        }
      ],
      "name": "setPseigRate",
      "outputs": [],
      "stateMutability": "nonpayable",
      "type": "function"
    },
    {
      "inputs": [
        {
          "internalType": "address",
          "name": "layer2",
          "type": "address"
        },
        {
          "internalType": "address",
          "name": "challenger",
          "type": "address"
        }
      ],
      "name": "slash",
      "outputs": [
        {
          "internalType": "bool",
          "name": "",
          "type": "bool"
        }
      ],
      "stateMutability": "nonpayable",
      "type": "function"
    },
    {
      "inputs": [
        {
          "internalType": "address",
          "name": "account",
          "type": "address"
        }
      ],
      "name": "stakeOf",
      "outputs": [
        {
          "internalType": "uint256",
          "name": "amount",
          "type": "uint256"
        }
      ],
      "stateMutability": "view",
      "type": "function"
    },
    {
      "inputs": [
        {
          "internalType": "address",
          "name": "layer2",
          "type": "address"
        },
        {
          "internalType": "address",
          "name": "account",
          "type": "address"
        }
      ],
      "name": "stakeOf",
      "outputs": [
        {
          "internalType": "uint256",
          "name": "",
          "type": "uint256"
        }
      ],
      "stateMutability": "view",
      "type": "function"
    },
    {
      "inputs": [
        {
          "internalType": "address",
          "name": "account",
          "type": "address"
        },
        {
          "internalType": "uint256",
          "name": "snapshotId",
          "type": "uint256"
        }
      ],
      "name": "stakeOfAt",
      "outputs": [
        {
          "internalType": "uint256",
          "name": "amount",
          "type": "uint256"
        }
      ],
      "stateMutability": "view",
      "type": "function"
    },
    {
      "inputs": [
        {
          "internalType": "address",
          "name": "layer2",
          "type": "address"
        },
        {
          "internalType": "address",
          "name": "account",
          "type": "address"
        },
        {
          "internalType": "uint256",
          "name": "snapshotId",
          "type": "uint256"
        }
      ],
      "name": "stakeOfAt",
      "outputs": [
        {
          "internalType": "uint256",
          "name": "amount",
          "type": "uint256"
        }
      ],
      "stateMutability": "view",
      "type": "function"
    },
    {
      "inputs": [],
      "name": "stakeOfTotal",
      "outputs": [
        {
          "internalType": "uint256",
          "name": "amount",
          "type": "uint256"
        }
      ],
      "stateMutability": "view",
      "type": "function"
    },
    {
      "inputs": [
        {
          "internalType": "uint256",
          "name": "snapshotId",
          "type": "uint256"
        }
      ],
      "name": "stakeOfTotalAt",
      "outputs": [
        {
          "internalType": "uint256",
          "name": "amount",
          "type": "uint256"
        }
      ],
      "stateMutability": "view",
      "type": "function"
    },
    {
      "inputs": [
        {
          "internalType": "bytes4",
          "name": "interfaceId",
          "type": "bytes4"
        }
      ],
      "name": "supportsInterface",
      "outputs": [
        {
          "internalType": "bool",
          "name": "",
          "type": "bool"
        }
      ],
      "stateMutability": "view",
      "type": "function"
    },
    {
      "inputs": [],
      "name": "ton",
      "outputs": [
        {
          "internalType": "address",
          "name": "",
          "type": "address"
        }
      ],
      "stateMutability": "view",
      "type": "function"
    },
    {
      "inputs": [],
      "name": "tot",
      "outputs": [
        {
          "internalType": "address",
          "name": "",
          "type": "address"
        }
      ],
      "stateMutability": "view",
      "type": "function"
    },
    {
      "inputs": [
        {
          "internalType": "address",
          "name": "newAdmin",
          "type": "address"
        }
      ],
      "name": "transferAdmin",
      "outputs": [],
      "stateMutability": "nonpayable",
      "type": "function"
    },
    {
      "inputs": [
        {
          "internalType": "address",
          "name": "newSeigManager",
          "type": "address"
        },
        {
          "internalType": "address[]",
          "name": "coinages_",
          "type": "address[]"
        }
      ],
      "name": "transferCoinageOwnership",
      "outputs": [],
      "stateMutability": "nonpayable",
      "type": "function"
    },
    {
      "inputs": [
        {
          "internalType": "address",
          "name": "target",
          "type": "address"
        },
        {
          "internalType": "address",
          "name": "newOwner",
          "type": "address"
        }
      ],
      "name": "transferOwnership",
      "outputs": [],
      "stateMutability": "nonpayable",
      "type": "function"
    },
    {
      "inputs": [
        {
          "internalType": "address",
          "name": "newAdmin",
          "type": "address"
        }
      ],
      "name": "transferOwnership",
      "outputs": [],
      "stateMutability": "nonpayable",
      "type": "function"
    },
    {
      "inputs": [
        {
          "internalType": "address",
          "name": "layer2",
          "type": "address"
        },
        {
          "internalType": "address",
          "name": "account",
          "type": "address"
        }
      ],
      "name": "uncomittedStakeOf",
      "outputs": [
        {
          "internalType": "uint256",
          "name": "",
          "type": "uint256"
        }
      ],
      "stateMutability": "view",
      "type": "function"
    },
    {
      "inputs": [],
      "name": "unpause",
      "outputs": [],
      "stateMutability": "nonpayable",
      "type": "function"
    },
    {
      "inputs": [],
      "name": "unpausedBlock",
      "outputs": [
        {
          "internalType": "uint256",
          "name": "",
          "type": "uint256"
        }
      ],
      "stateMutability": "view",
      "type": "function"
    },
    {
      "inputs": [],
      "name": "updateSeigniorage",
      "outputs": [
        {
          "internalType": "bool",
          "name": "",
          "type": "bool"
        }
      ],
      "stateMutability": "nonpayable",
      "type": "function"
    },
    {
      "inputs": [
        {
          "internalType": "address",
          "name": "layer2",
          "type": "address"
        }
      ],
      "name": "updateSeigniorageLayer",
      "outputs": [
        {
          "internalType": "bool",
          "name": "",
          "type": "bool"
        }
      ],
      "stateMutability": "nonpayable",
      "type": "function"
    },
    {
      "inputs": [],
      "name": "wton",
      "outputs": [
        {
          "internalType": "address",
          "name": "",
          "type": "address"
        }
      ],
      "stateMutability": "view",
      "type": "function"
    }
  ],
  "bytecode": "0x60808060405234610016576150a4908161001c8239f35b600080fdfe608060408181526004918236101561001657600080fd5b600092833560e01c91826301ffc9a7146132b05750816303e1cc271461322e5781630ceb678014613171578163139770421461187d5781631785f53c146131435781631cc47890146131245781631e1f0b6014613077578163248a9ca31461304c57816324d7806c1461300657816325374a9a14612fe757816325e90db414612fcd57816328050c2f14612f235781632ab6f8db14612f095781632d1bdec814612ece5781632f17250a14612ea85781632f2ff15d14612e0d5781633092afd514612ddf57816332053c9914612dc05781633284795314612c4757816336568abe14612bb5578163389ed26714612b7a5783826338bf3cfa14612b0a575081633c49117314612aba5781633e832e1d14612a915781633f4ba83a146129bf5781634123196f14611fd3578163412c6d50146127f45781634162169f146127cb578163418130201461278d5783826341eb24bb1461271d575081634224ed661461263c57816342623360146124c557816346a99fe71461233857816348c8577e1461231a5781634a393149146122595781634c063c191461221e5781634c75ab9c1461208357816350d2a2761461203f578163530adbb414612016578163550d01a314611fd8578163552033c414611fd357816358d00cd614611f825781635998a8d714611f635781635a16a41614611f255781635c975abb14611f01578382635f112c6814611e91575081635f40a34914611e725781636304a62414611e5357816363a8fd8914611e3157816364d8f73614611df45781636637b88214611db65781636c578c1d14611d885781636c7ac9d814611d5f5781636d43542114611cdc5781636d70f7ae14611c885781637048027514611be5578163715018a614611bbf57816375829def14611ba2578163764a785614611b5c5781637aeccce914611a3f5781637b056c1b14611a075781637b103999146119de578163833a774f1461189b578163837afbc01461187d5781638456cb59146117ad5781638bf91dc4146117875781638d62d9491461175e5781638f32d59b1461172b57816391d14854146116e45781639328f1bc14611670578163983b2d561461162057816398650275146116065781639870d7fe146115535781639c877e47146114d1578163a0474ef51461147b578163a16d6aa714611452578163a217fddf14611437578163a415d8dc146113e3578163a7dcc850146113bd578163aa271e1a14611369578163ac753a7a1461132b578163ac893219146112d2578163ac8a584a146112a457838263ae3458f81461121f57508163b911135f146111ec578163bb0c8298146111cd578163c45a0155146111a4578163c59f10461461116c578163cbfebe6214611134578163cc48b9471461110b578163ce4cb8761461105f578163ce6c035514610fd0578163cfbd488514610f80578163d539139314610f57578163d547741f14610f1b578163df7fbef014610efc578163e2fe8fd114610ec4578163e403483214610e39578163eeb4a9c814610dfe578163f2fde38b14610cba578163f35c89e814610c9b578163f5b541a614610c72578163f822934814610c53578163f850ffaa14610969578163f8951f461461084c578163fa9789c814610592575063fad8b32a146104c657600080fd5b3461058e576020908160031936011261058a576104e1613330565b906104f36104ee336133ef565b613ac0565b60008051602061505883398151915292838552600581526105196001838720015461342c565b838552600581528185206001600160a01b039093168086529281528185205460ff16610543578480f35b8385526005815281852083865290528320805460ff1916905533917ff6391f5c32d9c69d2a47ea670b442974b53935d1edc7fd64eb21e047a839171b8480a4388080808480f35b8280fd5b5080fd5b82843461072e578160031936011261072e576105ac613330565b906105b561334b565b6001600160a01b03928316808352600e6020908152858420548651630a9ee07f60e31b8152919792959081169391929188848481885afa93841561084257869461080f575b5087516318160ddd60e01b815289818581895afa90811561080557908893929188916107cc575b5060248b84600d54168c51928380926370a0823160e01b998a83528b8301525afa9081156107885787939285928e928c91610792575b50906106829161067c610677676765c793fa10079d601b1b988993614369565b61430d565b046143dc565b9260248d51809481938a8352169b8c8b8301525afa90811561078857908c9695949392918a91610743575b506106c8916106c36024979899610677936143dc565b614369565b04978752600e855288872054168851958694859384528301525afa918215610738578092610703575b50506106fc91613cf6565b9051908152f35b9091508482813d8311610731575b61071b81836137c5565b8101031261072e5750516106fc856106f1565b80fd5b503d610711565b8451903d90823e3d90fd5b87819395979994969892503d8311610781575b61076081836137c5565b8101031261077d575190958b9590949093909290916106c86106ad565b8880fd5b503d610756565b8b513d8b823e3d90fd5b93505092935081813d83116107c5575b6107ac81836137c5565b8101031261077d578b6106828894938693519091610657565b503d6107a2565b80929394508b8092503d83116107fe575b6107e781836137c5565b810103126107fa5790879291518b610621565b8680fd5b503d6107dd565b89513d89823e3d90fd5b9093508881813d831161083b575b61082781836137c5565b81010312610837575192896105fa565b8580fd5b503d61081d565b88513d88823e3d90fd5b50503461058e5760e036600319011261058e576020809161086b613330565b907f25826073c0320e7bfcef08488f501afb014791143befc0558b6343262751a8768361089661334b565b93604435906064359589805260058452858a20338b5284526108bd60ff878c205416613ac0565b6108ee676765c793fa10079d601b1b6108e76108de601b54601c5490613a8c565b601d5490613a8c565b1115613b8f565b60018060a01b0390816001600160601b0360a01b93168360085416176008551690600954161760095580601b5584601c55608435601d5560a43560165560c435601a558351908152a180518281527f1140c1f14579543e61b599f8f43d0112d66ec1462431e56c97c27b47446a38ac948591a151908152a180f35b90503461058a5761097936613387565b9291949060018060a01b039561099487600754163314613c65565b86811693848452602097600e89526109b28189872054161515613c02565b858552600e89528088862054168851906370a0823160e01b918281528b81602481878b1695868a8301525afa908115610c4957908a918991610c18575b5010610bc0578a90610a018787614781565b610b33575b505050610a138784614422565b9581600d5416610a23888a613a8c565b813b15610b2f578a5163079cc67960e41b8082526001600160a01b03909716868201908152602081019290925291889183919082908490829060400103925af18015610b2557610b16575b508552600e8952878520541691823b15610b125787519081526001600160a01b03909316908301908152602081018690529192918291849182908490829060400103925af1908115610b075750917f650f673bb96a43afff4620ecc3f3e38e0cbfddebde9894e951ba2ceff7472f6093918593610af8575b50825191825285820152a15160018152f35b610b019061379b565b38610ae6565b8551903d90823e3d90fd5b8480fd5b610b1f9061379b565b38610a6e565b8a513d89823e3d90fd5b8780fd5b888852600e82526024848c8a205416938c5194859384928352888301525afa908115610bb6579088918791610b83575b50610b7b91610b7191613cf6565b601a541115613caa565b388981610a06565b8092508b8092503d8311610baf575b610b9c81836137c5565b8101031261083757518790610b7b610b63565b503d610b92565b89513d88823e3d90fd5b895162461bcd60e51b81528085018c9052602c60248201527f536569674d616e616765723a20696e73756666696369616e742062616c616e6360448201526b6520746f20756e7374616b6560a01b6064820152608490fd5b8092508d8092503d8311610c42575b610c3181836137c5565b81010312610b2f57899051386109ef565b503d610c27565b8b513d8a823e3d90fd5b50503461058e578160031936011261058e57602090601e549051908152f35b50503461058e578160031936011261058e57602090516000805160206150588339815191528152f35b50503461058e578160031936011261058e576020906011549051908152f35b9190503461058a57602080600319360112610dfa57610cd7613330565b610ce36104ee336133ef565b610cef6104ee336133ef565b6001600160a01b0316928315610db957833314610d7f575083805260058152610d1d6001838620015461342c565b83805260058152818420838552815260ff828520541615610d46575b83610d43336137e7565b80f35b8380526005815281842083855290528220805460ff191660011790553390826000805160206150188339815191528180a4388080610d39565b915162461bcd60e51b815291820152601660248201527520b1b1b2b9b9b4b136329d1039b0b6b29030b236b4b760511b6044820152606490fd5b915162461bcd60e51b815291820152601860248201527f41636365737369626c653a207a65726f206164647265737300000000000000006044820152606490fd5b8380fd5b9190503461058a57602036600319011261058a5760ff610e3291848052600560205280852033865260205284205416613ac0565b35601a5580f35b90503461058a57602036600319011261058a577f4f3f4d2a7e076fb16f4fe2fc46ac0a4050623f4a4ba0fb0e9a9d5283f192a090916020913590848052600583528085203386528352610e9160ff8287205416613ac0565b610eb8676765c793fa10079d601b1b6108e784610eb3601b54601c5490613a8c565b613a8c565b81601d5551908152a180f35b50503461058e57602036600319011261058e5760209181906001600160a01b03610eec613330565b1681526018845220549051908152f35b50503461058e578160031936011261058e576020906016549051908152f35b9190503461058a578060031936011261058a57610d439135610f526001610f4061334b565b9383875260056020528620015461342c565b613a32565b50503461058e578160031936011261058e57602090516000805160206150388339815191528152f35b50503461058e576020908160031936011261058a57610f9d613330565b90610faa6104ee336133ef565b60008051602061503883398151915292838552600581526105196001838720015461342c565b9190503461058a578260031936011261058a57600d5481516318160ddd60e01b81529260209184919082906001600160a01b03165afa91821561105557839261101e575b6020838351908152f35b9091506020813d821161104d575b81611039602093836137c5565b8101031261058a5760209250519038611014565b3d915061102c565b81513d85823e3d90fd5b83833461058e578060031936011261058e5760249261107c613330565b61108461334b565b9060018060a01b0380911685526020958692600e8452828688205416865195869485936370a0823160e01b855216908301525afa9283156111005780936110ce575b505051908152f35b909192508382813d83116110f9575b6110e781836137c5565b8101031261072e5750519083806110c6565b503d6110dd565b8251903d90823e3d90fd5b50503461058e578160031936011261058e57600a5490516001600160a01b039091168152602090f35b50503461058e57602036600319011261058e5760209181906001600160a01b0361115c613330565b1681526017845220549051908152f35b50503461058e57602036600319011261058e5760209181906001600160a01b03611194613330565b168152600f845220549051908152f35b50503461058e578160031936011261058e57600c5490516001600160a01b039091168152602090f35b50503461058e578160031936011261058e57602090601a549051908152f35b90503461058a57602036600319011261058a5735825260016020908152918190205490516001600160a01b039091168152f35b929150346112a057826003193601126112a057828052600560205281832033845260205261125260ff8385205416613ac0565b600b546001600160a01b0316803b1561129b578391835180958193639865027560e01b83525af19081156112925750611289575080f35b610d439061379b565b513d84823e3d90fd5b505050fd5b5050fd5b833461072e57602036600319011261072e57610d436112c1613330565b6112cd6104ee336133ef565b613978565b50503461058e57602036600319011261058e5761130d60ff6112f2613330565b92848052600560205280852033865260205284205416613ac0565b60018060a01b03166001600160601b0360a01b600c541617600c5580f35b50503461058e57602036600319011261058e5760209160ff9082906001600160a01b03611356613330565b1681526019855220541690519015158152f35b50503461058e57602036600319011261058e5760ff8160209361138a613330565b6000805160206150388339815191528252600586528282206001600160a01b039091168252855220549151911615158152f35b50503461058e578160031936011261058e57602090516a084595161401484a0000008152f35b50503461058e57602036600319011261058e5760ff81602093611404613330565b6000805160206150788339815191528252600586528282206001600160a01b039091168252855220549151911615158152f35b50503461058e578160031936011261058e5751908152602090f35b50503461058e578160031936011261058e57600d5490516001600160a01b039091168152602090f35b83833461058e576020928360031936011261058a57600d548251630981b24d60e41b81528235928101929092528490829060249082906001600160a01b03165afa9283156111005780936110ce57505051908152f35b90503461058a57602036600319011261058a577f25826073c0320e7bfcef08488f501afb014791143befc0558b6343262751a87691602091359084805260058352808520338652835261152960ff8287205416613ac0565b611547676765c793fa10079d601b1b6108e76108de601c5486613a8c565b81601b5551908152a180f35b50503461058e576020908160031936011261058a57611570613330565b9061157d6104ee336133ef565b60008051602061505883398151915292838552600581526115a36001838720015461342c565b838552600581528185206001600160a01b039093168086529281528185205460ff16156115ce578480f35b8385526005815281852083865290528320805460ff1916600117905533916000805160206150188339815191528480a4388080808480f35b833461072e578060031936011261072e57610d43336139d5565b50503461058e576020908160031936011261058a5761163d613330565b9061164a6104ee336133ef565b60008051602061503883398151915292838552600581526115a36001838720015461342c565b83833461058e576116cb61168336613387565b6001600160a01b039283168652600e602090815285872054865163277166bf60e11b815293851698840198895288820192909252969193879385939216918391829160400190565b03915afa9283156111005780936110ce57505051908152f35b90503461058a578160031936011261058a578160209360ff9261170561334b565b90358252600586528282206001600160a01b039091168252855220549151911615158152f35b50503461058e578160031936011261058e5760ff8183806020955260058552818120338252855220541690519015158152f35b50503461058e578160031936011261058e57600b5490516001600160a01b039091168152602090f35b50503461058e578160031936011261058e5760209051676765c793fa10079d601b1b8152f35b90503461058a578260031936011261058a577ffcb9fcbfa83b897fb2d5cf4b58962164105c1e71489a37ef3ae0db3fdce576f6835260056020528183203384526020526117ff60ff8385205416613b37565b601f549060ff821661184757504360125560ff1916600117601f55513381527f62e78cea01bee320cd4e420270b5ea74000d11b0c9f74754ebdbfc544b05a25890602090a180f35b606490602084519162461bcd60e51b8352820152601060248201526f14185d5cd8589b194e881c185d5cd95960821b6044820152fd5b50503461058e578160031936011261058e5760209081549051908152f35b90503461058a576020928360031936011261072e576118b8613330565b6006546001600160a01b039190821633036119a857811692838352600e865285828685205416156118ec575b855160018152f35b600c548651631dd70c0360e21b81529283918290879087165af190811561199e578692849287927f124cac1e701d08d642237ad795ddd275670e12f2cd956a26709721c68084c2b29691611971575b50868452600f855243838520551691600e845220816001600160601b0360a01b8254161790558451908152a238808080856118e4565b6119919150853d8711611997575b61198981836137c5565b810190613b18565b3861193b565b503d61197f565b85513d85823e3d90fd5b845162461bcd60e51b8152808501879052601060248201526f6e6f74206f6e6c79526567697374727960801b6044820152606490fd5b50503461058e578160031936011261058e5760065490516001600160a01b039091168152602090f35b50503461058e57602036600319011261058e5760209181906001600160a01b03611a2f613330565b1681526014845220549051908152f35b90503461058a578160031936011261058a57611a59613330565b611a6161334b565b6000805160206150788339815191528552600560205283852033865260205260ff848620541615611b09576001600160a01b03918216808652600e6020528486205486939290611ab49084161515613c02565b813b15610dfa5783602492875196879586946306394c9b60e01b865216908401525af18015611afd5760209350611aee575b505160018152f35b611af79061379b565b38611ae6565b505051903d90823e3d90fd5b835162461bcd60e51b8152602081850152602760248201527f41757468436f6e74726f6c3a2043616c6c6572206973206e6f74206120636861604482015266363632b733b2b960c91b6064820152608490fd5b50503461058e578160031936011261058e57338252600e60209081529181902054611b91906001600160a01b03161515613c02565b611b99613d03565b90519015158152f35b9190503461058a57602080600319360112610dfa57610ce3613330565b833461072e578060031936011261072e57611bdc6104ee336133ef565b610d43336137e7565b50503461058e576020908160031936011261058a57611c02613330565b91611c0f6104ee336133ef565b83805260058152611c256001838620015461342c565b838052600581528184206001600160a01b039093168085529281528184205460ff1615611c50578380f35b8380526005815281842083855290528220805460ff191660011790553390826000805160206150188339815191528180a43880808380f35b50503461058e57602036600319011261058e5760ff81602093611ca9613330565b6000805160206150588339815191528252600586528282206001600160a01b039091168252855220549151911615158152f35b9190503461058a578060031936011261058a5782611cf8613330565b611d0061334b565b8280526005602052838320338452602052611d2060ff8585205416613ac0565b6001600160a01b0391821690813b15610dfa57836024928651978895869463f2fde38b60e01b865216908401525af19081156112925750611289575080f35b50503461058e578160031936011261058e5760075490516001600160a01b039091168152602090f35b833461072e57602036600319011261072e57610d43611da5613330565b611db16104ee336133ef565b6138d6565b50503461058e57602036600319011261058e57611dd660ff6112f2613330565b60018060a01b03166001600160601b0360a01b600954161760095580f35b50503461058e57611b9960ff60209383611e2c611e10366133bc565b959193909480805260058a528181203382528a52205416613ac0565b614ea8565b50503461058e578160031936011261058e5760ff602092541690519015158152f35b50503461058e578160031936011261058e57602090601b549051908152f35b50503461058e578160031936011261058e576020906010549051908152f35b929150346112a05760203660031901126112a057611ead613330565b8380526005602052828420338552602052611ecd60ff8486205416613ac0565b6001600160a01b0316803b1561129b578391835180958193639865027560e01b83525af19081156112925750611289575080f35b50503461058e578160031936011261058e5760209060ff601f541690519015158152f35b50503461058e57602036600319011261058e5760209160ff9082906001600160a01b03611f50613330565b1681526015855220541690519015158152f35b50503461058e578160031936011261058e57602090601c549051908152f35b50503461058e578160031936011261058e576020908154907fac3d68540f9902349c72a28dc187ad15b504d68182767a2b00a3db86880507ba838251848152a1611fcb82613bdb565b835551908152f35b613361565b50503461058e57602036600319011261058e5760209160ff9082906001600160a01b03612003613330565b1681526002855220541690519015158152f35b50503461058e578160031936011261058e57602090516000805160206150788339815191528152f35b90503461058a57602036600319011261058a573563ffffffff60e01b811680910361058a57825260036020908152918190205490516001600160a01b039091168152f35b9190503461058a578060031936011261058a5761209e613330565b6006548251630d42d49760e01b81526020959490928592602480359392916001600160a01b03919082168a888681845afa9788156108055787986121ef575b509695949392919085975b8789106120f8578b8b8b51908152f35b909192939495969799895163b7ffb17960e01b81528b878201528c818581865afa90811561078857888c8f928a89838f82612170998f9683916121d2575b50168152600e885220541692519586948593849363277166bf60e11b8552840160209093929193604081019460018060a01b031681520152565b03915afa9081156107885789916121a3575b506121909061219692613a8c565b9a613bdb565b97969594939291906120e8565b90508c81813d83116121cb575b6121ba81836137c5565b8101031261077d5751612196612182565b503d6121b0565b6121e991508a3d8c116119975761198981836137c5565b38612136565b9097508a81813d8311612217575b61220781836137c5565b810103126107fa575196386120dd565b503d6121fd565b50503461058e57602036600319011261058e576020916001600160a01b0390829082612248613330565b168152600e85522054169051908152f35b9050823461072e575061226b36613387565b5050600a54336001600160a01b03918216149150811561230c575b50156122b05760208260ff601f5416156122a2575b5160018152f35b6122aa6147db565b5061229b565b6020608492519162461bcd60e51b8352820152603160248201527f536569674d616e616765723a206f6e6c7920544f4e206f722057544f4e206361604482015270371031b0b6361037b72a3930b739b332b960791b6064820152fd5b9050600b5416331483612286565b50503461058e576020906106fc61233036613387565b919050614422565b90503461058a5760e036600319011261058a57612353613330565b9061235c61334b565b6001600160a01b039290604435848116908190036107fa5760643591858316809303610b2f5760a4359386851680950361077d57600a549087821615806124bb575b156124825792878096938b96936020966001600160601b0360a01b9b8c9116911617600a551688600b541617600b558760065416176006558660075416176007556084356010558086600c541617600c5584875180948193631dd70c0360e21b83525af190811561247857869161245a575b501692831561242c575050600d541617600d5560c43560115580f35b906020606492519162461bcd60e51b835282015260086024820152671e995c9bc81d1bdd60c21b6044820152fd5b612472915060203d81116119975761198981836137c5565b38612410565b85513d88823e3d90fd5b885162461bcd60e51b81526020818901526013602482015272185b1c9958591e481a5b9a5d1a585b1a5e9959606a1b6044820152606490fd5b506011541561239e565b83833461058e576020928360031936011261058a576124e2613330565b6006548351630d42d49760e01b815291929185916001600160a01b0390811688838681845afa928315612632578493612603575b509080849395949616915b8587106125315789898951908152f35b90919293949597875163b7ffb17960e01b815289878201526024908b818381875afa908115610b255790859188916125e6575b50168652600e8b528a848a882054168a51928380926370a0823160e01b8252898c8301525afa908115610bb65786916125b7575b506125a6906125ac92613a8c565b98613bdb565b959493929190612521565b90508a81813d83116125df575b6125ce81836137c5565b8101031261083757516125ac612598565b503d6125c4565b6125fd91508d803d106119975761198981836137c5565b8d612564565b9092508881813d831161262b575b61261b81836137c5565b81010312610dfa57519189612516565b503d612611565b87513d86823e3d90fd5b9050823461072e5761264d366133bc565b60065490949193336001600160a01b0392831614919082156126c2575b50501561267f57602085611b99868686614ea8565b606490602086519162461bcd60e51b8352820152601a60248201527f6e6f74206f6e6c7952656769737472794f724f70657261746f720000000000006044820152fd5b875163570ca73560e01b81529192509060208185818887165afa91821561271257916126f4575b50163314868061266a565b61270c915060203d81116119975761198981836137c5565b876126e9565b8851903d90823e3d90fd5b929150346112a05760203660031901126112a057612739613330565b838052600560205282842033855260205261275960ff8486205416613ac0565b6001600160a01b0316803b1561129b578391835180958193636ef8d66d60e01b83525af19081156112925750611289575080f35b50503461058e57602036600319011261058e576127ad60ff6112f2613330565b60018060a01b03166001600160601b0360a01b600854161760085580f35b50503461058e578160031936011261058e5760095490516001600160a01b039091168152602090f35b82843461072e5761280436613387565b929160018060a01b039561281d87600754163314613c65565b86821696878552602097600e895261283b8289882054161515613c02565b6128458585614781565b61293f575b600d5488516340c10f1960e01b8082526001600160a01b03909616858201908152602081018a905290918b91839186169082908b90829060400103925af1801561080557918a96959493918893612922575b508252600e86528882205489519485526001600160a01b0390951692840192835260208301979097529195869316918391829060400103925af190811561291757506128ea57505160018152f35b61290990833d8511612910575b61290181836137c5565b810190613bea565b5082611ae6565b503d6128f7565b8351903d90823e3d90fd5b61293890883d8a116129105761290181836137c5565b508b61289c565b808652600e8952602489838a892054168a51928380926370a0823160e01b8252878b16898301525afa90811561080557908891889161298c575b5061298791610b7191613a8c565b61284a565b8092508b8092503d83116129b8575b6129a581836137c5565b810103126107fa57518790612987612979565b503d61299b565b90503461058a578260031936011261058a577ffcb9fcbfa83b897fb2d5cf4b58962164105c1e71489a37ef3ae0db3fdce576f683526005602052818320338452602052612a1160ff8385205416613b37565b601f549060ff821615612a5757504360135560ff1916601f55513381527f5db9ee0a495bf2e6ff9c91a7834c1ba4fdd244a5e8aa4e537bd38aeae4b073aa90602090a180f35b606490602084519162461bcd60e51b8352820152601460248201527314185d5cd8589b194e881b9bdd081c185d5cd95960621b6044820152fd5b50503461058e578160031936011261058e5760085490516001600160a01b039091168152602090f35b50503461058e576020908160031936011261058a57612ad7613330565b90612ae46104ee336133ef565b60008051602061507883398151915292838552600581526105196001838720015461342c565b929150346112a05760203660031901126112a057612b26613330565b8380526005602052828420338552602052612b4660ff8486205416613ac0565b6001600160a01b0316803b1561129b5783918351809581936338a80c5360e11b83525af19081156112925750611289575080f35b50503461058e578160031936011261058e57602090517ffcb9fcbfa83b897fb2d5cf4b58962164105c1e71489a37ef3ae0db3fdce576f68152f35b8391503461058e578260031936011261058e57612bd061334b565b90336001600160a01b03831603612bec5790610d439135613a32565b608490602085519162461bcd60e51b8352820152602f60248201527f416363657373436f6e74726f6c3a2063616e206f6e6c792072656e6f756e636560448201526e103937b632b9903337b91039b2b63360891b6064820152fd5b9190503461058a578060031936011261058a57612c62613330565b908360249384359467ffffffffffffffff91828711610dfa5736602388011215610dfa5786810135928311610dfa576005368385831b8a010111610b125784809894985280602052858520338652602052612cc260ff8787205416613ac0565b6001600160a01b0396871693855b898110612cdb578680f35b8481841b83010135898116809103610b2f57803b15610b2f578851634c1d96ab60e11b81528581018890528881888183865af18015612da757612db1575b50803b15610b2f578851639865027560e01b81528881878183865af18015612da757612d98575b50803b15610b2f57878091878b518094819363f2fde38b60e01b83528c8b8401525af18015612d8e5790612d7a9291612d7f575b50613bdb565b612cd0565b612d889061379b565b38612d74565b89513d8a823e3d90fd5b612da19061379b565b38612d40565b8a513d8b823e3d90fd5b612dba9061379b565b38612d19565b50503461058e578160031936011261058e576020906012549051908152f35b833461072e57602036600319011261072e57610d43612dfc613330565b612e086104ee336133ef565b6139d5565b90503461058a578160031936011261058a573590612e2961334b565b908284526005602052612e416001828620015461342c565b828452600560209081528185206001600160a01b039093168086529290528084205460ff1615612e6f578380f35b82845260056020528084208285526020528320600160ff1982541617905533916000805160206150188339815191528480a43880808380f35b50503461058e57602036600319011261058e576020906106fc612ec9613330565b61421b565b9190503461058a57602036600319011261058a5760ff612f0291848052600560205280852033865260205284205416613ac0565b3560165580f35b833461072e578060031936011261072e57610d4333613978565b9190503461058a578060031936011261058a576020612f9e92612f44613330565b858052600583528386203387528352612f6260ff8588205416613ac0565b600d5484516340c10f1960e01b81526001600160a01b039283169381019384526024356020850152958693919092169183918891839160400190565b03925af19081156112925750612fb2575080f35b612fc99060203d81116129105761290181836137c5565b5080f35b833461072e578060031936011261072e57610d43336138d6565b50503461058e578160031936011261058e57602090601d549051908152f35b50503461058e57602036600319011261058e5760ff81602093613027613330565b818052600586528282206001600160a01b039091168252855220549151911615158152f35b90503461058a57602036600319011261058a5781602093600192358152600585522001549051908152f35b90503461058a576020928360031936011261072e5780846001600160a01b0361309e613330565b1684865180948193633b253c2b60e11b83525af19182156107385791613107575b50156130cd57505160018152f35b82606492519162461bcd60e51b835282015260166024820152756661696c20757064617465536569676e696f7261676560501b6044820152fd5b61311e9150843d86116129105761290181836137c5565b386130bf565b50503461058e578160031936011261058e576020906013549051908152f35b833461072e57602036600319011261072e57610d43613160613330565b61316c6104ee336133ef565b6137e7565b90503461058a5760209182600319360112610dfa5761318e613330565b91613198336133ef565b8015613204575b156131cb575060008051602061507883398151915292838552600581526115a36001838720015461342c565b83606492519162461bcd60e51b835282015260156024820152743737ba1037b7363ca6b4b73a32b927b920b236b4b760591b6044820152fd5b50600080516020615038833981519152855260058452818520338652845260ff828620541661319f565b90503461058a57602036600319011261058a577f1140c1f14579543e61b599f8f43d0112d66ec1462431e56c97c27b47446a38ac91602091359084805260058352808520338652835261328660ff8287205416613ac0565b6132a4676765c793fa10079d601b1b6108e76108de85601b54613a8c565b81601c5551908152a180f35b84918434610dfa576020366003190112610dfa5781359063ffffffff60e01b8216809203610b1257602094637965db0b60e01b83149384156132f7575b5050505015158152f35b6301ffc9a760e01b841494509192909190841561331c575b50505050838080806132ed565b60ff9450825285522054168380808061330f565b600435906001600160a01b038216820361334657565b600080fd5b602435906001600160a01b038216820361334657565b34613346576000366003190112613346576020604051676765c793fa10079d601b1b8152f35b6060906003190112613346576001600160a01b0390600435828116810361334657916024359081168103613346579060443590565b6060906003190112613346576004356001600160a01b038116810361334657906024359060443580151581036133465790565b6001600160a01b031660009081527f05b8ccbb9d4d8fb16ea74ce3c29a41f1b461fbdaff4714a0d9a8eb05499746bc602052604090205460ff1690565b60009080825260209060058252604090818420338552835260ff8285205416156134565750505050565b81519367ffffffffffffffff336060870182811188821017613764578552602a87528587019385368637875115613750576030855387519160019283101561373c57607860218a015360295b8381116136d25750613690579085519260808401908482109082111761367c57865260428352868301936060368637835115613668576030855383518210156136685790607860218501536041915b8183116135fa575050506135b85792613586604861357797946135aa946044989785519a8b9361354e8b86019a7f416363657373436f6e74726f6c3a206163636f756e74200000000000000000008c525180926037880190613778565b8401917001034b99036b4b9b9b4b733903937b6329607d1b603784015251809386840190613778565b010360288101895201876137c5565b5194859362461bcd60e51b8552600485015251809281602486015285850190613778565b601f01601f19168101030190fd5b60648585519062461bcd60e51b825280600483015260248201527f537472696e67733a20686578206c656e67746820696e73756666696369656e746044820152fd5b909192600f81166010811015613654576f181899199a1a9b1b9c1cb0b131b232b360811b901a61362a8587613a99565b5360041c928015613640576000190191906134f1565b634e487b7160e01b82526011600452602482fd5b634e487b7160e01b83526032600452602483fd5b634e487b7160e01b81526032600452602490fd5b634e487b7160e01b85526041600452602485fd5b60648787519062461bcd60e51b825280600483015260248201527f537472696e67733a20686578206c656e67746820696e73756666696369656e746044820152fd5b90600f81166010811015613728576f181899199a1a9b1b9c1cb0b131b232b360811b901a613700838c613a99565b5360041c90801561371457600019016134a2565b634e487b7160e01b86526011600452602486fd5b634e487b7160e01b87526032600452602487fd5b634e487b7160e01b85526032600452602485fd5b634e487b7160e01b84526032600452602484fd5b634e487b7160e01b84526041600452602484fd5b60005b83811061378b5750506000910152565b818101518382015260200161377b565b67ffffffffffffffff81116137af57604052565b634e487b7160e01b600052604160045260246000fd5b90601f8019910116810190811067ffffffffffffffff8211176137af57604052565b6001600160a01b03163381036138795760008181527f05b8ccbb9d4d8fb16ea74ce3c29a41f1b461fbdaff4714a0d9a8eb05499746bc602052604081205490919060ff16613833575050565b8180526005602052604082208183526020526040822060ff19815416905533917ff6391f5c32d9c69d2a47ea670b442974b53935d1edc7fd64eb21e047a839171b8180a4565b60405162461bcd60e51b815260206004820152602f60248201527f416363657373436f6e74726f6c3a2063616e206f6e6c792072656e6f756e636560448201526e103937b632b9903337b91039b2b63360891b6064820152608490fd5b6001600160a01b03163381036138795760008181527fedec71783a10810e436f3392a073a61717130e573433fcc6591c3061a012f76760205260408120549091906000805160206150788339815191529060ff1661393357505050565b8083526005602052604083208284526020526040832060ff1981541690557ff6391f5c32d9c69d2a47ea670b442974b53935d1edc7fd64eb21e047a839171b339380a4565b6001600160a01b03163381036138795760008181527f02634a7c777b8129955fe1824eee49ef19dfa96f2f4cb63212492c3d84eb58e660205260408120549091906000805160206150588339815191529060ff1661393357505050565b6001600160a01b03163381036138795760008181527fca0a2f641ec05ca23127d994cf03ffc453db616acae0b86cb56bb95304d0685460205260408120549091906000805160206150388339815191529060ff1661393357505050565b906000918083526005602052604083209160018060a01b03169182845260205260ff60408420541661393357505050565b81810292918115918404141715613a7657565b634e487b7160e01b600052601160045260246000fd5b91908201809211613a7657565b908151811015613aaa570160200190565b634e487b7160e01b600052603260045260246000fd5b15613ac757565b60405162461bcd60e51b815260206004820152602360248201527f41757468436f6e74726f6c3a2043616c6c6572206973206e6f7420616e20616460448201526236b4b760e91b6064820152608490fd5b9081602091031261334657516001600160a01b03811681036133465790565b15613b3e57565b60405162461bcd60e51b815260206004820152602360248201527f41757468436f6e74726f6c3a2043616c6c6572206973206e6f7420612070617560448201526239b2b960e91b6064820152608490fd5b15613b9657565b60405162461bcd60e51b815260206004820152601960248201527f657863656564656420736569676e696f726167652072617465000000000000006044820152606490fd5b6000198114613a765760010190565b90816020910312613346575180151581036133465790565b15613c0957565b60405162461bcd60e51b815260206004820152602e60248201527f536569674d616e616765723a20636f696e61676520686173206e6f742062656560448201526d1b8819195c1b1bde5959081e595d60921b6064820152608490fd5b15613c6c57565b60405162461bcd60e51b81526020600482015260166024820152753737ba1037b7363ca232b837b9b4ba26b0b730b3b2b960511b6044820152606490fd5b15613cb157565b60405162461bcd60e51b815260206004820152601a60248201527f6d696e696d756d20616d6f756e742069732072657175697265640000000000006044820152606490fd5b91908203918211613a7657565b600060ff601f5416614215576011544311156141d057613d223361421b565b601a541161418b57338152600e60209081526040808320546001600160a01b039290831691613d4f6147db565b50338552600f825280852043905580516318160ddd60e01b81529360049280868581885afa958615614181578796614152575b5060248183600d54168551928380926370a0823160e01b8252338a8301525afa908115613f5a578891614125575b50808710156140f45786613dc391613cf6565b9183519463570ca73560e01b865282868281335afa9586156140ea5789966140cb575b503389526015835260ff858a20541696613e048789878c853361455c565b9790988751630a9ee07f60e31b815286818681875afa908115614085578c8e928d8a93859261408f575b5061067c610677613e4c9493676765c793fa10079d601b1b93614369565b60248b518094819363817e9d3160e01b83528a830152885af1801561408557889492889694928c92614068575b5081613f64575b5050600b546007548a516340c10f1960e01b81529088166001600160a01b031694810194855260208501959095529395869416928492508d915082906040015b03925af18015613f5a579160a0979593917f9f0aff7defc0f0b331d66bccf1955a699b40155565289317e38b9799ddf0944899979593613f3d575b508251967f521cc65179761533a7c8d7a973291dd7baebb99a67edf5ef78e9c2b61a533d95339180a233875286015284015260608301526080820152a1600190565b613f5390823d84116129105761290181836137c5565b5038613efb565b84513d8a823e3d90fd5b9395929450909215613ff8575050813b15613ff457865163079cc67960e41b81526001600160a01b039091168382019081526020810189905290918b9183919082908490829060400103925af18015613fea57613fcf575b5083613ec09284925b9093388981613e80565b613ec09284929a613fe0879361379b565b9a92509250613fbc565b86513d8c823e3d90fd5b8a80fd5b88516340c10f1960e01b81526001600160a01b0390931685840190815260208101919091529192909183919082908e90829060400103925af18015613fea579284928692613ec09561404b575b50613fc5565b61406190853d87116129105761290181836137c5565b5038614045565b61407e90883d8a116129105761290181836137c5565b5038613e79565b89513d8f823e3d90fd5b945050505081813d83116140c4575b6140a881836137c5565b810103126140c057518c9087908d908d61067c613e2e565b8c80fd5b503d61409e565b6140e3919650833d85116119975761198981836137c5565b9438613de6565b85513d8b823e3d90fd5b505050505050507f521cc65179761533a7c8d7a973291dd7baebb99a67edf5ef78e9c2b61a533d95339180a2600190565b90508181813d831161414b575b61413c81836137c5565b81010312610b2f575138613db0565b503d614132565b9080965081813d831161417a575b61416a81836137c5565b810103126107fa57519438613d82565b503d614160565b83513d89823e3d90fd5b60405162461bcd60e51b815260206004820152601d60248201527f6d696e696d756d416d6f756e7420697320696e73756666696369656e740000006044820152606490fd5b60405162461bcd60e51b815260206004820152601b60248201527f6c617374207365696720626c6f636b206973206e6f74207061737400000000006044820152606490fd5b50600190565b60405163570ca73560e01b8152906020908183600481335afa9283156142c0576000936142cc575b506001600160a01b039081166000908152600e83526040908190205490516370a0823160e01b81529382166004850152829184916024918391165afa9081156142c057600091614294575b50905090565b82813d83116142b9575b6142a881836137c5565b8101031261072e575051803861428e565b503d61429e565b6040513d6000823e3d90fd5b829193506142e690823d84116119975761198981836137c5565b9290614243565b81156142f7570490565b634e487b7160e01b600052601260045260246000fd5b906b019d971e4fe8401e74000000820191828111613a7657821061432d57565b60405162461bcd60e51b815260206004820152601460248201527364732d6d6174682d6164642d6f766572666c6f7760601b6044820152606490fd5b6000929180159182156143bc575b50501561438057565b60405162461bcd60e51b815260206004820152601460248201527364732d6d6174682d6d756c2d6f766572666c6f7760601b6044820152606490fd5b915092506143d46143cd8483613a63565b93846142ed565b143880614377565b90676765c793fa10079d601b1b9182810292818404811482151715613a76578304036143805761440f8160011c83613a8c565b91821061432d5761441f916142ed565b90565b60049060018060a01b03809116600090808252602092600e84528381604085205416604051968780926318160ddd60e01b82525afa948515614551578395614522575b508390600d5416916024604051809481936370a0823160e01b835260048301525afa9283156145175782936144e7575b505081831015806144cd575b6144c6575061067c61067761441f946106c385676765c793fa10079d601b1b95613cf6565b9250505090565b50670de0b6b3a76400006144e18385613cf6565b106144a1565b9080929350813d8311614510575b6144ff81836137c5565b8101031261058e5751903880614495565b503d6144f5565b6040513d84823e3d90fd5b9094508381813d831161454a575b61453a81836137c5565b8101031261058a57519383614465565b503d614530565b6040513d85823e3d90fd5b95939491959290926000809460018060a01b03809316865260206017815260409384882054804310159081614777575b50614733575b3388526014825284882054966145a8878d613a8c565b9a881561472357156146f3578b156146e45785516370a0823160e01b8152908216600482015292829184916024918391165afa9384156146db575086936146ab575b505081156146a2575061067761460661067798614628936143dc565b938493614622676765c793fa10079d601b1b9a8b968793614369565b04614369565b04858214958660001461466e5761464d94959682945b50156146515750905093613a8c565b9190565b6146616106776146689486614369565b0490613a8c565b93613a8c565b8281039681881161468e5761468861464d969798846143dc565b9461463e565b634e487b7160e01b85526011600452602485fd5b95965050505050565b9080929350813d83116146d4575b6146c381836137c5565b81010312610b1257519038806145ea565b503d6146b9565b513d88823e3d90fd5b50505050965050505050909190565b50505050505061464d93949550676765c793fa10079d601b1b925061471b9161067791614369565b048093613cf6565b5050505050505050509250909190565b601882528488205460148352858920556019825261476960ff868a20541660158452868a209060ff801983541691151516179055565b601782528785812055614592565b905015153861458c565b60405163570ca73560e01b81526001600160a01b03916020908290600490829086165afa80156142c05782916000916147bd575b501691161490565b6147d5915060203d81116119975761198981836137c5565b386147b5565b600060115443111561441f57600d54604080516318160ddd60e01b8082526001600160a01b0393841694909360049390929091602091828187818b5afa908115614e61578291614e34575b5015614e2657825190868252828287818b5afa918215614e1a578192614deb575b5061485c614853614e6b565b60105490613a63565b9785600a541697855198818a52858a8a81845afa998a1561263257849a614dbc575b50600b5487516370a0823160e01b808252918a168b82015260249b88828e81875afa918215610b25578c88938f938c938692614d82575b50906148c091613cf6565b928c5194859287845283015281875afa918215610b255789928d928f928a92614d49575b50600195916148f291613cf6565b958c51958694859384528301525afa908115614cfe578591614d1a575b5061491991613cf6565b633b9aca0090818102918183041490151715614d0857865182815286818b81875afa908115614cfe578591614ccf575b5061495391613a8c565b865191825285828a81865afa9182156126325790849392918c97969592614c93575b50906149b36106776149aa6149a36106779796958b61067c676765c793fa10079d601b1b9a8b988993614369565b809a613cf6565b601d5490614369565b04936149c385610eb38984613a8c565b436011558851630a9ee07f60e31b8152919087838d81875afa928315614c2b5788929187918795614c5c575b50610677614a01949561067c92614369565b8b8b858b51958694859363817e9d3160e01b85528401525af18015614c5257614c35575b50614a30858b613cf6565b968198829a826008541680614b4c575b505090859181600954168a81614ab8575b50505050505050601d54614aa1575b508251968752860152840152606083015260808201527f0264534168fa7304ade59fc89758924d2288c7dcfd242dd680b668c80449c28260a03392a2600190565b9550614aaf86601e54613a8c565b601e5538614a60565b614b0896614acd6106778893601c5490614369565b600b548d516340c10f1960e01b81526001600160a01b0390951695850195865291900460208501529196879492909216928492839160400190565b03925af1908115614b415750614b24575b80838180808a614a51565b614b3a90833d85116129105761290181836137c5565b5038614b19565b8651903d90823e3d90fd5b899b5087614b9e9187614b656106778f601b5490614369565b049d8e918888600b541692518096819582946340c10f1960e01b84528b840160209093929193604081019460018060a01b031681520152565b03925af18015614c2b57614c0e575b50826008541690813b15610b1257895163027aa37b60e01b81528381018d90529185918391829084905af18015614c04579087939291614bf1575b81929350614a40565b614bfd9094919461379b565b9238614be8565b89513d86823e3d90fd5b614c2490883d8a116129105761290181836137c5565b5038614bad565b8a513d87823e3d90fd5b614c4b90853d87116129105761290181836137c5565b5038614a25565b87513d84823e3d90fd5b92945092905081813d8311614c8c575b614c7681836137c5565b81010312610b12575191879186906106776149ef565b503d614c6c565b8680985081935091939495963d8311614cc8575b614cb181836137c5565b81010312610dfa57518a95949392916149b3614975565b503d614ca7565b90508681813d8311614cf7575b614ce681836137c5565b81010312610b125751614953614949565b503d614cdc565b88513d87823e3d90fd5b634e487b7160e01b8452601189528984fd5b90508681813d8311614d42575b614d3181836137c5565b81010312610b12575161491961490f565b503d614d27565b9350938092508391503d8311614d7b575b614d6481836137c5565b810103126107fa575188918c918e916148f26148e4565b503d614d5a565b94509450505081813d8311614db5575b614d9c81836137c5565b810103126107fa57888c6148c08f93948a9551916148b5565b503d614d92565b9099508581813d8311614de4575b614dd481836137c5565b81010312610dfa5751983861487e565b503d614dca565b9091508281813d8311614e13575b614e0381836137c5565b8101031261058e57519038614847565b503d614df9565b508351903d90823e3d90fd5b955050505050504360115590565b90508281813d8311614e5a575b614e4b81836137c5565b8101031261058e575138614826565b503d614e41565b84513d84823e3d90fd5b60ff601f541661334657601154614e828143613cf6565b90601354908110614ea45790614e9e61441f9260125490613cf6565b90613cf6565b5090565b9080158015614fec575b15614f75577f11841078e38c91feada06e1f8ded3697ab2dadc2583c52b14109b82ccd4f77d79160018060a01b031692600091848352602060148152604093848120549385601654928315600014614f3957614f2b935089815260148552858282205560158552209060ff801983541691151516179055565b8351928352820152a2600190565b614f46614f709443613a8c565b8a8252601786528282205560188552858282205560198552209060ff801983541691151516179055565b614f2b565b60a460405162461bcd60e51b815260206004820152604460248201527f536569674d616e616765723a20636f6d6d697373696f6e2072617465206d757360448201527f742062652030206f72206265747765656e20312052415920616e6420302e30316064820152632052415960e01b6084820152fd5b50806a084595161401484a00000011158015614eb25750676765c793fa10079d601b1b811115614eb256fe2f8788117e7eff1d82e926ec794901d17c78024a50270940304540a733656f0df0887ba65ee2024ea881d91b74c2450ef19e1557f03bed3ea9f16b037cbe2dc9523a704056dcd17bcf83bed8b68c59416dac1119be77755efe3bde0a64e46e0cbf02bad7114723a857a3af46cea17b778a3a951c96f183784d9a2448cc479ab6a164736f6c6343000813000a",
  "linkReferences": {},
  "deployedLinkReferences": {}
}