{
  "_format": "hh-sol-artifact-1",
  "contractName": "L2SeigManagerProxy",
  "sourceName": "contracts/L2/L2SeigManagerProxy.sol",
  "abi": [
    {
      "anonymous": false,
      "inputs": [
        {
          "indexed": true,
          "internalType": "bytes32",
          "name": "role",
          "type": "bytes32"
        },
        {
          "indexed": true,
          "internalType": "bytes32",
          "name": "previousAdminRole",
          "type": "bytes32"
        },
        {
          "indexed": true,
          "internalType": "bytes32",
          "name": "newAdminRole",
          "type": "bytes32"
        }
      ],
      "name": "RoleAdminChanged",
      "type": "event"
    },
    {
      "anonymous": false,
      "inputs": [
        {
          "indexed": true,
          "internalType": "bytes32",
          "name": "role",
          "type": "bytes32"
        },
        {
          "indexed": true,
          "internalType": "address",
          "name": "account",
          "type": "address"
        },
        {
          "indexed": true,
          "internalType": "address",
          "name": "sender",
          "type": "address"
        }
      ],
      "name": "RoleGranted",
      "type": "event"
    },
    {
      "anonymous": false,
      "inputs": [
        {
          "indexed": true,
          "internalType": "bytes32",
          "name": "role",
          "type": "bytes32"
        },
        {
          "indexed": true,
          "internalType": "address",
          "name": "account",
          "type": "address"
        },
        {
          "indexed": true,
          "internalType": "address",
          "name": "sender",
          "type": "address"
        }
      ],
      "name": "RoleRevoked",
      "type": "event"
    },
    {
      "anonymous": false,
      "inputs": [
        {
          "indexed": true,
          "internalType": "address",
          "name": "impl",
          "type": "address"
        },
        {
          "indexed": false,
          "internalType": "bool",
          "name": "alive",
          "type": "bool"
        }
      ],
      "name": "SetAliveImplementation",
      "type": "event"
    },
    {
      "anonymous": false,
      "inputs": [
        {
          "indexed": true,
          "internalType": "bytes4",
          "name": "selector",
          "type": "bytes4"
        },
        {
          "indexed": true,
          "internalType": "address",
          "name": "impl",
          "type": "address"
        }
      ],
      "name": "SetSelectorImplementation",
      "type": "event"
    },
    {
      "anonymous": false,
      "inputs": [
        {
          "indexed": true,
          "internalType": "address",
          "name": "implementation",
          "type": "address"
        }
      ],
      "name": "Upgraded",
      "type": "event"
    },
    {
      "stateMutability": "payable",
      "type": "fallback"
    },
    {
      "inputs": [],
      "name": "CHALLENGER_ROLE",
      "outputs": [
        {
          "internalType": "bytes32",
          "name": "",
          "type": "bytes32"
        }
      ],
      "stateMutability": "view",
      "type": "function"
    },
    {
      "inputs": [],
      "name": "DEFAULT_ADMIN_ROLE",
      "outputs": [
        {
          "internalType": "bytes32",
          "name": "",
          "type": "bytes32"
        }
      ],
      "stateMutability": "view",
      "type": "function"
    },
    {
      "inputs": [],
      "name": "DEFAULT_FACTOR",
      "outputs": [
        {
          "internalType": "uint256",
          "name": "",
          "type": "uint256"
        }
      ],
      "stateMutability": "view",
      "type": "function"
    },
    {
      "inputs": [],
      "name": "MINTER_ROLE",
      "outputs": [
        {
          "internalType": "bytes32",
          "name": "",
          "type": "bytes32"
        }
      ],
      "stateMutability": "view",
      "type": "function"
    },
    {
      "inputs": [],
      "name": "OPERATOR_ROLE",
      "outputs": [
        {
          "internalType": "bytes32",
          "name": "",
          "type": "bytes32"
        }
      ],
      "stateMutability": "view",
      "type": "function"
    },
    {
      "inputs": [],
      "name": "PAUSE_ROLE",
      "outputs": [
        {
          "internalType": "bytes32",
          "name": "",
          "type": "bytes32"
        }
      ],
      "stateMutability": "view",
      "type": "function"
    },
    {
      "inputs": [
        {
          "internalType": "address",
          "name": "account",
          "type": "address"
        }
      ],
      "name": "addAdmin",
      "outputs": [],
      "stateMutability": "nonpayable",
      "type": "function"
    },
    {
      "inputs": [
        {
          "internalType": "address",
          "name": "account",
          "type": "address"
        }
      ],
      "name": "addChallenger",
      "outputs": [],
      "stateMutability": "nonpayable",
      "type": "function"
    },
    {
      "inputs": [
        {
          "internalType": "address",
          "name": "account",
          "type": "address"
        }
      ],
      "name": "addMinter",
      "outputs": [],
      "stateMutability": "nonpayable",
      "type": "function"
    },
    {
      "inputs": [
        {
          "internalType": "address",
          "name": "account",
          "type": "address"
        }
      ],
      "name": "addOperator",
      "outputs": [],
      "stateMutability": "nonpayable",
      "type": "function"
    },
    {
      "inputs": [
        {
          "internalType": "address",
          "name": "",
          "type": "address"
        }
      ],
      "name": "aliveImplementation",
      "outputs": [
        {
          "internalType": "bool",
          "name": "",
          "type": "bool"
        }
      ],
      "stateMutability": "view",
      "type": "function"
    },
    {
      "inputs": [
        {
          "internalType": "bytes32",
          "name": "role",
          "type": "bytes32"
        }
      ],
      "name": "getRoleAdmin",
      "outputs": [
        {
          "internalType": "bytes32",
          "name": "",
          "type": "bytes32"
        }
      ],
      "stateMutability": "view",
      "type": "function"
    },
    {
      "inputs": [
        {
          "internalType": "bytes4",
          "name": "_selector",
          "type": "bytes4"
        }
      ],
      "name": "getSelectorImplementation2",
      "outputs": [
        {
          "internalType": "address",
          "name": "impl",
          "type": "address"
        }
      ],
      "stateMutability": "view",
      "type": "function"
    },
    {
      "inputs": [
        {
          "internalType": "bytes32",
          "name": "role",
          "type": "bytes32"
        },
        {
          "internalType": "address",
          "name": "account",
          "type": "address"
        }
      ],
      "name": "grantRole",
      "outputs": [],
      "stateMutability": "nonpayable",
      "type": "function"
    },
    {
      "inputs": [
        {
          "internalType": "bytes32",
          "name": "role",
          "type": "bytes32"
        },
        {
          "internalType": "address",
          "name": "account",
          "type": "address"
        }
      ],
      "name": "hasRole",
      "outputs": [
        {
          "internalType": "bool",
          "name": "",
          "type": "bool"
        }
      ],
      "stateMutability": "view",
      "type": "function"
    },
    {
      "inputs": [],
      "name": "implementation",
      "outputs": [
        {
          "internalType": "address",
          "name": "",
          "type": "address"
        }
      ],
      "stateMutability": "view",
      "type": "function"
    },
    {
      "inputs": [
        {
          "internalType": "uint256",
          "name": "_index",
          "type": "uint256"
        }
      ],
      "name": "implementation2",
      "outputs": [
        {
          "internalType": "address",
          "name": "",
          "type": "address"
        }
      ],
      "stateMutability": "view",
      "type": "function"
    },
    {
      "inputs": [
        {
          "internalType": "address",
          "name": "",
          "type": "address"
        },
        {
          "internalType": "uint256",
          "name": "",
          "type": "uint256"
        }
      ],
      "name": "index",
      "outputs": [
        {
          "internalType": "uint256",
          "name": "",
          "type": "uint256"
        }
      ],
      "stateMutability": "view",
      "type": "function"
    },
    {
      "inputs": [
        {
          "internalType": "address",
          "name": "account",
          "type": "address"
        }
      ],
      "name": "isAdmin",
      "outputs": [
        {
          "internalType": "bool",
          "name": "",
          "type": "bool"
        }
      ],
      "stateMutability": "view",
      "type": "function"
    },
    {
      "inputs": [
        {
          "internalType": "address",
          "name": "account",
          "type": "address"
        }
      ],
      "name": "isChallenger",
      "outputs": [
        {
          "internalType": "bool",
          "name": "",
          "type": "bool"
        }
      ],
      "stateMutability": "view",
      "type": "function"
    },
    {
      "inputs": [
        {
          "internalType": "address",
          "name": "account",
          "type": "address"
        }
      ],
      "name": "isMinter",
      "outputs": [
        {
          "internalType": "bool",
          "name": "",
          "type": "bool"
        }
      ],
      "stateMutability": "view",
      "type": "function"
    },
    {
      "inputs": [
        {
          "internalType": "address",
          "name": "account",
          "type": "address"
        }
      ],
      "name": "isOperator",
      "outputs": [
        {
          "internalType": "bool",
          "name": "",
          "type": "bool"
        }
      ],
      "stateMutability": "view",
      "type": "function"
    },
    {
      "inputs": [],
      "name": "isOwner",
      "outputs": [
        {
          "internalType": "bool",
          "name": "",
          "type": "bool"
        }
      ],
      "stateMutability": "view",
      "type": "function"
    },
    {
      "inputs": [],
      "name": "l1StakedTonInL2",
      "outputs": [
        {
          "internalType": "address",
          "name": "",
          "type": "address"
        }
      ],
      "stateMutability": "view",
      "type": "function"
    },
    {
      "inputs": [
        {
          "internalType": "uint256",
          "name": "",
          "type": "uint256"
        }
      ],
      "name": "l1layer2s",
      "outputs": [
        {
          "internalType": "address",
          "name": "",
          "type": "address"
        }
      ],
      "stateMutability": "view",
      "type": "function"
    },
    {
      "inputs": [],
      "name": "l2CrossDomainMessenger",
      "outputs": [
        {
          "internalType": "address",
          "name": "",
          "type": "address"
        }
      ],
      "stateMutability": "view",
      "type": "function"
    },
    {
      "inputs": [],
      "name": "lastSnapshotId",
      "outputs": [
        {
          "internalType": "uint256",
          "name": "",
          "type": "uint256"
        }
      ],
      "stateMutability": "view",
      "type": "function"
    },
    {
      "inputs": [
        {
          "internalType": "address",
          "name": "",
          "type": "address"
        },
        {
          "internalType": "uint256",
          "name": "",
          "type": "uint256"
        }
      ],
      "name": "layerIndexSnapshotIds",
      "outputs": [
        {
          "internalType": "uint256",
          "name": "",
          "type": "uint256"
        }
      ],
      "stateMutability": "view",
      "type": "function"
    },
    {
      "inputs": [
        {
          "internalType": "address",
          "name": "",
          "type": "address"
        },
        {
          "internalType": "uint256",
          "name": "",
          "type": "uint256"
        }
      ],
      "name": "layerTlswtonSnapshotIds",
      "outputs": [
        {
          "internalType": "uint256",
          "name": "",
          "type": "uint256"
        }
      ],
      "stateMutability": "view",
      "type": "function"
    },
    {
      "inputs": [],
      "name": "pauseProxy",
      "outputs": [
        {
          "internalType": "bool",
          "name": "",
          "type": "bool"
        }
      ],
      "stateMutability": "view",
      "type": "function"
    },
    {
      "inputs": [
        {
          "internalType": "uint256",
          "name": "",
          "type": "uint256"
        }
      ],
      "name": "proxyImplementation",
      "outputs": [
        {
          "internalType": "address",
          "name": "",
          "type": "address"
        }
      ],
      "stateMutability": "view",
      "type": "function"
    },
    {
      "inputs": [
        {
          "internalType": "address",
          "name": "account",
          "type": "address"
        }
      ],
      "name": "removeAdmin",
      "outputs": [],
      "stateMutability": "nonpayable",
      "type": "function"
    },
    {
      "inputs": [
        {
          "internalType": "address",
          "name": "account",
          "type": "address"
        }
      ],
      "name": "removeChallenger",
      "outputs": [],
      "stateMutability": "nonpayable",
      "type": "function"
    },
    {
      "inputs": [
        {
          "internalType": "address",
          "name": "account",
          "type": "address"
        }
      ],
      "name": "removeMinter",
      "outputs": [],
      "stateMutability": "nonpayable",
      "type": "function"
    },
    {
      "inputs": [
        {
          "internalType": "address",
          "name": "account",
          "type": "address"
        }
      ],
      "name": "removeOperator",
      "outputs": [],
      "stateMutability": "nonpayable",
      "type": "function"
    },
    {
      "inputs": [],
      "name": "renounceChallenger",
      "outputs": [],
      "stateMutability": "nonpayable",
      "type": "function"
    },
    {
      "inputs": [],
      "name": "renounceMinter",
      "outputs": [],
      "stateMutability": "nonpayable",
      "type": "function"
    },
    {
      "inputs": [],
      "name": "renounceOperator",
      "outputs": [],
      "stateMutability": "nonpayable",
      "type": "function"
    },
    {
      "inputs": [],
      "name": "renounceOwnership",
      "outputs": [],
      "stateMutability": "nonpayable",
      "type": "function"
    },
    {
      "inputs": [
        {
          "internalType": "bytes32",
          "name": "role",
          "type": "bytes32"
        },
        {
          "internalType": "address",
          "name": "account",
          "type": "address"
        }
      ],
      "name": "renounceRole",
      "outputs": [],
      "stateMutability": "nonpayable",
      "type": "function"
    },
    {
      "inputs": [
        {
          "internalType": "address",
          "name": "account",
          "type": "address"
        }
      ],
      "name": "revokeChallenger",
      "outputs": [],
      "stateMutability": "nonpayable",
      "type": "function"
    },
    {
      "inputs": [
        {
          "internalType": "address",
          "name": "account",
          "type": "address"
        }
      ],
      "name": "revokeMinter",
      "outputs": [],
      "stateMutability": "nonpayable",
      "type": "function"
    },
    {
      "inputs": [
        {
          "internalType": "address",
          "name": "account",
          "type": "address"
        }
      ],
      "name": "revokeOperator",
      "outputs": [],
      "stateMutability": "nonpayable",
      "type": "function"
    },
    {
      "inputs": [
        {
          "internalType": "bytes32",
          "name": "role",
          "type": "bytes32"
        },
        {
          "internalType": "address",
          "name": "account",
          "type": "address"
        }
      ],
      "name": "revokeRole",
      "outputs": [],
      "stateMutability": "nonpayable",
      "type": "function"
    },
    {
      "inputs": [
        {
          "internalType": "bytes4",
          "name": "",
          "type": "bytes4"
        }
      ],
      "name": "selectorImplementation",
      "outputs": [
        {
          "internalType": "address",
          "name": "",
          "type": "address"
        }
      ],
      "stateMutability": "view",
      "type": "function"
    },
    {
      "inputs": [
        {
          "internalType": "address",
          "name": "newImplementation",
          "type": "address"
        },
        {
          "internalType": "bool",
          "name": "_alive",
          "type": "bool"
        }
      ],
      "name": "setAliveImplementation2",
      "outputs": [],
      "stateMutability": "nonpayable",
      "type": "function"
    },
    {
      "inputs": [
        {
          "internalType": "address",
          "name": "newImplementation",
          "type": "address"
        },
        {
          "internalType": "uint256",
          "name": "_index",
          "type": "uint256"
        },
        {
          "internalType": "bool",
          "name": "_alive",
          "type": "bool"
        }
      ],
      "name": "setImplementation2",
      "outputs": [],
      "stateMutability": "nonpayable",
      "type": "function"
    },
    {
      "inputs": [
        {
          "internalType": "bool",
          "name": "_pause",
          "type": "bool"
        }
      ],
      "name": "setProxyPause",
      "outputs": [],
      "stateMutability": "nonpayable",
      "type": "function"
    },
    {
      "inputs": [
        {
          "internalType": "bytes4[]",
          "name": "_selectors",
          "type": "bytes4[]"
        },
        {
          "internalType": "address",
          "name": "_imp",
          "type": "address"
        }
      ],
      "name": "setSelectorImplementations2",
      "outputs": [],
      "stateMutability": "nonpayable",
      "type": "function"
    },
    {
      "inputs": [
        {
          "internalType": "address",
          "name": "",
          "type": "address"
        },
        {
          "internalType": "address",
          "name": "",
          "type": "address"
        },
        {
          "internalType": "uint256",
          "name": "",
          "type": "uint256"
        }
      ],
      "name": "stakedInfo",
      "outputs": [
        {
          "internalType": "uint256",
          "name": "deposit",
          "type": "uint256"
        },
        {
          "internalType": "uint256",
          "name": "lswton",
          "type": "uint256"
        }
      ],
      "stateMutability": "view",
      "type": "function"
    },
    {
      "inputs": [
        {
          "internalType": "address",
          "name": "",
          "type": "address"
        },
        {
          "internalType": "address",
          "name": "",
          "type": "address"
        },
        {
          "internalType": "uint256",
          "name": "",
          "type": "uint256"
        }
      ],
      "name": "stakedInfoSnapshotIds",
      "outputs": [
        {
          "internalType": "uint256",
          "name": "",
          "type": "uint256"
        }
      ],
      "stateMutability": "view",
      "type": "function"
    },
    {
      "inputs": [
        {
          "internalType": "bytes4",
          "name": "interfaceId",
          "type": "bytes4"
        }
      ],
      "name": "supportsInterface",
      "outputs": [
        {
          "internalType": "bool",
          "name": "",
          "type": "bool"
        }
      ],
      "stateMutability": "view",
      "type": "function"
    },
    {
      "inputs": [
        {
          "internalType": "address",
          "name": "",
          "type": "address"
        },
        {
          "internalType": "uint256",
          "name": "",
          "type": "uint256"
        }
      ],
      "name": "totalLswton",
      "outputs": [
        {
          "internalType": "uint256",
          "name": "",
          "type": "uint256"
        }
      ],
      "stateMutability": "view",
      "type": "function"
    },
    {
      "inputs": [
        {
          "internalType": "address",
          "name": "newAdmin",
          "type": "address"
        }
      ],
      "name": "transferAdmin",
      "outputs": [],
      "stateMutability": "nonpayable",
      "type": "function"
    },
    {
      "inputs": [
        {
          "internalType": "address",
          "name": "newAdmin",
          "type": "address"
        }
      ],
      "name": "transferOwnership",
      "outputs": [],
      "stateMutability": "nonpayable",
      "type": "function"
    },
    {
      "inputs": [
        {
          "internalType": "address",
          "name": "impl",
          "type": "address"
        }
      ],
      "name": "upgradeTo",
      "outputs": [],
      "stateMutability": "nonpayable",
      "type": "function"
    },
    {
      "stateMutability": "payable",
      "type": "receive"
    }
  ],
  "bytecode": "0x60806040523480156200001157600080fd5b506200001f600033620000a9565b6200003b600080516020620024818339815191526000620000b9565b620000687f523a704056dcd17bcf83bed8b68c59416dac1119be77755efe3bde0a64e46e0c6000620000b9565b620000a37fbf02bad7114723a857a3af46cea17b778a3a951c96f183784d9a2448cc479ab660008051602062002481833981519152620000b9565b620001a8565b620000b5828262000104565b5050565b600082815260056020526040808220600101805490849055905190918391839186917fbd79b86ffe0ab8e8776151514217cd7cacd52c909f66475c3af44e129f0b00ff9190a4505050565b60008281526005602090815260408083206001600160a01b038516845290915290205460ff16620000b55760008281526005602090815260408083206001600160a01b03851684529091529020805460ff19166001179055620001643390565b6001600160a01b0316816001600160a01b0316837f2f8788117e7eff1d82e926ec794901d17c78024a50270940304540a733656f0d60405160405180910390a45050565b6122c980620001b86000396000f3fe60806040526004361061036f5760003560e01c80637cd5f663116101c6578063a415d8dc116100f7578063d547741f11610095578063f5b541a61161006f578063f5b541a614610ba1578063fad8b32a14610bd5578063fbef005a14610bf5578063fe42e55e14610c15576103c1565b8063d547741f14610b41578063ef0d942414610b61578063f2fde38b14610b81576103c1565b8063b911135f116100d1578063b911135f14610a97578063c870ad8614610acd578063cfbd488514610aed578063d539139314610b0d576103c1565b8063a415d8dc14610a37578063aa271e1a14610a57578063ac8a584a14610a77576103c1565b80638f32d59b11610164578063986502751161013e57806398650275146109b55780639870d7fe146109ca5780639bc3db8e146109ea578063a217fddf14610a22576103c1565b80638f32d59b1461090b57806391d148541461094f578063983b2d5614610995576103c1565b80638b8f4a65116101a05780638b8f4a651461088b5780638bf91dc4146108ab5780638c09d4ee146108cb5780638d4fdb40146108eb576103c1565b80637cd5f663146107fb578063837afbc01461081b5780638970eb4014610831576103c1565b80634a5df50f116102a057806363a8fd891161023e57806370480275116102185780637048027514610786578063715018a6146107a657806375829def146107bb5780637cb00d25146107db576103c1565b806363a8fd891461072c5780636c578c1d146107465780636d70f7ae14610766576103c1565b8063550d01a31161027a578063550d01a31461065e57806359fc1a6e1461068e5780635c60da1b146106c65780635cc797d81461070c576103c1565b80634a5df50f146105d457806350d2a276146105f4578063530adbb41461062a576103c1565b80632f2ff15d1161030d57806336568abe116102e757806336568abe146105405780633659cfe614610560578063389ed267146105805780633c491173146105b4576103c1565b80632f2ff15d146104c85780633092afd5146104e857806334b0157a14610508576103c1565b8063248a9ca311610349578063248a9ca31461044057806324d7806c1461047e57806325e90db41461049e5780632ab6f8db146104b3576103c1565b806301ffc9a7146103cb5780630ceb6780146104005780631785f53c14610420576103c1565b366103c15760405162461bcd60e51b815260206004820152601460248201527f63616e6e6f74207265636569766520457468657200000000000000000000000060448201526064015b60405180910390fd5b6103c9610c35565b005b3480156103d757600080fd5b506103eb6103e6366004611ef2565b610cde565b60405190151581526020015b60405180910390f35b34801561040c57600080fd5b506103c961041b366004611f33565b610cef565b34801561042c57600080fd5b506103c961043b366004611f33565b610daa565b34801561044c57600080fd5b5061047061045b366004611f4e565b60009081526005602052604090206001015490565b6040519081526020016103f7565b34801561048a57600080fd5b506103eb610499366004611f33565b610dda565b3480156104aa57600080fd5b506103c9610e1a565b3480156104bf57600080fd5b506103c9610e46565b3480156104d457600080fd5b506103c96104e3366004611f67565b610e70565b3480156104f457600080fd5b506103c9610503366004611f33565b610e95565b34801561051457600080fd5b50610528610523366004611f4e565b610ee4565b6040516001600160a01b0390911681526020016103f7565b34801561054c57600080fd5b506103c961055b366004611f67565b610f0e565b34801561056c57600080fd5b506103c961057b366004611f33565b610f9a565b34801561058c57600080fd5b506104707ffcb9fcbfa83b897fb2d5cf4b58962164105c1e71489a37ef3ae0db3fdce576f681565b3480156105c057600080fd5b506103c96105cf366004611f33565b6110ca565b3480156105e057600080fd5b506103c96105ef366004611f93565b611119565b34801561060057600080fd5b5061052861060f366004611ef2565b6003602052600090815260409020546001600160a01b031681565b34801561063657600080fd5b506104707fbf02bad7114723a857a3af46cea17b778a3a951c96f183784d9a2448cc479ab681565b34801561066a57600080fd5b506103eb610679366004611f33565b60026020526000908152604090205460ff1681565b34801561069a57600080fd5b506104706106a9366004612017565b600a60209081526000928352604080842090915290825290205481565b3480156106d257600080fd5b506000805260016020527fa6eef7e35abe7026729641147f7915573c7e97b47efa546f5f6e3230263bcb49546001600160a01b0316610528565b34801561071857600080fd5b506103c9610727366004612051565b61139d565b34801561073857600080fd5b506000546103eb9060ff1681565b34801561075257600080fd5b506103c9610761366004611f33565b6113cc565b34801561077257600080fd5b506103eb610781366004611f33565b61141b565b34801561079257600080fd5b506103c96107a1366004611f33565b61145b565b3480156107b257600080fd5b506103c961148b565b3480156107c757600080fd5b506103c96107d6366004611f33565b6114bb565b3480156107e757600080fd5b506103c96107f636600461207b565b6115a4565b34801561080757600080fd5b506103c9610816366004612096565b6115dc565b34801561082757600080fd5b5061047060065481565b34801561083d57600080fd5b5061087661084c3660046120c9565b600e6020908152600093845260408085208252928452828420905282529020805460019091015482565b604080519283526020830191909152016103f7565b34801561089757600080fd5b506105286108a6366004611f4e565b61160c565b3480156108b757600080fd5b506104706b033b2e3c9fd0803ce800000081565b3480156108d757600080fd5b50600754610528906001600160a01b031681565b3480156108f757600080fd5b50610528610906366004611ef2565b611629565b34801561091757600080fd5b503360009081527f05b8ccbb9d4d8fb16ea74ce3c29a41f1b461fbdaff4714a0d9a8eb05499746bc602052604090205460ff166103eb565b34801561095b57600080fd5b506103eb61096a366004611f67565b60009182526005602090815260408084206001600160a01b0393909316845291905290205460ff1690565b3480156109a157600080fd5b506103c96109b0366004611f33565b611725565b3480156109c157600080fd5b506103c9611774565b3480156109d657600080fd5b506103c96109e5366004611f33565b61179e565b3480156109f657600080fd5b50610470610a05366004612017565b600c60209081526000928352604080842090915290825290205481565b348015610a2e57600080fd5b50610470600081565b348015610a4357600080fd5b506103eb610a52366004611f33565b6117ed565b348015610a6357600080fd5b506103eb610a72366004611f33565b61182d565b348015610a8357600080fd5b506103c9610a92366004611f33565b61186d565b348015610aa357600080fd5b50610528610ab2366004611f4e565b6001602052600090815260409020546001600160a01b031681565b348015610ad957600080fd5b50610470610ae8366004612017565b6118bc565b348015610af957600080fd5b506103c9610b08366004611f33565b6118ed565b348015610b1957600080fd5b506104707ff0887ba65ee2024ea881d91b74c2450ef19e1557f03bed3ea9f16b037cbe2dc981565b348015610b4d57600080fd5b506103c9610b5c366004611f67565b611938565b348015610b6d57600080fd5b50610470610b7c366004612017565b61195d565b348015610b8d57600080fd5b506103c9610b9c366004611f33565b611979565b348015610bad57600080fd5b506104707f523a704056dcd17bcf83bed8b68c59416dac1119be77755efe3bde0a64e46e0c81565b348015610be157600080fd5b506103c9610bf0366004611f33565b6119a7565b348015610c0157600080fd5b50600854610528906001600160a01b031681565b348015610c2157600080fd5b50610470610c303660046120c9565b6119f6565b6000610c4c6000356001600160e01b031916611629565b90506001600160a01b03811615801590610c69575060005460ff16155b610cb55760405162461bcd60e51b815260206004820152601d60248201527f50726f78793a20696d706c204f522070726f78792069732066616c736500000060448201526064016103b8565b3660008037600080366000845af43d6000803e808015610cd4573d6000f35b3d6000fd5b505050565b6000610ce982611a34565b92915050565b610cf833610dda565b80610d3157503360009081527fca0a2f641ec05ca23127d994cf03ffc453db616acae0b86cb56bb95304d06854602052604090205460ff165b610d7d5760405162461bcd60e51b815260206004820152601560248201527f6e6f74206f6e6c794d696e7465724f7241646d696e000000000000000000000060448201526064016103b8565b610da77fbf02bad7114723a857a3af46cea17b778a3a951c96f183784d9a2448cc479ab682610e70565b50565b610db333610dda565b610dcf5760405162461bcd60e51b81526004016103b890612105565b610da7600082610f0e565b6001600160a01b03811660009081527f05b8ccbb9d4d8fb16ea74ce3c29a41f1b461fbdaff4714a0d9a8eb05499746bc602052604081205460ff16610ce9565b610e447fbf02bad7114723a857a3af46cea17b778a3a951c96f183784d9a2448cc479ab633610f0e565b565b610e447f523a704056dcd17bcf83bed8b68c59416dac1119be77755efe3bde0a64e46e0c33610f0e565b600082815260056020526040902060010154610e8b81611a59565b610cd98383611a63565b610e9e33610dda565b610eba5760405162461bcd60e51b81526004016103b890612105565b610da77ff0887ba65ee2024ea881d91b74c2450ef19e1557f03bed3ea9f16b037cbe2dc982610f0e565b60108181548110610ef457600080fd5b6000918252602090912001546001600160a01b0316905081565b6001600160a01b0381163314610f8c5760405162461bcd60e51b815260206004820152602f60248201527f416363657373436f6e74726f6c3a2063616e206f6e6c792072656e6f756e636560448201527f20726f6c657320666f722073656c66000000000000000000000000000000000060648201526084016103b8565b610f968282611b05565b5050565b610fa333610dda565b610fbf5760405162461bcd60e51b81526004016103b890612105565b6001600160a01b0381166110155760405162461bcd60e51b815260206004820152600d60248201527f696e707574206973207a65726f0000000000000000000000000000000000000060448201526064016103b8565b6000805260016020527fa6eef7e35abe7026729641147f7915573c7e97b47efa546f5f6e3230263bcb49546001600160a01b038281169116036110865760405162461bcd60e51b815260206004820152600960248201526839b0b6b29030b2323960b91b60448201526064016103b8565b6110938160006001611b88565b6040516001600160a01b038216907fbc7cd75a20ee27fd9adebab32041f755214dbc6bffa90cc0225b39da2e5c2d3b90600090a250565b6110d333610dda565b6110ef5760405162461bcd60e51b81526004016103b890612105565b610da77fbf02bad7114723a857a3af46cea17b778a3a951c96f183784d9a2448cc479ab682611938565b61112233610dda565b61113e5760405162461bcd60e51b81526004016103b890612105565b8161118b5760405162461bcd60e51b815260206004820181905260248201527f50726f78793a205f73656c6563746f727327732073697a65206973207a65726f60448201526064016103b8565b6001600160a01b03811660009081526002602052604090205460ff166111f35760405162461bcd60e51b815260206004820152601860248201527f50726f78793a205f696d70206973206e6f7420616c697665000000000000000060448201526064016103b8565b60005b8281101561139757816001600160a01b03166003600086868581811061121e5761121e612148565b90506020020160208101906112339190611ef2565b6001600160e01b03191681526020810191909152604001600020546001600160a01b0316036112a45760405162461bcd60e51b815260206004820152601d60248201527f4c69717569646974795661756c7450726f78793a2073616d6520696d7000000060448201526064016103b8565b81600360008686858181106112bb576112bb612148565b90506020020160208101906112d09190611ef2565b6001600160e01b03191681526020810191909152604001600020805473ffffffffffffffffffffffffffffffffffffffff19166001600160a01b03928316179055821684848381811061132557611325612148565b905060200201602081019061133a9190611ef2565b7bffffffffffffffffffffffffffffffffffffffffffffffffffffffff19167f14ebc1c32aa68f4d766e89f3e546cee249f7df25183fc10ab1568d91c2ce9b7b60405160405180910390a38061138f81612174565b9150506111f6565b50505050565b6113a633610dda565b6113c25760405162461bcd60e51b81526004016103b890612105565b610f968282611c20565b6113d533610dda565b6113f15760405162461bcd60e51b81526004016103b890612105565b610da77fbf02bad7114723a857a3af46cea17b778a3a951c96f183784d9a2448cc479ab682610f0e565b6001600160a01b03811660009081527f02634a7c777b8129955fe1824eee49ef19dfa96f2f4cb63212492c3d84eb58e6602052604081205460ff16610ce9565b61146433610dda565b6114805760405162461bcd60e51b81526004016103b890612105565b610da7600082610e70565b61149433610dda565b6114b05760405162461bcd60e51b81526004016103b890612105565b610e44600033610f0e565b6114c433610dda565b6114e05760405162461bcd60e51b81526004016103b890612105565b6001600160a01b0381166115365760405162461bcd60e51b815260206004820152601860248201527f41636365737369626c653a207a65726f2061646472657373000000000000000060448201526064016103b8565b6001600160a01b038116330361158e5760405162461bcd60e51b815260206004820152601660248201527f41636365737369626c653a2073616d652061646d696e0000000000000000000060448201526064016103b8565b611599600082610e70565b610da7600033610f0e565b6115ad33610dda565b6115c95760405162461bcd60e51b81526004016103b890612105565b6000805460ff1916911515919091179055565b6115e533610dda565b6116015760405162461bcd60e51b81526004016103b890612105565b610cd9838383611b88565b6000818152600160205260408120546001600160a01b0316610ce9565b6001600160e01b031981166000908152600360205260408120546001600160a01b03166116895750506000805260016020527fa6eef7e35abe7026729641147f7915573c7e97b47efa546f5f6e3230263bcb49546001600160a01b031690565b6001600160e01b031982166000908152600360209081526040808320546001600160a01b03168352600290915290205460ff16156116e757506001600160e01b0319166000908152600360205260409020546001600160a01b031690565b50506000805260016020527fa6eef7e35abe7026729641147f7915573c7e97b47efa546f5f6e3230263bcb49546001600160a01b031690565b919050565b61172e33610dda565b61174a5760405162461bcd60e51b81526004016103b890612105565b610da77ff0887ba65ee2024ea881d91b74c2450ef19e1557f03bed3ea9f16b037cbe2dc982610e70565b610e447ff0887ba65ee2024ea881d91b74c2450ef19e1557f03bed3ea9f16b037cbe2dc933610f0e565b6117a733610dda565b6117c35760405162461bcd60e51b81526004016103b890612105565b610da77f523a704056dcd17bcf83bed8b68c59416dac1119be77755efe3bde0a64e46e0c82610e70565b6001600160a01b03811660009081527fedec71783a10810e436f3392a073a61717130e573433fcc6591c3061a012f767602052604081205460ff16610ce9565b6001600160a01b03811660009081527fca0a2f641ec05ca23127d994cf03ffc453db616acae0b86cb56bb95304d06854602052604081205460ff16610ce9565b61187633610dda565b6118925760405162461bcd60e51b81526004016103b890612105565b610da77f523a704056dcd17bcf83bed8b68c59416dac1119be77755efe3bde0a64e46e0c82610f0e565b600960205281600052604060002081815481106118d857600080fd5b90600052602060002001600091509150505481565b6118f633610dda565b6119125760405162461bcd60e51b81526004016103b890612105565b610da77ff0887ba65ee2024ea881d91b74c2450ef19e1557f03bed3ea9f16b037cbe2dc9825b60008281526005602052604090206001015461195381611a59565b610cd98383611b05565b600b60205281600052604060002081815481106118d857600080fd5b61198233610dda565b61199e5760405162461bcd60e51b81526004016103b890612105565b610da7816114bb565b6119b033610dda565b6119cc5760405162461bcd60e51b81526004016103b890612105565b610da77f523a704056dcd17bcf83bed8b68c59416dac1119be77755efe3bde0a64e46e0c82611938565b600d6020528260005260406000206020528160005260406000208181548110611a1e57600080fd5b9060005260206000200160009250925050505481565b60006001600160e01b03198216637965db0b60e01b1480610ce95750610ce982611c7f565b610da78133611cbb565b60008281526005602090815260408083206001600160a01b038516845290915290205460ff16610f965760008281526005602090815260408083206001600160a01b03851684529091529020805460ff19166001179055611ac13390565b6001600160a01b0316816001600160a01b0316837f2f8788117e7eff1d82e926ec794901d17c78024a50270940304540a733656f0d60405160405180910390a45050565b60008281526005602090815260408083206001600160a01b038516845290915290205460ff1615610f965760008281526005602090815260408083206001600160a01b0385168085529252808320805460ff1916905551339285917ff6391f5c32d9c69d2a47ea670b442974b53935d1edc7fd64eb21e047a839171b9190a45050565b6001600160a01b0383163b611bdf5760405162461bcd60e51b815260206004820152601b60248201527f50726f78793a206e6f7420636f6e74726163742061646472657373000000000060448201526064016103b8565b8015611c1a576000828152600160205260409020805473ffffffffffffffffffffffffffffffffffffffff19166001600160a01b0385161790555b610cd983825b6001600160a01b038216600081815260026020908152604091829020805460ff191685151590811790915591519182527f72558d9bfba4210f9ef095c782589484151f6d90f7a81bb3cb9b33efc695d324910160405180910390a25050565b60006301ffc9a760e01b6001600160e01b031983161480610ce95750506001600160e01b03191660009081526004602052604090205460ff1690565b60008281526005602090815260408083206001600160a01b038516845290915290205460ff16610f9657611cee81611d30565b611cf9836020611d42565b604051602001611d0a9291906121b1565b60408051601f198184030181529082905262461bcd60e51b82526103b891600401612232565b6060610ce96001600160a01b03831660145b60606000611d51836002612265565b611d5c90600261227c565b67ffffffffffffffff811115611d7457611d7461228f565b6040519080825280601f01601f191660200182016040528015611d9e576020820181803683370190505b509050600360fc1b81600081518110611db957611db9612148565b60200101906001600160f81b031916908160001a905350600f60fb1b81600181518110611de857611de8612148565b60200101906001600160f81b031916908160001a9053506000611e0c846002612265565b611e1790600161227c565b90505b6001811115611e9c577f303132333435363738396162636465660000000000000000000000000000000085600f1660108110611e5857611e58612148565b1a60f81b828281518110611e6e57611e6e612148565b60200101906001600160f81b031916908160001a90535060049490941c93611e95816122a5565b9050611e1a565b508315611eeb5760405162461bcd60e51b815260206004820181905260248201527f537472696e67733a20686578206c656e67746820696e73756666696369656e7460448201526064016103b8565b9392505050565b600060208284031215611f0457600080fd5b81356001600160e01b031981168114611eeb57600080fd5b80356001600160a01b038116811461172057600080fd5b600060208284031215611f4557600080fd5b611eeb82611f1c565b600060208284031215611f6057600080fd5b5035919050565b60008060408385031215611f7a57600080fd5b82359150611f8a60208401611f1c565b90509250929050565b600080600060408486031215611fa857600080fd5b833567ffffffffffffffff80821115611fc057600080fd5b818601915086601f830112611fd457600080fd5b813581811115611fe357600080fd5b8760208260051b8501011115611ff857600080fd5b60209283019550935061200e9186019050611f1c565b90509250925092565b6000806040838503121561202a57600080fd5b61203383611f1c565b946020939093013593505050565b8035801515811461172057600080fd5b6000806040838503121561206457600080fd5b61206d83611f1c565b9150611f8a60208401612041565b60006020828403121561208d57600080fd5b611eeb82612041565b6000806000606084860312156120ab57600080fd5b6120b484611f1c565b92506020840135915061200e60408501612041565b6000806000606084860312156120de57600080fd5b6120e784611f1c565b92506120f560208501611f1c565b9150604084013590509250925092565b60208082526023908201527f41757468436f6e74726f6c3a2043616c6c6572206973206e6f7420616e20616460408201526236b4b760e91b606082015260800190565b634e487b7160e01b600052603260045260246000fd5b634e487b7160e01b600052601160045260246000fd5b6000600182016121865761218661215e565b5060010190565b60005b838110156121a8578181015183820152602001612190565b50506000910152565b7f416363657373436f6e74726f6c3a206163636f756e74200000000000000000008152600083516121e981601785016020880161218d565b7f206973206d697373696e6720726f6c6520000000000000000000000000000000601791840191820152835161222681602884016020880161218d565b01602801949350505050565b602081526000825180602084015261225181604085016020870161218d565b601f01601f19169190910160400192915050565b8082028115828204841417610ce957610ce961215e565b80820180821115610ce957610ce961215e565b634e487b7160e01b600052604160045260246000fd5b6000816122b4576122b461215e565b50600019019056fea164736f6c6343000813000af0887ba65ee2024ea881d91b74c2450ef19e1557f03bed3ea9f16b037cbe2dc9",
  "linkReferences": {},
  "deployedLinkReferences": {}
}