{
  "_format": "hh-sol-artifact-1",
  "contractName": "L2SeigManagerProxy",
  "sourceName": "contracts/L2/L2SeigManagerProxy.sol",
  "abi": [
    {
      "anonymous": false,
      "inputs": [
        {
          "indexed": true,
          "internalType": "bytes32",
          "name": "role",
          "type": "bytes32"
        },
        {
          "indexed": true,
          "internalType": "bytes32",
          "name": "previousAdminRole",
          "type": "bytes32"
        },
        {
          "indexed": true,
          "internalType": "bytes32",
          "name": "newAdminRole",
          "type": "bytes32"
        }
      ],
      "name": "RoleAdminChanged",
      "type": "event"
    },
    {
      "anonymous": false,
      "inputs": [
        {
          "indexed": true,
          "internalType": "bytes32",
          "name": "role",
          "type": "bytes32"
        },
        {
          "indexed": true,
          "internalType": "address",
          "name": "account",
          "type": "address"
        },
        {
          "indexed": true,
          "internalType": "address",
          "name": "sender",
          "type": "address"
        }
      ],
      "name": "RoleGranted",
      "type": "event"
    },
    {
      "anonymous": false,
      "inputs": [
        {
          "indexed": true,
          "internalType": "bytes32",
          "name": "role",
          "type": "bytes32"
        },
        {
          "indexed": true,
          "internalType": "address",
          "name": "account",
          "type": "address"
        },
        {
          "indexed": true,
          "internalType": "address",
          "name": "sender",
          "type": "address"
        }
      ],
      "name": "RoleRevoked",
      "type": "event"
    },
    {
      "anonymous": false,
      "inputs": [
        {
          "indexed": true,
          "internalType": "address",
          "name": "impl",
          "type": "address"
        },
        {
          "indexed": false,
          "internalType": "bool",
          "name": "alive",
          "type": "bool"
        }
      ],
      "name": "SetAliveImplementation",
      "type": "event"
    },
    {
      "anonymous": false,
      "inputs": [
        {
          "indexed": true,
          "internalType": "bytes4",
          "name": "selector",
          "type": "bytes4"
        },
        {
          "indexed": true,
          "internalType": "address",
          "name": "impl",
          "type": "address"
        }
      ],
      "name": "SetSelectorImplementation",
      "type": "event"
    },
    {
      "anonymous": false,
      "inputs": [
        {
          "indexed": true,
          "internalType": "address",
          "name": "implementation",
          "type": "address"
        }
      ],
      "name": "Upgraded",
      "type": "event"
    },
    {
      "stateMutability": "payable",
      "type": "fallback"
    },
    {
      "inputs": [],
      "name": "CHALLENGER_ROLE",
      "outputs": [
        {
          "internalType": "bytes32",
          "name": "",
          "type": "bytes32"
        }
      ],
      "stateMutability": "view",
      "type": "function"
    },
    {
      "inputs": [],
      "name": "DEFAULT_ADMIN_ROLE",
      "outputs": [
        {
          "internalType": "bytes32",
          "name": "",
          "type": "bytes32"
        }
      ],
      "stateMutability": "view",
      "type": "function"
    },
    {
      "inputs": [],
      "name": "DEFAULT_FACTOR",
      "outputs": [
        {
          "internalType": "uint256",
          "name": "",
          "type": "uint256"
        }
      ],
      "stateMutability": "view",
      "type": "function"
    },
    {
      "inputs": [],
      "name": "MINTER_ROLE",
      "outputs": [
        {
          "internalType": "bytes32",
          "name": "",
          "type": "bytes32"
        }
      ],
      "stateMutability": "view",
      "type": "function"
    },
    {
      "inputs": [],
      "name": "OPERATOR_ROLE",
      "outputs": [
        {
          "internalType": "bytes32",
          "name": "",
          "type": "bytes32"
        }
      ],
      "stateMutability": "view",
      "type": "function"
    },
    {
      "inputs": [],
      "name": "PAUSE_ROLE",
      "outputs": [
        {
          "internalType": "bytes32",
          "name": "",
          "type": "bytes32"
        }
      ],
      "stateMutability": "view",
      "type": "function"
    },
    {
      "inputs": [
        {
          "internalType": "address",
          "name": "account",
          "type": "address"
        }
      ],
      "name": "addAdmin",
      "outputs": [],
      "stateMutability": "nonpayable",
      "type": "function"
    },
    {
      "inputs": [
        {
          "internalType": "address",
          "name": "account",
          "type": "address"
        }
      ],
      "name": "addChallenger",
      "outputs": [],
      "stateMutability": "nonpayable",
      "type": "function"
    },
    {
      "inputs": [
        {
          "internalType": "address",
          "name": "account",
          "type": "address"
        }
      ],
      "name": "addMinter",
      "outputs": [],
      "stateMutability": "nonpayable",
      "type": "function"
    },
    {
      "inputs": [
        {
          "internalType": "address",
          "name": "account",
          "type": "address"
        }
      ],
      "name": "addOperator",
      "outputs": [],
      "stateMutability": "nonpayable",
      "type": "function"
    },
    {
      "inputs": [
        {
          "internalType": "address",
          "name": "",
          "type": "address"
        }
      ],
      "name": "aliveImplementation",
      "outputs": [
        {
          "internalType": "bool",
          "name": "",
          "type": "bool"
        }
      ],
      "stateMutability": "view",
      "type": "function"
    },
    {
      "inputs": [
        {
          "internalType": "bytes32",
          "name": "role",
          "type": "bytes32"
        }
      ],
      "name": "getRoleAdmin",
      "outputs": [
        {
          "internalType": "bytes32",
          "name": "",
          "type": "bytes32"
        }
      ],
      "stateMutability": "view",
      "type": "function"
    },
    {
      "inputs": [
        {
          "internalType": "bytes4",
          "name": "_selector",
          "type": "bytes4"
        }
      ],
      "name": "getSelectorImplementation2",
      "outputs": [
        {
          "internalType": "address",
          "name": "impl",
          "type": "address"
        }
      ],
      "stateMutability": "view",
      "type": "function"
    },
    {
      "inputs": [
        {
          "internalType": "bytes32",
          "name": "role",
          "type": "bytes32"
        },
        {
          "internalType": "address",
          "name": "account",
          "type": "address"
        }
      ],
      "name": "grantRole",
      "outputs": [],
      "stateMutability": "nonpayable",
      "type": "function"
    },
    {
      "inputs": [
        {
          "internalType": "bytes32",
          "name": "role",
          "type": "bytes32"
        },
        {
          "internalType": "address",
          "name": "account",
          "type": "address"
        }
      ],
      "name": "hasRole",
      "outputs": [
        {
          "internalType": "bool",
          "name": "",
          "type": "bool"
        }
      ],
      "stateMutability": "view",
      "type": "function"
    },
    {
      "inputs": [],
      "name": "implementation",
      "outputs": [
        {
          "internalType": "address",
          "name": "",
          "type": "address"
        }
      ],
      "stateMutability": "view",
      "type": "function"
    },
    {
      "inputs": [
        {
          "internalType": "uint256",
          "name": "_index",
          "type": "uint256"
        }
      ],
      "name": "implementation2",
      "outputs": [
        {
          "internalType": "address",
          "name": "",
          "type": "address"
        }
      ],
      "stateMutability": "view",
      "type": "function"
    },
    {
      "inputs": [
        {
          "internalType": "address",
          "name": "",
          "type": "address"
        }
      ],
      "name": "index",
      "outputs": [
        {
          "internalType": "uint256",
          "name": "",
          "type": "uint256"
        }
      ],
      "stateMutability": "view",
      "type": "function"
    },
    {
      "inputs": [
        {
          "internalType": "address",
          "name": "account",
          "type": "address"
        }
      ],
      "name": "isAdmin",
      "outputs": [
        {
          "internalType": "bool",
          "name": "",
          "type": "bool"
        }
      ],
      "stateMutability": "view",
      "type": "function"
    },
    {
      "inputs": [
        {
          "internalType": "address",
          "name": "account",
          "type": "address"
        }
      ],
      "name": "isChallenger",
      "outputs": [
        {
          "internalType": "bool",
          "name": "",
          "type": "bool"
        }
      ],
      "stateMutability": "view",
      "type": "function"
    },
    {
      "inputs": [
        {
          "internalType": "address",
          "name": "account",
          "type": "address"
        }
      ],
      "name": "isMinter",
      "outputs": [
        {
          "internalType": "bool",
          "name": "",
          "type": "bool"
        }
      ],
      "stateMutability": "view",
      "type": "function"
    },
    {
      "inputs": [
        {
          "internalType": "address",
          "name": "account",
          "type": "address"
        }
      ],
      "name": "isOperator",
      "outputs": [
        {
          "internalType": "bool",
          "name": "",
          "type": "bool"
        }
      ],
      "stateMutability": "view",
      "type": "function"
    },
    {
      "inputs": [],
      "name": "isOwner",
      "outputs": [
        {
          "internalType": "bool",
          "name": "",
          "type": "bool"
        }
      ],
      "stateMutability": "view",
      "type": "function"
    },
    {
      "inputs": [],
      "name": "l1StakedTonInL2",
      "outputs": [
        {
          "internalType": "address",
          "name": "",
          "type": "address"
        }
      ],
      "stateMutability": "view",
      "type": "function"
    },
    {
      "inputs": [],
      "name": "l2CrossDomainMessenger",
      "outputs": [
        {
          "internalType": "address",
          "name": "",
          "type": "address"
        }
      ],
      "stateMutability": "view",
      "type": "function"
    },
    {
      "inputs": [],
      "name": "lastSnapshotId",
      "outputs": [
        {
          "internalType": "uint256",
          "name": "",
          "type": "uint256"
        }
      ],
      "stateMutability": "view",
      "type": "function"
    },
    {
      "inputs": [],
      "name": "pauseProxy",
      "outputs": [
        {
          "internalType": "bool",
          "name": "",
          "type": "bool"
        }
      ],
      "stateMutability": "view",
      "type": "function"
    },
    {
      "inputs": [
        {
          "internalType": "uint256",
          "name": "",
          "type": "uint256"
        }
      ],
      "name": "proxyImplementation",
      "outputs": [
        {
          "internalType": "address",
          "name": "",
          "type": "address"
        }
      ],
      "stateMutability": "view",
      "type": "function"
    },
    {
      "inputs": [
        {
          "internalType": "address",
          "name": "account",
          "type": "address"
        }
      ],
      "name": "removeAdmin",
      "outputs": [],
      "stateMutability": "nonpayable",
      "type": "function"
    },
    {
      "inputs": [
        {
          "internalType": "address",
          "name": "account",
          "type": "address"
        }
      ],
      "name": "removeChallenger",
      "outputs": [],
      "stateMutability": "nonpayable",
      "type": "function"
    },
    {
      "inputs": [
        {
          "internalType": "address",
          "name": "account",
          "type": "address"
        }
      ],
      "name": "removeMinter",
      "outputs": [],
      "stateMutability": "nonpayable",
      "type": "function"
    },
    {
      "inputs": [
        {
          "internalType": "address",
          "name": "account",
          "type": "address"
        }
      ],
      "name": "removeOperator",
      "outputs": [],
      "stateMutability": "nonpayable",
      "type": "function"
    },
    {
      "inputs": [],
      "name": "renounceChallenger",
      "outputs": [],
      "stateMutability": "nonpayable",
      "type": "function"
    },
    {
      "inputs": [],
      "name": "renounceMinter",
      "outputs": [],
      "stateMutability": "nonpayable",
      "type": "function"
    },
    {
      "inputs": [],
      "name": "renounceOperator",
      "outputs": [],
      "stateMutability": "nonpayable",
      "type": "function"
    },
    {
      "inputs": [],
      "name": "renounceOwnership",
      "outputs": [],
      "stateMutability": "nonpayable",
      "type": "function"
    },
    {
      "inputs": [
        {
          "internalType": "bytes32",
          "name": "role",
          "type": "bytes32"
        },
        {
          "internalType": "address",
          "name": "account",
          "type": "address"
        }
      ],
      "name": "renounceRole",
      "outputs": [],
      "stateMutability": "nonpayable",
      "type": "function"
    },
    {
      "inputs": [
        {
          "internalType": "address",
          "name": "account",
          "type": "address"
        }
      ],
      "name": "revokeChallenger",
      "outputs": [],
      "stateMutability": "nonpayable",
      "type": "function"
    },
    {
      "inputs": [
        {
          "internalType": "address",
          "name": "account",
          "type": "address"
        }
      ],
      "name": "revokeMinter",
      "outputs": [],
      "stateMutability": "nonpayable",
      "type": "function"
    },
    {
      "inputs": [
        {
          "internalType": "address",
          "name": "account",
          "type": "address"
        }
      ],
      "name": "revokeOperator",
      "outputs": [],
      "stateMutability": "nonpayable",
      "type": "function"
    },
    {
      "inputs": [
        {
          "internalType": "bytes32",
          "name": "role",
          "type": "bytes32"
        },
        {
          "internalType": "address",
          "name": "account",
          "type": "address"
        }
      ],
      "name": "revokeRole",
      "outputs": [],
      "stateMutability": "nonpayable",
      "type": "function"
    },
    {
      "inputs": [
        {
          "internalType": "bytes4",
          "name": "",
          "type": "bytes4"
        }
      ],
      "name": "selectorImplementation",
      "outputs": [
        {
          "internalType": "address",
          "name": "",
          "type": "address"
        }
      ],
      "stateMutability": "view",
      "type": "function"
    },
    {
      "inputs": [
        {
          "internalType": "address",
          "name": "newImplementation",
          "type": "address"
        },
        {
          "internalType": "bool",
          "name": "_alive",
          "type": "bool"
        }
      ],
      "name": "setAliveImplementation2",
      "outputs": [],
      "stateMutability": "nonpayable",
      "type": "function"
    },
    {
      "inputs": [
        {
          "internalType": "address",
          "name": "newImplementation",
          "type": "address"
        },
        {
          "internalType": "uint256",
          "name": "_index",
          "type": "uint256"
        },
        {
          "internalType": "bool",
          "name": "_alive",
          "type": "bool"
        }
      ],
      "name": "setImplementation2",
      "outputs": [],
      "stateMutability": "nonpayable",
      "type": "function"
    },
    {
      "inputs": [
        {
          "internalType": "bool",
          "name": "_pause",
          "type": "bool"
        }
      ],
      "name": "setProxyPause",
      "outputs": [],
      "stateMutability": "nonpayable",
      "type": "function"
    },
    {
      "inputs": [
        {
          "internalType": "bytes4[]",
          "name": "_selectors",
          "type": "bytes4[]"
        },
        {
          "internalType": "address",
          "name": "_imp",
          "type": "address"
        }
      ],
      "name": "setSelectorImplementations2",
      "outputs": [],
      "stateMutability": "nonpayable",
      "type": "function"
    },
    {
      "inputs": [
        {
          "internalType": "address",
          "name": "",
          "type": "address"
        },
        {
          "internalType": "address",
          "name": "",
          "type": "address"
        }
      ],
      "name": "stakedInfo",
      "outputs": [
        {
          "internalType": "uint256",
          "name": "deposit",
          "type": "uint256"
        },
        {
          "internalType": "uint256",
          "name": "lswton",
          "type": "uint256"
        }
      ],
      "stateMutability": "view",
      "type": "function"
    },
    {
      "inputs": [
        {
          "internalType": "bytes4",
          "name": "interfaceId",
          "type": "bytes4"
        }
      ],
      "name": "supportsInterface",
      "outputs": [
        {
          "internalType": "bool",
          "name": "",
          "type": "bool"
        }
      ],
      "stateMutability": "view",
      "type": "function"
    },
    {
      "inputs": [
        {
          "internalType": "address",
          "name": "",
          "type": "address"
        }
      ],
      "name": "totalLswton",
      "outputs": [
        {
          "internalType": "uint256",
          "name": "",
          "type": "uint256"
        }
      ],
      "stateMutability": "view",
      "type": "function"
    },
    {
      "inputs": [
        {
          "internalType": "address",
          "name": "newAdmin",
          "type": "address"
        }
      ],
      "name": "transferAdmin",
      "outputs": [],
      "stateMutability": "nonpayable",
      "type": "function"
    },
    {
      "inputs": [
        {
          "internalType": "address",
          "name": "newAdmin",
          "type": "address"
        }
      ],
      "name": "transferOwnership",
      "outputs": [],
      "stateMutability": "nonpayable",
      "type": "function"
    },
    {
      "inputs": [
        {
          "internalType": "address",
          "name": "impl",
          "type": "address"
        }
      ],
      "name": "upgradeTo",
      "outputs": [],
      "stateMutability": "nonpayable",
      "type": "function"
    },
    {
      "stateMutability": "payable",
      "type": "receive"
    }
  ],
  "bytecode": "0x60806040523480156200001157600080fd5b506200001f600033620000a9565b6200003b600080516020620022c48339815191526000620000b9565b620000687f523a704056dcd17bcf83bed8b68c59416dac1119be77755efe3bde0a64e46e0c6000620000b9565b620000a37fbf02bad7114723a857a3af46cea17b778a3a951c96f183784d9a2448cc479ab6600080516020620022c4833981519152620000b9565b620001a8565b620000b5828262000104565b5050565b600082815260056020526040808220600101805490849055905190918391839186917fbd79b86ffe0ab8e8776151514217cd7cacd52c909f66475c3af44e129f0b00ff9190a4505050565b60008281526005602090815260408083206001600160a01b038516845290915290205460ff16620000b55760008281526005602090815260408083206001600160a01b03851684529091529020805460ff19166001179055620001643390565b6001600160a01b0316816001600160a01b0316837f2f8788117e7eff1d82e926ec794901d17c78024a50270940304540a733656f0d60405160405180910390a45050565b61210c80620001b86000396000f3fe6080604052600436106103435760003560e01c806375829def116101b0578063a217fddf116100ec578063d539139311610095578063f2fde38b1161006f578063f2fde38b14610ad9578063f5b541a614610af9578063fad8b32a14610b2d578063fbef005a14610b4d57610395565b8063d539139314610a31578063d547741f14610a65578063d7da2eec14610a8557610395565b8063ac8a584a116100c6578063ac8a584a146109bb578063b911135f146109db578063cfbd488514610a1157610395565b8063a217fddf14610966578063a415d8dc1461097b578063aa271e1a1461099b57610395565b80638c09d4ee1161015957806391d148541161013357806391d14854146108cb578063983b2d561461091157806398650275146109315780639870d7fe1461094657610395565b80638c09d4ee146108475780638d4fdb40146108675780638f32d59b1461088757610395565b8063837afbc01161018a578063837afbc0146107f15780638b8f4a65146108075780638bf91dc41461082757610395565b806375829def146107915780637cb00d25146107b15780637cd5f663146107d157610395565b8063389ed2671161027f5780635c60da1b116102285780636c578c1d116102025780636c578c1d1461071c5780636d70f7ae1461073c578063704802751461075c578063715018a61461077c57610395565b80635c60da1b1461069c5780635cc797d8146106e257806363a8fd891461070257610395565b806350d2a2761161025957806350d2a276146105ea578063530adbb414610638578063550d01a31461066c57610395565b8063389ed267146105765780633c491173146105aa5780634a5df50f146105ca57610395565b806324d7806c116102ec5780632f2ff15d116102c65780632f2ff15d146104f65780633092afd51461051657806336568abe146105365780633659cfe61461055657610395565b806324d7806c146104ac57806325e90db4146104cc5780632ab6f8db146104e157610395565b80631785f53c1161031d5780631785f53c1461042f57806318def8ef1461044f578063248a9ca31461047c57610395565b806301ffc9a71461039f5780630acdadf8146103d45780630ceb67801461040f57610395565b366103955760405162461bcd60e51b815260206004820152601460248201527f63616e6e6f74207265636569766520457468657200000000000000000000000060448201526064015b60405180910390fd5b61039d610b6d565b005b3480156103ab57600080fd5b506103bf6103ba366004611d71565b610c16565b60405190151581526020015b60405180910390f35b3480156103e057600080fd5b506104016103ef366004611db2565b60076020526000908152604090205481565b6040519081526020016103cb565b34801561041b57600080fd5b5061039d61042a366004611db2565b610c27565b34801561043b57600080fd5b5061039d61044a366004611db2565b610ce2565b34801561045b57600080fd5b5061040161046a366004611db2565b60066020526000908152604090205481565b34801561048857600080fd5b50610401610497366004611dcd565b60009081526005602052604090206001015490565b3480156104b857600080fd5b506103bf6104c7366004611db2565b610d12565b3480156104d857600080fd5b5061039d610d52565b3480156104ed57600080fd5b5061039d610d7e565b34801561050257600080fd5b5061039d610511366004611de6565b610da8565b34801561052257600080fd5b5061039d610531366004611db2565b610dcd565b34801561054257600080fd5b5061039d610551366004611de6565b610e18565b34801561056257600080fd5b5061039d610571366004611db2565b610ea4565b34801561058257600080fd5b506104017ffcb9fcbfa83b897fb2d5cf4b58962164105c1e71489a37ef3ae0db3fdce576f681565b3480156105b657600080fd5b5061039d6105c5366004611db2565b610fd4565b3480156105d657600080fd5b5061039d6105e5366004611e12565b611023565b3480156105f657600080fd5b50610620610605366004611d71565b6003602052600090815260409020546001600160a01b031681565b6040516001600160a01b0390911681526020016103cb565b34801561064457600080fd5b506104017fbf02bad7114723a857a3af46cea17b778a3a951c96f183784d9a2448cc479ab681565b34801561067857600080fd5b506103bf610687366004611db2565b60026020526000908152604090205460ff1681565b3480156106a857600080fd5b506000805260016020527fa6eef7e35abe7026729641147f7915573c7e97b47efa546f5f6e3230263bcb49546001600160a01b0316610620565b3480156106ee57600080fd5b5061039d6106fd366004611ea6565b6112a7565b34801561070e57600080fd5b506000546103bf9060ff1681565b34801561072857600080fd5b5061039d610737366004611db2565b6112d6565b34801561074857600080fd5b506103bf610757366004611db2565b611325565b34801561076857600080fd5b5061039d610777366004611db2565b611365565b34801561078857600080fd5b5061039d611395565b34801561079d57600080fd5b5061039d6107ac366004611db2565b6113c5565b3480156107bd57600080fd5b5061039d6107cc366004611ed0565b6114ae565b3480156107dd57600080fd5b5061039d6107ec366004611eeb565b6114e6565b3480156107fd57600080fd5b5061040160095481565b34801561081357600080fd5b50610620610822366004611dcd565b611516565b34801561083357600080fd5b506104016b033b2e3c9fd0803ce800000081565b34801561085357600080fd5b50600a54610620906001600160a01b031681565b34801561087357600080fd5b50610620610882366004611d71565b611533565b34801561089357600080fd5b503360009081527f05b8ccbb9d4d8fb16ea74ce3c29a41f1b461fbdaff4714a0d9a8eb05499746bc602052604090205460ff166103bf565b3480156108d757600080fd5b506103bf6108e6366004611de6565b60009182526005602090815260408084206001600160a01b0393909316845291905290205460ff1690565b34801561091d57600080fd5b5061039d61092c366004611db2565b61162f565b34801561093d57600080fd5b5061039d61167e565b34801561095257600080fd5b5061039d610961366004611db2565b6116a8565b34801561097257600080fd5b50610401600081565b34801561098757600080fd5b506103bf610996366004611db2565b6116f7565b3480156109a757600080fd5b506103bf6109b6366004611db2565b611737565b3480156109c757600080fd5b5061039d6109d6366004611db2565b611777565b3480156109e757600080fd5b506106206109f6366004611dcd565b6001602052600090815260409020546001600160a01b031681565b348015610a1d57600080fd5b5061039d610a2c366004611db2565b6117c6565b348015610a3d57600080fd5b506104017ff0887ba65ee2024ea881d91b74c2450ef19e1557f03bed3ea9f16b037cbe2dc981565b348015610a7157600080fd5b5061039d610a80366004611de6565b611811565b348015610a9157600080fd5b50610ac4610aa0366004611f1e565b60086020908152600092835260408084209091529082529020805460019091015482565b604080519283526020830191909152016103cb565b348015610ae557600080fd5b5061039d610af4366004611db2565b611836565b348015610b0557600080fd5b506104017f523a704056dcd17bcf83bed8b68c59416dac1119be77755efe3bde0a64e46e0c81565b348015610b3957600080fd5b5061039d610b48366004611db2565b611864565b348015610b5957600080fd5b50600b54610620906001600160a01b031681565b6000610b846000356001600160e01b031916611533565b90506001600160a01b03811615801590610ba1575060005460ff16155b610bed5760405162461bcd60e51b815260206004820152601d60248201527f50726f78793a20696d706c204f522070726f78792069732066616c7365000000604482015260640161038c565b3660008037600080366000845af43d6000803e808015610c0c573d6000f35b3d6000fd5b505050565b6000610c21826118b3565b92915050565b610c3033610d12565b80610c6957503360009081527fca0a2f641ec05ca23127d994cf03ffc453db616acae0b86cb56bb95304d06854602052604090205460ff165b610cb55760405162461bcd60e51b815260206004820152601560248201527f6e6f74206f6e6c794d696e7465724f7241646d696e0000000000000000000000604482015260640161038c565b610cdf7fbf02bad7114723a857a3af46cea17b778a3a951c96f183784d9a2448cc479ab682610da8565b50565b610ceb33610d12565b610d075760405162461bcd60e51b815260040161038c90611f48565b610cdf600082610e18565b6001600160a01b03811660009081527f05b8ccbb9d4d8fb16ea74ce3c29a41f1b461fbdaff4714a0d9a8eb05499746bc602052604081205460ff16610c21565b610d7c7fbf02bad7114723a857a3af46cea17b778a3a951c96f183784d9a2448cc479ab633610e18565b565b610d7c7f523a704056dcd17bcf83bed8b68c59416dac1119be77755efe3bde0a64e46e0c33610e18565b600082815260056020526040902060010154610dc3816118d8565b610c1183836118e2565b610dd633610d12565b610df25760405162461bcd60e51b815260040161038c90611f48565b610cdf7ff0887ba65ee2024ea881d91b74c2450ef19e1557f03bed3ea9f16b037cbe2dc9825b6001600160a01b0381163314610e965760405162461bcd60e51b815260206004820152602f60248201527f416363657373436f6e74726f6c3a2063616e206f6e6c792072656e6f756e636560448201527f20726f6c657320666f722073656c660000000000000000000000000000000000606482015260840161038c565b610ea08282611984565b5050565b610ead33610d12565b610ec95760405162461bcd60e51b815260040161038c90611f48565b6001600160a01b038116610f1f5760405162461bcd60e51b815260206004820152600d60248201527f696e707574206973207a65726f00000000000000000000000000000000000000604482015260640161038c565b6000805260016020527fa6eef7e35abe7026729641147f7915573c7e97b47efa546f5f6e3230263bcb49546001600160a01b03828116911603610f905760405162461bcd60e51b815260206004820152600960248201526839b0b6b29030b2323960b91b604482015260640161038c565b610f9d8160006001611a07565b6040516001600160a01b038216907fbc7cd75a20ee27fd9adebab32041f755214dbc6bffa90cc0225b39da2e5c2d3b90600090a250565b610fdd33610d12565b610ff95760405162461bcd60e51b815260040161038c90611f48565b610cdf7fbf02bad7114723a857a3af46cea17b778a3a951c96f183784d9a2448cc479ab682611811565b61102c33610d12565b6110485760405162461bcd60e51b815260040161038c90611f48565b816110955760405162461bcd60e51b815260206004820181905260248201527f50726f78793a205f73656c6563746f727327732073697a65206973207a65726f604482015260640161038c565b6001600160a01b03811660009081526002602052604090205460ff166110fd5760405162461bcd60e51b815260206004820152601860248201527f50726f78793a205f696d70206973206e6f7420616c6976650000000000000000604482015260640161038c565b60005b828110156112a157816001600160a01b03166003600086868581811061112857611128611f8b565b905060200201602081019061113d9190611d71565b6001600160e01b03191681526020810191909152604001600020546001600160a01b0316036111ae5760405162461bcd60e51b815260206004820152601d60248201527f4c69717569646974795661756c7450726f78793a2073616d6520696d70000000604482015260640161038c565b81600360008686858181106111c5576111c5611f8b565b90506020020160208101906111da9190611d71565b6001600160e01b03191681526020810191909152604001600020805473ffffffffffffffffffffffffffffffffffffffff19166001600160a01b03928316179055821684848381811061122f5761122f611f8b565b90506020020160208101906112449190611d71565b7bffffffffffffffffffffffffffffffffffffffffffffffffffffffff19167f14ebc1c32aa68f4d766e89f3e546cee249f7df25183fc10ab1568d91c2ce9b7b60405160405180910390a38061129981611fb7565b915050611100565b50505050565b6112b033610d12565b6112cc5760405162461bcd60e51b815260040161038c90611f48565b610ea08282611a9f565b6112df33610d12565b6112fb5760405162461bcd60e51b815260040161038c90611f48565b610cdf7fbf02bad7114723a857a3af46cea17b778a3a951c96f183784d9a2448cc479ab682610e18565b6001600160a01b03811660009081527f02634a7c777b8129955fe1824eee49ef19dfa96f2f4cb63212492c3d84eb58e6602052604081205460ff16610c21565b61136e33610d12565b61138a5760405162461bcd60e51b815260040161038c90611f48565b610cdf600082610da8565b61139e33610d12565b6113ba5760405162461bcd60e51b815260040161038c90611f48565b610d7c600033610e18565b6113ce33610d12565b6113ea5760405162461bcd60e51b815260040161038c90611f48565b6001600160a01b0381166114405760405162461bcd60e51b815260206004820152601860248201527f41636365737369626c653a207a65726f20616464726573730000000000000000604482015260640161038c565b6001600160a01b03811633036114985760405162461bcd60e51b815260206004820152601660248201527f41636365737369626c653a2073616d652061646d696e00000000000000000000604482015260640161038c565b6114a3600082610da8565b610cdf600033610e18565b6114b733610d12565b6114d35760405162461bcd60e51b815260040161038c90611f48565b6000805460ff1916911515919091179055565b6114ef33610d12565b61150b5760405162461bcd60e51b815260040161038c90611f48565b610c11838383611a07565b6000818152600160205260408120546001600160a01b0316610c21565b6001600160e01b031981166000908152600360205260408120546001600160a01b03166115935750506000805260016020527fa6eef7e35abe7026729641147f7915573c7e97b47efa546f5f6e3230263bcb49546001600160a01b031690565b6001600160e01b031982166000908152600360209081526040808320546001600160a01b03168352600290915290205460ff16156115f157506001600160e01b0319166000908152600360205260409020546001600160a01b031690565b50506000805260016020527fa6eef7e35abe7026729641147f7915573c7e97b47efa546f5f6e3230263bcb49546001600160a01b031690565b919050565b61163833610d12565b6116545760405162461bcd60e51b815260040161038c90611f48565b610cdf7ff0887ba65ee2024ea881d91b74c2450ef19e1557f03bed3ea9f16b037cbe2dc982610da8565b610d7c7ff0887ba65ee2024ea881d91b74c2450ef19e1557f03bed3ea9f16b037cbe2dc933610e18565b6116b133610d12565b6116cd5760405162461bcd60e51b815260040161038c90611f48565b610cdf7f523a704056dcd17bcf83bed8b68c59416dac1119be77755efe3bde0a64e46e0c82610da8565b6001600160a01b03811660009081527fedec71783a10810e436f3392a073a61717130e573433fcc6591c3061a012f767602052604081205460ff16610c21565b6001600160a01b03811660009081527fca0a2f641ec05ca23127d994cf03ffc453db616acae0b86cb56bb95304d06854602052604081205460ff16610c21565b61178033610d12565b61179c5760405162461bcd60e51b815260040161038c90611f48565b610cdf7f523a704056dcd17bcf83bed8b68c59416dac1119be77755efe3bde0a64e46e0c82610e18565b6117cf33610d12565b6117eb5760405162461bcd60e51b815260040161038c90611f48565b610cdf7ff0887ba65ee2024ea881d91b74c2450ef19e1557f03bed3ea9f16b037cbe2dc9825b60008281526005602052604090206001015461182c816118d8565b610c118383611984565b61183f33610d12565b61185b5760405162461bcd60e51b815260040161038c90611f48565b610cdf816113c5565b61186d33610d12565b6118895760405162461bcd60e51b815260040161038c90611f48565b610cdf7f523a704056dcd17bcf83bed8b68c59416dac1119be77755efe3bde0a64e46e0c82611811565b60006001600160e01b03198216637965db0b60e01b1480610c215750610c2182611afe565b610cdf8133611b3a565b60008281526005602090815260408083206001600160a01b038516845290915290205460ff16610ea05760008281526005602090815260408083206001600160a01b03851684529091529020805460ff191660011790556119403390565b6001600160a01b0316816001600160a01b0316837f2f8788117e7eff1d82e926ec794901d17c78024a50270940304540a733656f0d60405160405180910390a45050565b60008281526005602090815260408083206001600160a01b038516845290915290205460ff1615610ea05760008281526005602090815260408083206001600160a01b0385168085529252808320805460ff1916905551339285917ff6391f5c32d9c69d2a47ea670b442974b53935d1edc7fd64eb21e047a839171b9190a45050565b6001600160a01b0383163b611a5e5760405162461bcd60e51b815260206004820152601b60248201527f50726f78793a206e6f7420636f6e747261637420616464726573730000000000604482015260640161038c565b8015611a99576000828152600160205260409020805473ffffffffffffffffffffffffffffffffffffffff19166001600160a01b0385161790555b610c1183825b6001600160a01b038216600081815260026020908152604091829020805460ff191685151590811790915591519182527f72558d9bfba4210f9ef095c782589484151f6d90f7a81bb3cb9b33efc695d324910160405180910390a25050565b60006301ffc9a760e01b6001600160e01b031983161480610c215750506001600160e01b03191660009081526004602052604090205460ff1690565b60008281526005602090815260408083206001600160a01b038516845290915290205460ff16610ea057611b6d81611baf565b611b78836020611bc1565b604051602001611b89929190611ff4565b60408051601f198184030181529082905262461bcd60e51b825261038c91600401612075565b6060610c216001600160a01b03831660145b60606000611bd08360026120a8565b611bdb9060026120bf565b67ffffffffffffffff811115611bf357611bf36120d2565b6040519080825280601f01601f191660200182016040528015611c1d576020820181803683370190505b509050600360fc1b81600081518110611c3857611c38611f8b565b60200101906001600160f81b031916908160001a905350600f60fb1b81600181518110611c6757611c67611f8b565b60200101906001600160f81b031916908160001a9053506000611c8b8460026120a8565b611c969060016120bf565b90505b6001811115611d1b577f303132333435363738396162636465660000000000000000000000000000000085600f1660108110611cd757611cd7611f8b565b1a60f81b828281518110611ced57611ced611f8b565b60200101906001600160f81b031916908160001a90535060049490941c93611d14816120e8565b9050611c99565b508315611d6a5760405162461bcd60e51b815260206004820181905260248201527f537472696e67733a20686578206c656e67746820696e73756666696369656e74604482015260640161038c565b9392505050565b600060208284031215611d8357600080fd5b81356001600160e01b031981168114611d6a57600080fd5b80356001600160a01b038116811461162a57600080fd5b600060208284031215611dc457600080fd5b611d6a82611d9b565b600060208284031215611ddf57600080fd5b5035919050565b60008060408385031215611df957600080fd5b82359150611e0960208401611d9b565b90509250929050565b600080600060408486031215611e2757600080fd5b833567ffffffffffffffff80821115611e3f57600080fd5b818601915086601f830112611e5357600080fd5b813581811115611e6257600080fd5b8760208260051b8501011115611e7757600080fd5b602092830195509350611e8d9186019050611d9b565b90509250925092565b8035801515811461162a57600080fd5b60008060408385031215611eb957600080fd5b611ec283611d9b565b9150611e0960208401611e96565b600060208284031215611ee257600080fd5b611d6a82611e96565b600080600060608486031215611f0057600080fd5b611f0984611d9b565b925060208401359150611e8d60408501611e96565b60008060408385031215611f3157600080fd5b611f3a83611d9b565b9150611e0960208401611d9b565b60208082526023908201527f41757468436f6e74726f6c3a2043616c6c6572206973206e6f7420616e20616460408201526236b4b760e91b606082015260800190565b634e487b7160e01b600052603260045260246000fd5b634e487b7160e01b600052601160045260246000fd5b600060018201611fc957611fc9611fa1565b5060010190565b60005b83811015611feb578181015183820152602001611fd3565b50506000910152565b7f416363657373436f6e74726f6c3a206163636f756e742000000000000000000081526000835161202c816017850160208801611fd0565b7f206973206d697373696e6720726f6c65200000000000000000000000000000006017918401918201528351612069816028840160208801611fd0565b01602801949350505050565b6020815260008251806020840152612094816040850160208701611fd0565b601f01601f19169190910160400192915050565b8082028115828204841417610c2157610c21611fa1565b80820180821115610c2157610c21611fa1565b634e487b7160e01b600052604160045260246000fd5b6000816120f7576120f7611fa1565b50600019019056fea164736f6c6343000813000af0887ba65ee2024ea881d91b74c2450ef19e1557f03bed3ea9f16b037cbe2dc9",
  "linkReferences": {},
  "deployedLinkReferences": {}
}