{
  "_format": "hh-sol-artifact-1",
  "contractName": "L2SeigManagerProxy",
  "sourceName": "contracts/L2/L2SeigManagerProxy.sol",
  "abi": [
    {
      "anonymous": false,
      "inputs": [
        {
          "indexed": true,
          "internalType": "bytes32",
          "name": "role",
          "type": "bytes32"
        },
        {
          "indexed": true,
          "internalType": "bytes32",
          "name": "previousAdminRole",
          "type": "bytes32"
        },
        {
          "indexed": true,
          "internalType": "bytes32",
          "name": "newAdminRole",
          "type": "bytes32"
        }
      ],
      "name": "RoleAdminChanged",
      "type": "event"
    },
    {
      "anonymous": false,
      "inputs": [
        {
          "indexed": true,
          "internalType": "bytes32",
          "name": "role",
          "type": "bytes32"
        },
        {
          "indexed": true,
          "internalType": "address",
          "name": "account",
          "type": "address"
        },
        {
          "indexed": true,
          "internalType": "address",
          "name": "sender",
          "type": "address"
        }
      ],
      "name": "RoleGranted",
      "type": "event"
    },
    {
      "anonymous": false,
      "inputs": [
        {
          "indexed": true,
          "internalType": "bytes32",
          "name": "role",
          "type": "bytes32"
        },
        {
          "indexed": true,
          "internalType": "address",
          "name": "account",
          "type": "address"
        },
        {
          "indexed": true,
          "internalType": "address",
          "name": "sender",
          "type": "address"
        }
      ],
      "name": "RoleRevoked",
      "type": "event"
    },
    {
      "anonymous": false,
      "inputs": [
        {
          "indexed": true,
          "internalType": "address",
          "name": "impl",
          "type": "address"
        },
        {
          "indexed": false,
          "internalType": "bool",
          "name": "alive",
          "type": "bool"
        }
      ],
      "name": "SetAliveImplementation",
      "type": "event"
    },
    {
      "anonymous": false,
      "inputs": [
        {
          "indexed": true,
          "internalType": "bytes4",
          "name": "selector",
          "type": "bytes4"
        },
        {
          "indexed": true,
          "internalType": "address",
          "name": "impl",
          "type": "address"
        }
      ],
      "name": "SetSelectorImplementation",
      "type": "event"
    },
    {
      "anonymous": false,
      "inputs": [
        {
          "indexed": true,
          "internalType": "address",
          "name": "implementation",
          "type": "address"
        }
      ],
      "name": "Upgraded",
      "type": "event"
    },
    {
      "stateMutability": "payable",
      "type": "fallback"
    },
    {
      "inputs": [],
      "name": "CHALLENGER_ROLE",
      "outputs": [
        {
          "internalType": "bytes32",
          "name": "",
          "type": "bytes32"
        }
      ],
      "stateMutability": "view",
      "type": "function"
    },
    {
      "inputs": [],
      "name": "DEFAULT_ADMIN_ROLE",
      "outputs": [
        {
          "internalType": "bytes32",
          "name": "",
          "type": "bytes32"
        }
      ],
      "stateMutability": "view",
      "type": "function"
    },
    {
      "inputs": [],
      "name": "DEFAULT_FACTOR",
      "outputs": [
        {
          "internalType": "uint256",
          "name": "",
          "type": "uint256"
        }
      ],
      "stateMutability": "view",
      "type": "function"
    },
    {
      "inputs": [],
      "name": "MINTER_ROLE",
      "outputs": [
        {
          "internalType": "bytes32",
          "name": "",
          "type": "bytes32"
        }
      ],
      "stateMutability": "view",
      "type": "function"
    },
    {
      "inputs": [],
      "name": "OPERATOR_ROLE",
      "outputs": [
        {
          "internalType": "bytes32",
          "name": "",
          "type": "bytes32"
        }
      ],
      "stateMutability": "view",
      "type": "function"
    },
    {
      "inputs": [],
      "name": "PAUSE_ROLE",
      "outputs": [
        {
          "internalType": "bytes32",
          "name": "",
          "type": "bytes32"
        }
      ],
      "stateMutability": "view",
      "type": "function"
    },
    {
      "inputs": [
        {
          "internalType": "address",
          "name": "account",
          "type": "address"
        }
      ],
      "name": "addAdmin",
      "outputs": [],
      "stateMutability": "nonpayable",
      "type": "function"
    },
    {
      "inputs": [
        {
          "internalType": "address",
          "name": "account",
          "type": "address"
        }
      ],
      "name": "addChallenger",
      "outputs": [],
      "stateMutability": "nonpayable",
      "type": "function"
    },
    {
      "inputs": [
        {
          "internalType": "address",
          "name": "account",
          "type": "address"
        }
      ],
      "name": "addMinter",
      "outputs": [],
      "stateMutability": "nonpayable",
      "type": "function"
    },
    {
      "inputs": [
        {
          "internalType": "address",
          "name": "account",
          "type": "address"
        }
      ],
      "name": "addOperator",
      "outputs": [],
      "stateMutability": "nonpayable",
      "type": "function"
    },
    {
      "inputs": [
        {
          "internalType": "address",
          "name": "",
          "type": "address"
        }
      ],
      "name": "aliveImplementation",
      "outputs": [
        {
          "internalType": "bool",
          "name": "",
          "type": "bool"
        }
      ],
      "stateMutability": "view",
      "type": "function"
    },
    {
      "inputs": [
        {
          "internalType": "bytes32",
          "name": "role",
          "type": "bytes32"
        }
      ],
      "name": "getRoleAdmin",
      "outputs": [
        {
          "internalType": "bytes32",
          "name": "",
          "type": "bytes32"
        }
      ],
      "stateMutability": "view",
      "type": "function"
    },
    {
      "inputs": [
        {
          "internalType": "bytes4",
          "name": "_selector",
          "type": "bytes4"
        }
      ],
      "name": "getSelectorImplementation2",
      "outputs": [
        {
          "internalType": "address",
          "name": "impl",
          "type": "address"
        }
      ],
      "stateMutability": "view",
      "type": "function"
    },
    {
      "inputs": [
        {
          "internalType": "bytes32",
          "name": "role",
          "type": "bytes32"
        },
        {
          "internalType": "address",
          "name": "account",
          "type": "address"
        }
      ],
      "name": "grantRole",
      "outputs": [],
      "stateMutability": "nonpayable",
      "type": "function"
    },
    {
      "inputs": [
        {
          "internalType": "bytes32",
          "name": "role",
          "type": "bytes32"
        },
        {
          "internalType": "address",
          "name": "account",
          "type": "address"
        }
      ],
      "name": "hasRole",
      "outputs": [
        {
          "internalType": "bool",
          "name": "",
          "type": "bool"
        }
      ],
      "stateMutability": "view",
      "type": "function"
    },
    {
      "inputs": [],
      "name": "implementation",
      "outputs": [
        {
          "internalType": "address",
          "name": "",
          "type": "address"
        }
      ],
      "stateMutability": "view",
      "type": "function"
    },
    {
      "inputs": [
        {
          "internalType": "uint256",
          "name": "_index",
          "type": "uint256"
        }
      ],
      "name": "implementation2",
      "outputs": [
        {
          "internalType": "address",
          "name": "",
          "type": "address"
        }
      ],
      "stateMutability": "view",
      "type": "function"
    },
    {
      "inputs": [
        {
          "internalType": "address",
          "name": "",
          "type": "address"
        }
      ],
      "name": "index",
      "outputs": [
        {
          "internalType": "uint256",
          "name": "",
          "type": "uint256"
        }
      ],
      "stateMutability": "view",
      "type": "function"
    },
    {
      "inputs": [
        {
          "internalType": "address",
          "name": "account",
          "type": "address"
        }
      ],
      "name": "isAdmin",
      "outputs": [
        {
          "internalType": "bool",
          "name": "",
          "type": "bool"
        }
      ],
      "stateMutability": "view",
      "type": "function"
    },
    {
      "inputs": [
        {
          "internalType": "address",
          "name": "account",
          "type": "address"
        }
      ],
      "name": "isChallenger",
      "outputs": [
        {
          "internalType": "bool",
          "name": "",
          "type": "bool"
        }
      ],
      "stateMutability": "view",
      "type": "function"
    },
    {
      "inputs": [
        {
          "internalType": "address",
          "name": "account",
          "type": "address"
        }
      ],
      "name": "isMinter",
      "outputs": [
        {
          "internalType": "bool",
          "name": "",
          "type": "bool"
        }
      ],
      "stateMutability": "view",
      "type": "function"
    },
    {
      "inputs": [
        {
          "internalType": "address",
          "name": "account",
          "type": "address"
        }
      ],
      "name": "isOperator",
      "outputs": [
        {
          "internalType": "bool",
          "name": "",
          "type": "bool"
        }
      ],
      "stateMutability": "view",
      "type": "function"
    },
    {
      "inputs": [],
      "name": "isOwner",
      "outputs": [
        {
          "internalType": "bool",
          "name": "",
          "type": "bool"
        }
      ],
      "stateMutability": "view",
      "type": "function"
    },
    {
      "inputs": [],
      "name": "l1StakedTonInL2",
      "outputs": [
        {
          "internalType": "address",
          "name": "",
          "type": "address"
        }
      ],
      "stateMutability": "view",
      "type": "function"
    },
    {
      "inputs": [
        {
          "internalType": "uint256",
          "name": "",
          "type": "uint256"
        }
      ],
      "name": "l1layer2s",
      "outputs": [
        {
          "internalType": "address",
          "name": "",
          "type": "address"
        }
      ],
      "stateMutability": "view",
      "type": "function"
    },
    {
      "inputs": [],
      "name": "l2CrossDomainMessenger",
      "outputs": [
        {
          "internalType": "address",
          "name": "",
          "type": "address"
        }
      ],
      "stateMutability": "view",
      "type": "function"
    },
    {
      "inputs": [],
      "name": "lastSnapshotId",
      "outputs": [
        {
          "internalType": "uint256",
          "name": "",
          "type": "uint256"
        }
      ],
      "stateMutability": "view",
      "type": "function"
    },
    {
      "inputs": [],
      "name": "pauseProxy",
      "outputs": [
        {
          "internalType": "bool",
          "name": "",
          "type": "bool"
        }
      ],
      "stateMutability": "view",
      "type": "function"
    },
    {
      "inputs": [
        {
          "internalType": "uint256",
          "name": "",
          "type": "uint256"
        }
      ],
      "name": "proxyImplementation",
      "outputs": [
        {
          "internalType": "address",
          "name": "",
          "type": "address"
        }
      ],
      "stateMutability": "view",
      "type": "function"
    },
    {
      "inputs": [
        {
          "internalType": "address",
          "name": "account",
          "type": "address"
        }
      ],
      "name": "removeAdmin",
      "outputs": [],
      "stateMutability": "nonpayable",
      "type": "function"
    },
    {
      "inputs": [
        {
          "internalType": "address",
          "name": "account",
          "type": "address"
        }
      ],
      "name": "removeChallenger",
      "outputs": [],
      "stateMutability": "nonpayable",
      "type": "function"
    },
    {
      "inputs": [
        {
          "internalType": "address",
          "name": "account",
          "type": "address"
        }
      ],
      "name": "removeMinter",
      "outputs": [],
      "stateMutability": "nonpayable",
      "type": "function"
    },
    {
      "inputs": [
        {
          "internalType": "address",
          "name": "account",
          "type": "address"
        }
      ],
      "name": "removeOperator",
      "outputs": [],
      "stateMutability": "nonpayable",
      "type": "function"
    },
    {
      "inputs": [],
      "name": "renounceChallenger",
      "outputs": [],
      "stateMutability": "nonpayable",
      "type": "function"
    },
    {
      "inputs": [],
      "name": "renounceMinter",
      "outputs": [],
      "stateMutability": "nonpayable",
      "type": "function"
    },
    {
      "inputs": [],
      "name": "renounceOperator",
      "outputs": [],
      "stateMutability": "nonpayable",
      "type": "function"
    },
    {
      "inputs": [],
      "name": "renounceOwnership",
      "outputs": [],
      "stateMutability": "nonpayable",
      "type": "function"
    },
    {
      "inputs": [
        {
          "internalType": "bytes32",
          "name": "role",
          "type": "bytes32"
        },
        {
          "internalType": "address",
          "name": "account",
          "type": "address"
        }
      ],
      "name": "renounceRole",
      "outputs": [],
      "stateMutability": "nonpayable",
      "type": "function"
    },
    {
      "inputs": [
        {
          "internalType": "address",
          "name": "account",
          "type": "address"
        }
      ],
      "name": "revokeChallenger",
      "outputs": [],
      "stateMutability": "nonpayable",
      "type": "function"
    },
    {
      "inputs": [
        {
          "internalType": "address",
          "name": "account",
          "type": "address"
        }
      ],
      "name": "revokeMinter",
      "outputs": [],
      "stateMutability": "nonpayable",
      "type": "function"
    },
    {
      "inputs": [
        {
          "internalType": "address",
          "name": "account",
          "type": "address"
        }
      ],
      "name": "revokeOperator",
      "outputs": [],
      "stateMutability": "nonpayable",
      "type": "function"
    },
    {
      "inputs": [
        {
          "internalType": "bytes32",
          "name": "role",
          "type": "bytes32"
        },
        {
          "internalType": "address",
          "name": "account",
          "type": "address"
        }
      ],
      "name": "revokeRole",
      "outputs": [],
      "stateMutability": "nonpayable",
      "type": "function"
    },
    {
      "inputs": [
        {
          "internalType": "bytes4",
          "name": "",
          "type": "bytes4"
        }
      ],
      "name": "selectorImplementation",
      "outputs": [
        {
          "internalType": "address",
          "name": "",
          "type": "address"
        }
      ],
      "stateMutability": "view",
      "type": "function"
    },
    {
      "inputs": [
        {
          "internalType": "address",
          "name": "newImplementation",
          "type": "address"
        },
        {
          "internalType": "bool",
          "name": "_alive",
          "type": "bool"
        }
      ],
      "name": "setAliveImplementation2",
      "outputs": [],
      "stateMutability": "nonpayable",
      "type": "function"
    },
    {
      "inputs": [
        {
          "internalType": "address",
          "name": "newImplementation",
          "type": "address"
        },
        {
          "internalType": "uint256",
          "name": "_index",
          "type": "uint256"
        },
        {
          "internalType": "bool",
          "name": "_alive",
          "type": "bool"
        }
      ],
      "name": "setImplementation2",
      "outputs": [],
      "stateMutability": "nonpayable",
      "type": "function"
    },
    {
      "inputs": [
        {
          "internalType": "bool",
          "name": "_pause",
          "type": "bool"
        }
      ],
      "name": "setProxyPause",
      "outputs": [],
      "stateMutability": "nonpayable",
      "type": "function"
    },
    {
      "inputs": [
        {
          "internalType": "bytes4[]",
          "name": "_selectors",
          "type": "bytes4[]"
        },
        {
          "internalType": "address",
          "name": "_imp",
          "type": "address"
        }
      ],
      "name": "setSelectorImplementations2",
      "outputs": [],
      "stateMutability": "nonpayable",
      "type": "function"
    },
    {
      "inputs": [
        {
          "internalType": "address",
          "name": "",
          "type": "address"
        },
        {
          "internalType": "address",
          "name": "",
          "type": "address"
        }
      ],
      "name": "stakedInfo",
      "outputs": [
        {
          "internalType": "uint256",
          "name": "deposit",
          "type": "uint256"
        },
        {
          "internalType": "uint256",
          "name": "lswton",
          "type": "uint256"
        }
      ],
      "stateMutability": "view",
      "type": "function"
    },
    {
      "inputs": [
        {
          "internalType": "bytes4",
          "name": "interfaceId",
          "type": "bytes4"
        }
      ],
      "name": "supportsInterface",
      "outputs": [
        {
          "internalType": "bool",
          "name": "",
          "type": "bool"
        }
      ],
      "stateMutability": "view",
      "type": "function"
    },
    {
      "inputs": [
        {
          "internalType": "address",
          "name": "",
          "type": "address"
        }
      ],
      "name": "totalLswton",
      "outputs": [
        {
          "internalType": "uint256",
          "name": "",
          "type": "uint256"
        }
      ],
      "stateMutability": "view",
      "type": "function"
    },
    {
      "inputs": [
        {
          "internalType": "address",
          "name": "newAdmin",
          "type": "address"
        }
      ],
      "name": "transferAdmin",
      "outputs": [],
      "stateMutability": "nonpayable",
      "type": "function"
    },
    {
      "inputs": [
        {
          "internalType": "address",
          "name": "newAdmin",
          "type": "address"
        }
      ],
      "name": "transferOwnership",
      "outputs": [],
      "stateMutability": "nonpayable",
      "type": "function"
    },
    {
      "inputs": [
        {
          "internalType": "address",
          "name": "impl",
          "type": "address"
        }
      ],
      "name": "upgradeTo",
      "outputs": [],
      "stateMutability": "nonpayable",
      "type": "function"
    },
    {
      "stateMutability": "payable",
      "type": "receive"
    }
  ],
  "bytecode": "0x60806040523480156200001157600080fd5b506200001f600033620000a9565b6200003b6000805160206200231d8339815191526000620000b9565b620000687f523a704056dcd17bcf83bed8b68c59416dac1119be77755efe3bde0a64e46e0c6000620000b9565b620000a37fbf02bad7114723a857a3af46cea17b778a3a951c96f183784d9a2448cc479ab66000805160206200231d833981519152620000b9565b620001a8565b620000b5828262000104565b5050565b600082815260056020526040808220600101805490849055905190918391839186917fbd79b86ffe0ab8e8776151514217cd7cacd52c909f66475c3af44e129f0b00ff9190a4505050565b60008281526005602090815260408083206001600160a01b038516845290915290205460ff16620000b55760008281526005602090815260408083206001600160a01b03851684529091529020805460ff19166001179055620001643390565b6001600160a01b0316816001600160a01b0316837f2f8788117e7eff1d82e926ec794901d17c78024a50270940304540a733656f0d60405160405180910390a45050565b61216580620001b86000396000f3fe60806040526004361061034e5760003560e01c8063715018a6116101bb5780639870d7fe116100f7578063d539139311610095578063f2fde38b1161006f578063f2fde38b14610b04578063f5b541a614610b24578063fad8b32a14610b58578063fbef005a14610b78576103a0565b8063d539139314610a5c578063d547741f14610a90578063d7da2eec14610ab0576103a0565b8063aa271e1a116100d1578063aa271e1a146109c6578063ac8a584a146109e6578063b911135f14610a06578063cfbd488514610a3c576103a0565b80639870d7fe14610971578063a217fddf14610991578063a415d8dc146109a6576103a0565b80638bf91dc4116101645780638f32d59b1161013e5780638f32d59b146108b257806391d14854146108f6578063983b2d561461093c578063986502751461095c576103a0565b80638bf91dc4146108525780638c09d4ee146108725780638d4fdb4014610892576103a0565b80637cd5f663116101955780637cd5f663146107fc578063837afbc01461081c5780638b8f4a6514610832576103a0565b8063715018a6146107a757806375829def146107bc5780637cb00d25146107dc576103a0565b80633659cfe61161028a578063550d01a31161023357806363a8fd891161020d57806363a8fd891461072d5780636c578c1d146107475780636d70f7ae146107675780637048027514610787576103a0565b8063550d01a3146106975780635c60da1b146106c75780635cc797d81461070d576103a0565b80634a5df50f116102645780634a5df50f1461060d57806350d2a2761461062d578063530adbb414610663576103a0565b80633659cfe614610599578063389ed267146105b95780633c491173146105ed576103a0565b806324d7806c116102f75780632f2ff15d116102d15780632f2ff15d146105015780633092afd51461052157806334b0157a1461054157806336568abe14610579576103a0565b806324d7806c146104b757806325e90db4146104d75780632ab6f8db146104ec576103a0565b80631785f53c116103285780631785f53c1461043a57806318def8ef1461045a578063248a9ca314610487576103a0565b806301ffc9a7146103aa5780630acdadf8146103df5780630ceb67801461041a576103a0565b366103a05760405162461bcd60e51b815260206004820152601460248201527f63616e6e6f74207265636569766520457468657200000000000000000000000060448201526064015b60405180910390fd5b6103a8610b98565b005b3480156103b657600080fd5b506103ca6103c5366004611dca565b610c41565b60405190151581526020015b60405180910390f35b3480156103eb57600080fd5b5061040c6103fa366004611e0b565b600a6020526000908152604090205481565b6040519081526020016103d6565b34801561042657600080fd5b506103a8610435366004611e0b565b610c52565b34801561044657600080fd5b506103a8610455366004611e0b565b610d0d565b34801561046657600080fd5b5061040c610475366004611e0b565b60096020526000908152604090205481565b34801561049357600080fd5b5061040c6104a2366004611e26565b60009081526005602052604090206001015490565b3480156104c357600080fd5b506103ca6104d2366004611e0b565b610d3d565b3480156104e357600080fd5b506103a8610d7d565b3480156104f857600080fd5b506103a8610da9565b34801561050d57600080fd5b506103a861051c366004611e3f565b610dd3565b34801561052d57600080fd5b506103a861053c366004611e0b565b610df8565b34801561054d57600080fd5b5061056161055c366004611e26565b610e47565b6040516001600160a01b0390911681526020016103d6565b34801561058557600080fd5b506103a8610594366004611e3f565b610e71565b3480156105a557600080fd5b506103a86105b4366004611e0b565b610efd565b3480156105c557600080fd5b5061040c7ffcb9fcbfa83b897fb2d5cf4b58962164105c1e71489a37ef3ae0db3fdce576f681565b3480156105f957600080fd5b506103a8610608366004611e0b565b61102d565b34801561061957600080fd5b506103a8610628366004611e6b565b61107c565b34801561063957600080fd5b50610561610648366004611dca565b6003602052600090815260409020546001600160a01b031681565b34801561066f57600080fd5b5061040c7fbf02bad7114723a857a3af46cea17b778a3a951c96f183784d9a2448cc479ab681565b3480156106a357600080fd5b506103ca6106b2366004611e0b565b60026020526000908152604090205460ff1681565b3480156106d357600080fd5b506000805260016020527fa6eef7e35abe7026729641147f7915573c7e97b47efa546f5f6e3230263bcb49546001600160a01b0316610561565b34801561071957600080fd5b506103a8610728366004611eff565b611300565b34801561073957600080fd5b506000546103ca9060ff1681565b34801561075357600080fd5b506103a8610762366004611e0b565b61132f565b34801561077357600080fd5b506103ca610782366004611e0b565b61137e565b34801561079357600080fd5b506103a86107a2366004611e0b565b6113be565b3480156107b357600080fd5b506103a86113ee565b3480156107c857600080fd5b506103a86107d7366004611e0b565b61141e565b3480156107e857600080fd5b506103a86107f7366004611f29565b611507565b34801561080857600080fd5b506103a8610817366004611f44565b61153f565b34801561082857600080fd5b5061040c60065481565b34801561083e57600080fd5b5061056161084d366004611e26565b61156f565b34801561085e57600080fd5b5061040c6b033b2e3c9fd0803ce800000081565b34801561087e57600080fd5b50600754610561906001600160a01b031681565b34801561089e57600080fd5b506105616108ad366004611dca565b61158c565b3480156108be57600080fd5b503360009081527f05b8ccbb9d4d8fb16ea74ce3c29a41f1b461fbdaff4714a0d9a8eb05499746bc602052604090205460ff166103ca565b34801561090257600080fd5b506103ca610911366004611e3f565b60009182526005602090815260408084206001600160a01b0393909316845291905290205460ff1690565b34801561094857600080fd5b506103a8610957366004611e0b565b611688565b34801561096857600080fd5b506103a86116d7565b34801561097d57600080fd5b506103a861098c366004611e0b565b611701565b34801561099d57600080fd5b5061040c600081565b3480156109b257600080fd5b506103ca6109c1366004611e0b565b611750565b3480156109d257600080fd5b506103ca6109e1366004611e0b565b611790565b3480156109f257600080fd5b506103a8610a01366004611e0b565b6117d0565b348015610a1257600080fd5b50610561610a21366004611e26565b6001602052600090815260409020546001600160a01b031681565b348015610a4857600080fd5b506103a8610a57366004611e0b565b61181f565b348015610a6857600080fd5b5061040c7ff0887ba65ee2024ea881d91b74c2450ef19e1557f03bed3ea9f16b037cbe2dc981565b348015610a9c57600080fd5b506103a8610aab366004611e3f565b61186a565b348015610abc57600080fd5b50610aef610acb366004611f77565b600b6020908152600092835260408084209091529082529020805460019091015482565b604080519283526020830191909152016103d6565b348015610b1057600080fd5b506103a8610b1f366004611e0b565b61188f565b348015610b3057600080fd5b5061040c7f523a704056dcd17bcf83bed8b68c59416dac1119be77755efe3bde0a64e46e0c81565b348015610b6457600080fd5b506103a8610b73366004611e0b565b6118bd565b348015610b8457600080fd5b50600854610561906001600160a01b031681565b6000610baf6000356001600160e01b03191661158c565b90506001600160a01b03811615801590610bcc575060005460ff16155b610c185760405162461bcd60e51b815260206004820152601d60248201527f50726f78793a20696d706c204f522070726f78792069732066616c73650000006044820152606401610397565b3660008037600080366000845af43d6000803e808015610c37573d6000f35b3d6000fd5b505050565b6000610c4c8261190c565b92915050565b610c5b33610d3d565b80610c9457503360009081527fca0a2f641ec05ca23127d994cf03ffc453db616acae0b86cb56bb95304d06854602052604090205460ff165b610ce05760405162461bcd60e51b815260206004820152601560248201527f6e6f74206f6e6c794d696e7465724f7241646d696e00000000000000000000006044820152606401610397565b610d0a7fbf02bad7114723a857a3af46cea17b778a3a951c96f183784d9a2448cc479ab682610dd3565b50565b610d1633610d3d565b610d325760405162461bcd60e51b815260040161039790611fa1565b610d0a600082610e71565b6001600160a01b03811660009081527f05b8ccbb9d4d8fb16ea74ce3c29a41f1b461fbdaff4714a0d9a8eb05499746bc602052604081205460ff16610c4c565b610da77fbf02bad7114723a857a3af46cea17b778a3a951c96f183784d9a2448cc479ab633610e71565b565b610da77f523a704056dcd17bcf83bed8b68c59416dac1119be77755efe3bde0a64e46e0c33610e71565b600082815260056020526040902060010154610dee81611931565b610c3c838361193b565b610e0133610d3d565b610e1d5760405162461bcd60e51b815260040161039790611fa1565b610d0a7ff0887ba65ee2024ea881d91b74c2450ef19e1557f03bed3ea9f16b037cbe2dc982610e71565b600d8181548110610e5757600080fd5b6000918252602090912001546001600160a01b0316905081565b6001600160a01b0381163314610eef5760405162461bcd60e51b815260206004820152602f60248201527f416363657373436f6e74726f6c3a2063616e206f6e6c792072656e6f756e636560448201527f20726f6c657320666f722073656c6600000000000000000000000000000000006064820152608401610397565b610ef982826119dd565b5050565b610f0633610d3d565b610f225760405162461bcd60e51b815260040161039790611fa1565b6001600160a01b038116610f785760405162461bcd60e51b815260206004820152600d60248201527f696e707574206973207a65726f000000000000000000000000000000000000006044820152606401610397565b6000805260016020527fa6eef7e35abe7026729641147f7915573c7e97b47efa546f5f6e3230263bcb49546001600160a01b03828116911603610fe95760405162461bcd60e51b815260206004820152600960248201526839b0b6b29030b2323960b91b6044820152606401610397565b610ff68160006001611a60565b6040516001600160a01b038216907fbc7cd75a20ee27fd9adebab32041f755214dbc6bffa90cc0225b39da2e5c2d3b90600090a250565b61103633610d3d565b6110525760405162461bcd60e51b815260040161039790611fa1565b610d0a7fbf02bad7114723a857a3af46cea17b778a3a951c96f183784d9a2448cc479ab68261186a565b61108533610d3d565b6110a15760405162461bcd60e51b815260040161039790611fa1565b816110ee5760405162461bcd60e51b815260206004820181905260248201527f50726f78793a205f73656c6563746f727327732073697a65206973207a65726f6044820152606401610397565b6001600160a01b03811660009081526002602052604090205460ff166111565760405162461bcd60e51b815260206004820152601860248201527f50726f78793a205f696d70206973206e6f7420616c69766500000000000000006044820152606401610397565b60005b828110156112fa57816001600160a01b03166003600086868581811061118157611181611fe4565b90506020020160208101906111969190611dca565b6001600160e01b03191681526020810191909152604001600020546001600160a01b0316036112075760405162461bcd60e51b815260206004820152601d60248201527f4c69717569646974795661756c7450726f78793a2073616d6520696d700000006044820152606401610397565b816003600086868581811061121e5761121e611fe4565b90506020020160208101906112339190611dca565b6001600160e01b03191681526020810191909152604001600020805473ffffffffffffffffffffffffffffffffffffffff19166001600160a01b03928316179055821684848381811061128857611288611fe4565b905060200201602081019061129d9190611dca565b7bffffffffffffffffffffffffffffffffffffffffffffffffffffffff19167f14ebc1c32aa68f4d766e89f3e546cee249f7df25183fc10ab1568d91c2ce9b7b60405160405180910390a3806112f281612010565b915050611159565b50505050565b61130933610d3d565b6113255760405162461bcd60e51b815260040161039790611fa1565b610ef98282611af8565b61133833610d3d565b6113545760405162461bcd60e51b815260040161039790611fa1565b610d0a7fbf02bad7114723a857a3af46cea17b778a3a951c96f183784d9a2448cc479ab682610e71565b6001600160a01b03811660009081527f02634a7c777b8129955fe1824eee49ef19dfa96f2f4cb63212492c3d84eb58e6602052604081205460ff16610c4c565b6113c733610d3d565b6113e35760405162461bcd60e51b815260040161039790611fa1565b610d0a600082610dd3565b6113f733610d3d565b6114135760405162461bcd60e51b815260040161039790611fa1565b610da7600033610e71565b61142733610d3d565b6114435760405162461bcd60e51b815260040161039790611fa1565b6001600160a01b0381166114995760405162461bcd60e51b815260206004820152601860248201527f41636365737369626c653a207a65726f206164647265737300000000000000006044820152606401610397565b6001600160a01b03811633036114f15760405162461bcd60e51b815260206004820152601660248201527f41636365737369626c653a2073616d652061646d696e000000000000000000006044820152606401610397565b6114fc600082610dd3565b610d0a600033610e71565b61151033610d3d565b61152c5760405162461bcd60e51b815260040161039790611fa1565b6000805460ff1916911515919091179055565b61154833610d3d565b6115645760405162461bcd60e51b815260040161039790611fa1565b610c3c838383611a60565b6000818152600160205260408120546001600160a01b0316610c4c565b6001600160e01b031981166000908152600360205260408120546001600160a01b03166115ec5750506000805260016020527fa6eef7e35abe7026729641147f7915573c7e97b47efa546f5f6e3230263bcb49546001600160a01b031690565b6001600160e01b031982166000908152600360209081526040808320546001600160a01b03168352600290915290205460ff161561164a57506001600160e01b0319166000908152600360205260409020546001600160a01b031690565b50506000805260016020527fa6eef7e35abe7026729641147f7915573c7e97b47efa546f5f6e3230263bcb49546001600160a01b031690565b919050565b61169133610d3d565b6116ad5760405162461bcd60e51b815260040161039790611fa1565b610d0a7ff0887ba65ee2024ea881d91b74c2450ef19e1557f03bed3ea9f16b037cbe2dc982610dd3565b610da77ff0887ba65ee2024ea881d91b74c2450ef19e1557f03bed3ea9f16b037cbe2dc933610e71565b61170a33610d3d565b6117265760405162461bcd60e51b815260040161039790611fa1565b610d0a7f523a704056dcd17bcf83bed8b68c59416dac1119be77755efe3bde0a64e46e0c82610dd3565b6001600160a01b03811660009081527fedec71783a10810e436f3392a073a61717130e573433fcc6591c3061a012f767602052604081205460ff16610c4c565b6001600160a01b03811660009081527fca0a2f641ec05ca23127d994cf03ffc453db616acae0b86cb56bb95304d06854602052604081205460ff16610c4c565b6117d933610d3d565b6117f55760405162461bcd60e51b815260040161039790611fa1565b610d0a7f523a704056dcd17bcf83bed8b68c59416dac1119be77755efe3bde0a64e46e0c82610e71565b61182833610d3d565b6118445760405162461bcd60e51b815260040161039790611fa1565b610d0a7ff0887ba65ee2024ea881d91b74c2450ef19e1557f03bed3ea9f16b037cbe2dc9825b60008281526005602052604090206001015461188581611931565b610c3c83836119dd565b61189833610d3d565b6118b45760405162461bcd60e51b815260040161039790611fa1565b610d0a8161141e565b6118c633610d3d565b6118e25760405162461bcd60e51b815260040161039790611fa1565b610d0a7f523a704056dcd17bcf83bed8b68c59416dac1119be77755efe3bde0a64e46e0c8261186a565b60006001600160e01b03198216637965db0b60e01b1480610c4c5750610c4c82611b57565b610d0a8133611b93565b60008281526005602090815260408083206001600160a01b038516845290915290205460ff16610ef95760008281526005602090815260408083206001600160a01b03851684529091529020805460ff191660011790556119993390565b6001600160a01b0316816001600160a01b0316837f2f8788117e7eff1d82e926ec794901d17c78024a50270940304540a733656f0d60405160405180910390a45050565b60008281526005602090815260408083206001600160a01b038516845290915290205460ff1615610ef95760008281526005602090815260408083206001600160a01b0385168085529252808320805460ff1916905551339285917ff6391f5c32d9c69d2a47ea670b442974b53935d1edc7fd64eb21e047a839171b9190a45050565b6001600160a01b0383163b611ab75760405162461bcd60e51b815260206004820152601b60248201527f50726f78793a206e6f7420636f6e7472616374206164647265737300000000006044820152606401610397565b8015611af2576000828152600160205260409020805473ffffffffffffffffffffffffffffffffffffffff19166001600160a01b0385161790555b610c3c83825b6001600160a01b038216600081815260026020908152604091829020805460ff191685151590811790915591519182527f72558d9bfba4210f9ef095c782589484151f6d90f7a81bb3cb9b33efc695d324910160405180910390a25050565b60006301ffc9a760e01b6001600160e01b031983161480610c4c5750506001600160e01b03191660009081526004602052604090205460ff1690565b60008281526005602090815260408083206001600160a01b038516845290915290205460ff16610ef957611bc681611c08565b611bd1836020611c1a565b604051602001611be292919061204d565b60408051601f198184030181529082905262461bcd60e51b8252610397916004016120ce565b6060610c4c6001600160a01b03831660145b60606000611c29836002612101565b611c34906002612118565b67ffffffffffffffff811115611c4c57611c4c61212b565b6040519080825280601f01601f191660200182016040528015611c76576020820181803683370190505b509050600360fc1b81600081518110611c9157611c91611fe4565b60200101906001600160f81b031916908160001a905350600f60fb1b81600181518110611cc057611cc0611fe4565b60200101906001600160f81b031916908160001a9053506000611ce4846002612101565b611cef906001612118565b90505b6001811115611d74577f303132333435363738396162636465660000000000000000000000000000000085600f1660108110611d3057611d30611fe4565b1a60f81b828281518110611d4657611d46611fe4565b60200101906001600160f81b031916908160001a90535060049490941c93611d6d81612141565b9050611cf2565b508315611dc35760405162461bcd60e51b815260206004820181905260248201527f537472696e67733a20686578206c656e67746820696e73756666696369656e746044820152606401610397565b9392505050565b600060208284031215611ddc57600080fd5b81356001600160e01b031981168114611dc357600080fd5b80356001600160a01b038116811461168357600080fd5b600060208284031215611e1d57600080fd5b611dc382611df4565b600060208284031215611e3857600080fd5b5035919050565b60008060408385031215611e5257600080fd5b82359150611e6260208401611df4565b90509250929050565b600080600060408486031215611e8057600080fd5b833567ffffffffffffffff80821115611e9857600080fd5b818601915086601f830112611eac57600080fd5b813581811115611ebb57600080fd5b8760208260051b8501011115611ed057600080fd5b602092830195509350611ee69186019050611df4565b90509250925092565b8035801515811461168357600080fd5b60008060408385031215611f1257600080fd5b611f1b83611df4565b9150611e6260208401611eef565b600060208284031215611f3b57600080fd5b611dc382611eef565b600080600060608486031215611f5957600080fd5b611f6284611df4565b925060208401359150611ee660408501611eef565b60008060408385031215611f8a57600080fd5b611f9383611df4565b9150611e6260208401611df4565b60208082526023908201527f41757468436f6e74726f6c3a2043616c6c6572206973206e6f7420616e20616460408201526236b4b760e91b606082015260800190565b634e487b7160e01b600052603260045260246000fd5b634e487b7160e01b600052601160045260246000fd5b60006001820161202257612022611ffa565b5060010190565b60005b8381101561204457818101518382015260200161202c565b50506000910152565b7f416363657373436f6e74726f6c3a206163636f756e7420000000000000000000815260008351612085816017850160208801612029565b7f206973206d697373696e6720726f6c652000000000000000000000000000000060179184019182015283516120c2816028840160208801612029565b01602801949350505050565b60208152600082518060208401526120ed816040850160208701612029565b601f01601f19169190910160400192915050565b8082028115828204841417610c4c57610c4c611ffa565b80820180821115610c4c57610c4c611ffa565b634e487b7160e01b600052604160045260246000fd5b60008161215057612150611ffa565b50600019019056fea164736f6c6343000813000af0887ba65ee2024ea881d91b74c2450ef19e1557f03bed3ea9f16b037cbe2dc9",
  "linkReferences": {},
  "deployedLinkReferences": {}
}