{
  "_format": "hh-sol-artifact-1",
  "contractName": "SeigManagerV1_3",
  "sourceName": "contracts/stake/managers/SeigManagerV1_3.sol",
  "abi": [
    {
      "inputs": [],
      "name": "IncreaseTotError",
      "type": "error"
    },
    {
      "inputs": [],
      "name": "InvalidCoinageError",
      "type": "error"
    },
    {
      "inputs": [],
      "name": "LastSeigBlockError",
      "type": "error"
    },
    {
      "inputs": [],
      "name": "Layer2TvlError",
      "type": "error"
    },
    {
      "inputs": [],
      "name": "MinimumAmountError",
      "type": "error"
    },
    {
      "inputs": [],
      "name": "OnlyLayer2ManagerError",
      "type": "error"
    },
    {
      "inputs": [],
      "name": "UpdateSeigniorageError",
      "type": "error"
    },
    {
      "anonymous": false,
      "inputs": [
        {
          "indexed": false,
          "internalType": "address",
          "name": "layer2",
          "type": "address"
        },
        {
          "indexed": false,
          "internalType": "uint256",
          "name": "seigs",
          "type": "uint256"
        },
        {
          "indexed": false,
          "internalType": "uint256",
          "name": "operatorSeigs",
          "type": "uint256"
        },
        {
          "indexed": false,
          "internalType": "uint256",
          "name": "nextTotalSupply",
          "type": "uint256"
        },
        {
          "indexed": false,
          "internalType": "uint256",
          "name": "prevTotalSupply",
          "type": "uint256"
        }
      ],
      "name": "AddedSeigAtLayer",
      "type": "event"
    },
    {
      "anonymous": false,
      "inputs": [
        {
          "indexed": true,
          "internalType": "address",
          "name": "layer2",
          "type": "address"
        }
      ],
      "name": "Comitted",
      "type": "event"
    },
    {
      "anonymous": false,
      "inputs": [
        {
          "indexed": false,
          "internalType": "uint256",
          "name": "totalStakedAmount",
          "type": "uint256"
        },
        {
          "indexed": false,
          "internalType": "uint256",
          "name": "totalSupplyOfWTON",
          "type": "uint256"
        },
        {
          "indexed": false,
          "internalType": "uint256",
          "name": "prevTotalSupply",
          "type": "uint256"
        },
        {
          "indexed": false,
          "internalType": "uint256",
          "name": "nextTotalSupply",
          "type": "uint256"
        }
      ],
      "name": "CommitLog1",
      "type": "event"
    },
    {
      "anonymous": false,
      "inputs": [
        {
          "indexed": false,
          "internalType": "address",
          "name": "layer2",
          "type": "address"
        },
        {
          "indexed": false,
          "internalType": "uint256",
          "name": "layer2Tvl",
          "type": "uint256"
        },
        {
          "indexed": false,
          "internalType": "uint256",
          "name": "initialDebt",
          "type": "uint256"
        }
      ],
      "name": "ExcludedFromSeigniorage",
      "type": "event"
    },
    {
      "anonymous": false,
      "inputs": [
        {
          "indexed": true,
          "internalType": "bytes32",
          "name": "role",
          "type": "bytes32"
        },
        {
          "indexed": true,
          "internalType": "bytes32",
          "name": "previousAdminRole",
          "type": "bytes32"
        },
        {
          "indexed": true,
          "internalType": "bytes32",
          "name": "newAdminRole",
          "type": "bytes32"
        }
      ],
      "name": "RoleAdminChanged",
      "type": "event"
    },
    {
      "anonymous": false,
      "inputs": [
        {
          "indexed": true,
          "internalType": "bytes32",
          "name": "role",
          "type": "bytes32"
        },
        {
          "indexed": true,
          "internalType": "address",
          "name": "account",
          "type": "address"
        },
        {
          "indexed": true,
          "internalType": "address",
          "name": "sender",
          "type": "address"
        }
      ],
      "name": "RoleGranted",
      "type": "event"
    },
    {
      "anonymous": false,
      "inputs": [
        {
          "indexed": true,
          "internalType": "bytes32",
          "name": "role",
          "type": "bytes32"
        },
        {
          "indexed": true,
          "internalType": "address",
          "name": "account",
          "type": "address"
        },
        {
          "indexed": true,
          "internalType": "address",
          "name": "sender",
          "type": "address"
        }
      ],
      "name": "RoleRevoked",
      "type": "event"
    },
    {
      "anonymous": false,
      "inputs": [
        {
          "indexed": true,
          "internalType": "address",
          "name": "layer2",
          "type": "address"
        },
        {
          "indexed": false,
          "internalType": "uint256",
          "name": "totalSeig",
          "type": "uint256"
        },
        {
          "indexed": false,
          "internalType": "uint256",
          "name": "stakedSeig",
          "type": "uint256"
        },
        {
          "indexed": false,
          "internalType": "uint256",
          "name": "unstakedSeig",
          "type": "uint256"
        },
        {
          "indexed": false,
          "internalType": "uint256",
          "name": "powertonSeig",
          "type": "uint256"
        },
        {
          "indexed": false,
          "internalType": "uint256",
          "name": "daoSeig",
          "type": "uint256"
        },
        {
          "indexed": false,
          "internalType": "uint256",
          "name": "pseig",
          "type": "uint256"
        }
      ],
      "name": "SeigGiven",
      "type": "event"
    },
    {
      "anonymous": false,
      "inputs": [
        {
          "indexed": true,
          "internalType": "address",
          "name": "layer2",
          "type": "address"
        },
        {
          "indexed": false,
          "internalType": "uint256",
          "name": "totalSeig",
          "type": "uint256"
        },
        {
          "indexed": false,
          "internalType": "uint256",
          "name": "stakedSeig",
          "type": "uint256"
        },
        {
          "indexed": false,
          "internalType": "uint256",
          "name": "unstakedSeig",
          "type": "uint256"
        },
        {
          "indexed": false,
          "internalType": "uint256",
          "name": "powertonSeig",
          "type": "uint256"
        },
        {
          "indexed": false,
          "internalType": "uint256",
          "name": "daoSeig",
          "type": "uint256"
        },
        {
          "indexed": false,
          "internalType": "uint256",
          "name": "pseig",
          "type": "uint256"
        },
        {
          "indexed": false,
          "internalType": "uint256",
          "name": "l2TotalSeigs",
          "type": "uint256"
        },
        {
          "indexed": false,
          "internalType": "uint256",
          "name": "layer2Seigs",
          "type": "uint256"
        }
      ],
      "name": "SeigGiven2",
      "type": "event"
    },
    {
      "inputs": [],
      "name": "BURNT_AMOUNT_MAINNET",
      "outputs": [
        {
          "internalType": "uint256",
          "name": "",
          "type": "uint256"
        }
      ],
      "stateMutability": "view",
      "type": "function"
    },
    {
      "inputs": [],
      "name": "CHALLENGER_ROLE",
      "outputs": [
        {
          "internalType": "bytes32",
          "name": "",
          "type": "bytes32"
        }
      ],
      "stateMutability": "view",
      "type": "function"
    },
    {
      "inputs": [],
      "name": "DEFAULT_ADMIN_ROLE",
      "outputs": [
        {
          "internalType": "bytes32",
          "name": "",
          "type": "bytes32"
        }
      ],
      "stateMutability": "view",
      "type": "function"
    },
    {
      "inputs": [],
      "name": "INITIAL_TOTAL_SUPPLY_MAINNET",
      "outputs": [
        {
          "internalType": "uint256",
          "name": "",
          "type": "uint256"
        }
      ],
      "stateMutability": "view",
      "type": "function"
    },
    {
      "inputs": [],
      "name": "MAX_VALID_COMMISSION",
      "outputs": [
        {
          "internalType": "uint256",
          "name": "",
          "type": "uint256"
        }
      ],
      "stateMutability": "view",
      "type": "function"
    },
    {
      "inputs": [],
      "name": "MINTER_ROLE",
      "outputs": [
        {
          "internalType": "bytes32",
          "name": "",
          "type": "bytes32"
        }
      ],
      "stateMutability": "view",
      "type": "function"
    },
    {
      "inputs": [],
      "name": "MIN_VALID_COMMISSION",
      "outputs": [
        {
          "internalType": "uint256",
          "name": "",
          "type": "uint256"
        }
      ],
      "stateMutability": "view",
      "type": "function"
    },
    {
      "inputs": [],
      "name": "OPERATOR_ROLE",
      "outputs": [
        {
          "internalType": "bytes32",
          "name": "",
          "type": "bytes32"
        }
      ],
      "stateMutability": "view",
      "type": "function"
    },
    {
      "inputs": [],
      "name": "PAUSE_ROLE",
      "outputs": [
        {
          "internalType": "bytes32",
          "name": "",
          "type": "bytes32"
        }
      ],
      "stateMutability": "view",
      "type": "function"
    },
    {
      "inputs": [],
      "name": "RAY",
      "outputs": [
        {
          "internalType": "uint256",
          "name": "",
          "type": "uint256"
        }
      ],
      "stateMutability": "view",
      "type": "function"
    },
    {
      "inputs": [],
      "name": "SEIG_START_MAINNET",
      "outputs": [
        {
          "internalType": "uint256",
          "name": "",
          "type": "uint256"
        }
      ],
      "stateMutability": "view",
      "type": "function"
    },
    {
      "inputs": [],
      "name": "accRelativeSeig",
      "outputs": [
        {
          "internalType": "uint256",
          "name": "",
          "type": "uint256"
        }
      ],
      "stateMutability": "view",
      "type": "function"
    },
    {
      "inputs": [
        {
          "internalType": "address",
          "name": "account",
          "type": "address"
        }
      ],
      "name": "addAdmin",
      "outputs": [],
      "stateMutability": "nonpayable",
      "type": "function"
    },
    {
      "inputs": [
        {
          "internalType": "address",
          "name": "account",
          "type": "address"
        }
      ],
      "name": "addChallenger",
      "outputs": [],
      "stateMutability": "nonpayable",
      "type": "function"
    },
    {
      "inputs": [
        {
          "internalType": "address",
          "name": "account",
          "type": "address"
        }
      ],
      "name": "addMinter",
      "outputs": [],
      "stateMutability": "nonpayable",
      "type": "function"
    },
    {
      "inputs": [
        {
          "internalType": "address",
          "name": "account",
          "type": "address"
        }
      ],
      "name": "addOperator",
      "outputs": [],
      "stateMutability": "nonpayable",
      "type": "function"
    },
    {
      "inputs": [],
      "name": "adjustCommissionDelay",
      "outputs": [
        {
          "internalType": "uint256",
          "name": "",
          "type": "uint256"
        }
      ],
      "stateMutability": "view",
      "type": "function"
    },
    {
      "inputs": [
        {
          "internalType": "address",
          "name": "",
          "type": "address"
        }
      ],
      "name": "aliveImplementation",
      "outputs": [
        {
          "internalType": "bool",
          "name": "",
          "type": "bool"
        }
      ],
      "stateMutability": "view",
      "type": "function"
    },
    {
      "inputs": [
        {
          "internalType": "address",
          "name": "layer2",
          "type": "address"
        }
      ],
      "name": "allowIssuanceLayer2Seigs",
      "outputs": [
        {
          "internalType": "address",
          "name": "rollupConfig",
          "type": "address"
        },
        {
          "internalType": "bool",
          "name": "allowed",
          "type": "bool"
        }
      ],
      "stateMutability": "view",
      "type": "function"
    },
    {
      "inputs": [],
      "name": "burntAmountAtDAO",
      "outputs": [
        {
          "internalType": "uint256",
          "name": "",
          "type": "uint256"
        }
      ],
      "stateMutability": "view",
      "type": "function"
    },
    {
      "inputs": [],
      "name": "dao",
      "outputs": [
        {
          "internalType": "address",
          "name": "",
          "type": "address"
        }
      ],
      "stateMutability": "view",
      "type": "function"
    },
    {
      "inputs": [],
      "name": "daoSeigRate",
      "outputs": [
        {
          "internalType": "uint256",
          "name": "",
          "type": "uint256"
        }
      ],
      "stateMutability": "view",
      "type": "function"
    },
    {
      "inputs": [
        {
          "internalType": "address",
          "name": "",
          "type": "address"
        }
      ],
      "name": "delayedCommissionBlock",
      "outputs": [
        {
          "internalType": "uint256",
          "name": "",
          "type": "uint256"
        }
      ],
      "stateMutability": "view",
      "type": "function"
    },
    {
      "inputs": [
        {
          "internalType": "address",
          "name": "",
          "type": "address"
        }
      ],
      "name": "delayedCommissionRate",
      "outputs": [
        {
          "internalType": "uint256",
          "name": "",
          "type": "uint256"
        }
      ],
      "stateMutability": "view",
      "type": "function"
    },
    {
      "inputs": [
        {
          "internalType": "address",
          "name": "",
          "type": "address"
        }
      ],
      "name": "delayedCommissionRateNegative",
      "outputs": [
        {
          "internalType": "bool",
          "name": "",
          "type": "bool"
        }
      ],
      "stateMutability": "view",
      "type": "function"
    },
    {
      "inputs": [
        {
          "internalType": "uint256",
          "name": "blockNumber",
          "type": "uint256"
        },
        {
          "internalType": "address",
          "name": "layer2",
          "type": "address"
        },
        {
          "internalType": "bool",
          "name": "_isSenderOperator",
          "type": "bool"
        }
      ],
      "name": "estimatedDistribute",
      "outputs": [
        {
          "internalType": "uint256",
          "name": "maxSeig",
          "type": "uint256"
        },
        {
          "internalType": "uint256",
          "name": "stakedSeig",
          "type": "uint256"
        },
        {
          "internalType": "uint256",
          "name": "unstakedSeig",
          "type": "uint256"
        },
        {
          "internalType": "uint256",
          "name": "powertonSeig",
          "type": "uint256"
        },
        {
          "internalType": "uint256",
          "name": "daoSeig",
          "type": "uint256"
        },
        {
          "internalType": "uint256",
          "name": "relativeSeig",
          "type": "uint256"
        },
        {
          "internalType": "uint256",
          "name": "l2TotalSeigs",
          "type": "uint256"
        },
        {
          "internalType": "uint256",
          "name": "layer2Seigs",
          "type": "uint256"
        }
      ],
      "stateMutability": "view",
      "type": "function"
    },
    {
      "inputs": [
        {
          "internalType": "address",
          "name": "_layer2",
          "type": "address"
        }
      ],
      "name": "excludeFromSeigniorage",
      "outputs": [
        {
          "internalType": "bool",
          "name": "",
          "type": "bool"
        }
      ],
      "stateMutability": "nonpayable",
      "type": "function"
    },
    {
      "inputs": [],
      "name": "factory",
      "outputs": [
        {
          "internalType": "address",
          "name": "",
          "type": "address"
        }
      ],
      "stateMutability": "view",
      "type": "function"
    },
    {
      "inputs": [
        {
          "internalType": "address",
          "name": "layer2",
          "type": "address"
        }
      ],
      "name": "getOperatorAmount",
      "outputs": [
        {
          "internalType": "uint256",
          "name": "",
          "type": "uint256"
        }
      ],
      "stateMutability": "view",
      "type": "function"
    },
    {
      "inputs": [
        {
          "internalType": "bytes32",
          "name": "role",
          "type": "bytes32"
        }
      ],
      "name": "getRoleAdmin",
      "outputs": [
        {
          "internalType": "bytes32",
          "name": "",
          "type": "bytes32"
        }
      ],
      "stateMutability": "view",
      "type": "function"
    },
    {
      "inputs": [
        {
          "internalType": "bytes32",
          "name": "role",
          "type": "bytes32"
        },
        {
          "internalType": "address",
          "name": "account",
          "type": "address"
        }
      ],
      "name": "grantRole",
      "outputs": [],
      "stateMutability": "nonpayable",
      "type": "function"
    },
    {
      "inputs": [
        {
          "internalType": "bytes32",
          "name": "role",
          "type": "bytes32"
        },
        {
          "internalType": "address",
          "name": "account",
          "type": "address"
        }
      ],
      "name": "hasRole",
      "outputs": [
        {
          "internalType": "bool",
          "name": "",
          "type": "bool"
        }
      ],
      "stateMutability": "view",
      "type": "function"
    },
    {
      "inputs": [],
      "name": "initialTotalSupply",
      "outputs": [
        {
          "internalType": "uint256",
          "name": "",
          "type": "uint256"
        }
      ],
      "stateMutability": "view",
      "type": "function"
    },
    {
      "inputs": [
        {
          "internalType": "address",
          "name": "account",
          "type": "address"
        }
      ],
      "name": "isAdmin",
      "outputs": [
        {
          "internalType": "bool",
          "name": "",
          "type": "bool"
        }
      ],
      "stateMutability": "view",
      "type": "function"
    },
    {
      "inputs": [
        {
          "internalType": "address",
          "name": "account",
          "type": "address"
        }
      ],
      "name": "isChallenger",
      "outputs": [
        {
          "internalType": "bool",
          "name": "",
          "type": "bool"
        }
      ],
      "stateMutability": "view",
      "type": "function"
    },
    {
      "inputs": [
        {
          "internalType": "address",
          "name": "account",
          "type": "address"
        }
      ],
      "name": "isMinter",
      "outputs": [
        {
          "internalType": "bool",
          "name": "",
          "type": "bool"
        }
      ],
      "stateMutability": "view",
      "type": "function"
    },
    {
      "inputs": [
        {
          "internalType": "address",
          "name": "account",
          "type": "address"
        }
      ],
      "name": "isOperator",
      "outputs": [
        {
          "internalType": "bool",
          "name": "",
          "type": "bool"
        }
      ],
      "stateMutability": "view",
      "type": "function"
    },
    {
      "inputs": [],
      "name": "isOwner",
      "outputs": [
        {
          "internalType": "bool",
          "name": "",
          "type": "bool"
        }
      ],
      "stateMutability": "view",
      "type": "function"
    },
    {
      "inputs": [],
      "name": "l1BridgeRegistry",
      "outputs": [
        {
          "internalType": "address",
          "name": "",
          "type": "address"
        }
      ],
      "stateMutability": "view",
      "type": "function"
    },
    {
      "inputs": [],
      "name": "l2RewardPerUint",
      "outputs": [
        {
          "internalType": "uint256",
          "name": "",
          "type": "uint256"
        }
      ],
      "stateMutability": "view",
      "type": "function"
    },
    {
      "inputs": [],
      "name": "lastSnapshotId",
      "outputs": [
        {
          "internalType": "uint256",
          "name": "",
          "type": "uint256"
        }
      ],
      "stateMutability": "view",
      "type": "function"
    },
    {
      "inputs": [],
      "name": "layer2Manager",
      "outputs": [
        {
          "internalType": "address",
          "name": "",
          "type": "address"
        }
      ],
      "stateMutability": "view",
      "type": "function"
    },
    {
      "inputs": [
        {
          "internalType": "address",
          "name": "",
          "type": "address"
        }
      ],
      "name": "layer2RewardInfo",
      "outputs": [
        {
          "internalType": "uint256",
          "name": "layer2Tvl",
          "type": "uint256"
        },
        {
          "internalType": "uint256",
          "name": "initialDebt",
          "type": "uint256"
        }
      ],
      "stateMutability": "view",
      "type": "function"
    },
    {
      "inputs": [],
      "name": "layer2StartBlock",
      "outputs": [
        {
          "internalType": "uint256",
          "name": "",
          "type": "uint256"
        }
      ],
      "stateMutability": "view",
      "type": "function"
    },
    {
      "inputs": [],
      "name": "minimumAmount",
      "outputs": [
        {
          "internalType": "uint256",
          "name": "",
          "type": "uint256"
        }
      ],
      "stateMutability": "view",
      "type": "function"
    },
    {
      "inputs": [],
      "name": "pauseProxy",
      "outputs": [
        {
          "internalType": "bool",
          "name": "",
          "type": "bool"
        }
      ],
      "stateMutability": "view",
      "type": "function"
    },
    {
      "inputs": [],
      "name": "paused",
      "outputs": [
        {
          "internalType": "bool",
          "name": "",
          "type": "bool"
        }
      ],
      "stateMutability": "view",
      "type": "function"
    },
    {
      "inputs": [],
      "name": "powerTONSeigRate",
      "outputs": [
        {
          "internalType": "uint256",
          "name": "",
          "type": "uint256"
        }
      ],
      "stateMutability": "view",
      "type": "function"
    },
    {
      "inputs": [
        {
          "internalType": "uint256",
          "name": "",
          "type": "uint256"
        }
      ],
      "name": "proxyImplementation",
      "outputs": [
        {
          "internalType": "address",
          "name": "",
          "type": "address"
        }
      ],
      "stateMutability": "view",
      "type": "function"
    },
    {
      "inputs": [],
      "name": "relativeSeigRate",
      "outputs": [
        {
          "internalType": "uint256",
          "name": "",
          "type": "uint256"
        }
      ],
      "stateMutability": "view",
      "type": "function"
    },
    {
      "inputs": [
        {
          "internalType": "address",
          "name": "account",
          "type": "address"
        }
      ],
      "name": "removeAdmin",
      "outputs": [],
      "stateMutability": "nonpayable",
      "type": "function"
    },
    {
      "inputs": [
        {
          "internalType": "address",
          "name": "account",
          "type": "address"
        }
      ],
      "name": "removeChallenger",
      "outputs": [],
      "stateMutability": "nonpayable",
      "type": "function"
    },
    {
      "inputs": [
        {
          "internalType": "address",
          "name": "account",
          "type": "address"
        }
      ],
      "name": "removeMinter",
      "outputs": [],
      "stateMutability": "nonpayable",
      "type": "function"
    },
    {
      "inputs": [
        {
          "internalType": "address",
          "name": "account",
          "type": "address"
        }
      ],
      "name": "removeOperator",
      "outputs": [],
      "stateMutability": "nonpayable",
      "type": "function"
    },
    {
      "inputs": [],
      "name": "renounceChallenger",
      "outputs": [],
      "stateMutability": "nonpayable",
      "type": "function"
    },
    {
      "inputs": [],
      "name": "renounceMinter",
      "outputs": [],
      "stateMutability": "nonpayable",
      "type": "function"
    },
    {
      "inputs": [],
      "name": "renounceOperator",
      "outputs": [],
      "stateMutability": "nonpayable",
      "type": "function"
    },
    {
      "inputs": [],
      "name": "renounceOwnership",
      "outputs": [],
      "stateMutability": "nonpayable",
      "type": "function"
    },
    {
      "inputs": [
        {
          "internalType": "bytes32",
          "name": "role",
          "type": "bytes32"
        },
        {
          "internalType": "address",
          "name": "account",
          "type": "address"
        }
      ],
      "name": "renounceRole",
      "outputs": [],
      "stateMutability": "nonpayable",
      "type": "function"
    },
    {
      "inputs": [
        {
          "internalType": "address",
          "name": "account",
          "type": "address"
        }
      ],
      "name": "revokeChallenger",
      "outputs": [],
      "stateMutability": "nonpayable",
      "type": "function"
    },
    {
      "inputs": [
        {
          "internalType": "address",
          "name": "account",
          "type": "address"
        }
      ],
      "name": "revokeMinter",
      "outputs": [],
      "stateMutability": "nonpayable",
      "type": "function"
    },
    {
      "inputs": [
        {
          "internalType": "address",
          "name": "account",
          "type": "address"
        }
      ],
      "name": "revokeOperator",
      "outputs": [],
      "stateMutability": "nonpayable",
      "type": "function"
    },
    {
      "inputs": [
        {
          "internalType": "bytes32",
          "name": "role",
          "type": "bytes32"
        },
        {
          "internalType": "address",
          "name": "account",
          "type": "address"
        }
      ],
      "name": "revokeRole",
      "outputs": [],
      "stateMutability": "nonpayable",
      "type": "function"
    },
    {
      "inputs": [],
      "name": "seigStartBlock",
      "outputs": [
        {
          "internalType": "uint256",
          "name": "",
          "type": "uint256"
        }
      ],
      "stateMutability": "view",
      "type": "function"
    },
    {
      "inputs": [
        {
          "internalType": "bytes4",
          "name": "",
          "type": "bytes4"
        }
      ],
      "name": "selectorImplementation",
      "outputs": [
        {
          "internalType": "address",
          "name": "",
          "type": "address"
        }
      ],
      "stateMutability": "view",
      "type": "function"
    },
    {
      "inputs": [
        {
          "internalType": "address",
          "name": "l1BridgeRegistry_",
          "type": "address"
        }
      ],
      "name": "setL1BridgeRegistry",
      "outputs": [],
      "stateMutability": "nonpayable",
      "type": "function"
    },
    {
      "inputs": [
        {
          "internalType": "address",
          "name": "layer2Manager_",
          "type": "address"
        }
      ],
      "name": "setLayer2Manager",
      "outputs": [],
      "stateMutability": "nonpayable",
      "type": "function"
    },
    {
      "inputs": [
        {
          "internalType": "uint256",
          "name": "startBlock_",
          "type": "uint256"
        }
      ],
      "name": "setLayer2StartBlock",
      "outputs": [],
      "stateMutability": "nonpayable",
      "type": "function"
    },
    {
      "inputs": [],
      "name": "stakeOfAllLayers",
      "outputs": [
        {
          "internalType": "uint256",
          "name": "amount",
          "type": "uint256"
        }
      ],
      "stateMutability": "view",
      "type": "function"
    },
    {
      "inputs": [
        {
          "internalType": "uint256",
          "name": "snapshotId",
          "type": "uint256"
        }
      ],
      "name": "stakeOfAllLayersAt",
      "outputs": [
        {
          "internalType": "uint256",
          "name": "amount",
          "type": "uint256"
        }
      ],
      "stateMutability": "view",
      "type": "function"
    },
    {
      "inputs": [
        {
          "internalType": "bytes4",
          "name": "interfaceId",
          "type": "bytes4"
        }
      ],
      "name": "supportsInterface",
      "outputs": [
        {
          "internalType": "bool",
          "name": "",
          "type": "bool"
        }
      ],
      "stateMutability": "view",
      "type": "function"
    },
    {
      "inputs": [],
      "name": "totalLayer2TVL",
      "outputs": [
        {
          "internalType": "uint256",
          "name": "",
          "type": "uint256"
        }
      ],
      "stateMutability": "view",
      "type": "function"
    },
    {
      "inputs": [],
      "name": "totalSupplyOfTon",
      "outputs": [
        {
          "internalType": "uint256",
          "name": "tos",
          "type": "uint256"
        }
      ],
      "stateMutability": "view",
      "type": "function"
    },
    {
      "inputs": [
        {
          "internalType": "address",
          "name": "newAdmin",
          "type": "address"
        }
      ],
      "name": "transferAdmin",
      "outputs": [],
      "stateMutability": "nonpayable",
      "type": "function"
    },
    {
      "inputs": [
        {
          "internalType": "address",
          "name": "newAdmin",
          "type": "address"
        }
      ],
      "name": "transferOwnership",
      "outputs": [],
      "stateMutability": "nonpayable",
      "type": "function"
    },
    {
      "inputs": [
        {
          "internalType": "address",
          "name": "layer2",
          "type": "address"
        }
      ],
      "name": "unSettledReward",
      "outputs": [
        {
          "internalType": "uint256",
          "name": "amount",
          "type": "uint256"
        }
      ],
      "stateMutability": "view",
      "type": "function"
    },
    {
      "inputs": [],
      "name": "unallocatedSeigniorage",
      "outputs": [
        {
          "internalType": "uint256",
          "name": "amount",
          "type": "uint256"
        }
      ],
      "stateMutability": "view",
      "type": "function"
    },
    {
      "inputs": [
        {
          "internalType": "uint256",
          "name": "snapshotId",
          "type": "uint256"
        }
      ],
      "name": "unallocatedSeigniorageAt",
      "outputs": [
        {
          "internalType": "uint256",
          "name": "amount",
          "type": "uint256"
        }
      ],
      "stateMutability": "view",
      "type": "function"
    },
    {
      "inputs": [],
      "name": "updateSeigniorage",
      "outputs": [
        {
          "internalType": "bool",
          "name": "",
          "type": "bool"
        }
      ],
      "stateMutability": "nonpayable",
      "type": "function"
    },
    {
      "inputs": [
        {
          "internalType": "address",
          "name": "layer2",
          "type": "address"
        }
      ],
      "name": "updateSeigniorageLayer",
      "outputs": [
        {
          "internalType": "bool",
          "name": "",
          "type": "bool"
        }
      ],
      "stateMutability": "nonpayable",
      "type": "function"
    },
    {
      "inputs": [],
      "name": "updateSeigniorageOperator",
      "outputs": [
        {
          "internalType": "bool",
          "name": "",
          "type": "bool"
        }
      ],
      "stateMutability": "nonpayable",
      "type": "function"
    }
  ],
  "bytecode": "0x608080604052346100165761471c908161001c8239f35b600080fdfe60c060408181526004918236101561001657600080fd5b600092833560e01c91826301ffc9a714611912575081630c1da8df146118cf5781630ceb67801461181257816316b5d5bd146117e95781631785f53c146117bb5781631e1f0b601461171e5781631fbeab54146116e65781632428c628146116c9578163248a9ca31461169e57816324d7806c1461165857816325374a9a1461163957816325e90db41461161f5781632ab6f8db146116055781632f17250a1461150f5781632f2ff15d146114745781633092afd514611446578163311028af1461142757816336568abe14611395578163389ed2671461135a5781633c4911731461130a5781634101dd24146112ea5781634123196f146111ac5781634162169f146112c15781634631179e1461129857816350d2a2761461125457816351e1e1e614611218578163530adbb4146111ef578163550d01a3146111b1578163552033c4146111ac5781635998a8d71461118d5781635c975abb146111695781635f6fb8b9146111275781636304a6241461110857816363a8fd89146110e65781636c578c1d146110b85781636d70f7ae146110645781636e71186b146110455781637048027514610fa2578163715018a614610f7c57816375829def14610f5f578163764a785614610eee578163837afbc014610ed05781638f32d59b14610e9d57816391d1485414610e565781639473cafe14610d86578163983b2d5614610d365781639865027514610d1c5781639870d7fe14610c695781639b370dea14610c43578163a217fddf14610c28578163a415d8dc14610bd4578163a7dcc85014610bae578163aa271e1a14610b5a578163ac28e2ed14610b1f578163ac753a7a14610ae1578163ac8a584a14610ab3578163acd848fa14610a89578163b911135f14610a56578163baa12536146109f8578163bb0c8298146109d9578163bf7f4733146109ba578163c45a015514610991578163c5e2e74514610974578163ca6080891461091e578163cb7f9f0614610888578163cbfebe6214610850578163cf8f911014610827578163cfbd4885146107d7578163d0d2ff70146107b8578163d3099e1e1461070c578163d5391393146106e3578163d547741f146106a7578163d8c4796614610689578163df7fbef01461066a578163e2fe8fd114610632578163f2fde38b146104ee57508063f5b541a6146104c6578063f8229348146104a8578063f96032e61461048a578063f9bae41a1461046c5763fad8b32a146103a057600080fd5b346104685760209081600319360112610464576103bb611996565b906103cd6103c833611a24565b612111565b6000805160206146b083398151915292838552600581526103f360018387200154611a61565b838552600581528185206001600160a01b039093168086529281528185205460ff1661041d578480f35b8385526005815281852083865290528320805460ff1916905533917ff6391f5c32d9c69d2a47ea670b442974b53935d1edc7fd64eb21e047a839171b8480a4388080808480f35b8280fd5b5080fd5b50346104685781600319360112610468576020906027549051908152f35b50346104685781600319360112610468576020906021549051908152f35b5034610468578160031936011261046857602090601e549051908152f35b5034610468578160031936011261046857602090516000805160206146b08339815191528152f35b919050346104645760208060031936011261062e5761050b611996565b6105176103c833611a24565b6105236103c833611a24565b6001600160a01b03169283156105ed578333146105b357508380526005815261055160018386200154611a61565b83805260058152818420838552815260ff82852054161561057a575b8361057733611e38565b80f35b8380526005815281842083855290528220805460ff191660011790553390826000805160206146708339815191528180a438808061056d565b915162461bcd60e51b815291820152601660248201527520b1b1b2b9b9b4b136329d1039b0b6b29030b236b4b760511b6044820152606490fd5b915162461bcd60e51b815291820152601860248201527f41636365737369626c653a207a65726f206164647265737300000000000000006044820152606490fd5b8380fd5b5050346104685760203660031901126104685760209181906001600160a01b0361065a611996565b1681526018845220549051908152f35b5050346104685781600319360112610468576020906016549051908152f35b5050346104685781600319360112610468576020905162a55ec28152f35b9190503461046457806003193601126104645761057791356106de60016106cc6119b1565b93838752600560205286200154611a61565b612083565b505034610468578160031936011261046857602090516000805160206146908339815191528152f35b90503461046457602092836003193601126107a357600d548351630981b24d60e41b81528335938101849052908590829060249082906001600160a01b03165afa9182156107ad578092610776575b505061076961076f92612be6565b90612169565b9051908152f35b9091508482813d83116107a6575b61078e8183611e16565b810103126107a357505161076961076f61075b565b80fd5b503d610784565b8451903d90823e3d90fd5b5050346104685781600319360112610468576020906026549051908152f35b5050346104685760209081600319360112610464576107f4611996565b906108016103c833611a24565b60008051602061469083398151915292838552600581526103f360018387200154611a61565b50503461046857816003193601126104685760245490516001600160a01b039091168152602090f35b5050346104685760203660031901126104685760209181906001600160a01b03610878611996565b1681526017845220549051908152f35b905034610464578260031936011261046457600d5482516318160ddd60e01b81529160209183919082906001600160a01b03165afa9283156109135780936108da575b60208361076f86610769612a76565b9092506020833d821161090b575b816108f560209383611e16565b810103126107a3575061076f60209251926108cb565b3d91506108e8565b8251903d90823e3d90fd5b839150346104685760603660031901126104685761093a6119b1565b906044359283151584036107a35750916109589161097093356121ae565b946080979697949194939293519851988998896119ed565b0390f35b50503461046857816003193601126104685760209061076f612a76565b505034610468578160031936011261046857600c5490516001600160a01b039091168152602090f35b5050346104685781600319360112610468576020906023549051908152f35b505034610468578160031936011261046857602090601a549051908152f35b50503461046857602036600319011261046857610a3360ff610a18611996565b92848052600560205280852033865260205284205416612111565b60018060a01b03166bffffffffffffffffffffffff60a01b602554161760255580f35b9050346104645760203660031901126104645735825260016020908152918190205490516001600160a01b039091168152f35b505034610468578160031936011261046857602090516e09a130b963a6c115c3c7f4000000008152f35b83346107a35760203660031901126107a357610577610ad0611996565b610adc6103c833611a24565b611fc9565b5050346104685760203660031901126104685760209160ff9082906001600160a01b03610b0c611996565b1681526019855220541690519015158152f35b919050346104645760203660031901126104645760ff610b5391848052600560205280852033865260205284205416612111565b3560265580f35b5050346104685760203660031901126104685760ff81602093610b7b611996565b6000805160206146908339815191528252600586528282206001600160a01b039091168252855220549151911615158152f35b505034610468578160031936011261046857602090516a084595161401484a0000008152f35b5050346104685760203660031901126104685760ff81602093610bf5611996565b6000805160206146f08339815191528252600586528282206001600160a01b039091168252855220549151911615158152f35b50503461046857816003193601126104685751908152602090f35b5050346104685760203660031901126104685760209061076f610c64611996565b612a00565b505034610468576020908160031936011261046457610c86611996565b90610c936103c833611a24565b6000805160206146b08339815191529283855260058152610cb960018387200154611a61565b838552600581528185206001600160a01b039093168086529281528185205460ff1615610ce4578480f35b8385526005815281852083865290528320805460ff1916600117905533916000805160206146708339815191528480a4388080808480f35b83346107a357806003193601126107a35761057733612026565b505034610468576020908160031936011261046457610d53611996565b90610d606103c833611a24565b6000805160206146908339815191529283855260058152610cb960018387200154611a61565b8284346107a35760203660031901126107a357610da1611996565b6025546001600160a01b03919082163303610e465716808252602960205282822060285490805491828110610e3657602096507f911a0522d11ad8abe1817d2c0cba159e8c66d574f00fe392963de5ee5721ffe36060600184019586548951918252868b83015289820152a182610e1c575b86865160018152f35b8492610e2791612169565b60285555558280808080610e13565b855163098d90f760e01b81528790fd5b50505051638edaa31d60e01b8152fd5b9050346104645781600319360112610464578160209360ff92610e776119b1565b90358252600586528282206001600160a01b039091168252855220549151911615158152f35b50503461046857816003193601126104685760ff8183806020955260058552818120338252855220541690519015158152f35b50503461046857816003193601126104685760209081549051908152f35b905082346107a357806003193601126107a35750602a549060ff8216610f36575060ff19908116600117602a55602091610f2661327a565b91602a5416602a55519015158152f35b60649083519062461bcd60e51b82526020818301526024820152636c6f636b60e01b6044820152fd5b919050346104645760208060031936011261062e57610517611996565b83346107a357806003193601126107a357610f996103c833611a24565b61057733611e38565b505034610468576020908160031936011261046457610fbf611996565b91610fcc6103c833611a24565b83805260058152610fe260018386200154611a61565b838052600581528184206001600160a01b039093168085529281528184205460ff161561100d578380f35b8380526005815281842083855290528220805460ff191660011790553390826000805160206146708339815191528180a43880808380f35b5050346104685781600319360112610468576020906028549051908152f35b5050346104685760203660031901126104685760ff81602093611085611996565b6000805160206146b08339815191528252600586528282206001600160a01b039091168252855220549151911615158152f35b83346107a35760203660031901126107a3576105776110d5611996565b6110e16103c833611a24565b611f27565b50503461046857816003193601126104685760ff602092541690519015158152f35b505034610468578160031936011261046857602090601b549051908152f35b505034610468576020366003190112610468579081906001600160a01b0361114d611996565b1681526029602052206001815491015482519182526020820152f35b50503461046857816003193601126104685760209060ff601f541690519015158152f35b505034610468578160031936011261046857602090601c549051908152f35b6119c7565b5050346104685760203660031901126104685760209160ff9082906001600160a01b036111dc611996565b1681526002855220541690519015158152f35b505034610468578160031936011261046857602090516000805160206146f08339815191528152f35b8284346107a35760203660031901126107a3575061123c611237611996565b6128b8565b82516001600160a01b03909216825215156020820152f35b905034610464576020366003190112610464573563ffffffff60e01b811680910361046457825260036020908152918190205490516001600160a01b039091168152f35b505034610468578160031936011261046857602090516d08c815d5bcc20177de3b5d2500008152f35b50503461046857816003193601126104685760095490516001600160a01b039091168152602090f35b8284346107a35760203660031901126107a3575061076f60209235612be6565b505034610468576020908160031936011261046457611327611996565b906113346103c833611a24565b6000805160206146f083398151915292838552600581526103f360018387200154611a61565b505034610468578160031936011261046857602090517ffcb9fcbfa83b897fb2d5cf4b58962164105c1e71489a37ef3ae0db3fdce576f68152f35b839150346104685782600319360112610468576113b06119b1565b90336001600160a01b038316036113cc57906105779135612083565b608490602085519162461bcd60e51b8352820152602f60248201527f416363657373436f6e74726f6c3a2063616e206f6e6c792072656e6f756e636560448201526e103937b632b9903337b91039b2b63360891b6064820152fd5b5050346104685781600319360112610468576020906022549051908152f35b83346107a35760203660031901126107a357610577611463611996565b61146f6103c833611a24565b612026565b90503461046457816003193601126104645735906114906119b1565b9082845260056020526114a860018286200154611a61565b828452600560209081528185206001600160a01b039093168086529290528084205460ff16156114d6578380f35b82845260056020528084208285526020528320600160ff1982541617905533916000805160206146708339815191528480a43880808380f35b8383346104685760209283600319360112610464576001600160a01b0380611535611996565b845163570ca73560e01b8152911686828581845afa9182156115fb579160249188949388926115cc575b508752600e8452828688205416865195869485936370a0823160e01b855216908301525afa92831561091357809361159a575b505051908152f35b909192508382813d83116115c5575b6115b38183611e16565b810103126107a3575051908380611592565b503d6115a9565b6115ed919250853d87116115f4575b6115e58183611e16565b810190612899565b908961155f565b503d6115db565b85513d88823e3d90fd5b83346107a357806003193601126107a35761057733611fc9565b83346107a357806003193601126107a35761057733611f27565b505034610468578160031936011261046857602090601d549051908152f35b5050346104685760203660031901126104685760ff81602093611679611996565b818052600586528282206001600160a01b039091168252855220549151911615158152f35b9050346104645760203660031901126104645781602093600192358152600585522001549051908152f35b50503461046857816003193601126104685760209061076f61456c565b905082346107a357806003193601126107a35750602a549060ff8216610f36575060ff19908116600117602a55602091610f26612d53565b8284346107a35760203660031901126107a3578060206001600160a01b03611744611996565b1685855180948193633b253c2b60e11b83525af19182156117b05791611782575b5015611775576020905160018152f35b51630e2cca3560e01b8152fd5b6117a3915060203d81116117a9575b61179b8183611e16565b810190612176565b83611765565b503d611791565b8351903d90823e3d90fd5b83346107a35760203660031901126107a3576105776117d8611996565b6117e46103c833611a24565b611e38565b50503461046857816003193601126104685760255490516001600160a01b039091168152602090f35b905034610464576020918260031936011261062e5761182f611996565b9161183933611a24565b80156118a5575b1561186c57506000805160206146f08339815191529283855260058152610cb960018387200154611a61565b83606492519162461bcd60e51b835282015260156024820152743737ba1037b7363ca6b4b73a32b927b920b236b4b760591b6044820152fd5b50600080516020614690833981519152855260058452818520338652845260ff8286205416611840565b505034610468576020366003190112610468576118ef60ff610a18611996565b60018060a01b03166bffffffffffffffffffffffff60a01b602454161760245580f35b8491843461062e57602036600319011261062e5781359063ffffffff60e01b821680920361199257602094637965db0b60e01b8314938415611959575b5050505015158152f35b6301ffc9a760e01b841494509192909190841561197e575b505050508380808061194f565b60ff94508252855220541683808080611971565b8480fd5b600435906001600160a01b03821682036119ac57565b600080fd5b602435906001600160a01b03821682036119ac57565b346119ac5760003660031901126119ac576020604051676765c793fa10079d601b1b8152f35b94919260e0969399989794919961010087019a8752602087015260408601526060850152608084015260a083015260c08201520152565b6001600160a01b031660009081527f05b8ccbb9d4d8fb16ea74ce3c29a41f1b461fbdaff4714a0d9a8eb05499746bc602052604090205460ff1690565b60009080825260209060058252604090818420338552835260ff828520541615611a8b5750505050565b81519367ffffffffffffffff336060870182811188821017611d99578552602a87528587019385368637875115611d855760308553875191600192831015611d7157607860218a015360295b838111611d075750611cc55790855192608084019084821090821117611cb157865260428352868301936060368637835115611c9d57603085538351821015611c9d5790607860218501536041915b818311611c2f57505050611bed5792611bbb6048611bac9794611bdf946044989785519a8b93611b838b86019a7f416363657373436f6e74726f6c3a206163636f756e74200000000000000000008c525180926037880190611dad565b8401917001034b99036b4b9b9b4b733903937b6329607d1b603784015251809386840190611dad565b01036028810189520187611e16565b5194859362461bcd60e51b8552600485015251809281602486015285850190611dad565b601f01601f19168101030190fd5b60648585519062461bcd60e51b825280600483015260248201527f537472696e67733a20686578206c656e67746820696e73756666696369656e746044820152fd5b909192600f81166010811015611c89576f181899199a1a9b1b9c1cb0b131b232b360811b901a611c5f85876120ea565b5360041c928015611c7557600019019190611b26565b634e487b7160e01b82526011600452602482fd5b634e487b7160e01b83526032600452602483fd5b634e487b7160e01b81526032600452602490fd5b634e487b7160e01b85526041600452602485fd5b60648787519062461bcd60e51b825280600483015260248201527f537472696e67733a20686578206c656e67746820696e73756666696369656e746044820152fd5b90600f81166010811015611d5d576f181899199a1a9b1b9c1cb0b131b232b360811b901a611d35838c6120ea565b5360041c908015611d495760001901611ad7565b634e487b7160e01b86526011600452602486fd5b634e487b7160e01b87526032600452602487fd5b634e487b7160e01b85526032600452602485fd5b634e487b7160e01b84526032600452602484fd5b634e487b7160e01b84526041600452602484fd5b60005b838110611dc05750506000910152565b8181015183820152602001611db0565b6040810190811067ffffffffffffffff821117611dec57604052565b634e487b7160e01b600052604160045260246000fd5b67ffffffffffffffff8111611dec57604052565b90601f8019910116810190811067ffffffffffffffff821117611dec57604052565b6001600160a01b0316338103611eca5760008181527f05b8ccbb9d4d8fb16ea74ce3c29a41f1b461fbdaff4714a0d9a8eb05499746bc602052604081205490919060ff16611e84575050565b8180526005602052604082208183526020526040822060ff19815416905533917ff6391f5c32d9c69d2a47ea670b442974b53935d1edc7fd64eb21e047a839171b8180a4565b60405162461bcd60e51b815260206004820152602f60248201527f416363657373436f6e74726f6c3a2063616e206f6e6c792072656e6f756e636560448201526e103937b632b9903337b91039b2b63360891b6064820152608490fd5b6001600160a01b0316338103611eca5760008181527fedec71783a10810e436f3392a073a61717130e573433fcc6591c3061a012f76760205260408120549091906000805160206146f08339815191529060ff16611f8457505050565b8083526005602052604083208284526020526040832060ff1981541690557ff6391f5c32d9c69d2a47ea670b442974b53935d1edc7fd64eb21e047a839171b339380a4565b6001600160a01b0316338103611eca5760008181527f02634a7c777b8129955fe1824eee49ef19dfa96f2f4cb63212492c3d84eb58e660205260408120549091906000805160206146b08339815191529060ff16611f8457505050565b6001600160a01b0316338103611eca5760008181527fca0a2f641ec05ca23127d994cf03ffc453db616acae0b86cb56bb95304d0685460205260408120549091906000805160206146908339815191529060ff16611f8457505050565b906000918083526005602052604083209160018060a01b03169182845260205260ff604084205416611f8457505050565b818102929181159184041417156120c757565b634e487b7160e01b600052601160045260246000fd5b919082018092116120c757565b9081518110156120fb570160200190565b634e487b7160e01b600052603260045260246000fd5b1561211857565b60405162461bcd60e51b815260206004820152602360248201527f41757468436f6e74726f6c3a2043616c6c6572206973206e6f7420616e20616460448201526236b4b760e91b6064820152608490fd5b919082039182116120c757565b908160209103126119ac575180151581036119ac5790565b8115612198570490565b634e487b7160e01b600052601260045260246000fd5b9092600060805260009160009160009160009160009160115498898211801590612716575b6126f057896121e560049a9b84612169565b906013549081116126d9575b50600d546040516318160ddd60e01b81529a6020918c919082906001600160a01b03165afa998a1561261f5760009a6126a5575b5061223360105480926120b4565b9a602154801560001461269b575061229762a55ec2925b6022548061269157506122916e09a130b963a6c115c3c7f400000000915b60235480612687575061228b6d08c815d5bcc20177de3b5d250000965b89612169565b906120b4565b906120dd565b600a546040516370a0823160e01b81526001600482015291939190602090829060249082906001600160a01b03165afa90811561261f57600091612655575b5080633b9aca00810204633b9aca0014811517156120c757676765c793fa10079d601b1b61232e8f928f966123349561231c61232192633b9aca00612329950290612169565b612169565b9687946127e0565b612784565b04612853565b60805260009160009360265460018060a01b03821660005260296020526040600020966001604051986123668a611dd0565b80548a52015460208901528115612641575b6025546001600160a01b031615159182612635575b8261262b575b505061254a575b5050868c6080516123aa91612169565b906123b491612169565b601d548060a0526123c4916127e0565b6123cd90612784565b676765c793fa10079d601b1b9004809b6080516123e9916120dd565b906123f3916120dd565b50868c60805161240291612169565b9061240c91612169565b600854909b906001600160a01b0316612525575b6009546001600160a01b0316612500575b60a0516124f8575b5060275492612449575b50505050565b861580156124c7575b5082151591826124aa575b5050806124a0575b612471575b8080612443565b61249892935061248f602091670de0b6b3a7640000845104906120b4565b91015190612169565b90388061246a565b5081511515612465565b90915081156124bc575b50388061245d565b9050825111386124b4565b9092670de0b6b3a764000091828902928984041417156120c7576122916124f1926028549061218e565b9138612452565b975038612439565b9850676765c793fa10079d601b1b61251e6123298d601c54906127e0565b0498612431565b9950676765c793fa10079d601b1b6125436123298d601b54906127e0565b0499612420565b6125559194506128b8565b9390841561239a576024805460405163c81ae6db60e01b81526001600160a01b0393841660048201529395506020928492918391165afa90811561261f576000916125ed575b509160285490811561239a579080929850633b9aca00810204633b9aca0014821517156120c757676765c793fa10079d601b1b61232e6123298f633b9aca006125e59602906127e0565b95388061239a565b90506020813d602011612617575b8161260860209383611e16565b810103126119ac57513861259b565b3d91506125fb565b6040513d6000823e3d90fd5b1090503880612393565b6001811415925061238d565b905060001981018181116120c75790612378565b90506020813d60201161267f575b8161267060209383611e16565b810103126119ac5751386122d6565b3d9150612663565b61228b9096612285565b6122919091612268565b612297909261224a565b9099506020813d6020116126d1575b816126c160209383611e16565b810103126119ac57519838612225565b3d91506126b4565b906107696126ea9260125490612169565b386121f1565b505096505050505050506000906000608052600090600090600090600090600090600090565b50600d546040516318160ddd60e01b815290602090829060049082906001600160a01b03165afa90811561261f57600091612753575b50156121d3565b90506020813d821161277c575b8161276d60209383611e16565b810103126119ac57513861274c565b3d9150612760565b906b019d971e4fe8401e740000008201918281116120c75782106127a457565b60405162461bcd60e51b815260206004820152601460248201527364732d6d6174682d6164642d6f766572666c6f7760601b6044820152606490fd5b600092918015918215612833575b5050156127f757565b60405162461bcd60e51b815260206004820152601460248201527364732d6d6174682d6d756c2d6f766572666c6f7760601b6044820152606490fd5b9150925061284b61284484836120b4565b938461218e565b1438806127ee565b90676765c793fa10079d601b1b91828102928184048114821517156120c7578304036127f7576128868160011c836120dd565b9182106127a4576128969161218e565b90565b908160209103126119ac57516001600160a01b03811681036119ac5790565b9060008060018060a01b0380602554166040918083519763570ca73560e01b8952886004816020958694165afa9788156129d75786986129e1575b50835163a37d6aa760e01b815297811660048901528188602481865afa9788156129d75786986129b8575b5087168061292e57505050505090565b8190602485969897955180958193633cd0737560e11b835260048301525afa9384156129af57508293612971575b50505060ff1660011461296b57565b60019150565b9080929350813d83116129a8575b6129898183611e16565b8101031261046857519060ff821682036107a3575060ff60013861295c565b503d61297f565b513d84823e3d90fd5b6129d0919850823d84116115f4576115e58183611e16565b963861291e565b84513d88823e3d90fd5b6129f9919850823d84116115f4576115e58183611e16565b96386128f3565b6001600160a01b0316600090815260296020526040808220905191929190612a2782611dd0565b602060018254928385520154920191825280612a41575050565b612896929350612a5f90670de0b6b3a76400006027549104906120b4565b905190612169565b60001981146120c75760010190565b60065460408051630d42d49760e01b81526000939290919060049085906020906001600160a01b0390811682878681845afa968715612bdc578497612bad575b50835b878110612aca575050505050505050565b865163b7ffb17960e01b81528681018290528481602481865afa908115612b86579084918791612b90575b50168552600e845282878620541680612b18575b50612b1390612a67565b612ab9565b848791899c939c51928380926318160ddd60e01b82525afa908115612b86578691612b53575b50612b4c90612b13926120dd565b9990612b09565b90508481813d8311612b7f575b612b6a8183611e16565b81010312612b7b5751612b13612b3e565b8580fd5b503d612b60565b88513d88823e3d90fd5b612ba79150863d88116115f4576115e58183611e16565b38612af5565b9096508281813d8311612bd5575b612bc58183611e16565b8101031261062e57519538612ab6565b503d612bbb565b86513d86823e3d90fd5b60065460408051630d42d49760e01b81526000949290919060049086906020906001600160a01b0390811682878681845afa968715612bdc578497612d24575b50835b878110612c3c5750505050505050509050565b865163b7ffb17960e01b815286810182905260249085818381875afa908115612d1a579085918891612cfd575b50168652600e85528388872054169081612c8e575b5050612c8990612a67565b612c29565b8b86918a9e949e5180948193630981b24d60e41b83528c8301525afa908115612b86578691612cce575b50612cc690612c89926120dd565b9a9038612c7e565b90508481813d8311612cf6575b612ce58183611e16565b81010312612b7b5751612c89612cb8565b503d612cdb565b612d149150873d89116115f4576115e58183611e16565b38612c69565b89513d89823e3d90fd5b9096508281813d8311612d4c575b612d3c8183611e16565b8101031261062e57519538612c26565b503d612d32565b600060ff601f541661327457338152600e60209081526040808320546001600160a01b03929083169182156132645760115443111561325457805163570ca73560e01b81529160049080848381335afa93841561324a57879461322b575b5082516370a0823160e01b80825285881684830152969082816024818a5afa9081156131a55789916131fe575b50601a54116131ee57612def61357f565b156131de57338852600f825283882043905583516318160ddd60e01b815296828885818a5afa9788156131a55789986131af575b508282600d5416916024875180948193825233898301525afa9081156131a5578991613174575b50808810156131425787612e5d91612169565b923389526015835260ff858a20541696612e7b8789878c8533613362565b9790988751630a9ee07f60e31b815286818681875afa9081156130fc578c8e928d8a938592613106575b5061232e612329612ec39493676765c793fa10079d601b1b936127e0565b60248b518094819363817e9d3160e01b83528a830152885af180156130fc57889492889694928c926130df575b5081612fdb575b5050600b546007548a516340c10f1960e01b81529088166001600160a01b031694810194855260208501959095529395869416928492508d915082906040015b03925af18015612fd1579160a0979593917f9f0aff7defc0f0b331d66bccf1955a699b40155565289317e38b9799ddf0944899979593612fb4575b508251967f521cc65179761533a7c8d7a973291dd7baebb99a67edf5ef78e9c2b61a533d95339180a233875286015284015260608301526080820152a1600190565b612fca90823d84116117a95761179b8183611e16565b5038612f72565b84513d8a823e3d90fd5b939592945090921561306f575050813b1561306b57865163079cc67960e41b81526001600160a01b039091168382019081526020810189905290918b9183919082908490829060400103925af1801561306157613046575b5083612f379284925b9093388981612ef7565b612f379284929a6130578793611e02565b9a92509250613033565b86513d8c823e3d90fd5b8a80fd5b88516340c10f1960e01b81526001600160a01b0390931685840190815260208101919091529192909183919082908e90829060400103925af18015613061579284928692612f37956130c2575b5061303c565b6130d890853d87116117a95761179b8183611e16565b50386130bc565b6130f590883d8a116117a95761179b8183611e16565b5038612ef0565b89513d8f823e3d90fd5b945050505081813d831161313b575b61311f8183611e16565b8101031261313757518c9087908d908d61232e612ea5565b8c80fd5b503d613115565b50505050505050507f521cc65179761533a7c8d7a973291dd7baebb99a67edf5ef78e9c2b61a533d95339180a2600190565b90508281813d831161319e575b61318b8183611e16565b8101031261319a575138612e4a565b8880fd5b503d613181565b85513d8b823e3d90fd5b9097508281813d83116131d7575b6131c78183611e16565b8101031261319a57519638612e23565b503d6131bd565b835163e9d168a160e01b81528390fd5b8351631c635dad60e11b81528390fd5b90508281813d8311613224575b6132158183611e16565b8101031261319a575138612dde565b503d61320b565b816132439295503d86116115f4576115e58183611e16565b9238612db1565b83513d89823e3d90fd5b516323e3786760e01b8152600490fd5b51635e06a79560e11b8152600490fd5b50600190565b600060ff601f541661327457338152600e60209081526040808320546001600160a01b03929083169182156132645760115443111561325457805163570ca73560e01b81529160049080848381335afa93841561324a578794613343575b5082516370a0823160e01b80825285881684830152969082816024818a5afa9081156131a5578991613316575b50601a54116131ee57612def613db0565b90508281813d831161333c575b61332d8183611e16565b8101031261319a575138613305565b503d613323565b8161335b9295503d86116115f4576115e58183611e16565b92386132d8565b95939491959290926000809460018060a01b038093168652602060178152604093848820548015159081613574575b50613535575b6014825284882054966133aa878d6120dd565b9a881561352557156134f5578b156134e65785516370a0823160e01b8152908216600482015292829184916024918391165afa9384156134dd575086936134ad575b505081156134a457506123296134086123299861342a93612853565b938493613424676765c793fa10079d601b1b9a8b9687936127e0565b046127e0565b0485821495866000146134705761344f94959682945b501561345357509050936120dd565b9190565b61346361232961346a94866127e0565b04906120dd565b936120dd565b828103968188116134905761348a61344f96979884612853565b94613440565b634e487b7160e01b85526011600452602485fd5b95965050505050565b9080929350813d83116134d6575b6134c58183611e16565b8101031261199257519038806133ec565b503d6134bb565b513d88823e3d90fd5b50505050965050505050909190565b50505050505061344f93949550676765c793fa10079d601b1b925061351d91612329916127e0565b048093612169565b5050505050505050509250909190565b601882528488205460148352858920556019825260ff8589205416601583528589209060ff801983541691151516179055601782528785812055613397565b905043101538613391565b601154431115613dab57600d546040516318160ddd60e01b81526001600160a01b0390911690602081600481855afa90811561261f57600091613d79575b5015613d6f576040516318160ddd60e01b8152602081600481855afa90811561261f57600091613d3d575b5061360f6011546135f98143612169565b90601354908111613d26575b50601054906120b4565b9161361861456c565b9161363683676765c793fa10079d601b1b61232e61232985896127e0565b906000809481948290839460018060a01b0360255416913386526029602052604086209160016040519361366985611dd0565b805485520154602084015260265415613cfa575b8b84151580613ced575b80613ce2575b613bb7575b6136bb6123296136b28a61231c8e676765c793fa10079d601b1b96612169565b601d54906127e0565b04956136d0876136cb8c856120dd565b6120dd565b9243601155604051630a9ee07f60e31b8152602081600481855afa90811561261f57600091613b84575b5083929160246137228796676765c793fa10079d601b1b61232e61232960209760009c6127e0565b604051978893849263817e9d3160e01b845260048401525af193841561261f57600494613b65575b50600d546040516318160ddd60e01b81529460209186919082906001600160a01b03165afa93841561261f57600094613b30575b50917f41a79a497d1457df24c25ab99f22349ae9aef4468429f0a781216e8dcf80c6289391608093604051938452602084015260408301526060820152a16137ca8561231c898d612169565b976000928394849660018060a01b03600b541689613ac8575b6008546001600160a01b03168d81613a3b575b50506009546001600160a01b03168d816139a8575b505050601d54613991575b5061384e575b5050506000805160206146d083398151915297509061384694939291604051978897339b896119ed565b0390a2600190565b86613957575b3360005260296020526040600020916027546138a6575b5050613846969594939291612a5f8b6000805160206146d08339815191529c61389794556028546120dd565b6028559091929394388061381c565b9097506138b233612a00565b97881561386b578098979695949391983b156119ac5760405163c5f16b8960e01b81526001600160a01b039990991660048a0152602489018890526000908990604490829084905af197881561261f578b6000805160206146d08339815191529c61389794612a5f936138469c613948575b50600181016139348c82546120dd565b90559450509b50819394959697985061386b565b61395190611e02565b38613924565b670de0b6b3a764000087818102048114881517156120c75761398161398991602854908a0261218e565b6027546120dd565b602755613854565b965061399f87601e546120dd565b601e5538613816565b613a0692995090676765c793fa10079d601b1b6139cd612329602094601c54906127e0565b6040516340c10f1960e01b81526001600160a01b0390931660048401520460248201819052999092839190829060009082906044820190565b03925af1801561261f57613a1c575b808d61380b565b613a349060203d6020116117a95761179b8183611e16565b5038613a15565b613a91919850676765c793fa10079d601b1b613a5f612329602093601b54906127e0565b6040516340c10f1960e01b81526001600160a01b03909b1660048c01520460248a018190529891829081906044820190565b03816000865af1801561261f57613aa9575b8d6137f6565b613ac19060203d6020116117a95761179b8183611e16565b5038613aa3565b6040516340c10f1960e01b81526001600160a01b0385166004820152602481018b90526020816044818b865af18015613b2557613b06575b506137e3565b613b1e9060203d6020116117a95761179b8183611e16565b5038613b00565b6040513d8a823e3d90fd5b90936020823d602011613b5d575b81613b4b60209383611e16565b810103126107a357505192608061377e565b3d9150613b3e565b613b7d9060203d6020116117a95761179b8183611e16565b503861374a565b906020823d602011613baf575b81613b9e60209383611e16565b810103126107a357505160006136fa565b3d9150613b91565b5093509750613bc5336128b8565b909890938985613c5c575b50888c6028548015908115613be9575b50509050613692565b9250929394959697989050633b9aca0092828481020484141715613c4857506136bb6123296136b28f61231c613c3d8f9d676765c793fa10079d601b1b61232e829f9e9d9c9b9a61232990839b02876127e0565b9c9550509250613be0565b634e487b7160e01b81526011600452602490fd5b6024805460405163c81ae6db60e01b81526001600160a01b039384166004820152939d506020928492918391165afa908115613cd7578791613ca1575b509938613bd0565b90506020813d602011613ccf575b81613cbc60209383611e16565b81010312613ccb575138613c99565b8680fd5b3d9150613caf565b6040513d89823e3d90fd5b50436026541061368d565b5060016026541415613687565b43600019810111613d1257436000190160265561367d565b634e487b7160e01b87526011600452602487fd5b90610769613d379260125490612169565b38613605565b906020823d602011613d67575b81613d5760209383611e16565b810103126107a3575051386135e8565b3d9150613d4a565b5043601155600090565b906020823d602011613da3575b81613d9360209383611e16565b810103126107a3575051386135bd565b3d9150613d86565b600090565b601154431115613dab57600d546040516318160ddd60e01b81526001600160a01b0390911690602081600481855afa90811561261f5760009161453a575b5015613d6f576040516318160ddd60e01b8152602081600481855afa90811561261f57600091614508575b50613e2a6011546135f98143612169565b91613e3361456c565b91613e5183676765c793fa10079d601b1b61232e61232985896127e0565b906000809481948290839460018060a01b03602554169133865260296020526040862091600160405193613e8485611dd0565b8054855201546020840152602654156144f0575b8b841515806144e3575b806144d8575b6143d0575b613ecd6123296136b28a61231c8e676765c793fa10079d601b1b96612169565b0495613edd876136cb8c856120dd565b9243601155604051630a9ee07f60e31b8152602081600481855afa90811561261f5760009161439d575b508392916024613f2f8796676765c793fa10079d601b1b61232e61232960209760009c6127e0565b604051978893849263817e9d3160e01b845260048401525af193841561261f5760049461437e575b50600d546040516318160ddd60e01b81529460209186919082906001600160a01b03165afa93841561261f57600094614349575b50917f41a79a497d1457df24c25ab99f22349ae9aef4468429f0a781216e8dcf80c6289391608093604051938452602084015260408301526060820152a1613fd78561231c898d612169565b976000928394849660018060a01b03600b5416896142ec575b6008546001600160a01b03168d81614291575b50506009546001600160a01b03168d81614237575b505050601d54614220575b50614052575050506000805160206146d083398151915297509061384694939291604051978897339b896119ed565b866141ef575b3360005260296020526040600020916027548061409d575b505050613846969594939291612a5f8b6000805160206146d08339815191529c61389794556028546120dd565b8c859a92939a51116000146141915750506140b733612a00565b97886140f3575b5050613846969594939291612a5f8b6000805160206146d08339815191529c613897945b94509c508294959697989950614070565b8098979695949391983b156119ac5760405163c5f16b8960e01b81526001600160a01b039990991660048a0152602489018890526000908990604490829084905af197881561261f578b6000805160206146d08339815191529c61389794612a5f936138469c614182575b506001810161416e8c82546120dd565b90559450509b5081939495969798506140be565b61418b90611e02565b3861415e565b6138469950612a5f91989796959492509b80613897946000805160206146d08339815191529e600f602052604060002054156141ce575b506140e2565b6141e3670de0b6b3a7640000918751906120b4565b046001820155386141c8565b670de0b6b3a76400008088029088820414881517156120c757613981614218916028549061218e565b602755614058565b965061422e87601e546120dd565b601e5538614023565b61425c92995090676765c793fa10079d601b1b6139cd612329602094601c54906127e0565b03925af1801561261f57614272575b808d614018565b61428a9060203d6020116117a95761179b8183611e16565b503861426b565b6142b5919850676765c793fa10079d601b1b613a5f612329602093601b54906127e0565b03816000865af1801561261f576142cd575b8d614003565b6142e59060203d6020116117a95761179b8183611e16565b50386142c7565b6040516340c10f1960e01b81526001600160a01b0385166004820152602481018b90526020816044818b865af18015613b255761432a575b50613ff0565b6143429060203d6020116117a95761179b8183611e16565b5038614324565b90936020823d602011614376575b8161436460209383611e16565b810103126107a3575051926080613f8b565b3d9150614357565b6143969060203d6020116117a95761179b8183611e16565b5038613f57565b906020823d6020116143c8575b816143b760209383611e16565b810103126107a35750516000613f07565b3d91506143aa565b50935097506143de336128b8565b909890938985614461575b50888c6028548015908115614402575b50509050613ead565b9250929394959697989050633b9aca0092828481020484141715613c485750613ecd6123296136b28f61231c6144568f9d676765c793fa10079d601b1b61232e829f9e9d9c9b9a61232990839b02876127e0565b9c95505092506143f9565b6024805460405163c81ae6db60e01b81526001600160a01b039384166004820152939d506020928492918391165afa908115613cd75787916144a6575b5099386143e9565b90506020813d6020116144d0575b816144c160209383611e16565b81010312613ccb57513861449e565b3d91506144b4565b504360265410613ea8565b5060016026541415613ea2565b43600019810111613d12574360001901602655613e98565b906020823d602011614532575b8161452260209383611e16565b810103126107a357505138613e19565b3d9150614515565b906020823d602011614564575b8161455460209383611e16565b810103126107a357505138613dee565b3d9150614547565b602154806146675750602462a55ec25b6022548061465e57506145c36e09a130b963a6c115c3c7f4000000005b6023548061465457506122916d08c815d5bcc20177de3b5d250000935b61228b6010549143612169565b600a546040516370a0823160e01b8152600160048201529360209185919082906001600160a01b03165afa92831561261f57600093614621575b50633b9aca00928381029381850414901517156120c7576128969261231c91612169565b90926020823d821161464c575b8161463b60209383611e16565b810103126107a357505191386145fd565b3d915061462e565b61229190936145b6565b6145c390614599565b60249061457c56fe2f8788117e7eff1d82e926ec794901d17c78024a50270940304540a733656f0df0887ba65ee2024ea881d91b74c2450ef19e1557f03bed3ea9f16b037cbe2dc9523a704056dcd17bcf83bed8b68c59416dac1119be77755efe3bde0a64e46e0c497e03b12fad3ff21a8befe15ca84c3fc0060b505e572702bf6788e900252007bf02bad7114723a857a3af46cea17b778a3a951c96f183784d9a2448cc479ab6a164736f6c6343000813000a",
  "linkReferences": {},
  "deployedLinkReferences": {}
}