{
  "_format": "hh-sol-artifact-1",
  "contractName": "SeigManagerV1_3",
  "sourceName": "contracts/stake/managers/SeigManagerV1_3.sol",
  "abi": [
    {
      "anonymous": false,
      "inputs": [
        {
          "indexed": false,
          "internalType": "address",
          "name": "layer2",
          "type": "address"
        },
        {
          "indexed": false,
          "internalType": "uint256",
          "name": "seigs",
          "type": "uint256"
        },
        {
          "indexed": false,
          "internalType": "uint256",
          "name": "operatorSeigs",
          "type": "uint256"
        },
        {
          "indexed": false,
          "internalType": "uint256",
          "name": "nextTotalSupply",
          "type": "uint256"
        },
        {
          "indexed": false,
          "internalType": "uint256",
          "name": "prevTotalSupply",
          "type": "uint256"
        }
      ],
      "name": "AddedSeigAtLayer",
      "type": "event"
    },
    {
      "anonymous": false,
      "inputs": [
        {
          "indexed": true,
          "internalType": "address",
          "name": "layer2",
          "type": "address"
        }
      ],
      "name": "Comitted",
      "type": "event"
    },
    {
      "anonymous": false,
      "inputs": [
        {
          "indexed": false,
          "internalType": "uint256",
          "name": "totalStakedAmount",
          "type": "uint256"
        },
        {
          "indexed": false,
          "internalType": "uint256",
          "name": "totalSupplyOfWTON",
          "type": "uint256"
        },
        {
          "indexed": false,
          "internalType": "uint256",
          "name": "prevTotalSupply",
          "type": "uint256"
        },
        {
          "indexed": false,
          "internalType": "uint256",
          "name": "nextTotalSupply",
          "type": "uint256"
        }
      ],
      "name": "CommitLog1",
      "type": "event"
    },
    {
      "anonymous": false,
      "inputs": [
        {
          "indexed": false,
          "internalType": "address",
          "name": "layer2",
          "type": "address"
        },
        {
          "indexed": false,
          "internalType": "uint256",
          "name": "layer2Tvl",
          "type": "uint256"
        },
        {
          "indexed": false,
          "internalType": "uint256",
          "name": "initialDebt",
          "type": "uint256"
        }
      ],
      "name": "ExcludedFromSeigniorage",
      "type": "event"
    },
    {
      "anonymous": false,
      "inputs": [
        {
          "indexed": true,
          "internalType": "bytes32",
          "name": "role",
          "type": "bytes32"
        },
        {
          "indexed": true,
          "internalType": "bytes32",
          "name": "previousAdminRole",
          "type": "bytes32"
        },
        {
          "indexed": true,
          "internalType": "bytes32",
          "name": "newAdminRole",
          "type": "bytes32"
        }
      ],
      "name": "RoleAdminChanged",
      "type": "event"
    },
    {
      "anonymous": false,
      "inputs": [
        {
          "indexed": true,
          "internalType": "bytes32",
          "name": "role",
          "type": "bytes32"
        },
        {
          "indexed": true,
          "internalType": "address",
          "name": "account",
          "type": "address"
        },
        {
          "indexed": true,
          "internalType": "address",
          "name": "sender",
          "type": "address"
        }
      ],
      "name": "RoleGranted",
      "type": "event"
    },
    {
      "anonymous": false,
      "inputs": [
        {
          "indexed": true,
          "internalType": "bytes32",
          "name": "role",
          "type": "bytes32"
        },
        {
          "indexed": true,
          "internalType": "address",
          "name": "account",
          "type": "address"
        },
        {
          "indexed": true,
          "internalType": "address",
          "name": "sender",
          "type": "address"
        }
      ],
      "name": "RoleRevoked",
      "type": "event"
    },
    {
      "anonymous": false,
      "inputs": [
        {
          "indexed": true,
          "internalType": "address",
          "name": "layer2",
          "type": "address"
        },
        {
          "indexed": false,
          "internalType": "uint256",
          "name": "totalSeig",
          "type": "uint256"
        },
        {
          "indexed": false,
          "internalType": "uint256",
          "name": "stakedSeig",
          "type": "uint256"
        },
        {
          "indexed": false,
          "internalType": "uint256",
          "name": "unstakedSeig",
          "type": "uint256"
        },
        {
          "indexed": false,
          "internalType": "uint256",
          "name": "powertonSeig",
          "type": "uint256"
        },
        {
          "indexed": false,
          "internalType": "uint256",
          "name": "daoSeig",
          "type": "uint256"
        },
        {
          "indexed": false,
          "internalType": "uint256",
          "name": "pseig",
          "type": "uint256"
        }
      ],
      "name": "SeigGiven",
      "type": "event"
    },
    {
      "anonymous": false,
      "inputs": [
        {
          "indexed": true,
          "internalType": "address",
          "name": "layer2",
          "type": "address"
        },
        {
          "indexed": false,
          "internalType": "uint256",
          "name": "totalSeig",
          "type": "uint256"
        },
        {
          "indexed": false,
          "internalType": "uint256",
          "name": "stakedSeig",
          "type": "uint256"
        },
        {
          "indexed": false,
          "internalType": "uint256",
          "name": "unstakedSeig",
          "type": "uint256"
        },
        {
          "indexed": false,
          "internalType": "uint256",
          "name": "powertonSeig",
          "type": "uint256"
        },
        {
          "indexed": false,
          "internalType": "uint256",
          "name": "daoSeig",
          "type": "uint256"
        },
        {
          "indexed": false,
          "internalType": "uint256",
          "name": "pseig",
          "type": "uint256"
        },
        {
          "indexed": false,
          "internalType": "uint256",
          "name": "l2TotalSeigs",
          "type": "uint256"
        },
        {
          "indexed": false,
          "internalType": "uint256",
          "name": "layer2Seigs",
          "type": "uint256"
        }
      ],
      "name": "SeigGiven2",
      "type": "event"
    },
    {
      "inputs": [],
      "name": "BURNT_AMOUNT_MAINNET",
      "outputs": [
        {
          "internalType": "uint256",
          "name": "",
          "type": "uint256"
        }
      ],
      "stateMutability": "view",
      "type": "function"
    },
    {
      "inputs": [],
      "name": "CHALLENGER_ROLE",
      "outputs": [
        {
          "internalType": "bytes32",
          "name": "",
          "type": "bytes32"
        }
      ],
      "stateMutability": "view",
      "type": "function"
    },
    {
      "inputs": [],
      "name": "DEFAULT_ADMIN_ROLE",
      "outputs": [
        {
          "internalType": "bytes32",
          "name": "",
          "type": "bytes32"
        }
      ],
      "stateMutability": "view",
      "type": "function"
    },
    {
      "inputs": [],
      "name": "INITIAL_TOTAL_SUPPLY_MAINNET",
      "outputs": [
        {
          "internalType": "uint256",
          "name": "",
          "type": "uint256"
        }
      ],
      "stateMutability": "view",
      "type": "function"
    },
    {
      "inputs": [],
      "name": "MAX_VALID_COMMISSION",
      "outputs": [
        {
          "internalType": "uint256",
          "name": "",
          "type": "uint256"
        }
      ],
      "stateMutability": "view",
      "type": "function"
    },
    {
      "inputs": [],
      "name": "MINTER_ROLE",
      "outputs": [
        {
          "internalType": "bytes32",
          "name": "",
          "type": "bytes32"
        }
      ],
      "stateMutability": "view",
      "type": "function"
    },
    {
      "inputs": [],
      "name": "MIN_VALID_COMMISSION",
      "outputs": [
        {
          "internalType": "uint256",
          "name": "",
          "type": "uint256"
        }
      ],
      "stateMutability": "view",
      "type": "function"
    },
    {
      "inputs": [],
      "name": "OPERATOR_ROLE",
      "outputs": [
        {
          "internalType": "bytes32",
          "name": "",
          "type": "bytes32"
        }
      ],
      "stateMutability": "view",
      "type": "function"
    },
    {
      "inputs": [],
      "name": "PAUSE_ROLE",
      "outputs": [
        {
          "internalType": "bytes32",
          "name": "",
          "type": "bytes32"
        }
      ],
      "stateMutability": "view",
      "type": "function"
    },
    {
      "inputs": [],
      "name": "RAY",
      "outputs": [
        {
          "internalType": "uint256",
          "name": "",
          "type": "uint256"
        }
      ],
      "stateMutability": "view",
      "type": "function"
    },
    {
      "inputs": [],
      "name": "SEIG_START_MAINNET",
      "outputs": [
        {
          "internalType": "uint256",
          "name": "",
          "type": "uint256"
        }
      ],
      "stateMutability": "view",
      "type": "function"
    },
    {
      "inputs": [],
      "name": "accRelativeSeig",
      "outputs": [
        {
          "internalType": "uint256",
          "name": "",
          "type": "uint256"
        }
      ],
      "stateMutability": "view",
      "type": "function"
    },
    {
      "inputs": [
        {
          "internalType": "address",
          "name": "account",
          "type": "address"
        }
      ],
      "name": "addAdmin",
      "outputs": [],
      "stateMutability": "nonpayable",
      "type": "function"
    },
    {
      "inputs": [
        {
          "internalType": "address",
          "name": "account",
          "type": "address"
        }
      ],
      "name": "addChallenger",
      "outputs": [],
      "stateMutability": "nonpayable",
      "type": "function"
    },
    {
      "inputs": [
        {
          "internalType": "address",
          "name": "account",
          "type": "address"
        }
      ],
      "name": "addMinter",
      "outputs": [],
      "stateMutability": "nonpayable",
      "type": "function"
    },
    {
      "inputs": [
        {
          "internalType": "address",
          "name": "account",
          "type": "address"
        }
      ],
      "name": "addOperator",
      "outputs": [],
      "stateMutability": "nonpayable",
      "type": "function"
    },
    {
      "inputs": [],
      "name": "adjustCommissionDelay",
      "outputs": [
        {
          "internalType": "uint256",
          "name": "",
          "type": "uint256"
        }
      ],
      "stateMutability": "view",
      "type": "function"
    },
    {
      "inputs": [
        {
          "internalType": "address",
          "name": "",
          "type": "address"
        }
      ],
      "name": "aliveImplementation",
      "outputs": [
        {
          "internalType": "bool",
          "name": "",
          "type": "bool"
        }
      ],
      "stateMutability": "view",
      "type": "function"
    },
    {
      "inputs": [
        {
          "internalType": "address",
          "name": "layer2",
          "type": "address"
        }
      ],
      "name": "allowIssuanceLayer2Seigs",
      "outputs": [
        {
          "internalType": "address",
          "name": "systemConfig",
          "type": "address"
        },
        {
          "internalType": "bool",
          "name": "allowed",
          "type": "bool"
        }
      ],
      "stateMutability": "view",
      "type": "function"
    },
    {
      "inputs": [],
      "name": "burntAmountAtDAO",
      "outputs": [
        {
          "internalType": "uint256",
          "name": "",
          "type": "uint256"
        }
      ],
      "stateMutability": "view",
      "type": "function"
    },
    {
      "inputs": [],
      "name": "dao",
      "outputs": [
        {
          "internalType": "address",
          "name": "",
          "type": "address"
        }
      ],
      "stateMutability": "view",
      "type": "function"
    },
    {
      "inputs": [],
      "name": "daoSeigRate",
      "outputs": [
        {
          "internalType": "uint256",
          "name": "",
          "type": "uint256"
        }
      ],
      "stateMutability": "view",
      "type": "function"
    },
    {
      "inputs": [
        {
          "internalType": "address",
          "name": "",
          "type": "address"
        }
      ],
      "name": "delayedCommissionBlock",
      "outputs": [
        {
          "internalType": "uint256",
          "name": "",
          "type": "uint256"
        }
      ],
      "stateMutability": "view",
      "type": "function"
    },
    {
      "inputs": [
        {
          "internalType": "address",
          "name": "",
          "type": "address"
        }
      ],
      "name": "delayedCommissionRate",
      "outputs": [
        {
          "internalType": "uint256",
          "name": "",
          "type": "uint256"
        }
      ],
      "stateMutability": "view",
      "type": "function"
    },
    {
      "inputs": [
        {
          "internalType": "address",
          "name": "",
          "type": "address"
        }
      ],
      "name": "delayedCommissionRateNegative",
      "outputs": [
        {
          "internalType": "bool",
          "name": "",
          "type": "bool"
        }
      ],
      "stateMutability": "view",
      "type": "function"
    },
    {
      "inputs": [
        {
          "internalType": "uint256",
          "name": "blockNumber",
          "type": "uint256"
        },
        {
          "internalType": "address",
          "name": "layer2",
          "type": "address"
        },
        {
          "internalType": "bool",
          "name": "_isSenderOperator",
          "type": "bool"
        }
      ],
      "name": "estimatedDistribute",
      "outputs": [
        {
          "internalType": "uint256",
          "name": "maxSeig",
          "type": "uint256"
        },
        {
          "internalType": "uint256",
          "name": "stakedSeig",
          "type": "uint256"
        },
        {
          "internalType": "uint256",
          "name": "unstakedSeig",
          "type": "uint256"
        },
        {
          "internalType": "uint256",
          "name": "powertonSeig",
          "type": "uint256"
        },
        {
          "internalType": "uint256",
          "name": "daoSeig",
          "type": "uint256"
        },
        {
          "internalType": "uint256",
          "name": "relativeSeig",
          "type": "uint256"
        },
        {
          "internalType": "uint256",
          "name": "l2TotalSeigs",
          "type": "uint256"
        },
        {
          "internalType": "uint256",
          "name": "layer2Seigs",
          "type": "uint256"
        }
      ],
      "stateMutability": "view",
      "type": "function"
    },
    {
      "inputs": [
        {
          "internalType": "address",
          "name": "_layer2",
          "type": "address"
        }
      ],
      "name": "excludeFromSeigniorage",
      "outputs": [
        {
          "internalType": "bool",
          "name": "",
          "type": "bool"
        }
      ],
      "stateMutability": "nonpayable",
      "type": "function"
    },
    {
      "inputs": [],
      "name": "factory",
      "outputs": [
        {
          "internalType": "address",
          "name": "",
          "type": "address"
        }
      ],
      "stateMutability": "view",
      "type": "function"
    },
    {
      "inputs": [
        {
          "internalType": "address",
          "name": "layer2",
          "type": "address"
        }
      ],
      "name": "getOperatorAmount",
      "outputs": [
        {
          "internalType": "uint256",
          "name": "",
          "type": "uint256"
        }
      ],
      "stateMutability": "view",
      "type": "function"
    },
    {
      "inputs": [
        {
          "internalType": "bytes32",
          "name": "role",
          "type": "bytes32"
        }
      ],
      "name": "getRoleAdmin",
      "outputs": [
        {
          "internalType": "bytes32",
          "name": "",
          "type": "bytes32"
        }
      ],
      "stateMutability": "view",
      "type": "function"
    },
    {
      "inputs": [
        {
          "internalType": "bytes32",
          "name": "role",
          "type": "bytes32"
        },
        {
          "internalType": "address",
          "name": "account",
          "type": "address"
        }
      ],
      "name": "grantRole",
      "outputs": [],
      "stateMutability": "nonpayable",
      "type": "function"
    },
    {
      "inputs": [
        {
          "internalType": "bytes32",
          "name": "role",
          "type": "bytes32"
        },
        {
          "internalType": "address",
          "name": "account",
          "type": "address"
        }
      ],
      "name": "hasRole",
      "outputs": [
        {
          "internalType": "bool",
          "name": "",
          "type": "bool"
        }
      ],
      "stateMutability": "view",
      "type": "function"
    },
    {
      "inputs": [],
      "name": "initialTotalSupply",
      "outputs": [
        {
          "internalType": "uint256",
          "name": "",
          "type": "uint256"
        }
      ],
      "stateMutability": "view",
      "type": "function"
    },
    {
      "inputs": [
        {
          "internalType": "address",
          "name": "account",
          "type": "address"
        }
      ],
      "name": "isAdmin",
      "outputs": [
        {
          "internalType": "bool",
          "name": "",
          "type": "bool"
        }
      ],
      "stateMutability": "view",
      "type": "function"
    },
    {
      "inputs": [
        {
          "internalType": "address",
          "name": "account",
          "type": "address"
        }
      ],
      "name": "isChallenger",
      "outputs": [
        {
          "internalType": "bool",
          "name": "",
          "type": "bool"
        }
      ],
      "stateMutability": "view",
      "type": "function"
    },
    {
      "inputs": [
        {
          "internalType": "address",
          "name": "account",
          "type": "address"
        }
      ],
      "name": "isMinter",
      "outputs": [
        {
          "internalType": "bool",
          "name": "",
          "type": "bool"
        }
      ],
      "stateMutability": "view",
      "type": "function"
    },
    {
      "inputs": [
        {
          "internalType": "address",
          "name": "account",
          "type": "address"
        }
      ],
      "name": "isOperator",
      "outputs": [
        {
          "internalType": "bool",
          "name": "",
          "type": "bool"
        }
      ],
      "stateMutability": "view",
      "type": "function"
    },
    {
      "inputs": [],
      "name": "isOwner",
      "outputs": [
        {
          "internalType": "bool",
          "name": "",
          "type": "bool"
        }
      ],
      "stateMutability": "view",
      "type": "function"
    },
    {
      "inputs": [],
      "name": "l2Registry",
      "outputs": [
        {
          "internalType": "address",
          "name": "",
          "type": "address"
        }
      ],
      "stateMutability": "view",
      "type": "function"
    },
    {
      "inputs": [],
      "name": "l2RewardPerUint",
      "outputs": [
        {
          "internalType": "uint256",
          "name": "",
          "type": "uint256"
        }
      ],
      "stateMutability": "view",
      "type": "function"
    },
    {
      "inputs": [],
      "name": "lastSnapshotId",
      "outputs": [
        {
          "internalType": "uint256",
          "name": "",
          "type": "uint256"
        }
      ],
      "stateMutability": "view",
      "type": "function"
    },
    {
      "inputs": [],
      "name": "layer2Manager",
      "outputs": [
        {
          "internalType": "address",
          "name": "",
          "type": "address"
        }
      ],
      "stateMutability": "view",
      "type": "function"
    },
    {
      "inputs": [
        {
          "internalType": "address",
          "name": "",
          "type": "address"
        }
      ],
      "name": "layer2RewardInfo",
      "outputs": [
        {
          "internalType": "uint256",
          "name": "layer2Tvl",
          "type": "uint256"
        },
        {
          "internalType": "uint256",
          "name": "initialDebt",
          "type": "uint256"
        }
      ],
      "stateMutability": "view",
      "type": "function"
    },
    {
      "inputs": [],
      "name": "layer2StartBlock",
      "outputs": [
        {
          "internalType": "uint256",
          "name": "",
          "type": "uint256"
        }
      ],
      "stateMutability": "view",
      "type": "function"
    },
    {
      "inputs": [],
      "name": "minimumAmount",
      "outputs": [
        {
          "internalType": "uint256",
          "name": "",
          "type": "uint256"
        }
      ],
      "stateMutability": "view",
      "type": "function"
    },
    {
      "inputs": [],
      "name": "pauseProxy",
      "outputs": [
        {
          "internalType": "bool",
          "name": "",
          "type": "bool"
        }
      ],
      "stateMutability": "view",
      "type": "function"
    },
    {
      "inputs": [],
      "name": "paused",
      "outputs": [
        {
          "internalType": "bool",
          "name": "",
          "type": "bool"
        }
      ],
      "stateMutability": "view",
      "type": "function"
    },
    {
      "inputs": [],
      "name": "powerTONSeigRate",
      "outputs": [
        {
          "internalType": "uint256",
          "name": "",
          "type": "uint256"
        }
      ],
      "stateMutability": "view",
      "type": "function"
    },
    {
      "inputs": [
        {
          "internalType": "uint256",
          "name": "",
          "type": "uint256"
        }
      ],
      "name": "proxyImplementation",
      "outputs": [
        {
          "internalType": "address",
          "name": "",
          "type": "address"
        }
      ],
      "stateMutability": "view",
      "type": "function"
    },
    {
      "inputs": [],
      "name": "relativeSeigRate",
      "outputs": [
        {
          "internalType": "uint256",
          "name": "",
          "type": "uint256"
        }
      ],
      "stateMutability": "view",
      "type": "function"
    },
    {
      "inputs": [
        {
          "internalType": "address",
          "name": "account",
          "type": "address"
        }
      ],
      "name": "removeAdmin",
      "outputs": [],
      "stateMutability": "nonpayable",
      "type": "function"
    },
    {
      "inputs": [
        {
          "internalType": "address",
          "name": "account",
          "type": "address"
        }
      ],
      "name": "removeChallenger",
      "outputs": [],
      "stateMutability": "nonpayable",
      "type": "function"
    },
    {
      "inputs": [
        {
          "internalType": "address",
          "name": "account",
          "type": "address"
        }
      ],
      "name": "removeMinter",
      "outputs": [],
      "stateMutability": "nonpayable",
      "type": "function"
    },
    {
      "inputs": [
        {
          "internalType": "address",
          "name": "account",
          "type": "address"
        }
      ],
      "name": "removeOperator",
      "outputs": [],
      "stateMutability": "nonpayable",
      "type": "function"
    },
    {
      "inputs": [],
      "name": "renounceChallenger",
      "outputs": [],
      "stateMutability": "nonpayable",
      "type": "function"
    },
    {
      "inputs": [],
      "name": "renounceMinter",
      "outputs": [],
      "stateMutability": "nonpayable",
      "type": "function"
    },
    {
      "inputs": [],
      "name": "renounceOperator",
      "outputs": [],
      "stateMutability": "nonpayable",
      "type": "function"
    },
    {
      "inputs": [],
      "name": "renounceOwnership",
      "outputs": [],
      "stateMutability": "nonpayable",
      "type": "function"
    },
    {
      "inputs": [
        {
          "internalType": "bytes32",
          "name": "role",
          "type": "bytes32"
        },
        {
          "internalType": "address",
          "name": "account",
          "type": "address"
        }
      ],
      "name": "renounceRole",
      "outputs": [],
      "stateMutability": "nonpayable",
      "type": "function"
    },
    {
      "inputs": [
        {
          "internalType": "address",
          "name": "account",
          "type": "address"
        }
      ],
      "name": "revokeChallenger",
      "outputs": [],
      "stateMutability": "nonpayable",
      "type": "function"
    },
    {
      "inputs": [
        {
          "internalType": "address",
          "name": "account",
          "type": "address"
        }
      ],
      "name": "revokeMinter",
      "outputs": [],
      "stateMutability": "nonpayable",
      "type": "function"
    },
    {
      "inputs": [
        {
          "internalType": "address",
          "name": "account",
          "type": "address"
        }
      ],
      "name": "revokeOperator",
      "outputs": [],
      "stateMutability": "nonpayable",
      "type": "function"
    },
    {
      "inputs": [
        {
          "internalType": "bytes32",
          "name": "role",
          "type": "bytes32"
        },
        {
          "internalType": "address",
          "name": "account",
          "type": "address"
        }
      ],
      "name": "revokeRole",
      "outputs": [],
      "stateMutability": "nonpayable",
      "type": "function"
    },
    {
      "inputs": [],
      "name": "seigStartBlock",
      "outputs": [
        {
          "internalType": "uint256",
          "name": "",
          "type": "uint256"
        }
      ],
      "stateMutability": "view",
      "type": "function"
    },
    {
      "inputs": [
        {
          "internalType": "bytes4",
          "name": "",
          "type": "bytes4"
        }
      ],
      "name": "selectorImplementation",
      "outputs": [
        {
          "internalType": "address",
          "name": "",
          "type": "address"
        }
      ],
      "stateMutability": "view",
      "type": "function"
    },
    {
      "inputs": [
        {
          "internalType": "address",
          "name": "l2Registry_",
          "type": "address"
        }
      ],
      "name": "setL2Registry",
      "outputs": [],
      "stateMutability": "nonpayable",
      "type": "function"
    },
    {
      "inputs": [
        {
          "internalType": "address",
          "name": "layer2Manager_",
          "type": "address"
        }
      ],
      "name": "setLayer2Manager",
      "outputs": [],
      "stateMutability": "nonpayable",
      "type": "function"
    },
    {
      "inputs": [
        {
          "internalType": "uint256",
          "name": "startBlock_",
          "type": "uint256"
        }
      ],
      "name": "setLayer2StartBlock",
      "outputs": [],
      "stateMutability": "nonpayable",
      "type": "function"
    },
    {
      "inputs": [
        {
          "internalType": "bytes4",
          "name": "interfaceId",
          "type": "bytes4"
        }
      ],
      "name": "supportsInterface",
      "outputs": [
        {
          "internalType": "bool",
          "name": "",
          "type": "bool"
        }
      ],
      "stateMutability": "view",
      "type": "function"
    },
    {
      "inputs": [],
      "name": "totalLayer2TVL",
      "outputs": [
        {
          "internalType": "uint256",
          "name": "",
          "type": "uint256"
        }
      ],
      "stateMutability": "view",
      "type": "function"
    },
    {
      "inputs": [],
      "name": "totalSupplyOfTon",
      "outputs": [
        {
          "internalType": "uint256",
          "name": "tos",
          "type": "uint256"
        }
      ],
      "stateMutability": "view",
      "type": "function"
    },
    {
      "inputs": [
        {
          "internalType": "address",
          "name": "newAdmin",
          "type": "address"
        }
      ],
      "name": "transferAdmin",
      "outputs": [],
      "stateMutability": "nonpayable",
      "type": "function"
    },
    {
      "inputs": [
        {
          "internalType": "address",
          "name": "newAdmin",
          "type": "address"
        }
      ],
      "name": "transferOwnership",
      "outputs": [],
      "stateMutability": "nonpayable",
      "type": "function"
    },
    {
      "inputs": [
        {
          "internalType": "address",
          "name": "layer2",
          "type": "address"
        }
      ],
      "name": "unSettledReward",
      "outputs": [
        {
          "internalType": "uint256",
          "name": "amount",
          "type": "uint256"
        }
      ],
      "stateMutability": "view",
      "type": "function"
    },
    {
      "inputs": [],
      "name": "updateSeigniorage",
      "outputs": [
        {
          "internalType": "bool",
          "name": "",
          "type": "bool"
        }
      ],
      "stateMutability": "nonpayable",
      "type": "function"
    },
    {
      "inputs": [
        {
          "internalType": "address",
          "name": "layer2",
          "type": "address"
        }
      ],
      "name": "updateSeigniorageLayer",
      "outputs": [
        {
          "internalType": "bool",
          "name": "",
          "type": "bool"
        }
      ],
      "stateMutability": "nonpayable",
      "type": "function"
    },
    {
      "inputs": [],
      "name": "updateSeigniorageOperator",
      "outputs": [
        {
          "internalType": "bool",
          "name": "",
          "type": "bool"
        }
      ],
      "stateMutability": "nonpayable",
      "type": "function"
    }
  ],
  "bytecode": "0x6080806040523461001657614472908161001c8239f35b600080fdfe60c060408181526004918236101561001657600080fd5b600092833560e01c91826301ffc9a7146116f0575081630ceb67801461163357816316b5d5bd1461160a5781631785f53c146115dc5781631e1f0b60146115145781631fbeab54146114d75781632428c628146114ba578163248a9ca31461148f57816324d7806c1461144957816325374a9a1461142a57816325e90db4146114105781632ab6f8db146113f65781632f17250a146113d05781632f2ff15d146113355781633092afd514611307578163311028af146112e857816336568abe14611256578163389ed2671461121b5781633c491173146111cb5781634123196f1461104a5781634162169f146111a257816344feabf81461115f5781634631179e1461113657816350d2a276146110f257816351e1e1e6146110b6578163530adbb41461108d578163550d01a31461104f578163552033c41461104a5781635998a8d71461102b5781635c975abb146110075781635f6fb8b914610fc55781636304a62414610fa657816363a8fd8914610f845781636c578c1d14610f565781636d70f7ae14610f025781636e71186b14610ee35781637048027514610e40578163715018a614610e1a57816375829def14610dfd578163764a785614610db7578163837afbc014610d995781638f32d59b14610d6657816391d1485414610d1f5781639473cafe14610c05578163983b2d5614610bb55781639865027514610b9b5781639870d7fe14610ae85781639b370dea14610abb578163a217fddf14610aa0578163a415d8dc14610a4c578163a7dcc85014610a26578163aa271e1a146109d2578163ac28e2ed14610997578163ac753a7a14610959578163ac8a584a1461092b578163acd848fa14610901578163b911135f146108ce578163baa1253614610870578163bb0c829814610851578163bf7f473314610832578163c2e5dcc914610809578163c45a0155146107e0578163ca60808914610787578163cbfebe621461074f578163cfbd4885146106ff578163d0d2ff70146106e0578163d5391393146106b7578163d547741f1461067b578163d8c479661461065d578163df7fbef01461063e578163e2fe8fd114610606578163f2fde38b146104c257508063f5b541a61461049a578063f82293481461047c578063f96032e61461045e578063f9bae41a146104405763fad8b32a1461037457600080fd5b3461043c57602090816003193601126104385761038f611774565b906103a161039c33611802565b611eef565b60008051602061440683398151915292838552600581526103c76001838720015461183f565b838552600581528185206001600160a01b039093168086529281528185205460ff166103f1578480f35b8385526005815281852083865290528320805460ff1916905533917ff6391f5c32d9c69d2a47ea670b442974b53935d1edc7fd64eb21e047a839171b8480a4388080808480f35b8280fd5b5080fd5b503461043c578160031936011261043c576020906027549051908152f35b503461043c578160031936011261043c576020906021549051908152f35b503461043c578160031936011261043c57602090601e549051908152f35b503461043c578160031936011261043c57602090516000805160206144068339815191528152f35b9190503461043857602080600319360112610602576104df611774565b6104eb61039c33611802565b6104f761039c33611802565b6001600160a01b03169283156105c1578333146105875750838052600581526105256001838620015461183f565b83805260058152818420838552815260ff82852054161561054e575b8361054b33611c16565b80f35b8380526005815281842083855290528220805460ff191660011790553390826000805160206143c68339815191528180a4388080610541565b915162461bcd60e51b815291820152601660248201527520b1b1b2b9b9b4b136329d1039b0b6b29030b236b4b760511b6044820152606490fd5b915162461bcd60e51b815291820152601860248201527f41636365737369626c653a207a65726f206164647265737300000000000000006044820152606490fd5b8380fd5b50503461043c57602036600319011261043c5760209181906001600160a01b0361062e611774565b1681526018845220549051908152f35b50503461043c578160031936011261043c576020906016549051908152f35b50503461043c578160031936011261043c576020905162a55ec28152f35b9190503461043857806003193601126104385761054b91356106b260016106a061178f565b9383875260056020528620015461183f565b611e61565b50503461043c578160031936011261043c57602090516000805160206143e68339815191528152f35b50503461043c578160031936011261043c576020906026549051908152f35b50503461043c57602090816003193601126104385761071c611774565b9061072961039c33611802565b6000805160206143e683398151915292838552600581526103c76001838720015461183f565b50503461043c57602036600319011261043c5760209181906001600160a01b03610777611774565b1681526017845220549051908152f35b8391503461043c57606036600319011261043c576107a361178f565b906044359283151584036107dd5750916107c1916107d99335613caf565b946080979697949194939293519851988998896117cb565b0390f35b80fd5b50503461043c578160031936011261043c57600c5490516001600160a01b039091168152602090f35b50503461043c578160031936011261043c5760245490516001600160a01b039091168152602090f35b50503461043c578160031936011261043c576020906023549051908152f35b50503461043c578160031936011261043c57602090601a549051908152f35b50503461043c57602036600319011261043c576108ab60ff610890611774565b92848052600560205280852033865260205284205416611eef565b60018060a01b03166bffffffffffffffffffffffff60a01b602554161760255580f35b9050346104385760203660031901126104385735825260016020908152918190205490516001600160a01b039091168152f35b50503461043c578160031936011261043c57602090516e09a130b963a6c115c3c7f4000000008152f35b83346107dd5760203660031901126107dd5761054b610948611774565b61095461039c33611802565b611da7565b50503461043c57602036600319011261043c5760209160ff9082906001600160a01b03610984611774565b1681526019855220541690519015158152f35b919050346104385760203660031901126104385760ff6109cb91848052600560205280852033865260205284205416611eef565b3560265580f35b50503461043c57602036600319011261043c5760ff816020936109f3611774565b6000805160206143e68339815191528252600586528282206001600160a01b039091168252855220549151911615158152f35b50503461043c578160031936011261043c57602090516a084595161401484a0000008152f35b50503461043c57602036600319011261043c5760ff81602093610a6d611774565b6000805160206144468339815191528252600586528282206001600160a01b039091168252855220549151911615158152f35b50503461043c578160031936011261043c5751908152602090f35b50503461043c57602036600319011261043c57602090610ae1610adc611774565b613c4a565b9051908152f35b50503461043c576020908160031936011261043857610b05611774565b90610b1261039c33611802565b6000805160206144068339815191529283855260058152610b386001838720015461183f565b838552600581528185206001600160a01b039093168086529281528185205460ff1615610b63578480f35b8385526005815281852083865290528320805460ff1916600117905533916000805160206143c68339815191528480a4388080808480f35b83346107dd57806003193601126107dd5761054b33611e04565b50503461043c576020908160031936011261043857610bd2611774565b90610bdf61039c33611802565b6000805160206143e68339815191529283855260058152610b386001838720015461183f565b8284346107dd576020928360031936011261043c57610c22611774565b6025546001600160a01b03919082163303610ce857169081835260298552838320602854815492838210610cb357507f911a0522d11ad8abe1817d2c0cba159e8c66d574f00fe392963de5ee5721ffe36060600184019586548951918252868b83015289820152a182610c99575b86865160018152f35b8492610ca491611f47565b60285555558280808080610c90565b865162461bcd60e51b8152908101889052600f60248201526e18da1958dac81b185e595c8c951d9b608a1b6044820152606490fd5b845162461bcd60e51b815280840187905260116024820152703737ba103630bcb2b91926b0b730b3b2b960791b6044820152606490fd5b9050346104385781600319360112610438578160209360ff92610d4061178f565b90358252600586528282206001600160a01b039091168252855220549151911615158152f35b50503461043c578160031936011261043c5760ff8183806020955260058552818120338252855220541690519015158152f35b50503461043c578160031936011261043c5760209081549051908152f35b50503461043c578160031936011261043c57338252600e60209081529181902054610dec906001600160a01b03161515611f54565b610df4612566565b90519015158152f35b9190503461043857602080600319360112610602576104eb611774565b83346107dd57806003193601126107dd57610e3761039c33611802565b61054b33611c16565b50503461043c576020908160031936011261043857610e5d611774565b91610e6a61039c33611802565b83805260058152610e806001838620015461183f565b838052600581528184206001600160a01b039093168085529281528184205460ff1615610eab578380f35b8380526005815281842083855290528220805460ff191660011790553390826000805160206143c68339815191528180a43880808380f35b50503461043c578160031936011261043c576020906028549051908152f35b50503461043c57602036600319011261043c5760ff81602093610f23611774565b6000805160206144068339815191528252600586528282206001600160a01b039091168252855220549151911615158152f35b83346107dd5760203660031901126107dd5761054b610f73611774565b610f7f61039c33611802565b611d05565b50503461043c578160031936011261043c5760ff602092541690519015158152f35b50503461043c578160031936011261043c57602090601b549051908152f35b50503461043c57602036600319011261043c579081906001600160a01b03610feb611774565b1681526029602052206001815491015482519182526020820152f35b50503461043c578160031936011261043c5760209060ff601f541690519015158152f35b50503461043c578160031936011261043c57602090601c549051908152f35b6117a5565b50503461043c57602036600319011261043c5760209160ff9082906001600160a01b0361107a611774565b1681526002855220541690519015158152f35b50503461043c578160031936011261043c57602090516000805160206144468339815191528152f35b8284346107dd5760203660031901126107dd57506110da6110d5611774565b6129d6565b82516001600160a01b03909216825215156020820152f35b905034610438576020366003190112610438573563ffffffff60e01b811680910361043857825260036020908152918190205490516001600160a01b039091168152f35b50503461043c578160031936011261043c57602090516d08c815d5bcc20177de3b5d2500008152f35b50503461043c57602036600319011261043c5761117f60ff610890611774565b60018060a01b03166bffffffffffffffffffffffff60a01b602454161760245580f35b50503461043c578160031936011261043c5760095490516001600160a01b039091168152602090f35b50503461043c5760209081600319360112610438576111e8611774565b906111f561039c33611802565b60008051602061444683398151915292838552600581526103c76001838720015461183f565b50503461043c578160031936011261043c57602090517ffcb9fcbfa83b897fb2d5cf4b58962164105c1e71489a37ef3ae0db3fdce576f68152f35b8391503461043c578260031936011261043c5761127161178f565b90336001600160a01b0383160361128d579061054b9135611e61565b608490602085519162461bcd60e51b8352820152602f60248201527f416363657373436f6e74726f6c3a2063616e206f6e6c792072656e6f756e636560448201526e103937b632b9903337b91039b2b63360891b6064820152fd5b50503461043c578160031936011261043c576020906022549051908152f35b83346107dd5760203660031901126107dd5761054b611324611774565b61133061039c33611802565b611e04565b905034610438578160031936011261043857359061135161178f565b9082845260056020526113696001828620015461183f565b828452600560209081528185206001600160a01b039093168086529290528084205460ff1615611397578380f35b82845260056020528084208285526020528320600160ff1982541617905533916000805160206143c68339815191528480a43880808380f35b50503461043c57602036600319011261043c57602090610ae16113f1611774565b6125b2565b83346107dd57806003193601126107dd5761054b33611da7565b83346107dd57806003193601126107dd5761054b33611d05565b50503461043c578160031936011261043c57602090601d549051908152f35b50503461043c57602036600319011261043c5760ff8160209361146a611774565b818052600586528282206001600160a01b039091168252855220549151911615158152f35b9050346104385760203660031901126104385781602093600192358152600585522001549051908152f35b50503461043c578160031936011261043c57602090610ae16142c2565b50503461043c578160031936011261043c57338252600e6020908152918190205461150c906001600160a01b03161515611f54565b610df4611fee565b90503461043857602092836003193601126107dd5780846001600160a01b0361153b611774565b1684865180948193633b253c2b60e11b83525af19182156115d157916115a4575b501561156a57505160018152f35b82606492519162461bcd60e51b835282015260166024820152756661696c20757064617465536569676e696f7261676560501b6044820152fd5b6115c49150843d86116115ca575b6115bc8183611bf4565b810190611fd6565b3861155c565b503d6115b2565b8451903d90823e3d90fd5b83346107dd5760203660031901126107dd5761054b6115f9611774565b61160561039c33611802565b611c16565b50503461043c578160031936011261043c5760255490516001600160a01b039091168152602090f35b905034610438576020918260031936011261060257611650611774565b9161165a33611802565b80156116c6575b1561168d57506000805160206144468339815191529283855260058152610b386001838720015461183f565b83606492519162461bcd60e51b835282015260156024820152743737ba1037b7363ca6b4b73a32b927b920b236b4b760591b6044820152fd5b506000805160206143e6833981519152855260058452818520338652845260ff8286205416611661565b849184346106025760203660031901126106025781359063ffffffff60e01b821680920361177057602094637965db0b60e01b8314938415611737575b5050505015158152f35b6301ffc9a760e01b841494509192909190841561175c575b505050508380808061172d565b60ff9450825285522054168380808061174f565b8480fd5b600435906001600160a01b038216820361178a57565b600080fd5b602435906001600160a01b038216820361178a57565b3461178a57600036600319011261178a576020604051676765c793fa10079d601b1b8152f35b94919260e0969399989794919961010087019a8752602087015260408601526060850152608084015260a083015260c08201520152565b6001600160a01b031660009081527f05b8ccbb9d4d8fb16ea74ce3c29a41f1b461fbdaff4714a0d9a8eb05499746bc602052604090205460ff1690565b60009080825260209060058252604090818420338552835260ff8285205416156118695750505050565b81519367ffffffffffffffff336060870182811188821017611b77578552602a87528587019385368637875115611b635760308553875191600192831015611b4f57607860218a015360295b838111611ae55750611aa35790855192608084019084821090821117611a8f57865260428352868301936060368637835115611a7b57603085538351821015611a7b5790607860218501536041915b818311611a0d575050506119cb5792611999604861198a97946119bd946044989785519a8b936119618b86019a7f416363657373436f6e74726f6c3a206163636f756e74200000000000000000008c525180926037880190611b8b565b8401917001034b99036b4b9b9b4b733903937b6329607d1b603784015251809386840190611b8b565b01036028810189520187611bf4565b5194859362461bcd60e51b8552600485015251809281602486015285850190611b8b565b601f01601f19168101030190fd5b60648585519062461bcd60e51b825280600483015260248201527f537472696e67733a20686578206c656e67746820696e73756666696369656e746044820152fd5b909192600f81166010811015611a67576f181899199a1a9b1b9c1cb0b131b232b360811b901a611a3d8587611ec8565b5360041c928015611a5357600019019190611904565b634e487b7160e01b82526011600452602482fd5b634e487b7160e01b83526032600452602483fd5b634e487b7160e01b81526032600452602490fd5b634e487b7160e01b85526041600452602485fd5b60648787519062461bcd60e51b825280600483015260248201527f537472696e67733a20686578206c656e67746820696e73756666696369656e746044820152fd5b90600f81166010811015611b3b576f181899199a1a9b1b9c1cb0b131b232b360811b901a611b13838c611ec8565b5360041c908015611b2757600019016118b5565b634e487b7160e01b86526011600452602486fd5b634e487b7160e01b87526032600452602487fd5b634e487b7160e01b85526032600452602485fd5b634e487b7160e01b84526032600452602484fd5b634e487b7160e01b84526041600452602484fd5b60005b838110611b9e5750506000910152565b8181015183820152602001611b8e565b67ffffffffffffffff8111611bc257604052565b634e487b7160e01b600052604160045260246000fd5b6040810190811067ffffffffffffffff821117611bc257604052565b90601f8019910116810190811067ffffffffffffffff821117611bc257604052565b6001600160a01b0316338103611ca85760008181527f05b8ccbb9d4d8fb16ea74ce3c29a41f1b461fbdaff4714a0d9a8eb05499746bc602052604081205490919060ff16611c62575050565b8180526005602052604082208183526020526040822060ff19815416905533917ff6391f5c32d9c69d2a47ea670b442974b53935d1edc7fd64eb21e047a839171b8180a4565b60405162461bcd60e51b815260206004820152602f60248201527f416363657373436f6e74726f6c3a2063616e206f6e6c792072656e6f756e636560448201526e103937b632b9903337b91039b2b63360891b6064820152608490fd5b6001600160a01b0316338103611ca85760008181527fedec71783a10810e436f3392a073a61717130e573433fcc6591c3061a012f76760205260408120549091906000805160206144468339815191529060ff16611d6257505050565b8083526005602052604083208284526020526040832060ff1981541690557ff6391f5c32d9c69d2a47ea670b442974b53935d1edc7fd64eb21e047a839171b339380a4565b6001600160a01b0316338103611ca85760008181527f02634a7c777b8129955fe1824eee49ef19dfa96f2f4cb63212492c3d84eb58e660205260408120549091906000805160206144068339815191529060ff16611d6257505050565b6001600160a01b0316338103611ca85760008181527fca0a2f641ec05ca23127d994cf03ffc453db616acae0b86cb56bb95304d0685460205260408120549091906000805160206143e68339815191529060ff16611d6257505050565b906000918083526005602052604083209160018060a01b03169182845260205260ff604084205416611d6257505050565b81810292918115918404141715611ea557565b634e487b7160e01b600052601160045260246000fd5b91908201809211611ea557565b908151811015611ed9570160200190565b634e487b7160e01b600052603260045260246000fd5b15611ef657565b60405162461bcd60e51b815260206004820152602360248201527f41757468436f6e74726f6c3a2043616c6c6572206973206e6f7420616e20616460448201526236b4b760e91b6064820152608490fd5b91908203918211611ea557565b15611f5b57565b60405162461bcd60e51b815260206004820152602e60248201527f536569674d616e616765723a20636f696e61676520686173206e6f742062656560448201526d1b8819195c1b1bde5959081e595d60921b6064820152608490fd5b9081602091031261178a57516001600160a01b038116810361178a5790565b9081602091031261178a5751801515810361178a5790565b601f5460ff600091166125605760115443111561251b5761200e336125b2565b601a54116124d657338152600e60209081526040808320546001600160a01b03929083169161203b612b1e565b1561249e57338552600f825280852043905580516318160ddd60e01b81529360049280868581885afa958615612494578796612461575b5060248183600d54168551928380926370a0823160e01b8252338a8301525afa908115612255578891612430575b50808710156123ff57866120b391611f47565b9183519463570ca73560e01b865282868281335afa9586156123f55789966123c6575b503389526015835260ff858a205416966120f48789878c8533612681565b9790988751630a9ee07f60e31b815286818681875afa908115612380578c8e928d8a93859261238a575b5061214161213c6121479493676765c793fa10079d601b1b9361291d565b6128c1565b04612990565b60248b518094819363817e9d3160e01b83528a830152885af1801561238057889492889694928c92612363575b508161225f575b5050600b546007548a516340c10f1960e01b81529088166001600160a01b031694810194855260208501959095529395869416928492508d915082906040015b03925af18015612255579160a0979593917f9f0aff7defc0f0b331d66bccf1955a699b40155565289317e38b9799ddf0944899979593612238575b508251967f521cc65179761533a7c8d7a973291dd7baebb99a67edf5ef78e9c2b61a533d95339180a233875286015284015260608301526080820152a1600190565b61224e90823d84116115ca576115bc8183611bf4565b50386121f6565b84513d8a823e3d90fd5b93959294509092156122f3575050813b156122ef57865163079cc67960e41b81526001600160a01b039091168382019081526020810189905290918b9183919082908490829060400103925af180156122e5576122ca575b50836121bb9284925b909338898161217b565b6121bb9284929a6122db8793611bae565b9a925092506122b7565b86513d8c823e3d90fd5b8a80fd5b88516340c10f1960e01b81526001600160a01b0390931685840190815260208101919091529192909183919082908e90829060400103925af180156122e55792849286926121bb95612346575b506122c0565b61235c90853d87116115ca576115bc8183611bf4565b5038612340565b61237990883d8a116115ca576115bc8183611bf4565b5038612174565b89513d8f823e3d90fd5b945050505081813d83116123bf575b6123a38183611bf4565b810103126123bb57518c9087908d908d61214161211e565b8c80fd5b503d612399565b6123e7919650833d85116123ee575b6123df8183611bf4565b810190611fb7565b94386120d6565b503d6123d5565b85513d8b823e3d90fd5b505050505050507f521cc65179761533a7c8d7a973291dd7baebb99a67edf5ef78e9c2b61a533d95339180a2600190565b90508181813d831161245a575b6124478183611bf4565b810103126124565751386120a0565b8780fd5b503d61243d565b9080965081813d831161248d575b6124798183611bf4565b8101031261248957519438612072565b8680fd5b503d61246f565b83513d89823e3d90fd5b60649250519062461bcd60e51b8252600482015260126024820152715f696e637265617365546f742066616c736560701b6044820152fd5b60405162461bcd60e51b815260206004820152601d60248201527f6d696e696d756d416d6f756e7420697320696e73756666696369656e740000006044820152606490fd5b60405162461bcd60e51b815260206004820152601b60248201527f6c617374207365696720626c6f636b206973206e6f74207061737400000000006044820152606490fd5b50600190565b600060ff601f54166125605760115443111561251b57612585336125b2565b601a54116124d657338152600e60209081526040808320546001600160a01b03929083169161203b6133e3565b60405163570ca73560e01b81526001600160a01b03918216916020908183600481875afa92831561265657600093612662575b50819293600052600e8252602481604060002054169460405195869384926370a0823160e01b84521660048301525afa9081156126565760009161262a575b50905090565b82813d831161264f575b61263e8183611bf4565b810103126107dd5750518038612624565b503d612634565b6040513d6000823e3d90fd5b82935061267b90833d85116123ee576123df8183611bf4565b926125e5565b95939491959290926000809460018060a01b03809316865260206017815260409384882054804310159081612897575b50612858575b3388526014825284882054966126cd878d611ebb565b9a88156128485715612818578b156128095785516370a0823160e01b8152908216600482015292829184916024918391165afa938415612800575086936127d0575b505081156127c7575061213c61272b61213c9861274d93612990565b938493612747676765c793fa10079d601b1b9a8b96879361291d565b0461291d565b0485821495866000146127935761277294959682945b50156127765750905093611ebb565b9190565b61278661213c61278d948661291d565b0490611ebb565b93611ebb565b828103968188116127b3576127ad61277296979884612990565b94612763565b634e487b7160e01b85526011600452602485fd5b95965050505050565b9080929350813d83116127f9575b6127e88183611bf4565b81010312611770575190388061270f565b503d6127de565b513d88823e3d90fd5b50505050965050505050909190565b50505050505061277293949550676765c793fa10079d601b1b92506128409161213c9161291d565b048093611f47565b5050505050505050509250909190565b601882528488205460148352858920556019825260ff8589205416601583528589209060ff8019835416911515161790556017825287858120556126b7565b90501515386126b1565b81156128ab570490565b634e487b7160e01b600052601260045260246000fd5b906b019d971e4fe8401e74000000820191828111611ea55782106128e157565b60405162461bcd60e51b815260206004820152601460248201527364732d6d6174682d6164642d6f766572666c6f7760601b6044820152606490fd5b600092918015918215612970575b50501561293457565b60405162461bcd60e51b815260206004820152601460248201527364732d6d6174682d6d756c2d6f766572666c6f7760601b6044820152606490fd5b915092506129886129818483611e92565b93846128a1565b14388061292b565b90676765c793fa10079d601b1b9182810292818404811482151715611ea557830403612934576129c38160011c83611ebb565b9182106128e1576129d3916128a1565b90565b9060008060018060a01b0380602554166040918083519763570ca73560e01b8952886004816020958694165afa978815612af5578698612aff575b50835163050f7f4960e51b815297811660048901528188602481865afa978815612af5578698612ad6575b50871680612a4c57505050505090565b819060248596989795518095819363153e6d7f60e01b835260048301525afa938415612acd57508293612a8f575b50505060ff16600114612a8957565b60019150565b9080929350813d8311612ac6575b612aa78183611bf4565b8101031261043c57519060ff821682036107dd575060ff600138612a7a565b503d612a9d565b513d84823e3d90fd5b612aee919850823d84116123ee576123df8183611bf4565b9638612a3c565b84513d88823e3d90fd5b612b17919850823d84116123ee576123df8183611bf4565b9638612a11565b6011544311156133de57600d546040516318160ddd60e01b81526001600160a01b0390911690602081600481855afa908115612656576000916133ac575b50156133a2576040516318160ddd60e01b815290602082600481845afa9182156126565760009261336e575b50612b9d612b94613c0d565b60105490611e92565b91612ba66142c2565b916040516318160ddd60e01b8152602081600481855afa801561265657849160009161332e575b5090676765c793fa10079d601b1b61214161213c612beb948961291d565b906000809481829333845260296020526040842096600160405198612c0f8a611bd8565b80548a520154602089015260265415613316575b60255487908b906001600160a01b0316151580613309575b806132fe575b6131e7575b61213c612c6b88612c66676765c793fa10079d601b1b95612c7495611f47565b611f47565b601d549061291d565b0493612c8985612c848a85611ebb565b611ebb565b9243601155604051630a9ee07f60e31b8152602081600481855afa908115612656576000916131b4575b508392916024612cdb8796676765c793fa10079d601b1b61214161213c60209760009c61291d565b604051978893849263817e9d3160e01b845260048401525af193841561265657600494613195575b50600d546040516318160ddd60e01b81529460209186919082906001600160a01b03165afa93841561265657600094613160575b50917f41a79a497d1457df24c25ab99f22349ae9aef4468429f0a781216e8dcf80c6289391608093604051938452602084015260408301526060820152a1612d8383612c66878b611f47565b9560009081928294866130eb575b6008546001600160a01b03168a81613051575b50506009546001600160a01b03168a81612fb7575b5050601d54612fa0575b50600096612dfd575b5050600080516020614426833981519152975090612df594939291604051978897339b896117cb565b0390a2600190565b85612f52575b33875260296020526040872090602754612e59575b50612df5969594939291612e438b6000805160206144268339815191529c612e4b9455602854611ebb565b905190611f47565b602855909192939438612dcc565b9650612e6433613c4a565b9687612eba575b50612df5969594939291612e438b80612e4b94670de0b6b3a76400006000805160206144268339815191529f612ea390602754611e92565b0460018201559450509b5050919293949596612e18565b60255490979695949392906001600160a01b0316803b1561178a5760405163c5f16b8960e01b81526001600160a01b039990991660048a0152602489018890526000908990604490829084905af1978815612656578b6000805160206144268339815191529c612e4b94612e4393612df59c612f43575b509450509b5050919293949596612e6b565b612f4c90611bae565b38612f31565b670de0b6b3a76400008681810204811487151715612f8c57612f7c612f84916028549089026128a1565b602754611ebb565b602755612e03565b634e487b7160e01b88526011600452602488fd5b9450612fae85601e54611ebb565b601e5538612dc3565b61301d919650676765c793fa10079d601b1b612fdb61213c602093601c549061291d565b600b546040516340c10f1960e01b81526001600160a01b039a8b1660048201529290910460248301819052989193849290911690829060009082906044820190565b03925af1801561265657613032575b8a612db9565b61304a9060203d6020116115ca576115bc8183611bf4565b503861302c565b6130b7919550676765c793fa10079d601b1b61307561213c602093601b549061291d565b600b546040516340c10f1960e01b81526001600160a01b03998a1660048201529290910460248301819052979193849290911690829060009082906044820190565b03925af18015612656576130cc575b8a612da4565b6130e49060203d6020116115ca576115bc8183611bf4565b50386130c6565b600b546025546040516340c10f1960e01b81526001600160a01b039182166004820152602481018a905291602091839160449183918a91165af1801561315557613136575b50612d91565b61314e9060203d6020116115ca576115bc8183611bf4565b5038613130565b6040513d87823e3d90fd5b90936020823d60201161318d575b8161317b60209383611bf4565b810103126107dd575051926080612d37565b3d915061316e565b6131ad9060203d6020116115ca576115bc8183611bf4565b5038612d03565b906020823d6020116131df575b816131ce60209383611bf4565b810103126107dd5750516000612cb3565b3d91506131c1565b5050945090506131f6336129d6565b949091908286613287575b50868a6028548015908115613218575b5050612c46565b925092939495969050633b9aca00928284810204841417156132735750612c7461213c612c6b8d612c666132688b676765c793fa10079d601b1b8f9d9c9b9a9961213c61214191839b028761291d565b9a9550509250613211565b634e487b7160e01b81526011600452602490fd5b6024805460405163c81ae6db60e01b81526001600160a01b039384166004820152939b506020928492918391165afa9081156131555785916132cc575b509738613201565b90506020813d6020116132f6575b816132e760209383611bf4565b810103126117705751386132c4565b3d91506132da565b504360265410612c41565b5060016026541415612c3b565b436000198101116127b3574360001901602655612c23565b91506020823d602011613366575b8161334960209383611bf4565b810103126107dd5750518390676765c793fa10079d601b1b612bcd565b3d915061333c565b90916020823d60201161339a575b8161338960209383611bf4565b810103126107dd5750519038612b88565b3d915061337c565b5043601155600090565b906020823d6020116133d6575b816133c660209383611bf4565b810103126107dd57505138612b5c565b3d91506133b9565b600090565b6011544311156133de57600d546040516318160ddd60e01b81526001600160a01b0390911690602081600481855afa90811561265657600091613bdb575b50156133a2576040516318160ddd60e01b815290602082600481845afa91821561265657600092613ba7575b50613459612b94613c0d565b916134626142c2565b916040516318160ddd60e01b8152602081600481855afa8015612656578491600091613b67575b5090676765c793fa10079d601b1b61214161213c6134a7948961291d565b9060008094818293338452602960205260408420966001604051986134cb8a611bd8565b80548a520154602089015260265415613b4f575b60255487908b906001600160a01b0316151580613b42575b80613b37575b613a34575b61213c612c6b88612c66676765c793fa10079d601b1b9561352295611f47565b049361353285612c848a85611ebb565b9243601155604051630a9ee07f60e31b8152602081600481855afa90811561265657600091613a01575b5083929160246135848796676765c793fa10079d601b1b61214161213c60209760009c61291d565b604051978893849263817e9d3160e01b845260048401525af1938415612656576004946139e2575b50600d546040516318160ddd60e01b81529460209186919082906001600160a01b03165afa938415612656576000946139ad575b50917f41a79a497d1457df24c25ab99f22349ae9aef4468429f0a781216e8dcf80c6289391608093604051938452602084015260408301526060820152a161362c83612c66878b611f47565b956000908192829486613943575b6008546001600160a01b03168a816138eb575b50506009546001600160a01b03168a81613893575b5050601d5461387c575b5060009661369d575050600080516020614426833981519152975090612df594939291604051978897339b896117cb565b8561384b575b33875260296020526040872090602754806136e5575b5050612df5969594939291612e438b6000805160206144268339815191529c612e4b9455602854611ebb565b8b8499929951116000146137ee5750506136fe33613c4a565b9687613756575b50612df5969594939291612e438b80612e4b94670de0b6b3a76400006000805160206144268339815191529f61373d90602754611e92565b0460018201555b9450509b5081939495969798506136b9565b60255490979695949392906001600160a01b0316803b1561178a5760405163c5f16b8960e01b81526001600160a01b039990991660048a0152602489018890526000908990604490829084905af1978815612656578b6000805160206144268339815191529c612e4b94612e4393612df59c6137df575b509450509b5050919293949596613705565b6137e890611bae565b386137cd565b612df598508b80612e4b946000805160206144268339815191529e612e4394600f60209d9c9b9a99979d5260408d20541561382b575b5050613744565b670de0b6b3a76400009161383e91611e92565b0460018201558138613824565b670de0b6b3a7640000808702908782041487151715612f8c57612f7c61387491602854906128a1565b6027556136a3565b945061388a85601e54611ebb565b601e553861366c565b6138b7919650676765c793fa10079d601b1b612fdb61213c602093601c549061291d565b03925af18015612656576138cc575b8a613662565b6138e49060203d6020116115ca576115bc8183611bf4565b50386138c6565b61390f919550676765c793fa10079d601b1b61307561213c602093601b549061291d565b03925af1801561265657613924575b8a61364d565b61393c9060203d6020116115ca576115bc8183611bf4565b503861391e565b600b546025546040516340c10f1960e01b81526001600160a01b039182166004820152602481018a905291602091839160449183918a91165af180156131555761398e575b5061363a565b6139a69060203d6020116115ca576115bc8183611bf4565b5038613988565b90936020823d6020116139da575b816139c860209383611bf4565b810103126107dd5750519260806135e0565b3d91506139bb565b6139fa9060203d6020116115ca576115bc8183611bf4565b50386135ac565b906020823d602011613a2c575b81613a1b60209383611bf4565b810103126107dd575051600061355c565b3d9150613a0e565b505094509050613a43336129d6565b949091908286613ac0575b50868a6028548015908115613a65575b5050613502565b925092939495969050633b9aca0092828481020484141715613273575061352261213c612c6b8d612c66613ab58b676765c793fa10079d601b1b8f9d9c9b9a9961213c61214191839b028761291d565b9a9550509250613a5e565b6024805460405163c81ae6db60e01b81526001600160a01b039384166004820152939b506020928492918391165afa908115613155578591613b05575b509738613a4e565b90506020813d602011613b2f575b81613b2060209383611bf4565b81010312611770575138613afd565b3d9150613b13565b5043602654106134fd565b50600160265414156134f7565b436000198101116127b35743600019016026556134df565b91506020823d602011613b9f575b81613b8260209383611bf4565b810103126107dd5750518390676765c793fa10079d601b1b613489565b3d9150613b75565b90916020823d602011613bd3575b81613bc260209383611bf4565b810103126107dd575051903861344d565b3d9150613bb5565b906020823d602011613c05575b81613bf560209383611bf4565b810103126107dd57505138613421565b3d9150613be8565b60ff601f541661178a57601154613c248143611f47565b90601354908110613c465790613c406129d39260125490611f47565b90611f47565b5090565b6001600160a01b0316600090815260296020526040808220905191929190613c7182611bd8565b602060018254928385520154920191825280613c8b575050565b6129d3929350613ca6670de0b6b3a764000091602754611e92565b04905190611f47565b9092600060805260009160009160009160009160009160115498898211801590614254575b61422e57613ce28a83611f47565b99601354908111614215575b50600d546040516318160ddd60e01b8152996001600160a01b039091169060208b600481855afa9a8b156126565760009b6141e1575b50613d32601054809d611e92565b9b60215480156000146141d75750613d9662a55ec2915b602254806141cd5750613d906e09a130b963a6c115c3c7f400000000915b602354806141c35750613d8a6d08c815d5bcc20177de3b5d250000955b8a611f47565b90611e92565b90611ebb565b600a546040516370a0823160e01b81526001600482015290602090829060249082906001600160a01b03165afa90811561265657600091614191575b50633b9aca00810290808204633b9aca001490151715611ea557600492612c66613dfe92602094611f47565b93604051928380926318160ddd60e01b82525afa908115612656578d8491600093614159575b5061214161213c613e4194676765c793fa10079d601b1b9361291d565b60805260009160009360265460018060a01b0382166000526029602052604060002096600160405198613e738a611bd8565b80548a52015460208901528115614145575b6025546001600160a01b031615159182614139575b8261412f575b505061405a575b5050868c608051613eb791611f47565b90613ec191611f47565b601d548060a052613ed19161291d565b613eda906128c1565b676765c793fa10079d601b1b9004809b608051613ef691611ebb565b90613f0091611ebb565b50868c608051613f0f91611f47565b90613f1991611f47565b600854909b906001600160a01b0316614035575b6009546001600160a01b0316614010575b60a051614008575b5060275492613f56575b50505050565b86158015613fd7575b508215159182613fba575b505080613fb0575b613f7e575b8080613f50565b816020670de0b6b3a7640000613f9e613d9094613fa89798965190611e92565b0491015190611f47565b903880613f77565b5081511515613f72565b9091508115613fcc575b503880613f6a565b905082511138613fc4565b9092670de0b6b3a76400009182890292898404141715611ea557613d9061400192602854906128a1565b9138613f5f565b975038613f46565b9850676765c793fa10079d601b1b61402e61213c8d601c549061291d565b0498613f3e565b9950676765c793fa10079d601b1b61405361213c8d601b549061291d565b0499613f2d565b6140659194506129d6565b93908415613ea7576024805460405163c81ae6db60e01b81526001600160a01b0393841660048201529395506020928492918391165afa908115612656576000916140fd575b5091602854908115613ea7579080929850633b9aca00810204633b9aca001482151715611ea557676765c793fa10079d601b1b61214161213c8f633b9aca006140f596029061291d565b953880613ea7565b90506020813d602011614127575b8161411860209383611bf4565b8101031261178a5751386140ab565b3d915061410b565b1090503880613ea0565b60018114159250613e9a565b90506000198101818111611ea55790613e85565b925050506020813d602011614189575b8161417660209383611bf4565b8101031261178a5751828d612141613e24565b3d9150614169565b90506020813d6020116141bb575b816141ac60209383611bf4565b8101031261178a575138613dd2565b3d915061419f565b613d8a9095613d84565b613d909091613d67565b613d969091613d49565b909a506020813d60201161420d575b816141fd60209383611bf4565b8101031261178a57519938613d24565b3d91506141f0565b99613c40614227929b60125490611f47565b9838613cee565b505096505050505050506000906000608052600090600090600090600090600090600090565b50600d546040516318160ddd60e01b815290602090829060049082906001600160a01b03165afa90811561265657600091614291575b5015613cd4565b90506020813d82116142ba575b816142ab60209383611bf4565b8101031261178a57513861428a565b3d915061429e565b602154806143bd5750602462a55ec25b602254806143b457506143196e09a130b963a6c115c3c7f4000000005b602354806143aa5750613d906d08c815d5bcc20177de3b5d250000935b613d8a6010549143611f47565b600a546040516370a0823160e01b8152600160048201529360209185919082906001600160a01b03165afa92831561265657600093614377575b50633b9aca0092838102938185041490151715611ea5576129d392612c6691611f47565b90926020823d82116143a2575b8161439160209383611bf4565b810103126107dd5750519138614353565b3d9150614384565b613d90909361430c565b614319906142ef565b6024906142d256fe2f8788117e7eff1d82e926ec794901d17c78024a50270940304540a733656f0df0887ba65ee2024ea881d91b74c2450ef19e1557f03bed3ea9f16b037cbe2dc9523a704056dcd17bcf83bed8b68c59416dac1119be77755efe3bde0a64e46e0c497e03b12fad3ff21a8befe15ca84c3fc0060b505e572702bf6788e900252007bf02bad7114723a857a3af46cea17b778a3a951c96f183784d9a2448cc479ab6a164736f6c6343000813000a",
  "linkReferences": {},
  "deployedLinkReferences": {}
}