{
  "_format": "hh-sol-artifact-1",
  "contractName": "SeigManagerV1_3",
  "sourceName": "contracts/stake/managers/SeigManagerV1_3.sol",
  "abi": [
    {
      "anonymous": false,
      "inputs": [
        {
          "indexed": false,
          "internalType": "address",
          "name": "layer2",
          "type": "address"
        },
        {
          "indexed": false,
          "internalType": "uint256",
          "name": "seigs",
          "type": "uint256"
        },
        {
          "indexed": false,
          "internalType": "uint256",
          "name": "operatorSeigs",
          "type": "uint256"
        },
        {
          "indexed": false,
          "internalType": "uint256",
          "name": "nextTotalSupply",
          "type": "uint256"
        },
        {
          "indexed": false,
          "internalType": "uint256",
          "name": "prevTotalSupply",
          "type": "uint256"
        }
      ],
      "name": "AddedSeigAtLayer",
      "type": "event"
    },
    {
      "anonymous": false,
      "inputs": [
        {
          "indexed": true,
          "internalType": "address",
          "name": "layer2",
          "type": "address"
        }
      ],
      "name": "Comitted",
      "type": "event"
    },
    {
      "anonymous": false,
      "inputs": [
        {
          "indexed": false,
          "internalType": "uint256",
          "name": "totalStakedAmount",
          "type": "uint256"
        },
        {
          "indexed": false,
          "internalType": "uint256",
          "name": "totalSupplyOfWTON",
          "type": "uint256"
        },
        {
          "indexed": false,
          "internalType": "uint256",
          "name": "prevTotalSupply",
          "type": "uint256"
        },
        {
          "indexed": false,
          "internalType": "uint256",
          "name": "nextTotalSupply",
          "type": "uint256"
        }
      ],
      "name": "CommitLog1",
      "type": "event"
    },
    {
      "anonymous": false,
      "inputs": [
        {
          "indexed": true,
          "internalType": "bytes32",
          "name": "role",
          "type": "bytes32"
        },
        {
          "indexed": true,
          "internalType": "bytes32",
          "name": "previousAdminRole",
          "type": "bytes32"
        },
        {
          "indexed": true,
          "internalType": "bytes32",
          "name": "newAdminRole",
          "type": "bytes32"
        }
      ],
      "name": "RoleAdminChanged",
      "type": "event"
    },
    {
      "anonymous": false,
      "inputs": [
        {
          "indexed": true,
          "internalType": "bytes32",
          "name": "role",
          "type": "bytes32"
        },
        {
          "indexed": true,
          "internalType": "address",
          "name": "account",
          "type": "address"
        },
        {
          "indexed": true,
          "internalType": "address",
          "name": "sender",
          "type": "address"
        }
      ],
      "name": "RoleGranted",
      "type": "event"
    },
    {
      "anonymous": false,
      "inputs": [
        {
          "indexed": true,
          "internalType": "bytes32",
          "name": "role",
          "type": "bytes32"
        },
        {
          "indexed": true,
          "internalType": "address",
          "name": "account",
          "type": "address"
        },
        {
          "indexed": true,
          "internalType": "address",
          "name": "sender",
          "type": "address"
        }
      ],
      "name": "RoleRevoked",
      "type": "event"
    },
    {
      "anonymous": false,
      "inputs": [
        {
          "indexed": true,
          "internalType": "address",
          "name": "layer2",
          "type": "address"
        },
        {
          "indexed": false,
          "internalType": "uint256",
          "name": "totalSeig",
          "type": "uint256"
        },
        {
          "indexed": false,
          "internalType": "uint256",
          "name": "stakedSeig",
          "type": "uint256"
        },
        {
          "indexed": false,
          "internalType": "uint256",
          "name": "unstakedSeig",
          "type": "uint256"
        },
        {
          "indexed": false,
          "internalType": "uint256",
          "name": "powertonSeig",
          "type": "uint256"
        },
        {
          "indexed": false,
          "internalType": "uint256",
          "name": "daoSeig",
          "type": "uint256"
        },
        {
          "indexed": false,
          "internalType": "uint256",
          "name": "pseig",
          "type": "uint256"
        }
      ],
      "name": "SeigGiven",
      "type": "event"
    },
    {
      "anonymous": false,
      "inputs": [
        {
          "indexed": true,
          "internalType": "address",
          "name": "layer2",
          "type": "address"
        },
        {
          "indexed": false,
          "internalType": "uint256",
          "name": "totalSeig",
          "type": "uint256"
        },
        {
          "indexed": false,
          "internalType": "uint256",
          "name": "stakedSeig",
          "type": "uint256"
        },
        {
          "indexed": false,
          "internalType": "uint256",
          "name": "unstakedSeig",
          "type": "uint256"
        },
        {
          "indexed": false,
          "internalType": "uint256",
          "name": "powertonSeig",
          "type": "uint256"
        },
        {
          "indexed": false,
          "internalType": "uint256",
          "name": "daoSeig",
          "type": "uint256"
        },
        {
          "indexed": false,
          "internalType": "uint256",
          "name": "pseig",
          "type": "uint256"
        },
        {
          "indexed": false,
          "internalType": "uint256",
          "name": "l2TotalSeigs",
          "type": "uint256"
        },
        {
          "indexed": false,
          "internalType": "uint256",
          "name": "layer2Seigs",
          "type": "uint256"
        }
      ],
      "name": "SeigGiven2",
      "type": "event"
    },
    {
      "inputs": [],
      "name": "BURNT_AMOUNT_MAINNET",
      "outputs": [
        {
          "internalType": "uint256",
          "name": "",
          "type": "uint256"
        }
      ],
      "stateMutability": "view",
      "type": "function"
    },
    {
      "inputs": [],
      "name": "CHALLENGER_ROLE",
      "outputs": [
        {
          "internalType": "bytes32",
          "name": "",
          "type": "bytes32"
        }
      ],
      "stateMutability": "view",
      "type": "function"
    },
    {
      "inputs": [],
      "name": "DEFAULT_ADMIN_ROLE",
      "outputs": [
        {
          "internalType": "bytes32",
          "name": "",
          "type": "bytes32"
        }
      ],
      "stateMutability": "view",
      "type": "function"
    },
    {
      "inputs": [],
      "name": "INITIAL_TOTAL_SUPPLY_MAINNET",
      "outputs": [
        {
          "internalType": "uint256",
          "name": "",
          "type": "uint256"
        }
      ],
      "stateMutability": "view",
      "type": "function"
    },
    {
      "inputs": [],
      "name": "MAX_VALID_COMMISSION",
      "outputs": [
        {
          "internalType": "uint256",
          "name": "",
          "type": "uint256"
        }
      ],
      "stateMutability": "view",
      "type": "function"
    },
    {
      "inputs": [],
      "name": "MINTER_ROLE",
      "outputs": [
        {
          "internalType": "bytes32",
          "name": "",
          "type": "bytes32"
        }
      ],
      "stateMutability": "view",
      "type": "function"
    },
    {
      "inputs": [],
      "name": "MIN_VALID_COMMISSION",
      "outputs": [
        {
          "internalType": "uint256",
          "name": "",
          "type": "uint256"
        }
      ],
      "stateMutability": "view",
      "type": "function"
    },
    {
      "inputs": [],
      "name": "OPERATOR_ROLE",
      "outputs": [
        {
          "internalType": "bytes32",
          "name": "",
          "type": "bytes32"
        }
      ],
      "stateMutability": "view",
      "type": "function"
    },
    {
      "inputs": [],
      "name": "PAUSE_ROLE",
      "outputs": [
        {
          "internalType": "bytes32",
          "name": "",
          "type": "bytes32"
        }
      ],
      "stateMutability": "view",
      "type": "function"
    },
    {
      "inputs": [],
      "name": "RAY",
      "outputs": [
        {
          "internalType": "uint256",
          "name": "",
          "type": "uint256"
        }
      ],
      "stateMutability": "view",
      "type": "function"
    },
    {
      "inputs": [],
      "name": "SEIG_START_MAINNET",
      "outputs": [
        {
          "internalType": "uint256",
          "name": "",
          "type": "uint256"
        }
      ],
      "stateMutability": "view",
      "type": "function"
    },
    {
      "inputs": [],
      "name": "accRelativeSeig",
      "outputs": [
        {
          "internalType": "uint256",
          "name": "",
          "type": "uint256"
        }
      ],
      "stateMutability": "view",
      "type": "function"
    },
    {
      "inputs": [
        {
          "internalType": "address",
          "name": "account",
          "type": "address"
        }
      ],
      "name": "addAdmin",
      "outputs": [],
      "stateMutability": "nonpayable",
      "type": "function"
    },
    {
      "inputs": [
        {
          "internalType": "address",
          "name": "account",
          "type": "address"
        }
      ],
      "name": "addChallenger",
      "outputs": [],
      "stateMutability": "nonpayable",
      "type": "function"
    },
    {
      "inputs": [
        {
          "internalType": "address",
          "name": "account",
          "type": "address"
        }
      ],
      "name": "addMinter",
      "outputs": [],
      "stateMutability": "nonpayable",
      "type": "function"
    },
    {
      "inputs": [
        {
          "internalType": "address",
          "name": "account",
          "type": "address"
        }
      ],
      "name": "addOperator",
      "outputs": [],
      "stateMutability": "nonpayable",
      "type": "function"
    },
    {
      "inputs": [],
      "name": "adjustCommissionDelay",
      "outputs": [
        {
          "internalType": "uint256",
          "name": "",
          "type": "uint256"
        }
      ],
      "stateMutability": "view",
      "type": "function"
    },
    {
      "inputs": [
        {
          "internalType": "address",
          "name": "",
          "type": "address"
        }
      ],
      "name": "aliveImplementation",
      "outputs": [
        {
          "internalType": "bool",
          "name": "",
          "type": "bool"
        }
      ],
      "stateMutability": "view",
      "type": "function"
    },
    {
      "inputs": [
        {
          "internalType": "address",
          "name": "layer2",
          "type": "address"
        }
      ],
      "name": "allowIssuanceLayer2Seigs",
      "outputs": [
        {
          "internalType": "address",
          "name": "systemConfig",
          "type": "address"
        },
        {
          "internalType": "bool",
          "name": "allowed",
          "type": "bool"
        }
      ],
      "stateMutability": "view",
      "type": "function"
    },
    {
      "inputs": [],
      "name": "burntAmountAtDAO",
      "outputs": [
        {
          "internalType": "uint256",
          "name": "",
          "type": "uint256"
        }
      ],
      "stateMutability": "view",
      "type": "function"
    },
    {
      "inputs": [],
      "name": "dao",
      "outputs": [
        {
          "internalType": "address",
          "name": "",
          "type": "address"
        }
      ],
      "stateMutability": "view",
      "type": "function"
    },
    {
      "inputs": [],
      "name": "daoSeigRate",
      "outputs": [
        {
          "internalType": "uint256",
          "name": "",
          "type": "uint256"
        }
      ],
      "stateMutability": "view",
      "type": "function"
    },
    {
      "inputs": [
        {
          "internalType": "address",
          "name": "",
          "type": "address"
        }
      ],
      "name": "delayedCommissionBlock",
      "outputs": [
        {
          "internalType": "uint256",
          "name": "",
          "type": "uint256"
        }
      ],
      "stateMutability": "view",
      "type": "function"
    },
    {
      "inputs": [
        {
          "internalType": "address",
          "name": "",
          "type": "address"
        }
      ],
      "name": "delayedCommissionRate",
      "outputs": [
        {
          "internalType": "uint256",
          "name": "",
          "type": "uint256"
        }
      ],
      "stateMutability": "view",
      "type": "function"
    },
    {
      "inputs": [
        {
          "internalType": "address",
          "name": "",
          "type": "address"
        }
      ],
      "name": "delayedCommissionRateNegative",
      "outputs": [
        {
          "internalType": "bool",
          "name": "",
          "type": "bool"
        }
      ],
      "stateMutability": "view",
      "type": "function"
    },
    {
      "inputs": [
        {
          "internalType": "uint256",
          "name": "blockNumber",
          "type": "uint256"
        },
        {
          "internalType": "address",
          "name": "layer2",
          "type": "address"
        },
        {
          "internalType": "bool",
          "name": "_isSenderOperator",
          "type": "bool"
        }
      ],
      "name": "estimatedDistribute",
      "outputs": [
        {
          "internalType": "uint256",
          "name": "maxSeig",
          "type": "uint256"
        },
        {
          "internalType": "uint256",
          "name": "stakedSeig",
          "type": "uint256"
        },
        {
          "internalType": "uint256",
          "name": "unstakedSeig",
          "type": "uint256"
        },
        {
          "internalType": "uint256",
          "name": "powertonSeig",
          "type": "uint256"
        },
        {
          "internalType": "uint256",
          "name": "daoSeig",
          "type": "uint256"
        },
        {
          "internalType": "uint256",
          "name": "relativeSeig",
          "type": "uint256"
        },
        {
          "internalType": "uint256",
          "name": "l2TotalSeigs",
          "type": "uint256"
        },
        {
          "internalType": "uint256",
          "name": "layer2Seigs",
          "type": "uint256"
        }
      ],
      "stateMutability": "view",
      "type": "function"
    },
    {
      "inputs": [],
      "name": "factory",
      "outputs": [
        {
          "internalType": "address",
          "name": "",
          "type": "address"
        }
      ],
      "stateMutability": "view",
      "type": "function"
    },
    {
      "inputs": [
        {
          "internalType": "address",
          "name": "layer2",
          "type": "address"
        }
      ],
      "name": "getOperatorAmount",
      "outputs": [
        {
          "internalType": "uint256",
          "name": "",
          "type": "uint256"
        }
      ],
      "stateMutability": "view",
      "type": "function"
    },
    {
      "inputs": [
        {
          "internalType": "bytes32",
          "name": "role",
          "type": "bytes32"
        }
      ],
      "name": "getRoleAdmin",
      "outputs": [
        {
          "internalType": "bytes32",
          "name": "",
          "type": "bytes32"
        }
      ],
      "stateMutability": "view",
      "type": "function"
    },
    {
      "inputs": [
        {
          "internalType": "bytes32",
          "name": "role",
          "type": "bytes32"
        },
        {
          "internalType": "address",
          "name": "account",
          "type": "address"
        }
      ],
      "name": "grantRole",
      "outputs": [],
      "stateMutability": "nonpayable",
      "type": "function"
    },
    {
      "inputs": [
        {
          "internalType": "bytes32",
          "name": "role",
          "type": "bytes32"
        },
        {
          "internalType": "address",
          "name": "account",
          "type": "address"
        }
      ],
      "name": "hasRole",
      "outputs": [
        {
          "internalType": "bool",
          "name": "",
          "type": "bool"
        }
      ],
      "stateMutability": "view",
      "type": "function"
    },
    {
      "inputs": [],
      "name": "initialTotalSupply",
      "outputs": [
        {
          "internalType": "uint256",
          "name": "",
          "type": "uint256"
        }
      ],
      "stateMutability": "view",
      "type": "function"
    },
    {
      "inputs": [
        {
          "internalType": "address",
          "name": "account",
          "type": "address"
        }
      ],
      "name": "isAdmin",
      "outputs": [
        {
          "internalType": "bool",
          "name": "",
          "type": "bool"
        }
      ],
      "stateMutability": "view",
      "type": "function"
    },
    {
      "inputs": [
        {
          "internalType": "address",
          "name": "account",
          "type": "address"
        }
      ],
      "name": "isChallenger",
      "outputs": [
        {
          "internalType": "bool",
          "name": "",
          "type": "bool"
        }
      ],
      "stateMutability": "view",
      "type": "function"
    },
    {
      "inputs": [
        {
          "internalType": "address",
          "name": "account",
          "type": "address"
        }
      ],
      "name": "isMinter",
      "outputs": [
        {
          "internalType": "bool",
          "name": "",
          "type": "bool"
        }
      ],
      "stateMutability": "view",
      "type": "function"
    },
    {
      "inputs": [
        {
          "internalType": "address",
          "name": "account",
          "type": "address"
        }
      ],
      "name": "isOperator",
      "outputs": [
        {
          "internalType": "bool",
          "name": "",
          "type": "bool"
        }
      ],
      "stateMutability": "view",
      "type": "function"
    },
    {
      "inputs": [],
      "name": "isOwner",
      "outputs": [
        {
          "internalType": "bool",
          "name": "",
          "type": "bool"
        }
      ],
      "stateMutability": "view",
      "type": "function"
    },
    {
      "inputs": [],
      "name": "l2Registry",
      "outputs": [
        {
          "internalType": "address",
          "name": "",
          "type": "address"
        }
      ],
      "stateMutability": "view",
      "type": "function"
    },
    {
      "inputs": [],
      "name": "l2RewardPerUint",
      "outputs": [
        {
          "internalType": "uint256",
          "name": "",
          "type": "uint256"
        }
      ],
      "stateMutability": "view",
      "type": "function"
    },
    {
      "inputs": [],
      "name": "lastSnapshotId",
      "outputs": [
        {
          "internalType": "uint256",
          "name": "",
          "type": "uint256"
        }
      ],
      "stateMutability": "view",
      "type": "function"
    },
    {
      "inputs": [],
      "name": "layer2Manager",
      "outputs": [
        {
          "internalType": "address",
          "name": "",
          "type": "address"
        }
      ],
      "stateMutability": "view",
      "type": "function"
    },
    {
      "inputs": [
        {
          "internalType": "address",
          "name": "",
          "type": "address"
        }
      ],
      "name": "layer2RewardInfo",
      "outputs": [
        {
          "internalType": "uint256",
          "name": "layer2Tvl",
          "type": "uint256"
        },
        {
          "internalType": "uint256",
          "name": "initialDebt",
          "type": "uint256"
        }
      ],
      "stateMutability": "view",
      "type": "function"
    },
    {
      "inputs": [],
      "name": "layer2StartBlock",
      "outputs": [
        {
          "internalType": "uint256",
          "name": "",
          "type": "uint256"
        }
      ],
      "stateMutability": "view",
      "type": "function"
    },
    {
      "inputs": [],
      "name": "minimumAmount",
      "outputs": [
        {
          "internalType": "uint256",
          "name": "",
          "type": "uint256"
        }
      ],
      "stateMutability": "view",
      "type": "function"
    },
    {
      "inputs": [],
      "name": "pauseProxy",
      "outputs": [
        {
          "internalType": "bool",
          "name": "",
          "type": "bool"
        }
      ],
      "stateMutability": "view",
      "type": "function"
    },
    {
      "inputs": [],
      "name": "paused",
      "outputs": [
        {
          "internalType": "bool",
          "name": "",
          "type": "bool"
        }
      ],
      "stateMutability": "view",
      "type": "function"
    },
    {
      "inputs": [],
      "name": "powerTONSeigRate",
      "outputs": [
        {
          "internalType": "uint256",
          "name": "",
          "type": "uint256"
        }
      ],
      "stateMutability": "view",
      "type": "function"
    },
    {
      "inputs": [
        {
          "internalType": "uint256",
          "name": "",
          "type": "uint256"
        }
      ],
      "name": "proxyImplementation",
      "outputs": [
        {
          "internalType": "address",
          "name": "",
          "type": "address"
        }
      ],
      "stateMutability": "view",
      "type": "function"
    },
    {
      "inputs": [],
      "name": "relativeSeigRate",
      "outputs": [
        {
          "internalType": "uint256",
          "name": "",
          "type": "uint256"
        }
      ],
      "stateMutability": "view",
      "type": "function"
    },
    {
      "inputs": [
        {
          "internalType": "address",
          "name": "account",
          "type": "address"
        }
      ],
      "name": "removeAdmin",
      "outputs": [],
      "stateMutability": "nonpayable",
      "type": "function"
    },
    {
      "inputs": [
        {
          "internalType": "address",
          "name": "account",
          "type": "address"
        }
      ],
      "name": "removeChallenger",
      "outputs": [],
      "stateMutability": "nonpayable",
      "type": "function"
    },
    {
      "inputs": [
        {
          "internalType": "address",
          "name": "account",
          "type": "address"
        }
      ],
      "name": "removeMinter",
      "outputs": [],
      "stateMutability": "nonpayable",
      "type": "function"
    },
    {
      "inputs": [
        {
          "internalType": "address",
          "name": "account",
          "type": "address"
        }
      ],
      "name": "removeOperator",
      "outputs": [],
      "stateMutability": "nonpayable",
      "type": "function"
    },
    {
      "inputs": [],
      "name": "renounceChallenger",
      "outputs": [],
      "stateMutability": "nonpayable",
      "type": "function"
    },
    {
      "inputs": [],
      "name": "renounceMinter",
      "outputs": [],
      "stateMutability": "nonpayable",
      "type": "function"
    },
    {
      "inputs": [],
      "name": "renounceOperator",
      "outputs": [],
      "stateMutability": "nonpayable",
      "type": "function"
    },
    {
      "inputs": [],
      "name": "renounceOwnership",
      "outputs": [],
      "stateMutability": "nonpayable",
      "type": "function"
    },
    {
      "inputs": [
        {
          "internalType": "bytes32",
          "name": "role",
          "type": "bytes32"
        },
        {
          "internalType": "address",
          "name": "account",
          "type": "address"
        }
      ],
      "name": "renounceRole",
      "outputs": [],
      "stateMutability": "nonpayable",
      "type": "function"
    },
    {
      "inputs": [
        {
          "internalType": "address",
          "name": "account",
          "type": "address"
        }
      ],
      "name": "revokeChallenger",
      "outputs": [],
      "stateMutability": "nonpayable",
      "type": "function"
    },
    {
      "inputs": [
        {
          "internalType": "address",
          "name": "account",
          "type": "address"
        }
      ],
      "name": "revokeMinter",
      "outputs": [],
      "stateMutability": "nonpayable",
      "type": "function"
    },
    {
      "inputs": [
        {
          "internalType": "address",
          "name": "account",
          "type": "address"
        }
      ],
      "name": "revokeOperator",
      "outputs": [],
      "stateMutability": "nonpayable",
      "type": "function"
    },
    {
      "inputs": [
        {
          "internalType": "bytes32",
          "name": "role",
          "type": "bytes32"
        },
        {
          "internalType": "address",
          "name": "account",
          "type": "address"
        }
      ],
      "name": "revokeRole",
      "outputs": [],
      "stateMutability": "nonpayable",
      "type": "function"
    },
    {
      "inputs": [],
      "name": "seigStartBlock",
      "outputs": [
        {
          "internalType": "uint256",
          "name": "",
          "type": "uint256"
        }
      ],
      "stateMutability": "view",
      "type": "function"
    },
    {
      "inputs": [
        {
          "internalType": "bytes4",
          "name": "",
          "type": "bytes4"
        }
      ],
      "name": "selectorImplementation",
      "outputs": [
        {
          "internalType": "address",
          "name": "",
          "type": "address"
        }
      ],
      "stateMutability": "view",
      "type": "function"
    },
    {
      "inputs": [
        {
          "internalType": "address",
          "name": "l2Registry_",
          "type": "address"
        }
      ],
      "name": "setL2Registry",
      "outputs": [],
      "stateMutability": "nonpayable",
      "type": "function"
    },
    {
      "inputs": [
        {
          "internalType": "address",
          "name": "layer2Manager_",
          "type": "address"
        }
      ],
      "name": "setLayer2Manager",
      "outputs": [],
      "stateMutability": "nonpayable",
      "type": "function"
    },
    {
      "inputs": [
        {
          "internalType": "uint256",
          "name": "startBlock_",
          "type": "uint256"
        }
      ],
      "name": "setLayer2StartBlock",
      "outputs": [],
      "stateMutability": "nonpayable",
      "type": "function"
    },
    {
      "inputs": [
        {
          "internalType": "bytes4",
          "name": "interfaceId",
          "type": "bytes4"
        }
      ],
      "name": "supportsInterface",
      "outputs": [
        {
          "internalType": "bool",
          "name": "",
          "type": "bool"
        }
      ],
      "stateMutability": "view",
      "type": "function"
    },
    {
      "inputs": [],
      "name": "totalLayer2TVL",
      "outputs": [
        {
          "internalType": "uint256",
          "name": "",
          "type": "uint256"
        }
      ],
      "stateMutability": "view",
      "type": "function"
    },
    {
      "inputs": [],
      "name": "totalSupplyOfTon",
      "outputs": [
        {
          "internalType": "uint256",
          "name": "tos",
          "type": "uint256"
        }
      ],
      "stateMutability": "view",
      "type": "function"
    },
    {
      "inputs": [
        {
          "internalType": "address",
          "name": "newAdmin",
          "type": "address"
        }
      ],
      "name": "transferAdmin",
      "outputs": [],
      "stateMutability": "nonpayable",
      "type": "function"
    },
    {
      "inputs": [
        {
          "internalType": "address",
          "name": "newAdmin",
          "type": "address"
        }
      ],
      "name": "transferOwnership",
      "outputs": [],
      "stateMutability": "nonpayable",
      "type": "function"
    },
    {
      "inputs": [
        {
          "internalType": "address",
          "name": "layer2",
          "type": "address"
        }
      ],
      "name": "unSettledReward",
      "outputs": [
        {
          "internalType": "uint256",
          "name": "amount",
          "type": "uint256"
        }
      ],
      "stateMutability": "view",
      "type": "function"
    },
    {
      "inputs": [],
      "name": "updateSeigniorage",
      "outputs": [
        {
          "internalType": "bool",
          "name": "",
          "type": "bool"
        }
      ],
      "stateMutability": "nonpayable",
      "type": "function"
    },
    {
      "inputs": [
        {
          "internalType": "address",
          "name": "layer2",
          "type": "address"
        }
      ],
      "name": "updateSeigniorageLayer",
      "outputs": [
        {
          "internalType": "bool",
          "name": "",
          "type": "bool"
        }
      ],
      "stateMutability": "nonpayable",
      "type": "function"
    },
    {
      "inputs": [],
      "name": "updateSeigniorageOperator",
      "outputs": [
        {
          "internalType": "bool",
          "name": "",
          "type": "bool"
        }
      ],
      "stateMutability": "nonpayable",
      "type": "function"
    }
  ],
  "bytecode": "0x6080806040523461001657614a96908161001c8239f35b600080fdfe60c060408181526004918236101561001657600080fd5b600092833560e01c91826301ffc9a7146115fd575081630ceb67801461154057816316b5d5bd146115175781631785f53c146114e95781631e1f0b60146114215781631fbeab54146113e45781632428c628146113c7578163248a9ca31461139c57816324d7806c1461135657816325374a9a1461133757816325e90db41461131d5781632ab6f8db146113035781632f17250a146112dd5781632f2ff15d146112425781633092afd514611214578163311028af146111f557816336568abe14611163578163389ed267146111285781633c491173146110d85781634123196f14610f575781634162169f146110af57816344feabf81461106c5781634631179e1461104357816350d2a27614610fff57816351e1e1e614610fc3578163530adbb414610f9a578163550d01a314610f5c578163552033c414610f575781635998a8d714610f385781635c975abb14610f145781635f6fb8b914610ed25781636304a62414610eb357816363a8fd8914610e915781636c578c1d14610e635781636d70f7ae14610e0f5781636e71186b14610df05781637048027514610d4d578163715018a614610d2757816375829def14610d0a578163764a785614610cc4578163837afbc014610ca65781638f32d59b14610c7357816391d1485414610c2c578163983b2d5614610bdc5781639865027514610bc25781639870d7fe14610b0f5781639b370dea14610ae2578163a217fddf14610ac7578163a415d8dc14610a73578163a7dcc85014610a4d578163aa271e1a146109f9578163ac28e2ed146109be578163ac753a7a14610980578163ac8a584a14610952578163acd848fa14610928578163b911135f146108f5578163baa1253614610897578163bb0c829814610878578163bf7f473314610859578163c2e5dcc914610830578163c45a015514610807578163ca6080891461077c578163cbfebe6214610744578163cfbd4885146106f4578163d0d2ff70146106d5578163d5391393146106ac578163d547741f14610670578163d8c4796614610652578163df7fbef014610633578163e2fe8fd1146105fb578163f2fde38b146104b757508063f5b541a61461048f578063f822934814610471578063f96032e614610453578063f9bae41a146104355763fad8b32a1461036957600080fd5b34610431576020908160031936011261042d57610384611681565b90610396610391336116d8565b611dd0565b600080516020614a2a83398151915292838552600581526103bc60018387200154611715565b838552600581528185206001600160a01b039093168086529281528185205460ff166103e6578480f35b8385526005815281852083865290528320805460ff1916905533917ff6391f5c32d9c69d2a47ea670b442974b53935d1edc7fd64eb21e047a839171b8480a4388080808480f35b8280fd5b5080fd5b50346104315781600319360112610431576020906027549051908152f35b50346104315781600319360112610431576020906021549051908152f35b5034610431578160031936011261043157602090601e549051908152f35b503461043157816003193601126104315760209051600080516020614a2a8339815191528152f35b9190503461042d576020806003193601126105f7576104d4611681565b6104e0610391336116d8565b6104ec610391336116d8565b6001600160a01b03169283156105b65783331461057c57508380526005815261051a60018386200154611715565b83805260058152818420838552815260ff828520541615610543575b8361054033611af7565b80f35b8380526005815281842083855290528220805460ff191660011790553390826000805160206149ea8339815191528180a4388080610536565b915162461bcd60e51b815291820152601660248201527520b1b1b2b9b9b4b136329d1039b0b6b29030b236b4b760511b6044820152606490fd5b915162461bcd60e51b815291820152601860248201527f41636365737369626c653a207a65726f206164647265737300000000000000006044820152606490fd5b8380fd5b5050346104315760203660031901126104315760209181906001600160a01b03610623611681565b1681526018845220549051908152f35b5050346104315781600319360112610431576020906016549051908152f35b5050346104315781600319360112610431576020905162a55ec28152f35b9190503461042d578060031936011261042d5761054091356106a7600161069561169c565b93838752600560205286200154611715565b611d42565b50503461043157816003193601126104315760209051600080516020614a0a8339815191528152f35b5050346104315781600319360112610431576020906026549051908152f35b505034610431576020908160031936011261042d57610711611681565b9061071e610391336116d8565b600080516020614a0a83398151915292838552600581526103bc60018387200154611715565b5050346104315760203660031901126104315760209181906001600160a01b0361076c611681565b1681526017845220549051908152f35b839150346104315760603660031901126104315761079861169c565b906044359283151584036108045750916107b69161080093356141ee565b9460a09796979491949392935198519889988994919260e0969399989794919961010087019a8752602087015260408601526060850152608084015260a083015260c08201520152565b0390f35b80fd5b505034610431578160031936011261043157600c5490516001600160a01b039091168152602090f35b50503461043157816003193601126104315760245490516001600160a01b039091168152602090f35b5050346104315781600319360112610431576020906023549051908152f35b505034610431578160031936011261043157602090601a549051908152f35b505034610431576020366003190112610431576108d260ff6108b7611681565b92848052600560205280852033865260205284205416611dd0565b60018060a01b03166bffffffffffffffffffffffff60a01b602554161760255580f35b90503461042d57602036600319011261042d5735825260016020908152918190205490516001600160a01b039091168152f35b505034610431578160031936011261043157602090516e09a130b963a6c115c3c7f4000000008152f35b83346108045760203660031901126108045761054061096f611681565b61097b610391336116d8565b611c88565b5050346104315760203660031901126104315760209160ff9082906001600160a01b036109ab611681565b1681526019855220541690519015158152f35b9190503461042d57602036600319011261042d5760ff6109f291848052600560205280852033865260205284205416611dd0565b3560265580f35b5050346104315760203660031901126104315760ff81602093610a1a611681565b600080516020614a0a8339815191528252600586528282206001600160a01b039091168252855220549151911615158152f35b505034610431578160031936011261043157602090516a084595161401484a0000008152f35b5050346104315760203660031901126104315760ff81602093610a94611681565b600080516020614a6a8339815191528252600586528282206001600160a01b039091168252855220549151911615158152f35b50503461043157816003193601126104315751908152602090f35b50503461043157602036600319011261043157602090610b08610b03611681565b6140bd565b9051908152f35b505034610431576020908160031936011261042d57610b2c611681565b90610b39610391336116d8565b600080516020614a2a8339815191529283855260058152610b5f60018387200154611715565b838552600581528185206001600160a01b039093168086529281528185205460ff1615610b8a578480f35b8385526005815281852083865290528320805460ff1916600117905533916000805160206149ea8339815191528480a4388080808480f35b833461080457806003193601126108045761054033611ce5565b505034610431576020908160031936011261042d57610bf9611681565b90610c06610391336116d8565b600080516020614a0a8339815191529283855260058152610b5f60018387200154611715565b90503461042d578160031936011261042d578160209360ff92610c4d61169c565b90358252600586528282206001600160a01b039091168252855220549151911615158152f35b50503461043157816003193601126104315760ff8183806020955260058552818120338252855220541690519015158152f35b50503461043157816003193601126104315760209081549051908152f35b505034610431578160031936011261043157338252600e60209081529181902054610cf9906001600160a01b03161515611e28565b610d01612447565b90519015158152f35b9190503461042d576020806003193601126105f7576104e0611681565b8334610804578060031936011261080457610d44610391336116d8565b61054033611af7565b505034610431576020908160031936011261042d57610d6a611681565b91610d77610391336116d8565b83805260058152610d8d60018386200154611715565b838052600581528184206001600160a01b039093168085529281528184205460ff1615610db8578380f35b8380526005815281842083855290528220805460ff191660011790553390826000805160206149ea8339815191528180a43880808380f35b5050346104315781600319360112610431576020906028549051908152f35b5050346104315760203660031901126104315760ff81602093610e30611681565b600080516020614a2a8339815191528252600586528282206001600160a01b039091168252855220549151911615158152f35b833461080457602036600319011261080457610540610e80611681565b610e8c610391336116d8565b611be6565b50503461043157816003193601126104315760ff602092541690519015158152f35b505034610431578160031936011261043157602090601b549051908152f35b505034610431576020366003190112610431579081906001600160a01b03610ef8611681565b1681526029602052206001815491015482519182526020820152f35b50503461043157816003193601126104315760209060ff601f541690519015158152f35b505034610431578160031936011261043157602090601c549051908152f35b6116b2565b5050346104315760203660031901126104315760209160ff9082906001600160a01b03610f87611681565b1681526002855220541690519015158152f35b50503461043157816003193601126104315760209051600080516020614a6a8339815191528152f35b8284346108045760203660031901126108045750610fe7610fe2611681565b6128b7565b82516001600160a01b03909216825215156020820152f35b90503461042d57602036600319011261042d573563ffffffff60e01b811680910361042d57825260036020908152918190205490516001600160a01b039091168152f35b505034610431578160031936011261043157602090516d08c815d5bcc20177de3b5d2500008152f35b5050346104315760203660031901126104315761108c60ff6108b7611681565b60018060a01b03166bffffffffffffffffffffffff60a01b602454161760245580f35b50503461043157816003193601126104315760095490516001600160a01b039091168152602090f35b505034610431576020908160031936011261042d576110f5611681565b90611102610391336116d8565b600080516020614a6a83398151915292838552600581526103bc60018387200154611715565b505034610431578160031936011261043157602090517ffcb9fcbfa83b897fb2d5cf4b58962164105c1e71489a37ef3ae0db3fdce576f68152f35b8391503461043157826003193601126104315761117e61169c565b90336001600160a01b0383160361119a57906105409135611d42565b608490602085519162461bcd60e51b8352820152602f60248201527f416363657373436f6e74726f6c3a2063616e206f6e6c792072656e6f756e636560448201526e103937b632b9903337b91039b2b63360891b6064820152fd5b5050346104315781600319360112610431576020906022549051908152f35b833461080457602036600319011261080457610540611231611681565b61123d610391336116d8565b611ce5565b90503461042d578160031936011261042d57359061125e61169c565b90828452600560205261127660018286200154611715565b828452600560209081528185206001600160a01b039093168086529290528084205460ff16156112a4578380f35b82845260056020528084208285526020528320600160ff1982541617905533916000805160206149ea8339815191528480a43880808380f35b50503461043157602036600319011261043157602090610b086112fe611681565b612493565b833461080457806003193601126108045761054033611c88565b833461080457806003193601126108045761054033611be6565b505034610431578160031936011261043157602090601d549051908152f35b5050346104315760203660031901126104315760ff81602093611377611681565b818052600586528282206001600160a01b039091168252855220549151911615158152f35b90503461042d57602036600319011261042d5781602093600192358152600585522001549051908152f35b505034610431578160031936011261043157602090610b08614814565b505034610431578160031936011261043157338252600e60209081529181902054611419906001600160a01b03161515611e28565b610d01611ecf565b90503461042d57602092836003193601126108045780846001600160a01b03611448611681565b1684865180948193633b253c2b60e11b83525af19182156114de57916114b1575b501561147757505160018152f35b82606492519162461bcd60e51b835282015260166024820152756661696c20757064617465536569676e696f7261676560501b6044820152fd5b6114d19150843d86116114d7575b6114c98183611ab0565b810190611eb7565b38611469565b503d6114bf565b8451903d90823e3d90fd5b833461080457602036600319011261080457610540611506611681565b611512610391336116d8565b611af7565b50503461043157816003193601126104315760255490516001600160a01b039091168152602090f35b90503461042d57602091826003193601126105f75761155d611681565b91611567336116d8565b80156115d3575b1561159a5750600080516020614a6a8339815191529283855260058152610b5f60018387200154611715565b83606492519162461bcd60e51b835282015260156024820152743737ba1037b7363ca6b4b73a32b927b920b236b4b760591b6044820152fd5b50600080516020614a0a833981519152855260058452818520338652845260ff828620541661156e565b849184346105f75760203660031901126105f75781359063ffffffff60e01b821680920361167d57602094637965db0b60e01b8314938415611644575b5050505015158152f35b6301ffc9a760e01b8414945091929091908415611669575b505050508380808061163a565b60ff9450825285522054168380808061165c565b8480fd5b600435906001600160a01b038216820361169757565b600080fd5b602435906001600160a01b038216820361169757565b34611697576000366003190112611697576020604051676765c793fa10079d601b1b8152f35b6001600160a01b031660009081527f05b8ccbb9d4d8fb16ea74ce3c29a41f1b461fbdaff4714a0d9a8eb05499746bc602052604090205460ff1690565b60009080825260209060058252604092838120338252835260ff84822054161561173f5750505050565b3384519261174c84611a94565b602a84528484019086368337845115611a175760308253845192600193841015611a03576078602187015360295b8481116119995750611957578651926080840184811067ffffffffffffffff8211176119435788526042845286840194606036873784511561192f5760308653845182101561192f5790607860218601536041915b8183116118c15750505061187f5761187b93869361185f936118506048946118279a519a8b957f416363657373436f6e74726f6c3a206163636f756e74200000000000000000008c8801525180926037880190611a2b565b8401917001034b99036b4b9b9b4b733903937b6329607d1b603784015251809386840190611a2b565b01036028810187520185611ab0565b5192839262461bcd60e51b845260048401526024830190611ad2565b0390fd5b60648587519062461bcd60e51b825280600483015260248201527f537472696e67733a20686578206c656e67746820696e73756666696369656e746044820152fd5b909192600f8116601081101561191b576f181899199a1a9b1b9c1cb0b131b232b360811b901a6118f18588611da9565b5360041c928015611907576000190191906117cf565b634e487b7160e01b82526011600452602482fd5b634e487b7160e01b83526032600452602483fd5b634e487b7160e01b81526032600452602490fd5b634e487b7160e01b86526041600452602486fd5b60648688519062461bcd60e51b825280600483015260248201527f537472696e67733a20686578206c656e67746820696e73756666696369656e746044820152fd5b90600f811660108110156119ef576f181899199a1a9b1b9c1cb0b131b232b360811b901a6119c78389611da9565b5360041c9080156119db576000190161177a565b634e487b7160e01b86526011600452602486fd5b634e487b7160e01b87526032600452602487fd5b634e487b7160e01b85526032600452602485fd5b634e487b7160e01b84526032600452602484fd5b60005b838110611a3e5750506000910152565b8181015183820152602001611a2e565b67ffffffffffffffff8111611a6257604052565b634e487b7160e01b600052604160045260246000fd5b6040810190811067ffffffffffffffff821117611a6257604052565b6060810190811067ffffffffffffffff821117611a6257604052565b90601f8019910116810190811067ffffffffffffffff821117611a6257604052565b90602091611aeb81518092818552858086019101611a2b565b601f01601f1916010190565b6001600160a01b0316338103611b895760008181527f05b8ccbb9d4d8fb16ea74ce3c29a41f1b461fbdaff4714a0d9a8eb05499746bc602052604081205490919060ff16611b43575050565b8180526005602052604082208183526020526040822060ff19815416905533917ff6391f5c32d9c69d2a47ea670b442974b53935d1edc7fd64eb21e047a839171b8180a4565b60405162461bcd60e51b815260206004820152602f60248201527f416363657373436f6e74726f6c3a2063616e206f6e6c792072656e6f756e636560448201526e103937b632b9903337b91039b2b63360891b6064820152608490fd5b6001600160a01b0316338103611b895760008181527fedec71783a10810e436f3392a073a61717130e573433fcc6591c3061a012f7676020526040812054909190600080516020614a6a8339815191529060ff16611c4357505050565b8083526005602052604083208284526020526040832060ff1981541690557ff6391f5c32d9c69d2a47ea670b442974b53935d1edc7fd64eb21e047a839171b339380a4565b6001600160a01b0316338103611b895760008181527f02634a7c777b8129955fe1824eee49ef19dfa96f2f4cb63212492c3d84eb58e66020526040812054909190600080516020614a2a8339815191529060ff16611c4357505050565b6001600160a01b0316338103611b895760008181527fca0a2f641ec05ca23127d994cf03ffc453db616acae0b86cb56bb95304d068546020526040812054909190600080516020614a0a8339815191529060ff16611c4357505050565b906000918083526005602052604083209160018060a01b03169182845260205260ff604084205416611c4357505050565b81810292918115918404141715611d8657565b634e487b7160e01b600052601160045260246000fd5b91908201809211611d8657565b908151811015611dba570160200190565b634e487b7160e01b600052603260045260246000fd5b15611dd757565b60405162461bcd60e51b815260206004820152602360248201527f41757468436f6e74726f6c3a2043616c6c6572206973206e6f7420616e20616460448201526236b4b760e91b6064820152608490fd5b15611e2f57565b60405162461bcd60e51b815260206004820152602e60248201527f536569674d616e616765723a20636f696e61676520686173206e6f742062656560448201526d1b8819195c1b1bde5959081e595d60921b6064820152608490fd5b91908203918211611d8657565b9081602091031261169757516001600160a01b03811681036116975790565b90816020910312611697575180151581036116975790565b601f5460ff60009116612441576011544311156123fc57611eef33612493565b601a54116123b757338152600e60209081526040808320546001600160a01b039290831691611f1c612ae8565b1561237f57338552600f825280852043905580516318160ddd60e01b81529360049280868581885afa958615612375578796612342575b5060248183600d54168551928380926370a0823160e01b8252338a8301525afa908115612136578891612311575b50808710156122e05786611f9491611e8b565b9183519463570ca73560e01b865282868281335afa9586156122d65789966122a7575b503389526015835260ff858a20541696611fd58789878c8533612562565b9790988751630a9ee07f60e31b815286818681875afa908115612261578c8e928d8a93859261226b575b5061202261201d6120289493676765c793fa10079d601b1b936127fe565b6127a2565b04612871565b60248b518094819363817e9d3160e01b83528a830152885af1801561226157889492889694928c92612244575b5081612140575b5050600b546007548a516340c10f1960e01b81529088166001600160a01b031694810194855260208501959095529395869416928492508d915082906040015b03925af18015612136579160a0979593917f9f0aff7defc0f0b331d66bccf1955a699b40155565289317e38b9799ddf0944899979593612119575b508251967f521cc65179761533a7c8d7a973291dd7baebb99a67edf5ef78e9c2b61a533d95339180a233875286015284015260608301526080820152a1600190565b61212f90823d84116114d7576114c98183611ab0565b50386120d7565b84513d8a823e3d90fd5b93959294509092156121d4575050813b156121d057865163079cc67960e41b81526001600160a01b039091168382019081526020810189905290918b9183919082908490829060400103925af180156121c6576121ab575b508361209c9284925b909338898161205c565b61209c9284929a6121bc8793611a4e565b9a92509250612198565b86513d8c823e3d90fd5b8a80fd5b88516340c10f1960e01b81526001600160a01b0390931685840190815260208101919091529192909183919082908e90829060400103925af180156121c657928492869261209c95612227575b506121a1565b61223d90853d87116114d7576114c98183611ab0565b5038612221565b61225a90883d8a116114d7576114c98183611ab0565b5038612055565b89513d8f823e3d90fd5b945050505081813d83116122a0575b6122848183611ab0565b8101031261229c57518c9087908d908d612022611fff565b8c80fd5b503d61227a565b6122c8919650833d85116122cf575b6122c08183611ab0565b810190611e98565b9438611fb7565b503d6122b6565b85513d8b823e3d90fd5b505050505050507f521cc65179761533a7c8d7a973291dd7baebb99a67edf5ef78e9c2b61a533d95339180a2600190565b90508181813d831161233b575b6123288183611ab0565b81010312612337575138611f81565b8780fd5b503d61231e565b9080965081813d831161236e575b61235a8183611ab0565b8101031261236a57519438611f53565b8680fd5b503d612350565b83513d89823e3d90fd5b60649250519062461bcd60e51b8252600482015260126024820152715f696e637265617365546f742066616c736560701b6044820152fd5b60405162461bcd60e51b815260206004820152601d60248201527f6d696e696d756d416d6f756e7420697320696e73756666696369656e740000006044820152606490fd5b60405162461bcd60e51b815260206004820152601b60248201527f6c617374207365696720626c6f636b206973206e6f74207061737400000000006044820152606490fd5b50600190565b600060ff601f5416612441576011544311156123fc5761246633612493565b601a54116123b757338152600e60209081526040808320546001600160a01b039290831691611f1c6136d3565b60405163570ca73560e01b81526001600160a01b03918216916020908183600481875afa92831561253757600093612543575b50819293600052600e8252602481604060002054169460405195869384926370a0823160e01b84521660048301525afa9081156125375760009161250b575b50905090565b82813d8311612530575b61251f8183611ab0565b810103126108045750518038612505565b503d612515565b6040513d6000823e3d90fd5b82935061255c90833d85116122cf576122c08183611ab0565b926124c6565b95939491959290926000809460018060a01b03809316865260206017815260409384882054804310159081612778575b50612739575b3388526014825284882054966125ae878d611d9c565b9a881561272957156126f9578b156126ea5785516370a0823160e01b8152908216600482015292829184916024918391165afa9384156126e1575086936126b1575b505081156126a8575061201d61260c61201d9861262e93612871565b938493612628676765c793fa10079d601b1b9a8b9687936127fe565b046127fe565b0485821495866000146126745761265394959682945b50156126575750905093611d9c565b9190565b61266761201d61266e94866127fe565b0490611d9c565b93611d9c565b828103968188116126945761268e61265396979884612871565b94612644565b634e487b7160e01b85526011600452602485fd5b95965050505050565b9080929350813d83116126da575b6126c98183611ab0565b8101031261167d57519038806125f0565b503d6126bf565b513d88823e3d90fd5b50505050965050505050909190565b50505050505061265393949550676765c793fa10079d601b1b92506127219161201d916127fe565b048093611e8b565b5050505050505050509250909190565b601882528488205460148352858920556019825260ff8589205416601583528589209060ff801983541691151516179055601782528785812055612598565b9050151538612592565b811561278c570490565b634e487b7160e01b600052601260045260246000fd5b906b019d971e4fe8401e74000000820191828111611d865782106127c257565b60405162461bcd60e51b815260206004820152601460248201527364732d6d6174682d6164642d6f766572666c6f7760601b6044820152606490fd5b600092918015918215612851575b50501561281557565b60405162461bcd60e51b815260206004820152601460248201527364732d6d6174682d6d756c2d6f766572666c6f7760601b6044820152606490fd5b915092506128696128628483611d73565b9384612782565b14388061280c565b90676765c793fa10079d601b1b9182810292818404811482151715611d8657830403612815576128a48160011c83611d9c565b9182106127c2576128b491612782565b90565b6025546040805163570ca73560e01b8152929360009390928492916001600160a01b03918216916020918281600481858d165afa908115612a69578691612a73575b50845163050f7f4960e51b815290821660048201528281602481875afa908115612a69578691612a4c575b5061296d8199865161293581611a94565b602281527f616c6c6f7749737375616e63654c61796572325365696773206c6179657232208682015261257360f01b88820152614999565b6129ba81865161297c81611a94565b602881527f616c6c6f7749737375616e63654c617965723253656967732073797374656d4386820152676f6e66696720257360c01b88820152614999565b16806129c95750929450505050565b8190602485518095819363153e6d7f60e01b835260048301525afa928315612a4357508392612a06575b505060ff915016612a0057565b60019150565b90809250813d8311612a3c575b612a1d8183611ab0565b8101031261043157519060ff82168203610804575060ff9038806129f3565b503d612a13565b513d85823e3d90fd5b612a639150833d85116122cf576122c08183611ab0565b38612924565b85513d88823e3d90fd5b612a8a9150833d85116122cf576122c08183611ab0565b386128f9565b60405190612a9d82611a78565b6011825270746f74616c4c617965723254564c20257360781b6020830152565b60405190612aca82611a78565b600f82526e6c32546f74616c536569677320257360881b6020830152565b6011544311156136ce57600d546040516318160ddd60e01b81526001600160a01b0390911690602081600481855afa9081156125375760009161369c575b5015613692576040516318160ddd60e01b815290602082600481845afa9182156125375760009261365e575b50612b67612b5e614080565b60105490611d73565b91612b9483604051612b7881611a78565b600a8152696d61785365696720257360b01b6020820152614954565b612b9c614814565b916040516318160ddd60e01b8152602081600481855afa801561253757849160009161361e575b5090676765c793fa10079d601b1b61202261201d612be194896127fe565b906000809481829333845260296020526040842096600160405198612c058a611a78565b80548a520154602089015260265415613606575b868a602854612c2f81612c2a612a90565b614954565b6025546001600160a01b03161515806135f9575b806135ee575b6134b6575b5061201d612c7b88612c76676765c793fa10079d601b1b95612c8495612c7684612c2a612abd565b611e8b565b601d54906127fe565b0493612c9985612c948a85611d9c565b611d9c565b9243601155604051630a9ee07f60e31b8152602081600481855afa90811561253757600091613483575b508392916024612ceb8796676765c793fa10079d601b1b61202261201d60209760009c6127fe565b604051978893849263817e9d3160e01b845260048401525af193841561253757600494613464575b50600d546040516318160ddd60e01b81529460209186919082906001600160a01b03165afa9384156125375760009461342f575b50917f41a79a497d1457df24c25ab99f22349ae9aef4468429f0a781216e8dcf80c6289391608093604051938452602084015260408301526060820152a1612d9383612c76878b611e8b565b956000908192829486613308575b6008546001600160a01b03168a8161326e575b50506009546001600160a01b03168a816131d4575b5050601d546131bd575b50600096612e7b575b5050600080516020614a4a833981519152975090839291612e03612e739695612c2a612abd565b612e3385604051612e1381611a78565b600e81526d6c6179657232536569677320257360901b6020820152614954565b604051978897339b8994919260e0969399989794919961010087019a8752602087015260408601526060850152608084015260a083015260c08201520152565b0390a2600190565b612e8786612c2a612abd565b85613170575b60275490612ec582604051612ea181611a78565b60128152716c3252657761726450657255696e7420257360701b6020820152614954565b8780604051612ed381611a78565b60118152702fb4b9a9b2b73232b927b832b930ba37b960791b60208201528180604051612f2b81612f1d602082019663104c13eb60e21b8852602060248401526044830190611ad2565b03601f198101835282611ab0565b516a636f6e736f6c652e6c6f6793845afa5060405160208101906332458eed60e01b82526001602482015260248152612f6381611a94565b51915afa5033885260296020526040882091613038575b50612e739695949392916130258b600080516020614a4a8339815191529c61302d9455612ff8612fb7612faf83602854611d9c565b855190611e8b565b938460285551604051612fc981611a78565b601a81527f6f6c644c6179657232496e666f2e6c617965723254766c2025730000000000006020820152614954565b60405161300481611a78565b600f81526e6375724c617965723254766c20257360881b6020820152614954565b612c2a612a90565b909192939438612ddc565b9650613043336140bd565b966130838860405161305481611a78565b601e81527f6c6179657232536569677320756e536574746c656452657761726420257300006020820152614954565b876130d8575b50612e739695949392916130258b8061302d94670de0b6b3a7640000600080516020614a4a8339815191529f6130c190602754611d73565b0460018201559450509b5050919293949596612f7a565b60255490979695949392906001600160a01b0316803b156116975760405163c5f16b8960e01b81526001600160a01b039990991660048a0152602489018890526000908990604490829084905af1978815612537578b600080516020614a4a8339815191529c61302d9461302593612e739c613161575b509450509b5050919293949596613089565b61316a90611a4e565b3861314f565b670de0b6b3a76400008087029087820414871517156131a9576131996131a19160285490612782565b602754611d9c565b602755612e8d565b634e487b7160e01b88526011600452602488fd5b94506131cb85601e54611d9c565b601e5538612dd3565b61323a919650676765c793fa10079d601b1b6131f861201d602093601c54906127fe565b600b546040516340c10f1960e01b81526001600160a01b039a8b1660048201529290910460248301819052989193849290911690829060009082906044820190565b03925af180156125375761324f575b8a612dc9565b6132679060203d6020116114d7576114c98183611ab0565b5038613249565b6132d4919550676765c793fa10079d601b1b61329261201d602093601b54906127fe565b600b546040516340c10f1960e01b81526001600160a01b03998a1660048201529290910460248301819052979193849290911690829060009082906044820190565b03925af18015612537576132e9575b8a612db4565b6133019060203d6020116114d7576114c98183611ab0565b50386132e3565b600b546025546040516340c10f1960e01b81526001600160a01b039182166004820152602481018a905291602091839160449183918a91165af1801561340557613410575b50600b546025546040516370a0823160e01b81526001600160a01b0391821660048201529160209183916024918391165afa80156134055785906133d1575b6133cc915060405161339d81611a78565b602081527f5f77746f6e2062616c616e6365206c61796572324d616e61676572203a2025736020820152614954565b612da1565b506020813d6020116133fd575b816133eb60209383611ab0565b8101031261167d576133cc905161338c565b3d91506133de565b6040513d87823e3d90fd5b6134289060203d6020116114d7576114c98183611ab0565b503861334d565b90936020823d60201161345c575b8161344a60209383611ab0565b81010312610804575051926080612d47565b3d915061343d565b61347c9060203d6020116114d7576114c98183611ab0565b5038612d13565b906020823d6020116134ae575b8161349d60209383611ab0565b810103126108045750516000612cc3565b3d9150613490565b97509350506134c4336128b7565b9690939084886134d381614917565b6134e1575b89929150612c4e565b6024805460405163c81ae6db60e01b81526001600160a01b039384166004820152939d5092935060209284928391165afa9081156135e35788918c9188916135a8575b509a8015908115613539575b508192506134d8565b925092939495969050633b9aca00928284810204841417156135945750612c8461201d612c7b8d612c766135898b676765c793fa10079d601b1b8f9d9c9b9a9961201d61202291839b02876127fe565b9a9550509250613530565b634e487b7160e01b81526011600452602490fd5b925050506020813d6020116135db575b816135c560209383611ab0565b810103126135d7578a88915138613524565b8580fd5b3d91506135b8565b6040513d88823e3d90fd5b504360265410612c49565b5060016026541415612c43565b43600019810111612694574360001901602655612c19565b91506020823d602011613656575b8161363960209383611ab0565b810103126108045750518390676765c793fa10079d601b1b612bc3565b3d915061362c565b90916020823d60201161368a575b8161367960209383611ab0565b810103126108045750519038612b52565b3d915061366c565b5043601155600090565b906020823d6020116136c6575b816136b660209383611ab0565b8101031261080457505138612b26565b3d91506136a9565b600090565b6011544311156136ce57600d546040516318160ddd60e01b81526001600160a01b0390911690602081600481855afa9081156125375760009161404e575b5015613692576040516318160ddd60e01b815290602082600481845afa9182156125375760009261401a575b50613749612b5e614080565b9161375a83604051612b7881611a78565b613762614814565b916040516318160ddd60e01b8152602081600481855afa8015612537578491600091613fda575b5090676765c793fa10079d601b1b61202261201d6137a794896127fe565b9060008094818293338452602960205260408420966001604051986137cb8a611a78565b80548a520154602089015260265415613fc2575b868a6028546137f081612c2a612a90565b6025546001600160a01b0316151580613fb5575b80613faa575b613e95575b5061201d612c7b88612c76676765c793fa10079d601b1b9561383795612c7684612c2a612abd565b049361384785612c948a85611d9c565b9243601155604051630a9ee07f60e31b8152602081600481855afa90811561253757600091613e62575b5083929160246138998796676765c793fa10079d601b1b61202261201d60209760009c6127fe565b604051978893849263817e9d3160e01b845260048401525af193841561253757600494613e43575b50600d546040516318160ddd60e01b81529460209186919082906001600160a01b03165afa93841561253757600094613e0e575b50917f41a79a497d1457df24c25ab99f22349ae9aef4468429f0a781216e8dcf80c6289391608093604051938452602084015260408301526060820152a161394183612c76878b611e8b565b956000908192829486613d21575b6008546001600160a01b03168a81613cc9575b50506009546001600160a01b03168a81613c71575b5050601d54613c5a575b506000966139b0575050600080516020614a4a833981519152975090839291612e03612e739695612c2a612abd565b6139bc86612c2a612abd565b85613c29575b602754906139d682604051612ea181611a78565b87806040516139e481611a78565b60118152702fb4b9a9b2b73232b927b832b930ba37b960791b60208201528180604051613a2e81612f1d602082019663104c13eb60e21b8852602060248401526044830190611ad2565b516a636f6e736f6c652e6c6f6793845afa5060405160208101906332458eed60e01b825283602482015260248152613a6581611a94565b51915afa503388526029602052604088209180613ab3575b5050612e739695949392916130258b600080516020614a4a8339815191529c61302d9455612ff8612fb7612faf83602854611d9c565b8b849992995111600014613bcc575050613acc336140bd565b96613add8860405161305481611a78565b87613b34575b50612e739695949392916130258b8061302d94670de0b6b3a7640000600080516020614a4a8339815191529f613b1b90602754611d73565b0460018201555b9450509b508193949596979850613a7d565b60255490979695949392906001600160a01b0316803b156116975760405163c5f16b8960e01b81526001600160a01b039990991660048a0152602489018890526000908990604490829084905af1978815612537578b600080516020614a4a8339815191529c61302d9461302593612e739c613bbd575b509450509b5050919293949596613ae3565b613bc690611a4e565b38613bab565b612e7398508b8061302d94600080516020614a4a8339815191529e61302594600f60209d9c9b9a99979d5260408d205415613c09575b5050613b22565b670de0b6b3a764000091613c1c91611d73565b0460018201558138613c02565b670de0b6b3a76400008087029087820414871517156131a957613199613c529160285490612782565b6027556139c2565b9450613c6885601e54611d9c565b601e5538613981565b613c95919650676765c793fa10079d601b1b6131f861201d602093601c54906127fe565b03925af1801561253757613caa575b8a613977565b613cc29060203d6020116114d7576114c98183611ab0565b5038613ca4565b613ced919550676765c793fa10079d601b1b61329261201d602093601b54906127fe565b03925af1801561253757613d02575b8a613962565b613d1a9060203d6020116114d7576114c98183611ab0565b5038613cfc565b600b546025546040516340c10f1960e01b81526001600160a01b039182166004820152602481018a905291602091839160449183918a91165af1801561340557613def575b50600b546025546040516370a0823160e01b81526001600160a01b0391821660048201529160209183916024918391165afa8015613405578590613dbb575b613db6915060405161339d81611a78565b61394f565b506020813d602011613de7575b81613dd560209383611ab0565b8101031261167d57613db69051613da5565b3d9150613dc8565b613e079060203d6020116114d7576114c98183611ab0565b5038613d66565b90936020823d602011613e3b575b81613e2960209383611ab0565b810103126108045750519260806138f5565b3d9150613e1c565b613e5b9060203d6020116114d7576114c98183611ab0565b50386138c1565b906020823d602011613e8d575b81613e7c60209383611ab0565b810103126108045750516000613871565b3d9150613e6f565b9750935050613ea3336128b7565b969093908488613eb281614917565b613ec0575b8992915061380f565b6024805460405163c81ae6db60e01b81526001600160a01b039384166004820152939d5092935060209284928391165afa9081156135e35788918c918891613f73575b509a8015908115613f18575b50819250613eb7565b925092939495969050633b9aca0092828481020484141715613594575061383761201d612c7b8d612c76613f688b676765c793fa10079d601b1b8f9d9c9b9a9961201d61202291839b02876127fe565b9a9550509250613f0f565b925050506020813d602011613fa2575b81613f9060209383611ab0565b810103126135d7578a88915138613f03565b3d9150613f83565b50436026541061380a565b5060016026541415613804565b436000198101116126945743600019016026556137df565b91506020823d602011614012575b81613ff560209383611ab0565b810103126108045750518390676765c793fa10079d601b1b613789565b3d9150613fe8565b90916020823d602011614046575b8161403560209383611ab0565b81010312610804575051903861373d565b3d9150614028565b906020823d602011614078575b8161406860209383611ab0565b8101031261080457505138613711565b3d915061405b565b60ff601f5416611697576011546140978143611e8b565b906013549081106140b957906140b36128b49260125490611e8b565b90611e8b565b5090565b6001600160a01b0316600090815260296020526040808220815192939291906001906140e884611a78565b80548452015491602081019283526141c06027549261414584825161410c81611a94565b602281527f756e536574746c6564526577617264206c3252657761726450657255696e7420602082015261257360f01b84820152614954565b6141848351825161415581611a78565b601c81527f756e536574746c6564526577617264206c617965723254766c202573000000006020820152614954565b8451905161419181611a78565b601e81527f756e536574746c656452657761726420696e697469616c4465627420257300006020820152614954565b5190816141cc57505050565b6128b4939450670de0b6b3a7640000916141e591611d73565b04905190611e8b565b9092600060a052600091600091600091600091600091601154988982118015906147a6575b614780576142218a83611e8b565b99601354908111614767575b50600d546040516318160ddd60e01b8152996001600160a01b039091169060208b600481855afa9a8b156125375760009b614733575b50614271601054809d611d73565b9b602154801560001461472957506142d562a55ec2915b6022548061471f57506142cf6e09a130b963a6c115c3c7f400000000915b6023548061471557506142c96d08c815d5bcc20177de3b5d250000955b8a611e8b565b90611d73565b90611d9c565b600a546040516370a0823160e01b81526001600482015290602090829060249082906001600160a01b03165afa908115612537576000916146e3575b50633b9aca00810290808204633b9aca001490151715611d8657600492612c7661433d92602094611e8b565b93604051928380926318160ddd60e01b82525afa908115612537578d84916000936146ab575b5061202261201d61438094676765c793fa10079d601b1b936127fe565b60a05260009160009360265460018060a01b03821660005260296020526040600020966001604051986143b28a611a78565b80548a52015460208901528115614697575b6025546001600160a01b03161515918261468b575b82614681575b50506145ac575b5050866143f1612abd565b906143fb91614954565b868c60a05161440991611e8b565b9061441391611e8b565b601d5480608052614423916127fe565b61442c906127a2565b676765c793fa10079d601b1b9004809b60a05161444891611d9c565b9061445291611d9c565b50868c60a05161446191611e8b565b9061446b91611e8b565b600854909b906001600160a01b0316614587575b6009546001600160a01b0316614562575b60805161455a575b50602754926144a8575b50505050565b86158015614529575b50821515918261450c575b505080614502575b6144d0575b80806144a2565b816020670de0b6b3a76400006144f06142cf946144fa9798965190611d73565b0491015190611e8b565b9038806144c9565b50815115156144c4565b909150811561451e575b5038806144bc565b905082511138614516565b9092670de0b6b3a76400009182890292898404141715611d86576142cf6145539260285490612782565b91386144b1565b975038614498565b9850676765c793fa10079d601b1b61458061201d8d601c54906127fe565b0498614490565b9950676765c793fa10079d601b1b6145a561201d8d601b54906127fe565b049961447f565b6145b79194506128b7565b939084156143e6576024805460405163c81ae6db60e01b81526001600160a01b0393841660048201529395506020928492918391165afa9081156125375760009161464f575b50916028549081156143e6579080929850633b9aca00810204633b9aca001482151715611d8657676765c793fa10079d601b1b61202261201d8f633b9aca006146479602906127fe565b9538806143e6565b90506020813d602011614679575b8161466a60209383611ab0565b810103126116975751386145fd565b3d915061465d565b10905038806143df565b600181141592506143d9565b90506000198101818111611d8657906143c4565b925050506020813d6020116146db575b816146c860209383611ab0565b810103126116975751828d612022614363565b3d91506146bb565b90506020813d60201161470d575b816146fe60209383611ab0565b81010312611697575138614311565b3d91506146f1565b6142c990956142c3565b6142cf90916142a6565b6142d59091614288565b909a506020813d60201161475f575b8161474f60209383611ab0565b8101031261169757519938614263565b3d9150614742565b996140b3614779929b60125490611e8b565b983861422d565b50509650505050505050600090600060a052600090600090600090600090600090600090565b50600d546040516318160ddd60e01b815290602090829060049082906001600160a01b03165afa908115612537576000916147e3575b5015614213565b90506020813d821161480c575b816147fd60209383611ab0565b810103126116975751386147dc565b3d91506147f0565b6021548061490f5750602462a55ec25b60225480614906575061486b6e09a130b963a6c115c3c7f4000000005b602354806148fc57506142cf6d08c815d5bcc20177de3b5d250000935b6142c96010549143611e8b565b600a546040516370a0823160e01b8152600160048201529360209185919082906001600160a01b03165afa928315612537576000936148c9575b50633b9aca0092838102938185041490151715611d86576128b492612c7691611e8b565b90926020823d82116148f4575b816148e360209383611ab0565b8101031261080457505191386148a5565b3d91506148d6565b6142cf909361485e565b61486b90614841565b602490614824565b6000809160405160208101916332458eed60e01b8352151560248201526024815261494181611a94565b51906a636f6e736f6c652e6c6f675afa50565b60009190829161494160405180926149856020830195632d839cb360e21b8752604060248501526064840190611ad2565b90604483015203601f198101835282611ab0565b60009190829161494160405180926149ca602083019563319af33360e01b8752604060248501526064840190611ad2565b6001600160a01b0391909116604483015203601f198101835282611ab056fe2f8788117e7eff1d82e926ec794901d17c78024a50270940304540a733656f0df0887ba65ee2024ea881d91b74c2450ef19e1557f03bed3ea9f16b037cbe2dc9523a704056dcd17bcf83bed8b68c59416dac1119be77755efe3bde0a64e46e0c497e03b12fad3ff21a8befe15ca84c3fc0060b505e572702bf6788e900252007bf02bad7114723a857a3af46cea17b778a3a951c96f183784d9a2448cc479ab6a164736f6c6343000813000a",
  "linkReferences": {},
  "deployedLinkReferences": {}
}