{
  "_format": "hh-sol-artifact-1",
  "contractName": "SeigManagerV1_3",
  "sourceName": "contracts/stake/managers/SeigManagerV1_3.sol",
  "abi": [
    {
      "inputs": [],
      "name": "IncreaseTotError",
      "type": "error"
    },
    {
      "inputs": [],
      "name": "InvalidCoinageError",
      "type": "error"
    },
    {
      "inputs": [],
      "name": "LastSeigBlockError",
      "type": "error"
    },
    {
      "inputs": [],
      "name": "Layer2TvlError",
      "type": "error"
    },
    {
      "inputs": [],
      "name": "MinimumAmountError",
      "type": "error"
    },
    {
      "inputs": [],
      "name": "OnlyLayer2ManagerError",
      "type": "error"
    },
    {
      "inputs": [],
      "name": "UpdateSeigniorageError",
      "type": "error"
    },
    {
      "anonymous": false,
      "inputs": [
        {
          "indexed": false,
          "internalType": "address",
          "name": "layer2",
          "type": "address"
        },
        {
          "indexed": false,
          "internalType": "uint256",
          "name": "seigs",
          "type": "uint256"
        },
        {
          "indexed": false,
          "internalType": "uint256",
          "name": "operatorSeigs",
          "type": "uint256"
        },
        {
          "indexed": false,
          "internalType": "uint256",
          "name": "nextTotalSupply",
          "type": "uint256"
        },
        {
          "indexed": false,
          "internalType": "uint256",
          "name": "prevTotalSupply",
          "type": "uint256"
        }
      ],
      "name": "AddedSeigAtLayer",
      "type": "event"
    },
    {
      "anonymous": false,
      "inputs": [
        {
          "indexed": true,
          "internalType": "address",
          "name": "layer2",
          "type": "address"
        }
      ],
      "name": "Comitted",
      "type": "event"
    },
    {
      "anonymous": false,
      "inputs": [
        {
          "indexed": false,
          "internalType": "uint256",
          "name": "totalStakedAmount",
          "type": "uint256"
        },
        {
          "indexed": false,
          "internalType": "uint256",
          "name": "totalSupplyOfWTON",
          "type": "uint256"
        },
        {
          "indexed": false,
          "internalType": "uint256",
          "name": "prevTotalSupply",
          "type": "uint256"
        },
        {
          "indexed": false,
          "internalType": "uint256",
          "name": "nextTotalSupply",
          "type": "uint256"
        }
      ],
      "name": "CommitLog1",
      "type": "event"
    },
    {
      "anonymous": false,
      "inputs": [
        {
          "indexed": false,
          "internalType": "address",
          "name": "layer2",
          "type": "address"
        },
        {
          "indexed": false,
          "internalType": "uint256",
          "name": "layer2Tvl",
          "type": "uint256"
        },
        {
          "indexed": false,
          "internalType": "uint256",
          "name": "initialDebt",
          "type": "uint256"
        }
      ],
      "name": "ExcludedFromSeigniorage",
      "type": "event"
    },
    {
      "anonymous": false,
      "inputs": [
        {
          "indexed": true,
          "internalType": "bytes32",
          "name": "role",
          "type": "bytes32"
        },
        {
          "indexed": true,
          "internalType": "bytes32",
          "name": "previousAdminRole",
          "type": "bytes32"
        },
        {
          "indexed": true,
          "internalType": "bytes32",
          "name": "newAdminRole",
          "type": "bytes32"
        }
      ],
      "name": "RoleAdminChanged",
      "type": "event"
    },
    {
      "anonymous": false,
      "inputs": [
        {
          "indexed": true,
          "internalType": "bytes32",
          "name": "role",
          "type": "bytes32"
        },
        {
          "indexed": true,
          "internalType": "address",
          "name": "account",
          "type": "address"
        },
        {
          "indexed": true,
          "internalType": "address",
          "name": "sender",
          "type": "address"
        }
      ],
      "name": "RoleGranted",
      "type": "event"
    },
    {
      "anonymous": false,
      "inputs": [
        {
          "indexed": true,
          "internalType": "bytes32",
          "name": "role",
          "type": "bytes32"
        },
        {
          "indexed": true,
          "internalType": "address",
          "name": "account",
          "type": "address"
        },
        {
          "indexed": true,
          "internalType": "address",
          "name": "sender",
          "type": "address"
        }
      ],
      "name": "RoleRevoked",
      "type": "event"
    },
    {
      "anonymous": false,
      "inputs": [
        {
          "indexed": true,
          "internalType": "address",
          "name": "layer2",
          "type": "address"
        },
        {
          "indexed": false,
          "internalType": "uint256",
          "name": "totalSeig",
          "type": "uint256"
        },
        {
          "indexed": false,
          "internalType": "uint256",
          "name": "stakedSeig",
          "type": "uint256"
        },
        {
          "indexed": false,
          "internalType": "uint256",
          "name": "unstakedSeig",
          "type": "uint256"
        },
        {
          "indexed": false,
          "internalType": "uint256",
          "name": "powertonSeig",
          "type": "uint256"
        },
        {
          "indexed": false,
          "internalType": "uint256",
          "name": "daoSeig",
          "type": "uint256"
        },
        {
          "indexed": false,
          "internalType": "uint256",
          "name": "pseig",
          "type": "uint256"
        }
      ],
      "name": "SeigGiven",
      "type": "event"
    },
    {
      "anonymous": false,
      "inputs": [
        {
          "indexed": true,
          "internalType": "address",
          "name": "layer2",
          "type": "address"
        },
        {
          "indexed": false,
          "internalType": "uint256",
          "name": "totalSeig",
          "type": "uint256"
        },
        {
          "indexed": false,
          "internalType": "uint256",
          "name": "stakedSeig",
          "type": "uint256"
        },
        {
          "indexed": false,
          "internalType": "uint256",
          "name": "unstakedSeig",
          "type": "uint256"
        },
        {
          "indexed": false,
          "internalType": "uint256",
          "name": "powertonSeig",
          "type": "uint256"
        },
        {
          "indexed": false,
          "internalType": "uint256",
          "name": "daoSeig",
          "type": "uint256"
        },
        {
          "indexed": false,
          "internalType": "uint256",
          "name": "pseig",
          "type": "uint256"
        },
        {
          "indexed": false,
          "internalType": "uint256",
          "name": "l2TotalSeigs",
          "type": "uint256"
        },
        {
          "indexed": false,
          "internalType": "uint256",
          "name": "layer2Seigs",
          "type": "uint256"
        }
      ],
      "name": "SeigGiven2",
      "type": "event"
    },
    {
      "inputs": [],
      "name": "BURNT_AMOUNT_MAINNET",
      "outputs": [
        {
          "internalType": "uint256",
          "name": "",
          "type": "uint256"
        }
      ],
      "stateMutability": "view",
      "type": "function"
    },
    {
      "inputs": [],
      "name": "CHALLENGER_ROLE",
      "outputs": [
        {
          "internalType": "bytes32",
          "name": "",
          "type": "bytes32"
        }
      ],
      "stateMutability": "view",
      "type": "function"
    },
    {
      "inputs": [],
      "name": "DEFAULT_ADMIN_ROLE",
      "outputs": [
        {
          "internalType": "bytes32",
          "name": "",
          "type": "bytes32"
        }
      ],
      "stateMutability": "view",
      "type": "function"
    },
    {
      "inputs": [],
      "name": "INITIAL_TOTAL_SUPPLY_MAINNET",
      "outputs": [
        {
          "internalType": "uint256",
          "name": "",
          "type": "uint256"
        }
      ],
      "stateMutability": "view",
      "type": "function"
    },
    {
      "inputs": [],
      "name": "MAX_VALID_COMMISSION",
      "outputs": [
        {
          "internalType": "uint256",
          "name": "",
          "type": "uint256"
        }
      ],
      "stateMutability": "view",
      "type": "function"
    },
    {
      "inputs": [],
      "name": "MINTER_ROLE",
      "outputs": [
        {
          "internalType": "bytes32",
          "name": "",
          "type": "bytes32"
        }
      ],
      "stateMutability": "view",
      "type": "function"
    },
    {
      "inputs": [],
      "name": "MIN_VALID_COMMISSION",
      "outputs": [
        {
          "internalType": "uint256",
          "name": "",
          "type": "uint256"
        }
      ],
      "stateMutability": "view",
      "type": "function"
    },
    {
      "inputs": [],
      "name": "OPERATOR_ROLE",
      "outputs": [
        {
          "internalType": "bytes32",
          "name": "",
          "type": "bytes32"
        }
      ],
      "stateMutability": "view",
      "type": "function"
    },
    {
      "inputs": [],
      "name": "PAUSE_ROLE",
      "outputs": [
        {
          "internalType": "bytes32",
          "name": "",
          "type": "bytes32"
        }
      ],
      "stateMutability": "view",
      "type": "function"
    },
    {
      "inputs": [],
      "name": "RAY",
      "outputs": [
        {
          "internalType": "uint256",
          "name": "",
          "type": "uint256"
        }
      ],
      "stateMutability": "view",
      "type": "function"
    },
    {
      "inputs": [],
      "name": "SEIG_START_MAINNET",
      "outputs": [
        {
          "internalType": "uint256",
          "name": "",
          "type": "uint256"
        }
      ],
      "stateMutability": "view",
      "type": "function"
    },
    {
      "inputs": [],
      "name": "accRelativeSeig",
      "outputs": [
        {
          "internalType": "uint256",
          "name": "",
          "type": "uint256"
        }
      ],
      "stateMutability": "view",
      "type": "function"
    },
    {
      "inputs": [
        {
          "internalType": "address",
          "name": "account",
          "type": "address"
        }
      ],
      "name": "addAdmin",
      "outputs": [],
      "stateMutability": "nonpayable",
      "type": "function"
    },
    {
      "inputs": [
        {
          "internalType": "address",
          "name": "account",
          "type": "address"
        }
      ],
      "name": "addChallenger",
      "outputs": [],
      "stateMutability": "nonpayable",
      "type": "function"
    },
    {
      "inputs": [
        {
          "internalType": "address",
          "name": "account",
          "type": "address"
        }
      ],
      "name": "addMinter",
      "outputs": [],
      "stateMutability": "nonpayable",
      "type": "function"
    },
    {
      "inputs": [
        {
          "internalType": "address",
          "name": "account",
          "type": "address"
        }
      ],
      "name": "addOperator",
      "outputs": [],
      "stateMutability": "nonpayable",
      "type": "function"
    },
    {
      "inputs": [],
      "name": "adjustCommissionDelay",
      "outputs": [
        {
          "internalType": "uint256",
          "name": "",
          "type": "uint256"
        }
      ],
      "stateMutability": "view",
      "type": "function"
    },
    {
      "inputs": [
        {
          "internalType": "address",
          "name": "",
          "type": "address"
        }
      ],
      "name": "aliveImplementation",
      "outputs": [
        {
          "internalType": "bool",
          "name": "",
          "type": "bool"
        }
      ],
      "stateMutability": "view",
      "type": "function"
    },
    {
      "inputs": [
        {
          "internalType": "address",
          "name": "layer2",
          "type": "address"
        }
      ],
      "name": "allowIssuanceLayer2Seigs",
      "outputs": [
        {
          "internalType": "address",
          "name": "rollupConfig",
          "type": "address"
        },
        {
          "internalType": "bool",
          "name": "allowed",
          "type": "bool"
        }
      ],
      "stateMutability": "view",
      "type": "function"
    },
    {
      "inputs": [],
      "name": "burntAmountAtDAO",
      "outputs": [
        {
          "internalType": "uint256",
          "name": "",
          "type": "uint256"
        }
      ],
      "stateMutability": "view",
      "type": "function"
    },
    {
      "inputs": [],
      "name": "dao",
      "outputs": [
        {
          "internalType": "address",
          "name": "",
          "type": "address"
        }
      ],
      "stateMutability": "view",
      "type": "function"
    },
    {
      "inputs": [],
      "name": "daoSeigRate",
      "outputs": [
        {
          "internalType": "uint256",
          "name": "",
          "type": "uint256"
        }
      ],
      "stateMutability": "view",
      "type": "function"
    },
    {
      "inputs": [
        {
          "internalType": "address",
          "name": "",
          "type": "address"
        }
      ],
      "name": "delayedCommissionBlock",
      "outputs": [
        {
          "internalType": "uint256",
          "name": "",
          "type": "uint256"
        }
      ],
      "stateMutability": "view",
      "type": "function"
    },
    {
      "inputs": [
        {
          "internalType": "address",
          "name": "",
          "type": "address"
        }
      ],
      "name": "delayedCommissionRate",
      "outputs": [
        {
          "internalType": "uint256",
          "name": "",
          "type": "uint256"
        }
      ],
      "stateMutability": "view",
      "type": "function"
    },
    {
      "inputs": [
        {
          "internalType": "address",
          "name": "",
          "type": "address"
        }
      ],
      "name": "delayedCommissionRateNegative",
      "outputs": [
        {
          "internalType": "bool",
          "name": "",
          "type": "bool"
        }
      ],
      "stateMutability": "view",
      "type": "function"
    },
    {
      "inputs": [
        {
          "internalType": "uint256",
          "name": "blockNumber",
          "type": "uint256"
        },
        {
          "internalType": "address",
          "name": "layer2",
          "type": "address"
        },
        {
          "internalType": "bool",
          "name": "_isSenderOperator",
          "type": "bool"
        }
      ],
      "name": "estimatedDistribute",
      "outputs": [
        {
          "internalType": "uint256",
          "name": "maxSeig",
          "type": "uint256"
        },
        {
          "internalType": "uint256",
          "name": "stakedSeig",
          "type": "uint256"
        },
        {
          "internalType": "uint256",
          "name": "unstakedSeig",
          "type": "uint256"
        },
        {
          "internalType": "uint256",
          "name": "powertonSeig",
          "type": "uint256"
        },
        {
          "internalType": "uint256",
          "name": "daoSeig",
          "type": "uint256"
        },
        {
          "internalType": "uint256",
          "name": "relativeSeig",
          "type": "uint256"
        },
        {
          "internalType": "uint256",
          "name": "l2TotalSeigs",
          "type": "uint256"
        },
        {
          "internalType": "uint256",
          "name": "layer2Seigs",
          "type": "uint256"
        }
      ],
      "stateMutability": "view",
      "type": "function"
    },
    {
      "inputs": [
        {
          "internalType": "address",
          "name": "_layer2",
          "type": "address"
        }
      ],
      "name": "excludeFromSeigniorage",
      "outputs": [
        {
          "internalType": "bool",
          "name": "",
          "type": "bool"
        }
      ],
      "stateMutability": "nonpayable",
      "type": "function"
    },
    {
      "inputs": [],
      "name": "factory",
      "outputs": [
        {
          "internalType": "address",
          "name": "",
          "type": "address"
        }
      ],
      "stateMutability": "view",
      "type": "function"
    },
    {
      "inputs": [
        {
          "internalType": "address",
          "name": "layer2",
          "type": "address"
        }
      ],
      "name": "getOperatorAmount",
      "outputs": [
        {
          "internalType": "uint256",
          "name": "",
          "type": "uint256"
        }
      ],
      "stateMutability": "view",
      "type": "function"
    },
    {
      "inputs": [
        {
          "internalType": "bytes32",
          "name": "role",
          "type": "bytes32"
        }
      ],
      "name": "getRoleAdmin",
      "outputs": [
        {
          "internalType": "bytes32",
          "name": "",
          "type": "bytes32"
        }
      ],
      "stateMutability": "view",
      "type": "function"
    },
    {
      "inputs": [
        {
          "internalType": "bytes32",
          "name": "role",
          "type": "bytes32"
        },
        {
          "internalType": "address",
          "name": "account",
          "type": "address"
        }
      ],
      "name": "grantRole",
      "outputs": [],
      "stateMutability": "nonpayable",
      "type": "function"
    },
    {
      "inputs": [
        {
          "internalType": "bytes32",
          "name": "role",
          "type": "bytes32"
        },
        {
          "internalType": "address",
          "name": "account",
          "type": "address"
        }
      ],
      "name": "hasRole",
      "outputs": [
        {
          "internalType": "bool",
          "name": "",
          "type": "bool"
        }
      ],
      "stateMutability": "view",
      "type": "function"
    },
    {
      "inputs": [],
      "name": "initialTotalSupply",
      "outputs": [
        {
          "internalType": "uint256",
          "name": "",
          "type": "uint256"
        }
      ],
      "stateMutability": "view",
      "type": "function"
    },
    {
      "inputs": [
        {
          "internalType": "address",
          "name": "account",
          "type": "address"
        }
      ],
      "name": "isAdmin",
      "outputs": [
        {
          "internalType": "bool",
          "name": "",
          "type": "bool"
        }
      ],
      "stateMutability": "view",
      "type": "function"
    },
    {
      "inputs": [
        {
          "internalType": "address",
          "name": "account",
          "type": "address"
        }
      ],
      "name": "isChallenger",
      "outputs": [
        {
          "internalType": "bool",
          "name": "",
          "type": "bool"
        }
      ],
      "stateMutability": "view",
      "type": "function"
    },
    {
      "inputs": [
        {
          "internalType": "address",
          "name": "account",
          "type": "address"
        }
      ],
      "name": "isMinter",
      "outputs": [
        {
          "internalType": "bool",
          "name": "",
          "type": "bool"
        }
      ],
      "stateMutability": "view",
      "type": "function"
    },
    {
      "inputs": [
        {
          "internalType": "address",
          "name": "account",
          "type": "address"
        }
      ],
      "name": "isOperator",
      "outputs": [
        {
          "internalType": "bool",
          "name": "",
          "type": "bool"
        }
      ],
      "stateMutability": "view",
      "type": "function"
    },
    {
      "inputs": [],
      "name": "isOwner",
      "outputs": [
        {
          "internalType": "bool",
          "name": "",
          "type": "bool"
        }
      ],
      "stateMutability": "view",
      "type": "function"
    },
    {
      "inputs": [],
      "name": "l1BridgeRegistry",
      "outputs": [
        {
          "internalType": "address",
          "name": "",
          "type": "address"
        }
      ],
      "stateMutability": "view",
      "type": "function"
    },
    {
      "inputs": [],
      "name": "l2RewardPerUint",
      "outputs": [
        {
          "internalType": "uint256",
          "name": "",
          "type": "uint256"
        }
      ],
      "stateMutability": "view",
      "type": "function"
    },
    {
      "inputs": [],
      "name": "lastSnapshotId",
      "outputs": [
        {
          "internalType": "uint256",
          "name": "",
          "type": "uint256"
        }
      ],
      "stateMutability": "view",
      "type": "function"
    },
    {
      "inputs": [],
      "name": "layer2Manager",
      "outputs": [
        {
          "internalType": "address",
          "name": "",
          "type": "address"
        }
      ],
      "stateMutability": "view",
      "type": "function"
    },
    {
      "inputs": [
        {
          "internalType": "address",
          "name": "",
          "type": "address"
        }
      ],
      "name": "layer2RewardInfo",
      "outputs": [
        {
          "internalType": "uint256",
          "name": "layer2Tvl",
          "type": "uint256"
        },
        {
          "internalType": "uint256",
          "name": "initialDebt",
          "type": "uint256"
        }
      ],
      "stateMutability": "view",
      "type": "function"
    },
    {
      "inputs": [],
      "name": "layer2StartBlock",
      "outputs": [
        {
          "internalType": "uint256",
          "name": "",
          "type": "uint256"
        }
      ],
      "stateMutability": "view",
      "type": "function"
    },
    {
      "inputs": [],
      "name": "minimumAmount",
      "outputs": [
        {
          "internalType": "uint256",
          "name": "",
          "type": "uint256"
        }
      ],
      "stateMutability": "view",
      "type": "function"
    },
    {
      "inputs": [],
      "name": "pauseProxy",
      "outputs": [
        {
          "internalType": "bool",
          "name": "",
          "type": "bool"
        }
      ],
      "stateMutability": "view",
      "type": "function"
    },
    {
      "inputs": [],
      "name": "paused",
      "outputs": [
        {
          "internalType": "bool",
          "name": "",
          "type": "bool"
        }
      ],
      "stateMutability": "view",
      "type": "function"
    },
    {
      "inputs": [],
      "name": "powerTONSeigRate",
      "outputs": [
        {
          "internalType": "uint256",
          "name": "",
          "type": "uint256"
        }
      ],
      "stateMutability": "view",
      "type": "function"
    },
    {
      "inputs": [
        {
          "internalType": "uint256",
          "name": "",
          "type": "uint256"
        }
      ],
      "name": "proxyImplementation",
      "outputs": [
        {
          "internalType": "address",
          "name": "",
          "type": "address"
        }
      ],
      "stateMutability": "view",
      "type": "function"
    },
    {
      "inputs": [],
      "name": "relativeSeigRate",
      "outputs": [
        {
          "internalType": "uint256",
          "name": "",
          "type": "uint256"
        }
      ],
      "stateMutability": "view",
      "type": "function"
    },
    {
      "inputs": [
        {
          "internalType": "address",
          "name": "account",
          "type": "address"
        }
      ],
      "name": "removeAdmin",
      "outputs": [],
      "stateMutability": "nonpayable",
      "type": "function"
    },
    {
      "inputs": [
        {
          "internalType": "address",
          "name": "account",
          "type": "address"
        }
      ],
      "name": "removeChallenger",
      "outputs": [],
      "stateMutability": "nonpayable",
      "type": "function"
    },
    {
      "inputs": [
        {
          "internalType": "address",
          "name": "account",
          "type": "address"
        }
      ],
      "name": "removeMinter",
      "outputs": [],
      "stateMutability": "nonpayable",
      "type": "function"
    },
    {
      "inputs": [
        {
          "internalType": "address",
          "name": "account",
          "type": "address"
        }
      ],
      "name": "removeOperator",
      "outputs": [],
      "stateMutability": "nonpayable",
      "type": "function"
    },
    {
      "inputs": [],
      "name": "renounceChallenger",
      "outputs": [],
      "stateMutability": "nonpayable",
      "type": "function"
    },
    {
      "inputs": [],
      "name": "renounceMinter",
      "outputs": [],
      "stateMutability": "nonpayable",
      "type": "function"
    },
    {
      "inputs": [],
      "name": "renounceOperator",
      "outputs": [],
      "stateMutability": "nonpayable",
      "type": "function"
    },
    {
      "inputs": [],
      "name": "renounceOwnership",
      "outputs": [],
      "stateMutability": "nonpayable",
      "type": "function"
    },
    {
      "inputs": [
        {
          "internalType": "bytes32",
          "name": "role",
          "type": "bytes32"
        },
        {
          "internalType": "address",
          "name": "account",
          "type": "address"
        }
      ],
      "name": "renounceRole",
      "outputs": [],
      "stateMutability": "nonpayable",
      "type": "function"
    },
    {
      "inputs": [],
      "name": "resetL2RewardPerUint",
      "outputs": [],
      "stateMutability": "nonpayable",
      "type": "function"
    },
    {
      "inputs": [
        {
          "internalType": "address",
          "name": "account",
          "type": "address"
        }
      ],
      "name": "revokeChallenger",
      "outputs": [],
      "stateMutability": "nonpayable",
      "type": "function"
    },
    {
      "inputs": [
        {
          "internalType": "address",
          "name": "account",
          "type": "address"
        }
      ],
      "name": "revokeMinter",
      "outputs": [],
      "stateMutability": "nonpayable",
      "type": "function"
    },
    {
      "inputs": [
        {
          "internalType": "address",
          "name": "account",
          "type": "address"
        }
      ],
      "name": "revokeOperator",
      "outputs": [],
      "stateMutability": "nonpayable",
      "type": "function"
    },
    {
      "inputs": [
        {
          "internalType": "bytes32",
          "name": "role",
          "type": "bytes32"
        },
        {
          "internalType": "address",
          "name": "account",
          "type": "address"
        }
      ],
      "name": "revokeRole",
      "outputs": [],
      "stateMutability": "nonpayable",
      "type": "function"
    },
    {
      "inputs": [],
      "name": "seigStartBlock",
      "outputs": [
        {
          "internalType": "uint256",
          "name": "",
          "type": "uint256"
        }
      ],
      "stateMutability": "view",
      "type": "function"
    },
    {
      "inputs": [
        {
          "internalType": "bytes4",
          "name": "",
          "type": "bytes4"
        }
      ],
      "name": "selectorImplementation",
      "outputs": [
        {
          "internalType": "address",
          "name": "",
          "type": "address"
        }
      ],
      "stateMutability": "view",
      "type": "function"
    },
    {
      "inputs": [
        {
          "internalType": "address",
          "name": "l1BridgeRegistry_",
          "type": "address"
        }
      ],
      "name": "setL1BridgeRegistry",
      "outputs": [],
      "stateMutability": "nonpayable",
      "type": "function"
    },
    {
      "inputs": [
        {
          "internalType": "address",
          "name": "layer2Manager_",
          "type": "address"
        }
      ],
      "name": "setLayer2Manager",
      "outputs": [],
      "stateMutability": "nonpayable",
      "type": "function"
    },
    {
      "inputs": [
        {
          "internalType": "uint256",
          "name": "startBlock_",
          "type": "uint256"
        }
      ],
      "name": "setLayer2StartBlock",
      "outputs": [],
      "stateMutability": "nonpayable",
      "type": "function"
    },
    {
      "inputs": [],
      "name": "stakeOfAllLayers",
      "outputs": [
        {
          "internalType": "uint256",
          "name": "amount",
          "type": "uint256"
        }
      ],
      "stateMutability": "view",
      "type": "function"
    },
    {
      "inputs": [
        {
          "internalType": "uint256",
          "name": "snapshotId",
          "type": "uint256"
        }
      ],
      "name": "stakeOfAllLayersAt",
      "outputs": [
        {
          "internalType": "uint256",
          "name": "amount",
          "type": "uint256"
        }
      ],
      "stateMutability": "view",
      "type": "function"
    },
    {
      "inputs": [
        {
          "internalType": "bytes4",
          "name": "interfaceId",
          "type": "bytes4"
        }
      ],
      "name": "supportsInterface",
      "outputs": [
        {
          "internalType": "bool",
          "name": "",
          "type": "bool"
        }
      ],
      "stateMutability": "view",
      "type": "function"
    },
    {
      "inputs": [],
      "name": "totalLayer2TVL",
      "outputs": [
        {
          "internalType": "uint256",
          "name": "",
          "type": "uint256"
        }
      ],
      "stateMutability": "view",
      "type": "function"
    },
    {
      "inputs": [],
      "name": "totalSupplyOfTon",
      "outputs": [
        {
          "internalType": "uint256",
          "name": "tos",
          "type": "uint256"
        }
      ],
      "stateMutability": "view",
      "type": "function"
    },
    {
      "inputs": [
        {
          "internalType": "address",
          "name": "newAdmin",
          "type": "address"
        }
      ],
      "name": "transferAdmin",
      "outputs": [],
      "stateMutability": "nonpayable",
      "type": "function"
    },
    {
      "inputs": [
        {
          "internalType": "address",
          "name": "newAdmin",
          "type": "address"
        }
      ],
      "name": "transferOwnership",
      "outputs": [],
      "stateMutability": "nonpayable",
      "type": "function"
    },
    {
      "inputs": [
        {
          "internalType": "address",
          "name": "layer2",
          "type": "address"
        }
      ],
      "name": "unSettledReward",
      "outputs": [
        {
          "internalType": "uint256",
          "name": "amount",
          "type": "uint256"
        }
      ],
      "stateMutability": "view",
      "type": "function"
    },
    {
      "inputs": [],
      "name": "unallocatedSeigniorage",
      "outputs": [
        {
          "internalType": "uint256",
          "name": "amount",
          "type": "uint256"
        }
      ],
      "stateMutability": "view",
      "type": "function"
    },
    {
      "inputs": [
        {
          "internalType": "uint256",
          "name": "snapshotId",
          "type": "uint256"
        }
      ],
      "name": "unallocatedSeigniorageAt",
      "outputs": [
        {
          "internalType": "uint256",
          "name": "amount",
          "type": "uint256"
        }
      ],
      "stateMutability": "view",
      "type": "function"
    },
    {
      "inputs": [],
      "name": "updateSeigniorage",
      "outputs": [
        {
          "internalType": "bool",
          "name": "",
          "type": "bool"
        }
      ],
      "stateMutability": "nonpayable",
      "type": "function"
    },
    {
      "inputs": [
        {
          "internalType": "address",
          "name": "layer2",
          "type": "address"
        }
      ],
      "name": "updateSeigniorageLayer",
      "outputs": [
        {
          "internalType": "bool",
          "name": "",
          "type": "bool"
        }
      ],
      "stateMutability": "nonpayable",
      "type": "function"
    },
    {
      "inputs": [],
      "name": "updateSeigniorageOperator",
      "outputs": [
        {
          "internalType": "bool",
          "name": "",
          "type": "bool"
        }
      ],
      "stateMutability": "nonpayable",
      "type": "function"
    }
  ],
  "bytecode": "0x60808060405234610016576147bd908161001c8239f35b600080fdfe60c060408181526004918236101561001657600080fd5b600092833560e01c91826301ffc9a7146119b3575081630c1da8df146119705781630ceb6780146118b357816316b5d5bd1461188a5781631785f53c1461185c5781631e1f0b60146117bf5781631fbeab54146117875781632428c6281461176a578163248a9ca31461173f57816324d7806c146116f957816325374a9a146116da57816325e90db4146116c05781632ab6f8db146116a65781632f17250a146115b05781632f2ff15d146115155781633092afd5146114e7578163311028af146114c857816336568abe14611436578163389ed267146113fb5781633c491173146113ab5781634101dd241461138b5781634123196f1461124d5781634162169f146113625781634631179e1461133957816350d2a276146112f557816351e1e1e6146112b9578163530adbb414611290578163550d01a314611252578163552033c41461124d5781635998a8d71461122e5781635c975abb1461120a5781635f6fb8b9146111c85781636304a624146111a957816363a8fd89146111875781636c578c1d146111595781636d70f7ae146111055781636e71186b146110e65781637048027514611043578163715018a61461101d57816375829def14611000578163764a785614610f8f578163837afbc014610f715781638f32d59b14610f3e57816391d1485414610ef75781639473cafe14610e27578163983b2d5614610dd75781639865027514610dbd5781639870d7fe14610d0a5781639b370dea14610ce4578163a217fddf14610cc9578163a415d8dc14610c75578163a7dcc85014610c4f578163aa271e1a14610bfb578163ac28e2ed14610bc0578163ac753a7a14610b82578163ac8a584a14610b54578163acd848fa14610b2a578163b911135f14610af7578163baa1253614610a99578163bb0c829814610a7a578163bf7f473314610a5b578163c45a015514610a32578163c5e2e74514610a15578163ca608089146109bf578163cb7f9f0614610929578163cbfebe62146108f1578163cf8f9110146108c8578163cfbd488514610878578163d0d2ff7014610859578163d2ca6e26146107c3578163d3099e1e14610717578163d5391393146106ee578163d547741f146106b2578163d8c4796614610694578163df7fbef014610675578163e2fe8fd11461063d578163f2fde38b146104f957508063f5b541a6146104d1578063f8229348146104b3578063f96032e614610495578063f9bae41a146104775763fad8b32a146103ab57600080fd5b34610473576020908160031936011261046f576103c6611a37565b906103d86103d333611ac5565b6121b2565b60008051602061475183398151915292838552600581526103fe60018387200154611b02565b838552600581528185206001600160a01b039093168086529281528185205460ff16610428578480f35b8385526005815281852083865290528320805460ff1916905533917ff6391f5c32d9c69d2a47ea670b442974b53935d1edc7fd64eb21e047a839171b8480a4388080808480f35b8280fd5b5080fd5b50346104735781600319360112610473576020906027549051908152f35b50346104735781600319360112610473576020906021549051908152f35b5034610473578160031936011261047357602090601e549051908152f35b5034610473578160031936011261047357602090516000805160206147518339815191528152f35b9190503461046f5760208060031936011261063957610516611a37565b6105226103d333611ac5565b61052e6103d333611ac5565b6001600160a01b03169283156105f8578333146105be57508380526005815261055c60018386200154611b02565b83805260058152818420838552815260ff828520541615610585575b8361058233611ed9565b80f35b8380526005815281842083855290528220805460ff191660011790553390826000805160206147118339815191528180a4388080610578565b915162461bcd60e51b815291820152601660248201527520b1b1b2b9b9b4b136329d1039b0b6b29030b236b4b760511b6044820152606490fd5b915162461bcd60e51b815291820152601860248201527f41636365737369626c653a207a65726f206164647265737300000000000000006044820152606490fd5b8380fd5b5050346104735760203660031901126104735760209181906001600160a01b03610665611a37565b1681526018845220549051908152f35b5050346104735781600319360112610473576020906016549051908152f35b5050346104735781600319360112610473576020905162a55ec28152f35b9190503461046f578060031936011261046f5761058291356106e960016106d7611a52565b93838752600560205286200154611b02565b612124565b505034610473578160031936011261047357602090516000805160206147318339815191528152f35b90503461046f57602092836003193601126107ae57600d548351630981b24d60e41b81528335938101849052908590829060249082906001600160a01b03165afa9182156107b8578092610781575b505061077461077a92612c87565b9061220a565b9051908152f35b9091508482813d83116107b1575b6107998183611eb7565b810103126107ae57505161077461077a610766565b80fd5b503d61078f565b8451903d90823e3d90fd5b9190503461046f578260031936011261046f5782805260056020528083203384526020526107f660ff82852054166121b2565b60265461080557828060275580f35b906020608492519162461bcd60e51b8352820152602860248201527f4f6e6c7920706f737369626c65207768656e206c61796572325374617274426c60448201526706f636b20697320360c41b6064820152fd5b5050346104735781600319360112610473576020906026549051908152f35b505034610473576020908160031936011261046f57610895611a37565b906108a26103d333611ac5565b60008051602061473183398151915292838552600581526103fe60018387200154611b02565b50503461047357816003193601126104735760245490516001600160a01b039091168152602090f35b5050346104735760203660031901126104735760209181906001600160a01b03610919611a37565b1681526017845220549051908152f35b90503461046f578260031936011261046f57600d5482516318160ddd60e01b81529160209183919082906001600160a01b03165afa9283156109b457809361097b575b60208361077a86610774612b17565b9092506020833d82116109ac575b8161099660209383611eb7565b810103126107ae575061077a602092519261096c565b3d9150610989565b8251903d90823e3d90fd5b83915034610473576060366003190112610473576109db611a52565b906044359283151584036107ae5750916109f991610a11933561224f565b9460a097969794919493929351985198899889611a8e565b0390f35b50503461047357816003193601126104735760209061077a612b17565b505034610473578160031936011261047357600c5490516001600160a01b039091168152602090f35b5050346104735781600319360112610473576020906023549051908152f35b505034610473578160031936011261047357602090601a549051908152f35b50503461047357602036600319011261047357610ad460ff610ab9611a37565b928480526005602052808520338652602052842054166121b2565b60018060a01b03166bffffffffffffffffffffffff60a01b602554161760255580f35b90503461046f57602036600319011261046f5735825260016020908152918190205490516001600160a01b039091168152f35b505034610473578160031936011261047357602090516e09a130b963a6c115c3c7f4000000008152f35b83346107ae5760203660031901126107ae57610582610b71611a37565b610b7d6103d333611ac5565b61206a565b5050346104735760203660031901126104735760209160ff9082906001600160a01b03610bad611a37565b1681526019855220541690519015158152f35b9190503461046f57602036600319011261046f5760ff610bf4918480526005602052808520338652602052842054166121b2565b3560265580f35b5050346104735760203660031901126104735760ff81602093610c1c611a37565b6000805160206147318339815191528252600586528282206001600160a01b039091168252855220549151911615158152f35b505034610473578160031936011261047357602090516a084595161401484a0000008152f35b5050346104735760203660031901126104735760ff81602093610c96611a37565b6000805160206147918339815191528252600586528282206001600160a01b039091168252855220549151911615158152f35b50503461047357816003193601126104735751908152602090f35b5050346104735760203660031901126104735760209061077a610d05611a37565b612aa1565b505034610473576020908160031936011261046f57610d27611a37565b90610d346103d333611ac5565b6000805160206147518339815191529283855260058152610d5a60018387200154611b02565b838552600581528185206001600160a01b039093168086529281528185205460ff1615610d85578480f35b8385526005815281852083865290528320805460ff1916600117905533916000805160206147118339815191528480a4388080808480f35b83346107ae57806003193601126107ae57610582336120c7565b505034610473576020908160031936011261046f57610df4611a37565b90610e016103d333611ac5565b6000805160206147318339815191529283855260058152610d5a60018387200154611b02565b8284346107ae5760203660031901126107ae57610e42611a37565b6025546001600160a01b03919082163303610ee75716808252602960205282822060285490805491828110610ed757602096507f911a0522d11ad8abe1817d2c0cba159e8c66d574f00fe392963de5ee5721ffe36060600184019586548951918252868b83015289820152a182610ebd575b86865160018152f35b8492610ec89161220a565b60285555558280808080610eb4565b855163098d90f760e01b81528790fd5b50505051638edaa31d60e01b8152fd5b90503461046f578160031936011261046f578160209360ff92610f18611a52565b90358252600586528282206001600160a01b039091168252855220549151911615158152f35b50503461047357816003193601126104735760ff8183806020955260058552818120338252855220541690519015158152f35b50503461047357816003193601126104735760209081549051908152f35b905082346107ae57806003193601126107ae5750602a549060ff8216610fd7575060ff19908116600117602a55602091610fc761331b565b91602a5416602a55519015158152f35b60649083519062461bcd60e51b82526020818301526024820152636c6f636b60e01b6044820152fd5b9190503461046f5760208060031936011261063957610522611a37565b83346107ae57806003193601126107ae5761103a6103d333611ac5565b61058233611ed9565b505034610473576020908160031936011261046f57611060611a37565b9161106d6103d333611ac5565b8380526005815261108360018386200154611b02565b838052600581528184206001600160a01b039093168085529281528184205460ff16156110ae578380f35b8380526005815281842083855290528220805460ff191660011790553390826000805160206147118339815191528180a43880808380f35b5050346104735781600319360112610473576020906028549051908152f35b5050346104735760203660031901126104735760ff81602093611126611a37565b6000805160206147518339815191528252600586528282206001600160a01b039091168252855220549151911615158152f35b83346107ae5760203660031901126107ae57610582611176611a37565b6111826103d333611ac5565b611fc8565b50503461047357816003193601126104735760ff602092541690519015158152f35b505034610473578160031936011261047357602090601b549051908152f35b505034610473576020366003190112610473579081906001600160a01b036111ee611a37565b1681526029602052206001815491015482519182526020820152f35b50503461047357816003193601126104735760209060ff601f541690519015158152f35b505034610473578160031936011261047357602090601c549051908152f35b611a68565b5050346104735760203660031901126104735760209160ff9082906001600160a01b0361127d611a37565b1681526002855220541690519015158152f35b505034610473578160031936011261047357602090516000805160206147918339815191528152f35b8284346107ae5760203660031901126107ae57506112dd6112d8611a37565b612959565b82516001600160a01b03909216825215156020820152f35b90503461046f57602036600319011261046f573563ffffffff60e01b811680910361046f57825260036020908152918190205490516001600160a01b039091168152f35b505034610473578160031936011261047357602090516d08c815d5bcc20177de3b5d2500008152f35b50503461047357816003193601126104735760095490516001600160a01b039091168152602090f35b8284346107ae5760203660031901126107ae575061077a60209235612c87565b505034610473576020908160031936011261046f576113c8611a37565b906113d56103d333611ac5565b60008051602061479183398151915292838552600581526103fe60018387200154611b02565b505034610473578160031936011261047357602090517ffcb9fcbfa83b897fb2d5cf4b58962164105c1e71489a37ef3ae0db3fdce576f68152f35b83915034610473578260031936011261047357611451611a52565b90336001600160a01b0383160361146d57906105829135612124565b608490602085519162461bcd60e51b8352820152602f60248201527f416363657373436f6e74726f6c3a2063616e206f6e6c792072656e6f756e636560448201526e103937b632b9903337b91039b2b63360891b6064820152fd5b5050346104735781600319360112610473576020906022549051908152f35b83346107ae5760203660031901126107ae57610582611504611a37565b6115106103d333611ac5565b6120c7565b90503461046f578160031936011261046f573590611531611a52565b90828452600560205261154960018286200154611b02565b828452600560209081528185206001600160a01b039093168086529290528084205460ff1615611577578380f35b82845260056020528084208285526020528320600160ff1982541617905533916000805160206147118339815191528480a43880808380f35b838334610473576020928360031936011261046f576001600160a01b03806115d6611a37565b845163570ca73560e01b8152911686828581845afa91821561169c5791602491889493889261166d575b508752600e8452828688205416865195869485936370a0823160e01b855216908301525afa9283156109b457809361163b575b505051908152f35b909192508382813d8311611666575b6116548183611eb7565b810103126107ae575051908380611633565b503d61164a565b61168e919250853d8711611695575b6116868183611eb7565b81019061293a565b9089611600565b503d61167c565b85513d88823e3d90fd5b83346107ae57806003193601126107ae576105823361206a565b83346107ae57806003193601126107ae5761058233611fc8565b505034610473578160031936011261047357602090601d549051908152f35b5050346104735760203660031901126104735760ff8160209361171a611a37565b818052600586528282206001600160a01b039091168252855220549151911615158152f35b90503461046f57602036600319011261046f5781602093600192358152600585522001549051908152f35b50503461047357816003193601126104735760209061077a61460d565b905082346107ae57806003193601126107ae5750602a549060ff8216610fd7575060ff19908116600117602a55602091610fc7612df4565b8284346107ae5760203660031901126107ae578060206001600160a01b036117e5611a37565b1685855180948193633b253c2b60e11b83525af19182156118515791611823575b5015611816576020905160018152f35b51630e2cca3560e01b8152fd5b611844915060203d811161184a575b61183c8183611eb7565b810190612217565b83611806565b503d611832565b8351903d90823e3d90fd5b83346107ae5760203660031901126107ae57610582611879611a37565b6118856103d333611ac5565b611ed9565b50503461047357816003193601126104735760255490516001600160a01b039091168152602090f35b90503461046f5760209182600319360112610639576118d0611a37565b916118da33611ac5565b8015611946575b1561190d57506000805160206147918339815191529283855260058152610d5a60018387200154611b02565b83606492519162461bcd60e51b835282015260156024820152743737ba1037b7363ca6b4b73a32b927b920b236b4b760591b6044820152fd5b50600080516020614731833981519152855260058452818520338652845260ff82862054166118e1565b5050346104735760203660031901126104735761199060ff610ab9611a37565b60018060a01b03166bffffffffffffffffffffffff60a01b602454161760245580f35b849184346106395760203660031901126106395781359063ffffffff60e01b8216809203611a3357602094637965db0b60e01b83149384156119fa575b5050505015158152f35b6301ffc9a760e01b8414945091929091908415611a1f575b50505050838080806119f0565b60ff94508252855220541683808080611a12565b8480fd5b600435906001600160a01b0382168203611a4d57565b600080fd5b602435906001600160a01b0382168203611a4d57565b34611a4d576000366003190112611a4d576020604051676765c793fa10079d601b1b8152f35b94919260e0969399989794919961010087019a8752602087015260408601526060850152608084015260a083015260c08201520152565b6001600160a01b031660009081527f05b8ccbb9d4d8fb16ea74ce3c29a41f1b461fbdaff4714a0d9a8eb05499746bc602052604090205460ff1690565b60009080825260209060058252604090818420338552835260ff828520541615611b2c5750505050565b81519367ffffffffffffffff336060870182811188821017611e3a578552602a87528587019385368637875115611e265760308553875191600192831015611e1257607860218a015360295b838111611da85750611d665790855192608084019084821090821117611d5257865260428352868301936060368637835115611d3e57603085538351821015611d3e5790607860218501536041915b818311611cd057505050611c8e5792611c5c6048611c4d9794611c80946044989785519a8b93611c248b86019a7f416363657373436f6e74726f6c3a206163636f756e74200000000000000000008c525180926037880190611e4e565b8401917001034b99036b4b9b9b4b733903937b6329607d1b603784015251809386840190611e4e565b01036028810189520187611eb7565b5194859362461bcd60e51b8552600485015251809281602486015285850190611e4e565b601f01601f19168101030190fd5b60648585519062461bcd60e51b825280600483015260248201527f537472696e67733a20686578206c656e67746820696e73756666696369656e746044820152fd5b909192600f81166010811015611d2a576f181899199a1a9b1b9c1cb0b131b232b360811b901a611d00858761218b565b5360041c928015611d1657600019019190611bc7565b634e487b7160e01b82526011600452602482fd5b634e487b7160e01b83526032600452602483fd5b634e487b7160e01b81526032600452602490fd5b634e487b7160e01b85526041600452602485fd5b60648787519062461bcd60e51b825280600483015260248201527f537472696e67733a20686578206c656e67746820696e73756666696369656e746044820152fd5b90600f81166010811015611dfe576f181899199a1a9b1b9c1cb0b131b232b360811b901a611dd6838c61218b565b5360041c908015611dea5760001901611b78565b634e487b7160e01b86526011600452602486fd5b634e487b7160e01b87526032600452602487fd5b634e487b7160e01b85526032600452602485fd5b634e487b7160e01b84526032600452602484fd5b634e487b7160e01b84526041600452602484fd5b60005b838110611e615750506000910152565b8181015183820152602001611e51565b6040810190811067ffffffffffffffff821117611e8d57604052565b634e487b7160e01b600052604160045260246000fd5b67ffffffffffffffff8111611e8d57604052565b90601f8019910116810190811067ffffffffffffffff821117611e8d57604052565b6001600160a01b0316338103611f6b5760008181527f05b8ccbb9d4d8fb16ea74ce3c29a41f1b461fbdaff4714a0d9a8eb05499746bc602052604081205490919060ff16611f25575050565b8180526005602052604082208183526020526040822060ff19815416905533917ff6391f5c32d9c69d2a47ea670b442974b53935d1edc7fd64eb21e047a839171b8180a4565b60405162461bcd60e51b815260206004820152602f60248201527f416363657373436f6e74726f6c3a2063616e206f6e6c792072656e6f756e636560448201526e103937b632b9903337b91039b2b63360891b6064820152608490fd5b6001600160a01b0316338103611f6b5760008181527fedec71783a10810e436f3392a073a61717130e573433fcc6591c3061a012f76760205260408120549091906000805160206147918339815191529060ff1661202557505050565b8083526005602052604083208284526020526040832060ff1981541690557ff6391f5c32d9c69d2a47ea670b442974b53935d1edc7fd64eb21e047a839171b339380a4565b6001600160a01b0316338103611f6b5760008181527f02634a7c777b8129955fe1824eee49ef19dfa96f2f4cb63212492c3d84eb58e660205260408120549091906000805160206147518339815191529060ff1661202557505050565b6001600160a01b0316338103611f6b5760008181527fca0a2f641ec05ca23127d994cf03ffc453db616acae0b86cb56bb95304d0685460205260408120549091906000805160206147318339815191529060ff1661202557505050565b906000918083526005602052604083209160018060a01b03169182845260205260ff60408420541661202557505050565b8181029291811591840414171561216857565b634e487b7160e01b600052601160045260246000fd5b9190820180921161216857565b90815181101561219c570160200190565b634e487b7160e01b600052603260045260246000fd5b156121b957565b60405162461bcd60e51b815260206004820152602360248201527f41757468436f6e74726f6c3a2043616c6c6572206973206e6f7420616e20616460448201526236b4b760e91b6064820152608490fd5b9190820391821161216857565b90816020910312611a4d57518015158103611a4d5790565b8115612239570490565b634e487b7160e01b600052601260045260246000fd5b9092600060a052600091600091600091600091600091601154988982118015906127b7575b612791578961228660049a9b8461220a565b9060135490811161277a575b50600d546040516318160ddd60e01b81529a6020918c919082906001600160a01b03165afa998a156126c05760009a612746575b506122d46010548092612155565b9a602154801560001461273c575061233862a55ec2925b6022548061273257506123326e09a130b963a6c115c3c7f400000000915b60235480612728575061232c6d08c815d5bcc20177de3b5d250000965b8961220a565b90612155565b9061217e565b600a546040516370a0823160e01b81526001600482015291939190602090829060249082906001600160a01b03165afa9081156126c0576000916126f6575b5080633b9aca00810204633b9aca00148115171561216857676765c793fa10079d601b1b6123cf8f928f966123d5956123bd6123c292633b9aca006123ca95029061220a565b61220a565b968794612881565b612825565b046128f4565b60a05260009160009360265460018060a01b03821660005260296020526040600020966001604051986124078a611e71565b80548a520154602089015281156126e2575b6025546001600160a01b0316151591826126d6575b826126cc575b50506125eb575b5050868c60a05161244b9161220a565b906124559161220a565b601d548060805261246591612881565b61246e90612825565b676765c793fa10079d601b1b9004809b60a05161248a9161217e565b906124949161217e565b50868c60a0516124a39161220a565b906124ad9161220a565b600854909b906001600160a01b03166125c6575b6009546001600160a01b03166125a1575b608051612599575b50602754926124ea575b50505050565b86158015612568575b50821515918261254b575b505080612541575b612512575b80806124e4565b612539929350612530602091670de0b6b3a764000084510490612155565b9101519061220a565b90388061250b565b5081511515612506565b909150811561255d575b5038806124fe565b905082511138612555565b9092670de0b6b3a7640000918289029289840414171561216857612332612592926028549061222f565b91386124f3565b9750386124da565b9850676765c793fa10079d601b1b6125bf6123ca8d601c5490612881565b04986124d2565b9950676765c793fa10079d601b1b6125e46123ca8d601b5490612881565b04996124c1565b6125f6919450612959565b9390841561243b576024805460405163c81ae6db60e01b81526001600160a01b0393841660048201529395506020928492918391165afa9081156126c05760009161268e575b509160285490811561243b579080929850633b9aca00810204633b9aca00148215171561216857676765c793fa10079d601b1b6123cf6123ca8f633b9aca00612686960290612881565b95388061243b565b90506020813d6020116126b8575b816126a960209383611eb7565b81010312611a4d57513861263c565b3d915061269c565b6040513d6000823e3d90fd5b1090503880612434565b6001811415925061242e565b905060001981018181116121685790612419565b90506020813d602011612720575b8161271160209383611eb7565b81010312611a4d575138612377565b3d9150612704565b61232c9096612326565b6123329091612309565b61233890926122eb565b9099506020813d602011612772575b8161276260209383611eb7565b81010312611a4d575198386122c6565b3d9150612755565b9061077461278b926012549061220a565b38612292565b50509650505050505050600090600060a052600090600090600090600090600090600090565b50600d546040516318160ddd60e01b815290602090829060049082906001600160a01b03165afa9081156126c0576000916127f4575b5015612274565b90506020813d821161281d575b8161280e60209383611eb7565b81010312611a4d5751386127ed565b3d9150612801565b906b019d971e4fe8401e7400000082019182811161216857821061284557565b60405162461bcd60e51b815260206004820152601460248201527364732d6d6174682d6164642d6f766572666c6f7760601b6044820152606490fd5b6000929180159182156128d4575b50501561289857565b60405162461bcd60e51b815260206004820152601460248201527364732d6d6174682d6d756c2d6f766572666c6f7760601b6044820152606490fd5b915092506128ec6128e58483612155565b938461222f565b14388061288f565b90676765c793fa10079d601b1b918281029281840481148215171561216857830403612898576129278160011c8361217e565b918210612845576129379161222f565b90565b90816020910312611a4d57516001600160a01b0381168103611a4d5790565b9060008060018060a01b0380602554166040918083519763570ca73560e01b8952886004816020958694165afa978815612a78578698612a82575b50835163a37d6aa760e01b815297811660048901528188602481865afa978815612a78578698612a59575b508716806129cf57505050505090565b8190602485969897955180958193633cd0737560e11b835260048301525afa938415612a5057508293612a12575b50505060ff16600114612a0c57565b60019150565b9080929350813d8311612a49575b612a2a8183611eb7565b8101031261047357519060ff821682036107ae575060ff6001386129fd565b503d612a20565b513d84823e3d90fd5b612a71919850823d8411611695576116868183611eb7565b96386129bf565b84513d88823e3d90fd5b612a9a919850823d8411611695576116868183611eb7565b9638612994565b6001600160a01b0316600090815260296020526040808220905191929190612ac882611e71565b602060018254928385520154920191825280612ae2575050565b612937929350612b0090670de0b6b3a7640000602754910490612155565b90519061220a565b60001981146121685760010190565b60065460408051630d42d49760e01b81526000939290919060049085906020906001600160a01b0390811682878681845afa968715612c7d578497612c4e575b50835b878110612b6b575050505050505050565b865163b7ffb17960e01b81528681018290528481602481865afa908115612c27579084918791612c31575b50168552600e845282878620541680612bb9575b50612bb490612b08565b612b5a565b848791899c939c51928380926318160ddd60e01b82525afa908115612c27578691612bf4575b50612bed90612bb49261217e565b9990612baa565b90508481813d8311612c20575b612c0b8183611eb7565b81010312612c1c5751612bb4612bdf565b8580fd5b503d612c01565b88513d88823e3d90fd5b612c489150863d8811611695576116868183611eb7565b38612b96565b9096508281813d8311612c76575b612c668183611eb7565b8101031261063957519538612b57565b503d612c5c565b86513d86823e3d90fd5b60065460408051630d42d49760e01b81526000949290919060049086906020906001600160a01b0390811682878681845afa968715612c7d578497612dc5575b50835b878110612cdd5750505050505050509050565b865163b7ffb17960e01b815286810182905260249085818381875afa908115612dbb579085918891612d9e575b50168652600e85528388872054169081612d2f575b5050612d2a90612b08565b612cca565b8b86918a9e949e5180948193630981b24d60e41b83528c8301525afa908115612c27578691612d6f575b50612d6790612d2a9261217e565b9a9038612d1f565b90508481813d8311612d97575b612d868183611eb7565b81010312612c1c5751612d2a612d59565b503d612d7c565b612db59150873d8911611695576116868183611eb7565b38612d0a565b89513d89823e3d90fd5b9096508281813d8311612ded575b612ddd8183611eb7565b8101031261063957519538612cc7565b503d612dd3565b600060ff601f541661331557338152600e60209081526040808320546001600160a01b0392908316918215613305576011544311156132f557805163570ca73560e01b81529160049080848381335afa9384156132eb5787946132cc575b5082516370a0823160e01b80825285881684830152969082816024818a5afa90811561324657899161329f575b50601a541161328f57612e90613620565b1561327f57338852600f825283882043905583516318160ddd60e01b815296828885818a5afa978815613246578998613250575b508282600d5416916024875180948193825233898301525afa908115613246578991613215575b50808810156131e35787612efe9161220a565b923389526015835260ff858a20541696612f1c8789878c8533613403565b9790988751630a9ee07f60e31b815286818681875afa90811561319d578c8e928d8a9385926131a7575b506123cf6123ca612f649493676765c793fa10079d601b1b93612881565b60248b518094819363817e9d3160e01b83528a830152885af1801561319d57889492889694928c92613180575b508161307c575b5050600b546007548a516340c10f1960e01b81529088166001600160a01b031694810194855260208501959095529395869416928492508d915082906040015b03925af18015613072579160a0979593917f9f0aff7defc0f0b331d66bccf1955a699b40155565289317e38b9799ddf0944899979593613055575b508251967f521cc65179761533a7c8d7a973291dd7baebb99a67edf5ef78e9c2b61a533d95339180a233875286015284015260608301526080820152a1600190565b61306b90823d841161184a5761183c8183611eb7565b5038613013565b84513d8a823e3d90fd5b9395929450909215613110575050813b1561310c57865163079cc67960e41b81526001600160a01b039091168382019081526020810189905290918b9183919082908490829060400103925af18015613102576130e7575b5083612fd89284925b9093388981612f98565b612fd89284929a6130f88793611ea3565b9a925092506130d4565b86513d8c823e3d90fd5b8a80fd5b88516340c10f1960e01b81526001600160a01b0390931685840190815260208101919091529192909183919082908e90829060400103925af18015613102579284928692612fd895613163575b506130dd565b61317990853d871161184a5761183c8183611eb7565b503861315d565b61319690883d8a1161184a5761183c8183611eb7565b5038612f91565b89513d8f823e3d90fd5b945050505081813d83116131dc575b6131c08183611eb7565b810103126131d857518c9087908d908d6123cf612f46565b8c80fd5b503d6131b6565b50505050505050507f521cc65179761533a7c8d7a973291dd7baebb99a67edf5ef78e9c2b61a533d95339180a2600190565b90508281813d831161323f575b61322c8183611eb7565b8101031261323b575138612eeb565b8880fd5b503d613222565b85513d8b823e3d90fd5b9097508281813d8311613278575b6132688183611eb7565b8101031261323b57519638612ec4565b503d61325e565b835163e9d168a160e01b81528390fd5b8351631c635dad60e11b81528390fd5b90508281813d83116132c5575b6132b68183611eb7565b8101031261323b575138612e7f565b503d6132ac565b816132e49295503d8611611695576116868183611eb7565b9238612e52565b83513d89823e3d90fd5b516323e3786760e01b8152600490fd5b51635e06a79560e11b8152600490fd5b50600190565b600060ff601f541661331557338152600e60209081526040808320546001600160a01b0392908316918215613305576011544311156132f557805163570ca73560e01b81529160049080848381335afa9384156132eb5787946133e4575b5082516370a0823160e01b80825285881684830152969082816024818a5afa9081156132465789916133b7575b50601a541161328f57612e90613e51565b90508281813d83116133dd575b6133ce8183611eb7565b8101031261323b5751386133a6565b503d6133c4565b816133fc9295503d8611611695576116868183611eb7565b9238613379565b95939491959290926000809460018060a01b038093168652602060178152604093848820548015159081613615575b506135d6575b60148252848820549661344b878d61217e565b9a88156135c65715613596578b156135875785516370a0823160e01b8152908216600482015292829184916024918391165afa93841561357e5750869361354e575b5050811561354557506123ca6134a96123ca986134cb936128f4565b9384936134c5676765c793fa10079d601b1b9a8b968793612881565b04612881565b048582149586600014613511576134f094959682945b50156134f4575090509361217e565b9190565b6135046123ca61350b9486612881565b049061217e565b9361217e565b828103968188116135315761352b6134f0969798846128f4565b946134e1565b634e487b7160e01b85526011600452602485fd5b95965050505050565b9080929350813d8311613577575b6135668183611eb7565b81010312611a33575190388061348d565b503d61355c565b513d88823e3d90fd5b50505050965050505050909190565b5050505050506134f093949550676765c793fa10079d601b1b92506135be916123ca91612881565b04809361220a565b5050505050505050509250909190565b601882528488205460148352858920556019825260ff8589205416601583528589209060ff801983541691151516179055601782528785812055613438565b905043101538613432565b601154431115613e4c57600d546040516318160ddd60e01b81526001600160a01b0390911690602081600481855afa9081156126c057600091613e1a575b5015613e10576040516318160ddd60e01b8152602081600481855afa9081156126c057600091613dde575b506136b060115461369a814361220a565b90601354908111613dc7575b5060105490612155565b916136b961460d565b916136d783676765c793fa10079d601b1b6123cf6123ca8589612881565b906000809481948290839460018060a01b0360255416913386526029602052604086209160016040519361370a85611e71565b805485520154602084015260265415613d9b575b8b84151580613d8e575b80613d83575b613c58575b61375c6123ca6137538a6123bd8e676765c793fa10079d601b1b9661220a565b601d5490612881565b04956137718761376c8c8561217e565b61217e565b9243601155604051630a9ee07f60e31b8152602081600481855afa9081156126c057600091613c25575b5083929160246137c38796676765c793fa10079d601b1b6123cf6123ca60209760009c612881565b604051978893849263817e9d3160e01b845260048401525af19384156126c057600494613c06575b50600d546040516318160ddd60e01b81529460209186919082906001600160a01b03165afa9384156126c057600094613bd1575b50917f41a79a497d1457df24c25ab99f22349ae9aef4468429f0a781216e8dcf80c6289391608093604051938452602084015260408301526060820152a161386b856123bd898d61220a565b976000928394849660018060a01b03600b541689613b69575b6008546001600160a01b03168d81613adc575b50506009546001600160a01b03168d81613a49575b505050601d54613a32575b506138ef575b5050506000805160206147718339815191529750906138e794939291604051978897339b89611a8e565b0390a2600190565b866139f8575b336000526029602052604060002091602754613947575b50506138e7969594939291612b008b6000805160206147718339815191529c613938945560285461217e565b602855909192939438806138bd565b90975061395333612aa1565b97881561390c578098979695949391983b15611a4d5760405163c5f16b8960e01b81526001600160a01b039990991660048a0152602489018890526000908990604490829084905af19788156126c0578b6000805160206147718339815191529c61393894612b00936138e79c6139e9575b50600181016139d58c825461217e565b90559450509b50819394959697985061390c565b6139f290611ea3565b386139c5565b670de0b6b3a7640000878181020481148815171561216857613a22613a2a91602854908a0261222f565b60275461217e565b6027556138f5565b9650613a4087601e5461217e565b601e55386138b7565b613aa792995090676765c793fa10079d601b1b613a6e6123ca602094601c5490612881565b6040516340c10f1960e01b81526001600160a01b0390931660048401520460248201819052999092839190829060009082906044820190565b03925af180156126c057613abd575b808d6138ac565b613ad59060203d60201161184a5761183c8183611eb7565b5038613ab6565b613b32919850676765c793fa10079d601b1b613b006123ca602093601b5490612881565b6040516340c10f1960e01b81526001600160a01b03909b1660048c01520460248a018190529891829081906044820190565b03816000865af180156126c057613b4a575b8d613897565b613b629060203d60201161184a5761183c8183611eb7565b5038613b44565b6040516340c10f1960e01b81526001600160a01b0385166004820152602481018b90526020816044818b865af18015613bc657613ba7575b50613884565b613bbf9060203d60201161184a5761183c8183611eb7565b5038613ba1565b6040513d8a823e3d90fd5b90936020823d602011613bfe575b81613bec60209383611eb7565b810103126107ae57505192608061381f565b3d9150613bdf565b613c1e9060203d60201161184a5761183c8183611eb7565b50386137eb565b906020823d602011613c50575b81613c3f60209383611eb7565b810103126107ae575051600061379b565b3d9150613c32565b5093509750613c6633612959565b909890938985613cfd575b50888c6028548015908115613c8a575b50509050613733565b9250929394959697989050633b9aca0092828481020484141715613ce9575061375c6123ca6137538f6123bd613cde8f9d676765c793fa10079d601b1b6123cf829f9e9d9c9b9a6123ca90839b0287612881565b9c9550509250613c81565b634e487b7160e01b81526011600452602490fd5b6024805460405163c81ae6db60e01b81526001600160a01b039384166004820152939d506020928492918391165afa908115613d78578791613d42575b509938613c71565b90506020813d602011613d70575b81613d5d60209383611eb7565b81010312613d6c575138613d3a565b8680fd5b3d9150613d50565b6040513d89823e3d90fd5b50436026541061372e565b5060016026541415613728565b43600019810111613db357436000190160265561371e565b634e487b7160e01b87526011600452602487fd5b90610774613dd8926012549061220a565b386136a6565b906020823d602011613e08575b81613df860209383611eb7565b810103126107ae57505138613689565b3d9150613deb565b5043601155600090565b906020823d602011613e44575b81613e3460209383611eb7565b810103126107ae5750513861365e565b3d9150613e27565b600090565b601154431115613e4c57600d546040516318160ddd60e01b81526001600160a01b0390911690602081600481855afa9081156126c0576000916145db575b5015613e10576040516318160ddd60e01b8152602081600481855afa9081156126c0576000916145a9575b50613ecb60115461369a814361220a565b91613ed461460d565b91613ef283676765c793fa10079d601b1b6123cf6123ca8589612881565b906000809481948290839460018060a01b03602554169133865260296020526040862091600160405193613f2585611e71565b805485520154602084015260265415614591575b8b84151580614584575b80614579575b614471575b613f6e6123ca6137538a6123bd8e676765c793fa10079d601b1b9661220a565b0495613f7e8761376c8c8561217e565b9243601155604051630a9ee07f60e31b8152602081600481855afa9081156126c05760009161443e575b508392916024613fd08796676765c793fa10079d601b1b6123cf6123ca60209760009c612881565b604051978893849263817e9d3160e01b845260048401525af19384156126c05760049461441f575b50600d546040516318160ddd60e01b81529460209186919082906001600160a01b03165afa9384156126c0576000946143ea575b50917f41a79a497d1457df24c25ab99f22349ae9aef4468429f0a781216e8dcf80c6289391608093604051938452602084015260408301526060820152a1614078856123bd898d61220a565b976000928394849660018060a01b03600b54168961438d575b6008546001600160a01b03168d81614332575b50506009546001600160a01b03168d816142d8575b505050601d546142c1575b506140f3575050506000805160206147718339815191529750906138e794939291604051978897339b89611a8e565b86614290575b3360005260296020526040600020916027548061413e575b5050506138e7969594939291612b008b6000805160206147718339815191529c613938945560285461217e565b8c859a92939a511160001461423257505061415833612aa1565b9788614194575b50506138e7969594939291612b008b6000805160206147718339815191529c613938945b94509c508294959697989950614111565b8098979695949391983b15611a4d5760405163c5f16b8960e01b81526001600160a01b039990991660048a0152602489018890526000908990604490829084905af19788156126c0578b6000805160206147718339815191529c61393894612b00936138e79c614223575b506001810161420f8c825461217e565b90559450509b50819394959697985061415f565b61422c90611ea3565b386141ff565b6138e79950612b0091989796959492509b80613938946000805160206147718339815191529e600f6020526040600020541561426f575b50614183565b614284670de0b6b3a764000091875190612155565b04600182015538614269565b670de0b6b3a764000080880290888204148815171561216857613a226142b9916028549061222f565b6027556140f9565b96506142cf87601e5461217e565b601e55386140c4565b6142fd92995090676765c793fa10079d601b1b613a6e6123ca602094601c5490612881565b03925af180156126c057614313575b808d6140b9565b61432b9060203d60201161184a5761183c8183611eb7565b503861430c565b614356919850676765c793fa10079d601b1b613b006123ca602093601b5490612881565b03816000865af180156126c05761436e575b8d6140a4565b6143869060203d60201161184a5761183c8183611eb7565b5038614368565b6040516340c10f1960e01b81526001600160a01b0385166004820152602481018b90526020816044818b865af18015613bc6576143cb575b50614091565b6143e39060203d60201161184a5761183c8183611eb7565b50386143c5565b90936020823d602011614417575b8161440560209383611eb7565b810103126107ae57505192608061402c565b3d91506143f8565b6144379060203d60201161184a5761183c8183611eb7565b5038613ff8565b906020823d602011614469575b8161445860209383611eb7565b810103126107ae5750516000613fa8565b3d915061444b565b509350975061447f33612959565b909890938985614502575b50888c60285480159081156144a3575b50509050613f4e565b9250929394959697989050633b9aca0092828481020484141715613ce95750613f6e6123ca6137538f6123bd6144f78f9d676765c793fa10079d601b1b6123cf829f9e9d9c9b9a6123ca90839b0287612881565b9c955050925061449a565b6024805460405163c81ae6db60e01b81526001600160a01b039384166004820152939d506020928492918391165afa908115613d78578791614547575b50993861448a565b90506020813d602011614571575b8161456260209383611eb7565b81010312613d6c57513861453f565b3d9150614555565b504360265410613f49565b5060016026541415613f43565b43600019810111613db3574360001901602655613f39565b906020823d6020116145d3575b816145c360209383611eb7565b810103126107ae57505138613eba565b3d91506145b6565b906020823d602011614605575b816145f560209383611eb7565b810103126107ae57505138613e8f565b3d91506145e8565b602154806147085750602462a55ec25b602254806146ff57506146646e09a130b963a6c115c3c7f4000000005b602354806146f557506123326d08c815d5bcc20177de3b5d250000935b61232c601054914361220a565b600a546040516370a0823160e01b8152600160048201529360209185919082906001600160a01b03165afa9283156126c0576000936146c2575b50633b9aca009283810293818504149015171561216857612937926123bd9161220a565b90926020823d82116146ed575b816146dc60209383611eb7565b810103126107ae575051913861469e565b3d91506146cf565b6123329093614657565b6146649061463a565b60249061461d56fe2f8788117e7eff1d82e926ec794901d17c78024a50270940304540a733656f0df0887ba65ee2024ea881d91b74c2450ef19e1557f03bed3ea9f16b037cbe2dc9523a704056dcd17bcf83bed8b68c59416dac1119be77755efe3bde0a64e46e0c497e03b12fad3ff21a8befe15ca84c3fc0060b505e572702bf6788e900252007bf02bad7114723a857a3af46cea17b778a3a951c96f183784d9a2448cc479ab6a164736f6c6343000813000a",
  "linkReferences": {},
  "deployedLinkReferences": {}
}