{
  "_format": "hh-sol-artifact-1",
  "contractName": "L1StakedTonInL2",
  "sourceName": "contracts/L2/L1StakedTonInL2.sol",
  "abi": [
    {
      "anonymous": false,
      "inputs": [
        {
          "indexed": true,
          "internalType": "bytes32",
          "name": "role",
          "type": "bytes32"
        },
        {
          "indexed": true,
          "internalType": "bytes32",
          "name": "previousAdminRole",
          "type": "bytes32"
        },
        {
          "indexed": true,
          "internalType": "bytes32",
          "name": "newAdminRole",
          "type": "bytes32"
        }
      ],
      "name": "RoleAdminChanged",
      "type": "event"
    },
    {
      "anonymous": false,
      "inputs": [
        {
          "indexed": true,
          "internalType": "bytes32",
          "name": "role",
          "type": "bytes32"
        },
        {
          "indexed": true,
          "internalType": "address",
          "name": "account",
          "type": "address"
        },
        {
          "indexed": true,
          "internalType": "address",
          "name": "sender",
          "type": "address"
        }
      ],
      "name": "RoleGranted",
      "type": "event"
    },
    {
      "anonymous": false,
      "inputs": [
        {
          "indexed": true,
          "internalType": "bytes32",
          "name": "role",
          "type": "bytes32"
        },
        {
          "indexed": true,
          "internalType": "address",
          "name": "account",
          "type": "address"
        },
        {
          "indexed": true,
          "internalType": "address",
          "name": "sender",
          "type": "address"
        }
      ],
      "name": "RoleRevoked",
      "type": "event"
    },
    {
      "inputs": [],
      "name": "DEFAULT_ADMIN_ROLE",
      "outputs": [
        {
          "internalType": "bytes32",
          "name": "",
          "type": "bytes32"
        }
      ],
      "stateMutability": "view",
      "type": "function"
    },
    {
      "inputs": [],
      "name": "MINTER_ROLE",
      "outputs": [
        {
          "internalType": "bytes32",
          "name": "",
          "type": "bytes32"
        }
      ],
      "stateMutability": "view",
      "type": "function"
    },
    {
      "inputs": [],
      "name": "_manager",
      "outputs": [
        {
          "internalType": "address",
          "name": "",
          "type": "address"
        }
      ],
      "stateMutability": "view",
      "type": "function"
    },
    {
      "inputs": [
        {
          "internalType": "address",
          "name": "account",
          "type": "address"
        }
      ],
      "name": "addAdmin",
      "outputs": [],
      "stateMutability": "nonpayable",
      "type": "function"
    },
    {
      "inputs": [
        {
          "internalType": "address",
          "name": "",
          "type": "address"
        }
      ],
      "name": "aliveImplementation",
      "outputs": [
        {
          "internalType": "bool",
          "name": "",
          "type": "bool"
        }
      ],
      "stateMutability": "view",
      "type": "function"
    },
    {
      "inputs": [
        {
          "internalType": "bytes",
          "name": "data",
          "type": "bytes"
        }
      ],
      "name": "decodeSyncPackets",
      "outputs": [
        {
          "components": [
            {
              "internalType": "address",
              "name": "layer",
              "type": "address"
            },
            {
              "internalType": "uint256",
              "name": "stakedAmount",
              "type": "uint256"
            }
          ],
          "internalType": "struct LibL1StakedInfo.L1StakedPacket[]",
          "name": "packets",
          "type": "tuple[]"
        }
      ],
      "stateMutability": "pure",
      "type": "function"
    },
    {
      "inputs": [
        {
          "internalType": "bytes32",
          "name": "role",
          "type": "bytes32"
        }
      ],
      "name": "getRoleAdmin",
      "outputs": [
        {
          "internalType": "bytes32",
          "name": "",
          "type": "bytes32"
        }
      ],
      "stateMutability": "view",
      "type": "function"
    },
    {
      "inputs": [
        {
          "internalType": "bytes32",
          "name": "role",
          "type": "bytes32"
        },
        {
          "internalType": "address",
          "name": "account",
          "type": "address"
        }
      ],
      "name": "grantRole",
      "outputs": [],
      "stateMutability": "nonpayable",
      "type": "function"
    },
    {
      "inputs": [
        {
          "internalType": "bytes32",
          "name": "role",
          "type": "bytes32"
        },
        {
          "internalType": "address",
          "name": "account",
          "type": "address"
        }
      ],
      "name": "hasRole",
      "outputs": [
        {
          "internalType": "bool",
          "name": "",
          "type": "bool"
        }
      ],
      "stateMutability": "view",
      "type": "function"
    },
    {
      "inputs": [
        {
          "internalType": "address",
          "name": "managerAddress",
          "type": "address"
        },
        {
          "internalType": "address",
          "name": "l2messanger_",
          "type": "address"
        }
      ],
      "name": "initialize",
      "outputs": [],
      "stateMutability": "nonpayable",
      "type": "function"
    },
    {
      "inputs": [
        {
          "internalType": "address",
          "name": "account",
          "type": "address"
        }
      ],
      "name": "isAdmin",
      "outputs": [
        {
          "internalType": "bool",
          "name": "",
          "type": "bool"
        }
      ],
      "stateMutability": "view",
      "type": "function"
    },
    {
      "inputs": [],
      "name": "isOwner",
      "outputs": [
        {
          "internalType": "bool",
          "name": "",
          "type": "bool"
        }
      ],
      "stateMutability": "view",
      "type": "function"
    },
    {
      "inputs": [],
      "name": "l1Register",
      "outputs": [
        {
          "internalType": "address",
          "name": "",
          "type": "address"
        }
      ],
      "stateMutability": "view",
      "type": "function"
    },
    {
      "inputs": [],
      "name": "l2CrossDomainMessenger",
      "outputs": [
        {
          "internalType": "address",
          "name": "",
          "type": "address"
        }
      ],
      "stateMutability": "view",
      "type": "function"
    },
    {
      "inputs": [],
      "name": "l2SeigManager",
      "outputs": [
        {
          "internalType": "address",
          "name": "",
          "type": "address"
        }
      ],
      "stateMutability": "view",
      "type": "function"
    },
    {
      "inputs": [],
      "name": "pauseProxy",
      "outputs": [
        {
          "internalType": "bool",
          "name": "",
          "type": "bool"
        }
      ],
      "stateMutability": "view",
      "type": "function"
    },
    {
      "inputs": [
        {
          "internalType": "uint256",
          "name": "",
          "type": "uint256"
        }
      ],
      "name": "proxyImplementation",
      "outputs": [
        {
          "internalType": "address",
          "name": "",
          "type": "address"
        }
      ],
      "stateMutability": "view",
      "type": "function"
    },
    {
      "inputs": [
        {
          "internalType": "bytes",
          "name": "data",
          "type": "bytes"
        }
      ],
      "name": "register",
      "outputs": [],
      "stateMutability": "nonpayable",
      "type": "function"
    },
    {
      "inputs": [
        {
          "internalType": "address",
          "name": "account",
          "type": "address"
        }
      ],
      "name": "removeAdmin",
      "outputs": [],
      "stateMutability": "nonpayable",
      "type": "function"
    },
    {
      "inputs": [],
      "name": "renounceOwnership",
      "outputs": [],
      "stateMutability": "nonpayable",
      "type": "function"
    },
    {
      "inputs": [
        {
          "internalType": "bytes32",
          "name": "role",
          "type": "bytes32"
        },
        {
          "internalType": "address",
          "name": "account",
          "type": "address"
        }
      ],
      "name": "renounceRole",
      "outputs": [],
      "stateMutability": "nonpayable",
      "type": "function"
    },
    {
      "inputs": [
        {
          "internalType": "bytes32",
          "name": "role",
          "type": "bytes32"
        },
        {
          "internalType": "address",
          "name": "account",
          "type": "address"
        }
      ],
      "name": "revokeRole",
      "outputs": [],
      "stateMutability": "nonpayable",
      "type": "function"
    },
    {
      "inputs": [
        {
          "internalType": "bytes4",
          "name": "",
          "type": "bytes4"
        }
      ],
      "name": "selectorImplementation",
      "outputs": [
        {
          "internalType": "address",
          "name": "",
          "type": "address"
        }
      ],
      "stateMutability": "view",
      "type": "function"
    },
    {
      "inputs": [
        {
          "internalType": "address",
          "name": "l1Register_",
          "type": "address"
        }
      ],
      "name": "setL1Register",
      "outputs": [],
      "stateMutability": "nonpayable",
      "type": "function"
    },
    {
      "inputs": [
        {
          "internalType": "address",
          "name": "l2SeigManager_",
          "type": "address"
        }
      ],
      "name": "setL2SeigManager",
      "outputs": [],
      "stateMutability": "nonpayable",
      "type": "function"
    },
    {
      "inputs": [
        {
          "internalType": "bytes4",
          "name": "interfaceId",
          "type": "bytes4"
        }
      ],
      "name": "supportsInterface",
      "outputs": [
        {
          "internalType": "bool",
          "name": "",
          "type": "bool"
        }
      ],
      "stateMutability": "view",
      "type": "function"
    },
    {
      "inputs": [
        {
          "internalType": "address",
          "name": "newAdmin",
          "type": "address"
        }
      ],
      "name": "transferAdmin",
      "outputs": [],
      "stateMutability": "nonpayable",
      "type": "function"
    },
    {
      "inputs": [
        {
          "internalType": "address",
          "name": "newAdmin",
          "type": "address"
        }
      ],
      "name": "transferOwnership",
      "outputs": [],
      "stateMutability": "nonpayable",
      "type": "function"
    }
  ],
  "bytecode": "0x608060405234801561001057600080fd5b50611867806100206000396000f3fe608060405234801561001057600080fd5b50600436106101c45760003560e01c8063715018a6116100f9578063d539139311610097578063da6c82f011610071578063da6c82f014610469578063f0329f6b1461047c578063f2fde38b1461048f578063fbef005a146104a257600080fd5b8063d53913931461041c578063d547741f14610443578063d75bf0ce1461045657600080fd5b80638f32d59b116100d35780638f32d59b1461037b57806391d14854146103b2578063a217fddf146103eb578063b911135f146103f357600080fd5b8063715018a61461034d57806375829def1461035557806382fbdc9c1461036857600080fd5b806336568abe1161016657806353cd4eac1161014057806353cd4eac146102f7578063550d01a31461030a57806363a8fd891461032d578063704802751461033a57600080fd5b806336568abe14610290578063485cc955146102a357806350d2a276146102b657600080fd5b806324d7806c116101a257806324d7806c146102375780632bd5a6a41461024a5780632c5703581461025d5780632f2ff15d1461027d57600080fd5b806301ffc9a7146101c95780631785f53c146101f1578063248a9ca314610206575b600080fd5b6101dc6101d7366004611484565b6104b5565b60405190151581526020015b60405180910390f35b6102046101ff3660046114c3565b6104c6565b005b6102296102143660046114e0565b60009081526005602052604090206001015490565b6040519081526020016101e8565b6101dc6102453660046114c3565b610539565b6102046102583660046114c3565b610579565b61027061026b36600461150f565b610629565b6040516101e8919061160f565b61020461028b366004611622565b610731565b61020461029e366004611622565b61075b565b6102046102b1366004611652565b6107e7565b6102df6102c4366004611484565b6003602052600090815260409020546001600160a01b031681565b6040516001600160a01b0390911681526020016101e8565b6007546102df906001600160a01b031681565b6101dc6103183660046114c3565b60026020526000908152604090205460ff1681565b6000546101dc9060ff1681565b6102046103483660046114c3565b610875565b6102046108e0565b6102046103633660046114c3565b61094d565b61020461037636600461150f565b610a71565b3360009081527f05b8ccbb9d4d8fb16ea74ce3c29a41f1b461fbdaff4714a0d9a8eb05499746bc602052604090205460ff166101dc565b6101dc6103c0366004611622565b60009182526005602090815260408084206001600160a01b0393909316845291905290205460ff1690565b610229600081565b6102df6104013660046114e0565b6001602052600090815260409020546001600160a01b031681565b6102297ff0887ba65ee2024ea881d91b74c2450ef19e1557f03bed3ea9f16b037cbe2dc981565b610204610451366004611622565b610c8c565b6009546102df906001600160a01b031681565b6102046104773660046114c3565b610cb1565b6006546102df906001600160a01b031681565b61020461049d3660046114c3565b610d61565b6008546102df906001600160a01b031681565b60006104c082610dca565b92915050565b6104cf33610539565b61052b5760405162461bcd60e51b815260206004820152602260248201527f41636365737369626c653a2043616c6c6572206973206e6f7420616e2061646d60448201526134b760f11b60648201526084015b60405180910390fd5b61053660008261075b565b50565b6001600160a01b03811660009081527f05b8ccbb9d4d8fb16ea74ce3c29a41f1b461fbdaff4714a0d9a8eb05499746bc602052604081205460ff166104c0565b6006546001600160a01b031633146105c15760405162461bcd60e51b815260206004820152600b60248201526a3737ba1036b0b730b3b2b960a91b6044820152606401610522565b6009546001600160a01b038083169116036106075760405162461bcd60e51b81526004016105229060208082526004908201526373616d6560e01b604082015260600190565b600980546001600160a01b0319166001600160a01b0392909216919091179055565b606060006034905060008184516106409190611696565b90508067ffffffffffffffff81111561065b5761065b6114f9565b6040519080825280602002602001820160405280156106a057816020015b60408051808201909152600080825260208201528152602001906001900390816106795790505b50925060005b818110156107295760006106bb868386610def565b905060405180604001604052806106dc600084610f5290919063ffffffff16565b6001600160a01b031681526020016106f5836014611022565b81525085838151811061070a5761070a6116b8565b6020026020010181905250508080610721906116ce565b9150506106a6565b505050919050565b60008281526005602052604090206001015461074c816110e2565b61075683836110ec565b505050565b6001600160a01b03811633146107d95760405162461bcd60e51b815260206004820152602f60248201527f416363657373436f6e74726f6c3a2063616e206f6e6c792072656e6f756e636560448201527f20726f6c657320666f722073656c6600000000000000000000000000000000006064820152608401610522565b6107e3828261118e565b5050565b6107f033610539565b6108475760405162461bcd60e51b815260206004820152602260248201527f41636365737369626c653a2043616c6c6572206973206e6f7420616e2061646d60448201526134b760f11b6064820152608401610522565b600680546001600160a01b039384166001600160a01b03199182161790915560088054929093169116179055565b61087e33610539565b6108d55760405162461bcd60e51b815260206004820152602260248201527f41636365737369626c653a2043616c6c6572206973206e6f7420616e2061646d60448201526134b760f11b6064820152608401610522565b610536600082610731565b6108e933610539565b6109405760405162461bcd60e51b815260206004820152602260248201527f41636365737369626c653a2043616c6c6572206973206e6f7420616e2061646d60448201526134b760f11b6064820152608401610522565b61094b60003361075b565b565b61095633610539565b6109ad5760405162461bcd60e51b815260206004820152602260248201527f41636365737369626c653a2043616c6c6572206973206e6f7420616e2061646d60448201526134b760f11b6064820152608401610522565b6001600160a01b038116610a035760405162461bcd60e51b815260206004820152601860248201527f41636365737369626c653a207a65726f206164647265737300000000000000006044820152606401610522565b6001600160a01b0381163303610a5b5760405162461bcd60e51b815260206004820152601660248201527f41636365737369626c653a2073616d652061646d696e000000000000000000006044820152606401610522565b610a66600082610731565b61053660003361075b565b6008546001600160a01b031633148015610b06575060095460085460408051636e296e4560e01b815290516001600160a01b039384169390921691636e296e45916004808201926020929091908290030181865afa158015610ad7573d6000803e3d6000fd5b505050506040513d601f19601f82011682018060405250810190610afb91906116e7565b6001600160a01b0316145b610b525760405162461bcd60e51b815260206004820152601e60248201527f6e6f74206f6e6c794d657373656e676572416e644c31526567697374657200006044820152606401610522565b6047815111610ba35760405162461bcd60e51b815260206004820152601260248201527f77726f6e67206279746573206c656e67746800000000000000000000000000006044820152606401610522565b6000610baf8282610f52565b90506000610bd061026b6014808651610bc89190611704565b869190610def565b90508051600003610c235760405162461bcd60e51b815260206004820152600c60248201527f6e6f2073796e63206461746100000000000000000000000000000000000000006044820152606401610522565b6007546040516303dffced60e51b81526001600160a01b0390911690637bff9da090610c559085908590600401611717565b600060405180830381600087803b158015610c6f57600080fd5b505af1158015610c83573d6000803e3d6000fd5b50505050505050565b600082815260056020526040902060010154610ca7816110e2565b610756838361118e565b6006546001600160a01b03163314610cf95760405162461bcd60e51b815260206004820152600b60248201526a3737ba1036b0b730b3b2b960a91b6044820152606401610522565b6007546001600160a01b03808316911603610d3f5760405162461bcd60e51b81526004016105229060208082526004908201526373616d6560e01b604082015260600190565b600780546001600160a01b0319166001600160a01b0392909216919091179055565b610d6a33610539565b610dc15760405162461bcd60e51b815260206004820152602260248201527f41636365737369626c653a2043616c6c6572206973206e6f7420616e2061646d60448201526134b760f11b6064820152608401610522565b6105368161094d565b60006001600160e01b03198216637965db0b60e01b14806104c057506104c082611211565b606081610dfd81601f611741565b1015610e3c5760405162461bcd60e51b815260206004820152600e60248201526d736c6963655f6f766572666c6f7760901b6044820152606401610522565b82610e478382611741565b1015610e865760405162461bcd60e51b815260206004820152600e60248201526d736c6963655f6f766572666c6f7760901b6044820152606401610522565b610e908284611741565b84511015610ee05760405162461bcd60e51b815260206004820152601160248201527f736c6963655f6f75744f66426f756e64730000000000000000000000000000006044820152606401610522565b606082158015610eff5760405191506000825260208201604052610f49565b6040519150601f8416801560200281840101858101878315602002848b0101015b81831015610f38578051835260209283019201610f20565b5050858452601f01601f1916604052505b50949350505050565b600081610f60816014611741565b1015610fae5760405162461bcd60e51b815260206004820152601260248201527f746f416464726573735f6f766572666c6f7700000000000000000000000000006044820152606401610522565b610fb9826014611741565b835110156110095760405162461bcd60e51b815260206004820152601560248201527f746f416464726573735f6f75744f66426f756e647300000000000000000000006044820152606401610522565b5001602001516c01000000000000000000000000900490565b600081611030816020611741565b101561107e5760405162461bcd60e51b815260206004820152601260248201527f746f55696e743235365f6f766572666c6f7700000000000000000000000000006044820152606401610522565b611089826020611741565b835110156110d95760405162461bcd60e51b815260206004820152601560248201527f746f55696e743235365f6f75744f66426f756e647300000000000000000000006044820152606401610522565b50016020015190565b610536813361124d565b60008281526005602090815260408083206001600160a01b038516845290915290205460ff166107e35760008281526005602090815260408083206001600160a01b03851684529091529020805460ff1916600117905561114a3390565b6001600160a01b0316816001600160a01b0316837f2f8788117e7eff1d82e926ec794901d17c78024a50270940304540a733656f0d60405160405180910390a45050565b60008281526005602090815260408083206001600160a01b038516845290915290205460ff16156107e35760008281526005602090815260408083206001600160a01b0385168085529252808320805460ff1916905551339285917ff6391f5c32d9c69d2a47ea670b442974b53935d1edc7fd64eb21e047a839171b9190a45050565b60006301ffc9a760e01b6001600160e01b0319831614806104c05750506001600160e01b03191660009081526004602052604090205460ff1690565b60008281526005602090815260408083206001600160a01b038516845290915290205460ff166107e357611280816112c2565b61128b8360206112d4565b60405160200161129c929190611778565b60408051601f198184030181529082905262461bcd60e51b8252610522916004016117f9565b60606104c06001600160a01b03831660145b606060006112e383600261182c565b6112ee906002611741565b67ffffffffffffffff811115611306576113066114f9565b6040519080825280601f01601f191660200182016040528015611330576020820181803683370190505b509050600360fc1b8160008151811061134b5761134b6116b8565b60200101906001600160f81b031916908160001a905350600f60fb1b8160018151811061137a5761137a6116b8565b60200101906001600160f81b031916908160001a905350600061139e84600261182c565b6113a9906001611741565b90505b600181111561142e577f303132333435363738396162636465660000000000000000000000000000000085600f16601081106113ea576113ea6116b8565b1a60f81b828281518110611400576114006116b8565b60200101906001600160f81b031916908160001a90535060049490941c9361142781611843565b90506113ac565b50831561147d5760405162461bcd60e51b815260206004820181905260248201527f537472696e67733a20686578206c656e67746820696e73756666696369656e746044820152606401610522565b9392505050565b60006020828403121561149657600080fd5b81356001600160e01b03198116811461147d57600080fd5b6001600160a01b038116811461053657600080fd5b6000602082840312156114d557600080fd5b813561147d816114ae565b6000602082840312156114f257600080fd5b5035919050565b634e487b7160e01b600052604160045260246000fd5b60006020828403121561152157600080fd5b813567ffffffffffffffff8082111561153957600080fd5b818401915084601f83011261154d57600080fd5b81358181111561155f5761155f6114f9565b604051601f8201601f19908116603f01168101908382118183101715611587576115876114f9565b816040528281528760208487010111156115a057600080fd5b826020860160208301376000928101602001929092525095945050505050565b600081518084526020808501945080840160005b8381101561160457815180516001600160a01b0316885283015183880152604090960195908201906001016115d4565b509495945050505050565b60208152600061147d60208301846115c0565b6000806040838503121561163557600080fd5b823591506020830135611647816114ae565b809150509250929050565b6000806040838503121561166557600080fd5b8235611670816114ae565b91506020830135611647816114ae565b634e487b7160e01b600052601160045260246000fd5b6000826116b357634e487b7160e01b600052601260045260246000fd5b500490565b634e487b7160e01b600052603260045260246000fd5b6000600182016116e0576116e0611680565b5060010190565b6000602082840312156116f957600080fd5b815161147d816114ae565b818103818111156104c0576104c0611680565b6001600160a01b038316815260406020820152600061173960408301846115c0565b949350505050565b808201808211156104c0576104c0611680565b60005b8381101561176f578181015183820152602001611757565b50506000910152565b7f416363657373436f6e74726f6c3a206163636f756e74200000000000000000008152600083516117b0816017850160208801611754565b7f206973206d697373696e6720726f6c652000000000000000000000000000000060179184019182015283516117ed816028840160208801611754565b01602801949350505050565b6020815260008251806020840152611818816040850160208701611754565b601f01601f19169190910160400192915050565b80820281158282048414176104c0576104c0611680565b60008161185257611852611680565b50600019019056fea164736f6c6343000813000a",
  "linkReferences": {},
  "deployedLinkReferences": {}
}