{
  "_format": "hh-sol-artifact-1",
  "contractName": "L1StakedTonInL2",
  "sourceName": "contracts/L2/L1StakedTonInL2.sol",
  "abi": [
    {
      "anonymous": false,
      "inputs": [
        {
          "indexed": true,
          "internalType": "bytes32",
          "name": "role",
          "type": "bytes32"
        },
        {
          "indexed": true,
          "internalType": "bytes32",
          "name": "previousAdminRole",
          "type": "bytes32"
        },
        {
          "indexed": true,
          "internalType": "bytes32",
          "name": "newAdminRole",
          "type": "bytes32"
        }
      ],
      "name": "RoleAdminChanged",
      "type": "event"
    },
    {
      "anonymous": false,
      "inputs": [
        {
          "indexed": true,
          "internalType": "bytes32",
          "name": "role",
          "type": "bytes32"
        },
        {
          "indexed": true,
          "internalType": "address",
          "name": "account",
          "type": "address"
        },
        {
          "indexed": true,
          "internalType": "address",
          "name": "sender",
          "type": "address"
        }
      ],
      "name": "RoleGranted",
      "type": "event"
    },
    {
      "anonymous": false,
      "inputs": [
        {
          "indexed": true,
          "internalType": "bytes32",
          "name": "role",
          "type": "bytes32"
        },
        {
          "indexed": true,
          "internalType": "address",
          "name": "account",
          "type": "address"
        },
        {
          "indexed": true,
          "internalType": "address",
          "name": "sender",
          "type": "address"
        }
      ],
      "name": "RoleRevoked",
      "type": "event"
    },
    {
      "inputs": [],
      "name": "DEFAULT_ADMIN_ROLE",
      "outputs": [
        {
          "internalType": "bytes32",
          "name": "",
          "type": "bytes32"
        }
      ],
      "stateMutability": "view",
      "type": "function"
    },
    {
      "inputs": [],
      "name": "MINTER_ROLE",
      "outputs": [
        {
          "internalType": "bytes32",
          "name": "",
          "type": "bytes32"
        }
      ],
      "stateMutability": "view",
      "type": "function"
    },
    {
      "inputs": [
        {
          "internalType": "address",
          "name": "account",
          "type": "address"
        }
      ],
      "name": "addAdmin",
      "outputs": [],
      "stateMutability": "nonpayable",
      "type": "function"
    },
    {
      "inputs": [
        {
          "internalType": "address",
          "name": "",
          "type": "address"
        }
      ],
      "name": "aliveImplementation",
      "outputs": [
        {
          "internalType": "bool",
          "name": "",
          "type": "bool"
        }
      ],
      "stateMutability": "view",
      "type": "function"
    },
    {
      "inputs": [
        {
          "internalType": "bytes",
          "name": "data",
          "type": "bytes"
        }
      ],
      "name": "decodeSyncPackets",
      "outputs": [
        {
          "components": [
            {
              "internalType": "address",
              "name": "layer",
              "type": "address"
            },
            {
              "internalType": "uint256",
              "name": "stakedAmount",
              "type": "uint256"
            }
          ],
          "internalType": "struct LibL1StakedInfo.L1StakedPacket[]",
          "name": "packets",
          "type": "tuple[]"
        }
      ],
      "stateMutability": "pure",
      "type": "function"
    },
    {
      "inputs": [
        {
          "internalType": "bytes32",
          "name": "role",
          "type": "bytes32"
        }
      ],
      "name": "getRoleAdmin",
      "outputs": [
        {
          "internalType": "bytes32",
          "name": "",
          "type": "bytes32"
        }
      ],
      "stateMutability": "view",
      "type": "function"
    },
    {
      "inputs": [
        {
          "internalType": "bytes32",
          "name": "role",
          "type": "bytes32"
        },
        {
          "internalType": "address",
          "name": "account",
          "type": "address"
        }
      ],
      "name": "grantRole",
      "outputs": [],
      "stateMutability": "nonpayable",
      "type": "function"
    },
    {
      "inputs": [
        {
          "internalType": "bytes32",
          "name": "role",
          "type": "bytes32"
        },
        {
          "internalType": "address",
          "name": "account",
          "type": "address"
        }
      ],
      "name": "hasRole",
      "outputs": [
        {
          "internalType": "bool",
          "name": "",
          "type": "bool"
        }
      ],
      "stateMutability": "view",
      "type": "function"
    },
    {
      "inputs": [
        {
          "internalType": "address",
          "name": "l2messanger_",
          "type": "address"
        },
        {
          "internalType": "address",
          "name": "l1Register_",
          "type": "address"
        },
        {
          "internalType": "address",
          "name": "l2SeigManager_",
          "type": "address"
        }
      ],
      "name": "initialize",
      "outputs": [],
      "stateMutability": "nonpayable",
      "type": "function"
    },
    {
      "inputs": [
        {
          "internalType": "address",
          "name": "account",
          "type": "address"
        }
      ],
      "name": "isAdmin",
      "outputs": [
        {
          "internalType": "bool",
          "name": "",
          "type": "bool"
        }
      ],
      "stateMutability": "view",
      "type": "function"
    },
    {
      "inputs": [],
      "name": "isOwner",
      "outputs": [
        {
          "internalType": "bool",
          "name": "",
          "type": "bool"
        }
      ],
      "stateMutability": "view",
      "type": "function"
    },
    {
      "inputs": [],
      "name": "l1Register",
      "outputs": [
        {
          "internalType": "address",
          "name": "",
          "type": "address"
        }
      ],
      "stateMutability": "view",
      "type": "function"
    },
    {
      "inputs": [],
      "name": "l2CrossDomainMessenger",
      "outputs": [
        {
          "internalType": "address",
          "name": "",
          "type": "address"
        }
      ],
      "stateMutability": "view",
      "type": "function"
    },
    {
      "inputs": [],
      "name": "l2SeigManager",
      "outputs": [
        {
          "internalType": "address",
          "name": "",
          "type": "address"
        }
      ],
      "stateMutability": "view",
      "type": "function"
    },
    {
      "inputs": [],
      "name": "pauseProxy",
      "outputs": [
        {
          "internalType": "bool",
          "name": "",
          "type": "bool"
        }
      ],
      "stateMutability": "view",
      "type": "function"
    },
    {
      "inputs": [
        {
          "internalType": "uint256",
          "name": "",
          "type": "uint256"
        }
      ],
      "name": "proxyImplementation",
      "outputs": [
        {
          "internalType": "address",
          "name": "",
          "type": "address"
        }
      ],
      "stateMutability": "view",
      "type": "function"
    },
    {
      "inputs": [
        {
          "internalType": "bytes",
          "name": "data",
          "type": "bytes"
        }
      ],
      "name": "register",
      "outputs": [],
      "stateMutability": "nonpayable",
      "type": "function"
    },
    {
      "inputs": [
        {
          "internalType": "address",
          "name": "account",
          "type": "address"
        }
      ],
      "name": "removeAdmin",
      "outputs": [],
      "stateMutability": "nonpayable",
      "type": "function"
    },
    {
      "inputs": [],
      "name": "renounceOwnership",
      "outputs": [],
      "stateMutability": "nonpayable",
      "type": "function"
    },
    {
      "inputs": [
        {
          "internalType": "bytes32",
          "name": "role",
          "type": "bytes32"
        },
        {
          "internalType": "address",
          "name": "account",
          "type": "address"
        }
      ],
      "name": "renounceRole",
      "outputs": [],
      "stateMutability": "nonpayable",
      "type": "function"
    },
    {
      "inputs": [
        {
          "internalType": "bytes32",
          "name": "role",
          "type": "bytes32"
        },
        {
          "internalType": "address",
          "name": "account",
          "type": "address"
        }
      ],
      "name": "revokeRole",
      "outputs": [],
      "stateMutability": "nonpayable",
      "type": "function"
    },
    {
      "inputs": [
        {
          "internalType": "bytes4",
          "name": "",
          "type": "bytes4"
        }
      ],
      "name": "selectorImplementation",
      "outputs": [
        {
          "internalType": "address",
          "name": "",
          "type": "address"
        }
      ],
      "stateMutability": "view",
      "type": "function"
    },
    {
      "inputs": [
        {
          "internalType": "address",
          "name": "l1Register_",
          "type": "address"
        }
      ],
      "name": "setL1Register",
      "outputs": [],
      "stateMutability": "nonpayable",
      "type": "function"
    },
    {
      "inputs": [
        {
          "internalType": "address",
          "name": "l2SeigManager_",
          "type": "address"
        }
      ],
      "name": "setL2SeigManager",
      "outputs": [],
      "stateMutability": "nonpayable",
      "type": "function"
    },
    {
      "inputs": [
        {
          "internalType": "bytes4",
          "name": "interfaceId",
          "type": "bytes4"
        }
      ],
      "name": "supportsInterface",
      "outputs": [
        {
          "internalType": "bool",
          "name": "",
          "type": "bool"
        }
      ],
      "stateMutability": "view",
      "type": "function"
    },
    {
      "inputs": [
        {
          "internalType": "address",
          "name": "newAdmin",
          "type": "address"
        }
      ],
      "name": "transferAdmin",
      "outputs": [],
      "stateMutability": "nonpayable",
      "type": "function"
    },
    {
      "inputs": [
        {
          "internalType": "address",
          "name": "newAdmin",
          "type": "address"
        }
      ],
      "name": "transferOwnership",
      "outputs": [],
      "stateMutability": "nonpayable",
      "type": "function"
    }
  ],
  "bytecode": "0x608060405234801561001057600080fd5b50611b41806100206000396000f3fe608060405234801561001057600080fd5b50600436106101b95760003560e01c8063715018a6116100f9578063c0c53b8b11610097578063d75bf0ce11610071578063d75bf0ce1461044b578063da6c82f01461045e578063f2fde38b14610471578063fbef005a1461048457600080fd5b8063c0c53b8b146103fe578063d539139314610411578063d547741f1461043857600080fd5b80638f32d59b116100d35780638f32d59b1461035d57806391d1485414610394578063a217fddf146103cd578063b911135f146103d557600080fd5b8063715018a61461032f57806375829def1461033757806382fbdc9c1461034a57600080fd5b80632f2ff15d1161016657806353cd4eac1161014057806353cd4eac146102d9578063550d01a3146102ec57806363a8fd891461030f578063704802751461031c57600080fd5b80632f2ff15d1461027257806336568abe1461028557806350d2a2761461029857600080fd5b806324d7806c1161019757806324d7806c1461022c5780632bd5a6a41461023f5780632c5703581461025257600080fd5b806301ffc9a7146101be5780631785f53c146101e6578063248a9ca3146101fb575b600080fd5b6101d16101cc3660046116b5565b610497565b60405190151581526020015b60405180910390f35b6101f96101f43660046116f4565b6104a8565b005b61021e610209366004611711565b60009081526005602052604090206001015490565b6040519081526020016101dd565b6101d161023a3660046116f4565b610509565b6101f961024d3660046116f4565b610549565b610265610260366004611740565b6105ff565b6040516101dd9190611840565b6101f9610280366004611853565b610770565b6101f9610293366004611853565b61079a565b6102c16102a63660046116b5565b6003602052600090815260409020546001600160a01b031681565b6040516001600160a01b0390911681526020016101dd565b6006546102c1906001600160a01b031681565b6101d16102fa3660046116f4565b60026020526000908152604090205460ff1681565b6000546101d19060ff1681565b6101f961032a3660046116f4565b610826565b6101f961087f565b6101f96103453660046116f4565b6108da565b6101f9610358366004611740565b6109ec565b3360009081527f05b8ccbb9d4d8fb16ea74ce3c29a41f1b461fbdaff4714a0d9a8eb05499746bc602052604090205460ff166101d1565b6101d16103a2366004611853565b60009182526005602090815260408084206001600160a01b0393909316845291905290205460ff1690565b61021e600081565b6102c16103e3366004611711565b6001602052600090815260409020546001600160a01b031681565b6101f961040c366004611883565b610cf8565b61021e7ff0887ba65ee2024ea881d91b74c2450ef19e1557f03bed3ea9f16b037cbe2dc981565b6101f9610446366004611853565b610d85565b6008546102c1906001600160a01b031681565b6101f961046c3660046116f4565b610daa565b6101f961047f3660046116f4565b610e60565b6007546102c1906001600160a01b031681565b60006104a282610eb7565b92915050565b6104b133610509565b6104fb5760405162461bcd60e51b81526020600482015260226024820152600080516020611b1583398151915260448201526134b760f11b60648201526084015b60405180910390fd5b61050660008261079a565b50565b6001600160a01b03811660009081527f05b8ccbb9d4d8fb16ea74ce3c29a41f1b461fbdaff4714a0d9a8eb05499746bc602052604081205460ff166104a2565b61055233610509565b6105975760405162461bcd60e51b81526020600482015260226024820152600080516020611b1583398151915260448201526134b760f11b60648201526084016104f2565b6008546001600160a01b038083169116036105dd5760405162461bcd60e51b81526004016104f29060208082526004908201526373616d6560e01b604082015260600190565b600880546001600160a01b0319166001600160a01b0392909216919091179055565b6060600060349050600081845161061691906118e4565b90508067ffffffffffffffff8111156106315761063161172a565b60405190808252806020026020018201604052801561067657816020015b604080518082019091526000808252602082015281526020019060019003908161064f5790505b50925060005b8181101561076857600061069b6106938584611906565b879086610edc565b905060405180604001604052806106bc60008461103f90919063ffffffff16565b6001600160a01b031681526020016106d583601461110f565b8152508583815181106106ea576106ea61191d565b6020026020010181905250610755826040518060400160405280600281526020016101d160f51b8152508785815181106107265761072661191d565b6020026020010151600001518886815181106107445761074461191d565b6020026020010151602001516111cf565b508061076081611933565b91505061067c565b505050919050565b60008281526005602052604090206001015461078b8161121e565b6107958383611228565b505050565b6001600160a01b03811633146108185760405162461bcd60e51b815260206004820152602f60248201527f416363657373436f6e74726f6c3a2063616e206f6e6c792072656e6f756e636560448201527f20726f6c657320666f722073656c66000000000000000000000000000000000060648201526084016104f2565b61082282826112ca565b5050565b61082f33610509565b6108745760405162461bcd60e51b81526020600482015260226024820152600080516020611b1583398151915260448201526134b760f11b60648201526084016104f2565b610506600082610770565b61088833610509565b6108cd5760405162461bcd60e51b81526020600482015260226024820152600080516020611b1583398151915260448201526134b760f11b60648201526084016104f2565b6108d860003361079a565b565b6108e333610509565b6109285760405162461bcd60e51b81526020600482015260226024820152600080516020611b1583398151915260448201526134b760f11b60648201526084016104f2565b6001600160a01b03811661097e5760405162461bcd60e51b815260206004820152601860248201527f41636365737369626c653a207a65726f2061646472657373000000000000000060448201526064016104f2565b6001600160a01b03811633036109d65760405162461bcd60e51b815260206004820152601660248201527f41636365737369626c653a2073616d652061646d696e0000000000000000000060448201526064016104f2565b6109e1600082610770565b61050660003361079a565b6007546001600160a01b031633148015610a81575060085460075460408051636e296e4560e01b815290516001600160a01b039384169390921691636e296e45916004808201926020929091908290030181865afa158015610a52573d6000803e3d6000fd5b505050506040513d601f19601f82011682018060405250810190610a76919061194c565b6001600160a01b0316145b610acd5760405162461bcd60e51b815260206004820152601e60248201527f6e6f74206f6e6c794d657373656e676572416e644c315265676973746572000060448201526064016104f2565b610b0b6040518060400160405280600c81526020017f726567697374657220696e20000000000000000000000000000000000000000081525061134d565b610b1481611390565b6047815111610b655760405162461bcd60e51b815260206004820152601260248201527f77726f6e67206279746573206c656e677468000000000000000000000000000060448201526064016104f2565b6000610b71828261103f565b9050610bb26040518060400160405280601181526020017f7265676973746572207573657220257320000000000000000000000000000000815250826113d3565b81516034906004906000908390610bcb90601490611969565b610bd591906118e4565b90506000610be383836118e4565b905081610bf08483611906565b1015610c045780610c0081611933565b9150505b60005b81811015610cef57600081610c1c8688611906565b610c269190611906565b610c3190601461197c565b90506000610c3f8688611906565b8951909150610c4e828461197c565b1115610c6457818951610c619190611969565b90505b6000610c746102608b8585610edc565b6006546040516303dffced60e51b81529192506001600160a01b031690637bff9da090610ca7908c90859060040161198f565b600060405180830381600087803b158015610cc157600080fd5b505af1158015610cd5573d6000803e3d6000fd5b505050505050508080610ce790611933565b915050610c07565b50505050505050565b610d0133610509565b610d465760405162461bcd60e51b81526020600482015260226024820152600080516020611b1583398151915260448201526134b760f11b60648201526084016104f2565b600780546001600160a01b039485166001600160a01b031991821617909155600880549385169382169390931790925560068054919093169116179055565b600082815260056020526040902060010154610da08161121e565b61079583836112ca565b610db333610509565b610df85760405162461bcd60e51b81526020600482015260226024820152600080516020611b1583398151915260448201526134b760f11b60648201526084016104f2565b6006546001600160a01b03808316911603610e3e5760405162461bcd60e51b81526004016104f29060208082526004908201526373616d6560e01b604082015260600190565b600680546001600160a01b0319166001600160a01b0392909216919091179055565b610e6933610509565b610eae5760405162461bcd60e51b81526020600482015260226024820152600080516020611b1583398151915260448201526134b760f11b60648201526084016104f2565b610506816108da565b60006001600160e01b03198216637965db0b60e01b14806104a257506104a282611418565b606081610eea81601f61197c565b1015610f295760405162461bcd60e51b815260206004820152600e60248201526d736c6963655f6f766572666c6f7760901b60448201526064016104f2565b82610f34838261197c565b1015610f735760405162461bcd60e51b815260206004820152600e60248201526d736c6963655f6f766572666c6f7760901b60448201526064016104f2565b610f7d828461197c565b84511015610fcd5760405162461bcd60e51b815260206004820152601160248201527f736c6963655f6f75744f66426f756e647300000000000000000000000000000060448201526064016104f2565b606082158015610fec5760405191506000825260208201604052611036565b6040519150601f8416801560200281840101858101878315602002848b0101015b8183101561102557805183526020928301920161100d565b5050858452601f01601f1916604052505b50949350505050565b60008161104d81601461197c565b101561109b5760405162461bcd60e51b815260206004820152601260248201527f746f416464726573735f6f766572666c6f77000000000000000000000000000060448201526064016104f2565b6110a682601461197c565b835110156110f65760405162461bcd60e51b815260206004820152601560248201527f746f416464726573735f6f75744f66426f756e6473000000000000000000000060448201526064016104f2565b5001602001516c01000000000000000000000000900490565b60008161111d81602061197c565b101561116b5760405162461bcd60e51b815260206004820152601260248201527f746f55696e743235365f6f766572666c6f77000000000000000000000000000060448201526064016104f2565b61117682602061197c565b835110156111c65760405162461bcd60e51b815260206004820152601560248201527f746f55696e743235365f6f75744f66426f756e6473000000000000000000000060448201526064016104f2565b50016020015190565b611218848484846040516024016111e99493929190611a09565b60408051601f198184030181529190526020810180516001600160e01b031663e8d3018d60e01b179052611454565b50505050565b610506813361145d565b60008281526005602090815260408083206001600160a01b038516845290915290205460ff166108225760008281526005602090815260408083206001600160a01b03851684529091529020805460ff191660011790556112863390565b6001600160a01b0316816001600160a01b0316837f2f8788117e7eff1d82e926ec794901d17c78024a50270940304540a733656f0d60405160405180910390a45050565b60008281526005602090815260408083206001600160a01b038516845290915290205460ff16156108225760008281526005602090815260408083206001600160a01b0385168085529252808320805460ff1916905551339285917ff6391f5c32d9c69d2a47ea670b442974b53935d1edc7fd64eb21e047a839171b9190a45050565b610506816040516024016113619190611a3e565b60408051601f198184030181529190526020810180516001600160e01b031663104c13eb60e21b179052611454565b610506816040516024016113a49190611a3e565b60408051601f198184030181529190526020810180516001600160e01b03166305f3bfab60e11b179052611454565b61082282826040516024016113e9929190611a51565b60408051601f198184030181529190526020810180516001600160e01b031663319af33360e01b179052611454565b60006301ffc9a760e01b6001600160e01b0319831614806104a25750506001600160e01b03191660009081526004602052604090205460ff1690565b610506816114d2565b60008281526005602090815260408083206001600160a01b038516845290915290205460ff1661082257611490816114f3565b61149b836020611505565b6040516020016114ac929190611a7c565b60408051601f198184030181529082905262461bcd60e51b82526104f291600401611a3e565b60006a636f6e736f6c652e6c6f679050600080835160208501845afa505050565b60606104a26001600160a01b03831660145b60606000611514836002611906565b61151f90600261197c565b67ffffffffffffffff8111156115375761153761172a565b6040519080825280601f01601f191660200182016040528015611561576020820181803683370190505b509050600360fc1b8160008151811061157c5761157c61191d565b60200101906001600160f81b031916908160001a905350600f60fb1b816001815181106115ab576115ab61191d565b60200101906001600160f81b031916908160001a90535060006115cf846002611906565b6115da90600161197c565b90505b600181111561165f577f303132333435363738396162636465660000000000000000000000000000000085600f166010811061161b5761161b61191d565b1a60f81b8282815181106116315761163161191d565b60200101906001600160f81b031916908160001a90535060049490941c9361165881611afd565b90506115dd565b5083156116ae5760405162461bcd60e51b815260206004820181905260248201527f537472696e67733a20686578206c656e67746820696e73756666696369656e7460448201526064016104f2565b9392505050565b6000602082840312156116c757600080fd5b81356001600160e01b0319811681146116ae57600080fd5b6001600160a01b038116811461050657600080fd5b60006020828403121561170657600080fd5b81356116ae816116df565b60006020828403121561172357600080fd5b5035919050565b634e487b7160e01b600052604160045260246000fd5b60006020828403121561175257600080fd5b813567ffffffffffffffff8082111561176a57600080fd5b818401915084601f83011261177e57600080fd5b8135818111156117905761179061172a565b604051601f8201601f19908116603f011681019083821181831017156117b8576117b861172a565b816040528281528760208487010111156117d157600080fd5b826020860160208301376000928101602001929092525095945050505050565b600081518084526020808501945080840160005b8381101561183557815180516001600160a01b031688528301518388015260409096019590820190600101611805565b509495945050505050565b6020815260006116ae60208301846117f1565b6000806040838503121561186657600080fd5b823591506020830135611878816116df565b809150509250929050565b60008060006060848603121561189857600080fd5b83356118a3816116df565b925060208401356118b3816116df565b915060408401356118c3816116df565b809150509250925092565b634e487b7160e01b600052601160045260246000fd5b60008261190157634e487b7160e01b600052601260045260246000fd5b500490565b80820281158282048414176104a2576104a26118ce565b634e487b7160e01b600052603260045260246000fd5b600060018201611945576119456118ce565b5060010190565b60006020828403121561195e57600080fd5b81516116ae816116df565b818103818111156104a2576104a26118ce565b808201808211156104a2576104a26118ce565b6001600160a01b03831681526040602082015260006119b160408301846117f1565b949350505050565b60005b838110156119d45781810151838201526020016119bc565b50506000910152565b600081518084526119f58160208601602086016119b9565b601f01601f19169290920160200192915050565b848152608060208201526000611a2260808301866119dd565b6001600160a01b03949094166040830152506060015292915050565b6020815260006116ae60208301846119dd565b604081526000611a6460408301856119dd565b90506001600160a01b03831660208301529392505050565b7f416363657373436f6e74726f6c3a206163636f756e7420000000000000000000815260008351611ab48160178501602088016119b9565b7f206973206d697373696e6720726f6c65200000000000000000000000000000006017918401918201528351611af18160288401602088016119b9565b01602801949350505050565b600081611b0c57611b0c6118ce565b50600019019056fe41636365737369626c653a2043616c6c6572206973206e6f7420616e2061646da164736f6c6343000813000a",
  "linkReferences": {},
  "deployedLinkReferences": {}
}