{
  "_format": "hh-sol-artifact-1",
  "contractName": "L1StakedTonInL2",
  "sourceName": "contracts/L2/L1StakedTonInL2.sol",
  "abi": [
    {
      "anonymous": false,
      "inputs": [
        {
          "indexed": true,
          "internalType": "bytes32",
          "name": "role",
          "type": "bytes32"
        },
        {
          "indexed": true,
          "internalType": "bytes32",
          "name": "previousAdminRole",
          "type": "bytes32"
        },
        {
          "indexed": true,
          "internalType": "bytes32",
          "name": "newAdminRole",
          "type": "bytes32"
        }
      ],
      "name": "RoleAdminChanged",
      "type": "event"
    },
    {
      "anonymous": false,
      "inputs": [
        {
          "indexed": true,
          "internalType": "bytes32",
          "name": "role",
          "type": "bytes32"
        },
        {
          "indexed": true,
          "internalType": "address",
          "name": "account",
          "type": "address"
        },
        {
          "indexed": true,
          "internalType": "address",
          "name": "sender",
          "type": "address"
        }
      ],
      "name": "RoleGranted",
      "type": "event"
    },
    {
      "anonymous": false,
      "inputs": [
        {
          "indexed": true,
          "internalType": "bytes32",
          "name": "role",
          "type": "bytes32"
        },
        {
          "indexed": true,
          "internalType": "address",
          "name": "account",
          "type": "address"
        },
        {
          "indexed": true,
          "internalType": "address",
          "name": "sender",
          "type": "address"
        }
      ],
      "name": "RoleRevoked",
      "type": "event"
    },
    {
      "inputs": [],
      "name": "DEFAULT_ADMIN_ROLE",
      "outputs": [
        {
          "internalType": "bytes32",
          "name": "",
          "type": "bytes32"
        }
      ],
      "stateMutability": "view",
      "type": "function"
    },
    {
      "inputs": [],
      "name": "MINTER_ROLE",
      "outputs": [
        {
          "internalType": "bytes32",
          "name": "",
          "type": "bytes32"
        }
      ],
      "stateMutability": "view",
      "type": "function"
    },
    {
      "inputs": [
        {
          "internalType": "address",
          "name": "account",
          "type": "address"
        }
      ],
      "name": "addAdmin",
      "outputs": [],
      "stateMutability": "nonpayable",
      "type": "function"
    },
    {
      "inputs": [
        {
          "internalType": "address",
          "name": "",
          "type": "address"
        }
      ],
      "name": "aliveImplementation",
      "outputs": [
        {
          "internalType": "bool",
          "name": "",
          "type": "bool"
        }
      ],
      "stateMutability": "view",
      "type": "function"
    },
    {
      "inputs": [
        {
          "internalType": "bytes",
          "name": "data",
          "type": "bytes"
        }
      ],
      "name": "decodeSyncPackets",
      "outputs": [
        {
          "components": [
            {
              "internalType": "address",
              "name": "layer",
              "type": "address"
            },
            {
              "internalType": "uint256",
              "name": "stakedAmount",
              "type": "uint256"
            }
          ],
          "internalType": "struct LibL1StakedInfo.L1StakedPacket[]",
          "name": "packets",
          "type": "tuple[]"
        }
      ],
      "stateMutability": "pure",
      "type": "function"
    },
    {
      "inputs": [
        {
          "internalType": "address",
          "name": "layer2",
          "type": "address"
        },
        {
          "internalType": "address",
          "name": "account",
          "type": "address"
        },
        {
          "internalType": "uint256",
          "name": "swtonAmount",
          "type": "uint256"
        }
      ],
      "name": "deposit",
      "outputs": [],
      "stateMutability": "nonpayable",
      "type": "function"
    },
    {
      "inputs": [
        {
          "internalType": "bytes32",
          "name": "role",
          "type": "bytes32"
        }
      ],
      "name": "getRoleAdmin",
      "outputs": [
        {
          "internalType": "bytes32",
          "name": "",
          "type": "bytes32"
        }
      ],
      "stateMutability": "view",
      "type": "function"
    },
    {
      "inputs": [
        {
          "internalType": "bytes32",
          "name": "role",
          "type": "bytes32"
        },
        {
          "internalType": "address",
          "name": "account",
          "type": "address"
        }
      ],
      "name": "grantRole",
      "outputs": [],
      "stateMutability": "nonpayable",
      "type": "function"
    },
    {
      "inputs": [
        {
          "internalType": "bytes32",
          "name": "role",
          "type": "bytes32"
        },
        {
          "internalType": "address",
          "name": "account",
          "type": "address"
        }
      ],
      "name": "hasRole",
      "outputs": [
        {
          "internalType": "bool",
          "name": "",
          "type": "bool"
        }
      ],
      "stateMutability": "view",
      "type": "function"
    },
    {
      "inputs": [
        {
          "internalType": "address",
          "name": "l2messanger_",
          "type": "address"
        },
        {
          "internalType": "address",
          "name": "l1Register_",
          "type": "address"
        },
        {
          "internalType": "address",
          "name": "l2SeigManager_",
          "type": "address"
        }
      ],
      "name": "initialize",
      "outputs": [],
      "stateMutability": "nonpayable",
      "type": "function"
    },
    {
      "inputs": [
        {
          "internalType": "address",
          "name": "account",
          "type": "address"
        }
      ],
      "name": "isAdmin",
      "outputs": [
        {
          "internalType": "bool",
          "name": "",
          "type": "bool"
        }
      ],
      "stateMutability": "view",
      "type": "function"
    },
    {
      "inputs": [],
      "name": "isOwner",
      "outputs": [
        {
          "internalType": "bool",
          "name": "",
          "type": "bool"
        }
      ],
      "stateMutability": "view",
      "type": "function"
    },
    {
      "inputs": [],
      "name": "l1Register",
      "outputs": [
        {
          "internalType": "address",
          "name": "",
          "type": "address"
        }
      ],
      "stateMutability": "view",
      "type": "function"
    },
    {
      "inputs": [],
      "name": "l2CrossDomainMessenger",
      "outputs": [
        {
          "internalType": "address",
          "name": "",
          "type": "address"
        }
      ],
      "stateMutability": "view",
      "type": "function"
    },
    {
      "inputs": [],
      "name": "l2SeigManager",
      "outputs": [
        {
          "internalType": "address",
          "name": "",
          "type": "address"
        }
      ],
      "stateMutability": "view",
      "type": "function"
    },
    {
      "inputs": [],
      "name": "pauseProxy",
      "outputs": [
        {
          "internalType": "bool",
          "name": "",
          "type": "bool"
        }
      ],
      "stateMutability": "view",
      "type": "function"
    },
    {
      "inputs": [
        {
          "internalType": "uint256",
          "name": "",
          "type": "uint256"
        }
      ],
      "name": "proxyImplementation",
      "outputs": [
        {
          "internalType": "address",
          "name": "",
          "type": "address"
        }
      ],
      "stateMutability": "view",
      "type": "function"
    },
    {
      "inputs": [
        {
          "internalType": "address",
          "name": "layer2",
          "type": "address"
        },
        {
          "internalType": "uint256",
          "name": "sharePerRay",
          "type": "uint256"
        }
      ],
      "name": "rebaseIndex",
      "outputs": [],
      "stateMutability": "nonpayable",
      "type": "function"
    },
    {
      "inputs": [
        {
          "internalType": "bytes",
          "name": "data",
          "type": "bytes"
        }
      ],
      "name": "register",
      "outputs": [],
      "stateMutability": "nonpayable",
      "type": "function"
    },
    {
      "inputs": [
        {
          "internalType": "address",
          "name": "account",
          "type": "address"
        }
      ],
      "name": "removeAdmin",
      "outputs": [],
      "stateMutability": "nonpayable",
      "type": "function"
    },
    {
      "inputs": [],
      "name": "renounceOwnership",
      "outputs": [],
      "stateMutability": "nonpayable",
      "type": "function"
    },
    {
      "inputs": [
        {
          "internalType": "bytes32",
          "name": "role",
          "type": "bytes32"
        },
        {
          "internalType": "address",
          "name": "account",
          "type": "address"
        }
      ],
      "name": "renounceRole",
      "outputs": [],
      "stateMutability": "nonpayable",
      "type": "function"
    },
    {
      "inputs": [
        {
          "internalType": "bytes32",
          "name": "role",
          "type": "bytes32"
        },
        {
          "internalType": "address",
          "name": "account",
          "type": "address"
        }
      ],
      "name": "revokeRole",
      "outputs": [],
      "stateMutability": "nonpayable",
      "type": "function"
    },
    {
      "inputs": [
        {
          "internalType": "bytes4",
          "name": "",
          "type": "bytes4"
        }
      ],
      "name": "selectorImplementation",
      "outputs": [
        {
          "internalType": "address",
          "name": "",
          "type": "address"
        }
      ],
      "stateMutability": "view",
      "type": "function"
    },
    {
      "inputs": [
        {
          "internalType": "address",
          "name": "l1Register_",
          "type": "address"
        }
      ],
      "name": "setL1Register",
      "outputs": [],
      "stateMutability": "nonpayable",
      "type": "function"
    },
    {
      "inputs": [
        {
          "internalType": "address",
          "name": "l2SeigManager_",
          "type": "address"
        }
      ],
      "name": "setL2SeigManager",
      "outputs": [],
      "stateMutability": "nonpayable",
      "type": "function"
    },
    {
      "inputs": [
        {
          "internalType": "bytes4",
          "name": "interfaceId",
          "type": "bytes4"
        }
      ],
      "name": "supportsInterface",
      "outputs": [
        {
          "internalType": "bool",
          "name": "",
          "type": "bool"
        }
      ],
      "stateMutability": "view",
      "type": "function"
    },
    {
      "inputs": [
        {
          "internalType": "address",
          "name": "newAdmin",
          "type": "address"
        }
      ],
      "name": "transferAdmin",
      "outputs": [],
      "stateMutability": "nonpayable",
      "type": "function"
    },
    {
      "inputs": [
        {
          "internalType": "address",
          "name": "newAdmin",
          "type": "address"
        }
      ],
      "name": "transferOwnership",
      "outputs": [],
      "stateMutability": "nonpayable",
      "type": "function"
    },
    {
      "inputs": [
        {
          "internalType": "address",
          "name": "layer2",
          "type": "address"
        },
        {
          "internalType": "address",
          "name": "account",
          "type": "address"
        },
        {
          "internalType": "uint256",
          "name": "swtonAmount",
          "type": "uint256"
        }
      ],
      "name": "withdraw",
      "outputs": [],
      "stateMutability": "nonpayable",
      "type": "function"
    }
  ],
  "bytecode": "0x608060405234801561001057600080fd5b50611acb806100206000396000f3fe608060405234801561001057600080fd5b50600436106101da5760003560e01c806375829def11610104578063c0c53b8b116100a2578063d9caed1211610071578063d9caed12146104a5578063da6c82f0146104b8578063f2fde38b146104cb578063fbef005a146104de57600080fd5b8063c0c53b8b14610445578063d539139314610458578063d547741f1461047f578063d75bf0ce1461049257600080fd5b80638f32d59b116100de5780638f32d59b146103a457806391d14854146103db578063a217fddf14610414578063b911135f1461041c57600080fd5b806375829def1461036b57806382fbdc9c1461037e5780638340f5491461039157600080fd5b806335c49c491161017c578063550d01a31161014b578063550d01a31461032057806363a8fd89146103435780637048027514610350578063715018a61461036357600080fd5b806335c49c49146102a657806336568abe146102b957806350d2a276146102cc57806353cd4eac1461030d57600080fd5b806324d7806c116101b857806324d7806c1461024d5780632bd5a6a4146102605780632c570358146102735780632f2ff15d1461029357600080fd5b806301ffc9a7146101df5780631785f53c14610207578063248a9ca31461021c575b600080fd5b6101f26101ed36600461163b565b6104f1565b60405190151581526020015b60405180910390f35b61021a610215366004611681565b610502565b005b61023f61022a36600461169c565b60009081526005602052604090206001015490565b6040519081526020016101fe565b6101f261025b366004611681565b610563565b61021a61026e366004611681565b6105a3565b6102866102813660046116cb565b610659565b6040516101fe91906117cb565b61021a6102a13660046117de565b61076b565b61021a6102b436600461180a565b610795565b61021a6102c73660046117de565b61080c565b6102f56102da36600461163b565b6003602052600090815260409020546001600160a01b031681565b6040516001600160a01b0390911681526020016101fe565b6006546102f5906001600160a01b031681565b6101f261032e366004611681565b60026020526000908152604090205460ff1681565b6000546101f29060ff1681565b61021a61035e366004611681565b610898565b61021a6108f1565b61021a610379366004611681565b61094c565b61021a61038c3660046116cb565b610a5e565b61021a61039f366004611834565b610c4b565b3360009081527f05b8ccbb9d4d8fb16ea74ce3c29a41f1b461fbdaff4714a0d9a8eb05499746bc602052604090205460ff166101f2565b6101f26103e93660046117de565b60009182526005602090815260408084206001600160a01b0393909316845291905290205460ff1690565b61023f600081565b6102f561042a36600461169c565b6001602052600090815260409020546001600160a01b031681565b61021a610453366004611870565b610cd1565b61023f7ff0887ba65ee2024ea881d91b74c2450ef19e1557f03bed3ea9f16b037cbe2dc981565b61021a61048d3660046117de565b610d5e565b6008546102f5906001600160a01b031681565b61021a6104b3366004611834565b610d83565b61021a6104c6366004611681565b610dc4565b61021a6104d9366004611681565b610e7a565b6007546102f5906001600160a01b031681565b60006104fc82610ed1565b92915050565b61050b33610563565b6105555760405162461bcd60e51b81526020600482015260226024820152600080516020611a9f83398151915260448201526134b760f11b60648201526084015b60405180910390fd5b61056060008261080c565b50565b6001600160a01b03811660009081527f05b8ccbb9d4d8fb16ea74ce3c29a41f1b461fbdaff4714a0d9a8eb05499746bc602052604081205460ff166104fc565b6105ac33610563565b6105f15760405162461bcd60e51b81526020600482015260226024820152600080516020611a9f83398151915260448201526134b760f11b606482015260840161054c565b6008546001600160a01b038083169116036106375760405162461bcd60e51b815260040161054c9060208082526004908201526373616d6560e01b604082015260600190565b600880546001600160a01b0319166001600160a01b0392909216919091179055565b6060600060349050600081845161067091906118c9565b90508067ffffffffffffffff81111561068b5761068b6116b5565b6040519080825280602002602001820160405280156106d057816020015b60408051808201909152600080825260208201528152602001906001900390816106a95790505b50925060005b818110156107635760006106f56106ed85846118eb565b879086610ef6565b9050604051806040016040528061071660008461105990919063ffffffff16565b6001600160a01b0316815260200161072f836014611129565b81525085838151811061074457610744611902565b602002602001018190525050808061075b90611918565b9150506106d6565b505050919050565b600082815260056020526040902060010154610786816111e9565b61079083836111f3565b505050565b6006546040516335c49c4960e01b81526001600160a01b03848116600483015260248201849052909116906335c49c49906044016020604051808303816000875af11580156107e8573d6000803e3d6000fd5b505050506040513d601f19601f820116820180604052508101906107909190611931565b6001600160a01b038116331461088a5760405162461bcd60e51b815260206004820152602f60248201527f416363657373436f6e74726f6c3a2063616e206f6e6c792072656e6f756e636560448201527f20726f6c657320666f722073656c660000000000000000000000000000000000606482015260840161054c565b6108948282611295565b5050565b6108a133610563565b6108e65760405162461bcd60e51b81526020600482015260226024820152600080516020611a9f83398151915260448201526134b760f11b606482015260840161054c565b61056060008261076b565b6108fa33610563565b61093f5760405162461bcd60e51b81526020600482015260226024820152600080516020611a9f83398151915260448201526134b760f11b606482015260840161054c565b61094a60003361080c565b565b61095533610563565b61099a5760405162461bcd60e51b81526020600482015260226024820152600080516020611a9f83398151915260448201526134b760f11b606482015260840161054c565b6001600160a01b0381166109f05760405162461bcd60e51b815260206004820152601860248201527f41636365737369626c653a207a65726f20616464726573730000000000000000604482015260640161054c565b6001600160a01b0381163303610a485760405162461bcd60e51b815260206004820152601660248201527f41636365737369626c653a2073616d652061646d696e00000000000000000000604482015260640161054c565b610a5360008261076b565b61056060003361080c565b610a9c6040518060400160405280600c81526020017f726567697374657220696e200000000000000000000000000000000000000000815250611318565b610aa58161135b565b6047815111610af65760405162461bcd60e51b815260206004820152601260248201527f77726f6e67206279746573206c656e6774680000000000000000000000000000604482015260640161054c565b6000610b028282611059565b8251909150603490600a906000908390610b1e90601490611953565b610b2891906118c9565b90506000610b3683836118c9565b905081610b4384836118eb565b1015610b575780610b5381611918565b9150505b60005b81811015610c4257600081610b6f86886118eb565b610b7991906118eb565b610b84906014611966565b90506000610b9286886118eb565b8951909150610ba18284611966565b1115610bb757818951610bb49190611953565b90505b6000610bc76102818b8585610ef6565b6006546040516303dffced60e51b81529192506001600160a01b031690637bff9da090610bfa908c908590600401611979565b600060405180830381600087803b158015610c1457600080fd5b505af1158015610c28573d6000803e3d6000fd5b505050505050508080610c3a90611918565b915050610b5a565b50505050505050565b600654604051638340f54960e01b81526001600160a01b03858116600483015284811660248301526044820184905290911690638340f549906064015b6020604051808303816000875af1158015610ca7573d6000803e3d6000fd5b505050506040513d601f19601f82011682018060405250810190610ccb9190611931565b50505050565b610cda33610563565b610d1f5760405162461bcd60e51b81526020600482015260226024820152600080516020611a9f83398151915260448201526134b760f11b606482015260840161054c565b600780546001600160a01b039485166001600160a01b031991821617909155600880549385169382169390931790925560068054919093169116179055565b600082815260056020526040902060010154610d79816111e9565b6107908383611295565b600654604051636ce5768960e11b81526001600160a01b0385811660048301528481166024830152604482018490529091169063d9caed1290606401610c88565b610dcd33610563565b610e125760405162461bcd60e51b81526020600482015260226024820152600080516020611a9f83398151915260448201526134b760f11b606482015260840161054c565b6006546001600160a01b03808316911603610e585760405162461bcd60e51b815260040161054c9060208082526004908201526373616d6560e01b604082015260600190565b600680546001600160a01b0319166001600160a01b0392909216919091179055565b610e8333610563565b610ec85760405162461bcd60e51b81526020600482015260226024820152600080516020611a9f83398151915260448201526134b760f11b606482015260840161054c565b6105608161094c565b60006001600160e01b03198216637965db0b60e01b14806104fc57506104fc8261139e565b606081610f0481601f611966565b1015610f435760405162461bcd60e51b815260206004820152600e60248201526d736c6963655f6f766572666c6f7760901b604482015260640161054c565b82610f4e8382611966565b1015610f8d5760405162461bcd60e51b815260206004820152600e60248201526d736c6963655f6f766572666c6f7760901b604482015260640161054c565b610f978284611966565b84511015610fe75760405162461bcd60e51b815260206004820152601160248201527f736c6963655f6f75744f66426f756e6473000000000000000000000000000000604482015260640161054c565b6060821580156110065760405191506000825260208201604052611050565b6040519150601f8416801560200281840101858101878315602002848b0101015b8183101561103f578051835260209283019201611027565b5050858452601f01601f1916604052505b50949350505050565b600081611067816014611966565b10156110b55760405162461bcd60e51b815260206004820152601260248201527f746f416464726573735f6f766572666c6f770000000000000000000000000000604482015260640161054c565b6110c0826014611966565b835110156111105760405162461bcd60e51b815260206004820152601560248201527f746f416464726573735f6f75744f66426f756e64730000000000000000000000604482015260640161054c565b5001602001516c01000000000000000000000000900490565b600081611137816020611966565b10156111855760405162461bcd60e51b815260206004820152601260248201527f746f55696e743235365f6f766572666c6f770000000000000000000000000000604482015260640161054c565b611190826020611966565b835110156111e05760405162461bcd60e51b815260206004820152601560248201527f746f55696e743235365f6f75744f66426f756e64730000000000000000000000604482015260640161054c565b50016020015190565b61056081336113da565b60008281526005602090815260408083206001600160a01b038516845290915290205460ff166108945760008281526005602090815260408083206001600160a01b03851684529091529020805460ff191660011790556112513390565b6001600160a01b0316816001600160a01b0316837f2f8788117e7eff1d82e926ec794901d17c78024a50270940304540a733656f0d60405160405180910390a45050565b60008281526005602090815260408083206001600160a01b038516845290915290205460ff16156108945760008281526005602090815260408083206001600160a01b0385168085529252808320805460ff1916905551339285917ff6391f5c32d9c69d2a47ea670b442974b53935d1edc7fd64eb21e047a839171b9190a45050565b6105608160405160240161132c91906119f3565b60408051601f198184030181529190526020810180516001600160e01b031663104c13eb60e21b17905261144f565b6105608160405160240161136f91906119f3565b60408051601f198184030181529190526020810180516001600160e01b03166305f3bfab60e11b17905261144f565b60006301ffc9a760e01b6001600160e01b0319831614806104fc5750506001600160e01b03191660009081526004602052604090205460ff1690565b60008281526005602090815260408083206001600160a01b038516845290915290205460ff166108945761140d81611458565b61141883602061146a565b604051602001611429929190611a06565b60408051601f198184030181529082905262461bcd60e51b825261054c916004016119f3565b6105608161161a565b60606104fc6001600160a01b03831660145b606060006114798360026118eb565b611484906002611966565b67ffffffffffffffff81111561149c5761149c6116b5565b6040519080825280601f01601f1916602001820160405280156114c6576020820181803683370190505b509050600360fc1b816000815181106114e1576114e1611902565b60200101906001600160f81b031916908160001a905350600f60fb1b8160018151811061151057611510611902565b60200101906001600160f81b031916908160001a90535060006115348460026118eb565b61153f906001611966565b90505b60018111156115c4577f303132333435363738396162636465660000000000000000000000000000000085600f166010811061158057611580611902565b1a60f81b82828151811061159657611596611902565b60200101906001600160f81b031916908160001a90535060049490941c936115bd81611a87565b9050611542565b5083156116135760405162461bcd60e51b815260206004820181905260248201527f537472696e67733a20686578206c656e67746820696e73756666696369656e74604482015260640161054c565b9392505050565b60006a636f6e736f6c652e6c6f679050600080835160208501845afa505050565b60006020828403121561164d57600080fd5b81356001600160e01b03198116811461161357600080fd5b80356001600160a01b038116811461167c57600080fd5b919050565b60006020828403121561169357600080fd5b61161382611665565b6000602082840312156116ae57600080fd5b5035919050565b634e487b7160e01b600052604160045260246000fd5b6000602082840312156116dd57600080fd5b813567ffffffffffffffff808211156116f557600080fd5b818401915084601f83011261170957600080fd5b81358181111561171b5761171b6116b5565b604051601f8201601f19908116603f01168101908382118183101715611743576117436116b5565b8160405282815287602084870101111561175c57600080fd5b826020860160208301376000928101602001929092525095945050505050565b600081518084526020808501945080840160005b838110156117c057815180516001600160a01b031688528301518388015260409096019590820190600101611790565b509495945050505050565b602081526000611613602083018461177c565b600080604083850312156117f157600080fd5b8235915061180160208401611665565b90509250929050565b6000806040838503121561181d57600080fd5b61182683611665565b946020939093013593505050565b60008060006060848603121561184957600080fd5b61185284611665565b925061186060208501611665565b9150604084013590509250925092565b60008060006060848603121561188557600080fd5b61188e84611665565b925061189c60208501611665565b91506118aa60408501611665565b90509250925092565b634e487b7160e01b600052601160045260246000fd5b6000826118e657634e487b7160e01b600052601260045260246000fd5b500490565b80820281158282048414176104fc576104fc6118b3565b634e487b7160e01b600052603260045260246000fd5b60006001820161192a5761192a6118b3565b5060010190565b60006020828403121561194357600080fd5b8151801515811461161357600080fd5b818103818111156104fc576104fc6118b3565b808201808211156104fc576104fc6118b3565b6001600160a01b038316815260406020820152600061199b604083018461177c565b949350505050565b60005b838110156119be5781810151838201526020016119a6565b50506000910152565b600081518084526119df8160208601602086016119a3565b601f01601f19169290920160200192915050565b60208152600061161360208301846119c7565b7f416363657373436f6e74726f6c3a206163636f756e7420000000000000000000815260008351611a3e8160178501602088016119a3565b7f206973206d697373696e6720726f6c65200000000000000000000000000000006017918401918201528351611a7b8160288401602088016119a3565b01602801949350505050565b600081611a9657611a966118b3565b50600019019056fe41636365737369626c653a2043616c6c6572206973206e6f7420616e2061646da164736f6c6343000813000a",
  "linkReferences": {},
  "deployedLinkReferences": {}
}