{
  "_format": "hh-sol-artifact-1",
  "contractName": "DepositManagerForMigration",
  "sourceName": "contracts/stake/managers/DepositManagerForMigration.sol",
  "abi": [
    {
      "anonymous": false,
      "inputs": [
        {
          "indexed": true,
          "internalType": "address",
          "name": "layer2",
          "type": "address"
        },
        {
          "indexed": false,
          "internalType": "address",
          "name": "depositor",
          "type": "address"
        },
        {
          "indexed": false,
          "internalType": "uint256",
          "name": "amount",
          "type": "uint256"
        }
      ],
      "name": "Deposited",
      "type": "event"
    },
    {
      "anonymous": false,
      "inputs": [
        {
          "indexed": true,
          "internalType": "bytes32",
          "name": "role",
          "type": "bytes32"
        },
        {
          "indexed": true,
          "internalType": "bytes32",
          "name": "previousAdminRole",
          "type": "bytes32"
        },
        {
          "indexed": true,
          "internalType": "bytes32",
          "name": "newAdminRole",
          "type": "bytes32"
        }
      ],
      "name": "RoleAdminChanged",
      "type": "event"
    },
    {
      "anonymous": false,
      "inputs": [
        {
          "indexed": true,
          "internalType": "bytes32",
          "name": "role",
          "type": "bytes32"
        },
        {
          "indexed": true,
          "internalType": "address",
          "name": "account",
          "type": "address"
        },
        {
          "indexed": true,
          "internalType": "address",
          "name": "sender",
          "type": "address"
        }
      ],
      "name": "RoleGranted",
      "type": "event"
    },
    {
      "anonymous": false,
      "inputs": [
        {
          "indexed": true,
          "internalType": "bytes32",
          "name": "role",
          "type": "bytes32"
        },
        {
          "indexed": true,
          "internalType": "address",
          "name": "account",
          "type": "address"
        },
        {
          "indexed": true,
          "internalType": "address",
          "name": "sender",
          "type": "address"
        }
      ],
      "name": "RoleRevoked",
      "type": "event"
    },
    {
      "anonymous": false,
      "inputs": [
        {
          "indexed": true,
          "internalType": "address",
          "name": "layer2",
          "type": "address"
        },
        {
          "indexed": false,
          "internalType": "address",
          "name": "depositor",
          "type": "address"
        },
        {
          "indexed": false,
          "internalType": "uint256",
          "name": "amount",
          "type": "uint256"
        }
      ],
      "name": "WithdrawalProcessed",
      "type": "event"
    },
    {
      "anonymous": false,
      "inputs": [
        {
          "indexed": true,
          "internalType": "address",
          "name": "layer2",
          "type": "address"
        },
        {
          "indexed": false,
          "internalType": "address",
          "name": "depositor",
          "type": "address"
        },
        {
          "indexed": false,
          "internalType": "uint256",
          "name": "amount",
          "type": "uint256"
        }
      ],
      "name": "WithdrawalRequested",
      "type": "event"
    },
    {
      "inputs": [],
      "name": "DEFAULT_ADMIN_ROLE",
      "outputs": [
        {
          "internalType": "bytes32",
          "name": "",
          "type": "bytes32"
        }
      ],
      "stateMutability": "view",
      "type": "function"
    },
    {
      "inputs": [],
      "name": "MINTER_ROLE",
      "outputs": [
        {
          "internalType": "bytes32",
          "name": "",
          "type": "bytes32"
        }
      ],
      "stateMutability": "view",
      "type": "function"
    },
    {
      "inputs": [
        {
          "internalType": "address",
          "name": "layer2",
          "type": "address"
        },
        {
          "internalType": "address",
          "name": "account",
          "type": "address"
        }
      ],
      "name": "accStaked",
      "outputs": [
        {
          "internalType": "uint256",
          "name": "wtonAmount",
          "type": "uint256"
        }
      ],
      "stateMutability": "view",
      "type": "function"
    },
    {
      "inputs": [
        {
          "internalType": "address",
          "name": "account",
          "type": "address"
        }
      ],
      "name": "accStakedAccount",
      "outputs": [
        {
          "internalType": "uint256",
          "name": "wtonAmount",
          "type": "uint256"
        }
      ],
      "stateMutability": "view",
      "type": "function"
    },
    {
      "inputs": [
        {
          "internalType": "address",
          "name": "layer2",
          "type": "address"
        }
      ],
      "name": "accStakedLayer2",
      "outputs": [
        {
          "internalType": "uint256",
          "name": "wtonAmount",
          "type": "uint256"
        }
      ],
      "stateMutability": "view",
      "type": "function"
    },
    {
      "inputs": [
        {
          "internalType": "address",
          "name": "layer2",
          "type": "address"
        },
        {
          "internalType": "address",
          "name": "account",
          "type": "address"
        }
      ],
      "name": "accUnstaked",
      "outputs": [
        {
          "internalType": "uint256",
          "name": "wtonAmount",
          "type": "uint256"
        }
      ],
      "stateMutability": "view",
      "type": "function"
    },
    {
      "inputs": [
        {
          "internalType": "address",
          "name": "account",
          "type": "address"
        }
      ],
      "name": "accUnstakedAccount",
      "outputs": [
        {
          "internalType": "uint256",
          "name": "wtonAmount",
          "type": "uint256"
        }
      ],
      "stateMutability": "view",
      "type": "function"
    },
    {
      "inputs": [
        {
          "internalType": "address",
          "name": "layer2",
          "type": "address"
        }
      ],
      "name": "accUnstakedLayer2",
      "outputs": [
        {
          "internalType": "uint256",
          "name": "wtonAmount",
          "type": "uint256"
        }
      ],
      "stateMutability": "view",
      "type": "function"
    },
    {
      "inputs": [
        {
          "internalType": "address",
          "name": "account",
          "type": "address"
        }
      ],
      "name": "addAdmin",
      "outputs": [],
      "stateMutability": "nonpayable",
      "type": "function"
    },
    {
      "inputs": [
        {
          "internalType": "address",
          "name": "",
          "type": "address"
        }
      ],
      "name": "aliveImplementation",
      "outputs": [
        {
          "internalType": "bool",
          "name": "",
          "type": "bool"
        }
      ],
      "stateMutability": "view",
      "type": "function"
    },
    {
      "inputs": [
        {
          "internalType": "address",
          "name": "layer2",
          "type": "address"
        },
        {
          "internalType": "address[]",
          "name": "accounts",
          "type": "address[]"
        },
        {
          "internalType": "uint256[]",
          "name": "amounts",
          "type": "uint256[]"
        }
      ],
      "name": "depositWithoutTransfer",
      "outputs": [
        {
          "internalType": "bool",
          "name": "",
          "type": "bool"
        }
      ],
      "stateMutability": "nonpayable",
      "type": "function"
    },
    {
      "inputs": [
        {
          "internalType": "bytes32",
          "name": "role",
          "type": "bytes32"
        }
      ],
      "name": "getRoleAdmin",
      "outputs": [
        {
          "internalType": "bytes32",
          "name": "",
          "type": "bytes32"
        }
      ],
      "stateMutability": "view",
      "type": "function"
    },
    {
      "inputs": [],
      "name": "globalWithdrawalDelay",
      "outputs": [
        {
          "internalType": "uint256",
          "name": "",
          "type": "uint256"
        }
      ],
      "stateMutability": "view",
      "type": "function"
    },
    {
      "inputs": [
        {
          "internalType": "bytes32",
          "name": "role",
          "type": "bytes32"
        },
        {
          "internalType": "address",
          "name": "account",
          "type": "address"
        }
      ],
      "name": "grantRole",
      "outputs": [],
      "stateMutability": "nonpayable",
      "type": "function"
    },
    {
      "inputs": [
        {
          "internalType": "bytes32",
          "name": "role",
          "type": "bytes32"
        },
        {
          "internalType": "address",
          "name": "account",
          "type": "address"
        }
      ],
      "name": "hasRole",
      "outputs": [
        {
          "internalType": "bool",
          "name": "",
          "type": "bool"
        }
      ],
      "stateMutability": "view",
      "type": "function"
    },
    {
      "inputs": [
        {
          "internalType": "address",
          "name": "wton_",
          "type": "address"
        },
        {
          "internalType": "address",
          "name": "registry_",
          "type": "address"
        },
        {
          "internalType": "address",
          "name": "seigManager_",
          "type": "address"
        },
        {
          "internalType": "uint256",
          "name": "globalWithdrawalDelay_",
          "type": "uint256"
        },
        {
          "internalType": "address",
          "name": "oldDepositManager_",
          "type": "address"
        }
      ],
      "name": "initialize",
      "outputs": [],
      "stateMutability": "nonpayable",
      "type": "function"
    },
    {
      "inputs": [
        {
          "internalType": "address",
          "name": "account",
          "type": "address"
        }
      ],
      "name": "isAdmin",
      "outputs": [
        {
          "internalType": "bool",
          "name": "",
          "type": "bool"
        }
      ],
      "stateMutability": "view",
      "type": "function"
    },
    {
      "inputs": [],
      "name": "isOwner",
      "outputs": [
        {
          "internalType": "bool",
          "name": "",
          "type": "bool"
        }
      ],
      "stateMutability": "view",
      "type": "function"
    },
    {
      "inputs": [],
      "name": "oldDepositManager",
      "outputs": [
        {
          "internalType": "address",
          "name": "",
          "type": "address"
        }
      ],
      "stateMutability": "view",
      "type": "function"
    },
    {
      "inputs": [
        {
          "internalType": "address",
          "name": "layer2",
          "type": "address"
        }
      ],
      "name": "oldProcessRequest",
      "outputs": [
        {
          "internalType": "bool",
          "name": "",
          "type": "bool"
        }
      ],
      "stateMutability": "nonpayable",
      "type": "function"
    },
    {
      "inputs": [
        {
          "internalType": "address",
          "name": "layer2",
          "type": "address"
        },
        {
          "internalType": "uint256",
          "name": "amounts",
          "type": "uint256"
        }
      ],
      "name": "oldRequestWithdrawal",
      "outputs": [
        {
          "internalType": "bool",
          "name": "",
          "type": "bool"
        }
      ],
      "stateMutability": "nonpayable",
      "type": "function"
    },
    {
      "inputs": [],
      "name": "pauseProxy",
      "outputs": [
        {
          "internalType": "bool",
          "name": "",
          "type": "bool"
        }
      ],
      "stateMutability": "view",
      "type": "function"
    },
    {
      "inputs": [
        {
          "internalType": "address",
          "name": "layer2",
          "type": "address"
        },
        {
          "internalType": "address",
          "name": "account",
          "type": "address"
        }
      ],
      "name": "pendingUnstaked",
      "outputs": [
        {
          "internalType": "uint256",
          "name": "wtonAmount",
          "type": "uint256"
        }
      ],
      "stateMutability": "view",
      "type": "function"
    },
    {
      "inputs": [
        {
          "internalType": "address",
          "name": "account",
          "type": "address"
        }
      ],
      "name": "pendingUnstakedAccount",
      "outputs": [
        {
          "internalType": "uint256",
          "name": "wtonAmount",
          "type": "uint256"
        }
      ],
      "stateMutability": "view",
      "type": "function"
    },
    {
      "inputs": [
        {
          "internalType": "address",
          "name": "layer2",
          "type": "address"
        }
      ],
      "name": "pendingUnstakedLayer2",
      "outputs": [
        {
          "internalType": "uint256",
          "name": "wtonAmount",
          "type": "uint256"
        }
      ],
      "stateMutability": "view",
      "type": "function"
    },
    {
      "inputs": [
        {
          "internalType": "uint256",
          "name": "",
          "type": "uint256"
        }
      ],
      "name": "proxyImplementation",
      "outputs": [
        {
          "internalType": "address",
          "name": "",
          "type": "address"
        }
      ],
      "stateMutability": "view",
      "type": "function"
    },
    {
      "inputs": [],
      "name": "registry",
      "outputs": [
        {
          "internalType": "address",
          "name": "",
          "type": "address"
        }
      ],
      "stateMutability": "view",
      "type": "function"
    },
    {
      "inputs": [
        {
          "internalType": "address",
          "name": "account",
          "type": "address"
        }
      ],
      "name": "removeAdmin",
      "outputs": [],
      "stateMutability": "nonpayable",
      "type": "function"
    },
    {
      "inputs": [],
      "name": "renounceOwnership",
      "outputs": [],
      "stateMutability": "nonpayable",
      "type": "function"
    },
    {
      "inputs": [
        {
          "internalType": "bytes32",
          "name": "role",
          "type": "bytes32"
        },
        {
          "internalType": "address",
          "name": "account",
          "type": "address"
        }
      ],
      "name": "renounceRole",
      "outputs": [],
      "stateMutability": "nonpayable",
      "type": "function"
    },
    {
      "inputs": [
        {
          "internalType": "address",
          "name": "layer2",
          "type": "address"
        },
        {
          "internalType": "address",
          "name": "account",
          "type": "address"
        },
        {
          "internalType": "uint256",
          "name": "amount",
          "type": "uint256"
        },
        {
          "internalType": "uint256",
          "name": "delayBlock",
          "type": "uint256"
        }
      ],
      "name": "requestWithdrawalWithDelay",
      "outputs": [
        {
          "internalType": "bool",
          "name": "",
          "type": "bool"
        }
      ],
      "stateMutability": "nonpayable",
      "type": "function"
    },
    {
      "inputs": [
        {
          "internalType": "bytes32",
          "name": "role",
          "type": "bytes32"
        },
        {
          "internalType": "address",
          "name": "account",
          "type": "address"
        }
      ],
      "name": "revokeRole",
      "outputs": [],
      "stateMutability": "nonpayable",
      "type": "function"
    },
    {
      "inputs": [],
      "name": "seigManager",
      "outputs": [
        {
          "internalType": "address",
          "name": "",
          "type": "address"
        }
      ],
      "stateMutability": "view",
      "type": "function"
    },
    {
      "inputs": [
        {
          "internalType": "bytes4",
          "name": "",
          "type": "bytes4"
        }
      ],
      "name": "selectorImplementation",
      "outputs": [
        {
          "internalType": "address",
          "name": "",
          "type": "address"
        }
      ],
      "stateMutability": "view",
      "type": "function"
    },
    {
      "inputs": [
        {
          "internalType": "uint256",
          "name": "globalWithdrawalDelay_",
          "type": "uint256"
        }
      ],
      "name": "setGlobalWithdrawalDelay",
      "outputs": [],
      "stateMutability": "nonpayable",
      "type": "function"
    },
    {
      "inputs": [
        {
          "internalType": "address",
          "name": "oldDepositManager_",
          "type": "address"
        }
      ],
      "name": "setOldDepositManager",
      "outputs": [],
      "stateMutability": "nonpayable",
      "type": "function"
    },
    {
      "inputs": [
        {
          "internalType": "address",
          "name": "seigManager_",
          "type": "address"
        }
      ],
      "name": "setSeigManager",
      "outputs": [],
      "stateMutability": "nonpayable",
      "type": "function"
    },
    {
      "inputs": [
        {
          "internalType": "bytes4",
          "name": "interfaceId",
          "type": "bytes4"
        }
      ],
      "name": "supportsInterface",
      "outputs": [
        {
          "internalType": "bool",
          "name": "",
          "type": "bool"
        }
      ],
      "stateMutability": "view",
      "type": "function"
    },
    {
      "inputs": [
        {
          "internalType": "address",
          "name": "newAdmin",
          "type": "address"
        }
      ],
      "name": "transferAdmin",
      "outputs": [],
      "stateMutability": "nonpayable",
      "type": "function"
    },
    {
      "inputs": [
        {
          "internalType": "address",
          "name": "newAdmin",
          "type": "address"
        }
      ],
      "name": "transferOwnership",
      "outputs": [],
      "stateMutability": "nonpayable",
      "type": "function"
    },
    {
      "inputs": [
        {
          "internalType": "address",
          "name": "",
          "type": "address"
        }
      ],
      "name": "withdrawalDelay",
      "outputs": [
        {
          "internalType": "uint256",
          "name": "",
          "type": "uint256"
        }
      ],
      "stateMutability": "view",
      "type": "function"
    },
    {
      "inputs": [
        {
          "internalType": "address",
          "name": "layer2",
          "type": "address"
        },
        {
          "internalType": "address",
          "name": "account",
          "type": "address"
        },
        {
          "internalType": "uint256",
          "name": "index",
          "type": "uint256"
        }
      ],
      "name": "withdrawalRequest",
      "outputs": [
        {
          "internalType": "uint128",
          "name": "withdrawableBlockNumber",
          "type": "uint128"
        },
        {
          "internalType": "uint128",
          "name": "amount",
          "type": "uint128"
        },
        {
          "internalType": "bool",
          "name": "processed",
          "type": "bool"
        }
      ],
      "stateMutability": "view",
      "type": "function"
    },
    {
      "inputs": [
        {
          "internalType": "address",
          "name": "layer2",
          "type": "address"
        },
        {
          "internalType": "address",
          "name": "account",
          "type": "address"
        }
      ],
      "name": "withdrawalRequestIndex",
      "outputs": [
        {
          "internalType": "uint256",
          "name": "index",
          "type": "uint256"
        }
      ],
      "stateMutability": "view",
      "type": "function"
    },
    {
      "inputs": [],
      "name": "wton",
      "outputs": [
        {
          "internalType": "address",
          "name": "",
          "type": "address"
        }
      ],
      "stateMutability": "view",
      "type": "function"
    }
  ],
  "bytecode": "0x608060405234801561001057600080fd5b50611f17806100206000396000f3fe608060405234801561001057600080fd5b50600436106102735760003560e01c806370480275116101515780639d91b87b116100c3578063b911135f11610087578063b911135f1461069b578063c647f26e146106c4578063d285f78c146106fd578063d539139314610726578063d547741f1461074d578063f2fde38b1461076057600080fd5b80639d91b87b146105f5578063a0b2a9131461062e578063a217fddf14610657578063a35439891461065f578063a79da3411461068857600080fd5b80638af4a948116101155780638af4a948146105525780638d62d9491461057b5780638f32d59b1461058c5780638fbef2d01461059457806391d14854146105cf5780639577d572146105e257600080fd5b80637048027514610500578063715018a61461051357806375829def1461051b5780637657f20a1461052e5780637b1039991461054157600080fd5b80632d2fab94116101ea57806350d2a276116101ae57806350d2a2761461047a578063530b97a4146104a3578063550d01a3146104b657806363a8fd89146104d95780636ec3d5ae146104e65780636fb7f558146104ef57600080fd5b80632d2fab94146103e85780632f2ff15d146104215780633117e1151461043457806336568abe146104475780634ce970361461045a57600080fd5b80632153c2391161023c5780632153c23914610328578063248a9ca31461035357806324b2ffcd1461037657806324d7806c146103895780632638fdf51461039c5780632a49d183146103d557600080fd5b806255f5c114610278578063010ca390146102b457806301ffc9a7146102dd5780631785f53c14610300578063204ff0bd14610315575b600080fd5b6102a16102863660046119d9565b6001600160a01b03166000908152600c602052604090205490565b6040519081526020015b60405180910390f35b6102a16102c23660046119d9565b6001600160a01b03166000908152600b602052604090205490565b6102f06102eb3660046119f4565b610773565b60405190151581526020016102ab565b61031361030e3660046119d9565b610784565b005b6102f0610323366004611a1e565b6107c0565b60095461033b906001600160a01b031681565b6040516001600160a01b0390911681526020016102ab565b6102a1610361366004611a48565b60009081526005602052604090206001015490565b6102f0610384366004611b37565b610937565b6102f06103973660046119d9565b610aec565b6102a16103aa366004611c09565b6001600160a01b039182166000908152600d6020908152604080832093909416825291909152205490565b6102f06103e3366004611c3c565b610af8565b6102a16103f6366004611c09565b6001600160a01b039182166000908152600a6020908152604080832093909416825291909152205490565b61031361042f366004611c7e565b610b34565b6102f06104423660046119d9565b610b5e565b610313610455366004611c7e565b610c01565b6102a16104683660046119d9565b60166020526000908152604090205481565b61033b6104883660046119f4565b6003602052600090815260409020546001600160a01b031681565b6103136104b1366004611ca1565b610c7f565b6102f06104c43660046119d9565b60026020526000908152604090205460ff1681565b6000546102f09060ff1681565b6102a160155481565b6008546001600160a01b031661033b565b61031361050e3660046119d9565b610d34565b610313610d64565b6103136105293660046119d9565b610d96565b61031361053c3660046119d9565b610e78565b6007546001600160a01b031661033b565b6102a16105603660046119d9565b6001600160a01b031660009081526011602052604090205490565b6006546001600160a01b031661033b565b6102f0610ebf565b6105a76105a2366004611cff565b610ed0565b604080516001600160801b0394851681529390921660208401521515908201526060016102ab565b6102f06105dd366004611c7e565b610fdd565b6103136105f03660046119d9565b611008565b6102a1610603366004611c09565b6001600160a01b03918216600090815260106020908152604080832093909416825291909152205490565b6102a161063c3660046119d9565b6001600160a01b03166000908152600f602052604090205490565b6102a1600081565b6102a161066d3660046119d9565b6001600160a01b031660009081526012602052604090205490565b610313610696366004611a48565b61104f565b61033b6106a9366004611a48565b6001602052600090815260409020546001600160a01b031681565b6102a16106d2366004611c09565b6001600160a01b03918216600090815260146020908152604080832093909416825291909152205490565b6102a161070b3660046119d9565b6001600160a01b03166000908152600e602052604090205490565b6102a17ff0887ba65ee2024ea881d91b74c2450ef19e1557f03bed3ea9f16b037cbe2dc981565b61031361075b366004611c7e565b611079565b61031361076e3660046119d9565b61109e565b600061077e826110cc565b92915050565b61078d33610aec565b6107b25760405162461bcd60e51b81526004016107a990611d3b565b60405180910390fd5b6107bd600082610c01565b50565b60006107cb33610aec565b6107e75760405162461bcd60e51b81526004016107a990611d3b565b6006546009546040516370a0823160e01b81526001600160a01b039182166004820152849291909116906370a0823190602401602060405180830381865afa158015610837573d6000803e3d6000fd5b505050506040513d601f19601f8201168201806040525081019061085b9190611d7d565b10156108b95760405162461bcd60e51b815260206004820152602760248201527f6578636365656420746865206f6c644465706f7369744d616e6167657227732060448201526662616c616e636560c81b60648201526084016107a9565b60095460405163da95ebf760e01b81526001600160a01b038581166004830152602482018590529091169063da95ebf7906044016020604051808303816000875af115801561090c573d6000803e3d6000fd5b505050506040513d601f19601f820116820180604052508101906109309190611d96565b9392505050565b600061094233610aec565b61095e5760405162461bcd60e51b81526004016107a990611d3b565b825160000361099c5760405162461bcd60e51b815260206004820152600a6024820152691b9bc81858d8dbdd5b9d60b21b60448201526064016107a9565b81518351146109db5760405162461bcd60e51b815260206004820152600b60248201526a0eee4dedcce40d8cadce8d60ab1b60448201526064016107a9565b60005b8351811015610ae15760006001600160a01b0316848281518110610a0457610a04611db8565b60200260200101516001600160a01b031614158015610a3d5750828181518110610a3057610a30611db8565b6020026020010151600014155b610a895760405162461bcd60e51b815260206004820152601b60248201527f7a65726f20616d6f756e74206f72207a65726f2061646472657373000000000060448201526064016107a9565b610ac685858381518110610a9f57610a9f611db8565b6020026020010151858481518110610ab957610ab9611db8565b60200260200101516110f1565b610acf57600080fd5b80610ad981611de4565b9150506109de565b506001949350505050565b600061077e8183610fdd565b6000610b0333610aec565b610b1f5760405162461bcd60e51b81526004016107a990611d3b565b610b2b858585856112f8565b95945050505050565b600082815260056020526040902060010154610b4f81611609565b610b598383611613565b505050565b6000610b6933610aec565b610b855760405162461bcd60e51b81526004016107a990611d3b565b600954604051636105226360e11b81526001600160a01b038481166004830152600060248301529091169063c20a44c6906044016020604051808303816000875af1158015610bd8573d6000803e3d6000fd5b505050506040513d601f19601f8201168201806040525081019061077e9190611d96565b919050565b6001600160a01b0381163314610c715760405162461bcd60e51b815260206004820152602f60248201527f416363657373436f6e74726f6c3a2063616e206f6e6c792072656e6f756e636560448201526e103937b632b9903337b91039b2b63360891b60648201526084016107a9565b610c7b8282611699565b5050565b6006546001600160a01b031615610cce5760405162461bcd60e51b8152602060048201526013602482015272185b1c9958591e481a5b9a5d1a585b1a5e9959606a1b60448201526064016107a9565b600680546001600160a01b038088166001600160a01b031992831617909255600780548784169083161790556008805486841690831617905560158490556009805492841692909116919091179055610d2d632139e50b60e11b611700565b5050505050565b610d3d33610aec565b610d595760405162461bcd60e51b81526004016107a990611d3b565b6107bd600082610b34565b610d6d33610aec565b610d895760405162461bcd60e51b81526004016107a990611d3b565b610d94600033610c01565b565b610d9f33610aec565b610dbb5760405162461bcd60e51b81526004016107a990611d3b565b6001600160a01b038116610e115760405162461bcd60e51b815260206004820152601860248201527f41636365737369626c653a207a65726f2061646472657373000000000000000060448201526064016107a9565b6001600160a01b0381163303610e625760405162461bcd60e51b815260206004820152601660248201527520b1b1b2b9b9b4b136329d1039b0b6b29030b236b4b760511b60448201526064016107a9565b610e6d600082610b34565b6107bd600033610c01565b610e8133610aec565b610e9d5760405162461bcd60e51b81526004016107a990611d3b565b600880546001600160a01b0319166001600160a01b0392909216919091179055565b6000610ecb8133610fdd565b905090565b6001600160a01b038084166000908152601360209081526040808320938616835292905290812080548291829185908110610f0d57610f0d611db8565b600091825260208083206002909202909101546001600160a01b03808a168452601383526040808520918a1685529252912080546001600160801b0390921694509085908110610f5f57610f5f611db8565b60009182526020808320600292909202909101546001600160a01b038981168452601383526040808520918a168552925291208054600160801b9092046001600160801b031693509085908110610fb857610fb8611db8565b600091825260209091206001600290920201015492969195505060ff90911692509050565b60009182526005602090815260408084206001600160a01b0393909316845291905290205460ff1690565b61101133610aec565b61102d5760405162461bcd60e51b81526004016107a990611d3b565b600980546001600160a01b0319166001600160a01b0392909216919091179055565b61105833610aec565b6110745760405162461bcd60e51b81526004016107a990611d3b565b601555565b60008281526005602052604090206001015461109481611609565b610b598383611699565b6110a733610aec565b6110c35760405162461bcd60e51b81526004016107a990611d3b565b6107bd81610d96565b60006001600160e01b03198216637965db0b60e01b148061077e575061077e8261177f565b600754604051630c39b8b760e31b81526001600160a01b03808616600483015260009286929116906361cdc5b890602401602060405180830381865afa15801561113f573d6000803e3d6000fd5b505050506040513d601f19601f820116820180604052508101906111639190611d96565b61116c57600080fd5b6001600160a01b038086166000908152600a602090815260408083209388168352929052205461119d908490611dfd565b6001600160a01b038087166000818152600a60209081526040808320948a16835293815283822094909455908152600b9092529020546111de908490611dfd565b6001600160a01b038087166000908152600b60209081526040808320949094559187168152600c9091522054611215908490611dfd565b6001600160a01b038086166000818152600c6020908152604091829020949094558051918252928101869052908716917f8752a472e571a816aea92eec8dae9baf628e840f4929fbcc2d155e6233ff68a7910160405180910390a2600854604051630412c6d560e41b81526001600160a01b0387811660048301528681166024830152604482018690529091169063412c6d50906064016020604051808303816000875af11580156112cb573d6000803e3d6000fd5b505050506040513d601f19601f820116820180604052508101906112ef9190611d96565b610ae157600080fd5b600754604051630c39b8b760e31b81526001600160a01b03808716600483015260009287929116906361cdc5b890602401602060405180830381865afa158015611346573d6000803e3d6000fd5b505050506040513d601f19601f8201168201806040525081019061136a9190611d96565b61137357600080fd5b600084116113d35760405162461bcd60e51b815260206004820152602760248201527f4465706f7369744d616e616765723a20616d6f756e74206d757374206e6f74206044820152666265207a65726f60c81b60648201526084016107a9565b6001600160a01b0380871660009081526013602090815260408083209389168352929052819020815160608101909252908061140f8643611dfd565b6001600160801b039081168252878116602080840191909152600060409384018190528554600181810188559682528282208651878501518616600160801b0295169490941760029091029093019283559383015191909401805491151560ff199092169190911790556001600160a01b03808a168352600d8452818320908916835290925220546114a2908590611dfd565b6001600160a01b038088166000818152600d60209081526040808320948b16835293815283822094909455908152600e9092529020546114e3908590611dfd565b6001600160a01b038088166000908152600e60209081526040808320949094559188168152600f909152205461151a908590611dfd565b6001600160a01b038087166000818152600f6020908152604091829020949094558051918252928101879052908816917f04c56a409d50971e45c5a2d96e5d557d2b0f1d66d40f14b141e4c958b0f39b32910160405180910390a2600854604051637c287fd560e11b81526001600160a01b0388811660048301528781166024830152604482018790529091169063f850ffaa906064016020604051808303816000875af11580156115d0573d6000803e3d6000fd5b505050506040513d601f19601f820116820180604052508101906115f49190611d96565b6115fd57600080fd5b50600195945050505050565b6107bd81336117bb565b61161d8282610fdd565b610c7b5760008281526005602090815260408083206001600160a01b03851684529091529020805460ff191660011790556116553390565b6001600160a01b0316816001600160a01b0316837f2f8788117e7eff1d82e926ec794901d17c78024a50270940304540a733656f0d60405160405180910390a45050565b6116a38282610fdd565b15610c7b5760008281526005602090815260408083206001600160a01b0385168085529252808320805460ff1916905551339285917ff6391f5c32d9c69d2a47ea670b442974b53935d1edc7fd64eb21e047a839171b9190a45050565b6001600160e01b0319808216900361175a5760405162461bcd60e51b815260206004820152601c60248201527f4552433136353a20696e76616c696420696e746572666163652069640000000060448201526064016107a9565b6001600160e01b0319166000908152600460205260409020805460ff19166001179055565b60006301ffc9a760e01b6001600160e01b03198316148061077e5750506001600160e01b03191660009081526004602052604090205460ff1690565b6117c58282610fdd565b610c7b576117d281611814565b6117dd836020611826565b6040516020016117ee929190611e34565b60408051601f198184030181529082905262461bcd60e51b82526107a991600401611ea9565b606061077e6001600160a01b03831660145b60606000611835836002611edc565b611840906002611dfd565b67ffffffffffffffff81111561185857611858611a61565b6040519080825280601f01601f191660200182016040528015611882576020820181803683370190505b509050600360fc1b8160008151811061189d5761189d611db8565b60200101906001600160f81b031916908160001a905350600f60fb1b816001815181106118cc576118cc611db8565b60200101906001600160f81b031916908160001a90535060006118f0846002611edc565b6118fb906001611dfd565b90505b6001811115611973576f181899199a1a9b1b9c1cb0b131b232b360811b85600f166010811061192f5761192f611db8565b1a60f81b82828151811061194557611945611db8565b60200101906001600160f81b031916908160001a90535060049490941c9361196c81611ef3565b90506118fe565b5083156109305760405162461bcd60e51b815260206004820181905260248201527f537472696e67733a20686578206c656e67746820696e73756666696369656e7460448201526064016107a9565b80356001600160a01b0381168114610bfc57600080fd5b6000602082840312156119eb57600080fd5b610930826119c2565b600060208284031215611a0657600080fd5b81356001600160e01b03198116811461093057600080fd5b60008060408385031215611a3157600080fd5b611a3a836119c2565b946020939093013593505050565b600060208284031215611a5a57600080fd5b5035919050565b634e487b7160e01b600052604160045260246000fd5b604051601f8201601f1916810167ffffffffffffffff81118282101715611aa057611aa0611a61565b604052919050565b600067ffffffffffffffff821115611ac257611ac2611a61565b5060051b60200190565b600082601f830112611add57600080fd5b81356020611af2611aed83611aa8565b611a77565b82815260059290921b84018101918181019086841115611b1157600080fd5b8286015b84811015611b2c5780358352918301918301611b15565b509695505050505050565b600080600060608486031215611b4c57600080fd5b611b55846119c2565b925060208085013567ffffffffffffffff80821115611b7357600080fd5b818701915087601f830112611b8757600080fd5b8135611b95611aed82611aa8565b81815260059190911b8301840190848101908a831115611bb457600080fd5b938501935b82851015611bd957611bca856119c2565b82529385019390850190611bb9565b965050506040870135925080831115611bf157600080fd5b5050611bff86828701611acc565b9150509250925092565b60008060408385031215611c1c57600080fd5b611c25836119c2565b9150611c33602084016119c2565b90509250929050565b60008060008060808587031215611c5257600080fd5b611c5b856119c2565b9350611c69602086016119c2565b93969395505050506040820135916060013590565b60008060408385031215611c9157600080fd5b82359150611c33602084016119c2565b600080600080600060a08688031215611cb957600080fd5b611cc2866119c2565b9450611cd0602087016119c2565b9350611cde604087016119c2565b925060608601359150611cf3608087016119c2565b90509295509295909350565b600080600060608486031215611d1457600080fd5b611d1d846119c2565b9250611d2b602085016119c2565b9150604084013590509250925092565b60208082526022908201527f41636365737369626c653a2043616c6c6572206973206e6f7420616e2061646d60408201526134b760f11b606082015260800190565b600060208284031215611d8f57600080fd5b5051919050565b600060208284031215611da857600080fd5b8151801515811461093057600080fd5b634e487b7160e01b600052603260045260246000fd5b634e487b7160e01b600052601160045260246000fd5b600060018201611df657611df6611dce565b5060010190565b8082018082111561077e5761077e611dce565b60005b83811015611e2b578181015183820152602001611e13565b50506000910152565b7f416363657373436f6e74726f6c3a206163636f756e7420000000000000000000815260008351611e6c816017850160208801611e10565b7001034b99036b4b9b9b4b733903937b6329607d1b6017918401918201528351611e9d816028840160208801611e10565b01602801949350505050565b6020815260008251806020840152611ec8816040850160208701611e10565b601f01601f19169190910160400192915050565b808202811582820484141761077e5761077e611dce565b600081611f0257611f02611dce565b50600019019056fea164736f6c6343000813000a",
  "linkReferences": {},
  "deployedLinkReferences": {}
}