{
  "_format": "hh-sol-artifact-1",
  "contractName": "DepositManagerForMigration",
  "sourceName": "contracts/stake/managers/DepositManagerForMigration.sol",
  "abi": [
    {
      "anonymous": false,
      "inputs": [
        {
          "indexed": true,
          "internalType": "address",
          "name": "layer2",
          "type": "address"
        },
        {
          "indexed": false,
          "internalType": "address",
          "name": "depositor",
          "type": "address"
        },
        {
          "indexed": false,
          "internalType": "uint256",
          "name": "amount",
          "type": "uint256"
        }
      ],
      "name": "Deposited",
      "type": "event"
    },
    {
      "anonymous": false,
      "inputs": [
        {
          "indexed": true,
          "internalType": "bytes32",
          "name": "role",
          "type": "bytes32"
        },
        {
          "indexed": true,
          "internalType": "bytes32",
          "name": "previousAdminRole",
          "type": "bytes32"
        },
        {
          "indexed": true,
          "internalType": "bytes32",
          "name": "newAdminRole",
          "type": "bytes32"
        }
      ],
      "name": "RoleAdminChanged",
      "type": "event"
    },
    {
      "anonymous": false,
      "inputs": [
        {
          "indexed": true,
          "internalType": "bytes32",
          "name": "role",
          "type": "bytes32"
        },
        {
          "indexed": true,
          "internalType": "address",
          "name": "account",
          "type": "address"
        },
        {
          "indexed": true,
          "internalType": "address",
          "name": "sender",
          "type": "address"
        }
      ],
      "name": "RoleGranted",
      "type": "event"
    },
    {
      "anonymous": false,
      "inputs": [
        {
          "indexed": true,
          "internalType": "bytes32",
          "name": "role",
          "type": "bytes32"
        },
        {
          "indexed": true,
          "internalType": "address",
          "name": "account",
          "type": "address"
        },
        {
          "indexed": true,
          "internalType": "address",
          "name": "sender",
          "type": "address"
        }
      ],
      "name": "RoleRevoked",
      "type": "event"
    },
    {
      "anonymous": false,
      "inputs": [
        {
          "indexed": true,
          "internalType": "address",
          "name": "layer2",
          "type": "address"
        },
        {
          "indexed": false,
          "internalType": "address",
          "name": "depositor",
          "type": "address"
        },
        {
          "indexed": false,
          "internalType": "uint256",
          "name": "amount",
          "type": "uint256"
        }
      ],
      "name": "WithdrawalProcessed",
      "type": "event"
    },
    {
      "anonymous": false,
      "inputs": [
        {
          "indexed": true,
          "internalType": "address",
          "name": "layer2",
          "type": "address"
        },
        {
          "indexed": false,
          "internalType": "address",
          "name": "depositor",
          "type": "address"
        },
        {
          "indexed": false,
          "internalType": "uint256",
          "name": "amount",
          "type": "uint256"
        }
      ],
      "name": "WithdrawalRequested",
      "type": "event"
    },
    {
      "inputs": [],
      "name": "DEFAULT_ADMIN_ROLE",
      "outputs": [
        {
          "internalType": "bytes32",
          "name": "",
          "type": "bytes32"
        }
      ],
      "stateMutability": "view",
      "type": "function"
    },
    {
      "inputs": [],
      "name": "MINTER_ROLE",
      "outputs": [
        {
          "internalType": "bytes32",
          "name": "",
          "type": "bytes32"
        }
      ],
      "stateMutability": "view",
      "type": "function"
    },
    {
      "inputs": [
        {
          "internalType": "address",
          "name": "layer2",
          "type": "address"
        },
        {
          "internalType": "address",
          "name": "account",
          "type": "address"
        }
      ],
      "name": "accStaked",
      "outputs": [
        {
          "internalType": "uint256",
          "name": "wtonAmount",
          "type": "uint256"
        }
      ],
      "stateMutability": "view",
      "type": "function"
    },
    {
      "inputs": [
        {
          "internalType": "address",
          "name": "account",
          "type": "address"
        }
      ],
      "name": "accStakedAccount",
      "outputs": [
        {
          "internalType": "uint256",
          "name": "wtonAmount",
          "type": "uint256"
        }
      ],
      "stateMutability": "view",
      "type": "function"
    },
    {
      "inputs": [
        {
          "internalType": "address",
          "name": "layer2",
          "type": "address"
        }
      ],
      "name": "accStakedLayer2",
      "outputs": [
        {
          "internalType": "uint256",
          "name": "wtonAmount",
          "type": "uint256"
        }
      ],
      "stateMutability": "view",
      "type": "function"
    },
    {
      "inputs": [
        {
          "internalType": "address",
          "name": "layer2",
          "type": "address"
        },
        {
          "internalType": "address",
          "name": "account",
          "type": "address"
        }
      ],
      "name": "accUnstaked",
      "outputs": [
        {
          "internalType": "uint256",
          "name": "wtonAmount",
          "type": "uint256"
        }
      ],
      "stateMutability": "view",
      "type": "function"
    },
    {
      "inputs": [
        {
          "internalType": "address",
          "name": "account",
          "type": "address"
        }
      ],
      "name": "accUnstakedAccount",
      "outputs": [
        {
          "internalType": "uint256",
          "name": "wtonAmount",
          "type": "uint256"
        }
      ],
      "stateMutability": "view",
      "type": "function"
    },
    {
      "inputs": [
        {
          "internalType": "address",
          "name": "layer2",
          "type": "address"
        }
      ],
      "name": "accUnstakedLayer2",
      "outputs": [
        {
          "internalType": "uint256",
          "name": "wtonAmount",
          "type": "uint256"
        }
      ],
      "stateMutability": "view",
      "type": "function"
    },
    {
      "inputs": [
        {
          "internalType": "address",
          "name": "account",
          "type": "address"
        }
      ],
      "name": "addAdmin",
      "outputs": [],
      "stateMutability": "nonpayable",
      "type": "function"
    },
    {
      "inputs": [
        {
          "internalType": "address",
          "name": "",
          "type": "address"
        }
      ],
      "name": "aliveImplementation",
      "outputs": [
        {
          "internalType": "bool",
          "name": "",
          "type": "bool"
        }
      ],
      "stateMutability": "view",
      "type": "function"
    },
    {
      "inputs": [
        {
          "internalType": "address",
          "name": "layer2",
          "type": "address"
        },
        {
          "internalType": "address[]",
          "name": "accounts",
          "type": "address[]"
        },
        {
          "internalType": "uint256[]",
          "name": "amounts",
          "type": "uint256[]"
        }
      ],
      "name": "depositWithoutTransfer",
      "outputs": [
        {
          "internalType": "bool",
          "name": "",
          "type": "bool"
        }
      ],
      "stateMutability": "nonpayable",
      "type": "function"
    },
    {
      "inputs": [
        {
          "internalType": "bytes32",
          "name": "role",
          "type": "bytes32"
        }
      ],
      "name": "getRoleAdmin",
      "outputs": [
        {
          "internalType": "bytes32",
          "name": "",
          "type": "bytes32"
        }
      ],
      "stateMutability": "view",
      "type": "function"
    },
    {
      "inputs": [],
      "name": "globalWithdrawalDelay",
      "outputs": [
        {
          "internalType": "uint256",
          "name": "",
          "type": "uint256"
        }
      ],
      "stateMutability": "view",
      "type": "function"
    },
    {
      "inputs": [
        {
          "internalType": "bytes32",
          "name": "role",
          "type": "bytes32"
        },
        {
          "internalType": "address",
          "name": "account",
          "type": "address"
        }
      ],
      "name": "grantRole",
      "outputs": [],
      "stateMutability": "nonpayable",
      "type": "function"
    },
    {
      "inputs": [
        {
          "internalType": "bytes32",
          "name": "role",
          "type": "bytes32"
        },
        {
          "internalType": "address",
          "name": "account",
          "type": "address"
        }
      ],
      "name": "hasRole",
      "outputs": [
        {
          "internalType": "bool",
          "name": "",
          "type": "bool"
        }
      ],
      "stateMutability": "view",
      "type": "function"
    },
    {
      "inputs": [
        {
          "internalType": "address",
          "name": "wton_",
          "type": "address"
        },
        {
          "internalType": "address",
          "name": "registry_",
          "type": "address"
        },
        {
          "internalType": "address",
          "name": "seigManager_",
          "type": "address"
        },
        {
          "internalType": "uint256",
          "name": "globalWithdrawalDelay_",
          "type": "uint256"
        },
        {
          "internalType": "address",
          "name": "oldDepositManager_",
          "type": "address"
        }
      ],
      "name": "initialize",
      "outputs": [],
      "stateMutability": "nonpayable",
      "type": "function"
    },
    {
      "inputs": [
        {
          "internalType": "address",
          "name": "account",
          "type": "address"
        }
      ],
      "name": "isAdmin",
      "outputs": [
        {
          "internalType": "bool",
          "name": "",
          "type": "bool"
        }
      ],
      "stateMutability": "view",
      "type": "function"
    },
    {
      "inputs": [],
      "name": "isOwner",
      "outputs": [
        {
          "internalType": "bool",
          "name": "",
          "type": "bool"
        }
      ],
      "stateMutability": "view",
      "type": "function"
    },
    {
      "inputs": [],
      "name": "oldDepositManager",
      "outputs": [
        {
          "internalType": "address",
          "name": "",
          "type": "address"
        }
      ],
      "stateMutability": "view",
      "type": "function"
    },
    {
      "inputs": [
        {
          "internalType": "address",
          "name": "layer2",
          "type": "address"
        }
      ],
      "name": "oldProcessRequest",
      "outputs": [
        {
          "internalType": "bool",
          "name": "",
          "type": "bool"
        }
      ],
      "stateMutability": "nonpayable",
      "type": "function"
    },
    {
      "inputs": [
        {
          "internalType": "address",
          "name": "layer2",
          "type": "address"
        },
        {
          "internalType": "uint256",
          "name": "amounts",
          "type": "uint256"
        }
      ],
      "name": "oldRequestWithdrawal",
      "outputs": [
        {
          "internalType": "bool",
          "name": "",
          "type": "bool"
        }
      ],
      "stateMutability": "nonpayable",
      "type": "function"
    },
    {
      "inputs": [],
      "name": "pauseProxy",
      "outputs": [
        {
          "internalType": "bool",
          "name": "",
          "type": "bool"
        }
      ],
      "stateMutability": "view",
      "type": "function"
    },
    {
      "inputs": [
        {
          "internalType": "address",
          "name": "layer2",
          "type": "address"
        },
        {
          "internalType": "address",
          "name": "account",
          "type": "address"
        }
      ],
      "name": "pendingUnstaked",
      "outputs": [
        {
          "internalType": "uint256",
          "name": "wtonAmount",
          "type": "uint256"
        }
      ],
      "stateMutability": "view",
      "type": "function"
    },
    {
      "inputs": [
        {
          "internalType": "address",
          "name": "account",
          "type": "address"
        }
      ],
      "name": "pendingUnstakedAccount",
      "outputs": [
        {
          "internalType": "uint256",
          "name": "wtonAmount",
          "type": "uint256"
        }
      ],
      "stateMutability": "view",
      "type": "function"
    },
    {
      "inputs": [
        {
          "internalType": "address",
          "name": "layer2",
          "type": "address"
        }
      ],
      "name": "pendingUnstakedLayer2",
      "outputs": [
        {
          "internalType": "uint256",
          "name": "wtonAmount",
          "type": "uint256"
        }
      ],
      "stateMutability": "view",
      "type": "function"
    },
    {
      "inputs": [
        {
          "internalType": "uint256",
          "name": "",
          "type": "uint256"
        }
      ],
      "name": "proxyImplementation",
      "outputs": [
        {
          "internalType": "address",
          "name": "",
          "type": "address"
        }
      ],
      "stateMutability": "view",
      "type": "function"
    },
    {
      "inputs": [],
      "name": "registry",
      "outputs": [
        {
          "internalType": "address",
          "name": "",
          "type": "address"
        }
      ],
      "stateMutability": "view",
      "type": "function"
    },
    {
      "inputs": [
        {
          "internalType": "address",
          "name": "account",
          "type": "address"
        }
      ],
      "name": "removeAdmin",
      "outputs": [],
      "stateMutability": "nonpayable",
      "type": "function"
    },
    {
      "inputs": [],
      "name": "renounceOwnership",
      "outputs": [],
      "stateMutability": "nonpayable",
      "type": "function"
    },
    {
      "inputs": [
        {
          "internalType": "bytes32",
          "name": "role",
          "type": "bytes32"
        },
        {
          "internalType": "address",
          "name": "account",
          "type": "address"
        }
      ],
      "name": "renounceRole",
      "outputs": [],
      "stateMutability": "nonpayable",
      "type": "function"
    },
    {
      "inputs": [
        {
          "internalType": "address",
          "name": "layer2",
          "type": "address"
        },
        {
          "internalType": "address",
          "name": "account",
          "type": "address"
        },
        {
          "internalType": "uint256",
          "name": "amount",
          "type": "uint256"
        },
        {
          "internalType": "uint256",
          "name": "delayBlock",
          "type": "uint256"
        }
      ],
      "name": "requestWithdrawalWithDelay",
      "outputs": [
        {
          "internalType": "bool",
          "name": "",
          "type": "bool"
        }
      ],
      "stateMutability": "nonpayable",
      "type": "function"
    },
    {
      "inputs": [
        {
          "internalType": "bytes32",
          "name": "role",
          "type": "bytes32"
        },
        {
          "internalType": "address",
          "name": "account",
          "type": "address"
        }
      ],
      "name": "revokeRole",
      "outputs": [],
      "stateMutability": "nonpayable",
      "type": "function"
    },
    {
      "inputs": [],
      "name": "seigManager",
      "outputs": [
        {
          "internalType": "address",
          "name": "",
          "type": "address"
        }
      ],
      "stateMutability": "view",
      "type": "function"
    },
    {
      "inputs": [
        {
          "internalType": "bytes4",
          "name": "",
          "type": "bytes4"
        }
      ],
      "name": "selectorImplementation",
      "outputs": [
        {
          "internalType": "address",
          "name": "",
          "type": "address"
        }
      ],
      "stateMutability": "view",
      "type": "function"
    },
    {
      "inputs": [
        {
          "internalType": "uint256",
          "name": "globalWithdrawalDelay_",
          "type": "uint256"
        }
      ],
      "name": "setGlobalWithdrawalDelay",
      "outputs": [],
      "stateMutability": "nonpayable",
      "type": "function"
    },
    {
      "inputs": [
        {
          "internalType": "address",
          "name": "oldDepositManager_",
          "type": "address"
        }
      ],
      "name": "setOldDepositManager",
      "outputs": [],
      "stateMutability": "nonpayable",
      "type": "function"
    },
    {
      "inputs": [
        {
          "internalType": "address",
          "name": "seigManager_",
          "type": "address"
        }
      ],
      "name": "setSeigManager",
      "outputs": [],
      "stateMutability": "nonpayable",
      "type": "function"
    },
    {
      "inputs": [
        {
          "internalType": "bytes4",
          "name": "interfaceId",
          "type": "bytes4"
        }
      ],
      "name": "supportsInterface",
      "outputs": [
        {
          "internalType": "bool",
          "name": "",
          "type": "bool"
        }
      ],
      "stateMutability": "view",
      "type": "function"
    },
    {
      "inputs": [
        {
          "internalType": "address",
          "name": "newAdmin",
          "type": "address"
        }
      ],
      "name": "transferAdmin",
      "outputs": [],
      "stateMutability": "nonpayable",
      "type": "function"
    },
    {
      "inputs": [
        {
          "internalType": "address",
          "name": "newAdmin",
          "type": "address"
        }
      ],
      "name": "transferOwnership",
      "outputs": [],
      "stateMutability": "nonpayable",
      "type": "function"
    },
    {
      "inputs": [
        {
          "internalType": "address",
          "name": "",
          "type": "address"
        }
      ],
      "name": "withdrawalDelay",
      "outputs": [
        {
          "internalType": "uint256",
          "name": "",
          "type": "uint256"
        }
      ],
      "stateMutability": "view",
      "type": "function"
    },
    {
      "inputs": [
        {
          "internalType": "address",
          "name": "layer2",
          "type": "address"
        },
        {
          "internalType": "address",
          "name": "account",
          "type": "address"
        },
        {
          "internalType": "uint256",
          "name": "index",
          "type": "uint256"
        }
      ],
      "name": "withdrawalRequest",
      "outputs": [
        {
          "internalType": "uint128",
          "name": "withdrawableBlockNumber",
          "type": "uint128"
        },
        {
          "internalType": "uint128",
          "name": "amount",
          "type": "uint128"
        },
        {
          "internalType": "bool",
          "name": "processed",
          "type": "bool"
        }
      ],
      "stateMutability": "view",
      "type": "function"
    },
    {
      "inputs": [
        {
          "internalType": "address",
          "name": "layer2",
          "type": "address"
        },
        {
          "internalType": "address",
          "name": "account",
          "type": "address"
        }
      ],
      "name": "withdrawalRequestIndex",
      "outputs": [
        {
          "internalType": "uint256",
          "name": "index",
          "type": "uint256"
        }
      ],
      "stateMutability": "view",
      "type": "function"
    },
    {
      "inputs": [],
      "name": "wton",
      "outputs": [
        {
          "internalType": "address",
          "name": "",
          "type": "address"
        }
      ],
      "stateMutability": "view",
      "type": "function"
    }
  ],
  "bytecode": "0x608060405234801561001057600080fd5b506120a6806100206000396000f3fe608060405234801561001057600080fd5b50600436106102f35760003560e01c806370480275116101915780639d91b87b116100e3578063b911135f11610097578063d539139311610071578063d539139314610804578063d547741f1461082b578063f2fde38b1461083e57600080fd5b8063b911135f14610779578063c647f26e146107a2578063d285f78c146107db57600080fd5b8063a217fddf116100c8578063a217fddf14610735578063a35439891461073d578063a79da3411461076657600080fd5b80639d91b87b146106d3578063a0b2a9131461070c57600080fd5b80638af4a948116101455780638fbef2d01161011f5780638fbef2d01461064357806391d14854146106875780639577d572146106c057600080fd5b80638af4a948146105d25780638d62d949146105fb5780638f32d59b1461060c57600080fd5b806375829def1161017657806375829def1461059b5780637657f20a146105ae5780637b103999146105c157600080fd5b80637048027514610580578063715018a61461059357600080fd5b80632d2fab941161024a57806350d2a276116101fe57806363a8fd89116101d857806363a8fd89146105595780636ec3d5ae146105665780636fb7f5581461056f57600080fd5b806350d2a276146104fa578063530b97a414610523578063550d01a31461053657600080fd5b80633117e1151161022f5780633117e115146104b457806336568abe146104c75780634ce97036146104da57600080fd5b80632d2fab94146104685780632f2ff15d146104a157600080fd5b80632153c239116102ac57806324d7806c1161028657806324d7806c146104095780632638fdf51461041c5780632a49d1831461045557600080fd5b80632153c239146103a8578063248a9ca3146103d357806324b2ffcd146103f657600080fd5b806301ffc9a7116102dd57806301ffc9a71461035d5780631785f53c14610380578063204ff0bd1461039557600080fd5b806255f5c1146102f8578063010ca39014610334575b600080fd5b610321610306366004611b5c565b6001600160a01b03166000908152600c602052604090205490565b6040519081526020015b60405180910390f35b610321610342366004611b5c565b6001600160a01b03166000908152600b602052604090205490565b61037061036b366004611b77565b610851565b604051901515815260200161032b565b61039361038e366004611b5c565b610862565b005b6103706103a3366004611ba1565b61089e565b6009546103bb906001600160a01b031681565b6040516001600160a01b03909116815260200161032b565b6103216103e1366004611bcb565b60009081526005602052604090206001015490565b610370610404366004611cba565b610a15565b610370610417366004611b5c565b610bdc565b61032161042a366004611d8c565b6001600160a01b039182166000908152600d6020908152604080832093909416825291909152205490565b610370610463366004611dbf565b610c1c565b610321610476366004611d8c565b6001600160a01b039182166000908152600a6020908152604080832093909416825291909152205490565b6103936104af366004611e01565b610c58565b6103706104c2366004611b5c565b610c82565b6103936104d5366004611e01565b610d25565b6103216104e8366004611b5c565b60166020526000908152604090205481565b6103bb610508366004611b77565b6003602052600090815260409020546001600160a01b031681565b610393610531366004611e24565b610db1565b610370610544366004611b5c565b60026020526000908152604090205460ff1681565b6000546103709060ff1681565b61032160155481565b6008546001600160a01b03166103bb565b61039361058e366004611b5c565b610e70565b610393610ea0565b6103936105a9366004611b5c565b610ed2565b6103936105bc366004611b5c565b610fbb565b6007546001600160a01b03166103bb565b6103216105e0366004611b5c565b6001600160a01b031660009081526011602052604090205490565b6006546001600160a01b03166103bb565b3360009081527f05b8ccbb9d4d8fb16ea74ce3c29a41f1b461fbdaff4714a0d9a8eb05499746bc602052604090205460ff16610370565b610656610651366004611e82565b611002565b604080516fffffffffffffffffffffffffffffffff948516815293909216602084015215159082015260600161032b565b610370610695366004611e01565b60009182526005602090815260408084206001600160a01b0393909316845291905290205460ff1690565b6103936106ce366004611b5c565b611121565b6103216106e1366004611d8c565b6001600160a01b03918216600090815260106020908152604080832093909416825291909152205490565b61032161071a366004611b5c565b6001600160a01b03166000908152600f602052604090205490565b610321600081565b61032161074b366004611b5c565b6001600160a01b031660009081526012602052604090205490565b610393610774366004611bcb565b611168565b6103bb610787366004611bcb565b6001602052600090815260409020546001600160a01b031681565b6103216107b0366004611d8c565b6001600160a01b03918216600090815260146020908152604080832093909416825291909152205490565b6103216107e9366004611b5c565b6001600160a01b03166000908152600e602052604090205490565b6103217ff0887ba65ee2024ea881d91b74c2450ef19e1557f03bed3ea9f16b037cbe2dc981565b610393610839366004611e01565b611192565b61039361084c366004611b5c565b6111b7565b600061085c826111e5565b92915050565b61086b33610bdc565b6108905760405162461bcd60e51b815260040161088790611ebe565b60405180910390fd5b61089b600082610d25565b50565b60006108a933610bdc565b6108c55760405162461bcd60e51b815260040161088790611ebe565b6006546009546040516370a0823160e01b81526001600160a01b039182166004820152849291909116906370a0823190602401602060405180830381865afa158015610915573d6000803e3d6000fd5b505050506040513d601f19601f820116820180604052508101906109399190611f00565b10156109975760405162461bcd60e51b815260206004820152602760248201527f6578636365656420746865206f6c644465706f7369744d616e6167657227732060448201526662616c616e636560c81b6064820152608401610887565b60095460405163da95ebf760e01b81526001600160a01b038581166004830152602482018590529091169063da95ebf7906044016020604051808303816000875af11580156109ea573d6000803e3d6000fd5b505050506040513d601f19601f82011682018060405250810190610a0e9190611f19565b9392505050565b6000610a2033610bdc565b610a3c5760405162461bcd60e51b815260040161088790611ebe565b8251600003610a7a5760405162461bcd60e51b815260206004820152600a6024820152691b9bc81858d8dbdd5b9d60b21b6044820152606401610887565b8151835114610acb5760405162461bcd60e51b815260206004820152600b60248201527f77726f6e67206c656e74680000000000000000000000000000000000000000006044820152606401610887565b60005b8351811015610bd15760006001600160a01b0316848281518110610af457610af4611f3b565b60200260200101516001600160a01b031614158015610b2d5750828181518110610b2057610b20611f3b565b6020026020010151600014155b610b795760405162461bcd60e51b815260206004820152601b60248201527f7a65726f20616d6f756e74206f72207a65726f206164647265737300000000006044820152606401610887565b610bb685858381518110610b8f57610b8f611f3b565b6020026020010151858481518110610ba957610ba9611f3b565b602002602001015161120a565b610bbf57600080fd5b80610bc981611f67565b915050610ace565b506001949350505050565b6001600160a01b03811660009081527f05b8ccbb9d4d8fb16ea74ce3c29a41f1b461fbdaff4714a0d9a8eb05499746bc602052604081205460ff1661085c565b6000610c2733610bdc565b610c435760405162461bcd60e51b815260040161088790611ebe565b610c4f85858585611411565b95945050505050565b600082815260056020526040902060010154610c738161172b565b610c7d8383611735565b505050565b6000610c8d33610bdc565b610ca95760405162461bcd60e51b815260040161088790611ebe565b600954604051636105226360e11b81526001600160a01b038481166004830152600060248301529091169063c20a44c6906044016020604051808303816000875af1158015610cfc573d6000803e3d6000fd5b505050506040513d601f19601f8201168201806040525081019061085c9190611f19565b919050565b6001600160a01b0381163314610da35760405162461bcd60e51b815260206004820152602f60248201527f416363657373436f6e74726f6c3a2063616e206f6e6c792072656e6f756e636560448201527f20726f6c657320666f722073656c6600000000000000000000000000000000006064820152608401610887565b610dad82826117d7565b5050565b6006546001600160a01b031615610e0a5760405162461bcd60e51b815260206004820152601360248201527f616c726561647920696e697469616c697a6564000000000000000000000000006044820152606401610887565b600680546001600160a01b038088166001600160a01b031992831617909255600780548784169083161790556008805486841690831617905560158490556009805492841692909116919091179055610e69632139e50b60e11b61185a565b5050505050565b610e7933610bdc565b610e955760405162461bcd60e51b815260040161088790611ebe565b61089b600082610c58565b610ea933610bdc565b610ec55760405162461bcd60e51b815260040161088790611ebe565b610ed0600033610d25565b565b610edb33610bdc565b610ef75760405162461bcd60e51b815260040161088790611ebe565b6001600160a01b038116610f4d5760405162461bcd60e51b815260206004820152601860248201527f41636365737369626c653a207a65726f206164647265737300000000000000006044820152606401610887565b6001600160a01b0381163303610fa55760405162461bcd60e51b815260206004820152601660248201527f41636365737369626c653a2073616d652061646d696e000000000000000000006044820152606401610887565b610fb0600082610c58565b61089b600033610d25565b610fc433610bdc565b610fe05760405162461bcd60e51b815260040161088790611ebe565b600880546001600160a01b0319166001600160a01b0392909216919091179055565b6001600160a01b03808416600090815260136020908152604080832093861683529290529081208054829182918590811061103f5761103f611f3b565b600091825260208083206002909202909101546001600160a01b03808a168452601383526040808520918a1685529252912080546fffffffffffffffffffffffffffffffff9092169450908590811061109a5761109a611f3b565b60009182526020808320600292909202909101546001600160a01b038981168452601383526040808520918a168552925291208054600160801b9092046fffffffffffffffffffffffffffffffff16935090859081106110fc576110fc611f3b565b600091825260209091206001600290920201015492969195505060ff90911692509050565b61112a33610bdc565b6111465760405162461bcd60e51b815260040161088790611ebe565b600980546001600160a01b0319166001600160a01b0392909216919091179055565b61117133610bdc565b61118d5760405162461bcd60e51b815260040161088790611ebe565b601555565b6000828152600560205260409020600101546111ad8161172b565b610c7d83836117d7565b6111c033610bdc565b6111dc5760405162461bcd60e51b815260040161088790611ebe565b61089b81610ed2565b60006001600160e01b03198216637965db0b60e01b148061085c575061085c826118d9565b600754604051630c39b8b760e31b81526001600160a01b03808616600483015260009286929116906361cdc5b890602401602060405180830381865afa158015611258573d6000803e3d6000fd5b505050506040513d601f19601f8201168201806040525081019061127c9190611f19565b61128557600080fd5b6001600160a01b038086166000908152600a60209081526040808320938816835292905220546112b6908490611f80565b6001600160a01b038087166000818152600a60209081526040808320948a16835293815283822094909455908152600b9092529020546112f7908490611f80565b6001600160a01b038087166000908152600b60209081526040808320949094559187168152600c909152205461132e908490611f80565b6001600160a01b038086166000818152600c6020908152604091829020949094558051918252928101869052908716917f8752a472e571a816aea92eec8dae9baf628e840f4929fbcc2d155e6233ff68a7910160405180910390a2600854604051630412c6d560e41b81526001600160a01b0387811660048301528681166024830152604482018690529091169063412c6d50906064016020604051808303816000875af11580156113e4573d6000803e3d6000fd5b505050506040513d601f19601f820116820180604052508101906114089190611f19565b610bd157600080fd5b600754604051630c39b8b760e31b81526001600160a01b03808716600483015260009287929116906361cdc5b890602401602060405180830381865afa15801561145f573d6000803e3d6000fd5b505050506040513d601f19601f820116820180604052508101906114839190611f19565b61148c57600080fd5b600084116114ec5760405162461bcd60e51b815260206004820152602760248201527f4465706f7369744d616e616765723a20616d6f756e74206d757374206e6f74206044820152666265207a65726f60c81b6064820152608401610887565b6001600160a01b038087166000908152601360209081526040808320938916835292905281902081516060810190925290806115288643611f80565b6fffffffffffffffffffffffffffffffff9081168252878116602080840191909152600060409384018190528554600181810188559682528282208651878501518616600160801b0295169490941760029091029093019283559383015191909401805491151560ff199092169190911790556001600160a01b03808a168352600d8452818320908916835290925220546115c4908590611f80565b6001600160a01b038088166000818152600d60209081526040808320948b16835293815283822094909455908152600e909252902054611605908590611f80565b6001600160a01b038088166000908152600e60209081526040808320949094559188168152600f909152205461163c908590611f80565b6001600160a01b038087166000818152600f6020908152604091829020949094558051918252928101879052908816917f04c56a409d50971e45c5a2d96e5d557d2b0f1d66d40f14b141e4c958b0f39b32910160405180910390a2600854604051637c287fd560e11b81526001600160a01b0388811660048301528781166024830152604482018790529091169063f850ffaa906064016020604051808303816000875af11580156116f2573d6000803e3d6000fd5b505050506040513d601f19601f820116820180604052508101906117169190611f19565b61171f57600080fd5b50600195945050505050565b61089b8133611915565b60008281526005602090815260408083206001600160a01b038516845290915290205460ff16610dad5760008281526005602090815260408083206001600160a01b03851684529091529020805460ff191660011790556117933390565b6001600160a01b0316816001600160a01b0316837f2f8788117e7eff1d82e926ec794901d17c78024a50270940304540a733656f0d60405160405180910390a45050565b60008281526005602090815260408083206001600160a01b038516845290915290205460ff1615610dad5760008281526005602090815260408083206001600160a01b0385168085529252808320805460ff1916905551339285917ff6391f5c32d9c69d2a47ea670b442974b53935d1edc7fd64eb21e047a839171b9190a45050565b6001600160e01b031980821690036118b45760405162461bcd60e51b815260206004820152601c60248201527f4552433136353a20696e76616c696420696e74657266616365206964000000006044820152606401610887565b6001600160e01b0319166000908152600460205260409020805460ff19166001179055565b60006301ffc9a760e01b6001600160e01b03198316148061085c5750506001600160e01b03191660009081526004602052604090205460ff1690565b60008281526005602090815260408083206001600160a01b038516845290915290205460ff16610dad576119488161198a565b61195383602061199c565b604051602001611964929190611fb7565b60408051601f198184030181529082905262461bcd60e51b825261088791600401612038565b606061085c6001600160a01b03831660145b606060006119ab83600261206b565b6119b6906002611f80565b67ffffffffffffffff8111156119ce576119ce611be4565b6040519080825280601f01601f1916602001820160405280156119f8576020820181803683370190505b509050600360fc1b81600081518110611a1357611a13611f3b565b60200101906001600160f81b031916908160001a905350600f60fb1b81600181518110611a4257611a42611f3b565b60200101906001600160f81b031916908160001a9053506000611a6684600261206b565b611a71906001611f80565b90505b6001811115611af6577f303132333435363738396162636465660000000000000000000000000000000085600f1660108110611ab257611ab2611f3b565b1a60f81b828281518110611ac857611ac8611f3b565b60200101906001600160f81b031916908160001a90535060049490941c93611aef81612082565b9050611a74565b508315610a0e5760405162461bcd60e51b815260206004820181905260248201527f537472696e67733a20686578206c656e67746820696e73756666696369656e746044820152606401610887565b80356001600160a01b0381168114610d2057600080fd5b600060208284031215611b6e57600080fd5b610a0e82611b45565b600060208284031215611b8957600080fd5b81356001600160e01b031981168114610a0e57600080fd5b60008060408385031215611bb457600080fd5b611bbd83611b45565b946020939093013593505050565b600060208284031215611bdd57600080fd5b5035919050565b634e487b7160e01b600052604160045260246000fd5b604051601f8201601f1916810167ffffffffffffffff81118282101715611c2357611c23611be4565b604052919050565b600067ffffffffffffffff821115611c4557611c45611be4565b5060051b60200190565b600082601f830112611c6057600080fd5b81356020611c75611c7083611c2b565b611bfa565b82815260059290921b84018101918181019086841115611c9457600080fd5b8286015b84811015611caf5780358352918301918301611c98565b509695505050505050565b600080600060608486031215611ccf57600080fd5b611cd884611b45565b925060208085013567ffffffffffffffff80821115611cf657600080fd5b818701915087601f830112611d0a57600080fd5b8135611d18611c7082611c2b565b81815260059190911b8301840190848101908a831115611d3757600080fd5b938501935b82851015611d5c57611d4d85611b45565b82529385019390850190611d3c565b965050506040870135925080831115611d7457600080fd5b5050611d8286828701611c4f565b9150509250925092565b60008060408385031215611d9f57600080fd5b611da883611b45565b9150611db660208401611b45565b90509250929050565b60008060008060808587031215611dd557600080fd5b611dde85611b45565b9350611dec60208601611b45565b93969395505050506040820135916060013590565b60008060408385031215611e1457600080fd5b82359150611db660208401611b45565b600080600080600060a08688031215611e3c57600080fd5b611e4586611b45565b9450611e5360208701611b45565b9350611e6160408701611b45565b925060608601359150611e7660808701611b45565b90509295509295909350565b600080600060608486031215611e9757600080fd5b611ea084611b45565b9250611eae60208501611b45565b9150604084013590509250925092565b60208082526022908201527f41636365737369626c653a2043616c6c6572206973206e6f7420616e2061646d60408201526134b760f11b606082015260800190565b600060208284031215611f1257600080fd5b5051919050565b600060208284031215611f2b57600080fd5b81518015158114610a0e57600080fd5b634e487b7160e01b600052603260045260246000fd5b634e487b7160e01b600052601160045260246000fd5b600060018201611f7957611f79611f51565b5060010190565b8082018082111561085c5761085c611f51565b60005b83811015611fae578181015183820152602001611f96565b50506000910152565b7f416363657373436f6e74726f6c3a206163636f756e7420000000000000000000815260008351611fef816017850160208801611f93565b7f206973206d697373696e6720726f6c6520000000000000000000000000000000601791840191820152835161202c816028840160208801611f93565b01602801949350505050565b6020815260008251806020840152612057816040850160208701611f93565b601f01601f19169190910160400192915050565b808202811582820484141761085c5761085c611f51565b60008161209157612091611f51565b50600019019056fea164736f6c6343000813000a",
  "linkReferences": {},
  "deployedLinkReferences": {}
}