{
  "_format": "hh-sol-artifact-1",
  "contractName": "SeigManager",
  "sourceName": "contracts/stake/managers/SeigManager.sol",
  "abi": [
    {
      "anonymous": false,
      "inputs": [
        {
          "indexed": false,
          "internalType": "address",
          "name": "layer2",
          "type": "address"
        },
        {
          "indexed": false,
          "internalType": "uint256",
          "name": "seigs",
          "type": "uint256"
        },
        {
          "indexed": false,
          "internalType": "uint256",
          "name": "operatorSeigs",
          "type": "uint256"
        },
        {
          "indexed": false,
          "internalType": "uint256",
          "name": "nextTotalSupply",
          "type": "uint256"
        },
        {
          "indexed": false,
          "internalType": "uint256",
          "name": "prevTotalSupply",
          "type": "uint256"
        }
      ],
      "name": "AddedSeigAtLayer",
      "type": "event"
    },
    {
      "anonymous": false,
      "inputs": [
        {
          "indexed": true,
          "internalType": "address",
          "name": "layer2",
          "type": "address"
        },
        {
          "indexed": false,
          "internalType": "address",
          "name": "coinage",
          "type": "address"
        }
      ],
      "name": "CoinageCreated",
      "type": "event"
    },
    {
      "anonymous": false,
      "inputs": [
        {
          "indexed": true,
          "internalType": "address",
          "name": "layer2",
          "type": "address"
        }
      ],
      "name": "Comitted",
      "type": "event"
    },
    {
      "anonymous": false,
      "inputs": [
        {
          "indexed": true,
          "internalType": "address",
          "name": "layer2",
          "type": "address"
        },
        {
          "indexed": false,
          "internalType": "uint256",
          "name": "previousRate",
          "type": "uint256"
        },
        {
          "indexed": false,
          "internalType": "uint256",
          "name": "newRate",
          "type": "uint256"
        }
      ],
      "name": "CommissionRateSet",
      "type": "event"
    },
    {
      "anonymous": false,
      "inputs": [
        {
          "indexed": false,
          "internalType": "uint256",
          "name": "snapshotId",
          "type": "uint256"
        }
      ],
      "name": "OnSnapshot",
      "type": "event"
    },
    {
      "anonymous": false,
      "inputs": [
        {
          "indexed": false,
          "internalType": "address",
          "name": "account",
          "type": "address"
        }
      ],
      "name": "Paused",
      "type": "event"
    },
    {
      "anonymous": false,
      "inputs": [
        {
          "indexed": true,
          "internalType": "bytes32",
          "name": "role",
          "type": "bytes32"
        },
        {
          "indexed": true,
          "internalType": "bytes32",
          "name": "previousAdminRole",
          "type": "bytes32"
        },
        {
          "indexed": true,
          "internalType": "bytes32",
          "name": "newAdminRole",
          "type": "bytes32"
        }
      ],
      "name": "RoleAdminChanged",
      "type": "event"
    },
    {
      "anonymous": false,
      "inputs": [
        {
          "indexed": true,
          "internalType": "bytes32",
          "name": "role",
          "type": "bytes32"
        },
        {
          "indexed": true,
          "internalType": "address",
          "name": "account",
          "type": "address"
        },
        {
          "indexed": true,
          "internalType": "address",
          "name": "sender",
          "type": "address"
        }
      ],
      "name": "RoleGranted",
      "type": "event"
    },
    {
      "anonymous": false,
      "inputs": [
        {
          "indexed": true,
          "internalType": "bytes32",
          "name": "role",
          "type": "bytes32"
        },
        {
          "indexed": true,
          "internalType": "address",
          "name": "account",
          "type": "address"
        },
        {
          "indexed": true,
          "internalType": "address",
          "name": "sender",
          "type": "address"
        }
      ],
      "name": "RoleRevoked",
      "type": "event"
    },
    {
      "anonymous": false,
      "inputs": [
        {
          "indexed": true,
          "internalType": "address",
          "name": "layer2",
          "type": "address"
        },
        {
          "indexed": false,
          "internalType": "uint256",
          "name": "totalSeig",
          "type": "uint256"
        },
        {
          "indexed": false,
          "internalType": "uint256",
          "name": "stakedSeig",
          "type": "uint256"
        },
        {
          "indexed": false,
          "internalType": "uint256",
          "name": "unstakedSeig",
          "type": "uint256"
        },
        {
          "indexed": false,
          "internalType": "uint256",
          "name": "powertonSeig",
          "type": "uint256"
        },
        {
          "indexed": false,
          "internalType": "uint256",
          "name": "daoSeig",
          "type": "uint256"
        },
        {
          "indexed": false,
          "internalType": "uint256",
          "name": "pseig",
          "type": "uint256"
        }
      ],
      "name": "SeigGiven",
      "type": "event"
    },
    {
      "anonymous": false,
      "inputs": [
        {
          "indexed": false,
          "internalType": "uint256",
          "name": "daoSeigRate",
          "type": "uint256"
        }
      ],
      "name": "SetDaoSeigRate",
      "type": "event"
    },
    {
      "anonymous": false,
      "inputs": [
        {
          "indexed": false,
          "internalType": "uint256",
          "name": "powerTONSeigRate",
          "type": "uint256"
        }
      ],
      "name": "SetPowerTONSeigRate",
      "type": "event"
    },
    {
      "anonymous": false,
      "inputs": [
        {
          "indexed": false,
          "internalType": "uint256",
          "name": "pseigRate",
          "type": "uint256"
        }
      ],
      "name": "SetPseigRate",
      "type": "event"
    },
    {
      "anonymous": false,
      "inputs": [
        {
          "indexed": false,
          "internalType": "address",
          "name": "account",
          "type": "address"
        }
      ],
      "name": "Unpaused",
      "type": "event"
    },
    {
      "anonymous": false,
      "inputs": [
        {
          "indexed": false,
          "internalType": "uint256",
          "name": "coinageBurnAmount",
          "type": "uint256"
        },
        {
          "indexed": false,
          "internalType": "uint256",
          "name": "totBurnAmount",
          "type": "uint256"
        }
      ],
      "name": "UnstakeLog",
      "type": "event"
    },
    {
      "inputs": [],
      "name": "CHALLENGER_ROLE",
      "outputs": [
        {
          "internalType": "bytes32",
          "name": "",
          "type": "bytes32"
        }
      ],
      "stateMutability": "view",
      "type": "function"
    },
    {
      "inputs": [],
      "name": "DEFAULT_ADMIN_ROLE",
      "outputs": [
        {
          "internalType": "bytes32",
          "name": "",
          "type": "bytes32"
        }
      ],
      "stateMutability": "view",
      "type": "function"
    },
    {
      "inputs": [],
      "name": "DEFAULT_FACTOR",
      "outputs": [
        {
          "internalType": "uint256",
          "name": "",
          "type": "uint256"
        }
      ],
      "stateMutability": "pure",
      "type": "function"
    },
    {
      "inputs": [],
      "name": "MAX_VALID_COMMISSION",
      "outputs": [
        {
          "internalType": "uint256",
          "name": "",
          "type": "uint256"
        }
      ],
      "stateMutability": "view",
      "type": "function"
    },
    {
      "inputs": [],
      "name": "MINTER_ROLE",
      "outputs": [
        {
          "internalType": "bytes32",
          "name": "",
          "type": "bytes32"
        }
      ],
      "stateMutability": "view",
      "type": "function"
    },
    {
      "inputs": [],
      "name": "MIN_VALID_COMMISSION",
      "outputs": [
        {
          "internalType": "uint256",
          "name": "",
          "type": "uint256"
        }
      ],
      "stateMutability": "view",
      "type": "function"
    },
    {
      "inputs": [],
      "name": "OPERATOR_ROLE",
      "outputs": [
        {
          "internalType": "bytes32",
          "name": "",
          "type": "bytes32"
        }
      ],
      "stateMutability": "view",
      "type": "function"
    },
    {
      "inputs": [],
      "name": "PAUSE_ROLE",
      "outputs": [
        {
          "internalType": "bytes32",
          "name": "",
          "type": "bytes32"
        }
      ],
      "stateMutability": "view",
      "type": "function"
    },
    {
      "inputs": [],
      "name": "RAY",
      "outputs": [
        {
          "internalType": "uint256",
          "name": "",
          "type": "uint256"
        }
      ],
      "stateMutability": "view",
      "type": "function"
    },
    {
      "inputs": [],
      "name": "accRelativeSeig",
      "outputs": [
        {
          "internalType": "uint256",
          "name": "",
          "type": "uint256"
        }
      ],
      "stateMutability": "view",
      "type": "function"
    },
    {
      "inputs": [
        {
          "internalType": "address",
          "name": "account",
          "type": "address"
        }
      ],
      "name": "addAdmin",
      "outputs": [],
      "stateMutability": "nonpayable",
      "type": "function"
    },
    {
      "inputs": [
        {
          "internalType": "address",
          "name": "account",
          "type": "address"
        }
      ],
      "name": "addChallenger",
      "outputs": [],
      "stateMutability": "nonpayable",
      "type": "function"
    },
    {
      "inputs": [
        {
          "internalType": "address",
          "name": "account",
          "type": "address"
        }
      ],
      "name": "addMinter",
      "outputs": [],
      "stateMutability": "nonpayable",
      "type": "function"
    },
    {
      "inputs": [
        {
          "internalType": "address",
          "name": "account",
          "type": "address"
        }
      ],
      "name": "addOperator",
      "outputs": [],
      "stateMutability": "nonpayable",
      "type": "function"
    },
    {
      "inputs": [
        {
          "internalType": "address",
          "name": "layer2",
          "type": "address"
        },
        {
          "internalType": "address",
          "name": "account",
          "type": "address"
        },
        {
          "internalType": "uint256",
          "name": "amount",
          "type": "uint256"
        }
      ],
      "name": "additionalTotBurnAmount",
      "outputs": [
        {
          "internalType": "uint256",
          "name": "totAmount",
          "type": "uint256"
        }
      ],
      "stateMutability": "view",
      "type": "function"
    },
    {
      "inputs": [],
      "name": "adjustCommissionDelay",
      "outputs": [
        {
          "internalType": "uint256",
          "name": "",
          "type": "uint256"
        }
      ],
      "stateMutability": "view",
      "type": "function"
    },
    {
      "inputs": [
        {
          "internalType": "address",
          "name": "",
          "type": "address"
        }
      ],
      "name": "aliveImplementation",
      "outputs": [
        {
          "internalType": "bool",
          "name": "",
          "type": "bool"
        }
      ],
      "stateMutability": "view",
      "type": "function"
    },
    {
      "inputs": [
        {
          "internalType": "address",
          "name": "layer2",
          "type": "address"
        }
      ],
      "name": "coinages",
      "outputs": [
        {
          "internalType": "address",
          "name": "",
          "type": "address"
        }
      ],
      "stateMutability": "view",
      "type": "function"
    },
    {
      "inputs": [
        {
          "internalType": "address",
          "name": "layer2",
          "type": "address"
        }
      ],
      "name": "commissionRates",
      "outputs": [
        {
          "internalType": "uint256",
          "name": "",
          "type": "uint256"
        }
      ],
      "stateMutability": "view",
      "type": "function"
    },
    {
      "inputs": [],
      "name": "dao",
      "outputs": [
        {
          "internalType": "address",
          "name": "",
          "type": "address"
        }
      ],
      "stateMutability": "view",
      "type": "function"
    },
    {
      "inputs": [],
      "name": "daoSeigRate",
      "outputs": [
        {
          "internalType": "uint256",
          "name": "",
          "type": "uint256"
        }
      ],
      "stateMutability": "view",
      "type": "function"
    },
    {
      "inputs": [
        {
          "internalType": "address",
          "name": "",
          "type": "address"
        }
      ],
      "name": "delayedCommissionBlock",
      "outputs": [
        {
          "internalType": "uint256",
          "name": "",
          "type": "uint256"
        }
      ],
      "stateMutability": "view",
      "type": "function"
    },
    {
      "inputs": [
        {
          "internalType": "address",
          "name": "",
          "type": "address"
        }
      ],
      "name": "delayedCommissionRate",
      "outputs": [
        {
          "internalType": "uint256",
          "name": "",
          "type": "uint256"
        }
      ],
      "stateMutability": "view",
      "type": "function"
    },
    {
      "inputs": [
        {
          "internalType": "address",
          "name": "",
          "type": "address"
        }
      ],
      "name": "delayedCommissionRateNegative",
      "outputs": [
        {
          "internalType": "bool",
          "name": "",
          "type": "bool"
        }
      ],
      "stateMutability": "view",
      "type": "function"
    },
    {
      "inputs": [
        {
          "internalType": "address",
          "name": "layer2",
          "type": "address"
        }
      ],
      "name": "deployCoinage",
      "outputs": [
        {
          "internalType": "bool",
          "name": "",
          "type": "bool"
        }
      ],
      "stateMutability": "nonpayable",
      "type": "function"
    },
    {
      "inputs": [],
      "name": "depositManager",
      "outputs": [
        {
          "internalType": "address",
          "name": "",
          "type": "address"
        }
      ],
      "stateMutability": "view",
      "type": "function"
    },
    {
      "inputs": [],
      "name": "factory",
      "outputs": [
        {
          "internalType": "address",
          "name": "",
          "type": "address"
        }
      ],
      "stateMutability": "view",
      "type": "function"
    },
    {
      "inputs": [
        {
          "internalType": "address",
          "name": "layer2",
          "type": "address"
        }
      ],
      "name": "getOperatorAmount",
      "outputs": [
        {
          "internalType": "uint256",
          "name": "",
          "type": "uint256"
        }
      ],
      "stateMutability": "view",
      "type": "function"
    },
    {
      "inputs": [
        {
          "internalType": "bytes32",
          "name": "role",
          "type": "bytes32"
        }
      ],
      "name": "getRoleAdmin",
      "outputs": [
        {
          "internalType": "bytes32",
          "name": "",
          "type": "bytes32"
        }
      ],
      "stateMutability": "view",
      "type": "function"
    },
    {
      "inputs": [
        {
          "internalType": "bytes32",
          "name": "role",
          "type": "bytes32"
        },
        {
          "internalType": "address",
          "name": "account",
          "type": "address"
        }
      ],
      "name": "grantRole",
      "outputs": [],
      "stateMutability": "nonpayable",
      "type": "function"
    },
    {
      "inputs": [
        {
          "internalType": "bytes32",
          "name": "role",
          "type": "bytes32"
        },
        {
          "internalType": "address",
          "name": "account",
          "type": "address"
        }
      ],
      "name": "hasRole",
      "outputs": [
        {
          "internalType": "bool",
          "name": "",
          "type": "bool"
        }
      ],
      "stateMutability": "view",
      "type": "function"
    },
    {
      "inputs": [
        {
          "internalType": "address",
          "name": "ton_",
          "type": "address"
        },
        {
          "internalType": "address",
          "name": "wton_",
          "type": "address"
        },
        {
          "internalType": "address",
          "name": "registry_",
          "type": "address"
        },
        {
          "internalType": "address",
          "name": "depositManager_",
          "type": "address"
        },
        {
          "internalType": "uint256",
          "name": "seigPerBlock_",
          "type": "uint256"
        },
        {
          "internalType": "address",
          "name": "factory_",
          "type": "address"
        },
        {
          "internalType": "uint256",
          "name": "lastSeigBlock_",
          "type": "uint256"
        }
      ],
      "name": "initialize",
      "outputs": [],
      "stateMutability": "nonpayable",
      "type": "function"
    },
    {
      "inputs": [
        {
          "internalType": "address",
          "name": "account",
          "type": "address"
        }
      ],
      "name": "isAdmin",
      "outputs": [
        {
          "internalType": "bool",
          "name": "",
          "type": "bool"
        }
      ],
      "stateMutability": "view",
      "type": "function"
    },
    {
      "inputs": [
        {
          "internalType": "address",
          "name": "account",
          "type": "address"
        }
      ],
      "name": "isChallenger",
      "outputs": [
        {
          "internalType": "bool",
          "name": "",
          "type": "bool"
        }
      ],
      "stateMutability": "view",
      "type": "function"
    },
    {
      "inputs": [
        {
          "internalType": "address",
          "name": "layer2",
          "type": "address"
        }
      ],
      "name": "isCommissionRateNegative",
      "outputs": [
        {
          "internalType": "bool",
          "name": "",
          "type": "bool"
        }
      ],
      "stateMutability": "view",
      "type": "function"
    },
    {
      "inputs": [
        {
          "internalType": "address",
          "name": "account",
          "type": "address"
        }
      ],
      "name": "isMinter",
      "outputs": [
        {
          "internalType": "bool",
          "name": "",
          "type": "bool"
        }
      ],
      "stateMutability": "view",
      "type": "function"
    },
    {
      "inputs": [
        {
          "internalType": "address",
          "name": "account",
          "type": "address"
        }
      ],
      "name": "isOperator",
      "outputs": [
        {
          "internalType": "bool",
          "name": "",
          "type": "bool"
        }
      ],
      "stateMutability": "view",
      "type": "function"
    },
    {
      "inputs": [],
      "name": "isOwner",
      "outputs": [
        {
          "internalType": "bool",
          "name": "",
          "type": "bool"
        }
      ],
      "stateMutability": "view",
      "type": "function"
    },
    {
      "inputs": [
        {
          "internalType": "address",
          "name": "layer2",
          "type": "address"
        }
      ],
      "name": "lastCommitBlock",
      "outputs": [
        {
          "internalType": "uint256",
          "name": "",
          "type": "uint256"
        }
      ],
      "stateMutability": "view",
      "type": "function"
    },
    {
      "inputs": [],
      "name": "lastSeigBlock",
      "outputs": [
        {
          "internalType": "uint256",
          "name": "",
          "type": "uint256"
        }
      ],
      "stateMutability": "view",
      "type": "function"
    },
    {
      "inputs": [],
      "name": "lastSnapshotId",
      "outputs": [
        {
          "internalType": "uint256",
          "name": "",
          "type": "uint256"
        }
      ],
      "stateMutability": "view",
      "type": "function"
    },
    {
      "inputs": [],
      "name": "minimumAmount",
      "outputs": [
        {
          "internalType": "uint256",
          "name": "",
          "type": "uint256"
        }
      ],
      "stateMutability": "view",
      "type": "function"
    },
    {
      "inputs": [
        {
          "internalType": "address",
          "name": "layer2",
          "type": "address"
        },
        {
          "internalType": "address",
          "name": "account",
          "type": "address"
        },
        {
          "internalType": "uint256",
          "name": "amount",
          "type": "uint256"
        }
      ],
      "name": "onDeposit",
      "outputs": [
        {
          "internalType": "bool",
          "name": "",
          "type": "bool"
        }
      ],
      "stateMutability": "nonpayable",
      "type": "function"
    },
    {
      "inputs": [],
      "name": "onSnapshot",
      "outputs": [
        {
          "internalType": "uint256",
          "name": "snapshotId",
          "type": "uint256"
        }
      ],
      "stateMutability": "nonpayable",
      "type": "function"
    },
    {
      "inputs": [
        {
          "internalType": "address",
          "name": "sender",
          "type": "address"
        },
        {
          "internalType": "address",
          "name": "recipient",
          "type": "address"
        },
        {
          "internalType": "uint256",
          "name": "amount",
          "type": "uint256"
        }
      ],
      "name": "onTransfer",
      "outputs": [
        {
          "internalType": "bool",
          "name": "",
          "type": "bool"
        }
      ],
      "stateMutability": "nonpayable",
      "type": "function"
    },
    {
      "inputs": [
        {
          "internalType": "address",
          "name": "layer2",
          "type": "address"
        },
        {
          "internalType": "address",
          "name": "account",
          "type": "address"
        },
        {
          "internalType": "uint256",
          "name": "amount",
          "type": "uint256"
        }
      ],
      "name": "onWithdraw",
      "outputs": [
        {
          "internalType": "bool",
          "name": "",
          "type": "bool"
        }
      ],
      "stateMutability": "nonpayable",
      "type": "function"
    },
    {
      "inputs": [],
      "name": "pause",
      "outputs": [],
      "stateMutability": "nonpayable",
      "type": "function"
    },
    {
      "inputs": [],
      "name": "pauseProxy",
      "outputs": [
        {
          "internalType": "bool",
          "name": "",
          "type": "bool"
        }
      ],
      "stateMutability": "view",
      "type": "function"
    },
    {
      "inputs": [],
      "name": "paused",
      "outputs": [
        {
          "internalType": "bool",
          "name": "",
          "type": "bool"
        }
      ],
      "stateMutability": "view",
      "type": "function"
    },
    {
      "inputs": [],
      "name": "pausedBlock",
      "outputs": [
        {
          "internalType": "uint256",
          "name": "",
          "type": "uint256"
        }
      ],
      "stateMutability": "view",
      "type": "function"
    },
    {
      "inputs": [],
      "name": "powerTONSeigRate",
      "outputs": [
        {
          "internalType": "uint256",
          "name": "",
          "type": "uint256"
        }
      ],
      "stateMutability": "view",
      "type": "function"
    },
    {
      "inputs": [],
      "name": "powerton",
      "outputs": [
        {
          "internalType": "address",
          "name": "",
          "type": "address"
        }
      ],
      "stateMutability": "view",
      "type": "function"
    },
    {
      "inputs": [],
      "name": "progressSnapshotId",
      "outputs": [
        {
          "internalType": "uint256",
          "name": "",
          "type": "uint256"
        }
      ],
      "stateMutability": "view",
      "type": "function"
    },
    {
      "inputs": [
        {
          "internalType": "uint256",
          "name": "",
          "type": "uint256"
        }
      ],
      "name": "proxyImplementation",
      "outputs": [
        {
          "internalType": "address",
          "name": "",
          "type": "address"
        }
      ],
      "stateMutability": "view",
      "type": "function"
    },
    {
      "inputs": [],
      "name": "registry",
      "outputs": [
        {
          "internalType": "address",
          "name": "",
          "type": "address"
        }
      ],
      "stateMutability": "view",
      "type": "function"
    },
    {
      "inputs": [],
      "name": "relativeSeigRate",
      "outputs": [
        {
          "internalType": "uint256",
          "name": "",
          "type": "uint256"
        }
      ],
      "stateMutability": "view",
      "type": "function"
    },
    {
      "inputs": [
        {
          "internalType": "address",
          "name": "account",
          "type": "address"
        }
      ],
      "name": "removeAdmin",
      "outputs": [],
      "stateMutability": "nonpayable",
      "type": "function"
    },
    {
      "inputs": [
        {
          "internalType": "address",
          "name": "account",
          "type": "address"
        }
      ],
      "name": "removeChallenger",
      "outputs": [],
      "stateMutability": "nonpayable",
      "type": "function"
    },
    {
      "inputs": [
        {
          "internalType": "address",
          "name": "account",
          "type": "address"
        }
      ],
      "name": "removeMinter",
      "outputs": [],
      "stateMutability": "nonpayable",
      "type": "function"
    },
    {
      "inputs": [
        {
          "internalType": "address",
          "name": "account",
          "type": "address"
        }
      ],
      "name": "removeOperator",
      "outputs": [],
      "stateMutability": "nonpayable",
      "type": "function"
    },
    {
      "inputs": [],
      "name": "renounceChallenger",
      "outputs": [],
      "stateMutability": "nonpayable",
      "type": "function"
    },
    {
      "inputs": [
        {
          "internalType": "address",
          "name": "target",
          "type": "address"
        }
      ],
      "name": "renounceMinter",
      "outputs": [],
      "stateMutability": "nonpayable",
      "type": "function"
    },
    {
      "inputs": [],
      "name": "renounceMinter",
      "outputs": [],
      "stateMutability": "nonpayable",
      "type": "function"
    },
    {
      "inputs": [],
      "name": "renounceOperator",
      "outputs": [],
      "stateMutability": "nonpayable",
      "type": "function"
    },
    {
      "inputs": [
        {
          "internalType": "address",
          "name": "target",
          "type": "address"
        }
      ],
      "name": "renounceOwnership",
      "outputs": [],
      "stateMutability": "nonpayable",
      "type": "function"
    },
    {
      "inputs": [],
      "name": "renounceOwnership",
      "outputs": [],
      "stateMutability": "nonpayable",
      "type": "function"
    },
    {
      "inputs": [
        {
          "internalType": "address",
          "name": "target",
          "type": "address"
        }
      ],
      "name": "renouncePauser",
      "outputs": [],
      "stateMutability": "nonpayable",
      "type": "function"
    },
    {
      "inputs": [
        {
          "internalType": "bytes32",
          "name": "role",
          "type": "bytes32"
        },
        {
          "internalType": "address",
          "name": "account",
          "type": "address"
        }
      ],
      "name": "renounceRole",
      "outputs": [],
      "stateMutability": "nonpayable",
      "type": "function"
    },
    {
      "inputs": [],
      "name": "renounceWTONMinter",
      "outputs": [],
      "stateMutability": "nonpayable",
      "type": "function"
    },
    {
      "inputs": [
        {
          "internalType": "address",
          "name": "account",
          "type": "address"
        }
      ],
      "name": "revokeChallenger",
      "outputs": [],
      "stateMutability": "nonpayable",
      "type": "function"
    },
    {
      "inputs": [
        {
          "internalType": "address",
          "name": "account",
          "type": "address"
        }
      ],
      "name": "revokeMinter",
      "outputs": [],
      "stateMutability": "nonpayable",
      "type": "function"
    },
    {
      "inputs": [
        {
          "internalType": "address",
          "name": "account",
          "type": "address"
        }
      ],
      "name": "revokeOperator",
      "outputs": [],
      "stateMutability": "nonpayable",
      "type": "function"
    },
    {
      "inputs": [
        {
          "internalType": "bytes32",
          "name": "role",
          "type": "bytes32"
        },
        {
          "internalType": "address",
          "name": "account",
          "type": "address"
        }
      ],
      "name": "revokeRole",
      "outputs": [],
      "stateMutability": "nonpayable",
      "type": "function"
    },
    {
      "inputs": [],
      "name": "seigPerBlock",
      "outputs": [
        {
          "internalType": "uint256",
          "name": "",
          "type": "uint256"
        }
      ],
      "stateMutability": "view",
      "type": "function"
    },
    {
      "inputs": [
        {
          "internalType": "bytes4",
          "name": "",
          "type": "bytes4"
        }
      ],
      "name": "selectorImplementation",
      "outputs": [
        {
          "internalType": "address",
          "name": "",
          "type": "address"
        }
      ],
      "stateMutability": "view",
      "type": "function"
    },
    {
      "inputs": [
        {
          "internalType": "uint256",
          "name": "adjustDelay_",
          "type": "uint256"
        }
      ],
      "name": "setAdjustDelay",
      "outputs": [],
      "stateMutability": "nonpayable",
      "type": "function"
    },
    {
      "inputs": [
        {
          "internalType": "address",
          "name": "factory_",
          "type": "address"
        }
      ],
      "name": "setCoinageFactory",
      "outputs": [],
      "stateMutability": "nonpayable",
      "type": "function"
    },
    {
      "inputs": [
        {
          "internalType": "address",
          "name": "layer2",
          "type": "address"
        },
        {
          "internalType": "uint256",
          "name": "commissionRate",
          "type": "uint256"
        },
        {
          "internalType": "bool",
          "name": "isCommissionRateNegative_",
          "type": "bool"
        }
      ],
      "name": "setCommissionRate",
      "outputs": [
        {
          "internalType": "bool",
          "name": "",
          "type": "bool"
        }
      ],
      "stateMutability": "nonpayable",
      "type": "function"
    },
    {
      "inputs": [
        {
          "internalType": "address",
          "name": "daoAddress",
          "type": "address"
        }
      ],
      "name": "setDao",
      "outputs": [],
      "stateMutability": "nonpayable",
      "type": "function"
    },
    {
      "inputs": [
        {
          "internalType": "uint256",
          "name": "daoSeigRate_",
          "type": "uint256"
        }
      ],
      "name": "setDaoSeigRate",
      "outputs": [],
      "stateMutability": "nonpayable",
      "type": "function"
    },
    {
      "inputs": [
        {
          "internalType": "address",
          "name": "powerton_",
          "type": "address"
        },
        {
          "internalType": "address",
          "name": "daoAddress",
          "type": "address"
        },
        {
          "internalType": "uint256",
          "name": "powerTONSeigRate_",
          "type": "uint256"
        },
        {
          "internalType": "uint256",
          "name": "daoSeigRate_",
          "type": "uint256"
        },
        {
          "internalType": "uint256",
          "name": "relativeSeigRate_",
          "type": "uint256"
        },
        {
          "internalType": "uint256",
          "name": "adjustDelay_",
          "type": "uint256"
        },
        {
          "internalType": "uint256",
          "name": "minimumAmount_",
          "type": "uint256"
        }
      ],
      "name": "setData",
      "outputs": [],
      "stateMutability": "nonpayable",
      "type": "function"
    },
    {
      "inputs": [
        {
          "internalType": "uint256",
          "name": "minimumAmount_",
          "type": "uint256"
        }
      ],
      "name": "setMinimumAmount",
      "outputs": [],
      "stateMutability": "nonpayable",
      "type": "function"
    },
    {
      "inputs": [
        {
          "internalType": "address",
          "name": "powerton_",
          "type": "address"
        }
      ],
      "name": "setPowerTON",
      "outputs": [],
      "stateMutability": "nonpayable",
      "type": "function"
    },
    {
      "inputs": [
        {
          "internalType": "uint256",
          "name": "powerTONSeigRate_",
          "type": "uint256"
        }
      ],
      "name": "setPowerTONSeigRate",
      "outputs": [],
      "stateMutability": "nonpayable",
      "type": "function"
    },
    {
      "inputs": [
        {
          "internalType": "uint256",
          "name": "pseigRate_",
          "type": "uint256"
        }
      ],
      "name": "setPseigRate",
      "outputs": [],
      "stateMutability": "nonpayable",
      "type": "function"
    },
    {
      "inputs": [
        {
          "internalType": "address",
          "name": "layer2",
          "type": "address"
        },
        {
          "internalType": "address",
          "name": "challenger",
          "type": "address"
        }
      ],
      "name": "slash",
      "outputs": [
        {
          "internalType": "bool",
          "name": "",
          "type": "bool"
        }
      ],
      "stateMutability": "nonpayable",
      "type": "function"
    },
    {
      "inputs": [
        {
          "internalType": "address",
          "name": "account",
          "type": "address"
        }
      ],
      "name": "stakeOf",
      "outputs": [
        {
          "internalType": "uint256",
          "name": "amount",
          "type": "uint256"
        }
      ],
      "stateMutability": "view",
      "type": "function"
    },
    {
      "inputs": [
        {
          "internalType": "address",
          "name": "layer2",
          "type": "address"
        },
        {
          "internalType": "address",
          "name": "account",
          "type": "address"
        }
      ],
      "name": "stakeOf",
      "outputs": [
        {
          "internalType": "uint256",
          "name": "",
          "type": "uint256"
        }
      ],
      "stateMutability": "view",
      "type": "function"
    },
    {
      "inputs": [
        {
          "internalType": "address",
          "name": "account",
          "type": "address"
        },
        {
          "internalType": "uint256",
          "name": "snapshotId",
          "type": "uint256"
        }
      ],
      "name": "stakeOfAt",
      "outputs": [
        {
          "internalType": "uint256",
          "name": "amount",
          "type": "uint256"
        }
      ],
      "stateMutability": "view",
      "type": "function"
    },
    {
      "inputs": [
        {
          "internalType": "address",
          "name": "layer2",
          "type": "address"
        },
        {
          "internalType": "address",
          "name": "account",
          "type": "address"
        },
        {
          "internalType": "uint256",
          "name": "snapshotId",
          "type": "uint256"
        }
      ],
      "name": "stakeOfAt",
      "outputs": [
        {
          "internalType": "uint256",
          "name": "amount",
          "type": "uint256"
        }
      ],
      "stateMutability": "view",
      "type": "function"
    },
    {
      "inputs": [],
      "name": "stakeOfTotal",
      "outputs": [
        {
          "internalType": "uint256",
          "name": "amount",
          "type": "uint256"
        }
      ],
      "stateMutability": "view",
      "type": "function"
    },
    {
      "inputs": [
        {
          "internalType": "uint256",
          "name": "snapshotId",
          "type": "uint256"
        }
      ],
      "name": "stakeOfTotalAt",
      "outputs": [
        {
          "internalType": "uint256",
          "name": "amount",
          "type": "uint256"
        }
      ],
      "stateMutability": "view",
      "type": "function"
    },
    {
      "inputs": [
        {
          "internalType": "bytes4",
          "name": "interfaceId",
          "type": "bytes4"
        }
      ],
      "name": "supportsInterface",
      "outputs": [
        {
          "internalType": "bool",
          "name": "",
          "type": "bool"
        }
      ],
      "stateMutability": "view",
      "type": "function"
    },
    {
      "inputs": [],
      "name": "ton",
      "outputs": [
        {
          "internalType": "address",
          "name": "",
          "type": "address"
        }
      ],
      "stateMutability": "view",
      "type": "function"
    },
    {
      "inputs": [],
      "name": "tot",
      "outputs": [
        {
          "internalType": "address",
          "name": "",
          "type": "address"
        }
      ],
      "stateMutability": "view",
      "type": "function"
    },
    {
      "inputs": [],
      "name": "totalSupplyOfTon",
      "outputs": [
        {
          "internalType": "uint256",
          "name": "tos",
          "type": "uint256"
        }
      ],
      "stateMutability": "view",
      "type": "function"
    },
    {
      "inputs": [
        {
          "internalType": "address",
          "name": "newAdmin",
          "type": "address"
        }
      ],
      "name": "transferAdmin",
      "outputs": [],
      "stateMutability": "nonpayable",
      "type": "function"
    },
    {
      "inputs": [
        {
          "internalType": "address",
          "name": "newSeigManager",
          "type": "address"
        },
        {
          "internalType": "address[]",
          "name": "coinages_",
          "type": "address[]"
        }
      ],
      "name": "transferCoinageOwnership",
      "outputs": [],
      "stateMutability": "nonpayable",
      "type": "function"
    },
    {
      "inputs": [
        {
          "internalType": "address",
          "name": "target",
          "type": "address"
        },
        {
          "internalType": "address",
          "name": "newOwner",
          "type": "address"
        }
      ],
      "name": "transferOwnership",
      "outputs": [],
      "stateMutability": "nonpayable",
      "type": "function"
    },
    {
      "inputs": [
        {
          "internalType": "address",
          "name": "newAdmin",
          "type": "address"
        }
      ],
      "name": "transferOwnership",
      "outputs": [],
      "stateMutability": "nonpayable",
      "type": "function"
    },
    {
      "inputs": [
        {
          "internalType": "address",
          "name": "layer2",
          "type": "address"
        },
        {
          "internalType": "address",
          "name": "account",
          "type": "address"
        }
      ],
      "name": "uncomittedStakeOf",
      "outputs": [
        {
          "internalType": "uint256",
          "name": "",
          "type": "uint256"
        }
      ],
      "stateMutability": "view",
      "type": "function"
    },
    {
      "inputs": [],
      "name": "unpause",
      "outputs": [],
      "stateMutability": "nonpayable",
      "type": "function"
    },
    {
      "inputs": [],
      "name": "unpausedBlock",
      "outputs": [
        {
          "internalType": "uint256",
          "name": "",
          "type": "uint256"
        }
      ],
      "stateMutability": "view",
      "type": "function"
    },
    {
      "inputs": [],
      "name": "updateSeigniorage",
      "outputs": [
        {
          "internalType": "bool",
          "name": "",
          "type": "bool"
        }
      ],
      "stateMutability": "nonpayable",
      "type": "function"
    },
    {
      "inputs": [
        {
          "internalType": "address",
          "name": "layer2",
          "type": "address"
        }
      ],
      "name": "updateSeigniorageLayer",
      "outputs": [
        {
          "internalType": "bool",
          "name": "",
          "type": "bool"
        }
      ],
      "stateMutability": "nonpayable",
      "type": "function"
    },
    {
      "inputs": [],
      "name": "wton",
      "outputs": [
        {
          "internalType": "address",
          "name": "",
          "type": "address"
        }
      ],
      "stateMutability": "view",
      "type": "function"
    }
  ],
  "bytecode": "0x6080806040523461001657614e49908161001c8239f35b600080fdfe608060408181526004918236101561001657600080fd5b600092833560e01c91826301ffc9a7146133455750816303e1cc27146132c35781630ceb67801461320657816313977042146118725781631785f53c146131d85781631cc47890146131b95781631e1f0b601461310c5781632428c628146130ef578163248a9ca3146130c457816324d7806c1461307e57816325374a9a1461305f57816325e90db4146130455781632ab6f8db1461302b5781632d1bdec814612ff05781632f17250a14612fca5781632f2ff15d14612f2f5781633092afd514612f0157816332053c9914612ee25781633284795314612d6957816336568abe14612cd7578163389ed26714612c9c5783826338bf3cfa14612c2c575081633c49117314612bdc5781633e832e1d14612bb35781633f4ba83a14612ae15781634123196f14611f8b578163412c6d50146129165781634162169f146128ed57816341813020146128af5783826341eb24bb1461283f575081634224ed66146125f4578163426233601461247d57816346a99fe7146122f057816348c8577e146122d25781634a393149146122115781634c063c19146121d65781634c75ab9c1461203b57816350d2a27614611ff7578163530adbb414611fce578163550d01a314611f90578163552033c414611f8b57816358d00cd614611f3a5781635998a8d714611f1b5781635a16a41614611edd5781635c975abb14611eb9578382635f112c6814611e49575081635f40a34914611e2a5781636304a62414611e0b57816363a8fd8914611de95781636637b88214611dab5781636c578c1d14611d7d5781636c7ac9d814611d545781636d43542114611cd15781636d70f7ae14611c7d5781637048027514611bda578163715018a614611bb457816375829def14611b97578163764a785614611b515781637aeccce914611a345781637b056c1b146119fc5781637b103999146119d3578163833a774f14611890578163837afbc0146118725781638456cb59146117a25781638bf91dc41461177c5781638d62d949146117535781638f32d59b1461172057816391d14854146116d95781639328f1bc14611665578163983b2d561461161557816398650275146115fb5781639870d7fe146115485781639c877e47146114c6578163a0474ef514611470578163a16d6aa714611447578163a217fddf1461142c578163a415d8dc146113d8578163a7dcc850146113b2578163aa271e1a1461135e578163ac753a7a14611320578163ac893219146112c7578163ac8a584a1461129957838263ae3458f81461121457508163b911135f146111e1578163bb0c8298146111c2578163c45a015514611199578163c59f104614611161578163cbfebe6214611129578163cc48b94714611100578163ce4cb87614611054578163ce6c035514610fc5578163cfbd488514610f75578163d539139314610f4c578163d547741f14610f10578163df7fbef014610ef1578163e2fe8fd114610eb9578163e403483214610e2e578163eeb4a9c814610df3578163f2fde38b14610caf578163f35c89e814610c90578163f5b541a614610c67578163f822934814610c48578163f850ffaa1461095e578163f8951f4614610841578163fa9789c814610587575063fad8b32a146104bb57600080fd5b34610583576020908160031936011261057f576104d66133c5565b906104e86104e333613451565b613b22565b600080516020614dfd833981519152928385526005815261050e6001838720015461348e565b838552600581528185206001600160a01b039093168086529281528185205460ff16610538578480f35b8385526005815281852083865290528320805460ff1916905533917ff6391f5c32d9c69d2a47ea670b442974b53935d1edc7fd64eb21e047a839171b8480a4388080808480f35b8280fd5b5080fd5b8284346107235781600319360112610723576105a16133c5565b906105aa6133e0565b6001600160a01b03928316808352600e6020908152858420548651630a9ee07f60e31b8152919792959081169391929188848481885afa938415610837578694610804575b5087516318160ddd60e01b815289818581895afa9081156107fa57908893929188916107c1575b5060248b84600d54168c51928380926370a0823160e01b998a83528b8301525afa90811561077d5787939285928e928c91610787575b50906106779161067161066c676765c793fa10079d601b1b9889936143cb565b61436f565b0461443e565b9260248d51809481938a8352169b8c8b8301525afa90811561077d57908c9695949392918a91610738575b506106bd916106b8602497989961066c9361443e565b6143cb565b04978752600e855288872054168851958694859384528301525afa91821561072d5780926106f8575b50506106f191613d58565b9051908152f35b9091508482813d8311610726575b6107108183613827565b810103126107235750516106f1856106e6565b80fd5b503d610706565b8451903d90823e3d90fd5b87819395979994969892503d8311610776575b6107558183613827565b81010312610772575190958b9590949093909290916106bd6106a2565b8880fd5b503d61074b565b8b513d8b823e3d90fd5b93505092935081813d83116107ba575b6107a18183613827565b81010312610772578b610677889493869351909161064c565b503d610797565b80929394508b8092503d83116107f3575b6107dc8183613827565b810103126107ef5790879291518b610616565b8680fd5b503d6107d2565b89513d89823e3d90fd5b9093508881813d8311610830575b61081c8183613827565b8101031261082c575192896105ef565b8580fd5b503d610812565b88513d88823e3d90fd5b5050346105835760e036600319011261058357602080916108606133c5565b907f25826073c0320e7bfcef08488f501afb014791143befc0558b6343262751a8768361088b6133e0565b93604435906064359589805260058452858a20338b5284526108b260ff878c205416613b22565b6108e3676765c793fa10079d601b1b6108dc6108d3601b54601c5490613aee565b601d5490613aee565b1115613bf1565b60018060a01b0390816001600160601b0360a01b93168360085416176008551690600954161760095580601b5584601c55608435601d5560a43560165560c435601a558351908152a180518281527f1140c1f14579543e61b599f8f43d0112d66ec1462431e56c97c27b47446a38ac948591a151908152a180f35b90503461057f5761096e3661341c565b9291949060018060a01b039561098987600754163314613caf565b86811693848452602097600e89526109a78189872054161515613c4c565b858552600e89528088862054168851906370a0823160e01b918281528b81602481878b1695868a8301525afa908115610c3e57908a918991610c0d575b5010610bb5578a906109f687876147e3565b610b28575b505050610a088784614484565b9581600d5416610a18888a613aee565b813b15610b24578a5163079cc67960e41b8082526001600160a01b03909716868201908152602081019290925291889183919082908490829060400103925af18015610b1a57610b0b575b508552600e8952878520541691823b15610b075787519081526001600160a01b03909316908301908152602081018690529192918291849182908490829060400103925af1908115610afc5750917f650f673bb96a43afff4620ecc3f3e38e0cbfddebde9894e951ba2ceff7472f6093918593610aed575b50825191825285820152a15160018152f35b610af6906137fd565b38610adb565b8551903d90823e3d90fd5b8480fd5b610b14906137fd565b38610a63565b8a513d89823e3d90fd5b8780fd5b888852600e82526024848c8a205416938c5194859384928352888301525afa908115610bab579088918791610b78575b50610b7091610b6691613d58565b601a541115613cf4565b3889816109fb565b8092508b8092503d8311610ba4575b610b918183613827565b8101031261082c57518790610b70610b58565b503d610b87565b89513d88823e3d90fd5b895162461bcd60e51b81528085018c9052602c60248201527f536569674d616e616765723a20696e73756666696369616e742062616c616e6360448201526b6520746f20756e7374616b6560a01b6064820152608490fd5b8092508d8092503d8311610c37575b610c268183613827565b81010312610b2457899051386109e4565b503d610c1c565b8b513d8a823e3d90fd5b505034610583578160031936011261058357602090601e549051908152f35b50503461058357816003193601126105835760209051600080516020614dfd8339815191528152f35b5050346105835781600319360112610583576020906011549051908152f35b9190503461057f57602080600319360112610def57610ccc6133c5565b610cd86104e333613451565b610ce46104e333613451565b6001600160a01b0316928315610dae57833314610d74575083805260058152610d126001838620015461348e565b83805260058152818420838552815260ff828520541615610d3b575b83610d3833613849565b80f35b8380526005815281842083855290528220805460ff19166001179055339082600080516020614dbd8339815191528180a4388080610d2e565b915162461bcd60e51b815291820152601660248201527520b1b1b2b9b9b4b136329d1039b0b6b29030b236b4b760511b6044820152606490fd5b915162461bcd60e51b815291820152601860248201527f41636365737369626c653a207a65726f206164647265737300000000000000006044820152606490fd5b8380fd5b9190503461057f57602036600319011261057f5760ff610e2791848052600560205280852033865260205284205416613b22565b35601a5580f35b90503461057f57602036600319011261057f577f4f3f4d2a7e076fb16f4fe2fc46ac0a4050623f4a4ba0fb0e9a9d5283f192a090916020913590848052600583528085203386528352610e8660ff8287205416613b22565b610ead676765c793fa10079d601b1b6108dc84610ea8601b54601c5490613aee565b613aee565b81601d5551908152a180f35b5050346105835760203660031901126105835760209181906001600160a01b03610ee16133c5565b1681526018845220549051908152f35b5050346105835781600319360112610583576020906016549051908152f35b9190503461057f578060031936011261057f57610d389135610f476001610f356133e0565b9383875260056020528620015461348e565b613a94565b50503461058357816003193601126105835760209051600080516020614ddd8339815191528152f35b505034610583576020908160031936011261057f57610f926133c5565b90610f9f6104e333613451565b600080516020614ddd833981519152928385526005815261050e6001838720015461348e565b9190503461057f578260031936011261057f57600d5481516318160ddd60e01b81529260209184919082906001600160a01b03165afa91821561104a578392611013575b6020838351908152f35b9091506020813d8211611042575b8161102e60209383613827565b8101031261057f5760209250519038611009565b3d9150611021565b81513d85823e3d90fd5b8383346105835780600319360112610583576024926110716133c5565b6110796133e0565b9060018060a01b0380911685526020958692600e8452828688205416865195869485936370a0823160e01b855216908301525afa9283156110f55780936110c3575b505051908152f35b909192508382813d83116110ee575b6110dc8183613827565b810103126107235750519083806110bb565b503d6110d2565b8251903d90823e3d90fd5b505034610583578160031936011261058357600a5490516001600160a01b039091168152602090f35b5050346105835760203660031901126105835760209181906001600160a01b036111516133c5565b1681526017845220549051908152f35b5050346105835760203660031901126105835760209181906001600160a01b036111896133c5565b168152600f845220549051908152f35b505034610583578160031936011261058357600c5490516001600160a01b039091168152602090f35b505034610583578160031936011261058357602090601a549051908152f35b90503461057f57602036600319011261057f5735825260016020908152918190205490516001600160a01b039091168152f35b92915034611295578260031936011261129557828052600560205281832033845260205261124760ff8385205416613b22565b600b546001600160a01b0316803b15611290578391835180958193639865027560e01b83525af1908115611287575061127e575080f35b610d38906137fd565b513d84823e3d90fd5b505050fd5b5050fd5b833461072357602036600319011261072357610d386112b66133c5565b6112c26104e333613451565b6139da565b5050346105835760203660031901126105835761130260ff6112e76133c5565b92848052600560205280852033865260205284205416613b22565b60018060a01b03166001600160601b0360a01b600c541617600c5580f35b5050346105835760203660031901126105835760209160ff9082906001600160a01b0361134b6133c5565b1681526019855220541690519015158152f35b5050346105835760203660031901126105835760ff8160209361137f6133c5565b600080516020614ddd8339815191528252600586528282206001600160a01b039091168252855220549151911615158152f35b505034610583578160031936011261058357602090516a084595161401484a0000008152f35b5050346105835760203660031901126105835760ff816020936113f96133c5565b600080516020614e1d8339815191528252600586528282206001600160a01b039091168252855220549151911615158152f35b50503461058357816003193601126105835751908152602090f35b505034610583578160031936011261058357600d5490516001600160a01b039091168152602090f35b838334610583576020928360031936011261057f57600d548251630981b24d60e41b81528235928101929092528490829060249082906001600160a01b03165afa9283156110f55780936110c357505051908152f35b90503461057f57602036600319011261057f577f25826073c0320e7bfcef08488f501afb014791143befc0558b6343262751a87691602091359084805260058352808520338652835261151e60ff8287205416613b22565b61153c676765c793fa10079d601b1b6108dc6108d3601c5486613aee565b81601b5551908152a180f35b505034610583576020908160031936011261057f576115656133c5565b906115726104e333613451565b600080516020614dfd83398151915292838552600581526115986001838720015461348e565b838552600581528185206001600160a01b039093168086529281528185205460ff16156115c3578480f35b8385526005815281852083865290528320805460ff191660011790553391600080516020614dbd8339815191528480a4388080808480f35b8334610723578060031936011261072357610d3833613a37565b505034610583576020908160031936011261057f576116326133c5565b9061163f6104e333613451565b600080516020614ddd83398151915292838552600581526115986001838720015461348e565b838334610583576116c06116783661341c565b6001600160a01b039283168652600e602090815285872054865163277166bf60e11b815293851698840198895288820192909252969193879385939216918391829160400190565b03915afa9283156110f55780936110c357505051908152f35b90503461057f578160031936011261057f578160209360ff926116fa6133e0565b90358252600586528282206001600160a01b039091168252855220549151911615158152f35b50503461058357816003193601126105835760ff8183806020955260058552818120338252855220541690519015158152f35b505034610583578160031936011261058357600b5490516001600160a01b039091168152602090f35b50503461058357816003193601126105835760209051676765c793fa10079d601b1b8152f35b90503461057f578260031936011261057f577ffcb9fcbfa83b897fb2d5cf4b58962164105c1e71489a37ef3ae0db3fdce576f6835260056020528183203384526020526117f460ff8385205416613b99565b601f549060ff821661183c57504360125560ff1916600117601f55513381527f62e78cea01bee320cd4e420270b5ea74000d11b0c9f74754ebdbfc544b05a25890602090a180f35b606490602084519162461bcd60e51b8352820152601060248201526f14185d5cd8589b194e881c185d5cd95960821b6044820152fd5b50503461058357816003193601126105835760209081549051908152f35b90503461057f5760209283600319360112610723576118ad6133c5565b6006546001600160a01b0391908216330361199d57811692838352600e865285828685205416156118e1575b855160018152f35b600c548651631dd70c0360e21b81529283918290879087165af1908115611993578692849287927f124cac1e701d08d642237ad795ddd275670e12f2cd956a26709721c68084c2b29691611966575b50868452600f855243838520551691600e845220816001600160601b0360a01b8254161790558451908152a238808080856118d9565b6119869150853d871161198c575b61197e8183613827565b810190613b7a565b38611930565b503d611974565b85513d85823e3d90fd5b845162461bcd60e51b8152808501879052601060248201526f6e6f74206f6e6c79526567697374727960801b6044820152606490fd5b50503461058357816003193601126105835760065490516001600160a01b039091168152602090f35b5050346105835760203660031901126105835760209181906001600160a01b03611a246133c5565b1681526014845220549051908152f35b90503461057f578160031936011261057f57611a4e6133c5565b611a566133e0565b600080516020614e1d8339815191528552600560205283852033865260205260ff848620541615611afe576001600160a01b03918216808652600e6020528486205486939290611aa99084161515613c4c565b813b15610def5783602492875196879586946306394c9b60e01b865216908401525af18015611af25760209350611ae3575b505160018152f35b611aec906137fd565b38611adb565b505051903d90823e3d90fd5b835162461bcd60e51b8152602081850152602760248201527f41757468436f6e74726f6c3a2043616c6c6572206973206e6f74206120636861604482015266363632b733b2b960c91b6064820152608490fd5b505034610583578160031936011261058357338252600e60209081529181902054611b86906001600160a01b03161515613c4c565b611b8e613d65565b90519015158152f35b9190503461057f57602080600319360112610def57610cd86133c5565b8334610723578060031936011261072357611bd16104e333613451565b610d3833613849565b505034610583576020908160031936011261057f57611bf76133c5565b91611c046104e333613451565b83805260058152611c1a6001838620015461348e565b838052600581528184206001600160a01b039093168085529281528184205460ff1615611c45578380f35b8380526005815281842083855290528220805460ff19166001179055339082600080516020614dbd8339815191528180a43880808380f35b5050346105835760203660031901126105835760ff81602093611c9e6133c5565b600080516020614dfd8339815191528252600586528282206001600160a01b039091168252855220549151911615158152f35b9190503461057f578060031936011261057f5782611ced6133c5565b611cf56133e0565b8280526005602052838320338452602052611d1560ff8585205416613b22565b6001600160a01b0391821690813b15610def57836024928651978895869463f2fde38b60e01b865216908401525af1908115611287575061127e575080f35b50503461058357816003193601126105835760075490516001600160a01b039091168152602090f35b833461072357602036600319011261072357610d38611d9a6133c5565b611da66104e333613451565b613938565b50503461058357602036600319011261058357611dcb60ff6112e76133c5565b60018060a01b03166001600160601b0360a01b600954161760095580f35b50503461058357816003193601126105835760ff602092541690519015158152f35b505034610583578160031936011261058357602090601b549051908152f35b5050346105835781600319360112610583576020906010549051908152f35b9291503461129557602036600319011261129557611e656133c5565b8380526005602052828420338552602052611e8560ff8486205416613b22565b6001600160a01b0316803b15611290578391835180958193639865027560e01b83525af1908115611287575061127e575080f35b50503461058357816003193601126105835760209060ff601f541690519015158152f35b5050346105835760203660031901126105835760209160ff9082906001600160a01b03611f086133c5565b1681526015855220541690519015158152f35b505034610583578160031936011261058357602090601c549051908152f35b5050346105835781600319360112610583576020908154907fac3d68540f9902349c72a28dc187ad15b504d68182767a2b00a3db86880507ba838251848152a1611f8382613c3d565b835551908152f35b6133f6565b5050346105835760203660031901126105835760209160ff9082906001600160a01b03611fbb6133c5565b1681526002855220541690519015158152f35b50503461058357816003193601126105835760209051600080516020614e1d8339815191528152f35b90503461057f57602036600319011261057f573563ffffffff60e01b811680910361057f57825260036020908152918190205490516001600160a01b039091168152f35b9190503461057f578060031936011261057f576120566133c5565b6006548251630d42d49760e01b81526020959490928592602480359392916001600160a01b03919082168a888681845afa9788156107fa5787986121a7575b509695949392919085975b8789106120b0578b8b8b51908152f35b909192939495969799895163b7ffb17960e01b81528b878201528c818581865afa90811561077d57888c8f928a89838f82612128998f96839161218a575b50168152600e885220541692519586948593849363277166bf60e11b8552840160209093929193604081019460018060a01b031681520152565b03915afa90811561077d57899161215b575b506121489061214e92613aee565b9a613c3d565b97969594939291906120a0565b90508c81813d8311612183575b6121728183613827565b81010312610772575161214e61213a565b503d612168565b6121a191508a3d8c1161198c5761197e8183613827565b386120ee565b9097508a81813d83116121cf575b6121bf8183613827565b810103126107ef57519638612095565b503d6121b5565b505034610583576020366003190112610583576020916001600160a01b03908290826122006133c5565b168152600e85522054169051908152f35b9050823461072357506122233661341c565b5050600a54336001600160a01b0391821614915081156122c4575b50156122685760208260ff601f54161561225a575b5160018152f35b61226261483d565b50612253565b6020608492519162461bcd60e51b8352820152603160248201527f536569674d616e616765723a206f6e6c7920544f4e206f722057544f4e206361604482015270371031b0b6361037b72a3930b739b332b960791b6064820152fd5b9050600b541633148361223e565b505034610583576020906106f16122e83661341c565b919050614484565b90503461057f5760e036600319011261057f5761230b6133c5565b906123146133e0565b6001600160a01b039290604435848116908190036107ef5760643591858316809303610b245760a4359386851680950361077257600a54908782161580612473575b1561243a5792878096938b96936020966001600160601b0360a01b9b8c9116911617600a551688600b541617600b558760065416176006558660075416176007556084356010558086600c541617600c5584875180948193631dd70c0360e21b83525af1908115612430578691612412575b50169283156123e4575050600d541617600d5560c43560115580f35b906020606492519162461bcd60e51b835282015260086024820152671e995c9bc81d1bdd60c21b6044820152fd5b61242a915060203d811161198c5761197e8183613827565b386123c8565b85513d88823e3d90fd5b885162461bcd60e51b81526020818901526013602482015272185b1c9958591e481a5b9a5d1a585b1a5e9959606a1b6044820152606490fd5b5060115415612356565b838334610583576020928360031936011261057f5761249a6133c5565b6006548351630d42d49760e01b815291929185916001600160a01b0390811688838681845afa9283156125ea5784936125bb575b509080849395949616915b8587106124e95789898951908152f35b90919293949597875163b7ffb17960e01b815289878201526024908b818381875afa908115610b1a57908591889161259e575b50168652600e8b528a848a882054168a51928380926370a0823160e01b8252898c8301525afa908115610bab57869161256f575b5061255e9061256492613aee565b98613c3d565b9594939291906124d9565b90508a81813d8311612597575b6125868183613827565b8101031261082c5751612564612550565b503d61257c565b6125b591508d803d1061198c5761197e8183613827565b8d61251c565b9092508881813d83116125e3575b6125d38183613827565b81010312610def575191896124ce565b503d6125c9565b87513d86823e3d90fd5b90503461057f57606036600319011261057f5761260f6133c5565b6024359160443591821515830361082c576006546001600160a01b0392908316331480156127e8575b156127a5578415801561277a575b1561270457509184917f11841078e38c91feada06e1f8ded3697ab2dadc2583c52b14109b82ccd4f77d7931693848752602096601488528381205492846016549283156000146126c8576126b7935088815260148b52848282205560158b52209060ff801983541691151516179055565b825191825286820152a25160018152f35b6126d56126ff9443613aee565b89825260178c528282205560188b52848282205560198b52209060ff801983541691151516179055565b6126b7565b60a490602087519162461bcd60e51b8352820152604460248201527f536569674d616e616765723a20636f6d6d697373696f6e2072617465206d757360448201527f742062652030206f72206265747765656e20312052415920616e6420302e30316064820152632052415960e01b6084820152fd5b50846a084595161401484a000000111580156126465750676765c793fa10079d601b1b851115612646565b606490602087519162461bcd60e51b8352820152601a60248201527f6e6f74206f6e6c7952656769737472794f724f70657261746f720000000000006044820152fd5b50855163570ca73560e01b815260208183818688165afa80156128355784918991612817575b50163314612638565b61282f915060203d811161198c5761197e8183613827565b3861280e565b87513d8a823e3d90fd5b929150346112955760203660031901126112955761285b6133c5565b838052600560205282842033855260205261287b60ff8486205416613b22565b6001600160a01b0316803b15611290578391835180958193636ef8d66d60e01b83525af1908115611287575061127e575080f35b505034610583576020366003190112610583576128cf60ff6112e76133c5565b60018060a01b03166001600160601b0360a01b600854161760085580f35b50503461058357816003193601126105835760095490516001600160a01b039091168152602090f35b828434610723576129263661341c565b929160018060a01b039561293f87600754163314613caf565b86821696878552602097600e895261295d8289882054161515613c4c565b61296785856147e3565b612a61575b600d5488516340c10f1960e01b8082526001600160a01b03909616858201908152602081018a905290918b91839186169082908b90829060400103925af180156107fa57918a96959493918893612a44575b508252600e86528882205489519485526001600160a01b0390951692840192835260208301979097529195869316918391829060400103925af1908115612a395750612a0c57505160018152f35b612a2b90833d8511612a32575b612a238183613827565b810190613d40565b5082611adb565b503d612a19565b8351903d90823e3d90fd5b612a5a90883d8a11612a3257612a238183613827565b508b6129be565b808652600e8952602489838a892054168a51928380926370a0823160e01b8252878b16898301525afa9081156107fa579088918891612aae575b50612aa991610b6691613aee565b61296c565b8092508b8092503d8311612ada575b612ac78183613827565b810103126107ef57518790612aa9612a9b565b503d612abd565b90503461057f578260031936011261057f577ffcb9fcbfa83b897fb2d5cf4b58962164105c1e71489a37ef3ae0db3fdce576f683526005602052818320338452602052612b3360ff8385205416613b99565b601f549060ff821615612b7957504360135560ff1916601f55513381527f5db9ee0a495bf2e6ff9c91a7834c1ba4fdd244a5e8aa4e537bd38aeae4b073aa90602090a180f35b606490602084519162461bcd60e51b8352820152601460248201527314185d5cd8589b194e881b9bdd081c185d5cd95960621b6044820152fd5b50503461058357816003193601126105835760085490516001600160a01b039091168152602090f35b505034610583576020908160031936011261057f57612bf96133c5565b90612c066104e333613451565b600080516020614e1d833981519152928385526005815261050e6001838720015461348e565b9291503461129557602036600319011261129557612c486133c5565b8380526005602052828420338552602052612c6860ff8486205416613b22565b6001600160a01b0316803b156112905783918351809581936338a80c5360e11b83525af1908115611287575061127e575080f35b505034610583578160031936011261058357602090517ffcb9fcbfa83b897fb2d5cf4b58962164105c1e71489a37ef3ae0db3fdce576f68152f35b83915034610583578260031936011261058357612cf26133e0565b90336001600160a01b03831603612d0e5790610d389135613a94565b608490602085519162461bcd60e51b8352820152602f60248201527f416363657373436f6e74726f6c3a2063616e206f6e6c792072656e6f756e636560448201526e103937b632b9903337b91039b2b63360891b6064820152fd5b9190503461057f578060031936011261057f57612d846133c5565b908360249384359467ffffffffffffffff91828711610def5736602388011215610def5786810135928311610def576005368385831b8a010111610b075784809894985280602052858520338652602052612de460ff8787205416613b22565b6001600160a01b0396871693855b898110612dfd578680f35b8481841b83010135898116809103610b2457803b15610b24578851634c1d96ab60e11b81528581018890528881888183865af18015612ec957612ed3575b50803b15610b24578851639865027560e01b81528881878183865af18015612ec957612eba575b50803b15610b2457878091878b518094819363f2fde38b60e01b83528c8b8401525af18015612eb05790612e9c9291612ea1575b50613c3d565b612df2565b612eaa906137fd565b38612e96565b89513d8a823e3d90fd5b612ec3906137fd565b38612e62565b8a513d8b823e3d90fd5b612edc906137fd565b38612e3b565b5050346105835781600319360112610583576020906012549051908152f35b833461072357602036600319011261072357610d38612f1e6133c5565b612f2a6104e333613451565b613a37565b90503461057f578160031936011261057f573590612f4b6133e0565b908284526005602052612f636001828620015461348e565b828452600560209081528185206001600160a01b039093168086529290528084205460ff1615612f91578380f35b82845260056020528084208285526020528320600160ff198254161790553391600080516020614dbd8339815191528480a43880808380f35b505034610583576020366003190112610583576020906106f1612feb6133c5565b61427d565b9190503461057f57602036600319011261057f5760ff61302491848052600560205280852033865260205284205416613b22565b3560165580f35b8334610723578060031936011261072357610d38336139da565b8334610723578060031936011261072357610d3833613938565b505034610583578160031936011261058357602090601d549051908152f35b5050346105835760203660031901126105835760ff8160209361309f6133c5565b818052600586528282206001600160a01b039091168252855220549151911615158152f35b90503461057f57602036600319011261057f5781602093600192358152600585522001549051908152f35b5050346105835781600319360112610583576020906106f1614cdf565b90503461057f57602092836003193601126107235780846001600160a01b036131336133c5565b1684865180948193633b253c2b60e11b83525af191821561072d579161319c575b501561316257505160018152f35b82606492519162461bcd60e51b835282015260166024820152756661696c20757064617465536569676e696f7261676560501b6044820152fd5b6131b39150843d8611612a3257612a238183613827565b38613154565b5050346105835781600319360112610583576020906013549051908152f35b833461072357602036600319011261072357610d386131f56133c5565b6132016104e333613451565b613849565b90503461057f5760209182600319360112610def576132236133c5565b9161322d33613451565b8015613299575b156132605750600080516020614e1d83398151915292838552600581526115986001838720015461348e565b83606492519162461bcd60e51b835282015260156024820152743737ba1037b7363ca6b4b73a32b927b920b236b4b760591b6044820152fd5b50600080516020614ddd833981519152855260058452818520338652845260ff8286205416613234565b90503461057f57602036600319011261057f577f1140c1f14579543e61b599f8f43d0112d66ec1462431e56c97c27b47446a38ac91602091359084805260058352808520338652835261331b60ff8287205416613b22565b613339676765c793fa10079d601b1b6108dc6108d385601b54613aee565b81601c5551908152a180f35b84918434610def576020366003190112610def5781359063ffffffff60e01b8216809203610b0757602094637965db0b60e01b831493841561338c575b5050505015158152f35b6301ffc9a760e01b84149450919290919084156133b1575b5050505083808080613382565b60ff945082528552205416838080806133a4565b600435906001600160a01b03821682036133db57565b600080fd5b602435906001600160a01b03821682036133db57565b346133db5760003660031901126133db576020604051676765c793fa10079d601b1b8152f35b60609060031901126133db576001600160a01b039060043582811681036133db579160243590811681036133db579060443590565b6001600160a01b031660009081527f05b8ccbb9d4d8fb16ea74ce3c29a41f1b461fbdaff4714a0d9a8eb05499746bc602052604090205460ff1690565b60009080825260209060058252604090818420338552835260ff8285205416156134b85750505050565b81519367ffffffffffffffff3360608701828111888210176137c6578552602a875285870193853686378751156137b2576030855387519160019283101561379e57607860218a015360295b83811161373457506136f257908551926080840190848210908211176136de578652604283528683019360603686378351156136ca576030855383518210156136ca5790607860218501536041915b81831161365c5750505061361a57926135e860486135d9979461360c946044989785519a8b936135b08b86019a7f416363657373436f6e74726f6c3a206163636f756e74200000000000000000008c5251809260378801906137da565b8401917001034b99036b4b9b9b4b733903937b6329607d1b6037840152518093868401906137da565b01036028810189520187613827565b5194859362461bcd60e51b85526004850152518092816024860152858501906137da565b601f01601f19168101030190fd5b60648585519062461bcd60e51b825280600483015260248201527f537472696e67733a20686578206c656e67746820696e73756666696369656e746044820152fd5b909192600f811660108110156136b6576f181899199a1a9b1b9c1cb0b131b232b360811b901a61368c8587613afb565b5360041c9280156136a257600019019190613553565b634e487b7160e01b82526011600452602482fd5b634e487b7160e01b83526032600452602483fd5b634e487b7160e01b81526032600452602490fd5b634e487b7160e01b85526041600452602485fd5b60648787519062461bcd60e51b825280600483015260248201527f537472696e67733a20686578206c656e67746820696e73756666696369656e746044820152fd5b90600f8116601081101561378a576f181899199a1a9b1b9c1cb0b131b232b360811b901a613762838c613afb565b5360041c9080156137765760001901613504565b634e487b7160e01b86526011600452602486fd5b634e487b7160e01b87526032600452602487fd5b634e487b7160e01b85526032600452602485fd5b634e487b7160e01b84526032600452602484fd5b634e487b7160e01b84526041600452602484fd5b60005b8381106137ed5750506000910152565b81810151838201526020016137dd565b67ffffffffffffffff811161381157604052565b634e487b7160e01b600052604160045260246000fd5b90601f8019910116810190811067ffffffffffffffff82111761381157604052565b6001600160a01b03163381036138db5760008181527f05b8ccbb9d4d8fb16ea74ce3c29a41f1b461fbdaff4714a0d9a8eb05499746bc602052604081205490919060ff16613895575050565b8180526005602052604082208183526020526040822060ff19815416905533917ff6391f5c32d9c69d2a47ea670b442974b53935d1edc7fd64eb21e047a839171b8180a4565b60405162461bcd60e51b815260206004820152602f60248201527f416363657373436f6e74726f6c3a2063616e206f6e6c792072656e6f756e636560448201526e103937b632b9903337b91039b2b63360891b6064820152608490fd5b6001600160a01b03163381036138db5760008181527fedec71783a10810e436f3392a073a61717130e573433fcc6591c3061a012f7676020526040812054909190600080516020614e1d8339815191529060ff1661399557505050565b8083526005602052604083208284526020526040832060ff1981541690557ff6391f5c32d9c69d2a47ea670b442974b53935d1edc7fd64eb21e047a839171b339380a4565b6001600160a01b03163381036138db5760008181527f02634a7c777b8129955fe1824eee49ef19dfa96f2f4cb63212492c3d84eb58e66020526040812054909190600080516020614dfd8339815191529060ff1661399557505050565b6001600160a01b03163381036138db5760008181527fca0a2f641ec05ca23127d994cf03ffc453db616acae0b86cb56bb95304d068546020526040812054909190600080516020614ddd8339815191529060ff1661399557505050565b906000918083526005602052604083209160018060a01b03169182845260205260ff60408420541661399557505050565b81810292918115918404141715613ad857565b634e487b7160e01b600052601160045260246000fd5b91908201809211613ad857565b908151811015613b0c570160200190565b634e487b7160e01b600052603260045260246000fd5b15613b2957565b60405162461bcd60e51b815260206004820152602360248201527f41757468436f6e74726f6c3a2043616c6c6572206973206e6f7420616e20616460448201526236b4b760e91b6064820152608490fd5b908160209103126133db57516001600160a01b03811681036133db5790565b15613ba057565b60405162461bcd60e51b815260206004820152602360248201527f41757468436f6e74726f6c3a2043616c6c6572206973206e6f7420612070617560448201526239b2b960e91b6064820152608490fd5b15613bf857565b60405162461bcd60e51b815260206004820152601960248201527f657863656564656420736569676e696f726167652072617465000000000000006044820152606490fd5b6000198114613ad85760010190565b15613c5357565b60405162461bcd60e51b815260206004820152602e60248201527f536569674d616e616765723a20636f696e61676520686173206e6f742062656560448201526d1b8819195c1b1bde5959081e595d60921b6064820152608490fd5b15613cb657565b60405162461bcd60e51b81526020600482015260166024820152753737ba1037b7363ca232b837b9b4ba26b0b730b3b2b960511b6044820152606490fd5b15613cfb57565b60405162461bcd60e51b815260206004820152601a60248201527f6d696e696d756d20616d6f756e742069732072657175697265640000000000006044820152606490fd5b908160209103126133db575180151581036133db5790565b91908203918211613ad857565b600060ff601f54166142775760115443111561423257613d843361427d565b601a54116141ed57338152600e60209081526040808320546001600160a01b039290831691613db161483d565b50338552600f825280852043905580516318160ddd60e01b81529360049280868581885afa9586156141e35787966141b4575b5060248183600d54168551928380926370a0823160e01b8252338a8301525afa908115613fbc578891614187575b50808710156141565786613e2591613d58565b9183519463570ca73560e01b865282868281335afa95861561414c57899661412d575b503389526015835260ff858a20541696613e668789878c85336145be565b9790988751630a9ee07f60e31b815286818681875afa9081156140e7578c8e928d8a9385926140f1575b5061067161066c613eae9493676765c793fa10079d601b1b936143cb565b60248b518094819363817e9d3160e01b83528a830152885af180156140e757889492889694928c926140ca575b5081613fc6575b5050600b546007548a516340c10f1960e01b81529088166001600160a01b031694810194855260208501959095529395869416928492508d915082906040015b03925af18015613fbc579160a0979593917f9f0aff7defc0f0b331d66bccf1955a699b40155565289317e38b9799ddf0944899979593613f9f575b508251967f521cc65179761533a7c8d7a973291dd7baebb99a67edf5ef78e9c2b61a533d95339180a233875286015284015260608301526080820152a1600190565b613fb590823d8411612a3257612a238183613827565b5038613f5d565b84513d8a823e3d90fd5b939592945090921561405a575050813b1561405657865163079cc67960e41b81526001600160a01b039091168382019081526020810189905290918b9183919082908490829060400103925af1801561404c57614031575b5083613f229284925b9093388981613ee2565b613f229284929a61404287936137fd565b9a9250925061401e565b86513d8c823e3d90fd5b8a80fd5b88516340c10f1960e01b81526001600160a01b0390931685840190815260208101919091529192909183919082908e90829060400103925af1801561404c579284928692613f22956140ad575b50614027565b6140c390853d8711612a3257612a238183613827565b50386140a7565b6140e090883d8a11612a3257612a238183613827565b5038613edb565b89513d8f823e3d90fd5b945050505081813d8311614126575b61410a8183613827565b8101031261412257518c9087908d908d610671613e90565b8c80fd5b503d614100565b614145919650833d851161198c5761197e8183613827565b9438613e48565b85513d8b823e3d90fd5b505050505050507f521cc65179761533a7c8d7a973291dd7baebb99a67edf5ef78e9c2b61a533d95339180a2600190565b90508181813d83116141ad575b61419e8183613827565b81010312610b24575138613e12565b503d614194565b9080965081813d83116141dc575b6141cc8183613827565b810103126107ef57519438613de4565b503d6141c2565b83513d89823e3d90fd5b60405162461bcd60e51b815260206004820152601d60248201527f6d696e696d756d416d6f756e7420697320696e73756666696369656e740000006044820152606490fd5b60405162461bcd60e51b815260206004820152601b60248201527f6c617374207365696720626c6f636b206973206e6f74207061737400000000006044820152606490fd5b50600190565b60405163570ca73560e01b8152906020908183600481335afa9283156143225760009361432e575b506001600160a01b039081166000908152600e83526040908190205490516370a0823160e01b81529382166004850152829184916024918391165afa908115614322576000916142f6575b50905090565b82813d831161431b575b61430a8183613827565b8101031261072357505180386142f0565b503d614300565b6040513d6000823e3d90fd5b8291935061434890823d841161198c5761197e8183613827565b92906142a5565b8115614359570490565b634e487b7160e01b600052601260045260246000fd5b906b019d971e4fe8401e74000000820191828111613ad857821061438f57565b60405162461bcd60e51b815260206004820152601460248201527364732d6d6174682d6164642d6f766572666c6f7760601b6044820152606490fd5b60009291801591821561441e575b5050156143e257565b60405162461bcd60e51b815260206004820152601460248201527364732d6d6174682d6d756c2d6f766572666c6f7760601b6044820152606490fd5b9150925061443661442f8483613ac5565b938461434f565b1438806143d9565b90676765c793fa10079d601b1b9182810292818404811482151715613ad8578304036143e2576144718160011c83613aee565b91821061438f576144819161434f565b90565b60049060018060a01b03809116600090808252602092600e84528381604085205416604051968780926318160ddd60e01b82525afa9485156145b3578395614584575b508390600d5416916024604051809481936370a0823160e01b835260048301525afa928315614579578293614549575b5050818310158061452f575b614528575061067161066c614481946106b885676765c793fa10079d601b1b95613d58565b9250505090565b50670de0b6b3a76400006145438385613d58565b10614503565b9080929350813d8311614572575b6145618183613827565b8101031261058357519038806144f7565b503d614557565b6040513d84823e3d90fd5b9094508381813d83116145ac575b61459c8183613827565b8101031261057f575193836144c7565b503d614592565b6040513d85823e3d90fd5b95939491959290926000809460018060a01b038093168652602060178152604093848820548043101590816147d9575b50614795575b33885260148252848820549661460a878d613aee565b9a88156147855715614755578b156147465785516370a0823160e01b8152908216600482015292829184916024918391165afa93841561473d5750869361470d575b50508115614704575061066c61466861066c9861468a9361443e565b938493614684676765c793fa10079d601b1b9a8b9687936143cb565b046143cb565b0485821495866000146146d0576146af94959682945b50156146b35750905093613aee565b9190565b6146c361066c6146ca94866143cb565b0490613aee565b93613aee565b828103968188116146f0576146ea6146af9697988461443e565b946146a0565b634e487b7160e01b85526011600452602485fd5b95965050505050565b9080929350813d8311614736575b6147258183613827565b81010312610b07575190388061464c565b503d61471b565b513d88823e3d90fd5b50505050965050505050909190565b5050505050506146af93949550676765c793fa10079d601b1b925061477d9161066c916143cb565b048093613d58565b5050505050505050509250909190565b60188252848820546014835285892055601982526147cb60ff868a20541660158452868a209060ff801983541691151516179055565b6017825287858120556145f4565b90501515386145ee565b60405163570ca73560e01b81526001600160a01b03916020908290600490829086165afa801561432257829160009161481f575b501691161490565b614837915060203d811161198c5761197e8183613827565b38614817565b600060115443111561448157600d54604080516318160ddd60e01b80825260209490936004936001600160a01b0393909184169087818781855afa908115614c5a578491614c75575b5015614c675781519686885280888781855afa978815614c5a578498614c2b575b506148bc6148b3614ca2565b60105490613ac5565b976148c5614cdf565b845198895282898981875afa988915612430578699614bfc575b50676765c793fa10079d601b1b6148f7819a8c6143cb565b6149009061436f565b049061490b9161443e565b9288614917858c613d58565b601d54614923916143cb565b61492c9061436f565b0491826149398683613aee565b9061494391613aee565b436011558651630a9ee07f60e31b8152919085838c81875afa928315614bf2578692918d918b95614bbb575b5061066c6149819495610671926143cb565b60248a898951958694859363817e9d3160e01b85528401525af1801561243057614b9e575b506149b1838a613d58565b9480968198829a826008541680614ad0575b5082600954169081614a3a575b5050505050601d54614a23575b5082519788528701528501526060840152608083015260a08201527fa1c52db210d9232b95c07d81e0aca3d25829b70963d3c458843f9d63d1ccb99460c03392a2600190565b9650614a3187601e54613aee565b601e55386149dd565b849b5091614a8e9493918793614a5661066c8d601c54906143cb565b049c8d93600b5416928b51978895869485936340c10f1960e01b8552840160209093929193604081019460018060a01b031681520152565b03925af1908115614ac55750614aa8575b808080806149d0565b614abe90833d8511612a3257612a238183613827565b5038614a9f565b8651903d90823e3d90fd5b9950614b208682614ae761066c8d601b54906143cb565b04809c86600b541690888d518096819582946340c10f1960e01b84528b840160209093929193604081019460018060a01b031681520152565b03925af18015614b7757614b81575b508260085416803b15610b075784809160248d8c51948593849263027aa37b60e01b8452898401525af18015614b7757156149c357614b70909491946137fd565b92386149c3565b89513d87823e3d90fd5b614b9790873d8911612a3257612a238183613827565b5038614b2f565b614bb490833d8511612a3257612a238183613827565b50386149a6565b92945092905081813d8311614beb575b614bd58183613827565b8101031261077257519185918c9061066c61496f565b503d614bcb565b88513d8b823e3d90fd5b9098508281813d8311614c24575b614c148183613827565b8101031261082c575197386148df565b503d614c0a565b9080985081813d8311614c53575b614c438183613827565b81010312610def575196386148a7565b503d614c39565b50505051903d90823e3d90fd5b505093505050504360115590565b90508781813d8311614c9b575b614c8c8183613827565b81010312610def575138614886565b503d614c82565b60ff601f54166133db57601154614cb98143613d58565b90601354908110614cdb5790614cd56144819260125490613d58565b90613d58565b5090565b60105462a55ec1194301438111613ad857614cf991613ac5565b6e09a130b963a6c115c3c7f400000000908101809111613ad857600a546040516370a0823160e01b81526001600482015290602090829060249082906001600160a01b03165afa90811561432257600091614d8b575b50633b9aca0090818102918183041490151715613ad857614d6f91613d58565b6d08c815d5bcc20177de3b5d24ffff198101908111613ad85790565b906020823d8211614db4575b81614da460209383613827565b8101031261072357505138614d4f565b3d9150614d9756fe2f8788117e7eff1d82e926ec794901d17c78024a50270940304540a733656f0df0887ba65ee2024ea881d91b74c2450ef19e1557f03bed3ea9f16b037cbe2dc9523a704056dcd17bcf83bed8b68c59416dac1119be77755efe3bde0a64e46e0cbf02bad7114723a857a3af46cea17b778a3a951c96f183784d9a2448cc479ab6a164736f6c6343000812000a",
  "linkReferences": {},
  "deployedLinkReferences": {}
}