{
  "_format": "hh-sol-artifact-1",
  "contractName": "L1StakedTonInL2Proxy",
  "sourceName": "contracts/L2/L1StakedTonInL2Proxy.sol",
  "abi": [
    {
      "anonymous": false,
      "inputs": [
        {
          "indexed": true,
          "internalType": "bytes32",
          "name": "role",
          "type": "bytes32"
        },
        {
          "indexed": true,
          "internalType": "bytes32",
          "name": "previousAdminRole",
          "type": "bytes32"
        },
        {
          "indexed": true,
          "internalType": "bytes32",
          "name": "newAdminRole",
          "type": "bytes32"
        }
      ],
      "name": "RoleAdminChanged",
      "type": "event"
    },
    {
      "anonymous": false,
      "inputs": [
        {
          "indexed": true,
          "internalType": "bytes32",
          "name": "role",
          "type": "bytes32"
        },
        {
          "indexed": true,
          "internalType": "address",
          "name": "account",
          "type": "address"
        },
        {
          "indexed": true,
          "internalType": "address",
          "name": "sender",
          "type": "address"
        }
      ],
      "name": "RoleGranted",
      "type": "event"
    },
    {
      "anonymous": false,
      "inputs": [
        {
          "indexed": true,
          "internalType": "bytes32",
          "name": "role",
          "type": "bytes32"
        },
        {
          "indexed": true,
          "internalType": "address",
          "name": "account",
          "type": "address"
        },
        {
          "indexed": true,
          "internalType": "address",
          "name": "sender",
          "type": "address"
        }
      ],
      "name": "RoleRevoked",
      "type": "event"
    },
    {
      "anonymous": false,
      "inputs": [
        {
          "indexed": true,
          "internalType": "address",
          "name": "impl",
          "type": "address"
        },
        {
          "indexed": false,
          "internalType": "bool",
          "name": "alive",
          "type": "bool"
        }
      ],
      "name": "SetAliveImplementation",
      "type": "event"
    },
    {
      "anonymous": false,
      "inputs": [
        {
          "indexed": true,
          "internalType": "bytes4",
          "name": "selector",
          "type": "bytes4"
        },
        {
          "indexed": true,
          "internalType": "address",
          "name": "impl",
          "type": "address"
        }
      ],
      "name": "SetSelectorImplementation",
      "type": "event"
    },
    {
      "anonymous": false,
      "inputs": [
        {
          "indexed": true,
          "internalType": "address",
          "name": "implementation",
          "type": "address"
        }
      ],
      "name": "Upgraded",
      "type": "event"
    },
    {
      "stateMutability": "payable",
      "type": "fallback"
    },
    {
      "inputs": [],
      "name": "DEFAULT_ADMIN_ROLE",
      "outputs": [
        {
          "internalType": "bytes32",
          "name": "",
          "type": "bytes32"
        }
      ],
      "stateMutability": "view",
      "type": "function"
    },
    {
      "inputs": [],
      "name": "MINTER_ROLE",
      "outputs": [
        {
          "internalType": "bytes32",
          "name": "",
          "type": "bytes32"
        }
      ],
      "stateMutability": "view",
      "type": "function"
    },
    {
      "inputs": [
        {
          "internalType": "address",
          "name": "account",
          "type": "address"
        }
      ],
      "name": "addAdmin",
      "outputs": [],
      "stateMutability": "nonpayable",
      "type": "function"
    },
    {
      "inputs": [
        {
          "internalType": "address",
          "name": "",
          "type": "address"
        }
      ],
      "name": "aliveImplementation",
      "outputs": [
        {
          "internalType": "bool",
          "name": "",
          "type": "bool"
        }
      ],
      "stateMutability": "view",
      "type": "function"
    },
    {
      "inputs": [
        {
          "internalType": "bytes32",
          "name": "role",
          "type": "bytes32"
        }
      ],
      "name": "getRoleAdmin",
      "outputs": [
        {
          "internalType": "bytes32",
          "name": "",
          "type": "bytes32"
        }
      ],
      "stateMutability": "view",
      "type": "function"
    },
    {
      "inputs": [
        {
          "internalType": "bytes4",
          "name": "_selector",
          "type": "bytes4"
        }
      ],
      "name": "getSelectorImplementation2",
      "outputs": [
        {
          "internalType": "address",
          "name": "impl",
          "type": "address"
        }
      ],
      "stateMutability": "view",
      "type": "function"
    },
    {
      "inputs": [
        {
          "internalType": "bytes32",
          "name": "role",
          "type": "bytes32"
        },
        {
          "internalType": "address",
          "name": "account",
          "type": "address"
        }
      ],
      "name": "grantRole",
      "outputs": [],
      "stateMutability": "nonpayable",
      "type": "function"
    },
    {
      "inputs": [
        {
          "internalType": "bytes32",
          "name": "role",
          "type": "bytes32"
        },
        {
          "internalType": "address",
          "name": "account",
          "type": "address"
        }
      ],
      "name": "hasRole",
      "outputs": [
        {
          "internalType": "bool",
          "name": "",
          "type": "bool"
        }
      ],
      "stateMutability": "view",
      "type": "function"
    },
    {
      "inputs": [],
      "name": "implementation",
      "outputs": [
        {
          "internalType": "address",
          "name": "",
          "type": "address"
        }
      ],
      "stateMutability": "view",
      "type": "function"
    },
    {
      "inputs": [
        {
          "internalType": "uint256",
          "name": "_index",
          "type": "uint256"
        }
      ],
      "name": "implementation2",
      "outputs": [
        {
          "internalType": "address",
          "name": "",
          "type": "address"
        }
      ],
      "stateMutability": "view",
      "type": "function"
    },
    {
      "inputs": [
        {
          "internalType": "address",
          "name": "account",
          "type": "address"
        }
      ],
      "name": "isAdmin",
      "outputs": [
        {
          "internalType": "bool",
          "name": "",
          "type": "bool"
        }
      ],
      "stateMutability": "view",
      "type": "function"
    },
    {
      "inputs": [],
      "name": "isOwner",
      "outputs": [
        {
          "internalType": "bool",
          "name": "",
          "type": "bool"
        }
      ],
      "stateMutability": "view",
      "type": "function"
    },
    {
      "inputs": [],
      "name": "l1Register",
      "outputs": [
        {
          "internalType": "address",
          "name": "",
          "type": "address"
        }
      ],
      "stateMutability": "view",
      "type": "function"
    },
    {
      "inputs": [],
      "name": "l2CrossDomainMessenger",
      "outputs": [
        {
          "internalType": "address",
          "name": "",
          "type": "address"
        }
      ],
      "stateMutability": "view",
      "type": "function"
    },
    {
      "inputs": [],
      "name": "l2SeigManager",
      "outputs": [
        {
          "internalType": "address",
          "name": "",
          "type": "address"
        }
      ],
      "stateMutability": "view",
      "type": "function"
    },
    {
      "inputs": [],
      "name": "pauseProxy",
      "outputs": [
        {
          "internalType": "bool",
          "name": "",
          "type": "bool"
        }
      ],
      "stateMutability": "view",
      "type": "function"
    },
    {
      "inputs": [
        {
          "internalType": "uint256",
          "name": "",
          "type": "uint256"
        }
      ],
      "name": "proxyImplementation",
      "outputs": [
        {
          "internalType": "address",
          "name": "",
          "type": "address"
        }
      ],
      "stateMutability": "view",
      "type": "function"
    },
    {
      "inputs": [
        {
          "internalType": "address",
          "name": "account",
          "type": "address"
        }
      ],
      "name": "removeAdmin",
      "outputs": [],
      "stateMutability": "nonpayable",
      "type": "function"
    },
    {
      "inputs": [],
      "name": "renounceOwnership",
      "outputs": [],
      "stateMutability": "nonpayable",
      "type": "function"
    },
    {
      "inputs": [
        {
          "internalType": "bytes32",
          "name": "role",
          "type": "bytes32"
        },
        {
          "internalType": "address",
          "name": "account",
          "type": "address"
        }
      ],
      "name": "renounceRole",
      "outputs": [],
      "stateMutability": "nonpayable",
      "type": "function"
    },
    {
      "inputs": [
        {
          "internalType": "bytes32",
          "name": "role",
          "type": "bytes32"
        },
        {
          "internalType": "address",
          "name": "account",
          "type": "address"
        }
      ],
      "name": "revokeRole",
      "outputs": [],
      "stateMutability": "nonpayable",
      "type": "function"
    },
    {
      "inputs": [
        {
          "internalType": "bytes4",
          "name": "",
          "type": "bytes4"
        }
      ],
      "name": "selectorImplementation",
      "outputs": [
        {
          "internalType": "address",
          "name": "",
          "type": "address"
        }
      ],
      "stateMutability": "view",
      "type": "function"
    },
    {
      "inputs": [
        {
          "internalType": "address",
          "name": "newImplementation",
          "type": "address"
        },
        {
          "internalType": "bool",
          "name": "_alive",
          "type": "bool"
        }
      ],
      "name": "setAliveImplementation2",
      "outputs": [],
      "stateMutability": "nonpayable",
      "type": "function"
    },
    {
      "inputs": [
        {
          "internalType": "address",
          "name": "newImplementation",
          "type": "address"
        },
        {
          "internalType": "uint256",
          "name": "_index",
          "type": "uint256"
        },
        {
          "internalType": "bool",
          "name": "_alive",
          "type": "bool"
        }
      ],
      "name": "setImplementation2",
      "outputs": [],
      "stateMutability": "nonpayable",
      "type": "function"
    },
    {
      "inputs": [
        {
          "internalType": "bool",
          "name": "_pause",
          "type": "bool"
        }
      ],
      "name": "setProxyPause",
      "outputs": [],
      "stateMutability": "nonpayable",
      "type": "function"
    },
    {
      "inputs": [
        {
          "internalType": "bytes4[]",
          "name": "_selectors",
          "type": "bytes4[]"
        },
        {
          "internalType": "address",
          "name": "_imp",
          "type": "address"
        }
      ],
      "name": "setSelectorImplementations2",
      "outputs": [],
      "stateMutability": "nonpayable",
      "type": "function"
    },
    {
      "inputs": [
        {
          "internalType": "bytes4",
          "name": "interfaceId",
          "type": "bytes4"
        }
      ],
      "name": "supportsInterface",
      "outputs": [
        {
          "internalType": "bool",
          "name": "",
          "type": "bool"
        }
      ],
      "stateMutability": "view",
      "type": "function"
    },
    {
      "inputs": [
        {
          "internalType": "address",
          "name": "newAdmin",
          "type": "address"
        }
      ],
      "name": "transferAdmin",
      "outputs": [],
      "stateMutability": "nonpayable",
      "type": "function"
    },
    {
      "inputs": [
        {
          "internalType": "address",
          "name": "newAdmin",
          "type": "address"
        }
      ],
      "name": "transferOwnership",
      "outputs": [],
      "stateMutability": "nonpayable",
      "type": "function"
    },
    {
      "inputs": [
        {
          "internalType": "address",
          "name": "impl",
          "type": "address"
        }
      ],
      "name": "upgradeTo",
      "outputs": [],
      "stateMutability": "nonpayable",
      "type": "function"
    },
    {
      "stateMutability": "payable",
      "type": "receive"
    }
  ],
  "bytecode": "0x608060405234801561001057600080fd5b5061001c600033610021565b6100d1565b61002b828261002f565b5050565b60008281526005602090815260408083206001600160a01b038516845290915290205460ff1661002b5760008281526005602090815260408083206001600160a01b03851684529091529020805460ff1916600117905561008d3390565b6001600160a01b0316816001600160a01b0316837f2f8788117e7eff1d82e926ec794901d17c78024a50270940304540a733656f0d60405160405180910390a45050565b611962806100e06000396000f3fe6080604052600436106101d15760003560e01c8063715018a6116100f757806391d1485411610095578063d547741f11610064578063d547741f1461065c578063d75bf0ce1461067c578063f2fde38b1461069c578063fbef005a146106bc57610223565b806391d1485414610597578063a217fddf146105dd578063b911135f146105f2578063d53913931461062857610223565b80637cd5f663116100d15780637cd5f663146104f35780638b8f4a65146105135780638d4fdb40146105335780638f32d59b1461055357610223565b8063715018a61461049e57806375829def146104b35780637cb00d25146104d357610223565b80634a5df50f1161016f5780635c60da1b1161013e5780635c60da1b146103fe5780635cc797d81461044457806363a8fd8914610464578063704802751461047e57610223565b80634a5df50f1461034057806350d2a2761461036057806353cd4eac146103ae578063550d01a3146103ce57610223565b806324d7806c116101ab57806324d7806c146102c05780632f2ff15d146102e057806336568abe146103005780633659cfe61461032057610223565b806301ffc9a71461022d5780631785f53c14610262578063248a9ca31461028257610223565b366102235760405162461bcd60e51b815260206004820152601460248201527f63616e6e6f74207265636569766520457468657200000000000000000000000060448201526064015b60405180910390fd5b61022b6106dc565b005b34801561023957600080fd5b5061024d610248366004611614565b610785565b60405190151581526020015b60405180910390f35b34801561026e57600080fd5b5061022b61027d366004611655565b610796565b34801561028e57600080fd5b506102b261029d366004611670565b60009081526005602052604090206001015490565b604051908152602001610259565b3480156102cc57600080fd5b5061024d6102db366004611655565b6107f2565b3480156102ec57600080fd5b5061022b6102fb366004611689565b610832565b34801561030c57600080fd5b5061022b61031b366004611689565b610857565b34801561032c57600080fd5b5061022b61033b366004611655565b6108e3565b34801561034c57600080fd5b5061022b61035b3660046116b5565b610a3c565b34801561036c57600080fd5b5061039661037b366004611614565b6003602052600090815260409020546001600160a01b031681565b6040516001600160a01b039091168152602001610259565b3480156103ba57600080fd5b50600654610396906001600160a01b031681565b3480156103da57600080fd5b5061024d6103e9366004611655565b60026020526000908152604090205460ff1681565b34801561040a57600080fd5b506000805260016020527fa6eef7e35abe7026729641147f7915573c7e97b47efa546f5f6e3230263bcb49546001600160a01b0316610396565b34801561045057600080fd5b5061022b61045f366004611749565b610ce9565b34801561047057600080fd5b5060005461024d9060ff1681565b34801561048a57600080fd5b5061022b610499366004611655565b610d41565b3480156104aa57600080fd5b5061022b610d9a565b3480156104bf57600080fd5b5061022b6104ce366004611655565b610df5565b3480156104df57600080fd5b5061022b6104ee366004611773565b610f07565b3480156104ff57600080fd5b5061022b61050e36600461178e565b610f68565b34801561051f57600080fd5b5061039661052e366004611670565b610fc1565b34801561053f57600080fd5b5061039661054e366004611614565b610fde565b34801561055f57600080fd5b503360009081527f05b8ccbb9d4d8fb16ea74ce3c29a41f1b461fbdaff4714a0d9a8eb05499746bc602052604090205460ff1661024d565b3480156105a357600080fd5b5061024d6105b2366004611689565b60009182526005602090815260408084206001600160a01b0393909316845291905290205460ff1690565b3480156105e957600080fd5b506102b2600081565b3480156105fe57600080fd5b5061039661060d366004611670565b6001602052600090815260409020546001600160a01b031681565b34801561063457600080fd5b506102b27ff0887ba65ee2024ea881d91b74c2450ef19e1557f03bed3ea9f16b037cbe2dc981565b34801561066857600080fd5b5061022b610677366004611689565b6110da565b34801561068857600080fd5b50600854610396906001600160a01b031681565b3480156106a857600080fd5b5061022b6106b7366004611655565b6110ff565b3480156106c857600080fd5b50600754610396906001600160a01b031681565b60006106f36000356001600160e01b031916610fde565b90506001600160a01b03811615801590610710575060005460ff16155b61075c5760405162461bcd60e51b815260206004820152601d60248201527f50726f78793a20696d706c204f522070726f78792069732066616c7365000000604482015260640161021a565b3660008037600080366000845af43d6000803e80801561077b573d6000f35b3d6000fd5b505050565b600061079082611156565b92915050565b61079f336107f2565b6107e45760405162461bcd60e51b8152602060048201526022602482015260008051602061193683398151915260448201526134b760f11b606482015260840161021a565b6107ef600082610857565b50565b6001600160a01b03811660009081527f05b8ccbb9d4d8fb16ea74ce3c29a41f1b461fbdaff4714a0d9a8eb05499746bc602052604081205460ff16610790565b60008281526005602052604090206001015461084d8161117b565b6107808383611185565b6001600160a01b03811633146108d55760405162461bcd60e51b815260206004820152602f60248201527f416363657373436f6e74726f6c3a2063616e206f6e6c792072656e6f756e636560448201527f20726f6c657320666f722073656c660000000000000000000000000000000000606482015260840161021a565b6108df8282611227565b5050565b6108ec336107f2565b6109315760405162461bcd60e51b8152602060048201526022602482015260008051602061193683398151915260448201526134b760f11b606482015260840161021a565b6001600160a01b0381166109875760405162461bcd60e51b815260206004820152600d60248201527f696e707574206973207a65726f00000000000000000000000000000000000000604482015260640161021a565b6000805260016020527fa6eef7e35abe7026729641147f7915573c7e97b47efa546f5f6e3230263bcb49546001600160a01b038281169116036109f85760405162461bcd60e51b815260206004820152600960248201526839b0b6b29030b2323960b91b604482015260640161021a565b610a0581600060016112aa565b6040516001600160a01b038216907fbc7cd75a20ee27fd9adebab32041f755214dbc6bffa90cc0225b39da2e5c2d3b90600090a250565b610a45336107f2565b610a8a5760405162461bcd60e51b8152602060048201526022602482015260008051602061193683398151915260448201526134b760f11b606482015260840161021a565b81610ad75760405162461bcd60e51b815260206004820181905260248201527f50726f78793a205f73656c6563746f727327732073697a65206973207a65726f604482015260640161021a565b6001600160a01b03811660009081526002602052604090205460ff16610b3f5760405162461bcd60e51b815260206004820152601860248201527f50726f78793a205f696d70206973206e6f7420616c6976650000000000000000604482015260640161021a565b60005b82811015610ce357816001600160a01b031660036000868685818110610b6a57610b6a6117c1565b9050602002016020810190610b7f9190611614565b6001600160e01b03191681526020810191909152604001600020546001600160a01b031603610bf05760405162461bcd60e51b815260206004820152601d60248201527f4c69717569646974795661756c7450726f78793a2073616d6520696d70000000604482015260640161021a565b8160036000868685818110610c0757610c076117c1565b9050602002016020810190610c1c9190611614565b6001600160e01b03191681526020810191909152604001600020805473ffffffffffffffffffffffffffffffffffffffff19166001600160a01b039283161790558216848483818110610c7157610c716117c1565b9050602002016020810190610c869190611614565b7bffffffffffffffffffffffffffffffffffffffffffffffffffffffff19167f14ebc1c32aa68f4d766e89f3e546cee249f7df25183fc10ab1568d91c2ce9b7b60405160405180910390a380610cdb816117ed565b915050610b42565b50505050565b610cf2336107f2565b610d375760405162461bcd60e51b8152602060048201526022602482015260008051602061193683398151915260448201526134b760f11b606482015260840161021a565b6108df8282611342565b610d4a336107f2565b610d8f5760405162461bcd60e51b8152602060048201526022602482015260008051602061193683398151915260448201526134b760f11b606482015260840161021a565b6107ef600082610832565b610da3336107f2565b610de85760405162461bcd60e51b8152602060048201526022602482015260008051602061193683398151915260448201526134b760f11b606482015260840161021a565b610df3600033610857565b565b610dfe336107f2565b610e435760405162461bcd60e51b8152602060048201526022602482015260008051602061193683398151915260448201526134b760f11b606482015260840161021a565b6001600160a01b038116610e995760405162461bcd60e51b815260206004820152601860248201527f41636365737369626c653a207a65726f20616464726573730000000000000000604482015260640161021a565b6001600160a01b0381163303610ef15760405162461bcd60e51b815260206004820152601660248201527f41636365737369626c653a2073616d652061646d696e00000000000000000000604482015260640161021a565b610efc600082610832565b6107ef600033610857565b610f10336107f2565b610f555760405162461bcd60e51b8152602060048201526022602482015260008051602061193683398151915260448201526134b760f11b606482015260840161021a565b6000805460ff1916911515919091179055565b610f71336107f2565b610fb65760405162461bcd60e51b8152602060048201526022602482015260008051602061193683398151915260448201526134b760f11b606482015260840161021a565b6107808383836112aa565b6000818152600160205260408120546001600160a01b0316610790565b6001600160e01b031981166000908152600360205260408120546001600160a01b031661103e5750506000805260016020527fa6eef7e35abe7026729641147f7915573c7e97b47efa546f5f6e3230263bcb49546001600160a01b031690565b6001600160e01b031982166000908152600360209081526040808320546001600160a01b03168352600290915290205460ff161561109c57506001600160e01b0319166000908152600360205260409020546001600160a01b031690565b50506000805260016020527fa6eef7e35abe7026729641147f7915573c7e97b47efa546f5f6e3230263bcb49546001600160a01b031690565b919050565b6000828152600560205260409020600101546110f58161117b565b6107808383611227565b611108336107f2565b61114d5760405162461bcd60e51b8152602060048201526022602482015260008051602061193683398151915260448201526134b760f11b606482015260840161021a565b6107ef81610df5565b60006001600160e01b03198216637965db0b60e01b14806107905750610790826113a1565b6107ef81336113dd565b60008281526005602090815260408083206001600160a01b038516845290915290205460ff166108df5760008281526005602090815260408083206001600160a01b03851684529091529020805460ff191660011790556111e33390565b6001600160a01b0316816001600160a01b0316837f2f8788117e7eff1d82e926ec794901d17c78024a50270940304540a733656f0d60405160405180910390a45050565b60008281526005602090815260408083206001600160a01b038516845290915290205460ff16156108df5760008281526005602090815260408083206001600160a01b0385168085529252808320805460ff1916905551339285917ff6391f5c32d9c69d2a47ea670b442974b53935d1edc7fd64eb21e047a839171b9190a45050565b6001600160a01b0383163b6113015760405162461bcd60e51b815260206004820152601b60248201527f50726f78793a206e6f7420636f6e747261637420616464726573730000000000604482015260640161021a565b801561133c576000828152600160205260409020805473ffffffffffffffffffffffffffffffffffffffff19166001600160a01b0385161790555b61078083825b6001600160a01b038216600081815260026020908152604091829020805460ff191685151590811790915591519182527f72558d9bfba4210f9ef095c782589484151f6d90f7a81bb3cb9b33efc695d324910160405180910390a25050565b60006301ffc9a760e01b6001600160e01b0319831614806107905750506001600160e01b03191660009081526004602052604090205460ff1690565b60008281526005602090815260408083206001600160a01b038516845290915290205460ff166108df5761141081611452565b61141b836020611464565b60405160200161142c92919061182a565b60408051601f198184030181529082905262461bcd60e51b825261021a916004016118ab565b60606107906001600160a01b03831660145b606060006114738360026118de565b61147e9060026118f5565b67ffffffffffffffff81111561149657611496611908565b6040519080825280601f01601f1916602001820160405280156114c0576020820181803683370190505b509050600360fc1b816000815181106114db576114db6117c1565b60200101906001600160f81b031916908160001a905350600f60fb1b8160018151811061150a5761150a6117c1565b60200101906001600160f81b031916908160001a905350600061152e8460026118de565b6115399060016118f5565b90505b60018111156115be577f303132333435363738396162636465660000000000000000000000000000000085600f166010811061157a5761157a6117c1565b1a60f81b828281518110611590576115906117c1565b60200101906001600160f81b031916908160001a90535060049490941c936115b78161191e565b905061153c565b50831561160d5760405162461bcd60e51b815260206004820181905260248201527f537472696e67733a20686578206c656e67746820696e73756666696369656e74604482015260640161021a565b9392505050565b60006020828403121561162657600080fd5b81356001600160e01b03198116811461160d57600080fd5b80356001600160a01b03811681146110d557600080fd5b60006020828403121561166757600080fd5b61160d8261163e565b60006020828403121561168257600080fd5b5035919050565b6000806040838503121561169c57600080fd5b823591506116ac6020840161163e565b90509250929050565b6000806000604084860312156116ca57600080fd5b833567ffffffffffffffff808211156116e257600080fd5b818601915086601f8301126116f657600080fd5b81358181111561170557600080fd5b8760208260051b850101111561171a57600080fd5b602092830195509350611730918601905061163e565b90509250925092565b803580151581146110d557600080fd5b6000806040838503121561175c57600080fd5b6117658361163e565b91506116ac60208401611739565b60006020828403121561178557600080fd5b61160d82611739565b6000806000606084860312156117a357600080fd5b6117ac8461163e565b92506020840135915061173060408501611739565b634e487b7160e01b600052603260045260246000fd5b634e487b7160e01b600052601160045260246000fd5b6000600182016117ff576117ff6117d7565b5060010190565b60005b83811015611821578181015183820152602001611809565b50506000910152565b7f416363657373436f6e74726f6c3a206163636f756e7420000000000000000000815260008351611862816017850160208801611806565b7f206973206d697373696e6720726f6c6520000000000000000000000000000000601791840191820152835161189f816028840160208801611806565b01602801949350505050565b60208152600082518060208401526118ca816040850160208701611806565b601f01601f19169190910160400192915050565b8082028115828204841417610790576107906117d7565b80820180821115610790576107906117d7565b634e487b7160e01b600052604160045260246000fd5b60008161192d5761192d6117d7565b50600019019056fe41636365737369626c653a2043616c6c6572206973206e6f7420616e2061646da164736f6c6343000813000a",
  "linkReferences": {},
  "deployedLinkReferences": {}
}