{
  "_format": "hh-sol-artifact-1",
  "contractName": "PauserRole",
  "sourceName": "contracts/roles/PauserRole.sol",
  "abi": [
    {
      "inputs": [],
      "stateMutability": "nonpayable",
      "type": "constructor"
    },
    {
      "anonymous": false,
      "inputs": [
        {
          "indexed": true,
          "internalType": "address",
          "name": "account",
          "type": "address"
        }
      ],
      "name": "PauserAdded",
      "type": "event"
    },
    {
      "anonymous": false,
      "inputs": [
        {
          "indexed": true,
          "internalType": "address",
          "name": "account",
          "type": "address"
        }
      ],
      "name": "PauserRemoved",
      "type": "event"
    },
    {
      "inputs": [
        {
          "internalType": "address",
          "name": "account",
          "type": "address"
        }
      ],
      "name": "addPauser",
      "outputs": [],
      "stateMutability": "nonpayable",
      "type": "function"
    },
    {
      "inputs": [
        {
          "internalType": "address",
          "name": "account",
          "type": "address"
        }
      ],
      "name": "isPauser",
      "outputs": [
        {
          "internalType": "bool",
          "name": "",
          "type": "bool"
        }
      ],
      "stateMutability": "view",
      "type": "function"
    },
    {
      "inputs": [],
      "name": "renouncePauser",
      "outputs": [],
      "stateMutability": "nonpayable",
      "type": "function"
    }
  ],
  "bytecode": "0x608060405234801561001057600080fd5b5061001a3361001f565b6100cf565b61002a600082610061565b6040516001600160a01b038216907f6719d08c1888103bea251a4ed56406bd0c3e69723c8a1686e017e7bbe159b6f890600090a250565b61006b828261009a565b1561007557600080fd5b6001600160a01b0316600090815260209190915260409020805460ff19166001179055565b60006001600160a01b0382166100af57600080fd5b506001600160a01b03166000908152602091909152604090205460ff1690565b610296806100de6000396000f3fe608060405234801561001057600080fd5b50600436106100415760003560e01c806346fbf68e146100465780636ef8d66d1461006d57806382dc1ec414610077575b600080fd5b610059610054366004610259565b61008a565b604051901515815260200160405180910390f35b61007561009c565b005b610075610085366004610259565b6100a7565b60006100968183610132565b92915050565b6100a533610167565b565b6100b03361008a565b6101265760405162461bcd60e51b815260206004820152603060248201527f506175736572526f6c653a2063616c6c657220646f6573206e6f74206861766560448201527f207468652050617573657220726f6c6500000000000000000000000000000000606482015260840160405180910390fd5b61012f816101a9565b50565b60006001600160a01b03821661014757600080fd5b506001600160a01b03166000908152602091909152604090205460ff1690565b6101726000826101eb565b6040516001600160a01b038216907fcd265ebaf09df2871cc7bd4133404a235ba12eff2041bb89d9c714a2621c7c7e90600090a250565b6101b4600082610220565b6040516001600160a01b038216907f6719d08c1888103bea251a4ed56406bd0c3e69723c8a1686e017e7bbe159b6f890600090a250565b6101f58282610132565b6101fe57600080fd5b6001600160a01b0316600090815260209190915260409020805460ff19169055565b61022a8282610132565b1561023457600080fd5b6001600160a01b0316600090815260209190915260409020805460ff19166001179055565b60006020828403121561026b57600080fd5b81356001600160a01b038116811461028257600080fd5b939250505056fea164736f6c6343000813000a",
  "linkReferences": {},
  "deployedLinkReferences": {}
}