{
  "_format": "hh-sol-artifact-1",
  "contractName": "AuthRoleL2Registry",
  "sourceName": "contracts/common/AuthRoleL2Registry.sol",
  "abi": [
    {
      "inputs": [],
      "name": "MANAGER_ROLE",
      "outputs": [
        {
          "internalType": "bytes32",
          "name": "",
          "type": "bytes32"
        }
      ],
      "stateMutability": "view",
      "type": "function"
    },
    {
      "inputs": [],
      "name": "REGISTRANT_ROLE",
      "outputs": [
        {
          "internalType": "bytes32",
          "name": "",
          "type": "bytes32"
        }
      ],
      "stateMutability": "view",
      "type": "function"
    }
  ],
  "bytecode": "0x608080604052346100155760b8908161001b8239f35b600080fdfe6080806040526004361015601257600080fd5b600090813560e01c9081636f5b142b14606f575063ec87621c14603457600080fd5b34606c5780600319360112606c5760206040517faf290d8680820aad922855f39b306097b20e28774d6c1ad35a20325630c3a02c8152f35b80fd5b90503460a7578160031936011260a757807f12090aa55130d5a2442eb84fc286ca6e600db6c50b6c5d9b6d0d929f0e2d8ce860209252f35b5080fdfea164736f6c6343000813000a",
  "linkReferences": {},
  "deployedLinkReferences": {}
}