{
  "_format": "hh-sol-artifact-1",
  "contractName": "SeigManagerProxy",
  "sourceName": "contracts/stake/managers/SeigManagerProxy.sol",
  "abi": [
    {
      "anonymous": false,
      "inputs": [
        {
          "indexed": true,
          "internalType": "bytes32",
          "name": "role",
          "type": "bytes32"
        },
        {
          "indexed": true,
          "internalType": "bytes32",
          "name": "previousAdminRole",
          "type": "bytes32"
        },
        {
          "indexed": true,
          "internalType": "bytes32",
          "name": "newAdminRole",
          "type": "bytes32"
        }
      ],
      "name": "RoleAdminChanged",
      "type": "event"
    },
    {
      "anonymous": false,
      "inputs": [
        {
          "indexed": true,
          "internalType": "bytes32",
          "name": "role",
          "type": "bytes32"
        },
        {
          "indexed": true,
          "internalType": "address",
          "name": "account",
          "type": "address"
        },
        {
          "indexed": true,
          "internalType": "address",
          "name": "sender",
          "type": "address"
        }
      ],
      "name": "RoleGranted",
      "type": "event"
    },
    {
      "anonymous": false,
      "inputs": [
        {
          "indexed": true,
          "internalType": "bytes32",
          "name": "role",
          "type": "bytes32"
        },
        {
          "indexed": true,
          "internalType": "address",
          "name": "account",
          "type": "address"
        },
        {
          "indexed": true,
          "internalType": "address",
          "name": "sender",
          "type": "address"
        }
      ],
      "name": "RoleRevoked",
      "type": "event"
    },
    {
      "anonymous": false,
      "inputs": [
        {
          "indexed": true,
          "internalType": "address",
          "name": "impl",
          "type": "address"
        },
        {
          "indexed": false,
          "internalType": "bool",
          "name": "alive",
          "type": "bool"
        }
      ],
      "name": "SetAliveImplementation",
      "type": "event"
    },
    {
      "anonymous": false,
      "inputs": [
        {
          "indexed": true,
          "internalType": "bytes4",
          "name": "selector",
          "type": "bytes4"
        },
        {
          "indexed": true,
          "internalType": "address",
          "name": "impl",
          "type": "address"
        }
      ],
      "name": "SetSelectorImplementation",
      "type": "event"
    },
    {
      "anonymous": false,
      "inputs": [
        {
          "indexed": true,
          "internalType": "address",
          "name": "implementation",
          "type": "address"
        }
      ],
      "name": "Upgraded",
      "type": "event"
    },
    {
      "stateMutability": "payable",
      "type": "fallback"
    },
    {
      "inputs": [],
      "name": "CHALLENGER_ROLE",
      "outputs": [
        {
          "internalType": "bytes32",
          "name": "",
          "type": "bytes32"
        }
      ],
      "stateMutability": "view",
      "type": "function"
    },
    {
      "inputs": [],
      "name": "DEFAULT_ADMIN_ROLE",
      "outputs": [
        {
          "internalType": "bytes32",
          "name": "",
          "type": "bytes32"
        }
      ],
      "stateMutability": "view",
      "type": "function"
    },
    {
      "inputs": [],
      "name": "MAX_VALID_COMMISSION",
      "outputs": [
        {
          "internalType": "uint256",
          "name": "",
          "type": "uint256"
        }
      ],
      "stateMutability": "view",
      "type": "function"
    },
    {
      "inputs": [],
      "name": "MINTER_ROLE",
      "outputs": [
        {
          "internalType": "bytes32",
          "name": "",
          "type": "bytes32"
        }
      ],
      "stateMutability": "view",
      "type": "function"
    },
    {
      "inputs": [],
      "name": "MIN_VALID_COMMISSION",
      "outputs": [
        {
          "internalType": "uint256",
          "name": "",
          "type": "uint256"
        }
      ],
      "stateMutability": "view",
      "type": "function"
    },
    {
      "inputs": [],
      "name": "OPERATOR_ROLE",
      "outputs": [
        {
          "internalType": "bytes32",
          "name": "",
          "type": "bytes32"
        }
      ],
      "stateMutability": "view",
      "type": "function"
    },
    {
      "inputs": [],
      "name": "PAUSE_ROLE",
      "outputs": [
        {
          "internalType": "bytes32",
          "name": "",
          "type": "bytes32"
        }
      ],
      "stateMutability": "view",
      "type": "function"
    },
    {
      "inputs": [],
      "name": "RAY",
      "outputs": [
        {
          "internalType": "uint256",
          "name": "",
          "type": "uint256"
        }
      ],
      "stateMutability": "view",
      "type": "function"
    },
    {
      "inputs": [],
      "name": "accRelativeSeig",
      "outputs": [
        {
          "internalType": "uint256",
          "name": "",
          "type": "uint256"
        }
      ],
      "stateMutability": "view",
      "type": "function"
    },
    {
      "inputs": [
        {
          "internalType": "address",
          "name": "account",
          "type": "address"
        }
      ],
      "name": "addAdmin",
      "outputs": [],
      "stateMutability": "nonpayable",
      "type": "function"
    },
    {
      "inputs": [
        {
          "internalType": "address",
          "name": "account",
          "type": "address"
        }
      ],
      "name": "addChallenger",
      "outputs": [],
      "stateMutability": "nonpayable",
      "type": "function"
    },
    {
      "inputs": [
        {
          "internalType": "address",
          "name": "account",
          "type": "address"
        }
      ],
      "name": "addMinter",
      "outputs": [],
      "stateMutability": "nonpayable",
      "type": "function"
    },
    {
      "inputs": [
        {
          "internalType": "address",
          "name": "account",
          "type": "address"
        }
      ],
      "name": "addOperator",
      "outputs": [],
      "stateMutability": "nonpayable",
      "type": "function"
    },
    {
      "inputs": [],
      "name": "adjustCommissionDelay",
      "outputs": [
        {
          "internalType": "uint256",
          "name": "",
          "type": "uint256"
        }
      ],
      "stateMutability": "view",
      "type": "function"
    },
    {
      "inputs": [
        {
          "internalType": "address",
          "name": "",
          "type": "address"
        }
      ],
      "name": "aliveImplementation",
      "outputs": [
        {
          "internalType": "bool",
          "name": "",
          "type": "bool"
        }
      ],
      "stateMutability": "view",
      "type": "function"
    },
    {
      "inputs": [],
      "name": "dao",
      "outputs": [
        {
          "internalType": "address",
          "name": "",
          "type": "address"
        }
      ],
      "stateMutability": "view",
      "type": "function"
    },
    {
      "inputs": [],
      "name": "daoSeigRate",
      "outputs": [
        {
          "internalType": "uint256",
          "name": "",
          "type": "uint256"
        }
      ],
      "stateMutability": "view",
      "type": "function"
    },
    {
      "inputs": [
        {
          "internalType": "address",
          "name": "",
          "type": "address"
        }
      ],
      "name": "delayedCommissionBlock",
      "outputs": [
        {
          "internalType": "uint256",
          "name": "",
          "type": "uint256"
        }
      ],
      "stateMutability": "view",
      "type": "function"
    },
    {
      "inputs": [
        {
          "internalType": "address",
          "name": "",
          "type": "address"
        }
      ],
      "name": "delayedCommissionRate",
      "outputs": [
        {
          "internalType": "uint256",
          "name": "",
          "type": "uint256"
        }
      ],
      "stateMutability": "view",
      "type": "function"
    },
    {
      "inputs": [
        {
          "internalType": "address",
          "name": "",
          "type": "address"
        }
      ],
      "name": "delayedCommissionRateNegative",
      "outputs": [
        {
          "internalType": "bool",
          "name": "",
          "type": "bool"
        }
      ],
      "stateMutability": "view",
      "type": "function"
    },
    {
      "inputs": [],
      "name": "factory",
      "outputs": [
        {
          "internalType": "address",
          "name": "",
          "type": "address"
        }
      ],
      "stateMutability": "view",
      "type": "function"
    },
    {
      "inputs": [
        {
          "internalType": "bytes32",
          "name": "role",
          "type": "bytes32"
        }
      ],
      "name": "getRoleAdmin",
      "outputs": [
        {
          "internalType": "bytes32",
          "name": "",
          "type": "bytes32"
        }
      ],
      "stateMutability": "view",
      "type": "function"
    },
    {
      "inputs": [
        {
          "internalType": "bytes4",
          "name": "_selector",
          "type": "bytes4"
        }
      ],
      "name": "getSelectorImplementation2",
      "outputs": [
        {
          "internalType": "address",
          "name": "impl",
          "type": "address"
        }
      ],
      "stateMutability": "view",
      "type": "function"
    },
    {
      "inputs": [
        {
          "internalType": "bytes32",
          "name": "role",
          "type": "bytes32"
        },
        {
          "internalType": "address",
          "name": "account",
          "type": "address"
        }
      ],
      "name": "grantRole",
      "outputs": [],
      "stateMutability": "nonpayable",
      "type": "function"
    },
    {
      "inputs": [
        {
          "internalType": "bytes32",
          "name": "role",
          "type": "bytes32"
        },
        {
          "internalType": "address",
          "name": "account",
          "type": "address"
        }
      ],
      "name": "hasRole",
      "outputs": [
        {
          "internalType": "bool",
          "name": "",
          "type": "bool"
        }
      ],
      "stateMutability": "view",
      "type": "function"
    },
    {
      "inputs": [],
      "name": "implementation",
      "outputs": [
        {
          "internalType": "address",
          "name": "",
          "type": "address"
        }
      ],
      "stateMutability": "view",
      "type": "function"
    },
    {
      "inputs": [
        {
          "internalType": "uint256",
          "name": "_index",
          "type": "uint256"
        }
      ],
      "name": "implementation2",
      "outputs": [
        {
          "internalType": "address",
          "name": "",
          "type": "address"
        }
      ],
      "stateMutability": "view",
      "type": "function"
    },
    {
      "inputs": [
        {
          "internalType": "address",
          "name": "account",
          "type": "address"
        }
      ],
      "name": "isAdmin",
      "outputs": [
        {
          "internalType": "bool",
          "name": "",
          "type": "bool"
        }
      ],
      "stateMutability": "view",
      "type": "function"
    },
    {
      "inputs": [
        {
          "internalType": "address",
          "name": "account",
          "type": "address"
        }
      ],
      "name": "isChallenger",
      "outputs": [
        {
          "internalType": "bool",
          "name": "",
          "type": "bool"
        }
      ],
      "stateMutability": "view",
      "type": "function"
    },
    {
      "inputs": [
        {
          "internalType": "address",
          "name": "account",
          "type": "address"
        }
      ],
      "name": "isMinter",
      "outputs": [
        {
          "internalType": "bool",
          "name": "",
          "type": "bool"
        }
      ],
      "stateMutability": "view",
      "type": "function"
    },
    {
      "inputs": [
        {
          "internalType": "address",
          "name": "account",
          "type": "address"
        }
      ],
      "name": "isOperator",
      "outputs": [
        {
          "internalType": "bool",
          "name": "",
          "type": "bool"
        }
      ],
      "stateMutability": "view",
      "type": "function"
    },
    {
      "inputs": [],
      "name": "isOwner",
      "outputs": [
        {
          "internalType": "bool",
          "name": "",
          "type": "bool"
        }
      ],
      "stateMutability": "view",
      "type": "function"
    },
    {
      "inputs": [],
      "name": "lastSnapshotId",
      "outputs": [
        {
          "internalType": "uint256",
          "name": "",
          "type": "uint256"
        }
      ],
      "stateMutability": "view",
      "type": "function"
    },
    {
      "inputs": [],
      "name": "minimumAmount",
      "outputs": [
        {
          "internalType": "uint256",
          "name": "",
          "type": "uint256"
        }
      ],
      "stateMutability": "view",
      "type": "function"
    },
    {
      "inputs": [],
      "name": "pauseProxy",
      "outputs": [
        {
          "internalType": "bool",
          "name": "",
          "type": "bool"
        }
      ],
      "stateMutability": "view",
      "type": "function"
    },
    {
      "inputs": [],
      "name": "paused",
      "outputs": [
        {
          "internalType": "bool",
          "name": "",
          "type": "bool"
        }
      ],
      "stateMutability": "view",
      "type": "function"
    },
    {
      "inputs": [],
      "name": "powerTONSeigRate",
      "outputs": [
        {
          "internalType": "uint256",
          "name": "",
          "type": "uint256"
        }
      ],
      "stateMutability": "view",
      "type": "function"
    },
    {
      "inputs": [
        {
          "internalType": "uint256",
          "name": "",
          "type": "uint256"
        }
      ],
      "name": "proxyImplementation",
      "outputs": [
        {
          "internalType": "address",
          "name": "",
          "type": "address"
        }
      ],
      "stateMutability": "view",
      "type": "function"
    },
    {
      "inputs": [],
      "name": "relativeSeigRate",
      "outputs": [
        {
          "internalType": "uint256",
          "name": "",
          "type": "uint256"
        }
      ],
      "stateMutability": "view",
      "type": "function"
    },
    {
      "inputs": [
        {
          "internalType": "address",
          "name": "account",
          "type": "address"
        }
      ],
      "name": "removeAdmin",
      "outputs": [],
      "stateMutability": "nonpayable",
      "type": "function"
    },
    {
      "inputs": [
        {
          "internalType": "address",
          "name": "account",
          "type": "address"
        }
      ],
      "name": "removeChallenger",
      "outputs": [],
      "stateMutability": "nonpayable",
      "type": "function"
    },
    {
      "inputs": [
        {
          "internalType": "address",
          "name": "account",
          "type": "address"
        }
      ],
      "name": "removeMinter",
      "outputs": [],
      "stateMutability": "nonpayable",
      "type": "function"
    },
    {
      "inputs": [
        {
          "internalType": "address",
          "name": "account",
          "type": "address"
        }
      ],
      "name": "removeOperator",
      "outputs": [],
      "stateMutability": "nonpayable",
      "type": "function"
    },
    {
      "inputs": [],
      "name": "renounceChallenger",
      "outputs": [],
      "stateMutability": "nonpayable",
      "type": "function"
    },
    {
      "inputs": [],
      "name": "renounceMinter",
      "outputs": [],
      "stateMutability": "nonpayable",
      "type": "function"
    },
    {
      "inputs": [],
      "name": "renounceOperator",
      "outputs": [],
      "stateMutability": "nonpayable",
      "type": "function"
    },
    {
      "inputs": [],
      "name": "renounceOwnership",
      "outputs": [],
      "stateMutability": "nonpayable",
      "type": "function"
    },
    {
      "inputs": [
        {
          "internalType": "bytes32",
          "name": "role",
          "type": "bytes32"
        },
        {
          "internalType": "address",
          "name": "account",
          "type": "address"
        }
      ],
      "name": "renounceRole",
      "outputs": [],
      "stateMutability": "nonpayable",
      "type": "function"
    },
    {
      "inputs": [
        {
          "internalType": "address",
          "name": "account",
          "type": "address"
        }
      ],
      "name": "revokeChallenger",
      "outputs": [],
      "stateMutability": "nonpayable",
      "type": "function"
    },
    {
      "inputs": [
        {
          "internalType": "address",
          "name": "account",
          "type": "address"
        }
      ],
      "name": "revokeMinter",
      "outputs": [],
      "stateMutability": "nonpayable",
      "type": "function"
    },
    {
      "inputs": [
        {
          "internalType": "address",
          "name": "account",
          "type": "address"
        }
      ],
      "name": "revokeOperator",
      "outputs": [],
      "stateMutability": "nonpayable",
      "type": "function"
    },
    {
      "inputs": [
        {
          "internalType": "bytes32",
          "name": "role",
          "type": "bytes32"
        },
        {
          "internalType": "address",
          "name": "account",
          "type": "address"
        }
      ],
      "name": "revokeRole",
      "outputs": [],
      "stateMutability": "nonpayable",
      "type": "function"
    },
    {
      "inputs": [
        {
          "internalType": "bytes4",
          "name": "",
          "type": "bytes4"
        }
      ],
      "name": "selectorImplementation",
      "outputs": [
        {
          "internalType": "address",
          "name": "",
          "type": "address"
        }
      ],
      "stateMutability": "view",
      "type": "function"
    },
    {
      "inputs": [
        {
          "internalType": "address",
          "name": "newImplementation",
          "type": "address"
        },
        {
          "internalType": "bool",
          "name": "_alive",
          "type": "bool"
        }
      ],
      "name": "setAliveImplementation2",
      "outputs": [],
      "stateMutability": "nonpayable",
      "type": "function"
    },
    {
      "inputs": [
        {
          "internalType": "address",
          "name": "newImplementation",
          "type": "address"
        },
        {
          "internalType": "uint256",
          "name": "_index",
          "type": "uint256"
        },
        {
          "internalType": "bool",
          "name": "_alive",
          "type": "bool"
        }
      ],
      "name": "setImplementation2",
      "outputs": [],
      "stateMutability": "nonpayable",
      "type": "function"
    },
    {
      "inputs": [
        {
          "internalType": "bool",
          "name": "_pause",
          "type": "bool"
        }
      ],
      "name": "setProxyPause",
      "outputs": [],
      "stateMutability": "nonpayable",
      "type": "function"
    },
    {
      "inputs": [
        {
          "internalType": "bytes4[]",
          "name": "_selectors",
          "type": "bytes4[]"
        },
        {
          "internalType": "address",
          "name": "_imp",
          "type": "address"
        }
      ],
      "name": "setSelectorImplementations2",
      "outputs": [],
      "stateMutability": "nonpayable",
      "type": "function"
    },
    {
      "inputs": [
        {
          "internalType": "bytes4",
          "name": "interfaceId",
          "type": "bytes4"
        }
      ],
      "name": "supportsInterface",
      "outputs": [
        {
          "internalType": "bool",
          "name": "",
          "type": "bool"
        }
      ],
      "stateMutability": "view",
      "type": "function"
    },
    {
      "inputs": [
        {
          "internalType": "address",
          "name": "newAdmin",
          "type": "address"
        }
      ],
      "name": "transferAdmin",
      "outputs": [],
      "stateMutability": "nonpayable",
      "type": "function"
    },
    {
      "inputs": [
        {
          "internalType": "address",
          "name": "newAdmin",
          "type": "address"
        }
      ],
      "name": "transferOwnership",
      "outputs": [],
      "stateMutability": "nonpayable",
      "type": "function"
    },
    {
      "inputs": [
        {
          "internalType": "address",
          "name": "impl",
          "type": "address"
        }
      ],
      "name": "upgradeTo",
      "outputs": [],
      "stateMutability": "nonpayable",
      "type": "function"
    },
    {
      "stateMutability": "payable",
      "type": "receive"
    }
  ],
  "bytecode": "0x60806040523480156200001157600080fd5b506200001f600033620000a9565b6200003b600080516020620021108339815191526000620000b9565b620000687f523a704056dcd17bcf83bed8b68c59416dac1119be77755efe3bde0a64e46e0c6000620000b9565b620000a37fbf02bad7114723a857a3af46cea17b778a3a951c96f183784d9a2448cc479ab660008051602062002110833981519152620000b9565b620001a8565b620000b5828262000104565b5050565b600082815260056020526040808220600101805490849055905190918391839186917fbd79b86ffe0ab8e8776151514217cd7cacd52c909f66475c3af44e129f0b00ff9190a4505050565b60008281526005602090815260408083206001600160a01b038516845290915290205460ff16620000b55760008281526005602090815260408083206001600160a01b03851684529091529020805460ff19166001179055620001643390565b6001600160a01b0316816001600160a01b0316837f2f8788117e7eff1d82e926ec794901d17c78024a50270940304540a733656f0d60405160405180910390a45050565b611f5880620001b86000396000f3fe6080604052600436106103a65760003560e01c8063715018a6116101e7578063aa271e1a1161010d578063d5391393116100a0578063f2fde38b1161006f578063f2fde38b14610b4b578063f5b541a614610b6b578063f822934814610b8d578063fad8b32a14610ba3576103ef565b8063d539139314610ac6578063d547741f14610ae8578063df7fbef014610b08578063e2fe8fd114610b1e576103ef565b8063bb0c8298116100dc578063bb0c829814610a43578063c45a015514610a59578063cbfebe6214610a79578063cfbd488514610aa6576103ef565b8063aa271e1a1461099d578063ac753a7a146109bd578063ac8a584a146109ed578063b911135f14610a0d576103ef565b80638f32d59b116101855780639870d7fe116101545780639870d7fe14610929578063a217fddf14610949578063a415d8dc1461095e578063a7dcc8501461097e576103ef565b80638f32d59b146108bf57806391d14854146108d4578063983b2d56146108f45780639865027514610914576103ef565b80637cd5f663116101c15780637cd5f66314610849578063837afbc0146108695780638b8f4a651461087f5780638d4fdb401461089f576103ef565b8063715018a6146107f457806375829def146108095780637cb00d2514610829576103ef565b80634162169f116102cc5780635c60da1b1161026a57806363a8fd891161023957806363a8fd891461077a5780636c578c1d146107945780636d70f7ae146107b457806370480275146107d4576103ef565b80635c60da1b146106f65780635c975abb1461072a5780635cc797d8146107445780636304a62414610764576103ef565b8063530adbb4116102a6578063530adbb41461068e578063550d01a3146106b0578063552033c4146105e05780635998a8d7146106e0576103ef565b80634162169f146106005780634a5df50f1461063857806350d2a27614610658576103ef565b80632ab6f8db116103445780633659cfe6116103135780633659cfe61461056c578063389ed2671461058c5780633c491173146105c05780634123196f146105e0576103ef565b80632ab6f8db146104f75780632f2ff15d1461050c5780633092afd51461052c57806336568abe1461054c576103ef565b8063248a9ca311610380578063248a9ca31461046e57806324d7806c146104ac57806325374a9a146104cc57806325e90db4146104e2576103ef565b806301ffc9a7146103f95780630ceb67801461042e5780631785f53c1461044e576103ef565b366103ef5760405162461bcd60e51b815260206004820152601460248201527331b0b73737ba103932b1b2b4bb329022ba3432b960611b60448201526064015b60405180910390fd5b6103f7610bc3565b005b34801561040557600080fd5b50610419610414366004611b73565b610c6c565b60405190151581526020015b60405180910390f35b34801561043a57600080fd5b506103f7610449366004611bb4565b610c7d565b34801561045a57600080fd5b506103f7610469366004611bb4565b610d03565b34801561047a57600080fd5b5061049e610489366004611bcf565b60009081526005602052604090206001015490565b604051908152602001610425565b3480156104b857600080fd5b506104196104c7366004611bb4565b610d33565b3480156104d857600080fd5b5061049e601d5481565b3480156104ee57600080fd5b506103f7610d3f565b34801561050357600080fd5b506103f7610d59565b34801561051857600080fd5b506103f7610527366004611be8565b610d71565b34801561053857600080fd5b506103f7610547366004611bb4565b610d96565b34801561055857600080fd5b506103f7610567366004611be8565b610dcf565b34801561057857600080fd5b506103f7610587366004611bb4565b610e4d565b34801561059857600080fd5b5061049e7ffcb9fcbfa83b897fb2d5cf4b58962164105c1e71489a37ef3ae0db3fdce576f681565b3480156105cc57600080fd5b506103f76105db366004611bb4565b610f5b565b3480156105ec57600080fd5b5061049e6b033b2e3c9fd0803ce800000081565b34801561060c57600080fd5b50600954610620906001600160a01b031681565b6040516001600160a01b039091168152602001610425565b34801561064457600080fd5b506103f7610653366004611c14565b610f98565b34801561066457600080fd5b50610620610673366004611b73565b6003602052600090815260409020546001600160a01b031681565b34801561069a57600080fd5b5061049e600080516020611f2c83398151915281565b3480156106bc57600080fd5b506104196106cb366004611bb4565b60026020526000908152604090205460ff1681565b3480156106ec57600080fd5b5061049e601c5481565b34801561070257600080fd5b50600080526001602052600080516020611ecc833981519152546001600160a01b0316610620565b34801561073657600080fd5b50601f546104199060ff1681565b34801561075057600080fd5b506103f761075f366004611ca8565b6111ff565b34801561077057600080fd5b5061049e601b5481565b34801561078657600080fd5b506000546104199060ff1681565b3480156107a057600080fd5b506103f76107af366004611bb4565b61122e565b3480156107c057600080fd5b506104196107cf366004611bb4565b61126b565b3480156107e057600080fd5b506103f76107ef366004611bb4565b611285565b34801561080057600080fd5b506103f76112b5565b34801561081557600080fd5b506103f7610824366004611bb4565b6112e5565b34801561083557600080fd5b506103f7610844366004611cd2565b6113c7565b34801561085557600080fd5b506103f7610864366004611ced565b6113ff565b34801561087557600080fd5b5061049e60205481565b34801561088b57600080fd5b5061062061089a366004611bcf565b61142f565b3480156108ab57600080fd5b506106206108ba366004611b73565b61144c565b3480156108cb57600080fd5b50610419611524565b3480156108e057600080fd5b506104196108ef366004611be8565b61152c565b34801561090057600080fd5b506103f761090f366004611bb4565b611557565b34801561092057600080fd5b506103f7611594565b34801561093557600080fd5b506103f7610944366004611bb4565b6115ac565b34801561095557600080fd5b5061049e600081565b34801561096a57600080fd5b50610419610979366004611bb4565b6115e9565b34801561098a57600080fd5b5061049e6a084595161401484a00000081565b3480156109a957600080fd5b506104196109b8366004611bb4565b611603565b3480156109c957600080fd5b506104196109d8366004611bb4565b60196020526000908152604090205460ff1681565b3480156109f957600080fd5b506103f7610a08366004611bb4565b61161d565b348015610a1957600080fd5b50610620610a28366004611bcf565b6001602052600090815260409020546001600160a01b031681565b348015610a4f57600080fd5b5061049e601a5481565b348015610a6557600080fd5b50600c54610620906001600160a01b031681565b348015610a8557600080fd5b5061049e610a94366004611bb4565b60176020526000908152604090205481565b348015610ab257600080fd5b506103f7610ac1366004611bb4565b61165a565b348015610ad257600080fd5b5061049e600080516020611eec83398151915281565b348015610af457600080fd5b506103f7610b03366004611be8565b611693565b348015610b1457600080fd5b5061049e60165481565b348015610b2a57600080fd5b5061049e610b39366004611bb4565b60186020526000908152604090205481565b348015610b5757600080fd5b506103f7610b66366004611bb4565b6116b8565b348015610b7757600080fd5b5061049e600080516020611f0c83398151915281565b348015610b9957600080fd5b5061049e601e5481565b348015610baf57600080fd5b506103f7610bbe366004611bb4565b6116e6565b6000610bda6000356001600160e01b03191661144c565b90506001600160a01b03811615801590610bf7575060005460ff16155b610c435760405162461bcd60e51b815260206004820152601d60248201527f50726f78793a20696d706c204f522070726f78792069732066616c736500000060448201526064016103e6565b3660008037600080366000845af43d6000803e808015610c62573d6000f35b3d6000fd5b505050565b6000610c7782611723565b92915050565b610c8633610d33565b80610ca45750610ca4600080516020611eec8339815191523361152c565b610ce85760405162461bcd60e51b81526020600482015260156024820152743737ba1037b7363ca6b4b73a32b927b920b236b4b760591b60448201526064016103e6565b610d00600080516020611f2c83398151915282610d71565b50565b610d0c33610d33565b610d285760405162461bcd60e51b81526004016103e690611d20565b610d00600082610dcf565b6000610c77818361152c565b610d57600080516020611f2c83398151915233610dcf565b565b610d57600080516020611f0c83398151915233610dcf565b600082815260056020526040902060010154610d8c81611748565b610c678383611752565b610d9f33610d33565b610dbb5760405162461bcd60e51b81526004016103e690611d20565b610d00600080516020611eec833981519152825b6001600160a01b0381163314610e3f5760405162461bcd60e51b815260206004820152602f60248201527f416363657373436f6e74726f6c3a2063616e206f6e6c792072656e6f756e636560448201526e103937b632b9903337b91039b2b63360891b60648201526084016103e6565b610e4982826117d8565b5050565b610e5633610d33565b610e725760405162461bcd60e51b81526004016103e690611d20565b6001600160a01b038116610eb85760405162461bcd60e51b815260206004820152600d60248201526c696e707574206973207a65726f60981b60448201526064016103e6565b600080526001602052600080516020611ecc833981519152546001600160a01b03828116911603610f175760405162461bcd60e51b815260206004820152600960248201526839b0b6b29030b2323960b91b60448201526064016103e6565b610f24816000600161183f565b6040516001600160a01b038216907fbc7cd75a20ee27fd9adebab32041f755214dbc6bffa90cc0225b39da2e5c2d3b90600090a250565b610f6433610d33565b610f805760405162461bcd60e51b81526004016103e690611d20565b610d00600080516020611f2c83398151915282611693565b610fa133610d33565b610fbd5760405162461bcd60e51b81526004016103e690611d20565b8161100a5760405162461bcd60e51b815260206004820181905260248201527f50726f78793a205f73656c6563746f727327732073697a65206973207a65726f60448201526064016103e6565b6001600160a01b03811660009081526002602052604090205460ff166110725760405162461bcd60e51b815260206004820152601860248201527f50726f78793a205f696d70206973206e6f7420616c697665000000000000000060448201526064016103e6565b60005b828110156111f457816001600160a01b03166003600086868581811061109d5761109d611d63565b90506020020160208101906110b29190611b73565b6001600160e01b03191681526020810191909152604001600020546001600160a01b0316036111235760405162461bcd60e51b815260206004820152601d60248201527f4c69717569646974795661756c7450726f78793a2073616d6520696d7000000060448201526064016103e6565b816003600086868581811061113a5761113a611d63565b905060200201602081019061114f9190611b73565b6001600160e01b0319168152602081019190915260400160002080546001600160a01b0319166001600160a01b03928316179055821684848381811061119757611197611d63565b90506020020160208101906111ac9190611b73565b6001600160e01b0319167f14ebc1c32aa68f4d766e89f3e546cee249f7df25183fc10ab1568d91c2ce9b7b60405160405180910390a3806111ec81611d8f565b915050611075565b50505050565b905090565b61120833610d33565b6112245760405162461bcd60e51b81526004016103e690611d20565b610e4982826118ca565b61123733610d33565b6112535760405162461bcd60e51b81526004016103e690611d20565b610d00600080516020611f2c83398151915282610dcf565b6000610c77600080516020611f0c8339815191528361152c565b61128e33610d33565b6112aa5760405162461bcd60e51b81526004016103e690611d20565b610d00600082610d71565b6112be33610d33565b6112da5760405162461bcd60e51b81526004016103e690611d20565b610d57600033610dcf565b6112ee33610d33565b61130a5760405162461bcd60e51b81526004016103e690611d20565b6001600160a01b0381166113605760405162461bcd60e51b815260206004820152601860248201527f41636365737369626c653a207a65726f2061646472657373000000000000000060448201526064016103e6565b6001600160a01b03811633036113b15760405162461bcd60e51b815260206004820152601660248201527520b1b1b2b9b9b4b136329d1039b0b6b29030b236b4b760511b60448201526064016103e6565b6113bc600082610d71565b610d00600033610dcf565b6113d033610d33565b6113ec5760405162461bcd60e51b81526004016103e690611d20565b6000805460ff1916911515919091179055565b61140833610d33565b6114245760405162461bcd60e51b81526004016103e690611d20565b610c6783838361183f565b6000818152600160205260408120546001600160a01b0316610c77565b6001600160e01b031981166000908152600360205260408120546001600160a01b031661149a575050600080526001602052600080516020611ecc833981519152546001600160a01b031690565b6001600160e01b031982166000908152600360209081526040808320546001600160a01b03168352600290915290205460ff16156114f857506001600160e01b0319166000908152600360205260409020546001600160a01b031690565b5050600080526001602052600080516020611ecc833981519152546001600160a01b031690565b919050565b60006111fa81335b60009182526005602090815260408084206001600160a01b0393909316845291905290205460ff1690565b61156033610d33565b61157c5760405162461bcd60e51b81526004016103e690611d20565b610d00600080516020611eec83398151915282610d71565b610d57600080516020611eec83398151915233610dcf565b6115b533610d33565b6115d15760405162461bcd60e51b81526004016103e690611d20565b610d00600080516020611f0c83398151915282610d71565b6000610c77600080516020611f2c8339815191528361152c565b6000610c77600080516020611eec8339815191528361152c565b61162633610d33565b6116425760405162461bcd60e51b81526004016103e690611d20565b610d00600080516020611f0c83398151915282610dcf565b61166333610d33565b61167f5760405162461bcd60e51b81526004016103e690611d20565b610d00600080516020611eec833981519152825b6000828152600560205260409020600101546116ae81611748565b610c6783836117d8565b6116c133610d33565b6116dd5760405162461bcd60e51b81526004016103e690611d20565b610d00816112e5565b6116ef33610d33565b61170b5760405162461bcd60e51b81526004016103e690611d20565b610d00600080516020611f0c83398151915282611693565b60006001600160e01b03198216637965db0b60e01b1480610c775750610c7782611929565b610d008133611965565b61175c828261152c565b610e495760008281526005602090815260408083206001600160a01b03851684529091529020805460ff191660011790556117943390565b6001600160a01b0316816001600160a01b0316837f2f8788117e7eff1d82e926ec794901d17c78024a50270940304540a733656f0d60405160405180910390a45050565b6117e2828261152c565b15610e495760008281526005602090815260408083206001600160a01b0385168085529252808320805460ff1916905551339285917ff6391f5c32d9c69d2a47ea670b442974b53935d1edc7fd64eb21e047a839171b9190a45050565b6001600160a01b0383163b6118965760405162461bcd60e51b815260206004820152601b60248201527f50726f78793a206e6f7420636f6e74726163742061646472657373000000000060448201526064016103e6565b80156118c457600082815260016020526040902080546001600160a01b0319166001600160a01b0385161790555b610c6783825b6001600160a01b038216600081815260026020908152604091829020805460ff191685151590811790915591519182527f72558d9bfba4210f9ef095c782589484151f6d90f7a81bb3cb9b33efc695d324910160405180910390a25050565b60006301ffc9a760e01b6001600160e01b031983161480610c775750506001600160e01b03191660009081526004602052604090205460ff1690565b61196f828261152c565b610e495761197c816119be565b6119878360206119d0565b604051602001611998929190611dcc565b60408051601f198184030181529082905262461bcd60e51b82526103e691600401611e41565b6060610c776001600160a01b03831660145b606060006119df836002611e74565b6119ea906002611e8b565b67ffffffffffffffff811115611a0257611a02611e9e565b6040519080825280601f01601f191660200182016040528015611a2c576020820181803683370190505b509050600360fc1b81600081518110611a4757611a47611d63565b60200101906001600160f81b031916908160001a905350600f60fb1b81600181518110611a7657611a76611d63565b60200101906001600160f81b031916908160001a9053506000611a9a846002611e74565b611aa5906001611e8b565b90505b6001811115611b1d576f181899199a1a9b1b9c1cb0b131b232b360811b85600f1660108110611ad957611ad9611d63565b1a60f81b828281518110611aef57611aef611d63565b60200101906001600160f81b031916908160001a90535060049490941c93611b1681611eb4565b9050611aa8565b508315611b6c5760405162461bcd60e51b815260206004820181905260248201527f537472696e67733a20686578206c656e67746820696e73756666696369656e7460448201526064016103e6565b9392505050565b600060208284031215611b8557600080fd5b81356001600160e01b031981168114611b6c57600080fd5b80356001600160a01b038116811461151f57600080fd5b600060208284031215611bc657600080fd5b611b6c82611b9d565b600060208284031215611be157600080fd5b5035919050565b60008060408385031215611bfb57600080fd5b82359150611c0b60208401611b9d565b90509250929050565b600080600060408486031215611c2957600080fd5b833567ffffffffffffffff80821115611c4157600080fd5b818601915086601f830112611c5557600080fd5b813581811115611c6457600080fd5b8760208260051b8501011115611c7957600080fd5b602092830195509350611c8f9186019050611b9d565b90509250925092565b8035801515811461151f57600080fd5b60008060408385031215611cbb57600080fd5b611cc483611b9d565b9150611c0b60208401611c98565b600060208284031215611ce457600080fd5b611b6c82611c98565b600080600060608486031215611d0257600080fd5b611d0b84611b9d565b925060208401359150611c8f60408501611c98565b60208082526023908201527f41757468436f6e74726f6c3a2043616c6c6572206973206e6f7420616e20616460408201526236b4b760e91b606082015260800190565b634e487b7160e01b600052603260045260246000fd5b634e487b7160e01b600052601160045260246000fd5b600060018201611da157611da1611d79565b5060010190565b60005b83811015611dc3578181015183820152602001611dab565b50506000910152565b7f416363657373436f6e74726f6c3a206163636f756e7420000000000000000000815260008351611e04816017850160208801611da8565b7001034b99036b4b9b9b4b733903937b6329607d1b6017918401918201528351611e35816028840160208801611da8565b01602801949350505050565b6020815260008251806020840152611e60816040850160208701611da8565b601f01601f19169190910160400192915050565b8082028115828204841417610c7757610c77611d79565b80820180821115610c7757610c77611d79565b634e487b7160e01b600052604160045260246000fd5b600081611ec357611ec3611d79565b50600019019056fea6eef7e35abe7026729641147f7915573c7e97b47efa546f5f6e3230263bcb49f0887ba65ee2024ea881d91b74c2450ef19e1557f03bed3ea9f16b037cbe2dc9523a704056dcd17bcf83bed8b68c59416dac1119be77755efe3bde0a64e46e0cbf02bad7114723a857a3af46cea17b778a3a951c96f183784d9a2448cc479ab6a164736f6c6343000813000af0887ba65ee2024ea881d91b74c2450ef19e1557f03bed3ea9f16b037cbe2dc9",
  "linkReferences": {},
  "deployedLinkReferences": {}
}