{
  "_format": "hh-sol-artifact-1",
  "contractName": "RefactorCoinageSnapshotProxy",
  "sourceName": "contracts/stake/tokens/RefactorCoinageSnapshotProxy.sol",
  "abi": [
    {
      "anonymous": false,
      "inputs": [
        {
          "indexed": true,
          "internalType": "bytes32",
          "name": "role",
          "type": "bytes32"
        },
        {
          "indexed": true,
          "internalType": "bytes32",
          "name": "previousAdminRole",
          "type": "bytes32"
        },
        {
          "indexed": true,
          "internalType": "bytes32",
          "name": "newAdminRole",
          "type": "bytes32"
        }
      ],
      "name": "RoleAdminChanged",
      "type": "event"
    },
    {
      "anonymous": false,
      "inputs": [
        {
          "indexed": true,
          "internalType": "bytes32",
          "name": "role",
          "type": "bytes32"
        },
        {
          "indexed": true,
          "internalType": "address",
          "name": "account",
          "type": "address"
        },
        {
          "indexed": true,
          "internalType": "address",
          "name": "sender",
          "type": "address"
        }
      ],
      "name": "RoleGranted",
      "type": "event"
    },
    {
      "anonymous": false,
      "inputs": [
        {
          "indexed": true,
          "internalType": "bytes32",
          "name": "role",
          "type": "bytes32"
        },
        {
          "indexed": true,
          "internalType": "address",
          "name": "account",
          "type": "address"
        },
        {
          "indexed": true,
          "internalType": "address",
          "name": "sender",
          "type": "address"
        }
      ],
      "name": "RoleRevoked",
      "type": "event"
    },
    {
      "anonymous": false,
      "inputs": [
        {
          "indexed": true,
          "internalType": "address",
          "name": "impl",
          "type": "address"
        },
        {
          "indexed": false,
          "internalType": "bool",
          "name": "alive",
          "type": "bool"
        }
      ],
      "name": "SetAliveImplementation",
      "type": "event"
    },
    {
      "anonymous": false,
      "inputs": [
        {
          "indexed": true,
          "internalType": "bytes4",
          "name": "selector",
          "type": "bytes4"
        },
        {
          "indexed": true,
          "internalType": "address",
          "name": "impl",
          "type": "address"
        }
      ],
      "name": "SetSelectorImplementation",
      "type": "event"
    },
    {
      "anonymous": false,
      "inputs": [
        {
          "indexed": true,
          "internalType": "address",
          "name": "implementation",
          "type": "address"
        }
      ],
      "name": "Upgraded",
      "type": "event"
    },
    {
      "stateMutability": "payable",
      "type": "fallback"
    },
    {
      "inputs": [],
      "name": "DEFAULT_ADMIN_ROLE",
      "outputs": [
        {
          "internalType": "bytes32",
          "name": "",
          "type": "bytes32"
        }
      ],
      "stateMutability": "view",
      "type": "function"
    },
    {
      "inputs": [],
      "name": "MINTER_ROLE",
      "outputs": [
        {
          "internalType": "bytes32",
          "name": "",
          "type": "bytes32"
        }
      ],
      "stateMutability": "view",
      "type": "function"
    },
    {
      "inputs": [],
      "name": "OPERATOR_ROLE",
      "outputs": [
        {
          "internalType": "bytes32",
          "name": "",
          "type": "bytes32"
        }
      ],
      "stateMutability": "view",
      "type": "function"
    },
    {
      "inputs": [],
      "name": "REFACTOR_BOUNDARY",
      "outputs": [
        {
          "internalType": "uint256",
          "name": "",
          "type": "uint256"
        }
      ],
      "stateMutability": "view",
      "type": "function"
    },
    {
      "inputs": [],
      "name": "REFACTOR_DIVIDER",
      "outputs": [
        {
          "internalType": "uint256",
          "name": "",
          "type": "uint256"
        }
      ],
      "stateMutability": "view",
      "type": "function"
    },
    {
      "inputs": [
        {
          "internalType": "address",
          "name": "",
          "type": "address"
        },
        {
          "internalType": "address",
          "name": "",
          "type": "address"
        }
      ],
      "name": "_allowances",
      "outputs": [
        {
          "internalType": "uint256",
          "name": "",
          "type": "uint256"
        }
      ],
      "stateMutability": "view",
      "type": "function"
    },
    {
      "inputs": [
        {
          "internalType": "address",
          "name": "",
          "type": "address"
        },
        {
          "internalType": "uint256",
          "name": "",
          "type": "uint256"
        }
      ],
      "name": "accountBalanceIds",
      "outputs": [
        {
          "internalType": "uint256",
          "name": "",
          "type": "uint256"
        }
      ],
      "stateMutability": "view",
      "type": "function"
    },
    {
      "inputs": [
        {
          "internalType": "address",
          "name": "",
          "type": "address"
        },
        {
          "internalType": "uint256",
          "name": "",
          "type": "uint256"
        }
      ],
      "name": "accountBalanceSnapshots",
      "outputs": [
        {
          "internalType": "uint256",
          "name": "balance",
          "type": "uint256"
        },
        {
          "internalType": "uint256",
          "name": "refactoredCount",
          "type": "uint256"
        }
      ],
      "stateMutability": "view",
      "type": "function"
    },
    {
      "inputs": [
        {
          "internalType": "address",
          "name": "account",
          "type": "address"
        }
      ],
      "name": "addAdmin",
      "outputs": [],
      "stateMutability": "nonpayable",
      "type": "function"
    },
    {
      "inputs": [
        {
          "internalType": "address",
          "name": "account",
          "type": "address"
        }
      ],
      "name": "addMinter",
      "outputs": [],
      "stateMutability": "nonpayable",
      "type": "function"
    },
    {
      "inputs": [
        {
          "internalType": "address",
          "name": "account",
          "type": "address"
        }
      ],
      "name": "addOperator",
      "outputs": [],
      "stateMutability": "nonpayable",
      "type": "function"
    },
    {
      "inputs": [
        {
          "internalType": "address",
          "name": "",
          "type": "address"
        }
      ],
      "name": "aliveImplementation",
      "outputs": [
        {
          "internalType": "bool",
          "name": "",
          "type": "bool"
        }
      ],
      "stateMutability": "view",
      "type": "function"
    },
    {
      "inputs": [
        {
          "internalType": "uint256",
          "name": "",
          "type": "uint256"
        }
      ],
      "name": "factorSnapshotIds",
      "outputs": [
        {
          "internalType": "uint256",
          "name": "",
          "type": "uint256"
        }
      ],
      "stateMutability": "view",
      "type": "function"
    },
    {
      "inputs": [
        {
          "internalType": "uint256",
          "name": "",
          "type": "uint256"
        }
      ],
      "name": "factorSnapshots",
      "outputs": [
        {
          "internalType": "uint256",
          "name": "factor",
          "type": "uint256"
        },
        {
          "internalType": "uint256",
          "name": "refactorCount",
          "type": "uint256"
        }
      ],
      "stateMutability": "view",
      "type": "function"
    },
    {
      "inputs": [
        {
          "internalType": "bytes32",
          "name": "role",
          "type": "bytes32"
        }
      ],
      "name": "getRoleAdmin",
      "outputs": [
        {
          "internalType": "bytes32",
          "name": "",
          "type": "bytes32"
        }
      ],
      "stateMutability": "view",
      "type": "function"
    },
    {
      "inputs": [
        {
          "internalType": "bytes4",
          "name": "_selector",
          "type": "bytes4"
        }
      ],
      "name": "getSelectorImplementation2",
      "outputs": [
        {
          "internalType": "address",
          "name": "impl",
          "type": "address"
        }
      ],
      "stateMutability": "view",
      "type": "function"
    },
    {
      "inputs": [
        {
          "internalType": "bytes32",
          "name": "role",
          "type": "bytes32"
        },
        {
          "internalType": "address",
          "name": "account",
          "type": "address"
        }
      ],
      "name": "grantRole",
      "outputs": [],
      "stateMutability": "nonpayable",
      "type": "function"
    },
    {
      "inputs": [
        {
          "internalType": "bytes32",
          "name": "role",
          "type": "bytes32"
        },
        {
          "internalType": "address",
          "name": "account",
          "type": "address"
        }
      ],
      "name": "hasRole",
      "outputs": [
        {
          "internalType": "bool",
          "name": "",
          "type": "bool"
        }
      ],
      "stateMutability": "view",
      "type": "function"
    },
    {
      "inputs": [],
      "name": "implementation",
      "outputs": [
        {
          "internalType": "address",
          "name": "",
          "type": "address"
        }
      ],
      "stateMutability": "view",
      "type": "function"
    },
    {
      "inputs": [
        {
          "internalType": "uint256",
          "name": "_index",
          "type": "uint256"
        }
      ],
      "name": "implementation2",
      "outputs": [
        {
          "internalType": "address",
          "name": "",
          "type": "address"
        }
      ],
      "stateMutability": "view",
      "type": "function"
    },
    {
      "inputs": [
        {
          "internalType": "address",
          "name": "account",
          "type": "address"
        }
      ],
      "name": "isAdmin",
      "outputs": [
        {
          "internalType": "bool",
          "name": "",
          "type": "bool"
        }
      ],
      "stateMutability": "view",
      "type": "function"
    },
    {
      "inputs": [
        {
          "internalType": "address",
          "name": "account",
          "type": "address"
        }
      ],
      "name": "isMinter",
      "outputs": [
        {
          "internalType": "bool",
          "name": "",
          "type": "bool"
        }
      ],
      "stateMutability": "view",
      "type": "function"
    },
    {
      "inputs": [
        {
          "internalType": "address",
          "name": "account",
          "type": "address"
        }
      ],
      "name": "isOperator",
      "outputs": [
        {
          "internalType": "bool",
          "name": "",
          "type": "bool"
        }
      ],
      "stateMutability": "view",
      "type": "function"
    },
    {
      "inputs": [],
      "name": "isOwner",
      "outputs": [
        {
          "internalType": "bool",
          "name": "",
          "type": "bool"
        }
      ],
      "stateMutability": "view",
      "type": "function"
    },
    {
      "inputs": [],
      "name": "lastSnapshotId",
      "outputs": [
        {
          "internalType": "uint256",
          "name": "",
          "type": "uint256"
        }
      ],
      "stateMutability": "view",
      "type": "function"
    },
    {
      "inputs": [],
      "name": "name",
      "outputs": [
        {
          "internalType": "string",
          "name": "",
          "type": "string"
        }
      ],
      "stateMutability": "view",
      "type": "function"
    },
    {
      "inputs": [],
      "name": "pauseProxy",
      "outputs": [
        {
          "internalType": "bool",
          "name": "",
          "type": "bool"
        }
      ],
      "stateMutability": "view",
      "type": "function"
    },
    {
      "inputs": [
        {
          "internalType": "uint256",
          "name": "",
          "type": "uint256"
        }
      ],
      "name": "proxyImplementation",
      "outputs": [
        {
          "internalType": "address",
          "name": "",
          "type": "address"
        }
      ],
      "stateMutability": "view",
      "type": "function"
    },
    {
      "inputs": [
        {
          "internalType": "address",
          "name": "account",
          "type": "address"
        }
      ],
      "name": "removeAdmin",
      "outputs": [],
      "stateMutability": "nonpayable",
      "type": "function"
    },
    {
      "inputs": [
        {
          "internalType": "address",
          "name": "account",
          "type": "address"
        }
      ],
      "name": "removeMinter",
      "outputs": [],
      "stateMutability": "nonpayable",
      "type": "function"
    },
    {
      "inputs": [
        {
          "internalType": "address",
          "name": "account",
          "type": "address"
        }
      ],
      "name": "removeOperator",
      "outputs": [],
      "stateMutability": "nonpayable",
      "type": "function"
    },
    {
      "inputs": [],
      "name": "renounceMinter",
      "outputs": [],
      "stateMutability": "nonpayable",
      "type": "function"
    },
    {
      "inputs": [],
      "name": "renounceOperator",
      "outputs": [],
      "stateMutability": "nonpayable",
      "type": "function"
    },
    {
      "inputs": [],
      "name": "renounceOwnership",
      "outputs": [],
      "stateMutability": "nonpayable",
      "type": "function"
    },
    {
      "inputs": [
        {
          "internalType": "bytes32",
          "name": "role",
          "type": "bytes32"
        },
        {
          "internalType": "address",
          "name": "account",
          "type": "address"
        }
      ],
      "name": "renounceRole",
      "outputs": [],
      "stateMutability": "nonpayable",
      "type": "function"
    },
    {
      "inputs": [
        {
          "internalType": "address",
          "name": "account",
          "type": "address"
        }
      ],
      "name": "revokeMinter",
      "outputs": [],
      "stateMutability": "nonpayable",
      "type": "function"
    },
    {
      "inputs": [
        {
          "internalType": "address",
          "name": "account",
          "type": "address"
        }
      ],
      "name": "revokeOperator",
      "outputs": [],
      "stateMutability": "nonpayable",
      "type": "function"
    },
    {
      "inputs": [
        {
          "internalType": "bytes32",
          "name": "role",
          "type": "bytes32"
        },
        {
          "internalType": "address",
          "name": "account",
          "type": "address"
        }
      ],
      "name": "revokeRole",
      "outputs": [],
      "stateMutability": "nonpayable",
      "type": "function"
    },
    {
      "inputs": [],
      "name": "seigManager",
      "outputs": [
        {
          "internalType": "address",
          "name": "",
          "type": "address"
        }
      ],
      "stateMutability": "view",
      "type": "function"
    },
    {
      "inputs": [
        {
          "internalType": "bytes4",
          "name": "",
          "type": "bytes4"
        }
      ],
      "name": "selectorImplementation",
      "outputs": [
        {
          "internalType": "address",
          "name": "",
          "type": "address"
        }
      ],
      "stateMutability": "view",
      "type": "function"
    },
    {
      "inputs": [
        {
          "internalType": "address",
          "name": "newImplementation",
          "type": "address"
        },
        {
          "internalType": "bool",
          "name": "_alive",
          "type": "bool"
        }
      ],
      "name": "setAliveImplementation2",
      "outputs": [],
      "stateMutability": "nonpayable",
      "type": "function"
    },
    {
      "inputs": [
        {
          "internalType": "address",
          "name": "newImplementation",
          "type": "address"
        },
        {
          "internalType": "uint256",
          "name": "_index",
          "type": "uint256"
        },
        {
          "internalType": "bool",
          "name": "_alive",
          "type": "bool"
        }
      ],
      "name": "setImplementation2",
      "outputs": [],
      "stateMutability": "nonpayable",
      "type": "function"
    },
    {
      "inputs": [
        {
          "internalType": "bool",
          "name": "_pause",
          "type": "bool"
        }
      ],
      "name": "setProxyPause",
      "outputs": [],
      "stateMutability": "nonpayable",
      "type": "function"
    },
    {
      "inputs": [
        {
          "internalType": "bytes4[]",
          "name": "_selectors",
          "type": "bytes4[]"
        },
        {
          "internalType": "address",
          "name": "_imp",
          "type": "address"
        }
      ],
      "name": "setSelectorImplementations2",
      "outputs": [],
      "stateMutability": "nonpayable",
      "type": "function"
    },
    {
      "inputs": [
        {
          "internalType": "bytes4",
          "name": "interfaceId",
          "type": "bytes4"
        }
      ],
      "name": "supportsInterface",
      "outputs": [
        {
          "internalType": "bool",
          "name": "",
          "type": "bool"
        }
      ],
      "stateMutability": "view",
      "type": "function"
    },
    {
      "inputs": [],
      "name": "symbol",
      "outputs": [
        {
          "internalType": "string",
          "name": "",
          "type": "string"
        }
      ],
      "stateMutability": "view",
      "type": "function"
    },
    {
      "inputs": [
        {
          "internalType": "uint256",
          "name": "",
          "type": "uint256"
        }
      ],
      "name": "totalSupplySnapshotIds",
      "outputs": [
        {
          "internalType": "uint256",
          "name": "",
          "type": "uint256"
        }
      ],
      "stateMutability": "view",
      "type": "function"
    },
    {
      "inputs": [
        {
          "internalType": "uint256",
          "name": "",
          "type": "uint256"
        }
      ],
      "name": "totalSupplySnapshots",
      "outputs": [
        {
          "internalType": "uint256",
          "name": "balance",
          "type": "uint256"
        },
        {
          "internalType": "uint256",
          "name": "refactoredCount",
          "type": "uint256"
        }
      ],
      "stateMutability": "view",
      "type": "function"
    },
    {
      "inputs": [
        {
          "internalType": "address",
          "name": "newAdmin",
          "type": "address"
        }
      ],
      "name": "transferAdmin",
      "outputs": [],
      "stateMutability": "nonpayable",
      "type": "function"
    },
    {
      "inputs": [
        {
          "internalType": "address",
          "name": "newAdmin",
          "type": "address"
        }
      ],
      "name": "transferOwnership",
      "outputs": [],
      "stateMutability": "nonpayable",
      "type": "function"
    },
    {
      "inputs": [
        {
          "internalType": "address",
          "name": "impl",
          "type": "address"
        }
      ],
      "name": "upgradeTo",
      "outputs": [],
      "stateMutability": "nonpayable",
      "type": "function"
    },
    {
      "stateMutability": "payable",
      "type": "receive"
    }
  ],
  "bytecode": "0x608060408181523461011257600090818052600560205280822033835260205260ff8183205416156100c7575b7ff0887ba65ee2024ea881d91b74c2450ef19e1557f03bed3ea9f16b037cbe2dc99081835260056020528260018282200181815491557fbd79b86ffe0ab8e8776151514217cd7cacd52c909f66475c3af44e129f0b00ff93848380a460017f523a704056dcd17bcf83bed8b68c59416dac1119be77755efe3bde0a64e46e0c918285528420019183835493558380a461217290816101188239f35b8180526005602052808220338352602052808220600160ff198254161790553333837f2f8788117e7eff1d82e926ec794901d17c78024a50270940304540a733656f0d8180a461002c565b600080fdfe60806040526004361015610018575b36611f5e57611f22565b60003560e01c8062d87a9c1461034257806301ffc9a71461033d578063024c2ddd146103385780630461fdc51461033357806306fdde031461032e5780631785f53c14610329578063248a9ca31461032457806324d7806c1461031f5780632ab6f8db1461031a5780632f2ff15d146103155780633092afd51461031057806336568abe1461030b5780633659cfe6146103065780634a5df50f1461030157806350d2a276146102fc578063550d01a3146102f757806356fabf68146102f25780635c60da1b146102ed5780635cc797d8146102e85780635deaecec146102e3578063614db8b2146102de57806363a8fd89146102d957806369f499b1146102d45780636d70f7ae146102cf5780636fb7f558146102ca57806370480275146102c5578063715018a6146102c057806375829def146102bb5780637cb00d25146102b65780637cd5f663146102b1578063837afbc0146102ac5780638b8f4a651461026b5780638d4fdb40146102a75780638f32d59b146102a257806391d148541461029d57806395d89b4114610298578063983b2d5614610293578063986502751461028e5780639870d7fe14610289578063a217fddf14610284578063aa271e1a1461027f578063ac8a584a1461027a578063b7c246d714610275578063b7d78b1a14610270578063b911135f1461026b578063cfbd488514610266578063d539139314610261578063d547741f1461025c578063f2fde38b14610257578063f5b541a6146102525763fad8b32a0361000e576116f4565b6116cb565b6116a6565b611667565b61163e565b611555565b6111ad565b611510565b6114e9565b6114bc565b61146a565b61144e565b6113e1565b6113c7565b61135a565b611297565b611251565b61121a565b6111e1565b61118f565b6110b5565b61105d565b610f96565b610f70565b610e84565b610e5b565b610e09565b610db5565b610d92565b610d41565b610cfc565b610ca5565b610c74565b610c23565b610bce565b610b88565b6109a0565b6108c0565b61082e565b610801565b610738565b61071e565b6106ce565b61069f565b61066b565b610563565b610472565b61041a565b610375565b3461035e57600036600319011261035e57602060405160028152f35b600080fd5b6001600160e01b031981160361035e57565b3461035e57602036600319011261035e5760043561039281610363565b6001600160e01b031916637965db0b60e01b811480156103ba575b6020906040519015158152f35b506301ffc9a760e01b811480156103d5575b602091506103ad565b506000526004602052602060ff604060002054166103cc565b600435906001600160a01b038216820361035e57565b602435906001600160a01b038216820361035e57565b3461035e57604036600319011261035e5760206104696104386103ee565b610440610404565b6001600160a01b0391821660009081526009855260408082209290931681526020919091522090565b54604051908152f35b3461035e57604036600319011261035e576001600160a01b036104936103ee565b16600052600f6020526040600020602435600052602052604060002060018154910154906104d36040519283928360209093929193604081019481520152565b0390f35b634e487b7160e01b600052604160045260246000fd5b90601f8019910116810190811067ffffffffffffffff82111761050f57604052565b6104d7565b60005b8381106105275750506000910152565b8181015183820152602001610517565b604091602082526105578151809281602086015260208686019101610514565b601f01601f1916010190565b3461035e576000806003193601126106685760405190806007549060019180831c9280821692831561065e575b602092838610851461064a57858852602088019490811561062957506001146105d0575b6104d3876105c4818903826104ed565b60405191829182610537565b600760005294509192917fa66cc928b5edb82af9bd49922954155ab7b0942694bea4ce44661d9a8736c6885b83861061061857505050910190506105c4826104d338806105b4565b8054858701529482019481016105fc565b60ff191685525050505090151560051b0190506105c4826104d338806105b4565b634e487b7160e01b82526022600452602482fd5b93607f1693610590565b80fd5b3461035e57602036600319011261035e5761069d6106876103ee565b61069861069333611761565b611d2d565b6119a7565b005b3461035e57602036600319011261035e5760043560005260056020526020600160406000200154604051908152f35b3461035e57602036600319011261035e57602060ff6107126106ee6103ee565b600080526005845260406000209060018060a01b0316600052602052604060002090565b54166040519015158152f35b3461035e57600036600319011261035e5761069d33611a32565b3461035e57604036600319011261035e57600435610754610404565b600091808352600560205261076f600160408520015461184f565b8083526005602090815260408085206001600160a01b0385166000908152925290205460ff161561079e578280f35b8083526005602090815260408085206001600160a01b038516600090815292529020805460ff1916600117905533916001600160a01b0316907f2f8788117e7eff1d82e926ec794901d17c78024a50270940304540a733656f0d8480a438808280f35b3461035e57602036600319011261035e5761069d61081d6103ee565b61082961069333611761565b611ae8565b3461035e57604036600319011261035e57610847610404565b336001600160a01b038216036108635761069d90600435611b4a565b60405162461bcd60e51b815260206004820152602f60248201527f416363657373436f6e74726f6c3a2063616e206f6e6c792072656e6f756e636560448201526e103937b632b9903337b91039b2b63360891b6064820152608490fd5b3461035e57602036600319011261035e576108d96103ee565b336000908152600080516020612146833981519152602052604081209091906109079060ff905b5416611d2d565b6001600160a01b03811690811561096b5782805260016020526040832054610944919061093f906001600160a01b0316841415611d85565b611ff9565b7fbc7cd75a20ee27fd9adebab32041f755214dbc6bffa90cc0225b39da2e5c2d3b8280a280f35b60405162461bcd60e51b815260206004820152600d60248201526c696e707574206973207a65726f60981b6044820152606490fd5b3461035e57604036600319011261035e5767ffffffffffffffff60043581811161035e573660238201121561035e57806004013591821161035e576024810190602436918460051b01011161035e576109f7610404565b33600090815260008051602061214683398151915260205260408120909390610a229060ff90610900565b8015610b4457610a58610a53610a4c84959460018060a01b03166000526002602052604060002090565b5460ff1690565b611dbd565b6001600160a01b03928084169290855b838110610a73578680f35b80610ac38688610abb610aae610a95610a90610b3f988c8c611e18565b611e28565b63ffffffff60e01b166000526003602052604060002090565b546001600160a01b031690565b161415611e32565b610af783610ad8610a95610a90858a8a611e18565b80546001600160a01b0319166001600160a01b03909216919091179055565b85610b16610b09610a90848989611e18565b6001600160e01b03191690565b7f14ebc1c32aa68f4d766e89f3e546cee249f7df25183fc10ab1568d91c2ce9b7b8a80a3611e09565b610a68565b606460405162461bcd60e51b815260206004820152602060248201527f50726f78793a205f73656c6563746f727327732073697a65206973207a65726f6044820152fd5b3461035e57602036600319011261035e57600435610ba581610363565b63ffffffff60e01b166000526003602052602060018060a01b0360406000205416604051908152f35b3461035e57602036600319011261035e576001600160a01b03610bef6103ee565b166000526002602052602060ff604060002054166040519015158152f35b634e487b7160e01b600052603260045260246000fd5b3461035e57602036600319011261035e57600435600c5481101561035e57602090600c6000527fdf6966c971051c3d54ec59162606531493a51404a002842f56009d7e5cf4a8c70154604051908152f35b3461035e576000806003193601126106685780806020925260018252604060018060a01b0391205416604051908152f35b3461035e57604036600319011261035e57610cbe6103ee565b602435801515810361035e573360009081526000805160206121468339815191526020526040902061069d9290610cf79060ff90610900565b612091565b3461035e57602036600319011261035e57600435600052600d602052604060002060018154910154906104d36040519283928360209093929193604081019481520152565b3461035e57602036600319011261035e57600435600a5481101561035e57602090600a6000527fc65a7bb8d6351c1cf70c95a316cc6a92839c986682d98bc35f958f4883f9d2a80154604051908152f35b3461035e57600036600319011261035e57602060ff600054166040519015158152f35b3461035e57604036600319011261035e57610dce6103ee565b6001600160a01b03166000908152600e6020526040812080546024359190821015610e055782526020918290200154604051908152f35b8280fd5b3461035e57602036600319011261035e57602060ff610712610e296103ee565b6000805160206121068339815191526000526005845260406000209060018060a01b0316600052602052604060002090565b3461035e57600036600319011261035e576006546040516001600160a01b039091168152602090f35b3461035e57602036600319011261035e57610e9d6103ee565b610ea961069333611761565b600080805260056020527f05b8ccbb9d4d8fb16ea74ce3c29a41f1b461fbdaff4714a0d9a8eb05499746bd54909190610ee19061184f565b8180526005602090815260408084206001600160a01b0384166000908152925290205460ff1615610f10575080f35b8180526005602090815260408084206001600160a01b038416600090815292529020805460ff1916600117905533906001600160a01b0316827f2f8788117e7eff1d82e926ec794901d17c78024a50270940304540a733656f0d8180a480f35b3461035e57600036600319011261035e57610f8d61069333611761565b61069d336119a7565b3461035e57602036600319011261035e57610faf6103ee565b610fbb61069333611761565b6001600160a01b0381168015611018573314610fda57610f8d9061178c565b60405162461bcd60e51b815260206004820152601660248201527520b1b1b2b9b9b4b136329d1039b0b6b29030b236b4b760511b6044820152606490fd5b60405162461bcd60e51b815260206004820152601860248201527f41636365737369626c653a207a65726f206164647265737300000000000000006044820152606490fd5b3461035e57602036600319011261035e5760043580151580910361035e57336000908152600080516020612146833981519152602052604081209091906110a69060ff90610900565b60ff8019835416911617815580f35b3461035e57606036600319011261035e576110ce6103ee565b60443590811515820361035e57336000908152600080516020612146833981519152602052604081209092906111069060ff90610900565b813b1561114a5761111b918161111e57612091565b80f35b602435845260016020526040842080546001600160a01b0319166001600160a01b038316179055612091565b60405162461bcd60e51b815260206004820152601b60248201527f50726f78793a206e6f7420636f6e7472616374206164647265737300000000006044820152606490fd5b3461035e57600036600319011261035e576020601054604051908152f35b3461035e57602036600319011261035e576004356000526001602052602060018060a01b0360406000205416604051908152f35b3461035e57602036600319011261035e57602061120860043561120381610363565b611e7e565b6040516001600160a01b039091168152f35b3461035e5760008060031936011261066857808052600560209081526040918290203360009081529082529190912060ff90610712565b3461035e57604036600319011261035e57602060ff610712611271610404565b6004356000526005845260406000209060018060a01b0316600052602052604060002090565b3461035e576000806003193601126106685760405190806008549060019180831c92808216928315611350575b602092838610851461064a57858852602088019490811561062957506001146112f7576104d3876105c4818903826104ed565b600860005294509192917ff3f7a9fe364faab93b216da50a3214154f22a0a2b415b23a84c8169e8b636ee35b83861061133f57505050910190506105c4826104d338806105b4565b805485870152948201948101611323565b93607f16936112c4565b3461035e57602036600319011261035e576113736103ee565b61137f61069333611761565b6000805160206120e6833981519152600081815260056020527fca0a2f641ec05ca23127d994cf03ffc453db616acae0b86cb56bb95304d06855549092919061076f9061184f565b3461035e57600036600319011261035e5761069d33611ae8565b3461035e57602036600319011261035e576113fa6103ee565b61140661069333611761565b600080516020612106833981519152600081815260056020527f02634a7c777b8129955fe1824eee49ef19dfa96f2f4cb63212492c3d84eb58e7549092919061076f9061184f565b3461035e57600036600319011261035e57602060405160008152f35b3461035e57602036600319011261035e57602060ff61071261148a6103ee565b6000805160206120e68339815191526000526005845260406000209060018060a01b0316600052602052604060002090565b3461035e57602036600319011261035e5761069d6114d86103ee565b6114e461069333611761565b611a32565b3461035e57600036600319011261035e5760206040516b204fce5e3e250261100000008152f35b3461035e57602036600319011261035e57600435600052600b602052604060002060018154910154906104d36040519283928360209093929193604081019481520152565b3461035e57602036600319011261035e5761156e6103ee565b61157a61069333611761565b6000805160206120e6833981519152600081815260056020527fca0a2f641ec05ca23127d994cf03ffc453db616acae0b86cb56bb95304d0685554909291906115c29061184f565b8083526005602090815260408085206001600160a01b0385166000908152925290205460ff166115f0578280f35b8083526005602090815260408085206001600160a01b038516600090815292529020805460ff1916905533916001600160a01b0316906000805160206121268339815191528480a438808280f35b3461035e57600036600319011261035e5760206040516000805160206120e68339815191528152f35b3461035e57604036600319011261035e5761069d600435611686610404565b908060005260056020526116a160016040600020015461184f565b611b4a565b3461035e57602036600319011261035e576116bf6103ee565b610faf61069333611761565b3461035e57600036600319011261035e5760206040516000805160206121068339815191528152f35b3461035e57602036600319011261035e5761170d6103ee565b61171961069333611761565b600080516020612106833981519152600081815260056020527f02634a7c777b8129955fe1824eee49ef19dfa96f2f4cb63212492c3d84eb58e754909291906115c29061184f565b6001600160a01b03166000908152600080516020612146833981519152602052604090205460ff1690565b600080805260056020527f05b8ccbb9d4d8fb16ea74ce3c29a41f1b461fbdaff4714a0d9a8eb05499746bd546117c19061184f565b8080526005602090815260408083206001600160a01b0385166000908152925290205460ff16156117f0575050565b8080526005602090815260408083206001600160a01b038516600090815292529020805460ff1916600117905533916001600160a01b0316907f2f8788117e7eff1d82e926ec794901d17c78024a50270940304540a733656f0d8180a4565b600081815260056020908152604080832033845290915290205460ff16156118745750565b339061187e611be1565b91603061188a84611c0e565b53607861189684611c1b565b5360295b600181116119495761194561190261192d8661191f6118c2886118bd8915611c4e565b611c99565b6118fc6040519586946118fc602087016017907f416363657373436f6e74726f6c3a206163636f756e742000000000000000000081520190565b90611990565b7001034b99036b4b9b9b4b733903937b6329607d1b815260110190565b03601f1981018352826104ed565b60405162461bcd60e51b815291829160048301610537565b0390fd5b90600f811690601082101561198b57611986916f181899199a1a9b1b9c1cb0b131b232b360811b901a61197c8487611c2b565b5360041c91611c3c565b61189a565b610c0d565b906119a360209282815194859201610514565b0190565b6001600160a01b038116338103610863576001600160a01b0382166000908152600080516020612146833981519152602052604081205490929060ff166119ed57505050565b611a14908380526005602052604084209060018060a01b0316600052602052604060002090565b805460ff1916905533916000805160206121268339815191528180a4565b6001600160a01b038116338103610863576001600160a01b03821660009081527f02634a7c777b8129955fe1824eee49ef19dfa96f2f4cb63212492c3d84eb58e66020526040812090926000805160206121068339815191529160ff905b5416611a9d575b50505050565b611ac4908285526005602052604085209060018060a01b0316600052602052604060002090565b60ff198154169055600080516020612126833981519152339380a438808080611a97565b6001600160a01b038116338103610863576001600160a01b03821660009081527fca0a2f641ec05ca23127d994cf03ffc453db616acae0b86cb56bb95304d068546020526040812090926000805160206120e68339815191529160ff90611a90565b600090808252600560205260ff611b7684604085209060018060a01b0316600052602052604060002090565b5416611b8157505050565b8082526005602090815260408084206001600160a01b038616600090815292529020805460ff1916905533926001600160a01b0316916000805160206121268339815191529080a4565b634e487b7160e01b600052601160045260246000fd5b604051906060820182811067ffffffffffffffff82111761050f57604052602a8252604082602036910137565b80511561198b5760200190565b80516001101561198b5760210190565b90815181101561198b570160200190565b8015611c49576000190190565b611bcb565b15611c5557565b606460405162461bcd60e51b815260206004820152602060248201527f537472696e67733a20686578206c656e67746820696e73756666696369656e746044820152fd5b604051906080820182811067ffffffffffffffff82111761050f576040526042825260603660208401376030611cce83611c0e565b536078611cda83611c1b565b536041905b60018211611cf557611cf2915015611c4e565b90565b600f811690601082101561198b57611d27916f181899199a1a9b1b9c1cb0b131b232b360811b901a61197c8486611c2b565b90611cdf565b15611d3457565b60405162461bcd60e51b815260206004820152602360248201527f41757468436f6e74726f6c3a2043616c6c6572206973206e6f7420616e20616460448201526236b4b760e91b6064820152608490fd5b15611d8c57565b60405162461bcd60e51b815260206004820152600960248201526839b0b6b29030b2323960b91b6044820152606490fd5b15611dc457565b60405162461bcd60e51b815260206004820152601860248201527f50726f78793a205f696d70206973206e6f7420616c69766500000000000000006044820152606490fd5b6000198114611c495760010190565b919081101561198b5760051b0190565b35611cf281610363565b15611e3957565b60405162461bcd60e51b815260206004820152601d60248201527f4c69717569646974795661756c7450726f78793a2073616d6520696d700000006044820152606490fd5b6001600160e01b0319166000908152600360205260409020546001600160a01b0390811680611ed757506000805260016020527fa6eef7e35abe7026729641147f7915573c7e97b47efa546f5f6e3230263bcb49541690565b80600052600260205260ff60406000205416611f1d57506000805260016020527fa6eef7e35abe7026729641147f7915573c7e97b47efa546f5f6e3230263bcb49541690565b905090565b60405162461bcd60e51b815260206004820152601460248201527331b0b73737ba103932b1b2b4bb329022ba3432b960611b6044820152606490fd5b6000611f7481356001600160e01b031916611e7e565b6001600160a01b038116151580611fed575b15611fa857818091368280378136915af43d82803e15611fa4573d90f35b3d90fd5b60405162461bcd60e51b815260206004820152601d60248201527f50726f78793a20696d706c204f522070726f78792069732066616c73650000006044820152606490fd5b5060ff82541615611f86565b803b1561114a576000805260016020527fa6eef7e35abe7026729641147f7915573c7e97b47efa546f5f6e3230263bcb4980546001600160a01b0319166001600160a01b03831617905560018060a01b03168060005260026020526040600020600160ff198254161790557f72558d9bfba4210f9ef095c782589484151f6d90f7a81bb3cb9b33efc695d324602060405160018152a2565b60207f72558d9bfba4210f9ef095c782589484151f6d90f7a81bb3cb9b33efc695d3249160018060a01b031692836000526002825260406000209015159060ff1981541660ff8316179055604051908152a256fef0887ba65ee2024ea881d91b74c2450ef19e1557f03bed3ea9f16b037cbe2dc9523a704056dcd17bcf83bed8b68c59416dac1119be77755efe3bde0a64e46e0cf6391f5c32d9c69d2a47ea670b442974b53935d1edc7fd64eb21e047a839171b05b8ccbb9d4d8fb16ea74ce3c29a41f1b461fbdaff4714a0d9a8eb05499746bca164736f6c6343000812000a",
  "linkReferences": {},
  "deployedLinkReferences": {}
}