{
  "_format": "hh-sol-artifact-1",
  "contractName": "SeigManagerV1_1",
  "sourceName": "contracts/stake/managers/SeigManagerV1_1.sol",
  "abi": [
    {
      "anonymous": false,
      "inputs": [
        {
          "indexed": false,
          "internalType": "address",
          "name": "layer2",
          "type": "address"
        },
        {
          "indexed": false,
          "internalType": "uint256",
          "name": "seigs",
          "type": "uint256"
        },
        {
          "indexed": false,
          "internalType": "uint256",
          "name": "operatorSeigs",
          "type": "uint256"
        },
        {
          "indexed": false,
          "internalType": "uint256",
          "name": "nextTotalSupply",
          "type": "uint256"
        },
        {
          "indexed": false,
          "internalType": "uint256",
          "name": "prevTotalSupply",
          "type": "uint256"
        }
      ],
      "name": "AddedSeigAtLayer",
      "type": "event"
    },
    {
      "anonymous": false,
      "inputs": [
        {
          "indexed": true,
          "internalType": "address",
          "name": "layer2",
          "type": "address"
        },
        {
          "indexed": false,
          "internalType": "address",
          "name": "coinage",
          "type": "address"
        }
      ],
      "name": "CoinageCreated",
      "type": "event"
    },
    {
      "anonymous": false,
      "inputs": [
        {
          "indexed": true,
          "internalType": "address",
          "name": "layer2",
          "type": "address"
        }
      ],
      "name": "Comitted",
      "type": "event"
    },
    {
      "anonymous": false,
      "inputs": [
        {
          "indexed": true,
          "internalType": "address",
          "name": "layer2",
          "type": "address"
        },
        {
          "indexed": false,
          "internalType": "uint256",
          "name": "previousRate",
          "type": "uint256"
        },
        {
          "indexed": false,
          "internalType": "uint256",
          "name": "newRate",
          "type": "uint256"
        }
      ],
      "name": "CommissionRateSet",
      "type": "event"
    },
    {
      "anonymous": false,
      "inputs": [
        {
          "indexed": false,
          "internalType": "uint256",
          "name": "totalStakedAmount",
          "type": "uint256"
        },
        {
          "indexed": false,
          "internalType": "uint256",
          "name": "totalSupplyOfWTON",
          "type": "uint256"
        },
        {
          "indexed": false,
          "internalType": "uint256",
          "name": "prevTotalSupply",
          "type": "uint256"
        },
        {
          "indexed": false,
          "internalType": "uint256",
          "name": "nextTotalSupply",
          "type": "uint256"
        }
      ],
      "name": "CommitLog1",
      "type": "event"
    },
    {
      "anonymous": false,
      "inputs": [
        {
          "indexed": false,
          "internalType": "uint256",
          "name": "snapshotId",
          "type": "uint256"
        }
      ],
      "name": "OnSnapshot",
      "type": "event"
    },
    {
      "anonymous": false,
      "inputs": [
        {
          "indexed": false,
          "internalType": "address",
          "name": "account",
          "type": "address"
        }
      ],
      "name": "Paused",
      "type": "event"
    },
    {
      "anonymous": false,
      "inputs": [
        {
          "indexed": true,
          "internalType": "bytes32",
          "name": "role",
          "type": "bytes32"
        },
        {
          "indexed": true,
          "internalType": "bytes32",
          "name": "previousAdminRole",
          "type": "bytes32"
        },
        {
          "indexed": true,
          "internalType": "bytes32",
          "name": "newAdminRole",
          "type": "bytes32"
        }
      ],
      "name": "RoleAdminChanged",
      "type": "event"
    },
    {
      "anonymous": false,
      "inputs": [
        {
          "indexed": true,
          "internalType": "bytes32",
          "name": "role",
          "type": "bytes32"
        },
        {
          "indexed": true,
          "internalType": "address",
          "name": "account",
          "type": "address"
        },
        {
          "indexed": true,
          "internalType": "address",
          "name": "sender",
          "type": "address"
        }
      ],
      "name": "RoleGranted",
      "type": "event"
    },
    {
      "anonymous": false,
      "inputs": [
        {
          "indexed": true,
          "internalType": "bytes32",
          "name": "role",
          "type": "bytes32"
        },
        {
          "indexed": true,
          "internalType": "address",
          "name": "account",
          "type": "address"
        },
        {
          "indexed": true,
          "internalType": "address",
          "name": "sender",
          "type": "address"
        }
      ],
      "name": "RoleRevoked",
      "type": "event"
    },
    {
      "anonymous": false,
      "inputs": [
        {
          "indexed": true,
          "internalType": "address",
          "name": "layer2",
          "type": "address"
        },
        {
          "indexed": false,
          "internalType": "uint256",
          "name": "totalSeig",
          "type": "uint256"
        },
        {
          "indexed": false,
          "internalType": "uint256",
          "name": "stakedSeig",
          "type": "uint256"
        },
        {
          "indexed": false,
          "internalType": "uint256",
          "name": "unstakedSeig",
          "type": "uint256"
        },
        {
          "indexed": false,
          "internalType": "uint256",
          "name": "powertonSeig",
          "type": "uint256"
        },
        {
          "indexed": false,
          "internalType": "uint256",
          "name": "daoSeig",
          "type": "uint256"
        },
        {
          "indexed": false,
          "internalType": "uint256",
          "name": "pseig",
          "type": "uint256"
        }
      ],
      "name": "SeigGiven",
      "type": "event"
    },
    {
      "anonymous": false,
      "inputs": [
        {
          "indexed": false,
          "internalType": "uint256",
          "name": "_burntAmountAtDAO",
          "type": "uint256"
        }
      ],
      "name": "SetBurntAmountAtDAO",
      "type": "event"
    },
    {
      "anonymous": false,
      "inputs": [
        {
          "indexed": false,
          "internalType": "uint256",
          "name": "daoSeigRate",
          "type": "uint256"
        }
      ],
      "name": "SetDaoSeigRate",
      "type": "event"
    },
    {
      "anonymous": false,
      "inputs": [
        {
          "indexed": false,
          "internalType": "uint256",
          "name": "_initialTotalSupply",
          "type": "uint256"
        }
      ],
      "name": "SetInitialTotalSupply",
      "type": "event"
    },
    {
      "anonymous": false,
      "inputs": [
        {
          "indexed": false,
          "internalType": "uint256",
          "name": "powerTONSeigRate",
          "type": "uint256"
        }
      ],
      "name": "SetPowerTONSeigRate",
      "type": "event"
    },
    {
      "anonymous": false,
      "inputs": [
        {
          "indexed": false,
          "internalType": "uint256",
          "name": "pseigRate",
          "type": "uint256"
        }
      ],
      "name": "SetPseigRate",
      "type": "event"
    },
    {
      "anonymous": false,
      "inputs": [
        {
          "indexed": false,
          "internalType": "uint256",
          "name": "_seigStartBlock",
          "type": "uint256"
        }
      ],
      "name": "SetSeigStartBlock",
      "type": "event"
    },
    {
      "anonymous": false,
      "inputs": [
        {
          "indexed": false,
          "internalType": "address",
          "name": "account",
          "type": "address"
        }
      ],
      "name": "Unpaused",
      "type": "event"
    },
    {
      "anonymous": false,
      "inputs": [
        {
          "indexed": false,
          "internalType": "uint256",
          "name": "coinageBurnAmount",
          "type": "uint256"
        },
        {
          "indexed": false,
          "internalType": "uint256",
          "name": "totBurnAmount",
          "type": "uint256"
        }
      ],
      "name": "UnstakeLog",
      "type": "event"
    },
    {
      "inputs": [],
      "name": "BURNT_AMOUNT_MAINNET",
      "outputs": [
        {
          "internalType": "uint256",
          "name": "",
          "type": "uint256"
        }
      ],
      "stateMutability": "view",
      "type": "function"
    },
    {
      "inputs": [],
      "name": "CHALLENGER_ROLE",
      "outputs": [
        {
          "internalType": "bytes32",
          "name": "",
          "type": "bytes32"
        }
      ],
      "stateMutability": "view",
      "type": "function"
    },
    {
      "inputs": [],
      "name": "DEFAULT_ADMIN_ROLE",
      "outputs": [
        {
          "internalType": "bytes32",
          "name": "",
          "type": "bytes32"
        }
      ],
      "stateMutability": "view",
      "type": "function"
    },
    {
      "inputs": [],
      "name": "DEFAULT_FACTOR",
      "outputs": [
        {
          "internalType": "uint256",
          "name": "",
          "type": "uint256"
        }
      ],
      "stateMutability": "pure",
      "type": "function"
    },
    {
      "inputs": [],
      "name": "INITIAL_TOTAL_SUPPLY_MAINNET",
      "outputs": [
        {
          "internalType": "uint256",
          "name": "",
          "type": "uint256"
        }
      ],
      "stateMutability": "view",
      "type": "function"
    },
    {
      "inputs": [],
      "name": "MAX_VALID_COMMISSION",
      "outputs": [
        {
          "internalType": "uint256",
          "name": "",
          "type": "uint256"
        }
      ],
      "stateMutability": "view",
      "type": "function"
    },
    {
      "inputs": [],
      "name": "MINTER_ROLE",
      "outputs": [
        {
          "internalType": "bytes32",
          "name": "",
          "type": "bytes32"
        }
      ],
      "stateMutability": "view",
      "type": "function"
    },
    {
      "inputs": [],
      "name": "MIN_VALID_COMMISSION",
      "outputs": [
        {
          "internalType": "uint256",
          "name": "",
          "type": "uint256"
        }
      ],
      "stateMutability": "view",
      "type": "function"
    },
    {
      "inputs": [],
      "name": "OPERATOR_ROLE",
      "outputs": [
        {
          "internalType": "bytes32",
          "name": "",
          "type": "bytes32"
        }
      ],
      "stateMutability": "view",
      "type": "function"
    },
    {
      "inputs": [],
      "name": "PAUSE_ROLE",
      "outputs": [
        {
          "internalType": "bytes32",
          "name": "",
          "type": "bytes32"
        }
      ],
      "stateMutability": "view",
      "type": "function"
    },
    {
      "inputs": [],
      "name": "RAY",
      "outputs": [
        {
          "internalType": "uint256",
          "name": "",
          "type": "uint256"
        }
      ],
      "stateMutability": "view",
      "type": "function"
    },
    {
      "inputs": [],
      "name": "SEIG_START_MAINNET",
      "outputs": [
        {
          "internalType": "uint256",
          "name": "",
          "type": "uint256"
        }
      ],
      "stateMutability": "view",
      "type": "function"
    },
    {
      "inputs": [],
      "name": "accRelativeSeig",
      "outputs": [
        {
          "internalType": "uint256",
          "name": "",
          "type": "uint256"
        }
      ],
      "stateMutability": "view",
      "type": "function"
    },
    {
      "inputs": [
        {
          "internalType": "address",
          "name": "account",
          "type": "address"
        }
      ],
      "name": "addAdmin",
      "outputs": [],
      "stateMutability": "nonpayable",
      "type": "function"
    },
    {
      "inputs": [
        {
          "internalType": "address",
          "name": "account",
          "type": "address"
        }
      ],
      "name": "addChallenger",
      "outputs": [],
      "stateMutability": "nonpayable",
      "type": "function"
    },
    {
      "inputs": [
        {
          "internalType": "address",
          "name": "account",
          "type": "address"
        }
      ],
      "name": "addMinter",
      "outputs": [],
      "stateMutability": "nonpayable",
      "type": "function"
    },
    {
      "inputs": [
        {
          "internalType": "address",
          "name": "account",
          "type": "address"
        }
      ],
      "name": "addOperator",
      "outputs": [],
      "stateMutability": "nonpayable",
      "type": "function"
    },
    {
      "inputs": [
        {
          "internalType": "address",
          "name": "layer2",
          "type": "address"
        },
        {
          "internalType": "address",
          "name": "account",
          "type": "address"
        },
        {
          "internalType": "uint256",
          "name": "amount",
          "type": "uint256"
        }
      ],
      "name": "additionalTotBurnAmount",
      "outputs": [
        {
          "internalType": "uint256",
          "name": "totAmount",
          "type": "uint256"
        }
      ],
      "stateMutability": "view",
      "type": "function"
    },
    {
      "inputs": [],
      "name": "adjustCommissionDelay",
      "outputs": [
        {
          "internalType": "uint256",
          "name": "",
          "type": "uint256"
        }
      ],
      "stateMutability": "view",
      "type": "function"
    },
    {
      "inputs": [
        {
          "internalType": "address",
          "name": "",
          "type": "address"
        }
      ],
      "name": "aliveImplementation",
      "outputs": [
        {
          "internalType": "bool",
          "name": "",
          "type": "bool"
        }
      ],
      "stateMutability": "view",
      "type": "function"
    },
    {
      "inputs": [],
      "name": "burntAmountAtDAO",
      "outputs": [
        {
          "internalType": "uint256",
          "name": "",
          "type": "uint256"
        }
      ],
      "stateMutability": "view",
      "type": "function"
    },
    {
      "inputs": [
        {
          "internalType": "address",
          "name": "layer2",
          "type": "address"
        }
      ],
      "name": "coinages",
      "outputs": [
        {
          "internalType": "address",
          "name": "",
          "type": "address"
        }
      ],
      "stateMutability": "view",
      "type": "function"
    },
    {
      "inputs": [
        {
          "internalType": "address",
          "name": "layer2",
          "type": "address"
        }
      ],
      "name": "commissionRates",
      "outputs": [
        {
          "internalType": "uint256",
          "name": "",
          "type": "uint256"
        }
      ],
      "stateMutability": "view",
      "type": "function"
    },
    {
      "inputs": [],
      "name": "dao",
      "outputs": [
        {
          "internalType": "address",
          "name": "",
          "type": "address"
        }
      ],
      "stateMutability": "view",
      "type": "function"
    },
    {
      "inputs": [],
      "name": "daoSeigRate",
      "outputs": [
        {
          "internalType": "uint256",
          "name": "",
          "type": "uint256"
        }
      ],
      "stateMutability": "view",
      "type": "function"
    },
    {
      "inputs": [
        {
          "internalType": "address",
          "name": "",
          "type": "address"
        }
      ],
      "name": "delayedCommissionBlock",
      "outputs": [
        {
          "internalType": "uint256",
          "name": "",
          "type": "uint256"
        }
      ],
      "stateMutability": "view",
      "type": "function"
    },
    {
      "inputs": [
        {
          "internalType": "address",
          "name": "",
          "type": "address"
        }
      ],
      "name": "delayedCommissionRate",
      "outputs": [
        {
          "internalType": "uint256",
          "name": "",
          "type": "uint256"
        }
      ],
      "stateMutability": "view",
      "type": "function"
    },
    {
      "inputs": [
        {
          "internalType": "address",
          "name": "",
          "type": "address"
        }
      ],
      "name": "delayedCommissionRateNegative",
      "outputs": [
        {
          "internalType": "bool",
          "name": "",
          "type": "bool"
        }
      ],
      "stateMutability": "view",
      "type": "function"
    },
    {
      "inputs": [
        {
          "internalType": "address",
          "name": "layer2",
          "type": "address"
        }
      ],
      "name": "deployCoinage",
      "outputs": [
        {
          "internalType": "bool",
          "name": "",
          "type": "bool"
        }
      ],
      "stateMutability": "nonpayable",
      "type": "function"
    },
    {
      "inputs": [],
      "name": "depositManager",
      "outputs": [
        {
          "internalType": "address",
          "name": "",
          "type": "address"
        }
      ],
      "stateMutability": "view",
      "type": "function"
    },
    {
      "inputs": [],
      "name": "factory",
      "outputs": [
        {
          "internalType": "address",
          "name": "",
          "type": "address"
        }
      ],
      "stateMutability": "view",
      "type": "function"
    },
    {
      "inputs": [
        {
          "internalType": "address",
          "name": "layer2",
          "type": "address"
        }
      ],
      "name": "getOperatorAmount",
      "outputs": [
        {
          "internalType": "uint256",
          "name": "",
          "type": "uint256"
        }
      ],
      "stateMutability": "view",
      "type": "function"
    },
    {
      "inputs": [
        {
          "internalType": "bytes32",
          "name": "role",
          "type": "bytes32"
        }
      ],
      "name": "getRoleAdmin",
      "outputs": [
        {
          "internalType": "bytes32",
          "name": "",
          "type": "bytes32"
        }
      ],
      "stateMutability": "view",
      "type": "function"
    },
    {
      "inputs": [
        {
          "internalType": "bytes32",
          "name": "role",
          "type": "bytes32"
        },
        {
          "internalType": "address",
          "name": "account",
          "type": "address"
        }
      ],
      "name": "grantRole",
      "outputs": [],
      "stateMutability": "nonpayable",
      "type": "function"
    },
    {
      "inputs": [
        {
          "internalType": "bytes32",
          "name": "role",
          "type": "bytes32"
        },
        {
          "internalType": "address",
          "name": "account",
          "type": "address"
        }
      ],
      "name": "hasRole",
      "outputs": [
        {
          "internalType": "bool",
          "name": "",
          "type": "bool"
        }
      ],
      "stateMutability": "view",
      "type": "function"
    },
    {
      "inputs": [],
      "name": "initialTotalSupply",
      "outputs": [
        {
          "internalType": "uint256",
          "name": "",
          "type": "uint256"
        }
      ],
      "stateMutability": "view",
      "type": "function"
    },
    {
      "inputs": [
        {
          "internalType": "address",
          "name": "ton_",
          "type": "address"
        },
        {
          "internalType": "address",
          "name": "wton_",
          "type": "address"
        },
        {
          "internalType": "address",
          "name": "registry_",
          "type": "address"
        },
        {
          "internalType": "address",
          "name": "depositManager_",
          "type": "address"
        },
        {
          "internalType": "uint256",
          "name": "seigPerBlock_",
          "type": "uint256"
        },
        {
          "internalType": "address",
          "name": "factory_",
          "type": "address"
        },
        {
          "internalType": "uint256",
          "name": "lastSeigBlock_",
          "type": "uint256"
        }
      ],
      "name": "initialize",
      "outputs": [],
      "stateMutability": "nonpayable",
      "type": "function"
    },
    {
      "inputs": [
        {
          "internalType": "address",
          "name": "account",
          "type": "address"
        }
      ],
      "name": "isAdmin",
      "outputs": [
        {
          "internalType": "bool",
          "name": "",
          "type": "bool"
        }
      ],
      "stateMutability": "view",
      "type": "function"
    },
    {
      "inputs": [
        {
          "internalType": "address",
          "name": "account",
          "type": "address"
        }
      ],
      "name": "isChallenger",
      "outputs": [
        {
          "internalType": "bool",
          "name": "",
          "type": "bool"
        }
      ],
      "stateMutability": "view",
      "type": "function"
    },
    {
      "inputs": [
        {
          "internalType": "address",
          "name": "layer2",
          "type": "address"
        }
      ],
      "name": "isCommissionRateNegative",
      "outputs": [
        {
          "internalType": "bool",
          "name": "",
          "type": "bool"
        }
      ],
      "stateMutability": "view",
      "type": "function"
    },
    {
      "inputs": [
        {
          "internalType": "address",
          "name": "account",
          "type": "address"
        }
      ],
      "name": "isMinter",
      "outputs": [
        {
          "internalType": "bool",
          "name": "",
          "type": "bool"
        }
      ],
      "stateMutability": "view",
      "type": "function"
    },
    {
      "inputs": [
        {
          "internalType": "address",
          "name": "account",
          "type": "address"
        }
      ],
      "name": "isOperator",
      "outputs": [
        {
          "internalType": "bool",
          "name": "",
          "type": "bool"
        }
      ],
      "stateMutability": "view",
      "type": "function"
    },
    {
      "inputs": [],
      "name": "isOwner",
      "outputs": [
        {
          "internalType": "bool",
          "name": "",
          "type": "bool"
        }
      ],
      "stateMutability": "view",
      "type": "function"
    },
    {
      "inputs": [
        {
          "internalType": "address",
          "name": "layer2",
          "type": "address"
        }
      ],
      "name": "lastCommitBlock",
      "outputs": [
        {
          "internalType": "uint256",
          "name": "",
          "type": "uint256"
        }
      ],
      "stateMutability": "view",
      "type": "function"
    },
    {
      "inputs": [],
      "name": "lastSeigBlock",
      "outputs": [
        {
          "internalType": "uint256",
          "name": "",
          "type": "uint256"
        }
      ],
      "stateMutability": "view",
      "type": "function"
    },
    {
      "inputs": [],
      "name": "lastSnapshotId",
      "outputs": [
        {
          "internalType": "uint256",
          "name": "",
          "type": "uint256"
        }
      ],
      "stateMutability": "view",
      "type": "function"
    },
    {
      "inputs": [],
      "name": "minimumAmount",
      "outputs": [
        {
          "internalType": "uint256",
          "name": "",
          "type": "uint256"
        }
      ],
      "stateMutability": "view",
      "type": "function"
    },
    {
      "inputs": [
        {
          "internalType": "address",
          "name": "layer2",
          "type": "address"
        },
        {
          "internalType": "address",
          "name": "account",
          "type": "address"
        },
        {
          "internalType": "uint256",
          "name": "amount",
          "type": "uint256"
        }
      ],
      "name": "onDeposit",
      "outputs": [
        {
          "internalType": "bool",
          "name": "",
          "type": "bool"
        }
      ],
      "stateMutability": "nonpayable",
      "type": "function"
    },
    {
      "inputs": [],
      "name": "onSnapshot",
      "outputs": [
        {
          "internalType": "uint256",
          "name": "snapshotId",
          "type": "uint256"
        }
      ],
      "stateMutability": "nonpayable",
      "type": "function"
    },
    {
      "inputs": [
        {
          "internalType": "address",
          "name": "sender",
          "type": "address"
        },
        {
          "internalType": "address",
          "name": "recipient",
          "type": "address"
        },
        {
          "internalType": "uint256",
          "name": "amount",
          "type": "uint256"
        }
      ],
      "name": "onTransfer",
      "outputs": [
        {
          "internalType": "bool",
          "name": "",
          "type": "bool"
        }
      ],
      "stateMutability": "nonpayable",
      "type": "function"
    },
    {
      "inputs": [
        {
          "internalType": "address",
          "name": "layer2",
          "type": "address"
        },
        {
          "internalType": "address",
          "name": "account",
          "type": "address"
        },
        {
          "internalType": "uint256",
          "name": "amount",
          "type": "uint256"
        }
      ],
      "name": "onWithdraw",
      "outputs": [
        {
          "internalType": "bool",
          "name": "",
          "type": "bool"
        }
      ],
      "stateMutability": "nonpayable",
      "type": "function"
    },
    {
      "inputs": [],
      "name": "pause",
      "outputs": [],
      "stateMutability": "nonpayable",
      "type": "function"
    },
    {
      "inputs": [],
      "name": "pauseProxy",
      "outputs": [
        {
          "internalType": "bool",
          "name": "",
          "type": "bool"
        }
      ],
      "stateMutability": "view",
      "type": "function"
    },
    {
      "inputs": [],
      "name": "paused",
      "outputs": [
        {
          "internalType": "bool",
          "name": "",
          "type": "bool"
        }
      ],
      "stateMutability": "view",
      "type": "function"
    },
    {
      "inputs": [],
      "name": "pausedBlock",
      "outputs": [
        {
          "internalType": "uint256",
          "name": "",
          "type": "uint256"
        }
      ],
      "stateMutability": "view",
      "type": "function"
    },
    {
      "inputs": [],
      "name": "powerTONSeigRate",
      "outputs": [
        {
          "internalType": "uint256",
          "name": "",
          "type": "uint256"
        }
      ],
      "stateMutability": "view",
      "type": "function"
    },
    {
      "inputs": [],
      "name": "powerton",
      "outputs": [
        {
          "internalType": "address",
          "name": "",
          "type": "address"
        }
      ],
      "stateMutability": "view",
      "type": "function"
    },
    {
      "inputs": [],
      "name": "progressSnapshotId",
      "outputs": [
        {
          "internalType": "uint256",
          "name": "",
          "type": "uint256"
        }
      ],
      "stateMutability": "view",
      "type": "function"
    },
    {
      "inputs": [
        {
          "internalType": "uint256",
          "name": "",
          "type": "uint256"
        }
      ],
      "name": "proxyImplementation",
      "outputs": [
        {
          "internalType": "address",
          "name": "",
          "type": "address"
        }
      ],
      "stateMutability": "view",
      "type": "function"
    },
    {
      "inputs": [],
      "name": "registry",
      "outputs": [
        {
          "internalType": "address",
          "name": "",
          "type": "address"
        }
      ],
      "stateMutability": "view",
      "type": "function"
    },
    {
      "inputs": [],
      "name": "relativeSeigRate",
      "outputs": [
        {
          "internalType": "uint256",
          "name": "",
          "type": "uint256"
        }
      ],
      "stateMutability": "view",
      "type": "function"
    },
    {
      "inputs": [
        {
          "internalType": "address",
          "name": "account",
          "type": "address"
        }
      ],
      "name": "removeAdmin",
      "outputs": [],
      "stateMutability": "nonpayable",
      "type": "function"
    },
    {
      "inputs": [
        {
          "internalType": "address",
          "name": "account",
          "type": "address"
        }
      ],
      "name": "removeChallenger",
      "outputs": [],
      "stateMutability": "nonpayable",
      "type": "function"
    },
    {
      "inputs": [
        {
          "internalType": "address",
          "name": "account",
          "type": "address"
        }
      ],
      "name": "removeMinter",
      "outputs": [],
      "stateMutability": "nonpayable",
      "type": "function"
    },
    {
      "inputs": [
        {
          "internalType": "address",
          "name": "account",
          "type": "address"
        }
      ],
      "name": "removeOperator",
      "outputs": [],
      "stateMutability": "nonpayable",
      "type": "function"
    },
    {
      "inputs": [],
      "name": "renounceChallenger",
      "outputs": [],
      "stateMutability": "nonpayable",
      "type": "function"
    },
    {
      "inputs": [
        {
          "internalType": "address",
          "name": "target",
          "type": "address"
        }
      ],
      "name": "renounceMinter",
      "outputs": [],
      "stateMutability": "nonpayable",
      "type": "function"
    },
    {
      "inputs": [],
      "name": "renounceMinter",
      "outputs": [],
      "stateMutability": "nonpayable",
      "type": "function"
    },
    {
      "inputs": [],
      "name": "renounceOperator",
      "outputs": [],
      "stateMutability": "nonpayable",
      "type": "function"
    },
    {
      "inputs": [
        {
          "internalType": "address",
          "name": "target",
          "type": "address"
        }
      ],
      "name": "renounceOwnership",
      "outputs": [],
      "stateMutability": "nonpayable",
      "type": "function"
    },
    {
      "inputs": [],
      "name": "renounceOwnership",
      "outputs": [],
      "stateMutability": "nonpayable",
      "type": "function"
    },
    {
      "inputs": [
        {
          "internalType": "address",
          "name": "target",
          "type": "address"
        }
      ],
      "name": "renouncePauser",
      "outputs": [],
      "stateMutability": "nonpayable",
      "type": "function"
    },
    {
      "inputs": [
        {
          "internalType": "bytes32",
          "name": "role",
          "type": "bytes32"
        },
        {
          "internalType": "address",
          "name": "account",
          "type": "address"
        }
      ],
      "name": "renounceRole",
      "outputs": [],
      "stateMutability": "nonpayable",
      "type": "function"
    },
    {
      "inputs": [],
      "name": "renounceWTONMinter",
      "outputs": [],
      "stateMutability": "nonpayable",
      "type": "function"
    },
    {
      "inputs": [
        {
          "internalType": "address",
          "name": "account",
          "type": "address"
        }
      ],
      "name": "revokeChallenger",
      "outputs": [],
      "stateMutability": "nonpayable",
      "type": "function"
    },
    {
      "inputs": [
        {
          "internalType": "address",
          "name": "account",
          "type": "address"
        }
      ],
      "name": "revokeMinter",
      "outputs": [],
      "stateMutability": "nonpayable",
      "type": "function"
    },
    {
      "inputs": [
        {
          "internalType": "address",
          "name": "account",
          "type": "address"
        }
      ],
      "name": "revokeOperator",
      "outputs": [],
      "stateMutability": "nonpayable",
      "type": "function"
    },
    {
      "inputs": [
        {
          "internalType": "bytes32",
          "name": "role",
          "type": "bytes32"
        },
        {
          "internalType": "address",
          "name": "account",
          "type": "address"
        }
      ],
      "name": "revokeRole",
      "outputs": [],
      "stateMutability": "nonpayable",
      "type": "function"
    },
    {
      "inputs": [],
      "name": "seigPerBlock",
      "outputs": [
        {
          "internalType": "uint256",
          "name": "",
          "type": "uint256"
        }
      ],
      "stateMutability": "view",
      "type": "function"
    },
    {
      "inputs": [],
      "name": "seigStartBlock",
      "outputs": [
        {
          "internalType": "uint256",
          "name": "",
          "type": "uint256"
        }
      ],
      "stateMutability": "view",
      "type": "function"
    },
    {
      "inputs": [
        {
          "internalType": "bytes4",
          "name": "",
          "type": "bytes4"
        }
      ],
      "name": "selectorImplementation",
      "outputs": [
        {
          "internalType": "address",
          "name": "",
          "type": "address"
        }
      ],
      "stateMutability": "view",
      "type": "function"
    },
    {
      "inputs": [
        {
          "internalType": "uint256",
          "name": "adjustDelay_",
          "type": "uint256"
        }
      ],
      "name": "setAdjustDelay",
      "outputs": [],
      "stateMutability": "nonpayable",
      "type": "function"
    },
    {
      "inputs": [
        {
          "internalType": "uint256",
          "name": "_burntAmountAtDAO",
          "type": "uint256"
        }
      ],
      "name": "setBurntAmountAtDAO",
      "outputs": [],
      "stateMutability": "nonpayable",
      "type": "function"
    },
    {
      "inputs": [
        {
          "internalType": "address",
          "name": "factory_",
          "type": "address"
        }
      ],
      "name": "setCoinageFactory",
      "outputs": [],
      "stateMutability": "nonpayable",
      "type": "function"
    },
    {
      "inputs": [
        {
          "internalType": "address",
          "name": "layer2",
          "type": "address"
        },
        {
          "internalType": "uint256",
          "name": "commissionRate",
          "type": "uint256"
        },
        {
          "internalType": "bool",
          "name": "isCommissionRateNegative_",
          "type": "bool"
        }
      ],
      "name": "setCommissionRate",
      "outputs": [
        {
          "internalType": "bool",
          "name": "",
          "type": "bool"
        }
      ],
      "stateMutability": "nonpayable",
      "type": "function"
    },
    {
      "inputs": [
        {
          "internalType": "address",
          "name": "daoAddress",
          "type": "address"
        }
      ],
      "name": "setDao",
      "outputs": [],
      "stateMutability": "nonpayable",
      "type": "function"
    },
    {
      "inputs": [
        {
          "internalType": "uint256",
          "name": "daoSeigRate_",
          "type": "uint256"
        }
      ],
      "name": "setDaoSeigRate",
      "outputs": [],
      "stateMutability": "nonpayable",
      "type": "function"
    },
    {
      "inputs": [
        {
          "internalType": "address",
          "name": "powerton_",
          "type": "address"
        },
        {
          "internalType": "address",
          "name": "daoAddress",
          "type": "address"
        },
        {
          "internalType": "uint256",
          "name": "powerTONSeigRate_",
          "type": "uint256"
        },
        {
          "internalType": "uint256",
          "name": "daoSeigRate_",
          "type": "uint256"
        },
        {
          "internalType": "uint256",
          "name": "relativeSeigRate_",
          "type": "uint256"
        },
        {
          "internalType": "uint256",
          "name": "adjustDelay_",
          "type": "uint256"
        },
        {
          "internalType": "uint256",
          "name": "minimumAmount_",
          "type": "uint256"
        }
      ],
      "name": "setData",
      "outputs": [],
      "stateMutability": "nonpayable",
      "type": "function"
    },
    {
      "inputs": [
        {
          "internalType": "uint256",
          "name": "_initialTotalSupply",
          "type": "uint256"
        }
      ],
      "name": "setInitialTotalSupply",
      "outputs": [],
      "stateMutability": "nonpayable",
      "type": "function"
    },
    {
      "inputs": [
        {
          "internalType": "uint256",
          "name": "minimumAmount_",
          "type": "uint256"
        }
      ],
      "name": "setMinimumAmount",
      "outputs": [],
      "stateMutability": "nonpayable",
      "type": "function"
    },
    {
      "inputs": [
        {
          "internalType": "address",
          "name": "powerton_",
          "type": "address"
        }
      ],
      "name": "setPowerTON",
      "outputs": [],
      "stateMutability": "nonpayable",
      "type": "function"
    },
    {
      "inputs": [
        {
          "internalType": "uint256",
          "name": "powerTONSeigRate_",
          "type": "uint256"
        }
      ],
      "name": "setPowerTONSeigRate",
      "outputs": [],
      "stateMutability": "nonpayable",
      "type": "function"
    },
    {
      "inputs": [
        {
          "internalType": "uint256",
          "name": "pseigRate_",
          "type": "uint256"
        }
      ],
      "name": "setPseigRate",
      "outputs": [],
      "stateMutability": "nonpayable",
      "type": "function"
    },
    {
      "inputs": [
        {
          "internalType": "uint256",
          "name": "_seigStartBlock",
          "type": "uint256"
        }
      ],
      "name": "setSeigStartBlock",
      "outputs": [],
      "stateMutability": "nonpayable",
      "type": "function"
    },
    {
      "inputs": [
        {
          "internalType": "address",
          "name": "layer2",
          "type": "address"
        },
        {
          "internalType": "address",
          "name": "challenger",
          "type": "address"
        }
      ],
      "name": "slash",
      "outputs": [
        {
          "internalType": "bool",
          "name": "",
          "type": "bool"
        }
      ],
      "stateMutability": "nonpayable",
      "type": "function"
    },
    {
      "inputs": [
        {
          "internalType": "address",
          "name": "account",
          "type": "address"
        }
      ],
      "name": "stakeOf",
      "outputs": [
        {
          "internalType": "uint256",
          "name": "amount",
          "type": "uint256"
        }
      ],
      "stateMutability": "view",
      "type": "function"
    },
    {
      "inputs": [
        {
          "internalType": "address",
          "name": "layer2",
          "type": "address"
        },
        {
          "internalType": "address",
          "name": "account",
          "type": "address"
        }
      ],
      "name": "stakeOf",
      "outputs": [
        {
          "internalType": "uint256",
          "name": "",
          "type": "uint256"
        }
      ],
      "stateMutability": "view",
      "type": "function"
    },
    {
      "inputs": [],
      "name": "stakeOfAllLayers",
      "outputs": [
        {
          "internalType": "uint256",
          "name": "amount",
          "type": "uint256"
        }
      ],
      "stateMutability": "view",
      "type": "function"
    },
    {
      "inputs": [
        {
          "internalType": "uint256",
          "name": "snapshotId",
          "type": "uint256"
        }
      ],
      "name": "stakeOfAllLayersAt",
      "outputs": [
        {
          "internalType": "uint256",
          "name": "amount",
          "type": "uint256"
        }
      ],
      "stateMutability": "view",
      "type": "function"
    },
    {
      "inputs": [
        {
          "internalType": "address",
          "name": "account",
          "type": "address"
        },
        {
          "internalType": "uint256",
          "name": "snapshotId",
          "type": "uint256"
        }
      ],
      "name": "stakeOfAt",
      "outputs": [
        {
          "internalType": "uint256",
          "name": "amount",
          "type": "uint256"
        }
      ],
      "stateMutability": "view",
      "type": "function"
    },
    {
      "inputs": [
        {
          "internalType": "address",
          "name": "layer2",
          "type": "address"
        },
        {
          "internalType": "address",
          "name": "account",
          "type": "address"
        },
        {
          "internalType": "uint256",
          "name": "snapshotId",
          "type": "uint256"
        }
      ],
      "name": "stakeOfAt",
      "outputs": [
        {
          "internalType": "uint256",
          "name": "amount",
          "type": "uint256"
        }
      ],
      "stateMutability": "view",
      "type": "function"
    },
    {
      "inputs": [],
      "name": "stakeOfTotal",
      "outputs": [
        {
          "internalType": "uint256",
          "name": "amount",
          "type": "uint256"
        }
      ],
      "stateMutability": "view",
      "type": "function"
    },
    {
      "inputs": [
        {
          "internalType": "uint256",
          "name": "snapshotId",
          "type": "uint256"
        }
      ],
      "name": "stakeOfTotalAt",
      "outputs": [
        {
          "internalType": "uint256",
          "name": "amount",
          "type": "uint256"
        }
      ],
      "stateMutability": "view",
      "type": "function"
    },
    {
      "inputs": [
        {
          "internalType": "bytes4",
          "name": "interfaceId",
          "type": "bytes4"
        }
      ],
      "name": "supportsInterface",
      "outputs": [
        {
          "internalType": "bool",
          "name": "",
          "type": "bool"
        }
      ],
      "stateMutability": "view",
      "type": "function"
    },
    {
      "inputs": [],
      "name": "ton",
      "outputs": [
        {
          "internalType": "address",
          "name": "",
          "type": "address"
        }
      ],
      "stateMutability": "view",
      "type": "function"
    },
    {
      "inputs": [],
      "name": "tot",
      "outputs": [
        {
          "internalType": "address",
          "name": "",
          "type": "address"
        }
      ],
      "stateMutability": "view",
      "type": "function"
    },
    {
      "inputs": [],
      "name": "totalSupplyOfTon",
      "outputs": [
        {
          "internalType": "uint256",
          "name": "tos",
          "type": "uint256"
        }
      ],
      "stateMutability": "view",
      "type": "function"
    },
    {
      "inputs": [],
      "name": "totalSupplyOfTon_2",
      "outputs": [
        {
          "internalType": "uint256",
          "name": "tos",
          "type": "uint256"
        }
      ],
      "stateMutability": "view",
      "type": "function"
    },
    {
      "inputs": [
        {
          "internalType": "address",
          "name": "newAdmin",
          "type": "address"
        }
      ],
      "name": "transferAdmin",
      "outputs": [],
      "stateMutability": "nonpayable",
      "type": "function"
    },
    {
      "inputs": [
        {
          "internalType": "address",
          "name": "newSeigManager",
          "type": "address"
        },
        {
          "internalType": "address[]",
          "name": "coinages_",
          "type": "address[]"
        }
      ],
      "name": "transferCoinageOwnership",
      "outputs": [],
      "stateMutability": "nonpayable",
      "type": "function"
    },
    {
      "inputs": [
        {
          "internalType": "address",
          "name": "target",
          "type": "address"
        },
        {
          "internalType": "address",
          "name": "newOwner",
          "type": "address"
        }
      ],
      "name": "transferOwnership",
      "outputs": [],
      "stateMutability": "nonpayable",
      "type": "function"
    },
    {
      "inputs": [
        {
          "internalType": "address",
          "name": "newAdmin",
          "type": "address"
        }
      ],
      "name": "transferOwnership",
      "outputs": [],
      "stateMutability": "nonpayable",
      "type": "function"
    },
    {
      "inputs": [],
      "name": "unallocatedSeigniorage",
      "outputs": [
        {
          "internalType": "uint256",
          "name": "amount",
          "type": "uint256"
        }
      ],
      "stateMutability": "view",
      "type": "function"
    },
    {
      "inputs": [
        {
          "internalType": "uint256",
          "name": "snapshotId",
          "type": "uint256"
        }
      ],
      "name": "unallocatedSeigniorageAt",
      "outputs": [
        {
          "internalType": "uint256",
          "name": "amount",
          "type": "uint256"
        }
      ],
      "stateMutability": "view",
      "type": "function"
    },
    {
      "inputs": [
        {
          "internalType": "address",
          "name": "layer2",
          "type": "address"
        },
        {
          "internalType": "address",
          "name": "account",
          "type": "address"
        }
      ],
      "name": "uncommittedStakeOf",
      "outputs": [
        {
          "internalType": "uint256",
          "name": "",
          "type": "uint256"
        }
      ],
      "stateMutability": "view",
      "type": "function"
    },
    {
      "inputs": [
        {
          "internalType": "address",
          "name": "account",
          "type": "address"
        }
      ],
      "name": "uncommittedStakeOf",
      "outputs": [
        {
          "internalType": "uint256",
          "name": "amount",
          "type": "uint256"
        }
      ],
      "stateMutability": "view",
      "type": "function"
    },
    {
      "inputs": [],
      "name": "unpause",
      "outputs": [],
      "stateMutability": "nonpayable",
      "type": "function"
    },
    {
      "inputs": [],
      "name": "unpausedBlock",
      "outputs": [
        {
          "internalType": "uint256",
          "name": "",
          "type": "uint256"
        }
      ],
      "stateMutability": "view",
      "type": "function"
    },
    {
      "inputs": [],
      "name": "updateSeigniorage",
      "outputs": [
        {
          "internalType": "bool",
          "name": "",
          "type": "bool"
        }
      ],
      "stateMutability": "nonpayable",
      "type": "function"
    },
    {
      "inputs": [
        {
          "internalType": "address",
          "name": "layer2",
          "type": "address"
        }
      ],
      "name": "updateSeigniorageLayer",
      "outputs": [
        {
          "internalType": "bool",
          "name": "",
          "type": "bool"
        }
      ],
      "stateMutability": "nonpayable",
      "type": "function"
    },
    {
      "inputs": [],
      "name": "wton",
      "outputs": [
        {
          "internalType": "address",
          "name": "",
          "type": "address"
        }
      ],
      "stateMutability": "view",
      "type": "function"
    }
  ],
  "bytecode": "0x60808060405234610017576158c590816200001d8239f35b600080fdfe608060408181526004918236101561001657600080fd5b600092833560e01c91826301ffc9a7146136c85750816303e1cc27146136465781630ceb6780146135895781631397704214611b2b5781631785f53c1461355b5781631cc478901461353c5781631e1f0b601461348f5781632428c62814613472578163248a9ca31461344757816324d7806c1461340157816325374a9a146133e257816325e90db4146133c85781632ab6f8db146133ae5781632d1bdec8146133735781632f17250a1461334d5781632f2ff15d146132b25781633092afd514613284578163311028af1461326557816332053c991461324657816332847953146130cd57816336568abe1461303b578163389ed267146130005783826338bf3cfa14612f90575081633c49117314612f405781633e832e1d14612f175781633f4ba83a14612e455781634101dd2414612e255781634123196f14612298578163412c6d5014612c5a5781634162169f14612c315781634181302014612bf35783826341eb24bb14612b83575081634224ed661461293857816342623360146127c15781634631179e1461279857816346a99fe71461260b57816348c8577e146125ed5781634a3931491461252c5781634c063c19146124f15781634c75ab9c1461234857816350d2a27614612304578163530adbb4146122db578163550d01a31461229d578163552033c41461229857816358d00cd6146122475781635998a8d7146122285781635a16a416146121ea5781635c975abb146121c6578382635f112c6814612156575081635f40a349146121375781636304a6241461211857816363a8fd89146120f65781636637b882146120b85781636c578c1d1461208a5781636c7ac9d8146120615781636d43542114611fde5781636d70f7ae14611f8a5781637048027514611ee7578163715018a614611ec157816374d58f4814611e5d57816375829def14611e40578163764a785614611dfa5781637aeccce914611cdd5781637b056c1b14611ca55781637b10399914611c7c578163833a774f14611b49578163837afbc014611b2b5781638456cb5914611a5b578163846d69f814611a2d5781638bf91dc414611a075781638d62d949146119de5781638f32d59b146119ab57816391d14854146119645781639328f1bc146118f0578163983b2d56146118a057816398650275146118865781639870d7fe146117d35781639c877e4714611751578163a0474ef514611731578163a16d6aa714611708578163a217fddf146116ed578163a415d8dc14611699578163a7dcc85014611673578163aa271e1a1461161f578163ac753a7a146115e1578163ac89321914611588578163ac8a584a1461155a578163acd848fa1461153057838263ae3458f8146114ab57508163b911135f14611478578163b99c86d714611414578163bb0c8298146113f5578163bf1e20ca146112c4578163bf7f4733146112a5578163c45a01551461127c578163c59f104614611244578163c5e2e74514611227578163cb7f9f06146111ff578163cbfebe62146111c7578163cc48b9471461119e578163ce4cb876146110f2578163ce6c0355146110d5578163cfbd488514611085578163d01a942c14610e42578163d3099e1e14610e05578163d539139314610ddc578163d547741f14610da0578163d8c4796614610d82578163df7fbef014610d63578163e2fe8fd114610d2b578163e403483214610ca0578163eeb4a9c814610c65578163f2fde38b14610b21578163f35c89e814610b02578163f5b541a614610ad9578163f822934814610aba578163f850ffaa146107cc578163f8951f46146106af578163f96032e614610690578163f98f57351461062c575063fad8b32a1461056057600080fd5b3461062857602090816003193601126106245761057b613748565b9061058d610588336137d4565b613ea5565b60008051602061587983398151915292838552600581526105b360018387200154613811565b838552600581528185206001600160a01b039093168086529281528185205460ff166105dd578480f35b8385526005815281852083865290528320805460ff1916905533917ff6391f5c32d9c69d2a47ea670b442974b53935d1edc7fd64eb21e047a839171b8480a4388080808480f35b8280fd5b5080fd5b905034610624576020366003190112610624577f489288c31549c08126ae020fa02ca6d059667de5343898713de1f95462cae44391602091359084805260058352808520338652835261068460ff8287205416613ea5565b8160225551908152a180f35b5050346106285781600319360112610628576020906021549051908152f35b5050346106285760e036600319011261062857602080916106ce613748565b907f25826073c0320e7bfcef08488f501afb014791143befc0558b6343262751a876836106f9613763565b93604435906064359589805260058452858a20338b52845261072060ff878c205416613ea5565b610751676765c793fa10079d601b1b61074a610741601b54601c5490613e71565b601d5490613e71565b1115613f74565b60018060a01b0390816001600160601b0360a01b93168360085416176008551690600954161760095580601b5584601c55608435601d5560a43560165560c435601a558351908152a180518281527f1140c1f14579543e61b599f8f43d0112d66ec1462431e56c97c27b47446a38ac948591a151908152a180f35b905034610624576107dc3661379f565b9291949060018060a01b03956107f787600754163314614032565b86811693848452602097600e89526108158189872054161515613fcf565b858552600e89528088862054168851906370a0823160e01b918281528b81602481878b1695868a8301525afa908115610ab057908a918991610a7f575b5010610a27578a906108648787615165565b610996575b5050506108768784614e06565b9581600d5416610886888a613e71565b813b15610992578a5163079cc67960e41b8082526001600160a01b03909716868201908152602081019290925291889183919082908490829060400103925af1801561098857610979575b508552600e8952878520541691823b156109755787519081526001600160a01b03909316908301908152602081018690529192918291849182908490829060400103925af190811561096a5750917f650f673bb96a43afff4620ecc3f3e38e0cbfddebde9894e951ba2ceff7472f609391859361095b575b50825191825285820152a15160018152f35b61096490613b80565b38610949565b8551903d90823e3d90fd5b8480fd5b61098290613b80565b386108d1565b8a513d89823e3d90fd5b8780fd5b888852600e82526024848c8a205416938c5194859384928352888301525afa908115610a1d5790889187916109e6575b506109de916109d4916140db565b601a541115614077565b388981610869565b8092508b8092503d8311610a16575b6109ff8183613baa565b81010312610a12575187906109de6109c6565b8580fd5b503d6109f5565b89513d88823e3d90fd5b895162461bcd60e51b81528085018c9052602c60248201527f536569674d616e616765723a20696e73756666696369616e742062616c616e6360448201526b6520746f20756e7374616b6560a01b6064820152608490fd5b8092508d8092503d8311610aa9575b610a988183613baa565b810103126109925789905138610852565b503d610a8e565b8b513d8a823e3d90fd5b505034610628578160031936011261062857602090601e549051908152f35b505034610628578160031936011261062857602090516000805160206158798339815191528152f35b5050346106285781600319360112610628576020906011549051908152f35b9190503461062457602080600319360112610c6157610b3e613748565b610b4a610588336137d4565b610b56610588336137d4565b6001600160a01b0316928315610c2057833314610be6575083805260058152610b8460018386200154613811565b83805260058152818420838552815260ff828520541615610bad575b83610baa33613bcc565b80f35b8380526005815281842083855290528220805460ff191660011790553390826000805160206158398339815191528180a4388080610ba0565b915162461bcd60e51b815291820152601660248201527520b1b1b2b9b9b4b136329d1039b0b6b29030b236b4b760511b6044820152606490fd5b915162461bcd60e51b815291820152601860248201527f41636365737369626c653a207a65726f206164647265737300000000000000006044820152606490fd5b8380fd5b919050346106245760203660031901126106245760ff610c9991848052600560205280852033865260205284205416613ea5565b35601a5580f35b905034610624576020366003190112610624577f4f3f4d2a7e076fb16f4fe2fc46ac0a4050623f4a4ba0fb0e9a9d5283f192a090916020913590848052600583528085203386528352610cf860ff8287205416613ea5565b610d1f676765c793fa10079d601b1b61074a84610d1a601b54601c5490613e71565b613e71565b81601d5551908152a180f35b5050346106285760203660031901126106285760209181906001600160a01b03610d53613748565b1681526018845220549051908152f35b5050346106285781600319360112610628576020906016549051908152f35b5050346106285781600319360112610628576020905162a55ec28152f35b91905034610624578060031936011261062457610baa9135610dd76001610dc5613763565b93838752600560205286200154613811565b613e17565b505034610628578160031936011261062857602090516000805160206158598339815191528152f35b828434610e3f576020366003190112610e3f5750610e3860209235610e32610e2c82614afb565b91614ca6565b906140db565b9051908152f35b80fd5b828434610e3f5780600319360112610e3f57600a5482516318160ddd60e01b8082526020956001600160a01b039493909290851687828581845afa918215610fde578592611056575b5085600b54169187516370a0823160e01b93848252868201528981602481865afa90811561101d578791611027575b50610ec4916140db565b875183815286868201528981602481865afa90811561101d57908a918891610fe8575b50610ef291926140db565b92602489518094819382526001898301525afa908115610fde578591610faf575b50610f1d916140db565b93633b9aca0094858102958187041490151715610f9c57908691600d54169286518094819382525afa918215610f91578092610f5f575b5050610e3891613e71565b9091508482813d8311610f8a575b610f778183613baa565b81010312610e3f575051610e3885610f54565b503d610f6d565b8451903d90823e3d90fd5b634e487b7160e01b845260118352602484fd5b90508781813d8311610fd7575b610fc68183613baa565b810103126109755751610f1d610f13565b503d610fbc565b87513d87823e3d90fd5b82819392503d8311611016575b610fff8183613baa565b8101031261101257518990610ef2610ee7565b8680fd5b503d610ff5565b89513d89823e3d90fd5b90508981813d831161104f575b61103e8183613baa565b810103126110125751610ec4610eba565b503d611034565b9091508781813d831161107e575b61106e8183613baa565b8101031261097557519088610e8b565b503d611064565b5050346106285760209081600319360112610624576110a2613748565b906110af610588336137d4565b60008051602061585983398151915292838552600581526105b360018387200154613811565b505034610628578160031936011261062857602090610e38614a95565b83833461062857806003193601126106285760249261110f613748565b611117613763565b9060018060a01b0380911685526020958692600e8452828688205416865195869485936370a0823160e01b855216908301525afa928315611193578093611161575b505051908152f35b909192508382813d831161118c575b61117a8183613baa565b81010312610e3f575051908380611159565b503d611170565b8251903d90823e3d90fd5b505034610628578160031936011261062857600a5490516001600160a01b039091168152602090f35b5050346106285760203660031901126106285760209181906001600160a01b036111ef613748565b1681526017845220549051908152f35b505034610628578160031936011261062857602090610e3861121f614a95565b610e32614b3a565b505034610628578160031936011261062857602090610e38614b3a565b5050346106285760203660031901126106285760209181906001600160a01b0361126c613748565b168152600f845220549051908152f35b505034610628578160031936011261062857600c5490516001600160a01b039091168152602090f35b5050346106285781600319360112610628576020906023549051908152f35b919050346106245760209283600319360112610e3f576112e2613748565b6006548351630d42d49760e01b81529294859392916001600160a01b03169087848281855afa9384156113eb5785946113bc575b5084939291905b83861061132d5788888851908152f35b909192939496865163b7ffb17960e01b815288838201528981602481875afa9081156113b2579161136f866113759361137b958e8c92611385575b50506146dd565b90613e71565b97613fc0565b949392919061131d565b6113a49250803d106113ab575b61139c8183613baa565b810190613efd565b388e611368565b503d611392565b88513d89823e3d90fd5b9093508781813d83116113e4575b6113d48183613baa565b8101031261097557519238611316565b503d6113ca565b86513d87823e3d90fd5b505034610628578160031936011261062857602090601a549051908152f35b905034610624576020366003190112610624577f1a23e1e1b104629f39e6e1ba6b9589337a752298bbdab34157f7fb677138138891602091359084805260058352808520338652835261146c60ff8287205416613ea5565b8160215551908152a180f35b9050346106245760203660031901126106245735825260016020908152918190205490516001600160a01b039091168152f35b9291503461152c578260031936011261152c5782805260056020528183203384526020526114de60ff8385205416613ea5565b600b546001600160a01b0316803b15611527578391835180958193639865027560e01b83525af190811561151e5750611515575080f35b610baa90613b80565b513d84823e3d90fd5b505050fd5b5050fd5b505034610628578160031936011261062857602090516e09a130b963a6c115c3c7f4000000008152f35b8334610e3f576020366003190112610e3f57610baa611577613748565b611583610588336137d4565b613d5d565b505034610628576020366003190112610628576115c360ff6115a8613748565b92848052600560205280852033865260205284205416613ea5565b60018060a01b03166001600160601b0360a01b600c541617600c5580f35b5050346106285760203660031901126106285760209160ff9082906001600160a01b0361160c613748565b1681526019855220541690519015158152f35b5050346106285760203660031901126106285760ff81602093611640613748565b6000805160206158598339815191528252600586528282206001600160a01b039091168252855220549151911615158152f35b505034610628578160031936011261062857602090516a084595161401484a0000008152f35b5050346106285760203660031901126106285760ff816020936116ba613748565b6000805160206158998339815191528252600586528282206001600160a01b039091168252855220549151911615158152f35b50503461062857816003193601126106285751908152602090f35b505034610628578160031936011261062857600d5490516001600160a01b039091168152602090f35b828434610e3f576020366003190112610e3f5750610e3860209235614afb565b905034610624576020366003190112610624577f25826073c0320e7bfcef08488f501afb014791143befc0558b6343262751a8769160209135908480526005835280852033865283526117a960ff8287205416613ea5565b6117c7676765c793fa10079d601b1b61074a610741601c5486613e71565b81601b5551908152a180f35b5050346106285760209081600319360112610624576117f0613748565b906117fd610588336137d4565b600080516020615879833981519152928385526005815261182360018387200154613811565b838552600581528185206001600160a01b039093168086529281528185205460ff161561184e578480f35b8385526005815281852083865290528320805460ff1916600117905533916000805160206158398339815191528480a4388080808480f35b8334610e3f5780600319360112610e3f57610baa33613dba565b5050346106285760209081600319360112610624576118bd613748565b906118ca610588336137d4565b600080516020615859833981519152928385526005815261182360018387200154613811565b8383346106285761194b6119033661379f565b6001600160a01b039283168652600e602090815285872054865163277166bf60e11b815293851698840198895288820192909252969193879385939216918391829160400190565b03915afa92831561119357809361116157505051908152f35b9050346106245781600319360112610624578160209360ff92611985613763565b90358252600586528282206001600160a01b039091168252855220549151911615158152f35b50503461062857816003193601126106285760ff8183806020955260058552818120338252855220541690519015158152f35b505034610628578160031936011261062857600b5490516001600160a01b039091168152602090f35b50503461062857816003193601126106285760209051676765c793fa10079d601b1b8152f35b505034610628578060031936011261062857602090610e38611a4d613748565b611a55613763565b906146dd565b9050346106245782600319360112610624577ffcb9fcbfa83b897fb2d5cf4b58962164105c1e71489a37ef3ae0db3fdce576f683526005602052818320338452602052611aad60ff8385205416613f1c565b601f549060ff8216611af557504360125560ff1916600117601f55513381527f62e78cea01bee320cd4e420270b5ea74000d11b0c9f74754ebdbfc544b05a25890602090a180f35b606490602084519162461bcd60e51b8352820152601060248201526f14185d5cd8589b194e881c185d5cd95960821b6044820152fd5b50503461062857816003193601126106285760209081549051908152f35b9050346106245760209283600319360112610e3f57611b66613748565b6006546001600160a01b03919082163303611c4657811692838352600e86528582868520541615611b9a575b855160018152f35b600c548651631dd70c0360e21b81529283918290879087165af1908115611c3c578692849287927f124cac1e701d08d642237ad795ddd275670e12f2cd956a26709721c68084c2b29691611c1f575b50868452600f855243838520551691600e845220816001600160601b0360a01b8254161790558451908152a23880808085611b92565b611c369150853d87116113ab5761139c8183613baa565b38611be9565b85513d85823e3d90fd5b845162461bcd60e51b8152808501879052601060248201526f6e6f74206f6e6c79526567697374727960801b6044820152606490fd5b50503461062857816003193601126106285760065490516001600160a01b039091168152602090f35b5050346106285760203660031901126106285760209181906001600160a01b03611ccd613748565b1681526014845220549051908152f35b905034610624578160031936011261062457611cf7613748565b611cff613763565b6000805160206158998339815191528552600560205283852033865260205260ff848620541615611da7576001600160a01b03918216808652600e6020528486205486939290611d529084161515613fcf565b813b15610c615783602492875196879586946306394c9b60e01b865216908401525af18015611d9b5760209350611d8c575b505160018152f35b611d9590613b80565b38611d84565b505051903d90823e3d90fd5b835162461bcd60e51b8152602081850152602760248201527f41757468436f6e74726f6c3a2043616c6c6572206973206e6f74206120636861604482015266363632b733b2b960c91b6064820152608490fd5b505034610628578160031936011261062857338252600e60209081529181902054611e2f906001600160a01b03161515613fcf565b611e376140e8565b90519015158152f35b9190503461062457602080600319360112610c6157610b4a613748565b905034610624576020366003190112610624577f28c3cbc602a4756e87a3cf0b6546716bdea5c9a518ab406c83d770599b27001e916020913590848052600583528085203386528352611eb560ff8287205416613ea5565b8160235551908152a180f35b8334610e3f5780600319360112610e3f57611ede610588336137d4565b610baa33613bcc565b505034610628576020908160031936011261062457611f04613748565b91611f11610588336137d4565b83805260058152611f2760018386200154613811565b838052600581528184206001600160a01b039093168085529281528184205460ff1615611f52578380f35b8380526005815281842083855290528220805460ff191660011790553390826000805160206158398339815191528180a43880808380f35b5050346106285760203660031901126106285760ff81602093611fab613748565b6000805160206158798339815191528252600586528282206001600160a01b039091168252855220549151911615158152f35b9190503461062457806003193601126106245782611ffa613748565b612002613763565b828052600560205283832033845260205261202260ff8585205416613ea5565b6001600160a01b0391821690813b15610c6157836024928651978895869463f2fde38b60e01b865216908401525af190811561151e5750611515575080f35b50503461062857816003193601126106285760075490516001600160a01b039091168152602090f35b8334610e3f576020366003190112610e3f57610baa6120a7613748565b6120b3610588336137d4565b613cbb565b505034610628576020366003190112610628576120d860ff6115a8613748565b60018060a01b03166001600160601b0360a01b600954161760095580f35b50503461062857816003193601126106285760ff602092541690519015158152f35b505034610628578160031936011261062857602090601b549051908152f35b5050346106285781600319360112610628576020906010549051908152f35b9291503461152c57602036600319011261152c57612172613748565b838052600560205282842033855260205261219260ff8486205416613ea5565b6001600160a01b0316803b15611527578391835180958193639865027560e01b83525af190811561151e5750611515575080f35b50503461062857816003193601126106285760209060ff601f541690519015158152f35b5050346106285760203660031901126106285760209160ff9082906001600160a01b03612215613748565b1681526015855220541690519015158152f35b505034610628578160031936011261062857602090601c549051908152f35b5050346106285781600319360112610628576020908154907fac3d68540f9902349c72a28dc187ad15b504d68182767a2b00a3db86880507ba838251848152a161229082613fc0565b835551908152f35b613779565b5050346106285760203660031901126106285760209160ff9082906001600160a01b036122c8613748565b1681526002855220541690519015158152f35b505034610628578160031936011261062857602090516000805160206158998339815191528152f35b905034610624576020366003190112610624573563ffffffff60e01b811680910361062457825260036020908152918190205490516001600160a01b039091168152f35b91905034610624578060031936011261062457612363613748565b6006548251630d42d49760e01b81526020959490928592602480359392916001600160a01b03919082168a888681845afa97881561101d5787986124c2575b509695949392919085975b8789106123bd578b8b8b51908152f35b909192939495969799895163b7ffb17960e01b81528b878201528c818581865afa90811561249b57888c8f928a89838f82612435998f9683916124a5575b50168152600e885220541692519586948593849363277166bf60e11b8552840160209093929193604081019460018060a01b031681520152565b03915afa90811561249b578991612468575b506124559061245b92613e71565b9a613fc0565b97969594939291906123ad565b90508c81813d8311612494575b61247f8183613baa565b81010312612490575161245b612447565b8880fd5b503d612475565b8b513d8b823e3d90fd5b6124bc91508a3d8c116113ab5761139c8183613baa565b386123fb565b9097508a81813d83116124ea575b6124da8183613baa565b81010312611012575196386123a2565b503d6124d0565b505034610628576020366003190112610628576020916001600160a01b039082908261251b613748565b168152600e85522054169051908152f35b90508234610e3f575061253e3661379f565b5050600a54336001600160a01b0391821614915081156125df575b50156125835760208260ff601f541615612575575b5160018152f35b61257d6151bf565b5061256e565b6020608492519162461bcd60e51b8352820152603160248201527f536569674d616e616765723a206f6e6c7920544f4e206f722057544f4e206361604482015270371031b0b6361037b72a3930b739b332b960791b6064820152fd5b9050600b5416331483612559565b50503461062857602090610e386126033661379f565b919050614e06565b9050346106245760e036600319011261062457612626613748565b9061262f613763565b6001600160a01b0392906044358481169081900361101257606435918583168093036109925760a4359386851680950361249057600a5490878216158061278e575b156127555792878096938b96936020966001600160601b0360a01b9b8c9116911617600a551688600b541617600b558760065416176006558660075416176007556084356010558086600c541617600c5584875180948193631dd70c0360e21b83525af190811561274b57869161272d575b50169283156126ff575050600d541617600d5560c43560115580f35b906020606492519162461bcd60e51b835282015260086024820152671e995c9bc81d1bdd60c21b6044820152fd5b612745915060203d81116113ab5761139c8183613baa565b386126e3565b85513d88823e3d90fd5b885162461bcd60e51b81526020818901526013602482015272185b1c9958591e481a5b9a5d1a585b1a5e9959606a1b6044820152606490fd5b5060115415612671565b505034610628578160031936011261062857602090516d08c815d5bcc20177de3b5d2500008152f35b8383346106285760209283600319360112610624576127de613748565b6006548351630d42d49760e01b815291929185916001600160a01b0390811688838681845afa92831561292e5784936128ff575b509080849395949616915b85871061282d5789898951908152f35b90919293949597875163b7ffb17960e01b815289878201526024908b818381875afa9081156109885790859188916128e2575b50168652600e8b528a848a882054168a51928380926370a0823160e01b8252898c8301525afa908115610a1d5786916128b3575b506128a2906128a892613e71565b98613fc0565b95949392919061281d565b90508a81813d83116128db575b6128ca8183613baa565b81010312610a1257516128a8612894565b503d6128c0565b6128f991508d803d106113ab5761139c8183613baa565b8d612860565b9092508881813d8311612927575b6129178183613baa565b81010312610c6157519189612812565b503d61290d565b87513d86823e3d90fd5b90503461062457606036600319011261062457612953613748565b60243591604435918215158303610a12576006546001600160a01b039290831633148015612b2c575b15612ae95784158015612abe575b15612a4857509184917f11841078e38c91feada06e1f8ded3697ab2dadc2583c52b14109b82ccd4f77d793169384875260209660148852838120549284601654928315600014612a0c576129fb935088815260148b52848282205560158b52209060ff801983541691151516179055565b825191825286820152a25160018152f35b612a19612a439443613e71565b89825260178c528282205560188b52848282205560198b52209060ff801983541691151516179055565b6129fb565b60a490602087519162461bcd60e51b8352820152604460248201527f536569674d616e616765723a20636f6d6d697373696f6e2072617465206d757360448201527f742062652030206f72206265747765656e20312052415920616e6420302e30316064820152632052415960e01b6084820152fd5b50846a084595161401484a0000001115801561298a5750676765c793fa10079d601b1b85111561298a565b606490602087519162461bcd60e51b8352820152601a60248201527f6e6f74206f6e6c7952656769737472794f724f70657261746f720000000000006044820152fd5b50855163570ca73560e01b815260208183818688165afa8015612b795784918991612b5b575b5016331461297c565b612b73915060203d81116113ab5761139c8183613baa565b38612b52565b87513d8a823e3d90fd5b9291503461152c57602036600319011261152c57612b9f613748565b8380526005602052828420338552602052612bbf60ff8486205416613ea5565b6001600160a01b0316803b15611527578391835180958193636ef8d66d60e01b83525af190811561151e5750611515575080f35b50503461062857602036600319011261062857612c1360ff6115a8613748565b60018060a01b03166001600160601b0360a01b600854161760085580f35b50503461062857816003193601126106285760095490516001600160a01b039091168152602090f35b828434610e3f57612c6a3661379f565b929160018060a01b0395612c8387600754163314614032565b86821696878552602097600e8952612ca18289882054161515613fcf565b612cab8585615165565b612da5575b600d5488516340c10f1960e01b8082526001600160a01b03909616858201908152602081018a905290918b91839186169082908b90829060400103925af1801561101d57918a96959493918893612d88575b508252600e86528882205489519485526001600160a01b0390951692840192835260208301979097529195869316918391829060400103925af1908115612d7d5750612d5057505160018152f35b612d6f90833d8511612d76575b612d678183613baa565b8101906140c3565b5082611d84565b503d612d5d565b8351903d90823e3d90fd5b612d9e90883d8a11612d7657612d678183613baa565b508b612d02565b808652600e8952602489838a892054168a51928380926370a0823160e01b8252878b16898301525afa90811561101d579088918891612df2575b50612ded916109d491613e71565b612cb0565b8092508b8092503d8311612e1e575b612e0b8183613baa565b8101031261101257518790612ded612ddf565b503d612e01565b828434610e3f576020366003190112610e3f5750610e3860209235614ca6565b9050346106245782600319360112610624577ffcb9fcbfa83b897fb2d5cf4b58962164105c1e71489a37ef3ae0db3fdce576f683526005602052818320338452602052612e9760ff8385205416613f1c565b601f549060ff821615612edd57504360135560ff1916601f55513381527f5db9ee0a495bf2e6ff9c91a7834c1ba4fdd244a5e8aa4e537bd38aeae4b073aa90602090a180f35b606490602084519162461bcd60e51b8352820152601460248201527314185d5cd8589b194e881b9bdd081c185d5cd95960621b6044820152fd5b50503461062857816003193601126106285760085490516001600160a01b039091168152602090f35b505034610628576020908160031936011261062457612f5d613748565b90612f6a610588336137d4565b60008051602061589983398151915292838552600581526105b360018387200154613811565b9291503461152c57602036600319011261152c57612fac613748565b8380526005602052828420338552602052612fcc60ff8486205416613ea5565b6001600160a01b0316803b156115275783918351809581936338a80c5360e11b83525af190811561151e5750611515575080f35b505034610628578160031936011261062857602090517ffcb9fcbfa83b897fb2d5cf4b58962164105c1e71489a37ef3ae0db3fdce576f68152f35b83915034610628578260031936011261062857613056613763565b90336001600160a01b038316036130725790610baa9135613e17565b608490602085519162461bcd60e51b8352820152602f60248201527f416363657373436f6e74726f6c3a2063616e206f6e6c792072656e6f756e636560448201526e103937b632b9903337b91039b2b63360891b6064820152fd5b919050346106245780600319360112610624576130e8613748565b908360249384359467ffffffffffffffff91828711610c615736602388011215610c615786810135928311610c61576005368385831b8a010111610975578480989498528060205285852033865260205261314860ff8787205416613ea5565b6001600160a01b0396871693855b898110613161578680f35b8481841b8301013589811680910361099257803b15610992578851634c1d96ab60e11b81528581018890528881888183865af1801561322d57613237575b50803b15610992578851639865027560e01b81528881878183865af1801561322d5761321e575b50803b1561099257878091878b518094819363f2fde38b60e01b83528c8b8401525af1801561321457906132009291613205575b50613fc0565b613156565b61320e90613b80565b386131fa565b89513d8a823e3d90fd5b61322790613b80565b386131c6565b8a513d8b823e3d90fd5b61324090613b80565b3861319f565b5050346106285781600319360112610628576020906012549051908152f35b5050346106285781600319360112610628576020906022549051908152f35b8334610e3f576020366003190112610e3f57610baa6132a1613748565b6132ad610588336137d4565b613dba565b90503461062457816003193601126106245735906132ce613763565b9082845260056020526132e660018286200154613811565b828452600560209081528185206001600160a01b039093168086529290528084205460ff1615613314578380f35b82845260056020528084208285526020528320600160ff1982541617905533916000805160206158398339815191528480a43880808380f35b50503461062857602036600319011261062857602090610e3861336e613748565b61460b565b919050346106245760203660031901126106245760ff6133a791848052600560205280852033865260205284205416613ea5565b3560165580f35b8334610e3f5780600319360112610e3f57610baa33613d5d565b8334610e3f5780600319360112610e3f57610baa33613cbb565b505034610628578160031936011261062857602090601d549051908152f35b5050346106285760203660031901126106285760ff81602093613422613748565b818052600586528282206001600160a01b039091168252855220549151911615158152f35b9050346106245760203660031901126106245781602093600192358152600585522001549051908152f35b505034610628578160031936011261062857602090610e3861572a565b9050346106245760209283600319360112610e3f5780846001600160a01b036134b6613748565b1684865180948193633b253c2b60e11b83525af1918215610f91579161351f575b50156134e557505160018152f35b82606492519162461bcd60e51b835282015260166024820152756661696c20757064617465536569676e696f7261676560501b6044820152fd5b6135369150843d8611612d7657612d678183613baa565b386134d7565b5050346106285781600319360112610628576020906013549051908152f35b8334610e3f576020366003190112610e3f57610baa613578613748565b613584610588336137d4565b613bcc565b9050346106245760209182600319360112610c61576135a6613748565b916135b0336137d4565b801561361c575b156135e35750600080516020615899833981519152928385526005815261182360018387200154613811565b83606492519162461bcd60e51b835282015260156024820152743737ba1037b7363ca6b4b73a32b927b920b236b4b760591b6044820152fd5b50600080516020615859833981519152855260058452818520338652845260ff82862054166135b7565b905034610624576020366003190112610624577f1140c1f14579543e61b599f8f43d0112d66ec1462431e56c97c27b47446a38ac91602091359084805260058352808520338652835261369e60ff8287205416613ea5565b6136bc676765c793fa10079d601b1b61074a61074185601b54613e71565b81601c5551908152a180f35b84918434610c61576020366003190112610c615781359063ffffffff60e01b821680920361097557602094637965db0b60e01b831493841561370f575b5050505015158152f35b6301ffc9a760e01b8414945091929091908415613734575b5050505083808080613705565b60ff94508252855220541683808080613727565b600435906001600160a01b038216820361375e57565b600080fd5b602435906001600160a01b038216820361375e57565b3461375e57600036600319011261375e576020604051676765c793fa10079d601b1b8152f35b606090600319011261375e576001600160a01b0390600435828116810361375e5791602435908116810361375e579060443590565b6001600160a01b031660009081527f05b8ccbb9d4d8fb16ea74ce3c29a41f1b461fbdaff4714a0d9a8eb05499746bc602052604090205460ff1690565b60009080825260209060058252604090818420338552835260ff82852054161561383b5750505050565b81519367ffffffffffffffff336060870182811188821017613b49578552602a87528587019385368637875115613b355760308553875191600192831015613b2157607860218a015360295b838111613ab75750613a755790855192608084019084821090821117613a6157865260428352868301936060368637835115613a4d57603085538351821015613a4d5790607860218501536041915b8183116139df5750505061399d579261396b604861395c979461398f946044989785519a8b936139338b86019a7f416363657373436f6e74726f6c3a206163636f756e74200000000000000000008c525180926037880190613b5d565b8401917001034b99036b4b9b9b4b733903937b6329607d1b603784015251809386840190613b5d565b01036028810189520187613baa565b5194859362461bcd60e51b8552600485015251809281602486015285850190613b5d565b601f01601f19168101030190fd5b60648585519062461bcd60e51b825280600483015260248201527f537472696e67733a20686578206c656e67746820696e73756666696369656e746044820152fd5b909192600f81166010811015613a39576f181899199a1a9b1b9c1cb0b131b232b360811b901a613a0f8587613e7e565b5360041c928015613a25576000190191906138d6565b634e487b7160e01b82526011600452602482fd5b634e487b7160e01b83526032600452602483fd5b634e487b7160e01b81526032600452602490fd5b634e487b7160e01b85526041600452602485fd5b60648787519062461bcd60e51b825280600483015260248201527f537472696e67733a20686578206c656e67746820696e73756666696369656e746044820152fd5b90600f81166010811015613b0d576f181899199a1a9b1b9c1cb0b131b232b360811b901a613ae5838c613e7e565b5360041c908015613af95760001901613887565b634e487b7160e01b86526011600452602486fd5b634e487b7160e01b87526032600452602487fd5b634e487b7160e01b85526032600452602485fd5b634e487b7160e01b84526032600452602484fd5b634e487b7160e01b84526041600452602484fd5b60005b838110613b705750506000910152565b8181015183820152602001613b60565b67ffffffffffffffff8111613b9457604052565b634e487b7160e01b600052604160045260246000fd5b90601f8019910116810190811067ffffffffffffffff821117613b9457604052565b6001600160a01b0316338103613c5e5760008181527f05b8ccbb9d4d8fb16ea74ce3c29a41f1b461fbdaff4714a0d9a8eb05499746bc602052604081205490919060ff16613c18575050565b8180526005602052604082208183526020526040822060ff19815416905533917ff6391f5c32d9c69d2a47ea670b442974b53935d1edc7fd64eb21e047a839171b8180a4565b60405162461bcd60e51b815260206004820152602f60248201527f416363657373436f6e74726f6c3a2063616e206f6e6c792072656e6f756e636560448201526e103937b632b9903337b91039b2b63360891b6064820152608490fd5b6001600160a01b0316338103613c5e5760008181527fedec71783a10810e436f3392a073a61717130e573433fcc6591c3061a012f76760205260408120549091906000805160206158998339815191529060ff16613d1857505050565b8083526005602052604083208284526020526040832060ff1981541690557ff6391f5c32d9c69d2a47ea670b442974b53935d1edc7fd64eb21e047a839171b339380a4565b6001600160a01b0316338103613c5e5760008181527f02634a7c777b8129955fe1824eee49ef19dfa96f2f4cb63212492c3d84eb58e660205260408120549091906000805160206158798339815191529060ff16613d1857505050565b6001600160a01b0316338103613c5e5760008181527fca0a2f641ec05ca23127d994cf03ffc453db616acae0b86cb56bb95304d0685460205260408120549091906000805160206158598339815191529060ff16613d1857505050565b906000918083526005602052604083209160018060a01b03169182845260205260ff604084205416613d1857505050565b81810292918115918404141715613e5b57565b634e487b7160e01b600052601160045260246000fd5b91908201809211613e5b57565b908151811015613e8f570160200190565b634e487b7160e01b600052603260045260246000fd5b15613eac57565b60405162461bcd60e51b815260206004820152602360248201527f41757468436f6e74726f6c3a2043616c6c6572206973206e6f7420616e20616460448201526236b4b760e91b6064820152608490fd5b9081602091031261375e57516001600160a01b038116810361375e5790565b15613f2357565b60405162461bcd60e51b815260206004820152602360248201527f41757468436f6e74726f6c3a2043616c6c6572206973206e6f7420612070617560448201526239b2b960e91b6064820152608490fd5b15613f7b57565b60405162461bcd60e51b815260206004820152601960248201527f657863656564656420736569676e696f726167652072617465000000000000006044820152606490fd5b6000198114613e5b5760010190565b15613fd657565b60405162461bcd60e51b815260206004820152602e60248201527f536569674d616e616765723a20636f696e61676520686173206e6f742062656560448201526d1b8819195c1b1bde5959081e595d60921b6064820152608490fd5b1561403957565b60405162461bcd60e51b81526020600482015260166024820152753737ba1037b7363ca232b837b9b4ba26b0b730b3b2b960511b6044820152606490fd5b1561407e57565b60405162461bcd60e51b815260206004820152601a60248201527f6d696e696d756d20616d6f756e742069732072657175697265640000000000006044820152606490fd5b9081602091031261375e5751801515810361375e5790565b91908203918211613e5b57565b600060ff601f5416614605576011544311156145c0576141073361460b565b601a541161457b57338152600e60209081526040808320546001600160a01b0392908316916141346151bf565b50338552600f825280852043905580516318160ddd60e01b81529360049280868581885afa958615614571578796614542575b5060248183600d54168551928380926370a0823160e01b8252338a8301525afa90811561434a578891614515575b50808710156144e457866141a8916140db565b9183519463570ca73560e01b865282868281335afa9586156144da5789966144bb575b503389526015835260ff858a205416966141e98789878c8533614f40565b9790988751630a9ee07f60e31b815286818681875afa908115614475578c8e928d8a93859261447f575b5061423661423161423c9493676765c793fa10079d601b1b936149df565b614983565b04614a52565b60248b518094819363817e9d3160e01b83528a830152885af1801561447557889492889694928c92614458575b5081614354575b5050600b546007548a516340c10f1960e01b81529088166001600160a01b031694810194855260208501959095529395869416928492508d915082906040015b03925af1801561434a579160a0979593917f9f0aff7defc0f0b331d66bccf1955a699b40155565289317e38b9799ddf094489997959361432d575b508251967f521cc65179761533a7c8d7a973291dd7baebb99a67edf5ef78e9c2b61a533d95339180a233875286015284015260608301526080820152a1600190565b61434390823d8411612d7657612d678183613baa565b50386142eb565b84513d8a823e3d90fd5b93959294509092156143e8575050813b156143e457865163079cc67960e41b81526001600160a01b039091168382019081526020810189905290918b9183919082908490829060400103925af180156143da576143bf575b50836142b09284925b9093388981614270565b6142b09284929a6143d08793613b80565b9a925092506143ac565b86513d8c823e3d90fd5b8a80fd5b88516340c10f1960e01b81526001600160a01b0390931685840190815260208101919091529192909183919082908e90829060400103925af180156143da5792849286926142b09561443b575b506143b5565b61445190853d8711612d7657612d678183613baa565b5038614435565b61446e90883d8a11612d7657612d678183613baa565b5038614269565b89513d8f823e3d90fd5b945050505081813d83116144b4575b6144988183613baa565b810103126144b057518c9087908d908d614236614213565b8c80fd5b503d61448e565b6144d3919650833d85116113ab5761139c8183613baa565b94386141cb565b85513d8b823e3d90fd5b505050505050507f521cc65179761533a7c8d7a973291dd7baebb99a67edf5ef78e9c2b61a533d95339180a2600190565b90508181813d831161453b575b61452c8183613baa565b81010312610992575138614195565b503d614522565b9080965081813d831161456a575b61455a8183613baa565b8101031261101257519438614167565b503d614550565b83513d89823e3d90fd5b60405162461bcd60e51b815260206004820152601d60248201527f6d696e696d756d416d6f756e7420697320696e73756666696369656e740000006044820152606490fd5b60405162461bcd60e51b815260206004820152601b60248201527f6c617374207365696720626c6f636b206973206e6f74207061737400000000006044820152606490fd5b50600190565b60405163570ca73560e01b8152906020908183600481335afa9283156146b0576000936146bc575b506001600160a01b039081166000908152600e83526040908190205490516370a0823160e01b81529382166004850152829184916024918391165afa9081156146b057600091614684575b50905090565b82813d83116146a9575b6146988183613baa565b81010312610e3f575051803861467e565b503d61468e565b6040513d6000823e3d90fd5b829193506146d690823d84116113ab5761139c8183613baa565b9290614633565b6001600160a01b039081166000818152600e60209081526040808320548151630a9ee07f60e31b81529397969195919391908116908383600481855afa92831561495957899361492a575b5086516318160ddd60e01b8152948486600481865afa958615614920578a966148ed575b5081600d541695885186816024816370a0823160e01b9b8c82528d60048301525afa908c82156148e2579285928992899695916148aa575b50906147a491614236614231676765c793fa10079d601b1b9889936149df565b9260248c51809481938d835216988960048301525afa9081156148a057908795949392918d91614867575b506147ea916147e5602496979861423193614a52565b6149df565b04968a52600e8452878a2054169487519586938492835260048301525afa93841561485e57508593614827575b50506148249293506140db565b90565b9080929350813d8311614857575b61483f8183613baa565b81010312610c61576148249293505190839238614817565b503d614835565b513d87823e3d90fd5b868193969792503d8311614899575b6148808183613baa565b810103126148955751869493906147ea6147cf565b8b80fd5b503d614876565b8a513d8e823e3d90fd5b935050935081813d83116148db575b6148c38183613baa565b8101031261489557866147a487948693519091614784565b503d6148b9565b8b51903d90823e3d90fd5b9095508481813d8311614919575b6149058183613baa565b810103126149155751943861474c565b8980fd5b503d6148fb565b88513d8c823e3d90fd5b9092508381813d8311614952575b6149428183613baa565b8101031261249057519138614728565b503d614938565b87513d8b823e3d90fd5b811561496d570490565b634e487b7160e01b600052601260045260246000fd5b906b019d971e4fe8401e74000000820191828111613e5b5782106149a357565b60405162461bcd60e51b815260206004820152601460248201527364732d6d6174682d6164642d6f766572666c6f7760601b6044820152606490fd5b600092918015918215614a32575b5050156149f657565b60405162461bcd60e51b815260206004820152601460248201527364732d6d6174682d6d756c2d6f766572666c6f7760601b6044820152606490fd5b91509250614a4a614a438483613e48565b9384614963565b1438806149ed565b90676765c793fa10079d601b1b9182810292818404811482151715613e5b578304036149f657614a858160011c83613e71565b9182106149a35761482491614963565b600d546040516318160ddd60e01b815290602090829060049082906001600160a01b03165afa9081156146b057600091614acd575090565b906020823d8211614af3575b81614ae660209383613baa565b81010312610e3f57505190565b3d9150614ad9565b600d54604051630981b24d60e41b81526004810192909252602090829060249082906001600160a01b03165afa9081156146b057600091614acd575090565b60065460408051630d42d49760e01b81526000939290919060049085906020906001600160a01b0390811682878681845afa968715614c9c578497614c6d575b5095949392919082965b868810614b95575050505050505050565b9091929394959698865163b7ffb17960e01b81528a878201528481602481865afa908115614c46579084918791614c50575b50168552600e845285848489882054168951928380926318160ddd60e01b82525afa908115614c46578691614c17575b50614c0590614c0b92613e71565b99613fc0565b96959493929190614b84565b90508481813d8311614c3f575b614c2e8183613baa565b81010312610a125751614c0b614bf7565b503d614c24565b88513d88823e3d90fd5b614c679150863d88116113ab5761139c8183613baa565b38614bc7565b9096508281813d8311614c95575b614c858183613baa565b81010312610c6157519538614b7a565b503d614c7b565b86513d86823e3d90fd5b60065460408051630d42d49760e01b81526000949290919060049086906020906001600160a01b0390811682878681845afa968715614c9c578497614dd7575b50969795949392919082975b868910614d0457505050505050505050565b90919293949596989799865163b7ffb17960e01b81528b8782015260249085818381875afa90811561101d579085918891614dba575b50168652600e8552848b858a89205416928a5180948193630981b24d60e41b83528c8301525afa908115614c46578691614d8b575b5061245590614d7d92613e71565b979896959493929190614cf2565b90508481813d8311614db3575b614da28183613baa565b81010312610a125751614d7d614d6f565b503d614d98565b614dd19150873d89116113ab5761139c8183613baa565b38614d3a565b9096508281813d8311614dff575b614def8183613baa565b81010312610c6157519538614ce6565b503d614de5565b60049060018060a01b03809116600090808252602092600e84528381604085205416604051968780926318160ddd60e01b82525afa948515614f35578395614f06575b508390600d5416916024604051809481936370a0823160e01b835260048301525afa928315614efb578293614ecb575b50508183101580614eb1575b614eaa5750614236614231614824946147e585676765c793fa10079d601b1b956140db565b9250505090565b50670de0b6b3a7640000614ec583856140db565b10614e85565b9080929350813d8311614ef4575b614ee38183613baa565b810103126106285751903880614e79565b503d614ed9565b6040513d84823e3d90fd5b9094508381813d8311614f2e575b614f1e8183613baa565b8101031261062457519383614e49565b503d614f14565b6040513d85823e3d90fd5b95939491959290926000809460018060a01b0380931686526020601781526040938488205480431015908161515b575b50615117575b338852601482528488205496614f8c878d613e71565b9a881561510757156150d7578b156150c85785516370a0823160e01b8152908216600482015292829184916024918391165afa9384156150bf5750869361508f575b505081156150865750614231614fea6142319861500c93614a52565b938493615006676765c793fa10079d601b1b9a8b9687936149df565b046149df565b0485821495866000146150525761503194959682945b50156150355750905093613e71565b9190565b61504561423161504c94866149df565b0490613e71565b93613e71565b828103968188116150725761506c61503196979884614a52565b94615022565b634e487b7160e01b85526011600452602485fd5b95965050505050565b9080929350813d83116150b8575b6150a78183613baa565b810103126109755751903880614fce565b503d61509d565b513d88823e3d90fd5b50505050965050505050909190565b50505050505061503193949550676765c793fa10079d601b1b92506150ff91614231916149df565b0480936140db565b5050505050505050509250909190565b601882528488205460148352858920556019825261514d60ff868a20541660158452868a209060ff801983541691151516179055565b601782528785812055614f76565b9050151538614f70565b60405163570ca73560e01b81526001600160a01b03916020908290600490829086165afa80156146b05782916000916151a1575b501691161490565b6151b9915060203d81116113ab5761139c8183613baa565b38615199565b600060115443111561482457600d54604080516318160ddd60e01b8082526001600160a01b039384169490936004939092602090818187818b5afa9081156156ab5784916156c6575b50156156b857815195808752818787818b5afa9687156156ab57849761567c575b5061523e6152356156f3565b60105490613e48565b9761524761572a565b97845183815284818a81865afa90811561567257918a93918c9695938991615638575b50676765c793fa10079d601b1b9b8c61528481938a6149df565b61528d90614983565b049061529891614a52565b96876152a3916140db565b601d546152af916149df565b6152b890614983565b0493846152c58884613e71565b906152cf91613e71565b436011558851630a9ee07f60e31b815290939087818e81855afa90811561562e57848f8f92938b948f916155e8575b5091615313916142366142316024958c6149df565b918d8d51958694859363817e9d3160e01b85528401525af180156155de576155c1575b50858a600d5416948c8a518097819382525afa9384156155b7578994615587575b508751938452858401528287015260608201527f41a79a497d1457df24c25ab99f22349ae9aef4468429f0a781216e8dcf80c62890608090a161539a838a6140db565b9480968198829a8260085416806154b9575b5082600954169081615423575b5050505050601d5461540c575b5082519788528701528501526060840152608083015260a08201527fa1c52db210d9232b95c07d81e0aca3d25829b70963d3c458843f9d63d1ccb99460c03392a2600190565b965061541a87601e54613e71565b601e55386153c6565b849b5091615477949391879361543f6142318d601c54906149df565b049c8d93600b5416928b51978895869485936340c10f1960e01b8552840160209093929193604081019460018060a01b031681520152565b03925af19081156154ae5750615491575b808080806153b9565b6154a790833d8511612d7657612d678183613baa565b5038615488565b8651903d90823e3d90fd5b995061550986826154d06142318d601b54906149df565b04809c86600b541690888d518096819582946340c10f1960e01b84528b840160209093929193604081019460018060a01b031681520152565b03925af180156155605761556a575b508260085416803b156109755784809160248d8c51948593849263027aa37b60e01b8452898401525af1801561556057156153ac5761555990949194613b80565b92386153ac565b89513d87823e3d90fd5b61558090873d8911612d7657612d678183613baa565b5038615518565b9093508581813d83116155b0575b61559f8183613baa565b810103126124905751926080615357565b503d615595565b88513d8b823e3d90fd5b6155d790873d8911612d7657612d678183613baa565b5038615336565b89513d8c823e3d90fd5b94935050505081813d8311615627575b6156028183613baa565b810103126143e4578c60248f86615313916142366142318e97519395505050916152fe565b503d6155f8565b8a513d8d823e3d90fd5b92945050919380955081813d831161566b575b6156558183613baa565b8101031261101257918a9493918a93513861526a565b503d61564b565b86513d89823e3d90fd5b9096508181813d83116156a4575b6156948183613baa565b81010312610c6157519538615229565b503d61568a565b50505051903d90823e3d90fd5b505093505050504360115590565b90508181813d83116156ec575b6156dd8183613baa565b81010312610c61575138615208565b503d6156d3565b60ff601f541661375e5760115461570a81436140db565b906013549081106157265790610e3261482492601254906140db565b5090565b602154806158305750602462a55ec25b6022548061582757506157876e09a130b963a6c115c3c7f4000000005b6023548061581d575061136f6d08c815d5bcc20177de3b5d250000935b61578160105491436140db565b90613e48565b600a546040516370a0823160e01b8152600160048201529360209185919082906001600160a01b03165afa9283156146b0576000936157ea575b50633b9aca0092838102938185041490151715613e5b57614824926157e5916140db565b6140db565b90926020823d8211615815575b8161580460209383613baa565b81010312610e3f57505191386157c1565b3d91506157f7565b61136f9093615774565b61578790615757565b60249061573a56fe2f8788117e7eff1d82e926ec794901d17c78024a50270940304540a733656f0df0887ba65ee2024ea881d91b74c2450ef19e1557f03bed3ea9f16b037cbe2dc9523a704056dcd17bcf83bed8b68c59416dac1119be77755efe3bde0a64e46e0cbf02bad7114723a857a3af46cea17b778a3a951c96f183784d9a2448cc479ab6a164736f6c6343000813000a",
  "linkReferences": {},
  "deployedLinkReferences": {}
}