{
  "_format": "hh-sol-artifact-1",
  "contractName": "DepositManagerStorage",
  "sourceName": "contracts/stake/managers/DepositManagerStorage.sol",
  "abi": [
    {
      "inputs": [],
      "name": "globalWithdrawalDelay",
      "outputs": [
        {
          "internalType": "uint256",
          "name": "",
          "type": "uint256"
        }
      ],
      "stateMutability": "view",
      "type": "function"
    },
    {
      "inputs": [],
      "name": "oldDepositManager",
      "outputs": [
        {
          "internalType": "address",
          "name": "",
          "type": "address"
        }
      ],
      "stateMutability": "view",
      "type": "function"
    },
    {
      "inputs": [
        {
          "internalType": "address",
          "name": "",
          "type": "address"
        }
      ],
      "name": "withdrawalDelay",
      "outputs": [
        {
          "internalType": "uint256",
          "name": "",
          "type": "uint256"
        }
      ],
      "stateMutability": "view",
      "type": "function"
    }
  ],
  "bytecode": "0x608080604052346100155760ca908161001b8239f35b600080fdfe6080806040526004361015601257600080fd5b600090813560e01c9081632153c23914609a575080634ce9703614605c57636ec3d5ae14603e57600080fd5b34605957806003193601126059576020600f54604051908152f35b80fd5b503460595760203660031901126059576004356001600160a01b038116908190036096578160409160209352601083522054604051908152f35b5080fd5b905034609657816003193601126096576003546001600160a01b03168152602090f3fea164736f6c6343000812000a",
  "linkReferences": {},
  "deployedLinkReferences": {}
}