{
  "_format": "hh-sol-artifact-1",
  "contractName": "DepositManagerStorage",
  "sourceName": "contracts/stake/managers/DepositManagerStorage.sol",
  "abi": [
    {
      "inputs": [],
      "name": "globalWithdrawalDelay",
      "outputs": [
        {
          "internalType": "uint256",
          "name": "",
          "type": "uint256"
        }
      ],
      "stateMutability": "view",
      "type": "function"
    },
    {
      "inputs": [],
      "name": "oldDepositManager",
      "outputs": [
        {
          "internalType": "address",
          "name": "",
          "type": "address"
        }
      ],
      "stateMutability": "view",
      "type": "function"
    },
    {
      "inputs": [
        {
          "internalType": "address",
          "name": "",
          "type": "address"
        }
      ],
      "name": "withdrawalDelay",
      "outputs": [
        {
          "internalType": "uint256",
          "name": "",
          "type": "uint256"
        }
      ],
      "stateMutability": "view",
      "type": "function"
    }
  ],
  "bytecode": "0x608060405234801561001057600080fd5b5060dd8061001f6000396000f3fe6080604052348015600f57600080fd5b5060043610603c5760003560e01c80632153c2391460415780634ce970361460705780636ec3d5ae14609a575b600080fd5b6003546053906001600160a01b031681565b6040516001600160a01b0390911681526020015b60405180910390f35b608d607b36600460a2565b60106020526000908152604090205481565b6040519081526020016067565b608d600f5481565b60006020828403121560b357600080fd5b81356001600160a01b038116811460c957600080fd5b939250505056fea164736f6c6343000813000a",
  "linkReferences": {},
  "deployedLinkReferences": {}
}