{
  "_format": "hh-sol-artifact-1",
  "contractName": "L2DividendPoolForTonStorage",
  "sourceName": "contracts/L2/airdrop/L2DividendPoolForTonStorage.sol",
  "abi": [
    {
      "inputs": [
        {
          "internalType": "uint256",
          "name": "",
          "type": "uint256"
        }
      ],
      "name": "distributedTokens",
      "outputs": [
        {
          "internalType": "address",
          "name": "",
          "type": "address"
        }
      ],
      "stateMutability": "view",
      "type": "function"
    },
    {
      "inputs": [
        {
          "internalType": "address",
          "name": "",
          "type": "address"
        }
      ],
      "name": "distributions",
      "outputs": [
        {
          "internalType": "bool",
          "name": "exists",
          "type": "bool"
        },
        {
          "internalType": "uint256",
          "name": "totalDistribution",
          "type": "uint256"
        },
        {
          "internalType": "uint256",
          "name": "lastBalance",
          "type": "uint256"
        }
      ],
      "stateMutability": "view",
      "type": "function"
    },
    {
      "inputs": [],
      "name": "l2SeigManager",
      "outputs": [
        {
          "internalType": "address",
          "name": "",
          "type": "address"
        }
      ],
      "stateMutability": "view",
      "type": "function"
    },
    {
      "inputs": [
        {
          "internalType": "address",
          "name": "",
          "type": "address"
        },
        {
          "internalType": "uint256",
          "name": "",
          "type": "uint256"
        }
      ],
      "name": "snapshotIds",
      "outputs": [
        {
          "internalType": "uint256",
          "name": "",
          "type": "uint256"
        }
      ],
      "stateMutability": "view",
      "type": "function"
    }
  ],
  "bytecode": "0x608060405234801561001057600080fd5b506101ef806100206000396000f3fe608060405234801561001057600080fd5b506004361061004c5760003560e01c80632d4316c41461005157806337a155031461007757806353cd4eac146100a25780639353b9df146100b5575b600080fd5b61006461005f36600461017d565b610106565b6040519081526020015b60405180910390f35b61008a6100853660046101a7565b610137565b6040516001600160a01b03909116815260200161006e565b60005461008a906001600160a01b031681565b6100e96100c33660046101c0565b600160208190526000918252604090912080549181015460029091015460ff9092169183565b60408051931515845260208401929092529082015260600161006e565b6004602052816000526040600020818154811061012257600080fd5b90600052602060002001600091509150505481565b6005818154811061014757600080fd5b6000918252602090912001546001600160a01b0316905081565b80356001600160a01b038116811461017857600080fd5b919050565b6000806040838503121561019057600080fd5b61019983610161565b946020939093013593505050565b6000602082840312156101b957600080fd5b5035919050565b6000602082840312156101d257600080fd5b6101db82610161565b939250505056fea164736f6c6343000813000a",
  "linkReferences": {},
  "deployedLinkReferences": {}
}