{
  "_format": "hh-sol-artifact-1",
  "contractName": "DepositManagerV1_1",
  "sourceName": "contracts/stake/managers/DepositManagerV1_1.sol",
  "abi": [
    {
      "inputs": [
        {
          "internalType": "uint256",
          "name": "x",
          "type": "uint256"
        }
      ],
      "name": "CheckL1BridgeError",
      "type": "error"
    },
    {
      "inputs": [],
      "name": "OperatorError",
      "type": "error"
    },
    {
      "inputs": [],
      "name": "SwapTonTransferError",
      "type": "error"
    },
    {
      "inputs": [],
      "name": "WithdrawError",
      "type": "error"
    },
    {
      "inputs": [],
      "name": "ZeroValueError",
      "type": "error"
    },
    {
      "anonymous": false,
      "inputs": [
        {
          "indexed": false,
          "internalType": "address",
          "name": "l1Bridge",
          "type": "address"
        },
        {
          "indexed": false,
          "internalType": "address",
          "name": "l1Ton",
          "type": "address"
        },
        {
          "indexed": false,
          "internalType": "address",
          "name": "l2Ton",
          "type": "address"
        },
        {
          "indexed": false,
          "internalType": "address",
          "name": "caller",
          "type": "address"
        },
        {
          "indexed": false,
          "internalType": "uint256",
          "name": "tonAmount",
          "type": "uint256"
        },
        {
          "indexed": false,
          "internalType": "uint32",
          "name": "minDepositGasLimit",
          "type": "uint32"
        }
      ],
      "name": "DepositedERC20To",
      "type": "event"
    },
    {
      "anonymous": false,
      "inputs": [
        {
          "indexed": true,
          "internalType": "bytes32",
          "name": "role",
          "type": "bytes32"
        },
        {
          "indexed": true,
          "internalType": "bytes32",
          "name": "previousAdminRole",
          "type": "bytes32"
        },
        {
          "indexed": true,
          "internalType": "bytes32",
          "name": "newAdminRole",
          "type": "bytes32"
        }
      ],
      "name": "RoleAdminChanged",
      "type": "event"
    },
    {
      "anonymous": false,
      "inputs": [
        {
          "indexed": true,
          "internalType": "bytes32",
          "name": "role",
          "type": "bytes32"
        },
        {
          "indexed": true,
          "internalType": "address",
          "name": "account",
          "type": "address"
        },
        {
          "indexed": true,
          "internalType": "address",
          "name": "sender",
          "type": "address"
        }
      ],
      "name": "RoleGranted",
      "type": "event"
    },
    {
      "anonymous": false,
      "inputs": [
        {
          "indexed": true,
          "internalType": "bytes32",
          "name": "role",
          "type": "bytes32"
        },
        {
          "indexed": true,
          "internalType": "address",
          "name": "account",
          "type": "address"
        },
        {
          "indexed": true,
          "internalType": "address",
          "name": "sender",
          "type": "address"
        }
      ],
      "name": "RoleRevoked",
      "type": "event"
    },
    {
      "anonymous": false,
      "inputs": [
        {
          "indexed": false,
          "internalType": "address",
          "name": "l1BridgeRegistry_",
          "type": "address"
        },
        {
          "indexed": false,
          "internalType": "address",
          "name": "layer2Manager_",
          "type": "address"
        }
      ],
      "name": "SetAddresses",
      "type": "event"
    },
    {
      "anonymous": false,
      "inputs": [
        {
          "indexed": false,
          "internalType": "uint32",
          "name": "gasLimit_",
          "type": "uint32"
        }
      ],
      "name": "SetMinDepositGasLimit",
      "type": "event"
    },
    {
      "anonymous": false,
      "inputs": [
        {
          "indexed": true,
          "internalType": "address",
          "name": "layer2",
          "type": "address"
        },
        {
          "indexed": false,
          "internalType": "address",
          "name": "account",
          "type": "address"
        },
        {
          "indexed": false,
          "internalType": "uint256",
          "name": "amount",
          "type": "uint256"
        }
      ],
      "name": "WithdrawalAndDeposited",
      "type": "event"
    },
    {
      "inputs": [],
      "name": "DEFAULT_ADMIN_ROLE",
      "outputs": [
        {
          "internalType": "bytes32",
          "name": "",
          "type": "bytes32"
        }
      ],
      "stateMutability": "view",
      "type": "function"
    },
    {
      "inputs": [],
      "name": "MINTER_ROLE",
      "outputs": [
        {
          "internalType": "bytes32",
          "name": "",
          "type": "bytes32"
        }
      ],
      "stateMutability": "view",
      "type": "function"
    },
    {
      "inputs": [
        {
          "internalType": "address",
          "name": "account",
          "type": "address"
        }
      ],
      "name": "addAdmin",
      "outputs": [],
      "stateMutability": "nonpayable",
      "type": "function"
    },
    {
      "inputs": [
        {
          "internalType": "address",
          "name": "",
          "type": "address"
        }
      ],
      "name": "aliveImplementation",
      "outputs": [
        {
          "internalType": "bool",
          "name": "",
          "type": "bool"
        }
      ],
      "stateMutability": "view",
      "type": "function"
    },
    {
      "inputs": [
        {
          "internalType": "bytes32",
          "name": "role",
          "type": "bytes32"
        }
      ],
      "name": "getRoleAdmin",
      "outputs": [
        {
          "internalType": "bytes32",
          "name": "",
          "type": "bytes32"
        }
      ],
      "stateMutability": "view",
      "type": "function"
    },
    {
      "inputs": [],
      "name": "globalWithdrawalDelay",
      "outputs": [
        {
          "internalType": "uint256",
          "name": "",
          "type": "uint256"
        }
      ],
      "stateMutability": "view",
      "type": "function"
    },
    {
      "inputs": [
        {
          "internalType": "bytes32",
          "name": "role",
          "type": "bytes32"
        },
        {
          "internalType": "address",
          "name": "account",
          "type": "address"
        }
      ],
      "name": "grantRole",
      "outputs": [],
      "stateMutability": "nonpayable",
      "type": "function"
    },
    {
      "inputs": [
        {
          "internalType": "bytes32",
          "name": "role",
          "type": "bytes32"
        },
        {
          "internalType": "address",
          "name": "account",
          "type": "address"
        }
      ],
      "name": "hasRole",
      "outputs": [
        {
          "internalType": "bool",
          "name": "",
          "type": "bool"
        }
      ],
      "stateMutability": "view",
      "type": "function"
    },
    {
      "inputs": [
        {
          "internalType": "address",
          "name": "account",
          "type": "address"
        }
      ],
      "name": "isAdmin",
      "outputs": [
        {
          "internalType": "bool",
          "name": "",
          "type": "bool"
        }
      ],
      "stateMutability": "view",
      "type": "function"
    },
    {
      "inputs": [],
      "name": "isOwner",
      "outputs": [
        {
          "internalType": "bool",
          "name": "",
          "type": "bool"
        }
      ],
      "stateMutability": "view",
      "type": "function"
    },
    {
      "inputs": [],
      "name": "l1BridgeRegistry",
      "outputs": [
        {
          "internalType": "address",
          "name": "",
          "type": "address"
        }
      ],
      "stateMutability": "view",
      "type": "function"
    },
    {
      "inputs": [],
      "name": "layer2Manager",
      "outputs": [
        {
          "internalType": "address",
          "name": "",
          "type": "address"
        }
      ],
      "stateMutability": "view",
      "type": "function"
    },
    {
      "inputs": [],
      "name": "minDepositGasLimit",
      "outputs": [
        {
          "internalType": "uint32",
          "name": "",
          "type": "uint32"
        }
      ],
      "stateMutability": "view",
      "type": "function"
    },
    {
      "inputs": [],
      "name": "oldDepositManager",
      "outputs": [
        {
          "internalType": "address",
          "name": "",
          "type": "address"
        }
      ],
      "stateMutability": "view",
      "type": "function"
    },
    {
      "inputs": [],
      "name": "pauseProxy",
      "outputs": [
        {
          "internalType": "bool",
          "name": "",
          "type": "bool"
        }
      ],
      "stateMutability": "view",
      "type": "function"
    },
    {
      "inputs": [
        {
          "internalType": "uint256",
          "name": "",
          "type": "uint256"
        }
      ],
      "name": "proxyImplementation",
      "outputs": [
        {
          "internalType": "address",
          "name": "",
          "type": "address"
        }
      ],
      "stateMutability": "view",
      "type": "function"
    },
    {
      "inputs": [
        {
          "internalType": "address",
          "name": "account",
          "type": "address"
        }
      ],
      "name": "removeAdmin",
      "outputs": [],
      "stateMutability": "nonpayable",
      "type": "function"
    },
    {
      "inputs": [],
      "name": "renounceOwnership",
      "outputs": [],
      "stateMutability": "nonpayable",
      "type": "function"
    },
    {
      "inputs": [
        {
          "internalType": "bytes32",
          "name": "role",
          "type": "bytes32"
        },
        {
          "internalType": "address",
          "name": "account",
          "type": "address"
        }
      ],
      "name": "renounceRole",
      "outputs": [],
      "stateMutability": "nonpayable",
      "type": "function"
    },
    {
      "inputs": [
        {
          "internalType": "bytes32",
          "name": "role",
          "type": "bytes32"
        },
        {
          "internalType": "address",
          "name": "account",
          "type": "address"
        }
      ],
      "name": "revokeRole",
      "outputs": [],
      "stateMutability": "nonpayable",
      "type": "function"
    },
    {
      "inputs": [
        {
          "internalType": "bytes4",
          "name": "",
          "type": "bytes4"
        }
      ],
      "name": "selectorImplementation",
      "outputs": [
        {
          "internalType": "address",
          "name": "",
          "type": "address"
        }
      ],
      "stateMutability": "view",
      "type": "function"
    },
    {
      "inputs": [
        {
          "internalType": "address",
          "name": "_l1BridgeRegistry",
          "type": "address"
        },
        {
          "internalType": "address",
          "name": "_layer2Manager",
          "type": "address"
        }
      ],
      "name": "setAddresses",
      "outputs": [],
      "stateMutability": "nonpayable",
      "type": "function"
    },
    {
      "inputs": [
        {
          "internalType": "uint32",
          "name": "gasLimit_",
          "type": "uint32"
        }
      ],
      "name": "setMinDepositGasLimit",
      "outputs": [],
      "stateMutability": "nonpayable",
      "type": "function"
    },
    {
      "inputs": [
        {
          "internalType": "bytes4",
          "name": "interfaceId",
          "type": "bytes4"
        }
      ],
      "name": "supportsInterface",
      "outputs": [
        {
          "internalType": "bool",
          "name": "",
          "type": "bool"
        }
      ],
      "stateMutability": "view",
      "type": "function"
    },
    {
      "inputs": [],
      "name": "ton",
      "outputs": [
        {
          "internalType": "address",
          "name": "",
          "type": "address"
        }
      ],
      "stateMutability": "view",
      "type": "function"
    },
    {
      "inputs": [
        {
          "internalType": "address",
          "name": "newAdmin",
          "type": "address"
        }
      ],
      "name": "transferAdmin",
      "outputs": [],
      "stateMutability": "nonpayable",
      "type": "function"
    },
    {
      "inputs": [
        {
          "internalType": "address",
          "name": "newAdmin",
          "type": "address"
        }
      ],
      "name": "transferOwnership",
      "outputs": [],
      "stateMutability": "nonpayable",
      "type": "function"
    },
    {
      "inputs": [
        {
          "internalType": "address",
          "name": "layer2",
          "type": "address"
        },
        {
          "internalType": "uint256",
          "name": "amount",
          "type": "uint256"
        }
      ],
      "name": "withdrawAndDepositL2",
      "outputs": [
        {
          "internalType": "bool",
          "name": "",
          "type": "bool"
        }
      ],
      "stateMutability": "nonpayable",
      "type": "function"
    },
    {
      "inputs": [
        {
          "internalType": "address",
          "name": "",
          "type": "address"
        }
      ],
      "name": "withdrawalDelay",
      "outputs": [
        {
          "internalType": "uint256",
          "name": "",
          "type": "uint256"
        }
      ],
      "stateMutability": "view",
      "type": "function"
    }
  ],
  "bytecode": "0x6080806040523461001657611cb2908161001c8239f35b600080fdfe608080604052600436101561001357600080fd5b600090813560e01c90816301ffc9a7146115c45750806316b5d5bd1461159b5780631785f53c1461156d5780631c9283a3146114d75780632153c239146114ae578063248a9ca31461148157806324d7806c1461143a5780632f2ff15d1461139d57806336568abe1461130a5780634ce97036146112d157806350d2a2761461128c578063550d01a31461124d57806363a8fd891461122b5780636ec3d5ae1461120d5780637048027514611168578063715018a61461114257806375829def1461108b5780638f32d59b1461105757806390107afe14610faf57806391d1485414610f665780639f382d11146103f8578063a217fddf146103dc578063b911135f146103a9578063cc48b94714610380578063cf8f911014610357578063d53913931461031c578063d547741f146102de578063dd283f97146102b75763f2fde38b1461016057600080fd5b346102b4576020806003193601126102b05761017a61163d565b61018b61018633611669565b611b90565b61019761018633611669565b6001600160a01b031690811561026c5781331461022f57828052600581526101c560016040852001546116a6565b828052600581526040832082600052815260ff60406000205416156101f2575b826101ef33611a61565b80f35b82805260058152604083209082600052526040600020600160ff19825416179055339082600080516020611c868339815191528180a438806101e5565b6064906040519062461bcd60e51b82526004820152601660248201527520b1b1b2b9b9b4b136329d1039b0b6b29030b236b4b760511b6044820152fd5b6064906040519062461bcd60e51b82526004820152601860248201527f41636365737369626c653a207a65726f206164647265737300000000000000006044820152fd5b5080fd5b80fd5b50346102b457806003193601126102b457602063ffffffff60175460a01c16604051908152f35b50346102b45760403660031901126102b4576101ef6004356102fe611653565b90808452600560205261031760016040862001546116a6565b611af3565b50346102b457806003193601126102b45760206040517ff0887ba65ee2024ea881d91b74c2450ef19e1557f03bed3ea9f16b037cbe2dc98152f35b50346102b457806003193601126102b4576018546040516001600160a01b039091168152602090f35b50346102b457806003193601126102b4576017546040516001600160a01b039091168152602090f35b50346102b45760203660031901126102b457602090600435815260018252604060018060a01b0391205416604051908152f35b50346102b457806003193601126102b457602090604051908152f35b50346102b45760403660031901126102b45761041261163d565b9060195460ff8160a01c16610f3b5760ff60a01b1916600160a01b1760195560243515610f29576008546040516367265c3b60e11b81526001600160a01b0384811660048301523360248301529091169190602081604481865afa908115610ea7578291610ef7575b5060243511610eb25760405163570ca73560e01b81526020816004816001600160a01b0388165afa908115610ea7578291610e88575b506001600160a01b03811615610e7657803b15610e76576018546001600160a01b03811615610e07575b50604051906020820163632b03ad60e01b815260208352604083019267ffffffffffffffff9381811085821117610df35760405251849283929083905af13d15610dea573d918211610dd6576040519161053f601f8201601f191660200184611a3f565b82523d83602084013e5b15610dbd57610100928382805181010312610db95761056a60208301611c06565b9061057760408401611c13565b9061058460608501611c13565b9261059160808601611c13565b9461059e60a08201611c27565b916105c26105ae60c08401611c27565b996105bb60e08501611c06565b9301611c06565b9015610da0578115610d98575b50610d7f576001600160a01b03831615610d66576001600160a01b03851615610d2b5760ff169560018714159081610d1f575b8115610d10575b50610cf757846001600160a01b03851673deaddeaddeaddeaddeaddeaddeaddeaddead000014610cc6575084602062033450925b604051637c287fd560e11b81526001600160a01b038b1660048201523360248083019190915235604482015292839160649183915af1908115610c6f578691610c8c575b5015610c7a5760065460405163e3b99e8560e01b8152306004820152602480359082015290602090829060449082908a906001600160a01b03165af1908115610c6f578691610c35575b5015610c23576017546001600160a01b03811615610b9f575b50601754604051636eb1769f60e11b81523060048201526001600160a01b0384811660248301529091169490602081604481895afa9081156109a5578791610b6d575b50633b9aca00602435048110610ac6575b506001600160a01b03838116941680610abe575b506040516370a0823160e01b81526001600160a01b038516600482015296602088602481895afa9788156109a5578798610a85575b506001036109b0576001600160a01b0383163b156109a15760405163041c592960e51b81528681806107cb86633b9aca0060243504336001600160a01b0389168d60048701611c35565b0381836001600160a01b0389165af180156109a55790879161098d575b50506020939263ffffffff7fd5dfc92da7fa4cb007b31e1ebf08a3538ac91aeaece0306a778c0f8b31e3683b9360c0935b6040519360018060a01b03168452888885015260018060a01b03166040840152336060840152633b9aca006024350460808401521660a0820152a16040516370a0823160e01b81526001600160a01b03909116600482015291829060249082905afa918215610981579161094a575b50633b9aca0060243504820180921161093457036108f9576040805133815260243560208201526001600160a01b0392909216917f84442f855a972156de649c4743a803474c4e9129c0ada9c676256add8f9f82d29190a26019805460ff60a01b1916905560405160018152602090f35b60405162461bcd60e51b81526020600482015260136024820152726661696c206465706f7369744552433230546f60681b6044820152606490fd5b634e487b7160e01b600052601160045260246000fd5b90506020813d602011610979575b8161096560209383611a3f565b81010312610974575138610888565b600080fd5b3d9150610958565b604051903d90823e3d90fd5b61099690611a15565b6109a15785386107e8565b8580fd5b6040513d89823e3d90fd5b6001600160a01b0383163b156109a15760405163041c592960e51b81528681806109f286633b9aca0060243504336001600160a01b0389168d60048701611c35565b0381836001600160a01b0389165af180156109a557610a40575b506020939263ffffffff7fd5dfc92da7fa4cb007b31e1ebf08a3538ac91aeaece0306a778c0f8b31e3683b9360c093610819565b9263ffffffff7fd5dfc92da7fa4cb007b31e1ebf08a3538ac91aeaece0306a778c0f8b31e3683b9360c09398610a7860209897611a15565b9893509350509293610a0c565b9097506020813d602011610ab6575b81610aa160209383611a3f565b81010312610ab25751966001610781565b8680fd5b3d9150610a94565b93503861074c565b633b9aca006024350481810311610b5957604051633950935160e01b81526001600160a01b0385166004820152633b9aca00602480359190910492909203918101919091526020816044818a8a5af180156109a55715610738576020813d602011610b51575b81610b3960209383611a3f565b81010312610ab257610b4a90611c06565b5038610738565b3d9150610b2c565b634e487b7160e01b87526011600452602487fd5b90506020813d602011610b97575b81610b8860209383611a3f565b81010312610ab2575138610727565b3d9150610b7b565b60065460405163cc48b94760e01b815290602090829060049082906001600160a01b03165afa9081156109a5578791610bf4575b506001600160a01b03166001600160a01b03199190911617601755386106e4565b610c16915060203d602011610c1c575b610c0e8183611a3f565b810190611be7565b38610bd3565b503d610c04565b60405163d03e6eed60e01b8152600490fd5b90506020813d602011610c67575b81610c5060209383611a3f565b810103126109a157610c6190611c06565b386106cb565b3d9150610c43565b6040513d88823e3d90fd5b60405163351dc55d60e21b8152600490fd5b90506020813d602011610cbe575b81610ca760209383611a3f565b810103126109a157610cb890611c06565b38610681565b3d9150610c9a565b906001600160a01b03841615610cdf576020869161063d565b60405163033121bf60e01b8152600480820152602490fd5b60405163033121bf60e01b815260056004820152602490fd5b6001915060ff16141538610609565b60028814159150610602565b60405162461bcd60e51b81526020600482015260136024820152726c32546f6e3a207a65726f206164647265737360681b6044820152606490fd5b60405163033121bf60e01b815260036004820152602490fd5b60405163033121bf60e01b815260066004820152602490fd5b9050386105cf565b60405163033121bf60e01b815260026004820152602490fd5b8280fd5b60405163033121bf60e01b815260016004820152602490fd5b634e487b7160e01b83526041600452602483fd5b60609150610549565b634e487b7160e01b86526041600452602486fd5b604051630cf8f91160e41b8152602081600481885afa908115610e6b578491610e4c575b506001600160a01b03166001600160a01b03199190911617601855386104db565b610e65915060203d602011610c1c57610c0e8183611a3f565b38610e2b565b6040513d86823e3d90fd5b604051632b56491160e11b8152600490fd5b610ea1915060203d602011610c1c57610c0e8183611a3f565b386104b1565b6040513d84823e3d90fd5b60405162461bcd60e51b815260206004820152601d60248201527f7374616b656420616d6f756e7420697320696e73756666696369656e740000006044820152606490fd5b90506020813d602011610f21575b81610f1260209383611a3f565b810103126102b057513861047b565b3d9150610f05565b6040516308927dbf60e01b8152600490fd5b606460405162461bcd60e51b81526020600482015260046024820152636c6f636b60e01b6044820152fd5b50346102b45760403660031901126102b45760ff6040602092610f87611653565b6004358252600585528282206001600160a01b03909116825284522054604051911615158152f35b50346102b45760403660031901126102b4577f1cbc7a9637cabbc21164f4e6f293a9e760d1f651ad2b0f5614dec80dd807d0bd610fea61163d565b610ff2611653565b9083805260056020526040842033855260205261101560ff604086205416611b90565b601880546001600160a01b039283166001600160a01b03199182168117909255601980549490931693168317909155604080519182526020820192909252a180f35b50346102b457806003193601126102b45760ff60408280602094526005845281812033825284522054166040519015158152f35b50346102b4576020806003193601126102b0576110a661163d565b6110b261018633611669565b6001600160a01b031690811561026c5781331461022f57828052600581526110e060016040852001546116a6565b8280526005815260408320828452815260ff6040842054161561110757826101ef33611a61565b8280526005815260408320908284525260408220600160ff19825416179055339082600080516020611c868339815191528180a438806101e5565b50346102b457806003193601126102b45761115f61018633611669565b6101ef33611a61565b50346102b4576020806003193601126102b05761118361163d565b9061119061018633611669565b828052600581526111a760016040852001546116a6565b8280526005815260408084206001600160a01b0390931680855292825283205460ff16156111d3578280f35b8280526005815260408320908284525260408220600160ff19825416179055339082600080516020611c868339815191528180a438808280f35b50346102b457806003193601126102b4576020601554604051908152f35b50346102b457806003193601126102b45760ff60209154166040519015158152f35b50346102b45760203660031901126102b45760209060ff906040906001600160a01b0361127861163d565b168152600284522054166040519015158152f35b50346102b45760203660031901126102b45760043563ffffffff60e01b81168091036102b05790602091815260038252604060018060a01b0391205416604051908152f35b50346102b45760203660031901126102b4576020906040906001600160a01b036112f961163d565b168152601683522054604051908152f35b50346102b45760403660031901126102b457611324611653565b336001600160a01b03821603611340576101ef90600435611af3565b60405162461bcd60e51b815260206004820152602f60248201527f416363657373436f6e74726f6c3a2063616e206f6e6c792072656e6f756e636560448201526e103937b632b9903337b91039b2b63360891b6064820152608490fd5b50346102b45760403660031901126102b4576004356113ba611653565b81835260056020526113d260016040852001546116a6565b8183526005602052604083209060018060a01b03169081845260205260ff604084205416156113ff578280f35b81835260056020526040832081845260205260408320600160ff198254161790553391600080516020611c868339815191528480a438808280f35b50346102b45760203660031901126102b45760ff604060209261145b61163d565b818052600585528282206001600160a01b03909116825284522054604051911615158152f35b50346102b45760203660031901126102b45760016040602092600435815260058452200154604051908152f35b50346102b457806003193601126102b4576009546040516001600160a01b039091168152602090f35b50346102b45760203660031901126102b45760043563ffffffff811690818103610db9577f5adf94aa107bdc7863b88657090d893e6e71c0cc054f326aaf7d70d734aacd53916020918480526005835260408520338652835261154060ff604087205416611b90565b6017805463ffffffff60a01b191660a09290921b63ffffffff60a01b16919091179055604051908152a180f35b50346102b45760203660031901126102b4576101ef61158a61163d565b61159661018633611669565b611a61565b50346102b457806003193601126102b4576019546040516001600160a01b039091168152602090f35b9050346102b05760203660031901126102b05760043563ffffffff60e01b8116809103610db957602092637965db0b60e01b821491908215611609575b505015158152f35b6301ffc9a760e01b82149250908215611626575b50503880611601565b815260048452604090205460ff169050388061161d565b600435906001600160a01b038216820361097457565b602435906001600160a01b038216820361097457565b6001600160a01b031660009081527f05b8ccbb9d4d8fb16ea74ce3c29a41f1b461fbdaff4714a0d9a8eb05499746bc602052604090205460ff1690565b60009080825260209060058252604090818420338552835260ff8285205416156116d05750505050565b81519367ffffffffffffffff3360608701828111888210176119de578552602a875285870193853686378751156119ca57603085538751916001928310156119b657607860218a015360295b83811161194c575061190a57908551926080840190848210908211176118f6578652604283528683019360603686378351156118e2576030855383518210156118e25790607860218501536041915b81831161187457505050611832579261180060486117f19794611824946044989785519a8b936117c88b86019a7f416363657373436f6e74726f6c3a206163636f756e74200000000000000000008c5251809260378801906119f2565b8401917001034b99036b4b9b9b4b733903937b6329607d1b6037840152518093868401906119f2565b01036028810189520187611a3f565b5194859362461bcd60e51b85526004850152518092816024860152858501906119f2565b601f01601f19168101030190fd5b60648585519062461bcd60e51b825280600483015260248201527f537472696e67733a20686578206c656e67746820696e73756666696369656e746044820152fd5b909192600f811660108110156118ce576f181899199a1a9b1b9c1cb0b131b232b360811b901a6118a48587611b69565b5360041c9280156118ba5760001901919061176b565b634e487b7160e01b82526011600452602482fd5b634e487b7160e01b83526032600452602483fd5b634e487b7160e01b81526032600452602490fd5b634e487b7160e01b85526041600452602485fd5b60648787519062461bcd60e51b825280600483015260248201527f537472696e67733a20686578206c656e67746820696e73756666696369656e746044820152fd5b90600f811660108110156119a2576f181899199a1a9b1b9c1cb0b131b232b360811b901a61197a838c611b69565b5360041c90801561198e576000190161171c565b634e487b7160e01b86526011600452602486fd5b634e487b7160e01b87526032600452602487fd5b634e487b7160e01b85526032600452602485fd5b634e487b7160e01b84526032600452602484fd5b634e487b7160e01b84526041600452602484fd5b60005b838110611a055750506000910152565b81810151838201526020016119f5565b67ffffffffffffffff8111611a2957604052565b634e487b7160e01b600052604160045260246000fd5b90601f8019910116810190811067ffffffffffffffff821117611a2957604052565b6001600160a01b03163381036113405760008181527f05b8ccbb9d4d8fb16ea74ce3c29a41f1b461fbdaff4714a0d9a8eb05499746bc602052604081205490919060ff16611aad575050565b8180526005602052604082208183526020526040822060ff19815416905533917ff6391f5c32d9c69d2a47ea670b442974b53935d1edc7fd64eb21e047a839171b8180a4565b906000918083526005602052604083209160018060a01b03169182845260205260ff604084205416611b2457505050565b8083526005602052604083208284526020526040832060ff1981541690557ff6391f5c32d9c69d2a47ea670b442974b53935d1edc7fd64eb21e047a839171b339380a4565b908151811015611b7a570160200190565b634e487b7160e01b600052603260045260246000fd5b15611b9757565b60405162461bcd60e51b815260206004820152602260248201527f41636365737369626c653a2043616c6c6572206973206e6f7420616e2061646d60448201526134b760f11b6064820152608490fd5b9081602091031261097457516001600160a01b03811681036109745790565b5190811515820361097457565b51906001600160a01b038216820361097457565b519060ff8216820361097457565b93909163ffffffff93610100969360018060a01b0392838092168852166020870152166040850152606084015216608082015260c060a0820152600260c082015261060f60f31b60e0820152019056fe2f8788117e7eff1d82e926ec794901d17c78024a50270940304540a733656f0da164736f6c6343000813000a",
  "linkReferences": {},
  "deployedLinkReferences": {}
}