{
  "_format": "hh-sol-artifact-1",
  "contractName": "DepositManagerV1_1",
  "sourceName": "contracts/stake/managers/DepositManagerV1_1.sol",
  "abi": [
    {
      "inputs": [
        {
          "internalType": "uint256",
          "name": "x",
          "type": "uint256"
        }
      ],
      "name": "CheckL1BridgeError",
      "type": "error"
    },
    {
      "inputs": [],
      "name": "OperatorError",
      "type": "error"
    },
    {
      "inputs": [],
      "name": "SwapTonTransferError",
      "type": "error"
    },
    {
      "inputs": [],
      "name": "WithdrawError",
      "type": "error"
    },
    {
      "inputs": [],
      "name": "ZeroValueError",
      "type": "error"
    },
    {
      "anonymous": false,
      "inputs": [
        {
          "indexed": false,
          "internalType": "address",
          "name": "l1Bridge",
          "type": "address"
        },
        {
          "indexed": false,
          "internalType": "address",
          "name": "l1Ton",
          "type": "address"
        },
        {
          "indexed": false,
          "internalType": "address",
          "name": "l2Ton",
          "type": "address"
        },
        {
          "indexed": false,
          "internalType": "address",
          "name": "caller",
          "type": "address"
        },
        {
          "indexed": false,
          "internalType": "uint256",
          "name": "tonAmount",
          "type": "uint256"
        },
        {
          "indexed": false,
          "internalType": "uint32",
          "name": "minDepositGasLimit",
          "type": "uint32"
        }
      ],
      "name": "DepositedERC20To",
      "type": "event"
    },
    {
      "anonymous": false,
      "inputs": [
        {
          "indexed": true,
          "internalType": "bytes32",
          "name": "role",
          "type": "bytes32"
        },
        {
          "indexed": true,
          "internalType": "bytes32",
          "name": "previousAdminRole",
          "type": "bytes32"
        },
        {
          "indexed": true,
          "internalType": "bytes32",
          "name": "newAdminRole",
          "type": "bytes32"
        }
      ],
      "name": "RoleAdminChanged",
      "type": "event"
    },
    {
      "anonymous": false,
      "inputs": [
        {
          "indexed": true,
          "internalType": "bytes32",
          "name": "role",
          "type": "bytes32"
        },
        {
          "indexed": true,
          "internalType": "address",
          "name": "account",
          "type": "address"
        },
        {
          "indexed": true,
          "internalType": "address",
          "name": "sender",
          "type": "address"
        }
      ],
      "name": "RoleGranted",
      "type": "event"
    },
    {
      "anonymous": false,
      "inputs": [
        {
          "indexed": true,
          "internalType": "bytes32",
          "name": "role",
          "type": "bytes32"
        },
        {
          "indexed": true,
          "internalType": "address",
          "name": "account",
          "type": "address"
        },
        {
          "indexed": true,
          "internalType": "address",
          "name": "sender",
          "type": "address"
        }
      ],
      "name": "RoleRevoked",
      "type": "event"
    },
    {
      "anonymous": false,
      "inputs": [
        {
          "indexed": true,
          "internalType": "address",
          "name": "layer2",
          "type": "address"
        },
        {
          "indexed": false,
          "internalType": "address",
          "name": "account",
          "type": "address"
        },
        {
          "indexed": false,
          "internalType": "uint256",
          "name": "amount",
          "type": "uint256"
        }
      ],
      "name": "WithdrawalAndDeposited",
      "type": "event"
    },
    {
      "inputs": [],
      "name": "DEFAULT_ADMIN_ROLE",
      "outputs": [
        {
          "internalType": "bytes32",
          "name": "",
          "type": "bytes32"
        }
      ],
      "stateMutability": "view",
      "type": "function"
    },
    {
      "inputs": [],
      "name": "MINTER_ROLE",
      "outputs": [
        {
          "internalType": "bytes32",
          "name": "",
          "type": "bytes32"
        }
      ],
      "stateMutability": "view",
      "type": "function"
    },
    {
      "inputs": [
        {
          "internalType": "address",
          "name": "account",
          "type": "address"
        }
      ],
      "name": "addAdmin",
      "outputs": [],
      "stateMutability": "nonpayable",
      "type": "function"
    },
    {
      "inputs": [
        {
          "internalType": "address",
          "name": "",
          "type": "address"
        }
      ],
      "name": "aliveImplementation",
      "outputs": [
        {
          "internalType": "bool",
          "name": "",
          "type": "bool"
        }
      ],
      "stateMutability": "view",
      "type": "function"
    },
    {
      "inputs": [
        {
          "internalType": "bytes32",
          "name": "role",
          "type": "bytes32"
        }
      ],
      "name": "getRoleAdmin",
      "outputs": [
        {
          "internalType": "bytes32",
          "name": "",
          "type": "bytes32"
        }
      ],
      "stateMutability": "view",
      "type": "function"
    },
    {
      "inputs": [],
      "name": "globalWithdrawalDelay",
      "outputs": [
        {
          "internalType": "uint256",
          "name": "",
          "type": "uint256"
        }
      ],
      "stateMutability": "view",
      "type": "function"
    },
    {
      "inputs": [
        {
          "internalType": "bytes32",
          "name": "role",
          "type": "bytes32"
        },
        {
          "internalType": "address",
          "name": "account",
          "type": "address"
        }
      ],
      "name": "grantRole",
      "outputs": [],
      "stateMutability": "nonpayable",
      "type": "function"
    },
    {
      "inputs": [
        {
          "internalType": "bytes32",
          "name": "role",
          "type": "bytes32"
        },
        {
          "internalType": "address",
          "name": "account",
          "type": "address"
        }
      ],
      "name": "hasRole",
      "outputs": [
        {
          "internalType": "bool",
          "name": "",
          "type": "bool"
        }
      ],
      "stateMutability": "view",
      "type": "function"
    },
    {
      "inputs": [
        {
          "internalType": "address",
          "name": "account",
          "type": "address"
        }
      ],
      "name": "isAdmin",
      "outputs": [
        {
          "internalType": "bool",
          "name": "",
          "type": "bool"
        }
      ],
      "stateMutability": "view",
      "type": "function"
    },
    {
      "inputs": [],
      "name": "isOwner",
      "outputs": [
        {
          "internalType": "bool",
          "name": "",
          "type": "bool"
        }
      ],
      "stateMutability": "view",
      "type": "function"
    },
    {
      "inputs": [],
      "name": "minDepositGasLimit",
      "outputs": [
        {
          "internalType": "uint32",
          "name": "",
          "type": "uint32"
        }
      ],
      "stateMutability": "view",
      "type": "function"
    },
    {
      "inputs": [],
      "name": "oldDepositManager",
      "outputs": [
        {
          "internalType": "address",
          "name": "",
          "type": "address"
        }
      ],
      "stateMutability": "view",
      "type": "function"
    },
    {
      "inputs": [],
      "name": "pauseProxy",
      "outputs": [
        {
          "internalType": "bool",
          "name": "",
          "type": "bool"
        }
      ],
      "stateMutability": "view",
      "type": "function"
    },
    {
      "inputs": [
        {
          "internalType": "uint256",
          "name": "",
          "type": "uint256"
        }
      ],
      "name": "proxyImplementation",
      "outputs": [
        {
          "internalType": "address",
          "name": "",
          "type": "address"
        }
      ],
      "stateMutability": "view",
      "type": "function"
    },
    {
      "inputs": [
        {
          "internalType": "address",
          "name": "account",
          "type": "address"
        }
      ],
      "name": "removeAdmin",
      "outputs": [],
      "stateMutability": "nonpayable",
      "type": "function"
    },
    {
      "inputs": [],
      "name": "renounceOwnership",
      "outputs": [],
      "stateMutability": "nonpayable",
      "type": "function"
    },
    {
      "inputs": [
        {
          "internalType": "bytes32",
          "name": "role",
          "type": "bytes32"
        },
        {
          "internalType": "address",
          "name": "account",
          "type": "address"
        }
      ],
      "name": "renounceRole",
      "outputs": [],
      "stateMutability": "nonpayable",
      "type": "function"
    },
    {
      "inputs": [
        {
          "internalType": "bytes32",
          "name": "role",
          "type": "bytes32"
        },
        {
          "internalType": "address",
          "name": "account",
          "type": "address"
        }
      ],
      "name": "revokeRole",
      "outputs": [],
      "stateMutability": "nonpayable",
      "type": "function"
    },
    {
      "inputs": [
        {
          "internalType": "bytes4",
          "name": "",
          "type": "bytes4"
        }
      ],
      "name": "selectorImplementation",
      "outputs": [
        {
          "internalType": "address",
          "name": "",
          "type": "address"
        }
      ],
      "stateMutability": "view",
      "type": "function"
    },
    {
      "inputs": [
        {
          "internalType": "uint32",
          "name": "gasLimit_",
          "type": "uint32"
        }
      ],
      "name": "setMinDepositGasLimit",
      "outputs": [],
      "stateMutability": "nonpayable",
      "type": "function"
    },
    {
      "inputs": [
        {
          "internalType": "bytes4",
          "name": "interfaceId",
          "type": "bytes4"
        }
      ],
      "name": "supportsInterface",
      "outputs": [
        {
          "internalType": "bool",
          "name": "",
          "type": "bool"
        }
      ],
      "stateMutability": "view",
      "type": "function"
    },
    {
      "inputs": [],
      "name": "ton",
      "outputs": [
        {
          "internalType": "address",
          "name": "",
          "type": "address"
        }
      ],
      "stateMutability": "view",
      "type": "function"
    },
    {
      "inputs": [
        {
          "internalType": "address",
          "name": "newAdmin",
          "type": "address"
        }
      ],
      "name": "transferAdmin",
      "outputs": [],
      "stateMutability": "nonpayable",
      "type": "function"
    },
    {
      "inputs": [
        {
          "internalType": "address",
          "name": "newAdmin",
          "type": "address"
        }
      ],
      "name": "transferOwnership",
      "outputs": [],
      "stateMutability": "nonpayable",
      "type": "function"
    },
    {
      "inputs": [
        {
          "internalType": "address",
          "name": "layer2",
          "type": "address"
        },
        {
          "internalType": "uint256",
          "name": "amount",
          "type": "uint256"
        }
      ],
      "name": "withdrawAndDepositL2",
      "outputs": [
        {
          "internalType": "bool",
          "name": "",
          "type": "bool"
        }
      ],
      "stateMutability": "nonpayable",
      "type": "function"
    },
    {
      "inputs": [
        {
          "internalType": "address",
          "name": "",
          "type": "address"
        }
      ],
      "name": "withdrawalDelay",
      "outputs": [
        {
          "internalType": "uint256",
          "name": "",
          "type": "uint256"
        }
      ],
      "stateMutability": "view",
      "type": "function"
    }
  ],
  "bytecode": "0x6080806040523461001657611911908161001c8239f35b600080fdfe608080604052600436101561001357600080fd5b600090813560e01c90816301ffc9a7146112b9575080631785f53c1461128b5780631c9283a3146112215780632153c239146111f8578063248a9ca3146111cb57806324d7806c146111845780632f2ff15d146110e757806336568abe146110545780634ce970361461101b57806350d2a27614610fd6578063550d01a314610f9757806363a8fd8914610f755780636ec3d5ae14610f575780637048027514610eb2578063715018a614610e8c57806375829def14610dd55780638f32d59b14610da157806391d1485414610d585780639f382d11146103ae578063a217fddf14610392578063b911135f1461035f578063cc48b94714610336578063d5391393146102fb578063d547741f146102bd578063dd283f97146102965763f2fde38b1461013f57600080fd5b346102935760208060031936011261028f57610159611336565b61016a61016533611362565b61184d565b61017661016533611362565b6001600160a01b031690811561024b5781331461020e57828052600581526101a4600160408520015461139f565b828052600581526040832082600052815260ff60406000205416156101d1575b826101ce3361171e565b80f35b82805260058152604083209082600052526040600020600160ff198254161790553390826000805160206118e58339815191528180a438806101c4565b6064906040519062461bcd60e51b82526004820152601660248201527520b1b1b2b9b9b4b136329d1039b0b6b29030b236b4b760511b6044820152fd5b6064906040519062461bcd60e51b82526004820152601860248201527f41636365737369626c653a207a65726f206164647265737300000000000000006044820152fd5b5080fd5b80fd5b5034610293578060031936011261029357602063ffffffff60175460a01c16604051908152f35b5034610293576040366003190112610293576101ce6004356102dd61134c565b9080845260056020526102f6600160408620015461139f565b6117b0565b503461029357806003193601126102935760206040517ff0887ba65ee2024ea881d91b74c2450ef19e1557f03bed3ea9f16b037cbe2dc98152f35b50346102935780600319360112610293576017546040516001600160a01b039091168152602090f35b503461029357602036600319011261029357602090600435815260018252604060018060a01b0391205416604051908152f35b5034610293578060031936011261029357602090604051908152f35b5034610293576040366003190112610293576103c8611336565b9060175460ff8160c01c16610d2d5760ff60c01b1916600160c01b1760175560243515610d1b576008546040516367265c3b60e11b81526001600160a01b0384811660048301523360248301529091169190602081604481865afa908115610c99578291610ce9575b5060243511610ca45760405163570ca73560e01b81526020816004816001600160a01b0388165afa908115610c99578291610c7a575b506001600160a01b03811615610c6857803b15610c68576040805163632b03ad60e01b6020808301918252825291810167ffffffffffffffff811182821017610c545760405251839283929083905af1913d15610c4c573d9267ffffffffffffffff8411610c3857604051936104e7601f8201601f1916602001866116e6565b84523d83602086013e5b15610c1f5760808380518101031261028f5761050f602084016118c3565b9261051c604082016118d0565b610534608061052d606085016118d0565b93016118d0565b9415610c06576001600160a01b03811615610bed576001600160a01b03851615610bb257836001600160a01b03861673deaddeaddeaddeaddeaddeaddeaddeaddead000014610b81575083602062033450945b604051637c287fd560e11b81526001600160a01b038a1660048201523360248083019190915235604482015292839160649183915af1908115610b2a578591610b47575b5015610b355760065460405163e3b99e8560e01b81523060048201526024803590820152906020908290604490829089906001600160a01b03165af1908115610b2a578591610aec575b5015610ada576017546001600160a01b03811615610a56575b50601754604051636eb1769f60e11b81523060048201526001600160a01b0383811660248301529091169390602081604481885afa90811561096a578691610a24575b50633b9aca0060243504811061097d575b506001600160a01b03828116931680610975575b506040516370a0823160e01b81526001600160a01b038416600482015295602087602481885afa96871561096a578697610936575b506001600160a01b0383163b156109325760405163041c592960e51b815285600482015260018060a01b0382166024820152336044820152633b9aca0060243504606482015263ffffffff8316608482015260c060a4820152600260c482015261060f60f31b60e48201528681610104818360018060a01b0389165af18015610927576108f6575b506020939263ffffffff7fd5dfc92da7fa4cb007b31e1ebf08a3538ac91aeaece0306a778c0f8b31e3683b9360c0936040519360018060a01b03168452888885015260018060a01b03166040840152336060840152633b9aca006024350460808401521660a0820152a16040516370a0823160e01b81526001600160a01b03909116600482015291829060249082905afa9182156108ea57916108b3575b50633b9aca0060243504820180921161089d5703610862576040805133815260243560208201526001600160a01b0392909216917f84442f855a972156de649c4743a803474c4e9129c0ada9c676256add8f9f82d29190a26017805460ff60c01b1916905560405160018152602090f35b60405162461bcd60e51b81526020600482015260136024820152726661696c206465706f7369744552433230546f60681b6044820152606490fd5b634e487b7160e01b600052601160045260246000fd5b90506020813d6020116108e2575b816108ce602093836116e6565b810103126108dd5751386107f1565b600080fd5b3d91506108c1565b604051903d90823e3d90fd5b67ffffffffffffffff819792971161091357604052946020610753565b634e487b7160e01b82526041600452602482fd5b6040513d89823e3d90fd5b8580fd5b9096506020813d602011610962575b81610952602093836116e6565b81010312610932575195386106cb565b3d9150610945565b6040513d88823e3d90fd5b925038610696565b633b9aca006024350481810311610a1057604051633950935160e01b81526001600160a01b0384166004820152633b9aca006024803591909104929092039181019190915260208160448189895af1801561096a5715610682576020813d602011610a08575b816109f0602093836116e6565b8101031261093257610a01906118c3565b5038610682565b3d91506109e3565b634e487b7160e01b86526011600452602486fd5b90506020813d602011610a4e575b81610a3f602093836116e6565b81010312610932575138610671565b3d9150610a32565b60065460405163cc48b94760e01b815290602090829060049082906001600160a01b03165afa90811561096a578691610aab575b506001600160a01b03166001600160a01b031991909116176017553861062e565b610acd915060203d602011610ad3575b610ac581836116e6565b8101906118a4565b38610a8a565b503d610abb565b60405163d03e6eed60e01b8152600490fd5b90506020813d602011610b22575b81610b07602093836116e6565b81010312610b1e57610b18906118c3565b38610615565b8480fd5b3d9150610afa565b6040513d87823e3d90fd5b60405163351dc55d60e21b8152600490fd5b90506020813d602011610b79575b81610b62602093836116e6565b81010312610b1e57610b73906118c3565b386105cb565b3d9150610b55565b926001600160a01b03831615610b9a5760208591610587565b60405163033121bf60e01b8152600480820152602490fd5b60405162461bcd60e51b81526020600482015260136024820152726c32546f6e3a207a65726f206164647265737360681b6044820152606490fd5b60405163033121bf60e01b815260036004820152602490fd5b60405163033121bf60e01b815260026004820152602490fd5b60405163033121bf60e01b815260016004820152602490fd5b634e487b7160e01b83526041600452602483fd5b6060926104f1565b634e487b7160e01b85526041600452602485fd5b604051632b56491160e11b8152600490fd5b610c93915060203d602011610ad357610ac581836116e6565b38610467565b6040513d84823e3d90fd5b60405162461bcd60e51b815260206004820152601d60248201527f7374616b656420616d6f756e7420697320696e73756666696369656e740000006044820152606490fd5b90506020813d602011610d13575b81610d04602093836116e6565b8101031261028f575138610431565b3d9150610cf7565b6040516308927dbf60e01b8152600490fd5b606460405162461bcd60e51b81526020600482015260046024820152636c6f636b60e01b6044820152fd5b50346102935760403660031901126102935760ff6040602092610d7961134c565b6004358252600585528282206001600160a01b03909116825284522054604051911615158152f35b503461029357806003193601126102935760ff60408280602094526005845281812033825284522054166040519015158152f35b50346102935760208060031936011261028f57610df0611336565b610dfc61016533611362565b6001600160a01b031690811561024b5781331461020e5782805260058152610e2a600160408520015461139f565b8280526005815260408320828452815260ff60408420541615610e5157826101ce3361171e565b8280526005815260408320908284525260408220600160ff198254161790553390826000805160206118e58339815191528180a438806101c4565b5034610293578060031936011261029357610ea961016533611362565b6101ce3361171e565b50346102935760208060031936011261028f57610ecd611336565b90610eda61016533611362565b82805260058152610ef1600160408520015461139f565b8280526005815260408084206001600160a01b0390931680855292825283205460ff1615610f1d578280f35b8280526005815260408320908284525260408220600160ff198254161790553390826000805160206118e58339815191528180a438808280f35b50346102935780600319360112610293576020601554604051908152f35b503461029357806003193601126102935760ff60209154166040519015158152f35b50346102935760203660031901126102935760209060ff906040906001600160a01b03610fc2611336565b168152600284522054166040519015158152f35b50346102935760203660031901126102935760043563ffffffff60e01b811680910361028f5790602091815260038252604060018060a01b0391205416604051908152f35b5034610293576020366003190112610293576020906040906001600160a01b03611043611336565b168152601683522054604051908152f35b50346102935760403660031901126102935761106e61134c565b336001600160a01b0382160361108a576101ce906004356117b0565b60405162461bcd60e51b815260206004820152602f60248201527f416363657373436f6e74726f6c3a2063616e206f6e6c792072656e6f756e636560448201526e103937b632b9903337b91039b2b63360891b6064820152608490fd5b50346102935760403660031901126102935760043561110461134c565b818352600560205261111c600160408520015461139f565b8183526005602052604083209060018060a01b03169081845260205260ff60408420541615611149578280f35b81835260056020526040832081845260205260408320600160ff1982541617905533916000805160206118e58339815191528480a438808280f35b50346102935760203660031901126102935760ff60406020926111a5611336565b818052600585528282206001600160a01b03909116825284522054604051911615158152f35b50346102935760203660031901126102935760016040602092600435815260058452200154604051908152f35b50346102935780600319360112610293576009546040516001600160a01b039091168152602090f35b50346102935760203660031901126102935760043563ffffffff8116810361028f5781805260056020526040822033835260205261126560ff60408420541661184d565b6017805463ffffffff60a01b191660a09290921b63ffffffff60a01b1691909117905580f35b5034610293576020366003190112610293576101ce6112a8611336565b6112b461016533611362565b61171e565b90503461028f57602036600319011261028f5760043563ffffffff60e01b811680910361133257602092637965db0b60e01b8214919082156112fe575b505015158152f35b6301ffc9a760e01b8214925090821561131b575b505038806112f6565b815260048452604090205460ff1690503880611312565b8280fd5b600435906001600160a01b03821682036108dd57565b602435906001600160a01b03821682036108dd57565b6001600160a01b031660009081527f05b8ccbb9d4d8fb16ea74ce3c29a41f1b461fbdaff4714a0d9a8eb05499746bc602052604090205460ff1690565b60009080825260209060058252604090818420338552835260ff8285205416156113c95750505050565b81519367ffffffffffffffff3360608701828111888210176116af578552602a8752858701938536863787511561169b576030855387519160019283101561168757607860218a015360295b83811161163157506115ef5790855192608084019084821090821117610c54578652604283528683019360603686378351156115db576030855383518210156115db5790607860218501536041915b81831161156d5750505061152b57926114f960486114ea979461151d946044989785519a8b936114c18b86019a7f416363657373436f6e74726f6c3a206163636f756e74200000000000000000008c5251809260378801906116c3565b8401917001034b99036b4b9b9b4b733903937b6329607d1b6037840152518093868401906116c3565b010360288101895201876116e6565b5194859362461bcd60e51b85526004850152518092816024860152858501906116c3565b601f01601f19168101030190fd5b60648585519062461bcd60e51b825280600483015260248201527f537472696e67733a20686578206c656e67746820696e73756666696369656e746044820152fd5b909192600f811660108110156115c7576f181899199a1a9b1b9c1cb0b131b232b360811b901a61159d8587611826565b5360041c9280156115b357600019019190611464565b634e487b7160e01b82526011600452602482fd5b634e487b7160e01b83526032600452602483fd5b634e487b7160e01b81526032600452602490fd5b60648787519062461bcd60e51b825280600483015260248201527f537472696e67733a20686578206c656e67746820696e73756666696369656e746044820152fd5b90600f81166010811015611673576f181899199a1a9b1b9c1cb0b131b232b360811b901a61165f838c611826565b5360041c908015610a105760001901611415565b634e487b7160e01b87526032600452602487fd5b634e487b7160e01b85526032600452602485fd5b634e487b7160e01b84526032600452602484fd5b634e487b7160e01b84526041600452602484fd5b60005b8381106116d65750506000910152565b81810151838201526020016116c6565b90601f8019910116810190811067ffffffffffffffff82111761170857604052565b634e487b7160e01b600052604160045260246000fd5b6001600160a01b031633810361108a5760008181527f05b8ccbb9d4d8fb16ea74ce3c29a41f1b461fbdaff4714a0d9a8eb05499746bc602052604081205490919060ff1661176a575050565b8180526005602052604082208183526020526040822060ff19815416905533917ff6391f5c32d9c69d2a47ea670b442974b53935d1edc7fd64eb21e047a839171b8180a4565b906000918083526005602052604083209160018060a01b03169182845260205260ff6040842054166117e157505050565b8083526005602052604083208284526020526040832060ff1981541690557ff6391f5c32d9c69d2a47ea670b442974b53935d1edc7fd64eb21e047a839171b339380a4565b908151811015611837570160200190565b634e487b7160e01b600052603260045260246000fd5b1561185457565b60405162461bcd60e51b815260206004820152602260248201527f41636365737369626c653a2043616c6c6572206973206e6f7420616e2061646d60448201526134b760f11b6064820152608490fd5b908160209103126108dd57516001600160a01b03811681036108dd5790565b519081151582036108dd57565b51906001600160a01b03821682036108dd5756fe2f8788117e7eff1d82e926ec794901d17c78024a50270940304540a733656f0da164736f6c6343000813000a",
  "linkReferences": {},
  "deployedLinkReferences": {}
}