{
  "_format": "hh-sol-artifact-1",
  "contractName": "DepositManagerV1_1",
  "sourceName": "contracts/stake/managers/DepositManagerV1_1.sol",
  "abi": [
    {
      "inputs": [
        {
          "internalType": "uint256",
          "name": "x",
          "type": "uint256"
        }
      ],
      "name": "CheckL1BridgeError",
      "type": "error"
    },
    {
      "inputs": [],
      "name": "OperatorError",
      "type": "error"
    },
    {
      "inputs": [],
      "name": "SwapTonTransferError",
      "type": "error"
    },
    {
      "inputs": [],
      "name": "WithdrawError",
      "type": "error"
    },
    {
      "inputs": [],
      "name": "ZeroValueError",
      "type": "error"
    },
    {
      "anonymous": false,
      "inputs": [
        {
          "indexed": false,
          "internalType": "address",
          "name": "l1Bridge",
          "type": "address"
        },
        {
          "indexed": false,
          "internalType": "address",
          "name": "l1Ton",
          "type": "address"
        },
        {
          "indexed": false,
          "internalType": "address",
          "name": "l2Ton",
          "type": "address"
        },
        {
          "indexed": false,
          "internalType": "address",
          "name": "caller",
          "type": "address"
        },
        {
          "indexed": false,
          "internalType": "uint256",
          "name": "tonAmount",
          "type": "uint256"
        },
        {
          "indexed": false,
          "internalType": "uint32",
          "name": "minDepositGasLimit",
          "type": "uint32"
        }
      ],
      "name": "DepositedERC20To",
      "type": "event"
    },
    {
      "anonymous": false,
      "inputs": [
        {
          "indexed": true,
          "internalType": "bytes32",
          "name": "role",
          "type": "bytes32"
        },
        {
          "indexed": true,
          "internalType": "bytes32",
          "name": "previousAdminRole",
          "type": "bytes32"
        },
        {
          "indexed": true,
          "internalType": "bytes32",
          "name": "newAdminRole",
          "type": "bytes32"
        }
      ],
      "name": "RoleAdminChanged",
      "type": "event"
    },
    {
      "anonymous": false,
      "inputs": [
        {
          "indexed": true,
          "internalType": "bytes32",
          "name": "role",
          "type": "bytes32"
        },
        {
          "indexed": true,
          "internalType": "address",
          "name": "account",
          "type": "address"
        },
        {
          "indexed": true,
          "internalType": "address",
          "name": "sender",
          "type": "address"
        }
      ],
      "name": "RoleGranted",
      "type": "event"
    },
    {
      "anonymous": false,
      "inputs": [
        {
          "indexed": true,
          "internalType": "bytes32",
          "name": "role",
          "type": "bytes32"
        },
        {
          "indexed": true,
          "internalType": "address",
          "name": "account",
          "type": "address"
        },
        {
          "indexed": true,
          "internalType": "address",
          "name": "sender",
          "type": "address"
        }
      ],
      "name": "RoleRevoked",
      "type": "event"
    },
    {
      "anonymous": false,
      "inputs": [
        {
          "indexed": false,
          "internalType": "address",
          "name": "l1BridgeRegistry_",
          "type": "address"
        },
        {
          "indexed": false,
          "internalType": "address",
          "name": "layer2Manager_",
          "type": "address"
        }
      ],
      "name": "SetAddresses",
      "type": "event"
    },
    {
      "anonymous": false,
      "inputs": [
        {
          "indexed": false,
          "internalType": "uint32",
          "name": "gasLimit_",
          "type": "uint32"
        }
      ],
      "name": "SetMinDepositGasLimit",
      "type": "event"
    },
    {
      "anonymous": false,
      "inputs": [
        {
          "indexed": true,
          "internalType": "address",
          "name": "layer2",
          "type": "address"
        },
        {
          "indexed": false,
          "internalType": "address",
          "name": "account",
          "type": "address"
        },
        {
          "indexed": false,
          "internalType": "uint256",
          "name": "amount",
          "type": "uint256"
        }
      ],
      "name": "WithdrawalAndDeposited",
      "type": "event"
    },
    {
      "inputs": [],
      "name": "DEFAULT_ADMIN_ROLE",
      "outputs": [
        {
          "internalType": "bytes32",
          "name": "",
          "type": "bytes32"
        }
      ],
      "stateMutability": "view",
      "type": "function"
    },
    {
      "inputs": [],
      "name": "MINTER_ROLE",
      "outputs": [
        {
          "internalType": "bytes32",
          "name": "",
          "type": "bytes32"
        }
      ],
      "stateMutability": "view",
      "type": "function"
    },
    {
      "inputs": [
        {
          "internalType": "address",
          "name": "account",
          "type": "address"
        }
      ],
      "name": "addAdmin",
      "outputs": [],
      "stateMutability": "nonpayable",
      "type": "function"
    },
    {
      "inputs": [
        {
          "internalType": "address",
          "name": "",
          "type": "address"
        }
      ],
      "name": "aliveImplementation",
      "outputs": [
        {
          "internalType": "bool",
          "name": "",
          "type": "bool"
        }
      ],
      "stateMutability": "view",
      "type": "function"
    },
    {
      "inputs": [
        {
          "internalType": "bytes32",
          "name": "role",
          "type": "bytes32"
        }
      ],
      "name": "getRoleAdmin",
      "outputs": [
        {
          "internalType": "bytes32",
          "name": "",
          "type": "bytes32"
        }
      ],
      "stateMutability": "view",
      "type": "function"
    },
    {
      "inputs": [],
      "name": "globalWithdrawalDelay",
      "outputs": [
        {
          "internalType": "uint256",
          "name": "",
          "type": "uint256"
        }
      ],
      "stateMutability": "view",
      "type": "function"
    },
    {
      "inputs": [
        {
          "internalType": "bytes32",
          "name": "role",
          "type": "bytes32"
        },
        {
          "internalType": "address",
          "name": "account",
          "type": "address"
        }
      ],
      "name": "grantRole",
      "outputs": [],
      "stateMutability": "nonpayable",
      "type": "function"
    },
    {
      "inputs": [
        {
          "internalType": "bytes32",
          "name": "role",
          "type": "bytes32"
        },
        {
          "internalType": "address",
          "name": "account",
          "type": "address"
        }
      ],
      "name": "hasRole",
      "outputs": [
        {
          "internalType": "bool",
          "name": "",
          "type": "bool"
        }
      ],
      "stateMutability": "view",
      "type": "function"
    },
    {
      "inputs": [
        {
          "internalType": "address",
          "name": "account",
          "type": "address"
        }
      ],
      "name": "isAdmin",
      "outputs": [
        {
          "internalType": "bool",
          "name": "",
          "type": "bool"
        }
      ],
      "stateMutability": "view",
      "type": "function"
    },
    {
      "inputs": [],
      "name": "isOwner",
      "outputs": [
        {
          "internalType": "bool",
          "name": "",
          "type": "bool"
        }
      ],
      "stateMutability": "view",
      "type": "function"
    },
    {
      "inputs": [],
      "name": "l1BridgeRegistry",
      "outputs": [
        {
          "internalType": "address",
          "name": "",
          "type": "address"
        }
      ],
      "stateMutability": "view",
      "type": "function"
    },
    {
      "inputs": [],
      "name": "layer2Manager",
      "outputs": [
        {
          "internalType": "address",
          "name": "",
          "type": "address"
        }
      ],
      "stateMutability": "view",
      "type": "function"
    },
    {
      "inputs": [],
      "name": "minDepositGasLimit",
      "outputs": [
        {
          "internalType": "uint32",
          "name": "",
          "type": "uint32"
        }
      ],
      "stateMutability": "view",
      "type": "function"
    },
    {
      "inputs": [],
      "name": "oldDepositManager",
      "outputs": [
        {
          "internalType": "address",
          "name": "",
          "type": "address"
        }
      ],
      "stateMutability": "view",
      "type": "function"
    },
    {
      "inputs": [],
      "name": "pauseProxy",
      "outputs": [
        {
          "internalType": "bool",
          "name": "",
          "type": "bool"
        }
      ],
      "stateMutability": "view",
      "type": "function"
    },
    {
      "inputs": [
        {
          "internalType": "uint256",
          "name": "",
          "type": "uint256"
        }
      ],
      "name": "proxyImplementation",
      "outputs": [
        {
          "internalType": "address",
          "name": "",
          "type": "address"
        }
      ],
      "stateMutability": "view",
      "type": "function"
    },
    {
      "inputs": [
        {
          "internalType": "address",
          "name": "account",
          "type": "address"
        }
      ],
      "name": "removeAdmin",
      "outputs": [],
      "stateMutability": "nonpayable",
      "type": "function"
    },
    {
      "inputs": [],
      "name": "renounceOwnership",
      "outputs": [],
      "stateMutability": "nonpayable",
      "type": "function"
    },
    {
      "inputs": [
        {
          "internalType": "bytes32",
          "name": "role",
          "type": "bytes32"
        },
        {
          "internalType": "address",
          "name": "account",
          "type": "address"
        }
      ],
      "name": "renounceRole",
      "outputs": [],
      "stateMutability": "nonpayable",
      "type": "function"
    },
    {
      "inputs": [
        {
          "internalType": "bytes32",
          "name": "role",
          "type": "bytes32"
        },
        {
          "internalType": "address",
          "name": "account",
          "type": "address"
        }
      ],
      "name": "revokeRole",
      "outputs": [],
      "stateMutability": "nonpayable",
      "type": "function"
    },
    {
      "inputs": [
        {
          "internalType": "bytes4",
          "name": "",
          "type": "bytes4"
        }
      ],
      "name": "selectorImplementation",
      "outputs": [
        {
          "internalType": "address",
          "name": "",
          "type": "address"
        }
      ],
      "stateMutability": "view",
      "type": "function"
    },
    {
      "inputs": [
        {
          "internalType": "address",
          "name": "_l1BridgeRegistry",
          "type": "address"
        },
        {
          "internalType": "address",
          "name": "_layer2Manager",
          "type": "address"
        }
      ],
      "name": "setAddresses",
      "outputs": [],
      "stateMutability": "nonpayable",
      "type": "function"
    },
    {
      "inputs": [
        {
          "internalType": "uint32",
          "name": "gasLimit_",
          "type": "uint32"
        }
      ],
      "name": "setMinDepositGasLimit",
      "outputs": [],
      "stateMutability": "nonpayable",
      "type": "function"
    },
    {
      "inputs": [
        {
          "internalType": "bytes4",
          "name": "interfaceId",
          "type": "bytes4"
        }
      ],
      "name": "supportsInterface",
      "outputs": [
        {
          "internalType": "bool",
          "name": "",
          "type": "bool"
        }
      ],
      "stateMutability": "view",
      "type": "function"
    },
    {
      "inputs": [],
      "name": "ton",
      "outputs": [
        {
          "internalType": "address",
          "name": "",
          "type": "address"
        }
      ],
      "stateMutability": "view",
      "type": "function"
    },
    {
      "inputs": [
        {
          "internalType": "address",
          "name": "newAdmin",
          "type": "address"
        }
      ],
      "name": "transferAdmin",
      "outputs": [],
      "stateMutability": "nonpayable",
      "type": "function"
    },
    {
      "inputs": [
        {
          "internalType": "address",
          "name": "newAdmin",
          "type": "address"
        }
      ],
      "name": "transferOwnership",
      "outputs": [],
      "stateMutability": "nonpayable",
      "type": "function"
    },
    {
      "inputs": [
        {
          "internalType": "address",
          "name": "layer2",
          "type": "address"
        },
        {
          "internalType": "uint256",
          "name": "amount",
          "type": "uint256"
        }
      ],
      "name": "withdrawAndDepositL2",
      "outputs": [
        {
          "internalType": "bool",
          "name": "",
          "type": "bool"
        }
      ],
      "stateMutability": "nonpayable",
      "type": "function"
    },
    {
      "inputs": [
        {
          "internalType": "address",
          "name": "",
          "type": "address"
        }
      ],
      "name": "withdrawalDelay",
      "outputs": [
        {
          "internalType": "uint256",
          "name": "",
          "type": "uint256"
        }
      ],
      "stateMutability": "view",
      "type": "function"
    }
  ],
  "bytecode": "0x6080806040523461001657611cf4908161001c8239f35b600080fdfe608080604052600436101561001357600080fd5b600090813560e01c90816301ffc9a7146115f75750806316b5d5bd146115ce5780631785f53c146115a05780631c9283a31461150a5780632153c239146114e1578063248a9ca3146114b457806324d7806c1461146d5780632f2ff15d146113d057806336568abe1461133d5780634ce970361461130457806350d2a276146112bf578063550d01a31461128057806363a8fd891461125e5780636ec3d5ae14611240578063704802751461119b578063715018a61461117557806375829def146110be5780638f32d59b1461108a57806390107afe14610fe257806391d1485414610f995780639f382d11146103f8578063a217fddf146103dc578063b911135f146103a9578063cc48b94714610380578063cf8f911014610357578063d53913931461031c578063d547741f146102de578063dd283f97146102b75763f2fde38b1461016057600080fd5b346102b4576020806003193601126102b05761017a611670565b61018b6101863361169c565b611baf565b6101976101863361169c565b6001600160a01b031690811561026c5781331461022f57828052600581526101c560016040852001546116d9565b828052600581526040832082600052815260ff60406000205416156101f2575b826101ef33611a80565b80f35b82805260058152604083209082600052526040600020600160ff19825416179055339082600080516020611cc88339815191528180a438806101e5565b6064906040519062461bcd60e51b82526004820152601660248201527520b1b1b2b9b9b4b136329d1039b0b6b29030b236b4b760511b6044820152fd5b6064906040519062461bcd60e51b82526004820152601860248201527f41636365737369626c653a207a65726f206164647265737300000000000000006044820152fd5b5080fd5b80fd5b50346102b457806003193601126102b457602063ffffffff60175460a01c16604051908152f35b50346102b45760403660031901126102b4576101ef6004356102fe611686565b90808452600560205261031760016040862001546116d9565b611b12565b50346102b457806003193601126102b45760206040517ff0887ba65ee2024ea881d91b74c2450ef19e1557f03bed3ea9f16b037cbe2dc98152f35b50346102b457806003193601126102b4576018546040516001600160a01b039091168152602090f35b50346102b457806003193601126102b4576017546040516001600160a01b039091168152602090f35b50346102b45760203660031901126102b457602090600435815260018252604060018060a01b0391205416604051908152f35b50346102b457806003193601126102b457602090604051908152f35b50346102b45760403660031901126102b457610412611670565b9060195460ff8160a01c16610f6e5760ff60a01b1916600160a01b1760195560243515610f5c576008546040516367265c3b60e11b81526001600160a01b0384811660048301523360248301529091169190602081604481865afa908115610976578291610f2a575b5060243511610ee55760405163570ca73560e01b8152906020826004816001600160a01b0388165afa9182156109b5578192610ec4575b506001600160a01b03821615610eb257813b15610eb2576018546001600160a01b03811615610e4e575b50604051916020830163632b03ad60e01b815260208452604084019367ffffffffffffffff9481811086821117610e3a5760405251839283929083905af13d15610e31573d928311610e1d5760405192610540601f8201601f191660200185611a5e565b83523d82602085013e5b15610e04576101009283838051810103126102b05761056b60208401611c25565b9161057860408501611c32565b9261058560608601611c32565b9061059260808701611c32565b9561059f60a08201611c46565b916105c36105af60c08401611c46565b996105bc60e08501611c25565b9301611c25565b9015610deb578115610de3575b50610dca576001600160a01b03851615610db1576001600160a01b03861615610d765760ff1692600184141580978198610d6a575b8115610d5b575b50610d4257919586929073deaddeaddeaddeaddeaddeaddeaddeaddeacffff196001600160a01b03881601610d37575b80610d26575b610d0e5760208391606460405180948193637c287fd560e11b83528d60018060a01b0316600484015233602484015260243560448401525af1908115610cb7578391610cd4575b5015610cc25760065460405163e3b99e8560e01b81523060048201526024803590820152906020908290604490829087906001600160a01b03165af1908115610cb7578391610c79575b5015610c67576017546001600160a01b03811615610be3575b50601754604051636eb1769f60e11b81523060048201526001600160a01b0386811660248301529091169390602081604481885afa908115610ba6578491610bb1575b50633b9aca00602435048110610b0e575b506001036109c257506040516370a0823160e01b8082526001600160a01b038516600483015291602082602481875afa9182156109b5578192610981575b506001600160a01b0385163b156102b45760405163041c592960e51b81528181806107c18b633b9aca0060243504336001600160a01b038e168c60048701611c77565b0381836001600160a01b038b165af1801561097657908291610962575b50506040519283526001600160a01b0385166004840152602083602481875afa908115610956579061091d575b6108159250611c54565b633b9aca0060243504036108e2577fd5dfc92da7fa4cb007b31e1ebf08a3538ac91aeaece0306a778c0f8b31e3683b9360c09363ffffffff926040519460018060a01b03168552602085015260018060a01b03166040840152336060840152633b9aca006024350460808401521660a0820152a16040805133815260243560208201526001600160a01b0392909216917f84442f855a972156de649c4743a803474c4e9129c0ada9c676256add8f9f82d29190a26019805460ff60a01b1916905560405160018152602090f35b60405162461bcd60e51b81526020600482015260136024820152726661696c206465706f7369744552433230546f60681b6044820152606490fd5b506020823d60201161094e575b8161093760209383611a5e565b8101031261094957610815915161080b565b600080fd5b3d915061092a565b604051903d90823e3d90fd5b61096b90611a34565b6102b45780386107de565b6040513d84823e3d90fd5b9091506020813d6020116109ad575b8161099d60209383611a5e565b810103126109495751903861077e565b3d9150610990565b50604051903d90823e3d90fd5b6040516370a0823160e01b81526001600160a01b03821660048201529091602082602481875afa9182156109b5578192610ada575b506001600160a01b0385163b156102b45760405163041c592960e51b8152818180610a3a8b633b9aca0060243504336001600160a01b038e168c60048701611c77565b0381836001600160a01b038b165af1801561097657610acb575b506040516370a0823160e01b81526001600160a01b039093166004840152602083602481875afa9081156109565790610a97575b610a929250611c54565b610815565b506020823d602011610ac3575b81610ab160209383611a5e565b8101031261094957610a929151610a88565b3d9150610aa4565b610ad490611a34565b38610a54565b9091506020813d602011610b06575b81610af660209383611a5e565b810103126102b0575190386109f7565b3d9150610ae9565b6020610b25610b5592633b9aca0060243504611c54565b604051633950935160e01b81526001600160a01b0389166004820152602481019190915291829081906044820190565b038187895af18015610ba65715610740576020813d602011610b9e575b81610b7f60209383611a5e565b81010312610b9a5790610b93600192611c25565b5090610740565b8380fd5b3d9150610b72565b6040513d86823e3d90fd5b90506020813d602011610bdb575b81610bcc60209383611a5e565b81010312610b9a57513861072f565b3d9150610bbf565b60065460405163cc48b94760e01b815290602090829060049082906001600160a01b03165afa908115610ba6578491610c38575b506001600160a01b03166001600160a01b03199190911617601755386106ec565b610c5a915060203d602011610c60575b610c528183611a5e565b810190611c06565b38610c17565b503d610c48565b60405163d03e6eed60e01b8152600490fd5b90506020813d602011610caf575b81610c9460209383611a5e565b81010312610cab57610ca590611c25565b386106d3565b8280fd5b3d9150610c87565b6040513d85823e3d90fd5b60405163351dc55d60e21b8152600490fd5b90506020813d602011610d06575b81610cef60209383611a5e565b81010312610cab57610d0090611c25565b38610689565b3d9150610ce2565b60405163033121bf60e01b8152600480820152602490fd5b506001600160a01b03821615610642565b62033450975061063c565b60405163033121bf60e01b815260056004820152602490fd5b6001915060ff1614153861060c565b60028614159150610605565b60405162461bcd60e51b81526020600482015260136024820152726c32546f6e3a207a65726f206164647265737360681b6044820152606490fd5b60405163033121bf60e01b815260036004820152602490fd5b60405163033121bf60e01b815260066004820152602490fd5b9050386105d0565b60405163033121bf60e01b815260026004820152602490fd5b60405163033121bf60e01b815260016004820152602490fd5b634e487b7160e01b82526041600452602482fd5b6060925061054a565b634e487b7160e01b85526041600452602485fd5b604051630cf8f91160e41b8152602081600481885afa908115610cb7578391610e93575b506001600160a01b03166001600160a01b03199190911617601855386104dc565b610eac915060203d602011610c6057610c528183611a5e565b38610e72565b604051632b56491160e11b8152600490fd5b610ede91925060203d602011610c6057610c528183611a5e565b90386104b2565b60405162461bcd60e51b815260206004820152601d60248201527f7374616b656420616d6f756e7420697320696e73756666696369656e740000006044820152606490fd5b90506020813d602011610f54575b81610f4560209383611a5e565b810103126102b057513861047b565b3d9150610f38565b6040516308927dbf60e01b8152600490fd5b606460405162461bcd60e51b81526020600482015260046024820152636c6f636b60e01b6044820152fd5b50346102b45760403660031901126102b45760ff6040602092610fba611686565b6004358252600585528282206001600160a01b03909116825284522054604051911615158152f35b50346102b45760403660031901126102b4577f1cbc7a9637cabbc21164f4e6f293a9e760d1f651ad2b0f5614dec80dd807d0bd61101d611670565b611025611686565b9083805260056020526040842033855260205261104860ff604086205416611baf565b601880546001600160a01b039283166001600160a01b03199182168117909255601980549490931693168317909155604080519182526020820192909252a180f35b50346102b457806003193601126102b45760ff60408280602094526005845281812033825284522054166040519015158152f35b50346102b4576020806003193601126102b0576110d9611670565b6110e56101863361169c565b6001600160a01b031690811561026c5781331461022f578280526005815261111360016040852001546116d9565b8280526005815260408320828452815260ff6040842054161561113a57826101ef33611a80565b8280526005815260408320908284525260408220600160ff19825416179055339082600080516020611cc88339815191528180a438806101e5565b50346102b457806003193601126102b4576111926101863361169c565b6101ef33611a80565b50346102b4576020806003193601126102b0576111b6611670565b906111c36101863361169c565b828052600581526111da60016040852001546116d9565b8280526005815260408084206001600160a01b0390931680855292825283205460ff1615611206578280f35b8280526005815260408320908284525260408220600160ff19825416179055339082600080516020611cc88339815191528180a438808280f35b50346102b457806003193601126102b4576020601554604051908152f35b50346102b457806003193601126102b45760ff60209154166040519015158152f35b50346102b45760203660031901126102b45760209060ff906040906001600160a01b036112ab611670565b168152600284522054166040519015158152f35b50346102b45760203660031901126102b45760043563ffffffff60e01b81168091036102b05790602091815260038252604060018060a01b0391205416604051908152f35b50346102b45760203660031901126102b4576020906040906001600160a01b0361132c611670565b168152601683522054604051908152f35b50346102b45760403660031901126102b457611357611686565b336001600160a01b03821603611373576101ef90600435611b12565b60405162461bcd60e51b815260206004820152602f60248201527f416363657373436f6e74726f6c3a2063616e206f6e6c792072656e6f756e636560448201526e103937b632b9903337b91039b2b63360891b6064820152608490fd5b50346102b45760403660031901126102b4576004356113ed611686565b818352600560205261140560016040852001546116d9565b8183526005602052604083209060018060a01b03169081845260205260ff60408420541615611432578280f35b81835260056020526040832081845260205260408320600160ff198254161790553391600080516020611cc88339815191528480a438808280f35b50346102b45760203660031901126102b45760ff604060209261148e611670565b818052600585528282206001600160a01b03909116825284522054604051911615158152f35b50346102b45760203660031901126102b45760016040602092600435815260058452200154604051908152f35b50346102b457806003193601126102b4576009546040516001600160a01b039091168152602090f35b50346102b45760203660031901126102b45760043563ffffffff811690818103610cab577f5adf94aa107bdc7863b88657090d893e6e71c0cc054f326aaf7d70d734aacd53916020918480526005835260408520338652835261157360ff604087205416611baf565b6017805463ffffffff60a01b191660a09290921b63ffffffff60a01b16919091179055604051908152a180f35b50346102b45760203660031901126102b4576101ef6115bd611670565b6115c96101863361169c565b611a80565b50346102b457806003193601126102b4576019546040516001600160a01b039091168152602090f35b9050346102b05760203660031901126102b05760043563ffffffff60e01b8116809103610cab57602092637965db0b60e01b82149190821561163c575b505015158152f35b6301ffc9a760e01b82149250908215611659575b50503880611634565b815260048452604090205460ff1690503880611650565b600435906001600160a01b038216820361094957565b602435906001600160a01b038216820361094957565b6001600160a01b031660009081527f05b8ccbb9d4d8fb16ea74ce3c29a41f1b461fbdaff4714a0d9a8eb05499746bc602052604090205460ff1690565b60009080825260209060058252604090818420338552835260ff8285205416156117035750505050565b81519367ffffffffffffffff3360608701828111888210176119fd578552602a875285870193853686378751156119e957603085538751916001928310156119d557607860218a015360295b83811161196b57506119295790855192608084019084821090821117610e3a57865260428352868301936060368637835115611915576030855383518210156119155790607860218501536041915b8183116118a757505050611865579261183360486118249794611857946044989785519a8b936117fb8b86019a7f416363657373436f6e74726f6c3a206163636f756e74200000000000000000008c525180926037880190611a11565b8401917001034b99036b4b9b9b4b733903937b6329607d1b603784015251809386840190611a11565b01036028810189520187611a5e565b5194859362461bcd60e51b8552600485015251809281602486015285850190611a11565b601f01601f19168101030190fd5b60648585519062461bcd60e51b825280600483015260248201527f537472696e67733a20686578206c656e67746820696e73756666696369656e746044820152fd5b909192600f81166010811015611901576f181899199a1a9b1b9c1cb0b131b232b360811b901a6118d78587611b88565b5360041c9280156118ed5760001901919061179e565b634e487b7160e01b82526011600452602482fd5b634e487b7160e01b83526032600452602483fd5b634e487b7160e01b81526032600452602490fd5b60648787519062461bcd60e51b825280600483015260248201527f537472696e67733a20686578206c656e67746820696e73756666696369656e746044820152fd5b90600f811660108110156119c1576f181899199a1a9b1b9c1cb0b131b232b360811b901a611999838c611b88565b5360041c9080156119ad576000190161174f565b634e487b7160e01b86526011600452602486fd5b634e487b7160e01b87526032600452602487fd5b634e487b7160e01b85526032600452602485fd5b634e487b7160e01b84526032600452602484fd5b634e487b7160e01b84526041600452602484fd5b60005b838110611a245750506000910152565b8181015183820152602001611a14565b67ffffffffffffffff8111611a4857604052565b634e487b7160e01b600052604160045260246000fd5b90601f8019910116810190811067ffffffffffffffff821117611a4857604052565b6001600160a01b03163381036113735760008181527f05b8ccbb9d4d8fb16ea74ce3c29a41f1b461fbdaff4714a0d9a8eb05499746bc602052604081205490919060ff16611acc575050565b8180526005602052604082208183526020526040822060ff19815416905533917ff6391f5c32d9c69d2a47ea670b442974b53935d1edc7fd64eb21e047a839171b8180a4565b906000918083526005602052604083209160018060a01b03169182845260205260ff604084205416611b4357505050565b8083526005602052604083208284526020526040832060ff1981541690557ff6391f5c32d9c69d2a47ea670b442974b53935d1edc7fd64eb21e047a839171b339380a4565b908151811015611b99570160200190565b634e487b7160e01b600052603260045260246000fd5b15611bb657565b60405162461bcd60e51b815260206004820152602260248201527f41636365737369626c653a2043616c6c6572206973206e6f7420616e2061646d60448201526134b760f11b6064820152608490fd5b9081602091031261094957516001600160a01b03811681036109495790565b5190811515820361094957565b51906001600160a01b038216820361094957565b519060ff8216820361094957565b91908203918211611c6157565b634e487b7160e01b600052601160045260246000fd5b93909163ffffffff93610100969360018060a01b0392838092168852166020870152166040850152606084015216608082015260c060a0820152600260c082015261060f60f31b60e0820152019056fe2f8788117e7eff1d82e926ec794901d17c78024a50270940304540a733656f0da164736f6c6343000813000a",
  "linkReferences": {},
  "deployedLinkReferences": {}
}