{
  "_format": "hh-sol-artifact-1",
  "contractName": "DepositManagerV1_1",
  "sourceName": "contracts/stake/managers/DepositManagerV1_1.sol",
  "abi": [
    {
      "anonymous": false,
      "inputs": [
        {
          "indexed": true,
          "internalType": "bytes32",
          "name": "role",
          "type": "bytes32"
        },
        {
          "indexed": true,
          "internalType": "bytes32",
          "name": "previousAdminRole",
          "type": "bytes32"
        },
        {
          "indexed": true,
          "internalType": "bytes32",
          "name": "newAdminRole",
          "type": "bytes32"
        }
      ],
      "name": "RoleAdminChanged",
      "type": "event"
    },
    {
      "anonymous": false,
      "inputs": [
        {
          "indexed": true,
          "internalType": "bytes32",
          "name": "role",
          "type": "bytes32"
        },
        {
          "indexed": true,
          "internalType": "address",
          "name": "account",
          "type": "address"
        },
        {
          "indexed": true,
          "internalType": "address",
          "name": "sender",
          "type": "address"
        }
      ],
      "name": "RoleGranted",
      "type": "event"
    },
    {
      "anonymous": false,
      "inputs": [
        {
          "indexed": true,
          "internalType": "bytes32",
          "name": "role",
          "type": "bytes32"
        },
        {
          "indexed": true,
          "internalType": "address",
          "name": "account",
          "type": "address"
        },
        {
          "indexed": true,
          "internalType": "address",
          "name": "sender",
          "type": "address"
        }
      ],
      "name": "RoleRevoked",
      "type": "event"
    },
    {
      "anonymous": false,
      "inputs": [
        {
          "indexed": true,
          "internalType": "address",
          "name": "layer2",
          "type": "address"
        },
        {
          "indexed": false,
          "internalType": "address",
          "name": "account",
          "type": "address"
        },
        {
          "indexed": false,
          "internalType": "uint256",
          "name": "amount",
          "type": "uint256"
        }
      ],
      "name": "WithdrawalAndDeposited",
      "type": "event"
    },
    {
      "inputs": [],
      "name": "DEFAULT_ADMIN_ROLE",
      "outputs": [
        {
          "internalType": "bytes32",
          "name": "",
          "type": "bytes32"
        }
      ],
      "stateMutability": "view",
      "type": "function"
    },
    {
      "inputs": [],
      "name": "MINTER_ROLE",
      "outputs": [
        {
          "internalType": "bytes32",
          "name": "",
          "type": "bytes32"
        }
      ],
      "stateMutability": "view",
      "type": "function"
    },
    {
      "inputs": [
        {
          "internalType": "address",
          "name": "account",
          "type": "address"
        }
      ],
      "name": "addAdmin",
      "outputs": [],
      "stateMutability": "nonpayable",
      "type": "function"
    },
    {
      "inputs": [
        {
          "internalType": "address",
          "name": "",
          "type": "address"
        }
      ],
      "name": "aliveImplementation",
      "outputs": [
        {
          "internalType": "bool",
          "name": "",
          "type": "bool"
        }
      ],
      "stateMutability": "view",
      "type": "function"
    },
    {
      "inputs": [
        {
          "internalType": "bytes32",
          "name": "role",
          "type": "bytes32"
        }
      ],
      "name": "getRoleAdmin",
      "outputs": [
        {
          "internalType": "bytes32",
          "name": "",
          "type": "bytes32"
        }
      ],
      "stateMutability": "view",
      "type": "function"
    },
    {
      "inputs": [],
      "name": "globalWithdrawalDelay",
      "outputs": [
        {
          "internalType": "uint256",
          "name": "",
          "type": "uint256"
        }
      ],
      "stateMutability": "view",
      "type": "function"
    },
    {
      "inputs": [
        {
          "internalType": "bytes32",
          "name": "role",
          "type": "bytes32"
        },
        {
          "internalType": "address",
          "name": "account",
          "type": "address"
        }
      ],
      "name": "grantRole",
      "outputs": [],
      "stateMutability": "nonpayable",
      "type": "function"
    },
    {
      "inputs": [
        {
          "internalType": "bytes32",
          "name": "role",
          "type": "bytes32"
        },
        {
          "internalType": "address",
          "name": "account",
          "type": "address"
        }
      ],
      "name": "hasRole",
      "outputs": [
        {
          "internalType": "bool",
          "name": "",
          "type": "bool"
        }
      ],
      "stateMutability": "view",
      "type": "function"
    },
    {
      "inputs": [
        {
          "internalType": "address",
          "name": "account",
          "type": "address"
        }
      ],
      "name": "isAdmin",
      "outputs": [
        {
          "internalType": "bool",
          "name": "",
          "type": "bool"
        }
      ],
      "stateMutability": "view",
      "type": "function"
    },
    {
      "inputs": [],
      "name": "isOwner",
      "outputs": [
        {
          "internalType": "bool",
          "name": "",
          "type": "bool"
        }
      ],
      "stateMutability": "view",
      "type": "function"
    },
    {
      "inputs": [],
      "name": "minDepositGasLimit",
      "outputs": [
        {
          "internalType": "uint32",
          "name": "",
          "type": "uint32"
        }
      ],
      "stateMutability": "view",
      "type": "function"
    },
    {
      "inputs": [],
      "name": "oldDepositManager",
      "outputs": [
        {
          "internalType": "address",
          "name": "",
          "type": "address"
        }
      ],
      "stateMutability": "view",
      "type": "function"
    },
    {
      "inputs": [],
      "name": "pauseProxy",
      "outputs": [
        {
          "internalType": "bool",
          "name": "",
          "type": "bool"
        }
      ],
      "stateMutability": "view",
      "type": "function"
    },
    {
      "inputs": [
        {
          "internalType": "uint256",
          "name": "",
          "type": "uint256"
        }
      ],
      "name": "proxyImplementation",
      "outputs": [
        {
          "internalType": "address",
          "name": "",
          "type": "address"
        }
      ],
      "stateMutability": "view",
      "type": "function"
    },
    {
      "inputs": [
        {
          "internalType": "address",
          "name": "account",
          "type": "address"
        }
      ],
      "name": "removeAdmin",
      "outputs": [],
      "stateMutability": "nonpayable",
      "type": "function"
    },
    {
      "inputs": [],
      "name": "renounceOwnership",
      "outputs": [],
      "stateMutability": "nonpayable",
      "type": "function"
    },
    {
      "inputs": [
        {
          "internalType": "bytes32",
          "name": "role",
          "type": "bytes32"
        },
        {
          "internalType": "address",
          "name": "account",
          "type": "address"
        }
      ],
      "name": "renounceRole",
      "outputs": [],
      "stateMutability": "nonpayable",
      "type": "function"
    },
    {
      "inputs": [
        {
          "internalType": "bytes32",
          "name": "role",
          "type": "bytes32"
        },
        {
          "internalType": "address",
          "name": "account",
          "type": "address"
        }
      ],
      "name": "revokeRole",
      "outputs": [],
      "stateMutability": "nonpayable",
      "type": "function"
    },
    {
      "inputs": [
        {
          "internalType": "bytes4",
          "name": "",
          "type": "bytes4"
        }
      ],
      "name": "selectorImplementation",
      "outputs": [
        {
          "internalType": "address",
          "name": "",
          "type": "address"
        }
      ],
      "stateMutability": "view",
      "type": "function"
    },
    {
      "inputs": [
        {
          "internalType": "uint32",
          "name": "gasLimit_",
          "type": "uint32"
        }
      ],
      "name": "setMinDepositGasLimit",
      "outputs": [],
      "stateMutability": "nonpayable",
      "type": "function"
    },
    {
      "inputs": [
        {
          "internalType": "bytes4",
          "name": "interfaceId",
          "type": "bytes4"
        }
      ],
      "name": "supportsInterface",
      "outputs": [
        {
          "internalType": "bool",
          "name": "",
          "type": "bool"
        }
      ],
      "stateMutability": "view",
      "type": "function"
    },
    {
      "inputs": [],
      "name": "ton",
      "outputs": [
        {
          "internalType": "address",
          "name": "",
          "type": "address"
        }
      ],
      "stateMutability": "view",
      "type": "function"
    },
    {
      "inputs": [
        {
          "internalType": "address",
          "name": "newAdmin",
          "type": "address"
        }
      ],
      "name": "transferAdmin",
      "outputs": [],
      "stateMutability": "nonpayable",
      "type": "function"
    },
    {
      "inputs": [
        {
          "internalType": "address",
          "name": "newAdmin",
          "type": "address"
        }
      ],
      "name": "transferOwnership",
      "outputs": [],
      "stateMutability": "nonpayable",
      "type": "function"
    },
    {
      "inputs": [
        {
          "internalType": "address",
          "name": "layer2",
          "type": "address"
        },
        {
          "internalType": "uint256",
          "name": "amount",
          "type": "uint256"
        }
      ],
      "name": "withdrawAndDepositL2",
      "outputs": [
        {
          "internalType": "bool",
          "name": "",
          "type": "bool"
        }
      ],
      "stateMutability": "nonpayable",
      "type": "function"
    },
    {
      "inputs": [
        {
          "internalType": "address",
          "name": "",
          "type": "address"
        }
      ],
      "name": "withdrawalDelay",
      "outputs": [
        {
          "internalType": "uint256",
          "name": "",
          "type": "uint256"
        }
      ],
      "stateMutability": "view",
      "type": "function"
    }
  ],
  "bytecode": "0x60808060405234610016576115f1908161001c8239f35b600080fdfe608060408181526004908136101561001657600080fd5b600092833560e01c90816301ffc9a714610f2b575080631785f53c14610efd5780631c9283a314610e955780632153c23914610e6c578063248a9ca314610e4157806324d7806c14610dfb5780632f2ff15d14610d4e57806336568abe14610cbc5780634ce9703614610c8457806350d2a27614610c40578063550d01a314610c0257806363a8fd8914610be05780636ec3d5ae14610bc15780637048027514610b0c578063715018a614610ae357806375829def14610ac85780638f32d59b14610a9557806391d1485414610a4e5780639f382d11146103b6578063a217fddf1461039b578063b911135f14610368578063cc48b9471461033f578063d539139314610304578063d547741f146102ca578063dd283f971461029e5763f2fde38b1461014257600080fd5b3461029a576020806003193601126102965761015c610fac565b61016d61016833610fdd565b61154d565b61017961016833610fdd565b6001600160a01b03169283156102555783331461021b5750838052600581526101a76001838620015461101a565b83805260058152818420838552815260ff8285205416156101d0575b836101cd336113c1565b80f35b8380526005815281842083855290528220805460ff191660011790553390827f2f8788117e7eff1d82e926ec794901d17c78024a50270940304540a733656f0d8180a43880806101c3565b915162461bcd60e51b815291820152601660248201527520b1b1b2b9b9b4b136329d1039b0b6b29030b236b4b760511b6044820152606490fd5b915162461bcd60e51b815291820152601860248201527f41636365737369626c653a207a65726f206164647265737300000000000000006044820152606490fd5b8380fd5b8280fd5b8382346102c657816003193601126102c65760209063ffffffff60175460a01c169051908152f35b5080fd5b503461029a578060031936011261029a576101cd91356102ff60016102ed610fc7565b9383875260056020528620015461101a565b6114b0565b8382346102c657816003193601126102c657602090517ff0887ba65ee2024ea881d91b74c2450ef19e1557f03bed3ea9f16b037cbe2dc98152f35b8382346102c657816003193601126102c65760175490516001600160a01b039091168152602090f35b50903461029a57602036600319011261029a5735825260016020908152918190205490516001600160a01b039091168152f35b8382346102c657816003193601126102c65751908152602090f35b50903461029a578160031936011261029a576103d0610fac565b60085483516367265c3b60e11b81526001600160a01b0383811685830190815233602080830191909152976024803596939590949193928a91839182900360400190829089165afa9081156106f8579086918491610a1d575b50106109db57831694865163570ca73560e01b8152888183818a5afa9081156106f85783916109be575b508481161515806109b4575b1561097a57875163632b03ad60e01b8a820190815283825267ffffffffffffffff9291808b0184811182821017610968578b5251859283929083905af1943d15610960573d9582871161094d578951966104c2601f8201601f19168d0189611389565b87523d858c89013e5b1561091557606086805181010312610296576104e88a87016115c3565b958161050160606104fa8d85016115d0565b93016115d0565b9116968061090c575b156108d557898b8960648c89876008541695519586948593637c287fd560e11b85528c8501528d339085015260448401525af19081156108965786916108a0575b5015610859576006548a5163e3b99e8560e01b815230868201908152602081018b905290918d91839186169082908a90829060400103925af190811561089657869161085d575b501561085957601754828116156107e2575b506017548a51636eb1769f60e11b8152308682019081526001600160a01b038a166020820152633b9aca008b049992851691908e90829081906040010381855afa9081156107d85788916107a7575b50898110610706575b5050601754813b156107025791866101049263ffffffff8296958f519c8d97889663041c592960e51b88528184168d890152168d870152336044870152606486015260a01c16608484015260c060a4840152600260c484015261060f60f31b60e48401525af180156106f8576106b1575b8751338152602081018790528990899089907f84442f855a972156de649c4743a803474c4e9129c0ada9c676256add8f9f82d29080604081015b0390a25160018152f35b84116106e85750505083526106a77f84442f855a972156de649c4743a803474c4e9129c0ada9c676256add8f9f82d238808061066d565b634e487b7160e01b825260419052fd5b88513d85823e3d90fd5b8680fd5b890390898211610795578c51633950935160e01b81526001600160a01b0384168189019081526020810193909352918e91839182908b90829060400103925af1801561078b57610757575b806105fc565b8c81813d8311610784575b61076c8183611389565b810103126107025761077d906115c3565b5038610751565b503d610762565b8c513d89823e3d90fd5b634e487b7160e01b8852601187528888fd5b90508d81813d83116107d1575b6107be8183611389565b810103126107cd5751386105f3565b8780fd5b503d6107b4565b8d513d8a823e3d90fd5b848c84600654168d519283809263cc48b94760e01b82525afa90811561078b579084918e899261082c575b505016906bffffffffffffffffffffffff60a01b1617601755386105a4565b61084b9250803d10610852575b6108438183611389565b8101906115a4565b388e61080d565b503d610839565b8480fd5b90508b81813d831161088f575b6108748183611389565b8101031261088b57610885906115c3565b38610592565b8580fd5b503d61086a565b8b513d88823e3d90fd5b90508b81813d83116108ce575b6108b78183611389565b8101031261088b576108c8906115c3565b3861054b565b503d6108ad565b895162461bcd60e51b81528085018c9052601281880152712737ba1020b63637bbb2b2102630bcb2b91960711b6044820152606490fd5b5086151561050a565b885162461bcd60e51b81528084018b90526013818701527266616c736520636865636b4c3142726964676560681b6044820152606490fd5b5050634e487b7160e01b83525060419052fd5b6060956104cb565b634e487b7160e01b8752604186528787fd5b875162461bcd60e51b81528083018a9052601581860152741b9bdd081bdc195c985d1bdc8818dbdb9d1c9858dd605a1b6044820152606490fd5b50803b151561045f565b6109d59150893d8b11610852576108438183611389565b38610453565b865162461bcd60e51b8152808701899052601d818501527f7374616b656420616d6f756e7420697320696e73756666696369656e740000006044820152606490fd5b8092508a8092503d8311610a47575b610a368183611389565b8101031261029a5785905138610429565b503d610a2c565b50903461029a578160031936011261029a578160209360ff92610a6f610fc7565b90358252600586528282206001600160a01b039091168252855220549151911615158152f35b8382346102c657816003193601126102c65760ff8183806020955260058552818120338252855220541690519015158152f35b503461029a576020806003193601126102965761016d610fac565b8334610b095780600319360112610b0957610b0061016833610fdd565b6101cd336113c1565b80fd5b8382346102c6576020908160031936011261029a57610b29610fac565b91610b3661016833610fdd565b83805260058152610b4c6001838620015461101a565b838052600581528184206001600160a01b039093168085529281528184205460ff1615610b77578380f35b8380526005815281842083855290528220805460ff191660011790553390827f2f8788117e7eff1d82e926ec794901d17c78024a50270940304540a733656f0d8180a48180808380f35b8382346102c657816003193601126102c6576020906015549051908152f35b8382346102c657816003193601126102c65760ff602092541690519015158152f35b8382346102c65760203660031901126102c65760209160ff9082906001600160a01b03610c2d610fac565b1681526002855220541690519015158152f35b50903461029a57602036600319011261029a573563ffffffff60e01b811680910361029a57825260036020908152918190205490516001600160a01b039091168152f35b8382346102c65760203660031901126102c65760209181906001600160a01b03610cac610fac565b1681526016845220549051908152f35b509190346102c657826003193601126102c657610cd7610fc7565b90336001600160a01b03831603610cf357906101cd91356114b0565b608490602085519162461bcd60e51b8352820152602f60248201527f416363657373436f6e74726f6c3a2063616e206f6e6c792072656e6f756e636560448201526e103937b632b9903337b91039b2b63360891b6064820152fd5b50903461029a578160031936011261029a573590610d6a610fc7565b908284526005602052610d826001828620015461101a565b828452600560209081528185206001600160a01b039093168086529290528084205460ff1615610db0578380f35b82845260056020528084208285526020528320600160ff1982541617905533917f2f8788117e7eff1d82e926ec794901d17c78024a50270940304540a733656f0d8480a43880808380f35b8382346102c65760203660031901126102c65760ff81602093610e1c610fac565b818052600586528282206001600160a01b039091168252855220549151911615158152f35b50903461029a57602036600319011261029a5781602093600192358152600585522001549051908152f35b8382346102c657816003193601126102c65760095490516001600160a01b039091168152602090f35b50903461029a57602036600319011261029a57359063ffffffff8216820361029a5760ff610ed79184805260056020528085203386526020528420541661154d565b6017805463ffffffff60a01b191660a09290921b63ffffffff60a01b1691909117905580f35b8334610b09576020366003190112610b09576101cd610f1a610fac565b610f2661016833610fdd565b6113c1565b92919050346102965760203660031901126102965781359063ffffffff60e01b821680920361085957602094637965db0b60e01b8314938415610f73575b5050505015158152f35b6301ffc9a760e01b8414945091929091908415610f98575b5050505038808080610f69565b60ff94508252855220541638808080610f8b565b600435906001600160a01b0382168203610fc257565b600080fd5b602435906001600160a01b0382168203610fc257565b6001600160a01b031660009081527f05b8ccbb9d4d8fb16ea74ce3c29a41f1b461fbdaff4714a0d9a8eb05499746bc602052604090205460ff1690565b60009080825260209060058252604090818420338552835260ff8285205416156110445750505050565b81519367ffffffffffffffff336060870182811188821017611352578552602a8752858701938536863787511561133e576030855387519160019283101561132a57607860218a015360295b8381116112c0575061127e579085519260808401908482109082111761126a57865260428352868301936060368637835115611256576030855383518210156112565790607860218501536041915b8183116111e8575050506111a6579261117460486111659794611198946044989785519a8b9361113c8b86019a7f416363657373436f6e74726f6c3a206163636f756e74200000000000000000008c525180926037880190611366565b8401917001034b99036b4b9b9b4b733903937b6329607d1b603784015251809386840190611366565b01036028810189520187611389565b5194859362461bcd60e51b8552600485015251809281602486015285850190611366565b601f01601f19168101030190fd5b60648585519062461bcd60e51b825280600483015260248201527f537472696e67733a20686578206c656e67746820696e73756666696369656e746044820152fd5b909192600f81166010811015611242576f181899199a1a9b1b9c1cb0b131b232b360811b901a6112188587611526565b5360041c92801561122e576000190191906110df565b634e487b7160e01b82526011600452602482fd5b634e487b7160e01b83526032600452602483fd5b634e487b7160e01b81526032600452602490fd5b634e487b7160e01b85526041600452602485fd5b60648787519062461bcd60e51b825280600483015260248201527f537472696e67733a20686578206c656e67746820696e73756666696369656e746044820152fd5b90600f81166010811015611316576f181899199a1a9b1b9c1cb0b131b232b360811b901a6112ee838c611526565b5360041c9080156113025760001901611090565b634e487b7160e01b86526011600452602486fd5b634e487b7160e01b87526032600452602487fd5b634e487b7160e01b85526032600452602485fd5b634e487b7160e01b84526032600452602484fd5b634e487b7160e01b84526041600452602484fd5b60005b8381106113795750506000910152565b8181015183820152602001611369565b90601f8019910116810190811067ffffffffffffffff8211176113ab57604052565b634e487b7160e01b600052604160045260246000fd5b6001600160a01b03163381036114535760008181527f05b8ccbb9d4d8fb16ea74ce3c29a41f1b461fbdaff4714a0d9a8eb05499746bc602052604081205490919060ff1661140d575050565b8180526005602052604082208183526020526040822060ff19815416905533917ff6391f5c32d9c69d2a47ea670b442974b53935d1edc7fd64eb21e047a839171b8180a4565b60405162461bcd60e51b815260206004820152602f60248201527f416363657373436f6e74726f6c3a2063616e206f6e6c792072656e6f756e636560448201526e103937b632b9903337b91039b2b63360891b6064820152608490fd5b906000918083526005602052604083209160018060a01b03169182845260205260ff6040842054166114e157505050565b8083526005602052604083208284526020526040832060ff1981541690557ff6391f5c32d9c69d2a47ea670b442974b53935d1edc7fd64eb21e047a839171b339380a4565b908151811015611537570160200190565b634e487b7160e01b600052603260045260246000fd5b1561155457565b60405162461bcd60e51b815260206004820152602260248201527f41636365737369626c653a2043616c6c6572206973206e6f7420616e2061646d60448201526134b760f11b6064820152608490fd5b90816020910312610fc257516001600160a01b0381168103610fc25790565b51908115158203610fc257565b51906001600160a01b0382168203610fc25756fea164736f6c6343000813000a",
  "linkReferences": {},
  "deployedLinkReferences": {}
}