{
  "_format": "hh-sol-artifact-1",
  "contractName": "DepositManagerV1_1",
  "sourceName": "contracts/stake/managers/DepositManagerV1_1.sol",
  "abi": [
    {
      "anonymous": false,
      "inputs": [
        {
          "indexed": true,
          "internalType": "bytes32",
          "name": "role",
          "type": "bytes32"
        },
        {
          "indexed": true,
          "internalType": "bytes32",
          "name": "previousAdminRole",
          "type": "bytes32"
        },
        {
          "indexed": true,
          "internalType": "bytes32",
          "name": "newAdminRole",
          "type": "bytes32"
        }
      ],
      "name": "RoleAdminChanged",
      "type": "event"
    },
    {
      "anonymous": false,
      "inputs": [
        {
          "indexed": true,
          "internalType": "bytes32",
          "name": "role",
          "type": "bytes32"
        },
        {
          "indexed": true,
          "internalType": "address",
          "name": "account",
          "type": "address"
        },
        {
          "indexed": true,
          "internalType": "address",
          "name": "sender",
          "type": "address"
        }
      ],
      "name": "RoleGranted",
      "type": "event"
    },
    {
      "anonymous": false,
      "inputs": [
        {
          "indexed": true,
          "internalType": "bytes32",
          "name": "role",
          "type": "bytes32"
        },
        {
          "indexed": true,
          "internalType": "address",
          "name": "account",
          "type": "address"
        },
        {
          "indexed": true,
          "internalType": "address",
          "name": "sender",
          "type": "address"
        }
      ],
      "name": "RoleRevoked",
      "type": "event"
    },
    {
      "anonymous": false,
      "inputs": [
        {
          "indexed": true,
          "internalType": "address",
          "name": "layer2",
          "type": "address"
        },
        {
          "indexed": false,
          "internalType": "address",
          "name": "account",
          "type": "address"
        },
        {
          "indexed": false,
          "internalType": "uint256",
          "name": "amount",
          "type": "uint256"
        }
      ],
      "name": "WithdrawalAndDeposited",
      "type": "event"
    },
    {
      "inputs": [],
      "name": "DEFAULT_ADMIN_ROLE",
      "outputs": [
        {
          "internalType": "bytes32",
          "name": "",
          "type": "bytes32"
        }
      ],
      "stateMutability": "view",
      "type": "function"
    },
    {
      "inputs": [],
      "name": "MINTER_ROLE",
      "outputs": [
        {
          "internalType": "bytes32",
          "name": "",
          "type": "bytes32"
        }
      ],
      "stateMutability": "view",
      "type": "function"
    },
    {
      "inputs": [
        {
          "internalType": "address",
          "name": "account",
          "type": "address"
        }
      ],
      "name": "addAdmin",
      "outputs": [],
      "stateMutability": "nonpayable",
      "type": "function"
    },
    {
      "inputs": [
        {
          "internalType": "address",
          "name": "",
          "type": "address"
        }
      ],
      "name": "aliveImplementation",
      "outputs": [
        {
          "internalType": "bool",
          "name": "",
          "type": "bool"
        }
      ],
      "stateMutability": "view",
      "type": "function"
    },
    {
      "inputs": [
        {
          "internalType": "bytes32",
          "name": "role",
          "type": "bytes32"
        }
      ],
      "name": "getRoleAdmin",
      "outputs": [
        {
          "internalType": "bytes32",
          "name": "",
          "type": "bytes32"
        }
      ],
      "stateMutability": "view",
      "type": "function"
    },
    {
      "inputs": [],
      "name": "globalWithdrawalDelay",
      "outputs": [
        {
          "internalType": "uint256",
          "name": "",
          "type": "uint256"
        }
      ],
      "stateMutability": "view",
      "type": "function"
    },
    {
      "inputs": [
        {
          "internalType": "bytes32",
          "name": "role",
          "type": "bytes32"
        },
        {
          "internalType": "address",
          "name": "account",
          "type": "address"
        }
      ],
      "name": "grantRole",
      "outputs": [],
      "stateMutability": "nonpayable",
      "type": "function"
    },
    {
      "inputs": [
        {
          "internalType": "bytes32",
          "name": "role",
          "type": "bytes32"
        },
        {
          "internalType": "address",
          "name": "account",
          "type": "address"
        }
      ],
      "name": "hasRole",
      "outputs": [
        {
          "internalType": "bool",
          "name": "",
          "type": "bool"
        }
      ],
      "stateMutability": "view",
      "type": "function"
    },
    {
      "inputs": [
        {
          "internalType": "address",
          "name": "account",
          "type": "address"
        }
      ],
      "name": "isAdmin",
      "outputs": [
        {
          "internalType": "bool",
          "name": "",
          "type": "bool"
        }
      ],
      "stateMutability": "view",
      "type": "function"
    },
    {
      "inputs": [],
      "name": "isOwner",
      "outputs": [
        {
          "internalType": "bool",
          "name": "",
          "type": "bool"
        }
      ],
      "stateMutability": "view",
      "type": "function"
    },
    {
      "inputs": [],
      "name": "minDepositGasLimit",
      "outputs": [
        {
          "internalType": "uint256",
          "name": "",
          "type": "uint256"
        }
      ],
      "stateMutability": "view",
      "type": "function"
    },
    {
      "inputs": [],
      "name": "oldDepositManager",
      "outputs": [
        {
          "internalType": "address",
          "name": "",
          "type": "address"
        }
      ],
      "stateMutability": "view",
      "type": "function"
    },
    {
      "inputs": [],
      "name": "pauseProxy",
      "outputs": [
        {
          "internalType": "bool",
          "name": "",
          "type": "bool"
        }
      ],
      "stateMutability": "view",
      "type": "function"
    },
    {
      "inputs": [
        {
          "internalType": "uint256",
          "name": "",
          "type": "uint256"
        }
      ],
      "name": "proxyImplementation",
      "outputs": [
        {
          "internalType": "address",
          "name": "",
          "type": "address"
        }
      ],
      "stateMutability": "view",
      "type": "function"
    },
    {
      "inputs": [
        {
          "internalType": "address",
          "name": "account",
          "type": "address"
        }
      ],
      "name": "removeAdmin",
      "outputs": [],
      "stateMutability": "nonpayable",
      "type": "function"
    },
    {
      "inputs": [],
      "name": "renounceOwnership",
      "outputs": [],
      "stateMutability": "nonpayable",
      "type": "function"
    },
    {
      "inputs": [
        {
          "internalType": "bytes32",
          "name": "role",
          "type": "bytes32"
        },
        {
          "internalType": "address",
          "name": "account",
          "type": "address"
        }
      ],
      "name": "renounceRole",
      "outputs": [],
      "stateMutability": "nonpayable",
      "type": "function"
    },
    {
      "inputs": [
        {
          "internalType": "bytes32",
          "name": "role",
          "type": "bytes32"
        },
        {
          "internalType": "address",
          "name": "account",
          "type": "address"
        }
      ],
      "name": "revokeRole",
      "outputs": [],
      "stateMutability": "nonpayable",
      "type": "function"
    },
    {
      "inputs": [
        {
          "internalType": "bytes4",
          "name": "",
          "type": "bytes4"
        }
      ],
      "name": "selectorImplementation",
      "outputs": [
        {
          "internalType": "address",
          "name": "",
          "type": "address"
        }
      ],
      "stateMutability": "view",
      "type": "function"
    },
    {
      "inputs": [
        {
          "internalType": "uint256",
          "name": "gasLimit_",
          "type": "uint256"
        }
      ],
      "name": "setMinDepositGasLimit",
      "outputs": [],
      "stateMutability": "nonpayable",
      "type": "function"
    },
    {
      "inputs": [
        {
          "internalType": "bytes4",
          "name": "interfaceId",
          "type": "bytes4"
        }
      ],
      "name": "supportsInterface",
      "outputs": [
        {
          "internalType": "bool",
          "name": "",
          "type": "bool"
        }
      ],
      "stateMutability": "view",
      "type": "function"
    },
    {
      "inputs": [],
      "name": "ton",
      "outputs": [
        {
          "internalType": "address",
          "name": "",
          "type": "address"
        }
      ],
      "stateMutability": "view",
      "type": "function"
    },
    {
      "inputs": [
        {
          "internalType": "address",
          "name": "newAdmin",
          "type": "address"
        }
      ],
      "name": "transferAdmin",
      "outputs": [],
      "stateMutability": "nonpayable",
      "type": "function"
    },
    {
      "inputs": [
        {
          "internalType": "address",
          "name": "newAdmin",
          "type": "address"
        }
      ],
      "name": "transferOwnership",
      "outputs": [],
      "stateMutability": "nonpayable",
      "type": "function"
    },
    {
      "inputs": [
        {
          "internalType": "address",
          "name": "layer2",
          "type": "address"
        },
        {
          "internalType": "uint256",
          "name": "amount",
          "type": "uint256"
        }
      ],
      "name": "withdrawAndDepositL2",
      "outputs": [
        {
          "internalType": "bool",
          "name": "",
          "type": "bool"
        }
      ],
      "stateMutability": "nonpayable",
      "type": "function"
    },
    {
      "inputs": [
        {
          "internalType": "address",
          "name": "",
          "type": "address"
        }
      ],
      "name": "withdrawalDelay",
      "outputs": [
        {
          "internalType": "uint256",
          "name": "",
          "type": "uint256"
        }
      ],
      "stateMutability": "view",
      "type": "function"
    }
  ],
  "bytecode": "0x608080604052346100165761147d908161001c8239f35b600080fdfe608060408181526004908136101561001657600080fd5b600092833560e01c90816301ffc9a714610dd6575080631785f53c14610da85780632153c23914610d7f578063248a9ca314610d5457806324d7806c14610d0e5780632f2ff15d14610c6157806336568abe14610bcf5780634ce9703614610b9757806350d2a27614610b53578063550d01a314610b1557806363a8fd8914610af35780636ec3d5ae14610ad45780637048027514610a1f578063715018a6146109f957806375829def146109de5780638f32d59b146109ab57806391d148541461096457806396dd1d971461092b5780639f382d11146103ad578063a217fddf14610392578063b911135f1461035f578063cc48b94714610336578063d5391393146102fb578063d547741f146102c1578063dd283f971461029e5763f2fde38b1461014257600080fd5b3461029a576020806003193601126102965761015c610e57565b61016d61016833610e88565b6113f8565b61017961016833610e88565b6001600160a01b03169283156102555783331461021b5750838052600581526101a760018386200154610ec5565b83805260058152818420838552815260ff8285205416156101d0575b836101cd3361126c565b80f35b8380526005815281842083855290528220805460ff191660011790553390827f2f8788117e7eff1d82e926ec794901d17c78024a50270940304540a733656f0d8180a43880806101c3565b915162461bcd60e51b815291820152601660248201527520b1b1b2b9b9b4b136329d1039b0b6b29030b236b4b760511b6044820152606490fd5b915162461bcd60e51b815291820152601860248201527f41636365737369626c653a207a65726f206164647265737300000000000000006044820152606490fd5b8380fd5b8280fd5b8382346102bd57816003193601126102bd576020906018549051908152f35b5080fd5b503461029a578060031936011261029a576101cd91356102f660016102e4610e72565b93838752600560205286200154610ec5565b61135b565b8382346102bd57816003193601126102bd57602090517ff0887ba65ee2024ea881d91b74c2450ef19e1557f03bed3ea9f16b037cbe2dc98152f35b8382346102bd57816003193601126102bd5760175490516001600160a01b039091168152602090f35b50903461029a57602036600319011261029a5735825260016020908152918190205490516001600160a01b039091168152f35b8382346102bd57816003193601126102bd5751908152602090f35b5091346109285782600319360112610928576103c7610e57565b9060249384359160018060a01b03806008541693818451966367265c3b60e11b885216918288880152338988015260209560449787818a81855afa9081156108ac5790849187916108f7575b50106108b657855163570ca73560e01b815287818b81885afa9081156108ac57908392918791610870575b506060908b89518095819363632b03ad60e01b8352165afa91868388928995610819575b5061050757505050505050503d6000146104e8573d9067ffffffffffffffff82116104d6579282606497926c2bb937b733a7b832b930ba37b960991b9695600d9551916104b885601f19601f8401160184611234565b8252833d92013e5b5162461bcd60e51b815295860152840152820152fd5b634e487b7160e01b8152604186528690fd5b506064946c2bb937b733a7b832b930ba37b960991b9392600d926104c0565b9b96959993979a94989b156107e157908b8960648c898f989798519586948593637c287fd560e11b85528c8501528d3390850152898401525af19081156107a25786916107ac575b5015610769576006548a5163e3b99e8560e01b815230868201908152602081018b905290918d9183918b169082908a90829060400103925af19081156107a257869161076d575b50156107695786906018541561075d575b601754828116156106c5575b5016866017541691813b156106c1579185610104928195948d519a8b96879563041c592960e51b87528a870152168a8501523390840152633b9aca008b046064840152615208608484015260c060a4840152600260c484015261060f60f31b60e48401525af180156106b757610668575b505084513381526020810193909352507f84442f855a972156de649c4743a803474c4e9129c0ada9c676256add8f9f82d291905080604081015b0390a25160018152f35b67ffffffffffffffff84116106a757505050835261065e7f84442f855a972156de649c4743a803474c4e9129c0ada9c676256add8f9f82d23880610624565b634e487b7160e01b825260419052fd5b87513d84823e3d90fd5b8580fd5b90918c8691600654168d519283809263cc48b94760e01b82525afa9081156107535790899392918891610712575b508316906bffffffffffffffffffffffff60a01b1617601755386105b3565b80929394508e8092503d831161074c575b61072d8183611234565b8101031261074857908861074281949361144f565b906106f3565b8680fd5b503d610723565b8c513d89823e3d90fd5b620334506018556105a7565b8480fd5b90508b81813d831161079b575b6107848183611234565b810103126106c15761079590611463565b38610596565b503d61077a565b8b513d88823e3d90fd5b90508b81813d83116107da575b6107c38183611234565b810103126106c1576107d490611463565b3861054f565b503d6107b9565b5050885162461bcd60e51b81528084018b9052601281870152712737ba1020b63637bbb2b2102630bcb2b91960711b81840152606490fd5b92509350506060813d8211610868575b8161083660609383611234565b810103126107485761084781611463565b9061085e896108578c840161144f565b920161144f565b9190919338610462565b3d9150610829565b80929350898092503d83116108a5575b61088a8183611234565b810103126106c15790606061089f849361144f565b9061043e565b503d610880565b87513d88823e3d90fd5b855162461bcd60e51b8152808a01889052601d818c01527f7374616b656420616d6f756e7420697320696e73756666696369656e74000000818a0152606490fd5b809250898092503d8311610921575b6109108183611234565b810103126106c15783905138610413565b503d610906565b80fd5b503461029a57602036600319011261029a5760ff61095d918480526005602052808520338652602052842054166113f8565b3560185580f35b50903461029a578160031936011261029a578160209360ff92610985610e72565b90358252600586528282206001600160a01b039091168252855220549151911615158152f35b8382346102bd57816003193601126102bd5760ff8183806020955260058552818120338252855220541690519015158152f35b503461029a576020806003193601126102965761016d610e57565b8334610928578060031936011261092857610a1661016833610e88565b6101cd3361126c565b8382346102bd576020908160031936011261029a57610a3c610e57565b91610a4961016833610e88565b83805260058152610a5f60018386200154610ec5565b838052600581528184206001600160a01b039093168085529281528184205460ff1615610a8a578380f35b8380526005815281842083855290528220805460ff191660011790553390827f2f8788117e7eff1d82e926ec794901d17c78024a50270940304540a733656f0d8180a48180808380f35b8382346102bd57816003193601126102bd576020906015549051908152f35b8382346102bd57816003193601126102bd5760ff602092541690519015158152f35b8382346102bd5760203660031901126102bd5760209160ff9082906001600160a01b03610b40610e57565b1681526002855220541690519015158152f35b50903461029a57602036600319011261029a573563ffffffff60e01b811680910361029a57825260036020908152918190205490516001600160a01b039091168152f35b8382346102bd5760203660031901126102bd5760209181906001600160a01b03610bbf610e57565b1681526016845220549051908152f35b509190346102bd57826003193601126102bd57610bea610e72565b90336001600160a01b03831603610c0657906101cd913561135b565b608490602085519162461bcd60e51b8352820152602f60248201527f416363657373436f6e74726f6c3a2063616e206f6e6c792072656e6f756e636560448201526e103937b632b9903337b91039b2b63360891b6064820152fd5b50903461029a578160031936011261029a573590610c7d610e72565b908284526005602052610c9560018286200154610ec5565b828452600560209081528185206001600160a01b039093168086529290528084205460ff1615610cc3578380f35b82845260056020528084208285526020528320600160ff1982541617905533917f2f8788117e7eff1d82e926ec794901d17c78024a50270940304540a733656f0d8480a43880808380f35b8382346102bd5760203660031901126102bd5760ff81602093610d2f610e57565b818052600586528282206001600160a01b039091168252855220549151911615158152f35b50903461029a57602036600319011261029a5781602093600192358152600585522001549051908152f35b8382346102bd57816003193601126102bd5760095490516001600160a01b039091168152602090f35b8334610928576020366003190112610928576101cd610dc5610e57565b610dd161016833610e88565b61126c565b92919050346102965760203660031901126102965781359063ffffffff60e01b821680920361076957602094637965db0b60e01b8314938415610e1e575b5050505015158152f35b6301ffc9a760e01b8414945091929091908415610e43575b5050505038808080610e14565b60ff94508252855220541638808080610e36565b600435906001600160a01b0382168203610e6d57565b600080fd5b602435906001600160a01b0382168203610e6d57565b6001600160a01b031660009081527f05b8ccbb9d4d8fb16ea74ce3c29a41f1b461fbdaff4714a0d9a8eb05499746bc602052604090205460ff1690565b60009080825260209060058252604090818420338552835260ff828520541615610eef5750505050565b81519367ffffffffffffffff3360608701828111888210176111fd578552602a875285870193853686378751156111e957603085538751916001928310156111d557607860218a015360295b83811161116b5750611129579085519260808401908482109082111761111557865260428352868301936060368637835115611101576030855383518210156111015790607860218501536041915b81831161109357505050611051579261101f60486110109794611043946044989785519a8b93610fe78b86019a7f416363657373436f6e74726f6c3a206163636f756e74200000000000000000008c525180926037880190611211565b8401917001034b99036b4b9b9b4b733903937b6329607d1b603784015251809386840190611211565b01036028810189520187611234565b5194859362461bcd60e51b8552600485015251809281602486015285850190611211565b601f01601f19168101030190fd5b60648585519062461bcd60e51b825280600483015260248201527f537472696e67733a20686578206c656e67746820696e73756666696369656e746044820152fd5b909192600f811660108110156110ed576f181899199a1a9b1b9c1cb0b131b232b360811b901a6110c385876113d1565b5360041c9280156110d957600019019190610f8a565b634e487b7160e01b82526011600452602482fd5b634e487b7160e01b83526032600452602483fd5b634e487b7160e01b81526032600452602490fd5b634e487b7160e01b85526041600452602485fd5b60648787519062461bcd60e51b825280600483015260248201527f537472696e67733a20686578206c656e67746820696e73756666696369656e746044820152fd5b90600f811660108110156111c1576f181899199a1a9b1b9c1cb0b131b232b360811b901a611199838c6113d1565b5360041c9080156111ad5760001901610f3b565b634e487b7160e01b86526011600452602486fd5b634e487b7160e01b87526032600452602487fd5b634e487b7160e01b85526032600452602485fd5b634e487b7160e01b84526032600452602484fd5b634e487b7160e01b84526041600452602484fd5b60005b8381106112245750506000910152565b8181015183820152602001611214565b90601f8019910116810190811067ffffffffffffffff82111761125657604052565b634e487b7160e01b600052604160045260246000fd5b6001600160a01b03163381036112fe5760008181527f05b8ccbb9d4d8fb16ea74ce3c29a41f1b461fbdaff4714a0d9a8eb05499746bc602052604081205490919060ff166112b8575050565b8180526005602052604082208183526020526040822060ff19815416905533917ff6391f5c32d9c69d2a47ea670b442974b53935d1edc7fd64eb21e047a839171b8180a4565b60405162461bcd60e51b815260206004820152602f60248201527f416363657373436f6e74726f6c3a2063616e206f6e6c792072656e6f756e636560448201526e103937b632b9903337b91039b2b63360891b6064820152608490fd5b906000918083526005602052604083209160018060a01b03169182845260205260ff60408420541661138c57505050565b8083526005602052604083208284526020526040832060ff1981541690557ff6391f5c32d9c69d2a47ea670b442974b53935d1edc7fd64eb21e047a839171b339380a4565b9081518110156113e2570160200190565b634e487b7160e01b600052603260045260246000fd5b156113ff57565b60405162461bcd60e51b815260206004820152602260248201527f41636365737369626c653a2043616c6c6572206973206e6f7420616e2061646d60448201526134b760f11b6064820152608490fd5b51906001600160a01b0382168203610e6d57565b51908115158203610e6d5756fea164736f6c6343000813000a",
  "linkReferences": {},
  "deployedLinkReferences": {}
}