{
  "_format": "hh-sol-artifact-1",
  "contractName": "L2RegistryV1_1Storage",
  "sourceName": "contracts/layer2/L2RegistryV1_1Storage.sol",
  "abi": [
    {
      "inputs": [
        {
          "internalType": "address",
          "name": "",
          "type": "address"
        }
      ],
      "name": "rejectSystemConfig",
      "outputs": [
        {
          "internalType": "bool",
          "name": "",
          "type": "bool"
        }
      ],
      "stateMutability": "view",
      "type": "function"
    },
    {
      "inputs": [],
      "name": "seigniorageCommittee",
      "outputs": [
        {
          "internalType": "address",
          "name": "",
          "type": "address"
        }
      ],
      "stateMutability": "view",
      "type": "function"
    }
  ],
  "bytecode": "0x608080604052346100155760a8908161001b8239f35b600080fdfe6080806040526004361015601257600080fd5b600090813560e01c90816335583e6c14607857506386be93e314603457600080fd5b3460755760203660031901126075576004356001600160a01b0381169081900360715760408260ff92602094528084522054166040519015158152f35b5080fd5b80fd5b905034607157816003193601126071576001546001600160a01b03168152602090f3fea164736f6c6343000812000a",
  "linkReferences": {},
  "deployedLinkReferences": {}
}