{
  "_format": "hh-sol-artifact-1",
  "contractName": "Layer2Registry",
  "sourceName": "contracts/stake/Layer2Registry.sol",
  "abi": [
    {
      "anonymous": false,
      "inputs": [
        {
          "indexed": true,
          "internalType": "bytes32",
          "name": "role",
          "type": "bytes32"
        },
        {
          "indexed": true,
          "internalType": "bytes32",
          "name": "previousAdminRole",
          "type": "bytes32"
        },
        {
          "indexed": true,
          "internalType": "bytes32",
          "name": "newAdminRole",
          "type": "bytes32"
        }
      ],
      "name": "RoleAdminChanged",
      "type": "event"
    },
    {
      "anonymous": false,
      "inputs": [
        {
          "indexed": true,
          "internalType": "bytes32",
          "name": "role",
          "type": "bytes32"
        },
        {
          "indexed": true,
          "internalType": "address",
          "name": "account",
          "type": "address"
        },
        {
          "indexed": true,
          "internalType": "address",
          "name": "sender",
          "type": "address"
        }
      ],
      "name": "RoleGranted",
      "type": "event"
    },
    {
      "anonymous": false,
      "inputs": [
        {
          "indexed": true,
          "internalType": "bytes32",
          "name": "role",
          "type": "bytes32"
        },
        {
          "indexed": true,
          "internalType": "address",
          "name": "account",
          "type": "address"
        },
        {
          "indexed": true,
          "internalType": "address",
          "name": "sender",
          "type": "address"
        }
      ],
      "name": "RoleRevoked",
      "type": "event"
    },
    {
      "inputs": [],
      "name": "DEFAULT_ADMIN_ROLE",
      "outputs": [
        {
          "internalType": "bytes32",
          "name": "",
          "type": "bytes32"
        }
      ],
      "stateMutability": "view",
      "type": "function"
    },
    {
      "inputs": [],
      "name": "MINTER_ROLE",
      "outputs": [
        {
          "internalType": "bytes32",
          "name": "",
          "type": "bytes32"
        }
      ],
      "stateMutability": "view",
      "type": "function"
    },
    {
      "inputs": [],
      "name": "OPERATOR_ROLE",
      "outputs": [
        {
          "internalType": "bytes32",
          "name": "",
          "type": "bytes32"
        }
      ],
      "stateMutability": "view",
      "type": "function"
    },
    {
      "inputs": [
        {
          "internalType": "address",
          "name": "account",
          "type": "address"
        }
      ],
      "name": "addAdmin",
      "outputs": [],
      "stateMutability": "nonpayable",
      "type": "function"
    },
    {
      "inputs": [
        {
          "internalType": "address",
          "name": "account",
          "type": "address"
        }
      ],
      "name": "addMinter",
      "outputs": [],
      "stateMutability": "nonpayable",
      "type": "function"
    },
    {
      "inputs": [
        {
          "internalType": "address",
          "name": "account",
          "type": "address"
        }
      ],
      "name": "addOperator",
      "outputs": [],
      "stateMutability": "nonpayable",
      "type": "function"
    },
    {
      "inputs": [
        {
          "internalType": "address",
          "name": "",
          "type": "address"
        }
      ],
      "name": "aliveImplementation",
      "outputs": [
        {
          "internalType": "bool",
          "name": "",
          "type": "bool"
        }
      ],
      "stateMutability": "view",
      "type": "function"
    },
    {
      "inputs": [
        {
          "internalType": "address",
          "name": "layer2",
          "type": "address"
        },
        {
          "internalType": "address",
          "name": "seigManager",
          "type": "address"
        }
      ],
      "name": "deployCoinage",
      "outputs": [
        {
          "internalType": "bool",
          "name": "",
          "type": "bool"
        }
      ],
      "stateMutability": "nonpayable",
      "type": "function"
    },
    {
      "inputs": [
        {
          "internalType": "bytes32",
          "name": "role",
          "type": "bytes32"
        }
      ],
      "name": "getRoleAdmin",
      "outputs": [
        {
          "internalType": "bytes32",
          "name": "",
          "type": "bytes32"
        }
      ],
      "stateMutability": "view",
      "type": "function"
    },
    {
      "inputs": [
        {
          "internalType": "bytes32",
          "name": "role",
          "type": "bytes32"
        },
        {
          "internalType": "address",
          "name": "account",
          "type": "address"
        }
      ],
      "name": "grantRole",
      "outputs": [],
      "stateMutability": "nonpayable",
      "type": "function"
    },
    {
      "inputs": [
        {
          "internalType": "bytes32",
          "name": "role",
          "type": "bytes32"
        },
        {
          "internalType": "address",
          "name": "account",
          "type": "address"
        }
      ],
      "name": "hasRole",
      "outputs": [
        {
          "internalType": "bool",
          "name": "",
          "type": "bool"
        }
      ],
      "stateMutability": "view",
      "type": "function"
    },
    {
      "inputs": [
        {
          "internalType": "address",
          "name": "account",
          "type": "address"
        }
      ],
      "name": "isAdmin",
      "outputs": [
        {
          "internalType": "bool",
          "name": "",
          "type": "bool"
        }
      ],
      "stateMutability": "view",
      "type": "function"
    },
    {
      "inputs": [
        {
          "internalType": "address",
          "name": "account",
          "type": "address"
        }
      ],
      "name": "isMinter",
      "outputs": [
        {
          "internalType": "bool",
          "name": "",
          "type": "bool"
        }
      ],
      "stateMutability": "view",
      "type": "function"
    },
    {
      "inputs": [
        {
          "internalType": "address",
          "name": "account",
          "type": "address"
        }
      ],
      "name": "isOperator",
      "outputs": [
        {
          "internalType": "bool",
          "name": "",
          "type": "bool"
        }
      ],
      "stateMutability": "view",
      "type": "function"
    },
    {
      "inputs": [],
      "name": "isOwner",
      "outputs": [
        {
          "internalType": "bool",
          "name": "",
          "type": "bool"
        }
      ],
      "stateMutability": "view",
      "type": "function"
    },
    {
      "inputs": [
        {
          "internalType": "uint256",
          "name": "index",
          "type": "uint256"
        }
      ],
      "name": "layer2ByIndex",
      "outputs": [
        {
          "internalType": "address",
          "name": "",
          "type": "address"
        }
      ],
      "stateMutability": "view",
      "type": "function"
    },
    {
      "inputs": [
        {
          "internalType": "address",
          "name": "layer2",
          "type": "address"
        }
      ],
      "name": "layer2s",
      "outputs": [
        {
          "internalType": "bool",
          "name": "",
          "type": "bool"
        }
      ],
      "stateMutability": "view",
      "type": "function"
    },
    {
      "inputs": [],
      "name": "numLayer2s",
      "outputs": [
        {
          "internalType": "uint256",
          "name": "",
          "type": "uint256"
        }
      ],
      "stateMutability": "view",
      "type": "function"
    },
    {
      "inputs": [],
      "name": "pauseProxy",
      "outputs": [
        {
          "internalType": "bool",
          "name": "",
          "type": "bool"
        }
      ],
      "stateMutability": "view",
      "type": "function"
    },
    {
      "inputs": [
        {
          "internalType": "uint256",
          "name": "",
          "type": "uint256"
        }
      ],
      "name": "proxyImplementation",
      "outputs": [
        {
          "internalType": "address",
          "name": "",
          "type": "address"
        }
      ],
      "stateMutability": "view",
      "type": "function"
    },
    {
      "inputs": [
        {
          "internalType": "address",
          "name": "layer2",
          "type": "address"
        }
      ],
      "name": "register",
      "outputs": [
        {
          "internalType": "bool",
          "name": "",
          "type": "bool"
        }
      ],
      "stateMutability": "nonpayable",
      "type": "function"
    },
    {
      "inputs": [
        {
          "internalType": "address",
          "name": "layer2",
          "type": "address"
        },
        {
          "internalType": "address",
          "name": "seigManager",
          "type": "address"
        }
      ],
      "name": "registerAndDeployCoinage",
      "outputs": [
        {
          "internalType": "bool",
          "name": "",
          "type": "bool"
        }
      ],
      "stateMutability": "nonpayable",
      "type": "function"
    },
    {
      "inputs": [
        {
          "internalType": "address",
          "name": "layer2",
          "type": "address"
        },
        {
          "internalType": "address",
          "name": "seigManager",
          "type": "address"
        },
        {
          "internalType": "uint256",
          "name": "commissionRate",
          "type": "uint256"
        },
        {
          "internalType": "bool",
          "name": "isCommissionRateNegative",
          "type": "bool"
        }
      ],
      "name": "registerAndDeployCoinageAndSetCommissionRate",
      "outputs": [
        {
          "internalType": "bool",
          "name": "",
          "type": "bool"
        }
      ],
      "stateMutability": "nonpayable",
      "type": "function"
    },
    {
      "inputs": [
        {
          "internalType": "address",
          "name": "account",
          "type": "address"
        }
      ],
      "name": "removeAdmin",
      "outputs": [],
      "stateMutability": "nonpayable",
      "type": "function"
    },
    {
      "inputs": [
        {
          "internalType": "address",
          "name": "account",
          "type": "address"
        }
      ],
      "name": "removeMinter",
      "outputs": [],
      "stateMutability": "nonpayable",
      "type": "function"
    },
    {
      "inputs": [
        {
          "internalType": "address",
          "name": "account",
          "type": "address"
        }
      ],
      "name": "removeOperator",
      "outputs": [],
      "stateMutability": "nonpayable",
      "type": "function"
    },
    {
      "inputs": [],
      "name": "renounceMinter",
      "outputs": [],
      "stateMutability": "nonpayable",
      "type": "function"
    },
    {
      "inputs": [],
      "name": "renounceOperator",
      "outputs": [],
      "stateMutability": "nonpayable",
      "type": "function"
    },
    {
      "inputs": [],
      "name": "renounceOwnership",
      "outputs": [],
      "stateMutability": "nonpayable",
      "type": "function"
    },
    {
      "inputs": [
        {
          "internalType": "bytes32",
          "name": "role",
          "type": "bytes32"
        },
        {
          "internalType": "address",
          "name": "account",
          "type": "address"
        }
      ],
      "name": "renounceRole",
      "outputs": [],
      "stateMutability": "nonpayable",
      "type": "function"
    },
    {
      "inputs": [
        {
          "internalType": "address",
          "name": "account",
          "type": "address"
        }
      ],
      "name": "revokeMinter",
      "outputs": [],
      "stateMutability": "nonpayable",
      "type": "function"
    },
    {
      "inputs": [
        {
          "internalType": "address",
          "name": "account",
          "type": "address"
        }
      ],
      "name": "revokeOperator",
      "outputs": [],
      "stateMutability": "nonpayable",
      "type": "function"
    },
    {
      "inputs": [
        {
          "internalType": "bytes32",
          "name": "role",
          "type": "bytes32"
        },
        {
          "internalType": "address",
          "name": "account",
          "type": "address"
        }
      ],
      "name": "revokeRole",
      "outputs": [],
      "stateMutability": "nonpayable",
      "type": "function"
    },
    {
      "inputs": [
        {
          "internalType": "bytes4",
          "name": "",
          "type": "bytes4"
        }
      ],
      "name": "selectorImplementation",
      "outputs": [
        {
          "internalType": "address",
          "name": "",
          "type": "address"
        }
      ],
      "stateMutability": "view",
      "type": "function"
    },
    {
      "inputs": [
        {
          "internalType": "bytes4",
          "name": "interfaceId",
          "type": "bytes4"
        }
      ],
      "name": "supportsInterface",
      "outputs": [
        {
          "internalType": "bool",
          "name": "",
          "type": "bool"
        }
      ],
      "stateMutability": "view",
      "type": "function"
    },
    {
      "inputs": [
        {
          "internalType": "address",
          "name": "newAdmin",
          "type": "address"
        }
      ],
      "name": "transferAdmin",
      "outputs": [],
      "stateMutability": "nonpayable",
      "type": "function"
    },
    {
      "inputs": [
        {
          "internalType": "address",
          "name": "newAdmin",
          "type": "address"
        }
      ],
      "name": "transferOwnership",
      "outputs": [],
      "stateMutability": "nonpayable",
      "type": "function"
    },
    {
      "inputs": [
        {
          "internalType": "address",
          "name": "layer2",
          "type": "address"
        }
      ],
      "name": "unregister",
      "outputs": [
        {
          "internalType": "bool",
          "name": "",
          "type": "bool"
        }
      ],
      "stateMutability": "nonpayable",
      "type": "function"
    }
  ],
  "bytecode": "0x608060405234801561001057600080fd5b506119da806100206000396000f3fe608060405234801561001057600080fd5b50600436106102925760003560e01c806375829def11610160578063ac8a584a116100d8578063d53913931161008c578063f2fde38b11610071578063f2fde38b14610605578063f5b541a614610618578063fad8b32a1461063f57600080fd5b8063d5391393146105cb578063d547741f146105f257600080fd5b8063b911135f116100bd578063b911135f1461057c578063bcb1a71e146105a5578063cfbd4885146105b857600080fd5b8063ac8a584a14610540578063b7ffb1791461055357600080fd5b8063983b2d561161012f5780639870d7fe116101145780639870d7fe14610512578063a217fddf14610525578063aa271e1a1461052d57600080fd5b8063983b2d56146104f7578063986502751461050a57600080fd5b806375829def1461046157806385108604146104745780638f32d59b1461048757806391d14854146104be57600080fd5b806336568abe1161020e57806361cdc5b8116101c25780636d70f7ae116101a75780636d70f7ae146104335780637048027514610446578063715018a61461045957600080fd5b806361cdc5b8146103fa57806363a8fd891461042657600080fd5b80634420e486116101f35780634420e4861461038357806350d2a27614610396578063550d01a3146103d757600080fd5b806336568abe1461035d5780633eb2a66c1461037057600080fd5b806324d7806c116102655780632ec2c2461161024a5780632ec2c246146103245780632f2ff15d146103375780633092afd51461034a57600080fd5b806324d7806c146103095780632ab6f8db1461031c57600080fd5b806301ffc9a7146102975780630d42d497146102bf5780631785f53c146102d1578063248a9ca3146102e6575b600080fd5b6102aa6102a53660046116c1565b610652565b60405190151581526020015b60405180910390f35b6007545b6040519081526020016102b6565b6102e46102df366004611700565b610663565b005b6102c36102f436600461171d565b60009081526005602052604090206001015490565b6102aa610317366004611700565b61069f565b6102e46106df565b6102aa610332366004611700565b61070b565b6102e4610345366004611736565b61077c565b6102e4610358366004611700565b6107a6565b6102e461036b366004611736565b6107f1565b6102aa61037e366004611774565b61087d565b6102aa610391366004611700565b6109cc565b6103bf6103a43660046116c1565b6003602052600090815260409020546001600160a01b031681565b6040516001600160a01b0390911681526020016102b6565b6102aa6103e5366004611700565b60026020526000908152604090205460ff1681565b6102aa610408366004611700565b6001600160a01b031660009081526006602052604090205460ff1690565b6000546102aa9060ff1681565b6102aa610441366004611700565b610ae5565b6102e4610454366004611700565b610b25565b6102e4610b55565b6102e461046f366004611700565b610b85565b6102aa6104823660046117c7565b610c6e565b3360009081527f05b8ccbb9d4d8fb16ea74ce3c29a41f1b461fbdaff4714a0d9a8eb05499746bc602052604090205460ff166102aa565b6102aa6104cc366004611736565b60009182526005602090815260408084206001600160a01b0393909316845291905290205460ff1690565b6102e4610505366004611700565b610d89565b6102e4610dd8565b6102e4610520366004611700565b610e02565b6102c3600081565b6102aa61053b366004611700565b610e51565b6102e461054e366004611700565b610e91565b6103bf61056136600461171d565b6000908152600860205260409020546001600160a01b031690565b6103bf61058a36600461171d565b6001602052600090815260409020546001600160a01b031681565b6102aa6105b33660046117c7565b610ee0565b6102e46105c6366004611700565b611018565b6102c37ff0887ba65ee2024ea881d91b74c2450ef19e1557f03bed3ea9f16b037cbe2dc981565b6102e4610600366004611736565b611063565b6102e4610613366004611700565b611088565b6102c37f523a704056dcd17bcf83bed8b68c59416dac1119be77755efe3bde0a64e46e0c81565b6102e461064d366004611700565b6110b6565b600061065d82611105565b92915050565b61066c3361069f565b6106915760405162461bcd60e51b8152600401610688906117f5565b60405180910390fd5b61069c6000826107f1565b50565b6001600160a01b03811660009081527f05b8ccbb9d4d8fb16ea74ce3c29a41f1b461fbdaff4714a0d9a8eb05499746bc602052604081205460ff1661065d565b6107097f523a704056dcd17bcf83bed8b68c59416dac1119be77755efe3bde0a64e46e0c336107f1565b565b60006107163361069f565b6107325760405162461bcd60e51b8152600401610688906117f5565b6001600160a01b03821660009081526006602052604090205460ff1661075757600080fd5b506001600160a01b03166000908152600660205260409020805460ff19169055600190565b6000828152600560205260409020600101546107978161112a565b6107a18383611134565b505050565b6107af3361069f565b6107cb5760405162461bcd60e51b8152600401610688906117f5565b61069c7ff0887ba65ee2024ea881d91b74c2450ef19e1557f03bed3ea9f16b037cbe2dc9825b6001600160a01b038116331461086f5760405162461bcd60e51b815260206004820152602f60248201527f416363657373436f6e74726f6c3a2063616e206f6e6c792072656e6f756e636560448201527f20726f6c657320666f722073656c6600000000000000000000000000000000006064820152608401610688565b61087982826111d6565b5050565b3360009081527fca0a2f641ec05ca23127d994cf03ffc453db616acae0b86cb56bb95304d068546020526040812054859060ff168061092e5750336001600160a01b0316816001600160a01b031663570ca7356040518163ffffffff1660e01b8152600401602060405180830381865afa1580156108ff573d6000803e3d6000fd5b505050506040513d601f19601f820116820180604052508101906109239190611838565b6001600160a01b0316145b6109865760405162461bcd60e51b8152602060048201526024808201527f73656e646572206973206e6569746865722061646d696e206e6f72206f70657260448201526330ba37b960e11b6064820152608401610688565b61098f86611259565b61099857600080fd5b6109a2868661135d565b6109ab57600080fd5b6109b7868686866113cd565b6109c057600080fd5b50600195945050505050565b3360009081527fca0a2f641ec05ca23127d994cf03ffc453db616acae0b86cb56bb95304d068546020526040812054829060ff1680610a7d5750336001600160a01b0316816001600160a01b031663570ca7356040518163ffffffff1660e01b8152600401602060405180830381865afa158015610a4e573d6000803e3d6000fd5b505050506040513d601f19601f82011682018060405250810190610a729190611838565b6001600160a01b0316145b610ad55760405162461bcd60e51b8152602060048201526024808201527f73656e646572206973206e6569746865722061646d696e206e6f72206f70657260448201526330ba37b960e11b6064820152608401610688565b610ade83611259565b9392505050565b6001600160a01b03811660009081527f02634a7c777b8129955fe1824eee49ef19dfa96f2f4cb63212492c3d84eb58e6602052604081205460ff1661065d565b610b2e3361069f565b610b4a5760405162461bcd60e51b8152600401610688906117f5565b61069c60008261077c565b610b5e3361069f565b610b7a5760405162461bcd60e51b8152600401610688906117f5565b6107096000336107f1565b610b8e3361069f565b610baa5760405162461bcd60e51b8152600401610688906117f5565b6001600160a01b038116610c005760405162461bcd60e51b815260206004820152601860248201527f41636365737369626c653a207a65726f206164647265737300000000000000006044820152606401610688565b6001600160a01b0381163303610c585760405162461bcd60e51b815260206004820152601660248201527f41636365737369626c653a2073616d652061646d696e000000000000000000006044820152606401610688565b610c6360008261077c565b61069c6000336107f1565b3360009081527fca0a2f641ec05ca23127d994cf03ffc453db616acae0b86cb56bb95304d068546020526040812054839060ff1680610d1f5750336001600160a01b0316816001600160a01b031663570ca7356040518163ffffffff1660e01b8152600401602060405180830381865afa158015610cf0573d6000803e3d6000fd5b505050506040513d601f19601f82011682018060405250810190610d149190611838565b6001600160a01b0316145b610d775760405162461bcd60e51b8152602060048201526024808201527f73656e646572206973206e6569746865722061646d696e206e6f72206f70657260448201526330ba37b960e11b6064820152608401610688565b610d81848461135d565b949350505050565b610d923361069f565b610dae5760405162461bcd60e51b8152600401610688906117f5565b61069c7ff0887ba65ee2024ea881d91b74c2450ef19e1557f03bed3ea9f16b037cbe2dc98261077c565b6107097ff0887ba65ee2024ea881d91b74c2450ef19e1557f03bed3ea9f16b037cbe2dc9336107f1565b610e0b3361069f565b610e275760405162461bcd60e51b8152600401610688906117f5565b61069c7f523a704056dcd17bcf83bed8b68c59416dac1119be77755efe3bde0a64e46e0c8261077c565b6001600160a01b03811660009081527fca0a2f641ec05ca23127d994cf03ffc453db616acae0b86cb56bb95304d06854602052604081205460ff1661065d565b610e9a3361069f565b610eb65760405162461bcd60e51b8152600401610688906117f5565b61069c7f523a704056dcd17bcf83bed8b68c59416dac1119be77755efe3bde0a64e46e0c826107f1565b3360009081527fca0a2f641ec05ca23127d994cf03ffc453db616acae0b86cb56bb95304d068546020526040812054839060ff1680610f915750336001600160a01b0316816001600160a01b031663570ca7356040518163ffffffff1660e01b8152600401602060405180830381865afa158015610f62573d6000803e3d6000fd5b505050506040513d601f19601f82011682018060405250810190610f869190611838565b6001600160a01b0316145b610fe95760405162461bcd60e51b8152602060048201526024808201527f73656e646572206973206e6569746865722061646d696e206e6f72206f70657260448201526330ba37b960e11b6064820152608401610688565b610ff284611259565b610ffb57600080fd5b611005848461135d565b61100e57600080fd5b5060019392505050565b6110213361069f565b61103d5760405162461bcd60e51b8152600401610688906117f5565b61069c7ff0887ba65ee2024ea881d91b74c2450ef19e1557f03bed3ea9f16b037cbe2dc9825b60008281526005602052604090206001015461107e8161112a565b6107a183836111d6565b6110913361069f565b6110ad5760405162461bcd60e51b8152600401610688906117f5565b61069c81610b85565b6110bf3361069f565b6110db5760405162461bcd60e51b8152600401610688906117f5565b61069c7f523a704056dcd17bcf83bed8b68c59416dac1119be77755efe3bde0a64e46e0c82611063565b60006001600160e01b03198216637965db0b60e01b148061065d575061065d82611455565b61069c8133611491565b60008281526005602090815260408083206001600160a01b038516845290915290205460ff166108795760008281526005602090815260408083206001600160a01b03851684529091529020805460ff191660011790556111923390565b6001600160a01b0316816001600160a01b0316837f2f8788117e7eff1d82e926ec794901d17c78024a50270940304540a733656f0d60405160405180910390a45050565b60008281526005602090815260408083206001600160a01b038516845290915290205460ff16156108795760008281526005602090815260408083206001600160a01b0385168085529252808320805460ff1916905551339285917ff6391f5c32d9c69d2a47ea670b442974b53935d1edc7fd64eb21e047a839171b9190a45050565b6001600160a01b03811660009081526006602052604081205460ff161561127f57600080fd5b816001600160a01b031663882eed2c6040518163ffffffff1660e01b8152600401602060405180830381865afa1580156112bd573d6000803e3d6000fd5b505050506040513d601f19601f820116820180604052508101906112e19190611855565b6112ea57600080fd5b6001600160a01b0382166000818152600660209081526040808320805460ff191660019081179091556007805485526008909352908320805473ffffffffffffffffffffffffffffffffffffffff19169094179093558054909190611350908490611888565b9091555060019392505050565b60405163833a774f60e01b81526001600160a01b0383811660048301526000919083169063833a774f906024016020604051808303816000875af11580156113a9573d6000803e3d6000fd5b505050506040513d601f19601f82011682018060405250810190610ade9190611855565b60405163211276b360e11b81526001600160a01b03858116600483015260248201849052821515604483015260009190851690634224ed66906064016020604051808303816000875af1158015611428573d6000803e3d6000fd5b505050506040513d601f19601f8201168201806040525081019061144c9190611855565b95945050505050565b60006301ffc9a760e01b6001600160e01b03198316148061065d5750506001600160e01b03191660009081526004602052604090205460ff1690565b60008281526005602090815260408083206001600160a01b038516845290915290205460ff16610879576114c481611506565b6114cf836020611518565b6040516020016114e09291906118bf565b60408051601f198184030181529082905262461bcd60e51b825261068891600401611940565b606061065d6001600160a01b03831660145b60606000611527836002611973565b611532906002611888565b67ffffffffffffffff81111561154a5761154a61198a565b6040519080825280601f01601f191660200182016040528015611574576020820181803683370190505b509050600360fc1b8160008151811061158f5761158f6119a0565b60200101906001600160f81b031916908160001a905350600f60fb1b816001815181106115be576115be6119a0565b60200101906001600160f81b031916908160001a90535060006115e2846002611973565b6115ed906001611888565b90505b6001811115611672577f303132333435363738396162636465660000000000000000000000000000000085600f166010811061162e5761162e6119a0565b1a60f81b828281518110611644576116446119a0565b60200101906001600160f81b031916908160001a90535060049490941c9361166b816119b6565b90506115f0565b508315610ade5760405162461bcd60e51b815260206004820181905260248201527f537472696e67733a20686578206c656e67746820696e73756666696369656e746044820152606401610688565b6000602082840312156116d357600080fd5b81356001600160e01b031981168114610ade57600080fd5b6001600160a01b038116811461069c57600080fd5b60006020828403121561171257600080fd5b8135610ade816116eb565b60006020828403121561172f57600080fd5b5035919050565b6000806040838503121561174957600080fd5b82359150602083013561175b816116eb565b809150509250929050565b801515811461069c57600080fd5b6000806000806080858703121561178a57600080fd5b8435611795816116eb565b935060208501356117a5816116eb565b92506040850135915060608501356117bc81611766565b939692955090935050565b600080604083850312156117da57600080fd5b82356117e5816116eb565b9150602083013561175b816116eb565b60208082526023908201527f41757468436f6e74726f6c3a2043616c6c6572206973206e6f7420616e20616460408201526236b4b760e91b606082015260800190565b60006020828403121561184a57600080fd5b8151610ade816116eb565b60006020828403121561186757600080fd5b8151610ade81611766565b634e487b7160e01b600052601160045260246000fd5b8082018082111561065d5761065d611872565b60005b838110156118b657818101518382015260200161189e565b50506000910152565b7f416363657373436f6e74726f6c3a206163636f756e74200000000000000000008152600083516118f781601785016020880161189b565b7f206973206d697373696e6720726f6c6520000000000000000000000000000000601791840191820152835161193481602884016020880161189b565b01602801949350505050565b602081526000825180602084015261195f81604085016020870161189b565b601f01601f19169190910160400192915050565b808202811582820484141761065d5761065d611872565b634e487b7160e01b600052604160045260246000fd5b634e487b7160e01b600052603260045260246000fd5b6000816119c5576119c5611872565b50600019019056fea164736f6c6343000813000a",
  "linkReferences": {},
  "deployedLinkReferences": {}
}