{
  "_format": "hh-sol-artifact-1",
  "contractName": "Layer2Registry",
  "sourceName": "contracts/stake/Layer2Registry.sol",
  "abi": [
    {
      "anonymous": false,
      "inputs": [
        {
          "indexed": true,
          "internalType": "bytes32",
          "name": "role",
          "type": "bytes32"
        },
        {
          "indexed": true,
          "internalType": "bytes32",
          "name": "previousAdminRole",
          "type": "bytes32"
        },
        {
          "indexed": true,
          "internalType": "bytes32",
          "name": "newAdminRole",
          "type": "bytes32"
        }
      ],
      "name": "RoleAdminChanged",
      "type": "event"
    },
    {
      "anonymous": false,
      "inputs": [
        {
          "indexed": true,
          "internalType": "bytes32",
          "name": "role",
          "type": "bytes32"
        },
        {
          "indexed": true,
          "internalType": "address",
          "name": "account",
          "type": "address"
        },
        {
          "indexed": true,
          "internalType": "address",
          "name": "sender",
          "type": "address"
        }
      ],
      "name": "RoleGranted",
      "type": "event"
    },
    {
      "anonymous": false,
      "inputs": [
        {
          "indexed": true,
          "internalType": "bytes32",
          "name": "role",
          "type": "bytes32"
        },
        {
          "indexed": true,
          "internalType": "address",
          "name": "account",
          "type": "address"
        },
        {
          "indexed": true,
          "internalType": "address",
          "name": "sender",
          "type": "address"
        }
      ],
      "name": "RoleRevoked",
      "type": "event"
    },
    {
      "inputs": [],
      "name": "DEFAULT_ADMIN_ROLE",
      "outputs": [
        {
          "internalType": "bytes32",
          "name": "",
          "type": "bytes32"
        }
      ],
      "stateMutability": "view",
      "type": "function"
    },
    {
      "inputs": [],
      "name": "MINTER_ROLE",
      "outputs": [
        {
          "internalType": "bytes32",
          "name": "",
          "type": "bytes32"
        }
      ],
      "stateMutability": "view",
      "type": "function"
    },
    {
      "inputs": [],
      "name": "OPERATOR_ROLE",
      "outputs": [
        {
          "internalType": "bytes32",
          "name": "",
          "type": "bytes32"
        }
      ],
      "stateMutability": "view",
      "type": "function"
    },
    {
      "inputs": [
        {
          "internalType": "address",
          "name": "account",
          "type": "address"
        }
      ],
      "name": "addAdmin",
      "outputs": [],
      "stateMutability": "nonpayable",
      "type": "function"
    },
    {
      "inputs": [
        {
          "internalType": "address",
          "name": "account",
          "type": "address"
        }
      ],
      "name": "addMinter",
      "outputs": [],
      "stateMutability": "nonpayable",
      "type": "function"
    },
    {
      "inputs": [
        {
          "internalType": "address",
          "name": "account",
          "type": "address"
        }
      ],
      "name": "addOperator",
      "outputs": [],
      "stateMutability": "nonpayable",
      "type": "function"
    },
    {
      "inputs": [
        {
          "internalType": "address",
          "name": "",
          "type": "address"
        }
      ],
      "name": "aliveImplementation",
      "outputs": [
        {
          "internalType": "bool",
          "name": "",
          "type": "bool"
        }
      ],
      "stateMutability": "view",
      "type": "function"
    },
    {
      "inputs": [
        {
          "internalType": "address",
          "name": "layer2",
          "type": "address"
        },
        {
          "internalType": "address",
          "name": "seigManager",
          "type": "address"
        }
      ],
      "name": "deployCoinage",
      "outputs": [
        {
          "internalType": "bool",
          "name": "",
          "type": "bool"
        }
      ],
      "stateMutability": "nonpayable",
      "type": "function"
    },
    {
      "inputs": [
        {
          "internalType": "bytes32",
          "name": "role",
          "type": "bytes32"
        }
      ],
      "name": "getRoleAdmin",
      "outputs": [
        {
          "internalType": "bytes32",
          "name": "",
          "type": "bytes32"
        }
      ],
      "stateMutability": "view",
      "type": "function"
    },
    {
      "inputs": [
        {
          "internalType": "bytes32",
          "name": "role",
          "type": "bytes32"
        },
        {
          "internalType": "address",
          "name": "account",
          "type": "address"
        }
      ],
      "name": "grantRole",
      "outputs": [],
      "stateMutability": "nonpayable",
      "type": "function"
    },
    {
      "inputs": [
        {
          "internalType": "bytes32",
          "name": "role",
          "type": "bytes32"
        },
        {
          "internalType": "address",
          "name": "account",
          "type": "address"
        }
      ],
      "name": "hasRole",
      "outputs": [
        {
          "internalType": "bool",
          "name": "",
          "type": "bool"
        }
      ],
      "stateMutability": "view",
      "type": "function"
    },
    {
      "inputs": [
        {
          "internalType": "address",
          "name": "account",
          "type": "address"
        }
      ],
      "name": "isAdmin",
      "outputs": [
        {
          "internalType": "bool",
          "name": "",
          "type": "bool"
        }
      ],
      "stateMutability": "view",
      "type": "function"
    },
    {
      "inputs": [
        {
          "internalType": "address",
          "name": "account",
          "type": "address"
        }
      ],
      "name": "isMinter",
      "outputs": [
        {
          "internalType": "bool",
          "name": "",
          "type": "bool"
        }
      ],
      "stateMutability": "view",
      "type": "function"
    },
    {
      "inputs": [
        {
          "internalType": "address",
          "name": "account",
          "type": "address"
        }
      ],
      "name": "isOperator",
      "outputs": [
        {
          "internalType": "bool",
          "name": "",
          "type": "bool"
        }
      ],
      "stateMutability": "view",
      "type": "function"
    },
    {
      "inputs": [],
      "name": "isOwner",
      "outputs": [
        {
          "internalType": "bool",
          "name": "",
          "type": "bool"
        }
      ],
      "stateMutability": "view",
      "type": "function"
    },
    {
      "inputs": [
        {
          "internalType": "uint256",
          "name": "index",
          "type": "uint256"
        }
      ],
      "name": "layer2ByIndex",
      "outputs": [
        {
          "internalType": "address",
          "name": "",
          "type": "address"
        }
      ],
      "stateMutability": "view",
      "type": "function"
    },
    {
      "inputs": [
        {
          "internalType": "address",
          "name": "layer2",
          "type": "address"
        }
      ],
      "name": "layer2s",
      "outputs": [
        {
          "internalType": "bool",
          "name": "",
          "type": "bool"
        }
      ],
      "stateMutability": "view",
      "type": "function"
    },
    {
      "inputs": [],
      "name": "numLayer2s",
      "outputs": [
        {
          "internalType": "uint256",
          "name": "",
          "type": "uint256"
        }
      ],
      "stateMutability": "view",
      "type": "function"
    },
    {
      "inputs": [],
      "name": "pauseProxy",
      "outputs": [
        {
          "internalType": "bool",
          "name": "",
          "type": "bool"
        }
      ],
      "stateMutability": "view",
      "type": "function"
    },
    {
      "inputs": [
        {
          "internalType": "uint256",
          "name": "",
          "type": "uint256"
        }
      ],
      "name": "proxyImplementation",
      "outputs": [
        {
          "internalType": "address",
          "name": "",
          "type": "address"
        }
      ],
      "stateMutability": "view",
      "type": "function"
    },
    {
      "inputs": [
        {
          "internalType": "address",
          "name": "layer2",
          "type": "address"
        }
      ],
      "name": "register",
      "outputs": [
        {
          "internalType": "bool",
          "name": "",
          "type": "bool"
        }
      ],
      "stateMutability": "nonpayable",
      "type": "function"
    },
    {
      "inputs": [
        {
          "internalType": "address",
          "name": "layer2",
          "type": "address"
        },
        {
          "internalType": "address",
          "name": "seigManager",
          "type": "address"
        }
      ],
      "name": "registerAndDeployCoinage",
      "outputs": [
        {
          "internalType": "bool",
          "name": "",
          "type": "bool"
        }
      ],
      "stateMutability": "nonpayable",
      "type": "function"
    },
    {
      "inputs": [
        {
          "internalType": "address",
          "name": "layer2",
          "type": "address"
        },
        {
          "internalType": "address",
          "name": "seigManager",
          "type": "address"
        },
        {
          "internalType": "uint256",
          "name": "commissionRate",
          "type": "uint256"
        },
        {
          "internalType": "bool",
          "name": "isCommissionRateNegative",
          "type": "bool"
        }
      ],
      "name": "registerAndDeployCoinageAndSetCommissionRate",
      "outputs": [
        {
          "internalType": "bool",
          "name": "",
          "type": "bool"
        }
      ],
      "stateMutability": "nonpayable",
      "type": "function"
    },
    {
      "inputs": [
        {
          "internalType": "address",
          "name": "account",
          "type": "address"
        }
      ],
      "name": "removeAdmin",
      "outputs": [],
      "stateMutability": "nonpayable",
      "type": "function"
    },
    {
      "inputs": [
        {
          "internalType": "address",
          "name": "account",
          "type": "address"
        }
      ],
      "name": "removeMinter",
      "outputs": [],
      "stateMutability": "nonpayable",
      "type": "function"
    },
    {
      "inputs": [
        {
          "internalType": "address",
          "name": "account",
          "type": "address"
        }
      ],
      "name": "removeOperator",
      "outputs": [],
      "stateMutability": "nonpayable",
      "type": "function"
    },
    {
      "inputs": [],
      "name": "renounceMinter",
      "outputs": [],
      "stateMutability": "nonpayable",
      "type": "function"
    },
    {
      "inputs": [],
      "name": "renounceOperator",
      "outputs": [],
      "stateMutability": "nonpayable",
      "type": "function"
    },
    {
      "inputs": [],
      "name": "renounceOwnership",
      "outputs": [],
      "stateMutability": "nonpayable",
      "type": "function"
    },
    {
      "inputs": [
        {
          "internalType": "bytes32",
          "name": "role",
          "type": "bytes32"
        },
        {
          "internalType": "address",
          "name": "account",
          "type": "address"
        }
      ],
      "name": "renounceRole",
      "outputs": [],
      "stateMutability": "nonpayable",
      "type": "function"
    },
    {
      "inputs": [
        {
          "internalType": "address",
          "name": "account",
          "type": "address"
        }
      ],
      "name": "revokeMinter",
      "outputs": [],
      "stateMutability": "nonpayable",
      "type": "function"
    },
    {
      "inputs": [
        {
          "internalType": "address",
          "name": "account",
          "type": "address"
        }
      ],
      "name": "revokeOperator",
      "outputs": [],
      "stateMutability": "nonpayable",
      "type": "function"
    },
    {
      "inputs": [
        {
          "internalType": "bytes32",
          "name": "role",
          "type": "bytes32"
        },
        {
          "internalType": "address",
          "name": "account",
          "type": "address"
        }
      ],
      "name": "revokeRole",
      "outputs": [],
      "stateMutability": "nonpayable",
      "type": "function"
    },
    {
      "inputs": [
        {
          "internalType": "bytes4",
          "name": "",
          "type": "bytes4"
        }
      ],
      "name": "selectorImplementation",
      "outputs": [
        {
          "internalType": "address",
          "name": "",
          "type": "address"
        }
      ],
      "stateMutability": "view",
      "type": "function"
    },
    {
      "inputs": [
        {
          "internalType": "bytes4",
          "name": "interfaceId",
          "type": "bytes4"
        }
      ],
      "name": "supportsInterface",
      "outputs": [
        {
          "internalType": "bool",
          "name": "",
          "type": "bool"
        }
      ],
      "stateMutability": "view",
      "type": "function"
    },
    {
      "inputs": [
        {
          "internalType": "address",
          "name": "newAdmin",
          "type": "address"
        }
      ],
      "name": "transferAdmin",
      "outputs": [],
      "stateMutability": "nonpayable",
      "type": "function"
    },
    {
      "inputs": [
        {
          "internalType": "address",
          "name": "newAdmin",
          "type": "address"
        }
      ],
      "name": "transferOwnership",
      "outputs": [],
      "stateMutability": "nonpayable",
      "type": "function"
    },
    {
      "inputs": [
        {
          "internalType": "address",
          "name": "layer2",
          "type": "address"
        }
      ],
      "name": "unregister",
      "outputs": [
        {
          "internalType": "bool",
          "name": "",
          "type": "bool"
        }
      ],
      "stateMutability": "nonpayable",
      "type": "function"
    }
  ],
  "bytecode": "0x608060405234801561001057600080fd5b506116ce806100206000396000f3fe608060405234801561001057600080fd5b50600436106102325760003560e01c806375829def11610130578063ac8a584a116100b8578063d53913931161007c578063d539139314610516578063d547741f1461052b578063f2fde38b1461053e578063f5b541a614610551578063fad8b32a1461056657600080fd5b8063ac8a584a1461048b578063b7ffb1791461049e578063b911135f146104c7578063bcb1a71e146104f0578063cfbd48851461050357600080fd5b8063983b2d56116100ff578063983b2d561461044257806398650275146104555780639870d7fe1461045d578063a217fddf14610470578063aa271e1a1461047857600080fd5b806375829def1461040157806385108604146104145780638f32d59b1461042757806391d148541461042f57600080fd5b806336568abe116101be57806361cdc5b81161018257806361cdc5b81461039a57806363a8fd89146103c65780636d70f7ae146103d357806370480275146103e6578063715018a6146103f957600080fd5b806336568abe146102fd5780633eb2a66c146103105780634420e4861461032357806350d2a27614610336578063550d01a31461037757600080fd5b806324d7806c1161020557806324d7806c146102a95780632ab6f8db146102bc5780632ec2c246146102c45780632f2ff15d146102d75780633092afd5146102ea57600080fd5b806301ffc9a7146102375780630d42d4971461025f5780631785f53c14610271578063248a9ca314610286575b600080fd5b61024a61024536600461133d565b610579565b60405190151581526020015b60405180910390f35b6007545b604051908152602001610256565b61028461027f36600461137c565b61058a565b005b610263610294366004611399565b60009081526005602052604090206001015490565b61024a6102b736600461137c565b6105c6565b6102846105d2565b61024a6102d236600461137c565b6105ec565b6102846102e53660046113b2565b61065d565b6102846102f836600461137c565b610687565b61028461030b3660046113b2565b6106c0565b61024a61031e3660046113f0565b61073e565b61024a61033136600461137c565b610838565b61035f61034436600461133d565b6003602052600090815260409020546001600160a01b031681565b6040516001600160a01b039091168152602001610256565b61024a61038536600461137c565b60026020526000908152604090205460ff1681565b61024a6103a836600461137c565b6001600160a01b031660009081526006602052604090205460ff1690565b60005461024a9060ff1681565b61024a6103e136600461137c565b6108fc565b6102846103f436600461137c565b610916565b610284610946565b61028461040f36600461137c565b610976565b61024a610422366004611443565b610a58565b61024a610b1e565b61024a61043d3660046113b2565b610b2f565b61028461045036600461137c565b610b5a565b610284610b97565b61028461046b36600461137c565b610baf565b610263600081565b61024a61048636600461137c565b610bec565b61028461049936600461137c565b610c06565b61035f6104ac366004611399565b6000908152600860205260409020546001600160a01b031690565b61035f6104d5366004611399565b6001602052600090815260409020546001600160a01b031681565b61024a6104fe366004611443565b610c43565b61028461051136600461137c565b610d26565b61026360008051602061168283398151915281565b6102846105393660046113b2565b610d5f565b61028461054c36600461137c565b610d84565b6102636000805160206116a283398151915281565b61028461057436600461137c565b610db2565b600061058482610def565b92915050565b610593336105c6565b6105b85760405162461bcd60e51b81526004016105af90611471565b60405180910390fd5b6105c36000826106c0565b50565b60006105848183610b2f565b6105ea6000805160206116a2833981519152336106c0565b565b60006105f7336105c6565b6106135760405162461bcd60e51b81526004016105af90611471565b6001600160a01b03821660009081526006602052604090205460ff1661063857600080fd5b506001600160a01b03166000908152600660205260409020805460ff19169055600190565b60008281526005602052604090206001015461067881610e14565b6106828383610e1e565b505050565b610690336105c6565b6106ac5760405162461bcd60e51b81526004016105af90611471565b6105c3600080516020611682833981519152825b6001600160a01b03811633146107305760405162461bcd60e51b815260206004820152602f60248201527f416363657373436f6e74726f6c3a2063616e206f6e6c792072656e6f756e636560448201526e103937b632b9903337b91039b2b63360891b60648201526084016105af565b61073a8282610ea4565b5050565b60008461075960008051602061168283398151915233610b2f565b806107d65750336001600160a01b0316816001600160a01b031663570ca7356040518163ffffffff1660e01b8152600401602060405180830381865afa1580156107a7573d6000803e3d6000fd5b505050506040513d601f19601f820116820180604052508101906107cb91906114b4565b6001600160a01b0316145b6107f25760405162461bcd60e51b81526004016105af906114d1565b6107fb86610f0b565b61080457600080fd5b61080e8686611002565b61081757600080fd5b61082386868686611072565b61082c57600080fd5b50600195945050505050565b60008161085360008051602061168283398151915233610b2f565b806108d05750336001600160a01b0316816001600160a01b031663570ca7356040518163ffffffff1660e01b8152600401602060405180830381865afa1580156108a1573d6000803e3d6000fd5b505050506040513d601f19601f820116820180604052508101906108c591906114b4565b6001600160a01b0316145b6108ec5760405162461bcd60e51b81526004016105af906114d1565b6108f583610f0b565b9392505050565b60006105846000805160206116a283398151915283610b2f565b61091f336105c6565b61093b5760405162461bcd60e51b81526004016105af90611471565b6105c360008261065d565b61094f336105c6565b61096b5760405162461bcd60e51b81526004016105af90611471565b6105ea6000336106c0565b61097f336105c6565b61099b5760405162461bcd60e51b81526004016105af90611471565b6001600160a01b0381166109f15760405162461bcd60e51b815260206004820152601860248201527f41636365737369626c653a207a65726f2061646472657373000000000000000060448201526064016105af565b6001600160a01b0381163303610a425760405162461bcd60e51b815260206004820152601660248201527520b1b1b2b9b9b4b136329d1039b0b6b29030b236b4b760511b60448201526064016105af565b610a4d60008261065d565b6105c36000336106c0565b600082610a7360008051602061168283398151915233610b2f565b80610af05750336001600160a01b0316816001600160a01b031663570ca7356040518163ffffffff1660e01b8152600401602060405180830381865afa158015610ac1573d6000803e3d6000fd5b505050506040513d601f19601f82011682018060405250810190610ae591906114b4565b6001600160a01b0316145b610b0c5760405162461bcd60e51b81526004016105af906114d1565b610b168484611002565b949350505050565b6000610b2a8133610b2f565b905090565b60009182526005602090815260408084206001600160a01b0393909316845291905290205460ff1690565b610b63336105c6565b610b7f5760405162461bcd60e51b81526004016105af90611471565b6105c36000805160206116828339815191528261065d565b6105ea600080516020611682833981519152336106c0565b610bb8336105c6565b610bd45760405162461bcd60e51b81526004016105af90611471565b6105c36000805160206116a28339815191528261065d565b600061058460008051602061168283398151915283610b2f565b610c0f336105c6565b610c2b5760405162461bcd60e51b81526004016105af90611471565b6105c36000805160206116a2833981519152826106c0565b600082610c5e60008051602061168283398151915233610b2f565b80610cdb5750336001600160a01b0316816001600160a01b031663570ca7356040518163ffffffff1660e01b8152600401602060405180830381865afa158015610cac573d6000803e3d6000fd5b505050506040513d601f19601f82011682018060405250810190610cd091906114b4565b6001600160a01b0316145b610cf75760405162461bcd60e51b81526004016105af906114d1565b610d0084610f0b565b610d0957600080fd5b610d138484611002565b610d1c57600080fd5b5060019392505050565b610d2f336105c6565b610d4b5760405162461bcd60e51b81526004016105af90611471565b6105c3600080516020611682833981519152825b600082815260056020526040902060010154610d7a81610e14565b6106828383610ea4565b610d8d336105c6565b610da95760405162461bcd60e51b81526004016105af90611471565b6105c381610976565b610dbb336105c6565b610dd75760405162461bcd60e51b81526004016105af90611471565b6105c36000805160206116a283398151915282610d5f565b60006001600160e01b03198216637965db0b60e01b14806105845750610584826110fa565b6105c38133611136565b610e288282610b2f565b61073a5760008281526005602090815260408083206001600160a01b03851684529091529020805460ff19166001179055610e603390565b6001600160a01b0316816001600160a01b0316837f2f8788117e7eff1d82e926ec794901d17c78024a50270940304540a733656f0d60405160405180910390a45050565b610eae8282610b2f565b1561073a5760008281526005602090815260408083206001600160a01b0385168085529252808320805460ff1916905551339285917ff6391f5c32d9c69d2a47ea670b442974b53935d1edc7fd64eb21e047a839171b9190a45050565b6001600160a01b03811660009081526006602052604081205460ff1615610f3157600080fd5b816001600160a01b031663882eed2c6040518163ffffffff1660e01b8152600401602060405180830381865afa158015610f6f573d6000803e3d6000fd5b505050506040513d601f19601f82011682018060405250810190610f939190611515565b610f9c57600080fd5b6001600160a01b0382166000818152600660209081526040808320805460ff19166001908117909155600780548552600890935290832080546001600160a01b0319169094179093558054909190610ff5908490611548565b9091555060019392505050565b60405163833a774f60e01b81526001600160a01b0383811660048301526000919083169063833a774f906024016020604051808303816000875af115801561104e573d6000803e3d6000fd5b505050506040513d601f19601f820116820180604052508101906108f59190611515565b60405163211276b360e11b81526001600160a01b03858116600483015260248201849052821515604483015260009190851690634224ed66906064016020604051808303816000875af11580156110cd573d6000803e3d6000fd5b505050506040513d601f19601f820116820180604052508101906110f19190611515565b95945050505050565b60006301ffc9a760e01b6001600160e01b0319831614806105845750506001600160e01b03191660009081526004602052604090205460ff1690565b6111408282610b2f565b61073a5761114d8161118f565b6111588360206111a1565b60405160200161116992919061157f565b60408051601f198184030181529082905262461bcd60e51b82526105af916004016115f4565b60606105846001600160a01b03831660145b606060006111b0836002611627565b6111bb906002611548565b67ffffffffffffffff8111156111d3576111d361163e565b6040519080825280601f01601f1916602001820160405280156111fd576020820181803683370190505b509050600360fc1b8160008151811061121857611218611654565b60200101906001600160f81b031916908160001a905350600f60fb1b8160018151811061124757611247611654565b60200101906001600160f81b031916908160001a905350600061126b846002611627565b611276906001611548565b90505b60018111156112ee576f181899199a1a9b1b9c1cb0b131b232b360811b85600f16601081106112aa576112aa611654565b1a60f81b8282815181106112c0576112c0611654565b60200101906001600160f81b031916908160001a90535060049490941c936112e78161166a565b9050611279565b5083156108f55760405162461bcd60e51b815260206004820181905260248201527f537472696e67733a20686578206c656e67746820696e73756666696369656e7460448201526064016105af565b60006020828403121561134f57600080fd5b81356001600160e01b0319811681146108f557600080fd5b6001600160a01b03811681146105c357600080fd5b60006020828403121561138e57600080fd5b81356108f581611367565b6000602082840312156113ab57600080fd5b5035919050565b600080604083850312156113c557600080fd5b8235915060208301356113d781611367565b809150509250929050565b80151581146105c357600080fd5b6000806000806080858703121561140657600080fd5b843561141181611367565b9350602085013561142181611367565b9250604085013591506060850135611438816113e2565b939692955090935050565b6000806040838503121561145657600080fd5b823561146181611367565b915060208301356113d781611367565b60208082526023908201527f41757468436f6e74726f6c3a2043616c6c6572206973206e6f7420616e20616460408201526236b4b760e91b606082015260800190565b6000602082840312156114c657600080fd5b81516108f581611367565b60208082526024908201527f73656e646572206973206e6569746865722061646d696e206e6f72206f70657260408201526330ba37b960e11b606082015260800190565b60006020828403121561152757600080fd5b81516108f5816113e2565b634e487b7160e01b600052601160045260246000fd5b8082018082111561058457610584611532565b60005b8381101561157657818101518382015260200161155e565b50506000910152565b7f416363657373436f6e74726f6c3a206163636f756e74200000000000000000008152600083516115b781601785016020880161155b565b7001034b99036b4b9b9b4b733903937b6329607d1b60179184019182015283516115e881602884016020880161155b565b01602801949350505050565b602081526000825180602084015261161381604085016020870161155b565b601f01601f19169190910160400192915050565b808202811582820484141761058457610584611532565b634e487b7160e01b600052604160045260246000fd5b634e487b7160e01b600052603260045260246000fd5b60008161167957611679611532565b50600019019056fef0887ba65ee2024ea881d91b74c2450ef19e1557f03bed3ea9f16b037cbe2dc9523a704056dcd17bcf83bed8b68c59416dac1119be77755efe3bde0a64e46e0ca164736f6c6343000813000a",
  "linkReferences": {},
  "deployedLinkReferences": {}
}