{
  "_format": "hh-sol-artifact-1",
  "contractName": "OperatorManagerStorage",
  "sourceName": "contracts/layer2/OperatorManagerStorage.sol",
  "abi": [
    {
      "inputs": [],
      "name": "depositManager",
      "outputs": [
        {
          "internalType": "address",
          "name": "",
          "type": "address"
        }
      ],
      "stateMutability": "view",
      "type": "function"
    },
    {
      "inputs": [],
      "name": "explorer",
      "outputs": [
        {
          "internalType": "string",
          "name": "",
          "type": "string"
        }
      ],
      "stateMutability": "view",
      "type": "function"
    },
    {
      "inputs": [],
      "name": "layer2Manager",
      "outputs": [
        {
          "internalType": "address",
          "name": "",
          "type": "address"
        }
      ],
      "stateMutability": "view",
      "type": "function"
    },
    {
      "inputs": [],
      "name": "manager",
      "outputs": [
        {
          "internalType": "address",
          "name": "",
          "type": "address"
        }
      ],
      "stateMutability": "view",
      "type": "function"
    },
    {
      "inputs": [],
      "name": "rollupConfig",
      "outputs": [
        {
          "internalType": "address",
          "name": "",
          "type": "address"
        }
      ],
      "stateMutability": "view",
      "type": "function"
    },
    {
      "inputs": [],
      "name": "ton",
      "outputs": [
        {
          "internalType": "address",
          "name": "",
          "type": "address"
        }
      ],
      "stateMutability": "view",
      "type": "function"
    },
    {
      "inputs": [],
      "name": "wton",
      "outputs": [
        {
          "internalType": "address",
          "name": "",
          "type": "address"
        }
      ],
      "stateMutability": "view",
      "type": "function"
    }
  ],
  "bytecode": "0x60808060405234610016576102d6908161001c8239f35b600080fdfe60806040818152600436101561001457600080fd5b600091823560e01c90816312629ae3146101615750806316b5d5bd14610139578063481c6a75146101115780636c7ac9d8146100e95780638d62d949146100c1578063a99d362e1461009a5763cc48b9471461006f57600080fd5b3461009657816003193601126100965760035490516001600160a01b039091168152602090f35b5080fd5b5034610096578160031936011261009657905490516001600160a01b039091168152602090f35b503461009657816003193601126100965760045490516001600160a01b039091168152602090f35b503461009657816003193601126100965760025490516001600160a01b039091168152602090f35b503461009657816003193601126100965760055490516001600160a01b039091168152602090f35b503461009657816003193601126100965760015490516001600160a01b039091168152602090f35b919050346102c557826003193601126102c55782916006549360019385851c948087169687156102bb575b60209788881081146102a75787865288929181156102885750600114610232575b505082939450601f801994859203011682019482861067ffffffffffffffff87111761021e5785929391838652818452845191828186015281955b8387106102065750508394508582601f949501015201168101030190f35b868101820151898801890152958101958895506101e8565b634e487b7160e01b82526041600452602482fd5b6006845290915082907ff652222313e28459528d920b65115c16c04f3efc82aaedc97be59f3f377c0d3f5b878310610275575094955085945083010185386101ad565b805486840185015291830191810161025d565b60ff191683870152509495869550151560051b840101905085386101ad565b634e487b7160e01b85526022600452602485fd5b95607f169561018c565b8280fdfea164736f6c6343000813000a",
  "linkReferences": {},
  "deployedLinkReferences": {}
}