{
  "_format": "hh-sol-artifact-1",
  "contractName": "OperatorManagerStorage",
  "sourceName": "contracts/layer2/OperatorManagerStorage.sol",
  "abi": [
    {
      "inputs": [],
      "name": "additionalNotes",
      "outputs": [
        {
          "internalType": "string",
          "name": "",
          "type": "string"
        }
      ],
      "stateMutability": "view",
      "type": "function"
    },
    {
      "inputs": [],
      "name": "depositManager",
      "outputs": [
        {
          "internalType": "address",
          "name": "",
          "type": "address"
        }
      ],
      "stateMutability": "view",
      "type": "function"
    },
    {
      "inputs": [],
      "name": "l2Info",
      "outputs": [
        {
          "internalType": "string",
          "name": "",
          "type": "string"
        }
      ],
      "stateMutability": "view",
      "type": "function"
    },
    {
      "inputs": [],
      "name": "layer2Manager",
      "outputs": [
        {
          "internalType": "address",
          "name": "",
          "type": "address"
        }
      ],
      "stateMutability": "view",
      "type": "function"
    },
    {
      "inputs": [],
      "name": "manager",
      "outputs": [
        {
          "internalType": "address",
          "name": "",
          "type": "address"
        }
      ],
      "stateMutability": "view",
      "type": "function"
    },
    {
      "inputs": [],
      "name": "rollupConfig",
      "outputs": [
        {
          "internalType": "address",
          "name": "",
          "type": "address"
        }
      ],
      "stateMutability": "view",
      "type": "function"
    },
    {
      "inputs": [],
      "name": "ton",
      "outputs": [
        {
          "internalType": "address",
          "name": "",
          "type": "address"
        }
      ],
      "stateMutability": "view",
      "type": "function"
    },
    {
      "inputs": [],
      "name": "wton",
      "outputs": [
        {
          "internalType": "address",
          "name": "",
          "type": "address"
        }
      ],
      "stateMutability": "view",
      "type": "function"
    }
  ],
  "bytecode": "0x60808060405234610016576103bf908161001c8239f35b600080fdfe60806040908082526004918236101561001757600080fd5b600091823560e01c90816316b5d5bd1461034457508063481c6a751461031c57806360de1332146102435780636c7ac9d81461021b5780638d62d949146101ef578063a99d362e146101c8578063cc48b947146101a05763dde3ebad1461007d57600080fd5b3461019c578160031936011261019c5780519082600754600181811c90808316928315610192575b602093848410811461017f57838852908115610163575060011461010d575b505050829003601f01601f191682019267ffffffffffffffff8411838510176100fa57508291826100f6925282610369565b0390f35b634e487b7160e01b815260418552602490fd5b600787529192508591837fa66cc928b5edb82af9bd49922954155ab7b0942694bea4ce44661d9a8736c6885b83851061014f57505050508301013880806100c4565b805488860183015293019284908201610139565b60ff1916878501525050151560051b84010190503880806100c4565b634e487b7160e01b895260228a52602489fd5b91607f16916100a5565b5080fd5b503461019c578160031936011261019c5760035490516001600160a01b039091168152602090f35b503461019c578160031936011261019c57905490516001600160a01b039091168152602090f35b5082346102175782600319360112610217575490516001600160a01b03909116815260209150f35b8280fd5b503461019c578160031936011261019c5760025490516001600160a01b039091168152602090f35b503461019c578160031936011261019c5780519082600654600181811c90808316928315610312575b602093848410811461017f5783885290811561016357506001146102bc57505050829003601f01601f191682019267ffffffffffffffff8411838510176100fa57508291826100f6925282610369565b600687529192508591837ff652222313e28459528d920b65115c16c04f3efc82aaedc97be59f3f377c0d3f5b8385106102fe57505050508301013880806100c4565b8054888601830152930192849082016102e8565b91607f169161026c565b503461019c578160031936011261019c5760055490516001600160a01b039091168152602090f35b83903461019c578160031936011261019c576001546001600160a01b03168152602090f35b6020808252825181830181905290939260005b82811061039e57505060409293506000838284010152601f8019910116010190565b81810186015184820160400152850161037c56fea164736f6c6343000813000a",
  "linkReferences": {},
  "deployedLinkReferences": {}
}