{
  "_format": "hh-sol-artifact-1",
  "contractName": "DAOCommitteeExtend",
  "sourceName": "contracts/dao/DAOCommitteeExtend.sol",
  "abi": [
    {
      "anonymous": false,
      "inputs": [
        {
          "indexed": false,
          "internalType": "uint256",
          "name": "newReward",
          "type": "uint256"
        }
      ],
      "name": "ActivityRewardChanged",
      "type": "event"
    },
    {
      "anonymous": false,
      "inputs": [
        {
          "indexed": true,
          "internalType": "address",
          "name": "from",
          "type": "address"
        },
        {
          "indexed": true,
          "internalType": "uint256",
          "name": "id",
          "type": "uint256"
        },
        {
          "indexed": false,
          "internalType": "address[]",
          "name": "targets",
          "type": "address[]"
        },
        {
          "indexed": false,
          "internalType": "uint128",
          "name": "noticePeriodSeconds",
          "type": "uint128"
        },
        {
          "indexed": false,
          "internalType": "uint128",
          "name": "votingPeriodSeconds",
          "type": "uint128"
        },
        {
          "indexed": false,
          "internalType": "bool",
          "name": "atomicExecute",
          "type": "bool"
        }
      ],
      "name": "AgendaCreated",
      "type": "event"
    },
    {
      "anonymous": false,
      "inputs": [
        {
          "indexed": true,
          "internalType": "uint256",
          "name": "id",
          "type": "uint256"
        },
        {
          "indexed": false,
          "internalType": "address[]",
          "name": "target",
          "type": "address[]"
        }
      ],
      "name": "AgendaExecuted",
      "type": "event"
    },
    {
      "anonymous": false,
      "inputs": [
        {
          "indexed": true,
          "internalType": "address",
          "name": "from",
          "type": "address"
        },
        {
          "indexed": true,
          "internalType": "uint256",
          "name": "id",
          "type": "uint256"
        },
        {
          "indexed": false,
          "internalType": "uint256",
          "name": "voting",
          "type": "uint256"
        },
        {
          "indexed": false,
          "internalType": "string",
          "name": "comment",
          "type": "string"
        }
      ],
      "name": "AgendaVoteCasted",
      "type": "event"
    },
    {
      "anonymous": false,
      "inputs": [
        {
          "indexed": true,
          "internalType": "address",
          "name": "candidate",
          "type": "address"
        },
        {
          "indexed": true,
          "internalType": "address",
          "name": "candidateContract",
          "type": "address"
        },
        {
          "indexed": false,
          "internalType": "string",
          "name": "memo",
          "type": "string"
        }
      ],
      "name": "CandidateContractCreated",
      "type": "event"
    },
    {
      "anonymous": false,
      "inputs": [
        {
          "indexed": true,
          "internalType": "uint256",
          "name": "slotIndex",
          "type": "uint256"
        },
        {
          "indexed": false,
          "internalType": "address",
          "name": "prevMember",
          "type": "address"
        },
        {
          "indexed": true,
          "internalType": "address",
          "name": "newMember",
          "type": "address"
        }
      ],
      "name": "ChangedMember",
      "type": "event"
    },
    {
      "anonymous": false,
      "inputs": [
        {
          "indexed": false,
          "internalType": "address",
          "name": "candidate",
          "type": "address"
        },
        {
          "indexed": false,
          "internalType": "string",
          "name": "newMemo",
          "type": "string"
        }
      ],
      "name": "ChangedMemo",
      "type": "event"
    },
    {
      "anonymous": false,
      "inputs": [
        {
          "indexed": true,
          "internalType": "uint256",
          "name": "prevSlotMax",
          "type": "uint256"
        },
        {
          "indexed": true,
          "internalType": "uint256",
          "name": "slotMax",
          "type": "uint256"
        }
      ],
      "name": "ChangedSlotMaximum",
      "type": "event"
    },
    {
      "anonymous": false,
      "inputs": [
        {
          "indexed": true,
          "internalType": "address",
          "name": "candidate",
          "type": "address"
        },
        {
          "indexed": false,
          "internalType": "address",
          "name": "receiver",
          "type": "address"
        },
        {
          "indexed": false,
          "internalType": "uint256",
          "name": "amount",
          "type": "uint256"
        }
      ],
      "name": "ClaimedActivityReward",
      "type": "event"
    },
    {
      "anonymous": false,
      "inputs": [
        {
          "indexed": true,
          "internalType": "address",
          "name": "candidate",
          "type": "address"
        },
        {
          "indexed": true,
          "internalType": "address",
          "name": "candidateContract",
          "type": "address"
        },
        {
          "indexed": false,
          "internalType": "string",
          "name": "memo",
          "type": "string"
        }
      ],
      "name": "Layer2Registered",
      "type": "event"
    },
    {
      "anonymous": false,
      "inputs": [
        {
          "indexed": false,
          "internalType": "uint256",
          "name": "newQuorum",
          "type": "uint256"
        }
      ],
      "name": "QuorumChanged",
      "type": "event"
    },
    {
      "anonymous": false,
      "inputs": [
        {
          "indexed": true,
          "internalType": "bytes32",
          "name": "role",
          "type": "bytes32"
        },
        {
          "indexed": true,
          "internalType": "bytes32",
          "name": "previousAdminRole",
          "type": "bytes32"
        },
        {
          "indexed": true,
          "internalType": "bytes32",
          "name": "newAdminRole",
          "type": "bytes32"
        }
      ],
      "name": "RoleAdminChanged",
      "type": "event"
    },
    {
      "anonymous": false,
      "inputs": [
        {
          "indexed": true,
          "internalType": "bytes32",
          "name": "role",
          "type": "bytes32"
        },
        {
          "indexed": true,
          "internalType": "address",
          "name": "account",
          "type": "address"
        },
        {
          "indexed": true,
          "internalType": "address",
          "name": "sender",
          "type": "address"
        }
      ],
      "name": "RoleGranted",
      "type": "event"
    },
    {
      "anonymous": false,
      "inputs": [
        {
          "indexed": true,
          "internalType": "bytes32",
          "name": "role",
          "type": "bytes32"
        },
        {
          "indexed": true,
          "internalType": "address",
          "name": "account",
          "type": "address"
        },
        {
          "indexed": true,
          "internalType": "address",
          "name": "sender",
          "type": "address"
        }
      ],
      "name": "RoleRevoked",
      "type": "event"
    },
    {
      "inputs": [],
      "name": "DEFAULT_ADMIN_ROLE",
      "outputs": [
        {
          "internalType": "bytes32",
          "name": "",
          "type": "bytes32"
        }
      ],
      "stateMutability": "view",
      "type": "function"
    },
    {
      "inputs": [],
      "name": "activityRewardPerSecond",
      "outputs": [
        {
          "internalType": "uint256",
          "name": "",
          "type": "uint256"
        }
      ],
      "stateMutability": "view",
      "type": "function"
    },
    {
      "inputs": [],
      "name": "agendaManager",
      "outputs": [
        {
          "internalType": "contract IDAOAgendaManager",
          "name": "",
          "type": "address"
        }
      ],
      "stateMutability": "view",
      "type": "function"
    },
    {
      "inputs": [
        {
          "internalType": "address",
          "name": "_candidate",
          "type": "address"
        },
        {
          "internalType": "address",
          "name": "_account",
          "type": "address"
        }
      ],
      "name": "balanceOfOnCandidate",
      "outputs": [
        {
          "internalType": "uint256",
          "name": "amount",
          "type": "uint256"
        }
      ],
      "stateMutability": "view",
      "type": "function"
    },
    {
      "inputs": [
        {
          "internalType": "address",
          "name": "_candidateContract",
          "type": "address"
        },
        {
          "internalType": "address",
          "name": "_account",
          "type": "address"
        }
      ],
      "name": "balanceOfOnCandidateContract",
      "outputs": [
        {
          "internalType": "uint256",
          "name": "amount",
          "type": "uint256"
        }
      ],
      "stateMutability": "view",
      "type": "function"
    },
    {
      "inputs": [],
      "name": "candidateAddOnFactory",
      "outputs": [
        {
          "internalType": "address",
          "name": "",
          "type": "address"
        }
      ],
      "stateMutability": "view",
      "type": "function"
    },
    {
      "inputs": [
        {
          "internalType": "address",
          "name": "_candidate",
          "type": "address"
        }
      ],
      "name": "candidateContract",
      "outputs": [
        {
          "internalType": "address",
          "name": "",
          "type": "address"
        }
      ],
      "stateMutability": "view",
      "type": "function"
    },
    {
      "inputs": [],
      "name": "candidateFactory",
      "outputs": [
        {
          "internalType": "contract ICandidateFactory",
          "name": "",
          "type": "address"
        }
      ],
      "stateMutability": "view",
      "type": "function"
    },
    {
      "inputs": [
        {
          "internalType": "address",
          "name": "_candidate",
          "type": "address"
        }
      ],
      "name": "candidateInfos",
      "outputs": [
        {
          "components": [
            {
              "internalType": "address",
              "name": "candidateContract",
              "type": "address"
            },
            {
              "internalType": "uint256",
              "name": "indexMembers",
              "type": "uint256"
            },
            {
              "internalType": "uint128",
              "name": "memberJoinedTime",
              "type": "uint128"
            },
            {
              "internalType": "uint128",
              "name": "rewardPeriod",
              "type": "uint128"
            },
            {
              "internalType": "uint128",
              "name": "claimedTimestamp",
              "type": "uint128"
            }
          ],
          "internalType": "struct StorageStateCommittee.CandidateInfo",
          "name": "",
          "type": "tuple"
        }
      ],
      "stateMutability": "view",
      "type": "function"
    },
    {
      "inputs": [
        {
          "internalType": "uint256",
          "name": "",
          "type": "uint256"
        }
      ],
      "name": "candidates",
      "outputs": [
        {
          "internalType": "address",
          "name": "",
          "type": "address"
        }
      ],
      "stateMutability": "view",
      "type": "function"
    },
    {
      "inputs": [],
      "name": "candidatesLength",
      "outputs": [
        {
          "internalType": "uint256",
          "name": "",
          "type": "uint256"
        }
      ],
      "stateMutability": "view",
      "type": "function"
    },
    {
      "inputs": [
        {
          "internalType": "uint256",
          "name": "_agendaID",
          "type": "uint256"
        },
        {
          "internalType": "uint256",
          "name": "_vote",
          "type": "uint256"
        },
        {
          "internalType": "string",
          "name": "_comment",
          "type": "string"
        }
      ],
      "name": "castVote",
      "outputs": [],
      "stateMutability": "nonpayable",
      "type": "function"
    },
    {
      "inputs": [
        {
          "internalType": "uint256",
          "name": "_memberIndex",
          "type": "uint256"
        }
      ],
      "name": "changeMember",
      "outputs": [
        {
          "internalType": "bool",
          "name": "",
          "type": "bool"
        }
      ],
      "stateMutability": "nonpayable",
      "type": "function"
    },
    {
      "inputs": [
        {
          "internalType": "address",
          "name": "_receiver",
          "type": "address"
        }
      ],
      "name": "claimActivityReward",
      "outputs": [],
      "stateMutability": "nonpayable",
      "type": "function"
    },
    {
      "inputs": [
        {
          "internalType": "string",
          "name": "_memo",
          "type": "string"
        },
        {
          "internalType": "address",
          "name": "_operatorAddress",
          "type": "address"
        }
      ],
      "name": "createCandidate",
      "outputs": [],
      "stateMutability": "nonpayable",
      "type": "function"
    },
    {
      "inputs": [
        {
          "internalType": "string",
          "name": "_memo",
          "type": "string"
        }
      ],
      "name": "createCandidate",
      "outputs": [],
      "stateMutability": "nonpayable",
      "type": "function"
    },
    {
      "inputs": [],
      "name": "daoVault",
      "outputs": [
        {
          "internalType": "contract IDAOVault",
          "name": "",
          "type": "address"
        }
      ],
      "stateMutability": "view",
      "type": "function"
    },
    {
      "inputs": [
        {
          "internalType": "uint256",
          "name": "_reducingMemberIndex",
          "type": "uint256"
        },
        {
          "internalType": "uint256",
          "name": "_quorum",
          "type": "uint256"
        }
      ],
      "name": "decreaseMaxMember",
      "outputs": [],
      "stateMutability": "nonpayable",
      "type": "function"
    },
    {
      "inputs": [
        {
          "internalType": "uint256",
          "name": "_agendaID",
          "type": "uint256"
        }
      ],
      "name": "endAgendaVoting",
      "outputs": [],
      "stateMutability": "nonpayable",
      "type": "function"
    },
    {
      "inputs": [
        {
          "internalType": "uint256",
          "name": "_agendaID",
          "type": "uint256"
        }
      ],
      "name": "executeAgenda",
      "outputs": [],
      "stateMutability": "nonpayable",
      "type": "function"
    },
    {
      "inputs": [
        {
          "internalType": "address",
          "name": "_candidate",
          "type": "address"
        }
      ],
      "name": "getClaimableActivityReward",
      "outputs": [
        {
          "internalType": "uint256",
          "name": "",
          "type": "uint256"
        }
      ],
      "stateMutability": "view",
      "type": "function"
    },
    {
      "inputs": [
        {
          "internalType": "address",
          "name": "_oldCandidate",
          "type": "address"
        }
      ],
      "name": "getOldCandidateInfos",
      "outputs": [
        {
          "components": [
            {
              "internalType": "address",
              "name": "candidateContract",
              "type": "address"
            },
            {
              "internalType": "address",
              "name": "newCandidate",
              "type": "address"
            },
            {
              "internalType": "uint256",
              "name": "indexMembers",
              "type": "uint256"
            },
            {
              "internalType": "uint128",
              "name": "memberJoinedTime",
              "type": "uint128"
            },
            {
              "internalType": "uint128",
              "name": "rewardPeriod",
              "type": "uint128"
            },
            {
              "internalType": "uint128",
              "name": "claimedTimestamp",
              "type": "uint128"
            }
          ],
          "internalType": "struct StorageStateCommitteeV2.CandidateInfo2",
          "name": "",
          "type": "tuple"
        }
      ],
      "stateMutability": "view",
      "type": "function"
    },
    {
      "inputs": [
        {
          "internalType": "bytes32",
          "name": "role",
          "type": "bytes32"
        }
      ],
      "name": "getRoleAdmin",
      "outputs": [
        {
          "internalType": "bytes32",
          "name": "",
          "type": "bytes32"
        }
      ],
      "stateMutability": "view",
      "type": "function"
    },
    {
      "inputs": [
        {
          "internalType": "bytes32",
          "name": "role",
          "type": "bytes32"
        },
        {
          "internalType": "uint256",
          "name": "index",
          "type": "uint256"
        }
      ],
      "name": "getRoleMember",
      "outputs": [
        {
          "internalType": "address",
          "name": "",
          "type": "address"
        }
      ],
      "stateMutability": "view",
      "type": "function"
    },
    {
      "inputs": [
        {
          "internalType": "bytes32",
          "name": "role",
          "type": "bytes32"
        }
      ],
      "name": "getRoleMemberCount",
      "outputs": [
        {
          "internalType": "uint256",
          "name": "",
          "type": "uint256"
        }
      ],
      "stateMutability": "view",
      "type": "function"
    },
    {
      "inputs": [
        {
          "internalType": "bytes32",
          "name": "role",
          "type": "bytes32"
        },
        {
          "internalType": "address",
          "name": "account",
          "type": "address"
        }
      ],
      "name": "grantRole",
      "outputs": [],
      "stateMutability": "nonpayable",
      "type": "function"
    },
    {
      "inputs": [
        {
          "internalType": "bytes32",
          "name": "role",
          "type": "bytes32"
        },
        {
          "internalType": "address",
          "name": "account",
          "type": "address"
        }
      ],
      "name": "hasRole",
      "outputs": [
        {
          "internalType": "bool",
          "name": "",
          "type": "bool"
        }
      ],
      "stateMutability": "view",
      "type": "function"
    },
    {
      "inputs": [
        {
          "internalType": "address",
          "name": "_candidate",
          "type": "address"
        }
      ],
      "name": "isCandidate",
      "outputs": [
        {
          "internalType": "bool",
          "name": "",
          "type": "bool"
        }
      ],
      "stateMutability": "view",
      "type": "function"
    },
    {
      "inputs": [
        {
          "internalType": "address",
          "name": "_candidate",
          "type": "address"
        }
      ],
      "name": "isExistCandidate",
      "outputs": [
        {
          "internalType": "bool",
          "name": "isExist",
          "type": "bool"
        }
      ],
      "stateMutability": "view",
      "type": "function"
    },
    {
      "inputs": [
        {
          "internalType": "address",
          "name": "_candidate",
          "type": "address"
        }
      ],
      "name": "isMember",
      "outputs": [
        {
          "internalType": "bool",
          "name": "",
          "type": "bool"
        }
      ],
      "stateMutability": "view",
      "type": "function"
    },
    {
      "inputs": [],
      "name": "layer2Manager",
      "outputs": [
        {
          "internalType": "address",
          "name": "",
          "type": "address"
        }
      ],
      "stateMutability": "view",
      "type": "function"
    },
    {
      "inputs": [],
      "name": "layer2Registry",
      "outputs": [
        {
          "internalType": "contract ILayer2Registry",
          "name": "",
          "type": "address"
        }
      ],
      "stateMutability": "view",
      "type": "function"
    },
    {
      "inputs": [],
      "name": "maxMember",
      "outputs": [
        {
          "internalType": "uint256",
          "name": "",
          "type": "uint256"
        }
      ],
      "stateMutability": "view",
      "type": "function"
    },
    {
      "inputs": [
        {
          "internalType": "uint256",
          "name": "",
          "type": "uint256"
        }
      ],
      "name": "members",
      "outputs": [
        {
          "internalType": "address",
          "name": "",
          "type": "address"
        }
      ],
      "stateMutability": "view",
      "type": "function"
    },
    {
      "inputs": [
        {
          "internalType": "address",
          "name": "owner",
          "type": "address"
        },
        {
          "internalType": "address",
          "name": "spender",
          "type": "address"
        },
        {
          "internalType": "uint256",
          "name": "tonAmount",
          "type": "uint256"
        },
        {
          "internalType": "bytes",
          "name": "data",
          "type": "bytes"
        }
      ],
      "name": "onApprove",
      "outputs": [
        {
          "internalType": "bool",
          "name": "",
          "type": "bool"
        }
      ],
      "stateMutability": "nonpayable",
      "type": "function"
    },
    {
      "inputs": [],
      "name": "pauseProxy",
      "outputs": [
        {
          "internalType": "bool",
          "name": "",
          "type": "bool"
        }
      ],
      "stateMutability": "view",
      "type": "function"
    },
    {
      "inputs": [],
      "name": "quorum",
      "outputs": [
        {
          "internalType": "uint256",
          "name": "",
          "type": "uint256"
        }
      ],
      "stateMutability": "view",
      "type": "function"
    },
    {
      "inputs": [
        {
          "internalType": "address",
          "name": "_layer2",
          "type": "address"
        },
        {
          "internalType": "string",
          "name": "_memo",
          "type": "string"
        }
      ],
      "name": "registerLayer2Candidate",
      "outputs": [],
      "stateMutability": "nonpayable",
      "type": "function"
    },
    {
      "inputs": [
        {
          "internalType": "address",
          "name": "_operator",
          "type": "address"
        },
        {
          "internalType": "address",
          "name": "_layer2",
          "type": "address"
        },
        {
          "internalType": "string",
          "name": "_memo",
          "type": "string"
        }
      ],
      "name": "registerLayer2CandidateByOwner",
      "outputs": [],
      "stateMutability": "nonpayable",
      "type": "function"
    },
    {
      "inputs": [
        {
          "internalType": "bytes32",
          "name": "role",
          "type": "bytes32"
        },
        {
          "internalType": "address",
          "name": "account",
          "type": "address"
        }
      ],
      "name": "renounceRole",
      "outputs": [],
      "stateMutability": "nonpayable",
      "type": "function"
    },
    {
      "inputs": [],
      "name": "retireMember",
      "outputs": [
        {
          "internalType": "bool",
          "name": "",
          "type": "bool"
        }
      ],
      "stateMutability": "nonpayable",
      "type": "function"
    },
    {
      "inputs": [
        {
          "internalType": "bytes32",
          "name": "role",
          "type": "bytes32"
        },
        {
          "internalType": "address",
          "name": "account",
          "type": "address"
        }
      ],
      "name": "revokeRole",
      "outputs": [],
      "stateMutability": "nonpayable",
      "type": "function"
    },
    {
      "inputs": [],
      "name": "seigManager",
      "outputs": [
        {
          "internalType": "contract ISeigManager",
          "name": "",
          "type": "address"
        }
      ],
      "stateMutability": "view",
      "type": "function"
    },
    {
      "inputs": [
        {
          "internalType": "uint256",
          "name": "_agendaID",
          "type": "uint256"
        },
        {
          "internalType": "uint256",
          "name": "_status",
          "type": "uint256"
        },
        {
          "internalType": "uint256",
          "name": "_result",
          "type": "uint256"
        }
      ],
      "name": "setAgendaStatus",
      "outputs": [],
      "stateMutability": "nonpayable",
      "type": "function"
    },
    {
      "inputs": [
        {
          "internalType": "address",
          "name": "_candidateFactory",
          "type": "address"
        }
      ],
      "name": "setCandidateFactory",
      "outputs": [],
      "stateMutability": "nonpayable",
      "type": "function"
    },
    {
      "inputs": [
        {
          "internalType": "uint256",
          "name": "_fees",
          "type": "uint256"
        }
      ],
      "name": "setCreateAgendaFees",
      "outputs": [],
      "stateMutability": "nonpayable",
      "type": "function"
    },
    {
      "inputs": [
        {
          "internalType": "uint256",
          "name": "_executingPeriodSeconds",
          "type": "uint256"
        }
      ],
      "name": "setExecutingPeriodSeconds",
      "outputs": [],
      "stateMutability": "nonpayable",
      "type": "function"
    },
    {
      "inputs": [
        {
          "internalType": "address",
          "name": "_layer2Registry",
          "type": "address"
        }
      ],
      "name": "setLayer2Registry",
      "outputs": [],
      "stateMutability": "nonpayable",
      "type": "function"
    },
    {
      "inputs": [
        {
          "internalType": "address",
          "name": "_candidateContract",
          "type": "address"
        },
        {
          "internalType": "string",
          "name": "_memo",
          "type": "string"
        }
      ],
      "name": "setMemoOnCandidateContract",
      "outputs": [],
      "stateMutability": "nonpayable",
      "type": "function"
    },
    {
      "inputs": [
        {
          "internalType": "uint256",
          "name": "_minimumNoticePeriod",
          "type": "uint256"
        }
      ],
      "name": "setMinimumNoticePeriodSeconds",
      "outputs": [],
      "stateMutability": "nonpayable",
      "type": "function"
    },
    {
      "inputs": [
        {
          "internalType": "uint256",
          "name": "_minimumVotingPeriod",
          "type": "uint256"
        }
      ],
      "name": "setMinimumVotingPeriodSeconds",
      "outputs": [],
      "stateMutability": "nonpayable",
      "type": "function"
    },
    {
      "inputs": [
        {
          "internalType": "uint256",
          "name": "_quorum",
          "type": "uint256"
        }
      ],
      "name": "setQuorum",
      "outputs": [],
      "stateMutability": "nonpayable",
      "type": "function"
    },
    {
      "inputs": [
        {
          "internalType": "address",
          "name": "_seigManager",
          "type": "address"
        }
      ],
      "name": "setSeigManager",
      "outputs": [],
      "stateMutability": "nonpayable",
      "type": "function"
    },
    {
      "inputs": [],
      "name": "setSeigPause",
      "outputs": [],
      "stateMutability": "nonpayable",
      "type": "function"
    },
    {
      "inputs": [],
      "name": "setSeigUnpause",
      "outputs": [],
      "stateMutability": "nonpayable",
      "type": "function"
    },
    {
      "inputs": [
        {
          "internalType": "address",
          "name": "token",
          "type": "address"
        },
        {
          "internalType": "address",
          "name": "account",
          "type": "address"
        }
      ],
      "name": "setTargetAddMinter",
      "outputs": [],
      "stateMutability": "nonpayable",
      "type": "function"
    },
    {
      "inputs": [
        {
          "internalType": "address",
          "name": "target",
          "type": "address"
        },
        {
          "internalType": "uint256",
          "name": "globalWithdrawalDelay_",
          "type": "uint256"
        }
      ],
      "name": "setTargetGlobalWithdrawalDelay",
      "outputs": [],
      "stateMutability": "nonpayable",
      "type": "function"
    },
    {
      "inputs": [
        {
          "internalType": "address",
          "name": "target",
          "type": "address"
        },
        {
          "internalType": "address",
          "name": "_seigManager",
          "type": "address"
        }
      ],
      "name": "setTargetSeigManager",
      "outputs": [],
      "stateMutability": "nonpayable",
      "type": "function"
    },
    {
      "inputs": [
        {
          "internalType": "bytes4",
          "name": "interfaceId",
          "type": "bytes4"
        }
      ],
      "name": "supportsInterface",
      "outputs": [
        {
          "internalType": "bool",
          "name": "",
          "type": "bool"
        }
      ],
      "stateMutability": "view",
      "type": "function"
    },
    {
      "inputs": [],
      "name": "ton",
      "outputs": [
        {
          "internalType": "address",
          "name": "",
          "type": "address"
        }
      ],
      "stateMutability": "view",
      "type": "function"
    },
    {
      "inputs": [
        {
          "internalType": "address",
          "name": "_candidate",
          "type": "address"
        }
      ],
      "name": "totalSupplyOnCandidate",
      "outputs": [
        {
          "internalType": "uint256",
          "name": "totalsupply",
          "type": "uint256"
        }
      ],
      "stateMutability": "view",
      "type": "function"
    },
    {
      "inputs": [
        {
          "internalType": "address",
          "name": "_candidateContract",
          "type": "address"
        }
      ],
      "name": "totalSupplyOnCandidateContract",
      "outputs": [
        {
          "internalType": "uint256",
          "name": "totalsupply",
          "type": "uint256"
        }
      ],
      "stateMutability": "view",
      "type": "function"
    },
    {
      "inputs": [
        {
          "internalType": "address",
          "name": "_candidate",
          "type": "address"
        }
      ],
      "name": "updateSeigniorage",
      "outputs": [
        {
          "internalType": "bool",
          "name": "",
          "type": "bool"
        }
      ],
      "stateMutability": "nonpayable",
      "type": "function"
    },
    {
      "inputs": [
        {
          "internalType": "address[]",
          "name": "_candidates",
          "type": "address[]"
        }
      ],
      "name": "updateSeigniorages",
      "outputs": [
        {
          "internalType": "bool",
          "name": "",
          "type": "bool"
        }
      ],
      "stateMutability": "nonpayable",
      "type": "function"
    },
    {
      "inputs": [],
      "name": "wton",
      "outputs": [
        {
          "internalType": "address",
          "name": "",
          "type": "address"
        }
      ],
      "stateMutability": "view",
      "type": "function"
    }
  ],
  "bytecode": "0x60808060405234610052576301ffc9a760e01b600052600d6020527f49c01d976ca1c616ed1de1469e98d664903a805642011c315785aa325a483c71805460ff1916600117905561536790816100588239f35b600080fdfe6080604052600436101561001257600080fd5b60003560e01c806301ffc9a71461042757806303e3c9ac14610422578063047f52f21461041d57806311f19e041461041857806314d3535e1461041357806316b5d5bd1461040e57806316f7f982146104095780631703a01814610404578063216f486b146103ff57806323d09fdf146103fa578063248a9ca3146103f557806324f99b1e146103f057806327fd92fd146103eb5780632af60ff4146103e65780632e011c1e146103e15780632f2ff15d146103dc57806332a45ef6146103d75780633477ee2e146103d257806336568abe146103cd57806338d1b17c146103c85780634273ca16146103c3578063440b69ad146103be57806350e8f17d146103b9578063561a1dab146103b457806357f0a867146103af5780635903bd6c146103aa5780635daf08ca146103a55780635fba7a56146103a0578063607cf7341461039b57806363a8fd8914610396578063651d08cd1461039157806369b1227a1461038c5780636becff27146103875780636fb7f55814610382578063753628191461037d5780637657f20a14610378578063773b7f651461037357806378767d331461036e5780637f33163614610369578063805aca201461036457806381bfe42c1461035f578063885b46961461035a57806389ea4300146103555780638d62d949146103505780639010d07c1461034b57806391d14854146103465780639932e94c146103415780639d65b5311461033c578063a1ea352514610337578063a1f3ac2a14610332578063a217fddf1461032d578063a230c52414610328578063ad6675dc14610323578063b4f69b6a1461031e578063b5dd115814610319578063c0bc530414610314578063c1ba4e591461030f578063c4ef9c001461030a578063ca15c87314610305578063cc48b94714610300578063cf2a239c146102fb578063d51b9e93146102f6578063d525f04f146102f1578063d547741f146102ec5763efd57979146102e757600080fd5b613404565b613346565b61330a565b6132e3565b6132ba565b613291565b613265565b613183565b613092565b61300a565b612fe1565b612f59565b612f18565b612ecd565b612eb1565b612e38565b612bfc565b612b83565b612b5c565b612b0d565b612a66565b612a3d565b612a16565b6129c1565b61294d565b61282a565b61280c565b6127e5565b6127c7565b612756565b61272d565b612704565b612573565b6124eb565b612499565b612473565b6122bb565b612092565b612037565b61200e565b611fa3565b611f61565b611d6c565b611ad0565b6118c0565b61183c565b6117a4565b611749565b6112d4565b611217565b611118565b6110a7565b61107e565b610bd5565b610b79565b610adf565b61071c565b6106fe565b6106dd565b61068c565b610553565b61051e565b6104a8565b610479565b346104695760203660031901126104695760043563ffffffff60e01b811680910361046957600052600d602052602060ff604060002054166040519015158152f35b600080fd5b600091031261046957565b34610469576000366003190112610469576020600854604051908152f35b6001600160a01b0381160361046957565b34610469576020366003190112610469576004356104c581610497565b33600090815260008051602061531b83398151915260205260409020546104f29015156136cd565b6136cd565b6001600160a01b031661050681151561372a565b6001600160601b0360a01b6003541617600355600080f35b346104695760203660031901126104695760206105496004356105446008548210613cb3565b613e67565b6040519015158152f35b346104695760203660031901126104695761068860043561057381610497565b604061062e61061e60048360a0815161058b816119bd565b60009181838093528260208201528285820152826060820152826080820152015260018060a01b038097168152600f602052206105e98551966105cd886119bd565b8254811688526001830154166001600160a01b03166020880152565b60028101548587015260038101546001600160801b0381166060880152608090811c908701525b01546001600160801b031690565b6001600160801b031660a0840152565b519182918291909160a060c0820193600180831b03808251168452602082015116602084015260408101516040840152816001600160801b0391826060820151166060860152826080820151166080860152015116910152565b0390f35b34610469576000366003190112610469576011546040516001600160a01b039091168152602090f35b6040906003190112610469576004356106cd81610497565b906024356106da81610497565b90565b346104695760206106f66106f0366106b5565b9061520d565b604051908152f35b34610469576000366003190112610469576020600a54604051908152f35b34610469576020806003193601126104695760025460048035916001600160a01b03169061074b82151561435a565b60409283516377f28d5b60e01b815285818061076e858783019190602083019252565b0381875afa80156108d25761078b91600091610ab2575b506144a9565b6000845180946373ba374560e01b825281806107ae868883019190602083019252565b03915afa9182156108d257600092839484908592610a84575b50156108d757506002546107eb906001600160a01b03165b6001600160a01b031690565b803b15610469578551631b8c251960e11b8152918201838152600091839182908490829060200103925af180156108d2576108b9575b5060005b825181101561087f578061087560008061085261084561087a96896146be565b516001600160a01b031690565b61085c858a6146be565b5190828c83519301915af161086f6146d2565b50614702565b6146af565b610825565b5093506108b491507f785146be3266678a3f4ea454b310ff1f8c91d0ad9a7997bcd0619940d4d67fe6925b519182918261479e565b0390a2005b806108c66108cc926119dd565b8061046e565b38610821565b613776565b949193955060009480955b8451871015610a77576109186108fb61084589886146be565b610905898b6146be565b51516109118a8c6146be565b5191614fa8565b156109355761092961092f916135c9565b966146af565b956108e2565b91939550919395505b600254610953906001600160a01b03166107df565b91823b15610469578451632833207960e21b815284810188815260208101849052909360009185919082908490829060400103925af19283156108d25761099f93610a64575b506135d7565b8351146109d3575b507f785146be3266678a3f4ea454b310ff1f8c91d0ad9a7997bcd0619940d4d67fe6916108b4916108aa565b6002549092906109eb906001600160a01b03166107df565b803b15610469578251631b8c251960e11b8152938401858152600091859182908490829060200103925af19182156108d2577f785146be3266678a3f4ea454b310ff1f8c91d0ad9a7997bcd0619940d4d67fe6936108b493610a51575b509150916109a7565b806108c6610a5e926119dd565b38610a48565b806108c6610a71926119dd565b38610999565b919395509193955061093e565b9294915050610aa69294503d8091833e610a9e8183611a26565b8101906145fb565b909492939194386107c7565b610ad29150873d8911610ad8575b610aca8183611a26565b810190613933565b38610785565b503d610ac0565b346104695760006020366003190112610b7657808052600c602052610b1a6104ed336040842060019160005201602052604060002054151590565b60025481906001600160a01b0316610b3381151561435a565b803b15610b735781906024604051809481936323d09fdf60e01b835260043560048401525af180156108d257610b67575080f35b610b70906119dd565b80f35b50fd5b80fd5b3461046957602036600319011261046957600435600052600c6020526020600260406000200154604051908152f35b9181601f84011215610469578235916001600160401b038311610469576020838186019501011161046957565b34610469576060366003190112610469576004803590602435906044356001600160401b03811161046957610c0d9036908301610ba8565b9060018060a01b03600281815416610c2681151561435a565b6040928351630d90703f60e31b815260209283828a81335afa9081156108d2578a93859360009361104b575b506001600160a01b0383166000908152600960205260409020610c8a913391610c83905b546001600160a01b031690565b1614613d6f565b8651637e77eb2360e01b8152808b018d81526001600160a01b039093166020840152604083019490945283918290600090829060600103925af180156108d25761102d575b50508054610ce5906001600160a01b03166107df565b908251635772521560e11b815260608180610d078c8b83019190602083019252565b0381865afa9081156108d25760009182918391610ffc575b50600a54928311610e285750508154919250610d45916001600160a01b031690506107df565b90813b15610469578251632b0a851b60e11b815286810189815260016020820152909260009184919082908490829060400103925af19081156108d257610d9d926107df92610e15575b50546001600160a01b031690565b803b15610469578151633625b75960e21b815294850187815260036020820152600091869182908490829060400103925af19081156108d2576000805160206152fb83398151915294610dfd92610e02575b505b51928392339684614492565b0390a3005b806108c6610e0f926119dd565b38610def565b806108c6610e22926119dd565b38610d8f565b818311610f0c5750508154919250610e4a916001600160a01b031690506107df565b90813b15610469578251632b0a851b60e11b815286810189815260026020820152909260009184919082908490829060400103925af19081156108d257610ea1926107df92610e155750546001600160a01b031690565b803b15610469578151633625b75960e21b815294850187815260056020820152600091869182908490829060400103925af19081156108d2576000805160206152fb83398151915294610dfd92610ef9575b50610df1565b806108c6610f06926119dd565b38610ef3565b90610f16916135d7565b1015610f39575b50506000805160206152fb8339815191529350610dfd90610df1565b813b15610469578251632b0a851b60e11b815286810189815260036020820152909260009184919082908490829060400103925af19081156108d257610f8f926107df92610e155750546001600160a01b031690565b803b15610469578151633625b75960e21b815294850187815260056020820152600091869182908490829060400103925af19081156108d2576000805160206152fb83398151915294610dfd92610fe9575b819250610f1d565b806108c6610ff6926119dd565b38610fe1565b915050611020915060603d8111611026575b6110188183611a26565b810190614416565b38610d1f565b503d61100e565b8161104392903d10610ad857610aca8183611a26565b503880610ccf565b610c8a91935061107090853d8711611077575b6110688183611a26565b8101906137e0565b9290610c52565b503d61105e565b34610469576000366003190112610469576002546040516001600160a01b039091168152602090f35b34610469576020366003190112610469576004356110c481610497565b33600090815260008051602061531b83398151915260205260409020546110ec9015156136cd565b6001600160a01b031661110081151561372a565b6001600160601b0360a01b6004541617600455600080f35b346104695760203660031901126104695761068860043561113881610497565b60406111c86111b860038360808151611150816119f0565b60009181838093528260208201528285820152826060820152015260018060a01b038097168152600960205220845195611189876119f0565b81541686526001810154602087015260028101546001600160801b0381168688015260801c6060870152610610565b6001600160801b03166080840152565b5191829182919091608060a082019360018060a01b03815116835260208101516020840152816001600160801b0391826040820151166040860152826060820151166060860152015116910152565b346104695760403660031901126104695760243560043561123782610497565b600091818352600c60205260026040842001548352611269336040852060019160005201602052604060002054151590565b1561127757610b7091613478565b60405162461bcd60e51b815260206004820152602f60248201527f416363657373436f6e74726f6c3a2073656e646572206d75737420626520616e60448201526e0818591b5a5b881d1bc819dc985b9d608a1b6064820152608490fd5b34610469576040806003193601126104695760049081356001600160401b038111610469576113069036908401610ba8565b6024359061131382610497565b6005546001600160a01b039081169490918391611331871515613ac0565b61133f848954161515613b20565b836003541697611350891515613b82565b6000988980526020968791600c835261137f6104ed8d8733912060019160005201602052604060002054151590565b858c8b6113a288519e8f968795869463732518fb60e11b865230928c8701613816565b03925af19788156108d25789986116b6575b5090856115e89392868a16996113cb8b1515613854565b6001600160a01b03871660009081526009602052604090206113f0906107df90610c76565b1561165a5761142061141a6107df610c768a60018060a01b0316600052600f602052604060002090565b15613be8565b6001600160a01b03871660009081526009602052604090206115589061144590610c76565b61153b61146960026106108c60018060a01b03166000526009602052604060002090565b61152b8b61151b600161148e8360018060a01b03166000526009602052604060002090565b0154936114de60036106106114c260026114ba8860018060a01b03166000526009602052604060002090565b015460801c90565b6001600160a01b03909616600090815260096020526040902090565b946114f96114ea611a56565b6001600160a01b039099168952565b6001600160a01b038a16888d0152878d01526001600160801b03166060870152565b6001600160801b03166080850152565b6001600160801b031660a0830152565b6001600160a01b0389166000908152600f60205260409020613c27565b6001600160a01b03878116600090815260096020526040902080546001600160a01b0319169183169190911790555b815461159b906001600160a01b03166107df565b6005549091908d906115b5906001600160a01b03166107df565b8651635e58d38f60e11b81526001600160a01b039384169581019586529216602085015290968793849291839160400190565b03925af19586156108d2577f7cf8db18d9a5c7f44156bfabdbb59ac982a8a004e461ca1b87ee71a5cdfbc5ef966116379461162b928c9261163d575b5050613948565b51938493169583613aaf565b0390a380f35b6116539250803d10610ad857610aca8183611a26565b3880611624565b6116a8611665611a47565b6001600160a01b03831681528d858201528d868201528d60608201528d60808201526116a38960018060a01b03166000526009602052604060002090565b6139c8565b6116b187613a48565b611587565b6115e893929198506116d58791823d8411611077576110688183611a26565b98919293506113b4565b634e487b7160e01b600052603260045260246000fd5b60075481101561172c5760076000527fa66cc928b5edb82af9bd49922954155ab7b0942694bea4ce44661d9a8736c6880190600090565b6116df565b805482101561172c5760005260206000200190600090565b34610469576020366003190112610469576004356006548110156104695760066000527ff652222313e28459528d920b65115c16c04f3efc82aaedc97be59f3f377c0d3f01546040516001600160a01b039091168152602090f35b34610469576040366003190112610469576024356117c181610497565b336001600160a01b038216036117df576117dd906004356134ce565b005b60405162461bcd60e51b815260206004820152602f60248201527f416363657373436f6e74726f6c3a2063616e206f6e6c792072656e6f756e636560448201526e103937b632b9903337b91039b2b63360891b6064820152608490fd5b346104695760006040366003190112610b76578060043561185c81610497565b818052600c6020526118846104ed336040852060019160005201602052604060002054151590565b6001600160a01b0316803b15610b7357819060246040518094819363a79da34160e01b8352833560048401525af180156108d257610b67575080f35b34610469576080366003190112610469576004356118dd81610497565b6118e8602435610497565b6064356001600160401b03811161046957611907903690600401610ba8565b600054909291906001600160a01b0316330361196e576119619261192a91614ab5565b805160208201516001600160801b031660408301516001600160801b03169160806119586060860151151590565b94015194614be5565b5060405160018152602090f35b60405162461bcd60e51b815260206004820152601160248201527024ba13b9903737ba10333937b6902a27a760791b6044820152606490fd5b634e487b7160e01b600052604160045260246000fd5b60c081019081106001600160401b038211176119d857604052565b6119a7565b6001600160401b0381116119d857604052565b60a081019081106001600160401b038211176119d857604052565b606081019081106001600160401b038211176119d857604052565b90601f801991011681019081106001600160401b038211176119d857604052565b60405190611a54826119f0565b565b60405190611a54826119bd565b6001600160401b0381116119d857601f01601f191660200190565b929192611a8a82611a63565b91611a986040519384611a26565b829481845281830111610469578281602093846000960137010152565b9080601f83011215610469578160206106da93359101611a7e565b346104695760603660031901126104695760048035611aee81610497565b60243591611afb83610497565b6044356001600160401b03811161046957611b199036908301611ab5565b33600090815260008051602061531b833981519152602090815260408083205492969195939192611b4b9015156136cd565b6005546001600160a01b0390811695909490611b68871515613ac0565b611b76868254161515613b20565b856003541696611b87881515613b82565b6001600160a01b03868116600090815260096020526040902054611bac911615613782565b86861697611bbb891515613854565b611be6611be06107df610c768a60018060a01b03166000526009602052604060002090565b156138b9565b845163220bbb4b60e21b81528a8185818d5afa80156108d257611c10918d91611d4f575b506148f8565b845163570ca73560e01b8152928a8482818d5afa9485156108d257611c67958a611c49928f978f9893611d2e575b508116911614614952565b8b865180968195829463732518fb60e11b84528b8d309286016149c3565b03925af19384156108d257611d00611637958a7f0f401d1bd976f5304ef9cfa87aeb24d777c0e205fb87bbae1dc0f0293ba7976a98611d05958293611d0f575b5082169a611cb68c1515613854565b611cd0611cc1611a47565b6001600160a01b039094168452565b8201528a858201528a60608201528a60808201526116a38360018060a01b03166000526009602052604060002090565b613a48565b51918291826149f3565b611d279193508c8d3d10611077576110688183611a26565b9138611ca7565b82919350611d4890893d8b11611077576110688183611a26565b9290611c3e565b611d6691508c8d3d10610ad857610aca8183611a26565b38611c0a565b346104695760403660031901126104695733600090815260008051602061531b8339815191526020526040812054819060043590611dab9015156136cd565b611db86008548210613cb3565b60008051602061533b833981519152611ec8611deb611dd6846116f5565b905460039190911b1c6001600160a01b031690565b6001600160a01b0381166000908152600960205260409020611e8890600290600754611e16816135a8565b8803611efe575b5087600182015501611e78611e58611e4c8354611e436001600160801b038216426135bc565b9060801c6135d7565b6001600160801b031690565b82546001600160801b031660809190911b6001600160801b031916178255565b80546001600160801b0319169055565b611e90614278565b611ea3611e9e6008546135a8565b600855565b611eae6024356142cc565b6040516001600160a01b0390911681529081906020820190565b0390a3600854611ed7816135c9565b7f8c0366d1e3a335a312d012257ee764723c38ec2dd5e74cbfad372513521f97718380a380f35b611f15611dd6611f10611f5b936135a8565b6116f5565b6001600160a01b0381166000908152600960205260409020899060010155611f3c896116f5565b90919082549060031b9160018060a01b03809116831b921b1916179055565b38611e1d565b34610469576020366003190112610469576020610549600435611f8381610497565b6001600160a01b0390811660009081526009602052604090205416151590565b34610469576020366003190112610469576001600160401b036004358181116104695736602382011215610469578060040135918211610469573660248360051b8301011161046957610688916024611ffc9201614809565b60405190151581529081906020820190565b34610469576000366003190112610469576001546040516001600160a01b039091168152602090f35b34610469576020366003190112610469576004356007548110156104695760076000527fa66cc928b5edb82af9bd49922954155ab7b0942694bea4ce44661d9a8736c68801546040516001600160a01b039091168152602090f35b3461046957602080600319360112610469576004356001600160401b038111610469576120c3903690600401610ba8565b336000908152600960205260409020549091906120e9906001600160a01b031615613782565b60035461213a90612102906001600160a01b03166107df565b600554909490819061211c906001600160a01b03166107df565b6040518094819263732518fb60e11b83523089893360048701613816565b0381600080995af19182156108d257859261229c575b506001600160a01b03821693612167851515613854565b33600090815260096020526040902061218790611be0906107df90610c76565b600454869083906121ed906121a4906001600160a01b03166107df565b6005546121b9906001600160a01b03166107df565b604051635e58d38f60e11b81526001600160a01b03808a166004830152909116602482015293849283919082906044820190565b03925af19384156108d25787611637946122337f7cf8db18d9a5c7f44156bfabdbb59ac982a8a004e461ca1b87ee71a5cdfbc5ef9761226895849161227f575b50613948565b61223e611cc1611a47565b820152604080820189905260608201899052608082018990523360009081526009602052206139c8565b61227133613a48565b604051918291339583613aaf565b6122969150833d8511610ad857610aca8183611a26565b3861222d565b816122b49293503d8411611077576110688183611a26565b9038612150565b34610469576040806003193601126104695760049081356122db81610497565b6024356001600160401b038111610469576122f99036908501610ba8565b8351630d90703f60e31b8152919391926001600160a01b039081169060209081868981865afa9586156108d257600096612454575b50845163136c704d60e31b8152869083818b81885afa9081156108d257600091612437575b506123ea575b61236692501633146141e4565b803b15610469578160009186836123919987519a8b95869485936325d6086160e01b85528401613aaf565b03925af19182156108d2577fda033346b344f4675799a7ab4d837f0deb62d4afcdcaba4613913b4c25838cb3956123d2936123d7575b505193849384614256565b0390a1005b806108c66123e4926119dd565b386123c7565b50845163570ca73560e01b815282818a818a86165afa9081156108d2576123669360009261241a575b5050612359565b6124309250803d10611077576110688183611a26565b3880612413565b61244e9150843d8611610ad857610aca8183611a26565b38612353565b61246c919650823d8411611077576110688183611a26565b943861232e565b3461046957600036600319011261046957602060ff600e5460a01c166040519015158152f35b346104695760203660031901126104695760206124d96004356124bb81610497565b6001600160a01b039081166000908152600960205260409020541690565b6040516001600160a01b039091168152f35b346104695760006020366003190112610b7657808052600c6020526125266104ed336040842060019160005201602052604060002054151590565b60025481906001600160a01b031661253f81151561435a565b803b15610b735781906024604051809481936334d8913d60e11b835260043560048401525af180156108d257610b67575080f35b346104695760203660031901126104695760043561259081610497565b604051630d90703f60e31b8152602081600481335afa9081156108d2576000916126e6575b506001600160a01b0381166000908152600960205260409020805490916001600160a01b03916125ea90339084908116610c83565b6125f38161526a565b926125ff841515614899565b600154612614906001600160a01b03166107df565b93843b1561046957604051633bc3556560e21b81526001600160a01b038716600482015260248101829052946000908690604490829084905af19485156108d25760026108b4936126ad927fb15377c434dc1922cc2eb7d8950640960a05f0cf6d5dc9442de8414a9da2b308986126d3575b5061269d6001600160801b034216600383016139ad565b016001600160801b038154169055565b604080516001600160a01b03909716875260208701919091529190921693918291820190565b806108c66126e0926119dd565b38612686565b6126fe915060203d8111611077576110688183611a26565b386125b5565b34610469576000366003190112610469576005546040516001600160a01b039091168152602090f35b34610469576000366003190112610469576012546040516001600160a01b039091168152602090f35b346104695760203660031901126104695760043561277381610497565b33600090815260008051602061531b833981519152602052604090205461279b9015156136cd565b6001600160a01b03166127af81151561372a565b6001600160601b0360a01b6005541617600555600080f35b34610469576000366003190112610469576020600654604051908152f35b346104695760203660031901126104695760206106f660043561280781610497565b6151b5565b34610469576000366003190112610469576020600b54604051908152f35b346104695760603660031901126104695733600090815260008051602061531b833981519152602052604081205460043590829060243590604435906128719015156136cd565b600254612886906001600160a01b03166107df565b9061289081614447565b813b156129495783916128ba91604051958680948193632b0a851b60e11b83528a60048401614456565b03925af19182156108d2578492612936575b506002546128e2906001600160a01b03166107df565b6128eb8261446f565b803b15612932576129139383604051809681958294633625b75960e21b845260048401614479565b03925af180156108d257612925575080f35b806108c6610b70926119dd565b8280fd5b806108c6612943926119dd565b386128cc565b8380fd5b3461046957600080600319360112610b7657808052600c6020526129876104ed336040842060019160005201602052604060002054151590565b60055481906001600160a01b0316803b15610b73578190600460405180948193631fa5d41d60e11b83525af180156108d257610b67575080f35b346104695760006020366003190112610b765760025481906001600160a01b0316803b15610b7357819060246040518094819363442da34b60e11b835260043560048401525af180156108d257610b67575080f35b34610469576020366003190112610469576020610549600435612a3881610497565b6147af565b34610469576000366003190112610469576010546040516001600160a01b039091168152602090f35b3461046957604036600319011261046957602435600435600052600c6020526040600020908082541115612abd57612a9d91611731565b905460405160039290921b1c6001600160a01b0316815280602081010390f35b60405162461bcd60e51b815260206004820152602260248201527f456e756d657261626c655365743a20696e646578206f7574206f6620626f756e604482015261647360f01b6064820152608490fd5b34610469576040366003190112610469576020610549602435612b2f81610497565b6004356000908152600c845260408082206001600160a01b03909316825260019092016020522054151590565b346104695760203660031901126104695760206106f6600435612b7e81610497565b61526a565b3461046957612b91366106b5565b33600090815260008051602061531b833981519152602052604081205490928391612bbd9015156136cd565b6001600160a01b0390811692833b1561293257602490836040519586948593634c1d96ab60e11b85521660048401525af180156108d257610b67575080f35b34610469576040806003193601126104695760048035612c1b81610497565b6024356001600160401b03811161046957612c399036908401611ab5565b6005546001600160a01b039081169490929190612c57861515613ac0565b612c65848654161515613b20565b836003541693612c76851515613b82565b6001600160a01b03848116600090815260096020526040902054612c9b911615613782565b80841695612caa871515613854565b612ccf611be06107df610c768860018060a01b03166000526009602052604060002090565b825163220bbb4b60e21b815260209890898184818c5afa80156108d257612cfd91600091612e2157506148f8565b835163570ca73560e01b815296898884818c5afa9283156108d257612d338b94612d529a600091612e04575b5086163314614952565b60008651809a8195829463732518fb60e11b84528b8d309286016149c3565b03925af19384156108d257611d00610dfd95611d05937f0f401d1bd976f5304ef9cfa87aeb24d777c0e205fb87bbae1dc0f0293ba7976a98600092612de2575b5060009082169a612da48c1515613854565b612daf611cc1611a47565b820152600085820181905260608201819052608082018190526001600160a01b03841681526009602052604090206139c8565b6000919250612dfd908c8d3d10611077576110688183611a26565b9190612d92565b612e1b9150863d8811611077576110688183611a26565b38612d29565b611d6691508b3d8d11610ad857610aca8183611a26565b3461046957612e46366106b5565b33600090815260008051602061531b833981519152602052604081205490928391612e729015156136cd565b6001600160a01b0390811692833b1561293257602490836040519586948593633b2bf90560e11b85521660048401525af180156108d257610b67575080f35b3461046957600036600319011261046957602060405160008152f35b34610469576020366003190112610469576020610549600435612eef81610497565b6001600160a01b03166000908152600960205260409020600201546001600160801b0316151590565b346104695760203660031901126104695760206106f6600435612f3a81610497565b6001600160a01b039081166000908152600984526040902054166151b5565b346104695760006020366003190112610b7657808052600c602052612f946104ed336040842060019160005201602052604060002054151590565b60025481906001600160a01b0316612fad81151561435a565b803b15610b73578190602460405180948193635a7b4db560e11b835260043560048401525af180156108d257610b67575080f35b34610469576000366003190112610469576003546040516001600160a01b039091168152602090f35b346104695760006020366003190112610b7657808052600c6020526130456104ed336040842060019160005201602052604060002054151590565b60025481906001600160a01b031661305e81151561435a565b803b15610b7357819060246040518094819363302f14c160e21b835260043560048401525af180156108d257610b67575080f35b346104695760203660031901126104695733600090815260008051602061531b8339815191526020526040902054600435906130cf9015156136cd565b6002546130e6906001600160a01b0316151561435a565b600854908160011c81111561313e57613104613109928211156143bb565b600a55565b600a546040519081527f027863d12a407097e086a48e36475bfc859d0b200b7e6f65b5fd3b218e46632e9080602081016123d2565b60405162461bcd60e51b815260206004820152601c60248201527f44414f436f6d6d69747465653a20696e76616c69642071756f72756d000000006044820152606490fd5b3461046957600036600319011261046957604051630d90703f60e31b8152602081600481335afa80156108d2576131e691600091613247575b506001600160a01b03166000908152600960205260409020600201546001600160801b0316151590565b156131f657610688611ffc6140f6565b60405162461bcd60e51b815260206004820152602360248201527f53746f726167655374617465436f6d6d69747465653a206e6f742061206d656d6044820152623132b960e91b6064820152608490fd5b61325f915060203d8111611077576110688183611a26565b386131bc565b3461046957602036600319011261046957600435600052600c6020526020604060002054604051908152f35b34610469576000366003190112610469576000546040516001600160a01b039091168152602090f35b34610469576000366003190112610469576004546040516001600160a01b039091168152602090f35b3461046957602036600319011261046957602061054960043561330581610497565b614fbe565b346104695760206106f6613341613320366106b5565b6001600160a01b039182166000908152600960205260409020549092911690565b61520d565b346104695760403660031901126104695760243560043561336682610497565b600091818352600c60205260026040842001548352613398336040852060019160005201602052604060002054151590565b156133a657610b70916134ce565b60405162461bcd60e51b815260206004820152603060248201527f416363657373436f6e74726f6c3a2073656e646572206d75737420626520616e60448201526f2061646d696e20746f207265766f6b6560801b6064820152608490fd5b3461046957600080600319360112610b7657808052600c60205261343e6104ed336040842060019160005201602052604060002054151590565b60055481906001600160a01b0316803b15610b73578190600460405180948193638456cb5960e01b83525af180156108d257610b67575080f35b6000818152600c6020526040902090916001600160a01b03169061349d908290613524565b6134a5575050565b33917f2f8788117e7eff1d82e926ec794901d17c78024a50270940304540a733656f0d600080a4565b6000818152600c6020526040902090916001600160a01b0316906134f3908290613629565b6134fb575050565b33917ff6391f5c32d9c69d2a47ea670b442974b53935d1edc7fd64eb21e047a839171b600080a4565b600082815260018201602052604090205461358b57805490600160401b8210156119d8578261357461355d846001809601855584611731565b819391549060031b91821b91600019901b19161790565b905580549260005201602052604060002055600190565b5050600090565b634e487b7160e01b600052601160045260246000fd5b6000198101919082116135b757565b613592565b919082039182116135b757565b90600182018092116135b757565b919082018092116135b757565b634e487b7160e01b600052603160045260246000fd5b805490811561362457600019918201916136148383611731565b909182549160031b1b1916905555565b6135e4565b9060018201908060005281602052604060002054918215156000146136c4576000198381019384116135b75784549081019081116135b757846136be946136a961369861367b6136af9560009a611731565b90549060031b1c928361369161355d8388611731565b90556135c9565b918590600052602052604060002090565b556135fa565b90600052602052604060002090565b55600190565b50505050600090565b156136d457565b60405162461bcd60e51b815260206004820152602860248201527f44414f436f6d6d69747465653a206d73672e73656e646572206973206e6f742060448201526730b71030b236b4b760c11b6064820152608490fd5b1561373157565b60405162461bcd60e51b815260206004820152601a60248201527f44414f436f6d6d69747465653a207a65726f20616464726573730000000000006044820152606490fd5b6040513d6000823e3d90fd5b1561378957565b60405162461bcd60e51b815260206004820152602960248201527f44414f436f6d6d69747465653a2063616e64696461746520616c7265616479206044820152681c9959da5cdd195c9960ba1b6064820152608490fd5b9081602091031261046957516106da81610497565b908060209392818452848401376000828201840152601f01601f1916010190565b939594906138476080949360018060a01b03948580941688526000602089015260a0604089015260a08801916137f5565b9616606085015216910152565b1561385b57565b60405162461bcd60e51b815260206004820152603060248201527f44414f436f6d6d69747465653a206465706c6f7965642063616e64696461746560448201526f436f6e7472616374206973207a65726f60801b6064820152608490fd5b156138c057565b60405162461bcd60e51b815260206004820152603060248201527f44414f436f6d6d69747465653a205468652063616e64696461746520616c726560448201526f18591e481a185cc818dbdb9d1c9858dd60821b6064820152608490fd5b8015150361046957565b5190611a548261391e565b9081602091031261046957516106da8161391e565b1561394f57565b60405162461bcd60e51b815260206004820152603060248201527f44414f436f6d6d69747465653a206661696c656420746f20726567697374657260448201526f416e644465706c6f79436f696e61676560801b6064820152608490fd5b906001600160801b03166001600160801b0319825416179055565b815181546001600160a01b0319166001600160a01b0391909116178155611a54916003906020810151600184015560806002840191613a3e6001600160801b0393613a1985604085015116826139ad565b606083015181546001600160801b031690861660801b6001600160801b031916179055565b01511691016139ad565b60065490600160401b8210156119d857600182018060065582101561172c5760066000527ff652222313e28459528d920b65115c16c04f3efc82aaedc97be59f3f377c0d3f90910180546001600160a01b0319166001600160a01b03909216919091179055565b9160206106da9381815201916137f5565b15613ac757565b60405162461bcd60e51b815260206004820152602b60248201527f53746f726167655374617465436f6d6d69747465653a20696e76616c6964205360448201526a6569674d616e616765726560a81b6064820152608490fd5b15613b2757565b60405162461bcd60e51b815260206004820152602d60248201527f53746f726167655374617465436f6d6d69747465653a20696e76616c6964204c60448201526c6179657232526567697374727960981b6064820152608490fd5b15613b8957565b60405162461bcd60e51b815260206004820152603160248201527f53746f726167655374617465436f6d6d69747465653a20696e76616c696420436044820152706f6d6d69747465654c32466163746f727960781b6064820152608490fd5b15613bef57565b60405162461bcd60e51b815260206004820152601060248201526f185b1c9958591e481b5a59dc985d195960821b6044820152606490fd5b815181546001600160a01b039182166001600160a01b03199182161783556020840151600184018054919093169116179055611a54916004906040810151600284015560a06003840191613a3e6001600160801b0393613c8d85606085015116826139ad565b60808381015182546001600160801b031690871690911b6001600160801b031916179055565b15613cba57565b60405162461bcd60e51b815260206004820152602260248201527f44414f436f6d6d69747465653a20696e76616c6964206d656d62657220696e646044820152610caf60f31b6064820152608490fd5b15613d1157565b60405162461bcd60e51b815260206004820152603060248201527f44414f436f6d6d69747465653a2073656e646572206973206e6f74206120636160448201526f1b991a59185d194818dbdb9d1c9858dd60821b6064820152608490fd5b15613d7657565b60405162461bcd60e51b815260206004820152602860248201527f44414f436f6d6d69747465653a20696e76616c69642063616e6469646174652060448201526718dbdb9d1c9858dd60c21b6064820152608490fd5b15613dd357565b60405162461bcd60e51b815260206004820152601c60248201527f44414f436f6d6d69747465653a20616c7265616479206d656d626572000000006044820152606490fd5b90816020910312610469575190565b15613e2e57565b60405162461bcd60e51b81526020600482015260116024820152701b9bdd08195b9bdd59da08185b5bdd5b9d607a1b6044820152606490fd5b60408051630d90703f60e31b815291906020908184600481335afa9384156108d2576000946140d7575b506001600160a01b0384166000908152600960205260409020938151631dffc87160e21b81528381600481335afa80156108d257613ed7916000916140ba575b50613d0a565b84546001600160a01b039290613ef290339085908116610c83565b60028601906001600160801b03613f1b81613f1485546001600160801b031690565b1615613dcc565b866001613f2a611dd6836116f5565b99613f57613f4d610c768d60018060a01b03166000526009602052604060002090565b96854216906139ad565b0155613f6684611f3c896116f5565b8488161561408d5781516340bd8e6960e11b80825291908781600481335afa9485156108d2578793899260009761406b575b50600490865195869384928352165afa9687156108d25760008051602061533b833981519152976140349561401994613fdb9360009361403c575b505011613e27565b611e78611e58611e4c60026140028d60018060a01b03166000526009602052604060002090565b600060018201550193611e438554918216426135bc565b516001600160a01b0390961686529116939081906020820190565b0390a3600190565b61405c929350803d10614064575b6140548183611a26565b810190613e18565b903880613fd3565b503d61404a565b600491975061408690843d8611614064576140548183611a26565b9690613f98565b50516001600160a01b03909616865250169260008051602061533b83398151915291508060208101614034565b6140d19150853d8711610ad857610aca8183611a26565b38613ed1565b6140ef919450823d8411611077576110688183611a26565b9238613e91565b604051630d90703f60e31b8152602081600481335afa80156108d25760009182916141c6575b506001600160a01b0381811660009081526009602052604090208054909260008051602061533b833981519152926140349261415b9133918116610c83565b6141a66002600186019561418761417288546116f5565b81549060018060a01b039060031b1b19169055565b01611e78611e58611e4c8354611e436001600160801b038216426135bc565b8354938590556040516001600160a01b0390911681529081906020820190565b6141de915060203d8111611077576110688183611a26565b3861411c565b156141eb57565b60405162461bcd60e51b815260206004820152603a60248201527f44414f436f6d6d69747465653a2073656e646572206973206e6f74207468652060448201527f63616e646964617465206f66207468697320636f6e74726163740000000000006064820152608490fd5b6001600160a01b0390911681526040602082018190526106da939101916137f5565b6007548015613624576000198101908082101561172c577fa66cc928b5edb82af9bd49922954155ab7b0942694bea4ce44661d9a8736c687906007600052016001600160601b0360a01b8154169055600755565b33600090815260008051602061531b83398151915260205260409020546142f49015156136cd565b60025461430b906001600160a01b0316151561435a565b600854908160011c81111561313e57613104614329928211156143bb565b600a546040519081527f027863d12a407097e086a48e36475bfc859d0b200b7e6f65b5fd3b218e46632e90602090a1565b1561436157565b60405162461bcd60e51b815260206004820152602c60248201527f53746f726167655374617465436f6d6d69747465653a204167656e64614d616e60448201526b61676572206973207a65726f60a01b6064820152608490fd5b156143c257565b60405162461bcd60e51b815260206004820152602660248201527f44414f436f6d6d69747465653a2071756f72756d20657863656564206d61782060448201526536b2b6b132b960d11b6064820152608490fd5b90816060910312610469578051916040602083015192015190565b634e487b7160e01b600052602160045260246000fd5b6004111561445157565b614431565b9081526040810192919060048210156144515760200152565b6006111561445157565b9081526040810192919060068210156144515760200152565b6040906106da9492815281602082015201916137f5565b156144b057565b60405162461bcd60e51b815260206004820152602860248201527f44414f436f6d6d69747465653a2063616e206e6f74206578656375746520746860448201526765206167656e646160c01b6064820152608490fd5b6001600160401b0381116119d85760051b60200190565b60005b8381106145305750506000910152565b8181015183820152602001614520565b9080601f830112156104695781519161455883614506565b9260409061456882519586611a26565b808552602093848087019260051b8501019381851161046957858101925b858410614597575050505050505090565b83516001600160401b0381116104695782019083603f830112156104695787820151906145c382611a63565b6145cf88519182611a26565b82815285888486010111610469576145f08a949385948a868501910161451d565b815201930192614586565b9190916080818403126104695780516001600160401b03908181116104695782019380601f8601121561046957845161463381614506565b906146416040519283611a26565b808252602096878084019260051b820101918483116104695788809201905b83821061469657505050509483015191821161046957614681918301614540565b91606061469060408401613928565b92015190565b82809183516146a481610497565b815201910190614660565b60001981146135b75760010190565b805182101561172c5760209160051b010190565b3d156146fd573d906146e382611a63565b916146f16040519384611a26565b82523d6000602084013e565b606090565b1561470957565b60405162461bcd60e51b815260206004820152602a60248201527f44414f436f6d6d69747465653a204661696c656420746f206578656375746520604482015269746865206167656e646160b01b6064820152608490fd5b90815180825260208080930193019160005b828110614781575050505090565b83516001600160a01b031685529381019392810192600101614773565b9060206106da928181520190614761565b602060009160018060a01b03809116835260098252604083205416600460405180948193633b253c2b60e11b83525af19081156108d2576000916147f1575090565b6106da915060203d8111610ad857610aca8183611a26565b60005b82811061481b57505050600190565b61482e8160051b830135612a3881610497565b156148415761483c906146af565b61480c565b60405162461bcd60e51b815260206004820152602a60248201527f44414f436f6d6d69747465653a206661696c656420746f2075706461746520736044820152696569676e696f7261676560b01b6064820152608490fd5b156148a057565b60405162461bcd60e51b815260206004820152602a60248201527f44414f436f6d6d69747465653a20796f7520646f6e2774206861766520636c6160448201526934b6b0b13632903a37b760b11b6064820152608490fd5b156148ff57565b60405162461bcd60e51b815260206004820152602560248201527f44414f436f6d6d69747465653a20696e76616c6964206c617965723220636f6e6044820152641d1c9858dd60da1b6064820152608490fd5b1561495957565b60405162461bcd60e51b815260206004820152601e60248201527f44414f436f6d6d69747465653a20696e76616c6964206f70657261746f7200006044820152606490fd5b906020916149b78151809281855285808601910161451d565b601f01601f1916010190565b9294936080929161384760018060a01b03938480931687526001602088015260a0604088015260a087019061499e565b9060206106da92818152019061499e565b35906001600160801b038216820361046957565b3590611a548261391e565b81601f8201121561046957803590614a3a82614506565b92604092614a4a84519586611a26565b808552602093848087019260051b8501019383851161046957858101925b858410614a79575050505050505090565b83356001600160401b03811161046957820185603f82011215610469578791614aaa87838786809601359101611a7e565b815201930192614a68565b919091604051614ac4816119f0565b60608152602091828201600091828252604084018381526060850193808552608086019460608652869984019560a085880312612932576001600160401b03968535888111614be15786019981601f8c011215614be1578a359a614b278c614506565b9b82806040519e8f90614b3a9082611a26565b838152019160051b83010191848311614bdd578301905b828210614bc457505050614b66908701614a04565b97614b7360408801614a04565b96614b8060608201614a18565b956080820135928311610b76575092614baa614bc19a99989693614bb3989693614bb39601614a23565b90529015159052565b906001600160801b03169052565b52565b8380918335614bd281610497565b815201910190614b51565b8780fd5b8480fd5b9092949360018060a01b0392836002541695614c0287151561435a565b6040518097632522a32f60e01b825281600460209a8b935afa9081156108d257600091614e0c575b50600054614c42906107df906001600160a01b031681565b6040516323b872dd60e01b81526001600160a01b038716600482015230602482015260448101839052908990829060649082906000905af180156108d257600092614c99614cd8928c948691614def575b50614ef6565b8354614caf906107df906001600160a01b031681565b9060405194858094819363a9059cbb60e01b835260048301919060206040840193600181520152565b03925af180156108d2578492614cf98b928b94600091614dd2575b50614f5c565b8460008a614d32614d146107df60025460018060a01b031690565b94604051988997889687956304a091b760e31b875260048701614e29565b03925af19687156108d257600097614d85575b50507fcd47bcad760e912d146723a314cc78b8570ee76ec8bdd4b60335087f6c2f47d79392918697614d7f92604051958695169785614ebf565b0390a390565b614d7f9297507fcd47bcad760e912d146723a314cc78b8570ee76ec8bdd4b60335087f6c2f47d79594939181614dc692903d10614064576140548183611a26565b96918193949550614d45565b614de99150853d8711610ad857610aca8183611a26565b38614cf3565b614e069150853d8711610ad857610aca8183611a26565b38614c93565b614e239150883d8a11614064576140548183611a26565b38614c2a565b91929390614e3f9060a0845260a0840190614761565b936001600160801b03908160209516858501521660408301521515606082015260808184039101528251908183528083019281808460051b8301019501936000915b848310614e915750505050505090565b9091929394958480614eaf600193601f198682030187528a5161499e565b9801930193019194939290614e81565b9294939091614ed8606093608086526080860190614761565b956001600160801b0380921660208601521660408401521515910152565b15614efd57565b60405162461bcd60e51b815260206004820152603160248201527f44414f436f6d6d69747465653a206661696c656420746f207472616e73666572604482015270103a37b710333937b69031b932b0ba37b960791b6064820152608490fd5b15614f6357565b60405162461bcd60e51b815260206004820152601c60248201527f44414f436f6d6d69747465653a206661696c656420746f206275726e000000006044820152606490fd5b906000929183602081940191619c3f195a01f190565b6001600160a01b0390811660009081526009602052604090205416801561510657604051906020828180809501916301ffc9a760e01b928381528360248301526024825261500b82611a0b565b60009687809351617530938985fa933d835190866150fb575b50856150f1575b5084615093575b5050505080615084575b1561507f578060049260405193848092631dffc87160e21b82525afa9283156108d2579261506957505090565b6106da9250803d10610ad857610aca8183611a26565b505090565b5061508e8261510c565b61503c565b90919293508560405185810192835263ffffffff60e01b6024820152602481526150bc81611a0b565b5192fa8351823d836150e6575b5050816150dc575b501581843880615032565b90501515386150d1565b1015915082386150c9565b151594503861502b565b851115955038615024565b50600090565b6000602091604051838101906301ffc9a760e01b8252631dffc87160e21b60248201526024815261513c81611a0b565b5191617530fa6000513d8261515d575b5081615156575090565b9050151590565b6020111591503861514c565b1561517057565b60405162461bcd60e51b815260206004820152601f60248201527f54686973206163636f756e74206973206e6f7420612063616e646964617465006044820152606490fd5b6004906020906001600160a01b03166151cf811515615169565b6040516340bd8e6960e11b815292839182905afa9081156108d2576000916151f5575090565b6106da915060203d8111614064576140548183611a26565b6001600160a01b03908116916020919060249061522b851515615169565b604051948593849263af500ba360e01b84521660048301525afa9081156108d2576000916151f5575090565b818102929181159184041417156135b757565b6001600160a01b031660009081526009602052604090206002810154608081901c916001600160801b039182169190826152af575b5050506106da90600b5490615257565b6003015416808211156152dc57506152d4906152cf6106da9342906135d7565b6135bc565b90388061529f565b90504282018092116135b75781039081116135b7576106da906152d456fefa0761008653bc7bf9fa040fb7e07672ad3e17a976eb452c44e81dd782a6214b13649b2456f1b42fef0f0040b3aaeabcd21a76a0f3f5defd4f583839455116e9663b98adf1afa777e36528b3293a057803f87ed00d2d2518dccfe5d7a6e99ccfa164736f6c6343000813000a",
  "linkReferences": {},
  "deployedLinkReferences": {}
}