{
  "_format": "hh-sol-artifact-1",
  "contractName": "DAOCommitteeExtend",
  "sourceName": "contracts/dao/DAOCommitteeExtend.sol",
  "abi": [
    {
      "anonymous": false,
      "inputs": [
        {
          "indexed": false,
          "internalType": "uint256",
          "name": "newReward",
          "type": "uint256"
        }
      ],
      "name": "ActivityRewardChanged",
      "type": "event"
    },
    {
      "anonymous": false,
      "inputs": [
        {
          "indexed": true,
          "internalType": "address",
          "name": "from",
          "type": "address"
        },
        {
          "indexed": true,
          "internalType": "uint256",
          "name": "id",
          "type": "uint256"
        },
        {
          "indexed": false,
          "internalType": "address[]",
          "name": "targets",
          "type": "address[]"
        },
        {
          "indexed": false,
          "internalType": "uint128",
          "name": "noticePeriodSeconds",
          "type": "uint128"
        },
        {
          "indexed": false,
          "internalType": "uint128",
          "name": "votingPeriodSeconds",
          "type": "uint128"
        },
        {
          "indexed": false,
          "internalType": "bool",
          "name": "atomicExecute",
          "type": "bool"
        }
      ],
      "name": "AgendaCreated",
      "type": "event"
    },
    {
      "anonymous": false,
      "inputs": [
        {
          "indexed": true,
          "internalType": "uint256",
          "name": "id",
          "type": "uint256"
        },
        {
          "indexed": false,
          "internalType": "address[]",
          "name": "target",
          "type": "address[]"
        }
      ],
      "name": "AgendaExecuted",
      "type": "event"
    },
    {
      "anonymous": false,
      "inputs": [
        {
          "indexed": true,
          "internalType": "address",
          "name": "from",
          "type": "address"
        },
        {
          "indexed": true,
          "internalType": "uint256",
          "name": "id",
          "type": "uint256"
        },
        {
          "indexed": false,
          "internalType": "uint256",
          "name": "voting",
          "type": "uint256"
        },
        {
          "indexed": false,
          "internalType": "string",
          "name": "comment",
          "type": "string"
        }
      ],
      "name": "AgendaVoteCasted",
      "type": "event"
    },
    {
      "anonymous": false,
      "inputs": [
        {
          "indexed": true,
          "internalType": "address",
          "name": "candidate",
          "type": "address"
        },
        {
          "indexed": true,
          "internalType": "address",
          "name": "candidateContract",
          "type": "address"
        },
        {
          "indexed": false,
          "internalType": "string",
          "name": "memo",
          "type": "string"
        }
      ],
      "name": "CandidateContractCreated",
      "type": "event"
    },
    {
      "anonymous": false,
      "inputs": [
        {
          "indexed": true,
          "internalType": "uint256",
          "name": "slotIndex",
          "type": "uint256"
        },
        {
          "indexed": false,
          "internalType": "address",
          "name": "prevMember",
          "type": "address"
        },
        {
          "indexed": true,
          "internalType": "address",
          "name": "newMember",
          "type": "address"
        }
      ],
      "name": "ChangedMember",
      "type": "event"
    },
    {
      "anonymous": false,
      "inputs": [
        {
          "indexed": false,
          "internalType": "address",
          "name": "candidate",
          "type": "address"
        },
        {
          "indexed": false,
          "internalType": "string",
          "name": "newMemo",
          "type": "string"
        }
      ],
      "name": "ChangedMemo",
      "type": "event"
    },
    {
      "anonymous": false,
      "inputs": [
        {
          "indexed": true,
          "internalType": "uint256",
          "name": "prevSlotMax",
          "type": "uint256"
        },
        {
          "indexed": true,
          "internalType": "uint256",
          "name": "slotMax",
          "type": "uint256"
        }
      ],
      "name": "ChangedSlotMaximum",
      "type": "event"
    },
    {
      "anonymous": false,
      "inputs": [
        {
          "indexed": true,
          "internalType": "address",
          "name": "candidate",
          "type": "address"
        },
        {
          "indexed": false,
          "internalType": "address",
          "name": "receiver",
          "type": "address"
        },
        {
          "indexed": false,
          "internalType": "uint256",
          "name": "amount",
          "type": "uint256"
        }
      ],
      "name": "ClaimedActivityReward",
      "type": "event"
    },
    {
      "anonymous": false,
      "inputs": [
        {
          "indexed": true,
          "internalType": "address",
          "name": "candidate",
          "type": "address"
        },
        {
          "indexed": true,
          "internalType": "address",
          "name": "candidateContract",
          "type": "address"
        },
        {
          "indexed": false,
          "internalType": "string",
          "name": "memo",
          "type": "string"
        }
      ],
      "name": "Layer2Registered",
      "type": "event"
    },
    {
      "anonymous": false,
      "inputs": [
        {
          "indexed": false,
          "internalType": "uint256",
          "name": "newQuorum",
          "type": "uint256"
        }
      ],
      "name": "QuorumChanged",
      "type": "event"
    },
    {
      "anonymous": false,
      "inputs": [
        {
          "indexed": true,
          "internalType": "bytes32",
          "name": "role",
          "type": "bytes32"
        },
        {
          "indexed": true,
          "internalType": "bytes32",
          "name": "previousAdminRole",
          "type": "bytes32"
        },
        {
          "indexed": true,
          "internalType": "bytes32",
          "name": "newAdminRole",
          "type": "bytes32"
        }
      ],
      "name": "RoleAdminChanged",
      "type": "event"
    },
    {
      "anonymous": false,
      "inputs": [
        {
          "indexed": true,
          "internalType": "bytes32",
          "name": "role",
          "type": "bytes32"
        },
        {
          "indexed": true,
          "internalType": "address",
          "name": "account",
          "type": "address"
        },
        {
          "indexed": true,
          "internalType": "address",
          "name": "sender",
          "type": "address"
        }
      ],
      "name": "RoleGranted",
      "type": "event"
    },
    {
      "anonymous": false,
      "inputs": [
        {
          "indexed": true,
          "internalType": "bytes32",
          "name": "role",
          "type": "bytes32"
        },
        {
          "indexed": true,
          "internalType": "address",
          "name": "account",
          "type": "address"
        },
        {
          "indexed": true,
          "internalType": "address",
          "name": "sender",
          "type": "address"
        }
      ],
      "name": "RoleRevoked",
      "type": "event"
    },
    {
      "inputs": [],
      "name": "DEFAULT_ADMIN_ROLE",
      "outputs": [
        {
          "internalType": "bytes32",
          "name": "",
          "type": "bytes32"
        }
      ],
      "stateMutability": "view",
      "type": "function"
    },
    {
      "inputs": [],
      "name": "activityRewardPerSecond",
      "outputs": [
        {
          "internalType": "uint256",
          "name": "",
          "type": "uint256"
        }
      ],
      "stateMutability": "view",
      "type": "function"
    },
    {
      "inputs": [],
      "name": "agendaManager",
      "outputs": [
        {
          "internalType": "contract IDAOAgendaManager",
          "name": "",
          "type": "address"
        }
      ],
      "stateMutability": "view",
      "type": "function"
    },
    {
      "inputs": [
        {
          "internalType": "address",
          "name": "_candidate",
          "type": "address"
        },
        {
          "internalType": "address",
          "name": "_account",
          "type": "address"
        }
      ],
      "name": "balanceOfOnCandidate",
      "outputs": [
        {
          "internalType": "uint256",
          "name": "amount",
          "type": "uint256"
        }
      ],
      "stateMutability": "view",
      "type": "function"
    },
    {
      "inputs": [
        {
          "internalType": "address",
          "name": "_candidateContract",
          "type": "address"
        },
        {
          "internalType": "address",
          "name": "_account",
          "type": "address"
        }
      ],
      "name": "balanceOfOnCandidateContract",
      "outputs": [
        {
          "internalType": "uint256",
          "name": "amount",
          "type": "uint256"
        }
      ],
      "stateMutability": "view",
      "type": "function"
    },
    {
      "inputs": [
        {
          "internalType": "address",
          "name": "_candidate",
          "type": "address"
        }
      ],
      "name": "candidateContract",
      "outputs": [
        {
          "internalType": "address",
          "name": "",
          "type": "address"
        }
      ],
      "stateMutability": "view",
      "type": "function"
    },
    {
      "inputs": [],
      "name": "candidateFactory",
      "outputs": [
        {
          "internalType": "contract ICandidateFactory",
          "name": "",
          "type": "address"
        }
      ],
      "stateMutability": "view",
      "type": "function"
    },
    {
      "inputs": [
        {
          "internalType": "address",
          "name": "_candidate",
          "type": "address"
        }
      ],
      "name": "candidateInfos",
      "outputs": [
        {
          "components": [
            {
              "internalType": "address",
              "name": "candidateContract",
              "type": "address"
            },
            {
              "internalType": "uint256",
              "name": "indexMembers",
              "type": "uint256"
            },
            {
              "internalType": "uint128",
              "name": "memberJoinedTime",
              "type": "uint128"
            },
            {
              "internalType": "uint128",
              "name": "rewardPeriod",
              "type": "uint128"
            },
            {
              "internalType": "uint128",
              "name": "claimedTimestamp",
              "type": "uint128"
            }
          ],
          "internalType": "struct StorageStateCommittee.CandidateInfo",
          "name": "",
          "type": "tuple"
        }
      ],
      "stateMutability": "view",
      "type": "function"
    },
    {
      "inputs": [
        {
          "internalType": "uint256",
          "name": "",
          "type": "uint256"
        }
      ],
      "name": "candidates",
      "outputs": [
        {
          "internalType": "address",
          "name": "",
          "type": "address"
        }
      ],
      "stateMutability": "view",
      "type": "function"
    },
    {
      "inputs": [],
      "name": "candidatesLength",
      "outputs": [
        {
          "internalType": "uint256",
          "name": "",
          "type": "uint256"
        }
      ],
      "stateMutability": "view",
      "type": "function"
    },
    {
      "inputs": [
        {
          "internalType": "uint256",
          "name": "_agendaID",
          "type": "uint256"
        },
        {
          "internalType": "uint256",
          "name": "_vote",
          "type": "uint256"
        },
        {
          "internalType": "string",
          "name": "_comment",
          "type": "string"
        }
      ],
      "name": "castVote",
      "outputs": [],
      "stateMutability": "nonpayable",
      "type": "function"
    },
    {
      "inputs": [
        {
          "internalType": "uint256",
          "name": "_memberIndex",
          "type": "uint256"
        }
      ],
      "name": "changeMember",
      "outputs": [
        {
          "internalType": "bool",
          "name": "",
          "type": "bool"
        }
      ],
      "stateMutability": "nonpayable",
      "type": "function"
    },
    {
      "inputs": [
        {
          "internalType": "address",
          "name": "_receiver",
          "type": "address"
        }
      ],
      "name": "claimActivityReward",
      "outputs": [],
      "stateMutability": "nonpayable",
      "type": "function"
    },
    {
      "inputs": [
        {
          "internalType": "string",
          "name": "_memo",
          "type": "string"
        },
        {
          "internalType": "address",
          "name": "_operatorAddress",
          "type": "address"
        }
      ],
      "name": "createCandidate",
      "outputs": [],
      "stateMutability": "nonpayable",
      "type": "function"
    },
    {
      "inputs": [
        {
          "internalType": "string",
          "name": "_memo",
          "type": "string"
        }
      ],
      "name": "createCandidate",
      "outputs": [],
      "stateMutability": "nonpayable",
      "type": "function"
    },
    {
      "inputs": [],
      "name": "daoVault",
      "outputs": [
        {
          "internalType": "contract IDAOVault",
          "name": "",
          "type": "address"
        }
      ],
      "stateMutability": "view",
      "type": "function"
    },
    {
      "inputs": [
        {
          "internalType": "uint256",
          "name": "_reducingMemberIndex",
          "type": "uint256"
        },
        {
          "internalType": "uint256",
          "name": "_quorum",
          "type": "uint256"
        }
      ],
      "name": "decreaseMaxMember",
      "outputs": [],
      "stateMutability": "nonpayable",
      "type": "function"
    },
    {
      "inputs": [
        {
          "internalType": "uint256",
          "name": "_agendaID",
          "type": "uint256"
        }
      ],
      "name": "endAgendaVoting",
      "outputs": [],
      "stateMutability": "nonpayable",
      "type": "function"
    },
    {
      "inputs": [
        {
          "internalType": "uint256",
          "name": "_agendaID",
          "type": "uint256"
        }
      ],
      "name": "executeAgenda",
      "outputs": [],
      "stateMutability": "nonpayable",
      "type": "function"
    },
    {
      "inputs": [
        {
          "internalType": "address",
          "name": "_candidate",
          "type": "address"
        }
      ],
      "name": "getClaimableActivityReward",
      "outputs": [
        {
          "internalType": "uint256",
          "name": "",
          "type": "uint256"
        }
      ],
      "stateMutability": "view",
      "type": "function"
    },
    {
      "inputs": [
        {
          "internalType": "address",
          "name": "_oldCandidate",
          "type": "address"
        }
      ],
      "name": "getOldCandidateInfos",
      "outputs": [
        {
          "components": [
            {
              "internalType": "address",
              "name": "candidateContract",
              "type": "address"
            },
            {
              "internalType": "address",
              "name": "newCandidate",
              "type": "address"
            },
            {
              "internalType": "uint256",
              "name": "indexMembers",
              "type": "uint256"
            },
            {
              "internalType": "uint128",
              "name": "memberJoinedTime",
              "type": "uint128"
            },
            {
              "internalType": "uint128",
              "name": "rewardPeriod",
              "type": "uint128"
            },
            {
              "internalType": "uint128",
              "name": "claimedTimestamp",
              "type": "uint128"
            }
          ],
          "internalType": "struct StorageStateCommitteeV2.CandidateInfo2",
          "name": "",
          "type": "tuple"
        }
      ],
      "stateMutability": "view",
      "type": "function"
    },
    {
      "inputs": [
        {
          "internalType": "bytes32",
          "name": "role",
          "type": "bytes32"
        }
      ],
      "name": "getRoleAdmin",
      "outputs": [
        {
          "internalType": "bytes32",
          "name": "",
          "type": "bytes32"
        }
      ],
      "stateMutability": "view",
      "type": "function"
    },
    {
      "inputs": [
        {
          "internalType": "bytes32",
          "name": "role",
          "type": "bytes32"
        },
        {
          "internalType": "uint256",
          "name": "index",
          "type": "uint256"
        }
      ],
      "name": "getRoleMember",
      "outputs": [
        {
          "internalType": "address",
          "name": "",
          "type": "address"
        }
      ],
      "stateMutability": "view",
      "type": "function"
    },
    {
      "inputs": [
        {
          "internalType": "bytes32",
          "name": "role",
          "type": "bytes32"
        }
      ],
      "name": "getRoleMemberCount",
      "outputs": [
        {
          "internalType": "uint256",
          "name": "",
          "type": "uint256"
        }
      ],
      "stateMutability": "view",
      "type": "function"
    },
    {
      "inputs": [
        {
          "internalType": "bytes32",
          "name": "role",
          "type": "bytes32"
        },
        {
          "internalType": "address",
          "name": "account",
          "type": "address"
        }
      ],
      "name": "grantRole",
      "outputs": [],
      "stateMutability": "nonpayable",
      "type": "function"
    },
    {
      "inputs": [
        {
          "internalType": "bytes32",
          "name": "role",
          "type": "bytes32"
        },
        {
          "internalType": "address",
          "name": "account",
          "type": "address"
        }
      ],
      "name": "hasRole",
      "outputs": [
        {
          "internalType": "bool",
          "name": "",
          "type": "bool"
        }
      ],
      "stateMutability": "view",
      "type": "function"
    },
    {
      "inputs": [
        {
          "internalType": "address",
          "name": "_candidate",
          "type": "address"
        }
      ],
      "name": "isCandidate",
      "outputs": [
        {
          "internalType": "bool",
          "name": "",
          "type": "bool"
        }
      ],
      "stateMutability": "view",
      "type": "function"
    },
    {
      "inputs": [
        {
          "internalType": "address",
          "name": "_candidate",
          "type": "address"
        }
      ],
      "name": "isExistCandidate",
      "outputs": [
        {
          "internalType": "bool",
          "name": "isExist",
          "type": "bool"
        }
      ],
      "stateMutability": "view",
      "type": "function"
    },
    {
      "inputs": [
        {
          "internalType": "address",
          "name": "_candidate",
          "type": "address"
        }
      ],
      "name": "isMember",
      "outputs": [
        {
          "internalType": "bool",
          "name": "",
          "type": "bool"
        }
      ],
      "stateMutability": "view",
      "type": "function"
    },
    {
      "inputs": [],
      "name": "layer2Registry",
      "outputs": [
        {
          "internalType": "contract ILayer2Registry",
          "name": "",
          "type": "address"
        }
      ],
      "stateMutability": "view",
      "type": "function"
    },
    {
      "inputs": [],
      "name": "maxMember",
      "outputs": [
        {
          "internalType": "uint256",
          "name": "",
          "type": "uint256"
        }
      ],
      "stateMutability": "view",
      "type": "function"
    },
    {
      "inputs": [
        {
          "internalType": "uint256",
          "name": "",
          "type": "uint256"
        }
      ],
      "name": "members",
      "outputs": [
        {
          "internalType": "address",
          "name": "",
          "type": "address"
        }
      ],
      "stateMutability": "view",
      "type": "function"
    },
    {
      "inputs": [
        {
          "internalType": "address",
          "name": "owner",
          "type": "address"
        },
        {
          "internalType": "address",
          "name": "spender",
          "type": "address"
        },
        {
          "internalType": "uint256",
          "name": "tonAmount",
          "type": "uint256"
        },
        {
          "internalType": "bytes",
          "name": "data",
          "type": "bytes"
        }
      ],
      "name": "onApprove",
      "outputs": [
        {
          "internalType": "bool",
          "name": "",
          "type": "bool"
        }
      ],
      "stateMutability": "nonpayable",
      "type": "function"
    },
    {
      "inputs": [],
      "name": "pauseProxy",
      "outputs": [
        {
          "internalType": "bool",
          "name": "",
          "type": "bool"
        }
      ],
      "stateMutability": "view",
      "type": "function"
    },
    {
      "inputs": [],
      "name": "quorum",
      "outputs": [
        {
          "internalType": "uint256",
          "name": "",
          "type": "uint256"
        }
      ],
      "stateMutability": "view",
      "type": "function"
    },
    {
      "inputs": [
        {
          "internalType": "address",
          "name": "_layer2",
          "type": "address"
        },
        {
          "internalType": "string",
          "name": "_memo",
          "type": "string"
        }
      ],
      "name": "registerLayer2Candidate",
      "outputs": [],
      "stateMutability": "nonpayable",
      "type": "function"
    },
    {
      "inputs": [
        {
          "internalType": "address",
          "name": "_operator",
          "type": "address"
        },
        {
          "internalType": "address",
          "name": "_layer2",
          "type": "address"
        },
        {
          "internalType": "string",
          "name": "_memo",
          "type": "string"
        }
      ],
      "name": "registerLayer2CandidateByOwner",
      "outputs": [],
      "stateMutability": "nonpayable",
      "type": "function"
    },
    {
      "inputs": [
        {
          "internalType": "bytes32",
          "name": "role",
          "type": "bytes32"
        },
        {
          "internalType": "address",
          "name": "account",
          "type": "address"
        }
      ],
      "name": "renounceRole",
      "outputs": [],
      "stateMutability": "nonpayable",
      "type": "function"
    },
    {
      "inputs": [],
      "name": "retireMember",
      "outputs": [
        {
          "internalType": "bool",
          "name": "",
          "type": "bool"
        }
      ],
      "stateMutability": "nonpayable",
      "type": "function"
    },
    {
      "inputs": [
        {
          "internalType": "bytes32",
          "name": "role",
          "type": "bytes32"
        },
        {
          "internalType": "address",
          "name": "account",
          "type": "address"
        }
      ],
      "name": "revokeRole",
      "outputs": [],
      "stateMutability": "nonpayable",
      "type": "function"
    },
    {
      "inputs": [],
      "name": "seigManager",
      "outputs": [
        {
          "internalType": "contract ISeigManager",
          "name": "",
          "type": "address"
        }
      ],
      "stateMutability": "view",
      "type": "function"
    },
    {
      "inputs": [
        {
          "internalType": "uint256",
          "name": "_agendaID",
          "type": "uint256"
        },
        {
          "internalType": "uint256",
          "name": "_status",
          "type": "uint256"
        },
        {
          "internalType": "uint256",
          "name": "_result",
          "type": "uint256"
        }
      ],
      "name": "setAgendaStatus",
      "outputs": [],
      "stateMutability": "nonpayable",
      "type": "function"
    },
    {
      "inputs": [
        {
          "internalType": "address",
          "name": "_candidateFactory",
          "type": "address"
        }
      ],
      "name": "setCandidateFactory",
      "outputs": [],
      "stateMutability": "nonpayable",
      "type": "function"
    },
    {
      "inputs": [
        {
          "internalType": "uint256",
          "name": "_fees",
          "type": "uint256"
        }
      ],
      "name": "setCreateAgendaFees",
      "outputs": [],
      "stateMutability": "nonpayable",
      "type": "function"
    },
    {
      "inputs": [
        {
          "internalType": "uint256",
          "name": "_executingPeriodSeconds",
          "type": "uint256"
        }
      ],
      "name": "setExecutingPeriodSeconds",
      "outputs": [],
      "stateMutability": "nonpayable",
      "type": "function"
    },
    {
      "inputs": [
        {
          "internalType": "address",
          "name": "_layer2Registry",
          "type": "address"
        }
      ],
      "name": "setLayer2Registry",
      "outputs": [],
      "stateMutability": "nonpayable",
      "type": "function"
    },
    {
      "inputs": [
        {
          "internalType": "address",
          "name": "_candidateContract",
          "type": "address"
        },
        {
          "internalType": "string",
          "name": "_memo",
          "type": "string"
        }
      ],
      "name": "setMemoOnCandidateContract",
      "outputs": [],
      "stateMutability": "nonpayable",
      "type": "function"
    },
    {
      "inputs": [
        {
          "internalType": "uint256",
          "name": "_minimumNoticePeriod",
          "type": "uint256"
        }
      ],
      "name": "setMinimumNoticePeriodSeconds",
      "outputs": [],
      "stateMutability": "nonpayable",
      "type": "function"
    },
    {
      "inputs": [
        {
          "internalType": "uint256",
          "name": "_minimumVotingPeriod",
          "type": "uint256"
        }
      ],
      "name": "setMinimumVotingPeriodSeconds",
      "outputs": [],
      "stateMutability": "nonpayable",
      "type": "function"
    },
    {
      "inputs": [
        {
          "internalType": "uint256",
          "name": "_quorum",
          "type": "uint256"
        }
      ],
      "name": "setQuorum",
      "outputs": [],
      "stateMutability": "nonpayable",
      "type": "function"
    },
    {
      "inputs": [
        {
          "internalType": "address",
          "name": "_seigManager",
          "type": "address"
        }
      ],
      "name": "setSeigManager",
      "outputs": [],
      "stateMutability": "nonpayable",
      "type": "function"
    },
    {
      "inputs": [],
      "name": "setSeigPause",
      "outputs": [],
      "stateMutability": "nonpayable",
      "type": "function"
    },
    {
      "inputs": [],
      "name": "setSeigUnpause",
      "outputs": [],
      "stateMutability": "nonpayable",
      "type": "function"
    },
    {
      "inputs": [
        {
          "internalType": "address",
          "name": "token",
          "type": "address"
        },
        {
          "internalType": "address",
          "name": "account",
          "type": "address"
        }
      ],
      "name": "setTargetAddMinter",
      "outputs": [],
      "stateMutability": "nonpayable",
      "type": "function"
    },
    {
      "inputs": [
        {
          "internalType": "address",
          "name": "target",
          "type": "address"
        },
        {
          "internalType": "uint256",
          "name": "globalWithdrawalDelay_",
          "type": "uint256"
        }
      ],
      "name": "setTargetGlobalWithdrawalDelay",
      "outputs": [],
      "stateMutability": "nonpayable",
      "type": "function"
    },
    {
      "inputs": [
        {
          "internalType": "address",
          "name": "target",
          "type": "address"
        },
        {
          "internalType": "address",
          "name": "_seigManager",
          "type": "address"
        }
      ],
      "name": "setTargetSeigManager",
      "outputs": [],
      "stateMutability": "nonpayable",
      "type": "function"
    },
    {
      "inputs": [
        {
          "internalType": "bytes4",
          "name": "interfaceId",
          "type": "bytes4"
        }
      ],
      "name": "supportsInterface",
      "outputs": [
        {
          "internalType": "bool",
          "name": "",
          "type": "bool"
        }
      ],
      "stateMutability": "view",
      "type": "function"
    },
    {
      "inputs": [],
      "name": "ton",
      "outputs": [
        {
          "internalType": "address",
          "name": "",
          "type": "address"
        }
      ],
      "stateMutability": "view",
      "type": "function"
    },
    {
      "inputs": [
        {
          "internalType": "address",
          "name": "_candidate",
          "type": "address"
        }
      ],
      "name": "totalSupplyOnCandidate",
      "outputs": [
        {
          "internalType": "uint256",
          "name": "totalsupply",
          "type": "uint256"
        }
      ],
      "stateMutability": "view",
      "type": "function"
    },
    {
      "inputs": [
        {
          "internalType": "address",
          "name": "_candidateContract",
          "type": "address"
        }
      ],
      "name": "totalSupplyOnCandidateContract",
      "outputs": [
        {
          "internalType": "uint256",
          "name": "totalsupply",
          "type": "uint256"
        }
      ],
      "stateMutability": "view",
      "type": "function"
    },
    {
      "inputs": [
        {
          "internalType": "address",
          "name": "_candidate",
          "type": "address"
        }
      ],
      "name": "updateSeigniorage",
      "outputs": [
        {
          "internalType": "bool",
          "name": "",
          "type": "bool"
        }
      ],
      "stateMutability": "nonpayable",
      "type": "function"
    },
    {
      "inputs": [
        {
          "internalType": "address[]",
          "name": "_candidates",
          "type": "address[]"
        }
      ],
      "name": "updateSeigniorages",
      "outputs": [
        {
          "internalType": "bool",
          "name": "",
          "type": "bool"
        }
      ],
      "stateMutability": "nonpayable",
      "type": "function"
    },
    {
      "inputs": [],
      "name": "wton",
      "outputs": [
        {
          "internalType": "address",
          "name": "",
          "type": "address"
        }
      ],
      "stateMutability": "view",
      "type": "function"
    }
  ],
  "bytecode": "0x60806040523480156200001157600080fd5b50620000246301ffc9a760e01b6200002a565b620000ae565b6001600160e01b03198082169003620000895760405162461bcd60e51b815260206004820152601c60248201527f4552433136353a20696e76616c696420696e7465726661636520696400000000604482015260640160405180910390fd5b6001600160e01b0319166000908152600d60205260409020805460ff19166001179055565b615cb380620000be6000396000f3fe608060405234801561001057600080fd5b50600436106103c55760003560e01c80636becff27116101ff578063a1f3ac2a1161011a578063c4ef9c00116100ad578063d51b9e931161007c578063d51b9e9314610a87578063d525f04f14610a9a578063d547741f14610aad578063efd5797914610ac057600080fd5b8063c4ef9c0014610a46578063ca15c87314610a4e578063cc48b94714610a61578063cf2a239c14610a7457600080fd5b8063b4f69b6a116100e9578063b4f69b6a146109fa578063b5dd115814610a0d578063c0bc530414610a20578063c1ba4e5914610a3357600080fd5b8063a1f3ac2a14610995578063a217fddf146109a8578063a230c524146109b0578063ad6675dc146109e757600080fd5b8063885b46961161019257806391d148541161016157806391d14854146109495780639932e94c1461095c5780639d65b5311461096f578063a1ea35251461098257600080fd5b8063885b4696146108fd57806389ea4300146109105780638d62d949146109235780639010d07c1461093657600080fd5b806378767d33116101ce57806378767d33146108c65780637f331636146108d9578063805aca20146108e257806381bfe42c146108f557600080fd5b80636becff27146108855780636fb7f558146108985780637657f20a146108ab578063773b7f65146108be57600080fd5b806332a45ef6116102ef57806357f0a86711610282578063607cf73411610251578063607cf7341461080e57806363a8fd8914610821578063651d08cd1461084657806369b1227a1461087257600080fd5b806357f0a867146107c25780635903bd6c146107d55780635daf08ca146107e85780635fba7a56146107fb57600080fd5b80634273ca16116102be5780634273ca161461075b578063440b69ad1461076e57806350e8f17d14610781578063561a1dab1461079457600080fd5b806332a45ef61461070f5780633477ee2e1461072257806336568abe1461073557806338d1b17c1461074857600080fd5b8063216f486b1161036757806327fd92fd1161033657806327fd92fd146105cd5780632af60ff4146105f85780632e011c1e1461060b5780632f2ff15d146106fc57600080fd5b8063216f486b1461057157806323d09fdf14610584578063248a9ca31461059757806324f99b1e146105ba57600080fd5b806311f19e04116103a357806311f19e041461041e57806314d3535e1461043157806316f7f982146105555780631703a0181461056857600080fd5b806301ffc9a7146103ca57806303e3c9ac146103f2578063047f52f214610409575b600080fd5b6103dd6103d8366004614f27565b610ac8565b60405190151581526020015b60405180910390f35b6103fb60085481565b6040519081526020016103e9565b61041c610417366004614f69565b610aec565b005b6103dd61042c366004614f86565b610b96565b6104eb61043f366004614f69565b6040805160c081018252600080825260208201819052918101829052606081018290526080810182905260a0810191909152506001600160a01b039081166000908152600f6020908152604091829020825160c08101845281548516815260018201549094169184019190915260028101549183019190915260038101546001600160801b038082166060850152600160801b909104811660808401526004909101541660a082015290565b6040516103e99190600060c0820190506001600160a01b03808451168352806020850151166020840152506040830151604083015260608301516001600160801b0380821660608501528060808601511660808501528060a08601511660a0850152505092915050565b6103fb610563366004614f9f565b6110f9565b6103fb600a5481565b61041c61057f366004614f86565b6111c2565b61041c610592366004614f86565b611696565b6103fb6105a5366004614f86565b6000908152600c602052604090206002015490565b61041c6105c8366004615021565b61177a565b6002546105e0906001600160a01b031681565b6040516001600160a01b0390911681526020016103e9565b61041c610606366004614f69565b611c54565b6106a7610619366004614f69565b6040805160a0808201835260008083526020808401829052838501829052606080850183905260809485018390526001600160a01b0396871683526009825291859020855193840186528054909616835260018601549083015260028501546001600160801b0380821695840195909552600160801b90048416908201526003909301549091169082015290565b6040805182516001600160a01b0316815260208084015190820152828201516001600160801b03908116928201929092526060808401518316908201526080928301519091169181019190915260a0016103e9565b61041c61070a366004615074565b611cf5565b61041c61071d366004615099565b611d91565b6105e0610730366004614f86565b612565565b61041c610743366004615074565b61258f565b61041c6107563660046150f0565b612617565b6103dd61076936600461511c565b61269d565b61041c61077c36600461525c565b612736565b61041c61078f3660046152be565b61276d565b6103dd6107a2366004614f69565b6001600160a01b0390811660009081526009602052604090205416151590565b6103dd6107d03660046152e0565b612a08565b6001546105e0906001600160a01b031681565b6105e06107f6366004614f86565b612ab9565b61041c610809366004615355565b612ac9565b61041c61081c366004615397565b612ea8565b600e546103dd9074010000000000000000000000000000000000000000900460ff1681565b6105e0610854366004614f69565b6001600160a01b039081166000908152600960205260409020541690565b61041c610880366004614f86565b6130ff565b61041c610893366004614f69565b6131b2565b6005546105e0906001600160a01b031681565b61041c6108b9366004614f69565b6133e5565b6006546103fb565b6103fb6108d4366004614f69565b613486565b6103fb600b5481565b61041c6108f03660046153ec565b613540565b61041c613654565b61041c61090b366004614f86565b6136e5565b6103dd61091e366004614f69565b613716565b6010546105e0906001600160a01b031681565b6105e06109443660046152be565b613792565b6103dd610957366004615074565b6137aa565b6103fb61096a366004614f69565b6137c2565b61041c61097d366004614f9f565b613877565b61041c610990366004615418565b6138cc565b61041c6109a3366004614f9f565b6138d7565b6103fb600081565b6103dd6109be366004614f69565b6001600160a01b03166000908152600960205260409020600201546001600160801b0316151590565b6103fb6109f5366004614f69565b61392c565b61041c610a08366004614f86565b61395c565b6003546105e0906001600160a01b031681565b61041c610a2e366004614f86565b613a0f565b61041c610a41366004614f86565b613ac2565b6103dd613c3d565b6103fb610a5c366004614f86565b613f06565b6000546105e0906001600160a01b031681565b6004546105e0906001600160a01b031681565b6103dd610a95366004614f69565b613f1d565b6103fb610aa8366004614f9f565b613fec565b61041c610abb366004615074565b61401d565b61041c6140ab565b6001600160e01b031981166000908152600d602052604081205460ff165b92915050565b610af76000336137aa565b610b1c5760405162461bcd60e51b8152600401610b1390615468565b60405180910390fd5b806001600160a01b038116610b735760405162461bcd60e51b815260206004820152601a60248201527f44414f436f6d6d69747465653a207a65726f20616464726573730000000000006044820152606401610b13565b50600380546001600160a01b0319166001600160a01b0392909216919091179055565b6000816008548110610bf55760405162461bcd60e51b815260206004820152602260248201527f44414f436f6d6d69747465653a20696e76616c6964206d656d62657220696e646044820152610caf60f31b6064820152608401610b13565b6000336001600160a01b0316636c8381f86040518163ffffffff1660e01b8152600401602060405180830381865afa158015610c35573d6000803e3d6000fd5b505050506040513d601f19601f82011682018060405250810190610c5991906154b0565b6001600160a01b0381166000908152600960209081526040918290208251631dffc87160e21b815292519394509233926377ff21c49260048083019391928290030181865afa158015610cb0573d6000803e3d6000fd5b505050506040513d601f19601f82011682018060405250810190610cd491906154eb565b610d465760405162461bcd60e51b815260206004820152603060248201527f44414f436f6d6d69747465653a2073656e646572206973206e6f74206120636160448201527f6e64696461746520636f6e7472616374000000000000000000000000000000006064820152608401610b13565b80546001600160a01b03163314610db05760405162461bcd60e51b815260206004820152602860248201527f44414f436f6d6d69747465653a20696e76616c69642063616e6469646174652060448201526718dbdb9d1c9858dd60c21b6064820152608401610b13565b60028101546001600160801b031615610e0b5760405162461bcd60e51b815260206004820152601c60248201527f44414f436f6d6d69747465653a20616c7265616479206d656d626572000000006044820152606401610b13565b600060078681548110610e2057610e20615508565b60009182526020822001546001600160a01b03169150610e58826001600160a01b039081166000908152600960205260409020541690565b6002840180546001600160801b031916426001600160801b03161790556001840188905560078054919250859189908110610e9557610e95615508565b600091825260209091200180546001600160a01b0319166001600160a01b039283161790558216610f0f576040516001600160a01b03838116825285169088907f663b98adf1afa777e36528b3293a057803f87ed00d2d2518dccfe5d7a6e99ccf9060200160405180910390a360019550505050506110f3565b806001600160a01b031663817b1cd26040518163ffffffff1660e01b8152600401602060405180830381865afa158015610f4d573d6000803e3d6000fd5b505050506040513d601f19601f82011682018060405250810190610f71919061551e565b336001600160a01b031663817b1cd26040518163ffffffff1660e01b8152600401602060405180830381865afa158015610faf573d6000803e3d6000fd5b505050506040513d601f19601f82011682018060405250810190610fd3919061551e565b116110205760405162461bcd60e51b815260206004820152601160248201527f6e6f7420656e6f75676820616d6f756e740000000000000000000000000000006044820152606401610b13565b6001600160a01b038216600090815260096020526040812060018101919091556002810154611058906001600160801b03164261554d565b60028201546110779190600160801b90046001600160801b0316615560565b6001600160801b0316600160801b026001600160801b03191660028201556040516001600160a01b0386169089907f663b98adf1afa777e36528b3293a057803f87ed00d2d2518dccfe5d7a6e99ccf906110e19087906001600160a01b0391909116815260200190565b60405180910390a36001965050505050505b50919050565b60006001600160a01b0383166111515760405162461bcd60e51b815260206004820152601f60248201527f54686973206163636f756e74206973206e6f7420612063616e646964617465006044820152606401610b13565b60405163af500ba360e01b81526001600160a01b03838116600483015284169063af500ba390602401602060405180830381865afa158015611197573d6000803e3d6000fd5b505050506040513d601f19601f820116820180604052508101906111bb919061551e565b9392505050565b6002546001600160a01b031661121d5760405162461bcd60e51b815260206004820152602c6024820152600080516020615c8783398151915260448201526b61676572206973207a65726f60a01b6064820152608401610b13565b6002546040516377f28d5b60e01b8152600481018390526001600160a01b03909116906377f28d5b90602401602060405180830381865afa158015611266573d6000803e3d6000fd5b505050506040513d601f19601f8201168201806040525081019061128a91906154eb565b6112e75760405162461bcd60e51b815260206004820152602860248201527f44414f436f6d6d69747465653a2063616e206e6f74206578656375746520746860448201526765206167656e646160c01b6064820152608401610b13565b6002546040516373ba374560e01b8152600481018390526000918291829182916001600160a01b03909116906373ba374590602401600060405180830381865afa158015611339573d6000803e3d6000fd5b505050506040513d6000823e601f3d908101601f191682016040526113619190810190615682565b935093509350935081156114e457600254604051631b8c251960e11b8152600481018790526001600160a01b03909116906337184a3290602401600060405180830381600087803b1580156113b557600080fd5b505af11580156113c9573d6000803e3d6000fd5b5050505060005b84518110156114de5760008582815181106113ed576113ed615508565b60200260200101516001600160a01b031685838151811061141057611410615508565b6020026020010151604051611425919061575f565b6000604051808303816000865af19150503d8060008114611462576040519150601f19603f3d011682016040523d82523d6000602084013e611467565b606091505b50509050806114cb5760405162461bcd60e51b815260206004820152602a60248201527f44414f436f6d6d69747465653a204661696c656420746f206578656375746520604482015269746865206167656e646160b01b6064820152608401610b13565b50806114d68161577b565b9150506113d0565b50611657565b6000815b855181101561157d57600061154a87838151811061150857611508615508565b602002602001015187848151811061152257611522615508565b60200260200101515188858151811061153d5761153d615508565b6020026020010151614122565b905080156115645761155d836001615560565b925061156a565b5061157d565b50806115758161577b565b9150506114e8565b50600254604051632833207960e21b815260048101889052602481018390526001600160a01b039091169063a0cc81e490604401600060405180830381600087803b1580156115cb57600080fd5b505af11580156115df573d6000803e3d6000fd5b50505050845181836115f19190615560565b0361165557600254604051631b8c251960e11b8152600481018890526001600160a01b03909116906337184a3290602401600060405180830381600087803b15801561163c57600080fd5b505af1158015611650573d6000803e3d6000fd5b505050505b505b847f785146be3266678a3f4ea454b310ff1f8c91d0ad9a7997bcd0619940d4d67fe68560405161168791906157d8565b60405180910390a25050505050565b6116a16000336137aa565b6116bd5760405162461bcd60e51b8152600401610b1390615468565b6002546001600160a01b03166117185760405162461bcd60e51b815260206004820152602c6024820152600080516020615c8783398151915260448201526b61676572206973207a65726f60a01b6064820152608401610b13565b6002546040516323d09fdf60e01b8152600481018390526001600160a01b03909116906323d09fdf906024015b600060405180830381600087803b15801561175f57600080fd5b505af1158015611773573d6000803e3d6000fd5b5050505050565b6002546001600160a01b03166117d55760405162461bcd60e51b815260206004820152602c6024820152600080516020615c8783398151915260448201526b61676572206973207a65726f60a01b6064820152608401610b13565b6000336001600160a01b0316636c8381f86040518163ffffffff1660e01b8152600401602060405180830381865afa158015611815573d6000803e3d6000fd5b505050506040513d601f19601f8201168201806040525081019061183991906154b0565b6001600160a01b0380821660009081526009602052604090208054929350911633146118b85760405162461bcd60e51b815260206004820152602860248201527f44414f436f6d6d69747465653a20696e76616c69642063616e6469646174652060448201526718dbdb9d1c9858dd60c21b6064820152608401610b13565b600254604051637e77eb2360e01b8152600481018890526001600160a01b0384811660248301526044820188905290911690637e77eb23906064016020604051808303816000875af1158015611912573d6000803e3d6000fd5b505050506040513d601f19601f8201168201806040525081019061193691906154eb565b50600254604051635772521560e11b815260048101889052600091829182916001600160a01b03169063aee4a42a90602401606060405180830381865afa158015611985573d6000803e3d6000fd5b505050506040513d601f19601f820116820180604052508101906119a991906157eb565b92509250925082600a5411611a8757600254604051632b0a851b60e11b81526001600160a01b03909116906356150a36906119eb908c9060019060040161582f565b600060405180830381600087803b158015611a0557600080fd5b505af1158015611a19573d6000803e3d6000fd5b5050600254604051633625b75960e21b81526001600160a01b03909116925063d896dd649150611a50908c90600390600401615853565b600060405180830381600087803b158015611a6a57600080fd5b505af1158015611a7e573d6000803e3d6000fd5b50505050611c03565b81600a5411611b265760028054604051632b0a851b60e11b81526001600160a01b03909116916356150a3691611ac1918d9160040161582f565b600060405180830381600087803b158015611adb57600080fd5b505af1158015611aef573d6000803e3d6000fd5b5050600254604051633625b75960e21b81526001600160a01b03909116925063d896dd649150611a50908c90600590600401615853565b611b308282615560565b600a5411611c0357600254604051632b0a851b60e11b81526001600160a01b03909116906356150a3690611b6b908c9060039060040161582f565b600060405180830381600087803b158015611b8557600080fd5b505af1158015611b99573d6000803e3d6000fd5b5050600254604051633625b75960e21b81526001600160a01b03909116925063d896dd649150611bd0908c90600590600401615853565b600060405180830381600087803b158015611bea57600080fd5b505af1158015611bfe573d6000803e3d6000fd5b505050505b88336001600160a01b03167ffa0761008653bc7bf9fa040fb7e07672ad3e17a976eb452c44e81dd782a6214b8a8a8a604051611c4193929190615893565b60405180910390a3505050505050505050565b611c5f6000336137aa565b611c7b5760405162461bcd60e51b8152600401610b1390615468565b806001600160a01b038116611cd25760405162461bcd60e51b815260206004820152601a60248201527f44414f436f6d6d69747465653a207a65726f20616464726573730000000000006044820152606401610b13565b50600480546001600160a01b0319166001600160a01b0392909216919091179055565b6000828152600c6020526040902060020154611d1190336137aa565b611d835760405162461bcd60e51b815260206004820152602f60248201527f416363657373436f6e74726f6c3a2073656e646572206d75737420626520616e60448201527f2061646d696e20746f206772616e7400000000000000000000000000000000006064820152608401610b13565b611d8d8282614141565b5050565b6005546001600160a01b0316611dfd5760405162461bcd60e51b815260206004820152602b60248201527f53746f726167655374617465436f6d6d69747465653a20696e76616c6964205360448201526a6569674d616e616765726560a81b6064820152608401610b13565b6004546001600160a01b0316611e6b5760405162461bcd60e51b815260206004820152602d60248201527f53746f726167655374617465436f6d6d69747465653a20696e76616c6964204c60448201526c6179657232526567697374727960981b6064820152608401610b13565b6003546001600160a01b0316611edd5760405162461bcd60e51b815260206004820152603160248201527f53746f726167655374617465436f6d6d69747465653a20696e76616c696420436044820152706f6d6d69747465654c32466163746f727960781b6064820152608401610b13565b611ee86000336137aa565b611f045760405162461bcd60e51b8152600401610b1390615468565b60035460055460405163732518fb60e11b81526000926001600160a01b039081169263e64a31f692611f4592879287928b928b9230929116906004016158b6565b6020604051808303816000875af1158015611f64573d6000803e3d6000fd5b505050506040513d601f19601f82011682018060405250810190611f8891906154b0565b90506001600160a01b038116611ff95760405162461bcd60e51b815260206004820152603060248201527f44414f436f6d6d69747465653a206465706c6f7965642063616e64696461746560448201526f436f6e7472616374206973207a65726f60801b6064820152608401610b13565b6001600160a01b038281166000908152600960205260409020541615612354576001600160a01b038281166000908152600f602052604090205416156120815760405162461bcd60e51b815260206004820152601060248201527f616c7265616479206d69677261746564000000000000000000000000000000006044820152606401610b13565b6040518060c0016040528060096000856001600160a01b03166001600160a01b0316815260200190815260200160002060000160009054906101000a90046001600160a01b03166001600160a01b03168152602001826001600160a01b0316815260200160096000856001600160a01b03166001600160a01b0316815260200190815260200160002060010154815260200160096000856001600160a01b03166001600160a01b0316815260200190815260200160002060020160009054906101000a90046001600160801b03166001600160801b0316815260200160096000856001600160a01b03166001600160a01b0316815260200190815260200160002060020160109054906101000a90046001600160801b03166001600160801b0316815260200160096000856001600160a01b03166001600160a01b0316815260200190815260200160002060030160009054906101000a90046001600160801b03166001600160801b0316815250600f6000846001600160a01b03166001600160a01b0316815260200190815260200160002060008201518160000160006101000a8154816001600160a01b0302191690836001600160a01b0316021790555060208201518160010160006101000a8154816001600160a01b0302191690836001600160a01b031602179055506040820151816002015560608201518160030160006101000a8154816001600160801b0302191690836001600160801b0316021790555060808201518160030160106101000a8154816001600160801b0302191690836001600160801b0316021790555060a08201518160040160006101000a8154816001600160801b0302191690836001600160801b031602179055509050508060096000846001600160a01b03166001600160a01b0316815260200190815260200160002060000160006101000a8154816001600160a01b0302191690836001600160a01b03160217905550612430565b6040805160a0810182526001600160a01b0383811682526000602080840182815284860183815260608601848152608087018581528a87168087526009909552978520965187546001600160a01b0319908116919097161787559151600180880191909155905191516001600160801b03928316600160801b918416919091021760028701559551600390950180546001600160801b031916959091169490941790935560068054948501815590527ff652222313e28459528d920b65115c16c04f3efc82aaedc97be59f3f377c0d3f90920180549092161790555b60048054600554604051635e58d38f60e11b81526001600160a01b0385811694820194909452908316602482015291169063bcb1a71e906044016020604051808303816000875af1158015612489573d6000803e3d6000fd5b505050506040513d601f19601f820116820180604052508101906124ad91906154eb565b6125125760405162461bcd60e51b815260206004820152603060248201527f44414f436f6d6d69747465653a206661696c656420746f20726567697374657260448201526f416e644465706c6f79436f696e61676560801b6064820152608401610b13565b806001600160a01b0316826001600160a01b03167f7cf8db18d9a5c7f44156bfabdbb59ac982a8a004e461ca1b87ee71a5cdfbc5ef86866040516125579291906158fd565b60405180910390a350505050565b6006818154811061257557600080fd5b6000918252602090912001546001600160a01b0316905081565b6001600160a01b038116331461260d5760405162461bcd60e51b815260206004820152602f60248201527f416363657373436f6e74726f6c3a2063616e206f6e6c792072656e6f756e636560448201527f20726f6c657320666f722073656c6600000000000000000000000000000000006064820152608401610b13565b611d8d828261419a565b6126226000336137aa565b61263e5760405162461bcd60e51b8152600401610b1390615468565b60405163a79da34160e01b8152600481018290526001600160a01b0383169063a79da341906024015b600060405180830381600087803b15801561268157600080fd5b505af1158015612695573d6000803e3d6000fd5b505050505050565b600080546001600160a01b031633146126f85760405162461bcd60e51b815260206004820152601160248201527f49742773206e6f742066726f6d20544f4e0000000000000000000000000000006044820152606401610b13565b600061270484846141f3565b9050612728878260000151836020015184604001518560600151866080015161426f565b506001979650505050505050565b6127416000336137aa565b61275d5760405162461bcd60e51b8152600401610b1390615468565b6127688383836143a7565b505050565b6127786000336137aa565b6127945760405162461bcd60e51b8152600401610b1390615468565b8160085481106127f15760405162461bcd60e51b815260206004820152602260248201527f44414f436f6d6d69747465653a20696e76616c6964206d656d62657220696e646044820152610caf60f31b6064820152608401610b13565b60006007848154811061280657612806615508565b60009182526020808320909101546001600160a01b0316808352600990915260409091206007549192509061283d9060019061554d565b85146128df5760078054600091906128579060019061554d565b8154811061286757612867615508565b60009182526020808320909101546001600160a01b03168083526009909152604090912060018101889055600780549293509091839190899081106128ae576128ae615508565b9060005260206000200160006101000a8154816001600160a01b0302191690836001600160a01b0316021790555050505b6000600182015560028101546128fe906001600160801b03164261554d565b600282015461291d9190600160801b90046001600160801b0316615560565b6001600160801b0316600160801b026001600160801b0319166002820155600780548061294c5761294c615911565b600082815260209020810160001990810180546001600160a01b031916905501905560085461297d9060019061554d565b60085561298984613ac2565b6040516001600160a01b038316815260009086907f663b98adf1afa777e36528b3293a057803f87ed00d2d2518dccfe5d7a6e99ccf9060200160405180910390a36008546129d8816001615560565b6040517f8c0366d1e3a335a312d012257ee764723c38ec2dd5e74cbfad372513521f977190600090a35050505050565b6000805b82811015612aaf57612a3e848483818110612a2957612a29615508565b905060200201602081019061091e9190614f69565b612a9d5760405162461bcd60e51b815260206004820152602a60248201527f44414f436f6d6d69747465653a206661696c656420746f2075706461746520736044820152696569676e696f7261676560b01b6064820152608401610b13565b80612aa78161577b565b915050612a0c565b5060019392505050565b6007818154811061257557600080fd5b336000818152600960205260409020546001600160a01b031615612b415760405162461bcd60e51b815260206004820152602960248201527f44414f436f6d6d69747465653a2063616e64696461746520616c7265616479206044820152681c9959da5cdd195c9960ba1b6064820152608401610b13565b60035460055460405163732518fb60e11b81526000926001600160a01b039081169263e64a31f692612b8292879287928b928b9230929116906004016158b6565b6020604051808303816000875af1158015612ba1573d6000803e3d6000fd5b505050506040513d601f19601f82011682018060405250810190612bc591906154b0565b90506001600160a01b038116612c365760405162461bcd60e51b815260206004820152603060248201527f44414f436f6d6d69747465653a206465706c6f7965642063616e64696461746560448201526f436f6e7472616374206973207a65726f60801b6064820152608401610b13565b6001600160a01b038281166000908152600960205260409020541615612cb75760405162461bcd60e51b815260206004820152603060248201527f44414f436f6d6d69747465653a205468652063616e64696461746520616c726560448201526f18591e481a185cc818dbdb9d1c9858dd60821b6064820152608401610b13565b60048054600554604051635e58d38f60e11b81526001600160a01b0385811694820194909452908316602482015291169063bcb1a71e906044016020604051808303816000875af1158015612d10573d6000803e3d6000fd5b505050506040513d601f19601f82011682018060405250810190612d3491906154eb565b612d995760405162461bcd60e51b815260206004820152603060248201527f44414f436f6d6d69747465653a206661696c656420746f20726567697374657260448201526f416e644465706c6f79436f696e61676560801b6064820152608401610b13565b6040805160a0810182526001600160a01b038381168083526000602080850182815285870183815260608701848152608088018581528b88168087526009909552898620985189546001600160a01b03199081169190991617895592516001808a0191909155915190516001600160801b03918216600160801b918316919091021760028901559151600390970180546001600160801b031916979092169690961790556006805495860181559091527ff652222313e28459528d920b65115c16c04f3efc82aaedc97be59f3f377c0d3f9093018054909216831790915591517f7cf8db18d9a5c7f44156bfabdbb59ac982a8a004e461ca1b87ee71a5cdfbc5ef9061255790889088906158fd565b6000836001600160a01b0316636c8381f86040518163ffffffff1660e01b8152600401602060405180830381865afa158015612ee8573d6000803e3d6000fd5b505050506040513d601f19601f82011682018060405250810190612f0c91906154b0565b90506000819050846001600160a01b0316639b6382686040518163ffffffff1660e01b8152600401602060405180830381865afa158015612f51573d6000803e3d6000fd5b505050506040513d601f19601f82011682018060405250810190612f7591906154eb565b15612fdf57816001600160a01b031663570ca7356040518163ffffffff1660e01b8152600401602060405180830381865afa158015612fb8573d6000803e3d6000fd5b505050506040513d601f19601f82011682018060405250810190612fdc91906154b0565b90505b336001600160a01b0382161461305d5760405162461bcd60e51b815260206004820152603a60248201527f44414f436f6d6d69747465653a2073656e646572206973206e6f74207468652060448201527f63616e646964617465206f66207468697320636f6e74726163740000000000006064820152608401610b13565b6040516325d6086160e01b81526001600160a01b038616906325d608619061308b90879087906004016158fd565b600060405180830381600087803b1580156130a557600080fd5b505af11580156130b9573d6000803e3d6000fd5b505050507fda033346b344f4675799a7ab4d837f0deb62d4afcdcaba4613913b4c25838cb38285856040516130f093929190615927565b60405180910390a15050505050565b61310a6000336137aa565b6131265760405162461bcd60e51b8152600401610b1390615468565b6002546001600160a01b03166131815760405162461bcd60e51b815260206004820152602c6024820152600080516020615c8783398151915260448201526b61676572206973207a65726f60a01b6064820152608401610b13565b6002546040516334d8913d60e11b8152600481018390526001600160a01b03909116906369b1227a90602401611745565b6000336001600160a01b0316636c8381f86040518163ffffffff1660e01b8152600401602060405180830381865afa1580156131f2573d6000803e3d6000fd5b505050506040513d601f19601f8201168201806040525081019061321691906154b0565b6001600160a01b0380821660009081526009602052604090208054929350911633146132955760405162461bcd60e51b815260206004820152602860248201527f44414f436f6d6d69747465653a20696e76616c69642063616e6469646174652060448201526718dbdb9d1c9858dd60c21b6064820152608401610b13565b60006132a0836137c2565b9050600081116133055760405162461bcd60e51b815260206004820152602a60248201527f44414f436f6d6d69747465653a20796f7520646f6e2774206861766520636c6160448201526934b6b0b13632903a37b760b11b6064820152608401610b13565b600154604051633bc3556560e21b81526001600160a01b038681166004830152602482018490529091169063ef0d559490604401600060405180830381600087803b15801561335357600080fd5b505af1158015613367573d6000803e3d6000fd5b505050506003820180546001600160801b031916426001600160801b03908116919091179091556002830180549091169055604080516001600160a01b038681168252602082018490528516917fb15377c434dc1922cc2eb7d8950640960a05f0cf6d5dc9442de8414a9da2b308910160405180910390a250505050565b6133f06000336137aa565b61340c5760405162461bcd60e51b8152600401610b1390615468565b806001600160a01b0381166134635760405162461bcd60e51b815260206004820152601a60248201527f44414f436f6d6d69747465653a207a65726f20616464726573730000000000006044820152606401610b13565b50600580546001600160a01b0319166001600160a01b0392909216919091179055565b60006001600160a01b0382166134de5760405162461bcd60e51b815260206004820152601f60248201527f54686973206163636f756e74206973206e6f7420612063616e646964617465006044820152606401610b13565b816001600160a01b031663817b1cd26040518163ffffffff1660e01b8152600401602060405180830381865afa15801561351c573d6000803e3d6000fd5b505050506040513d601f19601f82011682018060405250810190610ae6919061551e565b61354b6000336137aa565b6135675760405162461bcd60e51b8152600401610b1390615468565b6002546001600160a01b03166356150a368483600381111561358b5761358b615819565b6040518363ffffffff1660e01b81526004016135a892919061582f565b600060405180830381600087803b1580156135c257600080fd5b505af11580156135d6573d6000803e3d6000fd5b50506002546001600160a01b0316915063d896dd6490508484600581111561360057613600615819565b6040518363ffffffff1660e01b815260040161361d929190615853565b600060405180830381600087803b15801561363757600080fd5b505af115801561364b573d6000803e3d6000fd5b50505050505050565b61365f6000336137aa565b61367b5760405162461bcd60e51b8152600401610b1390615468565b600560009054906101000a90046001600160a01b03166001600160a01b0316633f4ba83a6040518163ffffffff1660e01b8152600401600060405180830381600087803b1580156136cb57600080fd5b505af11580156136df573d6000803e3d6000fd5b50505050565b60025460405163442da34b60e11b8152600481018390526001600160a01b039091169063885b469690602401611745565b6001600160a01b038082166000908152600960209081526040808320548151633b253c2b60e11b8152915193941692839263764a78569260048082019391829003018188875af115801561376e573d6000803e3d6000fd5b505050506040513d601f19601f820116820180604052508101906111bb91906154eb565b6000828152600c602052604081206111bb90836149ef565b6000828152600c602052604081206111bb90836149fb565b6001600160a01b038116600090815260096020526040812060028101546001600160801b03600160801b8204811691161561386257600382015460028301546001600160801b039182169116111561383d5760028201546001600160801b031661382c4283615560565b613836919061554d565b9050613862565b60038201546001600160801b03166138554283615560565b61385f919061554d565b90505b600b5461386f908261594a565b949350505050565b6138826000336137aa565b61389e5760405162461bcd60e51b8152600401610b1390615468565b604051634c1d96ab60e11b81526001600160a01b03828116600483015283169063983b2d5690602401612667565b611d8d3383836143a7565b6138e26000336137aa565b6138fe5760405162461bcd60e51b8152600401610b1390615468565b604051633b2bf90560e11b81526001600160a01b038281166004830152831690637657f20a90602401612667565b600080613951836001600160a01b039081166000908152600960205260409020541690565b90506111bb81613486565b6139676000336137aa565b6139835760405162461bcd60e51b8152600401610b1390615468565b6002546001600160a01b03166139de5760405162461bcd60e51b815260206004820152602c6024820152600080516020615c8783398151915260448201526b61676572206973207a65726f60a01b6064820152608401610b13565b600254604051635a7b4db560e11b8152600481018390526001600160a01b039091169063b4f69b6a90602401611745565b613a1a6000336137aa565b613a365760405162461bcd60e51b8152600401610b1390615468565b6002546001600160a01b0316613a915760405162461bcd60e51b815260206004820152602c6024820152600080516020615c8783398151915260448201526b61676572206973207a65726f60a01b6064820152608401610b13565b60025460405163302f14c160e21b8152600481018390526001600160a01b039091169063c0bc530490602401611745565b613acd6000336137aa565b613ae95760405162461bcd60e51b8152600401610b1390615468565b6002546001600160a01b0316613b445760405162461bcd60e51b815260206004820152602c6024820152600080516020615c8783398151915260448201526b61676572206973207a65726f60a01b6064820152608401610b13565b6002600854613b539190615961565b8111613ba15760405162461bcd60e51b815260206004820152601c60248201527f44414f436f6d6d69747465653a20696e76616c69642071756f72756d000000006044820152606401610b13565b600854811115613c025760405162461bcd60e51b815260206004820152602660248201527f44414f436f6d6d69747465653a2071756f72756d20657863656564206d61782060448201526536b2b6b132b960d11b6064820152608401610b13565b600a8190556040518181527f027863d12a407097e086a48e36475bfc859d0b200b7e6f65b5fd3b218e46632e9060200160405180910390a150565b600080336001600160a01b0316636c8381f86040518163ffffffff1660e01b8152600401602060405180830381865afa158015613c7e573d6000803e3d6000fd5b505050506040513d601f19601f82011682018060405250810190613ca291906154b0565b9050613cd1816001600160a01b03166000908152600960205260409020600201546001600160801b0316151590565b613d295760405162461bcd60e51b815260206004820152602360248201527f53746f726167655374617465436f6d6d69747465653a206e6f742061206d656d6044820152623132b960e91b6064820152608401610b13565b6000336001600160a01b0316636c8381f86040518163ffffffff1660e01b8152600401602060405180830381865afa158015613d69573d6000803e3d6000fd5b505050506040513d601f19601f82011682018060405250810190613d8d91906154b0565b6001600160a01b038082166000908152600960205260409020805492935091163314613e0c5760405162461bcd60e51b815260206004820152602860248201527f44414f436f6d6d69747465653a20696e76616c69642063616e6469646174652060448201526718dbdb9d1c9858dd60c21b6064820152608401610b13565b60006007826001015481548110613e2557613e25615508565b600091825260209091200180546001600160a01b0319166001600160a01b03929092169190911790556002810154613e66906001600160801b03164261554d565b6002820154613e859190600160801b90046001600160801b0316615560565b6001600160801b0316600160801b026001600160801b031916600282015560018101805460009182905560405190919082907f663b98adf1afa777e36528b3293a057803f87ed00d2d2518dccfe5d7a6e99ccf90613ef39087906001600160a01b0391909116815260200190565b60405180910390a3600194505050505090565b6000818152600c60205260408120610ae690614a1d565b6001600160a01b03808216600090815260096020526040812080549192909116613f4a5750600092915050565b8054600090613f69906001600160a01b0316631dffc87160e21b614a27565b9050801515600003613f7f575060009392505050565b815460408051631dffc87160e21b815290516001600160a01b03909216916377ff21c4916004808201926020929091908290030181865afa158015613fc8573d6000803e3d6000fd5b505050506040513d601f19601f8201168201806040525081019061386f91906154eb565b600080614011846001600160a01b039081166000908152600960205260409020541690565b905061386f81846110f9565b6000828152600c602052604090206002015461403990336137aa565b61260d5760405162461bcd60e51b815260206004820152603060248201527f416363657373436f6e74726f6c3a2073656e646572206d75737420626520616e60448201527f2061646d696e20746f207265766f6b65000000000000000000000000000000006064820152608401610b13565b6140b66000336137aa565b6140d25760405162461bcd60e51b8152600401610b1390615468565b600560009054906101000a90046001600160a01b03166001600160a01b0316638456cb596040518163ffffffff1660e01b8152600401600060405180830381600087803b1580156136cb57600080fd5b60008060208301600080868360008a619c405a03f19695505050505050565b6000828152600c602052604090206141599082614a43565b15611d8d5760405133906001600160a01b0383169084907f2f8788117e7eff1d82e926ec794901d17c78024a50270940304540a733656f0d90600090a45050565b6000828152600c602052604090206141b29082614a58565b15611d8d5760405133906001600160a01b0383169084907ff6391f5c32d9c69d2a47ea670b442974b53935d1edc7fd64eb21e047a839171b90600090a45050565b6142396040518060a001604052806060815260200160006001600160801b0316815260200160006001600160801b03168152602001600015158152602001606081525090565b61424582840184615a3a565b6080860152151560608501526001600160801b039081166040850152166020830152815292915050565b6002546000906001600160a01b03166142cd5760405162461bcd60e51b815260206004820152602c6024820152600080516020615c8783398151915260448201526b61676572206973207a65726f60a01b6064820152608401610b13565b6142d687614a6d565b6002546040516304a091b760e31b81526000916001600160a01b0316906325048db89061430f908a908a908a908a908a90600401615b5d565b6020604051808303816000875af115801561432e573d6000803e3d6000fd5b505050506040513d601f19601f82011682018060405250810190614352919061551e565b905080886001600160a01b03167fcd47bcad760e912d146723a314cc78b8570ee76ec8bdd4b60335087f6c2f47d7898989896040516143949493929190615bf3565b60405180910390a3979650505050505050565b6005546001600160a01b03166144135760405162461bcd60e51b815260206004820152602b60248201527f53746f726167655374617465436f6d6d69747465653a20696e76616c6964205360448201526a6569674d616e616765726560a81b6064820152608401610b13565b6004546001600160a01b03166144815760405162461bcd60e51b815260206004820152602d60248201527f53746f726167655374617465436f6d6d69747465653a20696e76616c6964204c60448201526c6179657232526567697374727960981b6064820152608401610b13565b6003546001600160a01b03166144f35760405162461bcd60e51b815260206004820152603160248201527f53746f726167655374617465436f6d6d69747465653a20696e76616c696420436044820152706f6d6d69747465654c32466163746f727960781b6064820152608401610b13565b6001600160a01b03808316600090815260096020526040902054161561456d5760405162461bcd60e51b815260206004820152602960248201527f44414f436f6d6d69747465653a2063616e64696461746520616c7265616479206044820152681c9959da5cdd195c9960ba1b6064820152608401610b13565b6001600160a01b0382166145dc5760405162461bcd60e51b815260206004820152603060248201527f44414f436f6d6d69747465653a206465706c6f7965642063616e64696461746560448201526f436f6e7472616374206973207a65726f60801b6064820152608401610b13565b6001600160a01b03828116600090815260096020526040902054161561465d5760405162461bcd60e51b815260206004820152603060248201527f44414f436f6d6d69747465653a205468652063616e64696461746520616c726560448201526f18591e481a185cc818dbdb9d1c9858dd60821b6064820152608401610b13565b6000829050806001600160a01b031663882eed2c6040518163ffffffff1660e01b8152600401602060405180830381865afa1580156146a0573d6000803e3d6000fd5b505050506040513d601f19601f820116820180604052508101906146c491906154eb565b61471e5760405162461bcd60e51b815260206004820152602560248201527f44414f436f6d6d69747465653a20696e76616c6964206c617965723220636f6e6044820152641d1c9858dd60da1b6064820152608401610b13565b836001600160a01b0316816001600160a01b031663570ca7356040518163ffffffff1660e01b8152600401602060405180830381865afa158015614766573d6000803e3d6000fd5b505050506040513d601f19601f8201168201806040525081019061478a91906154b0565b6001600160a01b0316146147e05760405162461bcd60e51b815260206004820152601e60248201527f44414f436f6d6d69747465653a20696e76616c6964206f70657261746f7200006044820152606401610b13565b60035460055460405163732518fb60e11b81526000926001600160a01b039081169263e64a31f69261481f9289926001928a9230921690600401615c2e565b6020604051808303816000875af115801561483e573d6000803e3d6000fd5b505050506040513d601f19601f8201168201806040525081019061486291906154b0565b90506001600160a01b0381166148d35760405162461bcd60e51b815260206004820152603060248201527f44414f436f6d6d69747465653a206465706c6f7965642063616e64696461746560448201526f436f6e7472616374206973207a65726f60801b6064820152608401610b13565b6040805160a0810182526001600160a01b038381168083526000602080850182815285870183815260608701848152608088018581528d88168087526009909552898620985189546001600160a01b03199081169190991617895592516001808a0191909155915190516001600160801b03918216600160801b918316919091021760028901559151600390970180546001600160801b031916979092169690961790556006805495860181559091527ff652222313e28459528d920b65115c16c04f3efc82aaedc97be59f3f377c0d3f9093018054909216831790915591517f0f401d1bd976f5304ef9cfa87aeb24d777c0e205fb87bbae1dc0f0293ba7976a906149e0908790615c73565b60405180910390a35050505050565b60006111bb8383614c8e565b6001600160a01b038116600090815260018301602052604081205415156111bb565b6000610ae6825490565b6000614a3283614d14565b80156111bb57506111bb8383614d47565b60006111bb836001600160a01b038416614de5565b60006111bb836001600160a01b038416614e34565b60025460408051632522a32f60e01b815290516000926001600160a01b031691632522a32f9160048083019260209291908290030181865afa158015614ab7573d6000803e3d6000fd5b505050506040513d601f19601f82011682018060405250810190614adb919061551e565b6000546040516323b872dd60e01b81526001600160a01b038581166004830152306024830152604482018490529293509116906323b872dd906064016020604051808303816000875af1158015614b36573d6000803e3d6000fd5b505050506040513d601f19601f82011682018060405250810190614b5a91906154eb565b614bcc5760405162461bcd60e51b815260206004820152603160248201527f44414f436f6d6d69747465653a206661696c656420746f207472616e7366657260448201527f20746f6e2066726f6d2063726561746f720000000000000000000000000000006064820152608401610b13565b60005460405163a9059cbb60e01b815260016004820152602481018390526001600160a01b039091169063a9059cbb906044016020604051808303816000875af1158015614c1e573d6000803e3d6000fd5b505050506040513d601f19601f82011682018060405250810190614c4291906154eb565b611d8d5760405162461bcd60e51b815260206004820152601c60248201527f44414f436f6d6d69747465653a206661696c656420746f206275726e000000006044820152606401610b13565b81546000908210614cec5760405162461bcd60e51b815260206004820152602260248201527f456e756d657261626c655365743a20696e646578206f7574206f6620626f756e604482015261647360f01b6064820152608401610b13565b826000018281548110614d0157614d01615508565b9060005260206000200154905092915050565b6000614d27826301ffc9a760e01b614d47565b8015610ae65750614d40826001600160e01b0319614d47565b1592915050565b604080516001600160e01b03198316602480830191909152825180830390910181526044909101909152602080820180517bffffffffffffffffffffffffffffffffffffffffffffffffffffffff166301ffc9a760e01b178152825160009392849283928392918391908a617530fa92503d91506000519050828015614dce575060208210155b8015614dda5750600081115b979650505050505050565b6000818152600183016020526040812054614e2c57508154600181810184556000848152602080822090930184905584548482528286019093526040902091909155610ae6565b506000610ae6565b60008181526001830160205260408120548015614f1d576000614e5860018361554d565b8554909150600090614e6c9060019061554d565b90506000866000018281548110614e8557614e85615508565b9060005260206000200154905080876000018481548110614ea857614ea8615508565b600091825260209091200155614ebf836001615560565b60008281526001890160205260409020558654879080614ee157614ee1615911565b60019003818190600052602060002001600090559055866001016000878152602001908152602001600020600090556001945050505050610ae6565b6000915050610ae6565b600060208284031215614f3957600080fd5b81356001600160e01b0319811681146111bb57600080fd5b6001600160a01b0381168114614f6657600080fd5b50565b600060208284031215614f7b57600080fd5b81356111bb81614f51565b600060208284031215614f9857600080fd5b5035919050565b60008060408385031215614fb257600080fd5b8235614fbd81614f51565b91506020830135614fcd81614f51565b809150509250929050565b60008083601f840112614fea57600080fd5b50813567ffffffffffffffff81111561500257600080fd5b60208301915083602082850101111561501a57600080fd5b9250929050565b6000806000806060858703121561503757600080fd5b8435935060208501359250604085013567ffffffffffffffff81111561505c57600080fd5b61506887828801614fd8565b95989497509550505050565b6000806040838503121561508757600080fd5b823591506020830135614fcd81614f51565b6000806000604084860312156150ae57600080fd5b833567ffffffffffffffff8111156150c557600080fd5b6150d186828701614fd8565b90945092505060208401356150e581614f51565b809150509250925092565b6000806040838503121561510357600080fd5b823561510e81614f51565b946020939093013593505050565b60008060008060006080868803121561513457600080fd5b853561513f81614f51565b9450602086013561514f81614f51565b935060408601359250606086013567ffffffffffffffff81111561517257600080fd5b61517e88828901614fd8565b969995985093965092949392505050565b634e487b7160e01b600052604160045260246000fd5b604051601f8201601f1916810167ffffffffffffffff811182821017156151ce576151ce61518f565b604052919050565b600067ffffffffffffffff8211156151f0576151f061518f565b50601f01601f191660200190565b600061521161520c846151d6565b6151a5565b905082815283838301111561522557600080fd5b828260208301376000602084830101529392505050565b600082601f83011261524d57600080fd5b6111bb838335602085016151fe565b60008060006060848603121561527157600080fd5b833561527c81614f51565b9250602084013561528c81614f51565b9150604084013567ffffffffffffffff8111156152a857600080fd5b6152b48682870161523c565b9150509250925092565b600080604083850312156152d157600080fd5b50508035926020909101359150565b600080602083850312156152f357600080fd5b823567ffffffffffffffff8082111561530b57600080fd5b818501915085601f83011261531f57600080fd5b81358181111561532e57600080fd5b8660208260051b850101111561534357600080fd5b60209290920196919550909350505050565b6000806020838503121561536857600080fd5b823567ffffffffffffffff81111561537f57600080fd5b61538b85828601614fd8565b90969095509350505050565b6000806000604084860312156153ac57600080fd5b83356153b781614f51565b9250602084013567ffffffffffffffff8111156153d357600080fd5b6153df86828701614fd8565b9497909650939450505050565b60008060006060848603121561540157600080fd5b505081359360208301359350604090920135919050565b6000806040838503121561542b57600080fd5b823561543681614f51565b9150602083013567ffffffffffffffff81111561545257600080fd5b61545e8582860161523c565b9150509250929050565b60208082526028908201527f44414f436f6d6d69747465653a206d73672e73656e646572206973206e6f742060408201526730b71030b236b4b760c11b606082015260800190565b6000602082840312156154c257600080fd5b81516111bb81614f51565b8015158114614f6657600080fd5b80516154e6816154cd565b919050565b6000602082840312156154fd57600080fd5b81516111bb816154cd565b634e487b7160e01b600052603260045260246000fd5b60006020828403121561553057600080fd5b5051919050565b634e487b7160e01b600052601160045260246000fd5b81810381811115610ae657610ae6615537565b80820180821115610ae657610ae6615537565b600067ffffffffffffffff82111561558d5761558d61518f565b5060051b60200190565b60005b838110156155b257818101518382015260200161559a565b50506000910152565b600082601f8301126155cc57600080fd5b815160206155dc61520c83615573565b82815260059290921b840181019181810190868411156155fb57600080fd5b8286015b8481101561567757805167ffffffffffffffff81111561561f5760008081fd5b8701603f810189136156315760008081fd5b84810151604061564361520c836151d6565b8281528b828486010111156156585760008081fd5b61566783898301848701615597565b86525050509183019183016155ff565b509695505050505050565b6000806000806080858703121561569857600080fd5b845167ffffffffffffffff808211156156b057600080fd5b818701915087601f8301126156c457600080fd5b815160206156d461520c83615573565b82815260059290921b8401810191818101908b8411156156f357600080fd5b948201945b8386101561571a57855161570b81614f51565b825294820194908201906156f8565b918a015191985090935050508082111561573357600080fd5b50615740878288016155bb565b93505061574f604086016154db565b6060959095015193969295505050565b60008251615771818460208701615597565b9190910192915050565b60006001820161578d5761578d615537565b5060010190565b600081518084526020808501945080840160005b838110156157cd5781516001600160a01b0316875295820195908201906001016157a8565b509495945050505050565b6020815260006111bb6020830184615794565b60008060006060848603121561580057600080fd5b8351925060208401519150604084015190509250925092565b634e487b7160e01b600052602160045260246000fd5b828152604081016004831061584657615846615819565b8260208301529392505050565b828152604081016006831061584657615846615819565b81835281816020850137506000828201602090810191909152601f909101601f19169091010190565b8381526040602082015260006158ad60408301848661586a565b95945050505050565b60006001600160a01b038089168352871515602084015260a060408401526158e260a08401878961586a565b94811660608401529290921660809091015250949350505050565b60208152600061386f60208301848661586a565b634e487b7160e01b600052603160045260246000fd5b6001600160a01b03841681526040602082015260006158ad60408301848661586a565b8082028115828204841417610ae657610ae6615537565b60008261597e57634e487b7160e01b600052601260045260246000fd5b500490565b80356001600160801b03811681146154e657600080fd5b80356154e6816154cd565b600082601f8301126159b657600080fd5b813560206159c661520c83615573565b82815260059290921b840181019181810190868411156159e557600080fd5b8286015b8481101561567757803567ffffffffffffffff811115615a095760008081fd5b8701603f81018913615a1b5760008081fd5b615a2c8986830135604084016151fe565b8452509183019183016159e9565b600080600080600060a08688031215615a5257600080fd5b853567ffffffffffffffff80821115615a6a57600080fd5b818801915088601f830112615a7e57600080fd5b81356020615a8e61520c83615573565b82815260059290921b8401810191818101908c841115615aad57600080fd5b948201945b83861015615ad4578535615ac581614f51565b82529482019490820190615ab2565b9950615ae390508a8201615983565b97505050615af360408901615983565b9450615b016060890161599a565b93506080880135915080821115615b1757600080fd5b50615b24888289016159a5565b9150509295509295909350565b60008151808452615b49816020860160208601615597565b601f01601f19169290920160200192915050565b60a081526000615b7060a0830188615794565b60206001600160801b0380891682860152808816604086015250851515606085015283820360808501528185518084528284019150828160051b85010183880160005b83811015615be157601f19878403018552615bcf838351615b31565b94860194925090850190600101615bb3565b50909c9b505050505050505050505050565b608081526000615c066080830187615794565b6001600160801b03958616602084015293909416604082015290151560609091015292915050565b60006001600160a01b038088168352861515602084015260a06040840152615c5960a0840187615b31565b948116606084015292909216608090910152509392505050565b6020815260006111bb6020830184615b3156fe53746f726167655374617465436f6d6d69747465653a204167656e64614d616ea164736f6c6343000813000a",
  "linkReferences": {},
  "deployedLinkReferences": {}
}