{
  "_format": "hh-sol-artifact-1",
  "contractName": "DAOCommitteeExtend",
  "sourceName": "contracts/dao/DAOCommitteeExtend.sol",
  "abi": [
    {
      "anonymous": false,
      "inputs": [
        {
          "indexed": false,
          "internalType": "uint256",
          "name": "newReward",
          "type": "uint256"
        }
      ],
      "name": "ActivityRewardChanged",
      "type": "event"
    },
    {
      "anonymous": false,
      "inputs": [
        {
          "indexed": true,
          "internalType": "address",
          "name": "from",
          "type": "address"
        },
        {
          "indexed": true,
          "internalType": "uint256",
          "name": "id",
          "type": "uint256"
        },
        {
          "indexed": false,
          "internalType": "address[]",
          "name": "targets",
          "type": "address[]"
        },
        {
          "indexed": false,
          "internalType": "uint128",
          "name": "noticePeriodSeconds",
          "type": "uint128"
        },
        {
          "indexed": false,
          "internalType": "uint128",
          "name": "votingPeriodSeconds",
          "type": "uint128"
        },
        {
          "indexed": false,
          "internalType": "bool",
          "name": "atomicExecute",
          "type": "bool"
        }
      ],
      "name": "AgendaCreated",
      "type": "event"
    },
    {
      "anonymous": false,
      "inputs": [
        {
          "indexed": true,
          "internalType": "uint256",
          "name": "id",
          "type": "uint256"
        },
        {
          "indexed": false,
          "internalType": "address[]",
          "name": "target",
          "type": "address[]"
        }
      ],
      "name": "AgendaExecuted",
      "type": "event"
    },
    {
      "anonymous": false,
      "inputs": [
        {
          "indexed": true,
          "internalType": "address",
          "name": "from",
          "type": "address"
        },
        {
          "indexed": true,
          "internalType": "uint256",
          "name": "id",
          "type": "uint256"
        },
        {
          "indexed": false,
          "internalType": "uint256",
          "name": "voting",
          "type": "uint256"
        },
        {
          "indexed": false,
          "internalType": "string",
          "name": "comment",
          "type": "string"
        }
      ],
      "name": "AgendaVoteCasted",
      "type": "event"
    },
    {
      "anonymous": false,
      "inputs": [
        {
          "indexed": true,
          "internalType": "address",
          "name": "candidate",
          "type": "address"
        },
        {
          "indexed": true,
          "internalType": "address",
          "name": "candidateContract",
          "type": "address"
        },
        {
          "indexed": false,
          "internalType": "string",
          "name": "memo",
          "type": "string"
        }
      ],
      "name": "CandidateContractCreated",
      "type": "event"
    },
    {
      "anonymous": false,
      "inputs": [
        {
          "indexed": true,
          "internalType": "uint256",
          "name": "slotIndex",
          "type": "uint256"
        },
        {
          "indexed": false,
          "internalType": "address",
          "name": "prevMember",
          "type": "address"
        },
        {
          "indexed": true,
          "internalType": "address",
          "name": "newMember",
          "type": "address"
        }
      ],
      "name": "ChangedMember",
      "type": "event"
    },
    {
      "anonymous": false,
      "inputs": [
        {
          "indexed": false,
          "internalType": "address",
          "name": "candidate",
          "type": "address"
        },
        {
          "indexed": false,
          "internalType": "string",
          "name": "newMemo",
          "type": "string"
        }
      ],
      "name": "ChangedMemo",
      "type": "event"
    },
    {
      "anonymous": false,
      "inputs": [
        {
          "indexed": true,
          "internalType": "uint256",
          "name": "prevSlotMax",
          "type": "uint256"
        },
        {
          "indexed": true,
          "internalType": "uint256",
          "name": "slotMax",
          "type": "uint256"
        }
      ],
      "name": "ChangedSlotMaximum",
      "type": "event"
    },
    {
      "anonymous": false,
      "inputs": [
        {
          "indexed": true,
          "internalType": "address",
          "name": "candidate",
          "type": "address"
        },
        {
          "indexed": false,
          "internalType": "address",
          "name": "receiver",
          "type": "address"
        },
        {
          "indexed": false,
          "internalType": "uint256",
          "name": "amount",
          "type": "uint256"
        }
      ],
      "name": "ClaimedActivityReward",
      "type": "event"
    },
    {
      "anonymous": false,
      "inputs": [
        {
          "indexed": true,
          "internalType": "address",
          "name": "candidate",
          "type": "address"
        },
        {
          "indexed": true,
          "internalType": "address",
          "name": "candidateContract",
          "type": "address"
        },
        {
          "indexed": false,
          "internalType": "string",
          "name": "memo",
          "type": "string"
        }
      ],
      "name": "Layer2Registered",
      "type": "event"
    },
    {
      "anonymous": false,
      "inputs": [
        {
          "indexed": false,
          "internalType": "uint256",
          "name": "newQuorum",
          "type": "uint256"
        }
      ],
      "name": "QuorumChanged",
      "type": "event"
    },
    {
      "anonymous": false,
      "inputs": [
        {
          "indexed": true,
          "internalType": "bytes32",
          "name": "role",
          "type": "bytes32"
        },
        {
          "indexed": true,
          "internalType": "bytes32",
          "name": "previousAdminRole",
          "type": "bytes32"
        },
        {
          "indexed": true,
          "internalType": "bytes32",
          "name": "newAdminRole",
          "type": "bytes32"
        }
      ],
      "name": "RoleAdminChanged",
      "type": "event"
    },
    {
      "anonymous": false,
      "inputs": [
        {
          "indexed": true,
          "internalType": "bytes32",
          "name": "role",
          "type": "bytes32"
        },
        {
          "indexed": true,
          "internalType": "address",
          "name": "account",
          "type": "address"
        },
        {
          "indexed": true,
          "internalType": "address",
          "name": "sender",
          "type": "address"
        }
      ],
      "name": "RoleGranted",
      "type": "event"
    },
    {
      "anonymous": false,
      "inputs": [
        {
          "indexed": true,
          "internalType": "bytes32",
          "name": "role",
          "type": "bytes32"
        },
        {
          "indexed": true,
          "internalType": "address",
          "name": "account",
          "type": "address"
        },
        {
          "indexed": true,
          "internalType": "address",
          "name": "sender",
          "type": "address"
        }
      ],
      "name": "RoleRevoked",
      "type": "event"
    },
    {
      "inputs": [],
      "name": "DEFAULT_ADMIN_ROLE",
      "outputs": [
        {
          "internalType": "bytes32",
          "name": "",
          "type": "bytes32"
        }
      ],
      "stateMutability": "view",
      "type": "function"
    },
    {
      "inputs": [],
      "name": "activityRewardPerSecond",
      "outputs": [
        {
          "internalType": "uint256",
          "name": "",
          "type": "uint256"
        }
      ],
      "stateMutability": "view",
      "type": "function"
    },
    {
      "inputs": [],
      "name": "agendaManager",
      "outputs": [
        {
          "internalType": "contract IDAOAgendaManager",
          "name": "",
          "type": "address"
        }
      ],
      "stateMutability": "view",
      "type": "function"
    },
    {
      "inputs": [
        {
          "internalType": "address",
          "name": "_candidate",
          "type": "address"
        },
        {
          "internalType": "address",
          "name": "_account",
          "type": "address"
        }
      ],
      "name": "balanceOfOnCandidate",
      "outputs": [
        {
          "internalType": "uint256",
          "name": "amount",
          "type": "uint256"
        }
      ],
      "stateMutability": "view",
      "type": "function"
    },
    {
      "inputs": [
        {
          "internalType": "address",
          "name": "_candidateContract",
          "type": "address"
        },
        {
          "internalType": "address",
          "name": "_account",
          "type": "address"
        }
      ],
      "name": "balanceOfOnCandidateContract",
      "outputs": [
        {
          "internalType": "uint256",
          "name": "amount",
          "type": "uint256"
        }
      ],
      "stateMutability": "view",
      "type": "function"
    },
    {
      "inputs": [
        {
          "internalType": "address",
          "name": "_candidate",
          "type": "address"
        }
      ],
      "name": "candidateContract",
      "outputs": [
        {
          "internalType": "address",
          "name": "",
          "type": "address"
        }
      ],
      "stateMutability": "view",
      "type": "function"
    },
    {
      "inputs": [],
      "name": "candidateFactory",
      "outputs": [
        {
          "internalType": "contract ICandidateFactory",
          "name": "",
          "type": "address"
        }
      ],
      "stateMutability": "view",
      "type": "function"
    },
    {
      "inputs": [
        {
          "internalType": "address",
          "name": "_candidate",
          "type": "address"
        }
      ],
      "name": "candidateInfos",
      "outputs": [
        {
          "components": [
            {
              "internalType": "address",
              "name": "candidateContract",
              "type": "address"
            },
            {
              "internalType": "uint256",
              "name": "indexMembers",
              "type": "uint256"
            },
            {
              "internalType": "uint128",
              "name": "memberJoinedTime",
              "type": "uint128"
            },
            {
              "internalType": "uint128",
              "name": "rewardPeriod",
              "type": "uint128"
            },
            {
              "internalType": "uint128",
              "name": "claimedTimestamp",
              "type": "uint128"
            }
          ],
          "internalType": "struct StorageStateCommittee.CandidateInfo",
          "name": "",
          "type": "tuple"
        }
      ],
      "stateMutability": "view",
      "type": "function"
    },
    {
      "inputs": [
        {
          "internalType": "uint256",
          "name": "",
          "type": "uint256"
        }
      ],
      "name": "candidates",
      "outputs": [
        {
          "internalType": "address",
          "name": "",
          "type": "address"
        }
      ],
      "stateMutability": "view",
      "type": "function"
    },
    {
      "inputs": [],
      "name": "candidatesLength",
      "outputs": [
        {
          "internalType": "uint256",
          "name": "",
          "type": "uint256"
        }
      ],
      "stateMutability": "view",
      "type": "function"
    },
    {
      "inputs": [
        {
          "internalType": "uint256",
          "name": "_agendaID",
          "type": "uint256"
        },
        {
          "internalType": "uint256",
          "name": "_vote",
          "type": "uint256"
        },
        {
          "internalType": "string",
          "name": "_comment",
          "type": "string"
        }
      ],
      "name": "castVote",
      "outputs": [],
      "stateMutability": "nonpayable",
      "type": "function"
    },
    {
      "inputs": [
        {
          "internalType": "uint256",
          "name": "_memberIndex",
          "type": "uint256"
        }
      ],
      "name": "changeMember",
      "outputs": [
        {
          "internalType": "bool",
          "name": "",
          "type": "bool"
        }
      ],
      "stateMutability": "nonpayable",
      "type": "function"
    },
    {
      "inputs": [
        {
          "internalType": "address",
          "name": "_receiver",
          "type": "address"
        }
      ],
      "name": "claimActivityReward",
      "outputs": [],
      "stateMutability": "nonpayable",
      "type": "function"
    },
    {
      "inputs": [
        {
          "internalType": "string",
          "name": "_memo",
          "type": "string"
        },
        {
          "internalType": "address",
          "name": "_operatorAddress",
          "type": "address"
        }
      ],
      "name": "createCandidate",
      "outputs": [],
      "stateMutability": "nonpayable",
      "type": "function"
    },
    {
      "inputs": [
        {
          "internalType": "string",
          "name": "_memo",
          "type": "string"
        }
      ],
      "name": "createCandidate",
      "outputs": [],
      "stateMutability": "nonpayable",
      "type": "function"
    },
    {
      "inputs": [],
      "name": "daoVault",
      "outputs": [
        {
          "internalType": "contract IDAOVault",
          "name": "",
          "type": "address"
        }
      ],
      "stateMutability": "view",
      "type": "function"
    },
    {
      "inputs": [
        {
          "internalType": "uint256",
          "name": "_reducingMemberIndex",
          "type": "uint256"
        },
        {
          "internalType": "uint256",
          "name": "_quorum",
          "type": "uint256"
        }
      ],
      "name": "decreaseMaxMember",
      "outputs": [],
      "stateMutability": "nonpayable",
      "type": "function"
    },
    {
      "inputs": [
        {
          "internalType": "uint256",
          "name": "_agendaID",
          "type": "uint256"
        }
      ],
      "name": "endAgendaVoting",
      "outputs": [],
      "stateMutability": "nonpayable",
      "type": "function"
    },
    {
      "inputs": [
        {
          "internalType": "uint256",
          "name": "_agendaID",
          "type": "uint256"
        }
      ],
      "name": "executeAgenda",
      "outputs": [],
      "stateMutability": "nonpayable",
      "type": "function"
    },
    {
      "inputs": [
        {
          "internalType": "address",
          "name": "_candidate",
          "type": "address"
        }
      ],
      "name": "getClaimableActivityReward",
      "outputs": [
        {
          "internalType": "uint256",
          "name": "",
          "type": "uint256"
        }
      ],
      "stateMutability": "view",
      "type": "function"
    },
    {
      "inputs": [
        {
          "internalType": "address",
          "name": "_oldCandidate",
          "type": "address"
        }
      ],
      "name": "getOldCandidateInfos",
      "outputs": [
        {
          "components": [
            {
              "internalType": "address",
              "name": "candidateContract",
              "type": "address"
            },
            {
              "internalType": "address",
              "name": "newCandidate",
              "type": "address"
            },
            {
              "internalType": "uint256",
              "name": "indexMembers",
              "type": "uint256"
            },
            {
              "internalType": "uint128",
              "name": "memberJoinedTime",
              "type": "uint128"
            },
            {
              "internalType": "uint128",
              "name": "rewardPeriod",
              "type": "uint128"
            },
            {
              "internalType": "uint128",
              "name": "claimedTimestamp",
              "type": "uint128"
            }
          ],
          "internalType": "struct StorageStateCommitteeV2.CandidateInfo2",
          "name": "",
          "type": "tuple"
        }
      ],
      "stateMutability": "view",
      "type": "function"
    },
    {
      "inputs": [
        {
          "internalType": "bytes32",
          "name": "role",
          "type": "bytes32"
        }
      ],
      "name": "getRoleAdmin",
      "outputs": [
        {
          "internalType": "bytes32",
          "name": "",
          "type": "bytes32"
        }
      ],
      "stateMutability": "view",
      "type": "function"
    },
    {
      "inputs": [
        {
          "internalType": "bytes32",
          "name": "role",
          "type": "bytes32"
        },
        {
          "internalType": "uint256",
          "name": "index",
          "type": "uint256"
        }
      ],
      "name": "getRoleMember",
      "outputs": [
        {
          "internalType": "address",
          "name": "",
          "type": "address"
        }
      ],
      "stateMutability": "view",
      "type": "function"
    },
    {
      "inputs": [
        {
          "internalType": "bytes32",
          "name": "role",
          "type": "bytes32"
        }
      ],
      "name": "getRoleMemberCount",
      "outputs": [
        {
          "internalType": "uint256",
          "name": "",
          "type": "uint256"
        }
      ],
      "stateMutability": "view",
      "type": "function"
    },
    {
      "inputs": [
        {
          "internalType": "bytes32",
          "name": "role",
          "type": "bytes32"
        },
        {
          "internalType": "address",
          "name": "account",
          "type": "address"
        }
      ],
      "name": "grantRole",
      "outputs": [],
      "stateMutability": "nonpayable",
      "type": "function"
    },
    {
      "inputs": [
        {
          "internalType": "bytes32",
          "name": "role",
          "type": "bytes32"
        },
        {
          "internalType": "address",
          "name": "account",
          "type": "address"
        }
      ],
      "name": "hasRole",
      "outputs": [
        {
          "internalType": "bool",
          "name": "",
          "type": "bool"
        }
      ],
      "stateMutability": "view",
      "type": "function"
    },
    {
      "inputs": [
        {
          "internalType": "address",
          "name": "_candidate",
          "type": "address"
        }
      ],
      "name": "isCandidate",
      "outputs": [
        {
          "internalType": "bool",
          "name": "",
          "type": "bool"
        }
      ],
      "stateMutability": "view",
      "type": "function"
    },
    {
      "inputs": [
        {
          "internalType": "address",
          "name": "_candidate",
          "type": "address"
        }
      ],
      "name": "isExistCandidate",
      "outputs": [
        {
          "internalType": "bool",
          "name": "isExist",
          "type": "bool"
        }
      ],
      "stateMutability": "view",
      "type": "function"
    },
    {
      "inputs": [
        {
          "internalType": "address",
          "name": "_candidate",
          "type": "address"
        }
      ],
      "name": "isMember",
      "outputs": [
        {
          "internalType": "bool",
          "name": "",
          "type": "bool"
        }
      ],
      "stateMutability": "view",
      "type": "function"
    },
    {
      "inputs": [],
      "name": "layer2Registry",
      "outputs": [
        {
          "internalType": "contract ILayer2Registry",
          "name": "",
          "type": "address"
        }
      ],
      "stateMutability": "view",
      "type": "function"
    },
    {
      "inputs": [],
      "name": "maxMember",
      "outputs": [
        {
          "internalType": "uint256",
          "name": "",
          "type": "uint256"
        }
      ],
      "stateMutability": "view",
      "type": "function"
    },
    {
      "inputs": [
        {
          "internalType": "uint256",
          "name": "",
          "type": "uint256"
        }
      ],
      "name": "members",
      "outputs": [
        {
          "internalType": "address",
          "name": "",
          "type": "address"
        }
      ],
      "stateMutability": "view",
      "type": "function"
    },
    {
      "inputs": [
        {
          "internalType": "address",
          "name": "owner",
          "type": "address"
        },
        {
          "internalType": "address",
          "name": "spender",
          "type": "address"
        },
        {
          "internalType": "uint256",
          "name": "tonAmount",
          "type": "uint256"
        },
        {
          "internalType": "bytes",
          "name": "data",
          "type": "bytes"
        }
      ],
      "name": "onApprove",
      "outputs": [
        {
          "internalType": "bool",
          "name": "",
          "type": "bool"
        }
      ],
      "stateMutability": "nonpayable",
      "type": "function"
    },
    {
      "inputs": [],
      "name": "pauseProxy",
      "outputs": [
        {
          "internalType": "bool",
          "name": "",
          "type": "bool"
        }
      ],
      "stateMutability": "view",
      "type": "function"
    },
    {
      "inputs": [],
      "name": "quorum",
      "outputs": [
        {
          "internalType": "uint256",
          "name": "",
          "type": "uint256"
        }
      ],
      "stateMutability": "view",
      "type": "function"
    },
    {
      "inputs": [
        {
          "internalType": "address",
          "name": "_layer2",
          "type": "address"
        },
        {
          "internalType": "string",
          "name": "_memo",
          "type": "string"
        }
      ],
      "name": "registerLayer2Candidate",
      "outputs": [],
      "stateMutability": "nonpayable",
      "type": "function"
    },
    {
      "inputs": [
        {
          "internalType": "address",
          "name": "_operator",
          "type": "address"
        },
        {
          "internalType": "address",
          "name": "_layer2",
          "type": "address"
        },
        {
          "internalType": "string",
          "name": "_memo",
          "type": "string"
        }
      ],
      "name": "registerLayer2CandidateByOwner",
      "outputs": [],
      "stateMutability": "nonpayable",
      "type": "function"
    },
    {
      "inputs": [
        {
          "internalType": "bytes32",
          "name": "role",
          "type": "bytes32"
        },
        {
          "internalType": "address",
          "name": "account",
          "type": "address"
        }
      ],
      "name": "renounceRole",
      "outputs": [],
      "stateMutability": "nonpayable",
      "type": "function"
    },
    {
      "inputs": [],
      "name": "retireMember",
      "outputs": [
        {
          "internalType": "bool",
          "name": "",
          "type": "bool"
        }
      ],
      "stateMutability": "nonpayable",
      "type": "function"
    },
    {
      "inputs": [
        {
          "internalType": "bytes32",
          "name": "role",
          "type": "bytes32"
        },
        {
          "internalType": "address",
          "name": "account",
          "type": "address"
        }
      ],
      "name": "revokeRole",
      "outputs": [],
      "stateMutability": "nonpayable",
      "type": "function"
    },
    {
      "inputs": [],
      "name": "seigManager",
      "outputs": [
        {
          "internalType": "contract ISeigManager",
          "name": "",
          "type": "address"
        }
      ],
      "stateMutability": "view",
      "type": "function"
    },
    {
      "inputs": [
        {
          "internalType": "uint256",
          "name": "_agendaID",
          "type": "uint256"
        },
        {
          "internalType": "uint256",
          "name": "_status",
          "type": "uint256"
        },
        {
          "internalType": "uint256",
          "name": "_result",
          "type": "uint256"
        }
      ],
      "name": "setAgendaStatus",
      "outputs": [],
      "stateMutability": "nonpayable",
      "type": "function"
    },
    {
      "inputs": [
        {
          "internalType": "address",
          "name": "_candidateFactory",
          "type": "address"
        }
      ],
      "name": "setCandidateFactory",
      "outputs": [],
      "stateMutability": "nonpayable",
      "type": "function"
    },
    {
      "inputs": [
        {
          "internalType": "uint256",
          "name": "_fees",
          "type": "uint256"
        }
      ],
      "name": "setCreateAgendaFees",
      "outputs": [],
      "stateMutability": "nonpayable",
      "type": "function"
    },
    {
      "inputs": [
        {
          "internalType": "uint256",
          "name": "_executingPeriodSeconds",
          "type": "uint256"
        }
      ],
      "name": "setExecutingPeriodSeconds",
      "outputs": [],
      "stateMutability": "nonpayable",
      "type": "function"
    },
    {
      "inputs": [
        {
          "internalType": "address",
          "name": "_layer2Registry",
          "type": "address"
        }
      ],
      "name": "setLayer2Registry",
      "outputs": [],
      "stateMutability": "nonpayable",
      "type": "function"
    },
    {
      "inputs": [
        {
          "internalType": "address",
          "name": "_candidateContract",
          "type": "address"
        },
        {
          "internalType": "string",
          "name": "_memo",
          "type": "string"
        }
      ],
      "name": "setMemoOnCandidateContract",
      "outputs": [],
      "stateMutability": "nonpayable",
      "type": "function"
    },
    {
      "inputs": [
        {
          "internalType": "uint256",
          "name": "_minimumNoticePeriod",
          "type": "uint256"
        }
      ],
      "name": "setMinimumNoticePeriodSeconds",
      "outputs": [],
      "stateMutability": "nonpayable",
      "type": "function"
    },
    {
      "inputs": [
        {
          "internalType": "uint256",
          "name": "_minimumVotingPeriod",
          "type": "uint256"
        }
      ],
      "name": "setMinimumVotingPeriodSeconds",
      "outputs": [],
      "stateMutability": "nonpayable",
      "type": "function"
    },
    {
      "inputs": [
        {
          "internalType": "uint256",
          "name": "_quorum",
          "type": "uint256"
        }
      ],
      "name": "setQuorum",
      "outputs": [],
      "stateMutability": "nonpayable",
      "type": "function"
    },
    {
      "inputs": [
        {
          "internalType": "address",
          "name": "_seigManager",
          "type": "address"
        }
      ],
      "name": "setSeigManager",
      "outputs": [],
      "stateMutability": "nonpayable",
      "type": "function"
    },
    {
      "inputs": [],
      "name": "setSeigPause",
      "outputs": [],
      "stateMutability": "nonpayable",
      "type": "function"
    },
    {
      "inputs": [],
      "name": "setSeigUnpause",
      "outputs": [],
      "stateMutability": "nonpayable",
      "type": "function"
    },
    {
      "inputs": [
        {
          "internalType": "address",
          "name": "token",
          "type": "address"
        },
        {
          "internalType": "address",
          "name": "account",
          "type": "address"
        }
      ],
      "name": "setTargetAddMinter",
      "outputs": [],
      "stateMutability": "nonpayable",
      "type": "function"
    },
    {
      "inputs": [
        {
          "internalType": "address",
          "name": "target",
          "type": "address"
        },
        {
          "internalType": "uint256",
          "name": "globalWithdrawalDelay_",
          "type": "uint256"
        }
      ],
      "name": "setTargetGlobalWithdrawalDelay",
      "outputs": [],
      "stateMutability": "nonpayable",
      "type": "function"
    },
    {
      "inputs": [
        {
          "internalType": "address",
          "name": "target",
          "type": "address"
        },
        {
          "internalType": "address",
          "name": "_seigManager",
          "type": "address"
        }
      ],
      "name": "setTargetSeigManager",
      "outputs": [],
      "stateMutability": "nonpayable",
      "type": "function"
    },
    {
      "inputs": [
        {
          "internalType": "bytes4",
          "name": "interfaceId",
          "type": "bytes4"
        }
      ],
      "name": "supportsInterface",
      "outputs": [
        {
          "internalType": "bool",
          "name": "",
          "type": "bool"
        }
      ],
      "stateMutability": "view",
      "type": "function"
    },
    {
      "inputs": [],
      "name": "ton",
      "outputs": [
        {
          "internalType": "address",
          "name": "",
          "type": "address"
        }
      ],
      "stateMutability": "view",
      "type": "function"
    },
    {
      "inputs": [
        {
          "internalType": "address",
          "name": "_candidate",
          "type": "address"
        }
      ],
      "name": "totalSupplyOnCandidate",
      "outputs": [
        {
          "internalType": "uint256",
          "name": "totalsupply",
          "type": "uint256"
        }
      ],
      "stateMutability": "view",
      "type": "function"
    },
    {
      "inputs": [
        {
          "internalType": "address",
          "name": "_candidateContract",
          "type": "address"
        }
      ],
      "name": "totalSupplyOnCandidateContract",
      "outputs": [
        {
          "internalType": "uint256",
          "name": "totalsupply",
          "type": "uint256"
        }
      ],
      "stateMutability": "view",
      "type": "function"
    },
    {
      "inputs": [
        {
          "internalType": "address",
          "name": "_candidate",
          "type": "address"
        }
      ],
      "name": "updateSeigniorage",
      "outputs": [
        {
          "internalType": "bool",
          "name": "",
          "type": "bool"
        }
      ],
      "stateMutability": "nonpayable",
      "type": "function"
    },
    {
      "inputs": [
        {
          "internalType": "address[]",
          "name": "_candidates",
          "type": "address[]"
        }
      ],
      "name": "updateSeigniorages",
      "outputs": [
        {
          "internalType": "bool",
          "name": "",
          "type": "bool"
        }
      ],
      "stateMutability": "nonpayable",
      "type": "function"
    },
    {
      "inputs": [],
      "name": "wton",
      "outputs": [
        {
          "internalType": "address",
          "name": "",
          "type": "address"
        }
      ],
      "stateMutability": "view",
      "type": "function"
    }
  ],
  "bytecode": "0x60808060405234610052576301ffc9a760e01b600052600d6020527f49c01d976ca1c616ed1de1469e98d664903a805642011c315785aa325a483c71805460ff191660011790556152f590816100588239f35b600080fdfe6080604052600436101561001257600080fd5b60003560e01c806301ffc9a71461040757806303e3c9ac14610402578063047f52f2146103fd57806311f19e04146103f857806314d3535e146103f357806316f7f982146103ee5780631703a018146103e9578063216f486b146103e457806323d09fdf146103df578063248a9ca3146103da57806324f99b1e146103d557806327fd92fd146103d05780632af60ff4146103cb5780632e011c1e146103c65780632f2ff15d146103c157806332a45ef6146103bc5780633477ee2e146103b757806336568abe146103b257806338d1b17c146103ad5780634273ca16146103a8578063440b69ad146103a357806350e8f17d1461039e578063561a1dab1461039957806357f0a867146103945780635903bd6c1461038f5780635daf08ca1461038a5780635fba7a5614610385578063607cf7341461038057806363a8fd891461037b578063651d08cd1461037657806369b1227a146103715780636becff271461036c5780636fb7f558146103675780637657f20a14610362578063773b7f651461035d57806378767d33146103585780637f33163614610353578063805aca201461034e57806381bfe42c14610349578063885b46961461034457806389ea43001461033f5780638d62d9491461033a5780639010d07c1461033557806391d14854146103305780639932e94c1461032b5780639d65b53114610326578063a1ea352514610321578063a1f3ac2a1461031c578063a217fddf14610317578063a230c52414610312578063ad6675dc1461030d578063b4f69b6a14610308578063b5dd115814610303578063c0bc5304146102fe578063c1ba4e59146102f9578063c4ef9c00146102f4578063ca15c873146102ef578063cc48b947146102ea578063cf2a239c146102e5578063d51b9e93146102e0578063d525f04f146102db578063d547741f146102d65763efd57979146102d157600080fd5b613392565b6132d4565b613298565b613271565b613248565b61321f565b6131f3565b613111565b613020565b612f98565b612f6f565b612ee7565b612ea6565b612e5b565b612e3f565b612dc6565b612b8a565b612b11565b612aea565b612a9b565b6129f4565b6129cb565b6129a4565b61294f565b6128db565b6127b8565b61279a565b612773565b612755565b6126e4565b6126bb565b61252a565b6124a2565b612450565b61242a565b612272565b612049565b611fee565b611fc5565b611f5a565b611f18565b611d23565b611a87565b611877565b6117f3565b61175b565b611700565b61128b565b6111ce565b6110cf565b61105e565b611035565b610b8c565b610b30565b610a96565b6106d3565b6106b5565b610694565b610533565b6104fe565b610488565b610459565b346104495760203660031901126104495760043563ffffffff60e01b811680910361044957600052600d602052602060ff604060002054166040519015158152f35b600080fd5b600091031261044957565b34610449576000366003190112610449576020600854604051908152f35b6001600160a01b0381160361044957565b34610449576020366003190112610449576004356104a581610477565b3360009081526000805160206152a983398151915260205260409020546104d290151561365b565b61365b565b6001600160a01b03166104e68115156136b8565b6001600160601b0360a01b6003541617600355600080f35b346104495760203660031901126104495760206105296004356105246008548210613c41565b613df5565b6040519015158152f35b346104495760203660031901126104495761066860043561055381610477565b604061060e6105fe60048360a0815161056b81611974565b60009181838093528260208201528285820152826060820152826080820152015260018060a01b038097168152600f602052206105c98551966105ad88611974565b8254811688526001830154166001600160a01b03166020880152565b60028101548587015260038101546001600160801b0381166060880152608090811c908701525b01546001600160801b031690565b6001600160801b031660a0840152565b519182918291909160a060c0820193600180831b03808251168452602082015116602084015260408101516040840152816001600160801b0391826060820151166060860152826080820151166080860152015116910152565b0390f35b60409060031901126104495760043561068481610477565b9060243561069181610477565b90565b346104495760206106ad6106a73661066c565b9061519b565b604051908152f35b34610449576000366003190112610449576020600a54604051908152f35b34610449576020806003193601126104495760025460048035916001600160a01b0316906107028215156142e8565b60409283516377f28d5b60e01b8152858180610725858783019190602083019252565b0381875afa80156108895761074291600091610a69575b50614437565b6000845180946373ba374560e01b82528180610765868883019190602083019252565b03915afa91821561088957600092839484908592610a3b575b501561088e57506002546107a2906001600160a01b03165b6001600160a01b031690565b803b15610449578551631b8c251960e11b8152918201838152600091839182908490829060200103925af1801561088957610870575b5060005b8251811015610836578061082c6000806108096107fc610831968961464c565b516001600160a01b031690565b610813858a61464c565b5190828c83519301915af1610826614660565b50614690565b61463d565b6107dc565b50935061086b91507f785146be3266678a3f4ea454b310ff1f8c91d0ad9a7997bcd0619940d4d67fe6925b519182918261472c565b0390a2005b8061087d61088392611994565b8061044e565b386107d8565b613704565b949193955060009480955b8451871015610a2e576108cf6108b26107fc898861464c565b6108bc898b61464c565b51516108c88a8c61464c565b5191614f36565b156108ec576108e06108e691613557565b9661463d565b95610899565b91939550919395505b60025461090a906001600160a01b0316610796565b91823b15610449578451632833207960e21b815284810188815260208101849052909360009185919082908490829060400103925af19283156108895761095693610a1b575b50613565565b83511461098a575b507f785146be3266678a3f4ea454b310ff1f8c91d0ad9a7997bcd0619940d4d67fe69161086b91610861565b6002549092906109a2906001600160a01b0316610796565b803b15610449578251631b8c251960e11b8152938401858152600091859182908490829060200103925af1918215610889577f785146be3266678a3f4ea454b310ff1f8c91d0ad9a7997bcd0619940d4d67fe69361086b93610a08575b5091509161095e565b8061087d610a1592611994565b386109ff565b8061087d610a2892611994565b38610950565b91939550919395506108f5565b9294915050610a5d9294503d8091833e610a5581836119dd565b810190614589565b9094929391943861077e565b610a899150873d8911610a8f575b610a8181836119dd565b8101906138c1565b3861073c565b503d610a77565b346104495760006020366003190112610b2d57808052600c602052610ad16104cd336040842060019160005201602052604060002054151590565b60025481906001600160a01b0316610aea8115156142e8565b803b15610b2a5781906024604051809481936323d09fdf60e01b835260043560048401525af1801561088957610b1e575080f35b610b2790611994565b80f35b50fd5b80fd5b3461044957602036600319011261044957600435600052600c6020526020600260406000200154604051908152f35b9181601f84011215610449578235916001600160401b038311610449576020838186019501011161044957565b34610449576060366003190112610449576004803590602435906044356001600160401b03811161044957610bc49036908301610b5f565b9060018060a01b03600281815416610bdd8115156142e8565b6040928351630d90703f60e31b815260209283828a81335afa908115610889578a938593600093611002575b506001600160a01b0383166000908152600960205260409020610c41913391610c3a905b546001600160a01b031690565b1614613cfd565b8651637e77eb2360e01b8152808b018d81526001600160a01b039093166020840152604083019490945283918290600090829060600103925af1801561088957610fe4575b50508054610c9c906001600160a01b0316610796565b908251635772521560e11b815260608180610cbe8c8b83019190602083019252565b0381865afa9081156108895760009182918391610fb3575b50600a54928311610ddf5750508154919250610cfc916001600160a01b03169050610796565b90813b15610449578251632b0a851b60e11b815286810189815260016020820152909260009184919082908490829060400103925af190811561088957610d549261079692610dcc575b50546001600160a01b031690565b803b15610449578151633625b75960e21b815294850187815260036020820152600091869182908490829060400103925af19081156108895760008051602061528983398151915294610db492610db9575b505b51928392339684614420565b0390a3005b8061087d610dc692611994565b38610da6565b8061087d610dd992611994565b38610d46565b818311610ec35750508154919250610e01916001600160a01b03169050610796565b90813b15610449578251632b0a851b60e11b815286810189815260026020820152909260009184919082908490829060400103925af190811561088957610e589261079692610dcc5750546001600160a01b031690565b803b15610449578151633625b75960e21b815294850187815260056020820152600091869182908490829060400103925af19081156108895760008051602061528983398151915294610db492610eb0575b50610da8565b8061087d610ebd92611994565b38610eaa565b90610ecd91613565565b1015610ef0575b50506000805160206152898339815191529350610db490610da8565b813b15610449578251632b0a851b60e11b815286810189815260036020820152909260009184919082908490829060400103925af190811561088957610f469261079692610dcc5750546001600160a01b031690565b803b15610449578151633625b75960e21b815294850187815260056020820152600091869182908490829060400103925af19081156108895760008051602061528983398151915294610db492610fa0575b819250610ed4565b8061087d610fad92611994565b38610f98565b915050610fd7915060603d8111610fdd575b610fcf81836119dd565b8101906143a4565b38610cd6565b503d610fc5565b81610ffa92903d10610a8f57610a8181836119dd565b503880610c86565b610c4191935061102790853d871161102e575b61101f81836119dd565b81019061376e565b9290610c09565b503d611015565b34610449576000366003190112610449576002546040516001600160a01b039091168152602090f35b346104495760203660031901126104495760043561107b81610477565b3360009081526000805160206152a983398151915260205260409020546110a390151561365b565b6001600160a01b03166110b78115156136b8565b6001600160601b0360a01b6004541617600455600080f35b34610449576020366003190112610449576106686004356110ef81610477565b604061117f61116f60038360808151611107816119a7565b60009181838093528260208201528285820152826060820152015260018060a01b038097168152600960205220845195611140876119a7565b81541686526001810154602087015260028101546001600160801b0381168688015260801c60608701526105f0565b6001600160801b03166080840152565b5191829182919091608060a082019360018060a01b03815116835260208101516020840152816001600160801b0391826040820151166040860152826060820151166060860152015116910152565b34610449576040366003190112610449576024356004356111ee82610477565b600091818352600c60205260026040842001548352611220336040852060019160005201602052604060002054151590565b1561122e57610b2791613406565b60405162461bcd60e51b815260206004820152602f60248201527f416363657373436f6e74726f6c3a2073656e646572206d75737420626520616e60448201526e0818591b5a5b881d1bc819dc985b9d608a1b6064820152608490fd5b34610449576040806003193601126104495760049081356001600160401b038111610449576112bd9036908401610b5f565b602435906112ca82610477565b6005546001600160a01b0390811694909183916112e8871515613a4e565b6112f6848954161515613aae565b836003541697611307891515613b10565b6000988980526020968791600c83526113366104cd8d8733912060019160005201602052604060002054151590565b858c8b61135988519e8f968795869463732518fb60e11b865230928c87016137a4565b03925af197881561088957899861166d575b50908561159f9392868a16996113828b15156137e2565b6001600160a01b03871660009081526009602052604090206113a79061079690610c2d565b15611611576113d76113d1610796610c2d8a60018060a01b0316600052600f602052604060002090565b15613b76565b6001600160a01b038716600090815260096020526040902061150f906113fc90610c2d565b6114f261142060026105f08c60018060a01b03166000526009602052604060002090565b6114e28b6114d260016114458360018060a01b03166000526009602052604060002090565b01549361149560036105f061147960026114718860018060a01b03166000526009602052604060002090565b015460801c90565b6001600160a01b03909616600090815260096020526040902090565b946114b06114a1611a0d565b6001600160a01b039099168952565b6001600160a01b038a16888d0152878d01526001600160801b03166060870152565b6001600160801b03166080850152565b6001600160801b031660a0830152565b6001600160a01b0389166000908152600f60205260409020613bb5565b6001600160a01b03878116600090815260096020526040902080546001600160a01b0319169183169190911790555b8154611552906001600160a01b0316610796565b6005549091908d9061156c906001600160a01b0316610796565b8651635e58d38f60e11b81526001600160a01b039384169581019586529216602085015290968793849291839160400190565b03925af1958615610889577f7cf8db18d9a5c7f44156bfabdbb59ac982a8a004e461ca1b87ee71a5cdfbc5ef966115ee946115e2928c926115f4575b50506138d6565b51938493169583613a3d565b0390a380f35b61160a9250803d10610a8f57610a8181836119dd565b38806115db565b61165f61161c6119fe565b6001600160a01b03831681528d858201528d868201528d60608201528d608082015261165a8960018060a01b03166000526009602052604060002090565b613956565b611668876139d6565b61153e565b61159f939291985061168c8791823d841161102e5761101f81836119dd565b989192935061136b565b634e487b7160e01b600052603260045260246000fd5b6007548110156116e35760076000527fa66cc928b5edb82af9bd49922954155ab7b0942694bea4ce44661d9a8736c6880190600090565b611696565b80548210156116e35760005260206000200190600090565b34610449576020366003190112610449576004356006548110156104495760066000527ff652222313e28459528d920b65115c16c04f3efc82aaedc97be59f3f377c0d3f01546040516001600160a01b039091168152602090f35b346104495760403660031901126104495760243561177881610477565b336001600160a01b03821603611796576117949060043561345c565b005b60405162461bcd60e51b815260206004820152602f60248201527f416363657373436f6e74726f6c3a2063616e206f6e6c792072656e6f756e636560448201526e103937b632b9903337b91039b2b63360891b6064820152608490fd5b346104495760006040366003190112610b2d578060043561181381610477565b818052600c60205261183b6104cd336040852060019160005201602052604060002054151590565b6001600160a01b0316803b15610b2a57819060246040518094819363a79da34160e01b8352833560048401525af1801561088957610b1e575080f35b346104495760803660031901126104495760043561189481610477565b61189f602435610477565b6064356001600160401b038111610449576118be903690600401610b5f565b600054909291906001600160a01b0316330361192557611918926118e191614a43565b805160208201516001600160801b031660408301516001600160801b031691608061190f6060860151151590565b94015194614b73565b5060405160018152602090f35b60405162461bcd60e51b815260206004820152601160248201527024ba13b9903737ba10333937b6902a27a760791b6044820152606490fd5b634e487b7160e01b600052604160045260246000fd5b60c081019081106001600160401b0382111761198f57604052565b61195e565b6001600160401b03811161198f57604052565b60a081019081106001600160401b0382111761198f57604052565b606081019081106001600160401b0382111761198f57604052565b90601f801991011681019081106001600160401b0382111761198f57604052565b60405190611a0b826119a7565b565b60405190611a0b82611974565b6001600160401b03811161198f57601f01601f191660200190565b929192611a4182611a1a565b91611a4f60405193846119dd565b829481845281830111610449578281602093846000960137010152565b9080601f830112156104495781602061069193359101611a35565b346104495760603660031901126104495760048035611aa581610477565b60243591611ab283610477565b6044356001600160401b03811161044957611ad09036908301611a6c565b3360009081526000805160206152a9833981519152602090815260408083205492969195939192611b0290151561365b565b6005546001600160a01b0390811695909490611b1f871515613a4e565b611b2d868254161515613aae565b856003541696611b3e881515613b10565b6001600160a01b03868116600090815260096020526040902054611b63911615613710565b86861697611b728915156137e2565b611b9d611b97610796610c2d8a60018060a01b03166000526009602052604060002090565b15613847565b845163220bbb4b60e21b81528a8185818d5afa801561088957611bc7918d91611d06575b50614886565b845163570ca73560e01b8152928a8482818d5afa94851561088957611c1e958a611c00928f978f9893611ce5575b5081169116146148e0565b8b865180968195829463732518fb60e11b84528b8d30928601614951565b03925af193841561088957611cb76115ee958a7f0f401d1bd976f5304ef9cfa87aeb24d777c0e205fb87bbae1dc0f0293ba7976a98611cbc958293611cc6575b5082169a611c6d8c15156137e2565b611c87611c786119fe565b6001600160a01b039094168452565b8201528a858201528a60608201528a608082015261165a8360018060a01b03166000526009602052604060002090565b6139d6565b5191829182614981565b611cde9193508c8d3d1061102e5761101f81836119dd565b9138611c5e565b82919350611cff90893d8b1161102e5761101f81836119dd565b9290611bf5565b611d1d91508c8d3d10610a8f57610a8181836119dd565b38611bc1565b34610449576040366003190112610449573360009081526000805160206152a98339815191526020526040812054819060043590611d6290151561365b565b611d6f6008548210613c41565b6000805160206152c9833981519152611e7f611da2611d8d846116ac565b905460039190911b1c6001600160a01b031690565b6001600160a01b0381166000908152600960205260409020611e3f90600290600754611dcd81613536565b8803611eb5575b5087600182015501611e2f611e0f611e038354611dfa6001600160801b0382164261354a565b9060801c613565565b6001600160801b031690565b82546001600160801b031660809190911b6001600160801b031916178255565b80546001600160801b0319169055565b611e47614206565b611e5a611e55600854613536565b600855565b611e6560243561425a565b6040516001600160a01b0390911681529081906020820190565b0390a3600854611e8e81613557565b7f8c0366d1e3a335a312d012257ee764723c38ec2dd5e74cbfad372513521f97718380a380f35b611ecc611d8d611ec7611f1293613536565b6116ac565b6001600160a01b0381166000908152600960205260409020899060010155611ef3896116ac565b90919082549060031b9160018060a01b03809116831b921b1916179055565b38611dd4565b34610449576020366003190112610449576020610529600435611f3a81610477565b6001600160a01b0390811660009081526009602052604090205416151590565b34610449576020366003190112610449576001600160401b036004358181116104495736602382011215610449578060040135918211610449573660248360051b8301011161044957610668916024611fb39201614797565b60405190151581529081906020820190565b34610449576000366003190112610449576001546040516001600160a01b039091168152602090f35b34610449576020366003190112610449576004356007548110156104495760076000527fa66cc928b5edb82af9bd49922954155ab7b0942694bea4ce44661d9a8736c68801546040516001600160a01b039091168152602090f35b3461044957602080600319360112610449576004356001600160401b0381116104495761207a903690600401610b5f565b336000908152600960205260409020549091906120a0906001600160a01b031615613710565b6003546120f1906120b9906001600160a01b0316610796565b60055490949081906120d3906001600160a01b0316610796565b6040518094819263732518fb60e11b835230898933600487016137a4565b0381600080995af1918215610889578592612253575b506001600160a01b0382169361211e8515156137e2565b33600090815260096020526040902061213e90611b979061079690610c2d565b600454869083906121a49061215b906001600160a01b0316610796565b600554612170906001600160a01b0316610796565b604051635e58d38f60e11b81526001600160a01b03808a166004830152909116602482015293849283919082906044820190565b03925af193841561088957876115ee946121ea7f7cf8db18d9a5c7f44156bfabdbb59ac982a8a004e461ca1b87ee71a5cdfbc5ef9761221f958491612236575b506138d6565b6121f5611c786119fe565b82015260408082018990526060820189905260808201899052336000908152600960205220613956565b612228336139d6565b604051918291339583613a3d565b61224d9150833d8511610a8f57610a8181836119dd565b386121e4565b8161226b9293503d841161102e5761101f81836119dd565b9038612107565b346104495760408060031936011261044957600490813561229281610477565b6024356001600160401b038111610449576122b09036908501610b5f565b8351630d90703f60e31b8152919391926001600160a01b039081169060209081868981865afa9586156108895760009661240b575b50845163136c704d60e31b8152869083818b81885afa908115610889576000916123ee575b506123a1575b61231d9250163314614172565b803b15610449578160009186836123489987519a8b95869485936325d6086160e01b85528401613a3d565b03925af1918215610889577fda033346b344f4675799a7ab4d837f0deb62d4afcdcaba4613913b4c25838cb3956123899361238e575b5051938493846141e4565b0390a1005b8061087d61239b92611994565b3861237e565b50845163570ca73560e01b815282818a818a86165afa9081156108895761231d936000926123d1575b5050612310565b6123e79250803d1061102e5761101f81836119dd565b38806123ca565b6124059150843d8611610a8f57610a8181836119dd565b3861230a565b612423919650823d841161102e5761101f81836119dd565b94386122e5565b3461044957600036600319011261044957602060ff600e5460a01c166040519015158152f35b3461044957602036600319011261044957602061249060043561247281610477565b6001600160a01b039081166000908152600960205260409020541690565b6040516001600160a01b039091168152f35b346104495760006020366003190112610b2d57808052600c6020526124dd6104cd336040842060019160005201602052604060002054151590565b60025481906001600160a01b03166124f68115156142e8565b803b15610b2a5781906024604051809481936334d8913d60e11b835260043560048401525af1801561088957610b1e575080f35b346104495760203660031901126104495760043561254781610477565b604051630d90703f60e31b8152602081600481335afa9081156108895760009161269d575b506001600160a01b0381166000908152600960205260409020805490916001600160a01b03916125a190339084908116610c3a565b6125aa816151f8565b926125b6841515614827565b6001546125cb906001600160a01b0316610796565b93843b1561044957604051633bc3556560e21b81526001600160a01b038716600482015260248101829052946000908690604490829084905af194851561088957600261086b93612664927fb15377c434dc1922cc2eb7d8950640960a05f0cf6d5dc9442de8414a9da2b3089861268a575b506126546001600160801b0342166003830161393b565b016001600160801b038154169055565b604080516001600160a01b03909716875260208701919091529190921693918291820190565b8061087d61269792611994565b3861263d565b6126b5915060203d811161102e5761101f81836119dd565b3861256c565b34610449576000366003190112610449576005546040516001600160a01b039091168152602090f35b346104495760203660031901126104495760043561270181610477565b3360009081526000805160206152a9833981519152602052604090205461272990151561365b565b6001600160a01b031661273d8115156136b8565b6001600160601b0360a01b6005541617600555600080f35b34610449576000366003190112610449576020600654604051908152f35b346104495760203660031901126104495760206106ad60043561279581610477565b615143565b34610449576000366003190112610449576020600b54604051908152f35b34610449576060366003190112610449573360009081526000805160206152a9833981519152602052604081205460043590829060243590604435906127ff90151561365b565b600254612814906001600160a01b0316610796565b9061281e816143d5565b813b156128d757839161284891604051958680948193632b0a851b60e11b83528a600484016143e4565b03925af19182156108895784926128c4575b50600254612870906001600160a01b0316610796565b612879826143fd565b803b156128c0576128a19383604051809681958294633625b75960e21b845260048401614407565b03925af18015610889576128b3575080f35b8061087d610b2792611994565b8280fd5b8061087d6128d192611994565b3861285a565b8380fd5b3461044957600080600319360112610b2d57808052600c6020526129156104cd336040842060019160005201602052604060002054151590565b60055481906001600160a01b0316803b15610b2a578190600460405180948193631fa5d41d60e11b83525af1801561088957610b1e575080f35b346104495760006020366003190112610b2d5760025481906001600160a01b0316803b15610b2a57819060246040518094819363442da34b60e11b835260043560048401525af1801561088957610b1e575080f35b346104495760203660031901126104495760206105296004356129c681610477565b61473d565b34610449576000366003190112610449576010546040516001600160a01b039091168152602090f35b3461044957604036600319011261044957602435600435600052600c6020526040600020908082541115612a4b57612a2b916116e8565b905460405160039290921b1c6001600160a01b0316815280602081010390f35b60405162461bcd60e51b815260206004820152602260248201527f456e756d657261626c655365743a20696e646578206f7574206f6620626f756e604482015261647360f01b6064820152608490fd5b34610449576040366003190112610449576020610529602435612abd81610477565b6004356000908152600c845260408082206001600160a01b03909316825260019092016020522054151590565b346104495760203660031901126104495760206106ad600435612b0c81610477565b6151f8565b3461044957612b1f3661066c565b3360009081526000805160206152a9833981519152602052604081205490928391612b4b90151561365b565b6001600160a01b0390811692833b156128c057602490836040519586948593634c1d96ab60e11b85521660048401525af1801561088957610b1e575080f35b34610449576040806003193601126104495760048035612ba981610477565b6024356001600160401b03811161044957612bc79036908401611a6c565b6005546001600160a01b039081169490929190612be5861515613a4e565b612bf3848654161515613aae565b836003541693612c04851515613b10565b6001600160a01b03848116600090815260096020526040902054612c29911615613710565b80841695612c388715156137e2565b612c5d611b97610796610c2d8860018060a01b03166000526009602052604060002090565b825163220bbb4b60e21b815260209890898184818c5afa801561088957612c8b91600091612daf5750614886565b835163570ca73560e01b815296898884818c5afa92831561088957612cc18b94612ce09a600091612d92575b50861633146148e0565b60008651809a8195829463732518fb60e11b84528b8d30928601614951565b03925af193841561088957611cb7610db495611cbc937f0f401d1bd976f5304ef9cfa87aeb24d777c0e205fb87bbae1dc0f0293ba7976a98600092612d70575b5060009082169a612d328c15156137e2565b612d3d611c786119fe565b820152600085820181905260608201819052608082018190526001600160a01b0384168152600960205260409020613956565b6000919250612d8b908c8d3d1061102e5761101f81836119dd565b9190612d20565b612da99150863d881161102e5761101f81836119dd565b38612cb7565b611d1d91508b3d8d11610a8f57610a8181836119dd565b3461044957612dd43661066c565b3360009081526000805160206152a9833981519152602052604081205490928391612e0090151561365b565b6001600160a01b0390811692833b156128c057602490836040519586948593633b2bf90560e11b85521660048401525af1801561088957610b1e575080f35b3461044957600036600319011261044957602060405160008152f35b34610449576020366003190112610449576020610529600435612e7d81610477565b6001600160a01b03166000908152600960205260409020600201546001600160801b0316151590565b346104495760203660031901126104495760206106ad600435612ec881610477565b6001600160a01b03908116600090815260098452604090205416615143565b346104495760006020366003190112610b2d57808052600c602052612f226104cd336040842060019160005201602052604060002054151590565b60025481906001600160a01b0316612f3b8115156142e8565b803b15610b2a578190602460405180948193635a7b4db560e11b835260043560048401525af1801561088957610b1e575080f35b34610449576000366003190112610449576003546040516001600160a01b039091168152602090f35b346104495760006020366003190112610b2d57808052600c602052612fd36104cd336040842060019160005201602052604060002054151590565b60025481906001600160a01b0316612fec8115156142e8565b803b15610b2a57819060246040518094819363302f14c160e21b835260043560048401525af1801561088957610b1e575080f35b34610449576020366003190112610449573360009081526000805160206152a983398151915260205260409020546004359061305d90151561365b565b600254613074906001600160a01b031615156142e8565b600854908160011c8111156130cc5761309261309792821115614349565b600a55565b600a546040519081527f027863d12a407097e086a48e36475bfc859d0b200b7e6f65b5fd3b218e46632e908060208101612389565b60405162461bcd60e51b815260206004820152601c60248201527f44414f436f6d6d69747465653a20696e76616c69642071756f72756d000000006044820152606490fd5b3461044957600036600319011261044957604051630d90703f60e31b8152602081600481335afa801561088957613174916000916131d5575b506001600160a01b03166000908152600960205260409020600201546001600160801b0316151590565b1561318457610668611fb3614084565b60405162461bcd60e51b815260206004820152602360248201527f53746f726167655374617465436f6d6d69747465653a206e6f742061206d656d6044820152623132b960e91b6064820152608490fd5b6131ed915060203d811161102e5761101f81836119dd565b3861314a565b3461044957602036600319011261044957600435600052600c6020526020604060002054604051908152f35b34610449576000366003190112610449576000546040516001600160a01b039091168152602090f35b34610449576000366003190112610449576004546040516001600160a01b039091168152602090f35b3461044957602036600319011261044957602061052960043561329381610477565b614f4c565b346104495760206106ad6132cf6132ae3661066c565b6001600160a01b039182166000908152600960205260409020549092911690565b61519b565b34610449576040366003190112610449576024356004356132f482610477565b600091818352600c60205260026040842001548352613326336040852060019160005201602052604060002054151590565b1561333457610b279161345c565b60405162461bcd60e51b815260206004820152603060248201527f416363657373436f6e74726f6c3a2073656e646572206d75737420626520616e60448201526f2061646d696e20746f207265766f6b6560801b6064820152608490fd5b3461044957600080600319360112610b2d57808052600c6020526133cc6104cd336040842060019160005201602052604060002054151590565b60055481906001600160a01b0316803b15610b2a578190600460405180948193638456cb5960e01b83525af1801561088957610b1e575080f35b6000818152600c6020526040902090916001600160a01b03169061342b9082906134b2565b613433575050565b33917f2f8788117e7eff1d82e926ec794901d17c78024a50270940304540a733656f0d600080a4565b6000818152600c6020526040902090916001600160a01b0316906134819082906135b7565b613489575050565b33917ff6391f5c32d9c69d2a47ea670b442974b53935d1edc7fd64eb21e047a839171b600080a4565b600082815260018201602052604090205461351957805490600160401b82101561198f57826135026134eb8460018096018555846116e8565b819391549060031b91821b91600019901b19161790565b905580549260005201602052604060002055600190565b5050600090565b634e487b7160e01b600052601160045260246000fd5b60001981019190821161354557565b613520565b9190820391821161354557565b906001820180921161354557565b9190820180921161354557565b634e487b7160e01b600052603160045260246000fd5b80549081156135b257600019918201916135a283836116e8565b909182549160031b1b1916905555565b613572565b90600182019080600052816020526040600020549182151560001461365257600019838101938411613545578454908101908111613545578461364c9461363761362661360961363d9560009a6116e8565b90549060031b1c928361361f6134eb83886116e8565b9055613557565b918590600052602052604060002090565b55613588565b90600052602052604060002090565b55600190565b50505050600090565b1561366257565b60405162461bcd60e51b815260206004820152602860248201527f44414f436f6d6d69747465653a206d73672e73656e646572206973206e6f742060448201526730b71030b236b4b760c11b6064820152608490fd5b156136bf57565b60405162461bcd60e51b815260206004820152601a60248201527f44414f436f6d6d69747465653a207a65726f20616464726573730000000000006044820152606490fd5b6040513d6000823e3d90fd5b1561371757565b60405162461bcd60e51b815260206004820152602960248201527f44414f436f6d6d69747465653a2063616e64696461746520616c7265616479206044820152681c9959da5cdd195c9960ba1b6064820152608490fd5b90816020910312610449575161069181610477565b908060209392818452848401376000828201840152601f01601f1916010190565b939594906137d56080949360018060a01b03948580941688526000602089015260a0604089015260a0880191613783565b9616606085015216910152565b156137e957565b60405162461bcd60e51b815260206004820152603060248201527f44414f436f6d6d69747465653a206465706c6f7965642063616e64696461746560448201526f436f6e7472616374206973207a65726f60801b6064820152608490fd5b1561384e57565b60405162461bcd60e51b815260206004820152603060248201527f44414f436f6d6d69747465653a205468652063616e64696461746520616c726560448201526f18591e481a185cc818dbdb9d1c9858dd60821b6064820152608490fd5b8015150361044957565b5190611a0b826138ac565b908160209103126104495751610691816138ac565b156138dd57565b60405162461bcd60e51b815260206004820152603060248201527f44414f436f6d6d69747465653a206661696c656420746f20726567697374657260448201526f416e644465706c6f79436f696e61676560801b6064820152608490fd5b906001600160801b03166001600160801b0319825416179055565b815181546001600160a01b0319166001600160a01b0391909116178155611a0b9160039060208101516001840155608060028401916139cc6001600160801b03936139a7856040850151168261393b565b606083015181546001600160801b031690861660801b6001600160801b031916179055565b015116910161393b565b60065490600160401b82101561198f5760018201806006558210156116e35760066000527ff652222313e28459528d920b65115c16c04f3efc82aaedc97be59f3f377c0d3f90910180546001600160a01b0319166001600160a01b03909216919091179055565b916020610691938181520191613783565b15613a5557565b60405162461bcd60e51b815260206004820152602b60248201527f53746f726167655374617465436f6d6d69747465653a20696e76616c6964205360448201526a6569674d616e616765726560a81b6064820152608490fd5b15613ab557565b60405162461bcd60e51b815260206004820152602d60248201527f53746f726167655374617465436f6d6d69747465653a20696e76616c6964204c60448201526c6179657232526567697374727960981b6064820152608490fd5b15613b1757565b60405162461bcd60e51b815260206004820152603160248201527f53746f726167655374617465436f6d6d69747465653a20696e76616c696420436044820152706f6d6d69747465654c32466163746f727960781b6064820152608490fd5b15613b7d57565b60405162461bcd60e51b815260206004820152601060248201526f185b1c9958591e481b5a59dc985d195960821b6044820152606490fd5b815181546001600160a01b039182166001600160a01b03199182161783556020840151600184018054919093169116179055611a0b916004906040810151600284015560a060038401916139cc6001600160801b0393613c1b856060850151168261393b565b60808381015182546001600160801b031690871690911b6001600160801b031916179055565b15613c4857565b60405162461bcd60e51b815260206004820152602260248201527f44414f436f6d6d69747465653a20696e76616c6964206d656d62657220696e646044820152610caf60f31b6064820152608490fd5b15613c9f57565b60405162461bcd60e51b815260206004820152603060248201527f44414f436f6d6d69747465653a2073656e646572206973206e6f74206120636160448201526f1b991a59185d194818dbdb9d1c9858dd60821b6064820152608490fd5b15613d0457565b60405162461bcd60e51b815260206004820152602860248201527f44414f436f6d6d69747465653a20696e76616c69642063616e6469646174652060448201526718dbdb9d1c9858dd60c21b6064820152608490fd5b15613d6157565b60405162461bcd60e51b815260206004820152601c60248201527f44414f436f6d6d69747465653a20616c7265616479206d656d626572000000006044820152606490fd5b90816020910312610449575190565b15613dbc57565b60405162461bcd60e51b81526020600482015260116024820152701b9bdd08195b9bdd59da08185b5bdd5b9d607a1b6044820152606490fd5b60408051630d90703f60e31b815291906020908184600481335afa93841561088957600094614065575b506001600160a01b0384166000908152600960205260409020938151631dffc87160e21b81528381600481335afa801561088957613e6591600091614048575b50613c98565b84546001600160a01b039290613e8090339085908116610c3a565b60028601906001600160801b03613ea981613ea285546001600160801b031690565b1615613d5a565b866001613eb8611d8d836116ac565b99613ee5613edb610c2d8d60018060a01b03166000526009602052604060002090565b968542169061393b565b0155613ef484611ef3896116ac565b8488161561401b5781516340bd8e6960e11b80825291908781600481335afa9485156108895787938992600097613ff9575b50600490865195869384928352165afa968715610889576000805160206152c983398151915297613fc295613fa794613f6993600093613fca575b505011613db5565b611e2f611e0f611e036002613f908d60018060a01b03166000526009602052604060002090565b600060018201550193611dfa85549182164261354a565b516001600160a01b0390961686529116939081906020820190565b0390a3600190565b613fea929350803d10613ff2575b613fe281836119dd565b810190613da6565b903880613f61565b503d613fd8565b600491975061401490843d8611613ff257613fe281836119dd565b9690613f26565b50516001600160a01b0390961686525016926000805160206152c983398151915291508060208101613fc2565b61405f9150853d8711610a8f57610a8181836119dd565b38613e5f565b61407d919450823d841161102e5761101f81836119dd565b9238613e1f565b604051630d90703f60e31b8152602081600481335afa8015610889576000918291614154575b506001600160a01b038181166000908152600960205260409020805490926000805160206152c983398151915292613fc2926140e99133918116610c3a565b6141346002600186019561411561410088546116ac565b81549060018060a01b039060031b1b19169055565b01611e2f611e0f611e038354611dfa6001600160801b0382164261354a565b8354938590556040516001600160a01b0390911681529081906020820190565b61416c915060203d811161102e5761101f81836119dd565b386140aa565b1561417957565b60405162461bcd60e51b815260206004820152603a60248201527f44414f436f6d6d69747465653a2073656e646572206973206e6f74207468652060448201527f63616e646964617465206f66207468697320636f6e74726163740000000000006064820152608490fd5b6001600160a01b03909116815260406020820181905261069193910191613783565b60075480156135b257600019810190808210156116e3577fa66cc928b5edb82af9bd49922954155ab7b0942694bea4ce44661d9a8736c687906007600052016001600160601b0360a01b8154169055600755565b3360009081526000805160206152a9833981519152602052604090205461428290151561365b565b600254614299906001600160a01b031615156142e8565b600854908160011c8111156130cc576130926142b792821115614349565b600a546040519081527f027863d12a407097e086a48e36475bfc859d0b200b7e6f65b5fd3b218e46632e90602090a1565b156142ef57565b60405162461bcd60e51b815260206004820152602c60248201527f53746f726167655374617465436f6d6d69747465653a204167656e64614d616e60448201526b61676572206973207a65726f60a01b6064820152608490fd5b1561435057565b60405162461bcd60e51b815260206004820152602660248201527f44414f436f6d6d69747465653a2071756f72756d20657863656564206d61782060448201526536b2b6b132b960d11b6064820152608490fd5b90816060910312610449578051916040602083015192015190565b634e487b7160e01b600052602160045260246000fd5b600411156143df57565b6143bf565b9081526040810192919060048210156143df5760200152565b600611156143df57565b9081526040810192919060068210156143df5760200152565b604090610691949281528160208201520191613783565b1561443e57565b60405162461bcd60e51b815260206004820152602860248201527f44414f436f6d6d69747465653a2063616e206e6f74206578656375746520746860448201526765206167656e646160c01b6064820152608490fd5b6001600160401b03811161198f5760051b60200190565b60005b8381106144be5750506000910152565b81810151838201526020016144ae565b9080601f83011215610449578151916144e683614494565b926040906144f6825195866119dd565b808552602093848087019260051b8501019381851161044957858101925b858410614525575050505050505090565b83516001600160401b0381116104495782019083603f8301121561044957878201519061455182611a1a565b61455d885191826119dd565b828152858884860101116104495761457e8a949385948a86850191016144ab565b815201930192614514565b9190916080818403126104495780516001600160401b03908181116104495782019380601f860112156104495784516145c181614494565b906145cf60405192836119dd565b808252602096878084019260051b820101918483116104495788809201905b8382106146245750505050948301519182116104495761460f9183016144ce565b91606061461e604084016138b6565b92015190565b828091835161463281610477565b8152019101906145ee565b60001981146135455760010190565b80518210156116e35760209160051b010190565b3d1561468b573d9061467182611a1a565b9161467f60405193846119dd565b82523d6000602084013e565b606090565b1561469757565b60405162461bcd60e51b815260206004820152602a60248201527f44414f436f6d6d69747465653a204661696c656420746f206578656375746520604482015269746865206167656e646160b01b6064820152608490fd5b90815180825260208080930193019160005b82811061470f575050505090565b83516001600160a01b031685529381019392810192600101614701565b9060206106919281815201906146ef565b602060009160018060a01b03809116835260098252604083205416600460405180948193633b253c2b60e11b83525af19081156108895760009161477f575090565b610691915060203d8111610a8f57610a8181836119dd565b60005b8281106147a957505050600190565b6147bc8160051b8301356129c681610477565b156147cf576147ca9061463d565b61479a565b60405162461bcd60e51b815260206004820152602a60248201527f44414f436f6d6d69747465653a206661696c656420746f2075706461746520736044820152696569676e696f7261676560b01b6064820152608490fd5b1561482e57565b60405162461bcd60e51b815260206004820152602a60248201527f44414f436f6d6d69747465653a20796f7520646f6e2774206861766520636c6160448201526934b6b0b13632903a37b760b11b6064820152608490fd5b1561488d57565b60405162461bcd60e51b815260206004820152602560248201527f44414f436f6d6d69747465653a20696e76616c6964206c617965723220636f6e6044820152641d1c9858dd60da1b6064820152608490fd5b156148e757565b60405162461bcd60e51b815260206004820152601e60248201527f44414f436f6d6d69747465653a20696e76616c6964206f70657261746f7200006044820152606490fd5b90602091614945815180928185528580860191016144ab565b601f01601f1916010190565b929493608092916137d560018060a01b03938480931687526001602088015260a0604088015260a087019061492c565b90602061069192818152019061492c565b35906001600160801b038216820361044957565b3590611a0b826138ac565b81601f82011215610449578035906149c882614494565b926040926149d8845195866119dd565b808552602093848087019260051b8501019383851161044957858101925b858410614a07575050505050505090565b83356001600160401b03811161044957820185603f82011215610449578791614a3887838786809601359101611a35565b8152019301926149f6565b919091604051614a52816119a7565b60608152602091828201600091828252604084018381526060850193808552608086019460608652869984019560a0858803126128c0576001600160401b03968535888111614b6f5786019981601f8c011215614b6f578a359a614ab58c614494565b9b82806040519e8f90614ac890826119dd565b838152019160051b83010191848311614b6b578301905b828210614b5257505050614af4908701614992565b97614b0160408801614992565b96614b0e606082016149a6565b956080820135928311610b2d575092614b38614b4f9a99989693614b41989693614b4196016149b1565b90529015159052565b906001600160801b03169052565b52565b8380918335614b6081610477565b815201910190614adf565b8780fd5b8480fd5b9092949360018060a01b0392836002541695614b908715156142e8565b6040518097632522a32f60e01b825281600460209a8b935afa90811561088957600091614d9a575b50600054614bd090610796906001600160a01b031681565b6040516323b872dd60e01b81526001600160a01b038716600482015230602482015260448101839052908990829060649082906000905af1801561088957600092614c27614c66928c948691614d7d575b50614e84565b8354614c3d90610796906001600160a01b031681565b9060405194858094819363a9059cbb60e01b835260048301919060206040840193600181520152565b03925af18015610889578492614c878b928b94600091614d60575b50614eea565b8460008a614cc0614ca261079660025460018060a01b031690565b94604051988997889687956304a091b760e31b875260048701614db7565b03925af196871561088957600097614d13575b50507fcd47bcad760e912d146723a314cc78b8570ee76ec8bdd4b60335087f6c2f47d79392918697614d0d92604051958695169785614e4d565b0390a390565b614d0d9297507fcd47bcad760e912d146723a314cc78b8570ee76ec8bdd4b60335087f6c2f47d79594939181614d5492903d10613ff257613fe281836119dd565b96918193949550614cd3565b614d779150853d8711610a8f57610a8181836119dd565b38614c81565b614d949150853d8711610a8f57610a8181836119dd565b38614c21565b614db19150883d8a11613ff257613fe281836119dd565b38614bb8565b91929390614dcd9060a0845260a08401906146ef565b936001600160801b03908160209516858501521660408301521515606082015260808184039101528251908183528083019281808460051b8301019501936000915b848310614e1f5750505050505090565b9091929394958480614e3d600193601f198682030187528a5161492c565b9801930193019194939290614e0f565b9294939091614e666060936080865260808601906146ef565b956001600160801b0380921660208601521660408401521515910152565b15614e8b57565b60405162461bcd60e51b815260206004820152603160248201527f44414f436f6d6d69747465653a206661696c656420746f207472616e73666572604482015270103a37b710333937b69031b932b0ba37b960791b6064820152608490fd5b15614ef157565b60405162461bcd60e51b815260206004820152601c60248201527f44414f436f6d6d69747465653a206661696c656420746f206275726e000000006044820152606490fd5b906000929183602081940191619c3f195a01f190565b6001600160a01b0390811660009081526009602052604090205416801561509457604051906020828180809501916301ffc9a760e01b9283815283602483015260248252614f99826119c2565b60009687809351617530938985fa933d83519086615089575b508561507f575b5084615021575b5050505080615012575b1561500d578060049260405193848092631dffc87160e21b82525afa9283156108895792614ff757505090565b6106919250803d10610a8f57610a8181836119dd565b505090565b5061501c8261509a565b614fca565b90919293508560405185810192835263ffffffff60e01b60248201526024815261504a816119c2565b5192fa8351823d83615074575b50508161506a575b501581843880614fc0565b905015153861505f565b101591508238615057565b1515945038614fb9565b851115955038614fb2565b50600090565b6000602091604051838101906301ffc9a760e01b8252631dffc87160e21b6024820152602481526150ca816119c2565b5191617530fa6000513d826150eb575b50816150e4575090565b9050151590565b602011159150386150da565b156150fe57565b60405162461bcd60e51b815260206004820152601f60248201527f54686973206163636f756e74206973206e6f7420612063616e646964617465006044820152606490fd5b6004906020906001600160a01b031661515d8115156150f7565b6040516340bd8e6960e11b815292839182905afa90811561088957600091615183575090565b610691915060203d8111613ff257613fe281836119dd565b6001600160a01b0390811691602091906024906151b98515156150f7565b604051948593849263af500ba360e01b84521660048301525afa90811561088957600091615183575090565b8181029291811591840414171561354557565b6001600160a01b031660009081526009602052604090206002810154608081901c916001600160801b0391821691908261523d575b50505061069190600b54906151e5565b60030154168082111561526a57506152629061525d610691934290613565565b61354a565b90388061522d565b9050428201809211613545578103908111613545576106919061526256fefa0761008653bc7bf9fa040fb7e07672ad3e17a976eb452c44e81dd782a6214b13649b2456f1b42fef0f0040b3aaeabcd21a76a0f3f5defd4f583839455116e9663b98adf1afa777e36528b3293a057803f87ed00d2d2518dccfe5d7a6e99ccfa164736f6c6343000812000a",
  "linkReferences": {},
  "deployedLinkReferences": {}
}