{
  "_format": "hh-sol-artifact-1",
  "contractName": "DAOCommitteeDAOVault",
  "sourceName": "contracts/dao/DAOCommitteeDAOVault.sol",
  "abi": [
    {
      "anonymous": false,
      "inputs": [
        {
          "indexed": true,
          "internalType": "address",
          "name": "from",
          "type": "address"
        },
        {
          "indexed": true,
          "internalType": "uint256",
          "name": "id",
          "type": "uint256"
        },
        {
          "indexed": false,
          "internalType": "address[]",
          "name": "targets",
          "type": "address[]"
        },
        {
          "indexed": false,
          "internalType": "uint128",
          "name": "noticePeriodSeconds",
          "type": "uint128"
        },
        {
          "indexed": false,
          "internalType": "uint128",
          "name": "votingPeriodSeconds",
          "type": "uint128"
        },
        {
          "indexed": false,
          "internalType": "bool",
          "name": "atomicExecute",
          "type": "bool"
        }
      ],
      "name": "AgendaCreated",
      "type": "event"
    },
    {
      "anonymous": false,
      "inputs": [
        {
          "indexed": true,
          "internalType": "uint256",
          "name": "id",
          "type": "uint256"
        },
        {
          "indexed": false,
          "internalType": "address[]",
          "name": "target",
          "type": "address[]"
        }
      ],
      "name": "AgendaExecuted",
      "type": "event"
    },
    {
      "anonymous": false,
      "inputs": [
        {
          "indexed": true,
          "internalType": "address",
          "name": "from",
          "type": "address"
        },
        {
          "indexed": true,
          "internalType": "uint256",
          "name": "id",
          "type": "uint256"
        },
        {
          "indexed": false,
          "internalType": "uint256",
          "name": "voting",
          "type": "uint256"
        },
        {
          "indexed": false,
          "internalType": "string",
          "name": "comment",
          "type": "string"
        }
      ],
      "name": "AgendaVoteCasted",
      "type": "event"
    },
    {
      "anonymous": false,
      "inputs": [
        {
          "indexed": true,
          "internalType": "address",
          "name": "candidate",
          "type": "address"
        },
        {
          "indexed": true,
          "internalType": "address",
          "name": "candidateContract",
          "type": "address"
        },
        {
          "indexed": false,
          "internalType": "string",
          "name": "memo",
          "type": "string"
        }
      ],
      "name": "CandidateContractCreated",
      "type": "event"
    },
    {
      "anonymous": false,
      "inputs": [
        {
          "indexed": true,
          "internalType": "uint256",
          "name": "slotIndex",
          "type": "uint256"
        },
        {
          "indexed": false,
          "internalType": "address",
          "name": "prevMember",
          "type": "address"
        },
        {
          "indexed": true,
          "internalType": "address",
          "name": "newMember",
          "type": "address"
        }
      ],
      "name": "ChangedMember",
      "type": "event"
    },
    {
      "anonymous": false,
      "inputs": [
        {
          "indexed": false,
          "internalType": "address",
          "name": "candidate",
          "type": "address"
        },
        {
          "indexed": false,
          "internalType": "string",
          "name": "newMemo",
          "type": "string"
        }
      ],
      "name": "ChangedMemo",
      "type": "event"
    },
    {
      "anonymous": false,
      "inputs": [
        {
          "indexed": true,
          "internalType": "uint256",
          "name": "prevSlotMax",
          "type": "uint256"
        },
        {
          "indexed": true,
          "internalType": "uint256",
          "name": "slotMax",
          "type": "uint256"
        }
      ],
      "name": "ChangedSlotMaximum",
      "type": "event"
    },
    {
      "anonymous": false,
      "inputs": [
        {
          "indexed": true,
          "internalType": "address",
          "name": "candidate",
          "type": "address"
        },
        {
          "indexed": false,
          "internalType": "address",
          "name": "receiver",
          "type": "address"
        },
        {
          "indexed": false,
          "internalType": "uint256",
          "name": "amount",
          "type": "uint256"
        }
      ],
      "name": "ClaimedActivityReward",
      "type": "event"
    },
    {
      "anonymous": false,
      "inputs": [
        {
          "indexed": true,
          "internalType": "address",
          "name": "candidate",
          "type": "address"
        },
        {
          "indexed": true,
          "internalType": "address",
          "name": "candidateContract",
          "type": "address"
        },
        {
          "indexed": false,
          "internalType": "string",
          "name": "memo",
          "type": "string"
        }
      ],
      "name": "Layer2Registered",
      "type": "event"
    },
    {
      "anonymous": false,
      "inputs": [
        {
          "indexed": false,
          "internalType": "uint256",
          "name": "newQuorum",
          "type": "uint256"
        }
      ],
      "name": "QuorumChanged",
      "type": "event"
    },
    {
      "anonymous": false,
      "inputs": [
        {
          "indexed": true,
          "internalType": "bytes32",
          "name": "role",
          "type": "bytes32"
        },
        {
          "indexed": true,
          "internalType": "bytes32",
          "name": "previousAdminRole",
          "type": "bytes32"
        },
        {
          "indexed": true,
          "internalType": "bytes32",
          "name": "newAdminRole",
          "type": "bytes32"
        }
      ],
      "name": "RoleAdminChanged",
      "type": "event"
    },
    {
      "anonymous": false,
      "inputs": [
        {
          "indexed": true,
          "internalType": "bytes32",
          "name": "role",
          "type": "bytes32"
        },
        {
          "indexed": true,
          "internalType": "address",
          "name": "account",
          "type": "address"
        },
        {
          "indexed": true,
          "internalType": "address",
          "name": "sender",
          "type": "address"
        }
      ],
      "name": "RoleGranted",
      "type": "event"
    },
    {
      "anonymous": false,
      "inputs": [
        {
          "indexed": true,
          "internalType": "bytes32",
          "name": "role",
          "type": "bytes32"
        },
        {
          "indexed": true,
          "internalType": "address",
          "name": "account",
          "type": "address"
        },
        {
          "indexed": true,
          "internalType": "address",
          "name": "sender",
          "type": "address"
        }
      ],
      "name": "RoleRevoked",
      "type": "event"
    },
    {
      "inputs": [],
      "name": "DEFAULT_ADMIN_ROLE",
      "outputs": [
        {
          "internalType": "bytes32",
          "name": "",
          "type": "bytes32"
        }
      ],
      "stateMutability": "view",
      "type": "function"
    },
    {
      "inputs": [
        {
          "internalType": "uint256",
          "name": "v",
          "type": "uint256"
        }
      ],
      "name": "_toRAY",
      "outputs": [
        {
          "internalType": "uint256",
          "name": "",
          "type": "uint256"
        }
      ],
      "stateMutability": "pure",
      "type": "function"
    },
    {
      "inputs": [],
      "name": "activityRewardPerSecond",
      "outputs": [
        {
          "internalType": "uint256",
          "name": "",
          "type": "uint256"
        }
      ],
      "stateMutability": "view",
      "type": "function"
    },
    {
      "inputs": [],
      "name": "agendaManager",
      "outputs": [
        {
          "internalType": "contract IDAOAgendaManager",
          "name": "",
          "type": "address"
        }
      ],
      "stateMutability": "view",
      "type": "function"
    },
    {
      "inputs": [
        {
          "internalType": "address",
          "name": "_candidate",
          "type": "address"
        },
        {
          "internalType": "address",
          "name": "_account",
          "type": "address"
        }
      ],
      "name": "balanceOfOnCandidate",
      "outputs": [
        {
          "internalType": "uint256",
          "name": "amount",
          "type": "uint256"
        }
      ],
      "stateMutability": "view",
      "type": "function"
    },
    {
      "inputs": [
        {
          "internalType": "address",
          "name": "_candidateContract",
          "type": "address"
        },
        {
          "internalType": "address",
          "name": "_account",
          "type": "address"
        }
      ],
      "name": "balanceOfOnCandidateContract",
      "outputs": [
        {
          "internalType": "uint256",
          "name": "amount",
          "type": "uint256"
        }
      ],
      "stateMutability": "view",
      "type": "function"
    },
    {
      "inputs": [],
      "name": "candidateAddOnFactory",
      "outputs": [
        {
          "internalType": "address",
          "name": "",
          "type": "address"
        }
      ],
      "stateMutability": "view",
      "type": "function"
    },
    {
      "inputs": [
        {
          "internalType": "address",
          "name": "_candidate",
          "type": "address"
        }
      ],
      "name": "candidateContract",
      "outputs": [
        {
          "internalType": "address",
          "name": "",
          "type": "address"
        }
      ],
      "stateMutability": "view",
      "type": "function"
    },
    {
      "inputs": [],
      "name": "candidateFactory",
      "outputs": [
        {
          "internalType": "contract ICandidateFactory",
          "name": "",
          "type": "address"
        }
      ],
      "stateMutability": "view",
      "type": "function"
    },
    {
      "inputs": [
        {
          "internalType": "address",
          "name": "_candidate",
          "type": "address"
        }
      ],
      "name": "candidateInfos",
      "outputs": [
        {
          "components": [
            {
              "internalType": "address",
              "name": "candidateContract",
              "type": "address"
            },
            {
              "internalType": "uint256",
              "name": "indexMembers",
              "type": "uint256"
            },
            {
              "internalType": "uint128",
              "name": "memberJoinedTime",
              "type": "uint128"
            },
            {
              "internalType": "uint128",
              "name": "rewardPeriod",
              "type": "uint128"
            },
            {
              "internalType": "uint128",
              "name": "claimedTimestamp",
              "type": "uint128"
            }
          ],
          "internalType": "struct StorageStateCommittee.CandidateInfo",
          "name": "",
          "type": "tuple"
        }
      ],
      "stateMutability": "view",
      "type": "function"
    },
    {
      "inputs": [
        {
          "internalType": "uint256",
          "name": "",
          "type": "uint256"
        }
      ],
      "name": "candidates",
      "outputs": [
        {
          "internalType": "address",
          "name": "",
          "type": "address"
        }
      ],
      "stateMutability": "view",
      "type": "function"
    },
    {
      "inputs": [],
      "name": "candidatesLength",
      "outputs": [
        {
          "internalType": "uint256",
          "name": "",
          "type": "uint256"
        }
      ],
      "stateMutability": "view",
      "type": "function"
    },
    {
      "inputs": [
        {
          "internalType": "uint256",
          "name": "_agendaID",
          "type": "uint256"
        },
        {
          "internalType": "uint256",
          "name": "_vote",
          "type": "uint256"
        },
        {
          "internalType": "string",
          "name": "_comment",
          "type": "string"
        }
      ],
      "name": "castVote",
      "outputs": [],
      "stateMutability": "nonpayable",
      "type": "function"
    },
    {
      "inputs": [
        {
          "internalType": "uint256",
          "name": "_memberIndex",
          "type": "uint256"
        }
      ],
      "name": "changeMember",
      "outputs": [
        {
          "internalType": "bool",
          "name": "",
          "type": "bool"
        }
      ],
      "stateMutability": "nonpayable",
      "type": "function"
    },
    {
      "inputs": [
        {
          "internalType": "address",
          "name": "_receiver",
          "type": "address"
        }
      ],
      "name": "claimActivityReward",
      "outputs": [],
      "stateMutability": "nonpayable",
      "type": "function"
    },
    {
      "inputs": [
        {
          "internalType": "string",
          "name": "_memo",
          "type": "string"
        },
        {
          "internalType": "address",
          "name": "_operatorAddress",
          "type": "address"
        }
      ],
      "name": "createCandidate",
      "outputs": [],
      "stateMutability": "nonpayable",
      "type": "function"
    },
    {
      "inputs": [
        {
          "internalType": "string",
          "name": "_memo",
          "type": "string"
        }
      ],
      "name": "createCandidate",
      "outputs": [],
      "stateMutability": "nonpayable",
      "type": "function"
    },
    {
      "inputs": [],
      "name": "daoVault",
      "outputs": [
        {
          "internalType": "contract IDAOVault",
          "name": "",
          "type": "address"
        }
      ],
      "stateMutability": "view",
      "type": "function"
    },
    {
      "inputs": [
        {
          "internalType": "uint256",
          "name": "_reducingMemberIndex",
          "type": "uint256"
        },
        {
          "internalType": "uint256",
          "name": "_quorum",
          "type": "uint256"
        }
      ],
      "name": "decreaseMaxMember",
      "outputs": [],
      "stateMutability": "nonpayable",
      "type": "function"
    },
    {
      "inputs": [
        {
          "internalType": "uint256",
          "name": "_agendaID",
          "type": "uint256"
        }
      ],
      "name": "endAgendaVoting",
      "outputs": [],
      "stateMutability": "nonpayable",
      "type": "function"
    },
    {
      "inputs": [
        {
          "internalType": "uint256",
          "name": "_agendaID",
          "type": "uint256"
        }
      ],
      "name": "executeAgenda",
      "outputs": [],
      "stateMutability": "nonpayable",
      "type": "function"
    },
    {
      "inputs": [
        {
          "internalType": "address",
          "name": "_candidate",
          "type": "address"
        }
      ],
      "name": "getClaimableActivityReward",
      "outputs": [
        {
          "internalType": "uint256",
          "name": "",
          "type": "uint256"
        }
      ],
      "stateMutability": "view",
      "type": "function"
    },
    {
      "inputs": [
        {
          "internalType": "address",
          "name": "_oldCandidate",
          "type": "address"
        }
      ],
      "name": "getOldCandidateInfos",
      "outputs": [
        {
          "components": [
            {
              "internalType": "address",
              "name": "candidateContract",
              "type": "address"
            },
            {
              "internalType": "address",
              "name": "newCandidate",
              "type": "address"
            },
            {
              "internalType": "uint256",
              "name": "indexMembers",
              "type": "uint256"
            },
            {
              "internalType": "uint128",
              "name": "memberJoinedTime",
              "type": "uint128"
            },
            {
              "internalType": "uint128",
              "name": "rewardPeriod",
              "type": "uint128"
            },
            {
              "internalType": "uint128",
              "name": "claimedTimestamp",
              "type": "uint128"
            }
          ],
          "internalType": "struct StorageStateCommitteeV2.CandidateInfo2",
          "name": "",
          "type": "tuple"
        }
      ],
      "stateMutability": "view",
      "type": "function"
    },
    {
      "inputs": [
        {
          "internalType": "bytes32",
          "name": "role",
          "type": "bytes32"
        }
      ],
      "name": "getRoleAdmin",
      "outputs": [
        {
          "internalType": "bytes32",
          "name": "",
          "type": "bytes32"
        }
      ],
      "stateMutability": "view",
      "type": "function"
    },
    {
      "inputs": [
        {
          "internalType": "bytes32",
          "name": "role",
          "type": "bytes32"
        },
        {
          "internalType": "uint256",
          "name": "index",
          "type": "uint256"
        }
      ],
      "name": "getRoleMember",
      "outputs": [
        {
          "internalType": "address",
          "name": "",
          "type": "address"
        }
      ],
      "stateMutability": "view",
      "type": "function"
    },
    {
      "inputs": [
        {
          "internalType": "bytes32",
          "name": "role",
          "type": "bytes32"
        }
      ],
      "name": "getRoleMemberCount",
      "outputs": [
        {
          "internalType": "uint256",
          "name": "",
          "type": "uint256"
        }
      ],
      "stateMutability": "view",
      "type": "function"
    },
    {
      "inputs": [
        {
          "internalType": "bytes32",
          "name": "role",
          "type": "bytes32"
        },
        {
          "internalType": "address",
          "name": "account",
          "type": "address"
        }
      ],
      "name": "grantRole",
      "outputs": [],
      "stateMutability": "nonpayable",
      "type": "function"
    },
    {
      "inputs": [
        {
          "internalType": "bytes32",
          "name": "role",
          "type": "bytes32"
        },
        {
          "internalType": "address",
          "name": "account",
          "type": "address"
        }
      ],
      "name": "hasRole",
      "outputs": [
        {
          "internalType": "bool",
          "name": "",
          "type": "bool"
        }
      ],
      "stateMutability": "view",
      "type": "function"
    },
    {
      "inputs": [
        {
          "internalType": "uint256",
          "name": "_newMaxMember",
          "type": "uint256"
        },
        {
          "internalType": "uint256",
          "name": "_quorum",
          "type": "uint256"
        }
      ],
      "name": "increaseMaxMember",
      "outputs": [],
      "stateMutability": "nonpayable",
      "type": "function"
    },
    {
      "inputs": [
        {
          "internalType": "address",
          "name": "_candidate",
          "type": "address"
        }
      ],
      "name": "isCandidate",
      "outputs": [
        {
          "internalType": "bool",
          "name": "",
          "type": "bool"
        }
      ],
      "stateMutability": "view",
      "type": "function"
    },
    {
      "inputs": [
        {
          "internalType": "address",
          "name": "_candidate",
          "type": "address"
        }
      ],
      "name": "isExistCandidate",
      "outputs": [
        {
          "internalType": "bool",
          "name": "isExist",
          "type": "bool"
        }
      ],
      "stateMutability": "view",
      "type": "function"
    },
    {
      "inputs": [
        {
          "internalType": "address",
          "name": "_candidate",
          "type": "address"
        }
      ],
      "name": "isMember",
      "outputs": [
        {
          "internalType": "bool",
          "name": "",
          "type": "bool"
        }
      ],
      "stateMutability": "view",
      "type": "function"
    },
    {
      "inputs": [],
      "name": "layer2Manager",
      "outputs": [
        {
          "internalType": "address",
          "name": "",
          "type": "address"
        }
      ],
      "stateMutability": "view",
      "type": "function"
    },
    {
      "inputs": [],
      "name": "layer2Registry",
      "outputs": [
        {
          "internalType": "contract ILayer2Registry",
          "name": "",
          "type": "address"
        }
      ],
      "stateMutability": "view",
      "type": "function"
    },
    {
      "inputs": [],
      "name": "maxMember",
      "outputs": [
        {
          "internalType": "uint256",
          "name": "",
          "type": "uint256"
        }
      ],
      "stateMutability": "view",
      "type": "function"
    },
    {
      "inputs": [
        {
          "internalType": "uint256",
          "name": "",
          "type": "uint256"
        }
      ],
      "name": "members",
      "outputs": [
        {
          "internalType": "address",
          "name": "",
          "type": "address"
        }
      ],
      "stateMutability": "view",
      "type": "function"
    },
    {
      "inputs": [
        {
          "internalType": "address",
          "name": "owner",
          "type": "address"
        },
        {
          "internalType": "address",
          "name": "",
          "type": "address"
        },
        {
          "internalType": "uint256",
          "name": "",
          "type": "uint256"
        },
        {
          "internalType": "bytes",
          "name": "data",
          "type": "bytes"
        }
      ],
      "name": "onApprove",
      "outputs": [
        {
          "internalType": "bool",
          "name": "",
          "type": "bool"
        }
      ],
      "stateMutability": "nonpayable",
      "type": "function"
    },
    {
      "inputs": [],
      "name": "pauseProxy",
      "outputs": [
        {
          "internalType": "bool",
          "name": "",
          "type": "bool"
        }
      ],
      "stateMutability": "view",
      "type": "function"
    },
    {
      "inputs": [],
      "name": "quorum",
      "outputs": [
        {
          "internalType": "uint256",
          "name": "",
          "type": "uint256"
        }
      ],
      "stateMutability": "view",
      "type": "function"
    },
    {
      "inputs": [
        {
          "internalType": "address",
          "name": "_layer2",
          "type": "address"
        },
        {
          "internalType": "string",
          "name": "_memo",
          "type": "string"
        }
      ],
      "name": "registerLayer2Candidate",
      "outputs": [],
      "stateMutability": "nonpayable",
      "type": "function"
    },
    {
      "inputs": [
        {
          "internalType": "address",
          "name": "_operator",
          "type": "address"
        },
        {
          "internalType": "address",
          "name": "_layer2",
          "type": "address"
        },
        {
          "internalType": "string",
          "name": "_memo",
          "type": "string"
        }
      ],
      "name": "registerLayer2CandidateByOwner",
      "outputs": [],
      "stateMutability": "nonpayable",
      "type": "function"
    },
    {
      "inputs": [
        {
          "internalType": "bytes32",
          "name": "role",
          "type": "bytes32"
        },
        {
          "internalType": "address",
          "name": "account",
          "type": "address"
        }
      ],
      "name": "renounceRole",
      "outputs": [],
      "stateMutability": "nonpayable",
      "type": "function"
    },
    {
      "inputs": [],
      "name": "retireMember",
      "outputs": [
        {
          "internalType": "bool",
          "name": "",
          "type": "bool"
        }
      ],
      "stateMutability": "nonpayable",
      "type": "function"
    },
    {
      "inputs": [
        {
          "internalType": "bytes32",
          "name": "role",
          "type": "bytes32"
        },
        {
          "internalType": "address",
          "name": "account",
          "type": "address"
        }
      ],
      "name": "revokeRole",
      "outputs": [],
      "stateMutability": "nonpayable",
      "type": "function"
    },
    {
      "inputs": [],
      "name": "seigManager",
      "outputs": [
        {
          "internalType": "contract ISeigManager",
          "name": "",
          "type": "address"
        }
      ],
      "stateMutability": "view",
      "type": "function"
    },
    {
      "inputs": [
        {
          "internalType": "uint256",
          "name": "_agendaID",
          "type": "uint256"
        },
        {
          "internalType": "uint256",
          "name": "_status",
          "type": "uint256"
        },
        {
          "internalType": "uint256",
          "name": "_result",
          "type": "uint256"
        }
      ],
      "name": "setAgendaStatus",
      "outputs": [],
      "stateMutability": "nonpayable",
      "type": "function"
    },
    {
      "inputs": [
        {
          "internalType": "address",
          "name": "_candidate",
          "type": "address"
        },
        {
          "internalType": "string",
          "name": "_memo",
          "type": "string"
        }
      ],
      "name": "setMemoOnCandidate",
      "outputs": [],
      "stateMutability": "nonpayable",
      "type": "function"
    },
    {
      "inputs": [
        {
          "internalType": "address",
          "name": "_candidateContract",
          "type": "address"
        },
        {
          "internalType": "string",
          "name": "_memo",
          "type": "string"
        }
      ],
      "name": "setMemoOnCandidateContract",
      "outputs": [],
      "stateMutability": "nonpayable",
      "type": "function"
    },
    {
      "inputs": [
        {
          "internalType": "uint256",
          "name": "_quorum",
          "type": "uint256"
        }
      ],
      "name": "setQuorum",
      "outputs": [],
      "stateMutability": "nonpayable",
      "type": "function"
    },
    {
      "inputs": [
        {
          "internalType": "bytes4",
          "name": "interfaceId",
          "type": "bytes4"
        }
      ],
      "name": "supportsInterface",
      "outputs": [
        {
          "internalType": "bool",
          "name": "",
          "type": "bool"
        }
      ],
      "stateMutability": "view",
      "type": "function"
    },
    {
      "inputs": [],
      "name": "ton",
      "outputs": [
        {
          "internalType": "address",
          "name": "",
          "type": "address"
        }
      ],
      "stateMutability": "view",
      "type": "function"
    },
    {
      "inputs": [
        {
          "internalType": "address",
          "name": "_candidate",
          "type": "address"
        }
      ],
      "name": "totalSupplyOnCandidate",
      "outputs": [
        {
          "internalType": "uint256",
          "name": "totalsupply",
          "type": "uint256"
        }
      ],
      "stateMutability": "view",
      "type": "function"
    },
    {
      "inputs": [
        {
          "internalType": "address",
          "name": "_candidateContract",
          "type": "address"
        }
      ],
      "name": "totalSupplyOnCandidateContract",
      "outputs": [
        {
          "internalType": "uint256",
          "name": "totalsupply",
          "type": "uint256"
        }
      ],
      "stateMutability": "view",
      "type": "function"
    },
    {
      "inputs": [
        {
          "internalType": "address",
          "name": "_candidate",
          "type": "address"
        }
      ],
      "name": "updateSeigniorage",
      "outputs": [
        {
          "internalType": "bool",
          "name": "",
          "type": "bool"
        }
      ],
      "stateMutability": "nonpayable",
      "type": "function"
    },
    {
      "inputs": [
        {
          "internalType": "address[]",
          "name": "_candidates",
          "type": "address[]"
        }
      ],
      "name": "updateSeigniorages",
      "outputs": [
        {
          "internalType": "bool",
          "name": "",
          "type": "bool"
        }
      ],
      "stateMutability": "nonpayable",
      "type": "function"
    },
    {
      "inputs": [],
      "name": "wton",
      "outputs": [
        {
          "internalType": "address",
          "name": "",
          "type": "address"
        }
      ],
      "stateMutability": "view",
      "type": "function"
    }
  ],
  "bytecode": "0x60808060405234610052576301ffc9a760e01b600052600d6020527f49c01d976ca1c616ed1de1469e98d664903a805642011c315785aa325a483c71805460ff1916600117905561526f90816100588239f35b600080fdfe6080604052600436101561001257600080fd5b60003560e01c806301ffc9a71461039757806303e3c9ac146103925780630ebe021a1461038d57806311f19e041461038857806314d3535e1461038357806316b5d5bd1461037e57806316f7f982146103795780631703a01814610374578063216f486b1461036f578063248a9ca31461036a57806324f99b1e1461036557806327fd92fd146103605780632e011c1e1461035b5780632f2ff15d1461035657806332a45ef6146103515780633477ee2e1461034c57806336568abe146103475780634273ca1614610342578063440b69ad1461033d57806350e8f17d14610338578063561a1dab1461033357806357f0a8671461032e5780635903bd6c146103295780635daf08ca146103245780635fba7a561461031f578063607cf7341461031a57806363a8fd8914610315578063651d08cd146103105780636becff271461030b5780636da8f3ce146103065780636fb7f5581461030157806375362819146102fc578063773b7f65146102f757806378767d33146102f25780637f331636146102ed578063805aca20146102e8578063885b4696146102e357806389ea4300146102de5780638d62d949146102d95780639010d07c146102d457806391d14854146102cf5780639932e94c146102ca578063a1ea3525146102c5578063a217fddf146102c0578063a230c524146102bb578063ad6675dc146102b6578063b5dd1158146102b1578063c1ba4e59146102ac578063c4ef9c00146102a7578063c7cac42c146102a2578063ca15c8731461029d578063cc48b94714610298578063cf2a239c14610293578063d51b9e931461028e578063d525f04f146102895763d547741f1461028457600080fd5b612ed2565b612e96565b612e6f565b612e46565b612e1d565b612df1565b612dbe565b612cdc565b612bef565b612bc6565b612b85565b612b3a565b612b1e565b6128e2565b6128bb565b61286c565b6127c5565b61279c565b612775565b612711565b6125ee565b6125d0565b6125a9565b61258b565b612562565b612539565b612455565b6122a5565b612253565b61222d565b612216565b611fb1565b611f56565b611f2d565b611ec2565b611e80565b611c8b565b6119ef565b61166c565b6115d4565b611579565b6110ff565b61103f565b610f40565b610f17565b610a6e565b610a12565b61064f565b610631565b610610565b6105bf565b610486565b610440565b610407565b6103e9565b346103d95760203660031901126103d95760043563ffffffff60e01b81168091036103d957600052600d602052602060ff604060002054166040519015158152f35b600080fd5b60009103126103d957565b346103d95760003660031901126103d9576020600854604051908152f35b346103d95760203660031901126103d957633b9aca0060043581810291811591830414171561043b57602090604051908152f35b6130aa565b346103d95760203660031901126103d957602061046b60043561046660085482106137cf565b613983565b6040519015158152f35b6001600160a01b038116036103d957565b346103d95760203660031901126103d9576105bb6004356104a681610475565b604061056161055160048360a081516104be816118c1565b60009181838093528260208201528285820152826060820152826080820152015260018060a01b038097168152600f6020522061051c855196610500886118c1565b8254811688526001830154166001600160a01b03166020880152565b60028101548587015260038101546001600160801b0381166060880152608090811c908701525b01546001600160801b031690565b6001600160801b031660a0840152565b519182918291909160a060c0820193600180831b03808251168452602082015116602084015260408101516040840152816001600160801b0391826060820151166060860152826080820151166080860152015116910152565b0390f35b346103d95760003660031901126103d9576011546040516001600160a01b039091168152602090f35b60409060031901126103d95760043561060081610475565b9060243561060d81610475565b90565b346103d9576020610629610623366105e8565b90614ff2565b604051908152f35b346103d95760003660031901126103d9576020600a54604051908152f35b346103d9576020806003193601126103d95760025460048035916001600160a01b03169061067e821515614135565b60409283516377f28d5b60e01b81528581806106a1858783019190602083019252565b0381875afa8015610805576106be916000916109e5575b50614284565b6000845180946373ba374560e01b825281806106e1868883019190602083019252565b03915afa918215610805576000928394849085926109b7575b501561080a575060025461071e906001600160a01b03165b6001600160a01b031690565b803b156103d9578551631b8c251960e11b8152918201838152600091839182908490829060200103925af18015610805576107ec575b5060005b82518110156107b257806107a86000806107856107786107ad9689613fba565b516001600160a01b031690565b61078f858a613fba565b5190828c83519301915af16107a261448a565b506144ba565b613fab565b610758565b5093506107e791507f785146be3266678a3f4ea454b310ff1f8c91d0ad9a7997bcd0619940d4d67fe6925b5191829182614556565b0390a2005b806107f96107ff926118e1565b806103de565b38610754565b61330f565b949193955060009480955b84518710156109aa5761084b61082e6107788988613fba565b610838898b613fba565b51516108448a8c613fba565b5191614d8d565b156108685761085c610862916130dc565b96613fab565b95610815565b91939550919395505b600254610886906001600160a01b0316610712565b91823b156103d9578451632833207960e21b815284810188815260208101849052909360009185919082908490829060400103925af1928315610805576108d293610997575b506130ea565b835114610906575b507f785146be3266678a3f4ea454b310ff1f8c91d0ad9a7997bcd0619940d4d67fe6916107e7916107dd565b60025490929061091e906001600160a01b0316610712565b803b156103d9578251631b8c251960e11b8152938401858152600091859182908490829060200103925af1918215610805577f785146be3266678a3f4ea454b310ff1f8c91d0ad9a7997bcd0619940d4d67fe6936107e793610984575b509150916108da565b806107f9610991926118e1565b3861097b565b806107f96109a4926118e1565b386108cc565b9193955091939550610871565b92949150506109d99294503d8091833e6109d18183611945565b8101906143d6565b909492939194386106fa565b610a059150873d8911610a0b575b6109fd8183611945565b8101906133fa565b386106b8565b503d6109f3565b346103d95760203660031901126103d957600435600052600c6020526020600260406000200154604051908152f35b9181601f840112156103d9578235916001600160401b0383116103d957602083818601950101116103d957565b346103d95760603660031901126103d9576004803590602435906044356001600160401b0381116103d957610aa69036908301610a41565b9060018060a01b03600281815416610abf811515614135565b6040928351630d90703f60e31b815260209283828a81335afa908115610805578a938593600093610ee4575b506001600160a01b0383166000908152600960205260409020610b23913391610b1c905b546001600160a01b031690565b161461388b565b8651637e77eb2360e01b8152808b018d81526001600160a01b039093166020840152604083019490945283918290600090829060600103925af1801561080557610ec6575b50508054610b7e906001600160a01b0316610712565b908251635772521560e11b815260608180610ba08c8b83019190602083019252565b0381865afa9081156108055760009182918391610e95575b50600a54928311610cc15750508154919250610bde916001600160a01b03169050610712565b90813b156103d9578251632b0a851b60e11b815286810189815260016020820152909260009184919082908490829060400103925af190811561080557610c369261071292610cae575b50546001600160a01b031690565b803b156103d9578151633625b75960e21b815294850187815260036020820152600091869182908490829060400103925af19081156108055760008051602061520383398151915294610c9692610c9b575b505b5192839233968461426d565b0390a3005b806107f9610ca8926118e1565b38610c88565b806107f9610cbb926118e1565b38610c28565b818311610da55750508154919250610ce3916001600160a01b03169050610712565b90813b156103d9578251632b0a851b60e11b815286810189815260026020820152909260009184919082908490829060400103925af190811561080557610d3a9261071292610cae5750546001600160a01b031690565b803b156103d9578151633625b75960e21b815294850187815260056020820152600091869182908490829060400103925af19081156108055760008051602061520383398151915294610c9692610d92575b50610c8a565b806107f9610d9f926118e1565b38610d8c565b90610daf916130ea565b1015610dd2575b50506000805160206152038339815191529350610c9690610c8a565b813b156103d9578251632b0a851b60e11b815286810189815260036020820152909260009184919082908490829060400103925af190811561080557610e289261071292610cae5750546001600160a01b031690565b803b156103d9578151633625b75960e21b815294850187815260056020820152600091869182908490829060400103925af19081156108055760008051602061520383398151915294610c9692610e82575b819250610db6565b806107f9610e8f926118e1565b38610e7a565b915050610eb9915060603d8111610ebf575b610eb18183611945565b8101906141f1565b38610bb8565b503d610ea7565b81610edc92903d10610a0b576109fd8183611945565b503880610b68565b610b23919350610f0990853d8711610f10575b610f018183611945565b81019061329b565b9290610aeb565b503d610ef7565b346103d95760003660031901126103d9576002546040516001600160a01b039091168152602090f35b346103d95760203660031901126103d9576105bb600435610f6081610475565b6040610ff0610fe060038360808151610f78816118f4565b60009181838093528260208201528285820152826060820152015260018060a01b038097168152600960205220845195610fb1876118f4565b81541686526001810154602087015260028101546001600160801b0381168688015260801c6060870152610543565b6001600160801b03166080840152565b5191829182919091608060a082019360018060a01b03815116835260208101516020840152816001600160801b0391826040820151166040860152826060820151166060860152015116910152565b346103d95760403660031901126103d95760243560043561105f82610475565b600091818352600c60205260026040842001548352611091336040852060019160005201602052604060002054151590565b156110a25761109f91612f90565b80f35b60405162461bcd60e51b815260206004820152602f60248201527f416363657373436f6e74726f6c3a2073656e646572206d75737420626520616e60448201526e0818591b5a5b881d1bc819dc985b9d608a1b6064820152608490fd5b346103d9576040806003193601126103d95760049081356001600160401b0381116103d9576111319036908401610a41565b6024359061113e82610475565b6005546001600160a01b03908116949091839161115c8715156135dc565b61116a84895416151561363c565b83600354169761117b89151561369e565b6000988980526020968791600c83526111af6111aa8d8733912060019160005201602052604060002054151590565b6131e0565b858c8b6111d288519e8f968795869463732518fb60e11b865230928c87016132d1565b03925af19788156108055789986114e6575b5090856114189392868a16996111fb8b151561331b565b6001600160a01b03871660009081526009602052604090206112209061071290610b0f565b1561148a5761125061124a610712610b0f8a60018060a01b0316600052600f602052604060002090565b15613704565b6001600160a01b03871660009081526009602052604090206113889061127590610b0f565b61136b61129960026105438c60018060a01b03166000526009602052604060002090565b61135b8b61134b60016112be8360018060a01b03166000526009602052604060002090565b01549361130e60036105436112f260026112ea8860018060a01b03166000526009602052604060002090565b015460801c90565b6001600160a01b03909616600090815260096020526040902090565b9461132961131a611975565b6001600160a01b039099168952565b6001600160a01b038a16888d0152878d01526001600160801b03166060870152565b6001600160801b03166080850152565b6001600160801b031660a0830152565b6001600160a01b0389166000908152600f60205260409020613743565b6001600160a01b03878116600090815260096020526040902080546001600160a01b0319169183169190911790555b81546113cb906001600160a01b0316610712565b6005549091908d906113e5906001600160a01b0316610712565b8651635e58d38f60e11b81526001600160a01b039384169581019586529216602085015290968793849291839160400190565b03925af1958615610805577f7cf8db18d9a5c7f44156bfabdbb59ac982a8a004e461ca1b87ee71a5cdfbc5ef966114679461145b928c9261146d575b505061340f565b519384931695836135cb565b0390a380f35b6114839250803d10610a0b576109fd8183611945565b3880611454565b6114d8611495611966565b6001600160a01b03831681528d858201528d868201528d60608201528d60808201526114d38960018060a01b03166000526009602052604060002090565b61348f565b6114e18761350f565b6113b7565b61141893929198506115058791823d8411610f1057610f018183611945565b98919293506111e4565b634e487b7160e01b600052603260045260246000fd5b60075481101561155c5760076000527fa66cc928b5edb82af9bd49922954155ab7b0942694bea4ce44661d9a8736c6880190600090565b61150f565b805482101561155c5760005260206000200190600090565b346103d95760203660031901126103d9576004356006548110156103d95760066000527ff652222313e28459528d920b65115c16c04f3efc82aaedc97be59f3f377c0d3f01546040516001600160a01b039091168152602090f35b346103d95760403660031901126103d9576024356115f181610475565b336001600160a01b0382160361160f5761160d90600435612fe6565b005b60405162461bcd60e51b815260206004820152602f60248201527f416363657373436f6e74726f6c3a2063616e206f6e6c792072656e6f756e636560448201526e103937b632b9903337b91039b2b63360891b6064820152608490fd5b346103d9576080806003193601126103d957600480359061168c82610475565b611697602435610475565b606435926001600160401b0384116103d9576116b96116d79436908401610a41565b6000546001600160a01b031695916116d2338814613f6b565b61489a565b91600094600180966116f5610712610712845460018060a01b031690565b915b611751575b611744878787815161171860208401516001600160801b031690565b9061172d60408501516001600160801b031690565b9261173b6060860151151590565b940151946149ca565b5060405160018152602090f35b855180518210156118a55761176d610712610778848694613fba565b14611782575b61177c90613fab565b876116f7565b611793818688979699980151613fba565b5161179d8161510c565b6117ae6117a8613fce565b826151a3565b156117f8576117f48960405191829162461bcd60e51b83528201606090602081526011602082015270636c61696d544f4e20646f6e742075736560781b60408201520190565b0390fd5b6118086117a89996979899613fee565b1561184357509061183c61183761183361177c9461182e6118288961407a565b91615157565b6151a3565b1590565b61402e565b9050611773565b611856915061185061400e565b906151a3565b6118635761177c9061183c565b6117f48460405191829162461bcd60e51b83528201606090602081526012602082015271636c61696d57544f4e20646f6e742075736560701b60408201520190565b506116fc565b634e487b7160e01b600052604160045260246000fd5b60c081019081106001600160401b038211176118dc57604052565b6118ab565b6001600160401b0381116118dc57604052565b60a081019081106001600160401b038211176118dc57604052565b604081019081106001600160401b038211176118dc57604052565b606081019081106001600160401b038211176118dc57604052565b90601f801991011681019081106001600160401b038211176118dc57604052565b60405190611973826118f4565b565b60405190611973826118c1565b6001600160401b0381116118dc57601f01601f191660200190565b9291926119a982611982565b916119b76040519384611945565b8294818452818301116103d9578281602093846000960137010152565b9080601f830112156103d95781602061060d9335910161199d565b346103d95760603660031901126103d95760048035611a0d81610475565b60243591611a1a83610475565b6044356001600160401b0381116103d957611a3890369083016119d4565b336000908152600080516020615223833981519152602090815260408083205492969195939192611a6a9015156131e0565b6005546001600160a01b0390811695909490611a878715156135dc565b611a9586825416151561363c565b856003541696611aa688151561369e565b6001600160a01b03868116600090815260096020526040902054611acb91161561323d565b86861697611ada89151561331b565b611b05611aff610712610b0f8a60018060a01b03166000526009602052604060002090565b15613380565b845163220bbb4b60e21b81528a8185818d5afa801561080557611b2f918d91611c6e575b506146dd565b845163570ca73560e01b8152928a8482818d5afa94851561080557611b86958a611b68928f978f9893611c4d575b508116911614614737565b8b865180968195829463732518fb60e11b84528b8d309286016147a8565b03925af193841561080557611c1f611467958a7f0f401d1bd976f5304ef9cfa87aeb24d777c0e205fb87bbae1dc0f0293ba7976a98611c24958293611c2e575b5082169a611bd58c151561331b565b611bef611be0611966565b6001600160a01b039094168452565b8201528a858201528a60608201528a60808201526114d38360018060a01b03166000526009602052604060002090565b61350f565b51918291826147d8565b611c469193508c8d3d10610f1057610f018183611945565b9138611bc6565b82919350611c6790893d8b11610f1057610f018183611945565b9290611b5d565b611c8591508c8d3d10610a0b576109fd8183611945565b38611b29565b346103d95760403660031901126103d9573360009081526000805160206152238339815191526020526040812054819060043590611cca9015156131e0565b611cd760085482106137cf565b600080516020615243833981519152611de7611d0a611cf584611525565b905460039190911b1c6001600160a01b031690565b6001600160a01b0381166000908152600960205260409020611da790600290600754611d35816130c0565b8803611e1d575b5087600182015501611d97611d77611d6b8354611d626001600160801b038216426130cf565b9060801c6130ea565b6001600160801b031690565b82546001600160801b031660809190911b6001600160801b031916178255565b80546001600160801b0319169055565b611daf613f12565b611dc2611dbd6008546130c0565b600855565b611dcd6024356140a3565b6040516001600160a01b0390911681529081906020820190565b0390a3600854611df6816130dc565b7f8c0366d1e3a335a312d012257ee764723c38ec2dd5e74cbfad372513521f97718380a380f35b611e34611cf5611e2f611e7a936130c0565b611525565b6001600160a01b0381166000908152600960205260409020899060010155611e5b89611525565b90919082549060031b9160018060a01b03809116831b921b1916179055565b38611d3c565b346103d95760203660031901126103d957602061046b600435611ea281610475565b6001600160a01b0390811660009081526009602052604090205416151590565b346103d95760203660031901126103d9576001600160401b036004358181116103d957366023820112156103d95780600401359182116103d9573660248360051b830101116103d9576105bb916024611f1b92016145c1565b60405190151581529081906020820190565b346103d95760003660031901126103d9576001546040516001600160a01b039091168152602090f35b346103d95760203660031901126103d9576004356007548110156103d95760076000527fa66cc928b5edb82af9bd49922954155ab7b0942694bea4ce44661d9a8736c68801546040516001600160a01b039091168152602090f35b346103d9576020806003193601126103d9576004356001600160401b0381116103d957611fe2903690600401610a41565b33600090815260096020526040902054909190612008906001600160a01b03161561323d565b60035461205990612021906001600160a01b0316610712565b600554909490819061203b906001600160a01b0316610712565b6040518094819263732518fb60e11b835230898933600487016132d1565b0381600080995af19182156108055785926121bb575b506001600160a01b0382169361208685151561331b565b3360009081526009602052604090206120a690611aff9061071290610b0f565b6004548690839061210c906120c3906001600160a01b0316610712565b6005546120d8906001600160a01b0316610712565b604051635e58d38f60e11b81526001600160a01b03808a166004830152909116602482015293849283919082906044820190565b03925af19384156108055787611467946121527f7cf8db18d9a5c7f44156bfabdbb59ac982a8a004e461ca1b87ee71a5cdfbc5ef9761218795849161219e575b5061340f565b61215d611be0611966565b8201526040808201899052606082018990526080820189905233600090815260096020522061348f565b6121903361350f565b6040519182913395836135cb565b6121b59150833d8511610a0b576109fd8183611945565b3861214c565b816121d39293503d8411610f1057610f018183611945565b903861206f565b9060406003198301126103d9576004356121f381610475565b91602435906001600160401b0382116103d95761221291600401610a41565b9091565b346103d95761160d612227366121da565b91613d94565b346103d95760003660031901126103d957602060ff600e5460a01c166040519015158152f35b346103d95760203660031901126103d957602061229360043561227581610475565b6001600160a01b039081166000908152600960205260409020541690565b6040516001600160a01b039091168152f35b346103d95760203660031901126103d9576004356122c281610475565b604051630d90703f60e31b8152602081600481335afa90811561080557600091612437575b506001600160a01b0381166000908152600960205260409020805490916001600160a01b039161231c90339084908116610b1c565b6123386123288261503c565b612333811515614651565b6146b1565b600154909390612350906001600160a01b0316610712565b6010546001600160a01b03169490803b156103d957604051637c24048d60e11b81526001600160a01b0396871660048201529587166024870152604486018290526000908690606490829084905af19485156108055760026107e7936123fe927fb15377c434dc1922cc2eb7d8950640960a05f0cf6d5dc9442de8414a9da2b30898612424575b506123ee6001600160801b03421660038301613474565b016001600160801b038154169055565b604080516001600160a01b03909716875260208701919091529190921693918291820190565b806107f9612431926118e1565b386123d7565b61244f915060203d8111610f1057610f018183611945565b386122e7565b346103d95760403660031901126103d9573360009081526000805160206152238339815191526020526040812054600435906124929015156131e0565b6008908154818110156124ce578183556007545b83548110156124c0576124bb906107a8613576565b6124a6565b848383611df66024356140a3565b60405162461bcd60e51b815260206004820152603c60248201527f44414f436f6d6d69747465653a20596f75206861766520746f2063616c6c206460448201527f656372656173654d61784d656d62657220746f206465637265617365000000006064820152608490fd5b346103d95760003660031901126103d9576005546040516001600160a01b039091168152602090f35b346103d95760003660031901126103d9576012546040516001600160a01b039091168152602090f35b346103d95760003660031901126103d9576020600654604051908152f35b346103d95760203660031901126103d95760206106296004356125cb81610475565b614f9a565b346103d95760003660031901126103d9576020600b54604051908152f35b346103d95760603660031901126103d957336000908152600080516020615223833981519152602052604081205460043590829060243590604435906126359015156131e0565b60025461264a906001600160a01b0316610712565b9061265481614222565b813b1561270d57839161267e91604051958680948193632b0a851b60e11b83528a60048401614231565b03925af19182156108055784926126fa575b506002546126a6906001600160a01b0316610712565b6126af8261424a565b803b156126f6576126d79383604051809681958294633625b75960e21b845260048401614254565b03925af18015610805576126e9575080f35b806107f961109f926118e1565b8280fd5b806107f9612707926118e1565b38612690565b8380fd5b346103d957600060203660031901126127725760025481906001600160a01b0316803b1561276f57819060246040518094819363442da34b60e11b835260043560048401525af1801561080557612766575080f35b61109f906118e1565b50fd5b80fd5b346103d95760203660031901126103d957602061046b60043561279781610475565b614567565b346103d95760003660031901126103d9576010546040516001600160a01b039091168152602090f35b346103d95760403660031901126103d957602435600435600052600c602052604060002090808254111561281c576127fc91611561565b905460405160039290921b1c6001600160a01b0316815280602081010390f35b60405162461bcd60e51b815260206004820152602260248201527f456e756d657261626c655365743a20696e646578206f7574206f6620626f756e604482015261647360f01b6064820152608490fd5b346103d95760403660031901126103d957602061046b60243561288e81610475565b6004356000908152600c845260408082206001600160a01b03909316825260019092016020522054151590565b346103d95760203660031901126103d95760206106296004356128dd81610475565b61503c565b346103d9576040806003193601126103d9576004803561290181610475565b6024356001600160401b0381116103d95761291f90369084016119d4565b6005546001600160a01b03908116949092919061293d8615156135dc565b61294b84865416151561363c565b83600354169361295c85151561369e565b6001600160a01b0384811660009081526009602052604090205461298191161561323d565b8084169561299087151561331b565b6129b5611aff610712610b0f8860018060a01b03166000526009602052604060002090565b825163220bbb4b60e21b815260209890898184818c5afa8015610805576129e391600091612b0757506146dd565b835163570ca73560e01b815296898884818c5afa92831561080557612a198b94612a389a600091612aea575b5086163314614737565b60008651809a8195829463732518fb60e11b84528b8d309286016147a8565b03925af193841561080557611c1f610c9695611c24937f0f401d1bd976f5304ef9cfa87aeb24d777c0e205fb87bbae1dc0f0293ba7976a98600092612ac8575b5060009082169a612a8a8c151561331b565b612a95611be0611966565b820152600085820181905260608201819052608082018190526001600160a01b038416815260096020526040902061348f565b6000919250612ae3908c8d3d10610f1057610f018183611945565b9190612a78565b612b019150863d8811610f1057610f018183611945565b38612a0f565b611c8591508b3d8d11610a0b576109fd8183611945565b346103d95760003660031901126103d957602060405160008152f35b346103d95760203660031901126103d957602061046b600435612b5c81610475565b6001600160a01b03166000908152600960205260409020600201546001600160801b0316151590565b346103d95760203660031901126103d9576020610629600435612ba781610475565b6001600160a01b03908116600090815260098452604090205416614f9a565b346103d95760003660031901126103d9576003546040516001600160a01b039091168152602090f35b346103d95760203660031901126103d957336000908152600080516020615223833981519152602052604090205460043590612c2c9015156131e0565b600254612c43906001600160a01b03161515614135565b600854908160011c811115612c9757612c61612c6692821115614196565b600a55565b600a546040519081527f027863d12a407097e086a48e36475bfc859d0b200b7e6f65b5fd3b218e46632e90602090a1005b60405162461bcd60e51b815260206004820152601c60248201527f44414f436f6d6d69747465653a20696e76616c69642071756f72756d000000006044820152606490fd5b346103d95760003660031901126103d957604051630d90703f60e31b8152602081600481335afa801561080557612d3f91600091612da0575b506001600160a01b03166000908152600960205260409020600201546001600160801b0316151590565b15612d4f576105bb611f1b613c12565b60405162461bcd60e51b815260206004820152602360248201527f53746f726167655374617465436f6d6d69747465653a206e6f742061206d656d6044820152623132b960e91b6064820152608490fd5b612db8915060203d8111610f1057610f018183611945565b38612d15565b346103d95761160d612dcf366121da565b6001600160a01b03928316600090815260096020526040902054909216613d94565b346103d95760203660031901126103d957600435600052600c6020526020604060002054604051908152f35b346103d95760003660031901126103d9576000546040516001600160a01b039091168152602090f35b346103d95760003660031901126103d9576004546040516001600160a01b039091168152602090f35b346103d95760203660031901126103d957602061046b600435612e9181610475565b614da3565b346103d9576020610629612ecd612eac366105e8565b6001600160a01b039182166000908152600960205260409020549092911690565b614ff2565b346103d95760403660031901126103d957602435600435612ef282610475565b600091818352600c60205260026040842001548352612f24336040852060019160005201602052604060002054151590565b15612f325761109f91612fe6565b60405162461bcd60e51b815260206004820152603060248201527f416363657373436f6e74726f6c3a2073656e646572206d75737420626520616e60448201526f2061646d696e20746f207265766f6b6560801b6064820152608490fd5b6000818152600c6020526040902090916001600160a01b031690612fb590829061303c565b612fbd575050565b33917f2f8788117e7eff1d82e926ec794901d17c78024a50270940304540a733656f0d600080a4565b6000818152600c6020526040902090916001600160a01b03169061300b90829061313c565b613013575050565b33917ff6391f5c32d9c69d2a47ea670b442974b53935d1edc7fd64eb21e047a839171b600080a4565b60008281526001820160205260409020546130a357805490600160401b8210156118dc578261308c613075846001809601855584611561565b819391549060031b91821b91600019901b19161790565b905580549260005201602052604060002055600190565b5050600090565b634e487b7160e01b600052601160045260246000fd5b60001981019190821161043b57565b9190820391821161043b57565b906001820180921161043b57565b9190820180921161043b57565b634e487b7160e01b600052603160045260246000fd5b805490811561313757600019918201916131278383611561565b909182549160031b1b1916905555565b6130f7565b9060018201908060005281602052604060002054918215156000146131d75760001983810193841161043b57845490810190811161043b57846131d1946131bc6131ab61318e6131c29560009a611561565b90549060031b1c92836131a46130758388611561565b90556130dc565b918590600052602052604060002090565b5561310d565b90600052602052604060002090565b55600190565b50505050600090565b156131e757565b60405162461bcd60e51b815260206004820152602860248201527f44414f436f6d6d69747465653a206d73672e73656e646572206973206e6f742060448201526730b71030b236b4b760c11b6064820152608490fd5b1561324457565b60405162461bcd60e51b815260206004820152602960248201527f44414f436f6d6d69747465653a2063616e64696461746520616c7265616479206044820152681c9959da5cdd195c9960ba1b6064820152608490fd5b908160209103126103d9575161060d81610475565b908060209392818452848401376000828201840152601f01601f1916010190565b939594906133026080949360018060a01b03948580941688526000602089015260a0604089015260a08801916132b0565b9616606085015216910152565b6040513d6000823e3d90fd5b1561332257565b60405162461bcd60e51b815260206004820152603060248201527f44414f436f6d6d69747465653a206465706c6f7965642063616e64696461746560448201526f436f6e7472616374206973207a65726f60801b6064820152608490fd5b1561338757565b60405162461bcd60e51b815260206004820152603060248201527f44414f436f6d6d69747465653a205468652063616e64696461746520616c726560448201526f18591e481a185cc818dbdb9d1c9858dd60821b6064820152608490fd5b801515036103d957565b5190611973826133e5565b908160209103126103d9575161060d816133e5565b1561341657565b60405162461bcd60e51b815260206004820152603060248201527f44414f436f6d6d69747465653a206661696c656420746f20726567697374657260448201526f416e644465706c6f79436f696e61676560801b6064820152608490fd5b906001600160801b03166001600160801b0319825416179055565b815181546001600160a01b0319166001600160a01b03919091161781556119739160039060208101516001840155608060028401916135056001600160801b03936134e08560408501511682613474565b606083015181546001600160801b031690861660801b6001600160801b031916179055565b0151169101613474565b60065490600160401b8210156118dc57600182018060065582101561155c5760066000527ff652222313e28459528d920b65115c16c04f3efc82aaedc97be59f3f377c0d3f90910180546001600160a01b0319166001600160a01b03909216919091179055565b600754600160401b8110156118dc57600181018060075581101561155c5760076000527fa66cc928b5edb82af9bd49922954155ab7b0942694bea4ce44661d9a8736c6880180546001600160a01b0319169055565b91602061060d9381815201916132b0565b156135e357565b60405162461bcd60e51b815260206004820152602b60248201527f53746f726167655374617465436f6d6d69747465653a20696e76616c6964205360448201526a6569674d616e616765726560a81b6064820152608490fd5b1561364357565b60405162461bcd60e51b815260206004820152602d60248201527f53746f726167655374617465436f6d6d69747465653a20696e76616c6964204c60448201526c6179657232526567697374727960981b6064820152608490fd5b156136a557565b60405162461bcd60e51b815260206004820152603160248201527f53746f726167655374617465436f6d6d69747465653a20696e76616c696420436044820152706f6d6d69747465654c32466163746f727960781b6064820152608490fd5b1561370b57565b60405162461bcd60e51b815260206004820152601060248201526f185b1c9958591e481b5a59dc985d195960821b6044820152606490fd5b815181546001600160a01b039182166001600160a01b03199182161783556020840151600184018054919093169116179055611973916004906040810151600284015560a060038401916135056001600160801b03936137a98560608501511682613474565b60808381015182546001600160801b031690871690911b6001600160801b031916179055565b156137d657565b60405162461bcd60e51b815260206004820152602260248201527f44414f436f6d6d69747465653a20696e76616c6964206d656d62657220696e646044820152610caf60f31b6064820152608490fd5b1561382d57565b60405162461bcd60e51b815260206004820152603060248201527f44414f436f6d6d69747465653a2073656e646572206973206e6f74206120636160448201526f1b991a59185d194818dbdb9d1c9858dd60821b6064820152608490fd5b1561389257565b60405162461bcd60e51b815260206004820152602860248201527f44414f436f6d6d69747465653a20696e76616c69642063616e6469646174652060448201526718dbdb9d1c9858dd60c21b6064820152608490fd5b156138ef57565b60405162461bcd60e51b815260206004820152601c60248201527f44414f436f6d6d69747465653a20616c7265616479206d656d626572000000006044820152606490fd5b908160209103126103d9575190565b1561394a57565b60405162461bcd60e51b81526020600482015260116024820152701b9bdd08195b9bdd59da08185b5bdd5b9d607a1b6044820152606490fd5b60408051630d90703f60e31b815291906020908184600481335afa93841561080557600094613bf3575b506001600160a01b0384166000908152600960205260409020938151631dffc87160e21b81528381600481335afa8015610805576139f391600091613bd6575b50613826565b84546001600160a01b039290613a0e90339085908116610b1c565b60028601906001600160801b03613a3781613a3085546001600160801b031690565b16156138e8565b866001613a46611cf583611525565b99613a73613a69610b0f8d60018060a01b03166000526009602052604060002090565b9685421690613474565b0155613a8284611e5b89611525565b84881615613ba95781516340bd8e6960e11b80825291908781600481335afa9485156108055787938992600097613b87575b50600490865195869384928352165afa9687156108055760008051602061524383398151915297613b5095613b3594613af793600093613b58575b505011613943565b611d97611d77611d6b6002613b1e8d60018060a01b03166000526009602052604060002090565b600060018201550193611d628554918216426130cf565b516001600160a01b0390961686529116939081906020820190565b0390a3600190565b613b78929350803d10613b80575b613b708183611945565b810190613934565b903880613aef565b503d613b66565b6004919750613ba290843d8611613b8057613b708183611945565b9690613ab4565b50516001600160a01b03909616865250169260008051602061524383398151915291508060208101613b50565b613bed9150853d8711610a0b576109fd8183611945565b386139ed565b613c0b919450823d8411610f1057610f018183611945565b92386139ad565b604051630d90703f60e31b8152602081600481335afa8015610805576000918291613ce2575b506001600160a01b0381811660009081526009602052604090208054909260008051602061524383398151915292613b5092613c779133918116610b1c565b613cc260026001860195613ca3613c8e8854611525565b81549060018060a01b039060031b1b19169055565b01611d97611d77611d6b8354611d626001600160801b038216426130cf565b8354938590556040516001600160a01b0390911681529081906020820190565b613cfa915060203d8111610f1057610f018183611945565b38613c38565b15613d0757565b60405162461bcd60e51b815260206004820152603a60248201527f44414f436f6d6d69747465653a2073656e646572206973206e6f74207468652060448201527f63616e646964617465206f66207468697320636f6e74726163740000000000006064820152608490fd5b6001600160a01b03909116815260406020820181905261060d939101916132b0565b604051630d90703f60e31b81526001600160a01b039182169390916020908184600481895afa93841561080557600094613ef3575b5060405163136c704d60e31b8152849083816004818b5afa90811561080557600091613ed6575b50613e87575b613e039250163314613d00565b833b156103d957600060405180956325d6086160e01b8252818381613e2c878a600484016135cb565b03925af1908115610805577fda033346b344f4675799a7ab4d837f0deb62d4afcdcaba4613913b4c25838cb394613e6f92613e74575b5060405193849384613d72565b0390a1565b806107f9613e81926118e1565b38613e62565b5060405163570ca73560e01b815282816004818886165afa90811561080557613e0393600092613eb9575b5050613df6565b613ecf9250803d10610f1057610f018183611945565b3880613eb2565b613eed9150843d8611610a0b576109fd8183611945565b38613df0565b613f0b919450823d8411610f1057610f018183611945565b9238613dc9565b6007548015613137576000198101908082101561155c577fa66cc928b5edb82af9bd49922954155ab7b0942694bea4ce44661d9a8736c687906007600052016bffffffffffffffffffffffff60a01b8154169055600755565b15613f7257565b60405162461bcd60e51b815260206004820152601160248201527024ba13b9903737ba10333937b6902a27a760791b6044820152606490fd5b600019811461043b5760010190565b805182101561155c5760209160051b010190565b60405190613fdb8261190f565b60048252633bc3556560e21b6020830152565b60405190613ffb8261190f565b60048252637c24048d60e11b6020830152565b6040519061401b8261190f565b60048252630f52bba760e41b6020830152565b1561403557565b60405162461bcd60e51b815260206004820152601760248201527f636c61696d455243323020746f6e20646f6e74207573650000000000000000006044820152606490fd5b604051906bffffffffffffffffffffffff199060601b1660208201526014815261060d8161190f565b33600090815260008051602061522383398151915260205260409020546140cb9015156131e0565b6002546140e2906001600160a01b03161515614135565b600854908160011c811115612c9757612c6161410092821115614196565b600a546040519081527f027863d12a407097e086a48e36475bfc859d0b200b7e6f65b5fd3b218e46632e908060208101613e6f565b1561413c57565b60405162461bcd60e51b815260206004820152602c60248201527f53746f726167655374617465436f6d6d69747465653a204167656e64614d616e60448201526b61676572206973207a65726f60a01b6064820152608490fd5b1561419d57565b60405162461bcd60e51b815260206004820152602660248201527f44414f436f6d6d69747465653a2071756f72756d20657863656564206d61782060448201526536b2b6b132b960d11b6064820152608490fd5b908160609103126103d9578051916040602083015192015190565b634e487b7160e01b600052602160045260246000fd5b6004111561422c57565b61420c565b90815260408101929190600482101561422c5760200152565b6006111561422c57565b90815260408101929190600682101561422c5760200152565b60409061060d9492815281602082015201916132b0565b1561428b57565b60405162461bcd60e51b815260206004820152602860248201527f44414f436f6d6d69747465653a2063616e206e6f74206578656375746520746860448201526765206167656e646160c01b6064820152608490fd5b6001600160401b0381116118dc5760051b60200190565b60005b83811061430b5750506000910152565b81810151838201526020016142fb565b9080601f830112156103d957815191614333836142e1565b9260409061434382519586611945565b808552602093848087019260051b850101938185116103d957858101925b858410614372575050505050505090565b83516001600160401b0381116103d95782019083603f830112156103d957878201519061439e82611982565b6143aa88519182611945565b828152858884860101116103d9576143cb8a949385948a86850191016142f8565b815201930192614361565b9190916080818403126103d95780516001600160401b03908181116103d95782019380601f860112156103d957845161440e816142e1565b9061441c6040519283611945565b808252602096878084019260051b820101918483116103d95788809201905b8382106144715750505050948301519182116103d95761445c91830161431b565b91606061446b604084016133ef565b92015190565b828091835161447f81610475565b81520191019061443b565b3d156144b5573d9061449b82611982565b916144a96040519384611945565b82523d6000602084013e565b606090565b156144c157565b60405162461bcd60e51b815260206004820152602a60248201527f44414f436f6d6d69747465653a204661696c656420746f206578656375746520604482015269746865206167656e646160b01b6064820152608490fd5b90815180825260208080930193019160005b828110614539575050505090565b83516001600160a01b03168552938101939281019260010161452b565b90602061060d928181520190614519565b602060009160018060a01b03809116835260098252604083205416600460405180948193633b253c2b60e11b83525af1908115610805576000916145a9575090565b61060d915060203d8111610a0b576109fd8183611945565b60005b8281106145d357505050600190565b6145e68160051b83013561279781610475565b156145f9576145f490613fab565b6145c4565b60405162461bcd60e51b815260206004820152602a60248201527f44414f436f6d6d69747465653a206661696c656420746f2075706461746520736044820152696569676e696f7261676560b01b6064820152608490fd5b1561465857565b60405162461bcd60e51b815260206004820152602b60248201527f44414f436f6d6d69747465653a20796f7520646f6e2774206861766520636c6160448201526a34b6b0b13632903bba37b760a91b6064820152608490fd5b90633b9aca009182810292818404149015171561043b57565b8181029291811591840414171561043b57565b156146e457565b60405162461bcd60e51b815260206004820152602560248201527f44414f436f6d6d69747465653a20696e76616c6964206c617965723220636f6e6044820152641d1c9858dd60da1b6064820152608490fd5b1561473e57565b60405162461bcd60e51b815260206004820152601e60248201527f44414f436f6d6d69747465653a20696e76616c6964206f70657261746f7200006044820152606490fd5b9060209161479c815180928185528580860191016142f8565b601f01601f1916010190565b9294936080929161330260018060a01b03938480931687526001602088015260a0604088015260a0870190614783565b90602061060d928181520190614783565b35906001600160801b03821682036103d957565b3590611973826133e5565b81601f820112156103d95780359061481f826142e1565b9260409261482f84519586611945565b808552602093848087019260051b850101938385116103d957858101925b85841061485e575050505050505090565b83356001600160401b0381116103d957820185603f820112156103d957879161488f8783878680960135910161199d565b81520193019261484d565b9190916040516148a9816118f4565b60608152602091828201600091828252604084018381526060850193808552608086019460608652869984019560a0858803126126f6576001600160401b039685358881116149c65786019981601f8c0112156149c6578a359a61490c8c6142e1565b9b82806040519e8f9061491f9082611945565b838152019160051b830101918483116149c2578301905b8282106149a95750505061494b9087016147e9565b97614958604088016147e9565b96614965606082016147fd565b95608082013592831161277257509261498f6149a69a999896936149989896936149989601614808565b90529015159052565b906001600160801b03169052565b52565b83809183356149b781610475565b815201910190614936565b8780fd5b8480fd5b9092949360018060a01b03928360025416956149e7871515614135565b6040518097632522a32f60e01b825281600460209a8b935afa90811561080557600091614bf1575b50600054614a2790610712906001600160a01b031681565b6040516323b872dd60e01b81526001600160a01b038716600482015230602482015260448101839052908990829060649082906000905af1801561080557600092614a7e614abd928c948691614bd4575b50614cdb565b8354614a9490610712906001600160a01b031681565b9060405194858094819363a9059cbb60e01b835260048301919060206040840193600181520152565b03925af18015610805578492614ade8b928b94600091614bb7575b50614d41565b8460008a614b17614af961071260025460018060a01b031690565b94604051988997889687956304a091b760e31b875260048701614c0e565b03925af196871561080557600097614b6a575b50507fcd47bcad760e912d146723a314cc78b8570ee76ec8bdd4b60335087f6c2f47d79392918697614b6492604051958695169785614ca4565b0390a390565b614b649297507fcd47bcad760e912d146723a314cc78b8570ee76ec8bdd4b60335087f6c2f47d79594939181614bab92903d10613b8057613b708183611945565b96918193949550614b2a565b614bce9150853d8711610a0b576109fd8183611945565b38614ad8565b614beb9150853d8711610a0b576109fd8183611945565b38614a78565b614c089150883d8a11613b8057613b708183611945565b38614a0f565b91929390614c249060a0845260a0840190614519565b936001600160801b03908160209516858501521660408301521515606082015260808184039101528251908183528083019281808460051b8301019501936000915b848310614c765750505050505090565b9091929394958480614c94600193601f198682030187528a51614783565b9801930193019194939290614c66565b9294939091614cbd606093608086526080860190614519565b956001600160801b0380921660208601521660408401521515910152565b15614ce257565b60405162461bcd60e51b815260206004820152603160248201527f44414f436f6d6d69747465653a206661696c656420746f207472616e73666572604482015270103a37b710333937b69031b932b0ba37b960791b6064820152608490fd5b15614d4857565b60405162461bcd60e51b815260206004820152601c60248201527f44414f436f6d6d69747465653a206661696c656420746f206275726e000000006044820152606490fd5b906000929183602081940191619c3f195a01f190565b6001600160a01b03908116600090815260096020526040902054168015614eeb57604051906020828180809501916301ffc9a760e01b9283815283602483015260248252614df08261192a565b60009687809351617530938985fa933d83519086614ee0575b5085614ed6575b5084614e78575b5050505080614e69575b15614e64578060049260405193848092631dffc87160e21b82525afa9283156108055792614e4e57505090565b61060d9250803d10610a0b576109fd8183611945565b505090565b50614e7382614ef1565b614e21565b90919293508560405185810192835263ffffffff60e01b602482015260248152614ea18161192a565b5192fa8351823d83614ecb575b505081614ec1575b501581843880614e17565b9050151538614eb6565b101591508238614eae565b1515945038614e10565b851115955038614e09565b50600090565b6000602091604051838101906301ffc9a760e01b8252631dffc87160e21b602482015260248152614f218161192a565b5191617530fa6000513d82614f42575b5081614f3b575090565b9050151590565b60201115915038614f31565b15614f5557565b60405162461bcd60e51b815260206004820152601f60248201527f54686973206163636f756e74206973206e6f7420612063616e646964617465006044820152606490fd5b6004906020906001600160a01b0316614fb4811515614f4e565b6040516340bd8e6960e11b815292839182905afa90811561080557600091614fda575090565b61060d915060203d8111613b8057613b708183611945565b6001600160a01b039081169160209190602490615010851515614f4e565b604051948593849263af500ba360e01b84521660048301525afa90811561080557600091614fda575090565b6001600160a01b031660009081526009602052604090206002810154608081901c916001600160801b03918216919082615081575b50505061060d90600b54906146ca565b6003015416808211156150ae57506150a6906150a161060d9342906130ea565b6130cf565b903880615071565b905042820180921161043b57810390811161043b5761060d906150a6565b156150d357565b60405162461bcd60e51b8152602060048201526011602482015270736c6963655f6f75744f66426f756e647360781b6044820152606490fd5b61511a6004825110156150cc565b6040519060048083019101600883015b80831061514457505060048252601f01601f191660405290565b909182518152602080910192019061512a565b6151656024825110156150cc565b604051906014820190602401602883015b80831061519057505060148252601f01601f191660405290565b9091825181526020809101920190615176565b600191815191815183146001146151bd5750505050600090565b8360208080958185019401019301915b60028285831001146151e157505050505090565b82518151036151f6575b9184019184016151cd565b600095508591506151eb56fefa0761008653bc7bf9fa040fb7e07672ad3e17a976eb452c44e81dd782a6214b13649b2456f1b42fef0f0040b3aaeabcd21a76a0f3f5defd4f583839455116e9663b98adf1afa777e36528b3293a057803f87ed00d2d2518dccfe5d7a6e99ccfa164736f6c6343000813000a",
  "linkReferences": {},
  "deployedLinkReferences": {}
}