{
  "_format": "hh-sol-artifact-1",
  "contractName": "DAOCommitteeDAOVault",
  "sourceName": "contracts/dao/DAOCommitteeDAOVault.sol",
  "abi": [
    {
      "anonymous": false,
      "inputs": [
        {
          "indexed": true,
          "internalType": "address",
          "name": "from",
          "type": "address"
        },
        {
          "indexed": true,
          "internalType": "uint256",
          "name": "id",
          "type": "uint256"
        },
        {
          "indexed": false,
          "internalType": "address[]",
          "name": "targets",
          "type": "address[]"
        },
        {
          "indexed": false,
          "internalType": "uint128",
          "name": "noticePeriodSeconds",
          "type": "uint128"
        },
        {
          "indexed": false,
          "internalType": "uint128",
          "name": "votingPeriodSeconds",
          "type": "uint128"
        },
        {
          "indexed": false,
          "internalType": "bool",
          "name": "atomicExecute",
          "type": "bool"
        }
      ],
      "name": "AgendaCreated",
      "type": "event"
    },
    {
      "anonymous": false,
      "inputs": [
        {
          "indexed": true,
          "internalType": "uint256",
          "name": "id",
          "type": "uint256"
        },
        {
          "indexed": false,
          "internalType": "address[]",
          "name": "target",
          "type": "address[]"
        }
      ],
      "name": "AgendaExecuted",
      "type": "event"
    },
    {
      "anonymous": false,
      "inputs": [
        {
          "indexed": true,
          "internalType": "address",
          "name": "from",
          "type": "address"
        },
        {
          "indexed": true,
          "internalType": "uint256",
          "name": "id",
          "type": "uint256"
        },
        {
          "indexed": false,
          "internalType": "uint256",
          "name": "voting",
          "type": "uint256"
        },
        {
          "indexed": false,
          "internalType": "string",
          "name": "comment",
          "type": "string"
        }
      ],
      "name": "AgendaVoteCasted",
      "type": "event"
    },
    {
      "anonymous": false,
      "inputs": [
        {
          "indexed": true,
          "internalType": "address",
          "name": "candidate",
          "type": "address"
        },
        {
          "indexed": true,
          "internalType": "address",
          "name": "candidateContract",
          "type": "address"
        },
        {
          "indexed": false,
          "internalType": "string",
          "name": "memo",
          "type": "string"
        }
      ],
      "name": "CandidateContractCreated",
      "type": "event"
    },
    {
      "anonymous": false,
      "inputs": [
        {
          "indexed": true,
          "internalType": "uint256",
          "name": "slotIndex",
          "type": "uint256"
        },
        {
          "indexed": false,
          "internalType": "address",
          "name": "prevMember",
          "type": "address"
        },
        {
          "indexed": true,
          "internalType": "address",
          "name": "newMember",
          "type": "address"
        }
      ],
      "name": "ChangedMember",
      "type": "event"
    },
    {
      "anonymous": false,
      "inputs": [
        {
          "indexed": false,
          "internalType": "address",
          "name": "candidate",
          "type": "address"
        },
        {
          "indexed": false,
          "internalType": "string",
          "name": "newMemo",
          "type": "string"
        }
      ],
      "name": "ChangedMemo",
      "type": "event"
    },
    {
      "anonymous": false,
      "inputs": [
        {
          "indexed": true,
          "internalType": "uint256",
          "name": "prevSlotMax",
          "type": "uint256"
        },
        {
          "indexed": true,
          "internalType": "uint256",
          "name": "slotMax",
          "type": "uint256"
        }
      ],
      "name": "ChangedSlotMaximum",
      "type": "event"
    },
    {
      "anonymous": false,
      "inputs": [
        {
          "indexed": true,
          "internalType": "address",
          "name": "candidate",
          "type": "address"
        },
        {
          "indexed": false,
          "internalType": "address",
          "name": "receiver",
          "type": "address"
        },
        {
          "indexed": false,
          "internalType": "uint256",
          "name": "amount",
          "type": "uint256"
        }
      ],
      "name": "ClaimedActivityReward",
      "type": "event"
    },
    {
      "anonymous": false,
      "inputs": [
        {
          "indexed": true,
          "internalType": "address",
          "name": "candidate",
          "type": "address"
        },
        {
          "indexed": true,
          "internalType": "address",
          "name": "candidateContract",
          "type": "address"
        },
        {
          "indexed": false,
          "internalType": "string",
          "name": "memo",
          "type": "string"
        }
      ],
      "name": "Layer2Registered",
      "type": "event"
    },
    {
      "anonymous": false,
      "inputs": [
        {
          "indexed": false,
          "internalType": "uint256",
          "name": "newQuorum",
          "type": "uint256"
        }
      ],
      "name": "QuorumChanged",
      "type": "event"
    },
    {
      "anonymous": false,
      "inputs": [
        {
          "indexed": true,
          "internalType": "bytes32",
          "name": "role",
          "type": "bytes32"
        },
        {
          "indexed": true,
          "internalType": "bytes32",
          "name": "previousAdminRole",
          "type": "bytes32"
        },
        {
          "indexed": true,
          "internalType": "bytes32",
          "name": "newAdminRole",
          "type": "bytes32"
        }
      ],
      "name": "RoleAdminChanged",
      "type": "event"
    },
    {
      "anonymous": false,
      "inputs": [
        {
          "indexed": true,
          "internalType": "bytes32",
          "name": "role",
          "type": "bytes32"
        },
        {
          "indexed": true,
          "internalType": "address",
          "name": "account",
          "type": "address"
        },
        {
          "indexed": true,
          "internalType": "address",
          "name": "sender",
          "type": "address"
        }
      ],
      "name": "RoleGranted",
      "type": "event"
    },
    {
      "anonymous": false,
      "inputs": [
        {
          "indexed": true,
          "internalType": "bytes32",
          "name": "role",
          "type": "bytes32"
        },
        {
          "indexed": true,
          "internalType": "address",
          "name": "account",
          "type": "address"
        },
        {
          "indexed": true,
          "internalType": "address",
          "name": "sender",
          "type": "address"
        }
      ],
      "name": "RoleRevoked",
      "type": "event"
    },
    {
      "inputs": [],
      "name": "DEFAULT_ADMIN_ROLE",
      "outputs": [
        {
          "internalType": "bytes32",
          "name": "",
          "type": "bytes32"
        }
      ],
      "stateMutability": "view",
      "type": "function"
    },
    {
      "inputs": [
        {
          "internalType": "uint256",
          "name": "v",
          "type": "uint256"
        }
      ],
      "name": "_toRAY",
      "outputs": [
        {
          "internalType": "uint256",
          "name": "",
          "type": "uint256"
        }
      ],
      "stateMutability": "pure",
      "type": "function"
    },
    {
      "inputs": [],
      "name": "activityRewardPerSecond",
      "outputs": [
        {
          "internalType": "uint256",
          "name": "",
          "type": "uint256"
        }
      ],
      "stateMutability": "view",
      "type": "function"
    },
    {
      "inputs": [],
      "name": "agendaManager",
      "outputs": [
        {
          "internalType": "contract IDAOAgendaManager",
          "name": "",
          "type": "address"
        }
      ],
      "stateMutability": "view",
      "type": "function"
    },
    {
      "inputs": [
        {
          "internalType": "address",
          "name": "_candidate",
          "type": "address"
        },
        {
          "internalType": "address",
          "name": "_account",
          "type": "address"
        }
      ],
      "name": "balanceOfOnCandidate",
      "outputs": [
        {
          "internalType": "uint256",
          "name": "amount",
          "type": "uint256"
        }
      ],
      "stateMutability": "view",
      "type": "function"
    },
    {
      "inputs": [
        {
          "internalType": "address",
          "name": "_candidateContract",
          "type": "address"
        },
        {
          "internalType": "address",
          "name": "_account",
          "type": "address"
        }
      ],
      "name": "balanceOfOnCandidateContract",
      "outputs": [
        {
          "internalType": "uint256",
          "name": "amount",
          "type": "uint256"
        }
      ],
      "stateMutability": "view",
      "type": "function"
    },
    {
      "inputs": [
        {
          "internalType": "address",
          "name": "_candidate",
          "type": "address"
        }
      ],
      "name": "candidateContract",
      "outputs": [
        {
          "internalType": "address",
          "name": "",
          "type": "address"
        }
      ],
      "stateMutability": "view",
      "type": "function"
    },
    {
      "inputs": [],
      "name": "candidateFactory",
      "outputs": [
        {
          "internalType": "contract ICandidateFactory",
          "name": "",
          "type": "address"
        }
      ],
      "stateMutability": "view",
      "type": "function"
    },
    {
      "inputs": [
        {
          "internalType": "address",
          "name": "_candidate",
          "type": "address"
        }
      ],
      "name": "candidateInfos",
      "outputs": [
        {
          "components": [
            {
              "internalType": "address",
              "name": "candidateContract",
              "type": "address"
            },
            {
              "internalType": "uint256",
              "name": "indexMembers",
              "type": "uint256"
            },
            {
              "internalType": "uint128",
              "name": "memberJoinedTime",
              "type": "uint128"
            },
            {
              "internalType": "uint128",
              "name": "rewardPeriod",
              "type": "uint128"
            },
            {
              "internalType": "uint128",
              "name": "claimedTimestamp",
              "type": "uint128"
            }
          ],
          "internalType": "struct StorageStateCommittee.CandidateInfo",
          "name": "",
          "type": "tuple"
        }
      ],
      "stateMutability": "view",
      "type": "function"
    },
    {
      "inputs": [
        {
          "internalType": "uint256",
          "name": "",
          "type": "uint256"
        }
      ],
      "name": "candidates",
      "outputs": [
        {
          "internalType": "address",
          "name": "",
          "type": "address"
        }
      ],
      "stateMutability": "view",
      "type": "function"
    },
    {
      "inputs": [],
      "name": "candidatesLength",
      "outputs": [
        {
          "internalType": "uint256",
          "name": "",
          "type": "uint256"
        }
      ],
      "stateMutability": "view",
      "type": "function"
    },
    {
      "inputs": [
        {
          "internalType": "uint256",
          "name": "_agendaID",
          "type": "uint256"
        },
        {
          "internalType": "uint256",
          "name": "_vote",
          "type": "uint256"
        },
        {
          "internalType": "string",
          "name": "_comment",
          "type": "string"
        }
      ],
      "name": "castVote",
      "outputs": [],
      "stateMutability": "nonpayable",
      "type": "function"
    },
    {
      "inputs": [
        {
          "internalType": "uint256",
          "name": "_memberIndex",
          "type": "uint256"
        }
      ],
      "name": "changeMember",
      "outputs": [
        {
          "internalType": "bool",
          "name": "",
          "type": "bool"
        }
      ],
      "stateMutability": "nonpayable",
      "type": "function"
    },
    {
      "inputs": [
        {
          "internalType": "address",
          "name": "_receiver",
          "type": "address"
        }
      ],
      "name": "claimActivityReward",
      "outputs": [],
      "stateMutability": "nonpayable",
      "type": "function"
    },
    {
      "inputs": [
        {
          "internalType": "string",
          "name": "_memo",
          "type": "string"
        },
        {
          "internalType": "address",
          "name": "_operatorAddress",
          "type": "address"
        }
      ],
      "name": "createCandidate",
      "outputs": [],
      "stateMutability": "nonpayable",
      "type": "function"
    },
    {
      "inputs": [
        {
          "internalType": "string",
          "name": "_memo",
          "type": "string"
        }
      ],
      "name": "createCandidate",
      "outputs": [],
      "stateMutability": "nonpayable",
      "type": "function"
    },
    {
      "inputs": [],
      "name": "daoVault",
      "outputs": [
        {
          "internalType": "contract IDAOVault",
          "name": "",
          "type": "address"
        }
      ],
      "stateMutability": "view",
      "type": "function"
    },
    {
      "inputs": [
        {
          "internalType": "uint256",
          "name": "_reducingMemberIndex",
          "type": "uint256"
        },
        {
          "internalType": "uint256",
          "name": "_quorum",
          "type": "uint256"
        }
      ],
      "name": "decreaseMaxMember",
      "outputs": [],
      "stateMutability": "nonpayable",
      "type": "function"
    },
    {
      "inputs": [
        {
          "internalType": "uint256",
          "name": "_agendaID",
          "type": "uint256"
        }
      ],
      "name": "endAgendaVoting",
      "outputs": [],
      "stateMutability": "nonpayable",
      "type": "function"
    },
    {
      "inputs": [
        {
          "internalType": "uint256",
          "name": "_agendaID",
          "type": "uint256"
        }
      ],
      "name": "executeAgenda",
      "outputs": [],
      "stateMutability": "nonpayable",
      "type": "function"
    },
    {
      "inputs": [
        {
          "internalType": "address",
          "name": "_candidate",
          "type": "address"
        }
      ],
      "name": "getClaimableActivityReward",
      "outputs": [
        {
          "internalType": "uint256",
          "name": "",
          "type": "uint256"
        }
      ],
      "stateMutability": "view",
      "type": "function"
    },
    {
      "inputs": [
        {
          "internalType": "address",
          "name": "_oldCandidate",
          "type": "address"
        }
      ],
      "name": "getOldCandidateInfos",
      "outputs": [
        {
          "components": [
            {
              "internalType": "address",
              "name": "candidateContract",
              "type": "address"
            },
            {
              "internalType": "address",
              "name": "newCandidate",
              "type": "address"
            },
            {
              "internalType": "uint256",
              "name": "indexMembers",
              "type": "uint256"
            },
            {
              "internalType": "uint128",
              "name": "memberJoinedTime",
              "type": "uint128"
            },
            {
              "internalType": "uint128",
              "name": "rewardPeriod",
              "type": "uint128"
            },
            {
              "internalType": "uint128",
              "name": "claimedTimestamp",
              "type": "uint128"
            }
          ],
          "internalType": "struct StorageStateCommitteeV2.CandidateInfo2",
          "name": "",
          "type": "tuple"
        }
      ],
      "stateMutability": "view",
      "type": "function"
    },
    {
      "inputs": [
        {
          "internalType": "bytes32",
          "name": "role",
          "type": "bytes32"
        }
      ],
      "name": "getRoleAdmin",
      "outputs": [
        {
          "internalType": "bytes32",
          "name": "",
          "type": "bytes32"
        }
      ],
      "stateMutability": "view",
      "type": "function"
    },
    {
      "inputs": [
        {
          "internalType": "bytes32",
          "name": "role",
          "type": "bytes32"
        },
        {
          "internalType": "uint256",
          "name": "index",
          "type": "uint256"
        }
      ],
      "name": "getRoleMember",
      "outputs": [
        {
          "internalType": "address",
          "name": "",
          "type": "address"
        }
      ],
      "stateMutability": "view",
      "type": "function"
    },
    {
      "inputs": [
        {
          "internalType": "bytes32",
          "name": "role",
          "type": "bytes32"
        }
      ],
      "name": "getRoleMemberCount",
      "outputs": [
        {
          "internalType": "uint256",
          "name": "",
          "type": "uint256"
        }
      ],
      "stateMutability": "view",
      "type": "function"
    },
    {
      "inputs": [
        {
          "internalType": "bytes32",
          "name": "role",
          "type": "bytes32"
        },
        {
          "internalType": "address",
          "name": "account",
          "type": "address"
        }
      ],
      "name": "grantRole",
      "outputs": [],
      "stateMutability": "nonpayable",
      "type": "function"
    },
    {
      "inputs": [
        {
          "internalType": "bytes32",
          "name": "role",
          "type": "bytes32"
        },
        {
          "internalType": "address",
          "name": "account",
          "type": "address"
        }
      ],
      "name": "hasRole",
      "outputs": [
        {
          "internalType": "bool",
          "name": "",
          "type": "bool"
        }
      ],
      "stateMutability": "view",
      "type": "function"
    },
    {
      "inputs": [
        {
          "internalType": "uint256",
          "name": "_newMaxMember",
          "type": "uint256"
        },
        {
          "internalType": "uint256",
          "name": "_quorum",
          "type": "uint256"
        }
      ],
      "name": "increaseMaxMember",
      "outputs": [],
      "stateMutability": "nonpayable",
      "type": "function"
    },
    {
      "inputs": [
        {
          "internalType": "address",
          "name": "_candidate",
          "type": "address"
        }
      ],
      "name": "isCandidate",
      "outputs": [
        {
          "internalType": "bool",
          "name": "",
          "type": "bool"
        }
      ],
      "stateMutability": "view",
      "type": "function"
    },
    {
      "inputs": [
        {
          "internalType": "address",
          "name": "_candidate",
          "type": "address"
        }
      ],
      "name": "isExistCandidate",
      "outputs": [
        {
          "internalType": "bool",
          "name": "isExist",
          "type": "bool"
        }
      ],
      "stateMutability": "view",
      "type": "function"
    },
    {
      "inputs": [
        {
          "internalType": "address",
          "name": "_candidate",
          "type": "address"
        }
      ],
      "name": "isMember",
      "outputs": [
        {
          "internalType": "bool",
          "name": "",
          "type": "bool"
        }
      ],
      "stateMutability": "view",
      "type": "function"
    },
    {
      "inputs": [],
      "name": "layer2Registry",
      "outputs": [
        {
          "internalType": "contract ILayer2Registry",
          "name": "",
          "type": "address"
        }
      ],
      "stateMutability": "view",
      "type": "function"
    },
    {
      "inputs": [],
      "name": "maxMember",
      "outputs": [
        {
          "internalType": "uint256",
          "name": "",
          "type": "uint256"
        }
      ],
      "stateMutability": "view",
      "type": "function"
    },
    {
      "inputs": [
        {
          "internalType": "uint256",
          "name": "",
          "type": "uint256"
        }
      ],
      "name": "members",
      "outputs": [
        {
          "internalType": "address",
          "name": "",
          "type": "address"
        }
      ],
      "stateMutability": "view",
      "type": "function"
    },
    {
      "inputs": [
        {
          "internalType": "address",
          "name": "owner",
          "type": "address"
        },
        {
          "internalType": "address",
          "name": "",
          "type": "address"
        },
        {
          "internalType": "uint256",
          "name": "",
          "type": "uint256"
        },
        {
          "internalType": "bytes",
          "name": "data",
          "type": "bytes"
        }
      ],
      "name": "onApprove",
      "outputs": [
        {
          "internalType": "bool",
          "name": "",
          "type": "bool"
        }
      ],
      "stateMutability": "nonpayable",
      "type": "function"
    },
    {
      "inputs": [],
      "name": "pauseProxy",
      "outputs": [
        {
          "internalType": "bool",
          "name": "",
          "type": "bool"
        }
      ],
      "stateMutability": "view",
      "type": "function"
    },
    {
      "inputs": [],
      "name": "quorum",
      "outputs": [
        {
          "internalType": "uint256",
          "name": "",
          "type": "uint256"
        }
      ],
      "stateMutability": "view",
      "type": "function"
    },
    {
      "inputs": [
        {
          "internalType": "address",
          "name": "_layer2",
          "type": "address"
        },
        {
          "internalType": "string",
          "name": "_memo",
          "type": "string"
        }
      ],
      "name": "registerLayer2Candidate",
      "outputs": [],
      "stateMutability": "nonpayable",
      "type": "function"
    },
    {
      "inputs": [
        {
          "internalType": "address",
          "name": "_operator",
          "type": "address"
        },
        {
          "internalType": "address",
          "name": "_layer2",
          "type": "address"
        },
        {
          "internalType": "string",
          "name": "_memo",
          "type": "string"
        }
      ],
      "name": "registerLayer2CandidateByOwner",
      "outputs": [],
      "stateMutability": "nonpayable",
      "type": "function"
    },
    {
      "inputs": [
        {
          "internalType": "bytes32",
          "name": "role",
          "type": "bytes32"
        },
        {
          "internalType": "address",
          "name": "account",
          "type": "address"
        }
      ],
      "name": "renounceRole",
      "outputs": [],
      "stateMutability": "nonpayable",
      "type": "function"
    },
    {
      "inputs": [],
      "name": "retireMember",
      "outputs": [
        {
          "internalType": "bool",
          "name": "",
          "type": "bool"
        }
      ],
      "stateMutability": "nonpayable",
      "type": "function"
    },
    {
      "inputs": [
        {
          "internalType": "bytes32",
          "name": "role",
          "type": "bytes32"
        },
        {
          "internalType": "address",
          "name": "account",
          "type": "address"
        }
      ],
      "name": "revokeRole",
      "outputs": [],
      "stateMutability": "nonpayable",
      "type": "function"
    },
    {
      "inputs": [],
      "name": "seigManager",
      "outputs": [
        {
          "internalType": "contract ISeigManager",
          "name": "",
          "type": "address"
        }
      ],
      "stateMutability": "view",
      "type": "function"
    },
    {
      "inputs": [
        {
          "internalType": "uint256",
          "name": "_agendaID",
          "type": "uint256"
        },
        {
          "internalType": "uint256",
          "name": "_status",
          "type": "uint256"
        },
        {
          "internalType": "uint256",
          "name": "_result",
          "type": "uint256"
        }
      ],
      "name": "setAgendaStatus",
      "outputs": [],
      "stateMutability": "nonpayable",
      "type": "function"
    },
    {
      "inputs": [
        {
          "internalType": "address",
          "name": "_candidate",
          "type": "address"
        },
        {
          "internalType": "string",
          "name": "_memo",
          "type": "string"
        }
      ],
      "name": "setMemoOnCandidate",
      "outputs": [],
      "stateMutability": "nonpayable",
      "type": "function"
    },
    {
      "inputs": [
        {
          "internalType": "address",
          "name": "_candidateContract",
          "type": "address"
        },
        {
          "internalType": "string",
          "name": "_memo",
          "type": "string"
        }
      ],
      "name": "setMemoOnCandidateContract",
      "outputs": [],
      "stateMutability": "nonpayable",
      "type": "function"
    },
    {
      "inputs": [
        {
          "internalType": "uint256",
          "name": "_quorum",
          "type": "uint256"
        }
      ],
      "name": "setQuorum",
      "outputs": [],
      "stateMutability": "nonpayable",
      "type": "function"
    },
    {
      "inputs": [
        {
          "internalType": "bytes4",
          "name": "interfaceId",
          "type": "bytes4"
        }
      ],
      "name": "supportsInterface",
      "outputs": [
        {
          "internalType": "bool",
          "name": "",
          "type": "bool"
        }
      ],
      "stateMutability": "view",
      "type": "function"
    },
    {
      "inputs": [],
      "name": "ton",
      "outputs": [
        {
          "internalType": "address",
          "name": "",
          "type": "address"
        }
      ],
      "stateMutability": "view",
      "type": "function"
    },
    {
      "inputs": [
        {
          "internalType": "address",
          "name": "_candidate",
          "type": "address"
        }
      ],
      "name": "totalSupplyOnCandidate",
      "outputs": [
        {
          "internalType": "uint256",
          "name": "totalsupply",
          "type": "uint256"
        }
      ],
      "stateMutability": "view",
      "type": "function"
    },
    {
      "inputs": [
        {
          "internalType": "address",
          "name": "_candidateContract",
          "type": "address"
        }
      ],
      "name": "totalSupplyOnCandidateContract",
      "outputs": [
        {
          "internalType": "uint256",
          "name": "totalsupply",
          "type": "uint256"
        }
      ],
      "stateMutability": "view",
      "type": "function"
    },
    {
      "inputs": [
        {
          "internalType": "address",
          "name": "_candidate",
          "type": "address"
        }
      ],
      "name": "updateSeigniorage",
      "outputs": [
        {
          "internalType": "bool",
          "name": "",
          "type": "bool"
        }
      ],
      "stateMutability": "nonpayable",
      "type": "function"
    },
    {
      "inputs": [
        {
          "internalType": "address[]",
          "name": "_candidates",
          "type": "address[]"
        }
      ],
      "name": "updateSeigniorages",
      "outputs": [
        {
          "internalType": "bool",
          "name": "",
          "type": "bool"
        }
      ],
      "stateMutability": "nonpayable",
      "type": "function"
    },
    {
      "inputs": [],
      "name": "wton",
      "outputs": [
        {
          "internalType": "address",
          "name": "",
          "type": "address"
        }
      ],
      "stateMutability": "view",
      "type": "function"
    }
  ],
  "bytecode": "0x60808060405234610052576301ffc9a760e01b600052600d6020527f49c01d976ca1c616ed1de1469e98d664903a805642011c315785aa325a483c71805460ff1916600117905561542a90816100588239f35b600080fdfe6080604052600436101561001257600080fd5b60003560e01c806301ffc9a71461037757806303e3c9ac146103725780630ebe021a1461036d57806311f19e041461036857806314d3535e1461036357806316f7f9821461035e5780631703a01814610359578063216f486b14610354578063248a9ca31461034f57806324f99b1e1461034a57806327fd92fd146103455780632e011c1e146103405780632f2ff15d1461033b57806332a45ef6146103365780633477ee2e1461033157806336568abe1461032c5780634273ca1614610327578063440b69ad1461032257806350e8f17d1461031d578063561a1dab1461031857806357f0a867146103135780635903bd6c1461030e5780635daf08ca146103095780635fba7a5614610304578063607cf734146102ff57806363a8fd89146102fa578063651d08cd146102f55780636becff27146102f05780636da8f3ce146102eb5780636fb7f558146102e6578063773b7f65146102e157806378767d33146102dc5780637f331636146102d7578063805aca20146102d2578063885b4696146102cd57806389ea4300146102c85780638d62d949146102c35780639010d07c146102be57806391d14854146102b95780639932e94c146102b4578063a1ea3525146102af578063a217fddf146102aa578063a230c524146102a5578063ad6675dc146102a0578063b5dd11581461029b578063c1ba4e5914610296578063c4ef9c0014610291578063c7cac42c1461028c578063ca15c87314610287578063cc48b94714610282578063cf2a239c1461027d578063d51b9e9314610278578063d525f04f146102735763d547741f1461026e57600080fd5b612ef8565b612ebc565b612e95565b612e6c565b612e43565b612e17565b612de4565b612d02565b612c15565b612bec565b612bab565b612b60565b612b44565b612908565b6128e1565b612892565b6127eb565b6127c2565b61279b565b612737565b612614565b6125f6565b6125cf565b6125b1565b612588565b6124a4565b6122f4565b6122a2565b61227c565b612265565b612000565b611fa5565b611f7c565b611f11565b611ecf565b611cda565b611a3e565b611623565b61158b565b611530565b6110b6565b610ff6565b610ef7565b610ece565b610a25565b6109c9565b610606565b6105e8565b6105c7565b610466565b610420565b6103e7565b6103c9565b346103b95760203660031901126103b95760043563ffffffff60e01b81168091036103b957600052600d602052602060ff604060002054166040519015158152f35b600080fd5b60009103126103b957565b346103b95760003660031901126103b9576020600854604051908152f35b346103b95760203660031901126103b957633b9aca0060043581810291811591830414171561041b57602090604051908152f35b6130d0565b346103b95760203660031901126103b957602061044b60043561044660085482106137f5565b6139a9565b6040519015158152f35b6001600160a01b038116036103b957565b346103b95760203660031901126103b95761059b60043561048681610455565b604061054161053160048360a0815161049e81611910565b60009181838093528260208201528285820152826060820152826080820152015260018060a01b038097168152600f602052206104fc8551966104e088611910565b8254811688526001830154166001600160a01b03166020880152565b60028101548587015260038101546001600160801b0381166060880152608090811c908701525b01546001600160801b031690565b6001600160801b031660a0840152565b519182918291909160a060c0820193600180831b03808251168452602082015116602084015260408101516040840152816001600160801b0391826060820151166060860152826080820151166080860152015116910152565b0390f35b60409060031901126103b9576004356105b781610455565b906024356105c481610455565b90565b346103b95760206105e06105da3661059f565b90615116565b604051908152f35b346103b95760003660031901126103b9576020600a54604051908152f35b346103b9576020806003193601126103b95760025460048035916001600160a01b0316906106358215156142db565b60409283516377f28d5b60e01b8152858180610658858783019190602083019252565b0381875afa80156107bc576106759160009161099c575b5061442a565b6000845180946373ba374560e01b82528180610698868883019190602083019252565b03915afa9182156107bc5760009283948490859261096e575b50156107c157506002546106d5906001600160a01b03165b6001600160a01b031690565b803b156103b9578551631b8c251960e11b8152918201838152600091839182908490829060200103925af180156107bc576107a3575b5060005b8251811015610769578061075f60008061073c61072f6107649689613fd0565b516001600160a01b031690565b610746858a613fd0565b5190828c83519301915af16107596145e4565b50614614565b613fc1565b61070f565b50935061079e91507f785146be3266678a3f4ea454b310ff1f8c91d0ad9a7997bcd0619940d4d67fe6925b51918291826146b0565b0390a2005b806107b06107b692611930565b806103be565b3861070b565b613335565b949193955060009480955b8451871015610961576108026107e561072f8988613fd0565b6107ef898b613fd0565b51516107fb8a8c613fd0565b5191614eb1565b1561081f5761081361081991613102565b96613fc1565b956107cc565b91939550919395505b60025461083d906001600160a01b03166106c9565b91823b156103b9578451632833207960e21b815284810188815260208101849052909360009185919082908490829060400103925af19283156107bc576108899361094e575b50613110565b8351146108bd575b507f785146be3266678a3f4ea454b310ff1f8c91d0ad9a7997bcd0619940d4d67fe69161079e91610794565b6002549092906108d5906001600160a01b03166106c9565b803b156103b9578251631b8c251960e11b8152938401858152600091859182908490829060200103925af19182156107bc577f785146be3266678a3f4ea454b310ff1f8c91d0ad9a7997bcd0619940d4d67fe69361079e9361093b575b50915091610891565b806107b061094892611930565b38610932565b806107b061095b92611930565b38610883565b9193955091939550610828565b92949150506109909294503d8091833e6109888183611994565b810190614530565b909492939194386106b1565b6109bc9150873d89116109c2575b6109b48183611994565b810190613420565b3861066f565b503d6109aa565b346103b95760203660031901126103b957600435600052600c6020526020600260406000200154604051908152f35b9181601f840112156103b9578235916001600160401b0383116103b957602083818601950101116103b957565b346103b95760603660031901126103b9576004803590602435906044356001600160401b0381116103b957610a5d90369083016109f8565b9060018060a01b03600281815416610a768115156142db565b6040928351630d90703f60e31b815260209283828a81335afa9081156107bc578a938593600093610e9b575b506001600160a01b0383166000908152600960205260409020610ada913391610ad3905b546001600160a01b031690565b16146138b1565b8651637e77eb2360e01b8152808b018d81526001600160a01b039093166020840152604083019490945283918290600090829060600103925af180156107bc57610e7d575b50508054610b35906001600160a01b03166106c9565b908251635772521560e11b815260608180610b578c8b83019190602083019252565b0381865afa9081156107bc5760009182918391610e4c575b50600a54928311610c785750508154919250610b95916001600160a01b031690506106c9565b90813b156103b9578251632b0a851b60e11b815286810189815260016020820152909260009184919082908490829060400103925af19081156107bc57610bed926106c992610c65575b50546001600160a01b031690565b803b156103b9578151633625b75960e21b815294850187815260036020820152600091869182908490829060400103925af19081156107bc576000805160206153be83398151915294610c4d92610c52575b505b51928392339684614413565b0390a3005b806107b0610c5f92611930565b38610c3f565b806107b0610c7292611930565b38610bdf565b818311610d5c5750508154919250610c9a916001600160a01b031690506106c9565b90813b156103b9578251632b0a851b60e11b815286810189815260026020820152909260009184919082908490829060400103925af19081156107bc57610cf1926106c992610c655750546001600160a01b031690565b803b156103b9578151633625b75960e21b815294850187815260056020820152600091869182908490829060400103925af19081156107bc576000805160206153be83398151915294610c4d92610d49575b50610c41565b806107b0610d5692611930565b38610d43565b90610d6691613110565b1015610d89575b50506000805160206153be8339815191529350610c4d90610c41565b813b156103b9578251632b0a851b60e11b815286810189815260036020820152909260009184919082908490829060400103925af19081156107bc57610ddf926106c992610c655750546001600160a01b031690565b803b156103b9578151633625b75960e21b815294850187815260056020820152600091869182908490829060400103925af19081156107bc576000805160206153be83398151915294610c4d92610e39575b819250610d6d565b806107b0610e4692611930565b38610e31565b915050610e70915060603d8111610e76575b610e688183611994565b810190614397565b38610b6f565b503d610e5e565b81610e9392903d106109c2576109b48183611994565b503880610b1f565b610ada919350610ec090853d8711610ec7575b610eb88183611994565b8101906132c1565b9290610aa2565b503d610eae565b346103b95760003660031901126103b9576002546040516001600160a01b039091168152602090f35b346103b95760203660031901126103b95761059b600435610f1781610455565b6040610fa7610f9760038360808151610f2f81611943565b60009181838093528260208201528285820152826060820152015260018060a01b038097168152600960205220845195610f6887611943565b81541686526001810154602087015260028101546001600160801b0381168688015260801c6060870152610523565b6001600160801b03166080840152565b5191829182919091608060a082019360018060a01b03815116835260208101516020840152816001600160801b0391826040820151166040860152826060820151166060860152015116910152565b346103b95760403660031901126103b95760243560043561101682610455565b600091818352600c60205260026040842001548352611048336040852060019160005201602052604060002054151590565b156110595761105691612fb6565b80f35b60405162461bcd60e51b815260206004820152602f60248201527f416363657373436f6e74726f6c3a2073656e646572206d75737420626520616e60448201526e0818591b5a5b881d1bc819dc985b9d608a1b6064820152608490fd5b346103b9576040806003193601126103b95760049081356001600160401b0381116103b9576110e890369084016109f8565b602435906110f582610455565b6005546001600160a01b039081169490918391611113871515613602565b611121848954161515613662565b8360035416976111328915156136c4565b6000988980526020968791600c83526111666111618d8733912060019160005201602052604060002054151590565b613206565b858c8b61118988519e8f968795869463732518fb60e11b865230928c87016132f7565b03925af19788156107bc57899861149d575b5090856113cf9392868a16996111b28b1515613341565b6001600160a01b03871660009081526009602052604090206111d7906106c990610ac6565b15611441576112076112016106c9610ac68a60018060a01b0316600052600f602052604060002090565b1561372a565b6001600160a01b038716600090815260096020526040902061133f9061122c90610ac6565b61132261125060026105238c60018060a01b03166000526009602052604060002090565b6113128b61130260016112758360018060a01b03166000526009602052604060002090565b0154936112c560036105236112a960026112a18860018060a01b03166000526009602052604060002090565b015460801c90565b6001600160a01b03909616600090815260096020526040902090565b946112e06112d16119c4565b6001600160a01b039099168952565b6001600160a01b038a16888d0152878d01526001600160801b03166060870152565b6001600160801b03166080850152565b6001600160801b031660a0830152565b6001600160a01b0389166000908152600f60205260409020613769565b6001600160a01b03878116600090815260096020526040902080546001600160a01b0319169183169190911790555b8154611382906001600160a01b03166106c9565b6005549091908d9061139c906001600160a01b03166106c9565b8651635e58d38f60e11b81526001600160a01b039384169581019586529216602085015290968793849291839160400190565b03925af19586156107bc577f7cf8db18d9a5c7f44156bfabdbb59ac982a8a004e461ca1b87ee71a5cdfbc5ef9661141e94611412928c92611424575b5050613435565b519384931695836135f1565b0390a380f35b61143a9250803d106109c2576109b48183611994565b388061140b565b61148f61144c6119b5565b6001600160a01b03831681528d858201528d868201528d60608201528d608082015261148a8960018060a01b03166000526009602052604060002090565b6134b5565b61149887613535565b61136e565b6113cf93929198506114bc8791823d8411610ec757610eb88183611994565b989192935061119b565b634e487b7160e01b600052603260045260246000fd5b6007548110156115135760076000527fa66cc928b5edb82af9bd49922954155ab7b0942694bea4ce44661d9a8736c6880190600090565b6114c6565b80548210156115135760005260206000200190600090565b346103b95760203660031901126103b9576004356006548110156103b95760066000527ff652222313e28459528d920b65115c16c04f3efc82aaedc97be59f3f377c0d3f01546040516001600160a01b039091168152602090f35b346103b95760403660031901126103b9576024356115a881610455565b336001600160a01b038216036115c6576115c49060043561300c565b005b60405162461bcd60e51b815260206004820152602f60248201527f416363657373436f6e74726f6c3a2063616e206f6e6c792072656e6f756e636560448201526e103937b632b9903337b91039b2b63360891b6064820152608490fd5b346103b9576080806003193601126103b95760049081359061164482610455565b61164f602435610455565b6064356001600160401b0381116103b95761166d90369085016109f8565b91906000946116a1611685875460018060a01b031690565b946001600160a01b039361169c3386891614613f81565b6149be565b938692600180946116bb6106c9835460018060a01b031690565b928316915b61171a575b61170d89898981516116e160208401516001600160801b031690565b906116f660408501516001600160801b031690565b926117046060860151151590565b94015194614aee565b5060405160018152602090f35b875180518210156118f4576117366106c961072f848694613fd0565b1461174b575b61174590613fc1565b856116c0565b61175d81888a9998979b9a0151613fd0565b519061176882615230565b611779611773613fe4565b8261535e565b156117c3576117bf8b60405191829162461bcd60e51b83528201606090602081526011602082015270636c61696d544f4e20646f6e742075736560781b60408201520190565b0390fd5b6117d46117739b9798999a9b614004565b1561180e57506118076118026117fe611745946117f96117f38a6140ca565b91615312565b61535e565b1590565b61407e565b905061173c565b6118209061181a614024565b9061535e565b61182f575b6117459150611807565b6010548490611848906106c9906001600160a01b031681565b6040516370a0823160e01b81526001600160a01b0390921682890190815291936020929091839186919082908190850103915afa9081156107bc57611745946118b4938f936118b9575b50506118a86118a36118ad9261527b565b6152c7565b6141b7565b1115614044565b611825565b6118ad9293506118e56118a892826118a393903d106118ed575b6118dd8183611994565b81019061395a565b939250611892565b503d6118d3565b506116c5565b634e487b7160e01b600052604160045260246000fd5b60c081019081106001600160401b0382111761192b57604052565b6118fa565b6001600160401b03811161192b57604052565b60a081019081106001600160401b0382111761192b57604052565b604081019081106001600160401b0382111761192b57604052565b606081019081106001600160401b0382111761192b57604052565b90601f801991011681019081106001600160401b0382111761192b57604052565b604051906119c282611943565b565b604051906119c282611910565b6001600160401b03811161192b57601f01601f191660200190565b9291926119f8826119d1565b91611a066040519384611994565b8294818452818301116103b9578281602093846000960137010152565b9080601f830112156103b9578160206105c4933591016119ec565b346103b95760603660031901126103b95760048035611a5c81610455565b60243591611a6983610455565b6044356001600160401b0381116103b957611a879036908301611a23565b3360009081526000805160206153de833981519152602090815260408083205492969195939192611ab9901515613206565b6005546001600160a01b0390811695909490611ad6871515613602565b611ae4868254161515613662565b856003541696611af58815156136c4565b6001600160a01b03868116600090815260096020526040902054611b1a911615613263565b86861697611b29891515613341565b611b54611b4e6106c9610ac68a60018060a01b03166000526009602052604060002090565b156133a6565b845163220bbb4b60e21b81528a8185818d5afa80156107bc57611b7e918d91611cbd575b50614837565b845163570ca73560e01b8152928a8482818d5afa9485156107bc57611bd5958a611bb7928f978f9893611c9c575b508116911614614891565b8b865180968195829463732518fb60e11b84528b8d309286016148dd565b03925af19384156107bc57611c6e61141e958a7f0f401d1bd976f5304ef9cfa87aeb24d777c0e205fb87bbae1dc0f0293ba7976a98611c73958293611c7d575b5082169a611c248c1515613341565b611c3e611c2f6119b5565b6001600160a01b039094168452565b8201528a858201528a60608201528a608082015261148a8360018060a01b03166000526009602052604060002090565b613535565b51918291826141a6565b611c959193508c8d3d10610ec757610eb88183611994565b9138611c15565b82919350611cb690893d8b11610ec757610eb88183611994565b9290611bac565b611cd491508c8d3d106109c2576109b48183611994565b38611b78565b346103b95760403660031901126103b9573360009081526000805160206153de8339815191526020526040812054819060043590611d19901515613206565b611d2660085482106137f5565b6000805160206153fe833981519152611e36611d59611d44846114dc565b905460039190911b1c6001600160a01b031690565b6001600160a01b0381166000908152600960205260409020611df690600290600754611d84816130e6565b8803611e6c575b5087600182015501611de6611dc6611dba8354611db16001600160801b038216426130f5565b9060801c613110565b6001600160801b031690565b82546001600160801b031660809190911b6001600160801b031916178255565b80546001600160801b0319169055565b611dfe613f28565b611e11611e0c6008546130e6565b600855565b611e1c602435614249565b6040516001600160a01b0390911681529081906020820190565b0390a3600854611e4581613102565b7f8c0366d1e3a335a312d012257ee764723c38ec2dd5e74cbfad372513521f97718380a380f35b611e83611d44611e7e611ec9936130e6565b6114dc565b6001600160a01b0381166000908152600960205260409020899060010155611eaa896114dc565b90919082549060031b9160018060a01b03809116831b921b1916179055565b38611d8b565b346103b95760203660031901126103b957602061044b600435611ef181610455565b6001600160a01b0390811660009081526009602052604090205416151590565b346103b95760203660031901126103b9576001600160401b036004358181116103b957366023820112156103b95780600401359182116103b9573660248360051b830101116103b95761059b916024611f6a920161471b565b60405190151581529081906020820190565b346103b95760003660031901126103b9576001546040516001600160a01b039091168152602090f35b346103b95760203660031901126103b9576004356007548110156103b95760076000527fa66cc928b5edb82af9bd49922954155ab7b0942694bea4ce44661d9a8736c68801546040516001600160a01b039091168152602090f35b346103b9576020806003193601126103b9576004356001600160401b0381116103b9576120319036906004016109f8565b33600090815260096020526040902054909190612057906001600160a01b031615613263565b6003546120a890612070906001600160a01b03166106c9565b600554909490819061208a906001600160a01b03166106c9565b6040518094819263732518fb60e11b835230898933600487016132f7565b0381600080995af19182156107bc57859261220a575b506001600160a01b038216936120d5851515613341565b3360009081526009602052604090206120f590611b4e906106c990610ac6565b6004548690839061215b90612112906001600160a01b03166106c9565b600554612127906001600160a01b03166106c9565b604051635e58d38f60e11b81526001600160a01b03808a166004830152909116602482015293849283919082906044820190565b03925af19384156107bc578761141e946121a17f7cf8db18d9a5c7f44156bfabdbb59ac982a8a004e461ca1b87ee71a5cdfbc5ef976121d69584916121ed575b50613435565b6121ac611c2f6119b5565b820152604080820189905260608201899052608082018990523360009081526009602052206134b5565b6121df33613535565b6040519182913395836135f1565b6122049150833d85116109c2576109b48183611994565b3861219b565b816122229293503d8411610ec757610eb88183611994565b90386120be565b9060406003198301126103b95760043561224281610455565b91602435906001600160401b0382116103b957612261916004016109f8565b9091565b346103b9576115c461227636612229565b91613daa565b346103b95760003660031901126103b957602060ff600e5460a01c166040519015158152f35b346103b95760203660031901126103b95760206122e26004356122c481610455565b6001600160a01b039081166000908152600960205260409020541690565b6040516001600160a01b039091168152f35b346103b95760203660031901126103b95760043561231181610455565b604051630d90703f60e31b8152602081600481335afa9081156107bc57600091612486575b506001600160a01b0381166000908152600960205260409020805490916001600160a01b039161236b90339084908116610ad3565b61238761237782615160565b6123828115156147ab565b61480b565b60015490939061239f906001600160a01b03166106c9565b6010546001600160a01b03169490803b156103b957604051637c24048d60e11b81526001600160a01b0396871660048201529587166024870152604486018290526000908690606490829084905af19485156107bc57600261079e9361244d927fb15377c434dc1922cc2eb7d8950640960a05f0cf6d5dc9442de8414a9da2b30898612473575b5061243d6001600160801b0342166003830161349a565b016001600160801b038154169055565b604080516001600160a01b03909716875260208701919091529190921693918291820190565b806107b061248092611930565b38612426565b61249e915060203d8111610ec757610eb88183611994565b38612336565b346103b95760403660031901126103b9573360009081526000805160206153de8339815191526020526040812054600435906124e1901515613206565b60089081548181101561251d578183556007545b835481101561250f5761250a9061075f61359c565b6124f5565b848383611e45602435614249565b60405162461bcd60e51b815260206004820152603c60248201527f44414f436f6d6d69747465653a20596f75206861766520746f2063616c6c206460448201527f656372656173654d61784d656d62657220746f206465637265617365000000006064820152608490fd5b346103b95760003660031901126103b9576005546040516001600160a01b039091168152602090f35b346103b95760003660031901126103b9576020600654604051908152f35b346103b95760203660031901126103b95760206105e06004356125f181610455565b6150be565b346103b95760003660031901126103b9576020600b54604051908152f35b346103b95760603660031901126103b9573360009081526000805160206153de8339815191526020526040812054600435908290602435906044359061265b901515613206565b600254612670906001600160a01b03166106c9565b9061267a816143c8565b813b156127335783916126a491604051958680948193632b0a851b60e11b83528a600484016143d7565b03925af19182156107bc578492612720575b506002546126cc906001600160a01b03166106c9565b6126d5826143f0565b803b1561271c576126fd9383604051809681958294633625b75960e21b8452600484016143fa565b03925af180156107bc5761270f575080f35b806107b061105692611930565b8280fd5b806107b061272d92611930565b386126b6565b8380fd5b346103b957600060203660031901126127985760025481906001600160a01b0316803b1561279557819060246040518094819363442da34b60e11b835260043560048401525af180156107bc5761278c575080f35b61105690611930565b50fd5b80fd5b346103b95760203660031901126103b957602061044b6004356127bd81610455565b6146c1565b346103b95760003660031901126103b9576010546040516001600160a01b039091168152602090f35b346103b95760403660031901126103b957602435600435600052600c60205260406000209080825411156128425761282291611518565b905460405160039290921b1c6001600160a01b0316815280602081010390f35b60405162461bcd60e51b815260206004820152602260248201527f456e756d657261626c655365743a20696e646578206f7574206f6620626f756e604482015261647360f01b6064820152608490fd5b346103b95760403660031901126103b957602061044b6024356128b481610455565b6004356000908152600c845260408082206001600160a01b03909316825260019092016020522054151590565b346103b95760203660031901126103b95760206105e060043561290381610455565b615160565b346103b9576040806003193601126103b9576004803561292781610455565b6024356001600160401b0381116103b9576129459036908401611a23565b6005546001600160a01b039081169490929190612963861515613602565b612971848654161515613662565b8360035416936129828515156136c4565b6001600160a01b038481166000908152600960205260409020546129a7911615613263565b808416956129b6871515613341565b6129db611b4e6106c9610ac68860018060a01b03166000526009602052604060002090565b825163220bbb4b60e21b815260209890898184818c5afa80156107bc57612a0991600091612b2d5750614837565b835163570ca73560e01b815296898884818c5afa9283156107bc57612a3f8b94612a5e9a600091612b10575b5086163314614891565b60008651809a8195829463732518fb60e11b84528b8d309286016148dd565b03925af19384156107bc57611c6e610c4d95611c73937f0f401d1bd976f5304ef9cfa87aeb24d777c0e205fb87bbae1dc0f0293ba7976a98600092612aee575b5060009082169a612ab08c1515613341565b612abb611c2f6119b5565b820152600085820181905260608201819052608082018190526001600160a01b03841681526009602052604090206134b5565b6000919250612b09908c8d3d10610ec757610eb88183611994565b9190612a9e565b612b279150863d8811610ec757610eb88183611994565b38612a35565b611cd491508b3d8d116109c2576109b48183611994565b346103b95760003660031901126103b957602060405160008152f35b346103b95760203660031901126103b957602061044b600435612b8281610455565b6001600160a01b03166000908152600960205260409020600201546001600160801b0316151590565b346103b95760203660031901126103b95760206105e0600435612bcd81610455565b6001600160a01b039081166000908152600984526040902054166150be565b346103b95760003660031901126103b9576003546040516001600160a01b039091168152602090f35b346103b95760203660031901126103b9573360009081526000805160206153de833981519152602052604090205460043590612c52901515613206565b600254612c69906001600160a01b031615156142db565b600854908160011c811115612cbd57612c87612c8c9282111561433c565b600a55565b600a546040519081527f027863d12a407097e086a48e36475bfc859d0b200b7e6f65b5fd3b218e46632e90602090a1005b60405162461bcd60e51b815260206004820152601c60248201527f44414f436f6d6d69747465653a20696e76616c69642071756f72756d000000006044820152606490fd5b346103b95760003660031901126103b957604051630d90703f60e31b8152602081600481335afa80156107bc57612d6591600091612dc6575b506001600160a01b03166000908152600960205260409020600201546001600160801b0316151590565b15612d755761059b611f6a613c28565b60405162461bcd60e51b815260206004820152602360248201527f53746f726167655374617465436f6d6d69747465653a206e6f742061206d656d6044820152623132b960e91b6064820152608490fd5b612dde915060203d8111610ec757610eb88183611994565b38612d3b565b346103b9576115c4612df536612229565b6001600160a01b03928316600090815260096020526040902054909216613daa565b346103b95760203660031901126103b957600435600052600c6020526020604060002054604051908152f35b346103b95760003660031901126103b9576000546040516001600160a01b039091168152602090f35b346103b95760003660031901126103b9576004546040516001600160a01b039091168152602090f35b346103b95760203660031901126103b957602061044b600435612eb781610455565b614ec7565b346103b95760206105e0612ef3612ed23661059f565b6001600160a01b039182166000908152600960205260409020549092911690565b615116565b346103b95760403660031901126103b957602435600435612f1882610455565b600091818352600c60205260026040842001548352612f4a336040852060019160005201602052604060002054151590565b15612f58576110569161300c565b60405162461bcd60e51b815260206004820152603060248201527f416363657373436f6e74726f6c3a2073656e646572206d75737420626520616e60448201526f2061646d696e20746f207265766f6b6560801b6064820152608490fd5b6000818152600c6020526040902090916001600160a01b031690612fdb908290613062565b612fe3575050565b33917f2f8788117e7eff1d82e926ec794901d17c78024a50270940304540a733656f0d600080a4565b6000818152600c6020526040902090916001600160a01b031690613031908290613162565b613039575050565b33917ff6391f5c32d9c69d2a47ea670b442974b53935d1edc7fd64eb21e047a839171b600080a4565b60008281526001820160205260409020546130c957805490600160401b82101561192b57826130b261309b846001809601855584611518565b819391549060031b91821b91600019901b19161790565b905580549260005201602052604060002055600190565b5050600090565b634e487b7160e01b600052601160045260246000fd5b60001981019190821161041b57565b9190820391821161041b57565b906001820180921161041b57565b9190820180921161041b57565b634e487b7160e01b600052603160045260246000fd5b805490811561315d576000199182019161314d8383611518565b909182549160031b1b1916905555565b61311d565b9060018201908060005281602052604060002054918215156000146131fd5760001983810193841161041b57845490810190811161041b57846131f7946131e26131d16131b46131e89560009a611518565b90549060031b1c92836131ca61309b8388611518565b9055613102565b918590600052602052604060002090565b55613133565b90600052602052604060002090565b55600190565b50505050600090565b1561320d57565b60405162461bcd60e51b815260206004820152602860248201527f44414f436f6d6d69747465653a206d73672e73656e646572206973206e6f742060448201526730b71030b236b4b760c11b6064820152608490fd5b1561326a57565b60405162461bcd60e51b815260206004820152602960248201527f44414f436f6d6d69747465653a2063616e64696461746520616c7265616479206044820152681c9959da5cdd195c9960ba1b6064820152608490fd5b908160209103126103b957516105c481610455565b908060209392818452848401376000828201840152601f01601f1916010190565b939594906133286080949360018060a01b03948580941688526000602089015260a0604089015260a08801916132d6565b9616606085015216910152565b6040513d6000823e3d90fd5b1561334857565b60405162461bcd60e51b815260206004820152603060248201527f44414f436f6d6d69747465653a206465706c6f7965642063616e64696461746560448201526f436f6e7472616374206973207a65726f60801b6064820152608490fd5b156133ad57565b60405162461bcd60e51b815260206004820152603060248201527f44414f436f6d6d69747465653a205468652063616e64696461746520616c726560448201526f18591e481a185cc818dbdb9d1c9858dd60821b6064820152608490fd5b801515036103b957565b51906119c28261340b565b908160209103126103b957516105c48161340b565b1561343c57565b60405162461bcd60e51b815260206004820152603060248201527f44414f436f6d6d69747465653a206661696c656420746f20726567697374657260448201526f416e644465706c6f79436f696e61676560801b6064820152608490fd5b906001600160801b03166001600160801b0319825416179055565b815181546001600160a01b0319166001600160a01b03919091161781556119c291600390602081015160018401556080600284019161352b6001600160801b0393613506856040850151168261349a565b606083015181546001600160801b031690861660801b6001600160801b031916179055565b015116910161349a565b60065490600160401b82101561192b5760018201806006558210156115135760066000527ff652222313e28459528d920b65115c16c04f3efc82aaedc97be59f3f377c0d3f90910180546001600160a01b0319166001600160a01b03909216919091179055565b600754600160401b81101561192b5760018101806007558110156115135760076000527fa66cc928b5edb82af9bd49922954155ab7b0942694bea4ce44661d9a8736c6880180546001600160a01b0319169055565b9160206105c49381815201916132d6565b1561360957565b60405162461bcd60e51b815260206004820152602b60248201527f53746f726167655374617465436f6d6d69747465653a20696e76616c6964205360448201526a6569674d616e616765726560a81b6064820152608490fd5b1561366957565b60405162461bcd60e51b815260206004820152602d60248201527f53746f726167655374617465436f6d6d69747465653a20696e76616c6964204c60448201526c6179657232526567697374727960981b6064820152608490fd5b156136cb57565b60405162461bcd60e51b815260206004820152603160248201527f53746f726167655374617465436f6d6d69747465653a20696e76616c696420436044820152706f6d6d69747465654c32466163746f727960781b6064820152608490fd5b1561373157565b60405162461bcd60e51b815260206004820152601060248201526f185b1c9958591e481b5a59dc985d195960821b6044820152606490fd5b815181546001600160a01b039182166001600160a01b031991821617835560208401516001840180549190931691161790556119c2916004906040810151600284015560a0600384019161352b6001600160801b03936137cf856060850151168261349a565b60808381015182546001600160801b031690871690911b6001600160801b031916179055565b156137fc57565b60405162461bcd60e51b815260206004820152602260248201527f44414f436f6d6d69747465653a20696e76616c6964206d656d62657220696e646044820152610caf60f31b6064820152608490fd5b1561385357565b60405162461bcd60e51b815260206004820152603060248201527f44414f436f6d6d69747465653a2073656e646572206973206e6f74206120636160448201526f1b991a59185d194818dbdb9d1c9858dd60821b6064820152608490fd5b156138b857565b60405162461bcd60e51b815260206004820152602860248201527f44414f436f6d6d69747465653a20696e76616c69642063616e6469646174652060448201526718dbdb9d1c9858dd60c21b6064820152608490fd5b1561391557565b60405162461bcd60e51b815260206004820152601c60248201527f44414f436f6d6d69747465653a20616c7265616479206d656d626572000000006044820152606490fd5b908160209103126103b9575190565b1561397057565b60405162461bcd60e51b81526020600482015260116024820152701b9bdd08195b9bdd59da08185b5bdd5b9d607a1b6044820152606490fd5b60408051630d90703f60e31b815291906020908184600481335afa9384156107bc57600094613c09575b506001600160a01b0384166000908152600960205260409020938151631dffc87160e21b81528381600481335afa80156107bc57613a1991600091613bec575b5061384c565b84546001600160a01b039290613a3490339085908116610ad3565b60028601906001600160801b03613a5d81613a5685546001600160801b031690565b161561390e565b866001613a6c611d44836114dc565b99613a99613a8f610ac68d60018060a01b03166000526009602052604060002090565b968542169061349a565b0155613aa884611eaa896114dc565b84881615613bbf5781516340bd8e6960e11b80825291908781600481335afa9485156107bc5787938992600097613b9d575b50600490865195869384928352165afa9687156107bc576000805160206153fe83398151915297613b7695613b5b94613b1d93600093613b7e575b505011613969565b611de6611dc6611dba6002613b448d60018060a01b03166000526009602052604060002090565b600060018201550193611db18554918216426130f5565b516001600160a01b0390961686529116939081906020820190565b0390a3600190565b613b95929350803d106118ed576118dd8183611994565b903880613b15565b6004919750613bb890843d86116118ed576118dd8183611994565b9690613ada565b50516001600160a01b0390961686525016926000805160206153fe83398151915291508060208101613b76565b613c039150853d87116109c2576109b48183611994565b38613a13565b613c21919450823d8411610ec757610eb88183611994565b92386139d3565b604051630d90703f60e31b8152602081600481335afa80156107bc576000918291613cf8575b506001600160a01b038181166000908152600960205260409020805490926000805160206153fe83398151915292613b7692613c8d9133918116610ad3565b613cd860026001860195613cb9613ca488546114dc565b81549060018060a01b039060031b1b19169055565b01611de6611dc6611dba8354611db16001600160801b038216426130f5565b8354938590556040516001600160a01b0390911681529081906020820190565b613d10915060203d8111610ec757610eb88183611994565b38613c4e565b15613d1d57565b60405162461bcd60e51b815260206004820152603a60248201527f44414f436f6d6d69747465653a2073656e646572206973206e6f74207468652060448201527f63616e646964617465206f66207468697320636f6e74726163740000000000006064820152608490fd5b6001600160a01b0390911681526040602082018190526105c4939101916132d6565b604051630d90703f60e31b81526001600160a01b039182169390916020908184600481895afa9384156107bc57600094613f09575b5060405163136c704d60e31b8152849083816004818b5afa9081156107bc57600091613eec575b50613e9d575b613e199250163314613d16565b833b156103b957600060405180956325d6086160e01b8252818381613e42878a600484016135f1565b03925af19081156107bc577fda033346b344f4675799a7ab4d837f0deb62d4afcdcaba4613913b4c25838cb394613e8592613e8a575b5060405193849384613d88565b0390a1565b806107b0613e9792611930565b38613e78565b5060405163570ca73560e01b815282816004818886165afa9081156107bc57613e1993600092613ecf575b5050613e0c565b613ee59250803d10610ec757610eb88183611994565b3880613ec8565b613f039150843d86116109c2576109b48183611994565b38613e06565b613f21919450823d8411610ec757610eb88183611994565b9238613ddf565b600754801561315d5760001981019080821015611513577fa66cc928b5edb82af9bd49922954155ab7b0942694bea4ce44661d9a8736c687906007600052016bffffffffffffffffffffffff60a01b8154169055600755565b15613f8857565b60405162461bcd60e51b815260206004820152601160248201527024ba13b9903737ba10333937b6902a27a760791b6044820152606490fd5b600019811461041b5760010190565b80518210156115135760209160051b010190565b60405190613ff18261195e565b60048252633bc3556560e21b6020830152565b604051906140118261195e565b60048252637c24048d60e11b6020830152565b604051906140318261195e565b60048252630f52bba760e41b6020830152565b1561404b57565b60405162461bcd60e51b815260206004820152600b60248201526a30b6b7bab73a1037bb32b960a91b6044820152606490fd5b1561408557565b60405162461bcd60e51b815260206004820152601760248201527f636c61696d455243323020746f6e20646f6e74207573650000000000000000006044820152606490fd5b604051906bffffffffffffffffffffffff199060601b166020820152601481526105c48161195e565b60005b8381106141065750506000910152565b81810151838201526020016140f6565b90929192614123816119d1565b916141316040519384611994565b8294828452828201116103b95760206119c29301906140f3565b6020818303126103b9578051906001600160401b0382116103b957019080601f830112156103b95781516105c492602001614116565b9060209161419a815180928185528580860191016140f3565b601f01601f1916010190565b9060206105c4928181520190614181565b808151602081036141d7575050806020806105c49351830101910161395a565b6044839110614211576117bf9160248060046141f9940151830101910161414b565b60405162461bcd60e51b8152918291600483016141a6565b60405162461bcd60e51b815260206004820152601060248201526f2ab732bc3832b1ba32b21032b93937b960811b6044820152606490fd5b3360009081526000805160206153de8339815191526020526040902054614271901515613206565b600254614288906001600160a01b031615156142db565b600854908160011c811115612cbd57612c876142a69282111561433c565b600a546040519081527f027863d12a407097e086a48e36475bfc859d0b200b7e6f65b5fd3b218e46632e908060208101613e85565b156142e257565b60405162461bcd60e51b815260206004820152602c60248201527f53746f726167655374617465436f6d6d69747465653a204167656e64614d616e60448201526b61676572206973207a65726f60a01b6064820152608490fd5b1561434357565b60405162461bcd60e51b815260206004820152602660248201527f44414f436f6d6d69747465653a2071756f72756d20657863656564206d61782060448201526536b2b6b132b960d11b6064820152608490fd5b908160609103126103b9578051916040602083015192015190565b634e487b7160e01b600052602160045260246000fd5b600411156143d257565b6143b2565b9081526040810192919060048210156143d25760200152565b600611156143d257565b9081526040810192919060068210156143d25760200152565b6040906105c49492815281602082015201916132d6565b1561443157565b60405162461bcd60e51b815260206004820152602860248201527f44414f436f6d6d69747465653a2063616e206e6f74206578656375746520746860448201526765206167656e646160c01b6064820152608490fd5b6001600160401b03811161192b5760051b60200190565b81601f820112156103b9578051906144b582614487565b926040926144c584519586611994565b808552602093848087019260051b850101938385116103b957858101925b8584106144f4575050505050505090565b83516001600160401b0381116103b957820185603f820112156103b957879161452587838786809601519101614116565b8152019301926144e3565b9190916080818403126103b95780516001600160401b03908181116103b95782019380601f860112156103b957845161456881614487565b906145766040519283611994565b808252602096878084019260051b820101918483116103b95788809201905b8382106145cb5750505050948301519182116103b9576145b691830161449e565b9160606145c560408401613415565b92015190565b82809183516145d981610455565b815201910190614595565b3d1561460f573d906145f5826119d1565b916146036040519384611994565b82523d6000602084013e565b606090565b1561461b57565b60405162461bcd60e51b815260206004820152602a60248201527f44414f436f6d6d69747465653a204661696c656420746f206578656375746520604482015269746865206167656e646160b01b6064820152608490fd5b90815180825260208080930193019160005b828110614693575050505090565b83516001600160a01b031685529381019392810192600101614685565b9060206105c4928181520190614673565b602060009160018060a01b03809116835260098252604083205416600460405180948193633b253c2b60e11b83525af19081156107bc57600091614703575090565b6105c4915060203d81116109c2576109b48183611994565b60005b82811061472d57505050600190565b6147408160051b8301356127bd81610455565b156147535761474e90613fc1565b61471e565b60405162461bcd60e51b815260206004820152602a60248201527f44414f436f6d6d69747465653a206661696c656420746f2075706461746520736044820152696569676e696f7261676560b01b6064820152608490fd5b156147b257565b60405162461bcd60e51b815260206004820152602b60248201527f44414f436f6d6d69747465653a20796f7520646f6e2774206861766520636c6160448201526a34b6b0b13632903bba37b760a91b6064820152608490fd5b90633b9aca009182810292818404149015171561041b57565b8181029291811591840414171561041b57565b1561483e57565b60405162461bcd60e51b815260206004820152602560248201527f44414f436f6d6d69747465653a20696e76616c6964206c617965723220636f6e6044820152641d1c9858dd60da1b6064820152608490fd5b1561489857565b60405162461bcd60e51b815260206004820152601e60248201527f44414f436f6d6d69747465653a20696e76616c6964206f70657261746f7200006044820152606490fd5b9294936080929161332860018060a01b03938480931687526001602088015260a0604088015260a0870190614181565b35906001600160801b03821682036103b957565b35906119c28261340b565b81601f820112156103b95780359061494382614487565b9260409261495384519586611994565b808552602093848087019260051b850101938385116103b957858101925b858410614982575050505050505090565b83356001600160401b0381116103b957820185603f820112156103b95787916149b3878387868096013591016119ec565b815201930192614971565b9190916040516149cd81611943565b60608152602091828201600091828252604084018381526060850193808552608086019460608652869984019560a08588031261271c576001600160401b03968535888111614aea5786019981601f8c011215614aea578a359a614a308c614487565b9b82806040519e8f90614a439082611994565b838152019160051b83010191848311614ae6578301905b828210614acd57505050614a6f90870161490d565b97614a7c6040880161490d565b96614a8960608201614921565b956080820135928311612798575092614ab3614aca9a99989693614abc989693614abc960161492c565b90529015159052565b906001600160801b03169052565b52565b8380918335614adb81610455565b815201910190614a5a565b8780fd5b8480fd5b9092949360018060a01b0392836002541695614b0b8715156142db565b6040518097632522a32f60e01b825281600460209a8b935afa9081156107bc57600091614d15575b50600054614b4b906106c9906001600160a01b031681565b6040516323b872dd60e01b81526001600160a01b038716600482015230602482015260448101839052908990829060649082906000905af180156107bc57600092614ba2614be1928c948691614cf8575b50614dff565b8354614bb8906106c9906001600160a01b031681565b9060405194858094819363a9059cbb60e01b835260048301919060206040840193600181520152565b03925af180156107bc578492614c028b928b94600091614cdb575b50614e65565b8460008a614c3b614c1d6106c960025460018060a01b031690565b94604051988997889687956304a091b760e31b875260048701614d32565b03925af19687156107bc57600097614c8e575b50507fcd47bcad760e912d146723a314cc78b8570ee76ec8bdd4b60335087f6c2f47d79392918697614c8892604051958695169785614dc8565b0390a390565b614c889297507fcd47bcad760e912d146723a314cc78b8570ee76ec8bdd4b60335087f6c2f47d79594939181614ccf92903d106118ed576118dd8183611994565b96918193949550614c4e565b614cf29150853d87116109c2576109b48183611994565b38614bfc565b614d0f9150853d87116109c2576109b48183611994565b38614b9c565b614d2c9150883d8a116118ed576118dd8183611994565b38614b33565b91929390614d489060a0845260a0840190614673565b936001600160801b03908160209516858501521660408301521515606082015260808184039101528251908183528083019281808460051b8301019501936000915b848310614d9a5750505050505090565b9091929394958480614db8600193601f198682030187528a51614181565b9801930193019194939290614d8a565b9294939091614de1606093608086526080860190614673565b956001600160801b0380921660208601521660408401521515910152565b15614e0657565b60405162461bcd60e51b815260206004820152603160248201527f44414f436f6d6d69747465653a206661696c656420746f207472616e73666572604482015270103a37b710333937b69031b932b0ba37b960791b6064820152608490fd5b15614e6c57565b60405162461bcd60e51b815260206004820152601c60248201527f44414f436f6d6d69747465653a206661696c656420746f206275726e000000006044820152606490fd5b906000929183602081940191619c3f195a01f190565b6001600160a01b0390811660009081526009602052604090205416801561500f57604051906020828180809501916301ffc9a760e01b9283815283602483015260248252614f1482611979565b60009687809351617530938985fa933d83519086615004575b5085614ffa575b5084614f9c575b5050505080614f8d575b15614f88578060049260405193848092631dffc87160e21b82525afa9283156107bc5792614f7257505090565b6105c49250803d106109c2576109b48183611994565b505090565b50614f9782615015565b614f45565b90919293508560405185810192835263ffffffff60e01b602482015260248152614fc581611979565b5192fa8351823d83614fef575b505081614fe5575b501581843880614f3b565b9050151538614fda565b101591508238614fd2565b1515945038614f34565b851115955038614f2d565b50600090565b6000602091604051838101906301ffc9a760e01b8252631dffc87160e21b60248201526024815261504581611979565b5191617530fa6000513d82615066575b508161505f575090565b9050151590565b60201115915038615055565b1561507957565b60405162461bcd60e51b815260206004820152601f60248201527f54686973206163636f756e74206973206e6f7420612063616e646964617465006044820152606490fd5b6004906020906001600160a01b03166150d8811515615072565b6040516340bd8e6960e11b815292839182905afa9081156107bc576000916150fe575090565b6105c4915060203d81116118ed576118dd8183611994565b6001600160a01b039081169160209190602490615134851515615072565b604051948593849263af500ba360e01b84521660048301525afa9081156107bc576000916150fe575090565b6001600160a01b031660009081526009602052604090206002810154608081901c916001600160801b039182169190826151a5575b5050506105c490600b5490614824565b6003015416808211156151d257506151ca906151c56105c4934290613110565b6130f5565b903880615195565b905042820180921161041b57810390811161041b576105c4906151ca565b156151f757565b60405162461bcd60e51b8152602060048201526011602482015270736c6963655f6f75744f66426f756e647360781b6044820152606490fd5b61523e6004825110156151f0565b6040519060048083019101600883015b80831061526857505060048252601f01601f191660405290565b909182518152602080910192019061524e565b6152896044825110156151f0565b60405190600e820190602401603c83015b8083106152b4575050602e8252601f01601f191660405290565b909182518152602080910192019061529a565b6152d5602e825110156151f0565b60405190602080830191602e604085019101905b8084106153015750508252601f01601f191660405290565b8151845292820192908201906152e9565b6153206024825110156151f0565b604051906014820190602401602883015b80831061534b57505060148252601f01601f191660405290565b9091825181526020809101920190615331565b600191815191815183146001146153785750505050600090565b8360208080958185019401019301915b600282858310011461539c57505050505090565b82518151036153b1575b918401918401615388565b600095508591506153a656fefa0761008653bc7bf9fa040fb7e07672ad3e17a976eb452c44e81dd782a6214b13649b2456f1b42fef0f0040b3aaeabcd21a76a0f3f5defd4f583839455116e9663b98adf1afa777e36528b3293a057803f87ed00d2d2518dccfe5d7a6e99ccfa164736f6c6343000812000a",
  "linkReferences": {},
  "deployedLinkReferences": {}
}