{
  "_format": "hh-sol-artifact-1",
  "contractName": "DAOCommitteeDAOVault",
  "sourceName": "contracts/dao/DAOCommitteeDAOVault.sol",
  "abi": [
    {
      "anonymous": false,
      "inputs": [
        {
          "indexed": true,
          "internalType": "address",
          "name": "from",
          "type": "address"
        },
        {
          "indexed": true,
          "internalType": "uint256",
          "name": "id",
          "type": "uint256"
        },
        {
          "indexed": false,
          "internalType": "address[]",
          "name": "targets",
          "type": "address[]"
        },
        {
          "indexed": false,
          "internalType": "uint128",
          "name": "noticePeriodSeconds",
          "type": "uint128"
        },
        {
          "indexed": false,
          "internalType": "uint128",
          "name": "votingPeriodSeconds",
          "type": "uint128"
        },
        {
          "indexed": false,
          "internalType": "bool",
          "name": "atomicExecute",
          "type": "bool"
        }
      ],
      "name": "AgendaCreated",
      "type": "event"
    },
    {
      "anonymous": false,
      "inputs": [
        {
          "indexed": true,
          "internalType": "uint256",
          "name": "id",
          "type": "uint256"
        },
        {
          "indexed": false,
          "internalType": "address[]",
          "name": "target",
          "type": "address[]"
        }
      ],
      "name": "AgendaExecuted",
      "type": "event"
    },
    {
      "anonymous": false,
      "inputs": [
        {
          "indexed": true,
          "internalType": "address",
          "name": "from",
          "type": "address"
        },
        {
          "indexed": true,
          "internalType": "uint256",
          "name": "id",
          "type": "uint256"
        },
        {
          "indexed": false,
          "internalType": "uint256",
          "name": "voting",
          "type": "uint256"
        },
        {
          "indexed": false,
          "internalType": "string",
          "name": "comment",
          "type": "string"
        }
      ],
      "name": "AgendaVoteCasted",
      "type": "event"
    },
    {
      "anonymous": false,
      "inputs": [
        {
          "indexed": true,
          "internalType": "address",
          "name": "candidate",
          "type": "address"
        },
        {
          "indexed": true,
          "internalType": "address",
          "name": "candidateContract",
          "type": "address"
        },
        {
          "indexed": false,
          "internalType": "string",
          "name": "memo",
          "type": "string"
        }
      ],
      "name": "CandidateContractCreated",
      "type": "event"
    },
    {
      "anonymous": false,
      "inputs": [
        {
          "indexed": true,
          "internalType": "uint256",
          "name": "slotIndex",
          "type": "uint256"
        },
        {
          "indexed": false,
          "internalType": "address",
          "name": "prevMember",
          "type": "address"
        },
        {
          "indexed": true,
          "internalType": "address",
          "name": "newMember",
          "type": "address"
        }
      ],
      "name": "ChangedMember",
      "type": "event"
    },
    {
      "anonymous": false,
      "inputs": [
        {
          "indexed": false,
          "internalType": "address",
          "name": "candidate",
          "type": "address"
        },
        {
          "indexed": false,
          "internalType": "string",
          "name": "newMemo",
          "type": "string"
        }
      ],
      "name": "ChangedMemo",
      "type": "event"
    },
    {
      "anonymous": false,
      "inputs": [
        {
          "indexed": true,
          "internalType": "uint256",
          "name": "prevSlotMax",
          "type": "uint256"
        },
        {
          "indexed": true,
          "internalType": "uint256",
          "name": "slotMax",
          "type": "uint256"
        }
      ],
      "name": "ChangedSlotMaximum",
      "type": "event"
    },
    {
      "anonymous": false,
      "inputs": [
        {
          "indexed": true,
          "internalType": "address",
          "name": "candidate",
          "type": "address"
        },
        {
          "indexed": false,
          "internalType": "address",
          "name": "receiver",
          "type": "address"
        },
        {
          "indexed": false,
          "internalType": "uint256",
          "name": "amount",
          "type": "uint256"
        }
      ],
      "name": "ClaimedActivityReward",
      "type": "event"
    },
    {
      "anonymous": false,
      "inputs": [
        {
          "indexed": true,
          "internalType": "address",
          "name": "candidate",
          "type": "address"
        },
        {
          "indexed": true,
          "internalType": "address",
          "name": "candidateContract",
          "type": "address"
        },
        {
          "indexed": false,
          "internalType": "string",
          "name": "memo",
          "type": "string"
        }
      ],
      "name": "Layer2Registered",
      "type": "event"
    },
    {
      "anonymous": false,
      "inputs": [
        {
          "indexed": false,
          "internalType": "uint256",
          "name": "newQuorum",
          "type": "uint256"
        }
      ],
      "name": "QuorumChanged",
      "type": "event"
    },
    {
      "anonymous": false,
      "inputs": [
        {
          "indexed": true,
          "internalType": "bytes32",
          "name": "role",
          "type": "bytes32"
        },
        {
          "indexed": true,
          "internalType": "bytes32",
          "name": "previousAdminRole",
          "type": "bytes32"
        },
        {
          "indexed": true,
          "internalType": "bytes32",
          "name": "newAdminRole",
          "type": "bytes32"
        }
      ],
      "name": "RoleAdminChanged",
      "type": "event"
    },
    {
      "anonymous": false,
      "inputs": [
        {
          "indexed": true,
          "internalType": "bytes32",
          "name": "role",
          "type": "bytes32"
        },
        {
          "indexed": true,
          "internalType": "address",
          "name": "account",
          "type": "address"
        },
        {
          "indexed": true,
          "internalType": "address",
          "name": "sender",
          "type": "address"
        }
      ],
      "name": "RoleGranted",
      "type": "event"
    },
    {
      "anonymous": false,
      "inputs": [
        {
          "indexed": true,
          "internalType": "bytes32",
          "name": "role",
          "type": "bytes32"
        },
        {
          "indexed": true,
          "internalType": "address",
          "name": "account",
          "type": "address"
        },
        {
          "indexed": true,
          "internalType": "address",
          "name": "sender",
          "type": "address"
        }
      ],
      "name": "RoleRevoked",
      "type": "event"
    },
    {
      "inputs": [],
      "name": "DEFAULT_ADMIN_ROLE",
      "outputs": [
        {
          "internalType": "bytes32",
          "name": "",
          "type": "bytes32"
        }
      ],
      "stateMutability": "view",
      "type": "function"
    },
    {
      "inputs": [
        {
          "internalType": "uint256",
          "name": "v",
          "type": "uint256"
        }
      ],
      "name": "_toRAY",
      "outputs": [
        {
          "internalType": "uint256",
          "name": "",
          "type": "uint256"
        }
      ],
      "stateMutability": "pure",
      "type": "function"
    },
    {
      "inputs": [],
      "name": "activityRewardPerSecond",
      "outputs": [
        {
          "internalType": "uint256",
          "name": "",
          "type": "uint256"
        }
      ],
      "stateMutability": "view",
      "type": "function"
    },
    {
      "inputs": [],
      "name": "agendaManager",
      "outputs": [
        {
          "internalType": "contract IDAOAgendaManager",
          "name": "",
          "type": "address"
        }
      ],
      "stateMutability": "view",
      "type": "function"
    },
    {
      "inputs": [
        {
          "internalType": "address",
          "name": "_candidate",
          "type": "address"
        },
        {
          "internalType": "address",
          "name": "_account",
          "type": "address"
        }
      ],
      "name": "balanceOfOnCandidate",
      "outputs": [
        {
          "internalType": "uint256",
          "name": "amount",
          "type": "uint256"
        }
      ],
      "stateMutability": "view",
      "type": "function"
    },
    {
      "inputs": [
        {
          "internalType": "address",
          "name": "_candidateContract",
          "type": "address"
        },
        {
          "internalType": "address",
          "name": "_account",
          "type": "address"
        }
      ],
      "name": "balanceOfOnCandidateContract",
      "outputs": [
        {
          "internalType": "uint256",
          "name": "amount",
          "type": "uint256"
        }
      ],
      "stateMutability": "view",
      "type": "function"
    },
    {
      "inputs": [
        {
          "internalType": "address",
          "name": "_candidate",
          "type": "address"
        }
      ],
      "name": "candidateContract",
      "outputs": [
        {
          "internalType": "address",
          "name": "",
          "type": "address"
        }
      ],
      "stateMutability": "view",
      "type": "function"
    },
    {
      "inputs": [],
      "name": "candidateFactory",
      "outputs": [
        {
          "internalType": "contract ICandidateFactory",
          "name": "",
          "type": "address"
        }
      ],
      "stateMutability": "view",
      "type": "function"
    },
    {
      "inputs": [
        {
          "internalType": "address",
          "name": "_candidate",
          "type": "address"
        }
      ],
      "name": "candidateInfos",
      "outputs": [
        {
          "components": [
            {
              "internalType": "address",
              "name": "candidateContract",
              "type": "address"
            },
            {
              "internalType": "uint256",
              "name": "indexMembers",
              "type": "uint256"
            },
            {
              "internalType": "uint128",
              "name": "memberJoinedTime",
              "type": "uint128"
            },
            {
              "internalType": "uint128",
              "name": "rewardPeriod",
              "type": "uint128"
            },
            {
              "internalType": "uint128",
              "name": "claimedTimestamp",
              "type": "uint128"
            }
          ],
          "internalType": "struct StorageStateCommittee.CandidateInfo",
          "name": "",
          "type": "tuple"
        }
      ],
      "stateMutability": "view",
      "type": "function"
    },
    {
      "inputs": [
        {
          "internalType": "uint256",
          "name": "",
          "type": "uint256"
        }
      ],
      "name": "candidates",
      "outputs": [
        {
          "internalType": "address",
          "name": "",
          "type": "address"
        }
      ],
      "stateMutability": "view",
      "type": "function"
    },
    {
      "inputs": [],
      "name": "candidatesLength",
      "outputs": [
        {
          "internalType": "uint256",
          "name": "",
          "type": "uint256"
        }
      ],
      "stateMutability": "view",
      "type": "function"
    },
    {
      "inputs": [
        {
          "internalType": "uint256",
          "name": "_agendaID",
          "type": "uint256"
        },
        {
          "internalType": "uint256",
          "name": "_vote",
          "type": "uint256"
        },
        {
          "internalType": "string",
          "name": "_comment",
          "type": "string"
        }
      ],
      "name": "castVote",
      "outputs": [],
      "stateMutability": "nonpayable",
      "type": "function"
    },
    {
      "inputs": [
        {
          "internalType": "uint256",
          "name": "_memberIndex",
          "type": "uint256"
        }
      ],
      "name": "changeMember",
      "outputs": [
        {
          "internalType": "bool",
          "name": "",
          "type": "bool"
        }
      ],
      "stateMutability": "nonpayable",
      "type": "function"
    },
    {
      "inputs": [
        {
          "internalType": "address",
          "name": "_receiver",
          "type": "address"
        }
      ],
      "name": "claimActivityReward",
      "outputs": [],
      "stateMutability": "nonpayable",
      "type": "function"
    },
    {
      "inputs": [
        {
          "internalType": "string",
          "name": "_memo",
          "type": "string"
        },
        {
          "internalType": "address",
          "name": "_operatorAddress",
          "type": "address"
        }
      ],
      "name": "createCandidate",
      "outputs": [],
      "stateMutability": "nonpayable",
      "type": "function"
    },
    {
      "inputs": [
        {
          "internalType": "string",
          "name": "_memo",
          "type": "string"
        }
      ],
      "name": "createCandidate",
      "outputs": [],
      "stateMutability": "nonpayable",
      "type": "function"
    },
    {
      "inputs": [],
      "name": "daoVault",
      "outputs": [
        {
          "internalType": "contract IDAOVault",
          "name": "",
          "type": "address"
        }
      ],
      "stateMutability": "view",
      "type": "function"
    },
    {
      "inputs": [
        {
          "internalType": "uint256",
          "name": "_reducingMemberIndex",
          "type": "uint256"
        },
        {
          "internalType": "uint256",
          "name": "_quorum",
          "type": "uint256"
        }
      ],
      "name": "decreaseMaxMember",
      "outputs": [],
      "stateMutability": "nonpayable",
      "type": "function"
    },
    {
      "inputs": [
        {
          "internalType": "uint256",
          "name": "_agendaID",
          "type": "uint256"
        }
      ],
      "name": "endAgendaVoting",
      "outputs": [],
      "stateMutability": "nonpayable",
      "type": "function"
    },
    {
      "inputs": [
        {
          "internalType": "uint256",
          "name": "_agendaID",
          "type": "uint256"
        }
      ],
      "name": "executeAgenda",
      "outputs": [],
      "stateMutability": "nonpayable",
      "type": "function"
    },
    {
      "inputs": [
        {
          "internalType": "address",
          "name": "_candidate",
          "type": "address"
        }
      ],
      "name": "getClaimableActivityReward",
      "outputs": [
        {
          "internalType": "uint256",
          "name": "",
          "type": "uint256"
        }
      ],
      "stateMutability": "view",
      "type": "function"
    },
    {
      "inputs": [
        {
          "internalType": "address",
          "name": "_oldCandidate",
          "type": "address"
        }
      ],
      "name": "getOldCandidateInfos",
      "outputs": [
        {
          "components": [
            {
              "internalType": "address",
              "name": "candidateContract",
              "type": "address"
            },
            {
              "internalType": "address",
              "name": "newCandidate",
              "type": "address"
            },
            {
              "internalType": "uint256",
              "name": "indexMembers",
              "type": "uint256"
            },
            {
              "internalType": "uint128",
              "name": "memberJoinedTime",
              "type": "uint128"
            },
            {
              "internalType": "uint128",
              "name": "rewardPeriod",
              "type": "uint128"
            },
            {
              "internalType": "uint128",
              "name": "claimedTimestamp",
              "type": "uint128"
            }
          ],
          "internalType": "struct StorageStateCommitteeV2.CandidateInfo2",
          "name": "",
          "type": "tuple"
        }
      ],
      "stateMutability": "view",
      "type": "function"
    },
    {
      "inputs": [
        {
          "internalType": "bytes32",
          "name": "role",
          "type": "bytes32"
        }
      ],
      "name": "getRoleAdmin",
      "outputs": [
        {
          "internalType": "bytes32",
          "name": "",
          "type": "bytes32"
        }
      ],
      "stateMutability": "view",
      "type": "function"
    },
    {
      "inputs": [
        {
          "internalType": "bytes32",
          "name": "role",
          "type": "bytes32"
        },
        {
          "internalType": "uint256",
          "name": "index",
          "type": "uint256"
        }
      ],
      "name": "getRoleMember",
      "outputs": [
        {
          "internalType": "address",
          "name": "",
          "type": "address"
        }
      ],
      "stateMutability": "view",
      "type": "function"
    },
    {
      "inputs": [
        {
          "internalType": "bytes32",
          "name": "role",
          "type": "bytes32"
        }
      ],
      "name": "getRoleMemberCount",
      "outputs": [
        {
          "internalType": "uint256",
          "name": "",
          "type": "uint256"
        }
      ],
      "stateMutability": "view",
      "type": "function"
    },
    {
      "inputs": [
        {
          "internalType": "bytes32",
          "name": "role",
          "type": "bytes32"
        },
        {
          "internalType": "address",
          "name": "account",
          "type": "address"
        }
      ],
      "name": "grantRole",
      "outputs": [],
      "stateMutability": "nonpayable",
      "type": "function"
    },
    {
      "inputs": [
        {
          "internalType": "bytes32",
          "name": "role",
          "type": "bytes32"
        },
        {
          "internalType": "address",
          "name": "account",
          "type": "address"
        }
      ],
      "name": "hasRole",
      "outputs": [
        {
          "internalType": "bool",
          "name": "",
          "type": "bool"
        }
      ],
      "stateMutability": "view",
      "type": "function"
    },
    {
      "inputs": [
        {
          "internalType": "uint256",
          "name": "_newMaxMember",
          "type": "uint256"
        },
        {
          "internalType": "uint256",
          "name": "_quorum",
          "type": "uint256"
        }
      ],
      "name": "increaseMaxMember",
      "outputs": [],
      "stateMutability": "nonpayable",
      "type": "function"
    },
    {
      "inputs": [
        {
          "internalType": "address",
          "name": "_candidate",
          "type": "address"
        }
      ],
      "name": "isCandidate",
      "outputs": [
        {
          "internalType": "bool",
          "name": "",
          "type": "bool"
        }
      ],
      "stateMutability": "view",
      "type": "function"
    },
    {
      "inputs": [
        {
          "internalType": "address",
          "name": "_candidate",
          "type": "address"
        }
      ],
      "name": "isExistCandidate",
      "outputs": [
        {
          "internalType": "bool",
          "name": "isExist",
          "type": "bool"
        }
      ],
      "stateMutability": "view",
      "type": "function"
    },
    {
      "inputs": [
        {
          "internalType": "address",
          "name": "_candidate",
          "type": "address"
        }
      ],
      "name": "isMember",
      "outputs": [
        {
          "internalType": "bool",
          "name": "",
          "type": "bool"
        }
      ],
      "stateMutability": "view",
      "type": "function"
    },
    {
      "inputs": [],
      "name": "layer2Registry",
      "outputs": [
        {
          "internalType": "contract ILayer2Registry",
          "name": "",
          "type": "address"
        }
      ],
      "stateMutability": "view",
      "type": "function"
    },
    {
      "inputs": [],
      "name": "maxMember",
      "outputs": [
        {
          "internalType": "uint256",
          "name": "",
          "type": "uint256"
        }
      ],
      "stateMutability": "view",
      "type": "function"
    },
    {
      "inputs": [
        {
          "internalType": "uint256",
          "name": "",
          "type": "uint256"
        }
      ],
      "name": "members",
      "outputs": [
        {
          "internalType": "address",
          "name": "",
          "type": "address"
        }
      ],
      "stateMutability": "view",
      "type": "function"
    },
    {
      "inputs": [
        {
          "internalType": "address",
          "name": "owner",
          "type": "address"
        },
        {
          "internalType": "address",
          "name": "",
          "type": "address"
        },
        {
          "internalType": "uint256",
          "name": "",
          "type": "uint256"
        },
        {
          "internalType": "bytes",
          "name": "data",
          "type": "bytes"
        }
      ],
      "name": "onApprove",
      "outputs": [
        {
          "internalType": "bool",
          "name": "",
          "type": "bool"
        }
      ],
      "stateMutability": "nonpayable",
      "type": "function"
    },
    {
      "inputs": [],
      "name": "pauseProxy",
      "outputs": [
        {
          "internalType": "bool",
          "name": "",
          "type": "bool"
        }
      ],
      "stateMutability": "view",
      "type": "function"
    },
    {
      "inputs": [],
      "name": "quorum",
      "outputs": [
        {
          "internalType": "uint256",
          "name": "",
          "type": "uint256"
        }
      ],
      "stateMutability": "view",
      "type": "function"
    },
    {
      "inputs": [
        {
          "internalType": "address",
          "name": "_layer2",
          "type": "address"
        },
        {
          "internalType": "string",
          "name": "_memo",
          "type": "string"
        }
      ],
      "name": "registerLayer2Candidate",
      "outputs": [],
      "stateMutability": "nonpayable",
      "type": "function"
    },
    {
      "inputs": [
        {
          "internalType": "address",
          "name": "_operator",
          "type": "address"
        },
        {
          "internalType": "address",
          "name": "_layer2",
          "type": "address"
        },
        {
          "internalType": "string",
          "name": "_memo",
          "type": "string"
        }
      ],
      "name": "registerLayer2CandidateByOwner",
      "outputs": [],
      "stateMutability": "nonpayable",
      "type": "function"
    },
    {
      "inputs": [
        {
          "internalType": "bytes32",
          "name": "role",
          "type": "bytes32"
        },
        {
          "internalType": "address",
          "name": "account",
          "type": "address"
        }
      ],
      "name": "renounceRole",
      "outputs": [],
      "stateMutability": "nonpayable",
      "type": "function"
    },
    {
      "inputs": [],
      "name": "retireMember",
      "outputs": [
        {
          "internalType": "bool",
          "name": "",
          "type": "bool"
        }
      ],
      "stateMutability": "nonpayable",
      "type": "function"
    },
    {
      "inputs": [
        {
          "internalType": "bytes32",
          "name": "role",
          "type": "bytes32"
        },
        {
          "internalType": "address",
          "name": "account",
          "type": "address"
        }
      ],
      "name": "revokeRole",
      "outputs": [],
      "stateMutability": "nonpayable",
      "type": "function"
    },
    {
      "inputs": [],
      "name": "seigManager",
      "outputs": [
        {
          "internalType": "contract ISeigManager",
          "name": "",
          "type": "address"
        }
      ],
      "stateMutability": "view",
      "type": "function"
    },
    {
      "inputs": [
        {
          "internalType": "uint256",
          "name": "_agendaID",
          "type": "uint256"
        },
        {
          "internalType": "uint256",
          "name": "_status",
          "type": "uint256"
        },
        {
          "internalType": "uint256",
          "name": "_result",
          "type": "uint256"
        }
      ],
      "name": "setAgendaStatus",
      "outputs": [],
      "stateMutability": "nonpayable",
      "type": "function"
    },
    {
      "inputs": [
        {
          "internalType": "address",
          "name": "_candidate",
          "type": "address"
        },
        {
          "internalType": "string",
          "name": "_memo",
          "type": "string"
        }
      ],
      "name": "setMemoOnCandidate",
      "outputs": [],
      "stateMutability": "nonpayable",
      "type": "function"
    },
    {
      "inputs": [
        {
          "internalType": "address",
          "name": "_candidateContract",
          "type": "address"
        },
        {
          "internalType": "string",
          "name": "_memo",
          "type": "string"
        }
      ],
      "name": "setMemoOnCandidateContract",
      "outputs": [],
      "stateMutability": "nonpayable",
      "type": "function"
    },
    {
      "inputs": [
        {
          "internalType": "uint256",
          "name": "_quorum",
          "type": "uint256"
        }
      ],
      "name": "setQuorum",
      "outputs": [],
      "stateMutability": "nonpayable",
      "type": "function"
    },
    {
      "inputs": [
        {
          "internalType": "bytes4",
          "name": "interfaceId",
          "type": "bytes4"
        }
      ],
      "name": "supportsInterface",
      "outputs": [
        {
          "internalType": "bool",
          "name": "",
          "type": "bool"
        }
      ],
      "stateMutability": "view",
      "type": "function"
    },
    {
      "inputs": [],
      "name": "ton",
      "outputs": [
        {
          "internalType": "address",
          "name": "",
          "type": "address"
        }
      ],
      "stateMutability": "view",
      "type": "function"
    },
    {
      "inputs": [
        {
          "internalType": "address",
          "name": "_candidate",
          "type": "address"
        }
      ],
      "name": "totalSupplyOnCandidate",
      "outputs": [
        {
          "internalType": "uint256",
          "name": "totalsupply",
          "type": "uint256"
        }
      ],
      "stateMutability": "view",
      "type": "function"
    },
    {
      "inputs": [
        {
          "internalType": "address",
          "name": "_candidateContract",
          "type": "address"
        }
      ],
      "name": "totalSupplyOnCandidateContract",
      "outputs": [
        {
          "internalType": "uint256",
          "name": "totalsupply",
          "type": "uint256"
        }
      ],
      "stateMutability": "view",
      "type": "function"
    },
    {
      "inputs": [
        {
          "internalType": "address",
          "name": "_candidate",
          "type": "address"
        }
      ],
      "name": "updateSeigniorage",
      "outputs": [
        {
          "internalType": "bool",
          "name": "",
          "type": "bool"
        }
      ],
      "stateMutability": "nonpayable",
      "type": "function"
    },
    {
      "inputs": [
        {
          "internalType": "address[]",
          "name": "_candidates",
          "type": "address[]"
        }
      ],
      "name": "updateSeigniorages",
      "outputs": [
        {
          "internalType": "bool",
          "name": "",
          "type": "bool"
        }
      ],
      "stateMutability": "nonpayable",
      "type": "function"
    },
    {
      "inputs": [],
      "name": "wton",
      "outputs": [
        {
          "internalType": "address",
          "name": "",
          "type": "address"
        }
      ],
      "stateMutability": "view",
      "type": "function"
    }
  ],
  "bytecode": "0x60806040523480156200001157600080fd5b50620000246301ffc9a760e01b6200002a565b620000ae565b6001600160e01b03198082169003620000895760405162461bcd60e51b815260206004820152601c60248201527f4552433136353a20696e76616c696420696e7465726661636520696400000000604482015260640160405180910390fd5b6001600160e01b0319166000908152600d60205260409020805460ff19166001179055565b615d4080620000be6000396000f3fe608060405234801561001057600080fd5b50600436106103625760003560e01c80636becff27116101c8578063a1ea352511610104578063c7cac42c116100a2578063cf2a239c1161007c578063cf2a239c14610984578063d51b9e9314610997578063d525f04f146109aa578063d547741f146109bd57600080fd5b8063c7cac42c1461094b578063ca15c8731461095e578063cc48b9471461097157600080fd5b8063ad6675dc116100de578063ad6675dc1461090a578063b5dd11581461091d578063c1ba4e5914610930578063c4ef9c001461094357600080fd5b8063a1ea3525146108b8578063a217fddf146108cb578063a230c524146108d357600080fd5b8063805aca20116101715780638d62d9491161014b5780638d62d9491461086c5780639010d07c1461087f57806391d14854146108925780639932e94c146108a557600080fd5b8063805aca2014610833578063885b46961461084657806389ea43001461085957600080fd5b8063773b7f65116101a2578063773b7f651461080f57806378767d33146108175780637f3316361461082a57600080fd5b80636becff27146107d65780636da8f3ce146107e95780636fb7f558146107fc57600080fd5b806332a45ef6116102a257806357f0a867116102405780635fba7a561161021a5780635fba7a561461075f578063607cf7341461077257806363a8fd8914610785578063651d08cd146107aa57600080fd5b806357f0a867146107265780635903bd6c146107395780635daf08ca1461074c57600080fd5b80634273ca161161027c5780634273ca16146106bf578063440b69ad146106d257806350e8f17d146106e5578063561a1dab146106f857600080fd5b806332a45ef6146106865780633477ee2e1461069957806336568abe146106ac57600080fd5b80631703a0181161030f57806324f99b1e116102e957806324f99b1e1461054457806327fd92fd146105575780632e011c1e146105825780632f2ff15d1461067357600080fd5b80631703a01814610503578063216f486b1461050c578063248a9ca31461052157600080fd5b806311f19e041161034057806311f19e04146103b957806314d3535e146103cc57806316f7f982146104f057600080fd5b806301ffc9a71461036757806303e3c9ac1461038f5780630ebe021a146103a6575b600080fd5b61037a610375366004614ff9565b6109d0565b60405190151581526020015b60405180910390f35b61039860085481565b604051908152602001610386565b6103986103b4366004615023565b6109f4565b61037a6103c7366004615023565b610a04565b6104866103da366004615051565b6040805160c081018252600080825260208201819052918101829052606081018290526080810182905260a0810191909152506001600160a01b039081166000908152600f6020908152604091829020825160c08101845281548516815260018201549094169184019190915260028101549183019190915260038101546001600160801b038082166060850152600160801b909104811660808401526004909101541660a082015290565b6040516103869190600060c0820190506001600160a01b03808451168352806020850151166020840152506040830151604083015260608301516001600160801b0380821660608501528060808601511660808501528060a08601511660a0850152505092915050565b6103986104fe36600461506e565b610f6c565b610398600a5481565b61051f61051a366004615023565b611035565b005b61039861052f366004615023565b6000908152600c602052604090206002015490565b61051f6105523660046150f0565b61151b565b60025461056a906001600160a01b031681565b6040516001600160a01b039091168152602001610386565b61061e610590366004615051565b6040805160a0808201835260008083526020808401829052838501829052606080850183905260809485018390526001600160a01b0396871683526009825291859020855193840186528054909616835260018601549083015260028501546001600160801b0380821695840195909552600160801b90048416908201526003909301549091169082015290565b6040805182516001600160a01b0316815260208084015190820152828201516001600160801b03908116928201929092526060808401518316908201526080928301519091169181019190915260a001610386565b61051f610681366004615143565b611a07565b61051f610694366004615168565b611aa3565b61056a6106a7366004615023565b6122b8565b61051f6106ba366004615143565b6122e2565b61037a6106cd3660046151bf565b61236a565b61051f6106e03660046152ff565b612713565b61051f6106f3366004615361565b61278b565b61037a610706366004615051565b6001600160a01b0390811660009081526009602052604090205416151590565b61037a610734366004615383565b612a67565b60015461056a906001600160a01b031681565b61056a61075a366004615023565b612b18565b61051f61076d3660046153f8565b612b28565b61051f61078036600461543a565b612f07565b600e5461037a9074010000000000000000000000000000000000000000900460ff1681565b61056a6107b8366004615051565b6001600160a01b039081166000908152600960205260409020541690565b61051f6107e4366004615051565b61315e565b61051f6107f7366004615361565b6133b2565b60055461056a906001600160a01b031681565b600654610398565b610398610825366004615051565b6134dc565b610398600b5481565b61051f61084136600461548f565b613596565b61051f610854366004615023565b6136eb565b61037a610867366004615051565b61374c565b60105461056a906001600160a01b031681565b61056a61088d366004615361565b6137c8565b61037a6108a0366004615143565b6137e0565b6103986108b3366004615051565b6137f8565b61051f6108c63660046154bb565b6138ad565b610398600081565b61037a6108e1366004615051565b6001600160a01b03166000908152600960205260409020600201546001600160801b0316151590565b610398610918366004615051565b6138b8565b60035461056a906001600160a01b031681565b61051f61093e366004615023565b6138e8565b61037a613ab6565b61051f61095936600461543a565b613d7f565b61039861096c366004615023565b613dab565b60005461056a906001600160a01b031681565b60045461056a906001600160a01b031681565b61037a6109a5366004615051565b613dc2565b6103986109b836600461506e565b613e91565b61051f6109cb366004615143565b613ec2565b6001600160e01b031981166000908152600d602052604081205460ff165b92915050565b60006109ee82633b9aca00615521565b6000816008548110610a685760405162461bcd60e51b815260206004820152602260248201527f44414f436f6d6d69747465653a20696e76616c6964206d656d62657220696e646044820152610caf60f31b60648201526084015b60405180910390fd5b6000336001600160a01b0316636c8381f86040518163ffffffff1660e01b8152600401602060405180830381865afa158015610aa8573d6000803e3d6000fd5b505050506040513d601f19601f82011682018060405250810190610acc9190615538565b6001600160a01b0381166000908152600960209081526040918290208251631dffc87160e21b815292519394509233926377ff21c49260048083019391928290030181865afa158015610b23573d6000803e3d6000fd5b505050506040513d601f19601f82011682018060405250810190610b479190615573565b610bb95760405162461bcd60e51b815260206004820152603060248201527f44414f436f6d6d69747465653a2073656e646572206973206e6f74206120636160448201527f6e64696461746520636f6e7472616374000000000000000000000000000000006064820152608401610a5f565b80546001600160a01b03163314610c235760405162461bcd60e51b815260206004820152602860248201527f44414f436f6d6d69747465653a20696e76616c69642063616e6469646174652060448201526718dbdb9d1c9858dd60c21b6064820152608401610a5f565b60028101546001600160801b031615610c7e5760405162461bcd60e51b815260206004820152601c60248201527f44414f436f6d6d69747465653a20616c7265616479206d656d626572000000006044820152606401610a5f565b600060078681548110610c9357610c93615590565b60009182526020822001546001600160a01b03169150610ccb826001600160a01b039081166000908152600960205260409020541690565b6002840180546001600160801b031916426001600160801b03161790556001840188905560078054919250859189908110610d0857610d08615590565b600091825260209091200180546001600160a01b0319166001600160a01b039283161790558216610d82576040516001600160a01b03838116825285169088907f663b98adf1afa777e36528b3293a057803f87ed00d2d2518dccfe5d7a6e99ccf9060200160405180910390a36001955050505050610f66565b806001600160a01b031663817b1cd26040518163ffffffff1660e01b8152600401602060405180830381865afa158015610dc0573d6000803e3d6000fd5b505050506040513d601f19601f82011682018060405250810190610de491906155a6565b336001600160a01b031663817b1cd26040518163ffffffff1660e01b8152600401602060405180830381865afa158015610e22573d6000803e3d6000fd5b505050506040513d601f19601f82011682018060405250810190610e4691906155a6565b11610e935760405162461bcd60e51b815260206004820152601160248201527f6e6f7420656e6f75676820616d6f756e740000000000000000000000000000006044820152606401610a5f565b6001600160a01b038216600090815260096020526040812060018101919091556002810154610ecb906001600160801b0316426155bf565b6002820154610eea9190600160801b90046001600160801b03166155d2565b6001600160801b0316600160801b026001600160801b03191660028201556040516001600160a01b0386169089907f663b98adf1afa777e36528b3293a057803f87ed00d2d2518dccfe5d7a6e99ccf90610f549087906001600160a01b0391909116815260200190565b60405180910390a36001965050505050505b50919050565b60006001600160a01b038316610fc45760405162461bcd60e51b815260206004820152601f60248201527f54686973206163636f756e74206973206e6f7420612063616e646964617465006044820152606401610a5f565b60405163af500ba360e01b81526001600160a01b03838116600483015284169063af500ba390602401602060405180830381865afa15801561100a573d6000803e3d6000fd5b505050506040513d601f19601f8201168201806040525081019061102e91906155a6565b9392505050565b6002546001600160a01b03166110a25760405162461bcd60e51b815260206004820152602c60248201527f53746f726167655374617465436f6d6d69747465653a204167656e64614d616e60448201526b61676572206973207a65726f60a01b6064820152608401610a5f565b6002546040516377f28d5b60e01b8152600481018390526001600160a01b03909116906377f28d5b90602401602060405180830381865afa1580156110eb573d6000803e3d6000fd5b505050506040513d601f19601f8201168201806040525081019061110f9190615573565b61116c5760405162461bcd60e51b815260206004820152602860248201527f44414f436f6d6d69747465653a2063616e206e6f74206578656375746520746860448201526765206167656e646160c01b6064820152608401610a5f565b6002546040516373ba374560e01b8152600481018390526000918291829182916001600160a01b03909116906373ba374590602401600060405180830381865afa1580156111be573d6000803e3d6000fd5b505050506040513d6000823e601f3d908101601f191682016040526111e691908101906156fd565b9350935093509350811561136957600254604051631b8c251960e11b8152600481018790526001600160a01b03909116906337184a3290602401600060405180830381600087803b15801561123a57600080fd5b505af115801561124e573d6000803e3d6000fd5b5050505060005b845181101561136357600085828151811061127257611272615590565b60200260200101516001600160a01b031685838151811061129557611295615590565b60200260200101516040516112aa91906157da565b6000604051808303816000865af19150503d80600081146112e7576040519150601f19603f3d011682016040523d82523d6000602084013e6112ec565b606091505b50509050806113505760405162461bcd60e51b815260206004820152602a60248201527f44414f436f6d6d69747465653a204661696c656420746f206578656375746520604482015269746865206167656e646160b01b6064820152608401610a5f565b508061135b816157f6565b915050611255565b506114dc565b6000815b85518110156114025760006113cf87838151811061138d5761138d615590565b60200260200101518784815181106113a7576113a7615590565b6020026020010151518885815181106113c2576113c2615590565b6020026020010151613f50565b905080156113e9576113e28360016155d2565b92506113ef565b50611402565b50806113fa816157f6565b91505061136d565b50600254604051632833207960e21b815260048101889052602481018390526001600160a01b039091169063a0cc81e490604401600060405180830381600087803b15801561145057600080fd5b505af1158015611464573d6000803e3d6000fd5b505050508451818361147691906155d2565b036114da57600254604051631b8c251960e11b8152600481018890526001600160a01b03909116906337184a3290602401600060405180830381600087803b1580156114c157600080fd5b505af11580156114d5573d6000803e3d6000fd5b505050505b505b847f785146be3266678a3f4ea454b310ff1f8c91d0ad9a7997bcd0619940d4d67fe68560405161150c9190615853565b60405180910390a25050505050565b6002546001600160a01b03166115885760405162461bcd60e51b815260206004820152602c60248201527f53746f726167655374617465436f6d6d69747465653a204167656e64614d616e60448201526b61676572206973207a65726f60a01b6064820152608401610a5f565b6000336001600160a01b0316636c8381f86040518163ffffffff1660e01b8152600401602060405180830381865afa1580156115c8573d6000803e3d6000fd5b505050506040513d601f19601f820116820180604052508101906115ec9190615538565b6001600160a01b03808216600090815260096020526040902080549293509116331461166b5760405162461bcd60e51b815260206004820152602860248201527f44414f436f6d6d69747465653a20696e76616c69642063616e6469646174652060448201526718dbdb9d1c9858dd60c21b6064820152608401610a5f565b600254604051637e77eb2360e01b8152600481018890526001600160a01b0384811660248301526044820188905290911690637e77eb23906064016020604051808303816000875af11580156116c5573d6000803e3d6000fd5b505050506040513d601f19601f820116820180604052508101906116e99190615573565b50600254604051635772521560e11b815260048101889052600091829182916001600160a01b03169063aee4a42a90602401606060405180830381865afa158015611738573d6000803e3d6000fd5b505050506040513d601f19601f8201168201806040525081019061175c9190615866565b92509250925082600a541161183a57600254604051632b0a851b60e11b81526001600160a01b03909116906356150a369061179e908c906001906004016158aa565b600060405180830381600087803b1580156117b857600080fd5b505af11580156117cc573d6000803e3d6000fd5b5050600254604051633625b75960e21b81526001600160a01b03909116925063d896dd649150611803908c906003906004016158ce565b600060405180830381600087803b15801561181d57600080fd5b505af1158015611831573d6000803e3d6000fd5b505050506119b6565b81600a54116118d95760028054604051632b0a851b60e11b81526001600160a01b03909116916356150a3691611874918d916004016158aa565b600060405180830381600087803b15801561188e57600080fd5b505af11580156118a2573d6000803e3d6000fd5b5050600254604051633625b75960e21b81526001600160a01b03909116925063d896dd649150611803908c906005906004016158ce565b6118e382826155d2565b600a54116119b657600254604051632b0a851b60e11b81526001600160a01b03909116906356150a369061191e908c906003906004016158aa565b600060405180830381600087803b15801561193857600080fd5b505af115801561194c573d6000803e3d6000fd5b5050600254604051633625b75960e21b81526001600160a01b03909116925063d896dd649150611983908c906005906004016158ce565b600060405180830381600087803b15801561199d57600080fd5b505af11580156119b1573d6000803e3d6000fd5b505050505b88336001600160a01b03167ffa0761008653bc7bf9fa040fb7e07672ad3e17a976eb452c44e81dd782a6214b8a8a8a6040516119f49392919061590e565b60405180910390a3505050505050505050565b6000828152600c6020526040902060020154611a2390336137e0565b611a955760405162461bcd60e51b815260206004820152602f60248201527f416363657373436f6e74726f6c3a2073656e646572206d75737420626520616e60448201527f2061646d696e20746f206772616e7400000000000000000000000000000000006064820152608401610a5f565b611a9f8282613f6f565b5050565b6005546001600160a01b0316611b0f5760405162461bcd60e51b815260206004820152602b60248201527f53746f726167655374617465436f6d6d69747465653a20696e76616c6964205360448201526a6569674d616e616765726560a81b6064820152608401610a5f565b6004546001600160a01b0316611b7d5760405162461bcd60e51b815260206004820152602d60248201527f53746f726167655374617465436f6d6d69747465653a20696e76616c6964204c60448201526c6179657232526567697374727960981b6064820152608401610a5f565b6003546001600160a01b0316611bef5760405162461bcd60e51b815260206004820152603160248201527f53746f726167655374617465436f6d6d69747465653a20696e76616c696420436044820152706f6d6d69747465654c32466163746f727960781b6064820152608401610a5f565b611bfa6000336137e0565b611c575760405162461bcd60e51b815260206004820152602860248201527f44414f436f6d6d69747465653a206d73672e73656e646572206973206e6f742060448201526730b71030b236b4b760c11b6064820152608401610a5f565b60035460055460405163732518fb60e11b81526000926001600160a01b039081169263e64a31f692611c9892879287928b928b923092911690600401615931565b6020604051808303816000875af1158015611cb7573d6000803e3d6000fd5b505050506040513d601f19601f82011682018060405250810190611cdb9190615538565b90506001600160a01b038116611d4c5760405162461bcd60e51b815260206004820152603060248201527f44414f436f6d6d69747465653a206465706c6f7965642063616e64696461746560448201526f436f6e7472616374206973207a65726f60801b6064820152608401610a5f565b6001600160a01b0382811660009081526009602052604090205416156120a7576001600160a01b038281166000908152600f60205260409020541615611dd45760405162461bcd60e51b815260206004820152601060248201527f616c7265616479206d69677261746564000000000000000000000000000000006044820152606401610a5f565b6040518060c0016040528060096000856001600160a01b03166001600160a01b0316815260200190815260200160002060000160009054906101000a90046001600160a01b03166001600160a01b03168152602001826001600160a01b0316815260200160096000856001600160a01b03166001600160a01b0316815260200190815260200160002060010154815260200160096000856001600160a01b03166001600160a01b0316815260200190815260200160002060020160009054906101000a90046001600160801b03166001600160801b0316815260200160096000856001600160a01b03166001600160a01b0316815260200190815260200160002060020160109054906101000a90046001600160801b03166001600160801b0316815260200160096000856001600160a01b03166001600160a01b0316815260200190815260200160002060030160009054906101000a90046001600160801b03166001600160801b0316815250600f6000846001600160a01b03166001600160a01b0316815260200190815260200160002060008201518160000160006101000a8154816001600160a01b0302191690836001600160a01b0316021790555060208201518160010160006101000a8154816001600160a01b0302191690836001600160a01b031602179055506040820151816002015560608201518160030160006101000a8154816001600160801b0302191690836001600160801b0316021790555060808201518160030160106101000a8154816001600160801b0302191690836001600160801b0316021790555060a08201518160040160006101000a8154816001600160801b0302191690836001600160801b031602179055509050508060096000846001600160a01b03166001600160a01b0316815260200190815260200160002060000160006101000a8154816001600160a01b0302191690836001600160a01b03160217905550612183565b6040805160a0810182526001600160a01b0383811682526000602080840182815284860183815260608601848152608087018581528a87168087526009909552978520965187546001600160a01b0319908116919097161787559151600180880191909155905191516001600160801b03928316600160801b918416919091021760028701559551600390950180546001600160801b031916959091169490941790935560068054948501815590527ff652222313e28459528d920b65115c16c04f3efc82aaedc97be59f3f377c0d3f90920180549092161790555b60048054600554604051635e58d38f60e11b81526001600160a01b0385811694820194909452908316602482015291169063bcb1a71e906044016020604051808303816000875af11580156121dc573d6000803e3d6000fd5b505050506040513d601f19601f820116820180604052508101906122009190615573565b6122655760405162461bcd60e51b815260206004820152603060248201527f44414f436f6d6d69747465653a206661696c656420746f20726567697374657260448201526f416e644465706c6f79436f696e61676560801b6064820152608401610a5f565b806001600160a01b0316826001600160a01b03167f7cf8db18d9a5c7f44156bfabdbb59ac982a8a004e461ca1b87ee71a5cdfbc5ef86866040516122aa929190615978565b60405180910390a350505050565b600681815481106122c857600080fd5b6000918252602090912001546001600160a01b0316905081565b6001600160a01b03811633146123605760405162461bcd60e51b815260206004820152602f60248201527f416363657373436f6e74726f6c3a2063616e206f6e6c792072656e6f756e636560448201527f20726f6c657320666f722073656c6600000000000000000000000000000000006064820152608401610a5f565b611a9f8282613fc8565b600080546001600160a01b031633146123c55760405162461bcd60e51b815260206004820152601160248201527f49742773206e6f742066726f6d20544f4e0000000000000000000000000000006044820152606401610a5f565b60006123d18484614021565b905060005b8151518110156126e257600154825180516001600160a01b03909216918390811061240357612403615590565b60200260200101516001600160a01b0316036126d05760008260800151828151811061243157612431615590565b602002602001015190506000612454600060048461409d9092919063ffffffff16565b9050612485604051806040016040528060048152602001633bc3556560e21b815250826141c590919063ffffffff16565b156124d25760405162461bcd60e51b815260206004820152601160248201527f636c61696d544f4e20646f6e74207573650000000000000000000000000000006044820152606401610a5f565b6040805180820190915260048152637c24048d60e11b60208201526124f89082906141c5565b156125a757600080546040805160609290921b6bffffffffffffffffffffffff19166020830152805180830360140181526034909201905290506000612541846010601461409d565b9050600061254f82846141c5565b9050801561259f5760405162461bcd60e51b815260206004820152601760248201527f636c61696d455243323020746f6e20646f6e74207573650000000000000000006044820152606401610a5f565b5050506126cd565b6040805180820190915260048152630f52bba760e41b60208201526125cd9082906141c5565b156126cd576010546001546040516370a0823160e01b81526001600160a01b03918216600482015260009291909116906370a0823190602401602060405180830381865afa158015612623573d6000803e3d6000fd5b505050506040513d601f19601f8201168201806040525081019061264791906155a6565b90506000612658846016602e61409d565b9050600061266982600e602061409d565b9050600061267682614228565b9050808410156126c85760405162461bcd60e51b815260206004820152600b60248201527f616d6f756e74206f7665720000000000000000000000000000000000000000006044820152606401610a5f565b505050505b50505b806126da816157f6565b9150506123d6565b5061270587826000015183602001518460400151856060015186608001516142cc565b506001979650505050505050565b61271e6000336137e0565b61277b5760405162461bcd60e51b815260206004820152602860248201527f44414f436f6d6d69747465653a206d73672e73656e646572206973206e6f742060448201526730b71030b236b4b760c11b6064820152608401610a5f565b612786838383614416565b505050565b6127966000336137e0565b6127f35760405162461bcd60e51b815260206004820152602860248201527f44414f436f6d6d69747465653a206d73672e73656e646572206973206e6f742060448201526730b71030b236b4b760c11b6064820152608401610a5f565b8160085481106128505760405162461bcd60e51b815260206004820152602260248201527f44414f436f6d6d69747465653a20696e76616c6964206d656d62657220696e646044820152610caf60f31b6064820152608401610a5f565b60006007848154811061286557612865615590565b60009182526020808320909101546001600160a01b0316808352600990915260409091206007549192509061289c906001906155bf565b851461293e5760078054600091906128b6906001906155bf565b815481106128c6576128c6615590565b60009182526020808320909101546001600160a01b031680835260099091526040909120600181018890556007805492935090918391908990811061290d5761290d615590565b9060005260206000200160006101000a8154816001600160a01b0302191690836001600160a01b0316021790555050505b60006001820155600281015461295d906001600160801b0316426155bf565b600282015461297c9190600160801b90046001600160801b03166155d2565b6001600160801b0316600160801b026001600160801b031916600282015560078054806129ab576129ab61598c565b600082815260209020810160001990810180546001600160a01b03191690550190556008546129dc906001906155bf565b6008556129e8846138e8565b6040516001600160a01b038316815260009086907f663b98adf1afa777e36528b3293a057803f87ed00d2d2518dccfe5d7a6e99ccf9060200160405180910390a3600854612a378160016155d2565b6040517f8c0366d1e3a335a312d012257ee764723c38ec2dd5e74cbfad372513521f977190600090a35050505050565b6000805b82811015612b0e57612a9d848483818110612a8857612a88615590565b90506020020160208101906108679190615051565b612afc5760405162461bcd60e51b815260206004820152602a60248201527f44414f436f6d6d69747465653a206661696c656420746f2075706461746520736044820152696569676e696f7261676560b01b6064820152608401610a5f565b80612b06816157f6565b915050612a6b565b5060019392505050565b600781815481106122c857600080fd5b336000818152600960205260409020546001600160a01b031615612ba05760405162461bcd60e51b815260206004820152602960248201527f44414f436f6d6d69747465653a2063616e64696461746520616c7265616479206044820152681c9959da5cdd195c9960ba1b6064820152608401610a5f565b60035460055460405163732518fb60e11b81526000926001600160a01b039081169263e64a31f692612be192879287928b928b923092911690600401615931565b6020604051808303816000875af1158015612c00573d6000803e3d6000fd5b505050506040513d601f19601f82011682018060405250810190612c249190615538565b90506001600160a01b038116612c955760405162461bcd60e51b815260206004820152603060248201527f44414f436f6d6d69747465653a206465706c6f7965642063616e64696461746560448201526f436f6e7472616374206973207a65726f60801b6064820152608401610a5f565b6001600160a01b038281166000908152600960205260409020541615612d165760405162461bcd60e51b815260206004820152603060248201527f44414f436f6d6d69747465653a205468652063616e64696461746520616c726560448201526f18591e481a185cc818dbdb9d1c9858dd60821b6064820152608401610a5f565b60048054600554604051635e58d38f60e11b81526001600160a01b0385811694820194909452908316602482015291169063bcb1a71e906044016020604051808303816000875af1158015612d6f573d6000803e3d6000fd5b505050506040513d601f19601f82011682018060405250810190612d939190615573565b612df85760405162461bcd60e51b815260206004820152603060248201527f44414f436f6d6d69747465653a206661696c656420746f20726567697374657260448201526f416e644465706c6f79436f696e61676560801b6064820152608401610a5f565b6040805160a0810182526001600160a01b038381168083526000602080850182815285870183815260608701848152608088018581528b88168087526009909552898620985189546001600160a01b03199081169190991617895592516001808a0191909155915190516001600160801b03918216600160801b918316919091021760028901559151600390970180546001600160801b031916979092169690961790556006805495860181559091527ff652222313e28459528d920b65115c16c04f3efc82aaedc97be59f3f377c0d3f9093018054909216831790915591517f7cf8db18d9a5c7f44156bfabdbb59ac982a8a004e461ca1b87ee71a5cdfbc5ef906122aa9088908890615978565b6000836001600160a01b0316636c8381f86040518163ffffffff1660e01b8152600401602060405180830381865afa158015612f47573d6000803e3d6000fd5b505050506040513d601f19601f82011682018060405250810190612f6b9190615538565b90506000819050846001600160a01b0316639b6382686040518163ffffffff1660e01b8152600401602060405180830381865afa158015612fb0573d6000803e3d6000fd5b505050506040513d601f19601f82011682018060405250810190612fd49190615573565b1561303e57816001600160a01b031663570ca7356040518163ffffffff1660e01b8152600401602060405180830381865afa158015613017573d6000803e3d6000fd5b505050506040513d601f19601f8201168201806040525081019061303b9190615538565b90505b336001600160a01b038216146130bc5760405162461bcd60e51b815260206004820152603a60248201527f44414f436f6d6d69747465653a2073656e646572206973206e6f74207468652060448201527f63616e646964617465206f66207468697320636f6e74726163740000000000006064820152608401610a5f565b6040516325d6086160e01b81526001600160a01b038616906325d60861906130ea9087908790600401615978565b600060405180830381600087803b15801561310457600080fd5b505af1158015613118573d6000803e3d6000fd5b505050507fda033346b344f4675799a7ab4d837f0deb62d4afcdcaba4613913b4c25838cb382858560405161314f939291906159a2565b60405180910390a15050505050565b6000336001600160a01b0316636c8381f86040518163ffffffff1660e01b8152600401602060405180830381865afa15801561319e573d6000803e3d6000fd5b505050506040513d601f19601f820116820180604052508101906131c29190615538565b6001600160a01b0380821660009081526009602052604090208054929350911633146132415760405162461bcd60e51b815260206004820152602860248201527f44414f436f6d6d69747465653a20696e76616c69642063616e6469646174652060448201526718dbdb9d1c9858dd60c21b6064820152608401610a5f565b600061324c836137f8565b9050600081116132c45760405162461bcd60e51b815260206004820152602b60248201527f44414f436f6d6d69747465653a20796f7520646f6e2774206861766520636c6160448201527f696d61626c652077746f6e0000000000000000000000000000000000000000006064820152608401610a5f565b60006132cf826109f4565b600154601054604051637c24048d60e11b81526001600160a01b039182166004820152888216602482015260448101849052929350169063f848091a90606401600060405180830381600087803b15801561332957600080fd5b505af115801561333d573d6000803e3d6000fd5b505050506003830180546001600160801b031916426001600160801b03908116919091179091556002840180549091169055604080516001600160a01b038781168252602082018490528616917fb15377c434dc1922cc2eb7d8950640960a05f0cf6d5dc9442de8414a9da2b308910161150c565b6133bd6000336137e0565b61341a5760405162461bcd60e51b815260206004820152602860248201527f44414f436f6d6d69747465653a206d73672e73656e646572206973206e6f742060448201526730b71030b236b4b760c11b6064820152608401610a5f565b81600854106134915760405162461bcd60e51b815260206004820152603c60248201527f44414f436f6d6d69747465653a20596f75206861766520746f2063616c6c206460448201527f656372656173654d61784d656d62657220746f206465637265617365000000006064820152608401610a5f565b60088054908390556134a1614a5e565b6134aa826138e8565b604051839082907f8c0366d1e3a335a312d012257ee764723c38ec2dd5e74cbfad372513521f977190600090a3505050565b60006001600160a01b0382166135345760405162461bcd60e51b815260206004820152601f60248201527f54686973206163636f756e74206973206e6f7420612063616e646964617465006044820152606401610a5f565b816001600160a01b031663817b1cd26040518163ffffffff1660e01b8152600401602060405180830381865afa158015613572573d6000803e3d6000fd5b505050506040513d601f19601f820116820180604052508101906109ee91906155a6565b6135a16000336137e0565b6135fe5760405162461bcd60e51b815260206004820152602860248201527f44414f436f6d6d69747465653a206d73672e73656e646572206973206e6f742060448201526730b71030b236b4b760c11b6064820152608401610a5f565b6002546001600160a01b03166356150a368483600381111561362257613622615894565b6040518363ffffffff1660e01b815260040161363f9291906158aa565b600060405180830381600087803b15801561365957600080fd5b505af115801561366d573d6000803e3d6000fd5b50506002546001600160a01b0316915063d896dd6490508484600581111561369757613697615894565b6040518363ffffffff1660e01b81526004016136b49291906158ce565b600060405180830381600087803b1580156136ce57600080fd5b505af11580156136e2573d6000803e3d6000fd5b50505050505050565b60025460405163442da34b60e11b8152600481018390526001600160a01b039091169063885b469690602401600060405180830381600087803b15801561373157600080fd5b505af1158015613745573d6000803e3d6000fd5b5050505050565b6001600160a01b038082166000908152600960209081526040808320548151633b253c2b60e11b8152915193941692839263764a78569260048082019391829003018188875af11580156137a4573d6000803e3d6000fd5b505050506040513d601f19601f8201168201806040525081019061102e9190615573565b6000828152600c6020526040812061102e9083614ac1565b6000828152600c6020526040812061102e9083614acd565b6001600160a01b038116600090815260096020526040812060028101546001600160801b03600160801b8204811691161561389857600382015460028301546001600160801b03918216911611156138735760028201546001600160801b031661386242836155d2565b61386c91906155bf565b9050613898565b60038201546001600160801b031661388b42836155d2565b61389591906155bf565b90505b600b546138a59082615521565b949350505050565b611a9f338383614416565b6000806138dd836001600160a01b039081166000908152600960205260409020541690565b905061102e816134dc565b6138f36000336137e0565b6139505760405162461bcd60e51b815260206004820152602860248201527f44414f436f6d6d69747465653a206d73672e73656e646572206973206e6f742060448201526730b71030b236b4b760c11b6064820152608401610a5f565b6002546001600160a01b03166139bd5760405162461bcd60e51b815260206004820152602c60248201527f53746f726167655374617465436f6d6d69747465653a204167656e64614d616e60448201526b61676572206973207a65726f60a01b6064820152608401610a5f565b60026008546139cc91906159c5565b8111613a1a5760405162461bcd60e51b815260206004820152601c60248201527f44414f436f6d6d69747465653a20696e76616c69642071756f72756d000000006044820152606401610a5f565b600854811115613a7b5760405162461bcd60e51b815260206004820152602660248201527f44414f436f6d6d69747465653a2071756f72756d20657863656564206d61782060448201526536b2b6b132b960d11b6064820152608401610a5f565b600a8190556040518181527f027863d12a407097e086a48e36475bfc859d0b200b7e6f65b5fd3b218e46632e9060200160405180910390a150565b600080336001600160a01b0316636c8381f86040518163ffffffff1660e01b8152600401602060405180830381865afa158015613af7573d6000803e3d6000fd5b505050506040513d601f19601f82011682018060405250810190613b1b9190615538565b9050613b4a816001600160a01b03166000908152600960205260409020600201546001600160801b0316151590565b613ba25760405162461bcd60e51b815260206004820152602360248201527f53746f726167655374617465436f6d6d69747465653a206e6f742061206d656d6044820152623132b960e91b6064820152608401610a5f565b6000336001600160a01b0316636c8381f86040518163ffffffff1660e01b8152600401602060405180830381865afa158015613be2573d6000803e3d6000fd5b505050506040513d601f19601f82011682018060405250810190613c069190615538565b6001600160a01b038082166000908152600960205260409020805492935091163314613c855760405162461bcd60e51b815260206004820152602860248201527f44414f436f6d6d69747465653a20696e76616c69642063616e6469646174652060448201526718dbdb9d1c9858dd60c21b6064820152608401610a5f565b60006007826001015481548110613c9e57613c9e615590565b600091825260209091200180546001600160a01b0319166001600160a01b03929092169190911790556002810154613cdf906001600160801b0316426155bf565b6002820154613cfe9190600160801b90046001600160801b03166155d2565b6001600160801b0316600160801b026001600160801b031916600282015560018101805460009182905560405190919082907f663b98adf1afa777e36528b3293a057803f87ed00d2d2518dccfe5d7a6e99ccf90613d6c9087906001600160a01b0391909116815260200190565b60405180910390a3600194505050505090565b6001600160a01b0383811660009081526009602052604090205416613da5818484612f07565b50505050565b6000818152600c602052604081206109ee90614aef565b6001600160a01b03808216600090815260096020526040812080549192909116613def5750600092915050565b8054600090613e0e906001600160a01b0316631dffc87160e21b614af9565b9050801515600003613e24575060009392505050565b815460408051631dffc87160e21b815290516001600160a01b03909216916377ff21c4916004808201926020929091908290030181865afa158015613e6d573d6000803e3d6000fd5b505050506040513d601f19601f820116820180604052508101906138a59190615573565b600080613eb6846001600160a01b039081166000908152600960205260409020541690565b90506138a58184610f6c565b6000828152600c6020526040902060020154613ede90336137e0565b6123605760405162461bcd60e51b815260206004820152603060248201527f416363657373436f6e74726f6c3a2073656e646572206d75737420626520616e60448201527f2061646d696e20746f207265766f6b65000000000000000000000000000000006064820152608401610a5f565b60008060208301600080868360008a619c405a03f19695505050505050565b6000828152600c60205260409020613f879082614b15565b15611a9f5760405133906001600160a01b0383169084907f2f8788117e7eff1d82e926ec794901d17c78024a50270940304540a733656f0d90600090a45050565b6000828152600c60205260409020613fe09082614b2a565b15611a9f5760405133906001600160a01b0383169084907ff6391f5c32d9c69d2a47ea670b442974b53935d1edc7fd64eb21e047a839171b90600090a45050565b6140676040518060a001604052806060815260200160006001600160801b0316815260200160006001600160801b03168152602001600015158152602001606081525090565b61407382840184615a9e565b6080860152151560608501526001600160801b039081166040850152166020830152815292915050565b6060816140ab81601f6155d2565b10156140f95760405162461bcd60e51b815260206004820152600e60248201527f736c6963655f6f766572666c6f770000000000000000000000000000000000006044820152606401610a5f565b61410382846155d2565b845110156141535760405162461bcd60e51b815260206004820152601160248201527f736c6963655f6f75744f66426f756e64730000000000000000000000000000006044820152606401610a5f565b60608215801561417257604051915060008252602082016040526141bc565b6040519150601f8416801560200281840101858101878315602002848b0101015b818310156141ab578051835260209283019201614193565b5050858452601f01601f1916604052505b50949350505050565b8151815160009160019181148083146141e1576000925061421e565b600160208701838101602088015b600284838510010361421957805183511461420d5760009650600093505b602092830192016141ef565b505050505b5090949350505050565b600081516020146142b8576044825110156142855760405162461bcd60e51b815260206004820152601060248201527f556e6578706563746564206572726f72000000000000000000000000000000006044820152606401610a5f565b6004820191508180602001905181019061429f9190615b95565b60405162461bcd60e51b8152600401610a5f9190615c0a565b818060200190518101906109ee91906155a6565b6002546000906001600160a01b031661433c5760405162461bcd60e51b815260206004820152602c60248201527f53746f726167655374617465436f6d6d69747465653a204167656e64614d616e60448201526b61676572206973207a65726f60a01b6064820152608401610a5f565b61434587614b3f565b6002546040516304a091b760e31b81526000916001600160a01b0316906325048db89061437e908a908a908a908a908a90600401615c1d565b6020604051808303816000875af115801561439d573d6000803e3d6000fd5b505050506040513d601f19601f820116820180604052508101906143c191906155a6565b905080886001600160a01b03167fcd47bcad760e912d146723a314cc78b8570ee76ec8bdd4b60335087f6c2f47d7898989896040516144039493929190615cb3565b60405180910390a3979650505050505050565b6005546001600160a01b03166144825760405162461bcd60e51b815260206004820152602b60248201527f53746f726167655374617465436f6d6d69747465653a20696e76616c6964205360448201526a6569674d616e616765726560a81b6064820152608401610a5f565b6004546001600160a01b03166144f05760405162461bcd60e51b815260206004820152602d60248201527f53746f726167655374617465436f6d6d69747465653a20696e76616c6964204c60448201526c6179657232526567697374727960981b6064820152608401610a5f565b6003546001600160a01b03166145625760405162461bcd60e51b815260206004820152603160248201527f53746f726167655374617465436f6d6d69747465653a20696e76616c696420436044820152706f6d6d69747465654c32466163746f727960781b6064820152608401610a5f565b6001600160a01b0380831660009081526009602052604090205416156145dc5760405162461bcd60e51b815260206004820152602960248201527f44414f436f6d6d69747465653a2063616e64696461746520616c7265616479206044820152681c9959da5cdd195c9960ba1b6064820152608401610a5f565b6001600160a01b03821661464b5760405162461bcd60e51b815260206004820152603060248201527f44414f436f6d6d69747465653a206465706c6f7965642063616e64696461746560448201526f436f6e7472616374206973207a65726f60801b6064820152608401610a5f565b6001600160a01b0382811660009081526009602052604090205416156146cc5760405162461bcd60e51b815260206004820152603060248201527f44414f436f6d6d69747465653a205468652063616e64696461746520616c726560448201526f18591e481a185cc818dbdb9d1c9858dd60821b6064820152608401610a5f565b6000829050806001600160a01b031663882eed2c6040518163ffffffff1660e01b8152600401602060405180830381865afa15801561470f573d6000803e3d6000fd5b505050506040513d601f19601f820116820180604052508101906147339190615573565b61478d5760405162461bcd60e51b815260206004820152602560248201527f44414f436f6d6d69747465653a20696e76616c6964206c617965723220636f6e6044820152641d1c9858dd60da1b6064820152608401610a5f565b836001600160a01b0316816001600160a01b031663570ca7356040518163ffffffff1660e01b8152600401602060405180830381865afa1580156147d5573d6000803e3d6000fd5b505050506040513d601f19601f820116820180604052508101906147f99190615538565b6001600160a01b03161461484f5760405162461bcd60e51b815260206004820152601e60248201527f44414f436f6d6d69747465653a20696e76616c6964206f70657261746f7200006044820152606401610a5f565b60035460055460405163732518fb60e11b81526000926001600160a01b039081169263e64a31f69261488e9289926001928a9230921690600401615cee565b6020604051808303816000875af11580156148ad573d6000803e3d6000fd5b505050506040513d601f19601f820116820180604052508101906148d19190615538565b90506001600160a01b0381166149425760405162461bcd60e51b815260206004820152603060248201527f44414f436f6d6d69747465653a206465706c6f7965642063616e64696461746560448201526f436f6e7472616374206973207a65726f60801b6064820152608401610a5f565b6040805160a0810182526001600160a01b038381168083526000602080850182815285870183815260608701848152608088018581528d88168087526009909552898620985189546001600160a01b03199081169190991617895592516001808a0191909155915190516001600160801b03918216600160801b918316919091021760028901559151600390970180546001600160801b031916979092169690961790556006805495860181559091527ff652222313e28459528d920b65115c16c04f3efc82aaedc97be59f3f377c0d3f9093018054909216831790915591517f0f401d1bd976f5304ef9cfa87aeb24d777c0e205fb87bbae1dc0f0293ba7976a90614a4f908790615c0a565b60405180910390a35050505050565b6007545b600854811015614abe57600780546001810182556000919091527fa66cc928b5edb82af9bd49922954155ab7b0942694bea4ce44661d9a8736c6880180546001600160a01b031916905580614ab6816157f6565b915050614a62565b50565b600061102e8383614d60565b6001600160a01b0381166000908152600183016020526040812054151561102e565b60006109ee825490565b6000614b0483614de6565b801561102e575061102e8383614e19565b600061102e836001600160a01b038416614eb7565b600061102e836001600160a01b038416614f06565b60025460408051632522a32f60e01b815290516000926001600160a01b031691632522a32f9160048083019260209291908290030181865afa158015614b89573d6000803e3d6000fd5b505050506040513d601f19601f82011682018060405250810190614bad91906155a6565b6000546040516323b872dd60e01b81526001600160a01b038581166004830152306024830152604482018490529293509116906323b872dd906064016020604051808303816000875af1158015614c08573d6000803e3d6000fd5b505050506040513d601f19601f82011682018060405250810190614c2c9190615573565b614c9e5760405162461bcd60e51b815260206004820152603160248201527f44414f436f6d6d69747465653a206661696c656420746f207472616e7366657260448201527f20746f6e2066726f6d2063726561746f720000000000000000000000000000006064820152608401610a5f565b60005460405163a9059cbb60e01b815260016004820152602481018390526001600160a01b039091169063a9059cbb906044016020604051808303816000875af1158015614cf0573d6000803e3d6000fd5b505050506040513d601f19601f82011682018060405250810190614d149190615573565b611a9f5760405162461bcd60e51b815260206004820152601c60248201527f44414f436f6d6d69747465653a206661696c656420746f206275726e000000006044820152606401610a5f565b81546000908210614dbe5760405162461bcd60e51b815260206004820152602260248201527f456e756d657261626c655365743a20696e646578206f7574206f6620626f756e604482015261647360f01b6064820152608401610a5f565b826000018281548110614dd357614dd3615590565b9060005260206000200154905092915050565b6000614df9826301ffc9a760e01b614e19565b80156109ee5750614e12826001600160e01b0319614e19565b1592915050565b604080516001600160e01b03198316602480830191909152825180830390910181526044909101909152602080820180517bffffffffffffffffffffffffffffffffffffffffffffffffffffffff166301ffc9a760e01b178152825160009392849283928392918391908a617530fa92503d91506000519050828015614ea0575060208210155b8015614eac5750600081115b979650505050505050565b6000818152600183016020526040812054614efe575081546001818101845560008481526020808220909301849055845484825282860190935260409020919091556109ee565b5060006109ee565b60008181526001830160205260408120548015614fef576000614f2a6001836155bf565b8554909150600090614f3e906001906155bf565b90506000866000018281548110614f5757614f57615590565b9060005260206000200154905080876000018481548110614f7a57614f7a615590565b600091825260209091200155614f918360016155d2565b60008281526001890160205260409020558654879080614fb357614fb361598c565b600190038181906000526020600020016000905590558660010160008781526020019081526020016000206000905560019450505050506109ee565b60009150506109ee565b60006020828403121561500b57600080fd5b81356001600160e01b03198116811461102e57600080fd5b60006020828403121561503557600080fd5b5035919050565b6001600160a01b0381168114614abe57600080fd5b60006020828403121561506357600080fd5b813561102e8161503c565b6000806040838503121561508157600080fd5b823561508c8161503c565b9150602083013561509c8161503c565b809150509250929050565b60008083601f8401126150b957600080fd5b50813567ffffffffffffffff8111156150d157600080fd5b6020830191508360208285010111156150e957600080fd5b9250929050565b6000806000806060858703121561510657600080fd5b8435935060208501359250604085013567ffffffffffffffff81111561512b57600080fd5b615137878288016150a7565b95989497509550505050565b6000806040838503121561515657600080fd5b82359150602083013561509c8161503c565b60008060006040848603121561517d57600080fd5b833567ffffffffffffffff81111561519457600080fd5b6151a0868287016150a7565b90945092505060208401356151b48161503c565b809150509250925092565b6000806000806000608086880312156151d757600080fd5b85356151e28161503c565b945060208601356151f28161503c565b935060408601359250606086013567ffffffffffffffff81111561521557600080fd5b615221888289016150a7565b969995985093965092949392505050565b634e487b7160e01b600052604160045260246000fd5b604051601f8201601f1916810167ffffffffffffffff8111828210171561527157615271615232565b604052919050565b600067ffffffffffffffff82111561529357615293615232565b50601f01601f191660200190565b60006152b46152af84615279565b615248565b90508281528383830111156152c857600080fd5b828260208301376000602084830101529392505050565b600082601f8301126152f057600080fd5b61102e838335602085016152a1565b60008060006060848603121561531457600080fd5b833561531f8161503c565b9250602084013561532f8161503c565b9150604084013567ffffffffffffffff81111561534b57600080fd5b615357868287016152df565b9150509250925092565b6000806040838503121561537457600080fd5b50508035926020909101359150565b6000806020838503121561539657600080fd5b823567ffffffffffffffff808211156153ae57600080fd5b818501915085601f8301126153c257600080fd5b8135818111156153d157600080fd5b8660208260051b85010111156153e657600080fd5b60209290920196919550909350505050565b6000806020838503121561540b57600080fd5b823567ffffffffffffffff81111561542257600080fd5b61542e858286016150a7565b90969095509350505050565b60008060006040848603121561544f57600080fd5b833561545a8161503c565b9250602084013567ffffffffffffffff81111561547657600080fd5b615482868287016150a7565b9497909650939450505050565b6000806000606084860312156154a457600080fd5b505081359360208301359350604090920135919050565b600080604083850312156154ce57600080fd5b82356154d98161503c565b9150602083013567ffffffffffffffff8111156154f557600080fd5b615501858286016152df565b9150509250929050565b634e487b7160e01b600052601160045260246000fd5b80820281158282048414176109ee576109ee61550b565b60006020828403121561554a57600080fd5b815161102e8161503c565b8015158114614abe57600080fd5b805161556e81615555565b919050565b60006020828403121561558557600080fd5b815161102e81615555565b634e487b7160e01b600052603260045260246000fd5b6000602082840312156155b857600080fd5b5051919050565b818103818111156109ee576109ee61550b565b808201808211156109ee576109ee61550b565b600067ffffffffffffffff8211156155ff576155ff615232565b5060051b60200190565b60005b8381101561562457818101518382015260200161560c565b50506000910152565b600061563b6152af84615279565b905082815283838301111561564f57600080fd5b61102e836020830184615609565b600082601f83011261566e57600080fd5b8151602061567e6152af836155e5565b82815260059290921b8401810191818101908684111561569d57600080fd5b8286015b848110156156f257805167ffffffffffffffff8111156156c15760008081fd5b8701603f810189136156d35760008081fd5b6156e489868301516040840161562d565b8452509183019183016156a1565b509695505050505050565b6000806000806080858703121561571357600080fd5b845167ffffffffffffffff8082111561572b57600080fd5b818701915087601f83011261573f57600080fd5b8151602061574f6152af836155e5565b82815260059290921b8401810191818101908b84111561576e57600080fd5b948201945b838610156157955785516157868161503c565b82529482019490820190615773565b918a01519198509093505050808211156157ae57600080fd5b506157bb8782880161565d565b9350506157ca60408601615563565b6060959095015193969295505050565b600082516157ec818460208701615609565b9190910192915050565b6000600182016158085761580861550b565b5060010190565b600081518084526020808501945080840160005b838110156158485781516001600160a01b031687529582019590820190600101615823565b509495945050505050565b60208152600061102e602083018461580f565b60008060006060848603121561587b57600080fd5b8351925060208401519150604084015190509250925092565b634e487b7160e01b600052602160045260246000fd5b82815260408101600483106158c1576158c1615894565b8260208301529392505050565b82815260408101600683106158c1576158c1615894565b81835281816020850137506000828201602090810191909152601f909101601f19169091010190565b8381526040602082015260006159286040830184866158e5565b95945050505050565b60006001600160a01b038089168352871515602084015260a0604084015261595d60a0840187896158e5565b94811660608401529290921660809091015250949350505050565b6020815260006138a56020830184866158e5565b634e487b7160e01b600052603160045260246000fd5b6001600160a01b03841681526040602082015260006159286040830184866158e5565b6000826159e257634e487b7160e01b600052601260045260246000fd5b500490565b80356001600160801b038116811461556e57600080fd5b803561556e81615555565b600082601f830112615a1a57600080fd5b81356020615a2a6152af836155e5565b82815260059290921b84018101918181019086841115615a4957600080fd5b8286015b848110156156f257803567ffffffffffffffff811115615a6d5760008081fd5b8701603f81018913615a7f5760008081fd5b615a908986830135604084016152a1565b845250918301918301615a4d565b600080600080600060a08688031215615ab657600080fd5b853567ffffffffffffffff80821115615ace57600080fd5b818801915088601f830112615ae257600080fd5b81356020615af26152af836155e5565b82815260059290921b8401810191818101908c841115615b1157600080fd5b948201945b83861015615b38578535615b298161503c565b82529482019490820190615b16565b9950615b4790508a82016159e7565b97505050615b57604089016159e7565b9450615b65606089016159fe565b93506080880135915080821115615b7b57600080fd5b50615b8888828901615a09565b9150509295509295909350565b600060208284031215615ba757600080fd5b815167ffffffffffffffff811115615bbe57600080fd5b8201601f81018413615bcf57600080fd5b6138a58482516020840161562d565b60008151808452615bf6816020860160208601615609565b601f01601f19169290920160200192915050565b60208152600061102e6020830184615bde565b60a081526000615c3060a083018861580f565b60206001600160801b0380891682860152808816604086015250851515606085015283820360808501528185518084528284019150828160051b85010183880160005b83811015615ca157601f19878403018552615c8f838351615bde565b94860194925090850190600101615c73565b50909c9b505050505050505050505050565b608081526000615cc6608083018761580f565b6001600160801b03958616602084015293909416604082015290151560609091015292915050565b60006001600160a01b038088168352861515602084015260a06040840152615d1960a0840187615bde565b94811660608401529290921660809091015250939250505056fea164736f6c6343000813000a",
  "linkReferences": {},
  "deployedLinkReferences": {}
}