{
  "_format": "hh-sol-artifact-1",
  "contractName": "SeigManagerV1_1Storage",
  "sourceName": "contracts/stake/managers/SeigManagerV1_1Storage.sol",
  "abi": [
    {
      "inputs": [],
      "name": "BURNT_AMOUNT_MAINNET",
      "outputs": [
        {
          "internalType": "uint256",
          "name": "",
          "type": "uint256"
        }
      ],
      "stateMutability": "view",
      "type": "function"
    },
    {
      "inputs": [],
      "name": "INITIAL_TOTAL_SUPPLY_MAINNET",
      "outputs": [
        {
          "internalType": "uint256",
          "name": "",
          "type": "uint256"
        }
      ],
      "stateMutability": "view",
      "type": "function"
    },
    {
      "inputs": [],
      "name": "SEIG_START_MAINNET",
      "outputs": [
        {
          "internalType": "uint256",
          "name": "",
          "type": "uint256"
        }
      ],
      "stateMutability": "view",
      "type": "function"
    },
    {
      "inputs": [],
      "name": "burntAmountAtDAO",
      "outputs": [
        {
          "internalType": "uint256",
          "name": "",
          "type": "uint256"
        }
      ],
      "stateMutability": "view",
      "type": "function"
    },
    {
      "inputs": [],
      "name": "initialTotalSupply",
      "outputs": [
        {
          "internalType": "uint256",
          "name": "",
          "type": "uint256"
        }
      ],
      "stateMutability": "view",
      "type": "function"
    },
    {
      "inputs": [],
      "name": "seigStartBlock",
      "outputs": [
        {
          "internalType": "uint256",
          "name": "",
          "type": "uint256"
        }
      ],
      "stateMutability": "view",
      "type": "function"
    }
  ],
  "bytecode": "0x6080806040523461001657610138908161001c8239f35b600080fdfe60806040818152600436101561001457600080fd5b600091823560e01c908163311028af1461010f575080634631179e146100e7578063acd848fa146100be578063bf7f4733146100a0578063d8c47966146100835763f96032e61461006457600080fd5b3461007f578160031936011261007f57602091549051908152f35b5080fd5b503461007f578160031936011261007f576020905162a55ec28152f35b503461007f578160031936011261007f576020906002549051908152f35b503461007f578160031936011261007f57602090516e09a130b963a6c115c3c7f4000000008152f35b503461007f578160031936011261007f57602090516d08c815d5bcc20177de3b5d2500008152f35b83903461007f578160031936011261007f576020906001548152f3fea164736f6c6343000813000a",
  "linkReferences": {},
  "deployedLinkReferences": {}
}