{
  "_format": "hh-sol-artifact-1",
  "contractName": "AutoRefactorCoinageFactory",
  "sourceName": "contracts/stake/factory/AutoRefactorCoinageFactory.sol",
  "abi": [
    {
      "anonymous": false,
      "inputs": [
        {
          "indexed": true,
          "internalType": "address",
          "name": "previousOwner",
          "type": "address"
        },
        {
          "indexed": true,
          "internalType": "address",
          "name": "newOwner",
          "type": "address"
        }
      ],
      "name": "OwnershipTransferred",
      "type": "event"
    },
    {
      "inputs": [],
      "name": "RAY",
      "outputs": [
        {
          "internalType": "uint256",
          "name": "",
          "type": "uint256"
        }
      ],
      "stateMutability": "view",
      "type": "function"
    },
    {
      "inputs": [],
      "name": "autoCoinageLogic",
      "outputs": [
        {
          "internalType": "address",
          "name": "",
          "type": "address"
        }
      ],
      "stateMutability": "view",
      "type": "function"
    },
    {
      "inputs": [],
      "name": "deploy",
      "outputs": [
        {
          "internalType": "address",
          "name": "",
          "type": "address"
        }
      ],
      "stateMutability": "nonpayable",
      "type": "function"
    },
    {
      "inputs": [],
      "name": "owner",
      "outputs": [
        {
          "internalType": "address",
          "name": "",
          "type": "address"
        }
      ],
      "stateMutability": "view",
      "type": "function"
    },
    {
      "inputs": [],
      "name": "renounceOwnership",
      "outputs": [],
      "stateMutability": "nonpayable",
      "type": "function"
    },
    {
      "inputs": [
        {
          "internalType": "address",
          "name": "newLogic",
          "type": "address"
        }
      ],
      "name": "setAutoCoinageLogic",
      "outputs": [],
      "stateMutability": "nonpayable",
      "type": "function"
    },
    {
      "inputs": [
        {
          "internalType": "address",
          "name": "newOwner",
          "type": "address"
        }
      ],
      "name": "transferOwnership",
      "outputs": [],
      "stateMutability": "nonpayable",
      "type": "function"
    }
  ],
  "bytecode": "0x608060405234801561001057600080fd5b5061001a3361001f565b61006f565b600080546001600160a01b038381166001600160a01b0319831681178455604051919092169283917f8be0079c531659141344cd1fd0a4f28419497f9722a3daafe3b4186f6b6457e09190a35050565b6125ba8061007e6000396000f3fe608060405234801561001057600080fd5b506004361061007d5760003560e01c80638ad687631161005b5780638ad68763146100d25780638da5cb5b146100e5578063989e3f28146100f6578063f2fde38b1461010957600080fd5b8063552033c414610082578063715018a6146100a8578063775c300c146100b2575b600080fd5b6100956b033b2e3c9fd0803ce800000081565b6040519081526020015b60405180910390f35b6100b061011c565b005b6100ba610130565b6040516001600160a01b03909116815260200161009f565b6001546100ba906001600160a01b031681565b6000546001600160a01b03166100ba565b6100b06101043660046104ea565b610371565b6100b06101173660046104ea565b6103a8565b610124610426565b61012e6000610480565b565b60008060405161013f906104dd565b604051809103906000f08015801561015b573d6000803e3d6000fd5b50600154604051631b2ce7f360e11b81526001600160a01b039182166004820152919250821690633659cfe690602401600060405180830381600087803b1580156101a557600080fd5b505af11580156101b9573d6000803e3d6000fd5b5050604051634c1d96ab60e11b81523360048201526001600160a01b038416925063983b2d569150602401600060405180830381600087803b1580156101fe57600080fd5b505af1158015610212573d6000803e3d6000fd5b5050604051635e9d09fb60e11b815260806004820152600a60848201526929ba30b5b2b22baa27a760b11b60a482015260c06024820152600560c48201526439abaa27a760d91b60e48201526b033b2e3c9fd0803ce800000060448201523360648201526001600160a01b038416925063bd3a13f6915061010401600060405180830381600087803b1580156102a757600080fd5b505af11580156102bb573d6000803e3d6000fd5b50505050806001600160a01b031663986502756040518163ffffffff1660e01b8152600401600060405180830381600087803b1580156102fa57600080fd5b505af115801561030e573d6000803e3d6000fd5b505060405163f2fde38b60e01b81523360048201526001600160a01b038416925063f2fde38b9150602401600060405180830381600087803b15801561035357600080fd5b505af1158015610367573d6000803e3d6000fd5b5092949350505050565b610379610426565b6001805473ffffffffffffffffffffffffffffffffffffffff19166001600160a01b0392909216919091179055565b6103b0610426565b6001600160a01b03811661041a5760405162461bcd60e51b815260206004820152602660248201527f4f776e61626c653a206e6577206f776e657220697320746865207a65726f206160448201526564647265737360d01b60648201526084015b60405180910390fd5b61042381610480565b50565b6000546001600160a01b0316331461012e5760405162461bcd60e51b815260206004820181905260248201527f4f776e61626c653a2063616c6c6572206973206e6f7420746865206f776e65726044820152606401610411565b600080546001600160a01b0383811673ffffffffffffffffffffffffffffffffffffffff19831681178455604051919092169283917f8be0079c531659141344cd1fd0a4f28419497f9722a3daafe3b4186f6b6457e09190a35050565b6120938061051b83390190565b6000602082840312156104fc57600080fd5b81356001600160a01b038116811461051357600080fd5b939250505056fe60806040523480156200001157600080fd5b506200001f6000336200007f565b6200004c7ff0887ba65ee2024ea881d91b74c2450ef19e1557f03bed3ea9f16b037cbe2dc960006200008f565b620000797f523a704056dcd17bcf83bed8b68c59416dac1119be77755efe3bde0a64e46e0c60006200008f565b6200017e565b6200008b8282620000da565b5050565b600082815260056020526040808220600101805490849055905190918391839186917fbd79b86ffe0ab8e8776151514217cd7cacd52c909f66475c3af44e129f0b00ff9190a4505050565b60008281526005602090815260408083206001600160a01b038516845290915290205460ff166200008b5760008281526005602090815260408083206001600160a01b03851684529091529020805460ff191660011790556200013a3390565b6001600160a01b0316816001600160a01b0316837f2f8788117e7eff1d82e926ec794901d17c78024a50270940304540a733656f0d60405160405180910390a45050565b611f05806200018e6000396000f3fe6080604052600436106103165760003560e01c8063715018a61161019a578063a217fddf116100e1578063cfbd48851161008a578063f2fde38b11610064578063f2fde38b14610a11578063f5b541a614610a31578063fad8b32a14610a6557610368565b8063cfbd48851461099d578063d5391393146109bd578063d547741f146109f157610368565b8063ac8a584a116100bb578063ac8a584a14610927578063b7c246d714610947578063b911135f1461096757610368565b8063a217fddf146108dc578063a7ac30b0146108f1578063aa271e1a1461090757610368565b80638f32d59b11610143578063983b2d561161011d578063983b2d561461088757806398650275146108a75780639870d7fe146108bc57610368565b80638f32d59b146107e857806391d148541461082c57806395d89b411461087257610368565b80637cd5f663116101745780637cd5f663146107885780638b8f4a65146107a85780638d4fdb40146107c857610368565b8063715018a61461073357806375829def146107485780637cb00d251461076857610368565b80633659cfe61161025e5780635cc797d8116102075780636d70f7ae116101e15780636d70f7ae146106d35780636fb7f558146106f3578063704802751461071357610368565b80635cc797d81461068357806363a8fd89146106a35780636d150611146106bd57610368565b806350d2a2761161023857806350d2a276146105bf578063550d01a31461060d5780635c60da1b1461063d57610368565b80633659cfe6146105605780633eaaf86b146105805780634a5df50f1461059f57610368565b806324d7806c116102c05780632f2ff15d1161029a5780632f2ff15d146105005780633092afd51461052057806336568abe1461054057610368565b806324d7806c1461047457806327e235e3146104945780632ab6f8db146104eb57610368565b806306fdde03116102f157806306fdde03146104025780631785f53c14610424578063248a9ca31461044457610368565b8062d87a9c1461037257806301ffc9a71461039a578063024c2ddd146103ca57610368565b366103685760405162461bcd60e51b815260206004820152601460248201527f63616e6e6f74207265636569766520457468657200000000000000000000000060448201526064015b60405180910390fd5b610370610a85565b005b34801561037e57600080fd5b50610387600281565b6040519081526020015b60405180910390f35b3480156103a657600080fd5b506103ba6103b5366004611b2b565b610b2e565b6040519015158152602001610391565b3480156103d657600080fd5b506103876103e5366004611b71565b601060209081526000928352604080842090915290825290205481565b34801561040e57600080fd5b50610417610b3f565b6040516103919190611bc8565b34801561043057600080fd5b5061037061043f366004611bfb565b610bcd565b34801561045057600080fd5b5061038761045f366004611c16565b60009081526005602052604090206001015490565b34801561048057600080fd5b506103ba61048f366004611bfb565b610c00565b3480156104a057600080fd5b506104d06104af366004611bfb565b60086020526000908152604090208054600182015460029092015490919083565b60408051938452602084019290925290820152606001610391565b3480156104f757600080fd5b50610370610c40565b34801561050c57600080fd5b5061037061051b366004611c2f565b610c6c565b34801561052c57600080fd5b5061037061053b366004611bfb565b610c91565b34801561054c57600080fd5b5061037061055b366004611c2f565b610cdc565b34801561056c57600080fd5b5061037061057b366004611bfb565b610d68565b34801561058c57600080fd5b50600954600a54600b546104d092919083565b3480156105ab57600080fd5b506103706105ba366004611c52565b610e98565b3480156105cb57600080fd5b506105f56105da366004611b2b565b6003602052600090815260409020546001600160a01b031681565b6040516001600160a01b039091168152602001610391565b34801561061957600080fd5b506103ba610628366004611bfb565b60026020526000908152604090205460ff1681565b34801561064957600080fd5b506000805260016020527fa6eef7e35abe7026729641147f7915573c7e97b47efa546f5f6e3230263bcb49546001600160a01b03166105f5565b34801561068f57600080fd5b5061037061069e366004611ce6565b61111c565b3480156106af57600080fd5b506000546103ba9060ff1681565b3480156106c957600080fd5b50610387600c5481565b3480156106df57600080fd5b506103ba6106ee366004611bfb565b61114b565b3480156106ff57600080fd5b506006546105f5906001600160a01b031681565b34801561071f57600080fd5b5061037061072e366004611bfb565b61118b565b34801561073f57600080fd5b506103706111bb565b34801561075457600080fd5b50610370610763366004611bfb565b6111eb565b34801561077457600080fd5b50610370610783366004611d10565b6112d4565b34801561079457600080fd5b506103706107a3366004611d2b565b61130c565b3480156107b457600080fd5b506105f56107c3366004611c16565b61133c565b3480156107d457600080fd5b506105f56107e3366004611b2b565b611359565b3480156107f457600080fd5b503360009081527f05b8ccbb9d4d8fb16ea74ce3c29a41f1b461fbdaff4714a0d9a8eb05499746bc602052604090205460ff166103ba565b34801561083857600080fd5b506103ba610847366004611c2f565b60009182526005602090815260408084206001600160a01b0393909316845291905290205460ff1690565b34801561087e57600080fd5b5061041761141c565b34801561089357600080fd5b506103706108a2366004611bfb565b611429565b3480156108b357600080fd5b50610370611478565b3480156108c857600080fd5b506103706108d7366004611bfb565b6114a2565b3480156108e857600080fd5b50610387600081565b3480156108fd57600080fd5b5061038760075481565b34801561091357600080fd5b506103ba610922366004611bfb565b6114f1565b34801561093357600080fd5b50610370610942366004611bfb565b611531565b34801561095357600080fd5b506103876b204fce5e3e2502611000000081565b34801561097357600080fd5b506105f5610982366004611c16565b6001602052600090815260409020546001600160a01b031681565b3480156109a957600080fd5b506103706109b8366004611bfb565b611580565b3480156109c957600080fd5b506103877ff0887ba65ee2024ea881d91b74c2450ef19e1557f03bed3ea9f16b037cbe2dc981565b3480156109fd57600080fd5b50610370610a0c366004611c2f565b6115cb565b348015610a1d57600080fd5b50610370610a2c366004611bfb565b6115f0565b348015610a3d57600080fd5b506103877f523a704056dcd17bcf83bed8b68c59416dac1119be77755efe3bde0a64e46e0c81565b348015610a7157600080fd5b50610370610a80366004611bfb565b61161e565b6000610a9c6000356001600160e01b031916611359565b90506001600160a01b03811615801590610ab9575060005460ff16155b610b055760405162461bcd60e51b815260206004820152601d60248201527f50726f78793a20696d706c204f522070726f78792069732066616c7365000000604482015260640161035f565b3660008037600080366000845af43d6000803e808015610b24573d6000f35b3d6000fd5b505050565b6000610b398261166d565b92915050565b600e8054610b4c90611d5e565b80601f0160208091040260200160405190810160405280929190818152602001828054610b7890611d5e565b8015610bc55780601f10610b9a57610100808354040283529160200191610bc5565b820191906000526020600020905b815481529060010190602001808311610ba857829003601f168201915b505050505081565b610bd633610c00565b610bf25760405162461bcd60e51b815260040161035f90611d98565b610bfd600082610cdc565b50565b6001600160a01b03811660009081527f05b8ccbb9d4d8fb16ea74ce3c29a41f1b461fbdaff4714a0d9a8eb05499746bc602052604081205460ff16610b39565b610c6a7f523a704056dcd17bcf83bed8b68c59416dac1119be77755efe3bde0a64e46e0c33610cdc565b565b600082815260056020526040902060010154610c8781611692565b610b29838361169c565b610c9a33610c00565b610cb65760405162461bcd60e51b815260040161035f90611d98565b610bfd7ff0887ba65ee2024ea881d91b74c2450ef19e1557f03bed3ea9f16b037cbe2dc9825b6001600160a01b0381163314610d5a5760405162461bcd60e51b815260206004820152602f60248201527f416363657373436f6e74726f6c3a2063616e206f6e6c792072656e6f756e636560448201527f20726f6c657320666f722073656c660000000000000000000000000000000000606482015260840161035f565b610d64828261173e565b5050565b610d7133610c00565b610d8d5760405162461bcd60e51b815260040161035f90611d98565b6001600160a01b038116610de35760405162461bcd60e51b815260206004820152600d60248201527f696e707574206973207a65726f00000000000000000000000000000000000000604482015260640161035f565b6000805260016020527fa6eef7e35abe7026729641147f7915573c7e97b47efa546f5f6e3230263bcb49546001600160a01b03828116911603610e545760405162461bcd60e51b815260206004820152600960248201526839b0b6b29030b2323960b91b604482015260640161035f565b610e6181600060016117c1565b6040516001600160a01b038216907fbc7cd75a20ee27fd9adebab32041f755214dbc6bffa90cc0225b39da2e5c2d3b90600090a250565b610ea133610c00565b610ebd5760405162461bcd60e51b815260040161035f90611d98565b81610f0a5760405162461bcd60e51b815260206004820181905260248201527f50726f78793a205f73656c6563746f727327732073697a65206973207a65726f604482015260640161035f565b6001600160a01b03811660009081526002602052604090205460ff16610f725760405162461bcd60e51b815260206004820152601860248201527f50726f78793a205f696d70206973206e6f7420616c6976650000000000000000604482015260640161035f565b60005b8281101561111657816001600160a01b031660036000868685818110610f9d57610f9d611ddb565b9050602002016020810190610fb29190611b2b565b6001600160e01b03191681526020810191909152604001600020546001600160a01b0316036110235760405162461bcd60e51b815260206004820152601d60248201527f4c69717569646974795661756c7450726f78793a2073616d6520696d70000000604482015260640161035f565b816003600086868581811061103a5761103a611ddb565b905060200201602081019061104f9190611b2b565b6001600160e01b03191681526020810191909152604001600020805473ffffffffffffffffffffffffffffffffffffffff19166001600160a01b0392831617905582168484838181106110a4576110a4611ddb565b90506020020160208101906110b99190611b2b565b7bffffffffffffffffffffffffffffffffffffffffffffffffffffffff19167f14ebc1c32aa68f4d766e89f3e546cee249f7df25183fc10ab1568d91c2ce9b7b60405160405180910390a38061110e81611e07565b915050610f75565b50505050565b61112533610c00565b6111415760405162461bcd60e51b815260040161035f90611d98565b610d648282611859565b6001600160a01b03811660009081527f02634a7c777b8129955fe1824eee49ef19dfa96f2f4cb63212492c3d84eb58e6602052604081205460ff16610b39565b61119433610c00565b6111b05760405162461bcd60e51b815260040161035f90611d98565b610bfd600082610c6c565b6111c433610c00565b6111e05760405162461bcd60e51b815260040161035f90611d98565b610c6a600033610cdc565b6111f433610c00565b6112105760405162461bcd60e51b815260040161035f90611d98565b6001600160a01b0381166112665760405162461bcd60e51b815260206004820152601860248201527f41636365737369626c653a207a65726f20616464726573730000000000000000604482015260640161035f565b6001600160a01b03811633036112be5760405162461bcd60e51b815260206004820152601660248201527f41636365737369626c653a2073616d652061646d696e00000000000000000000604482015260640161035f565b6112c9600082610c6c565b610bfd600033610cdc565b6112dd33610c00565b6112f95760405162461bcd60e51b815260040161035f90611d98565b6000805460ff1916911515919091179055565b61131533610c00565b6113315760405162461bcd60e51b815260040161035f90611d98565b610b298383836117c1565b6000818152600160205260408120546001600160a01b0316610b39565b6001600160e01b031981166000908152600360205260408120546001600160a01b0316806113bb575050600080525060016020527fa6eef7e35abe7026729641147f7915573c7e97b47efa546f5f6e3230263bcb49546001600160a01b031690565b6001600160a01b03811660009081526002602052604090205460ff16156113e25792915050565b5050600080525060016020527fa6eef7e35abe7026729641147f7915573c7e97b47efa546f5f6e3230263bcb49546001600160a01b031690565b600f8054610b4c90611d5e565b61143233610c00565b61144e5760405162461bcd60e51b815260040161035f90611d98565b610bfd7ff0887ba65ee2024ea881d91b74c2450ef19e1557f03bed3ea9f16b037cbe2dc982610c6c565b610c6a7ff0887ba65ee2024ea881d91b74c2450ef19e1557f03bed3ea9f16b037cbe2dc933610cdc565b6114ab33610c00565b6114c75760405162461bcd60e51b815260040161035f90611d98565b610bfd7f523a704056dcd17bcf83bed8b68c59416dac1119be77755efe3bde0a64e46e0c82610c6c565b6001600160a01b03811660009081527fca0a2f641ec05ca23127d994cf03ffc453db616acae0b86cb56bb95304d06854602052604081205460ff16610b39565b61153a33610c00565b6115565760405162461bcd60e51b815260040161035f90611d98565b610bfd7f523a704056dcd17bcf83bed8b68c59416dac1119be77755efe3bde0a64e46e0c82610cdc565b61158933610c00565b6115a55760405162461bcd60e51b815260040161035f90611d98565b610bfd7ff0887ba65ee2024ea881d91b74c2450ef19e1557f03bed3ea9f16b037cbe2dc9825b6000828152600560205260409020600101546115e681611692565b610b29838361173e565b6115f933610c00565b6116155760405162461bcd60e51b815260040161035f90611d98565b610bfd816111eb565b61162733610c00565b6116435760405162461bcd60e51b815260040161035f90611d98565b610bfd7f523a704056dcd17bcf83bed8b68c59416dac1119be77755efe3bde0a64e46e0c826115cb565b60006001600160e01b03198216637965db0b60e01b1480610b395750610b39826118b8565b610bfd81336118f4565b60008281526005602090815260408083206001600160a01b038516845290915290205460ff16610d645760008281526005602090815260408083206001600160a01b03851684529091529020805460ff191660011790556116fa3390565b6001600160a01b0316816001600160a01b0316837f2f8788117e7eff1d82e926ec794901d17c78024a50270940304540a733656f0d60405160405180910390a45050565b60008281526005602090815260408083206001600160a01b038516845290915290205460ff1615610d645760008281526005602090815260408083206001600160a01b0385168085529252808320805460ff1916905551339285917ff6391f5c32d9c69d2a47ea670b442974b53935d1edc7fd64eb21e047a839171b9190a45050565b6001600160a01b0383163b6118185760405162461bcd60e51b815260206004820152601b60248201527f50726f78793a206e6f7420636f6e747261637420616464726573730000000000604482015260640161035f565b8015611853576000828152600160205260409020805473ffffffffffffffffffffffffffffffffffffffff19166001600160a01b0385161790555b610b2983825b6001600160a01b038216600081815260026020908152604091829020805460ff191685151590811790915591519182527f72558d9bfba4210f9ef095c782589484151f6d90f7a81bb3cb9b33efc695d324910160405180910390a25050565b60006301ffc9a760e01b6001600160e01b031983161480610b395750506001600160e01b03191660009081526004602052604090205460ff1690565b60008281526005602090815260408083206001600160a01b038516845290915290205460ff16610d645761192781611969565b61193283602061197b565b604051602001611943929190611e20565b60408051601f198184030181529082905262461bcd60e51b825261035f91600401611bc8565b6060610b396001600160a01b03831660145b6060600061198a836002611ea1565b611995906002611eb8565b67ffffffffffffffff8111156119ad576119ad611ecb565b6040519080825280601f01601f1916602001820160405280156119d7576020820181803683370190505b509050600360fc1b816000815181106119f2576119f2611ddb565b60200101906001600160f81b031916908160001a905350600f60fb1b81600181518110611a2157611a21611ddb565b60200101906001600160f81b031916908160001a9053506000611a45846002611ea1565b611a50906001611eb8565b90505b6001811115611ad5577f303132333435363738396162636465660000000000000000000000000000000085600f1660108110611a9157611a91611ddb565b1a60f81b828281518110611aa757611aa7611ddb565b60200101906001600160f81b031916908160001a90535060049490941c93611ace81611ee1565b9050611a53565b508315611b245760405162461bcd60e51b815260206004820181905260248201527f537472696e67733a20686578206c656e67746820696e73756666696369656e74604482015260640161035f565b9392505050565b600060208284031215611b3d57600080fd5b81356001600160e01b031981168114611b2457600080fd5b80356001600160a01b0381168114611b6c57600080fd5b919050565b60008060408385031215611b8457600080fd5b611b8d83611b55565b9150611b9b60208401611b55565b90509250929050565b60005b83811015611bbf578181015183820152602001611ba7565b50506000910152565b6020815260008251806020840152611be7816040850160208701611ba4565b601f01601f19169190910160400192915050565b600060208284031215611c0d57600080fd5b611b2482611b55565b600060208284031215611c2857600080fd5b5035919050565b60008060408385031215611c4257600080fd5b82359150611b9b60208401611b55565b600080600060408486031215611c6757600080fd5b833567ffffffffffffffff80821115611c7f57600080fd5b818601915086601f830112611c9357600080fd5b813581811115611ca257600080fd5b8760208260051b8501011115611cb757600080fd5b602092830195509350611ccd9186019050611b55565b90509250925092565b80358015158114611b6c57600080fd5b60008060408385031215611cf957600080fd5b611d0283611b55565b9150611b9b60208401611cd6565b600060208284031215611d2257600080fd5b611b2482611cd6565b600080600060608486031215611d4057600080fd5b611d4984611b55565b925060208401359150611ccd60408501611cd6565b600181811c90821680611d7257607f821691505b602082108103611d9257634e487b7160e01b600052602260045260246000fd5b50919050565b60208082526023908201527f41757468436f6e74726f6c3a2043616c6c6572206973206e6f7420616e20616460408201526236b4b760e91b606082015260800190565b634e487b7160e01b600052603260045260246000fd5b634e487b7160e01b600052601160045260246000fd5b600060018201611e1957611e19611df1565b5060010190565b7f416363657373436f6e74726f6c3a206163636f756e7420000000000000000000815260008351611e58816017850160208801611ba4565b7f206973206d697373696e6720726f6c65200000000000000000000000000000006017918401918201528351611e95816028840160208801611ba4565b01602801949350505050565b8082028115828204841417610b3957610b39611df1565b80820180821115610b3957610b39611df1565b634e487b7160e01b600052604160045260246000fd5b600081611ef057611ef0611df1565b50600019019056fea164736f6c6343000813000aa164736f6c6343000813000a",
  "linkReferences": {},
  "deployedLinkReferences": {}
}