{
  "_format": "hh-sol-artifact-1",
  "contractName": "AutoRefactorCoinageFactory",
  "sourceName": "contracts/stake/factory/AutoRefactorCoinageFactory.sol",
  "abi": [
    {
      "anonymous": false,
      "inputs": [
        {
          "indexed": true,
          "internalType": "address",
          "name": "previousOwner",
          "type": "address"
        },
        {
          "indexed": true,
          "internalType": "address",
          "name": "newOwner",
          "type": "address"
        }
      ],
      "name": "OwnershipTransferred",
      "type": "event"
    },
    {
      "inputs": [],
      "name": "RAY",
      "outputs": [
        {
          "internalType": "uint256",
          "name": "",
          "type": "uint256"
        }
      ],
      "stateMutability": "view",
      "type": "function"
    },
    {
      "inputs": [],
      "name": "autoCoinageLogic",
      "outputs": [
        {
          "internalType": "address",
          "name": "",
          "type": "address"
        }
      ],
      "stateMutability": "view",
      "type": "function"
    },
    {
      "inputs": [],
      "name": "deploy",
      "outputs": [
        {
          "internalType": "address",
          "name": "",
          "type": "address"
        }
      ],
      "stateMutability": "nonpayable",
      "type": "function"
    },
    {
      "inputs": [],
      "name": "owner",
      "outputs": [
        {
          "internalType": "address",
          "name": "",
          "type": "address"
        }
      ],
      "stateMutability": "view",
      "type": "function"
    },
    {
      "inputs": [],
      "name": "renounceOwnership",
      "outputs": [],
      "stateMutability": "nonpayable",
      "type": "function"
    },
    {
      "inputs": [
        {
          "internalType": "address",
          "name": "newLogic",
          "type": "address"
        }
      ],
      "name": "setAutoCoinageLogic",
      "outputs": [],
      "stateMutability": "nonpayable",
      "type": "function"
    },
    {
      "inputs": [
        {
          "internalType": "address",
          "name": "newOwner",
          "type": "address"
        }
      ],
      "name": "transferOwnership",
      "outputs": [],
      "stateMutability": "nonpayable",
      "type": "function"
    }
  ],
  "bytecode": "0x6080806040523461005b5760008054336001600160a01b0319821681178355916001600160a01b03909116907f8be0079c531659141344cd1fd0a4f28419497f9722a3daafe3b4186f6b6457e09080a361264b90816100618239f35b600080fdfe608060408181526004908136101561001657600080fd5b600092833560e01c908163552033c41461047257508063715018a614610415578063775c300c146101e55780638ad68763146101bc5780638da5cb5b14610194578063989e3f28146101475763f2fde38b1461007157600080fd5b34610143576020366003190112610143576001600160a01b0382358181169391929084900361013f576100a2610498565b83156100ed575050600054826bffffffffffffffffffffffff60a01b821617600055167f8be0079c531659141344cd1fd0a4f28419497f9722a3daafe3b4186f6b6457e0600080a380f35b906020608492519162461bcd60e51b8352820152602660248201527f4f776e61626c653a206e6577206f776e657220697320746865207a65726f206160448201526564647265737360d01b6064820152fd5b8480fd5b8280fd5b50503461019057602036600319011261019057356001600160a01b0381169081900361019057610175610498565b6bffffffffffffffffffffffff60a01b600154161760015580f35b5080fd5b838234610190578160031936011261019057905490516001600160a01b039091168152602090f35b83823461019057816003193601126101905760015490516001600160a01b039091168152602090f35b503461014357826003193601126101435780516121248082019082821067ffffffffffffffff8311176104025790829161051b8339039084f09182156103f8576001546001600160a01b039384169316833b1561013f57825190631b2ce7f360e11b825282820152848160248183885af180156103ee576103db575b50823b15610391578151634c1d96ab60e11b815233828201528490818160248183895af180156103a9576103c7575b5050823b15610391578151635e9d09fb60e11b8152608082820152600a60848201526929ba30b5b2b22baa27a760b11b60a482015260c06024820152600560c48201526439abaa27a760d91b60e48201526b033b2e3c9fd0803ce80000006044820152336064820152849081816101048183895af180156103a9576103b3575b5050823b15610391578151639865027560e01b815284908181848183895af180156103a957610395575b5050823b156103915781519063f2fde38b60e01b82523390820152838160248183875af1801561038757610373575b6020838351908152f35b61037d84916104f0565b6101435782610369565b82513d86823e3d90fd5b8380fd5b61039e906104f0565b61039157833861033a565b84513d84823e3d90fd5b6103bc906104f0565b610391578338610310565b6103d0906104f0565b610391578338610290565b6103e7909491946104f0565b9238610261565b83513d87823e3d90fd5b81513d85823e3d90fd5b634e487b7160e01b865260418552602486fd5b833461046f578060031936011261046f5761042e610498565b80546001600160a01b03198116825581906001600160a01b03167f8be0079c531659141344cd1fd0a4f28419497f9722a3daafe3b4186f6b6457e08280a380f35b80fd5b849034610190578160031936011261019057806b033b2e3c9fd0803ce800000060209252f35b6000546001600160a01b031633036104ac57565b606460405162461bcd60e51b815260206004820152602060248201527f4f776e61626c653a2063616c6c6572206973206e6f7420746865206f776e65726044820152fd5b67ffffffffffffffff811161050457604052565b634e487b7160e01b600052604160045260246000fdfe608060408181523461011257600090818052600560205280822033835260205260ff8183205416156100c7575b7ff0887ba65ee2024ea881d91b74c2450ef19e1557f03bed3ea9f16b037cbe2dc99081835260056020528260018282200181815491557fbd79b86ffe0ab8e8776151514217cd7cacd52c909f66475c3af44e129f0b00ff93848380a460017f523a704056dcd17bcf83bed8b68c59416dac1119be77755efe3bde0a64e46e0c918285528420019183835493558380a461200c90816101188239f35b8180526005602052808220338352602052808220600160ff198254161790553333837f2f8788117e7eff1d82e926ec794901d17c78024a50270940304540a733656f0d8180a461002c565b600080fdfe60806040526004361015610018575b36611df857611dbc565b60003560e01c8062d87a9c1461031257806301ffc9a71461030d578063024c2ddd1461030857806306fdde03146103035780631785f53c146102fe578063248a9ca3146102f957806324d7806c146102f457806327e235e3146102ef5780632ab6f8db146102ea5780632f2ff15d146102e55780633092afd5146102e057806336568abe146102db5780633659cfe6146102d65780633eaaf86b146102d15780634a5df50f146102cc57806350d2a276146102c7578063550d01a3146102c25780635c60da1b146102bd5780635cc797d8146102b857806363a8fd89146102b35780636d150611146102ae5780636d70f7ae146102a95780636fb7f558146102a4578063704802751461029f578063715018a61461029a57806375829def146102955780637cb00d25146102905780637cd5f6631461028b5780638b8f4a651461024a5780638d4fdb40146102865780638f32d59b1461028157806391d148541461027c57806395d89b4114610277578063983b2d5614610272578063986502751461026d5780639870d7fe14610268578063a217fddf14610263578063a7ac30b01461025e578063aa271e1a14610259578063ac8a584a14610254578063b7c246d71461024f578063b911135f1461024a578063cfbd488514610245578063d539139314610240578063d547741f1461023b578063f2fde38b14610236578063f5b541a6146102315763fad8b32a0361000e57611578565b61154f565b61152a565b6114eb565b6114c2565b6113d9565b611058565b6113b2565b611385565b611333565b611315565b6112f9565b61128c565b611272565b611205565b611142565b6110fc565b6110c5565b61108c565b610f7e565b610f26565b610e5f565b610e39565b610d4d565b610d24565b610cd2565b610cb4565b610c91565b610c3a565b610c09565b610bca565b610b84565b61099c565b61096a565b61088a565b6107f8565b6107cb565b610702565b6106e8565b61068d565b61063d565b61060e565b6105da565b6104ce565b6103ea565b610345565b3461032e57600036600319011261032e57602060405160028152f35b600080fd5b6001600160e01b031981160361032e57565b3461032e57602036600319011261032e5760043561036281610333565b6001600160e01b031916637965db0b60e01b8114801561038a575b6020906040519015158152f35b506301ffc9a760e01b811480156103a5575b6020915061037d565b506000526004602052602060ff6040600020541661039c565b600435906001600160a01b038216820361032e57565b602435906001600160a01b038216820361032e57565b3461032e57604036600319011261032e5760206104396104086103be565b6104106103d4565b6001600160a01b0391821660009081526010855260408082209290931681526020919091522090565b54604051908152f35b634e487b7160e01b600052604160045260246000fd5b90601f8019910116810190811067ffffffffffffffff82111761047a57604052565b610442565b60005b8381106104925750506000910152565b8181015183820152602001610482565b604091602082526104c2815180928160208601526020868601910161047f565b601f01601f1916010190565b3461032e576000806003193601126105d7576040519080600e549060019180831c928082169283156105cd575b60209283861085146105b9578588526020880194908115610598575060011461053f575b61053b8761052f81890382610458565b604051918291826104a2565b0390f35b600e60005294509192917fbb7b4a454dc3493923482f07822329ed19e8244eff582cc204f8554c3620c3fd5b838610610587575050509101905061052f8261053b388061051f565b80548587015294820194810161056b565b60ff191685525050505090151560051b01905061052f8261053b388061051f565b634e487b7160e01b82526022600452602482fd5b93607f16936104fb565b80fd5b3461032e57602036600319011261032e5761060c6105f66103be565b610607610602336115e5565b611bc7565b61182b565b005b3461032e57602036600319011261032e5760043560005260056020526020600160406000200154604051908152f35b3461032e57602036600319011261032e57602060ff61068161065d6103be565b600080526005845260406000209060018060a01b0316600052602052604060002090565b54166040519015158152f35b3461032e57602036600319011261032e576001600160a01b036106ae6103be565b1660005260086020526040600020805461053b60026001840154930154604051938493846040919493926060820195825260208201520152565b3461032e57600036600319011261032e5761060c336118b6565b3461032e57604036600319011261032e5760043561071e6103d4565b600091808352600560205261073960016040852001546116d3565b8083526005602090815260408085206001600160a01b0385166000908152925290205460ff1615610768578280f35b8083526005602090815260408085206001600160a01b038516600090815292529020805460ff1916600117905533916001600160a01b0316907f2f8788117e7eff1d82e926ec794901d17c78024a50270940304540a733656f0d8480a438808280f35b3461032e57602036600319011261032e5761060c6107e76103be565b6107f3610602336115e5565b61196c565b3461032e57604036600319011261032e576108116103d4565b336001600160a01b0382160361082d5761060c906004356119ce565b60405162461bcd60e51b815260206004820152602f60248201527f416363657373436f6e74726f6c3a2063616e206f6e6c792072656e6f756e636560448201526e103937b632b9903337b91039b2b63360891b6064820152608490fd5b3461032e57602036600319011261032e576108a36103be565b336000908152600080516020611fe0833981519152602052604081209091906108d19060ff905b5416611bc7565b6001600160a01b038116908115610935578280526001602052604083205461090e9190610909906001600160a01b0316841415611c1f565b611e93565b7fbc7cd75a20ee27fd9adebab32041f755214dbc6bffa90cc0225b39da2e5c2d3b8280a280f35b60405162461bcd60e51b815260206004820152600d60248201526c696e707574206973207a65726f60981b6044820152606490fd5b3461032e57600036600319011261032e57600954600a54600b5460408051938452602084019290925290820152606090f35b3461032e57604036600319011261032e5767ffffffffffffffff60043581811161032e573660238201121561032e57806004013591821161032e576024810190602436918460051b01011161032e576109f36103d4565b336000908152600080516020611fe083398151915260205260408120909390610a1e9060ff906108ca565b8015610b4057610a54610a4f610a4884959460018060a01b03166000526002602052604060002090565b5460ff1690565b611c57565b6001600160a01b03928084169290855b838110610a6f578680f35b80610abf8688610ab7610aaa610a91610a8c610b3b988c8c611cb2565b611cc2565b63ffffffff60e01b166000526003602052604060002090565b546001600160a01b031690565b161415611ccc565b610af383610ad4610a91610a8c858a8a611cb2565b80546001600160a01b0319166001600160a01b03909216919091179055565b85610b12610b05610a8c848989611cb2565b6001600160e01b03191690565b7f14ebc1c32aa68f4d766e89f3e546cee249f7df25183fc10ab1568d91c2ce9b7b8a80a3611ca3565b610a64565b606460405162461bcd60e51b815260206004820152602060248201527f50726f78793a205f73656c6563746f727327732073697a65206973207a65726f6044820152fd5b3461032e57602036600319011261032e57600435610ba181610333565b63ffffffff60e01b166000526003602052602060018060a01b0360406000205416604051908152f35b3461032e57602036600319011261032e576001600160a01b03610beb6103be565b166000526002602052602060ff604060002054166040519015158152f35b3461032e576000806003193601126105d75780806020925260018252604060018060a01b0391205416604051908152f35b3461032e57604036600319011261032e57610c536103be565b602435801515810361032e57336000908152600080516020611fe08339815191526020526040902061060c9290610c8c9060ff906108ca565b611f2b565b3461032e57600036600319011261032e57602060ff600054166040519015158152f35b3461032e57600036600319011261032e576020600c54604051908152f35b3461032e57602036600319011261032e57602060ff610681610cf26103be565b600080516020611fa08339815191526000526005845260406000209060018060a01b0316600052602052604060002090565b3461032e57600036600319011261032e576006546040516001600160a01b039091168152602090f35b3461032e57602036600319011261032e57610d666103be565b610d72610602336115e5565b600080805260056020527f05b8ccbb9d4d8fb16ea74ce3c29a41f1b461fbdaff4714a0d9a8eb05499746bd54909190610daa906116d3565b8180526005602090815260408084206001600160a01b0384166000908152925290205460ff1615610dd9575080f35b8180526005602090815260408084206001600160a01b038416600090815292529020805460ff1916600117905533906001600160a01b0316827f2f8788117e7eff1d82e926ec794901d17c78024a50270940304540a733656f0d8180a480f35b3461032e57600036600319011261032e57610e56610602336115e5565b61060c3361182b565b3461032e57602036600319011261032e57610e786103be565b610e84610602336115e5565b6001600160a01b0381168015610ee1573314610ea357610e5690611610565b60405162461bcd60e51b815260206004820152601660248201527520b1b1b2b9b9b4b136329d1039b0b6b29030b236b4b760511b6044820152606490fd5b60405162461bcd60e51b815260206004820152601860248201527f41636365737369626c653a207a65726f206164647265737300000000000000006044820152606490fd5b3461032e57602036600319011261032e5760043580151580910361032e57336000908152600080516020611fe083398151915260205260408120909190610f6f9060ff906108ca565b60ff8019835416911617815580f35b3461032e57606036600319011261032e57610f976103be565b60443590811515820361032e57336000908152600080516020611fe083398151915260205260408120909290610fcf9060ff906108ca565b813b1561101357610fe49181610fe757611f2b565b80f35b602435845260016020526040842080546001600160a01b0319166001600160a01b038316179055611f2b565b60405162461bcd60e51b815260206004820152601b60248201527f50726f78793a206e6f7420636f6e7472616374206164647265737300000000006044820152606490fd5b3461032e57602036600319011261032e576004356000526001602052602060018060a01b0360406000205416604051908152f35b3461032e57602036600319011261032e5760206110b36004356110ae81610333565b611d18565b6040516001600160a01b039091168152f35b3461032e576000806003193601126105d757808052600560209081526040918290203360009081529082529190912060ff90610681565b3461032e57604036600319011261032e57602060ff61068161111c6103d4565b6004356000526005845260406000209060018060a01b0316600052602052604060002090565b3461032e576000806003193601126105d7576040519080600f549060019180831c928082169283156111fb575b60209283861085146105b957858852602088019490811561059857506001146111a25761053b8761052f81890382610458565b600f60005294509192917f8d1108e10bcb7c27dddfc02ed9d693a074039d026cf4ea4240b40f7d581ac8025b8386106111ea575050509101905061052f8261053b388061051f565b8054858701529482019481016111ce565b93607f169361116f565b3461032e57602036600319011261032e5761121e6103be565b61122a610602336115e5565b600080516020611f80833981519152600081815260056020527fca0a2f641ec05ca23127d994cf03ffc453db616acae0b86cb56bb95304d068555490929190610739906116d3565b3461032e57600036600319011261032e5761060c3361196c565b3461032e57602036600319011261032e576112a56103be565b6112b1610602336115e5565b600080516020611fa0833981519152600081815260056020527f02634a7c777b8129955fe1824eee49ef19dfa96f2f4cb63212492c3d84eb58e75490929190610739906116d3565b3461032e57600036600319011261032e57602060405160008152f35b3461032e57600036600319011261032e576020600754604051908152f35b3461032e57602036600319011261032e57602060ff6106816113536103be565b600080516020611f808339815191526000526005845260406000209060018060a01b0316600052602052604060002090565b3461032e57602036600319011261032e5761060c6113a16103be565b6113ad610602336115e5565b6118b6565b3461032e57600036600319011261032e5760206040516b204fce5e3e250261100000008152f35b3461032e57602036600319011261032e576113f26103be565b6113fe610602336115e5565b600080516020611f80833981519152600081815260056020527fca0a2f641ec05ca23127d994cf03ffc453db616acae0b86cb56bb95304d068555490929190611446906116d3565b8083526005602090815260408085206001600160a01b0385166000908152925290205460ff16611474578280f35b8083526005602090815260408085206001600160a01b038516600090815292529020805460ff1916905533916001600160a01b031690600080516020611fc08339815191528480a438808280f35b3461032e57600036600319011261032e576020604051600080516020611f808339815191528152f35b3461032e57604036600319011261032e5761060c60043561150a6103d4565b908060005260056020526115256001604060002001546116d3565b6119ce565b3461032e57602036600319011261032e576115436103be565b610e78610602336115e5565b3461032e57600036600319011261032e576020604051600080516020611fa08339815191528152f35b3461032e57602036600319011261032e576115916103be565b61159d610602336115e5565b600080516020611fa0833981519152600081815260056020527f02634a7c777b8129955fe1824eee49ef19dfa96f2f4cb63212492c3d84eb58e75490929190611446906116d3565b6001600160a01b03166000908152600080516020611fe0833981519152602052604090205460ff1690565b600080805260056020527f05b8ccbb9d4d8fb16ea74ce3c29a41f1b461fbdaff4714a0d9a8eb05499746bd54611645906116d3565b8080526005602090815260408083206001600160a01b0385166000908152925290205460ff1615611674575050565b8080526005602090815260408083206001600160a01b038516600090815292529020805460ff1916600117905533916001600160a01b0316907f2f8788117e7eff1d82e926ec794901d17c78024a50270940304540a733656f0d8180a4565b600081815260056020908152604080832033845290915290205460ff16156116f85750565b3390611702611a65565b91603061170e84611aa8565b53607861171a84611ab5565b5360295b600181116117cd576117c96117866117b1866117a3611746886117418915611ae8565b611b33565b611780604051958694611780602087016017907f416363657373436f6e74726f6c3a206163636f756e742000000000000000000081520190565b90611814565b7001034b99036b4b9b9b4b733903937b6329607d1b815260110190565b03601f198101835282610458565b60405162461bcd60e51b8152918291600483016104a2565b0390fd5b90600f811690601082101561180f5761180a916f181899199a1a9b1b9c1cb0b131b232b360811b901a6118008487611ac5565b5360041c91611ad6565b61171e565b611a92565b906118276020928281519485920161047f565b0190565b6001600160a01b03811633810361082d576001600160a01b0382166000908152600080516020611fe0833981519152602052604081205490929060ff1661187157505050565b611898908380526005602052604084209060018060a01b0316600052602052604060002090565b805460ff191690553391600080516020611fc08339815191528180a4565b6001600160a01b03811633810361082d576001600160a01b03821660009081527f02634a7c777b8129955fe1824eee49ef19dfa96f2f4cb63212492c3d84eb58e6602052604081209092600080516020611fa08339815191529160ff905b5416611921575b50505050565b611948908285526005602052604085209060018060a01b0316600052602052604060002090565b60ff198154169055600080516020611fc0833981519152339380a43880808061191b565b6001600160a01b03811633810361082d576001600160a01b03821660009081527fca0a2f641ec05ca23127d994cf03ffc453db616acae0b86cb56bb95304d06854602052604081209092600080516020611f808339815191529160ff90611914565b600090808252600560205260ff6119fa84604085209060018060a01b0316600052602052604060002090565b5416611a0557505050565b8082526005602090815260408084206001600160a01b038616600090815292529020805460ff1916905533926001600160a01b031691600080516020611fc08339815191529080a4565b634e487b7160e01b600052601160045260246000fd5b604051906060820182811067ffffffffffffffff82111761047a57604052602a8252604082602036910137565b634e487b7160e01b600052603260045260246000fd5b80511561180f5760200190565b80516001101561180f5760210190565b90815181101561180f570160200190565b8015611ae3576000190190565b611a4f565b15611aef57565b606460405162461bcd60e51b815260206004820152602060248201527f537472696e67733a20686578206c656e67746820696e73756666696369656e746044820152fd5b604051906080820182811067ffffffffffffffff82111761047a576040526042825260603660208401376030611b6883611aa8565b536078611b7483611ab5565b536041905b60018211611b8f57611b8c915015611ae8565b90565b600f811690601082101561180f57611bc1916f181899199a1a9b1b9c1cb0b131b232b360811b901a6118008486611ac5565b90611b79565b15611bce57565b60405162461bcd60e51b815260206004820152602360248201527f41757468436f6e74726f6c3a2043616c6c6572206973206e6f7420616e20616460448201526236b4b760e91b6064820152608490fd5b15611c2657565b60405162461bcd60e51b815260206004820152600960248201526839b0b6b29030b2323960b91b6044820152606490fd5b15611c5e57565b60405162461bcd60e51b815260206004820152601860248201527f50726f78793a205f696d70206973206e6f7420616c69766500000000000000006044820152606490fd5b6000198114611ae35760010190565b919081101561180f5760051b0190565b35611b8c81610333565b15611cd357565b60405162461bcd60e51b815260206004820152601d60248201527f4c69717569646974795661756c7450726f78793a2073616d6520696d700000006044820152606490fd5b6001600160e01b0319166000908152600360205260409020546001600160a01b0390811680611d7157506000805260016020527fa6eef7e35abe7026729641147f7915573c7e97b47efa546f5f6e3230263bcb49541690565b80600052600260205260ff60406000205416611db757506000805260016020527fa6eef7e35abe7026729641147f7915573c7e97b47efa546f5f6e3230263bcb49541690565b905090565b60405162461bcd60e51b815260206004820152601460248201527331b0b73737ba103932b1b2b4bb329022ba3432b960611b6044820152606490fd5b6000611e0e81356001600160e01b031916611d18565b6001600160a01b038116151580611e87575b15611e4257818091368280378136915af43d82803e15611e3e573d90f35b3d90fd5b60405162461bcd60e51b815260206004820152601d60248201527f50726f78793a20696d706c204f522070726f78792069732066616c73650000006044820152606490fd5b5060ff82541615611e20565b803b15611013576000805260016020527fa6eef7e35abe7026729641147f7915573c7e97b47efa546f5f6e3230263bcb4980546001600160a01b0319166001600160a01b03831617905560018060a01b03168060005260026020526040600020600160ff198254161790557f72558d9bfba4210f9ef095c782589484151f6d90f7a81bb3cb9b33efc695d324602060405160018152a2565b60207f72558d9bfba4210f9ef095c782589484151f6d90f7a81bb3cb9b33efc695d3249160018060a01b031692836000526002825260406000209015159060ff1981541660ff8316179055604051908152a256fef0887ba65ee2024ea881d91b74c2450ef19e1557f03bed3ea9f16b037cbe2dc9523a704056dcd17bcf83bed8b68c59416dac1119be77755efe3bde0a64e46e0cf6391f5c32d9c69d2a47ea670b442974b53935d1edc7fd64eb21e047a839171b05b8ccbb9d4d8fb16ea74ce3c29a41f1b461fbdaff4714a0d9a8eb05499746bca164736f6c6343000813000aa164736f6c6343000813000a",
  "linkReferences": {},
  "deployedLinkReferences": {}
}