{
  "_format": "hh-sol-artifact-1",
  "contractName": "MockL2Messenger",
  "sourceName": "contracts/test/MockL2Messenger.sol",
  "abi": [
    {
      "inputs": [],
      "stateMutability": "nonpayable",
      "type": "constructor"
    },
    {
      "anonymous": false,
      "inputs": [
        {
          "indexed": true,
          "internalType": "address",
          "name": "target",
          "type": "address"
        },
        {
          "indexed": false,
          "internalType": "address",
          "name": "sender",
          "type": "address"
        },
        {
          "indexed": false,
          "internalType": "bytes",
          "name": "message",
          "type": "bytes"
        },
        {
          "indexed": false,
          "internalType": "uint256",
          "name": "messageNonce",
          "type": "uint256"
        }
      ],
      "name": "FailedRelayedMessage",
      "type": "event"
    },
    {
      "anonymous": false,
      "inputs": [
        {
          "indexed": true,
          "internalType": "address",
          "name": "target",
          "type": "address"
        },
        {
          "indexed": false,
          "internalType": "address",
          "name": "sender",
          "type": "address"
        },
        {
          "indexed": false,
          "internalType": "bytes",
          "name": "message",
          "type": "bytes"
        },
        {
          "indexed": false,
          "internalType": "uint256",
          "name": "messageNonce",
          "type": "uint256"
        }
      ],
      "name": "RelayedMessage",
      "type": "event"
    },
    {
      "inputs": [],
      "name": "l1CrossDomainMessenger",
      "outputs": [
        {
          "internalType": "address",
          "name": "",
          "type": "address"
        }
      ],
      "stateMutability": "view",
      "type": "function"
    },
    {
      "inputs": [],
      "name": "messageNonce",
      "outputs": [
        {
          "internalType": "uint256",
          "name": "",
          "type": "uint256"
        }
      ],
      "stateMutability": "view",
      "type": "function"
    },
    {
      "inputs": [
        {
          "internalType": "address",
          "name": "_target",
          "type": "address"
        },
        {
          "internalType": "address",
          "name": "_sender",
          "type": "address"
        },
        {
          "internalType": "bytes",
          "name": "_message",
          "type": "bytes"
        },
        {
          "internalType": "uint256",
          "name": "_messageNonce",
          "type": "uint256"
        }
      ],
      "name": "relayMessage",
      "outputs": [],
      "stateMutability": "nonpayable",
      "type": "function"
    },
    {
      "inputs": [],
      "name": "xDomainMessageSender",
      "outputs": [
        {
          "internalType": "address",
          "name": "",
          "type": "address"
        }
      ],
      "stateMutability": "view",
      "type": "function"
    }
  ],
  "bytecode": "0x608060405234801561001057600080fd5b506105e6806100206000396000f3fe608060405234801561001057600080fd5b506004361061004c5760003560e01c80636e296e4514610051578063a711986914610076578063cbd4ece914610089578063ecc704281461009e575b600080fd5b6100596100b5565b6040516001600160a01b0390911681526020015b60405180910390f35b600254610059906001600160a01b031681565b61009c6100973660046103d4565b610124565b005b6100a760005481565b60405190815260200161006d565b6001546000906001600160a01b03166101145760405162461bcd60e51b815260206004820152601f60248201527f78446f6d61696e4d65737361676553656e646572206973206e6f742073657400604482015260640160405180910390fd5b506001546001600160a01b031690565b6101466040518060600160405280602781526020016105b360279139856102b1565b6001805473ffffffffffffffffffffffffffffffffffffffff19166001600160a01b03858116919091179091556040516000918616906101879085906104d2565b6000604051808303816000865af19150503d80600081146101c4576040519150601f19603f3d011682016040523d82523d6000602084013e6101c9565b606091505b505090506101d6816102fa565b6001805473ffffffffffffffffffffffffffffffffffffffff19169055801561024357846001600160a01b03167ff77d5e215680ad3bd959cfe50b061882f87372d624f0b8a3902f9e28e26a0f448585856040516102369392919061051a565b60405180910390a2610289565b846001600160a01b03167fbb1b04e7ba678c8e5e1ec56b66250631575c321f7c2a13e4e5b3abb7f375af1b8585856040516102809392919061051a565b60405180910390a25b6102aa6040518060600160405280602181526020016105926021913961033e565b5050505050565b6102f682826040516024016102c792919061054c565b60408051601f198184030181529190526020810180516001600160e01b031663319af33360e01b17905261037d565b5050565b604051811515602482015261033b9060440160408051601f198184030181529190526020810180516001600160e01b03166332458eed60e01b17905261037d565b50565b61033b816040516024016103529190610577565b60408051601f198184030181529190526020810180516001600160e01b031663104c13eb60e21b1790525b61033b8160006a636f6e736f6c652e6c6f679050600080835160208501845afa505050565b80356001600160a01b03811681146103b957600080fd5b919050565b634e487b7160e01b600052604160045260246000fd5b600080600080608085870312156103ea57600080fd5b6103f3856103a2565b9350610401602086016103a2565b9250604085013567ffffffffffffffff8082111561041e57600080fd5b818701915087601f83011261043257600080fd5b813581811115610444576104446103be565b604051601f8201601f19908116603f0116810190838211818310171561046c5761046c6103be565b816040528281528a602084870101111561048557600080fd5b826020860160208301376000928101602001929092525095989497509495606001359450505050565b60005b838110156104c95781810151838201526020016104b1565b50506000910152565b600082516104e48184602087016104ae565b9190910192915050565b600081518084526105068160208601602086016104ae565b601f01601f19169290920160200192915050565b6001600160a01b038416815260606020820152600061053c60608301856104ee565b9050826040830152949350505050565b60408152600061055f60408301856104ee565b90506001600160a01b03831660208301529392505050565b60208152600061058a60208301846104ee565b939250505056fe4d6f636b4c324d657373656e6765722072656c61794d65737361676520656e64204d6f636b4c324d657373656e6765722072656c61794d657373616765205f746172676574202573a164736f6c6343000813000a",
  "linkReferences": {},
  "deployedLinkReferences": {}
}