{
  "_format": "hh-sol-artifact-1",
  "contractName": "Layer2CandidateFactoryStorage",
  "sourceName": "contracts/dao/factory/Layer2CandidateFactoryStorage.sol",
  "abi": [
    {
      "inputs": [],
      "name": "daoCommittee",
      "outputs": [
        {
          "internalType": "address",
          "name": "",
          "type": "address"
        }
      ],
      "stateMutability": "view",
      "type": "function"
    },
    {
      "inputs": [],
      "name": "depositManager",
      "outputs": [
        {
          "internalType": "address",
          "name": "",
          "type": "address"
        }
      ],
      "stateMutability": "view",
      "type": "function"
    },
    {
      "inputs": [],
      "name": "layer2CandidateImp",
      "outputs": [
        {
          "internalType": "address",
          "name": "",
          "type": "address"
        }
      ],
      "stateMutability": "view",
      "type": "function"
    },
    {
      "inputs": [],
      "name": "onDemandL2Registry",
      "outputs": [
        {
          "internalType": "address",
          "name": "",
          "type": "address"
        }
      ],
      "stateMutability": "view",
      "type": "function"
    },
    {
      "inputs": [],
      "name": "ton",
      "outputs": [
        {
          "internalType": "address",
          "name": "",
          "type": "address"
        }
      ],
      "stateMutability": "view",
      "type": "function"
    },
    {
      "inputs": [],
      "name": "wton",
      "outputs": [
        {
          "internalType": "address",
          "name": "",
          "type": "address"
        }
      ],
      "stateMutability": "view",
      "type": "function"
    }
  ],
  "bytecode": "0x608060405234801561001057600080fd5b5060f48061001f6000396000f3fe6080604052348015600f57600080fd5b5060043610605a5760003560e01c80636c7ac9d814605f5780638c25c7b814608d5780638c97eb6e14609f5780638d62d9491460b1578063cc48b9471460c3578063eeac94311460d5575b600080fd5b6000546071906001600160a01b031681565b6040516001600160a01b03909116815260200160405180910390f35b6005546071906001600160a01b031681565b6002546071906001600160a01b031681565b6004546071906001600160a01b031681565b6003546071906001600160a01b031681565b6001546071906001600160a01b03168156fea164736f6c6343000813000a",
  "linkReferences": {},
  "deployedLinkReferences": {}
}