{
  "_format": "hh-sol-artifact-1",
  "contractName": "AuthRoleSeigManager",
  "sourceName": "contracts/common/AuthRoleSeigManager.sol",
  "abi": [
    {
      "inputs": [],
      "name": "CHALLENGER_ROLE",
      "outputs": [
        {
          "internalType": "bytes32",
          "name": "",
          "type": "bytes32"
        }
      ],
      "stateMutability": "view",
      "type": "function"
    },
    {
      "inputs": [],
      "name": "MINTER_ROLE",
      "outputs": [
        {
          "internalType": "bytes32",
          "name": "",
          "type": "bytes32"
        }
      ],
      "stateMutability": "view",
      "type": "function"
    },
    {
      "inputs": [],
      "name": "OPERATOR_ROLE",
      "outputs": [
        {
          "internalType": "bytes32",
          "name": "",
          "type": "bytes32"
        }
      ],
      "stateMutability": "view",
      "type": "function"
    },
    {
      "inputs": [],
      "name": "PAUSE_ROLE",
      "outputs": [
        {
          "internalType": "bytes32",
          "name": "",
          "type": "bytes32"
        }
      ],
      "stateMutability": "view",
      "type": "function"
    }
  ],
  "bytecode": "0x608060405234801561001057600080fd5b50610102806100206000396000f3fe6080604052348015600f57600080fd5b506004361060465760003560e01c8063389ed26714604b578063530adbb4146083578063d53913931460a9578063f5b541a61460cf575b600080fd5b60717ffcb9fcbfa83b897fb2d5cf4b58962164105c1e71489a37ef3ae0db3fdce576f681565b60405190815260200160405180910390f35b60717fbf02bad7114723a857a3af46cea17b778a3a951c96f183784d9a2448cc479ab681565b60717ff0887ba65ee2024ea881d91b74c2450ef19e1557f03bed3ea9f16b037cbe2dc981565b60717f523a704056dcd17bcf83bed8b68c59416dac1119be77755efe3bde0a64e46e0c8156fea164736f6c6343000813000a",
  "linkReferences": {},
  "deployedLinkReferences": {}
}