{
  "_format": "hh-sol-artifact-1",
  "contractName": "AuthRoleSeigManager",
  "sourceName": "contracts/common/AuthRoleSeigManager.sol",
  "abi": [
    {
      "inputs": [],
      "name": "CHALLENGER_ROLE",
      "outputs": [
        {
          "internalType": "bytes32",
          "name": "",
          "type": "bytes32"
        }
      ],
      "stateMutability": "view",
      "type": "function"
    },
    {
      "inputs": [],
      "name": "MINTER_ROLE",
      "outputs": [
        {
          "internalType": "bytes32",
          "name": "",
          "type": "bytes32"
        }
      ],
      "stateMutability": "view",
      "type": "function"
    },
    {
      "inputs": [],
      "name": "OPERATOR_ROLE",
      "outputs": [
        {
          "internalType": "bytes32",
          "name": "",
          "type": "bytes32"
        }
      ],
      "stateMutability": "view",
      "type": "function"
    },
    {
      "inputs": [],
      "name": "PAUSE_ROLE",
      "outputs": [
        {
          "internalType": "bytes32",
          "name": "",
          "type": "bytes32"
        }
      ],
      "stateMutability": "view",
      "type": "function"
    }
  ],
  "bytecode": "0x608080604052346100165761014b908161001c8239f35b600080fdfe608080604052600436101561001357600080fd5b600090813560e01c908163389ed2671461010057508063530adbb4146100c5578063d53913931461008a5763f5b541a61461004d57600080fd5b3461008757806003193601126100875760206040517f523a704056dcd17bcf83bed8b68c59416dac1119be77755efe3bde0a64e46e0c8152f35b80fd5b503461008757806003193601126100875760206040517ff0887ba65ee2024ea881d91b74c2450ef19e1557f03bed3ea9f16b037cbe2dc98152f35b503461008757806003193601126100875760206040517fbf02bad7114723a857a3af46cea17b778a3a951c96f183784d9a2448cc479ab68152f35b90503461013a578160031936011261013a57807ffcb9fcbfa83b897fb2d5cf4b58962164105c1e71489a37ef3ae0db3fdce576f660209252f35b5080fdfea164736f6c6343000812000a",
  "linkReferences": {},
  "deployedLinkReferences": {}
}