{
  "_format": "hh-sol-artifact-1",
  "contractName": "ProxySeigManager",
  "sourceName": "contracts/proxy/ProxySeigManager.sol",
  "abi": [
    {
      "inputs": [],
      "stateMutability": "nonpayable",
      "type": "constructor"
    },
    {
      "anonymous": false,
      "inputs": [
        {
          "indexed": true,
          "internalType": "bytes32",
          "name": "role",
          "type": "bytes32"
        },
        {
          "indexed": true,
          "internalType": "bytes32",
          "name": "previousAdminRole",
          "type": "bytes32"
        },
        {
          "indexed": true,
          "internalType": "bytes32",
          "name": "newAdminRole",
          "type": "bytes32"
        }
      ],
      "name": "RoleAdminChanged",
      "type": "event"
    },
    {
      "anonymous": false,
      "inputs": [
        {
          "indexed": true,
          "internalType": "bytes32",
          "name": "role",
          "type": "bytes32"
        },
        {
          "indexed": true,
          "internalType": "address",
          "name": "account",
          "type": "address"
        },
        {
          "indexed": true,
          "internalType": "address",
          "name": "sender",
          "type": "address"
        }
      ],
      "name": "RoleGranted",
      "type": "event"
    },
    {
      "anonymous": false,
      "inputs": [
        {
          "indexed": true,
          "internalType": "bytes32",
          "name": "role",
          "type": "bytes32"
        },
        {
          "indexed": true,
          "internalType": "address",
          "name": "account",
          "type": "address"
        },
        {
          "indexed": true,
          "internalType": "address",
          "name": "sender",
          "type": "address"
        }
      ],
      "name": "RoleRevoked",
      "type": "event"
    },
    {
      "anonymous": false,
      "inputs": [
        {
          "indexed": true,
          "internalType": "address",
          "name": "impl",
          "type": "address"
        },
        {
          "indexed": false,
          "internalType": "bool",
          "name": "alive",
          "type": "bool"
        }
      ],
      "name": "SetAliveImplementation",
      "type": "event"
    },
    {
      "anonymous": false,
      "inputs": [
        {
          "indexed": true,
          "internalType": "bytes4",
          "name": "selector",
          "type": "bytes4"
        },
        {
          "indexed": true,
          "internalType": "address",
          "name": "impl",
          "type": "address"
        }
      ],
      "name": "SetSelectorImplementation",
      "type": "event"
    },
    {
      "anonymous": false,
      "inputs": [
        {
          "indexed": true,
          "internalType": "address",
          "name": "implementation",
          "type": "address"
        }
      ],
      "name": "Upgraded",
      "type": "event"
    },
    {
      "stateMutability": "payable",
      "type": "fallback"
    },
    {
      "inputs": [],
      "name": "CHALLENGER_ROLE",
      "outputs": [
        {
          "internalType": "bytes32",
          "name": "",
          "type": "bytes32"
        }
      ],
      "stateMutability": "view",
      "type": "function"
    },
    {
      "inputs": [],
      "name": "DEFAULT_ADMIN_ROLE",
      "outputs": [
        {
          "internalType": "bytes32",
          "name": "",
          "type": "bytes32"
        }
      ],
      "stateMutability": "view",
      "type": "function"
    },
    {
      "inputs": [],
      "name": "MINTER_ROLE",
      "outputs": [
        {
          "internalType": "bytes32",
          "name": "",
          "type": "bytes32"
        }
      ],
      "stateMutability": "view",
      "type": "function"
    },
    {
      "inputs": [],
      "name": "OPERATOR_ROLE",
      "outputs": [
        {
          "internalType": "bytes32",
          "name": "",
          "type": "bytes32"
        }
      ],
      "stateMutability": "view",
      "type": "function"
    },
    {
      "inputs": [],
      "name": "PAUSE_ROLE",
      "outputs": [
        {
          "internalType": "bytes32",
          "name": "",
          "type": "bytes32"
        }
      ],
      "stateMutability": "view",
      "type": "function"
    },
    {
      "inputs": [
        {
          "internalType": "address",
          "name": "account",
          "type": "address"
        }
      ],
      "name": "addAdmin",
      "outputs": [],
      "stateMutability": "nonpayable",
      "type": "function"
    },
    {
      "inputs": [
        {
          "internalType": "address",
          "name": "account",
          "type": "address"
        }
      ],
      "name": "addChallenger",
      "outputs": [],
      "stateMutability": "nonpayable",
      "type": "function"
    },
    {
      "inputs": [
        {
          "internalType": "address",
          "name": "account",
          "type": "address"
        }
      ],
      "name": "addMinter",
      "outputs": [],
      "stateMutability": "nonpayable",
      "type": "function"
    },
    {
      "inputs": [
        {
          "internalType": "address",
          "name": "account",
          "type": "address"
        }
      ],
      "name": "addOperator",
      "outputs": [],
      "stateMutability": "nonpayable",
      "type": "function"
    },
    {
      "inputs": [
        {
          "internalType": "address",
          "name": "",
          "type": "address"
        }
      ],
      "name": "aliveImplementation",
      "outputs": [
        {
          "internalType": "bool",
          "name": "",
          "type": "bool"
        }
      ],
      "stateMutability": "view",
      "type": "function"
    },
    {
      "inputs": [
        {
          "internalType": "bytes32",
          "name": "role",
          "type": "bytes32"
        }
      ],
      "name": "getRoleAdmin",
      "outputs": [
        {
          "internalType": "bytes32",
          "name": "",
          "type": "bytes32"
        }
      ],
      "stateMutability": "view",
      "type": "function"
    },
    {
      "inputs": [
        {
          "internalType": "bytes4",
          "name": "_selector",
          "type": "bytes4"
        }
      ],
      "name": "getSelectorImplementation2",
      "outputs": [
        {
          "internalType": "address",
          "name": "impl",
          "type": "address"
        }
      ],
      "stateMutability": "view",
      "type": "function"
    },
    {
      "inputs": [
        {
          "internalType": "bytes32",
          "name": "role",
          "type": "bytes32"
        },
        {
          "internalType": "address",
          "name": "account",
          "type": "address"
        }
      ],
      "name": "grantRole",
      "outputs": [],
      "stateMutability": "nonpayable",
      "type": "function"
    },
    {
      "inputs": [
        {
          "internalType": "bytes32",
          "name": "role",
          "type": "bytes32"
        },
        {
          "internalType": "address",
          "name": "account",
          "type": "address"
        }
      ],
      "name": "hasRole",
      "outputs": [
        {
          "internalType": "bool",
          "name": "",
          "type": "bool"
        }
      ],
      "stateMutability": "view",
      "type": "function"
    },
    {
      "inputs": [],
      "name": "implementation",
      "outputs": [
        {
          "internalType": "address",
          "name": "",
          "type": "address"
        }
      ],
      "stateMutability": "view",
      "type": "function"
    },
    {
      "inputs": [
        {
          "internalType": "uint256",
          "name": "_index",
          "type": "uint256"
        }
      ],
      "name": "implementation2",
      "outputs": [
        {
          "internalType": "address",
          "name": "",
          "type": "address"
        }
      ],
      "stateMutability": "view",
      "type": "function"
    },
    {
      "inputs": [
        {
          "internalType": "address",
          "name": "account",
          "type": "address"
        }
      ],
      "name": "isAdmin",
      "outputs": [
        {
          "internalType": "bool",
          "name": "",
          "type": "bool"
        }
      ],
      "stateMutability": "view",
      "type": "function"
    },
    {
      "inputs": [
        {
          "internalType": "address",
          "name": "account",
          "type": "address"
        }
      ],
      "name": "isChallenger",
      "outputs": [
        {
          "internalType": "bool",
          "name": "",
          "type": "bool"
        }
      ],
      "stateMutability": "view",
      "type": "function"
    },
    {
      "inputs": [
        {
          "internalType": "address",
          "name": "account",
          "type": "address"
        }
      ],
      "name": "isMinter",
      "outputs": [
        {
          "internalType": "bool",
          "name": "",
          "type": "bool"
        }
      ],
      "stateMutability": "view",
      "type": "function"
    },
    {
      "inputs": [
        {
          "internalType": "address",
          "name": "account",
          "type": "address"
        }
      ],
      "name": "isOperator",
      "outputs": [
        {
          "internalType": "bool",
          "name": "",
          "type": "bool"
        }
      ],
      "stateMutability": "view",
      "type": "function"
    },
    {
      "inputs": [],
      "name": "isOwner",
      "outputs": [
        {
          "internalType": "bool",
          "name": "",
          "type": "bool"
        }
      ],
      "stateMutability": "view",
      "type": "function"
    },
    {
      "inputs": [],
      "name": "pauseProxy",
      "outputs": [
        {
          "internalType": "bool",
          "name": "",
          "type": "bool"
        }
      ],
      "stateMutability": "view",
      "type": "function"
    },
    {
      "inputs": [
        {
          "internalType": "uint256",
          "name": "",
          "type": "uint256"
        }
      ],
      "name": "proxyImplementation",
      "outputs": [
        {
          "internalType": "address",
          "name": "",
          "type": "address"
        }
      ],
      "stateMutability": "view",
      "type": "function"
    },
    {
      "inputs": [
        {
          "internalType": "address",
          "name": "account",
          "type": "address"
        }
      ],
      "name": "removeAdmin",
      "outputs": [],
      "stateMutability": "nonpayable",
      "type": "function"
    },
    {
      "inputs": [
        {
          "internalType": "address",
          "name": "account",
          "type": "address"
        }
      ],
      "name": "removeChallenger",
      "outputs": [],
      "stateMutability": "nonpayable",
      "type": "function"
    },
    {
      "inputs": [
        {
          "internalType": "address",
          "name": "account",
          "type": "address"
        }
      ],
      "name": "removeMinter",
      "outputs": [],
      "stateMutability": "nonpayable",
      "type": "function"
    },
    {
      "inputs": [
        {
          "internalType": "address",
          "name": "account",
          "type": "address"
        }
      ],
      "name": "removeOperator",
      "outputs": [],
      "stateMutability": "nonpayable",
      "type": "function"
    },
    {
      "inputs": [],
      "name": "renounceChallenger",
      "outputs": [],
      "stateMutability": "nonpayable",
      "type": "function"
    },
    {
      "inputs": [],
      "name": "renounceMinter",
      "outputs": [],
      "stateMutability": "nonpayable",
      "type": "function"
    },
    {
      "inputs": [],
      "name": "renounceOperator",
      "outputs": [],
      "stateMutability": "nonpayable",
      "type": "function"
    },
    {
      "inputs": [],
      "name": "renounceOwnership",
      "outputs": [],
      "stateMutability": "nonpayable",
      "type": "function"
    },
    {
      "inputs": [
        {
          "internalType": "bytes32",
          "name": "role",
          "type": "bytes32"
        },
        {
          "internalType": "address",
          "name": "account",
          "type": "address"
        }
      ],
      "name": "renounceRole",
      "outputs": [],
      "stateMutability": "nonpayable",
      "type": "function"
    },
    {
      "inputs": [
        {
          "internalType": "address",
          "name": "account",
          "type": "address"
        }
      ],
      "name": "revokeChallenger",
      "outputs": [],
      "stateMutability": "nonpayable",
      "type": "function"
    },
    {
      "inputs": [
        {
          "internalType": "address",
          "name": "account",
          "type": "address"
        }
      ],
      "name": "revokeMinter",
      "outputs": [],
      "stateMutability": "nonpayable",
      "type": "function"
    },
    {
      "inputs": [
        {
          "internalType": "address",
          "name": "account",
          "type": "address"
        }
      ],
      "name": "revokeOperator",
      "outputs": [],
      "stateMutability": "nonpayable",
      "type": "function"
    },
    {
      "inputs": [
        {
          "internalType": "bytes32",
          "name": "role",
          "type": "bytes32"
        },
        {
          "internalType": "address",
          "name": "account",
          "type": "address"
        }
      ],
      "name": "revokeRole",
      "outputs": [],
      "stateMutability": "nonpayable",
      "type": "function"
    },
    {
      "inputs": [
        {
          "internalType": "bytes4",
          "name": "",
          "type": "bytes4"
        }
      ],
      "name": "selectorImplementation",
      "outputs": [
        {
          "internalType": "address",
          "name": "",
          "type": "address"
        }
      ],
      "stateMutability": "view",
      "type": "function"
    },
    {
      "inputs": [
        {
          "internalType": "address",
          "name": "newImplementation",
          "type": "address"
        },
        {
          "internalType": "bool",
          "name": "_alive",
          "type": "bool"
        }
      ],
      "name": "setAliveImplementation2",
      "outputs": [],
      "stateMutability": "nonpayable",
      "type": "function"
    },
    {
      "inputs": [
        {
          "internalType": "address",
          "name": "newImplementation",
          "type": "address"
        },
        {
          "internalType": "uint256",
          "name": "_index",
          "type": "uint256"
        },
        {
          "internalType": "bool",
          "name": "_alive",
          "type": "bool"
        }
      ],
      "name": "setImplementation2",
      "outputs": [],
      "stateMutability": "nonpayable",
      "type": "function"
    },
    {
      "inputs": [
        {
          "internalType": "bool",
          "name": "_pause",
          "type": "bool"
        }
      ],
      "name": "setProxyPause",
      "outputs": [],
      "stateMutability": "nonpayable",
      "type": "function"
    },
    {
      "inputs": [
        {
          "internalType": "bytes4[]",
          "name": "_selectors",
          "type": "bytes4[]"
        },
        {
          "internalType": "address",
          "name": "_imp",
          "type": "address"
        }
      ],
      "name": "setSelectorImplementations2",
      "outputs": [],
      "stateMutability": "nonpayable",
      "type": "function"
    },
    {
      "inputs": [
        {
          "internalType": "bytes4",
          "name": "interfaceId",
          "type": "bytes4"
        }
      ],
      "name": "supportsInterface",
      "outputs": [
        {
          "internalType": "bool",
          "name": "",
          "type": "bool"
        }
      ],
      "stateMutability": "view",
      "type": "function"
    },
    {
      "inputs": [
        {
          "internalType": "address",
          "name": "newAdmin",
          "type": "address"
        }
      ],
      "name": "transferAdmin",
      "outputs": [],
      "stateMutability": "nonpayable",
      "type": "function"
    },
    {
      "inputs": [
        {
          "internalType": "address",
          "name": "newAdmin",
          "type": "address"
        }
      ],
      "name": "transferOwnership",
      "outputs": [],
      "stateMutability": "nonpayable",
      "type": "function"
    },
    {
      "inputs": [
        {
          "internalType": "address",
          "name": "impl",
          "type": "address"
        }
      ],
      "name": "upgradeTo",
      "outputs": [],
      "stateMutability": "nonpayable",
      "type": "function"
    },
    {
      "stateMutability": "payable",
      "type": "receive"
    }
  ],
  "bytecode": "0x6080604081815234610146576000808052600560205281812033825260205260ff8282205416156100fb575b7ff0887ba65ee2024ea881d91b74c2450ef19e1557f03bed3ea9f16b037cbe2dc99182825260056020526001818320018281549155827fbd79b86ffe0ab8e8776151514217cd7cacd52c909f66475c3af44e129f0b00ff9185838380a4827f523a704056dcd17bcf83bed8b68c59416dac1119be77755efe3bde0a64e46e0c808252600184832001908282549255838380a460017fbf02bad7114723a857a3af46cea17b778a3a951c96f183784d9a2448cc479ab69283855284200192848454945580a4611fed908161014c8239f35b8080526005602052818120338252602052818120600160ff198254161790553333827f2f8788117e7eff1d82e926ec794901d17c78024a50270940304540a733656f0d8180a461002b565b600080fdfe60806040526004361015610018575b36611d9957611d5d565b60003560e01c806301ffc9a7146102e35780630ceb6780146102de5780631785f53c146102d9578063248a9ca3146102d457806324d7806c146102cf57806325e90db4146102ca5780632ab6f8db146102c55780632f2ff15d146102c05780633092afd5146102bb57806336568abe146102b65780633659cfe6146102b1578063389ed267146102ac5780633c491173146102a75780634a5df50f146102a257806350d2a2761461029d578063530adbb414610298578063550d01a3146102935780635c60da1b1461028e5780635cc797d81461028957806363a8fd89146102845780636c578c1d1461027f5780636d70f7ae1461027a5780637048027514610275578063715018a61461027057806375829def1461026b5780637cb00d25146102665780637cd5f663146102615780638b8f4a651461022a5780638d4fdb401461025c5780638f32d59b1461025757806391d1485414610252578063983b2d561461024d57806398650275146102485780639870d7fe14610243578063a217fddf1461023e578063a415d8dc14610239578063aa271e1a14610234578063ac8a584a1461022f578063b911135f1461022a578063cfbd488514610225578063d539139314610220578063d547741f1461021b578063f2fde38b14610216578063f5b541a6146102115763fad8b32a0361000e576113f4565b6113cb565b6113a6565b611367565b61133e565b6112d1565b611006565b6112a4565b611252565b611200565b6111e4565b611177565b61115d565b6110f0565b6110aa565b611073565b61103a565b610f2c565b610ed4565b610e0d565b610de7565b610d0d565b610cbb565b610c8e565b610c6b565b610c14565b610be0565b610ba1565b610b78565b610b32565b61094a565b610861565b610826565b610746565b6106b4565b610687565b6105d0565b6105b6565b61059c565b61054c565b61051d565b6104e9565b6103a4565b6102ff565b6001600160e01b03198116036102fa57565b600080fd5b346102fa5760203660031901126102fa5760043561031c816102e8565b6001600160e01b031916637965db0b60e01b81148015610344575b6020906040519015158152f35b506301ffc9a760e01b8114801561035f575b60209150610337565b506000526004602052602060ff60406000205416610356565b600435906001600160a01b03821682036102fa57565b602435906001600160a01b03821682036102fa57565b346102fa576020806003193601126102fa576103be610378565b6103c733611461565b80156104ba575b1561047d57600080516020611f81833981519152600092818452600581526103fc600160408620015461153d565b8184526005815260408085206001600160a01b0385166000908152602091909152205460ff161561042b578380f35b8184526005905260408084206001600160a01b038416600090815260209190915220805460ff1916600117905533916001600160a01b031690600080516020611f218339815191528480a43880808380f35b60405162461bcd60e51b81526004810183905260156024820152743737ba1037b7363ca6b4b73a32b927b920b236b4b760591b6044820152606490fd5b50600080516020611f41833981519152600090815260058352604080822033835260205290205460ff166103ce565b346102fa5760203660031901126102fa5761051b610505610378565b61051661051133611461565b611b1f565b611721565b005b346102fa5760203660031901126102fa5760043560005260056020526020600160406000200154604051908152f35b346102fa5760203660031901126102fa57602060ff61059061056c610378565b600080526005845260406000209060018060a01b0316600052602052604060002090565b54166040519015158152f35b346102fa5760003660031901126102fa5761051b336117ac565b346102fa5760003660031901126102fa5761051b33611862565b346102fa5760403660031901126102fa576004356105ec61038e565b6000918083526005602052610607600160408520015461153d565b8083526005602090815260408085206001600160a01b0385166000908152925290205460ff1615610636578280f35b8083526005602090815260408085206001600160a01b038516600090815292529020805460ff1916600117905533916001600160a01b031690600080516020611f218339815191528480a438808280f35b346102fa5760203660031901126102fa5761051b6106a3610378565b6106af61051133611461565b6118c4565b346102fa5760403660031901126102fa576106cd61038e565b336001600160a01b038216036106e95761051b90600435611926565b60405162461bcd60e51b815260206004820152602f60248201527f416363657373436f6e74726f6c3a2063616e206f6e6c792072656e6f756e636560448201526e103937b632b9903337b91039b2b63360891b6064820152608490fd5b346102fa5760203660031901126102fa5761075f610378565b336000908152600080516020611fc18339815191526020526040812090919061078d9060ff905b5416611b1f565b6001600160a01b0381169081156107f157828052600160205260408320546107ca91906107c5906001600160a01b0316841415611b77565b611e34565b7fbc7cd75a20ee27fd9adebab32041f755214dbc6bffa90cc0225b39da2e5c2d3b8280a280f35b60405162461bcd60e51b815260206004820152600d60248201526c696e707574206973207a65726f60981b6044820152606490fd5b346102fa5760003660031901126102fa5760206040517ffcb9fcbfa83b897fb2d5cf4b58962164105c1e71489a37ef3ae0db3fdce576f68152f35b346102fa5760203660031901126102fa5761087a610378565b61088661051133611461565b600080516020611f81833981519152600081815260056020527fedec71783a10810e436f3392a073a61717130e573433fcc6591c3061a012f76854909291906108ce9061153d565b8083526005602090815260408085206001600160a01b0385166000908152925290205460ff166108fc578280f35b8083526005602090815260408085206001600160a01b038516600090815292529020805460ff1916905533916001600160a01b031690600080516020611fa18339815191528480a438808280f35b346102fa5760403660031901126102fa5767ffffffffffffffff6004358181116102fa57366023820112156102fa5780600401359182116102fa576024810190602436918460051b0101116102fa576109a161038e565b336000908152600080516020611fc1833981519152602052604081209093906109cc9060ff90610786565b8015610aee57610a026109fd6109f684959460018060a01b03166000526002602052604060002090565b5460ff1690565b611baf565b6001600160a01b03928084169290855b838110610a1d578680f35b80610a6d8688610a65610a58610a3f610a3a610ae9988c8c611c0a565b611c1a565b63ffffffff60e01b166000526003602052604060002090565b546001600160a01b031690565b161415611c24565b610aa183610a82610a3f610a3a858a8a611c0a565b80546001600160a01b0319166001600160a01b03909216919091179055565b85610ac0610ab3610a3a848989611c0a565b6001600160e01b03191690565b7f14ebc1c32aa68f4d766e89f3e546cee249f7df25183fc10ab1568d91c2ce9b7b8a80a3611bfb565b610a12565b606460405162461bcd60e51b815260206004820152602060248201527f50726f78793a205f73656c6563746f727327732073697a65206973207a65726f6044820152fd5b346102fa5760203660031901126102fa57600435610b4f816102e8565b63ffffffff60e01b166000526003602052602060018060a01b0360406000205416604051908152f35b346102fa5760003660031901126102fa576020604051600080516020611f818339815191528152f35b346102fa5760203660031901126102fa576001600160a01b03610bc2610378565b166000526002602052602060ff604060002054166040519015158152f35b346102fa57600080600319360112610c115780806020925260018252604060018060a01b0391205416604051908152f35b80fd5b346102fa5760403660031901126102fa57610c2d610378565b60243580151581036102fa57336000908152600080516020611fc18339815191526020526040902061051b9290610c669060ff90610786565b611ecc565b346102fa5760003660031901126102fa57602060ff600054166040519015158152f35b346102fa5760203660031901126102fa5761051b610caa610378565b610cb661051133611461565b6117ac565b346102fa5760203660031901126102fa57602060ff610590610cdb610378565b600080516020611f618339815191526000526005845260406000209060018060a01b0316600052602052604060002090565b346102fa5760203660031901126102fa57610d26610378565b610d3261051133611461565b600080805260056020527f05b8ccbb9d4d8fb16ea74ce3c29a41f1b461fbdaff4714a0d9a8eb05499746bd54909190610d6a9061153d565b8180526005602090815260408084206001600160a01b0384166000908152925290205460ff1615610d99575080f35b8180526005602090815260408084206001600160a01b038416600090815292529020805460ff1916600117905533906001600160a01b031682600080516020611f218339815191528180a480f35b346102fa5760003660031901126102fa57610e0461051133611461565b61051b33611721565b346102fa5760203660031901126102fa57610e26610378565b610e3261051133611461565b6001600160a01b0381168015610e8f573314610e5157610e049061148c565b60405162461bcd60e51b815260206004820152601660248201527520b1b1b2b9b9b4b136329d1039b0b6b29030b236b4b760511b6044820152606490fd5b60405162461bcd60e51b815260206004820152601860248201527f41636365737369626c653a207a65726f206164647265737300000000000000006044820152606490fd5b346102fa5760203660031901126102fa576004358015158091036102fa57336000908152600080516020611fc183398151915260205260408120909190610f1d9060ff90610786565b60ff8019835416911617815580f35b346102fa5760603660031901126102fa57610f45610378565b6044359081151582036102fa57336000908152600080516020611fc183398151915260205260408120909290610f7d9060ff90610786565b813b15610fc157610f929181610f9557611ecc565b80f35b602435845260016020526040842080546001600160a01b0319166001600160a01b038316179055611ecc565b60405162461bcd60e51b815260206004820152601b60248201527f50726f78793a206e6f7420636f6e7472616374206164647265737300000000006044820152606490fd5b346102fa5760203660031901126102fa576004356000526001602052602060018060a01b0360406000205416604051908152f35b346102fa5760203660031901126102fa57602061106160043561105c816102e8565b611c70565b6040516001600160a01b039091168152f35b346102fa57600080600319360112610c1157808052600560209081526040918290203360009081529082529190912060ff90610590565b346102fa5760403660031901126102fa57602060ff6105906110ca61038e565b6004356000526005845260406000209060018060a01b0316600052602052604060002090565b346102fa5760203660031901126102fa57611109610378565b61111561051133611461565b600080516020611f41833981519152600081815260056020527fca0a2f641ec05ca23127d994cf03ffc453db616acae0b86cb56bb95304d0685554909291906106079061153d565b346102fa5760003660031901126102fa5761051b336118c4565b346102fa5760203660031901126102fa57611190610378565b61119c61051133611461565b600080516020611f61833981519152600081815260056020527f02634a7c777b8129955fe1824eee49ef19dfa96f2f4cb63212492c3d84eb58e754909291906106079061153d565b346102fa5760003660031901126102fa57602060405160008152f35b346102fa5760203660031901126102fa57602060ff610590611220610378565b600080516020611f818339815191526000526005845260406000209060018060a01b0316600052602052604060002090565b346102fa5760203660031901126102fa57602060ff610590611272610378565b600080516020611f418339815191526000526005845260406000209060018060a01b0316600052602052604060002090565b346102fa5760203660031901126102fa5761051b6112c0610378565b6112cc61051133611461565b611862565b346102fa5760203660031901126102fa576112ea610378565b6112f661051133611461565b600080516020611f41833981519152600081815260056020527fca0a2f641ec05ca23127d994cf03ffc453db616acae0b86cb56bb95304d0685554909291906108ce9061153d565b346102fa5760003660031901126102fa576020604051600080516020611f418339815191528152f35b346102fa5760403660031901126102fa5761051b60043561138661038e565b908060005260056020526113a160016040600020015461153d565b611926565b346102fa5760203660031901126102fa576113bf610378565b610e2661051133611461565b346102fa5760003660031901126102fa576020604051600080516020611f618339815191528152f35b346102fa5760203660031901126102fa5761140d610378565b61141961051133611461565b600080516020611f61833981519152600081815260056020527f02634a7c777b8129955fe1824eee49ef19dfa96f2f4cb63212492c3d84eb58e754909291906108ce9061153d565b6001600160a01b03166000908152600080516020611fc1833981519152602052604090205460ff1690565b600080805260056020527f05b8ccbb9d4d8fb16ea74ce3c29a41f1b461fbdaff4714a0d9a8eb05499746bd546114c19061153d565b8080526005602090815260408083206001600160a01b0385166000908152925290205460ff16156114f0575050565b8080526005602090815260408083206001600160a01b038516600090815292529020805460ff1916600117905533916001600160a01b031690600080516020611f218339815191528180a4565b600081815260056020908152604080832033845290915290205460ff16156115625750565b339061156c6119bd565b91603061157884611a00565b53607861158484611a0d565b5360295b60018111611637576116336115f061161b8661160d6115b0886115ab8915611a40565b611a8b565b6115ea6040519586946115ea602087016017907f416363657373436f6e74726f6c3a206163636f756e742000000000000000000081520190565b906116a1565b7001034b99036b4b9b9b4b733903937b6329607d1b815260110190565b03601f1981018352826116ce565b60405162461bcd60e51b8152918291600483016116f5565b0390fd5b90600f811690601082101561167957611674916f181899199a1a9b1b9c1cb0b131b232b360811b901a61166a8487611a1d565b5360041c91611a2e565b611588565b6119ea565b60005b8381106116915750506000910152565b8181015183820152602001611681565b906116b46020928281519485920161167e565b0190565b634e487b7160e01b600052604160045260246000fd5b90601f8019910116810190811067ffffffffffffffff8211176116f057604052565b6116b8565b60409160208252611715815180928160208601526020868601910161167e565b601f01601f1916010190565b6001600160a01b0381163381036106e9576001600160a01b0382166000908152600080516020611fc1833981519152602052604081205490929060ff1661176757505050565b61178e908380526005602052604084209060018060a01b0316600052602052604060002090565b805460ff191690553391600080516020611fa18339815191528180a4565b6001600160a01b0381163381036106e9576001600160a01b03821660009081527fedec71783a10810e436f3392a073a61717130e573433fcc6591c3061a012f767602052604081209092600080516020611f818339815191529160ff905b5416611817575b50505050565b61183e908285526005602052604085209060018060a01b0316600052602052604060002090565b60ff198154169055600080516020611fa1833981519152339380a438808080611811565b6001600160a01b0381163381036106e9576001600160a01b03821660009081527f02634a7c777b8129955fe1824eee49ef19dfa96f2f4cb63212492c3d84eb58e6602052604081209092600080516020611f618339815191529160ff9061180a565b6001600160a01b0381163381036106e9576001600160a01b03821660009081527fca0a2f641ec05ca23127d994cf03ffc453db616acae0b86cb56bb95304d06854602052604081209092600080516020611f418339815191529160ff9061180a565b600090808252600560205260ff61195284604085209060018060a01b0316600052602052604060002090565b541661195d57505050565b8082526005602090815260408084206001600160a01b038616600090815292529020805460ff1916905533926001600160a01b031691600080516020611fa18339815191529080a4565b634e487b7160e01b600052601160045260246000fd5b604051906060820182811067ffffffffffffffff8211176116f057604052602a8252604082602036910137565b634e487b7160e01b600052603260045260246000fd5b8051156116795760200190565b8051600110156116795760210190565b908151811015611679570160200190565b8015611a3b576000190190565b6119a7565b15611a4757565b606460405162461bcd60e51b815260206004820152602060248201527f537472696e67733a20686578206c656e67746820696e73756666696369656e746044820152fd5b604051906080820182811067ffffffffffffffff8211176116f0576040526042825260603660208401376030611ac083611a00565b536078611acc83611a0d565b536041905b60018211611ae757611ae4915015611a40565b90565b600f811690601082101561167957611b19916f181899199a1a9b1b9c1cb0b131b232b360811b901a61166a8486611a1d565b90611ad1565b15611b2657565b60405162461bcd60e51b815260206004820152602360248201527f41757468436f6e74726f6c3a2043616c6c6572206973206e6f7420616e20616460448201526236b4b760e91b6064820152608490fd5b15611b7e57565b60405162461bcd60e51b815260206004820152600960248201526839b0b6b29030b2323960b91b6044820152606490fd5b15611bb657565b60405162461bcd60e51b815260206004820152601860248201527f50726f78793a205f696d70206973206e6f7420616c69766500000000000000006044820152606490fd5b6000198114611a3b5760010190565b91908110156116795760051b0190565b35611ae4816102e8565b15611c2b57565b60405162461bcd60e51b815260206004820152601d60248201527f4c69717569646974795661756c7450726f78793a2073616d6520696d700000006044820152606490fd5b6001600160e01b031981166000908152600360205260409020546001600160a01b0391908216611cca57506000805260016020527fa6eef7e35abe7026729641147f7915573c7e97b47efa546f5f6e3230263bcb49541690565b60ff611d0983611ced8463ffffffff60e01b166000526003602052604060002090565b54166001600160a01b0316600090815260026020526040902090565b541615611d2d576001600160e01b0319166000908152600360205260409020541690565b506000805260016020527fa6eef7e35abe7026729641147f7915573c7e97b47efa546f5f6e3230263bcb49541690565b60405162461bcd60e51b815260206004820152601460248201527331b0b73737ba103932b1b2b4bb329022ba3432b960611b6044820152606490fd5b6000611daf81356001600160e01b031916611c70565b6001600160a01b038116151580611e28575b15611de357818091368280378136915af43d82803e15611ddf573d90f35b3d90fd5b60405162461bcd60e51b815260206004820152601d60248201527f50726f78793a20696d706c204f522070726f78792069732066616c73650000006044820152606490fd5b5060ff82541615611dc1565b803b15610fc1576000805260016020527fa6eef7e35abe7026729641147f7915573c7e97b47efa546f5f6e3230263bcb4980546001600160a01b0319166001600160a01b03831617905560018060a01b03168060005260026020526040600020600160ff198254161790557f72558d9bfba4210f9ef095c782589484151f6d90f7a81bb3cb9b33efc695d324602060405160018152a2565b60207f72558d9bfba4210f9ef095c782589484151f6d90f7a81bb3cb9b33efc695d3249160018060a01b031692836000526002825260406000209015159060ff1981541660ff8316179055604051908152a256fe2f8788117e7eff1d82e926ec794901d17c78024a50270940304540a733656f0df0887ba65ee2024ea881d91b74c2450ef19e1557f03bed3ea9f16b037cbe2dc9523a704056dcd17bcf83bed8b68c59416dac1119be77755efe3bde0a64e46e0cbf02bad7114723a857a3af46cea17b778a3a951c96f183784d9a2448cc479ab6f6391f5c32d9c69d2a47ea670b442974b53935d1edc7fd64eb21e047a839171b05b8ccbb9d4d8fb16ea74ce3c29a41f1b461fbdaff4714a0d9a8eb05499746bca164736f6c6343000812000a",
  "linkReferences": {},
  "deployedLinkReferences": {}
}