{
  "_format": "hh-sol-artifact-1",
  "contractName": "ProxySeigManager",
  "sourceName": "contracts/proxy/ProxySeigManager.sol",
  "abi": [
    {
      "inputs": [],
      "stateMutability": "nonpayable",
      "type": "constructor"
    },
    {
      "anonymous": false,
      "inputs": [
        {
          "indexed": true,
          "internalType": "bytes32",
          "name": "role",
          "type": "bytes32"
        },
        {
          "indexed": true,
          "internalType": "bytes32",
          "name": "previousAdminRole",
          "type": "bytes32"
        },
        {
          "indexed": true,
          "internalType": "bytes32",
          "name": "newAdminRole",
          "type": "bytes32"
        }
      ],
      "name": "RoleAdminChanged",
      "type": "event"
    },
    {
      "anonymous": false,
      "inputs": [
        {
          "indexed": true,
          "internalType": "bytes32",
          "name": "role",
          "type": "bytes32"
        },
        {
          "indexed": true,
          "internalType": "address",
          "name": "account",
          "type": "address"
        },
        {
          "indexed": true,
          "internalType": "address",
          "name": "sender",
          "type": "address"
        }
      ],
      "name": "RoleGranted",
      "type": "event"
    },
    {
      "anonymous": false,
      "inputs": [
        {
          "indexed": true,
          "internalType": "bytes32",
          "name": "role",
          "type": "bytes32"
        },
        {
          "indexed": true,
          "internalType": "address",
          "name": "account",
          "type": "address"
        },
        {
          "indexed": true,
          "internalType": "address",
          "name": "sender",
          "type": "address"
        }
      ],
      "name": "RoleRevoked",
      "type": "event"
    },
    {
      "anonymous": false,
      "inputs": [
        {
          "indexed": true,
          "internalType": "address",
          "name": "impl",
          "type": "address"
        },
        {
          "indexed": false,
          "internalType": "bool",
          "name": "alive",
          "type": "bool"
        }
      ],
      "name": "SetAliveImplementation",
      "type": "event"
    },
    {
      "anonymous": false,
      "inputs": [
        {
          "indexed": true,
          "internalType": "bytes4",
          "name": "selector",
          "type": "bytes4"
        },
        {
          "indexed": true,
          "internalType": "address",
          "name": "impl",
          "type": "address"
        }
      ],
      "name": "SetSelectorImplementation",
      "type": "event"
    },
    {
      "anonymous": false,
      "inputs": [
        {
          "indexed": true,
          "internalType": "address",
          "name": "implementation",
          "type": "address"
        }
      ],
      "name": "Upgraded",
      "type": "event"
    },
    {
      "stateMutability": "payable",
      "type": "fallback"
    },
    {
      "inputs": [],
      "name": "CHALLENGER_ROLE",
      "outputs": [
        {
          "internalType": "bytes32",
          "name": "",
          "type": "bytes32"
        }
      ],
      "stateMutability": "view",
      "type": "function"
    },
    {
      "inputs": [],
      "name": "DEFAULT_ADMIN_ROLE",
      "outputs": [
        {
          "internalType": "bytes32",
          "name": "",
          "type": "bytes32"
        }
      ],
      "stateMutability": "view",
      "type": "function"
    },
    {
      "inputs": [],
      "name": "MINTER_ROLE",
      "outputs": [
        {
          "internalType": "bytes32",
          "name": "",
          "type": "bytes32"
        }
      ],
      "stateMutability": "view",
      "type": "function"
    },
    {
      "inputs": [],
      "name": "OPERATOR_ROLE",
      "outputs": [
        {
          "internalType": "bytes32",
          "name": "",
          "type": "bytes32"
        }
      ],
      "stateMutability": "view",
      "type": "function"
    },
    {
      "inputs": [],
      "name": "PAUSE_ROLE",
      "outputs": [
        {
          "internalType": "bytes32",
          "name": "",
          "type": "bytes32"
        }
      ],
      "stateMutability": "view",
      "type": "function"
    },
    {
      "inputs": [
        {
          "internalType": "address",
          "name": "account",
          "type": "address"
        }
      ],
      "name": "addAdmin",
      "outputs": [],
      "stateMutability": "nonpayable",
      "type": "function"
    },
    {
      "inputs": [
        {
          "internalType": "address",
          "name": "account",
          "type": "address"
        }
      ],
      "name": "addChallenger",
      "outputs": [],
      "stateMutability": "nonpayable",
      "type": "function"
    },
    {
      "inputs": [
        {
          "internalType": "address",
          "name": "account",
          "type": "address"
        }
      ],
      "name": "addMinter",
      "outputs": [],
      "stateMutability": "nonpayable",
      "type": "function"
    },
    {
      "inputs": [
        {
          "internalType": "address",
          "name": "account",
          "type": "address"
        }
      ],
      "name": "addOperator",
      "outputs": [],
      "stateMutability": "nonpayable",
      "type": "function"
    },
    {
      "inputs": [
        {
          "internalType": "address",
          "name": "",
          "type": "address"
        }
      ],
      "name": "aliveImplementation",
      "outputs": [
        {
          "internalType": "bool",
          "name": "",
          "type": "bool"
        }
      ],
      "stateMutability": "view",
      "type": "function"
    },
    {
      "inputs": [
        {
          "internalType": "bytes32",
          "name": "role",
          "type": "bytes32"
        }
      ],
      "name": "getRoleAdmin",
      "outputs": [
        {
          "internalType": "bytes32",
          "name": "",
          "type": "bytes32"
        }
      ],
      "stateMutability": "view",
      "type": "function"
    },
    {
      "inputs": [
        {
          "internalType": "bytes4",
          "name": "_selector",
          "type": "bytes4"
        }
      ],
      "name": "getSelectorImplementation2",
      "outputs": [
        {
          "internalType": "address",
          "name": "impl",
          "type": "address"
        }
      ],
      "stateMutability": "view",
      "type": "function"
    },
    {
      "inputs": [
        {
          "internalType": "bytes32",
          "name": "role",
          "type": "bytes32"
        },
        {
          "internalType": "address",
          "name": "account",
          "type": "address"
        }
      ],
      "name": "grantRole",
      "outputs": [],
      "stateMutability": "nonpayable",
      "type": "function"
    },
    {
      "inputs": [
        {
          "internalType": "bytes32",
          "name": "role",
          "type": "bytes32"
        },
        {
          "internalType": "address",
          "name": "account",
          "type": "address"
        }
      ],
      "name": "hasRole",
      "outputs": [
        {
          "internalType": "bool",
          "name": "",
          "type": "bool"
        }
      ],
      "stateMutability": "view",
      "type": "function"
    },
    {
      "inputs": [],
      "name": "implementation",
      "outputs": [
        {
          "internalType": "address",
          "name": "",
          "type": "address"
        }
      ],
      "stateMutability": "view",
      "type": "function"
    },
    {
      "inputs": [
        {
          "internalType": "uint256",
          "name": "_index",
          "type": "uint256"
        }
      ],
      "name": "implementation2",
      "outputs": [
        {
          "internalType": "address",
          "name": "",
          "type": "address"
        }
      ],
      "stateMutability": "view",
      "type": "function"
    },
    {
      "inputs": [
        {
          "internalType": "address",
          "name": "account",
          "type": "address"
        }
      ],
      "name": "isAdmin",
      "outputs": [
        {
          "internalType": "bool",
          "name": "",
          "type": "bool"
        }
      ],
      "stateMutability": "view",
      "type": "function"
    },
    {
      "inputs": [
        {
          "internalType": "address",
          "name": "account",
          "type": "address"
        }
      ],
      "name": "isChallenger",
      "outputs": [
        {
          "internalType": "bool",
          "name": "",
          "type": "bool"
        }
      ],
      "stateMutability": "view",
      "type": "function"
    },
    {
      "inputs": [
        {
          "internalType": "address",
          "name": "account",
          "type": "address"
        }
      ],
      "name": "isMinter",
      "outputs": [
        {
          "internalType": "bool",
          "name": "",
          "type": "bool"
        }
      ],
      "stateMutability": "view",
      "type": "function"
    },
    {
      "inputs": [
        {
          "internalType": "address",
          "name": "account",
          "type": "address"
        }
      ],
      "name": "isOperator",
      "outputs": [
        {
          "internalType": "bool",
          "name": "",
          "type": "bool"
        }
      ],
      "stateMutability": "view",
      "type": "function"
    },
    {
      "inputs": [],
      "name": "isOwner",
      "outputs": [
        {
          "internalType": "bool",
          "name": "",
          "type": "bool"
        }
      ],
      "stateMutability": "view",
      "type": "function"
    },
    {
      "inputs": [],
      "name": "pauseProxy",
      "outputs": [
        {
          "internalType": "bool",
          "name": "",
          "type": "bool"
        }
      ],
      "stateMutability": "view",
      "type": "function"
    },
    {
      "inputs": [
        {
          "internalType": "uint256",
          "name": "",
          "type": "uint256"
        }
      ],
      "name": "proxyImplementation",
      "outputs": [
        {
          "internalType": "address",
          "name": "",
          "type": "address"
        }
      ],
      "stateMutability": "view",
      "type": "function"
    },
    {
      "inputs": [
        {
          "internalType": "address",
          "name": "account",
          "type": "address"
        }
      ],
      "name": "removeAdmin",
      "outputs": [],
      "stateMutability": "nonpayable",
      "type": "function"
    },
    {
      "inputs": [
        {
          "internalType": "address",
          "name": "account",
          "type": "address"
        }
      ],
      "name": "removeChallenger",
      "outputs": [],
      "stateMutability": "nonpayable",
      "type": "function"
    },
    {
      "inputs": [
        {
          "internalType": "address",
          "name": "account",
          "type": "address"
        }
      ],
      "name": "removeMinter",
      "outputs": [],
      "stateMutability": "nonpayable",
      "type": "function"
    },
    {
      "inputs": [
        {
          "internalType": "address",
          "name": "account",
          "type": "address"
        }
      ],
      "name": "removeOperator",
      "outputs": [],
      "stateMutability": "nonpayable",
      "type": "function"
    },
    {
      "inputs": [],
      "name": "renounceChallenger",
      "outputs": [],
      "stateMutability": "nonpayable",
      "type": "function"
    },
    {
      "inputs": [],
      "name": "renounceMinter",
      "outputs": [],
      "stateMutability": "nonpayable",
      "type": "function"
    },
    {
      "inputs": [],
      "name": "renounceOperator",
      "outputs": [],
      "stateMutability": "nonpayable",
      "type": "function"
    },
    {
      "inputs": [],
      "name": "renounceOwnership",
      "outputs": [],
      "stateMutability": "nonpayable",
      "type": "function"
    },
    {
      "inputs": [
        {
          "internalType": "bytes32",
          "name": "role",
          "type": "bytes32"
        },
        {
          "internalType": "address",
          "name": "account",
          "type": "address"
        }
      ],
      "name": "renounceRole",
      "outputs": [],
      "stateMutability": "nonpayable",
      "type": "function"
    },
    {
      "inputs": [
        {
          "internalType": "address",
          "name": "account",
          "type": "address"
        }
      ],
      "name": "revokeChallenger",
      "outputs": [],
      "stateMutability": "nonpayable",
      "type": "function"
    },
    {
      "inputs": [
        {
          "internalType": "address",
          "name": "account",
          "type": "address"
        }
      ],
      "name": "revokeMinter",
      "outputs": [],
      "stateMutability": "nonpayable",
      "type": "function"
    },
    {
      "inputs": [
        {
          "internalType": "address",
          "name": "account",
          "type": "address"
        }
      ],
      "name": "revokeOperator",
      "outputs": [],
      "stateMutability": "nonpayable",
      "type": "function"
    },
    {
      "inputs": [
        {
          "internalType": "bytes32",
          "name": "role",
          "type": "bytes32"
        },
        {
          "internalType": "address",
          "name": "account",
          "type": "address"
        }
      ],
      "name": "revokeRole",
      "outputs": [],
      "stateMutability": "nonpayable",
      "type": "function"
    },
    {
      "inputs": [
        {
          "internalType": "bytes4",
          "name": "",
          "type": "bytes4"
        }
      ],
      "name": "selectorImplementation",
      "outputs": [
        {
          "internalType": "address",
          "name": "",
          "type": "address"
        }
      ],
      "stateMutability": "view",
      "type": "function"
    },
    {
      "inputs": [
        {
          "internalType": "address",
          "name": "newImplementation",
          "type": "address"
        },
        {
          "internalType": "bool",
          "name": "_alive",
          "type": "bool"
        }
      ],
      "name": "setAliveImplementation2",
      "outputs": [],
      "stateMutability": "nonpayable",
      "type": "function"
    },
    {
      "inputs": [
        {
          "internalType": "address",
          "name": "newImplementation",
          "type": "address"
        },
        {
          "internalType": "uint256",
          "name": "_index",
          "type": "uint256"
        },
        {
          "internalType": "bool",
          "name": "_alive",
          "type": "bool"
        }
      ],
      "name": "setImplementation2",
      "outputs": [],
      "stateMutability": "nonpayable",
      "type": "function"
    },
    {
      "inputs": [
        {
          "internalType": "bool",
          "name": "_pause",
          "type": "bool"
        }
      ],
      "name": "setProxyPause",
      "outputs": [],
      "stateMutability": "nonpayable",
      "type": "function"
    },
    {
      "inputs": [
        {
          "internalType": "bytes4[]",
          "name": "_selectors",
          "type": "bytes4[]"
        },
        {
          "internalType": "address",
          "name": "_imp",
          "type": "address"
        }
      ],
      "name": "setSelectorImplementations2",
      "outputs": [],
      "stateMutability": "nonpayable",
      "type": "function"
    },
    {
      "inputs": [
        {
          "internalType": "bytes4",
          "name": "interfaceId",
          "type": "bytes4"
        }
      ],
      "name": "supportsInterface",
      "outputs": [
        {
          "internalType": "bool",
          "name": "",
          "type": "bool"
        }
      ],
      "stateMutability": "view",
      "type": "function"
    },
    {
      "inputs": [
        {
          "internalType": "address",
          "name": "newAdmin",
          "type": "address"
        }
      ],
      "name": "transferAdmin",
      "outputs": [],
      "stateMutability": "nonpayable",
      "type": "function"
    },
    {
      "inputs": [
        {
          "internalType": "address",
          "name": "newAdmin",
          "type": "address"
        }
      ],
      "name": "transferOwnership",
      "outputs": [],
      "stateMutability": "nonpayable",
      "type": "function"
    },
    {
      "inputs": [
        {
          "internalType": "address",
          "name": "impl",
          "type": "address"
        }
      ],
      "name": "upgradeTo",
      "outputs": [],
      "stateMutability": "nonpayable",
      "type": "function"
    },
    {
      "stateMutability": "payable",
      "type": "receive"
    }
  ],
  "bytecode": "0x60806040523480156200001157600080fd5b506200001f600033620000a9565b6200003b60008051602062001e238339815191526000620000b9565b620000687f523a704056dcd17bcf83bed8b68c59416dac1119be77755efe3bde0a64e46e0c6000620000b9565b620000a37fbf02bad7114723a857a3af46cea17b778a3a951c96f183784d9a2448cc479ab660008051602062001e23833981519152620000b9565b620001a8565b620000b5828262000104565b5050565b600082815260056020526040808220600101805490849055905190918391839186917fbd79b86ffe0ab8e8776151514217cd7cacd52c909f66475c3af44e129f0b00ff9190a4505050565b60008281526005602090815260408083206001600160a01b038516845290915290205460ff16620000b55760008281526005602090815260408083206001600160a01b03851684529091529020805460ff19166001179055620001643390565b6001600160a01b0316816001600160a01b0316837f2f8788117e7eff1d82e926ec794901d17c78024a50270940304540a733656f0d60405160405180910390a45050565b611c6b80620001b86000396000f3fe6080604052600436106102765760003560e01c8063704802751161014f5780639870d7fe116100c1578063cfbd48851161007a578063cfbd488514610812578063d539139314610832578063d547741f14610854578063f2fde38b14610874578063f5b541a614610894578063fad8b32a146108b6576102bf565b80639870d7fe14610747578063a217fddf14610767578063a415d8dc1461077c578063aa271e1a1461079c578063ac8a584a146107bc578063b911135f146107dc576102bf565b80638b8f4a65116101135780638b8f4a651461069d5780638d4fdb40146106bd5780638f32d59b146106dd57806391d14854146106f2578063983b2d56146107125780639865027514610732576102bf565b80637048027514610608578063715018a61461062857806375829def1461063d5780637cb00d251461065d5780637cd5f6631461067d576102bf565b8063389ed267116101e8578063550d01a3116101ac578063550d01a31461052a5780635c60da1b1461055a5780635cc797d81461058e57806363a8fd89146105ae5780636c578c1d146105c85780636d70f7ae146105e8576102bf565b8063389ed267146104465780633c4911731461047a5780634a5df50f1461049a57806350d2a276146104ba578063530adbb414610508576102bf565b806325e90db41161023a57806325e90db41461039c5780632ab6f8db146103b15780632f2ff15d146103c65780633092afd5146103e657806336568abe146104065780633659cfe614610426576102bf565b806301ffc9a7146102c95780630ceb6780146102fe5780631785f53c1461031e578063248a9ca31461033e57806324d7806c1461037c576102bf565b366102bf5760405162461bcd60e51b815260206004820152601460248201527331b0b73737ba103932b1b2b4bb329022ba3432b960611b60448201526064015b60405180910390fd5b6102c76108d6565b005b3480156102d557600080fd5b506102e96102e4366004611886565b61097f565b60405190151581526020015b60405180910390f35b34801561030a57600080fd5b506102c76103193660046118c7565b610990565b34801561032a57600080fd5b506102c76103393660046118c7565b610a16565b34801561034a57600080fd5b5061036e6103593660046118e2565b60009081526005602052604090206001015490565b6040519081526020016102f5565b34801561038857600080fd5b506102e96103973660046118c7565b610a46565b3480156103a857600080fd5b506102c7610a52565b3480156103bd57600080fd5b506102c7610a6c565b3480156103d257600080fd5b506102c76103e13660046118fb565b610a84565b3480156103f257600080fd5b506102c76104013660046118c7565b610aa9565b34801561041257600080fd5b506102c76104213660046118fb565b610ae2565b34801561043257600080fd5b506102c76104413660046118c7565b610b60565b34801561045257600080fd5b5061036e7ffcb9fcbfa83b897fb2d5cf4b58962164105c1e71489a37ef3ae0db3fdce576f681565b34801561048657600080fd5b506102c76104953660046118c7565b610c6e565b3480156104a657600080fd5b506102c76104b5366004611927565b610cab565b3480156104c657600080fd5b506104f06104d5366004611886565b6003602052600090815260409020546001600160a01b031681565b6040516001600160a01b0390911681526020016102f5565b34801561051457600080fd5b5061036e600080516020611c3f83398151915281565b34801561053657600080fd5b506102e96105453660046118c7565b60026020526000908152604090205460ff1681565b34801561056657600080fd5b50600080526001602052600080516020611bdf833981519152546001600160a01b03166104f0565b34801561059a57600080fd5b506102c76105a93660046119bb565b610f12565b3480156105ba57600080fd5b506000546102e99060ff1681565b3480156105d457600080fd5b506102c76105e33660046118c7565b610f41565b3480156105f457600080fd5b506102e96106033660046118c7565b610f7e565b34801561061457600080fd5b506102c76106233660046118c7565b610f98565b34801561063457600080fd5b506102c7610fc8565b34801561064957600080fd5b506102c76106583660046118c7565b610ff8565b34801561066957600080fd5b506102c76106783660046119e5565b6110da565b34801561068957600080fd5b506102c7610698366004611a00565b611112565b3480156106a957600080fd5b506104f06106b83660046118e2565b611142565b3480156106c957600080fd5b506104f06106d8366004611886565b61115f565b3480156106e957600080fd5b506102e9611237565b3480156106fe57600080fd5b506102e961070d3660046118fb565b61123f565b34801561071e57600080fd5b506102c761072d3660046118c7565b61126a565b34801561073e57600080fd5b506102c76112a7565b34801561075357600080fd5b506102c76107623660046118c7565b6112bf565b34801561077357600080fd5b5061036e600081565b34801561078857600080fd5b506102e96107973660046118c7565b6112fc565b3480156107a857600080fd5b506102e96107b73660046118c7565b611316565b3480156107c857600080fd5b506102c76107d73660046118c7565b611330565b3480156107e857600080fd5b506104f06107f73660046118e2565b6001602052600090815260409020546001600160a01b031681565b34801561081e57600080fd5b506102c761082d3660046118c7565b61136d565b34801561083e57600080fd5b5061036e600080516020611bff83398151915281565b34801561086057600080fd5b506102c761086f3660046118fb565b6113a6565b34801561088057600080fd5b506102c761088f3660046118c7565b6113cb565b3480156108a057600080fd5b5061036e600080516020611c1f83398151915281565b3480156108c257600080fd5b506102c76108d13660046118c7565b6113f9565b60006108ed6000356001600160e01b03191661115f565b90506001600160a01b0381161580159061090a575060005460ff16155b6109565760405162461bcd60e51b815260206004820152601d60248201527f50726f78793a20696d706c204f522070726f78792069732066616c736500000060448201526064016102b6565b3660008037600080366000845af43d6000803e808015610975573d6000f35b3d6000fd5b505050565b600061098a82611436565b92915050565b61099933610a46565b806109b757506109b7600080516020611bff8339815191523361123f565b6109fb5760405162461bcd60e51b81526020600482015260156024820152743737ba1037b7363ca6b4b73a32b927b920b236b4b760591b60448201526064016102b6565b610a13600080516020611c3f83398151915282610a84565b50565b610a1f33610a46565b610a3b5760405162461bcd60e51b81526004016102b690611a33565b610a13600082610ae2565b600061098a818361123f565b610a6a600080516020611c3f83398151915233610ae2565b565b610a6a600080516020611c1f83398151915233610ae2565b600082815260056020526040902060010154610a9f8161145b565b61097a8383611465565b610ab233610a46565b610ace5760405162461bcd60e51b81526004016102b690611a33565b610a13600080516020611bff833981519152825b6001600160a01b0381163314610b525760405162461bcd60e51b815260206004820152602f60248201527f416363657373436f6e74726f6c3a2063616e206f6e6c792072656e6f756e636560448201526e103937b632b9903337b91039b2b63360891b60648201526084016102b6565b610b5c82826114eb565b5050565b610b6933610a46565b610b855760405162461bcd60e51b81526004016102b690611a33565b6001600160a01b038116610bcb5760405162461bcd60e51b815260206004820152600d60248201526c696e707574206973207a65726f60981b60448201526064016102b6565b600080526001602052600080516020611bdf833981519152546001600160a01b03828116911603610c2a5760405162461bcd60e51b815260206004820152600960248201526839b0b6b29030b2323960b91b60448201526064016102b6565b610c378160006001611552565b6040516001600160a01b038216907fbc7cd75a20ee27fd9adebab32041f755214dbc6bffa90cc0225b39da2e5c2d3b90600090a250565b610c7733610a46565b610c935760405162461bcd60e51b81526004016102b690611a33565b610a13600080516020611c3f833981519152826113a6565b610cb433610a46565b610cd05760405162461bcd60e51b81526004016102b690611a33565b81610d1d5760405162461bcd60e51b815260206004820181905260248201527f50726f78793a205f73656c6563746f727327732073697a65206973207a65726f60448201526064016102b6565b6001600160a01b03811660009081526002602052604090205460ff16610d855760405162461bcd60e51b815260206004820152601860248201527f50726f78793a205f696d70206973206e6f7420616c697665000000000000000060448201526064016102b6565b60005b82811015610f0757816001600160a01b031660036000868685818110610db057610db0611a76565b9050602002016020810190610dc59190611886565b6001600160e01b03191681526020810191909152604001600020546001600160a01b031603610e365760405162461bcd60e51b815260206004820152601d60248201527f4c69717569646974795661756c7450726f78793a2073616d6520696d7000000060448201526064016102b6565b8160036000868685818110610e4d57610e4d611a76565b9050602002016020810190610e629190611886565b6001600160e01b0319168152602081019190915260400160002080546001600160a01b0319166001600160a01b039283161790558216848483818110610eaa57610eaa611a76565b9050602002016020810190610ebf9190611886565b6001600160e01b0319167f14ebc1c32aa68f4d766e89f3e546cee249f7df25183fc10ab1568d91c2ce9b7b60405160405180910390a380610eff81611aa2565b915050610d88565b50505050565b905090565b610f1b33610a46565b610f375760405162461bcd60e51b81526004016102b690611a33565b610b5c82826115dd565b610f4a33610a46565b610f665760405162461bcd60e51b81526004016102b690611a33565b610a13600080516020611c3f83398151915282610ae2565b600061098a600080516020611c1f8339815191528361123f565b610fa133610a46565b610fbd5760405162461bcd60e51b81526004016102b690611a33565b610a13600082610a84565b610fd133610a46565b610fed5760405162461bcd60e51b81526004016102b690611a33565b610a6a600033610ae2565b61100133610a46565b61101d5760405162461bcd60e51b81526004016102b690611a33565b6001600160a01b0381166110735760405162461bcd60e51b815260206004820152601860248201527f41636365737369626c653a207a65726f2061646472657373000000000000000060448201526064016102b6565b6001600160a01b03811633036110c45760405162461bcd60e51b815260206004820152601660248201527520b1b1b2b9b9b4b136329d1039b0b6b29030b236b4b760511b60448201526064016102b6565b6110cf600082610a84565b610a13600033610ae2565b6110e333610a46565b6110ff5760405162461bcd60e51b81526004016102b690611a33565b6000805460ff1916911515919091179055565b61111b33610a46565b6111375760405162461bcd60e51b81526004016102b690611a33565b61097a838383611552565b6000818152600160205260408120546001600160a01b031661098a565b6001600160e01b031981166000908152600360205260408120546001600160a01b03166111ad575050600080526001602052600080516020611bdf833981519152546001600160a01b031690565b6001600160e01b031982166000908152600360209081526040808320546001600160a01b03168352600290915290205460ff161561120b57506001600160e01b0319166000908152600360205260409020546001600160a01b031690565b5050600080526001602052600080516020611bdf833981519152546001600160a01b031690565b919050565b6000610f0d81335b60009182526005602090815260408084206001600160a01b0393909316845291905290205460ff1690565b61127333610a46565b61128f5760405162461bcd60e51b81526004016102b690611a33565b610a13600080516020611bff83398151915282610a84565b610a6a600080516020611bff83398151915233610ae2565b6112c833610a46565b6112e45760405162461bcd60e51b81526004016102b690611a33565b610a13600080516020611c1f83398151915282610a84565b600061098a600080516020611c3f8339815191528361123f565b600061098a600080516020611bff8339815191528361123f565b61133933610a46565b6113555760405162461bcd60e51b81526004016102b690611a33565b610a13600080516020611c1f83398151915282610ae2565b61137633610a46565b6113925760405162461bcd60e51b81526004016102b690611a33565b610a13600080516020611bff833981519152825b6000828152600560205260409020600101546113c18161145b565b61097a83836114eb565b6113d433610a46565b6113f05760405162461bcd60e51b81526004016102b690611a33565b610a1381610ff8565b61140233610a46565b61141e5760405162461bcd60e51b81526004016102b690611a33565b610a13600080516020611c1f833981519152826113a6565b60006001600160e01b03198216637965db0b60e01b148061098a575061098a8261163c565b610a138133611678565b61146f828261123f565b610b5c5760008281526005602090815260408083206001600160a01b03851684529091529020805460ff191660011790556114a73390565b6001600160a01b0316816001600160a01b0316837f2f8788117e7eff1d82e926ec794901d17c78024a50270940304540a733656f0d60405160405180910390a45050565b6114f5828261123f565b15610b5c5760008281526005602090815260408083206001600160a01b0385168085529252808320805460ff1916905551339285917ff6391f5c32d9c69d2a47ea670b442974b53935d1edc7fd64eb21e047a839171b9190a45050565b6001600160a01b0383163b6115a95760405162461bcd60e51b815260206004820152601b60248201527f50726f78793a206e6f7420636f6e74726163742061646472657373000000000060448201526064016102b6565b80156115d757600082815260016020526040902080546001600160a01b0319166001600160a01b0385161790555b61097a83825b6001600160a01b038216600081815260026020908152604091829020805460ff191685151590811790915591519182527f72558d9bfba4210f9ef095c782589484151f6d90f7a81bb3cb9b33efc695d324910160405180910390a25050565b60006301ffc9a760e01b6001600160e01b03198316148061098a5750506001600160e01b03191660009081526004602052604090205460ff1690565b611682828261123f565b610b5c5761168f816116d1565b61169a8360206116e3565b6040516020016116ab929190611adf565b60408051601f198184030181529082905262461bcd60e51b82526102b691600401611b54565b606061098a6001600160a01b03831660145b606060006116f2836002611b87565b6116fd906002611b9e565b67ffffffffffffffff81111561171557611715611bb1565b6040519080825280601f01601f19166020018201604052801561173f576020820181803683370190505b509050600360fc1b8160008151811061175a5761175a611a76565b60200101906001600160f81b031916908160001a905350600f60fb1b8160018151811061178957611789611a76565b60200101906001600160f81b031916908160001a90535060006117ad846002611b87565b6117b8906001611b9e565b90505b6001811115611830576f181899199a1a9b1b9c1cb0b131b232b360811b85600f16601081106117ec576117ec611a76565b1a60f81b82828151811061180257611802611a76565b60200101906001600160f81b031916908160001a90535060049490941c9361182981611bc7565b90506117bb565b50831561187f5760405162461bcd60e51b815260206004820181905260248201527f537472696e67733a20686578206c656e67746820696e73756666696369656e7460448201526064016102b6565b9392505050565b60006020828403121561189857600080fd5b81356001600160e01b03198116811461187f57600080fd5b80356001600160a01b038116811461123257600080fd5b6000602082840312156118d957600080fd5b61187f826118b0565b6000602082840312156118f457600080fd5b5035919050565b6000806040838503121561190e57600080fd5b8235915061191e602084016118b0565b90509250929050565b60008060006040848603121561193c57600080fd5b833567ffffffffffffffff8082111561195457600080fd5b818601915086601f83011261196857600080fd5b81358181111561197757600080fd5b8760208260051b850101111561198c57600080fd5b6020928301955093506119a291860190506118b0565b90509250925092565b8035801515811461123257600080fd5b600080604083850312156119ce57600080fd5b6119d7836118b0565b915061191e602084016119ab565b6000602082840312156119f757600080fd5b61187f826119ab565b600080600060608486031215611a1557600080fd5b611a1e846118b0565b9250602084013591506119a2604085016119ab565b60208082526023908201527f41757468436f6e74726f6c3a2043616c6c6572206973206e6f7420616e20616460408201526236b4b760e91b606082015260800190565b634e487b7160e01b600052603260045260246000fd5b634e487b7160e01b600052601160045260246000fd5b600060018201611ab457611ab4611a8c565b5060010190565b60005b83811015611ad6578181015183820152602001611abe565b50506000910152565b7f416363657373436f6e74726f6c3a206163636f756e7420000000000000000000815260008351611b17816017850160208801611abb565b7001034b99036b4b9b9b4b733903937b6329607d1b6017918401918201528351611b48816028840160208801611abb565b01602801949350505050565b6020815260008251806020840152611b73816040850160208701611abb565b601f01601f19169190910160400192915050565b808202811582820484141761098a5761098a611a8c565b8082018082111561098a5761098a611a8c565b634e487b7160e01b600052604160045260246000fd5b600081611bd657611bd6611a8c565b50600019019056fea6eef7e35abe7026729641147f7915573c7e97b47efa546f5f6e3230263bcb49f0887ba65ee2024ea881d91b74c2450ef19e1557f03bed3ea9f16b037cbe2dc9523a704056dcd17bcf83bed8b68c59416dac1119be77755efe3bde0a64e46e0cbf02bad7114723a857a3af46cea17b778a3a951c96f183784d9a2448cc479ab6a164736f6c6343000813000af0887ba65ee2024ea881d91b74c2450ef19e1557f03bed3ea9f16b037cbe2dc9",
  "linkReferences": {},
  "deployedLinkReferences": {}
}