{
  "address": "0x52bad4A8584909895C22bdEcf8DBF33314468Fb0",
  "abi": [
    {
      "anonymous": false,
      "inputs": [
        {
          "indexed": false,
          "internalType": "address",
          "name": "sender",
          "type": "address"
        },
        {
          "indexed": false,
          "internalType": "address",
          "name": "layer2",
          "type": "address"
        },
        {
          "indexed": false,
          "internalType": "address",
          "name": "operator",
          "type": "address"
        },
        {
          "indexed": false,
          "internalType": "bool",
          "name": "isLayer2Candidate",
          "type": "bool"
        },
        {
          "indexed": false,
          "internalType": "string",
          "name": "name",
          "type": "string"
        },
        {
          "indexed": false,
          "internalType": "address",
          "name": "committee",
          "type": "address"
        },
        {
          "indexed": false,
          "internalType": "address",
          "name": "seigManager",
          "type": "address"
        }
      ],
      "name": "DeployedCandidate",
      "type": "event"
    },
    {
      "anonymous": false,
      "inputs": [
        {
          "indexed": true,
          "internalType": "bytes32",
          "name": "role",
          "type": "bytes32"
        },
        {
          "indexed": true,
          "internalType": "bytes32",
          "name": "previousAdminRole",
          "type": "bytes32"
        },
        {
          "indexed": true,
          "internalType": "bytes32",
          "name": "newAdminRole",
          "type": "bytes32"
        }
      ],
      "name": "RoleAdminChanged",
      "type": "event"
    },
    {
      "anonymous": false,
      "inputs": [
        {
          "indexed": true,
          "internalType": "bytes32",
          "name": "role",
          "type": "bytes32"
        },
        {
          "indexed": true,
          "internalType": "address",
          "name": "account",
          "type": "address"
        },
        {
          "indexed": true,
          "internalType": "address",
          "name": "sender",
          "type": "address"
        }
      ],
      "name": "RoleGranted",
      "type": "event"
    },
    {
      "anonymous": false,
      "inputs": [
        {
          "indexed": true,
          "internalType": "bytes32",
          "name": "role",
          "type": "bytes32"
        },
        {
          "indexed": true,
          "internalType": "address",
          "name": "account",
          "type": "address"
        },
        {
          "indexed": true,
          "internalType": "address",
          "name": "sender",
          "type": "address"
        }
      ],
      "name": "RoleRevoked",
      "type": "event"
    },
    {
      "inputs": [],
      "name": "DEFAULT_ADMIN_ROLE",
      "outputs": [
        {
          "internalType": "bytes32",
          "name": "",
          "type": "bytes32"
        }
      ],
      "stateMutability": "view",
      "type": "function"
    },
    {
      "inputs": [],
      "name": "MINTER_ROLE",
      "outputs": [
        {
          "internalType": "bytes32",
          "name": "",
          "type": "bytes32"
        }
      ],
      "stateMutability": "view",
      "type": "function"
    },
    {
      "inputs": [
        {
          "internalType": "address",
          "name": "account",
          "type": "address"
        }
      ],
      "name": "addAdmin",
      "outputs": [],
      "stateMutability": "nonpayable",
      "type": "function"
    },
    {
      "inputs": [
        {
          "internalType": "address",
          "name": "",
          "type": "address"
        }
      ],
      "name": "aliveImplementation",
      "outputs": [
        {
          "internalType": "bool",
          "name": "",
          "type": "bool"
        }
      ],
      "stateMutability": "view",
      "type": "function"
    },
    {
      "inputs": [],
      "name": "candidateImp",
      "outputs": [
        {
          "internalType": "address",
          "name": "",
          "type": "address"
        }
      ],
      "stateMutability": "view",
      "type": "function"
    },
    {
      "inputs": [],
      "name": "daoCommittee",
      "outputs": [
        {
          "internalType": "address",
          "name": "",
          "type": "address"
        }
      ],
      "stateMutability": "view",
      "type": "function"
    },
    {
      "inputs": [
        {
          "internalType": "address",
          "name": "_sender",
          "type": "address"
        },
        {
          "internalType": "bool",
          "name": "_isLayer2Candidate",
          "type": "bool"
        },
        {
          "internalType": "string",
          "name": "_name",
          "type": "string"
        },
        {
          "internalType": "address",
          "name": "_committee",
          "type": "address"
        },
        {
          "internalType": "address",
          "name": "_seigManager",
          "type": "address"
        }
      ],
      "name": "deploy",
      "outputs": [
        {
          "internalType": "address",
          "name": "",
          "type": "address"
        }
      ],
      "stateMutability": "nonpayable",
      "type": "function"
    },
    {
      "inputs": [],
      "name": "depositManager",
      "outputs": [
        {
          "internalType": "address",
          "name": "",
          "type": "address"
        }
      ],
      "stateMutability": "view",
      "type": "function"
    },
    {
      "inputs": [
        {
          "internalType": "bytes32",
          "name": "role",
          "type": "bytes32"
        }
      ],
      "name": "getRoleAdmin",
      "outputs": [
        {
          "internalType": "bytes32",
          "name": "",
          "type": "bytes32"
        }
      ],
      "stateMutability": "view",
      "type": "function"
    },
    {
      "inputs": [
        {
          "internalType": "bytes32",
          "name": "role",
          "type": "bytes32"
        },
        {
          "internalType": "address",
          "name": "account",
          "type": "address"
        }
      ],
      "name": "grantRole",
      "outputs": [],
      "stateMutability": "nonpayable",
      "type": "function"
    },
    {
      "inputs": [
        {
          "internalType": "bytes32",
          "name": "role",
          "type": "bytes32"
        },
        {
          "internalType": "address",
          "name": "account",
          "type": "address"
        }
      ],
      "name": "hasRole",
      "outputs": [
        {
          "internalType": "bool",
          "name": "",
          "type": "bool"
        }
      ],
      "stateMutability": "view",
      "type": "function"
    },
    {
      "inputs": [
        {
          "internalType": "address",
          "name": "account",
          "type": "address"
        }
      ],
      "name": "isAdmin",
      "outputs": [
        {
          "internalType": "bool",
          "name": "",
          "type": "bool"
        }
      ],
      "stateMutability": "view",
      "type": "function"
    },
    {
      "inputs": [],
      "name": "isOwner",
      "outputs": [
        {
          "internalType": "bool",
          "name": "",
          "type": "bool"
        }
      ],
      "stateMutability": "view",
      "type": "function"
    },
    {
      "inputs": [],
      "name": "pauseProxy",
      "outputs": [
        {
          "internalType": "bool",
          "name": "",
          "type": "bool"
        }
      ],
      "stateMutability": "view",
      "type": "function"
    },
    {
      "inputs": [
        {
          "internalType": "uint256",
          "name": "",
          "type": "uint256"
        }
      ],
      "name": "proxyImplementation",
      "outputs": [
        {
          "internalType": "address",
          "name": "",
          "type": "address"
        }
      ],
      "stateMutability": "view",
      "type": "function"
    },
    {
      "inputs": [
        {
          "internalType": "address",
          "name": "account",
          "type": "address"
        }
      ],
      "name": "removeAdmin",
      "outputs": [],
      "stateMutability": "nonpayable",
      "type": "function"
    },
    {
      "inputs": [],
      "name": "renounceOwnership",
      "outputs": [],
      "stateMutability": "nonpayable",
      "type": "function"
    },
    {
      "inputs": [
        {
          "internalType": "bytes32",
          "name": "role",
          "type": "bytes32"
        },
        {
          "internalType": "address",
          "name": "account",
          "type": "address"
        }
      ],
      "name": "renounceRole",
      "outputs": [],
      "stateMutability": "nonpayable",
      "type": "function"
    },
    {
      "inputs": [
        {
          "internalType": "bytes32",
          "name": "role",
          "type": "bytes32"
        },
        {
          "internalType": "address",
          "name": "account",
          "type": "address"
        }
      ],
      "name": "revokeRole",
      "outputs": [],
      "stateMutability": "nonpayable",
      "type": "function"
    },
    {
      "inputs": [
        {
          "internalType": "bytes4",
          "name": "",
          "type": "bytes4"
        }
      ],
      "name": "selectorImplementation",
      "outputs": [
        {
          "internalType": "address",
          "name": "",
          "type": "address"
        }
      ],
      "stateMutability": "view",
      "type": "function"
    },
    {
      "inputs": [
        {
          "internalType": "address",
          "name": "_depositManager",
          "type": "address"
        },
        {
          "internalType": "address",
          "name": "_daoCommittee",
          "type": "address"
        },
        {
          "internalType": "address",
          "name": "_candidateImp",
          "type": "address"
        },
        {
          "internalType": "address",
          "name": "_ton",
          "type": "address"
        },
        {
          "internalType": "address",
          "name": "_wton",
          "type": "address"
        }
      ],
      "name": "setAddress",
      "outputs": [],
      "stateMutability": "nonpayable",
      "type": "function"
    },
    {
      "inputs": [
        {
          "internalType": "bytes4",
          "name": "interfaceId",
          "type": "bytes4"
        }
      ],
      "name": "supportsInterface",
      "outputs": [
        {
          "internalType": "bool",
          "name": "",
          "type": "bool"
        }
      ],
      "stateMutability": "view",
      "type": "function"
    },
    {
      "inputs": [],
      "name": "ton",
      "outputs": [
        {
          "internalType": "address",
          "name": "",
          "type": "address"
        }
      ],
      "stateMutability": "view",
      "type": "function"
    },
    {
      "inputs": [
        {
          "internalType": "address",
          "name": "newAdmin",
          "type": "address"
        }
      ],
      "name": "transferAdmin",
      "outputs": [],
      "stateMutability": "nonpayable",
      "type": "function"
    },
    {
      "inputs": [
        {
          "internalType": "address",
          "name": "newAdmin",
          "type": "address"
        }
      ],
      "name": "transferOwnership",
      "outputs": [],
      "stateMutability": "nonpayable",
      "type": "function"
    },
    {
      "inputs": [],
      "name": "wton",
      "outputs": [
        {
          "internalType": "address",
          "name": "",
          "type": "address"
        }
      ],
      "stateMutability": "view",
      "type": "function"
    }
  ],
  "transactionHash": "0x7b6417c3d765ed87e3af289cc42726b336e314f72e2d1404f3594f28818d6cc8",
  "args": [],
  "numDeployments": 1,
  "solcInputHash": "87712d450cfd6ca926c6544b6712808e",
  "bytecode": "0x608060405234801561001057600080fd5b50613181806100206000396000f3fe60806040523480156200001157600080fd5b5060043610620001d15760003560e01c806375829def1162000101578063b911135f11620000a3578063d547741f116200007a578063d547741f146200047e578063e64a31f61462000495578063eeac943114620004ac578063f2fde38b14620004c057600080fd5b8063b911135f1462000416578063cc48b9471462000442578063d5391393146200045657600080fd5b80638f32d59b11620000d85780638f32d59b146200039957806391d1485414620003d1578063a217fddf146200040d57600080fd5b806375829def146200035a57806383eeaa7b14620003715780638d62d949146200038557600080fd5b806336568abe116200017757806363a8fd89116200014e57806363a8fd8914620003175780636c7ac9d81462000325578063704802751462000339578063715018a6146200035057600080fd5b806336568abe146200029557806350d2a27614620002ac578063550d01a314620002f157600080fd5b8063248a9ca311620001ac578063248a9ca3146200023257806324d7806c14620002675780632f2ff15d146200027e57600080fd5b806301ffc9a714620001d657806312c5948814620002025780631785f53c146200021b575b600080fd5b620001ed620001e7366004620011e8565b620004d7565b60405190151581526020015b60405180910390f35b620002196200021336600462001231565b620004ea565b005b620002196200022c366004620012a1565b62000706565b6200025862000243366004620012bf565b60009081526005602052604090206001015490565b604051908152602001620001f9565b620001ed62000278366004620012a1565b6200077a565b620002196200028f366004620012d9565b620007bb565b62000219620002a6366004620012d9565b620007e9565b620002d8620002bd366004620011e8565b6003602052600090815260409020546001600160a01b031681565b6040516001600160a01b039091168152602001620001f9565b620001ed62000302366004620012a1565b60026020526000908152604090205460ff1681565b600054620001ed9060ff1681565b600654620002d8906001600160a01b031681565b620002196200034a366004620012a1565b62000879565b62000219620008ea565b620002196200036b366004620012a1565b6200095d565b600854620002d8906001600160a01b031681565b600a54620002d8906001600160a01b031681565b3360009081527f05b8ccbb9d4d8fb16ea74ce3c29a41f1b461fbdaff4714a0d9a8eb05499746bc602052604090205460ff16620001ed565b620001ed620003e2366004620012d9565b60009182526005602090815260408084206001600160a01b0393909316845291905290205460ff1690565b62000258600081565b620002d862000427366004620012bf565b6001602052600090815260409020546001600160a01b031681565b600954620002d8906001600160a01b031681565b620002587ff0887ba65ee2024ea881d91b74c2450ef19e1557f03bed3ea9f16b037cbe2dc981565b620002196200048f366004620012d9565b62000a8d565b620002d8620004a63660046200131e565b62000ab6565b600754620002d8906001600160a01b031681565b62000219620004d1366004620012a1565b62000d73565b6000620004e48262000de2565b92915050565b620004f5336200077a565b620005525760405162461bcd60e51b815260206004820152602260248201527f41636365737369626c653a2043616c6c6572206973206e6f7420616e2061646d60448201526134b760f11b60648201526084015b60405180910390fd5b6001600160a01b038216158015906200057357506001600160a01b03811615155b80156200058857506001600160a01b03851615155b80156200059d57506001600160a01b03841615155b8015620005b257506001600160a01b03831615155b620005e95760405162461bcd60e51b815260040162000549906020808252600490820152637a65726f60e01b604082015260600190565b6009546001600160a01b038381169116141580620006155750600a546001600160a01b03828116911614155b806200062f57506006546001600160a01b03868116911614155b806200064957506007546001600160a01b03858116911614155b806200066357506008546001600160a01b03848116911614155b6200069a5760405162461bcd60e51b8152600401620005499060208082526004908201526373616d6560e01b604082015260600190565b6006805473ffffffffffffffffffffffffffffffffffffffff199081166001600160a01b03978816179091556007805482169587169590951790945560088054851693861693909317909255600980548416918516919091179055600a80549092169216919091179055565b62000711336200077a565b6200076a5760405162461bcd60e51b815260206004820152602260248201527f41636365737369626c653a2043616c6c6572206973206e6f7420616e2061646d60448201526134b760f11b606482015260840162000549565b62000777600082620007e9565b50565b6001600160a01b03811660009081527f05b8ccbb9d4d8fb16ea74ce3c29a41f1b461fbdaff4714a0d9a8eb05499746bc602052604081205460ff16620004e4565b600082815260056020526040902060010154620007d88162000e0a565b620007e4838362000e16565b505050565b6001600160a01b0381163314620008695760405162461bcd60e51b815260206004820152602f60248201527f416363657373436f6e74726f6c3a2063616e206f6e6c792072656e6f756e636560448201527f20726f6c657320666f722073656c660000000000000000000000000000000000606482015260840162000549565b62000875828262000eba565b5050565b62000884336200077a565b620008dd5760405162461bcd60e51b815260206004820152602260248201527f41636365737369626c653a2043616c6c6572206973206e6f7420616e2061646d60448201526134b760f11b606482015260840162000549565b62000777600082620007bb565b620008f5336200077a565b6200094e5760405162461bcd60e51b815260206004820152602260248201527f41636365737369626c653a2043616c6c6572206973206e6f7420616e2061646d60448201526134b760f11b606482015260840162000549565b6200095b600033620007e9565b565b62000968336200077a565b620009c15760405162461bcd60e51b815260206004820152602260248201527f41636365737369626c653a2043616c6c6572206973206e6f7420616e2061646d60448201526134b760f11b606482015260840162000549565b6001600160a01b03811662000a195760405162461bcd60e51b815260206004820152601860248201527f41636365737369626c653a207a65726f20616464726573730000000000000000604482015260640162000549565b6001600160a01b038116330362000a735760405162461bcd60e51b815260206004820152601660248201527f41636365737369626c653a2073616d652061646d696e00000000000000000000604482015260640162000549565b62000a80600082620007bb565b62000777600033620007e9565b60008281526005602052604090206001015462000aaa8162000e0a565b620007e4838362000eba565b6007546000906001600160a01b0316331462000b155760405162461bcd60e51b815260206004820152601a60248201527f73656e646572206973206e6f742064616f436f6d6d6974746565000000000000604482015260640162000549565b6007546001600160a01b0384811691161462000b745760405162461bcd60e51b815260206004820152601660248201527f646966666572656e742064616f436f6d6d697474656500000000000000000000604482015260640162000549565b600060405162000b8490620011da565b604051809103906000f08015801562000ba1573d6000803e3d6000fd5b5090506001600160a01b03811662000bfc5760405162461bcd60e51b815260206004820152601560248201527f7a65726f2043616e646964617465467750726f78790000000000000000000000604482015260640162000549565b600854604051631b2ce7f360e11b81526001600160a01b03918216600482015290821690633659cfe690602401600060405180830381600087803b15801562000c4457600080fd5b505af115801562000c59573d6000803e3d6000fd5b5050604051630300709760e41b81526001600160a01b03841692506330070970915062000c93908a908a908a908a908a9060040162001462565b600060405180830381600087803b15801562000cae57600080fd5b505af115801562000cc3573d6000803e3d6000fd5b50506040516375829def60e01b81526001600160a01b038781166004830152841692506375829def9150602401600060405180830381600087803b15801562000d0b57600080fd5b505af115801562000d20573d6000803e3d6000fd5b505050507f3c4e602fb3d18b5678f3527dd1dff51d81f491ffb83393cef8fa3a3597a4c0588782898989898960405162000d619796959493929190620014a9565b60405180910390a19695505050505050565b62000d7e336200077a565b62000dd75760405162461bcd60e51b815260206004820152602260248201527f41636365737369626c653a2043616c6c6572206973206e6f7420616e2061646d60448201526134b760f11b606482015260840162000549565b62000777816200095d565b60006001600160e01b03198216637965db0b60e01b1480620004e45750620004e48262000f3e565b62000777813362000f7b565b60008281526005602090815260408083206001600160a01b038516845290915290205460ff16620008755760008281526005602090815260408083206001600160a01b03851684529091529020805460ff1916600117905562000e763390565b6001600160a01b0316816001600160a01b0316837f2f8788117e7eff1d82e926ec794901d17c78024a50270940304540a733656f0d60405160405180910390a45050565b60008281526005602090815260408083206001600160a01b038516845290915290205460ff1615620008755760008281526005602090815260408083206001600160a01b0385168085529252808320805460ff1916905551339285917ff6391f5c32d9c69d2a47ea670b442974b53935d1edc7fd64eb21e047a839171b9190a45050565b60006301ffc9a760e01b6001600160e01b031983161480620004e45750506001600160e01b03191660009081526004602052604090205460ff1690565b60008281526005602090815260408083206001600160a01b038516845290915290205460ff16620008755762000fb18162000ff9565b62000fbe8360206200100c565b60405160200162000fd192919062001502565b60408051601f198184030181529082905262461bcd60e51b8252620005499160040162001587565b6060620004e46001600160a01b03831660145b606060006200101d836002620015b2565b6200102a906002620015cc565b67ffffffffffffffff81111562001045576200104562001308565b6040519080825280601f01601f19166020018201604052801562001070576020820181803683370190505b509050600360fc1b816000815181106200108e576200108e620015e2565b60200101906001600160f81b031916908160001a905350600f60fb1b81600181518110620010c057620010c0620015e2565b60200101906001600160f81b031916908160001a9053506000620010e6846002620015b2565b620010f3906001620015cc565b90505b600181111562001182577f303132333435363738396162636465660000000000000000000000000000000085600f1660108110620011385762001138620015e2565b1a60f81b828281518110620011515762001151620015e2565b60200101906001600160f81b031916908160001a90535060049490941c936200117a81620015f8565b9050620010f6565b508315620011d35760405162461bcd60e51b815260206004820181905260248201527f537472696e67733a20686578206c656e67746820696e73756666696369656e74604482015260640162000549565b9392505050565b611b62806200161383390190565b600060208284031215620011fb57600080fd5b81356001600160e01b031981168114620011d357600080fd5b80356001600160a01b03811681146200122c57600080fd5b919050565b600080600080600060a086880312156200124a57600080fd5b620012558662001214565b9450620012656020870162001214565b9350620012756040870162001214565b9250620012856060870162001214565b9150620012956080870162001214565b90509295509295909350565b600060208284031215620012b457600080fd5b620011d38262001214565b600060208284031215620012d257600080fd5b5035919050565b60008060408385031215620012ed57600080fd5b82359150620012ff6020840162001214565b90509250929050565b634e487b7160e01b600052604160045260246000fd5b600080600080600060a086880312156200133757600080fd5b620013428662001214565b9450602086013580151581146200135857600080fd5b9350604086013567ffffffffffffffff808211156200137657600080fd5b818801915088601f8301126200138b57600080fd5b813581811115620013a057620013a062001308565b604051601f8201601f19908116603f01168101908382118183101715620013cb57620013cb62001308565b816040528281528b6020848701011115620013e557600080fd5b826020860160208301376000602084830101528097505050505050620012856060870162001214565b60005b838110156200142b57818101518382015260200162001411565b50506000910152565b600081518084526200144e8160208601602086016200140e565b601f01601f19169290920160200192915050565b60006001600160a01b038088168352861515602084015260a060408401526200148f60a084018762001434565b948116606084015292909216608090910152509392505050565b60006001600160a01b03808a16835280891660208401528088166040840152861515606084015260e06080840152620014e660e084018762001434565b94811660a08401529290921660c0909101525095945050505050565b7f416363657373436f6e74726f6c3a206163636f756e74200000000000000000008152600083516200153c8160178501602088016200140e565b7f206973206d697373696e6720726f6c652000000000000000000000000000000060179184019182015283516200157b8160288401602088016200140e565b01602801949350505050565b602081526000620011d3602083018462001434565b634e487b7160e01b600052601160045260246000fd5b8082028115828204841417620004e457620004e46200159c565b80820180821115620004e457620004e46200159c565b634e487b7160e01b600052603260045260246000fd5b6000816200160a576200160a6200159c565b50600019019056fe608060405234801561001057600080fd5b5061001c600033610021565b6100d1565b61002b828261002f565b5050565b60008281526005602090815260408083206001600160a01b038516845290915290205460ff1661002b5760008281526005602090815260408083206001600160a01b03851684529091529020805460ff1916600117905561008d3390565b6001600160a01b0316816001600160a01b0316837f2f8788117e7eff1d82e926ec794901d17c78024a50270940304540a733656f0d60405160405180910390a45050565b611a8180620000e16000396000f3fe6080604052600436106101e75760003560e01c8063704802751161010257806391d1485411610095578063d539139311610064578063d53913931461069f578063d547741f146106d3578063d864e740146106f3578063f2fde38b1461071357610239565b806391d14854146105f45780639b6382681461063a578063a217fddf14610654578063b911135f1461066957610239565b80637cd5f663116100d15780637cd5f663146105505780638b8f4a65146105705780638d4fdb40146105905780638f32d59b146105b057610239565b806370480275146104db578063715018a6146104fb57806375829def146105105780637cb00d251461053057610239565b806350d2a2761161017a5780635cc797d8116101495780635cc797d81461045c57806363a8fd891461047c5780636c8381f8146104965780636fb7f558146104bb57610239565b806350d2a27614610376578063550d01a3146103c457806358c3b870146103f45780635c60da1b1461041657610239565b80632f2ff15d116101b65780632f2ff15d146102f657806336568abe146103165780633659cfe6146103365780634a5df50f1461035657610239565b806301ffc9a7146102435780631785f53c14610278578063248a9ca31461029857806324d7806c146102d657610239565b366102395760405162461bcd60e51b815260206004820152601460248201527f63616e6e6f74207265636569766520457468657200000000000000000000000060448201526064015b60405180910390fd5b610241610733565b005b34801561024f57600080fd5b5061026361025e3660046116f9565b6107dc565b60405190151581526020015b60405180910390f35b34801561028457600080fd5b5061024161029336600461173a565b6107ed565b3480156102a457600080fd5b506102c86102b3366004611755565b60009081526005602052604090206001015490565b60405190815260200161026f565b3480156102e257600080fd5b506102636102f136600461173a565b610849565b34801561030257600080fd5b5061024161031136600461176e565b610889565b34801561032257600080fd5b5061024161033136600461176e565b6108ae565b34801561034257600080fd5b5061024161035136600461173a565b61093a565b34801561036257600080fd5b5061024161037136600461179a565b610a93565b34801561038257600080fd5b506103ac6103913660046116f9565b6003602052600090815260409020546001600160a01b031681565b6040516001600160a01b03909116815260200161026f565b3480156103d057600080fd5b506102636103df36600461173a565b60026020526000908152604090205460ff1681565b34801561040057600080fd5b50610409610d40565b60405161026f9190611842565b34801561042257600080fd5b506000805260016020527fa6eef7e35abe7026729641147f7915573c7e97b47efa546f5f6e3230263bcb49546001600160a01b03166103ac565b34801561046857600080fd5b50610241610477366004611885565b610dce565b34801561048857600080fd5b506000546102639060ff1681565b3480156104a257600080fd5b506007546103ac9061010090046001600160a01b031681565b3480156104c757600080fd5b50600a546103ac906001600160a01b031681565b3480156104e757600080fd5b506102416104f636600461173a565b610e26565b34801561050757600080fd5b50610241610e7f565b34801561051c57600080fd5b5061024161052b36600461173a565b610eda565b34801561053c57600080fd5b5061024161054b3660046118af565b610fec565b34801561055c57600080fd5b5061024161056b3660046118ca565b61104d565b34801561057c57600080fd5b506103ac61058b366004611755565b6110a6565b34801561059c57600080fd5b506103ac6105ab3660046116f9565b6110c3565b3480156105bc57600080fd5b503360009081527f05b8ccbb9d4d8fb16ea74ce3c29a41f1b461fbdaff4714a0d9a8eb05499746bc602052604090205460ff16610263565b34801561060057600080fd5b5061026361060f36600461176e565b60009182526005602090815260408084206001600160a01b0393909316845291905290205460ff1690565b34801561064657600080fd5b506007546102639060ff1681565b34801561066057600080fd5b506102c8600081565b34801561067557600080fd5b506103ac610684366004611755565b6001602052600090815260409020546001600160a01b031681565b3480156106ab57600080fd5b506102c87ff0887ba65ee2024ea881d91b74c2450ef19e1557f03bed3ea9f16b037cbe2dc981565b3480156106df57600080fd5b506102416106ee36600461176e565b6111bf565b3480156106ff57600080fd5b506009546103ac906001600160a01b031681565b34801561071f57600080fd5b5061024161072e36600461173a565b6111e4565b600061074a6000356001600160e01b0319166110c3565b90506001600160a01b03811615801590610767575060005460ff16155b6107b35760405162461bcd60e51b815260206004820152601d60248201527f50726f78793a20696d706c204f522070726f78792069732066616c73650000006044820152606401610230565b3660008037600080366000845af43d6000803e8080156107d2573d6000f35b3d6000fd5b505050565b60006107e78261123b565b92915050565b6107f633610849565b61083b5760405162461bcd60e51b81526020600482015260226024820152600080516020611a5583398151915260448201526134b760f11b6064820152608401610230565b6108466000826108ae565b50565b6001600160a01b03811660009081527f05b8ccbb9d4d8fb16ea74ce3c29a41f1b461fbdaff4714a0d9a8eb05499746bc602052604081205460ff166107e7565b6000828152600560205260409020600101546108a481611260565b6107d7838361126a565b6001600160a01b038116331461092c5760405162461bcd60e51b815260206004820152602f60248201527f416363657373436f6e74726f6c3a2063616e206f6e6c792072656e6f756e636560448201527f20726f6c657320666f722073656c6600000000000000000000000000000000006064820152608401610230565b610936828261130c565b5050565b61094333610849565b6109885760405162461bcd60e51b81526020600482015260226024820152600080516020611a5583398151915260448201526134b760f11b6064820152608401610230565b6001600160a01b0381166109de5760405162461bcd60e51b815260206004820152600d60248201527f696e707574206973207a65726f000000000000000000000000000000000000006044820152606401610230565b6000805260016020527fa6eef7e35abe7026729641147f7915573c7e97b47efa546f5f6e3230263bcb49546001600160a01b03828116911603610a4f5760405162461bcd60e51b815260206004820152600960248201526839b0b6b29030b2323960b91b6044820152606401610230565b610a5c816000600161138f565b6040516001600160a01b038216907fbc7cd75a20ee27fd9adebab32041f755214dbc6bffa90cc0225b39da2e5c2d3b90600090a250565b610a9c33610849565b610ae15760405162461bcd60e51b81526020600482015260226024820152600080516020611a5583398151915260448201526134b760f11b6064820152608401610230565b81610b2e5760405162461bcd60e51b815260206004820181905260248201527f50726f78793a205f73656c6563746f727327732073697a65206973207a65726f6044820152606401610230565b6001600160a01b03811660009081526002602052604090205460ff16610b965760405162461bcd60e51b815260206004820152601860248201527f50726f78793a205f696d70206973206e6f7420616c69766500000000000000006044820152606401610230565b60005b82811015610d3a57816001600160a01b031660036000868685818110610bc157610bc16118fd565b9050602002016020810190610bd691906116f9565b6001600160e01b03191681526020810191909152604001600020546001600160a01b031603610c475760405162461bcd60e51b815260206004820152601d60248201527f4c69717569646974795661756c7450726f78793a2073616d6520696d700000006044820152606401610230565b8160036000868685818110610c5e57610c5e6118fd565b9050602002016020810190610c7391906116f9565b6001600160e01b03191681526020810191909152604001600020805473ffffffffffffffffffffffffffffffffffffffff19166001600160a01b039283161790558216848483818110610cc857610cc86118fd565b9050602002016020810190610cdd91906116f9565b7bffffffffffffffffffffffffffffffffffffffffffffffffffffffff19167f14ebc1c32aa68f4d766e89f3e546cee249f7df25183fc10ab1568d91c2ce9b7b60405160405180910390a380610d3281611929565b915050610b99565b50505050565b60088054610d4d90611942565b80601f0160208091040260200160405190810160405280929190818152602001828054610d7990611942565b8015610dc65780601f10610d9b57610100808354040283529160200191610dc6565b820191906000526020600020905b815481529060010190602001808311610da957829003601f168201915b505050505081565b610dd733610849565b610e1c5760405162461bcd60e51b81526020600482015260226024820152600080516020611a5583398151915260448201526134b760f11b6064820152608401610230565b6109368282611427565b610e2f33610849565b610e745760405162461bcd60e51b81526020600482015260226024820152600080516020611a5583398151915260448201526134b760f11b6064820152608401610230565b610846600082610889565b610e8833610849565b610ecd5760405162461bcd60e51b81526020600482015260226024820152600080516020611a5583398151915260448201526134b760f11b6064820152608401610230565b610ed86000336108ae565b565b610ee333610849565b610f285760405162461bcd60e51b81526020600482015260226024820152600080516020611a5583398151915260448201526134b760f11b6064820152608401610230565b6001600160a01b038116610f7e5760405162461bcd60e51b815260206004820152601860248201527f41636365737369626c653a207a65726f206164647265737300000000000000006044820152606401610230565b6001600160a01b0381163303610fd65760405162461bcd60e51b815260206004820152601660248201527f41636365737369626c653a2073616d652061646d696e000000000000000000006044820152606401610230565b610fe1600082610889565b6108466000336108ae565b610ff533610849565b61103a5760405162461bcd60e51b81526020600482015260226024820152600080516020611a5583398151915260448201526134b760f11b6064820152608401610230565b6000805460ff1916911515919091179055565b61105633610849565b61109b5760405162461bcd60e51b81526020600482015260226024820152600080516020611a5583398151915260448201526134b760f11b6064820152608401610230565b6107d783838361138f565b6000818152600160205260408120546001600160a01b03166107e7565b6001600160e01b031981166000908152600360205260408120546001600160a01b03166111235750506000805260016020527fa6eef7e35abe7026729641147f7915573c7e97b47efa546f5f6e3230263bcb49546001600160a01b031690565b6001600160e01b031982166000908152600360209081526040808320546001600160a01b03168352600290915290205460ff161561118157506001600160e01b0319166000908152600360205260409020546001600160a01b031690565b50506000805260016020527fa6eef7e35abe7026729641147f7915573c7e97b47efa546f5f6e3230263bcb49546001600160a01b031690565b919050565b6000828152600560205260409020600101546111da81611260565b6107d7838361130c565b6111ed33610849565b6112325760405162461bcd60e51b81526020600482015260226024820152600080516020611a5583398151915260448201526134b760f11b6064820152608401610230565b61084681610eda565b60006001600160e01b03198216637965db0b60e01b14806107e757506107e782611486565b61084681336114c2565b60008281526005602090815260408083206001600160a01b038516845290915290205460ff166109365760008281526005602090815260408083206001600160a01b03851684529091529020805460ff191660011790556112c83390565b6001600160a01b0316816001600160a01b0316837f2f8788117e7eff1d82e926ec794901d17c78024a50270940304540a733656f0d60405160405180910390a45050565b60008281526005602090815260408083206001600160a01b038516845290915290205460ff16156109365760008281526005602090815260408083206001600160a01b0385168085529252808320805460ff1916905551339285917ff6391f5c32d9c69d2a47ea670b442974b53935d1edc7fd64eb21e047a839171b9190a45050565b6001600160a01b0383163b6113e65760405162461bcd60e51b815260206004820152601b60248201527f50726f78793a206e6f7420636f6e7472616374206164647265737300000000006044820152606401610230565b8015611421576000828152600160205260409020805473ffffffffffffffffffffffffffffffffffffffff19166001600160a01b0385161790555b6107d783825b6001600160a01b038216600081815260026020908152604091829020805460ff191685151590811790915591519182527f72558d9bfba4210f9ef095c782589484151f6d90f7a81bb3cb9b33efc695d324910160405180910390a25050565b60006301ffc9a760e01b6001600160e01b0319831614806107e75750506001600160e01b03191660009081526004602052604090205460ff1690565b60008281526005602090815260408083206001600160a01b038516845290915290205460ff16610936576114f581611537565b611500836020611549565b60405160200161151192919061197c565b60408051601f198184030181529082905262461bcd60e51b825261023091600401611842565b60606107e76001600160a01b03831660145b606060006115588360026119fd565b611563906002611a14565b67ffffffffffffffff81111561157b5761157b611a27565b6040519080825280601f01601f1916602001820160405280156115a5576020820181803683370190505b509050600360fc1b816000815181106115c0576115c06118fd565b60200101906001600160f81b031916908160001a905350600f60fb1b816001815181106115ef576115ef6118fd565b60200101906001600160f81b031916908160001a90535060006116138460026119fd565b61161e906001611a14565b90505b60018111156116a3577f303132333435363738396162636465660000000000000000000000000000000085600f166010811061165f5761165f6118fd565b1a60f81b828281518110611675576116756118fd565b60200101906001600160f81b031916908160001a90535060049490941c9361169c81611a3d565b9050611621565b5083156116f25760405162461bcd60e51b815260206004820181905260248201527f537472696e67733a20686578206c656e67746820696e73756666696369656e746044820152606401610230565b9392505050565b60006020828403121561170b57600080fd5b81356001600160e01b0319811681146116f257600080fd5b80356001600160a01b03811681146111ba57600080fd5b60006020828403121561174c57600080fd5b6116f282611723565b60006020828403121561176757600080fd5b5035919050565b6000806040838503121561178157600080fd5b8235915061179160208401611723565b90509250929050565b6000806000604084860312156117af57600080fd5b833567ffffffffffffffff808211156117c757600080fd5b818601915086601f8301126117db57600080fd5b8135818111156117ea57600080fd5b8760208260051b85010111156117ff57600080fd5b6020928301955093506118159186019050611723565b90509250925092565b60005b83811015611839578181015183820152602001611821565b50506000910152565b602081526000825180602084015261186181604085016020870161181e565b601f01601f19169190910160400192915050565b803580151581146111ba57600080fd5b6000806040838503121561189857600080fd5b6118a183611723565b915061179160208401611875565b6000602082840312156118c157600080fd5b6116f282611875565b6000806000606084860312156118df57600080fd5b6118e884611723565b92506020840135915061181560408501611875565b634e487b7160e01b600052603260045260246000fd5b634e487b7160e01b600052601160045260246000fd5b60006001820161193b5761193b611913565b5060010190565b600181811c9082168061195657607f821691505b60208210810361197657634e487b7160e01b600052602260045260246000fd5b50919050565b7f416363657373436f6e74726f6c3a206163636f756e74200000000000000000008152600083516119b481601785016020880161181e565b7f206973206d697373696e6720726f6c652000000000000000000000000000000060179184019182015283516119f181602884016020880161181e565b01602801949350505050565b80820281158282048414176107e7576107e7611913565b808201808211156107e7576107e7611913565b634e487b7160e01b600052604160045260246000fd5b600081611a4c57611a4c611913565b50600019019056fe41636365737369626c653a2043616c6c6572206973206e6f7420616e2061646da164736f6c6343000813000aa164736f6c6343000813000a",
  "devdoc": {
    "events": {
      "RoleAdminChanged(bytes32,bytes32,bytes32)": {
        "details": "Emitted when `newAdminRole` is set as ``role``'s admin role, replacing `previousAdminRole` `DEFAULT_ADMIN_ROLE` is the starting admin for all roles, despite {RoleAdminChanged} not being emitted signaling this. _Available since v3.1._"
      },
      "RoleGranted(bytes32,address,address)": {
        "details": "Emitted when `account` is granted `role`. `sender` is the account that originated the contract call, an admin role bearer except when using {AccessControl-_setupRole}."
      },
      "RoleRevoked(bytes32,address,address)": {
        "details": "Emitted when `account` is revoked `role`. `sender` is the account that originated the contract call:   - if using `revokeRole`, it is the admin role bearer   - if using `renounceRole`, it is the role bearer (i.e. `account`)"
      }
    },
    "kind": "dev",
    "methods": {
      "addAdmin(address)": {
        "details": "add admin",
        "params": {
          "account": "address to add"
        }
      },
      "getRoleAdmin(bytes32)": {
        "details": "Returns the admin role that controls `role`. See {grantRole} and {revokeRole}. To change a role's admin, use {_setRoleAdmin}."
      },
      "grantRole(bytes32,address)": {
        "details": "Grants `role` to `account`. If `account` had not been already granted `role`, emits a {RoleGranted} event. Requirements: - the caller must have ``role``'s admin role. May emit a {RoleGranted} event."
      },
      "hasRole(bytes32,address)": {
        "details": "Returns `true` if `account` has been granted `role`."
      },
      "isAdmin(address)": {
        "details": "whether admin",
        "params": {
          "account": "address to check"
        }
      },
      "removeAdmin(address)": {
        "details": "remove admin",
        "params": {
          "account": "address to remove"
        }
      },
      "renounceRole(bytes32,address)": {
        "details": "Revokes `role` from the calling account. Roles are often managed via {grantRole} and {revokeRole}: this function's purpose is to provide a mechanism for accounts to lose their privileges if they are compromised (such as when a trusted device is misplaced). If the calling account had been revoked `role`, emits a {RoleRevoked} event. Requirements: - the caller must be `account`. May emit a {RoleRevoked} event."
      },
      "revokeRole(bytes32,address)": {
        "details": "Revokes `role` from `account`. If `account` had been granted `role`, emits a {RoleRevoked} event. Requirements: - the caller must have ``role``'s admin role. May emit a {RoleRevoked} event."
      },
      "transferAdmin(address)": {
        "details": "transfer admin",
        "params": {
          "newAdmin": "new admin address"
        }
      }
    },
    "version": 1
  },
  "userdoc": {
    "kind": "user",
    "methods": {},
    "version": 1
  },
  "storageLayout": {
    "storage": [
      {
        "astId": 11867,
        "contract": "contracts/dao/factory/CandidateFactory.sol:CandidateFactory",
        "label": "pauseProxy",
        "offset": 0,
        "slot": "0",
        "type": "t_bool"
      },
      {
        "astId": 11871,
        "contract": "contracts/dao/factory/CandidateFactory.sol:CandidateFactory",
        "label": "proxyImplementation",
        "offset": 0,
        "slot": "1",
        "type": "t_mapping(t_uint256,t_address)"
      },
      {
        "astId": 11875,
        "contract": "contracts/dao/factory/CandidateFactory.sol:CandidateFactory",
        "label": "aliveImplementation",
        "offset": 0,
        "slot": "2",
        "type": "t_mapping(t_address,t_bool)"
      },
      {
        "astId": 11879,
        "contract": "contracts/dao/factory/CandidateFactory.sol:CandidateFactory",
        "label": "selectorImplementation",
        "offset": 0,
        "slot": "3",
        "type": "t_mapping(t_bytes4,t_address)"
      },
      {
        "astId": 1801,
        "contract": "contracts/dao/factory/CandidateFactory.sol:CandidateFactory",
        "label": "_supportedInterfaces",
        "offset": 0,
        "slot": "4",
        "type": "t_mapping(t_bytes4,t_bool)"
      },
      {
        "astId": 24,
        "contract": "contracts/dao/factory/CandidateFactory.sol:CandidateFactory",
        "label": "_roles",
        "offset": 0,
        "slot": "5",
        "type": "t_mapping(t_bytes32,t_struct(RoleData)19_storage)"
      },
      {
        "astId": 8449,
        "contract": "contracts/dao/factory/CandidateFactory.sol:CandidateFactory",
        "label": "depositManager",
        "offset": 0,
        "slot": "6",
        "type": "t_address"
      },
      {
        "astId": 8451,
        "contract": "contracts/dao/factory/CandidateFactory.sol:CandidateFactory",
        "label": "daoCommittee",
        "offset": 0,
        "slot": "7",
        "type": "t_address"
      },
      {
        "astId": 8453,
        "contract": "contracts/dao/factory/CandidateFactory.sol:CandidateFactory",
        "label": "candidateImp",
        "offset": 0,
        "slot": "8",
        "type": "t_address"
      },
      {
        "astId": 8455,
        "contract": "contracts/dao/factory/CandidateFactory.sol:CandidateFactory",
        "label": "ton",
        "offset": 0,
        "slot": "9",
        "type": "t_address"
      },
      {
        "astId": 8457,
        "contract": "contracts/dao/factory/CandidateFactory.sol:CandidateFactory",
        "label": "wton",
        "offset": 0,
        "slot": "10",
        "type": "t_address"
      }
    ],
    "types": {
      "t_address": {
        "encoding": "inplace",
        "label": "address",
        "numberOfBytes": "20"
      },
      "t_bool": {
        "encoding": "inplace",
        "label": "bool",
        "numberOfBytes": "1"
      },
      "t_bytes32": {
        "encoding": "inplace",
        "label": "bytes32",
        "numberOfBytes": "32"
      },
      "t_bytes4": {
        "encoding": "inplace",
        "label": "bytes4",
        "numberOfBytes": "4"
      },
      "t_mapping(t_address,t_bool)": {
        "encoding": "mapping",
        "key": "t_address",
        "label": "mapping(address => bool)",
        "numberOfBytes": "32",
        "value": "t_bool"
      },
      "t_mapping(t_bytes32,t_struct(RoleData)19_storage)": {
        "encoding": "mapping",
        "key": "t_bytes32",
        "label": "mapping(bytes32 => struct AccessControl.RoleData)",
        "numberOfBytes": "32",
        "value": "t_struct(RoleData)19_storage"
      },
      "t_mapping(t_bytes4,t_address)": {
        "encoding": "mapping",
        "key": "t_bytes4",
        "label": "mapping(bytes4 => address)",
        "numberOfBytes": "32",
        "value": "t_address"
      },
      "t_mapping(t_bytes4,t_bool)": {
        "encoding": "mapping",
        "key": "t_bytes4",
        "label": "mapping(bytes4 => bool)",
        "numberOfBytes": "32",
        "value": "t_bool"
      },
      "t_mapping(t_uint256,t_address)": {
        "encoding": "mapping",
        "key": "t_uint256",
        "label": "mapping(uint256 => address)",
        "numberOfBytes": "32",
        "value": "t_address"
      },
      "t_struct(RoleData)19_storage": {
        "encoding": "inplace",
        "label": "struct AccessControl.RoleData",
        "members": [
          {
            "astId": 16,
            "contract": "contracts/dao/factory/CandidateFactory.sol:CandidateFactory",
            "label": "members",
            "offset": 0,
            "slot": "0",
            "type": "t_mapping(t_address,t_bool)"
          },
          {
            "astId": 18,
            "contract": "contracts/dao/factory/CandidateFactory.sol:CandidateFactory",
            "label": "adminRole",
            "offset": 0,
            "slot": "1",
            "type": "t_bytes32"
          }
        ],
        "numberOfBytes": "64"
      },
      "t_uint256": {
        "encoding": "inplace",
        "label": "uint256",
        "numberOfBytes": "32"
      }
    }
  }
}