{
  "address": "0x68d2Ecd85bDEbfFd075Fb6D87fFD829AD025DD5C",
  "abi": [
    {
      "anonymous": false,
      "inputs": [
        {
          "indexed": true,
          "internalType": "address",
          "name": "layer2",
          "type": "address"
        },
        {
          "indexed": false,
          "internalType": "address",
          "name": "depositor",
          "type": "address"
        },
        {
          "indexed": false,
          "internalType": "uint256",
          "name": "amount",
          "type": "uint256"
        }
      ],
      "name": "Deposited",
      "type": "event"
    },
    {
      "anonymous": false,
      "inputs": [
        {
          "indexed": true,
          "internalType": "bytes32",
          "name": "role",
          "type": "bytes32"
        },
        {
          "indexed": true,
          "internalType": "bytes32",
          "name": "previousAdminRole",
          "type": "bytes32"
        },
        {
          "indexed": true,
          "internalType": "bytes32",
          "name": "newAdminRole",
          "type": "bytes32"
        }
      ],
      "name": "RoleAdminChanged",
      "type": "event"
    },
    {
      "anonymous": false,
      "inputs": [
        {
          "indexed": true,
          "internalType": "bytes32",
          "name": "role",
          "type": "bytes32"
        },
        {
          "indexed": true,
          "internalType": "address",
          "name": "account",
          "type": "address"
        },
        {
          "indexed": true,
          "internalType": "address",
          "name": "sender",
          "type": "address"
        }
      ],
      "name": "RoleGranted",
      "type": "event"
    },
    {
      "anonymous": false,
      "inputs": [
        {
          "indexed": true,
          "internalType": "bytes32",
          "name": "role",
          "type": "bytes32"
        },
        {
          "indexed": true,
          "internalType": "address",
          "name": "account",
          "type": "address"
        },
        {
          "indexed": true,
          "internalType": "address",
          "name": "sender",
          "type": "address"
        }
      ],
      "name": "RoleRevoked",
      "type": "event"
    },
    {
      "anonymous": false,
      "inputs": [
        {
          "indexed": true,
          "internalType": "address",
          "name": "layer2",
          "type": "address"
        },
        {
          "indexed": false,
          "internalType": "address",
          "name": "depositor",
          "type": "address"
        },
        {
          "indexed": false,
          "internalType": "uint256",
          "name": "amount",
          "type": "uint256"
        }
      ],
      "name": "WithdrawalProcessed",
      "type": "event"
    },
    {
      "anonymous": false,
      "inputs": [
        {
          "indexed": true,
          "internalType": "address",
          "name": "layer2",
          "type": "address"
        },
        {
          "indexed": false,
          "internalType": "address",
          "name": "depositor",
          "type": "address"
        },
        {
          "indexed": false,
          "internalType": "uint256",
          "name": "amount",
          "type": "uint256"
        }
      ],
      "name": "WithdrawalRequested",
      "type": "event"
    },
    {
      "inputs": [],
      "name": "DEFAULT_ADMIN_ROLE",
      "outputs": [
        {
          "internalType": "bytes32",
          "name": "",
          "type": "bytes32"
        }
      ],
      "stateMutability": "view",
      "type": "function"
    },
    {
      "inputs": [],
      "name": "MINTER_ROLE",
      "outputs": [
        {
          "internalType": "bytes32",
          "name": "",
          "type": "bytes32"
        }
      ],
      "stateMutability": "view",
      "type": "function"
    },
    {
      "inputs": [
        {
          "internalType": "address",
          "name": "layer2",
          "type": "address"
        },
        {
          "internalType": "address",
          "name": "account",
          "type": "address"
        }
      ],
      "name": "accStaked",
      "outputs": [
        {
          "internalType": "uint256",
          "name": "wtonAmount",
          "type": "uint256"
        }
      ],
      "stateMutability": "view",
      "type": "function"
    },
    {
      "inputs": [
        {
          "internalType": "address",
          "name": "account",
          "type": "address"
        }
      ],
      "name": "accStakedAccount",
      "outputs": [
        {
          "internalType": "uint256",
          "name": "wtonAmount",
          "type": "uint256"
        }
      ],
      "stateMutability": "view",
      "type": "function"
    },
    {
      "inputs": [
        {
          "internalType": "address",
          "name": "layer2",
          "type": "address"
        }
      ],
      "name": "accStakedLayer2",
      "outputs": [
        {
          "internalType": "uint256",
          "name": "wtonAmount",
          "type": "uint256"
        }
      ],
      "stateMutability": "view",
      "type": "function"
    },
    {
      "inputs": [
        {
          "internalType": "address",
          "name": "layer2",
          "type": "address"
        },
        {
          "internalType": "address",
          "name": "account",
          "type": "address"
        }
      ],
      "name": "accUnstaked",
      "outputs": [
        {
          "internalType": "uint256",
          "name": "wtonAmount",
          "type": "uint256"
        }
      ],
      "stateMutability": "view",
      "type": "function"
    },
    {
      "inputs": [
        {
          "internalType": "address",
          "name": "account",
          "type": "address"
        }
      ],
      "name": "accUnstakedAccount",
      "outputs": [
        {
          "internalType": "uint256",
          "name": "wtonAmount",
          "type": "uint256"
        }
      ],
      "stateMutability": "view",
      "type": "function"
    },
    {
      "inputs": [
        {
          "internalType": "address",
          "name": "layer2",
          "type": "address"
        }
      ],
      "name": "accUnstakedLayer2",
      "outputs": [
        {
          "internalType": "uint256",
          "name": "wtonAmount",
          "type": "uint256"
        }
      ],
      "stateMutability": "view",
      "type": "function"
    },
    {
      "inputs": [],
      "name": "acceptDelayPeriod",
      "outputs": [
        {
          "internalType": "uint256",
          "name": "start",
          "type": "uint256"
        },
        {
          "internalType": "uint256",
          "name": "end",
          "type": "uint256"
        },
        {
          "internalType": "uint256",
          "name": "minimumDelayBlocks",
          "type": "uint256"
        }
      ],
      "stateMutability": "view",
      "type": "function"
    },
    {
      "inputs": [
        {
          "internalType": "address",
          "name": "account",
          "type": "address"
        }
      ],
      "name": "addAdmin",
      "outputs": [],
      "stateMutability": "nonpayable",
      "type": "function"
    },
    {
      "inputs": [
        {
          "internalType": "address",
          "name": "",
          "type": "address"
        }
      ],
      "name": "aliveImplementation",
      "outputs": [
        {
          "internalType": "bool",
          "name": "",
          "type": "bool"
        }
      ],
      "stateMutability": "view",
      "type": "function"
    },
    {
      "inputs": [
        {
          "internalType": "address",
          "name": "layer2",
          "type": "address"
        },
        {
          "internalType": "uint256",
          "name": "amount",
          "type": "uint256"
        }
      ],
      "name": "deposit",
      "outputs": [
        {
          "internalType": "bool",
          "name": "",
          "type": "bool"
        }
      ],
      "stateMutability": "nonpayable",
      "type": "function"
    },
    {
      "inputs": [
        {
          "internalType": "address",
          "name": "layer2",
          "type": "address"
        },
        {
          "internalType": "address[]",
          "name": "accounts",
          "type": "address[]"
        },
        {
          "internalType": "uint256[]",
          "name": "amounts",
          "type": "uint256[]"
        }
      ],
      "name": "deposit",
      "outputs": [
        {
          "internalType": "bool",
          "name": "",
          "type": "bool"
        }
      ],
      "stateMutability": "nonpayable",
      "type": "function"
    },
    {
      "inputs": [
        {
          "internalType": "address",
          "name": "layer2",
          "type": "address"
        },
        {
          "internalType": "address",
          "name": "account",
          "type": "address"
        },
        {
          "internalType": "uint256",
          "name": "amount",
          "type": "uint256"
        }
      ],
      "name": "deposit",
      "outputs": [
        {
          "internalType": "bool",
          "name": "",
          "type": "bool"
        }
      ],
      "stateMutability": "nonpayable",
      "type": "function"
    },
    {
      "inputs": [
        {
          "internalType": "address",
          "name": "layer2",
          "type": "address"
        }
      ],
      "name": "getDelayBlocks",
      "outputs": [
        {
          "internalType": "uint256",
          "name": "",
          "type": "uint256"
        }
      ],
      "stateMutability": "view",
      "type": "function"
    },
    {
      "inputs": [
        {
          "internalType": "bytes32",
          "name": "role",
          "type": "bytes32"
        }
      ],
      "name": "getRoleAdmin",
      "outputs": [
        {
          "internalType": "bytes32",
          "name": "",
          "type": "bytes32"
        }
      ],
      "stateMutability": "view",
      "type": "function"
    },
    {
      "inputs": [],
      "name": "globalWithdrawalDelay",
      "outputs": [
        {
          "internalType": "uint256",
          "name": "",
          "type": "uint256"
        }
      ],
      "stateMutability": "view",
      "type": "function"
    },
    {
      "inputs": [
        {
          "internalType": "bytes32",
          "name": "role",
          "type": "bytes32"
        },
        {
          "internalType": "address",
          "name": "account",
          "type": "address"
        }
      ],
      "name": "grantRole",
      "outputs": [],
      "stateMutability": "nonpayable",
      "type": "function"
    },
    {
      "inputs": [
        {
          "internalType": "bytes32",
          "name": "role",
          "type": "bytes32"
        },
        {
          "internalType": "address",
          "name": "account",
          "type": "address"
        }
      ],
      "name": "hasRole",
      "outputs": [
        {
          "internalType": "bool",
          "name": "",
          "type": "bool"
        }
      ],
      "stateMutability": "view",
      "type": "function"
    },
    {
      "inputs": [
        {
          "internalType": "address",
          "name": "wton_",
          "type": "address"
        },
        {
          "internalType": "address",
          "name": "registry_",
          "type": "address"
        },
        {
          "internalType": "address",
          "name": "seigManager_",
          "type": "address"
        },
        {
          "internalType": "uint256",
          "name": "globalWithdrawalDelay_",
          "type": "uint256"
        }
      ],
      "name": "initialize",
      "outputs": [],
      "stateMutability": "nonpayable",
      "type": "function"
    },
    {
      "inputs": [
        {
          "internalType": "address",
          "name": "account",
          "type": "address"
        }
      ],
      "name": "isAdmin",
      "outputs": [
        {
          "internalType": "bool",
          "name": "",
          "type": "bool"
        }
      ],
      "stateMutability": "view",
      "type": "function"
    },
    {
      "inputs": [],
      "name": "isOwner",
      "outputs": [
        {
          "internalType": "bool",
          "name": "",
          "type": "bool"
        }
      ],
      "stateMutability": "view",
      "type": "function"
    },
    {
      "inputs": [
        {
          "internalType": "address",
          "name": "layer2",
          "type": "address"
        },
        {
          "internalType": "address",
          "name": "account",
          "type": "address"
        }
      ],
      "name": "numPendingRequests",
      "outputs": [
        {
          "internalType": "uint256",
          "name": "",
          "type": "uint256"
        }
      ],
      "stateMutability": "view",
      "type": "function"
    },
    {
      "inputs": [
        {
          "internalType": "address",
          "name": "layer2",
          "type": "address"
        },
        {
          "internalType": "address",
          "name": "account",
          "type": "address"
        }
      ],
      "name": "numRequests",
      "outputs": [
        {
          "internalType": "uint256",
          "name": "",
          "type": "uint256"
        }
      ],
      "stateMutability": "view",
      "type": "function"
    },
    {
      "inputs": [
        {
          "internalType": "address",
          "name": "owner",
          "type": "address"
        },
        {
          "internalType": "address",
          "name": "spender",
          "type": "address"
        },
        {
          "internalType": "uint256",
          "name": "amount",
          "type": "uint256"
        },
        {
          "internalType": "bytes",
          "name": "data",
          "type": "bytes"
        }
      ],
      "name": "onApprove",
      "outputs": [
        {
          "internalType": "bool",
          "name": "",
          "type": "bool"
        }
      ],
      "stateMutability": "nonpayable",
      "type": "function"
    },
    {
      "inputs": [],
      "name": "pauseProxy",
      "outputs": [
        {
          "internalType": "bool",
          "name": "",
          "type": "bool"
        }
      ],
      "stateMutability": "view",
      "type": "function"
    },
    {
      "inputs": [
        {
          "internalType": "address",
          "name": "layer2",
          "type": "address"
        },
        {
          "internalType": "address",
          "name": "account",
          "type": "address"
        }
      ],
      "name": "pendingUnstaked",
      "outputs": [
        {
          "internalType": "uint256",
          "name": "wtonAmount",
          "type": "uint256"
        }
      ],
      "stateMutability": "view",
      "type": "function"
    },
    {
      "inputs": [
        {
          "internalType": "address",
          "name": "account",
          "type": "address"
        }
      ],
      "name": "pendingUnstakedAccount",
      "outputs": [
        {
          "internalType": "uint256",
          "name": "wtonAmount",
          "type": "uint256"
        }
      ],
      "stateMutability": "view",
      "type": "function"
    },
    {
      "inputs": [
        {
          "internalType": "address",
          "name": "layer2",
          "type": "address"
        }
      ],
      "name": "pendingUnstakedLayer2",
      "outputs": [
        {
          "internalType": "uint256",
          "name": "wtonAmount",
          "type": "uint256"
        }
      ],
      "stateMutability": "view",
      "type": "function"
    },
    {
      "inputs": [
        {
          "internalType": "address",
          "name": "layer2",
          "type": "address"
        },
        {
          "internalType": "bool",
          "name": "receiveTON",
          "type": "bool"
        }
      ],
      "name": "processRequest",
      "outputs": [
        {
          "internalType": "bool",
          "name": "",
          "type": "bool"
        }
      ],
      "stateMutability": "nonpayable",
      "type": "function"
    },
    {
      "inputs": [
        {
          "internalType": "address",
          "name": "layer2",
          "type": "address"
        },
        {
          "internalType": "uint256",
          "name": "n",
          "type": "uint256"
        },
        {
          "internalType": "bool",
          "name": "receiveTON",
          "type": "bool"
        }
      ],
      "name": "processRequests",
      "outputs": [
        {
          "internalType": "bool",
          "name": "",
          "type": "bool"
        }
      ],
      "stateMutability": "nonpayable",
      "type": "function"
    },
    {
      "inputs": [
        {
          "internalType": "uint256",
          "name": "",
          "type": "uint256"
        }
      ],
      "name": "proxyImplementation",
      "outputs": [
        {
          "internalType": "address",
          "name": "",
          "type": "address"
        }
      ],
      "stateMutability": "view",
      "type": "function"
    },
    {
      "inputs": [
        {
          "internalType": "address",
          "name": "layer2",
          "type": "address"
        }
      ],
      "name": "redeposit",
      "outputs": [
        {
          "internalType": "bool",
          "name": "",
          "type": "bool"
        }
      ],
      "stateMutability": "nonpayable",
      "type": "function"
    },
    {
      "inputs": [
        {
          "internalType": "address",
          "name": "layer2",
          "type": "address"
        },
        {
          "internalType": "uint256",
          "name": "n",
          "type": "uint256"
        }
      ],
      "name": "redepositMulti",
      "outputs": [
        {
          "internalType": "bool",
          "name": "",
          "type": "bool"
        }
      ],
      "stateMutability": "nonpayable",
      "type": "function"
    },
    {
      "inputs": [],
      "name": "registry",
      "outputs": [
        {
          "internalType": "address",
          "name": "",
          "type": "address"
        }
      ],
      "stateMutability": "view",
      "type": "function"
    },
    {
      "inputs": [
        {
          "internalType": "address",
          "name": "account",
          "type": "address"
        }
      ],
      "name": "removeAdmin",
      "outputs": [],
      "stateMutability": "nonpayable",
      "type": "function"
    },
    {
      "inputs": [],
      "name": "renounceOwnership",
      "outputs": [],
      "stateMutability": "nonpayable",
      "type": "function"
    },
    {
      "inputs": [
        {
          "internalType": "bytes32",
          "name": "role",
          "type": "bytes32"
        },
        {
          "internalType": "address",
          "name": "account",
          "type": "address"
        }
      ],
      "name": "renounceRole",
      "outputs": [],
      "stateMutability": "nonpayable",
      "type": "function"
    },
    {
      "inputs": [
        {
          "internalType": "address",
          "name": "layer2",
          "type": "address"
        },
        {
          "internalType": "uint256",
          "name": "amount",
          "type": "uint256"
        }
      ],
      "name": "requestWithdrawal",
      "outputs": [
        {
          "internalType": "bool",
          "name": "",
          "type": "bool"
        }
      ],
      "stateMutability": "nonpayable",
      "type": "function"
    },
    {
      "inputs": [
        {
          "internalType": "address",
          "name": "layer2",
          "type": "address"
        }
      ],
      "name": "requestWithdrawalAll",
      "outputs": [
        {
          "internalType": "bool",
          "name": "",
          "type": "bool"
        }
      ],
      "stateMutability": "nonpayable",
      "type": "function"
    },
    {
      "inputs": [
        {
          "internalType": "address",
          "name": "layer2",
          "type": "address"
        },
        {
          "internalType": "uint256",
          "name": "amount",
          "type": "uint256"
        },
        {
          "internalType": "uint256",
          "name": "delayBlocks",
          "type": "uint256"
        }
      ],
      "name": "requestWithdrawalWithDeplay",
      "outputs": [
        {
          "internalType": "bool",
          "name": "",
          "type": "bool"
        }
      ],
      "stateMutability": "nonpayable",
      "type": "function"
    },
    {
      "inputs": [
        {
          "internalType": "bytes32",
          "name": "role",
          "type": "bytes32"
        },
        {
          "internalType": "address",
          "name": "account",
          "type": "address"
        }
      ],
      "name": "revokeRole",
      "outputs": [],
      "stateMutability": "nonpayable",
      "type": "function"
    },
    {
      "inputs": [],
      "name": "seigManager",
      "outputs": [
        {
          "internalType": "address",
          "name": "",
          "type": "address"
        }
      ],
      "stateMutability": "view",
      "type": "function"
    },
    {
      "inputs": [
        {
          "internalType": "bytes4",
          "name": "",
          "type": "bytes4"
        }
      ],
      "name": "selectorImplementation",
      "outputs": [
        {
          "internalType": "address",
          "name": "",
          "type": "address"
        }
      ],
      "stateMutability": "view",
      "type": "function"
    },
    {
      "inputs": [
        {
          "internalType": "uint256",
          "name": "start",
          "type": "uint256"
        },
        {
          "internalType": "uint256",
          "name": "end",
          "type": "uint256"
        },
        {
          "internalType": "uint256",
          "name": "minDelay",
          "type": "uint256"
        }
      ],
      "name": "setAcceptDelayPeriod",
      "outputs": [],
      "stateMutability": "nonpayable",
      "type": "function"
    },
    {
      "inputs": [
        {
          "internalType": "uint256",
          "name": "globalWithdrawalDelay_",
          "type": "uint256"
        }
      ],
      "name": "setGlobalWithdrawalDelay",
      "outputs": [],
      "stateMutability": "nonpayable",
      "type": "function"
    },
    {
      "inputs": [
        {
          "internalType": "address",
          "name": "seigManager_",
          "type": "address"
        }
      ],
      "name": "setSeigManager",
      "outputs": [],
      "stateMutability": "nonpayable",
      "type": "function"
    },
    {
      "inputs": [
        {
          "internalType": "address",
          "name": "l2chain",
          "type": "address"
        },
        {
          "internalType": "uint256",
          "name": "withdrawalDelay_",
          "type": "uint256"
        }
      ],
      "name": "setWithdrawalDelay",
      "outputs": [],
      "stateMutability": "nonpayable",
      "type": "function"
    },
    {
      "inputs": [
        {
          "internalType": "address",
          "name": "layer2",
          "type": "address"
        },
        {
          "internalType": "address",
          "name": "recipient",
          "type": "address"
        },
        {
          "internalType": "uint256",
          "name": "amount",
          "type": "uint256"
        }
      ],
      "name": "slash",
      "outputs": [
        {
          "internalType": "bool",
          "name": "",
          "type": "bool"
        }
      ],
      "stateMutability": "nonpayable",
      "type": "function"
    },
    {
      "inputs": [
        {
          "internalType": "bytes4",
          "name": "interfaceId",
          "type": "bytes4"
        }
      ],
      "name": "supportsInterface",
      "outputs": [
        {
          "internalType": "bool",
          "name": "",
          "type": "bool"
        }
      ],
      "stateMutability": "view",
      "type": "function"
    },
    {
      "inputs": [
        {
          "internalType": "address",
          "name": "newAdmin",
          "type": "address"
        }
      ],
      "name": "transferAdmin",
      "outputs": [],
      "stateMutability": "nonpayable",
      "type": "function"
    },
    {
      "inputs": [
        {
          "internalType": "address",
          "name": "newAdmin",
          "type": "address"
        }
      ],
      "name": "transferOwnership",
      "outputs": [],
      "stateMutability": "nonpayable",
      "type": "function"
    },
    {
      "inputs": [
        {
          "internalType": "address",
          "name": "",
          "type": "address"
        }
      ],
      "name": "withdrawalDelay",
      "outputs": [
        {
          "internalType": "uint256",
          "name": "",
          "type": "uint256"
        }
      ],
      "stateMutability": "view",
      "type": "function"
    },
    {
      "inputs": [
        {
          "internalType": "address",
          "name": "layer2",
          "type": "address"
        },
        {
          "internalType": "address",
          "name": "account",
          "type": "address"
        },
        {
          "internalType": "uint256",
          "name": "index",
          "type": "uint256"
        }
      ],
      "name": "withdrawalRequest",
      "outputs": [
        {
          "internalType": "uint128",
          "name": "withdrawableBlockNumber",
          "type": "uint128"
        },
        {
          "internalType": "uint128",
          "name": "amount",
          "type": "uint128"
        },
        {
          "internalType": "bool",
          "name": "processed",
          "type": "bool"
        }
      ],
      "stateMutability": "view",
      "type": "function"
    },
    {
      "inputs": [
        {
          "internalType": "address",
          "name": "layer2",
          "type": "address"
        },
        {
          "internalType": "address",
          "name": "account",
          "type": "address"
        }
      ],
      "name": "withdrawalRequestIndex",
      "outputs": [
        {
          "internalType": "uint256",
          "name": "index",
          "type": "uint256"
        }
      ],
      "stateMutability": "view",
      "type": "function"
    },
    {
      "inputs": [],
      "name": "wton",
      "outputs": [
        {
          "internalType": "address",
          "name": "",
          "type": "address"
        }
      ],
      "stateMutability": "view",
      "type": "function"
    }
  ],
  "transactionHash": "0x3fbe138d4661b2417f735e1fb05524606df87f049dd8ea5e67fde88faac2fbc3",
  "args": [],
  "numDeployments": 1,
  "solcInputHash": "87712d450cfd6ca926c6544b6712808e",
  "bytecode": "0x608060405234801561001057600080fd5b5061347a806100206000396000f3fe608060405234801561001057600080fd5b50600436106103775760003560e01c80637b103999116101d3578063b911135f11610104578063d547741f116100a2578063e74f82391161007c578063e74f82391461097e578063f2fde38b14610991578063f762eb57146109a4578063fb0713b1146109dd57600080fd5b8063d547741f14610945578063da95ebf714610958578063dc5a709f1461096b57600080fd5b8063cf756fdf116100de578063cf756fdf146108cf578063d1107671146108e2578063d285f78c146108f5578063d53913931461091e57600080fd5b8063b911135f1461085a578063c20a44c614610883578063c647f26e1461089657600080fd5b80639d91b87b11610171578063a35439891161014b578063a3543989146107f8578063a79da34114610821578063b5f19db214610834578063b8bee6281461084757600080fd5b80639d91b87b1461078e578063a0b2a913146107c7578063a217fddf146107f057600080fd5b80638d62d949116101ad5780638d62d949146106d25780638f32d59b146106e35780638fbef2d01461071a57806391d148541461075557600080fd5b80637b103999146106855780638340f549146106965780638af4a948146106a957600080fd5b806347e7ef24116102ad5780636b2160b71161024b57806370480275116102255780637048027514610644578063715018a61461065757806375829def1461065f5780637657f20a1461067257600080fd5b80636b2160b7146106175780636ec3d5ae1461062a5780636fb7f5581461063357600080fd5b8063550d01a311610287578063550d01a3146105c1578063562fa0df146105e45780635c0df46b146105f757806363a8fd891461060a57600080fd5b806347e7ef241461054d5780634ce970361461056057806350d2a2761461058057600080fd5b80632638fdf51161031a57806336568abe116102f457806336568abe146104e75780634273ca16146104fa57806343c657661461050d578063445e83b91461053a57600080fd5b80632638fdf5146104625780632d2fab941461049b5780632f2ff15d146104d457600080fd5b80631785f53c116103565780631785f53c14610404578063239ecad614610419578063248a9ca31461042c57806324d7806c1461044f57600080fd5b806255f5c11461037c578063010ca390146103b857806301ffc9a7146103e1575b600080fd5b6103a561038a366004612dc7565b6001600160a01b03166000908152600b602052604090205490565b6040519081526020015b60405180910390f35b6103a56103c6366004612dc7565b6001600160a01b03166000908152600a602052604090205490565b6103f46103ef366004612de4565b6109f0565b60405190151581526020016103af565b610417610412366004612dc7565b610a01565b005b610417610427366004612e0e565b610a62565b6103a561043a366004612e3a565b60009081526005602052604090206001015490565b6103f461045d366004612dc7565b610ad6565b6103a5610470366004612e53565b6001600160a01b039182166000908152600c6020908152604080832093909416825291909152205490565b6103a56104a9366004612e53565b6001600160a01b03918216600090815260096020908152604080832093909416825291909152205490565b6104176104e2366004612e8c565b610b16565b6104176104f5366004612e8c565b610b40565b6103f4610508366004612eb1565b610bcc565b60165460175460185461051f92919083565b604080519384526020840192909252908201526060016103af565b6103f4610548366004612f50565b610cb4565b6103f461055b366004612f50565b610cf6565b6103a561056e366004612dc7565b60156020526000908152604090205481565b6105a961058e366004612de4565b6003602052600090815260409020546001600160a01b031681565b6040516001600160a01b0390911681526020016103af565b6103f46105cf366004612dc7565b60026020526000908152604090205460ff1681565b6103f46105f2366004613052565b610d15565b6103a5610605366004612e53565b610eba565b6000546103f49060ff1681565b6103f4610625366004612dc7565b610f1c565b6103a560145481565b6008546001600160a01b03166105a9565b610417610652366004612dc7565b611029565b610417611082565b61041761066d366004612dc7565b6110dd565b610417610680366004612dc7565b6111ef565b6007546001600160a01b03166105a9565b6103f46106a4366004613128565b61126c565b6103a56106b7366004612dc7565b6001600160a01b031660009081526010602052604090205490565b6006546001600160a01b03166105a9565b3360009081527f05b8ccbb9d4d8fb16ea74ce3c29a41f1b461fbdaff4714a0d9a8eb05499746bc602052604090205460ff166103f4565b61072d610728366004613128565b61127a565b604080516001600160801b0394851681529390921660208401521515908201526060016103af565b6103f4610763366004612e8c565b60009182526005602090815260408084206001600160a01b0393909316845291905290205460ff1690565b6103a561079c366004612e53565b6001600160a01b039182166000908152600f6020908152604080832093909416825291909152205490565b6103a56107d5366004612dc7565b6001600160a01b03166000908152600e602052604090205490565b6103a5600081565b6103a5610806366004612dc7565b6001600160a01b031660009081526011602052604090205490565b61041761082f366004612e3a565b611387565b6103a5610842366004612dc7565b6113da565b6103f4610855366004612dc7565b611421565b6105a9610868366004612e3a565b6001602052600090815260409020546001600160a01b031681565b6103f4610891366004613177565b611451565b6103a56108a4366004612e53565b6001600160a01b03918216600090815260136020908152604080832093909416825291909152205490565b6104176108dd3660046131a5565b61145d565b6103f46108f03660046131f6565b61151b565b6103a5610903366004612dc7565b6001600160a01b03166000908152600d602052604090205490565b6103a57ff0887ba65ee2024ea881d91b74c2450ef19e1557f03bed3ea9f16b037cbe2dc981565b610417610953366004612e8c565b61162a565b6103f4610966366004612f50565b61164f565b610417610979366004612f50565b61165f565b6103f461098c366004613128565b61168e565b61041761099f366004612dc7565b6116a8565b6103a56109b2366004612e53565b6001600160a01b03918216600090815260126020908152604080832093909416825291909152205490565b6103f46109eb36600461322b565b6116ff565b60006109fb82611730565b92915050565b610a0a33610ad6565b610a545760405162461bcd60e51b8152602060048201526022602482015260008051602061344e83398151915260448201526134b760f11b60648201526084015b60405180910390fd5b610a5f600082610b40565b50565b610a6b33610ad6565b610ab05760405162461bcd60e51b8152602060048201526022602482015260008051602061344e83398151915260448201526134b760f11b6064820152608401610a4b565b604080516060810182528481526020810184905201819052601692909255601755601855565b6001600160a01b03811660009081527f05b8ccbb9d4d8fb16ea74ce3c29a41f1b461fbdaff4714a0d9a8eb05499746bc602052604081205460ff166109fb565b600082815260056020526040902060010154610b3181611755565b610b3b838361175f565b505050565b6001600160a01b0381163314610bbe5760405162461bcd60e51b815260206004820152602f60248201527f416363657373436f6e74726f6c3a2063616e206f6e6c792072656e6f756e636560448201527f20726f6c657320666f722073656c6600000000000000000000000000000000006064820152608401610a4b565b610bc88282611801565b5050565b6006546000906001600160a01b03163314610c4f5760405162461bcd60e51b815260206004820152603160248201527f4465706f7369744d616e616765723a206f6e6c79206163636570742057544f4e60448201527f20617070726f76652063616c6c6261636b0000000000000000000000000000006064820152608401610a4b565b6000610c9084848080601f01602080910402602001604051908101604052809392919081815260200183838082843760009201919091525061188492505050565b9050610c9e8188878a61189c565b610ca757600080fd5b5060019695505050505050565b6001600160a01b0382166000908152601360209081526040808320338452909152812054610ce3848285611ac7565b610cec57600080fd5b5060019392505050565b6000610d03833384612028565b610d0c57600080fd5b50600192915050565b60008251600003610d555760405162461bcd60e51b815260206004820152600a6024820152691b9bc81858d8dbdd5b9d60b21b6044820152606401610a4b565b8151835114610da65760405162461bcd60e51b815260206004820152600b60248201527f77726f6e67206c656e74680000000000000000000000000000000000000000006044820152606401610a4b565b60005b8351811015610ead5760006001600160a01b0316848281518110610dcf57610dcf61326d565b60200260200101516001600160a01b031614158015610e085750828181518110610dfb57610dfb61326d565b6020026020010151600014155b610e545760405162461bcd60e51b815260206004820152601b60248201527f7a65726f20616d6f756e74206f72207a65726f206164647265737300000000006044820152606401610a4b565b610e9285858381518110610e6a57610e6a61326d565b6020026020010151858481518110610e8457610e8461326d565b60200260200101513361189c565b610e9b57600080fd5b80610ea581613299565b915050610da9565b50600190505b9392505050565b6001600160a01b038083166000818152601260209081526040808320948616808452948252808320549383526013825280832094835293905291822054818303610f09576000925050506109fb565b610f1381836132b2565b95945050505050565b600754604051630c39b8b760e31b81526001600160a01b03808416600483015260009284929116906361cdc5b890602401602060405180830381865afa158015610f6a573d6000803e3d6000fd5b505050506040513d601f19601f82011682018060405250810190610f8e91906132c5565b610f9757600080fd5b6008546040516367265c3b60e11b81526001600160a01b038581166004830152336024830152600092169063ce4cb87690604401602060405180830381865afa158015610fe8573d6000803e3d6000fd5b505050506040513d601f19601f8201168201806040525081019061100c91906132e2565b9050611021848261101c876113da565b6120af565b949350505050565b61103233610ad6565b6110775760405162461bcd60e51b8152602060048201526022602482015260008051602061344e83398151915260448201526134b760f11b6064820152608401610a4b565b610a5f600082610b16565b61108b33610ad6565b6110d05760405162461bcd60e51b8152602060048201526022602482015260008051602061344e83398151915260448201526134b760f11b6064820152608401610a4b565b6110db600033610b40565b565b6110e633610ad6565b61112b5760405162461bcd60e51b8152602060048201526022602482015260008051602061344e83398151915260448201526134b760f11b6064820152608401610a4b565b6001600160a01b0381166111815760405162461bcd60e51b815260206004820152601860248201527f41636365737369626c653a207a65726f206164647265737300000000000000006044820152606401610a4b565b6001600160a01b03811633036111d95760405162461bcd60e51b815260206004820152601660248201527f41636365737369626c653a2073616d652061646d696e000000000000000000006044820152606401610a4b565b6111e4600082610b16565b610a5f600033610b40565b6111f833610ad6565b61123d5760405162461bcd60e51b8152602060048201526022602482015260008051602061344e83398151915260448201526134b760f11b6064820152608401610a4b565b6008805473ffffffffffffffffffffffffffffffffffffffff19166001600160a01b0392909216919091179055565b6000610ce38484843361189c565b6001600160a01b0380841660009081526012602090815260408083209386168352929052908120805482918291859081106112b7576112b761326d565b600091825260208083206002909202909101546001600160a01b03808a168452601283526040808520918a1685529252912080546001600160801b03909216945090859081106113095761130961326d565b60009182526020808320600292909202909101546001600160a01b038981168452601283526040808520918a168552925291208054600160801b9092046001600160801b0316935090859081106113625761136261326d565b600091825260209091206001600290920201015492969195505060ff90911692509050565b61139033610ad6565b6113d55760405162461bcd60e51b8152602060048201526022602482015260008051602061344e83398151915260448201526134b760f11b6064820152608401610a4b565b601455565b6001600160a01b03811660009081526015602052604081205460145411611419576001600160a01b0382166000908152601560205260409020546109fb565b505060145490565b6001600160a01b0381166000908152601360209081526040808320338452909152812054610d0383826001611ac7565b6000610eb383836123ac565b6006546001600160a01b0316156114b65760405162461bcd60e51b815260206004820152601360248201527f616c726561647920696e697469616c697a6564000000000000000000000000006044820152606401610a4b565b600680546001600160a01b0380871673ffffffffffffffffffffffffffffffffffffffff19928316179092556007805486841690831617905560088054928516929091169190911790556014819055611515632139e50b60e11b61279f565b50505050565b6040805160608101825260165480825260175460208301526018549282019290925260009115801590611552575060208101518151105b801561155f575080514310155b801561156e5750806020015143105b6115cb5760405162461bcd60e51b815260206004820152602860248201527f4e6f77206973206e6f742061636365707461626c6520666f722073657474696e60448201526733903232b630bc9760c11b6064820152608401610a4b565b806040015183101561161f5760405162461bcd60e51b815260206004820181905260248201527f64656c6179426c6f636b73206973206c657373207468616e206d696e696d756d6044820152606401610a4b565b610f138585856120af565b60008281526005602052604090206001015461164581611755565b610b3b8383611801565b6000610eb3838361101c866113da565b611669823361281e565b61167257600080fd5b6001600160a01b03909116600090815260156020526040902055565b6008546000906001600160a01b03163314610eb357600080fd5b6116b133610ad6565b6116f65760405162461bcd60e51b8152602060048201526022602482015260008051602061344e83398151915260448201526134b760f11b6064820152608401610a4b565b610a5f816110dd565b6000805b83811015610ead5761171585846123ac565b61171e57600080fd5b8061172881613299565b915050611703565b60006001600160e01b03198216637965db0b60e01b14806109fb57506109fb8261289e565b610a5f81336128da565b60008281526005602090815260408083206001600160a01b038516845290915290205460ff16610bc85760008281526005602090815260408083206001600160a01b03851684529091529020805460ff191660011790556117bd3390565b6001600160a01b0316816001600160a01b0316837f2f8788117e7eff1d82e926ec794901d17c78024a50270940304540a733656f0d60405160405180910390a45050565b60008281526005602090815260408083206001600160a01b038516845290915290205460ff1615610bc85760008281526005602090815260408083206001600160a01b0385168085529252808320805460ff1916905551339285917ff6391f5c32d9c69d2a47ea670b442974b53935d1edc7fd64eb21e047a839171b9190a45050565b6000815160201461189457600080fd5b506020015190565b600754604051630c39b8b760e31b81526001600160a01b03808716600483015260009287929116906361cdc5b890602401602060405180830381865afa1580156118ea573d6000803e3d6000fd5b505050506040513d601f19601f8201168201806040525081019061190e91906132c5565b61191757600080fd5b6001600160a01b038087166000908152600960209081526040808320938916835292905220546119489085906132fb565b6001600160a01b038088166000818152600960209081526040808320948b16835293815283822094909455908152600a9092529020546119899085906132fb565b6001600160a01b038088166000908152600a60209081526040808320949094559188168152600b90915220546119c09085906132fb565b6001600160a01b038087166000908152600b60205260409020919091556006546119ed911684308761294f565b604080516001600160a01b038781168252602082018790528816917f8752a472e571a816aea92eec8dae9baf628e840f4929fbcc2d155e6233ff68a7910160405180910390a2600854604051630412c6d560e41b81526001600160a01b0388811660048301528781166024830152604482018790529091169063412c6d50906064016020604051808303816000875af1158015611a8e573d6000803e3d6000fd5b505050506040513d601f19601f82011682018060405250810190611ab291906132c5565b611abb57600080fd5b50600195945050505050565b600754604051630c39b8b760e31b81526001600160a01b03808616600483015260009286929116906361cdc5b890602401602060405180830381865afa158015611b15573d6000803e3d6000fd5b505050506040513d601f19601f82011682018060405250810190611b3991906132c5565b611b4257600080fd5b6001600160a01b0385166000908152601260209081526040808320338452909152812054611bb25760405162461bcd60e51b815260206004820152601a60248201527f4465706f7369744d616e616765723a206e6f20726571756573740000000000006044820152606401610a4b565b6001600160a01b03861660009081526012602090815260408083203384529091529020548490611be39087906132b2565b1015611c575760405162461bcd60e51b815260206004820152603160248201527f4465706f7369744d616e616765723a206e2065786365656473206e756d206f6660448201527f2070656e64696e672072657175657374730000000000000000000000000000006064820152608401610a4b565b6000611c6385876132fb565b90505b80861015611dd5576001600160a01b03871660009081526012602090815260408083203384529091528120805488908110611ca357611ca361326d565b6000918252602090912060029091020180546001820154919250600160801b90046001600160801b03169060ff1615611d445760405162461bcd60e51b815260206004820152603160248201527f4465706f7369744d616e616765723a2070656e64696e6720726571756573742060448201527f616c72656164792070726f6365737365640000000000000000000000000000006064820152608401610a4b565b60008111611da55760405162461bcd60e51b815260206004820152602860248201527f4465706f7369744d616e616765723a206e6f2076616c69642070656e64696e67604482015267081c995c5d595cdd60c21b6064820152608401610a4b565b611daf81856132fb565b6001928301805460ff191690931790925550915085611dcd81613299565b965050611c66565b6001600160a01b0387166000908152600960209081526040808320338452909152902054611e049083906132fb565b6001600160a01b0388166000818152600960209081526040808320338452825280832094909455918152600a9091522054611e409083906132fb565b6001600160a01b0388166000908152600a6020908152604080832093909355338252600b90522054611e739083906132fb565b336000818152600b60209081526040808320949094556001600160a01b038b168252600c8152838220928252919091522054611eb09083906132b2565b6001600160a01b0388166000818152600c60209081526040808320338452825280832094909455918152600d9091522054611eec9083906132b2565b6001600160a01b0388166000908152600d6020908152604080832093909355338252600e90522054611f1f9083906132b2565b336000818152600e60209081526040808320949094556001600160a01b038b16825260138152838220928252919091529081208054879290611f629084906132fb565b909155505060408051338152602081018490526001600160a01b038916917f8752a472e571a816aea92eec8dae9baf628e840f4929fbcc2d155e6233ff68a7910160405180910390a2600854604051630412c6d560e41b81526001600160a01b038981166004830152336024830152604482018590529091169063412c6d50906064016020604051808303816000875af1158015612004573d6000803e3d6000fd5b505050506040513d601f19601f82011682018060405250810190610c9e91906132c5565b600754604051630c39b8b760e31b81526001600160a01b03808616600483015260009286929116906361cdc5b890602401602060405180830381865afa158015612076573d6000803e3d6000fd5b505050506040513d601f19601f8201168201806040525081019061209a91906132c5565b6120a357600080fd5b610f138585858761189c565b600754604051630c39b8b760e31b81526001600160a01b03808616600483015260009286929116906361cdc5b890602401602060405180830381865afa1580156120fd573d6000803e3d6000fd5b505050506040513d601f19601f8201168201806040525081019061212191906132c5565b61212a57600080fd5b6000841161218a5760405162461bcd60e51b815260206004820152602760248201527f4465706f7369744d616e616765723a20616d6f756e74206d757374206e6f74206044820152666265207a65726f60c81b6064820152608401610a4b565b6001600160a01b03851660009081526012602090815260408083203384529091529081902081516060810190925290806121c486436132fb565b6001600160801b039081168252878116602080840191909152600060409384018190528554600181810188559682528282208651878501518616600160801b0295169490941760029091029093019283559383015191909401805491151560ff199092169190911790556001600160a01b0388168252600c835280822033835290925220546122549085906132fb565b6001600160a01b0386166000818152600c60209081526040808320338452825280832094909455918152600d90915220546122909085906132fb565b6001600160a01b0386166000908152600d6020908152604080832093909355338252600e905220546122c39085906132fb565b336000818152600e60209081526040918290209390935580519182529181018690526001600160a01b038716917f04c56a409d50971e45c5a2d96e5d557d2b0f1d66d40f14b141e4c958b0f39b32910160405180910390a2600854604051637c287fd560e11b81526001600160a01b038781166004830152336024830152604482018790529091169063f850ffaa906064016020604051808303816000875af1158015612374573d6000803e3d6000fd5b505050506040513d601f19601f8201168201806040525081019061239891906132c5565b6123a157600080fd5b506001949350505050565b6001600160a01b038216600081815260136020908152604080832033808552908352818420549484526012835281842090845290915281205490919081106124445760405162461bcd60e51b815260206004820152602560248201527f4465706f7369744d616e616765723a206e6f207265717565737420746f2070726044820152646f6365737360d81b6064820152608401610a4b565b6001600160a01b038416600090815260126020908152604080832033845290915281208054839081106124795761247961326d565b600091825260209091206002909102018054909150436001600160801b0390911611156124fa5760405162461bcd60e51b815260206004820152602960248201527f4465706f7369744d616e616765723a207761697420666f72207769746864726160448201526877616c2064656c617960b81b6064820152608401610a4b565b6001818101805460ff1916821790556001600160a01b03861660009081526013602090815260408083203384529091528120805490919061253c9084906132fb565b909155505080546001600160a01b0386166000908152600c60209081526040808320338452909152902054600160801b9091046001600160801b0316906125849082906132b2565b6001600160a01b0387166000818152600c60209081526040808320338452825280832094909455918152600d90915220546125c09082906132b2565b6001600160a01b0387166000908152600d6020908152604080832093909355338252600e905220546125f39082906132b2565b336000818152600e60209081526040808320949094556001600160a01b038a168252600f81528382209282529190915220546126309082906132fb565b6001600160a01b0387166000818152600f602090815260408083203384528252808320949094559181526010909152205461266c9082906132fb565b6001600160a01b03871660009081526010602090815260408083209390935533825260119052205461269f9082906132fb565b3360009081526011602052604090205584156127385760065460405163e3b99e8560e01b8152336004820152602481018390526001600160a01b039091169063e3b99e85906044016020604051808303816000875af1158015612706573d6000803e3d6000fd5b505050506040513d601f19601f8201168201806040525081019061272a91906132c5565b61273357600080fd5b61274f565b60065461274f906001600160a01b031633836129cf565b60408051338152602081018390526001600160a01b038816917fcd1fce47d5ad89dd70b04c75bd6bdb8114d4d4ff7b4393f9fb5937e733ba9582910160405180910390a250600195945050505050565b6001600160e01b031980821690036127f95760405162461bcd60e51b815260206004820152601c60248201527f4552433136353a20696e76616c696420696e74657266616365206964000000006044820152606401610a4b565b6001600160e01b0319166000908152600460205260409020805460ff19166001179055565b6000826001600160a01b031663570ca7356040518163ffffffff1660e01b8152600401602060405180830381865afa15801561285e573d6000803e3d6000fd5b505050506040513d601f19601f82011682018060405250810190612882919061330e565b6001600160a01b0316826001600160a01b031614905092915050565b60006301ffc9a760e01b6001600160e01b0319831614806109fb5750506001600160e01b03191660009081526004602052604090205460ff1690565b60008281526005602090815260408083206001600160a01b038516845290915290205460ff16610bc85761290d816129ff565b612918836020612a11565b60405160200161292992919061334f565b60408051601f198184030181529082905262461bcd60e51b8252610a4b916004016133d0565b6040516001600160a01b03808516602483015283166044820152606481018290526115159085906323b872dd60e01b906084015b60408051601f198184030181529190526020810180517bffffffffffffffffffffffffffffffffffffffffffffffffffffffff166001600160e01b031990931692909217909152612bba565b6040516001600160a01b038316602482015260448101829052610b3b90849063a9059cbb60e01b90606401612983565b60606109fb6001600160a01b03831660145b60606000612a20836002613403565b612a2b9060026132fb565b67ffffffffffffffff811115612a4357612a43612f7c565b6040519080825280601f01601f191660200182016040528015612a6d576020820181803683370190505b509050600360fc1b81600081518110612a8857612a8861326d565b60200101906001600160f81b031916908160001a905350600f60fb1b81600181518110612ab757612ab761326d565b60200101906001600160f81b031916908160001a9053506000612adb846002613403565b612ae69060016132fb565b90505b6001811115612b6b577f303132333435363738396162636465660000000000000000000000000000000085600f1660108110612b2757612b2761326d565b1a60f81b828281518110612b3d57612b3d61326d565b60200101906001600160f81b031916908160001a90535060049490941c93612b648161341a565b9050612ae9565b508315610eb35760405162461bcd60e51b815260206004820181905260248201527f537472696e67733a20686578206c656e67746820696e73756666696369656e746044820152606401610a4b565b6000612c0f826040518060400160405280602081526020017f5361666545524332303a206c6f772d6c6576656c2063616c6c206661696c6564815250856001600160a01b0316612c8f9092919063ffffffff16565b9050805160001480612c30575080806020019051810190612c3091906132c5565b610b3b5760405162461bcd60e51b815260206004820152602a60248201527f5361666545524332303a204552433230206f7065726174696f6e20646964206e6044820152691bdd081cdd58d8d9595960b21b6064820152608401610a4b565b6060611021848460008585600080866001600160a01b03168587604051612cb69190613431565b60006040518083038185875af1925050503d8060008114612cf3576040519150601f19603f3d011682016040523d82523d6000602084013e612cf8565b606091505b5091509150612d0987838387612d14565b979650505050505050565b60608315612d83578251600003612d7c576001600160a01b0385163b612d7c5760405162461bcd60e51b815260206004820152601d60248201527f416464726573733a2063616c6c20746f206e6f6e2d636f6e74726163740000006044820152606401610a4b565b5081611021565b6110218383815115612d985781518083602001fd5b8060405162461bcd60e51b8152600401610a4b91906133d0565b6001600160a01b0381168114610a5f57600080fd5b600060208284031215612dd957600080fd5b8135610eb381612db2565b600060208284031215612df657600080fd5b81356001600160e01b031981168114610eb357600080fd5b600080600060608486031215612e2357600080fd5b505081359360208301359350604090920135919050565b600060208284031215612e4c57600080fd5b5035919050565b60008060408385031215612e6657600080fd5b8235612e7181612db2565b91506020830135612e8181612db2565b809150509250929050565b60008060408385031215612e9f57600080fd5b823591506020830135612e8181612db2565b600080600080600060808688031215612ec957600080fd5b8535612ed481612db2565b94506020860135612ee481612db2565b935060408601359250606086013567ffffffffffffffff80821115612f0857600080fd5b818801915088601f830112612f1c57600080fd5b813581811115612f2b57600080fd5b896020828501011115612f3d57600080fd5b9699959850939650602001949392505050565b60008060408385031215612f6357600080fd5b8235612f6e81612db2565b946020939093013593505050565b634e487b7160e01b600052604160045260246000fd5b604051601f8201601f1916810167ffffffffffffffff81118282101715612fbb57612fbb612f7c565b604052919050565b600067ffffffffffffffff821115612fdd57612fdd612f7c565b5060051b60200190565b600082601f830112612ff857600080fd5b8135602061300d61300883612fc3565b612f92565b82815260059290921b8401810191818101908684111561302c57600080fd5b8286015b848110156130475780358352918301918301613030565b509695505050505050565b60008060006060848603121561306757600080fd5b833561307281612db2565b925060208481013567ffffffffffffffff8082111561309057600080fd5b818701915087601f8301126130a457600080fd5b81356130b261300882612fc3565b81815260059190911b8301840190848101908a8311156130d157600080fd5b938501935b828510156130f85784356130e981612db2565b825293850193908501906130d6565b96505050604087013592508083111561311057600080fd5b505061311e86828701612fe7565b9150509250925092565b60008060006060848603121561313d57600080fd5b833561314881612db2565b9250602084013561315881612db2565b929592945050506040919091013590565b8015158114610a5f57600080fd5b6000806040838503121561318a57600080fd5b823561319581612db2565b91506020830135612e8181613169565b600080600080608085870312156131bb57600080fd5b84356131c681612db2565b935060208501356131d681612db2565b925060408501356131e681612db2565b9396929550929360600135925050565b60008060006060848603121561320b57600080fd5b833561321681612db2565b95602085013595506040909401359392505050565b60008060006060848603121561324057600080fd5b833561324b81612db2565b925060208401359150604084013561326281613169565b809150509250925092565b634e487b7160e01b600052603260045260246000fd5b634e487b7160e01b600052601160045260246000fd5b6000600182016132ab576132ab613283565b5060010190565b818103818111156109fb576109fb613283565b6000602082840312156132d757600080fd5b8151610eb381613169565b6000602082840312156132f457600080fd5b5051919050565b808201808211156109fb576109fb613283565b60006020828403121561332057600080fd5b8151610eb381612db2565b60005b8381101561334657818101518382015260200161332e565b50506000910152565b7f416363657373436f6e74726f6c3a206163636f756e742000000000000000000081526000835161338781601785016020880161332b565b7f206973206d697373696e6720726f6c652000000000000000000000000000000060179184019182015283516133c481602884016020880161332b565b01602801949350505050565b60208152600082518060208401526133ef81604085016020870161332b565b601f01601f19169190910160400192915050565b80820281158282048414176109fb576109fb613283565b60008161342957613429613283565b506000190190565b6000825161344381846020870161332b565b919091019291505056fe41636365737369626c653a2043616c6c6572206973206e6f7420616e2061646da164736f6c6343000813000a",
  "devdoc": {
    "details": "DepositManager manages WTON deposit and withdrawal from operator and WTON holders.",
    "events": {
      "RoleAdminChanged(bytes32,bytes32,bytes32)": {
        "details": "Emitted when `newAdminRole` is set as ``role``'s admin role, replacing `previousAdminRole` `DEFAULT_ADMIN_ROLE` is the starting admin for all roles, despite {RoleAdminChanged} not being emitted signaling this. _Available since v3.1._"
      },
      "RoleGranted(bytes32,address,address)": {
        "details": "Emitted when `account` is granted `role`. `sender` is the account that originated the contract call, an admin role bearer except when using {AccessControl-_setupRole}."
      },
      "RoleRevoked(bytes32,address,address)": {
        "details": "Emitted when `account` is revoked `role`. `sender` is the account that originated the contract call:   - if using `revokeRole`, it is the admin role bearer   - if using `renounceRole`, it is the role bearer (i.e. `account`)"
      }
    },
    "kind": "dev",
    "methods": {
      "addAdmin(address)": {
        "details": "add admin",
        "params": {
          "account": "address to add"
        }
      },
      "deposit(address,uint256)": {
        "details": "deposit `amount` WTON in RAY"
      },
      "getRoleAdmin(bytes32)": {
        "details": "Returns the admin role that controls `role`. See {grantRole} and {revokeRole}. To change a role's admin, use {_setRoleAdmin}."
      },
      "grantRole(bytes32,address)": {
        "details": "Grants `role` to `account`. If `account` had not been already granted `role`, emits a {RoleGranted} event. Requirements: - the caller must have ``role``'s admin role. May emit a {RoleGranted} event."
      },
      "hasRole(bytes32,address)": {
        "details": "Returns `true` if `account` has been granted `role`."
      },
      "isAdmin(address)": {
        "details": "whether admin",
        "params": {
          "account": "address to check"
        }
      },
      "redeposit(address)": {
        "details": "re-deposit pending requests in the pending queue"
      },
      "removeAdmin(address)": {
        "details": "remove admin",
        "params": {
          "account": "address to remove"
        }
      },
      "renounceRole(bytes32,address)": {
        "details": "Revokes `role` from the calling account. Roles are often managed via {grantRole} and {revokeRole}: this function's purpose is to provide a mechanism for accounts to lose their privileges if they are compromised (such as when a trusted device is misplaced). If the calling account had been revoked `role`, emits a {RoleRevoked} event. Requirements: - the caller must be `account`. May emit a {RoleRevoked} event."
      },
      "revokeRole(bytes32,address)": {
        "details": "Revokes `role` from `account`. If `account` had been granted `role`, emits a {RoleRevoked} event. Requirements: - the caller must have ``role``'s admin role. May emit a {RoleRevoked} event."
      },
      "transferAdmin(address)": {
        "details": "transfer admin",
        "params": {
          "newAdmin": "new admin address"
        }
      }
    },
    "version": 1
  },
  "userdoc": {
    "kind": "user",
    "methods": {},
    "version": 1
  },
  "storageLayout": {
    "storage": [
      {
        "astId": 11867,
        "contract": "contracts/stake/managers/DepositManager.sol:DepositManager",
        "label": "pauseProxy",
        "offset": 0,
        "slot": "0",
        "type": "t_bool"
      },
      {
        "astId": 11871,
        "contract": "contracts/stake/managers/DepositManager.sol:DepositManager",
        "label": "proxyImplementation",
        "offset": 0,
        "slot": "1",
        "type": "t_mapping(t_uint256,t_address)"
      },
      {
        "astId": 11875,
        "contract": "contracts/stake/managers/DepositManager.sol:DepositManager",
        "label": "aliveImplementation",
        "offset": 0,
        "slot": "2",
        "type": "t_mapping(t_address,t_bool)"
      },
      {
        "astId": 11879,
        "contract": "contracts/stake/managers/DepositManager.sol:DepositManager",
        "label": "selectorImplementation",
        "offset": 0,
        "slot": "3",
        "type": "t_mapping(t_bytes4,t_address)"
      },
      {
        "astId": 1801,
        "contract": "contracts/stake/managers/DepositManager.sol:DepositManager",
        "label": "_supportedInterfaces",
        "offset": 0,
        "slot": "4",
        "type": "t_mapping(t_bytes4,t_bool)"
      },
      {
        "astId": 24,
        "contract": "contracts/stake/managers/DepositManager.sol:DepositManager",
        "label": "_roles",
        "offset": 0,
        "slot": "5",
        "type": "t_mapping(t_bytes32,t_struct(RoleData)19_storage)"
      },
      {
        "astId": 16191,
        "contract": "contracts/stake/managers/DepositManager.sol:DepositManager",
        "label": "_wton",
        "offset": 0,
        "slot": "6",
        "type": "t_address"
      },
      {
        "astId": 16193,
        "contract": "contracts/stake/managers/DepositManager.sol:DepositManager",
        "label": "_registry",
        "offset": 0,
        "slot": "7",
        "type": "t_address"
      },
      {
        "astId": 16195,
        "contract": "contracts/stake/managers/DepositManager.sol:DepositManager",
        "label": "_seigManager",
        "offset": 0,
        "slot": "8",
        "type": "t_address"
      },
      {
        "astId": 16201,
        "contract": "contracts/stake/managers/DepositManager.sol:DepositManager",
        "label": "_accStaked",
        "offset": 0,
        "slot": "9",
        "type": "t_mapping(t_address,t_mapping(t_address,t_uint256))"
      },
      {
        "astId": 16205,
        "contract": "contracts/stake/managers/DepositManager.sol:DepositManager",
        "label": "_accStakedLayer2",
        "offset": 0,
        "slot": "10",
        "type": "t_mapping(t_address,t_uint256)"
      },
      {
        "astId": 16209,
        "contract": "contracts/stake/managers/DepositManager.sol:DepositManager",
        "label": "_accStakedAccount",
        "offset": 0,
        "slot": "11",
        "type": "t_mapping(t_address,t_uint256)"
      },
      {
        "astId": 16215,
        "contract": "contracts/stake/managers/DepositManager.sol:DepositManager",
        "label": "_pendingUnstaked",
        "offset": 0,
        "slot": "12",
        "type": "t_mapping(t_address,t_mapping(t_address,t_uint256))"
      },
      {
        "astId": 16219,
        "contract": "contracts/stake/managers/DepositManager.sol:DepositManager",
        "label": "_pendingUnstakedLayer2",
        "offset": 0,
        "slot": "13",
        "type": "t_mapping(t_address,t_uint256)"
      },
      {
        "astId": 16223,
        "contract": "contracts/stake/managers/DepositManager.sol:DepositManager",
        "label": "_pendingUnstakedAccount",
        "offset": 0,
        "slot": "14",
        "type": "t_mapping(t_address,t_uint256)"
      },
      {
        "astId": 16229,
        "contract": "contracts/stake/managers/DepositManager.sol:DepositManager",
        "label": "_accUnstaked",
        "offset": 0,
        "slot": "15",
        "type": "t_mapping(t_address,t_mapping(t_address,t_uint256))"
      },
      {
        "astId": 16233,
        "contract": "contracts/stake/managers/DepositManager.sol:DepositManager",
        "label": "_accUnstakedLayer2",
        "offset": 0,
        "slot": "16",
        "type": "t_mapping(t_address,t_uint256)"
      },
      {
        "astId": 16237,
        "contract": "contracts/stake/managers/DepositManager.sol:DepositManager",
        "label": "_accUnstakedAccount",
        "offset": 0,
        "slot": "17",
        "type": "t_mapping(t_address,t_uint256)"
      },
      {
        "astId": 16245,
        "contract": "contracts/stake/managers/DepositManager.sol:DepositManager",
        "label": "_withdrawalRequests",
        "offset": 0,
        "slot": "18",
        "type": "t_mapping(t_address,t_mapping(t_address,t_array(t_struct(WithdrawalReqeust)16267_storage)dyn_storage))"
      },
      {
        "astId": 16251,
        "contract": "contracts/stake/managers/DepositManager.sol:DepositManager",
        "label": "_withdrawalRequestIndex",
        "offset": 0,
        "slot": "19",
        "type": "t_mapping(t_address,t_mapping(t_address,t_uint256))"
      },
      {
        "astId": 16253,
        "contract": "contracts/stake/managers/DepositManager.sol:DepositManager",
        "label": "globalWithdrawalDelay",
        "offset": 0,
        "slot": "20",
        "type": "t_uint256"
      },
      {
        "astId": 16257,
        "contract": "contracts/stake/managers/DepositManager.sol:DepositManager",
        "label": "withdrawalDelay",
        "offset": 0,
        "slot": "21",
        "type": "t_mapping(t_address,t_uint256)"
      },
      {
        "astId": 16260,
        "contract": "contracts/stake/managers/DepositManager.sol:DepositManager",
        "label": "acceptDelayPeriod",
        "offset": 0,
        "slot": "22",
        "type": "t_struct(AcceptDelayPeriod)16274_storage"
      }
    ],
    "types": {
      "t_address": {
        "encoding": "inplace",
        "label": "address",
        "numberOfBytes": "20"
      },
      "t_array(t_struct(WithdrawalReqeust)16267_storage)dyn_storage": {
        "base": "t_struct(WithdrawalReqeust)16267_storage",
        "encoding": "dynamic_array",
        "label": "struct DepositManagerStorage.WithdrawalReqeust[]",
        "numberOfBytes": "32"
      },
      "t_bool": {
        "encoding": "inplace",
        "label": "bool",
        "numberOfBytes": "1"
      },
      "t_bytes32": {
        "encoding": "inplace",
        "label": "bytes32",
        "numberOfBytes": "32"
      },
      "t_bytes4": {
        "encoding": "inplace",
        "label": "bytes4",
        "numberOfBytes": "4"
      },
      "t_mapping(t_address,t_array(t_struct(WithdrawalReqeust)16267_storage)dyn_storage)": {
        "encoding": "mapping",
        "key": "t_address",
        "label": "mapping(address => struct DepositManagerStorage.WithdrawalReqeust[])",
        "numberOfBytes": "32",
        "value": "t_array(t_struct(WithdrawalReqeust)16267_storage)dyn_storage"
      },
      "t_mapping(t_address,t_bool)": {
        "encoding": "mapping",
        "key": "t_address",
        "label": "mapping(address => bool)",
        "numberOfBytes": "32",
        "value": "t_bool"
      },
      "t_mapping(t_address,t_mapping(t_address,t_array(t_struct(WithdrawalReqeust)16267_storage)dyn_storage))": {
        "encoding": "mapping",
        "key": "t_address",
        "label": "mapping(address => mapping(address => struct DepositManagerStorage.WithdrawalReqeust[]))",
        "numberOfBytes": "32",
        "value": "t_mapping(t_address,t_array(t_struct(WithdrawalReqeust)16267_storage)dyn_storage)"
      },
      "t_mapping(t_address,t_mapping(t_address,t_uint256))": {
        "encoding": "mapping",
        "key": "t_address",
        "label": "mapping(address => mapping(address => uint256))",
        "numberOfBytes": "32",
        "value": "t_mapping(t_address,t_uint256)"
      },
      "t_mapping(t_address,t_uint256)": {
        "encoding": "mapping",
        "key": "t_address",
        "label": "mapping(address => uint256)",
        "numberOfBytes": "32",
        "value": "t_uint256"
      },
      "t_mapping(t_bytes32,t_struct(RoleData)19_storage)": {
        "encoding": "mapping",
        "key": "t_bytes32",
        "label": "mapping(bytes32 => struct AccessControl.RoleData)",
        "numberOfBytes": "32",
        "value": "t_struct(RoleData)19_storage"
      },
      "t_mapping(t_bytes4,t_address)": {
        "encoding": "mapping",
        "key": "t_bytes4",
        "label": "mapping(bytes4 => address)",
        "numberOfBytes": "32",
        "value": "t_address"
      },
      "t_mapping(t_bytes4,t_bool)": {
        "encoding": "mapping",
        "key": "t_bytes4",
        "label": "mapping(bytes4 => bool)",
        "numberOfBytes": "32",
        "value": "t_bool"
      },
      "t_mapping(t_uint256,t_address)": {
        "encoding": "mapping",
        "key": "t_uint256",
        "label": "mapping(uint256 => address)",
        "numberOfBytes": "32",
        "value": "t_address"
      },
      "t_struct(AcceptDelayPeriod)16274_storage": {
        "encoding": "inplace",
        "label": "struct DepositManagerStorage.AcceptDelayPeriod",
        "members": [
          {
            "astId": 16269,
            "contract": "contracts/stake/managers/DepositManager.sol:DepositManager",
            "label": "start",
            "offset": 0,
            "slot": "0",
            "type": "t_uint256"
          },
          {
            "astId": 16271,
            "contract": "contracts/stake/managers/DepositManager.sol:DepositManager",
            "label": "end",
            "offset": 0,
            "slot": "1",
            "type": "t_uint256"
          },
          {
            "astId": 16273,
            "contract": "contracts/stake/managers/DepositManager.sol:DepositManager",
            "label": "minimumDelayBlocks",
            "offset": 0,
            "slot": "2",
            "type": "t_uint256"
          }
        ],
        "numberOfBytes": "96"
      },
      "t_struct(RoleData)19_storage": {
        "encoding": "inplace",
        "label": "struct AccessControl.RoleData",
        "members": [
          {
            "astId": 16,
            "contract": "contracts/stake/managers/DepositManager.sol:DepositManager",
            "label": "members",
            "offset": 0,
            "slot": "0",
            "type": "t_mapping(t_address,t_bool)"
          },
          {
            "astId": 18,
            "contract": "contracts/stake/managers/DepositManager.sol:DepositManager",
            "label": "adminRole",
            "offset": 0,
            "slot": "1",
            "type": "t_bytes32"
          }
        ],
        "numberOfBytes": "64"
      },
      "t_struct(WithdrawalReqeust)16267_storage": {
        "encoding": "inplace",
        "label": "struct DepositManagerStorage.WithdrawalReqeust",
        "members": [
          {
            "astId": 16262,
            "contract": "contracts/stake/managers/DepositManager.sol:DepositManager",
            "label": "withdrawableBlockNumber",
            "offset": 0,
            "slot": "0",
            "type": "t_uint128"
          },
          {
            "astId": 16264,
            "contract": "contracts/stake/managers/DepositManager.sol:DepositManager",
            "label": "amount",
            "offset": 16,
            "slot": "0",
            "type": "t_uint128"
          },
          {
            "astId": 16266,
            "contract": "contracts/stake/managers/DepositManager.sol:DepositManager",
            "label": "processed",
            "offset": 0,
            "slot": "1",
            "type": "t_bool"
          }
        ],
        "numberOfBytes": "64"
      },
      "t_uint128": {
        "encoding": "inplace",
        "label": "uint128",
        "numberOfBytes": "16"
      },
      "t_uint256": {
        "encoding": "inplace",
        "label": "uint256",
        "numberOfBytes": "32"
      }
    }
  }
}