{
  "address": "0x8731d45ff9684d380302573cCFafd994Dfa7f7d3",
  "abi": [
    {
      "anonymous": false,
      "inputs": [
        {
          "indexed": true,
          "internalType": "bytes32",
          "name": "role",
          "type": "bytes32"
        },
        {
          "indexed": true,
          "internalType": "bytes32",
          "name": "previousAdminRole",
          "type": "bytes32"
        },
        {
          "indexed": true,
          "internalType": "bytes32",
          "name": "newAdminRole",
          "type": "bytes32"
        }
      ],
      "name": "RoleAdminChanged",
      "type": "event"
    },
    {
      "anonymous": false,
      "inputs": [
        {
          "indexed": true,
          "internalType": "bytes32",
          "name": "role",
          "type": "bytes32"
        },
        {
          "indexed": true,
          "internalType": "address",
          "name": "account",
          "type": "address"
        },
        {
          "indexed": true,
          "internalType": "address",
          "name": "sender",
          "type": "address"
        }
      ],
      "name": "RoleGranted",
      "type": "event"
    },
    {
      "anonymous": false,
      "inputs": [
        {
          "indexed": true,
          "internalType": "bytes32",
          "name": "role",
          "type": "bytes32"
        },
        {
          "indexed": true,
          "internalType": "address",
          "name": "account",
          "type": "address"
        },
        {
          "indexed": true,
          "internalType": "address",
          "name": "sender",
          "type": "address"
        }
      ],
      "name": "RoleRevoked",
      "type": "event"
    },
    {
      "anonymous": false,
      "inputs": [
        {
          "indexed": true,
          "internalType": "address",
          "name": "impl",
          "type": "address"
        },
        {
          "indexed": false,
          "internalType": "bool",
          "name": "alive",
          "type": "bool"
        }
      ],
      "name": "SetAliveImplementation",
      "type": "event"
    },
    {
      "anonymous": false,
      "inputs": [
        {
          "indexed": true,
          "internalType": "bytes4",
          "name": "selector",
          "type": "bytes4"
        },
        {
          "indexed": true,
          "internalType": "address",
          "name": "impl",
          "type": "address"
        }
      ],
      "name": "SetSelectorImplementation",
      "type": "event"
    },
    {
      "anonymous": false,
      "inputs": [
        {
          "indexed": true,
          "internalType": "address",
          "name": "implementation",
          "type": "address"
        }
      ],
      "name": "Upgraded",
      "type": "event"
    },
    {
      "stateMutability": "payable",
      "type": "fallback"
    },
    {
      "inputs": [],
      "name": "DEFAULT_ADMIN_ROLE",
      "outputs": [
        {
          "internalType": "bytes32",
          "name": "",
          "type": "bytes32"
        }
      ],
      "stateMutability": "view",
      "type": "function"
    },
    {
      "inputs": [],
      "name": "MINTER_ROLE",
      "outputs": [
        {
          "internalType": "bytes32",
          "name": "",
          "type": "bytes32"
        }
      ],
      "stateMutability": "view",
      "type": "function"
    },
    {
      "inputs": [],
      "name": "acceptDelayPeriod",
      "outputs": [
        {
          "internalType": "uint256",
          "name": "start",
          "type": "uint256"
        },
        {
          "internalType": "uint256",
          "name": "end",
          "type": "uint256"
        },
        {
          "internalType": "uint256",
          "name": "minimumDelayBlocks",
          "type": "uint256"
        }
      ],
      "stateMutability": "view",
      "type": "function"
    },
    {
      "inputs": [
        {
          "internalType": "address",
          "name": "account",
          "type": "address"
        }
      ],
      "name": "addAdmin",
      "outputs": [],
      "stateMutability": "nonpayable",
      "type": "function"
    },
    {
      "inputs": [
        {
          "internalType": "address",
          "name": "",
          "type": "address"
        }
      ],
      "name": "aliveImplementation",
      "outputs": [
        {
          "internalType": "bool",
          "name": "",
          "type": "bool"
        }
      ],
      "stateMutability": "view",
      "type": "function"
    },
    {
      "inputs": [
        {
          "internalType": "bytes32",
          "name": "role",
          "type": "bytes32"
        }
      ],
      "name": "getRoleAdmin",
      "outputs": [
        {
          "internalType": "bytes32",
          "name": "",
          "type": "bytes32"
        }
      ],
      "stateMutability": "view",
      "type": "function"
    },
    {
      "inputs": [
        {
          "internalType": "bytes4",
          "name": "_selector",
          "type": "bytes4"
        }
      ],
      "name": "getSelectorImplementation2",
      "outputs": [
        {
          "internalType": "address",
          "name": "impl",
          "type": "address"
        }
      ],
      "stateMutability": "view",
      "type": "function"
    },
    {
      "inputs": [],
      "name": "globalWithdrawalDelay",
      "outputs": [
        {
          "internalType": "uint256",
          "name": "",
          "type": "uint256"
        }
      ],
      "stateMutability": "view",
      "type": "function"
    },
    {
      "inputs": [
        {
          "internalType": "bytes32",
          "name": "role",
          "type": "bytes32"
        },
        {
          "internalType": "address",
          "name": "account",
          "type": "address"
        }
      ],
      "name": "grantRole",
      "outputs": [],
      "stateMutability": "nonpayable",
      "type": "function"
    },
    {
      "inputs": [
        {
          "internalType": "bytes32",
          "name": "role",
          "type": "bytes32"
        },
        {
          "internalType": "address",
          "name": "account",
          "type": "address"
        }
      ],
      "name": "hasRole",
      "outputs": [
        {
          "internalType": "bool",
          "name": "",
          "type": "bool"
        }
      ],
      "stateMutability": "view",
      "type": "function"
    },
    {
      "inputs": [],
      "name": "implementation",
      "outputs": [
        {
          "internalType": "address",
          "name": "",
          "type": "address"
        }
      ],
      "stateMutability": "view",
      "type": "function"
    },
    {
      "inputs": [
        {
          "internalType": "uint256",
          "name": "_index",
          "type": "uint256"
        }
      ],
      "name": "implementation2",
      "outputs": [
        {
          "internalType": "address",
          "name": "",
          "type": "address"
        }
      ],
      "stateMutability": "view",
      "type": "function"
    },
    {
      "inputs": [
        {
          "internalType": "address",
          "name": "account",
          "type": "address"
        }
      ],
      "name": "isAdmin",
      "outputs": [
        {
          "internalType": "bool",
          "name": "",
          "type": "bool"
        }
      ],
      "stateMutability": "view",
      "type": "function"
    },
    {
      "inputs": [],
      "name": "isOwner",
      "outputs": [
        {
          "internalType": "bool",
          "name": "",
          "type": "bool"
        }
      ],
      "stateMutability": "view",
      "type": "function"
    },
    {
      "inputs": [],
      "name": "pauseProxy",
      "outputs": [
        {
          "internalType": "bool",
          "name": "",
          "type": "bool"
        }
      ],
      "stateMutability": "view",
      "type": "function"
    },
    {
      "inputs": [
        {
          "internalType": "uint256",
          "name": "",
          "type": "uint256"
        }
      ],
      "name": "proxyImplementation",
      "outputs": [
        {
          "internalType": "address",
          "name": "",
          "type": "address"
        }
      ],
      "stateMutability": "view",
      "type": "function"
    },
    {
      "inputs": [
        {
          "internalType": "address",
          "name": "account",
          "type": "address"
        }
      ],
      "name": "removeAdmin",
      "outputs": [],
      "stateMutability": "nonpayable",
      "type": "function"
    },
    {
      "inputs": [],
      "name": "renounceOwnership",
      "outputs": [],
      "stateMutability": "nonpayable",
      "type": "function"
    },
    {
      "inputs": [
        {
          "internalType": "bytes32",
          "name": "role",
          "type": "bytes32"
        },
        {
          "internalType": "address",
          "name": "account",
          "type": "address"
        }
      ],
      "name": "renounceRole",
      "outputs": [],
      "stateMutability": "nonpayable",
      "type": "function"
    },
    {
      "inputs": [
        {
          "internalType": "bytes32",
          "name": "role",
          "type": "bytes32"
        },
        {
          "internalType": "address",
          "name": "account",
          "type": "address"
        }
      ],
      "name": "revokeRole",
      "outputs": [],
      "stateMutability": "nonpayable",
      "type": "function"
    },
    {
      "inputs": [
        {
          "internalType": "bytes4",
          "name": "",
          "type": "bytes4"
        }
      ],
      "name": "selectorImplementation",
      "outputs": [
        {
          "internalType": "address",
          "name": "",
          "type": "address"
        }
      ],
      "stateMutability": "view",
      "type": "function"
    },
    {
      "inputs": [
        {
          "internalType": "address",
          "name": "newImplementation",
          "type": "address"
        },
        {
          "internalType": "bool",
          "name": "_alive",
          "type": "bool"
        }
      ],
      "name": "setAliveImplementation2",
      "outputs": [],
      "stateMutability": "nonpayable",
      "type": "function"
    },
    {
      "inputs": [
        {
          "internalType": "address",
          "name": "newImplementation",
          "type": "address"
        },
        {
          "internalType": "uint256",
          "name": "_index",
          "type": "uint256"
        },
        {
          "internalType": "bool",
          "name": "_alive",
          "type": "bool"
        }
      ],
      "name": "setImplementation2",
      "outputs": [],
      "stateMutability": "nonpayable",
      "type": "function"
    },
    {
      "inputs": [
        {
          "internalType": "bool",
          "name": "_pause",
          "type": "bool"
        }
      ],
      "name": "setProxyPause",
      "outputs": [],
      "stateMutability": "nonpayable",
      "type": "function"
    },
    {
      "inputs": [
        {
          "internalType": "bytes4[]",
          "name": "_selectors",
          "type": "bytes4[]"
        },
        {
          "internalType": "address",
          "name": "_imp",
          "type": "address"
        }
      ],
      "name": "setSelectorImplementations2",
      "outputs": [],
      "stateMutability": "nonpayable",
      "type": "function"
    },
    {
      "inputs": [
        {
          "internalType": "bytes4",
          "name": "interfaceId",
          "type": "bytes4"
        }
      ],
      "name": "supportsInterface",
      "outputs": [
        {
          "internalType": "bool",
          "name": "",
          "type": "bool"
        }
      ],
      "stateMutability": "view",
      "type": "function"
    },
    {
      "inputs": [
        {
          "internalType": "address",
          "name": "newAdmin",
          "type": "address"
        }
      ],
      "name": "transferAdmin",
      "outputs": [],
      "stateMutability": "nonpayable",
      "type": "function"
    },
    {
      "inputs": [
        {
          "internalType": "address",
          "name": "newAdmin",
          "type": "address"
        }
      ],
      "name": "transferOwnership",
      "outputs": [],
      "stateMutability": "nonpayable",
      "type": "function"
    },
    {
      "inputs": [
        {
          "internalType": "address",
          "name": "impl",
          "type": "address"
        }
      ],
      "name": "upgradeTo",
      "outputs": [],
      "stateMutability": "nonpayable",
      "type": "function"
    },
    {
      "inputs": [
        {
          "internalType": "address",
          "name": "",
          "type": "address"
        }
      ],
      "name": "withdrawalDelay",
      "outputs": [
        {
          "internalType": "uint256",
          "name": "",
          "type": "uint256"
        }
      ],
      "stateMutability": "view",
      "type": "function"
    },
    {
      "stateMutability": "payable",
      "type": "receive"
    }
  ],
  "transactionHash": "0xeb2c9b55102dacb7ddcf5f3f2c321c81d6bfa3a1e2091fa8a2af69585f298a40",
  "args": [],
  "numDeployments": 1,
  "solcInputHash": "87712d450cfd6ca926c6544b6712808e",
  "bytecode": "0x608060405234801561001057600080fd5b5061001c600033610021565b6100d1565b61002b828261002f565b5050565b60008281526005602090815260408083206001600160a01b038516845290915290205460ff1661002b5760008281526005602090815260408083206001600160a01b03851684529091529020805460ff1916600117905561008d3390565b6001600160a01b0316816001600160a01b0316837f2f8788117e7eff1d82e926ec794901d17c78024a50270940304540a733656f0d60405160405180910390a45050565b61197f806100e06000396000f3fe6080604052600436106101d15760003560e01c80636ec3d5ae116100f75780638d4fdb4011610095578063b911135f11610064578063b911135f1461064f578063d539139314610685578063d547741f146106b9578063f2fde38b146106d957610223565b80638d4fdb40146105905780638f32d59b146105b057806391d14854146105f4578063a217fddf1461063a57610223565b806375829def116100d157806375829def146105105780637cb00d25146105305780637cd5f663146105505780638b8f4a651461057057610223565b80636ec3d5ae146104c557806370480275146104db578063715018a6146104fb57610223565b806343c657661161016f578063550d01a31161013e578063550d01a3146104155780635c60da1b146104455780635cc797d81461048b57806363a8fd89146104ab57610223565b806343c65766146103405780634a5df50f1461037a5780634ce970361461039a57806350d2a276146103c757610223565b806324d7806c116101ab57806324d7806c146102c05780632f2ff15d146102e057806336568abe146103005780633659cfe61461032057610223565b806301ffc9a71461022d5780631785f53c14610262578063248a9ca31461028257610223565b366102235760405162461bcd60e51b815260206004820152601460248201527f63616e6e6f74207265636569766520457468657200000000000000000000000060448201526064015b60405180910390fd5b61022b6106f9565b005b34801561023957600080fd5b5061024d610248366004611631565b6107a2565b60405190151581526020015b60405180910390f35b34801561026e57600080fd5b5061022b61027d366004611672565b6107b3565b34801561028e57600080fd5b506102b261029d36600461168d565b60009081526005602052604090206001015490565b604051908152602001610259565b3480156102cc57600080fd5b5061024d6102db366004611672565b61080f565b3480156102ec57600080fd5b5061022b6102fb3660046116a6565b61084f565b34801561030c57600080fd5b5061022b61031b3660046116a6565b610874565b34801561032c57600080fd5b5061022b61033b366004611672565b610900565b34801561034c57600080fd5b5060165460175460185461035f92919083565b60408051938452602084019290925290820152606001610259565b34801561038657600080fd5b5061022b6103953660046116d2565b610a59565b3480156103a657600080fd5b506102b26103b5366004611672565b60156020526000908152604090205481565b3480156103d357600080fd5b506103fd6103e2366004611631565b6003602052600090815260409020546001600160a01b031681565b6040516001600160a01b039091168152602001610259565b34801561042157600080fd5b5061024d610430366004611672565b60026020526000908152604090205460ff1681565b34801561045157600080fd5b506000805260016020527fa6eef7e35abe7026729641147f7915573c7e97b47efa546f5f6e3230263bcb49546001600160a01b03166103fd565b34801561049757600080fd5b5061022b6104a6366004611766565b610d06565b3480156104b757600080fd5b5060005461024d9060ff1681565b3480156104d157600080fd5b506102b260145481565b3480156104e757600080fd5b5061022b6104f6366004611672565b610d5e565b34801561050757600080fd5b5061022b610db7565b34801561051c57600080fd5b5061022b61052b366004611672565b610e12565b34801561053c57600080fd5b5061022b61054b366004611790565b610f24565b34801561055c57600080fd5b5061022b61056b3660046117ab565b610f85565b34801561057c57600080fd5b506103fd61058b36600461168d565b610fde565b34801561059c57600080fd5b506103fd6105ab366004611631565b610ffb565b3480156105bc57600080fd5b503360009081527f05b8ccbb9d4d8fb16ea74ce3c29a41f1b461fbdaff4714a0d9a8eb05499746bc602052604090205460ff1661024d565b34801561060057600080fd5b5061024d61060f3660046116a6565b60009182526005602090815260408084206001600160a01b0393909316845291905290205460ff1690565b34801561064657600080fd5b506102b2600081565b34801561065b57600080fd5b506103fd61066a36600461168d565b6001602052600090815260409020546001600160a01b031681565b34801561069157600080fd5b506102b27ff0887ba65ee2024ea881d91b74c2450ef19e1557f03bed3ea9f16b037cbe2dc981565b3480156106c557600080fd5b5061022b6106d43660046116a6565b6110f7565b3480156106e557600080fd5b5061022b6106f4366004611672565b61111c565b60006107106000356001600160e01b031916610ffb565b90506001600160a01b0381161580159061072d575060005460ff16155b6107795760405162461bcd60e51b815260206004820152601d60248201527f50726f78793a20696d706c204f522070726f78792069732066616c7365000000604482015260640161021a565b3660008037600080366000845af43d6000803e808015610798573d6000f35b3d6000fd5b505050565b60006107ad82611173565b92915050565b6107bc3361080f565b6108015760405162461bcd60e51b8152602060048201526022602482015260008051602061195383398151915260448201526134b760f11b606482015260840161021a565b61080c600082610874565b50565b6001600160a01b03811660009081527f05b8ccbb9d4d8fb16ea74ce3c29a41f1b461fbdaff4714a0d9a8eb05499746bc602052604081205460ff166107ad565b60008281526005602052604090206001015461086a81611198565b61079d83836111a2565b6001600160a01b03811633146108f25760405162461bcd60e51b815260206004820152602f60248201527f416363657373436f6e74726f6c3a2063616e206f6e6c792072656e6f756e636560448201527f20726f6c657320666f722073656c660000000000000000000000000000000000606482015260840161021a565b6108fc8282611244565b5050565b6109093361080f565b61094e5760405162461bcd60e51b8152602060048201526022602482015260008051602061195383398151915260448201526134b760f11b606482015260840161021a565b6001600160a01b0381166109a45760405162461bcd60e51b815260206004820152600d60248201527f696e707574206973207a65726f00000000000000000000000000000000000000604482015260640161021a565b6000805260016020527fa6eef7e35abe7026729641147f7915573c7e97b47efa546f5f6e3230263bcb49546001600160a01b03828116911603610a155760405162461bcd60e51b815260206004820152600960248201526839b0b6b29030b2323960b91b604482015260640161021a565b610a2281600060016112c7565b6040516001600160a01b038216907fbc7cd75a20ee27fd9adebab32041f755214dbc6bffa90cc0225b39da2e5c2d3b90600090a250565b610a623361080f565b610aa75760405162461bcd60e51b8152602060048201526022602482015260008051602061195383398151915260448201526134b760f11b606482015260840161021a565b81610af45760405162461bcd60e51b815260206004820181905260248201527f50726f78793a205f73656c6563746f727327732073697a65206973207a65726f604482015260640161021a565b6001600160a01b03811660009081526002602052604090205460ff16610b5c5760405162461bcd60e51b815260206004820152601860248201527f50726f78793a205f696d70206973206e6f7420616c6976650000000000000000604482015260640161021a565b60005b82811015610d0057816001600160a01b031660036000868685818110610b8757610b876117de565b9050602002016020810190610b9c9190611631565b6001600160e01b03191681526020810191909152604001600020546001600160a01b031603610c0d5760405162461bcd60e51b815260206004820152601d60248201527f4c69717569646974795661756c7450726f78793a2073616d6520696d70000000604482015260640161021a565b8160036000868685818110610c2457610c246117de565b9050602002016020810190610c399190611631565b6001600160e01b03191681526020810191909152604001600020805473ffffffffffffffffffffffffffffffffffffffff19166001600160a01b039283161790558216848483818110610c8e57610c8e6117de565b9050602002016020810190610ca39190611631565b7bffffffffffffffffffffffffffffffffffffffffffffffffffffffff19167f14ebc1c32aa68f4d766e89f3e546cee249f7df25183fc10ab1568d91c2ce9b7b60405160405180910390a380610cf88161180a565b915050610b5f565b50505050565b610d0f3361080f565b610d545760405162461bcd60e51b8152602060048201526022602482015260008051602061195383398151915260448201526134b760f11b606482015260840161021a565b6108fc828261135f565b610d673361080f565b610dac5760405162461bcd60e51b8152602060048201526022602482015260008051602061195383398151915260448201526134b760f11b606482015260840161021a565b61080c60008261084f565b610dc03361080f565b610e055760405162461bcd60e51b8152602060048201526022602482015260008051602061195383398151915260448201526134b760f11b606482015260840161021a565b610e10600033610874565b565b610e1b3361080f565b610e605760405162461bcd60e51b8152602060048201526022602482015260008051602061195383398151915260448201526134b760f11b606482015260840161021a565b6001600160a01b038116610eb65760405162461bcd60e51b815260206004820152601860248201527f41636365737369626c653a207a65726f20616464726573730000000000000000604482015260640161021a565b6001600160a01b0381163303610f0e5760405162461bcd60e51b815260206004820152601660248201527f41636365737369626c653a2073616d652061646d696e00000000000000000000604482015260640161021a565b610f1960008261084f565b61080c600033610874565b610f2d3361080f565b610f725760405162461bcd60e51b8152602060048201526022602482015260008051602061195383398151915260448201526134b760f11b606482015260840161021a565b6000805460ff1916911515919091179055565b610f8e3361080f565b610fd35760405162461bcd60e51b8152602060048201526022602482015260008051602061195383398151915260448201526134b760f11b606482015260840161021a565b61079d8383836112c7565b6000818152600160205260408120546001600160a01b03166107ad565b6001600160e01b031981166000908152600360205260408120546001600160a01b031661105b5750506000805260016020527fa6eef7e35abe7026729641147f7915573c7e97b47efa546f5f6e3230263bcb49546001600160a01b031690565b6001600160e01b031982166000908152600360209081526040808320546001600160a01b03168352600290915290205460ff16156110b957506001600160e01b0319166000908152600360205260409020546001600160a01b031690565b50506000805260016020527fa6eef7e35abe7026729641147f7915573c7e97b47efa546f5f6e3230263bcb49546001600160a01b031690565b919050565b60008281526005602052604090206001015461111281611198565b61079d8383611244565b6111253361080f565b61116a5760405162461bcd60e51b8152602060048201526022602482015260008051602061195383398151915260448201526134b760f11b606482015260840161021a565b61080c81610e12565b60006001600160e01b03198216637965db0b60e01b14806107ad57506107ad826113be565b61080c81336113fa565b60008281526005602090815260408083206001600160a01b038516845290915290205460ff166108fc5760008281526005602090815260408083206001600160a01b03851684529091529020805460ff191660011790556112003390565b6001600160a01b0316816001600160a01b0316837f2f8788117e7eff1d82e926ec794901d17c78024a50270940304540a733656f0d60405160405180910390a45050565b60008281526005602090815260408083206001600160a01b038516845290915290205460ff16156108fc5760008281526005602090815260408083206001600160a01b0385168085529252808320805460ff1916905551339285917ff6391f5c32d9c69d2a47ea670b442974b53935d1edc7fd64eb21e047a839171b9190a45050565b6001600160a01b0383163b61131e5760405162461bcd60e51b815260206004820152601b60248201527f50726f78793a206e6f7420636f6e747261637420616464726573730000000000604482015260640161021a565b8015611359576000828152600160205260409020805473ffffffffffffffffffffffffffffffffffffffff19166001600160a01b0385161790555b61079d83825b6001600160a01b038216600081815260026020908152604091829020805460ff191685151590811790915591519182527f72558d9bfba4210f9ef095c782589484151f6d90f7a81bb3cb9b33efc695d324910160405180910390a25050565b60006301ffc9a760e01b6001600160e01b0319831614806107ad5750506001600160e01b03191660009081526004602052604090205460ff1690565b60008281526005602090815260408083206001600160a01b038516845290915290205460ff166108fc5761142d8161146f565b611438836020611481565b604051602001611449929190611847565b60408051601f198184030181529082905262461bcd60e51b825261021a916004016118c8565b60606107ad6001600160a01b03831660145b606060006114908360026118fb565b61149b906002611912565b67ffffffffffffffff8111156114b3576114b3611925565b6040519080825280601f01601f1916602001820160405280156114dd576020820181803683370190505b509050600360fc1b816000815181106114f8576114f86117de565b60200101906001600160f81b031916908160001a905350600f60fb1b81600181518110611527576115276117de565b60200101906001600160f81b031916908160001a905350600061154b8460026118fb565b611556906001611912565b90505b60018111156115db577f303132333435363738396162636465660000000000000000000000000000000085600f1660108110611597576115976117de565b1a60f81b8282815181106115ad576115ad6117de565b60200101906001600160f81b031916908160001a90535060049490941c936115d48161193b565b9050611559565b50831561162a5760405162461bcd60e51b815260206004820181905260248201527f537472696e67733a20686578206c656e67746820696e73756666696369656e74604482015260640161021a565b9392505050565b60006020828403121561164357600080fd5b81356001600160e01b03198116811461162a57600080fd5b80356001600160a01b03811681146110f257600080fd5b60006020828403121561168457600080fd5b61162a8261165b565b60006020828403121561169f57600080fd5b5035919050565b600080604083850312156116b957600080fd5b823591506116c96020840161165b565b90509250929050565b6000806000604084860312156116e757600080fd5b833567ffffffffffffffff808211156116ff57600080fd5b818601915086601f83011261171357600080fd5b81358181111561172257600080fd5b8760208260051b850101111561173757600080fd5b60209283019550935061174d918601905061165b565b90509250925092565b803580151581146110f257600080fd5b6000806040838503121561177957600080fd5b6117828361165b565b91506116c960208401611756565b6000602082840312156117a257600080fd5b61162a82611756565b6000806000606084860312156117c057600080fd5b6117c98461165b565b92506020840135915061174d60408501611756565b634e487b7160e01b600052603260045260246000fd5b634e487b7160e01b600052601160045260246000fd5b60006001820161181c5761181c6117f4565b5060010190565b60005b8381101561183e578181015183820152602001611826565b50506000910152565b7f416363657373436f6e74726f6c3a206163636f756e742000000000000000000081526000835161187f816017850160208801611823565b7f206973206d697373696e6720726f6c652000000000000000000000000000000060179184019182015283516118bc816028840160208801611823565b01602801949350505050565b60208152600082518060208401526118e7816040850160208701611823565b601f01601f19169190910160400192915050565b80820281158282048414176107ad576107ad6117f4565b808201808211156107ad576107ad6117f4565b634e487b7160e01b600052604160045260246000fd5b60008161194a5761194a6117f4565b50600019019056fe41636365737369626c653a2043616c6c6572206973206e6f7420616e2061646da164736f6c6343000813000a",
  "devdoc": {
    "events": {
      "RoleAdminChanged(bytes32,bytes32,bytes32)": {
        "details": "Emitted when `newAdminRole` is set as ``role``'s admin role, replacing `previousAdminRole` `DEFAULT_ADMIN_ROLE` is the starting admin for all roles, despite {RoleAdminChanged} not being emitted signaling this. _Available since v3.1._"
      },
      "RoleGranted(bytes32,address,address)": {
        "details": "Emitted when `account` is granted `role`. `sender` is the account that originated the contract call, an admin role bearer except when using {AccessControl-_setupRole}."
      },
      "RoleRevoked(bytes32,address,address)": {
        "details": "Emitted when `account` is revoked `role`. `sender` is the account that originated the contract call:   - if using `revokeRole`, it is the admin role bearer   - if using `renounceRole`, it is the role bearer (i.e. `account`)"
      }
    },
    "kind": "dev",
    "methods": {
      "addAdmin(address)": {
        "details": "add admin",
        "params": {
          "account": "address to add"
        }
      },
      "getRoleAdmin(bytes32)": {
        "details": "Returns the admin role that controls `role`. See {grantRole} and {revokeRole}. To change a role's admin, use {_setRoleAdmin}."
      },
      "getSelectorImplementation2(bytes4)": {
        "details": "view implementation address of selector of function",
        "params": {
          "_selector": "selector of function"
        },
        "returns": {
          "impl": "address of the implementation"
        }
      },
      "grantRole(bytes32,address)": {
        "details": "Grants `role` to `account`. If `account` had not been already granted `role`, emits a {RoleGranted} event. Requirements: - the caller must have ``role``'s admin role. May emit a {RoleGranted} event."
      },
      "hasRole(bytes32,address)": {
        "details": "Returns `true` if `account` has been granted `role`."
      },
      "implementation()": {
        "details": "returns the implementation"
      },
      "implementation2(uint256)": {
        "details": "view implementation address of the proxy[index]",
        "params": {
          "_index": "index of proxy"
        },
        "returns": {
          "_0": "address of the implementation"
        }
      },
      "isAdmin(address)": {
        "details": "whether admin",
        "params": {
          "account": "address to check"
        }
      },
      "removeAdmin(address)": {
        "details": "remove admin",
        "params": {
          "account": "address to remove"
        }
      },
      "renounceRole(bytes32,address)": {
        "details": "Revokes `role` from the calling account. Roles are often managed via {grantRole} and {revokeRole}: this function's purpose is to provide a mechanism for accounts to lose their privileges if they are compromised (such as when a trusted device is misplaced). If the calling account had been revoked `role`, emits a {RoleRevoked} event. Requirements: - the caller must be `account`. May emit a {RoleRevoked} event."
      },
      "revokeRole(bytes32,address)": {
        "details": "Revokes `role` from `account`. If `account` had been granted `role`, emits a {RoleRevoked} event. Requirements: - the caller must have ``role``'s admin role. May emit a {RoleRevoked} event."
      },
      "setAliveImplementation2(address,bool)": {
        "details": "set alive status of implementation",
        "params": {
          "_alive": "alive status",
          "newImplementation": "Address of the new implementation."
        }
      },
      "setImplementation2(address,uint256,bool)": {
        "details": "set the implementation address and status of the proxy[index]",
        "params": {
          "_alive": "_alive",
          "_index": "index",
          "newImplementation": "Address of the new implementation."
        }
      },
      "setProxyPause(bool)": {
        "params": {
          "_pause": "true:pause or false:resume"
        }
      },
      "setSelectorImplementations2(bytes4[],address)": {
        "details": "set selectors of Implementation",
        "params": {
          "_imp": "implementation address",
          "_selectors": "being added selectors"
        }
      },
      "transferAdmin(address)": {
        "details": "transfer admin",
        "params": {
          "newAdmin": "new admin address"
        }
      },
      "upgradeTo(address)": {
        "params": {
          "impl": "New implementation contract address"
        }
      }
    },
    "title": "@dev",
    "version": 1
  },
  "userdoc": {
    "kind": "user",
    "methods": {
      "setProxyPause(bool)": {
        "notice": "Set pause state"
      },
      "upgradeTo(address)": {
        "notice": "Set implementation contract"
      }
    },
    "version": 1
  },
  "storageLayout": {
    "storage": [
      {
        "astId": 11867,
        "contract": "contracts/stake/managers/DepositManagerProxy.sol:DepositManagerProxy",
        "label": "pauseProxy",
        "offset": 0,
        "slot": "0",
        "type": "t_bool"
      },
      {
        "astId": 11871,
        "contract": "contracts/stake/managers/DepositManagerProxy.sol:DepositManagerProxy",
        "label": "proxyImplementation",
        "offset": 0,
        "slot": "1",
        "type": "t_mapping(t_uint256,t_address)"
      },
      {
        "astId": 11875,
        "contract": "contracts/stake/managers/DepositManagerProxy.sol:DepositManagerProxy",
        "label": "aliveImplementation",
        "offset": 0,
        "slot": "2",
        "type": "t_mapping(t_address,t_bool)"
      },
      {
        "astId": 11879,
        "contract": "contracts/stake/managers/DepositManagerProxy.sol:DepositManagerProxy",
        "label": "selectorImplementation",
        "offset": 0,
        "slot": "3",
        "type": "t_mapping(t_bytes4,t_address)"
      },
      {
        "astId": 1801,
        "contract": "contracts/stake/managers/DepositManagerProxy.sol:DepositManagerProxy",
        "label": "_supportedInterfaces",
        "offset": 0,
        "slot": "4",
        "type": "t_mapping(t_bytes4,t_bool)"
      },
      {
        "astId": 24,
        "contract": "contracts/stake/managers/DepositManagerProxy.sol:DepositManagerProxy",
        "label": "_roles",
        "offset": 0,
        "slot": "5",
        "type": "t_mapping(t_bytes32,t_struct(RoleData)19_storage)"
      },
      {
        "astId": 16191,
        "contract": "contracts/stake/managers/DepositManagerProxy.sol:DepositManagerProxy",
        "label": "_wton",
        "offset": 0,
        "slot": "6",
        "type": "t_address"
      },
      {
        "astId": 16193,
        "contract": "contracts/stake/managers/DepositManagerProxy.sol:DepositManagerProxy",
        "label": "_registry",
        "offset": 0,
        "slot": "7",
        "type": "t_address"
      },
      {
        "astId": 16195,
        "contract": "contracts/stake/managers/DepositManagerProxy.sol:DepositManagerProxy",
        "label": "_seigManager",
        "offset": 0,
        "slot": "8",
        "type": "t_address"
      },
      {
        "astId": 16201,
        "contract": "contracts/stake/managers/DepositManagerProxy.sol:DepositManagerProxy",
        "label": "_accStaked",
        "offset": 0,
        "slot": "9",
        "type": "t_mapping(t_address,t_mapping(t_address,t_uint256))"
      },
      {
        "astId": 16205,
        "contract": "contracts/stake/managers/DepositManagerProxy.sol:DepositManagerProxy",
        "label": "_accStakedLayer2",
        "offset": 0,
        "slot": "10",
        "type": "t_mapping(t_address,t_uint256)"
      },
      {
        "astId": 16209,
        "contract": "contracts/stake/managers/DepositManagerProxy.sol:DepositManagerProxy",
        "label": "_accStakedAccount",
        "offset": 0,
        "slot": "11",
        "type": "t_mapping(t_address,t_uint256)"
      },
      {
        "astId": 16215,
        "contract": "contracts/stake/managers/DepositManagerProxy.sol:DepositManagerProxy",
        "label": "_pendingUnstaked",
        "offset": 0,
        "slot": "12",
        "type": "t_mapping(t_address,t_mapping(t_address,t_uint256))"
      },
      {
        "astId": 16219,
        "contract": "contracts/stake/managers/DepositManagerProxy.sol:DepositManagerProxy",
        "label": "_pendingUnstakedLayer2",
        "offset": 0,
        "slot": "13",
        "type": "t_mapping(t_address,t_uint256)"
      },
      {
        "astId": 16223,
        "contract": "contracts/stake/managers/DepositManagerProxy.sol:DepositManagerProxy",
        "label": "_pendingUnstakedAccount",
        "offset": 0,
        "slot": "14",
        "type": "t_mapping(t_address,t_uint256)"
      },
      {
        "astId": 16229,
        "contract": "contracts/stake/managers/DepositManagerProxy.sol:DepositManagerProxy",
        "label": "_accUnstaked",
        "offset": 0,
        "slot": "15",
        "type": "t_mapping(t_address,t_mapping(t_address,t_uint256))"
      },
      {
        "astId": 16233,
        "contract": "contracts/stake/managers/DepositManagerProxy.sol:DepositManagerProxy",
        "label": "_accUnstakedLayer2",
        "offset": 0,
        "slot": "16",
        "type": "t_mapping(t_address,t_uint256)"
      },
      {
        "astId": 16237,
        "contract": "contracts/stake/managers/DepositManagerProxy.sol:DepositManagerProxy",
        "label": "_accUnstakedAccount",
        "offset": 0,
        "slot": "17",
        "type": "t_mapping(t_address,t_uint256)"
      },
      {
        "astId": 16245,
        "contract": "contracts/stake/managers/DepositManagerProxy.sol:DepositManagerProxy",
        "label": "_withdrawalRequests",
        "offset": 0,
        "slot": "18",
        "type": "t_mapping(t_address,t_mapping(t_address,t_array(t_struct(WithdrawalReqeust)16267_storage)dyn_storage))"
      },
      {
        "astId": 16251,
        "contract": "contracts/stake/managers/DepositManagerProxy.sol:DepositManagerProxy",
        "label": "_withdrawalRequestIndex",
        "offset": 0,
        "slot": "19",
        "type": "t_mapping(t_address,t_mapping(t_address,t_uint256))"
      },
      {
        "astId": 16253,
        "contract": "contracts/stake/managers/DepositManagerProxy.sol:DepositManagerProxy",
        "label": "globalWithdrawalDelay",
        "offset": 0,
        "slot": "20",
        "type": "t_uint256"
      },
      {
        "astId": 16257,
        "contract": "contracts/stake/managers/DepositManagerProxy.sol:DepositManagerProxy",
        "label": "withdrawalDelay",
        "offset": 0,
        "slot": "21",
        "type": "t_mapping(t_address,t_uint256)"
      },
      {
        "astId": 16260,
        "contract": "contracts/stake/managers/DepositManagerProxy.sol:DepositManagerProxy",
        "label": "acceptDelayPeriod",
        "offset": 0,
        "slot": "22",
        "type": "t_struct(AcceptDelayPeriod)16274_storage"
      }
    ],
    "types": {
      "t_address": {
        "encoding": "inplace",
        "label": "address",
        "numberOfBytes": "20"
      },
      "t_array(t_struct(WithdrawalReqeust)16267_storage)dyn_storage": {
        "base": "t_struct(WithdrawalReqeust)16267_storage",
        "encoding": "dynamic_array",
        "label": "struct DepositManagerStorage.WithdrawalReqeust[]",
        "numberOfBytes": "32"
      },
      "t_bool": {
        "encoding": "inplace",
        "label": "bool",
        "numberOfBytes": "1"
      },
      "t_bytes32": {
        "encoding": "inplace",
        "label": "bytes32",
        "numberOfBytes": "32"
      },
      "t_bytes4": {
        "encoding": "inplace",
        "label": "bytes4",
        "numberOfBytes": "4"
      },
      "t_mapping(t_address,t_array(t_struct(WithdrawalReqeust)16267_storage)dyn_storage)": {
        "encoding": "mapping",
        "key": "t_address",
        "label": "mapping(address => struct DepositManagerStorage.WithdrawalReqeust[])",
        "numberOfBytes": "32",
        "value": "t_array(t_struct(WithdrawalReqeust)16267_storage)dyn_storage"
      },
      "t_mapping(t_address,t_bool)": {
        "encoding": "mapping",
        "key": "t_address",
        "label": "mapping(address => bool)",
        "numberOfBytes": "32",
        "value": "t_bool"
      },
      "t_mapping(t_address,t_mapping(t_address,t_array(t_struct(WithdrawalReqeust)16267_storage)dyn_storage))": {
        "encoding": "mapping",
        "key": "t_address",
        "label": "mapping(address => mapping(address => struct DepositManagerStorage.WithdrawalReqeust[]))",
        "numberOfBytes": "32",
        "value": "t_mapping(t_address,t_array(t_struct(WithdrawalReqeust)16267_storage)dyn_storage)"
      },
      "t_mapping(t_address,t_mapping(t_address,t_uint256))": {
        "encoding": "mapping",
        "key": "t_address",
        "label": "mapping(address => mapping(address => uint256))",
        "numberOfBytes": "32",
        "value": "t_mapping(t_address,t_uint256)"
      },
      "t_mapping(t_address,t_uint256)": {
        "encoding": "mapping",
        "key": "t_address",
        "label": "mapping(address => uint256)",
        "numberOfBytes": "32",
        "value": "t_uint256"
      },
      "t_mapping(t_bytes32,t_struct(RoleData)19_storage)": {
        "encoding": "mapping",
        "key": "t_bytes32",
        "label": "mapping(bytes32 => struct AccessControl.RoleData)",
        "numberOfBytes": "32",
        "value": "t_struct(RoleData)19_storage"
      },
      "t_mapping(t_bytes4,t_address)": {
        "encoding": "mapping",
        "key": "t_bytes4",
        "label": "mapping(bytes4 => address)",
        "numberOfBytes": "32",
        "value": "t_address"
      },
      "t_mapping(t_bytes4,t_bool)": {
        "encoding": "mapping",
        "key": "t_bytes4",
        "label": "mapping(bytes4 => bool)",
        "numberOfBytes": "32",
        "value": "t_bool"
      },
      "t_mapping(t_uint256,t_address)": {
        "encoding": "mapping",
        "key": "t_uint256",
        "label": "mapping(uint256 => address)",
        "numberOfBytes": "32",
        "value": "t_address"
      },
      "t_struct(AcceptDelayPeriod)16274_storage": {
        "encoding": "inplace",
        "label": "struct DepositManagerStorage.AcceptDelayPeriod",
        "members": [
          {
            "astId": 16269,
            "contract": "contracts/stake/managers/DepositManagerProxy.sol:DepositManagerProxy",
            "label": "start",
            "offset": 0,
            "slot": "0",
            "type": "t_uint256"
          },
          {
            "astId": 16271,
            "contract": "contracts/stake/managers/DepositManagerProxy.sol:DepositManagerProxy",
            "label": "end",
            "offset": 0,
            "slot": "1",
            "type": "t_uint256"
          },
          {
            "astId": 16273,
            "contract": "contracts/stake/managers/DepositManagerProxy.sol:DepositManagerProxy",
            "label": "minimumDelayBlocks",
            "offset": 0,
            "slot": "2",
            "type": "t_uint256"
          }
        ],
        "numberOfBytes": "96"
      },
      "t_struct(RoleData)19_storage": {
        "encoding": "inplace",
        "label": "struct AccessControl.RoleData",
        "members": [
          {
            "astId": 16,
            "contract": "contracts/stake/managers/DepositManagerProxy.sol:DepositManagerProxy",
            "label": "members",
            "offset": 0,
            "slot": "0",
            "type": "t_mapping(t_address,t_bool)"
          },
          {
            "astId": 18,
            "contract": "contracts/stake/managers/DepositManagerProxy.sol:DepositManagerProxy",
            "label": "adminRole",
            "offset": 0,
            "slot": "1",
            "type": "t_bytes32"
          }
        ],
        "numberOfBytes": "64"
      },
      "t_struct(WithdrawalReqeust)16267_storage": {
        "encoding": "inplace",
        "label": "struct DepositManagerStorage.WithdrawalReqeust",
        "members": [
          {
            "astId": 16262,
            "contract": "contracts/stake/managers/DepositManagerProxy.sol:DepositManagerProxy",
            "label": "withdrawableBlockNumber",
            "offset": 0,
            "slot": "0",
            "type": "t_uint128"
          },
          {
            "astId": 16264,
            "contract": "contracts/stake/managers/DepositManagerProxy.sol:DepositManagerProxy",
            "label": "amount",
            "offset": 16,
            "slot": "0",
            "type": "t_uint128"
          },
          {
            "astId": 16266,
            "contract": "contracts/stake/managers/DepositManagerProxy.sol:DepositManagerProxy",
            "label": "processed",
            "offset": 0,
            "slot": "1",
            "type": "t_bool"
          }
        ],
        "numberOfBytes": "64"
      },
      "t_uint128": {
        "encoding": "inplace",
        "label": "uint128",
        "numberOfBytes": "16"
      },
      "t_uint256": {
        "encoding": "inplace",
        "label": "uint256",
        "numberOfBytes": "32"
      }
    }
  }
}