{
  "address": "0xb4e9A5BC64DC07f890367F72941403EEd7faDCbB",
  "abi": [
    {
      "inputs": [],
      "stateMutability": "nonpayable",
      "type": "constructor"
    },
    {
      "anonymous": false,
      "inputs": [
        {
          "indexed": false,
          "internalType": "address",
          "name": "token",
          "type": "address"
        },
        {
          "indexed": false,
          "internalType": "uint256",
          "name": "amount",
          "type": "uint256"
        }
      ],
      "name": "Distributed",
      "type": "event"
    },
    {
      "anonymous": false,
      "inputs": [
        {
          "indexed": true,
          "internalType": "address",
          "name": "account",
          "type": "address"
        },
        {
          "indexed": false,
          "internalType": "uint256",
          "name": "amountToMint",
          "type": "uint256"
        },
        {
          "indexed": false,
          "internalType": "uint256",
          "name": "amountToBurn",
          "type": "uint256"
        }
      ],
      "name": "OnChangeAmountInRecoder",
      "type": "event"
    },
    {
      "anonymous": false,
      "inputs": [
        {
          "indexed": false,
          "internalType": "address",
          "name": "layer2",
          "type": "address"
        },
        {
          "indexed": true,
          "internalType": "address",
          "name": "account",
          "type": "address"
        },
        {
          "indexed": false,
          "internalType": "uint256",
          "name": "amount",
          "type": "uint256"
        }
      ],
      "name": "OnDeposit",
      "type": "event"
    },
    {
      "anonymous": false,
      "inputs": [
        {
          "indexed": false,
          "internalType": "address",
          "name": "layer2",
          "type": "address"
        },
        {
          "indexed": true,
          "internalType": "address",
          "name": "account",
          "type": "address"
        },
        {
          "indexed": false,
          "internalType": "uint256",
          "name": "amount",
          "type": "uint256"
        }
      ],
      "name": "OnWithdraw",
      "type": "event"
    },
    {
      "anonymous": false,
      "inputs": [
        {
          "indexed": true,
          "internalType": "bytes32",
          "name": "role",
          "type": "bytes32"
        },
        {
          "indexed": true,
          "internalType": "bytes32",
          "name": "previousAdminRole",
          "type": "bytes32"
        },
        {
          "indexed": true,
          "internalType": "bytes32",
          "name": "newAdminRole",
          "type": "bytes32"
        }
      ],
      "name": "RoleAdminChanged",
      "type": "event"
    },
    {
      "anonymous": false,
      "inputs": [
        {
          "indexed": true,
          "internalType": "bytes32",
          "name": "role",
          "type": "bytes32"
        },
        {
          "indexed": true,
          "internalType": "address",
          "name": "account",
          "type": "address"
        },
        {
          "indexed": true,
          "internalType": "address",
          "name": "sender",
          "type": "address"
        }
      ],
      "name": "RoleGranted",
      "type": "event"
    },
    {
      "anonymous": false,
      "inputs": [
        {
          "indexed": true,
          "internalType": "bytes32",
          "name": "role",
          "type": "bytes32"
        },
        {
          "indexed": true,
          "internalType": "address",
          "name": "account",
          "type": "address"
        },
        {
          "indexed": true,
          "internalType": "address",
          "name": "sender",
          "type": "address"
        }
      ],
      "name": "RoleRevoked",
      "type": "event"
    },
    {
      "anonymous": false,
      "inputs": [
        {
          "indexed": false,
          "internalType": "uint256",
          "name": "amount",
          "type": "uint256"
        }
      ],
      "name": "Swapped",
      "type": "event"
    },
    {
      "inputs": [],
      "name": "ADMIN_ROLE",
      "outputs": [
        {
          "internalType": "bytes32",
          "name": "",
          "type": "bytes32"
        }
      ],
      "stateMutability": "view",
      "type": "function"
    },
    {
      "inputs": [],
      "name": "BURNER_ROLE",
      "outputs": [
        {
          "internalType": "bytes32",
          "name": "",
          "type": "bytes32"
        }
      ],
      "stateMutability": "view",
      "type": "function"
    },
    {
      "inputs": [],
      "name": "DEFAULT_ADMIN_ROLE",
      "outputs": [
        {
          "internalType": "bytes32",
          "name": "",
          "type": "bytes32"
        }
      ],
      "stateMutability": "view",
      "type": "function"
    },
    {
      "inputs": [],
      "name": "MINTER_ROLE",
      "outputs": [
        {
          "internalType": "bytes32",
          "name": "",
          "type": "bytes32"
        }
      ],
      "stateMutability": "view",
      "type": "function"
    },
    {
      "inputs": [
        {
          "internalType": "address",
          "name": "account",
          "type": "address"
        }
      ],
      "name": "addAdmin",
      "outputs": [],
      "stateMutability": "nonpayable",
      "type": "function"
    },
    {
      "inputs": [],
      "name": "approveToUniswap",
      "outputs": [],
      "stateMutability": "nonpayable",
      "type": "function"
    },
    {
      "inputs": [],
      "name": "autocoinageSnapshot",
      "outputs": [
        {
          "internalType": "address",
          "name": "",
          "type": "address"
        }
      ],
      "stateMutability": "view",
      "type": "function"
    },
    {
      "inputs": [],
      "name": "currentRound",
      "outputs": [
        {
          "internalType": "uint256",
          "name": "",
          "type": "uint256"
        }
      ],
      "stateMutability": "pure",
      "type": "function"
    },
    {
      "inputs": [],
      "name": "distribute",
      "outputs": [],
      "stateMutability": "nonpayable",
      "type": "function"
    },
    {
      "inputs": [],
      "name": "dividiedPool",
      "outputs": [
        {
          "internalType": "contract ILockTOSDividend",
          "name": "",
          "type": "address"
        }
      ],
      "stateMutability": "view",
      "type": "function"
    },
    {
      "inputs": [],
      "name": "endRound",
      "outputs": [],
      "stateMutability": "nonpayable",
      "type": "function"
    },
    {
      "inputs": [
        {
          "internalType": "bytes32",
          "name": "role",
          "type": "bytes32"
        }
      ],
      "name": "getRoleAdmin",
      "outputs": [
        {
          "internalType": "bytes32",
          "name": "",
          "type": "bytes32"
        }
      ],
      "stateMutability": "view",
      "type": "function"
    },
    {
      "inputs": [],
      "name": "getWTONBalance",
      "outputs": [
        {
          "internalType": "uint256",
          "name": "",
          "type": "uint256"
        }
      ],
      "stateMutability": "view",
      "type": "function"
    },
    {
      "inputs": [
        {
          "internalType": "bytes32",
          "name": "role",
          "type": "bytes32"
        },
        {
          "internalType": "address",
          "name": "account",
          "type": "address"
        }
      ],
      "name": "grantRole",
      "outputs": [],
      "stateMutability": "nonpayable",
      "type": "function"
    },
    {
      "inputs": [
        {
          "internalType": "bytes32",
          "name": "role",
          "type": "bytes32"
        },
        {
          "internalType": "address",
          "name": "account",
          "type": "address"
        }
      ],
      "name": "hasRole",
      "outputs": [
        {
          "internalType": "bool",
          "name": "",
          "type": "bool"
        }
      ],
      "stateMutability": "view",
      "type": "function"
    },
    {
      "inputs": [],
      "name": "init",
      "outputs": [],
      "stateMutability": "nonpayable",
      "type": "function"
    },
    {
      "inputs": [
        {
          "internalType": "address",
          "name": "account",
          "type": "address"
        }
      ],
      "name": "isAdmin",
      "outputs": [
        {
          "internalType": "bool",
          "name": "",
          "type": "bool"
        }
      ],
      "stateMutability": "view",
      "type": "function"
    },
    {
      "inputs": [],
      "name": "layer2Registry",
      "outputs": [
        {
          "internalType": "address",
          "name": "",
          "type": "address"
        }
      ],
      "stateMutability": "view",
      "type": "function"
    },
    {
      "inputs": [],
      "name": "migratedL2",
      "outputs": [
        {
          "internalType": "bool",
          "name": "",
          "type": "bool"
        }
      ],
      "stateMutability": "view",
      "type": "function"
    },
    {
      "inputs": [
        {
          "internalType": "address",
          "name": "layer2",
          "type": "address"
        },
        {
          "internalType": "address",
          "name": "account",
          "type": "address"
        },
        {
          "internalType": "uint256",
          "name": "amount",
          "type": "uint256"
        }
      ],
      "name": "onDeposit",
      "outputs": [],
      "stateMutability": "nonpayable",
      "type": "function"
    },
    {
      "inputs": [
        {
          "internalType": "address",
          "name": "layer2",
          "type": "address"
        },
        {
          "internalType": "address",
          "name": "account",
          "type": "address"
        },
        {
          "internalType": "uint256",
          "name": "amount",
          "type": "uint256"
        }
      ],
      "name": "onWithdraw",
      "outputs": [],
      "stateMutability": "nonpayable",
      "type": "function"
    },
    {
      "inputs": [],
      "name": "pauseProxy",
      "outputs": [
        {
          "internalType": "bool",
          "name": "",
          "type": "bool"
        }
      ],
      "stateMutability": "view",
      "type": "function"
    },
    {
      "inputs": [
        {
          "internalType": "address",
          "name": "account",
          "type": "address"
        }
      ],
      "name": "powerOf",
      "outputs": [
        {
          "internalType": "uint256",
          "name": "",
          "type": "uint256"
        }
      ],
      "stateMutability": "pure",
      "type": "function"
    },
    {
      "inputs": [
        {
          "internalType": "address",
          "name": "account",
          "type": "address"
        }
      ],
      "name": "removeAdmin",
      "outputs": [],
      "stateMutability": "nonpayable",
      "type": "function"
    },
    {
      "inputs": [
        {
          "internalType": "bytes32",
          "name": "role",
          "type": "bytes32"
        },
        {
          "internalType": "address",
          "name": "account",
          "type": "address"
        }
      ],
      "name": "renounceRole",
      "outputs": [],
      "stateMutability": "nonpayable",
      "type": "function"
    },
    {
      "inputs": [
        {
          "internalType": "bytes32",
          "name": "role",
          "type": "bytes32"
        },
        {
          "internalType": "address",
          "name": "account",
          "type": "address"
        }
      ],
      "name": "revokeRole",
      "outputs": [],
      "stateMutability": "nonpayable",
      "type": "function"
    },
    {
      "inputs": [],
      "name": "roundDuration",
      "outputs": [
        {
          "internalType": "uint256",
          "name": "",
          "type": "uint256"
        }
      ],
      "stateMutability": "pure",
      "type": "function"
    },
    {
      "inputs": [],
      "name": "seigManager",
      "outputs": [
        {
          "internalType": "address",
          "name": "",
          "type": "address"
        }
      ],
      "stateMutability": "view",
      "type": "function"
    },
    {
      "inputs": [
        {
          "internalType": "address",
          "name": "_autocoinageSnapshot",
          "type": "address"
        }
      ],
      "name": "setAutocoinageSnapshot",
      "outputs": [],
      "stateMutability": "nonpayable",
      "type": "function"
    },
    {
      "inputs": [
        {
          "internalType": "address",
          "name": "_wton",
          "type": "address"
        },
        {
          "internalType": "address",
          "name": "_autocoinageSnapshot",
          "type": "address"
        },
        {
          "internalType": "address",
          "name": "_seigManager",
          "type": "address"
        },
        {
          "internalType": "address",
          "name": "_dividiedPool",
          "type": "address"
        }
      ],
      "name": "setInfo",
      "outputs": [],
      "stateMutability": "nonpayable",
      "type": "function"
    },
    {
      "inputs": [],
      "name": "start",
      "outputs": [],
      "stateMutability": "nonpayable",
      "type": "function"
    },
    {
      "inputs": [
        {
          "internalType": "bytes4",
          "name": "interfaceId",
          "type": "bytes4"
        }
      ],
      "name": "supportsInterface",
      "outputs": [
        {
          "internalType": "bool",
          "name": "",
          "type": "bool"
        }
      ],
      "stateMutability": "view",
      "type": "function"
    },
    {
      "inputs": [],
      "name": "tos",
      "outputs": [
        {
          "internalType": "contract ITOS",
          "name": "",
          "type": "address"
        }
      ],
      "stateMutability": "view",
      "type": "function"
    },
    {
      "inputs": [],
      "name": "totalDeposits",
      "outputs": [
        {
          "internalType": "uint256",
          "name": "",
          "type": "uint256"
        }
      ],
      "stateMutability": "pure",
      "type": "function"
    },
    {
      "inputs": [
        {
          "internalType": "address",
          "name": "newAdmin",
          "type": "address"
        }
      ],
      "name": "transferAdmin",
      "outputs": [],
      "stateMutability": "nonpayable",
      "type": "function"
    },
    {
      "inputs": [],
      "name": "uniswapRouter",
      "outputs": [
        {
          "internalType": "contract ISwapRouter",
          "name": "",
          "type": "address"
        }
      ],
      "stateMutability": "view",
      "type": "function"
    },
    {
      "inputs": [
        {
          "internalType": "uint256",
          "name": "round",
          "type": "uint256"
        }
      ],
      "name": "winnerOf",
      "outputs": [
        {
          "internalType": "address",
          "name": "",
          "type": "address"
        }
      ],
      "stateMutability": "pure",
      "type": "function"
    },
    {
      "inputs": [],
      "name": "wton",
      "outputs": [
        {
          "internalType": "address",
          "name": "",
          "type": "address"
        }
      ],
      "stateMutability": "view",
      "type": "function"
    }
  ],
  "transactionHash": "0x640705a3095eeb8e892d074829c11f4d271160f06952bf895138fee94eaeebb2",
  "args": [],
  "numDeployments": 1,
  "solcInputHash": "87712d450cfd6ca926c6544b6712808e",
  "bytecode": "0x608060405234801561001057600080fd5b50611488806100206000396000f3fe608060405234801561001057600080fd5b50600436106102925760003560e01c806375b238fc11610160578063a217fddf116100d8578063e1c7392a1161008c578063f129d55711610071578063f129d55714610560578063f7cb789a14610465578063f850ffaa146103b757600080fd5b8063e1c7392a146102d2578063e4fc6b6d1461055857600080fd5b8063cf2a239c116100bd578063cf2a239c1461050b578063d53913931461051e578063d547741f1461054557600080fd5b8063a217fddf14610503578063be9a6555146102d257600080fd5b80638a19c8bc1161012f5780638d62d949116101145780638d62d9491461048d57806391d14854146104a5578063a1f5f50e146104de57600080fd5b80638a19c8bc146104655780638cb5d7001461047f57600080fd5b806375b238fc1461042b578063784330c0146104525780637d8820971461046557806389f395de1461046c57600080fd5b80633452f3c51161020e5780636fb7f558116101c2578063735de9f7116101a7578063735de9f714610405578063749aa2d9146102d257806375829def1461041857600080fd5b80636fb7f558146103df57806370480275146103f257600080fd5b8063412c6d50116101f3578063412c6d50146103b7578063442ff62d146103ca57806363a8fd89146103d257600080fd5b80633452f3c5146102d257806336568abe146103a457600080fd5b8063248a9ca311610265578063282c51f31161024a578063282c51f31461033f5780632f2ff15d14610366578063309d72731461037957600080fd5b8063248a9ca31461030957806324d7806c1461032c57600080fd5b806301ffc9a7146102975780631373fa94146102bf5780631785f53c146102d45780631ac84690146102e7575b600080fd5b6102aa6102a53660046111af565b610573565b60405190151581526020015b60405180910390f35b6102d26102cd3660046111f5565b6105aa565b005b6102d26102e23660046111f5565b61063e565b6102fb6102f53660046111f5565b50600090565b6040519081526020016102b6565b6102fb610317366004611210565b60009081526006602052604090206001015490565b6102aa61033a3660046111f5565b6106cb565b6102fb7f9667e80708b6eeeb0053fa0cca44e028ff548e2a9f029edfeac87c118b08b7c881565b6102d2610374366004611229565b61070b565b60035461038c906001600160a01b031681565b6040516001600160a01b0390911681526020016102b6565b6102d26103b2366004611229565b610735565b6102d26103c5366004611255565b6107c1565b6102fb6108cf565b6000546102aa9060ff1681565b60055461038c906001600160a01b031681565b6102d26104003660046111f5565b610945565b60025461038c906001600160a01b031681565b6102d26104263660046111f5565b6109cf565b6102fb7fdf8b4c520ffe197c5343c6f5aec59570151ef9a492f2c624fd45ddde6135ec4281565b60075461038c906001600160a01b031681565b60006102fb565b60015461038c906001600160a01b031681565b61038c6102f5366004611210565b60005461038c9061010090046001600160a01b031681565b6102aa6104b3366004611229565b60009182526006602090815260408084206001600160a01b0393909316845291905290205460ff1690565b6005546102aa9074010000000000000000000000000000000000000000900460ff1681565b6102fb600081565b60045461038c906001600160a01b031681565b6102fb7ff0887ba65ee2024ea881d91b74c2450ef19e1557f03bed3ea9f16b037cbe2dc981565b6102d2610553366004611229565b610b31565b6102d2610b56565b6102d261056e366004611291565b610cf7565b60006001600160e01b03198216637965db0b60e01b14806105a457506301ffc9a760e01b6001600160e01b03198316145b92915050565b6105b3336106cb565b61060f5760405162461bcd60e51b815260206004820152602260248201527f41636365737369626c653a2043616c6c6572206973206e6f7420616e2061646d60448201526134b760f11b60648201526084015b60405180910390fd5b6003805473ffffffffffffffffffffffffffffffffffffffff19166001600160a01b0392909216919091179055565b610647336106cb565b61069e5760405162461bcd60e51b815260206004820152602260248201527f41636365737369626c653a2043616c6c6572206973206e6f7420616e2061646d60448201526134b760f11b6064820152608401610606565b6106c87fdf8b4c520ffe197c5343c6f5aec59570151ef9a492f2c624fd45ddde6135ec4282610735565b50565b6001600160a01b03811660009081527f31f4bc5980931cfff8fcc0887a354f492c853dee1983bdef4d9cb3e8a5ff876e602052604081205460ff166105a4565b60008281526006602052604090206001015461072681610dca565b6107308383610dd4565b505050565b6001600160a01b03811633146107b35760405162461bcd60e51b815260206004820152602f60248201527f416363657373436f6e74726f6c3a2063616e206f6e6c792072656e6f756e636560448201527f20726f6c657320666f722073656c6600000000000000000000000000000000006064820152608401610606565b6107bd8282610e76565b5050565b6107ca336106cb565b806107df57506005546001600160a01b031633145b6108515760405162461bcd60e51b815260206004820152603960248201527f506f776572544f4e48616d6d657244414f3a2073656e646572206973206e6f7460448201527f20736569674d616e61676572206f72206e6f742061646d696e000000000000006064820152608401610606565b60035460405163adc7e4f160e01b81526001600160a01b03858116600483015284811660248301529091169063adc7e4f1906044016020604051808303816000875af11580156108a5573d6000803e3d6000fd5b505050506040513d601f19601f820116820180604052508101906108c991906112e5565b50505050565b600080546040516370a0823160e01b81523060048201526101009091046001600160a01b0316906370a0823190602401602060405180830381865afa15801561091c573d6000803e3d6000fd5b505050506040513d601f19601f8201168201806040525081019061094091906112e5565b905090565b61094e336106cb565b6109a55760405162461bcd60e51b815260206004820152602260248201527f41636365737369626c653a2043616c6c6572206973206e6f7420616e2061646d60448201526134b760f11b6064820152608401610606565b6106c87fdf8b4c520ffe197c5343c6f5aec59570151ef9a492f2c624fd45ddde6135ec428261070b565b6109d8336106cb565b610a2f5760405162461bcd60e51b815260206004820152602260248201527f41636365737369626c653a2043616c6c6572206973206e6f7420616e2061646d60448201526134b760f11b6064820152608401610606565b6001600160a01b038116610a855760405162461bcd60e51b815260206004820152601860248201527f41636365737369626c653a207a65726f206164647265737300000000000000006044820152606401610606565b6001600160a01b0381163303610add5760405162461bcd60e51b815260206004820152601660248201527f41636365737369626c653a2073616d652061646d696e000000000000000000006044820152606401610606565b610b077fdf8b4c520ffe197c5343c6f5aec59570151ef9a492f2c624fd45ddde6135ec428261070b565b6106c87fdf8b4c520ffe197c5343c6f5aec59570151ef9a492f2c624fd45ddde6135ec4233610735565b600082815260066020526040902060010154610b4c81610dca565b6107308383610e76565b6000610b606108cf565b905060008111610bb25760405162461bcd60e51b815260206004820152601460248201527f62616c616e6365206f662057544f4e20697320300000000000000000000000006044820152606401610606565b600054600754604051636eb1769f60e11b81523060048201526001600160a01b039182166024820152610100909204169063dd62ed3e90604401602060405180830381865afa158015610c09573d6000803e3d6000fd5b505050506040513d601f19601f82011682018060405250810190610c2d91906112e5565b811115610c3c57610c3c610ef9565b600754600054604051631f72642160e31b81526001600160a01b03610100909204821660048201526024810184905291169063fb93210890604401600060405180830381600087803b158015610c9157600080fd5b505af1158015610ca5573d6000803e3d6000fd5b5050600054604080516101009092046001600160a01b03168252602082018590527fb649c98f58055c520df0dcb5709eff2e931217ff2fb1e21376130d31bbb1c0af935001905060405180910390a150565b610d00336106cb565b610d575760405162461bcd60e51b815260206004820152602260248201527f41636365737369626c653a2043616c6c6572206973206e6f7420616e2061646d60448201526134b760f11b6064820152608401610606565b600080546001600160a01b039586166101000274ffffffffffffffffffffffffffffffffffffffff00199091161790556003805493851673ffffffffffffffffffffffffffffffffffffffff19948516179055600580549285169284169290921790915560078054919093169116179055565b6106c88133610f78565b60008281526006602090815260408083206001600160a01b038516845290915290205460ff166107bd5760008281526006602090815260408083206001600160a01b03851684529091529020805460ff19166001179055610e323390565b6001600160a01b0316816001600160a01b0316837f2f8788117e7eff1d82e926ec794901d17c78024a50270940304540a733656f0d60405160405180910390a45050565b60008281526006602090815260408083206001600160a01b038516845290915290205460ff16156107bd5760008281526006602090815260408083206001600160a01b0385168085529252808320805460ff1916905551339285917ff6391f5c32d9c69d2a47ea670b442974b53935d1edc7fd64eb21e047a839171b9190a45050565b60005460075460405163095ea7b360e01b81526001600160a01b0391821660048201526000196024820152610100909204169063095ea7b3906044016020604051808303816000875af1158015610f54573d6000803e3d6000fd5b505050506040513d601f19601f820116820180604052508101906106c891906112fe565b60008281526006602090815260408083206001600160a01b038516845290915290205460ff166107bd57610fab81610fed565b610fb6836020610fff565b604051602001610fc7929190611344565b60408051601f198184030181529082905262461bcd60e51b8252610606916004016113c5565b60606105a46001600160a01b03831660145b6060600061100e83600261140e565b611019906002611425565b67ffffffffffffffff81111561103157611031611438565b6040519080825280601f01601f19166020018201604052801561105b576020820181803683370190505b509050600360fc1b816000815181106110765761107661144e565b60200101906001600160f81b031916908160001a905350600f60fb1b816001815181106110a5576110a561144e565b60200101906001600160f81b031916908160001a90535060006110c984600261140e565b6110d4906001611425565b90505b6001811115611159577f303132333435363738396162636465660000000000000000000000000000000085600f16601081106111155761111561144e565b1a60f81b82828151811061112b5761112b61144e565b60200101906001600160f81b031916908160001a90535060049490941c9361115281611464565b90506110d7565b5083156111a85760405162461bcd60e51b815260206004820181905260248201527f537472696e67733a20686578206c656e67746820696e73756666696369656e746044820152606401610606565b9392505050565b6000602082840312156111c157600080fd5b81356001600160e01b0319811681146111a857600080fd5b80356001600160a01b03811681146111f057600080fd5b919050565b60006020828403121561120757600080fd5b6111a8826111d9565b60006020828403121561122257600080fd5b5035919050565b6000806040838503121561123c57600080fd5b8235915061124c602084016111d9565b90509250929050565b60008060006060848603121561126a57600080fd5b611273846111d9565b9250611281602085016111d9565b9150604084013590509250925092565b600080600080608085870312156112a757600080fd5b6112b0856111d9565b93506112be602086016111d9565b92506112cc604086016111d9565b91506112da606086016111d9565b905092959194509250565b6000602082840312156112f757600080fd5b5051919050565b60006020828403121561131057600080fd5b815180151581146111a857600080fd5b60005b8381101561133b578181015183820152602001611323565b50506000910152565b7f416363657373436f6e74726f6c3a206163636f756e742000000000000000000081526000835161137c816017850160208801611320565b7f206973206d697373696e6720726f6c652000000000000000000000000000000060179184019182015283516113b9816028840160208801611320565b01602801949350505050565b60208152600082518060208401526113e4816040850160208701611320565b601f01601f19169190910160400192915050565b634e487b7160e01b600052601160045260246000fd5b80820281158282048414176105a4576105a46113f8565b808201808211156105a4576105a46113f8565b634e487b7160e01b600052604160045260246000fd5b634e487b7160e01b600052603260045260246000fd5b600081611473576114736113f8565b50600019019056fea164736f6c6343000813000a",
  "devdoc": {
    "events": {
      "RoleAdminChanged(bytes32,bytes32,bytes32)": {
        "details": "Emitted when `newAdminRole` is set as ``role``'s admin role, replacing `previousAdminRole` `DEFAULT_ADMIN_ROLE` is the starting admin for all roles, despite {RoleAdminChanged} not being emitted signaling this. _Available since v3.1._"
      },
      "RoleGranted(bytes32,address,address)": {
        "details": "Emitted when `account` is granted `role`. `sender` is the account that originated the contract call, an admin role bearer except when using {AccessControl-_setupRole}."
      },
      "RoleRevoked(bytes32,address,address)": {
        "details": "Emitted when `account` is revoked `role`. `sender` is the account that originated the contract call:   - if using `revokeRole`, it is the admin role bearer   - if using `renounceRole`, it is the role bearer (i.e. `account`)"
      }
    },
    "kind": "dev",
    "methods": {
      "addAdmin(address)": {
        "details": "add admin",
        "params": {
          "account": "address to add"
        }
      },
      "approveToUniswap()": {
        "details": "    "
      },
      "currentRound()": {
        "details": "    "
      },
      "endRound()": {
        "details": "    "
      },
      "getRoleAdmin(bytes32)": {
        "details": "Returns the admin role that controls `role`. See {grantRole} and {revokeRole}. To change a role's admin, use {_setRoleAdmin}."
      },
      "grantRole(bytes32,address)": {
        "details": "Grants `role` to `account`. If `account` had not been already granted `role`, emits a {RoleGranted} event. Requirements: - the caller must have ``role``'s admin role. May emit a {RoleGranted} event."
      },
      "hasRole(bytes32,address)": {
        "details": "Returns `true` if `account` has been granted `role`."
      },
      "init()": {
        "details": "    "
      },
      "isAdmin(address)": {
        "details": "whether admin",
        "params": {
          "account": "address to check"
        }
      },
      "powerOf(address)": {
        "details": "    "
      },
      "removeAdmin(address)": {
        "details": "remove admin",
        "params": {
          "account": "address to remove"
        }
      },
      "renounceRole(bytes32,address)": {
        "details": "Revokes `role` from the calling account. Roles are often managed via {grantRole} and {revokeRole}: this function's purpose is to provide a mechanism for accounts to lose their privileges if they are compromised (such as when a trusted device is misplaced). If the calling account had been revoked `role`, emits a {RoleRevoked} event. Requirements: - the caller must be `account`. May emit a {RoleRevoked} event."
      },
      "revokeRole(bytes32,address)": {
        "details": "Revokes `role` from `account`. If `account` had been granted `role`, emits a {RoleRevoked} event. Requirements: - the caller must have ``role``'s admin role. May emit a {RoleRevoked} event."
      },
      "roundDuration()": {
        "details": "    "
      },
      "start()": {
        "details": "    "
      },
      "supportsInterface(bytes4)": {
        "details": "See {IERC165-supportsInterface}."
      },
      "totalDeposits()": {
        "details": "    "
      },
      "transferAdmin(address)": {
        "details": "transfer admin",
        "params": {
          "newAdmin": "new admin address"
        }
      },
      "winnerOf(uint256)": {
        "details": "    "
      }
    },
    "version": 1
  },
  "userdoc": {
    "kind": "user",
    "methods": {
      "distribute()": {
        "notice": "LockTOSDividendProxy   WTON sTOS  "
      }
    },
    "version": 1
  },
  "storageLayout": {
    "storage": [
      {
        "astId": 19055,
        "contract": "contracts/stake/powerton/PowerTONHammerDAO.sol:PowerTONHammerDAO",
        "label": "pauseProxy",
        "offset": 0,
        "slot": "0",
        "type": "t_bool"
      },
      {
        "astId": 19057,
        "contract": "contracts/stake/powerton/PowerTONHammerDAO.sol:PowerTONHammerDAO",
        "label": "wton",
        "offset": 1,
        "slot": "0",
        "type": "t_address"
      },
      {
        "astId": 19060,
        "contract": "contracts/stake/powerton/PowerTONHammerDAO.sol:PowerTONHammerDAO",
        "label": "tos",
        "offset": 0,
        "slot": "1",
        "type": "t_contract(ITOS)13626"
      },
      {
        "astId": 19063,
        "contract": "contracts/stake/powerton/PowerTONHammerDAO.sol:PowerTONHammerDAO",
        "label": "uniswapRouter",
        "offset": 0,
        "slot": "2",
        "type": "t_contract(ISwapRouter)2938"
      },
      {
        "astId": 19065,
        "contract": "contracts/stake/powerton/PowerTONHammerDAO.sol:PowerTONHammerDAO",
        "label": "autocoinageSnapshot",
        "offset": 0,
        "slot": "3",
        "type": "t_address"
      },
      {
        "astId": 19067,
        "contract": "contracts/stake/powerton/PowerTONHammerDAO.sol:PowerTONHammerDAO",
        "label": "layer2Registry",
        "offset": 0,
        "slot": "4",
        "type": "t_address"
      },
      {
        "astId": 19069,
        "contract": "contracts/stake/powerton/PowerTONHammerDAO.sol:PowerTONHammerDAO",
        "label": "seigManager",
        "offset": 0,
        "slot": "5",
        "type": "t_address"
      },
      {
        "astId": 19071,
        "contract": "contracts/stake/powerton/PowerTONHammerDAO.sol:PowerTONHammerDAO",
        "label": "migratedL2",
        "offset": 20,
        "slot": "5",
        "type": "t_bool"
      },
      {
        "astId": 24,
        "contract": "contracts/stake/powerton/PowerTONHammerDAO.sol:PowerTONHammerDAO",
        "label": "_roles",
        "offset": 0,
        "slot": "6",
        "type": "t_mapping(t_bytes32,t_struct(RoleData)19_storage)"
      },
      {
        "astId": 19047,
        "contract": "contracts/stake/powerton/PowerTONHammerDAO.sol:PowerTONHammerDAO",
        "label": "dividiedPool",
        "offset": 0,
        "slot": "7",
        "type": "t_contract(ILockTOSDividend)13499"
      }
    ],
    "types": {
      "t_address": {
        "encoding": "inplace",
        "label": "address",
        "numberOfBytes": "20"
      },
      "t_bool": {
        "encoding": "inplace",
        "label": "bool",
        "numberOfBytes": "1"
      },
      "t_bytes32": {
        "encoding": "inplace",
        "label": "bytes32",
        "numberOfBytes": "32"
      },
      "t_contract(ILockTOSDividend)13499": {
        "encoding": "inplace",
        "label": "contract ILockTOSDividend",
        "numberOfBytes": "20"
      },
      "t_contract(ISwapRouter)2938": {
        "encoding": "inplace",
        "label": "contract ISwapRouter",
        "numberOfBytes": "20"
      },
      "t_contract(ITOS)13626": {
        "encoding": "inplace",
        "label": "contract ITOS",
        "numberOfBytes": "20"
      },
      "t_mapping(t_address,t_bool)": {
        "encoding": "mapping",
        "key": "t_address",
        "label": "mapping(address => bool)",
        "numberOfBytes": "32",
        "value": "t_bool"
      },
      "t_mapping(t_bytes32,t_struct(RoleData)19_storage)": {
        "encoding": "mapping",
        "key": "t_bytes32",
        "label": "mapping(bytes32 => struct AccessControl.RoleData)",
        "numberOfBytes": "32",
        "value": "t_struct(RoleData)19_storage"
      },
      "t_struct(RoleData)19_storage": {
        "encoding": "inplace",
        "label": "struct AccessControl.RoleData",
        "members": [
          {
            "astId": 16,
            "contract": "contracts/stake/powerton/PowerTONHammerDAO.sol:PowerTONHammerDAO",
            "label": "members",
            "offset": 0,
            "slot": "0",
            "type": "t_mapping(t_address,t_bool)"
          },
          {
            "astId": 18,
            "contract": "contracts/stake/powerton/PowerTONHammerDAO.sol:PowerTONHammerDAO",
            "label": "adminRole",
            "offset": 0,
            "slot": "1",
            "type": "t_bytes32"
          }
        ],
        "numberOfBytes": "64"
      }
    }
  }
}