{
  "address": "0x43b9Ef43D415e84aD9964567002d648b11747A8f",
  "abi": [
    {
      "anonymous": false,
      "inputs": [
        {
          "indexed": true,
          "internalType": "address",
          "name": "account",
          "type": "address"
        },
        {
          "components": [
            {
              "internalType": "uint256",
              "name": "balance",
              "type": "uint256"
            },
            {
              "internalType": "uint256",
              "name": "refactoredCount",
              "type": "uint256"
            }
          ],
          "indexed": false,
          "internalType": "struct RefactorCoinageSnapshotStorage.Balance",
          "name": "oldBalance",
          "type": "tuple"
        },
        {
          "components": [
            {
              "internalType": "uint256",
              "name": "balance",
              "type": "uint256"
            },
            {
              "internalType": "uint256",
              "name": "refactoredCount",
              "type": "uint256"
            }
          ],
          "indexed": false,
          "internalType": "struct RefactorCoinageSnapshotStorage.Balance",
          "name": "newBalance",
          "type": "tuple"
        },
        {
          "components": [
            {
              "internalType": "uint256",
              "name": "balance",
              "type": "uint256"
            },
            {
              "internalType": "uint256",
              "name": "refactoredCount",
              "type": "uint256"
            }
          ],
          "indexed": false,
          "internalType": "struct RefactorCoinageSnapshotStorage.Balance",
          "name": "oldTotalBalance",
          "type": "tuple"
        },
        {
          "components": [
            {
              "internalType": "uint256",
              "name": "balance",
              "type": "uint256"
            },
            {
              "internalType": "uint256",
              "name": "refactoredCount",
              "type": "uint256"
            }
          ],
          "indexed": false,
          "internalType": "struct RefactorCoinageSnapshotStorage.Balance",
          "name": "newTotalBalance",
          "type": "tuple"
        }
      ],
      "name": "ChangedBalance",
      "type": "event"
    },
    {
      "anonymous": false,
      "inputs": [
        {
          "components": [
            {
              "internalType": "uint256",
              "name": "factor",
              "type": "uint256"
            },
            {
              "internalType": "uint256",
              "name": "refactorCount",
              "type": "uint256"
            }
          ],
          "indexed": false,
          "internalType": "struct RefactorCoinageSnapshotStorage.Factor",
          "name": "previous",
          "type": "tuple"
        },
        {
          "components": [
            {
              "internalType": "uint256",
              "name": "factor",
              "type": "uint256"
            },
            {
              "internalType": "uint256",
              "name": "refactorCount",
              "type": "uint256"
            }
          ],
          "indexed": false,
          "internalType": "struct RefactorCoinageSnapshotStorage.Factor",
          "name": "next",
          "type": "tuple"
        }
      ],
      "name": "ChangedFactor",
      "type": "event"
    },
    {
      "anonymous": false,
      "inputs": [
        {
          "indexed": false,
          "internalType": "uint256",
          "name": "previous",
          "type": "uint256"
        },
        {
          "indexed": false,
          "internalType": "uint256",
          "name": "current",
          "type": "uint256"
        },
        {
          "indexed": false,
          "internalType": "uint256",
          "name": "shiftCount",
          "type": "uint256"
        }
      ],
      "name": "FactorSet",
      "type": "event"
    },
    {
      "anonymous": false,
      "inputs": [
        {
          "indexed": true,
          "internalType": "bytes32",
          "name": "role",
          "type": "bytes32"
        },
        {
          "indexed": true,
          "internalType": "bytes32",
          "name": "previousAdminRole",
          "type": "bytes32"
        },
        {
          "indexed": true,
          "internalType": "bytes32",
          "name": "newAdminRole",
          "type": "bytes32"
        }
      ],
      "name": "RoleAdminChanged",
      "type": "event"
    },
    {
      "anonymous": false,
      "inputs": [
        {
          "indexed": true,
          "internalType": "bytes32",
          "name": "role",
          "type": "bytes32"
        },
        {
          "indexed": true,
          "internalType": "address",
          "name": "account",
          "type": "address"
        },
        {
          "indexed": true,
          "internalType": "address",
          "name": "sender",
          "type": "address"
        }
      ],
      "name": "RoleGranted",
      "type": "event"
    },
    {
      "anonymous": false,
      "inputs": [
        {
          "indexed": true,
          "internalType": "bytes32",
          "name": "role",
          "type": "bytes32"
        },
        {
          "indexed": true,
          "internalType": "address",
          "name": "account",
          "type": "address"
        },
        {
          "indexed": true,
          "internalType": "address",
          "name": "sender",
          "type": "address"
        }
      ],
      "name": "RoleRevoked",
      "type": "event"
    },
    {
      "anonymous": false,
      "inputs": [
        {
          "indexed": true,
          "internalType": "address",
          "name": "from",
          "type": "address"
        },
        {
          "indexed": true,
          "internalType": "address",
          "name": "to",
          "type": "address"
        },
        {
          "indexed": false,
          "internalType": "uint256",
          "name": "value",
          "type": "uint256"
        }
      ],
      "name": "Transfer",
      "type": "event"
    },
    {
      "inputs": [],
      "name": "DEFAULT_ADMIN_ROLE",
      "outputs": [
        {
          "internalType": "bytes32",
          "name": "",
          "type": "bytes32"
        }
      ],
      "stateMutability": "view",
      "type": "function"
    },
    {
      "inputs": [],
      "name": "MINTER_ROLE",
      "outputs": [
        {
          "internalType": "bytes32",
          "name": "",
          "type": "bytes32"
        }
      ],
      "stateMutability": "view",
      "type": "function"
    },
    {
      "inputs": [],
      "name": "OPERATOR_ROLE",
      "outputs": [
        {
          "internalType": "bytes32",
          "name": "",
          "type": "bytes32"
        }
      ],
      "stateMutability": "view",
      "type": "function"
    },
    {
      "inputs": [],
      "name": "REFACTOR_BOUNDARY",
      "outputs": [
        {
          "internalType": "uint256",
          "name": "",
          "type": "uint256"
        }
      ],
      "stateMutability": "view",
      "type": "function"
    },
    {
      "inputs": [],
      "name": "REFACTOR_DIVIDER",
      "outputs": [
        {
          "internalType": "uint256",
          "name": "",
          "type": "uint256"
        }
      ],
      "stateMutability": "view",
      "type": "function"
    },
    {
      "inputs": [
        {
          "internalType": "address",
          "name": "",
          "type": "address"
        },
        {
          "internalType": "address",
          "name": "",
          "type": "address"
        }
      ],
      "name": "_allowances",
      "outputs": [
        {
          "internalType": "uint256",
          "name": "",
          "type": "uint256"
        }
      ],
      "stateMutability": "view",
      "type": "function"
    },
    {
      "inputs": [
        {
          "internalType": "uint256",
          "name": "snapshotId",
          "type": "uint256"
        },
        {
          "internalType": "address",
          "name": "account",
          "type": "address"
        }
      ],
      "name": "_valueAtAccount",
      "outputs": [
        {
          "internalType": "bool",
          "name": "snapshotted",
          "type": "bool"
        },
        {
          "components": [
            {
              "internalType": "uint256",
              "name": "balance",
              "type": "uint256"
            },
            {
              "internalType": "uint256",
              "name": "refactoredCount",
              "type": "uint256"
            }
          ],
          "internalType": "struct RefactorCoinageSnapshotStorage.Balance",
          "name": "balance",
          "type": "tuple"
        }
      ],
      "stateMutability": "view",
      "type": "function"
    },
    {
      "inputs": [
        {
          "internalType": "address",
          "name": "account",
          "type": "address"
        }
      ],
      "name": "_valueAtAccountBalanceLast",
      "outputs": [
        {
          "components": [
            {
              "internalType": "uint256",
              "name": "balance",
              "type": "uint256"
            },
            {
              "internalType": "uint256",
              "name": "refactoredCount",
              "type": "uint256"
            }
          ],
          "internalType": "struct RefactorCoinageSnapshotStorage.Balance",
          "name": "",
          "type": "tuple"
        }
      ],
      "stateMutability": "view",
      "type": "function"
    },
    {
      "inputs": [
        {
          "internalType": "uint256",
          "name": "snapshotId",
          "type": "uint256"
        }
      ],
      "name": "_valueAtFactor",
      "outputs": [
        {
          "internalType": "bool",
          "name": "snapshotted",
          "type": "bool"
        },
        {
          "components": [
            {
              "internalType": "uint256",
              "name": "factor",
              "type": "uint256"
            },
            {
              "internalType": "uint256",
              "name": "refactorCount",
              "type": "uint256"
            }
          ],
          "internalType": "struct RefactorCoinageSnapshotStorage.Factor",
          "name": "factor_",
          "type": "tuple"
        }
      ],
      "stateMutability": "view",
      "type": "function"
    },
    {
      "inputs": [],
      "name": "_valueAtFactorLast",
      "outputs": [
        {
          "components": [
            {
              "internalType": "uint256",
              "name": "factor",
              "type": "uint256"
            },
            {
              "internalType": "uint256",
              "name": "refactorCount",
              "type": "uint256"
            }
          ],
          "internalType": "struct RefactorCoinageSnapshotStorage.Factor",
          "name": "",
          "type": "tuple"
        }
      ],
      "stateMutability": "view",
      "type": "function"
    },
    {
      "inputs": [
        {
          "internalType": "uint256",
          "name": "snapshotId",
          "type": "uint256"
        }
      ],
      "name": "_valueAtTotalSupply",
      "outputs": [
        {
          "internalType": "bool",
          "name": "snapshotted",
          "type": "bool"
        },
        {
          "components": [
            {
              "internalType": "uint256",
              "name": "balance",
              "type": "uint256"
            },
            {
              "internalType": "uint256",
              "name": "refactoredCount",
              "type": "uint256"
            }
          ],
          "internalType": "struct RefactorCoinageSnapshotStorage.Balance",
          "name": "balance",
          "type": "tuple"
        }
      ],
      "stateMutability": "view",
      "type": "function"
    },
    {
      "inputs": [],
      "name": "_valueAtTotalSupplyLast",
      "outputs": [
        {
          "components": [
            {
              "internalType": "uint256",
              "name": "balance",
              "type": "uint256"
            },
            {
              "internalType": "uint256",
              "name": "refactoredCount",
              "type": "uint256"
            }
          ],
          "internalType": "struct RefactorCoinageSnapshotStorage.Balance",
          "name": "",
          "type": "tuple"
        }
      ],
      "stateMutability": "view",
      "type": "function"
    },
    {
      "inputs": [
        {
          "internalType": "address",
          "name": "",
          "type": "address"
        },
        {
          "internalType": "uint256",
          "name": "",
          "type": "uint256"
        }
      ],
      "name": "accountBalanceIds",
      "outputs": [
        {
          "internalType": "uint256",
          "name": "",
          "type": "uint256"
        }
      ],
      "stateMutability": "view",
      "type": "function"
    },
    {
      "inputs": [
        {
          "internalType": "address",
          "name": "",
          "type": "address"
        },
        {
          "internalType": "uint256",
          "name": "",
          "type": "uint256"
        }
      ],
      "name": "accountBalanceSnapshots",
      "outputs": [
        {
          "internalType": "uint256",
          "name": "balance",
          "type": "uint256"
        },
        {
          "internalType": "uint256",
          "name": "refactoredCount",
          "type": "uint256"
        }
      ],
      "stateMutability": "view",
      "type": "function"
    },
    {
      "inputs": [
        {
          "internalType": "address",
          "name": "account",
          "type": "address"
        }
      ],
      "name": "addAdmin",
      "outputs": [],
      "stateMutability": "nonpayable",
      "type": "function"
    },
    {
      "inputs": [
        {
          "internalType": "address",
          "name": "account",
          "type": "address"
        }
      ],
      "name": "addMinter",
      "outputs": [],
      "stateMutability": "nonpayable",
      "type": "function"
    },
    {
      "inputs": [
        {
          "internalType": "address",
          "name": "account",
          "type": "address"
        }
      ],
      "name": "addOperator",
      "outputs": [],
      "stateMutability": "nonpayable",
      "type": "function"
    },
    {
      "inputs": [
        {
          "internalType": "address",
          "name": "",
          "type": "address"
        }
      ],
      "name": "aliveImplementation",
      "outputs": [
        {
          "internalType": "bool",
          "name": "",
          "type": "bool"
        }
      ],
      "stateMutability": "view",
      "type": "function"
    },
    {
      "inputs": [
        {
          "components": [
            {
              "internalType": "uint256",
              "name": "balance",
              "type": "uint256"
            },
            {
              "internalType": "uint256",
              "name": "refactoredCount",
              "type": "uint256"
            }
          ],
          "internalType": "struct RefactorCoinageSnapshotStorage.Balance",
          "name": "_balance",
          "type": "tuple"
        }
      ],
      "name": "applyFactor",
      "outputs": [
        {
          "internalType": "uint256",
          "name": "amount",
          "type": "uint256"
        }
      ],
      "stateMutability": "view",
      "type": "function"
    },
    {
      "inputs": [
        {
          "internalType": "address",
          "name": "account",
          "type": "address"
        }
      ],
      "name": "balanceOf",
      "outputs": [
        {
          "internalType": "uint256",
          "name": "amount",
          "type": "uint256"
        }
      ],
      "stateMutability": "view",
      "type": "function"
    },
    {
      "inputs": [
        {
          "internalType": "address",
          "name": "account",
          "type": "address"
        },
        {
          "internalType": "uint256",
          "name": "snapshotId",
          "type": "uint256"
        }
      ],
      "name": "balanceOfAt",
      "outputs": [
        {
          "internalType": "uint256",
          "name": "amount",
          "type": "uint256"
        }
      ],
      "stateMutability": "view",
      "type": "function"
    },
    {
      "inputs": [
        {
          "internalType": "uint256",
          "name": "amount",
          "type": "uint256"
        }
      ],
      "name": "burn",
      "outputs": [],
      "stateMutability": "nonpayable",
      "type": "function"
    },
    {
      "inputs": [
        {
          "internalType": "address",
          "name": "account",
          "type": "address"
        },
        {
          "internalType": "uint256",
          "name": "amount",
          "type": "uint256"
        }
      ],
      "name": "burnFrom",
      "outputs": [],
      "stateMutability": "nonpayable",
      "type": "function"
    },
    {
      "inputs": [],
      "name": "decimals",
      "outputs": [
        {
          "internalType": "uint8",
          "name": "",
          "type": "uint8"
        }
      ],
      "stateMutability": "pure",
      "type": "function"
    },
    {
      "inputs": [],
      "name": "factor",
      "outputs": [
        {
          "internalType": "uint256",
          "name": "",
          "type": "uint256"
        }
      ],
      "stateMutability": "view",
      "type": "function"
    },
    {
      "inputs": [
        {
          "internalType": "uint256",
          "name": "",
          "type": "uint256"
        }
      ],
      "name": "factorSnapshotIds",
      "outputs": [
        {
          "internalType": "uint256",
          "name": "",
          "type": "uint256"
        }
      ],
      "stateMutability": "view",
      "type": "function"
    },
    {
      "inputs": [
        {
          "internalType": "uint256",
          "name": "",
          "type": "uint256"
        }
      ],
      "name": "factorSnapshots",
      "outputs": [
        {
          "internalType": "uint256",
          "name": "factor",
          "type": "uint256"
        },
        {
          "internalType": "uint256",
          "name": "refactorCount",
          "type": "uint256"
        }
      ],
      "stateMutability": "view",
      "type": "function"
    },
    {
      "inputs": [
        {
          "internalType": "bytes32",
          "name": "role",
          "type": "bytes32"
        }
      ],
      "name": "getRoleAdmin",
      "outputs": [
        {
          "internalType": "bytes32",
          "name": "",
          "type": "bytes32"
        }
      ],
      "stateMutability": "view",
      "type": "function"
    },
    {
      "inputs": [
        {
          "internalType": "bytes32",
          "name": "role",
          "type": "bytes32"
        },
        {
          "internalType": "address",
          "name": "account",
          "type": "address"
        }
      ],
      "name": "grantRole",
      "outputs": [],
      "stateMutability": "nonpayable",
      "type": "function"
    },
    {
      "inputs": [
        {
          "internalType": "bytes32",
          "name": "role",
          "type": "bytes32"
        },
        {
          "internalType": "address",
          "name": "account",
          "type": "address"
        }
      ],
      "name": "hasRole",
      "outputs": [
        {
          "internalType": "bool",
          "name": "",
          "type": "bool"
        }
      ],
      "stateMutability": "view",
      "type": "function"
    },
    {
      "inputs": [
        {
          "internalType": "string",
          "name": "name_",
          "type": "string"
        },
        {
          "internalType": "string",
          "name": "symbol_",
          "type": "string"
        },
        {
          "internalType": "uint256",
          "name": "factor_",
          "type": "uint256"
        },
        {
          "internalType": "address",
          "name": "seigManager_",
          "type": "address"
        }
      ],
      "name": "initialize",
      "outputs": [],
      "stateMutability": "nonpayable",
      "type": "function"
    },
    {
      "inputs": [
        {
          "internalType": "address",
          "name": "account",
          "type": "address"
        }
      ],
      "name": "isAdmin",
      "outputs": [
        {
          "internalType": "bool",
          "name": "",
          "type": "bool"
        }
      ],
      "stateMutability": "view",
      "type": "function"
    },
    {
      "inputs": [
        {
          "internalType": "address",
          "name": "account",
          "type": "address"
        }
      ],
      "name": "isMinter",
      "outputs": [
        {
          "internalType": "bool",
          "name": "",
          "type": "bool"
        }
      ],
      "stateMutability": "view",
      "type": "function"
    },
    {
      "inputs": [
        {
          "internalType": "address",
          "name": "account",
          "type": "address"
        }
      ],
      "name": "isOperator",
      "outputs": [
        {
          "internalType": "bool",
          "name": "",
          "type": "bool"
        }
      ],
      "stateMutability": "view",
      "type": "function"
    },
    {
      "inputs": [],
      "name": "isOwner",
      "outputs": [
        {
          "internalType": "bool",
          "name": "",
          "type": "bool"
        }
      ],
      "stateMutability": "view",
      "type": "function"
    },
    {
      "inputs": [],
      "name": "lastSnapshotId",
      "outputs": [
        {
          "internalType": "uint256",
          "name": "",
          "type": "uint256"
        }
      ],
      "stateMutability": "view",
      "type": "function"
    },
    {
      "inputs": [
        {
          "internalType": "address",
          "name": "account",
          "type": "address"
        },
        {
          "internalType": "uint256",
          "name": "amount",
          "type": "uint256"
        }
      ],
      "name": "mint",
      "outputs": [
        {
          "internalType": "bool",
          "name": "",
          "type": "bool"
        }
      ],
      "stateMutability": "nonpayable",
      "type": "function"
    },
    {
      "inputs": [],
      "name": "name",
      "outputs": [
        {
          "internalType": "string",
          "name": "",
          "type": "string"
        }
      ],
      "stateMutability": "view",
      "type": "function"
    },
    {
      "inputs": [],
      "name": "pauseProxy",
      "outputs": [
        {
          "internalType": "bool",
          "name": "",
          "type": "bool"
        }
      ],
      "stateMutability": "view",
      "type": "function"
    },
    {
      "inputs": [],
      "name": "progressSnapshotId",
      "outputs": [
        {
          "internalType": "uint256",
          "name": "",
          "type": "uint256"
        }
      ],
      "stateMutability": "view",
      "type": "function"
    },
    {
      "inputs": [
        {
          "internalType": "uint256",
          "name": "",
          "type": "uint256"
        }
      ],
      "name": "proxyImplementation",
      "outputs": [
        {
          "internalType": "address",
          "name": "",
          "type": "address"
        }
      ],
      "stateMutability": "view",
      "type": "function"
    },
    {
      "inputs": [
        {
          "internalType": "address",
          "name": "account",
          "type": "address"
        }
      ],
      "name": "removeAdmin",
      "outputs": [],
      "stateMutability": "nonpayable",
      "type": "function"
    },
    {
      "inputs": [
        {
          "internalType": "address",
          "name": "account",
          "type": "address"
        }
      ],
      "name": "removeMinter",
      "outputs": [],
      "stateMutability": "nonpayable",
      "type": "function"
    },
    {
      "inputs": [
        {
          "internalType": "address",
          "name": "account",
          "type": "address"
        }
      ],
      "name": "removeOperator",
      "outputs": [],
      "stateMutability": "nonpayable",
      "type": "function"
    },
    {
      "inputs": [],
      "name": "renounceMinter",
      "outputs": [],
      "stateMutability": "nonpayable",
      "type": "function"
    },
    {
      "inputs": [],
      "name": "renounceOperator",
      "outputs": [],
      "stateMutability": "nonpayable",
      "type": "function"
    },
    {
      "inputs": [],
      "name": "renounceOwnership",
      "outputs": [],
      "stateMutability": "nonpayable",
      "type": "function"
    },
    {
      "inputs": [
        {
          "internalType": "bytes32",
          "name": "role",
          "type": "bytes32"
        },
        {
          "internalType": "address",
          "name": "account",
          "type": "address"
        }
      ],
      "name": "renounceRole",
      "outputs": [],
      "stateMutability": "nonpayable",
      "type": "function"
    },
    {
      "inputs": [
        {
          "internalType": "address",
          "name": "account",
          "type": "address"
        }
      ],
      "name": "revokeMinter",
      "outputs": [],
      "stateMutability": "nonpayable",
      "type": "function"
    },
    {
      "inputs": [
        {
          "internalType": "address",
          "name": "account",
          "type": "address"
        }
      ],
      "name": "revokeOperator",
      "outputs": [],
      "stateMutability": "nonpayable",
      "type": "function"
    },
    {
      "inputs": [
        {
          "internalType": "bytes32",
          "name": "role",
          "type": "bytes32"
        },
        {
          "internalType": "address",
          "name": "account",
          "type": "address"
        }
      ],
      "name": "revokeRole",
      "outputs": [],
      "stateMutability": "nonpayable",
      "type": "function"
    },
    {
      "inputs": [],
      "name": "seigManager",
      "outputs": [
        {
          "internalType": "address",
          "name": "",
          "type": "address"
        }
      ],
      "stateMutability": "view",
      "type": "function"
    },
    {
      "inputs": [
        {
          "internalType": "bytes4",
          "name": "",
          "type": "bytes4"
        }
      ],
      "name": "selectorImplementation",
      "outputs": [
        {
          "internalType": "address",
          "name": "",
          "type": "address"
        }
      ],
      "stateMutability": "view",
      "type": "function"
    },
    {
      "inputs": [
        {
          "internalType": "uint256",
          "name": "factor_",
          "type": "uint256"
        }
      ],
      "name": "setFactor",
      "outputs": [
        {
          "internalType": "bool",
          "name": "",
          "type": "bool"
        }
      ],
      "stateMutability": "nonpayable",
      "type": "function"
    },
    {
      "inputs": [
        {
          "internalType": "address",
          "name": "_seigManager",
          "type": "address"
        }
      ],
      "name": "setSeigManager",
      "outputs": [],
      "stateMutability": "nonpayable",
      "type": "function"
    },
    {
      "inputs": [
        {
          "internalType": "bytes4",
          "name": "interfaceId",
          "type": "bytes4"
        }
      ],
      "name": "supportsInterface",
      "outputs": [
        {
          "internalType": "bool",
          "name": "",
          "type": "bool"
        }
      ],
      "stateMutability": "view",
      "type": "function"
    },
    {
      "inputs": [],
      "name": "symbol",
      "outputs": [
        {
          "internalType": "string",
          "name": "",
          "type": "string"
        }
      ],
      "stateMutability": "view",
      "type": "function"
    },
    {
      "inputs": [],
      "name": "totalSupply",
      "outputs": [
        {
          "internalType": "uint256",
          "name": "amount",
          "type": "uint256"
        }
      ],
      "stateMutability": "view",
      "type": "function"
    },
    {
      "inputs": [
        {
          "internalType": "uint256",
          "name": "snapshotId",
          "type": "uint256"
        }
      ],
      "name": "totalSupplyAt",
      "outputs": [
        {
          "internalType": "uint256",
          "name": "amount",
          "type": "uint256"
        }
      ],
      "stateMutability": "view",
      "type": "function"
    },
    {
      "inputs": [
        {
          "internalType": "uint256",
          "name": "",
          "type": "uint256"
        }
      ],
      "name": "totalSupplySnapshotIds",
      "outputs": [
        {
          "internalType": "uint256",
          "name": "",
          "type": "uint256"
        }
      ],
      "stateMutability": "view",
      "type": "function"
    },
    {
      "inputs": [
        {
          "internalType": "uint256",
          "name": "",
          "type": "uint256"
        }
      ],
      "name": "totalSupplySnapshots",
      "outputs": [
        {
          "internalType": "uint256",
          "name": "balance",
          "type": "uint256"
        },
        {
          "internalType": "uint256",
          "name": "refactoredCount",
          "type": "uint256"
        }
      ],
      "stateMutability": "view",
      "type": "function"
    },
    {
      "inputs": [
        {
          "internalType": "address",
          "name": "newAdmin",
          "type": "address"
        }
      ],
      "name": "transferAdmin",
      "outputs": [],
      "stateMutability": "nonpayable",
      "type": "function"
    },
    {
      "inputs": [
        {
          "internalType": "address",
          "name": "newAdmin",
          "type": "address"
        }
      ],
      "name": "transferOwnership",
      "outputs": [],
      "stateMutability": "nonpayable",
      "type": "function"
    }
  ],
  "transactionHash": "0x64bac8afcf552f1e57aa464922814c538b4e85607eb4f9d4bab3c5143d7c5af0",
  "args": [],
  "numDeployments": 1,
  "solcInputHash": "690aeb5bdc4999f95e2f99524e1cc502",
  "bytecode": "0x608060405234801561001057600080fd5b50612dad806100206000396000f3fe608060405234801561001057600080fd5b50600436106103c45760003560e01c80636d70f7ae116101ff5780639870d7fe1161011a578063bd3a13f6116100ad578063de4c56151161007c578063de4c561514610915578063f2fde38b14610928578063f5b541a61461093b578063fad8b32a1461096257600080fd5b8063bd3a13f6146108b5578063cfbd4885146108c8578063d5391393146108db578063d547741f1461090257600080fd5b8063ac8a584a116100e9578063ac8a584a1461083f578063b7c246d714610852578063b7d78b1a14610865578063b911135f1461088c57600080fd5b80639870d7fe14610809578063a15150c51461081c578063a217fddf14610824578063aa271e1a1461082c57600080fd5b8063817e9d311161019257806395d89b411161016157806395d89b41146107d3578063981b24d0146107db578063983b2d56146107ee578063986502751461080157600080fd5b8063817e9d3114610747578063837afbc01461075a5780638f32d59b1461076357806391d148541461079a57600080fd5b8063715018a6116101ce578063715018a61461070657806375829def1461070e5780637657f20a1461072157806379cc67901461073457600080fd5b80636d70f7ae146106ba5780636fb7f558146106cd57806370480275146106e057806370a08231146106f357600080fd5b8063313ce567116102ef578063550d01a311610282578063614db8b211610251578063614db8b21461067457806363a8fd891461068757806369f499b1146106945780636d628f98146106a757600080fd5b8063550d01a3146105f657806356fabf68146106195780635deaecec1461062c5780636078f8b01461065357600080fd5b80634ee2cd7e116102be5780634ee2cd7e1461058757806350d2a2761461059a57806353b290f6146105db57806354f703f8146105ee57600080fd5b8063313ce5671461053f57806336568abe1461054e57806340c10f191461056157806342966c681461057457600080fd5b80631785f53c116103675780632ab6f8db116103365780632ab6f8db146104fc5780632d3af710146105045780632f2ff15d146105195780633092afd51461052c57600080fd5b80631785f53c146104a957806318160ddd146104be578063248a9ca3146104c657806324d7806c146104e957600080fd5b8063024c2ddd116103a3578063024c2ddd1461041a5780630461fdc51461044557806306fdde031461048c57806313977042146104a157600080fd5b8062d87a9c146103c957806301f6a80a146103e457806301ffc9a7146103f7575b600080fd5b6103d1600281565b6040519081526020015b60405180910390f35b6103d16103f236600461268e565b610975565b61040a6104053660046126dd565b61098f565b60405190151581526020016103db565b6103d161042836600461271e565b600960209081526000928352604080842090915290825290205481565b610477610453366004612751565b600f6020908152600092835260408084209091529082529020805460019091015482565b604080519283526020830191909152016103db565b61049461099a565b6040516103db919061279f565b6103d1610a28565b6104bc6104b73660046127d2565b610a9b565b005b6103d1610ad7565b6103d16104d43660046127ed565b60009081526005602052604090206001015490565b61040a6104f73660046127d2565b610ae4565b6104bc610b24565b61050c610b50565b6040516103db9190612806565b6104bc61052736600461281d565b610b9f565b6104bc61053a3660046127d2565b610bc9565b604051601b81526020016103db565b6104bc61055c36600461281d565b610c14565b61040a61056f366004612751565b610ca0565b6104bc6105823660046127ed565b610d3d565b6103d1610595366004612751565b610d47565b6105c36105a83660046126dd565b6003602052600090815260409020546001600160a01b031681565b6040516001600160a01b0390911681526020016103db565b61050c6105e93660046127d2565b610d78565b6103d1610e03565b61040a6106043660046127d2565b60026020526000908152604090205460ff1681565b6103d16106273660046127ed565b610e33565b61047761063a3660046127ed565b600d602052600090815260409020805460019091015482565b61066661066136600461281d565b610e54565b6040516103db929190612840565b6103d16106823660046127ed565b610fb1565b60005461040a9060ff1681565b6103d16106a2366004612751565b610fc1565b6106666106b53660046127ed565b610ff2565b61040a6106c83660046127d2565b61115f565b6006546105c3906001600160a01b031681565b6104bc6106ee3660046127d2565b61119f565b6103d16107013660046127d2565b6111cf565b6104bc6111dd565b6104bc61071c3660046127d2565b61120d565b6104bc61072f3660046127d2565b6112f6565b6104bc610742366004612751565b61134a565b61040a6107553660046127ed565b6113de565b6103d160105481565b3360009081527f05b8ccbb9d4d8fb16ea74ce3c29a41f1b461fbdaff4714a0d9a8eb05499746bc602052604090205460ff1661040a565b61040a6107a836600461281d565b60009182526005602090815260408084206001600160a01b0393909316845291905290205460ff1690565b6104946114ac565b6103d16107e93660046127ed565b6114b9565b6104bc6107fc3660046127d2565b6114e8565b6104bc611537565b6104bc6108173660046127d2565b611561565b61050c6115b0565b6103d1600081565b61040a61083a3660046127d2565b6115ff565b6104bc61084d3660046127d2565b61163f565b6103d16b204fce5e3e2502611000000081565b6104776108733660046127ed565b600b602052600090815260409020805460019091015482565b6105c361089a3660046127ed565b6001602052600090815260409020546001600160a01b031681565b6104bc6108c33660046128ed565b61168e565b6104bc6108d63660046127d2565b6117b6565b6103d17ff0887ba65ee2024ea881d91b74c2450ef19e1557f03bed3ea9f16b037cbe2dc981565b6104bc61091036600461281d565b611801565b6106666109233660046127ed565b611826565b6104bc6109363660046127d2565b61198b565b6103d17f523a704056dcd17bcf83bed8b68c59416dac1119be77755efe3bde0a64e46e0c81565b6104bc6109703660046127d2565b6119b9565b600061098982600001518360200151611a08565b92915050565b600061098982611a72565b600780546109a79061296b565b80601f01602080910402602001604051908101604052809291908181526020018280546109d39061296b565b8015610a205780601f106109f557610100808354040283529160200191610a20565b820191906000526020600020905b815481529060010190602001808311610a0357829003601f168201915b505050505081565b600654604080516309cbb82160e11b815290516000926001600160a01b03169163139770429160048083019260209291908290030181865afa158015610a72573d6000803e3d6000fd5b505050506040513d601f19601f82011682018060405250810190610a9691906129a5565b905090565b610aa433610ae4565b610ac95760405162461bcd60e51b8152600401610ac0906129be565b60405180910390fd5b610ad4600082610c14565b50565b6000610a966103f26115b0565b6001600160a01b03811660009081527f05b8ccbb9d4d8fb16ea74ce3c29a41f1b461fbdaff4714a0d9a8eb05499746bc602052604081205460ff16610989565b610b4e7f523a704056dcd17bcf83bed8b68c59416dac1119be77755efe3bde0a64e46e0c33610c14565b565b6040805180820190915260008082526020820152600c5460009015610b745750600c545b6000908152600d60209081526040918290208251808401909352805483526001015490820152919050565b600082815260056020526040902060010154610bba81611a97565b610bc48383611aa1565b505050565b610bd233610ae4565b610bee5760405162461bcd60e51b8152600401610ac0906129be565b610ad47ff0887ba65ee2024ea881d91b74c2450ef19e1557f03bed3ea9f16b037cbe2dc9825b6001600160a01b0381163314610c925760405162461bcd60e51b815260206004820152602f60248201527f416363657373436f6e74726f6c3a2063616e206f6e6c792072656e6f756e636560448201527f20726f6c657320666f722073656c6600000000000000000000000000000000006064820152608401610ac0565b610c9c8282611b43565b5050565b3360009081527fca0a2f641ec05ca23127d994cf03ffc453db616acae0b86cb56bb95304d06854602052604081205460ff16610d2a5760405162461bcd60e51b815260206004820152602360248201527f41757468436f6e74726f6c3a2043616c6c6572206973206e6f742061206d696e6044820152623a32b960e91b6064820152608401610ac0565b610d348383611bc6565b50600192915050565b610ad43382611d74565b600080610d548385610e54565b9150506000610d6284610ff2565b915050610d6f8282611f68565b95945050505050565b60408051808201909152600080825260208201526001600160a01b0382166000908152600e602052604081205415610dc557506001600160a01b0382166000908152600e60205260409020545b6001600160a01b039092166000908152600f602090815260408083209483529381529083902083518085019094528054845260010154908301525090565b600080610e0e610b50565b905080602001516002610e219190612af3565b8151610e2d9190612aff565b91505090565b600c8181548110610e4357600080fd5b600091825260209091200154905081565b6000610e73604051806040016040528060008152602001600081525090565b83600003610ed1576000610e85610a28565b1115610ecc5750506001600160a01b0381166000908152600f6020908152604080832083805282529182902082518084019093528054835260019081015491830191909152905b610faa565b610ed9610a28565b8411610faa576001600160a01b0383166000908152600e60205260408120610f019086611fcf565b6001600160a01b0385166000908152600e602052604090205490915015610f68576001600160a01b0384166000908152600f602090815260408083208484528252918290208251808401909352805483526001908101549183019190915293509150610fa8565b6001600160a01b0384166000908152600f602090815260408083208380528252808320815180830190925280548252600101549181019190915290935091505b505b9250929050565b600a8181548110610e4357600080fd5b600e6020528160005260406000208181548110610fdd57600080fd5b90600052602060002001600091509150505481565b6000611011604051806040016040528060008152602001600081525090565b82600003611096576000611023610a28565b111561109157505060008052600d6020908152604080518082019091527f81955a0a11e65eac625c29e8882660bae4e165a75d72780094acae8ece9a29ee5481527f81955a0a11e65eac625c29e8882660bae4e165a75d72780094acae8ece9a29ef54918101919091526001905b915091565b61109e610a28565b83116110915760006110b1600c85611fcf565b600c54909150156110f0576000818152600d60209081526040918290208251808401909352805483526001908101549183019190915293509150611159565b6000808052600d6020908152604080518082019091527f81955a0a11e65eac625c29e8882660bae4e165a75d72780094acae8ece9a29ee5481527f81955a0a11e65eac625c29e8882660bae4e165a75d72780094acae8ece9a29ef549181019190915290935091505b50915091565b6001600160a01b03811660009081527f02634a7c777b8129955fe1824eee49ef19dfa96f2f4cb63212492c3d84eb58e6602052604081205460ff16610989565b6111a833610ae4565b6111c45760405162461bcd60e51b8152600401610ac0906129be565b610ad4600082610b9f565b60006109896103f283610d78565b6111e633610ae4565b6112025760405162461bcd60e51b8152600401610ac0906129be565b610b4e600033610c14565b61121633610ae4565b6112325760405162461bcd60e51b8152600401610ac0906129be565b6001600160a01b0381166112885760405162461bcd60e51b815260206004820152601860248201527f41636365737369626c653a207a65726f206164647265737300000000000000006044820152606401610ac0565b6001600160a01b03811633036112e05760405162461bcd60e51b815260206004820152601660248201527f41636365737369626c653a2073616d652061646d696e000000000000000000006044820152606401610ac0565b6112eb600082610b9f565b610ad4600033610c14565b6112ff33610ae4565b61131b5760405162461bcd60e51b8152600401610ac0906129be565b6006805473ffffffffffffffffffffffffffffffffffffffff19166001600160a01b0392909216919091179055565b3360009081527fca0a2f641ec05ca23127d994cf03ffc453db616acae0b86cb56bb95304d06854602052604090205460ff166113d45760405162461bcd60e51b815260206004820152602360248201527f41757468436f6e74726f6c3a2043616c6c6572206973206e6f742061206d696e6044820152623a32b960e91b6064820152608401610ac0565b610c9c8282611d74565b60006113e933610ae4565b6114055760405162461bcd60e51b8152600401610ac0906129be565b600061140f610b50565b90506000835b6b204fce5e3e250261100000008110611448578161143281612b16565b92506114419050600282612b2f565b9050611415565b60408051808201909152818152602081018390526114658161211b565b7f29ca2230155ed7b305631c2160bcce185fe471567c0e99ae17de3b6a909a838d8482604051611496929190612b51565b60405180910390a160019450505050505b919050565b600880546109a79061296b565b6000806114c583611826565b91505060006114d384610ff2565b9150506114e08282611f68565b949350505050565b6114f133610ae4565b61150d5760405162461bcd60e51b8152600401610ac0906129be565b610ad47ff0887ba65ee2024ea881d91b74c2450ef19e1557f03bed3ea9f16b037cbe2dc982610b9f565b610b4e7ff0887ba65ee2024ea881d91b74c2450ef19e1557f03bed3ea9f16b037cbe2dc933610c14565b61156a33610ae4565b6115865760405162461bcd60e51b8152600401610ac0906129be565b610ad47f523a704056dcd17bcf83bed8b68c59416dac1119be77755efe3bde0a64e46e0c82610b9f565b6040805180820190915260008082526020820152600a54600090156115d45750600a545b6000908152600b60209081526040918290208251808401909352805483526001015490820152919050565b6001600160a01b03811660009081527fca0a2f641ec05ca23127d994cf03ffc453db616acae0b86cb56bb95304d06854602052604081205460ff16610989565b61164833610ae4565b6116645760405162461bcd60e51b8152600401610ac0906129be565b610ad47f523a704056dcd17bcf83bed8b68c59416dac1119be77755efe3bde0a64e46e0c82610c14565b60008052600d6020527f81955a0a11e65eac625c29e8882660bae4e165a75d72780094acae8ece9a29ee54156117065760405162461bcd60e51b815260206004820152601360248201527f616c726561647920696e697469616c697a6564000000000000000000000000006044820152606401610ac0565b60076117128582612bc5565b50600861171f8482612bc5565b506040805180820190915291825260006020808401828152918052600d905291517f81955a0a11e65eac625c29e8882660bae4e165a75d72780094acae8ece9a29ee5590517f81955a0a11e65eac625c29e8882660bae4e165a75d72780094acae8ece9a29ef556006805473ffffffffffffffffffffffffffffffffffffffff19166001600160a01b039092169190911790555050565b6117bf33610ae4565b6117db5760405162461bcd60e51b8152600401610ac0906129be565b610ad47ff0887ba65ee2024ea881d91b74c2450ef19e1557f03bed3ea9f16b037cbe2dc9825b60008281526005602052604090206001015461181c81611a97565b610bc48383611b43565b6000611845604051806040016040528060008152602001600081525090565b826000036118c7576000611857610a28565b11156110915750506000805250600b6020908152604080518082019091527fdf7de25b7f1fd6d0b5205f0e18f1f35bd7b8d84cce336588d184533ce43a6f765481527fdf7de25b7f1fd6d0b5205f0e18f1f35bd7b8d84cce336588d184533ce43a6f775491810191909152600191565b6118cf610a28565b83116110915760006118e2600a85611fcf565b600a5490915015611921576000818152600b60209081526040918290208251808401909352805483526001908101549183019190915293509150611159565b60008052600b6020908152604080518082019091527fdf7de25b7f1fd6d0b5205f0e18f1f35bd7b8d84cce336588d184533ce43a6f765481527fdf7de25b7f1fd6d0b5205f0e18f1f35bd7b8d84cce336588d184533ce43a6f775491810191909152915050915091565b61199433610ae4565b6119b05760405162461bcd60e51b8152600401610ac0906129be565b610ad48161120d565b6119c233610ae4565b6119de5760405162461bcd60e51b8152600401610ac0906129be565b610ad47f523a704056dcd17bcf83bed8b68c59416dac1119be77755efe3bde0a64e46e0c82611801565b600082600003611a1a57506000610989565b6000611a24610b50565b9050611a34848260000151612194565b93508281602001511115611a6a57828160200151611a529190612c85565b611a5d906002612af3565b611a679085612aff565b93505b509192915050565b60006001600160e01b03198216637965db0b60e01b14806109895750610989826121be565b610ad481336121fa565b60008281526005602090815260408083206001600160a01b038516845290915290205460ff16610c9c5760008281526005602090815260408083206001600160a01b03851684529091529020805460ff19166001179055611aff3390565b6001600160a01b0316816001600160a01b0316837f2f8788117e7eff1d82e926ec794901d17c78024a50270940304540a733656f0d60405160405180910390a45050565b60008281526005602090815260408083206001600160a01b038516845290915290205460ff1615610c9c5760008281526005602090815260408083206001600160a01b0385168085529252808320805460ff1916905551339285917ff6391f5c32d9c69d2a47ea670b442974b53935d1edc7fd64eb21e047a839171b9190a45050565b6001600160a01b038216611c425760405162461bcd60e51b815260206004820152602d60248201527f4175746f5265666163746f72436f696e6167653a206d696e7420746f2074686560448201527f207a65726f2061646472657373000000000000000000000000000000000000006064820152608401610ac0565b6000611c4c610b50565b90506000611c586115b0565b90506000611c6585610d78565b90506000611c7282610975565b90506000611c7f84610975565b90506000611c95611c908885612c98565b61226f565b90506000611ca6611c908985612c98565b60408051808201825284815260208a810180518284015283518085019094528484525190830152919250611cde82828d600180612283565b8a6001600160a01b03167f452b30c947ea249a4a1a2c0410f1780e479e022d06691644108f38c3b3e17c4788848b85604051611d1d9493929190612cab565b60405180910390a26040518a81526001600160a01b038c16906000907fddf252ad1be2c89b69c2b068fc378daa952ba7f163c4a11628f55a4df523b3ef906020015b60405180910390a35050505050505050505050565b6001600160a01b038216611df05760405162461bcd60e51b815260206004820152602f60248201527f4175746f5265666163746f72436f696e6167653a206275726e2066726f6d207460448201527f6865207a65726f206164647265737300000000000000000000000000000000006064820152608401610ac0565b6000611dfa610b50565b90506000611e066115b0565b90506000611e1385610d78565b90506000611e2083610975565b90506000611e2d83610975565b9050858110158015611e3f5750858210155b611e8b5760405162461bcd60e51b815260206004820152601460248201527f696e73756666696369656e742062616c616e63650000000000000000000000006044820152606401610ac0565b6000611e9a611c908885612c85565b90506000611eab611c908985612c85565b60408051808201825284815260208a810180518284015283518085019094528484525190830152919250611ee381838d600180612283565b8a6001600160a01b03167f452b30c947ea249a4a1a2c0410f1780e479e022d06691644108f38c3b3e17c4788838b86604051611f229493929190612cab565b60405180910390a26040518a81526000906001600160a01b038d16907fddf252ad1be2c89b69c2b068fc378daa952ba7f163c4a11628f55a4df523b3ef90602001611d5f565b81516000908103611f7b57506000610989565b82518251611f899190612194565b8352602080840151908301511115611fc95782602001518260200151611faf9190612c85565b611fba906002612af3565b8351611fc69190612aff565b83525b50505190565b81546000908103611fe257506000610989565b82548390611ff290600190612c85565b8154811061200257612002612cf2565b90600052602060002001548210612045578254839061202390600190612c85565b8154811061203357612033612cf2565b90600052602060002001549050610989565b8260008154811061205857612058612cf2565b906000526020600020015482101561207257506000610989565b8254600090819061208590600190612c85565b90505b818111156120f4576000600261209e8484612c98565b6120a9906001612c98565b6120b39190612b2f565b9050848682815481106120c8576120c8612cf2565b9060005260206000200154116120e0578092506120ee565b6120eb600182612c85565b91505b50612088565b84828154811061210657612106612cf2565b90600052602060002001549250505092915050565b6000612125610a28565b90506000612133600c6123f2565b90508181101561217357600c80546001810182556000919091527fdf6966c971051c3d54ec59162606531493a51404a002842f56009d7e5cf4a8c7018290555b506000908152600d6020908152604090912082518155910151600190910155565b60006b033b2e3c9fd0803ce80000006121ad8484612434565b6121b79190612b2f565b9392505050565b60006301ffc9a760e01b6001600160e01b0319831614806109895750506001600160e01b03191660009081526004602052604090205460ff1690565b60008281526005602090815260408083206001600160a01b038516845290915290205460ff16610c9c5761222d816124a4565b6122388360206124b6565b604051602001612249929190612d08565b60408051601f198184030181529082905262461bcd60e51b8252610ac09160040161279f565b60006109898261227d610b50565b5161265f565b600061228d610a28565b6001600160a01b0385166000908152600e60205260408120919250906122b2906123f2565b905060006122c0600a6123f2565b90508415612384576001600160a01b03861661231e5760405162461bcd60e51b815260206004820152600c60248201527f7a65726f206163636f756e7400000000000000000000000000000000000000006044820152606401610ac0565b82821015612352576001600160a01b0386166000908152600e60209081526040822080546001810182559083529120018390555b6001600160a01b0386166000908152600f60209081526040808320868452825290912089518155908901516001909101555b83156123e857828110156123c857600a80546001810182556000919091527fc65a7bb8d6351c1cf70c95a316cc6a92839c986682d98bc35f958f4883f9d2a8018390555b6000838152600b6020908152604090912088518155908801516001909101555b5050505050505050565b80546000901561242c578154829061240c90600190612c85565b8154811061241c5761241c612cf2565b9060005260206000200154610989565b600092915050565b60008115806124585750828261244a8183612aff565b92506124569083612b2f565b145b6109895760405162461bcd60e51b815260206004820152601460248201527f64732d6d6174682d6d756c2d6f766572666c6f770000000000000000000000006044820152606401610ac0565b60606109896001600160a01b03831660145b606060006124c5836002612aff565b6124d0906002612c98565b67ffffffffffffffff8111156124e8576124e8612678565b6040519080825280601f01601f191660200182016040528015612512576020820181803683370190505b509050600360fc1b8160008151811061252d5761252d612cf2565b60200101906001600160f81b031916908160001a905350600f60fb1b8160018151811061255c5761255c612cf2565b60200101906001600160f81b031916908160001a9053506000612580846002612aff565b61258b906001612c98565b90505b6001811115612610577f303132333435363738396162636465660000000000000000000000000000000085600f16601081106125cc576125cc612cf2565b1a60f81b8282815181106125e2576125e2612cf2565b60200101906001600160f81b031916908160001a90535060049490941c9361260981612d89565b905061258e565b5083156121b75760405162461bcd60e51b815260206004820181905260248201527f537472696e67733a20686578206c656e67746820696e73756666696369656e746044820152606401610ac0565b6000816121ad846b033b2e3c9fd0803ce8000000612434565b634e487b7160e01b600052604160045260246000fd5b6000604082840312156126a057600080fd5b6040516040810181811067ffffffffffffffff821117156126c3576126c3612678565b604052823581526020928301359281019290925250919050565b6000602082840312156126ef57600080fd5b81356001600160e01b0319811681146121b757600080fd5b80356001600160a01b03811681146114a757600080fd5b6000806040838503121561273157600080fd5b61273a83612707565b915061274860208401612707565b90509250929050565b6000806040838503121561276457600080fd5b61276d83612707565b946020939093013593505050565b60005b8381101561279657818101518382015260200161277e565b50506000910152565b60208152600082518060208401526127be81604085016020870161277b565b601f01601f19169190910160400192915050565b6000602082840312156127e457600080fd5b6121b782612707565b6000602082840312156127ff57600080fd5b5035919050565b815181526020808301519082015260408101610989565b6000806040838503121561283057600080fd5b8235915061274860208401612707565b8215158152606081016121b7602083018480518252602090810151910152565b600082601f83011261287157600080fd5b813567ffffffffffffffff8082111561288c5761288c612678565b604051601f8301601f19908116603f011681019082821181831017156128b4576128b4612678565b816040528381528660208588010111156128cd57600080fd5b836020870160208301376000602085830101528094505050505092915050565b6000806000806080858703121561290357600080fd5b843567ffffffffffffffff8082111561291b57600080fd5b61292788838901612860565b9550602087013591508082111561293d57600080fd5b5061294a87828801612860565b9350506040850135915061296060608601612707565b905092959194509250565b600181811c9082168061297f57607f821691505b60208210810361299f57634e487b7160e01b600052602260045260246000fd5b50919050565b6000602082840312156129b757600080fd5b5051919050565b60208082526023908201527f41757468436f6e74726f6c3a2043616c6c6572206973206e6f7420616e20616460408201526236b4b760e91b606082015260800190565b634e487b7160e01b600052601160045260246000fd5b600181815b80851115610fa8578160001904821115612a3857612a38612a01565b80851615612a4557918102915b93841c9390800290612a1c565b600082612a6157506001610989565b81612a6e57506000610989565b8160018114612a845760028114612a8e57612aaa565b6001915050610989565b60ff841115612a9f57612a9f612a01565b50506001821b610989565b5060208310610133831016604e8410600b8410161715612acd575081810a610989565b612ad78383612a17565b8060001904821115612aeb57612aeb612a01565b029392505050565b60006121b78383612a52565b808202811582820484141761098957610989612a01565b600060018201612b2857612b28612a01565b5060010190565b600082612b4c57634e487b7160e01b600052601260045260246000fd5b500490565b8251815260208084015181830152825160408301528201516060820152608081016121b7565b601f821115610bc457600081815260208120601f850160051c81016020861015612b9e5750805b601f850160051c820191505b81811015612bbd57828155600101612baa565b505050505050565b815167ffffffffffffffff811115612bdf57612bdf612678565b612bf381612bed845461296b565b84612b77565b602080601f831160018114612c285760008415612c105750858301515b600019600386901b1c1916600185901b178555612bbd565b600085815260208120601f198616915b82811015612c5757888601518255948401946001909101908401612c38565b5085821015612c755787850151600019600388901b60f8161c191681555b5050505050600190811b01905550565b8181038181111561098957610989612a01565b8082018082111561098957610989612a01565b845181526020808601518183015284516040830152848101516060830152835160808301528381015160a0830152825160c083015282015160e08201526101008101610d6f565b634e487b7160e01b600052603260045260246000fd5b7f416363657373436f6e74726f6c3a206163636f756e7420000000000000000000815260008351612d4081601785016020880161277b565b7f206973206d697373696e6720726f6c65200000000000000000000000000000006017918401918201528351612d7d81602884016020880161277b565b01602801949350505050565b600081612d9857612d98612a01565b50600019019056fea164736f6c6343000813000a",
  "devdoc": {
    "details": "Implementation of coin age token based on ERC20 of openzeppelin/-solidity AutoRefactorCoinage stores `_totalSupply` and `_balances` as RAY BASED value, `_allowances` as RAY FACTORED value. This takes public function (including _approve) parameters as RAY FACTORED value and internal function (including approve) parameters as RAY BASED value, and emits event in RAY FACTORED value. `RAY BASED` = `RAY FACTORED`  / factor  factor increases exponentially for each block mined.",
    "events": {
      "RoleAdminChanged(bytes32,bytes32,bytes32)": {
        "details": "Emitted when `newAdminRole` is set as ``role``'s admin role, replacing `previousAdminRole` `DEFAULT_ADMIN_ROLE` is the starting admin for all roles, despite {RoleAdminChanged} not being emitted signaling this. _Available since v3.1._"
      },
      "RoleGranted(bytes32,address,address)": {
        "details": "Emitted when `account` is granted `role`. `sender` is the account that originated the contract call, an admin role bearer except when using {AccessControl-_setupRole}."
      },
      "RoleRevoked(bytes32,address,address)": {
        "details": "Emitted when `account` is revoked `role`. `sender` is the account that originated the contract call:   - if using `revokeRole`, it is the admin role bearer   - if using `renounceRole`, it is the role bearer (i.e. `account`)"
      }
    },
    "kind": "dev",
    "methods": {
      "addAdmin(address)": {
        "details": "add admin",
        "params": {
          "account": "address to add"
        }
      },
      "getRoleAdmin(bytes32)": {
        "details": "Returns the admin role that controls `role`. See {grantRole} and {revokeRole}. To change a role's admin, use {_setRoleAdmin}."
      },
      "grantRole(bytes32,address)": {
        "details": "Grants `role` to `account`. If `account` had not been already granted `role`, emits a {RoleGranted} event. Requirements: - the caller must have ``role``'s admin role. May emit a {RoleGranted} event."
      },
      "hasRole(bytes32,address)": {
        "details": "Returns `true` if `account` has been granted `role`."
      },
      "isAdmin(address)": {
        "details": "whether admin",
        "params": {
          "account": "address to check"
        }
      },
      "removeAdmin(address)": {
        "details": "remove admin",
        "params": {
          "account": "address to remove"
        }
      },
      "renounceRole(bytes32,address)": {
        "details": "Revokes `role` from the calling account. Roles are often managed via {grantRole} and {revokeRole}: this function's purpose is to provide a mechanism for accounts to lose their privileges if they are compromised (such as when a trusted device is misplaced). If the calling account had been revoked `role`, emits a {RoleRevoked} event. Requirements: - the caller must be `account`. May emit a {RoleRevoked} event."
      },
      "revokeRole(bytes32,address)": {
        "details": "Revokes `role` from `account`. If `account` had been granted `role`, emits a {RoleRevoked} event. Requirements: - the caller must have ``role``'s admin role. May emit a {RoleRevoked} event."
      },
      "transferAdmin(address)": {
        "details": "transfer admin",
        "params": {
          "newAdmin": "new admin address"
        }
      }
    },
    "version": 1
  },
  "userdoc": {
    "kind": "user",
    "methods": {
      "mint(address,uint256)": {
        "notice": "onlyMinter*"
      },
      "setFactor(uint256)": {
        "notice": "onlyOwner*"
      }
    },
    "version": 1
  },
  "storageLayout": {
    "storage": [
      {
        "astId": 10467,
        "contract": "contracts/stake/tokens/RefactorCoinageSnapshot.sol:RefactorCoinageSnapshot",
        "label": "pauseProxy",
        "offset": 0,
        "slot": "0",
        "type": "t_bool"
      },
      {
        "astId": 10471,
        "contract": "contracts/stake/tokens/RefactorCoinageSnapshot.sol:RefactorCoinageSnapshot",
        "label": "proxyImplementation",
        "offset": 0,
        "slot": "1",
        "type": "t_mapping(t_uint256,t_address)"
      },
      {
        "astId": 10475,
        "contract": "contracts/stake/tokens/RefactorCoinageSnapshot.sol:RefactorCoinageSnapshot",
        "label": "aliveImplementation",
        "offset": 0,
        "slot": "2",
        "type": "t_mapping(t_address,t_bool)"
      },
      {
        "astId": 10479,
        "contract": "contracts/stake/tokens/RefactorCoinageSnapshot.sol:RefactorCoinageSnapshot",
        "label": "selectorImplementation",
        "offset": 0,
        "slot": "3",
        "type": "t_mapping(t_bytes4,t_address)"
      },
      {
        "astId": 1801,
        "contract": "contracts/stake/tokens/RefactorCoinageSnapshot.sol:RefactorCoinageSnapshot",
        "label": "_supportedInterfaces",
        "offset": 0,
        "slot": "4",
        "type": "t_mapping(t_bytes4,t_bool)"
      },
      {
        "astId": 24,
        "contract": "contracts/stake/tokens/RefactorCoinageSnapshot.sol:RefactorCoinageSnapshot",
        "label": "_roles",
        "offset": 0,
        "slot": "5",
        "type": "t_mapping(t_bytes32,t_struct(RoleData)19_storage)"
      },
      {
        "astId": 19949,
        "contract": "contracts/stake/tokens/RefactorCoinageSnapshot.sol:RefactorCoinageSnapshot",
        "label": "seigManager",
        "offset": 0,
        "slot": "6",
        "type": "t_address"
      },
      {
        "astId": 19951,
        "contract": "contracts/stake/tokens/RefactorCoinageSnapshot.sol:RefactorCoinageSnapshot",
        "label": "name",
        "offset": 0,
        "slot": "7",
        "type": "t_string_storage"
      },
      {
        "astId": 19953,
        "contract": "contracts/stake/tokens/RefactorCoinageSnapshot.sol:RefactorCoinageSnapshot",
        "label": "symbol",
        "offset": 0,
        "slot": "8",
        "type": "t_string_storage"
      },
      {
        "astId": 19959,
        "contract": "contracts/stake/tokens/RefactorCoinageSnapshot.sol:RefactorCoinageSnapshot",
        "label": "_allowances",
        "offset": 0,
        "slot": "9",
        "type": "t_mapping(t_address,t_mapping(t_address,t_uint256))"
      },
      {
        "astId": 19962,
        "contract": "contracts/stake/tokens/RefactorCoinageSnapshot.sol:RefactorCoinageSnapshot",
        "label": "totalSupplySnapshotIds",
        "offset": 0,
        "slot": "10",
        "type": "t_array(t_uint256)dyn_storage"
      },
      {
        "astId": 19967,
        "contract": "contracts/stake/tokens/RefactorCoinageSnapshot.sol:RefactorCoinageSnapshot",
        "label": "totalSupplySnapshots",
        "offset": 0,
        "slot": "11",
        "type": "t_mapping(t_uint256,t_struct(Balance)19934_storage)"
      },
      {
        "astId": 19970,
        "contract": "contracts/stake/tokens/RefactorCoinageSnapshot.sol:RefactorCoinageSnapshot",
        "label": "factorSnapshotIds",
        "offset": 0,
        "slot": "12",
        "type": "t_array(t_uint256)dyn_storage"
      },
      {
        "astId": 19975,
        "contract": "contracts/stake/tokens/RefactorCoinageSnapshot.sol:RefactorCoinageSnapshot",
        "label": "factorSnapshots",
        "offset": 0,
        "slot": "13",
        "type": "t_mapping(t_uint256,t_struct(Factor)19939_storage)"
      },
      {
        "astId": 19980,
        "contract": "contracts/stake/tokens/RefactorCoinageSnapshot.sol:RefactorCoinageSnapshot",
        "label": "accountBalanceIds",
        "offset": 0,
        "slot": "14",
        "type": "t_mapping(t_address,t_array(t_uint256)dyn_storage)"
      },
      {
        "astId": 19987,
        "contract": "contracts/stake/tokens/RefactorCoinageSnapshot.sol:RefactorCoinageSnapshot",
        "label": "accountBalanceSnapshots",
        "offset": 0,
        "slot": "15",
        "type": "t_mapping(t_address,t_mapping(t_uint256,t_struct(Balance)19934_storage))"
      },
      {
        "astId": 19989,
        "contract": "contracts/stake/tokens/RefactorCoinageSnapshot.sol:RefactorCoinageSnapshot",
        "label": "lastSnapshotId",
        "offset": 0,
        "slot": "16",
        "type": "t_uint256"
      }
    ],
    "types": {
      "t_address": {
        "encoding": "inplace",
        "label": "address",
        "numberOfBytes": "20"
      },
      "t_array(t_uint256)dyn_storage": {
        "base": "t_uint256",
        "encoding": "dynamic_array",
        "label": "uint256[]",
        "numberOfBytes": "32"
      },
      "t_bool": {
        "encoding": "inplace",
        "label": "bool",
        "numberOfBytes": "1"
      },
      "t_bytes32": {
        "encoding": "inplace",
        "label": "bytes32",
        "numberOfBytes": "32"
      },
      "t_bytes4": {
        "encoding": "inplace",
        "label": "bytes4",
        "numberOfBytes": "4"
      },
      "t_mapping(t_address,t_array(t_uint256)dyn_storage)": {
        "encoding": "mapping",
        "key": "t_address",
        "label": "mapping(address => uint256[])",
        "numberOfBytes": "32",
        "value": "t_array(t_uint256)dyn_storage"
      },
      "t_mapping(t_address,t_bool)": {
        "encoding": "mapping",
        "key": "t_address",
        "label": "mapping(address => bool)",
        "numberOfBytes": "32",
        "value": "t_bool"
      },
      "t_mapping(t_address,t_mapping(t_address,t_uint256))": {
        "encoding": "mapping",
        "key": "t_address",
        "label": "mapping(address => mapping(address => uint256))",
        "numberOfBytes": "32",
        "value": "t_mapping(t_address,t_uint256)"
      },
      "t_mapping(t_address,t_mapping(t_uint256,t_struct(Balance)19934_storage))": {
        "encoding": "mapping",
        "key": "t_address",
        "label": "mapping(address => mapping(uint256 => struct RefactorCoinageSnapshotStorage.Balance))",
        "numberOfBytes": "32",
        "value": "t_mapping(t_uint256,t_struct(Balance)19934_storage)"
      },
      "t_mapping(t_address,t_uint256)": {
        "encoding": "mapping",
        "key": "t_address",
        "label": "mapping(address => uint256)",
        "numberOfBytes": "32",
        "value": "t_uint256"
      },
      "t_mapping(t_bytes32,t_struct(RoleData)19_storage)": {
        "encoding": "mapping",
        "key": "t_bytes32",
        "label": "mapping(bytes32 => struct AccessControl.RoleData)",
        "numberOfBytes": "32",
        "value": "t_struct(RoleData)19_storage"
      },
      "t_mapping(t_bytes4,t_address)": {
        "encoding": "mapping",
        "key": "t_bytes4",
        "label": "mapping(bytes4 => address)",
        "numberOfBytes": "32",
        "value": "t_address"
      },
      "t_mapping(t_bytes4,t_bool)": {
        "encoding": "mapping",
        "key": "t_bytes4",
        "label": "mapping(bytes4 => bool)",
        "numberOfBytes": "32",
        "value": "t_bool"
      },
      "t_mapping(t_uint256,t_address)": {
        "encoding": "mapping",
        "key": "t_uint256",
        "label": "mapping(uint256 => address)",
        "numberOfBytes": "32",
        "value": "t_address"
      },
      "t_mapping(t_uint256,t_struct(Balance)19934_storage)": {
        "encoding": "mapping",
        "key": "t_uint256",
        "label": "mapping(uint256 => struct RefactorCoinageSnapshotStorage.Balance)",
        "numberOfBytes": "32",
        "value": "t_struct(Balance)19934_storage"
      },
      "t_mapping(t_uint256,t_struct(Factor)19939_storage)": {
        "encoding": "mapping",
        "key": "t_uint256",
        "label": "mapping(uint256 => struct RefactorCoinageSnapshotStorage.Factor)",
        "numberOfBytes": "32",
        "value": "t_struct(Factor)19939_storage"
      },
      "t_string_storage": {
        "encoding": "bytes",
        "label": "string",
        "numberOfBytes": "32"
      },
      "t_struct(Balance)19934_storage": {
        "encoding": "inplace",
        "label": "struct RefactorCoinageSnapshotStorage.Balance",
        "members": [
          {
            "astId": 19931,
            "contract": "contracts/stake/tokens/RefactorCoinageSnapshot.sol:RefactorCoinageSnapshot",
            "label": "balance",
            "offset": 0,
            "slot": "0",
            "type": "t_uint256"
          },
          {
            "astId": 19933,
            "contract": "contracts/stake/tokens/RefactorCoinageSnapshot.sol:RefactorCoinageSnapshot",
            "label": "refactoredCount",
            "offset": 0,
            "slot": "1",
            "type": "t_uint256"
          }
        ],
        "numberOfBytes": "64"
      },
      "t_struct(Factor)19939_storage": {
        "encoding": "inplace",
        "label": "struct RefactorCoinageSnapshotStorage.Factor",
        "members": [
          {
            "astId": 19936,
            "contract": "contracts/stake/tokens/RefactorCoinageSnapshot.sol:RefactorCoinageSnapshot",
            "label": "factor",
            "offset": 0,
            "slot": "0",
            "type": "t_uint256"
          },
          {
            "astId": 19938,
            "contract": "contracts/stake/tokens/RefactorCoinageSnapshot.sol:RefactorCoinageSnapshot",
            "label": "refactorCount",
            "offset": 0,
            "slot": "1",
            "type": "t_uint256"
          }
        ],
        "numberOfBytes": "64"
      },
      "t_struct(RoleData)19_storage": {
        "encoding": "inplace",
        "label": "struct AccessControl.RoleData",
        "members": [
          {
            "astId": 16,
            "contract": "contracts/stake/tokens/RefactorCoinageSnapshot.sol:RefactorCoinageSnapshot",
            "label": "members",
            "offset": 0,
            "slot": "0",
            "type": "t_mapping(t_address,t_bool)"
          },
          {
            "astId": 18,
            "contract": "contracts/stake/tokens/RefactorCoinageSnapshot.sol:RefactorCoinageSnapshot",
            "label": "adminRole",
            "offset": 0,
            "slot": "1",
            "type": "t_bytes32"
          }
        ],
        "numberOfBytes": "64"
      },
      "t_uint256": {
        "encoding": "inplace",
        "label": "uint256",
        "numberOfBytes": "32"
      }
    }
  }
}