{
  "_format": "hh-sol-artifact-1",
  "contractName": "AuthControlCoinage",
  "sourceName": "contracts/common/AuthControlCoinage.sol",
  "abi": [
    {
      "anonymous": false,
      "inputs": [
        {
          "indexed": true,
          "internalType": "bytes32",
          "name": "role",
          "type": "bytes32"
        },
        {
          "indexed": true,
          "internalType": "bytes32",
          "name": "previousAdminRole",
          "type": "bytes32"
        },
        {
          "indexed": true,
          "internalType": "bytes32",
          "name": "newAdminRole",
          "type": "bytes32"
        }
      ],
      "name": "RoleAdminChanged",
      "type": "event"
    },
    {
      "anonymous": false,
      "inputs": [
        {
          "indexed": true,
          "internalType": "bytes32",
          "name": "role",
          "type": "bytes32"
        },
        {
          "indexed": true,
          "internalType": "address",
          "name": "account",
          "type": "address"
        },
        {
          "indexed": true,
          "internalType": "address",
          "name": "sender",
          "type": "address"
        }
      ],
      "name": "RoleGranted",
      "type": "event"
    },
    {
      "anonymous": false,
      "inputs": [
        {
          "indexed": true,
          "internalType": "bytes32",
          "name": "role",
          "type": "bytes32"
        },
        {
          "indexed": true,
          "internalType": "address",
          "name": "account",
          "type": "address"
        },
        {
          "indexed": true,
          "internalType": "address",
          "name": "sender",
          "type": "address"
        }
      ],
      "name": "RoleRevoked",
      "type": "event"
    },
    {
      "inputs": [],
      "name": "DEFAULT_ADMIN_ROLE",
      "outputs": [
        {
          "internalType": "bytes32",
          "name": "",
          "type": "bytes32"
        }
      ],
      "stateMutability": "view",
      "type": "function"
    },
    {
      "inputs": [],
      "name": "MINTER_ROLE",
      "outputs": [
        {
          "internalType": "bytes32",
          "name": "",
          "type": "bytes32"
        }
      ],
      "stateMutability": "view",
      "type": "function"
    },
    {
      "inputs": [],
      "name": "OPERATOR_ROLE",
      "outputs": [
        {
          "internalType": "bytes32",
          "name": "",
          "type": "bytes32"
        }
      ],
      "stateMutability": "view",
      "type": "function"
    },
    {
      "inputs": [
        {
          "internalType": "address",
          "name": "account",
          "type": "address"
        }
      ],
      "name": "addAdmin",
      "outputs": [],
      "stateMutability": "nonpayable",
      "type": "function"
    },
    {
      "inputs": [
        {
          "internalType": "address",
          "name": "account",
          "type": "address"
        }
      ],
      "name": "addMinter",
      "outputs": [],
      "stateMutability": "nonpayable",
      "type": "function"
    },
    {
      "inputs": [
        {
          "internalType": "address",
          "name": "account",
          "type": "address"
        }
      ],
      "name": "addOperator",
      "outputs": [],
      "stateMutability": "nonpayable",
      "type": "function"
    },
    {
      "inputs": [
        {
          "internalType": "bytes32",
          "name": "role",
          "type": "bytes32"
        }
      ],
      "name": "getRoleAdmin",
      "outputs": [
        {
          "internalType": "bytes32",
          "name": "",
          "type": "bytes32"
        }
      ],
      "stateMutability": "view",
      "type": "function"
    },
    {
      "inputs": [
        {
          "internalType": "bytes32",
          "name": "role",
          "type": "bytes32"
        },
        {
          "internalType": "address",
          "name": "account",
          "type": "address"
        }
      ],
      "name": "grantRole",
      "outputs": [],
      "stateMutability": "nonpayable",
      "type": "function"
    },
    {
      "inputs": [
        {
          "internalType": "bytes32",
          "name": "role",
          "type": "bytes32"
        },
        {
          "internalType": "address",
          "name": "account",
          "type": "address"
        }
      ],
      "name": "hasRole",
      "outputs": [
        {
          "internalType": "bool",
          "name": "",
          "type": "bool"
        }
      ],
      "stateMutability": "view",
      "type": "function"
    },
    {
      "inputs": [
        {
          "internalType": "address",
          "name": "account",
          "type": "address"
        }
      ],
      "name": "isAdmin",
      "outputs": [
        {
          "internalType": "bool",
          "name": "",
          "type": "bool"
        }
      ],
      "stateMutability": "view",
      "type": "function"
    },
    {
      "inputs": [
        {
          "internalType": "address",
          "name": "account",
          "type": "address"
        }
      ],
      "name": "isMinter",
      "outputs": [
        {
          "internalType": "bool",
          "name": "",
          "type": "bool"
        }
      ],
      "stateMutability": "view",
      "type": "function"
    },
    {
      "inputs": [
        {
          "internalType": "address",
          "name": "account",
          "type": "address"
        }
      ],
      "name": "isOperator",
      "outputs": [
        {
          "internalType": "bool",
          "name": "",
          "type": "bool"
        }
      ],
      "stateMutability": "view",
      "type": "function"
    },
    {
      "inputs": [],
      "name": "isOwner",
      "outputs": [
        {
          "internalType": "bool",
          "name": "",
          "type": "bool"
        }
      ],
      "stateMutability": "view",
      "type": "function"
    },
    {
      "inputs": [
        {
          "internalType": "address",
          "name": "account",
          "type": "address"
        }
      ],
      "name": "removeAdmin",
      "outputs": [],
      "stateMutability": "nonpayable",
      "type": "function"
    },
    {
      "inputs": [
        {
          "internalType": "address",
          "name": "account",
          "type": "address"
        }
      ],
      "name": "removeMinter",
      "outputs": [],
      "stateMutability": "nonpayable",
      "type": "function"
    },
    {
      "inputs": [
        {
          "internalType": "address",
          "name": "account",
          "type": "address"
        }
      ],
      "name": "removeOperator",
      "outputs": [],
      "stateMutability": "nonpayable",
      "type": "function"
    },
    {
      "inputs": [],
      "name": "renounceMinter",
      "outputs": [],
      "stateMutability": "nonpayable",
      "type": "function"
    },
    {
      "inputs": [],
      "name": "renounceOperator",
      "outputs": [],
      "stateMutability": "nonpayable",
      "type": "function"
    },
    {
      "inputs": [],
      "name": "renounceOwnership",
      "outputs": [],
      "stateMutability": "nonpayable",
      "type": "function"
    },
    {
      "inputs": [
        {
          "internalType": "bytes32",
          "name": "role",
          "type": "bytes32"
        },
        {
          "internalType": "address",
          "name": "account",
          "type": "address"
        }
      ],
      "name": "renounceRole",
      "outputs": [],
      "stateMutability": "nonpayable",
      "type": "function"
    },
    {
      "inputs": [
        {
          "internalType": "address",
          "name": "account",
          "type": "address"
        }
      ],
      "name": "revokeMinter",
      "outputs": [],
      "stateMutability": "nonpayable",
      "type": "function"
    },
    {
      "inputs": [
        {
          "internalType": "address",
          "name": "account",
          "type": "address"
        }
      ],
      "name": "revokeOperator",
      "outputs": [],
      "stateMutability": "nonpayable",
      "type": "function"
    },
    {
      "inputs": [
        {
          "internalType": "bytes32",
          "name": "role",
          "type": "bytes32"
        },
        {
          "internalType": "address",
          "name": "account",
          "type": "address"
        }
      ],
      "name": "revokeRole",
      "outputs": [],
      "stateMutability": "nonpayable",
      "type": "function"
    },
    {
      "inputs": [
        {
          "internalType": "bytes4",
          "name": "interfaceId",
          "type": "bytes4"
        }
      ],
      "name": "supportsInterface",
      "outputs": [
        {
          "internalType": "bool",
          "name": "",
          "type": "bool"
        }
      ],
      "stateMutability": "view",
      "type": "function"
    },
    {
      "inputs": [
        {
          "internalType": "address",
          "name": "newAdmin",
          "type": "address"
        }
      ],
      "name": "transferAdmin",
      "outputs": [],
      "stateMutability": "nonpayable",
      "type": "function"
    },
    {
      "inputs": [
        {
          "internalType": "address",
          "name": "newAdmin",
          "type": "address"
        }
      ],
      "name": "transferOwnership",
      "outputs": [],
      "stateMutability": "nonpayable",
      "type": "function"
    }
  ],
  "bytecode": "0x608060405234801561001057600080fd5b5061114a806100206000396000f3fe608060405234801561001057600080fd5b50600436106101ae5760003560e01c806391d14854116100ee578063ac8a584a11610097578063d547741f11610071578063d547741f146103bd578063f2fde38b146103d0578063f5b541a6146103e3578063fad8b32a1461040a57600080fd5b8063ac8a584a14610370578063cfbd488514610383578063d53913931461039657600080fd5b80639870d7fe116100c85780639870d7fe14610342578063a217fddf14610355578063aa271e1a1461035d57600080fd5b806391d14854146102ee578063983b2d5614610327578063986502751461033a57600080fd5b80633092afd51161015b57806370480275116101355780637048027514610289578063715018a61461029c57806375829def146102a45780638f32d59b146102b757600080fd5b80633092afd51461025057806336568abe146102635780636d70f7ae1461027657600080fd5b806324d7806c1161018c57806324d7806c146102225780632ab6f8db146102355780632f2ff15d1461023d57600080fd5b806301ffc9a7146101b35780631785f53c146101db578063248a9ca3146101f0575b600080fd5b6101c66101c1366004610f1c565b61041d565b60405190151581526020015b60405180910390f35b6101ee6101e9366004610f62565b61042e565b005b6102146101fe366004610f7d565b6000908152600160208190526040909120015490565b6040519081526020016101d2565b6101c6610230366004610f62565b610490565b6101ee6104d0565b6101ee61024b366004610f96565b6104fc565b6101ee61025e366004610f62565b610527565b6101ee610271366004610f96565b61059c565b6101c6610284366004610f62565b610628565b6101ee610297366004610f62565b610668565b6101ee6106c2565b6101ee6102b2366004610f62565b61071c565b3360009081527fa6eef7e35abe7026729641147f7915573c7e97b47efa546f5f6e3230263bcb49602052604090205460ff166101c6565b6101c66102fc366004610f96565b60009182526001602090815260408084206001600160a01b0393909316845291905290205460ff1690565b6101ee610335366004610f62565b61082f565b6101ee6108a8565b6101ee610350366004610f62565b6108d2565b610214600081565b6101c661036b366004610f62565b61094b565b6101ee61037e366004610f62565b61098b565b6101ee610391366004610f62565b610a04565b6102147ff0887ba65ee2024ea881d91b74c2450ef19e1557f03bed3ea9f16b037cbe2dc981565b6101ee6103cb366004610f96565b610a79565b6101ee6103de366004610f62565b610a9f565b6102147f523a704056dcd17bcf83bed8b68c59416dac1119be77755efe3bde0a64e46e0c81565b6101ee610418366004610f62565b610af7565b600061042882610b70565b92915050565b61043733610490565b6104825760405162461bcd60e51b8152602060048201526023602482015260008051602061111e83398151915260448201526236b4b760e91b60648201526084015b60405180910390fd5b61048d60008261059c565b50565b6001600160a01b03811660009081527fa6eef7e35abe7026729641147f7915573c7e97b47efa546f5f6e3230263bcb49602052604081205460ff16610428565b6104fa7f523a704056dcd17bcf83bed8b68c59416dac1119be77755efe3bde0a64e46e0c3361059c565b565b6000828152600160208190526040909120015461051881610b95565b6105228383610b9f565b505050565b61053033610490565b6105765760405162461bcd60e51b8152602060048201526023602482015260008051602061111e83398151915260448201526236b4b760e91b6064820152608401610479565b61048d7ff0887ba65ee2024ea881d91b74c2450ef19e1557f03bed3ea9f16b037cbe2dc9825b6001600160a01b038116331461061a5760405162461bcd60e51b815260206004820152602f60248201527f416363657373436f6e74726f6c3a2063616e206f6e6c792072656e6f756e636560448201527f20726f6c657320666f722073656c6600000000000000000000000000000000006064820152608401610479565b6106248282610c26565b5050565b6001600160a01b03811660009081527f8ba84450219907afe912da1ddd29b6f4e773baa5c2630d42ebe0371c91fdf9ed602052604081205460ff16610428565b61067133610490565b6106b75760405162461bcd60e51b8152602060048201526023602482015260008051602061111e83398151915260448201526236b4b760e91b6064820152608401610479565b61048d6000826104fc565b6106cb33610490565b6107115760405162461bcd60e51b8152602060048201526023602482015260008051602061111e83398151915260448201526236b4b760e91b6064820152608401610479565b6104fa60003361059c565b61072533610490565b61076b5760405162461bcd60e51b8152602060048201526023602482015260008051602061111e83398151915260448201526236b4b760e91b6064820152608401610479565b6001600160a01b0381166107c15760405162461bcd60e51b815260206004820152601860248201527f41636365737369626c653a207a65726f206164647265737300000000000000006044820152606401610479565b6001600160a01b03811633036108195760405162461bcd60e51b815260206004820152601660248201527f41636365737369626c653a2073616d652061646d696e000000000000000000006044820152606401610479565b6108246000826104fc565b61048d60003361059c565b61083833610490565b61087e5760405162461bcd60e51b8152602060048201526023602482015260008051602061111e83398151915260448201526236b4b760e91b6064820152608401610479565b61048d7ff0887ba65ee2024ea881d91b74c2450ef19e1557f03bed3ea9f16b037cbe2dc9826104fc565b6104fa7ff0887ba65ee2024ea881d91b74c2450ef19e1557f03bed3ea9f16b037cbe2dc93361059c565b6108db33610490565b6109215760405162461bcd60e51b8152602060048201526023602482015260008051602061111e83398151915260448201526236b4b760e91b6064820152608401610479565b61048d7f523a704056dcd17bcf83bed8b68c59416dac1119be77755efe3bde0a64e46e0c826104fc565b6001600160a01b03811660009081527ffe36a80dee87f02e45351a65c4bd3ccefd3fc5363e679b6e4b81a8004282b3fc602052604081205460ff16610428565b61099433610490565b6109da5760405162461bcd60e51b8152602060048201526023602482015260008051602061111e83398151915260448201526236b4b760e91b6064820152608401610479565b61048d7f523a704056dcd17bcf83bed8b68c59416dac1119be77755efe3bde0a64e46e0c8261059c565b610a0d33610490565b610a535760405162461bcd60e51b8152602060048201526023602482015260008051602061111e83398151915260448201526236b4b760e91b6064820152608401610479565b61048d7ff0887ba65ee2024ea881d91b74c2450ef19e1557f03bed3ea9f16b037cbe2dc9825b60008281526001602081905260409091200154610a9581610b95565b6105228383610c26565b610aa833610490565b610aee5760405162461bcd60e51b8152602060048201526023602482015260008051602061111e83398151915260448201526236b4b760e91b6064820152608401610479565b61048d8161071c565b610b0033610490565b610b465760405162461bcd60e51b8152602060048201526023602482015260008051602061111e83398151915260448201526236b4b760e91b6064820152608401610479565b61048d7f523a704056dcd17bcf83bed8b68c59416dac1119be77755efe3bde0a64e46e0c82610a79565b60006001600160e01b03198216637965db0b60e01b1480610428575061042882610ca9565b61048d8133610ce5565b60008281526001602090815260408083206001600160a01b038516845290915290205460ff166106245760008281526001602081815260408084206001600160a01b0386168086529252808420805460ff19169093179092559051339285917f2f8788117e7eff1d82e926ec794901d17c78024a50270940304540a733656f0d9190a45050565b60008281526001602090815260408083206001600160a01b038516845290915290205460ff16156106245760008281526001602090815260408083206001600160a01b0385168085529252808320805460ff1916905551339285917ff6391f5c32d9c69d2a47ea670b442974b53935d1edc7fd64eb21e047a839171b9190a45050565b60006301ffc9a760e01b6001600160e01b0319831614806104285750506001600160e01b03191660009081526020819052604090205460ff1690565b60008281526001602090815260408083206001600160a01b038516845290915290205460ff1661062457610d1881610d5a565b610d23836020610d6c565b604051602001610d34929190610fe6565b60408051601f198184030181529082905262461bcd60e51b825261047991600401611067565b60606104286001600160a01b03831660145b60606000610d7b8360026110b0565b610d869060026110c7565b67ffffffffffffffff811115610d9e57610d9e6110da565b6040519080825280601f01601f191660200182016040528015610dc8576020820181803683370190505b509050600360fc1b81600081518110610de357610de36110f0565b60200101906001600160f81b031916908160001a905350600f60fb1b81600181518110610e1257610e126110f0565b60200101906001600160f81b031916908160001a9053506000610e368460026110b0565b610e419060016110c7565b90505b6001811115610ec6577f303132333435363738396162636465660000000000000000000000000000000085600f1660108110610e8257610e826110f0565b1a60f81b828281518110610e9857610e986110f0565b60200101906001600160f81b031916908160001a90535060049490941c93610ebf81611106565b9050610e44565b508315610f155760405162461bcd60e51b815260206004820181905260248201527f537472696e67733a20686578206c656e67746820696e73756666696369656e746044820152606401610479565b9392505050565b600060208284031215610f2e57600080fd5b81356001600160e01b031981168114610f1557600080fd5b80356001600160a01b0381168114610f5d57600080fd5b919050565b600060208284031215610f7457600080fd5b610f1582610f46565b600060208284031215610f8f57600080fd5b5035919050565b60008060408385031215610fa957600080fd5b82359150610fb960208401610f46565b90509250929050565b60005b83811015610fdd578181015183820152602001610fc5565b50506000910152565b7f416363657373436f6e74726f6c3a206163636f756e742000000000000000000081526000835161101e816017850160208801610fc2565b7f206973206d697373696e6720726f6c6520000000000000000000000000000000601791840191820152835161105b816028840160208801610fc2565b01602801949350505050565b6020815260008251806020840152611086816040850160208701610fc2565b601f01601f19169190910160400192915050565b634e487b7160e01b600052601160045260246000fd5b80820281158282048414176104285761042861109a565b808201808211156104285761042861109a565b634e487b7160e01b600052604160045260246000fd5b634e487b7160e01b600052603260045260246000fd5b6000816111155761111561109a565b50600019019056fe41757468436f6e74726f6c3a2043616c6c6572206973206e6f7420616e206164a164736f6c6343000813000a",
  "linkReferences": {},
  "deployedLinkReferences": {}
}