{
  "_format": "hh-sol-artifact-1",
  "contractName": "AuthControlCoinage",
  "sourceName": "contracts/common/AuthControlCoinage.sol",
  "abi": [
    {
      "anonymous": false,
      "inputs": [
        {
          "indexed": true,
          "internalType": "bytes32",
          "name": "role",
          "type": "bytes32"
        },
        {
          "indexed": true,
          "internalType": "bytes32",
          "name": "previousAdminRole",
          "type": "bytes32"
        },
        {
          "indexed": true,
          "internalType": "bytes32",
          "name": "newAdminRole",
          "type": "bytes32"
        }
      ],
      "name": "RoleAdminChanged",
      "type": "event"
    },
    {
      "anonymous": false,
      "inputs": [
        {
          "indexed": true,
          "internalType": "bytes32",
          "name": "role",
          "type": "bytes32"
        },
        {
          "indexed": true,
          "internalType": "address",
          "name": "account",
          "type": "address"
        },
        {
          "indexed": true,
          "internalType": "address",
          "name": "sender",
          "type": "address"
        }
      ],
      "name": "RoleGranted",
      "type": "event"
    },
    {
      "anonymous": false,
      "inputs": [
        {
          "indexed": true,
          "internalType": "bytes32",
          "name": "role",
          "type": "bytes32"
        },
        {
          "indexed": true,
          "internalType": "address",
          "name": "account",
          "type": "address"
        },
        {
          "indexed": true,
          "internalType": "address",
          "name": "sender",
          "type": "address"
        }
      ],
      "name": "RoleRevoked",
      "type": "event"
    },
    {
      "inputs": [],
      "name": "DEFAULT_ADMIN_ROLE",
      "outputs": [
        {
          "internalType": "bytes32",
          "name": "",
          "type": "bytes32"
        }
      ],
      "stateMutability": "view",
      "type": "function"
    },
    {
      "inputs": [],
      "name": "MINTER_ROLE",
      "outputs": [
        {
          "internalType": "bytes32",
          "name": "",
          "type": "bytes32"
        }
      ],
      "stateMutability": "view",
      "type": "function"
    },
    {
      "inputs": [],
      "name": "OPERATOR_ROLE",
      "outputs": [
        {
          "internalType": "bytes32",
          "name": "",
          "type": "bytes32"
        }
      ],
      "stateMutability": "view",
      "type": "function"
    },
    {
      "inputs": [
        {
          "internalType": "address",
          "name": "account",
          "type": "address"
        }
      ],
      "name": "addAdmin",
      "outputs": [],
      "stateMutability": "nonpayable",
      "type": "function"
    },
    {
      "inputs": [
        {
          "internalType": "address",
          "name": "account",
          "type": "address"
        }
      ],
      "name": "addMinter",
      "outputs": [],
      "stateMutability": "nonpayable",
      "type": "function"
    },
    {
      "inputs": [
        {
          "internalType": "address",
          "name": "account",
          "type": "address"
        }
      ],
      "name": "addOperator",
      "outputs": [],
      "stateMutability": "nonpayable",
      "type": "function"
    },
    {
      "inputs": [
        {
          "internalType": "bytes32",
          "name": "role",
          "type": "bytes32"
        }
      ],
      "name": "getRoleAdmin",
      "outputs": [
        {
          "internalType": "bytes32",
          "name": "",
          "type": "bytes32"
        }
      ],
      "stateMutability": "view",
      "type": "function"
    },
    {
      "inputs": [
        {
          "internalType": "bytes32",
          "name": "role",
          "type": "bytes32"
        },
        {
          "internalType": "address",
          "name": "account",
          "type": "address"
        }
      ],
      "name": "grantRole",
      "outputs": [],
      "stateMutability": "nonpayable",
      "type": "function"
    },
    {
      "inputs": [
        {
          "internalType": "bytes32",
          "name": "role",
          "type": "bytes32"
        },
        {
          "internalType": "address",
          "name": "account",
          "type": "address"
        }
      ],
      "name": "hasRole",
      "outputs": [
        {
          "internalType": "bool",
          "name": "",
          "type": "bool"
        }
      ],
      "stateMutability": "view",
      "type": "function"
    },
    {
      "inputs": [
        {
          "internalType": "address",
          "name": "account",
          "type": "address"
        }
      ],
      "name": "isAdmin",
      "outputs": [
        {
          "internalType": "bool",
          "name": "",
          "type": "bool"
        }
      ],
      "stateMutability": "view",
      "type": "function"
    },
    {
      "inputs": [
        {
          "internalType": "address",
          "name": "account",
          "type": "address"
        }
      ],
      "name": "isMinter",
      "outputs": [
        {
          "internalType": "bool",
          "name": "",
          "type": "bool"
        }
      ],
      "stateMutability": "view",
      "type": "function"
    },
    {
      "inputs": [
        {
          "internalType": "address",
          "name": "account",
          "type": "address"
        }
      ],
      "name": "isOperator",
      "outputs": [
        {
          "internalType": "bool",
          "name": "",
          "type": "bool"
        }
      ],
      "stateMutability": "view",
      "type": "function"
    },
    {
      "inputs": [],
      "name": "isOwner",
      "outputs": [
        {
          "internalType": "bool",
          "name": "",
          "type": "bool"
        }
      ],
      "stateMutability": "view",
      "type": "function"
    },
    {
      "inputs": [
        {
          "internalType": "address",
          "name": "account",
          "type": "address"
        }
      ],
      "name": "removeAdmin",
      "outputs": [],
      "stateMutability": "nonpayable",
      "type": "function"
    },
    {
      "inputs": [
        {
          "internalType": "address",
          "name": "account",
          "type": "address"
        }
      ],
      "name": "removeMinter",
      "outputs": [],
      "stateMutability": "nonpayable",
      "type": "function"
    },
    {
      "inputs": [
        {
          "internalType": "address",
          "name": "account",
          "type": "address"
        }
      ],
      "name": "removeOperator",
      "outputs": [],
      "stateMutability": "nonpayable",
      "type": "function"
    },
    {
      "inputs": [],
      "name": "renounceMinter",
      "outputs": [],
      "stateMutability": "nonpayable",
      "type": "function"
    },
    {
      "inputs": [],
      "name": "renounceOperator",
      "outputs": [],
      "stateMutability": "nonpayable",
      "type": "function"
    },
    {
      "inputs": [],
      "name": "renounceOwnership",
      "outputs": [],
      "stateMutability": "nonpayable",
      "type": "function"
    },
    {
      "inputs": [
        {
          "internalType": "bytes32",
          "name": "role",
          "type": "bytes32"
        },
        {
          "internalType": "address",
          "name": "account",
          "type": "address"
        }
      ],
      "name": "renounceRole",
      "outputs": [],
      "stateMutability": "nonpayable",
      "type": "function"
    },
    {
      "inputs": [
        {
          "internalType": "address",
          "name": "account",
          "type": "address"
        }
      ],
      "name": "revokeMinter",
      "outputs": [],
      "stateMutability": "nonpayable",
      "type": "function"
    },
    {
      "inputs": [
        {
          "internalType": "address",
          "name": "account",
          "type": "address"
        }
      ],
      "name": "revokeOperator",
      "outputs": [],
      "stateMutability": "nonpayable",
      "type": "function"
    },
    {
      "inputs": [
        {
          "internalType": "bytes32",
          "name": "role",
          "type": "bytes32"
        },
        {
          "internalType": "address",
          "name": "account",
          "type": "address"
        }
      ],
      "name": "revokeRole",
      "outputs": [],
      "stateMutability": "nonpayable",
      "type": "function"
    },
    {
      "inputs": [
        {
          "internalType": "bytes4",
          "name": "interfaceId",
          "type": "bytes4"
        }
      ],
      "name": "supportsInterface",
      "outputs": [
        {
          "internalType": "bool",
          "name": "",
          "type": "bool"
        }
      ],
      "stateMutability": "view",
      "type": "function"
    },
    {
      "inputs": [
        {
          "internalType": "address",
          "name": "newAdmin",
          "type": "address"
        }
      ],
      "name": "transferAdmin",
      "outputs": [],
      "stateMutability": "nonpayable",
      "type": "function"
    },
    {
      "inputs": [
        {
          "internalType": "address",
          "name": "newAdmin",
          "type": "address"
        }
      ],
      "name": "transferOwnership",
      "outputs": [],
      "stateMutability": "nonpayable",
      "type": "function"
    }
  ],
  "bytecode": "0x608060405234801561001057600080fd5b50610df4806100206000396000f3fe608060405234801561001057600080fd5b506004361061018e5760003560e01c806391d14854116100de578063ac8a584a11610097578063d547741f11610071578063d547741f14610336578063f2fde38b14610349578063f5b541a61461035c578063fad8b32a1461037157600080fd5b8063ac8a584a146102fb578063cfbd48851461030e578063d53913931461032157600080fd5b806391d148541461029f578063983b2d56146102b257806398650275146102c55780639870d7fe146102cd578063a217fddf146102e0578063aa271e1a146102e857600080fd5b80633092afd51161014b57806370480275116101255780637048027514610269578063715018a61461027c57806375829def146102845780638f32d59b1461029757600080fd5b80633092afd51461023057806336568abe146102435780636d70f7ae1461025657600080fd5b806301ffc9a7146101935780631785f53c146101bb578063248a9ca3146101d057806324d7806c146102025780632ab6f8db146102155780632f2ff15d1461021d575b600080fd5b6101a66101a1366004610b6f565b610384565b60405190151581526020015b60405180910390f35b6101ce6101c9366004610bb5565b610395565b005b6101f46101de366004610bd0565b6000908152600160208190526040909120015490565b6040519081526020016101b2565b6101a6610210366004610bb5565b6103d1565b6101ce6103dd565b6101ce61022b366004610be9565b6103f7565b6101ce61023e366004610bb5565b610422565b6101ce610251366004610be9565b61045b565b6101a6610264366004610bb5565b6104d9565b6101ce610277366004610bb5565b6104f3565b6101ce610523565b6101ce610292366004610bb5565b610553565b6101a6610635565b6101a66102ad366004610be9565b610646565b6101ce6102c0366004610bb5565b610671565b6101ce6106ae565b6101ce6102db366004610bb5565b6106c6565b6101f4600081565b6101a66102f6366004610bb5565b610703565b6101ce610309366004610bb5565b61071d565b6101ce61031c366004610bb5565b61075a565b6101f4600080516020610da883398151915281565b6101ce610344366004610be9565b610793565b6101ce610357366004610bb5565b6107b9565b6101f4600080516020610dc883398151915281565b6101ce61037f366004610bb5565b6107e7565b600061038f82610824565b92915050565b61039e336103d1565b6103c35760405162461bcd60e51b81526004016103ba90610c15565b60405180910390fd5b6103ce60008261045b565b50565b600061038f8183610646565b6103f5600080516020610dc88339815191523361045b565b565b6000828152600160208190526040909120015461041381610849565b61041d8383610853565b505050565b61042b336103d1565b6104475760405162461bcd60e51b81526004016103ba90610c15565b6103ce600080516020610da8833981519152825b6001600160a01b03811633146104cb5760405162461bcd60e51b815260206004820152602f60248201527f416363657373436f6e74726f6c3a2063616e206f6e6c792072656e6f756e636560448201526e103937b632b9903337b91039b2b63360891b60648201526084016103ba565b6104d582826108be565b5050565b600061038f600080516020610dc883398151915283610646565b6104fc336103d1565b6105185760405162461bcd60e51b81526004016103ba90610c15565b6103ce6000826103f7565b61052c336103d1565b6105485760405162461bcd60e51b81526004016103ba90610c15565b6103f560003361045b565b61055c336103d1565b6105785760405162461bcd60e51b81526004016103ba90610c15565b6001600160a01b0381166105ce5760405162461bcd60e51b815260206004820152601860248201527f41636365737369626c653a207a65726f2061646472657373000000000000000060448201526064016103ba565b6001600160a01b038116330361061f5760405162461bcd60e51b815260206004820152601660248201527520b1b1b2b9b9b4b136329d1039b0b6b29030b236b4b760511b60448201526064016103ba565b61062a6000826103f7565b6103ce60003361045b565b60006106418133610646565b905090565b60009182526001602090815260408084206001600160a01b0393909316845291905290205460ff1690565b61067a336103d1565b6106965760405162461bcd60e51b81526004016103ba90610c15565b6103ce600080516020610da8833981519152826103f7565b6103f5600080516020610da88339815191523361045b565b6106cf336103d1565b6106eb5760405162461bcd60e51b81526004016103ba90610c15565b6103ce600080516020610dc8833981519152826103f7565b600061038f600080516020610da883398151915283610646565b610726336103d1565b6107425760405162461bcd60e51b81526004016103ba90610c15565b6103ce600080516020610dc88339815191528261045b565b610763336103d1565b61077f5760405162461bcd60e51b81526004016103ba90610c15565b6103ce600080516020610da8833981519152825b600082815260016020819052604090912001546107af81610849565b61041d83836108be565b6107c2336103d1565b6107de5760405162461bcd60e51b81526004016103ba90610c15565b6103ce81610553565b6107f0336103d1565b61080c5760405162461bcd60e51b81526004016103ba90610c15565b6103ce600080516020610dc883398151915282610793565b60006001600160e01b03198216637965db0b60e01b148061038f575061038f82610925565b6103ce8133610961565b61085d8282610646565b6104d55760008281526001602081815260408084206001600160a01b0386168086529252808420805460ff19169093179092559051339285917f2f8788117e7eff1d82e926ec794901d17c78024a50270940304540a733656f0d9190a45050565b6108c88282610646565b156104d55760008281526001602090815260408083206001600160a01b0385168085529252808320805460ff1916905551339285917ff6391f5c32d9c69d2a47ea670b442974b53935d1edc7fd64eb21e047a839171b9190a45050565b60006301ffc9a760e01b6001600160e01b03198316148061038f5750506001600160e01b03191660009081526020819052604090205460ff1690565b61096b8282610646565b6104d557610978816109ba565b6109838360206109cc565b604051602001610994929190610c7c565b60408051601f198184030181529082905262461bcd60e51b82526103ba91600401610cf1565b606061038f6001600160a01b03831660145b606060006109db836002610d3a565b6109e6906002610d51565b67ffffffffffffffff8111156109fe576109fe610d64565b6040519080825280601f01601f191660200182016040528015610a28576020820181803683370190505b509050600360fc1b81600081518110610a4357610a43610d7a565b60200101906001600160f81b031916908160001a905350600f60fb1b81600181518110610a7257610a72610d7a565b60200101906001600160f81b031916908160001a9053506000610a96846002610d3a565b610aa1906001610d51565b90505b6001811115610b19576f181899199a1a9b1b9c1cb0b131b232b360811b85600f1660108110610ad557610ad5610d7a565b1a60f81b828281518110610aeb57610aeb610d7a565b60200101906001600160f81b031916908160001a90535060049490941c93610b1281610d90565b9050610aa4565b508315610b685760405162461bcd60e51b815260206004820181905260248201527f537472696e67733a20686578206c656e67746820696e73756666696369656e7460448201526064016103ba565b9392505050565b600060208284031215610b8157600080fd5b81356001600160e01b031981168114610b6857600080fd5b80356001600160a01b0381168114610bb057600080fd5b919050565b600060208284031215610bc757600080fd5b610b6882610b99565b600060208284031215610be257600080fd5b5035919050565b60008060408385031215610bfc57600080fd5b82359150610c0c60208401610b99565b90509250929050565b60208082526023908201527f41757468436f6e74726f6c3a2043616c6c6572206973206e6f7420616e20616460408201526236b4b760e91b606082015260800190565b60005b83811015610c73578181015183820152602001610c5b565b50506000910152565b7f416363657373436f6e74726f6c3a206163636f756e7420000000000000000000815260008351610cb4816017850160208801610c58565b7001034b99036b4b9b9b4b733903937b6329607d1b6017918401918201528351610ce5816028840160208801610c58565b01602801949350505050565b6020815260008251806020840152610d10816040850160208701610c58565b601f01601f19169190910160400192915050565b634e487b7160e01b600052601160045260246000fd5b808202811582820484141761038f5761038f610d24565b8082018082111561038f5761038f610d24565b634e487b7160e01b600052604160045260246000fd5b634e487b7160e01b600052603260045260246000fd5b600081610d9f57610d9f610d24565b50600019019056fef0887ba65ee2024ea881d91b74c2450ef19e1557f03bed3ea9f16b037cbe2dc9523a704056dcd17bcf83bed8b68c59416dac1119be77755efe3bde0a64e46e0ca164736f6c6343000813000a",
  "linkReferences": {},
  "deployedLinkReferences": {}
}