{
  "_format": "hh-sol-artifact-1",
  "contractName": "ChallengerRole",
  "sourceName": "contracts/roles/ChallengerRole.sol",
  "abi": [
    {
      "inputs": [],
      "stateMutability": "nonpayable",
      "type": "constructor"
    },
    {
      "anonymous": false,
      "inputs": [
        {
          "indexed": true,
          "internalType": "address",
          "name": "account",
          "type": "address"
        }
      ],
      "name": "ChallengerAdded",
      "type": "event"
    },
    {
      "anonymous": false,
      "inputs": [
        {
          "indexed": true,
          "internalType": "address",
          "name": "account",
          "type": "address"
        }
      ],
      "name": "ChallengerRemoved",
      "type": "event"
    },
    {
      "inputs": [
        {
          "internalType": "address",
          "name": "account",
          "type": "address"
        }
      ],
      "name": "addChallenger",
      "outputs": [],
      "stateMutability": "nonpayable",
      "type": "function"
    },
    {
      "inputs": [
        {
          "internalType": "address",
          "name": "account",
          "type": "address"
        }
      ],
      "name": "isChallenger",
      "outputs": [
        {
          "internalType": "bool",
          "name": "",
          "type": "bool"
        }
      ],
      "stateMutability": "view",
      "type": "function"
    },
    {
      "inputs": [],
      "name": "renounceChallenger",
      "outputs": [],
      "stateMutability": "nonpayable",
      "type": "function"
    }
  ],
  "bytecode": "0x608080604052346100665733156100665760003381528060205260408120805460ff81166100625760ff1916600117905533907f2cd0e2692d0fffcabc09a1bbb85ce5406e4beb793c3e8aa022cf08bddbd797f79080a261019d908161006c8239f35b8280fd5b600080fdfe6080604052600436101561001257600080fd5b6000803560e01c80630ceb6780146100d557806325e90db41461007b5763a415d8dc1461003e57600080fd5b3461007857602036600319011261007857600435906001600160a01b038216820361007857602061006e83610168565b6040519015158152f35b80fd5b503461007857806003193601126100785761009533610168565b1561007857338152806020526040812060ff198154169055337f5cd2c63f2658de84952baf6a0e914d0997bbacc2d17fd2b6d928dcf951e697c78280a280f35b5034610078576020366003190112610078576004356001600160a01b03811690818103610164573315610164573383528260205260ff604084205416156101645761011f90610168565b610160578082528160205260408220600160ff198254161790557f2cd0e2692d0fffcabc09a1bbb85ce5406e4beb793c3e8aa022cf08bddbd797f78280a280f35b5080fd5b8280fd5b6001600160a01b0316801561018b57600052600060205260ff6040600020541690565b600080fdfea164736f6c6343000812000a",
  "linkReferences": {},
  "deployedLinkReferences": {}
}