{
  "_format": "hh-sol-artifact-1",
  "contractName": "Layer2CandidateV1_1",
  "sourceName": "contracts/dao/Layer2CandidateV1_1.sol",
  "abi": [
    {
      "anonymous": false,
      "inputs": [
        {
          "indexed": false,
          "internalType": "address",
          "name": "_operateContract",
          "type": "address"
        },
        {
          "indexed": false,
          "internalType": "string",
          "name": "memo",
          "type": "string"
        },
        {
          "indexed": false,
          "internalType": "address",
          "name": "committee",
          "type": "address"
        },
        {
          "indexed": false,
          "internalType": "address",
          "name": "seigManager",
          "type": "address"
        }
      ],
      "name": "Initialized",
      "type": "event"
    },
    {
      "anonymous": false,
      "inputs": [
        {
          "indexed": true,
          "internalType": "bytes32",
          "name": "role",
          "type": "bytes32"
        },
        {
          "indexed": true,
          "internalType": "bytes32",
          "name": "previousAdminRole",
          "type": "bytes32"
        },
        {
          "indexed": true,
          "internalType": "bytes32",
          "name": "newAdminRole",
          "type": "bytes32"
        }
      ],
      "name": "RoleAdminChanged",
      "type": "event"
    },
    {
      "anonymous": false,
      "inputs": [
        {
          "indexed": true,
          "internalType": "bytes32",
          "name": "role",
          "type": "bytes32"
        },
        {
          "indexed": true,
          "internalType": "address",
          "name": "account",
          "type": "address"
        },
        {
          "indexed": true,
          "internalType": "address",
          "name": "sender",
          "type": "address"
        }
      ],
      "name": "RoleGranted",
      "type": "event"
    },
    {
      "anonymous": false,
      "inputs": [
        {
          "indexed": true,
          "internalType": "bytes32",
          "name": "role",
          "type": "bytes32"
        },
        {
          "indexed": true,
          "internalType": "address",
          "name": "account",
          "type": "address"
        },
        {
          "indexed": true,
          "internalType": "address",
          "name": "sender",
          "type": "address"
        }
      ],
      "name": "RoleRevoked",
      "type": "event"
    },
    {
      "anonymous": false,
      "inputs": [
        {
          "indexed": false,
          "internalType": "string",
          "name": "_memo",
          "type": "string"
        }
      ],
      "name": "SetMemo",
      "type": "event"
    },
    {
      "inputs": [],
      "name": "DEFAULT_ADMIN_ROLE",
      "outputs": [
        {
          "internalType": "bytes32",
          "name": "",
          "type": "bytes32"
        }
      ],
      "stateMutability": "view",
      "type": "function"
    },
    {
      "inputs": [],
      "name": "MINTER_ROLE",
      "outputs": [
        {
          "internalType": "bytes32",
          "name": "",
          "type": "bytes32"
        }
      ],
      "stateMutability": "view",
      "type": "function"
    },
    {
      "inputs": [
        {
          "internalType": "address",
          "name": "account",
          "type": "address"
        }
      ],
      "name": "addAdmin",
      "outputs": [],
      "stateMutability": "nonpayable",
      "type": "function"
    },
    {
      "inputs": [
        {
          "internalType": "address",
          "name": "",
          "type": "address"
        }
      ],
      "name": "aliveImplementation",
      "outputs": [
        {
          "internalType": "bool",
          "name": "",
          "type": "bool"
        }
      ],
      "stateMutability": "view",
      "type": "function"
    },
    {
      "inputs": [],
      "name": "candidate",
      "outputs": [
        {
          "internalType": "address",
          "name": "",
          "type": "address"
        }
      ],
      "stateMutability": "view",
      "type": "function"
    },
    {
      "inputs": [
        {
          "internalType": "uint256",
          "name": "_agendaID",
          "type": "uint256"
        },
        {
          "internalType": "uint256",
          "name": "_vote",
          "type": "uint256"
        },
        {
          "internalType": "string",
          "name": "_comment",
          "type": "string"
        }
      ],
      "name": "castVote",
      "outputs": [],
      "stateMutability": "nonpayable",
      "type": "function"
    },
    {
      "inputs": [
        {
          "internalType": "uint256",
          "name": "_memberIndex",
          "type": "uint256"
        }
      ],
      "name": "changeMember",
      "outputs": [
        {
          "internalType": "bool",
          "name": "",
          "type": "bool"
        }
      ],
      "stateMutability": "nonpayable",
      "type": "function"
    },
    {
      "inputs": [],
      "name": "claimActivityReward",
      "outputs": [],
      "stateMutability": "nonpayable",
      "type": "function"
    },
    {
      "inputs": [],
      "name": "committee",
      "outputs": [
        {
          "internalType": "address",
          "name": "",
          "type": "address"
        }
      ],
      "stateMutability": "view",
      "type": "function"
    },
    {
      "inputs": [],
      "name": "currentFork",
      "outputs": [
        {
          "internalType": "uint256",
          "name": "",
          "type": "uint256"
        }
      ],
      "stateMutability": "pure",
      "type": "function"
    },
    {
      "inputs": [
        {
          "internalType": "bytes32",
          "name": "role",
          "type": "bytes32"
        }
      ],
      "name": "getRoleAdmin",
      "outputs": [
        {
          "internalType": "bytes32",
          "name": "",
          "type": "bytes32"
        }
      ],
      "stateMutability": "view",
      "type": "function"
    },
    {
      "inputs": [
        {
          "internalType": "bytes32",
          "name": "role",
          "type": "bytes32"
        },
        {
          "internalType": "address",
          "name": "account",
          "type": "address"
        }
      ],
      "name": "grantRole",
      "outputs": [],
      "stateMutability": "nonpayable",
      "type": "function"
    },
    {
      "inputs": [
        {
          "internalType": "bytes32",
          "name": "role",
          "type": "bytes32"
        },
        {
          "internalType": "address",
          "name": "account",
          "type": "address"
        }
      ],
      "name": "hasRole",
      "outputs": [
        {
          "internalType": "bool",
          "name": "",
          "type": "bool"
        }
      ],
      "stateMutability": "view",
      "type": "function"
    },
    {
      "inputs": [
        {
          "internalType": "address",
          "name": "_operateContract",
          "type": "address"
        },
        {
          "internalType": "string",
          "name": "_memo",
          "type": "string"
        },
        {
          "internalType": "address",
          "name": "_committee",
          "type": "address"
        },
        {
          "internalType": "address",
          "name": "_seigManager",
          "type": "address"
        },
        {
          "internalType": "address",
          "name": "_ton",
          "type": "address"
        },
        {
          "internalType": "address",
          "name": "_wton",
          "type": "address"
        }
      ],
      "name": "initialize",
      "outputs": [],
      "stateMutability": "nonpayable",
      "type": "function"
    },
    {
      "inputs": [
        {
          "internalType": "address",
          "name": "account",
          "type": "address"
        }
      ],
      "name": "isAdmin",
      "outputs": [
        {
          "internalType": "bool",
          "name": "",
          "type": "bool"
        }
      ],
      "stateMutability": "view",
      "type": "function"
    },
    {
      "inputs": [],
      "name": "isCandidateContract",
      "outputs": [
        {
          "internalType": "bool",
          "name": "",
          "type": "bool"
        }
      ],
      "stateMutability": "pure",
      "type": "function"
    },
    {
      "inputs": [],
      "name": "isCandidateFwContract",
      "outputs": [
        {
          "internalType": "bool",
          "name": "",
          "type": "bool"
        }
      ],
      "stateMutability": "pure",
      "type": "function"
    },
    {
      "inputs": [],
      "name": "isLayer2",
      "outputs": [
        {
          "internalType": "bool",
          "name": "",
          "type": "bool"
        }
      ],
      "stateMutability": "pure",
      "type": "function"
    },
    {
      "inputs": [],
      "name": "isLayer2Candidate",
      "outputs": [
        {
          "internalType": "bool",
          "name": "",
          "type": "bool"
        }
      ],
      "stateMutability": "view",
      "type": "function"
    },
    {
      "inputs": [],
      "name": "isOwner",
      "outputs": [
        {
          "internalType": "bool",
          "name": "",
          "type": "bool"
        }
      ],
      "stateMutability": "view",
      "type": "function"
    },
    {
      "inputs": [
        {
          "internalType": "uint256",
          "name": "forkNumber",
          "type": "uint256"
        }
      ],
      "name": "lastEpoch",
      "outputs": [
        {
          "internalType": "uint256",
          "name": "",
          "type": "uint256"
        }
      ],
      "stateMutability": "pure",
      "type": "function"
    },
    {
      "inputs": [],
      "name": "memo",
      "outputs": [
        {
          "internalType": "string",
          "name": "",
          "type": "string"
        }
      ],
      "stateMutability": "view",
      "type": "function"
    },
    {
      "inputs": [],
      "name": "operator",
      "outputs": [
        {
          "internalType": "address",
          "name": "",
          "type": "address"
        }
      ],
      "stateMutability": "view",
      "type": "function"
    },
    {
      "inputs": [],
      "name": "pauseProxy",
      "outputs": [
        {
          "internalType": "bool",
          "name": "",
          "type": "bool"
        }
      ],
      "stateMutability": "view",
      "type": "function"
    },
    {
      "inputs": [
        {
          "internalType": "uint256",
          "name": "",
          "type": "uint256"
        }
      ],
      "name": "proxyImplementation",
      "outputs": [
        {
          "internalType": "address",
          "name": "",
          "type": "address"
        }
      ],
      "stateMutability": "view",
      "type": "function"
    },
    {
      "inputs": [
        {
          "internalType": "address",
          "name": "account",
          "type": "address"
        }
      ],
      "name": "removeAdmin",
      "outputs": [],
      "stateMutability": "nonpayable",
      "type": "function"
    },
    {
      "inputs": [],
      "name": "renounceOwnership",
      "outputs": [],
      "stateMutability": "nonpayable",
      "type": "function"
    },
    {
      "inputs": [
        {
          "internalType": "bytes32",
          "name": "role",
          "type": "bytes32"
        },
        {
          "internalType": "address",
          "name": "account",
          "type": "address"
        }
      ],
      "name": "renounceRole",
      "outputs": [],
      "stateMutability": "nonpayable",
      "type": "function"
    },
    {
      "inputs": [],
      "name": "retireMember",
      "outputs": [
        {
          "internalType": "bool",
          "name": "",
          "type": "bool"
        }
      ],
      "stateMutability": "nonpayable",
      "type": "function"
    },
    {
      "inputs": [
        {
          "internalType": "bytes32",
          "name": "role",
          "type": "bytes32"
        },
        {
          "internalType": "address",
          "name": "account",
          "type": "address"
        }
      ],
      "name": "revokeRole",
      "outputs": [],
      "stateMutability": "nonpayable",
      "type": "function"
    },
    {
      "inputs": [],
      "name": "seigManager",
      "outputs": [
        {
          "internalType": "address",
          "name": "",
          "type": "address"
        }
      ],
      "stateMutability": "view",
      "type": "function"
    },
    {
      "inputs": [
        {
          "internalType": "bytes4",
          "name": "",
          "type": "bytes4"
        }
      ],
      "name": "selectorImplementation",
      "outputs": [
        {
          "internalType": "address",
          "name": "",
          "type": "address"
        }
      ],
      "stateMutability": "view",
      "type": "function"
    },
    {
      "inputs": [
        {
          "internalType": "string",
          "name": "_memo",
          "type": "string"
        }
      ],
      "name": "setMemo",
      "outputs": [],
      "stateMutability": "nonpayable",
      "type": "function"
    },
    {
      "inputs": [
        {
          "internalType": "address",
          "name": "_account",
          "type": "address"
        }
      ],
      "name": "stakedOf",
      "outputs": [
        {
          "internalType": "uint256",
          "name": "amount",
          "type": "uint256"
        }
      ],
      "stateMutability": "view",
      "type": "function"
    },
    {
      "inputs": [
        {
          "internalType": "bytes4",
          "name": "interfaceId",
          "type": "bytes4"
        }
      ],
      "name": "supportsInterface",
      "outputs": [
        {
          "internalType": "bool",
          "name": "",
          "type": "bool"
        }
      ],
      "stateMutability": "view",
      "type": "function"
    },
    {
      "inputs": [],
      "name": "totalStaked",
      "outputs": [
        {
          "internalType": "uint256",
          "name": "totalsupply",
          "type": "uint256"
        }
      ],
      "stateMutability": "view",
      "type": "function"
    },
    {
      "inputs": [
        {
          "internalType": "address",
          "name": "newAdmin",
          "type": "address"
        }
      ],
      "name": "transferAdmin",
      "outputs": [],
      "stateMutability": "nonpayable",
      "type": "function"
    },
    {
      "inputs": [
        {
          "internalType": "address",
          "name": "newAdmin",
          "type": "address"
        }
      ],
      "name": "transferOwnership",
      "outputs": [],
      "stateMutability": "nonpayable",
      "type": "function"
    },
    {
      "inputs": [
        {
          "internalType": "uint256",
          "name": "afterCall",
          "type": "uint256"
        }
      ],
      "name": "updateSeigniorage",
      "outputs": [
        {
          "internalType": "bool",
          "name": "",
          "type": "bool"
        }
      ],
      "stateMutability": "nonpayable",
      "type": "function"
    },
    {
      "inputs": [],
      "name": "updateSeigniorage",
      "outputs": [
        {
          "internalType": "bool",
          "name": "",
          "type": "bool"
        }
      ],
      "stateMutability": "nonpayable",
      "type": "function"
    }
  ],
  "bytecode": "0x60808060405234610016576121f8908161001c8239f35b600080fdfe608060408181526004908136101561001657600080fd5b600092833560e01c90816301ffc9a71461192457508063027aa37b1461162457806311e4c9141461160757806311f19e04146115565780631785f53c14611528578063183d2d1c1461150c57806320db00b01461113a578063248a9ca31461110f57806324d7806c146110c957806324f99b1e14610fc957806325d6086114610e385780632f2ff15d14610d8a57806336568abe14610cf857806350d2a27614610cb4578063550d01a314610c76578063570ca73514610b5057806358c3b87014610b9f57806363a8fd8914610b7d5780636c8381f814610b505780636fb7f55814610b275780637048027514610a6e578063715018a614610a4857806375829def14610a2d578063764a7856146107c157806377ff21c414610597578063817b1cd214610733578063882eed2c14610597578381638bf7a3ab14610656575080638f32d59b1461062157806391d14854146105db5780639b638268146105b7578063a217fddf1461059c578063acb4c06114610597578063af500ba314610502578063b911135f146104cf578063c4ef9c00146103df578063d5391393146103a4578063d547741f1461036a578063d864e7401461033d5763f2fde38b146101de57600080fd5b3461033957602080600319360112610335576101f86119c6565b61020961020433611b0a565b612009565b61021561020433611b0a565b6001600160a01b03169283156102f4578333146102ba57508380526005815261024360018386200154611b47565b8380526005815281842083600052815260ff8260002054161561026e575b8361026b33611e7d565b80f35b838052600581528184206000848152915220805460ff191660011790553390827f2f8788117e7eff1d82e926ec794901d17c78024a50270940304540a733656f0d8180a4388080610261565b915162461bcd60e51b815291820152601660248201527520b1b1b2b9b9b4b136329d1039b0b6b29030b236b4b760511b6044820152606490fd5b915162461bcd60e51b815291820152601860248201527f41636365737369626c653a207a65726f206164647265737300000000000000006044820152606490fd5b8380fd5b8280fd5b83823461036657816003193601126103665760095490516001600160a01b039091168152602090f35b5080fd5b503461033957806003193601126103395761026b913561039f600161038d6119dc565b93838752600560205286200154611b47565b611f6c565b838234610366578160031936011261036657602090517ff0887ba65ee2024ea881d91b74c2450ef19e1557f03bed3ea9f16b037cbe2dc98152f35b5082903461036657816003193601126103665760075481516336b87bd760e11b81523381860152602094916001600160a01b03919086908290602490829060081c86165afa9081156104c55791610441869492889486916104a8575b50612117565b600954855162313be760ea1b8152948593928492165af192831561049d579261046e575b50519015158152f35b61048f919250833d8511610496575b6104878183611a1c565b8101906120ff565b9083610465565b503d61047d565b8251903d90823e3d90fd5b6104bf9150853d8711610496576104878183611a1c565b8961043b565b84513d87823e3d90fd5b5090346103395760203660031901126103395735825260016020908152918190205490516001600160a01b039091168152f35b50829034610366576020928360031936011261033957836105216119c6565b6001600160a01b039060249082610536612163565b16865195869485936370a0823160e01b855216908301525afa92831561049d5792610563575b5051908152f35b9091508281813d8311610590575b61057b8183611a1c565b8101031261058b5751908361055c565b600080fd5b503d610571565b611aee565b83823461036657816003193601126103665751908152602090f35b83823461036657816003193601126103665760209060ff6007541690519015158152f35b509034610339578160031936011261033957816020936105f96119dc565b9235815260058552209060018060a01b0316600052825260ff81600020541690519015158152f35b83823461036657816003193601126103665780828060209452600584522033600052825260ff81600020541690519015158152f35b8084843461072f578260031936011261072f5760075481516336b87bd760e11b8152338185015260089190911c6001600160a01b039081169391602081602481885afa90811561072557906106b19187916107075750612117565b6009541692833b1561070357602485928385519687948593636becff2760e01b85528401525af19081156106fa57506106e75750f35b6106f0906119f2565b6106f75780f35b80fd5b513d84823e3d90fd5b8480fd5b61071f915060203d8111610496576104878183611a1c565b8861043b565b84513d88823e3d90fd5b5050fd5b5082903461036657816003193601126103665760206001600160a01b03610758612163565b168251948580926318160ddd60e01b82525afa9182156107b65791610782575b6020925051908152f35b90506020823d82116107ae575b8161079c60209383611a1c565b8101031261058b576020915190610778565b3d915061078f565b9051903d90823e3d90fd5b5082346106f757806003193601126106f757506007548151926336b87bd760e11b84523381850152602093848160248160018060a01b03809760081c165afa90811561090d57908591600091610a10575b50156109785760009083600a5416838651809481936307efaad560e21b83525af190811561090d5760009161095b575b50156109185760248483600c54169360075460081c16938551928380926370a0823160e01b825287878301525afa90811561090d576000916108e0575b5080610891575b5050505b5160018152f35b823b1561058b5760246000928386519586948593634901961f60e11b85528401525af180156108d5576108c6575b8080610886565b6108cf906119f2565b826108bf565b82513d6000823e3d90fd5b908582813d8311610906575b6108f68183611a1c565b810103126106f75750518561087f565b503d6108ec565b84513d6000823e3d90fd5b825162461bcd60e51b8152908101849052601e60248201527f6661696c20757064617465536569676e696f726167654f70657261746f7200006044820152606490fd5b6109729150853d8711610496576104878183611a1c565b85610842565b60009192600a541683855180948193633b253c2b60e11b83525af1908115610a05576000916109e8575b50156109ae575061088a565b82606492519162461bcd60e51b835282015260166024820152756661696c20757064617465536569676e696f7261676560501b6044820152fd5b6109ff9150843d8611610496576104878183611a1c565b846109a2565b83513d6000823e3d90fd5b610a279150823d8411610496576104878183611a1c565b86610812565b503461033957602080600319360112610335576102096119c6565b83346106f757806003193601126106f757610a6561020433611b0a565b61026b33611e7d565b838234610366576020908160031936011261033957610a8b6119c6565b91610a9861020433611b0a565b83805260058152610aae60018386200154611b47565b838052600581528184206001600160a01b039093166000818152938252928290205460ff1615610adc578380f35b838052600581528184206000848152915220805460ff191660011790553390827f2f8788117e7eff1d82e926ec794901d17c78024a50270940304540a733656f0d8180a48180808380f35b838234610366578160031936011261036657600a5490516001600160a01b039091168152602090f35b838234610366578160031936011261036657600754905160089190911c6001600160a01b03168152602090f35b83823461036657816003193601126103665760ff602092541690519015158152f35b83823461036657816003193601126103665780519082600854610bc181611a6c565b80855291600191808316908115610c4e5750600114610c03575b505050610bed82610bff940383611a1c565b51918291602083526020830190611ac9565b0390f35b9450600885526000805160206121cc8339815191525b828610610c3657505050610bed826020610bff9582010194610bdb565b80546020878701810191909152909501948101610c19565b610bff975086935060209250610bed94915060ff191682840152151560051b82010194610bdb565b8382346103665760203660031901126103665760209160ff9082906001600160a01b03610ca16119c6565b1681526002855220541690519015158152f35b509034610339576020366003190112610339573563ffffffff60e01b811680910361033957825260036020908152918190205490516001600160a01b039091168152f35b50919034610366578260031936011261036657610d136119dc565b90336001600160a01b03831603610d2f579061026b9135611f6c565b608490602085519162461bcd60e51b8352820152602f60248201527f416363657373436f6e74726f6c3a2063616e206f6e6c792072656e6f756e636560448201526e103937b632b9903337b91039b2b63360891b6064820152fd5b5090346103395781600319360112610339573590610da66119dc565b908284526005602052610dbe60018286200154611b47565b82845260056020528084209160018060a01b0316918260005260205260ff81600020541615610deb578380f35b828452600560205280842082600052602052600020600160ff1982541617905533917f2f8788117e7eff1d82e926ec794901d17c78024a50270940304540a733656f0d8480a43880808380f35b503461033957602090816003193601126103355767ffffffffffffffff908335828111610fc557610e6c9036908601611a3e565b94909286805260058552828720336000528552610e8f60ff846000205416612009565b8511610fb25750610eaa84610ea5600854611a6c565b61207f565b84601f8511600114610f1c5791610f0b91857f80eb700793f6b70448e6801ac4bb924bbebe9c6027958691fd7e2caaec848f119695948891610f11575b508560011b906000198760031b1c1916176008555b519383859485528401916120de565b0390a180f35b905082013538610ee7565b600886526000805160206121cc83398151915290601f198616875b818110610f9b575091610f0b9391877f80eb700793f6b70448e6801ac4bb924bbebe9c6027958691fd7e2caaec848f119897969410610f81575b5050600185811b01600855610efc565b830135600019600388901b60f8161c191690553880610f71565b919286600181928689013581550194019201610f37565b634e487b7160e01b865260419052602485fd5b8580fd5b5034610339576060366003190112610339578260443567ffffffffffffffff811161036657610ffb9036908501611a3e565b60075484516336b87bd760e11b815233878201526001600160a01b03916020908290602490829060081c86165afa9081156110bf57906110419186916110a15750612117565b6009541690813b1561033557836110849686519788958694859363127ccd8f60e11b855280359085015260243560248501526060604485015260648401916120de565b03925af19081156106fa5750611098575080f35b61026b906119f2565b6110b9915060203d8111610496576104878183611a1c565b3861043b565b86513d87823e3d90fd5b8382346103665760203660031901126103665760ff816020936110ea6119c6565b818052600586528282206001600160a01b039091168252855220549151911615158152f35b5090346103395760203660031901126103395781602093600192358152600585522001549051908152f35b509190346103665760c0366003190112610366576111566119c6565b9260249081359167ffffffffffffffff90818411610fc55736602385011215610fc55783850135948286116114fb57835197602096601f19966111a0601f830189168a018c611a1c565b818b52368583830101116114f757818a928c8b888195019101378b0101526001600160a01b03956044358781169491908590036114f757606435958887168097036114f357608435918983168093036114ef5760a435948a86168096036114eb5761122060ff8b8f8f818052600581528282209033835252205416612009565b8a81169a8b158015906114e2575b80156114d9575b1561149657878d8d8d51928380926333d7e2bd60e01b82525afa90811561148a578f8f909261145d575b5050161561142757600190600754906101008360a81b039060081b16906affffffffffffffffffffff60a81b1617176007556bffffffffffffffffffffffff60a01b93878560095416176009558885600a541617600a558d5192831161141657506112cf82610ea5600854611a6c565b8a90601f8311600114611381575091816113679694928d9e96947fc5baacc5b56737fe7626e78b23f38bf90b9cfd7dfd9a93b4300f6565334981b59e91611376575b508160011b916000199060031b1c1916176008555b81600b541617600b55600c541617600c55631dffc87160e21b8a528752848920600160ff198254161790556080855197889788528701526080860190611ac9565b9284015260608301520390a180f35b905086015138611311565b82169060088d526000805160206121cc833981519152918d5b8181106113ff5750927fc5baacc5b56737fe7626e78b23f38bf90b9cfd7dfd9a93b4300f6565334981b59d9e969492600192826113679a9896106113e6575b5050811b01600855611326565b88015160001960f88460031b161c1916905538806113d9565b8f8301518455600190930192918d01918d0161139a565b634e487b7160e01b8d52604187528cfd5b895162461bcd60e51b81528088018d9052601181870152707a65726f2073797374656d436f6e66696760781b6044820152606490fd5b61147c9250803d10611483575b6114748183611a1c565b810190612060565b388e61125f565b503d61146a565b8f8d51903d90823e3d90fd5b50895162461bcd60e51b81528088018d90526018818701527f43616e6469646174653a20696e707574206973207a65726f00000000000000006044820152606490fd5b50891515611235565b5088151561122e565b8c80fd5b8b80fd5b8a80fd5b8980fd5b634e487b7160e01b87526041905285fd5b8382346103665781600319360112610366576020905160018152f35b83346106f75760203660031901126106f75761026b6115456119c6565b61155161020433611b0a565b611e7d565b5082903461036657602092836003193601126103395760075482516336b87bd760e11b815233838201526001600160a01b039186908290602490829060081c86165afa9081156104c55786926115b787959360249387916115ea5750612117565b60095416918551948593849263047c678160e21b84528035908401525af192831561049d579261046e5750519015158152f35b6116019150863d8811610496576104878183611a1c565b8a61043b565b838234610366576020366003190112610366576020905160018152f35b50903461033957602092836003193601126106f75760075483516336b87bd760e11b815233818501526024918435916001600160a01b0391889082908690829060081c86165afa908115611865579088918691611907575b501561186f57849082600a5416878951809481936307efaad560e21b83525af1908115611865578591611848575b501561180657816116c2575b50505050505160018152f35b829181600c541690888360075460081c16928951968780926370a0823160e01b8252868c8301525afa9485156117fc5786956117cd575b5084611707575b50506116b6565b6002810361177057505060075460081c1693843b1561033557908392918387519687948593634901961f60e11b85528401525af19081156117655750611756575b505b38808080808080611700565b61175f906119f2565b38611748565b8351903d90823e3d90fd5b60019196925014611786575b505050505061174a565b843b15610335579083929183875196879485936305def93560e21b85528401525af190811561176557506117be575b8080808061177c565b6117c7906119f2565b386117b5565b9094508881813d83116117f5575b6117e58183611a1c565b81010312610fc5575193386116f9565b503d6117db565b88513d88823e3d90fd5b855162461bcd60e51b8152808601889052601e818501527f6661696c20757064617465536569676e696f726167654f70657261746f7200006044820152606490fd5b61185f9150883d8a11610496576104878183611a1c565b386116aa565b87513d87823e3d90fd5b908493949250600a541685875180948193633b253c2b60e11b83525af19182156118fc57916118df575b50156118a657505061088a565b60649360169293519362461bcd60e51b8552840152820152756661696c20757064617465536569676e696f7261676560501b6044820152fd5b6118f69150853d8711610496576104878183611a1c565b38611899565b8551903d90823e3d90fd5b61191e9150823d8411610496576104878183611a1c565b3861167c565b90508383346103665760203660031901126103665780359063ffffffff60e01b8216809203610339576020948284526006865260ff8185205416938415611970575b5050505015158152f35b637965db0b60e01b8414945091929091908415611995575b5050505083808080611966565b6301ffc9a760e01b149350909183156119b5575b50505083808080611988565b60ff935085522054168380806119a9565b600435906001600160a01b038216820361058b57565b602435906001600160a01b038216820361058b57565b67ffffffffffffffff8111611a0657604052565b634e487b7160e01b600052604160045260246000fd5b90601f8019910116810190811067ffffffffffffffff821117611a0657604052565b9181601f8401121561058b5782359167ffffffffffffffff831161058b576020838186019501011161058b57565b90600182811c92168015611a9c575b6020831014611a8657565b634e487b7160e01b600052602260045260246000fd5b91607f1691611a7b565b60005b838110611ab95750506000910152565b8181015183820152602001611aa9565b90602091611ae281518092818552858086019101611aa6565b601f01601f1916010190565b3461058b57600036600319011261058b57602060405160018152f35b6001600160a01b031660009081527f05b8ccbb9d4d8fb16ea74ce3c29a41f1b461fbdaff4714a0d9a8eb05499746bc602052604090205460ff1690565b60009080825260209060058252604092838120338252835260ff848220541615611b715750505050565b83519167ffffffffffffffff90336060850183811186821017611e69578752602a85528585019187368437855115611e555760308353855191600192831015611e41576078602188015360295b838111611dd75750611d955790875193608085019085821090821117611d8157885260428452868401946060368737845115611d6d57603086538451821015611d6d5790607860218601536041915b818311611cff57505050611cbd57611cb9938693611c9d93611c8e604894611c659a519a8b957f416363657373436f6e74726f6c3a206163636f756e74200000000000000000008c8801525180926037880190611aa6565b8401917001034b99036b4b9b9b4b733903937b6329607d1b603784015251809386840190611aa6565b01036028810187520185611a1c565b5192839262461bcd60e51b845260048401526024830190611ac9565b0390fd5b60648587519062461bcd60e51b825280600483015260248201527f537472696e67733a20686578206c656e67746820696e73756666696369656e746044820152fd5b909192600f81166010811015611d59576f181899199a1a9b1b9c1cb0b131b232b360811b901a611d2f8588611fe2565b5360041c928015611d4557600019019190611c0d565b634e487b7160e01b82526011600452602482fd5b634e487b7160e01b83526032600452602483fd5b634e487b7160e01b81526032600452602490fd5b634e487b7160e01b86526041600452602486fd5b60648789519062461bcd60e51b825280600483015260248201527f537472696e67733a20686578206c656e67746820696e73756666696369656e746044820152fd5b90600f81166010811015611e2d576f181899199a1a9b1b9c1cb0b131b232b360811b901a611e05838a611fe2565b5360041c908015611e195760001901611bbe565b634e487b7160e01b87526011600452602487fd5b634e487b7160e01b88526032600452602488fd5b634e487b7160e01b86526032600452602486fd5b634e487b7160e01b85526032600452602485fd5b634e487b7160e01b85526041600452602485fd5b6001600160a01b0316338103611f0f5760008181527f05b8ccbb9d4d8fb16ea74ce3c29a41f1b461fbdaff4714a0d9a8eb05499746bc602052604081205490919060ff16611ec9575050565b8180526005602052604082208183526020526040822060ff19815416905533917ff6391f5c32d9c69d2a47ea670b442974b53935d1edc7fd64eb21e047a839171b8180a4565b60405162461bcd60e51b815260206004820152602f60248201527f416363657373436f6e74726f6c3a2063616e206f6e6c792072656e6f756e636560448201526e103937b632b9903337b91039b2b63360891b6064820152608490fd5b906000918083526005602052604083209160018060a01b03169182845260205260ff604084205416611f9d57505050565b8083526005602052604083208284526020526040832060ff1981541690557ff6391f5c32d9c69d2a47ea670b442974b53935d1edc7fd64eb21e047a839171b339380a4565b908151811015611ff3570160200190565b634e487b7160e01b600052603260045260246000fd5b1561201057565b60405162461bcd60e51b815260206004820152602260248201527f41636365737369626c653a2043616c6c6572206973206e6f7420616e2061646d60448201526134b760f11b6064820152608490fd5b9081602091031261058b57516001600160a01b038116810361058b5790565b601f811161208b575050565b600090600882526000805160206121cc833981519152906020601f850160051c830194106120d4575b601f0160051c01915b8281106120c957505050565b8181556001016120bd565b90925082906120b4565b908060209392818452848401376000828201840152601f01601f1916010190565b9081602091031261058b5751801515810361058b5790565b1561211e57565b60405162461bcd60e51b815260206004820152601960248201527f73656e646572206973206e6f7420616e206f70657261746f72000000000000006044820152606490fd5b600a54604051634c063c1960e01b81523060048201526001600160a01b03916020908290602490829086165afa9081156121bf576000916121a357501690565b6121bb915060203d8111611483576114748183611a1c565b1690565b6040513d6000823e3d90fdfef3f7a9fe364faab93b216da50a3214154f22a0a2b415b23a84c8169e8b636ee3a164736f6c6343000813000a",
  "linkReferences": {},
  "deployedLinkReferences": {}
}