{
  "_format": "hh-sol-artifact-1",
  "contractName": "Layer2CandidateV1_1",
  "sourceName": "contracts/dao/Layer2CandidateV1_1.sol",
  "abi": [
    {
      "anonymous": false,
      "inputs": [
        {
          "indexed": false,
          "internalType": "address",
          "name": "_operateContract",
          "type": "address"
        },
        {
          "indexed": false,
          "internalType": "string",
          "name": "memo",
          "type": "string"
        },
        {
          "indexed": false,
          "internalType": "address",
          "name": "committee",
          "type": "address"
        },
        {
          "indexed": false,
          "internalType": "address",
          "name": "seigManager",
          "type": "address"
        }
      ],
      "name": "Initialized",
      "type": "event"
    },
    {
      "anonymous": false,
      "inputs": [
        {
          "indexed": true,
          "internalType": "bytes32",
          "name": "role",
          "type": "bytes32"
        },
        {
          "indexed": true,
          "internalType": "bytes32",
          "name": "previousAdminRole",
          "type": "bytes32"
        },
        {
          "indexed": true,
          "internalType": "bytes32",
          "name": "newAdminRole",
          "type": "bytes32"
        }
      ],
      "name": "RoleAdminChanged",
      "type": "event"
    },
    {
      "anonymous": false,
      "inputs": [
        {
          "indexed": true,
          "internalType": "bytes32",
          "name": "role",
          "type": "bytes32"
        },
        {
          "indexed": true,
          "internalType": "address",
          "name": "account",
          "type": "address"
        },
        {
          "indexed": true,
          "internalType": "address",
          "name": "sender",
          "type": "address"
        }
      ],
      "name": "RoleGranted",
      "type": "event"
    },
    {
      "anonymous": false,
      "inputs": [
        {
          "indexed": true,
          "internalType": "bytes32",
          "name": "role",
          "type": "bytes32"
        },
        {
          "indexed": true,
          "internalType": "address",
          "name": "account",
          "type": "address"
        },
        {
          "indexed": true,
          "internalType": "address",
          "name": "sender",
          "type": "address"
        }
      ],
      "name": "RoleRevoked",
      "type": "event"
    },
    {
      "anonymous": false,
      "inputs": [
        {
          "indexed": false,
          "internalType": "string",
          "name": "_memo",
          "type": "string"
        }
      ],
      "name": "SetMemo",
      "type": "event"
    },
    {
      "inputs": [],
      "name": "DEFAULT_ADMIN_ROLE",
      "outputs": [
        {
          "internalType": "bytes32",
          "name": "",
          "type": "bytes32"
        }
      ],
      "stateMutability": "view",
      "type": "function"
    },
    {
      "inputs": [],
      "name": "MINTER_ROLE",
      "outputs": [
        {
          "internalType": "bytes32",
          "name": "",
          "type": "bytes32"
        }
      ],
      "stateMutability": "view",
      "type": "function"
    },
    {
      "inputs": [
        {
          "internalType": "address",
          "name": "account",
          "type": "address"
        }
      ],
      "name": "addAdmin",
      "outputs": [],
      "stateMutability": "nonpayable",
      "type": "function"
    },
    {
      "inputs": [
        {
          "internalType": "address",
          "name": "",
          "type": "address"
        }
      ],
      "name": "aliveImplementation",
      "outputs": [
        {
          "internalType": "bool",
          "name": "",
          "type": "bool"
        }
      ],
      "stateMutability": "view",
      "type": "function"
    },
    {
      "inputs": [],
      "name": "candidate",
      "outputs": [
        {
          "internalType": "address",
          "name": "",
          "type": "address"
        }
      ],
      "stateMutability": "view",
      "type": "function"
    },
    {
      "inputs": [
        {
          "internalType": "uint256",
          "name": "_agendaID",
          "type": "uint256"
        },
        {
          "internalType": "uint256",
          "name": "_vote",
          "type": "uint256"
        },
        {
          "internalType": "string",
          "name": "_comment",
          "type": "string"
        }
      ],
      "name": "castVote",
      "outputs": [],
      "stateMutability": "nonpayable",
      "type": "function"
    },
    {
      "inputs": [
        {
          "internalType": "uint256",
          "name": "_memberIndex",
          "type": "uint256"
        }
      ],
      "name": "changeMember",
      "outputs": [
        {
          "internalType": "bool",
          "name": "",
          "type": "bool"
        }
      ],
      "stateMutability": "nonpayable",
      "type": "function"
    },
    {
      "inputs": [],
      "name": "claimActivityReward",
      "outputs": [],
      "stateMutability": "nonpayable",
      "type": "function"
    },
    {
      "inputs": [],
      "name": "committee",
      "outputs": [
        {
          "internalType": "address",
          "name": "",
          "type": "address"
        }
      ],
      "stateMutability": "view",
      "type": "function"
    },
    {
      "inputs": [],
      "name": "currentFork",
      "outputs": [
        {
          "internalType": "uint256",
          "name": "",
          "type": "uint256"
        }
      ],
      "stateMutability": "pure",
      "type": "function"
    },
    {
      "inputs": [
        {
          "internalType": "bytes32",
          "name": "role",
          "type": "bytes32"
        }
      ],
      "name": "getRoleAdmin",
      "outputs": [
        {
          "internalType": "bytes32",
          "name": "",
          "type": "bytes32"
        }
      ],
      "stateMutability": "view",
      "type": "function"
    },
    {
      "inputs": [
        {
          "internalType": "bytes32",
          "name": "role",
          "type": "bytes32"
        },
        {
          "internalType": "address",
          "name": "account",
          "type": "address"
        }
      ],
      "name": "grantRole",
      "outputs": [],
      "stateMutability": "nonpayable",
      "type": "function"
    },
    {
      "inputs": [
        {
          "internalType": "bytes32",
          "name": "role",
          "type": "bytes32"
        },
        {
          "internalType": "address",
          "name": "account",
          "type": "address"
        }
      ],
      "name": "hasRole",
      "outputs": [
        {
          "internalType": "bool",
          "name": "",
          "type": "bool"
        }
      ],
      "stateMutability": "view",
      "type": "function"
    },
    {
      "inputs": [
        {
          "internalType": "address",
          "name": "_operateContract",
          "type": "address"
        },
        {
          "internalType": "string",
          "name": "_memo",
          "type": "string"
        },
        {
          "internalType": "address",
          "name": "_committee",
          "type": "address"
        },
        {
          "internalType": "address",
          "name": "_seigManager",
          "type": "address"
        },
        {
          "internalType": "address",
          "name": "_ton",
          "type": "address"
        },
        {
          "internalType": "address",
          "name": "_wton",
          "type": "address"
        }
      ],
      "name": "initialize",
      "outputs": [],
      "stateMutability": "nonpayable",
      "type": "function"
    },
    {
      "inputs": [
        {
          "internalType": "address",
          "name": "account",
          "type": "address"
        }
      ],
      "name": "isAdmin",
      "outputs": [
        {
          "internalType": "bool",
          "name": "",
          "type": "bool"
        }
      ],
      "stateMutability": "view",
      "type": "function"
    },
    {
      "inputs": [],
      "name": "isCandidateContract",
      "outputs": [
        {
          "internalType": "bool",
          "name": "",
          "type": "bool"
        }
      ],
      "stateMutability": "pure",
      "type": "function"
    },
    {
      "inputs": [],
      "name": "isCandidateFwContract",
      "outputs": [
        {
          "internalType": "bool",
          "name": "",
          "type": "bool"
        }
      ],
      "stateMutability": "pure",
      "type": "function"
    },
    {
      "inputs": [],
      "name": "isLayer2",
      "outputs": [
        {
          "internalType": "bool",
          "name": "",
          "type": "bool"
        }
      ],
      "stateMutability": "pure",
      "type": "function"
    },
    {
      "inputs": [],
      "name": "isLayer2Candidate",
      "outputs": [
        {
          "internalType": "bool",
          "name": "",
          "type": "bool"
        }
      ],
      "stateMutability": "view",
      "type": "function"
    },
    {
      "inputs": [],
      "name": "isOwner",
      "outputs": [
        {
          "internalType": "bool",
          "name": "",
          "type": "bool"
        }
      ],
      "stateMutability": "view",
      "type": "function"
    },
    {
      "inputs": [
        {
          "internalType": "uint256",
          "name": "forkNumber",
          "type": "uint256"
        }
      ],
      "name": "lastEpoch",
      "outputs": [
        {
          "internalType": "uint256",
          "name": "",
          "type": "uint256"
        }
      ],
      "stateMutability": "pure",
      "type": "function"
    },
    {
      "inputs": [],
      "name": "memo",
      "outputs": [
        {
          "internalType": "string",
          "name": "",
          "type": "string"
        }
      ],
      "stateMutability": "view",
      "type": "function"
    },
    {
      "inputs": [],
      "name": "operator",
      "outputs": [
        {
          "internalType": "address",
          "name": "",
          "type": "address"
        }
      ],
      "stateMutability": "view",
      "type": "function"
    },
    {
      "inputs": [],
      "name": "pauseProxy",
      "outputs": [
        {
          "internalType": "bool",
          "name": "",
          "type": "bool"
        }
      ],
      "stateMutability": "view",
      "type": "function"
    },
    {
      "inputs": [
        {
          "internalType": "uint256",
          "name": "",
          "type": "uint256"
        }
      ],
      "name": "proxyImplementation",
      "outputs": [
        {
          "internalType": "address",
          "name": "",
          "type": "address"
        }
      ],
      "stateMutability": "view",
      "type": "function"
    },
    {
      "inputs": [
        {
          "internalType": "address",
          "name": "account",
          "type": "address"
        }
      ],
      "name": "removeAdmin",
      "outputs": [],
      "stateMutability": "nonpayable",
      "type": "function"
    },
    {
      "inputs": [],
      "name": "renounceOwnership",
      "outputs": [],
      "stateMutability": "nonpayable",
      "type": "function"
    },
    {
      "inputs": [
        {
          "internalType": "bytes32",
          "name": "role",
          "type": "bytes32"
        },
        {
          "internalType": "address",
          "name": "account",
          "type": "address"
        }
      ],
      "name": "renounceRole",
      "outputs": [],
      "stateMutability": "nonpayable",
      "type": "function"
    },
    {
      "inputs": [],
      "name": "retireMember",
      "outputs": [
        {
          "internalType": "bool",
          "name": "",
          "type": "bool"
        }
      ],
      "stateMutability": "nonpayable",
      "type": "function"
    },
    {
      "inputs": [
        {
          "internalType": "bytes32",
          "name": "role",
          "type": "bytes32"
        },
        {
          "internalType": "address",
          "name": "account",
          "type": "address"
        }
      ],
      "name": "revokeRole",
      "outputs": [],
      "stateMutability": "nonpayable",
      "type": "function"
    },
    {
      "inputs": [],
      "name": "seigManager",
      "outputs": [
        {
          "internalType": "address",
          "name": "",
          "type": "address"
        }
      ],
      "stateMutability": "view",
      "type": "function"
    },
    {
      "inputs": [
        {
          "internalType": "bytes4",
          "name": "",
          "type": "bytes4"
        }
      ],
      "name": "selectorImplementation",
      "outputs": [
        {
          "internalType": "address",
          "name": "",
          "type": "address"
        }
      ],
      "stateMutability": "view",
      "type": "function"
    },
    {
      "inputs": [
        {
          "internalType": "string",
          "name": "_memo",
          "type": "string"
        }
      ],
      "name": "setMemo",
      "outputs": [],
      "stateMutability": "nonpayable",
      "type": "function"
    },
    {
      "inputs": [
        {
          "internalType": "address",
          "name": "_account",
          "type": "address"
        }
      ],
      "name": "stakedOf",
      "outputs": [
        {
          "internalType": "uint256",
          "name": "amount",
          "type": "uint256"
        }
      ],
      "stateMutability": "view",
      "type": "function"
    },
    {
      "inputs": [
        {
          "internalType": "bytes4",
          "name": "interfaceId",
          "type": "bytes4"
        }
      ],
      "name": "supportsInterface",
      "outputs": [
        {
          "internalType": "bool",
          "name": "",
          "type": "bool"
        }
      ],
      "stateMutability": "view",
      "type": "function"
    },
    {
      "inputs": [],
      "name": "totalStaked",
      "outputs": [
        {
          "internalType": "uint256",
          "name": "totalsupply",
          "type": "uint256"
        }
      ],
      "stateMutability": "view",
      "type": "function"
    },
    {
      "inputs": [
        {
          "internalType": "address",
          "name": "newAdmin",
          "type": "address"
        }
      ],
      "name": "transferAdmin",
      "outputs": [],
      "stateMutability": "nonpayable",
      "type": "function"
    },
    {
      "inputs": [
        {
          "internalType": "address",
          "name": "newAdmin",
          "type": "address"
        }
      ],
      "name": "transferOwnership",
      "outputs": [],
      "stateMutability": "nonpayable",
      "type": "function"
    },
    {
      "inputs": [
        {
          "internalType": "uint256",
          "name": "afterCall",
          "type": "uint256"
        }
      ],
      "name": "updateSeigniorage",
      "outputs": [
        {
          "internalType": "bool",
          "name": "",
          "type": "bool"
        }
      ],
      "stateMutability": "nonpayable",
      "type": "function"
    },
    {
      "inputs": [],
      "name": "updateSeigniorage",
      "outputs": [
        {
          "internalType": "bool",
          "name": "",
          "type": "bool"
        }
      ],
      "stateMutability": "nonpayable",
      "type": "function"
    }
  ],
  "bytecode": "0x60808060405234610016576124b8908161001c8239f35b600080fdfe608060408181526004908136101561001657600080fd5b600092833560e01c90816301ffc9a714611bcc57508063027aa37b146117a457806311e4c9141461178757806311f19e04146116d65780631785f53c146116a8578063183d2d1c1461168c57806320db00b0146112ba578063248a9ca31461128f57806324d7806c1461124957806324f99b1e1461114957806325d6086114610fb85780632f2ff15d14610f0a57806336568abe14610e7857806350d2a27614610e34578063550d01a314610df6578063570ca73514610cd057806358c3b87014610d1f57806363a8fd8914610cfd5780636c8381f814610cd05780636fb7f55814610ca75780637048027514610bee578063715018a614610bc857806375829def14610bad578063764a7856146107c157806377ff21c414610597578063817b1cd214610733578063882eed2c14610597578381638bf7a3ab14610656575080638f32d59b1461062157806391d14854146105db5780639b638268146105b7578063a217fddf1461059c578063acb4c06114610597578063af500ba314610502578063b911135f146104cf578063c4ef9c00146103df578063d5391393146103a4578063d547741f1461036a578063d864e7401461033d5763f2fde38b146101de57600080fd5b3461033957602080600319360112610335576101f8611c6e565b61020961020433611dea565b6122c9565b61021561020433611dea565b6001600160a01b03169283156102f4578333146102ba57508380526005815261024360018386200154611e27565b8380526005815281842083600052815260ff8260002054161561026e575b8361026b3361213d565b80f35b838052600581528184206000848152915220805460ff191660011790553390827f2f8788117e7eff1d82e926ec794901d17c78024a50270940304540a733656f0d8180a4388080610261565b915162461bcd60e51b815291820152601660248201527520b1b1b2b9b9b4b136329d1039b0b6b29030b236b4b760511b6044820152606490fd5b915162461bcd60e51b815291820152601860248201527f41636365737369626c653a207a65726f206164647265737300000000000000006044820152606490fd5b8380fd5b8280fd5b83823461036657816003193601126103665760095490516001600160a01b039091168152602090f35b5080fd5b503461033957806003193601126103395761026b913561039f600161038d611c84565b93838752600560205286200154611e27565b61222c565b838234610366578160031936011261036657602090517ff0887ba65ee2024ea881d91b74c2450ef19e1557f03bed3ea9f16b037cbe2dc98152f35b5082903461036657816003193601126103665760075481516336b87bd760e11b81523381860152602094916001600160a01b03919086908290602490829060081c86165afa9081156104c55791610441869492889486916104a8575b506123d7565b600954855162313be760ea1b8152948593928492165af192831561049d579261046e575b50519015158152f35b61048f919250833d8511610496575b6104878183611cfc565b8101906123bf565b9083610465565b503d61047d565b8251903d90823e3d90fd5b6104bf9150853d8711610496576104878183611cfc565b8961043b565b84513d87823e3d90fd5b5090346103395760203660031901126103395735825260016020908152918190205490516001600160a01b039091168152f35b5082903461036657602092836003193601126103395783610521611c6e565b6001600160a01b039060249082610536612423565b16865195869485936370a0823160e01b855216908301525afa92831561049d5792610563575b5051908152f35b9091508281813d8311610590575b61057b8183611cfc565b8101031261058b5751908361055c565b600080fd5b503d610571565b611dce565b83823461036657816003193601126103665751908152602090f35b83823461036657816003193601126103665760209060ff6007541690519015158152f35b509034610339578160031936011261033957816020936105f9611c84565b9235815260058552209060018060a01b0316600052825260ff81600020541690519015158152f35b83823461036657816003193601126103665780828060209452600584522033600052825260ff81600020541690519015158152f35b8084843461072f578260031936011261072f5760075481516336b87bd760e11b8152338185015260089190911c6001600160a01b039081169391602081602481885afa90811561072557906106b191879161070757506123d7565b6009541692833b1561070357602485928385519687948593636becff2760e01b85528401525af19081156106fa57506106e75750f35b6106f090611c9a565b6106f75780f35b80fd5b513d84823e3d90fd5b8480fd5b61071f915060203d8111610496576104878183611cfc565b8861043b565b84513d88823e3d90fd5b5050fd5b5082903461036657816003193601126103665760206001600160a01b03610758612423565b168251948580926318160ddd60e01b82525afa9182156107b65791610782575b6020925051908152f35b90506020823d82116107ae575b8161079c60209383611cfc565b8101031261058b576020915190610778565b3d915061078f565b9051903d90823e3d90fd5b5082346106f757806003193601126106f7575080516107df81611cc4565b601e81526020927f757064617465536569676e696f7261676520616674657243616c6c20257300008483015282519160008086850194632d839cb360e21b86528180826108376024978b898401526064830190611da9565b600260448301520392610852601f1994858101835282611cfc565b516a636f6e736f6c652e6c6f6798895afa5086519061087082611cc4565b601f82527f757064617465536569676e696f72616765206d73672e73656e64657220257300898301526108d2885191826108c08c82019563319af33360e01b87528c8a8401526064830190611da9565b33604483015203908101835282611cfc565b5190865afa5060075484516336b87bd760e11b80825233858301526001600160a01b039560089390931c861692909188818681875afa908115610ba25789939260009283928391610b85575b508a516332458eed60e01b8782019081529115158982015288815261094281611ce0565b51915afa5083875180948193825233888301525afa908115610a6557908691600091610b68575b5015610acf5760009084600a5416848751809481936307efaad560e21b83525af1908115610a6557600091610ab2575b5015610a7057808584600c54169460075460081c16948651938480926370a0823160e01b825288888301525afa918215610a6557600092610a36575b50816109e8575b505050505b5160018152f35b833b1561058b576000928386519586948593634901961f60e11b85528401525af18015610a2b57610a1c575b8080806109dc565b610a2590611c9a565b82610a14565b82513d6000823e3d90fd5b90918682813d8311610a5e575b610a4d8183611cfc565b810103126106f757505190866109d5565b503d610a43565b85513d6000823e3d90fd5b835162461bcd60e51b8152918201859052601e908201527f6661696c20757064617465536569676e696f726167654f70657261746f7200006044820152606490fd5b610ac99150863d8811610496576104878183611cfc565b86610999565b6000919293600a541684865180948193633b253c2b60e11b83525af1908115610b5d57600091610b40575b5015610b075750506109e1565b60649360169293519362461bcd60e51b8552840152820152756661696c20757064617465536569676e696f7261676560501b6044820152fd5b610b579150853d8711610496576104878183611cfc565b85610afa565b84513d6000823e3d90fd5b610b7f9150823d8411610496576104878183611cfc565b87610969565b610b9c9150863d8811610496576104878183611cfc565b8c61091e565b88513d6000823e3d90fd5b50346103395760208060031936011261033557610209611c6e565b83346106f757806003193601126106f757610be561020433611dea565b61026b3361213d565b838234610366576020908160031936011261033957610c0b611c6e565b91610c1861020433611dea565b83805260058152610c2e60018386200154611e27565b838052600581528184206001600160a01b039093166000818152938252928290205460ff1615610c5c578380f35b838052600581528184206000848152915220805460ff191660011790553390827f2f8788117e7eff1d82e926ec794901d17c78024a50270940304540a733656f0d8180a48180808380f35b838234610366578160031936011261036657600a5490516001600160a01b039091168152602090f35b838234610366578160031936011261036657600754905160089190911c6001600160a01b03168152602090f35b83823461036657816003193601126103665760ff602092541690519015158152f35b83823461036657816003193601126103665780519082600854610d4181611d4c565b80855291600191808316908115610dce5750600114610d83575b505050610d6d82610d7f940383611cfc565b51918291602083526020830190611da9565b0390f35b94506008855260008051602061248c8339815191525b828610610db657505050610d6d826020610d7f9582010194610d5b565b80546020878701810191909152909501948101610d99565b610d7f975086935060209250610d6d94915060ff191682840152151560051b82010194610d5b565b8382346103665760203660031901126103665760209160ff9082906001600160a01b03610e21611c6e565b1681526002855220541690519015158152f35b509034610339576020366003190112610339573563ffffffff60e01b811680910361033957825260036020908152918190205490516001600160a01b039091168152f35b50919034610366578260031936011261036657610e93611c84565b90336001600160a01b03831603610eaf579061026b913561222c565b608490602085519162461bcd60e51b8352820152602f60248201527f416363657373436f6e74726f6c3a2063616e206f6e6c792072656e6f756e636560448201526e103937b632b9903337b91039b2b63360891b6064820152fd5b5090346103395781600319360112610339573590610f26611c84565b908284526005602052610f3e60018286200154611e27565b82845260056020528084209160018060a01b0316918260005260205260ff81600020541615610f6b578380f35b828452600560205280842082600052602052600020600160ff1982541617905533917f2f8788117e7eff1d82e926ec794901d17c78024a50270940304540a733656f0d8480a43880808380f35b503461033957602090816003193601126103355767ffffffffffffffff90833582811161114557610fec9036908601611d1e565b9490928680526005855282872033600052855261100f60ff8460002054166122c9565b8511611132575061102a84611025600854611d4c565b61233f565b84601f851160011461109c579161108b91857f80eb700793f6b70448e6801ac4bb924bbebe9c6027958691fd7e2caaec848f119695948891611091575b508560011b906000198760031b1c1916176008555b5193838594855284019161239e565b0390a180f35b905082013538611067565b6008865260008051602061248c83398151915290601f198616875b81811061111b57509161108b9391877f80eb700793f6b70448e6801ac4bb924bbebe9c6027958691fd7e2caaec848f119897969410611101575b5050600185811b0160085561107c565b830135600019600388901b60f8161c1916905538806110f1565b9192866001819286890135815501940192016110b7565b634e487b7160e01b865260419052602485fd5b8580fd5b5034610339576060366003190112610339578260443567ffffffffffffffff81116103665761117b9036908501611d1e565b60075484516336b87bd760e11b815233878201526001600160a01b03916020908290602490829060081c86165afa90811561123f57906111c191869161122157506123d7565b6009541690813b1561033557836112049686519788958694859363127ccd8f60e11b8552803590850152602435602485015260606044850152606484019161239e565b03925af19081156106fa5750611218575080f35b61026b90611c9a565b611239915060203d8111610496576104878183611cfc565b3861043b565b86513d87823e3d90fd5b8382346103665760203660031901126103665760ff8160209361126a611c6e565b818052600586528282206001600160a01b039091168252855220549151911615158152f35b5090346103395760203660031901126103395781602093600192358152600585522001549051908152f35b509190346103665760c0366003190112610366576112d6611c6e565b9260249081359167ffffffffffffffff90818411611145573660238501121561114557838501359482861161167b57835197602096601f1996611320601f830189168a018c611cfc565b818b523685838301011161167757818a928c8b888195019101378b0101526001600160a01b03956044358781169491908590036116775760643595888716809703611673576084359189831680930361166f5760a435948a861680960361166b576113a060ff8b8f8f8180526005815282822090338352522054166122c9565b8a81169a8b15801590611662575b8015611659575b1561161657878d8d8d51928380926333d7e2bd60e01b82525afa90811561160a578f8f90926115dd575b505016156115a757600190600754906101008360a81b039060081b16906affffffffffffffffffffff60a81b1617176007556bffffffffffffffffffffffff60a01b93878560095416176009558885600a541617600a558d51928311611596575061144f82611025600854611d4c565b8a90601f8311600114611501575091816114e79694928d9e96947fc5baacc5b56737fe7626e78b23f38bf90b9cfd7dfd9a93b4300f6565334981b59e916114f6575b508160011b916000199060031b1c1916176008555b81600b541617600b55600c541617600c55631dffc87160e21b8a528752848920600160ff198254161790556080855197889788528701526080860190611da9565b9284015260608301520390a180f35b905086015138611491565b82169060088d5260008051602061248c833981519152918d5b81811061157f5750927fc5baacc5b56737fe7626e78b23f38bf90b9cfd7dfd9a93b4300f6565334981b59d9e969492600192826114e79a989610611566575b5050811b016008556114a6565b88015160001960f88460031b161c191690553880611559565b8f8301518455600190930192918d01918d0161151a565b634e487b7160e01b8d52604187528cfd5b895162461bcd60e51b81528088018d9052601181870152707a65726f2073797374656d436f6e66696760781b6044820152606490fd5b6115fc9250803d10611603575b6115f48183611cfc565b810190612320565b388e6113df565b503d6115ea565b8f8d51903d90823e3d90fd5b50895162461bcd60e51b81528088018d90526018818701527f43616e6469646174653a20696e707574206973207a65726f00000000000000006044820152606490fd5b508915156113b5565b508815156113ae565b8c80fd5b8b80fd5b8a80fd5b8980fd5b634e487b7160e01b87526041905285fd5b8382346103665781600319360112610366576020905160018152f35b83346106f75760203660031901126106f75761026b6116c5611c6e565b6116d161020433611dea565b61213d565b5082903461036657602092836003193601126103395760075482516336b87bd760e11b815233838201526001600160a01b039186908290602490829060081c86165afa9081156104c5578692611737879593602493879161176a57506123d7565b60095416918551948593849263047c678160e21b84528035908401525af192831561049d579261046e5750519015158152f35b6117819150863d8811610496576104878183611cfc565b8a61043b565b838234610366576020366003190112610366576020905160018152f35b50903461033957602092836003193601126106f757825182356117c682611cc4565b601e82527f757064617465536569676e696f7261676520616674657243616c6c202573000086830152845183808789840193632d839cb360e21b855282808261181a60249a868c8401526064830190611da9565b8960448301520392611834601f1994858101835282611cfc565b516a636f6e736f6c652e6c6f6797885afa506118a282519161185583611cc4565b601f83527f757064617465536569676e696f72616765206d73672e73656e646572202573008d8401528c6108c0855194859283019663319af33360e01b88528c8401526064830190611da9565b5190845afa5060075486516336b87bd760e11b80825233888301526001600160a01b039360089390931c84169290918a818881875afa908115611bc2578b9392899283928391611ba5575b508c516332458eed60e01b8782019081529115158b8201528a815261191181611ce0565b51915afa50858951809481938252338b8301525afa908115611b20579088918691611b88575b5015611b2a57849082600a5416878951809481936307efaad560e21b83525af1908115611b20578591611b03575b5015611ac1578161197d575b50505050505160018152f35b829181600c541690888360075460081c16928951968780926370a0823160e01b8252868c8301525afa948515611ab7578695611a88575b50846119c2575b5050611971565b60028103611a2b57505060075460081c1693843b1561033557908392918387519687948593634901961f60e11b85528401525af1908115611a205750611a11575b505b388080808080806119bb565b611a1a90611c9a565b38611a03565b8351903d90823e3d90fd5b60019196925014611a41575b5050505050611a05565b843b15610335579083929183875196879485936305def93560e21b85528401525af1908115611a205750611a79575b80808080611a37565b611a8290611c9a565b38611a70565b9094508881813d8311611ab0575b611aa08183611cfc565b81010312611145575193386119b4565b503d611a96565b88513d88823e3d90fd5b855162461bcd60e51b8152808601889052601e818501527f6661696c20757064617465536569676e696f726167654f70657261746f7200006044820152606490fd5b611b1a9150883d8a11610496576104878183611cfc565b38611965565b87513d87823e3d90fd5b908493949250600a541685875180948193633b253c2b60e11b83525af1918215611b7d5791611b60575015610b075750506109e1565b611b779150853d8711610496576104878183611cfc565b38610afa565b8551903d90823e3d90fd5b611b9f9150823d8411610496576104878183611cfc565b38611937565b611bbc9150863d8811610496576104878183611cfc565b386118ed565b8a513d8a823e3d90fd5b90508383346103665760203660031901126103665780359063ffffffff60e01b8216809203610339576020948284526006865260ff8185205416938415611c18575b5050505015158152f35b637965db0b60e01b8414945091929091908415611c3d575b5050505083808080611c0e565b6301ffc9a760e01b14935090918315611c5d575b50505083808080611c30565b60ff93508552205416838080611c51565b600435906001600160a01b038216820361058b57565b602435906001600160a01b038216820361058b57565b67ffffffffffffffff8111611cae57604052565b634e487b7160e01b600052604160045260246000fd5b6040810190811067ffffffffffffffff821117611cae57604052565b6060810190811067ffffffffffffffff821117611cae57604052565b90601f8019910116810190811067ffffffffffffffff821117611cae57604052565b9181601f8401121561058b5782359167ffffffffffffffff831161058b576020838186019501011161058b57565b90600182811c92168015611d7c575b6020831014611d6657565b634e487b7160e01b600052602260045260246000fd5b91607f1691611d5b565b60005b838110611d995750506000910152565b8181015183820152602001611d89565b90602091611dc281518092818552858086019101611d86565b601f01601f1916010190565b3461058b57600036600319011261058b57602060405160018152f35b6001600160a01b031660009081527f05b8ccbb9d4d8fb16ea74ce3c29a41f1b461fbdaff4714a0d9a8eb05499746bc602052604090205460ff1690565b60009080825260209060058252604092838120338252835260ff848220541615611e515750505050565b33845192611e5e84611ce0565b602a845284840190863683378451156121295760308253845192600193841015612115576078602187015360295b8481116120ab5750612069578651926080840184811067ffffffffffffffff82111761205557885260428452868401946060368737845115612041576030865384518210156120415790607860218601536041915b818311611fd357505050611f9157611f8d938693611f7193611f62604894611f399a519a8b957f416363657373436f6e74726f6c3a206163636f756e74200000000000000000008c8801525180926037880190611d86565b8401917001034b99036b4b9b9b4b733903937b6329607d1b603784015251809386840190611d86565b01036028810187520185611cfc565b5192839262461bcd60e51b845260048401526024830190611da9565b0390fd5b60648587519062461bcd60e51b825280600483015260248201527f537472696e67733a20686578206c656e67746820696e73756666696369656e746044820152fd5b909192600f8116601081101561202d576f181899199a1a9b1b9c1cb0b131b232b360811b901a61200385886122a2565b5360041c92801561201957600019019190611ee1565b634e487b7160e01b82526011600452602482fd5b634e487b7160e01b83526032600452602483fd5b634e487b7160e01b81526032600452602490fd5b634e487b7160e01b86526041600452602486fd5b60648688519062461bcd60e51b825280600483015260248201527f537472696e67733a20686578206c656e67746820696e73756666696369656e746044820152fd5b90600f81166010811015612101576f181899199a1a9b1b9c1cb0b131b232b360811b901a6120d983896122a2565b5360041c9080156120ed5760001901611e8c565b634e487b7160e01b86526011600452602486fd5b634e487b7160e01b87526032600452602487fd5b634e487b7160e01b85526032600452602485fd5b634e487b7160e01b84526032600452602484fd5b6001600160a01b03163381036121cf5760008181527f05b8ccbb9d4d8fb16ea74ce3c29a41f1b461fbdaff4714a0d9a8eb05499746bc602052604081205490919060ff16612189575050565b8180526005602052604082208183526020526040822060ff19815416905533917ff6391f5c32d9c69d2a47ea670b442974b53935d1edc7fd64eb21e047a839171b8180a4565b60405162461bcd60e51b815260206004820152602f60248201527f416363657373436f6e74726f6c3a2063616e206f6e6c792072656e6f756e636560448201526e103937b632b9903337b91039b2b63360891b6064820152608490fd5b906000918083526005602052604083209160018060a01b03169182845260205260ff60408420541661225d57505050565b8083526005602052604083208284526020526040832060ff1981541690557ff6391f5c32d9c69d2a47ea670b442974b53935d1edc7fd64eb21e047a839171b339380a4565b9081518110156122b3570160200190565b634e487b7160e01b600052603260045260246000fd5b156122d057565b60405162461bcd60e51b815260206004820152602260248201527f41636365737369626c653a2043616c6c6572206973206e6f7420616e2061646d60448201526134b760f11b6064820152608490fd5b9081602091031261058b57516001600160a01b038116810361058b5790565b601f811161234b575050565b6000906008825260008051602061248c833981519152906020601f850160051c83019410612394575b601f0160051c01915b82811061238957505050565b81815560010161237d565b9092508290612374565b908060209392818452848401376000828201840152601f01601f1916010190565b9081602091031261058b5751801515810361058b5790565b156123de57565b60405162461bcd60e51b815260206004820152601960248201527f73656e646572206973206e6f7420616e206f70657261746f72000000000000006044820152606490fd5b600a54604051634c063c1960e01b81523060048201526001600160a01b03916020908290602490829086165afa90811561247f5760009161246357501690565b61247b915060203d8111611603576115f48183611cfc565b1690565b6040513d6000823e3d90fdfef3f7a9fe364faab93b216da50a3214154f22a0a2b415b23a84c8169e8b636ee3a164736f6c6343000813000a",
  "linkReferences": {},
  "deployedLinkReferences": {}
}