{
  "_format": "hh-sol-artifact-1",
  "contractName": "OperatorStorage",
  "sourceName": "contracts/layer2/OperatorStorage.sol",
  "abi": [
    {
      "inputs": [],
      "name": "depositManager",
      "outputs": [
        {
          "internalType": "address",
          "name": "",
          "type": "address"
        }
      ],
      "stateMutability": "view",
      "type": "function"
    },
    {
      "inputs": [],
      "name": "layer2Manager",
      "outputs": [
        {
          "internalType": "address",
          "name": "",
          "type": "address"
        }
      ],
      "stateMutability": "view",
      "type": "function"
    },
    {
      "inputs": [],
      "name": "manager",
      "outputs": [
        {
          "internalType": "address",
          "name": "",
          "type": "address"
        }
      ],
      "stateMutability": "view",
      "type": "function"
    },
    {
      "inputs": [
        {
          "internalType": "address",
          "name": "",
          "type": "address"
        }
      ],
      "name": "operator",
      "outputs": [
        {
          "internalType": "bool",
          "name": "",
          "type": "bool"
        }
      ],
      "stateMutability": "view",
      "type": "function"
    },
    {
      "inputs": [],
      "name": "systemConfig",
      "outputs": [
        {
          "internalType": "address",
          "name": "",
          "type": "address"
        }
      ],
      "stateMutability": "view",
      "type": "function"
    },
    {
      "inputs": [],
      "name": "ton",
      "outputs": [
        {
          "internalType": "address",
          "name": "",
          "type": "address"
        }
      ],
      "stateMutability": "view",
      "type": "function"
    },
    {
      "inputs": [],
      "name": "wton",
      "outputs": [
        {
          "internalType": "address",
          "name": "",
          "type": "address"
        }
      ],
      "stateMutability": "view",
      "type": "function"
    }
  ],
  "bytecode": "0x60808060405234610016576101af908161001c8239f35b600080fdfe60806040818152600436101561001457600080fd5b600091823560e01c90816316b5d5bd1461017d5750806333d7e2bd14610156578063481c6a751461012e5780636c7ac9d8146101065780638d62d949146100de5780639a3073911461009a5763cc48b9471461006f57600080fd5b3461009657816003193601126100965760035490516001600160a01b039091168152602090f35b5080fd5b5034610096576020366003190112610096576004356001600160a01b038116908190036100da57818360ff92602095526006855220541690519015158152f35b8280fd5b503461009657816003193601126100965760045490516001600160a01b039091168152602090f35b503461009657816003193601126100965760025490516001600160a01b039091168152602090f35b503461009657816003193601126100965760055490516001600160a01b039091168152602090f35b5034610096578160031936011261009657905490516001600160a01b039091168152602090f35b8390346100965781600319360112610096576001546001600160a01b03168152602090f3fea164736f6c6343000812000a",
  "linkReferences": {},
  "deployedLinkReferences": {}
}