{
  "_format": "hh-sol-artifact-1",
  "contractName": "OperatorStorage",
  "sourceName": "contracts/layer2/OperatorStorage.sol",
  "abi": [
    {
      "inputs": [],
      "name": "manager",
      "outputs": [
        {
          "internalType": "address",
          "name": "",
          "type": "address"
        }
      ],
      "stateMutability": "view",
      "type": "function"
    },
    {
      "inputs": [
        {
          "internalType": "address",
          "name": "",
          "type": "address"
        }
      ],
      "name": "operator",
      "outputs": [
        {
          "internalType": "bool",
          "name": "",
          "type": "bool"
        }
      ],
      "stateMutability": "view",
      "type": "function"
    },
    {
      "inputs": [],
      "name": "systemConfig",
      "outputs": [
        {
          "internalType": "address",
          "name": "",
          "type": "address"
        }
      ],
      "stateMutability": "view",
      "type": "function"
    }
  ],
  "bytecode": "0x608060405234801561001057600080fd5b5060ec8061001f6000396000f3fe6080604052348015600f57600080fd5b5060043610603c5760003560e01c806333d7e2bd146041578063481c6a751460705780639a307391146082575b600080fd5b6000546053906001600160a01b031681565b6040516001600160a01b0390911681526020015b60405180910390f35b6001546053906001600160a01b031681565b60a2608d36600460b1565b60026020526000908152604090205460ff1681565b60405190151581526020016067565b60006020828403121560c257600080fd5b81356001600160a01b038116811460d857600080fd5b939250505056fea164736f6c6343000813000a",
  "linkReferences": {},
  "deployedLinkReferences": {}
}