{
  "_format": "hh-sol-artifact-1",
  "contractName": "PowerTONSwapperStorage",
  "sourceName": "contracts/stake/powerton/PowerTONSwapperStorage.sol",
  "abi": [
    {
      "inputs": [],
      "name": "autocoinageSnapshot",
      "outputs": [
        {
          "internalType": "address",
          "name": "",
          "type": "address"
        }
      ],
      "stateMutability": "view",
      "type": "function"
    },
    {
      "inputs": [],
      "name": "layer2Registry",
      "outputs": [
        {
          "internalType": "address",
          "name": "",
          "type": "address"
        }
      ],
      "stateMutability": "view",
      "type": "function"
    },
    {
      "inputs": [],
      "name": "migratedL2",
      "outputs": [
        {
          "internalType": "bool",
          "name": "",
          "type": "bool"
        }
      ],
      "stateMutability": "view",
      "type": "function"
    },
    {
      "inputs": [],
      "name": "pauseProxy",
      "outputs": [
        {
          "internalType": "bool",
          "name": "",
          "type": "bool"
        }
      ],
      "stateMutability": "view",
      "type": "function"
    },
    {
      "inputs": [],
      "name": "seigManager",
      "outputs": [
        {
          "internalType": "address",
          "name": "",
          "type": "address"
        }
      ],
      "stateMutability": "view",
      "type": "function"
    },
    {
      "inputs": [],
      "name": "tos",
      "outputs": [
        {
          "internalType": "contract ITOS",
          "name": "",
          "type": "address"
        }
      ],
      "stateMutability": "view",
      "type": "function"
    },
    {
      "inputs": [],
      "name": "uniswapRouter",
      "outputs": [
        {
          "internalType": "contract ISwapRouter",
          "name": "",
          "type": "address"
        }
      ],
      "stateMutability": "view",
      "type": "function"
    },
    {
      "inputs": [],
      "name": "wton",
      "outputs": [
        {
          "internalType": "address",
          "name": "",
          "type": "address"
        }
      ],
      "stateMutability": "view",
      "type": "function"
    }
  ],
  "bytecode": "0x608060405234801561001057600080fd5b50610170806100206000396000f3fe608060405234801561001057600080fd5b50600436106100885760003560e01c806389f395de1161005b57806389f395de146101005780638d62d94914610113578063a1f5f50e1461012b578063cf2a239c1461015057600080fd5b8063309d72731461008d57806363a8fd89146100bd5780636fb7f558146100da578063735de9f7146100ed575b600080fd5b6003546100a0906001600160a01b031681565b6040516001600160a01b0390911681526020015b60405180910390f35b6000546100ca9060ff1681565b60405190151581526020016100b4565b6005546100a0906001600160a01b031681565b6002546100a0906001600160a01b031681565b6001546100a0906001600160a01b031681565b6000546100a09061010090046001600160a01b031681565b6005546100ca9074010000000000000000000000000000000000000000900460ff1681565b6004546100a0906001600160a01b03168156fea164736f6c6343000813000a",
  "linkReferences": {},
  "deployedLinkReferences": {}
}