{
  "_format": "hh-sol-artifact-1",
  "contractName": "PowerTONSwapperStorage",
  "sourceName": "contracts/stake/powerton/PowerTONSwapperStorage.sol",
  "abi": [
    {
      "inputs": [],
      "name": "autocoinageSnapshot",
      "outputs": [
        {
          "internalType": "address",
          "name": "",
          "type": "address"
        }
      ],
      "stateMutability": "view",
      "type": "function"
    },
    {
      "inputs": [],
      "name": "layer2Registry",
      "outputs": [
        {
          "internalType": "address",
          "name": "",
          "type": "address"
        }
      ],
      "stateMutability": "view",
      "type": "function"
    },
    {
      "inputs": [],
      "name": "migratedL2",
      "outputs": [
        {
          "internalType": "bool",
          "name": "",
          "type": "bool"
        }
      ],
      "stateMutability": "view",
      "type": "function"
    },
    {
      "inputs": [],
      "name": "pauseProxy",
      "outputs": [
        {
          "internalType": "bool",
          "name": "",
          "type": "bool"
        }
      ],
      "stateMutability": "view",
      "type": "function"
    },
    {
      "inputs": [],
      "name": "seigManager",
      "outputs": [
        {
          "internalType": "address",
          "name": "",
          "type": "address"
        }
      ],
      "stateMutability": "view",
      "type": "function"
    },
    {
      "inputs": [],
      "name": "tos",
      "outputs": [
        {
          "internalType": "contract ITOS",
          "name": "",
          "type": "address"
        }
      ],
      "stateMutability": "view",
      "type": "function"
    },
    {
      "inputs": [],
      "name": "uniswapRouter",
      "outputs": [
        {
          "internalType": "contract ISwapRouter",
          "name": "",
          "type": "address"
        }
      ],
      "stateMutability": "view",
      "type": "function"
    },
    {
      "inputs": [],
      "name": "wton",
      "outputs": [
        {
          "internalType": "address",
          "name": "",
          "type": "address"
        }
      ],
      "stateMutability": "view",
      "type": "function"
    }
  ],
  "bytecode": "0x60808060405234610016576101c1908161001c8239f35b600080fdfe60806040818152600436101561001457600080fd5b600091823560e01c908163309d72731461018f5750806363a8fd891461016e5780636fb7f55814610146578063735de9f71461011e57806389f395de146100f65780638d62d949146100cb578063a1f5f50e146100a55763cf2a239c1461007a57600080fd5b346100a157816003193601126100a15760045490516001600160a01b039091168152602090f35b5080fd5b50346100a157816003193601126100a15760209060ff60055460a01c1690519015158152f35b50346100a157816003193601126100a1579054905160089190911c6001600160a01b03168152602090f35b50346100a157816003193601126100a15760015490516001600160a01b039091168152602090f35b50346100a157816003193601126100a15760025490516001600160a01b039091168152602090f35b50346100a157816003193601126100a15760055490516001600160a01b039091168152602090f35b50346100a157816003193601126100a15760ff602092541690519015158152f35b8390346100a157816003193601126100a1576003546001600160a01b03168152602090f3fea164736f6c6343000812000a",
  "linkReferences": {},
  "deployedLinkReferences": {}
}