{
  "_format": "hh-sol-artifact-1",
  "contractName": "AccessiblePowerTon",
  "sourceName": "contracts/common/AccessiblePowerTon.sol",
  "abi": [
    {
      "anonymous": false,
      "inputs": [
        {
          "indexed": true,
          "internalType": "bytes32",
          "name": "role",
          "type": "bytes32"
        },
        {
          "indexed": true,
          "internalType": "bytes32",
          "name": "previousAdminRole",
          "type": "bytes32"
        },
        {
          "indexed": true,
          "internalType": "bytes32",
          "name": "newAdminRole",
          "type": "bytes32"
        }
      ],
      "name": "RoleAdminChanged",
      "type": "event"
    },
    {
      "anonymous": false,
      "inputs": [
        {
          "indexed": true,
          "internalType": "bytes32",
          "name": "role",
          "type": "bytes32"
        },
        {
          "indexed": true,
          "internalType": "address",
          "name": "account",
          "type": "address"
        },
        {
          "indexed": true,
          "internalType": "address",
          "name": "sender",
          "type": "address"
        }
      ],
      "name": "RoleGranted",
      "type": "event"
    },
    {
      "anonymous": false,
      "inputs": [
        {
          "indexed": true,
          "internalType": "bytes32",
          "name": "role",
          "type": "bytes32"
        },
        {
          "indexed": true,
          "internalType": "address",
          "name": "account",
          "type": "address"
        },
        {
          "indexed": true,
          "internalType": "address",
          "name": "sender",
          "type": "address"
        }
      ],
      "name": "RoleRevoked",
      "type": "event"
    },
    {
      "inputs": [],
      "name": "ADMIN_ROLE",
      "outputs": [
        {
          "internalType": "bytes32",
          "name": "",
          "type": "bytes32"
        }
      ],
      "stateMutability": "view",
      "type": "function"
    },
    {
      "inputs": [],
      "name": "BURNER_ROLE",
      "outputs": [
        {
          "internalType": "bytes32",
          "name": "",
          "type": "bytes32"
        }
      ],
      "stateMutability": "view",
      "type": "function"
    },
    {
      "inputs": [],
      "name": "DEFAULT_ADMIN_ROLE",
      "outputs": [
        {
          "internalType": "bytes32",
          "name": "",
          "type": "bytes32"
        }
      ],
      "stateMutability": "view",
      "type": "function"
    },
    {
      "inputs": [],
      "name": "MINTER_ROLE",
      "outputs": [
        {
          "internalType": "bytes32",
          "name": "",
          "type": "bytes32"
        }
      ],
      "stateMutability": "view",
      "type": "function"
    },
    {
      "inputs": [
        {
          "internalType": "address",
          "name": "account",
          "type": "address"
        }
      ],
      "name": "addAdmin",
      "outputs": [],
      "stateMutability": "nonpayable",
      "type": "function"
    },
    {
      "inputs": [
        {
          "internalType": "bytes32",
          "name": "role",
          "type": "bytes32"
        }
      ],
      "name": "getRoleAdmin",
      "outputs": [
        {
          "internalType": "bytes32",
          "name": "",
          "type": "bytes32"
        }
      ],
      "stateMutability": "view",
      "type": "function"
    },
    {
      "inputs": [
        {
          "internalType": "bytes32",
          "name": "role",
          "type": "bytes32"
        },
        {
          "internalType": "address",
          "name": "account",
          "type": "address"
        }
      ],
      "name": "grantRole",
      "outputs": [],
      "stateMutability": "nonpayable",
      "type": "function"
    },
    {
      "inputs": [
        {
          "internalType": "bytes32",
          "name": "role",
          "type": "bytes32"
        },
        {
          "internalType": "address",
          "name": "account",
          "type": "address"
        }
      ],
      "name": "hasRole",
      "outputs": [
        {
          "internalType": "bool",
          "name": "",
          "type": "bool"
        }
      ],
      "stateMutability": "view",
      "type": "function"
    },
    {
      "inputs": [
        {
          "internalType": "address",
          "name": "account",
          "type": "address"
        }
      ],
      "name": "isAdmin",
      "outputs": [
        {
          "internalType": "bool",
          "name": "",
          "type": "bool"
        }
      ],
      "stateMutability": "view",
      "type": "function"
    },
    {
      "inputs": [
        {
          "internalType": "address",
          "name": "account",
          "type": "address"
        }
      ],
      "name": "removeAdmin",
      "outputs": [],
      "stateMutability": "nonpayable",
      "type": "function"
    },
    {
      "inputs": [
        {
          "internalType": "bytes32",
          "name": "role",
          "type": "bytes32"
        },
        {
          "internalType": "address",
          "name": "account",
          "type": "address"
        }
      ],
      "name": "renounceRole",
      "outputs": [],
      "stateMutability": "nonpayable",
      "type": "function"
    },
    {
      "inputs": [
        {
          "internalType": "bytes32",
          "name": "role",
          "type": "bytes32"
        },
        {
          "internalType": "address",
          "name": "account",
          "type": "address"
        }
      ],
      "name": "revokeRole",
      "outputs": [],
      "stateMutability": "nonpayable",
      "type": "function"
    },
    {
      "inputs": [
        {
          "internalType": "bytes4",
          "name": "interfaceId",
          "type": "bytes4"
        }
      ],
      "name": "supportsInterface",
      "outputs": [
        {
          "internalType": "bool",
          "name": "",
          "type": "bool"
        }
      ],
      "stateMutability": "view",
      "type": "function"
    },
    {
      "inputs": [
        {
          "internalType": "address",
          "name": "newAdmin",
          "type": "address"
        }
      ],
      "name": "transferAdmin",
      "outputs": [],
      "stateMutability": "nonpayable",
      "type": "function"
    }
  ],
  "bytecode": "0x608060405234801561001057600080fd5b50610a7b806100206000396000f3fe608060405234801561001057600080fd5b50600436106100ea5760003560e01c8063704802751161008c57806391d148541161006657806391d14854146101f8578063a217fddf1461020b578063d539139314610213578063d547741f1461023a57600080fd5b806370480275146101bd57806375829def146101d057806375b238fc146101e357600080fd5b806324d7806c116100c857806324d7806c1461015d578063282c51f3146101705780632f2ff15d1461019757806336568abe146101aa57600080fd5b806301ffc9a7146100ef5780631785f53c14610117578063248a9ca31461012c575b600080fd5b6101026100fd366004610817565b61024d565b60405190151581526020015b60405180910390f35b61012a61012536600461085d565b610284565b005b61014f61013a366004610878565b60009081526020819052604090206001015490565b60405190815260200161010e565b61010261016b36600461085d565b6102cd565b61014f7f9667e80708b6eeeb0053fa0cca44e028ff548e2a9f029edfeac87c118b08b7c881565b61012a6101a5366004610891565b6102e7565b61012a6101b8366004610891565b610311565b61012a6101cb36600461085d565b61038f565b61012a6101de36600461085d565b6103cc565b61014f600080516020610a4f83398151915281565b610102610206366004610891565b6104c8565b61014f600081565b61014f7ff0887ba65ee2024ea881d91b74c2450ef19e1557f03bed3ea9f16b037cbe2dc981565b61012a610248366004610891565b6104f1565b60006001600160e01b03198216637965db0b60e01b148061027e57506301ffc9a760e01b6001600160e01b03198316145b92915050565b61028d336102cd565b6102b25760405162461bcd60e51b81526004016102a9906108bd565b60405180910390fd5b6102ca600080516020610a4f83398151915282610311565b50565b600061027e600080516020610a4f833981519152836104c8565b60008281526020819052604090206001015461030281610516565b61030c8383610520565b505050565b6001600160a01b03811633146103815760405162461bcd60e51b815260206004820152602f60248201527f416363657373436f6e74726f6c3a2063616e206f6e6c792072656e6f756e636560448201526e103937b632b9903337b91039b2b63360891b60648201526084016102a9565b61038b82826105a4565b5050565b610398336102cd565b6103b45760405162461bcd60e51b81526004016102a9906108bd565b6102ca600080516020610a4f833981519152826102e7565b6103d5336102cd565b6103f15760405162461bcd60e51b81526004016102a9906108bd565b6001600160a01b0381166104475760405162461bcd60e51b815260206004820152601860248201527f41636365737369626c653a207a65726f2061646472657373000000000000000060448201526064016102a9565b6001600160a01b03811633036104985760405162461bcd60e51b815260206004820152601660248201527520b1b1b2b9b9b4b136329d1039b0b6b29030b236b4b760511b60448201526064016102a9565b6104b0600080516020610a4f833981519152826102e7565b6102ca600080516020610a4f83398151915233610311565b6000918252602082815260408084206001600160a01b0393909316845291905290205460ff1690565b60008281526020819052604090206001015461050c81610516565b61030c83836105a4565b6102ca8133610609565b61052a82826104c8565b61038b576000828152602081815260408083206001600160a01b03851684529091529020805460ff191660011790556105603390565b6001600160a01b0316816001600160a01b0316837f2f8788117e7eff1d82e926ec794901d17c78024a50270940304540a733656f0d60405160405180910390a45050565b6105ae82826104c8565b1561038b576000828152602081815260408083206001600160a01b0385168085529252808320805460ff1916905551339285917ff6391f5c32d9c69d2a47ea670b442974b53935d1edc7fd64eb21e047a839171b9190a45050565b61061382826104c8565b61038b5761062081610662565b61062b836020610674565b60405160200161063c929190610923565b60408051601f198184030181529082905262461bcd60e51b82526102a991600401610998565b606061027e6001600160a01b03831660145b606060006106838360026109e1565b61068e9060026109f8565b67ffffffffffffffff8111156106a6576106a6610a0b565b6040519080825280601f01601f1916602001820160405280156106d0576020820181803683370190505b509050600360fc1b816000815181106106eb576106eb610a21565b60200101906001600160f81b031916908160001a905350600f60fb1b8160018151811061071a5761071a610a21565b60200101906001600160f81b031916908160001a905350600061073e8460026109e1565b6107499060016109f8565b90505b60018111156107c1576f181899199a1a9b1b9c1cb0b131b232b360811b85600f166010811061077d5761077d610a21565b1a60f81b82828151811061079357610793610a21565b60200101906001600160f81b031916908160001a90535060049490941c936107ba81610a37565b905061074c565b5083156108105760405162461bcd60e51b815260206004820181905260248201527f537472696e67733a20686578206c656e67746820696e73756666696369656e7460448201526064016102a9565b9392505050565b60006020828403121561082957600080fd5b81356001600160e01b03198116811461081057600080fd5b80356001600160a01b038116811461085857600080fd5b919050565b60006020828403121561086f57600080fd5b61081082610841565b60006020828403121561088a57600080fd5b5035919050565b600080604083850312156108a457600080fd5b823591506108b460208401610841565b90509250929050565b60208082526022908201527f41636365737369626c653a2043616c6c6572206973206e6f7420616e2061646d60408201526134b760f11b606082015260800190565b60005b8381101561091a578181015183820152602001610902565b50506000910152565b7f416363657373436f6e74726f6c3a206163636f756e742000000000000000000081526000835161095b8160178501602088016108ff565b7001034b99036b4b9b9b4b733903937b6329607d1b601791840191820152835161098c8160288401602088016108ff565b01602801949350505050565b60208152600082518060208401526109b78160408501602087016108ff565b601f01601f19169190910160400192915050565b634e487b7160e01b600052601160045260246000fd5b808202811582820484141761027e5761027e6109cb565b8082018082111561027e5761027e6109cb565b634e487b7160e01b600052604160045260246000fd5b634e487b7160e01b600052603260045260246000fd5b600081610a4657610a466109cb565b50600019019056fedf8b4c520ffe197c5343c6f5aec59570151ef9a492f2c624fd45ddde6135ec42a164736f6c6343000813000a",
  "linkReferences": {},
  "deployedLinkReferences": {}
}