{
  "_format": "hh-sol-artifact-1",
  "contractName": "AccessiblePowerTon",
  "sourceName": "contracts/common/AccessiblePowerTon.sol",
  "abi": [
    {
      "anonymous": false,
      "inputs": [
        {
          "indexed": true,
          "internalType": "bytes32",
          "name": "role",
          "type": "bytes32"
        },
        {
          "indexed": true,
          "internalType": "bytes32",
          "name": "previousAdminRole",
          "type": "bytes32"
        },
        {
          "indexed": true,
          "internalType": "bytes32",
          "name": "newAdminRole",
          "type": "bytes32"
        }
      ],
      "name": "RoleAdminChanged",
      "type": "event"
    },
    {
      "anonymous": false,
      "inputs": [
        {
          "indexed": true,
          "internalType": "bytes32",
          "name": "role",
          "type": "bytes32"
        },
        {
          "indexed": true,
          "internalType": "address",
          "name": "account",
          "type": "address"
        },
        {
          "indexed": true,
          "internalType": "address",
          "name": "sender",
          "type": "address"
        }
      ],
      "name": "RoleGranted",
      "type": "event"
    },
    {
      "anonymous": false,
      "inputs": [
        {
          "indexed": true,
          "internalType": "bytes32",
          "name": "role",
          "type": "bytes32"
        },
        {
          "indexed": true,
          "internalType": "address",
          "name": "account",
          "type": "address"
        },
        {
          "indexed": true,
          "internalType": "address",
          "name": "sender",
          "type": "address"
        }
      ],
      "name": "RoleRevoked",
      "type": "event"
    },
    {
      "inputs": [],
      "name": "ADMIN_ROLE",
      "outputs": [
        {
          "internalType": "bytes32",
          "name": "",
          "type": "bytes32"
        }
      ],
      "stateMutability": "view",
      "type": "function"
    },
    {
      "inputs": [],
      "name": "BURNER_ROLE",
      "outputs": [
        {
          "internalType": "bytes32",
          "name": "",
          "type": "bytes32"
        }
      ],
      "stateMutability": "view",
      "type": "function"
    },
    {
      "inputs": [],
      "name": "DEFAULT_ADMIN_ROLE",
      "outputs": [
        {
          "internalType": "bytes32",
          "name": "",
          "type": "bytes32"
        }
      ],
      "stateMutability": "view",
      "type": "function"
    },
    {
      "inputs": [],
      "name": "MINTER_ROLE",
      "outputs": [
        {
          "internalType": "bytes32",
          "name": "",
          "type": "bytes32"
        }
      ],
      "stateMutability": "view",
      "type": "function"
    },
    {
      "inputs": [
        {
          "internalType": "address",
          "name": "account",
          "type": "address"
        }
      ],
      "name": "addAdmin",
      "outputs": [],
      "stateMutability": "nonpayable",
      "type": "function"
    },
    {
      "inputs": [
        {
          "internalType": "bytes32",
          "name": "role",
          "type": "bytes32"
        }
      ],
      "name": "getRoleAdmin",
      "outputs": [
        {
          "internalType": "bytes32",
          "name": "",
          "type": "bytes32"
        }
      ],
      "stateMutability": "view",
      "type": "function"
    },
    {
      "inputs": [
        {
          "internalType": "bytes32",
          "name": "role",
          "type": "bytes32"
        },
        {
          "internalType": "address",
          "name": "account",
          "type": "address"
        }
      ],
      "name": "grantRole",
      "outputs": [],
      "stateMutability": "nonpayable",
      "type": "function"
    },
    {
      "inputs": [
        {
          "internalType": "bytes32",
          "name": "role",
          "type": "bytes32"
        },
        {
          "internalType": "address",
          "name": "account",
          "type": "address"
        }
      ],
      "name": "hasRole",
      "outputs": [
        {
          "internalType": "bool",
          "name": "",
          "type": "bool"
        }
      ],
      "stateMutability": "view",
      "type": "function"
    },
    {
      "inputs": [
        {
          "internalType": "address",
          "name": "account",
          "type": "address"
        }
      ],
      "name": "isAdmin",
      "outputs": [
        {
          "internalType": "bool",
          "name": "",
          "type": "bool"
        }
      ],
      "stateMutability": "view",
      "type": "function"
    },
    {
      "inputs": [
        {
          "internalType": "address",
          "name": "account",
          "type": "address"
        }
      ],
      "name": "removeAdmin",
      "outputs": [],
      "stateMutability": "nonpayable",
      "type": "function"
    },
    {
      "inputs": [
        {
          "internalType": "bytes32",
          "name": "role",
          "type": "bytes32"
        },
        {
          "internalType": "address",
          "name": "account",
          "type": "address"
        }
      ],
      "name": "renounceRole",
      "outputs": [],
      "stateMutability": "nonpayable",
      "type": "function"
    },
    {
      "inputs": [
        {
          "internalType": "bytes32",
          "name": "role",
          "type": "bytes32"
        },
        {
          "internalType": "address",
          "name": "account",
          "type": "address"
        }
      ],
      "name": "revokeRole",
      "outputs": [],
      "stateMutability": "nonpayable",
      "type": "function"
    },
    {
      "inputs": [
        {
          "internalType": "bytes4",
          "name": "interfaceId",
          "type": "bytes4"
        }
      ],
      "name": "supportsInterface",
      "outputs": [
        {
          "internalType": "bool",
          "name": "",
          "type": "bool"
        }
      ],
      "stateMutability": "view",
      "type": "function"
    },
    {
      "inputs": [
        {
          "internalType": "address",
          "name": "newAdmin",
          "type": "address"
        }
      ],
      "name": "transferAdmin",
      "outputs": [],
      "stateMutability": "nonpayable",
      "type": "function"
    }
  ],
  "bytecode": "0x608060405234801561001057600080fd5b50610bbd806100206000396000f3fe608060405234801561001057600080fd5b50600436106100ea5760003560e01c8063704802751161008c57806391d148541161006657806391d148541461020a578063a217fddf14610241578063d539139314610249578063d547741f1461027057600080fd5b806370480275146101bd57806375829def146101d057806375b238fc146101e357600080fd5b806324d7806c116100c857806324d7806c1461015d578063282c51f3146101705780632f2ff15d1461019757806336568abe146101aa57600080fd5b806301ffc9a7146100ef5780631785f53c14610117578063248a9ca31461012c575b600080fd5b6101026100fd3660046109af565b610283565b60405190151581526020015b60405180910390f35b61012a6101253660046109f5565b6102ba565b005b61014f61013a366004610a10565b60009081526020819052604090206001015490565b60405190815260200161010e565b61010261016b3660046109f5565b61034c565b61014f7f9667e80708b6eeeb0053fa0cca44e028ff548e2a9f029edfeac87c118b08b7c881565b61012a6101a5366004610a29565b61038c565b61012a6101b8366004610a29565b6103b6565b61012a6101cb3660046109f5565b610442565b61012a6101de3660046109f5565b6104cc565b61014f7fdf8b4c520ffe197c5343c6f5aec59570151ef9a492f2c624fd45ddde6135ec4281565b610102610218366004610a29565b6000918252602082815260408084206001600160a01b0393909316845291905290205460ff1690565b61014f600081565b61014f7ff0887ba65ee2024ea881d91b74c2450ef19e1557f03bed3ea9f16b037cbe2dc981565b61012a61027e366004610a29565b61062e565b60006001600160e01b03198216637965db0b60e01b14806102b457506301ffc9a760e01b6001600160e01b03198316145b92915050565b6102c33361034c565b61031f5760405162461bcd60e51b815260206004820152602260248201527f41636365737369626c653a2043616c6c6572206973206e6f7420616e2061646d60448201526134b760f11b60648201526084015b60405180910390fd5b6103497fdf8b4c520ffe197c5343c6f5aec59570151ef9a492f2c624fd45ddde6135ec42826103b6565b50565b6001600160a01b03811660009081527f5cbfc8ee58ca47855df7bcf648dd304ddb6b932f9b87878bdf6318d7ec7ee5b7602052604081205460ff166102b4565b6000828152602081905260409020600101546103a781610653565b6103b1838361065d565b505050565b6001600160a01b03811633146104345760405162461bcd60e51b815260206004820152602f60248201527f416363657373436f6e74726f6c3a2063616e206f6e6c792072656e6f756e636560448201527f20726f6c657320666f722073656c6600000000000000000000000000000000006064820152608401610316565b61043e82826106fb565b5050565b61044b3361034c565b6104a25760405162461bcd60e51b815260206004820152602260248201527f41636365737369626c653a2043616c6c6572206973206e6f7420616e2061646d60448201526134b760f11b6064820152608401610316565b6103497fdf8b4c520ffe197c5343c6f5aec59570151ef9a492f2c624fd45ddde6135ec428261038c565b6104d53361034c565b61052c5760405162461bcd60e51b815260206004820152602260248201527f41636365737369626c653a2043616c6c6572206973206e6f7420616e2061646d60448201526134b760f11b6064820152608401610316565b6001600160a01b0381166105825760405162461bcd60e51b815260206004820152601860248201527f41636365737369626c653a207a65726f206164647265737300000000000000006044820152606401610316565b6001600160a01b03811633036105da5760405162461bcd60e51b815260206004820152601660248201527f41636365737369626c653a2073616d652061646d696e000000000000000000006044820152606401610316565b6106047fdf8b4c520ffe197c5343c6f5aec59570151ef9a492f2c624fd45ddde6135ec428261038c565b6103497fdf8b4c520ffe197c5343c6f5aec59570151ef9a492f2c624fd45ddde6135ec42336103b6565b60008281526020819052604090206001015461064981610653565b6103b183836106fb565b610349813361077a565b6000828152602081815260408083206001600160a01b038516845290915290205460ff1661043e576000828152602081815260408083206001600160a01b03851684529091529020805460ff191660011790556106b73390565b6001600160a01b0316816001600160a01b0316837f2f8788117e7eff1d82e926ec794901d17c78024a50270940304540a733656f0d60405160405180910390a45050565b6000828152602081815260408083206001600160a01b038516845290915290205460ff161561043e576000828152602081815260408083206001600160a01b0385168085529252808320805460ff1916905551339285917ff6391f5c32d9c69d2a47ea670b442974b53935d1edc7fd64eb21e047a839171b9190a45050565b6000828152602081815260408083206001600160a01b038516845290915290205460ff1661043e576107ab816107ed565b6107b68360206107ff565b6040516020016107c7929190610a79565b60408051601f198184030181529082905262461bcd60e51b825261031691600401610afa565b60606102b46001600160a01b03831660145b6060600061080e836002610b43565b610819906002610b5a565b67ffffffffffffffff81111561083157610831610b6d565b6040519080825280601f01601f19166020018201604052801561085b576020820181803683370190505b509050600360fc1b8160008151811061087657610876610b83565b60200101906001600160f81b031916908160001a905350600f60fb1b816001815181106108a5576108a5610b83565b60200101906001600160f81b031916908160001a90535060006108c9846002610b43565b6108d4906001610b5a565b90505b6001811115610959577f303132333435363738396162636465660000000000000000000000000000000085600f166010811061091557610915610b83565b1a60f81b82828151811061092b5761092b610b83565b60200101906001600160f81b031916908160001a90535060049490941c9361095281610b99565b90506108d7565b5083156109a85760405162461bcd60e51b815260206004820181905260248201527f537472696e67733a20686578206c656e67746820696e73756666696369656e746044820152606401610316565b9392505050565b6000602082840312156109c157600080fd5b81356001600160e01b0319811681146109a857600080fd5b80356001600160a01b03811681146109f057600080fd5b919050565b600060208284031215610a0757600080fd5b6109a8826109d9565b600060208284031215610a2257600080fd5b5035919050565b60008060408385031215610a3c57600080fd5b82359150610a4c602084016109d9565b90509250929050565b60005b83811015610a70578181015183820152602001610a58565b50506000910152565b7f416363657373436f6e74726f6c3a206163636f756e7420000000000000000000815260008351610ab1816017850160208801610a55565b7f206973206d697373696e6720726f6c65200000000000000000000000000000006017918401918201528351610aee816028840160208801610a55565b01602801949350505050565b6020815260008251806020840152610b19816040850160208701610a55565b601f01601f19169190910160400192915050565b634e487b7160e01b600052601160045260246000fd5b80820281158282048414176102b4576102b4610b2d565b808201808211156102b4576102b4610b2d565b634e487b7160e01b600052604160045260246000fd5b634e487b7160e01b600052603260045260246000fd5b600081610ba857610ba8610b2d565b50600019019056fea164736f6c6343000813000a",
  "linkReferences": {},
  "deployedLinkReferences": {}
}