{
  "_format": "hh-sol-artifact-1",
  "contractName": "DepositManagerV1_1Storage",
  "sourceName": "contracts/stake/managers/DepositManagerV1_1Storage.sol",
  "abi": [
    {
      "inputs": [],
      "name": "minDepositGasLimit",
      "outputs": [
        {
          "internalType": "uint32",
          "name": "",
          "type": "uint32"
        }
      ],
      "stateMutability": "view",
      "type": "function"
    },
    {
      "inputs": [],
      "name": "ton",
      "outputs": [
        {
          "internalType": "address",
          "name": "",
          "type": "address"
        }
      ],
      "stateMutability": "view",
      "type": "function"
    }
  ],
  "bytecode": "0x6080806040523461001557608d908161001b8239f35b600080fdfe6080806040526004361015601257600080fd5b600090813560e01c908163cc48b94714605a575063dd283f9714603457600080fd5b346057578060031936011260575763ffffffff6020915460a01c16604051908152f35b80fd5b905034607c5781600319360112607c5790546001600160a01b03168152602090f35b5080fdfea164736f6c6343000812000a",
  "linkReferences": {},
  "deployedLinkReferences": {}
}