{
  "_format": "hh-sol-artifact-1",
  "contractName": "DepositManagerV1_1Storage",
  "sourceName": "contracts/stake/managers/DepositManagerV1_1Storage.sol",
  "abi": [
    {
      "inputs": [],
      "name": "l1BridgeRegistry",
      "outputs": [
        {
          "internalType": "address",
          "name": "",
          "type": "address"
        }
      ],
      "stateMutability": "view",
      "type": "function"
    },
    {
      "inputs": [],
      "name": "layer2Manager",
      "outputs": [
        {
          "internalType": "address",
          "name": "",
          "type": "address"
        }
      ],
      "stateMutability": "view",
      "type": "function"
    },
    {
      "inputs": [],
      "name": "minDepositGasLimit",
      "outputs": [
        {
          "internalType": "uint32",
          "name": "",
          "type": "uint32"
        }
      ],
      "stateMutability": "view",
      "type": "function"
    },
    {
      "inputs": [],
      "name": "ton",
      "outputs": [
        {
          "internalType": "address",
          "name": "",
          "type": "address"
        }
      ],
      "stateMutability": "view",
      "type": "function"
    }
  ],
  "bytecode": "0x608080604052346100155760ee908161001b8239f35b600080fdfe6080806040526004361015601257600080fd5b600090813560e01c90816316b5d5bd1460ba57508063cc48b947146095578063cf8f911014606e5763dd283f9714604857600080fd5b34606b5780600319360112606b5763ffffffff6020915460a01c16604051908152f35b80fd5b5034606b5780600319360112606b576001546040516001600160a01b039091168152602090f35b5034606b5780600319360112606b57546040516001600160a01b039091168152602090f35b90503460dd578160031936011260dd576002546001600160a01b03168152602090f35b5080fdfea164736f6c6343000813000a",
  "linkReferences": {},
  "deployedLinkReferences": {}
}