{
  "address": "0x0cEA14FA297a04996849f67973064A675C22353b",
  "abi": [
    {
      "anonymous": false,
      "inputs": [
        {
          "indexed": true,
          "internalType": "address",
          "name": "account",
          "type": "address"
        },
        {
          "indexed": false,
          "internalType": "uint256",
          "name": "balance",
          "type": "uint256"
        },
        {
          "indexed": false,
          "internalType": "uint256",
          "name": "refactoredCount",
          "type": "uint256"
        }
      ],
      "name": "ChangedBalance",
      "type": "event"
    },
    {
      "anonymous": false,
      "inputs": [
        {
          "indexed": false,
          "internalType": "uint256",
          "name": "previous",
          "type": "uint256"
        },
        {
          "indexed": false,
          "internalType": "uint256",
          "name": "current",
          "type": "uint256"
        },
        {
          "indexed": false,
          "internalType": "uint256",
          "name": "shiftCount",
          "type": "uint256"
        }
      ],
      "name": "FactorSet",
      "type": "event"
    },
    {
      "anonymous": false,
      "inputs": [
        {
          "indexed": true,
          "internalType": "bytes32",
          "name": "role",
          "type": "bytes32"
        },
        {
          "indexed": true,
          "internalType": "bytes32",
          "name": "previousAdminRole",
          "type": "bytes32"
        },
        {
          "indexed": true,
          "internalType": "bytes32",
          "name": "newAdminRole",
          "type": "bytes32"
        }
      ],
      "name": "RoleAdminChanged",
      "type": "event"
    },
    {
      "anonymous": false,
      "inputs": [
        {
          "indexed": true,
          "internalType": "bytes32",
          "name": "role",
          "type": "bytes32"
        },
        {
          "indexed": true,
          "internalType": "address",
          "name": "account",
          "type": "address"
        },
        {
          "indexed": true,
          "internalType": "address",
          "name": "sender",
          "type": "address"
        }
      ],
      "name": "RoleGranted",
      "type": "event"
    },
    {
      "anonymous": false,
      "inputs": [
        {
          "indexed": true,
          "internalType": "bytes32",
          "name": "role",
          "type": "bytes32"
        },
        {
          "indexed": true,
          "internalType": "address",
          "name": "account",
          "type": "address"
        },
        {
          "indexed": true,
          "internalType": "address",
          "name": "sender",
          "type": "address"
        }
      ],
      "name": "RoleRevoked",
      "type": "event"
    },
    {
      "anonymous": false,
      "inputs": [
        {
          "indexed": true,
          "internalType": "address",
          "name": "from",
          "type": "address"
        },
        {
          "indexed": true,
          "internalType": "address",
          "name": "to",
          "type": "address"
        },
        {
          "indexed": false,
          "internalType": "uint256",
          "name": "value",
          "type": "uint256"
        }
      ],
      "name": "Transfer",
      "type": "event"
    },
    {
      "inputs": [],
      "name": "DEFAULT_ADMIN_ROLE",
      "outputs": [
        {
          "internalType": "bytes32",
          "name": "",
          "type": "bytes32"
        }
      ],
      "stateMutability": "view",
      "type": "function"
    },
    {
      "inputs": [],
      "name": "MINTER_ROLE",
      "outputs": [
        {
          "internalType": "bytes32",
          "name": "",
          "type": "bytes32"
        }
      ],
      "stateMutability": "view",
      "type": "function"
    },
    {
      "inputs": [],
      "name": "OPERATOR_ROLE",
      "outputs": [
        {
          "internalType": "bytes32",
          "name": "",
          "type": "bytes32"
        }
      ],
      "stateMutability": "view",
      "type": "function"
    },
    {
      "inputs": [],
      "name": "REFACTOR_BOUNDARY",
      "outputs": [
        {
          "internalType": "uint256",
          "name": "",
          "type": "uint256"
        }
      ],
      "stateMutability": "view",
      "type": "function"
    },
    {
      "inputs": [],
      "name": "REFACTOR_DIVIDER",
      "outputs": [
        {
          "internalType": "uint256",
          "name": "",
          "type": "uint256"
        }
      ],
      "stateMutability": "view",
      "type": "function"
    },
    {
      "inputs": [
        {
          "internalType": "address",
          "name": "",
          "type": "address"
        },
        {
          "internalType": "address",
          "name": "",
          "type": "address"
        }
      ],
      "name": "_allowances",
      "outputs": [
        {
          "internalType": "uint256",
          "name": "",
          "type": "uint256"
        }
      ],
      "stateMutability": "view",
      "type": "function"
    },
    {
      "inputs": [],
      "name": "_factor",
      "outputs": [
        {
          "internalType": "uint256",
          "name": "",
          "type": "uint256"
        }
      ],
      "stateMutability": "view",
      "type": "function"
    },
    {
      "inputs": [],
      "name": "_totalSupply",
      "outputs": [
        {
          "internalType": "uint256",
          "name": "balance",
          "type": "uint256"
        },
        {
          "internalType": "uint256",
          "name": "refactoredCount",
          "type": "uint256"
        },
        {
          "internalType": "uint256",
          "name": "remain",
          "type": "uint256"
        }
      ],
      "stateMutability": "view",
      "type": "function"
    },
    {
      "inputs": [
        {
          "internalType": "address",
          "name": "account",
          "type": "address"
        }
      ],
      "name": "addAdmin",
      "outputs": [],
      "stateMutability": "nonpayable",
      "type": "function"
    },
    {
      "inputs": [
        {
          "internalType": "address",
          "name": "account",
          "type": "address"
        }
      ],
      "name": "addMinter",
      "outputs": [],
      "stateMutability": "nonpayable",
      "type": "function"
    },
    {
      "inputs": [
        {
          "internalType": "address",
          "name": "account",
          "type": "address"
        }
      ],
      "name": "addOperator",
      "outputs": [],
      "stateMutability": "nonpayable",
      "type": "function"
    },
    {
      "inputs": [
        {
          "internalType": "address",
          "name": "",
          "type": "address"
        }
      ],
      "name": "aliveImplementation",
      "outputs": [
        {
          "internalType": "bool",
          "name": "",
          "type": "bool"
        }
      ],
      "stateMutability": "view",
      "type": "function"
    },
    {
      "inputs": [
        {
          "internalType": "address",
          "name": "account",
          "type": "address"
        }
      ],
      "name": "balanceOf",
      "outputs": [
        {
          "internalType": "uint256",
          "name": "",
          "type": "uint256"
        }
      ],
      "stateMutability": "view",
      "type": "function"
    },
    {
      "inputs": [
        {
          "internalType": "address",
          "name": "",
          "type": "address"
        }
      ],
      "name": "balances",
      "outputs": [
        {
          "internalType": "uint256",
          "name": "balance",
          "type": "uint256"
        },
        {
          "internalType": "uint256",
          "name": "refactoredCount",
          "type": "uint256"
        },
        {
          "internalType": "uint256",
          "name": "remain",
          "type": "uint256"
        }
      ],
      "stateMutability": "view",
      "type": "function"
    },
    {
      "inputs": [
        {
          "internalType": "uint256",
          "name": "amount",
          "type": "uint256"
        }
      ],
      "name": "burn",
      "outputs": [],
      "stateMutability": "nonpayable",
      "type": "function"
    },
    {
      "inputs": [
        {
          "internalType": "address",
          "name": "account",
          "type": "address"
        },
        {
          "internalType": "uint256",
          "name": "amount",
          "type": "uint256"
        }
      ],
      "name": "burnFrom",
      "outputs": [],
      "stateMutability": "nonpayable",
      "type": "function"
    },
    {
      "inputs": [],
      "name": "decimals",
      "outputs": [
        {
          "internalType": "uint8",
          "name": "",
          "type": "uint8"
        }
      ],
      "stateMutability": "view",
      "type": "function"
    },
    {
      "inputs": [],
      "name": "factor",
      "outputs": [
        {
          "internalType": "uint256",
          "name": "",
          "type": "uint256"
        }
      ],
      "stateMutability": "view",
      "type": "function"
    },
    {
      "inputs": [
        {
          "internalType": "bytes32",
          "name": "role",
          "type": "bytes32"
        }
      ],
      "name": "getRoleAdmin",
      "outputs": [
        {
          "internalType": "bytes32",
          "name": "",
          "type": "bytes32"
        }
      ],
      "stateMutability": "view",
      "type": "function"
    },
    {
      "inputs": [
        {
          "internalType": "bytes32",
          "name": "role",
          "type": "bytes32"
        },
        {
          "internalType": "address",
          "name": "account",
          "type": "address"
        }
      ],
      "name": "grantRole",
      "outputs": [],
      "stateMutability": "nonpayable",
      "type": "function"
    },
    {
      "inputs": [
        {
          "internalType": "bytes32",
          "name": "role",
          "type": "bytes32"
        },
        {
          "internalType": "address",
          "name": "account",
          "type": "address"
        }
      ],
      "name": "hasRole",
      "outputs": [
        {
          "internalType": "bool",
          "name": "",
          "type": "bool"
        }
      ],
      "stateMutability": "view",
      "type": "function"
    },
    {
      "inputs": [
        {
          "internalType": "string",
          "name": "name_",
          "type": "string"
        },
        {
          "internalType": "string",
          "name": "symbol_",
          "type": "string"
        },
        {
          "internalType": "uint256",
          "name": "factor_",
          "type": "uint256"
        }
      ],
      "name": "initialize",
      "outputs": [],
      "stateMutability": "nonpayable",
      "type": "function"
    },
    {
      "inputs": [
        {
          "internalType": "address",
          "name": "account",
          "type": "address"
        }
      ],
      "name": "isAdmin",
      "outputs": [
        {
          "internalType": "bool",
          "name": "",
          "type": "bool"
        }
      ],
      "stateMutability": "view",
      "type": "function"
    },
    {
      "inputs": [
        {
          "internalType": "address",
          "name": "account",
          "type": "address"
        }
      ],
      "name": "isMinter",
      "outputs": [
        {
          "internalType": "bool",
          "name": "",
          "type": "bool"
        }
      ],
      "stateMutability": "view",
      "type": "function"
    },
    {
      "inputs": [
        {
          "internalType": "address",
          "name": "account",
          "type": "address"
        }
      ],
      "name": "isOperator",
      "outputs": [
        {
          "internalType": "bool",
          "name": "",
          "type": "bool"
        }
      ],
      "stateMutability": "view",
      "type": "function"
    },
    {
      "inputs": [],
      "name": "isOwner",
      "outputs": [
        {
          "internalType": "bool",
          "name": "",
          "type": "bool"
        }
      ],
      "stateMutability": "view",
      "type": "function"
    },
    {
      "inputs": [
        {
          "internalType": "address",
          "name": "account",
          "type": "address"
        },
        {
          "internalType": "uint256",
          "name": "amount",
          "type": "uint256"
        }
      ],
      "name": "mint",
      "outputs": [
        {
          "internalType": "bool",
          "name": "",
          "type": "bool"
        }
      ],
      "stateMutability": "nonpayable",
      "type": "function"
    },
    {
      "inputs": [],
      "name": "name",
      "outputs": [
        {
          "internalType": "string",
          "name": "",
          "type": "string"
        }
      ],
      "stateMutability": "view",
      "type": "function"
    },
    {
      "inputs": [],
      "name": "pauseProxy",
      "outputs": [
        {
          "internalType": "bool",
          "name": "",
          "type": "bool"
        }
      ],
      "stateMutability": "view",
      "type": "function"
    },
    {
      "inputs": [
        {
          "internalType": "uint256",
          "name": "",
          "type": "uint256"
        }
      ],
      "name": "proxyImplementation",
      "outputs": [
        {
          "internalType": "address",
          "name": "",
          "type": "address"
        }
      ],
      "stateMutability": "view",
      "type": "function"
    },
    {
      "inputs": [],
      "name": "refactorCount",
      "outputs": [
        {
          "internalType": "uint256",
          "name": "",
          "type": "uint256"
        }
      ],
      "stateMutability": "view",
      "type": "function"
    },
    {
      "inputs": [
        {
          "internalType": "address",
          "name": "account",
          "type": "address"
        }
      ],
      "name": "removeAdmin",
      "outputs": [],
      "stateMutability": "nonpayable",
      "type": "function"
    },
    {
      "inputs": [
        {
          "internalType": "address",
          "name": "account",
          "type": "address"
        }
      ],
      "name": "removeMinter",
      "outputs": [],
      "stateMutability": "nonpayable",
      "type": "function"
    },
    {
      "inputs": [
        {
          "internalType": "address",
          "name": "account",
          "type": "address"
        }
      ],
      "name": "removeOperator",
      "outputs": [],
      "stateMutability": "nonpayable",
      "type": "function"
    },
    {
      "inputs": [],
      "name": "renounceMinter",
      "outputs": [],
      "stateMutability": "nonpayable",
      "type": "function"
    },
    {
      "inputs": [],
      "name": "renounceOperator",
      "outputs": [],
      "stateMutability": "nonpayable",
      "type": "function"
    },
    {
      "inputs": [],
      "name": "renounceOwnership",
      "outputs": [],
      "stateMutability": "nonpayable",
      "type": "function"
    },
    {
      "inputs": [
        {
          "internalType": "bytes32",
          "name": "role",
          "type": "bytes32"
        },
        {
          "internalType": "address",
          "name": "account",
          "type": "address"
        }
      ],
      "name": "renounceRole",
      "outputs": [],
      "stateMutability": "nonpayable",
      "type": "function"
    },
    {
      "inputs": [
        {
          "internalType": "address",
          "name": "account",
          "type": "address"
        }
      ],
      "name": "revokeMinter",
      "outputs": [],
      "stateMutability": "nonpayable",
      "type": "function"
    },
    {
      "inputs": [
        {
          "internalType": "address",
          "name": "account",
          "type": "address"
        }
      ],
      "name": "revokeOperator",
      "outputs": [],
      "stateMutability": "nonpayable",
      "type": "function"
    },
    {
      "inputs": [
        {
          "internalType": "bytes32",
          "name": "role",
          "type": "bytes32"
        },
        {
          "internalType": "address",
          "name": "account",
          "type": "address"
        }
      ],
      "name": "revokeRole",
      "outputs": [],
      "stateMutability": "nonpayable",
      "type": "function"
    },
    {
      "inputs": [
        {
          "internalType": "bytes4",
          "name": "",
          "type": "bytes4"
        }
      ],
      "name": "selectorImplementation",
      "outputs": [
        {
          "internalType": "address",
          "name": "",
          "type": "address"
        }
      ],
      "stateMutability": "view",
      "type": "function"
    },
    {
      "inputs": [
        {
          "internalType": "uint256",
          "name": "factor_",
          "type": "uint256"
        }
      ],
      "name": "setFactor",
      "outputs": [
        {
          "internalType": "bool",
          "name": "",
          "type": "bool"
        }
      ],
      "stateMutability": "nonpayable",
      "type": "function"
    },
    {
      "inputs": [
        {
          "internalType": "bytes4",
          "name": "interfaceId",
          "type": "bytes4"
        }
      ],
      "name": "supportsInterface",
      "outputs": [
        {
          "internalType": "bool",
          "name": "",
          "type": "bool"
        }
      ],
      "stateMutability": "view",
      "type": "function"
    },
    {
      "inputs": [],
      "name": "symbol",
      "outputs": [
        {
          "internalType": "string",
          "name": "",
          "type": "string"
        }
      ],
      "stateMutability": "view",
      "type": "function"
    },
    {
      "inputs": [],
      "name": "totalSupply",
      "outputs": [
        {
          "internalType": "uint256",
          "name": "",
          "type": "uint256"
        }
      ],
      "stateMutability": "view",
      "type": "function"
    },
    {
      "inputs": [
        {
          "internalType": "address",
          "name": "newAdmin",
          "type": "address"
        }
      ],
      "name": "transferAdmin",
      "outputs": [],
      "stateMutability": "nonpayable",
      "type": "function"
    },
    {
      "inputs": [
        {
          "internalType": "address",
          "name": "newAdmin",
          "type": "address"
        }
      ],
      "name": "transferOwnership",
      "outputs": [],
      "stateMutability": "nonpayable",
      "type": "function"
    }
  ],
  "transactionHash": "0x4e9c3efcfcae5fd58ae0c48c45b7ab0c24b0ed7e922bcbc2a472c6ce77842754",
  "args": [],
  "numDeployments": 1,
  "solcInputHash": "283de2e2cfe2a55fbe531289fc03b347",
  "bytecode": "0x608060405234801561001057600080fd5b50611f12806100206000396000f3fe608060405234801561001057600080fd5b506004361061031f5760003560e01c806370a08231116101a7578063a7ac30b0116100ee578063cfbd488511610097578063f2fde38b11610071578063f2fde38b1461073c578063f5b541a61461074f578063fad8b32a1461077657600080fd5b8063cfbd4885146106ef578063d539139314610702578063d547741f1461072957600080fd5b8063b119490e116100c8578063b119490e146106a0578063b7c246d7146106b3578063b911135f146106c657600080fd5b8063a7ac30b014610671578063aa271e1a1461067a578063ac8a584a1461068d57600080fd5b806391d1485411610150578063986502751161012a578063986502751461064e5780639870d7fe14610656578063a217fddf1461066957600080fd5b806391d14854146105fa57806395d89b4114610633578063983b2d561461063b57600080fd5b806379cc67901161018157806379cc67901461059d578063817e9d31146105b05780638f32d59b146105c357600080fd5b806370a082311461056f578063715018a61461058257806375829def1461058a57600080fd5b8063313ce5671161026b57806354f703f8116102145780636d150611116101ee5780636d150611146105405780636d70f7ae14610549578063704802751461055c57600080fd5b806354f703f814610508578063550d01a31461051057806363a8fd891461053357600080fd5b806340c10f191161024557806340c10f19146104a157806342966c68146104b457806350d2a276146104c757600080fd5b8063313ce5671461046d57806336568abe1461047c5780633eaaf86b1461048f57600080fd5b8063248a9ca3116102cd5780632ab6f8db116102a75780632ab6f8db1461043f5780632f2ff15d146104475780633092afd51461045a57600080fd5b8063248a9ca3146103bf57806324d7806c146103e257806327e235e3146103f557600080fd5b806306fdde03116102fe57806306fdde031461038d5780631785f53c146103a257806318160ddd146103b757600080fd5b8062d87a9c1461032457806301ffc9a71461033f578063024c2ddd14610362575b600080fd5b61032c600281565b6040519081526020015b60405180910390f35b61035261034d3660046118f2565b610789565b6040519015158152602001610336565b61032c610370366004611933565b600f60209081526000928352604080842090915290825290205481565b61039561079a565b604051610336919061198a565b6103b56103b03660046119bd565b610828565b005b61032c610864565b61032c6103cd3660046119d8565b60009081526005602052604090206001015490565b6103526103f03660046119bd565b610889565b6104246104033660046119bd565b60076020526000908152604090208054600182015460029092015490919083565b60408051938452602084019290925290820152606001610336565b6103b56108c9565b6103b56104553660046119f1565b6108f5565b6103b56104683660046119bd565b61091f565b604051601b8152602001610336565b6103b561048a3660046119f1565b61096a565b600854600954600a5461042492919083565b6103526104af366004611a14565b6109f6565b6103b56104c23660046119d8565b610a93565b6104f06104d53660046118f2565b6003602052600090815260409020546001600160a01b031681565b6040516001600160a01b039091168152602001610336565b61032c610a9d565b61035261051e3660046119bd565b60026020526000908152604090205460ff1681565b6000546103529060ff1681565b61032c600b5481565b6103526105573660046119bd565b610abb565b6103b561056a3660046119bd565b610afb565b61032c61057d3660046119bd565b610b2b565b6103b5610b86565b6103b56105983660046119bd565b610bb6565b6103b56105ab366004611a14565b610c9f565b6103526105be3660046119d8565b610d33565b3360009081527f05b8ccbb9d4d8fb16ea74ce3c29a41f1b461fbdaff4714a0d9a8eb05499746bc602052604090205460ff16610352565b6103526106083660046119f1565b60009182526005602090815260408084206001600160a01b0393909316845291905290205460ff1690565b610395610dec565b6103b56106493660046119bd565b610df9565b6103b5610e48565b6103b56106643660046119bd565b610e72565b61032c600081565b61032c60065481565b6103526106883660046119bd565b610ec1565b6103b561069b3660046119bd565b610f01565b6103b56106ae366004611ae1565b610f50565b61032c6b204fce5e3e2502611000000081565b6104f06106d43660046119d8565b6001602052600090815260409020546001600160a01b031681565b6103b56106fd3660046119bd565b610fc1565b61032c7ff0887ba65ee2024ea881d91b74c2450ef19e1557f03bed3ea9f16b037cbe2dc981565b6103b56107373660046119f1565b61100c565b6103b561074a3660046119bd565b611031565b61032c7f523a704056dcd17bcf83bed8b68c59416dac1119be77755efe3bde0a64e46e0c81565b6103b56107843660046119bd565b61105f565b6000610794826110ae565b92915050565b600d80546107a790611b4e565b80601f01602080910402602001604051908101604052809291908181526020018280546107d390611b4e565b80156108205780601f106107f557610100808354040283529160200191610820565b820191906000526020600020905b81548152906001019060200180831161080357829003601f168201915b505050505081565b61083133610889565b6108565760405162461bcd60e51b815260040161084d90611b88565b60405180910390fd5b61086160008261096a565b50565b600a546008546009546000929161087a916110d3565b6108849190611be1565b905090565b6001600160a01b03811660009081527f05b8ccbb9d4d8fb16ea74ce3c29a41f1b461fbdaff4714a0d9a8eb05499746bc602052604081205460ff16610794565b6108f37f523a704056dcd17bcf83bed8b68c59416dac1119be77755efe3bde0a64e46e0c3361096a565b565b60008281526005602052604090206001015461091081611126565b61091a8383611130565b505050565b61092833610889565b6109445760405162461bcd60e51b815260040161084d90611b88565b6108617ff0887ba65ee2024ea881d91b74c2450ef19e1557f03bed3ea9f16b037cbe2dc9825b6001600160a01b03811633146109e85760405162461bcd60e51b815260206004820152602f60248201527f416363657373436f6e74726f6c3a2063616e206f6e6c792072656e6f756e636560448201527f20726f6c657320666f722073656c660000000000000000000000000000000000606482015260840161084d565b6109f282826111d2565b5050565b3360009081527fca0a2f641ec05ca23127d994cf03ffc453db616acae0b86cb56bb95304d06854602052604081205460ff16610a805760405162461bcd60e51b815260206004820152602360248201527f41757468436f6e74726f6c3a2043616c6c6572206973206e6f742061206d696e6044820152623a32b960e91b606482015260840161084d565b610a8a8383611255565b50600192915050565b61086133826113c1565b60006006546002610aae9190611cd8565b600b546108849190611ce4565b6001600160a01b03811660009081527f02634a7c777b8129955fe1824eee49ef19dfa96f2f4cb63212492c3d84eb58e6602052604081205460ff16610794565b610b0433610889565b610b205760405162461bcd60e51b815260040161084d90611b88565b6108616000826108f5565b6001600160a01b038116600090815260076020908152604080832081516060810183528154808252600183015494820185905260029092015492810183905292610b7591906110d3565b610b7f9190611be1565b9392505050565b610b8f33610889565b610bab5760405162461bcd60e51b815260040161084d90611b88565b6108f360003361096a565b610bbf33610889565b610bdb5760405162461bcd60e51b815260040161084d90611b88565b6001600160a01b038116610c315760405162461bcd60e51b815260206004820152601860248201527f41636365737369626c653a207a65726f20616464726573730000000000000000604482015260640161084d565b6001600160a01b0381163303610c895760405162461bcd60e51b815260206004820152601660248201527f41636365737369626c653a2073616d652061646d696e00000000000000000000604482015260640161084d565b610c946000826108f5565b61086160003361096a565b3360009081527fca0a2f641ec05ca23127d994cf03ffc453db616acae0b86cb56bb95304d06854602052604090205460ff16610d295760405162461bcd60e51b815260206004820152602360248201527f41757468436f6e74726f6c3a2043616c6c6572206973206e6f742061206d696e6044820152623a32b960e91b606482015260840161084d565b6109f28282611514565b6000610d3e33610889565b610d5a5760405162461bcd60e51b815260040161084d90611b88565b600b546000835b6b204fce5e3e250261100000008110610d945781610d7e81611cfb565b9250610d8d9050600282611d14565b9050610d61565b6006829055600b81905560408051848152602081018390529081018390527f47eb304b27f9efb047a046029f8a279a7cc8fccc6786f1e2f65939639584fbdc9060600160405180910390a1600193505050505b919050565b600e80546107a790611b4e565b610e0233610889565b610e1e5760405162461bcd60e51b815260040161084d90611b88565b6108617ff0887ba65ee2024ea881d91b74c2450ef19e1557f03bed3ea9f16b037cbe2dc9826108f5565b6108f37ff0887ba65ee2024ea881d91b74c2450ef19e1557f03bed3ea9f16b037cbe2dc93361096a565b610e7b33610889565b610e975760405162461bcd60e51b815260040161084d90611b88565b6108617f523a704056dcd17bcf83bed8b68c59416dac1119be77755efe3bde0a64e46e0c826108f5565b6001600160a01b03811660009081527fca0a2f641ec05ca23127d994cf03ffc453db616acae0b86cb56bb95304d06854602052604081205460ff16610794565b610f0a33610889565b610f265760405162461bcd60e51b815260040161084d90611b88565b6108617f523a704056dcd17bcf83bed8b68c59416dac1119be77755efe3bde0a64e46e0c8261096a565b600b5415610fa05760405162461bcd60e51b815260206004820152601360248201527f616c726561647920696e697469616c697a656400000000000000000000000000604482015260640161084d565b600d610fac8482611d84565b50600e610fb98382611d84565b50600b555050565b610fca33610889565b610fe65760405162461bcd60e51b815260040161084d90611b88565b6108617ff0887ba65ee2024ea881d91b74c2450ef19e1557f03bed3ea9f16b037cbe2dc9825b60008281526005602052604090206001015461102781611126565b61091a83836111d2565b61103a33610889565b6110565760405162461bcd60e51b815260040161084d90611b88565b61086181610bb6565b61106833610889565b6110845760405162461bcd60e51b815260040161084d90611b88565b6108617f523a704056dcd17bcf83bed8b68c59416dac1119be77755efe3bde0a64e46e0c8261100c565b60006001600160e01b03198216637965db0b60e01b148061079457506107948261151e565b6000826000036110e557506000610794565b6110f183600b5461155a565b9250815b60065481101561111e5761110a600285611ce4565b93508061111681611cfb565b9150506110f5565b509192915050565b610861813361157d565b60008281526005602090815260408083206001600160a01b038516845290915290205460ff166109f25760008281526005602090815260408083206001600160a01b03851684529091529020805460ff1916600117905561118e3390565b6001600160a01b0316816001600160a01b0316837f2f8788117e7eff1d82e926ec794901d17c78024a50270940304540a733656f0d60405160405180910390a45050565b60008281526005602090815260408083206001600160a01b038516845290915290205460ff16156109f25760008281526005602090815260408083206001600160a01b0385168085529252808320805460ff1916905551339285917ff6391f5c32d9c69d2a47ea670b442974b53935d1edc7fd64eb21e047a839171b9190a45050565b6001600160a01b0382166112d15760405162461bcd60e51b815260206004820152602d60248201527f4175746f5265666163746f72436f696e6167653a206d696e7420746f2074686560448201527f207a65726f206164647265737300000000000000000000000000000000000000606482015260840161084d565b6001600160a01b0382166000908152600760205260408120906112f384610b2b565b905060006113018483611be1565b9050600061130e826115f2565b8085556006546001860155905061132485611600565b856001600160a01b03167f9cf9f9619f0acaac17f277688f6a81e51c86a956fd3a54ed5498e71bfb4c91638260065460405161136a929190918252602082015260400190565b60405180910390a26001600160a01b03861660007fddf252ad1be2c89b69c2b068fc378daa952ba7f163c4a11628f55a4df523b3ef6113a884611680565b60405190815260200160405180910390a3505050505050565b6001600160a01b03821661143d5760405162461bcd60e51b815260206004820152602f60248201527f4175746f5265666163746f72436f696e6167653a206275726e2066726f6d207460448201527f6865207a65726f20616464726573730000000000000000000000000000000000606482015260840161084d565b6001600160a01b03821660009081526007602052604081209061145f84610b2b565b9050600061146d8483611e44565b9050600061147a826115f2565b808555600654600186015590506114908561168e565b856001600160a01b03167f9cf9f9619f0acaac17f277688f6a81e51c86a956fd3a54ed5498e71bfb4c9163826006546040516114d6929190918252602082015260400190565b60405180910390a260006001600160a01b0387167fddf252ad1be2c89b69c2b068fc378daa952ba7f163c4a11628f55a4df523b3ef6113a884611680565b6109f282826113c1565b60006301ffc9a760e01b6001600160e01b0319831614806107945750506001600160e01b03191660009081526004602052604090205460ff1690565b60006b033b2e3c9fd0803ce800000061157384846116ae565b610b7f9190611d14565b60008281526005602090815260408083206001600160a01b038516845290915290205460ff166109f2576115b08161171e565b6115bb836020611730565b6040516020016115cc929190611e57565b60408051601f198184030181529082905262461bcd60e51b825261084d9160040161198a565b600061079482600b546118d9565b600854600954600091611612916110d3565b905060006116208383611be1565b9050600061162d826115f2565b600881905560065460098190556040805183815260208101929092529192506000917f9cf9f9619f0acaac17f277688f6a81e51c86a956fd3a54ed5498e71bfb4c9163910160405180910390a250505050565b600061079482600b5461155a565b6008546009546000916116a0916110d3565b905060006116208383611e44565b60008115806116d2575082826116c48183611ce4565b92506116d09083611d14565b145b6107945760405162461bcd60e51b815260206004820152601460248201527f64732d6d6174682d6d756c2d6f766572666c6f77000000000000000000000000604482015260640161084d565b60606107946001600160a01b03831660145b6060600061173f836002611ce4565b61174a906002611be1565b67ffffffffffffffff81111561176257611762611a3e565b6040519080825280601f01601f19166020018201604052801561178c576020820181803683370190505b509050600360fc1b816000815181106117a7576117a7611ed8565b60200101906001600160f81b031916908160001a905350600f60fb1b816001815181106117d6576117d6611ed8565b60200101906001600160f81b031916908160001a90535060006117fa846002611ce4565b611805906001611be1565b90505b600181111561188a577f303132333435363738396162636465660000000000000000000000000000000085600f166010811061184657611846611ed8565b1a60f81b82828151811061185c5761185c611ed8565b60200101906001600160f81b031916908160001a90535060049490941c9361188381611eee565b9050611808565b508315610b7f5760405162461bcd60e51b815260206004820181905260248201527f537472696e67733a20686578206c656e67746820696e73756666696369656e74604482015260640161084d565b600081611573846b033b2e3c9fd0803ce80000006116ae565b60006020828403121561190457600080fd5b81356001600160e01b031981168114610b7f57600080fd5b80356001600160a01b0381168114610de757600080fd5b6000806040838503121561194657600080fd5b61194f8361191c565b915061195d6020840161191c565b90509250929050565b60005b83811015611981578181015183820152602001611969565b50506000910152565b60208152600082518060208401526119a9816040850160208701611966565b601f01601f19169190910160400192915050565b6000602082840312156119cf57600080fd5b610b7f8261191c565b6000602082840312156119ea57600080fd5b5035919050565b60008060408385031215611a0457600080fd5b8235915061195d6020840161191c565b60008060408385031215611a2757600080fd5b611a308361191c565b946020939093013593505050565b634e487b7160e01b600052604160045260246000fd5b600082601f830112611a6557600080fd5b813567ffffffffffffffff80821115611a8057611a80611a3e565b604051601f8301601f19908116603f01168101908282118183101715611aa857611aa8611a3e565b81604052838152866020858801011115611ac157600080fd5b836020870160208301376000602085830101528094505050505092915050565b600080600060608486031215611af657600080fd5b833567ffffffffffffffff80821115611b0e57600080fd5b611b1a87838801611a54565b94506020860135915080821115611b3057600080fd5b50611b3d86828701611a54565b925050604084013590509250925092565b600181811c90821680611b6257607f821691505b602082108103611b8257634e487b7160e01b600052602260045260246000fd5b50919050565b60208082526023908201527f41757468436f6e74726f6c3a2043616c6c6572206973206e6f7420616e20616460408201526236b4b760e91b606082015260800190565b634e487b7160e01b600052601160045260246000fd5b8082018082111561079457610794611bcb565b600181815b80851115611c2f578160001904821115611c1557611c15611bcb565b80851615611c2257918102915b93841c9390800290611bf9565b509250929050565b600082611c4657506001610794565b81611c5357506000610794565b8160018114611c695760028114611c7357611c8f565b6001915050610794565b60ff841115611c8457611c84611bcb565b50506001821b610794565b5060208310610133831016604e8410600b8410161715611cb2575081810a610794565b611cbc8383611bf4565b8060001904821115611cd057611cd0611bcb565b029392505050565b6000610b7f8383611c37565b808202811582820484141761079457610794611bcb565b600060018201611d0d57611d0d611bcb565b5060010190565b600082611d3157634e487b7160e01b600052601260045260246000fd5b500490565b601f82111561091a57600081815260208120601f850160051c81016020861015611d5d5750805b601f850160051c820191505b81811015611d7c57828155600101611d69565b505050505050565b815167ffffffffffffffff811115611d9e57611d9e611a3e565b611db281611dac8454611b4e565b84611d36565b602080601f831160018114611de75760008415611dcf5750858301515b600019600386901b1c1916600185901b178555611d7c565b600085815260208120601f198616915b82811015611e1657888601518255948401946001909101908401611df7565b5085821015611e345787850151600019600388901b60f8161c191681555b5050505050600190811b01905550565b8181038181111561079457610794611bcb565b7f416363657373436f6e74726f6c3a206163636f756e7420000000000000000000815260008351611e8f816017850160208801611966565b7f206973206d697373696e6720726f6c65200000000000000000000000000000006017918401918201528351611ecc816028840160208801611966565b01602801949350505050565b634e487b7160e01b600052603260045260246000fd5b600081611efd57611efd611bcb565b50600019019056fea164736f6c6343000813000a",
  "devdoc": {
    "details": "Implementation of coin age token based on ERC20 of openzeppelin/-solidity AutoRefactorCoinage stores `_totalSupply` and `_balances` as RAY BASED value, `_allowances` as RAY FACTORED value. This takes public function (including _approve) parameters as RAY FACTORED value and internal function (including approve) parameters as RAY BASED value, and emits event in RAY FACTORED value. `RAY BASED` = `RAY FACTORED`  / factor  factor increases exponentially for each block mined.",
    "events": {
      "RoleAdminChanged(bytes32,bytes32,bytes32)": {
        "details": "Emitted when `newAdminRole` is set as ``role``'s admin role, replacing `previousAdminRole` `DEFAULT_ADMIN_ROLE` is the starting admin for all roles, despite {RoleAdminChanged} not being emitted signaling this. _Available since v3.1._"
      },
      "RoleGranted(bytes32,address,address)": {
        "details": "Emitted when `account` is granted `role`. `sender` is the account that originated the contract call, an admin role bearer except when using {AccessControl-_setupRole}."
      },
      "RoleRevoked(bytes32,address,address)": {
        "details": "Emitted when `account` is revoked `role`. `sender` is the account that originated the contract call:   - if using `revokeRole`, it is the admin role bearer   - if using `renounceRole`, it is the role bearer (i.e. `account`)"
      }
    },
    "kind": "dev",
    "methods": {
      "addAdmin(address)": {
        "details": "add admin",
        "params": {
          "account": "address to add"
        }
      },
      "getRoleAdmin(bytes32)": {
        "details": "Returns the admin role that controls `role`. See {grantRole} and {revokeRole}. To change a role's admin, use {_setRoleAdmin}."
      },
      "grantRole(bytes32,address)": {
        "details": "Grants `role` to `account`. If `account` had not been already granted `role`, emits a {RoleGranted} event. Requirements: - the caller must have ``role``'s admin role. May emit a {RoleGranted} event."
      },
      "hasRole(bytes32,address)": {
        "details": "Returns `true` if `account` has been granted `role`."
      },
      "isAdmin(address)": {
        "details": "whether admin",
        "params": {
          "account": "address to check"
        }
      },
      "removeAdmin(address)": {
        "details": "remove admin",
        "params": {
          "account": "address to remove"
        }
      },
      "renounceRole(bytes32,address)": {
        "details": "Revokes `role` from the calling account. Roles are often managed via {grantRole} and {revokeRole}: this function's purpose is to provide a mechanism for accounts to lose their privileges if they are compromised (such as when a trusted device is misplaced). If the calling account had been revoked `role`, emits a {RoleRevoked} event. Requirements: - the caller must be `account`. May emit a {RoleRevoked} event."
      },
      "revokeRole(bytes32,address)": {
        "details": "Revokes `role` from `account`. If `account` had been granted `role`, emits a {RoleRevoked} event. Requirements: - the caller must have ``role``'s admin role. May emit a {RoleRevoked} event."
      },
      "transferAdmin(address)": {
        "details": "transfer admin",
        "params": {
          "newAdmin": "new admin address"
        }
      }
    },
    "version": 1
  },
  "userdoc": {
    "kind": "user",
    "methods": {
      "mint(address,uint256)": {
        "notice": "onlyMinter*"
      },
      "setFactor(uint256)": {
        "notice": "onlyOwner*"
      }
    },
    "version": 1
  },
  "storageLayout": {
    "storage": [
      {
        "astId": 9216,
        "contract": "contracts/stake/tokens/AutoRefactorCoinage.sol:AutoRefactorCoinage",
        "label": "pauseProxy",
        "offset": 0,
        "slot": "0",
        "type": "t_bool"
      },
      {
        "astId": 9220,
        "contract": "contracts/stake/tokens/AutoRefactorCoinage.sol:AutoRefactorCoinage",
        "label": "proxyImplementation",
        "offset": 0,
        "slot": "1",
        "type": "t_mapping(t_uint256,t_address)"
      },
      {
        "astId": 9224,
        "contract": "contracts/stake/tokens/AutoRefactorCoinage.sol:AutoRefactorCoinage",
        "label": "aliveImplementation",
        "offset": 0,
        "slot": "2",
        "type": "t_mapping(t_address,t_bool)"
      },
      {
        "astId": 9228,
        "contract": "contracts/stake/tokens/AutoRefactorCoinage.sol:AutoRefactorCoinage",
        "label": "selectorImplementation",
        "offset": 0,
        "slot": "3",
        "type": "t_mapping(t_bytes4,t_address)"
      },
      {
        "astId": 1389,
        "contract": "contracts/stake/tokens/AutoRefactorCoinage.sol:AutoRefactorCoinage",
        "label": "_supportedInterfaces",
        "offset": 0,
        "slot": "4",
        "type": "t_mapping(t_bytes4,t_bool)"
      },
      {
        "astId": 24,
        "contract": "contracts/stake/tokens/AutoRefactorCoinage.sol:AutoRefactorCoinage",
        "label": "_roles",
        "offset": 0,
        "slot": "5",
        "type": "t_mapping(t_bytes32,t_struct(RoleData)19_storage)"
      },
      {
        "astId": 14917,
        "contract": "contracts/stake/tokens/AutoRefactorCoinage.sol:AutoRefactorCoinage",
        "label": "refactorCount",
        "offset": 0,
        "slot": "6",
        "type": "t_uint256"
      },
      {
        "astId": 14922,
        "contract": "contracts/stake/tokens/AutoRefactorCoinage.sol:AutoRefactorCoinage",
        "label": "balances",
        "offset": 0,
        "slot": "7",
        "type": "t_mapping(t_address,t_struct(Balance)14907_storage)"
      },
      {
        "astId": 14925,
        "contract": "contracts/stake/tokens/AutoRefactorCoinage.sol:AutoRefactorCoinage",
        "label": "_totalSupply",
        "offset": 0,
        "slot": "8",
        "type": "t_struct(Balance)14907_storage"
      },
      {
        "astId": 14927,
        "contract": "contracts/stake/tokens/AutoRefactorCoinage.sol:AutoRefactorCoinage",
        "label": "_factor",
        "offset": 0,
        "slot": "11",
        "type": "t_uint256"
      },
      {
        "astId": 14929,
        "contract": "contracts/stake/tokens/AutoRefactorCoinage.sol:AutoRefactorCoinage",
        "label": "_transfersEnabled",
        "offset": 0,
        "slot": "12",
        "type": "t_bool"
      },
      {
        "astId": 14931,
        "contract": "contracts/stake/tokens/AutoRefactorCoinage.sol:AutoRefactorCoinage",
        "label": "name",
        "offset": 0,
        "slot": "13",
        "type": "t_string_storage"
      },
      {
        "astId": 14933,
        "contract": "contracts/stake/tokens/AutoRefactorCoinage.sol:AutoRefactorCoinage",
        "label": "symbol",
        "offset": 0,
        "slot": "14",
        "type": "t_string_storage"
      },
      {
        "astId": 14939,
        "contract": "contracts/stake/tokens/AutoRefactorCoinage.sol:AutoRefactorCoinage",
        "label": "_allowances",
        "offset": 0,
        "slot": "15",
        "type": "t_mapping(t_address,t_mapping(t_address,t_uint256))"
      }
    ],
    "types": {
      "t_address": {
        "encoding": "inplace",
        "label": "address",
        "numberOfBytes": "20"
      },
      "t_bool": {
        "encoding": "inplace",
        "label": "bool",
        "numberOfBytes": "1"
      },
      "t_bytes32": {
        "encoding": "inplace",
        "label": "bytes32",
        "numberOfBytes": "32"
      },
      "t_bytes4": {
        "encoding": "inplace",
        "label": "bytes4",
        "numberOfBytes": "4"
      },
      "t_mapping(t_address,t_bool)": {
        "encoding": "mapping",
        "key": "t_address",
        "label": "mapping(address => bool)",
        "numberOfBytes": "32",
        "value": "t_bool"
      },
      "t_mapping(t_address,t_mapping(t_address,t_uint256))": {
        "encoding": "mapping",
        "key": "t_address",
        "label": "mapping(address => mapping(address => uint256))",
        "numberOfBytes": "32",
        "value": "t_mapping(t_address,t_uint256)"
      },
      "t_mapping(t_address,t_struct(Balance)14907_storage)": {
        "encoding": "mapping",
        "key": "t_address",
        "label": "mapping(address => struct AutoRefactorCoinageStorage.Balance)",
        "numberOfBytes": "32",
        "value": "t_struct(Balance)14907_storage"
      },
      "t_mapping(t_address,t_uint256)": {
        "encoding": "mapping",
        "key": "t_address",
        "label": "mapping(address => uint256)",
        "numberOfBytes": "32",
        "value": "t_uint256"
      },
      "t_mapping(t_bytes32,t_struct(RoleData)19_storage)": {
        "encoding": "mapping",
        "key": "t_bytes32",
        "label": "mapping(bytes32 => struct AccessControl.RoleData)",
        "numberOfBytes": "32",
        "value": "t_struct(RoleData)19_storage"
      },
      "t_mapping(t_bytes4,t_address)": {
        "encoding": "mapping",
        "key": "t_bytes4",
        "label": "mapping(bytes4 => address)",
        "numberOfBytes": "32",
        "value": "t_address"
      },
      "t_mapping(t_bytes4,t_bool)": {
        "encoding": "mapping",
        "key": "t_bytes4",
        "label": "mapping(bytes4 => bool)",
        "numberOfBytes": "32",
        "value": "t_bool"
      },
      "t_mapping(t_uint256,t_address)": {
        "encoding": "mapping",
        "key": "t_uint256",
        "label": "mapping(uint256 => address)",
        "numberOfBytes": "32",
        "value": "t_address"
      },
      "t_string_storage": {
        "encoding": "bytes",
        "label": "string",
        "numberOfBytes": "32"
      },
      "t_struct(Balance)14907_storage": {
        "encoding": "inplace",
        "label": "struct AutoRefactorCoinageStorage.Balance",
        "members": [
          {
            "astId": 14902,
            "contract": "contracts/stake/tokens/AutoRefactorCoinage.sol:AutoRefactorCoinage",
            "label": "balance",
            "offset": 0,
            "slot": "0",
            "type": "t_uint256"
          },
          {
            "astId": 14904,
            "contract": "contracts/stake/tokens/AutoRefactorCoinage.sol:AutoRefactorCoinage",
            "label": "refactoredCount",
            "offset": 0,
            "slot": "1",
            "type": "t_uint256"
          },
          {
            "astId": 14906,
            "contract": "contracts/stake/tokens/AutoRefactorCoinage.sol:AutoRefactorCoinage",
            "label": "remain",
            "offset": 0,
            "slot": "2",
            "type": "t_uint256"
          }
        ],
        "numberOfBytes": "96"
      },
      "t_struct(RoleData)19_storage": {
        "encoding": "inplace",
        "label": "struct AccessControl.RoleData",
        "members": [
          {
            "astId": 16,
            "contract": "contracts/stake/tokens/AutoRefactorCoinage.sol:AutoRefactorCoinage",
            "label": "members",
            "offset": 0,
            "slot": "0",
            "type": "t_mapping(t_address,t_bool)"
          },
          {
            "astId": 18,
            "contract": "contracts/stake/tokens/AutoRefactorCoinage.sol:AutoRefactorCoinage",
            "label": "adminRole",
            "offset": 0,
            "slot": "1",
            "type": "t_bytes32"
          }
        ],
        "numberOfBytes": "64"
      },
      "t_uint256": {
        "encoding": "inplace",
        "label": "uint256",
        "numberOfBytes": "32"
      }
    }
  }
}