{
  "address": "0x2d73567B91B8bF5eCF6dd8A6BF39000aB8302576",
  "abi": [
    {
      "anonymous": false,
      "inputs": [
        {
          "indexed": true,
          "internalType": "address",
          "name": "layer2",
          "type": "address"
        },
        {
          "indexed": false,
          "internalType": "address",
          "name": "coinage",
          "type": "address"
        }
      ],
      "name": "CoinageCreated",
      "type": "event"
    },
    {
      "anonymous": false,
      "inputs": [
        {
          "indexed": true,
          "internalType": "address",
          "name": "layer2",
          "type": "address"
        }
      ],
      "name": "Comitted",
      "type": "event"
    },
    {
      "anonymous": false,
      "inputs": [
        {
          "indexed": true,
          "internalType": "address",
          "name": "layer2",
          "type": "address"
        },
        {
          "indexed": false,
          "internalType": "uint256",
          "name": "previousRate",
          "type": "uint256"
        },
        {
          "indexed": false,
          "internalType": "uint256",
          "name": "newRate",
          "type": "uint256"
        }
      ],
      "name": "CommissionRateSet",
      "type": "event"
    },
    {
      "anonymous": false,
      "inputs": [
        {
          "indexed": false,
          "internalType": "uint256",
          "name": "totalStakedAmount",
          "type": "uint256"
        },
        {
          "indexed": false,
          "internalType": "uint256",
          "name": "totalSupplyOfWTON",
          "type": "uint256"
        },
        {
          "indexed": false,
          "internalType": "uint256",
          "name": "prevTotalSupply",
          "type": "uint256"
        },
        {
          "indexed": false,
          "internalType": "uint256",
          "name": "nextTotalSupply",
          "type": "uint256"
        }
      ],
      "name": "CommitLog1",
      "type": "event"
    },
    {
      "anonymous": false,
      "inputs": [
        {
          "indexed": false,
          "internalType": "uint256",
          "name": "snapshotId",
          "type": "uint256"
        }
      ],
      "name": "OnSnapshot",
      "type": "event"
    },
    {
      "anonymous": false,
      "inputs": [
        {
          "indexed": false,
          "internalType": "address",
          "name": "account",
          "type": "address"
        }
      ],
      "name": "Paused",
      "type": "event"
    },
    {
      "anonymous": false,
      "inputs": [
        {
          "indexed": true,
          "internalType": "bytes32",
          "name": "role",
          "type": "bytes32"
        },
        {
          "indexed": true,
          "internalType": "bytes32",
          "name": "previousAdminRole",
          "type": "bytes32"
        },
        {
          "indexed": true,
          "internalType": "bytes32",
          "name": "newAdminRole",
          "type": "bytes32"
        }
      ],
      "name": "RoleAdminChanged",
      "type": "event"
    },
    {
      "anonymous": false,
      "inputs": [
        {
          "indexed": true,
          "internalType": "bytes32",
          "name": "role",
          "type": "bytes32"
        },
        {
          "indexed": true,
          "internalType": "address",
          "name": "account",
          "type": "address"
        },
        {
          "indexed": true,
          "internalType": "address",
          "name": "sender",
          "type": "address"
        }
      ],
      "name": "RoleGranted",
      "type": "event"
    },
    {
      "anonymous": false,
      "inputs": [
        {
          "indexed": true,
          "internalType": "bytes32",
          "name": "role",
          "type": "bytes32"
        },
        {
          "indexed": true,
          "internalType": "address",
          "name": "account",
          "type": "address"
        },
        {
          "indexed": true,
          "internalType": "address",
          "name": "sender",
          "type": "address"
        }
      ],
      "name": "RoleRevoked",
      "type": "event"
    },
    {
      "anonymous": false,
      "inputs": [
        {
          "indexed": true,
          "internalType": "address",
          "name": "layer2",
          "type": "address"
        },
        {
          "indexed": false,
          "internalType": "uint256",
          "name": "totalSeig",
          "type": "uint256"
        },
        {
          "indexed": false,
          "internalType": "uint256",
          "name": "stakedSeig",
          "type": "uint256"
        },
        {
          "indexed": false,
          "internalType": "uint256",
          "name": "unstakedSeig",
          "type": "uint256"
        },
        {
          "indexed": false,
          "internalType": "uint256",
          "name": "powertonSeig",
          "type": "uint256"
        },
        {
          "indexed": false,
          "internalType": "uint256",
          "name": "pseig",
          "type": "uint256"
        }
      ],
      "name": "SeigGiven",
      "type": "event"
    },
    {
      "anonymous": false,
      "inputs": [
        {
          "indexed": false,
          "internalType": "address",
          "name": "account",
          "type": "address"
        }
      ],
      "name": "Unpaused",
      "type": "event"
    },
    {
      "anonymous": false,
      "inputs": [
        {
          "indexed": false,
          "internalType": "uint256",
          "name": "coinageBurnAmount",
          "type": "uint256"
        },
        {
          "indexed": false,
          "internalType": "uint256",
          "name": "totBurnAmount",
          "type": "uint256"
        }
      ],
      "name": "UnstakeLog",
      "type": "event"
    },
    {
      "anonymous": false,
      "inputs": [
        {
          "indexed": true,
          "internalType": "address",
          "name": "layer2",
          "type": "address"
        },
        {
          "indexed": false,
          "internalType": "uint256",
          "name": "blockNumber",
          "type": "uint256"
        },
        {
          "indexed": false,
          "internalType": "uint256",
          "name": "prevTotal",
          "type": "uint256"
        },
        {
          "indexed": false,
          "internalType": "uint256",
          "name": "nextTotal",
          "type": "uint256"
        },
        {
          "indexed": false,
          "internalType": "uint256",
          "name": "oldTotFactor",
          "type": "uint256"
        },
        {
          "indexed": false,
          "internalType": "uint256",
          "name": "oldCoinageFactor",
          "type": "uint256"
        },
        {
          "indexed": false,
          "internalType": "uint256",
          "name": "nextTotFactor",
          "type": "uint256"
        },
        {
          "indexed": false,
          "internalType": "uint256",
          "name": "nextCoinageFactor",
          "type": "uint256"
        }
      ],
      "name": "UpdatedSeigniorage",
      "type": "event"
    },
    {
      "inputs": [],
      "name": "CHALLENGER_ROLE",
      "outputs": [
        {
          "internalType": "bytes32",
          "name": "",
          "type": "bytes32"
        }
      ],
      "stateMutability": "view",
      "type": "function"
    },
    {
      "inputs": [],
      "name": "DEFAULT_ADMIN_ROLE",
      "outputs": [
        {
          "internalType": "bytes32",
          "name": "",
          "type": "bytes32"
        }
      ],
      "stateMutability": "view",
      "type": "function"
    },
    {
      "inputs": [],
      "name": "DEFAULT_FACTOR",
      "outputs": [
        {
          "internalType": "uint256",
          "name": "",
          "type": "uint256"
        }
      ],
      "stateMutability": "pure",
      "type": "function"
    },
    {
      "inputs": [],
      "name": "MAX_VALID_COMMISSION",
      "outputs": [
        {
          "internalType": "uint256",
          "name": "",
          "type": "uint256"
        }
      ],
      "stateMutability": "view",
      "type": "function"
    },
    {
      "inputs": [],
      "name": "MINTER_ROLE",
      "outputs": [
        {
          "internalType": "bytes32",
          "name": "",
          "type": "bytes32"
        }
      ],
      "stateMutability": "view",
      "type": "function"
    },
    {
      "inputs": [],
      "name": "MIN_VALID_COMMISSION",
      "outputs": [
        {
          "internalType": "uint256",
          "name": "",
          "type": "uint256"
        }
      ],
      "stateMutability": "view",
      "type": "function"
    },
    {
      "inputs": [],
      "name": "OPERATOR_ROLE",
      "outputs": [
        {
          "internalType": "bytes32",
          "name": "",
          "type": "bytes32"
        }
      ],
      "stateMutability": "view",
      "type": "function"
    },
    {
      "inputs": [],
      "name": "PAUSE_ROLE",
      "outputs": [
        {
          "internalType": "bytes32",
          "name": "",
          "type": "bytes32"
        }
      ],
      "stateMutability": "view",
      "type": "function"
    },
    {
      "inputs": [],
      "name": "RAY",
      "outputs": [
        {
          "internalType": "uint256",
          "name": "",
          "type": "uint256"
        }
      ],
      "stateMutability": "view",
      "type": "function"
    },
    {
      "inputs": [],
      "name": "accRelativeSeig",
      "outputs": [
        {
          "internalType": "uint256",
          "name": "",
          "type": "uint256"
        }
      ],
      "stateMutability": "view",
      "type": "function"
    },
    {
      "inputs": [
        {
          "internalType": "address",
          "name": "account",
          "type": "address"
        }
      ],
      "name": "addAdmin",
      "outputs": [],
      "stateMutability": "nonpayable",
      "type": "function"
    },
    {
      "inputs": [
        {
          "internalType": "address",
          "name": "account",
          "type": "address"
        }
      ],
      "name": "addChallenger",
      "outputs": [],
      "stateMutability": "nonpayable",
      "type": "function"
    },
    {
      "inputs": [
        {
          "internalType": "address",
          "name": "account",
          "type": "address"
        }
      ],
      "name": "addMinter",
      "outputs": [],
      "stateMutability": "nonpayable",
      "type": "function"
    },
    {
      "inputs": [
        {
          "internalType": "address",
          "name": "account",
          "type": "address"
        }
      ],
      "name": "addOperator",
      "outputs": [],
      "stateMutability": "nonpayable",
      "type": "function"
    },
    {
      "inputs": [
        {
          "internalType": "address",
          "name": "layer2",
          "type": "address"
        },
        {
          "internalType": "address",
          "name": "account",
          "type": "address"
        },
        {
          "internalType": "uint256",
          "name": "amount",
          "type": "uint256"
        }
      ],
      "name": "additionalTotBurnAmount",
      "outputs": [
        {
          "internalType": "uint256",
          "name": "totAmount",
          "type": "uint256"
        }
      ],
      "stateMutability": "view",
      "type": "function"
    },
    {
      "inputs": [],
      "name": "adjustCommissionDelay",
      "outputs": [
        {
          "internalType": "uint256",
          "name": "",
          "type": "uint256"
        }
      ],
      "stateMutability": "view",
      "type": "function"
    },
    {
      "inputs": [
        {
          "internalType": "address",
          "name": "layer",
          "type": "address"
        },
        {
          "internalType": "uint256",
          "name": "amount",
          "type": "uint256"
        }
      ],
      "name": "adjustTotBalance",
      "outputs": [],
      "stateMutability": "nonpayable",
      "type": "function"
    },
    {
      "inputs": [
        {
          "internalType": "address",
          "name": "",
          "type": "address"
        }
      ],
      "name": "aliveImplementation",
      "outputs": [
        {
          "internalType": "bool",
          "name": "",
          "type": "bool"
        }
      ],
      "stateMutability": "view",
      "type": "function"
    },
    {
      "inputs": [
        {
          "internalType": "address",
          "name": "layer2",
          "type": "address"
        }
      ],
      "name": "coinages",
      "outputs": [
        {
          "internalType": "address",
          "name": "",
          "type": "address"
        }
      ],
      "stateMutability": "view",
      "type": "function"
    },
    {
      "inputs": [
        {
          "internalType": "address",
          "name": "layer2",
          "type": "address"
        }
      ],
      "name": "commissionRates",
      "outputs": [
        {
          "internalType": "uint256",
          "name": "",
          "type": "uint256"
        }
      ],
      "stateMutability": "view",
      "type": "function"
    },
    {
      "inputs": [],
      "name": "dao",
      "outputs": [
        {
          "internalType": "address",
          "name": "",
          "type": "address"
        }
      ],
      "stateMutability": "view",
      "type": "function"
    },
    {
      "inputs": [],
      "name": "daoSeigRate",
      "outputs": [
        {
          "internalType": "uint256",
          "name": "",
          "type": "uint256"
        }
      ],
      "stateMutability": "view",
      "type": "function"
    },
    {
      "inputs": [
        {
          "internalType": "address",
          "name": "",
          "type": "address"
        }
      ],
      "name": "delayedCommissionBlock",
      "outputs": [
        {
          "internalType": "uint256",
          "name": "",
          "type": "uint256"
        }
      ],
      "stateMutability": "view",
      "type": "function"
    },
    {
      "inputs": [
        {
          "internalType": "address",
          "name": "",
          "type": "address"
        }
      ],
      "name": "delayedCommissionRate",
      "outputs": [
        {
          "internalType": "uint256",
          "name": "",
          "type": "uint256"
        }
      ],
      "stateMutability": "view",
      "type": "function"
    },
    {
      "inputs": [
        {
          "internalType": "address",
          "name": "",
          "type": "address"
        }
      ],
      "name": "delayedCommissionRateNegative",
      "outputs": [
        {
          "internalType": "bool",
          "name": "",
          "type": "bool"
        }
      ],
      "stateMutability": "view",
      "type": "function"
    },
    {
      "inputs": [
        {
          "internalType": "address",
          "name": "layer2",
          "type": "address"
        }
      ],
      "name": "deployCoinage",
      "outputs": [
        {
          "internalType": "bool",
          "name": "",
          "type": "bool"
        }
      ],
      "stateMutability": "nonpayable",
      "type": "function"
    },
    {
      "inputs": [],
      "name": "depositManager",
      "outputs": [
        {
          "internalType": "address",
          "name": "",
          "type": "address"
        }
      ],
      "stateMutability": "view",
      "type": "function"
    },
    {
      "inputs": [],
      "name": "factory",
      "outputs": [
        {
          "internalType": "address",
          "name": "",
          "type": "address"
        }
      ],
      "stateMutability": "view",
      "type": "function"
    },
    {
      "inputs": [
        {
          "internalType": "address",
          "name": "layer2",
          "type": "address"
        }
      ],
      "name": "getOperatorAmount",
      "outputs": [
        {
          "internalType": "uint256",
          "name": "",
          "type": "uint256"
        }
      ],
      "stateMutability": "view",
      "type": "function"
    },
    {
      "inputs": [
        {
          "internalType": "bytes32",
          "name": "role",
          "type": "bytes32"
        }
      ],
      "name": "getRoleAdmin",
      "outputs": [
        {
          "internalType": "bytes32",
          "name": "",
          "type": "bytes32"
        }
      ],
      "stateMutability": "view",
      "type": "function"
    },
    {
      "inputs": [
        {
          "internalType": "bytes32",
          "name": "role",
          "type": "bytes32"
        },
        {
          "internalType": "address",
          "name": "account",
          "type": "address"
        }
      ],
      "name": "grantRole",
      "outputs": [],
      "stateMutability": "nonpayable",
      "type": "function"
    },
    {
      "inputs": [
        {
          "internalType": "bytes32",
          "name": "role",
          "type": "bytes32"
        },
        {
          "internalType": "address",
          "name": "account",
          "type": "address"
        }
      ],
      "name": "hasRole",
      "outputs": [
        {
          "internalType": "bool",
          "name": "",
          "type": "bool"
        }
      ],
      "stateMutability": "view",
      "type": "function"
    },
    {
      "inputs": [
        {
          "internalType": "address",
          "name": "ton_",
          "type": "address"
        },
        {
          "internalType": "address",
          "name": "wton_",
          "type": "address"
        },
        {
          "internalType": "address",
          "name": "registry_",
          "type": "address"
        },
        {
          "internalType": "address",
          "name": "depositManager_",
          "type": "address"
        },
        {
          "internalType": "uint256",
          "name": "seigPerBlock_",
          "type": "uint256"
        },
        {
          "internalType": "address",
          "name": "factory_",
          "type": "address"
        },
        {
          "internalType": "uint256",
          "name": "lastSeigBlock_",
          "type": "uint256"
        }
      ],
      "name": "initialize",
      "outputs": [],
      "stateMutability": "nonpayable",
      "type": "function"
    },
    {
      "inputs": [
        {
          "internalType": "address",
          "name": "account",
          "type": "address"
        }
      ],
      "name": "isAdmin",
      "outputs": [
        {
          "internalType": "bool",
          "name": "",
          "type": "bool"
        }
      ],
      "stateMutability": "view",
      "type": "function"
    },
    {
      "inputs": [
        {
          "internalType": "address",
          "name": "account",
          "type": "address"
        }
      ],
      "name": "isChallenger",
      "outputs": [
        {
          "internalType": "bool",
          "name": "",
          "type": "bool"
        }
      ],
      "stateMutability": "view",
      "type": "function"
    },
    {
      "inputs": [
        {
          "internalType": "address",
          "name": "layer2",
          "type": "address"
        }
      ],
      "name": "isCommissionRateNegative",
      "outputs": [
        {
          "internalType": "bool",
          "name": "",
          "type": "bool"
        }
      ],
      "stateMutability": "view",
      "type": "function"
    },
    {
      "inputs": [
        {
          "internalType": "address",
          "name": "account",
          "type": "address"
        }
      ],
      "name": "isMinter",
      "outputs": [
        {
          "internalType": "bool",
          "name": "",
          "type": "bool"
        }
      ],
      "stateMutability": "view",
      "type": "function"
    },
    {
      "inputs": [
        {
          "internalType": "address",
          "name": "account",
          "type": "address"
        }
      ],
      "name": "isOperator",
      "outputs": [
        {
          "internalType": "bool",
          "name": "",
          "type": "bool"
        }
      ],
      "stateMutability": "view",
      "type": "function"
    },
    {
      "inputs": [],
      "name": "isOwner",
      "outputs": [
        {
          "internalType": "bool",
          "name": "",
          "type": "bool"
        }
      ],
      "stateMutability": "view",
      "type": "function"
    },
    {
      "inputs": [
        {
          "internalType": "address",
          "name": "layer2",
          "type": "address"
        }
      ],
      "name": "lastCommitBlock",
      "outputs": [
        {
          "internalType": "uint256",
          "name": "",
          "type": "uint256"
        }
      ],
      "stateMutability": "view",
      "type": "function"
    },
    {
      "inputs": [],
      "name": "lastSeigBlock",
      "outputs": [
        {
          "internalType": "uint256",
          "name": "",
          "type": "uint256"
        }
      ],
      "stateMutability": "view",
      "type": "function"
    },
    {
      "inputs": [],
      "name": "minimumAmount",
      "outputs": [
        {
          "internalType": "uint256",
          "name": "",
          "type": "uint256"
        }
      ],
      "stateMutability": "view",
      "type": "function"
    },
    {
      "inputs": [
        {
          "internalType": "address",
          "name": "layer2",
          "type": "address"
        },
        {
          "internalType": "address",
          "name": "account",
          "type": "address"
        },
        {
          "internalType": "uint256",
          "name": "amount",
          "type": "uint256"
        }
      ],
      "name": "onDeposit",
      "outputs": [
        {
          "internalType": "bool",
          "name": "",
          "type": "bool"
        }
      ],
      "stateMutability": "nonpayable",
      "type": "function"
    },
    {
      "inputs": [],
      "name": "onSnapshot",
      "outputs": [
        {
          "internalType": "uint256",
          "name": "snapshotId",
          "type": "uint256"
        }
      ],
      "stateMutability": "nonpayable",
      "type": "function"
    },
    {
      "inputs": [
        {
          "internalType": "address",
          "name": "sender",
          "type": "address"
        },
        {
          "internalType": "address",
          "name": "recipient",
          "type": "address"
        },
        {
          "internalType": "uint256",
          "name": "amount",
          "type": "uint256"
        }
      ],
      "name": "onTransfer",
      "outputs": [
        {
          "internalType": "bool",
          "name": "",
          "type": "bool"
        }
      ],
      "stateMutability": "nonpayable",
      "type": "function"
    },
    {
      "inputs": [
        {
          "internalType": "address",
          "name": "layer2",
          "type": "address"
        },
        {
          "internalType": "address",
          "name": "account",
          "type": "address"
        },
        {
          "internalType": "uint256",
          "name": "amount",
          "type": "uint256"
        }
      ],
      "name": "onWithdraw",
      "outputs": [
        {
          "internalType": "bool",
          "name": "",
          "type": "bool"
        }
      ],
      "stateMutability": "nonpayable",
      "type": "function"
    },
    {
      "inputs": [],
      "name": "pause",
      "outputs": [],
      "stateMutability": "nonpayable",
      "type": "function"
    },
    {
      "inputs": [],
      "name": "pauseProxy",
      "outputs": [
        {
          "internalType": "bool",
          "name": "",
          "type": "bool"
        }
      ],
      "stateMutability": "view",
      "type": "function"
    },
    {
      "inputs": [],
      "name": "paused",
      "outputs": [
        {
          "internalType": "bool",
          "name": "",
          "type": "bool"
        }
      ],
      "stateMutability": "view",
      "type": "function"
    },
    {
      "inputs": [],
      "name": "pausedBlock",
      "outputs": [
        {
          "internalType": "uint256",
          "name": "",
          "type": "uint256"
        }
      ],
      "stateMutability": "view",
      "type": "function"
    },
    {
      "inputs": [],
      "name": "powerTONSeigRate",
      "outputs": [
        {
          "internalType": "uint256",
          "name": "",
          "type": "uint256"
        }
      ],
      "stateMutability": "view",
      "type": "function"
    },
    {
      "inputs": [],
      "name": "powerton",
      "outputs": [
        {
          "internalType": "address",
          "name": "",
          "type": "address"
        }
      ],
      "stateMutability": "view",
      "type": "function"
    },
    {
      "inputs": [
        {
          "internalType": "uint256",
          "name": "",
          "type": "uint256"
        }
      ],
      "name": "proxyImplementation",
      "outputs": [
        {
          "internalType": "address",
          "name": "",
          "type": "address"
        }
      ],
      "stateMutability": "view",
      "type": "function"
    },
    {
      "inputs": [],
      "name": "registry",
      "outputs": [
        {
          "internalType": "address",
          "name": "",
          "type": "address"
        }
      ],
      "stateMutability": "view",
      "type": "function"
    },
    {
      "inputs": [],
      "name": "relativeSeigRate",
      "outputs": [
        {
          "internalType": "uint256",
          "name": "",
          "type": "uint256"
        }
      ],
      "stateMutability": "view",
      "type": "function"
    },
    {
      "inputs": [
        {
          "internalType": "address",
          "name": "account",
          "type": "address"
        }
      ],
      "name": "removeAdmin",
      "outputs": [],
      "stateMutability": "nonpayable",
      "type": "function"
    },
    {
      "inputs": [
        {
          "internalType": "address",
          "name": "account",
          "type": "address"
        }
      ],
      "name": "removeChallenger",
      "outputs": [],
      "stateMutability": "nonpayable",
      "type": "function"
    },
    {
      "inputs": [
        {
          "internalType": "address",
          "name": "account",
          "type": "address"
        }
      ],
      "name": "removeMinter",
      "outputs": [],
      "stateMutability": "nonpayable",
      "type": "function"
    },
    {
      "inputs": [
        {
          "internalType": "address",
          "name": "account",
          "type": "address"
        }
      ],
      "name": "removeOperator",
      "outputs": [],
      "stateMutability": "nonpayable",
      "type": "function"
    },
    {
      "inputs": [],
      "name": "renounceChallenger",
      "outputs": [],
      "stateMutability": "nonpayable",
      "type": "function"
    },
    {
      "inputs": [],
      "name": "renounceMinter",
      "outputs": [],
      "stateMutability": "nonpayable",
      "type": "function"
    },
    {
      "inputs": [],
      "name": "renounceOperator",
      "outputs": [],
      "stateMutability": "nonpayable",
      "type": "function"
    },
    {
      "inputs": [],
      "name": "renounceOwnership",
      "outputs": [],
      "stateMutability": "nonpayable",
      "type": "function"
    },
    {
      "inputs": [
        {
          "internalType": "bytes32",
          "name": "role",
          "type": "bytes32"
        },
        {
          "internalType": "address",
          "name": "account",
          "type": "address"
        }
      ],
      "name": "renounceRole",
      "outputs": [],
      "stateMutability": "nonpayable",
      "type": "function"
    },
    {
      "inputs": [],
      "name": "renounceWTONMinter",
      "outputs": [],
      "stateMutability": "nonpayable",
      "type": "function"
    },
    {
      "inputs": [
        {
          "internalType": "address",
          "name": "account",
          "type": "address"
        }
      ],
      "name": "revokeChallenger",
      "outputs": [],
      "stateMutability": "nonpayable",
      "type": "function"
    },
    {
      "inputs": [
        {
          "internalType": "address",
          "name": "account",
          "type": "address"
        }
      ],
      "name": "revokeMinter",
      "outputs": [],
      "stateMutability": "nonpayable",
      "type": "function"
    },
    {
      "inputs": [
        {
          "internalType": "address",
          "name": "account",
          "type": "address"
        }
      ],
      "name": "revokeOperator",
      "outputs": [],
      "stateMutability": "nonpayable",
      "type": "function"
    },
    {
      "inputs": [
        {
          "internalType": "bytes32",
          "name": "role",
          "type": "bytes32"
        },
        {
          "internalType": "address",
          "name": "account",
          "type": "address"
        }
      ],
      "name": "revokeRole",
      "outputs": [],
      "stateMutability": "nonpayable",
      "type": "function"
    },
    {
      "inputs": [],
      "name": "seigPerBlock",
      "outputs": [
        {
          "internalType": "uint256",
          "name": "",
          "type": "uint256"
        }
      ],
      "stateMutability": "view",
      "type": "function"
    },
    {
      "inputs": [
        {
          "internalType": "bytes4",
          "name": "",
          "type": "bytes4"
        }
      ],
      "name": "selectorImplementation",
      "outputs": [
        {
          "internalType": "address",
          "name": "",
          "type": "address"
        }
      ],
      "stateMutability": "view",
      "type": "function"
    },
    {
      "inputs": [
        {
          "internalType": "uint256",
          "name": "adjustDelay_",
          "type": "uint256"
        }
      ],
      "name": "setAdjustDelay",
      "outputs": [],
      "stateMutability": "nonpayable",
      "type": "function"
    },
    {
      "inputs": [
        {
          "internalType": "address",
          "name": "factory_",
          "type": "address"
        }
      ],
      "name": "setCoinageFactory",
      "outputs": [],
      "stateMutability": "nonpayable",
      "type": "function"
    },
    {
      "inputs": [
        {
          "internalType": "address",
          "name": "layer2",
          "type": "address"
        },
        {
          "internalType": "uint256",
          "name": "commissionRate",
          "type": "uint256"
        },
        {
          "internalType": "bool",
          "name": "isCommissionRateNegative_",
          "type": "bool"
        }
      ],
      "name": "setCommissionRate",
      "outputs": [
        {
          "internalType": "bool",
          "name": "",
          "type": "bool"
        }
      ],
      "stateMutability": "nonpayable",
      "type": "function"
    },
    {
      "inputs": [
        {
          "internalType": "address",
          "name": "daoAddress",
          "type": "address"
        }
      ],
      "name": "setDao",
      "outputs": [],
      "stateMutability": "nonpayable",
      "type": "function"
    },
    {
      "inputs": [
        {
          "internalType": "uint256",
          "name": "daoSeigRate_",
          "type": "uint256"
        }
      ],
      "name": "setDaoSeigRate",
      "outputs": [],
      "stateMutability": "nonpayable",
      "type": "function"
    },
    {
      "inputs": [
        {
          "internalType": "address",
          "name": "powerton_",
          "type": "address"
        },
        {
          "internalType": "address",
          "name": "daoAddress",
          "type": "address"
        },
        {
          "internalType": "uint256",
          "name": "powerTONSeigRate_",
          "type": "uint256"
        },
        {
          "internalType": "uint256",
          "name": "daoSeigRate_",
          "type": "uint256"
        },
        {
          "internalType": "uint256",
          "name": "relativeSeigRate_",
          "type": "uint256"
        },
        {
          "internalType": "uint256",
          "name": "adjustDelay_",
          "type": "uint256"
        },
        {
          "internalType": "uint256",
          "name": "minimumAmount_",
          "type": "uint256"
        }
      ],
      "name": "setData",
      "outputs": [],
      "stateMutability": "nonpayable",
      "type": "function"
    },
    {
      "inputs": [
        {
          "internalType": "uint256",
          "name": "minimumAmount_",
          "type": "uint256"
        }
      ],
      "name": "setMinimumAmount",
      "outputs": [],
      "stateMutability": "nonpayable",
      "type": "function"
    },
    {
      "inputs": [
        {
          "internalType": "address",
          "name": "powerton_",
          "type": "address"
        }
      ],
      "name": "setPowerTON",
      "outputs": [],
      "stateMutability": "nonpayable",
      "type": "function"
    },
    {
      "inputs": [
        {
          "internalType": "uint256",
          "name": "powerTONSeigRate_",
          "type": "uint256"
        }
      ],
      "name": "setPowerTONSeigRate",
      "outputs": [],
      "stateMutability": "nonpayable",
      "type": "function"
    },
    {
      "inputs": [
        {
          "internalType": "uint256",
          "name": "pseigRate_",
          "type": "uint256"
        }
      ],
      "name": "setPseigRate",
      "outputs": [],
      "stateMutability": "nonpayable",
      "type": "function"
    },
    {
      "inputs": [
        {
          "internalType": "address",
          "name": "layer2",
          "type": "address"
        },
        {
          "internalType": "address",
          "name": "challenger",
          "type": "address"
        }
      ],
      "name": "slash",
      "outputs": [
        {
          "internalType": "bool",
          "name": "",
          "type": "bool"
        }
      ],
      "stateMutability": "nonpayable",
      "type": "function"
    },
    {
      "inputs": [
        {
          "internalType": "address",
          "name": "account",
          "type": "address"
        }
      ],
      "name": "stakeOf",
      "outputs": [
        {
          "internalType": "uint256",
          "name": "amount",
          "type": "uint256"
        }
      ],
      "stateMutability": "view",
      "type": "function"
    },
    {
      "inputs": [
        {
          "internalType": "address",
          "name": "layer2",
          "type": "address"
        },
        {
          "internalType": "address",
          "name": "account",
          "type": "address"
        }
      ],
      "name": "stakeOf",
      "outputs": [
        {
          "internalType": "uint256",
          "name": "",
          "type": "uint256"
        }
      ],
      "stateMutability": "view",
      "type": "function"
    },
    {
      "inputs": [
        {
          "internalType": "address",
          "name": "account",
          "type": "address"
        },
        {
          "internalType": "uint256",
          "name": "snapshotId",
          "type": "uint256"
        }
      ],
      "name": "stakeOfAt",
      "outputs": [
        {
          "internalType": "uint256",
          "name": "amount",
          "type": "uint256"
        }
      ],
      "stateMutability": "view",
      "type": "function"
    },
    {
      "inputs": [],
      "name": "stakeOfTotal",
      "outputs": [
        {
          "internalType": "uint256",
          "name": "amount",
          "type": "uint256"
        }
      ],
      "stateMutability": "view",
      "type": "function"
    },
    {
      "inputs": [
        {
          "internalType": "uint256",
          "name": "snapshotId",
          "type": "uint256"
        }
      ],
      "name": "stakeOfTotalAt",
      "outputs": [
        {
          "internalType": "uint256",
          "name": "amount",
          "type": "uint256"
        }
      ],
      "stateMutability": "view",
      "type": "function"
    },
    {
      "inputs": [
        {
          "internalType": "bytes4",
          "name": "interfaceId",
          "type": "bytes4"
        }
      ],
      "name": "supportsInterface",
      "outputs": [
        {
          "internalType": "bool",
          "name": "",
          "type": "bool"
        }
      ],
      "stateMutability": "view",
      "type": "function"
    },
    {
      "inputs": [],
      "name": "ton",
      "outputs": [
        {
          "internalType": "address",
          "name": "",
          "type": "address"
        }
      ],
      "stateMutability": "view",
      "type": "function"
    },
    {
      "inputs": [],
      "name": "tot",
      "outputs": [
        {
          "internalType": "address",
          "name": "",
          "type": "address"
        }
      ],
      "stateMutability": "view",
      "type": "function"
    },
    {
      "inputs": [
        {
          "internalType": "address",
          "name": "newAdmin",
          "type": "address"
        }
      ],
      "name": "transferAdmin",
      "outputs": [],
      "stateMutability": "nonpayable",
      "type": "function"
    },
    {
      "inputs": [
        {
          "internalType": "address",
          "name": "newSeigManager",
          "type": "address"
        },
        {
          "internalType": "address[]",
          "name": "coinages_",
          "type": "address[]"
        }
      ],
      "name": "transferCoinageOwnership",
      "outputs": [],
      "stateMutability": "nonpayable",
      "type": "function"
    },
    {
      "inputs": [
        {
          "internalType": "address",
          "name": "newAdmin",
          "type": "address"
        }
      ],
      "name": "transferOwnership",
      "outputs": [],
      "stateMutability": "nonpayable",
      "type": "function"
    },
    {
      "inputs": [
        {
          "internalType": "address",
          "name": "layer2",
          "type": "address"
        },
        {
          "internalType": "address",
          "name": "account",
          "type": "address"
        }
      ],
      "name": "uncomittedStakeOf",
      "outputs": [
        {
          "internalType": "uint256",
          "name": "",
          "type": "uint256"
        }
      ],
      "stateMutability": "view",
      "type": "function"
    },
    {
      "inputs": [],
      "name": "unpause",
      "outputs": [],
      "stateMutability": "nonpayable",
      "type": "function"
    },
    {
      "inputs": [],
      "name": "unpausedBlock",
      "outputs": [
        {
          "internalType": "uint256",
          "name": "",
          "type": "uint256"
        }
      ],
      "stateMutability": "view",
      "type": "function"
    },
    {
      "inputs": [],
      "name": "updateSeigniorage",
      "outputs": [
        {
          "internalType": "bool",
          "name": "",
          "type": "bool"
        }
      ],
      "stateMutability": "nonpayable",
      "type": "function"
    },
    {
      "inputs": [
        {
          "internalType": "address",
          "name": "layer2",
          "type": "address"
        }
      ],
      "name": "updateSeigniorageLayer",
      "outputs": [
        {
          "internalType": "bool",
          "name": "",
          "type": "bool"
        }
      ],
      "stateMutability": "nonpayable",
      "type": "function"
    },
    {
      "inputs": [],
      "name": "wton",
      "outputs": [
        {
          "internalType": "address",
          "name": "",
          "type": "address"
        }
      ],
      "stateMutability": "view",
      "type": "function"
    }
  ],
  "transactionHash": "0xdf0db9a697e4d0f11aec36d0a5f02df66a750e25e5e77caebc41d7a896adfc65",
  "args": [],
  "numDeployments": 1,
  "solcInputHash": "c36eee513e37284de25b9dbe28750135",
  "bytecode": "0x608060405234801561001057600080fd5b5061565280620000216000396000f3fe608060405234801561001057600080fd5b50600436106106515760003560e01c80637048027511610345578063ac8a584a116101bd578063d547741f11610104578063f35c89e8116100ad578063f850ffaa11610087578063f850ffaa14610df8578063f8951f4614610e0b578063fa9789c814610e1e578063fad8b32a14610e3157600080fd5b8063f35c89e814610dc0578063f5b541a614610dc8578063f822934814610def57600080fd5b8063e4034832116100de578063e403483214610d87578063eeb4a9c814610d9a578063f2fde38b14610dad57600080fd5b8063d547741f14610d4b578063df7fbef014610d5e578063e2fe8fd114610d6757600080fd5b8063cbfebe6211610166578063ce6c035511610140578063ce6c035514610d09578063cfbd488514610d11578063d539139314610d2457600080fd5b8063cbfebe6214610cc5578063cc48b94714610ce5578063ce4cb87614610cf657600080fd5b8063bb0c829811610197578063bb0c829814610c80578063c45a015514610c89578063c59f104614610c9c57600080fd5b8063ac8a584a14610c3c578063ae3458f814610c4f578063b911135f14610c5757600080fd5b806391d148541161028c578063a16d6aa711610235578063a7dcc8501161020f578063a7dcc85014610be1578063aa271e1a14610bf3578063ac753a7a14610c06578063ac89321914610c2957600080fd5b8063a16d6aa714610bb5578063a217fddf14610bc6578063a415d8dc14610bce57600080fd5b80639870d7fe116102665780639870d7fe14610b7c5780639c877e4714610b8f578063a0474ef514610ba257600080fd5b806391d1485414610b28578063983b2d5614610b615780639865027514610b7457600080fd5b80637b103999116102ee5780638bf91dc4116102c85780638bf91dc414610ace5780638d62d94914610ae05780638f32d59b14610af157600080fd5b80637b10399914610aa2578063833a774f14610ab35780638456cb5914610ac657600080fd5b8063764a78561161031f578063764a785614610a5e5780637aeccce914610a665780637b056c1b14610a7957600080fd5b80637048027514610a30578063715018a614610a4357806375829def14610a4b57600080fd5b8063412c6d50116104d8578063550d01a31161041f5780635f40a349116103c85780636637b882116103a25780636637b882146109e65780636c578c1d146109f95780636c7ac9d814610a0c5780636d70f7ae14610a1d57600080fd5b80635f40a349146109c85780636304a624146109d057806363a8fd89146109d957600080fd5b80635998a8d7116103f95780635998a8d7146109865780635a16a4161461098f5780635c975abb146109bb57600080fd5b8063550d01a31461095b578063552033c41461082157806358d00cd61461097e57600080fd5b806348c8577e116104815780634c75ab9c1161045b5780634c75ab9c146108f857806350d2a2761461090b578063530adbb41461093457600080fd5b806348c8577e146108a65780634a393149146108b95780634c063c19146108cc57600080fd5b80634224ed66116104b25780634224ed661461086d578063426233601461088057806346a99fe71461089357600080fd5b8063412c6d50146108345780634162169f14610847578063418130201461085a57600080fd5b80632d1bdec81161059c57806336568abe116105455780633e832e1d1161051f5780633e832e1d146107f45780633f4ba83a146108195780634123196f1461082157600080fd5b806336568abe146107a7578063389ed267146107ba5780633c491173146107e157600080fd5b80633092afd5116105765780633092afd51461077957806332053c991461078c578063328479531461079457600080fd5b80632d1bdec8146107405780632f17250a146107535780632f2ff15d1461076657600080fd5b8063248a9ca3116105fe57806325e90db4116105d857806325e90db41461071d57806328050c2f146107255780632ab6f8db1461073857600080fd5b8063248a9ca3146106de57806324d7806c1461070157806325374a9a1461071457600080fd5b80631785f53c1161062f5780631785f53c146106a65780631cc47890146106b95780631e1f0b60146106cb57600080fd5b806301ffc9a71461065657806303e1cc271461067e5780630ceb678014610693575b600080fd5b6106696106643660046150d1565b610e44565b60405190151581526020015b60405180910390f35b61069161068c3660046150fb565b610e55565b005b6106916106a1366004615129565b610eef565b6106916106b4366004615129565b611024565b6013545b604051908152602001610675565b6106696106d9366004615129565b611054565b6106bd6106ec3660046150fb565b60009081526005602052604090206001015490565b61066961070f366004615129565b61110e565b6106bd601d5481565b61069161114e565b610691610733366004615146565b61117a565b61069161121b565b61069161074e3660046150fb565b611245565b6106bd610761366004615129565b61126f565b610691610774366004615172565b61135a565b610691610787366004615129565b61137f565b6012546106bd565b6106916107a23660046151a2565b6113ce565b6106916107b5366004615172565b61154e565b6106bd7ffcb9fcbfa83b897fb2d5cf4b58962164105c1e71489a37ef3ae0db3fdce576f681565b6106916107ef366004615129565b6115da565b6008546001600160a01b03165b6040516001600160a01b039091168152602001610675565b610691611629565b6106bd6b033b2e3c9fd0803ce800000081565b61066961084236600461522a565b611749565b600954610801906001600160a01b031681565b610691610868366004615129565b611a1f565b61066961087b366004615279565b611a66565b6106bd61088e366004615129565b611ce2565b6106916108a13660046152bb565b611e7d565b6106bd6108b436600461522a565b61200d565b6106696108c736600461522a565b612022565b6108016108da366004615129565b6001600160a01b039081166000908152600e60205260409020541690565b6106bd610906366004615146565b6120d8565b6108016109193660046150d1565b6003602052600090815260409020546001600160a01b031681565b6106bd7fbf02bad7114723a857a3af46cea17b778a3a951c96f183784d9a2448cc479ab681565b610669610969366004615129565b60026020526000908152604090205460ff1681565b6106bd61227b565b6106bd601c5481565b61066961099d366004615129565b6001600160a01b031660009081526015602052604090205460ff1690565b601f546106699060ff1681565b6010546106bd565b6106bd601b5481565b6000546106699060ff1681565b6106916109f4366004615129565b6124bc565b610691610a07366004615129565b612503565b6007546001600160a01b0316610801565b610669610a2b366004615129565b612552565b610691610a3e366004615129565b612592565b6106916125c2565b610691610a59366004615129565b6125f2565b6106696126db565b610669610a7436600461533f565b612ea7565b6106bd610a87366004615129565b6001600160a01b031660009081526014602052604090205490565b6006546001600160a01b0316610801565b610669610ac1366004615129565b61301a565b61069161317d565b6b033b2e3c9fd0803ce80000006106bd565b600b546001600160a01b0316610801565b3360009081527f05b8ccbb9d4d8fb16ea74ce3c29a41f1b461fbdaff4714a0d9a8eb05499746bc602052604090205460ff16610669565b610669610b36366004615172565b60009182526005602090815260408084206001600160a01b0393909316845291905290205460ff1690565b610691610b6f366004615129565b6132a0565b6106916132ef565b610691610b8a366004615129565b613319565b610691610b9d3660046150fb565b613368565b6106bd610bb03660046150fb565b6133f9565b600d546001600160a01b0316610801565b6106bd600081565b610669610bdc366004615129565b613467565b6106bd6a084595161401484a00000081565b610669610c01366004615129565b6134a7565b610669610c14366004615129565b60196020526000908152604090205460ff1681565b610691610c37366004615129565b6134e7565b610691610c4a366004615129565b61352e565b61069161357d565b610801610c653660046150fb565b6001602052600090815260409020546001600160a01b031681565b6106bd601a5481565b600c54610801906001600160a01b031681565b6106bd610caa366004615129565b6001600160a01b03166000908152600f602052604090205490565b6106bd610cd3366004615129565b60176020526000908152604090205481565b600a546001600160a01b0316610801565b6106bd610d0436600461533f565b613606565b6106bd61365f565b610691610d1f366004615129565b6136cd565b6106bd7ff0887ba65ee2024ea881d91b74c2450ef19e1557f03bed3ea9f16b037cbe2dc981565b610691610d59366004615172565b613718565b6106bd60165481565b6106bd610d75366004615129565b60186020526000908152604090205481565b610691610d953660046150fb565b61373d565b610691610da83660046150fb565b6137ce565b610691610dbb366004615129565b6137f8565b6011546106bd565b6106bd7f523a704056dcd17bcf83bed8b68c59416dac1119be77755efe3bde0a64e46e0c81565b6106bd601e5481565b610669610e0636600461522a565b613826565b610691610e1936600461536d565b613c2c565b6106bd610e2c36600461533f565b613d10565b610691610e3f366004615129565b613f90565b6000610e4f82613fdf565b92915050565b610e5e3361110e565b610e835760405162461bcd60e51b8152600401610e7a906153cf565b60405180910390fd5b600081118015610e9e57506b033b2e3c9fd0803ce800000081105b610eea5760405162461bcd60e51b815260206004820152601960248201527f657863656564656420736569676e696f726167652072617465000000000000006044820152606401610e7a565b601c55565b610f2e6040518060400160405280601d81526020017f6f6e6c794d696e7465724f7241646d696e206d73672e73656e6465722000000081525033614004565b3360009081527fca0a2f641ec05ca23127d994cf03ffc453db616acae0b86cb56bb95304d068546020526040902054610f699060ff16614049565b610f723361110e565b80610fab57503360009081527fca0a2f641ec05ca23127d994cf03ffc453db616acae0b86cb56bb95304d06854602052604090205460ff165b610ff75760405162461bcd60e51b815260206004820152601560248201527f6e6f74206f6e6c794d696e7465724f7241646d696e00000000000000000000006044820152606401610e7a565b6110217fbf02bad7114723a857a3af46cea17b778a3a951c96f183784d9a2448cc479ab68261135a565b50565b61102d3361110e565b6110495760405162461bcd60e51b8152600401610e7a906153cf565b61102160008261154e565b6000816001600160a01b031663764a78566040518163ffffffff1660e01b81526004016020604051808303816000875af1158015611096573d6000803e3d6000fd5b505050506040513d601f19601f820116820180604052508101906110ba9190615412565b6111065760405162461bcd60e51b815260206004820152601660248201527f6661696c20757064617465536569676e696f72616765000000000000000000006044820152606401610e7a565b506001919050565b6001600160a01b03811660009081527f05b8ccbb9d4d8fb16ea74ce3c29a41f1b461fbdaff4714a0d9a8eb05499746bc602052604081205460ff16610e4f565b6111787fbf02bad7114723a857a3af46cea17b778a3a951c96f183784d9a2448cc479ab63361154e565b565b6111833361110e565b61119f5760405162461bcd60e51b8152600401610e7a906153cf565b600d546040516340c10f1960e01b81526001600160a01b03848116600483015260248201849052909116906340c10f19906044016020604051808303816000875af11580156111f2573d6000803e3d6000fd5b505050506040513d601f19601f820116820180604052508101906112169190615412565b505050565b6111787f523a704056dcd17bcf83bed8b68c59416dac1119be77755efe3bde0a64e46e0c3361154e565b61124e3361110e565b61126a5760405162461bcd60e51b8152600401610e7a906153cf565b601655565b600080336001600160a01b031663570ca7356040518163ffffffff1660e01b8152600401602060405180830381865afa1580156112b0573d6000803e3d6000fd5b505050506040513d601f19601f820116820180604052508101906112d4919061542f565b6001600160a01b038481166000908152600e6020526040908190205490516370a0823160e01b8152838316600482015292935016906370a0823190602401602060405180830381865afa15801561132f573d6000803e3d6000fd5b505050506040513d601f19601f82011682018060405250810190611353919061544c565b9392505050565b6000828152600560205260409020600101546113758161408a565b6112168383614094565b6113883361110e565b6113a45760405162461bcd60e51b8152600401610e7a906153cf565b6110217ff0887ba65ee2024ea881d91b74c2450ef19e1557f03bed3ea9f16b037cbe2dc98261154e565b6113d73361110e565b6113f35760405162461bcd60e51b8152600401610e7a906153cf565b60005b8181101561154857600083838381811061141257611412615465565b90506020020160208101906114279190615129565b604051634c1d96ab60e11b81526001600160a01b0387811660048301529192509082169063983b2d5690602401600060405180830381600087803b15801561146e57600080fd5b505af1158015611482573d6000803e3d6000fd5b50505050806001600160a01b031663986502756040518163ffffffff1660e01b8152600401600060405180830381600087803b1580156114c157600080fd5b505af11580156114d5573d6000803e3d6000fd5b505060405163f2fde38b60e01b81526001600160a01b0388811660048301528416925063f2fde38b9150602401600060405180830381600087803b15801561151c57600080fd5b505af1158015611530573d6000803e3d6000fd5b5050505050808061154090615491565b9150506113f6565b50505050565b6001600160a01b03811633146115cc5760405162461bcd60e51b815260206004820152602f60248201527f416363657373436f6e74726f6c3a2063616e206f6e6c792072656e6f756e636560448201527f20726f6c657320666f722073656c6600000000000000000000000000000000006064820152608401610e7a565b6115d68282614136565b5050565b6115e33361110e565b6115ff5760405162461bcd60e51b8152600401610e7a906153cf565b6110217fbf02bad7114723a857a3af46cea17b778a3a951c96f183784d9a2448cc479ab682613718565b3360009081527f787f97f3270d439d97068e73d6d75a066b24f84c342661f177d4e43e00e9f513602052604090205460ff166116b35760405162461bcd60e51b815260206004820152602360248201527f41757468436f6e74726f6c3a2043616c6c6572206973206e6f7420612070617560448201526239b2b960e91b6064820152608401610e7a565b601f5460ff166117055760405162461bcd60e51b815260206004820152601460248201527f5061757361626c653a206e6f74207061757365640000000000000000000000006044820152606401610e7a565b43601355601f805460ff191690556040513381527f5db9ee0a495bf2e6ff9c91a7834c1ba4fdd244a5e8aa4e537bd38aeae4b073aa906020015b60405180910390a1565b6007546000906001600160a01b031633146117a65760405162461bcd60e51b815260206004820152601660248201527f6e6f74206f6e6c794465706f7369744d616e61676572000000000000000000006044820152606401610e7a565b6001600160a01b038085166000908152600e60205260409020548591166118265760405162461bcd60e51b815260206004820152602e60248201527f536569674d616e616765723a20636f696e61676520686173206e6f742062656560448201526d1b8819195c1b1bde5959081e595d60921b6064820152608401610e7a565b61183085856141b9565b15611915576001600160a01b038581166000908152600e60205260408082205490516370a0823160e01b81528784166004820152919286929116906370a0823190602401602060405180830381865afa158015611891573d6000803e3d6000fd5b505050506040513d601f19601f820116820180604052508101906118b5919061544c565b6118bf91906154aa565b9050601a548110156119135760405162461bcd60e51b815260206004820152601a60248201527f6d696e696d756d20616d6f756e742069732072657175697265640000000000006044820152606401610e7a565b505b600d546040516340c10f1960e01b81526001600160a01b03878116600483015260248201869052909116906340c10f19906044016020604051808303816000875af1158015611968573d6000803e3d6000fd5b505050506040513d601f19601f8201168201806040525081019061198c9190615412565b506001600160a01b038581166000908152600e6020526040908190205490516340c10f1960e01b81528683166004820152602481018690529116906340c10f19906044016020604051808303816000875af11580156119ef573d6000803e3d6000fd5b505050506040513d601f19601f82011682018060405250810190611a139190615412565b50600195945050505050565b611a283361110e565b611a445760405162461bcd60e51b8152600401610e7a906153cf565b600880546001600160a01b0319166001600160a01b0392909216919091179055565b60065460009084906001600160a01b0316331480611af65750806001600160a01b031663570ca7356040518163ffffffff1660e01b8152600401602060405180830381865afa158015611abd573d6000803e3d6000fd5b505050506040513d601f19601f82011682018060405250810190611ae1919061542f565b6001600160a01b0316336001600160a01b0316145b611b425760405162461bcd60e51b815260206004820152601a60248201527f6e6f74206f6e6c7952656769737472794f724f70657261746f720000000000006044820152606401610e7a565b831580611b715750836a084595161401484a00000011158015611b7157506b033b2e3c9fd0803ce80000008411155b611bf15760405162461bcd60e51b8152602060048201526044602482018190527f536569674d616e616765723a20636f6d6d697373696f6e2072617465206d7573908201527f742062652030206f72206265747765656e20312052415920616e6420302e30316064820152632052415960e01b608482015260a401610e7a565b6001600160a01b038516600090815260146020526040812054601654909103611c4a576001600160a01b038616600090815260146020908152604080832088905560159091529020805460ff1916851515179055611c92565b601654611c5790436154aa565b6001600160a01b038716600090815260176020908152604080832093909355601881528282208890556019905220805460ff19168515151790555b60408051828152602081018790526001600160a01b038816917f11841078e38c91feada06e1f8ded3697ab2dadc2583c52b14109b82ccd4f77d7910160405180910390a250600195945050505050565b600080600660009054906101000a90046001600160a01b03166001600160a01b0316630d42d4976040518163ffffffff1660e01b8152600401602060405180830381865afa158015611d38573d6000803e3d6000fd5b505050506040513d601f19601f82011682018060405250810190611d5c919061544c565b905060005b81811015611e765760065460405163b7ffb17960e01b8152600481018390526000916001600160a01b03169063b7ffb17990602401602060405180830381865afa158015611db3573d6000803e3d6000fd5b505050506040513d601f19601f82011682018060405250810190611dd7919061542f565b6001600160a01b038181166000908152600e6020526040908190205490516370a0823160e01b8152888316600482015292935016906370a0823190602401602060405180830381865afa158015611e32573d6000803e3d6000fd5b505050506040513d601f19601f82011682018060405250810190611e56919061544c565b611e6090856154aa565b9350508080611e6e90615491565b915050611d61565b5050919050565b600a546001600160a01b0316158015611e965750601154155b611ee25760405162461bcd60e51b815260206004820152601360248201527f616c726561647920696e697469616c697a6564000000000000000000000000006044820152606401610e7a565b600a80546001600160a01b03808a166001600160a01b031992831617909255600b805489841690831617905560068054888416908316179055600780548784169083161790556010859055600c8054928516929091168217905560408051631dd70c0360e21b815290516000929163775c300c916004828101926020929190829003018187875af1158015611f7b573d6000803e3d6000fd5b505050506040513d601f19601f82011682018060405250810190611f9f919061542f565b90506001600160a01b038116611fe25760405162461bcd60e51b81526020600482015260086024820152671e995c9bc81d1bdd60c21b6044820152606401610e7a565b600d80546001600160a01b0319166001600160a01b0392909216919091179055601155505050505050565b600061201a848484614239565b949350505050565b600a546000906001600160a01b03163314806120485750600b546001600160a01b031633145b6120ba5760405162461bcd60e51b815260206004820152603160248201527f536569674d616e616765723a206f6e6c7920544f4e206f722057544f4e20636160448201527f6e2063616c6c206f6e5472616e736665720000000000000000000000000000006064820152608401610e7a565b601f5460ff166120ce576120cc614380565b505b5060019392505050565b600080600660009054906101000a90046001600160a01b03166001600160a01b0316630d42d4976040518163ffffffff1660e01b8152600401602060405180830381865afa15801561212e573d6000803e3d6000fd5b505050506040513d601f19601f82011682018060405250810190612152919061544c565b905060005b818110156122735760065460405163b7ffb17960e01b8152600481018390526000916001600160a01b03169063b7ffb17990602401602060405180830381865afa1580156121a9573d6000803e3d6000fd5b505050506040513d601f19601f820116820180604052508101906121cd919061542f565b6001600160a01b038181166000908152600e60205260409081902054905163277166bf60e11b81528983166004820152602481018990529293501690634ee2cd7e90604401602060405180830381865afa15801561222f573d6000803e3d6000fd5b505050506040513d601f19601f82011682018060405250810190612253919061544c565b61225d90856154aa565b935050808061226b90615491565b915050612157565b505092915050565b600080600660009054906101000a90046001600160a01b03166001600160a01b0316630d42d4976040518163ffffffff1660e01b8152600401602060405180830381865afa1580156122d1573d6000803e3d6000fd5b505050506040513d601f19601f820116820180604052508101906122f5919061544c565b905060005b818110156124035760065460405163b7ffb17960e01b8152600481018390526000916001600160a01b03169063b7ffb17990602401602060405180830381865afa15801561234c573d6000803e3d6000fd5b505050506040513d601f19601f82011682018060405250810190612370919061542f565b6001600160a01b038082166000908152600e60209081526040808320548151634b88b8ad60e11b8152915195965090931693639711715a936004808201949183900301908290875af11580156123ca573d6000803e3d6000fd5b505050506040513d601f19601f820116820180604052508101906123ee919061544c565b505080806123fb90615491565b9150506122fa565b50600d60009054906101000a90046001600160a01b03166001600160a01b0316639711715a6040518163ffffffff1660e01b81526004016020604051808303816000875af1158015612459573d6000803e3d6000fd5b505050506040513d601f19601f8201168201806040525081019061247d919061544c565b91507fac3d68540f9902349c72a28dc187ad15b504d68182767a2b00a3db86880507ba826040516124b091815260200190565b60405180910390a15090565b6124c53361110e565b6124e15760405162461bcd60e51b8152600401610e7a906153cf565b600980546001600160a01b0319166001600160a01b0392909216919091179055565b61250c3361110e565b6125285760405162461bcd60e51b8152600401610e7a906153cf565b6110217fbf02bad7114723a857a3af46cea17b778a3a951c96f183784d9a2448cc479ab68261154e565b6001600160a01b03811660009081527f02634a7c777b8129955fe1824eee49ef19dfa96f2f4cb63212492c3d84eb58e6602052604081205460ff16610e4f565b61259b3361110e565b6125b75760405162461bcd60e51b8152600401610e7a906153cf565b61102160008261135a565b6125cb3361110e565b6125e75760405162461bcd60e51b8152600401610e7a906153cf565b61117860003361154e565b6125fb3361110e565b6126175760405162461bcd60e51b8152600401610e7a906153cf565b6001600160a01b03811661266d5760405162461bcd60e51b815260206004820152601860248201527f41636365737369626c653a207a65726f206164647265737300000000000000006044820152606401610e7a565b6001600160a01b03811633036126c55760405162461bcd60e51b815260206004820152601660248201527f41636365737369626c653a2073616d652061646d696e000000000000000000006044820152606401610e7a565b6126d060008261135a565b61102160003361154e565b336000818152600e60205260408120549091906001600160a01b031661275a5760405162461bcd60e51b815260206004820152602e60248201527f536569674d616e616765723a20636f696e61676520686173206e6f742062656560448201526d1b8819195c1b1bde5959081e595d60921b6064820152608401610e7a565b601f5460ff161561276d57600191505090565b60115443116127be5760405162461bcd60e51b815260206004820152601b60248201527f6c617374207365696720626c6f636b206973206e6f74207061737400000000006044820152606401610e7a565b60006127c93361126f565b9050601a5481101561281d5760405162461bcd60e51b815260206004820152601d60248201527f6d696e696d756d416d6f756e7420697320696e73756666696369656e740000006044820152606401610e7a565b336000908152600e60209081526040808320548151630a9ee07f60e31b815291516001600160a01b03909116939284926354f703f892600480830193928290030181865afa158015612873573d6000803e3d6000fd5b505050506040513d601f19601f82011682018060405250810190612897919061544c565b90506000600d60009054906101000a90046001600160a01b03166001600160a01b03166354f703f86040518163ffffffff1660e01b8152600401602060405180830381865afa1580156128ee573d6000803e3d6000fd5b505050506040513d601f19601f82011682018060405250810190612912919061544c565b905061291c614380565b50336000908152600f6020908152604080832043905580516318160ddd60e01b815290516001600160a01b038716926318160ddd92600480820193918290030181865afa158015612971573d6000803e3d6000fd5b505050506040513d601f19601f82011682018060405250810190612995919061544c565b600d546040516370a0823160e01b81523360048201529192506000916001600160a01b03909116906370a0823190602401602060405180830381865afa1580156129e3573d6000803e3d6000fd5b505050506040513d601f19601f82011682018060405250810190612a07919061544c565b9050808210612a495760405133907f521cc65179761533a7c8d7a973291dd7baebb99a67edf5ef78e9c2b61a533d9590600090a2600197505050505050505090565b6000612a5583836154bd565b90506000336001600160a01b031663570ca7356040518163ffffffff1660e01b8152600401602060405180830381865afa158015612a97573d6000803e3d6000fd5b505050506040513d601f19601f82011682018060405250810190612abb919061542f565b336000818152601560205260408120549293509160ff1690612ae1908a88878588614a82565b8093508196505050886001600160a01b031663817e9d31612b6488888d6001600160a01b03166354f703f86040518163ffffffff1660e01b8152600401602060405180830381865afa158015612b3b573d6000803e3d6000fd5b505050506040513d601f19601f82011682018060405250810190612b5f919061544c565b614c9d565b6040518263ffffffff1660e01b8152600401612b8291815260200190565b6020604051808303816000875af1158015612ba1573d6000803e3d6000fd5b505050506040513d601f19601f82011682018060405250810190612bc59190615412565b508115612cae578015612c395760405163079cc67960e41b81526001600160a01b038481166004830152602482018490528a16906379cc679090604401600060405180830381600087803b158015612c1c57600080fd5b505af1158015612c30573d6000803e3d6000fd5b50505050612cae565b6040516340c10f1960e01b81526001600160a01b038481166004830152602482018490528a16906340c10f19906044016020604051808303816000875af1158015612c88573d6000803e3d6000fd5b505050506040513d601f19601f82011682018060405250810190612cac9190615412565b505b6000896001600160a01b03166354f703f86040518163ffffffff1660e01b8152600401602060405180830381865afa158015612cee573d6000803e3d6000fd5b505050506040513d601f19601f82011682018060405250810190612d12919061544c565b90506000600d60009054906101000a90046001600160a01b03166001600160a01b03166354f703f86040518163ffffffff1660e01b8152600401602060405180830381865afa158015612d69573d6000803e3d6000fd5b505050506040513d601f19601f82011682018060405250810190612d8d919061544c565b600b546007546040516340c10f1960e01b81526001600160a01b039182166004820152602481018a905292935016906340c10f19906044016020604051808303816000875af1158015612de4573d6000803e3d6000fd5b505050506040513d601f19601f82011682018060405250810190612e089190615412565b5060405133907f521cc65179761533a7c8d7a973291dd7baebb99a67edf5ef78e9c2b61a533d9590600090a260408051438152602081018a9052908101889052606081018a9052608081018b905260a0810182905260c0810183905233907fc93b8f82f3855a72b1cd7998a29e27df8650ab3c2b172a741887d950dbbad40d9060e00160405180910390a260019d505050505050505050505050505090565b3360009081527fedec71783a10810e436f3392a073a61717130e573433fcc6591c3061a012f767602052604081205460ff16612f355760405162461bcd60e51b815260206004820152602760248201527f41757468436f6e74726f6c3a2043616c6c6572206973206e6f74206120636861604482015266363632b733b2b960c91b6064820152608401610e7a565b6001600160a01b038084166000908152600e6020526040902054849116612fb55760405162461bcd60e51b815260206004820152602e60248201527f536569674d616e616765723a20636f696e61676520686173206e6f742062656560448201526d1b8819195c1b1bde5959081e595d60921b6064820152608401610e7a565b6040516306394c9b60e01b81526001600160a01b0384811660048301528516906306394c9b90602401600060405180830381600087803b158015612ff857600080fd5b505af115801561300c573d6000803e3d6000fd5b506001979650505050505050565b6006546000906001600160a01b031633146130775760405162461bcd60e51b815260206004820152601060248201527f6e6f74206f6e6c795265676973747279000000000000000000000000000000006044820152606401610e7a565b6001600160a01b038281166000908152600e60205260409020541661110657600c5460408051631dd70c0360e21b815290516000926001600160a01b03169163775c300c916004808301926020929190829003018187875af11580156130e1573d6000803e3d6000fd5b505050506040513d601f19601f82011682018060405250810190613105919061542f565b6001600160a01b038481166000818152600f60209081526040808320439055600e82529182902080546001600160a01b03191694861694851790559051928352929350917f124cac1e701d08d642237ad795ddd275670e12f2cd956a26709721c68084c2b2910160405180910390a250506001919050565b3360009081527f787f97f3270d439d97068e73d6d75a066b24f84c342661f177d4e43e00e9f513602052604090205460ff166132075760405162461bcd60e51b815260206004820152602360248201527f41757468436f6e74726f6c3a2043616c6c6572206973206e6f7420612070617560448201526239b2b960e91b6064820152608401610e7a565b601f5460ff161561325a5760405162461bcd60e51b815260206004820152601060248201527f5061757361626c653a20706175736564000000000000000000000000000000006044820152606401610e7a565b43601255601f805460ff191660011790556040513381527f62e78cea01bee320cd4e420270b5ea74000d11b0c9f74754ebdbfc544b05a2589060200161173f565b905090565b6132a93361110e565b6132c55760405162461bcd60e51b8152600401610e7a906153cf565b6110217ff0887ba65ee2024ea881d91b74c2450ef19e1557f03bed3ea9f16b037cbe2dc98261135a565b6111787ff0887ba65ee2024ea881d91b74c2450ef19e1557f03bed3ea9f16b037cbe2dc93361154e565b6133223361110e565b61333e5760405162461bcd60e51b8152600401610e7a906153cf565b6110217f523a704056dcd17bcf83bed8b68c59416dac1119be77755efe3bde0a64e46e0c8261135a565b6133713361110e565b61338d5760405162461bcd60e51b8152600401610e7a906153cf565b6000811180156133a857506b033b2e3c9fd0803ce800000081105b6133f45760405162461bcd60e51b815260206004820152601960248201527f657863656564656420736569676e696f726167652072617465000000000000006044820152606401610e7a565b601b55565b600d54604051630981b24d60e41b8152600481018390526000916001600160a01b03169063981b24d090602401602060405180830381865afa158015613443573d6000803e3d6000fd5b505050506040513d601f19601f82011682018060405250810190610e4f919061544c565b6001600160a01b03811660009081527fedec71783a10810e436f3392a073a61717130e573433fcc6591c3061a012f767602052604081205460ff16610e4f565b6001600160a01b03811660009081527fca0a2f641ec05ca23127d994cf03ffc453db616acae0b86cb56bb95304d06854602052604081205460ff16610e4f565b6134f03361110e565b61350c5760405162461bcd60e51b8152600401610e7a906153cf565b600c80546001600160a01b0319166001600160a01b0392909216919091179055565b6135373361110e565b6135535760405162461bcd60e51b8152600401610e7a906153cf565b6110217f523a704056dcd17bcf83bed8b68c59416dac1119be77755efe3bde0a64e46e0c8261154e565b6135863361110e565b6135a25760405162461bcd60e51b8152600401610e7a906153cf565b600b60009054906101000a90046001600160a01b03166001600160a01b031663986502756040518163ffffffff1660e01b8152600401600060405180830381600087803b1580156135f257600080fd5b505af1158015611548573d6000803e3d6000fd5b6001600160a01b038281166000908152600e60205260408082205490516370a0823160e01b81528484166004820152919216906370a0823190602401602060405180830381865afa15801561132f573d6000803e3d6000fd5b600d54604080516318160ddd60e01b815290516000926001600160a01b0316916318160ddd9160048083019260209291908290030181865afa1580156136a9573d6000803e3d6000fd5b505050506040513d601f19601f8201168201806040525081019061329b919061544c565b6136d63361110e565b6136f25760405162461bcd60e51b8152600401610e7a906153cf565b6110217ff0887ba65ee2024ea881d91b74c2450ef19e1557f03bed3ea9f16b037cbe2dc9825b6000828152600560205260409020600101546137338161408a565b6112168383614136565b6137463361110e565b6137625760405162461bcd60e51b8152600401610e7a906153cf565b60008111801561377d57506b033b2e3c9fd0803ce800000081105b6137c95760405162461bcd60e51b815260206004820152601960248201527f657863656564656420736569676e696f726167652072617465000000000000006044820152606401610e7a565b601d55565b6137d73361110e565b6137f35760405162461bcd60e51b8152600401610e7a906153cf565b601a55565b6138013361110e565b61381d5760405162461bcd60e51b8152600401610e7a906153cf565b611021816125f2565b6007546000906001600160a01b031633146138835760405162461bcd60e51b815260206004820152601660248201527f6e6f74206f6e6c794465706f7369744d616e61676572000000000000000000006044820152606401610e7a565b6001600160a01b038085166000908152600e60205260409020548591166139035760405162461bcd60e51b815260206004820152602e60248201527f536569674d616e616765723a20636f696e61676520686173206e6f742062656560448201526d1b8819195c1b1bde5959081e595d60921b6064820152608401610e7a565b6001600160a01b038581166000908152600e6020526040908190205490516370a0823160e01b81528683166004820152859291909116906370a0823190602401602060405180830381865afa158015613960573d6000803e3d6000fd5b505050506040513d601f19601f82011682018060405250810190613984919061544c565b10156139f85760405162461bcd60e51b815260206004820152602c60248201527f536569674d616e616765723a20696e73756666696369616e742062616c616e6360448201527f6520746f20756e7374616b6500000000000000000000000000000000000000006064820152608401610e7a565b613a0285856141b9565b15613ae7576001600160a01b038581166000908152600e60205260408082205490516370a0823160e01b81528784166004820152919286929116906370a0823190602401602060405180830381865afa158015613a63573d6000803e3d6000fd5b505050506040513d601f19601f82011682018060405250810190613a87919061544c565b613a9191906154bd565b9050601a54811015613ae55760405162461bcd60e51b815260206004820152601a60248201527f6d696e696d756d20616d6f756e742069732072657175697265640000000000006044820152606401610e7a565b505b6000613af4868686614239565b600d549091506001600160a01b03166379cc679087613b1384886154aa565b6040516001600160e01b031960e085901b1681526001600160a01b0390921660048301526024820152604401600060405180830381600087803b158015613b5957600080fd5b505af1158015613b6d573d6000803e3d6000fd5b505050506001600160a01b038681166000908152600e60205260409081902054905163079cc67960e41b81528783166004820152602481018790529116906379cc679090604401600060405180830381600087803b158015613bce57600080fd5b505af1158015613be2573d6000803e3d6000fd5b505060408051878152602081018590527f650f673bb96a43afff4620ecc3f3e38e0cbfddebde9894e951ba2ceff7472f60935001905060405180910390a150600195945050505050565b613c353361110e565b613c515760405162461bcd60e51b8152600401610e7a906153cf565b6b033b2e3c9fd0803ce8000000601d54601c54601b54613c7191906154aa565b613c7b91906154aa565b1115613cc95760405162461bcd60e51b815260206004820152601960248201527f657863656564656420736569676e696f726167652072617465000000000000006044820152606401610e7a565b600880546001600160a01b039889166001600160a01b0319918216179091556009805497909816961695909517909555601b92909255601c55601d55601691909155601a55565b6001600160a01b038083166000908152600e60209081526040808320548151630a9ee07f60e31b8152915193941692849284926354f703f892600480830193928290030181865afa158015613d69573d6000803e3d6000fd5b505050506040513d601f19601f82011682018060405250810190613d8d919061544c565b90506000826001600160a01b03166318160ddd6040518163ffffffff1660e01b8152600401602060405180830381865afa158015613dcf573d6000803e3d6000fd5b505050506040513d601f19601f82011682018060405250810190613df3919061544c565b600d546040516370a0823160e01b81526001600160a01b038981166004830152929350600092909116906370a0823190602401602060405180830381865afa158015613e43573d6000803e3d6000fd5b505050506040513d601f19601f82011682018060405250810190613e67919061544c565b90506000613e76838386614c9d565b6040516370a0823160e01b81526001600160a01b038981166004830152919250600091613efa91613ef4918916906370a0823190602401602060405180830381865afa158015613eca573d6000803e3d6000fd5b505050506040513d601f19601f82011682018060405250810190613eee919061544c565b87614cae565b83614ce4565b6001600160a01b038a81166000908152600e6020526040908190205490516370a0823160e01b81528b8316600482015292935016906370a0823190602401602060405180830381865afa158015613f55573d6000803e3d6000fd5b505050506040513d601f19601f82011682018060405250810190613f79919061544c565b613f8390826154bd565b9998505050505050505050565b613f993361110e565b613fb55760405162461bcd60e51b8152600401610e7a906153cf565b6110217f523a704056dcd17bcf83bed8b68c59416dac1119be77755efe3bde0a64e46e0c82613718565b60006001600160e01b03198216637965db0b60e01b1480610e4f5750610e4f82614d17565b6115d6828260405160240161401a929190615520565b60408051601f198184030181529190526020810180516001600160e01b031663319af33360e01b179052614d53565b60405181151560248201526110219060440160408051601f198184030181529190526020810180516001600160e01b03166332458eed60e01b179052614d53565b6110218133614d5c565b60008281526005602090815260408083206001600160a01b038516845290915290205460ff166115d65760008281526005602090815260408083206001600160a01b03851684529091529020805460ff191660011790556140f23390565b6001600160a01b0316816001600160a01b0316837f2f8788117e7eff1d82e926ec794901d17c78024a50270940304540a733656f0d60405160405180910390a45050565b60008281526005602090815260408083206001600160a01b038516845290915290205460ff16156115d65760008281526005602090815260408083206001600160a01b0385168085529252808320805460ff1916905551339285917ff6391f5c32d9c69d2a47ea670b442974b53935d1edc7fd64eb21e047a839171b9190a45050565b6000826001600160a01b031663570ca7356040518163ffffffff1660e01b8152600401602060405180830381865afa1580156141f9573d6000803e3d6000fd5b505050506040513d601f19601f8201168201806040525081019061421d919061542f565b6001600160a01b0316826001600160a01b031614905092915050565b6001600160a01b038084166000908152600e602090815260408083205481516318160ddd60e01b81529151939485949116926318160ddd92600480820193918290030181865afa158015614291573d6000803e3d6000fd5b505050506040513d601f19601f820116820180604052508101906142b5919061544c565b600d546040516370a0823160e01b81526001600160a01b038881166004830152929350600092909116906370a0823190602401602060405180830381865afa158015614305573d6000803e3d6000fd5b505050506040513d601f19601f82011682018060405250810190614329919061544c565b9050808211801561434a5750670de0b6b3a764000061434882846154bd565b105b1561435a57600092505050611353565b61437661437061436a84846154bd565b86614ce4565b83614cae565b9695505050505050565b600060115443116143915750600090565b600d60009054906101000a90046001600160a01b03166001600160a01b03166318160ddd6040518163ffffffff1660e01b8152600401602060405180830381865afa1580156143e4573d6000803e3d6000fd5b505050506040513d601f19601f82011682018060405250810190614408919061544c565b600003614419575043601155600090565b600080600d60009054906101000a90046001600160a01b03166001600160a01b03166318160ddd6040518163ffffffff1660e01b8152600401602060405180830381865afa15801561446f573d6000803e3d6000fd5b505050506040513d601f19601f82011682018060405250810190614493919061544c565b915060006010546144a2614dd1565b6144ac919061554b565b90506000600d60009054906101000a90046001600160a01b03166001600160a01b03166318160ddd6040518163ffffffff1660e01b8152600401602060405180830381865afa158015614503573d6000803e3d6000fd5b505050506040513d601f19601f82011682018060405250810190614527919061544c565b600a54600b546040516370a0823160e01b81526001600160a01b0391821660048201529116906370a0823190602401602060405180830381865afa158015614573573d6000803e3d6000fd5b505050506040513d601f19601f82011682018060405250810190614597919061544c565b600a60009054906101000a90046001600160a01b03166001600160a01b03166318160ddd6040518163ffffffff1660e01b8152600401602060405180830381865afa1580156145ea573d6000803e3d6000fd5b505050506040513d601f19601f8201168201806040525081019061460e919061544c565b61461891906154bd565b61462690633b9aca0061554b565b61463091906154aa565b905060006146b761437084600d60009054906101000a90046001600160a01b03166001600160a01b03166318160ddd6040518163ffffffff1660e01b8152600401602060405180830381865afa15801561468e573d6000803e3d6000fd5b505050506040513d601f19601f820116820180604052508101906146b2919061544c565b614ce4565b905060006146d06146c883866154bd565b601d54614ce4565b9050806146dd83886154aa565b6146e791906154aa565b43601155600d5460408051630a9ee07f60e31b815290519297506001600160a01b039091169163817e9d3191614747918a918a9186916354f703f89160048083019260209291908290030181865afa158015612b3b573d6000803e3d6000fd5b6040518263ffffffff1660e01b815260040161476591815260200190565b6020604051808303816000875af1158015614784573d6000803e3d6000fd5b505050506040513d601f19601f820116820180604052508101906147a89190615412565b50600d54604080516318160ddd60e01b815290517f41a79a497d1457df24c25ab99f22349ae9aef4468429f0a781216e8dcf80c628926001600160a01b0316916318160ddd9160048083019260209291908290030181865afa158015614812573d6000803e3d6000fd5b505050506040513d601f19601f82011682018060405250810190614836919061544c565b604080519182526020820186905281018890526060810187905260800160405180910390a1600061486783866154bd565b600854909150600090819081906001600160a01b0316156149695761488e84601b54614ce4565b600b546008546040516340c10f1960e01b81526001600160a01b0391821660048201526024810184905292955016906340c10f19906044016020604051808303816000875af11580156148e5573d6000803e3d6000fd5b505050506040513d601f19601f820116820180604052508101906149099190615412565b5060085460405163027aa37b60e01b8152600481018590526001600160a01b039091169063027aa37b90602401600060405180830381600087803b15801561495057600080fd5b505af1158015614964573d6000803e3d6000fd5b505050505b6009546001600160a01b031615614a035761498684601c54614ce4565b600b546009546040516340c10f1960e01b81526001600160a01b0391821660048201526024810184905292945016906340c10f19906044016020604051808303816000875af11580156149dd573d6000803e3d6000fd5b505050506040513d601f19601f82011682018060405250810190614a019190615412565b505b601d5415614a205784905080601e54614a1c91906154aa565b601e555b6040805189815260208101889052908101859052606081018490526080810182905233907f0264534168fa7304ade59fc89758924d2288c7dcfd242dd680b668c80449c2829060a00160405180910390a260019a505050505050505050505090565b6001600160a01b03861660009081526017602052604081205481904310801590614ac357506001600160a01b03881660009081526017602052604090205415155b15614b17576001600160a01b0388166000908152601860209081526040808320546014835281842055601982528083205460158352818420805460ff191660ff909216151591909117905560179091528120555b33600090815260146020526040902054614b3186886154aa565b925080600003614b415750614c92565b84614b6457614b508682614ce4565b9150614b5c82846154bd565b925050614c92565b86600003614b725750614c92565b6040516370a0823160e01b81526001600160a01b038581166004830152600091908a16906370a0823190602401602060405180830381865afa158015614bbc573d6000803e3d6000fd5b505050506040513d601f19601f82011682018060405250810190614be0919061544c565b905080600003614bf1575050614c92565b6000614bfd828a614cae565b9050614c12614c0c8983614ce4565b84614ce4565b935060006b033b2e3c9fd0803ce80000008214614c4d57614c4885614c43846b033b2e3c9fd0803ce80000006154bd565b614cae565b614c4f565b845b90506b033b2e3c9fd0803ce80000008214614c7d57614c6e8183614ce4565b614c7890866154aa565b614c7f565b845b9450614c8b81876154aa565b9550505050505b965096945050505050565b600061201a614cac8484614ce4565b855b600081614cda614cca856b033b2e3c9fd0803ce8000000614e27565b614cd5600286615562565b614e97565b6113539190615562565b60006b033b2e3c9fd0803ce8000000614cda614d008585614e27565b614cd560026b033b2e3c9fd0803ce8000000615562565b60006301ffc9a760e01b6001600160e01b031983161480610e4f5750506001600160e01b03191660009081526004602052604090205460ff1690565b61102181614ef5565b60008281526005602090815260408083206001600160a01b038516845290915290205460ff166115d657614d8f81614f16565b614d9a836020614f28565b604051602001614dab929190615584565b60408051601f198184030181529082905262461bcd60e51b8252610e7a91600401615605565b601f5460009060ff1615614de457600080fd5b600060115443614df491906154bd565b90506011546013541015614e0757919050565b601254601354614e1791906154bd565b614e2190826154bd565b91505090565b6000811580614e4b57508282614e3d818361554b565b9250614e499083615562565b145b610e4f5760405162461bcd60e51b815260206004820152601460248201527f64732d6d6174682d6d756c2d6f766572666c6f770000000000000000000000006044820152606401610e7a565b600082614ea483826154aa565b9150811015610e4f5760405162461bcd60e51b815260206004820152601460248201527f64732d6d6174682d6164642d6f766572666c6f770000000000000000000000006044820152606401610e7a565b60006a636f6e736f6c652e6c6f679050600080835160208501845afa505050565b6060610e4f6001600160a01b03831660145b60606000614f3783600261554b565b614f429060026154aa565b67ffffffffffffffff811115614f5a57614f5a615618565b6040519080825280601f01601f191660200182016040528015614f84576020820181803683370190505b509050600360fc1b81600081518110614f9f57614f9f615465565b60200101906001600160f81b031916908160001a905350600f60fb1b81600181518110614fce57614fce615465565b60200101906001600160f81b031916908160001a9053506000614ff284600261554b565b614ffd9060016154aa565b90505b6001811115615082577f303132333435363738396162636465660000000000000000000000000000000085600f166010811061503e5761503e615465565b1a60f81b82828151811061505457615054615465565b60200101906001600160f81b031916908160001a90535060049490941c9361507b8161562e565b9050615000565b5083156113535760405162461bcd60e51b815260206004820181905260248201527f537472696e67733a20686578206c656e67746820696e73756666696369656e746044820152606401610e7a565b6000602082840312156150e357600080fd5b81356001600160e01b03198116811461135357600080fd5b60006020828403121561510d57600080fd5b5035919050565b6001600160a01b038116811461102157600080fd5b60006020828403121561513b57600080fd5b813561135381615114565b6000806040838503121561515957600080fd5b823561516481615114565b946020939093013593505050565b6000806040838503121561518557600080fd5b82359150602083013561519781615114565b809150509250929050565b6000806000604084860312156151b757600080fd5b83356151c281615114565b9250602084013567ffffffffffffffff808211156151df57600080fd5b818601915086601f8301126151f357600080fd5b81358181111561520257600080fd5b8760208260051b850101111561521757600080fd5b6020830194508093505050509250925092565b60008060006060848603121561523f57600080fd5b833561524a81615114565b9250602084013561525a81615114565b929592945050506040919091013590565b801515811461102157600080fd5b60008060006060848603121561528e57600080fd5b833561529981615114565b92506020840135915060408401356152b08161526b565b809150509250925092565b600080600080600080600060e0888a0312156152d657600080fd5b87356152e181615114565b965060208801356152f181615114565b9550604088013561530181615114565b9450606088013561531181615114565b93506080880135925060a088013561532881615114565b8092505060c0880135905092959891949750929550565b6000806040838503121561535257600080fd5b823561535d81615114565b9150602083013561519781615114565b600080600080600080600060e0888a03121561538857600080fd5b873561539381615114565b965060208801356153a381615114565b96999698505050506040850135946060810135946080820135945060a0820135935060c0909101359150565b60208082526023908201527f41757468436f6e74726f6c3a2043616c6c6572206973206e6f7420616e20616460408201526236b4b760e91b606082015260800190565b60006020828403121561542457600080fd5b81516113538161526b565b60006020828403121561544157600080fd5b815161135381615114565b60006020828403121561545e57600080fd5b5051919050565b634e487b7160e01b600052603260045260246000fd5b634e487b7160e01b600052601160045260246000fd5b6000600182016154a3576154a361547b565b5060010190565b80820180821115610e4f57610e4f61547b565b81810381811115610e4f57610e4f61547b565b60005b838110156154eb5781810151838201526020016154d3565b50506000910152565b6000815180845261550c8160208601602086016154d0565b601f01601f19169290920160200192915050565b60408152600061553360408301856154f4565b90506001600160a01b03831660208301529392505050565b8082028115828204841417610e4f57610e4f61547b565b60008261557f57634e487b7160e01b600052601260045260246000fd5b500490565b7f416363657373436f6e74726f6c3a206163636f756e74200000000000000000008152600083516155bc8160178501602088016154d0565b7f206973206d697373696e6720726f6c652000000000000000000000000000000060179184019182015283516155f98160288401602088016154d0565b01602801949350505050565b60208152600061135360208301846154f4565b634e487b7160e01b600052604160045260246000fd5b60008161563d5761563d61547b565b50600019019056fea164736f6c6343000813000a",
  "devdoc": {
    "details": "SeigManager gives seigniorage to operator and WTON holders. For each commit by operator, operator (or user) will get seigniorage in propotion to the staked (or delegated) amount of WTON. [Tokens] - {tot} tracks total staked or delegated WTON of each Layer2 contract (and depositor?). - {coinages[layer2]} tracks staked or delegated WTON of user or operator to a Layer2 contract. For each commit by operator,  1. increases all layer2's balance of {tot} by (the staked amount of WTON) /     (total supply of TON and WTON) * (num blocks * seigniorage per block).  2. increases all depositors' blanace of {coinages[layer2]} in proportion to the staked amount of WTON,     up to the increased amount in step (1).  3. set the layer2's balance of {committed} as the layer2's {tot} balance. For each stake or delegate with amount of {v} to a Layer2,  1. mint {v} {coinages[layer2]} tokens to the account  2. mint {v} {tot} tokens to the layer2 contract For each unstake or undelegate (or get rewards) with amount of {v} to a Layer2,  1. burn {v} {coinages[layer2]} tokens from the account  2. burn {v + } {tot} tokens from the layer2 contract,   where  = SEIGS * staked ratio of the layer2 * withdrawal ratio of the account     - SEIGS                              = tot total supply - tot total supply at last commit from the layer2     - staked ratio of the layer2     = tot balance of the layer2 / tot total supply     - withdrawal ratio of the account  = amount to withdraw / total supply of coinage",
    "events": {
      "RoleAdminChanged(bytes32,bytes32,bytes32)": {
        "details": "Emitted when `newAdminRole` is set as ``role``'s admin role, replacing `previousAdminRole` `DEFAULT_ADMIN_ROLE` is the starting admin for all roles, despite {RoleAdminChanged} not being emitted signaling this. _Available since v3.1._"
      },
      "RoleGranted(bytes32,address,address)": {
        "details": "Emitted when `account` is granted `role`. `sender` is the account that originated the contract call, an admin role bearer except when using {AccessControl-_setupRole}."
      },
      "RoleRevoked(bytes32,address,address)": {
        "details": "Emitted when `account` is revoked `role`. `sender` is the account that originated the contract call:   - if using `revokeRole`, it is the admin role bearer   - if using `renounceRole`, it is the role bearer (i.e. `account`)"
      }
    },
    "kind": "dev",
    "methods": {
      "addAdmin(address)": {
        "details": "add admin",
        "params": {
          "account": "address to add"
        }
      },
      "deployCoinage(address)": {
        "details": "deploy coinage token for the layer2."
      },
      "getRoleAdmin(bytes32)": {
        "details": "Returns the admin role that controls `role`. See {grantRole} and {revokeRole}. To change a role's admin, use {_setRoleAdmin}."
      },
      "grantRole(bytes32,address)": {
        "details": "Grants `role` to `account`. If `account` had not been already granted `role`, emits a {RoleGranted} event. Requirements: - the caller must have ``role``'s admin role. May emit a {RoleGranted} event."
      },
      "hasRole(bytes32,address)": {
        "details": "Returns `true` if `account` has been granted `role`."
      },
      "isAdmin(address)": {
        "details": "whether admin",
        "params": {
          "account": "address to check"
        }
      },
      "onDeposit(address,address,uint256)": {
        "details": "Callback for a new deposit"
      },
      "onTransfer(address,address,uint256)": {
        "details": "Callback for a token transfer"
      },
      "removeAdmin(address)": {
        "details": "remove admin",
        "params": {
          "account": "address to remove"
        }
      },
      "renounceRole(bytes32,address)": {
        "details": "Revokes `role` from the calling account. Roles are often managed via {grantRole} and {revokeRole}: this function's purpose is to provide a mechanism for accounts to lose their privileges if they are compromised (such as when a trusted device is misplaced). If the calling account had been revoked `role`, emits a {RoleRevoked} event. Requirements: - the caller must be `account`. May emit a {RoleRevoked} event."
      },
      "revokeRole(bytes32,address)": {
        "details": "Revokes `role` from `account`. If `account` had been granted `role`, emits a {RoleRevoked} event. Requirements: - the caller must have ``role``'s admin role. May emit a {RoleRevoked} event."
      },
      "transferAdmin(address)": {
        "details": "transfer admin",
        "params": {
          "newAdmin": "new admin address"
        }
      },
      "unpause()": {
        "details": "Called by a pauser to unpause, returns to normal state."
      },
      "updateSeigniorage()": {
        "details": "Callback for a new commit"
      }
    },
    "version": 1
  },
  "userdoc": {
    "kind": "user",
    "methods": {},
    "version": 1
  },
  "storageLayout": {
    "storage": [
      {
        "astId": 2705,
        "contract": "contracts/stake/managers/SeigManagerMigration.sol:SeigManagerMigration",
        "label": "pauseProxy",
        "offset": 0,
        "slot": "0",
        "type": "t_bool"
      },
      {
        "astId": 2709,
        "contract": "contracts/stake/managers/SeigManagerMigration.sol:SeigManagerMigration",
        "label": "proxyImplementation",
        "offset": 0,
        "slot": "1",
        "type": "t_mapping(t_uint256,t_address)"
      },
      {
        "astId": 2713,
        "contract": "contracts/stake/managers/SeigManagerMigration.sol:SeigManagerMigration",
        "label": "aliveImplementation",
        "offset": 0,
        "slot": "2",
        "type": "t_mapping(t_address,t_bool)"
      },
      {
        "astId": 2717,
        "contract": "contracts/stake/managers/SeigManagerMigration.sol:SeigManagerMigration",
        "label": "selectorImplementation",
        "offset": 0,
        "slot": "3",
        "type": "t_mapping(t_bytes4,t_address)"
      },
      {
        "astId": 674,
        "contract": "contracts/stake/managers/SeigManagerMigration.sol:SeigManagerMigration",
        "label": "_supportedInterfaces",
        "offset": 0,
        "slot": "4",
        "type": "t_mapping(t_bytes4,t_bool)"
      },
      {
        "astId": 24,
        "contract": "contracts/stake/managers/SeigManagerMigration.sol:SeigManagerMigration",
        "label": "_roles",
        "offset": 0,
        "slot": "5",
        "type": "t_mapping(t_bytes32,t_struct(RoleData)19_storage)"
      },
      {
        "astId": 5246,
        "contract": "contracts/stake/managers/SeigManagerMigration.sol:SeigManagerMigration",
        "label": "_registry",
        "offset": 0,
        "slot": "6",
        "type": "t_address"
      },
      {
        "astId": 5248,
        "contract": "contracts/stake/managers/SeigManagerMigration.sol:SeigManagerMigration",
        "label": "_depositManager",
        "offset": 0,
        "slot": "7",
        "type": "t_address"
      },
      {
        "astId": 5250,
        "contract": "contracts/stake/managers/SeigManagerMigration.sol:SeigManagerMigration",
        "label": "_powerton",
        "offset": 0,
        "slot": "8",
        "type": "t_address"
      },
      {
        "astId": 5252,
        "contract": "contracts/stake/managers/SeigManagerMigration.sol:SeigManagerMigration",
        "label": "dao",
        "offset": 0,
        "slot": "9",
        "type": "t_address"
      },
      {
        "astId": 5254,
        "contract": "contracts/stake/managers/SeigManagerMigration.sol:SeigManagerMigration",
        "label": "_ton",
        "offset": 0,
        "slot": "10",
        "type": "t_address"
      },
      {
        "astId": 5256,
        "contract": "contracts/stake/managers/SeigManagerMigration.sol:SeigManagerMigration",
        "label": "_wton",
        "offset": 0,
        "slot": "11",
        "type": "t_address"
      },
      {
        "astId": 5258,
        "contract": "contracts/stake/managers/SeigManagerMigration.sol:SeigManagerMigration",
        "label": "factory",
        "offset": 0,
        "slot": "12",
        "type": "t_address"
      },
      {
        "astId": 5261,
        "contract": "contracts/stake/managers/SeigManagerMigration.sol:SeigManagerMigration",
        "label": "_tot",
        "offset": 0,
        "slot": "13",
        "type": "t_contract(RefactorCoinageSnapshotI)2800"
      },
      {
        "astId": 5266,
        "contract": "contracts/stake/managers/SeigManagerMigration.sol:SeigManagerMigration",
        "label": "_coinages",
        "offset": 0,
        "slot": "14",
        "type": "t_mapping(t_address,t_contract(RefactorCoinageSnapshotI)2800)"
      },
      {
        "astId": 5270,
        "contract": "contracts/stake/managers/SeigManagerMigration.sol:SeigManagerMigration",
        "label": "_lastCommitBlock",
        "offset": 0,
        "slot": "15",
        "type": "t_mapping(t_address,t_uint256)"
      },
      {
        "astId": 5272,
        "contract": "contracts/stake/managers/SeigManagerMigration.sol:SeigManagerMigration",
        "label": "_seigPerBlock",
        "offset": 0,
        "slot": "16",
        "type": "t_uint256"
      },
      {
        "astId": 5274,
        "contract": "contracts/stake/managers/SeigManagerMigration.sol:SeigManagerMigration",
        "label": "_lastSeigBlock",
        "offset": 0,
        "slot": "17",
        "type": "t_uint256"
      },
      {
        "astId": 5276,
        "contract": "contracts/stake/managers/SeigManagerMigration.sol:SeigManagerMigration",
        "label": "_pausedBlock",
        "offset": 0,
        "slot": "18",
        "type": "t_uint256"
      },
      {
        "astId": 5278,
        "contract": "contracts/stake/managers/SeigManagerMigration.sol:SeigManagerMigration",
        "label": "_unpausedBlock",
        "offset": 0,
        "slot": "19",
        "type": "t_uint256"
      },
      {
        "astId": 5282,
        "contract": "contracts/stake/managers/SeigManagerMigration.sol:SeigManagerMigration",
        "label": "_commissionRates",
        "offset": 0,
        "slot": "20",
        "type": "t_mapping(t_address,t_uint256)"
      },
      {
        "astId": 5286,
        "contract": "contracts/stake/managers/SeigManagerMigration.sol:SeigManagerMigration",
        "label": "_isCommissionRateNegative",
        "offset": 0,
        "slot": "21",
        "type": "t_mapping(t_address,t_bool)"
      },
      {
        "astId": 5288,
        "contract": "contracts/stake/managers/SeigManagerMigration.sol:SeigManagerMigration",
        "label": "adjustCommissionDelay",
        "offset": 0,
        "slot": "22",
        "type": "t_uint256"
      },
      {
        "astId": 5292,
        "contract": "contracts/stake/managers/SeigManagerMigration.sol:SeigManagerMigration",
        "label": "delayedCommissionBlock",
        "offset": 0,
        "slot": "23",
        "type": "t_mapping(t_address,t_uint256)"
      },
      {
        "astId": 5296,
        "contract": "contracts/stake/managers/SeigManagerMigration.sol:SeigManagerMigration",
        "label": "delayedCommissionRate",
        "offset": 0,
        "slot": "24",
        "type": "t_mapping(t_address,t_uint256)"
      },
      {
        "astId": 5300,
        "contract": "contracts/stake/managers/SeigManagerMigration.sol:SeigManagerMigration",
        "label": "delayedCommissionRateNegative",
        "offset": 0,
        "slot": "25",
        "type": "t_mapping(t_address,t_bool)"
      },
      {
        "astId": 5302,
        "contract": "contracts/stake/managers/SeigManagerMigration.sol:SeigManagerMigration",
        "label": "minimumAmount",
        "offset": 0,
        "slot": "26",
        "type": "t_uint256"
      },
      {
        "astId": 5304,
        "contract": "contracts/stake/managers/SeigManagerMigration.sol:SeigManagerMigration",
        "label": "powerTONSeigRate",
        "offset": 0,
        "slot": "27",
        "type": "t_uint256"
      },
      {
        "astId": 5306,
        "contract": "contracts/stake/managers/SeigManagerMigration.sol:SeigManagerMigration",
        "label": "daoSeigRate",
        "offset": 0,
        "slot": "28",
        "type": "t_uint256"
      },
      {
        "astId": 5308,
        "contract": "contracts/stake/managers/SeigManagerMigration.sol:SeigManagerMigration",
        "label": "relativeSeigRate",
        "offset": 0,
        "slot": "29",
        "type": "t_uint256"
      },
      {
        "astId": 5310,
        "contract": "contracts/stake/managers/SeigManagerMigration.sol:SeigManagerMigration",
        "label": "accRelativeSeig",
        "offset": 0,
        "slot": "30",
        "type": "t_uint256"
      },
      {
        "astId": 5312,
        "contract": "contracts/stake/managers/SeigManagerMigration.sol:SeigManagerMigration",
        "label": "paused",
        "offset": 0,
        "slot": "31",
        "type": "t_bool"
      }
    ],
    "types": {
      "t_address": {
        "encoding": "inplace",
        "label": "address",
        "numberOfBytes": "20"
      },
      "t_bool": {
        "encoding": "inplace",
        "label": "bool",
        "numberOfBytes": "1"
      },
      "t_bytes32": {
        "encoding": "inplace",
        "label": "bytes32",
        "numberOfBytes": "32"
      },
      "t_bytes4": {
        "encoding": "inplace",
        "label": "bytes4",
        "numberOfBytes": "4"
      },
      "t_contract(RefactorCoinageSnapshotI)2800": {
        "encoding": "inplace",
        "label": "contract RefactorCoinageSnapshotI",
        "numberOfBytes": "20"
      },
      "t_mapping(t_address,t_bool)": {
        "encoding": "mapping",
        "key": "t_address",
        "label": "mapping(address => bool)",
        "numberOfBytes": "32",
        "value": "t_bool"
      },
      "t_mapping(t_address,t_contract(RefactorCoinageSnapshotI)2800)": {
        "encoding": "mapping",
        "key": "t_address",
        "label": "mapping(address => contract RefactorCoinageSnapshotI)",
        "numberOfBytes": "32",
        "value": "t_contract(RefactorCoinageSnapshotI)2800"
      },
      "t_mapping(t_address,t_uint256)": {
        "encoding": "mapping",
        "key": "t_address",
        "label": "mapping(address => uint256)",
        "numberOfBytes": "32",
        "value": "t_uint256"
      },
      "t_mapping(t_bytes32,t_struct(RoleData)19_storage)": {
        "encoding": "mapping",
        "key": "t_bytes32",
        "label": "mapping(bytes32 => struct AccessControl.RoleData)",
        "numberOfBytes": "32",
        "value": "t_struct(RoleData)19_storage"
      },
      "t_mapping(t_bytes4,t_address)": {
        "encoding": "mapping",
        "key": "t_bytes4",
        "label": "mapping(bytes4 => address)",
        "numberOfBytes": "32",
        "value": "t_address"
      },
      "t_mapping(t_bytes4,t_bool)": {
        "encoding": "mapping",
        "key": "t_bytes4",
        "label": "mapping(bytes4 => bool)",
        "numberOfBytes": "32",
        "value": "t_bool"
      },
      "t_mapping(t_uint256,t_address)": {
        "encoding": "mapping",
        "key": "t_uint256",
        "label": "mapping(uint256 => address)",
        "numberOfBytes": "32",
        "value": "t_address"
      },
      "t_struct(RoleData)19_storage": {
        "encoding": "inplace",
        "label": "struct AccessControl.RoleData",
        "members": [
          {
            "astId": 16,
            "contract": "contracts/stake/managers/SeigManagerMigration.sol:SeigManagerMigration",
            "label": "members",
            "offset": 0,
            "slot": "0",
            "type": "t_mapping(t_address,t_bool)"
          },
          {
            "astId": 18,
            "contract": "contracts/stake/managers/SeigManagerMigration.sol:SeigManagerMigration",
            "label": "adminRole",
            "offset": 0,
            "slot": "1",
            "type": "t_bytes32"
          }
        ],
        "numberOfBytes": "64"
      },
      "t_uint256": {
        "encoding": "inplace",
        "label": "uint256",
        "numberOfBytes": "32"
      }
    }
  }
}