{
  "_format": "hh-sol-artifact-1",
  "contractName": "L2PowerTon",
  "sourceName": "contracts/L2/powerton/L2PowerTon.sol",
  "abi": [
    {
      "anonymous": false,
      "inputs": [
        {
          "indexed": true,
          "internalType": "address",
          "name": "token",
          "type": "address"
        },
        {
          "indexed": false,
          "internalType": "uint256",
          "name": "amount",
          "type": "uint256"
        }
      ],
      "name": "Distributed",
      "type": "event"
    },
    {
      "anonymous": false,
      "inputs": [
        {
          "indexed": true,
          "internalType": "bytes32",
          "name": "role",
          "type": "bytes32"
        },
        {
          "indexed": true,
          "internalType": "bytes32",
          "name": "previousAdminRole",
          "type": "bytes32"
        },
        {
          "indexed": true,
          "internalType": "bytes32",
          "name": "newAdminRole",
          "type": "bytes32"
        }
      ],
      "name": "RoleAdminChanged",
      "type": "event"
    },
    {
      "anonymous": false,
      "inputs": [
        {
          "indexed": true,
          "internalType": "bytes32",
          "name": "role",
          "type": "bytes32"
        },
        {
          "indexed": true,
          "internalType": "address",
          "name": "account",
          "type": "address"
        },
        {
          "indexed": true,
          "internalType": "address",
          "name": "sender",
          "type": "address"
        }
      ],
      "name": "RoleGranted",
      "type": "event"
    },
    {
      "anonymous": false,
      "inputs": [
        {
          "indexed": true,
          "internalType": "bytes32",
          "name": "role",
          "type": "bytes32"
        },
        {
          "indexed": true,
          "internalType": "address",
          "name": "account",
          "type": "address"
        },
        {
          "indexed": true,
          "internalType": "address",
          "name": "sender",
          "type": "address"
        }
      ],
      "name": "RoleRevoked",
      "type": "event"
    },
    {
      "inputs": [],
      "name": "DEFAULT_ADMIN_ROLE",
      "outputs": [
        {
          "internalType": "bytes32",
          "name": "",
          "type": "bytes32"
        }
      ],
      "stateMutability": "view",
      "type": "function"
    },
    {
      "inputs": [],
      "name": "MINTER_ROLE",
      "outputs": [
        {
          "internalType": "bytes32",
          "name": "",
          "type": "bytes32"
        }
      ],
      "stateMutability": "view",
      "type": "function"
    },
    {
      "inputs": [
        {
          "internalType": "address",
          "name": "account",
          "type": "address"
        }
      ],
      "name": "addAdmin",
      "outputs": [],
      "stateMutability": "nonpayable",
      "type": "function"
    },
    {
      "inputs": [
        {
          "internalType": "address",
          "name": "",
          "type": "address"
        }
      ],
      "name": "aliveImplementation",
      "outputs": [
        {
          "internalType": "bool",
          "name": "",
          "type": "bool"
        }
      ],
      "stateMutability": "view",
      "type": "function"
    },
    {
      "inputs": [
        {
          "internalType": "address",
          "name": "token",
          "type": "address"
        }
      ],
      "name": "distribute",
      "outputs": [],
      "stateMutability": "payable",
      "type": "function"
    },
    {
      "inputs": [
        {
          "internalType": "bytes32",
          "name": "role",
          "type": "bytes32"
        }
      ],
      "name": "getRoleAdmin",
      "outputs": [
        {
          "internalType": "bytes32",
          "name": "",
          "type": "bytes32"
        }
      ],
      "stateMutability": "view",
      "type": "function"
    },
    {
      "inputs": [
        {
          "internalType": "bytes32",
          "name": "role",
          "type": "bytes32"
        },
        {
          "internalType": "address",
          "name": "account",
          "type": "address"
        }
      ],
      "name": "grantRole",
      "outputs": [],
      "stateMutability": "nonpayable",
      "type": "function"
    },
    {
      "inputs": [
        {
          "internalType": "bytes32",
          "name": "role",
          "type": "bytes32"
        },
        {
          "internalType": "address",
          "name": "account",
          "type": "address"
        }
      ],
      "name": "hasRole",
      "outputs": [
        {
          "internalType": "bool",
          "name": "",
          "type": "bool"
        }
      ],
      "stateMutability": "view",
      "type": "function"
    },
    {
      "inputs": [
        {
          "internalType": "address",
          "name": "_l2DividendPoolForStos",
          "type": "address"
        },
        {
          "internalType": "address",
          "name": "_universalStos",
          "type": "address"
        }
      ],
      "name": "initialize",
      "outputs": [],
      "stateMutability": "nonpayable",
      "type": "function"
    },
    {
      "inputs": [
        {
          "internalType": "address",
          "name": "account",
          "type": "address"
        }
      ],
      "name": "isAdmin",
      "outputs": [
        {
          "internalType": "bool",
          "name": "",
          "type": "bool"
        }
      ],
      "stateMutability": "view",
      "type": "function"
    },
    {
      "inputs": [],
      "name": "isOwner",
      "outputs": [
        {
          "internalType": "bool",
          "name": "",
          "type": "bool"
        }
      ],
      "stateMutability": "view",
      "type": "function"
    },
    {
      "inputs": [],
      "name": "l2DividendPoolForStos",
      "outputs": [
        {
          "internalType": "address",
          "name": "",
          "type": "address"
        }
      ],
      "stateMutability": "view",
      "type": "function"
    },
    {
      "inputs": [],
      "name": "pauseProxy",
      "outputs": [
        {
          "internalType": "bool",
          "name": "",
          "type": "bool"
        }
      ],
      "stateMutability": "view",
      "type": "function"
    },
    {
      "inputs": [
        {
          "internalType": "uint256",
          "name": "",
          "type": "uint256"
        }
      ],
      "name": "proxyImplementation",
      "outputs": [
        {
          "internalType": "address",
          "name": "",
          "type": "address"
        }
      ],
      "stateMutability": "view",
      "type": "function"
    },
    {
      "inputs": [
        {
          "internalType": "address",
          "name": "account",
          "type": "address"
        }
      ],
      "name": "removeAdmin",
      "outputs": [],
      "stateMutability": "nonpayable",
      "type": "function"
    },
    {
      "inputs": [],
      "name": "renounceOwnership",
      "outputs": [],
      "stateMutability": "nonpayable",
      "type": "function"
    },
    {
      "inputs": [
        {
          "internalType": "bytes32",
          "name": "role",
          "type": "bytes32"
        },
        {
          "internalType": "address",
          "name": "account",
          "type": "address"
        }
      ],
      "name": "renounceRole",
      "outputs": [],
      "stateMutability": "nonpayable",
      "type": "function"
    },
    {
      "inputs": [
        {
          "internalType": "bytes32",
          "name": "role",
          "type": "bytes32"
        },
        {
          "internalType": "address",
          "name": "account",
          "type": "address"
        }
      ],
      "name": "revokeRole",
      "outputs": [],
      "stateMutability": "nonpayable",
      "type": "function"
    },
    {
      "inputs": [
        {
          "internalType": "bytes4",
          "name": "",
          "type": "bytes4"
        }
      ],
      "name": "selectorImplementation",
      "outputs": [
        {
          "internalType": "address",
          "name": "",
          "type": "address"
        }
      ],
      "stateMutability": "view",
      "type": "function"
    },
    {
      "inputs": [
        {
          "internalType": "address",
          "name": "_l2DividendPoolForStos",
          "type": "address"
        }
      ],
      "name": "setL2DividendPoolForStos",
      "outputs": [],
      "stateMutability": "nonpayable",
      "type": "function"
    },
    {
      "inputs": [
        {
          "internalType": "bytes4",
          "name": "interfaceId",
          "type": "bytes4"
        }
      ],
      "name": "supportsInterface",
      "outputs": [
        {
          "internalType": "bool",
          "name": "",
          "type": "bool"
        }
      ],
      "stateMutability": "view",
      "type": "function"
    },
    {
      "inputs": [
        {
          "internalType": "address",
          "name": "newAdmin",
          "type": "address"
        }
      ],
      "name": "transferAdmin",
      "outputs": [],
      "stateMutability": "nonpayable",
      "type": "function"
    },
    {
      "inputs": [
        {
          "internalType": "address",
          "name": "newAdmin",
          "type": "address"
        }
      ],
      "name": "transferOwnership",
      "outputs": [],
      "stateMutability": "nonpayable",
      "type": "function"
    },
    {
      "inputs": [],
      "name": "universalStos",
      "outputs": [
        {
          "internalType": "address",
          "name": "",
          "type": "address"
        }
      ],
      "stateMutability": "view",
      "type": "function"
    }
  ],
  "bytecode": "0x608060405234801561001057600080fd5b5061148b806100206000396000f3fe60806040526004361061018b5760003560e01c8063715018a6116100d6578063b911135f1161007f578063d539139311610059578063d5391393146104da578063d547741f1461050e578063f2fde38b1461052e57600080fd5b8063b911135f14610464578063c65ba19d1461049a578063c83d3c47146104ba57600080fd5b80638f32d59b116100b05780638f32d59b146103c557806391d1485414610409578063a217fddf1461044f57600080fd5b8063715018a614610370578063726befc51461038557806375829def146103a557600080fd5b8063485cc9551161013857806363453ae11161011257806363453ae11461032357806363a8fd8914610336578063704802751461035057600080fd5b8063485cc9551461028557806350d2a276146102a5578063550d01a3146102f357600080fd5b806324d7806c1161016957806324d7806c146102255780632f2ff15d1461024557806336568abe1461026557600080fd5b806301ffc9a7146101905780631785f53c146101c5578063248a9ca3146101e7575b600080fd5b34801561019c57600080fd5b506101b06101ab36600461121e565b61054e565b60405190151581526020015b60405180910390f35b3480156101d157600080fd5b506101e56101e0366004611264565b61055f565b005b3480156101f357600080fd5b5061021761020236600461127f565b60009081526005602052604090206001015490565b6040519081526020016101bc565b34801561023157600080fd5b506101b0610240366004611264565b6105d2565b34801561025157600080fd5b506101e5610260366004611298565b610612565b34801561027157600080fd5b506101e5610280366004611298565b61063c565b34801561029157600080fd5b506101e56102a03660046112c4565b6106c8565b3480156102b157600080fd5b506102db6102c036600461121e565b6003602052600090815260409020546001600160a01b031681565b6040516001600160a01b0390911681526020016101bc565b3480156102ff57600080fd5b506101b061030e366004611264565b60026020526000908152604090205460ff1681565b6101e5610331366004611264565b610763565b34801561034257600080fd5b506000546101b09060ff1681565b34801561035c57600080fd5b506101e561036b366004611264565b610af8565b34801561037c57600080fd5b506101e5610b63565b34801561039157600080fd5b506006546102db906001600160a01b031681565b3480156103b157600080fd5b506101e56103c0366004611264565b610bd0565b3480156103d157600080fd5b503360009081527f05b8ccbb9d4d8fb16ea74ce3c29a41f1b461fbdaff4714a0d9a8eb05499746bc602052604090205460ff166101b0565b34801561041557600080fd5b506101b0610424366004611298565b60009182526005602090815260408084206001600160a01b0393909316845291905290205460ff1690565b34801561045b57600080fd5b50610217600081565b34801561047057600080fd5b506102db61047f36600461127f565b6001602052600090815260409020546001600160a01b031681565b3480156104a657600080fd5b506101e56104b5366004611264565b610cf4565b3480156104c657600080fd5b506007546102db906001600160a01b031681565b3480156104e657600080fd5b506102177ff0887ba65ee2024ea881d91b74c2450ef19e1557f03bed3ea9f16b037cbe2dc981565b34801561051a57600080fd5b506101e5610529366004611298565b610dc9565b34801561053a57600080fd5b506101e5610549366004611264565b610dee565b600061055982610e57565b92915050565b610568336105d2565b6105c45760405162461bcd60e51b815260206004820152602260248201527f41636365737369626c653a2043616c6c6572206973206e6f7420616e2061646d60448201526134b760f11b60648201526084015b60405180910390fd5b6105cf60008261063c565b50565b6001600160a01b03811660009081527f05b8ccbb9d4d8fb16ea74ce3c29a41f1b461fbdaff4714a0d9a8eb05499746bc602052604081205460ff16610559565b60008281526005602052604090206001015461062d81610e7c565b6106378383610e86565b505050565b6001600160a01b03811633146106ba5760405162461bcd60e51b815260206004820152602f60248201527f416363657373436f6e74726f6c3a2063616e206f6e6c792072656e6f756e636560448201527f20726f6c657320666f722073656c66000000000000000000000000000000000060648201526084016105bb565b6106c48282610f28565b5050565b6106d1336105d2565b6107285760405162461bcd60e51b815260206004820152602260248201527f41636365737369626c653a2043616c6c6572206973206e6f7420616e2061646d60448201526134b760f11b60648201526084016105bb565b600680546001600160a01b0393841673ffffffffffffffffffffffffffffffffffffffff199182161790915560078054929093169116179055565b600754604080516318160ddd60e01b815290516000926001600160a01b0316916318160ddd9160048083019260209291908290030181865afa1580156107ad573d6000803e3d6000fd5b505050506040513d601f19601f820116820180604052508101906107d191906112ee565b905080156106c45760006001600160a01b03831673deaddeaddeaddeaddeaddeaddeaddeaddead000014610951576040516370a0823160e01b81523060048201526001600160a01b038416906370a0823190602401602060405180830381865afa158015610843573d6000803e3d6000fd5b505050506040513d601f19601f8201168201806040525081019061086791906112ee565b9050670de0b6b3a764000081116108e65760405162461bcd60e51b815260206004820152602f60248201527f646973747269627574653a20746f6b656e2062616c616e6365206973206c657360448201527f73207468616e20312065746865722e000000000000000000000000000000000060648201526084016105bb565b600654604051631f72642160e31b81526001600160a01b038581166004830152602482018490529091169063fb93210890604401600060405180830381600087803b15801561093457600080fd5b505af1158015610948573d6000803e3d6000fd5b50505050610ab0565b479050806000036109a45760405162461bcd60e51b815260206004820152601860248201527f646973747269627574653a207a65726f2062616c616e6365000000000000000060448201526064016105bb565b604080516001600160a01b038581166024830152604480830185905283518084039091018152606490920183526020820180517bffffffffffffffffffffffffffffffffffffffffffffffffffffffff16631f72642160e31b179052600654925191926000929116908490610a1a90859061132b565b60006040518083038185875af1925050503d8060008114610a57576040519150601f19603f3d011682016040523d82523d6000602084013e610a5c565b606091505b5050905080610aad5760405162461bcd60e51b815260206004820152600f60248201527f6661696c2064697374726962757465000000000000000000000000000000000060448201526064016105bb565b50505b826001600160a01b03167fb649c98f58055c520df0dcb5709eff2e931217ff2fb1e21376130d31bbb1c0af82604051610aeb91815260200190565b60405180910390a2505050565b610b01336105d2565b610b585760405162461bcd60e51b815260206004820152602260248201527f41636365737369626c653a2043616c6c6572206973206e6f7420616e2061646d60448201526134b760f11b60648201526084016105bb565b6105cf600082610612565b610b6c336105d2565b610bc35760405162461bcd60e51b815260206004820152602260248201527f41636365737369626c653a2043616c6c6572206973206e6f7420616e2061646d60448201526134b760f11b60648201526084016105bb565b610bce60003361063c565b565b610bd9336105d2565b610c305760405162461bcd60e51b815260206004820152602260248201527f41636365737369626c653a2043616c6c6572206973206e6f7420616e2061646d60448201526134b760f11b60648201526084016105bb565b6001600160a01b038116610c865760405162461bcd60e51b815260206004820152601860248201527f41636365737369626c653a207a65726f2061646472657373000000000000000060448201526064016105bb565b6001600160a01b0381163303610cde5760405162461bcd60e51b815260206004820152601660248201527f41636365737369626c653a2073616d652061646d696e0000000000000000000060448201526064016105bb565b610ce9600082610612565b6105cf60003361063c565b610cfd336105d2565b610d545760405162461bcd60e51b815260206004820152602260248201527f41636365737369626c653a2043616c6c6572206973206e6f7420616e2061646d60448201526134b760f11b60648201526084016105bb565b6006546001600160a01b03808316911603610d9a5760405162461bcd60e51b81526004016105bb9060208082526004908201526373616d6560e01b604082015260600190565b6006805473ffffffffffffffffffffffffffffffffffffffff19166001600160a01b0392909216919091179055565b600082815260056020526040902060010154610de481610e7c565b6106378383610f28565b610df7336105d2565b610e4e5760405162461bcd60e51b815260206004820152602260248201527f41636365737369626c653a2043616c6c6572206973206e6f7420616e2061646d60448201526134b760f11b60648201526084016105bb565b6105cf81610bd0565b60006001600160e01b03198216637965db0b60e01b1480610559575061055982610fab565b6105cf8133610fe7565b60008281526005602090815260408083206001600160a01b038516845290915290205460ff166106c45760008281526005602090815260408083206001600160a01b03851684529091529020805460ff19166001179055610ee43390565b6001600160a01b0316816001600160a01b0316837f2f8788117e7eff1d82e926ec794901d17c78024a50270940304540a733656f0d60405160405180910390a45050565b60008281526005602090815260408083206001600160a01b038516845290915290205460ff16156106c45760008281526005602090815260408083206001600160a01b0385168085529252808320805460ff1916905551339285917ff6391f5c32d9c69d2a47ea670b442974b53935d1edc7fd64eb21e047a839171b9190a45050565b60006301ffc9a760e01b6001600160e01b0319831614806105595750506001600160e01b03191660009081526004602052604090205460ff1690565b60008281526005602090815260408083206001600160a01b038516845290915290205460ff166106c45761101a8161105c565b61102583602061106e565b604051602001611036929190611347565b60408051601f198184030181529082905262461bcd60e51b82526105bb916004016113c8565b60606105596001600160a01b03831660145b6060600061107d836002611411565b611088906002611428565b67ffffffffffffffff8111156110a0576110a061143b565b6040519080825280601f01601f1916602001820160405280156110ca576020820181803683370190505b509050600360fc1b816000815181106110e5576110e5611451565b60200101906001600160f81b031916908160001a905350600f60fb1b8160018151811061111457611114611451565b60200101906001600160f81b031916908160001a9053506000611138846002611411565b611143906001611428565b90505b60018111156111c8577f303132333435363738396162636465660000000000000000000000000000000085600f166010811061118457611184611451565b1a60f81b82828151811061119a5761119a611451565b60200101906001600160f81b031916908160001a90535060049490941c936111c181611467565b9050611146565b5083156112175760405162461bcd60e51b815260206004820181905260248201527f537472696e67733a20686578206c656e67746820696e73756666696369656e7460448201526064016105bb565b9392505050565b60006020828403121561123057600080fd5b81356001600160e01b03198116811461121757600080fd5b80356001600160a01b038116811461125f57600080fd5b919050565b60006020828403121561127657600080fd5b61121782611248565b60006020828403121561129157600080fd5b5035919050565b600080604083850312156112ab57600080fd5b823591506112bb60208401611248565b90509250929050565b600080604083850312156112d757600080fd5b6112e083611248565b91506112bb60208401611248565b60006020828403121561130057600080fd5b5051919050565b60005b8381101561132257818101518382015260200161130a565b50506000910152565b6000825161133d818460208701611307565b9190910192915050565b7f416363657373436f6e74726f6c3a206163636f756e742000000000000000000081526000835161137f816017850160208801611307565b7f206973206d697373696e6720726f6c652000000000000000000000000000000060179184019182015283516113bc816028840160208801611307565b01602801949350505050565b60208152600082518060208401526113e7816040850160208701611307565b601f01601f19169190910160400192915050565b634e487b7160e01b600052601160045260246000fd5b8082028115828204841417610559576105596113fb565b80820180821115610559576105596113fb565b634e487b7160e01b600052604160045260246000fd5b634e487b7160e01b600052603260045260246000fd5b600081611476576114766113fb565b50600019019056fea164736f6c6343000813000a",
  "linkReferences": {},
  "deployedLinkReferences": {}
}