{
  "_format": "hh-sol-artifact-1",
  "contractName": "AccessibleCommon",
  "sourceName": "contracts/common/AccessibleCommon.sol",
  "abi": [
    {
      "anonymous": false,
      "inputs": [
        {
          "indexed": true,
          "internalType": "bytes32",
          "name": "role",
          "type": "bytes32"
        },
        {
          "indexed": true,
          "internalType": "bytes32",
          "name": "previousAdminRole",
          "type": "bytes32"
        },
        {
          "indexed": true,
          "internalType": "bytes32",
          "name": "newAdminRole",
          "type": "bytes32"
        }
      ],
      "name": "RoleAdminChanged",
      "type": "event"
    },
    {
      "anonymous": false,
      "inputs": [
        {
          "indexed": true,
          "internalType": "bytes32",
          "name": "role",
          "type": "bytes32"
        },
        {
          "indexed": true,
          "internalType": "address",
          "name": "account",
          "type": "address"
        },
        {
          "indexed": true,
          "internalType": "address",
          "name": "sender",
          "type": "address"
        }
      ],
      "name": "RoleGranted",
      "type": "event"
    },
    {
      "anonymous": false,
      "inputs": [
        {
          "indexed": true,
          "internalType": "bytes32",
          "name": "role",
          "type": "bytes32"
        },
        {
          "indexed": true,
          "internalType": "address",
          "name": "account",
          "type": "address"
        },
        {
          "indexed": true,
          "internalType": "address",
          "name": "sender",
          "type": "address"
        }
      ],
      "name": "RoleRevoked",
      "type": "event"
    },
    {
      "inputs": [],
      "name": "DEFAULT_ADMIN_ROLE",
      "outputs": [
        {
          "internalType": "bytes32",
          "name": "",
          "type": "bytes32"
        }
      ],
      "stateMutability": "view",
      "type": "function"
    },
    {
      "inputs": [],
      "name": "MINTER_ROLE",
      "outputs": [
        {
          "internalType": "bytes32",
          "name": "",
          "type": "bytes32"
        }
      ],
      "stateMutability": "view",
      "type": "function"
    },
    {
      "inputs": [
        {
          "internalType": "address",
          "name": "account",
          "type": "address"
        }
      ],
      "name": "addAdmin",
      "outputs": [],
      "stateMutability": "nonpayable",
      "type": "function"
    },
    {
      "inputs": [
        {
          "internalType": "bytes32",
          "name": "role",
          "type": "bytes32"
        }
      ],
      "name": "getRoleAdmin",
      "outputs": [
        {
          "internalType": "bytes32",
          "name": "",
          "type": "bytes32"
        }
      ],
      "stateMutability": "view",
      "type": "function"
    },
    {
      "inputs": [
        {
          "internalType": "bytes32",
          "name": "role",
          "type": "bytes32"
        },
        {
          "internalType": "address",
          "name": "account",
          "type": "address"
        }
      ],
      "name": "grantRole",
      "outputs": [],
      "stateMutability": "nonpayable",
      "type": "function"
    },
    {
      "inputs": [
        {
          "internalType": "bytes32",
          "name": "role",
          "type": "bytes32"
        },
        {
          "internalType": "address",
          "name": "account",
          "type": "address"
        }
      ],
      "name": "hasRole",
      "outputs": [
        {
          "internalType": "bool",
          "name": "",
          "type": "bool"
        }
      ],
      "stateMutability": "view",
      "type": "function"
    },
    {
      "inputs": [
        {
          "internalType": "address",
          "name": "account",
          "type": "address"
        }
      ],
      "name": "isAdmin",
      "outputs": [
        {
          "internalType": "bool",
          "name": "",
          "type": "bool"
        }
      ],
      "stateMutability": "view",
      "type": "function"
    },
    {
      "inputs": [],
      "name": "isOwner",
      "outputs": [
        {
          "internalType": "bool",
          "name": "",
          "type": "bool"
        }
      ],
      "stateMutability": "view",
      "type": "function"
    },
    {
      "inputs": [
        {
          "internalType": "address",
          "name": "account",
          "type": "address"
        }
      ],
      "name": "removeAdmin",
      "outputs": [],
      "stateMutability": "nonpayable",
      "type": "function"
    },
    {
      "inputs": [],
      "name": "renounceOwnership",
      "outputs": [],
      "stateMutability": "nonpayable",
      "type": "function"
    },
    {
      "inputs": [
        {
          "internalType": "bytes32",
          "name": "role",
          "type": "bytes32"
        },
        {
          "internalType": "address",
          "name": "account",
          "type": "address"
        }
      ],
      "name": "renounceRole",
      "outputs": [],
      "stateMutability": "nonpayable",
      "type": "function"
    },
    {
      "inputs": [
        {
          "internalType": "bytes32",
          "name": "role",
          "type": "bytes32"
        },
        {
          "internalType": "address",
          "name": "account",
          "type": "address"
        }
      ],
      "name": "revokeRole",
      "outputs": [],
      "stateMutability": "nonpayable",
      "type": "function"
    },
    {
      "inputs": [
        {
          "internalType": "bytes4",
          "name": "interfaceId",
          "type": "bytes4"
        }
      ],
      "name": "supportsInterface",
      "outputs": [
        {
          "internalType": "bool",
          "name": "",
          "type": "bool"
        }
      ],
      "stateMutability": "view",
      "type": "function"
    },
    {
      "inputs": [
        {
          "internalType": "address",
          "name": "newAdmin",
          "type": "address"
        }
      ],
      "name": "transferAdmin",
      "outputs": [],
      "stateMutability": "nonpayable",
      "type": "function"
    },
    {
      "inputs": [
        {
          "internalType": "address",
          "name": "newAdmin",
          "type": "address"
        }
      ],
      "name": "transferOwnership",
      "outputs": [],
      "stateMutability": "nonpayable",
      "type": "function"
    }
  ],
  "bytecode": "0x608060405234801561001057600080fd5b50610aa5806100206000396000f3fe608060405234801561001057600080fd5b50600436106100f55760003560e01c8063715018a611610097578063a217fddf11610066578063a217fddf146101eb578063d5391393146101f3578063d547741f1461021a578063f2fde38b1461022d57600080fd5b8063715018a6146101b557806375829def146101bd5780638f32d59b146101d057806391d14854146101d857600080fd5b806324d7806c116100d357806324d7806c146101695780632f2ff15d1461017c57806336568abe1461018f57806370480275146101a257600080fd5b806301ffc9a7146100fa5780631785f53c14610122578063248a9ca314610137575b600080fd5b61010d610108366004610861565b610240565b60405190151581526020015b60405180910390f35b6101356101303660046108a7565b610251565b005b61015b6101453660046108c2565b6000908152600160208190526040909120015490565b604051908152602001610119565b61010d6101773660046108a7565b61028d565b61013561018a3660046108db565b610299565b61013561019d3660046108db565b6102c4565b6101356101b03660046108a7565b610342565b610135610372565b6101356101cb3660046108a7565b6103a4565b61010d610486565b61010d6101e63660046108db565b610497565b61015b600081565b61015b7ff0887ba65ee2024ea881d91b74c2450ef19e1557f03bed3ea9f16b037cbe2dc981565b6101356102283660046108db565b6104c2565b61013561023b3660046108a7565b6104e8565b600061024b82610516565b92915050565b61025a3361028d565b61027f5760405162461bcd60e51b815260040161027690610907565b60405180910390fd5b61028a6000826102c4565b50565b600061024b8183610497565b600082815260016020819052604090912001546102b58161053b565b6102bf8383610545565b505050565b6001600160a01b03811633146103345760405162461bcd60e51b815260206004820152602f60248201527f416363657373436f6e74726f6c3a2063616e206f6e6c792072656e6f756e636560448201526e103937b632b9903337b91039b2b63360891b6064820152608401610276565b61033e82826105b0565b5050565b61034b3361028d565b6103675760405162461bcd60e51b815260040161027690610907565b61028a600082610299565b61037b3361028d565b6103975760405162461bcd60e51b815260040161027690610907565b6103a26000336102c4565b565b6103ad3361028d565b6103c95760405162461bcd60e51b815260040161027690610907565b6001600160a01b03811661041f5760405162461bcd60e51b815260206004820152601860248201527f41636365737369626c653a207a65726f206164647265737300000000000000006044820152606401610276565b6001600160a01b03811633036104705760405162461bcd60e51b815260206004820152601660248201527520b1b1b2b9b9b4b136329d1039b0b6b29030b236b4b760511b6044820152606401610276565b61047b600082610299565b61028a6000336102c4565b60006104928133610497565b905090565b60009182526001602090815260408084206001600160a01b0393909316845291905290205460ff1690565b600082815260016020819052604090912001546104de8161053b565b6102bf83836105b0565b6104f13361028d565b61050d5760405162461bcd60e51b815260040161027690610907565b61028a816103a4565b60006001600160e01b03198216637965db0b60e01b148061024b575061024b82610617565b61028a8133610653565b61054f8282610497565b61033e5760008281526001602081815260408084206001600160a01b0386168086529252808420805460ff19169093179092559051339285917f2f8788117e7eff1d82e926ec794901d17c78024a50270940304540a733656f0d9190a45050565b6105ba8282610497565b1561033e5760008281526001602090815260408083206001600160a01b0385168085529252808320805460ff1916905551339285917ff6391f5c32d9c69d2a47ea670b442974b53935d1edc7fd64eb21e047a839171b9190a45050565b60006301ffc9a760e01b6001600160e01b03198316148061024b5750506001600160e01b03191660009081526020819052604090205460ff1690565b61065d8282610497565b61033e5761066a816106ac565b6106758360206106be565b60405160200161068692919061096d565b60408051601f198184030181529082905262461bcd60e51b8252610276916004016109e2565b606061024b6001600160a01b03831660145b606060006106cd836002610a2b565b6106d8906002610a42565b67ffffffffffffffff8111156106f0576106f0610a55565b6040519080825280601f01601f19166020018201604052801561071a576020820181803683370190505b509050600360fc1b8160008151811061073557610735610a6b565b60200101906001600160f81b031916908160001a905350600f60fb1b8160018151811061076457610764610a6b565b60200101906001600160f81b031916908160001a9053506000610788846002610a2b565b610793906001610a42565b90505b600181111561080b576f181899199a1a9b1b9c1cb0b131b232b360811b85600f16601081106107c7576107c7610a6b565b1a60f81b8282815181106107dd576107dd610a6b565b60200101906001600160f81b031916908160001a90535060049490941c9361080481610a81565b9050610796565b50831561085a5760405162461bcd60e51b815260206004820181905260248201527f537472696e67733a20686578206c656e67746820696e73756666696369656e746044820152606401610276565b9392505050565b60006020828403121561087357600080fd5b81356001600160e01b03198116811461085a57600080fd5b80356001600160a01b03811681146108a257600080fd5b919050565b6000602082840312156108b957600080fd5b61085a8261088b565b6000602082840312156108d457600080fd5b5035919050565b600080604083850312156108ee57600080fd5b823591506108fe6020840161088b565b90509250929050565b60208082526022908201527f41636365737369626c653a2043616c6c6572206973206e6f7420616e2061646d60408201526134b760f11b606082015260800190565b60005b8381101561096457818101518382015260200161094c565b50506000910152565b7f416363657373436f6e74726f6c3a206163636f756e74200000000000000000008152600083516109a5816017850160208801610949565b7001034b99036b4b9b9b4b733903937b6329607d1b60179184019182015283516109d6816028840160208801610949565b01602801949350505050565b6020815260008251806020840152610a01816040850160208701610949565b601f01601f19169190910160400192915050565b634e487b7160e01b600052601160045260246000fd5b808202811582820484141761024b5761024b610a15565b8082018082111561024b5761024b610a15565b634e487b7160e01b600052604160045260246000fd5b634e487b7160e01b600052603260045260246000fd5b600081610a9057610a90610a15565b50600019019056fea164736f6c6343000813000a",
  "linkReferences": {},
  "deployedLinkReferences": {}
}