{
  "_format": "hh-sol-artifact-1",
  "contractName": "AccessibleCommon",
  "sourceName": "contracts/common/AccessibleCommon.sol",
  "abi": [
    {
      "anonymous": false,
      "inputs": [
        {
          "indexed": true,
          "internalType": "bytes32",
          "name": "role",
          "type": "bytes32"
        },
        {
          "indexed": true,
          "internalType": "bytes32",
          "name": "previousAdminRole",
          "type": "bytes32"
        },
        {
          "indexed": true,
          "internalType": "bytes32",
          "name": "newAdminRole",
          "type": "bytes32"
        }
      ],
      "name": "RoleAdminChanged",
      "type": "event"
    },
    {
      "anonymous": false,
      "inputs": [
        {
          "indexed": true,
          "internalType": "bytes32",
          "name": "role",
          "type": "bytes32"
        },
        {
          "indexed": true,
          "internalType": "address",
          "name": "account",
          "type": "address"
        },
        {
          "indexed": true,
          "internalType": "address",
          "name": "sender",
          "type": "address"
        }
      ],
      "name": "RoleGranted",
      "type": "event"
    },
    {
      "anonymous": false,
      "inputs": [
        {
          "indexed": true,
          "internalType": "bytes32",
          "name": "role",
          "type": "bytes32"
        },
        {
          "indexed": true,
          "internalType": "address",
          "name": "account",
          "type": "address"
        },
        {
          "indexed": true,
          "internalType": "address",
          "name": "sender",
          "type": "address"
        }
      ],
      "name": "RoleRevoked",
      "type": "event"
    },
    {
      "inputs": [],
      "name": "DEFAULT_ADMIN_ROLE",
      "outputs": [
        {
          "internalType": "bytes32",
          "name": "",
          "type": "bytes32"
        }
      ],
      "stateMutability": "view",
      "type": "function"
    },
    {
      "inputs": [],
      "name": "MINTER_ROLE",
      "outputs": [
        {
          "internalType": "bytes32",
          "name": "",
          "type": "bytes32"
        }
      ],
      "stateMutability": "view",
      "type": "function"
    },
    {
      "inputs": [
        {
          "internalType": "address",
          "name": "account",
          "type": "address"
        }
      ],
      "name": "addAdmin",
      "outputs": [],
      "stateMutability": "nonpayable",
      "type": "function"
    },
    {
      "inputs": [
        {
          "internalType": "bytes32",
          "name": "role",
          "type": "bytes32"
        }
      ],
      "name": "getRoleAdmin",
      "outputs": [
        {
          "internalType": "bytes32",
          "name": "",
          "type": "bytes32"
        }
      ],
      "stateMutability": "view",
      "type": "function"
    },
    {
      "inputs": [
        {
          "internalType": "bytes32",
          "name": "role",
          "type": "bytes32"
        },
        {
          "internalType": "address",
          "name": "account",
          "type": "address"
        }
      ],
      "name": "grantRole",
      "outputs": [],
      "stateMutability": "nonpayable",
      "type": "function"
    },
    {
      "inputs": [
        {
          "internalType": "bytes32",
          "name": "role",
          "type": "bytes32"
        },
        {
          "internalType": "address",
          "name": "account",
          "type": "address"
        }
      ],
      "name": "hasRole",
      "outputs": [
        {
          "internalType": "bool",
          "name": "",
          "type": "bool"
        }
      ],
      "stateMutability": "view",
      "type": "function"
    },
    {
      "inputs": [
        {
          "internalType": "address",
          "name": "account",
          "type": "address"
        }
      ],
      "name": "isAdmin",
      "outputs": [
        {
          "internalType": "bool",
          "name": "",
          "type": "bool"
        }
      ],
      "stateMutability": "view",
      "type": "function"
    },
    {
      "inputs": [],
      "name": "isOwner",
      "outputs": [
        {
          "internalType": "bool",
          "name": "",
          "type": "bool"
        }
      ],
      "stateMutability": "view",
      "type": "function"
    },
    {
      "inputs": [
        {
          "internalType": "address",
          "name": "account",
          "type": "address"
        }
      ],
      "name": "removeAdmin",
      "outputs": [],
      "stateMutability": "nonpayable",
      "type": "function"
    },
    {
      "inputs": [],
      "name": "renounceOwnership",
      "outputs": [],
      "stateMutability": "nonpayable",
      "type": "function"
    },
    {
      "inputs": [
        {
          "internalType": "bytes32",
          "name": "role",
          "type": "bytes32"
        },
        {
          "internalType": "address",
          "name": "account",
          "type": "address"
        }
      ],
      "name": "renounceRole",
      "outputs": [],
      "stateMutability": "nonpayable",
      "type": "function"
    },
    {
      "inputs": [
        {
          "internalType": "bytes32",
          "name": "role",
          "type": "bytes32"
        },
        {
          "internalType": "address",
          "name": "account",
          "type": "address"
        }
      ],
      "name": "revokeRole",
      "outputs": [],
      "stateMutability": "nonpayable",
      "type": "function"
    },
    {
      "inputs": [
        {
          "internalType": "bytes4",
          "name": "interfaceId",
          "type": "bytes4"
        }
      ],
      "name": "supportsInterface",
      "outputs": [
        {
          "internalType": "bool",
          "name": "",
          "type": "bool"
        }
      ],
      "stateMutability": "view",
      "type": "function"
    },
    {
      "inputs": [
        {
          "internalType": "address",
          "name": "newAdmin",
          "type": "address"
        }
      ],
      "name": "transferAdmin",
      "outputs": [],
      "stateMutability": "nonpayable",
      "type": "function"
    },
    {
      "inputs": [
        {
          "internalType": "address",
          "name": "newAdmin",
          "type": "address"
        }
      ],
      "name": "transferOwnership",
      "outputs": [],
      "stateMutability": "nonpayable",
      "type": "function"
    }
  ],
  "bytecode": "0x6080806040523461001657610c15908161001c8239f35b600080fdfe608060408181526004908136101561001657600080fd5b600092833560e01c90816301ffc9a714610608575080631785f53c146105da578063248a9ca3146105b057806324d7806c1461056a5780632f2ff15d146104bd57806336568abe1461042b5780637048027514610376578063715018a61461034d57806375829def146103325780638f32d59b146102ff57806391d14854146102b8578063a217fddf1461029d578063d53913931461025e578063d547741f146102255763f2fde38b146100c957600080fd5b346102215760208060031936011261021d576100e3610681565b6100f46100ef336106b2565b610bb1565b6101006100ef336106b2565b6001600160a01b03169283156101dc578333146101a257508380526001815261012e600183862001546106ef565b83805260018152818420838552815260ff828520541615610157575b8361015433610a25565b80f35b8380526001815281842090838552528220600160ff198254161790553390827f2f8788117e7eff1d82e926ec794901d17c78024a50270940304540a733656f0d8180a438808061014a565b915162461bcd60e51b815291820152601660248201527520b1b1b2b9b9b4b136329d1039b0b6b29030b236b4b760511b6044820152606490fd5b915162461bcd60e51b815291820152601860248201527f41636365737369626c653a207a65726f206164647265737300000000000000006044820152606490fd5b8380fd5b8280fd5b50346102215780600319360112610221576101549135610259600161024861069c565b9383875281602052862001546106ef565b610b14565b838234610299578160031936011261029957602090517ff0887ba65ee2024ea881d91b74c2450ef19e1557f03bed3ea9f16b037cbe2dc98152f35b5080fd5b83823461029957816003193601126102995751908152602090f35b5090346102215781600319360112610221578160209360ff926102d961069c565b90358252600186528282206001600160a01b039091168252855220549151911615158152f35b83823461029957816003193601126102995760ff8183806020955260018552818120338252855220541690519015158152f35b50346102215760208060031936011261021d576100f4610681565b833461037357806003193601126103735761036a6100ef336106b2565b61015433610a25565b80fd5b838234610299576020908160031936011261022157610393610681565b916103a06100ef336106b2565b838052600181526103b6600183862001546106ef565b838052600181528184206001600160a01b039093168085529281528184205460ff16156103e1578380f35b8380526001815281842090838552528220600160ff198254161790553390827f2f8788117e7eff1d82e926ec794901d17c78024a50270940304540a733656f0d8180a48180808380f35b5091903461029957826003193601126102995761044661069c565b90336001600160a01b0383160361046257906101549135610b14565b608490602085519162461bcd60e51b8352820152602f60248201527f416363657373436f6e74726f6c3a2063616e206f6e6c792072656e6f756e636560448201526e103937b632b9903337b91039b2b63360891b6064820152fd5b50903461022157816003193601126102215735906104d961069c565b9082845260016020526104f1600182862001546106ef565b828452600160209081528185206001600160a01b039093168086529290528084205460ff161561051f578380f35b82845260016020528084208285526020528320600160ff1982541617905533917f2f8788117e7eff1d82e926ec794901d17c78024a50270940304540a733656f0d8480a43880808380f35b8382346102995760203660031901126102995760ff8160209361058b610681565b818052600186528282206001600160a01b039091168252855220549151911615158152f35b50903461022157602036600319011261022157816020936001923581528285522001549051908152f35b8334610373576020366003190112610373576101546105f7610681565b6106036100ef336106b2565b610a25565b9050838334610299576020366003190112610299573563ffffffff60e01b811680910361029957602093637965db0b60e01b821492831561064d575b50505015158152f35b6301ffc9a760e01b831493509091831561066d575b505050838080610644565b60ff93508152808552205416838080610662565b600435906001600160a01b038216820361069757565b600080fd5b602435906001600160a01b038216820361069757565b6001600160a01b031660009081527fa6eef7e35abe7026729641147f7915573c7e97b47efa546f5f6e3230263bcb49602052604090205460ff1690565b60009080825260016020818152604093848120338252825260ff85822054161561071a575050505050565b33855193606085019567ffffffffffffffff96868110888211176109ee578852602a865284860192883685378651156109da576030845386518310156109da576078602188015360295b838111610970575061089a57875190608082018281108982111761095c578952604282528582019260603685378251156109485760308453825181101561094857607860218401536041905b8082116108dc57505061089a579161082f949391889360679899519687936108058886019a7f416363657373436f6e74726f6c3a206163636f756e74200000000000000000008c525180926037880190610a02565b8401917001034b99036b4b9b9b4b733903937b6329607d1b60378401525180936048840190610a02565b0103602881018552601f1996879101168401968488109088111761088657509261087d60449593601f938880975262461bcd60e51b8752600487015251809281602488015287870190610a02565b01168101030190fd5b634e487b7160e01b81526041600452602490fd5b60648589519062461bcd60e51b825280600483015260248201527f537472696e67733a20686578206c656e67746820696e73756666696369656e746044820152fd5b9091600f81166010811015610934576f181899199a1a9b1b9c1cb0b131b232b360811b901a61090b8486610b8a565b5360041c9180156109205760001901906107b0565b634e487b7160e01b87526011600452602487fd5b634e487b7160e01b88526032600452602488fd5b634e487b7160e01b86526032600452602486fd5b634e487b7160e01b86526041600452602486fd5b90600f811660108110156109c6576f181899199a1a9b1b9c1cb0b131b232b360811b901a61099e838a610b8a565b5360041c9080156109b25760001901610764565b634e487b7160e01b86526011600452602486fd5b634e487b7160e01b87526032600452602487fd5b634e487b7160e01b85526032600452602485fd5b634e487b7160e01b85526041600452602485fd5b60005b838110610a155750506000910152565b8181015183820152602001610a05565b6001600160a01b0316338103610ab75760008181527fa6eef7e35abe7026729641147f7915573c7e97b47efa546f5f6e3230263bcb49602052604081205490919060ff16610a71575050565b8180526001602052604082208183526020526040822060ff19815416905533917ff6391f5c32d9c69d2a47ea670b442974b53935d1edc7fd64eb21e047a839171b8180a4565b60405162461bcd60e51b815260206004820152602f60248201527f416363657373436f6e74726f6c3a2063616e206f6e6c792072656e6f756e636560448201526e103937b632b9903337b91039b2b63360891b6064820152608490fd5b906000918083526001602052604083209160018060a01b03169182845260205260ff604084205416610b4557505050565b8083526001602052604083208284526020526040832060ff1981541690557ff6391f5c32d9c69d2a47ea670b442974b53935d1edc7fd64eb21e047a839171b339380a4565b908151811015610b9b570160200190565b634e487b7160e01b600052603260045260246000fd5b15610bb857565b60405162461bcd60e51b815260206004820152602260248201527f41636365737369626c653a2043616c6c6572206973206e6f7420616e2061646d60448201526134b760f11b6064820152608490fdfea164736f6c6343000813000a",
  "linkReferences": {},
  "deployedLinkReferences": {}
}