{
  "_format": "hh-sol-artifact-1",
  "contractName": "OperatorManagerV1_1",
  "sourceName": "contracts/layer2/OperatorManagerV1_1.sol",
  "abi": [
    {
      "inputs": [],
      "stateMutability": "nonpayable",
      "type": "constructor"
    },
    {
      "inputs": [],
      "name": "AlreadySetError",
      "type": "error"
    },
    {
      "inputs": [],
      "name": "InsufficientBalanceError",
      "type": "error"
    },
    {
      "inputs": [],
      "name": "SameAddressError",
      "type": "error"
    },
    {
      "inputs": [],
      "name": "SameError",
      "type": "error"
    },
    {
      "inputs": [],
      "name": "TransferEthError",
      "type": "error"
    },
    {
      "anonymous": false,
      "inputs": [
        {
          "indexed": false,
          "internalType": "address",
          "name": "operator",
          "type": "address"
        }
      ],
      "name": "AddedOperator",
      "type": "event"
    },
    {
      "anonymous": false,
      "inputs": [
        {
          "indexed": false,
          "internalType": "address",
          "name": "token",
          "type": "address"
        },
        {
          "indexed": false,
          "internalType": "address",
          "name": "caller",
          "type": "address"
        },
        {
          "indexed": false,
          "internalType": "address",
          "name": "to",
          "type": "address"
        },
        {
          "indexed": false,
          "internalType": "uint256",
          "name": "amount",
          "type": "uint256"
        }
      ],
      "name": "Claimed",
      "type": "event"
    },
    {
      "anonymous": false,
      "inputs": [
        {
          "indexed": false,
          "internalType": "address",
          "name": "operator",
          "type": "address"
        }
      ],
      "name": "DeletedOperator",
      "type": "event"
    },
    {
      "anonymous": false,
      "inputs": [
        {
          "indexed": true,
          "internalType": "address",
          "name": "previousOwner",
          "type": "address"
        },
        {
          "indexed": true,
          "internalType": "address",
          "name": "newOwner",
          "type": "address"
        }
      ],
      "name": "OwnershipTransferred",
      "type": "event"
    },
    {
      "anonymous": false,
      "inputs": [
        {
          "indexed": false,
          "internalType": "address",
          "name": "candidate",
          "type": "address"
        }
      ],
      "name": "ProcessRequest",
      "type": "event"
    },
    {
      "anonymous": false,
      "inputs": [
        {
          "indexed": false,
          "internalType": "address",
          "name": "candidate",
          "type": "address"
        },
        {
          "indexed": false,
          "internalType": "uint256",
          "name": "n",
          "type": "uint256"
        }
      ],
      "name": "ProcessRequests",
      "type": "event"
    },
    {
      "anonymous": false,
      "inputs": [
        {
          "indexed": false,
          "internalType": "address",
          "name": "candidate",
          "type": "address"
        },
        {
          "indexed": false,
          "internalType": "uint256",
          "name": "amount",
          "type": "uint256"
        }
      ],
      "name": "RequestWithdrawal",
      "type": "event"
    },
    {
      "anonymous": false,
      "inputs": [
        {
          "indexed": false,
          "internalType": "string",
          "name": "_additionalNotesl2Info",
          "type": "string"
        }
      ],
      "name": "SetAdditionalNotes",
      "type": "event"
    },
    {
      "anonymous": false,
      "inputs": [
        {
          "indexed": false,
          "internalType": "address",
          "name": "_layer2Manager",
          "type": "address"
        },
        {
          "indexed": false,
          "internalType": "address",
          "name": "_depositManager",
          "type": "address"
        },
        {
          "indexed": false,
          "internalType": "address",
          "name": "_ton",
          "type": "address"
        },
        {
          "indexed": false,
          "internalType": "address",
          "name": "_wton",
          "type": "address"
        }
      ],
      "name": "SetAddresses",
      "type": "event"
    },
    {
      "anonymous": false,
      "inputs": [
        {
          "indexed": false,
          "internalType": "string",
          "name": "_l2Info",
          "type": "string"
        }
      ],
      "name": "SetL2Info",
      "type": "event"
    },
    {
      "anonymous": false,
      "inputs": [
        {
          "indexed": false,
          "internalType": "address",
          "name": "previousManager",
          "type": "address"
        },
        {
          "indexed": false,
          "internalType": "address",
          "name": "newManager",
          "type": "address"
        }
      ],
      "name": "TransferredManager",
      "type": "event"
    },
    {
      "inputs": [],
      "name": "acquireManager",
      "outputs": [],
      "stateMutability": "nonpayable",
      "type": "function"
    },
    {
      "inputs": [],
      "name": "additionalNotes",
      "outputs": [
        {
          "internalType": "string",
          "name": "",
          "type": "string"
        }
      ],
      "stateMutability": "view",
      "type": "function"
    },
    {
      "inputs": [],
      "name": "checkL1Bridge",
      "outputs": [
        {
          "internalType": "bool",
          "name": "result",
          "type": "bool"
        },
        {
          "internalType": "address",
          "name": "l1Bridge",
          "type": "address"
        },
        {
          "internalType": "address",
          "name": "portal",
          "type": "address"
        },
        {
          "internalType": "address",
          "name": "l2Ton",
          "type": "address"
        },
        {
          "internalType": "uint8",
          "name": "_type",
          "type": "uint8"
        },
        {
          "internalType": "uint8",
          "name": "status",
          "type": "uint8"
        },
        {
          "internalType": "bool",
          "name": "rejectedSeigs",
          "type": "bool"
        },
        {
          "internalType": "bool",
          "name": "rejectedL2Deposit",
          "type": "bool"
        }
      ],
      "stateMutability": "view",
      "type": "function"
    },
    {
      "inputs": [
        {
          "internalType": "uint256",
          "name": "amount",
          "type": "uint256"
        }
      ],
      "name": "claimByCandidateAddOn",
      "outputs": [],
      "stateMutability": "nonpayable",
      "type": "function"
    },
    {
      "inputs": [
        {
          "internalType": "address",
          "name": "token",
          "type": "address"
        },
        {
          "internalType": "uint256",
          "name": "amount",
          "type": "uint256"
        }
      ],
      "name": "claimERC20",
      "outputs": [],
      "stateMutability": "nonpayable",
      "type": "function"
    },
    {
      "inputs": [],
      "name": "claimETH",
      "outputs": [],
      "stateMutability": "nonpayable",
      "type": "function"
    },
    {
      "inputs": [
        {
          "internalType": "uint256",
          "name": "amount",
          "type": "uint256"
        }
      ],
      "name": "depositByCandidateAddOn",
      "outputs": [],
      "stateMutability": "nonpayable",
      "type": "function"
    },
    {
      "inputs": [],
      "name": "depositManager",
      "outputs": [
        {
          "internalType": "address",
          "name": "",
          "type": "address"
        }
      ],
      "stateMutability": "view",
      "type": "function"
    },
    {
      "inputs": [
        {
          "internalType": "address",
          "name": "addr",
          "type": "address"
        }
      ],
      "name": "isOperator",
      "outputs": [
        {
          "internalType": "bool",
          "name": "",
          "type": "bool"
        }
      ],
      "stateMutability": "view",
      "type": "function"
    },
    {
      "inputs": [],
      "name": "l2Info",
      "outputs": [
        {
          "internalType": "string",
          "name": "",
          "type": "string"
        }
      ],
      "stateMutability": "view",
      "type": "function"
    },
    {
      "inputs": [],
      "name": "layer2Manager",
      "outputs": [
        {
          "internalType": "address",
          "name": "",
          "type": "address"
        }
      ],
      "stateMutability": "view",
      "type": "function"
    },
    {
      "inputs": [],
      "name": "manager",
      "outputs": [
        {
          "internalType": "address",
          "name": "",
          "type": "address"
        }
      ],
      "stateMutability": "view",
      "type": "function"
    },
    {
      "inputs": [],
      "name": "owner",
      "outputs": [
        {
          "internalType": "address",
          "name": "",
          "type": "address"
        }
      ],
      "stateMutability": "view",
      "type": "function"
    },
    {
      "inputs": [],
      "name": "processRequest",
      "outputs": [],
      "stateMutability": "nonpayable",
      "type": "function"
    },
    {
      "inputs": [
        {
          "internalType": "uint256",
          "name": "n",
          "type": "uint256"
        }
      ],
      "name": "processRequests",
      "outputs": [],
      "stateMutability": "nonpayable",
      "type": "function"
    },
    {
      "inputs": [],
      "name": "renounceOwnership",
      "outputs": [],
      "stateMutability": "nonpayable",
      "type": "function"
    },
    {
      "inputs": [
        {
          "internalType": "uint256",
          "name": "amount",
          "type": "uint256"
        }
      ],
      "name": "requestWithdrawal",
      "outputs": [],
      "stateMutability": "nonpayable",
      "type": "function"
    },
    {
      "inputs": [],
      "name": "rollupConfig",
      "outputs": [
        {
          "internalType": "address",
          "name": "",
          "type": "address"
        }
      ],
      "stateMutability": "view",
      "type": "function"
    },
    {
      "inputs": [
        {
          "internalType": "string",
          "name": "_additionalNotes",
          "type": "string"
        }
      ],
      "name": "setAdditionalNotes",
      "outputs": [],
      "stateMutability": "nonpayable",
      "type": "function"
    },
    {
      "inputs": [
        {
          "internalType": "address",
          "name": "_layer2Manager",
          "type": "address"
        },
        {
          "internalType": "address",
          "name": "_depositManager",
          "type": "address"
        },
        {
          "internalType": "address",
          "name": "_ton",
          "type": "address"
        },
        {
          "internalType": "address",
          "name": "_wton",
          "type": "address"
        }
      ],
      "name": "setAddresses",
      "outputs": [],
      "stateMutability": "nonpayable",
      "type": "function"
    },
    {
      "inputs": [
        {
          "internalType": "string",
          "name": "_l2Info",
          "type": "string"
        }
      ],
      "name": "setL2Info",
      "outputs": [],
      "stateMutability": "nonpayable",
      "type": "function"
    },
    {
      "inputs": [],
      "name": "ton",
      "outputs": [
        {
          "internalType": "address",
          "name": "",
          "type": "address"
        }
      ],
      "stateMutability": "view",
      "type": "function"
    },
    {
      "inputs": [
        {
          "internalType": "address",
          "name": "newManager",
          "type": "address"
        }
      ],
      "name": "transferManager",
      "outputs": [],
      "stateMutability": "nonpayable",
      "type": "function"
    },
    {
      "inputs": [
        {
          "internalType": "address",
          "name": "newOwner",
          "type": "address"
        }
      ],
      "name": "transferOwnership",
      "outputs": [],
      "stateMutability": "nonpayable",
      "type": "function"
    },
    {
      "inputs": [],
      "name": "wton",
      "outputs": [
        {
          "internalType": "address",
          "name": "",
          "type": "address"
        }
      ],
      "stateMutability": "view",
      "type": "function"
    }
  ],
  "bytecode": "0x6080806040523461005b5760008054336001600160a01b0319821681178355916001600160a01b03909116907f8be0079c531659141344cd1fd0a4f28419497f9722a3daafe3b4186f6b6457e09080a3611d8490816100618239f35b600080fdfe6040608081526004908136101561001557600080fd5b600090813560e01c806314f01ef2146114ce57806316b5d5bd146114a65780633ddc66ba14611300578063481c6a75146112d85780634a945f8d146111cc57806360de133214611135578063632b03ad14610fe25780636727299914610f275780636c7ac9d814610eff5780636d70f7ae14610eb5578063715018a614610e5b5780637f1c490014610c225780638ac9086214610b625780638d62d94914610b3a5780638da5cb5b14610b135780638fc5668b146109805780639ee679e8146107c8578063a99d362e146107a0578063b35fb54214610744578063ba0e930a14610683578063cc48b9471461065b578063dde3ebad1461057b578063f2fde38b146104b8578063fd39beb4146103595763fe1a37ab1461013457600080fd5b346103555761014236611696565b9161016160018060a01b03808654163314908115610347575b50611849565b61016961188e565b94855160208097012061017d368686611956565b8781519101201461033a5767ffffffffffffffff841161032757506101a36008546116fb565b601f81116102c5575b508394601f841160011461021a5750610209908385967f5248c6b70fbdf66b7d6beb8c7006c410f5f5021d13ab887e9527e66d671c4505969161020f575b508460011b906000198660031b1c1916176008555b519283928361198d565b0390a180f35b9050830135386101ea565b94601f198416600886527ff3f7a9fe364faab93b216da50a3214154f22a0a2b415b23a84c8169e8b636ee39686905b8282106102ac575050956102099291857f5248c6b70fbdf66b7d6beb8c7006c410f5f5021d13ab887e9527e66d671c4505979810610292575b5050600184811b016008556101ff565b840135600019600387901b60f8161c191690553880610282565b8386013589556001909801979283019290810190610249565b600885527ff3f7a9fe364faab93b216da50a3214154f22a0a2b415b23a84c8169e8b636ee3601f850160051c81019187861061031d575b601f0160051c01905b81811061031257506101ac565b858155600101610305565b90915081906102fc565b634e487b7160e01b855260419052602484fd5b905162d0a6fb60e71b8152fd5b90506006541633143861015b565b5080fd5b5082346104b457826003193601126104b457600654916001600160a01b03808416929033841461047f578160208260015416855192838092638da5cb5b60e01b82525afa908115610475578791610438575b501633036104015750516001600160a01b039190911681523360208201527f36fc11e471af868224a71dcc29384ac6c46dda656aba95f6ee2461587368a98890604090a16001600160a01b031916331760065580f35b6020606492519162461bcd60e51b835282015260126024820152713737ba1031b7b73334b393b99037bbb732b960711b6044820152fd5b90506020813d821161046d575b8161045260209383611735565b8101031261046957610463906119b5565b876103ab565b8680fd5b3d9150610445565b84513d89823e3d90fd5b506020606492519162461bcd60e51b8352820152600f60248201526e30b63932b0b23c9036b0b730b3b2b960891b6044820152fd5b8280fd5b5082346104b45760203660031901126104b4576104d36116e5565b906104dc6117b6565b6001600160a01b0391821692831561052957505082546001600160a01b0319811683178455167f8be0079c531659141344cd1fd0a4f28419497f9722a3daafe3b4186f6b6457e08380a380f35b906020608492519162461bcd60e51b8352820152602660248201527f4f776e61626c653a206e6577206f776e657220697320746865207a65726f206160448201526564647265737360d01b6064820152fd5b50346103555781600319360112610355578051908260085461059c816116fb565b8085529160019180831690811561063357506001146105d6575b5050506105c8826105d2940383611735565b519182918261176d565b0390f35b9450600885527ff3f7a9fe364faab93b216da50a3214154f22a0a2b415b23a84c8169e8b636ee35b82861061061b575050506105c88260206105d295820101946105b6565b805460208787018101919091529095019481016105fe565b6105d29750869350602092506105c894915060ff191682840152151560051b820101946105b6565b5082346104b457826003193601126104b4575490516001600160a01b03909116815260209150f35b5082346104b45760203660031901126104b45761069e6116e5565b6001600160a01b03818116939092906106b885151561180e565b8386541633148015610737575b6106ce90611849565b600654938416918583146107295750516001600160a01b039182168152911660208201527f36fc11e471af868224a71dcc29384ac6c46dda656aba95f6ee2461587368a98890604090a16001600160a01b0319161760065580f35b9051631757e84760e01b8152fd5b50600654841633146106c5565b50346103555736600319011261079d5761078d61075f6116e5565b82546001600160a01b039190821633148015610790575b61077f90611849565b602435916006541690611a59565b80f35b5060065482163314610776565b80fd5b503461035557816003193601126103555760015490516001600160a01b039091168152602090f35b50913461035557602090816003193601126104b4578254813592602492916001600160a01b0390811633148015610973575b61080390611849565b818160025416885195868092637bae05f160e01b825230888301525afa93841561093257869461093c575b50600354875163da95ebf760e01b81526001600160a01b038616858201908152602081018890529092849284928390036040019183918b91165af19081156109325786916108f9575b50156108c057505092516001600160a01b0390931683526020830152907fd33b726e11d2c5d38e6702b16613df0160a07f7ba5185455ee3c45d0494fab11908060408101610209565b855162461bcd60e51b81529182015260146024820152736661696c2072657175657374576974686472617760601b604482015260649150fd5b90508181813d831161092b575b6109108183611735565b8101031261092757610921906119c9565b38610877565b8580fd5b503d610906565b87513d88823e3d90fd5b9093508181813d831161096c575b6109548183611735565b8101031261092757610965906119b5565b923861082e565b503d61094a565b50600654811633146107fa565b50913461035557816003193601126103555781546001600160a01b039190821633148015610b06575b6109b290611849565b8160025416908451928392637bae05f160e01b8452308385015283602460209687935afa928315610ac357859185918395610acd575b50604481600354169589519485938492636105226360e11b8452169788888401528160248401525af1908115610ac3578591610a8a575b5015610a5157507f68eaff3f1619eb57ca79a549c18f4fb9134c0c5ab61f83c4f971b550cf68be58929351908152a180f35b845162461bcd60e51b8152908101839052601360248201527219985a5b081c1c9bd8d95cdcd4995c5d595cdd606a1b6044820152606490fd5b90508381813d8311610abc575b610aa18183611735565b81010312610ab857610ab2906119c9565b38610a1f565b8480fd5b503d610a97565b86513d87823e3d90fd5b9250935081813d8311610aff575b610ae58183611735565b81010312610ab85783610af886926119b5565b93386109e8565b503d610adb565b50600654821633146109a9565b5034610355578160031936011261035557905490516001600160a01b039091168152602090f35b503461035557816003193601126103555760055490516001600160a01b039091168152602090f35b5082346104b45760203660031901126104b4576002548251637bae05f160e01b815230818401526001600160a01b0392916020908290602490829087165afa938415610c1957508493610bd3575b50610bc18261078d941633146119d6565b81600554169035916006541690611a59565b92506020833d8211610c11575b81610bed60209383611735565b81010312610c0d57610bc182610c0561078d956119b5565b945050610bb0565b8380fd5b3d9150610be0565b513d86823e3d90fd5b508290346104b457602080600319360112610c0d5782359160018060a01b03936024838660025416845192838092637bae05f160e01b825230878301525afa8015610e515786908890610e19575b610c7d92501633146119d6565b6006546003546005548451636eb1769f60e11b8152308186019081526001600160a01b03938a169384166020820152909893841694938a9392169087908a9081906040010381845afa988915610e0f5797809988998599989991610ddd575b5010610d57575b50906064929186519889958694638340f54960e01b86523390860152602485015260448401525af1908115610d4e5750610d1b578280f35b81813d8311610d47575b610d2f8183611735565b8101031261035557610d40906119c9565b5081808280f35b503d610d25565b513d85823e3d90fd5b94829195604488518094819363095ea7b360e01b83528a8984015260001960248401525af18015610dd357908794939291610d98575b949091929394610ce3565b929383813d8311610dcc575b610dae8183611735565b8101031261079d578694610dc36064946119c9565b50949392610d8d565b503d610da4565b86513d84823e3d90fd5b978092508891503d8311610e08575b610df68183611735565b810103126104b457888896518c610cdc565b503d610dec565b86513d85823e3d90fd5b50508381813d8311610e4a575b610e308183611735565b810103126104695785610e45610c7d926119b5565b610c70565b503d610e26565b83513d89823e3d90fd5b823461079d578060031936011261079d57610e746117b6565b80546001600160a01b03198116825581906001600160a01b03167f8be0079c531659141344cd1fd0a4f28419497f9722a3daafe3b4186f6b6457e08280a380f35b5034610355576020366003190112610355576020906001600160a01b039081610edc6116e5565b168015159283610ef1575b5050519015158152f35b600654161491508380610ee7565b503461035557816003193601126103555760035490516001600160a01b039091168152602090f35b5082346104b457826003193601126104b45782546001600160a01b0390811633148015610fd5575b610f5890611849565b600654164791824710610fc7578480808086865af1610f75611a29565b5015610fb9575082518481523360208201529283015260608201527f913c992353dc81b7a8ba31496c484e9b6306bd2f6c509a649a38fdf5e1c953b290608090a180f35b83516307e61b4360e51b8152fd5b835163384d3c5960e01b8152fd5b5060065481163314610f4f565b503461035557816003193601126103555760018060a01b03918260025416938360015416948351958692632e0f177560e01b84528301528160246101009788935afa92831561112a5782948391849085918694879688809a61107b575b505082519915158a52841660208a015283169088015216606086015260ff90811660808601521660a0840152151560c0830152151560e0820152f35b9750975050509650509350508482813d8311611123575b61109c8183611735565b8101031261079d575060ff6110b0826119c9565b91816110be602083016119b5565b956110ca8184016119b5565b956110d7606085016119b5565b916110e460808601611a1b565b90826110f260a08801611a1b565b948161110c60e061110560c08c016119c9565b9a016119c9565b9a9c9b919496989a9b93955096509294969761103f565b503d611092565b51913d9150823e3d90fd5b503461035557816003193601126103555780519082600754611156816116fb565b808552916001918083169081156106335750600114611181575050506105c8826105d2940383611735565b945060078552600080516020611d588339815191525b8286106111b4575050506105c88260206105d295820101946105b6565b80546020878701810191909152909501948101611197565b508290346104b45760803660031901126104b4576111e86116e5565b906001600160a01b039060243582811690819003610927576044359280841680940361046957606435948186168096036112d45781169561122a87151561180e565b61123583151561180e565b61124085151561180e565b61124b86151561180e565b6112536117b6565b6002549182166112c6576001600160a01b0319918216871760025560038054831684179055805482168517905560058054909116851790558151948552602085015283015260608201527faaa9fbd44f151f33e813cad14b3227af4d0b1ec931d5dd2bc2c7e1f8925043a990608090a180f35b8351636ac1d85960e11b8152fd5b8780fd5b503461035557816003193601126103555760065490516001600160a01b039091168152602090f35b50913461035557602090816003193601126104b4578254813592602492916001600160a01b0390811633148015611499575b61133b90611849565b818160025416885195868092637bae05f160e01b825230888301525afa93841561093257908691829561145e575b50806064849260035416918a51948593849263fb0713b160e01b84528a16898401528a60248401528160448401525af1908115610932578691611429575b50156113f057505092516001600160a01b0390931683526020830152907feaf62966b521d0f427a8e2228f64b66814082dae52a3837d1a54a465c91cc2b4908060408101610209565b855162461bcd60e51b81529182015260146024820152736661696c2070726f63657373526571756573747360601b604482015260649150fd5b90508181813d8311611457575b6114408183611735565b8101031261092757611451906119c9565b386113a7565b503d611436565b83809296508193503d8311611492575b6114788183611735565b81010312610927578161148b87926119b5565b9490611369565b503d61146e565b5060065481163314611332565b503461035557816003193601126103555760025490516001600160a01b039091168152602090f35b5034610355576114dd36611696565b916114fb60018060a01b038086541633149081156103475750611849565b61150361188e565b948551602080970120611517368686611956565b8781519101201461033a5767ffffffffffffffff8411610327575061153d6007546116fb565b601f8111611646575b508394601f84116001146115ad5750610209908385967f9387bc4f4177b66f3126d2b1f38f4043cc7423cf61c746b541d738fa3d5859ea96916115a2575b508460011b906000198660031b1c191617600755519283928361198d565b905083013538611584565b94601f19841660078652600080516020611d588339815191529686905b82821061162d575050956102099291857f9387bc4f4177b66f3126d2b1f38f4043cc7423cf61c746b541d738fa3d5859ea979810611613575b5050600184811b016007556101ff565b840135600019600387901b60f8161c191690553880611603565b83860135895560019098019792830192908101906115ca565b60078552600080516020611d58833981519152601f850160051c81019187861061168c575b601f0160051c01905b8181106116815750611546565b858155600101611674565b909150819061166b565b9060206003198301126116e05760043567ffffffffffffffff928382116116e057806023830112156116e05781600401359384116116e057602484830101116116e0576024019190565b600080fd5b600435906001600160a01b03821682036116e057565b90600182811c9216801561172b575b602083101461171557565b634e487b7160e01b600052602260045260246000fd5b91607f169161170a565b90601f8019910116810190811067ffffffffffffffff82111761175757604052565b634e487b7160e01b600052604160045260246000fd5b6020808252825181830181905290939260005b8281106117a257505060409293506000838284010152601f8019910116010190565b818101860151848201604001528501611780565b6000546001600160a01b031633036117ca57565b606460405162461bcd60e51b815260206004820152602060248201527f4f776e61626c653a2063616c6c6572206973206e6f7420746865206f776e65726044820152fd5b1561181557565b60405162461bcd60e51b815260206004820152600c60248201526b7a65726f206164647265737360a01b6044820152606490fd5b1561185057565b60405162461bcd60e51b81526020600482015260166024820152753737ba1037b7363ca7bbb732b927b926b0b730b3b2b960511b6044820152606490fd5b60405190600082600754916118a2836116fb565b8083529260019081811690811561191857506001146118cb575b506118c992500383611735565b565b600760009081529150600080516020611d588339815191525b8483106118fd57506118c99350508101602001386118bc565b81935090816020925483858a010152019101909185926118e4565b9050602092506118c994915060ff191682840152151560051b820101386118bc565b67ffffffffffffffff811161175757601f01601f191660200190565b9291926119628261193a565b916119706040519384611735565b8294818452818301116116e0578281602093846000960137010152565b90918060409360208452816020850152848401376000828201840152601f01601f1916010190565b51906001600160a01b03821682036116e057565b519081151582036116e057565b156119dd57565b60405162461bcd60e51b81526020600482015260166024820152753737ba1037b7363ca1b0b73234b230ba32a0b23227b760511b6044820152606490fd5b519060ff821682036116e057565b3d15611a54573d90611a3a8261193a565b91611a486040519384611735565b82523d6000602084013e565b606090565b6001600160a01b03929083169081611aed57804710611adb57600080808084875af1611a83611a29565b5015611ac9577f913c992353dc81b7a8ba31496c484e9b6306bd2f6c509a649a38fdf5e1c953b2936080935b6040519384523360208501521660408301526060820152a1565b6040516307e61b4360e51b8152600490fd5b60405163384d3c5960e01b8152600490fd5b9160409391938051906370a0823160e01b825230600483015260209182816024818a5afa908115611cb757908691600091611c87575b5010611c7757805163a9059cbb60e01b8382019081526001600160a01b03851660248301526044808301889052825290611b5e606482611735565b82519083820182811067ffffffffffffffff8211176117575784528482527f5361666545524332303a206c6f772d6c6576656c2063616c6c206661696c65648286015251611bbe926000918291828c5af1611bb7611a29565b9089611cc2565b8051838115918215611c58575b5050905015611c02575050917f913c992353dc81b7a8ba31496c484e9b6306bd2f6c509a649a38fdf5e1c953b29391608093611aaf565b60849250519062461bcd60e51b82526004820152602a60248201527f5361666545524332303a204552433230206f7065726174696f6e20646964206e6044820152691bdd081cdd58d8d9595960b21b6064820152fd5b83809293500103126116e05782611c6f91016119c9565b808338611bcb565b5163384d3c5960e01b8152600490fd5b91508382813d8311611cb0575b611c9e8183611735565b8101031261079d575085905138611b23565b503d611c94565b82513d6000823e3d90fd5b91929015611d245750815115611cd6575090565b3b15611cdf5790565b60405162461bcd60e51b815260206004820152601d60248201527f416464726573733a2063616c6c20746f206e6f6e2d636f6e74726163740000006044820152606490fd5b825190915015611d375750805190602001fd5b60405162461bcd60e51b8152908190611d53906004830161176d565b0390fdfea66cc928b5edb82af9bd49922954155ab7b0942694bea4ce44661d9a8736c688a164736f6c6343000813000a",
  "linkReferences": {},
  "deployedLinkReferences": {}
}