{
  "_format": "hh-sol-artifact-1",
  "contractName": "OperatorManagerV1_1",
  "sourceName": "contracts/layer2/OperatorManagerV1_1.sol",
  "abi": [
    {
      "inputs": [],
      "stateMutability": "nonpayable",
      "type": "constructor"
    },
    {
      "inputs": [],
      "name": "AlreadySetError",
      "type": "error"
    },
    {
      "inputs": [],
      "name": "InsufficientBalanceError",
      "type": "error"
    },
    {
      "inputs": [],
      "name": "SameAddressError",
      "type": "error"
    },
    {
      "inputs": [],
      "name": "TransferEthError",
      "type": "error"
    },
    {
      "anonymous": false,
      "inputs": [
        {
          "indexed": false,
          "internalType": "address",
          "name": "operator",
          "type": "address"
        }
      ],
      "name": "AddedOperator",
      "type": "event"
    },
    {
      "anonymous": false,
      "inputs": [
        {
          "indexed": false,
          "internalType": "address",
          "name": "token",
          "type": "address"
        },
        {
          "indexed": false,
          "internalType": "address",
          "name": "caller",
          "type": "address"
        },
        {
          "indexed": false,
          "internalType": "address",
          "name": "to",
          "type": "address"
        },
        {
          "indexed": false,
          "internalType": "uint256",
          "name": "amount",
          "type": "uint256"
        }
      ],
      "name": "Claimed",
      "type": "event"
    },
    {
      "anonymous": false,
      "inputs": [
        {
          "indexed": false,
          "internalType": "address",
          "name": "operator",
          "type": "address"
        }
      ],
      "name": "DeletedOperator",
      "type": "event"
    },
    {
      "anonymous": false,
      "inputs": [
        {
          "indexed": true,
          "internalType": "address",
          "name": "previousOwner",
          "type": "address"
        },
        {
          "indexed": true,
          "internalType": "address",
          "name": "newOwner",
          "type": "address"
        }
      ],
      "name": "OwnershipTransferred",
      "type": "event"
    },
    {
      "anonymous": false,
      "inputs": [
        {
          "indexed": false,
          "internalType": "address",
          "name": "candidate",
          "type": "address"
        }
      ],
      "name": "ProcessRequest",
      "type": "event"
    },
    {
      "anonymous": false,
      "inputs": [
        {
          "indexed": false,
          "internalType": "address",
          "name": "candidate",
          "type": "address"
        },
        {
          "indexed": false,
          "internalType": "uint256",
          "name": "n",
          "type": "uint256"
        }
      ],
      "name": "ProcessRequests",
      "type": "event"
    },
    {
      "anonymous": false,
      "inputs": [
        {
          "indexed": false,
          "internalType": "address",
          "name": "candidate",
          "type": "address"
        },
        {
          "indexed": false,
          "internalType": "uint256",
          "name": "amount",
          "type": "uint256"
        }
      ],
      "name": "RequestWithdrawal",
      "type": "event"
    },
    {
      "anonymous": false,
      "inputs": [
        {
          "indexed": false,
          "internalType": "string",
          "name": "_additionalNotesl2Info",
          "type": "string"
        }
      ],
      "name": "SetAdditionalNotes",
      "type": "event"
    },
    {
      "anonymous": false,
      "inputs": [
        {
          "indexed": false,
          "internalType": "address",
          "name": "_layer2Manager",
          "type": "address"
        },
        {
          "indexed": false,
          "internalType": "address",
          "name": "_depositManager",
          "type": "address"
        },
        {
          "indexed": false,
          "internalType": "address",
          "name": "_ton",
          "type": "address"
        },
        {
          "indexed": false,
          "internalType": "address",
          "name": "_wton",
          "type": "address"
        }
      ],
      "name": "SetAddresses",
      "type": "event"
    },
    {
      "anonymous": false,
      "inputs": [
        {
          "indexed": false,
          "internalType": "address",
          "name": "previousManager",
          "type": "address"
        },
        {
          "indexed": false,
          "internalType": "address",
          "name": "newManager",
          "type": "address"
        }
      ],
      "name": "TransferredManager",
      "type": "event"
    },
    {
      "inputs": [],
      "name": "acquireManager",
      "outputs": [],
      "stateMutability": "nonpayable",
      "type": "function"
    },
    {
      "inputs": [],
      "name": "checkL1Bridge",
      "outputs": [
        {
          "internalType": "bool",
          "name": "result",
          "type": "bool"
        },
        {
          "internalType": "address",
          "name": "l1Bridge",
          "type": "address"
        },
        {
          "internalType": "address",
          "name": "portal",
          "type": "address"
        },
        {
          "internalType": "address",
          "name": "l2Ton",
          "type": "address"
        },
        {
          "internalType": "uint8",
          "name": "_type",
          "type": "uint8"
        },
        {
          "internalType": "uint8",
          "name": "status",
          "type": "uint8"
        },
        {
          "internalType": "bool",
          "name": "rejectedSeigs",
          "type": "bool"
        },
        {
          "internalType": "bool",
          "name": "rejectedL2Deposit",
          "type": "bool"
        }
      ],
      "stateMutability": "view",
      "type": "function"
    },
    {
      "inputs": [
        {
          "internalType": "uint256",
          "name": "amount",
          "type": "uint256"
        },
        {
          "internalType": "bool",
          "name": "falgTon",
          "type": "bool"
        }
      ],
      "name": "claimByCandidateAddOn",
      "outputs": [],
      "stateMutability": "nonpayable",
      "type": "function"
    },
    {
      "inputs": [
        {
          "internalType": "uint256",
          "name": "amount",
          "type": "uint256"
        }
      ],
      "name": "claimByCandidateAddOn",
      "outputs": [],
      "stateMutability": "nonpayable",
      "type": "function"
    },
    {
      "inputs": [
        {
          "internalType": "address",
          "name": "token",
          "type": "address"
        },
        {
          "internalType": "uint256",
          "name": "amount",
          "type": "uint256"
        }
      ],
      "name": "claimERC20",
      "outputs": [],
      "stateMutability": "nonpayable",
      "type": "function"
    },
    {
      "inputs": [],
      "name": "claimETH",
      "outputs": [],
      "stateMutability": "nonpayable",
      "type": "function"
    },
    {
      "inputs": [
        {
          "internalType": "uint256",
          "name": "amount",
          "type": "uint256"
        }
      ],
      "name": "depositByCandidateAddOn",
      "outputs": [],
      "stateMutability": "nonpayable",
      "type": "function"
    },
    {
      "inputs": [],
      "name": "depositManager",
      "outputs": [
        {
          "internalType": "address",
          "name": "",
          "type": "address"
        }
      ],
      "stateMutability": "view",
      "type": "function"
    },
    {
      "inputs": [
        {
          "internalType": "address",
          "name": "addr",
          "type": "address"
        }
      ],
      "name": "isOperator",
      "outputs": [
        {
          "internalType": "bool",
          "name": "",
          "type": "bool"
        }
      ],
      "stateMutability": "view",
      "type": "function"
    },
    {
      "inputs": [],
      "name": "layer2Manager",
      "outputs": [
        {
          "internalType": "address",
          "name": "",
          "type": "address"
        }
      ],
      "stateMutability": "view",
      "type": "function"
    },
    {
      "inputs": [],
      "name": "manager",
      "outputs": [
        {
          "internalType": "address",
          "name": "",
          "type": "address"
        }
      ],
      "stateMutability": "view",
      "type": "function"
    },
    {
      "inputs": [],
      "name": "owner",
      "outputs": [
        {
          "internalType": "address",
          "name": "",
          "type": "address"
        }
      ],
      "stateMutability": "view",
      "type": "function"
    },
    {
      "inputs": [],
      "name": "processRequest",
      "outputs": [],
      "stateMutability": "nonpayable",
      "type": "function"
    },
    {
      "inputs": [
        {
          "internalType": "uint256",
          "name": "n",
          "type": "uint256"
        }
      ],
      "name": "processRequests",
      "outputs": [],
      "stateMutability": "nonpayable",
      "type": "function"
    },
    {
      "inputs": [],
      "name": "renounceOwnership",
      "outputs": [],
      "stateMutability": "nonpayable",
      "type": "function"
    },
    {
      "inputs": [
        {
          "internalType": "uint256",
          "name": "amount",
          "type": "uint256"
        }
      ],
      "name": "requestWithdrawal",
      "outputs": [],
      "stateMutability": "nonpayable",
      "type": "function"
    },
    {
      "inputs": [],
      "name": "rollupConfig",
      "outputs": [
        {
          "internalType": "address",
          "name": "",
          "type": "address"
        }
      ],
      "stateMutability": "view",
      "type": "function"
    },
    {
      "inputs": [
        {
          "internalType": "address",
          "name": "_layer2Manager",
          "type": "address"
        },
        {
          "internalType": "address",
          "name": "_depositManager",
          "type": "address"
        },
        {
          "internalType": "address",
          "name": "_ton",
          "type": "address"
        },
        {
          "internalType": "address",
          "name": "_wton",
          "type": "address"
        }
      ],
      "name": "setAddresses",
      "outputs": [],
      "stateMutability": "nonpayable",
      "type": "function"
    },
    {
      "inputs": [],
      "name": "ton",
      "outputs": [
        {
          "internalType": "address",
          "name": "",
          "type": "address"
        }
      ],
      "stateMutability": "view",
      "type": "function"
    },
    {
      "inputs": [
        {
          "internalType": "address",
          "name": "newManager",
          "type": "address"
        }
      ],
      "name": "transferManager",
      "outputs": [],
      "stateMutability": "nonpayable",
      "type": "function"
    },
    {
      "inputs": [
        {
          "internalType": "address",
          "name": "newOwner",
          "type": "address"
        }
      ],
      "name": "transferOwnership",
      "outputs": [],
      "stateMutability": "nonpayable",
      "type": "function"
    },
    {
      "inputs": [],
      "name": "wton",
      "outputs": [
        {
          "internalType": "address",
          "name": "",
          "type": "address"
        }
      ],
      "stateMutability": "view",
      "type": "function"
    }
  ],
  "bytecode": "0x6080806040523461005b5760008054336001600160a01b0319821681178355916001600160a01b03909116907f8be0079c531659141344cd1fd0a4f28419497f9722a3daafe3b4186f6b6457e09080a3611ab190816100618239f35b600080fdfe6080604081815260048036101561001557600080fd5b600092833560e01c90816316b5d5bd14611563575080633ddc66ba146113bc578063481c6a75146113935780634905bb3f1461114d5780634a945f8d14611046578063632b03ad14610ef15780636727299914610e375780636c7ac9d814610e0e5780636d70f7ae14610dc3578063715018a614610d695780637f1c490014610b315780638ac90862146108455780638d62d9491461081c5780638da5cb5b146107f45780638fc5668b146106605780639ee679e8146104a5578063a99d362e1461047c578063b35fb5421461041b578063ba0e930a1461035b578063cc48b94714610334578063f2fde38b146102725763fd39beb41461011557600080fd5b3461026e578260031936011261026e57600654916001600160a01b038084169290338414610239578160208260015416855192838092638da5cb5b60e01b82525afa90811561022f5787916101f2575b501633036101bb5750516001600160a01b039190911681523360208201527f36fc11e471af868224a71dcc29384ac6c46dda656aba95f6ee2461587368a98890604090a16001600160a01b031916331760065580f35b6020606492519162461bcd60e51b835282015260126024820152713737ba1031b7b73334b393b99037bbb732b960711b6044820152fd5b90506020813d8211610227575b8161020c6020938361167b565b810103126102235761021d906116b3565b38610165565b8680fd5b3d91506101ff565b84513d89823e3d90fd5b506020606492519162461bcd60e51b8352820152600f60248201526e30b63932b0b23c9036b0b730b3b2b960891b6044820152fd5b8280fd5b503461026e57602036600319011261026e5761028c611588565b906102956115a3565b6001600160a01b039182169283156102e257505082546001600160a01b0319811683178455167f8be0079c531659141344cd1fd0a4f28419497f9722a3daafe3b4186f6b6457e08380a380f35b906020608492519162461bcd60e51b8352820152602660248201527f4f776e61626c653a206e6577206f776e657220697320746865207a65726f206160448201526564647265737360d01b6064820152fd5b503461026e578260031936011261026e575490516001600160a01b03909116815260209150f35b503461026e57602036600319011261026e57610375611588565b6001600160a01b038181169390929061038f8515156115fb565b838654163314801561040e575b6103a590611636565b600654938416918583146104005750516001600160a01b039182168152911660208201527f36fc11e471af868224a71dcc29384ac6c46dda656aba95f6ee2461587368a98890604090a16001600160a01b0319161760065580f35b9051631757e84760e01b8152fd5b506006548416331461039c565b5050346104785736600319011261047557610465610437611588565b82546001600160a01b039190821633148015610468575b61045790611636565b602435916006541690611767565b80f35b506006548216331461044e565b80fd5b5080fd5b50503461047857816003193601126104785760015490516001600160a01b039091168152602090f35b50829034610478576020908160031936011261026e578254813592602492916001600160a01b0390811633148015610653575b6104e190611636565b818160025416885195868092637bae05f160e01b825230888301525afa93841561061257869461061c575b50600354875163da95ebf760e01b81526001600160a01b038616858201908152602081018890529092849284928390036040019183918b91165af19081156106125786916105d9575b50156105a057505092516001600160a01b0390931683526020830152907fd33b726e11d2c5d38e6702b16613df0160a07f7ba5185455ee3c45d0494fab119080604081015b0390a180f35b855162461bcd60e51b81529182015260146024820152736661696c2072657175657374576974686472617760601b604482015260649150fd5b90508181813d831161060b575b6105f0818361167b565b8101031261060757610601906116c7565b87610555565b8580fd5b503d6105e6565b87513d88823e3d90fd5b9093508181813d831161064c575b610634818361167b565b8101031261060757610645906116b3565b928761050c565b503d61062a565b50600654811633146104d8565b5082903461047857816003193601126104785781546001600160a01b0391908216331480156107e7575b61069390611636565b8160025416908451928392637bae05f160e01b8452308385015283602460209687935afa9283156107a4578591859183956107ae575b50604481600354169589519485938492636105226360e11b8452169788888401528160248401525af19081156107a457859161076b575b501561073257507f68eaff3f1619eb57ca79a549c18f4fb9134c0c5ab61f83c4f971b550cf68be58929351908152a180f35b845162461bcd60e51b8152908101839052601360248201527219985a5b081c1c9bd8d95cdcd4995c5d595cdd606a1b6044820152606490fd5b90508381813d831161079d575b610782818361167b565b8101031261079957610793906116c7565b86610700565b8480fd5b503d610778565b86513d87823e3d90fd5b9250935081813d83116107e0575b6107c6818361167b565b8101031261079957836107d986926116b3565b93886106c9565b503d6107bc565b506006548216331461068a565b505034610478578160031936011261047857905490516001600160a01b039091168152602090f35b50503461047857816003193601126104785760055490516001600160a01b039091168152602090f35b50903461026e57602080600319360112610b2d5782359160018060a01b03918260025416825190637bae05f160e01b808352308884015260249284818581865afa908115610b235785929188918c91610ae6575b50906108a7911633146116d4565b838651809481938252308c8301525afa8015610adc5785908990610aa0575b6108d392501633146116d4565b8386541690835195838783816370a0823160e01b96878252308d8301525afa968715610a96578997610a63575b50633b9aca0080820497888110610927575b8a6104658a8a808e5416906006541690611767565b81819998979902918183041490151715610a51578103908111610a3f578460055416928751908152308982015284818481875afa908115610a35579082918b91610a00575b50101561098357865163384d3c5960e01b81528890fd5b91839187938a96979851968793849263f53fe70f60e01b84528c8401525af19081156109f757506109bf575b5050806104653880808080610912565b81813d83116109f0575b6109d3818361167b565b8101031261079957610465936109e983926116c7565b50936109af565b503d6109c9565b513d88823e3d90fd5b809250868092503d8311610a2e575b610a19818361167b565b81010312610a2a578190513861096c565b8980fd5b503d610a0f565b88513d8c823e3d90fd5b50634e487b7160e01b88526011875287fd5b634e487b7160e01b8a5260118952828afd5b9096508381813d8311610a8f575b610a7b818361167b565b81010312610a8b57519538610900565b8880fd5b503d610a71565b85513d8b823e3d90fd5b50508281813d8311610ad5575b610ab7818361167b565b81010312610ad15784610acc6108d3926116b3565b6108c6565b8780fd5b503d610aad565b84513d8a823e3d90fd5b938092508491503d8311610b1c575b610aff818361167b565b81010312610a2a576108a787610b1587946116b3565b9091610899565b503d610af5565b86513d8c823e3d90fd5b8380fd5b50903461026e57602080600319360112610b2d5782359160018060a01b03936024838660025416845192838092637bae05f160e01b825230878301525afa8015610d5f5786908890610d27575b610b8b92501633146116d4565b6006546003546005548451636eb1769f60e11b8152308186019081526001600160a01b03938a169384166020820152909893841694938a9392169087908a9081906040010381845afa988915610d1d5797809988998599989991610ceb575b5010610c65575b50906064929186519889958694638340f54960e01b86523390860152602485015260448401525af1908115610c5c5750610c29578280f35b81813d8311610c55575b610c3d818361167b565b8101031261047857610c4e906116c7565b5038808280f35b503d610c33565b513d85823e3d90fd5b94829195604488518094819363095ea7b360e01b83528a8984015260001960248401525af18015610ce157908794939291610ca6575b949091929394610bf1565b929383813d8311610cda575b610cbc818361167b565b81010312610475578694610cd16064946116c7565b50949392610c9b565b503d610cb2565b86513d84823e3d90fd5b978092508891503d8311610d16575b610d04818361167b565b8101031261026e578888965138610bea565b503d610cfa565b86513d85823e3d90fd5b50508381813d8311610d58575b610d3e818361167b565b810103126102235785610d53610b8b926116b3565b610b7e565b503d610d34565b83513d89823e3d90fd5b8334610475578060031936011261047557610d826115a3565b80546001600160a01b03198116825581906001600160a01b03167f8be0079c531659141344cd1fd0a4f28419497f9722a3daafe3b4186f6b6457e08280a380f35b505034610478576020366003190112610478576020906001600160a01b039081610deb611588565b168015159283610e00575b5050519015158152f35b600654161491508380610df6565b50503461047857816003193601126104785760035490516001600160a01b039091168152602090f35b503461026e578260031936011261026e5782546001600160a01b0390811633148015610ee4575b610e6790611636565b600654164791824710610ed6578480808086865af1610e84611727565b5015610ec8575082518481523360208201529283015260608201527f913c992353dc81b7a8ba31496c484e9b6306bd2f6c509a649a38fdf5e1c953b290608090a180f35b83516307e61b4360e51b8152fd5b835163384d3c5960e01b8152fd5b5060065481163314610e5e565b5091903461047857816003193601126104785760018060a01b03918260025416938360015416948351958692632e0f177560e01b84528301528160246101009788935afa92831561103b5782948391849085918694879688809a610f8c575b505082519915158a52841660208a015283169088015216606086015260ff90811660808601521660a0840152151560c0830152151560e0820152f35b9750975050509650509350508482813d8311611034575b610fad818361167b565b81010312610475575060ff610fc1826116c7565b9181610fcf602083016116b3565b95610fdb8184016116b3565b95610fe8606085016116b3565b91610ff560808601611719565b908261100360a08801611719565b948161101d60e061101660c08c016116c7565b9a016116c7565b9a9c9b919496989a9b939550965092949697610f50565b503d610fa3565b51913d9150823e3d90fd5b50903461026e57608036600319011261026e57611061611588565b906001600160a01b03906024358281169081900361060757604435928084168094036102235760643594818616809603610ad1578116956110a38715156115fb565b6110ae8315156115fb565b6110b98515156115fb565b6110c48615156115fb565b6110cc6115a3565b60025491821661113f576001600160a01b0319918216871760025560038054831684179055805482168517905560058054909116851790558151948552602085015283015260608201527faaa9fbd44f151f33e813cad14b3227af4d0b1ec931d5dd2bc2c7e1f8925043a990608090a180f35b8351636ac1d85960e11b8152fd5b50903461026e578060031936011261026e57813590602490813580151581036106075760018060a01b039283600254169183518093637bae05f160e01b82523089830152818460209687935afa8015610a965786908a9061135b575b6111b692501633146116d4565b15611343578386541690835195838783816370a0823160e01b96878252308d8301525afa968715610a96578997611314575b50633b9aca0080820497888110611213575b5050505050505080610465935416906006541690611767565b81819998979902918183041490151715610a51578103908111610a3f578460055416928751908152308982015284818481875afa908115610a35579082918b916112e3575b50101561126f57865163384d3c5960e01b81528890fd5b91839187938a96979851968793849263f53fe70f60e01b84528c8401525af19081156109f757506112ab575b50508061046538808080806111fa565b81813d83116112dc575b6112bf818361167b565b8101031261079957610465936112d583926116c7565b509361129b565b503d6112b5565b809250868092503d831161130d575b6112fc818361167b565b81010312610a2a5781905138611258565b503d6112f2565b9096508381813d831161133c575b61132c818361167b565b81010312610a8b575195386111e8565b503d611322565b50505061046592508060055416906006541690611767565b50508381813d831161138c575b611372818361167b565b81010312610a8b57856113876111b6926116b3565b6111a9565b503d611368565b50503461047857816003193601126104785760065490516001600160a01b039091168152602090f35b50829034610478576020908160031936011261026e578254813592602492916001600160a01b0390811633148015611556575b6113f890611636565b818160025416885195868092637bae05f160e01b825230888301525afa93841561061257908691829561151b575b50806064849260035416918a51948593849263fb0713b160e01b84528a16898401528a60248401528160448401525af19081156106125786916114e6575b50156114ad57505092516001600160a01b0390931683526020830152907feaf62966b521d0f427a8e2228f64b66814082dae52a3837d1a54a465c91cc2b490806040810161059a565b855162461bcd60e51b81529182015260146024820152736661696c2070726f63657373526571756573747360601b604482015260649150fd5b90508181813d8311611514575b6114fd818361167b565b810103126106075761150e906116c7565b87611464565b503d6114f3565b83809296508193503d831161154f575b611535818361167b565b81010312610607578161154887926116b3565b9490611426565b503d61152b565b50600654811633146113ef565b8490346104785781600319360112610478576002546001600160a01b03168152602090f35b600435906001600160a01b038216820361159e57565b600080fd5b6000546001600160a01b031633036115b757565b606460405162461bcd60e51b815260206004820152602060248201527f4f776e61626c653a2063616c6c6572206973206e6f7420746865206f776e65726044820152fd5b1561160257565b60405162461bcd60e51b815260206004820152600c60248201526b7a65726f206164647265737360a01b6044820152606490fd5b1561163d57565b60405162461bcd60e51b81526020600482015260166024820152753737ba1037b7363ca7bbb732b927b926b0b730b3b2b960511b6044820152606490fd5b90601f8019910116810190811067ffffffffffffffff82111761169d57604052565b634e487b7160e01b600052604160045260246000fd5b51906001600160a01b038216820361159e57565b5190811515820361159e57565b156116db57565b60405162461bcd60e51b81526020600482015260166024820152753737ba1037b7363ca1b0b73234b230ba32a0b23227b760511b6044820152606490fd5b519060ff8216820361159e57565b3d15611762573d9067ffffffffffffffff821161169d5760405191611756601f8201601f19166020018461167b565b82523d6000602084013e565b606090565b6001600160a01b039290831690816117fb578047106117e957600080808084875af1611791611727565b50156117d7577f913c992353dc81b7a8ba31496c484e9b6306bd2f6c509a649a38fdf5e1c953b2936080935b6040519384523360208501521660408301526060820152a1565b6040516307e61b4360e51b8152600490fd5b60405163384d3c5960e01b8152600490fd5b9160409391938051906370a0823160e01b825230600483015260209182816024818a5afa9081156119c557908691600091611995575b501061198557805163a9059cbb60e01b8382019081526001600160a01b0385166024830152604480830188905282529061186c60648261167b565b82519083820182811067ffffffffffffffff82111761169d5784528482527f5361666545524332303a206c6f772d6c6576656c2063616c6c206661696c656482860152516118cc926000918291828c5af16118c5611727565b90896119d0565b8051838115918215611966575b5050905015611910575050917f913c992353dc81b7a8ba31496c484e9b6306bd2f6c509a649a38fdf5e1c953b293916080936117bd565b60849250519062461bcd60e51b82526004820152602a60248201527f5361666545524332303a204552433230206f7065726174696f6e20646964206e6044820152691bdd081cdd58d8d9595960b21b6064820152fd5b838092935001031261159e578261197d91016116c7565b8083386118d9565b5163384d3c5960e01b8152600490fd5b91508382813d83116119be575b6119ac818361167b565b81010312610475575085905138611831565b503d6119a2565b82513d6000823e3d90fd5b91929015611a3257508151156119e4575090565b3b156119ed5790565b60405162461bcd60e51b815260206004820152601d60248201527f416464726573733a2063616c6c20746f206e6f6e2d636f6e74726163740000006044820152606490fd5b825190915015611a455750805190602001fd5b6040519062461bcd60e51b82528160208060048301528251908160248401526000935b828510611a8b575050604492506000838284010152601f80199101168101030190fd5b8481018201518686016044015293810193859350611a6856fea164736f6c6343000813000a",
  "linkReferences": {},
  "deployedLinkReferences": {}
}