{
  "_format": "hh-sol-artifact-1",
  "contractName": "OperatorManagerV1_1",
  "sourceName": "contracts/layer2/OperatorManagerV1_1.sol",
  "abi": [
    {
      "inputs": [],
      "stateMutability": "nonpayable",
      "type": "constructor"
    },
    {
      "inputs": [],
      "name": "AlreadySetError",
      "type": "error"
    },
    {
      "inputs": [],
      "name": "InsufficientBalanceError",
      "type": "error"
    },
    {
      "inputs": [],
      "name": "SameAddressError",
      "type": "error"
    },
    {
      "inputs": [],
      "name": "SameError",
      "type": "error"
    },
    {
      "inputs": [],
      "name": "TransferEthError",
      "type": "error"
    },
    {
      "anonymous": false,
      "inputs": [
        {
          "indexed": false,
          "internalType": "address",
          "name": "operator",
          "type": "address"
        }
      ],
      "name": "AddedOperator",
      "type": "event"
    },
    {
      "anonymous": false,
      "inputs": [
        {
          "indexed": false,
          "internalType": "address",
          "name": "token",
          "type": "address"
        },
        {
          "indexed": false,
          "internalType": "address",
          "name": "caller",
          "type": "address"
        },
        {
          "indexed": false,
          "internalType": "address",
          "name": "to",
          "type": "address"
        },
        {
          "indexed": false,
          "internalType": "uint256",
          "name": "amount",
          "type": "uint256"
        }
      ],
      "name": "Claimed",
      "type": "event"
    },
    {
      "anonymous": false,
      "inputs": [
        {
          "indexed": false,
          "internalType": "address",
          "name": "operator",
          "type": "address"
        }
      ],
      "name": "DeletedOperator",
      "type": "event"
    },
    {
      "anonymous": false,
      "inputs": [
        {
          "indexed": true,
          "internalType": "address",
          "name": "previousOwner",
          "type": "address"
        },
        {
          "indexed": true,
          "internalType": "address",
          "name": "newOwner",
          "type": "address"
        }
      ],
      "name": "OwnershipTransferred",
      "type": "event"
    },
    {
      "anonymous": false,
      "inputs": [
        {
          "indexed": false,
          "internalType": "address",
          "name": "candidate",
          "type": "address"
        }
      ],
      "name": "ProcessRequest",
      "type": "event"
    },
    {
      "anonymous": false,
      "inputs": [
        {
          "indexed": false,
          "internalType": "address",
          "name": "candidate",
          "type": "address"
        },
        {
          "indexed": false,
          "internalType": "uint256",
          "name": "n",
          "type": "uint256"
        }
      ],
      "name": "ProcessRequests",
      "type": "event"
    },
    {
      "anonymous": false,
      "inputs": [
        {
          "indexed": false,
          "internalType": "address",
          "name": "candidate",
          "type": "address"
        },
        {
          "indexed": false,
          "internalType": "uint256",
          "name": "amount",
          "type": "uint256"
        }
      ],
      "name": "RequestWithdrawal",
      "type": "event"
    },
    {
      "anonymous": false,
      "inputs": [
        {
          "indexed": false,
          "internalType": "address",
          "name": "_layer2Manager",
          "type": "address"
        },
        {
          "indexed": false,
          "internalType": "address",
          "name": "_depositManager",
          "type": "address"
        },
        {
          "indexed": false,
          "internalType": "address",
          "name": "_ton",
          "type": "address"
        },
        {
          "indexed": false,
          "internalType": "address",
          "name": "_wton",
          "type": "address"
        }
      ],
      "name": "SetAddresses",
      "type": "event"
    },
    {
      "anonymous": false,
      "inputs": [
        {
          "indexed": false,
          "internalType": "string",
          "name": "_explorer",
          "type": "string"
        }
      ],
      "name": "SetExplorer",
      "type": "event"
    },
    {
      "anonymous": false,
      "inputs": [
        {
          "indexed": false,
          "internalType": "address",
          "name": "previousManager",
          "type": "address"
        },
        {
          "indexed": false,
          "internalType": "address",
          "name": "newManager",
          "type": "address"
        }
      ],
      "name": "TransferredManager",
      "type": "event"
    },
    {
      "inputs": [],
      "name": "acquireManager",
      "outputs": [],
      "stateMutability": "nonpayable",
      "type": "function"
    },
    {
      "inputs": [],
      "name": "checkL1Bridge",
      "outputs": [
        {
          "internalType": "bool",
          "name": "result",
          "type": "bool"
        },
        {
          "internalType": "address",
          "name": "l1Bridge",
          "type": "address"
        },
        {
          "internalType": "address",
          "name": "portal",
          "type": "address"
        },
        {
          "internalType": "address",
          "name": "l2Ton",
          "type": "address"
        },
        {
          "internalType": "uint8",
          "name": "_type",
          "type": "uint8"
        },
        {
          "internalType": "uint8",
          "name": "status",
          "type": "uint8"
        }
      ],
      "stateMutability": "view",
      "type": "function"
    },
    {
      "inputs": [
        {
          "internalType": "uint256",
          "name": "amount",
          "type": "uint256"
        }
      ],
      "name": "claimByCandidateAddOn",
      "outputs": [],
      "stateMutability": "nonpayable",
      "type": "function"
    },
    {
      "inputs": [
        {
          "internalType": "address",
          "name": "token",
          "type": "address"
        },
        {
          "internalType": "uint256",
          "name": "amount",
          "type": "uint256"
        }
      ],
      "name": "claimERC20",
      "outputs": [],
      "stateMutability": "nonpayable",
      "type": "function"
    },
    {
      "inputs": [],
      "name": "claimETH",
      "outputs": [],
      "stateMutability": "nonpayable",
      "type": "function"
    },
    {
      "inputs": [
        {
          "internalType": "uint256",
          "name": "amount",
          "type": "uint256"
        }
      ],
      "name": "depositByCandidateAddOn",
      "outputs": [],
      "stateMutability": "nonpayable",
      "type": "function"
    },
    {
      "inputs": [],
      "name": "depositManager",
      "outputs": [
        {
          "internalType": "address",
          "name": "",
          "type": "address"
        }
      ],
      "stateMutability": "view",
      "type": "function"
    },
    {
      "inputs": [],
      "name": "explorer",
      "outputs": [
        {
          "internalType": "string",
          "name": "",
          "type": "string"
        }
      ],
      "stateMutability": "view",
      "type": "function"
    },
    {
      "inputs": [
        {
          "internalType": "address",
          "name": "addr",
          "type": "address"
        }
      ],
      "name": "isOperator",
      "outputs": [
        {
          "internalType": "bool",
          "name": "",
          "type": "bool"
        }
      ],
      "stateMutability": "view",
      "type": "function"
    },
    {
      "inputs": [],
      "name": "layer2Manager",
      "outputs": [
        {
          "internalType": "address",
          "name": "",
          "type": "address"
        }
      ],
      "stateMutability": "view",
      "type": "function"
    },
    {
      "inputs": [],
      "name": "manager",
      "outputs": [
        {
          "internalType": "address",
          "name": "",
          "type": "address"
        }
      ],
      "stateMutability": "view",
      "type": "function"
    },
    {
      "inputs": [],
      "name": "owner",
      "outputs": [
        {
          "internalType": "address",
          "name": "",
          "type": "address"
        }
      ],
      "stateMutability": "view",
      "type": "function"
    },
    {
      "inputs": [],
      "name": "processRequest",
      "outputs": [],
      "stateMutability": "nonpayable",
      "type": "function"
    },
    {
      "inputs": [
        {
          "internalType": "uint256",
          "name": "n",
          "type": "uint256"
        }
      ],
      "name": "processRequests",
      "outputs": [],
      "stateMutability": "nonpayable",
      "type": "function"
    },
    {
      "inputs": [],
      "name": "renounceOwnership",
      "outputs": [],
      "stateMutability": "nonpayable",
      "type": "function"
    },
    {
      "inputs": [
        {
          "internalType": "uint256",
          "name": "amount",
          "type": "uint256"
        }
      ],
      "name": "requestWithdrawal",
      "outputs": [],
      "stateMutability": "nonpayable",
      "type": "function"
    },
    {
      "inputs": [],
      "name": "rollupConfig",
      "outputs": [
        {
          "internalType": "address",
          "name": "",
          "type": "address"
        }
      ],
      "stateMutability": "view",
      "type": "function"
    },
    {
      "inputs": [
        {
          "internalType": "address",
          "name": "_layer2Manager",
          "type": "address"
        },
        {
          "internalType": "address",
          "name": "_depositManager",
          "type": "address"
        },
        {
          "internalType": "address",
          "name": "_ton",
          "type": "address"
        },
        {
          "internalType": "address",
          "name": "_wton",
          "type": "address"
        }
      ],
      "name": "setAddresses",
      "outputs": [],
      "stateMutability": "nonpayable",
      "type": "function"
    },
    {
      "inputs": [
        {
          "internalType": "string",
          "name": "_explorer",
          "type": "string"
        }
      ],
      "name": "setExplorer",
      "outputs": [],
      "stateMutability": "nonpayable",
      "type": "function"
    },
    {
      "inputs": [],
      "name": "ton",
      "outputs": [
        {
          "internalType": "address",
          "name": "",
          "type": "address"
        }
      ],
      "stateMutability": "view",
      "type": "function"
    },
    {
      "inputs": [
        {
          "internalType": "address",
          "name": "newManager",
          "type": "address"
        }
      ],
      "name": "transferManager",
      "outputs": [],
      "stateMutability": "nonpayable",
      "type": "function"
    },
    {
      "inputs": [
        {
          "internalType": "address",
          "name": "newOwner",
          "type": "address"
        }
      ],
      "name": "transferOwnership",
      "outputs": [],
      "stateMutability": "nonpayable",
      "type": "function"
    },
    {
      "inputs": [],
      "name": "wton",
      "outputs": [
        {
          "internalType": "address",
          "name": "",
          "type": "address"
        }
      ],
      "stateMutability": "view",
      "type": "function"
    }
  ],
  "bytecode": "0x6080806040523461005b5760008054336001600160a01b0319821681178355916001600160a01b03909116907f8be0079c531659141344cd1fd0a4f28419497f9722a3daafe3b4186f6b6457e09080a3611a5590816100618239f35b600080fdfe6080604081815260048036101561001557600080fd5b600092833560e01c90816312629ae3146113ef5750806316b5d5bd146113c65780633ddc66ba1461121f578063481c6a75146111f65780634a945f8d146110eb578063632b03ad14610fb95780636727299914610eff5780636c7ac9d814610ed65780636d70f7ae14610e8b578063715018a614610e315780637f1c490014610bf957806385c255991461090f5780638ac90862146108505780638d62d949146108275780638da5cb5b146107ff5780638fc5668b1461066b5780639ee679e8146104b0578063a99d362e14610487578063b35fb54214610426578063ba0e930a14610366578063cc48b9471461033f578063f2fde38b1461027d5763fd39beb41461012057600080fd5b34610279578260031936011261027957600654916001600160a01b038084169290338414610244578160208260015416855192838092638da5cb5b60e01b82525afa90811561023a5787916101fd575b501633036101c65750516001600160a01b039190911681523360208201527f36fc11e471af868224a71dcc29384ac6c46dda656aba95f6ee2461587368a98890604090a16001600160a01b031916331760065580f35b6020606492519162461bcd60e51b835282015260126024820152713737ba1031b7b73334b393b99037bbb732b960711b6044820152fd5b90506020813d8211610232575b81610217602093836114f6565b8101031261022e5761022890611686565b38610170565b8680fd5b3d915061020a565b84513d89823e3d90fd5b506020606492519162461bcd60e51b8352820152600f60248201526e30b63932b0b23c9036b0b730b3b2b960891b6044820152fd5b8280fd5b503461027957602036600319011261027957610297611577565b906102a0611592565b6001600160a01b039182169283156102ed57505082546001600160a01b0319811683178455167f8be0079c531659141344cd1fd0a4f28419497f9722a3daafe3b4186f6b6457e08380a380f35b906020608492519162461bcd60e51b8352820152602660248201527f4f776e61626c653a206e6577206f776e657220697320746865207a65726f206160448201526564647265737360d01b6064820152fd5b50346102795782600319360112610279575490516001600160a01b03909116815260209150f35b503461027957602036600319011261027957610380611577565b6001600160a01b038181169390929061039a8515156115ea565b8386541633148015610419575b6103b090611625565b6006549384169185831461040b5750516001600160a01b039182168152911660208201527f36fc11e471af868224a71dcc29384ac6c46dda656aba95f6ee2461587368a98890604090a16001600160a01b0319161760065580f35b9051631757e84760e01b8152fd5b50600654841633146103a7565b5050346104835736600319011261048057610470610442611577565b82546001600160a01b039190821633148015610473575b61046290611625565b60243591600654169061172a565b80f35b5060065482163314610459565b80fd5b5080fd5b50503461048357816003193601126104835760015490516001600160a01b039091168152602090f35b508290346104835760209081600319360112610279578254813592602492916001600160a01b039081163314801561065e575b6104ec90611625565b818160025416885195868092637bae05f160e01b825230888301525afa93841561061d578694610627575b50600354875163da95ebf760e01b81526001600160a01b038616858201908152602081018890529092849284928390036040019183918b91165af190811561061d5786916105e4575b50156105ab57505092516001600160a01b0390931683526020830152907fd33b726e11d2c5d38e6702b16613df0160a07f7ba5185455ee3c45d0494fab119080604081015b0390a180f35b855162461bcd60e51b81529182015260146024820152736661696c2072657175657374576974686472617760601b604482015260649150fd5b90508181813d8311610616575b6105fb81836114f6565b810103126106125761060c9061169a565b87610560565b8580fd5b503d6105f1565b87513d88823e3d90fd5b9093508181813d8311610657575b61063f81836114f6565b810103126106125761065090611686565b9287610517565b503d610635565b50600654811633146104e3565b5082903461048357816003193601126104835781546001600160a01b0391908216331480156107f2575b61069e90611625565b8160025416908451928392637bae05f160e01b8452308385015283602460209687935afa9283156107af578591859183956107b9575b50604481600354169589519485938492636105226360e11b8452169788888401528160248401525af19081156107af578591610776575b501561073d57507f68eaff3f1619eb57ca79a549c18f4fb9134c0c5ab61f83c4f971b550cf68be58929351908152a180f35b845162461bcd60e51b8152908101839052601360248201527219985a5b081c1c9bd8d95cdcd4995c5d595cdd606a1b6044820152606490fd5b90508381813d83116107a8575b61078d81836114f6565b810103126107a45761079e9061169a565b8661070b565b8480fd5b503d610783565b86513d87823e3d90fd5b9250935081813d83116107eb575b6107d181836114f6565b810103126107a457836107e48692611686565b93886106d4565b503d6107c7565b5060065482163314610695565b505034610483578160031936011261048357905490516001600160a01b039091168152602090f35b50503461048357816003193601126104835760055490516001600160a01b039091168152602090f35b5034610279576020366003190112610279576002548251637bae05f160e01b815230818401526001600160a01b0392916020908290602490829087165afa938415610906575084936108c0575b506108ae82610470941633146116a7565b8160055416903591600654169061172a565b92506020833d82116108fe575b816108da602093836114f6565b810103126108fa576108ae826108f261047095611686565b94505061089d565b8380fd5b3d91506108cd565b513d86823e3d90fd5b5082903461048357602092836003193601126102795781359367ffffffffffffffff928386116107a457366023870112156107a457858101359384116107a457602490818701913681878a01011161022e57865461098290336001600160a01b0391821614908115610beb575b50611625565b8451978798600793845491610996836114bc565b90818152888101918160019e8f87168c81600014610bd05750600114610b88575b6109c3925003826114f6565b5190206109cf8a61166a565b6109db8a5191826114f6565b8a8152888101908b8983378c8a8d8301015251902014610b7b57506109ff906114bc565b601f8111610b29575b508790601f8811600114610a905787899a81969482969483947f5a51713569d43b1fc098b7927d1c1bf7a9ccc76f16dea3e84a7a8f180e033d089d95610a83575b5050501b906000198560031b1c19161790555b8451958487958652850152848401378181018301869052601f01601f19168101030190a180f35b01013592508c8080610a49565b838952600080516020611a29833981519152929091601f1989168a5b818110610b125750927f5a51713569d43b1fc098b7927d1c1bf7a9ccc76f16dea3e84a7a8f180e033d089a9b928a9795928880989610610af6575b5050505083811b019055610a5c565b60001960f88960031b161c19920101351690558a808080610ae7565b8483018401358655948c0194918801918801610aac565b838952600080516020611a29833981519152601f890160051c810191878a10610b71575b601f0160051c01908a905b828110610b66575050610a08565b8a8155018a90610b58565b9091508190610b4d565b875162d0a6fb60e71b8152fd5b508a8f8f908b8252600080516020611a298339815191525b858310610bb65750506109c393508201016109b7565b8091929450548385880101520191018f908c918593610ba0565b9150506109c39260ff1988168652151560051b8201016109b7565b90506006541633148a61097c565b509034610279576020806003193601126108fa5782359160018060a01b03936024838660025416845192838092637bae05f160e01b825230878301525afa8015610e275786908890610def575b610c5392501633146116a7565b6006546003546005548451636eb1769f60e11b8152308186019081526001600160a01b03938a169384166020820152909893841694938a9392169087908a9081906040010381845afa988915610de55797809988998599989991610db3575b5010610d2d575b50906064929186519889958694638340f54960e01b86523390860152602485015260448401525af1908115610d245750610cf1578280f35b81813d8311610d1d575b610d0581836114f6565b8101031261048357610d169061169a565b5038808280f35b503d610cfb565b513d85823e3d90fd5b94829195604488518094819363095ea7b360e01b83528a8984015260001960248401525af18015610da957908794939291610d6e575b949091929394610cb9565b929383813d8311610da2575b610d8481836114f6565b81010312610480578694610d9960649461169a565b50949392610d63565b503d610d7a565b86513d84823e3d90fd5b978092508891503d8311610dde575b610dcc81836114f6565b81010312610279578888965138610cb2565b503d610dc2565b86513d85823e3d90fd5b50508381813d8311610e20575b610e0681836114f6565b8101031261022e5785610e1b610c5392611686565b610c46565b503d610dfc565b83513d89823e3d90fd5b8334610480578060031936011261048057610e4a611592565b80546001600160a01b03198116825581906001600160a01b03167f8be0079c531659141344cd1fd0a4f28419497f9722a3daafe3b4186f6b6457e08280a380f35b505034610483576020366003190112610483576020906001600160a01b039081610eb3611577565b168015159283610ec8575b5050519015158152f35b600654161491508380610ebe565b50503461048357816003193601126104835760035490516001600160a01b039091168152602090f35b503461027957826003193601126102795782546001600160a01b0390811633148015610fac575b610f2f90611625565b600654164791824710610f9e578480808086865af1610f4c6116fa565b5015610f90575082518481523360208201529283015260608201527f913c992353dc81b7a8ba31496c484e9b6306bd2f6c509a649a38fdf5e1c953b290608090a180f35b83516307e61b4360e51b8152fd5b835163384d3c5960e01b8152fd5b5060065481163314610f26565b5091346104805780600319360112610480576002546001548351632e0f177560e01b81526001600160a01b03918216958101959095529060c0908590602490829085165afa9384156110e15782938384908593868099611048575b84518915158152838816602082015284881681870152868816606082015260ff89811660808301528b1660a082015260c090f35b9596509650505094505060c0833d82116110d9575b8161106a60c093836114f6565b81010312610480575060c09260ff80926110838561169a565b9061109060208701611686565b9561109c858201611686565b94826110aa60608401611686565b816110c360a06110bc608088016116ec565b96016116ec565b9b50959993985093969395509093508390611014565b3d915061105d565b83513d84823e3d90fd5b50903461027957608036600319011261027957611106611577565b906001600160a01b039060243582811690819003610612576044359280841680940361022e57606435948186168096036111f2578116956111488715156115ea565b6111538315156115ea565b61115e8515156115ea565b6111698615156115ea565b611171611592565b6002549182166111e4576001600160a01b0319918216871760025560038054831684179055805482168517905560058054909116851790558151948552602085015283015260608201527faaa9fbd44f151f33e813cad14b3227af4d0b1ec931d5dd2bc2c7e1f8925043a990608090a180f35b8351636ac1d85960e11b8152fd5b8780fd5b50503461048357816003193601126104835760065490516001600160a01b039091168152602090f35b508290346104835760209081600319360112610279578254813592602492916001600160a01b03908116331480156113b9575b61125b90611625565b818160025416885195868092637bae05f160e01b825230888301525afa93841561061d57908691829561137e575b50806064849260035416918a51948593849263fb0713b160e01b84528a16898401528a60248401528160448401525af190811561061d578691611349575b501561131057505092516001600160a01b0390931683526020830152907feaf62966b521d0f427a8e2228f64b66814082dae52a3837d1a54a465c91cc2b49080604081016105a5565b855162461bcd60e51b81529182015260146024820152736661696c2070726f63657373526571756573747360601b604482015260649150fd5b90508181813d8311611377575b61136081836114f6565b81010312610612576113719061169a565b876112c7565b503d611356565b83809296508193503d83116113b2575b61139881836114f6565b8101031261061257816113ab8792611686565b9490611289565b503d61138e565b5060065481163314611252565b50503461048357816003193601126104835760025490516001600160a01b039091168152602090f35b849084346102795782600319360112610279578260075461140f816114bc565b808552916001918083169081156114945750600114611449575b50505061143b826114459403836114f6565b519182918261152e565b0390f35b945060078552600080516020611a298339815191525b82861061147c5750505061143b8260206114459582010194611429565b8054602087870181019190915290950194810161145f565b61144597508693506020925061143b94915060ff191682840152151560051b82010194611429565b90600182811c921680156114ec575b60208310146114d657565b634e487b7160e01b600052602260045260246000fd5b91607f16916114cb565b90601f8019910116810190811067ffffffffffffffff82111761151857604052565b634e487b7160e01b600052604160045260246000fd5b6020808252825181830181905290939260005b82811061156357505060409293506000838284010152601f8019910116010190565b818101860151848201604001528501611541565b600435906001600160a01b038216820361158d57565b600080fd5b6000546001600160a01b031633036115a657565b606460405162461bcd60e51b815260206004820152602060248201527f4f776e61626c653a2063616c6c6572206973206e6f7420746865206f776e65726044820152fd5b156115f157565b60405162461bcd60e51b815260206004820152600c60248201526b7a65726f206164647265737360a01b6044820152606490fd5b1561162c57565b60405162461bcd60e51b81526020600482015260166024820152753737ba1037b7363ca7bbb732b927b926b0b730b3b2b960511b6044820152606490fd5b67ffffffffffffffff811161151857601f01601f191660200190565b51906001600160a01b038216820361158d57565b5190811515820361158d57565b156116ae57565b60405162461bcd60e51b81526020600482015260166024820152753737ba1037b7363ca1b0b73234b230ba32a0b23227b760511b6044820152606490fd5b519060ff8216820361158d57565b3d15611725573d9061170b8261166a565b9161171960405193846114f6565b82523d6000602084013e565b606090565b6001600160a01b039290831690816117be578047106117ac57600080808084875af16117546116fa565b501561179a577f913c992353dc81b7a8ba31496c484e9b6306bd2f6c509a649a38fdf5e1c953b2936080935b6040519384523360208501521660408301526060820152a1565b6040516307e61b4360e51b8152600490fd5b60405163384d3c5960e01b8152600490fd5b9160409391938051906370a0823160e01b825230600483015260209182816024818a5afa90811561198857908691600091611958575b501061194857805163a9059cbb60e01b8382019081526001600160a01b0385166024830152604480830188905282529061182f6064826114f6565b82519083820182811067ffffffffffffffff8211176115185784528482527f5361666545524332303a206c6f772d6c6576656c2063616c6c206661696c6564828601525161188f926000918291828c5af16118886116fa565b9089611993565b8051838115918215611929575b50509050156118d3575050917f913c992353dc81b7a8ba31496c484e9b6306bd2f6c509a649a38fdf5e1c953b29391608093611780565b60849250519062461bcd60e51b82526004820152602a60248201527f5361666545524332303a204552433230206f7065726174696f6e20646964206e6044820152691bdd081cdd58d8d9595960b21b6064820152fd5b838092935001031261158d5782611940910161169a565b80833861189c565b5163384d3c5960e01b8152600490fd5b91508382813d8311611981575b61196f81836114f6565b810103126104805750859051386117f4565b503d611965565b82513d6000823e3d90fd5b919290156119f557508151156119a7575090565b3b156119b05790565b60405162461bcd60e51b815260206004820152601d60248201527f416464726573733a2063616c6c20746f206e6f6e2d636f6e74726163740000006044820152606490fd5b825190915015611a085750805190602001fd5b60405162461bcd60e51b8152908190611a24906004830161152e565b0390fdfea66cc928b5edb82af9bd49922954155ab7b0942694bea4ce44661d9a8736c688a164736f6c6343000813000a",
  "linkReferences": {},
  "deployedLinkReferences": {}
}