{
  "_format": "hh-sol-artifact-1",
  "contractName": "L2PowerTonProxy",
  "sourceName": "contracts/L2/powerton/L2PowerTonProxy.sol",
  "abi": [
    {
      "anonymous": false,
      "inputs": [
        {
          "indexed": true,
          "internalType": "bytes32",
          "name": "role",
          "type": "bytes32"
        },
        {
          "indexed": true,
          "internalType": "bytes32",
          "name": "previousAdminRole",
          "type": "bytes32"
        },
        {
          "indexed": true,
          "internalType": "bytes32",
          "name": "newAdminRole",
          "type": "bytes32"
        }
      ],
      "name": "RoleAdminChanged",
      "type": "event"
    },
    {
      "anonymous": false,
      "inputs": [
        {
          "indexed": true,
          "internalType": "bytes32",
          "name": "role",
          "type": "bytes32"
        },
        {
          "indexed": true,
          "internalType": "address",
          "name": "account",
          "type": "address"
        },
        {
          "indexed": true,
          "internalType": "address",
          "name": "sender",
          "type": "address"
        }
      ],
      "name": "RoleGranted",
      "type": "event"
    },
    {
      "anonymous": false,
      "inputs": [
        {
          "indexed": true,
          "internalType": "bytes32",
          "name": "role",
          "type": "bytes32"
        },
        {
          "indexed": true,
          "internalType": "address",
          "name": "account",
          "type": "address"
        },
        {
          "indexed": true,
          "internalType": "address",
          "name": "sender",
          "type": "address"
        }
      ],
      "name": "RoleRevoked",
      "type": "event"
    },
    {
      "anonymous": false,
      "inputs": [
        {
          "indexed": true,
          "internalType": "address",
          "name": "impl",
          "type": "address"
        },
        {
          "indexed": false,
          "internalType": "bool",
          "name": "alive",
          "type": "bool"
        }
      ],
      "name": "SetAliveImplementation",
      "type": "event"
    },
    {
      "anonymous": false,
      "inputs": [
        {
          "indexed": true,
          "internalType": "bytes4",
          "name": "selector",
          "type": "bytes4"
        },
        {
          "indexed": true,
          "internalType": "address",
          "name": "impl",
          "type": "address"
        }
      ],
      "name": "SetSelectorImplementation",
      "type": "event"
    },
    {
      "anonymous": false,
      "inputs": [
        {
          "indexed": true,
          "internalType": "address",
          "name": "implementation",
          "type": "address"
        }
      ],
      "name": "Upgraded",
      "type": "event"
    },
    {
      "stateMutability": "payable",
      "type": "fallback"
    },
    {
      "inputs": [],
      "name": "DEFAULT_ADMIN_ROLE",
      "outputs": [
        {
          "internalType": "bytes32",
          "name": "",
          "type": "bytes32"
        }
      ],
      "stateMutability": "view",
      "type": "function"
    },
    {
      "inputs": [],
      "name": "MINTER_ROLE",
      "outputs": [
        {
          "internalType": "bytes32",
          "name": "",
          "type": "bytes32"
        }
      ],
      "stateMutability": "view",
      "type": "function"
    },
    {
      "inputs": [
        {
          "internalType": "address",
          "name": "account",
          "type": "address"
        }
      ],
      "name": "addAdmin",
      "outputs": [],
      "stateMutability": "nonpayable",
      "type": "function"
    },
    {
      "inputs": [
        {
          "internalType": "address",
          "name": "",
          "type": "address"
        }
      ],
      "name": "aliveImplementation",
      "outputs": [
        {
          "internalType": "bool",
          "name": "",
          "type": "bool"
        }
      ],
      "stateMutability": "view",
      "type": "function"
    },
    {
      "inputs": [
        {
          "internalType": "bytes32",
          "name": "role",
          "type": "bytes32"
        }
      ],
      "name": "getRoleAdmin",
      "outputs": [
        {
          "internalType": "bytes32",
          "name": "",
          "type": "bytes32"
        }
      ],
      "stateMutability": "view",
      "type": "function"
    },
    {
      "inputs": [
        {
          "internalType": "bytes4",
          "name": "_selector",
          "type": "bytes4"
        }
      ],
      "name": "getSelectorImplementation2",
      "outputs": [
        {
          "internalType": "address",
          "name": "impl",
          "type": "address"
        }
      ],
      "stateMutability": "view",
      "type": "function"
    },
    {
      "inputs": [
        {
          "internalType": "bytes32",
          "name": "role",
          "type": "bytes32"
        },
        {
          "internalType": "address",
          "name": "account",
          "type": "address"
        }
      ],
      "name": "grantRole",
      "outputs": [],
      "stateMutability": "nonpayable",
      "type": "function"
    },
    {
      "inputs": [
        {
          "internalType": "bytes32",
          "name": "role",
          "type": "bytes32"
        },
        {
          "internalType": "address",
          "name": "account",
          "type": "address"
        }
      ],
      "name": "hasRole",
      "outputs": [
        {
          "internalType": "bool",
          "name": "",
          "type": "bool"
        }
      ],
      "stateMutability": "view",
      "type": "function"
    },
    {
      "inputs": [],
      "name": "implementation",
      "outputs": [
        {
          "internalType": "address",
          "name": "",
          "type": "address"
        }
      ],
      "stateMutability": "view",
      "type": "function"
    },
    {
      "inputs": [
        {
          "internalType": "uint256",
          "name": "_index",
          "type": "uint256"
        }
      ],
      "name": "implementation2",
      "outputs": [
        {
          "internalType": "address",
          "name": "",
          "type": "address"
        }
      ],
      "stateMutability": "view",
      "type": "function"
    },
    {
      "inputs": [
        {
          "internalType": "address",
          "name": "account",
          "type": "address"
        }
      ],
      "name": "isAdmin",
      "outputs": [
        {
          "internalType": "bool",
          "name": "",
          "type": "bool"
        }
      ],
      "stateMutability": "view",
      "type": "function"
    },
    {
      "inputs": [],
      "name": "isOwner",
      "outputs": [
        {
          "internalType": "bool",
          "name": "",
          "type": "bool"
        }
      ],
      "stateMutability": "view",
      "type": "function"
    },
    {
      "inputs": [],
      "name": "l2DividendPoolForStos",
      "outputs": [
        {
          "internalType": "address",
          "name": "",
          "type": "address"
        }
      ],
      "stateMutability": "view",
      "type": "function"
    },
    {
      "inputs": [],
      "name": "pauseProxy",
      "outputs": [
        {
          "internalType": "bool",
          "name": "",
          "type": "bool"
        }
      ],
      "stateMutability": "view",
      "type": "function"
    },
    {
      "inputs": [
        {
          "internalType": "uint256",
          "name": "",
          "type": "uint256"
        }
      ],
      "name": "proxyImplementation",
      "outputs": [
        {
          "internalType": "address",
          "name": "",
          "type": "address"
        }
      ],
      "stateMutability": "view",
      "type": "function"
    },
    {
      "inputs": [
        {
          "internalType": "address",
          "name": "account",
          "type": "address"
        }
      ],
      "name": "removeAdmin",
      "outputs": [],
      "stateMutability": "nonpayable",
      "type": "function"
    },
    {
      "inputs": [],
      "name": "renounceOwnership",
      "outputs": [],
      "stateMutability": "nonpayable",
      "type": "function"
    },
    {
      "inputs": [
        {
          "internalType": "bytes32",
          "name": "role",
          "type": "bytes32"
        },
        {
          "internalType": "address",
          "name": "account",
          "type": "address"
        }
      ],
      "name": "renounceRole",
      "outputs": [],
      "stateMutability": "nonpayable",
      "type": "function"
    },
    {
      "inputs": [
        {
          "internalType": "bytes32",
          "name": "role",
          "type": "bytes32"
        },
        {
          "internalType": "address",
          "name": "account",
          "type": "address"
        }
      ],
      "name": "revokeRole",
      "outputs": [],
      "stateMutability": "nonpayable",
      "type": "function"
    },
    {
      "inputs": [
        {
          "internalType": "bytes4",
          "name": "",
          "type": "bytes4"
        }
      ],
      "name": "selectorImplementation",
      "outputs": [
        {
          "internalType": "address",
          "name": "",
          "type": "address"
        }
      ],
      "stateMutability": "view",
      "type": "function"
    },
    {
      "inputs": [
        {
          "internalType": "address",
          "name": "newImplementation",
          "type": "address"
        },
        {
          "internalType": "bool",
          "name": "_alive",
          "type": "bool"
        }
      ],
      "name": "setAliveImplementation2",
      "outputs": [],
      "stateMutability": "nonpayable",
      "type": "function"
    },
    {
      "inputs": [
        {
          "internalType": "address",
          "name": "newImplementation",
          "type": "address"
        },
        {
          "internalType": "uint256",
          "name": "_index",
          "type": "uint256"
        },
        {
          "internalType": "bool",
          "name": "_alive",
          "type": "bool"
        }
      ],
      "name": "setImplementation2",
      "outputs": [],
      "stateMutability": "nonpayable",
      "type": "function"
    },
    {
      "inputs": [
        {
          "internalType": "bool",
          "name": "_pause",
          "type": "bool"
        }
      ],
      "name": "setProxyPause",
      "outputs": [],
      "stateMutability": "nonpayable",
      "type": "function"
    },
    {
      "inputs": [
        {
          "internalType": "bytes4[]",
          "name": "_selectors",
          "type": "bytes4[]"
        },
        {
          "internalType": "address",
          "name": "_imp",
          "type": "address"
        }
      ],
      "name": "setSelectorImplementations2",
      "outputs": [],
      "stateMutability": "nonpayable",
      "type": "function"
    },
    {
      "inputs": [
        {
          "internalType": "bytes4",
          "name": "interfaceId",
          "type": "bytes4"
        }
      ],
      "name": "supportsInterface",
      "outputs": [
        {
          "internalType": "bool",
          "name": "",
          "type": "bool"
        }
      ],
      "stateMutability": "view",
      "type": "function"
    },
    {
      "inputs": [
        {
          "internalType": "address",
          "name": "newAdmin",
          "type": "address"
        }
      ],
      "name": "transferAdmin",
      "outputs": [],
      "stateMutability": "nonpayable",
      "type": "function"
    },
    {
      "inputs": [
        {
          "internalType": "address",
          "name": "newAdmin",
          "type": "address"
        }
      ],
      "name": "transferOwnership",
      "outputs": [],
      "stateMutability": "nonpayable",
      "type": "function"
    },
    {
      "inputs": [],
      "name": "universalStos",
      "outputs": [
        {
          "internalType": "address",
          "name": "",
          "type": "address"
        }
      ],
      "stateMutability": "view",
      "type": "function"
    },
    {
      "inputs": [
        {
          "internalType": "address",
          "name": "impl",
          "type": "address"
        }
      ],
      "name": "upgradeTo",
      "outputs": [],
      "stateMutability": "nonpayable",
      "type": "function"
    },
    {
      "stateMutability": "payable",
      "type": "receive"
    }
  ],
  "bytecode": "0x608060405234801561001057600080fd5b5061001c600033610021565b6100d1565b61002b828261002f565b5050565b60008281526005602090815260408083206001600160a01b038516845290915290205460ff1661002b5760008281526005602090815260408083206001600160a01b03851684529091529020805460ff1916600117905561008d3390565b6001600160a01b0316816001600160a01b0316837f2f8788117e7eff1d82e926ec794901d17c78024a50270940304540a733656f0d60405160405180910390a45050565b6118f1806100e06000396000f3fe6080604052600436106101c65760003560e01c8063715018a6116100f75780638f32d59b11610095578063c83d3c4711610064578063c83d3c47146105d2578063d5391393146105f2578063d547741f14610626578063f2fde38b14610646576101cd565b80638f32d59b146104fd57806391d1485414610541578063a217fddf14610587578063b911135f1461059c576101cd565b80637cb00d25116100d15780637cb00d251461047d5780637cd5f6631461049d5780638b8f4a65146104bd5780638d4fdb40146104dd576101cd565b8063715018a614610428578063726befc51461043d57806375829def1461045d576101cd565b80634a5df50f116101645780635c60da1b1161013e5780635c60da1b146103885780635cc797d8146103ce57806363a8fd89146103ee5780637048027514610408576101cd565b80634a5df50f146102ea57806350d2a2761461030a578063550d01a314610358576101cd565b806324d7806c116101a057806324d7806c1461026a5780632f2ff15d1461028a57806336568abe146102aa5780633659cfe6146102ca576101cd565b806301ffc9a7146101d75780631785f53c1461020c578063248a9ca31461022c576101cd565b366101cd57005b6101d5610666565b005b3480156101e357600080fd5b506101f76101f23660046115a3565b610714565b60405190151581526020015b60405180910390f35b34801561021857600080fd5b506101d56102273660046115e4565b610725565b34801561023857600080fd5b5061025c6102473660046115ff565b60009081526005602052604090206001015490565b604051908152602001610203565b34801561027657600080fd5b506101f76102853660046115e4565b610781565b34801561029657600080fd5b506101d56102a5366004611618565b6107c1565b3480156102b657600080fd5b506101d56102c5366004611618565b6107e6565b3480156102d657600080fd5b506101d56102e53660046115e4565b610872565b3480156102f657600080fd5b506101d5610305366004611644565b6109cb565b34801561031657600080fd5b506103406103253660046115a3565b6003602052600090815260409020546001600160a01b031681565b6040516001600160a01b039091168152602001610203565b34801561036457600080fd5b506101f76103733660046115e4565b60026020526000908152604090205460ff1681565b34801561039457600080fd5b506000805260016020527fa6eef7e35abe7026729641147f7915573c7e97b47efa546f5f6e3230263bcb49546001600160a01b0316610340565b3480156103da57600080fd5b506101d56103e93660046116d8565b610c78565b3480156103fa57600080fd5b506000546101f79060ff1681565b34801561041457600080fd5b506101d56104233660046115e4565b610cd0565b34801561043457600080fd5b506101d5610d29565b34801561044957600080fd5b50600654610340906001600160a01b031681565b34801561046957600080fd5b506101d56104783660046115e4565b610d84565b34801561048957600080fd5b506101d5610498366004611702565b610e96565b3480156104a957600080fd5b506101d56104b836600461171d565b610ef7565b3480156104c957600080fd5b506103406104d83660046115ff565b610f50565b3480156104e957600080fd5b506103406104f83660046115a3565b610f6d565b34801561050957600080fd5b503360009081527f05b8ccbb9d4d8fb16ea74ce3c29a41f1b461fbdaff4714a0d9a8eb05499746bc602052604090205460ff166101f7565b34801561054d57600080fd5b506101f761055c366004611618565b60009182526005602090815260408084206001600160a01b0393909316845291905290205460ff1690565b34801561059357600080fd5b5061025c600081565b3480156105a857600080fd5b506103406105b73660046115ff565b6001602052600090815260409020546001600160a01b031681565b3480156105de57600080fd5b50600754610340906001600160a01b031681565b3480156105fe57600080fd5b5061025c7ff0887ba65ee2024ea881d91b74c2450ef19e1557f03bed3ea9f16b037cbe2dc981565b34801561063257600080fd5b506101d5610641366004611618565b611069565b34801561065257600080fd5b506101d56106613660046115e4565b61108e565b600061067d6000356001600160e01b031916610f6d565b90506001600160a01b0381161580159061069a575060005460ff16155b6106eb5760405162461bcd60e51b815260206004820152601d60248201527f50726f78793a20696d706c204f522070726f78792069732066616c736500000060448201526064015b60405180910390fd5b3660008037600080366000845af43d6000803e80801561070a573d6000f35b3d6000fd5b505050565b600061071f826110e5565b92915050565b61072e33610781565b6107735760405162461bcd60e51b815260206004820152602260248201526000805160206118c583398151915260448201526134b760f11b60648201526084016106e2565b61077e6000826107e6565b50565b6001600160a01b03811660009081527f05b8ccbb9d4d8fb16ea74ce3c29a41f1b461fbdaff4714a0d9a8eb05499746bc602052604081205460ff1661071f565b6000828152600560205260409020600101546107dc8161110a565b61070f8383611114565b6001600160a01b03811633146108645760405162461bcd60e51b815260206004820152602f60248201527f416363657373436f6e74726f6c3a2063616e206f6e6c792072656e6f756e636560448201527f20726f6c657320666f722073656c66000000000000000000000000000000000060648201526084016106e2565b61086e82826111b6565b5050565b61087b33610781565b6108c05760405162461bcd60e51b815260206004820152602260248201526000805160206118c583398151915260448201526134b760f11b60648201526084016106e2565b6001600160a01b0381166109165760405162461bcd60e51b815260206004820152600d60248201527f696e707574206973207a65726f0000000000000000000000000000000000000060448201526064016106e2565b6000805260016020527fa6eef7e35abe7026729641147f7915573c7e97b47efa546f5f6e3230263bcb49546001600160a01b038281169116036109875760405162461bcd60e51b815260206004820152600960248201526839b0b6b29030b2323960b91b60448201526064016106e2565b6109948160006001611239565b6040516001600160a01b038216907fbc7cd75a20ee27fd9adebab32041f755214dbc6bffa90cc0225b39da2e5c2d3b90600090a250565b6109d433610781565b610a195760405162461bcd60e51b815260206004820152602260248201526000805160206118c583398151915260448201526134b760f11b60648201526084016106e2565b81610a665760405162461bcd60e51b815260206004820181905260248201527f50726f78793a205f73656c6563746f727327732073697a65206973207a65726f60448201526064016106e2565b6001600160a01b03811660009081526002602052604090205460ff16610ace5760405162461bcd60e51b815260206004820152601860248201527f50726f78793a205f696d70206973206e6f7420616c697665000000000000000060448201526064016106e2565b60005b82811015610c7257816001600160a01b031660036000868685818110610af957610af9611750565b9050602002016020810190610b0e91906115a3565b6001600160e01b03191681526020810191909152604001600020546001600160a01b031603610b7f5760405162461bcd60e51b815260206004820152601d60248201527f4c69717569646974795661756c7450726f78793a2073616d6520696d7000000060448201526064016106e2565b8160036000868685818110610b9657610b96611750565b9050602002016020810190610bab91906115a3565b6001600160e01b03191681526020810191909152604001600020805473ffffffffffffffffffffffffffffffffffffffff19166001600160a01b039283161790558216848483818110610c0057610c00611750565b9050602002016020810190610c1591906115a3565b7bffffffffffffffffffffffffffffffffffffffffffffffffffffffff19167f14ebc1c32aa68f4d766e89f3e546cee249f7df25183fc10ab1568d91c2ce9b7b60405160405180910390a380610c6a8161177c565b915050610ad1565b50505050565b610c8133610781565b610cc65760405162461bcd60e51b815260206004820152602260248201526000805160206118c583398151915260448201526134b760f11b60648201526084016106e2565b61086e82826112d1565b610cd933610781565b610d1e5760405162461bcd60e51b815260206004820152602260248201526000805160206118c583398151915260448201526134b760f11b60648201526084016106e2565b61077e6000826107c1565b610d3233610781565b610d775760405162461bcd60e51b815260206004820152602260248201526000805160206118c583398151915260448201526134b760f11b60648201526084016106e2565b610d826000336107e6565b565b610d8d33610781565b610dd25760405162461bcd60e51b815260206004820152602260248201526000805160206118c583398151915260448201526134b760f11b60648201526084016106e2565b6001600160a01b038116610e285760405162461bcd60e51b815260206004820152601860248201527f41636365737369626c653a207a65726f2061646472657373000000000000000060448201526064016106e2565b6001600160a01b0381163303610e805760405162461bcd60e51b815260206004820152601660248201527f41636365737369626c653a2073616d652061646d696e0000000000000000000060448201526064016106e2565b610e8b6000826107c1565b61077e6000336107e6565b610e9f33610781565b610ee45760405162461bcd60e51b815260206004820152602260248201526000805160206118c583398151915260448201526134b760f11b60648201526084016106e2565b6000805460ff1916911515919091179055565b610f0033610781565b610f455760405162461bcd60e51b815260206004820152602260248201526000805160206118c583398151915260448201526134b760f11b60648201526084016106e2565b61070f838383611239565b6000818152600160205260408120546001600160a01b031661071f565b6001600160e01b031981166000908152600360205260408120546001600160a01b0316610fcd5750506000805260016020527fa6eef7e35abe7026729641147f7915573c7e97b47efa546f5f6e3230263bcb49546001600160a01b031690565b6001600160e01b031982166000908152600360209081526040808320546001600160a01b03168352600290915290205460ff161561102b57506001600160e01b0319166000908152600360205260409020546001600160a01b031690565b50506000805260016020527fa6eef7e35abe7026729641147f7915573c7e97b47efa546f5f6e3230263bcb49546001600160a01b031690565b919050565b6000828152600560205260409020600101546110848161110a565b61070f83836111b6565b61109733610781565b6110dc5760405162461bcd60e51b815260206004820152602260248201526000805160206118c583398151915260448201526134b760f11b60648201526084016106e2565b61077e81610d84565b60006001600160e01b03198216637965db0b60e01b148061071f575061071f82611330565b61077e813361136c565b60008281526005602090815260408083206001600160a01b038516845290915290205460ff1661086e5760008281526005602090815260408083206001600160a01b03851684529091529020805460ff191660011790556111723390565b6001600160a01b0316816001600160a01b0316837f2f8788117e7eff1d82e926ec794901d17c78024a50270940304540a733656f0d60405160405180910390a45050565b60008281526005602090815260408083206001600160a01b038516845290915290205460ff161561086e5760008281526005602090815260408083206001600160a01b0385168085529252808320805460ff1916905551339285917ff6391f5c32d9c69d2a47ea670b442974b53935d1edc7fd64eb21e047a839171b9190a45050565b6001600160a01b0383163b6112905760405162461bcd60e51b815260206004820152601b60248201527f50726f78793a206e6f7420636f6e74726163742061646472657373000000000060448201526064016106e2565b80156112cb576000828152600160205260409020805473ffffffffffffffffffffffffffffffffffffffff19166001600160a01b0385161790555b61070f83825b6001600160a01b038216600081815260026020908152604091829020805460ff191685151590811790915591519182527f72558d9bfba4210f9ef095c782589484151f6d90f7a81bb3cb9b33efc695d324910160405180910390a25050565b60006301ffc9a760e01b6001600160e01b03198316148061071f5750506001600160e01b03191660009081526004602052604090205460ff1690565b60008281526005602090815260408083206001600160a01b038516845290915290205460ff1661086e5761139f816113e1565b6113aa8360206113f3565b6040516020016113bb9291906117b9565b60408051601f198184030181529082905262461bcd60e51b82526106e29160040161183a565b606061071f6001600160a01b03831660145b6060600061140283600261186d565b61140d906002611884565b67ffffffffffffffff81111561142557611425611897565b6040519080825280601f01601f19166020018201604052801561144f576020820181803683370190505b509050600360fc1b8160008151811061146a5761146a611750565b60200101906001600160f81b031916908160001a905350600f60fb1b8160018151811061149957611499611750565b60200101906001600160f81b031916908160001a90535060006114bd84600261186d565b6114c8906001611884565b90505b600181111561154d577f303132333435363738396162636465660000000000000000000000000000000085600f166010811061150957611509611750565b1a60f81b82828151811061151f5761151f611750565b60200101906001600160f81b031916908160001a90535060049490941c93611546816118ad565b90506114cb565b50831561159c5760405162461bcd60e51b815260206004820181905260248201527f537472696e67733a20686578206c656e67746820696e73756666696369656e7460448201526064016106e2565b9392505050565b6000602082840312156115b557600080fd5b81356001600160e01b03198116811461159c57600080fd5b80356001600160a01b038116811461106457600080fd5b6000602082840312156115f657600080fd5b61159c826115cd565b60006020828403121561161157600080fd5b5035919050565b6000806040838503121561162b57600080fd5b8235915061163b602084016115cd565b90509250929050565b60008060006040848603121561165957600080fd5b833567ffffffffffffffff8082111561167157600080fd5b818601915086601f83011261168557600080fd5b81358181111561169457600080fd5b8760208260051b85010111156116a957600080fd5b6020928301955093506116bf91860190506115cd565b90509250925092565b8035801515811461106457600080fd5b600080604083850312156116eb57600080fd5b6116f4836115cd565b915061163b602084016116c8565b60006020828403121561171457600080fd5b61159c826116c8565b60008060006060848603121561173257600080fd5b61173b846115cd565b9250602084013591506116bf604085016116c8565b634e487b7160e01b600052603260045260246000fd5b634e487b7160e01b600052601160045260246000fd5b60006001820161178e5761178e611766565b5060010190565b60005b838110156117b0578181015183820152602001611798565b50506000910152565b7f416363657373436f6e74726f6c3a206163636f756e74200000000000000000008152600083516117f1816017850160208801611795565b7f206973206d697373696e6720726f6c6520000000000000000000000000000000601791840191820152835161182e816028840160208801611795565b01602801949350505050565b6020815260008251806020840152611859816040850160208701611795565b601f01601f19169190910160400192915050565b808202811582820484141761071f5761071f611766565b8082018082111561071f5761071f611766565b634e487b7160e01b600052604160045260246000fd5b6000816118bc576118bc611766565b50600019019056fe41636365737369626c653a2043616c6c6572206973206e6f7420616e2061646da164736f6c6343000813000a",
  "linkReferences": {},
  "deployedLinkReferences": {}
}