{
  "_format": "hh-sol-artifact-1",
  "contractName": "DepositManager",
  "sourceName": "contracts/stake/managers/DepositManager.sol",
  "abi": [
    {
      "anonymous": false,
      "inputs": [
        {
          "indexed": true,
          "internalType": "address",
          "name": "layer2",
          "type": "address"
        },
        {
          "indexed": false,
          "internalType": "address",
          "name": "depositor",
          "type": "address"
        },
        {
          "indexed": false,
          "internalType": "uint256",
          "name": "amount",
          "type": "uint256"
        }
      ],
      "name": "Deposited",
      "type": "event"
    },
    {
      "anonymous": false,
      "inputs": [
        {
          "indexed": true,
          "internalType": "bytes32",
          "name": "role",
          "type": "bytes32"
        },
        {
          "indexed": true,
          "internalType": "bytes32",
          "name": "previousAdminRole",
          "type": "bytes32"
        },
        {
          "indexed": true,
          "internalType": "bytes32",
          "name": "newAdminRole",
          "type": "bytes32"
        }
      ],
      "name": "RoleAdminChanged",
      "type": "event"
    },
    {
      "anonymous": false,
      "inputs": [
        {
          "indexed": true,
          "internalType": "bytes32",
          "name": "role",
          "type": "bytes32"
        },
        {
          "indexed": true,
          "internalType": "address",
          "name": "account",
          "type": "address"
        },
        {
          "indexed": true,
          "internalType": "address",
          "name": "sender",
          "type": "address"
        }
      ],
      "name": "RoleGranted",
      "type": "event"
    },
    {
      "anonymous": false,
      "inputs": [
        {
          "indexed": true,
          "internalType": "bytes32",
          "name": "role",
          "type": "bytes32"
        },
        {
          "indexed": true,
          "internalType": "address",
          "name": "account",
          "type": "address"
        },
        {
          "indexed": true,
          "internalType": "address",
          "name": "sender",
          "type": "address"
        }
      ],
      "name": "RoleRevoked",
      "type": "event"
    },
    {
      "anonymous": false,
      "inputs": [
        {
          "indexed": true,
          "internalType": "address",
          "name": "layer2",
          "type": "address"
        },
        {
          "indexed": false,
          "internalType": "address",
          "name": "depositor",
          "type": "address"
        },
        {
          "indexed": false,
          "internalType": "uint256",
          "name": "amount",
          "type": "uint256"
        }
      ],
      "name": "WithdrawalProcessed",
      "type": "event"
    },
    {
      "anonymous": false,
      "inputs": [
        {
          "indexed": true,
          "internalType": "address",
          "name": "layer2",
          "type": "address"
        },
        {
          "indexed": false,
          "internalType": "address",
          "name": "depositor",
          "type": "address"
        },
        {
          "indexed": false,
          "internalType": "uint256",
          "name": "amount",
          "type": "uint256"
        }
      ],
      "name": "WithdrawalRequested",
      "type": "event"
    },
    {
      "inputs": [],
      "name": "DEFAULT_ADMIN_ROLE",
      "outputs": [
        {
          "internalType": "bytes32",
          "name": "",
          "type": "bytes32"
        }
      ],
      "stateMutability": "view",
      "type": "function"
    },
    {
      "inputs": [],
      "name": "MINTER_ROLE",
      "outputs": [
        {
          "internalType": "bytes32",
          "name": "",
          "type": "bytes32"
        }
      ],
      "stateMutability": "view",
      "type": "function"
    },
    {
      "inputs": [
        {
          "internalType": "address",
          "name": "layer2",
          "type": "address"
        },
        {
          "internalType": "address",
          "name": "account",
          "type": "address"
        }
      ],
      "name": "accStaked",
      "outputs": [
        {
          "internalType": "uint256",
          "name": "wtonAmount",
          "type": "uint256"
        }
      ],
      "stateMutability": "view",
      "type": "function"
    },
    {
      "inputs": [
        {
          "internalType": "address",
          "name": "account",
          "type": "address"
        }
      ],
      "name": "accStakedAccount",
      "outputs": [
        {
          "internalType": "uint256",
          "name": "wtonAmount",
          "type": "uint256"
        }
      ],
      "stateMutability": "view",
      "type": "function"
    },
    {
      "inputs": [
        {
          "internalType": "address",
          "name": "layer2",
          "type": "address"
        }
      ],
      "name": "accStakedLayer2",
      "outputs": [
        {
          "internalType": "uint256",
          "name": "wtonAmount",
          "type": "uint256"
        }
      ],
      "stateMutability": "view",
      "type": "function"
    },
    {
      "inputs": [
        {
          "internalType": "address",
          "name": "layer2",
          "type": "address"
        },
        {
          "internalType": "address",
          "name": "account",
          "type": "address"
        }
      ],
      "name": "accUnstaked",
      "outputs": [
        {
          "internalType": "uint256",
          "name": "wtonAmount",
          "type": "uint256"
        }
      ],
      "stateMutability": "view",
      "type": "function"
    },
    {
      "inputs": [
        {
          "internalType": "address",
          "name": "account",
          "type": "address"
        }
      ],
      "name": "accUnstakedAccount",
      "outputs": [
        {
          "internalType": "uint256",
          "name": "wtonAmount",
          "type": "uint256"
        }
      ],
      "stateMutability": "view",
      "type": "function"
    },
    {
      "inputs": [
        {
          "internalType": "address",
          "name": "layer2",
          "type": "address"
        }
      ],
      "name": "accUnstakedLayer2",
      "outputs": [
        {
          "internalType": "uint256",
          "name": "wtonAmount",
          "type": "uint256"
        }
      ],
      "stateMutability": "view",
      "type": "function"
    },
    {
      "inputs": [
        {
          "internalType": "address",
          "name": "account",
          "type": "address"
        }
      ],
      "name": "addAdmin",
      "outputs": [],
      "stateMutability": "nonpayable",
      "type": "function"
    },
    {
      "inputs": [
        {
          "internalType": "address",
          "name": "",
          "type": "address"
        }
      ],
      "name": "aliveImplementation",
      "outputs": [
        {
          "internalType": "bool",
          "name": "",
          "type": "bool"
        }
      ],
      "stateMutability": "view",
      "type": "function"
    },
    {
      "inputs": [
        {
          "internalType": "address",
          "name": "layer2",
          "type": "address"
        },
        {
          "internalType": "uint256",
          "name": "amount",
          "type": "uint256"
        }
      ],
      "name": "deposit",
      "outputs": [
        {
          "internalType": "bool",
          "name": "",
          "type": "bool"
        }
      ],
      "stateMutability": "nonpayable",
      "type": "function"
    },
    {
      "inputs": [
        {
          "internalType": "address",
          "name": "layer2",
          "type": "address"
        },
        {
          "internalType": "address[]",
          "name": "accounts",
          "type": "address[]"
        },
        {
          "internalType": "uint256[]",
          "name": "amounts",
          "type": "uint256[]"
        }
      ],
      "name": "deposit",
      "outputs": [
        {
          "internalType": "bool",
          "name": "",
          "type": "bool"
        }
      ],
      "stateMutability": "nonpayable",
      "type": "function"
    },
    {
      "inputs": [
        {
          "internalType": "address",
          "name": "layer2",
          "type": "address"
        },
        {
          "internalType": "address",
          "name": "account",
          "type": "address"
        },
        {
          "internalType": "uint256",
          "name": "amount",
          "type": "uint256"
        }
      ],
      "name": "deposit",
      "outputs": [
        {
          "internalType": "bool",
          "name": "",
          "type": "bool"
        }
      ],
      "stateMutability": "nonpayable",
      "type": "function"
    },
    {
      "inputs": [
        {
          "internalType": "address",
          "name": "layer2",
          "type": "address"
        }
      ],
      "name": "getDelayBlocks",
      "outputs": [
        {
          "internalType": "uint256",
          "name": "",
          "type": "uint256"
        }
      ],
      "stateMutability": "view",
      "type": "function"
    },
    {
      "inputs": [
        {
          "internalType": "bytes32",
          "name": "role",
          "type": "bytes32"
        }
      ],
      "name": "getRoleAdmin",
      "outputs": [
        {
          "internalType": "bytes32",
          "name": "",
          "type": "bytes32"
        }
      ],
      "stateMutability": "view",
      "type": "function"
    },
    {
      "inputs": [],
      "name": "globalWithdrawalDelay",
      "outputs": [
        {
          "internalType": "uint256",
          "name": "",
          "type": "uint256"
        }
      ],
      "stateMutability": "view",
      "type": "function"
    },
    {
      "inputs": [
        {
          "internalType": "bytes32",
          "name": "role",
          "type": "bytes32"
        },
        {
          "internalType": "address",
          "name": "account",
          "type": "address"
        }
      ],
      "name": "grantRole",
      "outputs": [],
      "stateMutability": "nonpayable",
      "type": "function"
    },
    {
      "inputs": [
        {
          "internalType": "bytes32",
          "name": "role",
          "type": "bytes32"
        },
        {
          "internalType": "address",
          "name": "account",
          "type": "address"
        }
      ],
      "name": "hasRole",
      "outputs": [
        {
          "internalType": "bool",
          "name": "",
          "type": "bool"
        }
      ],
      "stateMutability": "view",
      "type": "function"
    },
    {
      "inputs": [
        {
          "internalType": "address",
          "name": "wton_",
          "type": "address"
        },
        {
          "internalType": "address",
          "name": "registry_",
          "type": "address"
        },
        {
          "internalType": "address",
          "name": "seigManager_",
          "type": "address"
        },
        {
          "internalType": "uint256",
          "name": "globalWithdrawalDelay_",
          "type": "uint256"
        },
        {
          "internalType": "address",
          "name": "oldDepositManager_",
          "type": "address"
        }
      ],
      "name": "initialize",
      "outputs": [],
      "stateMutability": "nonpayable",
      "type": "function"
    },
    {
      "inputs": [
        {
          "internalType": "address",
          "name": "account",
          "type": "address"
        }
      ],
      "name": "isAdmin",
      "outputs": [
        {
          "internalType": "bool",
          "name": "",
          "type": "bool"
        }
      ],
      "stateMutability": "view",
      "type": "function"
    },
    {
      "inputs": [],
      "name": "isOwner",
      "outputs": [
        {
          "internalType": "bool",
          "name": "",
          "type": "bool"
        }
      ],
      "stateMutability": "view",
      "type": "function"
    },
    {
      "inputs": [
        {
          "internalType": "address",
          "name": "layer2",
          "type": "address"
        },
        {
          "internalType": "address",
          "name": "account",
          "type": "address"
        }
      ],
      "name": "numPendingRequests",
      "outputs": [
        {
          "internalType": "uint256",
          "name": "",
          "type": "uint256"
        }
      ],
      "stateMutability": "view",
      "type": "function"
    },
    {
      "inputs": [
        {
          "internalType": "address",
          "name": "layer2",
          "type": "address"
        },
        {
          "internalType": "address",
          "name": "account",
          "type": "address"
        }
      ],
      "name": "numRequests",
      "outputs": [
        {
          "internalType": "uint256",
          "name": "",
          "type": "uint256"
        }
      ],
      "stateMutability": "view",
      "type": "function"
    },
    {
      "inputs": [],
      "name": "oldDepositManager",
      "outputs": [
        {
          "internalType": "address",
          "name": "",
          "type": "address"
        }
      ],
      "stateMutability": "view",
      "type": "function"
    },
    {
      "inputs": [
        {
          "internalType": "address",
          "name": "owner",
          "type": "address"
        },
        {
          "internalType": "address",
          "name": "spender",
          "type": "address"
        },
        {
          "internalType": "uint256",
          "name": "amount",
          "type": "uint256"
        },
        {
          "internalType": "bytes",
          "name": "data",
          "type": "bytes"
        }
      ],
      "name": "onApprove",
      "outputs": [
        {
          "internalType": "bool",
          "name": "",
          "type": "bool"
        }
      ],
      "stateMutability": "nonpayable",
      "type": "function"
    },
    {
      "inputs": [],
      "name": "pauseProxy",
      "outputs": [
        {
          "internalType": "bool",
          "name": "",
          "type": "bool"
        }
      ],
      "stateMutability": "view",
      "type": "function"
    },
    {
      "inputs": [
        {
          "internalType": "address",
          "name": "layer2",
          "type": "address"
        },
        {
          "internalType": "address",
          "name": "account",
          "type": "address"
        }
      ],
      "name": "pendingUnstaked",
      "outputs": [
        {
          "internalType": "uint256",
          "name": "wtonAmount",
          "type": "uint256"
        }
      ],
      "stateMutability": "view",
      "type": "function"
    },
    {
      "inputs": [
        {
          "internalType": "address",
          "name": "account",
          "type": "address"
        }
      ],
      "name": "pendingUnstakedAccount",
      "outputs": [
        {
          "internalType": "uint256",
          "name": "wtonAmount",
          "type": "uint256"
        }
      ],
      "stateMutability": "view",
      "type": "function"
    },
    {
      "inputs": [
        {
          "internalType": "address",
          "name": "layer2",
          "type": "address"
        }
      ],
      "name": "pendingUnstakedLayer2",
      "outputs": [
        {
          "internalType": "uint256",
          "name": "wtonAmount",
          "type": "uint256"
        }
      ],
      "stateMutability": "view",
      "type": "function"
    },
    {
      "inputs": [
        {
          "internalType": "address",
          "name": "layer2",
          "type": "address"
        },
        {
          "internalType": "bool",
          "name": "receiveTON",
          "type": "bool"
        }
      ],
      "name": "processRequest",
      "outputs": [
        {
          "internalType": "bool",
          "name": "",
          "type": "bool"
        }
      ],
      "stateMutability": "nonpayable",
      "type": "function"
    },
    {
      "inputs": [
        {
          "internalType": "address",
          "name": "layer2",
          "type": "address"
        },
        {
          "internalType": "uint256",
          "name": "n",
          "type": "uint256"
        },
        {
          "internalType": "bool",
          "name": "receiveTON",
          "type": "bool"
        }
      ],
      "name": "processRequests",
      "outputs": [
        {
          "internalType": "bool",
          "name": "",
          "type": "bool"
        }
      ],
      "stateMutability": "nonpayable",
      "type": "function"
    },
    {
      "inputs": [
        {
          "internalType": "uint256",
          "name": "",
          "type": "uint256"
        }
      ],
      "name": "proxyImplementation",
      "outputs": [
        {
          "internalType": "address",
          "name": "",
          "type": "address"
        }
      ],
      "stateMutability": "view",
      "type": "function"
    },
    {
      "inputs": [
        {
          "internalType": "address",
          "name": "layer2",
          "type": "address"
        }
      ],
      "name": "redeposit",
      "outputs": [
        {
          "internalType": "bool",
          "name": "",
          "type": "bool"
        }
      ],
      "stateMutability": "nonpayable",
      "type": "function"
    },
    {
      "inputs": [
        {
          "internalType": "address",
          "name": "layer2",
          "type": "address"
        },
        {
          "internalType": "uint256",
          "name": "n",
          "type": "uint256"
        }
      ],
      "name": "redepositMulti",
      "outputs": [
        {
          "internalType": "bool",
          "name": "",
          "type": "bool"
        }
      ],
      "stateMutability": "nonpayable",
      "type": "function"
    },
    {
      "inputs": [],
      "name": "registry",
      "outputs": [
        {
          "internalType": "address",
          "name": "",
          "type": "address"
        }
      ],
      "stateMutability": "view",
      "type": "function"
    },
    {
      "inputs": [
        {
          "internalType": "address",
          "name": "account",
          "type": "address"
        }
      ],
      "name": "removeAdmin",
      "outputs": [],
      "stateMutability": "nonpayable",
      "type": "function"
    },
    {
      "inputs": [],
      "name": "renounceOwnership",
      "outputs": [],
      "stateMutability": "nonpayable",
      "type": "function"
    },
    {
      "inputs": [
        {
          "internalType": "bytes32",
          "name": "role",
          "type": "bytes32"
        },
        {
          "internalType": "address",
          "name": "account",
          "type": "address"
        }
      ],
      "name": "renounceRole",
      "outputs": [],
      "stateMutability": "nonpayable",
      "type": "function"
    },
    {
      "inputs": [
        {
          "internalType": "address",
          "name": "layer2",
          "type": "address"
        },
        {
          "internalType": "uint256",
          "name": "amount",
          "type": "uint256"
        }
      ],
      "name": "requestWithdrawal",
      "outputs": [
        {
          "internalType": "bool",
          "name": "",
          "type": "bool"
        }
      ],
      "stateMutability": "nonpayable",
      "type": "function"
    },
    {
      "inputs": [
        {
          "internalType": "address",
          "name": "layer2",
          "type": "address"
        }
      ],
      "name": "requestWithdrawalAll",
      "outputs": [
        {
          "internalType": "bool",
          "name": "",
          "type": "bool"
        }
      ],
      "stateMutability": "nonpayable",
      "type": "function"
    },
    {
      "inputs": [
        {
          "internalType": "bytes32",
          "name": "role",
          "type": "bytes32"
        },
        {
          "internalType": "address",
          "name": "account",
          "type": "address"
        }
      ],
      "name": "revokeRole",
      "outputs": [],
      "stateMutability": "nonpayable",
      "type": "function"
    },
    {
      "inputs": [],
      "name": "seigManager",
      "outputs": [
        {
          "internalType": "address",
          "name": "",
          "type": "address"
        }
      ],
      "stateMutability": "view",
      "type": "function"
    },
    {
      "inputs": [
        {
          "internalType": "bytes4",
          "name": "",
          "type": "bytes4"
        }
      ],
      "name": "selectorImplementation",
      "outputs": [
        {
          "internalType": "address",
          "name": "",
          "type": "address"
        }
      ],
      "stateMutability": "view",
      "type": "function"
    },
    {
      "inputs": [
        {
          "internalType": "uint256",
          "name": "globalWithdrawalDelay_",
          "type": "uint256"
        }
      ],
      "name": "setGlobalWithdrawalDelay",
      "outputs": [],
      "stateMutability": "nonpayable",
      "type": "function"
    },
    {
      "inputs": [
        {
          "internalType": "address",
          "name": "seigManager_",
          "type": "address"
        }
      ],
      "name": "setSeigManager",
      "outputs": [],
      "stateMutability": "nonpayable",
      "type": "function"
    },
    {
      "inputs": [
        {
          "internalType": "address",
          "name": "l2chain",
          "type": "address"
        },
        {
          "internalType": "uint256",
          "name": "withdrawalDelay_",
          "type": "uint256"
        }
      ],
      "name": "setWithdrawalDelay",
      "outputs": [],
      "stateMutability": "nonpayable",
      "type": "function"
    },
    {
      "inputs": [
        {
          "internalType": "address",
          "name": "layer2",
          "type": "address"
        },
        {
          "internalType": "address",
          "name": "recipient",
          "type": "address"
        },
        {
          "internalType": "uint256",
          "name": "amount",
          "type": "uint256"
        }
      ],
      "name": "slash",
      "outputs": [
        {
          "internalType": "bool",
          "name": "",
          "type": "bool"
        }
      ],
      "stateMutability": "nonpayable",
      "type": "function"
    },
    {
      "inputs": [
        {
          "internalType": "bytes4",
          "name": "interfaceId",
          "type": "bytes4"
        }
      ],
      "name": "supportsInterface",
      "outputs": [
        {
          "internalType": "bool",
          "name": "",
          "type": "bool"
        }
      ],
      "stateMutability": "view",
      "type": "function"
    },
    {
      "inputs": [
        {
          "internalType": "address",
          "name": "newAdmin",
          "type": "address"
        }
      ],
      "name": "transferAdmin",
      "outputs": [],
      "stateMutability": "nonpayable",
      "type": "function"
    },
    {
      "inputs": [
        {
          "internalType": "address",
          "name": "newAdmin",
          "type": "address"
        }
      ],
      "name": "transferOwnership",
      "outputs": [],
      "stateMutability": "nonpayable",
      "type": "function"
    },
    {
      "inputs": [
        {
          "internalType": "address",
          "name": "",
          "type": "address"
        }
      ],
      "name": "withdrawalDelay",
      "outputs": [
        {
          "internalType": "uint256",
          "name": "",
          "type": "uint256"
        }
      ],
      "stateMutability": "view",
      "type": "function"
    },
    {
      "inputs": [
        {
          "internalType": "address",
          "name": "layer2",
          "type": "address"
        },
        {
          "internalType": "address",
          "name": "account",
          "type": "address"
        },
        {
          "internalType": "uint256",
          "name": "index",
          "type": "uint256"
        }
      ],
      "name": "withdrawalRequest",
      "outputs": [
        {
          "internalType": "uint128",
          "name": "withdrawableBlockNumber",
          "type": "uint128"
        },
        {
          "internalType": "uint128",
          "name": "amount",
          "type": "uint128"
        },
        {
          "internalType": "bool",
          "name": "processed",
          "type": "bool"
        }
      ],
      "stateMutability": "view",
      "type": "function"
    },
    {
      "inputs": [
        {
          "internalType": "address",
          "name": "layer2",
          "type": "address"
        },
        {
          "internalType": "address",
          "name": "account",
          "type": "address"
        }
      ],
      "name": "withdrawalRequestIndex",
      "outputs": [
        {
          "internalType": "uint256",
          "name": "index",
          "type": "uint256"
        }
      ],
      "stateMutability": "view",
      "type": "function"
    },
    {
      "inputs": [],
      "name": "wton",
      "outputs": [
        {
          "internalType": "address",
          "name": "",
          "type": "address"
        }
      ],
      "stateMutability": "view",
      "type": "function"
    }
  ],
  "bytecode": "0x6080806040523461001657613407908161001c8239f35b600080fdfe6080604052600436101561001257600080fd5b60003560e01c806255f5c114610376578063010ca3901461037157806301ffc9a71461036c5780631785f53c146103675780632153c23914610362578063248a9ca31461035d57806324d7806c146103585780632638fdf5146103535780632d2fab941461034e5780632f2ff15d1461034957806336568abe146103445780634273ca161461033f578063445e83b91461033a57806347e7ef24146103355780634ce970361461033057806350d2a2761461032b578063530b97a414610326578063550d01a314610321578063562fa0df1461031c5780635c0df46b1461031757806363a8fd89146103125780636b2160b71461030d5780636ec3d5ae146103085780636fb7f5581461030357806370480275146102fe578063715018a6146102f957806375829def146102f45780637657f20a146102ef5780637b103999146102ea5780638340f549146102e55780638af4a948146102e05780638d62d949146102db5780638f32d59b146102d65780638fbef2d0146102d157806391d14854146102cc5780639d91b87b146102c7578063a0b2a913146102c2578063a217fddf146102bd578063a3543989146102b8578063a79da341146102b3578063b5f19db2146102ae578063b8bee628146102a9578063b911135f146102a4578063c20a44c61461029f578063c647f26e1461029a578063d285f78c14610295578063d539139314610290578063d547741f1461028b578063da95ebf714610286578063dc5a709f14610281578063e74f82391461027c578063f2fde38b14610277578063f762eb57146102725763fb0713b11461026d57600080fd5b611793565b611757565b61172e565b6116ff565b611643565b6115c4565b611582565b611547565b61150a565b6114ce565b611490565b611452565b6113a2565b61137b565b61133a565b6112fd565b6112e1565b6112a4565b611268565b61121e565b61114f565b611118565b6110ef565b6110b2565b611099565b611044565b610fda565b610f0f565b610ee9565b610df9565b610dd0565b610db2565b610d22565b610cff565b610cde565b610c1d565b610aec565b610993565b61095b565b61091e565b6108e1565b610811565b610788565b6106f2565b610625565b6105e9565b6105a4565b610528565b6104f9565b6104d0565b610498565b61042e565b6103ce565b610391565b6001600160a01b0381160361038c57565b600080fd5b3461038c57602036600319011261038c576004356103ae8161037b565b60018060a01b0316600052600c6020526020604060002054604051908152f35b3461038c57602036600319011261038c576004356103eb8161037b565b60018060a01b0316600052600b6020526020604060002054604051908152f35b602090600319011261038c576004356001600160e01b03198116810361038c5790565b3461038c576001600160e01b03196104453661040b565b16637965db0b60e01b81148015610464575b6020906040519015158152f35b506301ffc9a760e01b8114801561047f575b60209150610457565b506000526004602052602060ff60406000205416610476565b3461038c57602036600319011261038c576104ce6004356104b88161037b565b6104c96104c4336117f8565b611d69565b611a8d565b005b3461038c57600036600319011261038c576009546040516001600160a01b039091168152602090f35b3461038c57602036600319011261038c5760043560005260056020526020600160406000200154604051908152f35b3461038c57602036600319011261038c57602060ff61057060043561054c8161037b565b600080526005845260406000209060018060a01b0316600052602052604060002090565b54166040519015158152f35b604090600319011261038c576004356105948161037b565b906024356105a18161037b565b90565b3461038c5760206105e06105b73661057c565b6001600160a01b039182166000908152600d855260408082209290931681526020919091522090565b54604051908152f35b3461038c5760206105e06105fc3661057c565b6001600160a01b039182166000908152600a855260408082209290931681526020919091522090565b3461038c57604036600319011261038c576004356024356106458161037b565b600091808352600560205261066060016040852001546118e6565b8083526005602090815260408085206001600160a01b0385166000908152925290205460ff161561068f578280f35b8083526005602090815260408085206001600160a01b038516600090815292529020805460ff1916600117905533916001600160a01b0316907f2f8788117e7eff1d82e926ec794901d17c78024a50270940304540a733656f0d8480a438808280f35b3461038c57604036600319011261038c5760243561070f8161037b565b336001600160a01b0382160361072b576104ce90600435611b2a565b60405162461bcd60e51b815260206004820152602f60248201527f416363657373436f6e74726f6c3a2063616e206f6e6c792072656e6f756e636560448201526e103937b632b9903337b91039b2b63360891b6064820152608490fd5b3461038c57608036600319011261038c576004356107a58161037b565b6107b060243561037b565b60643567ffffffffffffffff80821161038c573660238301121561038c57816004013590811161038c57366024828401011161038c5761080d9260246107fb93019060443590611dc7565b60405190151581529081906020820190565b0390f35b3461038c57604036600319011261038c5760043561082e8161037b565b6001600160a01b038181166000818152601460209081526040808320338452825282209194929154936007541691602460405180948193630c39b8b760e31b835260048301525afa9081156108dc5784916108ae575b50156108aa576108979160243591612942565b156108a757602060405160018152f35b80fd5b8280fd5b6108cf915060203d81116108d5575b6108c78183610b65565b810190611f9d565b38610884565b503d6108bd565b611fb2565b3461038c57604036600319011261038c5761090e6004356109018161037b565b3390602435903390611fbe565b1561038c57602060405160018152f35b3461038c57602036600319011261038c5760043561093b8161037b565b60018060a01b031660005260166020526020604060002054604051908152f35b3461038c576001600160e01b03196109723661040b565b166000526003602052602060018060a01b0360406000205416604051908152f35b3461038c5760a036600319011261038c576004356109b08161037b565b6024356109bc8161037b565b604435906109c98261037b565b608435916109d68361037b565b6006546001600160a01b0316610ab157610a2e610a4b92610a11610a739660018060a01b03166001600160601b0360a01b6006541617600655565b60018060a01b03166001600160601b0360a01b6007541617600755565b60018060a01b03166001600160601b0360a01b6008541617600855565b610a56606435601555565b60018060a01b03166001600160601b0360a01b6009541617600955565b632139e50b60e11b60005260046020527f2477b3fbd6e557ed6911e9f35e7cd8517c7cf22ada6ae2784568c1be6dd03424805460ff19166001179055005b60405162461bcd60e51b8152602060048201526013602482015272185b1c9958591e481a5b9a5d1a585b1a5e9959606a1b6044820152606490fd5b3461038c57602036600319011261038c57600435610b098161037b565b60018060a01b03166000526002602052602060ff604060002054166040519015158152f35b634e487b7160e01b600052604160045260246000fd5b6040810190811067ffffffffffffffff821117610b6057604052565b610b2e565b90601f8019910116810190811067ffffffffffffffff821117610b6057604052565b604051906060820182811067ffffffffffffffff821117610b6057604052565b67ffffffffffffffff8111610b605760051b60200190565b81601f8201121561038c57803591610bd683610ba7565b92610be46040519485610b65565b808452602092838086019260051b82010192831161038c578301905b828210610c0e575050505090565b81358152908301908301610c00565b3461038c57606036600319011261038c57600435610c3a8161037b565b6024359067ffffffffffffffff9081831161038c573660238401121561038c578260040135610c6881610ba7565b93610c766040519586610b65565b81855260209160248387019160051b8301019136831161038c57602401905b828210610cc5575050505060443591821161038c5761080d92610cbf6107fb933690600401610bbf565b91611efc565b8380918335610cd38161037b565b815201910190610c95565b3461038c576020610cf7610cf13661057c565b90613355565b604051908152f35b3461038c57600036600319011261038c57602060ff600054166040519015158152f35b3461038c57602036600319011261038c57600435610d3f8161037b565b600754604051630c39b8b760e31b81526001600160a01b03838116600483015290929160209184916024918391165afa9081156108dc57610d8f6107fb9261080d94600091610d94575b50611dc0565b613275565b610dac915060203d81116108d5576108c78183610b65565b38610d89565b3461038c57600036600319011261038c576020601554604051908152f35b3461038c57600036600319011261038c576008546040516001600160a01b039091168152602090f35b3461038c57602036600319011261038c57600435610e168161037b565b610e226104c4336117f8565b600080805260056020527f05b8ccbb9d4d8fb16ea74ce3c29a41f1b461fbdaff4714a0d9a8eb05499746bd54909190610e5a906118e6565b8180526005602090815260408084206001600160a01b0384166000908152925290205460ff1615610e89575080f35b8180526005602090815260408084206001600160a01b038416600090815292529020805460ff1916600117905533906001600160a01b0316827f2f8788117e7eff1d82e926ec794901d17c78024a50270940304540a733656f0d8180a480f35b3461038c57600036600319011261038c57610f066104c4336117f8565b6104ce33611a8d565b3461038c57602036600319011261038c57600435610f2c8161037b565b610f386104c4336117f8565b6001600160a01b0381168015610f95573314610f5757610f0690611823565b60405162461bcd60e51b815260206004820152601660248201527520b1b1b2b9b9b4b136329d1039b0b6b29030b236b4b760511b6044820152606490fd5b60405162461bcd60e51b815260206004820152601860248201527f41636365737369626c653a207a65726f206164647265737300000000000000006044820152606490fd5b3461038c57602036600319011261038c57600435610ff78161037b565b3360009081526000805160206133db833981519152602052604090206110229060ff905b5416611d69565b600880546001600160a01b0319166001600160a01b0392909216919091179055005b3461038c57600036600319011261038c576007546040516001600160a01b039091168152602090f35b606090600319011261038c576004356110858161037b565b906024356110928161037b565b9060443590565b3461038c5761090e6110aa3661106d565b903392611fbe565b3461038c57602036600319011261038c576004356110cf8161037b565b60018060a01b031660005260116020526020604060002054604051908152f35b3461038c57600036600319011261038c576006546040516001600160a01b039091168152602090f35b3461038c576000806003193601126108a757808052600560209081526040918290203360009081529082529190912060ff90610570565b3461038c5760606111ad61120560ff60016111693661106d565b909491838060a01b0316958560406001600160801b036111b2856111ad8c9b8560009e8f9081526013602052209060018060a01b0316600052602052604060002090565b612510565b5054169888815260136020526111e0856111ad858585209060018060a01b0316600052602052604060002090565b505460801c9881526013602052209060018060a01b0316600052602052604060002090565b5001541690604051928352602083015215156040820152f35b3461038c57604036600319011261038c57602060ff6105706024356112428161037b565b6004356000526005845260406000209060018060a01b0316600052602052604060002090565b3461038c5760206105e061127b3661057c565b6001600160a01b0391821660009081526010855260408082209290931681526020919091522090565b3461038c57602036600319011261038c576004356112c18161037b565b60018060a01b0316600052600f6020526020604060002054604051908152f35b3461038c57600036600319011261038c57602060405160008152f35b3461038c57602036600319011261038c5760043561131a8161037b565b60018060a01b031660005260126020526020604060002054604051908152f35b3461038c57602036600319011261038c573360009081526000805160206133db833981519152602052604090206113739060ff9061101b565b600435601555005b3461038c57602036600319011261038c576020610cf760043561139d8161037b565b6133ac565b3461038c5760208060031936011261038c576004356113c08161037b565b6001600160a01b038181166000818152601485526040808220338352602052812090939190859054936007541691602460405180948193630c39b8b760e31b835260048301525afa9081156108dc578491611435575b50156108aa5790611426916125ef565b156108a7575060405160018152f35b61144c9150853d87116108d5576108c78183610b65565b38611416565b3461038c57602036600319011261038c576004356000526001602052602060018060a01b0360406000205416604051908152f35b8015150361038c57565b3461038c57604036600319011261038c5760206114c46004356114b28161037b565b602435906114bf82611486565b612f00565b6040519015158152f35b3461038c5760206105e06114e13661057c565b6001600160a01b0391821660009081526014855260408082209290931681526020919091522090565b3461038c57602036600319011261038c576004356115278161037b565b60018060a01b0316600052600e6020526020604060002054604051908152f35b3461038c57600036600319011261038c5760206040517ff0887ba65ee2024ea881d91b74c2450ef19e1557f03bed3ea9f16b037cbe2dc98152f35b3461038c57604036600319011261038c576104ce6024356004356115a58261037b565b8060005260056020526115bf6001604060002001546118e6565b611b2a565b3461038c57604036600319011261038c576004356115e18161037b565b6115ea816133ac565b600754604051630c39b8b760e31b81526001600160a01b0380851660048301529093929160209185916024918391165afa9182156108dc5761163a6107fb9361080d95600091610d945750611dc0565b60243590612c8f565b3461038c57604036600319011261038c576004356116608161037b565b60405163570ca73560e01b8152906001600160a01b036020836004818486165afa9283156108dc576000936116bc575b5061169e9192163314611dc0565b6001600160a01b031660009081526016602052604090206024359055005b6020813d82116116f7575b816116d460209383610b65565b810103126116f35761169e929350516116ec8161037b565b9291611690565b8380fd5b3d91506116c7565b3461038c5761170d3661106d565b50506008546001600160a01b03163303905061038c57602060405160008152f35b3461038c57602036600319011261038c5760043561174b8161037b565b610f2c6104c4336117f8565b3461038c5760206105e061176a3661057c565b6001600160a01b0391821660009081526013855260408082209290931681526020919091522090565b3461038c57606036600319011261038c576004356117b08161037b565b602435604435916117c083611486565b600092835b8381106117d757602060405160018152f35b6117e18284612f00565b156117f4576117ef90611ed9565b6117c5565b8480fd5b6001600160a01b031660009081526000805160206133db833981519152602052604090205460ff1690565b600080805260056020527f05b8ccbb9d4d8fb16ea74ce3c29a41f1b461fbdaff4714a0d9a8eb05499746bd54611858906118e6565b8080526005602090815260408083206001600160a01b0385166000908152925290205460ff1615611887575050565b8080526005602090815260408083206001600160a01b038516600090815292529020805460ff1916600117905533916001600160a01b0316907f2f8788117e7eff1d82e926ec794901d17c78024a50270940304540a733656f0d8180a4565b600081815260056020908152604080832033845290915290205460ff161561190b5750565b3390611915611c0f565b91603061192184611c52565b53607861192d84611c5f565b5360295b600181116119e0576119dc6119996119c4866119b6611959886119548915611c8d565b611cd8565b611993604051958694611993602087016017907f416363657373436f6e74726f6c3a206163636f756e742000000000000000000081520190565b90611a4a565b7001034b99036b4b9b9b4b733903937b6329607d1b815260110190565b03601f198101835282610b65565b60405162461bcd60e51b815291829160048301611a61565b0390fd5b90600f8116906010821015611a2257611a1d916f181899199a1a9b1b9c1cb0b131b232b360811b901a611a138487611c6f565b5360041c91611c80565b611931565b611c3c565b60005b838110611a3a5750506000910152565b8181015183820152602001611a2a565b90611a5d60209282815194859201611a27565b0190565b60409160208252611a818151809281602086015260208686019101611a27565b601f01601f1916010190565b6001600160a01b03811633810361072b576001600160a01b03821660009081526000805160206133db833981519152602052604081205490929060ff16611ad357505050565b611afa908380526005602052604084209060018060a01b0316600052602052604060002090565b805460ff1916905533917ff6391f5c32d9c69d2a47ea670b442974b53935d1edc7fd64eb21e047a839171b8180a4565b600090808252600560205260ff611b5684604085209060018060a01b0316600052602052604060002090565b5416611b6157505050565b8082526005602090815260408084206001600160a01b038616600090815292529020805460ff1916905533926001600160a01b0316917ff6391f5c32d9c69d2a47ea670b442974b53935d1edc7fd64eb21e047a839171b9080a4565b634e487b7160e01b600052601160045260246000fd5b9060018201809211611be157565b611bbd565b91908201809211611be157565b67ffffffffffffffff8111610b6057601f01601f191660200190565b604051906060820182811067ffffffffffffffff821117610b6057604052602a8252604082602036910137565b634e487b7160e01b600052603260045260246000fd5b805115611a225760200190565b805160011015611a225760210190565b908151811015611a22570160200190565b8015611be1576000190190565b15611c9457565b606460405162461bcd60e51b815260206004820152602060248201527f537472696e67733a20686578206c656e67746820696e73756666696369656e746044820152fd5b604051906080820182811067ffffffffffffffff821117610b60576040526042825260603660208401376030611d0d83611c52565b536078611d1983611c5f565b536041905b60018211611d31576105a1915015611c8d565b600f8116906010821015611a2257611d63916f181899199a1a9b1b9c1cb0b131b232b360811b901a611a138486611c6f565b90611d1e565b15611d7057565b60405162461bcd60e51b815260206004820152602260248201527f41636365737369626c653a2043616c6c6572206973206e6f7420616e2061646d60448201526134b760f11b6064820152608490fd5b1561038c57565b6006549293929091906001600160a01b03163303611e3057611de883611bf3565b92611df66040519485610b65565b808452368186011161038c57611e218460006020848795611e2b9a83611e269b013783010152611e8f565b611fbe565b611dc0565b600190565b60405162461bcd60e51b815260206004820152603160248201527f4465706f7369744d616e616765723a206f6e6c79206163636570742057544f4e60448201527020617070726f76652063616c6c6261636b60781b6064820152608490fd5b602081510361038c576020015190565b15611ea657565b60405162461bcd60e51b815260206004820152600b60248201526a0eee4dedcce40d8cadce8d60ab1b6044820152606490fd5b6000198114611be15760010190565b8051821015611a225760209160051b010190565b90929192805115611f6b57611f148151855114611e9f565b60005b8151811015611f625780611f58611e26611f44611f37611f5d9587611ee8565b516001600160a01b031690565b3390611f50858b611ee8565b519088611fbe565b611ed9565b611f17565b50600193505050565b60405162461bcd60e51b815260206004820152600a6024820152691b9bc81858d8dbdd5b9d60b21b6044820152606490fd5b9081602091031261038c57516105a181611486565b6040513d6000823e3d90fd5b90929160018060a01b039182600754169460405195630c39b8b760e31b8752868584169182600483015281602460209a8b935afa9081156108dc576000916121fb575b501561038c57612126846121b797899785161515806121f2575b61202490612218565b6120658261205f876120488a60018060a01b0316600052600a602052604060002090565b9060018060a01b0316600052602052604060002090565b54611be6565b6001600160a01b0387166000908152600a60205260409020612088908790612048565b556001600160a01b0386166000908152600b602052604090206120ac90839061205f565b6001600160a01b0387166000908152600b60205260409020556001600160a01b0385166000908152600c602052604090206120e890839061205f565b6001600160a01b0386166000908152600c602052604090205560065461211e906001600160a01b03165b6001600160a01b031690565b903091612264565b604080516001600160a01b0384168152602081018690527f8752a472e571a816aea92eec8dae9baf628e840f4929fbcc2d155e6233ff68a79190a260085460009061217b90612112906001600160a01b031681565b604051630412c6d560e41b81526001600160a01b0394851660048201529290931660248301526044820193909352938492839182906064820190565b03925af19081156108dc57611e2b926000926121d5575b5050611dc0565b6121eb9250803d106108d5576108c78183610b65565b38806121ce565b5081151561201b565b6122129150883d8a116108d5576108c78183610b65565b38612001565b1561221f57565b60405162461bcd60e51b815260206004820152601b60248201527f7a65726f20616d6f756e74206f72207a65726f206164647265737300000000006044820152606490fd5b6040516323b872dd60e01b60208201526001600160a01b03928316602482015292909116604483015260648201929092526122b5916122b082608481015b03601f198101845283610b65565b6122b7565b565b604051612334916001600160a01b03166122d082610b44565b6000806020958685527f5361666545524332303a206c6f772d6c6576656c2063616c6c206661696c656487860152868151910182855af13d156123bc573d9161231883611bf3565b926123266040519485610b65565b83523d60008785013e6123c0565b8051908282159283156123a4575b5050501561234d5750565b6084906040519062461bcd60e51b82526004820152602a60248201527f5361666545524332303a204552433230206f7065726174696f6e20646964206e6044820152691bdd081cdd58d8d9595960b21b6064820152fd5b6123b49350820181019101611f9d565b388281612342565b6060915b9192901561242257508151156123d4575090565b3b156123dd5790565b60405162461bcd60e51b815260206004820152601d60248201527f416464726573733a2063616c6c20746f206e6f6e2d636f6e74726163740000006044820152606490fd5b8251909150156124355750805190602001fd5b60405162461bcd60e51b81529081906119dc9060048301611a61565b1561245857565b60405162461bcd60e51b815260206004820152601a60248201527f4465706f7369744d616e616765723a206e6f20726571756573740000000000006044820152606490fd5b91908203918211611be157565b156124b157565b60405162461bcd60e51b815260206004820152603160248201527f4465706f7369744d616e616765723a206e2065786365656473206e756d206f666044820152702070656e64696e6720726571756573747360781b6064820152608490fd5b8054821015611a225760005260206000209060011b0190600090565b1561253357565b60405162461bcd60e51b815260206004820152603160248201527f4465706f7369744d616e616765723a2070656e64696e67207265717565737420604482015270185b1c9958591e481c1c9bd8d95cdcd959607a1b6064820152608490fd5b1561259957565b60405162461bcd60e51b815260206004820152602860248201527f4465706f7369744d616e616765723a206e6f2076616c69642070656e64696e67604482015267081c995c5d595cdd60c21b6064820152608490fd5b60009061262f6126276126148360018060a01b03166000526013602052604060002090565b3360009081526020919091526040902090565b541515612451565b600192612667846126608361265a336120488860018060a01b03166000526013602052604060002090565b5461249d565b10156124aa565b61267081611bd3565b905b8181106128b8575050816020916126a661289d9461205f336120488560018060a01b0316600052600a602052604060002090565b6001600160a01b0382166000908152600a602052604090206126c9903390612048565b556001600160a01b0381166000908152600b602052604090206126ed90839061205f565b6001600160a01b0382166000908152600b6020526040902055336000908152600c6020526040902061272090839061205f565b336000908152600c60205260409020556127548261265a336120488560018060a01b0316600052600d602052604060002090565b6001600160a01b0382166000908152600d60205260409020612777903390612048565b556001600160a01b0381166000908152600e6020526040902061279b90839061265a565b6001600160a01b0382166000908152600e6020526040902055336000908152600f602052604090206127ce90839061265a565b336000908152600f60205260409020556001600160a01b0381166000908152601460205260409020612801903390612048565b61280b8154611bd3565b905560408051338152602081018490526001600160a01b038316917f8752a472e571a816aea92eec8dae9baf628e840f4929fbcc2d155e6233ff68a791a260085461286090612112906001600160a01b031681565b604051630412c6d560e41b81526001600160a01b039092166004830152336024830152604482019290925292839190829060009082906064820190565b03925af180156108dc576105a191600091610d945750611dc0565b80611f5861292f6128e661293d946111ad336120488a60018060a01b03166000526013602052604060002090565b50886129026128f6835460801c90565b6001600160801b031690565b91019761291f61291a6129168b5460ff1690565b1590565b61252c565b61292a821515612592565b611be6565b865460ff1916600117909655565b612672565b90916000926129696126276126148560018060a01b03166000526013602052604060002090565b612991826126608361265a336120488960018060a01b03166000526013602052604060002090565b61299b8282611be6565b905b818110612b5057505091602091612b35936129d28361205f336120488660018060a01b0316600052600a602052604060002090565b6001600160a01b0383166000908152600a602052604090206129f5903390612048565b556001600160a01b0382166000908152600b60205260409020612a1990849061205f565b6001600160a01b0383166000908152600b6020526040902055336000908152600c60205260409020612a4c90849061205f565b336000908152600c6020526040902055612a808361265a336120488660018060a01b0316600052600d602052604060002090565b6001600160a01b0383166000908152600d60205260409020612aa3903390612048565b556001600160a01b0382166000908152600e60205260409020612ac790849061265a565b6001600160a01b0383166000908152600e6020526040902055336000908152600f60205260409020612afa90849061265a565b336000908152600f602052604090205561280b612b2d336120488560018060a01b03166000526014602052604060002090565b918254611be6565b03925af180156108dc57611e2b91600091610d945750611dc0565b80611f58612ba3612b7e612bb1946111ad336120488b60018060a01b03166000526013602052604060002090565b506001612b8f6128f6835460801c90565b91019861291f61291a6129168c5460ff1690565b875460ff1916600117909755565b61299d565b15612bbd57565b60405162461bcd60e51b815260206004820152602760248201527f4465706f7369744d616e616765723a20616d6f756e74206d757374206e6f74206044820152666265207a65726f60c81b6064820152608490fd5b805468010000000000000000811015610b6057612c3491600182018155612510565b612c795760016040916001600160801b038451166001600160801b03198181845416178355602086015160801b1617815501910151151560ff80198354169116179055565b634e487b7160e01b600052600060045260246000fd5b90602091612d06612b3594612ca5841515612bb6565b612cd16128f6612cca6126148660018060a01b03166000526013602052604060002090565b9243611be6565b90612cec612cdd610b87565b6001600160801b039093168352565b6001600160801b0385168287015260006040830152612c12565b612d2a8261205f336120488560018060a01b0316600052600d602052604060002090565b6001600160a01b0382166000908152600d60205260409020612d4d903390612048565b556001600160a01b0381166000908152600e60205260409020612d7190839061205f565b6001600160a01b0382166000908152600e6020526040902055336000908152600f60205260409020612da490839061205f565b336000818152600f60209081526040918290209390935580519182529181018490526001600160a01b038316917f04c56a409d50971e45c5a2d96e5d557d2b0f1d66d40f14b141e4c958b0f39b3291a2600854612e0b90612112906001600160a01b031681565b604051637c287fd560e11b81526001600160a01b039092166004830152336024830152604482019290925292839190829060009082906064820190565b15612e4f57565b60405162461bcd60e51b815260206004820152602560248201527f4465706f7369744d616e616765723a206e6f207265717565737420746f2070726044820152646f6365737360d81b6064820152608490fd5b15612ea957565b60405162461bcd60e51b815260206004820152602960248201527f4465706f7369744d616e616765723a207761697420666f72207769746864726160448201526877616c2064656c617960b81b6064820152608490fd5b612fe86128f6612f77612f286126148560018060a01b03166000526014602052604060002090565b54612f5481612f4d336120488960018060a01b03166000526013602052604060002090565b5411612e48565b6001600160a01b03851660009081526013602052604090206111ad903390612048565b50612f9e612f8c82546001600160801b031690565b6001600160801b034391161115612ea2565b612fb260018201600160ff19825416179055565b6001600160a01b0384166000908152601460205260409020612fd5903390612048565b612fdf8154611bd3565b90555460801c90565b9161300d8361265a336120488660018060a01b0316600052600d602052604060002090565b6001600160a01b0383166000908152600d60205260409020613030903390612048565b556001600160a01b0382166000908152600e6020526040902061305490849061265a565b6001600160a01b0383166000908152600e6020526040902055336000908152600f6020526040902061308790849061265a565b336000908152600f60205260409020556130bb8361205f336120488660018060a01b03166000526010602052604060002090565b6001600160a01b03831660009081526010602052604090206130de903390612048565b556001600160a01b038216600090815260116020526040902061310290849061205f565b6001600160a01b03831660009081526011602052604090205533600090815260126020526040902061313590849061205f565b33600090815260126020526040902055156131f45760065461316190612112906001600160a01b031681565b60405163e3b99e8560e01b8152336004820152602481018490529190602090839060449082906000905af19081156108dc576131c96131ec927fcd1fce47d5ad89dd70b04c75bd6bdb8114d4d4ff7b4393f9fb5937e733ba958294600091610d945750611dc0565b6040805133815260208101959095526001600160a01b0390911693918291820190565b0390a2600190565b6131ec7fcd1fce47d5ad89dd70b04c75bd6bdb8114d4d4ff7b4393f9fb5937e733ba958291613237843361323261211260065460018060a01b031690565b61323c565b6131c9565b60405163a9059cbb60e01b60208201526001600160a01b03909216602483015260448201929092526122b5916122b082606481016122a2565b6008546040516367265c3b60e11b81526001600160a01b038381166004830181905233602484015290926020919082908490604490829088165afa9283156108dc57600093613326575b50816132ca866133ac565b946007541691602460405180948193630c39b8b760e31b835260048301525afa9182156108dc57600092613309575b50501561038c576105a192612c8f565b61331f9250803d106108d5576108c78183610b65565b38806132f9565b90928282813d831161334e575b61333d8183610b65565b810103126108a757505191386132bf565b503d613333565b6001600160a01b0390811660008181526013602090815260408083209590941680835294815283822054928252601481528382209482529390935291205481156133a5578103908111611be15790565b5050600090565b6015546001600160a01b03909116600090815260166020526040902054808211156133d5575090565b90509056fe05b8ccbb9d4d8fb16ea74ce3c29a41f1b461fbdaff4714a0d9a8eb05499746bca164736f6c6343000812000a",
  "linkReferences": {},
  "deployedLinkReferences": {}
}