{
  "_format": "hh-sol-artifact-1",
  "contractName": "AutoRefactorCoinage",
  "sourceName": "contracts/stake/tokens/AutoRefactorCoinage.sol",
  "abi": [
    {
      "anonymous": false,
      "inputs": [
        {
          "indexed": true,
          "internalType": "address",
          "name": "account",
          "type": "address"
        },
        {
          "indexed": false,
          "internalType": "uint256",
          "name": "balance",
          "type": "uint256"
        },
        {
          "indexed": false,
          "internalType": "uint256",
          "name": "refactoredCount",
          "type": "uint256"
        }
      ],
      "name": "ChangedBalance",
      "type": "event"
    },
    {
      "anonymous": false,
      "inputs": [
        {
          "indexed": false,
          "internalType": "uint256",
          "name": "previous",
          "type": "uint256"
        },
        {
          "indexed": false,
          "internalType": "uint256",
          "name": "current",
          "type": "uint256"
        },
        {
          "indexed": false,
          "internalType": "uint256",
          "name": "shiftCount",
          "type": "uint256"
        }
      ],
      "name": "FactorSet",
      "type": "event"
    },
    {
      "anonymous": false,
      "inputs": [
        {
          "indexed": true,
          "internalType": "bytes32",
          "name": "role",
          "type": "bytes32"
        },
        {
          "indexed": true,
          "internalType": "bytes32",
          "name": "previousAdminRole",
          "type": "bytes32"
        },
        {
          "indexed": true,
          "internalType": "bytes32",
          "name": "newAdminRole",
          "type": "bytes32"
        }
      ],
      "name": "RoleAdminChanged",
      "type": "event"
    },
    {
      "anonymous": false,
      "inputs": [
        {
          "indexed": true,
          "internalType": "bytes32",
          "name": "role",
          "type": "bytes32"
        },
        {
          "indexed": true,
          "internalType": "address",
          "name": "account",
          "type": "address"
        },
        {
          "indexed": true,
          "internalType": "address",
          "name": "sender",
          "type": "address"
        }
      ],
      "name": "RoleGranted",
      "type": "event"
    },
    {
      "anonymous": false,
      "inputs": [
        {
          "indexed": true,
          "internalType": "bytes32",
          "name": "role",
          "type": "bytes32"
        },
        {
          "indexed": true,
          "internalType": "address",
          "name": "account",
          "type": "address"
        },
        {
          "indexed": true,
          "internalType": "address",
          "name": "sender",
          "type": "address"
        }
      ],
      "name": "RoleRevoked",
      "type": "event"
    },
    {
      "anonymous": false,
      "inputs": [
        {
          "indexed": true,
          "internalType": "address",
          "name": "from",
          "type": "address"
        },
        {
          "indexed": true,
          "internalType": "address",
          "name": "to",
          "type": "address"
        },
        {
          "indexed": false,
          "internalType": "uint256",
          "name": "value",
          "type": "uint256"
        }
      ],
      "name": "Transfer",
      "type": "event"
    },
    {
      "inputs": [],
      "name": "DEFAULT_ADMIN_ROLE",
      "outputs": [
        {
          "internalType": "bytes32",
          "name": "",
          "type": "bytes32"
        }
      ],
      "stateMutability": "view",
      "type": "function"
    },
    {
      "inputs": [],
      "name": "MINTER_ROLE",
      "outputs": [
        {
          "internalType": "bytes32",
          "name": "",
          "type": "bytes32"
        }
      ],
      "stateMutability": "view",
      "type": "function"
    },
    {
      "inputs": [],
      "name": "OPERATOR_ROLE",
      "outputs": [
        {
          "internalType": "bytes32",
          "name": "",
          "type": "bytes32"
        }
      ],
      "stateMutability": "view",
      "type": "function"
    },
    {
      "inputs": [],
      "name": "REFACTOR_BOUNDARY",
      "outputs": [
        {
          "internalType": "uint256",
          "name": "",
          "type": "uint256"
        }
      ],
      "stateMutability": "view",
      "type": "function"
    },
    {
      "inputs": [],
      "name": "REFACTOR_DIVIDER",
      "outputs": [
        {
          "internalType": "uint256",
          "name": "",
          "type": "uint256"
        }
      ],
      "stateMutability": "view",
      "type": "function"
    },
    {
      "inputs": [
        {
          "internalType": "address",
          "name": "",
          "type": "address"
        },
        {
          "internalType": "address",
          "name": "",
          "type": "address"
        }
      ],
      "name": "_allowances",
      "outputs": [
        {
          "internalType": "uint256",
          "name": "",
          "type": "uint256"
        }
      ],
      "stateMutability": "view",
      "type": "function"
    },
    {
      "inputs": [],
      "name": "_factor",
      "outputs": [
        {
          "internalType": "uint256",
          "name": "",
          "type": "uint256"
        }
      ],
      "stateMutability": "view",
      "type": "function"
    },
    {
      "inputs": [],
      "name": "_totalSupply",
      "outputs": [
        {
          "internalType": "uint256",
          "name": "balance",
          "type": "uint256"
        },
        {
          "internalType": "uint256",
          "name": "refactoredCount",
          "type": "uint256"
        },
        {
          "internalType": "uint256",
          "name": "remain",
          "type": "uint256"
        }
      ],
      "stateMutability": "view",
      "type": "function"
    },
    {
      "inputs": [
        {
          "internalType": "address",
          "name": "account",
          "type": "address"
        }
      ],
      "name": "addAdmin",
      "outputs": [],
      "stateMutability": "nonpayable",
      "type": "function"
    },
    {
      "inputs": [
        {
          "internalType": "address",
          "name": "account",
          "type": "address"
        }
      ],
      "name": "addMinter",
      "outputs": [],
      "stateMutability": "nonpayable",
      "type": "function"
    },
    {
      "inputs": [
        {
          "internalType": "address",
          "name": "account",
          "type": "address"
        }
      ],
      "name": "addOperator",
      "outputs": [],
      "stateMutability": "nonpayable",
      "type": "function"
    },
    {
      "inputs": [
        {
          "internalType": "address",
          "name": "",
          "type": "address"
        }
      ],
      "name": "aliveImplementation",
      "outputs": [
        {
          "internalType": "bool",
          "name": "",
          "type": "bool"
        }
      ],
      "stateMutability": "view",
      "type": "function"
    },
    {
      "inputs": [
        {
          "internalType": "address",
          "name": "account",
          "type": "address"
        }
      ],
      "name": "balanceOf",
      "outputs": [
        {
          "internalType": "uint256",
          "name": "",
          "type": "uint256"
        }
      ],
      "stateMutability": "view",
      "type": "function"
    },
    {
      "inputs": [
        {
          "internalType": "address",
          "name": "",
          "type": "address"
        }
      ],
      "name": "balances",
      "outputs": [
        {
          "internalType": "uint256",
          "name": "balance",
          "type": "uint256"
        },
        {
          "internalType": "uint256",
          "name": "refactoredCount",
          "type": "uint256"
        },
        {
          "internalType": "uint256",
          "name": "remain",
          "type": "uint256"
        }
      ],
      "stateMutability": "view",
      "type": "function"
    },
    {
      "inputs": [
        {
          "internalType": "uint256",
          "name": "amount",
          "type": "uint256"
        }
      ],
      "name": "burn",
      "outputs": [],
      "stateMutability": "nonpayable",
      "type": "function"
    },
    {
      "inputs": [
        {
          "internalType": "address",
          "name": "account",
          "type": "address"
        },
        {
          "internalType": "uint256",
          "name": "amount",
          "type": "uint256"
        }
      ],
      "name": "burnFrom",
      "outputs": [],
      "stateMutability": "nonpayable",
      "type": "function"
    },
    {
      "inputs": [],
      "name": "decimals",
      "outputs": [
        {
          "internalType": "uint8",
          "name": "",
          "type": "uint8"
        }
      ],
      "stateMutability": "pure",
      "type": "function"
    },
    {
      "inputs": [],
      "name": "factor",
      "outputs": [
        {
          "internalType": "uint256",
          "name": "",
          "type": "uint256"
        }
      ],
      "stateMutability": "view",
      "type": "function"
    },
    {
      "inputs": [
        {
          "internalType": "bytes32",
          "name": "role",
          "type": "bytes32"
        }
      ],
      "name": "getRoleAdmin",
      "outputs": [
        {
          "internalType": "bytes32",
          "name": "",
          "type": "bytes32"
        }
      ],
      "stateMutability": "view",
      "type": "function"
    },
    {
      "inputs": [
        {
          "internalType": "bytes32",
          "name": "role",
          "type": "bytes32"
        },
        {
          "internalType": "address",
          "name": "account",
          "type": "address"
        }
      ],
      "name": "grantRole",
      "outputs": [],
      "stateMutability": "nonpayable",
      "type": "function"
    },
    {
      "inputs": [
        {
          "internalType": "bytes32",
          "name": "role",
          "type": "bytes32"
        },
        {
          "internalType": "address",
          "name": "account",
          "type": "address"
        }
      ],
      "name": "hasRole",
      "outputs": [
        {
          "internalType": "bool",
          "name": "",
          "type": "bool"
        }
      ],
      "stateMutability": "view",
      "type": "function"
    },
    {
      "inputs": [
        {
          "internalType": "string",
          "name": "name_",
          "type": "string"
        },
        {
          "internalType": "string",
          "name": "symbol_",
          "type": "string"
        },
        {
          "internalType": "uint256",
          "name": "factor_",
          "type": "uint256"
        },
        {
          "internalType": "address",
          "name": "seigManager_",
          "type": "address"
        }
      ],
      "name": "initialize",
      "outputs": [],
      "stateMutability": "nonpayable",
      "type": "function"
    },
    {
      "inputs": [
        {
          "internalType": "address",
          "name": "account",
          "type": "address"
        }
      ],
      "name": "isAdmin",
      "outputs": [
        {
          "internalType": "bool",
          "name": "",
          "type": "bool"
        }
      ],
      "stateMutability": "view",
      "type": "function"
    },
    {
      "inputs": [
        {
          "internalType": "address",
          "name": "account",
          "type": "address"
        }
      ],
      "name": "isMinter",
      "outputs": [
        {
          "internalType": "bool",
          "name": "",
          "type": "bool"
        }
      ],
      "stateMutability": "view",
      "type": "function"
    },
    {
      "inputs": [
        {
          "internalType": "address",
          "name": "account",
          "type": "address"
        }
      ],
      "name": "isOperator",
      "outputs": [
        {
          "internalType": "bool",
          "name": "",
          "type": "bool"
        }
      ],
      "stateMutability": "view",
      "type": "function"
    },
    {
      "inputs": [],
      "name": "isOwner",
      "outputs": [
        {
          "internalType": "bool",
          "name": "",
          "type": "bool"
        }
      ],
      "stateMutability": "view",
      "type": "function"
    },
    {
      "inputs": [
        {
          "internalType": "address",
          "name": "account",
          "type": "address"
        },
        {
          "internalType": "uint256",
          "name": "amount",
          "type": "uint256"
        }
      ],
      "name": "mint",
      "outputs": [
        {
          "internalType": "bool",
          "name": "",
          "type": "bool"
        }
      ],
      "stateMutability": "nonpayable",
      "type": "function"
    },
    {
      "inputs": [],
      "name": "name",
      "outputs": [
        {
          "internalType": "string",
          "name": "",
          "type": "string"
        }
      ],
      "stateMutability": "view",
      "type": "function"
    },
    {
      "inputs": [],
      "name": "pauseProxy",
      "outputs": [
        {
          "internalType": "bool",
          "name": "",
          "type": "bool"
        }
      ],
      "stateMutability": "view",
      "type": "function"
    },
    {
      "inputs": [
        {
          "internalType": "uint256",
          "name": "",
          "type": "uint256"
        }
      ],
      "name": "proxyImplementation",
      "outputs": [
        {
          "internalType": "address",
          "name": "",
          "type": "address"
        }
      ],
      "stateMutability": "view",
      "type": "function"
    },
    {
      "inputs": [],
      "name": "refactorCount",
      "outputs": [
        {
          "internalType": "uint256",
          "name": "",
          "type": "uint256"
        }
      ],
      "stateMutability": "view",
      "type": "function"
    },
    {
      "inputs": [
        {
          "internalType": "address",
          "name": "account",
          "type": "address"
        }
      ],
      "name": "removeAdmin",
      "outputs": [],
      "stateMutability": "nonpayable",
      "type": "function"
    },
    {
      "inputs": [
        {
          "internalType": "address",
          "name": "account",
          "type": "address"
        }
      ],
      "name": "removeMinter",
      "outputs": [],
      "stateMutability": "nonpayable",
      "type": "function"
    },
    {
      "inputs": [
        {
          "internalType": "address",
          "name": "account",
          "type": "address"
        }
      ],
      "name": "removeOperator",
      "outputs": [],
      "stateMutability": "nonpayable",
      "type": "function"
    },
    {
      "inputs": [],
      "name": "renounceMinter",
      "outputs": [],
      "stateMutability": "nonpayable",
      "type": "function"
    },
    {
      "inputs": [],
      "name": "renounceOperator",
      "outputs": [],
      "stateMutability": "nonpayable",
      "type": "function"
    },
    {
      "inputs": [],
      "name": "renounceOwnership",
      "outputs": [],
      "stateMutability": "nonpayable",
      "type": "function"
    },
    {
      "inputs": [
        {
          "internalType": "bytes32",
          "name": "role",
          "type": "bytes32"
        },
        {
          "internalType": "address",
          "name": "account",
          "type": "address"
        }
      ],
      "name": "renounceRole",
      "outputs": [],
      "stateMutability": "nonpayable",
      "type": "function"
    },
    {
      "inputs": [
        {
          "internalType": "address",
          "name": "account",
          "type": "address"
        }
      ],
      "name": "revokeMinter",
      "outputs": [],
      "stateMutability": "nonpayable",
      "type": "function"
    },
    {
      "inputs": [
        {
          "internalType": "address",
          "name": "account",
          "type": "address"
        }
      ],
      "name": "revokeOperator",
      "outputs": [],
      "stateMutability": "nonpayable",
      "type": "function"
    },
    {
      "inputs": [
        {
          "internalType": "bytes32",
          "name": "role",
          "type": "bytes32"
        },
        {
          "internalType": "address",
          "name": "account",
          "type": "address"
        }
      ],
      "name": "revokeRole",
      "outputs": [],
      "stateMutability": "nonpayable",
      "type": "function"
    },
    {
      "inputs": [],
      "name": "seigManager",
      "outputs": [
        {
          "internalType": "address",
          "name": "",
          "type": "address"
        }
      ],
      "stateMutability": "view",
      "type": "function"
    },
    {
      "inputs": [
        {
          "internalType": "bytes4",
          "name": "",
          "type": "bytes4"
        }
      ],
      "name": "selectorImplementation",
      "outputs": [
        {
          "internalType": "address",
          "name": "",
          "type": "address"
        }
      ],
      "stateMutability": "view",
      "type": "function"
    },
    {
      "inputs": [
        {
          "internalType": "uint256",
          "name": "factor_",
          "type": "uint256"
        }
      ],
      "name": "setFactor",
      "outputs": [
        {
          "internalType": "bool",
          "name": "",
          "type": "bool"
        }
      ],
      "stateMutability": "nonpayable",
      "type": "function"
    },
    {
      "inputs": [
        {
          "internalType": "address",
          "name": "_seigManager",
          "type": "address"
        }
      ],
      "name": "setSeigManager",
      "outputs": [],
      "stateMutability": "nonpayable",
      "type": "function"
    },
    {
      "inputs": [
        {
          "internalType": "bytes4",
          "name": "interfaceId",
          "type": "bytes4"
        }
      ],
      "name": "supportsInterface",
      "outputs": [
        {
          "internalType": "bool",
          "name": "",
          "type": "bool"
        }
      ],
      "stateMutability": "view",
      "type": "function"
    },
    {
      "inputs": [],
      "name": "symbol",
      "outputs": [
        {
          "internalType": "string",
          "name": "",
          "type": "string"
        }
      ],
      "stateMutability": "view",
      "type": "function"
    },
    {
      "inputs": [],
      "name": "totalSupply",
      "outputs": [
        {
          "internalType": "uint256",
          "name": "",
          "type": "uint256"
        }
      ],
      "stateMutability": "view",
      "type": "function"
    },
    {
      "inputs": [
        {
          "internalType": "address",
          "name": "newAdmin",
          "type": "address"
        }
      ],
      "name": "transferAdmin",
      "outputs": [],
      "stateMutability": "nonpayable",
      "type": "function"
    },
    {
      "inputs": [
        {
          "internalType": "address",
          "name": "newAdmin",
          "type": "address"
        }
      ],
      "name": "transferOwnership",
      "outputs": [],
      "stateMutability": "nonpayable",
      "type": "function"
    }
  ],
  "bytecode": "0x6080806040523461001657612176908161001c8239f35b600080fdfe608060408181526004918236101561001657600080fd5b600092833560e01c918262d87a9c146116625750816301ffc9a7146115e6578163024c2ddd1461159d57816306fdde03146114f35781631785f53c146114c557816318160ddd14611495578163248a9ca31461146a57816324d7806c1461142457816327e235e3146113c85781632ab6f8db146113ae5781632f2ff15d146113135781633092afd5146112e5578163313ce567146112c957816336568abe146112375781633eaaf86b1461120457816340c10f191461105c57816342966c681461103e57816350d2a27614610ffa57816354f703f814610fce578163550d01a314610f9057816363a8fd8914610f6e5781636d15061114610f4f5781636d70f7ae14610efb5781636fb7f55814610ed25781637048027514610e2f57816370a0823114610e02578163715018a614610ddc57816375829def14610dbf5781637657f20a14610d6157816379cc679014610d0c578163817e9d3114610c355781638f32d59b14610c0257816391d1485414610bbb57816395d89b4114610ada578163983b2d5614610a8a5781639865027514610a705781639870d7fe146109bd578163a217fddf146109a2578163a7ac30b014610983578163aa271e1a1461092f578163ac8a584a146108fe578163b7c246d7146108d7578163b911135f146108a4578163bd3a13f614610537578163cfbd4885146104e7578163d5391393146104be578163d547741f14610482578163f2fde38b1461033e57508063f5b541a6146103165763fad8b32a1461024a57600080fd5b34610312576020908160031936011261030e5761026561167d565b90610277610272336117c6565b611dae565b60008051602061214a833981519152928385526005815261029d60018387200154611803565b838552600581528185206001600160a01b039093168086529281528185205460ff166102c7578480f35b8385526005815281852083865290528320805460ff1916905533917ff6391f5c32d9c69d2a47ea670b442974b53935d1edc7fd64eb21e047a839171b8480a4388080808480f35b8280fd5b5080fd5b50346103125781600319360112610312576020905160008051602061214a8339815191528152f35b9190503461030e5760208060031936011261047e5761035b61167d565b610367610272336117c6565b610373610272336117c6565b6001600160a01b031692831561043d578333146104035750838052600581526103a160018386200154611803565b83805260058152818420838552815260ff8285205416156103ca575b836103c733611b32565b80f35b8380526005815281842083855290528220805460ff1916600117905533908260008051602061210a8339815191528180a43880806103bd565b915162461bcd60e51b815291820152601660248201527520b1b1b2b9b9b4b136329d1039b0b6b29030b236b4b760511b6044820152606490fd5b915162461bcd60e51b815291820152601860248201527f41636365737369626c653a207a65726f206164647265737300000000000000006044820152606490fd5b8380fd5b9190503461030e578060031936011261030e576103c791356104b960016104a7611698565b93838752600560205286200154611803565b611d20565b5050346103125781600319360112610312576020905160008051602061212a8339815191528152f35b505034610312576020908160031936011261030e5761050461167d565b90610511610272336117c6565b60008051602061212a833981519152928385526005815261029d60018387200154611803565b8383346103125760803660031901126103125767ffffffffffffffff833581811161047e57610569903690860161176f565b6024358281116108a057610580903690870161176f565b946064356001600160a01b038116949085900361089c57600c546108635750815183811161085057806105b4600e546116ae565b93601f948581116107e4575b50602090858311600114610761578892610756575b50508160011b916000199060031b1c191617600e555b85519283116107435750610600600f546116ae565b8181116106e3575b50602090821160011461066257839482939492610657575b50508160011b916000199060031b1c191617600f555b604435600c556bffffffffffffffffffffffff60a01b600654161760065580f35b015190508480610620565b600f84527f8d1108e10bcb7c27dddfc02ed9d693a074039d026cf4ea4240b40f7d581ac80290601f198316855b8181106106cb575095836001959697106106b2575b505050811b01600f55610636565b015160001960f88460031b161c191690558480806106a4565b9192602060018192868b01518155019401920161068f565b600f85527f8d1108e10bcb7c27dddfc02ed9d693a074039d026cf4ea4240b40f7d581ac8028280850160051c8201926020861061073a575b0160051c01905b81811061072f5750610608565b858155600101610722565b9250819261071b565b634e487b7160e01b855260419052602484fd5b0151905088806105d5565b600e89527fbb7b4a454dc3493923482f07822329ed19e8244eff582cc204f8554c3620c3fd9250601f198416895b8181106107cc57509084600195949392106107b3575b505050811b01600e556105eb565b015160001960f88460031b161c191690558880806107a5565b9293602060018192878601518155019501930161078f565b909150600e88527fbb7b4a454dc3493923482f07822329ed19e8244eff582cc204f8554c3620c3fd8580850160051c82019260208610610847575b9085949392910160051c01905b81811061083957506105c0565b89815584935060010161082c565b9250819261081f565b634e487b7160e01b865260418252602486fd5b906020606492519162461bcd60e51b83528201526013602482015272185b1c9958591e481a5b9a5d1a585b1a5e9959606a1b6044820152fd5b8580fd5b8480fd5b90503461030e57602036600319011261030e5735825260016020908152918190205490516001600160a01b039091168152f35b505034610312578160031936011261031257602090516b204fce5e3e250261100000008152f35b833461092c57602036600319011261092c576103c761091b61167d565b610927610272336117c6565b611c21565b80fd5b5050346103125760203660031901126103125760ff8160209361095061167d565b60008051602061212a8339815191528252600586528282206001600160a01b039091168252855220549151911615158152f35b5050346103125781600319360112610312576020906007549051908152f35b50503461031257816003193601126103125751908152602090f35b505034610312576020908160031936011261030e576109da61167d565b906109e7610272336117c6565b60008051602061214a8339815191529283855260058152610a0d60018387200154611803565b838552600581528185206001600160a01b039093168086529281528185205460ff1615610a38578480f35b8385526005815281852083865290528320805460ff19166001179055339160008051602061210a8339815191528480a4388080808480f35b833461092c578060031936011261092c576103c733611cc3565b505034610312576020908160031936011261030e57610aa761167d565b90610ab4610272336117c6565b60008051602061212a8339815191529283855260058152610a0d60018387200154611803565b50503461031257816003193601126103125780519082600f54610afc816116ae565b80855291600191808316908115610b935750600114610b36575b505050610b2882610b329403836116e8565b5191829182611743565b0390f35b9450600f85527f8d1108e10bcb7c27dddfc02ed9d693a074039d026cf4ea4240b40f7d581ac8025b828610610b7b57505050610b28826020610b329582010194610b16565b80546020878701810191909152909501948101610b5e565b610b32975086935060209250610b2894915060ff191682840152151560051b82010194610b16565b90503461030e578160031936011261030e578160209360ff92610bdc611698565b90358252600586528282206001600160a01b039091168252855220549151911615158152f35b50503461031257816003193601126103125760ff8183806020955260058552818120338252855220541690519015158152f35b82843461092c57602036600319011261092c57918280526005602052818320338452602052610c6960ff8385205416611dae565b600c549083908035945b6b204fce5e3e25026110000000861015610cdf576020857f47eb304b27f9efb047a046029f8a279a7cc8fccc6786f1e2f65939639584fbdc8887610cd5888060075583600c558551938493846040919493926060820195825260208201520152565b0390a15160018152f35b9094916000198114610cf9576001019160011c9490610c73565b634e487b7160e01b825260118652602482fd5b5050346103125780600319360112610312576103c790610d5860ff610d2f61167d565b9260008051602061212a8339815191528652600560205280862033875260205285205416611e26565b60243590611edc565b50503461031257602036600319011261031257610d9c60ff610d8161167d565b92848052600560205280852033865260205284205416611dae565b60018060a01b03166bffffffffffffffffffffffff60a01b600654161760065580f35b9190503461030e5760208060031936011261047e5761036761167d565b833461092c578060031936011261092c57610df9610272336117c6565b6103c733611b32565b50503461031257602036600319011261031257602090610e28610e2361167d565b611e99565b9051908152f35b505034610312576020908160031936011261030e57610e4c61167d565b91610e59610272336117c6565b83805260058152610e6f60018386200154611803565b838052600581528184206001600160a01b039093168085529281528184205460ff1615610e9a578380f35b8380526005815281842083855290528220805460ff1916600117905533908260008051602061210a8339815191528180a43880808380f35b50503461031257816003193601126103125760065490516001600160a01b039091168152602090f35b5050346103125760203660031901126103125760ff81602093610f1c61167d565b60008051602061214a8339815191528252600586528282206001600160a01b039091168252855220549151911615158152f35b505034610312578160031936011261031257602090600c549051908152f35b50503461031257816003193601126103125760ff602092541690519015158152f35b5050346103125760203660031901126103125760209160ff9082906001600160a01b03610fbb61167d565b1681526002855220541690519015158152f35b505034610312578160031936011261031257602090610e28600c54610ff4600754611e7e565b90611d51565b90503461030e57602036600319011261030e573563ffffffff60e01b811680910361030e57825260036020908152918190205490516001600160a01b039091168152f35b839034610312576020366003190112610312576103c7903533611edc565b90503461030e578160031936011261030e5761107661167d565b926024359360008051602061212a83398151915282526020946005865284832033845286526110aa60ff8685205416611e26565b6001600160a01b0382169384156111ab57506b033b2e3c9fd0803ce800000061119d61112b7fddf252ad1be2c89b69c2b068fc378daa952ba7f163c4a11628f55a4df523b3ef9487898060018a6111568f9a61114b9087845260088d5261113061111f8261111a8988209c611e99565b611d7a565b61112b600c549161206d565b611e06565b98898155600754958691015561111a600954600a549061201f565b600c5498899161206d565b8060095582600a558351908152828b8201527f9cf9f9619f0acaac17f277688f6a81e51c86a956fd3a54ed5498e71bfb4c9163948591a281519085825289820152a26120d2565b048551908152a35160018152f35b855162461bcd60e51b8152908101879052602d60248201527f4175746f5265666163746f72436f696e6167653a206d696e7420746f2074686560448201526c207a65726f206164647265737360981b6064820152608490fd5b82843461092c578060031936011261092c5750600954600a54600b54925191825260208201526040810191909152606090f35b83915034610312578260031936011261031257611252611698565b90336001600160a01b0383160361126e57906103c79135611d20565b608490602085519162461bcd60e51b8352820152602f60248201527f416363657373436f6e74726f6c3a2063616e206f6e6c792072656e6f756e636560448201526e103937b632b9903337b91039b2b63360891b6064820152fd5b50503461031257816003193601126103125760209051601b8152f35b833461092c57602036600319011261092c576103c761130261167d565b61130e610272336117c6565b611cc3565b90503461030e578160031936011261030e57359061132f611698565b90828452600560205261134760018286200154611803565b828452600560209081528185206001600160a01b039093168086529290528084205460ff1615611375578380f35b82845260056020528084208285526020528320600160ff19825416179055339160008051602061210a8339815191528480a43880808380f35b833461092c578060031936011261092c576103c733611c21565b505034610312576020366003190112610312579081906001600160a01b036113ee61167d565b16815260086020522090610b32825491600260018501549401549051938493846040919493926060820195825260208201520152565b5050346103125760203660031901126103125760ff8160209361144561167d565b818052600586528282206001600160a01b039091168252855220549151911615158152f35b90503461030e57602036600319011261030e5781602093600192358152600585522001549051908152f35b505034610312578160031936011261031257602090610e286114bc600954600a549061201f565b600b5490611d7a565b833461092c57602036600319011261092c576103c76114e261167d565b6114ee610272336117c6565b611b32565b50503461031257816003193601126103125780519082600e54611515816116ae565b80855291600191808316908115610b93575060011461154057505050610b2882610b329403836116e8565b9450600e85527fbb7b4a454dc3493923482f07822329ed19e8244eff582cc204f8554c3620c3fd5b82861061158557505050610b28826020610b329582010194610b16565b80546020878701810191909152909501948101611568565b505034610312578060031936011261031257806020926115bb61167d565b6115c3611698565b6001600160a01b0391821683526010865283832091168252845220549051908152f35b90503461030e57602036600319011261030e57803563ffffffff60e01b811680910361047e57602093637965db0b60e01b821492831561162d575b50505090519015158152f35b6301ffc9a760e01b831493508492841561164e575b50505050388080611621565b60ff94508252855220541681388080611642565b84903461031257816003193601126103125780600260209252f35b600435906001600160a01b038216820361169357565b600080fd5b602435906001600160a01b038216820361169357565b90600182811c921680156116de575b60208310146116c857565b634e487b7160e01b600052602260045260246000fd5b91607f16916116bd565b90601f8019910116810190811067ffffffffffffffff82111761170a57604052565b634e487b7160e01b600052604160045260246000fd5b60005b8381106117335750506000910152565b8181015183820152602001611723565b604091602082526117638151809281602086015260208686019101611720565b601f01601f1916010190565b81601f820112156116935780359067ffffffffffffffff821161170a57604051926117a4601f8401601f1916602001856116e8565b8284526020838301011161169357816000926020809301838601378301015290565b6001600160a01b031660009081527f05b8ccbb9d4d8fb16ea74ce3c29a41f1b461fbdaff4714a0d9a8eb05499746bc602052604090205460ff1690565b600081815260209060058252604092838220338352835260ff84832054161561182c5750505050565b835167ffffffffffffffff9190336060820184811183821017611b1e578752602a82528582019287368537825115611b0a5760308453825191600192831015611af6576078602185015360295b838111611a8c5750611a4a5790875194608086019086821090821117611a3657885260428552868501956060368837855115611a2257603087538551821015611a225790607860218701536041915b8183116119b45750505061197257938593611958936119496048946119207f416363657373436f6e74726f6c3a206163636f756e74200000000000000000009961196e9b519a8b978801525180926037880190611720565b8401917001034b99036b4b9b9b4b733903937b6329607d1b603784015251809386840190611720565b010360288101855201836116e8565b5162461bcd60e51b815291829160048301611743565b0390fd5b60648587519062461bcd60e51b825280600483015260248201527f537472696e67733a20686578206c656e67746820696e73756666696369656e746044820152fd5b909192600f81166010811015611a0e576f181899199a1a9b1b9c1cb0b131b232b360811b901a6119e48589611d87565b5360041c9280156119fa576000190191906118c8565b634e487b7160e01b82526011600452602482fd5b634e487b7160e01b83526032600452602483fd5b634e487b7160e01b81526032600452602490fd5b634e487b7160e01b87526041600452602487fd5b60648789519062461bcd60e51b825280600483015260248201527f537472696e67733a20686578206c656e67746820696e73756666696369656e746044820152fd5b90600f81166010811015611ae2576f181899199a1a9b1b9c1cb0b131b232b360811b901a611aba8387611d87565b5360041c908015611ace5760001901611879565b634e487b7160e01b88526011600452602488fd5b634e487b7160e01b89526032600452602489fd5b634e487b7160e01b87526032600452602487fd5b634e487b7160e01b86526032600452602486fd5b634e487b7160e01b86526041600452602486fd5b6001600160a01b0316338103611bc45760008181527f05b8ccbb9d4d8fb16ea74ce3c29a41f1b461fbdaff4714a0d9a8eb05499746bc602052604081205490919060ff16611b7e575050565b8180526005602052604082208183526020526040822060ff19815416905533917ff6391f5c32d9c69d2a47ea670b442974b53935d1edc7fd64eb21e047a839171b8180a4565b60405162461bcd60e51b815260206004820152602f60248201527f416363657373436f6e74726f6c3a2063616e206f6e6c792072656e6f756e636560448201526e103937b632b9903337b91039b2b63360891b6064820152608490fd5b6001600160a01b0316338103611bc45760008181527f02634a7c777b8129955fe1824eee49ef19dfa96f2f4cb63212492c3d84eb58e6602052604081205490919060008051602061214a8339815191529060ff16611c7e57505050565b8083526005602052604083208284526020526040832060ff1981541690557ff6391f5c32d9c69d2a47ea670b442974b53935d1edc7fd64eb21e047a839171b339380a4565b6001600160a01b0316338103611bc45760008181527fca0a2f641ec05ca23127d994cf03ffc453db616acae0b86cb56bb95304d06854602052604081205490919060008051602061212a8339815191529060ff16611c7e57505050565b906000918083526005602052604083209160018060a01b03169182845260205260ff604084205416611c7e57505050565b81810292918115918404141715611d6457565b634e487b7160e01b600052601160045260246000fd5b91908201809211611d6457565b908151811015611d98570160200190565b634e487b7160e01b600052603260045260246000fd5b15611db557565b60405162461bcd60e51b815260206004820152602360248201527f41757468436f6e74726f6c3a2043616c6c6572206973206e6f7420616e20616460448201526236b4b760e91b6064820152608490fd5b8115611e10570490565b634e487b7160e01b600052601260045260246000fd5b15611e2d57565b60405162461bcd60e51b815260206004820152602360248201527f41757468436f6e74726f6c3a2043616c6c6572206973206e6f742061206d696e6044820152623a32b960e91b6064820152608490fd5b8015611e935760ff8111611d64576001901b90565b50600190565b60018060a01b03166000526008602052611ecc60406000206002611ec3825460018401549061201f565b91015490611d7a565b90565b91908203918211611d6457565b6001600160a01b038116908115611fc2576020611f726b033b2e3c9fd0803ce8000000611fb961112b7fddf252ad1be2c89b69c2b068fc378daa952ba7f163c4a11628f55a4df523b3ef958761114b60009a828c526008895260018c6040998a9484611f5761111f8897611f528988209c611e99565b611ecf565b988981556007549586910155611f52600954600a549061201f565b8060095582600a558351908152828c8201527f9cf9f9619f0acaac17f277688f6a81e51c86a956fd3a54ed5498e71bfb4c9163948591a28151908582528a820152a26120d2565b049051908152a3565b60405162461bcd60e51b815260206004820152602f60248201527f4175746f5265666163746f72436f696e6167653a206275726e2066726f6d207460448201526e6865207a65726f206164647265737360881b6064820152608490fd5b80156120665761203f6b033b2e3c9fd0803ce800000091600c54906120d2565b049060075481811161205057505090565b612061611ecc9392610ff492611ecf565b611e7e565b5050600090565b906b033b2e3c9fd0803ce80000009182810292818404811482151715611d645783040361209657565b60405162461bcd60e51b815260206004820152601460248201527364732d6d6174682d6d756c2d6f766572666c6f7760601b6044820152606490fd5b6000929180159182156120e9575b50501561209657565b915092506121016120fa8483611d51565b9384611e06565b1438806120e056fe2f8788117e7eff1d82e926ec794901d17c78024a50270940304540a733656f0df0887ba65ee2024ea881d91b74c2450ef19e1557f03bed3ea9f16b037cbe2dc9523a704056dcd17bcf83bed8b68c59416dac1119be77755efe3bde0a64e46e0ca164736f6c6343000812000a",
  "linkReferences": {},
  "deployedLinkReferences": {}
}