{
  "_format": "hh-sol-artifact-1",
  "contractName": "CandidateFactoryStorage",
  "sourceName": "contracts/dao/factory/CandidateFactoryStorage.sol",
  "abi": [
    {
      "inputs": [],
      "name": "candidateImp",
      "outputs": [
        {
          "internalType": "address",
          "name": "",
          "type": "address"
        }
      ],
      "stateMutability": "view",
      "type": "function"
    },
    {
      "inputs": [],
      "name": "daoCommittee",
      "outputs": [
        {
          "internalType": "address",
          "name": "",
          "type": "address"
        }
      ],
      "stateMutability": "view",
      "type": "function"
    },
    {
      "inputs": [],
      "name": "depositManager",
      "outputs": [
        {
          "internalType": "address",
          "name": "",
          "type": "address"
        }
      ],
      "stateMutability": "view",
      "type": "function"
    },
    {
      "inputs": [],
      "name": "ton",
      "outputs": [
        {
          "internalType": "address",
          "name": "",
          "type": "address"
        }
      ],
      "stateMutability": "view",
      "type": "function"
    },
    {
      "inputs": [],
      "name": "wton",
      "outputs": [
        {
          "internalType": "address",
          "name": "",
          "type": "address"
        }
      ],
      "stateMutability": "view",
      "type": "function"
    }
  ],
  "bytecode": "0x6080806040523461001657610133908161001c8239f35b600080fdfe608080604052600436101561001357600080fd5b600090813560e01c9081636c7ac9d8146100fe5750806383eeaa7b146100d55780638d62d949146100ac578063cc48b947146100835763eeac94311461005857600080fd5b346100805780600319360112610080576001546040516001600160a01b039091168152602090f35b80fd5b50346100805780600319360112610080576003546040516001600160a01b039091168152602090f35b50346100805780600319360112610080576004546040516001600160a01b039091168152602090f35b50346100805780600319360112610080576002546040516001600160a01b039091168152602090f35b90503461012257816003193601126101225790546001600160a01b03168152602090f35b5080fdfea164736f6c6343000812000a",
  "linkReferences": {},
  "deployedLinkReferences": {}
}