{
  "_format": "hh-sol-artifact-1",
  "contractName": "AutoRefactorCoinageProxy",
  "sourceName": "contracts/stake/tokens/AutoRefactorCoinageProxy.sol",
  "abi": [
    {
      "anonymous": false,
      "inputs": [
        {
          "indexed": true,
          "internalType": "bytes32",
          "name": "role",
          "type": "bytes32"
        },
        {
          "indexed": true,
          "internalType": "bytes32",
          "name": "previousAdminRole",
          "type": "bytes32"
        },
        {
          "indexed": true,
          "internalType": "bytes32",
          "name": "newAdminRole",
          "type": "bytes32"
        }
      ],
      "name": "RoleAdminChanged",
      "type": "event"
    },
    {
      "anonymous": false,
      "inputs": [
        {
          "indexed": true,
          "internalType": "bytes32",
          "name": "role",
          "type": "bytes32"
        },
        {
          "indexed": true,
          "internalType": "address",
          "name": "account",
          "type": "address"
        },
        {
          "indexed": true,
          "internalType": "address",
          "name": "sender",
          "type": "address"
        }
      ],
      "name": "RoleGranted",
      "type": "event"
    },
    {
      "anonymous": false,
      "inputs": [
        {
          "indexed": true,
          "internalType": "bytes32",
          "name": "role",
          "type": "bytes32"
        },
        {
          "indexed": true,
          "internalType": "address",
          "name": "account",
          "type": "address"
        },
        {
          "indexed": true,
          "internalType": "address",
          "name": "sender",
          "type": "address"
        }
      ],
      "name": "RoleRevoked",
      "type": "event"
    },
    {
      "anonymous": false,
      "inputs": [
        {
          "indexed": true,
          "internalType": "address",
          "name": "impl",
          "type": "address"
        },
        {
          "indexed": false,
          "internalType": "bool",
          "name": "alive",
          "type": "bool"
        }
      ],
      "name": "SetAliveImplementation",
      "type": "event"
    },
    {
      "anonymous": false,
      "inputs": [
        {
          "indexed": true,
          "internalType": "bytes4",
          "name": "selector",
          "type": "bytes4"
        },
        {
          "indexed": true,
          "internalType": "address",
          "name": "impl",
          "type": "address"
        }
      ],
      "name": "SetSelectorImplementation",
      "type": "event"
    },
    {
      "anonymous": false,
      "inputs": [
        {
          "indexed": true,
          "internalType": "address",
          "name": "implementation",
          "type": "address"
        }
      ],
      "name": "Upgraded",
      "type": "event"
    },
    {
      "stateMutability": "payable",
      "type": "fallback"
    },
    {
      "inputs": [],
      "name": "DEFAULT_ADMIN_ROLE",
      "outputs": [
        {
          "internalType": "bytes32",
          "name": "",
          "type": "bytes32"
        }
      ],
      "stateMutability": "view",
      "type": "function"
    },
    {
      "inputs": [],
      "name": "MINTER_ROLE",
      "outputs": [
        {
          "internalType": "bytes32",
          "name": "",
          "type": "bytes32"
        }
      ],
      "stateMutability": "view",
      "type": "function"
    },
    {
      "inputs": [],
      "name": "OPERATOR_ROLE",
      "outputs": [
        {
          "internalType": "bytes32",
          "name": "",
          "type": "bytes32"
        }
      ],
      "stateMutability": "view",
      "type": "function"
    },
    {
      "inputs": [],
      "name": "REFACTOR_BOUNDARY",
      "outputs": [
        {
          "internalType": "uint256",
          "name": "",
          "type": "uint256"
        }
      ],
      "stateMutability": "view",
      "type": "function"
    },
    {
      "inputs": [],
      "name": "REFACTOR_DIVIDER",
      "outputs": [
        {
          "internalType": "uint256",
          "name": "",
          "type": "uint256"
        }
      ],
      "stateMutability": "view",
      "type": "function"
    },
    {
      "inputs": [
        {
          "internalType": "address",
          "name": "",
          "type": "address"
        },
        {
          "internalType": "address",
          "name": "",
          "type": "address"
        }
      ],
      "name": "_allowances",
      "outputs": [
        {
          "internalType": "uint256",
          "name": "",
          "type": "uint256"
        }
      ],
      "stateMutability": "view",
      "type": "function"
    },
    {
      "inputs": [],
      "name": "_factor",
      "outputs": [
        {
          "internalType": "uint256",
          "name": "",
          "type": "uint256"
        }
      ],
      "stateMutability": "view",
      "type": "function"
    },
    {
      "inputs": [],
      "name": "_totalSupply",
      "outputs": [
        {
          "internalType": "uint256",
          "name": "balance",
          "type": "uint256"
        },
        {
          "internalType": "uint256",
          "name": "refactoredCount",
          "type": "uint256"
        },
        {
          "internalType": "uint256",
          "name": "remain",
          "type": "uint256"
        }
      ],
      "stateMutability": "view",
      "type": "function"
    },
    {
      "inputs": [
        {
          "internalType": "address",
          "name": "account",
          "type": "address"
        }
      ],
      "name": "addAdmin",
      "outputs": [],
      "stateMutability": "nonpayable",
      "type": "function"
    },
    {
      "inputs": [
        {
          "internalType": "address",
          "name": "account",
          "type": "address"
        }
      ],
      "name": "addMinter",
      "outputs": [],
      "stateMutability": "nonpayable",
      "type": "function"
    },
    {
      "inputs": [
        {
          "internalType": "address",
          "name": "account",
          "type": "address"
        }
      ],
      "name": "addOperator",
      "outputs": [],
      "stateMutability": "nonpayable",
      "type": "function"
    },
    {
      "inputs": [
        {
          "internalType": "address",
          "name": "",
          "type": "address"
        }
      ],
      "name": "aliveImplementation",
      "outputs": [
        {
          "internalType": "bool",
          "name": "",
          "type": "bool"
        }
      ],
      "stateMutability": "view",
      "type": "function"
    },
    {
      "inputs": [
        {
          "internalType": "address",
          "name": "",
          "type": "address"
        }
      ],
      "name": "balances",
      "outputs": [
        {
          "internalType": "uint256",
          "name": "balance",
          "type": "uint256"
        },
        {
          "internalType": "uint256",
          "name": "refactoredCount",
          "type": "uint256"
        },
        {
          "internalType": "uint256",
          "name": "remain",
          "type": "uint256"
        }
      ],
      "stateMutability": "view",
      "type": "function"
    },
    {
      "inputs": [
        {
          "internalType": "bytes32",
          "name": "role",
          "type": "bytes32"
        }
      ],
      "name": "getRoleAdmin",
      "outputs": [
        {
          "internalType": "bytes32",
          "name": "",
          "type": "bytes32"
        }
      ],
      "stateMutability": "view",
      "type": "function"
    },
    {
      "inputs": [
        {
          "internalType": "bytes4",
          "name": "_selector",
          "type": "bytes4"
        }
      ],
      "name": "getSelectorImplementation2",
      "outputs": [
        {
          "internalType": "address",
          "name": "impl",
          "type": "address"
        }
      ],
      "stateMutability": "view",
      "type": "function"
    },
    {
      "inputs": [
        {
          "internalType": "bytes32",
          "name": "role",
          "type": "bytes32"
        },
        {
          "internalType": "address",
          "name": "account",
          "type": "address"
        }
      ],
      "name": "grantRole",
      "outputs": [],
      "stateMutability": "nonpayable",
      "type": "function"
    },
    {
      "inputs": [
        {
          "internalType": "bytes32",
          "name": "role",
          "type": "bytes32"
        },
        {
          "internalType": "address",
          "name": "account",
          "type": "address"
        }
      ],
      "name": "hasRole",
      "outputs": [
        {
          "internalType": "bool",
          "name": "",
          "type": "bool"
        }
      ],
      "stateMutability": "view",
      "type": "function"
    },
    {
      "inputs": [],
      "name": "implementation",
      "outputs": [
        {
          "internalType": "address",
          "name": "",
          "type": "address"
        }
      ],
      "stateMutability": "view",
      "type": "function"
    },
    {
      "inputs": [
        {
          "internalType": "uint256",
          "name": "_index",
          "type": "uint256"
        }
      ],
      "name": "implementation2",
      "outputs": [
        {
          "internalType": "address",
          "name": "",
          "type": "address"
        }
      ],
      "stateMutability": "view",
      "type": "function"
    },
    {
      "inputs": [
        {
          "internalType": "address",
          "name": "account",
          "type": "address"
        }
      ],
      "name": "isAdmin",
      "outputs": [
        {
          "internalType": "bool",
          "name": "",
          "type": "bool"
        }
      ],
      "stateMutability": "view",
      "type": "function"
    },
    {
      "inputs": [
        {
          "internalType": "address",
          "name": "account",
          "type": "address"
        }
      ],
      "name": "isMinter",
      "outputs": [
        {
          "internalType": "bool",
          "name": "",
          "type": "bool"
        }
      ],
      "stateMutability": "view",
      "type": "function"
    },
    {
      "inputs": [
        {
          "internalType": "address",
          "name": "account",
          "type": "address"
        }
      ],
      "name": "isOperator",
      "outputs": [
        {
          "internalType": "bool",
          "name": "",
          "type": "bool"
        }
      ],
      "stateMutability": "view",
      "type": "function"
    },
    {
      "inputs": [],
      "name": "isOwner",
      "outputs": [
        {
          "internalType": "bool",
          "name": "",
          "type": "bool"
        }
      ],
      "stateMutability": "view",
      "type": "function"
    },
    {
      "inputs": [],
      "name": "name",
      "outputs": [
        {
          "internalType": "string",
          "name": "",
          "type": "string"
        }
      ],
      "stateMutability": "view",
      "type": "function"
    },
    {
      "inputs": [],
      "name": "pauseProxy",
      "outputs": [
        {
          "internalType": "bool",
          "name": "",
          "type": "bool"
        }
      ],
      "stateMutability": "view",
      "type": "function"
    },
    {
      "inputs": [
        {
          "internalType": "uint256",
          "name": "",
          "type": "uint256"
        }
      ],
      "name": "proxyImplementation",
      "outputs": [
        {
          "internalType": "address",
          "name": "",
          "type": "address"
        }
      ],
      "stateMutability": "view",
      "type": "function"
    },
    {
      "inputs": [],
      "name": "refactorCount",
      "outputs": [
        {
          "internalType": "uint256",
          "name": "",
          "type": "uint256"
        }
      ],
      "stateMutability": "view",
      "type": "function"
    },
    {
      "inputs": [
        {
          "internalType": "address",
          "name": "account",
          "type": "address"
        }
      ],
      "name": "removeAdmin",
      "outputs": [],
      "stateMutability": "nonpayable",
      "type": "function"
    },
    {
      "inputs": [
        {
          "internalType": "address",
          "name": "account",
          "type": "address"
        }
      ],
      "name": "removeMinter",
      "outputs": [],
      "stateMutability": "nonpayable",
      "type": "function"
    },
    {
      "inputs": [
        {
          "internalType": "address",
          "name": "account",
          "type": "address"
        }
      ],
      "name": "removeOperator",
      "outputs": [],
      "stateMutability": "nonpayable",
      "type": "function"
    },
    {
      "inputs": [],
      "name": "renounceMinter",
      "outputs": [],
      "stateMutability": "nonpayable",
      "type": "function"
    },
    {
      "inputs": [],
      "name": "renounceOperator",
      "outputs": [],
      "stateMutability": "nonpayable",
      "type": "function"
    },
    {
      "inputs": [],
      "name": "renounceOwnership",
      "outputs": [],
      "stateMutability": "nonpayable",
      "type": "function"
    },
    {
      "inputs": [
        {
          "internalType": "bytes32",
          "name": "role",
          "type": "bytes32"
        },
        {
          "internalType": "address",
          "name": "account",
          "type": "address"
        }
      ],
      "name": "renounceRole",
      "outputs": [],
      "stateMutability": "nonpayable",
      "type": "function"
    },
    {
      "inputs": [
        {
          "internalType": "address",
          "name": "account",
          "type": "address"
        }
      ],
      "name": "revokeMinter",
      "outputs": [],
      "stateMutability": "nonpayable",
      "type": "function"
    },
    {
      "inputs": [
        {
          "internalType": "address",
          "name": "account",
          "type": "address"
        }
      ],
      "name": "revokeOperator",
      "outputs": [],
      "stateMutability": "nonpayable",
      "type": "function"
    },
    {
      "inputs": [
        {
          "internalType": "bytes32",
          "name": "role",
          "type": "bytes32"
        },
        {
          "internalType": "address",
          "name": "account",
          "type": "address"
        }
      ],
      "name": "revokeRole",
      "outputs": [],
      "stateMutability": "nonpayable",
      "type": "function"
    },
    {
      "inputs": [],
      "name": "seigManager",
      "outputs": [
        {
          "internalType": "address",
          "name": "",
          "type": "address"
        }
      ],
      "stateMutability": "view",
      "type": "function"
    },
    {
      "inputs": [
        {
          "internalType": "bytes4",
          "name": "",
          "type": "bytes4"
        }
      ],
      "name": "selectorImplementation",
      "outputs": [
        {
          "internalType": "address",
          "name": "",
          "type": "address"
        }
      ],
      "stateMutability": "view",
      "type": "function"
    },
    {
      "inputs": [
        {
          "internalType": "address",
          "name": "newImplementation",
          "type": "address"
        },
        {
          "internalType": "bool",
          "name": "_alive",
          "type": "bool"
        }
      ],
      "name": "setAliveImplementation2",
      "outputs": [],
      "stateMutability": "nonpayable",
      "type": "function"
    },
    {
      "inputs": [
        {
          "internalType": "address",
          "name": "newImplementation",
          "type": "address"
        },
        {
          "internalType": "uint256",
          "name": "_index",
          "type": "uint256"
        },
        {
          "internalType": "bool",
          "name": "_alive",
          "type": "bool"
        }
      ],
      "name": "setImplementation2",
      "outputs": [],
      "stateMutability": "nonpayable",
      "type": "function"
    },
    {
      "inputs": [
        {
          "internalType": "bool",
          "name": "_pause",
          "type": "bool"
        }
      ],
      "name": "setProxyPause",
      "outputs": [],
      "stateMutability": "nonpayable",
      "type": "function"
    },
    {
      "inputs": [
        {
          "internalType": "bytes4[]",
          "name": "_selectors",
          "type": "bytes4[]"
        },
        {
          "internalType": "address",
          "name": "_imp",
          "type": "address"
        }
      ],
      "name": "setSelectorImplementations2",
      "outputs": [],
      "stateMutability": "nonpayable",
      "type": "function"
    },
    {
      "inputs": [
        {
          "internalType": "bytes4",
          "name": "interfaceId",
          "type": "bytes4"
        }
      ],
      "name": "supportsInterface",
      "outputs": [
        {
          "internalType": "bool",
          "name": "",
          "type": "bool"
        }
      ],
      "stateMutability": "view",
      "type": "function"
    },
    {
      "inputs": [],
      "name": "symbol",
      "outputs": [
        {
          "internalType": "string",
          "name": "",
          "type": "string"
        }
      ],
      "stateMutability": "view",
      "type": "function"
    },
    {
      "inputs": [
        {
          "internalType": "address",
          "name": "newAdmin",
          "type": "address"
        }
      ],
      "name": "transferAdmin",
      "outputs": [],
      "stateMutability": "nonpayable",
      "type": "function"
    },
    {
      "inputs": [
        {
          "internalType": "address",
          "name": "newAdmin",
          "type": "address"
        }
      ],
      "name": "transferOwnership",
      "outputs": [],
      "stateMutability": "nonpayable",
      "type": "function"
    },
    {
      "inputs": [
        {
          "internalType": "address",
          "name": "impl",
          "type": "address"
        }
      ],
      "name": "upgradeTo",
      "outputs": [],
      "stateMutability": "nonpayable",
      "type": "function"
    },
    {
      "stateMutability": "payable",
      "type": "receive"
    }
  ],
  "bytecode": "0x60806040523480156200001157600080fd5b506200001f6000336200007f565b6200004c7ff0887ba65ee2024ea881d91b74c2450ef19e1557f03bed3ea9f16b037cbe2dc960006200008f565b620000797f523a704056dcd17bcf83bed8b68c59416dac1119be77755efe3bde0a64e46e0c60006200008f565b6200017e565b6200008b8282620000da565b5050565b600082815260056020526040808220600101805490849055905190918391839186917fbd79b86ffe0ab8e8776151514217cd7cacd52c909f66475c3af44e129f0b00ff9190a4505050565b60008281526005602090815260408083206001600160a01b038516845290915290205460ff166200008b5760008281526005602090815260408083206001600160a01b03851684529091529020805460ff191660011790556200013a3390565b6001600160a01b0316816001600160a01b0316837f2f8788117e7eff1d82e926ec794901d17c78024a50270940304540a733656f0d60405160405180910390a45050565b611c82806200018e6000396000f3fe6080604052600436106102965760003560e01c8063715018a61161015a578063a217fddf116100c1578063cfbd48851161007a578063cfbd4885146108ad578063d5391393146108cd578063d547741f146108ef578063f2fde38b1461090f578063f5b541a61461092f578063fad8b32a14610951576102df565b8063a217fddf146107ec578063a7ac30b014610801578063aa271e1a14610817578063ac8a584a14610837578063b7c246d714610857578063b911135f14610877576102df565b80638f32d59b116101135780638f32d59b1461074d57806391d148541461076257806395d89b4114610782578063983b2d561461079757806398650275146107b75780639870d7fe146107cc576102df565b8063715018a61461069857806375829def146106ad5780637cb00d25146106cd5780637cd5f663146106ed5780638b8f4a651461070d5780638d4fdb401461072d576102df565b80633659cfe6116101fe5780635cc797d8116101b75780635cc797d8146105e857806363a8fd89146106085780636d150611146106225780636d70f7ae146106385780636fb7f558146106585780637048027514610678576102df565b80633659cfe6146104d75780633eaaf86b146104f75780634a5df50f1461051657806350d2a27614610536578063550d01a3146105845780635c60da1b146105b4576102df565b806324d7806c1161025057806324d7806c146103eb57806327e235e31461040b5780632ab6f8db146104625780632f2ff15d146104775780633092afd51461049757806336568abe146104b7576102df565b8062d87a9c146102e957806301ffc9a714610311578063024c2ddd1461034157806306fdde03146103795780631785f53c1461039b578063248a9ca3146103bb576102df565b366102df5760405162461bcd60e51b815260206004820152601460248201527331b0b73737ba103932b1b2b4bb329022ba3432b960611b60448201526064015b60405180910390fd5b6102e7610971565b005b3480156102f557600080fd5b506102fe600281565b6040519081526020015b60405180910390f35b34801561031d57600080fd5b5061033161032c366004611854565b610a1a565b6040519015158152602001610308565b34801561034d57600080fd5b506102fe61035c36600461189a565b601060209081526000928352604080842090915290825290205481565b34801561038557600080fd5b5061038e610a2b565b60405161030891906118f1565b3480156103a757600080fd5b506102e76103b6366004611924565b610ab9565b3480156103c757600080fd5b506102fe6103d636600461193f565b60009081526005602052604090206001015490565b3480156103f757600080fd5b50610331610406366004611924565b610aec565b34801561041757600080fd5b50610447610426366004611924565b60086020526000908152604090208054600182015460029092015490919083565b60408051938452602084019290925290820152606001610308565b34801561046e57600080fd5b506102e7610af8565b34801561048357600080fd5b506102e7610492366004611958565b610b12565b3480156104a357600080fd5b506102e76104b2366004611924565b610b37565b3480156104c357600080fd5b506102e76104d2366004611958565b610b70565b3480156104e357600080fd5b506102e76104f2366004611924565b610bee565b34801561050357600080fd5b50600954600a54600b5461044792919083565b34801561052257600080fd5b506102e761053136600461197b565b610cfc565b34801561054257600080fd5b5061056c610551366004611854565b6003602052600090815260409020546001600160a01b031681565b6040516001600160a01b039091168152602001610308565b34801561059057600080fd5b5061033161059f366004611924565b60026020526000908152604090205460ff1681565b3480156105c057600080fd5b50600080526001602052600080516020611c16833981519152546001600160a01b031661056c565b3480156105f457600080fd5b506102e7610603366004611a0f565b610f63565b34801561061457600080fd5b506000546103319060ff1681565b34801561062e57600080fd5b506102fe600c5481565b34801561064457600080fd5b50610331610653366004611924565b610f92565b34801561066457600080fd5b5060065461056c906001600160a01b031681565b34801561068457600080fd5b506102e7610693366004611924565b610fac565b3480156106a457600080fd5b506102e7610fdc565b3480156106b957600080fd5b506102e76106c8366004611924565b61100c565b3480156106d957600080fd5b506102e76106e8366004611a39565b6110ee565b3480156106f957600080fd5b506102e7610708366004611a54565b611126565b34801561071957600080fd5b5061056c61072836600461193f565b611156565b34801561073957600080fd5b5061056c610748366004611854565b611173565b34801561075957600080fd5b50610331611212565b34801561076e57600080fd5b5061033161077d366004611958565b61121a565b34801561078e57600080fd5b5061038e611245565b3480156107a357600080fd5b506102e76107b2366004611924565b611252565b3480156107c357600080fd5b506102e761128f565b3480156107d857600080fd5b506102e76107e7366004611924565b6112a7565b3480156107f857600080fd5b506102fe600081565b34801561080d57600080fd5b506102fe60075481565b34801561082357600080fd5b50610331610832366004611924565b6112e4565b34801561084357600080fd5b506102e7610852366004611924565b6112fe565b34801561086357600080fd5b506102fe6b204fce5e3e2502611000000081565b34801561088357600080fd5b5061056c61089236600461193f565b6001602052600090815260409020546001600160a01b031681565b3480156108b957600080fd5b506102e76108c8366004611924565b61133b565b3480156108d957600080fd5b506102fe600080516020611c3683398151915281565b3480156108fb57600080fd5b506102e761090a366004611958565b611374565b34801561091b57600080fd5b506102e761092a366004611924565b611399565b34801561093b57600080fd5b506102fe600080516020611c5683398151915281565b34801561095d57600080fd5b506102e761096c366004611924565b6113c7565b60006109886000356001600160e01b031916611173565b90506001600160a01b038116158015906109a5575060005460ff16155b6109f15760405162461bcd60e51b815260206004820152601d60248201527f50726f78793a20696d706c204f522070726f78792069732066616c736500000060448201526064016102d6565b3660008037600080366000845af43d6000803e808015610a10573d6000f35b3d6000fd5b505050565b6000610a2582611404565b92915050565b600e8054610a3890611a87565b80601f0160208091040260200160405190810160405280929190818152602001828054610a6490611a87565b8015610ab15780601f10610a8657610100808354040283529160200191610ab1565b820191906000526020600020905b815481529060010190602001808311610a9457829003601f168201915b505050505081565b610ac233610aec565b610ade5760405162461bcd60e51b81526004016102d690611ac1565b610ae9600082610b70565b50565b6000610a25818361121a565b610b10600080516020611c5683398151915233610b70565b565b600082815260056020526040902060010154610b2d81611429565b610a158383611433565b610b4033610aec565b610b5c5760405162461bcd60e51b81526004016102d690611ac1565b610ae9600080516020611c36833981519152825b6001600160a01b0381163314610be05760405162461bcd60e51b815260206004820152602f60248201527f416363657373436f6e74726f6c3a2063616e206f6e6c792072656e6f756e636560448201526e103937b632b9903337b91039b2b63360891b60648201526084016102d6565b610bea82826114b9565b5050565b610bf733610aec565b610c135760405162461bcd60e51b81526004016102d690611ac1565b6001600160a01b038116610c595760405162461bcd60e51b815260206004820152600d60248201526c696e707574206973207a65726f60981b60448201526064016102d6565b600080526001602052600080516020611c16833981519152546001600160a01b03828116911603610cb85760405162461bcd60e51b815260206004820152600960248201526839b0b6b29030b2323960b91b60448201526064016102d6565b610cc58160006001611520565b6040516001600160a01b038216907fbc7cd75a20ee27fd9adebab32041f755214dbc6bffa90cc0225b39da2e5c2d3b90600090a250565b610d0533610aec565b610d215760405162461bcd60e51b81526004016102d690611ac1565b81610d6e5760405162461bcd60e51b815260206004820181905260248201527f50726f78793a205f73656c6563746f727327732073697a65206973207a65726f60448201526064016102d6565b6001600160a01b03811660009081526002602052604090205460ff16610dd65760405162461bcd60e51b815260206004820152601860248201527f50726f78793a205f696d70206973206e6f7420616c697665000000000000000060448201526064016102d6565b60005b82811015610f5857816001600160a01b031660036000868685818110610e0157610e01611b04565b9050602002016020810190610e169190611854565b6001600160e01b03191681526020810191909152604001600020546001600160a01b031603610e875760405162461bcd60e51b815260206004820152601d60248201527f4c69717569646974795661756c7450726f78793a2073616d6520696d7000000060448201526064016102d6565b8160036000868685818110610e9e57610e9e611b04565b9050602002016020810190610eb39190611854565b6001600160e01b0319168152602081019190915260400160002080546001600160a01b0319166001600160a01b039283161790558216848483818110610efb57610efb611b04565b9050602002016020810190610f109190611854565b6001600160e01b0319167f14ebc1c32aa68f4d766e89f3e546cee249f7df25183fc10ab1568d91c2ce9b7b60405160405180910390a380610f5081611b30565b915050610dd9565b50505050565b905090565b610f6c33610aec565b610f885760405162461bcd60e51b81526004016102d690611ac1565b610bea82826115ab565b6000610a25600080516020611c568339815191528361121a565b610fb533610aec565b610fd15760405162461bcd60e51b81526004016102d690611ac1565b610ae9600082610b12565b610fe533610aec565b6110015760405162461bcd60e51b81526004016102d690611ac1565b610b10600033610b70565b61101533610aec565b6110315760405162461bcd60e51b81526004016102d690611ac1565b6001600160a01b0381166110875760405162461bcd60e51b815260206004820152601860248201527f41636365737369626c653a207a65726f2061646472657373000000000000000060448201526064016102d6565b6001600160a01b03811633036110d85760405162461bcd60e51b815260206004820152601660248201527520b1b1b2b9b9b4b136329d1039b0b6b29030b236b4b760511b60448201526064016102d6565b6110e3600082610b12565b610ae9600033610b70565b6110f733610aec565b6111135760405162461bcd60e51b81526004016102d690611ac1565b6000805460ff1916911515919091179055565b61112f33610aec565b61114b5760405162461bcd60e51b81526004016102d690611ac1565b610a15838383611520565b6000818152600160205260408120546001600160a01b0316610a25565b6001600160e01b031981166000908152600360205260408120546001600160a01b0316806111c357505060008052506001602052600080516020611c16833981519152546001600160a01b031690565b6001600160a01b03811660009081526002602052604090205460ff16156111ea5792915050565b505060008052506001602052600080516020611c16833981519152546001600160a01b031690565b6000610f5e81335b60009182526005602090815260408084206001600160a01b0393909316845291905290205460ff1690565b600f8054610a3890611a87565b61125b33610aec565b6112775760405162461bcd60e51b81526004016102d690611ac1565b610ae9600080516020611c3683398151915282610b12565b610b10600080516020611c3683398151915233610b70565b6112b033610aec565b6112cc5760405162461bcd60e51b81526004016102d690611ac1565b610ae9600080516020611c5683398151915282610b12565b6000610a25600080516020611c368339815191528361121a565b61130733610aec565b6113235760405162461bcd60e51b81526004016102d690611ac1565b610ae9600080516020611c5683398151915282610b70565b61134433610aec565b6113605760405162461bcd60e51b81526004016102d690611ac1565b610ae9600080516020611c36833981519152825b60008281526005602052604090206001015461138f81611429565b610a1583836114b9565b6113a233610aec565b6113be5760405162461bcd60e51b81526004016102d690611ac1565b610ae98161100c565b6113d033610aec565b6113ec5760405162461bcd60e51b81526004016102d690611ac1565b610ae9600080516020611c5683398151915282611374565b60006001600160e01b03198216637965db0b60e01b1480610a255750610a258261160a565b610ae98133611646565b61143d828261121a565b610bea5760008281526005602090815260408083206001600160a01b03851684529091529020805460ff191660011790556114753390565b6001600160a01b0316816001600160a01b0316837f2f8788117e7eff1d82e926ec794901d17c78024a50270940304540a733656f0d60405160405180910390a45050565b6114c3828261121a565b15610bea5760008281526005602090815260408083206001600160a01b0385168085529252808320805460ff1916905551339285917ff6391f5c32d9c69d2a47ea670b442974b53935d1edc7fd64eb21e047a839171b9190a45050565b6001600160a01b0383163b6115775760405162461bcd60e51b815260206004820152601b60248201527f50726f78793a206e6f7420636f6e74726163742061646472657373000000000060448201526064016102d6565b80156115a557600082815260016020526040902080546001600160a01b0319166001600160a01b0385161790555b610a1583825b6001600160a01b038216600081815260026020908152604091829020805460ff191685151590811790915591519182527f72558d9bfba4210f9ef095c782589484151f6d90f7a81bb3cb9b33efc695d324910160405180910390a25050565b60006301ffc9a760e01b6001600160e01b031983161480610a255750506001600160e01b03191660009081526004602052604090205460ff1690565b611650828261121a565b610bea5761165d8161169f565b6116688360206116b1565b604051602001611679929190611b49565b60408051601f198184030181529082905262461bcd60e51b82526102d6916004016118f1565b6060610a256001600160a01b03831660145b606060006116c0836002611bbe565b6116cb906002611bd5565b67ffffffffffffffff8111156116e3576116e3611be8565b6040519080825280601f01601f19166020018201604052801561170d576020820181803683370190505b509050600360fc1b8160008151811061172857611728611b04565b60200101906001600160f81b031916908160001a905350600f60fb1b8160018151811061175757611757611b04565b60200101906001600160f81b031916908160001a905350600061177b846002611bbe565b611786906001611bd5565b90505b60018111156117fe576f181899199a1a9b1b9c1cb0b131b232b360811b85600f16601081106117ba576117ba611b04565b1a60f81b8282815181106117d0576117d0611b04565b60200101906001600160f81b031916908160001a90535060049490941c936117f781611bfe565b9050611789565b50831561184d5760405162461bcd60e51b815260206004820181905260248201527f537472696e67733a20686578206c656e67746820696e73756666696369656e7460448201526064016102d6565b9392505050565b60006020828403121561186657600080fd5b81356001600160e01b03198116811461184d57600080fd5b80356001600160a01b038116811461189557600080fd5b919050565b600080604083850312156118ad57600080fd5b6118b68361187e565b91506118c46020840161187e565b90509250929050565b60005b838110156118e85781810151838201526020016118d0565b50506000910152565b60208152600082518060208401526119108160408501602087016118cd565b601f01601f19169190910160400192915050565b60006020828403121561193657600080fd5b61184d8261187e565b60006020828403121561195157600080fd5b5035919050565b6000806040838503121561196b57600080fd5b823591506118c46020840161187e565b60008060006040848603121561199057600080fd5b833567ffffffffffffffff808211156119a857600080fd5b818601915086601f8301126119bc57600080fd5b8135818111156119cb57600080fd5b8760208260051b85010111156119e057600080fd5b6020928301955093506119f6918601905061187e565b90509250925092565b8035801515811461189557600080fd5b60008060408385031215611a2257600080fd5b611a2b8361187e565b91506118c4602084016119ff565b600060208284031215611a4b57600080fd5b61184d826119ff565b600080600060608486031215611a6957600080fd5b611a728461187e565b9250602084013591506119f6604085016119ff565b600181811c90821680611a9b57607f821691505b602082108103611abb57634e487b7160e01b600052602260045260246000fd5b50919050565b60208082526023908201527f41757468436f6e74726f6c3a2043616c6c6572206973206e6f7420616e20616460408201526236b4b760e91b606082015260800190565b634e487b7160e01b600052603260045260246000fd5b634e487b7160e01b600052601160045260246000fd5b600060018201611b4257611b42611b1a565b5060010190565b7f416363657373436f6e74726f6c3a206163636f756e7420000000000000000000815260008351611b818160178501602088016118cd565b7001034b99036b4b9b9b4b733903937b6329607d1b6017918401918201528351611bb28160288401602088016118cd565b01602801949350505050565b8082028115828204841417610a2557610a25611b1a565b80820180821115610a2557610a25611b1a565b634e487b7160e01b600052604160045260246000fd5b600081611c0d57611c0d611b1a565b50600019019056fea6eef7e35abe7026729641147f7915573c7e97b47efa546f5f6e3230263bcb49f0887ba65ee2024ea881d91b74c2450ef19e1557f03bed3ea9f16b037cbe2dc9523a704056dcd17bcf83bed8b68c59416dac1119be77755efe3bde0a64e46e0ca164736f6c6343000813000a",
  "linkReferences": {},
  "deployedLinkReferences": {}
}