{
  "_format": "hh-sol-artifact-1",
  "contractName": "L2DividendPoolForTon",
  "sourceName": "contracts/L2/airdrop/L2DividendPoolForTon.sol",
  "abi": [
    {
      "anonymous": false,
      "inputs": [
        {
          "indexed": true,
          "internalType": "address",
          "name": "token",
          "type": "address"
        },
        {
          "indexed": true,
          "internalType": "address",
          "name": "account",
          "type": "address"
        },
        {
          "indexed": false,
          "internalType": "uint256",
          "name": "snapshotId",
          "type": "uint256"
        },
        {
          "indexed": false,
          "internalType": "uint256",
          "name": "amount",
          "type": "uint256"
        }
      ],
      "name": "Claimed",
      "type": "event"
    },
    {
      "anonymous": false,
      "inputs": [
        {
          "indexed": true,
          "internalType": "address",
          "name": "token",
          "type": "address"
        },
        {
          "indexed": false,
          "internalType": "uint256",
          "name": "snapshotId",
          "type": "uint256"
        },
        {
          "indexed": false,
          "internalType": "uint256",
          "name": "amount",
          "type": "uint256"
        }
      ],
      "name": "Distributed",
      "type": "event"
    },
    {
      "anonymous": false,
      "inputs": [
        {
          "indexed": true,
          "internalType": "bytes32",
          "name": "role",
          "type": "bytes32"
        },
        {
          "indexed": true,
          "internalType": "bytes32",
          "name": "previousAdminRole",
          "type": "bytes32"
        },
        {
          "indexed": true,
          "internalType": "bytes32",
          "name": "newAdminRole",
          "type": "bytes32"
        }
      ],
      "name": "RoleAdminChanged",
      "type": "event"
    },
    {
      "anonymous": false,
      "inputs": [
        {
          "indexed": true,
          "internalType": "bytes32",
          "name": "role",
          "type": "bytes32"
        },
        {
          "indexed": true,
          "internalType": "address",
          "name": "account",
          "type": "address"
        },
        {
          "indexed": true,
          "internalType": "address",
          "name": "sender",
          "type": "address"
        }
      ],
      "name": "RoleGranted",
      "type": "event"
    },
    {
      "anonymous": false,
      "inputs": [
        {
          "indexed": true,
          "internalType": "bytes32",
          "name": "role",
          "type": "bytes32"
        },
        {
          "indexed": true,
          "internalType": "address",
          "name": "account",
          "type": "address"
        },
        {
          "indexed": true,
          "internalType": "address",
          "name": "sender",
          "type": "address"
        }
      ],
      "name": "RoleRevoked",
      "type": "event"
    },
    {
      "inputs": [],
      "name": "DEFAULT_ADMIN_ROLE",
      "outputs": [
        {
          "internalType": "bytes32",
          "name": "",
          "type": "bytes32"
        }
      ],
      "stateMutability": "view",
      "type": "function"
    },
    {
      "inputs": [],
      "name": "MINTER_ROLE",
      "outputs": [
        {
          "internalType": "bytes32",
          "name": "",
          "type": "bytes32"
        }
      ],
      "stateMutability": "view",
      "type": "function"
    },
    {
      "inputs": [
        {
          "internalType": "address",
          "name": "account",
          "type": "address"
        }
      ],
      "name": "addAdmin",
      "outputs": [],
      "stateMutability": "nonpayable",
      "type": "function"
    },
    {
      "inputs": [
        {
          "internalType": "address",
          "name": "",
          "type": "address"
        }
      ],
      "name": "aliveImplementation",
      "outputs": [
        {
          "internalType": "bool",
          "name": "",
          "type": "bool"
        }
      ],
      "stateMutability": "view",
      "type": "function"
    },
    {
      "inputs": [
        {
          "internalType": "address",
          "name": "_account",
          "type": "address"
        },
        {
          "internalType": "uint256",
          "name": "_snapshotId",
          "type": "uint256"
        },
        {
          "internalType": "uint256",
          "name": "_tokensPerSnapshotId",
          "type": "uint256"
        }
      ],
      "name": "calculateClaimPerSnapshotId",
      "outputs": [
        {
          "internalType": "uint256",
          "name": "",
          "type": "uint256"
        }
      ],
      "stateMutability": "view",
      "type": "function"
    },
    {
      "inputs": [
        {
          "internalType": "address",
          "name": "_token",
          "type": "address"
        }
      ],
      "name": "claim",
      "outputs": [],
      "stateMutability": "nonpayable",
      "type": "function"
    },
    {
      "inputs": [
        {
          "internalType": "address[]",
          "name": "_tokens",
          "type": "address[]"
        }
      ],
      "name": "claimBatch",
      "outputs": [],
      "stateMutability": "nonpayable",
      "type": "function"
    },
    {
      "inputs": [
        {
          "internalType": "address",
          "name": "_token",
          "type": "address"
        },
        {
          "internalType": "uint256",
          "name": "_snapshotId",
          "type": "uint256"
        }
      ],
      "name": "claimUpTo",
      "outputs": [],
      "stateMutability": "nonpayable",
      "type": "function"
    },
    {
      "inputs": [
        {
          "internalType": "address",
          "name": "_token",
          "type": "address"
        },
        {
          "internalType": "address",
          "name": "_account",
          "type": "address"
        }
      ],
      "name": "claimable",
      "outputs": [
        {
          "internalType": "uint256",
          "name": "",
          "type": "uint256"
        }
      ],
      "stateMutability": "view",
      "type": "function"
    },
    {
      "inputs": [
        {
          "internalType": "address",
          "name": "_token",
          "type": "address"
        },
        {
          "internalType": "uint256",
          "name": "_amount",
          "type": "uint256"
        }
      ],
      "name": "distribute",
      "outputs": [],
      "stateMutability": "payable",
      "type": "function"
    },
    {
      "inputs": [
        {
          "internalType": "uint256",
          "name": "",
          "type": "uint256"
        }
      ],
      "name": "distributedTokens",
      "outputs": [
        {
          "internalType": "address",
          "name": "",
          "type": "address"
        }
      ],
      "stateMutability": "view",
      "type": "function"
    },
    {
      "inputs": [
        {
          "internalType": "address",
          "name": "",
          "type": "address"
        }
      ],
      "name": "distributions",
      "outputs": [
        {
          "internalType": "bool",
          "name": "exists",
          "type": "bool"
        },
        {
          "internalType": "uint256",
          "name": "totalDistribution",
          "type": "uint256"
        },
        {
          "internalType": "uint256",
          "name": "lastBalance",
          "type": "uint256"
        }
      ],
      "stateMutability": "view",
      "type": "function"
    },
    {
      "inputs": [
        {
          "internalType": "address",
          "name": "_account",
          "type": "address"
        }
      ],
      "name": "getAvailableClaims",
      "outputs": [
        {
          "internalType": "address[]",
          "name": "tokens",
          "type": "address[]"
        },
        {
          "internalType": "uint256[]",
          "name": "claimableAmounts",
          "type": "uint256[]"
        }
      ],
      "stateMutability": "view",
      "type": "function"
    },
    {
      "inputs": [
        {
          "internalType": "bytes32",
          "name": "role",
          "type": "bytes32"
        }
      ],
      "name": "getRoleAdmin",
      "outputs": [
        {
          "internalType": "bytes32",
          "name": "",
          "type": "bytes32"
        }
      ],
      "stateMutability": "view",
      "type": "function"
    },
    {
      "inputs": [
        {
          "internalType": "bytes32",
          "name": "role",
          "type": "bytes32"
        },
        {
          "internalType": "address",
          "name": "account",
          "type": "address"
        }
      ],
      "name": "grantRole",
      "outputs": [],
      "stateMutability": "nonpayable",
      "type": "function"
    },
    {
      "inputs": [
        {
          "internalType": "bytes32",
          "name": "role",
          "type": "bytes32"
        },
        {
          "internalType": "address",
          "name": "account",
          "type": "address"
        }
      ],
      "name": "hasRole",
      "outputs": [
        {
          "internalType": "bool",
          "name": "",
          "type": "bool"
        }
      ],
      "stateMutability": "view",
      "type": "function"
    },
    {
      "inputs": [
        {
          "internalType": "address",
          "name": "_l2SeigManager",
          "type": "address"
        }
      ],
      "name": "initialize",
      "outputs": [],
      "stateMutability": "nonpayable",
      "type": "function"
    },
    {
      "inputs": [
        {
          "internalType": "address",
          "name": "account",
          "type": "address"
        }
      ],
      "name": "isAdmin",
      "outputs": [
        {
          "internalType": "bool",
          "name": "",
          "type": "bool"
        }
      ],
      "stateMutability": "view",
      "type": "function"
    },
    {
      "inputs": [],
      "name": "isOwner",
      "outputs": [
        {
          "internalType": "bool",
          "name": "",
          "type": "bool"
        }
      ],
      "stateMutability": "view",
      "type": "function"
    },
    {
      "inputs": [],
      "name": "l2SeigManager",
      "outputs": [
        {
          "internalType": "address",
          "name": "",
          "type": "address"
        }
      ],
      "stateMutability": "view",
      "type": "function"
    },
    {
      "inputs": [],
      "name": "pauseProxy",
      "outputs": [
        {
          "internalType": "bool",
          "name": "",
          "type": "bool"
        }
      ],
      "stateMutability": "view",
      "type": "function"
    },
    {
      "inputs": [
        {
          "internalType": "uint256",
          "name": "",
          "type": "uint256"
        }
      ],
      "name": "proxyImplementation",
      "outputs": [
        {
          "internalType": "address",
          "name": "",
          "type": "address"
        }
      ],
      "stateMutability": "view",
      "type": "function"
    },
    {
      "inputs": [
        {
          "internalType": "address",
          "name": "account",
          "type": "address"
        }
      ],
      "name": "removeAdmin",
      "outputs": [],
      "stateMutability": "nonpayable",
      "type": "function"
    },
    {
      "inputs": [],
      "name": "renounceOwnership",
      "outputs": [],
      "stateMutability": "nonpayable",
      "type": "function"
    },
    {
      "inputs": [
        {
          "internalType": "bytes32",
          "name": "role",
          "type": "bytes32"
        },
        {
          "internalType": "address",
          "name": "account",
          "type": "address"
        }
      ],
      "name": "renounceRole",
      "outputs": [],
      "stateMutability": "nonpayable",
      "type": "function"
    },
    {
      "inputs": [
        {
          "internalType": "bytes32",
          "name": "role",
          "type": "bytes32"
        },
        {
          "internalType": "address",
          "name": "account",
          "type": "address"
        }
      ],
      "name": "revokeRole",
      "outputs": [],
      "stateMutability": "nonpayable",
      "type": "function"
    },
    {
      "inputs": [
        {
          "internalType": "bytes4",
          "name": "",
          "type": "bytes4"
        }
      ],
      "name": "selectorImplementation",
      "outputs": [
        {
          "internalType": "address",
          "name": "",
          "type": "address"
        }
      ],
      "stateMutability": "view",
      "type": "function"
    },
    {
      "inputs": [
        {
          "internalType": "address",
          "name": "",
          "type": "address"
        },
        {
          "internalType": "uint256",
          "name": "",
          "type": "uint256"
        }
      ],
      "name": "snapshotIds",
      "outputs": [
        {
          "internalType": "uint256",
          "name": "",
          "type": "uint256"
        }
      ],
      "stateMutability": "view",
      "type": "function"
    },
    {
      "inputs": [
        {
          "internalType": "bytes4",
          "name": "interfaceId",
          "type": "bytes4"
        }
      ],
      "name": "supportsInterface",
      "outputs": [
        {
          "internalType": "bool",
          "name": "",
          "type": "bool"
        }
      ],
      "stateMutability": "view",
      "type": "function"
    },
    {
      "inputs": [
        {
          "internalType": "address",
          "name": "newAdmin",
          "type": "address"
        }
      ],
      "name": "transferAdmin",
      "outputs": [],
      "stateMutability": "nonpayable",
      "type": "function"
    },
    {
      "inputs": [
        {
          "internalType": "address",
          "name": "newAdmin",
          "type": "address"
        }
      ],
      "name": "transferOwnership",
      "outputs": [],
      "stateMutability": "nonpayable",
      "type": "function"
    }
  ],
  "bytecode": "0x608060405234801561001057600080fd5b5061235f806100206000396000f3fe6080604052600436106101d85760003560e01c8063715018a611610102578063d4570c1c11610095578063de32fcf011610064578063de32fcf014610653578063e3ba18a514610673578063f2fde38b14610693578063fb932108146106b357600080fd5b8063d4570c1c146105bf578063d4abe717146105df578063d5391393146105ff578063d547741f1461063357600080fd5b80639353b9df116100d15780639353b9df146104f7578063a217fddf14610554578063b911135f14610569578063c4d66de81461059f57600080fd5b8063715018a61461043857806375829def1461044d5780638f32d59b1461046d57806391d14854146104b157600080fd5b806336568abe1161017a578063550d01a311610149578063550d01a3146103a057806362e40c24146103d057806363a8fd89146103fe578063704802751461041857600080fd5b806336568abe146102f257806337a155031461031257806350d2a2761461034a57806353cd4eac1461038057600080fd5b8063248a9ca3116101b6578063248a9ca31461025457806324d7806c146102925780632d4316c4146102b25780632f2ff15d146102d257600080fd5b806301ffc9a7146101dd5780631785f53c146102125780631e83409a14610234575b600080fd5b3480156101e957600080fd5b506101fd6101f8366004611f2c565b6106c6565b60405190151581526020015b60405180910390f35b34801561021e57600080fd5b5061023261022d366004611f72565b6106d7565b005b34801561024057600080fd5b5061023261024f366004611f72565b61074a565b34801561026057600080fd5b5061028461026f366004611f8d565b60009081526005602052604090206001015490565b604051908152602001610209565b34801561029e57600080fd5b506101fd6102ad366004611f72565b610796565b3480156102be57600080fd5b506102846102cd366004611fa6565b6107d6565b3480156102de57600080fd5b506102326102ed366004611fd0565b610807565b3480156102fe57600080fd5b5061023261030d366004611fd0565b610831565b34801561031e57600080fd5b5061033261032d366004611f8d565b6108bd565b6040516001600160a01b039091168152602001610209565b34801561035657600080fd5b50610332610365366004611f2c565b6003602052600090815260409020546001600160a01b031681565b34801561038c57600080fd5b50600654610332906001600160a01b031681565b3480156103ac57600080fd5b506101fd6103bb366004611f72565b60026020526000908152604090205460ff1681565b3480156103dc57600080fd5b506103f06103eb366004611f72565b6108e7565b604051610209929190611ffc565b34801561040a57600080fd5b506000546101fd9060ff1681565b34801561042457600080fd5b50610232610433366004611f72565b610a0b565b34801561044457600080fd5b50610232610a76565b34801561045957600080fd5b50610232610468366004611f72565b610ae3565b34801561047957600080fd5b503360009081527f05b8ccbb9d4d8fb16ea74ce3c29a41f1b461fbdaff4714a0d9a8eb05499746bc602052604090205460ff166101fd565b3480156104bd57600080fd5b506101fd6104cc366004611fd0565b60009182526005602090815260408084206001600160a01b0393909316845291905290205460ff1690565b34801561050357600080fd5b50610537610512366004611f72565b60076020526000908152604090208054600182015460029092015460ff909116919083565b604080519315158452602084019290925290820152606001610209565b34801561056057600080fd5b50610284600081565b34801561057557600080fd5b50610332610584366004611f8d565b6001602052600090815260409020546001600160a01b031681565b3480156105ab57600080fd5b506102326105ba366004611f72565b610c07565b3480156105cb57600080fd5b506102846105da366004612080565b610c96565b3480156105eb57600080fd5b506102326105fa3660046120aa565b610d3a565b34801561060b57600080fd5b506102847ff0887ba65ee2024ea881d91b74c2450ef19e1557f03bed3ea9f16b037cbe2dc981565b34801561063f57600080fd5b5061023261064e366004611fd0565b610d7f565b34801561065f57600080fd5b5061028461066e36600461211f565b610da4565b34801561067f57600080fd5b5061023261068e366004611fa6565b610ece565b34801561069f57600080fd5b506102326106ae366004611f72565b6112de565b6102326106c1366004611fa6565b611347565b60006106d182611882565b92915050565b6106e033610796565b61073c5760405162461bcd60e51b815260206004820152602260248201527f41636365737369626c653a2043616c6c6572206973206e6f7420616e2061646d60448201526134b760f11b60648201526084015b60405180910390fd5b610747600082610831565b50565b6001600160a01b0381166000908152600a60205260409020805461074791839161077690600190612168565b815481106107865761078661217b565b9060005260206000200154610ece565b6001600160a01b03811660009081527f05b8ccbb9d4d8fb16ea74ce3c29a41f1b461fbdaff4714a0d9a8eb05499746bc602052604081205460ff166106d1565b600a60205281600052604060002081815481106107f257600080fd5b90600052602060002001600091509150505481565b600082815260056020526040902060010154610822816118a7565b61082c83836118b1565b505050565b6001600160a01b03811633146108af5760405162461bcd60e51b815260206004820152602f60248201527f416363657373436f6e74726f6c3a2063616e206f6e6c792072656e6f756e636560448201527f20726f6c657320666f722073656c6600000000000000000000000000000000006064820152608401610733565b6108b98282611953565b5050565b600b81815481106108cd57600080fd5b6000918252602090912001546001600160a01b0316905081565b6060806000600b8054905067ffffffffffffffff81111561090a5761090a612191565b604051908082528060200260200182016040528015610933578160200160208202803683370190505b50905060005b600b548110156109a15761097485600b838154811061095a5761095a61217b565b6000918252602090912001546001600160a01b0316610c96565b8282815181106109865761098661217b565b602090810291909101015261099a816121a7565b9050610939565b50600b81818054806020026020016040519081016040528092919081815260200182805480156109fa57602002820191906000526020600020905b81546001600160a01b031681526001909101906020018083116109dc575b505050505091509250925050915091565b610a1433610796565b610a6b5760405162461bcd60e51b815260206004820152602260248201527f41636365737369626c653a2043616c6c6572206973206e6f7420616e2061646d60448201526134b760f11b6064820152608401610733565b610747600082610807565b610a7f33610796565b610ad65760405162461bcd60e51b815260206004820152602260248201527f41636365737369626c653a2043616c6c6572206973206e6f7420616e2061646d60448201526134b760f11b6064820152608401610733565b610ae1600033610831565b565b610aec33610796565b610b435760405162461bcd60e51b815260206004820152602260248201527f41636365737369626c653a2043616c6c6572206973206e6f7420616e2061646d60448201526134b760f11b6064820152608401610733565b6001600160a01b038116610b995760405162461bcd60e51b815260206004820152601860248201527f41636365737369626c653a207a65726f206164647265737300000000000000006044820152606401610733565b6001600160a01b0381163303610bf15760405162461bcd60e51b815260206004820152601660248201527f41636365737369626c653a2073616d652061646d696e000000000000000000006044820152606401610733565b610bfc600082610807565b610747600033610831565b610c1033610796565b610c675760405162461bcd60e51b815260206004820152602260248201527f41636365737369626c653a2043616c6c6572206973206e6f7420616e2061646d60448201526134b760f11b6064820152608401610733565b6006805473ffffffffffffffffffffffffffffffffffffffff19166001600160a01b0392909216919091179055565b6001600160a01b0382166000908152600a6020526040812054808203610cc05760009150506106d1565b6001600160a01b0384166000908152600a60205260408120610ce3600184612168565b81548110610cf357610cf361217b565b60009182526020808320909101546001600160a01b03808916845260098352604080852091891685529252912054909150610d30868683856119d6565b9695505050505050565b60005b8181101561082c57610d6f838383818110610d5a57610d5a61217b565b905060200201602081019061024f9190611f72565b610d78816121a7565b9050610d3d565b600082815260056020526040902060010154610d9a816118a7565b61082c8383611953565b60065460405163277166bf60e11b81526001600160a01b038581166004830152602482018590526000928392911690634ee2cd7e90604401602060405180830381865afa158015610df9573d6000803e3d6000fd5b505050506040513d601f19601f82011682018060405250810190610e1d91906121c0565b600654604051630981b24d60e41b8152600481018790529192506000916001600160a01b039091169063981b24d090602401602060405180830381865afa158015610e6c573d6000803e3d6000fd5b505050506040513d601f19601f82011682018060405250810190610e9091906121c0565b9050811580610e9d575080155b15610ead57600092505050610ec7565b80610eb883866121d9565b610ec291906121f0565b925050505b9392505050565b8080600003610f0c5760405162461bcd60e51b815260206004820152600a6024820152697a65726f2076616c756560b01b6044820152606401610733565b6001600160a01b0383166000908152600a60205260408120549003610f735760405162461bcd60e51b815260206004820152600f60248201527f6e6f20646973747269627574696f6e00000000000000000000000000000000006044820152606401610733565b6001600160a01b0383166000908152600a6020526040902080548391610f9a600183612168565b81548110610faa57610faa61217b565b9060005260206000200154841115610ffd576001600160a01b0385166000908152600a60205260409020610fdf600183612168565b81548110610fef57610fef61217b565b906000526020600020015491505b6001600160a01b038516600090815260096020908152604080832033808552925282205461102d918891866119d6565b90506000811161107f5760405162461bcd60e51b815260206004820152601460248201527f6e6f20636c61696d61626c6520616d6c6f756e740000000000000000000000006044820152606401610733565b6001600160a01b038616600090815260076020526040902060028101548211156110e25760405162461bcd60e51b8152602060048201526014602482015273696e73756666696369656e742062616c616e636560601b6044820152606401610733565b6110ed846001612212565b6001600160a01b0388166000908152600960209081526040808320338452909152812091909155600282018054849290611128908490612168565b909155505073deaddeaddeaddeaddeaddeaddeaddeaddeacffff196001600160a01b038816016111cc57814710156111995760405162461bcd60e51b8152602060048201526014602482015273696e73756666696369656e742062616c616e636560601b6044820152606401610733565b604051339083156108fc029084906000818181858888f193505050501580156111c6573d6000803e3d6000fd5b5061128f565b6040516370a0823160e01b815230600482015282906001600160a01b038916906370a0823190602401602060405180830381865afa158015611212573d6000803e3d6000fd5b505050506040513d601f19601f8201168201806040525081019061123691906121c0565b101561127b5760405162461bcd60e51b8152602060048201526014602482015273696e73756666696369656e742062616c616e636560601b6044820152606401610733565b61128f6001600160a01b0388163384611a81565b604080518581526020810184905233916001600160a01b038a16917f2f6639d24651730c7bf57c95ddbf96d66d11477e4ec626876f92c22e5f365e68910160405180910390a350505050505050565b6112e733610796565b61133e5760405162461bcd60e51b815260206004820152602260248201527f41636365737369626c653a2043616c6c6572206973206e6f7420616e2061646d60448201526134b760f11b6064820152608401610733565b61074781610ae3565b80806000036113855760405162461bcd60e51b815260206004820152600a6024820152697a65726f2076616c756560b01b6044820152606401610733565b826001600160a01b0381166113dc5760405162461bcd60e51b815260206004820152600c60248201527f7a65726f206164647265737300000000000000000000000000000000000000006044820152606401610733565b600c5460ff161561142f5760405162461bcd60e51b815260206004820152600e60248201527f616c726561647920696e207573650000000000000000000000000000000000006044820152606401610733565b600c805460ff1916600117905573deaddeaddeaddeaddeaddeaddeaddeaddeacffff196001600160a01b038516016114b0578234146114b05760405162461bcd60e51b815260206004820181905260248201527f64696666657272656e7420616d6f756e742066726f6d206d73672e76616c75656044820152606401610733565b600654604080516318160ddd60e01b815290516000926001600160a01b0316916318160ddd9160048083019260209291908290030181865afa1580156114fa573d6000803e3d6000fd5b505050506040513d601f19601f8201168201806040525081019061151e91906121c0565b9050806000036115705760405162461bcd60e51b815260206004820152601e60248201527f6e6f2072656769737465726564204c312773207374616b696e6720746f6e00006044820152606401610733565b6001600160a01b03851660009081526007602052604081208054909160ff909116151590036115f257600b80546001810182556000919091527f0175b7a638427703f0dbe7bb9bbf987a2551717b34e79f33b5b1008d1fa01db901805473ffffffffffffffffffffffffffffffffffffffff19166001600160a01b0388161790555b805460ff191660011781556001600160a01b03861673deaddeaddeaddeaddeaddeaddeaddeaddead000014611636576116366001600160a01b038716333088611b9c565b60065460408051632c68066b60e11b815290516000926001600160a01b0316916358d00cd6916004808301926020929190829003018187875af1158015611681573d6000803e3d6000fd5b505050506040513d601f19601f820116820180604052508101906116a591906121c0565b9050806000036116f75760405162461bcd60e51b815260206004820152600f60248201527f7a65726f20736e617073686f74496400000000000000000000000000000000006044820152606401610733565b6001600160a01b0387166000908152600860209081526040808320848452909152902054156117685760405162461bcd60e51b815260206004820152600f60248201527f7573656420736e617073686f74496400000000000000000000000000000000006044820152606401610733565b6001600160a01b0387166000818152600a6020908152604080832080546001810182559084529190922001839055516370a0823160e01b81523060048201526370a0823190602401602060405180830381865afa1580156117cd573d6000803e3d6000fd5b505050506040513d601f19601f820116820180604052508101906117f191906121c0565b82600201819055508582600101600082825461180d9190612212565b90915550506001600160a01b038716600081815260086020908152604080832085845282529182902089905581518481529081018990527f60ce3cc2d133631eac66a476f14997a9fa682bd05a60dd993cf02285822d78d8910160405180910390a25050600c805460ff191690555050505050565b60006001600160e01b03198216637965db0b60e01b14806106d157506106d182611cc0565b6107478133611cfc565b60008281526005602090815260408083206001600160a01b038516845290915290205460ff166108b95760008281526005602090815260408083206001600160a01b03851684529091529020805460ff1916600117905561190f3390565b6001600160a01b0316816001600160a01b0316837f2f8788117e7eff1d82e926ec794901d17c78024a50270940304540a733656f0d60405160405180910390a45050565b60008281526005602090815260408083206001600160a01b038516845290915290205460ff16156108b95760008281526005602090815260408083206001600160a01b0385168085529252808320805460ff1916905551339285917ff6391f5c32d9c69d2a47ea670b442974b53935d1edc7fd64eb21e047a839171b9190a45050565b6000818311156119e857506000611a79565b826000036119f557600192505b825b828111611a77576001600160a01b038616600090815260086020908152604080832084845290915290205415611a65576001600160a01b0386166000908152600860209081526040808320848452909152902054611a589086908390610da4565b611a629083612212565b91505b80611a6f816121a7565b9150506119f7565b505b949350505050565b604080516001600160a01b038481166024830152604480830185905283518084039091018152606490920183526020820180516001600160e01b031663a9059cbb60e01b1790529151600092839290871691611add9190612249565b6000604051808303816000865af19150503d8060008114611b1a576040519150601f19603f3d011682016040523d82523d6000602084013e611b1f565b606091505b5091509150818015611b49575080511580611b49575080806020019051810190611b499190612265565b611b955760405162461bcd60e51b815260206004820152600f60248201527f5452414e534645525f4641494c454400000000000000000000000000000000006044820152606401610733565b5050505050565b604080516001600160a01b0385811660248301528481166044830152606480830185905283518084039091018152608490920183526020820180516001600160e01b03166323b872dd60e01b1790529151600092839290881691611c009190612249565b6000604051808303816000865af19150503d8060008114611c3d576040519150601f19603f3d011682016040523d82523d6000602084013e611c42565b606091505b5091509150818015611c6c575080511580611c6c575080806020019051810190611c6c9190612265565b611cb85760405162461bcd60e51b815260206004820152601460248201527f5452414e534645525f46524f4d5f4641494c45440000000000000000000000006044820152606401610733565b505050505050565b60006301ffc9a760e01b6001600160e01b0319831614806106d15750506001600160e01b03191660009081526004602052604090205460ff1690565b60008281526005602090815260408083206001600160a01b038516845290915290205460ff166108b957611d2f81611d71565b611d3a836020611d83565b604051602001611d4b929190612287565b60408051601f198184030181529082905262461bcd60e51b825261073391600401612308565b60606106d16001600160a01b03831660145b60606000611d928360026121d9565b611d9d906002612212565b67ffffffffffffffff811115611db557611db5612191565b6040519080825280601f01601f191660200182016040528015611ddf576020820181803683370190505b509050600360fc1b81600081518110611dfa57611dfa61217b565b60200101906001600160f81b031916908160001a905350600f60fb1b81600181518110611e2957611e2961217b565b60200101906001600160f81b031916908160001a9053506000611e4d8460026121d9565b611e58906001612212565b90505b6001811115611edd577f303132333435363738396162636465660000000000000000000000000000000085600f1660108110611e9957611e9961217b565b1a60f81b828281518110611eaf57611eaf61217b565b60200101906001600160f81b031916908160001a90535060049490941c93611ed68161233b565b9050611e5b565b508315610ec75760405162461bcd60e51b815260206004820181905260248201527f537472696e67733a20686578206c656e67746820696e73756666696369656e746044820152606401610733565b600060208284031215611f3e57600080fd5b81356001600160e01b031981168114610ec757600080fd5b80356001600160a01b0381168114611f6d57600080fd5b919050565b600060208284031215611f8457600080fd5b610ec782611f56565b600060208284031215611f9f57600080fd5b5035919050565b60008060408385031215611fb957600080fd5b611fc283611f56565b946020939093013593505050565b60008060408385031215611fe357600080fd5b82359150611ff360208401611f56565b90509250929050565b604080825283519082018190526000906020906060840190828701845b8281101561203e5781516001600160a01b031684529284019290840190600101612019565b5050508381038285015284518082528583019183019060005b8181101561207357835183529284019291840191600101612057565b5090979650505050505050565b6000806040838503121561209357600080fd5b61209c83611f56565b9150611ff360208401611f56565b600080602083850312156120bd57600080fd5b823567ffffffffffffffff808211156120d557600080fd5b818501915085601f8301126120e957600080fd5b8135818111156120f857600080fd5b8660208260051b850101111561210d57600080fd5b60209290920196919550909350505050565b60008060006060848603121561213457600080fd5b61213d84611f56565b95602085013595506040909401359392505050565b634e487b7160e01b600052601160045260246000fd5b818103818111156106d1576106d1612152565b634e487b7160e01b600052603260045260246000fd5b634e487b7160e01b600052604160045260246000fd5b6000600182016121b9576121b9612152565b5060010190565b6000602082840312156121d257600080fd5b5051919050565b80820281158282048414176106d1576106d1612152565b60008261220d57634e487b7160e01b600052601260045260246000fd5b500490565b808201808211156106d1576106d1612152565b60005b83811015612240578181015183820152602001612228565b50506000910152565b6000825161225b818460208701612225565b9190910192915050565b60006020828403121561227757600080fd5b81518015158114610ec757600080fd5b7f416363657373436f6e74726f6c3a206163636f756e74200000000000000000008152600083516122bf816017850160208801612225565b7f206973206d697373696e6720726f6c652000000000000000000000000000000060179184019182015283516122fc816028840160208801612225565b01602801949350505050565b6020815260008251806020840152612327816040850160208701612225565b601f01601f19169190910160400192915050565b60008161234a5761234a612152565b50600019019056fea164736f6c6343000813000a",
  "linkReferences": {},
  "deployedLinkReferences": {}
}