{
  "_format": "hh-sol-artifact-1",
  "contractName": "L2DividendPoolForTon",
  "sourceName": "contracts/L2/airdrop/L2DividendPoolForTon.sol",
  "abi": [
    {
      "anonymous": false,
      "inputs": [
        {
          "indexed": true,
          "internalType": "address",
          "name": "token",
          "type": "address"
        },
        {
          "indexed": true,
          "internalType": "address",
          "name": "account",
          "type": "address"
        },
        {
          "indexed": false,
          "internalType": "uint256",
          "name": "snapshotId",
          "type": "uint256"
        },
        {
          "indexed": false,
          "internalType": "uint256",
          "name": "amount",
          "type": "uint256"
        }
      ],
      "name": "Claimed",
      "type": "event"
    },
    {
      "anonymous": false,
      "inputs": [
        {
          "indexed": true,
          "internalType": "address",
          "name": "token",
          "type": "address"
        },
        {
          "indexed": false,
          "internalType": "uint256",
          "name": "snapshotId",
          "type": "uint256"
        },
        {
          "indexed": false,
          "internalType": "uint256",
          "name": "amount",
          "type": "uint256"
        }
      ],
      "name": "Distributed",
      "type": "event"
    },
    {
      "anonymous": false,
      "inputs": [
        {
          "indexed": true,
          "internalType": "bytes32",
          "name": "role",
          "type": "bytes32"
        },
        {
          "indexed": true,
          "internalType": "bytes32",
          "name": "previousAdminRole",
          "type": "bytes32"
        },
        {
          "indexed": true,
          "internalType": "bytes32",
          "name": "newAdminRole",
          "type": "bytes32"
        }
      ],
      "name": "RoleAdminChanged",
      "type": "event"
    },
    {
      "anonymous": false,
      "inputs": [
        {
          "indexed": true,
          "internalType": "bytes32",
          "name": "role",
          "type": "bytes32"
        },
        {
          "indexed": true,
          "internalType": "address",
          "name": "account",
          "type": "address"
        },
        {
          "indexed": true,
          "internalType": "address",
          "name": "sender",
          "type": "address"
        }
      ],
      "name": "RoleGranted",
      "type": "event"
    },
    {
      "anonymous": false,
      "inputs": [
        {
          "indexed": true,
          "internalType": "bytes32",
          "name": "role",
          "type": "bytes32"
        },
        {
          "indexed": true,
          "internalType": "address",
          "name": "account",
          "type": "address"
        },
        {
          "indexed": true,
          "internalType": "address",
          "name": "sender",
          "type": "address"
        }
      ],
      "name": "RoleRevoked",
      "type": "event"
    },
    {
      "inputs": [],
      "name": "DEFAULT_ADMIN_ROLE",
      "outputs": [
        {
          "internalType": "bytes32",
          "name": "",
          "type": "bytes32"
        }
      ],
      "stateMutability": "view",
      "type": "function"
    },
    {
      "inputs": [],
      "name": "MINTER_ROLE",
      "outputs": [
        {
          "internalType": "bytes32",
          "name": "",
          "type": "bytes32"
        }
      ],
      "stateMutability": "view",
      "type": "function"
    },
    {
      "inputs": [
        {
          "internalType": "address",
          "name": "account",
          "type": "address"
        }
      ],
      "name": "addAdmin",
      "outputs": [],
      "stateMutability": "nonpayable",
      "type": "function"
    },
    {
      "inputs": [
        {
          "internalType": "address",
          "name": "",
          "type": "address"
        }
      ],
      "name": "aliveImplementation",
      "outputs": [
        {
          "internalType": "bool",
          "name": "",
          "type": "bool"
        }
      ],
      "stateMutability": "view",
      "type": "function"
    },
    {
      "inputs": [
        {
          "internalType": "address",
          "name": "_account",
          "type": "address"
        },
        {
          "internalType": "uint256",
          "name": "_snapshotId",
          "type": "uint256"
        },
        {
          "internalType": "uint256",
          "name": "_tokensPerSnapshotId",
          "type": "uint256"
        }
      ],
      "name": "calculateClaimPerSnapshotId",
      "outputs": [
        {
          "internalType": "uint256",
          "name": "",
          "type": "uint256"
        }
      ],
      "stateMutability": "view",
      "type": "function"
    },
    {
      "inputs": [
        {
          "internalType": "address",
          "name": "_token",
          "type": "address"
        }
      ],
      "name": "claim",
      "outputs": [],
      "stateMutability": "nonpayable",
      "type": "function"
    },
    {
      "inputs": [
        {
          "internalType": "address[]",
          "name": "_tokens",
          "type": "address[]"
        }
      ],
      "name": "claimBatch",
      "outputs": [],
      "stateMutability": "nonpayable",
      "type": "function"
    },
    {
      "inputs": [
        {
          "internalType": "address",
          "name": "_token",
          "type": "address"
        },
        {
          "internalType": "uint256",
          "name": "_snapshotId",
          "type": "uint256"
        }
      ],
      "name": "claimUpTo",
      "outputs": [],
      "stateMutability": "nonpayable",
      "type": "function"
    },
    {
      "inputs": [
        {
          "internalType": "address",
          "name": "_account",
          "type": "address"
        },
        {
          "internalType": "address",
          "name": "_token",
          "type": "address"
        }
      ],
      "name": "claimable",
      "outputs": [
        {
          "internalType": "uint256",
          "name": "",
          "type": "uint256"
        }
      ],
      "stateMutability": "view",
      "type": "function"
    },
    {
      "inputs": [
        {
          "internalType": "address",
          "name": "_token",
          "type": "address"
        },
        {
          "internalType": "uint256",
          "name": "_amount",
          "type": "uint256"
        }
      ],
      "name": "distribute",
      "outputs": [],
      "stateMutability": "nonpayable",
      "type": "function"
    },
    {
      "inputs": [
        {
          "internalType": "uint256",
          "name": "",
          "type": "uint256"
        }
      ],
      "name": "distributedTokens",
      "outputs": [
        {
          "internalType": "address",
          "name": "",
          "type": "address"
        }
      ],
      "stateMutability": "view",
      "type": "function"
    },
    {
      "inputs": [
        {
          "internalType": "address",
          "name": "",
          "type": "address"
        }
      ],
      "name": "distributions",
      "outputs": [
        {
          "internalType": "bool",
          "name": "exists",
          "type": "bool"
        },
        {
          "internalType": "uint256",
          "name": "totalDistribution",
          "type": "uint256"
        },
        {
          "internalType": "uint256",
          "name": "lastBalance",
          "type": "uint256"
        }
      ],
      "stateMutability": "view",
      "type": "function"
    },
    {
      "inputs": [
        {
          "internalType": "address",
          "name": "_account",
          "type": "address"
        }
      ],
      "name": "getAvailableClaims",
      "outputs": [
        {
          "internalType": "address[]",
          "name": "tokens",
          "type": "address[]"
        },
        {
          "internalType": "uint256[]",
          "name": "claimableAmounts",
          "type": "uint256[]"
        }
      ],
      "stateMutability": "view",
      "type": "function"
    },
    {
      "inputs": [
        {
          "internalType": "bytes32",
          "name": "role",
          "type": "bytes32"
        }
      ],
      "name": "getRoleAdmin",
      "outputs": [
        {
          "internalType": "bytes32",
          "name": "",
          "type": "bytes32"
        }
      ],
      "stateMutability": "view",
      "type": "function"
    },
    {
      "inputs": [
        {
          "internalType": "bytes32",
          "name": "role",
          "type": "bytes32"
        },
        {
          "internalType": "address",
          "name": "account",
          "type": "address"
        }
      ],
      "name": "grantRole",
      "outputs": [],
      "stateMutability": "nonpayable",
      "type": "function"
    },
    {
      "inputs": [
        {
          "internalType": "bytes32",
          "name": "role",
          "type": "bytes32"
        },
        {
          "internalType": "address",
          "name": "account",
          "type": "address"
        }
      ],
      "name": "hasRole",
      "outputs": [
        {
          "internalType": "bool",
          "name": "",
          "type": "bool"
        }
      ],
      "stateMutability": "view",
      "type": "function"
    },
    {
      "inputs": [
        {
          "internalType": "address",
          "name": "_l2SeigManager",
          "type": "address"
        }
      ],
      "name": "initialize",
      "outputs": [],
      "stateMutability": "nonpayable",
      "type": "function"
    },
    {
      "inputs": [
        {
          "internalType": "address",
          "name": "account",
          "type": "address"
        }
      ],
      "name": "isAdmin",
      "outputs": [
        {
          "internalType": "bool",
          "name": "",
          "type": "bool"
        }
      ],
      "stateMutability": "view",
      "type": "function"
    },
    {
      "inputs": [],
      "name": "isOwner",
      "outputs": [
        {
          "internalType": "bool",
          "name": "",
          "type": "bool"
        }
      ],
      "stateMutability": "view",
      "type": "function"
    },
    {
      "inputs": [],
      "name": "l2SeigManager",
      "outputs": [
        {
          "internalType": "address",
          "name": "",
          "type": "address"
        }
      ],
      "stateMutability": "view",
      "type": "function"
    },
    {
      "inputs": [],
      "name": "pauseProxy",
      "outputs": [
        {
          "internalType": "bool",
          "name": "",
          "type": "bool"
        }
      ],
      "stateMutability": "view",
      "type": "function"
    },
    {
      "inputs": [
        {
          "internalType": "uint256",
          "name": "",
          "type": "uint256"
        }
      ],
      "name": "proxyImplementation",
      "outputs": [
        {
          "internalType": "address",
          "name": "",
          "type": "address"
        }
      ],
      "stateMutability": "view",
      "type": "function"
    },
    {
      "inputs": [
        {
          "internalType": "address",
          "name": "account",
          "type": "address"
        }
      ],
      "name": "removeAdmin",
      "outputs": [],
      "stateMutability": "nonpayable",
      "type": "function"
    },
    {
      "inputs": [],
      "name": "renounceOwnership",
      "outputs": [],
      "stateMutability": "nonpayable",
      "type": "function"
    },
    {
      "inputs": [
        {
          "internalType": "bytes32",
          "name": "role",
          "type": "bytes32"
        },
        {
          "internalType": "address",
          "name": "account",
          "type": "address"
        }
      ],
      "name": "renounceRole",
      "outputs": [],
      "stateMutability": "nonpayable",
      "type": "function"
    },
    {
      "inputs": [
        {
          "internalType": "bytes32",
          "name": "role",
          "type": "bytes32"
        },
        {
          "internalType": "address",
          "name": "account",
          "type": "address"
        }
      ],
      "name": "revokeRole",
      "outputs": [],
      "stateMutability": "nonpayable",
      "type": "function"
    },
    {
      "inputs": [
        {
          "internalType": "bytes4",
          "name": "",
          "type": "bytes4"
        }
      ],
      "name": "selectorImplementation",
      "outputs": [
        {
          "internalType": "address",
          "name": "",
          "type": "address"
        }
      ],
      "stateMutability": "view",
      "type": "function"
    },
    {
      "inputs": [
        {
          "internalType": "address",
          "name": "",
          "type": "address"
        },
        {
          "internalType": "uint256",
          "name": "",
          "type": "uint256"
        }
      ],
      "name": "snapshotIds",
      "outputs": [
        {
          "internalType": "uint256",
          "name": "",
          "type": "uint256"
        }
      ],
      "stateMutability": "view",
      "type": "function"
    },
    {
      "inputs": [
        {
          "internalType": "bytes4",
          "name": "interfaceId",
          "type": "bytes4"
        }
      ],
      "name": "supportsInterface",
      "outputs": [
        {
          "internalType": "bool",
          "name": "",
          "type": "bool"
        }
      ],
      "stateMutability": "view",
      "type": "function"
    },
    {
      "inputs": [
        {
          "internalType": "address",
          "name": "newAdmin",
          "type": "address"
        }
      ],
      "name": "transferAdmin",
      "outputs": [],
      "stateMutability": "nonpayable",
      "type": "function"
    },
    {
      "inputs": [
        {
          "internalType": "address",
          "name": "newAdmin",
          "type": "address"
        }
      ],
      "name": "transferOwnership",
      "outputs": [],
      "stateMutability": "nonpayable",
      "type": "function"
    }
  ],
  "bytecode": "0x608060405234801561001057600080fd5b5061200a806100206000396000f3fe608060405234801561001057600080fd5b50600436106101e55760003560e01c8063715018a61161010f578063d4570c1c116100a2578063de32fcf011610071578063de32fcf014610501578063e3ba18a514610514578063f2fde38b14610527578063fb9321081461053a57600080fd5b8063d4570c1c146104a1578063d4abe717146104b4578063d5391393146104c7578063d547741f146104ee57600080fd5b80639353b9df116100de5780639353b9df1461040d578063a217fddf1461045d578063b911135f14610465578063c4d66de81461048e57600080fd5b8063715018a61461038257806375829def1461038a5780638f32d59b1461039d57806391d14854146103d457600080fd5b806336568abe11610187578063550d01a311610156578063550d01a31461031e57806362e40c241461034157806363a8fd8914610362578063704802751461036f57600080fd5b806336568abe146102a457806337a15503146102b757806350d2a276146102e257806353cd4eac1461030b57600080fd5b8063248a9ca3116101c3578063248a9ca31461023a57806324d7806c1461026b5780632d4316c41461027e5780632f2ff15d1461029157600080fd5b806301ffc9a7146101ea5780631785f53c146102125780631e83409a14610227575b600080fd5b6101fd6101f8366004611bd7565b61054d565b60405190151581526020015b60405180910390f35b610225610220366004611c1d565b61055e565b005b610225610235366004611c1d565b6105d1565b61025d610248366004611c38565b60009081526005602052604090206001015490565b604051908152602001610209565b6101fd610279366004611c1d565b61061d565b61025d61028c366004611c51565b61065d565b61022561029f366004611c7b565b61068e565b6102256102b2366004611c7b565b6106b8565b6102ca6102c5366004611c38565b610744565b6040516001600160a01b039091168152602001610209565b6102ca6102f0366004611bd7565b6003602052600090815260409020546001600160a01b031681565b6006546102ca906001600160a01b031681565b6101fd61032c366004611c1d565b60026020526000908152604090205460ff1681565b61035461034f366004611c1d565b61076e565b604051610209929190611ca7565b6000546101fd9060ff1681565b61022561037d366004611c1d565b610892565b6102256108fd565b610225610398366004611c1d565b61096a565b3360009081527f05b8ccbb9d4d8fb16ea74ce3c29a41f1b461fbdaff4714a0d9a8eb05499746bc602052604090205460ff166101fd565b6101fd6103e2366004611c7b565b60009182526005602090815260408084206001600160a01b0393909316845291905290205460ff1690565b61044061041b366004611c1d565b60076020526000908152604090208054600182015460029092015460ff909116919083565b604080519315158452602084019290925290820152606001610209565b61025d600081565b6102ca610473366004611c38565b6001602052600090815260409020546001600160a01b031681565b61022561049c366004611c1d565b610a8e565b61025d6104af366004611d2b565b610b1d565b6102256104c2366004611d55565b610bc1565b61025d7ff0887ba65ee2024ea881d91b74c2450ef19e1557f03bed3ea9f16b037cbe2dc981565b6102256104fc366004611c7b565b610c06565b61025d61050f366004611dca565b610c2b565b610225610522366004611c51565b610d55565b610225610535366004611c1d565b611021565b610225610548366004611c51565b61108a565b60006105588261152d565b92915050565b6105673361061d565b6105c35760405162461bcd60e51b815260206004820152602260248201527f41636365737369626c653a2043616c6c6572206973206e6f7420616e2061646d60448201526134b760f11b60648201526084015b60405180910390fd5b6105ce6000826106b8565b50565b6001600160a01b0381166000908152600a6020526040902080546105ce9183916105fd90600190611e13565b8154811061060d5761060d611e26565b9060005260206000200154610d55565b6001600160a01b03811660009081527f05b8ccbb9d4d8fb16ea74ce3c29a41f1b461fbdaff4714a0d9a8eb05499746bc602052604081205460ff16610558565b600a602052816000526040600020818154811061067957600080fd5b90600052602060002001600091509150505481565b6000828152600560205260409020600101546106a981611552565b6106b3838361155c565b505050565b6001600160a01b03811633146107365760405162461bcd60e51b815260206004820152602f60248201527f416363657373436f6e74726f6c3a2063616e206f6e6c792072656e6f756e636560448201527f20726f6c657320666f722073656c66000000000000000000000000000000000060648201526084016105ba565b61074082826115fe565b5050565b600b818154811061075457600080fd5b6000918252602090912001546001600160a01b0316905081565b6060806000600b8054905067ffffffffffffffff81111561079157610791611e3c565b6040519080825280602002602001820160405280156107ba578160200160208202803683370190505b50905060005b600b54811015610828576107fb85600b83815481106107e1576107e1611e26565b6000918252602090912001546001600160a01b0316610b1d565b82828151811061080d5761080d611e26565b602090810291909101015261082181611e52565b90506107c0565b50600b818180548060200260200160405190810160405280929190818152602001828054801561088157602002820191906000526020600020905b81546001600160a01b03168152600190910190602001808311610863575b505050505091509250925050915091565b61089b3361061d565b6108f25760405162461bcd60e51b815260206004820152602260248201527f41636365737369626c653a2043616c6c6572206973206e6f7420616e2061646d60448201526134b760f11b60648201526084016105ba565b6105ce60008261068e565b6109063361061d565b61095d5760405162461bcd60e51b815260206004820152602260248201527f41636365737369626c653a2043616c6c6572206973206e6f7420616e2061646d60448201526134b760f11b60648201526084016105ba565b6109686000336106b8565b565b6109733361061d565b6109ca5760405162461bcd60e51b815260206004820152602260248201527f41636365737369626c653a2043616c6c6572206973206e6f7420616e2061646d60448201526134b760f11b60648201526084016105ba565b6001600160a01b038116610a205760405162461bcd60e51b815260206004820152601860248201527f41636365737369626c653a207a65726f2061646472657373000000000000000060448201526064016105ba565b6001600160a01b0381163303610a785760405162461bcd60e51b815260206004820152601660248201527f41636365737369626c653a2073616d652061646d696e0000000000000000000060448201526064016105ba565b610a8360008261068e565b6105ce6000336106b8565b610a973361061d565b610aee5760405162461bcd60e51b815260206004820152602260248201527f41636365737369626c653a2043616c6c6572206973206e6f7420616e2061646d60448201526134b760f11b60648201526084016105ba565b6006805473ffffffffffffffffffffffffffffffffffffffff19166001600160a01b0392909216919091179055565b6001600160a01b0381166000908152600a6020526040812054808203610b47576000915050610558565b6001600160a01b0383166000908152600a60205260408120610b6a600184611e13565b81548110610b7a57610b7a611e26565b60009182526020808320909101546001600160a01b038088168452600983526040808520918a1685529252912054909150610bb786868385611681565b9695505050505050565b60005b818110156106b357610bf6838383818110610be157610be1611e26565b90506020020160208101906102359190611c1d565b610bff81611e52565b9050610bc4565b600082815260056020526040902060010154610c2181611552565b6106b383836115fe565b60065460405163277166bf60e11b81526001600160a01b038581166004830152602482018590526000928392911690634ee2cd7e90604401602060405180830381865afa158015610c80573d6000803e3d6000fd5b505050506040513d601f19601f82011682018060405250810190610ca49190611e6b565b600654604051630981b24d60e41b8152600481018790529192506000916001600160a01b039091169063981b24d090602401602060405180830381865afa158015610cf3573d6000803e3d6000fd5b505050506040513d601f19601f82011682018060405250810190610d179190611e6b565b9050811580610d24575080155b15610d3457600092505050610d4e565b80610d3f8386611e84565b610d499190611e9b565b925050505b9392505050565b8080600003610d935760405162461bcd60e51b815260206004820152600a6024820152697a65726f2076616c756560b01b60448201526064016105ba565b6001600160a01b0383166000908152600a60205260408120549003610dfa5760405162461bcd60e51b815260206004820152600f60248201527f6e6f20646973747269627574696f6e000000000000000000000000000000000060448201526064016105ba565b6001600160a01b0383166000908152600a6020526040902080548391610e21600183611e13565b81548110610e3157610e31611e26565b9060005260206000200154841115610e84576001600160a01b0385166000908152600a60205260409020610e66600183611e13565b81548110610e7657610e76611e26565b906000526020600020015491505b6001600160a01b0385166000908152600960209081526040808320338085529252822054610eb491889186611681565b905060008111610f065760405162461bcd60e51b815260206004820152601460248201527f6e6f20636c61696d61626c6520616d6c6f756e7400000000000000000000000060448201526064016105ba565b6001600160a01b03861660009081526007602052604090206002810154821115610f725760405162461bcd60e51b815260206004820152601460248201527f696e73756666696369656e742062616c616e636500000000000000000000000060448201526064016105ba565b610f7d846001611ebd565b6001600160a01b0388166000908152600960209081526040808320338452909152812091909155600282018054849290610fb8908490611e13565b90915550610fd290506001600160a01b038816338461172c565b604080518581526020810184905233916001600160a01b038a16917f2f6639d24651730c7bf57c95ddbf96d66d11477e4ec626876f92c22e5f365e68910160405180910390a350505050505050565b61102a3361061d565b6110815760405162461bcd60e51b815260206004820152602260248201527f41636365737369626c653a2043616c6c6572206973206e6f7420616e2061646d60448201526134b760f11b60648201526084016105ba565b6105ce8161096a565b80806000036110c85760405162461bcd60e51b815260206004820152600a6024820152697a65726f2076616c756560b01b60448201526064016105ba565b826001600160a01b03811661111f5760405162461bcd60e51b815260206004820152600c60248201527f7a65726f2061646472657373000000000000000000000000000000000000000060448201526064016105ba565b600c5460ff16156111725760405162461bcd60e51b815260206004820152600e60248201527f616c726561647920696e2075736500000000000000000000000000000000000060448201526064016105ba565b600c805460ff19166001179055600654604080516318160ddd60e01b815290516000926001600160a01b0316916318160ddd9160048083019260209291908290030181865afa1580156111c9573d6000803e3d6000fd5b505050506040513d601f19601f820116820180604052508101906111ed9190611e6b565b90508060000361123f5760405162461bcd60e51b815260206004820152601e60248201527f6e6f2072656769737465726564204c312773207374616b696e6720746f6e000060448201526064016105ba565b6001600160a01b03851660009081526007602052604081208054909160ff909116151590036112c157600b80546001810182556000919091527f0175b7a638427703f0dbe7bb9bbf987a2551717b34e79f33b5b1008d1fa01db901805473ffffffffffffffffffffffffffffffffffffffff19166001600160a01b0388161790555b805460ff191660011781556112e16001600160a01b038716333088611847565b60065460408051632c68066b60e11b815290516000926001600160a01b0316916358d00cd6916004808301926020929190829003018187875af115801561132c573d6000803e3d6000fd5b505050506040513d601f19601f820116820180604052508101906113509190611e6b565b9050806000036113a25760405162461bcd60e51b815260206004820152600f60248201527f7a65726f20736e617073686f744964000000000000000000000000000000000060448201526064016105ba565b6001600160a01b0387166000908152600860209081526040808320848452909152902054156114135760405162461bcd60e51b815260206004820152600f60248201527f7573656420736e617073686f744964000000000000000000000000000000000060448201526064016105ba565b6001600160a01b0387166000818152600a6020908152604080832080546001810182559084529190922001839055516370a0823160e01b81523060048201526370a0823190602401602060405180830381865afa158015611478573d6000803e3d6000fd5b505050506040513d601f19601f8201168201806040525081019061149c9190611e6b565b8260020181905550858260010160008282546114b89190611ebd565b90915550506001600160a01b038716600081815260086020908152604080832085845282529182902089905581518481529081018990527f60ce3cc2d133631eac66a476f14997a9fa682bd05a60dd993cf02285822d78d8910160405180910390a25050600c805460ff191690555050505050565b60006001600160e01b03198216637965db0b60e01b148061055857506105588261196b565b6105ce81336119a7565b60008281526005602090815260408083206001600160a01b038516845290915290205460ff166107405760008281526005602090815260408083206001600160a01b03851684529091529020805460ff191660011790556115ba3390565b6001600160a01b0316816001600160a01b0316837f2f8788117e7eff1d82e926ec794901d17c78024a50270940304540a733656f0d60405160405180910390a45050565b60008281526005602090815260408083206001600160a01b038516845290915290205460ff16156107405760008281526005602090815260408083206001600160a01b0385168085529252808320805460ff1916905551339285917ff6391f5c32d9c69d2a47ea670b442974b53935d1edc7fd64eb21e047a839171b9190a45050565b60008183111561169357506000611724565b826000036116a057600192505b825b828111611722576001600160a01b038616600090815260086020908152604080832084845290915290205415611710576001600160a01b03861660009081526008602090815260408083208484529091529020546117039086908390610c2b565b61170d9083611ebd565b91505b8061171a81611e52565b9150506116a2565b505b949350505050565b604080516001600160a01b038481166024830152604480830185905283518084039091018152606490920183526020820180516001600160e01b031663a9059cbb60e01b17905291516000928392908716916117889190611ef4565b6000604051808303816000865af19150503d80600081146117c5576040519150601f19603f3d011682016040523d82523d6000602084013e6117ca565b606091505b50915091508180156117f45750805115806117f45750808060200190518101906117f49190611f10565b6118405760405162461bcd60e51b815260206004820152600f60248201527f5452414e534645525f4641494c4544000000000000000000000000000000000060448201526064016105ba565b5050505050565b604080516001600160a01b0385811660248301528481166044830152606480830185905283518084039091018152608490920183526020820180516001600160e01b03166323b872dd60e01b17905291516000928392908816916118ab9190611ef4565b6000604051808303816000865af19150503d80600081146118e8576040519150601f19603f3d011682016040523d82523d6000602084013e6118ed565b606091505b50915091508180156119175750805115806119175750808060200190518101906119179190611f10565b6119635760405162461bcd60e51b815260206004820152601460248201527f5452414e534645525f46524f4d5f4641494c454400000000000000000000000060448201526064016105ba565b505050505050565b60006301ffc9a760e01b6001600160e01b0319831614806105585750506001600160e01b03191660009081526004602052604090205460ff1690565b60008281526005602090815260408083206001600160a01b038516845290915290205460ff16610740576119da81611a1c565b6119e5836020611a2e565b6040516020016119f6929190611f32565b60408051601f198184030181529082905262461bcd60e51b82526105ba91600401611fb3565b60606105586001600160a01b03831660145b60606000611a3d836002611e84565b611a48906002611ebd565b67ffffffffffffffff811115611a6057611a60611e3c565b6040519080825280601f01601f191660200182016040528015611a8a576020820181803683370190505b509050600360fc1b81600081518110611aa557611aa5611e26565b60200101906001600160f81b031916908160001a905350600f60fb1b81600181518110611ad457611ad4611e26565b60200101906001600160f81b031916908160001a9053506000611af8846002611e84565b611b03906001611ebd565b90505b6001811115611b88577f303132333435363738396162636465660000000000000000000000000000000085600f1660108110611b4457611b44611e26565b1a60f81b828281518110611b5a57611b5a611e26565b60200101906001600160f81b031916908160001a90535060049490941c93611b8181611fe6565b9050611b06565b508315610d4e5760405162461bcd60e51b815260206004820181905260248201527f537472696e67733a20686578206c656e67746820696e73756666696369656e7460448201526064016105ba565b600060208284031215611be957600080fd5b81356001600160e01b031981168114610d4e57600080fd5b80356001600160a01b0381168114611c1857600080fd5b919050565b600060208284031215611c2f57600080fd5b610d4e82611c01565b600060208284031215611c4a57600080fd5b5035919050565b60008060408385031215611c6457600080fd5b611c6d83611c01565b946020939093013593505050565b60008060408385031215611c8e57600080fd5b82359150611c9e60208401611c01565b90509250929050565b604080825283519082018190526000906020906060840190828701845b82811015611ce95781516001600160a01b031684529284019290840190600101611cc4565b5050508381038285015284518082528583019183019060005b81811015611d1e57835183529284019291840191600101611d02565b5090979650505050505050565b60008060408385031215611d3e57600080fd5b611d4783611c01565b9150611c9e60208401611c01565b60008060208385031215611d6857600080fd5b823567ffffffffffffffff80821115611d8057600080fd5b818501915085601f830112611d9457600080fd5b813581811115611da357600080fd5b8660208260051b8501011115611db857600080fd5b60209290920196919550909350505050565b600080600060608486031215611ddf57600080fd5b611de884611c01565b95602085013595506040909401359392505050565b634e487b7160e01b600052601160045260246000fd5b8181038181111561055857610558611dfd565b634e487b7160e01b600052603260045260246000fd5b634e487b7160e01b600052604160045260246000fd5b600060018201611e6457611e64611dfd565b5060010190565b600060208284031215611e7d57600080fd5b5051919050565b808202811582820484141761055857610558611dfd565b600082611eb857634e487b7160e01b600052601260045260246000fd5b500490565b8082018082111561055857610558611dfd565b60005b83811015611eeb578181015183820152602001611ed3565b50506000910152565b60008251611f06818460208701611ed0565b9190910192915050565b600060208284031215611f2257600080fd5b81518015158114610d4e57600080fd5b7f416363657373436f6e74726f6c3a206163636f756e7420000000000000000000815260008351611f6a816017850160208801611ed0565b7f206973206d697373696e6720726f6c65200000000000000000000000000000006017918401918201528351611fa7816028840160208801611ed0565b01602801949350505050565b6020815260008251806020840152611fd2816040850160208701611ed0565b601f01601f19169190910160400192915050565b600081611ff557611ff5611dfd565b50600019019056fea164736f6c6343000813000a",
  "linkReferences": {},
  "deployedLinkReferences": {}
}