{
  "_format": "hh-sol-artifact-1",
  "contractName": "StorageStateCommitteeV3",
  "sourceName": "contracts/dao/StorageStateCommitteeV3.sol",
  "abi": [
    {
      "inputs": [],
      "name": "candidateAddOnFactory",
      "outputs": [
        {
          "internalType": "address",
          "name": "",
          "type": "address"
        }
      ],
      "stateMutability": "view",
      "type": "function"
    },
    {
      "inputs": [],
      "name": "layer2Manager",
      "outputs": [
        {
          "internalType": "address",
          "name": "",
          "type": "address"
        }
      ],
      "stateMutability": "view",
      "type": "function"
    }
  ],
  "bytecode": "0x60808060405234610015576090908161001b8239f35b600080fdfe6080806040526004361015601257600080fd5b600090813560e01c90816316b5d5bd14605d5750637536281914603457600080fd5b34605a5780600319360112605a576001546040516001600160a01b039091168152602090f35b80fd5b905034607f5781600319360112607f5790546001600160a01b03168152602090f35b5080fdfea164736f6c6343000813000a",
  "linkReferences": {},
  "deployedLinkReferences": {}
}