{
  "_format": "hh-sol-artifact-1",
  "contractName": "CandidateFactoryProxy",
  "sourceName": "contracts/dao/factory/CandidateFactoryProxy.sol",
  "abi": [
    {
      "anonymous": false,
      "inputs": [
        {
          "indexed": true,
          "internalType": "bytes32",
          "name": "role",
          "type": "bytes32"
        },
        {
          "indexed": true,
          "internalType": "bytes32",
          "name": "previousAdminRole",
          "type": "bytes32"
        },
        {
          "indexed": true,
          "internalType": "bytes32",
          "name": "newAdminRole",
          "type": "bytes32"
        }
      ],
      "name": "RoleAdminChanged",
      "type": "event"
    },
    {
      "anonymous": false,
      "inputs": [
        {
          "indexed": true,
          "internalType": "bytes32",
          "name": "role",
          "type": "bytes32"
        },
        {
          "indexed": true,
          "internalType": "address",
          "name": "account",
          "type": "address"
        },
        {
          "indexed": true,
          "internalType": "address",
          "name": "sender",
          "type": "address"
        }
      ],
      "name": "RoleGranted",
      "type": "event"
    },
    {
      "anonymous": false,
      "inputs": [
        {
          "indexed": true,
          "internalType": "bytes32",
          "name": "role",
          "type": "bytes32"
        },
        {
          "indexed": true,
          "internalType": "address",
          "name": "account",
          "type": "address"
        },
        {
          "indexed": true,
          "internalType": "address",
          "name": "sender",
          "type": "address"
        }
      ],
      "name": "RoleRevoked",
      "type": "event"
    },
    {
      "anonymous": false,
      "inputs": [
        {
          "indexed": true,
          "internalType": "address",
          "name": "impl",
          "type": "address"
        },
        {
          "indexed": false,
          "internalType": "bool",
          "name": "alive",
          "type": "bool"
        }
      ],
      "name": "SetAliveImplementation",
      "type": "event"
    },
    {
      "anonymous": false,
      "inputs": [
        {
          "indexed": true,
          "internalType": "bytes4",
          "name": "selector",
          "type": "bytes4"
        },
        {
          "indexed": true,
          "internalType": "address",
          "name": "impl",
          "type": "address"
        }
      ],
      "name": "SetSelectorImplementation",
      "type": "event"
    },
    {
      "anonymous": false,
      "inputs": [
        {
          "indexed": true,
          "internalType": "address",
          "name": "implementation",
          "type": "address"
        }
      ],
      "name": "Upgraded",
      "type": "event"
    },
    {
      "stateMutability": "payable",
      "type": "fallback"
    },
    {
      "inputs": [],
      "name": "DEFAULT_ADMIN_ROLE",
      "outputs": [
        {
          "internalType": "bytes32",
          "name": "",
          "type": "bytes32"
        }
      ],
      "stateMutability": "view",
      "type": "function"
    },
    {
      "inputs": [],
      "name": "MINTER_ROLE",
      "outputs": [
        {
          "internalType": "bytes32",
          "name": "",
          "type": "bytes32"
        }
      ],
      "stateMutability": "view",
      "type": "function"
    },
    {
      "inputs": [
        {
          "internalType": "address",
          "name": "account",
          "type": "address"
        }
      ],
      "name": "addAdmin",
      "outputs": [],
      "stateMutability": "nonpayable",
      "type": "function"
    },
    {
      "inputs": [
        {
          "internalType": "address",
          "name": "",
          "type": "address"
        }
      ],
      "name": "aliveImplementation",
      "outputs": [
        {
          "internalType": "bool",
          "name": "",
          "type": "bool"
        }
      ],
      "stateMutability": "view",
      "type": "function"
    },
    {
      "inputs": [],
      "name": "candidateImp",
      "outputs": [
        {
          "internalType": "address",
          "name": "",
          "type": "address"
        }
      ],
      "stateMutability": "view",
      "type": "function"
    },
    {
      "inputs": [],
      "name": "daoCommittee",
      "outputs": [
        {
          "internalType": "address",
          "name": "",
          "type": "address"
        }
      ],
      "stateMutability": "view",
      "type": "function"
    },
    {
      "inputs": [],
      "name": "depositManager",
      "outputs": [
        {
          "internalType": "address",
          "name": "",
          "type": "address"
        }
      ],
      "stateMutability": "view",
      "type": "function"
    },
    {
      "inputs": [
        {
          "internalType": "bytes32",
          "name": "role",
          "type": "bytes32"
        }
      ],
      "name": "getRoleAdmin",
      "outputs": [
        {
          "internalType": "bytes32",
          "name": "",
          "type": "bytes32"
        }
      ],
      "stateMutability": "view",
      "type": "function"
    },
    {
      "inputs": [
        {
          "internalType": "bytes4",
          "name": "_selector",
          "type": "bytes4"
        }
      ],
      "name": "getSelectorImplementation2",
      "outputs": [
        {
          "internalType": "address",
          "name": "impl",
          "type": "address"
        }
      ],
      "stateMutability": "view",
      "type": "function"
    },
    {
      "inputs": [
        {
          "internalType": "bytes32",
          "name": "role",
          "type": "bytes32"
        },
        {
          "internalType": "address",
          "name": "account",
          "type": "address"
        }
      ],
      "name": "grantRole",
      "outputs": [],
      "stateMutability": "nonpayable",
      "type": "function"
    },
    {
      "inputs": [
        {
          "internalType": "bytes32",
          "name": "role",
          "type": "bytes32"
        },
        {
          "internalType": "address",
          "name": "account",
          "type": "address"
        }
      ],
      "name": "hasRole",
      "outputs": [
        {
          "internalType": "bool",
          "name": "",
          "type": "bool"
        }
      ],
      "stateMutability": "view",
      "type": "function"
    },
    {
      "inputs": [],
      "name": "implementation",
      "outputs": [
        {
          "internalType": "address",
          "name": "",
          "type": "address"
        }
      ],
      "stateMutability": "view",
      "type": "function"
    },
    {
      "inputs": [
        {
          "internalType": "uint256",
          "name": "_index",
          "type": "uint256"
        }
      ],
      "name": "implementation2",
      "outputs": [
        {
          "internalType": "address",
          "name": "",
          "type": "address"
        }
      ],
      "stateMutability": "view",
      "type": "function"
    },
    {
      "inputs": [
        {
          "internalType": "address",
          "name": "account",
          "type": "address"
        }
      ],
      "name": "isAdmin",
      "outputs": [
        {
          "internalType": "bool",
          "name": "",
          "type": "bool"
        }
      ],
      "stateMutability": "view",
      "type": "function"
    },
    {
      "inputs": [],
      "name": "isOwner",
      "outputs": [
        {
          "internalType": "bool",
          "name": "",
          "type": "bool"
        }
      ],
      "stateMutability": "view",
      "type": "function"
    },
    {
      "inputs": [],
      "name": "pauseProxy",
      "outputs": [
        {
          "internalType": "bool",
          "name": "",
          "type": "bool"
        }
      ],
      "stateMutability": "view",
      "type": "function"
    },
    {
      "inputs": [
        {
          "internalType": "uint256",
          "name": "",
          "type": "uint256"
        }
      ],
      "name": "proxyImplementation",
      "outputs": [
        {
          "internalType": "address",
          "name": "",
          "type": "address"
        }
      ],
      "stateMutability": "view",
      "type": "function"
    },
    {
      "inputs": [
        {
          "internalType": "address",
          "name": "account",
          "type": "address"
        }
      ],
      "name": "removeAdmin",
      "outputs": [],
      "stateMutability": "nonpayable",
      "type": "function"
    },
    {
      "inputs": [],
      "name": "renounceOwnership",
      "outputs": [],
      "stateMutability": "nonpayable",
      "type": "function"
    },
    {
      "inputs": [
        {
          "internalType": "bytes32",
          "name": "role",
          "type": "bytes32"
        },
        {
          "internalType": "address",
          "name": "account",
          "type": "address"
        }
      ],
      "name": "renounceRole",
      "outputs": [],
      "stateMutability": "nonpayable",
      "type": "function"
    },
    {
      "inputs": [
        {
          "internalType": "bytes32",
          "name": "role",
          "type": "bytes32"
        },
        {
          "internalType": "address",
          "name": "account",
          "type": "address"
        }
      ],
      "name": "revokeRole",
      "outputs": [],
      "stateMutability": "nonpayable",
      "type": "function"
    },
    {
      "inputs": [
        {
          "internalType": "bytes4",
          "name": "",
          "type": "bytes4"
        }
      ],
      "name": "selectorImplementation",
      "outputs": [
        {
          "internalType": "address",
          "name": "",
          "type": "address"
        }
      ],
      "stateMutability": "view",
      "type": "function"
    },
    {
      "inputs": [
        {
          "internalType": "address",
          "name": "newImplementation",
          "type": "address"
        },
        {
          "internalType": "bool",
          "name": "_alive",
          "type": "bool"
        }
      ],
      "name": "setAliveImplementation2",
      "outputs": [],
      "stateMutability": "nonpayable",
      "type": "function"
    },
    {
      "inputs": [
        {
          "internalType": "address",
          "name": "newImplementation",
          "type": "address"
        },
        {
          "internalType": "uint256",
          "name": "_index",
          "type": "uint256"
        },
        {
          "internalType": "bool",
          "name": "_alive",
          "type": "bool"
        }
      ],
      "name": "setImplementation2",
      "outputs": [],
      "stateMutability": "nonpayable",
      "type": "function"
    },
    {
      "inputs": [
        {
          "internalType": "bool",
          "name": "_pause",
          "type": "bool"
        }
      ],
      "name": "setProxyPause",
      "outputs": [],
      "stateMutability": "nonpayable",
      "type": "function"
    },
    {
      "inputs": [
        {
          "internalType": "bytes4[]",
          "name": "_selectors",
          "type": "bytes4[]"
        },
        {
          "internalType": "address",
          "name": "_imp",
          "type": "address"
        }
      ],
      "name": "setSelectorImplementations2",
      "outputs": [],
      "stateMutability": "nonpayable",
      "type": "function"
    },
    {
      "inputs": [
        {
          "internalType": "bytes4",
          "name": "interfaceId",
          "type": "bytes4"
        }
      ],
      "name": "supportsInterface",
      "outputs": [
        {
          "internalType": "bool",
          "name": "",
          "type": "bool"
        }
      ],
      "stateMutability": "view",
      "type": "function"
    },
    {
      "inputs": [],
      "name": "ton",
      "outputs": [
        {
          "internalType": "address",
          "name": "",
          "type": "address"
        }
      ],
      "stateMutability": "view",
      "type": "function"
    },
    {
      "inputs": [
        {
          "internalType": "address",
          "name": "newAdmin",
          "type": "address"
        }
      ],
      "name": "transferAdmin",
      "outputs": [],
      "stateMutability": "nonpayable",
      "type": "function"
    },
    {
      "inputs": [
        {
          "internalType": "address",
          "name": "newAdmin",
          "type": "address"
        }
      ],
      "name": "transferOwnership",
      "outputs": [],
      "stateMutability": "nonpayable",
      "type": "function"
    },
    {
      "inputs": [
        {
          "internalType": "address",
          "name": "impl",
          "type": "address"
        }
      ],
      "name": "upgradeTo",
      "outputs": [],
      "stateMutability": "nonpayable",
      "type": "function"
    },
    {
      "inputs": [],
      "name": "wton",
      "outputs": [
        {
          "internalType": "address",
          "name": "",
          "type": "address"
        }
      ],
      "stateMutability": "view",
      "type": "function"
    },
    {
      "stateMutability": "payable",
      "type": "receive"
    }
  ],
  "bytecode": "0x6080806040523461009e573360009081527f05b8ccbb9d4d8fb16ea74ce3c29a41f1b461fbdaff4714a0d9a8eb05499746bc602052604081205460ff161561004f575b506117fd90816100a48239f35b80805260056020526040812033825260205260408120600160ff19825416179055339033907f2f8788117e7eff1d82e926ec794901d17c78024a50270940304540a733656f0d8180a438610042565b600080fdfe60806040526004361015610018575b366116495761160d565b60003560e01c806301ffc9a7146102135780631785f53c1461020e578063248a9ca31461020957806324d7806c146102045780632f2ff15d146101ff57806336568abe146101fa5780633659cfe6146101f55780634a5df50f146101f057806350d2a276146101eb578063550d01a3146101e65780635c60da1b146101e15780635cc797d8146101dc57806363a8fd89146101d75780636c7ac9d8146101d257806370480275146101cd578063715018a6146101c857806375829def146101c35780637cb00d25146101be5780637cd5f663146101b957806383eeaa7b146101b45780638b8f4a65146101965780638d4fdb40146101af5780638d62d949146101aa5780638f32d59b146101a557806391d14854146101a0578063a217fddf1461019b578063b911135f14610196578063cc48b94714610191578063d53913931461018c578063d547741f14610187578063eeac9431146101825763f2fde38b0361000e57610e35565b610e0c565b610dcd565b610d92565b610d69565b610c3a565b610d4d565b610d07565b610cd0565b610ca7565b610c6e565b610c11565b610b37565b610adf565b610a18565b6109f2565b610906565b6108dd565b6108ba565b610863565b61082f565b6107f0565b6107aa565b6105c2565b6104e2565b610450565b610387565b610337565b610308565b6102d4565b61022f565b6001600160e01b031981160361022a57565b600080fd5b3461022a57602036600319011261022a5760043561024c81610218565b6001600160e01b031916637965db0b60e01b81148015610274575b6020906040519015158152f35b506301ffc9a760e01b8114801561028f575b60209150610267565b506000526004602052602060ff60406000205416610286565b600435906001600160a01b038216820361022a57565b602435906001600160a01b038216820361022a57565b3461022a57602036600319011261022a576103066102f06102a8565b6103016102fc33610e56565b6113d0565b611128565b005b3461022a57602036600319011261022a5760043560005260056020526020600160406000200154604051908152f35b3461022a57602036600319011261022a57602060ff61037b6103576102a8565b600080526005845260406000209060018060a01b0316600052602052604060002090565b54166040519015158152f35b3461022a57604036600319011261022a576004356103a36102be565b60009180835260056020526103be6001604085200154610f44565b8083526005602090815260408085206001600160a01b0385166000908152925290205460ff16156103ed578280f35b8083526005602090815260408085206001600160a01b038516600090815292529020805460ff1916600117905533916001600160a01b0316907f2f8788117e7eff1d82e926ec794901d17c78024a50270940304540a733656f0d8480a438808280f35b3461022a57604036600319011261022a576104696102be565b336001600160a01b0382160361048557610306906004356111c5565b60405162461bcd60e51b815260206004820152602f60248201527f416363657373436f6e74726f6c3a2063616e206f6e6c792072656e6f756e636560448201526e103937b632b9903337b91039b2b63360891b6064820152608490fd5b3461022a57602036600319011261022a576104fb6102a8565b3360009081526000805160206117d1833981519152602052604081209091906105299060ff905b54166113d0565b6001600160a01b03811690811561058d57828052600160205260408320546105669190610561906001600160a01b0316841415611427565b6116e4565b7fbc7cd75a20ee27fd9adebab32041f755214dbc6bffa90cc0225b39da2e5c2d3b8280a280f35b60405162461bcd60e51b815260206004820152600d60248201526c696e707574206973207a65726f60981b6044820152606490fd5b3461022a57604036600319011261022a5767ffffffffffffffff60043581811161022a573660238201121561022a57806004013591821161022a576024810190602436918460051b01011161022a576106196102be565b3360009081526000805160206117d1833981519152602052604081209093906106449060ff90610522565b80156107665761067a61067561066e84959460018060a01b03166000526002602052604060002090565b5460ff1690565b61145f565b6001600160a01b03928084169290855b838110610695578680f35b806106e586886106dd6106d06106b76106b2610761988c8c6114ba565b6114ca565b63ffffffff60e01b166000526003602052604060002090565b546001600160a01b031690565b1614156114d4565b610719836106fa6106b76106b2858a8a6114ba565b80546001600160a01b0319166001600160a01b03909216919091179055565b8561073861072b6106b28489896114ba565b6001600160e01b03191690565b7f14ebc1c32aa68f4d766e89f3e546cee249f7df25183fc10ab1568d91c2ce9b7b8a80a36114ab565b61068a565b606460405162461bcd60e51b815260206004820152602060248201527f50726f78793a205f73656c6563746f727327732073697a65206973207a65726f6044820152fd5b3461022a57602036600319011261022a576004356107c781610218565b63ffffffff60e01b166000526003602052602060018060a01b0360406000205416604051908152f35b3461022a57602036600319011261022a576001600160a01b036108116102a8565b166000526002602052602060ff604060002054166040519015158152f35b3461022a576000806003193601126108605780806020925260018252604060018060a01b0391205416604051908152f35b80fd5b3461022a57604036600319011261022a5761087c6102a8565b602435801515810361022a573360009081526000805160206117d18339815191526020526040902061030692906108b59060ff90610522565b61177c565b3461022a57600036600319011261022a57602060ff600054166040519015158152f35b3461022a57600036600319011261022a576006546040516001600160a01b039091168152602090f35b3461022a57602036600319011261022a5761091f6102a8565b61092b6102fc33610e56565b600080805260056020527f05b8ccbb9d4d8fb16ea74ce3c29a41f1b461fbdaff4714a0d9a8eb05499746bd5490919061096390610f44565b8180526005602090815260408084206001600160a01b0384166000908152925290205460ff1615610992575080f35b8180526005602090815260408084206001600160a01b038416600090815292529020805460ff1916600117905533906001600160a01b0316827f2f8788117e7eff1d82e926ec794901d17c78024a50270940304540a733656f0d8180a480f35b3461022a57600036600319011261022a57610a0f6102fc33610e56565b61030633611128565b3461022a57602036600319011261022a57610a316102a8565b610a3d6102fc33610e56565b6001600160a01b0381168015610a9a573314610a5c57610a0f90610e81565b60405162461bcd60e51b815260206004820152601660248201527520b1b1b2b9b9b4b136329d1039b0b6b29030b236b4b760511b6044820152606490fd5b60405162461bcd60e51b815260206004820152601860248201527f41636365737369626c653a207a65726f206164647265737300000000000000006044820152606490fd5b3461022a57602036600319011261022a5760043580151580910361022a573360009081526000805160206117d183398151915260205260408120909190610b289060ff90610522565b60ff8019835416911617815580f35b3461022a57606036600319011261022a57610b506102a8565b60443590811515820361022a573360009081526000805160206117d183398151915260205260408120909290610b889060ff90610522565b813b15610bcc57610b9d9181610ba05761177c565b80f35b602435845260016020526040842080546001600160a01b0319166001600160a01b03831617905561177c565b60405162461bcd60e51b815260206004820152601b60248201527f50726f78793a206e6f7420636f6e7472616374206164647265737300000000006044820152606490fd5b3461022a57600036600319011261022a576008546040516001600160a01b039091168152602090f35b3461022a57602036600319011261022a576004356000526001602052602060018060a01b0360406000205416604051908152f35b3461022a57602036600319011261022a576020610c95600435610c9081610218565b611520565b6040516001600160a01b039091168152f35b3461022a57600036600319011261022a57600a546040516001600160a01b039091168152602090f35b3461022a5760008060031936011261086057808052600560209081526040918290203360009081529082529190912060ff9061037b565b3461022a57604036600319011261022a57602060ff61037b610d276102be565b6004356000526005845260406000209060018060a01b0316600052602052604060002090565b3461022a57600036600319011261022a57602060405160008152f35b3461022a57600036600319011261022a576009546040516001600160a01b039091168152602090f35b3461022a57600036600319011261022a5760206040517ff0887ba65ee2024ea881d91b74c2450ef19e1557f03bed3ea9f16b037cbe2dc98152f35b3461022a57604036600319011261022a57610306600435610dec6102be565b90806000526005602052610e07600160406000200154610f44565b6111c5565b3461022a57600036600319011261022a576007546040516001600160a01b039091168152602090f35b3461022a57602036600319011261022a57610e4e6102a8565b610a316102fc335b6001600160a01b031660009081526000805160206117d1833981519152602052604090205460ff1690565b600080805260056020527f05b8ccbb9d4d8fb16ea74ce3c29a41f1b461fbdaff4714a0d9a8eb05499746bd54610eb690610f44565b8080526005602090815260408083206001600160a01b0385166000908152925290205460ff1615610ee5575050565b8080526005602090815260408083206001600160a01b038516600090815292529020805460ff1916600117905533916001600160a01b0316907f2f8788117e7eff1d82e926ec794901d17c78024a50270940304540a733656f0d8180a4565b600081815260056020908152604080832033845290915290205460ff1615610f695750565b3390610f7361126e565b916030610f7f846112b1565b536078610f8b846112be565b5360295b6001811161103e5761103a610ff761102286611014610fb788610fb289156112f1565b61133c565b610ff1604051958694610ff1602087016017907f416363657373436f6e74726f6c3a206163636f756e742000000000000000000081520190565b906110a8565b7001034b99036b4b9b9b4b733903937b6329607d1b815260110190565b03601f1981018352826110d5565b60405162461bcd60e51b8152918291600483016110fc565b0390fd5b90600f81169060108210156110805761107b916f181899199a1a9b1b9c1cb0b131b232b360811b901a61107184876112ce565b5360041c916112df565b610f8f565b61129b565b60005b8381106110985750506000910152565b8181015183820152602001611088565b906110bb60209282815194859201611085565b0190565b634e487b7160e01b600052604160045260246000fd5b90601f8019910116810190811067ffffffffffffffff8211176110f757604052565b6110bf565b6040916020825261111c8151809281602086015260208686019101611085565b601f01601f1916010190565b6001600160a01b038116338103610485576001600160a01b03821660009081526000805160206117d1833981519152602052604081205490929060ff1661116e57505050565b611195908380526005602052604084209060018060a01b0316600052602052604060002090565b805460ff1916905533917ff6391f5c32d9c69d2a47ea670b442974b53935d1edc7fd64eb21e047a839171b8180a4565b600090808252600560205260ff6111f184604085209060018060a01b0316600052602052604060002090565b54166111fc57505050565b8082526005602090815260408084206001600160a01b038616600090815292529020805460ff1916905533926001600160a01b0316917ff6391f5c32d9c69d2a47ea670b442974b53935d1edc7fd64eb21e047a839171b9080a4565b634e487b7160e01b600052601160045260246000fd5b604051906060820182811067ffffffffffffffff8211176110f757604052602a8252604082602036910137565b634e487b7160e01b600052603260045260246000fd5b8051156110805760200190565b8051600110156110805760210190565b908151811015611080570160200190565b80156112ec576000190190565b611258565b156112f857565b606460405162461bcd60e51b815260206004820152602060248201527f537472696e67733a20686578206c656e67746820696e73756666696369656e746044820152fd5b604051906080820182811067ffffffffffffffff8211176110f7576040526042825260603660208401376030611371836112b1565b53607861137d836112be565b536041905b60018211611398576113959150156112f1565b90565b600f8116906010821015611080576113ca916f181899199a1a9b1b9c1cb0b131b232b360811b901a61107184866112ce565b90611382565b156113d757565b60405162461bcd60e51b815260206004820152602260248201527f41636365737369626c653a2043616c6c6572206973206e6f7420616e2061646d60448201526134b760f11b6064820152608490fd5b1561142e57565b60405162461bcd60e51b815260206004820152600960248201526839b0b6b29030b2323960b91b6044820152606490fd5b1561146657565b60405162461bcd60e51b815260206004820152601860248201527f50726f78793a205f696d70206973206e6f7420616c69766500000000000000006044820152606490fd5b60001981146112ec5760010190565b91908110156110805760051b0190565b3561139581610218565b156114db57565b60405162461bcd60e51b815260206004820152601d60248201527f4c69717569646974795661756c7450726f78793a2073616d6520696d700000006044820152606490fd5b6001600160e01b031981166000908152600360205260409020546001600160a01b039190821661157a57506000805260016020527fa6eef7e35abe7026729641147f7915573c7e97b47efa546f5f6e3230263bcb49541690565b60ff6115b98361159d8463ffffffff60e01b166000526003602052604060002090565b54166001600160a01b0316600090815260026020526040902090565b5416156115dd576001600160e01b0319166000908152600360205260409020541690565b506000805260016020527fa6eef7e35abe7026729641147f7915573c7e97b47efa546f5f6e3230263bcb49541690565b60405162461bcd60e51b815260206004820152601460248201527331b0b73737ba103932b1b2b4bb329022ba3432b960611b6044820152606490fd5b600061165f81356001600160e01b031916611520565b6001600160a01b0381161515806116d8575b1561169357818091368280378136915af43d82803e1561168f573d90f35b3d90fd5b60405162461bcd60e51b815260206004820152601d60248201527f50726f78793a20696d706c204f522070726f78792069732066616c73650000006044820152606490fd5b5060ff82541615611671565b803b15610bcc576000805260016020527fa6eef7e35abe7026729641147f7915573c7e97b47efa546f5f6e3230263bcb4980546001600160a01b0319166001600160a01b03831617905560018060a01b03168060005260026020526040600020600160ff198254161790557f72558d9bfba4210f9ef095c782589484151f6d90f7a81bb3cb9b33efc695d324602060405160018152a2565b60207f72558d9bfba4210f9ef095c782589484151f6d90f7a81bb3cb9b33efc695d3249160018060a01b031692836000526002825260406000209015159060ff1981541660ff8316179055604051908152a256fe05b8ccbb9d4d8fb16ea74ce3c29a41f1b461fbdaff4714a0d9a8eb05499746bca164736f6c6343000813000a",
  "linkReferences": {},
  "deployedLinkReferences": {}
}