{
  "_format": "hh-sol-artifact-1",
  "contractName": "CandidateFactoryProxy",
  "sourceName": "contracts/dao/factory/CandidateFactoryProxy.sol",
  "abi": [
    {
      "anonymous": false,
      "inputs": [
        {
          "indexed": true,
          "internalType": "bytes32",
          "name": "role",
          "type": "bytes32"
        },
        {
          "indexed": true,
          "internalType": "bytes32",
          "name": "previousAdminRole",
          "type": "bytes32"
        },
        {
          "indexed": true,
          "internalType": "bytes32",
          "name": "newAdminRole",
          "type": "bytes32"
        }
      ],
      "name": "RoleAdminChanged",
      "type": "event"
    },
    {
      "anonymous": false,
      "inputs": [
        {
          "indexed": true,
          "internalType": "bytes32",
          "name": "role",
          "type": "bytes32"
        },
        {
          "indexed": true,
          "internalType": "address",
          "name": "account",
          "type": "address"
        },
        {
          "indexed": true,
          "internalType": "address",
          "name": "sender",
          "type": "address"
        }
      ],
      "name": "RoleGranted",
      "type": "event"
    },
    {
      "anonymous": false,
      "inputs": [
        {
          "indexed": true,
          "internalType": "bytes32",
          "name": "role",
          "type": "bytes32"
        },
        {
          "indexed": true,
          "internalType": "address",
          "name": "account",
          "type": "address"
        },
        {
          "indexed": true,
          "internalType": "address",
          "name": "sender",
          "type": "address"
        }
      ],
      "name": "RoleRevoked",
      "type": "event"
    },
    {
      "anonymous": false,
      "inputs": [
        {
          "indexed": true,
          "internalType": "address",
          "name": "impl",
          "type": "address"
        },
        {
          "indexed": false,
          "internalType": "bool",
          "name": "alive",
          "type": "bool"
        }
      ],
      "name": "SetAliveImplementation",
      "type": "event"
    },
    {
      "anonymous": false,
      "inputs": [
        {
          "indexed": true,
          "internalType": "bytes4",
          "name": "selector",
          "type": "bytes4"
        },
        {
          "indexed": true,
          "internalType": "address",
          "name": "impl",
          "type": "address"
        }
      ],
      "name": "SetSelectorImplementation",
      "type": "event"
    },
    {
      "anonymous": false,
      "inputs": [
        {
          "indexed": true,
          "internalType": "address",
          "name": "implementation",
          "type": "address"
        }
      ],
      "name": "Upgraded",
      "type": "event"
    },
    {
      "stateMutability": "payable",
      "type": "fallback"
    },
    {
      "inputs": [],
      "name": "DEFAULT_ADMIN_ROLE",
      "outputs": [
        {
          "internalType": "bytes32",
          "name": "",
          "type": "bytes32"
        }
      ],
      "stateMutability": "view",
      "type": "function"
    },
    {
      "inputs": [],
      "name": "MINTER_ROLE",
      "outputs": [
        {
          "internalType": "bytes32",
          "name": "",
          "type": "bytes32"
        }
      ],
      "stateMutability": "view",
      "type": "function"
    },
    {
      "inputs": [
        {
          "internalType": "address",
          "name": "account",
          "type": "address"
        }
      ],
      "name": "addAdmin",
      "outputs": [],
      "stateMutability": "nonpayable",
      "type": "function"
    },
    {
      "inputs": [
        {
          "internalType": "address",
          "name": "",
          "type": "address"
        }
      ],
      "name": "aliveImplementation",
      "outputs": [
        {
          "internalType": "bool",
          "name": "",
          "type": "bool"
        }
      ],
      "stateMutability": "view",
      "type": "function"
    },
    {
      "inputs": [],
      "name": "candidateImp",
      "outputs": [
        {
          "internalType": "address",
          "name": "",
          "type": "address"
        }
      ],
      "stateMutability": "view",
      "type": "function"
    },
    {
      "inputs": [],
      "name": "daoCommittee",
      "outputs": [
        {
          "internalType": "address",
          "name": "",
          "type": "address"
        }
      ],
      "stateMutability": "view",
      "type": "function"
    },
    {
      "inputs": [],
      "name": "depositManager",
      "outputs": [
        {
          "internalType": "address",
          "name": "",
          "type": "address"
        }
      ],
      "stateMutability": "view",
      "type": "function"
    },
    {
      "inputs": [
        {
          "internalType": "bytes32",
          "name": "role",
          "type": "bytes32"
        }
      ],
      "name": "getRoleAdmin",
      "outputs": [
        {
          "internalType": "bytes32",
          "name": "",
          "type": "bytes32"
        }
      ],
      "stateMutability": "view",
      "type": "function"
    },
    {
      "inputs": [
        {
          "internalType": "bytes4",
          "name": "_selector",
          "type": "bytes4"
        }
      ],
      "name": "getSelectorImplementation2",
      "outputs": [
        {
          "internalType": "address",
          "name": "impl",
          "type": "address"
        }
      ],
      "stateMutability": "view",
      "type": "function"
    },
    {
      "inputs": [
        {
          "internalType": "bytes32",
          "name": "role",
          "type": "bytes32"
        },
        {
          "internalType": "address",
          "name": "account",
          "type": "address"
        }
      ],
      "name": "grantRole",
      "outputs": [],
      "stateMutability": "nonpayable",
      "type": "function"
    },
    {
      "inputs": [
        {
          "internalType": "bytes32",
          "name": "role",
          "type": "bytes32"
        },
        {
          "internalType": "address",
          "name": "account",
          "type": "address"
        }
      ],
      "name": "hasRole",
      "outputs": [
        {
          "internalType": "bool",
          "name": "",
          "type": "bool"
        }
      ],
      "stateMutability": "view",
      "type": "function"
    },
    {
      "inputs": [],
      "name": "implementation",
      "outputs": [
        {
          "internalType": "address",
          "name": "",
          "type": "address"
        }
      ],
      "stateMutability": "view",
      "type": "function"
    },
    {
      "inputs": [
        {
          "internalType": "uint256",
          "name": "_index",
          "type": "uint256"
        }
      ],
      "name": "implementation2",
      "outputs": [
        {
          "internalType": "address",
          "name": "",
          "type": "address"
        }
      ],
      "stateMutability": "view",
      "type": "function"
    },
    {
      "inputs": [
        {
          "internalType": "address",
          "name": "account",
          "type": "address"
        }
      ],
      "name": "isAdmin",
      "outputs": [
        {
          "internalType": "bool",
          "name": "",
          "type": "bool"
        }
      ],
      "stateMutability": "view",
      "type": "function"
    },
    {
      "inputs": [],
      "name": "isOwner",
      "outputs": [
        {
          "internalType": "bool",
          "name": "",
          "type": "bool"
        }
      ],
      "stateMutability": "view",
      "type": "function"
    },
    {
      "inputs": [],
      "name": "pauseProxy",
      "outputs": [
        {
          "internalType": "bool",
          "name": "",
          "type": "bool"
        }
      ],
      "stateMutability": "view",
      "type": "function"
    },
    {
      "inputs": [
        {
          "internalType": "uint256",
          "name": "",
          "type": "uint256"
        }
      ],
      "name": "proxyImplementation",
      "outputs": [
        {
          "internalType": "address",
          "name": "",
          "type": "address"
        }
      ],
      "stateMutability": "view",
      "type": "function"
    },
    {
      "inputs": [
        {
          "internalType": "address",
          "name": "account",
          "type": "address"
        }
      ],
      "name": "removeAdmin",
      "outputs": [],
      "stateMutability": "nonpayable",
      "type": "function"
    },
    {
      "inputs": [],
      "name": "renounceOwnership",
      "outputs": [],
      "stateMutability": "nonpayable",
      "type": "function"
    },
    {
      "inputs": [
        {
          "internalType": "bytes32",
          "name": "role",
          "type": "bytes32"
        },
        {
          "internalType": "address",
          "name": "account",
          "type": "address"
        }
      ],
      "name": "renounceRole",
      "outputs": [],
      "stateMutability": "nonpayable",
      "type": "function"
    },
    {
      "inputs": [
        {
          "internalType": "bytes32",
          "name": "role",
          "type": "bytes32"
        },
        {
          "internalType": "address",
          "name": "account",
          "type": "address"
        }
      ],
      "name": "revokeRole",
      "outputs": [],
      "stateMutability": "nonpayable",
      "type": "function"
    },
    {
      "inputs": [
        {
          "internalType": "bytes4",
          "name": "",
          "type": "bytes4"
        }
      ],
      "name": "selectorImplementation",
      "outputs": [
        {
          "internalType": "address",
          "name": "",
          "type": "address"
        }
      ],
      "stateMutability": "view",
      "type": "function"
    },
    {
      "inputs": [
        {
          "internalType": "address",
          "name": "newImplementation",
          "type": "address"
        },
        {
          "internalType": "bool",
          "name": "_alive",
          "type": "bool"
        }
      ],
      "name": "setAliveImplementation2",
      "outputs": [],
      "stateMutability": "nonpayable",
      "type": "function"
    },
    {
      "inputs": [
        {
          "internalType": "address",
          "name": "newImplementation",
          "type": "address"
        },
        {
          "internalType": "uint256",
          "name": "_index",
          "type": "uint256"
        },
        {
          "internalType": "bool",
          "name": "_alive",
          "type": "bool"
        }
      ],
      "name": "setImplementation2",
      "outputs": [],
      "stateMutability": "nonpayable",
      "type": "function"
    },
    {
      "inputs": [
        {
          "internalType": "bool",
          "name": "_pause",
          "type": "bool"
        }
      ],
      "name": "setProxyPause",
      "outputs": [],
      "stateMutability": "nonpayable",
      "type": "function"
    },
    {
      "inputs": [
        {
          "internalType": "bytes4[]",
          "name": "_selectors",
          "type": "bytes4[]"
        },
        {
          "internalType": "address",
          "name": "_imp",
          "type": "address"
        }
      ],
      "name": "setSelectorImplementations2",
      "outputs": [],
      "stateMutability": "nonpayable",
      "type": "function"
    },
    {
      "inputs": [
        {
          "internalType": "bytes4",
          "name": "interfaceId",
          "type": "bytes4"
        }
      ],
      "name": "supportsInterface",
      "outputs": [
        {
          "internalType": "bool",
          "name": "",
          "type": "bool"
        }
      ],
      "stateMutability": "view",
      "type": "function"
    },
    {
      "inputs": [],
      "name": "ton",
      "outputs": [
        {
          "internalType": "address",
          "name": "",
          "type": "address"
        }
      ],
      "stateMutability": "view",
      "type": "function"
    },
    {
      "inputs": [
        {
          "internalType": "address",
          "name": "newAdmin",
          "type": "address"
        }
      ],
      "name": "transferAdmin",
      "outputs": [],
      "stateMutability": "nonpayable",
      "type": "function"
    },
    {
      "inputs": [
        {
          "internalType": "address",
          "name": "newAdmin",
          "type": "address"
        }
      ],
      "name": "transferOwnership",
      "outputs": [],
      "stateMutability": "nonpayable",
      "type": "function"
    },
    {
      "inputs": [
        {
          "internalType": "address",
          "name": "impl",
          "type": "address"
        }
      ],
      "name": "upgradeTo",
      "outputs": [],
      "stateMutability": "nonpayable",
      "type": "function"
    },
    {
      "inputs": [],
      "name": "wton",
      "outputs": [
        {
          "internalType": "address",
          "name": "",
          "type": "address"
        }
      ],
      "stateMutability": "view",
      "type": "function"
    },
    {
      "stateMutability": "payable",
      "type": "receive"
    }
  ],
  "bytecode": "0x608060405234801561001057600080fd5b5061001c600033610021565b6100d1565b61002b828261002f565b5050565b60008281526005602090815260408083206001600160a01b038516845290915290205460ff1661002b5760008281526005602090815260408083206001600160a01b03851684529091529020805460ff1916600117905561008d3390565b6001600160a01b0316816001600160a01b0316837f2f8788117e7eff1d82e926ec794901d17c78024a50270940304540a733656f0d60405160405180910390a45050565b6119b880620000e16000396000f3fe6080604052600436106101e75760003560e01c806375829def1161010257806391d1485411610095578063d539139311610064578063d53913931461069e578063d547741f146106d2578063eeac9431146106f2578063f2fde38b1461071257610239565b806391d14854146105ed578063a217fddf14610633578063b911135f14610648578063cc48b9471461067e57610239565b80638b8f4a65116100d15780638b8f4a65146105495780638d4fdb40146105695780638d62d949146105895780638f32d59b146105a957610239565b806375829def146104c95780637cb00d25146104e95780637cd5f6631461050957806383eeaa7b1461052957610239565b806350d2a2761161017a57806363a8fd891161014957806363a8fd891461045a5780636c7ac9d8146104745780637048027514610494578063715018a6146104b457610239565b806350d2a27614610376578063550d01a3146103c45780635c60da1b146103f45780635cc797d81461043a57610239565b80632f2ff15d116101b65780632f2ff15d146102f657806336568abe146103165780633659cfe6146103365780634a5df50f1461035657610239565b806301ffc9a7146102435780631785f53c14610278578063248a9ca31461029857806324d7806c146102d657610239565b366102395760405162461bcd60e51b815260206004820152601460248201527f63616e6e6f74207265636569766520457468657200000000000000000000000060448201526064015b60405180910390fd5b610241610732565b005b34801561024f57600080fd5b5061026361025e36600461166a565b6107db565b60405190151581526020015b60405180910390f35b34801561028457600080fd5b506102416102933660046116ab565b6107ec565b3480156102a457600080fd5b506102c86102b33660046116c6565b60009081526005602052604090206001015490565b60405190815260200161026f565b3480156102e257600080fd5b506102636102f13660046116ab565b610848565b34801561030257600080fd5b506102416103113660046116df565b610888565b34801561032257600080fd5b506102416103313660046116df565b6108ad565b34801561034257600080fd5b506102416103513660046116ab565b610939565b34801561036257600080fd5b5061024161037136600461170b565b610a92565b34801561038257600080fd5b506103ac61039136600461166a565b6003602052600090815260409020546001600160a01b031681565b6040516001600160a01b03909116815260200161026f565b3480156103d057600080fd5b506102636103df3660046116ab565b60026020526000908152604090205460ff1681565b34801561040057600080fd5b506000805260016020527fa6eef7e35abe7026729641147f7915573c7e97b47efa546f5f6e3230263bcb49546001600160a01b03166103ac565b34801561044657600080fd5b5061024161045536600461179f565b610d3f565b34801561046657600080fd5b506000546102639060ff1681565b34801561048057600080fd5b506006546103ac906001600160a01b031681565b3480156104a057600080fd5b506102416104af3660046116ab565b610d97565b3480156104c057600080fd5b50610241610df0565b3480156104d557600080fd5b506102416104e43660046116ab565b610e4b565b3480156104f557600080fd5b506102416105043660046117c9565b610f5d565b34801561051557600080fd5b506102416105243660046117e4565b610fbe565b34801561053557600080fd5b506008546103ac906001600160a01b031681565b34801561055557600080fd5b506103ac6105643660046116c6565b611017565b34801561057557600080fd5b506103ac61058436600461166a565b611034565b34801561059557600080fd5b50600a546103ac906001600160a01b031681565b3480156105b557600080fd5b503360009081527f05b8ccbb9d4d8fb16ea74ce3c29a41f1b461fbdaff4714a0d9a8eb05499746bc602052604090205460ff16610263565b3480156105f957600080fd5b506102636106083660046116df565b60009182526005602090815260408084206001600160a01b0393909316845291905290205460ff1690565b34801561063f57600080fd5b506102c8600081565b34801561065457600080fd5b506103ac6106633660046116c6565b6001602052600090815260409020546001600160a01b031681565b34801561068a57600080fd5b506009546103ac906001600160a01b031681565b3480156106aa57600080fd5b506102c87ff0887ba65ee2024ea881d91b74c2450ef19e1557f03bed3ea9f16b037cbe2dc981565b3480156106de57600080fd5b506102416106ed3660046116df565b611130565b3480156106fe57600080fd5b506007546103ac906001600160a01b031681565b34801561071e57600080fd5b5061024161072d3660046116ab565b611155565b60006107496000356001600160e01b031916611034565b90506001600160a01b03811615801590610766575060005460ff16155b6107b25760405162461bcd60e51b815260206004820152601d60248201527f50726f78793a20696d706c204f522070726f78792069732066616c73650000006044820152606401610230565b3660008037600080366000845af43d6000803e8080156107d1573d6000f35b3d6000fd5b505050565b60006107e6826111ac565b92915050565b6107f533610848565b61083a5760405162461bcd60e51b8152602060048201526022602482015260008051602061198c83398151915260448201526134b760f11b6064820152608401610230565b6108456000826108ad565b50565b6001600160a01b03811660009081527f05b8ccbb9d4d8fb16ea74ce3c29a41f1b461fbdaff4714a0d9a8eb05499746bc602052604081205460ff166107e6565b6000828152600560205260409020600101546108a3816111d1565b6107d683836111db565b6001600160a01b038116331461092b5760405162461bcd60e51b815260206004820152602f60248201527f416363657373436f6e74726f6c3a2063616e206f6e6c792072656e6f756e636560448201527f20726f6c657320666f722073656c6600000000000000000000000000000000006064820152608401610230565b610935828261127d565b5050565b61094233610848565b6109875760405162461bcd60e51b8152602060048201526022602482015260008051602061198c83398151915260448201526134b760f11b6064820152608401610230565b6001600160a01b0381166109dd5760405162461bcd60e51b815260206004820152600d60248201527f696e707574206973207a65726f000000000000000000000000000000000000006044820152606401610230565b6000805260016020527fa6eef7e35abe7026729641147f7915573c7e97b47efa546f5f6e3230263bcb49546001600160a01b03828116911603610a4e5760405162461bcd60e51b815260206004820152600960248201526839b0b6b29030b2323960b91b6044820152606401610230565b610a5b8160006001611300565b6040516001600160a01b038216907fbc7cd75a20ee27fd9adebab32041f755214dbc6bffa90cc0225b39da2e5c2d3b90600090a250565b610a9b33610848565b610ae05760405162461bcd60e51b8152602060048201526022602482015260008051602061198c83398151915260448201526134b760f11b6064820152608401610230565b81610b2d5760405162461bcd60e51b815260206004820181905260248201527f50726f78793a205f73656c6563746f727327732073697a65206973207a65726f6044820152606401610230565b6001600160a01b03811660009081526002602052604090205460ff16610b955760405162461bcd60e51b815260206004820152601860248201527f50726f78793a205f696d70206973206e6f7420616c69766500000000000000006044820152606401610230565b60005b82811015610d3957816001600160a01b031660036000868685818110610bc057610bc0611817565b9050602002016020810190610bd5919061166a565b6001600160e01b03191681526020810191909152604001600020546001600160a01b031603610c465760405162461bcd60e51b815260206004820152601d60248201527f4c69717569646974795661756c7450726f78793a2073616d6520696d700000006044820152606401610230565b8160036000868685818110610c5d57610c5d611817565b9050602002016020810190610c72919061166a565b6001600160e01b03191681526020810191909152604001600020805473ffffffffffffffffffffffffffffffffffffffff19166001600160a01b039283161790558216848483818110610cc757610cc7611817565b9050602002016020810190610cdc919061166a565b7bffffffffffffffffffffffffffffffffffffffffffffffffffffffff19167f14ebc1c32aa68f4d766e89f3e546cee249f7df25183fc10ab1568d91c2ce9b7b60405160405180910390a380610d3181611843565b915050610b98565b50505050565b610d4833610848565b610d8d5760405162461bcd60e51b8152602060048201526022602482015260008051602061198c83398151915260448201526134b760f11b6064820152608401610230565b6109358282611398565b610da033610848565b610de55760405162461bcd60e51b8152602060048201526022602482015260008051602061198c83398151915260448201526134b760f11b6064820152608401610230565b610845600082610888565b610df933610848565b610e3e5760405162461bcd60e51b8152602060048201526022602482015260008051602061198c83398151915260448201526134b760f11b6064820152608401610230565b610e496000336108ad565b565b610e5433610848565b610e995760405162461bcd60e51b8152602060048201526022602482015260008051602061198c83398151915260448201526134b760f11b6064820152608401610230565b6001600160a01b038116610eef5760405162461bcd60e51b815260206004820152601860248201527f41636365737369626c653a207a65726f206164647265737300000000000000006044820152606401610230565b6001600160a01b0381163303610f475760405162461bcd60e51b815260206004820152601660248201527f41636365737369626c653a2073616d652061646d696e000000000000000000006044820152606401610230565b610f52600082610888565b6108456000336108ad565b610f6633610848565b610fab5760405162461bcd60e51b8152602060048201526022602482015260008051602061198c83398151915260448201526134b760f11b6064820152608401610230565b6000805460ff1916911515919091179055565b610fc733610848565b61100c5760405162461bcd60e51b8152602060048201526022602482015260008051602061198c83398151915260448201526134b760f11b6064820152608401610230565b6107d6838383611300565b6000818152600160205260408120546001600160a01b03166107e6565b6001600160e01b031981166000908152600360205260408120546001600160a01b03166110945750506000805260016020527fa6eef7e35abe7026729641147f7915573c7e97b47efa546f5f6e3230263bcb49546001600160a01b031690565b6001600160e01b031982166000908152600360209081526040808320546001600160a01b03168352600290915290205460ff16156110f257506001600160e01b0319166000908152600360205260409020546001600160a01b031690565b50506000805260016020527fa6eef7e35abe7026729641147f7915573c7e97b47efa546f5f6e3230263bcb49546001600160a01b031690565b919050565b60008281526005602052604090206001015461114b816111d1565b6107d6838361127d565b61115e33610848565b6111a35760405162461bcd60e51b8152602060048201526022602482015260008051602061198c83398151915260448201526134b760f11b6064820152608401610230565b61084581610e4b565b60006001600160e01b03198216637965db0b60e01b14806107e657506107e6826113f7565b6108458133611433565b60008281526005602090815260408083206001600160a01b038516845290915290205460ff166109355760008281526005602090815260408083206001600160a01b03851684529091529020805460ff191660011790556112393390565b6001600160a01b0316816001600160a01b0316837f2f8788117e7eff1d82e926ec794901d17c78024a50270940304540a733656f0d60405160405180910390a45050565b60008281526005602090815260408083206001600160a01b038516845290915290205460ff16156109355760008281526005602090815260408083206001600160a01b0385168085529252808320805460ff1916905551339285917ff6391f5c32d9c69d2a47ea670b442974b53935d1edc7fd64eb21e047a839171b9190a45050565b6001600160a01b0383163b6113575760405162461bcd60e51b815260206004820152601b60248201527f50726f78793a206e6f7420636f6e7472616374206164647265737300000000006044820152606401610230565b8015611392576000828152600160205260409020805473ffffffffffffffffffffffffffffffffffffffff19166001600160a01b0385161790555b6107d683825b6001600160a01b038216600081815260026020908152604091829020805460ff191685151590811790915591519182527f72558d9bfba4210f9ef095c782589484151f6d90f7a81bb3cb9b33efc695d324910160405180910390a25050565b60006301ffc9a760e01b6001600160e01b0319831614806107e65750506001600160e01b03191660009081526004602052604090205460ff1690565b60008281526005602090815260408083206001600160a01b038516845290915290205460ff1661093557611466816114a8565b6114718360206114ba565b604051602001611482929190611880565b60408051601f198184030181529082905262461bcd60e51b825261023091600401611901565b60606107e66001600160a01b03831660145b606060006114c9836002611934565b6114d490600261194b565b67ffffffffffffffff8111156114ec576114ec61195e565b6040519080825280601f01601f191660200182016040528015611516576020820181803683370190505b509050600360fc1b8160008151811061153157611531611817565b60200101906001600160f81b031916908160001a905350600f60fb1b8160018151811061156057611560611817565b60200101906001600160f81b031916908160001a9053506000611584846002611934565b61158f90600161194b565b90505b6001811115611614577f303132333435363738396162636465660000000000000000000000000000000085600f16601081106115d0576115d0611817565b1a60f81b8282815181106115e6576115e6611817565b60200101906001600160f81b031916908160001a90535060049490941c9361160d81611974565b9050611592565b5083156116635760405162461bcd60e51b815260206004820181905260248201527f537472696e67733a20686578206c656e67746820696e73756666696369656e746044820152606401610230565b9392505050565b60006020828403121561167c57600080fd5b81356001600160e01b03198116811461166357600080fd5b80356001600160a01b038116811461112b57600080fd5b6000602082840312156116bd57600080fd5b61166382611694565b6000602082840312156116d857600080fd5b5035919050565b600080604083850312156116f257600080fd5b8235915061170260208401611694565b90509250929050565b60008060006040848603121561172057600080fd5b833567ffffffffffffffff8082111561173857600080fd5b818601915086601f83011261174c57600080fd5b81358181111561175b57600080fd5b8760208260051b850101111561177057600080fd5b6020928301955093506117869186019050611694565b90509250925092565b8035801515811461112b57600080fd5b600080604083850312156117b257600080fd5b6117bb83611694565b91506117026020840161178f565b6000602082840312156117db57600080fd5b6116638261178f565b6000806000606084860312156117f957600080fd5b61180284611694565b9250602084013591506117866040850161178f565b634e487b7160e01b600052603260045260246000fd5b634e487b7160e01b600052601160045260246000fd5b6000600182016118555761185561182d565b5060010190565b60005b8381101561187757818101518382015260200161185f565b50506000910152565b7f416363657373436f6e74726f6c3a206163636f756e74200000000000000000008152600083516118b881601785016020880161185c565b7f206973206d697373696e6720726f6c652000000000000000000000000000000060179184019182015283516118f581602884016020880161185c565b01602801949350505050565b602081526000825180602084015261192081604085016020870161185c565b601f01601f19169190910160400192915050565b80820281158282048414176107e6576107e661182d565b808201808211156107e6576107e661182d565b634e487b7160e01b600052604160045260246000fd5b6000816119835761198361182d565b50600019019056fe41636365737369626c653a2043616c6c6572206973206e6f7420616e2061646da164736f6c6343000813000a",
  "linkReferences": {},
  "deployedLinkReferences": {}
}