{
  "_format": "hh-sol-artifact-1",
  "contractName": "MockL1Messenger",
  "sourceName": "contracts/test/MockL1Messenger.sol",
  "abi": [
    {
      "inputs": [],
      "stateMutability": "nonpayable",
      "type": "constructor"
    },
    {
      "anonymous": false,
      "inputs": [
        {
          "indexed": true,
          "internalType": "address",
          "name": "target",
          "type": "address"
        },
        {
          "indexed": false,
          "internalType": "address",
          "name": "sender",
          "type": "address"
        },
        {
          "indexed": false,
          "internalType": "bytes",
          "name": "message",
          "type": "bytes"
        },
        {
          "indexed": false,
          "internalType": "uint256",
          "name": "messageNonce",
          "type": "uint256"
        },
        {
          "indexed": false,
          "internalType": "uint256",
          "name": "gasLimit",
          "type": "uint256"
        }
      ],
      "name": "SentMessage",
      "type": "event"
    },
    {
      "inputs": [],
      "name": "l2messenger",
      "outputs": [
        {
          "internalType": "address",
          "name": "",
          "type": "address"
        }
      ],
      "stateMutability": "view",
      "type": "function"
    },
    {
      "inputs": [],
      "name": "messageNonce",
      "outputs": [
        {
          "internalType": "uint256",
          "name": "",
          "type": "uint256"
        }
      ],
      "stateMutability": "view",
      "type": "function"
    },
    {
      "inputs": [
        {
          "internalType": "address",
          "name": "_target",
          "type": "address"
        },
        {
          "internalType": "bytes",
          "name": "_message",
          "type": "bytes"
        },
        {
          "internalType": "uint32",
          "name": "_gasLimit",
          "type": "uint32"
        }
      ],
      "name": "sendMessage",
      "outputs": [],
      "stateMutability": "nonpayable",
      "type": "function"
    },
    {
      "inputs": [
        {
          "internalType": "address",
          "name": "_l2messagenger",
          "type": "address"
        }
      ],
      "name": "setL2messenger",
      "outputs": [],
      "stateMutability": "nonpayable",
      "type": "function"
    },
    {
      "inputs": [
        {
          "internalType": "bytes32",
          "name": "_hashMessages",
          "type": "bytes32"
        },
        {
          "internalType": "bool",
          "name": "_bool",
          "type": "bool"
        }
      ],
      "name": "setSuccessfulMessages",
      "outputs": [],
      "stateMutability": "nonpayable",
      "type": "function"
    },
    {
      "inputs": [
        {
          "internalType": "bytes32",
          "name": "",
          "type": "bytes32"
        }
      ],
      "name": "successfulMessages",
      "outputs": [
        {
          "internalType": "bool",
          "name": "",
          "type": "bool"
        }
      ],
      "stateMutability": "view",
      "type": "function"
    }
  ],
  "bytecode": "0x608060405234801561001057600080fd5b5061051a806100206000396000f3fe608060405234801561001057600080fd5b50600436106100725760003560e01c806370f8169d1161005057806370f8169d146100cd578063b1b1b209146100fd578063ecc704281461013057600080fd5b80632753f6a414610077578063292200a91461008c5780633dbb202b146100ba575b600080fd5b61008a6100853660046102b8565b610147565b005b61008a61009a3660046102da565b600091825260208290526040909120805460ff1916911515919091179055565b61008a6100c8366004610339565b6101d3565b6002546100e0906001600160a01b031681565b6040516001600160a01b0390911681526020015b60405180910390f35b61012061010b36600461040b565b60006020819052908152604090205460ff1681565b60405190151581526020016100f4565b61013960015481565b6040519081526020016100f4565b6002546001600160a01b0316156101a45760405162461bcd60e51b815260206004820152600b60248201527f616c726561647920736574000000000000000000000000000000000000000000604482015260640160405180910390fd5b6002805473ffffffffffffffffffffffffffffffffffffffff19166001600160a01b0392909216919091179055565b826001600160a01b03167fcb0f7ffd78f9aee47a248fae8db181db6eee833039123e026dcbff529522e52a338460016000815461020f90610424565b9182905550604051610225939291908790610491565b60405180910390a260025460015460405163cbd4ece960e01b81526001600160a01b039092169163cbd4ece99161026591879133918891906004016104d0565b600060405180830381600087803b15801561027f57600080fd5b505af1158015610293573d6000803e3d6000fd5b50505050505050565b80356001600160a01b03811681146102b357600080fd5b919050565b6000602082840312156102ca57600080fd5b6102d38261029c565b9392505050565b600080604083850312156102ed57600080fd5b823591506020830135801515811461030457600080fd5b809150509250929050565b634e487b7160e01b600052604160045260246000fd5b803563ffffffff811681146102b357600080fd5b60008060006060848603121561034e57600080fd5b6103578461029c565b9250602084013567ffffffffffffffff8082111561037457600080fd5b818601915086601f83011261038857600080fd5b81358181111561039a5761039a61030f565b604051601f8201601f19908116603f011681019083821181831017156103c2576103c261030f565b816040528281528960208487010111156103db57600080fd5b82602086016020830137600060208483010152809650505050505061040260408501610325565b90509250925092565b60006020828403121561041d57600080fd5b5035919050565b60006001820161044457634e487b7160e01b600052601160045260246000fd5b5060010190565b6000815180845260005b8181101561047157602081850181015186830182015201610455565b506000602082860101526020601f19601f83011685010191505092915050565b6001600160a01b03851681526080602082015260006104b3608083018661044b565b905083604083015263ffffffff8316606083015295945050505050565b60006001600160a01b038087168352808616602084015250608060408301526104fc608083018561044b565b90508260608301529594505050505056fea164736f6c6343000813000a",
  "linkReferences": {},
  "deployedLinkReferences": {}
}