{
  "_format": "hh-sol-artifact-1",
  "contractName": "AutoRefactorCoinageStorage",
  "sourceName": "contracts/stake/tokens/AutoRefactorCoinageStorage.sol",
  "abi": [
    {
      "inputs": [],
      "name": "REFACTOR_BOUNDARY",
      "outputs": [
        {
          "internalType": "uint256",
          "name": "",
          "type": "uint256"
        }
      ],
      "stateMutability": "view",
      "type": "function"
    },
    {
      "inputs": [],
      "name": "REFACTOR_DIVIDER",
      "outputs": [
        {
          "internalType": "uint256",
          "name": "",
          "type": "uint256"
        }
      ],
      "stateMutability": "view",
      "type": "function"
    },
    {
      "inputs": [
        {
          "internalType": "address",
          "name": "",
          "type": "address"
        },
        {
          "internalType": "address",
          "name": "",
          "type": "address"
        }
      ],
      "name": "_allowances",
      "outputs": [
        {
          "internalType": "uint256",
          "name": "",
          "type": "uint256"
        }
      ],
      "stateMutability": "view",
      "type": "function"
    },
    {
      "inputs": [],
      "name": "_factor",
      "outputs": [
        {
          "internalType": "uint256",
          "name": "",
          "type": "uint256"
        }
      ],
      "stateMutability": "view",
      "type": "function"
    },
    {
      "inputs": [],
      "name": "_totalSupply",
      "outputs": [
        {
          "internalType": "uint256",
          "name": "balance",
          "type": "uint256"
        },
        {
          "internalType": "uint256",
          "name": "refactoredCount",
          "type": "uint256"
        },
        {
          "internalType": "uint256",
          "name": "remain",
          "type": "uint256"
        }
      ],
      "stateMutability": "view",
      "type": "function"
    },
    {
      "inputs": [
        {
          "internalType": "address",
          "name": "",
          "type": "address"
        }
      ],
      "name": "balances",
      "outputs": [
        {
          "internalType": "uint256",
          "name": "balance",
          "type": "uint256"
        },
        {
          "internalType": "uint256",
          "name": "refactoredCount",
          "type": "uint256"
        },
        {
          "internalType": "uint256",
          "name": "remain",
          "type": "uint256"
        }
      ],
      "stateMutability": "view",
      "type": "function"
    },
    {
      "inputs": [],
      "name": "name",
      "outputs": [
        {
          "internalType": "string",
          "name": "",
          "type": "string"
        }
      ],
      "stateMutability": "view",
      "type": "function"
    },
    {
      "inputs": [],
      "name": "refactorCount",
      "outputs": [
        {
          "internalType": "uint256",
          "name": "",
          "type": "uint256"
        }
      ],
      "stateMutability": "view",
      "type": "function"
    },
    {
      "inputs": [],
      "name": "seigManager",
      "outputs": [
        {
          "internalType": "address",
          "name": "",
          "type": "address"
        }
      ],
      "stateMutability": "view",
      "type": "function"
    },
    {
      "inputs": [],
      "name": "symbol",
      "outputs": [
        {
          "internalType": "string",
          "name": "",
          "type": "string"
        }
      ],
      "stateMutability": "view",
      "type": "function"
    }
  ],
  "bytecode": "0x608060405234801561001057600080fd5b50610351806100206000396000f3fe608060405234801561001057600080fd5b506004361061009d5760003560e01c80636d150611116100665780636d150611146101585780636fb7f5581461016157806395d89b411461018c578063a7ac30b014610194578063b7c246d71461019d57600080fd5b8062d87a9c146100a2578063024c2ddd146100bd57806306fdde03146100e857806327e235e3146100fd5780633eaaf86b14610146575b600080fd5b6100aa600281565b6040519081526020015b60405180910390f35b6100aa6100cb366004610267565b600a60209081526000928352604080842090915290825290205481565b6100f06101b0565b6040516100b4919061029a565b61012b61010b3660046102e8565b600260208190526000918252604090912080546001820154919092015483565b604080519384526020840192909252908201526060016100b4565b60035460045460055461012b92919083565b6100aa60065481565b600054610174906001600160a01b031681565b6040516001600160a01b0390911681526020016100b4565b6100f061023e565b6100aa60015481565b6100aa6b204fce5e3e2502611000000081565b600880546101bd9061030a565b80601f01602080910402602001604051908101604052809291908181526020018280546101e99061030a565b80156102365780601f1061020b57610100808354040283529160200191610236565b820191906000526020600020905b81548152906001019060200180831161021957829003601f168201915b505050505081565b600980546101bd9061030a565b80356001600160a01b038116811461026257600080fd5b919050565b6000806040838503121561027a57600080fd5b6102838361024b565b91506102916020840161024b565b90509250929050565b600060208083528351808285015260005b818110156102c7578581018301518582016040015282016102ab565b506000604082860101526040601f19601f8301168501019250505092915050565b6000602082840312156102fa57600080fd5b6103038261024b565b9392505050565b600181811c9082168061031e57607f821691505b60208210810361033e57634e487b7160e01b600052602260045260246000fd5b5091905056fea164736f6c6343000813000a",
  "linkReferences": {},
  "deployedLinkReferences": {}
}