{
  "_format": "hh-sol-artifact-1",
  "contractName": "AutoRefactorCoinageStorage",
  "sourceName": "contracts/stake/tokens/AutoRefactorCoinageStorage.sol",
  "abi": [
    {
      "inputs": [],
      "name": "REFACTOR_BOUNDARY",
      "outputs": [
        {
          "internalType": "uint256",
          "name": "",
          "type": "uint256"
        }
      ],
      "stateMutability": "view",
      "type": "function"
    },
    {
      "inputs": [],
      "name": "REFACTOR_DIVIDER",
      "outputs": [
        {
          "internalType": "uint256",
          "name": "",
          "type": "uint256"
        }
      ],
      "stateMutability": "view",
      "type": "function"
    },
    {
      "inputs": [
        {
          "internalType": "address",
          "name": "",
          "type": "address"
        },
        {
          "internalType": "address",
          "name": "",
          "type": "address"
        }
      ],
      "name": "_allowances",
      "outputs": [
        {
          "internalType": "uint256",
          "name": "",
          "type": "uint256"
        }
      ],
      "stateMutability": "view",
      "type": "function"
    },
    {
      "inputs": [],
      "name": "_factor",
      "outputs": [
        {
          "internalType": "uint256",
          "name": "",
          "type": "uint256"
        }
      ],
      "stateMutability": "view",
      "type": "function"
    },
    {
      "inputs": [],
      "name": "_totalSupply",
      "outputs": [
        {
          "internalType": "uint256",
          "name": "balance",
          "type": "uint256"
        },
        {
          "internalType": "uint256",
          "name": "refactoredCount",
          "type": "uint256"
        },
        {
          "internalType": "uint256",
          "name": "remain",
          "type": "uint256"
        }
      ],
      "stateMutability": "view",
      "type": "function"
    },
    {
      "inputs": [
        {
          "internalType": "address",
          "name": "",
          "type": "address"
        }
      ],
      "name": "balances",
      "outputs": [
        {
          "internalType": "uint256",
          "name": "balance",
          "type": "uint256"
        },
        {
          "internalType": "uint256",
          "name": "refactoredCount",
          "type": "uint256"
        },
        {
          "internalType": "uint256",
          "name": "remain",
          "type": "uint256"
        }
      ],
      "stateMutability": "view",
      "type": "function"
    },
    {
      "inputs": [],
      "name": "name",
      "outputs": [
        {
          "internalType": "string",
          "name": "",
          "type": "string"
        }
      ],
      "stateMutability": "view",
      "type": "function"
    },
    {
      "inputs": [],
      "name": "refactorCount",
      "outputs": [
        {
          "internalType": "uint256",
          "name": "",
          "type": "uint256"
        }
      ],
      "stateMutability": "view",
      "type": "function"
    },
    {
      "inputs": [],
      "name": "seigManager",
      "outputs": [
        {
          "internalType": "address",
          "name": "",
          "type": "address"
        }
      ],
      "stateMutability": "view",
      "type": "function"
    },
    {
      "inputs": [],
      "name": "symbol",
      "outputs": [
        {
          "internalType": "string",
          "name": "",
          "type": "string"
        }
      ],
      "stateMutability": "view",
      "type": "function"
    }
  ],
  "bytecode": "0x608060405234801561001057600080fd5b50610371806100206000396000f3fe608060405234801561001057600080fd5b50600436106100bd5760003560e01c80636d1506111161007657806395d89b411161005b57806395d89b41146101ac578063a7ac30b0146101b4578063b7c246d7146101bd57600080fd5b80636d150611146101785780636fb7f5581461018157600080fd5b806306fdde03116100a757806306fdde031461010857806327e235e31461011d5780633eaaf86b1461016657600080fd5b8062d87a9c146100c2578063024c2ddd146100dd575b600080fd5b6100ca600281565b6040519081526020015b60405180910390f35b6100ca6100eb366004610287565b600a60209081526000928352604080842090915290825290205481565b6101106101d0565b6040516100d491906102ba565b61014b61012b366004610308565b600260208190526000918252604090912080546001820154919092015483565b604080519384526020840192909252908201526060016100d4565b60035460045460055461014b92919083565b6100ca60065481565b600054610194906001600160a01b031681565b6040516001600160a01b0390911681526020016100d4565b61011061025e565b6100ca60015481565b6100ca6b204fce5e3e2502611000000081565b600880546101dd9061032a565b80601f01602080910402602001604051908101604052809291908181526020018280546102099061032a565b80156102565780601f1061022b57610100808354040283529160200191610256565b820191906000526020600020905b81548152906001019060200180831161023957829003601f168201915b505050505081565b600980546101dd9061032a565b80356001600160a01b038116811461028257600080fd5b919050565b6000806040838503121561029a57600080fd5b6102a38361026b565b91506102b16020840161026b565b90509250929050565b600060208083528351808285015260005b818110156102e7578581018301518582016040015282016102cb565b506000604082860101526040601f19601f8301168501019250505092915050565b60006020828403121561031a57600080fd5b6103238261026b565b9392505050565b600181811c9082168061033e57607f821691505b60208210810361035e57634e487b7160e01b600052602260045260246000fd5b5091905056fea164736f6c6343000813000a",
  "linkReferences": {},
  "deployedLinkReferences": {}
}