{
  "_format": "hh-sol-artifact-1",
  "contractName": "StorageStateCommittee",
  "sourceName": "contracts/dao/StorageStateCommittee.sol",
  "abi": [
    {
      "inputs": [],
      "name": "activityRewardPerSecond",
      "outputs": [
        {
          "internalType": "uint256",
          "name": "",
          "type": "uint256"
        }
      ],
      "stateMutability": "view",
      "type": "function"
    },
    {
      "inputs": [],
      "name": "agendaManager",
      "outputs": [
        {
          "internalType": "contract IDAOAgendaManager",
          "name": "",
          "type": "address"
        }
      ],
      "stateMutability": "view",
      "type": "function"
    },
    {
      "inputs": [
        {
          "internalType": "address",
          "name": "_candidate",
          "type": "address"
        }
      ],
      "name": "candidateContract",
      "outputs": [
        {
          "internalType": "address",
          "name": "",
          "type": "address"
        }
      ],
      "stateMutability": "view",
      "type": "function"
    },
    {
      "inputs": [],
      "name": "candidateFactory",
      "outputs": [
        {
          "internalType": "contract ICandidateFactory",
          "name": "",
          "type": "address"
        }
      ],
      "stateMutability": "view",
      "type": "function"
    },
    {
      "inputs": [
        {
          "internalType": "address",
          "name": "_candidate",
          "type": "address"
        }
      ],
      "name": "candidateInfos",
      "outputs": [
        {
          "components": [
            {
              "internalType": "address",
              "name": "candidateContract",
              "type": "address"
            },
            {
              "internalType": "uint256",
              "name": "indexMembers",
              "type": "uint256"
            },
            {
              "internalType": "uint128",
              "name": "memberJoinedTime",
              "type": "uint128"
            },
            {
              "internalType": "uint128",
              "name": "rewardPeriod",
              "type": "uint128"
            },
            {
              "internalType": "uint128",
              "name": "claimedTimestamp",
              "type": "uint128"
            }
          ],
          "internalType": "struct StorageStateCommittee.CandidateInfo",
          "name": "",
          "type": "tuple"
        }
      ],
      "stateMutability": "view",
      "type": "function"
    },
    {
      "inputs": [
        {
          "internalType": "uint256",
          "name": "",
          "type": "uint256"
        }
      ],
      "name": "candidates",
      "outputs": [
        {
          "internalType": "address",
          "name": "",
          "type": "address"
        }
      ],
      "stateMutability": "view",
      "type": "function"
    },
    {
      "inputs": [],
      "name": "daoVault",
      "outputs": [
        {
          "internalType": "contract IDAOVault",
          "name": "",
          "type": "address"
        }
      ],
      "stateMutability": "view",
      "type": "function"
    },
    {
      "inputs": [
        {
          "internalType": "address",
          "name": "_candidate",
          "type": "address"
        }
      ],
      "name": "isMember",
      "outputs": [
        {
          "internalType": "bool",
          "name": "",
          "type": "bool"
        }
      ],
      "stateMutability": "view",
      "type": "function"
    },
    {
      "inputs": [],
      "name": "layer2Registry",
      "outputs": [
        {
          "internalType": "contract ILayer2Registry",
          "name": "",
          "type": "address"
        }
      ],
      "stateMutability": "view",
      "type": "function"
    },
    {
      "inputs": [],
      "name": "maxMember",
      "outputs": [
        {
          "internalType": "uint256",
          "name": "",
          "type": "uint256"
        }
      ],
      "stateMutability": "view",
      "type": "function"
    },
    {
      "inputs": [
        {
          "internalType": "uint256",
          "name": "",
          "type": "uint256"
        }
      ],
      "name": "members",
      "outputs": [
        {
          "internalType": "address",
          "name": "",
          "type": "address"
        }
      ],
      "stateMutability": "view",
      "type": "function"
    },
    {
      "inputs": [],
      "name": "quorum",
      "outputs": [
        {
          "internalType": "uint256",
          "name": "",
          "type": "uint256"
        }
      ],
      "stateMutability": "view",
      "type": "function"
    },
    {
      "inputs": [],
      "name": "seigManager",
      "outputs": [
        {
          "internalType": "contract ISeigManager",
          "name": "",
          "type": "address"
        }
      ],
      "stateMutability": "view",
      "type": "function"
    },
    {
      "inputs": [],
      "name": "ton",
      "outputs": [
        {
          "internalType": "address",
          "name": "",
          "type": "address"
        }
      ],
      "stateMutability": "view",
      "type": "function"
    }
  ],
  "bytecode": "0x608080604052346100165761044c908161001c8239f35b600080fdfe6080604081815260048036101561001557600080fd5b600092833560e01c90816303e3c9ac146103ed575080631703a018146103ce57806327fd92fd146103a55780632e011c1e146102e05780633477ee2e1461028a5780635903bd6c146102615780635daf08ca1461020b578063651d08cd146101cb5780636fb7f558146101a25780637f33163614610183578063a230c5241461013c578063b5dd115814610113578063cc48b947146100e75763cf2a239c146100bd57600080fd5b346100e357826003193601126100e3575490516001600160a01b03909116815260209150f35b8280fd5b50503461010f578160031936011261010f57905490516001600160a01b039091168152602090f35b5080fd5b50503461010f578160031936011261010f5760035490516001600160a01b039091168152602090f35b50346100e35760203660031901126100e357356001600160a01b038116908190036100e357600282846001600160801b039360209652600986522001541615159051908152f35b50503461010f578160031936011261010f57602090600b549051908152f35b50503461010f578160031936011261010f5760055490516001600160a01b039091168152602090f35b50346100e35760203660031901126100e3576001600160a01b039035818116908190036102075783839160209552600985522054169051908152f35b8380fd5b50346100e35760203660031901126100e357356007548110156100e35760076020935260018060a01b03907fa66cc928b5edb82af9bd49922954155ab7b0942694bea4ce44661d9a8736c6880154169051908152f35b50503461010f578160031936011261010f5760015490516001600160a01b039091168152602090f35b50346100e35760203660031901126100e357356006548110156100e35760066020935260018060a01b03907ff652222313e28459528d920b65115c16c04f3efc82aaedc97be59f3f377c0d3f0154169051908152f35b50346100e35760203660031901126100e3576001600160a01b0390358181169081900361020757906003838560809460a0978661031b610409565b828152826020820152828682015282606082015201528152600960205220610341610409565b928154169485845260018201549160208501928352600281015492828601906001600160801b03978880978195828916865260608b0198841c8952015416970196875283519889525160208901525116908601525116606084015251166080820152f35b50503461010f578160031936011261010f5760025490516001600160a01b039091168152602090f35b50503461010f578160031936011261010f57602090600a549051908152f35b84903461010f578160031936011261010f576020906008548152f35b6040519060a0820182811067ffffffffffffffff82111761042957604052565b634e487b7160e01b600052604160045260246000fdfea164736f6c6343000813000a",
  "linkReferences": {},
  "deployedLinkReferences": {}
}