{
  "_format": "hh-sol-artifact-1",
  "contractName": "StorageStateCommittee",
  "sourceName": "contracts/dao/StorageStateCommittee.sol",
  "abi": [
    {
      "inputs": [],
      "name": "activityRewardPerSecond",
      "outputs": [
        {
          "internalType": "uint256",
          "name": "",
          "type": "uint256"
        }
      ],
      "stateMutability": "view",
      "type": "function"
    },
    {
      "inputs": [],
      "name": "agendaManager",
      "outputs": [
        {
          "internalType": "contract IDAOAgendaManager",
          "name": "",
          "type": "address"
        }
      ],
      "stateMutability": "view",
      "type": "function"
    },
    {
      "inputs": [
        {
          "internalType": "address",
          "name": "_candidate",
          "type": "address"
        }
      ],
      "name": "candidateContract",
      "outputs": [
        {
          "internalType": "address",
          "name": "",
          "type": "address"
        }
      ],
      "stateMutability": "view",
      "type": "function"
    },
    {
      "inputs": [],
      "name": "candidateFactory",
      "outputs": [
        {
          "internalType": "contract ICandidateFactory",
          "name": "",
          "type": "address"
        }
      ],
      "stateMutability": "view",
      "type": "function"
    },
    {
      "inputs": [
        {
          "internalType": "address",
          "name": "_candidate",
          "type": "address"
        }
      ],
      "name": "candidateInfos",
      "outputs": [
        {
          "components": [
            {
              "internalType": "address",
              "name": "candidateContract",
              "type": "address"
            },
            {
              "internalType": "uint256",
              "name": "indexMembers",
              "type": "uint256"
            },
            {
              "internalType": "uint128",
              "name": "memberJoinedTime",
              "type": "uint128"
            },
            {
              "internalType": "uint128",
              "name": "rewardPeriod",
              "type": "uint128"
            },
            {
              "internalType": "uint128",
              "name": "claimedTimestamp",
              "type": "uint128"
            }
          ],
          "internalType": "struct StorageStateCommittee.CandidateInfo",
          "name": "",
          "type": "tuple"
        }
      ],
      "stateMutability": "view",
      "type": "function"
    },
    {
      "inputs": [
        {
          "internalType": "uint256",
          "name": "",
          "type": "uint256"
        }
      ],
      "name": "candidates",
      "outputs": [
        {
          "internalType": "address",
          "name": "",
          "type": "address"
        }
      ],
      "stateMutability": "view",
      "type": "function"
    },
    {
      "inputs": [],
      "name": "daoVault",
      "outputs": [
        {
          "internalType": "contract IDAOVault",
          "name": "",
          "type": "address"
        }
      ],
      "stateMutability": "view",
      "type": "function"
    },
    {
      "inputs": [
        {
          "internalType": "address",
          "name": "_candidate",
          "type": "address"
        }
      ],
      "name": "isMember",
      "outputs": [
        {
          "internalType": "bool",
          "name": "",
          "type": "bool"
        }
      ],
      "stateMutability": "view",
      "type": "function"
    },
    {
      "inputs": [],
      "name": "layer2Registry",
      "outputs": [
        {
          "internalType": "contract ILayer2Registry",
          "name": "",
          "type": "address"
        }
      ],
      "stateMutability": "view",
      "type": "function"
    },
    {
      "inputs": [],
      "name": "maxMember",
      "outputs": [
        {
          "internalType": "uint256",
          "name": "",
          "type": "uint256"
        }
      ],
      "stateMutability": "view",
      "type": "function"
    },
    {
      "inputs": [
        {
          "internalType": "uint256",
          "name": "",
          "type": "uint256"
        }
      ],
      "name": "members",
      "outputs": [
        {
          "internalType": "address",
          "name": "",
          "type": "address"
        }
      ],
      "stateMutability": "view",
      "type": "function"
    },
    {
      "inputs": [],
      "name": "quorum",
      "outputs": [
        {
          "internalType": "uint256",
          "name": "",
          "type": "uint256"
        }
      ],
      "stateMutability": "view",
      "type": "function"
    },
    {
      "inputs": [],
      "name": "seigManager",
      "outputs": [
        {
          "internalType": "contract ISeigManager",
          "name": "",
          "type": "address"
        }
      ],
      "stateMutability": "view",
      "type": "function"
    },
    {
      "inputs": [],
      "name": "ton",
      "outputs": [
        {
          "internalType": "address",
          "name": "",
          "type": "address"
        }
      ],
      "stateMutability": "view",
      "type": "function"
    }
  ],
  "bytecode": "0x608060405234801561001057600080fd5b506103e9806100206000396000f3fe608060405234801561001057600080fd5b50600436106100ea5760003560e01c8063651d08cd1161008c578063a230c52411610066578063a230c524146102d0578063b5dd115814610320578063cc48b94714610333578063cf2a239c1461034657600080fd5b8063651d08cd146102885780636fb7f558146102b45780637f331636146102c757600080fd5b80632e011c1e116100c85780632e011c1e1461013f5780633477ee2e1461024f5780635903bd6c146102625780635daf08ca1461027557600080fd5b806303e3c9ac146100ef5780631703a0181461010b57806327fd92fd14610114575b600080fd5b6100f860085481565b6040519081526020015b60405180910390f35b6100f8600a5481565b600254610127906001600160a01b031681565b6040516001600160a01b039091168152602001610102565b6101f161014d366004610393565b6040805160a0808201835260008083526020808401829052838501829052606080850183905260809485018390526001600160a01b0396871683526009825291859020855193840186528054909616835260018601549083015260028501546fffffffffffffffffffffffffffffffff8082169584019590955270010000000000000000000000000000000090048416908201526003909301549091169082015290565b6040805182516001600160a01b0316815260208084015190820152828201516fffffffffffffffffffffffffffffffff908116928201929092526060808401518316908201526080928301519091169181019190915260a001610102565b61012761025d3660046103c3565b610359565b600154610127906001600160a01b031681565b6101276102833660046103c3565b610383565b610127610296366004610393565b6001600160a01b039081166000908152600960205260409020541690565b600554610127906001600160a01b031681565b6100f8600b5481565b6103106102de366004610393565b6001600160a01b03166000908152600960205260409020600201546fffffffffffffffffffffffffffffffff16151590565b6040519015158152602001610102565b600354610127906001600160a01b031681565b600054610127906001600160a01b031681565b600454610127906001600160a01b031681565b6006818154811061036957600080fd5b6000918252602090912001546001600160a01b0316905081565b6007818154811061036957600080fd5b6000602082840312156103a557600080fd5b81356001600160a01b03811681146103bc57600080fd5b9392505050565b6000602082840312156103d557600080fd5b503591905056fea164736f6c6343000813000a",
  "linkReferences": {},
  "deployedLinkReferences": {}
}