{
  "_format": "hh-sol-artifact-1",
  "contractName": "L1StakedTonInL2Storage",
  "sourceName": "contracts/L2/L1StakedTonInL2Storage.sol",
  "abi": [
    {
      "inputs": [],
      "name": "_manager",
      "outputs": [
        {
          "internalType": "address",
          "name": "",
          "type": "address"
        }
      ],
      "stateMutability": "view",
      "type": "function"
    },
    {
      "inputs": [],
      "name": "l1Register",
      "outputs": [
        {
          "internalType": "address",
          "name": "",
          "type": "address"
        }
      ],
      "stateMutability": "view",
      "type": "function"
    },
    {
      "inputs": [],
      "name": "l2CrossDomainMessenger",
      "outputs": [
        {
          "internalType": "address",
          "name": "",
          "type": "address"
        }
      ],
      "stateMutability": "view",
      "type": "function"
    },
    {
      "inputs": [],
      "name": "l2SeigManager",
      "outputs": [
        {
          "internalType": "address",
          "name": "",
          "type": "address"
        }
      ],
      "stateMutability": "view",
      "type": "function"
    }
  ],
  "bytecode": "0x608060405234801561001057600080fd5b5060bc8061001f6000396000f3fe6080604052348015600f57600080fd5b506004361060465760003560e01c806353cd4eac14604b578063d75bf0ce146079578063f0329f6b14608b578063fbef005a14609d575b600080fd5b600154605d906001600160a01b031681565b6040516001600160a01b03909116815260200160405180910390f35b600354605d906001600160a01b031681565b600054605d906001600160a01b031681565b600254605d906001600160a01b03168156fea164736f6c6343000813000a",
  "linkReferences": {},
  "deployedLinkReferences": {}
}