{
  "_format": "hh-sol-artifact-1",
  "contractName": "L1StakedTonInL2Storage",
  "sourceName": "contracts/L2/L1StakedTonInL2Storage.sol",
  "abi": [
    {
      "inputs": [],
      "name": "l1Register",
      "outputs": [
        {
          "internalType": "address",
          "name": "",
          "type": "address"
        }
      ],
      "stateMutability": "view",
      "type": "function"
    },
    {
      "inputs": [],
      "name": "l2CrossDomainMessenger",
      "outputs": [
        {
          "internalType": "address",
          "name": "",
          "type": "address"
        }
      ],
      "stateMutability": "view",
      "type": "function"
    },
    {
      "inputs": [],
      "name": "l2SeigManager",
      "outputs": [
        {
          "internalType": "address",
          "name": "",
          "type": "address"
        }
      ],
      "stateMutability": "view",
      "type": "function"
    }
  ],
  "bytecode": "0x608060405234801561001057600080fd5b5060a08061001f6000396000f3fe6080604052348015600f57600080fd5b5060043610603c5760003560e01c806353cd4eac146041578063d75bf0ce14606f578063fbef005a146081575b600080fd5b6000546053906001600160a01b031681565b6040516001600160a01b03909116815260200160405180910390f35b6002546053906001600160a01b031681565b6001546053906001600160a01b03168156fea164736f6c6343000813000a",
  "linkReferences": {},
  "deployedLinkReferences": {}
}