{
  "_format": "hh-sol-artifact-1",
  "contractName": "AuthControlL2Registry",
  "sourceName": "contracts/common/AuthControlL2Registry.sol",
  "abi": [
    {
      "anonymous": false,
      "inputs": [
        {
          "indexed": true,
          "internalType": "bytes32",
          "name": "role",
          "type": "bytes32"
        },
        {
          "indexed": true,
          "internalType": "bytes32",
          "name": "previousAdminRole",
          "type": "bytes32"
        },
        {
          "indexed": true,
          "internalType": "bytes32",
          "name": "newAdminRole",
          "type": "bytes32"
        }
      ],
      "name": "RoleAdminChanged",
      "type": "event"
    },
    {
      "anonymous": false,
      "inputs": [
        {
          "indexed": true,
          "internalType": "bytes32",
          "name": "role",
          "type": "bytes32"
        },
        {
          "indexed": true,
          "internalType": "address",
          "name": "account",
          "type": "address"
        },
        {
          "indexed": true,
          "internalType": "address",
          "name": "sender",
          "type": "address"
        }
      ],
      "name": "RoleGranted",
      "type": "event"
    },
    {
      "anonymous": false,
      "inputs": [
        {
          "indexed": true,
          "internalType": "bytes32",
          "name": "role",
          "type": "bytes32"
        },
        {
          "indexed": true,
          "internalType": "address",
          "name": "account",
          "type": "address"
        },
        {
          "indexed": true,
          "internalType": "address",
          "name": "sender",
          "type": "address"
        }
      ],
      "name": "RoleRevoked",
      "type": "event"
    },
    {
      "inputs": [],
      "name": "DEFAULT_ADMIN_ROLE",
      "outputs": [
        {
          "internalType": "bytes32",
          "name": "",
          "type": "bytes32"
        }
      ],
      "stateMutability": "view",
      "type": "function"
    },
    {
      "inputs": [],
      "name": "MANAGER_ROLE",
      "outputs": [
        {
          "internalType": "bytes32",
          "name": "",
          "type": "bytes32"
        }
      ],
      "stateMutability": "view",
      "type": "function"
    },
    {
      "inputs": [],
      "name": "OPERATOR_ROLE",
      "outputs": [
        {
          "internalType": "bytes32",
          "name": "",
          "type": "bytes32"
        }
      ],
      "stateMutability": "view",
      "type": "function"
    },
    {
      "inputs": [
        {
          "internalType": "address",
          "name": "account",
          "type": "address"
        }
      ],
      "name": "addAdmin",
      "outputs": [],
      "stateMutability": "nonpayable",
      "type": "function"
    },
    {
      "inputs": [
        {
          "internalType": "address",
          "name": "account",
          "type": "address"
        }
      ],
      "name": "addManager",
      "outputs": [],
      "stateMutability": "nonpayable",
      "type": "function"
    },
    {
      "inputs": [
        {
          "internalType": "address",
          "name": "account",
          "type": "address"
        }
      ],
      "name": "addOperator",
      "outputs": [],
      "stateMutability": "nonpayable",
      "type": "function"
    },
    {
      "inputs": [
        {
          "internalType": "bytes32",
          "name": "role",
          "type": "bytes32"
        }
      ],
      "name": "getRoleAdmin",
      "outputs": [
        {
          "internalType": "bytes32",
          "name": "",
          "type": "bytes32"
        }
      ],
      "stateMutability": "view",
      "type": "function"
    },
    {
      "inputs": [
        {
          "internalType": "bytes32",
          "name": "role",
          "type": "bytes32"
        },
        {
          "internalType": "address",
          "name": "account",
          "type": "address"
        }
      ],
      "name": "grantRole",
      "outputs": [],
      "stateMutability": "nonpayable",
      "type": "function"
    },
    {
      "inputs": [
        {
          "internalType": "bytes32",
          "name": "role",
          "type": "bytes32"
        },
        {
          "internalType": "address",
          "name": "account",
          "type": "address"
        }
      ],
      "name": "hasRole",
      "outputs": [
        {
          "internalType": "bool",
          "name": "",
          "type": "bool"
        }
      ],
      "stateMutability": "view",
      "type": "function"
    },
    {
      "inputs": [
        {
          "internalType": "address",
          "name": "account",
          "type": "address"
        }
      ],
      "name": "isAdmin",
      "outputs": [
        {
          "internalType": "bool",
          "name": "",
          "type": "bool"
        }
      ],
      "stateMutability": "view",
      "type": "function"
    },
    {
      "inputs": [
        {
          "internalType": "address",
          "name": "account",
          "type": "address"
        }
      ],
      "name": "isManager",
      "outputs": [
        {
          "internalType": "bool",
          "name": "",
          "type": "bool"
        }
      ],
      "stateMutability": "view",
      "type": "function"
    },
    {
      "inputs": [
        {
          "internalType": "address",
          "name": "account",
          "type": "address"
        }
      ],
      "name": "isOperator",
      "outputs": [
        {
          "internalType": "bool",
          "name": "",
          "type": "bool"
        }
      ],
      "stateMutability": "view",
      "type": "function"
    },
    {
      "inputs": [],
      "name": "isOwner",
      "outputs": [
        {
          "internalType": "bool",
          "name": "",
          "type": "bool"
        }
      ],
      "stateMutability": "view",
      "type": "function"
    },
    {
      "inputs": [
        {
          "internalType": "address",
          "name": "account",
          "type": "address"
        }
      ],
      "name": "removeAdmin",
      "outputs": [],
      "stateMutability": "nonpayable",
      "type": "function"
    },
    {
      "inputs": [
        {
          "internalType": "address",
          "name": "account",
          "type": "address"
        }
      ],
      "name": "removeManager",
      "outputs": [],
      "stateMutability": "nonpayable",
      "type": "function"
    },
    {
      "inputs": [
        {
          "internalType": "address",
          "name": "account",
          "type": "address"
        }
      ],
      "name": "removeOperator",
      "outputs": [],
      "stateMutability": "nonpayable",
      "type": "function"
    },
    {
      "inputs": [],
      "name": "renounceManager",
      "outputs": [],
      "stateMutability": "nonpayable",
      "type": "function"
    },
    {
      "inputs": [],
      "name": "renounceOperator",
      "outputs": [],
      "stateMutability": "nonpayable",
      "type": "function"
    },
    {
      "inputs": [],
      "name": "renounceOwnership",
      "outputs": [],
      "stateMutability": "nonpayable",
      "type": "function"
    },
    {
      "inputs": [
        {
          "internalType": "bytes32",
          "name": "role",
          "type": "bytes32"
        },
        {
          "internalType": "address",
          "name": "account",
          "type": "address"
        }
      ],
      "name": "renounceRole",
      "outputs": [],
      "stateMutability": "nonpayable",
      "type": "function"
    },
    {
      "inputs": [
        {
          "internalType": "address",
          "name": "account",
          "type": "address"
        }
      ],
      "name": "revokeManager",
      "outputs": [],
      "stateMutability": "nonpayable",
      "type": "function"
    },
    {
      "inputs": [
        {
          "internalType": "address",
          "name": "account",
          "type": "address"
        }
      ],
      "name": "revokeOperator",
      "outputs": [],
      "stateMutability": "nonpayable",
      "type": "function"
    },
    {
      "inputs": [
        {
          "internalType": "bytes32",
          "name": "role",
          "type": "bytes32"
        },
        {
          "internalType": "address",
          "name": "account",
          "type": "address"
        }
      ],
      "name": "revokeRole",
      "outputs": [],
      "stateMutability": "nonpayable",
      "type": "function"
    },
    {
      "inputs": [
        {
          "internalType": "bytes4",
          "name": "interfaceId",
          "type": "bytes4"
        }
      ],
      "name": "supportsInterface",
      "outputs": [
        {
          "internalType": "bool",
          "name": "",
          "type": "bool"
        }
      ],
      "stateMutability": "view",
      "type": "function"
    },
    {
      "inputs": [
        {
          "internalType": "address",
          "name": "newAdmin",
          "type": "address"
        }
      ],
      "name": "transferAdmin",
      "outputs": [],
      "stateMutability": "nonpayable",
      "type": "function"
    },
    {
      "inputs": [
        {
          "internalType": "address",
          "name": "newAdmin",
          "type": "address"
        }
      ],
      "name": "transferOwnership",
      "outputs": [],
      "stateMutability": "nonpayable",
      "type": "function"
    }
  ],
  "bytecode": "0x608060405234801561001057600080fd5b50610df8806100206000396000f3fe608060405234801561001057600080fd5b506004361061018e5760003560e01c80638f32d59b116100de578063d547741f11610097578063f3ae241511610071578063f3ae241514610341578063f5b541a614610354578063f8b91abe14610369578063fad8b32a1461037157600080fd5b8063d547741f14610306578063ec87621c14610319578063f2fde38b1461032e57600080fd5b80638f32d59b146102aa57806391d14854146102b25780639870d7fe146102c5578063a217fddf146102d8578063ac18de43146102e0578063ac8a584a146102f357600080fd5b80632f2ff15d1161014b5780636d70f7ae116101255780636d70f7ae14610269578063704802751461027c578063715018a61461028f57806375829def1461029757600080fd5b80632f2ff15d1461023057806336568abe14610243578063377e32e61461025657600080fd5b806301ffc9a7146101935780631785f53c146101bb578063248a9ca3146101d057806324d7806c146102025780632ab6f8db146102155780632d06177a1461021d575b600080fd5b6101a66101a1366004610b73565b610384565b60405190151581526020015b60405180910390f35b6101ce6101c9366004610bb9565b610395565b005b6101f46101de366004610bd4565b6000908152600160208190526040909120015490565b6040519081526020016101b2565b6101a6610210366004610bb9565b6103d1565b6101ce6103dd565b6101ce61022b366004610bb9565b6103f7565b6101ce61023e366004610bed565b610430565b6101ce610251366004610bed565b61045b565b6101ce610264366004610bb9565b6104d9565b6101a6610277366004610bb9565b610516565b6101ce61028a366004610bb9565b610530565b6101ce610560565b6101ce6102a5366004610bb9565b610590565b6101a6610672565b6101a66102c0366004610bed565b610683565b6101ce6102d3366004610bb9565b6106ae565b6101f4600081565b6101ce6102ee366004610bb9565b6106eb565b6101ce610301366004610bb9565b610728565b6101ce610314366004610bed565b610765565b6101f4600080516020610dac83398151915281565b6101ce61033c366004610bb9565b61078b565b6101a661034f366004610bb9565b6107b9565b6101f4600080516020610dcc83398151915281565b6101ce6107d3565b6101ce61037f366004610bb9565b6107eb565b600061038f82610828565b92915050565b61039e336103d1565b6103c35760405162461bcd60e51b81526004016103ba90610c19565b60405180910390fd5b6103ce60008261045b565b50565b600061038f8183610683565b6103f5600080516020610dcc8339815191523361045b565b565b610400336103d1565b61041c5760405162461bcd60e51b81526004016103ba90610c19565b6103ce600080516020610dac833981519152825b6000828152600160208190526040909120015461044c8161084d565b6104568383610857565b505050565b6001600160a01b03811633146104cb5760405162461bcd60e51b815260206004820152602f60248201527f416363657373436f6e74726f6c3a2063616e206f6e6c792072656e6f756e636560448201526e103937b632b9903337b91039b2b63360891b60648201526084016103ba565b6104d582826108c2565b5050565b6104e2336103d1565b6104fe5760405162461bcd60e51b81526004016103ba90610c19565b6103ce600080516020610dac83398151915282610765565b600061038f600080516020610dcc83398151915283610683565b610539336103d1565b6105555760405162461bcd60e51b81526004016103ba90610c19565b6103ce600082610430565b610569336103d1565b6105855760405162461bcd60e51b81526004016103ba90610c19565b6103f560003361045b565b610599336103d1565b6105b55760405162461bcd60e51b81526004016103ba90610c19565b6001600160a01b03811661060b5760405162461bcd60e51b815260206004820152601860248201527f41636365737369626c653a207a65726f2061646472657373000000000000000060448201526064016103ba565b6001600160a01b038116330361065c5760405162461bcd60e51b815260206004820152601660248201527520b1b1b2b9b9b4b136329d1039b0b6b29030b236b4b760511b60448201526064016103ba565b610667600082610430565b6103ce60003361045b565b600061067e8133610683565b905090565b60009182526001602090815260408084206001600160a01b0393909316845291905290205460ff1690565b6106b7336103d1565b6106d35760405162461bcd60e51b81526004016103ba90610c19565b6103ce600080516020610dcc83398151915282610430565b6106f4336103d1565b6107105760405162461bcd60e51b81526004016103ba90610c19565b6103ce600080516020610dac8339815191528261045b565b610731336103d1565b61074d5760405162461bcd60e51b81526004016103ba90610c19565b6103ce600080516020610dcc8339815191528261045b565b600082815260016020819052604090912001546107818161084d565b61045683836108c2565b610794336103d1565b6107b05760405162461bcd60e51b81526004016103ba90610c19565b6103ce81610590565b600061038f600080516020610dac83398151915283610683565b6103f5600080516020610dac8339815191523361045b565b6107f4336103d1565b6108105760405162461bcd60e51b81526004016103ba90610c19565b6103ce600080516020610dcc83398151915282610765565b60006001600160e01b03198216637965db0b60e01b148061038f575061038f82610929565b6103ce8133610965565b6108618282610683565b6104d55760008281526001602081815260408084206001600160a01b0386168086529252808420805460ff19169093179092559051339285917f2f8788117e7eff1d82e926ec794901d17c78024a50270940304540a733656f0d9190a45050565b6108cc8282610683565b156104d55760008281526001602090815260408083206001600160a01b0385168085529252808320805460ff1916905551339285917ff6391f5c32d9c69d2a47ea670b442974b53935d1edc7fd64eb21e047a839171b9190a45050565b60006301ffc9a760e01b6001600160e01b03198316148061038f5750506001600160e01b03191660009081526020819052604090205460ff1690565b61096f8282610683565b6104d55761097c816109be565b6109878360206109d0565b604051602001610998929190610c80565b60408051601f198184030181529082905262461bcd60e51b82526103ba91600401610cf5565b606061038f6001600160a01b03831660145b606060006109df836002610d3e565b6109ea906002610d55565b67ffffffffffffffff811115610a0257610a02610d68565b6040519080825280601f01601f191660200182016040528015610a2c576020820181803683370190505b509050600360fc1b81600081518110610a4757610a47610d7e565b60200101906001600160f81b031916908160001a905350600f60fb1b81600181518110610a7657610a76610d7e565b60200101906001600160f81b031916908160001a9053506000610a9a846002610d3e565b610aa5906001610d55565b90505b6001811115610b1d576f181899199a1a9b1b9c1cb0b131b232b360811b85600f1660108110610ad957610ad9610d7e565b1a60f81b828281518110610aef57610aef610d7e565b60200101906001600160f81b031916908160001a90535060049490941c93610b1681610d94565b9050610aa8565b508315610b6c5760405162461bcd60e51b815260206004820181905260248201527f537472696e67733a20686578206c656e67746820696e73756666696369656e7460448201526064016103ba565b9392505050565b600060208284031215610b8557600080fd5b81356001600160e01b031981168114610b6c57600080fd5b80356001600160a01b0381168114610bb457600080fd5b919050565b600060208284031215610bcb57600080fd5b610b6c82610b9d565b600060208284031215610be657600080fd5b5035919050565b60008060408385031215610c0057600080fd5b82359150610c1060208401610b9d565b90509250929050565b60208082526023908201527f41757468436f6e74726f6c3a2043616c6c6572206973206e6f7420616e20616460408201526236b4b760e91b606082015260800190565b60005b83811015610c77578181015183820152602001610c5f565b50506000910152565b7f416363657373436f6e74726f6c3a206163636f756e7420000000000000000000815260008351610cb8816017850160208801610c5c565b7001034b99036b4b9b9b4b733903937b6329607d1b6017918401918201528351610ce9816028840160208801610c5c565b01602801949350505050565b6020815260008251806020840152610d14816040850160208701610c5c565b601f01601f19169190910160400192915050565b634e487b7160e01b600052601160045260246000fd5b808202811582820484141761038f5761038f610d28565b8082018082111561038f5761038f610d28565b634e487b7160e01b600052604160045260246000fd5b634e487b7160e01b600052603260045260246000fd5b600081610da357610da3610d28565b50600019019056feaf290d8680820aad922855f39b306097b20e28774d6c1ad35a20325630c3a02c523a704056dcd17bcf83bed8b68c59416dac1119be77755efe3bde0a64e46e0ca164736f6c6343000813000a",
  "linkReferences": {},
  "deployedLinkReferences": {}
}