{
  "_format": "hh-sol-artifact-1",
  "contractName": "Layer2ManagerProxy",
  "sourceName": "contracts/layer2/Layer2ManagerProxy.sol",
  "abi": [
    {
      "anonymous": false,
      "inputs": [
        {
          "indexed": true,
          "internalType": "bytes32",
          "name": "role",
          "type": "bytes32"
        },
        {
          "indexed": true,
          "internalType": "bytes32",
          "name": "previousAdminRole",
          "type": "bytes32"
        },
        {
          "indexed": true,
          "internalType": "bytes32",
          "name": "newAdminRole",
          "type": "bytes32"
        }
      ],
      "name": "RoleAdminChanged",
      "type": "event"
    },
    {
      "anonymous": false,
      "inputs": [
        {
          "indexed": true,
          "internalType": "bytes32",
          "name": "role",
          "type": "bytes32"
        },
        {
          "indexed": true,
          "internalType": "address",
          "name": "account",
          "type": "address"
        },
        {
          "indexed": true,
          "internalType": "address",
          "name": "sender",
          "type": "address"
        }
      ],
      "name": "RoleGranted",
      "type": "event"
    },
    {
      "anonymous": false,
      "inputs": [
        {
          "indexed": true,
          "internalType": "bytes32",
          "name": "role",
          "type": "bytes32"
        },
        {
          "indexed": true,
          "internalType": "address",
          "name": "account",
          "type": "address"
        },
        {
          "indexed": true,
          "internalType": "address",
          "name": "sender",
          "type": "address"
        }
      ],
      "name": "RoleRevoked",
      "type": "event"
    },
    {
      "anonymous": false,
      "inputs": [
        {
          "indexed": true,
          "internalType": "address",
          "name": "impl",
          "type": "address"
        },
        {
          "indexed": false,
          "internalType": "bool",
          "name": "alive",
          "type": "bool"
        }
      ],
      "name": "SetAliveImplementation",
      "type": "event"
    },
    {
      "anonymous": false,
      "inputs": [
        {
          "indexed": true,
          "internalType": "bytes4",
          "name": "selector",
          "type": "bytes4"
        },
        {
          "indexed": true,
          "internalType": "address",
          "name": "impl",
          "type": "address"
        }
      ],
      "name": "SetSelectorImplementation",
      "type": "event"
    },
    {
      "anonymous": false,
      "inputs": [
        {
          "indexed": true,
          "internalType": "address",
          "name": "implementation",
          "type": "address"
        }
      ],
      "name": "Upgraded",
      "type": "event"
    },
    {
      "stateMutability": "payable",
      "type": "fallback"
    },
    {
      "inputs": [],
      "name": "DEFAULT_ADMIN_ROLE",
      "outputs": [
        {
          "internalType": "bytes32",
          "name": "",
          "type": "bytes32"
        }
      ],
      "stateMutability": "view",
      "type": "function"
    },
    {
      "inputs": [],
      "name": "MINTER_ROLE",
      "outputs": [
        {
          "internalType": "bytes32",
          "name": "",
          "type": "bytes32"
        }
      ],
      "stateMutability": "view",
      "type": "function"
    },
    {
      "inputs": [
        {
          "internalType": "address",
          "name": "account",
          "type": "address"
        }
      ],
      "name": "addAdmin",
      "outputs": [],
      "stateMutability": "nonpayable",
      "type": "function"
    },
    {
      "inputs": [
        {
          "internalType": "address",
          "name": "",
          "type": "address"
        }
      ],
      "name": "aliveImplementation",
      "outputs": [
        {
          "internalType": "bool",
          "name": "",
          "type": "bool"
        }
      ],
      "stateMutability": "view",
      "type": "function"
    },
    {
      "inputs": [],
      "name": "dao",
      "outputs": [
        {
          "internalType": "address",
          "name": "",
          "type": "address"
        }
      ],
      "stateMutability": "view",
      "type": "function"
    },
    {
      "inputs": [],
      "name": "depositManager",
      "outputs": [
        {
          "internalType": "address",
          "name": "",
          "type": "address"
        }
      ],
      "stateMutability": "view",
      "type": "function"
    },
    {
      "inputs": [
        {
          "internalType": "bytes32",
          "name": "role",
          "type": "bytes32"
        }
      ],
      "name": "getRoleAdmin",
      "outputs": [
        {
          "internalType": "bytes32",
          "name": "",
          "type": "bytes32"
        }
      ],
      "stateMutability": "view",
      "type": "function"
    },
    {
      "inputs": [
        {
          "internalType": "bytes4",
          "name": "_selector",
          "type": "bytes4"
        }
      ],
      "name": "getSelectorImplementation2",
      "outputs": [
        {
          "internalType": "address",
          "name": "impl",
          "type": "address"
        }
      ],
      "stateMutability": "view",
      "type": "function"
    },
    {
      "inputs": [
        {
          "internalType": "bytes32",
          "name": "role",
          "type": "bytes32"
        },
        {
          "internalType": "address",
          "name": "account",
          "type": "address"
        }
      ],
      "name": "grantRole",
      "outputs": [],
      "stateMutability": "nonpayable",
      "type": "function"
    },
    {
      "inputs": [
        {
          "internalType": "bytes32",
          "name": "role",
          "type": "bytes32"
        },
        {
          "internalType": "address",
          "name": "account",
          "type": "address"
        }
      ],
      "name": "hasRole",
      "outputs": [
        {
          "internalType": "bool",
          "name": "",
          "type": "bool"
        }
      ],
      "stateMutability": "view",
      "type": "function"
    },
    {
      "inputs": [],
      "name": "implementation",
      "outputs": [
        {
          "internalType": "address",
          "name": "",
          "type": "address"
        }
      ],
      "stateMutability": "view",
      "type": "function"
    },
    {
      "inputs": [
        {
          "internalType": "uint256",
          "name": "_index",
          "type": "uint256"
        }
      ],
      "name": "implementation2",
      "outputs": [
        {
          "internalType": "address",
          "name": "",
          "type": "address"
        }
      ],
      "stateMutability": "view",
      "type": "function"
    },
    {
      "inputs": [
        {
          "internalType": "address",
          "name": "account",
          "type": "address"
        }
      ],
      "name": "isAdmin",
      "outputs": [
        {
          "internalType": "bool",
          "name": "",
          "type": "bool"
        }
      ],
      "stateMutability": "view",
      "type": "function"
    },
    {
      "inputs": [],
      "name": "isOwner",
      "outputs": [
        {
          "internalType": "bool",
          "name": "",
          "type": "bool"
        }
      ],
      "stateMutability": "view",
      "type": "function"
    },
    {
      "inputs": [
        {
          "internalType": "address",
          "name": "",
          "type": "address"
        }
      ],
      "name": "issueStatusLayer2",
      "outputs": [
        {
          "internalType": "uint8",
          "name": "",
          "type": "uint8"
        }
      ],
      "stateMutability": "view",
      "type": "function"
    },
    {
      "inputs": [],
      "name": "l2Register",
      "outputs": [
        {
          "internalType": "address",
          "name": "",
          "type": "address"
        }
      ],
      "stateMutability": "view",
      "type": "function"
    },
    {
      "inputs": [
        {
          "internalType": "address",
          "name": "",
          "type": "address"
        }
      ],
      "name": "layer2CandidateOfOperator",
      "outputs": [
        {
          "internalType": "address",
          "name": "",
          "type": "address"
        }
      ],
      "stateMutability": "view",
      "type": "function"
    },
    {
      "inputs": [],
      "name": "minimumInitialDepositAmount",
      "outputs": [
        {
          "internalType": "uint256",
          "name": "",
          "type": "uint256"
        }
      ],
      "stateMutability": "view",
      "type": "function"
    },
    {
      "inputs": [],
      "name": "operatorFactory",
      "outputs": [
        {
          "internalType": "address",
          "name": "",
          "type": "address"
        }
      ],
      "stateMutability": "view",
      "type": "function"
    },
    {
      "inputs": [
        {
          "internalType": "address",
          "name": "",
          "type": "address"
        }
      ],
      "name": "operatorOfSystemConfig",
      "outputs": [
        {
          "internalType": "address",
          "name": "",
          "type": "address"
        }
      ],
      "stateMutability": "view",
      "type": "function"
    },
    {
      "inputs": [],
      "name": "pauseProxy",
      "outputs": [
        {
          "internalType": "bool",
          "name": "",
          "type": "bool"
        }
      ],
      "stateMutability": "view",
      "type": "function"
    },
    {
      "inputs": [
        {
          "internalType": "uint256",
          "name": "",
          "type": "uint256"
        }
      ],
      "name": "proxyImplementation",
      "outputs": [
        {
          "internalType": "address",
          "name": "",
          "type": "address"
        }
      ],
      "stateMutability": "view",
      "type": "function"
    },
    {
      "inputs": [
        {
          "internalType": "address",
          "name": "account",
          "type": "address"
        }
      ],
      "name": "removeAdmin",
      "outputs": [],
      "stateMutability": "nonpayable",
      "type": "function"
    },
    {
      "inputs": [],
      "name": "renounceOwnership",
      "outputs": [],
      "stateMutability": "nonpayable",
      "type": "function"
    },
    {
      "inputs": [
        {
          "internalType": "bytes32",
          "name": "role",
          "type": "bytes32"
        },
        {
          "internalType": "address",
          "name": "account",
          "type": "address"
        }
      ],
      "name": "renounceRole",
      "outputs": [],
      "stateMutability": "nonpayable",
      "type": "function"
    },
    {
      "inputs": [
        {
          "internalType": "bytes32",
          "name": "role",
          "type": "bytes32"
        },
        {
          "internalType": "address",
          "name": "account",
          "type": "address"
        }
      ],
      "name": "revokeRole",
      "outputs": [],
      "stateMutability": "nonpayable",
      "type": "function"
    },
    {
      "inputs": [],
      "name": "seigManager",
      "outputs": [
        {
          "internalType": "address",
          "name": "",
          "type": "address"
        }
      ],
      "stateMutability": "view",
      "type": "function"
    },
    {
      "inputs": [
        {
          "internalType": "bytes4",
          "name": "",
          "type": "bytes4"
        }
      ],
      "name": "selectorImplementation",
      "outputs": [
        {
          "internalType": "address",
          "name": "",
          "type": "address"
        }
      ],
      "stateMutability": "view",
      "type": "function"
    },
    {
      "inputs": [
        {
          "internalType": "address",
          "name": "newImplementation",
          "type": "address"
        },
        {
          "internalType": "bool",
          "name": "_alive",
          "type": "bool"
        }
      ],
      "name": "setAliveImplementation2",
      "outputs": [],
      "stateMutability": "nonpayable",
      "type": "function"
    },
    {
      "inputs": [
        {
          "internalType": "address",
          "name": "newImplementation",
          "type": "address"
        },
        {
          "internalType": "uint256",
          "name": "_index",
          "type": "uint256"
        },
        {
          "internalType": "bool",
          "name": "_alive",
          "type": "bool"
        }
      ],
      "name": "setImplementation2",
      "outputs": [],
      "stateMutability": "nonpayable",
      "type": "function"
    },
    {
      "inputs": [
        {
          "internalType": "bool",
          "name": "_pause",
          "type": "bool"
        }
      ],
      "name": "setProxyPause",
      "outputs": [],
      "stateMutability": "nonpayable",
      "type": "function"
    },
    {
      "inputs": [
        {
          "internalType": "bytes4[]",
          "name": "_selectors",
          "type": "bytes4[]"
        },
        {
          "internalType": "address",
          "name": "_imp",
          "type": "address"
        }
      ],
      "name": "setSelectorImplementations2",
      "outputs": [],
      "stateMutability": "nonpayable",
      "type": "function"
    },
    {
      "inputs": [
        {
          "internalType": "bytes4",
          "name": "interfaceId",
          "type": "bytes4"
        }
      ],
      "name": "supportsInterface",
      "outputs": [
        {
          "internalType": "bool",
          "name": "",
          "type": "bool"
        }
      ],
      "stateMutability": "view",
      "type": "function"
    },
    {
      "inputs": [],
      "name": "swapProxy",
      "outputs": [
        {
          "internalType": "address",
          "name": "",
          "type": "address"
        }
      ],
      "stateMutability": "view",
      "type": "function"
    },
    {
      "inputs": [
        {
          "internalType": "address",
          "name": "",
          "type": "address"
        }
      ],
      "name": "systemConfigOfOperator",
      "outputs": [
        {
          "internalType": "address",
          "name": "",
          "type": "address"
        }
      ],
      "stateMutability": "view",
      "type": "function"
    },
    {
      "inputs": [],
      "name": "ton",
      "outputs": [
        {
          "internalType": "address",
          "name": "",
          "type": "address"
        }
      ],
      "stateMutability": "view",
      "type": "function"
    },
    {
      "inputs": [
        {
          "internalType": "address",
          "name": "newAdmin",
          "type": "address"
        }
      ],
      "name": "transferAdmin",
      "outputs": [],
      "stateMutability": "nonpayable",
      "type": "function"
    },
    {
      "inputs": [
        {
          "internalType": "address",
          "name": "newAdmin",
          "type": "address"
        }
      ],
      "name": "transferOwnership",
      "outputs": [],
      "stateMutability": "nonpayable",
      "type": "function"
    },
    {
      "inputs": [
        {
          "internalType": "address",
          "name": "impl",
          "type": "address"
        }
      ],
      "name": "upgradeTo",
      "outputs": [],
      "stateMutability": "nonpayable",
      "type": "function"
    },
    {
      "inputs": [],
      "name": "wton",
      "outputs": [
        {
          "internalType": "address",
          "name": "",
          "type": "address"
        }
      ],
      "stateMutability": "view",
      "type": "function"
    },
    {
      "stateMutability": "payable",
      "type": "receive"
    }
  ],
  "bytecode": "0x608080604052346100ab573360009081527f05b8ccbb9d4d8fb16ea74ce3c29a41f1b461fbdaff4714a0d9a8eb05499746bc602052604081205460ff161561005c575b50600160ff196013541617601355611a0490816100b18239f35b80805260056020526040812033825260205260408120600160ff19825416179055339033907f2f8788117e7eff1d82e926ec794901d17c78024a50270940304540a733656f0d8180a438610042565b600080fdfe60806040526004361015610018575b3661185057611814565b60003560e01c806301ffc9a714610293578063153e6d7f1461028e5780631785f53c14610289578063248a9ca31461028457806324d7806c1461027f5780632f2ff15d1461027a57806336568abe146102755780633659cfe6146102705780634162169f1461026b578063472d1f71146102665780634a5df50f1461026157806350d2a2761461025c5780635290c24814610257578063550d01a3146102525780635c60da1b1461024d5780635cc797d81461024857806363a8fd89146102435780636c7ac9d81461023e5780636ec4be90146102395780636fb7f55814610234578063704802751461022f578063715018a61461022a57806375829def146102255780637cb00d25146102205780637cd5f6631461021b5780638b8f4a65146101f35780638d4fdb40146102165780638d62d949146102115780638f32d59b1461020c57806391d1485414610207578063a1efe92014610202578063a217fddf146101fd578063b17dba1b146101f8578063b911135f146101f3578063cc48b947146101ee578063d5391393146101e9578063d547741f146101e4578063e9d6ec4f146101df578063ef6cf652146101da5763f2fde38b0361000e5761103c565b611001565b610fe3565b610fa4565b610f69565b610f40565b610d9b565b610f05565b610ee9565b610eae565b610e68565b610e31565b610e08565b610dcf565b610cc1565b610c69565b610ba2565b610b7c565b610a90565b610a67565b610a3e565b610a15565b6109f2565b61099b565b610967565b610928565b6108ff565b6108b9565b6106d1565b6106a8565b61067f565b61059f565b61050d565b610444565b6103f4565b6103c5565b610391565b610354565b6102af565b6001600160e01b03198116036102aa57565b600080fd5b346102aa5760203660031901126102aa576004356102cc81610298565b6001600160e01b031916637965db0b60e01b811480156102f4575b6020906040519015158152f35b506301ffc9a760e01b8114801561030f575b602091506102e7565b506000526004602052602060ff60406000205416610306565b600435906001600160a01b03821682036102aa57565b602435906001600160a01b03821682036102aa57565b346102aa5760203660031901126102aa576001600160a01b03610375610328565b16600052600f602052602060ff60406000205416604051908152f35b346102aa5760203660031901126102aa576103c36103ad610328565b6103be6103b93361105d565b6115d7565b61132f565b005b346102aa5760203660031901126102aa5760043560005260056020526020600160406000200154604051908152f35b346102aa5760203660031901126102aa57602060ff610438610414610328565b600080526005845260406000209060018060a01b0316600052602052604060002090565b54166040519015158152f35b346102aa5760403660031901126102aa5760043561046061033e565b600091808352600560205261047b600160408520015461114b565b8083526005602090815260408085206001600160a01b0385166000908152925290205460ff16156104aa578280f35b8083526005602090815260408085206001600160a01b038516600090815292529020805460ff1916600117905533916001600160a01b0316907f2f8788117e7eff1d82e926ec794901d17c78024a50270940304540a733656f0d8480a438808280f35b346102aa5760403660031901126102aa5761052661033e565b336001600160a01b03821603610542576103c3906004356113cc565b60405162461bcd60e51b815260206004820152602f60248201527f416363657373436f6e74726f6c3a2063616e206f6e6c792072656e6f756e636560448201526e103937b632b9903337b91039b2b63360891b6064820152608490fd5b346102aa5760203660031901126102aa576105b8610328565b3360009081526000805160206119d8833981519152602052604081209091906105e69060ff905b54166115d7565b6001600160a01b03811690811561064a5782805260016020526040832054610623919061061e906001600160a01b031684141561162e565b6118eb565b7fbc7cd75a20ee27fd9adebab32041f755214dbc6bffa90cc0225b39da2e5c2d3b8280a280f35b60405162461bcd60e51b815260206004820152600d60248201526c696e707574206973207a65726f60981b6044820152606490fd5b346102aa5760003660031901126102aa57600a546040516001600160a01b039091168152602090f35b346102aa5760003660031901126102aa576006546040516001600160a01b039091168152602090f35b346102aa5760403660031901126102aa5767ffffffffffffffff6004358181116102aa57366023820112156102aa5780600401359182116102aa576024810190602436918460051b0101116102aa5761072861033e565b3360009081526000805160206119d8833981519152602052604081209093906107539060ff906105df565b80156108755761078961078461077d84959460018060a01b03166000526002602052604060002090565b5460ff1690565b611666565b6001600160a01b03928084169290855b8381106107a4578680f35b806107f486886107ec6107df6107c66107c1610870988c8c6116c1565b6116d1565b63ffffffff60e01b166000526003602052604060002090565b546001600160a01b031690565b1614156116db565b610828836108096107c66107c1858a8a6116c1565b80546001600160a01b0319166001600160a01b03909216919091179055565b8561084761083a6107c18489896116c1565b6001600160e01b03191690565b7f14ebc1c32aa68f4d766e89f3e546cee249f7df25183fc10ab1568d91c2ce9b7b8a80a36116b2565b610799565b606460405162461bcd60e51b815260206004820152602060248201527f50726f78793a205f73656c6563746f727327732073697a65206973207a65726f6044820152fd5b346102aa5760203660031901126102aa576004356108d681610298565b63ffffffff60e01b166000526003602052602060018060a01b0360406000205416604051908152f35b346102aa5760003660031901126102aa576007546040516001600160a01b039091168152602090f35b346102aa5760203660031901126102aa576001600160a01b03610949610328565b166000526002602052602060ff604060002054166040519015158152f35b346102aa576000806003193601126109985780806020925260018252604060018060a01b0391205416604051908152f35b80fd5b346102aa5760403660031901126102aa576109b4610328565b60243580151581036102aa573360009081526000805160206119d8833981519152602052604090206103c392906109ed9060ff906105df565b611983565b346102aa5760003660031901126102aa57602060ff600054166040519015158152f35b346102aa5760003660031901126102aa57600b546040516001600160a01b039091168152602090f35b346102aa5760003660031901126102aa57600d546040516001600160a01b039091168152602090f35b346102aa5760003660031901126102aa57600c546040516001600160a01b039091168152602090f35b346102aa5760203660031901126102aa57610aa9610328565b610ab56103b93361105d565b600080805260056020527f05b8ccbb9d4d8fb16ea74ce3c29a41f1b461fbdaff4714a0d9a8eb05499746bd54909190610aed9061114b565b8180526005602090815260408084206001600160a01b0384166000908152925290205460ff1615610b1c575080f35b8180526005602090815260408084206001600160a01b038416600090815292529020805460ff1916600117905533906001600160a01b0316827f2f8788117e7eff1d82e926ec794901d17c78024a50270940304540a733656f0d8180a480f35b346102aa5760003660031901126102aa57610b996103b93361105d565b6103c33361132f565b346102aa5760203660031901126102aa57610bbb610328565b610bc76103b93361105d565b6001600160a01b0381168015610c24573314610be657610b9990611088565b60405162461bcd60e51b815260206004820152601660248201527520b1b1b2b9b9b4b136329d1039b0b6b29030b236b4b760511b6044820152606490fd5b60405162461bcd60e51b815260206004820152601860248201527f41636365737369626c653a207a65726f206164647265737300000000000000006044820152606490fd5b346102aa5760203660031901126102aa576004358015158091036102aa573360009081526000805160206119d883398151915260205260408120909190610cb29060ff906105df565b60ff8019835416911617815580f35b346102aa5760603660031901126102aa57610cda610328565b6044359081151582036102aa573360009081526000805160206119d883398151915260205260408120909290610d129060ff906105df565b813b15610d5657610d279181610d2a57611983565b80f35b602435845260016020526040842080546001600160a01b0319166001600160a01b038316179055611983565b60405162461bcd60e51b815260206004820152601b60248201527f50726f78793a206e6f7420636f6e7472616374206164647265737300000000006044820152606490fd5b346102aa5760203660031901126102aa576004356000526001602052602060018060a01b0360406000205416604051908152f35b346102aa5760203660031901126102aa576020610df6600435610df181610298565b611727565b6040516001600160a01b039091168152f35b346102aa5760003660031901126102aa576009546040516001600160a01b039091168152602090f35b346102aa5760008060031936011261099857808052600560209081526040918290203360009081529082529190912060ff90610438565b346102aa5760403660031901126102aa57602060ff610438610e8861033e565b6004356000526005845260406000209060018060a01b0316600052602052604060002090565b346102aa5760203660031901126102aa5760206001600160a01b0380610ed2610328565b166000526011825260406000205416604051908152f35b346102aa5760003660031901126102aa57602060405160008152f35b346102aa5760203660031901126102aa5760206001600160a01b0380610f29610328565b166000526012825260406000205416604051908152f35b346102aa5760003660031901126102aa576008546040516001600160a01b039091168152602090f35b346102aa5760003660031901126102aa5760206040517ff0887ba65ee2024ea881d91b74c2450ef19e1557f03bed3ea9f16b037cbe2dc98152f35b346102aa5760403660031901126102aa576103c3600435610fc361033e565b90806000526005602052610fde60016040600020015461114b565b6113cc565b346102aa5760003660031901126102aa576020600e54604051908152f35b346102aa5760203660031901126102aa5760206001600160a01b0380611025610328565b166000526010825260406000205416604051908152f35b346102aa5760203660031901126102aa57611055610328565b610bbb6103b9335b6001600160a01b031660009081526000805160206119d8833981519152602052604090205460ff1690565b600080805260056020527f05b8ccbb9d4d8fb16ea74ce3c29a41f1b461fbdaff4714a0d9a8eb05499746bd546110bd9061114b565b8080526005602090815260408083206001600160a01b0385166000908152925290205460ff16156110ec575050565b8080526005602090815260408083206001600160a01b038516600090815292529020805460ff1916600117905533916001600160a01b0316907f2f8788117e7eff1d82e926ec794901d17c78024a50270940304540a733656f0d8180a4565b600081815260056020908152604080832033845290915290205460ff16156111705750565b339061117a611475565b916030611186846114b8565b536078611192846114c5565b5360295b60018111611245576112416111fe6112298661121b6111be886111b989156114f8565b611543565b6111f86040519586946111f8602087016017907f416363657373436f6e74726f6c3a206163636f756e742000000000000000000081520190565b906112af565b7001034b99036b4b9b9b4b733903937b6329607d1b815260110190565b03601f1981018352826112dc565b60405162461bcd60e51b815291829160048301611303565b0390fd5b90600f811690601082101561128757611282916f181899199a1a9b1b9c1cb0b131b232b360811b901a61127884876114d5565b5360041c916114e6565b611196565b6114a2565b60005b83811061129f5750506000910152565b818101518382015260200161128f565b906112c26020928281519485920161128c565b0190565b634e487b7160e01b600052604160045260246000fd5b90601f8019910116810190811067ffffffffffffffff8211176112fe57604052565b6112c6565b60409160208252611323815180928160208601526020868601910161128c565b601f01601f1916010190565b6001600160a01b038116338103610542576001600160a01b03821660009081526000805160206119d8833981519152602052604081205490929060ff1661137557505050565b61139c908380526005602052604084209060018060a01b0316600052602052604060002090565b805460ff1916905533917ff6391f5c32d9c69d2a47ea670b442974b53935d1edc7fd64eb21e047a839171b8180a4565b600090808252600560205260ff6113f884604085209060018060a01b0316600052602052604060002090565b541661140357505050565b8082526005602090815260408084206001600160a01b038616600090815292529020805460ff1916905533926001600160a01b0316917ff6391f5c32d9c69d2a47ea670b442974b53935d1edc7fd64eb21e047a839171b9080a4565b634e487b7160e01b600052601160045260246000fd5b604051906060820182811067ffffffffffffffff8211176112fe57604052602a8252604082602036910137565b634e487b7160e01b600052603260045260246000fd5b8051156112875760200190565b8051600110156112875760210190565b908151811015611287570160200190565b80156114f3576000190190565b61145f565b156114ff57565b606460405162461bcd60e51b815260206004820152602060248201527f537472696e67733a20686578206c656e67746820696e73756666696369656e746044820152fd5b604051906080820182811067ffffffffffffffff8211176112fe576040526042825260603660208401376030611578836114b8565b536078611584836114c5565b536041905b6001821161159f5761159c9150156114f8565b90565b600f8116906010821015611287576115d1916f181899199a1a9b1b9c1cb0b131b232b360811b901a61127884866114d5565b90611589565b156115de57565b60405162461bcd60e51b815260206004820152602260248201527f41636365737369626c653a2043616c6c6572206973206e6f7420616e2061646d60448201526134b760f11b6064820152608490fd5b1561163557565b60405162461bcd60e51b815260206004820152600960248201526839b0b6b29030b2323960b91b6044820152606490fd5b1561166d57565b60405162461bcd60e51b815260206004820152601860248201527f50726f78793a205f696d70206973206e6f7420616c69766500000000000000006044820152606490fd5b60001981146114f35760010190565b91908110156112875760051b0190565b3561159c81610298565b156116e257565b60405162461bcd60e51b815260206004820152601d60248201527f4c69717569646974795661756c7450726f78793a2073616d6520696d700000006044820152606490fd5b6001600160e01b031981166000908152600360205260409020546001600160a01b039190821661178157506000805260016020527fa6eef7e35abe7026729641147f7915573c7e97b47efa546f5f6e3230263bcb49541690565b60ff6117c0836117a48463ffffffff60e01b166000526003602052604060002090565b54166001600160a01b0316600090815260026020526040902090565b5416156117e4576001600160e01b0319166000908152600360205260409020541690565b506000805260016020527fa6eef7e35abe7026729641147f7915573c7e97b47efa546f5f6e3230263bcb49541690565b60405162461bcd60e51b815260206004820152601460248201527331b0b73737ba103932b1b2b4bb329022ba3432b960611b6044820152606490fd5b600061186681356001600160e01b031916611727565b6001600160a01b0381161515806118df575b1561189a57818091368280378136915af43d82803e15611896573d90f35b3d90fd5b60405162461bcd60e51b815260206004820152601d60248201527f50726f78793a20696d706c204f522070726f78792069732066616c73650000006044820152606490fd5b5060ff82541615611878565b803b15610d56576000805260016020527fa6eef7e35abe7026729641147f7915573c7e97b47efa546f5f6e3230263bcb4980546001600160a01b0319166001600160a01b03831617905560018060a01b03168060005260026020526040600020600160ff198254161790557f72558d9bfba4210f9ef095c782589484151f6d90f7a81bb3cb9b33efc695d324602060405160018152a2565b60207f72558d9bfba4210f9ef095c782589484151f6d90f7a81bb3cb9b33efc695d3249160018060a01b031692836000526002825260406000209015159060ff1981541660ff8316179055604051908152a256fe05b8ccbb9d4d8fb16ea74ce3c29a41f1b461fbdaff4714a0d9a8eb05499746bca164736f6c6343000813000a",
  "linkReferences": {},
  "deployedLinkReferences": {}
}