{
  "_format": "hh-sol-artifact-1",
  "contractName": "Layer2ManagerProxy",
  "sourceName": "contracts/layer2/Layer2ManagerProxy.sol",
  "abi": [
    {
      "anonymous": false,
      "inputs": [
        {
          "indexed": true,
          "internalType": "bytes32",
          "name": "role",
          "type": "bytes32"
        },
        {
          "indexed": true,
          "internalType": "bytes32",
          "name": "previousAdminRole",
          "type": "bytes32"
        },
        {
          "indexed": true,
          "internalType": "bytes32",
          "name": "newAdminRole",
          "type": "bytes32"
        }
      ],
      "name": "RoleAdminChanged",
      "type": "event"
    },
    {
      "anonymous": false,
      "inputs": [
        {
          "indexed": true,
          "internalType": "bytes32",
          "name": "role",
          "type": "bytes32"
        },
        {
          "indexed": true,
          "internalType": "address",
          "name": "account",
          "type": "address"
        },
        {
          "indexed": true,
          "internalType": "address",
          "name": "sender",
          "type": "address"
        }
      ],
      "name": "RoleGranted",
      "type": "event"
    },
    {
      "anonymous": false,
      "inputs": [
        {
          "indexed": true,
          "internalType": "bytes32",
          "name": "role",
          "type": "bytes32"
        },
        {
          "indexed": true,
          "internalType": "address",
          "name": "account",
          "type": "address"
        },
        {
          "indexed": true,
          "internalType": "address",
          "name": "sender",
          "type": "address"
        }
      ],
      "name": "RoleRevoked",
      "type": "event"
    },
    {
      "anonymous": false,
      "inputs": [
        {
          "indexed": true,
          "internalType": "address",
          "name": "impl",
          "type": "address"
        },
        {
          "indexed": false,
          "internalType": "bool",
          "name": "alive",
          "type": "bool"
        }
      ],
      "name": "SetAliveImplementation",
      "type": "event"
    },
    {
      "anonymous": false,
      "inputs": [
        {
          "indexed": true,
          "internalType": "bytes4",
          "name": "selector",
          "type": "bytes4"
        },
        {
          "indexed": true,
          "internalType": "address",
          "name": "impl",
          "type": "address"
        }
      ],
      "name": "SetSelectorImplementation",
      "type": "event"
    },
    {
      "anonymous": false,
      "inputs": [
        {
          "indexed": true,
          "internalType": "address",
          "name": "implementation",
          "type": "address"
        }
      ],
      "name": "Upgraded",
      "type": "event"
    },
    {
      "stateMutability": "payable",
      "type": "fallback"
    },
    {
      "inputs": [],
      "name": "DEFAULT_ADMIN_ROLE",
      "outputs": [
        {
          "internalType": "bytes32",
          "name": "",
          "type": "bytes32"
        }
      ],
      "stateMutability": "view",
      "type": "function"
    },
    {
      "inputs": [],
      "name": "MINTER_ROLE",
      "outputs": [
        {
          "internalType": "bytes32",
          "name": "",
          "type": "bytes32"
        }
      ],
      "stateMutability": "view",
      "type": "function"
    },
    {
      "inputs": [
        {
          "internalType": "address",
          "name": "account",
          "type": "address"
        }
      ],
      "name": "addAdmin",
      "outputs": [],
      "stateMutability": "nonpayable",
      "type": "function"
    },
    {
      "inputs": [
        {
          "internalType": "address",
          "name": "",
          "type": "address"
        }
      ],
      "name": "aliveImplementation",
      "outputs": [
        {
          "internalType": "bool",
          "name": "",
          "type": "bool"
        }
      ],
      "stateMutability": "view",
      "type": "function"
    },
    {
      "inputs": [
        {
          "internalType": "address",
          "name": "",
          "type": "address"
        }
      ],
      "name": "claimedAmount",
      "outputs": [
        {
          "internalType": "uint256",
          "name": "",
          "type": "uint256"
        }
      ],
      "stateMutability": "view",
      "type": "function"
    },
    {
      "inputs": [],
      "name": "dao",
      "outputs": [
        {
          "internalType": "address",
          "name": "",
          "type": "address"
        }
      ],
      "stateMutability": "view",
      "type": "function"
    },
    {
      "inputs": [],
      "name": "depositManager",
      "outputs": [
        {
          "internalType": "address",
          "name": "",
          "type": "address"
        }
      ],
      "stateMutability": "view",
      "type": "function"
    },
    {
      "inputs": [
        {
          "internalType": "bytes32",
          "name": "role",
          "type": "bytes32"
        }
      ],
      "name": "getRoleAdmin",
      "outputs": [
        {
          "internalType": "bytes32",
          "name": "",
          "type": "bytes32"
        }
      ],
      "stateMutability": "view",
      "type": "function"
    },
    {
      "inputs": [
        {
          "internalType": "bytes4",
          "name": "_selector",
          "type": "bytes4"
        }
      ],
      "name": "getSelectorImplementation2",
      "outputs": [
        {
          "internalType": "address",
          "name": "impl",
          "type": "address"
        }
      ],
      "stateMutability": "view",
      "type": "function"
    },
    {
      "inputs": [
        {
          "internalType": "bytes32",
          "name": "role",
          "type": "bytes32"
        },
        {
          "internalType": "address",
          "name": "account",
          "type": "address"
        }
      ],
      "name": "grantRole",
      "outputs": [],
      "stateMutability": "nonpayable",
      "type": "function"
    },
    {
      "inputs": [
        {
          "internalType": "bytes32",
          "name": "role",
          "type": "bytes32"
        },
        {
          "internalType": "address",
          "name": "account",
          "type": "address"
        }
      ],
      "name": "hasRole",
      "outputs": [
        {
          "internalType": "bool",
          "name": "",
          "type": "bool"
        }
      ],
      "stateMutability": "view",
      "type": "function"
    },
    {
      "inputs": [],
      "name": "implementation",
      "outputs": [
        {
          "internalType": "address",
          "name": "",
          "type": "address"
        }
      ],
      "stateMutability": "view",
      "type": "function"
    },
    {
      "inputs": [
        {
          "internalType": "uint256",
          "name": "_index",
          "type": "uint256"
        }
      ],
      "name": "implementation2",
      "outputs": [
        {
          "internalType": "address",
          "name": "",
          "type": "address"
        }
      ],
      "stateMutability": "view",
      "type": "function"
    },
    {
      "inputs": [
        {
          "internalType": "address",
          "name": "account",
          "type": "address"
        }
      ],
      "name": "isAdmin",
      "outputs": [
        {
          "internalType": "bool",
          "name": "",
          "type": "bool"
        }
      ],
      "stateMutability": "view",
      "type": "function"
    },
    {
      "inputs": [],
      "name": "isOwner",
      "outputs": [
        {
          "internalType": "bool",
          "name": "",
          "type": "bool"
        }
      ],
      "stateMutability": "view",
      "type": "function"
    },
    {
      "inputs": [
        {
          "internalType": "address",
          "name": "",
          "type": "address"
        }
      ],
      "name": "issueStatusLayer2",
      "outputs": [
        {
          "internalType": "uint8",
          "name": "",
          "type": "uint8"
        }
      ],
      "stateMutability": "view",
      "type": "function"
    },
    {
      "inputs": [],
      "name": "l2Register",
      "outputs": [
        {
          "internalType": "address",
          "name": "",
          "type": "address"
        }
      ],
      "stateMutability": "view",
      "type": "function"
    },
    {
      "inputs": [
        {
          "internalType": "address",
          "name": "",
          "type": "address"
        }
      ],
      "name": "l2Tvl",
      "outputs": [
        {
          "internalType": "uint256",
          "name": "",
          "type": "uint256"
        }
      ],
      "stateMutability": "view",
      "type": "function"
    },
    {
      "inputs": [],
      "name": "minimumInitialDepositAmount",
      "outputs": [
        {
          "internalType": "uint256",
          "name": "",
          "type": "uint256"
        }
      ],
      "stateMutability": "view",
      "type": "function"
    },
    {
      "inputs": [],
      "name": "minimumRelectedAmount",
      "outputs": [
        {
          "internalType": "uint256",
          "name": "",
          "type": "uint256"
        }
      ],
      "stateMutability": "view",
      "type": "function"
    },
    {
      "inputs": [],
      "name": "operatorFactory",
      "outputs": [
        {
          "internalType": "address",
          "name": "",
          "type": "address"
        }
      ],
      "stateMutability": "view",
      "type": "function"
    },
    {
      "inputs": [
        {
          "internalType": "address",
          "name": "",
          "type": "address"
        }
      ],
      "name": "operatorOfSystemConfig",
      "outputs": [
        {
          "internalType": "address",
          "name": "",
          "type": "address"
        }
      ],
      "stateMutability": "view",
      "type": "function"
    },
    {
      "inputs": [],
      "name": "pauseProxy",
      "outputs": [
        {
          "internalType": "bool",
          "name": "",
          "type": "bool"
        }
      ],
      "stateMutability": "view",
      "type": "function"
    },
    {
      "inputs": [
        {
          "internalType": "uint256",
          "name": "",
          "type": "uint256"
        }
      ],
      "name": "proxyImplementation",
      "outputs": [
        {
          "internalType": "address",
          "name": "",
          "type": "address"
        }
      ],
      "stateMutability": "view",
      "type": "function"
    },
    {
      "inputs": [
        {
          "internalType": "address",
          "name": "account",
          "type": "address"
        }
      ],
      "name": "removeAdmin",
      "outputs": [],
      "stateMutability": "nonpayable",
      "type": "function"
    },
    {
      "inputs": [],
      "name": "renounceOwnership",
      "outputs": [],
      "stateMutability": "nonpayable",
      "type": "function"
    },
    {
      "inputs": [
        {
          "internalType": "bytes32",
          "name": "role",
          "type": "bytes32"
        },
        {
          "internalType": "address",
          "name": "account",
          "type": "address"
        }
      ],
      "name": "renounceRole",
      "outputs": [],
      "stateMutability": "nonpayable",
      "type": "function"
    },
    {
      "inputs": [
        {
          "internalType": "bytes32",
          "name": "role",
          "type": "bytes32"
        },
        {
          "internalType": "address",
          "name": "account",
          "type": "address"
        }
      ],
      "name": "revokeRole",
      "outputs": [],
      "stateMutability": "nonpayable",
      "type": "function"
    },
    {
      "inputs": [],
      "name": "seigManager",
      "outputs": [
        {
          "internalType": "address",
          "name": "",
          "type": "address"
        }
      ],
      "stateMutability": "view",
      "type": "function"
    },
    {
      "inputs": [
        {
          "internalType": "bytes4",
          "name": "",
          "type": "bytes4"
        }
      ],
      "name": "selectorImplementation",
      "outputs": [
        {
          "internalType": "address",
          "name": "",
          "type": "address"
        }
      ],
      "stateMutability": "view",
      "type": "function"
    },
    {
      "inputs": [
        {
          "internalType": "address",
          "name": "newImplementation",
          "type": "address"
        },
        {
          "internalType": "bool",
          "name": "_alive",
          "type": "bool"
        }
      ],
      "name": "setAliveImplementation2",
      "outputs": [],
      "stateMutability": "nonpayable",
      "type": "function"
    },
    {
      "inputs": [
        {
          "internalType": "address",
          "name": "newImplementation",
          "type": "address"
        },
        {
          "internalType": "uint256",
          "name": "_index",
          "type": "uint256"
        },
        {
          "internalType": "bool",
          "name": "_alive",
          "type": "bool"
        }
      ],
      "name": "setImplementation2",
      "outputs": [],
      "stateMutability": "nonpayable",
      "type": "function"
    },
    {
      "inputs": [
        {
          "internalType": "bool",
          "name": "_pause",
          "type": "bool"
        }
      ],
      "name": "setProxyPause",
      "outputs": [],
      "stateMutability": "nonpayable",
      "type": "function"
    },
    {
      "inputs": [
        {
          "internalType": "bytes4[]",
          "name": "_selectors",
          "type": "bytes4[]"
        },
        {
          "internalType": "address",
          "name": "_imp",
          "type": "address"
        }
      ],
      "name": "setSelectorImplementations2",
      "outputs": [],
      "stateMutability": "nonpayable",
      "type": "function"
    },
    {
      "inputs": [],
      "name": "shares",
      "outputs": [
        {
          "internalType": "uint256",
          "name": "",
          "type": "uint256"
        }
      ],
      "stateMutability": "view",
      "type": "function"
    },
    {
      "inputs": [
        {
          "internalType": "bytes4",
          "name": "interfaceId",
          "type": "bytes4"
        }
      ],
      "name": "supportsInterface",
      "outputs": [
        {
          "internalType": "bool",
          "name": "",
          "type": "bool"
        }
      ],
      "stateMutability": "view",
      "type": "function"
    },
    {
      "inputs": [],
      "name": "swapProxy",
      "outputs": [
        {
          "internalType": "address",
          "name": "",
          "type": "address"
        }
      ],
      "stateMutability": "view",
      "type": "function"
    },
    {
      "inputs": [
        {
          "internalType": "address",
          "name": "",
          "type": "address"
        }
      ],
      "name": "systemConfigOfOperator",
      "outputs": [
        {
          "internalType": "address",
          "name": "",
          "type": "address"
        }
      ],
      "stateMutability": "view",
      "type": "function"
    },
    {
      "inputs": [],
      "name": "ton",
      "outputs": [
        {
          "internalType": "address",
          "name": "",
          "type": "address"
        }
      ],
      "stateMutability": "view",
      "type": "function"
    },
    {
      "inputs": [],
      "name": "totalTvl",
      "outputs": [
        {
          "internalType": "uint256",
          "name": "",
          "type": "uint256"
        }
      ],
      "stateMutability": "view",
      "type": "function"
    },
    {
      "inputs": [
        {
          "internalType": "address",
          "name": "newAdmin",
          "type": "address"
        }
      ],
      "name": "transferAdmin",
      "outputs": [],
      "stateMutability": "nonpayable",
      "type": "function"
    },
    {
      "inputs": [
        {
          "internalType": "address",
          "name": "newAdmin",
          "type": "address"
        }
      ],
      "name": "transferOwnership",
      "outputs": [],
      "stateMutability": "nonpayable",
      "type": "function"
    },
    {
      "inputs": [],
      "name": "unReflectedSeigs",
      "outputs": [
        {
          "internalType": "uint256",
          "name": "",
          "type": "uint256"
        }
      ],
      "stateMutability": "view",
      "type": "function"
    },
    {
      "inputs": [
        {
          "internalType": "address",
          "name": "impl",
          "type": "address"
        }
      ],
      "name": "upgradeTo",
      "outputs": [],
      "stateMutability": "nonpayable",
      "type": "function"
    },
    {
      "inputs": [],
      "name": "wton",
      "outputs": [
        {
          "internalType": "address",
          "name": "",
          "type": "address"
        }
      ],
      "stateMutability": "view",
      "type": "function"
    },
    {
      "stateMutability": "payable",
      "type": "receive"
    }
  ],
  "bytecode": "0x60806040526019805460ff1916600117905534801561001d57600080fd5b5061002960003361002e565b6100de565b610038828261003c565b5050565b60008281526005602090815260408083206001600160a01b038516845290915290205460ff166100385760008281526005602090815260408083206001600160a01b03851684529091529020805460ff1916600117905561009a3390565b6001600160a01b0316816001600160a01b0316837f2f8788117e7eff1d82e926ec794901d17c78024a50270940304540a733656f0d60405160405180910390a45050565b611962806100ed6000396000f3fe6080604052600436106102765760003560e01c8063704802751161014f578063a1efe920116100c1578063d53913931161007a578063d539139314610851578063d547741f14610885578063e0ca79e4146108a5578063e9d6ec4f146108bb578063ef6cf652146108d1578063f2fde38b14610907576102bf565b8063a1efe92014610784578063a217fddf146107ba578063a2eae4ce146107cf578063b911135f146107e5578063b94ed2421461081b578063cc48b94714610831576102bf565b80638b8f4a65116101135780638b8f4a65146106c25780638d4fdb40146106e25780638d62d949146107025780638f32d59b1461072257806391d148541461073757806396c62f0814610757576102bf565b8063704802751461062d578063715018a61461064d57806375829def146106625780637cb00d25146106825780637cd5f663146106a2576102bf565b8063472d1f71116101e85780635c60da1b116101ac5780635c60da1b1461055f5780635cc797d81461059357806363a8fd89146105b35780636c7ac9d8146105cd5780636ec4be90146105ed5780636fb7f5581461060d576102bf565b8063472d1f71146104995780634a5df50f146104b957806350d2a276146104d95780635290c2481461050f578063550d01a31461052f576102bf565b8063248a9ca31161023a578063248a9ca3146103b157806324d7806c146103e15780632f2ff15d1461040157806336568abe146104215780633659cfe6146104415780634162169f14610461576102bf565b806301ffc9a7146102c957806303314efa146102fe57806304e8690314610322578063153e6d7f1461034f5780631785f53c14610391576102bf565b366102bf5760405162461bcd60e51b815260206004820152601460248201527331b0b73737ba103932b1b2b4bb329022ba3432b960611b60448201526064015b60405180910390fd5b6102c7610927565b005b3480156102d557600080fd5b506102e96102e43660046115de565b6109d0565b60405190151581526020015b60405180910390f35b34801561030a57600080fd5b5061031460165481565b6040519081526020016102f5565b34801561032e57600080fd5b5061031461033d36600461161f565b60116020526000908152604090205481565b34801561035b57600080fd5b5061037f61036a36600461161f565b600f6020526000908152604090205460ff1681565b60405160ff90911681526020016102f5565b34801561039d57600080fd5b506102c76103ac36600461161f565b6109e1565b3480156103bd57600080fd5b506103146103cc36600461163a565b60009081526005602052604090206001015490565b3480156103ed57600080fd5b506102e96103fc36600461161f565b610a14565b34801561040d57600080fd5b506102c761041c366004611653565b610a20565b34801561042d57600080fd5b506102c761043c366004611653565b610a45565b34801561044d57600080fd5b506102c761045c36600461161f565b610ac3565b34801561046d57600080fd5b50600a54610481906001600160a01b031681565b6040516001600160a01b0390911681526020016102f5565b3480156104a557600080fd5b50600654610481906001600160a01b031681565b3480156104c557600080fd5b506102c76104d436600461167f565b610bd1565b3480156104e557600080fd5b506104816104f43660046115de565b6003602052600090815260409020546001600160a01b031681565b34801561051b57600080fd5b50600754610481906001600160a01b031681565b34801561053b57600080fd5b506102e961054a36600461161f565b60026020526000908152604090205460ff1681565b34801561056b57600080fd5b50600080526001602052600080516020611936833981519152546001600160a01b0316610481565b34801561059f57600080fd5b506102c76105ae366004611713565b610e38565b3480156105bf57600080fd5b506000546102e99060ff1681565b3480156105d957600080fd5b50600b54610481906001600160a01b031681565b3480156105f957600080fd5b50600d54610481906001600160a01b031681565b34801561061957600080fd5b50600c54610481906001600160a01b031681565b34801561063957600080fd5b506102c761064836600461161f565b610e67565b34801561065957600080fd5b506102c7610e97565b34801561066e57600080fd5b506102c761067d36600461161f565b610ec9565b34801561068e57600080fd5b506102c761069d36600461173d565b610fab565b3480156106ae57600080fd5b506102c76106bd366004611758565b610fe3565b3480156106ce57600080fd5b506104816106dd36600461163a565b611013565b3480156106ee57600080fd5b506104816106fd3660046115de565b611030565b34801561070e57600080fd5b50600954610481906001600160a01b031681565b34801561072e57600080fd5b506102e9611108565b34801561074357600080fd5b506102e9610752366004611653565b611110565b34801561076357600080fd5b5061031461077236600461161f565b60146020526000908152604090205481565b34801561079057600080fd5b5061048161079f36600461161f565b6012602052600090815260409020546001600160a01b031681565b3480156107c657600080fd5b50610314600081565b3480156107db57600080fd5b5061031460185481565b3480156107f157600080fd5b5061048161080036600461163a565b6001602052600090815260409020546001600160a01b031681565b34801561082757600080fd5b5061031460175481565b34801561083d57600080fd5b50600854610481906001600160a01b031681565b34801561085d57600080fd5b506103147ff0887ba65ee2024ea881d91b74c2450ef19e1557f03bed3ea9f16b037cbe2dc981565b34801561089157600080fd5b506102c76108a0366004611653565b61113b565b3480156108b157600080fd5b5061031460135481565b3480156108c757600080fd5b50610314600e5481565b3480156108dd57600080fd5b506104816108ec36600461161f565b6010602052600090815260409020546001600160a01b031681565b34801561091357600080fd5b506102c761092236600461161f565b611160565b600061093e6000356001600160e01b031916611030565b90506001600160a01b0381161580159061095b575060005460ff16155b6109a75760405162461bcd60e51b815260206004820152601d60248201527f50726f78793a20696d706c204f522070726f78792069732066616c736500000060448201526064016102b6565b3660008037600080366000845af43d6000803e8080156109c6573d6000f35b3d6000fd5b505050565b60006109db8261118e565b92915050565b6109ea33610a14565b610a065760405162461bcd60e51b81526004016102b69061178b565b610a11600082610a45565b50565b60006109db8183611110565b600082815260056020526040902060010154610a3b816111b3565b6109cb83836111bd565b6001600160a01b0381163314610ab55760405162461bcd60e51b815260206004820152602f60248201527f416363657373436f6e74726f6c3a2063616e206f6e6c792072656e6f756e636560448201526e103937b632b9903337b91039b2b63360891b60648201526084016102b6565b610abf8282611243565b5050565b610acc33610a14565b610ae85760405162461bcd60e51b81526004016102b69061178b565b6001600160a01b038116610b2e5760405162461bcd60e51b815260206004820152600d60248201526c696e707574206973207a65726f60981b60448201526064016102b6565b600080526001602052600080516020611936833981519152546001600160a01b03828116911603610b8d5760405162461bcd60e51b815260206004820152600960248201526839b0b6b29030b2323960b91b60448201526064016102b6565b610b9a81600060016112aa565b6040516001600160a01b038216907fbc7cd75a20ee27fd9adebab32041f755214dbc6bffa90cc0225b39da2e5c2d3b90600090a250565b610bda33610a14565b610bf65760405162461bcd60e51b81526004016102b69061178b565b81610c435760405162461bcd60e51b815260206004820181905260248201527f50726f78793a205f73656c6563746f727327732073697a65206973207a65726f60448201526064016102b6565b6001600160a01b03811660009081526002602052604090205460ff16610cab5760405162461bcd60e51b815260206004820152601860248201527f50726f78793a205f696d70206973206e6f7420616c697665000000000000000060448201526064016102b6565b60005b82811015610e2d57816001600160a01b031660036000868685818110610cd657610cd66117cd565b9050602002016020810190610ceb91906115de565b6001600160e01b03191681526020810191909152604001600020546001600160a01b031603610d5c5760405162461bcd60e51b815260206004820152601d60248201527f4c69717569646974795661756c7450726f78793a2073616d6520696d7000000060448201526064016102b6565b8160036000868685818110610d7357610d736117cd565b9050602002016020810190610d8891906115de565b6001600160e01b0319168152602081019190915260400160002080546001600160a01b0319166001600160a01b039283161790558216848483818110610dd057610dd06117cd565b9050602002016020810190610de591906115de565b6001600160e01b0319167f14ebc1c32aa68f4d766e89f3e546cee249f7df25183fc10ab1568d91c2ce9b7b60405160405180910390a380610e25816117f9565b915050610cae565b50505050565b905090565b610e4133610a14565b610e5d5760405162461bcd60e51b81526004016102b69061178b565b610abf8282611335565b610e7033610a14565b610e8c5760405162461bcd60e51b81526004016102b69061178b565b610a11600082610a20565b610ea033610a14565b610ebc5760405162461bcd60e51b81526004016102b69061178b565b610ec7600033610a45565b565b610ed233610a14565b610eee5760405162461bcd60e51b81526004016102b69061178b565b6001600160a01b038116610f445760405162461bcd60e51b815260206004820152601860248201527f41636365737369626c653a207a65726f2061646472657373000000000000000060448201526064016102b6565b6001600160a01b0381163303610f955760405162461bcd60e51b815260206004820152601660248201527520b1b1b2b9b9b4b136329d1039b0b6b29030b236b4b760511b60448201526064016102b6565b610fa0600082610a20565b610a11600033610a45565b610fb433610a14565b610fd05760405162461bcd60e51b81526004016102b69061178b565b6000805460ff1916911515919091179055565b610fec33610a14565b6110085760405162461bcd60e51b81526004016102b69061178b565b6109cb8383836112aa565b6000818152600160205260408120546001600160a01b03166109db565b6001600160e01b031981166000908152600360205260408120546001600160a01b031661107e575050600080526001602052600080516020611936833981519152546001600160a01b031690565b6001600160e01b031982166000908152600360209081526040808320546001600160a01b03168352600290915290205460ff16156110dc57506001600160e01b0319166000908152600360205260409020546001600160a01b031690565b5050600080526001602052600080516020611936833981519152546001600160a01b031690565b919050565b6000610e3381335b60009182526005602090815260408084206001600160a01b0393909316845291905290205460ff1690565b600082815260056020526040902060010154611156816111b3565b6109cb8383611243565b61116933610a14565b6111855760405162461bcd60e51b81526004016102b69061178b565b610a1181610ec9565b60006001600160e01b03198216637965db0b60e01b14806109db57506109db82611394565b610a1181336113d0565b6111c78282611110565b610abf5760008281526005602090815260408083206001600160a01b03851684529091529020805460ff191660011790556111ff3390565b6001600160a01b0316816001600160a01b0316837f2f8788117e7eff1d82e926ec794901d17c78024a50270940304540a733656f0d60405160405180910390a45050565b61124d8282611110565b15610abf5760008281526005602090815260408083206001600160a01b0385168085529252808320805460ff1916905551339285917ff6391f5c32d9c69d2a47ea670b442974b53935d1edc7fd64eb21e047a839171b9190a45050565b6001600160a01b0383163b6113015760405162461bcd60e51b815260206004820152601b60248201527f50726f78793a206e6f7420636f6e74726163742061646472657373000000000060448201526064016102b6565b801561132f57600082815260016020526040902080546001600160a01b0319166001600160a01b0385161790555b6109cb83825b6001600160a01b038216600081815260026020908152604091829020805460ff191685151590811790915591519182527f72558d9bfba4210f9ef095c782589484151f6d90f7a81bb3cb9b33efc695d324910160405180910390a25050565b60006301ffc9a760e01b6001600160e01b0319831614806109db5750506001600160e01b03191660009081526004602052604090205460ff1690565b6113da8282611110565b610abf576113e781611429565b6113f283602061143b565b604051602001611403929190611836565b60408051601f198184030181529082905262461bcd60e51b82526102b6916004016118ab565b60606109db6001600160a01b03831660145b6060600061144a8360026118de565b6114559060026118f5565b67ffffffffffffffff81111561146d5761146d611908565b6040519080825280601f01601f191660200182016040528015611497576020820181803683370190505b509050600360fc1b816000815181106114b2576114b26117cd565b60200101906001600160f81b031916908160001a905350600f60fb1b816001815181106114e1576114e16117cd565b60200101906001600160f81b031916908160001a90535060006115058460026118de565b6115109060016118f5565b90505b6001811115611588576f181899199a1a9b1b9c1cb0b131b232b360811b85600f1660108110611544576115446117cd565b1a60f81b82828151811061155a5761155a6117cd565b60200101906001600160f81b031916908160001a90535060049490941c936115818161191e565b9050611513565b5083156115d75760405162461bcd60e51b815260206004820181905260248201527f537472696e67733a20686578206c656e67746820696e73756666696369656e7460448201526064016102b6565b9392505050565b6000602082840312156115f057600080fd5b81356001600160e01b0319811681146115d757600080fd5b80356001600160a01b038116811461110357600080fd5b60006020828403121561163157600080fd5b6115d782611608565b60006020828403121561164c57600080fd5b5035919050565b6000806040838503121561166657600080fd5b8235915061167660208401611608565b90509250929050565b60008060006040848603121561169457600080fd5b833567ffffffffffffffff808211156116ac57600080fd5b818601915086601f8301126116c057600080fd5b8135818111156116cf57600080fd5b8760208260051b85010111156116e457600080fd5b6020928301955093506116fa9186019050611608565b90509250925092565b8035801515811461110357600080fd5b6000806040838503121561172657600080fd5b61172f83611608565b915061167660208401611703565b60006020828403121561174f57600080fd5b6115d782611703565b60008060006060848603121561176d57600080fd5b61177684611608565b9250602084013591506116fa60408501611703565b60208082526022908201527f41636365737369626c653a2043616c6c6572206973206e6f7420616e2061646d60408201526134b760f11b606082015260800190565b634e487b7160e01b600052603260045260246000fd5b634e487b7160e01b600052601160045260246000fd5b60006001820161180b5761180b6117e3565b5060010190565b60005b8381101561182d578181015183820152602001611815565b50506000910152565b7f416363657373436f6e74726f6c3a206163636f756e742000000000000000000081526000835161186e816017850160208801611812565b7001034b99036b4b9b9b4b733903937b6329607d1b601791840191820152835161189f816028840160208801611812565b01602801949350505050565b60208152600082518060208401526118ca816040850160208701611812565b601f01601f19169190910160400192915050565b80820281158282048414176109db576109db6117e3565b808201808211156109db576109db6117e3565b634e487b7160e01b600052604160045260246000fd5b60008161192d5761192d6117e3565b50600019019056fea6eef7e35abe7026729641147f7915573c7e97b47efa546f5f6e3230263bcb49a164736f6c6343000813000a",
  "linkReferences": {},
  "deployedLinkReferences": {}
}