{
  "_format": "hh-sol-artifact-1",
  "contractName": "Layer2ManagerProxy",
  "sourceName": "contracts/layer2/Layer2ManagerProxy.sol",
  "abi": [
    {
      "anonymous": false,
      "inputs": [
        {
          "indexed": true,
          "internalType": "bytes32",
          "name": "role",
          "type": "bytes32"
        },
        {
          "indexed": true,
          "internalType": "bytes32",
          "name": "previousAdminRole",
          "type": "bytes32"
        },
        {
          "indexed": true,
          "internalType": "bytes32",
          "name": "newAdminRole",
          "type": "bytes32"
        }
      ],
      "name": "RoleAdminChanged",
      "type": "event"
    },
    {
      "anonymous": false,
      "inputs": [
        {
          "indexed": true,
          "internalType": "bytes32",
          "name": "role",
          "type": "bytes32"
        },
        {
          "indexed": true,
          "internalType": "address",
          "name": "account",
          "type": "address"
        },
        {
          "indexed": true,
          "internalType": "address",
          "name": "sender",
          "type": "address"
        }
      ],
      "name": "RoleGranted",
      "type": "event"
    },
    {
      "anonymous": false,
      "inputs": [
        {
          "indexed": true,
          "internalType": "bytes32",
          "name": "role",
          "type": "bytes32"
        },
        {
          "indexed": true,
          "internalType": "address",
          "name": "account",
          "type": "address"
        },
        {
          "indexed": true,
          "internalType": "address",
          "name": "sender",
          "type": "address"
        }
      ],
      "name": "RoleRevoked",
      "type": "event"
    },
    {
      "anonymous": false,
      "inputs": [
        {
          "indexed": true,
          "internalType": "address",
          "name": "impl",
          "type": "address"
        },
        {
          "indexed": false,
          "internalType": "bool",
          "name": "alive",
          "type": "bool"
        }
      ],
      "name": "SetAliveImplementation",
      "type": "event"
    },
    {
      "anonymous": false,
      "inputs": [
        {
          "indexed": true,
          "internalType": "bytes4",
          "name": "selector",
          "type": "bytes4"
        },
        {
          "indexed": true,
          "internalType": "address",
          "name": "impl",
          "type": "address"
        }
      ],
      "name": "SetSelectorImplementation",
      "type": "event"
    },
    {
      "anonymous": false,
      "inputs": [
        {
          "indexed": true,
          "internalType": "address",
          "name": "implementation",
          "type": "address"
        }
      ],
      "name": "Upgraded",
      "type": "event"
    },
    {
      "stateMutability": "payable",
      "type": "fallback"
    },
    {
      "inputs": [],
      "name": "DEFAULT_ADMIN_ROLE",
      "outputs": [
        {
          "internalType": "bytes32",
          "name": "",
          "type": "bytes32"
        }
      ],
      "stateMutability": "view",
      "type": "function"
    },
    {
      "inputs": [],
      "name": "MINTER_ROLE",
      "outputs": [
        {
          "internalType": "bytes32",
          "name": "",
          "type": "bytes32"
        }
      ],
      "stateMutability": "view",
      "type": "function"
    },
    {
      "inputs": [
        {
          "internalType": "address",
          "name": "account",
          "type": "address"
        }
      ],
      "name": "addAdmin",
      "outputs": [],
      "stateMutability": "nonpayable",
      "type": "function"
    },
    {
      "inputs": [
        {
          "internalType": "address",
          "name": "",
          "type": "address"
        }
      ],
      "name": "aliveImplementation",
      "outputs": [
        {
          "internalType": "bool",
          "name": "",
          "type": "bool"
        }
      ],
      "stateMutability": "view",
      "type": "function"
    },
    {
      "inputs": [],
      "name": "dao",
      "outputs": [
        {
          "internalType": "address",
          "name": "",
          "type": "address"
        }
      ],
      "stateMutability": "view",
      "type": "function"
    },
    {
      "inputs": [],
      "name": "depositManager",
      "outputs": [
        {
          "internalType": "address",
          "name": "",
          "type": "address"
        }
      ],
      "stateMutability": "view",
      "type": "function"
    },
    {
      "inputs": [
        {
          "internalType": "bytes32",
          "name": "role",
          "type": "bytes32"
        }
      ],
      "name": "getRoleAdmin",
      "outputs": [
        {
          "internalType": "bytes32",
          "name": "",
          "type": "bytes32"
        }
      ],
      "stateMutability": "view",
      "type": "function"
    },
    {
      "inputs": [
        {
          "internalType": "bytes4",
          "name": "_selector",
          "type": "bytes4"
        }
      ],
      "name": "getSelectorImplementation2",
      "outputs": [
        {
          "internalType": "address",
          "name": "impl",
          "type": "address"
        }
      ],
      "stateMutability": "view",
      "type": "function"
    },
    {
      "inputs": [
        {
          "internalType": "bytes32",
          "name": "role",
          "type": "bytes32"
        },
        {
          "internalType": "address",
          "name": "account",
          "type": "address"
        }
      ],
      "name": "grantRole",
      "outputs": [],
      "stateMutability": "nonpayable",
      "type": "function"
    },
    {
      "inputs": [
        {
          "internalType": "bytes32",
          "name": "role",
          "type": "bytes32"
        },
        {
          "internalType": "address",
          "name": "account",
          "type": "address"
        }
      ],
      "name": "hasRole",
      "outputs": [
        {
          "internalType": "bool",
          "name": "",
          "type": "bool"
        }
      ],
      "stateMutability": "view",
      "type": "function"
    },
    {
      "inputs": [],
      "name": "implementation",
      "outputs": [
        {
          "internalType": "address",
          "name": "",
          "type": "address"
        }
      ],
      "stateMutability": "view",
      "type": "function"
    },
    {
      "inputs": [
        {
          "internalType": "uint256",
          "name": "_index",
          "type": "uint256"
        }
      ],
      "name": "implementation2",
      "outputs": [
        {
          "internalType": "address",
          "name": "",
          "type": "address"
        }
      ],
      "stateMutability": "view",
      "type": "function"
    },
    {
      "inputs": [
        {
          "internalType": "address",
          "name": "account",
          "type": "address"
        }
      ],
      "name": "isAdmin",
      "outputs": [
        {
          "internalType": "bool",
          "name": "",
          "type": "bool"
        }
      ],
      "stateMutability": "view",
      "type": "function"
    },
    {
      "inputs": [],
      "name": "isOwner",
      "outputs": [
        {
          "internalType": "bool",
          "name": "",
          "type": "bool"
        }
      ],
      "stateMutability": "view",
      "type": "function"
    },
    {
      "inputs": [],
      "name": "l2Register",
      "outputs": [
        {
          "internalType": "address",
          "name": "",
          "type": "address"
        }
      ],
      "stateMutability": "view",
      "type": "function"
    },
    {
      "inputs": [],
      "name": "minimumInitialDepositAmount",
      "outputs": [
        {
          "internalType": "uint256",
          "name": "",
          "type": "uint256"
        }
      ],
      "stateMutability": "view",
      "type": "function"
    },
    {
      "inputs": [],
      "name": "operatorFactory",
      "outputs": [
        {
          "internalType": "address",
          "name": "",
          "type": "address"
        }
      ],
      "stateMutability": "view",
      "type": "function"
    },
    {
      "inputs": [
        {
          "internalType": "address",
          "name": "",
          "type": "address"
        }
      ],
      "name": "operatorInfo",
      "outputs": [
        {
          "internalType": "address",
          "name": "systemConfig",
          "type": "address"
        },
        {
          "internalType": "address",
          "name": "layer2Candidate",
          "type": "address"
        }
      ],
      "stateMutability": "view",
      "type": "function"
    },
    {
      "inputs": [],
      "name": "pauseProxy",
      "outputs": [
        {
          "internalType": "bool",
          "name": "",
          "type": "bool"
        }
      ],
      "stateMutability": "view",
      "type": "function"
    },
    {
      "inputs": [
        {
          "internalType": "uint256",
          "name": "",
          "type": "uint256"
        }
      ],
      "name": "proxyImplementation",
      "outputs": [
        {
          "internalType": "address",
          "name": "",
          "type": "address"
        }
      ],
      "stateMutability": "view",
      "type": "function"
    },
    {
      "inputs": [
        {
          "internalType": "address",
          "name": "account",
          "type": "address"
        }
      ],
      "name": "removeAdmin",
      "outputs": [],
      "stateMutability": "nonpayable",
      "type": "function"
    },
    {
      "inputs": [],
      "name": "renounceOwnership",
      "outputs": [],
      "stateMutability": "nonpayable",
      "type": "function"
    },
    {
      "inputs": [
        {
          "internalType": "bytes32",
          "name": "role",
          "type": "bytes32"
        },
        {
          "internalType": "address",
          "name": "account",
          "type": "address"
        }
      ],
      "name": "renounceRole",
      "outputs": [],
      "stateMutability": "nonpayable",
      "type": "function"
    },
    {
      "inputs": [
        {
          "internalType": "bytes32",
          "name": "role",
          "type": "bytes32"
        },
        {
          "internalType": "address",
          "name": "account",
          "type": "address"
        }
      ],
      "name": "revokeRole",
      "outputs": [],
      "stateMutability": "nonpayable",
      "type": "function"
    },
    {
      "inputs": [],
      "name": "seigManager",
      "outputs": [
        {
          "internalType": "address",
          "name": "",
          "type": "address"
        }
      ],
      "stateMutability": "view",
      "type": "function"
    },
    {
      "inputs": [
        {
          "internalType": "bytes4",
          "name": "",
          "type": "bytes4"
        }
      ],
      "name": "selectorImplementation",
      "outputs": [
        {
          "internalType": "address",
          "name": "",
          "type": "address"
        }
      ],
      "stateMutability": "view",
      "type": "function"
    },
    {
      "inputs": [
        {
          "internalType": "address",
          "name": "newImplementation",
          "type": "address"
        },
        {
          "internalType": "bool",
          "name": "_alive",
          "type": "bool"
        }
      ],
      "name": "setAliveImplementation2",
      "outputs": [],
      "stateMutability": "nonpayable",
      "type": "function"
    },
    {
      "inputs": [
        {
          "internalType": "address",
          "name": "newImplementation",
          "type": "address"
        },
        {
          "internalType": "uint256",
          "name": "_index",
          "type": "uint256"
        },
        {
          "internalType": "bool",
          "name": "_alive",
          "type": "bool"
        }
      ],
      "name": "setImplementation2",
      "outputs": [],
      "stateMutability": "nonpayable",
      "type": "function"
    },
    {
      "inputs": [
        {
          "internalType": "bool",
          "name": "_pause",
          "type": "bool"
        }
      ],
      "name": "setProxyPause",
      "outputs": [],
      "stateMutability": "nonpayable",
      "type": "function"
    },
    {
      "inputs": [
        {
          "internalType": "bytes4[]",
          "name": "_selectors",
          "type": "bytes4[]"
        },
        {
          "internalType": "address",
          "name": "_imp",
          "type": "address"
        }
      ],
      "name": "setSelectorImplementations2",
      "outputs": [],
      "stateMutability": "nonpayable",
      "type": "function"
    },
    {
      "inputs": [
        {
          "internalType": "bytes4",
          "name": "interfaceId",
          "type": "bytes4"
        }
      ],
      "name": "supportsInterface",
      "outputs": [
        {
          "internalType": "bool",
          "name": "",
          "type": "bool"
        }
      ],
      "stateMutability": "view",
      "type": "function"
    },
    {
      "inputs": [],
      "name": "swapProxy",
      "outputs": [
        {
          "internalType": "address",
          "name": "",
          "type": "address"
        }
      ],
      "stateMutability": "view",
      "type": "function"
    },
    {
      "inputs": [
        {
          "internalType": "address",
          "name": "",
          "type": "address"
        }
      ],
      "name": "systemConfigInfo",
      "outputs": [
        {
          "internalType": "uint8",
          "name": "stateIssue",
          "type": "uint8"
        },
        {
          "internalType": "address",
          "name": "operator",
          "type": "address"
        }
      ],
      "stateMutability": "view",
      "type": "function"
    },
    {
      "inputs": [],
      "name": "ton",
      "outputs": [
        {
          "internalType": "address",
          "name": "",
          "type": "address"
        }
      ],
      "stateMutability": "view",
      "type": "function"
    },
    {
      "inputs": [
        {
          "internalType": "address",
          "name": "newAdmin",
          "type": "address"
        }
      ],
      "name": "transferAdmin",
      "outputs": [],
      "stateMutability": "nonpayable",
      "type": "function"
    },
    {
      "inputs": [
        {
          "internalType": "address",
          "name": "newAdmin",
          "type": "address"
        }
      ],
      "name": "transferOwnership",
      "outputs": [],
      "stateMutability": "nonpayable",
      "type": "function"
    },
    {
      "inputs": [
        {
          "internalType": "address",
          "name": "impl",
          "type": "address"
        }
      ],
      "name": "upgradeTo",
      "outputs": [],
      "stateMutability": "nonpayable",
      "type": "function"
    },
    {
      "inputs": [],
      "name": "wton",
      "outputs": [
        {
          "internalType": "address",
          "name": "",
          "type": "address"
        }
      ],
      "stateMutability": "view",
      "type": "function"
    },
    {
      "stateMutability": "payable",
      "type": "receive"
    }
  ],
  "bytecode": "0x6080806040523461009e573360009081527f05b8ccbb9d4d8fb16ea74ce3c29a41f1b461fbdaff4714a0d9a8eb05499746bc602052604081205460ff161561004f575b5061198590816100a48239f35b80805260056020526040812033825260205260408120600160ff19825416179055339033907f2f8788117e7eff1d82e926ec794901d17c78024a50270940304540a733656f0d8180a438610042565b600080fdfe60806040526004361015610018575b366117d157611795565b60003560e01c806301ffc9a7146102735780630eaad6981461026e5780631785f53c14610269578063248a9ca31461026457806324d7806c1461025f5780632f2ff15d1461025a57806336568abe146102555780633659cfe6146102505780634162169f1461024b578063472d1f71146102465780634a5df50f1461024157806350c246d61461023c57806350d2a276146102375780635290c24814610232578063550d01a31461022d5780635c60da1b146102285780635cc797d81461022357806363a8fd891461021e5780636c7ac9d8146102195780636ec4be90146102145780636fb7f5581461020f578063704802751461020a578063715018a61461020557806375829def146102005780637cb00d25146101fb5780637cd5f663146101f65780638b8f4a65146101d85780638d4fdb40146101f15780638d62d949146101ec5780638f32d59b146101e757806391d14854146101e2578063a217fddf146101dd578063b911135f146101d8578063cc48b947146101d3578063d5391393146101ce578063d547741f146101c9578063e9d6ec4f146101c45763f2fde38b0361000e57610fbd565b610f9f565b610f60565b610f25565b610efc565b610dcd565b610ee0565b610e9a565b610e63565b610e3a565b610e01565b610cf3565b610c9b565b610bd4565b610bae565b610ac2565b610a99565b610a70565b610a47565b610a24565b6109cd565b610999565b61095a565b610931565b6108eb565b6108a3565b6106bb565b610692565b610669565b610589565b6104f7565b61042e565b6103de565b6103af565b61037b565b610334565b61028f565b6001600160e01b031981160361028a57565b600080fd5b3461028a57602036600319011261028a576004356102ac81610278565b6001600160e01b031916637965db0b60e01b811480156102d4575b6020906040519015158152f35b506301ffc9a760e01b811480156102ef575b602091506102c7565b506000526004602052602060ff604060002054166102e6565b600435906001600160a01b038216820361028a57565b602435906001600160a01b038216820361028a57565b3461028a57602036600319011261028a5760406001600160a01b0380610358610308565b16600052600f60205281600020549082519160ff8116835260081c166020820152f35b3461028a57602036600319011261028a576103ad610397610308565b6103a86103a333610fde565b611558565b6112b0565b005b3461028a57602036600319011261028a5760043560005260056020526020600160406000200154604051908152f35b3461028a57602036600319011261028a57602060ff6104226103fe610308565b600080526005845260406000209060018060a01b0316600052602052604060002090565b54166040519015158152f35b3461028a57604036600319011261028a5760043561044a61031e565b600091808352600560205261046560016040852001546110cc565b8083526005602090815260408085206001600160a01b0385166000908152925290205460ff1615610494578280f35b8083526005602090815260408085206001600160a01b038516600090815292529020805460ff1916600117905533916001600160a01b0316907f2f8788117e7eff1d82e926ec794901d17c78024a50270940304540a733656f0d8480a438808280f35b3461028a57604036600319011261028a5761051061031e565b336001600160a01b0382160361052c576103ad9060043561134d565b60405162461bcd60e51b815260206004820152602f60248201527f416363657373436f6e74726f6c3a2063616e206f6e6c792072656e6f756e636560448201526e103937b632b9903337b91039b2b63360891b6064820152608490fd5b3461028a57602036600319011261028a576105a2610308565b336000908152600080516020611959833981519152602052604081209091906105d09060ff905b5416611558565b6001600160a01b038116908115610634578280526001602052604083205461060d9190610608906001600160a01b03168414156115af565b61186c565b7fbc7cd75a20ee27fd9adebab32041f755214dbc6bffa90cc0225b39da2e5c2d3b8280a280f35b60405162461bcd60e51b815260206004820152600d60248201526c696e707574206973207a65726f60981b6044820152606490fd5b3461028a57600036600319011261028a57600a546040516001600160a01b039091168152602090f35b3461028a57600036600319011261028a576006546040516001600160a01b039091168152602090f35b3461028a57604036600319011261028a5767ffffffffffffffff60043581811161028a573660238201121561028a57806004013591821161028a576024810190602436918460051b01011161028a5761071261031e565b3360009081526000805160206119598339815191526020526040812090939061073d9060ff906105c9565b801561085f5761077361076e61076784959460018060a01b03166000526002602052604060002090565b5460ff1690565b6115e7565b6001600160a01b03928084169290855b83811061078e578680f35b806107de86886107d66107c96107b06107ab61085a988c8c611642565b611652565b63ffffffff60e01b166000526003602052604060002090565b546001600160a01b031690565b16141561165c565b610812836107f36107b06107ab858a8a611642565b80546001600160a01b0319166001600160a01b03909216919091179055565b856108316108246107ab848989611642565b6001600160e01b03191690565b7f14ebc1c32aa68f4d766e89f3e546cee249f7df25183fc10ab1568d91c2ce9b7b8a80a3611633565b610783565b606460405162461bcd60e51b815260206004820152602060248201527f50726f78793a205f73656c6563746f727327732073697a65206973207a65726f6044820152fd5b3461028a57602036600319011261028a5760406001600160a01b03806108c7610308565b16600052601060205281600020906001818354169201541682519182526020820152f35b3461028a57602036600319011261028a5760043561090881610278565b63ffffffff60e01b166000526003602052602060018060a01b0360406000205416604051908152f35b3461028a57600036600319011261028a576007546040516001600160a01b039091168152602090f35b3461028a57602036600319011261028a576001600160a01b0361097b610308565b166000526002602052602060ff604060002054166040519015158152f35b3461028a576000806003193601126109ca5780806020925260018252604060018060a01b0391205416604051908152f35b80fd5b3461028a57604036600319011261028a576109e6610308565b602435801515810361028a57336000908152600080516020611959833981519152602052604090206103ad9290610a1f9060ff906105c9565b611904565b3461028a57600036600319011261028a57602060ff600054166040519015158152f35b3461028a57600036600319011261028a57600b546040516001600160a01b039091168152602090f35b3461028a57600036600319011261028a57600d546040516001600160a01b039091168152602090f35b3461028a57600036600319011261028a57600c546040516001600160a01b039091168152602090f35b3461028a57602036600319011261028a57610adb610308565b610ae76103a333610fde565b600080805260056020527f05b8ccbb9d4d8fb16ea74ce3c29a41f1b461fbdaff4714a0d9a8eb05499746bd54909190610b1f906110cc565b8180526005602090815260408084206001600160a01b0384166000908152925290205460ff1615610b4e575080f35b8180526005602090815260408084206001600160a01b038416600090815292529020805460ff1916600117905533906001600160a01b0316827f2f8788117e7eff1d82e926ec794901d17c78024a50270940304540a733656f0d8180a480f35b3461028a57600036600319011261028a57610bcb6103a333610fde565b6103ad336112b0565b3461028a57602036600319011261028a57610bed610308565b610bf96103a333610fde565b6001600160a01b0381168015610c56573314610c1857610bcb90611009565b60405162461bcd60e51b815260206004820152601660248201527520b1b1b2b9b9b4b136329d1039b0b6b29030b236b4b760511b6044820152606490fd5b60405162461bcd60e51b815260206004820152601860248201527f41636365737369626c653a207a65726f206164647265737300000000000000006044820152606490fd5b3461028a57602036600319011261028a5760043580151580910361028a5733600090815260008051602061195983398151915260205260408120909190610ce49060ff906105c9565b60ff8019835416911617815580f35b3461028a57606036600319011261028a57610d0c610308565b60443590811515820361028a5733600090815260008051602061195983398151915260205260408120909290610d449060ff906105c9565b813b15610d8857610d599181610d5c57611904565b80f35b602435845260016020526040842080546001600160a01b0319166001600160a01b038316179055611904565b60405162461bcd60e51b815260206004820152601b60248201527f50726f78793a206e6f7420636f6e7472616374206164647265737300000000006044820152606490fd5b3461028a57602036600319011261028a576004356000526001602052602060018060a01b0360406000205416604051908152f35b3461028a57602036600319011261028a576020610e28600435610e2381610278565b6116a8565b6040516001600160a01b039091168152f35b3461028a57600036600319011261028a576009546040516001600160a01b039091168152602090f35b3461028a576000806003193601126109ca57808052600560209081526040918290203360009081529082529190912060ff90610422565b3461028a57604036600319011261028a57602060ff610422610eba61031e565b6004356000526005845260406000209060018060a01b0316600052602052604060002090565b3461028a57600036600319011261028a57602060405160008152f35b3461028a57600036600319011261028a576008546040516001600160a01b039091168152602090f35b3461028a57600036600319011261028a5760206040517ff0887ba65ee2024ea881d91b74c2450ef19e1557f03bed3ea9f16b037cbe2dc98152f35b3461028a57604036600319011261028a576103ad600435610f7f61031e565b90806000526005602052610f9a6001604060002001546110cc565b61134d565b3461028a57600036600319011261028a576020600e54604051908152f35b3461028a57602036600319011261028a57610fd6610308565b610bed6103a3335b6001600160a01b03166000908152600080516020611959833981519152602052604090205460ff1690565b600080805260056020527f05b8ccbb9d4d8fb16ea74ce3c29a41f1b461fbdaff4714a0d9a8eb05499746bd5461103e906110cc565b8080526005602090815260408083206001600160a01b0385166000908152925290205460ff161561106d575050565b8080526005602090815260408083206001600160a01b038516600090815292529020805460ff1916600117905533916001600160a01b0316907f2f8788117e7eff1d82e926ec794901d17c78024a50270940304540a733656f0d8180a4565b600081815260056020908152604080832033845290915290205460ff16156110f15750565b33906110fb6113f6565b91603061110784611439565b53607861111384611446565b5360295b600181116111c6576111c261117f6111aa8661119c61113f8861113a8915611479565b6114c4565b611179604051958694611179602087016017907f416363657373436f6e74726f6c3a206163636f756e742000000000000000000081520190565b90611230565b7001034b99036b4b9b9b4b733903937b6329607d1b815260110190565b03601f19810183528261125d565b60405162461bcd60e51b815291829160048301611284565b0390fd5b90600f811690601082101561120857611203916f181899199a1a9b1b9c1cb0b131b232b360811b901a6111f98487611456565b5360041c91611467565b611117565b611423565b60005b8381106112205750506000910152565b8181015183820152602001611210565b906112436020928281519485920161120d565b0190565b634e487b7160e01b600052604160045260246000fd5b90601f8019910116810190811067ffffffffffffffff82111761127f57604052565b611247565b604091602082526112a4815180928160208601526020868601910161120d565b601f01601f1916010190565b6001600160a01b03811633810361052c576001600160a01b0382166000908152600080516020611959833981519152602052604081205490929060ff166112f657505050565b61131d908380526005602052604084209060018060a01b0316600052602052604060002090565b805460ff1916905533917ff6391f5c32d9c69d2a47ea670b442974b53935d1edc7fd64eb21e047a839171b8180a4565b600090808252600560205260ff61137984604085209060018060a01b0316600052602052604060002090565b541661138457505050565b8082526005602090815260408084206001600160a01b038616600090815292529020805460ff1916905533926001600160a01b0316917ff6391f5c32d9c69d2a47ea670b442974b53935d1edc7fd64eb21e047a839171b9080a4565b634e487b7160e01b600052601160045260246000fd5b604051906060820182811067ffffffffffffffff82111761127f57604052602a8252604082602036910137565b634e487b7160e01b600052603260045260246000fd5b8051156112085760200190565b8051600110156112085760210190565b908151811015611208570160200190565b8015611474576000190190565b6113e0565b1561148057565b606460405162461bcd60e51b815260206004820152602060248201527f537472696e67733a20686578206c656e67746820696e73756666696369656e746044820152fd5b604051906080820182811067ffffffffffffffff82111761127f5760405260428252606036602084013760306114f983611439565b53607861150583611446565b536041905b600182116115205761151d915015611479565b90565b600f811690601082101561120857611552916f181899199a1a9b1b9c1cb0b131b232b360811b901a6111f98486611456565b9061150a565b1561155f57565b60405162461bcd60e51b815260206004820152602260248201527f41636365737369626c653a2043616c6c6572206973206e6f7420616e2061646d60448201526134b760f11b6064820152608490fd5b156115b657565b60405162461bcd60e51b815260206004820152600960248201526839b0b6b29030b2323960b91b6044820152606490fd5b156115ee57565b60405162461bcd60e51b815260206004820152601860248201527f50726f78793a205f696d70206973206e6f7420616c69766500000000000000006044820152606490fd5b60001981146114745760010190565b91908110156112085760051b0190565b3561151d81610278565b1561166357565b60405162461bcd60e51b815260206004820152601d60248201527f4c69717569646974795661756c7450726f78793a2073616d6520696d700000006044820152606490fd5b6001600160e01b031981166000908152600360205260409020546001600160a01b039190821661170257506000805260016020527fa6eef7e35abe7026729641147f7915573c7e97b47efa546f5f6e3230263bcb49541690565b60ff611741836117258463ffffffff60e01b166000526003602052604060002090565b54166001600160a01b0316600090815260026020526040902090565b541615611765576001600160e01b0319166000908152600360205260409020541690565b506000805260016020527fa6eef7e35abe7026729641147f7915573c7e97b47efa546f5f6e3230263bcb49541690565b60405162461bcd60e51b815260206004820152601460248201527331b0b73737ba103932b1b2b4bb329022ba3432b960611b6044820152606490fd5b60006117e781356001600160e01b0319166116a8565b6001600160a01b038116151580611860575b1561181b57818091368280378136915af43d82803e15611817573d90f35b3d90fd5b60405162461bcd60e51b815260206004820152601d60248201527f50726f78793a20696d706c204f522070726f78792069732066616c73650000006044820152606490fd5b5060ff825416156117f9565b803b15610d88576000805260016020527fa6eef7e35abe7026729641147f7915573c7e97b47efa546f5f6e3230263bcb4980546001600160a01b0319166001600160a01b03831617905560018060a01b03168060005260026020526040600020600160ff198254161790557f72558d9bfba4210f9ef095c782589484151f6d90f7a81bb3cb9b33efc695d324602060405160018152a2565b60207f72558d9bfba4210f9ef095c782589484151f6d90f7a81bb3cb9b33efc695d3249160018060a01b031692836000526002825260406000209015159060ff1981541660ff8316179055604051908152a256fe05b8ccbb9d4d8fb16ea74ce3c29a41f1b461fbdaff4714a0d9a8eb05499746bca164736f6c6343000812000a",
  "linkReferences": {},
  "deployedLinkReferences": {}
}