{
  "_format": "hh-sol-artifact-1",
  "contractName": "Candidate",
  "sourceName": "contracts/dao/Candidate.sol",
  "abi": [
    {
      "anonymous": false,
      "inputs": [
        {
          "indexed": true,
          "internalType": "bytes32",
          "name": "role",
          "type": "bytes32"
        },
        {
          "indexed": true,
          "internalType": "bytes32",
          "name": "previousAdminRole",
          "type": "bytes32"
        },
        {
          "indexed": true,
          "internalType": "bytes32",
          "name": "newAdminRole",
          "type": "bytes32"
        }
      ],
      "name": "RoleAdminChanged",
      "type": "event"
    },
    {
      "anonymous": false,
      "inputs": [
        {
          "indexed": true,
          "internalType": "bytes32",
          "name": "role",
          "type": "bytes32"
        },
        {
          "indexed": true,
          "internalType": "address",
          "name": "account",
          "type": "address"
        },
        {
          "indexed": true,
          "internalType": "address",
          "name": "sender",
          "type": "address"
        }
      ],
      "name": "RoleGranted",
      "type": "event"
    },
    {
      "anonymous": false,
      "inputs": [
        {
          "indexed": true,
          "internalType": "bytes32",
          "name": "role",
          "type": "bytes32"
        },
        {
          "indexed": true,
          "internalType": "address",
          "name": "account",
          "type": "address"
        },
        {
          "indexed": true,
          "internalType": "address",
          "name": "sender",
          "type": "address"
        }
      ],
      "name": "RoleRevoked",
      "type": "event"
    },
    {
      "anonymous": false,
      "inputs": [
        {
          "indexed": false,
          "internalType": "address",
          "name": "from",
          "type": "address"
        },
        {
          "indexed": false,
          "internalType": "address",
          "name": "to",
          "type": "address"
        },
        {
          "indexed": false,
          "internalType": "uint256",
          "name": "amount",
          "type": "uint256"
        }
      ],
      "name": "TransferCoinage",
      "type": "event"
    },
    {
      "inputs": [],
      "name": "DEFAULT_ADMIN_ROLE",
      "outputs": [
        {
          "internalType": "bytes32",
          "name": "",
          "type": "bytes32"
        }
      ],
      "stateMutability": "view",
      "type": "function"
    },
    {
      "inputs": [],
      "name": "MINTER_ROLE",
      "outputs": [
        {
          "internalType": "bytes32",
          "name": "",
          "type": "bytes32"
        }
      ],
      "stateMutability": "view",
      "type": "function"
    },
    {
      "inputs": [
        {
          "internalType": "address",
          "name": "account",
          "type": "address"
        }
      ],
      "name": "addAdmin",
      "outputs": [],
      "stateMutability": "nonpayable",
      "type": "function"
    },
    {
      "inputs": [
        {
          "internalType": "address",
          "name": "",
          "type": "address"
        }
      ],
      "name": "aliveImplementation",
      "outputs": [
        {
          "internalType": "bool",
          "name": "",
          "type": "bool"
        }
      ],
      "stateMutability": "view",
      "type": "function"
    },
    {
      "inputs": [],
      "name": "candidate",
      "outputs": [
        {
          "internalType": "address",
          "name": "",
          "type": "address"
        }
      ],
      "stateMutability": "view",
      "type": "function"
    },
    {
      "inputs": [
        {
          "internalType": "uint256",
          "name": "_agendaID",
          "type": "uint256"
        },
        {
          "internalType": "uint256",
          "name": "_vote",
          "type": "uint256"
        },
        {
          "internalType": "string",
          "name": "_comment",
          "type": "string"
        }
      ],
      "name": "castVote",
      "outputs": [],
      "stateMutability": "nonpayable",
      "type": "function"
    },
    {
      "inputs": [
        {
          "internalType": "uint256",
          "name": "_memberIndex",
          "type": "uint256"
        }
      ],
      "name": "changeMember",
      "outputs": [
        {
          "internalType": "bool",
          "name": "",
          "type": "bool"
        }
      ],
      "stateMutability": "nonpayable",
      "type": "function"
    },
    {
      "inputs": [
        {
          "internalType": "address",
          "name": "_operator",
          "type": "address"
        }
      ],
      "name": "changeOperator",
      "outputs": [],
      "stateMutability": "nonpayable",
      "type": "function"
    },
    {
      "inputs": [],
      "name": "claimActivityReward",
      "outputs": [],
      "stateMutability": "nonpayable",
      "type": "function"
    },
    {
      "inputs": [],
      "name": "committee",
      "outputs": [
        {
          "internalType": "address",
          "name": "",
          "type": "address"
        }
      ],
      "stateMutability": "view",
      "type": "function"
    },
    {
      "inputs": [],
      "name": "currentFork",
      "outputs": [
        {
          "internalType": "uint256",
          "name": "",
          "type": "uint256"
        }
      ],
      "stateMutability": "pure",
      "type": "function"
    },
    {
      "inputs": [
        {
          "internalType": "bytes32",
          "name": "role",
          "type": "bytes32"
        }
      ],
      "name": "getRoleAdmin",
      "outputs": [
        {
          "internalType": "bytes32",
          "name": "",
          "type": "bytes32"
        }
      ],
      "stateMutability": "view",
      "type": "function"
    },
    {
      "inputs": [
        {
          "internalType": "bytes32",
          "name": "role",
          "type": "bytes32"
        },
        {
          "internalType": "address",
          "name": "account",
          "type": "address"
        }
      ],
      "name": "grantRole",
      "outputs": [],
      "stateMutability": "nonpayable",
      "type": "function"
    },
    {
      "inputs": [
        {
          "internalType": "bytes32",
          "name": "role",
          "type": "bytes32"
        },
        {
          "internalType": "address",
          "name": "account",
          "type": "address"
        }
      ],
      "name": "hasRole",
      "outputs": [
        {
          "internalType": "bool",
          "name": "",
          "type": "bool"
        }
      ],
      "stateMutability": "view",
      "type": "function"
    },
    {
      "inputs": [
        {
          "internalType": "address",
          "name": "_candidate",
          "type": "address"
        },
        {
          "internalType": "bool",
          "name": "_isLayer2Candidate",
          "type": "bool"
        },
        {
          "internalType": "string",
          "name": "_memo",
          "type": "string"
        },
        {
          "internalType": "address",
          "name": "_committee",
          "type": "address"
        },
        {
          "internalType": "address",
          "name": "_seigManager",
          "type": "address"
        }
      ],
      "name": "initialize",
      "outputs": [],
      "stateMutability": "nonpayable",
      "type": "function"
    },
    {
      "inputs": [
        {
          "internalType": "address",
          "name": "account",
          "type": "address"
        }
      ],
      "name": "isAdmin",
      "outputs": [
        {
          "internalType": "bool",
          "name": "",
          "type": "bool"
        }
      ],
      "stateMutability": "view",
      "type": "function"
    },
    {
      "inputs": [],
      "name": "isCandidateContract",
      "outputs": [
        {
          "internalType": "bool",
          "name": "",
          "type": "bool"
        }
      ],
      "stateMutability": "pure",
      "type": "function"
    },
    {
      "inputs": [],
      "name": "isCandidateFwContract",
      "outputs": [
        {
          "internalType": "bool",
          "name": "",
          "type": "bool"
        }
      ],
      "stateMutability": "pure",
      "type": "function"
    },
    {
      "inputs": [],
      "name": "isLayer2",
      "outputs": [
        {
          "internalType": "bool",
          "name": "",
          "type": "bool"
        }
      ],
      "stateMutability": "pure",
      "type": "function"
    },
    {
      "inputs": [],
      "name": "isLayer2Candidate",
      "outputs": [
        {
          "internalType": "bool",
          "name": "",
          "type": "bool"
        }
      ],
      "stateMutability": "view",
      "type": "function"
    },
    {
      "inputs": [],
      "name": "isOwner",
      "outputs": [
        {
          "internalType": "bool",
          "name": "",
          "type": "bool"
        }
      ],
      "stateMutability": "view",
      "type": "function"
    },
    {
      "inputs": [
        {
          "internalType": "uint256",
          "name": "forkNumber",
          "type": "uint256"
        }
      ],
      "name": "lastEpoch",
      "outputs": [
        {
          "internalType": "uint256",
          "name": "",
          "type": "uint256"
        }
      ],
      "stateMutability": "pure",
      "type": "function"
    },
    {
      "inputs": [],
      "name": "memo",
      "outputs": [
        {
          "internalType": "string",
          "name": "",
          "type": "string"
        }
      ],
      "stateMutability": "view",
      "type": "function"
    },
    {
      "inputs": [],
      "name": "operator",
      "outputs": [
        {
          "internalType": "address",
          "name": "",
          "type": "address"
        }
      ],
      "stateMutability": "view",
      "type": "function"
    },
    {
      "inputs": [],
      "name": "pauseProxy",
      "outputs": [
        {
          "internalType": "bool",
          "name": "",
          "type": "bool"
        }
      ],
      "stateMutability": "view",
      "type": "function"
    },
    {
      "inputs": [
        {
          "internalType": "uint256",
          "name": "",
          "type": "uint256"
        }
      ],
      "name": "proxyImplementation",
      "outputs": [
        {
          "internalType": "address",
          "name": "",
          "type": "address"
        }
      ],
      "stateMutability": "view",
      "type": "function"
    },
    {
      "inputs": [
        {
          "internalType": "address",
          "name": "account",
          "type": "address"
        }
      ],
      "name": "removeAdmin",
      "outputs": [],
      "stateMutability": "nonpayable",
      "type": "function"
    },
    {
      "inputs": [],
      "name": "renounceOwnership",
      "outputs": [],
      "stateMutability": "nonpayable",
      "type": "function"
    },
    {
      "inputs": [
        {
          "internalType": "bytes32",
          "name": "role",
          "type": "bytes32"
        },
        {
          "internalType": "address",
          "name": "account",
          "type": "address"
        }
      ],
      "name": "renounceRole",
      "outputs": [],
      "stateMutability": "nonpayable",
      "type": "function"
    },
    {
      "inputs": [],
      "name": "retireMember",
      "outputs": [
        {
          "internalType": "bool",
          "name": "",
          "type": "bool"
        }
      ],
      "stateMutability": "nonpayable",
      "type": "function"
    },
    {
      "inputs": [
        {
          "internalType": "bytes32",
          "name": "role",
          "type": "bytes32"
        },
        {
          "internalType": "address",
          "name": "account",
          "type": "address"
        }
      ],
      "name": "revokeRole",
      "outputs": [],
      "stateMutability": "nonpayable",
      "type": "function"
    },
    {
      "inputs": [],
      "name": "seigManager",
      "outputs": [
        {
          "internalType": "address",
          "name": "",
          "type": "address"
        }
      ],
      "stateMutability": "view",
      "type": "function"
    },
    {
      "inputs": [
        {
          "internalType": "bytes4",
          "name": "",
          "type": "bytes4"
        }
      ],
      "name": "selectorImplementation",
      "outputs": [
        {
          "internalType": "address",
          "name": "",
          "type": "address"
        }
      ],
      "stateMutability": "view",
      "type": "function"
    },
    {
      "inputs": [
        {
          "internalType": "address",
          "name": "_committee",
          "type": "address"
        }
      ],
      "name": "setCommittee",
      "outputs": [],
      "stateMutability": "nonpayable",
      "type": "function"
    },
    {
      "inputs": [
        {
          "internalType": "string",
          "name": "_memo",
          "type": "string"
        }
      ],
      "name": "setMemo",
      "outputs": [],
      "stateMutability": "nonpayable",
      "type": "function"
    },
    {
      "inputs": [
        {
          "internalType": "address",
          "name": "_seigManager",
          "type": "address"
        }
      ],
      "name": "setSeigManager",
      "outputs": [],
      "stateMutability": "nonpayable",
      "type": "function"
    },
    {
      "inputs": [
        {
          "internalType": "address",
          "name": "_account",
          "type": "address"
        }
      ],
      "name": "stakedOf",
      "outputs": [
        {
          "internalType": "uint256",
          "name": "amount",
          "type": "uint256"
        }
      ],
      "stateMutability": "view",
      "type": "function"
    },
    {
      "inputs": [
        {
          "internalType": "bytes4",
          "name": "interfaceId",
          "type": "bytes4"
        }
      ],
      "name": "supportsInterface",
      "outputs": [
        {
          "internalType": "bool",
          "name": "",
          "type": "bool"
        }
      ],
      "stateMutability": "view",
      "type": "function"
    },
    {
      "inputs": [],
      "name": "totalStaked",
      "outputs": [
        {
          "internalType": "uint256",
          "name": "totalsupply",
          "type": "uint256"
        }
      ],
      "stateMutability": "view",
      "type": "function"
    },
    {
      "inputs": [
        {
          "internalType": "address",
          "name": "newAdmin",
          "type": "address"
        }
      ],
      "name": "transferAdmin",
      "outputs": [],
      "stateMutability": "nonpayable",
      "type": "function"
    },
    {
      "inputs": [
        {
          "internalType": "address",
          "name": "newAdmin",
          "type": "address"
        }
      ],
      "name": "transferOwnership",
      "outputs": [],
      "stateMutability": "nonpayable",
      "type": "function"
    },
    {
      "inputs": [],
      "name": "updateSeigniorage",
      "outputs": [
        {
          "internalType": "bool",
          "name": "",
          "type": "bool"
        }
      ],
      "stateMutability": "nonpayable",
      "type": "function"
    }
  ],
  "bytecode": "0x6080806040523461001657612061908161001c8239f35b600080fdfe608060408181526004908136101561001657600080fd5b600092833560e01c90816301ffc9a7146116665750806306394c9b1461164857806311e4c9141461162b57806311f19e04146115225780631785f53c146114f4578063183d2d1c146114d8578063248a9ca3146114ad57806324d7806c1461146757806324f99b1e1461132a57806325d60861146111fc5780632f2ff15d1461114e5780633007097014610e4457806336568abe14610db257806350d2a27614610d6e578063550d01a314610d30578063570ca73514610c1257806358c3b87014610c6157806363a8fd8914610c3f5780636c8381f814610c125780636fb7f55814610be95780637048027514610b30578063715018a614610b0a57806375829def14610aef578063764a78561461097d5780637657f20a1461093357806377ff21c414610665578063817b1cd2146108a5578063882eed2c14610665578381638bf7a3ab14610724575080638f32d59b146106ef57806391d14854146106a95780639b63826814610685578063a217fddf1461066a578063acb4c06114610665578063af500ba3146105c5578063b911135f14610592578063bddae40e1461052b57838163c4ef9c00146103f757508063d5391393146103bc578063d547741f14610382578063d864e740146103555763f2fde38b146101f657600080fd5b346103515760208060031936011261034d57610210611708565b61022161021c33611853565b611d4b565b61022d61021c33611853565b6001600160a01b031692831561030c578333146102d257508380526005815261025b60018386200154611890565b8380526005815281842083600052815260ff82600020541615610286575b8361028333611bbf565b80f35b838052600581528184206000848152915220805460ff191660011790553390827f2f8788117e7eff1d82e926ec794901d17c78024a50270940304540a733656f0d8180a4388080610279565b915162461bcd60e51b815291820152601660248201527520b1b1b2b9b9b4b136329d1039b0b6b29030b236b4b760511b6044820152606490fd5b915162461bcd60e51b815291820152601860248201527f41636365737369626c653a207a65726f206164647265737300000000000000006044820152606490fd5b8380fd5b8280fd5b83823461037e578160031936011261037e5760095490516001600160a01b039091168152602090f35b5080fd5b503461035157806003193601126103515761028391356103b760016103a561171e565b93838752600560205286200154611890565b611cae565b83823461037e578160031936011261037e57602090517ff0887ba65ee2024ea881d91b74c2450ef19e1557f03bed3ea9f16b037cbe2dc98152f35b9290503461052757826003193601126105275760075460ff81161561050757825163570ca73560e01b8152906001600160a01b039060209083908590829060081c85165afa9182156104fd579161045c916020949387926104ce575b50163314611ef6565b600954835162313be760ea1b8152948592918391906001600160a01b03165af19182156104c45760209392610495575b50519015158152f35b6104b6919250833d81116104bd575b6104ae818361178c565b810190611dee565b903861048c565b503d6104a4565b81513d85823e3d90fd5b6104ef919250853d81116104f6575b6104e7818361178c565b810190611ed7565b9038610453565b503d6104dd565b84513d87823e3d90fd5b602091906105229060081c6001600160a01b03163314611e65565b61045c565b5050fd5b83823461037e57602036600319011261037e5761056860ff61054b611708565b928480526005602052808520336000526020526000205416611d4b565b6001600160a01b031661057c811515611da2565b6001600160601b0360a01b600954161760095580f35b5090346103515760203660031901126103515735825260016020908152918190205490516001600160a01b039091168152f35b5082903461037e576020928360031936011261035157836105e4611708565b6001600160a01b0390602490826105f9611f61565b16865195869485936370a0823160e01b855216908301525afa92831561065a5792610626575b5051908152f35b9091508281813d8311610653575b61063e818361178c565b8101031261064e5751908361061f565b600080fd5b503d610634565b8251903d90823e3d90fd5b611837565b83823461037e578160031936011261037e5751908152602090f35b83823461037e578160031936011261037e5760209060ff6007541690519015158152f35b509034610351578160031936011261035157816020936106c761171e565b9235815260058552209060018060a01b0316600052825260ff81600020541690519015158152f35b83823461037e578160031936011261037e5780828060209452600584522033600052825260ff81600020541690519015158152f35b8084843461052757826003193601126105275760075460ff81168381156108865750825163570ca73560e01b81526001600160a01b036020828781600888901c85165afa91821561087c57916107879187959493899261085c5750163314611ef6565b1561084957825163570ca73560e01b815291602091839190829060081c6001600160a01b03165afa90811561083f578491610821575b505b6009546001600160a01b03908116803b1561081d5785928360249286519788958694636becff2760e01b865216908401525af190811561081457506108015750f35b61080a90611762565b6108115780f35b80fd5b513d84823e3d90fd5b8580fd5b610839915060203d81116104f6576104e7818361178c565b856107bd565b82513d86823e3d90fd5b60081c6001600160a01b031690506107bf565b61087591925060203d81116104f6576104e7818361178c565b908a610453565b85513d89823e3d90fd5b91906108a0600883901c6001600160a01b03163314611e65565b610787565b5082903461037e578160031936011261037e5760206001600160a01b036108ca611f61565b168251948580926318160ddd60e01b82525afa91821561092857916108f4575b6020925051908152f35b90506020823d8211610920575b8161090e6020938361178c565b8101031261064e5760209151906108ea565b3d9150610901565b9051903d90823e3d90fd5b83823461037e57602036600319011261037e5761095360ff61054b611708565b6001600160a01b0316610967811515611da2565b6001600160601b0360a01b600a541617600a5580f35b509134610811578060031936011261081157600a546001600160a01b03168015610aac5760ff60075416610a43576020829184865180948193633b253c2b60e11b83525af1918215610a385791610a1a575b50156109df576020825160018152f35b6020606492519162461bcd60e51b835282015260166024820152756661696c20757064617465536569676e696f7261676560501b6044820152fd5b610a32915060203d81116104bd576104ae818361178c565b386109cf565b8451903d90823e3d90fd5b835162461bcd60e51b8152602081850152603d60248201527f43616e6469646174653a20796f752073686f756c64207570646174652073656960448201527f676e696f726167652066726f6d206c617965723220636f6e74726163740000006064820152608490fd5b835162461bcd60e51b8152602081850152601e60248201527f43616e6469646174653a20536569674d616e61676572206973207a65726f00006044820152606490fd5b50346103515760208060031936011261034d57610221611708565b8334610811578060031936011261081157610b2761021c33611853565b61028333611bbf565b83823461037e576020908160031936011261035157610b4d611708565b91610b5a61021c33611853565b83805260058152610b7060018386200154611890565b838052600581528184206001600160a01b039093166000818152938252928290205460ff1615610b9e578380f35b838052600581528184206000848152915220805460ff191660011790553390827f2f8788117e7eff1d82e926ec794901d17c78024a50270940304540a733656f0d8180a48180808380f35b83823461037e578160031936011261037e57600a5490516001600160a01b039091168152602090f35b83823461037e578160031936011261037e57600754905160089190911c6001600160a01b03168152602090f35b83823461037e578160031936011261037e5760ff602092541690519015158152f35b83823461037e578160031936011261037e5780519082600854610c83816117ae565b80855291600191808316908115610d085750600114610cbd575b505050610caf82610cb994038361178c565b519182918261180b565b0390f35b9450600885526000805160206120358339815191525b828610610cf057505050610caf826020610cb99582010194610c9d565b80546020878701810191909152909501948101610cd3565b610cb9975086935060209250610caf94915060ff191682840152151560051b82010194610c9d565b83823461037e57602036600319011261037e5760209160ff9082906001600160a01b03610d5b611708565b1681526002855220541690519015158152f35b509034610351576020366003190112610351573563ffffffff60e01b811680910361035157825260036020908152918190205490516001600160a01b039091168152f35b5091903461037e578260031936011261037e57610dcd61171e565b90336001600160a01b03831603610de957906102839135611cae565b608490602085519162461bcd60e51b8352820152602f60248201527f416363657373436f6e74726f6c3a2063616e206f6e6c792072656e6f756e636560448201526e103937b632b9903337b91039b2b63360891b6064820152fd5b5090346103515760a036600319011261035157610e5f611708565b6024908135908115159081830361114a576044359367ffffffffffffffff938486116111465736602387011215611146578587013593858511611132578851938a602098601f1997610eb88b8a601f840116018961178c565b808852368782840101116103515780878c9301838a0137870101526001600160a01b039260643584811693919084900361064e576084359480861680960361064e578b918b918f8f8060ff918380610f20955260058852203360005286526000205416611d4b565b8516908115801590611129575b8015611120575b610f3d90611da2565b61107d575b50505060ff600754911691610100600160a81b039060081b16906affffffffffffffffffffff60a81b1617176007556001600160601b0360a01b90816009541617600955600a541617600a55815193841161106c5750908291610faf83610faa6008546117ae565b611e06565b8491601f841160011461100057508792610ff5575b50508160011b916000199060031b1c1916176008555b631dffc87160e21b8452528120805460ff1916600117905580f35b015190503880610fc4565b600889526000805160206120358339815191529316885b8682821061105657505090846001959493921061103d575b505050811b01600855610fda565b015160001960f88460031b161c1916905538808061102f565b6001859682939686015181550195019301611017565b634e487b7160e01b88526041865287fd5b8d5163220bbb4b60e21b815292839182905afa908115611116578d916110f9575b50156110ac57898938610f42565b8a5162461bcd60e51b8152808b018a90526022818701527f43616e6469646174653a20696e76616c6964206c617965723220636f6e74726160448201526118dd60f21b6064820152608490fd5b61111091508a3d8c116104bd576104ae818361178c565b3861109e565b8c513d8f823e3d90fd5b50871515610f34565b50861515610f2d565b82604189634e487b7160e01b600052526000fd5b8880fd5b8680fd5b509034610351578160031936011261035157359061116a61171e565b90828452600560205261118260018286200154611890565b82845260056020528084209160018060a01b0316918260005260205260ff816000205416156111af578380f35b828452600560205280842082600052602052600020600160ff1982541617905533917f2f8788117e7eff1d82e926ec794901d17c78024a50270940304540a733656f0d8480a43880808380f35b508234610811576020918260031936011261037e5783359367ffffffffffffffff80861161034d5761125561123860ff95969736908501611734565b959094878052600589528088203360005289526000205416611d4b565b8311611317575061126b82610faa6008546117ae565b8293601f83116001146112a7575092829382939261129c575b50508160011b916000199060031b1c19161760085580f35b013590508380611284565b60088452601f19831694600080516020612035833981519152929185905b8782106112ff5750508360019596106112e5575b505050811b0160085580f35b0135600019600384901b60f8161c191690558380806112d9565b806001849682949587013581550195019201906112c5565b634e487b7160e01b845260419052602483fd5b5034610351576060366003190112610351578260443567ffffffffffffffff811161037e5761135c9036908501611734565b939060075460ff811660001461144b57845163570ca73560e01b8152906001600160a01b039060209083908690829060081c85165afa91821561144157906113ae929186926114285750163314611ef6565b6009546001600160a01b031690813b1561034d57836084879487519889968795869363127ccd8f60e11b8552803590850152602435602485015260606044850152816064850152848401378181018301849052601f01601f191681010301925af1908115610814575061141f575080f35b61028390611762565b6104ef91925060203d81116104f6576104e7818361178c565b86513d87823e3d90fd5b6114629060081c6001600160a01b03163314611e65565b6113ae565b83823461037e57602036600319011261037e5760ff81602093611488611708565b818052600586528282206001600160a01b039091168252855220549151911615158152f35b5090346103515760203660031901126103515781602093600192358152600585522001549051908152f35b83823461037e578160031936011261037e576020905160018152f35b833461081157602036600319011261081157610283611511611708565b61151d61021c33611853565b611bbf565b5082903461037e576020928360031936011261035157600754838560ff83161561160b575050825163570ca73560e01b8152906001600160a01b0390869083908590829060081c85165afa9182156104fd57869286949261158c9286926115ec5750163314611ef6565b600954845163047c678160e21b81528235928101929092529092839160249183916001600160a01b03165af192831561065a57926115cd5750519015158152f35b6115e5919250833d85116104bd576104ae818361178c565b908361048c565b611604919250853d87116104f6576104e7818361178c565b9089610453565b909290916116269060081c6001600160a01b03163314611e65565b61158c565b83823461037e57602036600319011261037e576020905160018152f35b833461081157602036600319011261081157611662611708565b5080f35b905083833461037e57602036600319011261037e5780359063ffffffff60e01b8216809203610351576020948284526006865260ff81852054169384156116b2575b5050505015158152f35b637965db0b60e01b84149450919290919084156116d7575b50505050838080806116a8565b6301ffc9a760e01b149350909183156116f7575b505050838080806116ca565b60ff935085522054168380806116eb565b600435906001600160a01b038216820361064e57565b602435906001600160a01b038216820361064e57565b9181601f8401121561064e5782359167ffffffffffffffff831161064e576020838186019501011161064e57565b67ffffffffffffffff811161177657604052565b634e487b7160e01b600052604160045260246000fd5b90601f8019910116810190811067ffffffffffffffff82111761177657604052565b90600182811c921680156117de575b60208310146117c857565b634e487b7160e01b600052602260045260246000fd5b91607f16916117bd565b60005b8381106117fb5750506000910152565b81810151838201526020016117eb565b6040916020825261182b81518092816020860152602086860191016117e8565b601f01601f1916010190565b3461064e57600036600319011261064e57602060405160018152f35b6001600160a01b031660009081527f05b8ccbb9d4d8fb16ea74ce3c29a41f1b461fbdaff4714a0d9a8eb05499746bc602052604090205460ff1690565b600081815260209060058252604092838220338352835260ff8483205416156118b95750505050565b835167ffffffffffffffff9190336060820184811183821017611bab578752602a82528582019287368537825115611b975760308453825191600192831015611b83576078602185015360295b838111611b195750611ad75790875194608086019086821090821117611ac357885260428552868501956060368837855115611aaf57603087538551821015611aaf5790607860218701536041915b818311611a41575050506119ff579385936119e5936119d66048946119ad7f416363657373436f6e74726f6c3a206163636f756e7420000000000000000000996119fb9b519a8b9788015251809260378801906117e8565b8401917001034b99036b4b9b9b4b733903937b6329607d1b6037840152518093868401906117e8565b0103602881018552018361178c565b5162461bcd60e51b81529182916004830161180b565b0390fd5b60648587519062461bcd60e51b825280600483015260248201527f537472696e67733a20686578206c656e67746820696e73756666696369656e746044820152fd5b909192600f81166010811015611a9b576f181899199a1a9b1b9c1cb0b131b232b360811b901a611a718589611d24565b5360041c928015611a8757600019019190611955565b634e487b7160e01b82526011600452602482fd5b634e487b7160e01b83526032600452602483fd5b634e487b7160e01b81526032600452602490fd5b634e487b7160e01b87526041600452602487fd5b60648789519062461bcd60e51b825280600483015260248201527f537472696e67733a20686578206c656e67746820696e73756666696369656e746044820152fd5b90600f81166010811015611b6f576f181899199a1a9b1b9c1cb0b131b232b360811b901a611b478387611d24565b5360041c908015611b5b5760001901611906565b634e487b7160e01b88526011600452602488fd5b634e487b7160e01b89526032600452602489fd5b634e487b7160e01b87526032600452602487fd5b634e487b7160e01b86526032600452602486fd5b634e487b7160e01b86526041600452602486fd5b6001600160a01b0316338103611c515760008181527f05b8ccbb9d4d8fb16ea74ce3c29a41f1b461fbdaff4714a0d9a8eb05499746bc602052604081205490919060ff16611c0b575050565b8180526005602052604082208183526020526040822060ff19815416905533917ff6391f5c32d9c69d2a47ea670b442974b53935d1edc7fd64eb21e047a839171b8180a4565b60405162461bcd60e51b815260206004820152602f60248201527f416363657373436f6e74726f6c3a2063616e206f6e6c792072656e6f756e636560448201526e103937b632b9903337b91039b2b63360891b6064820152608490fd5b906000918083526005602052604083209160018060a01b03169182845260205260ff604084205416611cdf57505050565b8083526005602052604083208284526020526040832060ff1981541690557ff6391f5c32d9c69d2a47ea670b442974b53935d1edc7fd64eb21e047a839171b339380a4565b908151811015611d35570160200190565b634e487b7160e01b600052603260045260246000fd5b15611d5257565b60405162461bcd60e51b815260206004820152602260248201527f41636365737369626c653a2043616c6c6572206973206e6f7420616e2061646d60448201526134b760f11b6064820152608490fd5b15611da957565b60405162461bcd60e51b815260206004820152601860248201527f43616e6469646174653a20696e707574206973207a65726f00000000000000006044820152606490fd5b9081602091031261064e5751801515810361064e5790565b601f8111611e12575050565b60009060088252600080516020612035833981519152906020601f850160051c83019410611e5b575b601f0160051c01915b828110611e5057505050565b818155600101611e44565b9092508290611e3b565b15611e6c57565b60405162461bcd60e51b815260206004820152603760248201527f43616e6469646174653a2073656e646572206973206e6f74207468652063616e60448201527f646964617465206f66207468697320636f6e74726163740000000000000000006064820152608490fd5b9081602091031261064e57516001600160a01b038116810361064e5790565b15611efd57565b60405162461bcd60e51b815260206004820152603660248201527f43616e6469646174653a2073656e646572206973206e6f7420746865206f70656044820152751c985d1bdc881bd9881d1a1a5cc818dbdb9d1c9858dd60521b6064820152608490fd5b60075460ff81161561202d5760081c6001600160a01b03165b6001600160a01b039081168015611fe857602082600a541691602460405180948193634c063c1960e01b835260048301525afa908115611fdc57600091611fc057501690565b611fd8915060203d81116104f6576104e7818361178c565b1690565b6040513d6000823e3d90fd5b60405162461bcd60e51b815260206004820152601a60248201527f43616e6469646174653a20636f696e616765206973207a65726f0000000000006044820152606490fd5b5030611f7a56fef3f7a9fe364faab93b216da50a3214154f22a0a2b415b23a84c8169e8b636ee3a164736f6c6343000812000a",
  "linkReferences": {},
  "deployedLinkReferences": {}
}