{
  "_format": "hh-sol-artifact-1",
  "contractName": "Candidate",
  "sourceName": "contracts/dao/Candidate.sol",
  "abi": [
    {
      "anonymous": false,
      "inputs": [
        {
          "indexed": true,
          "internalType": "bytes32",
          "name": "role",
          "type": "bytes32"
        },
        {
          "indexed": true,
          "internalType": "bytes32",
          "name": "previousAdminRole",
          "type": "bytes32"
        },
        {
          "indexed": true,
          "internalType": "bytes32",
          "name": "newAdminRole",
          "type": "bytes32"
        }
      ],
      "name": "RoleAdminChanged",
      "type": "event"
    },
    {
      "anonymous": false,
      "inputs": [
        {
          "indexed": true,
          "internalType": "bytes32",
          "name": "role",
          "type": "bytes32"
        },
        {
          "indexed": true,
          "internalType": "address",
          "name": "account",
          "type": "address"
        },
        {
          "indexed": true,
          "internalType": "address",
          "name": "sender",
          "type": "address"
        }
      ],
      "name": "RoleGranted",
      "type": "event"
    },
    {
      "anonymous": false,
      "inputs": [
        {
          "indexed": true,
          "internalType": "bytes32",
          "name": "role",
          "type": "bytes32"
        },
        {
          "indexed": true,
          "internalType": "address",
          "name": "account",
          "type": "address"
        },
        {
          "indexed": true,
          "internalType": "address",
          "name": "sender",
          "type": "address"
        }
      ],
      "name": "RoleRevoked",
      "type": "event"
    },
    {
      "anonymous": false,
      "inputs": [
        {
          "indexed": false,
          "internalType": "address",
          "name": "from",
          "type": "address"
        },
        {
          "indexed": false,
          "internalType": "address",
          "name": "to",
          "type": "address"
        },
        {
          "indexed": false,
          "internalType": "uint256",
          "name": "amount",
          "type": "uint256"
        }
      ],
      "name": "TransferCoinage",
      "type": "event"
    },
    {
      "inputs": [],
      "name": "DEFAULT_ADMIN_ROLE",
      "outputs": [
        {
          "internalType": "bytes32",
          "name": "",
          "type": "bytes32"
        }
      ],
      "stateMutability": "view",
      "type": "function"
    },
    {
      "inputs": [],
      "name": "MINTER_ROLE",
      "outputs": [
        {
          "internalType": "bytes32",
          "name": "",
          "type": "bytes32"
        }
      ],
      "stateMutability": "view",
      "type": "function"
    },
    {
      "inputs": [
        {
          "internalType": "address",
          "name": "account",
          "type": "address"
        }
      ],
      "name": "addAdmin",
      "outputs": [],
      "stateMutability": "nonpayable",
      "type": "function"
    },
    {
      "inputs": [
        {
          "internalType": "address",
          "name": "",
          "type": "address"
        }
      ],
      "name": "aliveImplementation",
      "outputs": [
        {
          "internalType": "bool",
          "name": "",
          "type": "bool"
        }
      ],
      "stateMutability": "view",
      "type": "function"
    },
    {
      "inputs": [],
      "name": "candidate",
      "outputs": [
        {
          "internalType": "address",
          "name": "",
          "type": "address"
        }
      ],
      "stateMutability": "view",
      "type": "function"
    },
    {
      "inputs": [
        {
          "internalType": "uint256",
          "name": "_agendaID",
          "type": "uint256"
        },
        {
          "internalType": "uint256",
          "name": "_vote",
          "type": "uint256"
        },
        {
          "internalType": "string",
          "name": "_comment",
          "type": "string"
        }
      ],
      "name": "castVote",
      "outputs": [],
      "stateMutability": "nonpayable",
      "type": "function"
    },
    {
      "inputs": [
        {
          "internalType": "uint256",
          "name": "_memberIndex",
          "type": "uint256"
        }
      ],
      "name": "changeMember",
      "outputs": [
        {
          "internalType": "bool",
          "name": "",
          "type": "bool"
        }
      ],
      "stateMutability": "nonpayable",
      "type": "function"
    },
    {
      "inputs": [
        {
          "internalType": "address",
          "name": "_operator",
          "type": "address"
        }
      ],
      "name": "changeOperator",
      "outputs": [],
      "stateMutability": "nonpayable",
      "type": "function"
    },
    {
      "inputs": [],
      "name": "claimActivityReward",
      "outputs": [],
      "stateMutability": "nonpayable",
      "type": "function"
    },
    {
      "inputs": [],
      "name": "committee",
      "outputs": [
        {
          "internalType": "address",
          "name": "",
          "type": "address"
        }
      ],
      "stateMutability": "view",
      "type": "function"
    },
    {
      "inputs": [],
      "name": "currentFork",
      "outputs": [
        {
          "internalType": "uint256",
          "name": "",
          "type": "uint256"
        }
      ],
      "stateMutability": "pure",
      "type": "function"
    },
    {
      "inputs": [
        {
          "internalType": "bytes32",
          "name": "role",
          "type": "bytes32"
        }
      ],
      "name": "getRoleAdmin",
      "outputs": [
        {
          "internalType": "bytes32",
          "name": "",
          "type": "bytes32"
        }
      ],
      "stateMutability": "view",
      "type": "function"
    },
    {
      "inputs": [
        {
          "internalType": "bytes32",
          "name": "role",
          "type": "bytes32"
        },
        {
          "internalType": "address",
          "name": "account",
          "type": "address"
        }
      ],
      "name": "grantRole",
      "outputs": [],
      "stateMutability": "nonpayable",
      "type": "function"
    },
    {
      "inputs": [
        {
          "internalType": "bytes32",
          "name": "role",
          "type": "bytes32"
        },
        {
          "internalType": "address",
          "name": "account",
          "type": "address"
        }
      ],
      "name": "hasRole",
      "outputs": [
        {
          "internalType": "bool",
          "name": "",
          "type": "bool"
        }
      ],
      "stateMutability": "view",
      "type": "function"
    },
    {
      "inputs": [
        {
          "internalType": "address",
          "name": "_candidate",
          "type": "address"
        },
        {
          "internalType": "bool",
          "name": "_isLayer2Candidate",
          "type": "bool"
        },
        {
          "internalType": "string",
          "name": "_memo",
          "type": "string"
        },
        {
          "internalType": "address",
          "name": "_committee",
          "type": "address"
        },
        {
          "internalType": "address",
          "name": "_seigManager",
          "type": "address"
        }
      ],
      "name": "initialize",
      "outputs": [],
      "stateMutability": "nonpayable",
      "type": "function"
    },
    {
      "inputs": [
        {
          "internalType": "address",
          "name": "account",
          "type": "address"
        }
      ],
      "name": "isAdmin",
      "outputs": [
        {
          "internalType": "bool",
          "name": "",
          "type": "bool"
        }
      ],
      "stateMutability": "view",
      "type": "function"
    },
    {
      "inputs": [],
      "name": "isCandidateContract",
      "outputs": [
        {
          "internalType": "bool",
          "name": "",
          "type": "bool"
        }
      ],
      "stateMutability": "pure",
      "type": "function"
    },
    {
      "inputs": [],
      "name": "isCandidateFwContract",
      "outputs": [
        {
          "internalType": "bool",
          "name": "",
          "type": "bool"
        }
      ],
      "stateMutability": "pure",
      "type": "function"
    },
    {
      "inputs": [],
      "name": "isLayer2",
      "outputs": [
        {
          "internalType": "bool",
          "name": "",
          "type": "bool"
        }
      ],
      "stateMutability": "pure",
      "type": "function"
    },
    {
      "inputs": [],
      "name": "isLayer2Candidate",
      "outputs": [
        {
          "internalType": "bool",
          "name": "",
          "type": "bool"
        }
      ],
      "stateMutability": "view",
      "type": "function"
    },
    {
      "inputs": [],
      "name": "isOwner",
      "outputs": [
        {
          "internalType": "bool",
          "name": "",
          "type": "bool"
        }
      ],
      "stateMutability": "view",
      "type": "function"
    },
    {
      "inputs": [
        {
          "internalType": "uint256",
          "name": "forkNumber",
          "type": "uint256"
        }
      ],
      "name": "lastEpoch",
      "outputs": [
        {
          "internalType": "uint256",
          "name": "",
          "type": "uint256"
        }
      ],
      "stateMutability": "pure",
      "type": "function"
    },
    {
      "inputs": [],
      "name": "memo",
      "outputs": [
        {
          "internalType": "string",
          "name": "",
          "type": "string"
        }
      ],
      "stateMutability": "view",
      "type": "function"
    },
    {
      "inputs": [],
      "name": "operator",
      "outputs": [
        {
          "internalType": "address",
          "name": "",
          "type": "address"
        }
      ],
      "stateMutability": "view",
      "type": "function"
    },
    {
      "inputs": [],
      "name": "pauseProxy",
      "outputs": [
        {
          "internalType": "bool",
          "name": "",
          "type": "bool"
        }
      ],
      "stateMutability": "view",
      "type": "function"
    },
    {
      "inputs": [
        {
          "internalType": "uint256",
          "name": "",
          "type": "uint256"
        }
      ],
      "name": "proxyImplementation",
      "outputs": [
        {
          "internalType": "address",
          "name": "",
          "type": "address"
        }
      ],
      "stateMutability": "view",
      "type": "function"
    },
    {
      "inputs": [
        {
          "internalType": "address",
          "name": "account",
          "type": "address"
        }
      ],
      "name": "removeAdmin",
      "outputs": [],
      "stateMutability": "nonpayable",
      "type": "function"
    },
    {
      "inputs": [],
      "name": "renounceOwnership",
      "outputs": [],
      "stateMutability": "nonpayable",
      "type": "function"
    },
    {
      "inputs": [
        {
          "internalType": "bytes32",
          "name": "role",
          "type": "bytes32"
        },
        {
          "internalType": "address",
          "name": "account",
          "type": "address"
        }
      ],
      "name": "renounceRole",
      "outputs": [],
      "stateMutability": "nonpayable",
      "type": "function"
    },
    {
      "inputs": [],
      "name": "retireMember",
      "outputs": [
        {
          "internalType": "bool",
          "name": "",
          "type": "bool"
        }
      ],
      "stateMutability": "nonpayable",
      "type": "function"
    },
    {
      "inputs": [
        {
          "internalType": "bytes32",
          "name": "role",
          "type": "bytes32"
        },
        {
          "internalType": "address",
          "name": "account",
          "type": "address"
        }
      ],
      "name": "revokeRole",
      "outputs": [],
      "stateMutability": "nonpayable",
      "type": "function"
    },
    {
      "inputs": [],
      "name": "seigManager",
      "outputs": [
        {
          "internalType": "address",
          "name": "",
          "type": "address"
        }
      ],
      "stateMutability": "view",
      "type": "function"
    },
    {
      "inputs": [
        {
          "internalType": "bytes4",
          "name": "",
          "type": "bytes4"
        }
      ],
      "name": "selectorImplementation",
      "outputs": [
        {
          "internalType": "address",
          "name": "",
          "type": "address"
        }
      ],
      "stateMutability": "view",
      "type": "function"
    },
    {
      "inputs": [
        {
          "internalType": "address",
          "name": "_committee",
          "type": "address"
        }
      ],
      "name": "setCommittee",
      "outputs": [],
      "stateMutability": "nonpayable",
      "type": "function"
    },
    {
      "inputs": [
        {
          "internalType": "string",
          "name": "_memo",
          "type": "string"
        }
      ],
      "name": "setMemo",
      "outputs": [],
      "stateMutability": "nonpayable",
      "type": "function"
    },
    {
      "inputs": [
        {
          "internalType": "address",
          "name": "_seigManager",
          "type": "address"
        }
      ],
      "name": "setSeigManager",
      "outputs": [],
      "stateMutability": "nonpayable",
      "type": "function"
    },
    {
      "inputs": [
        {
          "internalType": "address",
          "name": "_account",
          "type": "address"
        }
      ],
      "name": "stakedOf",
      "outputs": [
        {
          "internalType": "uint256",
          "name": "amount",
          "type": "uint256"
        }
      ],
      "stateMutability": "view",
      "type": "function"
    },
    {
      "inputs": [
        {
          "internalType": "bytes4",
          "name": "interfaceId",
          "type": "bytes4"
        }
      ],
      "name": "supportsInterface",
      "outputs": [
        {
          "internalType": "bool",
          "name": "",
          "type": "bool"
        }
      ],
      "stateMutability": "view",
      "type": "function"
    },
    {
      "inputs": [],
      "name": "totalStaked",
      "outputs": [
        {
          "internalType": "uint256",
          "name": "totalsupply",
          "type": "uint256"
        }
      ],
      "stateMutability": "view",
      "type": "function"
    },
    {
      "inputs": [
        {
          "internalType": "address",
          "name": "newAdmin",
          "type": "address"
        }
      ],
      "name": "transferAdmin",
      "outputs": [],
      "stateMutability": "nonpayable",
      "type": "function"
    },
    {
      "inputs": [
        {
          "internalType": "address",
          "name": "newAdmin",
          "type": "address"
        }
      ],
      "name": "transferOwnership",
      "outputs": [],
      "stateMutability": "nonpayable",
      "type": "function"
    },
    {
      "inputs": [],
      "name": "updateSeigniorage",
      "outputs": [
        {
          "internalType": "bool",
          "name": "",
          "type": "bool"
        }
      ],
      "stateMutability": "nonpayable",
      "type": "function"
    }
  ],
  "bytecode": "0x608060405234801561001057600080fd5b506120eb806100206000396000f3fe608060405234801561001057600080fd5b506004361061025e5760003560e01c8063715018a6116101465780639b638268116100c3578063bddae40e11610087578063bddae40e14610515578063c4ef9c0014610528578063d539139314610530578063d547741f14610557578063d864e7401461056a578063f2fde38b1461057d57600080fd5b80639b638268146104c4578063a217fddf146104d1578063acb4c06114610492578063af500ba3146104d9578063b911135f146104ec57600080fd5b8063817b1cd21161010a578063817b1cd214610499578063882eed2c146104925780638bf7a3ab146104a15780638f32d59b146104a957806391d14854146104b157600080fd5b8063715018a61461045c57806375829def14610464578063764a7856146104775780637657f20a1461047f57806377ff21c41461049257600080fd5b80632f2ff15d116101df578063570ca735116101a3578063570ca735146103e657806358c3b870146103fc57806363a8fd89146104115780636c8381f81461041e5780636fb7f55814610436578063704802751461044957600080fd5b80632f2ff15d14610349578063300709701461035c57806336568abe1461036f57806350d2a27614610382578063550d01a3146103c357600080fd5b8063183d2d1c11610226578063183d2d1c146102e6578063248a9ca3146102ed57806324d7806c1461031057806324f99b1e1461032357806325d608611461033657600080fd5b806301ffc9a71461026357806306394c9b1461028b57806311e4c9141461029e57806311f19e04146102c05780631785f53c146102d3575b600080fd5b610276610271366004611937565b610590565b60405190151581526020015b60405180910390f35b61029c610299366004611981565b50565b005b6102b26102ac36600461199e565b50600190565b604051908152602001610282565b6102766102ce36600461199e565b6105c2565b61029c6102e1366004611981565b61072e565b60016102b2565b6102b26102fb36600461199e565b60009081526005602052604090206001015490565b61027661031e366004611981565b61075e565b61029c610331366004611a00565b61076a565b61029c610344366004611a53565b6108c4565b61029c610357366004611a95565b6108fb565b61029c61036a366004611ae9565b610920565b61029c61037d366004611a95565b610acc565b6103ab610390366004611937565b6003602052600090815260409020546001600160a01b031681565b6040516001600160a01b039091168152602001610282565b6102766103d1366004611981565b60026020526000908152604090205460ff1681565b60075461010090046001600160a01b03166103ab565b610404610b4a565b6040516102829190611c05565b6000546102769060ff1681565b6007546103ab9061010090046001600160a01b031681565b600a546103ab906001600160a01b031681565b61029c610457366004611981565b610bd8565b61029c610c08565b61029c610472366004611981565b610c3a565b610276610d1c565b61029c61048d366004611981565b610eae565b6001610276565b6102b2610f1b565b61029c610f90565b61027661117c565b6102766104bf366004611a95565b61118d565b6007546102769060ff1681565b6102b2600081565b6102b26104e7366004611981565b6111b8565b6103ab6104fa36600461199e565b6001602052600090815260409020546001600160a01b031681565b61029c610523366004611981565b611238565b6102766112a5565b6102b27ff0887ba65ee2024ea881d91b74c2450ef19e1557f03bed3ea9f16b037cbe2dc981565b61029c610565366004611a95565b61140d565b6009546103ab906001600160a01b031681565b61029c61058b366004611981565b611432565b6001600160e01b0319811660009081526006602052604081205460ff16806105bc57506105bc82611460565b92915050565b60075460009060ff161561068b576000600760019054906101000a90046001600160a01b03169050336001600160a01b0316816001600160a01b031663570ca7356040518163ffffffff1660e01b8152600401602060405180830381865afa158015610632573d6000803e3d6000fd5b505050506040513d601f19601f820116820180604052508101906106569190611c38565b6001600160a01b0316146106855760405162461bcd60e51b815260040161067c90611c55565b60405180910390fd5b506106ba565b60075461010090046001600160a01b031633146106ba5760405162461bcd60e51b815260040161067c90611cab565b60095460405163047c678160e21b8152600481018490526001600160a01b03909116906311f19e04906024016020604051808303816000875af1158015610705573d6000803e3d6000fd5b505050506040513d601f19601f820116820180604052508101906105bc9190611d08565b919050565b6107373361075e565b6107535760405162461bcd60e51b815260040161067c90611d25565b610299600082610acc565b60006105bc818361118d565b60075460ff1615610827576000600760019054906101000a90046001600160a01b03169050336001600160a01b0316816001600160a01b031663570ca7356040518163ffffffff1660e01b8152600401602060405180830381865afa1580156107d7573d6000803e3d6000fd5b505050506040513d601f19601f820116820180604052508101906107fb9190611c38565b6001600160a01b0316146108215760405162461bcd60e51b815260040161067c90611c55565b50610856565b60075461010090046001600160a01b031633146108565760405162461bcd60e51b815260040161067c90611cab565b60095460405163127ccd8f60e11b81526001600160a01b03909116906324f99b1e9061088c908790879087908790600401611d67565b600060405180830381600087803b1580156108a657600080fd5b505af11580156108ba573d6000803e3d6000fd5b5050505050505050565b6108cd3361075e565b6108e95760405162461bcd60e51b815260040161067c90611d25565b60086108f6828483611e2c565b505050565b6000828152600560205260409020600101546109168161146b565b6108f68383611475565b6109293361075e565b6109455760405162461bcd60e51b815260040161067c90611d25565b6001600160a01b03851615158061096457506001600160a01b03821615155b8061097757506001600160a01b03811615155b6109935760405162461bcd60e51b815260040161067c90611eec565b8315610a5257846001600160a01b031663882eed2c6040518163ffffffff1660e01b8152600401602060405180830381865afa1580156109d7573d6000803e3d6000fd5b505050506040513d601f19601f820116820180604052508101906109fb9190611d08565b610a525760405162461bcd60e51b815260206004820152602260248201527f43616e6469646174653a20696e76616c6964206c617965723220636f6e74726160448201526118dd60f21b606482015260840161067c565b600780546001600160a81b0319166101006001600160a01b038881169190910260ff19169190911786151517909155600980546001600160a01b031990811685841617909155600a80549091169183169190911790556008610ab48482611f23565b50610ac5631dffc87160e21b6114fb565b5050505050565b6001600160a01b0381163314610b3c5760405162461bcd60e51b815260206004820152602f60248201527f416363657373436f6e74726f6c3a2063616e206f6e6c792072656e6f756e636560448201526e103937b632b9903337b91039b2b63360891b606482015260840161067c565b610b46828261157a565b5050565b60088054610b5790611da4565b80601f0160208091040260200160405190810160405280929190818152602001828054610b8390611da4565b8015610bd05780601f10610ba557610100808354040283529160200191610bd0565b820191906000526020600020905b815481529060010190602001808311610bb357829003601f168201915b505050505081565b610be13361075e565b610bfd5760405162461bcd60e51b815260040161067c90611d25565b6102996000826108fb565b610c113361075e565b610c2d5760405162461bcd60e51b815260040161067c90611d25565b610c38600033610acc565b565b610c433361075e565b610c5f5760405162461bcd60e51b815260040161067c90611d25565b6001600160a01b038116610cb55760405162461bcd60e51b815260206004820152601860248201527f41636365737369626c653a207a65726f20616464726573730000000000000000604482015260640161067c565b6001600160a01b0381163303610d065760405162461bcd60e51b815260206004820152601660248201527520b1b1b2b9b9b4b136329d1039b0b6b29030b236b4b760511b604482015260640161067c565b610d116000826108fb565b610299600033610acc565b600a546000906001600160a01b0316610d775760405162461bcd60e51b815260206004820152601e60248201527f43616e6469646174653a20536569674d616e61676572206973207a65726f0000604482015260640161067c565b60075460ff1615610df05760405162461bcd60e51b815260206004820152603d60248201527f43616e6469646174653a20796f752073686f756c64207570646174652073656960448201527f676e696f726167652066726f6d206c617965723220636f6e7472616374000000606482015260840161067c565b600a60009054906101000a90046001600160a01b03166001600160a01b031663764a78566040518163ffffffff1660e01b81526004016020604051808303816000875af1158015610e45573d6000803e3d6000fd5b505050506040513d601f19601f82011682018060405250810190610e699190611d08565b6102ac5760405162461bcd60e51b81526020600482015260166024820152756661696c20757064617465536569676e696f7261676560501b604482015260640161067c565b610eb73361075e565b610ed35760405162461bcd60e51b815260040161067c90611d25565b6001600160a01b038116610ef95760405162461bcd60e51b815260040161067c90611eec565b600a80546001600160a01b0319166001600160a01b0392909216919091179055565b600080610f266115e1565b9050806001600160a01b03166318160ddd6040518163ffffffff1660e01b8152600401602060405180830381865afa158015610f66573d6000803e3d6000fd5b505050506040513d601f19601f82011682018060405250810190610f8a9190611fe3565b91505090565b60075460ff161561104d576000600760019054906101000a90046001600160a01b03169050336001600160a01b0316816001600160a01b031663570ca7356040518163ffffffff1660e01b8152600401602060405180830381865afa158015610ffd573d6000803e3d6000fd5b505050506040513d601f19601f820116820180604052508101906110219190611c38565b6001600160a01b0316146110475760405162461bcd60e51b815260040161067c90611c55565b5061107c565b60075461010090046001600160a01b0316331461107c5760405162461bcd60e51b815260040161067c90611cab565b60075460009060ff161561110e576000600760019054906101000a90046001600160a01b03169050806001600160a01b031663570ca7356040518163ffffffff1660e01b8152600401602060405180830381865afa1580156110e2573d6000803e3d6000fd5b505050506040513d601f19601f820116820180604052508101906111069190611c38565b915050611121565b5060075461010090046001600160a01b03165b600954604051636becff2760e01b81526001600160a01b03838116600483015290911690636becff2790602401600060405180830381600087803b15801561116857600080fd5b505af1158015610ac5573d6000803e3d6000fd5b6000611188813361118d565b905090565b60009182526005602090815260408084206001600160a01b0393909316845291905290205460ff1690565b6000806111c36115e1565b6040516370a0823160e01b81526001600160a01b038581166004830152919250908216906370a0823190602401602060405180830381865afa15801561120d573d6000803e3d6000fd5b505050506040513d601f19601f820116820180604052508101906112319190611fe3565b9392505050565b6112413361075e565b61125d5760405162461bcd60e51b815260040161067c90611d25565b6001600160a01b0381166112835760405162461bcd60e51b815260040161067c90611eec565b600980546001600160a01b0319166001600160a01b0392909216919091179055565b60075460009060ff1615611365576000600760019054906101000a90046001600160a01b03169050336001600160a01b0316816001600160a01b031663570ca7356040518163ffffffff1660e01b8152600401602060405180830381865afa158015611315573d6000803e3d6000fd5b505050506040513d601f19601f820116820180604052508101906113399190611c38565b6001600160a01b03161461135f5760405162461bcd60e51b815260040161067c90611c55565b50611394565b60075461010090046001600160a01b031633146113945760405162461bcd60e51b815260040161067c90611cab565b600960009054906101000a90046001600160a01b03166001600160a01b031663c4ef9c006040518163ffffffff1660e01b81526004016020604051808303816000875af11580156113e9573d6000803e3d6000fd5b505050506040513d601f19601f820116820180604052508101906111889190611d08565b6000828152600560205260409020600101546114288161146b565b6108f6838361157a565b61143b3361075e565b6114575760405162461bcd60e51b815260040161067c90611d25565b61029981610c3a565b60006105bc826116cf565b61029981336116f4565b61147f828261118d565b610b465760008281526005602090815260408083206001600160a01b03851684529091529020805460ff191660011790556114b73390565b6001600160a01b0316816001600160a01b0316837f2f8788117e7eff1d82e926ec794901d17c78024a50270940304540a733656f0d60405160405180910390a45050565b6001600160e01b031980821690036115555760405162461bcd60e51b815260206004820152601c60248201527f4552433136353a20696e76616c696420696e7465726661636520696400000000604482015260640161067c565b6001600160e01b0319166000908152600460205260409020805460ff19166001179055565b611584828261118d565b15610b465760008281526005602090815260408083206001600160a01b0385168085529252808320805460ff1916905551339285917ff6391f5c32d9c69d2a47ea670b442974b53935d1edc7fd64eb21e047a839171b9190a45050565b600754600090819060ff1615611608575060075461010090046001600160a01b031661160b565b50305b6001600160a01b0381166116615760405162461bcd60e51b815260206004820152601a60248201527f43616e6469646174653a20636f696e616765206973207a65726f000000000000604482015260640161067c565b600a54604051634c063c1960e01b81526001600160a01b03838116600483015290911690634c063c1990602401602060405180830381865afa1580156116ab573d6000803e3d6000fd5b505050506040513d601f19601f82011682018060405250810190610f8a9190611c38565b60006001600160e01b03198216637965db0b60e01b14806105bc57506105bc8261174d565b6116fe828261118d565b610b465761170b81611789565b61171683602061179b565b604051602001611727929190611ffc565b60408051601f198184030181529082905262461bcd60e51b825261067c91600401611c05565b60006301ffc9a760e01b6001600160e01b0319831614806105bc5750506001600160e01b03191660009081526004602052604090205460ff1690565b60606105bc6001600160a01b03831660145b606060006117aa836002612087565b6117b590600261209e565b67ffffffffffffffff8111156117cd576117cd611ad3565b6040519080825280601f01601f1916602001820160405280156117f7576020820181803683370190505b509050600360fc1b81600081518110611812576118126120b1565b60200101906001600160f81b031916908160001a905350600f60fb1b81600181518110611841576118416120b1565b60200101906001600160f81b031916908160001a9053506000611865846002612087565b61187090600161209e565b90505b60018111156118e8576f181899199a1a9b1b9c1cb0b131b232b360811b85600f16601081106118a4576118a46120b1565b1a60f81b8282815181106118ba576118ba6120b1565b60200101906001600160f81b031916908160001a90535060049490941c936118e1816120c7565b9050611873565b5083156112315760405162461bcd60e51b815260206004820181905260248201527f537472696e67733a20686578206c656e67746820696e73756666696369656e74604482015260640161067c565b60006020828403121561194957600080fd5b81356001600160e01b03198116811461123157600080fd5b6001600160a01b038116811461029957600080fd5b803561072981611961565b60006020828403121561199357600080fd5b813561123181611961565b6000602082840312156119b057600080fd5b5035919050565b60008083601f8401126119c957600080fd5b50813567ffffffffffffffff8111156119e157600080fd5b6020830191508360208285010111156119f957600080fd5b9250929050565b60008060008060608587031215611a1657600080fd5b8435935060208501359250604085013567ffffffffffffffff811115611a3b57600080fd5b611a47878288016119b7565b95989497509550505050565b60008060208385031215611a6657600080fd5b823567ffffffffffffffff811115611a7d57600080fd5b611a89858286016119b7565b90969095509350505050565b60008060408385031215611aa857600080fd5b823591506020830135611aba81611961565b809150509250929050565b801515811461029957600080fd5b634e487b7160e01b600052604160045260246000fd5b600080600080600060a08688031215611b0157600080fd5b8535611b0c81611961565b94506020860135611b1c81611ac5565b9350604086013567ffffffffffffffff80821115611b3957600080fd5b818801915088601f830112611b4d57600080fd5b813581811115611b5f57611b5f611ad3565b604051601f8201601f19908116603f01168101908382118183101715611b8757611b87611ad3565b816040528281528b6020848701011115611ba057600080fd5b826020860160208301376000602084830101528097505050505050611bc760608701611976565b9150611bd560808701611976565b90509295509295909350565b60005b83811015611bfc578181015183820152602001611be4565b50506000910152565b6020815260008251806020840152611c24816040850160208701611be1565b601f01601f19169190910160400192915050565b600060208284031215611c4a57600080fd5b815161123181611961565b60208082526036908201527f43616e6469646174653a2073656e646572206973206e6f7420746865206f70656040820152751c985d1bdc881bd9881d1a1a5cc818dbdb9d1c9858dd60521b606082015260800190565b60208082526037908201527f43616e6469646174653a2073656e646572206973206e6f74207468652063616e60408201527f646964617465206f66207468697320636f6e7472616374000000000000000000606082015260800190565b600060208284031215611d1a57600080fd5b815161123181611ac5565b60208082526022908201527f41636365737369626c653a2043616c6c6572206973206e6f7420616e2061646d60408201526134b760f11b606082015260800190565b84815283602082015260606040820152816060820152818360808301376000818301608090810191909152601f909201601f191601019392505050565b600181811c90821680611db857607f821691505b602082108103611dd857634e487b7160e01b600052602260045260246000fd5b50919050565b601f8211156108f657600081815260208120601f850160051c81016020861015611e055750805b601f850160051c820191505b81811015611e2457828155600101611e11565b505050505050565b67ffffffffffffffff831115611e4457611e44611ad3565b611e5883611e528354611da4565b83611dde565b6000601f841160018114611e8c5760008515611e745750838201355b600019600387901b1c1916600186901b178355610ac5565b600083815260209020601f19861690835b82811015611ebd5786850135825560209485019460019092019101611e9d565b5086821015611eda5760001960f88860031b161c19848701351681555b505060018560011b0183555050505050565b60208082526018908201527f43616e6469646174653a20696e707574206973207a65726f0000000000000000604082015260600190565b815167ffffffffffffffff811115611f3d57611f3d611ad3565b611f5181611f4b8454611da4565b84611dde565b602080601f831160018114611f865760008415611f6e5750858301515b600019600386901b1c1916600185901b178555611e24565b600085815260208120601f198616915b82811015611fb557888601518255948401946001909101908401611f96565b5085821015611fd35787850151600019600388901b60f8161c191681555b5050505050600190811b01905550565b600060208284031215611ff557600080fd5b5051919050565b7f416363657373436f6e74726f6c3a206163636f756e7420000000000000000000815260008351612034816017850160208801611be1565b7001034b99036b4b9b9b4b733903937b6329607d1b6017918401918201528351612065816028840160208801611be1565b01602801949350505050565b634e487b7160e01b600052601160045260246000fd5b80820281158282048414176105bc576105bc612071565b808201808211156105bc576105bc612071565b634e487b7160e01b600052603260045260246000fd5b6000816120d6576120d6612071565b50600019019056fea164736f6c6343000813000a",
  "linkReferences": {},
  "deployedLinkReferences": {}
}