{
  "_format": "hh-sol-artifact-1",
  "contractName": "RefactorCoinageSnapshotStorage",
  "sourceName": "contracts/stake/tokens/RefactorCoinageSnapshotStorage.sol",
  "abi": [
    {
      "inputs": [],
      "name": "REFACTOR_BOUNDARY",
      "outputs": [
        {
          "internalType": "uint256",
          "name": "",
          "type": "uint256"
        }
      ],
      "stateMutability": "view",
      "type": "function"
    },
    {
      "inputs": [],
      "name": "REFACTOR_DIVIDER",
      "outputs": [
        {
          "internalType": "uint256",
          "name": "",
          "type": "uint256"
        }
      ],
      "stateMutability": "view",
      "type": "function"
    },
    {
      "inputs": [
        {
          "internalType": "address",
          "name": "",
          "type": "address"
        },
        {
          "internalType": "address",
          "name": "",
          "type": "address"
        }
      ],
      "name": "_allowances",
      "outputs": [
        {
          "internalType": "uint256",
          "name": "",
          "type": "uint256"
        }
      ],
      "stateMutability": "view",
      "type": "function"
    },
    {
      "inputs": [
        {
          "internalType": "address",
          "name": "",
          "type": "address"
        },
        {
          "internalType": "uint256",
          "name": "",
          "type": "uint256"
        }
      ],
      "name": "accountBalanceIds",
      "outputs": [
        {
          "internalType": "uint256",
          "name": "",
          "type": "uint256"
        }
      ],
      "stateMutability": "view",
      "type": "function"
    },
    {
      "inputs": [
        {
          "internalType": "address",
          "name": "",
          "type": "address"
        },
        {
          "internalType": "uint256",
          "name": "",
          "type": "uint256"
        }
      ],
      "name": "accountBalanceSnapshots",
      "outputs": [
        {
          "internalType": "uint256",
          "name": "balance",
          "type": "uint256"
        },
        {
          "internalType": "uint256",
          "name": "refactoredCount",
          "type": "uint256"
        }
      ],
      "stateMutability": "view",
      "type": "function"
    },
    {
      "inputs": [
        {
          "internalType": "uint256",
          "name": "",
          "type": "uint256"
        }
      ],
      "name": "factorSnapshotIds",
      "outputs": [
        {
          "internalType": "uint256",
          "name": "",
          "type": "uint256"
        }
      ],
      "stateMutability": "view",
      "type": "function"
    },
    {
      "inputs": [
        {
          "internalType": "uint256",
          "name": "",
          "type": "uint256"
        }
      ],
      "name": "factorSnapshots",
      "outputs": [
        {
          "internalType": "uint256",
          "name": "factor",
          "type": "uint256"
        },
        {
          "internalType": "uint256",
          "name": "refactorCount",
          "type": "uint256"
        }
      ],
      "stateMutability": "view",
      "type": "function"
    },
    {
      "inputs": [],
      "name": "lastSnapshotId",
      "outputs": [
        {
          "internalType": "uint256",
          "name": "",
          "type": "uint256"
        }
      ],
      "stateMutability": "view",
      "type": "function"
    },
    {
      "inputs": [],
      "name": "name",
      "outputs": [
        {
          "internalType": "string",
          "name": "",
          "type": "string"
        }
      ],
      "stateMutability": "view",
      "type": "function"
    },
    {
      "inputs": [],
      "name": "seigManager",
      "outputs": [
        {
          "internalType": "address",
          "name": "",
          "type": "address"
        }
      ],
      "stateMutability": "view",
      "type": "function"
    },
    {
      "inputs": [],
      "name": "symbol",
      "outputs": [
        {
          "internalType": "string",
          "name": "",
          "type": "string"
        }
      ],
      "stateMutability": "view",
      "type": "function"
    },
    {
      "inputs": [
        {
          "internalType": "uint256",
          "name": "",
          "type": "uint256"
        }
      ],
      "name": "totalSupplySnapshotIds",
      "outputs": [
        {
          "internalType": "uint256",
          "name": "",
          "type": "uint256"
        }
      ],
      "stateMutability": "view",
      "type": "function"
    },
    {
      "inputs": [
        {
          "internalType": "uint256",
          "name": "",
          "type": "uint256"
        }
      ],
      "name": "totalSupplySnapshots",
      "outputs": [
        {
          "internalType": "uint256",
          "name": "balance",
          "type": "uint256"
        },
        {
          "internalType": "uint256",
          "name": "refactoredCount",
          "type": "uint256"
        }
      ],
      "stateMutability": "view",
      "type": "function"
    }
  ],
  "bytecode": "0x6080806040523461001657610599908161001c8239f35b600080fdfe6080604081815260048036101561001557600080fd5b600092833560e01c908162d87a9c1461050d57508063024c2ddd146104b95780630461fdc51461046d57806306fdde031461039357806356fabf68146103465780635deaecec14610315578063614db8b2146102c957806369f499b1146102795780636fb7f55814610251578063837afbc01461023257806395d89b4114610110578063b7c246d7146100e55763b7d78b1a146100b157600080fd5b346100e15760203660031901126100e1579181923581526005602052206001815491015482519182526020820152f35b8280fd5b50503461010c578160031936011261010c57602090516b204fce5e3e250261100000008152f35b5080fd5b5091903461010c578160031936011261010c5780519082600254600181811c90808316928315610228575b6020938484108114610215578388529081156101f957506001146101a3575b505050829003601f01601f191682019267ffffffffffffffff841183851017610190575082918261018c925282610543565b0390f35b634e487b7160e01b815260418552602490fd5b600287529192508591837f405787fa12a823e0f2b7631cc41b3ba8828b3321ca811111fa75cd3aa3bb5ace5b8385106101e5575050505083010138808061015a565b8054888601830152930192849082016101cf565b60ff1916878501525050151560051b840101905038808061015a565b634e487b7160e01b895260228a52602489fd5b91607f169161013b565b50503461010c578160031936011261010c57602090600a549051908152f35b50503461010c578160031936011261010c57905490516001600160a01b039091168152602090f35b50503461010c578060031936011261010c57610293610528565b6001600160a01b031682526008602052808220805460243591908210156102c557835260209283902001549051908152f35b8380fd5b50346100e15760203660031901126100e15780359080548210156102c557602093527f8a35acfbc15ff81a39ae7d344fd709f28e8600b4aa8c65c6b64bfe7fe36bd19b01549051908152f35b50346100e15760203660031901126100e1579181923581526007602052206001815491015482519182526020820152f35b50346100e15760203660031901126100e157356006548110156100e1576006602093527ff652222313e28459528d920b65115c16c04f3efc82aaedc97be59f3f377c0d3f01549051908152f35b5091903461010c578160031936011261010c5780519082600180549081811c90808316928315610463575b6020938484108114610215578388529081156101f9575060011461040e57505050829003601f01601f191682019267ffffffffffffffff841183851017610190575082918261018c925282610543565b8087529192508591837fb10e2d527612073b26eecdfd717e6a320cf44b4afac2b0732d9fcbe2b7fa0cf65b83851061044f575050505083010138808061015a565b805488860183015293019284908201610439565b91607f16916103be565b50503461010c578060031936011261010c579081906001600160a01b03610492610528565b16815260096020528181206024358252602052206001815491015482519182526020820152f35b50503461010c578060031936011261010c576104d3610528565b6001600160a01b036024358181169290839003610509579160209491849316825260038552828220908252845220549051908152f35b8480fd5b84903461010c578160031936011261010c5780600260209252f35b600435906001600160a01b038216820361053e57565b600080fd5b6020808252825181830181905290939260005b82811061057857505060409293506000838284010152601f8019910116010190565b81810186015184820160400152850161055656fea164736f6c6343000813000a",
  "linkReferences": {},
  "deployedLinkReferences": {}
}