{
  "_format": "hh-sol-artifact-1",
  "contractName": "ProxyL2",
  "sourceName": "contracts/proxy/ProxyL2.sol",
  "abi": [
    {
      "inputs": [],
      "stateMutability": "nonpayable",
      "type": "constructor"
    },
    {
      "anonymous": false,
      "inputs": [
        {
          "indexed": true,
          "internalType": "bytes32",
          "name": "role",
          "type": "bytes32"
        },
        {
          "indexed": true,
          "internalType": "bytes32",
          "name": "previousAdminRole",
          "type": "bytes32"
        },
        {
          "indexed": true,
          "internalType": "bytes32",
          "name": "newAdminRole",
          "type": "bytes32"
        }
      ],
      "name": "RoleAdminChanged",
      "type": "event"
    },
    {
      "anonymous": false,
      "inputs": [
        {
          "indexed": true,
          "internalType": "bytes32",
          "name": "role",
          "type": "bytes32"
        },
        {
          "indexed": true,
          "internalType": "address",
          "name": "account",
          "type": "address"
        },
        {
          "indexed": true,
          "internalType": "address",
          "name": "sender",
          "type": "address"
        }
      ],
      "name": "RoleGranted",
      "type": "event"
    },
    {
      "anonymous": false,
      "inputs": [
        {
          "indexed": true,
          "internalType": "bytes32",
          "name": "role",
          "type": "bytes32"
        },
        {
          "indexed": true,
          "internalType": "address",
          "name": "account",
          "type": "address"
        },
        {
          "indexed": true,
          "internalType": "address",
          "name": "sender",
          "type": "address"
        }
      ],
      "name": "RoleRevoked",
      "type": "event"
    },
    {
      "anonymous": false,
      "inputs": [
        {
          "indexed": true,
          "internalType": "address",
          "name": "impl",
          "type": "address"
        },
        {
          "indexed": false,
          "internalType": "bool",
          "name": "alive",
          "type": "bool"
        }
      ],
      "name": "SetAliveImplementation",
      "type": "event"
    },
    {
      "anonymous": false,
      "inputs": [
        {
          "indexed": true,
          "internalType": "bytes4",
          "name": "selector",
          "type": "bytes4"
        },
        {
          "indexed": true,
          "internalType": "address",
          "name": "impl",
          "type": "address"
        }
      ],
      "name": "SetSelectorImplementation",
      "type": "event"
    },
    {
      "anonymous": false,
      "inputs": [
        {
          "indexed": true,
          "internalType": "address",
          "name": "implementation",
          "type": "address"
        }
      ],
      "name": "Upgraded",
      "type": "event"
    },
    {
      "stateMutability": "payable",
      "type": "fallback"
    },
    {
      "inputs": [],
      "name": "DEFAULT_ADMIN_ROLE",
      "outputs": [
        {
          "internalType": "bytes32",
          "name": "",
          "type": "bytes32"
        }
      ],
      "stateMutability": "view",
      "type": "function"
    },
    {
      "inputs": [],
      "name": "MINTER_ROLE",
      "outputs": [
        {
          "internalType": "bytes32",
          "name": "",
          "type": "bytes32"
        }
      ],
      "stateMutability": "view",
      "type": "function"
    },
    {
      "inputs": [
        {
          "internalType": "address",
          "name": "account",
          "type": "address"
        }
      ],
      "name": "addAdmin",
      "outputs": [],
      "stateMutability": "nonpayable",
      "type": "function"
    },
    {
      "inputs": [
        {
          "internalType": "address",
          "name": "",
          "type": "address"
        }
      ],
      "name": "aliveImplementation",
      "outputs": [
        {
          "internalType": "bool",
          "name": "",
          "type": "bool"
        }
      ],
      "stateMutability": "view",
      "type": "function"
    },
    {
      "inputs": [
        {
          "internalType": "bytes32",
          "name": "role",
          "type": "bytes32"
        }
      ],
      "name": "getRoleAdmin",
      "outputs": [
        {
          "internalType": "bytes32",
          "name": "",
          "type": "bytes32"
        }
      ],
      "stateMutability": "view",
      "type": "function"
    },
    {
      "inputs": [
        {
          "internalType": "bytes4",
          "name": "_selector",
          "type": "bytes4"
        }
      ],
      "name": "getSelectorImplementation2",
      "outputs": [
        {
          "internalType": "address",
          "name": "impl",
          "type": "address"
        }
      ],
      "stateMutability": "view",
      "type": "function"
    },
    {
      "inputs": [
        {
          "internalType": "bytes32",
          "name": "role",
          "type": "bytes32"
        },
        {
          "internalType": "address",
          "name": "account",
          "type": "address"
        }
      ],
      "name": "grantRole",
      "outputs": [],
      "stateMutability": "nonpayable",
      "type": "function"
    },
    {
      "inputs": [
        {
          "internalType": "bytes32",
          "name": "role",
          "type": "bytes32"
        },
        {
          "internalType": "address",
          "name": "account",
          "type": "address"
        }
      ],
      "name": "hasRole",
      "outputs": [
        {
          "internalType": "bool",
          "name": "",
          "type": "bool"
        }
      ],
      "stateMutability": "view",
      "type": "function"
    },
    {
      "inputs": [],
      "name": "implementation",
      "outputs": [
        {
          "internalType": "address",
          "name": "",
          "type": "address"
        }
      ],
      "stateMutability": "view",
      "type": "function"
    },
    {
      "inputs": [
        {
          "internalType": "uint256",
          "name": "_index",
          "type": "uint256"
        }
      ],
      "name": "implementation2",
      "outputs": [
        {
          "internalType": "address",
          "name": "",
          "type": "address"
        }
      ],
      "stateMutability": "view",
      "type": "function"
    },
    {
      "inputs": [
        {
          "internalType": "address",
          "name": "account",
          "type": "address"
        }
      ],
      "name": "isAdmin",
      "outputs": [
        {
          "internalType": "bool",
          "name": "",
          "type": "bool"
        }
      ],
      "stateMutability": "view",
      "type": "function"
    },
    {
      "inputs": [],
      "name": "isOwner",
      "outputs": [
        {
          "internalType": "bool",
          "name": "",
          "type": "bool"
        }
      ],
      "stateMutability": "view",
      "type": "function"
    },
    {
      "inputs": [],
      "name": "pauseProxy",
      "outputs": [
        {
          "internalType": "bool",
          "name": "",
          "type": "bool"
        }
      ],
      "stateMutability": "view",
      "type": "function"
    },
    {
      "inputs": [
        {
          "internalType": "uint256",
          "name": "",
          "type": "uint256"
        }
      ],
      "name": "proxyImplementation",
      "outputs": [
        {
          "internalType": "address",
          "name": "",
          "type": "address"
        }
      ],
      "stateMutability": "view",
      "type": "function"
    },
    {
      "inputs": [
        {
          "internalType": "address",
          "name": "account",
          "type": "address"
        }
      ],
      "name": "removeAdmin",
      "outputs": [],
      "stateMutability": "nonpayable",
      "type": "function"
    },
    {
      "inputs": [],
      "name": "renounceOwnership",
      "outputs": [],
      "stateMutability": "nonpayable",
      "type": "function"
    },
    {
      "inputs": [
        {
          "internalType": "bytes32",
          "name": "role",
          "type": "bytes32"
        },
        {
          "internalType": "address",
          "name": "account",
          "type": "address"
        }
      ],
      "name": "renounceRole",
      "outputs": [],
      "stateMutability": "nonpayable",
      "type": "function"
    },
    {
      "inputs": [
        {
          "internalType": "bytes32",
          "name": "role",
          "type": "bytes32"
        },
        {
          "internalType": "address",
          "name": "account",
          "type": "address"
        }
      ],
      "name": "revokeRole",
      "outputs": [],
      "stateMutability": "nonpayable",
      "type": "function"
    },
    {
      "inputs": [
        {
          "internalType": "bytes4",
          "name": "",
          "type": "bytes4"
        }
      ],
      "name": "selectorImplementation",
      "outputs": [
        {
          "internalType": "address",
          "name": "",
          "type": "address"
        }
      ],
      "stateMutability": "view",
      "type": "function"
    },
    {
      "inputs": [
        {
          "internalType": "address",
          "name": "newImplementation",
          "type": "address"
        },
        {
          "internalType": "bool",
          "name": "_alive",
          "type": "bool"
        }
      ],
      "name": "setAliveImplementation2",
      "outputs": [],
      "stateMutability": "nonpayable",
      "type": "function"
    },
    {
      "inputs": [
        {
          "internalType": "address",
          "name": "newImplementation",
          "type": "address"
        },
        {
          "internalType": "uint256",
          "name": "_index",
          "type": "uint256"
        },
        {
          "internalType": "bool",
          "name": "_alive",
          "type": "bool"
        }
      ],
      "name": "setImplementation2",
      "outputs": [],
      "stateMutability": "nonpayable",
      "type": "function"
    },
    {
      "inputs": [
        {
          "internalType": "bool",
          "name": "_pause",
          "type": "bool"
        }
      ],
      "name": "setProxyPause",
      "outputs": [],
      "stateMutability": "nonpayable",
      "type": "function"
    },
    {
      "inputs": [
        {
          "internalType": "bytes4[]",
          "name": "_selectors",
          "type": "bytes4[]"
        },
        {
          "internalType": "address",
          "name": "_imp",
          "type": "address"
        }
      ],
      "name": "setSelectorImplementations2",
      "outputs": [],
      "stateMutability": "nonpayable",
      "type": "function"
    },
    {
      "inputs": [
        {
          "internalType": "bytes4",
          "name": "interfaceId",
          "type": "bytes4"
        }
      ],
      "name": "supportsInterface",
      "outputs": [
        {
          "internalType": "bool",
          "name": "",
          "type": "bool"
        }
      ],
      "stateMutability": "view",
      "type": "function"
    },
    {
      "inputs": [
        {
          "internalType": "address",
          "name": "newAdmin",
          "type": "address"
        }
      ],
      "name": "transferAdmin",
      "outputs": [],
      "stateMutability": "nonpayable",
      "type": "function"
    },
    {
      "inputs": [
        {
          "internalType": "address",
          "name": "newAdmin",
          "type": "address"
        }
      ],
      "name": "transferOwnership",
      "outputs": [],
      "stateMutability": "nonpayable",
      "type": "function"
    },
    {
      "inputs": [
        {
          "internalType": "address",
          "name": "impl",
          "type": "address"
        }
      ],
      "name": "upgradeTo",
      "outputs": [],
      "stateMutability": "nonpayable",
      "type": "function"
    },
    {
      "stateMutability": "payable",
      "type": "receive"
    }
  ],
  "bytecode": "0x608060405234801561001057600080fd5b5061001c600033610021565b6100d1565b61002b828261002f565b5050565b60008281526005602090815260408083206001600160a01b038516845290915290205460ff1661002b5760008281526005602090815260408083206001600160a01b03851684529091529020805460ff1916600117905561008d3390565b6001600160a01b0316816001600160a01b0316837f2f8788117e7eff1d82e926ec794901d17c78024a50270940304540a733656f0d60405160405180910390a45050565b61189b806100e06000396000f3fe6080604052600436106101b05760003560e01c806370480275116100ec5780638f32d59b1161008a578063b911135f11610064578063b911135f14610566578063d53913931461059c578063d547741f146105d0578063f2fde38b146105f0576101b7565b80638f32d59b146104c757806391d148541461050b578063a217fddf14610551576101b7565b80637cb00d25116100c65780637cb00d25146104475780637cd5f663146104675780638b8f4a65146104875780638d4fdb40146104a7576101b7565b806370480275146103f2578063715018a61461041257806375829def14610427576101b7565b80633659cfe611610159578063550d01a311610133578063550d01a3146103425780635c60da1b146103725780635cc797d8146103b857806363a8fd89146103d8576101b7565b80633659cfe6146102b45780634a5df50f146102d457806350d2a276146102f4576101b7565b806324d7806c1161018a57806324d7806c146102545780632f2ff15d1461027457806336568abe14610294576101b7565b806301ffc9a7146101c15780631785f53c146101f6578063248a9ca314610216576101b7565b366101b757005b6101bf610610565b005b3480156101cd57600080fd5b506101e16101dc36600461154d565b6106be565b60405190151581526020015b60405180910390f35b34801561020257600080fd5b506101bf61021136600461158e565b6106cf565b34801561022257600080fd5b506102466102313660046115a9565b60009081526005602052604090206001015490565b6040519081526020016101ed565b34801561026057600080fd5b506101e161026f36600461158e565b61072b565b34801561028057600080fd5b506101bf61028f3660046115c2565b61076b565b3480156102a057600080fd5b506101bf6102af3660046115c2565b610790565b3480156102c057600080fd5b506101bf6102cf36600461158e565b61081c565b3480156102e057600080fd5b506101bf6102ef3660046115ee565b610975565b34801561030057600080fd5b5061032a61030f36600461154d565b6003602052600090815260409020546001600160a01b031681565b6040516001600160a01b0390911681526020016101ed565b34801561034e57600080fd5b506101e161035d36600461158e565b60026020526000908152604090205460ff1681565b34801561037e57600080fd5b506000805260016020527fa6eef7e35abe7026729641147f7915573c7e97b47efa546f5f6e3230263bcb49546001600160a01b031661032a565b3480156103c457600080fd5b506101bf6103d3366004611682565b610c22565b3480156103e457600080fd5b506000546101e19060ff1681565b3480156103fe57600080fd5b506101bf61040d36600461158e565b610c7a565b34801561041e57600080fd5b506101bf610cd3565b34801561043357600080fd5b506101bf61044236600461158e565b610d2e565b34801561045357600080fd5b506101bf6104623660046116ac565b610e40565b34801561047357600080fd5b506101bf6104823660046116c7565b610ea1565b34801561049357600080fd5b5061032a6104a23660046115a9565b610efa565b3480156104b357600080fd5b5061032a6104c236600461154d565b610f17565b3480156104d357600080fd5b503360009081527f05b8ccbb9d4d8fb16ea74ce3c29a41f1b461fbdaff4714a0d9a8eb05499746bc602052604090205460ff166101e1565b34801561051757600080fd5b506101e16105263660046115c2565b60009182526005602090815260408084206001600160a01b0393909316845291905290205460ff1690565b34801561055d57600080fd5b50610246600081565b34801561057257600080fd5b5061032a6105813660046115a9565b6001602052600090815260409020546001600160a01b031681565b3480156105a857600080fd5b506102467ff0887ba65ee2024ea881d91b74c2450ef19e1557f03bed3ea9f16b037cbe2dc981565b3480156105dc57600080fd5b506101bf6105eb3660046115c2565b611013565b3480156105fc57600080fd5b506101bf61060b36600461158e565b611038565b60006106276000356001600160e01b031916610f17565b90506001600160a01b03811615801590610644575060005460ff16155b6106955760405162461bcd60e51b815260206004820152601d60248201527f50726f78793a20696d706c204f522070726f78792069732066616c736500000060448201526064015b60405180910390fd5b3660008037600080366000845af43d6000803e8080156106b4573d6000f35b3d6000fd5b505050565b60006106c98261108f565b92915050565b6106d83361072b565b61071d5760405162461bcd60e51b8152602060048201526022602482015260008051602061186f83398151915260448201526134b760f11b606482015260840161068c565b610728600082610790565b50565b6001600160a01b03811660009081527f05b8ccbb9d4d8fb16ea74ce3c29a41f1b461fbdaff4714a0d9a8eb05499746bc602052604081205460ff166106c9565b600082815260056020526040902060010154610786816110b4565b6106b983836110be565b6001600160a01b038116331461080e5760405162461bcd60e51b815260206004820152602f60248201527f416363657373436f6e74726f6c3a2063616e206f6e6c792072656e6f756e636560448201527f20726f6c657320666f722073656c660000000000000000000000000000000000606482015260840161068c565b6108188282611160565b5050565b6108253361072b565b61086a5760405162461bcd60e51b8152602060048201526022602482015260008051602061186f83398151915260448201526134b760f11b606482015260840161068c565b6001600160a01b0381166108c05760405162461bcd60e51b815260206004820152600d60248201527f696e707574206973207a65726f00000000000000000000000000000000000000604482015260640161068c565b6000805260016020527fa6eef7e35abe7026729641147f7915573c7e97b47efa546f5f6e3230263bcb49546001600160a01b038281169116036109315760405162461bcd60e51b815260206004820152600960248201526839b0b6b29030b2323960b91b604482015260640161068c565b61093e81600060016111e3565b6040516001600160a01b038216907fbc7cd75a20ee27fd9adebab32041f755214dbc6bffa90cc0225b39da2e5c2d3b90600090a250565b61097e3361072b565b6109c35760405162461bcd60e51b8152602060048201526022602482015260008051602061186f83398151915260448201526134b760f11b606482015260840161068c565b81610a105760405162461bcd60e51b815260206004820181905260248201527f50726f78793a205f73656c6563746f727327732073697a65206973207a65726f604482015260640161068c565b6001600160a01b03811660009081526002602052604090205460ff16610a785760405162461bcd60e51b815260206004820152601860248201527f50726f78793a205f696d70206973206e6f7420616c6976650000000000000000604482015260640161068c565b60005b82811015610c1c57816001600160a01b031660036000868685818110610aa357610aa36116fa565b9050602002016020810190610ab8919061154d565b6001600160e01b03191681526020810191909152604001600020546001600160a01b031603610b295760405162461bcd60e51b815260206004820152601d60248201527f4c69717569646974795661756c7450726f78793a2073616d6520696d70000000604482015260640161068c565b8160036000868685818110610b4057610b406116fa565b9050602002016020810190610b55919061154d565b6001600160e01b03191681526020810191909152604001600020805473ffffffffffffffffffffffffffffffffffffffff19166001600160a01b039283161790558216848483818110610baa57610baa6116fa565b9050602002016020810190610bbf919061154d565b7bffffffffffffffffffffffffffffffffffffffffffffffffffffffff19167f14ebc1c32aa68f4d766e89f3e546cee249f7df25183fc10ab1568d91c2ce9b7b60405160405180910390a380610c1481611726565b915050610a7b565b50505050565b610c2b3361072b565b610c705760405162461bcd60e51b8152602060048201526022602482015260008051602061186f83398151915260448201526134b760f11b606482015260840161068c565b610818828261127b565b610c833361072b565b610cc85760405162461bcd60e51b8152602060048201526022602482015260008051602061186f83398151915260448201526134b760f11b606482015260840161068c565b61072860008261076b565b610cdc3361072b565b610d215760405162461bcd60e51b8152602060048201526022602482015260008051602061186f83398151915260448201526134b760f11b606482015260840161068c565b610d2c600033610790565b565b610d373361072b565b610d7c5760405162461bcd60e51b8152602060048201526022602482015260008051602061186f83398151915260448201526134b760f11b606482015260840161068c565b6001600160a01b038116610dd25760405162461bcd60e51b815260206004820152601860248201527f41636365737369626c653a207a65726f20616464726573730000000000000000604482015260640161068c565b6001600160a01b0381163303610e2a5760405162461bcd60e51b815260206004820152601660248201527f41636365737369626c653a2073616d652061646d696e00000000000000000000604482015260640161068c565b610e3560008261076b565b610728600033610790565b610e493361072b565b610e8e5760405162461bcd60e51b8152602060048201526022602482015260008051602061186f83398151915260448201526134b760f11b606482015260840161068c565b6000805460ff1916911515919091179055565b610eaa3361072b565b610eef5760405162461bcd60e51b8152602060048201526022602482015260008051602061186f83398151915260448201526134b760f11b606482015260840161068c565b6106b98383836111e3565b6000818152600160205260408120546001600160a01b03166106c9565b6001600160e01b031981166000908152600360205260408120546001600160a01b0316610f775750506000805260016020527fa6eef7e35abe7026729641147f7915573c7e97b47efa546f5f6e3230263bcb49546001600160a01b031690565b6001600160e01b031982166000908152600360209081526040808320546001600160a01b03168352600290915290205460ff1615610fd557506001600160e01b0319166000908152600360205260409020546001600160a01b031690565b50506000805260016020527fa6eef7e35abe7026729641147f7915573c7e97b47efa546f5f6e3230263bcb49546001600160a01b031690565b919050565b60008281526005602052604090206001015461102e816110b4565b6106b98383611160565b6110413361072b565b6110865760405162461bcd60e51b8152602060048201526022602482015260008051602061186f83398151915260448201526134b760f11b606482015260840161068c565b61072881610d2e565b60006001600160e01b03198216637965db0b60e01b14806106c957506106c9826112da565b6107288133611316565b60008281526005602090815260408083206001600160a01b038516845290915290205460ff166108185760008281526005602090815260408083206001600160a01b03851684529091529020805460ff1916600117905561111c3390565b6001600160a01b0316816001600160a01b0316837f2f8788117e7eff1d82e926ec794901d17c78024a50270940304540a733656f0d60405160405180910390a45050565b60008281526005602090815260408083206001600160a01b038516845290915290205460ff16156108185760008281526005602090815260408083206001600160a01b0385168085529252808320805460ff1916905551339285917ff6391f5c32d9c69d2a47ea670b442974b53935d1edc7fd64eb21e047a839171b9190a45050565b6001600160a01b0383163b61123a5760405162461bcd60e51b815260206004820152601b60248201527f50726f78793a206e6f7420636f6e747261637420616464726573730000000000604482015260640161068c565b8015611275576000828152600160205260409020805473ffffffffffffffffffffffffffffffffffffffff19166001600160a01b0385161790555b6106b983825b6001600160a01b038216600081815260026020908152604091829020805460ff191685151590811790915591519182527f72558d9bfba4210f9ef095c782589484151f6d90f7a81bb3cb9b33efc695d324910160405180910390a25050565b60006301ffc9a760e01b6001600160e01b0319831614806106c95750506001600160e01b03191660009081526004602052604090205460ff1690565b60008281526005602090815260408083206001600160a01b038516845290915290205460ff16610818576113498161138b565b61135483602061139d565b604051602001611365929190611763565b60408051601f198184030181529082905262461bcd60e51b825261068c916004016117e4565b60606106c96001600160a01b03831660145b606060006113ac836002611817565b6113b790600261182e565b67ffffffffffffffff8111156113cf576113cf611841565b6040519080825280601f01601f1916602001820160405280156113f9576020820181803683370190505b509050600360fc1b81600081518110611414576114146116fa565b60200101906001600160f81b031916908160001a905350600f60fb1b81600181518110611443576114436116fa565b60200101906001600160f81b031916908160001a9053506000611467846002611817565b61147290600161182e565b90505b60018111156114f7577f303132333435363738396162636465660000000000000000000000000000000085600f16601081106114b3576114b36116fa565b1a60f81b8282815181106114c9576114c96116fa565b60200101906001600160f81b031916908160001a90535060049490941c936114f081611857565b9050611475565b5083156115465760405162461bcd60e51b815260206004820181905260248201527f537472696e67733a20686578206c656e67746820696e73756666696369656e74604482015260640161068c565b9392505050565b60006020828403121561155f57600080fd5b81356001600160e01b03198116811461154657600080fd5b80356001600160a01b038116811461100e57600080fd5b6000602082840312156115a057600080fd5b61154682611577565b6000602082840312156115bb57600080fd5b5035919050565b600080604083850312156115d557600080fd5b823591506115e560208401611577565b90509250929050565b60008060006040848603121561160357600080fd5b833567ffffffffffffffff8082111561161b57600080fd5b818601915086601f83011261162f57600080fd5b81358181111561163e57600080fd5b8760208260051b850101111561165357600080fd5b6020928301955093506116699186019050611577565b90509250925092565b8035801515811461100e57600080fd5b6000806040838503121561169557600080fd5b61169e83611577565b91506115e560208401611672565b6000602082840312156116be57600080fd5b61154682611672565b6000806000606084860312156116dc57600080fd5b6116e584611577565b92506020840135915061166960408501611672565b634e487b7160e01b600052603260045260246000fd5b634e487b7160e01b600052601160045260246000fd5b60006001820161173857611738611710565b5060010190565b60005b8381101561175a578181015183820152602001611742565b50506000910152565b7f416363657373436f6e74726f6c3a206163636f756e742000000000000000000081526000835161179b81601785016020880161173f565b7f206973206d697373696e6720726f6c652000000000000000000000000000000060179184019182015283516117d881602884016020880161173f565b01602801949350505050565b602081526000825180602084015261180381604085016020870161173f565b601f01601f19169190910160400192915050565b80820281158282048414176106c9576106c9611710565b808201808211156106c9576106c9611710565b634e487b7160e01b600052604160045260246000fd5b60008161186657611866611710565b50600019019056fe41636365737369626c653a2043616c6c6572206973206e6f7420616e2061646da164736f6c6343000813000a",
  "linkReferences": {},
  "deployedLinkReferences": {}
}