{
  "_format": "hh-sol-artifact-1",
  "contractName": "L1BridgeRegistryStorage",
  "sourceName": "contracts/layer2/L1BridgeRegistryStorage.sol",
  "abi": [
    {
      "inputs": [
        {
          "internalType": "address",
          "name": "",
          "type": "address"
        }
      ],
      "name": "l1Bridge",
      "outputs": [
        {
          "internalType": "bool",
          "name": "",
          "type": "bool"
        }
      ],
      "stateMutability": "view",
      "type": "function"
    },
    {
      "inputs": [],
      "name": "layer2Manager",
      "outputs": [
        {
          "internalType": "address",
          "name": "",
          "type": "address"
        }
      ],
      "stateMutability": "view",
      "type": "function"
    },
    {
      "inputs": [
        {
          "internalType": "address",
          "name": "",
          "type": "address"
        }
      ],
      "name": "portal",
      "outputs": [
        {
          "internalType": "bool",
          "name": "",
          "type": "bool"
        }
      ],
      "stateMutability": "view",
      "type": "function"
    },
    {
      "inputs": [
        {
          "internalType": "bytes32",
          "name": "",
          "type": "bytes32"
        }
      ],
      "name": "registeredNames",
      "outputs": [
        {
          "internalType": "bool",
          "name": "",
          "type": "bool"
        }
      ],
      "stateMutability": "view",
      "type": "function"
    },
    {
      "inputs": [
        {
          "internalType": "address",
          "name": "",
          "type": "address"
        }
      ],
      "name": "rollupInfo",
      "outputs": [
        {
          "internalType": "uint8",
          "name": "rollupType",
          "type": "uint8"
        },
        {
          "internalType": "address",
          "name": "l2TON",
          "type": "address"
        },
        {
          "internalType": "bool",
          "name": "rejectedSeigs",
          "type": "bool"
        },
        {
          "internalType": "bool",
          "name": "rejectedL2Deposit",
          "type": "bool"
        },
        {
          "internalType": "string",
          "name": "name",
          "type": "string"
        }
      ],
      "stateMutability": "view",
      "type": "function"
    },
    {
      "inputs": [],
      "name": "seigManager",
      "outputs": [
        {
          "internalType": "address",
          "name": "",
          "type": "address"
        }
      ],
      "stateMutability": "view",
      "type": "function"
    },
    {
      "inputs": [],
      "name": "seigniorageCommittee",
      "outputs": [
        {
          "internalType": "address",
          "name": "",
          "type": "address"
        }
      ],
      "stateMutability": "view",
      "type": "function"
    },
    {
      "inputs": [],
      "name": "ton",
      "outputs": [
        {
          "internalType": "address",
          "name": "",
          "type": "address"
        }
      ],
      "stateMutability": "view",
      "type": "function"
    }
  ],
  "bytecode": "0x608080604052346100165761037a908161001c8239f35b600080fdfe608060408181526004908136101561001657600080fd5b600092833560e01c90816316b5d5bd146103495750806325b9535f1461031c57806335583e6c146102f35780636fb7f558146102ca578063a2cc09791461028b578063b30347c01461024c578063cc48b9471461021f5763d3c215d81461007c57600080fd5b34610218576020928360031936011261021c576001600160a01b03938335858116908190036102185782528381528282209283549060018095019681519585908954998a821c9a828116801561020e575b888d1081146101fb578c8b529081156101d957506001146101a0575b5050869003601f01601f19908116870198509667ffffffffffffffff8911878a101761018d5750918188969795938760ff945283831688528260081c1685880152828260a81c1615159087015260b01c161515606085015260a060808501528451918260a086015281955b83871061017457505060c0945090601f9185828601015201168101030190f35b86810182015188880160c0015295810195879550610154565b634e487b7160e01b865260419052602485fd5b9099915086528486209886995b828b106101c657505050838697988701018897386100e9565b8054898c018801529986019981016101ad565b60ff19168a8901525098998a9950151560051b880186019150879050386100e9565b634e487b7160e01b8a5260228c5260248afd5b9b607f169b6100cd565b8280fd5b80fd5b83823461024857816003193601126102485760025490516001600160a01b039091168152602090f35b5080fd5b50903461021857602036600319011261021857356001600160a01b0381169081900361021857818360ff92602095526005855220541690519015158152f35b50903461021857602036600319011261021857356001600160a01b0381169081900361021857818360ff92602095526006855220541690519015158152f35b83823461024857816003193601126102485760015490516001600160a01b039091168152602090f35b83823461024857816003193601126102485760035490516001600160a01b039091168152602090f35b509034610218576020366003190112610218578160209360ff923581526007855220541690519015158152f35b84903461024857816003193601126102485790546001600160a01b03168152602090f3fea164736f6c6343000813000a",
  "linkReferences": {},
  "deployedLinkReferences": {}
}