{
  "_format": "hh-sol-artifact-1",
  "contractName": "L1BridgeRegistryStorage",
  "sourceName": "contracts/layer2/L1BridgeRegistryStorage.sol",
  "abi": [
    {
      "inputs": [
        {
          "internalType": "address",
          "name": "",
          "type": "address"
        }
      ],
      "name": "l1Bridge",
      "outputs": [
        {
          "internalType": "bool",
          "name": "",
          "type": "bool"
        }
      ],
      "stateMutability": "view",
      "type": "function"
    },
    {
      "inputs": [],
      "name": "layer2Manager",
      "outputs": [
        {
          "internalType": "address",
          "name": "",
          "type": "address"
        }
      ],
      "stateMutability": "view",
      "type": "function"
    },
    {
      "inputs": [
        {
          "internalType": "address",
          "name": "",
          "type": "address"
        }
      ],
      "name": "portal",
      "outputs": [
        {
          "internalType": "bool",
          "name": "",
          "type": "bool"
        }
      ],
      "stateMutability": "view",
      "type": "function"
    },
    {
      "inputs": [],
      "name": "seigManager",
      "outputs": [
        {
          "internalType": "address",
          "name": "",
          "type": "address"
        }
      ],
      "stateMutability": "view",
      "type": "function"
    },
    {
      "inputs": [
        {
          "internalType": "address",
          "name": "",
          "type": "address"
        }
      ],
      "name": "systemConfigType",
      "outputs": [
        {
          "internalType": "uint8",
          "name": "",
          "type": "uint8"
        }
      ],
      "stateMutability": "view",
      "type": "function"
    },
    {
      "inputs": [],
      "name": "ton",
      "outputs": [
        {
          "internalType": "address",
          "name": "",
          "type": "address"
        }
      ],
      "stateMutability": "view",
      "type": "function"
    }
  ],
  "bytecode": "0x60808060405234610016576101aa908161001c8239f35b600080fdfe60806040818152600436101561001457600080fd5b600091823560e01c90816316b5d5bd14610179575080636fb7f55814610151578063a2cc097914610111578063b30347c0146100d1578063cc48b947146100a95763f1b538b21461006457600080fd5b346100a55760203660031901126100a5576004356001600160a01b038116908190036100a157818360ff9260209552600385522054169051908152f35b8280fd5b5080fd5b50346100a557816003193601126100a55760025490516001600160a01b039091168152602090f35b50346100a55760203660031901126100a5576004356001600160a01b038116908190036100a157818360ff92602095526004855220541690519015158152f35b50346100a55760203660031901126100a5576004356001600160a01b038116908190036100a157818360ff92602095526005855220541690519015158152f35b50346100a557816003193601126100a55760015490516001600160a01b039091168152602090f35b8390346100a557816003193601126100a55790546001600160a01b03168152602090f3fea164736f6c6343000813000a",
  "linkReferences": {},
  "deployedLinkReferences": {}
}