{
  "_format": "hh-sol-artifact-1",
  "contractName": "L1BridgeRegistryStorage",
  "sourceName": "contracts/layer2/L1BridgeRegistryStorage.sol",
  "abi": [
    {
      "inputs": [
        {
          "internalType": "address",
          "name": "",
          "type": "address"
        }
      ],
      "name": "l1Bridge",
      "outputs": [
        {
          "internalType": "bool",
          "name": "",
          "type": "bool"
        }
      ],
      "stateMutability": "view",
      "type": "function"
    },
    {
      "inputs": [
        {
          "internalType": "address",
          "name": "",
          "type": "address"
        }
      ],
      "name": "l2TON",
      "outputs": [
        {
          "internalType": "address",
          "name": "",
          "type": "address"
        }
      ],
      "stateMutability": "view",
      "type": "function"
    },
    {
      "inputs": [],
      "name": "layer2Manager",
      "outputs": [
        {
          "internalType": "address",
          "name": "",
          "type": "address"
        }
      ],
      "stateMutability": "view",
      "type": "function"
    },
    {
      "inputs": [
        {
          "internalType": "address",
          "name": "",
          "type": "address"
        }
      ],
      "name": "portal",
      "outputs": [
        {
          "internalType": "bool",
          "name": "",
          "type": "bool"
        }
      ],
      "stateMutability": "view",
      "type": "function"
    },
    {
      "inputs": [
        {
          "internalType": "address",
          "name": "",
          "type": "address"
        }
      ],
      "name": "rejectRollupConfig",
      "outputs": [
        {
          "internalType": "bool",
          "name": "",
          "type": "bool"
        }
      ],
      "stateMutability": "view",
      "type": "function"
    },
    {
      "inputs": [
        {
          "internalType": "address",
          "name": "",
          "type": "address"
        }
      ],
      "name": "rollupType",
      "outputs": [
        {
          "internalType": "uint8",
          "name": "",
          "type": "uint8"
        }
      ],
      "stateMutability": "view",
      "type": "function"
    },
    {
      "inputs": [],
      "name": "seigManager",
      "outputs": [
        {
          "internalType": "address",
          "name": "",
          "type": "address"
        }
      ],
      "stateMutability": "view",
      "type": "function"
    },
    {
      "inputs": [],
      "name": "seigniorageCommittee",
      "outputs": [
        {
          "internalType": "address",
          "name": "",
          "type": "address"
        }
      ],
      "stateMutability": "view",
      "type": "function"
    },
    {
      "inputs": [],
      "name": "ton",
      "outputs": [
        {
          "internalType": "address",
          "name": "",
          "type": "address"
        }
      ],
      "stateMutability": "view",
      "type": "function"
    }
  ],
  "bytecode": "0x6080806040523461001657610275908161001c8239f35b600080fdfe608060408181526004918236101561001657600080fd5b600092833560e01c91826316b5d5bd14610244575081632977c31f1461020557816335583e6c146101dc578163391e3b371461019f5781634b7aa5d4146101625781636fb7f55814610139578163a2cc0979146100fa578163b30347c0146100b3575063cc48b9471461008857600080fd5b346100af57816003193601126100af5760025490516001600160a01b039091168152602090f35b5080fd5b9050346100f65760203660031901126100f65780356001600160a01b038116908190036100f2578360ff92849260209652855220541690519015158152f35b8380fd5b8280fd5b9050346100f65760203660031901126100f657356001600160a01b038116908190036100f657818360ff92602095526005855220541690519015158152f35b5050346100af57816003193601126100af5760015490516001600160a01b039091168152602090f35b9050346100f65760203660031901126100f6576001600160a01b039035818116908190036100f25783839160209552600885522054169051908152f35b9050346100f65760203660031901126100f657356001600160a01b038116908190036100f657818360ff9260209552600385522054169051908152f35b5050346100af57816003193601126100af5760075490516001600160a01b039091168152602090f35b9050346100f65760203660031901126100f657356001600160a01b038116908190036100f657818360ff92602095526006855220541690519015158152f35b8490346100af57816003193601126100af5790546001600160a01b03168152602090f3fea164736f6c6343000813000a",
  "linkReferences": {},
  "deployedLinkReferences": {}
}