{
  "_format": "hh-sol-artifact-1",
  "contractName": "L1BridgeRegistryStorage",
  "sourceName": "contracts/layer2/L1BridgeRegistryStorage.sol",
  "abi": [
    {
      "inputs": [
        {
          "internalType": "address",
          "name": "",
          "type": "address"
        }
      ],
      "name": "l1Bridge",
      "outputs": [
        {
          "internalType": "bool",
          "name": "",
          "type": "bool"
        }
      ],
      "stateMutability": "view",
      "type": "function"
    },
    {
      "inputs": [],
      "name": "layer2Manager",
      "outputs": [
        {
          "internalType": "address",
          "name": "",
          "type": "address"
        }
      ],
      "stateMutability": "view",
      "type": "function"
    },
    {
      "inputs": [
        {
          "internalType": "address",
          "name": "",
          "type": "address"
        }
      ],
      "name": "portal",
      "outputs": [
        {
          "internalType": "bool",
          "name": "",
          "type": "bool"
        }
      ],
      "stateMutability": "view",
      "type": "function"
    },
    {
      "inputs": [
        {
          "internalType": "address",
          "name": "",
          "type": "address"
        }
      ],
      "name": "rollupType",
      "outputs": [
        {
          "internalType": "uint8",
          "name": "",
          "type": "uint8"
        }
      ],
      "stateMutability": "view",
      "type": "function"
    },
    {
      "inputs": [],
      "name": "seigManager",
      "outputs": [
        {
          "internalType": "address",
          "name": "",
          "type": "address"
        }
      ],
      "stateMutability": "view",
      "type": "function"
    },
    {
      "inputs": [],
      "name": "ton",
      "outputs": [
        {
          "internalType": "address",
          "name": "",
          "type": "address"
        }
      ],
      "stateMutability": "view",
      "type": "function"
    }
  ],
  "bytecode": "0x60808060405234610016576101aa908161001c8239f35b600080fdfe60806040818152600436101561001457600080fd5b600091823560e01c90816316b5d5bd1461017957508063391e3b371461013b5780636fb7f55814610113578063a2cc0979146100d3578063b30347c01461008f5763cc48b9471461006457600080fd5b3461008b578160031936011261008b5760025490516001600160a01b039091168152602090f35b5080fd5b503461008b57602036600319011261008b576004356001600160a01b038116908190036100cf57818360ff92602095526004855220541690519015158152f35b8280fd5b503461008b57602036600319011261008b576004356001600160a01b038116908190036100cf57818360ff92602095526005855220541690519015158152f35b503461008b578160031936011261008b5760015490516001600160a01b039091168152602090f35b503461008b57602036600319011261008b576004356001600160a01b038116908190036100cf57818360ff9260209552600385522054169051908152f35b83903461008b578160031936011261008b5790546001600160a01b03168152602090f3fea164736f6c6343000813000a",
  "linkReferences": {},
  "deployedLinkReferences": {}
}