{
  "_format": "hh-sol-artifact-1",
  "contractName": "PowerTONHammerDAOStorage",
  "sourceName": "contracts/stake/powerton/PowerTONHammerDAOStorage.sol",
  "abi": [
    {
      "inputs": [],
      "name": "dividiedPool",
      "outputs": [
        {
          "internalType": "contract ILockTOSDividend",
          "name": "",
          "type": "address"
        }
      ],
      "stateMutability": "view",
      "type": "function"
    }
  ],
  "bytecode": "0x608080604052346014576059908161001a8239f35b600080fdfe6080806040526004361015601257600080fd5b600090813560e01c63784330c014602857600080fd5b346048578160031936011260485790546001600160a01b03168152602090f35b5080fdfea164736f6c6343000813000a",
  "deployedBytecode": "0x6080806040526004361015601257600080fd5b600090813560e01c63784330c014602857600080fd5b346048578160031936011260485790546001600160a01b03168152602090f35b5080fdfea164736f6c6343000813000a",
  "linkReferences": {},
  "deployedLinkReferences": {}
}