{
  "_format": "hh-sol-artifact-1",
  "contractName": "PowerTONHammerDAOStorage",
  "sourceName": "contracts/stake/powerton/PowerTONHammerDAOStorage.sol",
  "abi": [
    {
      "inputs": [],
      "name": "dividiedPool",
      "outputs": [
        {
          "internalType": "contract ILockTOSDividend",
          "name": "",
          "type": "address"
        }
      ],
      "stateMutability": "view",
      "type": "function"
    }
  ],
  "bytecode": "0x6080604052348015600f57600080fd5b5060688061001e6000396000f3fe6080604052348015600f57600080fd5b506004361060285760003560e01c8063784330c014602d575b600080fd5b600054603f906001600160a01b031681565b6040516001600160a01b03909116815260200160405180910390f3fea164736f6c6343000813000a",
  "linkReferences": {},
  "deployedLinkReferences": {}
}