{
  "contractName": "CandidateFactory",
  "abi": [
    {
      "inputs": [
        {
          "internalType": "address",
          "name": "_candidate",
          "type": "address"
        },
        {
          "internalType": "bool",
          "name": "_isLayer2Candidate",
          "type": "bool"
        },
        {
          "internalType": "string",
          "name": "_name",
          "type": "string"
        },
        {
          "internalType": "address",
          "name": "_committee",
          "type": "address"
        },
        {
          "internalType": "address",
          "name": "_seigManager",
          "type": "address"
        }
      ],
      "name": "deploy",
      "outputs": [
        {
          "internalType": "address",
          "name": "",
          "type": "address"
        }
      ],
      "stateMutability": "nonpayable",
      "type": "function"
    }
  ],
  "bytecode": "0x608060405234801561001057600080fd5b50611cd0806100206000396000f3fe608060405234801561001057600080fd5b506004361061002b5760003560e01c8063e64a31f614610030575b600080fd5b610103600480360360a081101561004657600080fd5b6001600160a01b0382351691602081013515159181019060608101604082013564010000000081111561007857600080fd5b82018360208201111561008a57600080fd5b803590602001918460018302840111640100000000831117156100ac57600080fd5b91908080601f016020809104026020016040519081016040528093929190818152602001838380828437600092019190915250929550506001600160a01b03833581169450602090930135909216915061011f9050565b604080516001600160a01b039092168252519081900360200190f35b600080868686868660405161013390610269565b80866001600160a01b03168152602001851515815260200180602001846001600160a01b03168152602001836001600160a01b03168152602001828103825285818151815260200191508051906020019080838360005b838110156101a257818101518382015260200161018a565b50505050905090810190601f1680156101cf5780820380516001836020036101000a031916815260200191505b509650505050505050604051809103906000f0801580156101f4573d6000803e3d6000fd5b509050806001600160a01b031663f2fde38b856040518263ffffffff1660e01b815260040180826001600160a01b03168152602001915050600060405180830381600087803b15801561024657600080fd5b505af115801561025a573d6000803e3d6000fd5b50929998505050505050505050565b611a24806102778339019056fe60806040523480156200001157600080fd5b5060405162001a2438038062001a24833981810160405260a08110156200003757600080fd5b815160208301516040808501805191519395929483019291846401000000008211156200006357600080fd5b9083019060208201858111156200007957600080fd5b82516401000000008111828201881017156200009457600080fd5b82525081516020918201929091019080838360005b83811015620000c3578181015183820152602001620000a9565b50505050905090810190601f168015620000f15780820380516001836020036101000a031916815260200191505b5060409081526020820151910151909250905060006200011062000342565b600080546001600160a01b0319166001600160a01b0383169081178255604051929350917f8be0079c531659141344cd1fd0a4f28419497f9722a3daafe3b4186f6b6457e0908290a3506200016c6301ffc9a760e01b62000346565b6001600160a01b0385161515806200018c57506001600160a01b03821615155b80620001a057506001600160a01b03811615155b620001f2576040805162461bcd60e51b815260206004820152601860248201527f43616e6469646174653a20696e707574206973207a65726f0000000000000000604482015290519081900360640190fd5b60028054610100600160a81b0319166101006001600160a01b038816021760ff1916851515179081905560ff1615620002df57600260019054906101000a90046001600160a01b03166001600160a01b031663882eed2c6040518163ffffffff1660e01b815260040160206040518083038186803b1580156200027457600080fd5b505afa15801562000289573d6000803e3d6000fd5b505050506040513d6020811015620002a057600080fd5b5051620002df5760405162461bcd60e51b815260040180806020018281038252602281526020018062001a026022913960400191505060405180910390fd5b600480546001600160a01b038085166001600160a01b0319928316179092556005805492841692909116919091179055825162000324906003906020860190620003ce565b5062000337631dffc87160e21b62000346565b50505050506200047a565b3390565b6001600160e01b03198082161415620003a6576040805162461bcd60e51b815260206004820152601c60248201527f4552433136353a20696e76616c696420696e7465726661636520696400000000604482015290519081900360640190fd5b6001600160e01b0319166000908152600160208190526040909120805460ff19169091179055565b828054600181600116156101000203166002900490600052602060002090601f01602090048101928262000406576000855562000451565b82601f106200042157805160ff191683800117855562000451565b8280016001018555821562000451579182015b828111156200045157825182559160200191906001019062000434565b506200045f92915062000463565b5090565b5b808211156200045f576000815560010162000464565b611578806200048a6000396000f3fe608060405234801561001057600080fd5b50600436106101735760003560e01c8063764a7856116100de5780638da5cb5b11610097578063bddae40e11610071578063bddae40e14610450578063c4ef9c0014610476578063d864e7401461047e578063f2fde38b1461048657610173565b80638da5cb5b1461041a5780639b63826814610422578063af500ba31461042a57610173565b8063764a7856146103d45780637657f20a146103dc57806377ff21c414610402578063817b1cd21461040a578063882eed2c146104025780638bf7a3ab1461041257610173565b806325d608611161013057806325d60861146102ab578063570ca7351461031b57806358c3b8701461033f5780636c8381f8146103bc5780636fb7f558146103c4578063715018a6146103cc57610173565b806301ffc9a71461017857806306394c9b146101b357806311e4c914146101db57806311f19e041461020a578063183d2d1c1461022757806324f99b1e1461022f575b600080fd5b61019f6004803603602081101561018e57600080fd5b50356001600160e01b0319166104ac565b604080519115158252519081900360200190f35b6101d9600480360360208110156101c957600080fd5b50356001600160a01b03166104cb565b005b6101f8600480360360208110156101f157600080fd5b50356104ce565b60408051918252519081900360200190f35b61019f6004803603602081101561022057600080fd5b50356104d4565b6101f8610682565b6101d96004803603606081101561024557600080fd5b81359160208101359181019060608101604082013564010000000081111561026c57600080fd5b82018360208201111561027e57600080fd5b803590602001918460018302840111640100000000831117156102a057600080fd5b509092509050610687565b6101d9600480360360208110156102c157600080fd5b8101906020810181356401000000008111156102dc57600080fd5b8201836020820111156102ee57600080fd5b8035906020019184600183028401116401000000008311171561031057600080fd5b50909250905061085c565b6103236108c5565b604080516001600160a01b039092168252519081900360200190f35b6103476108d9565b6040805160208082528351818301528351919283929083019185019080838360005b83811015610381578181015183820152602001610369565b50505050905090810190601f1680156103ae5780820380516001836020036101000a031916815260200191505b509250505060405180910390f35b610323610967565b61032361097b565b6101d961098a565b61019f610a2c565b6101d9600480360360208110156103f257600080fd5b50356001600160a01b0316610b4f565b61019f610682565b6101f8610c1f565b6101d9610c97565b610323610eec565b61019f610efb565b6101f86004803603602081101561044057600080fd5b50356001600160a01b0316610f04565b6101d96004803603602081101561046657600080fd5b50356001600160a01b0316610f91565b61019f611061565b6103236111d4565b6101d96004803603602081101561049c57600080fd5b50356001600160a01b03166111e3565b6001600160e01b03191660009081526001602052604090205460ff1690565b50565b50600190565b60025460009060ff16156105b6576000600260019054906101000a90046001600160a01b03169050336001600160a01b0316816001600160a01b031663570ca7356040518163ffffffff1660e01b815260040160206040518083038186803b15801561053f57600080fd5b505afa158015610553573d6000803e3d6000fd5b505050506040513d602081101561056957600080fd5b50516001600160a01b0316146105b05760405162461bcd60e51b815260040180806020018281038252603681526020018061150d6036913960400191505060405180910390fd5b50610604565b60025461010090046001600160a01b031633146106045760405162461bcd60e51b81526004018080602001828103825260378152602001806114796037913960400191505060405180910390fd5b600480546040805163047c678160e21b8152928301859052516001600160a01b03909116916311f19e049160248083019260209291908290030181600087803b15801561065057600080fd5b505af1158015610664573d6000803e3d6000fd5b505050506040513d602081101561067a57600080fd5b505192915050565b600190565b60025460ff1615610766576000600260019054906101000a90046001600160a01b03169050336001600160a01b0316816001600160a01b031663570ca7356040518163ffffffff1660e01b815260040160206040518083038186803b1580156106ef57600080fd5b505afa158015610703573d6000803e3d6000fd5b505050506040513d602081101561071957600080fd5b50516001600160a01b0316146107605760405162461bcd60e51b815260040180806020018281038252603681526020018061150d6036913960400191505060405180910390fd5b506107b4565b60025461010090046001600160a01b031633146107b45760405162461bcd60e51b81526004018080602001828103825260378152602001806114796037913960400191505060405180910390fd5b6004805460405163127ccd8f60e11b815291820186815260248301869052606060448401908152606484018590526001600160a01b03909216926324f99b1e92889288928892889291608401848480828437600081840152601f19601f82011690508083019250505095505050505050600060405180830381600087803b15801561083e57600080fd5b505af1158015610852573d6000803e3d6000fd5b5050505050505050565b6108646112db565b6000546001600160a01b039081169116146108b4576040805162461bcd60e51b815260206004820181905260248201526000805160206114ed833981519152604482015290519081900360640190fd5b6108c0600383836113b1565b505050565b60025461010090046001600160a01b031690565b6003805460408051602060026001851615610100026000190190941693909304601f8101849004840282018401909252818152929183018282801561095f5780601f106109345761010080835404028352916020019161095f565b820191906000526020600020905b81548152906001019060200180831161094257829003601f168201915b505050505081565b60025461010090046001600160a01b031681565b6005546001600160a01b031681565b6109926112db565b6000546001600160a01b039081169116146109e2576040805162461bcd60e51b815260206004820181905260248201526000805160206114ed833981519152604482015290519081900360640190fd5b600080546040516001600160a01b03909116907f8be0079c531659141344cd1fd0a4f28419497f9722a3daafe3b4186f6b6457e0908390a3600080546001600160a01b0319169055565b6005546000906001600160a01b0316610a8c576040805162461bcd60e51b815260206004820152601e60248201527f43616e6469646174653a20536569674d616e61676572206973207a65726f0000604482015290519081900360640190fd5b60025460ff1615610ace5760405162461bcd60e51b815260040180806020018281038252603d8152602001806114b0603d913960400191505060405180910390fd5b600560009054906101000a90046001600160a01b03166001600160a01b031663764a78566040518163ffffffff1660e01b8152600401602060405180830381600087803b158015610b1e57600080fd5b505af1158015610b32573d6000803e3d6000fd5b505050506040513d6020811015610b4857600080fd5b5051905090565b610b576112db565b6000546001600160a01b03908116911614610ba7576040805162461bcd60e51b815260206004820181905260248201526000805160206114ed833981519152604482015290519081900360640190fd5b6001600160a01b038116610bfd576040805162461bcd60e51b815260206004820152601860248201527743616e6469646174653a20696e707574206973207a65726f60401b604482015290519081900360640190fd5b600580546001600160a01b0319166001600160a01b0392909216919091179055565b600080610c2a6112df565b9050806001600160a01b03166318160ddd6040518163ffffffff1660e01b815260040160206040518083038186803b158015610c6557600080fd5b505afa158015610c79573d6000803e3d6000fd5b505050506040513d6020811015610c8f57600080fd5b505191505090565b60025460ff1615610d76576000600260019054906101000a90046001600160a01b03169050336001600160a01b0316816001600160a01b031663570ca7356040518163ffffffff1660e01b815260040160206040518083038186803b158015610cff57600080fd5b505afa158015610d13573d6000803e3d6000fd5b505050506040513d6020811015610d2957600080fd5b50516001600160a01b031614610d705760405162461bcd60e51b815260040180806020018281038252603681526020018061150d6036913960400191505060405180910390fd5b50610dc4565b60025461010090046001600160a01b03163314610dc45760405162461bcd60e51b81526004018080602001828103825260378152602001806114796037913960400191505060405180910390fd5b60025460009060ff1615610e5a576000600260019054906101000a90046001600160a01b03169050806001600160a01b031663570ca7356040518163ffffffff1660e01b815260040160206040518083038186803b158015610e2557600080fd5b505afa158015610e39573d6000803e3d6000fd5b505050506040513d6020811015610e4f57600080fd5b50519150610e6d9050565b5060025461010090046001600160a01b03165b600460009054906101000a90046001600160a01b03166001600160a01b0316636becff27826040518263ffffffff1660e01b815260040180826001600160a01b03168152602001915050600060405180830381600087803b158015610ed157600080fd5b505af1158015610ee5573d6000803e3d6000fd5b5050505050565b6000546001600160a01b031690565b60025460ff1681565b600080610f0f6112df565b9050806001600160a01b03166370a08231846040518263ffffffff1660e01b815260040180826001600160a01b0316815260200191505060206040518083038186803b158015610f5e57600080fd5b505afa158015610f72573d6000803e3d6000fd5b505050506040513d6020811015610f8857600080fd5b50519392505050565b610f996112db565b6000546001600160a01b03908116911614610fe9576040805162461bcd60e51b815260206004820181905260248201526000805160206114ed833981519152604482015290519081900360640190fd5b6001600160a01b03811661103f576040805162461bcd60e51b815260206004820152601860248201527743616e6469646174653a20696e707574206973207a65726f60401b604482015290519081900360640190fd5b600480546001600160a01b0319166001600160a01b0392909216919091179055565b60025460009060ff1615611143576000600260019054906101000a90046001600160a01b03169050336001600160a01b0316816001600160a01b031663570ca7356040518163ffffffff1660e01b815260040160206040518083038186803b1580156110cc57600080fd5b505afa1580156110e0573d6000803e3d6000fd5b505050506040513d60208110156110f657600080fd5b50516001600160a01b03161461113d5760405162461bcd60e51b815260040180806020018281038252603681526020018061150d6036913960400191505060405180910390fd5b50611191565b60025461010090046001600160a01b031633146111915760405162461bcd60e51b81526004018080602001828103825260378152602001806114796037913960400191505060405180910390fd5b600480546040805162313be760ea1b815290516001600160a01b039092169263c4ef9c009282820192602092908290030181600087803b158015610b1e57600080fd5b6004546001600160a01b031681565b6111eb6112db565b6000546001600160a01b0390811691161461123b576040805162461bcd60e51b815260206004820181905260248201526000805160206114ed833981519152604482015290519081900360640190fd5b6001600160a01b0381166112805760405162461bcd60e51b81526004018080602001828103825260268152602001806114536026913960400191505060405180910390fd5b600080546040516001600160a01b03808516939216917f8be0079c531659141344cd1fd0a4f28419497f9722a3daafe3b4186f6b6457e091a3600080546001600160a01b0319166001600160a01b0392909216919091179055565b3390565b600254600090819060ff1615611306575060025461010090046001600160a01b0316611309565b50305b6001600160a01b038116611364576040805162461bcd60e51b815260206004820152601a60248201527f43616e6469646174653a20636f696e616765206973207a65726f000000000000604482015290519081900360640190fd5b60055460408051634c063c1960e01b81526001600160a01b03848116600483015291519190921691634c063c19916024808301926020929190829003018186803b158015610c6557600080fd5b828054600181600116156101000203166002900490600052602060002090601f0160209004810192826113e7576000855561142d565b82601f106114005782800160ff1982351617855561142d565b8280016001018555821561142d579182015b8281111561142d578235825591602001919060010190611412565b5061143992915061143d565b5090565b5b80821115611439576000815560010161143e56fe4f776e61626c653a206e6577206f776e657220697320746865207a65726f206164647265737343616e6469646174653a2073656e646572206973206e6f74207468652063616e646964617465206f66207468697320636f6e747261637443616e6469646174653a20796f752073686f756c642075706461746520736569676e696f726167652066726f6d206c617965723220636f6e74726163744f776e61626c653a2063616c6c6572206973206e6f7420746865206f776e657243616e6469646174653a2073656e646572206973206e6f7420746865206f70657261746f72206f66207468697320636f6e7472616374a26469706673582212204ebb78d54ad8e64537e685261438c4c88e2ac2bb326eff9b315a531466873fe364736f6c6343000706003343616e6469646174653a20696e76616c6964206c617965723220636f6e7472616374a2646970667358221220e1b148fdbad1edb9f80949a2573a679f966ae6994e06aa43c08b05619e2eefad64736f6c63430007060033",
  "immutableReferences": {},
  "source": "// SPDX-License-Identifier: MIT\npragma solidity ^0.7.6;\n\nimport { Candidate } from \"../dao/Candidate.sol\";\nimport { ICandidateFactory } from \"../interfaces/ICandidateFactory.sol\";\n\ncontract CandidateFactory is ICandidateFactory {\n    function deploy(\n        address _candidate,\n        bool _isLayer2Candidate,\n        string memory _name,\n        address _committee,\n        address _seigManager\n    )\n        public\n        override\n        returns (address)\n    {\n        Candidate c = new Candidate(\n            _candidate,\n            _isLayer2Candidate,\n            _name,\n            _committee,\n            _seigManager\n        );\n        c.transferOwnership(_committee);\n        return address(c);\n    }\n}\n",
  "sourcePath": "/data/github/onther/tokamak-dao-contracts3/contracts/factory/CandidateFactory.sol",
  "compiler": {
    "name": "solc",
    "version": "0.7.6+commit.7338295f.Emscripten.clang"
  },
  "schemaVersion": "3.3.2",
  "updatedAt": "2021-02-26T01:24:56.079Z",
  "networkType": "ethereum",
  "devdoc": {
    "kind": "dev",
    "methods": {},
    "version": 1
  },
  "userdoc": {
    "kind": "user",
    "methods": {},
    "version": 1
  }
}