{
  "contractName": "DAOAgendaManager",
  "abi": [
    {
      "inputs": [],
      "stateMutability": "nonpayable",
      "type": "constructor"
    },
    {
      "anonymous": false,
      "inputs": [
        {
          "indexed": true,
          "internalType": "uint256",
          "name": "agendaID",
          "type": "uint256"
        },
        {
          "indexed": false,
          "internalType": "uint256",
          "name": "result",
          "type": "uint256"
        }
      ],
      "name": "AgendaResultChanged",
      "type": "event"
    },
    {
      "anonymous": false,
      "inputs": [
        {
          "indexed": true,
          "internalType": "uint256",
          "name": "agendaID",
          "type": "uint256"
        },
        {
          "indexed": false,
          "internalType": "uint256",
          "name": "prevStatus",
          "type": "uint256"
        },
        {
          "indexed": false,
          "internalType": "uint256",
          "name": "newStatus",
          "type": "uint256"
        }
      ],
      "name": "AgendaStatusChanged",
      "type": "event"
    },
    {
      "anonymous": false,
      "inputs": [
        {
          "indexed": false,
          "internalType": "uint256",
          "name": "newFee",
          "type": "uint256"
        }
      ],
      "name": "CreatingAgendaFeeChanged",
      "type": "event"
    },
    {
      "anonymous": false,
      "inputs": [
        {
          "indexed": false,
          "internalType": "uint256",
          "name": "newPeriod",
          "type": "uint256"
        }
      ],
      "name": "ExecutingPeriodChanged",
      "type": "event"
    },
    {
      "anonymous": false,
      "inputs": [
        {
          "indexed": false,
          "internalType": "uint256",
          "name": "newPeriod",
          "type": "uint256"
        }
      ],
      "name": "MinimumNoticePeriodChanged",
      "type": "event"
    },
    {
      "anonymous": false,
      "inputs": [
        {
          "indexed": false,
          "internalType": "uint256",
          "name": "newPeriod",
          "type": "uint256"
        }
      ],
      "name": "MinimumVotingPeriodChanged",
      "type": "event"
    },
    {
      "anonymous": false,
      "inputs": [
        {
          "indexed": true,
          "internalType": "address",
          "name": "previousOwner",
          "type": "address"
        },
        {
          "indexed": true,
          "internalType": "address",
          "name": "newOwner",
          "type": "address"
        }
      ],
      "name": "OwnershipTransferred",
      "type": "event"
    },
    {
      "inputs": [],
      "name": "committee",
      "outputs": [
        {
          "internalType": "contract IDAOCommittee",
          "name": "",
          "type": "address"
        }
      ],
      "stateMutability": "view",
      "type": "function",
      "constant": true
    },
    {
      "inputs": [],
      "name": "createAgendaFees",
      "outputs": [
        {
          "internalType": "uint256",
          "name": "",
          "type": "uint256"
        }
      ],
      "stateMutability": "view",
      "type": "function",
      "constant": true
    },
    {
      "inputs": [],
      "name": "executingPeriodSeconds",
      "outputs": [
        {
          "internalType": "uint256",
          "name": "",
          "type": "uint256"
        }
      ],
      "stateMutability": "view",
      "type": "function",
      "constant": true
    },
    {
      "inputs": [],
      "name": "minimumNoticePeriodSeconds",
      "outputs": [
        {
          "internalType": "uint256",
          "name": "",
          "type": "uint256"
        }
      ],
      "stateMutability": "view",
      "type": "function",
      "constant": true
    },
    {
      "inputs": [],
      "name": "minimumVotingPeriodSeconds",
      "outputs": [
        {
          "internalType": "uint256",
          "name": "",
          "type": "uint256"
        }
      ],
      "stateMutability": "view",
      "type": "function",
      "constant": true
    },
    {
      "inputs": [],
      "name": "owner",
      "outputs": [
        {
          "internalType": "address",
          "name": "",
          "type": "address"
        }
      ],
      "stateMutability": "view",
      "type": "function",
      "constant": true
    },
    {
      "inputs": [],
      "name": "renounceOwnership",
      "outputs": [],
      "stateMutability": "nonpayable",
      "type": "function"
    },
    {
      "inputs": [
        {
          "internalType": "address",
          "name": "newOwner",
          "type": "address"
        }
      ],
      "name": "transferOwnership",
      "outputs": [],
      "stateMutability": "nonpayable",
      "type": "function"
    },
    {
      "inputs": [
        {
          "internalType": "uint256",
          "name": "_status",
          "type": "uint256"
        }
      ],
      "name": "getStatus",
      "outputs": [
        {
          "internalType": "enum LibAgenda.AgendaStatus",
          "name": "emnustatus",
          "type": "uint8"
        }
      ],
      "stateMutability": "pure",
      "type": "function",
      "constant": true
    },
    {
      "inputs": [
        {
          "internalType": "address",
          "name": "_committee",
          "type": "address"
        }
      ],
      "name": "setCommittee",
      "outputs": [],
      "stateMutability": "nonpayable",
      "type": "function"
    },
    {
      "inputs": [
        {
          "internalType": "uint256",
          "name": "_createAgendaFees",
          "type": "uint256"
        }
      ],
      "name": "setCreateAgendaFees",
      "outputs": [],
      "stateMutability": "nonpayable",
      "type": "function"
    },
    {
      "inputs": [
        {
          "internalType": "uint256",
          "name": "_minimumNoticePeriodSeconds",
          "type": "uint256"
        }
      ],
      "name": "setMinimumNoticePeriodSeconds",
      "outputs": [],
      "stateMutability": "nonpayable",
      "type": "function"
    },
    {
      "inputs": [
        {
          "internalType": "uint256",
          "name": "_executingPeriodSeconds",
          "type": "uint256"
        }
      ],
      "name": "setExecutingPeriodSeconds",
      "outputs": [],
      "stateMutability": "nonpayable",
      "type": "function"
    },
    {
      "inputs": [
        {
          "internalType": "uint256",
          "name": "_minimumVotingPeriodSeconds",
          "type": "uint256"
        }
      ],
      "name": "setMinimumVotingPeriodSeconds",
      "outputs": [],
      "stateMutability": "nonpayable",
      "type": "function"
    },
    {
      "inputs": [
        {
          "internalType": "address[]",
          "name": "_targets",
          "type": "address[]"
        },
        {
          "internalType": "uint256",
          "name": "_noticePeriodSeconds",
          "type": "uint256"
        },
        {
          "internalType": "uint256",
          "name": "_votingPeriodSeconds",
          "type": "uint256"
        },
        {
          "internalType": "bool",
          "name": "_atomicExecute",
          "type": "bool"
        },
        {
          "internalType": "bytes[]",
          "name": "_functionBytecodes",
          "type": "bytes[]"
        }
      ],
      "name": "newAgenda",
      "outputs": [
        {
          "internalType": "uint256",
          "name": "agendaID",
          "type": "uint256"
        }
      ],
      "stateMutability": "nonpayable",
      "type": "function"
    },
    {
      "inputs": [
        {
          "internalType": "uint256",
          "name": "_agendaID",
          "type": "uint256"
        },
        {
          "internalType": "address",
          "name": "_voter",
          "type": "address"
        },
        {
          "internalType": "uint256",
          "name": "_vote",
          "type": "uint256"
        }
      ],
      "name": "castVote",
      "outputs": [
        {
          "internalType": "bool",
          "name": "",
          "type": "bool"
        }
      ],
      "stateMutability": "nonpayable",
      "type": "function"
    },
    {
      "inputs": [
        {
          "internalType": "uint256",
          "name": "_agendaID",
          "type": "uint256"
        }
      ],
      "name": "setExecutedAgenda",
      "outputs": [],
      "stateMutability": "nonpayable",
      "type": "function"
    },
    {
      "inputs": [
        {
          "internalType": "uint256",
          "name": "_agendaID",
          "type": "uint256"
        },
        {
          "internalType": "enum LibAgenda.AgendaResult",
          "name": "_result",
          "type": "uint8"
        }
      ],
      "name": "setResult",
      "outputs": [],
      "stateMutability": "nonpayable",
      "type": "function"
    },
    {
      "inputs": [
        {
          "internalType": "uint256",
          "name": "_agendaID",
          "type": "uint256"
        },
        {
          "internalType": "enum LibAgenda.AgendaStatus",
          "name": "_status",
          "type": "uint8"
        }
      ],
      "name": "setStatus",
      "outputs": [],
      "stateMutability": "nonpayable",
      "type": "function"
    },
    {
      "inputs": [
        {
          "internalType": "uint256",
          "name": "_agendaID",
          "type": "uint256"
        }
      ],
      "name": "endAgendaVoting",
      "outputs": [],
      "stateMutability": "nonpayable",
      "type": "function"
    },
    {
      "inputs": [
        {
          "internalType": "uint256",
          "name": "_agendaID",
          "type": "uint256"
        },
        {
          "internalType": "address",
          "name": "_candidate",
          "type": "address"
        }
      ],
      "name": "isVoter",
      "outputs": [
        {
          "internalType": "bool",
          "name": "",
          "type": "bool"
        }
      ],
      "stateMutability": "view",
      "type": "function",
      "constant": true
    },
    {
      "inputs": [
        {
          "internalType": "uint256",
          "name": "_agendaID",
          "type": "uint256"
        },
        {
          "internalType": "address",
          "name": "_user",
          "type": "address"
        }
      ],
      "name": "hasVoted",
      "outputs": [
        {
          "internalType": "bool",
          "name": "",
          "type": "bool"
        }
      ],
      "stateMutability": "view",
      "type": "function",
      "constant": true
    },
    {
      "inputs": [
        {
          "internalType": "uint256",
          "name": "_agendaID",
          "type": "uint256"
        },
        {
          "internalType": "address",
          "name": "_user",
          "type": "address"
        }
      ],
      "name": "getVoteStatus",
      "outputs": [
        {
          "internalType": "bool",
          "name": "",
          "type": "bool"
        },
        {
          "internalType": "uint256",
          "name": "",
          "type": "uint256"
        }
      ],
      "stateMutability": "view",
      "type": "function",
      "constant": true
    },
    {
      "inputs": [
        {
          "internalType": "uint256",
          "name": "_agendaID",
          "type": "uint256"
        }
      ],
      "name": "getAgendaNoticeEndTimeSeconds",
      "outputs": [
        {
          "internalType": "uint256",
          "name": "",
          "type": "uint256"
        }
      ],
      "stateMutability": "view",
      "type": "function",
      "constant": true
    },
    {
      "inputs": [
        {
          "internalType": "uint256",
          "name": "_agendaID",
          "type": "uint256"
        }
      ],
      "name": "getAgendaVotingStartTimeSeconds",
      "outputs": [
        {
          "internalType": "uint256",
          "name": "",
          "type": "uint256"
        }
      ],
      "stateMutability": "view",
      "type": "function",
      "constant": true
    },
    {
      "inputs": [
        {
          "internalType": "uint256",
          "name": "_agendaID",
          "type": "uint256"
        }
      ],
      "name": "getAgendaVotingEndTimeSeconds",
      "outputs": [
        {
          "internalType": "uint256",
          "name": "",
          "type": "uint256"
        }
      ],
      "stateMutability": "view",
      "type": "function",
      "constant": true
    },
    {
      "inputs": [
        {
          "internalType": "uint256",
          "name": "_agendaID",
          "type": "uint256"
        }
      ],
      "name": "canExecuteAgenda",
      "outputs": [
        {
          "internalType": "bool",
          "name": "",
          "type": "bool"
        }
      ],
      "stateMutability": "view",
      "type": "function",
      "constant": true
    },
    {
      "inputs": [
        {
          "internalType": "uint256",
          "name": "_agendaID",
          "type": "uint256"
        }
      ],
      "name": "getAgendaStatus",
      "outputs": [
        {
          "internalType": "uint256",
          "name": "status",
          "type": "uint256"
        }
      ],
      "stateMutability": "view",
      "type": "function",
      "constant": true
    },
    {
      "inputs": [],
      "name": "totalAgendas",
      "outputs": [
        {
          "internalType": "uint256",
          "name": "",
          "type": "uint256"
        }
      ],
      "stateMutability": "view",
      "type": "function",
      "constant": true
    },
    {
      "inputs": [
        {
          "internalType": "uint256",
          "name": "_agendaID",
          "type": "uint256"
        }
      ],
      "name": "getAgendaResult",
      "outputs": [
        {
          "internalType": "uint256",
          "name": "result",
          "type": "uint256"
        },
        {
          "internalType": "bool",
          "name": "executed",
          "type": "bool"
        }
      ],
      "stateMutability": "view",
      "type": "function",
      "constant": true
    },
    {
      "inputs": [
        {
          "internalType": "uint256",
          "name": "_agendaID",
          "type": "uint256"
        }
      ],
      "name": "getExecutionInfo",
      "outputs": [
        {
          "internalType": "address[]",
          "name": "target",
          "type": "address[]"
        },
        {
          "internalType": "bytes[]",
          "name": "functionBytecode",
          "type": "bytes[]"
        },
        {
          "internalType": "bool",
          "name": "atomicExecute",
          "type": "bool"
        },
        {
          "internalType": "uint256",
          "name": "executeStartFrom",
          "type": "uint256"
        }
      ],
      "stateMutability": "view",
      "type": "function",
      "constant": true
    },
    {
      "inputs": [
        {
          "internalType": "uint256",
          "name": "_agendaID",
          "type": "uint256"
        },
        {
          "internalType": "uint256",
          "name": "_count",
          "type": "uint256"
        }
      ],
      "name": "setExecutedCount",
      "outputs": [],
      "stateMutability": "nonpayable",
      "type": "function"
    },
    {
      "inputs": [
        {
          "internalType": "uint256",
          "name": "_agendaID",
          "type": "uint256"
        }
      ],
      "name": "isVotableStatus",
      "outputs": [
        {
          "internalType": "bool",
          "name": "",
          "type": "bool"
        }
      ],
      "stateMutability": "view",
      "type": "function",
      "constant": true
    },
    {
      "inputs": [
        {
          "internalType": "uint256",
          "name": "_agendaID",
          "type": "uint256"
        }
      ],
      "name": "getVotingCount",
      "outputs": [
        {
          "internalType": "uint256",
          "name": "countingYes",
          "type": "uint256"
        },
        {
          "internalType": "uint256",
          "name": "countingNo",
          "type": "uint256"
        },
        {
          "internalType": "uint256",
          "name": "countingAbstain",
          "type": "uint256"
        }
      ],
      "stateMutability": "view",
      "type": "function",
      "constant": true
    },
    {
      "inputs": [
        {
          "internalType": "uint256",
          "name": "_agendaID",
          "type": "uint256"
        }
      ],
      "name": "getAgendaTimestamps",
      "outputs": [
        {
          "internalType": "uint256",
          "name": "createdTimestamp",
          "type": "uint256"
        },
        {
          "internalType": "uint256",
          "name": "noticeEndTimestamp",
          "type": "uint256"
        },
        {
          "internalType": "uint256",
          "name": "votingStartedTimestamp",
          "type": "uint256"
        },
        {
          "internalType": "uint256",
          "name": "votingEndTimestamp",
          "type": "uint256"
        },
        {
          "internalType": "uint256",
          "name": "executedTimestamp",
          "type": "uint256"
        }
      ],
      "stateMutability": "view",
      "type": "function",
      "constant": true
    },
    {
      "inputs": [],
      "name": "numAgendas",
      "outputs": [
        {
          "internalType": "uint256",
          "name": "",
          "type": "uint256"
        }
      ],
      "stateMutability": "view",
      "type": "function",
      "constant": true
    },
    {
      "inputs": [
        {
          "internalType": "uint256",
          "name": "_agendaID",
          "type": "uint256"
        }
      ],
      "name": "getVoters",
      "outputs": [
        {
          "internalType": "address[]",
          "name": "",
          "type": "address[]"
        }
      ],
      "stateMutability": "view",
      "type": "function",
      "constant": true
    },
    {
      "inputs": [
        {
          "internalType": "uint256",
          "name": "_index",
          "type": "uint256"
        }
      ],
      "name": "agendas",
      "outputs": [
        {
          "components": [
            {
              "internalType": "uint256",
              "name": "createdTimestamp",
              "type": "uint256"
            },
            {
              "internalType": "uint256",
              "name": "noticeEndTimestamp",
              "type": "uint256"
            },
            {
              "internalType": "uint256",
              "name": "votingPeriodInSeconds",
              "type": "uint256"
            },
            {
              "internalType": "uint256",
              "name": "votingStartedTimestamp",
              "type": "uint256"
            },
            {
              "internalType": "uint256",
              "name": "votingEndTimestamp",
              "type": "uint256"
            },
            {
              "internalType": "uint256",
              "name": "executableLimitTimestamp",
              "type": "uint256"
            },
            {
              "internalType": "uint256",
              "name": "executedTimestamp",
              "type": "uint256"
            },
            {
              "internalType": "uint256",
              "name": "countingYes",
              "type": "uint256"
            },
            {
              "internalType": "uint256",
              "name": "countingNo",
              "type": "uint256"
            },
            {
              "internalType": "uint256",
              "name": "countingAbstain",
              "type": "uint256"
            },
            {
              "internalType": "enum LibAgenda.AgendaStatus",
              "name": "status",
              "type": "uint8"
            },
            {
              "internalType": "enum LibAgenda.AgendaResult",
              "name": "result",
              "type": "uint8"
            },
            {
              "internalType": "address[]",
              "name": "voters",
              "type": "address[]"
            },
            {
              "internalType": "bool",
              "name": "executed",
              "type": "bool"
            }
          ],
          "internalType": "struct LibAgenda.Agenda",
          "name": "",
          "type": "tuple"
        }
      ],
      "stateMutability": "view",
      "type": "function",
      "constant": true
    },
    {
      "inputs": [
        {
          "internalType": "uint256",
          "name": "_agendaID",
          "type": "uint256"
        },
        {
          "internalType": "address",
          "name": "_voter",
          "type": "address"
        }
      ],
      "name": "voterInfos",
      "outputs": [
        {
          "components": [
            {
              "internalType": "bool",
              "name": "isVoter",
              "type": "bool"
            },
            {
              "internalType": "bool",
              "name": "hasVoted",
              "type": "bool"
            },
            {
              "internalType": "uint256",
              "name": "vote",
              "type": "uint256"
            }
          ],
          "internalType": "struct LibAgenda.Voter",
          "name": "",
          "type": "tuple"
        }
      ],
      "stateMutability": "view",
      "type": "function",
      "constant": true
    }
  ],
  "bytecode": "0x608060405234801561001057600080fd5b50600061001b610087565b600080546001600160a01b0319166001600160a01b0383169081178255604051929350917f8be0079c531659141344cd1fd0a4f28419497f9722a3daafe3b4186f6b6457e0908290a35061012c6003819055600481905560055568056bc75e2d6310000060025561008b565b3390565b612a8e8061009a6000396000f3fe608060405234801561001057600080fd5b506004361061023c5760003560e01c806377f28d5b1161013b578063bddae40e116100b8578063de6bd3861161007c578063de6bd38614610537578063e3bc145f14610381578063e3c361561461054a578063e7015fef14610552578063f2fde38b1461055a5761023c565b8063bddae40e146104d5578063c0bc5304146104e8578063cdeed605146104fb578063d864e7401461051c578063d896dd64146105245761023c565b80638da5cb5b116100ff5780638da5cb5b146104545780638e3f5f8314610469578063a0cc81e41461048d578063aee4a42a146104a0578063b4f69b6a146104c25761023c565b806377f28d5b146103e85780637e77eb23146103fb5780638425a46d1461040e57806386b646f214610421578063885b4696146104415761023c565b80633da2371f116101c9578063699cc3581161018d578063699cc3581461038157806369b1227a146103895780636bcaab5e1461039c578063715018a6146103bd57806373ba3745146103c55761023c565b80633da2371f14610308578063438596321461031b5780634a47f59b1461032e57806356150a361461034e5780635c622a0e146103615761023c565b80632522a32f116102105780632522a32f146102a7578063284d776e146102af578063334bbf35146102c257806337184a32146102d55780633c4a819c146102e85761023c565b8062b74c45146102415780630af5aa3c1461026a57806323d09fdf1461027f57806325048db814610294575b600080fd5b61025461024f3660046122ae565b61056d565b60405161026191906124c9565b60405180910390f35b6102726105ef565b6040516102619190612955565b61029261028d36600461227e565b6105f5565b005b6102726102a23660046121e5565b61068d565b610272610967565b6102726102bd36600461227e565b61096d565b6102726102d036600461227e565b6109c9565b6102926102e336600461227e565b610a16565b6102fb6102f636600461227e565b610b35565b6040516102619190612855565b61027261031636600461227e565b610cbf565b6102546103293660046122ae565b610d0c565b61034161033c3660046122ae565b610d64565b6040516102619190612930565b61029261035c366004612314565b610de5565b61037461036f36600461227e565b610edf565b60405161026191906124e4565b610272610f4e565b61029261039736600461227e565b610f54565b6103af6103aa36600461227e565b610fe1565b60405161026192919061295e565b61029261106f565b6103d86103d336600461227e565b611111565b604051610261949392919061240b565b6102546103f636600461227e565b61129d565b6102546104093660046122dd565b611356565b61025461041c36600461227e565b611591565b61043461042f36600461227e565b61160f565b60405161026191906123f8565b61029261044f36600461227e565b6116b4565b61045c6117c1565b60405161026191906123e4565b61047c61047736600461227e565b6117d0565b604051610261959493929190612992565b61029261049b366004612362565b611846565b6104b36104ae36600461227e565b61186d565b6040516102619392919061297c565b6102926104d036600461227e565b6118ad565b6102926104e33660046121ad565b61193a565b6102926104f636600461227e565b6119da565b61050e6105093660046122ae565b611a67565b6040516102619291906124d4565b61045c611aca565b61029261053236600461233b565b611ad9565b61027261054536600461227e565b611bf7565b610272611c44565b610272611c4a565b6102926105683660046121ad565b611c50565b6006546000908390811061059c5760405162461bcd60e51b815260040161059390612758565b60405180910390fd5b6001600160a01b0383166105c25760405162461bcd60e51b815260040161059390612529565b505060009182526007602090815260408084206001600160a01b0393909316845291905290205460ff1690565b60035481565b6105fd611d48565b6000546001600160a01b0390811691161461064d576040805162461bcd60e51b81526020600482018190526024820152600080516020612a39833981519152604482015290519081900360640190fd5b60038190556040517f1a41511e33a8fb5e37fa982cb8a3c07a04ec3d0a89d5551e6781bd5d03ab819790610682908390612955565b60405180910390a150565b6000610697611d48565b6000546001600160a01b039081169116146106e7576040805162461bcd60e51b81526020600482018190526024820152600080516020612a39833981519152604482015290519081900360640190fd5b6003548610156107095760405162461bcd60e51b8152600401610593906127d2565b600680549050905060606006604051806101c001604052804281526020018942018152602001888152602001600081526020016000815260200160008152602001600081526020016000815260200160008152602001600081526020016001600581111561077357fe5b815260200160008152602080820185905260006040928301819052845460018181018755958252908290208451600d909202019081559083015181850155908201516002820155606082015160038201556080820151600482015560a082015160058083019190915560c0830151600683015560e0830151600783015561010083015160088301556101208301516009830155610140830151600a83018054949593949193909260ff1990921691849081111561082c57fe5b0217905550610160820151600a8201805461ff00191661010083600381111561085157fe5b0217905550610180820151805161087291600b840191602090910190611fd4565b506101a09190910151600c909101805491151560ff199283161790556000838152600860205260408120600281018054891515941693909317909255600382018190555b8981101561095957818b8b838181106108cb57fe5b90506020020160208101906108e091906121ad565b815460018082018455600093845260209093200180546001600160a01b0319166001600160a01b0392909216919091179055820186868381811061092057fe5b905060200281019061093291906129b5565b82546001810184556000938452602090932061095093019190612039565b506001016108b6565b505050979650505050505050565b60025481565b600654600090829081106109935760405162461bcd60e51b815260040161059390612758565b600683815481106109a057fe5b60009182526020909120600a600d90920201015460ff1660058111156109c257fe5b9392505050565b600654600090829081106109ef5760405162461bcd60e51b815260040161059390612758565b600683815481106109fc57fe5b90600052602060002090600d020160040154915050919050565b610a1e611d48565b6000546001600160a01b03908116911614610a6e576040805162461bcd60e51b81526020600482018190526024820152600080516020612a39833981519152604482015290519081900360640190fd5b60065481908110610a915760405162461bcd60e51b815260040161059390612758565b600060068381548110610aa057fe5b600091825260208220600c600d90920201908101805460ff19166001179055426006820155600a81015490925060ff166005811115610adb57fe5b600a8301805491925060049160ff19166001830217905550837f27e1508d1d92ba0e1e406fad0138e0f3dd44688f5018dbe7f5718da02931eb7c8260045b604051610b2792919061296e565b60405180910390a250505050565b610b3d6120b5565b60065482908110610b605760405162461bcd60e51b815260040161059390612758565b60068381548110610b6d57fe5b90600052602060002090600d0201604051806101c001604052908160008201548152602001600182015481526020016002820154815260200160038201548152602001600482015481526020016005820154815260200160068201548152602001600782015481526020016008820154815260200160098201548152602001600a820160009054906101000a900460ff166005811115610c0957fe5b6005811115610c1457fe5b8152602001600a820160019054906101000a900460ff166003811115610c3657fe5b6003811115610c4157fe5b8152602001600b8201805480602002602001604051908101604052809291908181526020018280548015610c9e57602002820191906000526020600020905b81546001600160a01b03168152600190910190602001808311610c80575b5050509183525050600c919091015460ff1615156020909101529392505050565b60065460009082908110610ce55760405162461bcd60e51b815260040161059390612758565b60068381548110610cf257fe5b90600052602060002090600d020160030154915050919050565b60065460009083908110610d325760405162461bcd60e51b815260040161059390612758565b505060009182526007602090815260408084206001600160a01b03939093168452919052902054610100900460ff1690565b610d6c61212f565b60065483908110610d8f5760405162461bcd60e51b815260040161059390612758565b505060009182526007602090815260408084206001600160a01b03939093168452918152918190208151606081018352815460ff8082161515835261010090910416151593810193909352600101549082015290565b610ded611d48565b6000546001600160a01b03908116911614610e3d576040805162461bcd60e51b81526020600482018190526024820152600080516020612a39833981519152604482015290519081900360640190fd5b60065482908110610e605760405162461bcd60e51b815260040161059390612758565b600060068481548110610e6f57fe5b90600052602060002090600d020190508281600a0160016101000a81548160ff02191690836003811115610e9f57fe5b0217905550837ff874b3fe678e8c9f4bd9dd7051e2bd81708e378e98526f16586e7bf60b77effc846003811115610ed257fe5b604051610b279190612955565b600060068210610f015760405162461bcd60e51b815260040161059390612712565b6001821415610f1257506001610f49565b6002821415610f2357506002610f49565b6004821415610f3457506004610f49565b6005821415610f4557506005610f49565b5060005b919050565b60065490565b610f5c611d48565b6000546001600160a01b03908116911614610fac576040805162461bcd60e51b81526020600482018190526024820152600080516020612a39833981519152604482015290519081900360640190fd5b60058190556040517f393533387dd66192af0de6529ab3f15d1a5cef6f112a7b1d620232f7211982a590610682908390612955565b6000808260068054905081106110095760405162461bcd60e51b815260040161059390612758565b6006848154811061101657fe5b90600052602060002090600d0201600a0160019054906101000a900460ff16600381111561104057fe5b6006858154811061104d57fe5b60009182526020909120600c600d90920201015490935060ff16915050915091565b611077611d48565b6000546001600160a01b039081169116146110c7576040805162461bcd60e51b81526020600482018190526024820152600080516020612a39833981519152604482015290519081900360640190fd5b600080546040516001600160a01b03909116907f8be0079c531659141344cd1fd0a4f28419497f9722a3daafe3b4186f6b6457e0908390a3600080546001600160a01b0319169055565b60608060008084600680549050811061113c5760405162461bcd60e51b815260040161059390612758565b60008681526008602090815260409182902060028101546003820154825485518186028101860190965280865292948594600186019460ff9094169386918301828280156111b357602002820191906000526020600020905b81546001600160a01b03168152600190910190602001808311611195575b5050505050935082805480602002602001604051908101604052809291908181526020016000905b828210156112865760008481526020908190208301805460408051601f60026000196101006001871615020190941693909304928301859004850281018501909152818152928301828280156112725780601f1061124757610100808354040283529160200191611272565b820191906000526020600020905b81548152906001019060200180831161125557829003601f168201915b5050505050815260200190600101906111db565b505050509250955095509550955050509193509193565b600654600090829081106112c35760405162461bcd60e51b815260040161059390612758565b6000600684815481106112d257fe5b60009182526020909120600d9091020190506003600a82015460ff1660058111156112f957fe5b14801561130a575080600501544211155b801561132d57506001600a820154610100900460ff16600381111561132b57fe5b145b801561133d575042816004015411155b801561134e5750600c81015460ff16155b949350505050565b6000611360611d48565b6000546001600160a01b039081169116146113b0576040805162461bcd60e51b81526020600482018190526024820152600080516020612a39833981519152604482015290519081900360640190fd5b600654849081106113d35760405162461bcd60e51b815260040161059390612758565b600383106113f35760405162461bcd60e51b8152600401610593906124f2565b6113fc85611591565b6114185760405162461bcd60e51b815260040161059390612820565b60006006868154811061142757fe5b60009182526020909120600d9091020190506001600a82015460ff16600581111561144e57fe5b141561145d5761145d86611d4c565b611467868661056d565b6114835760405162461bcd60e51b81526004016105939061256f565b61148d8686610d0c565b156114aa5760405162461bcd60e51b81526004016105939061279b565b80600401544211156114ce5760405162461bcd60e51b81526004016105939061262b565b60008681526007602090815260408083206001600160a01b03891684529091528120805461ff001916610100178155600181018690559085141561152657600982015461151c906001611f71565b6009830155611584565b600185141561154957600782015461153f906001611f71565b6007830155611584565b600285141561156c576008820154611562906001611f71565b6008830155611584565b60405162461bcd60e51b8152600401610593906125f6565b5060019695505050505050565b600654600090829081106115b75760405162461bcd60e51b815260040161059390612758565b6000600684815481106115c657fe5b90600052602060002090600d0201905080600401544211158061134e57506001600a82015460ff1660058111156115f957fe5b14801561134e5750600101544210159392505050565b600654606090829081106116355760405162461bcd60e51b815260040161059390612758565b6006838154811061164257fe5b90600052602060002090600d0201600b018054806020026020016040519081016040528092919081815260200182805480156116a757602002820191906000526020600020905b81546001600160a01b03168152600190910190602001808311611689575b5050505050915050919050565b6116bc611d48565b6000546001600160a01b0390811691161461170c576040805162461bcd60e51b81526020600482018190526024820152600080516020612a39833981519152604482015290519081900360640190fd5b6006548190811061172f5760405162461bcd60e51b815260040161059390612758565b60006006838154811061173e57fe5b60009182526020909120600d9091020190506002600a82015460ff16600581111561176557fe5b146117825760405162461bcd60e51b8152600401610593906125a6565b42816004015411156117a65760405162461bcd60e51b8152600401610593906126c9565b6117b1836005611ad9565b6117bc836003610de5565b505050565b6000546001600160a01b031690565b60008060008060008560068054905081106117fd5760405162461bcd60e51b815260040161059390612758565b60006006888154811061180c57fe5b60009182526020909120600d909102018054600182015460038301546004840154600690940154929c919b50995091975095509350505050565b600082815260086020526040902060038101546118639083611f71565b6003909101555050565b6000806000806006858154811061188057fe5b90600052602060002090600d02019050806007015481600801548260090154935093509350509193909250565b6118b5611d48565b6000546001600160a01b03908116911614611905576040805162461bcd60e51b81526020600482018190526024820152600080516020612a39833981519152604482015290519081900360640190fd5b60028190556040517f72ac0dabe78e5050799cf8c3092f5eb1ff83204f83c2a62ac0e4d9cafae0837790610682908390612955565b611942611d48565b6000546001600160a01b03908116911614611992576040805162461bcd60e51b81526020600482018190526024820152600080516020612a39833981519152604482015290519081900360640190fd5b6001600160a01b0381166119b85760405162461bcd60e51b815260040161059390612688565b600180546001600160a01b0319166001600160a01b0392909216919091179055565b6119e2611d48565b6000546001600160a01b03908116911614611a32576040805162461bcd60e51b81526020600482018190526024820152600080516020612a39833981519152604482015290519081900360640190fd5b60048190556040517ff4f36c6d71e6dce23fde1248bfb40024041297ac1665de2840339f8a6b32e54590610682908390612955565b600080836006805490508110611a8f5760405162461bcd60e51b815260040161059390612758565b50505060009182526007602090815260408084206001600160a01b039390931684529190529020805460019091015461010090910460ff1691565b6001546001600160a01b031681565b611ae1611d48565b6000546001600160a01b03908116911614611b31576040805162461bcd60e51b81526020600482018190526024820152600080516020612a39833981519152604482015290519081900360640190fd5b60065482908110611b545760405162461bcd60e51b815260040161059390612758565b600060068481548110611b6357fe5b600091825260208220600a600d909202019081015490925060ff166005811115611b8957fe5b600a83018054919250859160ff19166001836005811115611ba657fe5b0217905550847f27e1508d1d92ba0e1e406fad0138e0f3dd44688f5018dbe7f5718da02931eb7c82866005811115611bda57fe5b604051611be892919061296e565b60405180910390a25050505050565b60065460009082908110611c1d5760405162461bcd60e51b815260040161059390612758565b60068381548110611c2a57fe5b90600052602060002090600d020160010154915050919050565b60045481565b60055481565b611c58611d48565b6000546001600160a01b03908116911614611ca8576040805162461bcd60e51b81526020600482018190526024820152600080516020612a39833981519152604482015290519081900360640190fd5b6001600160a01b038116611ced5760405162461bcd60e51b8152600401808060200182810382526026815260200180612a136026913960400191505060405180910390fd5b600080546040516001600160a01b03808516939216917f8be0079c531659141344cd1fd0a4f28419497f9722a3daafe3b4186f6b6457e091a3600080546001600160a01b0319166001600160a01b0392909216919091179055565b3390565b60065481908110611d6f5760405162461bcd60e51b815260040161059390612758565b600060068381548110611d7e57fe5b90600052602060002090600d02019050428160030181905550611dae816002015442611f7190919063ffffffff16565b60048201819055600554611dc29190611f71565b6005820155600a8101805460ff191660021790556001546040805162f8f26b60e21b815290516000926001600160a01b0316916303e3c9ac91600480830192602092919082900301818787803b158015611e1b57600080fd5b505af1158015611e2f573d6000803e3d6000fd5b505050506040513d601f19601f82011682018060405250810190611e539190612296565b905060005b81811015611f4557600154604051632ed7846560e11b81526000916001600160a01b031690635daf08ca90611e91908590600401612955565b602060405180830381600087803b158015611eab57600080fd5b505af1158015611ebf573d6000803e3d6000fd5b505050506040513d601f19601f82011682018060405250810190611ee391906121c9565b600b85018054600181810183556000928352602080842090920180546001600160a01b039095166001600160a01b03199095168517905589835260078252604080842094845293909152919020805460ff191682179055919091019050611e58565b50837f27e1508d1d92ba0e1e406fad0138e0f3dd44688f5018dbe7f5718da02931eb7c60016002610b19565b600082820183811015611fcb576040805162461bcd60e51b815260206004820152601b60248201527f536166654d6174683a206164646974696f6e206f766572666c6f770000000000604482015290519081900360640190fd5b90505b92915050565b828054828255906000526020600020908101928215612029579160200282015b8281111561202957825182546001600160a01b0319166001600160a01b03909116178255602090920191600190910190611ff4565b5061203592915061214f565b5090565b828054600181600116156101000203166002900490600052602060002090601f01602090048101928261206f5760008555612029565b82601f106120885782800160ff19823516178555612029565b82800160010185558215612029579182015b8281111561202957823582559160200191906001019061209a565b604051806101c00160405280600081526020016000815260200160008152602001600081526020016000815260200160008152602001600081526020016000815260200160008152602001600081526020016000600581111561211457fe5b81526020016000815260606020820152600060409091015290565b604080516060810182526000808252602082018190529181019190915290565b5b808211156120355760008155600101612150565b60008083601f840112612175578182fd5b50813567ffffffffffffffff81111561218c578182fd5b60208301915083602080830285010111156121a657600080fd5b9250929050565b6000602082840312156121be578081fd5b8135611fcb816129fa565b6000602082840312156121da578081fd5b8151611fcb816129fa565b600080600080600080600060a0888a0312156121ff578283fd5b873567ffffffffffffffff80821115612216578485fd5b6122228b838c01612164565b909950975060208a0135965060408a0135955060608a013591508115158214612249578485fd5b9093506080890135908082111561225e578384fd5b5061226b8a828b01612164565b989b979a50959850939692959293505050565b60006020828403121561228f578081fd5b5035919050565b6000602082840312156122a7578081fd5b5051919050565b600080604083850312156122c0578182fd5b8235915060208301356122d2816129fa565b809150509250929050565b6000806000606084860312156122f1578283fd5b833592506020840135612303816129fa565b929592945050506040919091013590565b60008060408385031215612326578182fd5b823591506020830135600481106122d2578182fd5b6000806040838503121561234d578182fd5b823591506020830135600681106122d2578182fd5b60008060408385031215612374578182fd5b50508035926020909101359150565b6000815180845260208085019450808401835b838110156123bb5781516001600160a01b031687529582019590820190600101612396565b509495945050505050565b15159052565b600481106123d657fe5b9052565b600681106123d657fe5b6001600160a01b0391909116815260200190565b6000602082526109c26020830184612383565b60006080825261241e6080830187612383565b602083820381850152818751808452828401915082838202850101838a01865b838110156124a357601f1980888503018652825180518086528a5b81811015612474578281018a01518782018b01528901612459565b81811115612484578b8a83890101525b5096880196601f0190911693909301860192509085019060010161243e565b505080955050505050506124ba60408301856123c6565b82606083015295945050505050565b901515815260200190565b9115158252602082015260400190565b60208101611fce82846123da565b6020808252601e908201527f44414f4167656e64614d616e616765723a20696e76616c696420766f74650000604082015260600190565b60208082526026908201527f44414f4167656e64614d616e616765723a20757365722061646472657373206960408201526573207a65726f60d01b606082015260800190565b6020808252601d908201527f44414f4167656e64614d616e616765723a206e6f74206120766f746572000000604082015260600190565b60208082526030908201527f44414f4167656e64614d616e616765723a206167656e6461207374617475732060408201526f6973206e6f74206368616e6761626c6560801b606082015260800190565b6020808252818101527f44414f4167656e64614d616e616765723a20696e76616c696420766f74696e67604082015260600190565b6020808252603a908201527f44414f4167656e64614d616e616765723a20666f722074686973206167656e6460408201527f612c2074686520766f74696e672074696d652065787069726564000000000000606082015260800190565b60208082526021908201527f44414f4167656e64614d616e616765723a2061646472657373206973207a65726040820152606f60f81b606082015260800190565b60208082526029908201527f44414f4167656e64614d616e616765723a20766f74696e67206973206e6f7420604082015268195b991959081e595d60ba1b606082015260800190565b60208082526026908201527f44414f4167656e64614d616e616765723a20696e76616c6964207374617475736040820152652076616c756560d01b606082015260800190565b60208082526023908201527f44414f4167656e64614d616e616765723a20696e76616c6964206167656e6461604082015262081a5960ea1b606082015260800190565b6020808252601f908201527f44414f4167656e64614d616e616765723a20616c726561647920766f74656400604082015260600190565b6020808252602e908201527f44414f4167656e64614d616e616765723a206d696e696d756d4e6f746963655060408201526d195c9a5bd9081a5cc81cda1bdc9d60921b606082015260800190565b6020808252818101527f44414f4167656e64614d616e616765723a20696e76616c696420737461747573604082015260600190565b60006020825282516020830152602083015160408301526040830151606083015260608301516080830152608083015160a083015260a083015160c083015260c083015160e083015260e08301516101008181850152808501519150506101208181850152808501519150506101408181850152808501519150506101606128df818501836123da565b84015190506101806128f3848201836123cc565b808501519150506101c06101a081818601526129136101e0860184612383565b90860151909250612926858301826123c6565b5090949350505050565b8151151581526020808301511515908201526040918201519181019190915260600190565b90815260200190565b9182521515602082015260400190565b918252602082015260400190565b9283526020830191909152604082015260600190565b948552602085019390935260408401919091526060830152608082015260a00190565b6000808335601e198436030181126129cb578283fd5b83018035915067ffffffffffffffff8211156129e5578283fd5b6020019150368190038213156121a657600080fd5b6001600160a01b0381168114612a0f57600080fd5b5056fe4f776e61626c653a206e6577206f776e657220697320746865207a65726f20616464726573734f776e61626c653a2063616c6c6572206973206e6f7420746865206f776e6572a2646970667358221220f7d32c9a3ee1cf82ad99e7ef5e59eb028cad43e2911bee4ce94ebec758d03b7a64736f6c63430007060033",
  "immutableReferences": {},
  "source": "// SPDX-License-Identifier: MIT\npragma solidity ^0.7.6;\npragma abicoder v2;\n\nimport { SafeMath } from \"../../node_modules/@openzeppelin/contracts/math/SafeMath.sol\";\nimport { IERC20 } from  \"../../node_modules/@openzeppelin/contracts/token/ERC20/IERC20.sol\";\nimport { IDAOAgendaManager } from \"../interfaces/IDAOAgendaManager.sol\";\nimport { IDAOCommittee } from \"../interfaces/IDAOCommittee.sol\";\nimport { ICandidate } from \"../interfaces/ICandidate.sol\";\nimport { LibAgenda } from \"../lib/Agenda.sol\";\nimport \"../../node_modules/@openzeppelin/contracts/access/Ownable.sol\";\n\ncontract DAOAgendaManager is Ownable, IDAOAgendaManager {\n    using SafeMath for uint256;\n    using LibAgenda for *;\n\n    enum VoteChoice { ABSTAIN, YES, NO, MAX }\n\n    IDAOCommittee public override committee;\n    \n    uint256 public override createAgendaFees; // (TON)\n    \n    uint256 public override minimumNoticePeriodSeconds;\n    uint256 public override minimumVotingPeriodSeconds;\n    uint256 public override executingPeriodSeconds;\n    \n    LibAgenda.Agenda[] internal _agendas;\n    mapping(uint256 => mapping(address => LibAgenda.Voter)) internal _voterInfos;\n    mapping(uint256 => LibAgenda.AgendaExecutionInfo) internal _executionInfos;\n    \n    event AgendaStatusChanged(\n        uint256 indexed agendaID,\n        uint256 prevStatus,\n        uint256 newStatus\n    );\n\n    event AgendaResultChanged(\n        uint256 indexed agendaID,\n        uint256 result\n    );\n\n    event CreatingAgendaFeeChanged(\n        uint256 newFee\n    );\n\n    event MinimumNoticePeriodChanged(\n        uint256 newPeriod\n    );\n\n    event MinimumVotingPeriodChanged(\n        uint256 newPeriod\n    );\n\n    event ExecutingPeriodChanged(\n        uint256 newPeriod\n    );\n\n    modifier validAgenda(uint256 _agendaID) {\n        require(_agendaID < _agendas.length, \"DAOAgendaManager: invalid agenda id\");\n        _;\n    }\n    \n    constructor() {\n        /*minimumNoticePeriodSeconds = 16 days;\n        minimumVotingPeriodSeconds = 2 days;\n        executingPeriodSeconds = 7 days;*/\n        minimumNoticePeriodSeconds = 300;\n        minimumVotingPeriodSeconds = 300;\n        executingPeriodSeconds = 300;\n        \n        createAgendaFees = 100000000000000000000; // 100 TON\n    }\n\n    function getStatus(uint256 _status) public pure override returns (LibAgenda.AgendaStatus emnustatus) {\n        require(_status < 6, \"DAOAgendaManager: invalid status value\");\n        if (_status == uint256(LibAgenda.AgendaStatus.NOTICE))\n            return LibAgenda.AgendaStatus.NOTICE;\n        else if (_status == uint256(LibAgenda.AgendaStatus.VOTING))\n            return LibAgenda.AgendaStatus.VOTING;\n        else if (_status == uint256(LibAgenda.AgendaStatus.EXECUTED))\n            return LibAgenda.AgendaStatus.EXECUTED;\n        else if (_status == uint256(LibAgenda.AgendaStatus.ENDED))\n            return LibAgenda.AgendaStatus.ENDED;\n        else\n            return LibAgenda.AgendaStatus.NONE;\n    }\n\n    /// @notice Set DAOCommitteeProxy contract address\n    /// @param _committee New DAOCommitteeProxy contract address\n    function setCommittee(address _committee) external override onlyOwner {\n        require(_committee != address(0), \"DAOAgendaManager: address is zero\");\n        committee = IDAOCommittee(_committee);\n    }\n\n    /// @notice Set status of the agenda\n    /// @param _agendaID agenda ID\n    /// @param _status New status of the agenda\n    /*function setStatus(uint256 _agendaID, uint256 _status) public override onlyOwner {\n        require(_agendaID < _agendas.length, \"DAOAgendaManager: Not a valid Proposal Id\");\n\n        emit AgendaStatusChanged(_agendaID, uint256(_agendas[_agendaID].status), _status);\n        _agendas[_agendaID].status = getStatus(_status);\n    }*/\n\n    /// @notice Set the fee(TON) of creating an agenda\n    /// @param _createAgendaFees New fee(TON)\n    function setCreateAgendaFees(uint256 _createAgendaFees) external override onlyOwner {\n        createAgendaFees = _createAgendaFees;\n        emit CreatingAgendaFeeChanged(_createAgendaFees);\n    }\n\n    /// @notice Set the minimum notice period in seconds\n    /// @param _minimumNoticePeriodSeconds New minimum notice period in seconds\n    function setMinimumNoticePeriodSeconds(uint256 _minimumNoticePeriodSeconds) external override onlyOwner {\n        minimumNoticePeriodSeconds = _minimumNoticePeriodSeconds;\n        emit MinimumNoticePeriodChanged(_minimumNoticePeriodSeconds);\n    }\n\n    /// @notice Set the executing period in seconds\n    /// @param _executingPeriodSeconds New executing period in seconds\n    function setExecutingPeriodSeconds(uint256 _executingPeriodSeconds) external override onlyOwner {\n        executingPeriodSeconds = _executingPeriodSeconds;\n        emit ExecutingPeriodChanged(_executingPeriodSeconds);\n    }\n\n    /// @notice Set the minimum voting period in seconds\n    /// @param _minimumVotingPeriodSeconds New minimum voting period in seconds\n    function setMinimumVotingPeriodSeconds(uint256 _minimumVotingPeriodSeconds) external override onlyOwner {\n        minimumVotingPeriodSeconds = _minimumVotingPeriodSeconds;\n        emit MinimumVotingPeriodChanged(_minimumVotingPeriodSeconds);\n    }\n      \n    /// @notice Creates an agenda\n    /// @param _targets Target addresses for executions of the agenda\n    /// @param _noticePeriodSeconds Notice period in seconds\n    /// @param _votingPeriodSeconds Voting period in seconds\n    /// @param _functionBytecodes RLP-Encoded parameters for executions of the agenda\n    /// @return agendaID Created agenda ID\n    function newAgenda(\n        address[] calldata _targets,\n        uint256 _noticePeriodSeconds,\n        uint256 _votingPeriodSeconds,\n        bool _atomicExecute,\n        bytes[] calldata _functionBytecodes\n    )\n        external\n        override\n        onlyOwner\n        returns (uint256 agendaID)\n    {\n        require(\n            _noticePeriodSeconds >= minimumNoticePeriodSeconds,\n            \"DAOAgendaManager: minimumNoticePeriod is short\"\n        );\n\n        agendaID = _agendas.length;\n         \n        address[] memory emptyArray;\n        _agendas.push(LibAgenda.Agenda({\n            status: LibAgenda.AgendaStatus.NOTICE,\n            result: LibAgenda.AgendaResult.PENDING,\n            executed: false,\n            createdTimestamp: block.timestamp,\n            noticeEndTimestamp: block.timestamp + _noticePeriodSeconds,\n            votingPeriodInSeconds: _votingPeriodSeconds,\n            votingStartedTimestamp: 0,\n            votingEndTimestamp: 0,\n            executableLimitTimestamp: 0,\n            executedTimestamp: 0,\n            countingYes: 0,\n            countingNo: 0,\n            countingAbstain: 0,\n            voters: emptyArray\n        }));\n\n        LibAgenda.AgendaExecutionInfo storage executionInfo = _executionInfos[agendaID];\n        executionInfo.atomicExecute = _atomicExecute;\n        executionInfo.executeStartFrom = 0;\n        for (uint256 i = 0; i < _targets.length; i++) {\n            executionInfo.targets.push(_targets[i]);\n            executionInfo.functionBytecodes.push(_functionBytecodes[i]);\n        }\n    }\n\n    /// @notice Casts vote for an agenda\n    /// @param _agendaID Agenda ID\n    /// @param _voter Voter\n    /// @param _vote Voting type\n    /// @return Whether or not the execution succeeded\n    function castVote(\n        uint256 _agendaID,\n        address _voter,\n        uint256 _vote\n    )\n        external\n        override\n        onlyOwner\n        validAgenda(_agendaID)\n        returns (bool)\n    {\n        require(_vote < uint256(VoteChoice.MAX), \"DAOAgendaManager: invalid vote\");\n\n        require(\n            isVotableStatus(_agendaID),\n            \"DAOAgendaManager: invalid status\"\n        );\n\n        LibAgenda.Agenda storage agenda = _agendas[_agendaID];\n\n        if (agenda.status == LibAgenda.AgendaStatus.NOTICE) {\n            _startVoting(_agendaID);\n        }\n\n        require(isVoter(_agendaID, _voter), \"DAOAgendaManager: not a voter\");\n        require(!hasVoted(_agendaID, _voter), \"DAOAgendaManager: already voted\");\n\n        require(\n            block.timestamp <= agenda.votingEndTimestamp,\n            \"DAOAgendaManager: for this agenda, the voting time expired\"\n        );\n        \n        LibAgenda.Voter storage voter = _voterInfos[_agendaID][_voter];\n        voter.hasVoted = true;\n        voter.vote = _vote;\n             \n        // counting 0:abstainVotes 1:yesVotes 2:noVotes\n        if (_vote == uint256(VoteChoice.ABSTAIN))\n            agenda.countingAbstain = agenda.countingAbstain.add(1);\n        else if (_vote == uint256(VoteChoice.YES))\n            agenda.countingYes = agenda.countingYes.add(1);\n        else if (_vote == uint256(VoteChoice.NO))\n            agenda.countingNo = agenda.countingNo.add(1);\n        else\n            revert(\"DAOAgendaManager: invalid voting\");\n        \n        return true;\n    }\n    \n    /// @notice Set the agenda status as executed\n    /// @param _agendaID Agenda ID\n    function setExecutedAgenda(uint256 _agendaID)\n        external\n        override\n        onlyOwner\n        validAgenda(_agendaID)\n    {\n        LibAgenda.Agenda storage agenda = _agendas[_agendaID];\n        agenda.executed = true;\n        agenda.executedTimestamp = block.timestamp;\n\n        uint256 prevStatus = uint256(agenda.status);\n        agenda.status = LibAgenda.AgendaStatus.EXECUTED;\n        emit AgendaStatusChanged(_agendaID, prevStatus, uint256(LibAgenda.AgendaStatus.EXECUTED));\n    }\n\n    /// @notice Set the agenda result\n    /// @param _agendaID Agenda ID\n    /// @param _result New result\n    function setResult(uint256 _agendaID, LibAgenda.AgendaResult _result)\n        public\n        override\n        onlyOwner\n        validAgenda(_agendaID)\n    {\n        LibAgenda.Agenda storage agenda = _agendas[_agendaID];\n        agenda.result = _result;\n\n        emit AgendaResultChanged(_agendaID, uint256(_result));\n    }\n     \n    /// @notice Set the agenda status\n    /// @param _agendaID Agenda ID\n    /// @param _status New status\n    function setStatus(uint256 _agendaID, LibAgenda.AgendaStatus _status)\n        public\n        override\n        onlyOwner\n        validAgenda(_agendaID)\n    {\n        LibAgenda.Agenda storage agenda = _agendas[_agendaID];\n\n        uint256 prevStatus = uint256(agenda.status);\n        agenda.status = _status;\n        emit AgendaStatusChanged(_agendaID, prevStatus, uint256(_status));\n    }\n\n    /// @notice Set the agenda status as ended(denied or dismissed)\n    /// @param _agendaID Agenda ID\n    function endAgendaVoting(uint256 _agendaID)\n        external\n        override\n        onlyOwner\n        validAgenda(_agendaID)\n    {\n        LibAgenda.Agenda storage agenda = _agendas[_agendaID];\n\n        require(\n            agenda.status == LibAgenda.AgendaStatus.VOTING,\n            \"DAOAgendaManager: agenda status is not changable\"\n        );\n\n        require(\n            agenda.votingEndTimestamp <= block.timestamp,\n            \"DAOAgendaManager: voting is not ended yet\"\n        );\n\n        setStatus(_agendaID, LibAgenda.AgendaStatus.ENDED);\n        setResult(_agendaID, LibAgenda.AgendaResult.DISMISS);\n    }\n     \n    function _startVoting(uint256 _agendaID) internal validAgenda(_agendaID) {\n        LibAgenda.Agenda storage agenda = _agendas[_agendaID];\n\n        agenda.votingStartedTimestamp = block.timestamp;\n        agenda.votingEndTimestamp = block.timestamp.add(agenda.votingPeriodInSeconds);\n        agenda.executableLimitTimestamp = agenda.votingEndTimestamp.add(executingPeriodSeconds);\n        agenda.status = LibAgenda.AgendaStatus.VOTING;\n\n        uint256 memberCount = committee.maxMember();\n        for (uint256 i = 0; i < memberCount; i++) {\n            address voter = committee.members(i);\n            agenda.voters.push(voter);\n            _voterInfos[_agendaID][voter].isVoter = true;\n        }\n\n        emit AgendaStatusChanged(_agendaID, uint256(LibAgenda.AgendaStatus.NOTICE), uint256(LibAgenda.AgendaStatus.VOTING));\n    }\n    \n    function isVoter(uint256 _agendaID, address _candidate) public view override validAgenda(_agendaID) returns (bool) {\n        require(_candidate != address(0), \"DAOAgendaManager: user address is zero\");\n        return _voterInfos[_agendaID][_candidate].isVoter;\n    }\n    \n    function hasVoted(uint256 _agendaID, address _user) public view override validAgenda(_agendaID) returns (bool) {\n        return _voterInfos[_agendaID][_user].hasVoted;\n    }\n\n    function getVoteStatus(uint256 _agendaID, address _user) external view override validAgenda(_agendaID) returns (bool, uint256) {\n        LibAgenda.Voter storage voter = _voterInfos[_agendaID][_user];\n\n        return (\n            voter.hasVoted,\n            voter.vote\n        );\n    }\n    \n    function getAgendaNoticeEndTimeSeconds(uint256 _agendaID) external view override validAgenda(_agendaID) returns (uint256) {\n        return _agendas[_agendaID].noticeEndTimestamp;\n    }\n    \n    function getAgendaVotingStartTimeSeconds(uint256 _agendaID) external view override validAgenda(_agendaID) returns (uint256) {\n        return _agendas[_agendaID].votingStartedTimestamp;\n    }\n\n    function getAgendaVotingEndTimeSeconds(uint256 _agendaID) external view override validAgenda(_agendaID) returns (uint256) {\n        return _agendas[_agendaID].votingEndTimestamp;\n    }\n\n    function canExecuteAgenda(uint256 _agendaID) external view override validAgenda(_agendaID) returns (bool) {\n        LibAgenda.Agenda storage agenda = _agendas[_agendaID];\n\n        return agenda.status == LibAgenda.AgendaStatus.WAITING_EXEC &&\n            block.timestamp <= agenda.executableLimitTimestamp &&\n            agenda.result == LibAgenda.AgendaResult.ACCEPT &&\n            agenda.votingEndTimestamp <= block.timestamp &&\n            agenda.executed == false;\n    }\n    \n    function getAgendaStatus(uint256 _agendaID) external view override validAgenda(_agendaID) returns (uint256 status) {\n        return uint256(_agendas[_agendaID].status);\n    }\n\n    function totalAgendas() external view override returns (uint256) {\n        return _agendas.length;\n    }\n\n    function getAgendaResult(uint256 _agendaID) external view override validAgenda(_agendaID) returns (uint256 result, bool executed) {\n        return (uint256(_agendas[_agendaID].result), _agendas[_agendaID].executed);\n    }\n   \n    function getExecutionInfo(uint256 _agendaID)\n        external\n        view\n        override\n        validAgenda(_agendaID)\n        returns(\n            address[] memory target,\n            bytes[] memory functionBytecode,\n            bool atomicExecute,\n            uint256 executeStartFrom\n        )\n    {\n        LibAgenda.AgendaExecutionInfo storage agenda = _executionInfos[_agendaID];\n        return (\n            agenda.targets,\n            agenda.functionBytecodes,\n            agenda.atomicExecute,\n            agenda.executeStartFrom\n        );\n    }\n\n    function setExecutedCount(uint256 _agendaID, uint256 _count) external override {\n        LibAgenda.AgendaExecutionInfo storage agenda = _executionInfos[_agendaID];\n        agenda.executeStartFrom = agenda.executeStartFrom.add(_count);\n    }\n\n    function isVotableStatus(uint256 _agendaID) public view override validAgenda(_agendaID) returns (bool) {\n        LibAgenda.Agenda storage agenda = _agendas[_agendaID];\n\n        return block.timestamp <= agenda.votingEndTimestamp ||\n            (agenda.status == LibAgenda.AgendaStatus.NOTICE &&\n                agenda.noticeEndTimestamp <= block.timestamp);\n    }\n\n    function getVotingCount(uint256 _agendaID)\n        external\n        view\n        override\n        returns (\n            uint256 countingYes,\n            uint256 countingNo,\n            uint256 countingAbstain\n        )\n    {\n        LibAgenda.Agenda storage agenda = _agendas[_agendaID];\n        return (\n            agenda.countingYes,\n            agenda.countingNo,\n            agenda.countingAbstain\n        );\n    }\n\n    function getAgendaTimestamps(uint256 _agendaID)\n        external\n        view\n        override\n        validAgenda(_agendaID)\n        returns (\n            uint256 createdTimestamp,\n            uint256 noticeEndTimestamp,\n            uint256 votingStartedTimestamp,\n            uint256 votingEndTimestamp,\n            uint256 executedTimestamp\n        )\n    {\n        LibAgenda.Agenda storage agenda = _agendas[_agendaID];\n        return (\n            agenda.createdTimestamp,\n            agenda.noticeEndTimestamp,\n            agenda.votingStartedTimestamp,\n            agenda.votingEndTimestamp,\n            agenda.executedTimestamp\n        );\n    }\n\n    function numAgendas() external view override returns (uint256) {\n        return _agendas.length;\n    }\n\n    function getVoters(uint256 _agendaID) external view override validAgenda(_agendaID) returns (address[] memory) {\n        return _agendas[_agendaID].voters;\n    }\n\n    function agendas(uint256 _index) external view override validAgenda(_index) returns (LibAgenda.Agenda memory) {\n        return _agendas[_index];\n    }\n\n    function voterInfos(uint256 _agendaID, address _voter) external view override validAgenda(_agendaID) returns (LibAgenda.Voter memory) {\n        return _voterInfos[_agendaID][_voter];\n    }\n}\n",
  "sourcePath": "/data/github/onther/tokamak-dao-contracts3/contracts/dao/DAOAgendaManager.sol",
  "compiler": {
    "name": "solc",
    "version": "0.7.6+commit.7338295f.Emscripten.clang"
  },
  "schemaVersion": "3.3.2",
  "updatedAt": "2021-02-26T01:24:56.063Z",
  "networkType": "ethereum",
  "devdoc": {
    "kind": "dev",
    "methods": {
      "castVote(uint256,address,uint256)": {
        "params": {
          "_agendaID": "Agenda ID",
          "_vote": "Voting type",
          "_voter": "Voter"
        },
        "returns": {
          "_0": "Whether or not the execution succeeded"
        }
      },
      "endAgendaVoting(uint256)": {
        "params": {
          "_agendaID": "Agenda ID"
        }
      },
      "newAgenda(address[],uint256,uint256,bool,bytes[])": {
        "params": {
          "_functionBytecodes": "RLP-Encoded parameters for executions of the agenda",
          "_noticePeriodSeconds": "Notice period in seconds",
          "_targets": "Target addresses for executions of the agenda",
          "_votingPeriodSeconds": "Voting period in seconds"
        },
        "returns": {
          "agendaID": "Created agenda ID"
        }
      },
      "owner()": {
        "details": "Returns the address of the current owner."
      },
      "renounceOwnership()": {
        "details": "Leaves the contract without owner. It will not be possible to call `onlyOwner` functions anymore. Can only be called by the current owner. NOTE: Renouncing ownership will leave the contract without an owner, thereby removing any functionality that is only available to the owner."
      },
      "setCommittee(address)": {
        "params": {
          "_committee": "New DAOCommitteeProxy contract address"
        }
      },
      "setCreateAgendaFees(uint256)": {
        "params": {
          "_createAgendaFees": "New fee(TON)"
        }
      },
      "setExecutedAgenda(uint256)": {
        "params": {
          "_agendaID": "Agenda ID"
        }
      },
      "setExecutingPeriodSeconds(uint256)": {
        "params": {
          "_executingPeriodSeconds": "New executing period in seconds"
        }
      },
      "setMinimumNoticePeriodSeconds(uint256)": {
        "params": {
          "_minimumNoticePeriodSeconds": "New minimum notice period in seconds"
        }
      },
      "setMinimumVotingPeriodSeconds(uint256)": {
        "params": {
          "_minimumVotingPeriodSeconds": "New minimum voting period in seconds"
        }
      },
      "setResult(uint256,uint8)": {
        "params": {
          "_agendaID": "Agenda ID",
          "_result": "New result"
        }
      },
      "setStatus(uint256,uint8)": {
        "params": {
          "_agendaID": "Agenda ID",
          "_status": "New status"
        }
      },
      "transferOwnership(address)": {
        "details": "Transfers ownership of the contract to a new account (`newOwner`). Can only be called by the current owner."
      }
    },
    "version": 1
  },
  "userdoc": {
    "kind": "user",
    "methods": {
      "castVote(uint256,address,uint256)": {
        "notice": "Casts vote for an agenda"
      },
      "endAgendaVoting(uint256)": {
        "notice": "Set the agenda status as ended(denied or dismissed)"
      },
      "newAgenda(address[],uint256,uint256,bool,bytes[])": {
        "notice": "Creates an agenda"
      },
      "setCommittee(address)": {
        "notice": "Set DAOCommitteeProxy contract address"
      },
      "setCreateAgendaFees(uint256)": {
        "notice": "Set the fee(TON) of creating an agenda"
      },
      "setExecutedAgenda(uint256)": {
        "notice": "Set the agenda status as executed"
      },
      "setExecutingPeriodSeconds(uint256)": {
        "notice": "Set the executing period in seconds"
      },
      "setMinimumNoticePeriodSeconds(uint256)": {
        "notice": "Set the minimum notice period in seconds"
      },
      "setMinimumVotingPeriodSeconds(uint256)": {
        "notice": "Set the minimum voting period in seconds"
      },
      "setResult(uint256,uint8)": {
        "notice": "Set the agenda result"
      },
      "setStatus(uint256,uint8)": {
        "notice": "Set the agenda status"
      }
    },
    "version": 1
  }
}