{
    "_format": "hh-sol-artifact-1",
    "contractName": "DAOCommitteeOwner",
    "sourceName": "contracts/dao/DAOCommitteeOwner.sol",
    "abi": [
        {
            "anonymous": false,
            "inputs": [
                {
                    "indexed": false,
                    "internalType": "uint256",
                    "name": "newReward",
                    "type": "uint256"
                }
            ],
            "name": "ActivityRewardChanged",
            "type": "event"
        },
        {
            "anonymous": false,
            "inputs": [
                {
                    "indexed": true,
                    "internalType": "bytes32",
                    "name": "role",
                    "type": "bytes32"
                },
                {
                    "indexed": true,
                    "internalType": "bytes32",
                    "name": "previousAdminRole",
                    "type": "bytes32"
                },
                {
                    "indexed": true,
                    "internalType": "bytes32",
                    "name": "newAdminRole",
                    "type": "bytes32"
                }
            ],
            "name": "RoleAdminChanged",
            "type": "event"
        },
        {
            "anonymous": false,
            "inputs": [
                {
                    "indexed": true,
                    "internalType": "bytes32",
                    "name": "role",
                    "type": "bytes32"
                },
                {
                    "indexed": true,
                    "internalType": "address",
                    "name": "account",
                    "type": "address"
                },
                {
                    "indexed": true,
                    "internalType": "address",
                    "name": "sender",
                    "type": "address"
                }
            ],
            "name": "RoleGranted",
            "type": "event"
        },
        {
            "anonymous": false,
            "inputs": [
                {
                    "indexed": true,
                    "internalType": "bytes32",
                    "name": "role",
                    "type": "bytes32"
                },
                {
                    "indexed": true,
                    "internalType": "address",
                    "name": "account",
                    "type": "address"
                },
                {
                    "indexed": true,
                    "internalType": "address",
                    "name": "sender",
                    "type": "address"
                }
            ],
            "name": "RoleRevoked",
            "type": "event"
        },
        {
            "inputs": [],
            "name": "DEFAULT_ADMIN_ROLE",
            "outputs": [
                {
                    "internalType": "bytes32",
                    "name": "",
                    "type": "bytes32"
                }
            ],
            "stateMutability": "view",
            "type": "function"
        },
        {
            "inputs": [],
            "name": "activityRewardPerSecond",
            "outputs": [
                {
                    "internalType": "uint256",
                    "name": "",
                    "type": "uint256"
                }
            ],
            "stateMutability": "view",
            "type": "function"
        },
        {
            "inputs": [],
            "name": "agendaManager",
            "outputs": [
                {
                    "internalType": "contract IDAOAgendaManager",
                    "name": "",
                    "type": "address"
                }
            ],
            "stateMutability": "view",
            "type": "function"
        },
        {
            "inputs": [
                {
                    "internalType": "address",
                    "name": "_candidate",
                    "type": "address"
                }
            ],
            "name": "candidateContract",
            "outputs": [
                {
                    "internalType": "address",
                    "name": "",
                    "type": "address"
                }
            ],
            "stateMutability": "view",
            "type": "function"
        },
        {
            "inputs": [],
            "name": "candidateFactory",
            "outputs": [
                {
                    "internalType": "contract ICandidateFactory",
                    "name": "",
                    "type": "address"
                }
            ],
            "stateMutability": "view",
            "type": "function"
        },
        {
            "inputs": [
                {
                    "internalType": "address",
                    "name": "_candidate",
                    "type": "address"
                }
            ],
            "name": "candidateInfos",
            "outputs": [
                {
                    "components": [
                        {
                            "internalType": "address",
                            "name": "candidateContract",
                            "type": "address"
                        },
                        {
                            "internalType": "uint256",
                            "name": "indexMembers",
                            "type": "uint256"
                        },
                        {
                            "internalType": "uint128",
                            "name": "memberJoinedTime",
                            "type": "uint128"
                        },
                        {
                            "internalType": "uint128",
                            "name": "rewardPeriod",
                            "type": "uint128"
                        },
                        {
                            "internalType": "uint128",
                            "name": "claimedTimestamp",
                            "type": "uint128"
                        }
                    ],
                    "internalType": "struct StorageStateCommittee.CandidateInfo",
                    "name": "",
                    "type": "tuple"
                }
            ],
            "stateMutability": "view",
            "type": "function"
        },
        {
            "inputs": [
                {
                    "internalType": "uint256",
                    "name": "",
                    "type": "uint256"
                }
            ],
            "name": "candidates",
            "outputs": [
                {
                    "internalType": "address",
                    "name": "",
                    "type": "address"
                }
            ],
            "stateMutability": "view",
            "type": "function"
        },
        {
            "inputs": [],
            "name": "daoVault",
            "outputs": [
                {
                    "internalType": "contract IDAOVault",
                    "name": "",
                    "type": "address"
                }
            ],
            "stateMutability": "view",
            "type": "function"
        },
        {
            "inputs": [
                {
                    "internalType": "bytes32",
                    "name": "role",
                    "type": "bytes32"
                }
            ],
            "name": "getRoleAdmin",
            "outputs": [
                {
                    "internalType": "bytes32",
                    "name": "",
                    "type": "bytes32"
                }
            ],
            "stateMutability": "view",
            "type": "function"
        },
        {
            "inputs": [
                {
                    "internalType": "bytes32",
                    "name": "role",
                    "type": "bytes32"
                },
                {
                    "internalType": "uint256",
                    "name": "index",
                    "type": "uint256"
                }
            ],
            "name": "getRoleMember",
            "outputs": [
                {
                    "internalType": "address",
                    "name": "",
                    "type": "address"
                }
            ],
            "stateMutability": "view",
            "type": "function"
        },
        {
            "inputs": [
                {
                    "internalType": "bytes32",
                    "name": "role",
                    "type": "bytes32"
                }
            ],
            "name": "getRoleMemberCount",
            "outputs": [
                {
                    "internalType": "uint256",
                    "name": "",
                    "type": "uint256"
                }
            ],
            "stateMutability": "view",
            "type": "function"
        },
        {
            "inputs": [
                {
                    "internalType": "bytes32",
                    "name": "role",
                    "type": "bytes32"
                },
                {
                    "internalType": "address",
                    "name": "account",
                    "type": "address"
                }
            ],
            "name": "grantRole",
            "outputs": [],
            "stateMutability": "nonpayable",
            "type": "function"
        },
        {
            "inputs": [
                {
                    "internalType": "bytes32",
                    "name": "role",
                    "type": "bytes32"
                },
                {
                    "internalType": "address",
                    "name": "account",
                    "type": "address"
                }
            ],
            "name": "hasRole",
            "outputs": [
                {
                    "internalType": "bool",
                    "name": "",
                    "type": "bool"
                }
            ],
            "stateMutability": "view",
            "type": "function"
        },
        {
            "inputs": [
                {
                    "internalType": "address",
                    "name": "_candidate",
                    "type": "address"
                }
            ],
            "name": "isMember",
            "outputs": [
                {
                    "internalType": "bool",
                    "name": "",
                    "type": "bool"
                }
            ],
            "stateMutability": "view",
            "type": "function"
        },
        {
            "inputs": [],
            "name": "layer2Registry",
            "outputs": [
                {
                    "internalType": "contract ILayer2Registry",
                    "name": "",
                    "type": "address"
                }
            ],
            "stateMutability": "view",
            "type": "function"
        },
        {
            "inputs": [],
            "name": "maxMember",
            "outputs": [
                {
                    "internalType": "uint256",
                    "name": "",
                    "type": "uint256"
                }
            ],
            "stateMutability": "view",
            "type": "function"
        },
        {
            "inputs": [
                {
                    "internalType": "uint256",
                    "name": "",
                    "type": "uint256"
                }
            ],
            "name": "members",
            "outputs": [
                {
                    "internalType": "address",
                    "name": "",
                    "type": "address"
                }
            ],
            "stateMutability": "view",
            "type": "function"
        },
        {
            "inputs": [],
            "name": "pauseProxy",
            "outputs": [
                {
                    "internalType": "bool",
                    "name": "",
                    "type": "bool"
                }
            ],
            "stateMutability": "view",
            "type": "function"
        },
        {
            "inputs": [],
            "name": "quorum",
            "outputs": [
                {
                    "internalType": "uint256",
                    "name": "",
                    "type": "uint256"
                }
            ],
            "stateMutability": "view",
            "type": "function"
        },
        {
            "inputs": [
                {
                    "internalType": "bytes32",
                    "name": "role",
                    "type": "bytes32"
                },
                {
                    "internalType": "address",
                    "name": "account",
                    "type": "address"
                }
            ],
            "name": "renounceRole",
            "outputs": [],
            "stateMutability": "nonpayable",
            "type": "function"
        },
        {
            "inputs": [
                {
                    "internalType": "bytes32",
                    "name": "role",
                    "type": "bytes32"
                },
                {
                    "internalType": "address",
                    "name": "account",
                    "type": "address"
                }
            ],
            "name": "revokeRole",
            "outputs": [],
            "stateMutability": "nonpayable",
            "type": "function"
        },
        {
            "inputs": [],
            "name": "seigManager",
            "outputs": [
                {
                    "internalType": "contract ISeigManager",
                    "name": "",
                    "type": "address"
                }
            ],
            "stateMutability": "view",
            "type": "function"
        },
        {
            "inputs": [
                {
                    "internalType": "uint256",
                    "name": "_value",
                    "type": "uint256"
                }
            ],
            "name": "setActivityRewardPerSecond",
            "outputs": [],
            "stateMutability": "nonpayable",
            "type": "function"
        },
        {
            "inputs": [
                {
                    "internalType": "address",
                    "name": "_agendaManager",
                    "type": "address"
                }
            ],
            "name": "setAgendaManager",
            "outputs": [],
            "stateMutability": "nonpayable",
            "type": "function"
        },
        {
            "inputs": [
                {
                    "internalType": "address",
                    "name": "_candidateFactory",
                    "type": "address"
                }
            ],
            "name": "setCandidateFactory",
            "outputs": [],
            "stateMutability": "nonpayable",
            "type": "function"
        },
        {
            "inputs": [
                {
                    "internalType": "address[]",
                    "name": "_candidateContracts",
                    "type": "address[]"
                },
                {
                    "internalType": "address",
                    "name": "_committee",
                    "type": "address"
                }
            ],
            "name": "setCandidatesCommittee",
            "outputs": [],
            "stateMutability": "nonpayable",
            "type": "function"
        },
        {
            "inputs": [
                {
                    "internalType": "address[]",
                    "name": "_candidateContracts",
                    "type": "address[]"
                },
                {
                    "internalType": "address",
                    "name": "_seigManager",
                    "type": "address"
                }
            ],
            "name": "setCandidatesSeigManager",
            "outputs": [],
            "stateMutability": "nonpayable",
            "type": "function"
        },
        {
            "inputs": [
                {
                    "internalType": "uint256",
                    "name": "_fees",
                    "type": "uint256"
                }
            ],
            "name": "setCreateAgendaFees",
            "outputs": [],
            "stateMutability": "nonpayable",
            "type": "function"
        },
        {
            "inputs": [
                {
                    "internalType": "address",
                    "name": "_daoVault",
                    "type": "address"
                }
            ],
            "name": "setDaoVault",
            "outputs": [],
            "stateMutability": "nonpayable",
            "type": "function"
        },
        {
            "inputs": [
                {
                    "internalType": "uint256",
                    "name": "_executingPeriodSeconds",
                    "type": "uint256"
                }
            ],
            "name": "setExecutingPeriodSeconds",
            "outputs": [],
            "stateMutability": "nonpayable",
            "type": "function"
        },
        {
            "inputs": [
                {
                    "internalType": "address",
                    "name": "_layer2Registry",
                    "type": "address"
                }
            ],
            "name": "setLayer2Registry",
            "outputs": [],
            "stateMutability": "nonpayable",
            "type": "function"
        },
        {
            "inputs": [
                {
                    "internalType": "uint256",
                    "name": "_minimumNoticePeriod",
                    "type": "uint256"
                }
            ],
            "name": "setMinimumNoticePeriodSeconds",
            "outputs": [],
            "stateMutability": "nonpayable",
            "type": "function"
        },
        {
            "inputs": [
                {
                    "internalType": "uint256",
                    "name": "_minimumVotingPeriod",
                    "type": "uint256"
                }
            ],
            "name": "setMinimumVotingPeriodSeconds",
            "outputs": [],
            "stateMutability": "nonpayable",
            "type": "function"
        },
        {
            "inputs": [
                {
                    "internalType": "address",
                    "name": "_seigManager",
                    "type": "address"
                }
            ],
            "name": "setSeigManager",
            "outputs": [],
            "stateMutability": "nonpayable",
            "type": "function"
        },
        {
            "inputs": [],
            "name": "setSeigPause",
            "outputs": [],
            "stateMutability": "nonpayable",
            "type": "function"
        },
        {
            "inputs": [],
            "name": "setSeigUnpause",
            "outputs": [],
            "stateMutability": "nonpayable",
            "type": "function"
        },
        {
            "inputs": [
                {
                    "internalType": "address",
                    "name": "token",
                    "type": "address"
                },
                {
                    "internalType": "address",
                    "name": "account",
                    "type": "address"
                }
            ],
            "name": "setTargetAddMinter",
            "outputs": [],
            "stateMutability": "nonpayable",
            "type": "function"
        },
        {
            "inputs": [
                {
                    "internalType": "address",
                    "name": "target",
                    "type": "address"
                },
                {
                    "internalType": "uint256",
                    "name": "globalWithdrawalDelay_",
                    "type": "uint256"
                }
            ],
            "name": "setTargetGlobalWithdrawalDelay",
            "outputs": [],
            "stateMutability": "nonpayable",
            "type": "function"
        },
        {
            "inputs": [
                {
                    "internalType": "address",
                    "name": "target",
                    "type": "address"
                },
                {
                    "internalType": "address",
                    "name": "_seigManager",
                    "type": "address"
                }
            ],
            "name": "setTargetSeigManager",
            "outputs": [],
            "stateMutability": "nonpayable",
            "type": "function"
        },
        {
            "inputs": [
                {
                    "internalType": "address",
                    "name": "target",
                    "type": "address"
                },
                {
                    "internalType": "address",
                    "name": "tonAddr",
                    "type": "address"
                }
            ],
            "name": "setTargetSetTON",
            "outputs": [],
            "stateMutability": "nonpayable",
            "type": "function"
        },
        {
            "inputs": [
                {
                    "internalType": "address",
                    "name": "target",
                    "type": "address"
                },
                {
                    "internalType": "address",
                    "name": "wtonAddr",
                    "type": "address"
                }
            ],
            "name": "setTargetSetWTON",
            "outputs": [],
            "stateMutability": "nonpayable",
            "type": "function"
        },
        {
            "inputs": [
                {
                    "internalType": "address",
                    "name": "target",
                    "type": "address"
                },
                {
                    "internalType": "address",
                    "name": "logic",
                    "type": "address"
                }
            ],
            "name": "setTargetUpgradeTo",
            "outputs": [],
            "stateMutability": "nonpayable",
            "type": "function"
        },
        {
            "inputs": [
                {
                    "internalType": "address",
                    "name": "_ton",
                    "type": "address"
                }
            ],
            "name": "setTon",
            "outputs": [],
            "stateMutability": "nonpayable",
            "type": "function"
        },
        {
            "inputs": [
                {
                    "internalType": "address",
                    "name": "_wton",
                    "type": "address"
                }
            ],
            "name": "setWton",
            "outputs": [],
            "stateMutability": "nonpayable",
            "type": "function"
        },
        {
            "inputs": [
                {
                    "internalType": "bytes4",
                    "name": "interfaceId",
                    "type": "bytes4"
                }
            ],
            "name": "supportsInterface",
            "outputs": [
                {
                    "internalType": "bool",
                    "name": "",
                    "type": "bool"
                }
            ],
            "stateMutability": "view",
            "type": "function"
        },
        {
            "inputs": [],
            "name": "ton",
            "outputs": [
                {
                    "internalType": "address",
                    "name": "",
                    "type": "address"
                }
            ],
            "stateMutability": "view",
            "type": "function"
        },
        {
            "inputs": [],
            "name": "wton",
            "outputs": [
                {
                    "internalType": "address",
                    "name": "",
                    "type": "address"
                }
            ],
            "stateMutability": "view",
            "type": "function"
        }
    ],
    "bytecode": "0x608060405234801561001057600080fd5b506100216301ffc9a760e01b610026565b6100a9565b6001600160e01b031980821690036100845760405162461bcd60e51b815260206004820152601c60248201527f4552433136353a20696e76616c696420696e7465726661636520696400000000604482015260640160405180910390fd5b6001600160e01b0319166000908152600d60205260409020805460ff19166001179055565b61271180620000b96000396000f3fe608060405234801561001057600080fd5b50600436106103155760003560e01c8063651d08cd116101a7578063a217fddf116100ee578063ca15c87311610097578063d547741f11610071578063d547741f146107e6578063ebf97be6146107f9578063efd579791461080c57600080fd5b8063ca15c873146107ad578063cc48b947146107c0578063cf2a239c146107d357600080fd5b8063b4f69b6a116100c8578063b4f69b6a14610774578063b5dd115814610787578063c0bc53041461079a57600080fd5b8063a217fddf14610719578063a230c52414610721578063aef2c5851461076157600080fd5b806381bfe42c1161015057806391d148541161012a57806391d14854146106e05780639d65b531146106f3578063a1f3ac2a1461070657600080fd5b806381bfe42c146106b25780638d62d949146106ba5780639010d07c146106cd57600080fd5b80636fb7f558116101815780636fb7f558146106835780637657f20a146106965780637f331636146106a957600080fd5b8063651d08cd14610631578063691542951461065d57806369b1227a1461067057600080fd5b80632f2ff15d1161026b5780634d288fec116102145780635daf08ca116101ee5780635daf08ca146105e65780635ebe7622146105f957806363a8fd891461060c57600080fd5b80634d288fec146105ad5780635903bd6c146105c05780635c43030f146105d357600080fd5b806338d1b17c1161024557806338d1b17c1461057457806349c39f14146105875780634b799db11461059a57600080fd5b80632f2ff15d1461053b5780633477ee2e1461054e57806336568abe1461056157600080fd5b80631703a018116102cd57806327fd92fd116102a757806327fd92fd146103ed5780632af60ff4146104185780632e011c1e1461042b57600080fd5b80631703a018146103ae57806323d09fdf146103b7578063248a9ca3146103ca57600080fd5b8063047f52f2116102fe578063047f52f2146103735780630c536c52146103885780630ef646ad1461039b57600080fd5b806301ffc9a71461031a57806303e3c9ac1461035c575b600080fd5b61034761032836600461247a565b6001600160e01b0319166000908152600d602052604090205460ff1690565b60405190151581526020015b60405180910390f35b61036560085481565b604051908152602001610353565b6103866103813660046124c7565b610814565b005b6103866103963660046124e2565b610921565b6103866103a93660046124e2565b610a21565b610365600a5481565b6103866103c5366004612515565b610aef565b6103656103d8366004612515565b6000908152600c602052604090206002015490565b600254610400906001600160a01b031681565b6040516001600160a01b039091168152602001610353565b6103866104263660046124c7565b610c5e565b6104dd6104393660046124c7565b6040805160a0808201835260008083526020808401829052838501829052606080850183905260809485018390526001600160a01b0396871683526009825291859020855193840186528054909616835260018601549083015260028501546fffffffffffffffffffffffffffffffff8082169584019590955270010000000000000000000000000000000090048416908201526003909301549091169082015290565b6040805182516001600160a01b0316815260208084015190820152828201516fffffffffffffffffffffffffffffffff908116928201929092526060808401518316908201526080928301519091169181019190915260a001610353565b61038661054936600461252e565b610d66565b61040061055c366004612515565b610e02565b61038661056f36600461252e565b610e2c565b610386610582366004612551565b610eb4565b6103866105953660046124c7565b610f81565b6103866105a83660046124c7565b611089565b6103866105bb3660046124c7565b611191565b600154610400906001600160a01b031681565b6103866105e136600461257b565b611299565b6104006105f4366004612515565b611420565b610386610607366004612515565b611430565b600e546103479074010000000000000000000000000000000000000000900460ff1681565b61040061063f3660046124c7565b6001600160a01b039081166000908152600960205260409020541690565b61038661066b36600461257b565b61150b565b61038661067e366004612515565b611692565b600554610400906001600160a01b031681565b6103866106a43660046124c7565b6117d0565b610365600b5481565b6103866118d8565b601054610400906001600160a01b031681565b6104006106db3660046125ff565b6119e2565b6103476106ee36600461252e565b611a03565b6103866107013660046124e2565b611a1b565b6103866107143660046124e2565b611ae9565b610365600081565b61034761072f3660046124c7565b6001600160a01b03166000908152600960205260409020600201546fffffffffffffffffffffffffffffffff16151590565b61038661076f3660046124c7565b611bb7565b610386610782366004612515565b611cbf565b600354610400906001600160a01b031681565b6103866107a8366004612515565b611dfd565b6103656107bb366004612515565b611f3b565b600054610400906001600160a01b031681565b600454610400906001600160a01b031681565b6103866107f436600461252e565b611f52565b6103866108073660046124e2565b611fe0565b6103866120ae565b604051632474521560e21b81526000600482015233602482015230906391d1485490604401602060405180830381865afa158015610856573d6000803e3d6000fd5b505050506040513d601f19601f8201168201806040525081019061087a9190612621565b6108b95760405162461bcd60e51b815260206004820152601760248201526000805160206126c583398151915260448201526064015b60405180910390fd5b806001600160a01b0381166108fe5760405162461bcd60e51b815260206004820152601a60248201526000805160206126e583398151915260448201526064016108b0565b50600380546001600160a01b0319166001600160a01b0392909216919091179055565b604051632474521560e21b81526000600482015233602482015230906391d1485490604401602060405180830381865afa158015610963573d6000803e3d6000fd5b505050506040513d601f19601f820116820180604052508101906109879190612621565b6109c15760405162461bcd60e51b815260206004820152601760248201526000805160206126c583398151915260448201526064016108b0565b60405163662d12b160e01b81526001600160a01b03828116600483015283169063662d12b1906024015b600060405180830381600087803b158015610a0557600080fd5b505af1158015610a19573d6000803e3d6000fd5b505050505050565b604051632474521560e21b81526000600482015233602482015230906391d1485490604401602060405180830381865afa158015610a63573d6000803e3d6000fd5b505050506040513d601f19601f82011682018060405250810190610a879190612621565b610ac15760405162461bcd60e51b815260206004820152601760248201526000805160206126c583398151915260448201526064016108b0565b604051631186d27960e11b81526001600160a01b03828116600483015283169063230da4f2906024016109eb565b604051632474521560e21b81526000600482015233602482015230906391d1485490604401602060405180830381865afa158015610b31573d6000803e3d6000fd5b505050506040513d601f19601f82011682018060405250810190610b559190612621565b610b8f5760405162461bcd60e51b815260206004820152601760248201526000805160206126c583398151915260448201526064016108b0565b6002546001600160a01b0316610bfc5760405162461bcd60e51b815260206004820152602c60248201527f53746f726167655374617465436f6d6d69747465653a204167656e64614d616e60448201526b61676572206973207a65726f60a01b60648201526084016108b0565b6002546040516323d09fdf60e01b8152600481018390526001600160a01b03909116906323d09fdf906024015b600060405180830381600087803b158015610c4357600080fd5b505af1158015610c57573d6000803e3d6000fd5b5050505050565b604051632474521560e21b81526000600482015233602482015230906391d1485490604401602060405180830381865afa158015610ca0573d6000803e3d6000fd5b505050506040513d601f19601f82011682018060405250810190610cc49190612621565b610cfe5760405162461bcd60e51b815260206004820152601760248201526000805160206126c583398151915260448201526064016108b0565b806001600160a01b038116610d435760405162461bcd60e51b815260206004820152601a60248201526000805160206126e583398151915260448201526064016108b0565b50600480546001600160a01b0319166001600160a01b0392909216919091179055565b6000828152600c6020526040902060020154610d829033611a03565b610df45760405162461bcd60e51b815260206004820152602f60248201527f416363657373436f6e74726f6c3a2073656e646572206d75737420626520616e60448201527f2061646d696e20746f206772616e74000000000000000000000000000000000060648201526084016108b0565b610dfe828261219e565b5050565b60068181548110610e1257600080fd5b6000918252602090912001546001600160a01b0316905081565b6001600160a01b0381163314610eaa5760405162461bcd60e51b815260206004820152602f60248201527f416363657373436f6e74726f6c3a2063616e206f6e6c792072656e6f756e636560448201527f20726f6c657320666f722073656c66000000000000000000000000000000000060648201526084016108b0565b610dfe82826121f7565b604051632474521560e21b81526000600482015233602482015230906391d1485490604401602060405180830381865afa158015610ef6573d6000803e3d6000fd5b505050506040513d601f19601f82011682018060405250810190610f1a9190612621565b610f545760405162461bcd60e51b815260206004820152601760248201526000805160206126c583398151915260448201526064016108b0565b60405163a79da34160e01b8152600481018290526001600160a01b0383169063a79da341906024016109eb565b604051632474521560e21b81526000600482015233602482015230906391d1485490604401602060405180830381865afa158015610fc3573d6000803e3d6000fd5b505050506040513d601f19601f82011682018060405250810190610fe79190612621565b6110215760405162461bcd60e51b815260206004820152601760248201526000805160206126c583398151915260448201526064016108b0565b806001600160a01b0381166110665760405162461bcd60e51b815260206004820152601a60248201526000805160206126e583398151915260448201526064016108b0565b50600280546001600160a01b0319166001600160a01b0392909216919091179055565b604051632474521560e21b81526000600482015233602482015230906391d1485490604401602060405180830381865afa1580156110cb573d6000803e3d6000fd5b505050506040513d601f19601f820116820180604052508101906110ef9190612621565b6111295760405162461bcd60e51b815260206004820152601760248201526000805160206126c583398151915260448201526064016108b0565b806001600160a01b03811661116e5760405162461bcd60e51b815260206004820152601a60248201526000805160206126e583398151915260448201526064016108b0565b50600180546001600160a01b0319166001600160a01b0392909216919091179055565b604051632474521560e21b81526000600482015233602482015230906391d1485490604401602060405180830381865afa1580156111d3573d6000803e3d6000fd5b505050506040513d601f19601f820116820180604052508101906111f79190612621565b6112315760405162461bcd60e51b815260206004820152601760248201526000805160206126c583398151915260448201526064016108b0565b806001600160a01b0381166112765760405162461bcd60e51b815260206004820152601a60248201526000805160206126e583398151915260448201526064016108b0565b50600080546001600160a01b0319166001600160a01b0392909216919091179055565b604051632474521560e21b81526000600482015233602482015230906391d1485490604401602060405180830381865afa1580156112db573d6000803e3d6000fd5b505050506040513d601f19601f820116820180604052508101906112ff9190612621565b6113395760405162461bcd60e51b815260206004820152601760248201526000805160206126c583398151915260448201526064016108b0565b806001600160a01b03811661137e5760405162461bcd60e51b815260206004820152601a60248201526000805160206126e583398151915260448201526064016108b0565b60005b83811015610c575784848281811061139b5761139b612643565b90506020020160208101906113b091906124c7565b604051635eed720760e11b81526001600160a01b038581166004830152919091169063bddae40e90602401600060405180830381600087803b1580156113f557600080fd5b505af1158015611409573d6000803e3d6000fd5b5050505080806114189061266f565b915050611381565b60078181548110610e1257600080fd5b604051632474521560e21b81526000600482015233602482015230906391d1485490604401602060405180830381865afa158015611472573d6000803e3d6000fd5b505050506040513d601f19601f820116820180604052508101906114969190612621565b6114d05760405162461bcd60e51b815260206004820152601760248201526000805160206126c583398151915260448201526064016108b0565b600b8190556040518181527f42bd846b3ff7895ea031753b0d8256b4816edaea44f7d8d9db60ea83b8ee5e4b9060200160405180910390a150565b604051632474521560e21b81526000600482015233602482015230906391d1485490604401602060405180830381865afa15801561154d573d6000803e3d6000fd5b505050506040513d601f19601f820116820180604052508101906115719190612621565b6115ab5760405162461bcd60e51b815260206004820152601760248201526000805160206126c583398151915260448201526064016108b0565b806001600160a01b0381166115f05760405162461bcd60e51b815260206004820152601a60248201526000805160206126e583398151915260448201526064016108b0565b60005b83811015610c575784848281811061160d5761160d612643565b905060200201602081019061162291906124c7565b604051633b2bf90560e11b81526001600160a01b0385811660048301529190911690637657f20a90602401600060405180830381600087803b15801561166757600080fd5b505af115801561167b573d6000803e3d6000fd5b50505050808061168a9061266f565b9150506115f3565b604051632474521560e21b81526000600482015233602482015230906391d1485490604401602060405180830381865afa1580156116d4573d6000803e3d6000fd5b505050506040513d601f19601f820116820180604052508101906116f89190612621565b6117325760405162461bcd60e51b815260206004820152601760248201526000805160206126c583398151915260448201526064016108b0565b6002546001600160a01b031661179f5760405162461bcd60e51b815260206004820152602c60248201527f53746f726167655374617465436f6d6d69747465653a204167656e64614d616e60448201526b61676572206973207a65726f60a01b60648201526084016108b0565b6002546040516334d8913d60e11b8152600481018390526001600160a01b03909116906369b1227a90602401610c29565b604051632474521560e21b81526000600482015233602482015230906391d1485490604401602060405180830381865afa158015611812573d6000803e3d6000fd5b505050506040513d601f19601f820116820180604052508101906118369190612621565b6118705760405162461bcd60e51b815260206004820152601760248201526000805160206126c583398151915260448201526064016108b0565b806001600160a01b0381166118b55760405162461bcd60e51b815260206004820152601a60248201526000805160206126e583398151915260448201526064016108b0565b50600580546001600160a01b0319166001600160a01b0392909216919091179055565b604051632474521560e21b81526000600482015233602482015230906391d1485490604401602060405180830381865afa15801561191a573d6000803e3d6000fd5b505050506040513d601f19601f8201168201806040525081019061193e9190612621565b6119785760405162461bcd60e51b815260206004820152601760248201526000805160206126c583398151915260448201526064016108b0565b600560009054906101000a90046001600160a01b03166001600160a01b0316633f4ba83a6040518163ffffffff1660e01b8152600401600060405180830381600087803b1580156119c857600080fd5b505af11580156119dc573d6000803e3d6000fd5b50505050565b6000828152600c602052604081206119fa9083612250565b90505b92915050565b6000828152600c602052604081206119fa908361225c565b604051632474521560e21b81526000600482015233602482015230906391d1485490604401602060405180830381865afa158015611a5d573d6000803e3d6000fd5b505050506040513d601f19601f82011682018060405250810190611a819190612621565b611abb5760405162461bcd60e51b815260206004820152601760248201526000805160206126c583398151915260448201526064016108b0565b604051634c1d96ab60e11b81526001600160a01b03828116600483015283169063983b2d56906024016109eb565b604051632474521560e21b81526000600482015233602482015230906391d1485490604401602060405180830381865afa158015611b2b573d6000803e3d6000fd5b505050506040513d601f19601f82011682018060405250810190611b4f9190612621565b611b895760405162461bcd60e51b815260206004820152601760248201526000805160206126c583398151915260448201526064016108b0565b604051633b2bf90560e11b81526001600160a01b038281166004830152831690637657f20a906024016109eb565b604051632474521560e21b81526000600482015233602482015230906391d1485490604401602060405180830381865afa158015611bf9573d6000803e3d6000fd5b505050506040513d601f19601f82011682018060405250810190611c1d9190612621565b611c575760405162461bcd60e51b815260206004820152601760248201526000805160206126c583398151915260448201526064016108b0565b806001600160a01b038116611c9c5760405162461bcd60e51b815260206004820152601a60248201526000805160206126e583398151915260448201526064016108b0565b50601080546001600160a01b0319166001600160a01b0392909216919091179055565b604051632474521560e21b81526000600482015233602482015230906391d1485490604401602060405180830381865afa158015611d01573d6000803e3d6000fd5b505050506040513d601f19601f82011682018060405250810190611d259190612621565b611d5f5760405162461bcd60e51b815260206004820152601760248201526000805160206126c583398151915260448201526064016108b0565b6002546001600160a01b0316611dcc5760405162461bcd60e51b815260206004820152602c60248201527f53746f726167655374617465436f6d6d69747465653a204167656e64614d616e60448201526b61676572206973207a65726f60a01b60648201526084016108b0565b600254604051635a7b4db560e11b8152600481018390526001600160a01b039091169063b4f69b6a90602401610c29565b604051632474521560e21b81526000600482015233602482015230906391d1485490604401602060405180830381865afa158015611e3f573d6000803e3d6000fd5b505050506040513d601f19601f82011682018060405250810190611e639190612621565b611e9d5760405162461bcd60e51b815260206004820152601760248201526000805160206126c583398151915260448201526064016108b0565b6002546001600160a01b0316611f0a5760405162461bcd60e51b815260206004820152602c60248201527f53746f726167655374617465436f6d6d69747465653a204167656e64614d616e60448201526b61676572206973207a65726f60a01b60648201526084016108b0565b60025460405163302f14c160e21b8152600481018390526001600160a01b039091169063c0bc530490602401610c29565b6000818152600c602052604081206119fd9061227e565b6000828152600c6020526040902060020154611f6e9033611a03565b610eaa5760405162461bcd60e51b815260206004820152603060248201527f416363657373436f6e74726f6c3a2073656e646572206d75737420626520616e60448201527f2061646d696e20746f207265766f6b650000000000000000000000000000000060648201526084016108b0565b604051632474521560e21b81526000600482015233602482015230906391d1485490604401602060405180830381865afa158015612022573d6000803e3d6000fd5b505050506040513d601f19601f820116820180604052508101906120469190612621565b6120805760405162461bcd60e51b815260206004820152601760248201526000805160206126c583398151915260448201526064016108b0565b604051631b2ce7f360e11b81526001600160a01b038281166004830152831690633659cfe6906024016109eb565b604051632474521560e21b81526000600482015233602482015230906391d1485490604401602060405180830381865afa1580156120f0573d6000803e3d6000fd5b505050506040513d601f19601f820116820180604052508101906121149190612621565b61214e5760405162461bcd60e51b815260206004820152601760248201526000805160206126c583398151915260448201526064016108b0565b600560009054906101000a90046001600160a01b03166001600160a01b0316638456cb596040518163ffffffff1660e01b8152600401600060405180830381600087803b1580156119c857600080fd5b6000828152600c602052604090206121b69082612288565b15610dfe5760405133906001600160a01b0383169084907f2f8788117e7eff1d82e926ec794901d17c78024a50270940304540a733656f0d90600090a45050565b6000828152600c6020526040902061220f908261229d565b15610dfe5760405133906001600160a01b0383169084907ff6391f5c32d9c69d2a47ea670b442974b53935d1edc7fd64eb21e047a839171b90600090a45050565b60006119fa83836122b2565b6001600160a01b038116600090815260018301602052604081205415156119fa565b60006119fd825490565b60006119fa836001600160a01b038416612338565b60006119fa836001600160a01b038416612387565b815460009082106123105760405162461bcd60e51b815260206004820152602260248201527f456e756d657261626c655365743a20696e646578206f7574206f6620626f756e604482015261647360f01b60648201526084016108b0565b82600001828154811061232557612325612643565b9060005260206000200154905092915050565b600081815260018301602052604081205461237f575081546001818101845560008481526020808220909301849055845484825282860190935260409020919091556119fd565b5060006119fd565b600081815260018301602052604081205480156124705760006123ab600183612688565b85549091506000906123bf90600190612688565b905060008660000182815481106123d8576123d8612643565b90600052602060002001549050808760000184815481106123fb576123fb612643565b60009182526020909120015561241283600161269b565b60008281526001890160205260409020558654879080612434576124346126ae565b600190038181906000526020600020016000905590558660010160008781526020019081526020016000206000905560019450505050506119fd565b60009150506119fd565b60006020828403121561248c57600080fd5b81356001600160e01b0319811681146124a457600080fd5b9392505050565b80356001600160a01b03811681146124c257600080fd5b919050565b6000602082840312156124d957600080fd5b6119fa826124ab565b600080604083850312156124f557600080fd5b6124fe836124ab565b915061250c602084016124ab565b90509250929050565b60006020828403121561252757600080fd5b5035919050565b6000806040838503121561254157600080fd5b8235915061250c602084016124ab565b6000806040838503121561256457600080fd5b61256d836124ab565b946020939093013593505050565b60008060006040848603121561259057600080fd5b833567ffffffffffffffff808211156125a857600080fd5b818601915086601f8301126125bc57600080fd5b8135818111156125cb57600080fd5b8760208260051b85010111156125e057600080fd5b6020928301955093506125f691860190506124ab565b90509250925092565b6000806040838503121561261257600080fd5b50508035926020909101359150565b60006020828403121561263357600080fd5b815180151581146124a457600080fd5b634e487b7160e01b600052603260045260246000fd5b634e487b7160e01b600052601160045260246000fd5b60006001820161268157612681612659565b5060010190565b818103818111156119fd576119fd612659565b808201808211156119fd576119fd612659565b634e487b7160e01b600052603160045260246000fdfe44414f436f6d6d69747465653a206e6f742061646d696e00000000000000000044414f436f6d6d69747465653a207a65726f2061646472657373000000000000a164736f6c6343000813000a",
    "linkReferences": {},
    "deployedLinkReferences": {}
}