{
  "_format": "hh-sol-artifact-1",
  "contractName": "DAOCommitteeProxy2",
  "sourceName": "contracts/proxy/DAOCommitteeProxy2.sol",
  "abi": [
    {
      "anonymous": false,
      "inputs": [
        {
          "indexed": true,
          "internalType": "bytes32",
          "name": "role",
          "type": "bytes32"
        },
        {
          "indexed": true,
          "internalType": "bytes32",
          "name": "previousAdminRole",
          "type": "bytes32"
        },
        {
          "indexed": true,
          "internalType": "bytes32",
          "name": "newAdminRole",
          "type": "bytes32"
        }
      ],
      "name": "RoleAdminChanged",
      "type": "event"
    },
    {
      "anonymous": false,
      "inputs": [
        {
          "indexed": true,
          "internalType": "bytes32",
          "name": "role",
          "type": "bytes32"
        },
        {
          "indexed": true,
          "internalType": "address",
          "name": "account",
          "type": "address"
        },
        {
          "indexed": true,
          "internalType": "address",
          "name": "sender",
          "type": "address"
        }
      ],
      "name": "RoleGranted",
      "type": "event"
    },
    {
      "anonymous": false,
      "inputs": [
        {
          "indexed": true,
          "internalType": "bytes32",
          "name": "role",
          "type": "bytes32"
        },
        {
          "indexed": true,
          "internalType": "address",
          "name": "account",
          "type": "address"
        },
        {
          "indexed": true,
          "internalType": "address",
          "name": "sender",
          "type": "address"
        }
      ],
      "name": "RoleRevoked",
      "type": "event"
    },
    {
      "anonymous": false,
      "inputs": [
        {
          "indexed": true,
          "internalType": "address",
          "name": "impl",
          "type": "address"
        },
        {
          "indexed": false,
          "internalType": "bool",
          "name": "alive",
          "type": "bool"
        }
      ],
      "name": "SetAliveImplementation",
      "type": "event"
    },
    {
      "anonymous": false,
      "inputs": [
        {
          "indexed": true,
          "internalType": "bytes4",
          "name": "selector",
          "type": "bytes4"
        },
        {
          "indexed": true,
          "internalType": "address",
          "name": "impl",
          "type": "address"
        }
      ],
      "name": "SetSelectorImplementation",
      "type": "event"
    },
    {
      "anonymous": false,
      "inputs": [
        {
          "indexed": true,
          "internalType": "address",
          "name": "implementation",
          "type": "address"
        }
      ],
      "name": "Upgraded",
      "type": "event"
    },
    {
      "stateMutability": "payable",
      "type": "fallback"
    },
    {
      "inputs": [],
      "name": "DEFAULT_ADMIN_ROLE",
      "outputs": [
        {
          "internalType": "bytes32",
          "name": "",
          "type": "bytes32"
        }
      ],
      "stateMutability": "view",
      "type": "function"
    },
    {
      "inputs": [],
      "name": "activityRewardPerSecond",
      "outputs": [
        {
          "internalType": "uint256",
          "name": "",
          "type": "uint256"
        }
      ],
      "stateMutability": "view",
      "type": "function"
    },
    {
      "inputs": [],
      "name": "agendaManager",
      "outputs": [
        {
          "internalType": "contract IDAOAgendaManager",
          "name": "",
          "type": "address"
        }
      ],
      "stateMutability": "view",
      "type": "function"
    },
    {
      "inputs": [
        {
          "internalType": "address",
          "name": "",
          "type": "address"
        }
      ],
      "name": "aliveImplementation",
      "outputs": [
        {
          "internalType": "bool",
          "name": "",
          "type": "bool"
        }
      ],
      "stateMutability": "view",
      "type": "function"
    },
    {
      "inputs": [
        {
          "internalType": "address",
          "name": "_candidate",
          "type": "address"
        }
      ],
      "name": "candidateContract",
      "outputs": [
        {
          "internalType": "address",
          "name": "",
          "type": "address"
        }
      ],
      "stateMutability": "view",
      "type": "function"
    },
    {
      "inputs": [],
      "name": "candidateFactory",
      "outputs": [
        {
          "internalType": "contract ICandidateFactory",
          "name": "",
          "type": "address"
        }
      ],
      "stateMutability": "view",
      "type": "function"
    },
    {
      "inputs": [
        {
          "internalType": "address",
          "name": "_candidate",
          "type": "address"
        }
      ],
      "name": "candidateInfos",
      "outputs": [
        {
          "components": [
            {
              "internalType": "address",
              "name": "candidateContract",
              "type": "address"
            },
            {
              "internalType": "uint256",
              "name": "indexMembers",
              "type": "uint256"
            },
            {
              "internalType": "uint128",
              "name": "memberJoinedTime",
              "type": "uint128"
            },
            {
              "internalType": "uint128",
              "name": "rewardPeriod",
              "type": "uint128"
            },
            {
              "internalType": "uint128",
              "name": "claimedTimestamp",
              "type": "uint128"
            }
          ],
          "internalType": "struct StorageStateCommittee.CandidateInfo",
          "name": "",
          "type": "tuple"
        }
      ],
      "stateMutability": "view",
      "type": "function"
    },
    {
      "inputs": [
        {
          "internalType": "uint256",
          "name": "",
          "type": "uint256"
        }
      ],
      "name": "candidates",
      "outputs": [
        {
          "internalType": "address",
          "name": "",
          "type": "address"
        }
      ],
      "stateMutability": "view",
      "type": "function"
    },
    {
      "inputs": [],
      "name": "daoVault",
      "outputs": [
        {
          "internalType": "contract IDAOVault",
          "name": "",
          "type": "address"
        }
      ],
      "stateMutability": "view",
      "type": "function"
    },
    {
      "inputs": [
        {
          "internalType": "bytes32",
          "name": "role",
          "type": "bytes32"
        }
      ],
      "name": "getRoleAdmin",
      "outputs": [
        {
          "internalType": "bytes32",
          "name": "",
          "type": "bytes32"
        }
      ],
      "stateMutability": "view",
      "type": "function"
    },
    {
      "inputs": [
        {
          "internalType": "bytes32",
          "name": "role",
          "type": "bytes32"
        },
        {
          "internalType": "uint256",
          "name": "index",
          "type": "uint256"
        }
      ],
      "name": "getRoleMember",
      "outputs": [
        {
          "internalType": "address",
          "name": "",
          "type": "address"
        }
      ],
      "stateMutability": "view",
      "type": "function"
    },
    {
      "inputs": [
        {
          "internalType": "bytes32",
          "name": "role",
          "type": "bytes32"
        }
      ],
      "name": "getRoleMemberCount",
      "outputs": [
        {
          "internalType": "uint256",
          "name": "",
          "type": "uint256"
        }
      ],
      "stateMutability": "view",
      "type": "function"
    },
    {
      "inputs": [
        {
          "internalType": "bytes4",
          "name": "_selector",
          "type": "bytes4"
        }
      ],
      "name": "getSelectorImplementation2",
      "outputs": [
        {
          "internalType": "address",
          "name": "impl",
          "type": "address"
        }
      ],
      "stateMutability": "view",
      "type": "function"
    },
    {
      "inputs": [
        {
          "internalType": "bytes32",
          "name": "role",
          "type": "bytes32"
        },
        {
          "internalType": "address",
          "name": "account",
          "type": "address"
        }
      ],
      "name": "grantRole",
      "outputs": [],
      "stateMutability": "nonpayable",
      "type": "function"
    },
    {
      "inputs": [
        {
          "internalType": "bytes32",
          "name": "role",
          "type": "bytes32"
        },
        {
          "internalType": "address",
          "name": "account",
          "type": "address"
        }
      ],
      "name": "hasRole",
      "outputs": [
        {
          "internalType": "bool",
          "name": "",
          "type": "bool"
        }
      ],
      "stateMutability": "view",
      "type": "function"
    },
    {
      "inputs": [],
      "name": "implementation",
      "outputs": [
        {
          "internalType": "address",
          "name": "",
          "type": "address"
        }
      ],
      "stateMutability": "view",
      "type": "function"
    },
    {
      "inputs": [
        {
          "internalType": "uint256",
          "name": "_index",
          "type": "uint256"
        }
      ],
      "name": "implementation2",
      "outputs": [
        {
          "internalType": "address",
          "name": "",
          "type": "address"
        }
      ],
      "stateMutability": "view",
      "type": "function"
    },
    {
      "inputs": [
        {
          "internalType": "address",
          "name": "_candidate",
          "type": "address"
        }
      ],
      "name": "isMember",
      "outputs": [
        {
          "internalType": "bool",
          "name": "",
          "type": "bool"
        }
      ],
      "stateMutability": "view",
      "type": "function"
    },
    {
      "inputs": [],
      "name": "layer2Registry",
      "outputs": [
        {
          "internalType": "contract ILayer2Registry",
          "name": "",
          "type": "address"
        }
      ],
      "stateMutability": "view",
      "type": "function"
    },
    {
      "inputs": [],
      "name": "maxMember",
      "outputs": [
        {
          "internalType": "uint256",
          "name": "",
          "type": "uint256"
        }
      ],
      "stateMutability": "view",
      "type": "function"
    },
    {
      "inputs": [
        {
          "internalType": "uint256",
          "name": "",
          "type": "uint256"
        }
      ],
      "name": "members",
      "outputs": [
        {
          "internalType": "address",
          "name": "",
          "type": "address"
        }
      ],
      "stateMutability": "view",
      "type": "function"
    },
    {
      "inputs": [],
      "name": "pauseProxy",
      "outputs": [
        {
          "internalType": "bool",
          "name": "",
          "type": "bool"
        }
      ],
      "stateMutability": "view",
      "type": "function"
    },
    {
      "inputs": [
        {
          "internalType": "uint256",
          "name": "",
          "type": "uint256"
        }
      ],
      "name": "proxyImplementation",
      "outputs": [
        {
          "internalType": "address",
          "name": "",
          "type": "address"
        }
      ],
      "stateMutability": "view",
      "type": "function"
    },
    {
      "inputs": [],
      "name": "quorum",
      "outputs": [
        {
          "internalType": "uint256",
          "name": "",
          "type": "uint256"
        }
      ],
      "stateMutability": "view",
      "type": "function"
    },
    {
      "inputs": [
        {
          "internalType": "bytes32",
          "name": "role",
          "type": "bytes32"
        },
        {
          "internalType": "address",
          "name": "account",
          "type": "address"
        }
      ],
      "name": "renounceRole",
      "outputs": [],
      "stateMutability": "nonpayable",
      "type": "function"
    },
    {
      "inputs": [
        {
          "internalType": "bytes32",
          "name": "role",
          "type": "bytes32"
        },
        {
          "internalType": "address",
          "name": "account",
          "type": "address"
        }
      ],
      "name": "revokeRole",
      "outputs": [],
      "stateMutability": "nonpayable",
      "type": "function"
    },
    {
      "inputs": [],
      "name": "seigManager",
      "outputs": [
        {
          "internalType": "contract ISeigManager",
          "name": "",
          "type": "address"
        }
      ],
      "stateMutability": "view",
      "type": "function"
    },
    {
      "inputs": [
        {
          "internalType": "bytes4",
          "name": "",
          "type": "bytes4"
        }
      ],
      "name": "selectorImplementation",
      "outputs": [
        {
          "internalType": "address",
          "name": "",
          "type": "address"
        }
      ],
      "stateMutability": "view",
      "type": "function"
    },
    {
      "inputs": [
        {
          "internalType": "address",
          "name": "newImplementation",
          "type": "address"
        },
        {
          "internalType": "bool",
          "name": "_alive",
          "type": "bool"
        }
      ],
      "name": "setAliveImplementation2",
      "outputs": [],
      "stateMutability": "nonpayable",
      "type": "function"
    },
    {
      "inputs": [
        {
          "internalType": "address",
          "name": "newImplementation",
          "type": "address"
        },
        {
          "internalType": "uint256",
          "name": "_index",
          "type": "uint256"
        },
        {
          "internalType": "bool",
          "name": "_alive",
          "type": "bool"
        }
      ],
      "name": "setImplementation2",
      "outputs": [],
      "stateMutability": "nonpayable",
      "type": "function"
    },
    {
      "inputs": [
        {
          "internalType": "bytes4[]",
          "name": "_selectors",
          "type": "bytes4[]"
        },
        {
          "internalType": "address",
          "name": "_imp",
          "type": "address"
        }
      ],
      "name": "setSelectorImplementations2",
      "outputs": [],
      "stateMutability": "nonpayable",
      "type": "function"
    },
    {
      "inputs": [
        {
          "internalType": "bytes4",
          "name": "interfaceId",
          "type": "bytes4"
        }
      ],
      "name": "supportsInterface",
      "outputs": [
        {
          "internalType": "bool",
          "name": "",
          "type": "bool"
        }
      ],
      "stateMutability": "view",
      "type": "function"
    },
    {
      "inputs": [],
      "name": "ton",
      "outputs": [
        {
          "internalType": "address",
          "name": "",
          "type": "address"
        }
      ],
      "stateMutability": "view",
      "type": "function"
    },
    {
      "inputs": [
        {
          "internalType": "address",
          "name": "impl",
          "type": "address"
        }
      ],
      "name": "upgradeTo2",
      "outputs": [],
      "stateMutability": "nonpayable",
      "type": "function"
    },
    {
      "stateMutability": "payable",
      "type": "receive"
    }
  ],
  "bytecode": "0x60808060405234610052576301ffc9a760e01b600052600d6020527f49c01d976ca1c616ed1de1469e98d664903a805642011c315785aa325a483c71805460ff191660011790556115d290816100588239f35b600080fdfe60806040526004361015610018575b3661140c576113d0565b60003560e01c806301ffc9a71461023357806303e3c9ac1461022e5780631703a01814610229578063248a9ca31461022457806327fd92fd1461021f5780632e011c1e1461021a5780632f2ff15d146102155780633477ee2e1461021057806336568abe1461020b5780634a5df50f1461020657806350d2a27614610201578063550d01a3146101fc5780635903bd6c146101f75780635c60da1b146101f25780635cc797d8146101ed5780635daf08ca146101e857806363a8fd89146101e3578063651d08cd146101de5780636fb7f558146101d95780637cd5f663146101d45780637f331636146101cf5780638b8f4a65146101ac5780638d4fdb40146101ca5780639010d07c146101c557806391d14854146101c0578063a217fddf146101bb578063a230c524146101b6578063b5dd1158146101b1578063b911135f146101ac578063ca15c873146101a7578063cc48b947146101a2578063cf2a239c1461019d578063d547741f146101985763dfc2ccf30361000e57610e5b565b610da0565b610d77565b610d4e565b610d22565b610b2c565b610cf9565b610cb1565b610c95565b610c40565b610b99565b610b60565b610b0e565b610a3b565b610a12565b6109d7565b6109b1565b610956565b6108ff565b6108cb565b6108a2565b610863565b61081d565b610635565b6105a1565b610546565b610456565b610352565b6102fd565b6102ce565b6102b0565b610292565b61024f565b6001600160e01b031981160361024a57565b600080fd5b3461024a57602036600319011261024a5760043561026c81610238565b63ffffffff60e01b16600052600d602052602060ff604060002054166040519015158152f35b3461024a57600036600319011261024a576020600854604051908152f35b3461024a57600036600319011261024a576020600a54604051908152f35b3461024a57602036600319011261024a57600435600052600c6020526020600260406000200154604051908152f35b3461024a57600036600319011261024a576002546040516001600160a01b039091168152602090f35b600435906001600160a01b038216820361024a57565b602435906001600160a01b038216820361024a57565b3461024a57602036600319011261024a5761045261036e610326565b6104016103f1600360406080610382611196565b60009181838093528260208201528285820152826060820152015260018060a01b0380961681526009602052206103b7611196565b9481541685526001810154602086015260028101546001600160801b038116604087015260801c606086015201546001600160801b031690565b6001600160801b03166080830152565b60405191829182919091608060a082019360018060a01b03815116835260208101516020840152816001600160801b0391826040820151166040860152826060820151166060860152015116910152565b0390f35b3461024a57604036600319011261024a5760043561047261033c565b90600091818352600c602052600260408420015483526104a5336040852060019160005201602052604060002054151590565b156104b6576104b391610f4f565b80f35b60405162461bcd60e51b815260206004820152602f60248201527f416363657373436f6e74726f6c3a2073656e646572206d75737420626520616e60448201526e0818591b5a5b881d1bc819dc985b9d608a1b6064820152608490fd5b634e487b7160e01b600052603260045260246000fd5b80548210156105415760005260206000200190600090565b610513565b3461024a57602036600319011261024a5760043560065481101561024a5760066000527ff652222313e28459528d920b65115c16c04f3efc82aaedc97be59f3f377c0d3f01546040516001600160a01b039091168152602090f35b3461024a57604036600319011261024a576105ba61033c565b336001600160a01b038216036105d8576105d690600435610fa5565b005b60405162461bcd60e51b815260206004820152602f60248201527f416363657373436f6e74726f6c3a2063616e206f6e6c792072656e6f756e636560448201526e103937b632b9903337b91039b2b63360891b6064820152608490fd5b3461024a57604036600319011261024a5767ffffffffffffffff60043581811161024a573660238201121561024a57806004013591821161024a576024810190602436918460051b01011161024a5761068c61033c565b33600090815260008051602061158683398151915260205260408120549093906106b79015156111b6565b80156107d9576106ed6106e86106e184959460018060a01b0316600052600f602052604060002090565b5460ff1690565b611251565b6001600160a01b03928084169290855b838110610708578680f35b80610758868861075061074361072a6107256107d4988c8c6112ac565b6112bc565b63ffffffff60e01b166000526010602052604060002090565b546001600160a01b031690565b1614156112c9565b61078c8361076d61072a610725858a8a6112ac565b80546001600160a01b0319166001600160a01b03909216919091179055565b856107ab61079e6107258489896112ac565b6001600160e01b03191690565b7f14ebc1c32aa68f4d766e89f3e546cee249f7df25183fc10ab1568d91c2ce9b7b8a80a361129d565b6106fd565b606460405162461bcd60e51b815260206004820152602060248201527f50726f78793a205f73656c6563746f727327732073697a65206973207a65726f6044820152fd5b3461024a57602036600319011261024a5760043561083a81610238565b63ffffffff60e01b166000526010602052602060018060a01b0360406000205416604051908152f35b3461024a57602036600319011261024a576001600160a01b03610884610326565b16600052600f602052602060ff604060002054166040519015158152f35b3461024a57600036600319011261024a576001546040516001600160a01b039091168152602090f35b3461024a576000806003193601126108fc57808060209252600e8252604060018060a01b0391205416604051908152f35b80fd5b3461024a57604036600319011261024a57610918610326565b602435801515810361024a5733600090815260008051602061158683398151915260205260409020546105d692906109519015156111b6565b611531565b3461024a57602036600319011261024a5760043560075481101561024a5760076000527fa66cc928b5edb82af9bd49922954155ab7b0942694bea4ce44661d9a8736c68801546040516001600160a01b039091168152602090f35b3461024a57600036600319011261024a57602060ff60115460a01c166040519015158152f35b3461024a57602036600319011261024a5760206001600160a01b03806109fb610326565b166000526009825260406000205416604051908152f35b3461024a57600036600319011261024a576005546040516001600160a01b039091168152602090f35b3461024a57606036600319011261024a57610a54610326565b60443590811515820361024a573360009081526000805160206115868339815191526020526040812054909290610a8c9015156111b6565b813b15610ac9576104b3918115611531576024358452600e6020526040842080546001600160a01b0319166001600160a01b038316179055611531565b60405162461bcd60e51b815260206004820152601b60248201527f50726f78793a206e6f7420636f6e7472616374206164647265737300000000006044820152606490fd5b3461024a57600036600319011261024a576020600b54604051908152f35b3461024a57602036600319011261024a57600435600052600e602052602060018060a01b0360406000205416604051908152f35b3461024a57602036600319011261024a576020610b87600435610b8281610238565b611307565b6040516001600160a01b039091168152f35b3461024a57604036600319011261024a57602435600435600052600c6020526040600020908082541115610bf057610bd091610529565b905460405160039290921b1c6001600160a01b0316815280602081010390f35b60405162461bcd60e51b815260206004820152602260248201527f456e756d657261626c655365743a20696e646578206f7574206f6620626f756e604482015261647360f01b6064820152608490fd5b3461024a57604036600319011261024a576020610c8b610c5e61033c565b6004356000908152600c845260408082206001600160a01b03909316825260019092016020522054151590565b6040519015158152f35b3461024a57600036600319011261024a57602060405160008152f35b3461024a57602036600319011261024a576001600160a01b03610cd2610326565b16600052600960205260206001600160801b03600260406000200154161515604051908152f35b3461024a57600036600319011261024a576003546040516001600160a01b039091168152602090f35b3461024a57602036600319011261024a57600435600052600c6020526020604060002054604051908152f35b3461024a57600036600319011261024a576000546040516001600160a01b039091168152602090f35b3461024a57600036600319011261024a576004546040516001600160a01b039091168152602090f35b3461024a57604036600319011261024a57600435610dbc61033c565b90600091818352600c60205260026040842001548352610def336040852060019160005201602052604060002054151590565b15610dfd576104b391610fa5565b60405162461bcd60e51b815260206004820152603060248201527f416363657373436f6e74726f6c3a2073656e646572206d75737420626520616e60448201526f2061646d696e20746f207265766f6b6560801b6064820152608490fd5b3461024a57602036600319011261024a57610e74610326565b3360009081526000805160206115868339815191526020526040812054909190610e9f9015156111b6565b6001600160a01b038116908115610f1a5760008052600e602052610ef390610eee83610ee7610edb6000805160206115a6833981519152610743565b6001600160a01b031690565b1415611219565b6114ab565b7fbc7cd75a20ee27fd9adebab32041f755214dbc6bffa90cc0225b39da2e5c2d3b8280a280f35b60405162461bcd60e51b815260206004820152600d60248201526c696e707574206973207a65726f60981b6044820152606490fd5b6000818152600c6020526040902090916001600160a01b031690610f74908290611011565b610f7c575050565b33917f2f8788117e7eff1d82e926ec794901d17c78024a50270940304540a733656f0d600080a4565b6000818152600c6020526040902090916001600160a01b031690610fca9082906110f2565b610fd2575050565b33917ff6391f5c32d9c69d2a47ea670b442974b53935d1edc7fd64eb21e047a839171b600080a4565b634e487b7160e01b600052604160045260246000fd5b6000828152600182016020526040902054611082578054906801000000000000000082101561107d578261106661104f846001809601855584610529565b819391549060031b91821b91600019901b19161790565b905580549260005201602052604060002055600190565b610ffb565b5050600090565b634e487b7160e01b600052601160045260246000fd5b90600182018092116110ad57565b611089565b80549081156110dc57600019918201916110cc8383610529565b909182549160031b1b1916905555565b634e487b7160e01b600052603160045260246000fd5b90600182019080600052816020526040600020549182151560001461118d576000198381019384116110ad5784549081019081116110ad5784611187946111726111616111446111789560009a610529565b90549060031b1c928361115a61104f8388610529565b905561109f565b918590600052602052604060002090565b556110b2565b90600052602052604060002090565b55600190565b50505050600090565b6040519060a0820182811067ffffffffffffffff82111761107d57604052565b156111bd57565b60405162461bcd60e51b815260206004820152602e60248201527f44414f436f6d6d697474656550726f7879323a206d73672e73656e646572206960448201526d39903737ba1030b71030b236b4b760911b6064820152608490fd5b1561122057565b60405162461bcd60e51b815260206004820152600960248201526839b0b6b29030b2323960b91b6044820152606490fd5b1561125857565b60405162461bcd60e51b815260206004820152601860248201527f50726f78793a205f696d70206973206e6f7420616c69766500000000000000006044820152606490fd5b60001981146110ad5760010190565b91908110156105415760051b0190565b356112c681610238565b90565b156112d057565b60405162461bcd60e51b815260206004820152600f60248201526e050726f78793a2073616d6520696d7608c1b6044820152606490fd5b6001600160e01b031981166000908152601060205260409020546001600160a01b039190821661134f575060008052600e6020526000805160206115a6833981519152541690565b60ff61138e836113728463ffffffff60e01b166000526010602052604060002090565b54166001600160a01b03166000908152600f6020526040902090565b5416156113b2576001600160e01b0319166000908152601060205260409020541690565b5060008052600e6020526000805160206115a6833981519152541690565b60405162461bcd60e51b815260206004820152601460248201527331b0b73737ba103932b1b2b4bb329022ba3432b960611b6044820152606490fd5b600061142281356001600160e01b031916611307565b6001600160a01b03811615158061149b575b1561145657818091368280378136915af43d82803e15611452573d90f35b3d90fd5b60405162461bcd60e51b815260206004820152601d60248201527f50726f78793a20696d706c204f522070726f78792069732066616c73650000006044820152606490fd5b5060ff60115460a01c1615611434565b803b15610ac95760008052600e6020526000805160206115a683398151915280546001600160a01b0319166001600160a01b03831617905560018060a01b031680600052600f6020526040600020600160ff198254161790557f72558d9bfba4210f9ef095c782589484151f6d90f7a81bb3cb9b33efc695d324602060405160018152a2565b60207f72558d9bfba4210f9ef095c782589484151f6d90f7a81bb3cb9b33efc695d3249160018060a01b03169283600052600f825260406000209015159060ff1981541660ff8316179055604051908152a256fe13649b2456f1b42fef0f0040b3aaeabcd21a76a0f3f5defd4f583839455116e9e710864318d4a32f37d6ce54cb3fadbef648dd12d8dbdf53973564d56b7f881ca164736f6c6343000813000a",
  "linkReferences": {},
  "deployedLinkReferences": {}
}