{
  "_format": "hh-sol-artifact-1",
  "contractName": "DAOCommitteeAddV1_1",
  "sourceName": "contracts/dao/DAOCommitteeAddV1_1.sol",
  "abi": [
    {
      "anonymous": false,
      "inputs": [
        {
          "indexed": true,
          "internalType": "address",
          "name": "candidate",
          "type": "address"
        },
        {
          "indexed": true,
          "internalType": "address",
          "name": "candidateContract",
          "type": "address"
        },
        {
          "indexed": false,
          "internalType": "string",
          "name": "memo",
          "type": "string"
        }
      ],
      "name": "CandidateContractCreated",
      "type": "event"
    },
    {
      "anonymous": false,
      "inputs": [
        {
          "indexed": true,
          "internalType": "bytes32",
          "name": "role",
          "type": "bytes32"
        },
        {
          "indexed": true,
          "internalType": "bytes32",
          "name": "previousAdminRole",
          "type": "bytes32"
        },
        {
          "indexed": true,
          "internalType": "bytes32",
          "name": "newAdminRole",
          "type": "bytes32"
        }
      ],
      "name": "RoleAdminChanged",
      "type": "event"
    },
    {
      "anonymous": false,
      "inputs": [
        {
          "indexed": true,
          "internalType": "bytes32",
          "name": "role",
          "type": "bytes32"
        },
        {
          "indexed": true,
          "internalType": "address",
          "name": "account",
          "type": "address"
        },
        {
          "indexed": true,
          "internalType": "address",
          "name": "sender",
          "type": "address"
        }
      ],
      "name": "RoleGranted",
      "type": "event"
    },
    {
      "anonymous": false,
      "inputs": [
        {
          "indexed": true,
          "internalType": "bytes32",
          "name": "role",
          "type": "bytes32"
        },
        {
          "indexed": true,
          "internalType": "address",
          "name": "account",
          "type": "address"
        },
        {
          "indexed": true,
          "internalType": "address",
          "name": "sender",
          "type": "address"
        }
      ],
      "name": "RoleRevoked",
      "type": "event"
    },
    {
      "inputs": [],
      "name": "DEFAULT_ADMIN_ROLE",
      "outputs": [
        {
          "internalType": "bytes32",
          "name": "",
          "type": "bytes32"
        }
      ],
      "stateMutability": "view",
      "type": "function"
    },
    {
      "inputs": [],
      "name": "activityRewardPerSecond",
      "outputs": [
        {
          "internalType": "uint256",
          "name": "",
          "type": "uint256"
        }
      ],
      "stateMutability": "view",
      "type": "function"
    },
    {
      "inputs": [],
      "name": "agendaManager",
      "outputs": [
        {
          "internalType": "contract IDAOAgendaManager",
          "name": "",
          "type": "address"
        }
      ],
      "stateMutability": "view",
      "type": "function"
    },
    {
      "inputs": [
        {
          "internalType": "address",
          "name": "_candidate",
          "type": "address"
        }
      ],
      "name": "candidateContract",
      "outputs": [
        {
          "internalType": "address",
          "name": "",
          "type": "address"
        }
      ],
      "stateMutability": "view",
      "type": "function"
    },
    {
      "inputs": [],
      "name": "candidateFactory",
      "outputs": [
        {
          "internalType": "contract ICandidateFactory",
          "name": "",
          "type": "address"
        }
      ],
      "stateMutability": "view",
      "type": "function"
    },
    {
      "inputs": [
        {
          "internalType": "address",
          "name": "_candidate",
          "type": "address"
        }
      ],
      "name": "candidateInfos",
      "outputs": [
        {
          "components": [
            {
              "internalType": "address",
              "name": "candidateContract",
              "type": "address"
            },
            {
              "internalType": "uint256",
              "name": "indexMembers",
              "type": "uint256"
            },
            {
              "internalType": "uint128",
              "name": "memberJoinedTime",
              "type": "uint128"
            },
            {
              "internalType": "uint128",
              "name": "rewardPeriod",
              "type": "uint128"
            },
            {
              "internalType": "uint128",
              "name": "claimedTimestamp",
              "type": "uint128"
            }
          ],
          "internalType": "struct StorageStateCommittee.CandidateInfo",
          "name": "",
          "type": "tuple"
        }
      ],
      "stateMutability": "view",
      "type": "function"
    },
    {
      "inputs": [
        {
          "internalType": "uint256",
          "name": "",
          "type": "uint256"
        }
      ],
      "name": "candidates",
      "outputs": [
        {
          "internalType": "address",
          "name": "",
          "type": "address"
        }
      ],
      "stateMutability": "view",
      "type": "function"
    },
    {
      "inputs": [
        {
          "internalType": "string",
          "name": "_memo",
          "type": "string"
        },
        {
          "internalType": "address",
          "name": "_operatorAddress",
          "type": "address"
        }
      ],
      "name": "createLayer2Candidate",
      "outputs": [
        {
          "internalType": "address",
          "name": "",
          "type": "address"
        }
      ],
      "stateMutability": "nonpayable",
      "type": "function"
    },
    {
      "inputs": [],
      "name": "daoVault",
      "outputs": [
        {
          "internalType": "contract IDAOVault",
          "name": "",
          "type": "address"
        }
      ],
      "stateMutability": "view",
      "type": "function"
    },
    {
      "inputs": [
        {
          "internalType": "bytes32",
          "name": "role",
          "type": "bytes32"
        }
      ],
      "name": "getRoleAdmin",
      "outputs": [
        {
          "internalType": "bytes32",
          "name": "",
          "type": "bytes32"
        }
      ],
      "stateMutability": "view",
      "type": "function"
    },
    {
      "inputs": [
        {
          "internalType": "bytes32",
          "name": "role",
          "type": "bytes32"
        },
        {
          "internalType": "uint256",
          "name": "index",
          "type": "uint256"
        }
      ],
      "name": "getRoleMember",
      "outputs": [
        {
          "internalType": "address",
          "name": "",
          "type": "address"
        }
      ],
      "stateMutability": "view",
      "type": "function"
    },
    {
      "inputs": [
        {
          "internalType": "bytes32",
          "name": "role",
          "type": "bytes32"
        }
      ],
      "name": "getRoleMemberCount",
      "outputs": [
        {
          "internalType": "uint256",
          "name": "",
          "type": "uint256"
        }
      ],
      "stateMutability": "view",
      "type": "function"
    },
    {
      "inputs": [
        {
          "internalType": "bytes32",
          "name": "role",
          "type": "bytes32"
        },
        {
          "internalType": "address",
          "name": "account",
          "type": "address"
        }
      ],
      "name": "grantRole",
      "outputs": [],
      "stateMutability": "nonpayable",
      "type": "function"
    },
    {
      "inputs": [
        {
          "internalType": "bytes32",
          "name": "role",
          "type": "bytes32"
        },
        {
          "internalType": "address",
          "name": "account",
          "type": "address"
        }
      ],
      "name": "hasRole",
      "outputs": [
        {
          "internalType": "bool",
          "name": "",
          "type": "bool"
        }
      ],
      "stateMutability": "view",
      "type": "function"
    },
    {
      "inputs": [
        {
          "internalType": "address",
          "name": "_candidate",
          "type": "address"
        }
      ],
      "name": "isMember",
      "outputs": [
        {
          "internalType": "bool",
          "name": "",
          "type": "bool"
        }
      ],
      "stateMutability": "view",
      "type": "function"
    },
    {
      "inputs": [],
      "name": "layer2CandidateFactory",
      "outputs": [
        {
          "internalType": "address",
          "name": "",
          "type": "address"
        }
      ],
      "stateMutability": "view",
      "type": "function"
    },
    {
      "inputs": [],
      "name": "layer2Manager",
      "outputs": [
        {
          "internalType": "address",
          "name": "",
          "type": "address"
        }
      ],
      "stateMutability": "view",
      "type": "function"
    },
    {
      "inputs": [],
      "name": "layer2Registry",
      "outputs": [
        {
          "internalType": "contract ILayer2Registry",
          "name": "",
          "type": "address"
        }
      ],
      "stateMutability": "view",
      "type": "function"
    },
    {
      "inputs": [],
      "name": "maxMember",
      "outputs": [
        {
          "internalType": "uint256",
          "name": "",
          "type": "uint256"
        }
      ],
      "stateMutability": "view",
      "type": "function"
    },
    {
      "inputs": [
        {
          "internalType": "uint256",
          "name": "",
          "type": "uint256"
        }
      ],
      "name": "members",
      "outputs": [
        {
          "internalType": "address",
          "name": "",
          "type": "address"
        }
      ],
      "stateMutability": "view",
      "type": "function"
    },
    {
      "inputs": [],
      "name": "pauseProxy",
      "outputs": [
        {
          "internalType": "bool",
          "name": "",
          "type": "bool"
        }
      ],
      "stateMutability": "view",
      "type": "function"
    },
    {
      "inputs": [],
      "name": "quorum",
      "outputs": [
        {
          "internalType": "uint256",
          "name": "",
          "type": "uint256"
        }
      ],
      "stateMutability": "view",
      "type": "function"
    },
    {
      "inputs": [
        {
          "internalType": "bytes32",
          "name": "role",
          "type": "bytes32"
        },
        {
          "internalType": "address",
          "name": "account",
          "type": "address"
        }
      ],
      "name": "renounceRole",
      "outputs": [],
      "stateMutability": "nonpayable",
      "type": "function"
    },
    {
      "inputs": [
        {
          "internalType": "bytes32",
          "name": "role",
          "type": "bytes32"
        },
        {
          "internalType": "address",
          "name": "account",
          "type": "address"
        }
      ],
      "name": "revokeRole",
      "outputs": [],
      "stateMutability": "nonpayable",
      "type": "function"
    },
    {
      "inputs": [],
      "name": "seigManager",
      "outputs": [
        {
          "internalType": "contract ISeigManager",
          "name": "",
          "type": "address"
        }
      ],
      "stateMutability": "view",
      "type": "function"
    },
    {
      "inputs": [
        {
          "internalType": "address",
          "name": "_layer2CandidateFactory",
          "type": "address"
        }
      ],
      "name": "setLayer2CandidateFactory",
      "outputs": [],
      "stateMutability": "nonpayable",
      "type": "function"
    },
    {
      "inputs": [
        {
          "internalType": "address",
          "name": "_layer2CandidateFactory",
          "type": "address"
        }
      ],
      "name": "setLayer2Manager",
      "outputs": [],
      "stateMutability": "nonpayable",
      "type": "function"
    },
    {
      "inputs": [
        {
          "internalType": "address",
          "name": "target",
          "type": "address"
        },
        {
          "internalType": "uint256",
          "name": "startBlock_",
          "type": "uint256"
        }
      ],
      "name": "setTargetLayer2StartBlock",
      "outputs": [],
      "stateMutability": "nonpayable",
      "type": "function"
    },
    {
      "inputs": [
        {
          "internalType": "address",
          "name": "target",
          "type": "address"
        },
        {
          "internalType": "address",
          "name": "l2Registry_",
          "type": "address"
        }
      ],
      "name": "setTargetSetL2Registry",
      "outputs": [],
      "stateMutability": "nonpayable",
      "type": "function"
    },
    {
      "inputs": [
        {
          "internalType": "address",
          "name": "target",
          "type": "address"
        },
        {
          "internalType": "address",
          "name": "layer2Manager_",
          "type": "address"
        }
      ],
      "name": "setTargetSetLayer2Manager",
      "outputs": [],
      "stateMutability": "nonpayable",
      "type": "function"
    },
    {
      "inputs": [
        {
          "internalType": "bytes4",
          "name": "interfaceId",
          "type": "bytes4"
        }
      ],
      "name": "supportsInterface",
      "outputs": [
        {
          "internalType": "bool",
          "name": "",
          "type": "bool"
        }
      ],
      "stateMutability": "view",
      "type": "function"
    },
    {
      "inputs": [],
      "name": "ton",
      "outputs": [
        {
          "internalType": "address",
          "name": "",
          "type": "address"
        }
      ],
      "stateMutability": "view",
      "type": "function"
    },
    {
      "inputs": [],
      "name": "wton",
      "outputs": [
        {
          "internalType": "address",
          "name": "",
          "type": "address"
        }
      ],
      "stateMutability": "view",
      "type": "function"
    }
  ],
  "bytecode": "0x60808060405234610052576301ffc9a760e01b600052600d6020527f49c01d976ca1c616ed1de1469e98d664903a805642011c315785aa325a483c71805460ff1916600117905561147390816100588239f35b600080fdfe6080604081815260048036101561001557600080fd5b600092833560e01c90816301ffc9a7146110585750806303e3c9ac1461103957806309a17bce14610b6857806309a353a614610ad257806316b5d5bd14610aa95780631703a01814610a8a578063248a9ca314610a6057806327fd92fd14610a375780632a5c2a9c146109ec5780632e011c1e146109255780632f2ff15d146108265780633477ee2e146107fc57806336568abe1461076a578381634e24ce49146106dc575080635903bd6c146106b35780635daf08ca14610659578063627ac99d1461063057806363a8fd8914610609578063651d08cd146105ce5780636fb7f558146105a55780637f331636146105865780638d62d9491461055d5780639010d07c146104c057806391d148541461046b578063a217fddf14610450578063a230c52414610408578063b5dd1158146103df578063baa1253614610372578063ca15c8731461034b578063cc48b94714610323578063cf2a239c146102f8578063d547741f1461023a5763e9152a331461019057600080fd5b8291346102365780600319360112610236576101aa6110af565b838052600c6020526101d66101d13384872060019160005201602052604060002054151590565b6112e1565b6001600160a01b031691823b15610231578392602484928451958693849263ac28e2ed60e01b84528435908401525af190811561022857506102155750f35b61021e9061137d565b6102255780f35b80fd5b513d84823e3d90fd5b505050fd5b5050fd5b508290346102f457826003193601126102f4578035610257611094565b91818452600c6020526002858520015484526102853386862060019160005201602052604060002054151590565b156102985750906102959161112a565b80f35b608490602086519162461bcd60e51b8352820152603060248201527f416363657373436f6e74726f6c3a2073656e646572206d75737420626520616e60448201526f2061646d696e20746f207265766f6b6560801b6064820152fd5b5080fd5b503461031f578260031936011261031f575490516001600160a01b03909116815260209150f35b8280fd5b5050346102f457816003193601126102f457905490516001600160a01b039091168152602090f35b503461031f57602036600319011261031f576020928291358152600c845220549051908152f35b5050346102f45760203660031901126102f4576103b56101d16103936110af565b92848052600c6020523390852060019160005201602052604060002054151590565b6001600160a01b03166103c9811515611326565b6001600160601b0360a01b601154161760115580f35b5050346102f457816003193601126102f45760035490516001600160a01b039091168152602090f35b5050346102f45760203660031901126102f4576020916001600160801b039060029083906001600160a01b0361043c6110af565b168152600986522001541615159051908152f35b5050346102f457816003193601126102f45751908152602090f35b503461031f578160031936011261031f576104b7908260209461048c611094565b92358152600c8652206001600160a01b03909116600090815260019091016020526040902054151590565b90519015158152f35b508290346102f457826003193601126102f457826024359282358152600c6020522090828254111561050f576020846104f98585611112565b905491519160018060a01b039160031b1c168152f35b608490602085519162461bcd60e51b8352820152602260248201527f456e756d657261626c655365743a20696e646578206f7574206f6620626f756e604482015261647360f01b6064820152fd5b5050346102f457816003193601126102f45760105490516001600160a01b039091168152602090f35b5050346102f457816003193601126102f457602090600b549051908152f35b5050346102f457816003193601126102f45760055490516001600160a01b039091168152602090f35b5050346102f45760203660031901126102f4576020916001600160a01b03908290826105f86110af565b168152600985522054169051908152f35b5050346102f457816003193601126102f45760209060ff600e5460a01c1690519015158152f35b5050346102f457816003193601126102f45760125490516001600160a01b039091168152602090f35b503461031f57602036600319011261031f573560075481101561031f5760076000527fa66cc928b5edb82af9bd49922954155ab7b0942694bea4ce44661d9a8736c688015490516001600160a01b03909116815260209150f35b5050346102f457816003193601126102f45760015490516001600160a01b039091168152602090f35b929050346102365780600319360112610236576106f76110af565b6106ff611094565b90848052600c6020526107276101d13385882060019160005201602052604060002054151590565b6001600160a01b03908116803b156107665785928360249286519788958694635d50929b60e11b865216908401525af190811561022857506102155750f35b8580fd5b508290346102f457826003193601126102f457610785611094565b90336001600160a01b038316036107a15790610295913561112a565b608490602085519162461bcd60e51b8352820152602f60248201527f416363657373436f6e74726f6c3a2063616e206f6e6c792072656e6f756e636560448201526e103937b632b9903337b91039b2b63360891b6064820152fd5b503461031f57602036600319011261031f57359160065483101561022557506104f96020926110c5565b503461031f578160031936011261031f57803591610842611094565b91838552600c6020526002828620015485526108703383872060019160005201602052604060002054151590565b156108cb5750828452600c60205283206001600160a01b0390911690610897908290611180565b61089f578280f35b33917f2f8788117e7eff1d82e926ec794901d17c78024a50270940304540a733656f0d8480a438808280f35b6020608492519162461bcd60e51b8352820152602f60248201527f416363657373436f6e74726f6c3a2073656e646572206d75737420626520616e60448201526e0818591b5a5b881d1bc819dc985b9d608a1b6064820152fd5b5050346102f45760203660031901126102f457608060a0926003836109486110af565b928085835161095681611361565b82815282602082015282858201528260608201520152600180881b03809416815260096020522084519261098984611361565b8154169485845260018201549160208501928352600281015492828601906001600160801b03978880978195828916865260608b0198841c8952015416970196875283519889525160208901525116908601525116606084015251166080820152f35b5050346102f45760203660031901126102f457610a0d6101d16103936110af565b6001600160a01b0316610a21811515611326565b6001600160601b0360a01b601254161760125580f35b5050346102f457816003193601126102f45760025490516001600160a01b039091168152602090f35b503461031f57602036600319011261031f5781602093600292358152600c85522001549051908152f35b5050346102f457816003193601126102f457602090600a549051908152f35b5050346102f457816003193601126102f45760115490516001600160a01b039091168152602090f35b50903461031f578060031936011261031f5782610aed6110af565b610af5611094565b828052600c602052610b1c6101d13386862060019160005201602052604060002054151590565b6001600160a01b0391821690813b15610b6457836024928651978895869463089fd57f60e31b865216908401525af19081156102285750610b5b575080f35b6102959061137d565b8380fd5b509190346102f457806003193601126102f45767ffffffffffffffff928035848111610b645736602382011215610b64578082013585811161103557602492838301928483369201011161076657610bbe611094565b6011549094906001600160a01b039081163303610ff35786519860608a018a811082821117610fe1579089918952602b8b5260209a8b81017f6372656174654c617965723243616e646964617465205f6f70657261746f72419052888a82016a646472657373203a20257360a81b9052610c37916113d4565b8a83806012541681600554169a8c519586809481936337d5af5f60e01b8352169d8e8c8301528a8201608090528d8d6084840190610c74926113b3565b90306044840152606483015203925af1918215610fd7578a92610f9b575b50885190818a0190811182821017610f8957828493927563616e646964617465436f6e7472616374203a20257360501b8e610cd5948e52601683528201526113d4565b16978815610f2e5786815260098a52818882205416610ed357868a8960038151610cfe81611361565b8d81528381018681528784830194888652600960608501978a895260808601998b8b528b525288209251166001600160601b0360a01b8354161782555160018201556001600160801b03809351166001600160801b031980955160801b161760028201550192511690825416179055600654600160401b811015610ec157806001610d8c92016006556110c5565b81549060031b90848a831b921b19161790558982855416926005541660448b848c519687948593635e58d38f60e11b85528b850152898401525af1918215610eb5578192610e7b575b505015610e205750508492917f7cf8db18d9a5c7f44156bfabdbb59ac982a8a004e461ca1b87ee71a5cdfbc5ef91610e1786519283928a84528a8401916113b3565b0390a351908152f35b855162461bcd60e51b81529182018890526030908201527f44414f436f6d6d69747465653a206661696c656420746f20726567697374657260448201526f416e644465706c6f79436f696e61676560801b6064820152608490fd5b9091508981813d8311610eae575b610e938183611391565b810103126102f4575190811515820361022557503880610dd5565b503d610e89565b508751903d90823e3d90fd5b634e487b7160e01b8252604185528382fd5b875162461bcd60e51b81528085018b90526030818501527f44414f436f6d6d69747465653a205468652063616e64696461746520616c726560448201526f18591e481a185cc818dbdb9d1c9858dd60821b6064820152608490fd5b875162461bcd60e51b81528085018b90526030818501527f44414f436f6d6d69747465653a206465706c6f7965642063616e64696461746560448201526f436f6e7472616374206973207a65726f60801b6064820152608490fd5b634e487b7160e01b8b5260418652848bfd5b9091508a81813d8311610fd0575b610fb38183611391565b81010312610fcc57518281168103610fcc579038610c92565b8980fd5b503d610fa9565b89513d8c823e3d90fd5b634e487b7160e01b8a5260418552838afd5b865162461bcd60e51b8152602081850152601d818401527f73656e646572206973206e6f742061206c61796572324d616e616765720000006044820152606490fd5b8480fd5b5050346102f457816003193601126102f4576020906008549051908152f35b9291905034610b64576020366003190112610b64573563ffffffff60e01b8116809103610b64578352600d602090815292205460ff1615158152f35b602435906001600160a01b03821682036110aa57565b600080fd5b600435906001600160a01b03821682036110aa57565b6006548110156110fc5760066000527ff652222313e28459528d920b65115c16c04f3efc82aaedc97be59f3f377c0d3f0190600090565b634e487b7160e01b600052603260045260246000fd5b80548210156110fc5760005260206000200190600090565b6000818152600c6020526040902090916001600160a01b03169061114f908290611204565b611157575050565b33917ff6391f5c32d9c69d2a47ea670b442974b53935d1edc7fd64eb21e047a839171b600080a4565b60008281526001820160205260409020546111fd57805490600160401b8210156111e757826111d06111b9846001809601855584611112565b819391549060031b91821b91600019901b19161790565b905580549260005201602052604060002055600190565b634e487b7160e01b600052604160045260246000fd5b5050600090565b906001820190600092818452826020526040842054908115156000146112da57600019918083018181116112c65782548481019081116112b2579061125f61124f6111b99386611112565b90549060031b1c92839286611112565b905586528460205260408620558054801561129e578201916112818383611112565b909182549160031b1b191690555582526020526040812055600190565b634e487b7160e01b86526031600452602486fd5b634e487b7160e01b88526011600452602488fd5b634e487b7160e01b87526011600452602487fd5b5050505090565b156112e857565b60405162461bcd60e51b815260206004820152601660248201527539b2b73232b91034b9903737ba1030b71030b236b4b760511b6044820152606490fd5b1561132d57565b60405162461bcd60e51b815260206004820152600c60248201526b7a65726f206164647265737360a01b6044820152606490fd5b60a0810190811067ffffffffffffffff8211176111e757604052565b67ffffffffffffffff81116111e757604052565b90601f8019910116810190811067ffffffffffffffff8211176111e757604052565b908060209392818452848401376000828201840152601f01601f1916010190565b604051906020928383019363319af33360e01b85526040602485015282519283606486015260005b848110611452575050509161143f608482846000979596888481998501015260018060a01b03166044830152601f80199101168101036064810184520182611391565b51906a636f6e736f6c652e6c6f675afa50565b8181018301518682016084015282016113fc56fea164736f6c6343000813000a",
  "linkReferences": {},
  "deployedLinkReferences": {}
}