{
  "_format": "hh-sol-artifact-1",
  "contractName": "DAOCommitteeAddV1_1",
  "sourceName": "contracts/dao/DAOCommitteeAddV1_1.sol",
  "abi": [
    {
      "anonymous": false,
      "inputs": [
        {
          "indexed": true,
          "internalType": "address",
          "name": "candidate",
          "type": "address"
        },
        {
          "indexed": true,
          "internalType": "address",
          "name": "candidateContract",
          "type": "address"
        },
        {
          "indexed": false,
          "internalType": "string",
          "name": "memo",
          "type": "string"
        }
      ],
      "name": "CandidateContractCreated",
      "type": "event"
    },
    {
      "anonymous": false,
      "inputs": [
        {
          "indexed": true,
          "internalType": "bytes32",
          "name": "role",
          "type": "bytes32"
        },
        {
          "indexed": true,
          "internalType": "bytes32",
          "name": "previousAdminRole",
          "type": "bytes32"
        },
        {
          "indexed": true,
          "internalType": "bytes32",
          "name": "newAdminRole",
          "type": "bytes32"
        }
      ],
      "name": "RoleAdminChanged",
      "type": "event"
    },
    {
      "anonymous": false,
      "inputs": [
        {
          "indexed": true,
          "internalType": "bytes32",
          "name": "role",
          "type": "bytes32"
        },
        {
          "indexed": true,
          "internalType": "address",
          "name": "account",
          "type": "address"
        },
        {
          "indexed": true,
          "internalType": "address",
          "name": "sender",
          "type": "address"
        }
      ],
      "name": "RoleGranted",
      "type": "event"
    },
    {
      "anonymous": false,
      "inputs": [
        {
          "indexed": true,
          "internalType": "bytes32",
          "name": "role",
          "type": "bytes32"
        },
        {
          "indexed": true,
          "internalType": "address",
          "name": "account",
          "type": "address"
        },
        {
          "indexed": true,
          "internalType": "address",
          "name": "sender",
          "type": "address"
        }
      ],
      "name": "RoleRevoked",
      "type": "event"
    },
    {
      "inputs": [],
      "name": "DEFAULT_ADMIN_ROLE",
      "outputs": [
        {
          "internalType": "bytes32",
          "name": "",
          "type": "bytes32"
        }
      ],
      "stateMutability": "view",
      "type": "function"
    },
    {
      "inputs": [],
      "name": "activityRewardPerSecond",
      "outputs": [
        {
          "internalType": "uint256",
          "name": "",
          "type": "uint256"
        }
      ],
      "stateMutability": "view",
      "type": "function"
    },
    {
      "inputs": [],
      "name": "agendaManager",
      "outputs": [
        {
          "internalType": "contract IDAOAgendaManager",
          "name": "",
          "type": "address"
        }
      ],
      "stateMutability": "view",
      "type": "function"
    },
    {
      "inputs": [
        {
          "internalType": "address",
          "name": "_candidate",
          "type": "address"
        }
      ],
      "name": "candidateContract",
      "outputs": [
        {
          "internalType": "address",
          "name": "",
          "type": "address"
        }
      ],
      "stateMutability": "view",
      "type": "function"
    },
    {
      "inputs": [],
      "name": "candidateFactory",
      "outputs": [
        {
          "internalType": "contract ICandidateFactory",
          "name": "",
          "type": "address"
        }
      ],
      "stateMutability": "view",
      "type": "function"
    },
    {
      "inputs": [
        {
          "internalType": "address",
          "name": "_candidate",
          "type": "address"
        }
      ],
      "name": "candidateInfos",
      "outputs": [
        {
          "components": [
            {
              "internalType": "address",
              "name": "candidateContract",
              "type": "address"
            },
            {
              "internalType": "uint256",
              "name": "indexMembers",
              "type": "uint256"
            },
            {
              "internalType": "uint128",
              "name": "memberJoinedTime",
              "type": "uint128"
            },
            {
              "internalType": "uint128",
              "name": "rewardPeriod",
              "type": "uint128"
            },
            {
              "internalType": "uint128",
              "name": "claimedTimestamp",
              "type": "uint128"
            }
          ],
          "internalType": "struct StorageStateCommittee.CandidateInfo",
          "name": "",
          "type": "tuple"
        }
      ],
      "stateMutability": "view",
      "type": "function"
    },
    {
      "inputs": [
        {
          "internalType": "uint256",
          "name": "",
          "type": "uint256"
        }
      ],
      "name": "candidates",
      "outputs": [
        {
          "internalType": "address",
          "name": "",
          "type": "address"
        }
      ],
      "stateMutability": "view",
      "type": "function"
    },
    {
      "inputs": [
        {
          "internalType": "string",
          "name": "_memo",
          "type": "string"
        },
        {
          "internalType": "address",
          "name": "_operatorAddress",
          "type": "address"
        }
      ],
      "name": "createLayer2Candidate",
      "outputs": [
        {
          "internalType": "address",
          "name": "",
          "type": "address"
        }
      ],
      "stateMutability": "nonpayable",
      "type": "function"
    },
    {
      "inputs": [],
      "name": "daoVault",
      "outputs": [
        {
          "internalType": "contract IDAOVault",
          "name": "",
          "type": "address"
        }
      ],
      "stateMutability": "view",
      "type": "function"
    },
    {
      "inputs": [
        {
          "internalType": "bytes32",
          "name": "role",
          "type": "bytes32"
        }
      ],
      "name": "getRoleAdmin",
      "outputs": [
        {
          "internalType": "bytes32",
          "name": "",
          "type": "bytes32"
        }
      ],
      "stateMutability": "view",
      "type": "function"
    },
    {
      "inputs": [
        {
          "internalType": "bytes32",
          "name": "role",
          "type": "bytes32"
        },
        {
          "internalType": "uint256",
          "name": "index",
          "type": "uint256"
        }
      ],
      "name": "getRoleMember",
      "outputs": [
        {
          "internalType": "address",
          "name": "",
          "type": "address"
        }
      ],
      "stateMutability": "view",
      "type": "function"
    },
    {
      "inputs": [
        {
          "internalType": "bytes32",
          "name": "role",
          "type": "bytes32"
        }
      ],
      "name": "getRoleMemberCount",
      "outputs": [
        {
          "internalType": "uint256",
          "name": "",
          "type": "uint256"
        }
      ],
      "stateMutability": "view",
      "type": "function"
    },
    {
      "inputs": [
        {
          "internalType": "bytes32",
          "name": "role",
          "type": "bytes32"
        },
        {
          "internalType": "address",
          "name": "account",
          "type": "address"
        }
      ],
      "name": "grantRole",
      "outputs": [],
      "stateMutability": "nonpayable",
      "type": "function"
    },
    {
      "inputs": [
        {
          "internalType": "bytes32",
          "name": "role",
          "type": "bytes32"
        },
        {
          "internalType": "address",
          "name": "account",
          "type": "address"
        }
      ],
      "name": "hasRole",
      "outputs": [
        {
          "internalType": "bool",
          "name": "",
          "type": "bool"
        }
      ],
      "stateMutability": "view",
      "type": "function"
    },
    {
      "inputs": [
        {
          "internalType": "address",
          "name": "_candidate",
          "type": "address"
        }
      ],
      "name": "isMember",
      "outputs": [
        {
          "internalType": "bool",
          "name": "",
          "type": "bool"
        }
      ],
      "stateMutability": "view",
      "type": "function"
    },
    {
      "inputs": [],
      "name": "layer2CandidateFactory",
      "outputs": [
        {
          "internalType": "address",
          "name": "",
          "type": "address"
        }
      ],
      "stateMutability": "view",
      "type": "function"
    },
    {
      "inputs": [],
      "name": "layer2Manager",
      "outputs": [
        {
          "internalType": "address",
          "name": "",
          "type": "address"
        }
      ],
      "stateMutability": "view",
      "type": "function"
    },
    {
      "inputs": [],
      "name": "layer2Registry",
      "outputs": [
        {
          "internalType": "contract ILayer2Registry",
          "name": "",
          "type": "address"
        }
      ],
      "stateMutability": "view",
      "type": "function"
    },
    {
      "inputs": [],
      "name": "maxMember",
      "outputs": [
        {
          "internalType": "uint256",
          "name": "",
          "type": "uint256"
        }
      ],
      "stateMutability": "view",
      "type": "function"
    },
    {
      "inputs": [
        {
          "internalType": "uint256",
          "name": "",
          "type": "uint256"
        }
      ],
      "name": "members",
      "outputs": [
        {
          "internalType": "address",
          "name": "",
          "type": "address"
        }
      ],
      "stateMutability": "view",
      "type": "function"
    },
    {
      "inputs": [],
      "name": "pauseProxy",
      "outputs": [
        {
          "internalType": "bool",
          "name": "",
          "type": "bool"
        }
      ],
      "stateMutability": "view",
      "type": "function"
    },
    {
      "inputs": [],
      "name": "quorum",
      "outputs": [
        {
          "internalType": "uint256",
          "name": "",
          "type": "uint256"
        }
      ],
      "stateMutability": "view",
      "type": "function"
    },
    {
      "inputs": [
        {
          "internalType": "bytes32",
          "name": "role",
          "type": "bytes32"
        },
        {
          "internalType": "address",
          "name": "account",
          "type": "address"
        }
      ],
      "name": "renounceRole",
      "outputs": [],
      "stateMutability": "nonpayable",
      "type": "function"
    },
    {
      "inputs": [
        {
          "internalType": "bytes32",
          "name": "role",
          "type": "bytes32"
        },
        {
          "internalType": "address",
          "name": "account",
          "type": "address"
        }
      ],
      "name": "revokeRole",
      "outputs": [],
      "stateMutability": "nonpayable",
      "type": "function"
    },
    {
      "inputs": [],
      "name": "seigManager",
      "outputs": [
        {
          "internalType": "contract ISeigManager",
          "name": "",
          "type": "address"
        }
      ],
      "stateMutability": "view",
      "type": "function"
    },
    {
      "inputs": [
        {
          "internalType": "address",
          "name": "_layer2CandidateFactory",
          "type": "address"
        }
      ],
      "name": "setLayer2CandidateFactory",
      "outputs": [],
      "stateMutability": "nonpayable",
      "type": "function"
    },
    {
      "inputs": [
        {
          "internalType": "address",
          "name": "_layer2CandidateFactory",
          "type": "address"
        }
      ],
      "name": "setLayer2Manager",
      "outputs": [],
      "stateMutability": "nonpayable",
      "type": "function"
    },
    {
      "inputs": [
        {
          "internalType": "address",
          "name": "target",
          "type": "address"
        },
        {
          "internalType": "uint256",
          "name": "startBlock_",
          "type": "uint256"
        }
      ],
      "name": "setTargetLayer2StartBlock",
      "outputs": [],
      "stateMutability": "nonpayable",
      "type": "function"
    },
    {
      "inputs": [
        {
          "internalType": "address",
          "name": "target",
          "type": "address"
        },
        {
          "internalType": "address",
          "name": "newImplementation",
          "type": "address"
        },
        {
          "internalType": "uint256",
          "name": "index",
          "type": "uint256"
        },
        {
          "internalType": "bool",
          "name": "alive",
          "type": "bool"
        }
      ],
      "name": "setTargetSetImplementation2",
      "outputs": [],
      "stateMutability": "nonpayable",
      "type": "function"
    },
    {
      "inputs": [
        {
          "internalType": "address",
          "name": "target",
          "type": "address"
        },
        {
          "internalType": "address",
          "name": "l2Registry_",
          "type": "address"
        }
      ],
      "name": "setTargetSetL2Registry",
      "outputs": [],
      "stateMutability": "nonpayable",
      "type": "function"
    },
    {
      "inputs": [
        {
          "internalType": "address",
          "name": "target",
          "type": "address"
        },
        {
          "internalType": "address",
          "name": "layer2Manager_",
          "type": "address"
        }
      ],
      "name": "setTargetSetLayer2Manager",
      "outputs": [],
      "stateMutability": "nonpayable",
      "type": "function"
    },
    {
      "inputs": [
        {
          "internalType": "address",
          "name": "target",
          "type": "address"
        },
        {
          "internalType": "bytes4[]",
          "name": "_selectors",
          "type": "bytes4[]"
        },
        {
          "internalType": "address",
          "name": "_imp",
          "type": "address"
        }
      ],
      "name": "setTargetSetSelectorImplementations2",
      "outputs": [],
      "stateMutability": "nonpayable",
      "type": "function"
    },
    {
      "inputs": [
        {
          "internalType": "bytes4",
          "name": "interfaceId",
          "type": "bytes4"
        }
      ],
      "name": "supportsInterface",
      "outputs": [
        {
          "internalType": "bool",
          "name": "",
          "type": "bool"
        }
      ],
      "stateMutability": "view",
      "type": "function"
    },
    {
      "inputs": [],
      "name": "ton",
      "outputs": [
        {
          "internalType": "address",
          "name": "",
          "type": "address"
        }
      ],
      "stateMutability": "view",
      "type": "function"
    },
    {
      "inputs": [],
      "name": "wton",
      "outputs": [
        {
          "internalType": "address",
          "name": "",
          "type": "address"
        }
      ],
      "stateMutability": "view",
      "type": "function"
    }
  ],
  "bytecode": "0x60808060405234610052576301ffc9a760e01b600052600d6020527f49c01d976ca1c616ed1de1469e98d664903a805642011c315785aa325a483c71805460ff1916600117905561164e90816100588239f35b600080fdfe6080604081815260048036101561001557600080fd5b600092833560e01c90816301ffc9a7146112385750806303e3c9ac1461121957806309a17bce14610d4c57806309a353a614610cb657806316b5d5bd14610c8d5780631703a01814610c6e578063248a9ca314610c4457806327fd92fd14610c1b5780632a5c2a9c14610bd05780632e011c1e14610b095780632f2ff15d14610a0a578063342478c2146108e75780633477ee2e146108bd57806336568abe1461082b578381634a15efa7146107805781634e24ce49146106f2575080635903bd6c146106c95780635daf08ca1461066f578063627ac99d1461064657806363a8fd891461061f578063651d08cd146105e45780636fb7f558146105bb5780637f3316361461059c5780638d62d949146105735780639010d07c146104d657806391d1485414610481578063a217fddf14610466578063a230c5241461041e578063b5dd1158146103f5578063baa1253614610388578063ca15c87314610361578063cc48b94714610339578063cf2a239c1461030e578063d547741f146102505763e9152a33146101a657600080fd5b82913461024c578060031936011261024c576101c061128a565b838052600c6020526101ec6101e73384872060019160005201602052604060002054151590565b6114bc565b6001600160a01b031691823b15610247578392602484928451958693849263ac28e2ed60e01b84528435908401525af190811561023e575061022b5750f35b61023490611558565b61023b5780f35b80fd5b513d84823e3d90fd5b505050fd5b5050fd5b5082903461030a578260031936011261030a57803561026d611274565b91818452600c60205260028585200154845261029b3386862060019160005201602052604060002054151590565b156102ae5750906102ab91611305565b80f35b608490602086519162461bcd60e51b8352820152603060248201527f416363657373436f6e74726f6c3a2073656e646572206d75737420626520616e60448201526f2061646d696e20746f207265766f6b6560801b6064820152fd5b5080fd5b50346103355782600319360112610335575490516001600160a01b03909116815260209150f35b8280fd5b50503461030a578160031936011261030a57905490516001600160a01b039091168152602090f35b5034610335576020366003190112610335576020928291358152600c845220549051908152f35b50503461030a57602036600319011261030a576103cb6101e76103a961128a565b92848052600c6020523390852060019160005201602052604060002054151590565b6001600160a01b03166103df811515611501565b6001600160601b0360a01b601154161760115580f35b50503461030a578160031936011261030a5760035490516001600160a01b039091168152602090f35b50503461030a57602036600319011261030a576020916001600160801b039060029083906001600160a01b0361045261128a565b168152600986522001541615159051908152f35b50503461030a578160031936011261030a5751908152602090f35b50346103355781600319360112610335576104cd90826020946104a2611274565b92358152600c8652206001600160a01b03909116600090815260019091016020526040902054151590565b90519015158152f35b5082903461030a578260031936011261030a57826024359282358152600c602052209082825411156105255760208461050f85856112ed565b905491519160018060a01b039160031b1c168152f35b608490602085519162461bcd60e51b8352820152602260248201527f456e756d657261626c655365743a20696e646578206f7574206f6620626f756e604482015261647360f01b6064820152fd5b50503461030a578160031936011261030a5760105490516001600160a01b039091168152602090f35b50503461030a578160031936011261030a57602090600b549051908152f35b50503461030a578160031936011261030a5760055490516001600160a01b039091168152602090f35b50503461030a57602036600319011261030a576020916001600160a01b039082908261060e61128a565b168152600985522054169051908152f35b50503461030a578160031936011261030a5760209060ff600e5460a01c1690519015158152f35b50503461030a578160031936011261030a5760125490516001600160a01b039091168152602090f35b503461033557602036600319011261033557356007548110156103355760076000527fa66cc928b5edb82af9bd49922954155ab7b0942694bea4ce44661d9a8736c688015490516001600160a01b03909116815260209150f35b50503461030a578160031936011261030a5760015490516001600160a01b039091168152602090f35b9290503461024c578060031936011261024c5761070d61128a565b610715611274565b90848052600c60205261073d6101e73385882060019160005201602052604060002054151590565b6001600160a01b03908116803b1561077c5785928360249286519788958694635d50929b60e11b865216908401525af190811561023e575061022b5750f35b8580fd5b9290503461024c57608036600319011261024c5761079c61128a565b6107a4611274565b906064359182151580930361077c57858052600c6020526107da6101e73386892060019160005201602052604060002054151590565b6001600160a01b0391821690813b156108275786606492819587519889968795637cd5f66360e01b87521690850152604435602485015260448401525af190811561023e575061022b5750f35b8680fd5b5082903461030a578260031936011261030a57610846611274565b90336001600160a01b0383160361086257906102ab9135611305565b608490602085519162461bcd60e51b8352820152602f60248201527f416363657373436f6e74726f6c3a2063616e206f6e6c792072656e6f756e636560448201526e103937b632b9903337b91039b2b63360891b6064820152fd5b503461033557602036600319011261033557359160065483101561023b575061050f6020926112a0565b5082903461030a57606036600319011261030a5761090361128a565b9260243567ffffffffffffffff808211610a065736602383011215610a065781840135908111610a06573660248260051b84010111610a06576044356001600160a01b038181169291839003610a0157868052602097600c895261097c6101e733888b2060019160005201602052604060002054151590565b1696873b15610827578451634a5df50f60e01b81529586018590526044860182905260648601936024019190875b8281106109d65750505050849584868181958195602483015203925af190811561023e575061022b5750f35b9091929485359063ffffffff60e01b8216809203610a015790815282019482019291906001016109aa565b600080fd5b8480fd5b5034610335578160031936011261033557803591610a26611274565b91838552600c602052600282862001548552610a543383872060019160005201602052604060002054151590565b15610aaf5750828452600c60205283206001600160a01b0390911690610a7b90829061135b565b610a83578280f35b33917f2f8788117e7eff1d82e926ec794901d17c78024a50270940304540a733656f0d8480a438808280f35b6020608492519162461bcd60e51b8352820152602f60248201527f416363657373436f6e74726f6c3a2073656e646572206d75737420626520616e60448201526e0818591b5a5b881d1bc819dc985b9d608a1b6064820152fd5b50503461030a57602036600319011261030a57608060a092600383610b2c61128a565b9280858351610b3a8161153c565b82815282602082015282858201528260608201520152600180881b038094168152600960205220845192610b6d8461153c565b8154169485845260018201549160208501928352600281015492828601906001600160801b03978880978195828916865260608b0198841c8952015416970196875283519889525160208901525116908601525116606084015251166080820152f35b50503461030a57602036600319011261030a57610bf16101e76103a961128a565b6001600160a01b0316610c05811515611501565b6001600160601b0360a01b601254161760125580f35b50503461030a578160031936011261030a5760025490516001600160a01b039091168152602090f35b50346103355760203660031901126103355781602093600292358152600c85522001549051908152f35b50503461030a578160031936011261030a57602090600a549051908152f35b50503461030a578160031936011261030a5760115490516001600160a01b039091168152602090f35b50903461033557806003193601126103355782610cd161128a565b610cd9611274565b828052600c602052610d006101e73386862060019160005201602052604060002054151590565b6001600160a01b0391821690813b15610d4857836024928651978895869463089fd57f60e31b865216908401525af190811561023e5750610d3f575080f35b6102ab90611558565b8380fd5b5091903461030a578060031936011261030a5767ffffffffffffffff928035848111610d485736602382011215610d485780820135858111610a0657602492838301928483369201011161077c57610da2611274565b6011549094906001600160a01b0390811633036111d75786519860608a018a8110828211176111c5579089918952602b8b5260209a8b81017f6372656174654c617965723243616e646964617465205f6f70657261746f72419052888a82016a646472657373203a20257360a81b9052610e1b916115af565b8a83806012541681600554169a8c519586809481936337d5af5f60e01b8352169d8e8c8301528a8201608090528d8d6084840190610e589261158e565b90306044840152606483015203925af19182156111bb578a9261117f575b50885190818a019081118282101761116d57828493927563616e646964617465436f6e7472616374203a20257360501b8e610eb9948e52601683528201526115af565b169788156111125786815260098a528188822054166110b757868a8960038151610ee28161153c565b8d81528381018681528784830194888652600960608501978a895260808601998b8b528b525288209251166001600160601b0360a01b8354161782555160018201556001600160801b03809351166001600160801b031980955160801b161760028201550192511690825416179055600654600160401b8110156110a557806001610f7092016006556112a0565b81549060031b90848a831b921b19161790558982855416926005541660448b848c519687948593635e58d38f60e11b85528b850152898401525af191821561109957819261105f575b5050156110045750508492917f7cf8db18d9a5c7f44156bfabdbb59ac982a8a004e461ca1b87ee71a5cdfbc5ef91610ffb86519283928a84528a84019161158e565b0390a351908152f35b855162461bcd60e51b81529182018890526030908201527f44414f436f6d6d69747465653a206661696c656420746f20726567697374657260448201526f416e644465706c6f79436f696e61676560801b6064820152608490fd5b9091508981813d8311611092575b611077818361156c565b8101031261030a575190811515820361023b57503880610fb9565b503d61106d565b508751903d90823e3d90fd5b634e487b7160e01b8252604185528382fd5b875162461bcd60e51b81528085018b90526030818501527f44414f436f6d6d69747465653a205468652063616e64696461746520616c726560448201526f18591e481a185cc818dbdb9d1c9858dd60821b6064820152608490fd5b875162461bcd60e51b81528085018b90526030818501527f44414f436f6d6d69747465653a206465706c6f7965642063616e64696461746560448201526f436f6e7472616374206973207a65726f60801b6064820152608490fd5b634e487b7160e01b8b5260418652848bfd5b9091508a81813d83116111b4575b611197818361156c565b810103126111b0575182811681036111b0579038610e76565b8980fd5b503d61118d565b89513d8c823e3d90fd5b634e487b7160e01b8a5260418552838afd5b865162461bcd60e51b8152602081850152601d818401527f73656e646572206973206e6f742061206c61796572324d616e616765720000006044820152606490fd5b50503461030a578160031936011261030a576020906008549051908152f35b9291905034610d48576020366003190112610d48573563ffffffff60e01b8116809103610d48578352600d602090815292205460ff1615158152f35b602435906001600160a01b0382168203610a0157565b600435906001600160a01b0382168203610a0157565b6006548110156112d75760066000527ff652222313e28459528d920b65115c16c04f3efc82aaedc97be59f3f377c0d3f0190600090565b634e487b7160e01b600052603260045260246000fd5b80548210156112d75760005260206000200190600090565b6000818152600c6020526040902090916001600160a01b03169061132a9082906113df565b611332575050565b33917ff6391f5c32d9c69d2a47ea670b442974b53935d1edc7fd64eb21e047a839171b600080a4565b60008281526001820160205260409020546113d857805490600160401b8210156113c257826113ab6113948460018096018555846112ed565b819391549060031b91821b91600019901b19161790565b905580549260005201602052604060002055600190565b634e487b7160e01b600052604160045260246000fd5b5050600090565b906001820190600092818452826020526040842054908115156000146114b557600019918083018181116114a157825484810190811161148d579061143a61142a61139493866112ed565b90549060031b1c928392866112ed565b90558652846020526040862055805480156114795782019161145c83836112ed565b909182549160031b1b191690555582526020526040812055600190565b634e487b7160e01b86526031600452602486fd5b634e487b7160e01b88526011600452602488fd5b634e487b7160e01b87526011600452602487fd5b5050505090565b156114c357565b60405162461bcd60e51b815260206004820152601660248201527539b2b73232b91034b9903737ba1030b71030b236b4b760511b6044820152606490fd5b1561150857565b60405162461bcd60e51b815260206004820152600c60248201526b7a65726f206164647265737360a01b6044820152606490fd5b60a0810190811067ffffffffffffffff8211176113c257604052565b67ffffffffffffffff81116113c257604052565b90601f8019910116810190811067ffffffffffffffff8211176113c257604052565b908060209392818452848401376000828201840152601f01601f1916010190565b604051906020928383019363319af33360e01b85526040602485015282519283606486015260005b84811061162d575050509161161a608482846000979596888481998501015260018060a01b03166044830152601f8019910116810103606481018452018261156c565b51906a636f6e736f6c652e6c6f675afa50565b8181018301518682016084015282016115d756fea164736f6c6343000813000a",
  "linkReferences": {},
  "deployedLinkReferences": {}
}