{
  "_format": "hh-sol-artifact-1",
  "contractName": "DAOCommitteeAddV1_1",
  "sourceName": "contracts/dao/DAOCommitteeAddV1_1.sol",
  "abi": [
    {
      "anonymous": false,
      "inputs": [
        {
          "indexed": true,
          "internalType": "address",
          "name": "candidate",
          "type": "address"
        },
        {
          "indexed": true,
          "internalType": "address",
          "name": "candidateContract",
          "type": "address"
        },
        {
          "indexed": false,
          "internalType": "string",
          "name": "memo",
          "type": "string"
        }
      ],
      "name": "CandidateContractCreated",
      "type": "event"
    },
    {
      "anonymous": false,
      "inputs": [
        {
          "indexed": true,
          "internalType": "bytes32",
          "name": "role",
          "type": "bytes32"
        },
        {
          "indexed": true,
          "internalType": "bytes32",
          "name": "previousAdminRole",
          "type": "bytes32"
        },
        {
          "indexed": true,
          "internalType": "bytes32",
          "name": "newAdminRole",
          "type": "bytes32"
        }
      ],
      "name": "RoleAdminChanged",
      "type": "event"
    },
    {
      "anonymous": false,
      "inputs": [
        {
          "indexed": true,
          "internalType": "bytes32",
          "name": "role",
          "type": "bytes32"
        },
        {
          "indexed": true,
          "internalType": "address",
          "name": "account",
          "type": "address"
        },
        {
          "indexed": true,
          "internalType": "address",
          "name": "sender",
          "type": "address"
        }
      ],
      "name": "RoleGranted",
      "type": "event"
    },
    {
      "anonymous": false,
      "inputs": [
        {
          "indexed": true,
          "internalType": "bytes32",
          "name": "role",
          "type": "bytes32"
        },
        {
          "indexed": true,
          "internalType": "address",
          "name": "account",
          "type": "address"
        },
        {
          "indexed": true,
          "internalType": "address",
          "name": "sender",
          "type": "address"
        }
      ],
      "name": "RoleRevoked",
      "type": "event"
    },
    {
      "inputs": [],
      "name": "DEFAULT_ADMIN_ROLE",
      "outputs": [
        {
          "internalType": "bytes32",
          "name": "",
          "type": "bytes32"
        }
      ],
      "stateMutability": "view",
      "type": "function"
    },
    {
      "inputs": [],
      "name": "activityRewardPerSecond",
      "outputs": [
        {
          "internalType": "uint256",
          "name": "",
          "type": "uint256"
        }
      ],
      "stateMutability": "view",
      "type": "function"
    },
    {
      "inputs": [],
      "name": "agendaManager",
      "outputs": [
        {
          "internalType": "contract IDAOAgendaManager",
          "name": "",
          "type": "address"
        }
      ],
      "stateMutability": "view",
      "type": "function"
    },
    {
      "inputs": [
        {
          "internalType": "address",
          "name": "_candidate",
          "type": "address"
        }
      ],
      "name": "candidateContract",
      "outputs": [
        {
          "internalType": "address",
          "name": "",
          "type": "address"
        }
      ],
      "stateMutability": "view",
      "type": "function"
    },
    {
      "inputs": [],
      "name": "candidateFactory",
      "outputs": [
        {
          "internalType": "contract ICandidateFactory",
          "name": "",
          "type": "address"
        }
      ],
      "stateMutability": "view",
      "type": "function"
    },
    {
      "inputs": [
        {
          "internalType": "address",
          "name": "_candidate",
          "type": "address"
        }
      ],
      "name": "candidateInfos",
      "outputs": [
        {
          "components": [
            {
              "internalType": "address",
              "name": "candidateContract",
              "type": "address"
            },
            {
              "internalType": "uint256",
              "name": "indexMembers",
              "type": "uint256"
            },
            {
              "internalType": "uint128",
              "name": "memberJoinedTime",
              "type": "uint128"
            },
            {
              "internalType": "uint128",
              "name": "rewardPeriod",
              "type": "uint128"
            },
            {
              "internalType": "uint128",
              "name": "claimedTimestamp",
              "type": "uint128"
            }
          ],
          "internalType": "struct StorageStateCommittee.CandidateInfo",
          "name": "",
          "type": "tuple"
        }
      ],
      "stateMutability": "view",
      "type": "function"
    },
    {
      "inputs": [
        {
          "internalType": "uint256",
          "name": "",
          "type": "uint256"
        }
      ],
      "name": "candidates",
      "outputs": [
        {
          "internalType": "address",
          "name": "",
          "type": "address"
        }
      ],
      "stateMutability": "view",
      "type": "function"
    },
    {
      "inputs": [
        {
          "internalType": "string",
          "name": "_memo",
          "type": "string"
        },
        {
          "internalType": "address",
          "name": "_operatorAddress",
          "type": "address"
        }
      ],
      "name": "createLayer2Candidate",
      "outputs": [
        {
          "internalType": "address",
          "name": "",
          "type": "address"
        }
      ],
      "stateMutability": "nonpayable",
      "type": "function"
    },
    {
      "inputs": [],
      "name": "daoVault",
      "outputs": [
        {
          "internalType": "contract IDAOVault",
          "name": "",
          "type": "address"
        }
      ],
      "stateMutability": "view",
      "type": "function"
    },
    {
      "inputs": [
        {
          "internalType": "bytes32",
          "name": "role",
          "type": "bytes32"
        }
      ],
      "name": "getRoleAdmin",
      "outputs": [
        {
          "internalType": "bytes32",
          "name": "",
          "type": "bytes32"
        }
      ],
      "stateMutability": "view",
      "type": "function"
    },
    {
      "inputs": [
        {
          "internalType": "bytes32",
          "name": "role",
          "type": "bytes32"
        },
        {
          "internalType": "uint256",
          "name": "index",
          "type": "uint256"
        }
      ],
      "name": "getRoleMember",
      "outputs": [
        {
          "internalType": "address",
          "name": "",
          "type": "address"
        }
      ],
      "stateMutability": "view",
      "type": "function"
    },
    {
      "inputs": [
        {
          "internalType": "bytes32",
          "name": "role",
          "type": "bytes32"
        }
      ],
      "name": "getRoleMemberCount",
      "outputs": [
        {
          "internalType": "uint256",
          "name": "",
          "type": "uint256"
        }
      ],
      "stateMutability": "view",
      "type": "function"
    },
    {
      "inputs": [
        {
          "internalType": "bytes32",
          "name": "role",
          "type": "bytes32"
        },
        {
          "internalType": "address",
          "name": "account",
          "type": "address"
        }
      ],
      "name": "grantRole",
      "outputs": [],
      "stateMutability": "nonpayable",
      "type": "function"
    },
    {
      "inputs": [
        {
          "internalType": "bytes32",
          "name": "role",
          "type": "bytes32"
        },
        {
          "internalType": "address",
          "name": "account",
          "type": "address"
        }
      ],
      "name": "hasRole",
      "outputs": [
        {
          "internalType": "bool",
          "name": "",
          "type": "bool"
        }
      ],
      "stateMutability": "view",
      "type": "function"
    },
    {
      "inputs": [
        {
          "internalType": "address",
          "name": "_candidate",
          "type": "address"
        }
      ],
      "name": "isMember",
      "outputs": [
        {
          "internalType": "bool",
          "name": "",
          "type": "bool"
        }
      ],
      "stateMutability": "view",
      "type": "function"
    },
    {
      "inputs": [],
      "name": "layer2CandidateFactory",
      "outputs": [
        {
          "internalType": "address",
          "name": "",
          "type": "address"
        }
      ],
      "stateMutability": "view",
      "type": "function"
    },
    {
      "inputs": [],
      "name": "layer2Manager",
      "outputs": [
        {
          "internalType": "address",
          "name": "",
          "type": "address"
        }
      ],
      "stateMutability": "view",
      "type": "function"
    },
    {
      "inputs": [],
      "name": "layer2Registry",
      "outputs": [
        {
          "internalType": "contract ILayer2Registry",
          "name": "",
          "type": "address"
        }
      ],
      "stateMutability": "view",
      "type": "function"
    },
    {
      "inputs": [],
      "name": "maxMember",
      "outputs": [
        {
          "internalType": "uint256",
          "name": "",
          "type": "uint256"
        }
      ],
      "stateMutability": "view",
      "type": "function"
    },
    {
      "inputs": [
        {
          "internalType": "uint256",
          "name": "",
          "type": "uint256"
        }
      ],
      "name": "members",
      "outputs": [
        {
          "internalType": "address",
          "name": "",
          "type": "address"
        }
      ],
      "stateMutability": "view",
      "type": "function"
    },
    {
      "inputs": [],
      "name": "pauseProxy",
      "outputs": [
        {
          "internalType": "bool",
          "name": "",
          "type": "bool"
        }
      ],
      "stateMutability": "view",
      "type": "function"
    },
    {
      "inputs": [],
      "name": "quorum",
      "outputs": [
        {
          "internalType": "uint256",
          "name": "",
          "type": "uint256"
        }
      ],
      "stateMutability": "view",
      "type": "function"
    },
    {
      "inputs": [
        {
          "internalType": "bytes32",
          "name": "role",
          "type": "bytes32"
        },
        {
          "internalType": "address",
          "name": "account",
          "type": "address"
        }
      ],
      "name": "renounceRole",
      "outputs": [],
      "stateMutability": "nonpayable",
      "type": "function"
    },
    {
      "inputs": [
        {
          "internalType": "bytes32",
          "name": "role",
          "type": "bytes32"
        },
        {
          "internalType": "address",
          "name": "account",
          "type": "address"
        }
      ],
      "name": "revokeRole",
      "outputs": [],
      "stateMutability": "nonpayable",
      "type": "function"
    },
    {
      "inputs": [],
      "name": "seigManager",
      "outputs": [
        {
          "internalType": "contract ISeigManager",
          "name": "",
          "type": "address"
        }
      ],
      "stateMutability": "view",
      "type": "function"
    },
    {
      "inputs": [
        {
          "internalType": "address",
          "name": "_layer2CandidateFactory",
          "type": "address"
        }
      ],
      "name": "setLayer2CandidateFactory",
      "outputs": [],
      "stateMutability": "nonpayable",
      "type": "function"
    },
    {
      "inputs": [
        {
          "internalType": "address",
          "name": "_layer2CandidateFactory",
          "type": "address"
        }
      ],
      "name": "setLayer2Manager",
      "outputs": [],
      "stateMutability": "nonpayable",
      "type": "function"
    },
    {
      "inputs": [
        {
          "internalType": "address",
          "name": "target",
          "type": "address"
        },
        {
          "internalType": "address",
          "name": "l2Registry_",
          "type": "address"
        }
      ],
      "name": "setTargetSetL2Registry",
      "outputs": [],
      "stateMutability": "nonpayable",
      "type": "function"
    },
    {
      "inputs": [
        {
          "internalType": "address",
          "name": "target",
          "type": "address"
        },
        {
          "internalType": "address",
          "name": "layer2Manager_",
          "type": "address"
        }
      ],
      "name": "setTargetSetLayer2Manager",
      "outputs": [],
      "stateMutability": "nonpayable",
      "type": "function"
    },
    {
      "inputs": [
        {
          "internalType": "bytes4",
          "name": "interfaceId",
          "type": "bytes4"
        }
      ],
      "name": "supportsInterface",
      "outputs": [
        {
          "internalType": "bool",
          "name": "",
          "type": "bool"
        }
      ],
      "stateMutability": "view",
      "type": "function"
    },
    {
      "inputs": [],
      "name": "ton",
      "outputs": [
        {
          "internalType": "address",
          "name": "",
          "type": "address"
        }
      ],
      "stateMutability": "view",
      "type": "function"
    },
    {
      "inputs": [],
      "name": "wton",
      "outputs": [
        {
          "internalType": "address",
          "name": "",
          "type": "address"
        }
      ],
      "stateMutability": "view",
      "type": "function"
    }
  ],
  "bytecode": "0x608060405234801561001057600080fd5b506100216301ffc9a760e01b610026565b6100a9565b6001600160e01b031980821690036100845760405162461bcd60e51b815260206004820152601c60248201527f4552433136353a20696e76616c696420696e7465726661636520696400000000604482015260640160405180910390fd5b6001600160e01b0319166000908152600d60205260409020805460ff19166001179055565b61136a806100b86000396000f3fe608060405234801561001057600080fd5b50600436106101f05760003560e01c8063627ac99d1161010f578063a217fddf116100a2578063ca15c87311610071578063ca15c87314610563578063cc48b94714610576578063cf2a239c14610589578063d547741f1461059c57600080fd5b8063a217fddf146104fe578063a230c52414610506578063b5dd11581461053d578063baa125361461055057600080fd5b80637f331636116100de5780637f331636146104bc5780638d62d949146104c55780639010d07c146104d857806391d14854146104eb57600080fd5b8063627ac99d1461045657806363a8fd8914610469578063651d08cd1461047d5780636fb7f558146104a957600080fd5b80632a5c2a9c1161018757806336568abe1161015657806336568abe1461040a5780634e24ce491461041d5780635903bd6c146104305780635daf08ca1461044357600080fd5b80632a5c2a9c146102e05780632e011c1e146102f35780632f2ff15d146103e45780633477ee2e146103f757600080fd5b806316b5d5bd116101c357806316b5d5bd1461028e5780631703a018146102a1578063248a9ca3146102aa57806327fd92fd146102cd57600080fd5b806301ffc9a7146101f557806303e3c9ac1461023757806309a17bce1461024e57806309a353a614610279575b600080fd5b610222610203366004611082565b6001600160e01b0319166000908152600d602052604090205460ff1690565b60405190151581526020015b60405180910390f35b61024060085481565b60405190815260200161022e565b61026161025c3660046110cb565b6105af565b6040516001600160a01b03909116815260200161022e565b61028c61028736600461114e565b610997565b005b601154610261906001600160a01b031681565b610240600a5481565b6102406102b8366004611187565b6000908152600c602052604090206002015490565b600254610261906001600160a01b031681565b61028c6102ee3660046111a0565b610a1e565b61038f6103013660046111a0565b6040805160a0808201835260008083526020808401829052838501829052606080850183905260809485018390526001600160a01b0396871683526009825291859020855193840186528054909616835260018601549083015260028501546001600160801b0380821695840195909552600160801b90048416908201526003909301549091169082015290565b6040805182516001600160a01b0316815260208084015190820152828201516001600160801b03908116928201929092526060808401518316908201526080928301519091169181019190915260a00161022e565b61028c6103f23660046111bd565b610aae565b610261610405366004611187565b610b3c565b61028c6104183660046111bd565b610b66565b61028c61042b36600461114e565b610be0565b600154610261906001600160a01b031681565b610261610451366004611187565b610c35565b601254610261906001600160a01b031681565b600e5461022290600160a01b900460ff1681565b61026161048b3660046111a0565b6001600160a01b039081166000908152600960205260409020541690565b600554610261906001600160a01b031681565b610240600b5481565b601054610261906001600160a01b031681565b6102616104e63660046111e2565b610c45565b6102226104f93660046111bd565b610c66565b610240600081565b6102226105143660046111a0565b6001600160a01b03166000908152600960205260409020600201546001600160801b0316151590565b600354610261906001600160a01b031681565b61028c61055e3660046111a0565b610c7e565b610240610571366004611187565b610d0e565b600054610261906001600160a01b031681565b600454610261906001600160a01b031681565b61028c6105aa3660046111bd565b610d25565b6011546000906001600160a01b031633146106115760405162461bcd60e51b815260206004820152601d60248201527f73656e646572206973206e6f742061206c61796572324d616e6167657200000060448201526064015b60405180910390fd5b6012546005546040516337d5af5f60e01b81526000926001600160a01b03908116926337d5af5f9261064f9288928b928b923092169060040161122d565b6020604051808303816000875af115801561066e573d6000803e3d6000fd5b505050506040513d601f19601f82011682018060405250810190610692919061126a565b90506001600160a01b0381166107035760405162461bcd60e51b815260206004820152603060248201527f44414f436f6d6d69747465653a206465706c6f7965642063616e64696461746560448201526f436f6e7472616374206973207a65726f60801b6064820152608401610608565b6001600160a01b0383811660009081526009602052604090205416156107845760405162461bcd60e51b815260206004820152603060248201527f44414f436f6d6d69747465653a205468652063616e64696461746520616c726560448201526f18591e481a185cc818dbdb9d1c9858dd60821b6064820152608401610608565b6040805160a0810182526001600160a01b038381168083526000602080850182815285870183815260608701848152608088018581528c88168087526009909552898620985189549089166001600160a01b0319918216178a5593516001808b0191909155925191516001600160801b03908116600160801b029281169290921760028a01555160039098018054989091166fffffffffffffffffffffffffffffffff19909816979097179096556006805496870181559092527ff652222313e28459528d920b65115c16c04f3efc82aaedc97be59f3f377c0d3f9094018054909116909317909255600480546005549451635e58d38f60e11b8152918201939093529281166024840152169063bcb1a71e906044016020604051808303816000875af11580156108b9573d6000803e3d6000fd5b505050506040513d601f19601f820116820180604052508101906108dd9190611287565b6109425760405162461bcd60e51b815260206004820152603060248201527f44414f436f6d6d69747465653a206661696c656420746f20726567697374657260448201526f416e644465706c6f79436f696e61676560801b6064820152608401610608565b806001600160a01b0316836001600160a01b03167f7cf8db18d9a5c7f44156bfabdbb59ac982a8a004e461ca1b87ee71a5cdfbc5ef87876040516109879291906112a9565b60405180910390a3949350505050565b6109a2600033610c66565b6109be5760405162461bcd60e51b8152600401610608906112c5565b60405163089fd57f60e31b81526001600160a01b0382811660048301528316906344feabf8906024015b600060405180830381600087803b158015610a0257600080fd5b505af1158015610a16573d6000803e3d6000fd5b505050505050565b610a29600033610c66565b610a455760405162461bcd60e51b8152600401610608906112c5565b806001600160a01b038116610a8b5760405162461bcd60e51b815260206004820152600c60248201526b7a65726f206164647265737360a01b6044820152606401610608565b50601280546001600160a01b0319166001600160a01b0392909216919091179055565b6000828152600c6020526040902060020154610aca9033610c66565b610b2e5760405162461bcd60e51b815260206004820152602f60248201527f416363657373436f6e74726f6c3a2073656e646572206d75737420626520616e60448201526e0818591b5a5b881d1bc819dc985b9d608a1b6064820152608401610608565b610b388282610da6565b5050565b60068181548110610b4c57600080fd5b6000918252602090912001546001600160a01b0316905081565b6001600160a01b0381163314610bd65760405162461bcd60e51b815260206004820152602f60248201527f416363657373436f6e74726f6c3a2063616e206f6e6c792072656e6f756e636560448201526e103937b632b9903337b91039b2b63360891b6064820152608401610608565b610b388282610dff565b610beb600033610c66565b610c075760405162461bcd60e51b8152600401610608906112c5565b604051635d50929b60e11b81526001600160a01b03828116600483015283169063baa12536906024016109e8565b60078181548110610b4c57600080fd5b6000828152600c60205260408120610c5d9083610e58565b90505b92915050565b6000828152600c60205260408120610c5d9083610e64565b610c89600033610c66565b610ca55760405162461bcd60e51b8152600401610608906112c5565b806001600160a01b038116610ceb5760405162461bcd60e51b815260206004820152600c60248201526b7a65726f206164647265737360a01b6044820152606401610608565b50601180546001600160a01b0319166001600160a01b0392909216919091179055565b6000818152600c60205260408120610c6090610e86565b6000828152600c6020526040902060020154610d419033610c66565b610bd65760405162461bcd60e51b815260206004820152603060248201527f416363657373436f6e74726f6c3a2073656e646572206d75737420626520616e60448201526f2061646d696e20746f207265766f6b6560801b6064820152608401610608565b6000828152600c60205260409020610dbe9082610e90565b15610b385760405133906001600160a01b0383169084907f2f8788117e7eff1d82e926ec794901d17c78024a50270940304540a733656f0d90600090a45050565b6000828152600c60205260409020610e179082610ea5565b15610b385760405133906001600160a01b0383169084907ff6391f5c32d9c69d2a47ea670b442974b53935d1edc7fd64eb21e047a839171b90600090a45050565b6000610c5d8383610eba565b6001600160a01b03811660009081526001830160205260408120541515610c5d565b6000610c60825490565b6000610c5d836001600160a01b038416610f40565b6000610c5d836001600160a01b038416610f8f565b81546000908210610f185760405162461bcd60e51b815260206004820152602260248201527f456e756d657261626c655365743a20696e646578206f7574206f6620626f756e604482015261647360f01b6064820152608401610608565b826000018281548110610f2d57610f2d6112f5565b9060005260206000200154905092915050565b6000818152600183016020526040812054610f8757508154600181810184556000848152602080822090930184905584548482528286019093526040902091909155610c60565b506000610c60565b60008181526001830160205260408120548015611078576000610fb3600183611321565b8554909150600090610fc790600190611321565b90506000866000018281548110610fe057610fe06112f5565b9060005260206000200154905080876000018481548110611003576110036112f5565b60009182526020909120015561101a836001611334565b6000828152600189016020526040902055865487908061103c5761103c611347565b60019003818190600052602060002001600090559055866001016000878152602001908152602001600020600090556001945050505050610c60565b6000915050610c60565b60006020828403121561109457600080fd5b81356001600160e01b0319811681146110ac57600080fd5b9392505050565b6001600160a01b03811681146110c857600080fd5b50565b6000806000604084860312156110e057600080fd5b833567ffffffffffffffff808211156110f857600080fd5b818601915086601f83011261110c57600080fd5b81358181111561111b57600080fd5b87602082850101111561112d57600080fd5b60209283019550935050840135611143816110b3565b809150509250925092565b6000806040838503121561116157600080fd5b823561116c816110b3565b9150602083013561117c816110b3565b809150509250929050565b60006020828403121561119957600080fd5b5035919050565b6000602082840312156111b257600080fd5b81356110ac816110b3565b600080604083850312156111d057600080fd5b82359150602083013561117c816110b3565b600080604083850312156111f557600080fd5b50508035926020909101359150565b81835281816020850137506000828201602090810191909152601f909101601f19169091010190565b600060018060a01b03808816835260806020840152611250608084018789611204565b948116604084015292909216606090910152509392505050565b60006020828403121561127c57600080fd5b81516110ac816110b3565b60006020828403121561129957600080fd5b815180151581146110ac57600080fd5b6020815260006112bd602083018486611204565b949350505050565b60208082526016908201527539b2b73232b91034b9903737ba1030b71030b236b4b760511b604082015260600190565b634e487b7160e01b600052603260045260246000fd5b634e487b7160e01b600052601160045260246000fd5b81810381811115610c6057610c6061130b565b80820180821115610c6057610c6061130b565b634e487b7160e01b600052603160045260246000fdfea164736f6c6343000813000a",
  "linkReferences": {},
  "deployedLinkReferences": {}
}