{
  "_format": "hh-sol-artifact-1",
  "contractName": "DAOCommitteeAddV1_1",
  "sourceName": "contracts/dao/DAOCommitteeAddV1_1.sol",
  "abi": [
    {
      "anonymous": false,
      "inputs": [
        {
          "indexed": true,
          "internalType": "address",
          "name": "candidate",
          "type": "address"
        },
        {
          "indexed": true,
          "internalType": "address",
          "name": "candidateContract",
          "type": "address"
        },
        {
          "indexed": false,
          "internalType": "string",
          "name": "memo",
          "type": "string"
        }
      ],
      "name": "CandidateContractCreated",
      "type": "event"
    },
    {
      "anonymous": false,
      "inputs": [
        {
          "indexed": true,
          "internalType": "bytes32",
          "name": "role",
          "type": "bytes32"
        },
        {
          "indexed": true,
          "internalType": "bytes32",
          "name": "previousAdminRole",
          "type": "bytes32"
        },
        {
          "indexed": true,
          "internalType": "bytes32",
          "name": "newAdminRole",
          "type": "bytes32"
        }
      ],
      "name": "RoleAdminChanged",
      "type": "event"
    },
    {
      "anonymous": false,
      "inputs": [
        {
          "indexed": true,
          "internalType": "bytes32",
          "name": "role",
          "type": "bytes32"
        },
        {
          "indexed": true,
          "internalType": "address",
          "name": "account",
          "type": "address"
        },
        {
          "indexed": true,
          "internalType": "address",
          "name": "sender",
          "type": "address"
        }
      ],
      "name": "RoleGranted",
      "type": "event"
    },
    {
      "anonymous": false,
      "inputs": [
        {
          "indexed": true,
          "internalType": "bytes32",
          "name": "role",
          "type": "bytes32"
        },
        {
          "indexed": true,
          "internalType": "address",
          "name": "account",
          "type": "address"
        },
        {
          "indexed": true,
          "internalType": "address",
          "name": "sender",
          "type": "address"
        }
      ],
      "name": "RoleRevoked",
      "type": "event"
    },
    {
      "inputs": [],
      "name": "DEFAULT_ADMIN_ROLE",
      "outputs": [
        {
          "internalType": "bytes32",
          "name": "",
          "type": "bytes32"
        }
      ],
      "stateMutability": "view",
      "type": "function"
    },
    {
      "inputs": [],
      "name": "activityRewardPerSecond",
      "outputs": [
        {
          "internalType": "uint256",
          "name": "",
          "type": "uint256"
        }
      ],
      "stateMutability": "view",
      "type": "function"
    },
    {
      "inputs": [],
      "name": "agendaManager",
      "outputs": [
        {
          "internalType": "contract IDAOAgendaManager",
          "name": "",
          "type": "address"
        }
      ],
      "stateMutability": "view",
      "type": "function"
    },
    {
      "inputs": [
        {
          "internalType": "address",
          "name": "_candidate",
          "type": "address"
        }
      ],
      "name": "candidateContract",
      "outputs": [
        {
          "internalType": "address",
          "name": "",
          "type": "address"
        }
      ],
      "stateMutability": "view",
      "type": "function"
    },
    {
      "inputs": [],
      "name": "candidateFactory",
      "outputs": [
        {
          "internalType": "contract ICandidateFactory",
          "name": "",
          "type": "address"
        }
      ],
      "stateMutability": "view",
      "type": "function"
    },
    {
      "inputs": [
        {
          "internalType": "address",
          "name": "_candidate",
          "type": "address"
        }
      ],
      "name": "candidateInfos",
      "outputs": [
        {
          "components": [
            {
              "internalType": "address",
              "name": "candidateContract",
              "type": "address"
            },
            {
              "internalType": "uint256",
              "name": "indexMembers",
              "type": "uint256"
            },
            {
              "internalType": "uint128",
              "name": "memberJoinedTime",
              "type": "uint128"
            },
            {
              "internalType": "uint128",
              "name": "rewardPeriod",
              "type": "uint128"
            },
            {
              "internalType": "uint128",
              "name": "claimedTimestamp",
              "type": "uint128"
            }
          ],
          "internalType": "struct StorageStateCommittee.CandidateInfo",
          "name": "",
          "type": "tuple"
        }
      ],
      "stateMutability": "view",
      "type": "function"
    },
    {
      "inputs": [
        {
          "internalType": "uint256",
          "name": "",
          "type": "uint256"
        }
      ],
      "name": "candidates",
      "outputs": [
        {
          "internalType": "address",
          "name": "",
          "type": "address"
        }
      ],
      "stateMutability": "view",
      "type": "function"
    },
    {
      "inputs": [
        {
          "internalType": "string",
          "name": "_memo",
          "type": "string"
        },
        {
          "internalType": "address",
          "name": "_operatorAddress",
          "type": "address"
        }
      ],
      "name": "createLayer2Candidate",
      "outputs": [
        {
          "internalType": "address",
          "name": "",
          "type": "address"
        }
      ],
      "stateMutability": "nonpayable",
      "type": "function"
    },
    {
      "inputs": [],
      "name": "daoVault",
      "outputs": [
        {
          "internalType": "contract IDAOVault",
          "name": "",
          "type": "address"
        }
      ],
      "stateMutability": "view",
      "type": "function"
    },
    {
      "inputs": [
        {
          "internalType": "bytes32",
          "name": "role",
          "type": "bytes32"
        }
      ],
      "name": "getRoleAdmin",
      "outputs": [
        {
          "internalType": "bytes32",
          "name": "",
          "type": "bytes32"
        }
      ],
      "stateMutability": "view",
      "type": "function"
    },
    {
      "inputs": [
        {
          "internalType": "bytes32",
          "name": "role",
          "type": "bytes32"
        },
        {
          "internalType": "uint256",
          "name": "index",
          "type": "uint256"
        }
      ],
      "name": "getRoleMember",
      "outputs": [
        {
          "internalType": "address",
          "name": "",
          "type": "address"
        }
      ],
      "stateMutability": "view",
      "type": "function"
    },
    {
      "inputs": [
        {
          "internalType": "bytes32",
          "name": "role",
          "type": "bytes32"
        }
      ],
      "name": "getRoleMemberCount",
      "outputs": [
        {
          "internalType": "uint256",
          "name": "",
          "type": "uint256"
        }
      ],
      "stateMutability": "view",
      "type": "function"
    },
    {
      "inputs": [
        {
          "internalType": "bytes32",
          "name": "role",
          "type": "bytes32"
        },
        {
          "internalType": "address",
          "name": "account",
          "type": "address"
        }
      ],
      "name": "grantRole",
      "outputs": [],
      "stateMutability": "nonpayable",
      "type": "function"
    },
    {
      "inputs": [
        {
          "internalType": "bytes32",
          "name": "role",
          "type": "bytes32"
        },
        {
          "internalType": "address",
          "name": "account",
          "type": "address"
        }
      ],
      "name": "hasRole",
      "outputs": [
        {
          "internalType": "bool",
          "name": "",
          "type": "bool"
        }
      ],
      "stateMutability": "view",
      "type": "function"
    },
    {
      "inputs": [
        {
          "internalType": "address",
          "name": "_candidate",
          "type": "address"
        }
      ],
      "name": "isMember",
      "outputs": [
        {
          "internalType": "bool",
          "name": "",
          "type": "bool"
        }
      ],
      "stateMutability": "view",
      "type": "function"
    },
    {
      "inputs": [],
      "name": "layer2CandidateFactory",
      "outputs": [
        {
          "internalType": "address",
          "name": "",
          "type": "address"
        }
      ],
      "stateMutability": "view",
      "type": "function"
    },
    {
      "inputs": [],
      "name": "layer2Manager",
      "outputs": [
        {
          "internalType": "address",
          "name": "",
          "type": "address"
        }
      ],
      "stateMutability": "view",
      "type": "function"
    },
    {
      "inputs": [],
      "name": "layer2Registry",
      "outputs": [
        {
          "internalType": "contract ILayer2Registry",
          "name": "",
          "type": "address"
        }
      ],
      "stateMutability": "view",
      "type": "function"
    },
    {
      "inputs": [],
      "name": "maxMember",
      "outputs": [
        {
          "internalType": "uint256",
          "name": "",
          "type": "uint256"
        }
      ],
      "stateMutability": "view",
      "type": "function"
    },
    {
      "inputs": [
        {
          "internalType": "uint256",
          "name": "",
          "type": "uint256"
        }
      ],
      "name": "members",
      "outputs": [
        {
          "internalType": "address",
          "name": "",
          "type": "address"
        }
      ],
      "stateMutability": "view",
      "type": "function"
    },
    {
      "inputs": [],
      "name": "pauseProxy",
      "outputs": [
        {
          "internalType": "bool",
          "name": "",
          "type": "bool"
        }
      ],
      "stateMutability": "view",
      "type": "function"
    },
    {
      "inputs": [],
      "name": "quorum",
      "outputs": [
        {
          "internalType": "uint256",
          "name": "",
          "type": "uint256"
        }
      ],
      "stateMutability": "view",
      "type": "function"
    },
    {
      "inputs": [
        {
          "internalType": "bytes32",
          "name": "role",
          "type": "bytes32"
        },
        {
          "internalType": "address",
          "name": "account",
          "type": "address"
        }
      ],
      "name": "renounceRole",
      "outputs": [],
      "stateMutability": "nonpayable",
      "type": "function"
    },
    {
      "inputs": [
        {
          "internalType": "bytes32",
          "name": "role",
          "type": "bytes32"
        },
        {
          "internalType": "address",
          "name": "account",
          "type": "address"
        }
      ],
      "name": "revokeRole",
      "outputs": [],
      "stateMutability": "nonpayable",
      "type": "function"
    },
    {
      "inputs": [],
      "name": "seigManager",
      "outputs": [
        {
          "internalType": "contract ISeigManager",
          "name": "",
          "type": "address"
        }
      ],
      "stateMutability": "view",
      "type": "function"
    },
    {
      "inputs": [
        {
          "internalType": "address",
          "name": "_layer2CandidateFactory",
          "type": "address"
        }
      ],
      "name": "setLayer2CandidateFactory",
      "outputs": [],
      "stateMutability": "nonpayable",
      "type": "function"
    },
    {
      "inputs": [
        {
          "internalType": "address",
          "name": "_layer2CandidateFactory",
          "type": "address"
        }
      ],
      "name": "setLayer2Manager",
      "outputs": [],
      "stateMutability": "nonpayable",
      "type": "function"
    },
    {
      "inputs": [
        {
          "internalType": "bytes4",
          "name": "interfaceId",
          "type": "bytes4"
        }
      ],
      "name": "supportsInterface",
      "outputs": [
        {
          "internalType": "bool",
          "name": "",
          "type": "bool"
        }
      ],
      "stateMutability": "view",
      "type": "function"
    },
    {
      "inputs": [],
      "name": "ton",
      "outputs": [
        {
          "internalType": "address",
          "name": "",
          "type": "address"
        }
      ],
      "stateMutability": "view",
      "type": "function"
    },
    {
      "inputs": [],
      "name": "wton",
      "outputs": [
        {
          "internalType": "address",
          "name": "",
          "type": "address"
        }
      ],
      "stateMutability": "view",
      "type": "function"
    }
  ],
  "bytecode": "0x608060405234801561001057600080fd5b506100216301ffc9a760e01b610026565b6100a9565b6001600160e01b031980821690036100845760405162461bcd60e51b815260206004820152601c60248201527f4552433136353a20696e76616c696420696e7465726661636520696400000000604482015260640160405180910390fd5b6001600160e01b0319166000908152600d60205260409020805460ff19166001179055565b6114be806100b86000396000f3fe608060405234801561001057600080fd5b50600436106101da5760003560e01c806363a8fd8911610104578063a217fddf116100a2578063ca15c87311610071578063ca15c87314610553578063cc48b94714610566578063cf2a239c14610579578063d547741f1461058c57600080fd5b8063a217fddf146104e5578063a230c524146104ed578063b5dd11581461052d578063baa125361461054057600080fd5b80637f331636116100de5780637f331636146104a35780638d62d949146104ac5780639010d07c146104bf57806391d14854146104d257600080fd5b806363a8fd891461043f578063651d08cd146104645780636fb7f5581461049057600080fd5b80632a5c2a9c1161017c57806336568abe1161014b57806336568abe146103f35780635903bd6c146104065780635daf08ca14610419578063627ac99d1461042c57600080fd5b80632a5c2a9c146102b55780632e011c1e146102ca5780632f2ff15d146103cd5780633477ee2e146103e057600080fd5b806316b5d5bd116101b857806316b5d5bd146102635780631703a01814610276578063248a9ca31461027f57806327fd92fd146102a257600080fd5b806301ffc9a7146101df57806303e3c9ac1461022157806309a17bce14610238575b600080fd5b61020c6101ed366004611152565b6001600160e01b0319166000908152600d602052604090205460ff1690565b60405190151581526020015b60405180910390f35b61022a60085481565b604051908152602001610218565b61024b610246366004611198565b61059f565b6040516001600160a01b039091168152602001610218565b60115461024b906001600160a01b031681565b61022a600a5481565b61022a61028d36600461121b565b6000908152600c602052604090206002015490565b60025461024b906001600160a01b031681565b6102c86102c3366004611234565b610a33565b005b61036f6102d8366004611234565b6040805160a0808201835260008083526020808401829052838501829052606080850183905260809485018390526001600160a01b0396871683526009825291859020855193840186528054909616835260018601549083015260028501546fffffffffffffffffffffffffffffffff80821695840195909552600160801b90048416908201526003909301549091169082015290565b6040805182516001600160a01b0316815260208084015190820152828201516fffffffffffffffffffffffffffffffff908116928201929092526060808401518316908201526080928301519091169181019190915260a001610218565b6102c86103db366004611251565b610af3565b61024b6103ee36600461121b565b610b8f565b6102c8610401366004611251565b610bb9565b60015461024b906001600160a01b031681565b61024b61042736600461121b565b610c41565b60125461024b906001600160a01b031681565b600e5461020c9074010000000000000000000000000000000000000000900460ff1681565b61024b610472366004611234565b6001600160a01b039081166000908152600960205260409020541690565b60055461024b906001600160a01b031681565b61022a600b5481565b60105461024b906001600160a01b031681565b61024b6104cd366004611281565b610c51565b61020c6104e0366004611251565b610c72565b61022a600081565b61020c6104fb366004611234565b6001600160a01b03166000908152600960205260409020600201546fffffffffffffffffffffffffffffffff16151590565b60035461024b906001600160a01b031681565b6102c861054e366004611234565b610c8a565b61022a61056136600461121b565b610d4a565b60005461024b906001600160a01b031681565b60045461024b906001600160a01b031681565b6102c861059a366004611251565b610d61565b6011546000906001600160a01b031633146106015760405162461bcd60e51b815260206004820152601d60248201527f73656e646572206973206e6f742061206c61796572324d616e6167657200000060448201526064015b60405180910390fd5b61062e6040518060600160405280602d815260200161142c602d91396005546001600160a01b0316610def565b61065b6040518060600160405280602f8152602001611459602f91396012546001600160a01b0316610def565b6012546005546040516337d5af5f60e01b81526000926001600160a01b03908116926337d5af5f926106999288928b928b92309216906004016112cc565b6020604051808303816000875af11580156106b8573d6000803e3d6000fd5b505050506040513d601f19601f820116820180604052508101906106dc919061130a565b90506107006040518060600160405280602a8152602001611488602a913982610def565b6001600160a01b03811661077c5760405162461bcd60e51b815260206004820152603060248201527f44414f436f6d6d69747465653a206465706c6f7965642063616e64696461746560448201527f436f6e7472616374206973207a65726f0000000000000000000000000000000060648201526084016105f8565b6001600160a01b03838116600090815260096020526040902054161561080a5760405162461bcd60e51b815260206004820152603060248201527f44414f436f6d6d69747465653a205468652063616e64696461746520616c726560448201527f6164792068617320636f6e74726163740000000000000000000000000000000060648201526084016105f8565b6040805160a0810182526001600160a01b038381168083526000602080850182815285870183815260608701848152608088018581528c88168087526009909552898620985189549089166001600160a01b0319918216178a5593516001808b0191909155925191516fffffffffffffffffffffffffffffffff908116600160801b029281169290921760028a01555160039098018054989091166fffffffffffffffffffffffffffffffff19909816979097179096556006805496870181559092527ff652222313e28459528d920b65115c16c04f3efc82aaedc97be59f3f377c0d3f9094018054909116909317909255600480546005549451635e58d38f60e11b8152918201939093529281166024840152169063bcb1a71e906044016020604051808303816000875af1158015610948573d6000803e3d6000fd5b505050506040513d601f19601f8201168201806040525081019061096c9190611327565b6109de5760405162461bcd60e51b815260206004820152603060248201527f44414f436f6d6d69747465653a206661696c656420746f20726567697374657260448201527f416e644465706c6f79436f696e6167650000000000000000000000000000000060648201526084016105f8565b806001600160a01b0316836001600160a01b03167f7cf8db18d9a5c7f44156bfabdbb59ac982a8a004e461ca1b87ee71a5cdfbc5ef8787604051610a23929190611349565b60405180910390a3949350505050565b610a3e600033610c72565b610a8a5760405162461bcd60e51b815260206004820152601660248201527f73656e646572206973206e6f7420616e2061646d696e0000000000000000000060448201526064016105f8565b806001600160a01b038116610ad05760405162461bcd60e51b815260206004820152600c60248201526b7a65726f206164647265737360a01b60448201526064016105f8565b50601280546001600160a01b0319166001600160a01b0392909216919091179055565b6000828152600c6020526040902060020154610b0f9033610c72565b610b815760405162461bcd60e51b815260206004820152602f60248201527f416363657373436f6e74726f6c3a2073656e646572206d75737420626520616e60448201527f2061646d696e20746f206772616e74000000000000000000000000000000000060648201526084016105f8565b610b8b8282610e49565b5050565b60068181548110610b9f57600080fd5b6000918252602090912001546001600160a01b0316905081565b6001600160a01b0381163314610c375760405162461bcd60e51b815260206004820152602f60248201527f416363657373436f6e74726f6c3a2063616e206f6e6c792072656e6f756e636560448201527f20726f6c657320666f722073656c66000000000000000000000000000000000060648201526084016105f8565b610b8b8282610ea2565b60078181548110610b9f57600080fd5b6000828152600c60205260408120610c699083610efb565b90505b92915050565b6000828152600c60205260408120610c699083610f07565b610c95600033610c72565b610ce15760405162461bcd60e51b815260206004820152601660248201527f73656e646572206973206e6f7420616e2061646d696e0000000000000000000060448201526064016105f8565b806001600160a01b038116610d275760405162461bcd60e51b815260206004820152600c60248201526b7a65726f206164647265737360a01b60448201526064016105f8565b50601180546001600160a01b0319166001600160a01b0392909216919091179055565b6000818152600c60205260408120610c6c90610f29565b6000828152600c6020526040902060020154610d7d9033610c72565b610c375760405162461bcd60e51b815260206004820152603060248201527f416363657373436f6e74726f6c3a2073656e646572206d75737420626520616e60448201527f2061646d696e20746f207265766f6b650000000000000000000000000000000060648201526084016105f8565b610b8b8282604051602401610e05929190611365565b60408051601f198184030181529190526020810180517bffffffffffffffffffffffffffffffffffffffffffffffffffffffff1663319af33360e01b179052610f33565b6000828152600c60205260409020610e619082610f3f565b15610b8b5760405133906001600160a01b0383169084907f2f8788117e7eff1d82e926ec794901d17c78024a50270940304540a733656f0d90600090a45050565b6000828152600c60205260409020610eba9082610f54565b15610b8b5760405133906001600160a01b0383169084907ff6391f5c32d9c69d2a47ea670b442974b53935d1edc7fd64eb21e047a839171b90600090a45050565b6000610c698383610f69565b6001600160a01b03811660009081526001830160205260408120541515610c69565b6000610c6c825490565b610f3c81610fef565b50565b6000610c69836001600160a01b038416611010565b6000610c69836001600160a01b03841661105f565b81546000908210610fc75760405162461bcd60e51b815260206004820152602260248201527f456e756d657261626c655365743a20696e646578206f7574206f6620626f756e604482015261647360f01b60648201526084016105f8565b826000018281548110610fdc57610fdc6113c3565b9060005260206000200154905092915050565b60006a636f6e736f6c652e6c6f679050600080835160208501845afa505050565b600081815260018301602052604081205461105757508154600181810184556000848152602080822090930184905584548482528286019093526040902091909155610c6c565b506000610c6c565b600081815260018301602052604081205480156111485760006110836001836113ef565b8554909150600090611097906001906113ef565b905060008660000182815481106110b0576110b06113c3565b90600052602060002001549050808760000184815481106110d3576110d36113c3565b6000918252602090912001556110ea836001611402565b6000828152600189016020526040902055865487908061110c5761110c611415565b60019003818190600052602060002001600090559055866001016000878152602001908152602001600020600090556001945050505050610c6c565b6000915050610c6c565b60006020828403121561116457600080fd5b81356001600160e01b03198116811461117c57600080fd5b9392505050565b6001600160a01b0381168114610f3c57600080fd5b6000806000604084860312156111ad57600080fd5b833567ffffffffffffffff808211156111c557600080fd5b818601915086601f8301126111d957600080fd5b8135818111156111e857600080fd5b8760208285010111156111fa57600080fd5b6020928301955093505084013561121081611183565b809150509250925092565b60006020828403121561122d57600080fd5b5035919050565b60006020828403121561124657600080fd5b813561117c81611183565b6000806040838503121561126457600080fd5b82359150602083013561127681611183565b809150509250929050565b6000806040838503121561129457600080fd5b50508035926020909101359150565b81835281816020850137506000828201602090810191909152601f909101601f19169091010190565b60006001600160a01b038088168352608060208401526112f06080840187896112a3565b948116604084015292909216606090910152509392505050565b60006020828403121561131c57600080fd5b815161117c81611183565b60006020828403121561133957600080fd5b8151801515811461117c57600080fd5b60208152600061135d6020830184866112a3565b949350505050565b604081526000835180604084015260005b818110156113935760208187018101516060868401015201611376565b506000606082850101526060601f19601f8301168401019150506001600160a01b03831660208301529392505050565b634e487b7160e01b600052603260045260246000fd5b634e487b7160e01b600052601160045260246000fd5b81810381811115610c6c57610c6c6113d9565b80820180821115610c6c57610c6c6113d9565b634e487b7160e01b600052603160045260246000fdfe6372656174654c617965723243616e646964617465206164647265737328736569674d616e61676572292025736372656174654c617965723243616e646964617465206c617965723243616e646964617465466163746f72792025736372656174654c617965723243616e6469646174652063616e646964617465436f6e7472616374202573a164736f6c6343000813000a",
  "linkReferences": {},
  "deployedLinkReferences": {}
}