{
  "_format": "hh-sol-artifact-1",
  "contractName": "LegacySystemConfigProxy",
  "sourceName": "contracts/layer2/LegacySystemConfigProxy.sol",
  "abi": [
    {
      "inputs": [],
      "stateMutability": "nonpayable",
      "type": "constructor"
    },
    {
      "anonymous": false,
      "inputs": [
        {
          "indexed": false,
          "internalType": "address",
          "name": "previousAdmin",
          "type": "address"
        },
        {
          "indexed": false,
          "internalType": "address",
          "name": "newAdmin",
          "type": "address"
        }
      ],
      "name": "AdminChanged",
      "type": "event"
    },
    {
      "anonymous": false,
      "inputs": [
        {
          "indexed": true,
          "internalType": "address",
          "name": "beacon",
          "type": "address"
        }
      ],
      "name": "BeaconUpgraded",
      "type": "event"
    },
    {
      "anonymous": false,
      "inputs": [
        {
          "indexed": true,
          "internalType": "address",
          "name": "previousOwner",
          "type": "address"
        },
        {
          "indexed": true,
          "internalType": "address",
          "name": "newOwner",
          "type": "address"
        }
      ],
      "name": "OwnershipTransferred",
      "type": "event"
    },
    {
      "anonymous": false,
      "inputs": [
        {
          "indexed": true,
          "internalType": "address",
          "name": "previousOwner",
          "type": "address"
        },
        {
          "indexed": true,
          "internalType": "address",
          "name": "newOwner",
          "type": "address"
        }
      ],
      "name": "ProxyOwnershipTransferred",
      "type": "event"
    },
    {
      "anonymous": false,
      "inputs": [
        {
          "indexed": true,
          "internalType": "address",
          "name": "implementation",
          "type": "address"
        }
      ],
      "name": "Upgraded",
      "type": "event"
    },
    {
      "stateMutability": "payable",
      "type": "fallback"
    },
    {
      "inputs": [],
      "name": "addresses",
      "outputs": [
        {
          "internalType": "address",
          "name": "l1CrossDomainMessenger",
          "type": "address"
        },
        {
          "internalType": "address",
          "name": "l1ERC721Bridge",
          "type": "address"
        },
        {
          "internalType": "address",
          "name": "l1StandardBridge",
          "type": "address"
        },
        {
          "internalType": "address",
          "name": "l2OutputOracle",
          "type": "address"
        },
        {
          "internalType": "address",
          "name": "optimismPortal",
          "type": "address"
        },
        {
          "internalType": "address",
          "name": "optimismMintableERC20Factory",
          "type": "address"
        }
      ],
      "stateMutability": "view",
      "type": "function"
    },
    {
      "inputs": [],
      "name": "implementation",
      "outputs": [
        {
          "internalType": "address",
          "name": "impl",
          "type": "address"
        }
      ],
      "stateMutability": "view",
      "type": "function"
    },
    {
      "inputs": [],
      "name": "l1BridgeRegistry",
      "outputs": [
        {
          "internalType": "address",
          "name": "",
          "type": "address"
        }
      ],
      "stateMutability": "view",
      "type": "function"
    },
    {
      "inputs": [],
      "name": "name",
      "outputs": [
        {
          "internalType": "string",
          "name": "",
          "type": "string"
        }
      ],
      "stateMutability": "view",
      "type": "function"
    },
    {
      "inputs": [],
      "name": "owner",
      "outputs": [
        {
          "internalType": "address",
          "name": "",
          "type": "address"
        }
      ],
      "stateMutability": "view",
      "type": "function"
    },
    {
      "inputs": [],
      "name": "proxyOwner",
      "outputs": [
        {
          "internalType": "address",
          "name": "",
          "type": "address"
        }
      ],
      "stateMutability": "view",
      "type": "function"
    },
    {
      "inputs": [],
      "name": "renounceOwnership",
      "outputs": [],
      "stateMutability": "nonpayable",
      "type": "function"
    },
    {
      "inputs": [
        {
          "internalType": "address",
          "name": "newOwner",
          "type": "address"
        }
      ],
      "name": "transferOwnership",
      "outputs": [],
      "stateMutability": "nonpayable",
      "type": "function"
    },
    {
      "inputs": [
        {
          "internalType": "address",
          "name": "newOwner",
          "type": "address"
        }
      ],
      "name": "transferProxyOwnership",
      "outputs": [],
      "stateMutability": "nonpayable",
      "type": "function"
    },
    {
      "inputs": [
        {
          "internalType": "address",
          "name": "newImplementation",
          "type": "address"
        }
      ],
      "name": "upgradeTo",
      "outputs": [],
      "stateMutability": "nonpayable",
      "type": "function"
    },
    {
      "inputs": [
        {
          "internalType": "address",
          "name": "_logic",
          "type": "address"
        },
        {
          "internalType": "bytes",
          "name": "_data",
          "type": "bytes"
        }
      ],
      "name": "upgradeToAndCall",
      "outputs": [],
      "stateMutability": "nonpayable",
      "type": "function"
    },
    {
      "stateMutability": "payable",
      "type": "receive"
    }
  ],
  "bytecode": "0x608080604052346100665760008054336001600160a01b0319808316821784559290916001600160a01b0316907f8be0079c531659141344cd1fd0a4f28419497f9722a3daafe3b4186f6b6457e09080a333906001541617600155610964908161006c8239f35b600080fdfe60806040526004361015610018575b3661067b5761067b565b60003560e01c8063025313a2146100c857806306fdde03146100c35780633659cfe6146100be5780634f1ef286146100b95780635c60da1b146100b4578063715018a6146100af5780638da5cb5b146100aa578063cf8f9110146100a5578063da0321cd146100a0578063f1739cae1461009b5763f2fde38b0361000e57610554565b6104dd565b610480565b610457565b61042e565b6103d3565b61038b565b61030e565b6102ba565b610198565b346100f15760003660031901126100f1576001546040516001600160a01b039091168152602090f35b600080fd5b634e487b7160e01b600052604160045260246000fd5b6060810190811067ffffffffffffffff82111761012857604052565b6100f6565b90601f8019910116810190811067ffffffffffffffff82111761012857604052565b6020808252825181830181905290939260005b82811061018457505060409293506000838284010152601f8019910116010190565b818101860151848201604001528501610162565b346100f1576000806003193601126102a15760405190806008549060019180831c92808216928315610297575b60209283861085146102835785885260208801949081156102625750600114610209575b610205876101f98189038261012d565b6040519182918261014f565b0390f35b600860005294509192917ff3f7a9fe364faab93b216da50a3214154f22a0a2b415b23a84c8169e8b636ee35b83861061025157505050910190506101f98261020538806101e9565b805485870152948201948101610235565b60ff191685525050505090151560051b0190506101f98261020538806101e9565b634e487b7160e01b82526022600452602482fd5b93607f16936101c5565b80fd5b600435906001600160a01b03821682036100f157565b346100f15760203660031901126100f1576102f06102d66102a4565b6102eb60018060a01b036001541633146106c7565b610731565b005b67ffffffffffffffff811161012857601f01601f191660200190565b346100f15760403660031901126100f1576103276102a4565b6024359067ffffffffffffffff82116100f157366023830112156100f157816004013590610354826102f2565b91610362604051938461012d565b80835236602482860101116100f15760208160009260246102f0970183870137840101526107f8565b346100f15760003660031901126100f1577f360894a13ba1a3210667c828492db98dca3e2076cc3735a920a3ca505d382bbc546040516001600160a01b039091168152602090f35b346100f1576000806003193601126102a1576103ed6105c8565b80546001600160a01b03198116825581906001600160a01b03167f8be0079c531659141344cd1fd0a4f28419497f9722a3daafe3b4186f6b6457e08280a380f35b346100f15760003660031901126100f1576000546040516001600160a01b039091168152602090f35b346100f15760003660031901126100f1576009546040516001600160a01b039091168152602090f35b346100f15760003660031901126100f15760c060018060a01b0380600254169080600354169080600454168160055416908260065416926007541693604051958652602086015260408501526060840152608083015260a0820152f35b346100f15760203660031901126100f1576104f66102a4565b600154906001600160a01b03808316916105113384146106c7565b16809261051f821515610620565b6001600160a01b031916176001557f5a3e66efaa1e445ebd894728a69d6959842ea1e97bd79b892797106e270efcd9600080a3005b346100f15760203660031901126100f15761056d6102a4565b6105756105c8565b6001600160a01b0390811661058b811515610620565b600080546001600160a01b03198116831782559092167f8be0079c531659141344cd1fd0a4f28419497f9722a3daafe3b4186f6b6457e08380a380f35b6000546001600160a01b031633036105dc57565b606460405162461bcd60e51b815260206004820152602060248201527f4f776e61626c653a2063616c6c6572206973206e6f7420746865206f776e65726044820152fd5b1561062757565b60405162461bcd60e51b815260206004820152602660248201527f4f776e61626c653a206e6577206f776e657220697320746865207a65726f206160448201526564647265737360d01b6064820152608490fd5b7f360894a13ba1a3210667c828492db98dca3e2076cc3735a920a3ca505d382bbc54600090819081906001600160a01b0316368280378136915af43d82803e156106c3573d90f35b3d90fd5b156106ce57565b60405162461bcd60e51b815260206004820152603560248201527f4c656761637953797374656d436f6e66696750726f78793a2063616c6c65722060448201527434b9903737ba103a343290383937bc3ca7bbb732b960591b6064820152608490fd5b803b1561079d577f360894a13ba1a3210667c828492db98dca3e2076cc3735a920a3ca505d382bbc80546001600160a01b0319166001600160a01b039290921691821790557fbc7cd75a20ee27fd9adebab32041f755214dbc6bffa90cc0225b39da2e5c2d3b600080a2565b60405162461bcd60e51b815260206004820152602d60248201527f455243313936373a206e657720696d706c656d656e746174696f6e206973206e60448201526c1bdd08184818dbdb9d1c9858dd609a1b6064820152608490fd5b9061080e60018060a01b036001541633146106c7565b61081782610731565b8051158015906108ba575b61082a575050565b6108af916000806040519361083e8561010c565b602785527f416464726573733a206c6f772d6c6576656c2064656c65676174652063616c6c6020860152660819985a5b195960ca1b6040860152602081519101845af43d156108b2573d91610892836102f2565b926108a0604051948561012d565b83523d6000602085013e6108c2565b50565b6060916108c2565b506000610822565b9192901561092457508151156108d6575090565b3b156108df5790565b60405162461bcd60e51b815260206004820152601d60248201527f416464726573733a2063616c6c20746f206e6f6e2d636f6e74726163740000006044820152606490fd5b8251909150156109375750805190602001fd5b60405162461bcd60e51b8152908190610953906004830161014f565b0390fdfea164736f6c6343000813000a",
  "linkReferences": {},
  "deployedLinkReferences": {}
}