{
  "_format": "hh-sol-artifact-1",
  "contractName": "MockL1StandardBridge",
  "sourceName": "contracts/mocks/MockSystemConfig.sol",
  "abi": [
    {
      "inputs": [],
      "stateMutability": "nonpayable",
      "type": "constructor"
    },
    {
      "inputs": [
        {
          "internalType": "address",
          "name": "_l1Token",
          "type": "address"
        },
        {
          "internalType": "address",
          "name": "_l2Token",
          "type": "address"
        },
        {
          "internalType": "address",
          "name": "_to",
          "type": "address"
        },
        {
          "internalType": "uint256",
          "name": "_amount",
          "type": "uint256"
        },
        {
          "internalType": "uint32",
          "name": "_l2Gas",
          "type": "uint32"
        },
        {
          "internalType": "bytes",
          "name": "_data",
          "type": "bytes"
        }
      ],
      "name": "depositERC20To",
      "outputs": [],
      "stateMutability": "nonpayable",
      "type": "function"
    },
    {
      "inputs": [],
      "name": "portal",
      "outputs": [
        {
          "internalType": "address",
          "name": "",
          "type": "address"
        }
      ],
      "stateMutability": "view",
      "type": "function"
    },
    {
      "inputs": [
        {
          "internalType": "address",
          "name": "_addr",
          "type": "address"
        }
      ],
      "name": "setPortal",
      "outputs": [],
      "stateMutability": "nonpayable",
      "type": "function"
    },
    {
      "stateMutability": "payable",
      "type": "receive"
    }
  ],
  "bytecode": "0x60808060405234610016576102ba908161001c8239f35b600080fdfe608060409080825260049081361015610058575b50361561001f57600080fd5b6020606492519162461bcd60e51b8352820152601460248201527331b0b73737ba103932b1b2b4bb329022ba3432b960611b6044820152fd5b600090813560e01c9081634ff56192146101eb575080636425666b146101c35763838b2520036100135790346101bf5760c03660031901126101bf5761009c610268565b926001600160a01b03602435818116036101b757604435818116036101b7576064359460843563ffffffff8116036101955760a43567ffffffffffffffff8082116101bb57366023830112156101bb57818601359081116101bb5736910160240111610195571691823b156101b7578151632142170760e11b815233828201523060248201526044810186905294848660648183885af180156101ad57610199575b849550833b156101955760448592838551968794859363423f6cef60e01b8552309085015260248401525af190811561018c57506101795750f35b61018290610283565b6101895780f35b80fd5b513d84823e3d90fd5b8480fd5b9390946101a590610283565b92849061013e565b83513d87823e3d90fd5b8380fd5b8680fd5b5080fd5b5082346101bf57816003193601126101bf57905490516001600160a01b039091168152602090f35b9050823461026457602036600319011261026457610207610268565b8354926001600160a01b039283851661023557505016906bffffffffffffffffffffffff60a01b1617815580f35b62461bcd60e51b8252602090820152600b60248201526a185b1c9958591e481cd95d60aa1b6044820152606490fd5b8280fd5b600435906001600160a01b038216820361027e57565b600080fd5b67ffffffffffffffff811161029757604052565b634e487b7160e01b600052604160045260246000fdfea164736f6c6343000813000a",
  "linkReferences": {},
  "deployedLinkReferences": {}
}