{
  "_format": "hh-sol-artifact-1",
  "contractName": "MockSystemConfig",
  "sourceName": "contracts/mocks/MockSystemConfig.sol",
  "abi": [
    {
      "inputs": [],
      "stateMutability": "nonpayable",
      "type": "constructor"
    },
    {
      "anonymous": false,
      "inputs": [
        {
          "indexed": true,
          "internalType": "address",
          "name": "previousOwner",
          "type": "address"
        },
        {
          "indexed": true,
          "internalType": "address",
          "name": "newOwner",
          "type": "address"
        }
      ],
      "name": "OwnershipTransferred",
      "type": "event"
    },
    {
      "inputs": [],
      "name": "addresses",
      "outputs": [
        {
          "internalType": "address",
          "name": "l1CrossDomainMessenger",
          "type": "address"
        },
        {
          "internalType": "address",
          "name": "l1ERC721Bridge",
          "type": "address"
        },
        {
          "internalType": "address",
          "name": "l1StandardBridge",
          "type": "address"
        },
        {
          "internalType": "address",
          "name": "l2OutputOracle",
          "type": "address"
        },
        {
          "internalType": "address",
          "name": "optimismPortal",
          "type": "address"
        },
        {
          "internalType": "address",
          "name": "optimismMintableERC20Factory",
          "type": "address"
        }
      ],
      "stateMutability": "view",
      "type": "function"
    },
    {
      "inputs": [],
      "name": "l1CrossDomainMessenger",
      "outputs": [
        {
          "internalType": "address",
          "name": "addr_",
          "type": "address"
        }
      ],
      "stateMutability": "view",
      "type": "function"
    },
    {
      "inputs": [],
      "name": "l1ERC721Bridge",
      "outputs": [
        {
          "internalType": "address",
          "name": "addr_",
          "type": "address"
        }
      ],
      "stateMutability": "view",
      "type": "function"
    },
    {
      "inputs": [],
      "name": "l1StandardBridge",
      "outputs": [
        {
          "internalType": "address",
          "name": "addr_",
          "type": "address"
        }
      ],
      "stateMutability": "view",
      "type": "function"
    },
    {
      "inputs": [],
      "name": "l2OutputOracle",
      "outputs": [
        {
          "internalType": "address",
          "name": "addr_",
          "type": "address"
        }
      ],
      "stateMutability": "view",
      "type": "function"
    },
    {
      "inputs": [],
      "name": "name",
      "outputs": [
        {
          "internalType": "string",
          "name": "",
          "type": "string"
        }
      ],
      "stateMutability": "view",
      "type": "function"
    },
    {
      "inputs": [],
      "name": "optimismMintableERC20Factory",
      "outputs": [
        {
          "internalType": "address",
          "name": "addr_",
          "type": "address"
        }
      ],
      "stateMutability": "view",
      "type": "function"
    },
    {
      "inputs": [],
      "name": "optimismPortal",
      "outputs": [
        {
          "internalType": "address",
          "name": "addr_",
          "type": "address"
        }
      ],
      "stateMutability": "view",
      "type": "function"
    },
    {
      "inputs": [],
      "name": "owner",
      "outputs": [
        {
          "internalType": "address",
          "name": "",
          "type": "address"
        }
      ],
      "stateMutability": "view",
      "type": "function"
    },
    {
      "inputs": [],
      "name": "renounceOwnership",
      "outputs": [],
      "stateMutability": "nonpayable",
      "type": "function"
    },
    {
      "inputs": [
        {
          "internalType": "string",
          "name": "_name",
          "type": "string"
        }
      ],
      "name": "setName",
      "outputs": [],
      "stateMutability": "nonpayable",
      "type": "function"
    },
    {
      "inputs": [
        {
          "internalType": "address",
          "name": "newOwner",
          "type": "address"
        }
      ],
      "name": "transferOwnership",
      "outputs": [],
      "stateMutability": "nonpayable",
      "type": "function"
    },
    {
      "stateMutability": "payable",
      "type": "receive"
    }
  ],
  "bytecode": "0x60806040908082523461016f5760008054336001600160a01b03198083168217845593926001600160a01b039290919083167f8be0079c531659141344cd1fd0a4f28419497f9722a3daafe3b4186f6b6457e08380a36001600160401b0392606e818101908582118383101761015b579082916108a38339039082f0801561014f578216918551606e808201908282108783111761013b579082916108a38339039083f0801561013157865191169360c082019081118282101761011d579060a091875282815282602082015283878201528260608201528460808201520152826001541660015582600254166002558260035416176003558160045416600455816005541617600555600654166006555161072e90816101758239f35b634e487b7160e01b83526041600452602483fd5b86513d84823e3d90fd5b634e487b7160e01b85526041600452602485fd5b508451903d90823e3d90fd5b634e487b7160e01b84526041600452602484fd5b600080fdfe608060409080825260049081361015610058575b50361561001f57600080fd5b6020606492519162461bcd60e51b8352820152601460248201527331b0b73737ba103932b1b2b4bb329022ba3432b960611b6044820152fd5b600090813560e01c90816306fdde031461055657508063078f29cf1461052d5780630a49cb03146105045780634d9f1559146104db578063715018a61461047e5780638da5cb5b146104565780639b7d7f0a1461042d578063a711986914610404578063c47f00271461023f578063c4e8ddfa14610212578063da0321cd146101b25763f2fde38b036100135791346101ae5760203660031901126101ae576001600160a01b038235818116939192908490036101aa576101176106c9565b831561015857505082546001600160a01b0319811683178455167f8be0079c531659141344cd1fd0a4f28419497f9722a3daafe3b4186f6b6457e08380a380f35b906020608492519162461bcd60e51b8352820152602660248201527f4f776e61626c653a206e6577206f776e657220697320746865207a65726f206160448201526564647265737360d01b6064820152fd5b8480fd5b8280fd5b509190346101ae57826003193601126101ae57600154600254600354925460055460065486516001600160a01b0395861681529385166020850152948416958301959095528216606082015292811660808401521660a082015260c09150f35b50823461023b578160031936011261023b5760025490516001600160a01b039091168152602090f35b5080fd5b50823461023b57602092836003193601126101ae57803567ffffffffffffffff928382116101aa57366023830112156101aa57818301359384116101aa576024923684868501011161040057600754916102988361068f565b6103d15750506102a79061068f565b601f8111610373575b508394601f84116001146102f057509383948394936102e3575b5050508160011b916000199060031b1c19161760075580f35b01013590508380806102ca565b601f198416957fa66cc928b5edb82af9bd49922954155ab7b0942694bea4ce44661d9a8736c688939186905b88821061035957505084600196971061033d575b50505050811b0160075580f35b60001960f88660031b161c199201013516905583808080610330565b80600184978683959689010135815501960192019061031c565b7fa66cc928b5edb82af9bd49922954155ab7b0942694bea4ce44661d9a8736c688601f850160051c8101918786106103c7575b601f0160051c01905b8181106103bc57506102b0565b8581556001016103af565b90915081906103a6565b5162461bcd60e51b8152908101879052600b818501526a185b1c9958591e481cd95d60aa1b6044820152606490fd5b8580fd5b50823461023b578160031936011261023b5760015490516001600160a01b039091168152602090f35b50823461023b578160031936011261023b5760065490516001600160a01b039091168152602090f35b50823461023b578160031936011261023b57905490516001600160a01b039091168152602090f35b50346104d857806003193601126104d8576104976106c9565b80546001600160a01b03198116825581906001600160a01b03167f8be0079c531659141344cd1fd0a4f28419497f9722a3daafe3b4186f6b6457e08280a380f35b80fd5b509190346101ae57826003193601126101ae575490516001600160a01b03909116815260209150f35b50823461023b578160031936011261023b5760055490516001600160a01b039091168152602090f35b50823461023b578160031936011261023b5760035490516001600160a01b039091168152602090f35b90508391346104d857806003193601126104d8578082916007546105798161068f565b808552906001908181169081156106715750600114610617575b5050601f801994859203011682019482861067ffffffffffffffff871117610604575091849192828552602090818452845191828186015281955b8387106105ec5750508394508582601f949501015201168101030190f35b868101820151898801890152958101958895506105ce565b634e487b7160e01b825260419052602490fd5b600784528392507fa66cc928b5edb82af9bd49922954155ab7b0942694bea4ce44661d9a8736c6885b8284106106565750505082016020018680610593565b80546020858901810191909152879650909301928101610640565b9150506020925060ff191682850152151560051b8301018680610593565b90600182811c921680156106bf575b60208310146106a957565b634e487b7160e01b600052602260045260246000fd5b91607f169161069e565b6000546001600160a01b031633036106dd57565b606460405162461bcd60e51b815260206004820152602060248201527f4f776e61626c653a2063616c6c6572206973206e6f7420746865206f776e65726044820152fdfea164736f6c6343000813000a608080604052346013576055908160198239f35b600080fdfe6080806040523615600f57600080fd5b62461bcd60e51b815260206004820152601460248201527331b0b73737ba103932b1b2b4bb329022ba3432b960611b6044820152606490fdfea164736f6c6343000813000a",
  "linkReferences": {},
  "deployedLinkReferences": {}
}