{
  "_format": "hh-sol-artifact-1",
  "contractName": "SeigManagerV1_3",
  "sourceName": "contracts/stake/managers/SeigManagerV1_3.sol",
  "abi": [
    {
      "anonymous": false,
      "inputs": [
        {
          "indexed": false,
          "internalType": "address",
          "name": "layer2",
          "type": "address"
        },
        {
          "indexed": false,
          "internalType": "uint256",
          "name": "seigs",
          "type": "uint256"
        },
        {
          "indexed": false,
          "internalType": "uint256",
          "name": "operatorSeigs",
          "type": "uint256"
        },
        {
          "indexed": false,
          "internalType": "uint256",
          "name": "nextTotalSupply",
          "type": "uint256"
        },
        {
          "indexed": false,
          "internalType": "uint256",
          "name": "prevTotalSupply",
          "type": "uint256"
        }
      ],
      "name": "AddedSeigAtLayer",
      "type": "event"
    },
    {
      "anonymous": false,
      "inputs": [
        {
          "indexed": true,
          "internalType": "address",
          "name": "layer2",
          "type": "address"
        }
      ],
      "name": "Comitted",
      "type": "event"
    },
    {
      "anonymous": false,
      "inputs": [
        {
          "indexed": false,
          "internalType": "uint256",
          "name": "totalStakedAmount",
          "type": "uint256"
        },
        {
          "indexed": false,
          "internalType": "uint256",
          "name": "totalSupplyOfWTON",
          "type": "uint256"
        },
        {
          "indexed": false,
          "internalType": "uint256",
          "name": "prevTotalSupply",
          "type": "uint256"
        },
        {
          "indexed": false,
          "internalType": "uint256",
          "name": "nextTotalSupply",
          "type": "uint256"
        }
      ],
      "name": "CommitLog1",
      "type": "event"
    },
    {
      "anonymous": false,
      "inputs": [
        {
          "indexed": true,
          "internalType": "bytes32",
          "name": "role",
          "type": "bytes32"
        },
        {
          "indexed": true,
          "internalType": "bytes32",
          "name": "previousAdminRole",
          "type": "bytes32"
        },
        {
          "indexed": true,
          "internalType": "bytes32",
          "name": "newAdminRole",
          "type": "bytes32"
        }
      ],
      "name": "RoleAdminChanged",
      "type": "event"
    },
    {
      "anonymous": false,
      "inputs": [
        {
          "indexed": true,
          "internalType": "bytes32",
          "name": "role",
          "type": "bytes32"
        },
        {
          "indexed": true,
          "internalType": "address",
          "name": "account",
          "type": "address"
        },
        {
          "indexed": true,
          "internalType": "address",
          "name": "sender",
          "type": "address"
        }
      ],
      "name": "RoleGranted",
      "type": "event"
    },
    {
      "anonymous": false,
      "inputs": [
        {
          "indexed": true,
          "internalType": "bytes32",
          "name": "role",
          "type": "bytes32"
        },
        {
          "indexed": true,
          "internalType": "address",
          "name": "account",
          "type": "address"
        },
        {
          "indexed": true,
          "internalType": "address",
          "name": "sender",
          "type": "address"
        }
      ],
      "name": "RoleRevoked",
      "type": "event"
    },
    {
      "anonymous": false,
      "inputs": [
        {
          "indexed": true,
          "internalType": "address",
          "name": "layer2",
          "type": "address"
        },
        {
          "indexed": false,
          "internalType": "uint256",
          "name": "totalSeig",
          "type": "uint256"
        },
        {
          "indexed": false,
          "internalType": "uint256",
          "name": "stakedSeig",
          "type": "uint256"
        },
        {
          "indexed": false,
          "internalType": "uint256",
          "name": "unstakedSeig",
          "type": "uint256"
        },
        {
          "indexed": false,
          "internalType": "uint256",
          "name": "powertonSeig",
          "type": "uint256"
        },
        {
          "indexed": false,
          "internalType": "uint256",
          "name": "daoSeig",
          "type": "uint256"
        },
        {
          "indexed": false,
          "internalType": "uint256",
          "name": "pseig",
          "type": "uint256"
        }
      ],
      "name": "SeigGiven",
      "type": "event"
    },
    {
      "anonymous": false,
      "inputs": [
        {
          "indexed": true,
          "internalType": "address",
          "name": "layer2",
          "type": "address"
        },
        {
          "indexed": false,
          "internalType": "uint256",
          "name": "totalSeig",
          "type": "uint256"
        },
        {
          "indexed": false,
          "internalType": "uint256",
          "name": "stakedSeig",
          "type": "uint256"
        },
        {
          "indexed": false,
          "internalType": "uint256",
          "name": "unstakedSeig",
          "type": "uint256"
        },
        {
          "indexed": false,
          "internalType": "uint256",
          "name": "powertonSeig",
          "type": "uint256"
        },
        {
          "indexed": false,
          "internalType": "uint256",
          "name": "daoSeig",
          "type": "uint256"
        },
        {
          "indexed": false,
          "internalType": "uint256",
          "name": "pseig",
          "type": "uint256"
        },
        {
          "indexed": false,
          "internalType": "uint256",
          "name": "l2TotalSeigs",
          "type": "uint256"
        },
        {
          "indexed": false,
          "internalType": "uint256",
          "name": "layer2Seigs",
          "type": "uint256"
        }
      ],
      "name": "SeigGiven2",
      "type": "event"
    },
    {
      "inputs": [],
      "name": "BURNT_AMOUNT_MAINNET",
      "outputs": [
        {
          "internalType": "uint256",
          "name": "",
          "type": "uint256"
        }
      ],
      "stateMutability": "view",
      "type": "function"
    },
    {
      "inputs": [],
      "name": "CHALLENGER_ROLE",
      "outputs": [
        {
          "internalType": "bytes32",
          "name": "",
          "type": "bytes32"
        }
      ],
      "stateMutability": "view",
      "type": "function"
    },
    {
      "inputs": [],
      "name": "DEFAULT_ADMIN_ROLE",
      "outputs": [
        {
          "internalType": "bytes32",
          "name": "",
          "type": "bytes32"
        }
      ],
      "stateMutability": "view",
      "type": "function"
    },
    {
      "inputs": [],
      "name": "INITIAL_TOTAL_SUPPLY_MAINNET",
      "outputs": [
        {
          "internalType": "uint256",
          "name": "",
          "type": "uint256"
        }
      ],
      "stateMutability": "view",
      "type": "function"
    },
    {
      "inputs": [],
      "name": "MAX_VALID_COMMISSION",
      "outputs": [
        {
          "internalType": "uint256",
          "name": "",
          "type": "uint256"
        }
      ],
      "stateMutability": "view",
      "type": "function"
    },
    {
      "inputs": [],
      "name": "MINTER_ROLE",
      "outputs": [
        {
          "internalType": "bytes32",
          "name": "",
          "type": "bytes32"
        }
      ],
      "stateMutability": "view",
      "type": "function"
    },
    {
      "inputs": [],
      "name": "MIN_VALID_COMMISSION",
      "outputs": [
        {
          "internalType": "uint256",
          "name": "",
          "type": "uint256"
        }
      ],
      "stateMutability": "view",
      "type": "function"
    },
    {
      "inputs": [],
      "name": "OPERATOR_ROLE",
      "outputs": [
        {
          "internalType": "bytes32",
          "name": "",
          "type": "bytes32"
        }
      ],
      "stateMutability": "view",
      "type": "function"
    },
    {
      "inputs": [],
      "name": "PAUSE_ROLE",
      "outputs": [
        {
          "internalType": "bytes32",
          "name": "",
          "type": "bytes32"
        }
      ],
      "stateMutability": "view",
      "type": "function"
    },
    {
      "inputs": [],
      "name": "RAY",
      "outputs": [
        {
          "internalType": "uint256",
          "name": "",
          "type": "uint256"
        }
      ],
      "stateMutability": "view",
      "type": "function"
    },
    {
      "inputs": [],
      "name": "SEIG_START_MAINNET",
      "outputs": [
        {
          "internalType": "uint256",
          "name": "",
          "type": "uint256"
        }
      ],
      "stateMutability": "view",
      "type": "function"
    },
    {
      "inputs": [],
      "name": "accRelativeSeig",
      "outputs": [
        {
          "internalType": "uint256",
          "name": "",
          "type": "uint256"
        }
      ],
      "stateMutability": "view",
      "type": "function"
    },
    {
      "inputs": [
        {
          "internalType": "address",
          "name": "account",
          "type": "address"
        }
      ],
      "name": "addAdmin",
      "outputs": [],
      "stateMutability": "nonpayable",
      "type": "function"
    },
    {
      "inputs": [
        {
          "internalType": "address",
          "name": "account",
          "type": "address"
        }
      ],
      "name": "addChallenger",
      "outputs": [],
      "stateMutability": "nonpayable",
      "type": "function"
    },
    {
      "inputs": [
        {
          "internalType": "address",
          "name": "account",
          "type": "address"
        }
      ],
      "name": "addMinter",
      "outputs": [],
      "stateMutability": "nonpayable",
      "type": "function"
    },
    {
      "inputs": [
        {
          "internalType": "address",
          "name": "account",
          "type": "address"
        }
      ],
      "name": "addOperator",
      "outputs": [],
      "stateMutability": "nonpayable",
      "type": "function"
    },
    {
      "inputs": [],
      "name": "adjustCommissionDelay",
      "outputs": [
        {
          "internalType": "uint256",
          "name": "",
          "type": "uint256"
        }
      ],
      "stateMutability": "view",
      "type": "function"
    },
    {
      "inputs": [
        {
          "internalType": "address",
          "name": "",
          "type": "address"
        }
      ],
      "name": "aliveImplementation",
      "outputs": [
        {
          "internalType": "bool",
          "name": "",
          "type": "bool"
        }
      ],
      "stateMutability": "view",
      "type": "function"
    },
    {
      "inputs": [
        {
          "internalType": "address",
          "name": "layer2",
          "type": "address"
        }
      ],
      "name": "allowIssuanceLayer2Seigs",
      "outputs": [
        {
          "internalType": "address",
          "name": "systemConfig",
          "type": "address"
        },
        {
          "internalType": "bool",
          "name": "allowed",
          "type": "bool"
        }
      ],
      "stateMutability": "nonpayable",
      "type": "function"
    },
    {
      "inputs": [],
      "name": "burntAmountAtDAO",
      "outputs": [
        {
          "internalType": "uint256",
          "name": "",
          "type": "uint256"
        }
      ],
      "stateMutability": "view",
      "type": "function"
    },
    {
      "inputs": [],
      "name": "dao",
      "outputs": [
        {
          "internalType": "address",
          "name": "",
          "type": "address"
        }
      ],
      "stateMutability": "view",
      "type": "function"
    },
    {
      "inputs": [],
      "name": "daoSeigRate",
      "outputs": [
        {
          "internalType": "uint256",
          "name": "",
          "type": "uint256"
        }
      ],
      "stateMutability": "view",
      "type": "function"
    },
    {
      "inputs": [
        {
          "internalType": "address",
          "name": "",
          "type": "address"
        }
      ],
      "name": "delayedCommissionBlock",
      "outputs": [
        {
          "internalType": "uint256",
          "name": "",
          "type": "uint256"
        }
      ],
      "stateMutability": "view",
      "type": "function"
    },
    {
      "inputs": [
        {
          "internalType": "address",
          "name": "",
          "type": "address"
        }
      ],
      "name": "delayedCommissionRate",
      "outputs": [
        {
          "internalType": "uint256",
          "name": "",
          "type": "uint256"
        }
      ],
      "stateMutability": "view",
      "type": "function"
    },
    {
      "inputs": [
        {
          "internalType": "address",
          "name": "",
          "type": "address"
        }
      ],
      "name": "delayedCommissionRateNegative",
      "outputs": [
        {
          "internalType": "bool",
          "name": "",
          "type": "bool"
        }
      ],
      "stateMutability": "view",
      "type": "function"
    },
    {
      "inputs": [],
      "name": "factory",
      "outputs": [
        {
          "internalType": "address",
          "name": "",
          "type": "address"
        }
      ],
      "stateMutability": "view",
      "type": "function"
    },
    {
      "inputs": [
        {
          "internalType": "address",
          "name": "layer2",
          "type": "address"
        }
      ],
      "name": "getOperatorAmount",
      "outputs": [
        {
          "internalType": "uint256",
          "name": "",
          "type": "uint256"
        }
      ],
      "stateMutability": "view",
      "type": "function"
    },
    {
      "inputs": [
        {
          "internalType": "bytes32",
          "name": "role",
          "type": "bytes32"
        }
      ],
      "name": "getRoleAdmin",
      "outputs": [
        {
          "internalType": "bytes32",
          "name": "",
          "type": "bytes32"
        }
      ],
      "stateMutability": "view",
      "type": "function"
    },
    {
      "inputs": [
        {
          "internalType": "bytes32",
          "name": "role",
          "type": "bytes32"
        },
        {
          "internalType": "address",
          "name": "account",
          "type": "address"
        }
      ],
      "name": "grantRole",
      "outputs": [],
      "stateMutability": "nonpayable",
      "type": "function"
    },
    {
      "inputs": [
        {
          "internalType": "bytes32",
          "name": "role",
          "type": "bytes32"
        },
        {
          "internalType": "address",
          "name": "account",
          "type": "address"
        }
      ],
      "name": "hasRole",
      "outputs": [
        {
          "internalType": "bool",
          "name": "",
          "type": "bool"
        }
      ],
      "stateMutability": "view",
      "type": "function"
    },
    {
      "inputs": [],
      "name": "initialTotalSupply",
      "outputs": [
        {
          "internalType": "uint256",
          "name": "",
          "type": "uint256"
        }
      ],
      "stateMutability": "view",
      "type": "function"
    },
    {
      "inputs": [
        {
          "internalType": "address",
          "name": "account",
          "type": "address"
        }
      ],
      "name": "isAdmin",
      "outputs": [
        {
          "internalType": "bool",
          "name": "",
          "type": "bool"
        }
      ],
      "stateMutability": "view",
      "type": "function"
    },
    {
      "inputs": [
        {
          "internalType": "address",
          "name": "account",
          "type": "address"
        }
      ],
      "name": "isChallenger",
      "outputs": [
        {
          "internalType": "bool",
          "name": "",
          "type": "bool"
        }
      ],
      "stateMutability": "view",
      "type": "function"
    },
    {
      "inputs": [
        {
          "internalType": "address",
          "name": "account",
          "type": "address"
        }
      ],
      "name": "isMinter",
      "outputs": [
        {
          "internalType": "bool",
          "name": "",
          "type": "bool"
        }
      ],
      "stateMutability": "view",
      "type": "function"
    },
    {
      "inputs": [
        {
          "internalType": "address",
          "name": "account",
          "type": "address"
        }
      ],
      "name": "isOperator",
      "outputs": [
        {
          "internalType": "bool",
          "name": "",
          "type": "bool"
        }
      ],
      "stateMutability": "view",
      "type": "function"
    },
    {
      "inputs": [],
      "name": "isOwner",
      "outputs": [
        {
          "internalType": "bool",
          "name": "",
          "type": "bool"
        }
      ],
      "stateMutability": "view",
      "type": "function"
    },
    {
      "inputs": [],
      "name": "l2Registry",
      "outputs": [
        {
          "internalType": "address",
          "name": "",
          "type": "address"
        }
      ],
      "stateMutability": "view",
      "type": "function"
    },
    {
      "inputs": [],
      "name": "l2RewardPerUint",
      "outputs": [
        {
          "internalType": "uint256",
          "name": "",
          "type": "uint256"
        }
      ],
      "stateMutability": "view",
      "type": "function"
    },
    {
      "inputs": [],
      "name": "lastSnapshotId",
      "outputs": [
        {
          "internalType": "uint256",
          "name": "",
          "type": "uint256"
        }
      ],
      "stateMutability": "view",
      "type": "function"
    },
    {
      "inputs": [],
      "name": "layer2Manager",
      "outputs": [
        {
          "internalType": "address",
          "name": "",
          "type": "address"
        }
      ],
      "stateMutability": "view",
      "type": "function"
    },
    {
      "inputs": [
        {
          "internalType": "address",
          "name": "",
          "type": "address"
        }
      ],
      "name": "layer2RewardInfo",
      "outputs": [
        {
          "internalType": "uint256",
          "name": "layer2Tvl",
          "type": "uint256"
        },
        {
          "internalType": "uint256",
          "name": "initialDebt",
          "type": "uint256"
        }
      ],
      "stateMutability": "view",
      "type": "function"
    },
    {
      "inputs": [],
      "name": "layer2StartBlock",
      "outputs": [
        {
          "internalType": "uint256",
          "name": "",
          "type": "uint256"
        }
      ],
      "stateMutability": "view",
      "type": "function"
    },
    {
      "inputs": [],
      "name": "minimumAmount",
      "outputs": [
        {
          "internalType": "uint256",
          "name": "",
          "type": "uint256"
        }
      ],
      "stateMutability": "view",
      "type": "function"
    },
    {
      "inputs": [],
      "name": "pauseProxy",
      "outputs": [
        {
          "internalType": "bool",
          "name": "",
          "type": "bool"
        }
      ],
      "stateMutability": "view",
      "type": "function"
    },
    {
      "inputs": [],
      "name": "paused",
      "outputs": [
        {
          "internalType": "bool",
          "name": "",
          "type": "bool"
        }
      ],
      "stateMutability": "view",
      "type": "function"
    },
    {
      "inputs": [],
      "name": "powerTONSeigRate",
      "outputs": [
        {
          "internalType": "uint256",
          "name": "",
          "type": "uint256"
        }
      ],
      "stateMutability": "view",
      "type": "function"
    },
    {
      "inputs": [
        {
          "internalType": "uint256",
          "name": "",
          "type": "uint256"
        }
      ],
      "name": "proxyImplementation",
      "outputs": [
        {
          "internalType": "address",
          "name": "",
          "type": "address"
        }
      ],
      "stateMutability": "view",
      "type": "function"
    },
    {
      "inputs": [],
      "name": "relativeSeigRate",
      "outputs": [
        {
          "internalType": "uint256",
          "name": "",
          "type": "uint256"
        }
      ],
      "stateMutability": "view",
      "type": "function"
    },
    {
      "inputs": [
        {
          "internalType": "address",
          "name": "account",
          "type": "address"
        }
      ],
      "name": "removeAdmin",
      "outputs": [],
      "stateMutability": "nonpayable",
      "type": "function"
    },
    {
      "inputs": [
        {
          "internalType": "address",
          "name": "account",
          "type": "address"
        }
      ],
      "name": "removeChallenger",
      "outputs": [],
      "stateMutability": "nonpayable",
      "type": "function"
    },
    {
      "inputs": [
        {
          "internalType": "address",
          "name": "account",
          "type": "address"
        }
      ],
      "name": "removeMinter",
      "outputs": [],
      "stateMutability": "nonpayable",
      "type": "function"
    },
    {
      "inputs": [
        {
          "internalType": "address",
          "name": "account",
          "type": "address"
        }
      ],
      "name": "removeOperator",
      "outputs": [],
      "stateMutability": "nonpayable",
      "type": "function"
    },
    {
      "inputs": [],
      "name": "renounceChallenger",
      "outputs": [],
      "stateMutability": "nonpayable",
      "type": "function"
    },
    {
      "inputs": [],
      "name": "renounceMinter",
      "outputs": [],
      "stateMutability": "nonpayable",
      "type": "function"
    },
    {
      "inputs": [],
      "name": "renounceOperator",
      "outputs": [],
      "stateMutability": "nonpayable",
      "type": "function"
    },
    {
      "inputs": [],
      "name": "renounceOwnership",
      "outputs": [],
      "stateMutability": "nonpayable",
      "type": "function"
    },
    {
      "inputs": [
        {
          "internalType": "bytes32",
          "name": "role",
          "type": "bytes32"
        },
        {
          "internalType": "address",
          "name": "account",
          "type": "address"
        }
      ],
      "name": "renounceRole",
      "outputs": [],
      "stateMutability": "nonpayable",
      "type": "function"
    },
    {
      "inputs": [
        {
          "internalType": "address",
          "name": "account",
          "type": "address"
        }
      ],
      "name": "revokeChallenger",
      "outputs": [],
      "stateMutability": "nonpayable",
      "type": "function"
    },
    {
      "inputs": [
        {
          "internalType": "address",
          "name": "account",
          "type": "address"
        }
      ],
      "name": "revokeMinter",
      "outputs": [],
      "stateMutability": "nonpayable",
      "type": "function"
    },
    {
      "inputs": [
        {
          "internalType": "address",
          "name": "account",
          "type": "address"
        }
      ],
      "name": "revokeOperator",
      "outputs": [],
      "stateMutability": "nonpayable",
      "type": "function"
    },
    {
      "inputs": [
        {
          "internalType": "bytes32",
          "name": "role",
          "type": "bytes32"
        },
        {
          "internalType": "address",
          "name": "account",
          "type": "address"
        }
      ],
      "name": "revokeRole",
      "outputs": [],
      "stateMutability": "nonpayable",
      "type": "function"
    },
    {
      "inputs": [],
      "name": "seigStartBlock",
      "outputs": [
        {
          "internalType": "uint256",
          "name": "",
          "type": "uint256"
        }
      ],
      "stateMutability": "view",
      "type": "function"
    },
    {
      "inputs": [
        {
          "internalType": "bytes4",
          "name": "",
          "type": "bytes4"
        }
      ],
      "name": "selectorImplementation",
      "outputs": [
        {
          "internalType": "address",
          "name": "",
          "type": "address"
        }
      ],
      "stateMutability": "view",
      "type": "function"
    },
    {
      "inputs": [
        {
          "internalType": "address",
          "name": "l2Registry_",
          "type": "address"
        }
      ],
      "name": "setL2Registry",
      "outputs": [],
      "stateMutability": "nonpayable",
      "type": "function"
    },
    {
      "inputs": [
        {
          "internalType": "address",
          "name": "layer2Manager_",
          "type": "address"
        }
      ],
      "name": "setLayer2Manager",
      "outputs": [],
      "stateMutability": "nonpayable",
      "type": "function"
    },
    {
      "inputs": [
        {
          "internalType": "uint256",
          "name": "startBlock_",
          "type": "uint256"
        }
      ],
      "name": "setLayer2StartBlock",
      "outputs": [],
      "stateMutability": "nonpayable",
      "type": "function"
    },
    {
      "inputs": [
        {
          "internalType": "bytes4",
          "name": "interfaceId",
          "type": "bytes4"
        }
      ],
      "name": "supportsInterface",
      "outputs": [
        {
          "internalType": "bool",
          "name": "",
          "type": "bool"
        }
      ],
      "stateMutability": "view",
      "type": "function"
    },
    {
      "inputs": [],
      "name": "totalLayer2TVL",
      "outputs": [
        {
          "internalType": "uint256",
          "name": "",
          "type": "uint256"
        }
      ],
      "stateMutability": "view",
      "type": "function"
    },
    {
      "inputs": [],
      "name": "totalSupplyOfTon",
      "outputs": [
        {
          "internalType": "uint256",
          "name": "tos",
          "type": "uint256"
        }
      ],
      "stateMutability": "view",
      "type": "function"
    },
    {
      "inputs": [
        {
          "internalType": "address",
          "name": "newAdmin",
          "type": "address"
        }
      ],
      "name": "transferAdmin",
      "outputs": [],
      "stateMutability": "nonpayable",
      "type": "function"
    },
    {
      "inputs": [
        {
          "internalType": "address",
          "name": "newAdmin",
          "type": "address"
        }
      ],
      "name": "transferOwnership",
      "outputs": [],
      "stateMutability": "nonpayable",
      "type": "function"
    },
    {
      "inputs": [
        {
          "internalType": "address",
          "name": "layer2",
          "type": "address"
        }
      ],
      "name": "unSettledReward",
      "outputs": [
        {
          "internalType": "uint256",
          "name": "amount",
          "type": "uint256"
        }
      ],
      "stateMutability": "view",
      "type": "function"
    },
    {
      "inputs": [],
      "name": "updateSeigniorage",
      "outputs": [
        {
          "internalType": "bool",
          "name": "",
          "type": "bool"
        }
      ],
      "stateMutability": "nonpayable",
      "type": "function"
    },
    {
      "inputs": [
        {
          "internalType": "address",
          "name": "layer2",
          "type": "address"
        }
      ],
      "name": "updateSeigniorageLayer",
      "outputs": [
        {
          "internalType": "bool",
          "name": "",
          "type": "bool"
        }
      ],
      "stateMutability": "nonpayable",
      "type": "function"
    },
    {
      "inputs": [],
      "name": "updateSeigniorageOperator",
      "outputs": [
        {
          "internalType": "bool",
          "name": "",
          "type": "bool"
        }
      ],
      "stateMutability": "nonpayable",
      "type": "function"
    }
  ],
  "bytecode": "0x6080806040523461001657613c88908161001c8239f35b600080fdfe608060408181526004918236101561001657600080fd5b600092833560e01c91826301ffc9a71461156a575081630ceb6780146114ad57816316b5d5bd146114845781631785f53c146114565781631e1f0b601461138e5781631fbeab54146113515781632428c62814611334578163248a9ca31461130957816324d7806c146112c357816325374a9a146112a457816325e90db41461128a5781632ab6f8db146112705781632f17250a1461124a5781632f2ff15d146111af5781633092afd514611181578163311028af1461116257816336568abe146110d0578163389ed267146110955781633c491173146110455781634123196f14610ec45781634162169f1461101c57816344feabf814610fd95781634631179e14610fb057816350d2a27614610f6c57816351e1e1e614610f30578163530adbb414610f07578163550d01a314610ec9578163552033c414610ec45781635998a8d714610ea55781635c975abb14610e815781635f6fb8b914610e3f5781636304a62414610e2057816363a8fd8914610dfe5781636c578c1d14610dd05781636d70f7ae14610d7c5781636e71186b14610d5d5781637048027514610cba578163715018a614610c9457816375829def14610c77578163764a785614610c31578163837afbc014610c135781638f32d59b14610be057816391d1485414610b99578163983b2d5614610b495781639865027514610b2f5781639870d7fe14610a7c5781639b370dea14610a4f578163a217fddf14610a34578163a415d8dc146109e0578163a7dcc850146109ba578163aa271e1a14610966578163ac28e2ed1461092b578163ac753a7a146108ed578163ac8a584a146108bc578163acd848fa14610892578163b911135f1461085f578163baa1253614610801578163bb0c8298146107e2578163bf7f4733146107c3578163c2e5dcc91461079a578163c45a015514610771578163cbfebe6214610739578163cfbd4885146106e9578163d0d2ff70146106ca578163d5391393146106a1578163d547741f14610665578163d8c4796614610647578163df7fbef014610628578163e2fe8fd1146105f0578163f2fde38b146104ac57508063f5b541a614610484578063f822934814610466578063f96032e614610448578063f9bae41a1461042a5763fad8b32a1461035e57600080fd5b346104265760209081600319360112610422576103796115ee565b9061038b61038633611645565b611d3d565b600080516020613c3c83398151915292838552600581526103b160018387200154611682565b838552600581528185206001600160a01b039093168086529281528185205460ff166103db578480f35b8385526005815281852083865290528320805460ff1916905533917ff6391f5c32d9c69d2a47ea670b442974b53935d1edc7fd64eb21e047a839171b8480a4388080808480f35b8280fd5b5080fd5b50346104265781600319360112610426576020906027549051908152f35b50346104265781600319360112610426576020906021549051908152f35b5034610426578160031936011261042657602090601e549051908152f35b503461042657816003193601126104265760209051600080516020613c3c8339815191528152f35b91905034610422576020806003193601126105ec576104c96115ee565b6104d561038633611645565b6104e161038633611645565b6001600160a01b03169283156105ab5783331461057157508380526005815261050f60018386200154611682565b83805260058152818420838552815260ff828520541615610538575b8361053533611a64565b80f35b8380526005815281842083855290528220805460ff19166001179055339082600080516020613bfc8339815191528180a438808061052b565b915162461bcd60e51b815291820152601660248201527520b1b1b2b9b9b4b136329d1039b0b6b29030b236b4b760511b6044820152606490fd5b915162461bcd60e51b815291820152601860248201527f41636365737369626c653a207a65726f206164647265737300000000000000006044820152606490fd5b8380fd5b5050346104265760203660031901126104265760209181906001600160a01b036106186115ee565b1681526018845220549051908152f35b5050346104265781600319360112610426576020906016549051908152f35b5050346104265781600319360112610426576020905162a55ec28152f35b91905034610422578060031936011261042257610535913561069c600161068a611609565b93838752600560205286200154611682565b611caf565b50503461042657816003193601126104265760209051600080516020613c1c8339815191528152f35b5050346104265781600319360112610426576020906026549051908152f35b5050346104265760209081600319360112610422576107066115ee565b9061071361038633611645565b600080516020613c1c83398151915292838552600581526103b160018387200154611682565b5050346104265760203660031901126104265760209181906001600160a01b036107616115ee565b1681526017845220549051908152f35b505034610426578160031936011261042657600c5490516001600160a01b039091168152602090f35b50503461042657816003193601126104265760245490516001600160a01b039091168152602090f35b5050346104265781600319360112610426576020906023549051908152f35b505034610426578160031936011261042657602090601a549051908152f35b5050346104265760203660031901126104265761083c60ff6108216115ee565b92848052600560205280852033865260205284205416611d3d565b60018060a01b03166bffffffffffffffffffffffff60a01b602554161760255580f35b9050346104225760203660031901126104225735825260016020908152918190205490516001600160a01b039091168152f35b505034610426578160031936011261042657602090516e09a130b963a6c115c3c7f4000000008152f35b83346108ea5760203660031901126108ea576105356108d96115ee565b6108e561038633611645565b611bf5565b80fd5b5050346104265760203660031901126104265760209160ff9082906001600160a01b036109186115ee565b1681526019855220541690519015158152f35b919050346104225760203660031901126104225760ff61095f91848052600560205280852033865260205284205416611d3d565b3560265580f35b5050346104265760203660031901126104265760ff816020936109876115ee565b600080516020613c1c8339815191528252600586528282206001600160a01b039091168252855220549151911615158152f35b505034610426578160031936011261042657602090516a084595161401484a0000008152f35b5050346104265760203660031901126104265760ff81602093610a016115ee565b600080516020613c5c8339815191528252600586528282206001600160a01b039091168252855220549151911615158152f35b50503461042657816003193601126104265751908152602090f35b50503461042657602036600319011261042657602090610a75610a706115ee565b613a2f565b9051908152f35b505034610426576020908160031936011261042257610a996115ee565b90610aa661038633611645565b600080516020613c3c8339815191529283855260058152610acc60018387200154611682565b838552600581528185206001600160a01b039093168086529281528185205460ff1615610af7578480f35b8385526005815281852083865290528320805460ff191660011790553391600080516020613bfc8339815191528480a4388080808480f35b83346108ea57806003193601126108ea5761053533611c52565b505034610426576020908160031936011261042257610b666115ee565b90610b7361038633611645565b600080516020613c1c8339815191529283855260058152610acc60018387200154611682565b9050346104225781600319360112610422578160209360ff92610bba611609565b90358252600586528282206001600160a01b039091168252855220549151911615158152f35b50503461042657816003193601126104265760ff8183806020955260058552818120338252855220541690519015158152f35b50503461042657816003193601126104265760209081549051908152f35b505034610426578160031936011261042657338252600e60209081529181902054610c66906001600160a01b03161515611d95565b610c6e6123b4565b90519015158152f35b91905034610422576020806003193601126105ec576104d56115ee565b83346108ea57806003193601126108ea57610cb161038633611645565b61053533611a64565b505034610426576020908160031936011261042257610cd76115ee565b91610ce461038633611645565b83805260058152610cfa60018386200154611682565b838052600581528184206001600160a01b039093168085529281528184205460ff1615610d25578380f35b8380526005815281842083855290528220805460ff19166001179055339082600080516020613bfc8339815191528180a43880808380f35b5050346104265781600319360112610426576020906028549051908152f35b5050346104265760203660031901126104265760ff81602093610d9d6115ee565b600080516020613c3c8339815191528252600586528282206001600160a01b039091168252855220549151911615158152f35b83346108ea5760203660031901126108ea57610535610ded6115ee565b610df961038633611645565b611b53565b50503461042657816003193601126104265760ff602092541690519015158152f35b505034610426578160031936011261042657602090601b549051908152f35b505034610426576020366003190112610426579081906001600160a01b03610e656115ee565b1681526029602052206001815491015482519182526020820152f35b50503461042657816003193601126104265760209060ff601f541690519015158152f35b505034610426578160031936011261042657602090601c549051908152f35b61161f565b5050346104265760203660031901126104265760209160ff9082906001600160a01b03610ef46115ee565b1681526002855220541690519015158152f35b50503461042657816003193601126104265760209051600080516020613c5c8339815191528152f35b8284346108ea5760203660031901126108ea5750610f54610f4f6115ee565b612824565b82516001600160a01b03909216825215156020820152f35b905034610422576020366003190112610422573563ffffffff60e01b811680910361042257825260036020908152918190205490516001600160a01b039091168152f35b505034610426578160031936011261042657602090516d08c815d5bcc20177de3b5d2500008152f35b50503461042657602036600319011261042657610ff960ff6108216115ee565b60018060a01b03166bffffffffffffffffffffffff60a01b602454161760245580f35b50503461042657816003193601126104265760095490516001600160a01b039091168152602090f35b5050346104265760209081600319360112610422576110626115ee565b9061106f61038633611645565b600080516020613c5c83398151915292838552600581526103b160018387200154611682565b505034610426578160031936011261042657602090517ffcb9fcbfa83b897fb2d5cf4b58962164105c1e71489a37ef3ae0db3fdce576f68152f35b839150346104265782600319360112610426576110eb611609565b90336001600160a01b0383160361110757906105359135611caf565b608490602085519162461bcd60e51b8352820152602f60248201527f416363657373436f6e74726f6c3a2063616e206f6e6c792072656e6f756e636560448201526e103937b632b9903337b91039b2b63360891b6064820152fd5b5050346104265781600319360112610426576020906022549051908152f35b83346108ea5760203660031901126108ea5761053561119e6115ee565b6111aa61038633611645565b611c52565b90503461042257816003193601126104225735906111cb611609565b9082845260056020526111e360018286200154611682565b828452600560209081528185206001600160a01b039093168086529290528084205460ff1615611211578380f35b82845260056020528084208285526020528320600160ff198254161790553391600080516020613bfc8339815191528480a43880808380f35b50503461042657602036600319011261042657602090610a7561126b6115ee565b612400565b83346108ea57806003193601126108ea5761053533611bf5565b83346108ea57806003193601126108ea5761053533611b53565b505034610426578160031936011261042657602090601d549051908152f35b5050346104265760203660031901126104265760ff816020936112e46115ee565b818052600586528282206001600160a01b039091168252855220549151911615158152f35b9050346104225760203660031901126104225781602093600192358152600585522001549051908152f35b505034610426578160031936011261042657602090610a75613a94565b505034610426578160031936011261042657338252600e60209081529181902054611386906001600160a01b03161515611d95565b610c6e611e3c565b90503461042257602092836003193601126108ea5780846001600160a01b036113b56115ee565b1684865180948193633b253c2b60e11b83525af191821561144b579161141e575b50156113e457505160018152f35b82606492519162461bcd60e51b835282015260166024820152756661696c20757064617465536569676e696f7261676560501b6044820152fd5b61143e9150843d8611611444575b6114368183611a1d565b810190611e24565b386113d6565b503d61142c565b8451903d90823e3d90fd5b83346108ea5760203660031901126108ea576105356114736115ee565b61147f61038633611645565b611a64565b50503461042657816003193601126104265760255490516001600160a01b039091168152602090f35b90503461042257602091826003193601126105ec576114ca6115ee565b916114d433611645565b8015611540575b156115075750600080516020613c5c8339815191529283855260058152610acc60018387200154611682565b83606492519162461bcd60e51b835282015260156024820152743737ba1037b7363ca6b4b73a32b927b920b236b4b760591b6044820152fd5b50600080516020613c1c833981519152855260058452818520338652845260ff82862054166114db565b849184346105ec5760203660031901126105ec5781359063ffffffff60e01b82168092036115ea57602094637965db0b60e01b83149384156115b1575b5050505015158152f35b6301ffc9a760e01b84149450919290919084156115d6575b50505050838080806115a7565b60ff945082528552205416838080806115c9565b8480fd5b600435906001600160a01b038216820361160457565b600080fd5b602435906001600160a01b038216820361160457565b34611604576000366003190112611604576020604051676765c793fa10079d601b1b8152f35b6001600160a01b031660009081527f05b8ccbb9d4d8fb16ea74ce3c29a41f1b461fbdaff4714a0d9a8eb05499746bc602052604090205460ff1690565b60009080825260209060058252604092838120338252835260ff8482205416156116ac5750505050565b338451926116b984611a01565b602a845284840190863683378451156119845760308253845192600193841015611970576078602187015360295b84811161190657506118c4578651926080840184811067ffffffffffffffff8211176118b05788526042845286840194606036873784511561189c5760308653845182101561189c5790607860218601536041915b81831161182e575050506117ec576117e89386936117cc936117bd6048946117949a519a8b957f416363657373436f6e74726f6c3a206163636f756e74200000000000000000008c8801525180926037880190611998565b8401917001034b99036b4b9b9b4b733903937b6329607d1b603784015251809386840190611998565b01036028810187520185611a1d565b5192839262461bcd60e51b845260048401526024830190611a3f565b0390fd5b60648587519062461bcd60e51b825280600483015260248201527f537472696e67733a20686578206c656e67746820696e73756666696369656e746044820152fd5b909192600f81166010811015611888576f181899199a1a9b1b9c1cb0b131b232b360811b901a61185e8588611d16565b5360041c9280156118745760001901919061173c565b634e487b7160e01b82526011600452602482fd5b634e487b7160e01b83526032600452602483fd5b634e487b7160e01b81526032600452602490fd5b634e487b7160e01b86526041600452602486fd5b60648688519062461bcd60e51b825280600483015260248201527f537472696e67733a20686578206c656e67746820696e73756666696369656e746044820152fd5b90600f8116601081101561195c576f181899199a1a9b1b9c1cb0b131b232b360811b901a6119348389611d16565b5360041c90801561194857600019016116e7565b634e487b7160e01b86526011600452602486fd5b634e487b7160e01b87526032600452602487fd5b634e487b7160e01b85526032600452602485fd5b634e487b7160e01b84526032600452602484fd5b60005b8381106119ab5750506000910152565b818101518382015260200161199b565b67ffffffffffffffff81116119cf57604052565b634e487b7160e01b600052604160045260246000fd5b6040810190811067ffffffffffffffff8211176119cf57604052565b6060810190811067ffffffffffffffff8211176119cf57604052565b90601f8019910116810190811067ffffffffffffffff8211176119cf57604052565b90602091611a5881518092818552858086019101611998565b601f01601f1916010190565b6001600160a01b0316338103611af65760008181527f05b8ccbb9d4d8fb16ea74ce3c29a41f1b461fbdaff4714a0d9a8eb05499746bc602052604081205490919060ff16611ab0575050565b8180526005602052604082208183526020526040822060ff19815416905533917ff6391f5c32d9c69d2a47ea670b442974b53935d1edc7fd64eb21e047a839171b8180a4565b60405162461bcd60e51b815260206004820152602f60248201527f416363657373436f6e74726f6c3a2063616e206f6e6c792072656e6f756e636560448201526e103937b632b9903337b91039b2b63360891b6064820152608490fd5b6001600160a01b0316338103611af65760008181527fedec71783a10810e436f3392a073a61717130e573433fcc6591c3061a012f7676020526040812054909190600080516020613c5c8339815191529060ff16611bb057505050565b8083526005602052604083208284526020526040832060ff1981541690557ff6391f5c32d9c69d2a47ea670b442974b53935d1edc7fd64eb21e047a839171b339380a4565b6001600160a01b0316338103611af65760008181527f02634a7c777b8129955fe1824eee49ef19dfa96f2f4cb63212492c3d84eb58e66020526040812054909190600080516020613c3c8339815191529060ff16611bb057505050565b6001600160a01b0316338103611af65760008181527fca0a2f641ec05ca23127d994cf03ffc453db616acae0b86cb56bb95304d068546020526040812054909190600080516020613c1c8339815191529060ff16611bb057505050565b906000918083526005602052604083209160018060a01b03169182845260205260ff604084205416611bb057505050565b81810292918115918404141715611cf357565b634e487b7160e01b600052601160045260246000fd5b91908201809211611cf357565b908151811015611d27570160200190565b634e487b7160e01b600052603260045260246000fd5b15611d4457565b60405162461bcd60e51b815260206004820152602360248201527f41757468436f6e74726f6c3a2043616c6c6572206973206e6f7420616e20616460448201526236b4b760e91b6064820152608490fd5b15611d9c57565b60405162461bcd60e51b815260206004820152602e60248201527f536569674d616e616765723a20636f696e61676520686173206e6f742062656560448201526d1b8819195c1b1bde5959081e595d60921b6064820152608490fd5b91908203918211611cf357565b9081602091031261160457516001600160a01b03811681036116045790565b90816020910312611604575180151581036116045790565b601f5460ff600091166123ae5760115443111561236957611e5c33612400565b601a541161232457338152600e60209081526040808320546001600160a01b039290831691611e89612988565b156122ec57338552600f825280852043905580516318160ddd60e01b81529360049280868581885afa9586156122e25787966122af575b5060248183600d54168551928380926370a0823160e01b8252338a8301525afa9081156120a357889161227e575b508087101561224d5786611f0191611df8565b9183519463570ca73560e01b865282868281335afa958615612243578996612214575b503389526015835260ff858a20541696611f428789878c85336124cf565b9790988751630a9ee07f60e31b815286818681875afa9081156121ce578c8e928d8a9385926121d8575b50611f8f611f8a611f959493676765c793fa10079d601b1b9361276b565b61270f565b046127de565b60248b518094819363817e9d3160e01b83528a830152885af180156121ce57889492889694928c926121b1575b50816120ad575b5050600b546007548a516340c10f1960e01b81529088166001600160a01b031694810194855260208501959095529395869416928492508d915082906040015b03925af180156120a3579160a0979593917f9f0aff7defc0f0b331d66bccf1955a699b40155565289317e38b9799ddf0944899979593612086575b508251967f521cc65179761533a7c8d7a973291dd7baebb99a67edf5ef78e9c2b61a533d95339180a233875286015284015260608301526080820152a1600190565b61209c90823d8411611444576114368183611a1d565b5038612044565b84513d8a823e3d90fd5b9395929450909215612141575050813b1561213d57865163079cc67960e41b81526001600160a01b039091168382019081526020810189905290918b9183919082908490829060400103925af1801561213357612118575b50836120099284925b9093388981611fc9565b6120099284929a61212987936119bb565b9a92509250612105565b86513d8c823e3d90fd5b8a80fd5b88516340c10f1960e01b81526001600160a01b0390931685840190815260208101919091529192909183919082908e90829060400103925af1801561213357928492869261200995612194575b5061210e565b6121aa90853d8711611444576114368183611a1d565b503861218e565b6121c790883d8a11611444576114368183611a1d565b5038611fc2565b89513d8f823e3d90fd5b945050505081813d831161220d575b6121f18183611a1d565b8101031261220957518c9087908d908d611f8f611f6c565b8c80fd5b503d6121e7565b612235919650833d851161223c575b61222d8183611a1d565b810190611e05565b9438611f24565b503d612223565b85513d8b823e3d90fd5b505050505050507f521cc65179761533a7c8d7a973291dd7baebb99a67edf5ef78e9c2b61a533d95339180a2600190565b90508181813d83116122a8575b6122958183611a1d565b810103126122a4575138611eee565b8780fd5b503d61228b565b9080965081813d83116122db575b6122c78183611a1d565b810103126122d757519438611ec0565b8680fd5b503d6122bd565b83513d89823e3d90fd5b60649250519062461bcd60e51b8252600482015260126024820152715f696e637265617365546f742066616c736560701b6044820152fd5b60405162461bcd60e51b815260206004820152601d60248201527f6d696e696d756d416d6f756e7420697320696e73756666696369656e740000006044820152606490fd5b60405162461bcd60e51b815260206004820152601b60248201527f6c617374207365696720626c6f636b206973206e6f74207061737400000000006044820152606490fd5b50600190565b600060ff601f54166123ae57601154431115612369576123d333612400565b601a541161232457338152600e60209081526040808320546001600160a01b039290831691611e89613297565b60405163570ca73560e01b81526001600160a01b03918216916020908183600481875afa9283156124a4576000936124b0575b50819293600052600e8252602481604060002054169460405195869384926370a0823160e01b84521660048301525afa9081156124a457600091612478575b50905090565b82813d831161249d575b61248c8183611a1d565b810103126108ea5750518038612472565b503d612482565b6040513d6000823e3d90fd5b8293506124c990833d851161223c5761222d8183611a1d565b92612433565b95939491959290926000809460018060a01b038093168652602060178152604093848820548043101590816126e5575b506126a6575b33885260148252848820549661251b878d611d09565b9a88156126965715612666578b156126575785516370a0823160e01b8152908216600482015292829184916024918391165afa93841561264e5750869361261e575b505081156126155750611f8a612579611f8a9861259b936127de565b938493612595676765c793fa10079d601b1b9a8b96879361276b565b0461276b565b0485821495866000146125e1576125c094959682945b50156125c45750905093611d09565b9190565b6125d4611f8a6125db948661276b565b0490611d09565b93611d09565b82810396818811612601576125fb6125c0969798846127de565b946125b1565b634e487b7160e01b85526011600452602485fd5b95965050505050565b9080929350813d8311612647575b6126368183611a1d565b810103126115ea575190388061255d565b503d61262c565b513d88823e3d90fd5b50505050965050505050909190565b5050505050506125c093949550676765c793fa10079d601b1b925061268e91611f8a9161276b565b048093611df8565b5050505050505050509250909190565b601882528488205460148352858920556019825260ff8589205416601583528589209060ff801983541691151516179055601782528785812055612505565b90501515386124ff565b81156126f9570490565b634e487b7160e01b600052601260045260246000fd5b906b019d971e4fe8401e74000000820191828111611cf357821061272f57565b60405162461bcd60e51b815260206004820152601460248201527364732d6d6174682d6164642d6f766572666c6f7760601b6044820152606490fd5b6000929180159182156127be575b50501561278257565b60405162461bcd60e51b815260206004820152601460248201527364732d6d6174682d6d756c2d6f766572666c6f7760601b6044820152606490fd5b915092506127d66127cf8483611ce0565b93846126ef565b143880612779565b90676765c793fa10079d601b1b9182810292818404811482151715611cf357830403612782576128118160011c83611d09565b91821061272f57612821916126ef565b90565b6025546040805163570ca73560e01b81526001600160a01b0392831694600094909385939260209283908290600490829086165afa90811561297e576024849284928891612961575b508787519b8c94859363050f7f4960e51b85521660048401525af1968715612954578497612935575b5086811690816128a95750929450505050565b9180916024869460255416918651958693849263153e6d7f60e01b845260048401525af192831561292c575083926128ef575b505060ff9150166128e957565b60019150565b90809250813d8311612925575b6129068183611a1d565b8101031261042657519060ff821682036108ea575060ff9038806128dc565b503d6128fc565b513d85823e3d90fd5b61294d919750823d841161223c5761222d8183611a1d565b9538612896565b50505051903d90823e3d90fd5b6129789150843d861161223c5761222d8183611a1d565b3861286d565b84513d87823e3d90fd5b60115443111561329257600d546040516318160ddd60e01b81526001600160a01b0390911690602081600481855afa9081156124a457600091613260575b5015613256576040516318160ddd60e01b8152602081600481855afa9081156124a457600091613224575b50612a066129fd6139f2565b60105490611ce0565b9160046020612a13613a94565b92604051928380926318160ddd60e01b82525afa80156124a45782916000916131e4575b5090676765c793fa10079d601b1b611f8f611f8a612a55948861276b565b91600091829083918495338652602960205260408620600160405191612a7a836119e5565b805483520154602082015260285494633b9aca009486868102048614871517156131d057602654156131c7575b6025548b906001600160a01b03161515806131ba575b806131ae575b6130b4575b612b97611f8a612b8e8c612b8989676765c793fa10079d601b1b96612b588f8f8f612b1a90604051612af9816119e5565b600f81526e6375724c617965723254766c20257360881b6020820152613ba3565b60405191612b27836119e5565b601d83527f746f74616c4c617965723254564c5261792072617920756e697420257300000060208401520290613ba3565b612b8984604051612b68816119e5565b600f81526e6c32546f74616c536569677320257360881b6020820152613ba3565b611df8565b601d549061276b565b0497612bac89612ba78784611d09565b611d09565b914360115560018060a01b03600d5416604051630a9ee07f60e31b8152602081600481855afa9081156124a457600091613081575b508392916024612c098796676765c793fa10079d601b1b611f8f611f8a60209760009c61276b565b604051978893849263817e9d3160e01b845260048401525af19384156124a457600494613062575b50600d546040516318160ddd60e01b81529460209186919082906001600160a01b03165afa9384156124a45760009461302d575b50917f41a79a497d1457df24c25ab99f22349ae9aef4468429f0a781216e8dcf80c6289391608093604051938452602084015260408301526060820152a1612cb188612b89858d611df8565b93600095869787998b612fb8575b6008546001600160a01b031680612f26575b506009546001600160a01b031680612e94575b50601d54612e7d575b506000808d60405160208101916332458eed60e01b83521515602482015260248152612d1881611a01565b51906a636f6e736f6c652e6c6f675afa5060009b612d8b575b5050505050604051978852602088015260408701526060860152608085015260a084015260c083015260e08201527f497e03b12fad3ff21a8befe15ca84c3fc0060b505e572702bf6788e9002520076101003392a2600190565b612da960409394959c92612db19260275415612e69575b028c6126ef565b602754611d09565b60275533815260296020522091612dc733613a2f565b602554909a906001600160a01b0316803b156116045760405163c5f16b8960e01b81526001600160a01b03939093166004840152602483018c90526000908390604490829084905af180156124a457612e4d94612ba7938592612e5a575b50670de0b6b3a7640000612e3b83602754611ce0565b04600182015555602854905190611df8565b6028553880808080612d31565b612e63906119bb565b38612e25565b676765c793fa10079d601b1b602755612da2565b9950612e8b8a601e54611d09565b601e5538612ced565b9950612ef86020676765c793fa10079d601b1b612eb6611f8a601c548d61276b565b04809c60018060a01b03600b54169060006040518096819582946340c10f1960e01b84526004840160209093929193604081019460018060a01b031681520152565b03925af180156124a45715612ce457612f1f9060203d602011611444576114368183611a1d565b5038612ce4565b9850612f8a6020676765c793fa10079d601b1b612f48611f8a601b548d61276b565b600b546040516340c10f1960e01b81526001600160a01b039e8f16600482015292909104602483018190529c9193849290911690829060009082906044820190565b03925af180156124a45715612cd157612fb19060203d602011611444576114368183611a1d565b5038612cd1565b600b546025546040516340c10f1960e01b81526001600160a01b039182166004820152602481018f905291602091839160449183918f91165af1801561302257613003575b50612cbf565b61301b9060203d602011611444576114368183611a1d565b5038612ffd565b6040513d8c823e3d90fd5b90936020823d60201161305a575b8161304860209383611a1d565b810103126108ea575051926080612c65565b3d915061303b565b61307a9060203d602011611444576114368183611a1d565b5038612c31565b906020823d6020116130ac575b8161309b60209383611a1d565b810103126108ea5750516000612be1565b3d915061308e565b509850506130c133612824565b98888b8888858e6130d7575b5050509050612ac8565b6024805460405163c81ae6db60e01b81526001600160a01b039384166004820152979b5060209650879550909350849250165afa9081156131a357899161316d575b50938a60285461312e575b89908888386130cd565b84995087878784828402613142908661276b565b61314b9061270f565b676765c793fa10079d601b1b900490613163916127de565b9c50505050613124565b90506020813d60201161319b575b8161318860209383611a1d565b81010312613197575138613119565b8880fd5b3d915061317b565b6040513d8b823e3d90fd5b50436026541115612ac3565b5060016026541415612abd565b43602655612aa7565b634e487b7160e01b89526011600452602489fd5b91506020823d60201161321c575b816131ff60209383611a1d565b810103126108ea5750518190676765c793fa10079d601b1b612a37565b3d91506131f2565b906020823d60201161324e575b8161323e60209383611a1d565b810103126108ea575051386129f1565b3d9150613231565b5043601155600090565b906020823d60201161328a575b8161327a60209383611a1d565b810103126108ea575051386129c6565b3d915061326d565b600090565b60115443111561329257600d546040516318160ddd60e01b81526001600160a01b0390911690602081600481855afa9081156124a4576000916139c0575b5015613256576040516318160ddd60e01b8152602081600481855afa9081156124a45760009161398e575b5061330c6129fd6139f2565b9160046020613319613a94565b92604051928380926318160ddd60e01b82525afa80156124a457829160009161394e575b5090676765c793fa10079d601b1b611f8f611f8a61335b948861276b565b91600091829083849533865260296020526040862060016040519161337f836119e5565b805483520154602082015260285494633b9aca009486868102048614871517156131d05760265415613945575b6025548b906001600160a01b0316151580613938575b8061392c575b613838575b6133fd611f8a612b8e8c612b8989676765c793fa10079d601b1b96612b588f8f612b1a8d604051612af9816119e5565b049761340d89612ba78784611d09565b914360115560018060a01b03600d5416604051630a9ee07f60e31b8152602081600481855afa9081156124a457600091613805575b50839291602461346a8796676765c793fa10079d601b1b611f8f611f8a60209760009c61276b565b604051978893849263817e9d3160e01b845260048401525af19384156124a4576004946137e6575b50600d546040516318160ddd60e01b81529460209186919082906001600160a01b03165afa9384156124a4576000946137b1575b50917f41a79a497d1457df24c25ab99f22349ae9aef4468429f0a781216e8dcf80c6289391608093604051938452602084015260408301526060820152a161351288612b89858d611df8565b93600095869787998b613747575b6008546001600160a01b0316806136f7575b506009546001600160a01b0316806136a7575b50601d54613690575b506000808d60405160208101916332458eed60e01b8352151560248201526024815261357981611a01565b51906a636f6e736f6c652e6c6f675afa5060009b6135eb575050505050604051978852602088015260408701526060860152608085015260a084015260c083015260e08201527f497e03b12fad3ff21a8befe15ca84c3fc0060b505e572702bf6788e9002520076101003392a2600190565b61360691612da99160279d969d541561367c575b028b6126ef565b928360275533815260296020526040812093838c511160001461363a575050612dc733613a2f565b55602854905190611df8565b612ba79250848491826001949e94612e4d98019182541561365e575b50505061362e565b670de0b6b3a76400009161367191611ce0565b049055388281613656565b676765c793fa10079d601b1b6027556135ff565b995061369e8a601e54611d09565b601e553861354e565b99506136c96020676765c793fa10079d601b1b612eb6611f8a601c548d61276b565b03925af180156124a45715613545576136f09060203d602011611444576114368183611a1d565b5038613545565b98506137196020676765c793fa10079d601b1b612f48611f8a601b548d61276b565b03925af180156124a45715613532576137409060203d602011611444576114368183611a1d565b5038613532565b600b546025546040516340c10f1960e01b81526001600160a01b039182166004820152602481018f905291602091839160449183918f91165af1801561302257613792575b50613520565b6137aa9060203d602011611444576114368183611a1d565b503861378c565b90936020823d6020116137de575b816137cc60209383611a1d565b810103126108ea5750519260806134c6565b3d91506137bf565b6137fe9060203d602011611444576114368183611a1d565b5038613492565b906020823d602011613830575b8161381f60209383611a1d565b810103126108ea5750516000613442565b3d9150613812565b509850925061384633612824565b9890939088848c8989898f613861575b5050509150506133cd565b6024805460405163c81ae6db60e01b81526001600160a01b039384166004820152989950602097508896509094508593501690505afa9081156131a35789916138fa575b50908a6028546138bb575b848a91898938613856565b869950849088838982026138cf908461276b565b6138d89061270f565b676765c793fa10079d601b1b9004906138f0916127de565b9b505090506138b0565b90506020813d602011613924575b8161391560209383611a1d565b810103126131975751386138a5565b3d9150613908565b504360265411156133c8565b50600160265414156133c2565b436026556133ac565b91506020823d602011613986575b8161396960209383611a1d565b810103126108ea5750518190676765c793fa10079d601b1b61333d565b3d915061395c565b906020823d6020116139b8575b816139a860209383611a1d565b810103126108ea57505138613300565b3d915061399b565b906020823d6020116139ea575b816139da60209383611a1d565b810103126108ea575051386132d5565b3d91506139cd565b60ff601f541661160457601154613a098143611df8565b90601354908110613a2b5790613a256128219260125490611df8565b90611df8565b5090565b6001600160a01b0316600090815260296020526040808220905191929190613a56826119e5565b602060018254928385520154920191825280613a70575050565b612821929350613a8b670de0b6b3a764000091602754611ce0565b04905190611df8565b60215480613b9b5750602462a55ec25b60225480613b925750613af76e09a130b963a6c115c3c7f4000000005b60235480613b885750613af16d08c815d5bcc20177de3b5d250000935b613aeb6010549143611df8565b90611ce0565b90611d09565b600a546040516370a0823160e01b8152600160048201529360209185919082906001600160a01b03165afa9283156124a457600093613b55575b50633b9aca0092838102938185041490151715611cf35761282192612b8991611df8565b90926020823d8211613b80575b81613b6f60209383611a1d565b810103126108ea5750519138613b31565b3d9150613b62565b613af19093613ade565b613af790613ac1565b602490613aa4565b600091908291613be86040518092613bd46020830195632d839cb360e21b8752604060248501526064840190611a3f565b90604483015203601f198101835282611a1d565b51906a636f6e736f6c652e6c6f675afa5056fe2f8788117e7eff1d82e926ec794901d17c78024a50270940304540a733656f0df0887ba65ee2024ea881d91b74c2450ef19e1557f03bed3ea9f16b037cbe2dc9523a704056dcd17bcf83bed8b68c59416dac1119be77755efe3bde0a64e46e0cbf02bad7114723a857a3af46cea17b778a3a951c96f183784d9a2448cc479ab6a164736f6c6343000813000a",
  "linkReferences": {},
  "deployedLinkReferences": {}
}