{
  "_format": "hh-sol-artifact-1",
  "contractName": "SeigManagerV1_3",
  "sourceName": "contracts/stake/managers/SeigManagerV1_3.sol",
  "abi": [
    {
      "anonymous": false,
      "inputs": [
        {
          "indexed": false,
          "internalType": "address",
          "name": "layer2",
          "type": "address"
        },
        {
          "indexed": false,
          "internalType": "uint256",
          "name": "seigs",
          "type": "uint256"
        },
        {
          "indexed": false,
          "internalType": "uint256",
          "name": "operatorSeigs",
          "type": "uint256"
        },
        {
          "indexed": false,
          "internalType": "uint256",
          "name": "nextTotalSupply",
          "type": "uint256"
        },
        {
          "indexed": false,
          "internalType": "uint256",
          "name": "prevTotalSupply",
          "type": "uint256"
        }
      ],
      "name": "AddedSeigAtLayer",
      "type": "event"
    },
    {
      "anonymous": false,
      "inputs": [
        {
          "indexed": true,
          "internalType": "address",
          "name": "layer2",
          "type": "address"
        }
      ],
      "name": "Comitted",
      "type": "event"
    },
    {
      "anonymous": false,
      "inputs": [
        {
          "indexed": false,
          "internalType": "uint256",
          "name": "totalStakedAmount",
          "type": "uint256"
        },
        {
          "indexed": false,
          "internalType": "uint256",
          "name": "totalSupplyOfWTON",
          "type": "uint256"
        },
        {
          "indexed": false,
          "internalType": "uint256",
          "name": "prevTotalSupply",
          "type": "uint256"
        },
        {
          "indexed": false,
          "internalType": "uint256",
          "name": "nextTotalSupply",
          "type": "uint256"
        }
      ],
      "name": "CommitLog1",
      "type": "event"
    },
    {
      "anonymous": false,
      "inputs": [
        {
          "indexed": false,
          "internalType": "address",
          "name": "layer2",
          "type": "address"
        },
        {
          "indexed": false,
          "internalType": "uint256",
          "name": "layer2Tvl",
          "type": "uint256"
        },
        {
          "indexed": false,
          "internalType": "uint256",
          "name": "initialDebt",
          "type": "uint256"
        }
      ],
      "name": "ExcludedFromSeigniorage",
      "type": "event"
    },
    {
      "anonymous": false,
      "inputs": [
        {
          "indexed": true,
          "internalType": "bytes32",
          "name": "role",
          "type": "bytes32"
        },
        {
          "indexed": true,
          "internalType": "bytes32",
          "name": "previousAdminRole",
          "type": "bytes32"
        },
        {
          "indexed": true,
          "internalType": "bytes32",
          "name": "newAdminRole",
          "type": "bytes32"
        }
      ],
      "name": "RoleAdminChanged",
      "type": "event"
    },
    {
      "anonymous": false,
      "inputs": [
        {
          "indexed": true,
          "internalType": "bytes32",
          "name": "role",
          "type": "bytes32"
        },
        {
          "indexed": true,
          "internalType": "address",
          "name": "account",
          "type": "address"
        },
        {
          "indexed": true,
          "internalType": "address",
          "name": "sender",
          "type": "address"
        }
      ],
      "name": "RoleGranted",
      "type": "event"
    },
    {
      "anonymous": false,
      "inputs": [
        {
          "indexed": true,
          "internalType": "bytes32",
          "name": "role",
          "type": "bytes32"
        },
        {
          "indexed": true,
          "internalType": "address",
          "name": "account",
          "type": "address"
        },
        {
          "indexed": true,
          "internalType": "address",
          "name": "sender",
          "type": "address"
        }
      ],
      "name": "RoleRevoked",
      "type": "event"
    },
    {
      "anonymous": false,
      "inputs": [
        {
          "indexed": true,
          "internalType": "address",
          "name": "layer2",
          "type": "address"
        },
        {
          "indexed": false,
          "internalType": "uint256",
          "name": "totalSeig",
          "type": "uint256"
        },
        {
          "indexed": false,
          "internalType": "uint256",
          "name": "stakedSeig",
          "type": "uint256"
        },
        {
          "indexed": false,
          "internalType": "uint256",
          "name": "unstakedSeig",
          "type": "uint256"
        },
        {
          "indexed": false,
          "internalType": "uint256",
          "name": "powertonSeig",
          "type": "uint256"
        },
        {
          "indexed": false,
          "internalType": "uint256",
          "name": "daoSeig",
          "type": "uint256"
        },
        {
          "indexed": false,
          "internalType": "uint256",
          "name": "pseig",
          "type": "uint256"
        }
      ],
      "name": "SeigGiven",
      "type": "event"
    },
    {
      "anonymous": false,
      "inputs": [
        {
          "indexed": true,
          "internalType": "address",
          "name": "layer2",
          "type": "address"
        },
        {
          "indexed": false,
          "internalType": "uint256",
          "name": "totalSeig",
          "type": "uint256"
        },
        {
          "indexed": false,
          "internalType": "uint256",
          "name": "stakedSeig",
          "type": "uint256"
        },
        {
          "indexed": false,
          "internalType": "uint256",
          "name": "unstakedSeig",
          "type": "uint256"
        },
        {
          "indexed": false,
          "internalType": "uint256",
          "name": "powertonSeig",
          "type": "uint256"
        },
        {
          "indexed": false,
          "internalType": "uint256",
          "name": "daoSeig",
          "type": "uint256"
        },
        {
          "indexed": false,
          "internalType": "uint256",
          "name": "pseig",
          "type": "uint256"
        },
        {
          "indexed": false,
          "internalType": "uint256",
          "name": "l2TotalSeigs",
          "type": "uint256"
        },
        {
          "indexed": false,
          "internalType": "uint256",
          "name": "layer2Seigs",
          "type": "uint256"
        }
      ],
      "name": "SeigGiven2",
      "type": "event"
    },
    {
      "inputs": [],
      "name": "BURNT_AMOUNT_MAINNET",
      "outputs": [
        {
          "internalType": "uint256",
          "name": "",
          "type": "uint256"
        }
      ],
      "stateMutability": "view",
      "type": "function"
    },
    {
      "inputs": [],
      "name": "CHALLENGER_ROLE",
      "outputs": [
        {
          "internalType": "bytes32",
          "name": "",
          "type": "bytes32"
        }
      ],
      "stateMutability": "view",
      "type": "function"
    },
    {
      "inputs": [],
      "name": "DEFAULT_ADMIN_ROLE",
      "outputs": [
        {
          "internalType": "bytes32",
          "name": "",
          "type": "bytes32"
        }
      ],
      "stateMutability": "view",
      "type": "function"
    },
    {
      "inputs": [],
      "name": "INITIAL_TOTAL_SUPPLY_MAINNET",
      "outputs": [
        {
          "internalType": "uint256",
          "name": "",
          "type": "uint256"
        }
      ],
      "stateMutability": "view",
      "type": "function"
    },
    {
      "inputs": [],
      "name": "MAX_VALID_COMMISSION",
      "outputs": [
        {
          "internalType": "uint256",
          "name": "",
          "type": "uint256"
        }
      ],
      "stateMutability": "view",
      "type": "function"
    },
    {
      "inputs": [],
      "name": "MINTER_ROLE",
      "outputs": [
        {
          "internalType": "bytes32",
          "name": "",
          "type": "bytes32"
        }
      ],
      "stateMutability": "view",
      "type": "function"
    },
    {
      "inputs": [],
      "name": "MIN_VALID_COMMISSION",
      "outputs": [
        {
          "internalType": "uint256",
          "name": "",
          "type": "uint256"
        }
      ],
      "stateMutability": "view",
      "type": "function"
    },
    {
      "inputs": [],
      "name": "OPERATOR_ROLE",
      "outputs": [
        {
          "internalType": "bytes32",
          "name": "",
          "type": "bytes32"
        }
      ],
      "stateMutability": "view",
      "type": "function"
    },
    {
      "inputs": [],
      "name": "PAUSE_ROLE",
      "outputs": [
        {
          "internalType": "bytes32",
          "name": "",
          "type": "bytes32"
        }
      ],
      "stateMutability": "view",
      "type": "function"
    },
    {
      "inputs": [],
      "name": "RAY",
      "outputs": [
        {
          "internalType": "uint256",
          "name": "",
          "type": "uint256"
        }
      ],
      "stateMutability": "view",
      "type": "function"
    },
    {
      "inputs": [],
      "name": "SEIG_START_MAINNET",
      "outputs": [
        {
          "internalType": "uint256",
          "name": "",
          "type": "uint256"
        }
      ],
      "stateMutability": "view",
      "type": "function"
    },
    {
      "inputs": [],
      "name": "accRelativeSeig",
      "outputs": [
        {
          "internalType": "uint256",
          "name": "",
          "type": "uint256"
        }
      ],
      "stateMutability": "view",
      "type": "function"
    },
    {
      "inputs": [
        {
          "internalType": "address",
          "name": "account",
          "type": "address"
        }
      ],
      "name": "addAdmin",
      "outputs": [],
      "stateMutability": "nonpayable",
      "type": "function"
    },
    {
      "inputs": [
        {
          "internalType": "address",
          "name": "account",
          "type": "address"
        }
      ],
      "name": "addChallenger",
      "outputs": [],
      "stateMutability": "nonpayable",
      "type": "function"
    },
    {
      "inputs": [
        {
          "internalType": "address",
          "name": "account",
          "type": "address"
        }
      ],
      "name": "addMinter",
      "outputs": [],
      "stateMutability": "nonpayable",
      "type": "function"
    },
    {
      "inputs": [
        {
          "internalType": "address",
          "name": "account",
          "type": "address"
        }
      ],
      "name": "addOperator",
      "outputs": [],
      "stateMutability": "nonpayable",
      "type": "function"
    },
    {
      "inputs": [],
      "name": "adjustCommissionDelay",
      "outputs": [
        {
          "internalType": "uint256",
          "name": "",
          "type": "uint256"
        }
      ],
      "stateMutability": "view",
      "type": "function"
    },
    {
      "inputs": [
        {
          "internalType": "address",
          "name": "",
          "type": "address"
        }
      ],
      "name": "aliveImplementation",
      "outputs": [
        {
          "internalType": "bool",
          "name": "",
          "type": "bool"
        }
      ],
      "stateMutability": "view",
      "type": "function"
    },
    {
      "inputs": [
        {
          "internalType": "address",
          "name": "layer2",
          "type": "address"
        }
      ],
      "name": "allowIssuanceLayer2Seigs",
      "outputs": [
        {
          "internalType": "address",
          "name": "systemConfig",
          "type": "address"
        },
        {
          "internalType": "bool",
          "name": "allowed",
          "type": "bool"
        }
      ],
      "stateMutability": "view",
      "type": "function"
    },
    {
      "inputs": [],
      "name": "burntAmountAtDAO",
      "outputs": [
        {
          "internalType": "uint256",
          "name": "",
          "type": "uint256"
        }
      ],
      "stateMutability": "view",
      "type": "function"
    },
    {
      "inputs": [],
      "name": "dao",
      "outputs": [
        {
          "internalType": "address",
          "name": "",
          "type": "address"
        }
      ],
      "stateMutability": "view",
      "type": "function"
    },
    {
      "inputs": [],
      "name": "daoSeigRate",
      "outputs": [
        {
          "internalType": "uint256",
          "name": "",
          "type": "uint256"
        }
      ],
      "stateMutability": "view",
      "type": "function"
    },
    {
      "inputs": [
        {
          "internalType": "address",
          "name": "",
          "type": "address"
        }
      ],
      "name": "delayedCommissionBlock",
      "outputs": [
        {
          "internalType": "uint256",
          "name": "",
          "type": "uint256"
        }
      ],
      "stateMutability": "view",
      "type": "function"
    },
    {
      "inputs": [
        {
          "internalType": "address",
          "name": "",
          "type": "address"
        }
      ],
      "name": "delayedCommissionRate",
      "outputs": [
        {
          "internalType": "uint256",
          "name": "",
          "type": "uint256"
        }
      ],
      "stateMutability": "view",
      "type": "function"
    },
    {
      "inputs": [
        {
          "internalType": "address",
          "name": "",
          "type": "address"
        }
      ],
      "name": "delayedCommissionRateNegative",
      "outputs": [
        {
          "internalType": "bool",
          "name": "",
          "type": "bool"
        }
      ],
      "stateMutability": "view",
      "type": "function"
    },
    {
      "inputs": [
        {
          "internalType": "uint256",
          "name": "blockNumber",
          "type": "uint256"
        },
        {
          "internalType": "address",
          "name": "layer2",
          "type": "address"
        },
        {
          "internalType": "bool",
          "name": "_isSenderOperator",
          "type": "bool"
        }
      ],
      "name": "estimatedDistribute",
      "outputs": [
        {
          "internalType": "uint256",
          "name": "maxSeig",
          "type": "uint256"
        },
        {
          "internalType": "uint256",
          "name": "stakedSeig",
          "type": "uint256"
        },
        {
          "internalType": "uint256",
          "name": "unstakedSeig",
          "type": "uint256"
        },
        {
          "internalType": "uint256",
          "name": "powertonSeig",
          "type": "uint256"
        },
        {
          "internalType": "uint256",
          "name": "daoSeig",
          "type": "uint256"
        },
        {
          "internalType": "uint256",
          "name": "relativeSeig",
          "type": "uint256"
        },
        {
          "internalType": "uint256",
          "name": "l2TotalSeigs",
          "type": "uint256"
        },
        {
          "internalType": "uint256",
          "name": "layer2Seigs",
          "type": "uint256"
        }
      ],
      "stateMutability": "view",
      "type": "function"
    },
    {
      "inputs": [
        {
          "internalType": "address",
          "name": "_layer2",
          "type": "address"
        }
      ],
      "name": "excludeFromSeigniorage",
      "outputs": [
        {
          "internalType": "bool",
          "name": "",
          "type": "bool"
        }
      ],
      "stateMutability": "nonpayable",
      "type": "function"
    },
    {
      "inputs": [],
      "name": "factory",
      "outputs": [
        {
          "internalType": "address",
          "name": "",
          "type": "address"
        }
      ],
      "stateMutability": "view",
      "type": "function"
    },
    {
      "inputs": [
        {
          "internalType": "address",
          "name": "layer2",
          "type": "address"
        }
      ],
      "name": "getOperatorAmount",
      "outputs": [
        {
          "internalType": "uint256",
          "name": "",
          "type": "uint256"
        }
      ],
      "stateMutability": "view",
      "type": "function"
    },
    {
      "inputs": [
        {
          "internalType": "bytes32",
          "name": "role",
          "type": "bytes32"
        }
      ],
      "name": "getRoleAdmin",
      "outputs": [
        {
          "internalType": "bytes32",
          "name": "",
          "type": "bytes32"
        }
      ],
      "stateMutability": "view",
      "type": "function"
    },
    {
      "inputs": [
        {
          "internalType": "bytes32",
          "name": "role",
          "type": "bytes32"
        },
        {
          "internalType": "address",
          "name": "account",
          "type": "address"
        }
      ],
      "name": "grantRole",
      "outputs": [],
      "stateMutability": "nonpayable",
      "type": "function"
    },
    {
      "inputs": [
        {
          "internalType": "bytes32",
          "name": "role",
          "type": "bytes32"
        },
        {
          "internalType": "address",
          "name": "account",
          "type": "address"
        }
      ],
      "name": "hasRole",
      "outputs": [
        {
          "internalType": "bool",
          "name": "",
          "type": "bool"
        }
      ],
      "stateMutability": "view",
      "type": "function"
    },
    {
      "inputs": [],
      "name": "initialTotalSupply",
      "outputs": [
        {
          "internalType": "uint256",
          "name": "",
          "type": "uint256"
        }
      ],
      "stateMutability": "view",
      "type": "function"
    },
    {
      "inputs": [
        {
          "internalType": "address",
          "name": "account",
          "type": "address"
        }
      ],
      "name": "isAdmin",
      "outputs": [
        {
          "internalType": "bool",
          "name": "",
          "type": "bool"
        }
      ],
      "stateMutability": "view",
      "type": "function"
    },
    {
      "inputs": [
        {
          "internalType": "address",
          "name": "account",
          "type": "address"
        }
      ],
      "name": "isChallenger",
      "outputs": [
        {
          "internalType": "bool",
          "name": "",
          "type": "bool"
        }
      ],
      "stateMutability": "view",
      "type": "function"
    },
    {
      "inputs": [
        {
          "internalType": "address",
          "name": "account",
          "type": "address"
        }
      ],
      "name": "isMinter",
      "outputs": [
        {
          "internalType": "bool",
          "name": "",
          "type": "bool"
        }
      ],
      "stateMutability": "view",
      "type": "function"
    },
    {
      "inputs": [
        {
          "internalType": "address",
          "name": "account",
          "type": "address"
        }
      ],
      "name": "isOperator",
      "outputs": [
        {
          "internalType": "bool",
          "name": "",
          "type": "bool"
        }
      ],
      "stateMutability": "view",
      "type": "function"
    },
    {
      "inputs": [],
      "name": "isOwner",
      "outputs": [
        {
          "internalType": "bool",
          "name": "",
          "type": "bool"
        }
      ],
      "stateMutability": "view",
      "type": "function"
    },
    {
      "inputs": [],
      "name": "l2Registry",
      "outputs": [
        {
          "internalType": "address",
          "name": "",
          "type": "address"
        }
      ],
      "stateMutability": "view",
      "type": "function"
    },
    {
      "inputs": [],
      "name": "l2RewardPerUint",
      "outputs": [
        {
          "internalType": "uint256",
          "name": "",
          "type": "uint256"
        }
      ],
      "stateMutability": "view",
      "type": "function"
    },
    {
      "inputs": [],
      "name": "lastSnapshotId",
      "outputs": [
        {
          "internalType": "uint256",
          "name": "",
          "type": "uint256"
        }
      ],
      "stateMutability": "view",
      "type": "function"
    },
    {
      "inputs": [],
      "name": "layer2Manager",
      "outputs": [
        {
          "internalType": "address",
          "name": "",
          "type": "address"
        }
      ],
      "stateMutability": "view",
      "type": "function"
    },
    {
      "inputs": [
        {
          "internalType": "address",
          "name": "",
          "type": "address"
        }
      ],
      "name": "layer2RewardInfo",
      "outputs": [
        {
          "internalType": "uint256",
          "name": "layer2Tvl",
          "type": "uint256"
        },
        {
          "internalType": "uint256",
          "name": "initialDebt",
          "type": "uint256"
        }
      ],
      "stateMutability": "view",
      "type": "function"
    },
    {
      "inputs": [],
      "name": "layer2StartBlock",
      "outputs": [
        {
          "internalType": "uint256",
          "name": "",
          "type": "uint256"
        }
      ],
      "stateMutability": "view",
      "type": "function"
    },
    {
      "inputs": [],
      "name": "minimumAmount",
      "outputs": [
        {
          "internalType": "uint256",
          "name": "",
          "type": "uint256"
        }
      ],
      "stateMutability": "view",
      "type": "function"
    },
    {
      "inputs": [],
      "name": "pauseProxy",
      "outputs": [
        {
          "internalType": "bool",
          "name": "",
          "type": "bool"
        }
      ],
      "stateMutability": "view",
      "type": "function"
    },
    {
      "inputs": [],
      "name": "paused",
      "outputs": [
        {
          "internalType": "bool",
          "name": "",
          "type": "bool"
        }
      ],
      "stateMutability": "view",
      "type": "function"
    },
    {
      "inputs": [],
      "name": "powerTONSeigRate",
      "outputs": [
        {
          "internalType": "uint256",
          "name": "",
          "type": "uint256"
        }
      ],
      "stateMutability": "view",
      "type": "function"
    },
    {
      "inputs": [
        {
          "internalType": "uint256",
          "name": "",
          "type": "uint256"
        }
      ],
      "name": "proxyImplementation",
      "outputs": [
        {
          "internalType": "address",
          "name": "",
          "type": "address"
        }
      ],
      "stateMutability": "view",
      "type": "function"
    },
    {
      "inputs": [],
      "name": "relativeSeigRate",
      "outputs": [
        {
          "internalType": "uint256",
          "name": "",
          "type": "uint256"
        }
      ],
      "stateMutability": "view",
      "type": "function"
    },
    {
      "inputs": [
        {
          "internalType": "address",
          "name": "account",
          "type": "address"
        }
      ],
      "name": "removeAdmin",
      "outputs": [],
      "stateMutability": "nonpayable",
      "type": "function"
    },
    {
      "inputs": [
        {
          "internalType": "address",
          "name": "account",
          "type": "address"
        }
      ],
      "name": "removeChallenger",
      "outputs": [],
      "stateMutability": "nonpayable",
      "type": "function"
    },
    {
      "inputs": [
        {
          "internalType": "address",
          "name": "account",
          "type": "address"
        }
      ],
      "name": "removeMinter",
      "outputs": [],
      "stateMutability": "nonpayable",
      "type": "function"
    },
    {
      "inputs": [
        {
          "internalType": "address",
          "name": "account",
          "type": "address"
        }
      ],
      "name": "removeOperator",
      "outputs": [],
      "stateMutability": "nonpayable",
      "type": "function"
    },
    {
      "inputs": [],
      "name": "renounceChallenger",
      "outputs": [],
      "stateMutability": "nonpayable",
      "type": "function"
    },
    {
      "inputs": [],
      "name": "renounceMinter",
      "outputs": [],
      "stateMutability": "nonpayable",
      "type": "function"
    },
    {
      "inputs": [],
      "name": "renounceOperator",
      "outputs": [],
      "stateMutability": "nonpayable",
      "type": "function"
    },
    {
      "inputs": [],
      "name": "renounceOwnership",
      "outputs": [],
      "stateMutability": "nonpayable",
      "type": "function"
    },
    {
      "inputs": [
        {
          "internalType": "bytes32",
          "name": "role",
          "type": "bytes32"
        },
        {
          "internalType": "address",
          "name": "account",
          "type": "address"
        }
      ],
      "name": "renounceRole",
      "outputs": [],
      "stateMutability": "nonpayable",
      "type": "function"
    },
    {
      "inputs": [
        {
          "internalType": "address",
          "name": "account",
          "type": "address"
        }
      ],
      "name": "revokeChallenger",
      "outputs": [],
      "stateMutability": "nonpayable",
      "type": "function"
    },
    {
      "inputs": [
        {
          "internalType": "address",
          "name": "account",
          "type": "address"
        }
      ],
      "name": "revokeMinter",
      "outputs": [],
      "stateMutability": "nonpayable",
      "type": "function"
    },
    {
      "inputs": [
        {
          "internalType": "address",
          "name": "account",
          "type": "address"
        }
      ],
      "name": "revokeOperator",
      "outputs": [],
      "stateMutability": "nonpayable",
      "type": "function"
    },
    {
      "inputs": [
        {
          "internalType": "bytes32",
          "name": "role",
          "type": "bytes32"
        },
        {
          "internalType": "address",
          "name": "account",
          "type": "address"
        }
      ],
      "name": "revokeRole",
      "outputs": [],
      "stateMutability": "nonpayable",
      "type": "function"
    },
    {
      "inputs": [],
      "name": "seigStartBlock",
      "outputs": [
        {
          "internalType": "uint256",
          "name": "",
          "type": "uint256"
        }
      ],
      "stateMutability": "view",
      "type": "function"
    },
    {
      "inputs": [
        {
          "internalType": "bytes4",
          "name": "",
          "type": "bytes4"
        }
      ],
      "name": "selectorImplementation",
      "outputs": [
        {
          "internalType": "address",
          "name": "",
          "type": "address"
        }
      ],
      "stateMutability": "view",
      "type": "function"
    },
    {
      "inputs": [
        {
          "internalType": "address",
          "name": "l2Registry_",
          "type": "address"
        }
      ],
      "name": "setL2Registry",
      "outputs": [],
      "stateMutability": "nonpayable",
      "type": "function"
    },
    {
      "inputs": [
        {
          "internalType": "address",
          "name": "layer2Manager_",
          "type": "address"
        }
      ],
      "name": "setLayer2Manager",
      "outputs": [],
      "stateMutability": "nonpayable",
      "type": "function"
    },
    {
      "inputs": [
        {
          "internalType": "uint256",
          "name": "startBlock_",
          "type": "uint256"
        }
      ],
      "name": "setLayer2StartBlock",
      "outputs": [],
      "stateMutability": "nonpayable",
      "type": "function"
    },
    {
      "inputs": [
        {
          "internalType": "bytes4",
          "name": "interfaceId",
          "type": "bytes4"
        }
      ],
      "name": "supportsInterface",
      "outputs": [
        {
          "internalType": "bool",
          "name": "",
          "type": "bool"
        }
      ],
      "stateMutability": "view",
      "type": "function"
    },
    {
      "inputs": [],
      "name": "totalLayer2TVL",
      "outputs": [
        {
          "internalType": "uint256",
          "name": "",
          "type": "uint256"
        }
      ],
      "stateMutability": "view",
      "type": "function"
    },
    {
      "inputs": [],
      "name": "totalSupplyOfTon",
      "outputs": [
        {
          "internalType": "uint256",
          "name": "tos",
          "type": "uint256"
        }
      ],
      "stateMutability": "view",
      "type": "function"
    },
    {
      "inputs": [
        {
          "internalType": "address",
          "name": "newAdmin",
          "type": "address"
        }
      ],
      "name": "transferAdmin",
      "outputs": [],
      "stateMutability": "nonpayable",
      "type": "function"
    },
    {
      "inputs": [
        {
          "internalType": "address",
          "name": "newAdmin",
          "type": "address"
        }
      ],
      "name": "transferOwnership",
      "outputs": [],
      "stateMutability": "nonpayable",
      "type": "function"
    },
    {
      "inputs": [
        {
          "internalType": "address",
          "name": "layer2",
          "type": "address"
        }
      ],
      "name": "unSettledReward",
      "outputs": [
        {
          "internalType": "uint256",
          "name": "amount",
          "type": "uint256"
        }
      ],
      "stateMutability": "view",
      "type": "function"
    },
    {
      "inputs": [],
      "name": "updateSeigniorage",
      "outputs": [
        {
          "internalType": "bool",
          "name": "",
          "type": "bool"
        }
      ],
      "stateMutability": "nonpayable",
      "type": "function"
    },
    {
      "inputs": [
        {
          "internalType": "address",
          "name": "layer2",
          "type": "address"
        }
      ],
      "name": "updateSeigniorageLayer",
      "outputs": [
        {
          "internalType": "bool",
          "name": "",
          "type": "bool"
        }
      ],
      "stateMutability": "nonpayable",
      "type": "function"
    },
    {
      "inputs": [],
      "name": "updateSeigniorageOperator",
      "outputs": [
        {
          "internalType": "bool",
          "name": "",
          "type": "bool"
        }
      ],
      "stateMutability": "nonpayable",
      "type": "function"
    }
  ],
  "bytecode": "0x6080806040523461001657614542908161001c8239f35b600080fdfe60c060408181526004918236101561001657600080fd5b600092833560e01c91826301ffc9a7146117b1575081630ceb6780146116f457816316b5d5bd146116cb5781631785f53c1461169d5781631e1f0b60146115d55781631fbeab54146115985781632428c6281461157b578163248a9ca31461155057816324d7806c1461150a57816325374a9a146114eb57816325e90db4146114d15781632ab6f8db146114b75781632f17250a146114915781632f2ff15d146113f65781633092afd5146113c8578163311028af146113a957816336568abe14611317578163389ed267146112dc5781633c4911731461128c5781634123196f1461110b5781634162169f1461126357816344feabf8146112205781634631179e146111f757816350d2a276146111b357816351e1e1e614611177578163530adbb41461114e578163550d01a314611110578163552033c41461110b5781635998a8d7146110ec5781635c975abb146110c85781635f6fb8b9146110865781636304a6241461106757816363a8fd89146110455781636c578c1d146110175781636d70f7ae14610fc35781636e71186b14610fa45781637048027514610f01578163715018a614610edb57816375829def14610ebe578163764a785614610e78578163837afbc014610e5a5781638f32d59b14610e2757816391d1485414610de05781639473cafe14610c05578163983b2d5614610bb55781639865027514610b9b5781639870d7fe14610ae85781639b370dea14610abb578163a217fddf14610aa0578163a415d8dc14610a4c578163a7dcc85014610a26578163aa271e1a146109d2578163ac28e2ed14610997578163ac753a7a14610959578163ac8a584a1461092b578163acd848fa14610901578163b911135f146108ce578163baa1253614610870578163bb0c829814610851578163bf7f473314610832578163c2e5dcc914610809578163c45a0155146107e0578163ca60808914610787578163cbfebe621461074f578163cfbd4885146106ff578163d0d2ff70146106e0578163d5391393146106b7578163d547741f1461067b578163d8c479661461065d578163df7fbef01461063e578163e2fe8fd114610606578163f2fde38b146104c257508063f5b541a61461049a578063f82293481461047c578063f96032e61461045e578063f9bae41a146104405763fad8b32a1461037457600080fd5b3461043c57602090816003193601126104385761038f611835565b906103a161039c336118c3565b611fbf565b6000805160206144d683398151915292838552600581526103c760018387200154611900565b838552600581528185206001600160a01b039093168086529281528185205460ff166103f1578480f35b8385526005815281852083865290528320805460ff1916905533917ff6391f5c32d9c69d2a47ea670b442974b53935d1edc7fd64eb21e047a839171b8480a4388080808480f35b8280fd5b5080fd5b503461043c578160031936011261043c576020906027549051908152f35b503461043c578160031936011261043c576020906021549051908152f35b503461043c578160031936011261043c57602090601e549051908152f35b503461043c578160031936011261043c57602090516000805160206144d68339815191528152f35b9190503461043857602080600319360112610602576104df611835565b6104eb61039c336118c3565b6104f761039c336118c3565b6001600160a01b03169283156105c15783331461058757508380526005815261052560018386200154611900565b83805260058152818420838552815260ff82852054161561054e575b8361054b33611ce6565b80f35b8380526005815281842083855290528220805460ff191660011790553390826000805160206144968339815191528180a4388080610541565b915162461bcd60e51b815291820152601660248201527520b1b1b2b9b9b4b136329d1039b0b6b29030b236b4b760511b6044820152606490fd5b915162461bcd60e51b815291820152601860248201527f41636365737369626c653a207a65726f206164647265737300000000000000006044820152606490fd5b8380fd5b50503461043c57602036600319011261043c5760209181906001600160a01b0361062e611835565b1681526018845220549051908152f35b50503461043c578160031936011261043c576020906016549051908152f35b50503461043c578160031936011261043c576020905162a55ec28152f35b9190503461043857806003193601126104385761054b91356106b260016106a0611850565b93838752600560205286200154611900565b611f31565b50503461043c578160031936011261043c57602090516000805160206144b68339815191528152f35b50503461043c578160031936011261043c576020906026549051908152f35b50503461043c57602090816003193601126104385761071c611835565b9061072961039c336118c3565b6000805160206144b683398151915292838552600581526103c760018387200154611900565b50503461043c57602036600319011261043c5760209181906001600160a01b03610777611835565b1681526017845220549051908152f35b8391503461043c57606036600319011261043c576107a3611850565b906044359283151584036107dd5750916107c1916107d99335613d7f565b9460a09796979491949392935198519889988961188c565b0390f35b80fd5b50503461043c578160031936011261043c57600c5490516001600160a01b039091168152602090f35b50503461043c578160031936011261043c5760245490516001600160a01b039091168152602090f35b50503461043c578160031936011261043c576020906023549051908152f35b50503461043c578160031936011261043c57602090601a549051908152f35b50503461043c57602036600319011261043c576108ab60ff610890611835565b92848052600560205280852033865260205284205416611fbf565b60018060a01b03166bffffffffffffffffffffffff60a01b602554161760255580f35b9050346104385760203660031901126104385735825260016020908152918190205490516001600160a01b039091168152f35b50503461043c578160031936011261043c57602090516e09a130b963a6c115c3c7f4000000008152f35b83346107dd5760203660031901126107dd5761054b610948611835565b61095461039c336118c3565b611e77565b50503461043c57602036600319011261043c5760209160ff9082906001600160a01b03610984611835565b1681526019855220541690519015158152f35b919050346104385760203660031901126104385760ff6109cb91848052600560205280852033865260205284205416611fbf565b3560265580f35b50503461043c57602036600319011261043c5760ff816020936109f3611835565b6000805160206144b68339815191528252600586528282206001600160a01b039091168252855220549151911615158152f35b50503461043c578160031936011261043c57602090516a084595161401484a0000008152f35b50503461043c57602036600319011261043c5760ff81602093610a6d611835565b6000805160206145168339815191528252600586528282206001600160a01b039091168252855220549151911615158152f35b50503461043c578160031936011261043c5751908152602090f35b50503461043c57602036600319011261043c57602090610ae1610adc611835565b613d1a565b9051908152f35b50503461043c576020908160031936011261043857610b05611835565b90610b1261039c336118c3565b6000805160206144d68339815191529283855260058152610b3860018387200154611900565b838552600581528185206001600160a01b039093168086529281528185205460ff1615610b63578480f35b8385526005815281852083865290528320805460ff1916600117905533916000805160206144968339815191528480a4388080808480f35b83346107dd57806003193601126107dd5761054b33611ed4565b50503461043c576020908160031936011261043857610bd2611835565b90610bdf61039c336118c3565b6000805160206144b68339815191529283855260058152610b3860018387200154611900565b8284346107dd576020928360031936011261043c57610c22611835565b6025549092906001600160a01b039081163303610da9578451906060820182811067ffffffffffffffff821117610d96579183929183928852602182527f6578636c75646546726f6d536569676e696f72616765205f6c6179657232202589830152607360f81b88830152610ccc88518092610cb58c83019563319af33360e01b87528c60248501526064840190611cc1565b99169889604483015203601f198101835282611c9f565b51906a636f6e736f6c652e6c6f675afa50828152602985528381209160285490835490818310610d6157509160609391837f911a0522d11ad8abe1817d2c0cba159e8c66d574f00fe392963de5ee5721ffe39694610d45575b505050600181549101549085519283528683015284820152a15160018152f35b610d4e91612017565b6028558082556001820155868080610d25565b865162461bcd60e51b8152908101889052600f60248201526e18da1958dac81b185e595c8c951d9b608a1b6044820152606490fd5b634e487b7160e01b845260418552602484fd5b845162461bcd60e51b815280840187905260116024820152703737ba103630bcb2b91926b0b730b3b2b960791b6044820152606490fd5b9050346104385781600319360112610438578160209360ff92610e01611850565b90358252600586528282206001600160a01b039091168252855220549151911615158152f35b50503461043c578160031936011261043c5760ff8183806020955260058552818120338252855220541690519015158152f35b50503461043c578160031936011261043c5760209081549051908152f35b50503461043c578160031936011261043c57338252600e60209081529181902054610ead906001600160a01b03161515612024565b610eb5612636565b90519015158152f35b9190503461043857602080600319360112610602576104eb611835565b83346107dd57806003193601126107dd57610ef861039c336118c3565b61054b33611ce6565b50503461043c576020908160031936011261043857610f1e611835565b91610f2b61039c336118c3565b83805260058152610f4160018386200154611900565b838052600581528184206001600160a01b039093168085529281528184205460ff1615610f6c578380f35b8380526005815281842083855290528220805460ff191660011790553390826000805160206144968339815191528180a43880808380f35b50503461043c578160031936011261043c576020906028549051908152f35b50503461043c57602036600319011261043c5760ff81602093610fe4611835565b6000805160206144d68339815191528252600586528282206001600160a01b039091168252855220549151911615158152f35b83346107dd5760203660031901126107dd5761054b611034611835565b61104061039c336118c3565b611dd5565b50503461043c578160031936011261043c5760ff602092541690519015158152f35b50503461043c578160031936011261043c57602090601b549051908152f35b50503461043c57602036600319011261043c579081906001600160a01b036110ac611835565b1681526029602052206001815491015482519182526020820152f35b50503461043c578160031936011261043c5760209060ff601f541690519015158152f35b50503461043c578160031936011261043c57602090601c549051908152f35b611866565b50503461043c57602036600319011261043c5760209160ff9082906001600160a01b0361113b611835565b1681526002855220541690519015158152f35b50503461043c578160031936011261043c57602090516000805160206145168339815191528152f35b8284346107dd5760203660031901126107dd575061119b611196611835565b612aa6565b82516001600160a01b03909216825215156020820152f35b905034610438576020366003190112610438573563ffffffff60e01b811680910361043857825260036020908152918190205490516001600160a01b039091168152f35b50503461043c578160031936011261043c57602090516d08c815d5bcc20177de3b5d2500008152f35b50503461043c57602036600319011261043c5761124060ff610890611835565b60018060a01b03166bffffffffffffffffffffffff60a01b602454161760245580f35b50503461043c578160031936011261043c5760095490516001600160a01b039091168152602090f35b50503461043c5760209081600319360112610438576112a9611835565b906112b661039c336118c3565b60008051602061451683398151915292838552600581526103c760018387200154611900565b50503461043c578160031936011261043c57602090517ffcb9fcbfa83b897fb2d5cf4b58962164105c1e71489a37ef3ae0db3fdce576f68152f35b8391503461043c578260031936011261043c57611332611850565b90336001600160a01b0383160361134e579061054b9135611f31565b608490602085519162461bcd60e51b8352820152602f60248201527f416363657373436f6e74726f6c3a2063616e206f6e6c792072656e6f756e636560448201526e103937b632b9903337b91039b2b63360891b6064820152fd5b50503461043c578160031936011261043c576020906022549051908152f35b83346107dd5760203660031901126107dd5761054b6113e5611835565b6113f161039c336118c3565b611ed4565b9050346104385781600319360112610438573590611412611850565b90828452600560205261142a60018286200154611900565b828452600560209081528185206001600160a01b039093168086529290528084205460ff1615611458578380f35b82845260056020528084208285526020528320600160ff1982541617905533916000805160206144968339815191528480a43880808380f35b50503461043c57602036600319011261043c57602090610ae16114b2611835565b612682565b83346107dd57806003193601126107dd5761054b33611e77565b83346107dd57806003193601126107dd5761054b33611dd5565b50503461043c578160031936011261043c57602090601d549051908152f35b50503461043c57602036600319011261043c5760ff8160209361152b611835565b818052600586528282206001600160a01b039091168252855220549151911615158152f35b9050346104385760203660031901126104385781602093600192358152600585522001549051908152f35b50503461043c578160031936011261043c57602090610ae1614392565b50503461043c578160031936011261043c57338252600e602090815291819020546115cd906001600160a01b03161515612024565b610eb56120be565b90503461043857602092836003193601126107dd5780846001600160a01b036115fc611835565b1684865180948193633b253c2b60e11b83525af19182156116925791611665575b501561162b57505160018152f35b82606492519162461bcd60e51b835282015260166024820152756661696c20757064617465536569676e696f7261676560501b6044820152fd5b6116859150843d861161168b575b61167d8183611c9f565b8101906120a6565b3861161d565b503d611673565b8451903d90823e3d90fd5b83346107dd5760203660031901126107dd5761054b6116ba611835565b6116c661039c336118c3565b611ce6565b50503461043c578160031936011261043c5760255490516001600160a01b039091168152602090f35b905034610438576020918260031936011261060257611711611835565b9161171b336118c3565b8015611787575b1561174e57506000805160206145168339815191529283855260058152610b3860018387200154611900565b83606492519162461bcd60e51b835282015260156024820152743737ba1037b7363ca6b4b73a32b927b920b236b4b760591b6044820152fd5b506000805160206144b6833981519152855260058452818520338652845260ff8286205416611722565b849184346106025760203660031901126106025781359063ffffffff60e01b821680920361183157602094637965db0b60e01b83149384156117f8575b5050505015158152f35b6301ffc9a760e01b841494509192909190841561181d575b50505050838080806117ee565b60ff94508252855220541683808080611810565b8480fd5b600435906001600160a01b038216820361184b57565b600080fd5b602435906001600160a01b038216820361184b57565b3461184b57600036600319011261184b576020604051676765c793fa10079d601b1b8152f35b94919260e0969399989794919961010087019a8752602087015260408601526060850152608084015260a083015260c08201520152565b6001600160a01b031660009081527f05b8ccbb9d4d8fb16ea74ce3c29a41f1b461fbdaff4714a0d9a8eb05499746bc602052604090205460ff1690565b60009080825260209060058252604092838120338252835260ff84822054161561192a5750505050565b83519167ffffffffffffffff90336060850183811186821017611c22578752602a85528585019187368437855115611c0e5760308353855191600192831015611bfa576078602188015360295b838111611b905750611b4e5790875193608085019085821090821117611b3a57885260428452868401946060368737845115611b2657603086538451821015611b265790607860218601536041915b818311611ab857505050611a7657611a72938693611a5693611a47604894611a1e9a519a8b957f416363657373436f6e74726f6c3a206163636f756e74200000000000000000008c8801525180926037880190611c36565b8401917001034b99036b4b9b9b4b733903937b6329607d1b603784015251809386840190611c36565b01036028810187520185611c9f565b5192839262461bcd60e51b845260048401526024830190611cc1565b0390fd5b60648587519062461bcd60e51b825280600483015260248201527f537472696e67733a20686578206c656e67746820696e73756666696369656e746044820152fd5b909192600f81166010811015611b12576f181899199a1a9b1b9c1cb0b131b232b360811b901a611ae88588611f98565b5360041c928015611afe576000190191906119c6565b634e487b7160e01b82526011600452602482fd5b634e487b7160e01b83526032600452602483fd5b634e487b7160e01b81526032600452602490fd5b634e487b7160e01b86526041600452602486fd5b60648789519062461bcd60e51b825280600483015260248201527f537472696e67733a20686578206c656e67746820696e73756666696369656e746044820152fd5b90600f81166010811015611be6576f181899199a1a9b1b9c1cb0b131b232b360811b901a611bbe838a611f98565b5360041c908015611bd25760001901611977565b634e487b7160e01b87526011600452602487fd5b634e487b7160e01b88526032600452602488fd5b634e487b7160e01b86526032600452602486fd5b634e487b7160e01b85526032600452602485fd5b634e487b7160e01b85526041600452602485fd5b60005b838110611c495750506000910152565b8181015183820152602001611c39565b67ffffffffffffffff8111611c6d57604052565b634e487b7160e01b600052604160045260246000fd5b6040810190811067ffffffffffffffff821117611c6d57604052565b90601f8019910116810190811067ffffffffffffffff821117611c6d57604052565b90602091611cda81518092818552858086019101611c36565b601f01601f1916010190565b6001600160a01b0316338103611d785760008181527f05b8ccbb9d4d8fb16ea74ce3c29a41f1b461fbdaff4714a0d9a8eb05499746bc602052604081205490919060ff16611d32575050565b8180526005602052604082208183526020526040822060ff19815416905533917ff6391f5c32d9c69d2a47ea670b442974b53935d1edc7fd64eb21e047a839171b8180a4565b60405162461bcd60e51b815260206004820152602f60248201527f416363657373436f6e74726f6c3a2063616e206f6e6c792072656e6f756e636560448201526e103937b632b9903337b91039b2b63360891b6064820152608490fd5b6001600160a01b0316338103611d785760008181527fedec71783a10810e436f3392a073a61717130e573433fcc6591c3061a012f76760205260408120549091906000805160206145168339815191529060ff16611e3257505050565b8083526005602052604083208284526020526040832060ff1981541690557ff6391f5c32d9c69d2a47ea670b442974b53935d1edc7fd64eb21e047a839171b339380a4565b6001600160a01b0316338103611d785760008181527f02634a7c777b8129955fe1824eee49ef19dfa96f2f4cb63212492c3d84eb58e660205260408120549091906000805160206144d68339815191529060ff16611e3257505050565b6001600160a01b0316338103611d785760008181527fca0a2f641ec05ca23127d994cf03ffc453db616acae0b86cb56bb95304d0685460205260408120549091906000805160206144b68339815191529060ff16611e3257505050565b906000918083526005602052604083209160018060a01b03169182845260205260ff604084205416611e3257505050565b81810292918115918404141715611f7557565b634e487b7160e01b600052601160045260246000fd5b91908201809211611f7557565b908151811015611fa9570160200190565b634e487b7160e01b600052603260045260246000fd5b15611fc657565b60405162461bcd60e51b815260206004820152602360248201527f41757468436f6e74726f6c3a2043616c6c6572206973206e6f7420616e20616460448201526236b4b760e91b6064820152608490fd5b91908203918211611f7557565b1561202b57565b60405162461bcd60e51b815260206004820152602e60248201527f536569674d616e616765723a20636f696e61676520686173206e6f742062656560448201526d1b8819195c1b1bde5959081e595d60921b6064820152608490fd5b9081602091031261184b57516001600160a01b038116810361184b5790565b9081602091031261184b5751801515810361184b5790565b601f5460ff60009116612630576011544311156125eb576120de33612682565b601a54116125a657338152600e60209081526040808320546001600160a01b03929083169161210b612bee565b1561256e57338552600f825280852043905580516318160ddd60e01b81529360049280868581885afa958615612564578796612531575b5060248183600d54168551928380926370a0823160e01b8252338a8301525afa908115612325578891612500575b50808710156124cf578661218391612017565b9183519463570ca73560e01b865282868281335afa9586156124c5578996612496575b503389526015835260ff858a205416966121c48789878c8533612751565b9790988751630a9ee07f60e31b815286818681875afa908115612450578c8e928d8a93859261245a575b5061221161220c6122179493676765c793fa10079d601b1b936129ed565b612991565b04612a60565b60248b518094819363817e9d3160e01b83528a830152885af1801561245057889492889694928c92612433575b508161232f575b5050600b546007548a516340c10f1960e01b81529088166001600160a01b031694810194855260208501959095529395869416928492508d915082906040015b03925af18015612325579160a0979593917f9f0aff7defc0f0b331d66bccf1955a699b40155565289317e38b9799ddf0944899979593612308575b508251967f521cc65179761533a7c8d7a973291dd7baebb99a67edf5ef78e9c2b61a533d95339180a233875286015284015260608301526080820152a1600190565b61231e90823d841161168b5761167d8183611c9f565b50386122c6565b84513d8a823e3d90fd5b93959294509092156123c3575050813b156123bf57865163079cc67960e41b81526001600160a01b039091168382019081526020810189905290918b9183919082908490829060400103925af180156123b55761239a575b508361228b9284925b909338898161224b565b61228b9284929a6123ab8793611c59565b9a92509250612387565b86513d8c823e3d90fd5b8a80fd5b88516340c10f1960e01b81526001600160a01b0390931685840190815260208101919091529192909183919082908e90829060400103925af180156123b557928492869261228b95612416575b50612390565b61242c90853d871161168b5761167d8183611c9f565b5038612410565b61244990883d8a1161168b5761167d8183611c9f565b5038612244565b89513d8f823e3d90fd5b945050505081813d831161248f575b6124738183611c9f565b8101031261248b57518c9087908d908d6122116121ee565b8c80fd5b503d612469565b6124b7919650833d85116124be575b6124af8183611c9f565b810190612087565b94386121a6565b503d6124a5565b85513d8b823e3d90fd5b505050505050507f521cc65179761533a7c8d7a973291dd7baebb99a67edf5ef78e9c2b61a533d95339180a2600190565b90508181813d831161252a575b6125178183611c9f565b81010312612526575138612170565b8780fd5b503d61250d565b9080965081813d831161255d575b6125498183611c9f565b8101031261255957519438612142565b8680fd5b503d61253f565b83513d89823e3d90fd5b60649250519062461bcd60e51b8252600482015260126024820152715f696e637265617365546f742066616c736560701b6044820152fd5b60405162461bcd60e51b815260206004820152601d60248201527f6d696e696d756d416d6f756e7420697320696e73756666696369656e740000006044820152606490fd5b60405162461bcd60e51b815260206004820152601b60248201527f6c617374207365696720626c6f636b206973206e6f74207061737400000000006044820152606490fd5b50600190565b600060ff601f5416612630576011544311156125eb5761265533612682565b601a54116125a657338152600e60209081526040808320546001600160a01b03929083169161210b6134b3565b60405163570ca73560e01b81526001600160a01b03918216916020908183600481875afa92831561272657600093612732575b50819293600052600e8252602481604060002054169460405195869384926370a0823160e01b84521660048301525afa908115612726576000916126fa575b50905090565b82813d831161271f575b61270e8183611c9f565b810103126107dd57505180386126f4565b503d612704565b6040513d6000823e3d90fd5b82935061274b90833d85116124be576124af8183611c9f565b926126b5565b95939491959290926000809460018060a01b03809316865260206017815260409384882054804310159081612967575b50612928575b33885260148252848820549661279d878d611f8b565b9a881561291857156128e8578b156128d95785516370a0823160e01b8152908216600482015292829184916024918391165afa9384156128d0575086936128a0575b50508115612897575061220c6127fb61220c9861281d93612a60565b938493612817676765c793fa10079d601b1b9a8b9687936129ed565b046129ed565b0485821495866000146128635761284294959682945b50156128465750905093611f8b565b9190565b61285661220c61285d94866129ed565b0490611f8b565b93611f8b565b828103968188116128835761287d61284296979884612a60565b94612833565b634e487b7160e01b85526011600452602485fd5b95965050505050565b9080929350813d83116128c9575b6128b88183611c9f565b8101031261183157519038806127df565b503d6128ae565b513d88823e3d90fd5b50505050965050505050909190565b50505050505061284293949550676765c793fa10079d601b1b92506129109161220c916129ed565b048093612017565b5050505050505050509250909190565b601882528488205460148352858920556019825260ff8589205416601583528589209060ff801983541691151516179055601782528785812055612787565b9050151538612781565b811561297b570490565b634e487b7160e01b600052601260045260246000fd5b906b019d971e4fe8401e74000000820191828111611f755782106129b157565b60405162461bcd60e51b815260206004820152601460248201527364732d6d6174682d6164642d6f766572666c6f7760601b6044820152606490fd5b600092918015918215612a40575b505015612a0457565b60405162461bcd60e51b815260206004820152601460248201527364732d6d6174682d6d756c2d6f766572666c6f7760601b6044820152606490fd5b91509250612a58612a518483611f62565b9384612971565b1438806129fb565b90676765c793fa10079d601b1b9182810292818404811482151715611f7557830403612a0457612a938160011c83611f8b565b9182106129b157612aa391612971565b90565b9060008060018060a01b0380602554166040918083519763570ca73560e01b8952886004816020958694165afa978815612bc5578698612bcf575b50835163050f7f4960e51b815297811660048901528188602481865afa978815612bc5578698612ba6575b50871680612b1c57505050505090565b819060248596989795518095819363153e6d7f60e01b835260048301525afa938415612b9d57508293612b5f575b50505060ff16600114612b5957565b60019150565b9080929350813d8311612b96575b612b778183611c9f565b8101031261043c57519060ff821682036107dd575060ff600138612b4a565b503d612b6d565b513d84823e3d90fd5b612bbe919850823d84116124be576124af8183611c9f565b9638612b0c565b84513d88823e3d90fd5b612be7919850823d84116124be576124af8183611c9f565b9638612ae1565b6011544311156134ae57600d546040516318160ddd60e01b81526001600160a01b0390911690602081600481855afa9081156127265760009161347c575b5015613472576040516318160ddd60e01b815290602082600481845afa9182156127265760009261343e575b50612c6d612c64613cdd565b60105490611f62565b91612c76614392565b916040516318160ddd60e01b8152602081600481855afa80156127265784916000916133fe575b5090676765c793fa10079d601b1b61221161220c612cbb94896129ed565b906000809481829333845260296020526040842096600160405198612cdf8a611c83565b80548a5201546020890152602654156133e6575b60255487908b906001600160a01b03161515806133d9575b806133ce575b6132b7575b61220c612d3b88612d36676765c793fa10079d601b1b95612d4495612017565b612017565b601d54906129ed565b0493612d5985612d548a85611f8b565b611f8b565b9243601155604051630a9ee07f60e31b8152602081600481855afa90811561272657600091613284575b508392916024612dab8796676765c793fa10079d601b1b61221161220c60209760009c6129ed565b604051978893849263817e9d3160e01b845260048401525af193841561272657600494613265575b50600d546040516318160ddd60e01b81529460209186919082906001600160a01b03165afa93841561272657600094613230575b50917f41a79a497d1457df24c25ab99f22349ae9aef4468429f0a781216e8dcf80c6289391608093604051938452602084015260408301526060820152a1612e5383612d36878b612017565b9560009081928294866131bb575b6008546001600160a01b03168a81613121575b50506009546001600160a01b03168a81613087575b5050601d54613070575b50600096612ecd575b50506000805160206144f6833981519152975090612ec594939291604051978897339b8961188c565b0390a2600190565b85613022575b33875260296020526040872090602754612f29575b50612ec5969594939291612f138b6000805160206144f68339815191529c612f1b9455602854611f8b565b905190612017565b602855909192939438612e9c565b9650612f3433613d1a565b9687612f8a575b50612ec5969594939291612f138b80612f1b94670de0b6b3a76400006000805160206144f68339815191529f612f7390602754611f62565b0460018201559450509b5050919293949596612ee8565b60255490979695949392906001600160a01b0316803b1561184b5760405163c5f16b8960e01b81526001600160a01b039990991660048a0152602489018890526000908990604490829084905af1978815612726578b6000805160206144f68339815191529c612f1b94612f1393612ec59c613013575b509450509b5050919293949596612f3b565b61301c90611c59565b38613001565b670de0b6b3a7640000868181020481148715171561305c5761304c61305491602854908902612971565b602754611f8b565b602755612ed3565b634e487b7160e01b88526011600452602488fd5b945061307e85601e54611f8b565b601e5538612e93565b6130ed919650676765c793fa10079d601b1b6130ab61220c602093601c54906129ed565b600b546040516340c10f1960e01b81526001600160a01b039a8b1660048201529290910460248301819052989193849290911690829060009082906044820190565b03925af1801561272657613102575b8a612e89565b61311a9060203d60201161168b5761167d8183611c9f565b50386130fc565b613187919550676765c793fa10079d601b1b61314561220c602093601b54906129ed565b600b546040516340c10f1960e01b81526001600160a01b03998a1660048201529290910460248301819052979193849290911690829060009082906044820190565b03925af180156127265761319c575b8a612e74565b6131b49060203d60201161168b5761167d8183611c9f565b5038613196565b600b546025546040516340c10f1960e01b81526001600160a01b039182166004820152602481018a905291602091839160449183918a91165af1801561322557613206575b50612e61565b61321e9060203d60201161168b5761167d8183611c9f565b5038613200565b6040513d87823e3d90fd5b90936020823d60201161325d575b8161324b60209383611c9f565b810103126107dd575051926080612e07565b3d915061323e565b61327d9060203d60201161168b5761167d8183611c9f565b5038612dd3565b906020823d6020116132af575b8161329e60209383611c9f565b810103126107dd5750516000612d83565b3d9150613291565b5050945090506132c633612aa6565b949091908286613357575b50868a60285480159081156132e8575b5050612d16565b925092939495969050633b9aca00928284810204841417156133435750612d4461220c612d3b8d612d366133388b676765c793fa10079d601b1b8f9d9c9b9a9961220c61221191839b02876129ed565b9a95505092506132e1565b634e487b7160e01b81526011600452602490fd5b6024805460405163c81ae6db60e01b81526001600160a01b039384166004820152939b506020928492918391165afa90811561322557859161339c575b5097386132d1565b90506020813d6020116133c6575b816133b760209383611c9f565b81010312611831575138613394565b3d91506133aa565b504360265410612d11565b5060016026541415612d0b565b43600019810111612883574360001901602655612cf3565b91506020823d602011613436575b8161341960209383611c9f565b810103126107dd5750518390676765c793fa10079d601b1b612c9d565b3d915061340c565b90916020823d60201161346a575b8161345960209383611c9f565b810103126107dd5750519038612c58565b3d915061344c565b5043601155600090565b906020823d6020116134a6575b8161349660209383611c9f565b810103126107dd57505138612c2c565b3d9150613489565b600090565b6011544311156134ae57600d546040516318160ddd60e01b81526001600160a01b0390911690602081600481855afa90811561272657600091613cab575b5015613472576040516318160ddd60e01b815290602082600481845afa91821561272657600092613c77575b50613529612c64613cdd565b91613532614392565b916040516318160ddd60e01b8152602081600481855afa8015612726578491600091613c37575b5090676765c793fa10079d601b1b61221161220c61357794896129ed565b90600080948182933384526029602052604084209660016040519861359b8a611c83565b80548a520154602089015260265415613c1f575b60255487908b906001600160a01b0316151580613c12575b80613c07575b613b04575b61220c612d3b88612d36676765c793fa10079d601b1b956135f295612017565b049361360285612d548a85611f8b565b9243601155604051630a9ee07f60e31b8152602081600481855afa90811561272657600091613ad1575b5083929160246136548796676765c793fa10079d601b1b61221161220c60209760009c6129ed565b604051978893849263817e9d3160e01b845260048401525af193841561272657600494613ab2575b50600d546040516318160ddd60e01b81529460209186919082906001600160a01b03165afa93841561272657600094613a7d575b50917f41a79a497d1457df24c25ab99f22349ae9aef4468429f0a781216e8dcf80c6289391608093604051938452602084015260408301526060820152a16136fc83612d36878b612017565b956000908192829486613a13575b6008546001600160a01b03168a816139bb575b50506009546001600160a01b03168a81613963575b5050601d5461394c575b5060009661376d5750506000805160206144f6833981519152975090612ec594939291604051978897339b8961188c565b8561391b575b33875260296020526040872090602754806137b5575b5050612ec5969594939291612f138b6000805160206144f68339815191529c612f1b9455602854611f8b565b8b8499929951116000146138be5750506137ce33613d1a565b9687613826575b50612ec5969594939291612f138b80612f1b94670de0b6b3a76400006000805160206144f68339815191529f61380d90602754611f62565b0460018201555b9450509b508193949596979850613789565b60255490979695949392906001600160a01b0316803b1561184b5760405163c5f16b8960e01b81526001600160a01b039990991660048a0152602489018890526000908990604490829084905af1978815612726578b6000805160206144f68339815191529c612f1b94612f1393612ec59c6138af575b509450509b50509192939495966137d5565b6138b890611c59565b3861389d565b612ec598508b80612f1b946000805160206144f68339815191529e612f1394600f60209d9c9b9a99979d5260408d2054156138fb575b5050613814565b670de0b6b3a76400009161390e91611f62565b04600182015581386138f4565b670de0b6b3a764000080870290878204148715171561305c5761304c6139449160285490612971565b602755613773565b945061395a85601e54611f8b565b601e553861373c565b613987919650676765c793fa10079d601b1b6130ab61220c602093601c54906129ed565b03925af180156127265761399c575b8a613732565b6139b49060203d60201161168b5761167d8183611c9f565b5038613996565b6139df919550676765c793fa10079d601b1b61314561220c602093601b54906129ed565b03925af18015612726576139f4575b8a61371d565b613a0c9060203d60201161168b5761167d8183611c9f565b50386139ee565b600b546025546040516340c10f1960e01b81526001600160a01b039182166004820152602481018a905291602091839160449183918a91165af1801561322557613a5e575b5061370a565b613a769060203d60201161168b5761167d8183611c9f565b5038613a58565b90936020823d602011613aaa575b81613a9860209383611c9f565b810103126107dd5750519260806136b0565b3d9150613a8b565b613aca9060203d60201161168b5761167d8183611c9f565b503861367c565b906020823d602011613afc575b81613aeb60209383611c9f565b810103126107dd575051600061362c565b3d9150613ade565b505094509050613b1333612aa6565b949091908286613b90575b50868a6028548015908115613b35575b50506135d2565b925092939495969050633b9aca009282848102048414171561334357506135f261220c612d3b8d612d36613b858b676765c793fa10079d601b1b8f9d9c9b9a9961220c61221191839b02876129ed565b9a9550509250613b2e565b6024805460405163c81ae6db60e01b81526001600160a01b039384166004820152939b506020928492918391165afa908115613225578591613bd5575b509738613b1e565b90506020813d602011613bff575b81613bf060209383611c9f565b81010312611831575138613bcd565b3d9150613be3565b5043602654106135cd565b50600160265414156135c7565b436000198101116128835743600019016026556135af565b91506020823d602011613c6f575b81613c5260209383611c9f565b810103126107dd5750518390676765c793fa10079d601b1b613559565b3d9150613c45565b90916020823d602011613ca3575b81613c9260209383611c9f565b810103126107dd575051903861351d565b3d9150613c85565b906020823d602011613cd5575b81613cc560209383611c9f565b810103126107dd575051386134f1565b3d9150613cb8565b60ff601f541661184b57601154613cf48143612017565b90601354908110613d165790613d10612aa39260125490612017565b90612017565b5090565b6001600160a01b0316600090815260296020526040808220905191929190613d4182611c83565b602060018254928385520154920191825280613d5b575050565b612aa3929350613d76670de0b6b3a764000091602754611f62565b04905190612017565b9092600060a05260009160009160009160009160009160115498898211801590614324575b6142fe57613db28a83612017565b996013549081116142e5575b50600d546040516318160ddd60e01b8152996001600160a01b039091169060208b600481855afa9a8b156127265760009b6142b1575b50613e02601054809d611f62565b9b60215480156000146142a75750613e6662a55ec2915b6022548061429d5750613e606e09a130b963a6c115c3c7f400000000915b602354806142935750613e5a6d08c815d5bcc20177de3b5d250000955b8a612017565b90611f62565b90611f8b565b600a546040516370a0823160e01b81526001600482015290602090829060249082906001600160a01b03165afa90811561272657600091614261575b50633b9aca00810290808204633b9aca001490151715611f7557600492612d36613ece92602094612017565b93604051928380926318160ddd60e01b82525afa908115612726578d8491600093614229575b5061221161220c613f1194676765c793fa10079d601b1b936129ed565b60a05260009160009360265460018060a01b0382166000526029602052604060002096600160405198613f438a611c83565b80548a52015460208901528115614215575b6025546001600160a01b031615159182614209575b826141ff575b505061412a575b5050868c60a051613f8791612017565b90613f9191612017565b601d5480608052613fa1916129ed565b613faa90612991565b676765c793fa10079d601b1b9004809b60a051613fc691611f8b565b90613fd091611f8b565b50868c60a051613fdf91612017565b90613fe991612017565b600854909b906001600160a01b0316614105575b6009546001600160a01b03166140e0575b6080516140d8575b5060275492614026575b50505050565b861580156140a7575b50821515918261408a575b505080614080575b61404e575b8080614020565b816020670de0b6b3a764000061406e613e60946140789798965190611f62565b0491015190612017565b903880614047565b5081511515614042565b909150811561409c575b50388061403a565b905082511138614094565b9092670de0b6b3a76400009182890292898404141715611f7557613e606140d19260285490612971565b913861402f565b975038614016565b9850676765c793fa10079d601b1b6140fe61220c8d601c54906129ed565b049861400e565b9950676765c793fa10079d601b1b61412361220c8d601b54906129ed565b0499613ffd565b614135919450612aa6565b93908415613f77576024805460405163c81ae6db60e01b81526001600160a01b0393841660048201529395506020928492918391165afa908115612726576000916141cd575b5091602854908115613f77579080929850633b9aca00810204633b9aca001482151715611f7557676765c793fa10079d601b1b61221161220c8f633b9aca006141c59602906129ed565b953880613f77565b90506020813d6020116141f7575b816141e860209383611c9f565b8101031261184b57513861417b565b3d91506141db565b1090503880613f70565b60018114159250613f6a565b90506000198101818111611f755790613f55565b925050506020813d602011614259575b8161424660209383611c9f565b8101031261184b5751828d612211613ef4565b3d9150614239565b90506020813d60201161428b575b8161427c60209383611c9f565b8101031261184b575138613ea2565b3d915061426f565b613e5a9095613e54565b613e609091613e37565b613e669091613e19565b909a506020813d6020116142dd575b816142cd60209383611c9f565b8101031261184b57519938613df4565b3d91506142c0565b99613d106142f7929b60125490612017565b9838613dbe565b50509650505050505050600090600060a052600090600090600090600090600090600090565b50600d546040516318160ddd60e01b815290602090829060049082906001600160a01b03165afa90811561272657600091614361575b5015613da4565b90506020813d821161438a575b8161437b60209383611c9f565b8101031261184b57513861435a565b3d915061436e565b6021548061448d5750602462a55ec25b6022548061448457506143e96e09a130b963a6c115c3c7f4000000005b6023548061447a5750613e606d08c815d5bcc20177de3b5d250000935b613e5a6010549143612017565b600a546040516370a0823160e01b8152600160048201529360209185919082906001600160a01b03165afa92831561272657600093614447575b50633b9aca0092838102938185041490151715611f7557612aa392612d3691612017565b90926020823d8211614472575b8161446160209383611c9f565b810103126107dd5750519138614423565b3d9150614454565b613e6090936143dc565b6143e9906143bf565b6024906143a256fe2f8788117e7eff1d82e926ec794901d17c78024a50270940304540a733656f0df0887ba65ee2024ea881d91b74c2450ef19e1557f03bed3ea9f16b037cbe2dc9523a704056dcd17bcf83bed8b68c59416dac1119be77755efe3bde0a64e46e0c497e03b12fad3ff21a8befe15ca84c3fc0060b505e572702bf6788e900252007bf02bad7114723a857a3af46cea17b778a3a951c96f183784d9a2448cc479ab6a164736f6c6343000813000a",
  "linkReferences": {},
  "deployedLinkReferences": {}
}