{
  "_format": "hh-sol-artifact-1",
  "contractName": "SeigManagerV1_3",
  "sourceName": "contracts/stake/managers/SeigManagerV1_3.sol",
  "abi": [
    {
      "anonymous": false,
      "inputs": [
        {
          "indexed": false,
          "internalType": "address",
          "name": "layer2",
          "type": "address"
        },
        {
          "indexed": false,
          "internalType": "uint256",
          "name": "seigs",
          "type": "uint256"
        },
        {
          "indexed": false,
          "internalType": "uint256",
          "name": "operatorSeigs",
          "type": "uint256"
        },
        {
          "indexed": false,
          "internalType": "uint256",
          "name": "nextTotalSupply",
          "type": "uint256"
        },
        {
          "indexed": false,
          "internalType": "uint256",
          "name": "prevTotalSupply",
          "type": "uint256"
        }
      ],
      "name": "AddedSeigAtLayer",
      "type": "event"
    },
    {
      "anonymous": false,
      "inputs": [
        {
          "indexed": true,
          "internalType": "address",
          "name": "layer2",
          "type": "address"
        }
      ],
      "name": "Comitted",
      "type": "event"
    },
    {
      "anonymous": false,
      "inputs": [
        {
          "indexed": false,
          "internalType": "uint256",
          "name": "totalStakedAmount",
          "type": "uint256"
        },
        {
          "indexed": false,
          "internalType": "uint256",
          "name": "totalSupplyOfWTON",
          "type": "uint256"
        },
        {
          "indexed": false,
          "internalType": "uint256",
          "name": "prevTotalSupply",
          "type": "uint256"
        },
        {
          "indexed": false,
          "internalType": "uint256",
          "name": "nextTotalSupply",
          "type": "uint256"
        }
      ],
      "name": "CommitLog1",
      "type": "event"
    },
    {
      "anonymous": false,
      "inputs": [
        {
          "indexed": true,
          "internalType": "bytes32",
          "name": "role",
          "type": "bytes32"
        },
        {
          "indexed": true,
          "internalType": "bytes32",
          "name": "previousAdminRole",
          "type": "bytes32"
        },
        {
          "indexed": true,
          "internalType": "bytes32",
          "name": "newAdminRole",
          "type": "bytes32"
        }
      ],
      "name": "RoleAdminChanged",
      "type": "event"
    },
    {
      "anonymous": false,
      "inputs": [
        {
          "indexed": true,
          "internalType": "bytes32",
          "name": "role",
          "type": "bytes32"
        },
        {
          "indexed": true,
          "internalType": "address",
          "name": "account",
          "type": "address"
        },
        {
          "indexed": true,
          "internalType": "address",
          "name": "sender",
          "type": "address"
        }
      ],
      "name": "RoleGranted",
      "type": "event"
    },
    {
      "anonymous": false,
      "inputs": [
        {
          "indexed": true,
          "internalType": "bytes32",
          "name": "role",
          "type": "bytes32"
        },
        {
          "indexed": true,
          "internalType": "address",
          "name": "account",
          "type": "address"
        },
        {
          "indexed": true,
          "internalType": "address",
          "name": "sender",
          "type": "address"
        }
      ],
      "name": "RoleRevoked",
      "type": "event"
    },
    {
      "anonymous": false,
      "inputs": [
        {
          "indexed": true,
          "internalType": "address",
          "name": "layer2",
          "type": "address"
        },
        {
          "indexed": false,
          "internalType": "uint256",
          "name": "totalSeig",
          "type": "uint256"
        },
        {
          "indexed": false,
          "internalType": "uint256",
          "name": "stakedSeig",
          "type": "uint256"
        },
        {
          "indexed": false,
          "internalType": "uint256",
          "name": "unstakedSeig",
          "type": "uint256"
        },
        {
          "indexed": false,
          "internalType": "uint256",
          "name": "powertonSeig",
          "type": "uint256"
        },
        {
          "indexed": false,
          "internalType": "uint256",
          "name": "daoSeig",
          "type": "uint256"
        },
        {
          "indexed": false,
          "internalType": "uint256",
          "name": "pseig",
          "type": "uint256"
        }
      ],
      "name": "SeigGiven",
      "type": "event"
    },
    {
      "anonymous": false,
      "inputs": [
        {
          "indexed": true,
          "internalType": "address",
          "name": "layer2",
          "type": "address"
        },
        {
          "indexed": false,
          "internalType": "uint256",
          "name": "totalSeig",
          "type": "uint256"
        },
        {
          "indexed": false,
          "internalType": "uint256",
          "name": "stakedSeig",
          "type": "uint256"
        },
        {
          "indexed": false,
          "internalType": "uint256",
          "name": "unstakedSeig",
          "type": "uint256"
        },
        {
          "indexed": false,
          "internalType": "uint256",
          "name": "powertonSeig",
          "type": "uint256"
        },
        {
          "indexed": false,
          "internalType": "uint256",
          "name": "daoSeig",
          "type": "uint256"
        },
        {
          "indexed": false,
          "internalType": "uint256",
          "name": "pseig",
          "type": "uint256"
        },
        {
          "indexed": false,
          "internalType": "uint256",
          "name": "l2TotalSeigs",
          "type": "uint256"
        },
        {
          "indexed": false,
          "internalType": "uint256",
          "name": "layer2Seigs",
          "type": "uint256"
        }
      ],
      "name": "SeigGiven2",
      "type": "event"
    },
    {
      "inputs": [],
      "name": "BURNT_AMOUNT_MAINNET",
      "outputs": [
        {
          "internalType": "uint256",
          "name": "",
          "type": "uint256"
        }
      ],
      "stateMutability": "view",
      "type": "function"
    },
    {
      "inputs": [],
      "name": "CHALLENGER_ROLE",
      "outputs": [
        {
          "internalType": "bytes32",
          "name": "",
          "type": "bytes32"
        }
      ],
      "stateMutability": "view",
      "type": "function"
    },
    {
      "inputs": [],
      "name": "DEFAULT_ADMIN_ROLE",
      "outputs": [
        {
          "internalType": "bytes32",
          "name": "",
          "type": "bytes32"
        }
      ],
      "stateMutability": "view",
      "type": "function"
    },
    {
      "inputs": [],
      "name": "INITIAL_TOTAL_SUPPLY_MAINNET",
      "outputs": [
        {
          "internalType": "uint256",
          "name": "",
          "type": "uint256"
        }
      ],
      "stateMutability": "view",
      "type": "function"
    },
    {
      "inputs": [],
      "name": "MAX_VALID_COMMISSION",
      "outputs": [
        {
          "internalType": "uint256",
          "name": "",
          "type": "uint256"
        }
      ],
      "stateMutability": "view",
      "type": "function"
    },
    {
      "inputs": [],
      "name": "MINTER_ROLE",
      "outputs": [
        {
          "internalType": "bytes32",
          "name": "",
          "type": "bytes32"
        }
      ],
      "stateMutability": "view",
      "type": "function"
    },
    {
      "inputs": [],
      "name": "MIN_VALID_COMMISSION",
      "outputs": [
        {
          "internalType": "uint256",
          "name": "",
          "type": "uint256"
        }
      ],
      "stateMutability": "view",
      "type": "function"
    },
    {
      "inputs": [],
      "name": "OPERATOR_ROLE",
      "outputs": [
        {
          "internalType": "bytes32",
          "name": "",
          "type": "bytes32"
        }
      ],
      "stateMutability": "view",
      "type": "function"
    },
    {
      "inputs": [],
      "name": "PAUSE_ROLE",
      "outputs": [
        {
          "internalType": "bytes32",
          "name": "",
          "type": "bytes32"
        }
      ],
      "stateMutability": "view",
      "type": "function"
    },
    {
      "inputs": [],
      "name": "RAY",
      "outputs": [
        {
          "internalType": "uint256",
          "name": "",
          "type": "uint256"
        }
      ],
      "stateMutability": "view",
      "type": "function"
    },
    {
      "inputs": [],
      "name": "SEIG_START_MAINNET",
      "outputs": [
        {
          "internalType": "uint256",
          "name": "",
          "type": "uint256"
        }
      ],
      "stateMutability": "view",
      "type": "function"
    },
    {
      "inputs": [],
      "name": "accRelativeSeig",
      "outputs": [
        {
          "internalType": "uint256",
          "name": "",
          "type": "uint256"
        }
      ],
      "stateMutability": "view",
      "type": "function"
    },
    {
      "inputs": [
        {
          "internalType": "address",
          "name": "account",
          "type": "address"
        }
      ],
      "name": "addAdmin",
      "outputs": [],
      "stateMutability": "nonpayable",
      "type": "function"
    },
    {
      "inputs": [
        {
          "internalType": "address",
          "name": "account",
          "type": "address"
        }
      ],
      "name": "addChallenger",
      "outputs": [],
      "stateMutability": "nonpayable",
      "type": "function"
    },
    {
      "inputs": [
        {
          "internalType": "address",
          "name": "account",
          "type": "address"
        }
      ],
      "name": "addMinter",
      "outputs": [],
      "stateMutability": "nonpayable",
      "type": "function"
    },
    {
      "inputs": [
        {
          "internalType": "address",
          "name": "account",
          "type": "address"
        }
      ],
      "name": "addOperator",
      "outputs": [],
      "stateMutability": "nonpayable",
      "type": "function"
    },
    {
      "inputs": [],
      "name": "adjustCommissionDelay",
      "outputs": [
        {
          "internalType": "uint256",
          "name": "",
          "type": "uint256"
        }
      ],
      "stateMutability": "view",
      "type": "function"
    },
    {
      "inputs": [
        {
          "internalType": "address",
          "name": "",
          "type": "address"
        }
      ],
      "name": "aliveImplementation",
      "outputs": [
        {
          "internalType": "bool",
          "name": "",
          "type": "bool"
        }
      ],
      "stateMutability": "view",
      "type": "function"
    },
    {
      "inputs": [
        {
          "internalType": "address",
          "name": "layer2",
          "type": "address"
        }
      ],
      "name": "allowIssuanceLayer2Seigs",
      "outputs": [
        {
          "internalType": "address",
          "name": "systemConfig",
          "type": "address"
        },
        {
          "internalType": "bool",
          "name": "allowed",
          "type": "bool"
        }
      ],
      "stateMutability": "nonpayable",
      "type": "function"
    },
    {
      "inputs": [],
      "name": "burntAmountAtDAO",
      "outputs": [
        {
          "internalType": "uint256",
          "name": "",
          "type": "uint256"
        }
      ],
      "stateMutability": "view",
      "type": "function"
    },
    {
      "inputs": [],
      "name": "dao",
      "outputs": [
        {
          "internalType": "address",
          "name": "",
          "type": "address"
        }
      ],
      "stateMutability": "view",
      "type": "function"
    },
    {
      "inputs": [],
      "name": "daoSeigRate",
      "outputs": [
        {
          "internalType": "uint256",
          "name": "",
          "type": "uint256"
        }
      ],
      "stateMutability": "view",
      "type": "function"
    },
    {
      "inputs": [
        {
          "internalType": "address",
          "name": "",
          "type": "address"
        }
      ],
      "name": "delayedCommissionBlock",
      "outputs": [
        {
          "internalType": "uint256",
          "name": "",
          "type": "uint256"
        }
      ],
      "stateMutability": "view",
      "type": "function"
    },
    {
      "inputs": [
        {
          "internalType": "address",
          "name": "",
          "type": "address"
        }
      ],
      "name": "delayedCommissionRate",
      "outputs": [
        {
          "internalType": "uint256",
          "name": "",
          "type": "uint256"
        }
      ],
      "stateMutability": "view",
      "type": "function"
    },
    {
      "inputs": [
        {
          "internalType": "address",
          "name": "",
          "type": "address"
        }
      ],
      "name": "delayedCommissionRateNegative",
      "outputs": [
        {
          "internalType": "bool",
          "name": "",
          "type": "bool"
        }
      ],
      "stateMutability": "view",
      "type": "function"
    },
    {
      "inputs": [],
      "name": "factory",
      "outputs": [
        {
          "internalType": "address",
          "name": "",
          "type": "address"
        }
      ],
      "stateMutability": "view",
      "type": "function"
    },
    {
      "inputs": [
        {
          "internalType": "address",
          "name": "layer2",
          "type": "address"
        }
      ],
      "name": "getOperatorAmount",
      "outputs": [
        {
          "internalType": "uint256",
          "name": "",
          "type": "uint256"
        }
      ],
      "stateMutability": "view",
      "type": "function"
    },
    {
      "inputs": [
        {
          "internalType": "bytes32",
          "name": "role",
          "type": "bytes32"
        }
      ],
      "name": "getRoleAdmin",
      "outputs": [
        {
          "internalType": "bytes32",
          "name": "",
          "type": "bytes32"
        }
      ],
      "stateMutability": "view",
      "type": "function"
    },
    {
      "inputs": [
        {
          "internalType": "bytes32",
          "name": "role",
          "type": "bytes32"
        },
        {
          "internalType": "address",
          "name": "account",
          "type": "address"
        }
      ],
      "name": "grantRole",
      "outputs": [],
      "stateMutability": "nonpayable",
      "type": "function"
    },
    {
      "inputs": [
        {
          "internalType": "bytes32",
          "name": "role",
          "type": "bytes32"
        },
        {
          "internalType": "address",
          "name": "account",
          "type": "address"
        }
      ],
      "name": "hasRole",
      "outputs": [
        {
          "internalType": "bool",
          "name": "",
          "type": "bool"
        }
      ],
      "stateMutability": "view",
      "type": "function"
    },
    {
      "inputs": [],
      "name": "initialTotalSupply",
      "outputs": [
        {
          "internalType": "uint256",
          "name": "",
          "type": "uint256"
        }
      ],
      "stateMutability": "view",
      "type": "function"
    },
    {
      "inputs": [
        {
          "internalType": "address",
          "name": "account",
          "type": "address"
        }
      ],
      "name": "isAdmin",
      "outputs": [
        {
          "internalType": "bool",
          "name": "",
          "type": "bool"
        }
      ],
      "stateMutability": "view",
      "type": "function"
    },
    {
      "inputs": [
        {
          "internalType": "address",
          "name": "account",
          "type": "address"
        }
      ],
      "name": "isChallenger",
      "outputs": [
        {
          "internalType": "bool",
          "name": "",
          "type": "bool"
        }
      ],
      "stateMutability": "view",
      "type": "function"
    },
    {
      "inputs": [
        {
          "internalType": "address",
          "name": "account",
          "type": "address"
        }
      ],
      "name": "isMinter",
      "outputs": [
        {
          "internalType": "bool",
          "name": "",
          "type": "bool"
        }
      ],
      "stateMutability": "view",
      "type": "function"
    },
    {
      "inputs": [
        {
          "internalType": "address",
          "name": "account",
          "type": "address"
        }
      ],
      "name": "isOperator",
      "outputs": [
        {
          "internalType": "bool",
          "name": "",
          "type": "bool"
        }
      ],
      "stateMutability": "view",
      "type": "function"
    },
    {
      "inputs": [],
      "name": "isOwner",
      "outputs": [
        {
          "internalType": "bool",
          "name": "",
          "type": "bool"
        }
      ],
      "stateMutability": "view",
      "type": "function"
    },
    {
      "inputs": [],
      "name": "l2Registry",
      "outputs": [
        {
          "internalType": "address",
          "name": "",
          "type": "address"
        }
      ],
      "stateMutability": "view",
      "type": "function"
    },
    {
      "inputs": [],
      "name": "lastSnapshotId",
      "outputs": [
        {
          "internalType": "uint256",
          "name": "",
          "type": "uint256"
        }
      ],
      "stateMutability": "view",
      "type": "function"
    },
    {
      "inputs": [],
      "name": "layer2Manager",
      "outputs": [
        {
          "internalType": "address",
          "name": "",
          "type": "address"
        }
      ],
      "stateMutability": "view",
      "type": "function"
    },
    {
      "inputs": [],
      "name": "layer2StartBlock",
      "outputs": [
        {
          "internalType": "uint256",
          "name": "",
          "type": "uint256"
        }
      ],
      "stateMutability": "view",
      "type": "function"
    },
    {
      "inputs": [],
      "name": "minimumAmount",
      "outputs": [
        {
          "internalType": "uint256",
          "name": "",
          "type": "uint256"
        }
      ],
      "stateMutability": "view",
      "type": "function"
    },
    {
      "inputs": [],
      "name": "pauseProxy",
      "outputs": [
        {
          "internalType": "bool",
          "name": "",
          "type": "bool"
        }
      ],
      "stateMutability": "view",
      "type": "function"
    },
    {
      "inputs": [],
      "name": "paused",
      "outputs": [
        {
          "internalType": "bool",
          "name": "",
          "type": "bool"
        }
      ],
      "stateMutability": "view",
      "type": "function"
    },
    {
      "inputs": [],
      "name": "powerTONSeigRate",
      "outputs": [
        {
          "internalType": "uint256",
          "name": "",
          "type": "uint256"
        }
      ],
      "stateMutability": "view",
      "type": "function"
    },
    {
      "inputs": [
        {
          "internalType": "uint256",
          "name": "",
          "type": "uint256"
        }
      ],
      "name": "proxyImplementation",
      "outputs": [
        {
          "internalType": "address",
          "name": "",
          "type": "address"
        }
      ],
      "stateMutability": "view",
      "type": "function"
    },
    {
      "inputs": [],
      "name": "relativeSeigRate",
      "outputs": [
        {
          "internalType": "uint256",
          "name": "",
          "type": "uint256"
        }
      ],
      "stateMutability": "view",
      "type": "function"
    },
    {
      "inputs": [
        {
          "internalType": "address",
          "name": "account",
          "type": "address"
        }
      ],
      "name": "removeAdmin",
      "outputs": [],
      "stateMutability": "nonpayable",
      "type": "function"
    },
    {
      "inputs": [
        {
          "internalType": "address",
          "name": "account",
          "type": "address"
        }
      ],
      "name": "removeChallenger",
      "outputs": [],
      "stateMutability": "nonpayable",
      "type": "function"
    },
    {
      "inputs": [
        {
          "internalType": "address",
          "name": "account",
          "type": "address"
        }
      ],
      "name": "removeMinter",
      "outputs": [],
      "stateMutability": "nonpayable",
      "type": "function"
    },
    {
      "inputs": [
        {
          "internalType": "address",
          "name": "account",
          "type": "address"
        }
      ],
      "name": "removeOperator",
      "outputs": [],
      "stateMutability": "nonpayable",
      "type": "function"
    },
    {
      "inputs": [],
      "name": "renounceChallenger",
      "outputs": [],
      "stateMutability": "nonpayable",
      "type": "function"
    },
    {
      "inputs": [],
      "name": "renounceMinter",
      "outputs": [],
      "stateMutability": "nonpayable",
      "type": "function"
    },
    {
      "inputs": [],
      "name": "renounceOperator",
      "outputs": [],
      "stateMutability": "nonpayable",
      "type": "function"
    },
    {
      "inputs": [],
      "name": "renounceOwnership",
      "outputs": [],
      "stateMutability": "nonpayable",
      "type": "function"
    },
    {
      "inputs": [
        {
          "internalType": "bytes32",
          "name": "role",
          "type": "bytes32"
        },
        {
          "internalType": "address",
          "name": "account",
          "type": "address"
        }
      ],
      "name": "renounceRole",
      "outputs": [],
      "stateMutability": "nonpayable",
      "type": "function"
    },
    {
      "inputs": [
        {
          "internalType": "address",
          "name": "account",
          "type": "address"
        }
      ],
      "name": "revokeChallenger",
      "outputs": [],
      "stateMutability": "nonpayable",
      "type": "function"
    },
    {
      "inputs": [
        {
          "internalType": "address",
          "name": "account",
          "type": "address"
        }
      ],
      "name": "revokeMinter",
      "outputs": [],
      "stateMutability": "nonpayable",
      "type": "function"
    },
    {
      "inputs": [
        {
          "internalType": "address",
          "name": "account",
          "type": "address"
        }
      ],
      "name": "revokeOperator",
      "outputs": [],
      "stateMutability": "nonpayable",
      "type": "function"
    },
    {
      "inputs": [
        {
          "internalType": "bytes32",
          "name": "role",
          "type": "bytes32"
        },
        {
          "internalType": "address",
          "name": "account",
          "type": "address"
        }
      ],
      "name": "revokeRole",
      "outputs": [],
      "stateMutability": "nonpayable",
      "type": "function"
    },
    {
      "inputs": [],
      "name": "seigStartBlock",
      "outputs": [
        {
          "internalType": "uint256",
          "name": "",
          "type": "uint256"
        }
      ],
      "stateMutability": "view",
      "type": "function"
    },
    {
      "inputs": [
        {
          "internalType": "bytes4",
          "name": "",
          "type": "bytes4"
        }
      ],
      "name": "selectorImplementation",
      "outputs": [
        {
          "internalType": "address",
          "name": "",
          "type": "address"
        }
      ],
      "stateMutability": "view",
      "type": "function"
    },
    {
      "inputs": [
        {
          "internalType": "address",
          "name": "l2Registry_",
          "type": "address"
        }
      ],
      "name": "setL2Registry",
      "outputs": [],
      "stateMutability": "nonpayable",
      "type": "function"
    },
    {
      "inputs": [
        {
          "internalType": "address",
          "name": "layer2Manager_",
          "type": "address"
        }
      ],
      "name": "setLayer2Manager",
      "outputs": [],
      "stateMutability": "nonpayable",
      "type": "function"
    },
    {
      "inputs": [
        {
          "internalType": "uint256",
          "name": "startBlock_",
          "type": "uint256"
        }
      ],
      "name": "setLayer2StartBlock",
      "outputs": [],
      "stateMutability": "nonpayable",
      "type": "function"
    },
    {
      "inputs": [
        {
          "internalType": "bytes4",
          "name": "interfaceId",
          "type": "bytes4"
        }
      ],
      "name": "supportsInterface",
      "outputs": [
        {
          "internalType": "bool",
          "name": "",
          "type": "bool"
        }
      ],
      "stateMutability": "view",
      "type": "function"
    },
    {
      "inputs": [],
      "name": "totalLayer2TVL",
      "outputs": [
        {
          "internalType": "uint256",
          "name": "",
          "type": "uint256"
        }
      ],
      "stateMutability": "view",
      "type": "function"
    },
    {
      "inputs": [],
      "name": "totalSupplyOfTon",
      "outputs": [
        {
          "internalType": "uint256",
          "name": "tos",
          "type": "uint256"
        }
      ],
      "stateMutability": "view",
      "type": "function"
    },
    {
      "inputs": [
        {
          "internalType": "address",
          "name": "newAdmin",
          "type": "address"
        }
      ],
      "name": "transferAdmin",
      "outputs": [],
      "stateMutability": "nonpayable",
      "type": "function"
    },
    {
      "inputs": [
        {
          "internalType": "address",
          "name": "newAdmin",
          "type": "address"
        }
      ],
      "name": "transferOwnership",
      "outputs": [],
      "stateMutability": "nonpayable",
      "type": "function"
    },
    {
      "inputs": [],
      "name": "updateSeigniorage",
      "outputs": [
        {
          "internalType": "bool",
          "name": "",
          "type": "bool"
        }
      ],
      "stateMutability": "nonpayable",
      "type": "function"
    },
    {
      "inputs": [
        {
          "internalType": "address",
          "name": "layer2",
          "type": "address"
        }
      ],
      "name": "updateSeigniorageLayer",
      "outputs": [
        {
          "internalType": "bool",
          "name": "",
          "type": "bool"
        }
      ],
      "stateMutability": "nonpayable",
      "type": "function"
    }
  ],
  "bytecode": "0x608080604052346100165761343a908161001c8239f35b600080fdfe608060408181526004918236101561001657600080fd5b600092833560e01c91826301ffc9a7146114cf575081630ceb67801461141257816316b5d5bd146113e95781631785f53c146113bb5781631e1f0b60146112f35781632428c628146112d6578163248a9ca3146112ab57816324d7806c1461126557816325374a9a1461124657816325e90db41461122c5781632ab6f8db146112125781632f17250a146111e55781632f2ff15d1461114a5781633092afd51461111c578163311028af146110fd57816336568abe1461106b578163389ed267146110305781633c49117314610fe05781634123196f14610e5f5781634162169f14610fb757816344feabf814610f745781634631179e14610f4b57816350d2a27614610f0757816351e1e1e614610ecb578163530adbb414610ea2578163550d01a314610e64578163552033c414610e5f5781635998a8d714610e405781635c975abb14610e1c5781636304a62414610dfd57816363a8fd8914610ddb5781636c578c1d14610dad5781636d70f7ae14610d595781636e71186b14610d3a5781637048027514610c97578163715018a614610c7157816375829def14610c54578163764a785614610bba578163837afbc014610b9c5781638f32d59b14610b6957816391d1485414610b22578163983b2d5614610ad25781639865027514610ab85781639870d7fe14610a05578163a217fddf146109ea578163a415d8dc14610996578163a7dcc85014610970578163aa271e1a1461091c578163ac28e2ed146108e1578163ac753a7a146108a3578163ac8a584a14610872578163acd848fa14610848578163b911135f14610815578163baa12536146107b7578163bb0c829814610798578163bf7f473314610779578163c2e5dcc914610750578163c45a015514610727578163cbfebe62146106ef578163cfbd48851461069f578163d0d2ff7014610680578163d539139314610657578163d547741f1461061b578163d8c47966146105fd578163df7fbef0146105de578163e2fe8fd1146105a6578163f2fde38b1461046257508063f5b541a61461043a578063f82293481461041c578063f96032e6146103fe5763fad8b32a1461033257600080fd5b346103fa57602090816003193601126103f65761034d611553565b9061035f61035a336115aa565b611ca6565b6000805160206133ee8339815191529283855260058152610385600183872001546115e7565b838552600581528185206001600160a01b039093168086529281528185205460ff166103af578480f35b8385526005815281852083865290528320805460ff1916905533917ff6391f5c32d9c69d2a47ea670b442974b53935d1edc7fd64eb21e047a839171b8480a4388080808480f35b8280fd5b5080fd5b50346103fa57816003193601126103fa576020906021549051908152f35b50346103fa57816003193601126103fa57602090601e549051908152f35b50346103fa57816003193601126103fa57602090516000805160206133ee8339815191528152f35b919050346103f6576020806003193601126105a25761047f611553565b61048b61035a336115aa565b61049761035a336115aa565b6001600160a01b0316928315610561578333146105275750838052600581526104c5600183862001546115e7565b83805260058152818420838552815260ff8285205416156104ee575b836104eb336119cd565b80f35b8380526005815281842083855290528220805460ff191660011790553390826000805160206133ae8339815191528180a43880806104e1565b915162461bcd60e51b815291820152601660248201527520b1b1b2b9b9b4b136329d1039b0b6b29030b236b4b760511b6044820152606490fd5b915162461bcd60e51b815291820152601860248201527f41636365737369626c653a207a65726f206164647265737300000000000000006044820152606490fd5b8380fd5b5050346103fa5760203660031901126103fa5760209181906001600160a01b036105ce611553565b1681526018845220549051908152f35b5050346103fa57816003193601126103fa576020906016549051908152f35b5050346103fa57816003193601126103fa576020905162a55ec28152f35b919050346103f657806003193601126103f6576104eb9135610652600161064061156e565b938387526005602052862001546115e7565b611c18565b5050346103fa57816003193601126103fa57602090516000805160206133ce8339815191528152f35b5050346103fa57816003193601126103fa576020906026549051908152f35b5050346103fa57602090816003193601126103f6576106bc611553565b906106c961035a336115aa565b6000805160206133ce8339815191529283855260058152610385600183872001546115e7565b5050346103fa5760203660031901126103fa5760209181906001600160a01b03610717611553565b1681526017845220549051908152f35b5050346103fa57816003193601126103fa57600c5490516001600160a01b039091168152602090f35b5050346103fa57816003193601126103fa5760245490516001600160a01b039091168152602090f35b5050346103fa57816003193601126103fa576020906023549051908152f35b5050346103fa57816003193601126103fa57602090601a549051908152f35b5050346103fa5760203660031901126103fa576107f260ff6107d7611553565b92848052600560205280852033865260205284205416611ca6565b60018060a01b03166bffffffffffffffffffffffff60a01b602554161760255580f35b9050346103f65760203660031901126103f65735825260016020908152918190205490516001600160a01b039091168152f35b5050346103fa57816003193601126103fa57602090516e09a130b963a6c115c3c7f4000000008152f35b83346108a05760203660031901126108a0576104eb61088f611553565b61089b61035a336115aa565b611b5e565b80fd5b5050346103fa5760203660031901126103fa5760209160ff9082906001600160a01b036108ce611553565b1681526019855220541690519015158152f35b919050346103f65760203660031901126103f65760ff61091591848052600560205280852033865260205284205416611ca6565b3560265580f35b5050346103fa5760203660031901126103fa5760ff8160209361093d611553565b6000805160206133ce8339815191528252600586528282206001600160a01b039091168252855220549151911615158152f35b5050346103fa57816003193601126103fa57602090516a084595161401484a0000008152f35b5050346103fa5760203660031901126103fa5760ff816020936109b7611553565b60008051602061340e8339815191528252600586528282206001600160a01b039091168252855220549151911615158152f35b5050346103fa57816003193601126103fa5751908152602090f35b5050346103fa57602090816003193601126103f657610a22611553565b90610a2f61035a336115aa565b6000805160206133ee8339815191529283855260058152610a55600183872001546115e7565b838552600581528185206001600160a01b039093168086529281528185205460ff1615610a80578480f35b8385526005815281852083865290528320805460ff1916600117905533916000805160206133ae8339815191528480a4388080808480f35b83346108a057806003193601126108a0576104eb33611bbb565b5050346103fa57602090816003193601126103f657610aef611553565b90610afc61035a336115aa565b6000805160206133ce8339815191529283855260058152610a55600183872001546115e7565b9050346103f657816003193601126103f6578160209360ff92610b4361156e565b90358252600586528282206001600160a01b039091168252855220549151911615158152f35b5050346103fa57816003193601126103fa5760ff8183806020955260058552818120338252855220541690519015158152f35b5050346103fa57816003193601126103fa5760209081549051908152f35b905082346108a057806003193601126108a057338152600e602052829020546001600160a01b031615610bfb57602082610bf2611d42565b90519015158152f35b6020608492519162461bcd60e51b8352820152602e60248201527f536569674d616e616765723a20636f696e61676520686173206e6f742062656560448201526d1b8819195c1b1bde5959081e595d60921b6064820152fd5b919050346103f6576020806003193601126105a25761048b611553565b83346108a057806003193601126108a057610c8e61035a336115aa565b6104eb336119cd565b5050346103fa57602090816003193601126103f657610cb4611553565b91610cc161035a336115aa565b83805260058152610cd7600183862001546115e7565b838052600581528184206001600160a01b039093168085529281528184205460ff1615610d02578380f35b8380526005815281842083855290528220805460ff191660011790553390826000805160206133ae8339815191528180a43880808380f35b5050346103fa57816003193601126103fa576020906027549051908152f35b5050346103fa5760203660031901126103fa5760ff81602093610d7a611553565b6000805160206133ee8339815191528252600586528282206001600160a01b039091168252855220549151911615158152f35b83346108a05760203660031901126108a0576104eb610dca611553565b610dd661035a336115aa565b611abc565b5050346103fa57816003193601126103fa5760ff602092541690519015158152f35b5050346103fa57816003193601126103fa57602090601b549051908152f35b5050346103fa57816003193601126103fa5760209060ff601f541690519015158152f35b5050346103fa57816003193601126103fa57602090601c549051908152f35b611584565b5050346103fa5760203660031901126103fa5760209160ff9082906001600160a01b03610e8f611553565b1681526002855220541690519015158152f35b5050346103fa57816003193601126103fa576020905160008051602061340e8339815191528152f35b8284346108a05760203660031901126108a05750610eef610eea611553565b61277e565b82516001600160a01b03909216825215156020820152f35b9050346103f65760203660031901126103f6573563ffffffff60e01b81168091036103f657825260036020908152918190205490516001600160a01b039091168152f35b5050346103fa57816003193601126103fa57602090516d08c815d5bcc20177de3b5d2500008152f35b5050346103fa5760203660031901126103fa57610f9460ff6107d7611553565b60018060a01b03166bffffffffffffffffffffffff60a01b602454161760245580f35b5050346103fa57816003193601126103fa5760095490516001600160a01b039091168152602090f35b5050346103fa57602090816003193601126103f657610ffd611553565b9061100a61035a336115aa565b60008051602061340e8339815191529283855260058152610385600183872001546115e7565b5050346103fa57816003193601126103fa57602090517ffcb9fcbfa83b897fb2d5cf4b58962164105c1e71489a37ef3ae0db3fdce576f68152f35b839150346103fa57826003193601126103fa5761108661156e565b90336001600160a01b038316036110a257906104eb9135611c18565b608490602085519162461bcd60e51b8352820152602f60248201527f416363657373436f6e74726f6c3a2063616e206f6e6c792072656e6f756e636560448201526e103937b632b9903337b91039b2b63360891b6064820152fd5b5050346103fa57816003193601126103fa576020906022549051908152f35b83346108a05760203660031901126108a0576104eb611139611553565b61114561035a336115aa565b611bbb565b9050346103f657816003193601126103f657359061116661156e565b90828452600560205261117e600182862001546115e7565b828452600560209081528185206001600160a01b039093168086529290528084205460ff16156111ac578380f35b82845260056020528084208285526020528320600160ff1982541617905533916000805160206133ae8339815191528480a43880808380f35b5050346103fa5760203660031901126103fa5760209061120b611206611553565b61235a565b9051908152f35b83346108a057806003193601126108a0576104eb33611b5e565b83346108a057806003193601126108a0576104eb33611abc565b5050346103fa57816003193601126103fa57602090601d549051908152f35b5050346103fa5760203660031901126103fa5760ff81602093611286611553565b818052600586528282206001600160a01b039091168252855220549151911615158152f35b9050346103f65760203660031901126103f65781602093600192358152600585522001549051908152f35b5050346103fa57816003193601126103fa5760209061120b61324c565b9050346103f657602092836003193601126108a05780846001600160a01b0361131a611553565b1684865180948193633b253c2b60e11b83525af19182156113b05791611383575b501561134957505160018152f35b82606492519162461bcd60e51b835282015260166024820152756661696c20757064617465536569676e696f7261676560501b6044820152fd5b6113a39150843d86116113a9575b61139b8183611986565b810190611d2a565b3861133b565b503d611391565b8451903d90823e3d90fd5b83346108a05760203660031901126108a0576104eb6113d8611553565b6113e461035a336115aa565b6119cd565b5050346103fa57816003193601126103fa5760255490516001600160a01b039091168152602090f35b9050346103f657602091826003193601126105a25761142f611553565b91611439336115aa565b80156114a5575b1561146c575060008051602061340e8339815191529283855260058152610a55600183872001546115e7565b83606492519162461bcd60e51b835282015260156024820152743737ba1037b7363ca6b4b73a32b927b920b236b4b760591b6044820152fd5b506000805160206133ce833981519152855260058452818520338652845260ff8286205416611440565b849184346105a25760203660031901126105a25781359063ffffffff60e01b821680920361154f57602094637965db0b60e01b8314938415611516575b5050505015158152f35b6301ffc9a760e01b841494509192909190841561153b575b505050508380808061150c565b60ff9450825285522054168380808061152e565b8480fd5b600435906001600160a01b038216820361156957565b600080fd5b602435906001600160a01b038216820361156957565b34611569576000366003190112611569576020604051676765c793fa10079d601b1b8152f35b6001600160a01b031660009081527f05b8ccbb9d4d8fb16ea74ce3c29a41f1b461fbdaff4714a0d9a8eb05499746bc602052604090205460ff1690565b60009080825260209060058252604092838120338252835260ff8482205416156116115750505050565b83519167ffffffffffffffff90336060850183811186821017611909578752602a855285850191873684378551156118f557603083538551916001928310156118e1576078602188015360295b838111611877575061183557908751936080850190858210908211176118215788526042845286840194606036873784511561180d5760308653845182101561180d5790607860218601536041915b81831161179f5750505061175d5761175993869361173d9361172e6048946117059a519a8b957f416363657373436f6e74726f6c3a206163636f756e74200000000000000000008c880152518092603788019061191d565b8401917001034b99036b4b9b9b4b733903937b6329607d1b60378401525180938684019061191d565b01036028810187520185611986565b5192839262461bcd60e51b8452600484015260248301906119a8565b0390fd5b60648587519062461bcd60e51b825280600483015260248201527f537472696e67733a20686578206c656e67746820696e73756666696369656e746044820152fd5b909192600f811660108110156117f9576f181899199a1a9b1b9c1cb0b131b232b360811b901a6117cf8588611c7f565b5360041c9280156117e5576000190191906116ad565b634e487b7160e01b82526011600452602482fd5b634e487b7160e01b83526032600452602483fd5b634e487b7160e01b81526032600452602490fd5b634e487b7160e01b86526041600452602486fd5b60648789519062461bcd60e51b825280600483015260248201527f537472696e67733a20686578206c656e67746820696e73756666696369656e746044820152fd5b90600f811660108110156118cd576f181899199a1a9b1b9c1cb0b131b232b360811b901a6118a5838a611c7f565b5360041c9080156118b9576000190161165e565b634e487b7160e01b87526011600452602487fd5b634e487b7160e01b88526032600452602488fd5b634e487b7160e01b86526032600452602486fd5b634e487b7160e01b85526032600452602485fd5b634e487b7160e01b85526041600452602485fd5b60005b8381106119305750506000910152565b8181015183820152602001611920565b67ffffffffffffffff811161195457604052565b634e487b7160e01b600052604160045260246000fd5b6040810190811067ffffffffffffffff82111761195457604052565b90601f8019910116810190811067ffffffffffffffff82111761195457604052565b906020916119c18151809281855285808601910161191d565b601f01601f1916010190565b6001600160a01b0316338103611a5f5760008181527f05b8ccbb9d4d8fb16ea74ce3c29a41f1b461fbdaff4714a0d9a8eb05499746bc602052604081205490919060ff16611a19575050565b8180526005602052604082208183526020526040822060ff19815416905533917ff6391f5c32d9c69d2a47ea670b442974b53935d1edc7fd64eb21e047a839171b8180a4565b60405162461bcd60e51b815260206004820152602f60248201527f416363657373436f6e74726f6c3a2063616e206f6e6c792072656e6f756e636560448201526e103937b632b9903337b91039b2b63360891b6064820152608490fd5b6001600160a01b0316338103611a5f5760008181527fedec71783a10810e436f3392a073a61717130e573433fcc6591c3061a012f767602052604081205490919060008051602061340e8339815191529060ff16611b1957505050565b8083526005602052604083208284526020526040832060ff1981541690557ff6391f5c32d9c69d2a47ea670b442974b53935d1edc7fd64eb21e047a839171b339380a4565b6001600160a01b0316338103611a5f5760008181527f02634a7c777b8129955fe1824eee49ef19dfa96f2f4cb63212492c3d84eb58e660205260408120549091906000805160206133ee8339815191529060ff16611b1957505050565b6001600160a01b0316338103611a5f5760008181527fca0a2f641ec05ca23127d994cf03ffc453db616acae0b86cb56bb95304d0685460205260408120549091906000805160206133ce8339815191529060ff16611b1957505050565b906000918083526005602052604083209160018060a01b03169182845260205260ff604084205416611b1957505050565b81810292918115918404141715611c5c57565b634e487b7160e01b600052601160045260246000fd5b91908201809211611c5c57565b908151811015611c90570160200190565b634e487b7160e01b600052603260045260246000fd5b15611cad57565b60405162461bcd60e51b815260206004820152602360248201527f41757468436f6e74726f6c3a2043616c6c6572206973206e6f7420616e20616460448201526236b4b760e91b6064820152608490fd5b91908203918211611c5c57565b9081602091031261156957516001600160a01b03811681036115695790565b90816020910312611569575180151581036115695790565b600060ff601f54166123545760115443111561230f57611d613361235a565b601a54116122ca57338152600e60205260408120546001600160a01b0316611d8761290e565b9093921561229057338552600f602052436040862055604051936318160ddd60e01b8552602085600481875afa948515612015578695612258575b50600d546040516370a0823160e01b815233600482015290602090829060249082906001600160a01b03165afa90811561224d578791612217575b50808610156121e75785611e1091611cfe565b916040519363570ca73560e01b8552602085600481335afa9485156121dc5788956121ab575b50338852601560205260ff60408920541695611e568688878b8533612429565b969097604051630a9ee07f60e31b8152602081600481875afa908115612157578c918b8d928492612162575b5091676765c793fa10079d601b1b611ea7611ea2611ead946020966126c5565b612669565b04612738565b60246040518094819363817e9d3160e01b83526004830152885af180156121575790899291612138575b5081612069575b5050600b546007546040516340c10f1960e01b81526001600160a01b03918216600482015260248101899052935060209250839160449183918e91165af1801561205e5761203f575b5080612036575b80612024575b611fa9575b50509160a093917f9f0aff7defc0f0b331d66bccf1955a699b40155565289317e38b9799ddf094489593604051947f521cc65179761533a7c8d7a973291dd7baebb99a67edf5ef78e9c2b61a533d95339180a23385526020850152604084015260608301526080820152a1600190565b6025546001600160a01b031690813b156120205760405163c5f16b8960e01b81526001600160a01b03919091166004820152602481019290925286908290604490829084905af1801561201557612001575b80611f39565b61200b8691611940565b61154f5738611ffb565b6040513d88823e3d90fd5b8780fd5b506001600160a01b0381161515611f34565b50811515611f2e565b6120579060203d6020116113a95761139b8183611986565b5038611f27565b6040513d8b823e3d90fd5b156120d65750813b156120d25760405163079cc67960e41b81526001600160a01b03919091166004820152602481018790529089908290604490829084905af1801561205e576120bf575b505b38808681611ede565b6120cb90989198611940565b96386120b4565b8980fd5b6040516340c10f1960e01b81526001600160a01b03929092166004830152602482015290602090829060449082908d905af1801561205e57612119575b506120b6565b6121319060203d6020116113a95761139b8183611986565b5038612113565b6121509060203d6020116113a95761139b8183611986565b5038611ed7565b6040513d8e823e3d90fd5b93505050506020813d6020116121a3575b8161218060209383611986565b8101031261219f57518b908b908b676765c793fa10079d601b1b611e82565b8b80fd5b3d9150612173565b6121ce91955060203d6020116121d5575b6121c68183611986565b810190611d0b565b9338611e36565b503d6121bc565b6040513d8a823e3d90fd5b5050505050507f521cc65179761533a7c8d7a973291dd7baebb99a67edf5ef78e9c2b61a533d95339180a2600190565b90506020813d602011612245575b8161223260209383611986565b81010312612241575138611dfd565b8680fd5b3d9150612225565b6040513d89823e3d90fd5b9094506020813d602011612288575b8161227460209383611986565b8101031261228457519338611dc2565b8580fd5b3d9150612267565b60405162461bcd60e51b81526020600482015260126024820152715f696e637265617365546f742066616c736560701b6044820152606490fd5b60405162461bcd60e51b815260206004820152601d60248201527f6d696e696d756d416d6f756e7420697320696e73756666696369656e740000006044820152606490fd5b60405162461bcd60e51b815260206004820152601b60248201527f6c617374207365696720626c6f636b206973206e6f74207061737400000000006044820152606490fd5b50600190565b60405163570ca73560e01b81526001600160a01b03918216916020908183600481875afa9283156123fe5760009361240a575b50819293600052600e8252602481604060002054169460405195869384926370a0823160e01b84521660048301525afa9081156123fe576000916123d2575b50905090565b82813d83116123f7575b6123e68183611986565b810103126108a057505180386123cc565b503d6123dc565b6040513d6000823e3d90fd5b82935061242390833d85116121d5576121c68183611986565b9261238d565b95939491959290926000809460018060a01b0380931686526020601781526040938488205480431015908161263f575b50612600575b338852601482528488205496612475878d611c72565b9a88156125f057156125c0578b156125b15785516370a0823160e01b8152908216600482015292829184916024918391165afa9384156125a857508693612578575b5050811561256f5750611ea26124d3611ea2986124f593612738565b9384936124ef676765c793fa10079d601b1b9a8b9687936126c5565b046126c5565b04858214958660001461253b5761251a94959682945b501561251e5750905093611c72565b9190565b61252e611ea261253594866126c5565b0490611c72565b93611c72565b8281039681881161255b5761255561251a96979884612738565b9461250b565b634e487b7160e01b85526011600452602485fd5b95965050505050565b9080929350813d83116125a1575b6125908183611986565b8101031261154f57519038806124b7565b503d612586565b513d88823e3d90fd5b50505050965050505050909190565b50505050505061251a93949550676765c793fa10079d601b1b92506125e891611ea2916126c5565b048093611cfe565b5050505050505050509250909190565b601882528488205460148352858920556019825260ff8589205416601583528589209060ff80198354169115151617905560178252878581205561245f565b9050151538612459565b8115612653570490565b634e487b7160e01b600052601260045260246000fd5b906b019d971e4fe8401e74000000820191828111611c5c57821061268957565b60405162461bcd60e51b815260206004820152601460248201527364732d6d6174682d6164642d6f766572666c6f7760601b6044820152606490fd5b600092918015918215612718575b5050156126dc57565b60405162461bcd60e51b815260206004820152601460248201527364732d6d6174682d6d756c2d6f766572666c6f7760601b6044820152606490fd5b915092506127306127298483611c49565b9384612649565b1438806126d3565b90676765c793fa10079d601b1b9182810292818404811482151715611c5c578304036126dc5761276b8160011c83611c72565b9182106126895761277b91612649565b90565b6025546040805163570ca73560e01b81526001600160a01b0392831694600094909385939260209283908290600490829086165afa9081156128d85760248492849288916128bb575b508787519b8c94859363050f7f4960e51b85521660048401525af19687156128ae57849761288f575b5086811690816128035750929450505050565b9180916024869460255416918651958693849263153e6d7f60e01b845260048401525af192831561288657508392612849575b505060ff91501661284357565b60019150565b90809250813d831161287f575b6128608183611986565b810103126103fa57519060ff821682036108a0575060ff903880612836565b503d612856565b513d85823e3d90fd5b6128a7919750823d84116121d5576121c68183611986565b95386127f0565b50505051903d90823e3d90fd5b6128d29150843d86116121d5576121c68183611986565b386127c7565b84513d87823e3d90fd5b604051906128ef8261196a565b601082526f6c61796572325365696773206120257360801b6020830152565b60008060006011544311156131fe57600d546040516318160ddd60e01b81526001600160a01b0390911690602081600481855afa9081156123fe576000916131cc575b50156131b6576040516318160ddd60e01b815290602082600481845afa9182156123fe57600092613182575b5061299261298961320f565b60105490611c49565b916004602061299f61324c565b93604051928380926318160ddd60e01b82525afa9081156123fe578390600092613143575b50676765c793fa10079d601b1b611ea7611ea26129e194886126c5565b916000926000916000914360265410613035575b612a2a602754604051612a078161196a565b6011815270746f74616c4c617965723254564c20257360781b6020820152613355565b612a5b86604051612a3a8161196a565b600f81526e6c32546f74616c536569677320257360881b6020820152613355565b676765c793fa10079d601b1b612a89611ea2612a8089612a7b868d611cfe565b611cfe565b601d54906126c5565b0494612a9e86612a998484611c72565b611c72565b43601155600d54604051630a9ee07f60e31b815291926001600160a01b0390911691602081600481865afa9081156123fe57600091613002575b506000926024612afd84676765c793fa10079d601b1b611ea7611ea26020978b6126c5565b604051958693849263817e9d3160e01b845260048401525af19182156123fe57600492612fe3575b50600d546040516318160ddd60e01b81529260209184919082906001600160a01b03165afa9182156123fe57600092612f8f575b50907f41a79a497d1457df24c25ab99f22349ae9aef4468429f0a781216e8dcf80c6289260809260405192835286602084015260408301526060820152a1612ba586612a7b838a611cfe565b916000936000956000978960018060a01b036025541680151580612f86575b612f1d575b50506008546001600160a01b031680612e8b575b506009546001600160a01b031680612df9575b50601d54612de2575b506040518d60208201906332458eed60e01b8252151560248301526024825281606081011067ffffffffffffffff6060840111176119545760008f929182606083940160405251906a636f6e736f6c652e6c6f675afa50612cae575b505050604051968752602087015260408601526060850152608084015260a083015260c08201528260e08201527f497e03b12fad3ff21a8befe15ca84c3fc0060b505e572702bf6788e9002520076101003392a2600193565b80151580612dcb575b80612db2575b612d4a575b5080151580612d3f575b612cd7575b80612c55565b612cea61298960119c93949c5443611cfe565b92633b9aca0091828102928184041490151715611c5c57676765c793fa10079d601b1b611ea7611ea2612d2094612d26976126c5565b90611c72565b97612d3889612d336128e2565b613355565b3880612cd1565b504360115410612ccc565b909a50612d6b61298960115433600052600f60205260406000205490611cfe565b90633b9aca0090818102918183041490151715611c5c57676765c793fa10079d601b1b611ea7611ea28593612d9f956126c5565b99612dac8b612d336128e2565b38612cc2565b5033600052600f60205260406000205460115411612cbd565b5033600052600f6020526040600020541515612cb7565b9750612df088601e54611c72565b601e5538612bf9565b9750612e5d6020676765c793fa10079d601b1b612e1b611ea2601c548b6126c5565b600b546040516340c10f1960e01b81526001600160a01b039d8e16600482015292909104602483018190529b9193849290911690829060009082906044820190565b03925af180156123fe5715612bf057612e849060203d6020116113a95761139b8183611986565b5038612bf0565b9650612eef6020676765c793fa10079d601b1b612ead611ea2601b548b6126c5565b600b546040516340c10f1960e01b81526001600160a01b039c8d16600482015292909104602483018190529a9193849290911690829060009082906044820190565b03925af180156123fe5715612bdd57612f169060203d6020116113a95761139b8183611986565b5038612bdd565b600b546040516340c10f1960e01b81526001600160a01b039283166004820152602481019390935260209183916044918391600091165af180156123fe57612f67575b8a90612bc9565b612f7f9060203d6020116113a95761139b8183611986565b5038612f60565b50811515612bc4565b91506020823d602011612fdb575b81612faa60209383611986565b81010312611569579051907f41a79a497d1457df24c25ab99f22349ae9aef4468429f0a781216e8dcf80c628612b59565b3d9150612f9d565b612ffb9060203d6020116113a95761139b8183611986565b5038612b25565b90506020813d60201161302d575b8161301d60209383611986565b8101031261156957516000612ad8565b3d9150613010565b985095506130423361277e565b98909690878a613053575b506129f5565b336000908152602860209081526040918290205460248054935163c81ae6db60e01b81526001600160a01b039586166004820152919850909650909286928391165afa9283156123fe5760009361310f575b50826130b781612a9987602754611cfe565b602755336000526028602052604060002055602754801561304d57909550633b9aca0090818102918183041490151715611c5c5781676765c793fa10079d601b1b611ea7611ea2613108948b6126c5565b943861304d565b9092506020813d60201161313b575b8161312b60209383611986565b81010312611569575191386130a5565b3d915061311e565b9150506020813d60201161317a575b8161315f60209383611986565b81010312611569575182676765c793fa10079d601b1b6129c4565b3d9150613152565b9091506020813d6020116131ae575b8161319e60209383611986565b810103126115695751903861297d565b3d9150613191565b5050505043601155600090600090600090600090565b90506020813d6020116131f6575b816131e760209383611986565b81010312611569575138612951565b3d91506131da565b505050600090600090600090600090565b60ff601f5416611569576011546132268143611cfe565b90601354908110613248579061324261277b9260125490611cfe565b90611cfe565b5090565b6021548061334d5750602462a55ec25b6022548061334457506132a96e09a130b963a6c115c3c7f4000000005b6023548061333a5750612d206d08c815d5bcc20177de3b5d250000935b6132a36010549143611cfe565b90611c49565b600a546040516370a0823160e01b8152600160048201529360209185919082906001600160a01b03165afa9283156123fe57600093613307575b50633b9aca0092838102938185041490151715611c5c5761277b92612a7b91611cfe565b90926020823d8211613332575b8161332160209383611986565b810103126108a057505191386132e3565b3d9150613314565b612d209093613296565b6132a990613279565b60249061325c565b60009190829161339a60405180926133866020830195632d839cb360e21b87526040602485015260648401906119a8565b90604483015203601f198101835282611986565b51906a636f6e736f6c652e6c6f675afa5056fe2f8788117e7eff1d82e926ec794901d17c78024a50270940304540a733656f0df0887ba65ee2024ea881d91b74c2450ef19e1557f03bed3ea9f16b037cbe2dc9523a704056dcd17bcf83bed8b68c59416dac1119be77755efe3bde0a64e46e0cbf02bad7114723a857a3af46cea17b778a3a951c96f183784d9a2448cc479ab6a164736f6c6343000813000a",
  "linkReferences": {},
  "deployedLinkReferences": {}
}