{
  "_format": "hh-sol-artifact-1",
  "contractName": "TokamakTimelockController",
  "sourceName": "contracts/TokamakTimelockController.sol",
  "abi": [
    {
      "inputs": [],
      "stateMutability": "nonpayable",
      "type": "constructor"
    },
    {
      "inputs": [],
      "name": "AccessControlBadConfirmation",
      "type": "error"
    },
    {
      "inputs": [
        {
          "internalType": "address",
          "name": "account",
          "type": "address"
        },
        {
          "internalType": "bytes32",
          "name": "neededRole",
          "type": "bytes32"
        }
      ],
      "name": "AccessControlUnauthorizedAccount",
      "type": "error"
    },
    {
      "inputs": [],
      "name": "FailedInnerCall",
      "type": "error"
    },
    {
      "inputs": [],
      "name": "InvalidInitialization",
      "type": "error"
    },
    {
      "inputs": [],
      "name": "NotInitializing",
      "type": "error"
    },
    {
      "inputs": [
        {
          "internalType": "uint256",
          "name": "delay",
          "type": "uint256"
        },
        {
          "internalType": "uint256",
          "name": "minDelay",
          "type": "uint256"
        }
      ],
      "name": "TimelockInsufficientDelay",
      "type": "error"
    },
    {
      "inputs": [
        {
          "internalType": "uint256",
          "name": "targets",
          "type": "uint256"
        },
        {
          "internalType": "uint256",
          "name": "payloads",
          "type": "uint256"
        },
        {
          "internalType": "uint256",
          "name": "values",
          "type": "uint256"
        }
      ],
      "name": "TimelockInvalidOperationLength",
      "type": "error"
    },
    {
      "inputs": [
        {
          "internalType": "address",
          "name": "caller",
          "type": "address"
        }
      ],
      "name": "TimelockUnauthorizedCaller",
      "type": "error"
    },
    {
      "inputs": [
        {
          "internalType": "bytes32",
          "name": "predecessorId",
          "type": "bytes32"
        }
      ],
      "name": "TimelockUnexecutedPredecessor",
      "type": "error"
    },
    {
      "inputs": [
        {
          "internalType": "bytes32",
          "name": "operationId",
          "type": "bytes32"
        },
        {
          "internalType": "bytes32",
          "name": "expectedStates",
          "type": "bytes32"
        }
      ],
      "name": "TimelockUnexpectedOperationState",
      "type": "error"
    },
    {
      "anonymous": false,
      "inputs": [
        {
          "indexed": true,
          "internalType": "bytes32",
          "name": "id",
          "type": "bytes32"
        },
        {
          "indexed": true,
          "internalType": "uint256",
          "name": "index",
          "type": "uint256"
        },
        {
          "indexed": false,
          "internalType": "address",
          "name": "target",
          "type": "address"
        },
        {
          "indexed": false,
          "internalType": "uint256",
          "name": "value",
          "type": "uint256"
        },
        {
          "indexed": false,
          "internalType": "bytes",
          "name": "data",
          "type": "bytes"
        }
      ],
      "name": "CallExecuted",
      "type": "event"
    },
    {
      "anonymous": false,
      "inputs": [
        {
          "indexed": true,
          "internalType": "bytes32",
          "name": "id",
          "type": "bytes32"
        },
        {
          "indexed": false,
          "internalType": "bytes32",
          "name": "salt",
          "type": "bytes32"
        }
      ],
      "name": "CallSalt",
      "type": "event"
    },
    {
      "anonymous": false,
      "inputs": [
        {
          "indexed": true,
          "internalType": "bytes32",
          "name": "id",
          "type": "bytes32"
        },
        {
          "indexed": true,
          "internalType": "uint256",
          "name": "index",
          "type": "uint256"
        },
        {
          "indexed": false,
          "internalType": "address",
          "name": "target",
          "type": "address"
        },
        {
          "indexed": false,
          "internalType": "uint256",
          "name": "value",
          "type": "uint256"
        },
        {
          "indexed": false,
          "internalType": "bytes",
          "name": "data",
          "type": "bytes"
        },
        {
          "indexed": false,
          "internalType": "bytes32",
          "name": "predecessor",
          "type": "bytes32"
        },
        {
          "indexed": false,
          "internalType": "uint256",
          "name": "delay",
          "type": "uint256"
        }
      ],
      "name": "CallScheduled",
      "type": "event"
    },
    {
      "anonymous": false,
      "inputs": [
        {
          "indexed": true,
          "internalType": "bytes32",
          "name": "id",
          "type": "bytes32"
        }
      ],
      "name": "Cancelled",
      "type": "event"
    },
    {
      "anonymous": false,
      "inputs": [
        {
          "indexed": false,
          "internalType": "uint64",
          "name": "version",
          "type": "uint64"
        }
      ],
      "name": "Initialized",
      "type": "event"
    },
    {
      "anonymous": false,
      "inputs": [
        {
          "indexed": false,
          "internalType": "uint256",
          "name": "oldDuration",
          "type": "uint256"
        },
        {
          "indexed": false,
          "internalType": "uint256",
          "name": "newDuration",
          "type": "uint256"
        }
      ],
      "name": "MinDelayChange",
      "type": "event"
    },
    {
      "anonymous": false,
      "inputs": [
        {
          "indexed": true,
          "internalType": "bytes32",
          "name": "role",
          "type": "bytes32"
        },
        {
          "indexed": true,
          "internalType": "bytes32",
          "name": "previousAdminRole",
          "type": "bytes32"
        },
        {
          "indexed": true,
          "internalType": "bytes32",
          "name": "newAdminRole",
          "type": "bytes32"
        }
      ],
      "name": "RoleAdminChanged",
      "type": "event"
    },
    {
      "anonymous": false,
      "inputs": [
        {
          "indexed": true,
          "internalType": "bytes32",
          "name": "role",
          "type": "bytes32"
        },
        {
          "indexed": true,
          "internalType": "address",
          "name": "account",
          "type": "address"
        },
        {
          "indexed": true,
          "internalType": "address",
          "name": "sender",
          "type": "address"
        }
      ],
      "name": "RoleGranted",
      "type": "event"
    },
    {
      "anonymous": false,
      "inputs": [
        {
          "indexed": true,
          "internalType": "bytes32",
          "name": "role",
          "type": "bytes32"
        },
        {
          "indexed": true,
          "internalType": "address",
          "name": "account",
          "type": "address"
        },
        {
          "indexed": true,
          "internalType": "address",
          "name": "sender",
          "type": "address"
        }
      ],
      "name": "RoleRevoked",
      "type": "event"
    },
    {
      "inputs": [],
      "name": "CANCELLER_ROLE",
      "outputs": [
        {
          "internalType": "bytes32",
          "name": "",
          "type": "bytes32"
        }
      ],
      "stateMutability": "view",
      "type": "function"
    },
    {
      "inputs": [],
      "name": "DEFAULT_ADMIN_ROLE",
      "outputs": [
        {
          "internalType": "bytes32",
          "name": "",
          "type": "bytes32"
        }
      ],
      "stateMutability": "view",
      "type": "function"
    },
    {
      "inputs": [],
      "name": "EXECUTOR_ROLE",
      "outputs": [
        {
          "internalType": "bytes32",
          "name": "",
          "type": "bytes32"
        }
      ],
      "stateMutability": "view",
      "type": "function"
    },
    {
      "inputs": [],
      "name": "PROPOSER_ROLE",
      "outputs": [
        {
          "internalType": "bytes32",
          "name": "",
          "type": "bytes32"
        }
      ],
      "stateMutability": "view",
      "type": "function"
    },
    {
      "inputs": [
        {
          "internalType": "bytes32",
          "name": "id",
          "type": "bytes32"
        }
      ],
      "name": "cancel",
      "outputs": [],
      "stateMutability": "nonpayable",
      "type": "function"
    },
    {
      "inputs": [
        {
          "internalType": "address",
          "name": "target",
          "type": "address"
        },
        {
          "internalType": "uint256",
          "name": "value",
          "type": "uint256"
        },
        {
          "internalType": "bytes",
          "name": "payload",
          "type": "bytes"
        },
        {
          "internalType": "bytes32",
          "name": "predecessor",
          "type": "bytes32"
        },
        {
          "internalType": "bytes32",
          "name": "salt",
          "type": "bytes32"
        }
      ],
      "name": "execute",
      "outputs": [],
      "stateMutability": "payable",
      "type": "function"
    },
    {
      "inputs": [
        {
          "internalType": "address[]",
          "name": "targets",
          "type": "address[]"
        },
        {
          "internalType": "uint256[]",
          "name": "values",
          "type": "uint256[]"
        },
        {
          "internalType": "bytes[]",
          "name": "payloads",
          "type": "bytes[]"
        },
        {
          "internalType": "bytes32",
          "name": "predecessor",
          "type": "bytes32"
        },
        {
          "internalType": "bytes32",
          "name": "salt",
          "type": "bytes32"
        }
      ],
      "name": "executeBatch",
      "outputs": [],
      "stateMutability": "payable",
      "type": "function"
    },
    {
      "inputs": [],
      "name": "getMinDelay",
      "outputs": [
        {
          "internalType": "uint256",
          "name": "",
          "type": "uint256"
        }
      ],
      "stateMutability": "view",
      "type": "function"
    },
    {
      "inputs": [
        {
          "internalType": "bytes32",
          "name": "id",
          "type": "bytes32"
        }
      ],
      "name": "getOperationState",
      "outputs": [
        {
          "internalType": "enum TimelockControllerUpgradeable.OperationState",
          "name": "",
          "type": "uint8"
        }
      ],
      "stateMutability": "view",
      "type": "function"
    },
    {
      "inputs": [
        {
          "internalType": "bytes32",
          "name": "role",
          "type": "bytes32"
        }
      ],
      "name": "getRoleAdmin",
      "outputs": [
        {
          "internalType": "bytes32",
          "name": "",
          "type": "bytes32"
        }
      ],
      "stateMutability": "view",
      "type": "function"
    },
    {
      "inputs": [
        {
          "internalType": "bytes32",
          "name": "id",
          "type": "bytes32"
        }
      ],
      "name": "getTimestamp",
      "outputs": [
        {
          "internalType": "uint256",
          "name": "",
          "type": "uint256"
        }
      ],
      "stateMutability": "view",
      "type": "function"
    },
    {
      "inputs": [
        {
          "internalType": "bytes32",
          "name": "role",
          "type": "bytes32"
        },
        {
          "internalType": "address",
          "name": "account",
          "type": "address"
        }
      ],
      "name": "grantRole",
      "outputs": [],
      "stateMutability": "nonpayable",
      "type": "function"
    },
    {
      "inputs": [
        {
          "internalType": "bytes32",
          "name": "role",
          "type": "bytes32"
        },
        {
          "internalType": "address",
          "name": "account",
          "type": "address"
        }
      ],
      "name": "hasRole",
      "outputs": [
        {
          "internalType": "bool",
          "name": "",
          "type": "bool"
        }
      ],
      "stateMutability": "view",
      "type": "function"
    },
    {
      "inputs": [
        {
          "internalType": "address",
          "name": "target",
          "type": "address"
        },
        {
          "internalType": "uint256",
          "name": "value",
          "type": "uint256"
        },
        {
          "internalType": "bytes",
          "name": "data",
          "type": "bytes"
        },
        {
          "internalType": "bytes32",
          "name": "predecessor",
          "type": "bytes32"
        },
        {
          "internalType": "bytes32",
          "name": "salt",
          "type": "bytes32"
        }
      ],
      "name": "hashOperation",
      "outputs": [
        {
          "internalType": "bytes32",
          "name": "",
          "type": "bytes32"
        }
      ],
      "stateMutability": "pure",
      "type": "function"
    },
    {
      "inputs": [
        {
          "internalType": "address[]",
          "name": "targets",
          "type": "address[]"
        },
        {
          "internalType": "uint256[]",
          "name": "values",
          "type": "uint256[]"
        },
        {
          "internalType": "bytes[]",
          "name": "payloads",
          "type": "bytes[]"
        },
        {
          "internalType": "bytes32",
          "name": "predecessor",
          "type": "bytes32"
        },
        {
          "internalType": "bytes32",
          "name": "salt",
          "type": "bytes32"
        }
      ],
      "name": "hashOperationBatch",
      "outputs": [
        {
          "internalType": "bytes32",
          "name": "",
          "type": "bytes32"
        }
      ],
      "stateMutability": "pure",
      "type": "function"
    },
    {
      "inputs": [
        {
          "internalType": "uint256",
          "name": "minDelay",
          "type": "uint256"
        },
        {
          "internalType": "address[]",
          "name": "proposers",
          "type": "address[]"
        },
        {
          "internalType": "address[]",
          "name": "executors",
          "type": "address[]"
        },
        {
          "internalType": "address",
          "name": "admin",
          "type": "address"
        }
      ],
      "name": "initialize",
      "outputs": [],
      "stateMutability": "nonpayable",
      "type": "function"
    },
    {
      "inputs": [
        {
          "internalType": "bytes32",
          "name": "id",
          "type": "bytes32"
        }
      ],
      "name": "isOperation",
      "outputs": [
        {
          "internalType": "bool",
          "name": "",
          "type": "bool"
        }
      ],
      "stateMutability": "view",
      "type": "function"
    },
    {
      "inputs": [
        {
          "internalType": "bytes32",
          "name": "id",
          "type": "bytes32"
        }
      ],
      "name": "isOperationDone",
      "outputs": [
        {
          "internalType": "bool",
          "name": "",
          "type": "bool"
        }
      ],
      "stateMutability": "view",
      "type": "function"
    },
    {
      "inputs": [
        {
          "internalType": "bytes32",
          "name": "id",
          "type": "bytes32"
        }
      ],
      "name": "isOperationPending",
      "outputs": [
        {
          "internalType": "bool",
          "name": "",
          "type": "bool"
        }
      ],
      "stateMutability": "view",
      "type": "function"
    },
    {
      "inputs": [
        {
          "internalType": "bytes32",
          "name": "id",
          "type": "bytes32"
        }
      ],
      "name": "isOperationReady",
      "outputs": [
        {
          "internalType": "bool",
          "name": "",
          "type": "bool"
        }
      ],
      "stateMutability": "view",
      "type": "function"
    },
    {
      "inputs": [
        {
          "internalType": "address",
          "name": "",
          "type": "address"
        },
        {
          "internalType": "address",
          "name": "",
          "type": "address"
        },
        {
          "internalType": "uint256[]",
          "name": "",
          "type": "uint256[]"
        },
        {
          "internalType": "uint256[]",
          "name": "",
          "type": "uint256[]"
        },
        {
          "internalType": "bytes",
          "name": "",
          "type": "bytes"
        }
      ],
      "name": "onERC1155BatchReceived",
      "outputs": [
        {
          "internalType": "bytes4",
          "name": "",
          "type": "bytes4"
        }
      ],
      "stateMutability": "nonpayable",
      "type": "function"
    },
    {
      "inputs": [
        {
          "internalType": "address",
          "name": "",
          "type": "address"
        },
        {
          "internalType": "address",
          "name": "",
          "type": "address"
        },
        {
          "internalType": "uint256",
          "name": "",
          "type": "uint256"
        },
        {
          "internalType": "uint256",
          "name": "",
          "type": "uint256"
        },
        {
          "internalType": "bytes",
          "name": "",
          "type": "bytes"
        }
      ],
      "name": "onERC1155Received",
      "outputs": [
        {
          "internalType": "bytes4",
          "name": "",
          "type": "bytes4"
        }
      ],
      "stateMutability": "nonpayable",
      "type": "function"
    },
    {
      "inputs": [
        {
          "internalType": "address",
          "name": "",
          "type": "address"
        },
        {
          "internalType": "address",
          "name": "",
          "type": "address"
        },
        {
          "internalType": "uint256",
          "name": "",
          "type": "uint256"
        },
        {
          "internalType": "bytes",
          "name": "",
          "type": "bytes"
        }
      ],
      "name": "onERC721Received",
      "outputs": [
        {
          "internalType": "bytes4",
          "name": "",
          "type": "bytes4"
        }
      ],
      "stateMutability": "nonpayable",
      "type": "function"
    },
    {
      "inputs": [
        {
          "internalType": "bytes32",
          "name": "role",
          "type": "bytes32"
        },
        {
          "internalType": "address",
          "name": "callerConfirmation",
          "type": "address"
        }
      ],
      "name": "renounceRole",
      "outputs": [],
      "stateMutability": "nonpayable",
      "type": "function"
    },
    {
      "inputs": [
        {
          "internalType": "bytes32",
          "name": "role",
          "type": "bytes32"
        },
        {
          "internalType": "address",
          "name": "account",
          "type": "address"
        }
      ],
      "name": "revokeRole",
      "outputs": [],
      "stateMutability": "nonpayable",
      "type": "function"
    },
    {
      "inputs": [
        {
          "internalType": "address",
          "name": "target",
          "type": "address"
        },
        {
          "internalType": "uint256",
          "name": "value",
          "type": "uint256"
        },
        {
          "internalType": "bytes",
          "name": "data",
          "type": "bytes"
        },
        {
          "internalType": "bytes32",
          "name": "predecessor",
          "type": "bytes32"
        },
        {
          "internalType": "bytes32",
          "name": "salt",
          "type": "bytes32"
        },
        {
          "internalType": "uint256",
          "name": "delay",
          "type": "uint256"
        }
      ],
      "name": "schedule",
      "outputs": [],
      "stateMutability": "nonpayable",
      "type": "function"
    },
    {
      "inputs": [
        {
          "internalType": "address[]",
          "name": "targets",
          "type": "address[]"
        },
        {
          "internalType": "uint256[]",
          "name": "values",
          "type": "uint256[]"
        },
        {
          "internalType": "bytes[]",
          "name": "payloads",
          "type": "bytes[]"
        },
        {
          "internalType": "bytes32",
          "name": "predecessor",
          "type": "bytes32"
        },
        {
          "internalType": "bytes32",
          "name": "salt",
          "type": "bytes32"
        },
        {
          "internalType": "uint256",
          "name": "delay",
          "type": "uint256"
        }
      ],
      "name": "scheduleBatch",
      "outputs": [],
      "stateMutability": "nonpayable",
      "type": "function"
    },
    {
      "inputs": [
        {
          "internalType": "bytes4",
          "name": "interfaceId",
          "type": "bytes4"
        }
      ],
      "name": "supportsInterface",
      "outputs": [
        {
          "internalType": "bool",
          "name": "",
          "type": "bool"
        }
      ],
      "stateMutability": "view",
      "type": "function"
    },
    {
      "inputs": [
        {
          "internalType": "uint256",
          "name": "newDelay",
          "type": "uint256"
        }
      ],
      "name": "updateDelay",
      "outputs": [],
      "stateMutability": "nonpayable",
      "type": "function"
    },
    {
      "stateMutability": "payable",
      "type": "receive"
    }
  ],
  "bytecode": "0x6080604052348015600f57600080fd5b506016601a565b60ca565b7ff0c57e16840df040f15088dc2f81fe391c3923bec73e23a9662efc9c229c6a00805468010000000000000000900460ff161560695760405163f92ee8a960e01b815260040160405180910390fd5b80546001600160401b039081161460c75780546001600160401b0319166001600160401b0390811782556040519081527fc7f505b2f371ae2175ee4913f4499e1f2633a7b5936321eed1cdaeb6115181d29060200160405180910390a15b50565b61215a806100d96000396000f3fe6080604052600436106101c65760003560e01c80638065657f116100f7578063bc197c8111610095578063d547741f11610064578063d547741f14610618578063e38335e514610638578063f23a6e611461064b578063f27a0c921461067757600080fd5b8063bc197c8114610560578063c4c4c7b31461058c578063c4d252f5146105ac578063d45c4435146105cc57600080fd5b806391d14854116100d157806391d1485414610492578063a217fddf146104f7578063b08e51c01461050c578063b1c5f4271461054057600080fd5b80638065657f1461041e5780638f2a0bb01461043e5780638f61f4f51461045e57600080fd5b80632ab0f5291161016457806336568abe1161013e57806336568abe14610391578063584b153e146103b157806364d62353146103d15780637958004c146103f157600080fd5b80632ab0f529146103315780632f2ff15d1461035157806331d507501461037157600080fd5b8063134008d3116101a0578063134008d31461026b57806313bc9f201461027e578063150b7a021461029e578063248a9ca3146102e257600080fd5b806301d5062a146101d257806301ffc9a7146101f457806307bd02651461022957600080fd5b366101cd57005b600080fd5b3480156101de57600080fd5b506101f26101ed3660046117c9565b6106ab565b005b34801561020057600080fd5b5061021461020f36600461183e565b610781565b60405190151581526020015b60405180910390f35b34801561023557600080fd5b5061025d7fd8aa0f3194971a2a116679f7c2090f6939c8d4e01a2a8d7e41d55e5351469e6381565b604051908152602001610220565b6101f2610279366004611868565b610792565b34801561028a57600080fd5b506102146102993660046118d4565b61088a565b3480156102aa57600080fd5b506102c96102b93660046119a4565b630a85bd0160e11b949350505050565b6040516001600160e01b03199091168152602001610220565b3480156102ee57600080fd5b5061025d6102fd3660046118d4565b60009081527f02dd7bc7dec4dceedda775e58dd541e08a116c6c53815c0bd028192f7b626800602052604090206001015490565b34801561033d57600080fd5b5061021461034c3660046118d4565b6108b0565b34801561035d57600080fd5b506101f261036c366004611a0c565b6108b9565b34801561037d57600080fd5b5061021461038c3660046118d4565b610903565b34801561039d57600080fd5b506101f26103ac366004611a0c565b610928565b3480156103bd57600080fd5b506102146103cc3660046118d4565b610960565b3480156103dd57600080fd5b506101f26103ec3660046118d4565b6109a6565b3480156103fd57600080fd5b5061041161040c3660046118d4565b610a3d565b6040516102209190611a4e565b34801561042a57600080fd5b5061025d610439366004611868565b610aa7565b34801561044a57600080fd5b506101f2610459366004611abb565b610ae6565b34801561046a57600080fd5b5061025d7fb09aa5aeb3702cfd50b6b62bc4532604938f21248a27a1d5ca736082b6819cc181565b34801561049e57600080fd5b506102146104ad366004611a0c565b60009182527f02dd7bc7dec4dceedda775e58dd541e08a116c6c53815c0bd028192f7b626800602090815260408084206001600160a01b0393909316845291905290205460ff1690565b34801561050357600080fd5b5061025d600081565b34801561051857600080fd5b5061025d7ffd643c72710c63c0180259aba6b2d05451e3591a24e58b62239378085726f78381565b34801561054c57600080fd5b5061025d61055b366004611b79565b610c8a565b34801561056c57600080fd5b506102c961057b366004611cbf565b63bc197c8160e01b95945050505050565b34801561059857600080fd5b506101f26105a7366004611dda565b610ccf565b3480156105b857600080fd5b506101f26105c73660046118d4565b610df8565b3480156105d857600080fd5b5061025d6105e73660046118d4565b60009081527f9a37c2aa9d186a0969ff8a8267bf4e07e864c2f2768f5040949e28a624fb3600602052604090205490565b34801561062457600080fd5b506101f2610633366004611a0c565b610ec5565b6101f2610646366004611b79565b610f09565b34801561065757600080fd5b506102c9610666366004611e5d565b63f23a6e6160e01b95945050505050565b34801561068357600080fd5b507f9a37c2aa9d186a0969ff8a8267bf4e07e864c2f2768f5040949e28a624fb36015461025d565b7fb09aa5aeb3702cfd50b6b62bc4532604938f21248a27a1d5ca736082b6819cc16106d5816110e9565b60006106e5898989898989610aa7565b90506106f181846110f6565b6000817f4cf4410cc57040e44862ef0f45f3dd5a5e02db8eb8add648d4b0e236f1d07dca8b8b8b8b8b8a60405161072d96959493929190611edf565b60405180910390a3831561077657807f20fda5fd27a1ea7bf5b9567f143ac5470bb059374a27e8f67cb44f946f6d03878560405161076d91815260200190565b60405180910390a25b505050505050505050565b600061078c826111cb565b92915050565b600080527f52fce5e8a5d0d9e8d1ea29f4525e512e9c27bf92cae50374d497f918ab48f3826020527fdd1864c1ab258d549957f6a4d7e3a5005661df58241dbbc1700fb170ef061546547fd8aa0f3194971a2a116679f7c2090f6939c8d4e01a2a8d7e41d55e5351469e639060ff1661080f5761080f81336111f0565b600061081f888888888888610aa7565b905061082b8185611268565b610837888888886112b6565b6000817fc2617efa69bab66782fa219543714338489c4e9e178271560a91b82c3f612b588a8a8a8a60405161086f9493929190611f1d565b60405180910390a36108808161132e565b5050505050505050565b600060025b61089883610a3d565b60038111156108a9576108a9611a38565b1492915050565b6000600361088f565b60008281527f02dd7bc7dec4dceedda775e58dd541e08a116c6c53815c0bd028192f7b62680060205260409020600101546108f3816110e9565b6108fd8383611379565b50505050565b60008061090f83610a3d565b600381111561092057610920611a38565b141592915050565b6001600160a01b03811633146109515760405163334bd91960e11b815260040160405180910390fd5b61095b8282611448565b505050565b60008061096c83610a3d565b9050600181600381111561098257610982611a38565b148061099f5750600281600381111561099d5761099d611a38565b145b9392505050565b7f9a37c2aa9d186a0969ff8a8267bf4e07e864c2f2768f5040949e28a624fb3600333081146109f85760405163e2850c5960e01b81526001600160a01b03821660048201526024015b60405180910390fd5b600182015460408051918252602082018590527f11c24f4ead16507c69ac467fbd5e4eed5fb5c699626d2cc6d66421df253886d5910160405180910390a15060010155565b60008181527f9a37c2aa9d186a0969ff8a8267bf4e07e864c2f2768f5040949e28a624fb3600602052604081205480600003610a7c5750600092915050565b60018103610a8d5750600392915050565b42811115610a9e5750600192915050565b50600292915050565b6000868686868686604051602001610ac496959493929190611edf565b6040516020818303038152906040528051906020012090509695505050505050565b7fb09aa5aeb3702cfd50b6b62bc4532604938f21248a27a1d5ca736082b6819cc1610b10816110e9565b8887141580610b1f5750888514155b15610b67576040517fffb03211000000000000000000000000000000000000000000000000000000008152600481018a905260248101869052604481018890526064016109ef565b6000610b798b8b8b8b8b8b8b8b610c8a565b9050610b8581846110f6565b60005b8a811015610c3b5780827f4cf4410cc57040e44862ef0f45f3dd5a5e02db8eb8add648d4b0e236f1d07dca8e8e85818110610bc557610bc5611f50565b9050602002016020810190610bda9190611f66565b8d8d86818110610bec57610bec611f50565b905060200201358c8c87818110610c0557610c05611f50565b9050602002810190610c179190611f81565b8c8b604051610c2b96959493929190611edf565b60405180910390a3600101610b88565b508315610c7d57807f20fda5fd27a1ea7bf5b9567f143ac5470bb059374a27e8f67cb44f946f6d038785604051610c7491815260200190565b60405180910390a25b5050505050505050505050565b60008888888888888888604051602001610cab989796959493929190612062565b60405160208183030381529060405280519060200120905098975050505050505050565b7ff0c57e16840df040f15088dc2f81fe391c3923bec73e23a9662efc9c229c6a00805468010000000000000000810460ff16159067ffffffffffffffff16600081158015610d1a5750825b905060008267ffffffffffffffff166001148015610d375750303b155b905081158015610d45575080155b15610d635760405163f92ee8a960e01b815260040160405180910390fd5b845467ffffffffffffffff191660011785558315610d9757845468ff00000000000000001916680100000000000000001785555b610da3898989896114ee565b831561077657845468ff000000000000000019168555604051600181527fc7f505b2f371ae2175ee4913f4499e1f2633a7b5936321eed1cdaeb6115181d29060200160405180910390a1505050505050505050565b7ffd643c72710c63c0180259aba6b2d05451e3591a24e58b62239378085726f783610e22816110e9565b7f9a37c2aa9d186a0969ff8a8267bf4e07e864c2f2768f5040949e28a624fb3600610e4c83610960565b610e885782610e5b6002611502565b610e656001611502565b604051635ead8eb560e01b815260048101939093521760248201526044016109ef565b6000838152602082905260408082208290555184917fbaa1eb22f2a492ba1a5fea61b8df4d27c6c8b5f3971e63bb58fa14ff72eedb7091a2505050565b60008281527f02dd7bc7dec4dceedda775e58dd541e08a116c6c53815c0bd028192f7b6268006020526040902060010154610eff816110e9565b6108fd8383611448565b600080527f52fce5e8a5d0d9e8d1ea29f4525e512e9c27bf92cae50374d497f918ab48f3826020527fdd1864c1ab258d549957f6a4d7e3a5005661df58241dbbc1700fb170ef061546547fd8aa0f3194971a2a116679f7c2090f6939c8d4e01a2a8d7e41d55e5351469e639060ff16610f8657610f8681336111f0565b8786141580610f955750878414155b15610fdd576040517fffb032110000000000000000000000000000000000000000000000000000000081526004810189905260248101859052604481018790526064016109ef565b6000610fef8a8a8a8a8a8a8a8a610c8a565b9050610ffb8185611268565b60005b898110156110d35760008b8b8381811061101a5761101a611f50565b905060200201602081019061102f9190611f66565b905060008a8a8481811061104557611045611f50565b9050602002013590503660008a8a8681811061106357611063611f50565b90506020028101906110759190611f81565b91509150611085848484846112b6565b84867fc2617efa69bab66782fa219543714338489c4e9e178271560a91b82c3f612b58868686866040516110bc9493929190611f1d565b60405180910390a350505050806001019050610ffe565b506110dd8161132e565b50505050505050505050565b6110f381336111f0565b50565b7f9a37c2aa9d186a0969ff8a8267bf4e07e864c2f2768f5040949e28a624fb360061112083610903565b1561115257826111306000611502565b604051635ead8eb560e01b8152600481019290925260248201526044016109ef565b600061117c7f9a37c2aa9d186a0969ff8a8267bf4e07e864c2f2768f5040949e28a624fb36015490565b9050808310156111a957604051635433660960e01b815260048101849052602481018290526044016109ef565b6111b3834261211c565b60009485526020929092525060409092209190915550565b60006001600160e01b03198216630271189760e51b148061078c575061078c82611525565b60008281527f02dd7bc7dec4dceedda775e58dd541e08a116c6c53815c0bd028192f7b626800602090815260408083206001600160a01b038516845290915290205460ff166112645760405163e2517d3f60e01b81526001600160a01b0382166004820152602481018390526044016109ef565b5050565b6112718261088a565b61128057816111306002611502565b80158015906112955750611293816108b0565b155b156112645760405163121534c360e31b8152600481018290526024016109ef565b600080856001600160a01b03168585856040516112d492919061213d565b60006040518083038185875af1925050503d8060008114611311576040519150601f19603f3d011682016040523d82523d6000602084013e611316565b606091505b5091509150611325828261155a565b50505050505050565b7f9a37c2aa9d186a0969ff8a8267bf4e07e864c2f2768f5040949e28a624fb36006113588261088a565b61136757816111306002611502565b60009182526020526040902060019055565b60008281527f02dd7bc7dec4dceedda775e58dd541e08a116c6c53815c0bd028192f7b626800602081815260408084206001600160a01b038616855290915282205460ff1661143e576000848152602082815260408083206001600160a01b03871684529091529020805460ff191660011790556113f43390565b6001600160a01b0316836001600160a01b0316857f2f8788117e7eff1d82e926ec794901d17c78024a50270940304540a733656f0d60405160405180910390a4600191505061078c565b600091505061078c565b60008281527f02dd7bc7dec4dceedda775e58dd541e08a116c6c53815c0bd028192f7b626800602081815260408084206001600160a01b038616855290915282205460ff161561143e576000848152602082815260408083206001600160a01b0387168085529252808320805460ff1916905551339287917ff6391f5c32d9c69d2a47ea670b442974b53935d1edc7fd64eb21e047a839171b9190a4600191505061078c565b6114f6611576565b6108fd848484846115c6565b600081600381111561151657611516611a38565b600160ff919091161b92915050565b60006001600160e01b03198216637965db0b60e01b148061078c57506301ffc9a760e01b6001600160e01b031983161461078c565b60608261156f5761156a8261173b565b61078c565b508061078c565b7ff0c57e16840df040f15088dc2f81fe391c3923bec73e23a9662efc9c229c6a005468010000000000000000900460ff166115c457604051631afcd79f60e31b815260040160405180910390fd5b565b6115ce611576565b7f9a37c2aa9d186a0969ff8a8267bf4e07e864c2f2768f5040949e28a624fb36006115fa600030611379565b506001600160a01b0382161561161757611615600083611379565b505b60005b84518110156116a6576116667fb09aa5aeb3702cfd50b6b62bc4532604938f21248a27a1d5ca736082b6819cc186838151811061165957611659611f50565b6020026020010151611379565b5061169d7ffd643c72710c63c0180259aba6b2d05451e3591a24e58b62239378085726f78386838151811061165957611659611f50565b5060010161161a565b5060005b83518110156116f2576116e97fd8aa0f3194971a2a116679f7c2090f6939c8d4e01a2a8d7e41d55e5351469e6385838151811061165957611659611f50565b506001016116aa565b50600181018590556040805160008152602081018790527f11c24f4ead16507c69ac467fbd5e4eed5fb5c699626d2cc6d66421df253886d5910160405180910390a15050505050565b80511561174b5780518082602001fd5b604051630a12f52160e11b815260040160405180910390fd5b80356001600160a01b038116811461177b57600080fd5b919050565b60008083601f84011261179257600080fd5b50813567ffffffffffffffff8111156117aa57600080fd5b6020830191508360208285010111156117c257600080fd5b9250929050565b600080600080600080600060c0888a0312156117e457600080fd5b6117ed88611764565b965060208801359550604088013567ffffffffffffffff81111561181057600080fd5b61181c8a828b01611780565b989b979a50986060810135976080820135975060a09091013595509350505050565b60006020828403121561185057600080fd5b81356001600160e01b03198116811461099f57600080fd5b60008060008060008060a0878903121561188157600080fd5b61188a87611764565b955060208701359450604087013567ffffffffffffffff8111156118ad57600080fd5b6118b989828a01611780565b979a9699509760608101359660809091013595509350505050565b6000602082840312156118e657600080fd5b5035919050565b634e487b7160e01b600052604160045260246000fd5b604051601f8201601f1916810167ffffffffffffffff8111828210171561192c5761192c6118ed565b604052919050565b600082601f83011261194557600080fd5b813567ffffffffffffffff81111561195f5761195f6118ed565b611972601f8201601f1916602001611903565b81815284602083860101111561198757600080fd5b816020850160208301376000918101602001919091529392505050565b600080600080608085870312156119ba57600080fd5b6119c385611764565b93506119d160208601611764565b925060408501359150606085013567ffffffffffffffff8111156119f457600080fd5b611a0087828801611934565b91505092959194509250565b60008060408385031215611a1f57600080fd5b82359150611a2f60208401611764565b90509250929050565b634e487b7160e01b600052602160045260246000fd5b6020810160048310611a7057634e487b7160e01b600052602160045260246000fd5b91905290565b60008083601f840112611a8857600080fd5b50813567ffffffffffffffff811115611aa057600080fd5b6020830191508360208260051b85010111156117c257600080fd5b600080600080600080600080600060c08a8c031215611ad957600080fd5b893567ffffffffffffffff811115611af057600080fd5b611afc8c828d01611a76565b909a5098505060208a013567ffffffffffffffff811115611b1c57600080fd5b611b288c828d01611a76565b90985096505060408a013567ffffffffffffffff811115611b4857600080fd5b611b548c828d01611a76565b9a9d999c50979a969997986060880135976080810135975060a0013595509350505050565b60008060008060008060008060a0898b031215611b9557600080fd5b883567ffffffffffffffff811115611bac57600080fd5b611bb88b828c01611a76565b909950975050602089013567ffffffffffffffff811115611bd857600080fd5b611be48b828c01611a76565b909750955050604089013567ffffffffffffffff811115611c0457600080fd5b611c108b828c01611a76565b999c989b509699959896976060870135966080013595509350505050565b600067ffffffffffffffff821115611c4857611c486118ed565b5060051b60200190565b600082601f830112611c6357600080fd5b8135611c76611c7182611c2e565b611903565b8082825260208201915060208360051b860101925085831115611c9857600080fd5b602085015b83811015611cb5578035835260209283019201611c9d565b5095945050505050565b600080600080600060a08688031215611cd757600080fd5b611ce086611764565b9450611cee60208701611764565b9350604086013567ffffffffffffffff811115611d0a57600080fd5b611d1688828901611c52565b935050606086013567ffffffffffffffff811115611d3357600080fd5b611d3f88828901611c52565b925050608086013567ffffffffffffffff811115611d5c57600080fd5b611d6888828901611934565b9150509295509295909350565b600082601f830112611d8657600080fd5b8135611d94611c7182611c2e565b8082825260208201915060208360051b860101925085831115611db657600080fd5b602085015b83811015611cb557611dcc81611764565b835260209283019201611dbb565b60008060008060808587031215611df057600080fd5b84359350602085013567ffffffffffffffff811115611e0e57600080fd5b611e1a87828801611d75565b935050604085013567ffffffffffffffff811115611e3757600080fd5b611e4387828801611d75565b925050611e5260608601611764565b905092959194509250565b600080600080600060a08688031215611e7557600080fd5b611e7e86611764565b9450611e8c60208701611764565b93506040860135925060608601359150608086013567ffffffffffffffff811115611d5c57600080fd5b81835281816020850137506000828201602090810191909152601f909101601f19169091010190565b6001600160a01b038716815285602082015260a060408201526000611f0860a083018688611eb6565b60608301949094525060800152949350505050565b6001600160a01b0385168152836020820152606060408201526000611f46606083018486611eb6565b9695505050505050565b634e487b7160e01b600052603260045260246000fd5b600060208284031215611f7857600080fd5b61099f82611764565b6000808335601e19843603018112611f9857600080fd5b83018035915067ffffffffffffffff821115611fb357600080fd5b6020019150368190038213156117c257600080fd5b60008383855260208501945060208460051b8201018360005b8681101561205657838303601f19018852813536879003601e1901811261200757600080fd5b860160208101903567ffffffffffffffff81111561202457600080fd5b80360382131561203357600080fd5b61203e858284611eb6565b60209a8b019a90955093909301925050600101611fe1565b50909695505050505050565b60a0808252810188905260008960c08301825b8b8110156120a3576001600160a01b0361208e84611764565b16825260209283019290910190600101612075565b5083810360208501528881527f07ffffffffffffffffffffffffffffffffffffffffffffffffffffffffffffff8911156120dc57600080fd5b8860051b9150818a602083013701828103602090810160408501526121049082018789611fc8565b60608401959095525050608001529695505050505050565b8082018082111561078c57634e487b7160e01b600052601160045260246000fd5b818382376000910190815291905056fea164736f6c634300081b000a",
  "linkReferences": {},
  "deployedLinkReferences": {}
}