{
  "_format": "hh-sol-artifact-1",
  "contractName": "DAOCommitteeOwnerTestBed",
  "sourceName": "contracts/dao/DAOCommitteeOwnerTestBed.sol",
  "abi": [
    {
      "anonymous": false,
      "inputs": [
        {
          "indexed": false,
          "internalType": "uint256",
          "name": "newReward",
          "type": "uint256"
        }
      ],
      "name": "ActivityRewardChanged",
      "type": "event"
    },
    {
      "anonymous": false,
      "inputs": [
        {
          "indexed": true,
          "internalType": "bytes32",
          "name": "role",
          "type": "bytes32"
        },
        {
          "indexed": true,
          "internalType": "bytes32",
          "name": "previousAdminRole",
          "type": "bytes32"
        },
        {
          "indexed": true,
          "internalType": "bytes32",
          "name": "newAdminRole",
          "type": "bytes32"
        }
      ],
      "name": "RoleAdminChanged",
      "type": "event"
    },
    {
      "anonymous": false,
      "inputs": [
        {
          "indexed": true,
          "internalType": "bytes32",
          "name": "role",
          "type": "bytes32"
        },
        {
          "indexed": true,
          "internalType": "address",
          "name": "account",
          "type": "address"
        },
        {
          "indexed": true,
          "internalType": "address",
          "name": "sender",
          "type": "address"
        }
      ],
      "name": "RoleGranted",
      "type": "event"
    },
    {
      "anonymous": false,
      "inputs": [
        {
          "indexed": true,
          "internalType": "bytes32",
          "name": "role",
          "type": "bytes32"
        },
        {
          "indexed": true,
          "internalType": "address",
          "name": "account",
          "type": "address"
        },
        {
          "indexed": true,
          "internalType": "address",
          "name": "sender",
          "type": "address"
        }
      ],
      "name": "RoleRevoked",
      "type": "event"
    },
    {
      "inputs": [],
      "name": "DEFAULT_ADMIN_ROLE",
      "outputs": [
        {
          "internalType": "bytes32",
          "name": "",
          "type": "bytes32"
        }
      ],
      "stateMutability": "view",
      "type": "function"
    },
    {
      "inputs": [],
      "name": "activityRewardPerSecond",
      "outputs": [
        {
          "internalType": "uint256",
          "name": "",
          "type": "uint256"
        }
      ],
      "stateMutability": "view",
      "type": "function"
    },
    {
      "inputs": [],
      "name": "agendaManager",
      "outputs": [
        {
          "internalType": "contract IDAOAgendaManager",
          "name": "",
          "type": "address"
        }
      ],
      "stateMutability": "view",
      "type": "function"
    },
    {
      "inputs": [],
      "name": "candidateAddOnFactory",
      "outputs": [
        {
          "internalType": "address",
          "name": "",
          "type": "address"
        }
      ],
      "stateMutability": "view",
      "type": "function"
    },
    {
      "inputs": [
        {
          "internalType": "address",
          "name": "_candidate",
          "type": "address"
        }
      ],
      "name": "candidateContract",
      "outputs": [
        {
          "internalType": "address",
          "name": "",
          "type": "address"
        }
      ],
      "stateMutability": "view",
      "type": "function"
    },
    {
      "inputs": [],
      "name": "candidateFactory",
      "outputs": [
        {
          "internalType": "contract ICandidateFactory",
          "name": "",
          "type": "address"
        }
      ],
      "stateMutability": "view",
      "type": "function"
    },
    {
      "inputs": [
        {
          "internalType": "address",
          "name": "_candidate",
          "type": "address"
        }
      ],
      "name": "candidateInfos",
      "outputs": [
        {
          "components": [
            {
              "internalType": "address",
              "name": "candidateContract",
              "type": "address"
            },
            {
              "internalType": "uint256",
              "name": "indexMembers",
              "type": "uint256"
            },
            {
              "internalType": "uint128",
              "name": "memberJoinedTime",
              "type": "uint128"
            },
            {
              "internalType": "uint128",
              "name": "rewardPeriod",
              "type": "uint128"
            },
            {
              "internalType": "uint128",
              "name": "claimedTimestamp",
              "type": "uint128"
            }
          ],
          "internalType": "struct StorageStateCommittee.CandidateInfo",
          "name": "",
          "type": "tuple"
        }
      ],
      "stateMutability": "view",
      "type": "function"
    },
    {
      "inputs": [
        {
          "internalType": "uint256",
          "name": "",
          "type": "uint256"
        }
      ],
      "name": "candidates",
      "outputs": [
        {
          "internalType": "address",
          "name": "",
          "type": "address"
        }
      ],
      "stateMutability": "view",
      "type": "function"
    },
    {
      "inputs": [],
      "name": "daoVault",
      "outputs": [
        {
          "internalType": "contract IDAOVault",
          "name": "",
          "type": "address"
        }
      ],
      "stateMutability": "view",
      "type": "function"
    },
    {
      "inputs": [
        {
          "internalType": "bytes32",
          "name": "role",
          "type": "bytes32"
        }
      ],
      "name": "getRoleAdmin",
      "outputs": [
        {
          "internalType": "bytes32",
          "name": "",
          "type": "bytes32"
        }
      ],
      "stateMutability": "view",
      "type": "function"
    },
    {
      "inputs": [
        {
          "internalType": "bytes32",
          "name": "role",
          "type": "bytes32"
        },
        {
          "internalType": "uint256",
          "name": "index",
          "type": "uint256"
        }
      ],
      "name": "getRoleMember",
      "outputs": [
        {
          "internalType": "address",
          "name": "",
          "type": "address"
        }
      ],
      "stateMutability": "view",
      "type": "function"
    },
    {
      "inputs": [
        {
          "internalType": "bytes32",
          "name": "role",
          "type": "bytes32"
        }
      ],
      "name": "getRoleMemberCount",
      "outputs": [
        {
          "internalType": "uint256",
          "name": "",
          "type": "uint256"
        }
      ],
      "stateMutability": "view",
      "type": "function"
    },
    {
      "inputs": [
        {
          "internalType": "bytes32",
          "name": "role",
          "type": "bytes32"
        },
        {
          "internalType": "address",
          "name": "account",
          "type": "address"
        }
      ],
      "name": "grantRole",
      "outputs": [],
      "stateMutability": "nonpayable",
      "type": "function"
    },
    {
      "inputs": [
        {
          "internalType": "bytes32",
          "name": "role",
          "type": "bytes32"
        },
        {
          "internalType": "address",
          "name": "account",
          "type": "address"
        }
      ],
      "name": "hasRole",
      "outputs": [
        {
          "internalType": "bool",
          "name": "",
          "type": "bool"
        }
      ],
      "stateMutability": "view",
      "type": "function"
    },
    {
      "inputs": [
        {
          "internalType": "address",
          "name": "_candidate",
          "type": "address"
        }
      ],
      "name": "isMember",
      "outputs": [
        {
          "internalType": "bool",
          "name": "",
          "type": "bool"
        }
      ],
      "stateMutability": "view",
      "type": "function"
    },
    {
      "inputs": [],
      "name": "layer2Manager",
      "outputs": [
        {
          "internalType": "address",
          "name": "",
          "type": "address"
        }
      ],
      "stateMutability": "view",
      "type": "function"
    },
    {
      "inputs": [],
      "name": "layer2Registry",
      "outputs": [
        {
          "internalType": "contract ILayer2Registry",
          "name": "",
          "type": "address"
        }
      ],
      "stateMutability": "view",
      "type": "function"
    },
    {
      "inputs": [],
      "name": "maxMember",
      "outputs": [
        {
          "internalType": "uint256",
          "name": "",
          "type": "uint256"
        }
      ],
      "stateMutability": "view",
      "type": "function"
    },
    {
      "inputs": [
        {
          "internalType": "uint256",
          "name": "",
          "type": "uint256"
        }
      ],
      "name": "members",
      "outputs": [
        {
          "internalType": "address",
          "name": "",
          "type": "address"
        }
      ],
      "stateMutability": "view",
      "type": "function"
    },
    {
      "inputs": [],
      "name": "pauseProxy",
      "outputs": [
        {
          "internalType": "bool",
          "name": "",
          "type": "bool"
        }
      ],
      "stateMutability": "view",
      "type": "function"
    },
    {
      "inputs": [],
      "name": "quorum",
      "outputs": [
        {
          "internalType": "uint256",
          "name": "",
          "type": "uint256"
        }
      ],
      "stateMutability": "view",
      "type": "function"
    },
    {
      "inputs": [
        {
          "internalType": "bytes32",
          "name": "role",
          "type": "bytes32"
        },
        {
          "internalType": "address",
          "name": "account",
          "type": "address"
        }
      ],
      "name": "renounceRole",
      "outputs": [],
      "stateMutability": "nonpayable",
      "type": "function"
    },
    {
      "inputs": [
        {
          "internalType": "bytes32",
          "name": "role",
          "type": "bytes32"
        },
        {
          "internalType": "address",
          "name": "account",
          "type": "address"
        }
      ],
      "name": "revokeRole",
      "outputs": [],
      "stateMutability": "nonpayable",
      "type": "function"
    },
    {
      "inputs": [],
      "name": "seigManager",
      "outputs": [
        {
          "internalType": "contract ISeigManager",
          "name": "",
          "type": "address"
        }
      ],
      "stateMutability": "view",
      "type": "function"
    },
    {
      "inputs": [
        {
          "internalType": "uint256",
          "name": "_value",
          "type": "uint256"
        }
      ],
      "name": "setActivityRewardPerSecond",
      "outputs": [],
      "stateMutability": "nonpayable",
      "type": "function"
    },
    {
      "inputs": [
        {
          "internalType": "address",
          "name": "_agendaManager",
          "type": "address"
        }
      ],
      "name": "setAgendaManager",
      "outputs": [],
      "stateMutability": "nonpayable",
      "type": "function"
    },
    {
      "inputs": [
        {
          "internalType": "address",
          "name": "_candidateFactory",
          "type": "address"
        }
      ],
      "name": "setCandidateFactory",
      "outputs": [],
      "stateMutability": "nonpayable",
      "type": "function"
    },
    {
      "inputs": [
        {
          "internalType": "address[]",
          "name": "_candidateContracts",
          "type": "address[]"
        },
        {
          "internalType": "address",
          "name": "_committee",
          "type": "address"
        }
      ],
      "name": "setCandidatesCommittee",
      "outputs": [],
      "stateMutability": "nonpayable",
      "type": "function"
    },
    {
      "inputs": [
        {
          "internalType": "address[]",
          "name": "_candidateContracts",
          "type": "address[]"
        },
        {
          "internalType": "address",
          "name": "_seigManager",
          "type": "address"
        }
      ],
      "name": "setCandidatesSeigManager",
      "outputs": [],
      "stateMutability": "nonpayable",
      "type": "function"
    },
    {
      "inputs": [
        {
          "internalType": "uint256",
          "name": "_fees",
          "type": "uint256"
        }
      ],
      "name": "setCreateAgendaFees",
      "outputs": [],
      "stateMutability": "nonpayable",
      "type": "function"
    },
    {
      "inputs": [
        {
          "internalType": "address",
          "name": "_daoVault",
          "type": "address"
        }
      ],
      "name": "setDaoVault",
      "outputs": [],
      "stateMutability": "nonpayable",
      "type": "function"
    },
    {
      "inputs": [
        {
          "internalType": "uint256",
          "name": "_executingPeriodSeconds",
          "type": "uint256"
        }
      ],
      "name": "setExecutingPeriodSeconds",
      "outputs": [],
      "stateMutability": "nonpayable",
      "type": "function"
    },
    {
      "inputs": [
        {
          "internalType": "address",
          "name": "_layer2Registry",
          "type": "address"
        }
      ],
      "name": "setLayer2Registry",
      "outputs": [],
      "stateMutability": "nonpayable",
      "type": "function"
    },
    {
      "inputs": [
        {
          "internalType": "uint256",
          "name": "_minimumNoticePeriod",
          "type": "uint256"
        }
      ],
      "name": "setMinimumNoticePeriodSeconds",
      "outputs": [],
      "stateMutability": "nonpayable",
      "type": "function"
    },
    {
      "inputs": [
        {
          "internalType": "uint256",
          "name": "_minimumVotingPeriod",
          "type": "uint256"
        }
      ],
      "name": "setMinimumVotingPeriodSeconds",
      "outputs": [],
      "stateMutability": "nonpayable",
      "type": "function"
    },
    {
      "inputs": [
        {
          "internalType": "address",
          "name": "_seigManager",
          "type": "address"
        }
      ],
      "name": "setSeigManager",
      "outputs": [],
      "stateMutability": "nonpayable",
      "type": "function"
    },
    {
      "inputs": [],
      "name": "setSeigPause",
      "outputs": [],
      "stateMutability": "nonpayable",
      "type": "function"
    },
    {
      "inputs": [],
      "name": "setSeigUnpause",
      "outputs": [],
      "stateMutability": "nonpayable",
      "type": "function"
    },
    {
      "inputs": [
        {
          "internalType": "address",
          "name": "token",
          "type": "address"
        },
        {
          "internalType": "address",
          "name": "account",
          "type": "address"
        }
      ],
      "name": "setTargetAddMinter",
      "outputs": [],
      "stateMutability": "nonpayable",
      "type": "function"
    },
    {
      "inputs": [
        {
          "internalType": "address",
          "name": "target",
          "type": "address"
        },
        {
          "internalType": "uint256",
          "name": "globalWithdrawalDelay_",
          "type": "uint256"
        }
      ],
      "name": "setTargetGlobalWithdrawalDelay",
      "outputs": [],
      "stateMutability": "nonpayable",
      "type": "function"
    },
    {
      "inputs": [
        {
          "internalType": "address",
          "name": "target",
          "type": "address"
        },
        {
          "internalType": "bytes32",
          "name": "_role",
          "type": "bytes32"
        },
        {
          "internalType": "address",
          "name": "account",
          "type": "address"
        }
      ],
      "name": "setTargetGrantRole",
      "outputs": [],
      "stateMutability": "nonpayable",
      "type": "function"
    },
    {
      "inputs": [
        {
          "internalType": "address",
          "name": "target",
          "type": "address"
        },
        {
          "internalType": "address",
          "name": "_seigManager",
          "type": "address"
        }
      ],
      "name": "setTargetSeigManager",
      "outputs": [],
      "stateMutability": "nonpayable",
      "type": "function"
    },
    {
      "inputs": [
        {
          "internalType": "address",
          "name": "target",
          "type": "address"
        },
        {
          "internalType": "address",
          "name": "tonAddr",
          "type": "address"
        }
      ],
      "name": "setTargetSetTON",
      "outputs": [],
      "stateMutability": "nonpayable",
      "type": "function"
    },
    {
      "inputs": [
        {
          "internalType": "address",
          "name": "target",
          "type": "address"
        },
        {
          "internalType": "address",
          "name": "logic",
          "type": "address"
        }
      ],
      "name": "setTargetUpgradeTo",
      "outputs": [],
      "stateMutability": "nonpayable",
      "type": "function"
    },
    {
      "inputs": [
        {
          "internalType": "address",
          "name": "_ton",
          "type": "address"
        }
      ],
      "name": "setTon",
      "outputs": [],
      "stateMutability": "nonpayable",
      "type": "function"
    },
    {
      "inputs": [
        {
          "internalType": "address",
          "name": "_wton",
          "type": "address"
        }
      ],
      "name": "setWton",
      "outputs": [],
      "stateMutability": "nonpayable",
      "type": "function"
    },
    {
      "inputs": [
        {
          "internalType": "bytes4",
          "name": "interfaceId",
          "type": "bytes4"
        }
      ],
      "name": "supportsInterface",
      "outputs": [
        {
          "internalType": "bool",
          "name": "",
          "type": "bool"
        }
      ],
      "stateMutability": "view",
      "type": "function"
    },
    {
      "inputs": [],
      "name": "ton",
      "outputs": [
        {
          "internalType": "address",
          "name": "",
          "type": "address"
        }
      ],
      "stateMutability": "view",
      "type": "function"
    },
    {
      "inputs": [],
      "name": "wton",
      "outputs": [
        {
          "internalType": "address",
          "name": "",
          "type": "address"
        }
      ],
      "stateMutability": "view",
      "type": "function"
    }
  ],
  "bytecode": "0x60808060405234610052576301ffc9a760e01b600052600d6020527f49c01d976ca1c616ed1de1469e98d664903a805642011c315785aa325a483c71805460ff19166001179055611c0690816100588239f35b600080fdfe6080604081815260048036101561001557600080fd5b600092833560e01c90816301ffc9a7146117995750806303e3c9ac1461177a578063047f52f2146116fb5780630ef646ad1461164957806316b5d5bd146116205780631703a018146116015783816323d09fdf1461156757508063248a9ca31461153d57806327fd92fd146115145780632af60ff4146114905780632e011c1e146113c95780632f2ff15d146112ca5780633477ee2e1461127057806336568abe146111de5783816338d1b17c146111415750806349c39f14146110c25780634b799db1146110435780634d288fec14610fc45780635903bd6c14610f9b578381635c43030f14610ec3575080635daf08ca14610e695780635ebe762214610dd357806363a8fd8914610dac578063651d08cd14610d71578381636915429514610c7c57816369b1227a14610be2575080636fb7f55814610bb95780637536281914610b905780637657f20a14610b115780637f33163614610af25783816381bfe42c14610a6c575080638d62d94914610a435780639010d07c146109a657806391d1485414610951578381639d65b531146108b6578163a1f3ac2a1461081b57508063a217fddf14610800578063a230c524146107b8578063aef2c5851461072c57838163b4f69b6a1461069257508063b5dd11581461066957838163c0bc5304146105cf57508063ca15c873146105a8578063cc48b94714610580578063cf2a239c14610559578063d547741f1461049b578063e9e07dc9146103dc57838163ebf97be614610333575063efd579791461025057600080fd5b82913461032f578260031936011261032f578051632474521560e21b8152828101849052336024820152602081604481305afa908115610325579061029c9185916102f7575b50611ab7565b6005546001600160a01b031691823b156102f2578151638456cb5960e01b81529284918491829084905af19081156102e957506102d65750f35b6102df90611a4d565b6102e65780f35b80fd5b513d84823e3d90fd5b505050fd5b610318915060203d811161031e575b6103108183611a7d565b810190611a9f565b38610296565b503d610306565b82513d86823e3d90fd5b5050fd5b9290503461032f578060031936011261032f5761034e6117d5565b6103566117eb565b908251632474521560e21b81528585820152336024820152602081604481305afa9081156103d2579061038f9187916102f75750611ab7565b6001600160a01b03908116803b156103ce5785928360249286519788958694631b2ce7f360e11b865216908401525af19081156102e957506102d65750f35b8580fd5b84513d88823e3d90fd5b5034610497576060366003190112610497576103f66117d5565b916044356001600160a01b0381811693918490036104925785948351632474521560e21b81528684820152336024820152602081604481305afa90811561048857906104489188916102f75750611ab7565b1692833b1561048457604485928385519687948593632f2ff15d60e01b85526024359085015260248401525af19081156102e957506102d65750f35b8480fd5b85513d89823e3d90fd5b600080fd5b8280fd5b5082903461055557826003193601126105555780356104b86117eb565b91818452600c6020526002858520015484526104e63386862060019160005201602052604060002054151590565b156104f95750906104f691611891565b80f35b608490602086519162461bcd60e51b8352820152603060248201527f416363657373436f6e74726f6c3a2073656e646572206d75737420626520616e60448201526f2061646d696e20746f207265766f6b6560801b6064820152fd5b5080fd5b50346104975782600319360112610497575490516001600160a01b03909116815260209150f35b505034610555578160031936011261055557905490516001600160a01b039091168152602090f35b5034610497576020366003190112610497576020928291358152600c845220549051908152f35b9290503461032f57602036600319011261032f578051632474521560e21b8152828101849052336024820152602081604481305afa908115610325579061061c9185916102f75750611ab7565b6002546001600160a01b031691610634831515611b98565b823b156102f2578392602484928451958693849263302f14c160e21b84528035908401525af19081156102e957506102d65750f35b50503461055557816003193601126105555760035490516001600160a01b039091168152602090f35b9290503461032f57602036600319011261032f578051632474521560e21b8152828101849052336024820152602081604481305afa90811561032557906106df9185916102f75750611ab7565b6002546001600160a01b0316916106f7831515611b98565b823b156102f25783926024849284519586938492635a7b4db560e11b84528035908401525af19081156102e957506102d65750f35b5034610497576020366003190112610497576107466117d5565b8251632474521560e21b815291820184905233602483015290602081604481305afa9081156107ab5761078192935084916102f75750611ab7565b6001600160a01b0316610795811515611b03565b6001600160601b0360a01b601054161760105580f35b50505051903d90823e3d90fd5b505034610555576020366003190112610555576020916001600160801b039060029083906001600160a01b036107ec6117d5565b168152600986522001541615159051908152f35b50503461055557816003193601126105555751908152602090f35b9290503461032f578060031936011261032f576108366117d5565b61083e6117eb565b908251632474521560e21b81528585820152336024820152602081604481305afa9081156103d257906108779187916102f75750611ab7565b6001600160a01b03908116803b156103ce5785928360249286519788958694633b2bf90560e11b865216908401525af19081156102e957506102d65750f35b9290503461032f578060031936011261032f576108d16117d5565b6108d96117eb565b908251632474521560e21b81528585820152336024820152602081604481305afa9081156103d257906109129187916102f75750611ab7565b6001600160a01b03908116803b156103ce5785928360249286519788958694634c1d96ab60e11b865216908401525af19081156102e957506102d65750f35b503461049757816003193601126104975761099d90826020946109726117eb565b92358152600c8652206001600160a01b03909116600090815260019091016020526040902054151590565b90519015158152f35b50829034610555578260031936011261055557826024359282358152600c602052209082825411156109f5576020846109df8585611801565b905491519160018060a01b039160031b1c168152f35b608490602085519162461bcd60e51b8352820152602260248201527f456e756d657261626c655365743a20696e646578206f7574206f6620626f756e604482015261647360f01b6064820152fd5b50503461055557816003193601126105555760105490516001600160a01b039091168152602090f35b9290503461032f578260031936011261032f578051632474521560e21b8152828101849052336024820152602081604481305afa9081156103255790610ab89185916102f75750611ab7565b6005546001600160a01b031691823b156102f2578151631fa5d41d60e11b81529284918491829084905af19081156102e957506102d65750f35b505034610555578160031936011261055557602090600b549051908152f35b503461049757602036600319011261049757610b2b6117d5565b8251632474521560e21b815291820184905233602483015290602081604481305afa9081156107ab57610b6692935084916102f75750611ab7565b6001600160a01b0316610b7a811515611b03565b6001600160601b0360a01b600554161760055580f35b50503461055557816003193601126105555760125490516001600160a01b039091168152602090f35b50503461055557816003193601126105555760055490516001600160a01b039091168152602090f35b9290503461032f57602036600319011261032f578051632474521560e21b8152828101849052336024820152602081604481305afa9081156103255790610c2f9185916102f75750611ab7565b6002546001600160a01b031691610c47831515611b98565b823b156102f257839260248492845195869384926334d8913d60e11b84528035908401525af19081156102e957506102d65750f35b9290503461032f57610c8d3661182f565b83959291955190632474521560e21b825283868301526024913383820152602081604481305afa908115610d675790610ccc9186916102f75750611ab7565b6001600160a01b0390811692610ce3841515611b03565b845b888110610cf0578580f35b82610d04610cff838c86611b74565b611b84565b16803b15610d63578686868b838c519586948593633b2bf90560e11b85528401525af18015610d5957908791610d45575b5050610d4090611b4f565b610ce5565b610d4e90611a4d565b6103ce578538610d35565b88513d89823e3d90fd5b8680fd5b86513d87823e3d90fd5b505034610555576020366003190112610555576020916001600160a01b0390829082610d9b6117d5565b168152600985522054169051908152f35b50503461055557816003193601126105555760209060ff600e5460a01c1690519015158152f35b5034610497576020366003190112610497578151632474521560e21b8152808201849052336024820152903590602081604481305afa9081156107ab5792610e46602093927f42bd846b3ff7895ea031753b0d8256b4816edaea44f7d8d9db60ea83b8ee5e4b958791610e525750611ab7565b81600b5551908152a180f35b6103189150853d811161031e576103108183611a7d565b503461049757602036600319011261049757356007548110156104975760076000527fa66cc928b5edb82af9bd49922954155ab7b0942694bea4ce44661d9a8736c688015490516001600160a01b03909116815260209150f35b9290503461032f57610ed43661182f565b83959291955190632474521560e21b825283868301526024913383820152602081604481305afa908115610d675790610f139186916102f75750611ab7565b6001600160a01b0390811692610f2a841515611b03565b845b888110610f37578580f35b82610f46610cff838c86611b74565b16803b15610d63578686868b838c519586948593635eed720760e11b85528401525af18015610d5957908791610f87575b5050610f8290611b4f565b610f2c565b610f9090611a4d565b6103ce578538610f77565b50503461055557816003193601126105555760015490516001600160a01b039091168152602090f35b503461049757602036600319011261049757610fde6117d5565b8251632474521560e21b815291820184905233602483015290602081604481305afa9081156107ab5761101992935084916102f75750611ab7565b6001600160a01b031661102d811515611b03565b6001600160601b0360a01b600054161760005580f35b50346104975760203660031901126104975761105d6117d5565b8251632474521560e21b815291820184905233602483015290602081604481305afa9081156107ab5761109892935084916102f75750611ab7565b6001600160a01b03166110ac811515611b03565b6001600160601b0360a01b600154161760015580f35b5034610497576020366003190112610497576110dc6117d5565b8251632474521560e21b815291820184905233602483015290602081604481305afa9081156107ab5761111792935084916102f75750611ab7565b6001600160a01b031661112b811515611b03565b6001600160601b0360a01b600254161760025580f35b9290503461032f578060031936011261032f5761115c6117d5565b8151632474521560e21b8152838101859052336024820152602081604481305afa9081156111d457906111959186916102f75750611ab7565b6001600160a01b031691823b156102f2578392602484928451958693849263a79da34160e01b84528435908401525af19081156102e957506102d65750f35b83513d87823e3d90fd5b508290346105555782600319360112610555576111f96117eb565b90336001600160a01b0383160361121557906104f69135611891565b608490602085519162461bcd60e51b8352820152602f60248201527f416363657373436f6e74726f6c3a2063616e206f6e6c792072656e6f756e636560448201526e103937b632b9903337b91039b2b63360891b6064820152fd5b503461049757602036600319011261049757356006548110156104975760066000527ff652222313e28459528d920b65115c16c04f3efc82aaedc97be59f3f377c0d3f015490516001600160a01b03909116815260209150f35b50346104975781600319360112610497578035916112e66117eb565b91838552600c6020526002828620015485526113143383872060019160005201602052604060002054151590565b1561136f5750828452600c60205283206001600160a01b039091169061133b9082906118e7565b611343578280f35b33917f2f8788117e7eff1d82e926ec794901d17c78024a50270940304540a733656f0d8480a438808280f35b6020608492519162461bcd60e51b8352820152602f60248201527f416363657373436f6e74726f6c3a2073656e646572206d75737420626520616e60448201526e0818591b5a5b881d1bc819dc985b9d608a1b6064820152fd5b50503461055557602036600319011261055557608060a0926003836113ec6117d5565b92808583516113fa81611a61565b82815282602082015282858201528260608201520152600180881b03809416815260096020522084519261142d84611a61565b8154169485845260018201549160208501928352600281015492828601906001600160801b03978880978195828916865260608b0198841c8952015416970196875283519889525160208901525116908601525116606084015251166080820152f35b509034610497576020366003190112610497576114ab6117d5565b908051632474521560e21b81528484820152336024820152602081604481305afa91821561150b5750906114e59185916102f75750611ab7565b6001600160a01b03166114f9811515611b03565b81546001600160a01b03191617905580f35b513d86823e3d90fd5b50503461055557816003193601126105555760025490516001600160a01b039091168152602090f35b50346104975760203660031901126104975781602093600292358152600c85522001549051908152f35b9290503461032f57602036600319011261032f578051632474521560e21b8152828101849052336024820152602081604481305afa90811561032557906115b49185916102f75750611ab7565b6002546001600160a01b0316916115cc831515611b98565b823b156102f257839260248492845195869384926323d09fdf60e01b84528035908401525af19081156102e957506102d65750f35b505034610555578160031936011261055557602090600a549051908152f35b50503461055557816003193601126105555760115490516001600160a01b039091168152602090f35b509034610497578060031936011261049757826116646117d5565b61166c6117eb565b8351632474521560e21b8152858101849052336024820152602081604481305afa9081156116f157906116a59185916102f75750611ab7565b6001600160a01b0391821690813b156116ed578360249286519788958694631186d27960e11b865216908401525af19081156102e957506116e4575080f35b6104f690611a4d565b8380fd5b85513d86823e3d90fd5b5034610497576020366003190112610497576117156117d5565b8251632474521560e21b815291820184905233602483015290602081604481305afa9081156107ab5761175092935084916102f75750611ab7565b6001600160a01b0316611764811515611b03565b6001600160601b0360a01b600354161760035580f35b5050346105555781600319360112610555576020906008549051908152f35b92919050346116ed5760203660031901126116ed573563ffffffff60e01b81168091036116ed578352600d602090815292205460ff1615158152f35b600435906001600160a01b038216820361049257565b602435906001600160a01b038216820361049257565b80548210156118195760005260206000200190600090565b634e487b7160e01b600052603260045260246000fd5b9060406003198301126104925760043567ffffffffffffffff9283821161049257806023830112156104925781600401359384116104925760248460051b83010111610492576024908101929190356001600160a01b03811681036104925790565b6000818152600c6020526040902090916001600160a01b0316906118b6908290611970565b6118be575050565b33917ff6391f5c32d9c69d2a47ea670b442974b53935d1edc7fd64eb21e047a839171b600080a4565b60008281526001820160205260409020546119695780549068010000000000000000821015611953578261193c611925846001809601855584611801565b819391549060031b91821b91600019901b19161790565b905580549260005201602052604060002055600190565b634e487b7160e01b600052604160045260246000fd5b5050600090565b90600182019060009281845282602052604084205490811515600014611a465760001991808301818111611a32578254848101908111611a1e57906119cb6119bb6119259386611801565b90549060031b1c92839286611801565b9055865284602052604086205580548015611a0a578201916119ed8383611801565b909182549160031b1b191690555582526020526040812055600190565b634e487b7160e01b86526031600452602486fd5b634e487b7160e01b88526011600452602488fd5b634e487b7160e01b87526011600452602487fd5b5050505090565b67ffffffffffffffff811161195357604052565b60a0810190811067ffffffffffffffff82111761195357604052565b90601f8019910116810190811067ffffffffffffffff82111761195357604052565b90816020910312610492575180151581036104925790565b15611abe57565b60405162461bcd60e51b815260206004820152601760248201527f44414f436f6d6d69747465653a206e6f742061646d696e0000000000000000006044820152606490fd5b15611b0a57565b60405162461bcd60e51b815260206004820152601a60248201527f44414f436f6d6d69747465653a207a65726f20616464726573730000000000006044820152606490fd5b6000198114611b5e5760010190565b634e487b7160e01b600052601160045260246000fd5b91908110156118195760051b0190565b356001600160a01b03811681036104925790565b15611b9f57565b60405162461bcd60e51b815260206004820152602c60248201527f53746f726167655374617465436f6d6d69747465653a204167656e64614d616e60448201526b61676572206973207a65726f60a01b6064820152608490fdfea164736f6c6343000813000a",
  "linkReferences": {},
  "deployedLinkReferences": {}
}