{
  "_format": "hh-sol-artifact-1",
  "contractName": "DAOCommitteeOwnerTestBed",
  "sourceName": "contracts/dao/DAOCommitteeOwnerTestBed.sol",
  "abi": [
    {
      "anonymous": false,
      "inputs": [
        {
          "indexed": false,
          "internalType": "uint256",
          "name": "newReward",
          "type": "uint256"
        }
      ],
      "name": "ActivityRewardChanged",
      "type": "event"
    },
    {
      "anonymous": false,
      "inputs": [
        {
          "indexed": true,
          "internalType": "bytes32",
          "name": "role",
          "type": "bytes32"
        },
        {
          "indexed": true,
          "internalType": "bytes32",
          "name": "previousAdminRole",
          "type": "bytes32"
        },
        {
          "indexed": true,
          "internalType": "bytes32",
          "name": "newAdminRole",
          "type": "bytes32"
        }
      ],
      "name": "RoleAdminChanged",
      "type": "event"
    },
    {
      "anonymous": false,
      "inputs": [
        {
          "indexed": true,
          "internalType": "bytes32",
          "name": "role",
          "type": "bytes32"
        },
        {
          "indexed": true,
          "internalType": "address",
          "name": "account",
          "type": "address"
        },
        {
          "indexed": true,
          "internalType": "address",
          "name": "sender",
          "type": "address"
        }
      ],
      "name": "RoleGranted",
      "type": "event"
    },
    {
      "anonymous": false,
      "inputs": [
        {
          "indexed": true,
          "internalType": "bytes32",
          "name": "role",
          "type": "bytes32"
        },
        {
          "indexed": true,
          "internalType": "address",
          "name": "account",
          "type": "address"
        },
        {
          "indexed": true,
          "internalType": "address",
          "name": "sender",
          "type": "address"
        }
      ],
      "name": "RoleRevoked",
      "type": "event"
    },
    {
      "inputs": [],
      "name": "DEFAULT_ADMIN_ROLE",
      "outputs": [
        {
          "internalType": "bytes32",
          "name": "",
          "type": "bytes32"
        }
      ],
      "stateMutability": "view",
      "type": "function"
    },
    {
      "inputs": [],
      "name": "activityRewardPerSecond",
      "outputs": [
        {
          "internalType": "uint256",
          "name": "",
          "type": "uint256"
        }
      ],
      "stateMutability": "view",
      "type": "function"
    },
    {
      "inputs": [],
      "name": "agendaManager",
      "outputs": [
        {
          "internalType": "contract IDAOAgendaManager",
          "name": "",
          "type": "address"
        }
      ],
      "stateMutability": "view",
      "type": "function"
    },
    {
      "inputs": [
        {
          "internalType": "address",
          "name": "_candidate",
          "type": "address"
        }
      ],
      "name": "candidateContract",
      "outputs": [
        {
          "internalType": "address",
          "name": "",
          "type": "address"
        }
      ],
      "stateMutability": "view",
      "type": "function"
    },
    {
      "inputs": [],
      "name": "candidateFactory",
      "outputs": [
        {
          "internalType": "contract ICandidateFactory",
          "name": "",
          "type": "address"
        }
      ],
      "stateMutability": "view",
      "type": "function"
    },
    {
      "inputs": [
        {
          "internalType": "address",
          "name": "_candidate",
          "type": "address"
        }
      ],
      "name": "candidateInfos",
      "outputs": [
        {
          "components": [
            {
              "internalType": "address",
              "name": "candidateContract",
              "type": "address"
            },
            {
              "internalType": "uint256",
              "name": "indexMembers",
              "type": "uint256"
            },
            {
              "internalType": "uint128",
              "name": "memberJoinedTime",
              "type": "uint128"
            },
            {
              "internalType": "uint128",
              "name": "rewardPeriod",
              "type": "uint128"
            },
            {
              "internalType": "uint128",
              "name": "claimedTimestamp",
              "type": "uint128"
            }
          ],
          "internalType": "struct StorageStateCommittee.CandidateInfo",
          "name": "",
          "type": "tuple"
        }
      ],
      "stateMutability": "view",
      "type": "function"
    },
    {
      "inputs": [
        {
          "internalType": "uint256",
          "name": "",
          "type": "uint256"
        }
      ],
      "name": "candidates",
      "outputs": [
        {
          "internalType": "address",
          "name": "",
          "type": "address"
        }
      ],
      "stateMutability": "view",
      "type": "function"
    },
    {
      "inputs": [],
      "name": "daoVault",
      "outputs": [
        {
          "internalType": "contract IDAOVault",
          "name": "",
          "type": "address"
        }
      ],
      "stateMutability": "view",
      "type": "function"
    },
    {
      "inputs": [
        {
          "internalType": "bytes32",
          "name": "role",
          "type": "bytes32"
        }
      ],
      "name": "getRoleAdmin",
      "outputs": [
        {
          "internalType": "bytes32",
          "name": "",
          "type": "bytes32"
        }
      ],
      "stateMutability": "view",
      "type": "function"
    },
    {
      "inputs": [
        {
          "internalType": "bytes32",
          "name": "role",
          "type": "bytes32"
        },
        {
          "internalType": "uint256",
          "name": "index",
          "type": "uint256"
        }
      ],
      "name": "getRoleMember",
      "outputs": [
        {
          "internalType": "address",
          "name": "",
          "type": "address"
        }
      ],
      "stateMutability": "view",
      "type": "function"
    },
    {
      "inputs": [
        {
          "internalType": "bytes32",
          "name": "role",
          "type": "bytes32"
        }
      ],
      "name": "getRoleMemberCount",
      "outputs": [
        {
          "internalType": "uint256",
          "name": "",
          "type": "uint256"
        }
      ],
      "stateMutability": "view",
      "type": "function"
    },
    {
      "inputs": [
        {
          "internalType": "bytes32",
          "name": "role",
          "type": "bytes32"
        },
        {
          "internalType": "address",
          "name": "account",
          "type": "address"
        }
      ],
      "name": "grantRole",
      "outputs": [],
      "stateMutability": "nonpayable",
      "type": "function"
    },
    {
      "inputs": [
        {
          "internalType": "bytes32",
          "name": "role",
          "type": "bytes32"
        },
        {
          "internalType": "address",
          "name": "account",
          "type": "address"
        }
      ],
      "name": "hasRole",
      "outputs": [
        {
          "internalType": "bool",
          "name": "",
          "type": "bool"
        }
      ],
      "stateMutability": "view",
      "type": "function"
    },
    {
      "inputs": [
        {
          "internalType": "address",
          "name": "_candidate",
          "type": "address"
        }
      ],
      "name": "isMember",
      "outputs": [
        {
          "internalType": "bool",
          "name": "",
          "type": "bool"
        }
      ],
      "stateMutability": "view",
      "type": "function"
    },
    {
      "inputs": [],
      "name": "layer2Registry",
      "outputs": [
        {
          "internalType": "contract ILayer2Registry",
          "name": "",
          "type": "address"
        }
      ],
      "stateMutability": "view",
      "type": "function"
    },
    {
      "inputs": [],
      "name": "maxMember",
      "outputs": [
        {
          "internalType": "uint256",
          "name": "",
          "type": "uint256"
        }
      ],
      "stateMutability": "view",
      "type": "function"
    },
    {
      "inputs": [
        {
          "internalType": "uint256",
          "name": "",
          "type": "uint256"
        }
      ],
      "name": "members",
      "outputs": [
        {
          "internalType": "address",
          "name": "",
          "type": "address"
        }
      ],
      "stateMutability": "view",
      "type": "function"
    },
    {
      "inputs": [],
      "name": "pauseProxy",
      "outputs": [
        {
          "internalType": "bool",
          "name": "",
          "type": "bool"
        }
      ],
      "stateMutability": "view",
      "type": "function"
    },
    {
      "inputs": [],
      "name": "quorum",
      "outputs": [
        {
          "internalType": "uint256",
          "name": "",
          "type": "uint256"
        }
      ],
      "stateMutability": "view",
      "type": "function"
    },
    {
      "inputs": [
        {
          "internalType": "bytes32",
          "name": "role",
          "type": "bytes32"
        },
        {
          "internalType": "address",
          "name": "account",
          "type": "address"
        }
      ],
      "name": "renounceRole",
      "outputs": [],
      "stateMutability": "nonpayable",
      "type": "function"
    },
    {
      "inputs": [
        {
          "internalType": "bytes32",
          "name": "role",
          "type": "bytes32"
        },
        {
          "internalType": "address",
          "name": "account",
          "type": "address"
        }
      ],
      "name": "revokeRole",
      "outputs": [],
      "stateMutability": "nonpayable",
      "type": "function"
    },
    {
      "inputs": [],
      "name": "seigManager",
      "outputs": [
        {
          "internalType": "contract ISeigManager",
          "name": "",
          "type": "address"
        }
      ],
      "stateMutability": "view",
      "type": "function"
    },
    {
      "inputs": [
        {
          "internalType": "uint256",
          "name": "_value",
          "type": "uint256"
        }
      ],
      "name": "setActivityRewardPerSecond",
      "outputs": [],
      "stateMutability": "nonpayable",
      "type": "function"
    },
    {
      "inputs": [
        {
          "internalType": "address",
          "name": "_agendaManager",
          "type": "address"
        }
      ],
      "name": "setAgendaManager",
      "outputs": [],
      "stateMutability": "nonpayable",
      "type": "function"
    },
    {
      "inputs": [
        {
          "internalType": "address",
          "name": "_candidateFactory",
          "type": "address"
        }
      ],
      "name": "setCandidateFactory",
      "outputs": [],
      "stateMutability": "nonpayable",
      "type": "function"
    },
    {
      "inputs": [
        {
          "internalType": "address[]",
          "name": "_candidateContracts",
          "type": "address[]"
        },
        {
          "internalType": "address",
          "name": "_committee",
          "type": "address"
        }
      ],
      "name": "setCandidatesCommittee",
      "outputs": [],
      "stateMutability": "nonpayable",
      "type": "function"
    },
    {
      "inputs": [
        {
          "internalType": "address[]",
          "name": "_candidateContracts",
          "type": "address[]"
        },
        {
          "internalType": "address",
          "name": "_seigManager",
          "type": "address"
        }
      ],
      "name": "setCandidatesSeigManager",
      "outputs": [],
      "stateMutability": "nonpayable",
      "type": "function"
    },
    {
      "inputs": [
        {
          "internalType": "uint256",
          "name": "_fees",
          "type": "uint256"
        }
      ],
      "name": "setCreateAgendaFees",
      "outputs": [],
      "stateMutability": "nonpayable",
      "type": "function"
    },
    {
      "inputs": [
        {
          "internalType": "address",
          "name": "_daoVault",
          "type": "address"
        }
      ],
      "name": "setDaoVault",
      "outputs": [],
      "stateMutability": "nonpayable",
      "type": "function"
    },
    {
      "inputs": [
        {
          "internalType": "uint256",
          "name": "_executingPeriodSeconds",
          "type": "uint256"
        }
      ],
      "name": "setExecutingPeriodSeconds",
      "outputs": [],
      "stateMutability": "nonpayable",
      "type": "function"
    },
    {
      "inputs": [
        {
          "internalType": "address",
          "name": "_layer2Registry",
          "type": "address"
        }
      ],
      "name": "setLayer2Registry",
      "outputs": [],
      "stateMutability": "nonpayable",
      "type": "function"
    },
    {
      "inputs": [
        {
          "internalType": "uint256",
          "name": "_minimumNoticePeriod",
          "type": "uint256"
        }
      ],
      "name": "setMinimumNoticePeriodSeconds",
      "outputs": [],
      "stateMutability": "nonpayable",
      "type": "function"
    },
    {
      "inputs": [
        {
          "internalType": "uint256",
          "name": "_minimumVotingPeriod",
          "type": "uint256"
        }
      ],
      "name": "setMinimumVotingPeriodSeconds",
      "outputs": [],
      "stateMutability": "nonpayable",
      "type": "function"
    },
    {
      "inputs": [
        {
          "internalType": "address",
          "name": "_seigManager",
          "type": "address"
        }
      ],
      "name": "setSeigManager",
      "outputs": [],
      "stateMutability": "nonpayable",
      "type": "function"
    },
    {
      "inputs": [],
      "name": "setSeigPause",
      "outputs": [],
      "stateMutability": "nonpayable",
      "type": "function"
    },
    {
      "inputs": [],
      "name": "setSeigUnpause",
      "outputs": [],
      "stateMutability": "nonpayable",
      "type": "function"
    },
    {
      "inputs": [
        {
          "internalType": "address",
          "name": "token",
          "type": "address"
        },
        {
          "internalType": "address",
          "name": "account",
          "type": "address"
        }
      ],
      "name": "setTargetAddMinter",
      "outputs": [],
      "stateMutability": "nonpayable",
      "type": "function"
    },
    {
      "inputs": [
        {
          "internalType": "address",
          "name": "target",
          "type": "address"
        },
        {
          "internalType": "uint256",
          "name": "globalWithdrawalDelay_",
          "type": "uint256"
        }
      ],
      "name": "setTargetGlobalWithdrawalDelay",
      "outputs": [],
      "stateMutability": "nonpayable",
      "type": "function"
    },
    {
      "inputs": [
        {
          "internalType": "address",
          "name": "target",
          "type": "address"
        },
        {
          "internalType": "bytes32",
          "name": "_role",
          "type": "bytes32"
        },
        {
          "internalType": "address",
          "name": "account",
          "type": "address"
        }
      ],
      "name": "setTargetGrantRole",
      "outputs": [],
      "stateMutability": "nonpayable",
      "type": "function"
    },
    {
      "inputs": [
        {
          "internalType": "address",
          "name": "target",
          "type": "address"
        },
        {
          "internalType": "address",
          "name": "_seigManager",
          "type": "address"
        }
      ],
      "name": "setTargetSeigManager",
      "outputs": [],
      "stateMutability": "nonpayable",
      "type": "function"
    },
    {
      "inputs": [
        {
          "internalType": "address",
          "name": "target",
          "type": "address"
        },
        {
          "internalType": "address",
          "name": "tonAddr",
          "type": "address"
        }
      ],
      "name": "setTargetSetTON",
      "outputs": [],
      "stateMutability": "nonpayable",
      "type": "function"
    },
    {
      "inputs": [
        {
          "internalType": "address",
          "name": "target",
          "type": "address"
        },
        {
          "internalType": "address",
          "name": "logic",
          "type": "address"
        }
      ],
      "name": "setTargetUpgradeTo",
      "outputs": [],
      "stateMutability": "nonpayable",
      "type": "function"
    },
    {
      "inputs": [
        {
          "internalType": "address",
          "name": "_ton",
          "type": "address"
        }
      ],
      "name": "setTon",
      "outputs": [],
      "stateMutability": "nonpayable",
      "type": "function"
    },
    {
      "inputs": [
        {
          "internalType": "address",
          "name": "_wton",
          "type": "address"
        }
      ],
      "name": "setWton",
      "outputs": [],
      "stateMutability": "nonpayable",
      "type": "function"
    },
    {
      "inputs": [
        {
          "internalType": "bytes4",
          "name": "interfaceId",
          "type": "bytes4"
        }
      ],
      "name": "supportsInterface",
      "outputs": [
        {
          "internalType": "bool",
          "name": "",
          "type": "bool"
        }
      ],
      "stateMutability": "view",
      "type": "function"
    },
    {
      "inputs": [],
      "name": "ton",
      "outputs": [
        {
          "internalType": "address",
          "name": "",
          "type": "address"
        }
      ],
      "stateMutability": "view",
      "type": "function"
    },
    {
      "inputs": [],
      "name": "wton",
      "outputs": [
        {
          "internalType": "address",
          "name": "",
          "type": "address"
        }
      ],
      "stateMutability": "view",
      "type": "function"
    }
  ],
  "bytecode": "0x608060405234801561001057600080fd5b506100216301ffc9a760e01b610026565b6100a9565b6001600160e01b031980821690036100845760405162461bcd60e51b815260206004820152601c60248201527f4552433136353a20696e76616c696420696e7465726661636520696400000000604482015260640160405180910390fd5b6001600160e01b0319166000908152600d60205260409020805460ff19166001179055565b61277d80620000b96000396000f3fe608060405234801561001057600080fd5b50600436106103155760003560e01c806369154295116101a7578063a230c524116100ee578063cc48b94711610097578063e9e07dc911610071578063e9e07dc9146107e6578063ebf97be6146107f9578063efd579791461080c57600080fd5b8063cc48b947146107ad578063cf2a239c146107c0578063d547741f146107d357600080fd5b8063b5dd1158116100c8578063b5dd115814610774578063c0bc530414610787578063ca15c8731461079a57600080fd5b8063a230c5241461070e578063aef2c5851461074e578063b4f69b6a1461076157600080fd5b80638d62d949116101505780639d65b5311161012a5780639d65b531146106e0578063a1f3ac2a146106f3578063a217fddf1461070657600080fd5b80638d62d949146106a75780639010d07c146106ba57806391d14854146106cd57600080fd5b80637657f20a116101815780637657f20a146106835780637f3316361461069657806381bfe42c1461069f57600080fd5b8063691542951461064a57806369b1227a1461065d5780636fb7f5581461067057600080fd5b80633477ee2e1161026b5780635903bd6c116102145780635ebe7622116101ee5780635ebe7622146105e657806363a8fd89146105f9578063651d08cd1461061e57600080fd5b80635903bd6c146105ad5780635c43030f146105c05780635daf08ca146105d357600080fd5b806349c39f141161024557806349c39f14146105745780634b799db1146105875780634d288fec1461059a57600080fd5b80633477ee2e1461053b57806336568abe1461054e57806338d1b17c1461056157600080fd5b806323d09fdf116102cd5780632af60ff4116102a75780632af60ff4146104055780632e011c1e146104185780632f2ff15d1461052857600080fd5b806323d09fdf146103a4578063248a9ca3146103b757806327fd92fd146103da57600080fd5b8063047f52f2116102fe578063047f52f2146103735780630ef646ad146103885780631703a0181461039b57600080fd5b806301ffc9a71461031a57806303e3c9ac1461035c575b600080fd5b6103476103283660046124b3565b6001600160e01b0319166000908152600d602052604090205460ff1690565b60405190151581526020015b60405180910390f35b61036560085481565b604051908152602001610353565b610386610381366004612500565b610814565b005b61038661039636600461251b565b610921565b610365600a5481565b6103866103b236600461254e565b610a21565b6103656103c536600461254e565b6000908152600c602052604090206002015490565b6002546103ed906001600160a01b031681565b6040516001600160a01b039091168152602001610353565b610386610413366004612500565b610b90565b6104ca610426366004612500565b6040805160a0808201835260008083526020808401829052838501829052606080850183905260809485018390526001600160a01b0396871683526009825291859020855193840186528054909616835260018601549083015260028501546fffffffffffffffffffffffffffffffff8082169584019590955270010000000000000000000000000000000090048416908201526003909301549091169082015290565b6040805182516001600160a01b0316815260208084015190820152828201516fffffffffffffffffffffffffffffffff908116928201929092526060808401518316908201526080928301519091169181019190915260a001610353565b610386610536366004612567565b610c98565b6103ed61054936600461254e565b610d34565b61038661055c366004612567565b610d5e565b61038661056f36600461258a565b610de6565b610386610582366004612500565b610eb3565b610386610595366004612500565b610fbb565b6103866105a8366004612500565b6110c3565b6001546103ed906001600160a01b031681565b6103866105ce3660046125b4565b6111cb565b6103ed6105e136600461254e565b611352565b6103866105f436600461254e565b611362565b600e546103479074010000000000000000000000000000000000000000900460ff1681565b6103ed61062c366004612500565b6001600160a01b039081166000908152600960205260409020541690565b6103866106583660046125b4565b61143d565b61038661066b36600461254e565b6115c4565b6005546103ed906001600160a01b031681565b610386610691366004612500565b611702565b610365600b5481565b61038661180a565b6010546103ed906001600160a01b031681565b6103ed6106c8366004612638565b611914565b6103476106db366004612567565b611935565b6103866106ee36600461251b565b61194d565b61038661070136600461251b565b611a1b565b610365600081565b61034761071c366004612500565b6001600160a01b03166000908152600960205260409020600201546fffffffffffffffffffffffffffffffff16151590565b61038661075c366004612500565b611ae9565b61038661076f36600461254e565b611bf1565b6003546103ed906001600160a01b031681565b61038661079536600461254e565b611d2f565b6103656107a836600461254e565b611e6d565b6000546103ed906001600160a01b031681565b6004546103ed906001600160a01b031681565b6103866107e1366004612567565b611e84565b6103866107f436600461265a565b611f12565b61038661080736600461251b565b612019565b6103866120e7565b604051632474521560e21b81526000600482015233602482015230906391d1485490604401602060405180830381865afa158015610856573d6000803e3d6000fd5b505050506040513d601f19601f8201168201806040525081019061087a919061268d565b6108b95760405162461bcd60e51b8152602060048201526017602482015260008051602061273183398151915260448201526064015b60405180910390fd5b806001600160a01b0381166108fe5760405162461bcd60e51b815260206004820152601a602482015260008051602061275183398151915260448201526064016108b0565b50600380546001600160a01b0319166001600160a01b0392909216919091179055565b604051632474521560e21b81526000600482015233602482015230906391d1485490604401602060405180830381865afa158015610963573d6000803e3d6000fd5b505050506040513d601f19601f82011682018060405250810190610987919061268d565b6109c15760405162461bcd60e51b8152602060048201526017602482015260008051602061273183398151915260448201526064016108b0565b604051631186d27960e11b81526001600160a01b03828116600483015283169063230da4f2906024015b600060405180830381600087803b158015610a0557600080fd5b505af1158015610a19573d6000803e3d6000fd5b505050505050565b604051632474521560e21b81526000600482015233602482015230906391d1485490604401602060405180830381865afa158015610a63573d6000803e3d6000fd5b505050506040513d601f19601f82011682018060405250810190610a87919061268d565b610ac15760405162461bcd60e51b8152602060048201526017602482015260008051602061273183398151915260448201526064016108b0565b6002546001600160a01b0316610b2e5760405162461bcd60e51b815260206004820152602c60248201527f53746f726167655374617465436f6d6d69747465653a204167656e64614d616e60448201526b61676572206973207a65726f60a01b60648201526084016108b0565b6002546040516323d09fdf60e01b8152600481018390526001600160a01b03909116906323d09fdf906024015b600060405180830381600087803b158015610b7557600080fd5b505af1158015610b89573d6000803e3d6000fd5b5050505050565b604051632474521560e21b81526000600482015233602482015230906391d1485490604401602060405180830381865afa158015610bd2573d6000803e3d6000fd5b505050506040513d601f19601f82011682018060405250810190610bf6919061268d565b610c305760405162461bcd60e51b8152602060048201526017602482015260008051602061273183398151915260448201526064016108b0565b806001600160a01b038116610c755760405162461bcd60e51b815260206004820152601a602482015260008051602061275183398151915260448201526064016108b0565b50600480546001600160a01b0319166001600160a01b0392909216919091179055565b6000828152600c6020526040902060020154610cb49033611935565b610d265760405162461bcd60e51b815260206004820152602f60248201527f416363657373436f6e74726f6c3a2073656e646572206d75737420626520616e60448201527f2061646d696e20746f206772616e74000000000000000000000000000000000060648201526084016108b0565b610d3082826121d7565b5050565b60068181548110610d4457600080fd5b6000918252602090912001546001600160a01b0316905081565b6001600160a01b0381163314610ddc5760405162461bcd60e51b815260206004820152602f60248201527f416363657373436f6e74726f6c3a2063616e206f6e6c792072656e6f756e636560448201527f20726f6c657320666f722073656c66000000000000000000000000000000000060648201526084016108b0565b610d308282612230565b604051632474521560e21b81526000600482015233602482015230906391d1485490604401602060405180830381865afa158015610e28573d6000803e3d6000fd5b505050506040513d601f19601f82011682018060405250810190610e4c919061268d565b610e865760405162461bcd60e51b8152602060048201526017602482015260008051602061273183398151915260448201526064016108b0565b60405163a79da34160e01b8152600481018290526001600160a01b0383169063a79da341906024016109eb565b604051632474521560e21b81526000600482015233602482015230906391d1485490604401602060405180830381865afa158015610ef5573d6000803e3d6000fd5b505050506040513d601f19601f82011682018060405250810190610f19919061268d565b610f535760405162461bcd60e51b8152602060048201526017602482015260008051602061273183398151915260448201526064016108b0565b806001600160a01b038116610f985760405162461bcd60e51b815260206004820152601a602482015260008051602061275183398151915260448201526064016108b0565b50600280546001600160a01b0319166001600160a01b0392909216919091179055565b604051632474521560e21b81526000600482015233602482015230906391d1485490604401602060405180830381865afa158015610ffd573d6000803e3d6000fd5b505050506040513d601f19601f82011682018060405250810190611021919061268d565b61105b5760405162461bcd60e51b8152602060048201526017602482015260008051602061273183398151915260448201526064016108b0565b806001600160a01b0381166110a05760405162461bcd60e51b815260206004820152601a602482015260008051602061275183398151915260448201526064016108b0565b50600180546001600160a01b0319166001600160a01b0392909216919091179055565b604051632474521560e21b81526000600482015233602482015230906391d1485490604401602060405180830381865afa158015611105573d6000803e3d6000fd5b505050506040513d601f19601f82011682018060405250810190611129919061268d565b6111635760405162461bcd60e51b8152602060048201526017602482015260008051602061273183398151915260448201526064016108b0565b806001600160a01b0381166111a85760405162461bcd60e51b815260206004820152601a602482015260008051602061275183398151915260448201526064016108b0565b50600080546001600160a01b0319166001600160a01b0392909216919091179055565b604051632474521560e21b81526000600482015233602482015230906391d1485490604401602060405180830381865afa15801561120d573d6000803e3d6000fd5b505050506040513d601f19601f82011682018060405250810190611231919061268d565b61126b5760405162461bcd60e51b8152602060048201526017602482015260008051602061273183398151915260448201526064016108b0565b806001600160a01b0381166112b05760405162461bcd60e51b815260206004820152601a602482015260008051602061275183398151915260448201526064016108b0565b60005b83811015610b89578484828181106112cd576112cd6126af565b90506020020160208101906112e29190612500565b604051635eed720760e11b81526001600160a01b038581166004830152919091169063bddae40e90602401600060405180830381600087803b15801561132757600080fd5b505af115801561133b573d6000803e3d6000fd5b50505050808061134a906126db565b9150506112b3565b60078181548110610d4457600080fd5b604051632474521560e21b81526000600482015233602482015230906391d1485490604401602060405180830381865afa1580156113a4573d6000803e3d6000fd5b505050506040513d601f19601f820116820180604052508101906113c8919061268d565b6114025760405162461bcd60e51b8152602060048201526017602482015260008051602061273183398151915260448201526064016108b0565b600b8190556040518181527f42bd846b3ff7895ea031753b0d8256b4816edaea44f7d8d9db60ea83b8ee5e4b9060200160405180910390a150565b604051632474521560e21b81526000600482015233602482015230906391d1485490604401602060405180830381865afa15801561147f573d6000803e3d6000fd5b505050506040513d601f19601f820116820180604052508101906114a3919061268d565b6114dd5760405162461bcd60e51b8152602060048201526017602482015260008051602061273183398151915260448201526064016108b0565b806001600160a01b0381166115225760405162461bcd60e51b815260206004820152601a602482015260008051602061275183398151915260448201526064016108b0565b60005b83811015610b895784848281811061153f5761153f6126af565b90506020020160208101906115549190612500565b604051633b2bf90560e11b81526001600160a01b0385811660048301529190911690637657f20a90602401600060405180830381600087803b15801561159957600080fd5b505af11580156115ad573d6000803e3d6000fd5b5050505080806115bc906126db565b915050611525565b604051632474521560e21b81526000600482015233602482015230906391d1485490604401602060405180830381865afa158015611606573d6000803e3d6000fd5b505050506040513d601f19601f8201168201806040525081019061162a919061268d565b6116645760405162461bcd60e51b8152602060048201526017602482015260008051602061273183398151915260448201526064016108b0565b6002546001600160a01b03166116d15760405162461bcd60e51b815260206004820152602c60248201527f53746f726167655374617465436f6d6d69747465653a204167656e64614d616e60448201526b61676572206973207a65726f60a01b60648201526084016108b0565b6002546040516334d8913d60e11b8152600481018390526001600160a01b03909116906369b1227a90602401610b5b565b604051632474521560e21b81526000600482015233602482015230906391d1485490604401602060405180830381865afa158015611744573d6000803e3d6000fd5b505050506040513d601f19601f82011682018060405250810190611768919061268d565b6117a25760405162461bcd60e51b8152602060048201526017602482015260008051602061273183398151915260448201526064016108b0565b806001600160a01b0381166117e75760405162461bcd60e51b815260206004820152601a602482015260008051602061275183398151915260448201526064016108b0565b50600580546001600160a01b0319166001600160a01b0392909216919091179055565b604051632474521560e21b81526000600482015233602482015230906391d1485490604401602060405180830381865afa15801561184c573d6000803e3d6000fd5b505050506040513d601f19601f82011682018060405250810190611870919061268d565b6118aa5760405162461bcd60e51b8152602060048201526017602482015260008051602061273183398151915260448201526064016108b0565b600560009054906101000a90046001600160a01b03166001600160a01b0316633f4ba83a6040518163ffffffff1660e01b8152600401600060405180830381600087803b1580156118fa57600080fd5b505af115801561190e573d6000803e3d6000fd5b50505050565b6000828152600c6020526040812061192c9083612289565b90505b92915050565b6000828152600c6020526040812061192c9083612295565b604051632474521560e21b81526000600482015233602482015230906391d1485490604401602060405180830381865afa15801561198f573d6000803e3d6000fd5b505050506040513d601f19601f820116820180604052508101906119b3919061268d565b6119ed5760405162461bcd60e51b8152602060048201526017602482015260008051602061273183398151915260448201526064016108b0565b604051634c1d96ab60e11b81526001600160a01b03828116600483015283169063983b2d56906024016109eb565b604051632474521560e21b81526000600482015233602482015230906391d1485490604401602060405180830381865afa158015611a5d573d6000803e3d6000fd5b505050506040513d601f19601f82011682018060405250810190611a81919061268d565b611abb5760405162461bcd60e51b8152602060048201526017602482015260008051602061273183398151915260448201526064016108b0565b604051633b2bf90560e11b81526001600160a01b038281166004830152831690637657f20a906024016109eb565b604051632474521560e21b81526000600482015233602482015230906391d1485490604401602060405180830381865afa158015611b2b573d6000803e3d6000fd5b505050506040513d601f19601f82011682018060405250810190611b4f919061268d565b611b895760405162461bcd60e51b8152602060048201526017602482015260008051602061273183398151915260448201526064016108b0565b806001600160a01b038116611bce5760405162461bcd60e51b815260206004820152601a602482015260008051602061275183398151915260448201526064016108b0565b50601080546001600160a01b0319166001600160a01b0392909216919091179055565b604051632474521560e21b81526000600482015233602482015230906391d1485490604401602060405180830381865afa158015611c33573d6000803e3d6000fd5b505050506040513d601f19601f82011682018060405250810190611c57919061268d565b611c915760405162461bcd60e51b8152602060048201526017602482015260008051602061273183398151915260448201526064016108b0565b6002546001600160a01b0316611cfe5760405162461bcd60e51b815260206004820152602c60248201527f53746f726167655374617465436f6d6d69747465653a204167656e64614d616e60448201526b61676572206973207a65726f60a01b60648201526084016108b0565b600254604051635a7b4db560e11b8152600481018390526001600160a01b039091169063b4f69b6a90602401610b5b565b604051632474521560e21b81526000600482015233602482015230906391d1485490604401602060405180830381865afa158015611d71573d6000803e3d6000fd5b505050506040513d601f19601f82011682018060405250810190611d95919061268d565b611dcf5760405162461bcd60e51b8152602060048201526017602482015260008051602061273183398151915260448201526064016108b0565b6002546001600160a01b0316611e3c5760405162461bcd60e51b815260206004820152602c60248201527f53746f726167655374617465436f6d6d69747465653a204167656e64614d616e60448201526b61676572206973207a65726f60a01b60648201526084016108b0565b60025460405163302f14c160e21b8152600481018390526001600160a01b039091169063c0bc530490602401610b5b565b6000818152600c6020526040812061192f906122b7565b6000828152600c6020526040902060020154611ea09033611935565b610ddc5760405162461bcd60e51b815260206004820152603060248201527f416363657373436f6e74726f6c3a2073656e646572206d75737420626520616e60448201527f2061646d696e20746f207265766f6b650000000000000000000000000000000060648201526084016108b0565b604051632474521560e21b81526000600482015233602482015230906391d1485490604401602060405180830381865afa158015611f54573d6000803e3d6000fd5b505050506040513d601f19601f82011682018060405250810190611f78919061268d565b611fb25760405162461bcd60e51b8152602060048201526017602482015260008051602061273183398151915260448201526064016108b0565b604051632f2ff15d60e01b8152600481018390526001600160a01b038281166024830152841690632f2ff15d90604401600060405180830381600087803b158015611ffc57600080fd5b505af1158015612010573d6000803e3d6000fd5b50505050505050565b604051632474521560e21b81526000600482015233602482015230906391d1485490604401602060405180830381865afa15801561205b573d6000803e3d6000fd5b505050506040513d601f19601f8201168201806040525081019061207f919061268d565b6120b95760405162461bcd60e51b8152602060048201526017602482015260008051602061273183398151915260448201526064016108b0565b604051631b2ce7f360e11b81526001600160a01b038281166004830152831690633659cfe6906024016109eb565b604051632474521560e21b81526000600482015233602482015230906391d1485490604401602060405180830381865afa158015612129573d6000803e3d6000fd5b505050506040513d601f19601f8201168201806040525081019061214d919061268d565b6121875760405162461bcd60e51b8152602060048201526017602482015260008051602061273183398151915260448201526064016108b0565b600560009054906101000a90046001600160a01b03166001600160a01b0316638456cb596040518163ffffffff1660e01b8152600401600060405180830381600087803b1580156118fa57600080fd5b6000828152600c602052604090206121ef90826122c1565b15610d305760405133906001600160a01b0383169084907f2f8788117e7eff1d82e926ec794901d17c78024a50270940304540a733656f0d90600090a45050565b6000828152600c6020526040902061224890826122d6565b15610d305760405133906001600160a01b0383169084907ff6391f5c32d9c69d2a47ea670b442974b53935d1edc7fd64eb21e047a839171b90600090a45050565b600061192c83836122eb565b6001600160a01b0381166000908152600183016020526040812054151561192c565b600061192f825490565b600061192c836001600160a01b038416612371565b600061192c836001600160a01b0384166123c0565b815460009082106123495760405162461bcd60e51b815260206004820152602260248201527f456e756d657261626c655365743a20696e646578206f7574206f6620626f756e604482015261647360f01b60648201526084016108b0565b82600001828154811061235e5761235e6126af565b9060005260206000200154905092915050565b60008181526001830160205260408120546123b85750815460018181018455600084815260208082209093018490558454848252828601909352604090209190915561192f565b50600061192f565b600081815260018301602052604081205480156124a95760006123e46001836126f4565b85549091506000906123f8906001906126f4565b90506000866000018281548110612411576124116126af565b9060005260206000200154905080876000018481548110612434576124346126af565b60009182526020909120015561244b836001612707565b6000828152600189016020526040902055865487908061246d5761246d61271a565b6001900381819060005260206000200160009055905586600101600087815260200190815260200160002060009055600194505050505061192f565b600091505061192f565b6000602082840312156124c557600080fd5b81356001600160e01b0319811681146124dd57600080fd5b9392505050565b80356001600160a01b03811681146124fb57600080fd5b919050565b60006020828403121561251257600080fd5b61192c826124e4565b6000806040838503121561252e57600080fd5b612537836124e4565b9150612545602084016124e4565b90509250929050565b60006020828403121561256057600080fd5b5035919050565b6000806040838503121561257a57600080fd5b82359150612545602084016124e4565b6000806040838503121561259d57600080fd5b6125a6836124e4565b946020939093013593505050565b6000806000604084860312156125c957600080fd5b833567ffffffffffffffff808211156125e157600080fd5b818601915086601f8301126125f557600080fd5b81358181111561260457600080fd5b8760208260051b850101111561261957600080fd5b60209283019550935061262f91860190506124e4565b90509250925092565b6000806040838503121561264b57600080fd5b50508035926020909101359150565b60008060006060848603121561266f57600080fd5b612678846124e4565b92506020840135915061262f604085016124e4565b60006020828403121561269f57600080fd5b815180151581146124dd57600080fd5b634e487b7160e01b600052603260045260246000fd5b634e487b7160e01b600052601160045260246000fd5b6000600182016126ed576126ed6126c5565b5060010190565b8181038181111561192f5761192f6126c5565b8082018082111561192f5761192f6126c5565b634e487b7160e01b600052603160045260246000fdfe44414f436f6d6d69747465653a206e6f742061646d696e00000000000000000044414f436f6d6d69747465653a207a65726f2061646472657373000000000000a164736f6c6343000813000a",
  "linkReferences": {},
  "deployedLinkReferences": {}
}