{
  "_format": "hh-sol-artifact-1",
  "contractName": "DAOCommitteeOwnerTestBed",
  "sourceName": "contracts/dao/DAOCommitteeOwnerTestBed.sol",
  "abi": [
    {
      "anonymous": false,
      "inputs": [
        {
          "indexed": false,
          "internalType": "uint256",
          "name": "newReward",
          "type": "uint256"
        }
      ],
      "name": "ActivityRewardChanged",
      "type": "event"
    },
    {
      "anonymous": false,
      "inputs": [
        {
          "indexed": true,
          "internalType": "bytes32",
          "name": "role",
          "type": "bytes32"
        },
        {
          "indexed": true,
          "internalType": "bytes32",
          "name": "previousAdminRole",
          "type": "bytes32"
        },
        {
          "indexed": true,
          "internalType": "bytes32",
          "name": "newAdminRole",
          "type": "bytes32"
        }
      ],
      "name": "RoleAdminChanged",
      "type": "event"
    },
    {
      "anonymous": false,
      "inputs": [
        {
          "indexed": true,
          "internalType": "bytes32",
          "name": "role",
          "type": "bytes32"
        },
        {
          "indexed": true,
          "internalType": "address",
          "name": "account",
          "type": "address"
        },
        {
          "indexed": true,
          "internalType": "address",
          "name": "sender",
          "type": "address"
        }
      ],
      "name": "RoleGranted",
      "type": "event"
    },
    {
      "anonymous": false,
      "inputs": [
        {
          "indexed": true,
          "internalType": "bytes32",
          "name": "role",
          "type": "bytes32"
        },
        {
          "indexed": true,
          "internalType": "address",
          "name": "account",
          "type": "address"
        },
        {
          "indexed": true,
          "internalType": "address",
          "name": "sender",
          "type": "address"
        }
      ],
      "name": "RoleRevoked",
      "type": "event"
    },
    {
      "inputs": [],
      "name": "DEFAULT_ADMIN_ROLE",
      "outputs": [
        {
          "internalType": "bytes32",
          "name": "",
          "type": "bytes32"
        }
      ],
      "stateMutability": "view",
      "type": "function"
    },
    {
      "inputs": [],
      "name": "activityRewardPerSecond",
      "outputs": [
        {
          "internalType": "uint256",
          "name": "",
          "type": "uint256"
        }
      ],
      "stateMutability": "view",
      "type": "function"
    },
    {
      "inputs": [],
      "name": "agendaManager",
      "outputs": [
        {
          "internalType": "contract IDAOAgendaManager",
          "name": "",
          "type": "address"
        }
      ],
      "stateMutability": "view",
      "type": "function"
    },
    {
      "inputs": [
        {
          "internalType": "address",
          "name": "_candidate",
          "type": "address"
        }
      ],
      "name": "candidateContract",
      "outputs": [
        {
          "internalType": "address",
          "name": "",
          "type": "address"
        }
      ],
      "stateMutability": "view",
      "type": "function"
    },
    {
      "inputs": [],
      "name": "candidateFactory",
      "outputs": [
        {
          "internalType": "contract ICandidateFactory",
          "name": "",
          "type": "address"
        }
      ],
      "stateMutability": "view",
      "type": "function"
    },
    {
      "inputs": [
        {
          "internalType": "address",
          "name": "_candidate",
          "type": "address"
        }
      ],
      "name": "candidateInfos",
      "outputs": [
        {
          "components": [
            {
              "internalType": "address",
              "name": "candidateContract",
              "type": "address"
            },
            {
              "internalType": "uint256",
              "name": "indexMembers",
              "type": "uint256"
            },
            {
              "internalType": "uint128",
              "name": "memberJoinedTime",
              "type": "uint128"
            },
            {
              "internalType": "uint128",
              "name": "rewardPeriod",
              "type": "uint128"
            },
            {
              "internalType": "uint128",
              "name": "claimedTimestamp",
              "type": "uint128"
            }
          ],
          "internalType": "struct StorageStateCommittee.CandidateInfo",
          "name": "",
          "type": "tuple"
        }
      ],
      "stateMutability": "view",
      "type": "function"
    },
    {
      "inputs": [
        {
          "internalType": "uint256",
          "name": "",
          "type": "uint256"
        }
      ],
      "name": "candidates",
      "outputs": [
        {
          "internalType": "address",
          "name": "",
          "type": "address"
        }
      ],
      "stateMutability": "view",
      "type": "function"
    },
    {
      "inputs": [],
      "name": "daoVault",
      "outputs": [
        {
          "internalType": "contract IDAOVault",
          "name": "",
          "type": "address"
        }
      ],
      "stateMutability": "view",
      "type": "function"
    },
    {
      "inputs": [
        {
          "internalType": "bytes32",
          "name": "role",
          "type": "bytes32"
        }
      ],
      "name": "getRoleAdmin",
      "outputs": [
        {
          "internalType": "bytes32",
          "name": "",
          "type": "bytes32"
        }
      ],
      "stateMutability": "view",
      "type": "function"
    },
    {
      "inputs": [
        {
          "internalType": "bytes32",
          "name": "role",
          "type": "bytes32"
        },
        {
          "internalType": "uint256",
          "name": "index",
          "type": "uint256"
        }
      ],
      "name": "getRoleMember",
      "outputs": [
        {
          "internalType": "address",
          "name": "",
          "type": "address"
        }
      ],
      "stateMutability": "view",
      "type": "function"
    },
    {
      "inputs": [
        {
          "internalType": "bytes32",
          "name": "role",
          "type": "bytes32"
        }
      ],
      "name": "getRoleMemberCount",
      "outputs": [
        {
          "internalType": "uint256",
          "name": "",
          "type": "uint256"
        }
      ],
      "stateMutability": "view",
      "type": "function"
    },
    {
      "inputs": [
        {
          "internalType": "bytes32",
          "name": "role",
          "type": "bytes32"
        },
        {
          "internalType": "address",
          "name": "account",
          "type": "address"
        }
      ],
      "name": "grantRole",
      "outputs": [],
      "stateMutability": "nonpayable",
      "type": "function"
    },
    {
      "inputs": [
        {
          "internalType": "bytes32",
          "name": "role",
          "type": "bytes32"
        },
        {
          "internalType": "address",
          "name": "account",
          "type": "address"
        }
      ],
      "name": "hasRole",
      "outputs": [
        {
          "internalType": "bool",
          "name": "",
          "type": "bool"
        }
      ],
      "stateMutability": "view",
      "type": "function"
    },
    {
      "inputs": [
        {
          "internalType": "address",
          "name": "_candidate",
          "type": "address"
        }
      ],
      "name": "isMember",
      "outputs": [
        {
          "internalType": "bool",
          "name": "",
          "type": "bool"
        }
      ],
      "stateMutability": "view",
      "type": "function"
    },
    {
      "inputs": [],
      "name": "layer2Registry",
      "outputs": [
        {
          "internalType": "contract ILayer2Registry",
          "name": "",
          "type": "address"
        }
      ],
      "stateMutability": "view",
      "type": "function"
    },
    {
      "inputs": [],
      "name": "maxMember",
      "outputs": [
        {
          "internalType": "uint256",
          "name": "",
          "type": "uint256"
        }
      ],
      "stateMutability": "view",
      "type": "function"
    },
    {
      "inputs": [
        {
          "internalType": "uint256",
          "name": "",
          "type": "uint256"
        }
      ],
      "name": "members",
      "outputs": [
        {
          "internalType": "address",
          "name": "",
          "type": "address"
        }
      ],
      "stateMutability": "view",
      "type": "function"
    },
    {
      "inputs": [],
      "name": "pauseProxy",
      "outputs": [
        {
          "internalType": "bool",
          "name": "",
          "type": "bool"
        }
      ],
      "stateMutability": "view",
      "type": "function"
    },
    {
      "inputs": [],
      "name": "quorum",
      "outputs": [
        {
          "internalType": "uint256",
          "name": "",
          "type": "uint256"
        }
      ],
      "stateMutability": "view",
      "type": "function"
    },
    {
      "inputs": [
        {
          "internalType": "bytes32",
          "name": "role",
          "type": "bytes32"
        },
        {
          "internalType": "address",
          "name": "account",
          "type": "address"
        }
      ],
      "name": "renounceRole",
      "outputs": [],
      "stateMutability": "nonpayable",
      "type": "function"
    },
    {
      "inputs": [
        {
          "internalType": "bytes32",
          "name": "role",
          "type": "bytes32"
        },
        {
          "internalType": "address",
          "name": "account",
          "type": "address"
        }
      ],
      "name": "revokeRole",
      "outputs": [],
      "stateMutability": "nonpayable",
      "type": "function"
    },
    {
      "inputs": [],
      "name": "seigManager",
      "outputs": [
        {
          "internalType": "contract ISeigManager",
          "name": "",
          "type": "address"
        }
      ],
      "stateMutability": "view",
      "type": "function"
    },
    {
      "inputs": [
        {
          "internalType": "uint256",
          "name": "_value",
          "type": "uint256"
        }
      ],
      "name": "setActivityRewardPerSecond",
      "outputs": [],
      "stateMutability": "nonpayable",
      "type": "function"
    },
    {
      "inputs": [
        {
          "internalType": "address",
          "name": "_agendaManager",
          "type": "address"
        }
      ],
      "name": "setAgendaManager",
      "outputs": [],
      "stateMutability": "nonpayable",
      "type": "function"
    },
    {
      "inputs": [
        {
          "internalType": "address",
          "name": "_candidateFactory",
          "type": "address"
        }
      ],
      "name": "setCandidateFactory",
      "outputs": [],
      "stateMutability": "nonpayable",
      "type": "function"
    },
    {
      "inputs": [
        {
          "internalType": "address[]",
          "name": "_candidateContracts",
          "type": "address[]"
        },
        {
          "internalType": "address",
          "name": "_committee",
          "type": "address"
        }
      ],
      "name": "setCandidatesCommittee",
      "outputs": [],
      "stateMutability": "nonpayable",
      "type": "function"
    },
    {
      "inputs": [
        {
          "internalType": "address[]",
          "name": "_candidateContracts",
          "type": "address[]"
        },
        {
          "internalType": "address",
          "name": "_seigManager",
          "type": "address"
        }
      ],
      "name": "setCandidatesSeigManager",
      "outputs": [],
      "stateMutability": "nonpayable",
      "type": "function"
    },
    {
      "inputs": [
        {
          "internalType": "uint256",
          "name": "_fees",
          "type": "uint256"
        }
      ],
      "name": "setCreateAgendaFees",
      "outputs": [],
      "stateMutability": "nonpayable",
      "type": "function"
    },
    {
      "inputs": [
        {
          "internalType": "address",
          "name": "_daoVault",
          "type": "address"
        }
      ],
      "name": "setDaoVault",
      "outputs": [],
      "stateMutability": "nonpayable",
      "type": "function"
    },
    {
      "inputs": [
        {
          "internalType": "uint256",
          "name": "_executingPeriodSeconds",
          "type": "uint256"
        }
      ],
      "name": "setExecutingPeriodSeconds",
      "outputs": [],
      "stateMutability": "nonpayable",
      "type": "function"
    },
    {
      "inputs": [
        {
          "internalType": "address",
          "name": "_layer2Registry",
          "type": "address"
        }
      ],
      "name": "setLayer2Registry",
      "outputs": [],
      "stateMutability": "nonpayable",
      "type": "function"
    },
    {
      "inputs": [
        {
          "internalType": "uint256",
          "name": "_minimumNoticePeriod",
          "type": "uint256"
        }
      ],
      "name": "setMinimumNoticePeriodSeconds",
      "outputs": [],
      "stateMutability": "nonpayable",
      "type": "function"
    },
    {
      "inputs": [
        {
          "internalType": "uint256",
          "name": "_minimumVotingPeriod",
          "type": "uint256"
        }
      ],
      "name": "setMinimumVotingPeriodSeconds",
      "outputs": [],
      "stateMutability": "nonpayable",
      "type": "function"
    },
    {
      "inputs": [
        {
          "internalType": "address",
          "name": "_seigManager",
          "type": "address"
        }
      ],
      "name": "setSeigManager",
      "outputs": [],
      "stateMutability": "nonpayable",
      "type": "function"
    },
    {
      "inputs": [],
      "name": "setSeigPause",
      "outputs": [],
      "stateMutability": "nonpayable",
      "type": "function"
    },
    {
      "inputs": [],
      "name": "setSeigUnpause",
      "outputs": [],
      "stateMutability": "nonpayable",
      "type": "function"
    },
    {
      "inputs": [
        {
          "internalType": "address",
          "name": "token",
          "type": "address"
        },
        {
          "internalType": "address",
          "name": "account",
          "type": "address"
        }
      ],
      "name": "setTargetAddMinter",
      "outputs": [],
      "stateMutability": "nonpayable",
      "type": "function"
    },
    {
      "inputs": [
        {
          "internalType": "address",
          "name": "target",
          "type": "address"
        },
        {
          "internalType": "uint256",
          "name": "globalWithdrawalDelay_",
          "type": "uint256"
        }
      ],
      "name": "setTargetGlobalWithdrawalDelay",
      "outputs": [],
      "stateMutability": "nonpayable",
      "type": "function"
    },
    {
      "inputs": [
        {
          "internalType": "address",
          "name": "target",
          "type": "address"
        },
        {
          "internalType": "bytes32",
          "name": "_role",
          "type": "bytes32"
        },
        {
          "internalType": "address",
          "name": "account",
          "type": "address"
        }
      ],
      "name": "setTargetGrantRole",
      "outputs": [],
      "stateMutability": "nonpayable",
      "type": "function"
    },
    {
      "inputs": [
        {
          "internalType": "address",
          "name": "target",
          "type": "address"
        },
        {
          "internalType": "address",
          "name": "_seigManager",
          "type": "address"
        }
      ],
      "name": "setTargetSeigManager",
      "outputs": [],
      "stateMutability": "nonpayable",
      "type": "function"
    },
    {
      "inputs": [
        {
          "internalType": "address",
          "name": "target",
          "type": "address"
        },
        {
          "internalType": "address",
          "name": "tonAddr",
          "type": "address"
        }
      ],
      "name": "setTargetSetTON",
      "outputs": [],
      "stateMutability": "nonpayable",
      "type": "function"
    },
    {
      "inputs": [
        {
          "internalType": "address",
          "name": "target",
          "type": "address"
        },
        {
          "internalType": "address",
          "name": "logic",
          "type": "address"
        }
      ],
      "name": "setTargetUpgradeTo",
      "outputs": [],
      "stateMutability": "nonpayable",
      "type": "function"
    },
    {
      "inputs": [
        {
          "internalType": "address",
          "name": "_ton",
          "type": "address"
        }
      ],
      "name": "setTon",
      "outputs": [],
      "stateMutability": "nonpayable",
      "type": "function"
    },
    {
      "inputs": [
        {
          "internalType": "address",
          "name": "_wton",
          "type": "address"
        }
      ],
      "name": "setWton",
      "outputs": [],
      "stateMutability": "nonpayable",
      "type": "function"
    },
    {
      "inputs": [
        {
          "internalType": "bytes4",
          "name": "interfaceId",
          "type": "bytes4"
        }
      ],
      "name": "supportsInterface",
      "outputs": [
        {
          "internalType": "bool",
          "name": "",
          "type": "bool"
        }
      ],
      "stateMutability": "view",
      "type": "function"
    },
    {
      "inputs": [],
      "name": "ton",
      "outputs": [
        {
          "internalType": "address",
          "name": "",
          "type": "address"
        }
      ],
      "stateMutability": "view",
      "type": "function"
    },
    {
      "inputs": [],
      "name": "wton",
      "outputs": [
        {
          "internalType": "address",
          "name": "",
          "type": "address"
        }
      ],
      "stateMutability": "view",
      "type": "function"
    }
  ],
  "bytecode": "0x608060405234801561001057600080fd5b506100216301ffc9a760e01b610026565b6100a9565b6001600160e01b031980821690036100845760405162461bcd60e51b815260206004820152601c60248201527f4552433136353a20696e76616c696420696e7465726661636520696400000000604482015260640160405180910390fd5b6001600160e01b0319166000908152600d60205260409020805460ff19166001179055565b61228e806100b86000396000f3fe608060405234801561001057600080fd5b50600436106102955760003560e01c80636915429511610167578063a230c524116100ce578063cc48b94711610087578063cc48b947146106f4578063cf2a239c14610707578063d547741f1461071a578063e9e07dc91461072d578063ebf97be614610740578063efd579791461075357600080fd5b8063a230c5241461065e578063aef2c58514610695578063b4f69b6a146106a8578063b5dd1158146106bb578063c0bc5304146106ce578063ca15c873146106e157600080fd5b80638d62d949116101205780638d62d949146105f75780639010d07c1461060a57806391d148541461061d5780639d65b53114610630578063a1f3ac2a14610643578063a217fddf1461065657600080fd5b8063691542951461059a57806369b1227a146105ad5780636fb7f558146105c05780637657f20a146105d35780637f331636146105e657806381bfe42c146105ef57600080fd5b80633477ee2e1161020b5780635903bd6c116101c45780635903bd6c1461050e5780635c43030f146105215780635daf08ca146105345780635ebe76221461054757806363a8fd891461055a578063651d08cd1461056e57600080fd5b80633477ee2e1461049c57806336568abe146104af57806338d1b17c146104c257806349c39f14146104d55780634b799db1146104e85780634d288fec146104fb57600080fd5b806323d09fdf1161025d57806323d09fdf14610324578063248a9ca31461033757806327fd92fd1461035a5780632af60ff4146103855780632e011c1e146103985780632f2ff15d1461048957600080fd5b806301ffc9a71461029a57806303e3c9ac146102dc578063047f52f2146102f35780630ef646ad146103085780631703a0181461031b575b600080fd5b6102c76102a8366004611f33565b6001600160e01b0319166000908152600d602052604090205460ff1690565b60405190151581526020015b60405180910390f35b6102e560085481565b6040519081526020016102d3565b610306610301366004611f80565b61075b565b005b610306610316366004611f9b565b610831565b6102e5600a5481565b610306610332366004611fce565b610914565b6102e5610345366004611fce565b6000908152600c602052604090206002015490565b60025461036d906001600160a01b031681565b6040516001600160a01b0390911681526020016102d3565b610306610393366004611f80565b610a21565b6104346103a6366004611f80565b6040805160a0808201835260008083526020808401829052838501829052606080850183905260809485018390526001600160a01b0396871683526009825291859020855193840186528054909616835260018601549083015260028501546001600160801b0380821695840195909552600160801b90048416908201526003909301549091169082015290565b6040805182516001600160a01b0316815260208084015190820152828201516001600160801b03908116928201929092526060808401518316908201526080928301519091169181019190915260a0016102d3565b610306610497366004611fe7565b610aee565b61036d6104aa366004611fce565b610b7c565b6103066104bd366004611fe7565b610ba6565b6103066104d036600461200a565b610c20565b6103066104e3366004611f80565b610cd0565b6103066104f6366004611f80565b610d9d565b610306610509366004611f80565b610e6a565b60015461036d906001600160a01b031681565b61030661052f366004612034565b610f37565b61036d610542366004611fce565b611083565b610306610555366004611fce565b611093565b600e546102c790600160a01b900460ff1681565b61036d61057c366004611f80565b6001600160a01b039081166000908152600960205260409020541690565b6103066105a8366004612034565b611151565b6103066105bb366004611fce565b61129d565b60055461036d906001600160a01b031681565b6103066105e1366004611f80565b611379565b6102e5600b5481565b610306611446565b60105461036d906001600160a01b031681565b61036d6106183660046120b8565b611533565b6102c761062b366004611fe7565b611554565b61030661063e366004611f9b565b61156c565b610306610651366004611f9b565b61161d565b6102e5600081565b6102c761066c366004611f80565b6001600160a01b03166000908152600960205260409020600201546001600160801b0316151590565b6103066106a3366004611f80565b6116ce565b6103066106b6366004611fce565b61179b565b60035461036d906001600160a01b031681565b6103066106dc366004611fce565b611877565b6102e56106ef366004611fce565b611953565b60005461036d906001600160a01b031681565b60045461036d906001600160a01b031681565b610306610728366004611fe7565b61196a565b61030661073b3660046120da565b6119eb565b61030661074e366004611f9b565b611ad3565b610306611b84565b604051632474521560e21b815230906391d148549061078190600090339060040161210d565b602060405180830381865afa15801561079e573d6000803e3d6000fd5b505050506040513d601f19601f820116820180604052508101906107c29190612124565b6107e75760405162461bcd60e51b81526004016107de90612146565b60405180910390fd5b806001600160a01b03811661080e5760405162461bcd60e51b81526004016107de9061217d565b50600380546001600160a01b0319166001600160a01b0392909216919091179055565b604051632474521560e21b815230906391d148549061085790600090339060040161210d565b602060405180830381865afa158015610874573d6000803e3d6000fd5b505050506040513d601f19601f820116820180604052508101906108989190612124565b6108b45760405162461bcd60e51b81526004016107de90612146565b604051631186d27960e11b81526001600160a01b03828116600483015283169063230da4f2906024015b600060405180830381600087803b1580156108f857600080fd5b505af115801561090c573d6000803e3d6000fd5b505050505050565b604051632474521560e21b815230906391d148549061093a90600090339060040161210d565b602060405180830381865afa158015610957573d6000803e3d6000fd5b505050506040513d601f19601f8201168201806040525081019061097b9190612124565b6109975760405162461bcd60e51b81526004016107de90612146565b6002546001600160a01b03166109bf5760405162461bcd60e51b81526004016107de906121b4565b6002546040516323d09fdf60e01b8152600481018390526001600160a01b03909116906323d09fdf906024015b600060405180830381600087803b158015610a0657600080fd5b505af1158015610a1a573d6000803e3d6000fd5b5050505050565b604051632474521560e21b815230906391d1485490610a4790600090339060040161210d565b602060405180830381865afa158015610a64573d6000803e3d6000fd5b505050506040513d601f19601f82011682018060405250810190610a889190612124565b610aa45760405162461bcd60e51b81526004016107de90612146565b806001600160a01b038116610acb5760405162461bcd60e51b81526004016107de9061217d565b50600480546001600160a01b0319166001600160a01b0392909216919091179055565b6000828152600c6020526040902060020154610b0a9033611554565b610b6e5760405162461bcd60e51b815260206004820152602f60248201527f416363657373436f6e74726f6c3a2073656e646572206d75737420626520616e60448201526e0818591b5a5b881d1bc819dc985b9d608a1b60648201526084016107de565b610b788282611c57565b5050565b60068181548110610b8c57600080fd5b6000918252602090912001546001600160a01b0316905081565b6001600160a01b0381163314610c165760405162461bcd60e51b815260206004820152602f60248201527f416363657373436f6e74726f6c3a2063616e206f6e6c792072656e6f756e636560448201526e103937b632b9903337b91039b2b63360891b60648201526084016107de565b610b788282611cb0565b604051632474521560e21b815230906391d1485490610c4690600090339060040161210d565b602060405180830381865afa158015610c63573d6000803e3d6000fd5b505050506040513d601f19601f82011682018060405250810190610c879190612124565b610ca35760405162461bcd60e51b81526004016107de90612146565b60405163a79da34160e01b8152600481018290526001600160a01b0383169063a79da341906024016108de565b604051632474521560e21b815230906391d1485490610cf690600090339060040161210d565b602060405180830381865afa158015610d13573d6000803e3d6000fd5b505050506040513d601f19601f82011682018060405250810190610d379190612124565b610d535760405162461bcd60e51b81526004016107de90612146565b806001600160a01b038116610d7a5760405162461bcd60e51b81526004016107de9061217d565b50600280546001600160a01b0319166001600160a01b0392909216919091179055565b604051632474521560e21b815230906391d1485490610dc390600090339060040161210d565b602060405180830381865afa158015610de0573d6000803e3d6000fd5b505050506040513d601f19601f82011682018060405250810190610e049190612124565b610e205760405162461bcd60e51b81526004016107de90612146565b806001600160a01b038116610e475760405162461bcd60e51b81526004016107de9061217d565b50600180546001600160a01b0319166001600160a01b0392909216919091179055565b604051632474521560e21b815230906391d1485490610e9090600090339060040161210d565b602060405180830381865afa158015610ead573d6000803e3d6000fd5b505050506040513d601f19601f82011682018060405250810190610ed19190612124565b610eed5760405162461bcd60e51b81526004016107de90612146565b806001600160a01b038116610f145760405162461bcd60e51b81526004016107de9061217d565b50600080546001600160a01b0319166001600160a01b0392909216919091179055565b604051632474521560e21b815230906391d1485490610f5d90600090339060040161210d565b602060405180830381865afa158015610f7a573d6000803e3d6000fd5b505050506040513d601f19601f82011682018060405250810190610f9e9190612124565b610fba5760405162461bcd60e51b81526004016107de90612146565b806001600160a01b038116610fe15760405162461bcd60e51b81526004016107de9061217d565b60005b83811015610a1a57848482818110610ffe57610ffe612200565b90506020020160208101906110139190611f80565b604051635eed720760e11b81526001600160a01b038581166004830152919091169063bddae40e90602401600060405180830381600087803b15801561105857600080fd5b505af115801561106c573d6000803e3d6000fd5b50505050808061107b9061222c565b915050610fe4565b60078181548110610b8c57600080fd5b604051632474521560e21b815230906391d14854906110b990600090339060040161210d565b602060405180830381865afa1580156110d6573d6000803e3d6000fd5b505050506040513d601f19601f820116820180604052508101906110fa9190612124565b6111165760405162461bcd60e51b81526004016107de90612146565b600b8190556040518181527f42bd846b3ff7895ea031753b0d8256b4816edaea44f7d8d9db60ea83b8ee5e4b9060200160405180910390a150565b604051632474521560e21b815230906391d148549061117790600090339060040161210d565b602060405180830381865afa158015611194573d6000803e3d6000fd5b505050506040513d601f19601f820116820180604052508101906111b89190612124565b6111d45760405162461bcd60e51b81526004016107de90612146565b806001600160a01b0381166111fb5760405162461bcd60e51b81526004016107de9061217d565b60005b83811015610a1a5784848281811061121857611218612200565b905060200201602081019061122d9190611f80565b604051633b2bf90560e11b81526001600160a01b0385811660048301529190911690637657f20a90602401600060405180830381600087803b15801561127257600080fd5b505af1158015611286573d6000803e3d6000fd5b5050505080806112959061222c565b9150506111fe565b604051632474521560e21b815230906391d14854906112c390600090339060040161210d565b602060405180830381865afa1580156112e0573d6000803e3d6000fd5b505050506040513d601f19601f820116820180604052508101906113049190612124565b6113205760405162461bcd60e51b81526004016107de90612146565b6002546001600160a01b03166113485760405162461bcd60e51b81526004016107de906121b4565b6002546040516334d8913d60e11b8152600481018390526001600160a01b03909116906369b1227a906024016109ec565b604051632474521560e21b815230906391d148549061139f90600090339060040161210d565b602060405180830381865afa1580156113bc573d6000803e3d6000fd5b505050506040513d601f19601f820116820180604052508101906113e09190612124565b6113fc5760405162461bcd60e51b81526004016107de90612146565b806001600160a01b0381166114235760405162461bcd60e51b81526004016107de9061217d565b50600580546001600160a01b0319166001600160a01b0392909216919091179055565b604051632474521560e21b815230906391d148549061146c90600090339060040161210d565b602060405180830381865afa158015611489573d6000803e3d6000fd5b505050506040513d601f19601f820116820180604052508101906114ad9190612124565b6114c95760405162461bcd60e51b81526004016107de90612146565b600560009054906101000a90046001600160a01b03166001600160a01b0316633f4ba83a6040518163ffffffff1660e01b8152600401600060405180830381600087803b15801561151957600080fd5b505af115801561152d573d6000803e3d6000fd5b50505050565b6000828152600c6020526040812061154b9083611d09565b90505b92915050565b6000828152600c6020526040812061154b9083611d15565b604051632474521560e21b815230906391d148549061159290600090339060040161210d565b602060405180830381865afa1580156115af573d6000803e3d6000fd5b505050506040513d601f19601f820116820180604052508101906115d39190612124565b6115ef5760405162461bcd60e51b81526004016107de90612146565b604051634c1d96ab60e11b81526001600160a01b03828116600483015283169063983b2d56906024016108de565b604051632474521560e21b815230906391d148549061164390600090339060040161210d565b602060405180830381865afa158015611660573d6000803e3d6000fd5b505050506040513d601f19601f820116820180604052508101906116849190612124565b6116a05760405162461bcd60e51b81526004016107de90612146565b604051633b2bf90560e11b81526001600160a01b038281166004830152831690637657f20a906024016108de565b604051632474521560e21b815230906391d14854906116f490600090339060040161210d565b602060405180830381865afa158015611711573d6000803e3d6000fd5b505050506040513d601f19601f820116820180604052508101906117359190612124565b6117515760405162461bcd60e51b81526004016107de90612146565b806001600160a01b0381166117785760405162461bcd60e51b81526004016107de9061217d565b50601080546001600160a01b0319166001600160a01b0392909216919091179055565b604051632474521560e21b815230906391d14854906117c190600090339060040161210d565b602060405180830381865afa1580156117de573d6000803e3d6000fd5b505050506040513d601f19601f820116820180604052508101906118029190612124565b61181e5760405162461bcd60e51b81526004016107de90612146565b6002546001600160a01b03166118465760405162461bcd60e51b81526004016107de906121b4565b600254604051635a7b4db560e11b8152600481018390526001600160a01b039091169063b4f69b6a906024016109ec565b604051632474521560e21b815230906391d148549061189d90600090339060040161210d565b602060405180830381865afa1580156118ba573d6000803e3d6000fd5b505050506040513d601f19601f820116820180604052508101906118de9190612124565b6118fa5760405162461bcd60e51b81526004016107de90612146565b6002546001600160a01b03166119225760405162461bcd60e51b81526004016107de906121b4565b60025460405163302f14c160e21b8152600481018390526001600160a01b039091169063c0bc5304906024016109ec565b6000818152600c6020526040812061154e90611d37565b6000828152600c60205260409020600201546119869033611554565b610c165760405162461bcd60e51b815260206004820152603060248201527f416363657373436f6e74726f6c3a2073656e646572206d75737420626520616e60448201526f2061646d696e20746f207265766f6b6560801b60648201526084016107de565b604051632474521560e21b815230906391d1485490611a1190600090339060040161210d565b602060405180830381865afa158015611a2e573d6000803e3d6000fd5b505050506040513d601f19601f82011682018060405250810190611a529190612124565b611a6e5760405162461bcd60e51b81526004016107de90612146565b604051632f2ff15d60e01b81526001600160a01b03841690632f2ff15d90611a9c908590859060040161210d565b600060405180830381600087803b158015611ab657600080fd5b505af1158015611aca573d6000803e3d6000fd5b50505050505050565b604051632474521560e21b815230906391d1485490611af990600090339060040161210d565b602060405180830381865afa158015611b16573d6000803e3d6000fd5b505050506040513d601f19601f82011682018060405250810190611b3a9190612124565b611b565760405162461bcd60e51b81526004016107de90612146565b604051631b2ce7f360e11b81526001600160a01b038281166004830152831690633659cfe6906024016108de565b604051632474521560e21b815230906391d1485490611baa90600090339060040161210d565b602060405180830381865afa158015611bc7573d6000803e3d6000fd5b505050506040513d601f19601f82011682018060405250810190611beb9190612124565b611c075760405162461bcd60e51b81526004016107de90612146565b600560009054906101000a90046001600160a01b03166001600160a01b0316638456cb596040518163ffffffff1660e01b8152600401600060405180830381600087803b15801561151957600080fd5b6000828152600c60205260409020611c6f9082611d41565b15610b785760405133906001600160a01b0383169084907f2f8788117e7eff1d82e926ec794901d17c78024a50270940304540a733656f0d90600090a45050565b6000828152600c60205260409020611cc89082611d56565b15610b785760405133906001600160a01b0383169084907ff6391f5c32d9c69d2a47ea670b442974b53935d1edc7fd64eb21e047a839171b90600090a45050565b600061154b8383611d6b565b6001600160a01b0381166000908152600183016020526040812054151561154b565b600061154e825490565b600061154b836001600160a01b038416611df1565b600061154b836001600160a01b038416611e40565b81546000908210611dc95760405162461bcd60e51b815260206004820152602260248201527f456e756d657261626c655365743a20696e646578206f7574206f6620626f756e604482015261647360f01b60648201526084016107de565b826000018281548110611dde57611dde612200565b9060005260206000200154905092915050565b6000818152600183016020526040812054611e385750815460018181018455600084815260208082209093018490558454848252828601909352604090209190915561154e565b50600061154e565b60008181526001830160205260408120548015611f29576000611e64600183612245565b8554909150600090611e7890600190612245565b90506000866000018281548110611e9157611e91612200565b9060005260206000200154905080876000018481548110611eb457611eb4612200565b600091825260209091200155611ecb836001612258565b60008281526001890160205260409020558654879080611eed57611eed61226b565b6001900381819060005260206000200160009055905586600101600087815260200190815260200160002060009055600194505050505061154e565b600091505061154e565b600060208284031215611f4557600080fd5b81356001600160e01b031981168114611f5d57600080fd5b9392505050565b80356001600160a01b0381168114611f7b57600080fd5b919050565b600060208284031215611f9257600080fd5b61154b82611f64565b60008060408385031215611fae57600080fd5b611fb783611f64565b9150611fc560208401611f64565b90509250929050565b600060208284031215611fe057600080fd5b5035919050565b60008060408385031215611ffa57600080fd5b82359150611fc560208401611f64565b6000806040838503121561201d57600080fd5b61202683611f64565b946020939093013593505050565b60008060006040848603121561204957600080fd5b833567ffffffffffffffff8082111561206157600080fd5b818601915086601f83011261207557600080fd5b81358181111561208457600080fd5b8760208260051b850101111561209957600080fd5b6020928301955093506120af9186019050611f64565b90509250925092565b600080604083850312156120cb57600080fd5b50508035926020909101359150565b6000806000606084860312156120ef57600080fd5b6120f884611f64565b9250602084013591506120af60408501611f64565b9182526001600160a01b0316602082015260400190565b60006020828403121561213657600080fd5b81518015158114611f5d57600080fd5b60208082526017908201527f44414f436f6d6d69747465653a206e6f742061646d696e000000000000000000604082015260600190565b6020808252601a908201527f44414f436f6d6d69747465653a207a65726f2061646472657373000000000000604082015260600190565b6020808252602c908201527f53746f726167655374617465436f6d6d69747465653a204167656e64614d616e60408201526b61676572206973207a65726f60a01b606082015260800190565b634e487b7160e01b600052603260045260246000fd5b634e487b7160e01b600052601160045260246000fd5b60006001820161223e5761223e612216565b5060010190565b8181038181111561154e5761154e612216565b8082018082111561154e5761154e612216565b634e487b7160e01b600052603160045260246000fdfea164736f6c6343000813000a",
  "linkReferences": {},
  "deployedLinkReferences": {}
}