{
  "_format": "hh-sol-artifact-1",
  "contractName": "Layer2ManagerStorage",
  "sourceName": "contracts/layer2/Layer2ManagerStorage.sol",
  "abi": [
    {
      "inputs": [],
      "name": "dao",
      "outputs": [
        {
          "internalType": "address",
          "name": "",
          "type": "address"
        }
      ],
      "stateMutability": "view",
      "type": "function"
    },
    {
      "inputs": [],
      "name": "depositManager",
      "outputs": [
        {
          "internalType": "address",
          "name": "",
          "type": "address"
        }
      ],
      "stateMutability": "view",
      "type": "function"
    },
    {
      "inputs": [
        {
          "internalType": "address",
          "name": "",
          "type": "address"
        }
      ],
      "name": "issueStatusLayer2",
      "outputs": [
        {
          "internalType": "uint8",
          "name": "",
          "type": "uint8"
        }
      ],
      "stateMutability": "view",
      "type": "function"
    },
    {
      "inputs": [],
      "name": "l2Register",
      "outputs": [
        {
          "internalType": "address",
          "name": "",
          "type": "address"
        }
      ],
      "stateMutability": "view",
      "type": "function"
    },
    {
      "inputs": [
        {
          "internalType": "address",
          "name": "",
          "type": "address"
        }
      ],
      "name": "layer2CandidateOfOperator",
      "outputs": [
        {
          "internalType": "address",
          "name": "",
          "type": "address"
        }
      ],
      "stateMutability": "view",
      "type": "function"
    },
    {
      "inputs": [],
      "name": "minimumInitialDepositAmount",
      "outputs": [
        {
          "internalType": "uint256",
          "name": "",
          "type": "uint256"
        }
      ],
      "stateMutability": "view",
      "type": "function"
    },
    {
      "inputs": [],
      "name": "operatorFactory",
      "outputs": [
        {
          "internalType": "address",
          "name": "",
          "type": "address"
        }
      ],
      "stateMutability": "view",
      "type": "function"
    },
    {
      "inputs": [
        {
          "internalType": "address",
          "name": "",
          "type": "address"
        }
      ],
      "name": "operatorOfSystemConfig",
      "outputs": [
        {
          "internalType": "address",
          "name": "",
          "type": "address"
        }
      ],
      "stateMutability": "view",
      "type": "function"
    },
    {
      "inputs": [],
      "name": "seigManager",
      "outputs": [
        {
          "internalType": "address",
          "name": "",
          "type": "address"
        }
      ],
      "stateMutability": "view",
      "type": "function"
    },
    {
      "inputs": [],
      "name": "swapProxy",
      "outputs": [
        {
          "internalType": "address",
          "name": "",
          "type": "address"
        }
      ],
      "stateMutability": "view",
      "type": "function"
    },
    {
      "inputs": [
        {
          "internalType": "address",
          "name": "",
          "type": "address"
        }
      ],
      "name": "systemConfigOfOperator",
      "outputs": [
        {
          "internalType": "address",
          "name": "",
          "type": "address"
        }
      ],
      "stateMutability": "view",
      "type": "function"
    },
    {
      "inputs": [],
      "name": "ton",
      "outputs": [
        {
          "internalType": "address",
          "name": "",
          "type": "address"
        }
      ],
      "stateMutability": "view",
      "type": "function"
    },
    {
      "inputs": [],
      "name": "wton",
      "outputs": [
        {
          "internalType": "address",
          "name": "",
          "type": "address"
        }
      ],
      "stateMutability": "view",
      "type": "function"
    }
  ],
  "bytecode": "0x6080806040523461002357600160ff19600d541617600d5561031d90816100298239f35b600080fdfe6080604081815260048036101561001557600080fd5b600092833560e01c908163153e6d7f146102d5575080634162169f146102ae578063472d1f71146102865780635290c2481461025d5780636c7ac9d8146102345780636ec4be901461020b5780636fb7f558146101e25780638d62d949146101b9578063a1efe9201461017d578063b17dba1b14610141578063cc48b94714610118578063e9d6ec4f146100f55763ef6cf652146100b257600080fd5b346100f15760203660031901126100f1576001600160a01b039035818116908190036100ed5783839160209552600a85522054169051908152f35b8380fd5b8280fd5b5050346101145781600319360112610114576020906008549051908152f35b5080fd5b50503461011457816003193601126101145760025490516001600160a01b039091168152602090f35b50346100f15760203660031901126100f1576001600160a01b039035818116908190036100ed5783839160209552600c85522054169051908152f35b50346100f15760203660031901126100f1576001600160a01b039035818116908190036100ed5783839160209552600b85522054169051908152f35b50503461011457816003193601126101145760035490516001600160a01b039091168152602090f35b50503461011457816003193601126101145760065490516001600160a01b039091168152602090f35b50503461011457816003193601126101145760075490516001600160a01b039091168152602090f35b50503461011457816003193601126101145760055490516001600160a01b039091168152602090f35b50503461011457816003193601126101145760015490516001600160a01b039091168152602090f35b505034610114578160031936011261011457905490516001600160a01b039091168152602090f35b50346100f157826003193601126100f1575490516001600160a01b03909116815260209150f35b92919050346100ed5760203660031901126100ed57356001600160a01b038116908190036100ed5783526009602090815292205460ff168152f3fea164736f6c6343000813000a",
  "linkReferences": {},
  "deployedLinkReferences": {}
}