{
  "_format": "hh-sol-artifact-1",
  "contractName": "Layer2ManagerStorage",
  "sourceName": "contracts/layer2/Layer2ManagerStorage.sol",
  "abi": [
    {
      "inputs": [],
      "name": "dao",
      "outputs": [
        {
          "internalType": "address",
          "name": "",
          "type": "address"
        }
      ],
      "stateMutability": "view",
      "type": "function"
    },
    {
      "inputs": [],
      "name": "depositManager",
      "outputs": [
        {
          "internalType": "address",
          "name": "",
          "type": "address"
        }
      ],
      "stateMutability": "view",
      "type": "function"
    },
    {
      "inputs": [],
      "name": "l1BridgeRegistry",
      "outputs": [
        {
          "internalType": "address",
          "name": "",
          "type": "address"
        }
      ],
      "stateMutability": "view",
      "type": "function"
    },
    {
      "inputs": [],
      "name": "minimumInitialDepositAmount",
      "outputs": [
        {
          "internalType": "uint256",
          "name": "",
          "type": "uint256"
        }
      ],
      "stateMutability": "view",
      "type": "function"
    },
    {
      "inputs": [
        {
          "internalType": "address",
          "name": "",
          "type": "address"
        }
      ],
      "name": "operatorInfo",
      "outputs": [
        {
          "internalType": "address",
          "name": "rollupConfig",
          "type": "address"
        },
        {
          "internalType": "address",
          "name": "candidateAddOn",
          "type": "address"
        }
      ],
      "stateMutability": "view",
      "type": "function"
    },
    {
      "inputs": [],
      "name": "operatorManagerFactory",
      "outputs": [
        {
          "internalType": "address",
          "name": "",
          "type": "address"
        }
      ],
      "stateMutability": "view",
      "type": "function"
    },
    {
      "inputs": [
        {
          "internalType": "address",
          "name": "",
          "type": "address"
        }
      ],
      "name": "rollupConfigInfo",
      "outputs": [
        {
          "internalType": "uint8",
          "name": "status",
          "type": "uint8"
        },
        {
          "internalType": "address",
          "name": "operatorManager",
          "type": "address"
        }
      ],
      "stateMutability": "view",
      "type": "function"
    },
    {
      "inputs": [],
      "name": "seigManager",
      "outputs": [
        {
          "internalType": "address",
          "name": "",
          "type": "address"
        }
      ],
      "stateMutability": "view",
      "type": "function"
    },
    {
      "inputs": [],
      "name": "swapProxy",
      "outputs": [
        {
          "internalType": "address",
          "name": "",
          "type": "address"
        }
      ],
      "stateMutability": "view",
      "type": "function"
    },
    {
      "inputs": [],
      "name": "ton",
      "outputs": [
        {
          "internalType": "address",
          "name": "",
          "type": "address"
        }
      ],
      "stateMutability": "view",
      "type": "function"
    },
    {
      "inputs": [],
      "name": "wton",
      "outputs": [
        {
          "internalType": "address",
          "name": "",
          "type": "address"
        }
      ],
      "stateMutability": "view",
      "type": "function"
    }
  ],
  "bytecode": "0x608080604052346100165761029f908161001c8239f35b600080fdfe60806040818152600436101561001457600080fd5b600091823560e01c9081634162169f1461026d5750806350c246d6146102215780636c7ac9d8146101f95780636ec4be90146101d15780636fb7f558146101a957806372898c231461015b5780638d62d94914610133578063aba8e5771461010b578063cc48b947146100e3578063cf8f9110146100bc5763e9d6ec4f1461009b57600080fd5b346100b857816003193601126100b8576020906008549051908152f35b5080fd5b50346100b857816003193601126100b857905490516001600160a01b039091168152602090f35b50346100b857816003193601126100b85760025490516001600160a01b039091168152602090f35b50346100b857816003193601126100b85760015490516001600160a01b039091168152602090f35b50346100b857816003193601126100b85760035490516001600160a01b039091168152602090f35b5090346101a65760203660031901126101a6576001600160a01b0390600435828116908190036100b8579083918152600960205220549082519160ff8116835260081c166020820152f35b80fd5b50346100b857816003193601126100b85760065490516001600160a01b039091168152602090f35b50346100b857816003193601126100b85760075490516001600160a01b039091168152602090f35b50346100b857816003193601126100b85760055490516001600160a01b039091168152602090f35b5090346101a65760203660031901126101a6576001600160a01b0390600435828116908190036100b8579083918152600a60205220906001818354169201541682519182526020820152f35b8390346100b857816003193601126100b8576004546001600160a01b03168152602090f3fea164736f6c6343000813000a",
  "linkReferences": {},
  "deployedLinkReferences": {}
}