{
  "_format": "hh-sol-artifact-1",
  "contractName": "Layer2ManagerStorage",
  "sourceName": "contracts/layer2/Layer2ManagerStorage.sol",
  "abi": [
    {
      "inputs": [],
      "name": "dao",
      "outputs": [
        {
          "internalType": "address",
          "name": "",
          "type": "address"
        }
      ],
      "stateMutability": "view",
      "type": "function"
    },
    {
      "inputs": [],
      "name": "depositManager",
      "outputs": [
        {
          "internalType": "address",
          "name": "",
          "type": "address"
        }
      ],
      "stateMutability": "view",
      "type": "function"
    },
    {
      "inputs": [],
      "name": "l2Register",
      "outputs": [
        {
          "internalType": "address",
          "name": "",
          "type": "address"
        }
      ],
      "stateMutability": "view",
      "type": "function"
    },
    {
      "inputs": [],
      "name": "minimumInitialDepositAmount",
      "outputs": [
        {
          "internalType": "uint256",
          "name": "",
          "type": "uint256"
        }
      ],
      "stateMutability": "view",
      "type": "function"
    },
    {
      "inputs": [],
      "name": "operatorFactory",
      "outputs": [
        {
          "internalType": "address",
          "name": "",
          "type": "address"
        }
      ],
      "stateMutability": "view",
      "type": "function"
    },
    {
      "inputs": [
        {
          "internalType": "address",
          "name": "",
          "type": "address"
        }
      ],
      "name": "operatorInfo",
      "outputs": [
        {
          "internalType": "address",
          "name": "systemConfig",
          "type": "address"
        },
        {
          "internalType": "address",
          "name": "layer2Candidate",
          "type": "address"
        }
      ],
      "stateMutability": "view",
      "type": "function"
    },
    {
      "inputs": [],
      "name": "seigManager",
      "outputs": [
        {
          "internalType": "address",
          "name": "",
          "type": "address"
        }
      ],
      "stateMutability": "view",
      "type": "function"
    },
    {
      "inputs": [],
      "name": "swapProxy",
      "outputs": [
        {
          "internalType": "address",
          "name": "",
          "type": "address"
        }
      ],
      "stateMutability": "view",
      "type": "function"
    },
    {
      "inputs": [
        {
          "internalType": "address",
          "name": "",
          "type": "address"
        }
      ],
      "name": "systemConfigInfo",
      "outputs": [
        {
          "internalType": "uint8",
          "name": "stateIssue",
          "type": "uint8"
        },
        {
          "internalType": "address",
          "name": "operator",
          "type": "address"
        }
      ],
      "stateMutability": "view",
      "type": "function"
    },
    {
      "inputs": [],
      "name": "ton",
      "outputs": [
        {
          "internalType": "address",
          "name": "",
          "type": "address"
        }
      ],
      "stateMutability": "view",
      "type": "function"
    },
    {
      "inputs": [],
      "name": "wton",
      "outputs": [
        {
          "internalType": "address",
          "name": "",
          "type": "address"
        }
      ],
      "stateMutability": "view",
      "type": "function"
    }
  ],
  "bytecode": "0x608080604052346100165761029f908161001c8239f35b600080fdfe60806040818152600436101561001457600080fd5b600091823560e01c9081630eaad6981461024a575080634162169f14610222578063472d1f71146101fb57806350c246d6146101ac5780635290c248146101845780636c7ac9d81461015c5780636ec4be90146101345780636fb7f5581461010c5780638d62d949146100e4578063cc48b947146100bc5763e9d6ec4f1461009b57600080fd5b346100b857816003193601126100b8576020906008549051908152f35b5080fd5b50346100b857816003193601126100b85760025490516001600160a01b039091168152602090f35b50346100b857816003193601126100b85760035490516001600160a01b039091168152602090f35b50346100b857816003193601126100b85760065490516001600160a01b039091168152602090f35b50346100b857816003193601126100b85760075490516001600160a01b039091168152602090f35b50346100b857816003193601126100b85760055490516001600160a01b039091168152602090f35b50346100b857816003193601126100b85760015490516001600160a01b039091168152602090f35b5090346101f85760203660031901126101f8576001600160a01b0390600435828116908190036100b8579083918152600a60205220906001818354169201541682519182526020820152f35b80fd5b50346100b857816003193601126100b857905490516001600160a01b039091168152602090f35b50346100b857816003193601126100b85760045490516001600160a01b039091168152602090f35b905082346101f85760203660031901126101f8576001600160a01b0390600435828116908190036100b85790849181526009602052205460ff8116835260081c166020820152f3fea164736f6c6343000813000a",
  "linkReferences": {},
  "deployedLinkReferences": {}
}