{
  "_format": "hh-sol-artifact-1",
  "contractName": "Proxy",
  "sourceName": "contracts/proxy/Proxy.sol",
  "abi": [
    {
      "inputs": [],
      "stateMutability": "nonpayable",
      "type": "constructor"
    },
    {
      "anonymous": false,
      "inputs": [
        {
          "indexed": true,
          "internalType": "bytes32",
          "name": "role",
          "type": "bytes32"
        },
        {
          "indexed": true,
          "internalType": "bytes32",
          "name": "previousAdminRole",
          "type": "bytes32"
        },
        {
          "indexed": true,
          "internalType": "bytes32",
          "name": "newAdminRole",
          "type": "bytes32"
        }
      ],
      "name": "RoleAdminChanged",
      "type": "event"
    },
    {
      "anonymous": false,
      "inputs": [
        {
          "indexed": true,
          "internalType": "bytes32",
          "name": "role",
          "type": "bytes32"
        },
        {
          "indexed": true,
          "internalType": "address",
          "name": "account",
          "type": "address"
        },
        {
          "indexed": true,
          "internalType": "address",
          "name": "sender",
          "type": "address"
        }
      ],
      "name": "RoleGranted",
      "type": "event"
    },
    {
      "anonymous": false,
      "inputs": [
        {
          "indexed": true,
          "internalType": "bytes32",
          "name": "role",
          "type": "bytes32"
        },
        {
          "indexed": true,
          "internalType": "address",
          "name": "account",
          "type": "address"
        },
        {
          "indexed": true,
          "internalType": "address",
          "name": "sender",
          "type": "address"
        }
      ],
      "name": "RoleRevoked",
      "type": "event"
    },
    {
      "anonymous": false,
      "inputs": [
        {
          "indexed": true,
          "internalType": "address",
          "name": "impl",
          "type": "address"
        },
        {
          "indexed": false,
          "internalType": "bool",
          "name": "alive",
          "type": "bool"
        }
      ],
      "name": "SetAliveImplementation",
      "type": "event"
    },
    {
      "anonymous": false,
      "inputs": [
        {
          "indexed": true,
          "internalType": "bytes4",
          "name": "selector",
          "type": "bytes4"
        },
        {
          "indexed": true,
          "internalType": "address",
          "name": "impl",
          "type": "address"
        }
      ],
      "name": "SetSelectorImplementation",
      "type": "event"
    },
    {
      "anonymous": false,
      "inputs": [
        {
          "indexed": true,
          "internalType": "address",
          "name": "implementation",
          "type": "address"
        }
      ],
      "name": "Upgraded",
      "type": "event"
    },
    {
      "stateMutability": "payable",
      "type": "fallback"
    },
    {
      "inputs": [],
      "name": "DEFAULT_ADMIN_ROLE",
      "outputs": [
        {
          "internalType": "bytes32",
          "name": "",
          "type": "bytes32"
        }
      ],
      "stateMutability": "view",
      "type": "function"
    },
    {
      "inputs": [],
      "name": "MINTER_ROLE",
      "outputs": [
        {
          "internalType": "bytes32",
          "name": "",
          "type": "bytes32"
        }
      ],
      "stateMutability": "view",
      "type": "function"
    },
    {
      "inputs": [
        {
          "internalType": "address",
          "name": "account",
          "type": "address"
        }
      ],
      "name": "addAdmin",
      "outputs": [],
      "stateMutability": "nonpayable",
      "type": "function"
    },
    {
      "inputs": [
        {
          "internalType": "address",
          "name": "",
          "type": "address"
        }
      ],
      "name": "aliveImplementation",
      "outputs": [
        {
          "internalType": "bool",
          "name": "",
          "type": "bool"
        }
      ],
      "stateMutability": "view",
      "type": "function"
    },
    {
      "inputs": [
        {
          "internalType": "bytes32",
          "name": "role",
          "type": "bytes32"
        }
      ],
      "name": "getRoleAdmin",
      "outputs": [
        {
          "internalType": "bytes32",
          "name": "",
          "type": "bytes32"
        }
      ],
      "stateMutability": "view",
      "type": "function"
    },
    {
      "inputs": [
        {
          "internalType": "bytes4",
          "name": "_selector",
          "type": "bytes4"
        }
      ],
      "name": "getSelectorImplementation2",
      "outputs": [
        {
          "internalType": "address",
          "name": "impl",
          "type": "address"
        }
      ],
      "stateMutability": "view",
      "type": "function"
    },
    {
      "inputs": [
        {
          "internalType": "bytes32",
          "name": "role",
          "type": "bytes32"
        },
        {
          "internalType": "address",
          "name": "account",
          "type": "address"
        }
      ],
      "name": "grantRole",
      "outputs": [],
      "stateMutability": "nonpayable",
      "type": "function"
    },
    {
      "inputs": [
        {
          "internalType": "bytes32",
          "name": "role",
          "type": "bytes32"
        },
        {
          "internalType": "address",
          "name": "account",
          "type": "address"
        }
      ],
      "name": "hasRole",
      "outputs": [
        {
          "internalType": "bool",
          "name": "",
          "type": "bool"
        }
      ],
      "stateMutability": "view",
      "type": "function"
    },
    {
      "inputs": [],
      "name": "implementation",
      "outputs": [
        {
          "internalType": "address",
          "name": "",
          "type": "address"
        }
      ],
      "stateMutability": "view",
      "type": "function"
    },
    {
      "inputs": [
        {
          "internalType": "uint256",
          "name": "_index",
          "type": "uint256"
        }
      ],
      "name": "implementation2",
      "outputs": [
        {
          "internalType": "address",
          "name": "",
          "type": "address"
        }
      ],
      "stateMutability": "view",
      "type": "function"
    },
    {
      "inputs": [
        {
          "internalType": "address",
          "name": "account",
          "type": "address"
        }
      ],
      "name": "isAdmin",
      "outputs": [
        {
          "internalType": "bool",
          "name": "",
          "type": "bool"
        }
      ],
      "stateMutability": "view",
      "type": "function"
    },
    {
      "inputs": [],
      "name": "isOwner",
      "outputs": [
        {
          "internalType": "bool",
          "name": "",
          "type": "bool"
        }
      ],
      "stateMutability": "view",
      "type": "function"
    },
    {
      "inputs": [],
      "name": "pauseProxy",
      "outputs": [
        {
          "internalType": "bool",
          "name": "",
          "type": "bool"
        }
      ],
      "stateMutability": "view",
      "type": "function"
    },
    {
      "inputs": [
        {
          "internalType": "uint256",
          "name": "",
          "type": "uint256"
        }
      ],
      "name": "proxyImplementation",
      "outputs": [
        {
          "internalType": "address",
          "name": "",
          "type": "address"
        }
      ],
      "stateMutability": "view",
      "type": "function"
    },
    {
      "inputs": [
        {
          "internalType": "address",
          "name": "account",
          "type": "address"
        }
      ],
      "name": "removeAdmin",
      "outputs": [],
      "stateMutability": "nonpayable",
      "type": "function"
    },
    {
      "inputs": [],
      "name": "renounceOwnership",
      "outputs": [],
      "stateMutability": "nonpayable",
      "type": "function"
    },
    {
      "inputs": [
        {
          "internalType": "bytes32",
          "name": "role",
          "type": "bytes32"
        },
        {
          "internalType": "address",
          "name": "account",
          "type": "address"
        }
      ],
      "name": "renounceRole",
      "outputs": [],
      "stateMutability": "nonpayable",
      "type": "function"
    },
    {
      "inputs": [
        {
          "internalType": "bytes32",
          "name": "role",
          "type": "bytes32"
        },
        {
          "internalType": "address",
          "name": "account",
          "type": "address"
        }
      ],
      "name": "revokeRole",
      "outputs": [],
      "stateMutability": "nonpayable",
      "type": "function"
    },
    {
      "inputs": [
        {
          "internalType": "bytes4",
          "name": "",
          "type": "bytes4"
        }
      ],
      "name": "selectorImplementation",
      "outputs": [
        {
          "internalType": "address",
          "name": "",
          "type": "address"
        }
      ],
      "stateMutability": "view",
      "type": "function"
    },
    {
      "inputs": [
        {
          "internalType": "address",
          "name": "newImplementation",
          "type": "address"
        },
        {
          "internalType": "bool",
          "name": "_alive",
          "type": "bool"
        }
      ],
      "name": "setAliveImplementation2",
      "outputs": [],
      "stateMutability": "nonpayable",
      "type": "function"
    },
    {
      "inputs": [
        {
          "internalType": "address",
          "name": "newImplementation",
          "type": "address"
        },
        {
          "internalType": "uint256",
          "name": "_index",
          "type": "uint256"
        },
        {
          "internalType": "bool",
          "name": "_alive",
          "type": "bool"
        }
      ],
      "name": "setImplementation2",
      "outputs": [],
      "stateMutability": "nonpayable",
      "type": "function"
    },
    {
      "inputs": [
        {
          "internalType": "bool",
          "name": "_pause",
          "type": "bool"
        }
      ],
      "name": "setProxyPause",
      "outputs": [],
      "stateMutability": "nonpayable",
      "type": "function"
    },
    {
      "inputs": [
        {
          "internalType": "bytes4[]",
          "name": "_selectors",
          "type": "bytes4[]"
        },
        {
          "internalType": "address",
          "name": "_imp",
          "type": "address"
        }
      ],
      "name": "setSelectorImplementations2",
      "outputs": [],
      "stateMutability": "nonpayable",
      "type": "function"
    },
    {
      "inputs": [
        {
          "internalType": "bytes4",
          "name": "interfaceId",
          "type": "bytes4"
        }
      ],
      "name": "supportsInterface",
      "outputs": [
        {
          "internalType": "bool",
          "name": "",
          "type": "bool"
        }
      ],
      "stateMutability": "view",
      "type": "function"
    },
    {
      "inputs": [
        {
          "internalType": "address",
          "name": "newAdmin",
          "type": "address"
        }
      ],
      "name": "transferAdmin",
      "outputs": [],
      "stateMutability": "nonpayable",
      "type": "function"
    },
    {
      "inputs": [
        {
          "internalType": "address",
          "name": "newAdmin",
          "type": "address"
        }
      ],
      "name": "transferOwnership",
      "outputs": [],
      "stateMutability": "nonpayable",
      "type": "function"
    },
    {
      "inputs": [
        {
          "internalType": "address",
          "name": "impl",
          "type": "address"
        }
      ],
      "name": "upgradeTo",
      "outputs": [],
      "stateMutability": "nonpayable",
      "type": "function"
    },
    {
      "stateMutability": "payable",
      "type": "receive"
    }
  ],
  "bytecode": "0x608060405234801561001057600080fd5b5061001c600033610021565b6100d1565b61002b828261002f565b5050565b60008281526005602090815260408083206001600160a01b038516845290915290205460ff1661002b5760008281526005602090815260408083206001600160a01b03851684529091529020805460ff1916600117905561008d3390565b6001600160a01b0316816001600160a01b0316837f2f8788117e7eff1d82e926ec794901d17c78024a50270940304540a733656f0d60405160405180910390a45050565b6118e1806100e06000396000f3fe6080604052600436106101b05760003560e01c806370480275116100ec5780638f32d59b1161008a578063b911135f11610064578063b911135f146105b1578063d5391393146105e7578063d547741f1461061b578063f2fde38b1461063b57610202565b80638f32d59b1461051257806391d1485414610556578063a217fddf1461059c57610202565b80637cb00d25116100c65780637cb00d25146104925780637cd5f663146104b25780638b8f4a65146104d25780638d4fdb40146104f257610202565b8063704802751461043d578063715018a61461045d57806375829def1461047257610202565b80633659cfe611610159578063550d01a311610133578063550d01a31461038d5780635c60da1b146103bd5780635cc797d81461040357806363a8fd891461042357610202565b80633659cfe6146102ff5780634a5df50f1461031f57806350d2a2761461033f57610202565b806324d7806c1161018a57806324d7806c1461029f5780632f2ff15d146102bf57806336568abe146102df57610202565b806301ffc9a71461020c5780631785f53c14610241578063248a9ca31461026157610202565b366102025760405162461bcd60e51b815260206004820152601460248201527f63616e6e6f74207265636569766520457468657200000000000000000000000060448201526064015b60405180910390fd5b61020a61065b565b005b34801561021857600080fd5b5061022c610227366004611593565b610704565b60405190151581526020015b60405180910390f35b34801561024d57600080fd5b5061020a61025c3660046115d4565b610715565b34801561026d57600080fd5b5061029161027c3660046115ef565b60009081526005602052604090206001015490565b604051908152602001610238565b3480156102ab57600080fd5b5061022c6102ba3660046115d4565b610771565b3480156102cb57600080fd5b5061020a6102da366004611608565b6107b1565b3480156102eb57600080fd5b5061020a6102fa366004611608565b6107d6565b34801561030b57600080fd5b5061020a61031a3660046115d4565b610862565b34801561032b57600080fd5b5061020a61033a366004611634565b6109bb565b34801561034b57600080fd5b5061037561035a366004611593565b6003602052600090815260409020546001600160a01b031681565b6040516001600160a01b039091168152602001610238565b34801561039957600080fd5b5061022c6103a83660046115d4565b60026020526000908152604090205460ff1681565b3480156103c957600080fd5b506000805260016020527fa6eef7e35abe7026729641147f7915573c7e97b47efa546f5f6e3230263bcb49546001600160a01b0316610375565b34801561040f57600080fd5b5061020a61041e3660046116c8565b610c68565b34801561042f57600080fd5b5060005461022c9060ff1681565b34801561044957600080fd5b5061020a6104583660046115d4565b610cc0565b34801561046957600080fd5b5061020a610d19565b34801561047e57600080fd5b5061020a61048d3660046115d4565b610d74565b34801561049e57600080fd5b5061020a6104ad3660046116f2565b610e86565b3480156104be57600080fd5b5061020a6104cd36600461170d565b610ee7565b3480156104de57600080fd5b506103756104ed3660046115ef565b610f40565b3480156104fe57600080fd5b5061037561050d366004611593565b610f5d565b34801561051e57600080fd5b503360009081527f05b8ccbb9d4d8fb16ea74ce3c29a41f1b461fbdaff4714a0d9a8eb05499746bc602052604090205460ff1661022c565b34801561056257600080fd5b5061022c610571366004611608565b60009182526005602090815260408084206001600160a01b0393909316845291905290205460ff1690565b3480156105a857600080fd5b50610291600081565b3480156105bd57600080fd5b506103756105cc3660046115ef565b6001602052600090815260409020546001600160a01b031681565b3480156105f357600080fd5b506102917ff0887ba65ee2024ea881d91b74c2450ef19e1557f03bed3ea9f16b037cbe2dc981565b34801561062757600080fd5b5061020a610636366004611608565b611059565b34801561064757600080fd5b5061020a6106563660046115d4565b61107e565b60006106726000356001600160e01b031916610f5d565b90506001600160a01b0381161580159061068f575060005460ff16155b6106db5760405162461bcd60e51b815260206004820152601d60248201527f50726f78793a20696d706c204f522070726f78792069732066616c736500000060448201526064016101f9565b3660008037600080366000845af43d6000803e8080156106fa573d6000f35b3d6000fd5b505050565b600061070f826110d5565b92915050565b61071e33610771565b6107635760405162461bcd60e51b815260206004820152602260248201526000805160206118b583398151915260448201526134b760f11b60648201526084016101f9565b61076e6000826107d6565b50565b6001600160a01b03811660009081527f05b8ccbb9d4d8fb16ea74ce3c29a41f1b461fbdaff4714a0d9a8eb05499746bc602052604081205460ff1661070f565b6000828152600560205260409020600101546107cc816110fa565b6106ff8383611104565b6001600160a01b03811633146108545760405162461bcd60e51b815260206004820152602f60248201527f416363657373436f6e74726f6c3a2063616e206f6e6c792072656e6f756e636560448201527f20726f6c657320666f722073656c66000000000000000000000000000000000060648201526084016101f9565b61085e82826111a6565b5050565b61086b33610771565b6108b05760405162461bcd60e51b815260206004820152602260248201526000805160206118b583398151915260448201526134b760f11b60648201526084016101f9565b6001600160a01b0381166109065760405162461bcd60e51b815260206004820152600d60248201527f696e707574206973207a65726f0000000000000000000000000000000000000060448201526064016101f9565b6000805260016020527fa6eef7e35abe7026729641147f7915573c7e97b47efa546f5f6e3230263bcb49546001600160a01b038281169116036109775760405162461bcd60e51b815260206004820152600960248201526839b0b6b29030b2323960b91b60448201526064016101f9565b6109848160006001611229565b6040516001600160a01b038216907fbc7cd75a20ee27fd9adebab32041f755214dbc6bffa90cc0225b39da2e5c2d3b90600090a250565b6109c433610771565b610a095760405162461bcd60e51b815260206004820152602260248201526000805160206118b583398151915260448201526134b760f11b60648201526084016101f9565b81610a565760405162461bcd60e51b815260206004820181905260248201527f50726f78793a205f73656c6563746f727327732073697a65206973207a65726f60448201526064016101f9565b6001600160a01b03811660009081526002602052604090205460ff16610abe5760405162461bcd60e51b815260206004820152601860248201527f50726f78793a205f696d70206973206e6f7420616c697665000000000000000060448201526064016101f9565b60005b82811015610c6257816001600160a01b031660036000868685818110610ae957610ae9611740565b9050602002016020810190610afe9190611593565b6001600160e01b03191681526020810191909152604001600020546001600160a01b031603610b6f5760405162461bcd60e51b815260206004820152601d60248201527f4c69717569646974795661756c7450726f78793a2073616d6520696d7000000060448201526064016101f9565b8160036000868685818110610b8657610b86611740565b9050602002016020810190610b9b9190611593565b6001600160e01b03191681526020810191909152604001600020805473ffffffffffffffffffffffffffffffffffffffff19166001600160a01b039283161790558216848483818110610bf057610bf0611740565b9050602002016020810190610c059190611593565b7bffffffffffffffffffffffffffffffffffffffffffffffffffffffff19167f14ebc1c32aa68f4d766e89f3e546cee249f7df25183fc10ab1568d91c2ce9b7b60405160405180910390a380610c5a8161176c565b915050610ac1565b50505050565b610c7133610771565b610cb65760405162461bcd60e51b815260206004820152602260248201526000805160206118b583398151915260448201526134b760f11b60648201526084016101f9565b61085e82826112c1565b610cc933610771565b610d0e5760405162461bcd60e51b815260206004820152602260248201526000805160206118b583398151915260448201526134b760f11b60648201526084016101f9565b61076e6000826107b1565b610d2233610771565b610d675760405162461bcd60e51b815260206004820152602260248201526000805160206118b583398151915260448201526134b760f11b60648201526084016101f9565b610d726000336107d6565b565b610d7d33610771565b610dc25760405162461bcd60e51b815260206004820152602260248201526000805160206118b583398151915260448201526134b760f11b60648201526084016101f9565b6001600160a01b038116610e185760405162461bcd60e51b815260206004820152601860248201527f41636365737369626c653a207a65726f2061646472657373000000000000000060448201526064016101f9565b6001600160a01b0381163303610e705760405162461bcd60e51b815260206004820152601660248201527f41636365737369626c653a2073616d652061646d696e0000000000000000000060448201526064016101f9565b610e7b6000826107b1565b61076e6000336107d6565b610e8f33610771565b610ed45760405162461bcd60e51b815260206004820152602260248201526000805160206118b583398151915260448201526134b760f11b60648201526084016101f9565b6000805460ff1916911515919091179055565b610ef033610771565b610f355760405162461bcd60e51b815260206004820152602260248201526000805160206118b583398151915260448201526134b760f11b60648201526084016101f9565b6106ff838383611229565b6000818152600160205260408120546001600160a01b031661070f565b6001600160e01b031981166000908152600360205260408120546001600160a01b0316610fbd5750506000805260016020527fa6eef7e35abe7026729641147f7915573c7e97b47efa546f5f6e3230263bcb49546001600160a01b031690565b6001600160e01b031982166000908152600360209081526040808320546001600160a01b03168352600290915290205460ff161561101b57506001600160e01b0319166000908152600360205260409020546001600160a01b031690565b50506000805260016020527fa6eef7e35abe7026729641147f7915573c7e97b47efa546f5f6e3230263bcb49546001600160a01b031690565b919050565b600082815260056020526040902060010154611074816110fa565b6106ff83836111a6565b61108733610771565b6110cc5760405162461bcd60e51b815260206004820152602260248201526000805160206118b583398151915260448201526134b760f11b60648201526084016101f9565b61076e81610d74565b60006001600160e01b03198216637965db0b60e01b148061070f575061070f82611320565b61076e813361135c565b60008281526005602090815260408083206001600160a01b038516845290915290205460ff1661085e5760008281526005602090815260408083206001600160a01b03851684529091529020805460ff191660011790556111623390565b6001600160a01b0316816001600160a01b0316837f2f8788117e7eff1d82e926ec794901d17c78024a50270940304540a733656f0d60405160405180910390a45050565b60008281526005602090815260408083206001600160a01b038516845290915290205460ff161561085e5760008281526005602090815260408083206001600160a01b0385168085529252808320805460ff1916905551339285917ff6391f5c32d9c69d2a47ea670b442974b53935d1edc7fd64eb21e047a839171b9190a45050565b6001600160a01b0383163b6112805760405162461bcd60e51b815260206004820152601b60248201527f50726f78793a206e6f7420636f6e74726163742061646472657373000000000060448201526064016101f9565b80156112bb576000828152600160205260409020805473ffffffffffffffffffffffffffffffffffffffff19166001600160a01b0385161790555b6106ff83825b6001600160a01b038216600081815260026020908152604091829020805460ff191685151590811790915591519182527f72558d9bfba4210f9ef095c782589484151f6d90f7a81bb3cb9b33efc695d324910160405180910390a25050565b60006301ffc9a760e01b6001600160e01b03198316148061070f5750506001600160e01b03191660009081526004602052604090205460ff1690565b60008281526005602090815260408083206001600160a01b038516845290915290205460ff1661085e5761138f816113d1565b61139a8360206113e3565b6040516020016113ab9291906117a9565b60408051601f198184030181529082905262461bcd60e51b82526101f99160040161182a565b606061070f6001600160a01b03831660145b606060006113f283600261185d565b6113fd906002611874565b67ffffffffffffffff81111561141557611415611887565b6040519080825280601f01601f19166020018201604052801561143f576020820181803683370190505b509050600360fc1b8160008151811061145a5761145a611740565b60200101906001600160f81b031916908160001a905350600f60fb1b8160018151811061148957611489611740565b60200101906001600160f81b031916908160001a90535060006114ad84600261185d565b6114b8906001611874565b90505b600181111561153d577f303132333435363738396162636465660000000000000000000000000000000085600f16601081106114f9576114f9611740565b1a60f81b82828151811061150f5761150f611740565b60200101906001600160f81b031916908160001a90535060049490941c936115368161189d565b90506114bb565b50831561158c5760405162461bcd60e51b815260206004820181905260248201527f537472696e67733a20686578206c656e67746820696e73756666696369656e7460448201526064016101f9565b9392505050565b6000602082840312156115a557600080fd5b81356001600160e01b03198116811461158c57600080fd5b80356001600160a01b038116811461105457600080fd5b6000602082840312156115e657600080fd5b61158c826115bd565b60006020828403121561160157600080fd5b5035919050565b6000806040838503121561161b57600080fd5b8235915061162b602084016115bd565b90509250929050565b60008060006040848603121561164957600080fd5b833567ffffffffffffffff8082111561166157600080fd5b818601915086601f83011261167557600080fd5b81358181111561168457600080fd5b8760208260051b850101111561169957600080fd5b6020928301955093506116af91860190506115bd565b90509250925092565b8035801515811461105457600080fd5b600080604083850312156116db57600080fd5b6116e4836115bd565b915061162b602084016116b8565b60006020828403121561170457600080fd5b61158c826116b8565b60008060006060848603121561172257600080fd5b61172b846115bd565b9250602084013591506116af604085016116b8565b634e487b7160e01b600052603260045260246000fd5b634e487b7160e01b600052601160045260246000fd5b60006001820161177e5761177e611756565b5060010190565b60005b838110156117a0578181015183820152602001611788565b50506000910152565b7f416363657373436f6e74726f6c3a206163636f756e74200000000000000000008152600083516117e1816017850160208801611785565b7f206973206d697373696e6720726f6c6520000000000000000000000000000000601791840191820152835161181e816028840160208801611785565b01602801949350505050565b6020815260008251806020840152611849816040850160208701611785565b601f01601f19169190910160400192915050565b808202811582820484141761070f5761070f611756565b8082018082111561070f5761070f611756565b634e487b7160e01b600052604160045260246000fd5b6000816118ac576118ac611756565b50600019019056fe41636365737369626c653a2043616c6c6572206973206e6f7420616e2061646da164736f6c6343000813000a",
  "linkReferences": {},
  "deployedLinkReferences": {}
}