{
  "_format": "hh-sol-artifact-1",
  "contractName": "SeigManager1",
  "sourceName": "contracts/stake/managers/SeigManager1.sol",
  "abi": [
    {
      "anonymous": false,
      "inputs": [
        {
          "indexed": false,
          "internalType": "address",
          "name": "layer2",
          "type": "address"
        },
        {
          "indexed": false,
          "internalType": "uint256",
          "name": "seigs",
          "type": "uint256"
        },
        {
          "indexed": false,
          "internalType": "uint256",
          "name": "operatorSeigs",
          "type": "uint256"
        },
        {
          "indexed": false,
          "internalType": "uint256",
          "name": "nextTotalSupply",
          "type": "uint256"
        },
        {
          "indexed": false,
          "internalType": "uint256",
          "name": "prevTotalSupply",
          "type": "uint256"
        }
      ],
      "name": "AddedSeigAtLayer",
      "type": "event"
    },
    {
      "anonymous": false,
      "inputs": [
        {
          "indexed": true,
          "internalType": "address",
          "name": "layer2",
          "type": "address"
        },
        {
          "indexed": false,
          "internalType": "address",
          "name": "coinage",
          "type": "address"
        }
      ],
      "name": "CoinageCreated",
      "type": "event"
    },
    {
      "anonymous": false,
      "inputs": [
        {
          "indexed": true,
          "internalType": "address",
          "name": "layer2",
          "type": "address"
        }
      ],
      "name": "Comitted",
      "type": "event"
    },
    {
      "anonymous": false,
      "inputs": [
        {
          "indexed": true,
          "internalType": "address",
          "name": "layer2",
          "type": "address"
        },
        {
          "indexed": false,
          "internalType": "uint256",
          "name": "previousRate",
          "type": "uint256"
        },
        {
          "indexed": false,
          "internalType": "uint256",
          "name": "newRate",
          "type": "uint256"
        }
      ],
      "name": "CommissionRateSet",
      "type": "event"
    },
    {
      "anonymous": false,
      "inputs": [
        {
          "indexed": false,
          "internalType": "uint256",
          "name": "snapshotId",
          "type": "uint256"
        }
      ],
      "name": "OnSnapshot",
      "type": "event"
    },
    {
      "anonymous": false,
      "inputs": [
        {
          "indexed": false,
          "internalType": "address",
          "name": "account",
          "type": "address"
        }
      ],
      "name": "Paused",
      "type": "event"
    },
    {
      "anonymous": false,
      "inputs": [
        {
          "indexed": true,
          "internalType": "bytes32",
          "name": "role",
          "type": "bytes32"
        },
        {
          "indexed": true,
          "internalType": "bytes32",
          "name": "previousAdminRole",
          "type": "bytes32"
        },
        {
          "indexed": true,
          "internalType": "bytes32",
          "name": "newAdminRole",
          "type": "bytes32"
        }
      ],
      "name": "RoleAdminChanged",
      "type": "event"
    },
    {
      "anonymous": false,
      "inputs": [
        {
          "indexed": true,
          "internalType": "bytes32",
          "name": "role",
          "type": "bytes32"
        },
        {
          "indexed": true,
          "internalType": "address",
          "name": "account",
          "type": "address"
        },
        {
          "indexed": true,
          "internalType": "address",
          "name": "sender",
          "type": "address"
        }
      ],
      "name": "RoleGranted",
      "type": "event"
    },
    {
      "anonymous": false,
      "inputs": [
        {
          "indexed": true,
          "internalType": "bytes32",
          "name": "role",
          "type": "bytes32"
        },
        {
          "indexed": true,
          "internalType": "address",
          "name": "account",
          "type": "address"
        },
        {
          "indexed": true,
          "internalType": "address",
          "name": "sender",
          "type": "address"
        }
      ],
      "name": "RoleRevoked",
      "type": "event"
    },
    {
      "anonymous": false,
      "inputs": [
        {
          "indexed": true,
          "internalType": "address",
          "name": "layer2",
          "type": "address"
        },
        {
          "indexed": false,
          "internalType": "uint256",
          "name": "totalSeig",
          "type": "uint256"
        },
        {
          "indexed": false,
          "internalType": "uint256",
          "name": "stakedSeig",
          "type": "uint256"
        },
        {
          "indexed": false,
          "internalType": "uint256",
          "name": "unstakedSeig",
          "type": "uint256"
        },
        {
          "indexed": false,
          "internalType": "uint256",
          "name": "powertonSeig",
          "type": "uint256"
        },
        {
          "indexed": false,
          "internalType": "uint256",
          "name": "daoSeig",
          "type": "uint256"
        },
        {
          "indexed": false,
          "internalType": "uint256",
          "name": "pseig",
          "type": "uint256"
        }
      ],
      "name": "SeigGiven",
      "type": "event"
    },
    {
      "anonymous": false,
      "inputs": [
        {
          "indexed": false,
          "internalType": "uint256",
          "name": "daoSeigRate",
          "type": "uint256"
        }
      ],
      "name": "SetDaoSeigRate",
      "type": "event"
    },
    {
      "anonymous": false,
      "inputs": [
        {
          "indexed": false,
          "internalType": "uint256",
          "name": "powerTONSeigRate",
          "type": "uint256"
        }
      ],
      "name": "SetPowerTONSeigRate",
      "type": "event"
    },
    {
      "anonymous": false,
      "inputs": [
        {
          "indexed": false,
          "internalType": "uint256",
          "name": "pseigRate",
          "type": "uint256"
        }
      ],
      "name": "SetPseigRate",
      "type": "event"
    },
    {
      "anonymous": false,
      "inputs": [
        {
          "indexed": false,
          "internalType": "address",
          "name": "account",
          "type": "address"
        }
      ],
      "name": "Unpaused",
      "type": "event"
    },
    {
      "anonymous": false,
      "inputs": [
        {
          "indexed": false,
          "internalType": "uint256",
          "name": "coinageBurnAmount",
          "type": "uint256"
        },
        {
          "indexed": false,
          "internalType": "uint256",
          "name": "totBurnAmount",
          "type": "uint256"
        }
      ],
      "name": "UnstakeLog",
      "type": "event"
    },
    {
      "inputs": [],
      "name": "CHALLENGER_ROLE",
      "outputs": [
        {
          "internalType": "bytes32",
          "name": "",
          "type": "bytes32"
        }
      ],
      "stateMutability": "view",
      "type": "function"
    },
    {
      "inputs": [],
      "name": "DEFAULT_ADMIN_ROLE",
      "outputs": [
        {
          "internalType": "bytes32",
          "name": "",
          "type": "bytes32"
        }
      ],
      "stateMutability": "view",
      "type": "function"
    },
    {
      "inputs": [],
      "name": "DEFAULT_FACTOR",
      "outputs": [
        {
          "internalType": "uint256",
          "name": "",
          "type": "uint256"
        }
      ],
      "stateMutability": "pure",
      "type": "function"
    },
    {
      "inputs": [],
      "name": "MAX_VALID_COMMISSION",
      "outputs": [
        {
          "internalType": "uint256",
          "name": "",
          "type": "uint256"
        }
      ],
      "stateMutability": "view",
      "type": "function"
    },
    {
      "inputs": [],
      "name": "MINTER_ROLE",
      "outputs": [
        {
          "internalType": "bytes32",
          "name": "",
          "type": "bytes32"
        }
      ],
      "stateMutability": "view",
      "type": "function"
    },
    {
      "inputs": [],
      "name": "MIN_VALID_COMMISSION",
      "outputs": [
        {
          "internalType": "uint256",
          "name": "",
          "type": "uint256"
        }
      ],
      "stateMutability": "view",
      "type": "function"
    },
    {
      "inputs": [],
      "name": "OPERATOR_ROLE",
      "outputs": [
        {
          "internalType": "bytes32",
          "name": "",
          "type": "bytes32"
        }
      ],
      "stateMutability": "view",
      "type": "function"
    },
    {
      "inputs": [],
      "name": "PAUSE_ROLE",
      "outputs": [
        {
          "internalType": "bytes32",
          "name": "",
          "type": "bytes32"
        }
      ],
      "stateMutability": "view",
      "type": "function"
    },
    {
      "inputs": [],
      "name": "RAY",
      "outputs": [
        {
          "internalType": "uint256",
          "name": "",
          "type": "uint256"
        }
      ],
      "stateMutability": "view",
      "type": "function"
    },
    {
      "inputs": [],
      "name": "accRelativeSeig",
      "outputs": [
        {
          "internalType": "uint256",
          "name": "",
          "type": "uint256"
        }
      ],
      "stateMutability": "view",
      "type": "function"
    },
    {
      "inputs": [
        {
          "internalType": "address",
          "name": "account",
          "type": "address"
        }
      ],
      "name": "addAdmin",
      "outputs": [],
      "stateMutability": "nonpayable",
      "type": "function"
    },
    {
      "inputs": [
        {
          "internalType": "address",
          "name": "account",
          "type": "address"
        }
      ],
      "name": "addChallenger",
      "outputs": [],
      "stateMutability": "nonpayable",
      "type": "function"
    },
    {
      "inputs": [
        {
          "internalType": "address",
          "name": "account",
          "type": "address"
        }
      ],
      "name": "addMinter",
      "outputs": [],
      "stateMutability": "nonpayable",
      "type": "function"
    },
    {
      "inputs": [
        {
          "internalType": "address",
          "name": "account",
          "type": "address"
        }
      ],
      "name": "addOperator",
      "outputs": [],
      "stateMutability": "nonpayable",
      "type": "function"
    },
    {
      "inputs": [
        {
          "internalType": "address",
          "name": "layer2",
          "type": "address"
        },
        {
          "internalType": "address",
          "name": "account",
          "type": "address"
        },
        {
          "internalType": "uint256",
          "name": "amount",
          "type": "uint256"
        }
      ],
      "name": "additionalTotBurnAmount",
      "outputs": [
        {
          "internalType": "uint256",
          "name": "totAmount",
          "type": "uint256"
        }
      ],
      "stateMutability": "view",
      "type": "function"
    },
    {
      "inputs": [],
      "name": "adjustCommissionDelay",
      "outputs": [
        {
          "internalType": "uint256",
          "name": "",
          "type": "uint256"
        }
      ],
      "stateMutability": "view",
      "type": "function"
    },
    {
      "inputs": [
        {
          "internalType": "address",
          "name": "",
          "type": "address"
        }
      ],
      "name": "aliveImplementation",
      "outputs": [
        {
          "internalType": "bool",
          "name": "",
          "type": "bool"
        }
      ],
      "stateMutability": "view",
      "type": "function"
    },
    {
      "inputs": [
        {
          "internalType": "address",
          "name": "layer2",
          "type": "address"
        }
      ],
      "name": "coinages",
      "outputs": [
        {
          "internalType": "address",
          "name": "",
          "type": "address"
        }
      ],
      "stateMutability": "view",
      "type": "function"
    },
    {
      "inputs": [
        {
          "internalType": "address",
          "name": "layer2",
          "type": "address"
        }
      ],
      "name": "commissionRates",
      "outputs": [
        {
          "internalType": "uint256",
          "name": "",
          "type": "uint256"
        }
      ],
      "stateMutability": "view",
      "type": "function"
    },
    {
      "inputs": [],
      "name": "dao",
      "outputs": [
        {
          "internalType": "address",
          "name": "",
          "type": "address"
        }
      ],
      "stateMutability": "view",
      "type": "function"
    },
    {
      "inputs": [],
      "name": "daoSeigRate",
      "outputs": [
        {
          "internalType": "uint256",
          "name": "",
          "type": "uint256"
        }
      ],
      "stateMutability": "view",
      "type": "function"
    },
    {
      "inputs": [
        {
          "internalType": "address",
          "name": "",
          "type": "address"
        }
      ],
      "name": "delayedCommissionBlock",
      "outputs": [
        {
          "internalType": "uint256",
          "name": "",
          "type": "uint256"
        }
      ],
      "stateMutability": "view",
      "type": "function"
    },
    {
      "inputs": [
        {
          "internalType": "address",
          "name": "",
          "type": "address"
        }
      ],
      "name": "delayedCommissionRate",
      "outputs": [
        {
          "internalType": "uint256",
          "name": "",
          "type": "uint256"
        }
      ],
      "stateMutability": "view",
      "type": "function"
    },
    {
      "inputs": [
        {
          "internalType": "address",
          "name": "",
          "type": "address"
        }
      ],
      "name": "delayedCommissionRateNegative",
      "outputs": [
        {
          "internalType": "bool",
          "name": "",
          "type": "bool"
        }
      ],
      "stateMutability": "view",
      "type": "function"
    },
    {
      "inputs": [
        {
          "internalType": "address",
          "name": "layer2",
          "type": "address"
        }
      ],
      "name": "deployCoinage",
      "outputs": [
        {
          "internalType": "bool",
          "name": "",
          "type": "bool"
        }
      ],
      "stateMutability": "nonpayable",
      "type": "function"
    },
    {
      "inputs": [],
      "name": "depositManager",
      "outputs": [
        {
          "internalType": "address",
          "name": "",
          "type": "address"
        }
      ],
      "stateMutability": "view",
      "type": "function"
    },
    {
      "inputs": [],
      "name": "factory",
      "outputs": [
        {
          "internalType": "address",
          "name": "",
          "type": "address"
        }
      ],
      "stateMutability": "view",
      "type": "function"
    },
    {
      "inputs": [
        {
          "internalType": "address",
          "name": "layer2",
          "type": "address"
        }
      ],
      "name": "getOperatorAmount",
      "outputs": [
        {
          "internalType": "uint256",
          "name": "",
          "type": "uint256"
        }
      ],
      "stateMutability": "view",
      "type": "function"
    },
    {
      "inputs": [
        {
          "internalType": "bytes32",
          "name": "role",
          "type": "bytes32"
        }
      ],
      "name": "getRoleAdmin",
      "outputs": [
        {
          "internalType": "bytes32",
          "name": "",
          "type": "bytes32"
        }
      ],
      "stateMutability": "view",
      "type": "function"
    },
    {
      "inputs": [
        {
          "internalType": "bytes32",
          "name": "role",
          "type": "bytes32"
        },
        {
          "internalType": "address",
          "name": "account",
          "type": "address"
        }
      ],
      "name": "grantRole",
      "outputs": [],
      "stateMutability": "nonpayable",
      "type": "function"
    },
    {
      "inputs": [
        {
          "internalType": "bytes32",
          "name": "role",
          "type": "bytes32"
        },
        {
          "internalType": "address",
          "name": "account",
          "type": "address"
        }
      ],
      "name": "hasRole",
      "outputs": [
        {
          "internalType": "bool",
          "name": "",
          "type": "bool"
        }
      ],
      "stateMutability": "view",
      "type": "function"
    },
    {
      "inputs": [
        {
          "internalType": "address",
          "name": "ton_",
          "type": "address"
        },
        {
          "internalType": "address",
          "name": "wton_",
          "type": "address"
        },
        {
          "internalType": "address",
          "name": "registry_",
          "type": "address"
        },
        {
          "internalType": "address",
          "name": "depositManager_",
          "type": "address"
        },
        {
          "internalType": "uint256",
          "name": "seigPerBlock_",
          "type": "uint256"
        },
        {
          "internalType": "address",
          "name": "factory_",
          "type": "address"
        },
        {
          "internalType": "uint256",
          "name": "lastSeigBlock_",
          "type": "uint256"
        }
      ],
      "name": "initialize",
      "outputs": [],
      "stateMutability": "nonpayable",
      "type": "function"
    },
    {
      "inputs": [
        {
          "internalType": "address",
          "name": "account",
          "type": "address"
        }
      ],
      "name": "isAdmin",
      "outputs": [
        {
          "internalType": "bool",
          "name": "",
          "type": "bool"
        }
      ],
      "stateMutability": "view",
      "type": "function"
    },
    {
      "inputs": [
        {
          "internalType": "address",
          "name": "account",
          "type": "address"
        }
      ],
      "name": "isChallenger",
      "outputs": [
        {
          "internalType": "bool",
          "name": "",
          "type": "bool"
        }
      ],
      "stateMutability": "view",
      "type": "function"
    },
    {
      "inputs": [
        {
          "internalType": "address",
          "name": "layer2",
          "type": "address"
        }
      ],
      "name": "isCommissionRateNegative",
      "outputs": [
        {
          "internalType": "bool",
          "name": "",
          "type": "bool"
        }
      ],
      "stateMutability": "view",
      "type": "function"
    },
    {
      "inputs": [
        {
          "internalType": "address",
          "name": "account",
          "type": "address"
        }
      ],
      "name": "isMinter",
      "outputs": [
        {
          "internalType": "bool",
          "name": "",
          "type": "bool"
        }
      ],
      "stateMutability": "view",
      "type": "function"
    },
    {
      "inputs": [
        {
          "internalType": "address",
          "name": "account",
          "type": "address"
        }
      ],
      "name": "isOperator",
      "outputs": [
        {
          "internalType": "bool",
          "name": "",
          "type": "bool"
        }
      ],
      "stateMutability": "view",
      "type": "function"
    },
    {
      "inputs": [],
      "name": "isOwner",
      "outputs": [
        {
          "internalType": "bool",
          "name": "",
          "type": "bool"
        }
      ],
      "stateMutability": "view",
      "type": "function"
    },
    {
      "inputs": [],
      "name": "l1StakedTonToL2",
      "outputs": [
        {
          "internalType": "address",
          "name": "",
          "type": "address"
        }
      ],
      "stateMutability": "view",
      "type": "function"
    },
    {
      "inputs": [
        {
          "internalType": "address",
          "name": "layer2",
          "type": "address"
        }
      ],
      "name": "lastCommitBlock",
      "outputs": [
        {
          "internalType": "uint256",
          "name": "",
          "type": "uint256"
        }
      ],
      "stateMutability": "view",
      "type": "function"
    },
    {
      "inputs": [],
      "name": "lastSeigBlock",
      "outputs": [
        {
          "internalType": "uint256",
          "name": "",
          "type": "uint256"
        }
      ],
      "stateMutability": "view",
      "type": "function"
    },
    {
      "inputs": [],
      "name": "lastSnapshotId",
      "outputs": [
        {
          "internalType": "uint256",
          "name": "",
          "type": "uint256"
        }
      ],
      "stateMutability": "view",
      "type": "function"
    },
    {
      "inputs": [],
      "name": "minimumAmount",
      "outputs": [
        {
          "internalType": "uint256",
          "name": "",
          "type": "uint256"
        }
      ],
      "stateMutability": "view",
      "type": "function"
    },
    {
      "inputs": [
        {
          "internalType": "address",
          "name": "layer2",
          "type": "address"
        },
        {
          "internalType": "address",
          "name": "account",
          "type": "address"
        },
        {
          "internalType": "uint256",
          "name": "amount",
          "type": "uint256"
        }
      ],
      "name": "onDeposit",
      "outputs": [
        {
          "internalType": "bool",
          "name": "",
          "type": "bool"
        }
      ],
      "stateMutability": "nonpayable",
      "type": "function"
    },
    {
      "inputs": [],
      "name": "onSnapshot",
      "outputs": [
        {
          "internalType": "uint256",
          "name": "snapshotId",
          "type": "uint256"
        }
      ],
      "stateMutability": "nonpayable",
      "type": "function"
    },
    {
      "inputs": [
        {
          "internalType": "address",
          "name": "sender",
          "type": "address"
        },
        {
          "internalType": "address",
          "name": "recipient",
          "type": "address"
        },
        {
          "internalType": "uint256",
          "name": "amount",
          "type": "uint256"
        }
      ],
      "name": "onTransfer",
      "outputs": [
        {
          "internalType": "bool",
          "name": "",
          "type": "bool"
        }
      ],
      "stateMutability": "nonpayable",
      "type": "function"
    },
    {
      "inputs": [
        {
          "internalType": "address",
          "name": "layer2",
          "type": "address"
        },
        {
          "internalType": "address",
          "name": "account",
          "type": "address"
        },
        {
          "internalType": "uint256",
          "name": "amount",
          "type": "uint256"
        }
      ],
      "name": "onWithdraw",
      "outputs": [
        {
          "internalType": "bool",
          "name": "",
          "type": "bool"
        }
      ],
      "stateMutability": "nonpayable",
      "type": "function"
    },
    {
      "inputs": [],
      "name": "pause",
      "outputs": [],
      "stateMutability": "nonpayable",
      "type": "function"
    },
    {
      "inputs": [],
      "name": "pauseProxy",
      "outputs": [
        {
          "internalType": "bool",
          "name": "",
          "type": "bool"
        }
      ],
      "stateMutability": "view",
      "type": "function"
    },
    {
      "inputs": [],
      "name": "paused",
      "outputs": [
        {
          "internalType": "bool",
          "name": "",
          "type": "bool"
        }
      ],
      "stateMutability": "view",
      "type": "function"
    },
    {
      "inputs": [],
      "name": "pausedBlock",
      "outputs": [
        {
          "internalType": "uint256",
          "name": "",
          "type": "uint256"
        }
      ],
      "stateMutability": "view",
      "type": "function"
    },
    {
      "inputs": [],
      "name": "powerTONSeigRate",
      "outputs": [
        {
          "internalType": "uint256",
          "name": "",
          "type": "uint256"
        }
      ],
      "stateMutability": "view",
      "type": "function"
    },
    {
      "inputs": [],
      "name": "powerton",
      "outputs": [
        {
          "internalType": "address",
          "name": "",
          "type": "address"
        }
      ],
      "stateMutability": "view",
      "type": "function"
    },
    {
      "inputs": [],
      "name": "progressSnapshotId",
      "outputs": [
        {
          "internalType": "uint256",
          "name": "",
          "type": "uint256"
        }
      ],
      "stateMutability": "view",
      "type": "function"
    },
    {
      "inputs": [
        {
          "internalType": "uint256",
          "name": "",
          "type": "uint256"
        }
      ],
      "name": "proxyImplementation",
      "outputs": [
        {
          "internalType": "address",
          "name": "",
          "type": "address"
        }
      ],
      "stateMutability": "view",
      "type": "function"
    },
    {
      "inputs": [],
      "name": "registry",
      "outputs": [
        {
          "internalType": "address",
          "name": "",
          "type": "address"
        }
      ],
      "stateMutability": "view",
      "type": "function"
    },
    {
      "inputs": [],
      "name": "relativeSeigRate",
      "outputs": [
        {
          "internalType": "uint256",
          "name": "",
          "type": "uint256"
        }
      ],
      "stateMutability": "view",
      "type": "function"
    },
    {
      "inputs": [
        {
          "internalType": "address",
          "name": "account",
          "type": "address"
        }
      ],
      "name": "removeAdmin",
      "outputs": [],
      "stateMutability": "nonpayable",
      "type": "function"
    },
    {
      "inputs": [
        {
          "internalType": "address",
          "name": "account",
          "type": "address"
        }
      ],
      "name": "removeChallenger",
      "outputs": [],
      "stateMutability": "nonpayable",
      "type": "function"
    },
    {
      "inputs": [
        {
          "internalType": "address",
          "name": "account",
          "type": "address"
        }
      ],
      "name": "removeMinter",
      "outputs": [],
      "stateMutability": "nonpayable",
      "type": "function"
    },
    {
      "inputs": [
        {
          "internalType": "address",
          "name": "account",
          "type": "address"
        }
      ],
      "name": "removeOperator",
      "outputs": [],
      "stateMutability": "nonpayable",
      "type": "function"
    },
    {
      "inputs": [],
      "name": "renounceChallenger",
      "outputs": [],
      "stateMutability": "nonpayable",
      "type": "function"
    },
    {
      "inputs": [
        {
          "internalType": "address",
          "name": "target",
          "type": "address"
        }
      ],
      "name": "renounceMinter",
      "outputs": [],
      "stateMutability": "nonpayable",
      "type": "function"
    },
    {
      "inputs": [],
      "name": "renounceMinter",
      "outputs": [],
      "stateMutability": "nonpayable",
      "type": "function"
    },
    {
      "inputs": [],
      "name": "renounceOperator",
      "outputs": [],
      "stateMutability": "nonpayable",
      "type": "function"
    },
    {
      "inputs": [
        {
          "internalType": "address",
          "name": "target",
          "type": "address"
        }
      ],
      "name": "renounceOwnership",
      "outputs": [],
      "stateMutability": "nonpayable",
      "type": "function"
    },
    {
      "inputs": [],
      "name": "renounceOwnership",
      "outputs": [],
      "stateMutability": "nonpayable",
      "type": "function"
    },
    {
      "inputs": [
        {
          "internalType": "address",
          "name": "target",
          "type": "address"
        }
      ],
      "name": "renouncePauser",
      "outputs": [],
      "stateMutability": "nonpayable",
      "type": "function"
    },
    {
      "inputs": [
        {
          "internalType": "bytes32",
          "name": "role",
          "type": "bytes32"
        },
        {
          "internalType": "address",
          "name": "account",
          "type": "address"
        }
      ],
      "name": "renounceRole",
      "outputs": [],
      "stateMutability": "nonpayable",
      "type": "function"
    },
    {
      "inputs": [],
      "name": "renounceWTONMinter",
      "outputs": [],
      "stateMutability": "nonpayable",
      "type": "function"
    },
    {
      "inputs": [
        {
          "internalType": "address",
          "name": "account",
          "type": "address"
        }
      ],
      "name": "revokeChallenger",
      "outputs": [],
      "stateMutability": "nonpayable",
      "type": "function"
    },
    {
      "inputs": [
        {
          "internalType": "address",
          "name": "account",
          "type": "address"
        }
      ],
      "name": "revokeMinter",
      "outputs": [],
      "stateMutability": "nonpayable",
      "type": "function"
    },
    {
      "inputs": [
        {
          "internalType": "address",
          "name": "account",
          "type": "address"
        }
      ],
      "name": "revokeOperator",
      "outputs": [],
      "stateMutability": "nonpayable",
      "type": "function"
    },
    {
      "inputs": [
        {
          "internalType": "bytes32",
          "name": "role",
          "type": "bytes32"
        },
        {
          "internalType": "address",
          "name": "account",
          "type": "address"
        }
      ],
      "name": "revokeRole",
      "outputs": [],
      "stateMutability": "nonpayable",
      "type": "function"
    },
    {
      "inputs": [],
      "name": "seigPerBlock",
      "outputs": [
        {
          "internalType": "uint256",
          "name": "",
          "type": "uint256"
        }
      ],
      "stateMutability": "view",
      "type": "function"
    },
    {
      "inputs": [
        {
          "internalType": "bytes4",
          "name": "",
          "type": "bytes4"
        }
      ],
      "name": "selectorImplementation",
      "outputs": [
        {
          "internalType": "address",
          "name": "",
          "type": "address"
        }
      ],
      "stateMutability": "view",
      "type": "function"
    },
    {
      "inputs": [
        {
          "internalType": "uint256",
          "name": "adjustDelay_",
          "type": "uint256"
        }
      ],
      "name": "setAdjustDelay",
      "outputs": [],
      "stateMutability": "nonpayable",
      "type": "function"
    },
    {
      "inputs": [
        {
          "internalType": "address",
          "name": "factory_",
          "type": "address"
        }
      ],
      "name": "setCoinageFactory",
      "outputs": [],
      "stateMutability": "nonpayable",
      "type": "function"
    },
    {
      "inputs": [
        {
          "internalType": "address",
          "name": "layer2",
          "type": "address"
        },
        {
          "internalType": "uint256",
          "name": "commissionRate",
          "type": "uint256"
        },
        {
          "internalType": "bool",
          "name": "isCommissionRateNegative_",
          "type": "bool"
        }
      ],
      "name": "setCommissionRate",
      "outputs": [
        {
          "internalType": "bool",
          "name": "",
          "type": "bool"
        }
      ],
      "stateMutability": "nonpayable",
      "type": "function"
    },
    {
      "inputs": [
        {
          "internalType": "address",
          "name": "daoAddress",
          "type": "address"
        }
      ],
      "name": "setDao",
      "outputs": [],
      "stateMutability": "nonpayable",
      "type": "function"
    },
    {
      "inputs": [
        {
          "internalType": "uint256",
          "name": "daoSeigRate_",
          "type": "uint256"
        }
      ],
      "name": "setDaoSeigRate",
      "outputs": [],
      "stateMutability": "nonpayable",
      "type": "function"
    },
    {
      "inputs": [
        {
          "internalType": "address",
          "name": "powerton_",
          "type": "address"
        },
        {
          "internalType": "address",
          "name": "daoAddress",
          "type": "address"
        },
        {
          "internalType": "uint256",
          "name": "powerTONSeigRate_",
          "type": "uint256"
        },
        {
          "internalType": "uint256",
          "name": "daoSeigRate_",
          "type": "uint256"
        },
        {
          "internalType": "uint256",
          "name": "relativeSeigRate_",
          "type": "uint256"
        },
        {
          "internalType": "uint256",
          "name": "adjustDelay_",
          "type": "uint256"
        },
        {
          "internalType": "uint256",
          "name": "minimumAmount_",
          "type": "uint256"
        }
      ],
      "name": "setData",
      "outputs": [],
      "stateMutability": "nonpayable",
      "type": "function"
    },
    {
      "inputs": [
        {
          "internalType": "address",
          "name": "l1StakedTonToL2_",
          "type": "address"
        }
      ],
      "name": "setL1StakedTonToL2",
      "outputs": [],
      "stateMutability": "nonpayable",
      "type": "function"
    },
    {
      "inputs": [
        {
          "internalType": "uint256",
          "name": "minimumAmount_",
          "type": "uint256"
        }
      ],
      "name": "setMinimumAmount",
      "outputs": [],
      "stateMutability": "nonpayable",
      "type": "function"
    },
    {
      "inputs": [
        {
          "internalType": "address",
          "name": "powerton_",
          "type": "address"
        }
      ],
      "name": "setPowerTON",
      "outputs": [],
      "stateMutability": "nonpayable",
      "type": "function"
    },
    {
      "inputs": [
        {
          "internalType": "uint256",
          "name": "powerTONSeigRate_",
          "type": "uint256"
        }
      ],
      "name": "setPowerTONSeigRate",
      "outputs": [],
      "stateMutability": "nonpayable",
      "type": "function"
    },
    {
      "inputs": [
        {
          "internalType": "uint256",
          "name": "pseigRate_",
          "type": "uint256"
        }
      ],
      "name": "setPseigRate",
      "outputs": [],
      "stateMutability": "nonpayable",
      "type": "function"
    },
    {
      "inputs": [
        {
          "internalType": "address",
          "name": "layer2",
          "type": "address"
        },
        {
          "internalType": "address",
          "name": "challenger",
          "type": "address"
        }
      ],
      "name": "slash",
      "outputs": [
        {
          "internalType": "bool",
          "name": "",
          "type": "bool"
        }
      ],
      "stateMutability": "nonpayable",
      "type": "function"
    },
    {
      "inputs": [
        {
          "internalType": "address",
          "name": "account",
          "type": "address"
        }
      ],
      "name": "stakeOf",
      "outputs": [
        {
          "internalType": "uint256",
          "name": "amount",
          "type": "uint256"
        }
      ],
      "stateMutability": "view",
      "type": "function"
    },
    {
      "inputs": [
        {
          "internalType": "address",
          "name": "layer2",
          "type": "address"
        },
        {
          "internalType": "address",
          "name": "account",
          "type": "address"
        }
      ],
      "name": "stakeOf",
      "outputs": [
        {
          "internalType": "uint256",
          "name": "",
          "type": "uint256"
        }
      ],
      "stateMutability": "view",
      "type": "function"
    },
    {
      "inputs": [
        {
          "internalType": "address",
          "name": "account",
          "type": "address"
        },
        {
          "internalType": "uint256",
          "name": "snapshotId",
          "type": "uint256"
        }
      ],
      "name": "stakeOfAt",
      "outputs": [
        {
          "internalType": "uint256",
          "name": "amount",
          "type": "uint256"
        }
      ],
      "stateMutability": "view",
      "type": "function"
    },
    {
      "inputs": [
        {
          "internalType": "address",
          "name": "layer2",
          "type": "address"
        },
        {
          "internalType": "address",
          "name": "account",
          "type": "address"
        },
        {
          "internalType": "uint256",
          "name": "snapshotId",
          "type": "uint256"
        }
      ],
      "name": "stakeOfAt",
      "outputs": [
        {
          "internalType": "uint256",
          "name": "amount",
          "type": "uint256"
        }
      ],
      "stateMutability": "view",
      "type": "function"
    },
    {
      "inputs": [],
      "name": "stakeOfTotal",
      "outputs": [
        {
          "internalType": "uint256",
          "name": "amount",
          "type": "uint256"
        }
      ],
      "stateMutability": "view",
      "type": "function"
    },
    {
      "inputs": [
        {
          "internalType": "uint256",
          "name": "snapshotId",
          "type": "uint256"
        }
      ],
      "name": "stakeOfTotalAt",
      "outputs": [
        {
          "internalType": "uint256",
          "name": "amount",
          "type": "uint256"
        }
      ],
      "stateMutability": "view",
      "type": "function"
    },
    {
      "inputs": [
        {
          "internalType": "bytes4",
          "name": "interfaceId",
          "type": "bytes4"
        }
      ],
      "name": "supportsInterface",
      "outputs": [
        {
          "internalType": "bool",
          "name": "",
          "type": "bool"
        }
      ],
      "stateMutability": "view",
      "type": "function"
    },
    {
      "inputs": [],
      "name": "ton",
      "outputs": [
        {
          "internalType": "address",
          "name": "",
          "type": "address"
        }
      ],
      "stateMutability": "view",
      "type": "function"
    },
    {
      "inputs": [],
      "name": "tot",
      "outputs": [
        {
          "internalType": "address",
          "name": "",
          "type": "address"
        }
      ],
      "stateMutability": "view",
      "type": "function"
    },
    {
      "inputs": [],
      "name": "totalSupplyOfTon",
      "outputs": [
        {
          "internalType": "uint256",
          "name": "tos",
          "type": "uint256"
        }
      ],
      "stateMutability": "view",
      "type": "function"
    },
    {
      "inputs": [
        {
          "internalType": "address",
          "name": "newAdmin",
          "type": "address"
        }
      ],
      "name": "transferAdmin",
      "outputs": [],
      "stateMutability": "nonpayable",
      "type": "function"
    },
    {
      "inputs": [
        {
          "internalType": "address",
          "name": "newSeigManager",
          "type": "address"
        },
        {
          "internalType": "address[]",
          "name": "coinages_",
          "type": "address[]"
        }
      ],
      "name": "transferCoinageOwnership",
      "outputs": [],
      "stateMutability": "nonpayable",
      "type": "function"
    },
    {
      "inputs": [
        {
          "internalType": "address",
          "name": "target",
          "type": "address"
        },
        {
          "internalType": "address",
          "name": "newOwner",
          "type": "address"
        }
      ],
      "name": "transferOwnership",
      "outputs": [],
      "stateMutability": "nonpayable",
      "type": "function"
    },
    {
      "inputs": [
        {
          "internalType": "address",
          "name": "newAdmin",
          "type": "address"
        }
      ],
      "name": "transferOwnership",
      "outputs": [],
      "stateMutability": "nonpayable",
      "type": "function"
    },
    {
      "inputs": [
        {
          "internalType": "address",
          "name": "layer2",
          "type": "address"
        },
        {
          "internalType": "address",
          "name": "account",
          "type": "address"
        }
      ],
      "name": "uncomittedStakeOf",
      "outputs": [
        {
          "internalType": "uint256",
          "name": "",
          "type": "uint256"
        }
      ],
      "stateMutability": "view",
      "type": "function"
    },
    {
      "inputs": [],
      "name": "unpause",
      "outputs": [],
      "stateMutability": "nonpayable",
      "type": "function"
    },
    {
      "inputs": [],
      "name": "unpausedBlock",
      "outputs": [
        {
          "internalType": "uint256",
          "name": "",
          "type": "uint256"
        }
      ],
      "stateMutability": "view",
      "type": "function"
    },
    {
      "inputs": [],
      "name": "updateSeigniorage",
      "outputs": [
        {
          "internalType": "bool",
          "name": "",
          "type": "bool"
        }
      ],
      "stateMutability": "nonpayable",
      "type": "function"
    },
    {
      "inputs": [
        {
          "internalType": "address",
          "name": "layer2",
          "type": "address"
        }
      ],
      "name": "updateSeigniorageLayer",
      "outputs": [
        {
          "internalType": "bool",
          "name": "",
          "type": "bool"
        }
      ],
      "stateMutability": "nonpayable",
      "type": "function"
    },
    {
      "inputs": [],
      "name": "wton",
      "outputs": [
        {
          "internalType": "address",
          "name": "",
          "type": "address"
        }
      ],
      "stateMutability": "view",
      "type": "function"
    }
  ],
  "bytecode": "0x608060405234801561001057600080fd5b5061583580620000216000396000f3fe608060405234801561001057600080fd5b50600436106106b45760003560e01c80637048027511610371578063ac8a584a116101d3578063de0562201161010f578063f35c89e8116100ad578063f850ffaa11610087578063f850ffaa14610ee6578063f8951f4614610ef9578063fa9789c814610f0c578063fad8b32a14610f1f57600080fd5b8063f35c89e814610eae578063f5b541a614610eb6578063f822934814610edd57600080fd5b8063e4034832116100e9578063e403483214610e62578063eeb4a9c814610e75578063ef23914814610e88578063f2fde38b14610e9b57600080fd5b8063de05622014610e26578063df7fbef014610e39578063e2fe8fd114610e4257600080fd5b8063cbfebe621161017c578063ce6c035511610156578063ce6c035514610dd1578063cfbd488514610dd9578063d539139314610dec578063d547741f14610e1357600080fd5b8063cbfebe6214610d8d578063cc48b94714610dad578063ce4cb87614610dbe57600080fd5b8063bb0c8298116101ad578063bb0c829814610d48578063c45a015514610d51578063c59f104614610d6457600080fd5b8063ac8a584a14610d04578063ae3458f814610d17578063b911135f14610d1f57600080fd5b806391d14854116102ad578063a16d6aa71161024b578063a7dcc85011610225578063a7dcc85014610ca9578063aa271e1a14610cbb578063ac753a7a14610cce578063ac89321914610cf157600080fd5b8063a16d6aa714610c7d578063a217fddf14610c8e578063a415d8dc14610c9657600080fd5b806398650275116102875780639865027514610c3c5780639870d7fe14610c445780639c877e4714610c57578063a0474ef514610c6a57600080fd5b806391d1485414610bdd5780639328f1bc14610c16578063983b2d5614610c2957600080fd5b80637b1039991161031a5780638456cb59116102f45780638456cb5914610b7b5780638bf91dc414610b835780638d62d94914610b955780638f32d59b14610ba657600080fd5b80637b10399914610b4e578063833a774f14610b5f578063837afbc014610b7257600080fd5b8063764a78561161034b578063764a785614610b0a5780637aeccce914610b125780637b056c1b14610b2557600080fd5b80637048027514610adc578063715018a614610aef57806375829def14610af757600080fd5b80634162169f1161051a578063552033c4116104565780636304a624116103f45780636c578c1d116103ce5780636c578c1d14610a925780636c7ac9d814610aa55780636d43542114610ab65780636d70f7ae14610ac957600080fd5b80636304a62414610a6957806363a8fd8914610a725780636637b88214610a7f57600080fd5b80635a16a416116104305780635a16a41614610a155780635c975abb14610a415780635f112c6814610a4e5780635f40a34914610a6157600080fd5b8063552033c41461089457806358d00cd614610a045780635998a8d714610a0c57600080fd5b806348c8577e116104c35780634c75ab9c1161049d5780634c75ab9c1461097e57806350d2a27614610991578063530adbb4146109ba578063550d01a3146109e157600080fd5b806348c8577e1461092c5780634a3931491461093f5780634c063c191461095257600080fd5b80634224ed66116104f45780634224ed66146108f3578063426233601461090657806346a99fe71461091957600080fd5b80634162169f146108ba57806341813020146108cd57806341eb24bb146108e057600080fd5b80632d1bdec8116105f4578063389ed267116105925780633e832e1d1161056c5780633e832e1d146108675780633f4ba83a1461088c5780634123196f14610894578063412c6d50146108a757600080fd5b8063389ed2671461081a57806338bf3cfa146108415780633c4911731461085457600080fd5b80633092afd5116105ce5780633092afd5146107d957806332053c99146107ec57806332847953146107f457806336568abe1461080757600080fd5b80632d1bdec8146107a05780632f17250a146107b35780632f2ff15d146107c657600080fd5b80631e1f0b601161066157806324d7806c1161063b57806324d7806c1461077457806325374a9a1461078757806325e90db4146107905780632ab6f8db1461079857600080fd5b80631e1f0b60146107365780632428c62814610749578063248a9ca31461075157600080fd5b8063139770421161069257806313977042146107095780631785f53c1461071b5780631cc478901461072e57600080fd5b806301ffc9a7146106b957806303e1cc27146106e15780630ceb6780146106f6575b600080fd5b6106cc6106c73660046152bd565b610f32565b60405190151581526020015b60405180910390f35b6106f46106ef3660046152e7565b610f43565b005b6106f4610704366004615315565b611023565b6020545b6040519081526020016106d8565b6106f4610729366004615315565b6110de565b60135461070d565b6106cc610744366004615315565b61110e565b61070d6111c8565b61070d61075f3660046152e7565b60009081526005602052604090206001015490565b6106cc610782366004615315565b6113bb565b61070d601d5481565b6106f46113fb565b6106f4611427565b6106f46107ae3660046152e7565b611451565b61070d6107c1366004615315565b61147b565b6106f46107d4366004615332565b611566565b6106f46107e7366004615315565b611590565b60125461070d565b6106f4610802366004615362565b6115df565b6106f4610815366004615332565b61175f565b61070d7ffcb9fcbfa83b897fb2d5cf4b58962164105c1e71489a37ef3ae0db3fdce576f681565b6106f461084f366004615315565b6117eb565b6106f4610862366004615315565b611866565b6008546001600160a01b03165b6040516001600160a01b0390911681526020016106d8565b6106f46118b5565b61070d6b033b2e3c9fd0803ce800000081565b6106cc6108b53660046153ea565b6119d5565b600954610874906001600160a01b031681565b6106f46108db366004615315565b611d2b565b6106f46108ee366004615315565b611d72565b6106cc610901366004615439565b611dd2565b61070d610914366004615315565b61204e565b6106f461092736600461547b565b6121e9565b61070d61093a3660046153ea565b612379565b6106cc61094d3660046153ea565b61238e565b610874610960366004615315565b6001600160a01b039081166000908152600e60205260409020541690565b61070d61098c3660046154ff565b612444565b61087461099f3660046152bd565b6003602052600090815260409020546001600160a01b031681565b61070d7fbf02bad7114723a857a3af46cea17b778a3a951c96f183784d9a2448cc479ab681565b6106cc6109ef366004615315565b60026020526000908152604090205460ff1681565b61070d6125e7565b61070d601c5481565b6106cc610a23366004615315565b6001600160a01b031660009081526015602052604090205460ff1690565b601f546106cc9060ff1681565b6106f4610a5c366004615315565b61263c565b60105461070d565b61070d601b5481565b6000546106cc9060ff1681565b6106f4610a8d366004615315565b61269c565b6106f4610aa0366004615315565b6126e3565b6007546001600160a01b0316610874565b6106f4610ac436600461552b565b612732565b6106cc610ad7366004615315565b6127b6565b6106f4610aea366004615315565b6127f6565b6106f4612826565b6106f4610b05366004615315565b612856565b6106cc61293f565b6106cc610b2036600461552b565b61306d565b61070d610b33366004615315565b6001600160a01b031660009081526014602052604090205490565b6006546001600160a01b0316610874565b6106cc610b6d366004615315565b6131e0565b61070d60205481565b6106f4613343565b6b033b2e3c9fd0803ce800000061070d565b600b546001600160a01b0316610874565b3360009081527f05b8ccbb9d4d8fb16ea74ce3c29a41f1b461fbdaff4714a0d9a8eb05499746bc602052604090205460ff166106cc565b6106cc610beb366004615332565b60009182526005602090815260408084206001600160a01b0393909316845291905290205460ff1690565b61070d610c243660046153ea565b613461565b6106f4610c37366004615315565b6134e5565b6106f4613534565b6106f4610c52366004615315565b61355e565b6106f4610c653660046152e7565b6135ad565b61070d610c783660046152e7565b61367d565b600d546001600160a01b0316610874565b61070d600081565b6106cc610ca4366004615315565b6136eb565b61070d6a084595161401484a00000081565b6106cc610cc9366004615315565b61372b565b6106cc610cdc366004615315565b60196020526000908152604090205460ff1681565b6106f4610cff366004615315565b61376b565b6106f4610d12366004615315565b6137b2565b6106f4613801565b610874610d2d3660046152e7565b6001602052600090815260409020546001600160a01b031681565b61070d601a5481565b600c54610874906001600160a01b031681565b61070d610d72366004615315565b6001600160a01b03166000908152600f602052604090205490565b61070d610d9b366004615315565b60176020526000908152604090205481565b600a546001600160a01b0316610874565b61070d610dcc36600461552b565b61388a565b61070d6138e3565b6106f4610de7366004615315565b613951565b61070d7ff0887ba65ee2024ea881d91b74c2450ef19e1557f03bed3ea9f16b037cbe2dc981565b6106f4610e21366004615332565b61399c565b602154610874906001600160a01b031681565b61070d60165481565b61070d610e50366004615315565b60186020526000908152604090205481565b6106f4610e703660046152e7565b6139c1565b6106f4610e833660046152e7565b613a91565b6106f4610e96366004615315565b613abb565b6106f4610ea9366004615315565b613b02565b60115461070d565b61070d7f523a704056dcd17bcf83bed8b68c59416dac1119be77755efe3bde0a64e46e0c81565b61070d601e5481565b6106cc610ef43660046153ea565b613b30565b6106f4610f07366004615559565b613fb7565b61070d610f1a36600461552b565b614146565b6106f4610f2d366004615315565b6143c6565b6000610f3d82614415565b92915050565b610f4c336113bb565b610f715760405162461bcd60e51b8152600401610f68906155bb565b60405180910390fd5b6b033b2e3c9fd0803ce8000000601d5482601b54610f8f9190615614565b610f999190615614565b1115610fe75760405162461bcd60e51b815260206004820152601960248201527f657863656564656420736569676e696f726167652072617465000000000000006044820152606401610f68565b601c8190556040518181527f1140c1f14579543e61b599f8f43d0112d66ec1462431e56c97c27b47446a38ac906020015b60405180910390a150565b61102c336113bb565b8061106557503360009081527fca0a2f641ec05ca23127d994cf03ffc453db616acae0b86cb56bb95304d06854602052604090205460ff165b6110b15760405162461bcd60e51b815260206004820152601560248201527f6e6f74206f6e6c794d696e7465724f7241646d696e00000000000000000000006044820152606401610f68565b6110db7fbf02bad7114723a857a3af46cea17b778a3a951c96f183784d9a2448cc479ab682611566565b50565b6110e7336113bb565b6111035760405162461bcd60e51b8152600401610f68906155bb565b6110db60008261175f565b6000816001600160a01b031663764a78566040518163ffffffff1660e01b81526004016020604051808303816000875af1158015611150573d6000803e3d6000fd5b505050506040513d601f19601f820116820180604052508101906111749190615627565b6111c05760405162461bcd60e51b815260206004820152601660248201527f6661696c20757064617465536569676e696f72616765000000000000000000006044820152606401610f68565b506001919050565b600b54604080516318160ddd60e01b815290516000926001600160a01b0316916318160ddd9160048083019260209291908290030181865afa158015611212573d6000803e3d6000fd5b505050506040513d601f19601f820116820180604052508101906112369190615644565b600a546040516370a0823160e01b8152600160048201526001600160a01b03909116906370a0823190602401602060405180830381865afa15801561127f573d6000803e3d6000fd5b505050506040513d601f19601f820116820180604052508101906112a39190615644565b600a54600b546040516370a0823160e01b81526001600160a01b0391821660048201529116906370a0823190602401602060405180830381865afa1580156112ef573d6000803e3d6000fd5b505050506040513d601f19601f820116820180604052508101906113139190615644565b600a60009054906101000a90046001600160a01b03166001600160a01b03166318160ddd6040518163ffffffff1660e01b8152600401602060405180830381865afa158015611366573d6000803e3d6000fd5b505050506040513d601f19601f8201168201806040525081019061138a9190615644565b611394919061565d565b61139e919061565d565b6113ac90633b9aca00615670565b6113b69190615614565b905090565b6001600160a01b03811660009081527f05b8ccbb9d4d8fb16ea74ce3c29a41f1b461fbdaff4714a0d9a8eb05499746bc602052604081205460ff16610f3d565b6114257fbf02bad7114723a857a3af46cea17b778a3a951c96f183784d9a2448cc479ab63361175f565b565b6114257f523a704056dcd17bcf83bed8b68c59416dac1119be77755efe3bde0a64e46e0c3361175f565b61145a336113bb565b6114765760405162461bcd60e51b8152600401610f68906155bb565b601655565b600080336001600160a01b031663570ca7356040518163ffffffff1660e01b8152600401602060405180830381865afa1580156114bc573d6000803e3d6000fd5b505050506040513d601f19601f820116820180604052508101906114e09190615687565b6001600160a01b038481166000908152600e6020526040908190205490516370a0823160e01b8152838316600482015292935016906370a0823190602401602060405180830381865afa15801561153b573d6000803e3d6000fd5b505050506040513d601f19601f8201168201806040525081019061155f9190615644565b9392505050565b6000828152600560205260409020600101546115818161443a565b61158b8383614444565b505050565b611599336113bb565b6115b55760405162461bcd60e51b8152600401610f68906155bb565b6110db7ff0887ba65ee2024ea881d91b74c2450ef19e1557f03bed3ea9f16b037cbe2dc98261175f565b6115e8336113bb565b6116045760405162461bcd60e51b8152600401610f68906155bb565b60005b81811015611759576000838383818110611623576116236156a4565b90506020020160208101906116389190615315565b604051634c1d96ab60e11b81526001600160a01b0387811660048301529192509082169063983b2d5690602401600060405180830381600087803b15801561167f57600080fd5b505af1158015611693573d6000803e3d6000fd5b50505050806001600160a01b031663986502756040518163ffffffff1660e01b8152600401600060405180830381600087803b1580156116d257600080fd5b505af11580156116e6573d6000803e3d6000fd5b505060405163f2fde38b60e01b81526001600160a01b0388811660048301528416925063f2fde38b9150602401600060405180830381600087803b15801561172d57600080fd5b505af1158015611741573d6000803e3d6000fd5b50505050508080611751906156ba565b915050611607565b50505050565b6001600160a01b03811633146117dd5760405162461bcd60e51b815260206004820152602f60248201527f416363657373436f6e74726f6c3a2063616e206f6e6c792072656e6f756e636560448201527f20726f6c657320666f722073656c6600000000000000000000000000000000006064820152608401610f68565b6117e782826144e6565b5050565b6117f4336113bb565b6118105760405162461bcd60e51b8152600401610f68906155bb565b806001600160a01b031663715018a66040518163ffffffff1660e01b8152600401600060405180830381600087803b15801561184b57600080fd5b505af115801561185f573d6000803e3d6000fd5b5050505050565b61186f336113bb565b61188b5760405162461bcd60e51b8152600401610f68906155bb565b6110db7fbf02bad7114723a857a3af46cea17b778a3a951c96f183784d9a2448cc479ab68261399c565b3360009081527f787f97f3270d439d97068e73d6d75a066b24f84c342661f177d4e43e00e9f513602052604090205460ff1661193f5760405162461bcd60e51b815260206004820152602360248201527f41757468436f6e74726f6c3a2043616c6c6572206973206e6f7420612070617560448201526239b2b960e91b6064820152608401610f68565b601f5460ff166119915760405162461bcd60e51b815260206004820152601460248201527f5061757361626c653a206e6f74207061757365640000000000000000000000006044820152606401610f68565b43601355601f805460ff191690556040513381527f5db9ee0a495bf2e6ff9c91a7834c1ba4fdd244a5e8aa4e537bd38aeae4b073aa906020015b60405180910390a1565b6007546000906001600160a01b03163314611a325760405162461bcd60e51b815260206004820152601660248201527f6e6f74206f6e6c794465706f7369744d616e61676572000000000000000000006044820152606401610f68565b6001600160a01b038085166000908152600e6020526040902054859116611ab25760405162461bcd60e51b815260206004820152602e60248201527f536569674d616e616765723a20636f696e61676520686173206e6f742062656560448201526d1b8819195c1b1bde5959081e595d60921b6064820152608401610f68565b611abc8585614569565b15611ba1576001600160a01b038581166000908152600e60205260408082205490516370a0823160e01b81528784166004820152919286929116906370a0823190602401602060405180830381865afa158015611b1d573d6000803e3d6000fd5b505050506040513d601f19601f82011682018060405250810190611b419190615644565b611b4b9190615614565b9050601a54811015611b9f5760405162461bcd60e51b815260206004820152601a60248201527f6d696e696d756d20616d6f756e742069732072657175697265640000000000006044820152606401610f68565b505b600d546040516340c10f1960e01b81526001600160a01b03878116600483015260248201869052909116906340c10f19906044016020604051808303816000875af1158015611bf4573d6000803e3d6000fd5b505050506040513d601f19601f82011682018060405250810190611c189190615627565b506001600160a01b038581166000908152600e6020526040908190205490516340c10f1960e01b81528683166004820152602481018690529116906340c10f19906044016020604051808303816000875af1158015611c7b573d6000803e3d6000fd5b505050506040513d601f19601f82011682018060405250810190611c9f9190615627565b506021546001600160a01b031615611d2057602154604051638340f54960e01b81526001600160a01b03878116600483015286811660248301526044820186905290911690638340f54990606401600060405180830381600087803b158015611d0757600080fd5b505af1158015611d1b573d6000803e3d6000fd5b505050505b506001949350505050565b611d34336113bb565b611d505760405162461bcd60e51b8152600401610f68906155bb565b600880546001600160a01b0319166001600160a01b0392909216919091179055565b611d7b336113bb565b611d975760405162461bcd60e51b8152600401610f68906155bb565b806001600160a01b0316636ef8d66d6040518163ffffffff1660e01b8152600401600060405180830381600087803b15801561184b57600080fd5b60065460009084906001600160a01b0316331480611e625750806001600160a01b031663570ca7356040518163ffffffff1660e01b8152600401602060405180830381865afa158015611e29573d6000803e3d6000fd5b505050506040513d601f19601f82011682018060405250810190611e4d9190615687565b6001600160a01b0316336001600160a01b0316145b611eae5760405162461bcd60e51b815260206004820152601a60248201527f6e6f74206f6e6c7952656769737472794f724f70657261746f720000000000006044820152606401610f68565b831580611edd5750836a084595161401484a00000011158015611edd57506b033b2e3c9fd0803ce80000008411155b611f5d5760405162461bcd60e51b8152602060048201526044602482018190527f536569674d616e616765723a20636f6d6d697373696f6e2072617465206d7573908201527f742062652030206f72206265747765656e20312052415920616e6420302e30316064820152632052415960e01b608482015260a401610f68565b6001600160a01b038516600090815260146020526040812054601654909103611fb6576001600160a01b038616600090815260146020908152604080832088905560159091529020805460ff1916851515179055611ffe565b601654611fc39043615614565b6001600160a01b038716600090815260176020908152604080832093909355601881528282208890556019905220805460ff19168515151790555b60408051828152602081018790526001600160a01b038816917f11841078e38c91feada06e1f8ded3697ab2dadc2583c52b14109b82ccd4f77d7910160405180910390a250600195945050505050565b600080600660009054906101000a90046001600160a01b03166001600160a01b0316630d42d4976040518163ffffffff1660e01b8152600401602060405180830381865afa1580156120a4573d6000803e3d6000fd5b505050506040513d601f19601f820116820180604052508101906120c89190615644565b905060005b818110156121e25760065460405163b7ffb17960e01b8152600481018390526000916001600160a01b03169063b7ffb17990602401602060405180830381865afa15801561211f573d6000803e3d6000fd5b505050506040513d601f19601f820116820180604052508101906121439190615687565b6001600160a01b038181166000908152600e6020526040908190205490516370a0823160e01b8152888316600482015292935016906370a0823190602401602060405180830381865afa15801561219e573d6000803e3d6000fd5b505050506040513d601f19601f820116820180604052508101906121c29190615644565b6121cc9085615614565b93505080806121da906156ba565b9150506120cd565b5050919050565b600a546001600160a01b03161580156122025750601154155b61224e5760405162461bcd60e51b815260206004820152601360248201527f616c726561647920696e697469616c697a6564000000000000000000000000006044820152606401610f68565b600a80546001600160a01b03808a166001600160a01b031992831617909255600b805489841690831617905560068054888416908316179055600780548784169083161790556010859055600c8054928516929091168217905560408051631dd70c0360e21b815290516000929163775c300c916004828101926020929190829003018187875af11580156122e7573d6000803e3d6000fd5b505050506040513d601f19601f8201168201806040525081019061230b9190615687565b90506001600160a01b03811661234e5760405162461bcd60e51b81526020600482015260086024820152671e995c9bc81d1bdd60c21b6044820152606401610f68565b600d80546001600160a01b0319166001600160a01b0392909216919091179055601155505050505050565b60006123868484846145e9565b949350505050565b600a546000906001600160a01b03163314806123b45750600b546001600160a01b031633145b6124265760405162461bcd60e51b815260206004820152603160248201527f536569674d616e616765723a206f6e6c7920544f4e206f722057544f4e20636160448201527f6e2063616c6c206f6e5472616e736665720000000000000000000000000000006064820152608401610f68565b601f5460ff1661243a57612438614731565b505b5060019392505050565b600080600660009054906101000a90046001600160a01b03166001600160a01b0316630d42d4976040518163ffffffff1660e01b8152600401602060405180830381865afa15801561249a573d6000803e3d6000fd5b505050506040513d601f19601f820116820180604052508101906124be9190615644565b905060005b818110156125df5760065460405163b7ffb17960e01b8152600481018390526000916001600160a01b03169063b7ffb17990602401602060405180830381865afa158015612515573d6000803e3d6000fd5b505050506040513d601f19601f820116820180604052508101906125399190615687565b6001600160a01b038181166000908152600e60205260409081902054905163277166bf60e11b81528983166004820152602481018990529293501690634ee2cd7e90604401602060405180830381865afa15801561259b573d6000803e3d6000fd5b505050506040513d601f19601f820116820180604052508101906125bf9190615644565b6125c99085615614565b93505080806125d7906156ba565b9150506124c3565b505092915050565b6020546040517fac3d68540f9902349c72a28dc187ad15b504d68182767a2b00a3db86880507ba9061261c9083815260200190565b60405180910390a160208054906000612634836156ba565b919050555090565b612645336113bb565b6126615760405162461bcd60e51b8152600401610f68906155bb565b806001600160a01b031663986502756040518163ffffffff1660e01b8152600401600060405180830381600087803b15801561184b57600080fd5b6126a5336113bb565b6126c15760405162461bcd60e51b8152600401610f68906155bb565b600980546001600160a01b0319166001600160a01b0392909216919091179055565b6126ec336113bb565b6127085760405162461bcd60e51b8152600401610f68906155bb565b6110db7fbf02bad7114723a857a3af46cea17b778a3a951c96f183784d9a2448cc479ab68261175f565b61273b336113bb565b6127575760405162461bcd60e51b8152600401610f68906155bb565b60405163f2fde38b60e01b81526001600160a01b03828116600483015283169063f2fde38b90602401600060405180830381600087803b15801561279a57600080fd5b505af11580156127ae573d6000803e3d6000fd5b505050505050565b6001600160a01b03811660009081527f02634a7c777b8129955fe1824eee49ef19dfa96f2f4cb63212492c3d84eb58e6602052604081205460ff16610f3d565b6127ff336113bb565b61281b5760405162461bcd60e51b8152600401610f68906155bb565b6110db600082611566565b61282f336113bb565b61284b5760405162461bcd60e51b8152600401610f68906155bb565b61142560003361175f565b61285f336113bb565b61287b5760405162461bcd60e51b8152600401610f68906155bb565b6001600160a01b0381166128d15760405162461bcd60e51b815260206004820152601860248201527f41636365737369626c653a207a65726f206164647265737300000000000000006044820152606401610f68565b6001600160a01b03811633036129295760405162461bcd60e51b815260206004820152601660248201527f41636365737369626c653a2073616d652061646d696e000000000000000000006044820152606401610f68565b612934600082611566565b6110db60003361175f565b336000818152600e60205260408120549091906001600160a01b03166129be5760405162461bcd60e51b815260206004820152602e60248201527f536569674d616e616765723a20636f696e61676520686173206e6f742062656560448201526d1b8819195c1b1bde5959081e595d60921b6064820152608401610f68565b601f5460ff16156129d157600191505090565b6011544311612a225760405162461bcd60e51b815260206004820152601b60248201527f6c617374207365696720626c6f636b206973206e6f74207061737400000000006044820152606401610f68565b6000612a2d3361147b565b9050601a54811015612a815760405162461bcd60e51b815260206004820152601d60248201527f6d696e696d756d416d6f756e7420697320696e73756666696369656e740000006044820152606401610f68565b336000908152600e60205260409020546001600160a01b0316612aa2614731565b50336000908152600f6020908152604080832043905580516318160ddd60e01b815290516001600160a01b038516926318160ddd92600480820193918290030181865afa158015612af7573d6000803e3d6000fd5b505050506040513d601f19601f82011682018060405250810190612b1b9190615644565b600d546040516370a0823160e01b81523360048201529192506000916001600160a01b03909116906370a0823190602401602060405180830381865afa158015612b69573d6000803e3d6000fd5b505050506040513d601f19601f82011682018060405250810190612b8d9190615644565b9050808210612bcd5760405133907f521cc65179761533a7c8d7a973291dd7baebb99a67edf5ef78e9c2b61a533d9590600090a260019550505050505090565b6000612bd9838361565d565b90506000336001600160a01b031663570ca7356040518163ffffffff1660e01b8152600401602060405180830381865afa158015612c1b573d6000803e3d6000fd5b505050506040513d601f19601f82011682018060405250810190612c3f9190615687565b336000818152601560205260408120549293509160ff1690612c65908888878588614c10565b8093508196505050866001600160a01b031663817e9d31612ce888888b6001600160a01b03166354f703f86040518163ffffffff1660e01b8152600401602060405180830381865afa158015612cbf573d6000803e3d6000fd5b505050506040513d601f19601f82011682018060405250810190612ce39190615644565b614e2b565b6040518263ffffffff1660e01b8152600401612d0691815260200190565b6020604051808303816000875af1158015612d25573d6000803e3d6000fd5b505050506040513d601f19601f82011682018060405250810190612d499190615627565b508115612e32578015612dbd5760405163079cc67960e41b81526001600160a01b038481166004830152602482018490528816906379cc679090604401600060405180830381600087803b158015612da057600080fd5b505af1158015612db4573d6000803e3d6000fd5b50505050612e32565b6040516340c10f1960e01b81526001600160a01b038481166004830152602482018490528816906340c10f19906044016020604051808303816000875af1158015612e0c573d6000803e3d6000fd5b505050506040513d601f19601f82011682018060405250810190612e309190615627565b505b600b546007546040516340c10f1960e01b81526001600160a01b039182166004820152602481018790529116906340c10f19906044016020604051808303816000875af1158015612e87573d6000803e3d6000fd5b505050506040513d601f19601f82011682018060405250810190612eab9190615627565b506021546001600160a01b031615612fe357600086612ed6866b033b2e3c9fd0803ce8000000615670565b612ee091906156d3565b9050612f216040518060400160405280601281526020017f70726576546f74616c537570706c79202573000000000000000000000000000081525088614e40565b612f4b60405180604001604052806008815260200167736569677320257360c01b81525086614e40565b612f766040518060400160405280600981526020016873686172657320257360b81b81525082614e40565b8015612fe15760215460405163c5f16b8960e01b8152336004820152602481018390526001600160a01b039091169063c5f16b8990604401600060405180830381600087803b158015612fc857600080fd5b505af1158015612fdc573d6000803e3d6000fd5b505050505b505b60405133907f521cc65179761533a7c8d7a973291dd7baebb99a67edf5ef78e9c2b61a533d9590600090a2604080513381526020810186905290810183905260608101869052608081018790527f9f0aff7defc0f0b331d66bccf1955a699b40155565289317e38b9799ddf094489060a00160405180910390a16001995050505050505050505090565b3360009081527fedec71783a10810e436f3392a073a61717130e573433fcc6591c3061a012f767602052604081205460ff166130fb5760405162461bcd60e51b815260206004820152602760248201527f41757468436f6e74726f6c3a2043616c6c6572206973206e6f74206120636861604482015266363632b733b2b960c91b6064820152608401610f68565b6001600160a01b038084166000908152600e602052604090205484911661317b5760405162461bcd60e51b815260206004820152602e60248201527f536569674d616e616765723a20636f696e61676520686173206e6f742062656560448201526d1b8819195c1b1bde5959081e595d60921b6064820152608401610f68565b6040516306394c9b60e01b81526001600160a01b0384811660048301528516906306394c9b90602401600060405180830381600087803b1580156131be57600080fd5b505af11580156131d2573d6000803e3d6000fd5b506001979650505050505050565b6006546000906001600160a01b0316331461323d5760405162461bcd60e51b815260206004820152601060248201527f6e6f74206f6e6c795265676973747279000000000000000000000000000000006044820152606401610f68565b6001600160a01b038281166000908152600e6020526040902054166111c057600c5460408051631dd70c0360e21b815290516000926001600160a01b03169163775c300c916004808301926020929190829003018187875af11580156132a7573d6000803e3d6000fd5b505050506040513d601f19601f820116820180604052508101906132cb9190615687565b6001600160a01b038481166000818152600f60209081526040808320439055600e82529182902080546001600160a01b03191694861694851790559051928352929350917f124cac1e701d08d642237ad795ddd275670e12f2cd956a26709721c68084c2b2910160405180910390a250506001919050565b3360009081527f787f97f3270d439d97068e73d6d75a066b24f84c342661f177d4e43e00e9f513602052604090205460ff166133cd5760405162461bcd60e51b815260206004820152602360248201527f41757468436f6e74726f6c3a2043616c6c6572206973206e6f7420612070617560448201526239b2b960e91b6064820152608401610f68565b601f5460ff16156134205760405162461bcd60e51b815260206004820152601060248201527f5061757361626c653a20706175736564000000000000000000000000000000006044820152606401610f68565b43601255601f805460ff191660011790556040513381527f62e78cea01bee320cd4e420270b5ea74000d11b0c9f74754ebdbfc544b05a258906020016119cb565b6001600160a01b038381166000908152600e602052604080822054905163277166bf60e11b815285841660048201526024810185905291921690634ee2cd7e90604401602060405180830381865afa1580156134c1573d6000803e3d6000fd5b505050506040513d601f19601f820116820180604052508101906123869190615644565b6134ee336113bb565b61350a5760405162461bcd60e51b8152600401610f68906155bb565b6110db7ff0887ba65ee2024ea881d91b74c2450ef19e1557f03bed3ea9f16b037cbe2dc982611566565b6114257ff0887ba65ee2024ea881d91b74c2450ef19e1557f03bed3ea9f16b037cbe2dc93361175f565b613567336113bb565b6135835760405162461bcd60e51b8152600401610f68906155bb565b6110db7f523a704056dcd17bcf83bed8b68c59416dac1119be77755efe3bde0a64e46e0c82611566565b6135b6336113bb565b6135d25760405162461bcd60e51b8152600401610f68906155bb565b6b033b2e3c9fd0803ce8000000601d54601c54836135f09190615614565b6135fa9190615614565b11156136485760405162461bcd60e51b815260206004820152601960248201527f657863656564656420736569676e696f726167652072617465000000000000006044820152606401610f68565b601b8190556040518181527f25826073c0320e7bfcef08488f501afb014791143befc0558b6343262751a87690602001611018565b600d54604051630981b24d60e41b8152600481018390526000916001600160a01b03169063981b24d090602401602060405180830381865afa1580156136c7573d6000803e3d6000fd5b505050506040513d601f19601f82011682018060405250810190610f3d9190615644565b6001600160a01b03811660009081527fedec71783a10810e436f3392a073a61717130e573433fcc6591c3061a012f767602052604081205460ff16610f3d565b6001600160a01b03811660009081527fca0a2f641ec05ca23127d994cf03ffc453db616acae0b86cb56bb95304d06854602052604081205460ff16610f3d565b613774336113bb565b6137905760405162461bcd60e51b8152600401610f68906155bb565b600c80546001600160a01b0319166001600160a01b0392909216919091179055565b6137bb336113bb565b6137d75760405162461bcd60e51b8152600401610f68906155bb565b6110db7f523a704056dcd17bcf83bed8b68c59416dac1119be77755efe3bde0a64e46e0c8261175f565b61380a336113bb565b6138265760405162461bcd60e51b8152600401610f68906155bb565b600b60009054906101000a90046001600160a01b03166001600160a01b031663986502756040518163ffffffff1660e01b8152600401600060405180830381600087803b15801561387657600080fd5b505af1158015611759573d6000803e3d6000fd5b6001600160a01b038281166000908152600e60205260408082205490516370a0823160e01b81528484166004820152919216906370a0823190602401602060405180830381865afa15801561153b573d6000803e3d6000fd5b600d54604080516318160ddd60e01b815290516000926001600160a01b0316916318160ddd9160048083019260209291908290030181865afa15801561392d573d6000803e3d6000fd5b505050506040513d601f19601f820116820180604052508101906113b69190615644565b61395a336113bb565b6139765760405162461bcd60e51b8152600401610f68906155bb565b6110db7ff0887ba65ee2024ea881d91b74c2450ef19e1557f03bed3ea9f16b037cbe2dc9825b6000828152600560205260409020600101546139b78161443a565b61158b83836144e6565b6139ca336113bb565b6139e65760405162461bcd60e51b8152600401610f68906155bb565b6b033b2e3c9fd0803ce800000081601c54601b54613a049190615614565b613a0e9190615614565b1115613a5c5760405162461bcd60e51b815260206004820152601960248201527f657863656564656420736569676e696f726167652072617465000000000000006044820152606401610f68565b601d8190556040518181527f4f3f4d2a7e076fb16f4fe2fc46ac0a4050623f4a4ba0fb0e9a9d5283f192a09090602001611018565b613a9a336113bb565b613ab65760405162461bcd60e51b8152600401610f68906155bb565b601a55565b613ac4336113bb565b613ae05760405162461bcd60e51b8152600401610f68906155bb565b602180546001600160a01b0319166001600160a01b0392909216919091179055565b613b0b336113bb565b613b275760405162461bcd60e51b8152600401610f68906155bb565b6110db81612856565b6007546000906001600160a01b03163314613b8d5760405162461bcd60e51b815260206004820152601660248201527f6e6f74206f6e6c794465706f7369744d616e61676572000000000000000000006044820152606401610f68565b6001600160a01b038085166000908152600e6020526040902054859116613c0d5760405162461bcd60e51b815260206004820152602e60248201527f536569674d616e616765723a20636f696e61676520686173206e6f742062656560448201526d1b8819195c1b1bde5959081e595d60921b6064820152608401610f68565b6001600160a01b038581166000908152600e6020526040908190205490516370a0823160e01b81528683166004820152859291909116906370a0823190602401602060405180830381865afa158015613c6a573d6000803e3d6000fd5b505050506040513d601f19601f82011682018060405250810190613c8e9190615644565b1015613d025760405162461bcd60e51b815260206004820152602c60248201527f536569674d616e616765723a20696e73756666696369616e742062616c616e6360448201527f6520746f20756e7374616b6500000000000000000000000000000000000000006064820152608401610f68565b613d0c8585614569565b15613df1576001600160a01b038581166000908152600e60205260408082205490516370a0823160e01b81528784166004820152919286929116906370a0823190602401602060405180830381865afa158015613d6d573d6000803e3d6000fd5b505050506040513d601f19601f82011682018060405250810190613d919190615644565b613d9b919061565d565b9050601a54811015613def5760405162461bcd60e51b815260206004820152601a60248201527f6d696e696d756d20616d6f756e742069732072657175697265640000000000006044820152606401610f68565b505b6000613dfe8686866145e9565b600d549091506001600160a01b03166379cc679087613e1d8488615614565b6040516001600160e01b031960e085901b1681526001600160a01b0390921660048301526024820152604401600060405180830381600087803b158015613e6357600080fd5b505af1158015613e77573d6000803e3d6000fd5b505050506001600160a01b038681166000908152600e60205260409081902054905163079cc67960e41b81528783166004820152602481018790529116906379cc679090604401600060405180830381600087803b158015613ed857600080fd5b505af1158015613eec573d6000803e3d6000fd5b50506021546001600160a01b0316159150613f72905057602154604051636ce5768960e11b81526001600160a01b0388811660048301528781166024830152604482018790529091169063d9caed1290606401600060405180830381600087803b158015613f5957600080fd5b505af1158015613f6d573d6000803e3d6000fd5b505050505b60408051858152602081018390527f650f673bb96a43afff4620ecc3f3e38e0cbfddebde9894e951ba2ceff7472f60910160405180910390a150600195945050505050565b613fc0336113bb565b613fdc5760405162461bcd60e51b8152600401610f68906155bb565b6b033b2e3c9fd0803ce8000000601d54601c54601b54613ffc9190615614565b6140069190615614565b11156140545760405162461bcd60e51b815260206004820152601960248201527f657863656564656420736569676e696f726167652072617465000000000000006044820152606401610f68565b600880546001600160a01b03808a166001600160a01b0319928316179092556009805492891692909116919091179055601b859055601c849055601d8390556016829055601a8190556040517f25826073c0320e7bfcef08488f501afb014791143befc0558b6343262751a876906140cf9087815260200190565b60405180910390a16040518481527f1140c1f14579543e61b599f8f43d0112d66ec1462431e56c97c27b47446a38ac9060200160405180910390a16040518481527f1140c1f14579543e61b599f8f43d0112d66ec1462431e56c97c27b47446a38ac9060200160405180910390a150505050505050565b6001600160a01b038083166000908152600e60209081526040808320548151630a9ee07f60e31b8152915193941692849284926354f703f892600480830193928290030181865afa15801561419f573d6000803e3d6000fd5b505050506040513d601f19601f820116820180604052508101906141c39190615644565b90506000826001600160a01b03166318160ddd6040518163ffffffff1660e01b8152600401602060405180830381865afa158015614205573d6000803e3d6000fd5b505050506040513d601f19601f820116820180604052508101906142299190615644565b600d546040516370a0823160e01b81526001600160a01b038981166004830152929350600092909116906370a0823190602401602060405180830381865afa158015614279573d6000803e3d6000fd5b505050506040513d601f19601f8201168201806040525081019061429d9190615644565b905060006142ac838386614e2b565b6040516370a0823160e01b81526001600160a01b0389811660048301529192506000916143309161432a918916906370a0823190602401602060405180830381865afa158015614300573d6000803e3d6000fd5b505050506040513d601f19601f820116820180604052508101906143249190615644565b87614e9a565b83614ed0565b6001600160a01b038a81166000908152600e6020526040908190205490516370a0823160e01b81528b8316600482015292935016906370a0823190602401602060405180830381865afa15801561438b573d6000803e3d6000fd5b505050506040513d601f19601f820116820180604052508101906143af9190615644565b6143b9908261565d565b9998505050505050505050565b6143cf336113bb565b6143eb5760405162461bcd60e51b8152600401610f68906155bb565b6110db7f523a704056dcd17bcf83bed8b68c59416dac1119be77755efe3bde0a64e46e0c8261399c565b60006001600160e01b03198216637965db0b60e01b1480610f3d5750610f3d82614f03565b6110db8133614f3f565b60008281526005602090815260408083206001600160a01b038516845290915290205460ff166117e75760008281526005602090815260408083206001600160a01b03851684529091529020805460ff191660011790556144a23390565b6001600160a01b0316816001600160a01b0316837f2f8788117e7eff1d82e926ec794901d17c78024a50270940304540a733656f0d60405160405180910390a45050565b60008281526005602090815260408083206001600160a01b038516845290915290205460ff16156117e75760008281526005602090815260408083206001600160a01b0385168085529252808320805460ff1916905551339285917ff6391f5c32d9c69d2a47ea670b442974b53935d1edc7fd64eb21e047a839171b9190a45050565b6000826001600160a01b031663570ca7356040518163ffffffff1660e01b8152600401602060405180830381865afa1580156145a9573d6000803e3d6000fd5b505050506040513d601f19601f820116820180604052508101906145cd9190615687565b6001600160a01b0316826001600160a01b031614905092915050565b6001600160a01b038084166000908152600e602090815260408083205481516318160ddd60e01b81529151939485949116926318160ddd92600480820193918290030181865afa158015614641573d6000803e3d6000fd5b505050506040513d601f19601f820116820180604052508101906146659190615644565b600d546040516370a0823160e01b81526001600160a01b038881166004830152929350600092909116906370a0823190602401602060405180830381865afa1580156146b5573d6000803e3d6000fd5b505050506040513d601f19601f820116820180604052508101906146d99190615644565b90508082101580156146fb5750670de0b6b3a76400006146f9828461565d565b105b1561470b5760009250505061155f565b61472761472161471b848461565d565b86614ed0565b83614e9a565b9695505050505050565b600060115443116147425750600090565b600d60009054906101000a90046001600160a01b03166001600160a01b03166318160ddd6040518163ffffffff1660e01b8152600401602060405180830381865afa158015614795573d6000803e3d6000fd5b505050506040513d601f19601f820116820180604052508101906147b99190615644565b6000036147ca575043601155600090565b600080600d60009054906101000a90046001600160a01b03166001600160a01b03166318160ddd6040518163ffffffff1660e01b8152600401602060405180830381865afa158015614820573d6000803e3d6000fd5b505050506040513d601f19601f820116820180604052508101906148449190615644565b91506000601054614853614fb4565b61485d9190615670565b905060006148696111c8565b905060006148f061472184600d60009054906101000a90046001600160a01b03166001600160a01b03166318160ddd6040518163ffffffff1660e01b8152600401602060405180830381865afa1580156148c7573d6000803e3d6000fd5b505050506040513d601f19601f820116820180604052508101906148eb9190615644565b614ed0565b90506000614909614901838661565d565b601d54614ed0565b9050806149168388615614565b6149209190615614565b43601155600d5460408051630a9ee07f60e31b815290519297506001600160a01b039091169163817e9d3191614980918a918a9186916354f703f89160048083019260209291908290030181865afa158015612cbf573d6000803e3d6000fd5b6040518263ffffffff1660e01b815260040161499e91815260200190565b6020604051808303816000875af11580156149bd573d6000803e3d6000fd5b505050506040513d601f19601f820116820180604052508101906149e19190615627565b5060006149ee838661565d565b600854909150600090819081906001600160a01b031615614af057614a1584601b54614ed0565b600b546008546040516340c10f1960e01b81526001600160a01b0391821660048201526024810184905292955016906340c10f19906044016020604051808303816000875af1158015614a6c573d6000803e3d6000fd5b505050506040513d601f19601f82011682018060405250810190614a909190615627565b5060085460405163027aa37b60e01b8152600481018590526001600160a01b039091169063027aa37b90602401600060405180830381600087803b158015614ad757600080fd5b505af1158015614aeb573d6000803e3d6000fd5b505050505b6009546001600160a01b031615614b8a57614b0d84601c54614ed0565b600b546009546040516340c10f1960e01b81526001600160a01b0391821660048201526024810184905292945016906340c10f19906044016020604051808303816000875af1158015614b64573d6000803e3d6000fd5b505050506040513d601f19601f82011682018060405250810190614b889190615627565b505b601d5415614ba75784905080601e54614ba39190615614565b601e555b6040805189815260208101889052908101859052606081018490526080810183905260a0810182905233907fa1c52db210d9232b95c07d81e0aca3d25829b70963d3c458843f9d63d1ccb9949060c00160405180910390a260019a505050505050505050505090565b6001600160a01b03861660009081526017602052604081205481904310801590614c5157506001600160a01b03881660009081526017602052604090205415155b15614ca5576001600160a01b0388166000908152601860209081526040808320546014835281842055601982528083205460158352818420805460ff191660ff909216151591909117905560179091528120555b33600090815260146020526040902054614cbf8688615614565b925080600003614ccf5750614e20565b84614cf257614cde8682614ed0565b9150614cea828461565d565b925050614e20565b86600003614d005750614e20565b6040516370a0823160e01b81526001600160a01b038581166004830152600091908a16906370a0823190602401602060405180830381865afa158015614d4a573d6000803e3d6000fd5b505050506040513d601f19601f82011682018060405250810190614d6e9190615644565b905080600003614d7f575050614e20565b6000614d8b828a614e9a565b9050614da0614d9a8983614ed0565b84614ed0565b935060006b033b2e3c9fd0803ce80000008214614ddb57614dd685614dd1846b033b2e3c9fd0803ce800000061565d565b614e9a565b614ddd565b845b90506b033b2e3c9fd0803ce80000008214614e0b57614dfc8183614ed0565b614e069086615614565b614e0d565b845b9450614e198187615614565b9550505050505b965096945050505050565b6000612386614e3a8484614ed0565b85614e9a565b6117e78282604051602401614e56929190615745565b60408051601f198184030181529190526020810180517bffffffffffffffffffffffffffffffffffffffffffffffffffffffff16632d839cb360e21b17905261500a565b600081614ec6614eb6856b033b2e3c9fd0803ce8000000615013565b614ec16002866156d3565b615083565b61155f91906156d3565b60006b033b2e3c9fd0803ce8000000614ec6614eec8585615013565b614ec160026b033b2e3c9fd0803ce80000006156d3565b60006301ffc9a760e01b6001600160e01b031983161480610f3d5750506001600160e01b03191660009081526004602052604090205460ff1690565b60008281526005602090815260408083206001600160a01b038516845290915290205460ff166117e757614f72816150e1565b614f7d8360206150f3565b604051602001614f8e929190615767565b60408051601f198184030181529082905262461bcd60e51b8252610f68916004016157e8565b601f5460009060ff1615614fc757600080fd5b600060115443614fd7919061565d565b90506011546013541015614fea57919050565b601254601354614ffa919061565d565b615004908261565d565b91505090565b6110db8161529c565b6000811580615037575082826150298183615670565b925061503590836156d3565b145b610f3d5760405162461bcd60e51b815260206004820152601460248201527f64732d6d6174682d6d756c2d6f766572666c6f770000000000000000000000006044820152606401610f68565b6000826150908382615614565b9150811015610f3d5760405162461bcd60e51b815260206004820152601460248201527f64732d6d6174682d6164642d6f766572666c6f770000000000000000000000006044820152606401610f68565b6060610f3d6001600160a01b03831660145b60606000615102836002615670565b61510d906002615614565b67ffffffffffffffff811115615125576151256157fb565b6040519080825280601f01601f19166020018201604052801561514f576020820181803683370190505b509050600360fc1b8160008151811061516a5761516a6156a4565b60200101906001600160f81b031916908160001a905350600f60fb1b81600181518110615199576151996156a4565b60200101906001600160f81b031916908160001a90535060006151bd846002615670565b6151c8906001615614565b90505b600181111561524d577f303132333435363738396162636465660000000000000000000000000000000085600f1660108110615209576152096156a4565b1a60f81b82828151811061521f5761521f6156a4565b60200101906001600160f81b031916908160001a90535060049490941c9361524681615811565b90506151cb565b50831561155f5760405162461bcd60e51b815260206004820181905260248201527f537472696e67733a20686578206c656e67746820696e73756666696369656e746044820152606401610f68565b60006a636f6e736f6c652e6c6f679050600080835160208501845afa505050565b6000602082840312156152cf57600080fd5b81356001600160e01b03198116811461155f57600080fd5b6000602082840312156152f957600080fd5b5035919050565b6001600160a01b03811681146110db57600080fd5b60006020828403121561532757600080fd5b813561155f81615300565b6000806040838503121561534557600080fd5b82359150602083013561535781615300565b809150509250929050565b60008060006040848603121561537757600080fd5b833561538281615300565b9250602084013567ffffffffffffffff8082111561539f57600080fd5b818601915086601f8301126153b357600080fd5b8135818111156153c257600080fd5b8760208260051b85010111156153d757600080fd5b6020830194508093505050509250925092565b6000806000606084860312156153ff57600080fd5b833561540a81615300565b9250602084013561541a81615300565b929592945050506040919091013590565b80151581146110db57600080fd5b60008060006060848603121561544e57600080fd5b833561545981615300565b92506020840135915060408401356154708161542b565b809150509250925092565b600080600080600080600060e0888a03121561549657600080fd5b87356154a181615300565b965060208801356154b181615300565b955060408801356154c181615300565b945060608801356154d181615300565b93506080880135925060a08801356154e881615300565b8092505060c0880135905092959891949750929550565b6000806040838503121561551257600080fd5b823561551d81615300565b946020939093013593505050565b6000806040838503121561553e57600080fd5b823561554981615300565b9150602083013561535781615300565b600080600080600080600060e0888a03121561557457600080fd5b873561557f81615300565b9650602088013561558f81615300565b96999698505050506040850135946060810135946080820135945060a0820135935060c0909101359150565b60208082526023908201527f41757468436f6e74726f6c3a2043616c6c6572206973206e6f7420616e20616460408201526236b4b760e91b606082015260800190565b634e487b7160e01b600052601160045260246000fd5b80820180821115610f3d57610f3d6155fe565b60006020828403121561563957600080fd5b815161155f8161542b565b60006020828403121561565657600080fd5b5051919050565b81810381811115610f3d57610f3d6155fe565b8082028115828204841417610f3d57610f3d6155fe565b60006020828403121561569957600080fd5b815161155f81615300565b634e487b7160e01b600052603260045260246000fd5b6000600182016156cc576156cc6155fe565b5060010190565b6000826156f057634e487b7160e01b600052601260045260246000fd5b500490565b60005b838110156157105781810151838201526020016156f8565b50506000910152565b600081518084526157318160208601602086016156f5565b601f01601f19169290920160200192915050565b6040815260006157586040830185615719565b90508260208301529392505050565b7f416363657373436f6e74726f6c3a206163636f756e742000000000000000000081526000835161579f8160178501602088016156f5565b7f206973206d697373696e6720726f6c652000000000000000000000000000000060179184019182015283516157dc8160288401602088016156f5565b01602801949350505050565b60208152600061155f6020830184615719565b634e487b7160e01b600052604160045260246000fd5b600081615820576158206155fe565b50600019019056fea164736f6c6343000813000a",
  "linkReferences": {},
  "deployedLinkReferences": {}
}