{
  "_format": "hh-sol-artifact-1",
  "contractName": "StorageStateCommitteeV2",
  "sourceName": "contracts/dao/StorageStateCommitteeV2.sol",
  "abi": [
    {
      "inputs": [],
      "name": "pauseProxy",
      "outputs": [
        {
          "internalType": "bool",
          "name": "",
          "type": "bool"
        }
      ],
      "stateMutability": "view",
      "type": "function"
    },
    {
      "inputs": [],
      "name": "wton",
      "outputs": [
        {
          "internalType": "address",
          "name": "",
          "type": "address"
        }
      ],
      "stateMutability": "view",
      "type": "function"
    }
  ],
  "bytecode": "0x608060405234801561001057600080fd5b5060958061001f6000396000f3fe6080604052348015600f57600080fd5b506004361060325760003560e01c806363a8fd891460375780638d62d94914605f575b600080fd5b600054604a90600160a01b900460ff1681565b60405190151581526020015b60405180910390f35b6002546071906001600160a01b031681565b6040516001600160a01b039091168152602001605656fea164736f6c6343000813000a",
  "linkReferences": {},
  "deployedLinkReferences": {}
}