{
  "_format": "hh-sol-artifact-1",
  "contractName": "StorageStateCommitteeV2",
  "sourceName": "contracts/dao/StorageStateCommitteeV2.sol",
  "abi": [
    {
      "inputs": [],
      "name": "pauseProxy",
      "outputs": [
        {
          "internalType": "bool",
          "name": "",
          "type": "bool"
        }
      ],
      "stateMutability": "view",
      "type": "function"
    }
  ],
  "bytecode": "0x6080604052348015600f57600080fd5b5060728061001e6000396000f3fe6080604052348015600f57600080fd5b506004361060285760003560e01c806363a8fd8914602d575b600080fd5b60005460519074010000000000000000000000000000000000000000900460ff1681565b604051901515815260200160405180910390f3fea164736f6c6343000813000a",
  "linkReferences": {},
  "deployedLinkReferences": {}
}