{
  "_format": "hh-sol-artifact-1",
  "contractName": "SeigManagerV1_3Storage",
  "sourceName": "contracts/stake/managers/SeigManagerV1_3Storage.sol",
  "abi": [
    {
      "inputs": [],
      "name": "l2Registry",
      "outputs": [
        {
          "internalType": "address",
          "name": "",
          "type": "address"
        }
      ],
      "stateMutability": "view",
      "type": "function"
    },
    {
      "inputs": [],
      "name": "l2RewardPerUint",
      "outputs": [
        {
          "internalType": "uint256",
          "name": "",
          "type": "uint256"
        }
      ],
      "stateMutability": "view",
      "type": "function"
    },
    {
      "inputs": [],
      "name": "layer2Manager",
      "outputs": [
        {
          "internalType": "address",
          "name": "",
          "type": "address"
        }
      ],
      "stateMutability": "view",
      "type": "function"
    },
    {
      "inputs": [
        {
          "internalType": "address",
          "name": "",
          "type": "address"
        }
      ],
      "name": "layer2RewardInfo",
      "outputs": [
        {
          "internalType": "uint256",
          "name": "layer2Tvl",
          "type": "uint256"
        },
        {
          "internalType": "uint256",
          "name": "initialDebt",
          "type": "uint256"
        }
      ],
      "stateMutability": "view",
      "type": "function"
    },
    {
      "inputs": [],
      "name": "layer2StartBlock",
      "outputs": [
        {
          "internalType": "uint256",
          "name": "",
          "type": "uint256"
        }
      ],
      "stateMutability": "view",
      "type": "function"
    },
    {
      "inputs": [],
      "name": "totalLayer2TVL",
      "outputs": [
        {
          "internalType": "uint256",
          "name": "",
          "type": "uint256"
        }
      ],
      "stateMutability": "view",
      "type": "function"
    }
  ],
  "bytecode": "0x6080806040523461001657610163908161001c8239f35b600080fdfe60806040818152600436101561001457600080fd5b600091823560e01c90816316b5d5bd14610131575080635f6fb8b9146100e85780636e71186b146100ca578063c2e5dcc9146100a3578063d0d2ff70146100855763f9bae41a1461006457600080fd5b346100815781600319360112610081576020906003549051908152f35b5080fd5b50346100815781600319360112610081576020906002549051908152f35b5034610081578160031936011261008157905490516001600160a01b039091168152602090f35b50346100815781600319360112610081576020906004549051908152f35b5034610081576020366003190112610081576004356001600160a01b0381169081900361012d5791819281526005602052206001815491015482519182526020820152f35b8280fd5b8390346100815781600319360112610081576001546001600160a01b03168152602090f3fea164736f6c6343000813000a",
  "linkReferences": {},
  "deployedLinkReferences": {}
}