{
  "_format": "hh-sol-artifact-1",
  "contractName": "L1StakedTonToL2",
  "sourceName": "contracts/L1/L1StakedTonToL2.sol",
  "abi": [
    {
      "inputs": [],
      "stateMutability": "nonpayable",
      "type": "constructor"
    },
    {
      "anonymous": false,
      "inputs": [
        {
          "indexed": false,
          "internalType": "address",
          "name": "layer",
          "type": "address"
        },
        {
          "indexed": false,
          "internalType": "address",
          "name": "account",
          "type": "address"
        },
        {
          "indexed": false,
          "internalType": "uint256",
          "name": "amount",
          "type": "uint256"
        }
      ],
      "name": "Deposited",
      "type": "event"
    },
    {
      "anonymous": false,
      "inputs": [
        {
          "indexed": false,
          "internalType": "address",
          "name": "manager_",
          "type": "address"
        },
        {
          "indexed": false,
          "internalType": "address",
          "name": "seigManager_",
          "type": "address"
        },
        {
          "indexed": false,
          "internalType": "address",
          "name": "registry_",
          "type": "address"
        },
        {
          "indexed": false,
          "internalType": "address",
          "name": "addressManager_",
          "type": "address"
        },
        {
          "indexed": false,
          "internalType": "uint32",
          "name": "minGasLimit_",
          "type": "uint32"
        }
      ],
      "name": "Initialized",
      "type": "event"
    },
    {
      "anonymous": false,
      "inputs": [
        {
          "indexed": false,
          "internalType": "address",
          "name": "account",
          "type": "address"
        },
        {
          "indexed": false,
          "internalType": "bytes",
          "name": "syncPacket",
          "type": "bytes"
        }
      ],
      "name": "Registered",
      "type": "event"
    },
    {
      "anonymous": false,
      "inputs": [
        {
          "indexed": true,
          "internalType": "bytes32",
          "name": "role",
          "type": "bytes32"
        },
        {
          "indexed": true,
          "internalType": "bytes32",
          "name": "previousAdminRole",
          "type": "bytes32"
        },
        {
          "indexed": true,
          "internalType": "bytes32",
          "name": "newAdminRole",
          "type": "bytes32"
        }
      ],
      "name": "RoleAdminChanged",
      "type": "event"
    },
    {
      "anonymous": false,
      "inputs": [
        {
          "indexed": true,
          "internalType": "bytes32",
          "name": "role",
          "type": "bytes32"
        },
        {
          "indexed": true,
          "internalType": "address",
          "name": "account",
          "type": "address"
        },
        {
          "indexed": true,
          "internalType": "address",
          "name": "sender",
          "type": "address"
        }
      ],
      "name": "RoleGranted",
      "type": "event"
    },
    {
      "anonymous": false,
      "inputs": [
        {
          "indexed": true,
          "internalType": "bytes32",
          "name": "role",
          "type": "bytes32"
        },
        {
          "indexed": true,
          "internalType": "address",
          "name": "account",
          "type": "address"
        },
        {
          "indexed": true,
          "internalType": "address",
          "name": "sender",
          "type": "address"
        }
      ],
      "name": "RoleRevoked",
      "type": "event"
    },
    {
      "anonymous": false,
      "inputs": [
        {
          "indexed": false,
          "internalType": "address",
          "name": "layer",
          "type": "address"
        },
        {
          "indexed": false,
          "internalType": "address",
          "name": "account",
          "type": "address"
        },
        {
          "indexed": false,
          "internalType": "uint256",
          "name": "amount",
          "type": "uint256"
        }
      ],
      "name": "Withdrawal",
      "type": "event"
    },
    {
      "inputs": [],
      "name": "DEFAULT_ADMIN_ROLE",
      "outputs": [
        {
          "internalType": "bytes32",
          "name": "",
          "type": "bytes32"
        }
      ],
      "stateMutability": "view",
      "type": "function"
    },
    {
      "inputs": [],
      "name": "MINTER_ROLE",
      "outputs": [
        {
          "internalType": "bytes32",
          "name": "",
          "type": "bytes32"
        }
      ],
      "stateMutability": "view",
      "type": "function"
    },
    {
      "inputs": [
        {
          "internalType": "address",
          "name": "account",
          "type": "address"
        }
      ],
      "name": "addAdmin",
      "outputs": [],
      "stateMutability": "nonpayable",
      "type": "function"
    },
    {
      "inputs": [],
      "name": "addressManager",
      "outputs": [
        {
          "internalType": "address",
          "name": "",
          "type": "address"
        }
      ],
      "stateMutability": "view",
      "type": "function"
    },
    {
      "inputs": [
        {
          "internalType": "address",
          "name": "",
          "type": "address"
        }
      ],
      "name": "aliveImplementation",
      "outputs": [
        {
          "internalType": "bool",
          "name": "",
          "type": "bool"
        }
      ],
      "stateMutability": "view",
      "type": "function"
    },
    {
      "inputs": [
        {
          "internalType": "address",
          "name": "layer2",
          "type": "address"
        },
        {
          "internalType": "address",
          "name": "account",
          "type": "address"
        },
        {
          "internalType": "uint256",
          "name": "swton",
          "type": "uint256"
        }
      ],
      "name": "deposit",
      "outputs": [],
      "stateMutability": "nonpayable",
      "type": "function"
    },
    {
      "inputs": [
        {
          "internalType": "address",
          "name": "layer2",
          "type": "address"
        },
        {
          "internalType": "address",
          "name": "account",
          "type": "address"
        }
      ],
      "name": "getBalanceFactor",
      "outputs": [
        {
          "internalType": "uint256",
          "name": "balance",
          "type": "uint256"
        },
        {
          "internalType": "uint256",
          "name": "factor",
          "type": "uint256"
        }
      ],
      "stateMutability": "view",
      "type": "function"
    },
    {
      "inputs": [
        {
          "internalType": "address",
          "name": "addressManager",
          "type": "address"
        }
      ],
      "name": "getL1CommunicationMessenger",
      "outputs": [
        {
          "internalType": "address",
          "name": "_address",
          "type": "address"
        }
      ],
      "stateMutability": "view",
      "type": "function"
    },
    {
      "inputs": [
        {
          "internalType": "bytes32",
          "name": "role",
          "type": "bytes32"
        }
      ],
      "name": "getRoleAdmin",
      "outputs": [
        {
          "internalType": "bytes32",
          "name": "",
          "type": "bytes32"
        }
      ],
      "stateMutability": "view",
      "type": "function"
    },
    {
      "inputs": [
        {
          "internalType": "bytes32",
          "name": "role",
          "type": "bytes32"
        },
        {
          "internalType": "address",
          "name": "account",
          "type": "address"
        }
      ],
      "name": "grantRole",
      "outputs": [],
      "stateMutability": "nonpayable",
      "type": "function"
    },
    {
      "inputs": [
        {
          "internalType": "bytes32",
          "name": "role",
          "type": "bytes32"
        },
        {
          "internalType": "address",
          "name": "account",
          "type": "address"
        }
      ],
      "name": "hasRole",
      "outputs": [
        {
          "internalType": "bool",
          "name": "",
          "type": "bool"
        }
      ],
      "stateMutability": "view",
      "type": "function"
    },
    {
      "inputs": [
        {
          "internalType": "address",
          "name": "manager_",
          "type": "address"
        },
        {
          "internalType": "address",
          "name": "seigManager_",
          "type": "address"
        },
        {
          "internalType": "address",
          "name": "registry_",
          "type": "address"
        },
        {
          "internalType": "address",
          "name": "addressManager_",
          "type": "address"
        },
        {
          "internalType": "uint32",
          "name": "minGasLimit_",
          "type": "uint32"
        }
      ],
      "name": "initialize",
      "outputs": [],
      "stateMutability": "nonpayable",
      "type": "function"
    },
    {
      "inputs": [
        {
          "internalType": "address",
          "name": "account",
          "type": "address"
        }
      ],
      "name": "isAdmin",
      "outputs": [
        {
          "internalType": "bool",
          "name": "",
          "type": "bool"
        }
      ],
      "stateMutability": "view",
      "type": "function"
    },
    {
      "inputs": [],
      "name": "isOwner",
      "outputs": [
        {
          "internalType": "bool",
          "name": "",
          "type": "bool"
        }
      ],
      "stateMutability": "view",
      "type": "function"
    },
    {
      "inputs": [],
      "name": "l1StakedTonInL2",
      "outputs": [
        {
          "internalType": "address",
          "name": "",
          "type": "address"
        }
      ],
      "stateMutability": "view",
      "type": "function"
    },
    {
      "inputs": [
        {
          "internalType": "address",
          "name": "",
          "type": "address"
        },
        {
          "internalType": "address",
          "name": "",
          "type": "address"
        }
      ],
      "name": "lastRegisterTime",
      "outputs": [
        {
          "internalType": "uint256",
          "name": "",
          "type": "uint256"
        }
      ],
      "stateMutability": "view",
      "type": "function"
    },
    {
      "inputs": [],
      "name": "manager",
      "outputs": [
        {
          "internalType": "address",
          "name": "",
          "type": "address"
        }
      ],
      "stateMutability": "view",
      "type": "function"
    },
    {
      "inputs": [],
      "name": "minGasLimit",
      "outputs": [
        {
          "internalType": "uint32",
          "name": "",
          "type": "uint32"
        }
      ],
      "stateMutability": "view",
      "type": "function"
    },
    {
      "inputs": [],
      "name": "pauseProxy",
      "outputs": [
        {
          "internalType": "bool",
          "name": "",
          "type": "bool"
        }
      ],
      "stateMutability": "view",
      "type": "function"
    },
    {
      "inputs": [
        {
          "internalType": "uint256",
          "name": "",
          "type": "uint256"
        }
      ],
      "name": "proxyImplementation",
      "outputs": [
        {
          "internalType": "address",
          "name": "",
          "type": "address"
        }
      ],
      "stateMutability": "view",
      "type": "function"
    },
    {
      "inputs": [
        {
          "internalType": "address",
          "name": "account",
          "type": "address"
        }
      ],
      "name": "register",
      "outputs": [],
      "stateMutability": "nonpayable",
      "type": "function"
    },
    {
      "inputs": [
        {
          "internalType": "address",
          "name": "account",
          "type": "address"
        },
        {
          "internalType": "address[]",
          "name": "layer2s",
          "type": "address[]"
        }
      ],
      "name": "register",
      "outputs": [],
      "stateMutability": "nonpayable",
      "type": "function"
    },
    {
      "inputs": [
        {
          "internalType": "address",
          "name": "account",
          "type": "address"
        }
      ],
      "name": "registerData",
      "outputs": [
        {
          "components": [
            {
              "internalType": "address",
              "name": "layer",
              "type": "address"
            },
            {
              "internalType": "uint256",
              "name": "stakedAmount",
              "type": "uint256"
            }
          ],
          "internalType": "struct LibL1StakedInfo.L1StakedPacket[]",
          "name": "needSyncInfo",
          "type": "tuple[]"
        },
        {
          "internalType": "uint256",
          "name": "count",
          "type": "uint256"
        }
      ],
      "stateMutability": "view",
      "type": "function"
    },
    {
      "inputs": [],
      "name": "registry",
      "outputs": [
        {
          "internalType": "address",
          "name": "",
          "type": "address"
        }
      ],
      "stateMutability": "view",
      "type": "function"
    },
    {
      "inputs": [
        {
          "internalType": "address",
          "name": "account",
          "type": "address"
        }
      ],
      "name": "removeAdmin",
      "outputs": [],
      "stateMutability": "nonpayable",
      "type": "function"
    },
    {
      "inputs": [],
      "name": "renounceOwnership",
      "outputs": [],
      "stateMutability": "nonpayable",
      "type": "function"
    },
    {
      "inputs": [
        {
          "internalType": "bytes32",
          "name": "role",
          "type": "bytes32"
        },
        {
          "internalType": "address",
          "name": "account",
          "type": "address"
        }
      ],
      "name": "renounceRole",
      "outputs": [],
      "stateMutability": "nonpayable",
      "type": "function"
    },
    {
      "inputs": [
        {
          "internalType": "bytes32",
          "name": "role",
          "type": "bytes32"
        },
        {
          "internalType": "address",
          "name": "account",
          "type": "address"
        }
      ],
      "name": "revokeRole",
      "outputs": [],
      "stateMutability": "nonpayable",
      "type": "function"
    },
    {
      "inputs": [],
      "name": "seigManager",
      "outputs": [
        {
          "internalType": "address",
          "name": "",
          "type": "address"
        }
      ],
      "stateMutability": "view",
      "type": "function"
    },
    {
      "inputs": [
        {
          "internalType": "bytes4",
          "name": "",
          "type": "bytes4"
        }
      ],
      "name": "selectorImplementation",
      "outputs": [
        {
          "internalType": "address",
          "name": "",
          "type": "address"
        }
      ],
      "stateMutability": "view",
      "type": "function"
    },
    {
      "inputs": [
        {
          "internalType": "address",
          "name": "addressManagerAddress_",
          "type": "address"
        }
      ],
      "name": "setAddressManager",
      "outputs": [],
      "stateMutability": "nonpayable",
      "type": "function"
    },
    {
      "inputs": [
        {
          "internalType": "address",
          "name": "l1StakedTonInL2_",
          "type": "address"
        }
      ],
      "name": "setL1StakedTonInL2",
      "outputs": [],
      "stateMutability": "nonpayable",
      "type": "function"
    },
    {
      "inputs": [
        {
          "internalType": "uint32",
          "name": "minGasLimit_",
          "type": "uint32"
        }
      ],
      "name": "setMinGasLimit",
      "outputs": [],
      "stateMutability": "nonpayable",
      "type": "function"
    },
    {
      "inputs": [
        {
          "internalType": "address",
          "name": "seigManager_",
          "type": "address"
        }
      ],
      "name": "setSeigManger",
      "outputs": [],
      "stateMutability": "nonpayable",
      "type": "function"
    },
    {
      "inputs": [
        {
          "internalType": "bytes4",
          "name": "interfaceId",
          "type": "bytes4"
        }
      ],
      "name": "supportsInterface",
      "outputs": [
        {
          "internalType": "bool",
          "name": "",
          "type": "bool"
        }
      ],
      "stateMutability": "view",
      "type": "function"
    },
    {
      "inputs": [
        {
          "internalType": "address",
          "name": "",
          "type": "address"
        },
        {
          "internalType": "address",
          "name": "",
          "type": "address"
        }
      ],
      "name": "syncInfo",
      "outputs": [
        {
          "internalType": "uint32",
          "name": "syncTime",
          "type": "uint32"
        },
        {
          "internalType": "uint256",
          "name": "balanceFactor",
          "type": "uint256"
        },
        {
          "internalType": "uint256",
          "name": "factor",
          "type": "uint256"
        },
        {
          "internalType": "uint256",
          "name": "stakedAmount",
          "type": "uint256"
        }
      ],
      "stateMutability": "view",
      "type": "function"
    },
    {
      "inputs": [],
      "name": "tot",
      "outputs": [
        {
          "internalType": "address",
          "name": "",
          "type": "address"
        }
      ],
      "stateMutability": "view",
      "type": "function"
    },
    {
      "inputs": [
        {
          "internalType": "address",
          "name": "newAdmin",
          "type": "address"
        }
      ],
      "name": "transferAdmin",
      "outputs": [],
      "stateMutability": "nonpayable",
      "type": "function"
    },
    {
      "inputs": [
        {
          "internalType": "address",
          "name": "newAdmin",
          "type": "address"
        }
      ],
      "name": "transferOwnership",
      "outputs": [],
      "stateMutability": "nonpayable",
      "type": "function"
    },
    {
      "inputs": [
        {
          "internalType": "address",
          "name": "layer2",
          "type": "address"
        },
        {
          "internalType": "uint256",
          "name": "swton",
          "type": "uint256"
        }
      ],
      "name": "updateSeigniorage",
      "outputs": [],
      "stateMutability": "nonpayable",
      "type": "function"
    },
    {
      "inputs": [
        {
          "internalType": "address",
          "name": "layer2",
          "type": "address"
        },
        {
          "internalType": "address",
          "name": "account",
          "type": "address"
        },
        {
          "internalType": "uint256",
          "name": "swton",
          "type": "uint256"
        }
      ],
      "name": "withdraw",
      "outputs": [],
      "stateMutability": "nonpayable",
      "type": "function"
    }
  ],
  "bytecode": "0x608060405234801561001057600080fd5b50612b2b806100206000396000f3fe608060405234801561001057600080fd5b50600436106102d35760003560e01c8063723fc3d911610186578063b911135f116100e3578063d6b5046711610097578063e8a9a47111610071578063e8a9a47114610716578063f2fde38b14610737578063f8a2334c1461074a57600080fd5b8063d6b50467146106dd578063d9caed12146106f0578063e6ca35d41461070357600080fd5b8063c5f16b89116100c8578063c5f16b8914610690578063d5391393146106a3578063d547741f146106ca57600080fd5b8063b911135f1461063c578063bd0bfecd1461066557600080fd5b80638f32d59b1161013a578063a16d6aa71161011f578063a16d6aa71461060e578063a217fddf14610621578063a5b2235d1461062957600080fd5b80638f32d59b1461059e57806391d14854146105d557600080fd5b80637b1039991161016b5780637b103999146105655780638340f549146105785780638c09d4ee1461058b57600080fd5b8063723fc3d91461052a57806375829def1461055257600080fd5b80634420e486116102345780635aeb4d77116101e85780636fb7f558116101cd5780636fb7f558146104fc578063704802751461050f578063715018a61461052257600080fd5b80635aeb4d77146104c357806363a8fd89146104ef57600080fd5b8063507c8bd111610219578063507c8bd11461046457806350d2a27614610477578063550d01a3146104a057600080fd5b80634420e4861461043e578063481c6a751461045157600080fd5b806324d7806c1161028b57806336568abe1161027057806336568abe146103925780633ab76e9f146103a55780633eba3079146103d057600080fd5b806324d7806c1461036c5780632f2ff15d1461037f57600080fd5b80631785f53c116102bc5780631785f53c14610315578063215efccc14610328578063248a9ca31461033b57600080fd5b806301ffc9a7146102d85780630652b57a14610300575b600080fd5b6102eb6102e6366004612438565b61075d565b60405190151581526020015b60405180910390f35b61031361030e366004612477565b61076e565b005b610313610323366004612477565b610829565b610313610336366004612477565b610885565b61035e610349366004612494565b60009081526005602052604090206001015490565b6040519081526020016102f7565b6102eb61037a366004612477565b61093b565b61031361038d3660046124ad565b61097b565b6103136103a03660046124ad565b6109a5565b6007546103b8906001600160a01b031681565b6040516001600160a01b0390911681526020016102f7565b6104176103de3660046124dd565b600c602090815260009283526040808420909152908252902080546001820154600283015460039093015463ffffffff90921692909184565b6040805163ffffffff909516855260208501939093529183015260608201526080016102f7565b61031361044c366004612477565b610a31565b6006546103b8906001600160a01b031681565b6103b8610472366004612477565b610b8c565b6103b8610485366004612438565b6003602052600090815260409020546001600160a01b031681565b6102eb6104ae366004612477565b60026020526000908152604090205460ff1681565b600b546104da90600160a01b900463ffffffff1681565b60405163ffffffff90911681526020016102f7565b6000546102eb9060ff1681565b6008546103b8906001600160a01b031681565b61031361051d366004612477565b610c81565b610313610cda565b61053d6105383660046124dd565b610d35565b604080519283526020830191909152016102f7565b610313610560366004612477565b610e83565b6009546103b8906001600160a01b031681565b61031361058636600461250b565b610f95565b600b546103b8906001600160a01b031681565b3360009081527f05b8ccbb9d4d8fb16ea74ce3c29a41f1b461fbdaff4714a0d9a8eb05499746bc602052604090205460ff166102eb565b6102eb6105e33660046124ad565b60009182526005602090815260408084206001600160a01b0393909316845291905290205460ff1690565b600a546103b8906001600160a01b031681565b61035e600081565b610313610637366004612593565b6111b4565b6103b861064a366004612494565b6001602052600090815260409020546001600160a01b031681565b61035e6106733660046124dd565b600d60209081526000928352604080842090915290825290205481565b61031361069e36600461265a565b61146e565b61035e7ff0887ba65ee2024ea881d91b74c2450ef19e1557f03bed3ea9f16b037cbe2dc981565b6103136106d83660046124ad565b611516565b6103136106eb366004612477565b61153b565b6103136106fe36600461250b565b6115f1565b61031361071136600461269a565b61176c565b610729610724366004612477565b611836565b6040516102f79291906126b5565b610313610745366004612477565b611a78565b610313610758366004612711565b611acf565b600061076882611be4565b92915050565b6107773361093b565b6107c15760405162461bcd60e51b81526020600482015260226024820152600080516020612adb83398151915260448201526134b760f11b60648201526084015b60405180910390fd5b6007546001600160a01b038083169116036108075760405162461bcd60e51b81526004016107b89060208082526004908201526373616d6560e01b604082015260600190565b600780546001600160a01b0319166001600160a01b0392909216919091179055565b6108323361093b565b6108775760405162461bcd60e51b81526020600482015260226024820152600080516020612adb83398151915260448201526134b760f11b60648201526084016107b8565b6108826000826109a5565b50565b61088e3361093b565b6108d35760405162461bcd60e51b81526020600482015260226024820152600080516020612adb83398151915260448201526134b760f11b60648201526084016107b8565b6008546001600160a01b038083169116036109195760405162461bcd60e51b81526004016107b89060208082526004908201526373616d6560e01b604082015260600190565b600880546001600160a01b0319166001600160a01b0392909216919091179055565b6001600160a01b03811660009081527f05b8ccbb9d4d8fb16ea74ce3c29a41f1b461fbdaff4714a0d9a8eb05499746bc602052604081205460ff16610768565b60008281526005602052604090206001015461099681611c09565b6109a08383611c13565b505050565b6001600160a01b0381163314610a235760405162461bcd60e51b815260206004820152602f60248201527f416363657373436f6e74726f6c3a2063616e206f6e6c792072656e6f756e636560448201527f20726f6c657320666f722073656c66000000000000000000000000000000000060648201526084016107b8565b610a2d8282611cb5565b5050565b610a706040518060400160405280600e81526020017f726567697374657220696e20257300000000000000000000000000000000000081525082611d38565b600080610a7c83611836565b9150915080600003610ac35760405162461bcd60e51b815260206004820152601060248201526f6e6f207265676973746572206461746160801b60448201526064016107b8565b60008167ffffffffffffffff811115610ade57610ade61254c565b604051908082528060200260200182016040528015610b2357816020015b6040805180820190915260008082526020820152815260200190600190039081610afc5790505b50905060005b82811015610b7b57838181518110610b4357610b4361277e565b6020026020010151828281518110610b5d57610b5d61277e565b60200260200101819052508080610b73906127aa565b915050610b29565b50610b868482611d7d565b50505050565b60006001600160a01b038216610ba457506000919050565b60405163bf40fac160e01b815260206004820152602160248201527f50726f78795f5f4f564d5f4c3143726f7373446f6d61696e4d657373656e67656044820152603960f91b60648201526001600160a01b0383169063bf40fac190608401602060405180830381865afa925050508015610c3c575060408051601f3d908101601f19168201909252610c39918101906127c3565b60015b610c79573d808015610c6a576040519150601f19603f3d011682016040523d82523d6000602084013e610c6f565b606091505b5060009392505050565b90505b919050565b610c8a3361093b565b610ccf5760405162461bcd60e51b81526020600482015260226024820152600080516020612adb83398151915260448201526134b760f11b60648201526084016107b8565b61088260008261097b565b610ce33361093b565b610d285760405162461bcd60e51b81526020600482015260226024820152600080516020612adb83398151915260448201526134b760f11b60648201526084016107b8565b610d336000336109a5565b565b600854604051634c063c1960e01b81526001600160a01b0384811660048301526000928392839290911690634c063c1990602401602060405180830381865afa158015610d86573d6000803e3d6000fd5b505050506040513d601f19601f82011682018060405250810190610daa91906127c3565b90506001600160a01b038116610e025760405162461bcd60e51b815260206004820152600c60248201527f7a65726f20636f696e616765000000000000000000000000000000000000000060448201526064016107b8565b6040516319d5dce960e01b81526001600160a01b03858116600483015260009182918416906319d5dce990602401608060405180830381865afa158015610e4d573d6000803e3d6000fd5b505050506040513d601f19601f82011682018060405250810190610e71919061282f565b90519051909890975095505050505050565b610e8c3361093b565b610ed15760405162461bcd60e51b81526020600482015260226024820152600080516020612adb83398151915260448201526134b760f11b60648201526084016107b8565b6001600160a01b038116610f275760405162461bcd60e51b815260206004820152601860248201527f41636365737369626c653a207a65726f2061646472657373000000000000000060448201526064016107b8565b6001600160a01b0381163303610f7f5760405162461bcd60e51b815260206004820152601660248201527f41636365737369626c653a2073616d652061646d696e0000000000000000000060448201526064016107b8565b610f8a60008261097b565b6108826000336109a5565b6008546001600160a01b03163314610fe15760405162461bcd60e51b815260206004820152600f60248201526e3737ba1039b2b4b3a6b0b730b3b2b960891b60448201526064016107b8565b61100d6040518060400160405280600a8152602001696465706f73697420257360b01b8152508261203b565b611054604051806060016040528060248152602001612afb602491396001600160a01b038085166000908152600d602090815260408083209389168352929052205461203b565b6001600160a01b038083166000908152600d6020908152604080832093871683529290529081205490036110f157600060015b6040519080825280602002602001820160405280156110b0578160200160208202803683370190505b50905083816000815181106110c7576110c761277e565b60200260200101906001600160a01b031690816001600160a01b031681525050610b8683826111b4565b604080516001600160a01b038581166024830152848116604483015260648083018590528351808403909101815260849092019092526020810180516001600160e01b0316638340f54960e01b179052600b54909161116291908116908390600160a01b900463ffffffff16612080565b604080516001600160a01b038087168252851660208201529081018390527f8752a472e571a816aea92eec8dae9baf628e840f4929fbcc2d155e6233ff68a7906060015b60405180910390a150505050565b805160008190036112075760405162461bcd60e51b815260206004820152600d60248201527f656d707479206c6179657232730000000000000000000000000000000000000060448201526064016107b8565b60008167ffffffffffffffff8111156112225761122261254c565b60405190808252806020026020018201604052801561126757816020015b60408051808201909152600080825260208201528152602001906001900390816112405790505b50905060005b82811015610b7b5760095484516001600160a01b03909116906361cdc5b89086908490811061129e5761129e61277e565b60200260200101516040518263ffffffff1660e01b81526004016112d191906001600160a01b0391909116815260200190565b602060405180830381865afa1580156112ee573d6000803e3d6000fd5b505050506040513d601f19601f820116820180604052508101906113129190612864565b61135e5760405162461bcd60e51b815260206004820152601e60248201527f756e72656769737465726564206c6179657220696e207265676973747279000060448201526064016107b8565b60085484516000916001600160a01b03169063ce4cb876908790859081106113885761138861277e565b6020026020010151886040518363ffffffff1660e01b81526004016113c39291906001600160a01b0392831681529116602082015260400190565b602060405180830381865afa1580156113e0573d6000803e3d6000fd5b505050506040513d601f19601f820116820180604052508101906114049190612886565b905060405180604001604052808684815181106114235761142361277e565b60200260200101516001600160a01b031681526020018281525083838151811061144f5761144f61277e565b6020026020010181905250508080611466906127aa565b91505061126d565b6114ad6040518060400160405280601481526020017f757064617465536569676e696f726167652025730000000000000000000000008152508261203b565b604080516001600160a01b03848116602483015260448083018590528351808403909101815260649092019092526020810180516001600160e01b031663c5f16b8960e01b179052600b5490916109a091908116908390600160a01b900463ffffffff16612080565b60008281526005602052604090206001015461153181611c09565b6109a08383611cb5565b6115443361093b565b6115895760405162461bcd60e51b81526020600482015260226024820152600080516020612adb83398151915260448201526134b760f11b60648201526084016107b8565b600b546001600160a01b038083169116036115cf5760405162461bcd60e51b81526004016107b89060208082526004908201526373616d6560e01b604082015260600190565b600b80546001600160a01b0319166001600160a01b0392909216919091179055565b6008546001600160a01b0316331461163d5760405162461bcd60e51b815260206004820152600f60248201526e3737ba1039b2b4b3a6b0b730b3b2b960891b60448201526064016107b8565b61167c6040518060400160405280600b81526020017f77697468647261772025730000000000000000000000000000000000000000008152508261203b565b6001600160a01b038083166000908152600d6020908152604080832093871683529290529081205490036116b35760006001611087565b604080516001600160a01b038581166024830152848116604483015260648083018590528351808403909101815260849092019092526020810180516001600160e01b03166330414fc560e11b179052600b54909161172491908116908390600160a01b900463ffffffff16612080565b604080516001600160a01b038087168252851660208201529081018390527f2717ead6b9200dd235aad468c9809ea400fe33ac69b5bfaa6d3e90fc922b6398906060016111a6565b6006546001600160a01b031633146117c65760405162461bcd60e51b815260206004820152600b60248201527f6e6f74206d616e6167657200000000000000000000000000000000000000000060448201526064016107b8565b600b5463ffffffff808316600160a01b90920416036118105760405162461bcd60e51b81526004016107b89060208082526004908201526373616d6560e01b604082015260600190565b600b805463ffffffff909216600160a01b0263ffffffff60a01b19909216919091179055565b6060600080600960009054906101000a90046001600160a01b03166001600160a01b0316630d42d4976040518163ffffffff1660e01b8152600401602060405180830381865afa15801561188e573d6000803e3d6000fd5b505050506040513d601f19601f820116820180604052508101906118b29190612886565b90508015611a72578067ffffffffffffffff8111156118d3576118d361254c565b60405190808252806020026020018201604052801561191857816020015b60408051808201909152600080825260208201528152602001906001900390816118f15790505b50925060005b81811015611a705760095460405163b7ffb17960e01b8152600481018390526000916001600160a01b03169063b7ffb17990602401602060405180830381865afa158015611970573d6000803e3d6000fd5b505050506040513d601f19601f8201168201806040525081019061199491906127c3565b6008546040516367265c3b60e11b81526001600160a01b03808416600483015289811660248301529293506000929091169063ce4cb87690604401602060405180830381865afa1580156119ec573d6000803e3d6000fd5b505050506040513d601f19601f82011682018060405250810190611a109190612886565b90506040518060400160405280836001600160a01b0316815260200182815250868681518110611a4257611a4261277e565b60200260200101819052508480611a58906127aa565b95505050508080611a68906127aa565b91505061191e565b505b50915091565b611a813361093b565b611ac65760405162461bcd60e51b81526020600482015260226024820152600080516020612adb83398151915260448201526134b760f11b60648201526084016107b8565b61088281610e83565b611ad83361093b565b611b1d5760405162461bcd60e51b81526020600482015260226024820152600080516020612adb83398151915260448201526134b760f11b60648201526084016107b8565b600680546001600160a01b038781166001600160a01b0319928316811790935560088054888316908416811790915560098054888416908516811790915560078054938816939094168317909355600b805463ffffffff8716600160a01b810263ffffffff60a01b199092169190911790915560408051958652602086019290925290840192909252606083015260808201527f1c400949308db7a8a862f7df55ab302647d57b9cbceac6b3951aa9f7c76ff72c9060a00160405180910390a15050505050565b60006001600160e01b03198216637965db0b60e01b1480610768575061076882612158565b6108828133612194565b60008281526005602090815260408083206001600160a01b038516845290915290205460ff16610a2d5760008281526005602090815260408083206001600160a01b03851684529091529020805460ff19166001179055611c713390565b6001600160a01b0316816001600160a01b0316837f2f8788117e7eff1d82e926ec794901d17c78024a50270940304540a733656f0d60405160405180910390a45050565b60008281526005602090815260408083206001600160a01b038516845290915290205460ff1615610a2d5760008281526005602090815260408083206001600160a01b0385168085529252808320805460ff1916905551339285917ff6391f5c32d9c69d2a47ea670b442974b53935d1edc7fd64eb21e047a839171b9190a45050565b610a2d8282604051602401611d4e9291906128ef565b60408051601f198184030181529190526020810180516001600160e01b031663319af33360e01b179052612209565b611dbb6040518060400160405280600d81526020017f5f726567697374657220696e2000000000000000000000000000000000000000815250612212565b8051600003611dff5760405162461bcd60e51b815260206004820152601060248201526f6e6f207265676973746572206461746160801b60448201526064016107b8565b6060600082519050611e466040518060400160405280601381526020017f5f726567697374657220636f756e7420257320000000000000000000000000008152508261203b565b60005b81811015611f9d576001600160a01b0385166000908152600d602052604081208551429290879085908110611e8057611e8061277e565b6020026020010151600001516001600160a01b03166001600160a01b03168152602001908152602001600020819055506000848281518110611ec457611ec461277e565b602002602001015160000151858381518110611ee257611ee261277e565b602002602001015160200151604051602001611f1c92919060609290921b6bffffffffffffffffffffffff19168252601482015260340190565b60405160208183030381529060405290508381604051602001611f4092919061291a565b60405160208183030381529060405293507fb5ca2dfb0bd25603299b76fefa9fbe3abdc9f951bdfb7ffd208f93ab7f8e203c8682604051611f82929190612949565b60405180910390a15080611f95816127aa565b915050611e49565b5060006382fbdc9c60e01b8584604051602001611fbb929190612973565b60408051601f1981840301815290829052611fd8916024016129ab565b60408051601f198184030181529190526020810180516001600160e01b03166001600160e01b031990931692909217909152600b54909150612034906001600160a01b03811690839063ffffffff600160a01b90910416612080565b5050505050565b610a2d82826040516024016120519291906129be565b60408051601f198184030181529190526020810180516001600160e01b0316632d839cb360e21b179052612209565b600754600090612098906001600160a01b0316610b8c565b90506001600160a01b0381166120f05760405162461bcd60e51b815260206004820152601a60248201527f6c314d657373656e676572206973205a65726f4164647265737300000000000060448201526064016107b8565b604051633dbb202b60e01b81526001600160a01b03821690633dbb202b90612120908790879087906004016129e0565b600060405180830381600087803b15801561213a57600080fd5b505af115801561214e573d6000803e3d6000fd5b5050505050505050565b60006301ffc9a760e01b6001600160e01b0319831614806107685750506001600160e01b03191660009081526004602052604090205460ff1690565b60008281526005602090815260408083206001600160a01b038516845290915290205460ff16610a2d576121c781612255565b6121d2836020612267565b6040516020016121e3929190612a18565b60408051601f198184030181529082905262461bcd60e51b82526107b8916004016129ab565b61088281612417565b6108828160405160240161222691906129ab565b60408051601f198184030181529190526020810180516001600160e01b031663104c13eb60e21b179052612209565b60606107686001600160a01b03831660145b60606000612276836002612a99565b612281906002612ab0565b67ffffffffffffffff8111156122995761229961254c565b6040519080825280601f01601f1916602001820160405280156122c3576020820181803683370190505b509050600360fc1b816000815181106122de576122de61277e565b60200101906001600160f81b031916908160001a905350600f60fb1b8160018151811061230d5761230d61277e565b60200101906001600160f81b031916908160001a9053506000612331846002612a99565b61233c906001612ab0565b90505b60018111156123c1577f303132333435363738396162636465660000000000000000000000000000000085600f166010811061237d5761237d61277e565b1a60f81b8282815181106123935761239361277e565b60200101906001600160f81b031916908160001a90535060049490941c936123ba81612ac3565b905061233f565b5083156124105760405162461bcd60e51b815260206004820181905260248201527f537472696e67733a20686578206c656e67746820696e73756666696369656e7460448201526064016107b8565b9392505050565b60006a636f6e736f6c652e6c6f679050600080835160208501845afa505050565b60006020828403121561244a57600080fd5b81356001600160e01b03198116811461241057600080fd5b6001600160a01b038116811461088257600080fd5b60006020828403121561248957600080fd5b813561241081612462565b6000602082840312156124a657600080fd5b5035919050565b600080604083850312156124c057600080fd5b8235915060208301356124d281612462565b809150509250929050565b600080604083850312156124f057600080fd5b82356124fb81612462565b915060208301356124d281612462565b60008060006060848603121561252057600080fd5b833561252b81612462565b9250602084013561253b81612462565b929592945050506040919091013590565b634e487b7160e01b600052604160045260246000fd5b604051601f8201601f1916810167ffffffffffffffff8111828210171561258b5761258b61254c565b604052919050565b600080604083850312156125a657600080fd5b82356125b181612462565b915060208381013567ffffffffffffffff808211156125cf57600080fd5b818601915086601f8301126125e357600080fd5b8135818111156125f5576125f561254c565b8060051b9150612606848301612562565b818152918301840191848101908984111561262057600080fd5b938501935b8385101561264a578435925061263a83612462565b8282529385019390850190612625565b8096505050505050509250929050565b6000806040838503121561266d57600080fd5b823561267881612462565b946020939093013593505050565b803563ffffffff81168114610c7c57600080fd5b6000602082840312156126ac57600080fd5b61241082612686565b60408082528351828201819052600091906020906060850190828801855b8281101561270157815180516001600160a01b031685528501518585015292850192908401906001016126d3565b5050509301939093525092915050565b600080600080600060a0868803121561272957600080fd5b853561273481612462565b9450602086013561274481612462565b9350604086013561275481612462565b9250606086013561276481612462565b915061277260808701612686565b90509295509295909350565b634e487b7160e01b600052603260045260246000fd5b634e487b7160e01b600052601160045260246000fd5b6000600182016127bc576127bc612794565b5060010190565b6000602082840312156127d557600080fd5b815161241081612462565b6000604082840312156127f257600080fd5b6040516040810181811067ffffffffffffffff821117156128155761281561254c565b604052825181526020928301519281019290925250919050565b6000806080838503121561284257600080fd5b61284c84846127e0565b915061285b84604085016127e0565b90509250929050565b60006020828403121561287657600080fd5b8151801515811461241057600080fd5b60006020828403121561289857600080fd5b5051919050565b60005b838110156128ba5781810151838201526020016128a2565b50506000910152565b600081518084526128db81602086016020860161289f565b601f01601f19169290920160200192915050565b60408152600061290260408301856128c3565b90506001600160a01b03831660208301529392505050565b6000835161292c81846020880161289f565b83519083019061294081836020880161289f565b01949350505050565b6001600160a01b038316815260406020820152600061296b60408301846128c3565b949350505050565b6bffffffffffffffffffffffff198360601b1681526000825161299d81601485016020870161289f565b919091016014019392505050565b60208152600061241060208301846128c3565b6040815260006129d160408301856128c3565b90508260208301529392505050565b6001600160a01b0384168152606060208201526000612a0260608301856128c3565b905063ffffffff83166040830152949350505050565b7f416363657373436f6e74726f6c3a206163636f756e7420000000000000000000815260008351612a5081601785016020880161289f565b7f206973206d697373696e6720726f6c65200000000000000000000000000000006017918401918201528351612a8d81602884016020880161289f565b01602801949350505050565b808202811582820484141761076857610768612794565b8082018082111561076857610768612794565b600081612ad257612ad2612794565b50600019019056fe41636365737369626c653a2043616c6c6572206973206e6f7420616e2061646d6c617374526567697374657254696d655b6163636f756e745d5b6c61796572325d202573a164736f6c6343000813000a",
  "linkReferences": {},
  "deployedLinkReferences": {}
}