{
  "_format": "hh-sol-artifact-1",
  "contractName": "L1StakedTonToL2",
  "sourceName": "contracts/L1/L1StakedTonToL2.sol",
  "abi": [
    {
      "inputs": [],
      "stateMutability": "nonpayable",
      "type": "constructor"
    },
    {
      "anonymous": false,
      "inputs": [
        {
          "indexed": false,
          "internalType": "address",
          "name": "layer",
          "type": "address"
        },
        {
          "indexed": false,
          "internalType": "address",
          "name": "account",
          "type": "address"
        },
        {
          "indexed": false,
          "internalType": "uint256",
          "name": "amount",
          "type": "uint256"
        }
      ],
      "name": "Deposited",
      "type": "event"
    },
    {
      "anonymous": false,
      "inputs": [
        {
          "indexed": false,
          "internalType": "address",
          "name": "manager_",
          "type": "address"
        },
        {
          "indexed": false,
          "internalType": "address",
          "name": "seigManager_",
          "type": "address"
        },
        {
          "indexed": false,
          "internalType": "address",
          "name": "registry_",
          "type": "address"
        },
        {
          "indexed": false,
          "internalType": "address",
          "name": "addressManager_",
          "type": "address"
        },
        {
          "indexed": false,
          "internalType": "uint32",
          "name": "minGasLimit_",
          "type": "uint32"
        }
      ],
      "name": "Initialized",
      "type": "event"
    },
    {
      "anonymous": false,
      "inputs": [
        {
          "indexed": false,
          "internalType": "address",
          "name": "account",
          "type": "address"
        },
        {
          "indexed": false,
          "internalType": "bytes",
          "name": "syncPacket",
          "type": "bytes"
        }
      ],
      "name": "Registered",
      "type": "event"
    },
    {
      "anonymous": false,
      "inputs": [
        {
          "indexed": true,
          "internalType": "bytes32",
          "name": "role",
          "type": "bytes32"
        },
        {
          "indexed": true,
          "internalType": "bytes32",
          "name": "previousAdminRole",
          "type": "bytes32"
        },
        {
          "indexed": true,
          "internalType": "bytes32",
          "name": "newAdminRole",
          "type": "bytes32"
        }
      ],
      "name": "RoleAdminChanged",
      "type": "event"
    },
    {
      "anonymous": false,
      "inputs": [
        {
          "indexed": true,
          "internalType": "bytes32",
          "name": "role",
          "type": "bytes32"
        },
        {
          "indexed": true,
          "internalType": "address",
          "name": "account",
          "type": "address"
        },
        {
          "indexed": true,
          "internalType": "address",
          "name": "sender",
          "type": "address"
        }
      ],
      "name": "RoleGranted",
      "type": "event"
    },
    {
      "anonymous": false,
      "inputs": [
        {
          "indexed": true,
          "internalType": "bytes32",
          "name": "role",
          "type": "bytes32"
        },
        {
          "indexed": true,
          "internalType": "address",
          "name": "account",
          "type": "address"
        },
        {
          "indexed": true,
          "internalType": "address",
          "name": "sender",
          "type": "address"
        }
      ],
      "name": "RoleRevoked",
      "type": "event"
    },
    {
      "anonymous": false,
      "inputs": [
        {
          "indexed": false,
          "internalType": "address",
          "name": "layer",
          "type": "address"
        },
        {
          "indexed": false,
          "internalType": "uint256",
          "name": "swton",
          "type": "uint256"
        }
      ],
      "name": "UpdatedSeigniorage",
      "type": "event"
    },
    {
      "anonymous": false,
      "inputs": [
        {
          "indexed": false,
          "internalType": "address",
          "name": "layer",
          "type": "address"
        },
        {
          "indexed": false,
          "internalType": "address",
          "name": "account",
          "type": "address"
        },
        {
          "indexed": false,
          "internalType": "uint256",
          "name": "amount",
          "type": "uint256"
        }
      ],
      "name": "Withdrawal",
      "type": "event"
    },
    {
      "inputs": [],
      "name": "DEFAULT_ADMIN_ROLE",
      "outputs": [
        {
          "internalType": "bytes32",
          "name": "",
          "type": "bytes32"
        }
      ],
      "stateMutability": "view",
      "type": "function"
    },
    {
      "inputs": [],
      "name": "MINTER_ROLE",
      "outputs": [
        {
          "internalType": "bytes32",
          "name": "",
          "type": "bytes32"
        }
      ],
      "stateMutability": "view",
      "type": "function"
    },
    {
      "inputs": [
        {
          "internalType": "address",
          "name": "account",
          "type": "address"
        }
      ],
      "name": "addAdmin",
      "outputs": [],
      "stateMutability": "nonpayable",
      "type": "function"
    },
    {
      "inputs": [],
      "name": "addressManager",
      "outputs": [
        {
          "internalType": "address",
          "name": "",
          "type": "address"
        }
      ],
      "stateMutability": "view",
      "type": "function"
    },
    {
      "inputs": [
        {
          "internalType": "address",
          "name": "",
          "type": "address"
        }
      ],
      "name": "aliveImplementation",
      "outputs": [
        {
          "internalType": "bool",
          "name": "",
          "type": "bool"
        }
      ],
      "stateMutability": "view",
      "type": "function"
    },
    {
      "inputs": [
        {
          "internalType": "address",
          "name": "layer2",
          "type": "address"
        },
        {
          "internalType": "address",
          "name": "account",
          "type": "address"
        },
        {
          "internalType": "uint256",
          "name": "swton",
          "type": "uint256"
        }
      ],
      "name": "deposit",
      "outputs": [],
      "stateMutability": "nonpayable",
      "type": "function"
    },
    {
      "inputs": [
        {
          "internalType": "address",
          "name": "layer2",
          "type": "address"
        },
        {
          "internalType": "address",
          "name": "account",
          "type": "address"
        }
      ],
      "name": "getBalanceFactor",
      "outputs": [
        {
          "internalType": "uint256",
          "name": "balance",
          "type": "uint256"
        },
        {
          "internalType": "uint256",
          "name": "factor",
          "type": "uint256"
        }
      ],
      "stateMutability": "view",
      "type": "function"
    },
    {
      "inputs": [
        {
          "internalType": "address",
          "name": "addressManager",
          "type": "address"
        }
      ],
      "name": "getL1CommunicationMessenger",
      "outputs": [
        {
          "internalType": "address",
          "name": "_address",
          "type": "address"
        }
      ],
      "stateMutability": "view",
      "type": "function"
    },
    {
      "inputs": [
        {
          "internalType": "bytes32",
          "name": "role",
          "type": "bytes32"
        }
      ],
      "name": "getRoleAdmin",
      "outputs": [
        {
          "internalType": "bytes32",
          "name": "",
          "type": "bytes32"
        }
      ],
      "stateMutability": "view",
      "type": "function"
    },
    {
      "inputs": [
        {
          "internalType": "bytes32",
          "name": "role",
          "type": "bytes32"
        },
        {
          "internalType": "address",
          "name": "account",
          "type": "address"
        }
      ],
      "name": "grantRole",
      "outputs": [],
      "stateMutability": "nonpayable",
      "type": "function"
    },
    {
      "inputs": [
        {
          "internalType": "bytes32",
          "name": "role",
          "type": "bytes32"
        },
        {
          "internalType": "address",
          "name": "account",
          "type": "address"
        }
      ],
      "name": "hasRole",
      "outputs": [
        {
          "internalType": "bool",
          "name": "",
          "type": "bool"
        }
      ],
      "stateMutability": "view",
      "type": "function"
    },
    {
      "inputs": [
        {
          "internalType": "address",
          "name": "manager_",
          "type": "address"
        },
        {
          "internalType": "address",
          "name": "seigManager_",
          "type": "address"
        },
        {
          "internalType": "address",
          "name": "registry_",
          "type": "address"
        },
        {
          "internalType": "address",
          "name": "addressManager_",
          "type": "address"
        },
        {
          "internalType": "uint32",
          "name": "minGasLimit_",
          "type": "uint32"
        }
      ],
      "name": "initialize",
      "outputs": [],
      "stateMutability": "nonpayable",
      "type": "function"
    },
    {
      "inputs": [
        {
          "internalType": "address",
          "name": "account",
          "type": "address"
        }
      ],
      "name": "isAdmin",
      "outputs": [
        {
          "internalType": "bool",
          "name": "",
          "type": "bool"
        }
      ],
      "stateMutability": "view",
      "type": "function"
    },
    {
      "inputs": [],
      "name": "isOwner",
      "outputs": [
        {
          "internalType": "bool",
          "name": "",
          "type": "bool"
        }
      ],
      "stateMutability": "view",
      "type": "function"
    },
    {
      "inputs": [],
      "name": "l1StakedTonInL2",
      "outputs": [
        {
          "internalType": "address",
          "name": "",
          "type": "address"
        }
      ],
      "stateMutability": "view",
      "type": "function"
    },
    {
      "inputs": [
        {
          "internalType": "address",
          "name": "",
          "type": "address"
        },
        {
          "internalType": "address",
          "name": "",
          "type": "address"
        }
      ],
      "name": "lastRegisterTime",
      "outputs": [
        {
          "internalType": "uint256",
          "name": "",
          "type": "uint256"
        }
      ],
      "stateMutability": "view",
      "type": "function"
    },
    {
      "inputs": [],
      "name": "manager",
      "outputs": [
        {
          "internalType": "address",
          "name": "",
          "type": "address"
        }
      ],
      "stateMutability": "view",
      "type": "function"
    },
    {
      "inputs": [],
      "name": "minGasLimit",
      "outputs": [
        {
          "internalType": "uint32",
          "name": "",
          "type": "uint32"
        }
      ],
      "stateMutability": "view",
      "type": "function"
    },
    {
      "inputs": [],
      "name": "minGasLimit2",
      "outputs": [
        {
          "internalType": "uint32",
          "name": "",
          "type": "uint32"
        }
      ],
      "stateMutability": "view",
      "type": "function"
    },
    {
      "inputs": [],
      "name": "pauseProxy",
      "outputs": [
        {
          "internalType": "bool",
          "name": "",
          "type": "bool"
        }
      ],
      "stateMutability": "view",
      "type": "function"
    },
    {
      "inputs": [
        {
          "internalType": "uint256",
          "name": "",
          "type": "uint256"
        }
      ],
      "name": "proxyImplementation",
      "outputs": [
        {
          "internalType": "address",
          "name": "",
          "type": "address"
        }
      ],
      "stateMutability": "view",
      "type": "function"
    },
    {
      "inputs": [
        {
          "internalType": "address",
          "name": "account",
          "type": "address"
        }
      ],
      "name": "register",
      "outputs": [],
      "stateMutability": "nonpayable",
      "type": "function"
    },
    {
      "inputs": [
        {
          "internalType": "address",
          "name": "account",
          "type": "address"
        },
        {
          "internalType": "address[]",
          "name": "layer2s",
          "type": "address[]"
        }
      ],
      "name": "register",
      "outputs": [],
      "stateMutability": "nonpayable",
      "type": "function"
    },
    {
      "inputs": [
        {
          "internalType": "address",
          "name": "account",
          "type": "address"
        }
      ],
      "name": "registerData",
      "outputs": [
        {
          "components": [
            {
              "internalType": "address",
              "name": "layer",
              "type": "address"
            },
            {
              "internalType": "uint256",
              "name": "stakedAmount",
              "type": "uint256"
            }
          ],
          "internalType": "struct LibL1StakedInfo.L1StakedPacket[]",
          "name": "needSyncInfo",
          "type": "tuple[]"
        },
        {
          "internalType": "uint256",
          "name": "count",
          "type": "uint256"
        }
      ],
      "stateMutability": "view",
      "type": "function"
    },
    {
      "inputs": [],
      "name": "registry",
      "outputs": [
        {
          "internalType": "address",
          "name": "",
          "type": "address"
        }
      ],
      "stateMutability": "view",
      "type": "function"
    },
    {
      "inputs": [
        {
          "internalType": "address",
          "name": "account",
          "type": "address"
        }
      ],
      "name": "removeAdmin",
      "outputs": [],
      "stateMutability": "nonpayable",
      "type": "function"
    },
    {
      "inputs": [],
      "name": "renounceOwnership",
      "outputs": [],
      "stateMutability": "nonpayable",
      "type": "function"
    },
    {
      "inputs": [
        {
          "internalType": "bytes32",
          "name": "role",
          "type": "bytes32"
        },
        {
          "internalType": "address",
          "name": "account",
          "type": "address"
        }
      ],
      "name": "renounceRole",
      "outputs": [],
      "stateMutability": "nonpayable",
      "type": "function"
    },
    {
      "inputs": [
        {
          "internalType": "bytes32",
          "name": "role",
          "type": "bytes32"
        },
        {
          "internalType": "address",
          "name": "account",
          "type": "address"
        }
      ],
      "name": "revokeRole",
      "outputs": [],
      "stateMutability": "nonpayable",
      "type": "function"
    },
    {
      "inputs": [],
      "name": "seigManager",
      "outputs": [
        {
          "internalType": "address",
          "name": "",
          "type": "address"
        }
      ],
      "stateMutability": "view",
      "type": "function"
    },
    {
      "inputs": [
        {
          "internalType": "bytes4",
          "name": "",
          "type": "bytes4"
        }
      ],
      "name": "selectorImplementation",
      "outputs": [
        {
          "internalType": "address",
          "name": "",
          "type": "address"
        }
      ],
      "stateMutability": "view",
      "type": "function"
    },
    {
      "inputs": [
        {
          "internalType": "address",
          "name": "addressManagerAddress_",
          "type": "address"
        }
      ],
      "name": "setAddressManager",
      "outputs": [],
      "stateMutability": "nonpayable",
      "type": "function"
    },
    {
      "inputs": [
        {
          "internalType": "address",
          "name": "l1StakedTonInL2_",
          "type": "address"
        }
      ],
      "name": "setL1StakedTonInL2",
      "outputs": [],
      "stateMutability": "nonpayable",
      "type": "function"
    },
    {
      "inputs": [
        {
          "internalType": "uint32",
          "name": "minGasLimit_",
          "type": "uint32"
        }
      ],
      "name": "setMinGasLimit",
      "outputs": [],
      "stateMutability": "nonpayable",
      "type": "function"
    },
    {
      "inputs": [
        {
          "internalType": "address",
          "name": "seigManager_",
          "type": "address"
        }
      ],
      "name": "setSeigManger",
      "outputs": [],
      "stateMutability": "nonpayable",
      "type": "function"
    },
    {
      "inputs": [
        {
          "internalType": "bytes4",
          "name": "interfaceId",
          "type": "bytes4"
        }
      ],
      "name": "supportsInterface",
      "outputs": [
        {
          "internalType": "bool",
          "name": "",
          "type": "bool"
        }
      ],
      "stateMutability": "view",
      "type": "function"
    },
    {
      "inputs": [
        {
          "internalType": "address",
          "name": "newAdmin",
          "type": "address"
        }
      ],
      "name": "transferAdmin",
      "outputs": [],
      "stateMutability": "nonpayable",
      "type": "function"
    },
    {
      "inputs": [
        {
          "internalType": "address",
          "name": "newAdmin",
          "type": "address"
        }
      ],
      "name": "transferOwnership",
      "outputs": [],
      "stateMutability": "nonpayable",
      "type": "function"
    },
    {
      "inputs": [
        {
          "internalType": "address",
          "name": "layer2",
          "type": "address"
        },
        {
          "internalType": "uint256",
          "name": "swton",
          "type": "uint256"
        }
      ],
      "name": "updateSeigniorage",
      "outputs": [],
      "stateMutability": "nonpayable",
      "type": "function"
    },
    {
      "inputs": [
        {
          "internalType": "address",
          "name": "layer2",
          "type": "address"
        },
        {
          "internalType": "address",
          "name": "account",
          "type": "address"
        },
        {
          "internalType": "uint256",
          "name": "swton",
          "type": "uint256"
        }
      ],
      "name": "withdraw",
      "outputs": [],
      "stateMutability": "nonpayable",
      "type": "function"
    }
  ],
  "bytecode": "0x608060405234801561001057600080fd5b506127e5806100206000396000f3fe608060405234801561001057600080fd5b50600436106102c85760003560e01c806375829def1161017b578063bd0bfecd116100d8578063d9caed121161008c578063e8a9a47111610071578063e8a9a471146106a1578063f2fde38b146106c2578063f8a2334c146106d557600080fd5b8063d9caed121461067b578063e6ca35d41461068e57600080fd5b8063d5391393116100bd578063d53913931461062e578063d547741f14610655578063d6b504671461066857600080fd5b8063bd0bfecd146105f0578063c5f16b891461061b57600080fd5b806391d148541161012f578063a217fddf11610114578063a217fddf146105ac578063a5b2235d146105b4578063b911135f146105c757600080fd5b806391d148541461055c57806394d0ca381461059557600080fd5b80638340f549116101605780638340f549146104ff5780638c09d4ee146105125780638f32d59b1461052557600080fd5b806375829def146104d95780637b103999146104ec57600080fd5b8063481c6a751161022957806363a8fd89116101dd57806370480275116101c25780637048027514610496578063715018a6146104a9578063723fc3d9146104b157600080fd5b806363a8fd89146104765780636fb7f5581461048357600080fd5b806350d2a2761161020e57806350d2a276146103fe578063550d01a3146104275780635aeb4d771461044a57600080fd5b8063481c6a75146103d8578063507c8bd1146103eb57600080fd5b806324d7806c1161028057806336568abe1161026557806336568abe146103875780633ab76e9f1461039a5780634420e486146103c557600080fd5b806324d7806c146103615780632f2ff15d1461037457600080fd5b80631785f53c116102b15780631785f53c1461030a578063215efccc1461031d578063248a9ca31461033057600080fd5b806301ffc9a7146102cd5780630652b57a146102f5575b600080fd5b6102e06102db366004612163565b6106e8565b60405190151581526020015b60405180910390f35b6103086103033660046121a2565b6106f9565b005b6103086103183660046121a2565b6107b4565b61030861032b3660046121a2565b610810565b61035361033e3660046121bf565b60009081526005602052604090206001015490565b6040519081526020016102ec565b6102e061036f3660046121a2565b6108c6565b6103086103823660046121d8565b610906565b6103086103953660046121d8565b610930565b6007546103ad906001600160a01b031681565b6040516001600160a01b0390911681526020016102ec565b6103086103d33660046121a2565b6109bc565b6006546103ad906001600160a01b031681565b6103ad6103f93660046121a2565b610ad8565b6103ad61040c366004612163565b6003602052600090815260409020546001600160a01b031681565b6102e06104353660046121a2565b60026020526000908152604090205460ff1681565b600a5461046190600160a01b900463ffffffff1681565b60405163ffffffff90911681526020016102ec565b6000546102e09060ff1681565b6008546103ad906001600160a01b031681565b6103086104a43660046121a2565b610bcd565b610308610c26565b6104c46104bf366004612208565b610c81565b604080519283526020830191909152016102ec565b6103086104e73660046121a2565b610dcf565b6009546103ad906001600160a01b031681565b61030861050d366004612236565b610ee1565b600a546103ad906001600160a01b031681565b3360009081527f05b8ccbb9d4d8fb16ea74ce3c29a41f1b461fbdaff4714a0d9a8eb05499746bc602052604090205460ff166102e0565b6102e061056a3660046121d8565b60009182526005602090815260408084206001600160a01b0393909316845291905290205460ff1690565b600a5461046190600160c01b900463ffffffff1681565b610353600081565b6103086105c23660046122be565b61108d565b6103ad6105d53660046121bf565b6001602052600090815260409020546001600160a01b031681565b6103536105fe366004612208565b600b60209081526000928352604080842090915290825290205481565b610308610629366004612385565b611347565b6103537ff0887ba65ee2024ea881d91b74c2450ef19e1557f03bed3ea9f16b037cbe2dc981565b6103086106633660046121d8565b6113f7565b6103086106763660046121a2565b61141c565b610308610689366004612236565b6114d2565b61030861069c3660046123c5565b61160e565b6106b46106af3660046121a2565b6116d8565b6040516102ec9291906123e0565b6103086106d03660046121a2565b61191a565b6103086106e336600461243c565b611971565b60006106f382611a86565b92915050565b610702336108c6565b61074c5760405162461bcd60e51b815260206004820152602260248201526000805160206127b983398151915260448201526134b760f11b60648201526084015b60405180910390fd5b6007546001600160a01b038083169116036107925760405162461bcd60e51b81526004016107439060208082526004908201526373616d6560e01b604082015260600190565b600780546001600160a01b0319166001600160a01b0392909216919091179055565b6107bd336108c6565b6108025760405162461bcd60e51b815260206004820152602260248201526000805160206127b983398151915260448201526134b760f11b6064820152608401610743565b61080d600082610930565b50565b610819336108c6565b61085e5760405162461bcd60e51b815260206004820152602260248201526000805160206127b983398151915260448201526134b760f11b6064820152608401610743565b6008546001600160a01b038083169116036108a45760405162461bcd60e51b81526004016107439060208082526004908201526373616d6560e01b604082015260600190565b600880546001600160a01b0319166001600160a01b0392909216919091179055565b6001600160a01b03811660009081527f05b8ccbb9d4d8fb16ea74ce3c29a41f1b461fbdaff4714a0d9a8eb05499746bc602052604081205460ff166106f3565b60008281526005602052604090206001015461092181611aab565b61092b8383611ab5565b505050565b6001600160a01b03811633146109ae5760405162461bcd60e51b815260206004820152602f60248201527f416363657373436f6e74726f6c3a2063616e206f6e6c792072656e6f756e636560448201527f20726f6c657320666f722073656c6600000000000000000000000000000000006064820152608401610743565b6109b88282611b57565b5050565b6000806109c8836116d8565b9150915080600003610a0f5760405162461bcd60e51b815260206004820152601060248201526f6e6f207265676973746572206461746160801b6044820152606401610743565b60008167ffffffffffffffff811115610a2a57610a2a612277565b604051908082528060200260200182016040528015610a6f57816020015b6040805180820190915260008082526020820152815260200190600190039081610a485790505b50905060005b82811015610ac757838181518110610a8f57610a8f6124a9565b6020026020010151828281518110610aa957610aa96124a9565b60200260200101819052508080610abf906124d5565b915050610a75565b50610ad28482611bda565b50505050565b60006001600160a01b038216610af057506000919050565b60405163bf40fac160e01b815260206004820152602160248201527f50726f78795f5f4f564d5f4c3143726f7373446f6d61696e4d657373656e67656044820152603960f91b60648201526001600160a01b0383169063bf40fac190608401602060405180830381865afa925050508015610b88575060408051601f3d908101601f19168201909252610b85918101906124ee565b60015b610bc5573d808015610bb6576040519150601f19603f3d011682016040523d82523d6000602084013e610bbb565b606091505b5060009392505050565b90505b919050565b610bd6336108c6565b610c1b5760405162461bcd60e51b815260206004820152602260248201526000805160206127b983398151915260448201526134b760f11b6064820152608401610743565b61080d600082610906565b610c2f336108c6565b610c745760405162461bcd60e51b815260206004820152602260248201526000805160206127b983398151915260448201526134b760f11b6064820152608401610743565b610c7f600033610930565b565b600854604051634c063c1960e01b81526001600160a01b0384811660048301526000928392839290911690634c063c1990602401602060405180830381865afa158015610cd2573d6000803e3d6000fd5b505050506040513d601f19601f82011682018060405250810190610cf691906124ee565b90506001600160a01b038116610d4e5760405162461bcd60e51b815260206004820152600c60248201527f7a65726f20636f696e61676500000000000000000000000000000000000000006044820152606401610743565b6040516319d5dce960e01b81526001600160a01b03858116600483015260009182918416906319d5dce990602401608060405180830381865afa158015610d99573d6000803e3d6000fd5b505050506040513d601f19601f82011682018060405250810190610dbd919061255a565b90519051909890975095505050505050565b610dd8336108c6565b610e1d5760405162461bcd60e51b815260206004820152602260248201526000805160206127b983398151915260448201526134b760f11b6064820152608401610743565b6001600160a01b038116610e735760405162461bcd60e51b815260206004820152601860248201527f41636365737369626c653a207a65726f206164647265737300000000000000006044820152606401610743565b6001600160a01b0381163303610ecb5760405162461bcd60e51b815260206004820152601660248201527f41636365737369626c653a2073616d652061646d696e000000000000000000006044820152606401610743565b610ed6600082610906565b61080d600033610930565b6008546001600160a01b03163314610f2d5760405162461bcd60e51b815260206004820152600f60248201526e3737ba1039b2b4b3a6b0b730b3b2b960891b6044820152606401610743565b6001600160a01b038083166000908152600b602090815260408083209387168352929052908120549003610fca57600060015b604051908082528060200260200182016040528015610f89578160200160208202803683370190505b5090508381600081518110610fa057610fa06124a9565b60200260200101906001600160a01b031690816001600160a01b031681525050610ad2838261108d565b604080516001600160a01b038581166024830152848116604483015260648083018590528351808403909101815260849092019092526020810180516001600160e01b0316638340f54960e01b179052600a54909161103b91908116908390600160a01b900463ffffffff16611e18565b604080516001600160a01b038087168252851660208201529081018390527f8752a472e571a816aea92eec8dae9baf628e840f4929fbcc2d155e6233ff68a7906060015b60405180910390a150505050565b805160008190036110e05760405162461bcd60e51b815260206004820152600d60248201527f656d707479206c617965723273000000000000000000000000000000000000006044820152606401610743565b60008167ffffffffffffffff8111156110fb576110fb612277565b60405190808252806020026020018201604052801561114057816020015b60408051808201909152600080825260208201528152602001906001900390816111195790505b50905060005b82811015610ac75760095484516001600160a01b03909116906361cdc5b890869084908110611177576111776124a9565b60200260200101516040518263ffffffff1660e01b81526004016111aa91906001600160a01b0391909116815260200190565b602060405180830381865afa1580156111c7573d6000803e3d6000fd5b505050506040513d601f19601f820116820180604052508101906111eb919061258f565b6112375760405162461bcd60e51b815260206004820152601e60248201527f756e72656769737465726564206c6179657220696e20726567697374727900006044820152606401610743565b60085484516000916001600160a01b03169063ce4cb87690879085908110611261576112616124a9565b6020026020010151886040518363ffffffff1660e01b815260040161129c9291906001600160a01b0392831681529116602082015260400190565b602060405180830381865afa1580156112b9573d6000803e3d6000fd5b505050506040513d601f19601f820116820180604052508101906112dd91906125b1565b905060405180604001604052808684815181106112fc576112fc6124a9565b60200260200101516001600160a01b0316815260200182815250838381518110611328576113286124a9565b602002602001018190525050808061133f906124d5565b915050611146565b604080516001600160a01b03848116602483015260448083018590528351808403909101815260649092019092526020810180516001600160e01b03166335c49c4960e01b179052600a5490916113b091908116908390600160a01b900463ffffffff16611e18565b604080516001600160a01b0385168152602081018490527f23a5f8502c76ac22124885c6342e0bd8b86cb369bb2c420eab353ac440388aae910160405180910390a1505050565b60008281526005602052604090206001015461141281611aab565b61092b8383611b57565b611425336108c6565b61146a5760405162461bcd60e51b815260206004820152602260248201526000805160206127b983398151915260448201526134b760f11b6064820152608401610743565b600a546001600160a01b038083169116036114b05760405162461bcd60e51b81526004016107439060208082526004908201526373616d6560e01b604082015260600190565b600a80546001600160a01b0319166001600160a01b0392909216919091179055565b6008546001600160a01b0316331461151e5760405162461bcd60e51b815260206004820152600f60248201526e3737ba1039b2b4b3a6b0b730b3b2b960891b6044820152606401610743565b6001600160a01b038083166000908152600b6020908152604080832093871683529290529081205490036115555760006001610f60565b604080516001600160a01b038581166024830152848116604483015260648083018590528351808403909101815260849092019092526020810180516001600160e01b0316636ce5768960e11b179052600a5490916115c691908116908390600160a01b900463ffffffff16611e18565b604080516001600160a01b038087168252851660208201529081018390527f2717ead6b9200dd235aad468c9809ea400fe33ac69b5bfaa6d3e90fc922b63989060600161107f565b6006546001600160a01b031633146116685760405162461bcd60e51b815260206004820152600b60248201527f6e6f74206d616e616765720000000000000000000000000000000000000000006044820152606401610743565b600a5463ffffffff808316600160a01b90920416036116b25760405162461bcd60e51b81526004016107439060208082526004908201526373616d6560e01b604082015260600190565b600a805463ffffffff909216600160a01b0263ffffffff60a01b19909216919091179055565b6060600080600960009054906101000a90046001600160a01b03166001600160a01b0316630d42d4976040518163ffffffff1660e01b8152600401602060405180830381865afa158015611730573d6000803e3d6000fd5b505050506040513d601f19601f8201168201806040525081019061175491906125b1565b90508015611914578067ffffffffffffffff81111561177557611775612277565b6040519080825280602002602001820160405280156117ba57816020015b60408051808201909152600080825260208201528152602001906001900390816117935790505b50925060005b818110156119125760095460405163b7ffb17960e01b8152600481018390526000916001600160a01b03169063b7ffb17990602401602060405180830381865afa158015611812573d6000803e3d6000fd5b505050506040513d601f19601f8201168201806040525081019061183691906124ee565b6008546040516367265c3b60e11b81526001600160a01b03808416600483015289811660248301529293506000929091169063ce4cb87690604401602060405180830381865afa15801561188e573d6000803e3d6000fd5b505050506040513d601f19601f820116820180604052508101906118b291906125b1565b90506040518060400160405280836001600160a01b03168152602001828152508686815181106118e4576118e46124a9565b602002602001018190525084806118fa906124d5565b9550505050808061190a906124d5565b9150506117c0565b505b50915091565b611923336108c6565b6119685760405162461bcd60e51b815260206004820152602260248201526000805160206127b983398151915260448201526134b760f11b6064820152608401610743565b61080d81610dcf565b61197a336108c6565b6119bf5760405162461bcd60e51b815260206004820152602260248201526000805160206127b983398151915260448201526134b760f11b6064820152608401610743565b600680546001600160a01b038781166001600160a01b0319928316811790935560088054888316908416811790915560098054888416908516811790915560078054938816939094168317909355600a805463ffffffff8716600160a01b810263ffffffff60a01b199092169190911790915560408051958652602086019290925290840192909252606083015260808201527f1c400949308db7a8a862f7df55ab302647d57b9cbceac6b3951aa9f7c76ff72c9060a00160405180910390a15050505050565b60006001600160e01b03198216637965db0b60e01b14806106f357506106f382611ef0565b61080d8133611f2c565b60008281526005602090815260408083206001600160a01b038516845290915290205460ff166109b85760008281526005602090815260408083206001600160a01b03851684529091529020805460ff19166001179055611b133390565b6001600160a01b0316816001600160a01b0316837f2f8788117e7eff1d82e926ec794901d17c78024a50270940304540a733656f0d60405160405180910390a45050565b60008281526005602090815260408083206001600160a01b038516845290915290205460ff16156109b85760008281526005602090815260408083206001600160a01b0385168085529252808320805460ff1916905551339285917ff6391f5c32d9c69d2a47ea670b442974b53935d1edc7fd64eb21e047a839171b9190a45050565b8051600003611c1e5760405162461bcd60e51b815260206004820152601060248201526f6e6f207265676973746572206461746160801b6044820152606401610743565b805160609060005b81811015611d7a576001600160a01b0385166000908152600b602052604081208551429290879085908110611c5d57611c5d6124a9565b6020026020010151600001516001600160a01b03166001600160a01b03168152602001908152602001600020819055506000848281518110611ca157611ca16124a9565b602002602001015160000151858381518110611cbf57611cbf6124a9565b602002602001015160200151604051602001611cf992919060609290921b6bffffffffffffffffffffffff19168252601482015260340190565b60405160208183030381529060405290508381604051602001611d1d9291906125ee565b60405160208183030381529060405293507fb5ca2dfb0bd25603299b76fefa9fbe3abdc9f951bdfb7ffd208f93ab7f8e203c8682604051611d5f929190612649565b60405180910390a15080611d72816124d5565b915050611c26565b5060006382fbdc9c60e01b8584604051602001611d98929190612673565b60408051601f1981840301815290829052611db5916024016126ab565b60408051601f198184030181529190526020810180516001600160e01b03166001600160e01b031990931692909217909152600a54909150611e11906001600160a01b03811690839063ffffffff600160a01b90910416611e18565b5050505050565b600754600090611e30906001600160a01b0316610ad8565b90506001600160a01b038116611e885760405162461bcd60e51b815260206004820152601a60248201527f6c314d657373656e676572206973205a65726f416464726573730000000000006044820152606401610743565b604051633dbb202b60e01b81526001600160a01b03821690633dbb202b90611eb8908790879087906004016126be565b600060405180830381600087803b158015611ed257600080fd5b505af1158015611ee6573d6000803e3d6000fd5b5050505050505050565b60006301ffc9a760e01b6001600160e01b0319831614806106f35750506001600160e01b03191660009081526004602052604090205460ff1690565b60008281526005602090815260408083206001600160a01b038516845290915290205460ff166109b857611f5f81611fa1565b611f6a836020611fb3565b604051602001611f7b9291906126f6565b60408051601f198184030181529082905262461bcd60e51b8252610743916004016126ab565b60606106f36001600160a01b03831660145b60606000611fc2836002612777565b611fcd90600261278e565b67ffffffffffffffff811115611fe557611fe5612277565b6040519080825280601f01601f19166020018201604052801561200f576020820181803683370190505b509050600360fc1b8160008151811061202a5761202a6124a9565b60200101906001600160f81b031916908160001a905350600f60fb1b81600181518110612059576120596124a9565b60200101906001600160f81b031916908160001a905350600061207d846002612777565b61208890600161278e565b90505b600181111561210d577f303132333435363738396162636465660000000000000000000000000000000085600f16601081106120c9576120c96124a9565b1a60f81b8282815181106120df576120df6124a9565b60200101906001600160f81b031916908160001a90535060049490941c93612106816127a1565b905061208b565b50831561215c5760405162461bcd60e51b815260206004820181905260248201527f537472696e67733a20686578206c656e67746820696e73756666696369656e746044820152606401610743565b9392505050565b60006020828403121561217557600080fd5b81356001600160e01b03198116811461215c57600080fd5b6001600160a01b038116811461080d57600080fd5b6000602082840312156121b457600080fd5b813561215c8161218d565b6000602082840312156121d157600080fd5b5035919050565b600080604083850312156121eb57600080fd5b8235915060208301356121fd8161218d565b809150509250929050565b6000806040838503121561221b57600080fd5b82356122268161218d565b915060208301356121fd8161218d565b60008060006060848603121561224b57600080fd5b83356122568161218d565b925060208401356122668161218d565b929592945050506040919091013590565b634e487b7160e01b600052604160045260246000fd5b604051601f8201601f1916810167ffffffffffffffff811182821017156122b6576122b6612277565b604052919050565b600080604083850312156122d157600080fd5b82356122dc8161218d565b915060208381013567ffffffffffffffff808211156122fa57600080fd5b818601915086601f83011261230e57600080fd5b81358181111561232057612320612277565b8060051b915061233184830161228d565b818152918301840191848101908984111561234b57600080fd5b938501935b8385101561237557843592506123658361218d565b8282529385019390850190612350565b8096505050505050509250929050565b6000806040838503121561239857600080fd5b82356123a38161218d565b946020939093013593505050565b803563ffffffff81168114610bc857600080fd5b6000602082840312156123d757600080fd5b61215c826123b1565b60408082528351828201819052600091906020906060850190828801855b8281101561242c57815180516001600160a01b031685528501518585015292850192908401906001016123fe565b5050509301939093525092915050565b600080600080600060a0868803121561245457600080fd5b853561245f8161218d565b9450602086013561246f8161218d565b9350604086013561247f8161218d565b9250606086013561248f8161218d565b915061249d608087016123b1565b90509295509295909350565b634e487b7160e01b600052603260045260246000fd5b634e487b7160e01b600052601160045260246000fd5b6000600182016124e7576124e76124bf565b5060010190565b60006020828403121561250057600080fd5b815161215c8161218d565b60006040828403121561251d57600080fd5b6040516040810181811067ffffffffffffffff8211171561254057612540612277565b604052825181526020928301519281019290925250919050565b6000806080838503121561256d57600080fd5b612577848461250b565b9150612586846040850161250b565b90509250929050565b6000602082840312156125a157600080fd5b8151801515811461215c57600080fd5b6000602082840312156125c357600080fd5b5051919050565b60005b838110156125e55781810151838201526020016125cd565b50506000910152565b600083516126008184602088016125ca565b8351908301906126148183602088016125ca565b01949350505050565b600081518084526126358160208601602086016125ca565b601f01601f19169290920160200192915050565b6001600160a01b038316815260406020820152600061266b604083018461261d565b949350505050565b6bffffffffffffffffffffffff198360601b1681526000825161269d8160148501602087016125ca565b919091016014019392505050565b60208152600061215c602083018461261d565b6001600160a01b03841681526060602082015260006126e0606083018561261d565b905063ffffffff83166040830152949350505050565b7f416363657373436f6e74726f6c3a206163636f756e742000000000000000000081526000835161272e8160178501602088016125ca565b7f206973206d697373696e6720726f6c6520000000000000000000000000000000601791840191820152835161276b8160288401602088016125ca565b01602801949350505050565b80820281158282048414176106f3576106f36124bf565b808201808211156106f3576106f36124bf565b6000816127b0576127b06124bf565b50600019019056fe41636365737369626c653a2043616c6c6572206973206e6f7420616e2061646da164736f6c6343000813000a",
  "linkReferences": {},
  "deployedLinkReferences": {}
}