{
  "_format": "hh-sol-artifact-1",
  "contractName": "L1StakedTonToL2",
  "sourceName": "contracts/L1/L1StakedTonToL2.sol",
  "abi": [
    {
      "inputs": [],
      "stateMutability": "nonpayable",
      "type": "constructor"
    },
    {
      "anonymous": false,
      "inputs": [
        {
          "indexed": false,
          "internalType": "address",
          "name": "layer",
          "type": "address"
        },
        {
          "indexed": false,
          "internalType": "address",
          "name": "account",
          "type": "address"
        },
        {
          "indexed": false,
          "internalType": "uint256",
          "name": "amount",
          "type": "uint256"
        }
      ],
      "name": "Deposited",
      "type": "event"
    },
    {
      "anonymous": false,
      "inputs": [
        {
          "indexed": false,
          "internalType": "address",
          "name": "manager_",
          "type": "address"
        },
        {
          "indexed": false,
          "internalType": "address",
          "name": "seigManager_",
          "type": "address"
        },
        {
          "indexed": false,
          "internalType": "address",
          "name": "registry_",
          "type": "address"
        },
        {
          "indexed": false,
          "internalType": "address",
          "name": "addressManager_",
          "type": "address"
        },
        {
          "indexed": false,
          "internalType": "uint32",
          "name": "minGasLimit_",
          "type": "uint32"
        }
      ],
      "name": "Initialized",
      "type": "event"
    },
    {
      "anonymous": false,
      "inputs": [
        {
          "indexed": false,
          "internalType": "address",
          "name": "account",
          "type": "address"
        },
        {
          "indexed": false,
          "internalType": "bytes",
          "name": "syncPacket",
          "type": "bytes"
        }
      ],
      "name": "Registered",
      "type": "event"
    },
    {
      "anonymous": false,
      "inputs": [
        {
          "indexed": true,
          "internalType": "bytes32",
          "name": "role",
          "type": "bytes32"
        },
        {
          "indexed": true,
          "internalType": "bytes32",
          "name": "previousAdminRole",
          "type": "bytes32"
        },
        {
          "indexed": true,
          "internalType": "bytes32",
          "name": "newAdminRole",
          "type": "bytes32"
        }
      ],
      "name": "RoleAdminChanged",
      "type": "event"
    },
    {
      "anonymous": false,
      "inputs": [
        {
          "indexed": true,
          "internalType": "bytes32",
          "name": "role",
          "type": "bytes32"
        },
        {
          "indexed": true,
          "internalType": "address",
          "name": "account",
          "type": "address"
        },
        {
          "indexed": true,
          "internalType": "address",
          "name": "sender",
          "type": "address"
        }
      ],
      "name": "RoleGranted",
      "type": "event"
    },
    {
      "anonymous": false,
      "inputs": [
        {
          "indexed": true,
          "internalType": "bytes32",
          "name": "role",
          "type": "bytes32"
        },
        {
          "indexed": true,
          "internalType": "address",
          "name": "account",
          "type": "address"
        },
        {
          "indexed": true,
          "internalType": "address",
          "name": "sender",
          "type": "address"
        }
      ],
      "name": "RoleRevoked",
      "type": "event"
    },
    {
      "anonymous": false,
      "inputs": [
        {
          "indexed": false,
          "internalType": "address",
          "name": "layer",
          "type": "address"
        },
        {
          "indexed": false,
          "internalType": "address",
          "name": "account",
          "type": "address"
        },
        {
          "indexed": false,
          "internalType": "uint256",
          "name": "amount",
          "type": "uint256"
        }
      ],
      "name": "Withdrawal",
      "type": "event"
    },
    {
      "inputs": [],
      "name": "DEFAULT_ADMIN_ROLE",
      "outputs": [
        {
          "internalType": "bytes32",
          "name": "",
          "type": "bytes32"
        }
      ],
      "stateMutability": "view",
      "type": "function"
    },
    {
      "inputs": [],
      "name": "MINTER_ROLE",
      "outputs": [
        {
          "internalType": "bytes32",
          "name": "",
          "type": "bytes32"
        }
      ],
      "stateMutability": "view",
      "type": "function"
    },
    {
      "inputs": [
        {
          "internalType": "address",
          "name": "account",
          "type": "address"
        }
      ],
      "name": "addAdmin",
      "outputs": [],
      "stateMutability": "nonpayable",
      "type": "function"
    },
    {
      "inputs": [],
      "name": "addressManager",
      "outputs": [
        {
          "internalType": "address",
          "name": "",
          "type": "address"
        }
      ],
      "stateMutability": "view",
      "type": "function"
    },
    {
      "inputs": [
        {
          "internalType": "address",
          "name": "",
          "type": "address"
        }
      ],
      "name": "aliveImplementation",
      "outputs": [
        {
          "internalType": "bool",
          "name": "",
          "type": "bool"
        }
      ],
      "stateMutability": "view",
      "type": "function"
    },
    {
      "inputs": [
        {
          "internalType": "address",
          "name": "layer2",
          "type": "address"
        },
        {
          "internalType": "address",
          "name": "account",
          "type": "address"
        },
        {
          "internalType": "uint256",
          "name": "swton",
          "type": "uint256"
        }
      ],
      "name": "deposit",
      "outputs": [],
      "stateMutability": "nonpayable",
      "type": "function"
    },
    {
      "inputs": [
        {
          "internalType": "address",
          "name": "layer2",
          "type": "address"
        },
        {
          "internalType": "address",
          "name": "account",
          "type": "address"
        }
      ],
      "name": "getBalanceFactor",
      "outputs": [
        {
          "internalType": "uint256",
          "name": "balance",
          "type": "uint256"
        },
        {
          "internalType": "uint256",
          "name": "factor",
          "type": "uint256"
        }
      ],
      "stateMutability": "view",
      "type": "function"
    },
    {
      "inputs": [
        {
          "internalType": "address",
          "name": "addressManager",
          "type": "address"
        }
      ],
      "name": "getL1CommunicationMessenger",
      "outputs": [
        {
          "internalType": "address",
          "name": "_address",
          "type": "address"
        }
      ],
      "stateMutability": "view",
      "type": "function"
    },
    {
      "inputs": [
        {
          "internalType": "bytes32",
          "name": "role",
          "type": "bytes32"
        }
      ],
      "name": "getRoleAdmin",
      "outputs": [
        {
          "internalType": "bytes32",
          "name": "",
          "type": "bytes32"
        }
      ],
      "stateMutability": "view",
      "type": "function"
    },
    {
      "inputs": [
        {
          "internalType": "bytes32",
          "name": "role",
          "type": "bytes32"
        },
        {
          "internalType": "address",
          "name": "account",
          "type": "address"
        }
      ],
      "name": "grantRole",
      "outputs": [],
      "stateMutability": "nonpayable",
      "type": "function"
    },
    {
      "inputs": [
        {
          "internalType": "bytes32",
          "name": "role",
          "type": "bytes32"
        },
        {
          "internalType": "address",
          "name": "account",
          "type": "address"
        }
      ],
      "name": "hasRole",
      "outputs": [
        {
          "internalType": "bool",
          "name": "",
          "type": "bool"
        }
      ],
      "stateMutability": "view",
      "type": "function"
    },
    {
      "inputs": [
        {
          "internalType": "address",
          "name": "manager_",
          "type": "address"
        },
        {
          "internalType": "address",
          "name": "seigManager_",
          "type": "address"
        },
        {
          "internalType": "address",
          "name": "registry_",
          "type": "address"
        },
        {
          "internalType": "address",
          "name": "addressManager_",
          "type": "address"
        },
        {
          "internalType": "uint32",
          "name": "minGasLimit_",
          "type": "uint32"
        }
      ],
      "name": "initialize",
      "outputs": [],
      "stateMutability": "nonpayable",
      "type": "function"
    },
    {
      "inputs": [
        {
          "internalType": "address",
          "name": "account",
          "type": "address"
        }
      ],
      "name": "isAdmin",
      "outputs": [
        {
          "internalType": "bool",
          "name": "",
          "type": "bool"
        }
      ],
      "stateMutability": "view",
      "type": "function"
    },
    {
      "inputs": [],
      "name": "isOwner",
      "outputs": [
        {
          "internalType": "bool",
          "name": "",
          "type": "bool"
        }
      ],
      "stateMutability": "view",
      "type": "function"
    },
    {
      "inputs": [],
      "name": "l1StakedTonInL2",
      "outputs": [
        {
          "internalType": "address",
          "name": "",
          "type": "address"
        }
      ],
      "stateMutability": "view",
      "type": "function"
    },
    {
      "inputs": [
        {
          "internalType": "address",
          "name": "",
          "type": "address"
        },
        {
          "internalType": "address",
          "name": "",
          "type": "address"
        }
      ],
      "name": "lastRegisterTime",
      "outputs": [
        {
          "internalType": "uint256",
          "name": "",
          "type": "uint256"
        }
      ],
      "stateMutability": "view",
      "type": "function"
    },
    {
      "inputs": [],
      "name": "manager",
      "outputs": [
        {
          "internalType": "address",
          "name": "",
          "type": "address"
        }
      ],
      "stateMutability": "view",
      "type": "function"
    },
    {
      "inputs": [],
      "name": "minGasLimit",
      "outputs": [
        {
          "internalType": "uint32",
          "name": "",
          "type": "uint32"
        }
      ],
      "stateMutability": "view",
      "type": "function"
    },
    {
      "inputs": [],
      "name": "pauseProxy",
      "outputs": [
        {
          "internalType": "bool",
          "name": "",
          "type": "bool"
        }
      ],
      "stateMutability": "view",
      "type": "function"
    },
    {
      "inputs": [
        {
          "internalType": "uint256",
          "name": "",
          "type": "uint256"
        }
      ],
      "name": "proxyImplementation",
      "outputs": [
        {
          "internalType": "address",
          "name": "",
          "type": "address"
        }
      ],
      "stateMutability": "view",
      "type": "function"
    },
    {
      "inputs": [
        {
          "internalType": "address",
          "name": "account",
          "type": "address"
        }
      ],
      "name": "register",
      "outputs": [],
      "stateMutability": "nonpayable",
      "type": "function"
    },
    {
      "inputs": [
        {
          "internalType": "address",
          "name": "account",
          "type": "address"
        },
        {
          "internalType": "address[]",
          "name": "layer2s",
          "type": "address[]"
        }
      ],
      "name": "register",
      "outputs": [],
      "stateMutability": "nonpayable",
      "type": "function"
    },
    {
      "inputs": [
        {
          "internalType": "address",
          "name": "account",
          "type": "address"
        }
      ],
      "name": "registerData",
      "outputs": [
        {
          "components": [
            {
              "internalType": "address",
              "name": "layer",
              "type": "address"
            },
            {
              "internalType": "uint256",
              "name": "stakedAmount",
              "type": "uint256"
            }
          ],
          "internalType": "struct LibL1StakedInfo.L1StakedPacket[]",
          "name": "needSyncInfo",
          "type": "tuple[]"
        },
        {
          "internalType": "uint256",
          "name": "count",
          "type": "uint256"
        }
      ],
      "stateMutability": "view",
      "type": "function"
    },
    {
      "inputs": [],
      "name": "registry",
      "outputs": [
        {
          "internalType": "address",
          "name": "",
          "type": "address"
        }
      ],
      "stateMutability": "view",
      "type": "function"
    },
    {
      "inputs": [
        {
          "internalType": "address",
          "name": "account",
          "type": "address"
        }
      ],
      "name": "removeAdmin",
      "outputs": [],
      "stateMutability": "nonpayable",
      "type": "function"
    },
    {
      "inputs": [],
      "name": "renounceOwnership",
      "outputs": [],
      "stateMutability": "nonpayable",
      "type": "function"
    },
    {
      "inputs": [
        {
          "internalType": "bytes32",
          "name": "role",
          "type": "bytes32"
        },
        {
          "internalType": "address",
          "name": "account",
          "type": "address"
        }
      ],
      "name": "renounceRole",
      "outputs": [],
      "stateMutability": "nonpayable",
      "type": "function"
    },
    {
      "inputs": [
        {
          "internalType": "bytes32",
          "name": "role",
          "type": "bytes32"
        },
        {
          "internalType": "address",
          "name": "account",
          "type": "address"
        }
      ],
      "name": "revokeRole",
      "outputs": [],
      "stateMutability": "nonpayable",
      "type": "function"
    },
    {
      "inputs": [],
      "name": "seigManager",
      "outputs": [
        {
          "internalType": "address",
          "name": "",
          "type": "address"
        }
      ],
      "stateMutability": "view",
      "type": "function"
    },
    {
      "inputs": [
        {
          "internalType": "bytes4",
          "name": "",
          "type": "bytes4"
        }
      ],
      "name": "selectorImplementation",
      "outputs": [
        {
          "internalType": "address",
          "name": "",
          "type": "address"
        }
      ],
      "stateMutability": "view",
      "type": "function"
    },
    {
      "inputs": [
        {
          "internalType": "address",
          "name": "addressManagerAddress_",
          "type": "address"
        }
      ],
      "name": "setAddressManager",
      "outputs": [],
      "stateMutability": "nonpayable",
      "type": "function"
    },
    {
      "inputs": [
        {
          "internalType": "address",
          "name": "l1StakedTonInL2_",
          "type": "address"
        }
      ],
      "name": "setL1StakedTonInL2",
      "outputs": [],
      "stateMutability": "nonpayable",
      "type": "function"
    },
    {
      "inputs": [
        {
          "internalType": "uint32",
          "name": "minGasLimit_",
          "type": "uint32"
        }
      ],
      "name": "setMinGasLimit",
      "outputs": [],
      "stateMutability": "nonpayable",
      "type": "function"
    },
    {
      "inputs": [
        {
          "internalType": "address",
          "name": "seigManager_",
          "type": "address"
        }
      ],
      "name": "setSeigManger",
      "outputs": [],
      "stateMutability": "nonpayable",
      "type": "function"
    },
    {
      "inputs": [
        {
          "internalType": "bytes4",
          "name": "interfaceId",
          "type": "bytes4"
        }
      ],
      "name": "supportsInterface",
      "outputs": [
        {
          "internalType": "bool",
          "name": "",
          "type": "bool"
        }
      ],
      "stateMutability": "view",
      "type": "function"
    },
    {
      "inputs": [
        {
          "internalType": "address",
          "name": "",
          "type": "address"
        },
        {
          "internalType": "address",
          "name": "",
          "type": "address"
        }
      ],
      "name": "syncInfo",
      "outputs": [
        {
          "internalType": "uint32",
          "name": "syncTime",
          "type": "uint32"
        },
        {
          "internalType": "uint256",
          "name": "balanceFactor",
          "type": "uint256"
        },
        {
          "internalType": "uint256",
          "name": "factor",
          "type": "uint256"
        },
        {
          "internalType": "uint256",
          "name": "stakedAmount",
          "type": "uint256"
        }
      ],
      "stateMutability": "view",
      "type": "function"
    },
    {
      "inputs": [],
      "name": "tot",
      "outputs": [
        {
          "internalType": "address",
          "name": "",
          "type": "address"
        }
      ],
      "stateMutability": "view",
      "type": "function"
    },
    {
      "inputs": [
        {
          "internalType": "address",
          "name": "newAdmin",
          "type": "address"
        }
      ],
      "name": "transferAdmin",
      "outputs": [],
      "stateMutability": "nonpayable",
      "type": "function"
    },
    {
      "inputs": [
        {
          "internalType": "address",
          "name": "newAdmin",
          "type": "address"
        }
      ],
      "name": "transferOwnership",
      "outputs": [],
      "stateMutability": "nonpayable",
      "type": "function"
    },
    {
      "inputs": [
        {
          "internalType": "address",
          "name": "layer2",
          "type": "address"
        },
        {
          "internalType": "uint256",
          "name": "swton",
          "type": "uint256"
        }
      ],
      "name": "updateSeigniorage",
      "outputs": [],
      "stateMutability": "nonpayable",
      "type": "function"
    },
    {
      "inputs": [
        {
          "internalType": "address",
          "name": "layer2",
          "type": "address"
        },
        {
          "internalType": "address",
          "name": "account",
          "type": "address"
        },
        {
          "internalType": "uint256",
          "name": "swton",
          "type": "uint256"
        }
      ],
      "name": "withdraw",
      "outputs": [],
      "stateMutability": "nonpayable",
      "type": "function"
    }
  ],
  "bytecode": "0x608060405234801561001057600080fd5b50612813806100206000396000f3fe608060405234801561001057600080fd5b50600436106102d35760003560e01c8063723fc3d911610186578063b911135f116100e3578063d6b5046711610097578063e8a9a47111610071578063e8a9a47114610716578063f2fde38b14610737578063f8a2334c1461074a57600080fd5b8063d6b50467146106dd578063d9caed12146106f0578063e6ca35d41461070357600080fd5b8063c5f16b89116100c8578063c5f16b8914610690578063d5391393146106a3578063d547741f146106ca57600080fd5b8063b911135f1461063c578063bd0bfecd1461066557600080fd5b80638f32d59b1161013a578063a16d6aa71161011f578063a16d6aa71461060e578063a217fddf14610621578063a5b2235d1461062957600080fd5b80638f32d59b1461059e57806391d14854146105d557600080fd5b80637b1039991161016b5780637b103999146105655780638340f549146105785780638c09d4ee1461058b57600080fd5b8063723fc3d91461052a57806375829def1461055257600080fd5b80634420e486116102345780635aeb4d77116101e85780636fb7f558116101cd5780636fb7f558146104fc578063704802751461050f578063715018a61461052257600080fd5b80635aeb4d77146104c357806363a8fd89146104ef57600080fd5b8063507c8bd111610219578063507c8bd11461046457806350d2a27614610477578063550d01a3146104a057600080fd5b80634420e4861461043e578063481c6a751461045157600080fd5b806324d7806c1161028b57806336568abe1161027057806336568abe146103925780633ab76e9f146103a55780633eba3079146103d057600080fd5b806324d7806c1461036c5780632f2ff15d1461037f57600080fd5b80631785f53c116102bc5780631785f53c14610315578063215efccc14610328578063248a9ca31461033b57600080fd5b806301ffc9a7146102d85780630652b57a14610300575b600080fd5b6102eb6102e6366004612191565b61075d565b60405190151581526020015b60405180910390f35b61031361030e3660046121d0565b61076e565b005b6103136103233660046121d0565b610829565b6103136103363660046121d0565b610885565b61035e6103493660046121ed565b60009081526005602052604090206001015490565b6040519081526020016102f7565b6102eb61037a3660046121d0565b61093b565b61031361038d366004612206565b61097b565b6103136103a0366004612206565b6109a5565b6007546103b8906001600160a01b031681565b6040516001600160a01b0390911681526020016102f7565b6104176103de366004612236565b600c602090815260009283526040808420909152908252902080546001820154600283015460039093015463ffffffff90921692909184565b6040805163ffffffff909516855260208501939093529183015260608201526080016102f7565b61031361044c3660046121d0565b610a31565b6006546103b8906001600160a01b031681565b6103b86104723660046121d0565b610b4d565b6103b8610485366004612191565b6003602052600090815260409020546001600160a01b031681565b6102eb6104ae3660046121d0565b60026020526000908152604090205460ff1681565b600b546104da90600160a01b900463ffffffff1681565b60405163ffffffff90911681526020016102f7565b6000546102eb9060ff1681565b6008546103b8906001600160a01b031681565b61031361051d3660046121d0565b610c42565b610313610c9b565b61053d610538366004612236565b610cf6565b604080519283526020830191909152016102f7565b6103136105603660046121d0565b610e44565b6009546103b8906001600160a01b031681565b610313610586366004612264565b610f56565b600b546103b8906001600160a01b031681565b3360009081527f05b8ccbb9d4d8fb16ea74ce3c29a41f1b461fbdaff4714a0d9a8eb05499746bc602052604090205460ff166102eb565b6102eb6105e3366004612206565b60009182526005602090815260408084206001600160a01b0393909316845291905290205460ff1690565b600a546103b8906001600160a01b031681565b61035e600081565b6103136106373660046122ec565b611102565b6103b861064a3660046121ed565b6001602052600090815260409020546001600160a01b031681565b61035e610673366004612236565b600d60209081526000928352604080842090915290825290205481565b61031361069e3660046123b3565b6113bc565b61035e7ff0887ba65ee2024ea881d91b74c2450ef19e1557f03bed3ea9f16b037cbe2dc981565b6103136106d8366004612206565b611425565b6103136106eb3660046121d0565b61144a565b6103136106fe366004612264565b611500565b6103136107113660046123f3565b61163c565b6107296107243660046121d0565b611706565b6040516102f792919061240e565b6103136107453660046121d0565b611948565b61031361075836600461246a565b61199f565b600061076882611ab4565b92915050565b6107773361093b565b6107c15760405162461bcd60e51b815260206004820152602260248201526000805160206127e783398151915260448201526134b760f11b60648201526084015b60405180910390fd5b6007546001600160a01b038083169116036108075760405162461bcd60e51b81526004016107b89060208082526004908201526373616d6560e01b604082015260600190565b600780546001600160a01b0319166001600160a01b0392909216919091179055565b6108323361093b565b6108775760405162461bcd60e51b815260206004820152602260248201526000805160206127e783398151915260448201526134b760f11b60648201526084016107b8565b6108826000826109a5565b50565b61088e3361093b565b6108d35760405162461bcd60e51b815260206004820152602260248201526000805160206127e783398151915260448201526134b760f11b60648201526084016107b8565b6008546001600160a01b038083169116036109195760405162461bcd60e51b81526004016107b89060208082526004908201526373616d6560e01b604082015260600190565b600880546001600160a01b0319166001600160a01b0392909216919091179055565b6001600160a01b03811660009081527f05b8ccbb9d4d8fb16ea74ce3c29a41f1b461fbdaff4714a0d9a8eb05499746bc602052604081205460ff16610768565b60008281526005602052604090206001015461099681611ad9565b6109a08383611ae3565b505050565b6001600160a01b0381163314610a235760405162461bcd60e51b815260206004820152602f60248201527f416363657373436f6e74726f6c3a2063616e206f6e6c792072656e6f756e636560448201527f20726f6c657320666f722073656c66000000000000000000000000000000000060648201526084016107b8565b610a2d8282611b85565b5050565b600080610a3d83611706565b9150915080600003610a845760405162461bcd60e51b815260206004820152601060248201526f6e6f207265676973746572206461746160801b60448201526064016107b8565b60008167ffffffffffffffff811115610a9f57610a9f6122a5565b604051908082528060200260200182016040528015610ae457816020015b6040805180820190915260008082526020820152815260200190600190039081610abd5790505b50905060005b82811015610b3c57838181518110610b0457610b046124d7565b6020026020010151828281518110610b1e57610b1e6124d7565b60200260200101819052508080610b3490612503565b915050610aea565b50610b478482611c08565b50505050565b60006001600160a01b038216610b6557506000919050565b60405163bf40fac160e01b815260206004820152602160248201527f50726f78795f5f4f564d5f4c3143726f7373446f6d61696e4d657373656e67656044820152603960f91b60648201526001600160a01b0383169063bf40fac190608401602060405180830381865afa925050508015610bfd575060408051601f3d908101601f19168201909252610bfa9181019061251c565b60015b610c3a573d808015610c2b576040519150601f19603f3d011682016040523d82523d6000602084013e610c30565b606091505b5060009392505050565b90505b919050565b610c4b3361093b565b610c905760405162461bcd60e51b815260206004820152602260248201526000805160206127e783398151915260448201526134b760f11b60648201526084016107b8565b61088260008261097b565b610ca43361093b565b610ce95760405162461bcd60e51b815260206004820152602260248201526000805160206127e783398151915260448201526134b760f11b60648201526084016107b8565b610cf46000336109a5565b565b600854604051634c063c1960e01b81526001600160a01b0384811660048301526000928392839290911690634c063c1990602401602060405180830381865afa158015610d47573d6000803e3d6000fd5b505050506040513d601f19601f82011682018060405250810190610d6b919061251c565b90506001600160a01b038116610dc35760405162461bcd60e51b815260206004820152600c60248201527f7a65726f20636f696e616765000000000000000000000000000000000000000060448201526064016107b8565b6040516319d5dce960e01b81526001600160a01b03858116600483015260009182918416906319d5dce990602401608060405180830381865afa158015610e0e573d6000803e3d6000fd5b505050506040513d601f19601f82011682018060405250810190610e329190612588565b90519051909890975095505050505050565b610e4d3361093b565b610e925760405162461bcd60e51b815260206004820152602260248201526000805160206127e783398151915260448201526134b760f11b60648201526084016107b8565b6001600160a01b038116610ee85760405162461bcd60e51b815260206004820152601860248201527f41636365737369626c653a207a65726f2061646472657373000000000000000060448201526064016107b8565b6001600160a01b0381163303610f405760405162461bcd60e51b815260206004820152601660248201527f41636365737369626c653a2073616d652061646d696e0000000000000000000060448201526064016107b8565b610f4b60008261097b565b6108826000336109a5565b6008546001600160a01b03163314610fa25760405162461bcd60e51b815260206004820152600f60248201526e3737ba1039b2b4b3a6b0b730b3b2b960891b60448201526064016107b8565b6001600160a01b038083166000908152600d60209081526040808320938716835292905290812054900361103f57600060015b604051908082528060200260200182016040528015610ffe578160200160208202803683370190505b5090508381600081518110611015576110156124d7565b60200260200101906001600160a01b031690816001600160a01b031681525050610b478382611102565b604080516001600160a01b038581166024830152848116604483015260648083018590528351808403909101815260849092019092526020810180516001600160e01b0316638340f54960e01b179052600b5490916110b091908116908390600160a01b900463ffffffff16611e46565b604080516001600160a01b038087168252851660208201529081018390527f8752a472e571a816aea92eec8dae9baf628e840f4929fbcc2d155e6233ff68a7906060015b60405180910390a150505050565b805160008190036111555760405162461bcd60e51b815260206004820152600d60248201527f656d707479206c6179657232730000000000000000000000000000000000000060448201526064016107b8565b60008167ffffffffffffffff811115611170576111706122a5565b6040519080825280602002602001820160405280156111b557816020015b604080518082019091526000808252602082015281526020019060019003908161118e5790505b50905060005b82811015610b3c5760095484516001600160a01b03909116906361cdc5b8908690849081106111ec576111ec6124d7565b60200260200101516040518263ffffffff1660e01b815260040161121f91906001600160a01b0391909116815260200190565b602060405180830381865afa15801561123c573d6000803e3d6000fd5b505050506040513d601f19601f8201168201806040525081019061126091906125bd565b6112ac5760405162461bcd60e51b815260206004820152601e60248201527f756e72656769737465726564206c6179657220696e207265676973747279000060448201526064016107b8565b60085484516000916001600160a01b03169063ce4cb876908790859081106112d6576112d66124d7565b6020026020010151886040518363ffffffff1660e01b81526004016113119291906001600160a01b0392831681529116602082015260400190565b602060405180830381865afa15801561132e573d6000803e3d6000fd5b505050506040513d601f19601f8201168201806040525081019061135291906125df565b90506040518060400160405280868481518110611371576113716124d7565b60200260200101516001600160a01b031681526020018281525083838151811061139d5761139d6124d7565b60200260200101819052505080806113b490612503565b9150506111bb565b604080516001600160a01b03848116602483015260448083018590528351808403909101815260649092019092526020810180516001600160e01b03166335c49c4960e01b179052600b5490916109a091908116908390600160a01b900463ffffffff16611e46565b60008281526005602052604090206001015461144081611ad9565b6109a08383611b85565b6114533361093b565b6114985760405162461bcd60e51b815260206004820152602260248201526000805160206127e783398151915260448201526134b760f11b60648201526084016107b8565b600b546001600160a01b038083169116036114de5760405162461bcd60e51b81526004016107b89060208082526004908201526373616d6560e01b604082015260600190565b600b80546001600160a01b0319166001600160a01b0392909216919091179055565b6008546001600160a01b0316331461154c5760405162461bcd60e51b815260206004820152600f60248201526e3737ba1039b2b4b3a6b0b730b3b2b960891b60448201526064016107b8565b6001600160a01b038083166000908152600d6020908152604080832093871683529290529081205490036115835760006001610fd5565b604080516001600160a01b038581166024830152848116604483015260648083018590528351808403909101815260849092019092526020810180516001600160e01b0316636ce5768960e11b179052600b5490916115f491908116908390600160a01b900463ffffffff16611e46565b604080516001600160a01b038087168252851660208201529081018390527f2717ead6b9200dd235aad468c9809ea400fe33ac69b5bfaa6d3e90fc922b6398906060016110f4565b6006546001600160a01b031633146116965760405162461bcd60e51b815260206004820152600b60248201527f6e6f74206d616e6167657200000000000000000000000000000000000000000060448201526064016107b8565b600b5463ffffffff808316600160a01b90920416036116e05760405162461bcd60e51b81526004016107b89060208082526004908201526373616d6560e01b604082015260600190565b600b805463ffffffff909216600160a01b0263ffffffff60a01b19909216919091179055565b6060600080600960009054906101000a90046001600160a01b03166001600160a01b0316630d42d4976040518163ffffffff1660e01b8152600401602060405180830381865afa15801561175e573d6000803e3d6000fd5b505050506040513d601f19601f8201168201806040525081019061178291906125df565b90508015611942578067ffffffffffffffff8111156117a3576117a36122a5565b6040519080825280602002602001820160405280156117e857816020015b60408051808201909152600080825260208201528152602001906001900390816117c15790505b50925060005b818110156119405760095460405163b7ffb17960e01b8152600481018390526000916001600160a01b03169063b7ffb17990602401602060405180830381865afa158015611840573d6000803e3d6000fd5b505050506040513d601f19601f82011682018060405250810190611864919061251c565b6008546040516367265c3b60e11b81526001600160a01b03808416600483015289811660248301529293506000929091169063ce4cb87690604401602060405180830381865afa1580156118bc573d6000803e3d6000fd5b505050506040513d601f19601f820116820180604052508101906118e091906125df565b90506040518060400160405280836001600160a01b0316815260200182815250868681518110611912576119126124d7565b6020026020010181905250848061192890612503565b9550505050808061193890612503565b9150506117ee565b505b50915091565b6119513361093b565b6119965760405162461bcd60e51b815260206004820152602260248201526000805160206127e783398151915260448201526134b760f11b60648201526084016107b8565b61088281610e44565b6119a83361093b565b6119ed5760405162461bcd60e51b815260206004820152602260248201526000805160206127e783398151915260448201526134b760f11b60648201526084016107b8565b600680546001600160a01b038781166001600160a01b0319928316811790935560088054888316908416811790915560098054888416908516811790915560078054938816939094168317909355600b805463ffffffff8716600160a01b810263ffffffff60a01b199092169190911790915560408051958652602086019290925290840192909252606083015260808201527f1c400949308db7a8a862f7df55ab302647d57b9cbceac6b3951aa9f7c76ff72c9060a00160405180910390a15050505050565b60006001600160e01b03198216637965db0b60e01b1480610768575061076882611f1e565b6108828133611f5a565b60008281526005602090815260408083206001600160a01b038516845290915290205460ff16610a2d5760008281526005602090815260408083206001600160a01b03851684529091529020805460ff19166001179055611b413390565b6001600160a01b0316816001600160a01b0316837f2f8788117e7eff1d82e926ec794901d17c78024a50270940304540a733656f0d60405160405180910390a45050565b60008281526005602090815260408083206001600160a01b038516845290915290205460ff1615610a2d5760008281526005602090815260408083206001600160a01b0385168085529252808320805460ff1916905551339285917ff6391f5c32d9c69d2a47ea670b442974b53935d1edc7fd64eb21e047a839171b9190a45050565b8051600003611c4c5760405162461bcd60e51b815260206004820152601060248201526f6e6f207265676973746572206461746160801b60448201526064016107b8565b805160609060005b81811015611da8576001600160a01b0385166000908152600d602052604081208551429290879085908110611c8b57611c8b6124d7565b6020026020010151600001516001600160a01b03166001600160a01b03168152602001908152602001600020819055506000848281518110611ccf57611ccf6124d7565b602002602001015160000151858381518110611ced57611ced6124d7565b602002602001015160200151604051602001611d2792919060609290921b6bffffffffffffffffffffffff19168252601482015260340190565b60405160208183030381529060405290508381604051602001611d4b92919061261c565b60405160208183030381529060405293507fb5ca2dfb0bd25603299b76fefa9fbe3abdc9f951bdfb7ffd208f93ab7f8e203c8682604051611d8d929190612677565b60405180910390a15080611da081612503565b915050611c54565b5060006382fbdc9c60e01b8584604051602001611dc69291906126a1565b60408051601f1981840301815290829052611de3916024016126d9565b60408051601f198184030181529190526020810180516001600160e01b03166001600160e01b031990931692909217909152600b54909150611e3f906001600160a01b03811690839063ffffffff600160a01b90910416611e46565b5050505050565b600754600090611e5e906001600160a01b0316610b4d565b90506001600160a01b038116611eb65760405162461bcd60e51b815260206004820152601a60248201527f6c314d657373656e676572206973205a65726f4164647265737300000000000060448201526064016107b8565b604051633dbb202b60e01b81526001600160a01b03821690633dbb202b90611ee6908790879087906004016126ec565b600060405180830381600087803b158015611f0057600080fd5b505af1158015611f14573d6000803e3d6000fd5b5050505050505050565b60006301ffc9a760e01b6001600160e01b0319831614806107685750506001600160e01b03191660009081526004602052604090205460ff1690565b60008281526005602090815260408083206001600160a01b038516845290915290205460ff16610a2d57611f8d81611fcf565b611f98836020611fe1565b604051602001611fa9929190612724565b60408051601f198184030181529082905262461bcd60e51b82526107b8916004016126d9565b60606107686001600160a01b03831660145b60606000611ff08360026127a5565b611ffb9060026127bc565b67ffffffffffffffff811115612013576120136122a5565b6040519080825280601f01601f19166020018201604052801561203d576020820181803683370190505b509050600360fc1b81600081518110612058576120586124d7565b60200101906001600160f81b031916908160001a905350600f60fb1b81600181518110612087576120876124d7565b60200101906001600160f81b031916908160001a90535060006120ab8460026127a5565b6120b69060016127bc565b90505b600181111561213b577f303132333435363738396162636465660000000000000000000000000000000085600f16601081106120f7576120f76124d7565b1a60f81b82828151811061210d5761210d6124d7565b60200101906001600160f81b031916908160001a90535060049490941c93612134816127cf565b90506120b9565b50831561218a5760405162461bcd60e51b815260206004820181905260248201527f537472696e67733a20686578206c656e67746820696e73756666696369656e7460448201526064016107b8565b9392505050565b6000602082840312156121a357600080fd5b81356001600160e01b03198116811461218a57600080fd5b6001600160a01b038116811461088257600080fd5b6000602082840312156121e257600080fd5b813561218a816121bb565b6000602082840312156121ff57600080fd5b5035919050565b6000806040838503121561221957600080fd5b82359150602083013561222b816121bb565b809150509250929050565b6000806040838503121561224957600080fd5b8235612254816121bb565b9150602083013561222b816121bb565b60008060006060848603121561227957600080fd5b8335612284816121bb565b92506020840135612294816121bb565b929592945050506040919091013590565b634e487b7160e01b600052604160045260246000fd5b604051601f8201601f1916810167ffffffffffffffff811182821017156122e4576122e46122a5565b604052919050565b600080604083850312156122ff57600080fd5b823561230a816121bb565b915060208381013567ffffffffffffffff8082111561232857600080fd5b818601915086601f83011261233c57600080fd5b81358181111561234e5761234e6122a5565b8060051b915061235f8483016122bb565b818152918301840191848101908984111561237957600080fd5b938501935b838510156123a35784359250612393836121bb565b828252938501939085019061237e565b8096505050505050509250929050565b600080604083850312156123c657600080fd5b82356123d1816121bb565b946020939093013593505050565b803563ffffffff81168114610c3d57600080fd5b60006020828403121561240557600080fd5b61218a826123df565b60408082528351828201819052600091906020906060850190828801855b8281101561245a57815180516001600160a01b0316855285015185850152928501929084019060010161242c565b5050509301939093525092915050565b600080600080600060a0868803121561248257600080fd5b853561248d816121bb565b9450602086013561249d816121bb565b935060408601356124ad816121bb565b925060608601356124bd816121bb565b91506124cb608087016123df565b90509295509295909350565b634e487b7160e01b600052603260045260246000fd5b634e487b7160e01b600052601160045260246000fd5b600060018201612515576125156124ed565b5060010190565b60006020828403121561252e57600080fd5b815161218a816121bb565b60006040828403121561254b57600080fd5b6040516040810181811067ffffffffffffffff8211171561256e5761256e6122a5565b604052825181526020928301519281019290925250919050565b6000806080838503121561259b57600080fd5b6125a58484612539565b91506125b48460408501612539565b90509250929050565b6000602082840312156125cf57600080fd5b8151801515811461218a57600080fd5b6000602082840312156125f157600080fd5b5051919050565b60005b838110156126135781810151838201526020016125fb565b50506000910152565b6000835161262e8184602088016125f8565b8351908301906126428183602088016125f8565b01949350505050565b600081518084526126638160208601602086016125f8565b601f01601f19169290920160200192915050565b6001600160a01b0383168152604060208201526000612699604083018461264b565b949350505050565b6bffffffffffffffffffffffff198360601b168152600082516126cb8160148501602087016125f8565b919091016014019392505050565b60208152600061218a602083018461264b565b6001600160a01b038416815260606020820152600061270e606083018561264b565b905063ffffffff83166040830152949350505050565b7f416363657373436f6e74726f6c3a206163636f756e742000000000000000000081526000835161275c8160178501602088016125f8565b7f206973206d697373696e6720726f6c652000000000000000000000000000000060179184019182015283516127998160288401602088016125f8565b01602801949350505050565b8082028115828204841417610768576107686124ed565b80820180821115610768576107686124ed565b6000816127de576127de6124ed565b50600019019056fe41636365737369626c653a2043616c6c6572206973206e6f7420616e2061646da164736f6c6343000813000a",
  "linkReferences": {},
  "deployedLinkReferences": {}
}