{
  "_format": "hh-sol-artifact-1",
  "contractName": "L2RegistryProxy",
  "sourceName": "contracts/layer2/L2RegistryProxy.sol",
  "abi": [
    {
      "anonymous": false,
      "inputs": [
        {
          "indexed": true,
          "internalType": "bytes32",
          "name": "role",
          "type": "bytes32"
        },
        {
          "indexed": true,
          "internalType": "bytes32",
          "name": "previousAdminRole",
          "type": "bytes32"
        },
        {
          "indexed": true,
          "internalType": "bytes32",
          "name": "newAdminRole",
          "type": "bytes32"
        }
      ],
      "name": "RoleAdminChanged",
      "type": "event"
    },
    {
      "anonymous": false,
      "inputs": [
        {
          "indexed": true,
          "internalType": "bytes32",
          "name": "role",
          "type": "bytes32"
        },
        {
          "indexed": true,
          "internalType": "address",
          "name": "account",
          "type": "address"
        },
        {
          "indexed": true,
          "internalType": "address",
          "name": "sender",
          "type": "address"
        }
      ],
      "name": "RoleGranted",
      "type": "event"
    },
    {
      "anonymous": false,
      "inputs": [
        {
          "indexed": true,
          "internalType": "bytes32",
          "name": "role",
          "type": "bytes32"
        },
        {
          "indexed": true,
          "internalType": "address",
          "name": "account",
          "type": "address"
        },
        {
          "indexed": true,
          "internalType": "address",
          "name": "sender",
          "type": "address"
        }
      ],
      "name": "RoleRevoked",
      "type": "event"
    },
    {
      "anonymous": false,
      "inputs": [
        {
          "indexed": true,
          "internalType": "address",
          "name": "impl",
          "type": "address"
        },
        {
          "indexed": false,
          "internalType": "bool",
          "name": "alive",
          "type": "bool"
        }
      ],
      "name": "SetAliveImplementation",
      "type": "event"
    },
    {
      "anonymous": false,
      "inputs": [
        {
          "indexed": true,
          "internalType": "bytes4",
          "name": "selector",
          "type": "bytes4"
        },
        {
          "indexed": true,
          "internalType": "address",
          "name": "impl",
          "type": "address"
        }
      ],
      "name": "SetSelectorImplementation",
      "type": "event"
    },
    {
      "anonymous": false,
      "inputs": [
        {
          "indexed": true,
          "internalType": "address",
          "name": "implementation",
          "type": "address"
        }
      ],
      "name": "Upgraded",
      "type": "event"
    },
    {
      "stateMutability": "payable",
      "type": "fallback"
    },
    {
      "inputs": [],
      "name": "DEFAULT_ADMIN_ROLE",
      "outputs": [
        {
          "internalType": "bytes32",
          "name": "",
          "type": "bytes32"
        }
      ],
      "stateMutability": "view",
      "type": "function"
    },
    {
      "inputs": [],
      "name": "MANAGER_ROLE",
      "outputs": [
        {
          "internalType": "bytes32",
          "name": "",
          "type": "bytes32"
        }
      ],
      "stateMutability": "view",
      "type": "function"
    },
    {
      "inputs": [],
      "name": "REGISTRANT_ROLE",
      "outputs": [
        {
          "internalType": "bytes32",
          "name": "",
          "type": "bytes32"
        }
      ],
      "stateMutability": "view",
      "type": "function"
    },
    {
      "inputs": [
        {
          "internalType": "address",
          "name": "account",
          "type": "address"
        }
      ],
      "name": "addAdmin",
      "outputs": [],
      "stateMutability": "nonpayable",
      "type": "function"
    },
    {
      "inputs": [
        {
          "internalType": "address",
          "name": "account",
          "type": "address"
        }
      ],
      "name": "addManager",
      "outputs": [],
      "stateMutability": "nonpayable",
      "type": "function"
    },
    {
      "inputs": [
        {
          "internalType": "address",
          "name": "account",
          "type": "address"
        }
      ],
      "name": "addRegistrant",
      "outputs": [],
      "stateMutability": "nonpayable",
      "type": "function"
    },
    {
      "inputs": [
        {
          "internalType": "address",
          "name": "",
          "type": "address"
        }
      ],
      "name": "aliveImplementation",
      "outputs": [
        {
          "internalType": "bool",
          "name": "",
          "type": "bool"
        }
      ],
      "stateMutability": "view",
      "type": "function"
    },
    {
      "inputs": [
        {
          "internalType": "bytes32",
          "name": "role",
          "type": "bytes32"
        }
      ],
      "name": "getRoleAdmin",
      "outputs": [
        {
          "internalType": "bytes32",
          "name": "",
          "type": "bytes32"
        }
      ],
      "stateMutability": "view",
      "type": "function"
    },
    {
      "inputs": [
        {
          "internalType": "bytes4",
          "name": "_selector",
          "type": "bytes4"
        }
      ],
      "name": "getSelectorImplementation2",
      "outputs": [
        {
          "internalType": "address",
          "name": "impl",
          "type": "address"
        }
      ],
      "stateMutability": "view",
      "type": "function"
    },
    {
      "inputs": [
        {
          "internalType": "bytes32",
          "name": "role",
          "type": "bytes32"
        },
        {
          "internalType": "address",
          "name": "account",
          "type": "address"
        }
      ],
      "name": "grantRole",
      "outputs": [],
      "stateMutability": "nonpayable",
      "type": "function"
    },
    {
      "inputs": [
        {
          "internalType": "bytes32",
          "name": "role",
          "type": "bytes32"
        },
        {
          "internalType": "address",
          "name": "account",
          "type": "address"
        }
      ],
      "name": "hasRole",
      "outputs": [
        {
          "internalType": "bool",
          "name": "",
          "type": "bool"
        }
      ],
      "stateMutability": "view",
      "type": "function"
    },
    {
      "inputs": [],
      "name": "implementation",
      "outputs": [
        {
          "internalType": "address",
          "name": "",
          "type": "address"
        }
      ],
      "stateMutability": "view",
      "type": "function"
    },
    {
      "inputs": [
        {
          "internalType": "uint256",
          "name": "_index",
          "type": "uint256"
        }
      ],
      "name": "implementation2",
      "outputs": [
        {
          "internalType": "address",
          "name": "",
          "type": "address"
        }
      ],
      "stateMutability": "view",
      "type": "function"
    },
    {
      "inputs": [
        {
          "internalType": "address",
          "name": "account",
          "type": "address"
        }
      ],
      "name": "isAdmin",
      "outputs": [
        {
          "internalType": "bool",
          "name": "",
          "type": "bool"
        }
      ],
      "stateMutability": "view",
      "type": "function"
    },
    {
      "inputs": [
        {
          "internalType": "address",
          "name": "account",
          "type": "address"
        }
      ],
      "name": "isManager",
      "outputs": [
        {
          "internalType": "bool",
          "name": "",
          "type": "bool"
        }
      ],
      "stateMutability": "view",
      "type": "function"
    },
    {
      "inputs": [],
      "name": "isOwner",
      "outputs": [
        {
          "internalType": "bool",
          "name": "",
          "type": "bool"
        }
      ],
      "stateMutability": "view",
      "type": "function"
    },
    {
      "inputs": [
        {
          "internalType": "address",
          "name": "account",
          "type": "address"
        }
      ],
      "name": "isRegistrant",
      "outputs": [
        {
          "internalType": "bool",
          "name": "",
          "type": "bool"
        }
      ],
      "stateMutability": "view",
      "type": "function"
    },
    {
      "inputs": [
        {
          "internalType": "address",
          "name": "",
          "type": "address"
        }
      ],
      "name": "l1Bridge",
      "outputs": [
        {
          "internalType": "bool",
          "name": "",
          "type": "bool"
        }
      ],
      "stateMutability": "view",
      "type": "function"
    },
    {
      "inputs": [],
      "name": "layer2Manager",
      "outputs": [
        {
          "internalType": "address",
          "name": "",
          "type": "address"
        }
      ],
      "stateMutability": "view",
      "type": "function"
    },
    {
      "inputs": [],
      "name": "pauseProxy",
      "outputs": [
        {
          "internalType": "bool",
          "name": "",
          "type": "bool"
        }
      ],
      "stateMutability": "view",
      "type": "function"
    },
    {
      "inputs": [
        {
          "internalType": "address",
          "name": "",
          "type": "address"
        }
      ],
      "name": "portal",
      "outputs": [
        {
          "internalType": "bool",
          "name": "",
          "type": "bool"
        }
      ],
      "stateMutability": "view",
      "type": "function"
    },
    {
      "inputs": [
        {
          "internalType": "uint256",
          "name": "",
          "type": "uint256"
        }
      ],
      "name": "proxyImplementation",
      "outputs": [
        {
          "internalType": "address",
          "name": "",
          "type": "address"
        }
      ],
      "stateMutability": "view",
      "type": "function"
    },
    {
      "inputs": [
        {
          "internalType": "address",
          "name": "account",
          "type": "address"
        }
      ],
      "name": "removeAdmin",
      "outputs": [],
      "stateMutability": "nonpayable",
      "type": "function"
    },
    {
      "inputs": [
        {
          "internalType": "address",
          "name": "account",
          "type": "address"
        }
      ],
      "name": "removeManager",
      "outputs": [],
      "stateMutability": "nonpayable",
      "type": "function"
    },
    {
      "inputs": [
        {
          "internalType": "address",
          "name": "account",
          "type": "address"
        }
      ],
      "name": "removeRegistrant",
      "outputs": [],
      "stateMutability": "nonpayable",
      "type": "function"
    },
    {
      "inputs": [],
      "name": "renounceManager",
      "outputs": [],
      "stateMutability": "nonpayable",
      "type": "function"
    },
    {
      "inputs": [],
      "name": "renounceOwnership",
      "outputs": [],
      "stateMutability": "nonpayable",
      "type": "function"
    },
    {
      "inputs": [],
      "name": "renounceRegistrant",
      "outputs": [],
      "stateMutability": "nonpayable",
      "type": "function"
    },
    {
      "inputs": [
        {
          "internalType": "bytes32",
          "name": "role",
          "type": "bytes32"
        },
        {
          "internalType": "address",
          "name": "account",
          "type": "address"
        }
      ],
      "name": "renounceRole",
      "outputs": [],
      "stateMutability": "nonpayable",
      "type": "function"
    },
    {
      "inputs": [
        {
          "internalType": "address",
          "name": "account",
          "type": "address"
        }
      ],
      "name": "revokeManager",
      "outputs": [],
      "stateMutability": "nonpayable",
      "type": "function"
    },
    {
      "inputs": [
        {
          "internalType": "address",
          "name": "account",
          "type": "address"
        }
      ],
      "name": "revokeRegistrant",
      "outputs": [],
      "stateMutability": "nonpayable",
      "type": "function"
    },
    {
      "inputs": [
        {
          "internalType": "bytes32",
          "name": "role",
          "type": "bytes32"
        },
        {
          "internalType": "address",
          "name": "account",
          "type": "address"
        }
      ],
      "name": "revokeRole",
      "outputs": [],
      "stateMutability": "nonpayable",
      "type": "function"
    },
    {
      "inputs": [],
      "name": "seigManager",
      "outputs": [
        {
          "internalType": "address",
          "name": "",
          "type": "address"
        }
      ],
      "stateMutability": "view",
      "type": "function"
    },
    {
      "inputs": [
        {
          "internalType": "bytes4",
          "name": "",
          "type": "bytes4"
        }
      ],
      "name": "selectorImplementation",
      "outputs": [
        {
          "internalType": "address",
          "name": "",
          "type": "address"
        }
      ],
      "stateMutability": "view",
      "type": "function"
    },
    {
      "inputs": [
        {
          "internalType": "address",
          "name": "newImplementation",
          "type": "address"
        },
        {
          "internalType": "bool",
          "name": "_alive",
          "type": "bool"
        }
      ],
      "name": "setAliveImplementation2",
      "outputs": [],
      "stateMutability": "nonpayable",
      "type": "function"
    },
    {
      "inputs": [
        {
          "internalType": "address",
          "name": "newImplementation",
          "type": "address"
        },
        {
          "internalType": "uint256",
          "name": "_index",
          "type": "uint256"
        },
        {
          "internalType": "bool",
          "name": "_alive",
          "type": "bool"
        }
      ],
      "name": "setImplementation2",
      "outputs": [],
      "stateMutability": "nonpayable",
      "type": "function"
    },
    {
      "inputs": [
        {
          "internalType": "bool",
          "name": "_pause",
          "type": "bool"
        }
      ],
      "name": "setProxyPause",
      "outputs": [],
      "stateMutability": "nonpayable",
      "type": "function"
    },
    {
      "inputs": [
        {
          "internalType": "bytes4[]",
          "name": "_selectors",
          "type": "bytes4[]"
        },
        {
          "internalType": "address",
          "name": "_imp",
          "type": "address"
        }
      ],
      "name": "setSelectorImplementations2",
      "outputs": [],
      "stateMutability": "nonpayable",
      "type": "function"
    },
    {
      "inputs": [
        {
          "internalType": "bytes4",
          "name": "interfaceId",
          "type": "bytes4"
        }
      ],
      "name": "supportsInterface",
      "outputs": [
        {
          "internalType": "bool",
          "name": "",
          "type": "bool"
        }
      ],
      "stateMutability": "view",
      "type": "function"
    },
    {
      "inputs": [
        {
          "internalType": "address",
          "name": "",
          "type": "address"
        }
      ],
      "name": "systemConfigType",
      "outputs": [
        {
          "internalType": "uint8",
          "name": "",
          "type": "uint8"
        }
      ],
      "stateMutability": "view",
      "type": "function"
    },
    {
      "inputs": [],
      "name": "ton",
      "outputs": [
        {
          "internalType": "address",
          "name": "",
          "type": "address"
        }
      ],
      "stateMutability": "view",
      "type": "function"
    },
    {
      "inputs": [
        {
          "internalType": "address",
          "name": "newAdmin",
          "type": "address"
        }
      ],
      "name": "transferAdmin",
      "outputs": [],
      "stateMutability": "nonpayable",
      "type": "function"
    },
    {
      "inputs": [
        {
          "internalType": "address",
          "name": "newAdmin",
          "type": "address"
        }
      ],
      "name": "transferOwnership",
      "outputs": [],
      "stateMutability": "nonpayable",
      "type": "function"
    },
    {
      "inputs": [
        {
          "internalType": "address",
          "name": "impl",
          "type": "address"
        }
      ],
      "name": "upgradeTo",
      "outputs": [],
      "stateMutability": "nonpayable",
      "type": "function"
    },
    {
      "stateMutability": "payable",
      "type": "receive"
    }
  ],
  "bytecode": "0x608060408181523461011257600090818052600560205280822033835260205260ff8183205416156100c7575b7faf290d8680820aad922855f39b306097b20e28774d6c1ad35a20325630c3a02c9081835260056020528260018282200181815491557fbd79b86ffe0ab8e8776151514217cd7cacd52c909f66475c3af44e129f0b00ff93848380a460017f12090aa55130d5a2442eb84fc286ca6e600db6c50b6c5d9b6d0d929f0e2d8ce8918285528420019183835493558380a4611daf90816101188239f35b8180526005602052808220338352602052808220600160ff198254161790553333837f2f8788117e7eff1d82e926ec794901d17c78024a50270940304540a733656f0d8180a461002c565b600080fdfe60806040526004361015610018575b36611b9b57611b5f565b60003560e01c806301ffc9a7146102d357806316b5d5bd146102ce5780631785f53c146102c9578063248a9ca3146102c457806324d7806c146102bf5780632d06177a146102ba5780632f2ff15d146102b557806335556fe3146102b057806336568abe146102ab5780633659cfe6146102a6578063377e32e6146102a15780634a5df50f1461029c57806350d2a27614610297578063550d01a3146102925780635c60da1b1461028d5780635cc797d81461028857806363a8fd89146102835780636f5b142b1461027e5780636fb7f558146102795780637048027514610274578063715018a61461026f57806375829def1461026a5780637cb00d25146102655780637cd5f6631461026057806386ad05b61461025b5780638b8f4a651461022e5780638cfc9347146102565780638d4fdb40146102515780638f32d59b1461024c57806391d1485414610247578063a217fddf14610242578063a2cc09791461023d578063ac18de4314610238578063b30347c014610233578063b911135f1461022e578063bbfcfc1e14610229578063cc48b94714610224578063d00491c61461021f578063d547741f1461021a578063ec87621c14610215578063f1b538b214610210578063f2fde38b1461020b578063f3ae2415146102065763f8b91abe0361000e576112e2565b611290565b61126b565b61122e565b611205565b6111c6565b611159565b611130565b6110c3565b610ee5565b611084565b611057565b611018565b610ffc565b610fb6565b610f7f565b610f46565b610f19565b610e93565b610db9565b610d61565b610c9a565b610c74565b610b88565b610b5f565b610b36565b610b13565b610abc565b610a88565b610a49565b610a03565b61081b565b610732565b610652565b6105c0565b6105a6565b61056f565b610470565b610420565b6103f1565b6103bd565b610368565b6102ef565b6001600160e01b03198116036102ea57565b600080fd5b346102ea5760203660031901126102ea5760043561030c816102d8565b6001600160e01b031916637965db0b60e01b81148015610334575b6020906040519015158152f35b506301ffc9a760e01b8114801561034f575b60209150610327565b506000526004602052602060ff60406000205416610346565b346102ea5760003660031901126102ea576006546040516001600160a01b039091168152602090f35b600435906001600160a01b03821682036102ea57565b602435906001600160a01b03821682036102ea57565b346102ea5760203660031901126102ea576103ef6103d9610391565b6103ea6103e5336112fc565b61196a565b6115ce565b005b346102ea5760203660031901126102ea5760043560005260056020526020600160406000200154604051908152f35b346102ea5760203660031901126102ea57602060ff610464610440610391565b600080526005845260406000209060018060a01b0316600052602052604060002090565b54166040519015158152f35b346102ea5760203660031901126102ea57610489610391565b6104956103e5336112fc565b600080516020611d23833981519152600081815260056020527f67f351182989509d05df317024ac600e03d0c404c1b07ecdc5d72ea1208a722b54909291906104dd906113ea565b8083526005602090815260408085206001600160a01b0385166000908152925290205460ff161561050c578280f35b8083526005602090815260408085206001600160a01b038516600090815292529020805460ff1916600117905533916001600160a01b0316907f2f8788117e7eff1d82e926ec794901d17c78024a50270940304540a733656f0d8480a438808280f35b346102ea5760403660031901126102ea5760043561058b6103a7565b60009180835260056020526104dd60016040852001546113ea565b346102ea5760003660031901126102ea576103ef33611659565b346102ea5760403660031901126102ea576105d96103a7565b336001600160a01b038216036105f5576103ef90600435611771565b60405162461bcd60e51b815260206004820152602f60248201527f416363657373436f6e74726f6c3a2063616e206f6e6c792072656e6f756e636560448201526e103937b632b9903337b91039b2b63360891b6064820152608490fd5b346102ea5760203660031901126102ea5761066b610391565b336000908152600080516020611d83833981519152602052604081209091906106999060ff905b541661196a565b6001600160a01b0381169081156106fd57828052600160205260408320546106d691906106d1906001600160a01b03168414156119c2565b611c36565b7fbc7cd75a20ee27fd9adebab32041f755214dbc6bffa90cc0225b39da2e5c2d3b8280a280f35b60405162461bcd60e51b815260206004820152600d60248201526c696e707574206973207a65726f60981b6044820152606490fd5b346102ea5760203660031901126102ea5761074b610391565b6107576103e5336112fc565b600080516020611d23833981519152600081815260056020527f67f351182989509d05df317024ac600e03d0c404c1b07ecdc5d72ea1208a722b549092919061079f906113ea565b8083526005602090815260408085206001600160a01b0385166000908152925290205460ff166107cd578280f35b8083526005602090815260408085206001600160a01b038516600090815292529020805460ff1916905533916001600160a01b031690600080516020611d638339815191528480a438808280f35b346102ea5760403660031901126102ea5767ffffffffffffffff6004358181116102ea57366023820112156102ea5780600401359182116102ea576024810190602436918460051b0101116102ea576108726103a7565b336000908152600080516020611d838339815191526020526040812090939061089d9060ff90610692565b80156109bf576108d36108ce6108c784959460018060a01b03166000526002602052604060002090565b5460ff1690565b6119fa565b6001600160a01b03928084169290855b8381106108ee578680f35b8061093e868861093661092961091061090b6109ba988c8c611a55565b611a65565b63ffffffff60e01b166000526003602052604060002090565b546001600160a01b031690565b161415611a6f565b6109728361095361091061090b858a8a611a55565b80546001600160a01b0319166001600160a01b03909216919091179055565b8561099161098461090b848989611a55565b6001600160e01b03191690565b7f14ebc1c32aa68f4d766e89f3e546cee249f7df25183fc10ab1568d91c2ce9b7b8a80a3611a46565b6108e3565b606460405162461bcd60e51b815260206004820152602060248201527f50726f78793a205f73656c6563746f727327732073697a65206973207a65726f6044820152fd5b346102ea5760203660031901126102ea57600435610a20816102d8565b63ffffffff60e01b166000526003602052602060018060a01b0360406000205416604051908152f35b346102ea5760203660031901126102ea576001600160a01b03610a6a610391565b166000526002602052602060ff604060002054166040519015158152f35b346102ea57600080600319360112610ab95780806020925260018252604060018060a01b0391205416604051908152f35b80fd5b346102ea5760403660031901126102ea57610ad5610391565b60243580151581036102ea57336000908152600080516020611d83833981519152602052604090206103ef9290610b0e9060ff90610692565b611cce565b346102ea5760003660031901126102ea57602060ff600054166040519015158152f35b346102ea5760003660031901126102ea576020604051600080516020611d438339815191528152f35b346102ea5760003660031901126102ea576007546040516001600160a01b039091168152602090f35b346102ea5760203660031901126102ea57610ba1610391565b610bad6103e5336112fc565b600080805260056020527f05b8ccbb9d4d8fb16ea74ce3c29a41f1b461fbdaff4714a0d9a8eb05499746bd54909190610be5906113ea565b8180526005602090815260408084206001600160a01b0384166000908152925290205460ff1615610c14575080f35b8180526005602090815260408084206001600160a01b038416600090815292529020805460ff1916600117905533906001600160a01b0316827f2f8788117e7eff1d82e926ec794901d17c78024a50270940304540a733656f0d8180a480f35b346102ea5760003660031901126102ea57610c916103e5336112fc565b6103ef336115ce565b346102ea5760203660031901126102ea57610cb3610391565b610cbf6103e5336112fc565b6001600160a01b0381168015610d1c573314610cde57610c9190611327565b60405162461bcd60e51b815260206004820152601660248201527520b1b1b2b9b9b4b136329d1039b0b6b29030b236b4b760511b6044820152606490fd5b60405162461bcd60e51b815260206004820152601860248201527f41636365737369626c653a207a65726f206164647265737300000000000000006044820152606490fd5b346102ea5760203660031901126102ea576004358015158091036102ea57336000908152600080516020611d8383398151915260205260408120909190610daa9060ff90610692565b60ff8019835416911617815580f35b346102ea5760603660031901126102ea57610dd2610391565b6044359081151582036102ea57336000908152600080516020611d8383398151915260205260408120909290610e0a9060ff90610692565b813b15610e4e57610e1f9181610e2257611cce565b80f35b602435845260016020526040842080546001600160a01b0319166001600160a01b038316179055611cce565b60405162461bcd60e51b815260206004820152601b60248201527f50726f78793a206e6f7420636f6e7472616374206164647265737300000000006044820152606490fd5b346102ea5760203660031901126102ea57602060ff610464610eb3610391565b600080516020611d438339815191526000526005845260406000209060018060a01b0316600052602052604060002090565b346102ea5760203660031901126102ea576004356000526001602052602060018060a01b0360406000205416604051908152f35b346102ea5760203660031901126102ea576103ef610f35610391565b610f416103e5336112fc565b611659565b346102ea5760203660031901126102ea576020610f6d600435610f68816102d8565b611abb565b6040516001600160a01b039091168152f35b346102ea57600080600319360112610ab957808052600560209081526040918290203360009081529082529190912060ff90610464565b346102ea5760403660031901126102ea57602060ff610464610fd66103a7565b6004356000526005845260406000209060018060a01b0316600052602052604060002090565b346102ea5760003660031901126102ea57602060405160008152f35b346102ea5760203660031901126102ea576001600160a01b03611039610391565b16600052600b602052602060ff604060002054166040519015158152f35b346102ea5760203660031901126102ea576103ef611073610391565b61107f6103e5336112fc565b61170f565b346102ea5760203660031901126102ea576001600160a01b036110a5610391565b16600052600a602052602060ff604060002054166040519015158152f35b346102ea5760203660031901126102ea576110dc610391565b6110e86103e5336112fc565b600080516020611d43833981519152600081815260056020527f495d3ec9f3ad8ec6f8443b0a39852d56b07f6b1efbf2c51564addb326b83978754909291906104dd906113ea565b346102ea5760003660031901126102ea576008546040516001600160a01b039091168152602090f35b346102ea5760203660031901126102ea57611172610391565b61117e6103e5336112fc565b600080516020611d43833981519152600081815260056020527f495d3ec9f3ad8ec6f8443b0a39852d56b07f6b1efbf2c51564addb326b839787549092919061079f906113ea565b346102ea5760403660031901126102ea576103ef6004356111e56103a7565b908060005260056020526112006001604060002001546113ea565b611771565b346102ea5760003660031901126102ea576020604051600080516020611d238339815191528152f35b346102ea5760203660031901126102ea576001600160a01b0361124f610391565b166000526009602052602060ff60406000205416604051908152f35b346102ea5760203660031901126102ea57611284610391565b610cb36103e5336112fc565b346102ea5760203660031901126102ea57602060ff6104646112b0610391565b600080516020611d238339815191526000526005845260406000209060018060a01b0316600052602052604060002090565b346102ea5760003660031901126102ea576103ef3361170f565b6001600160a01b03166000908152600080516020611d83833981519152602052604090205460ff1690565b600080805260056020527f05b8ccbb9d4d8fb16ea74ce3c29a41f1b461fbdaff4714a0d9a8eb05499746bd5461135c906113ea565b8080526005602090815260408083206001600160a01b0385166000908152925290205460ff161561138b575050565b8080526005602090815260408083206001600160a01b038516600090815292529020805460ff1916600117905533916001600160a01b0316907f2f8788117e7eff1d82e926ec794901d17c78024a50270940304540a733656f0d8180a4565b600081815260056020908152604080832033845290915290205460ff161561140f5750565b3390611419611808565b9160306114258461184b565b53607861143184611858565b5360295b600181116114e4576114e061149d6114c8866114ba61145d88611458891561188b565b6118d6565b611497604051958694611497602087016017907f416363657373436f6e74726f6c3a206163636f756e742000000000000000000081520190565b9061154e565b7001034b99036b4b9b9b4b733903937b6329607d1b815260110190565b03601f19810183528261157b565b60405162461bcd60e51b8152918291600483016115a2565b0390fd5b90600f811690601082101561152657611521916f181899199a1a9b1b9c1cb0b131b232b360811b901a6115178487611868565b5360041c91611879565b611435565b611835565b60005b83811061153e5750506000910152565b818101518382015260200161152e565b906115616020928281519485920161152b565b0190565b634e487b7160e01b600052604160045260246000fd5b90601f8019910116810190811067ffffffffffffffff82111761159d57604052565b611565565b604091602082526115c2815180928160208601526020868601910161152b565b601f01601f1916010190565b6001600160a01b0381163381036105f5576001600160a01b0382166000908152600080516020611d83833981519152602052604081205490929060ff1661161457505050565b61163b908380526005602052604084209060018060a01b0316600052602052604060002090565b805460ff191690553391600080516020611d638339815191528180a4565b6001600160a01b0381163381036105f5576001600160a01b03821660009081527f495d3ec9f3ad8ec6f8443b0a39852d56b07f6b1efbf2c51564addb326b839786602052604081209092600080516020611d438339815191529160ff905b54166116c4575b50505050565b6116eb908285526005602052604085209060018060a01b0316600052602052604060002090565b60ff198154169055600080516020611d63833981519152339380a4388080806116be565b6001600160a01b0381163381036105f5576001600160a01b03821660009081527f67f351182989509d05df317024ac600e03d0c404c1b07ecdc5d72ea1208a722a602052604081209092600080516020611d238339815191529160ff906116b7565b600090808252600560205260ff61179d84604085209060018060a01b0316600052602052604060002090565b54166117a857505050565b8082526005602090815260408084206001600160a01b038616600090815292529020805460ff1916905533926001600160a01b031691600080516020611d638339815191529080a4565b634e487b7160e01b600052601160045260246000fd5b604051906060820182811067ffffffffffffffff82111761159d57604052602a8252604082602036910137565b634e487b7160e01b600052603260045260246000fd5b8051156115265760200190565b8051600110156115265760210190565b908151811015611526570160200190565b8015611886576000190190565b6117f2565b1561189257565b606460405162461bcd60e51b815260206004820152602060248201527f537472696e67733a20686578206c656e67746820696e73756666696369656e746044820152fd5b604051906080820182811067ffffffffffffffff82111761159d57604052604282526060366020840137603061190b8361184b565b53607861191783611858565b536041905b600182116119325761192f91501561188b565b90565b600f811690601082101561152657611964916f181899199a1a9b1b9c1cb0b131b232b360811b901a6115178486611868565b9061191c565b1561197157565b60405162461bcd60e51b815260206004820152602360248201527f41757468436f6e74726f6c3a2043616c6c6572206973206e6f7420616e20616460448201526236b4b760e91b6064820152608490fd5b156119c957565b60405162461bcd60e51b815260206004820152600960248201526839b0b6b29030b2323960b91b6044820152606490fd5b15611a0157565b60405162461bcd60e51b815260206004820152601860248201527f50726f78793a205f696d70206973206e6f7420616c69766500000000000000006044820152606490fd5b60001981146118865760010190565b91908110156115265760051b0190565b3561192f816102d8565b15611a7657565b60405162461bcd60e51b815260206004820152601d60248201527f4c69717569646974795661756c7450726f78793a2073616d6520696d700000006044820152606490fd5b6001600160e01b0319166000908152600360205260409020546001600160a01b0390811680611b1457506000805260016020527fa6eef7e35abe7026729641147f7915573c7e97b47efa546f5f6e3230263bcb49541690565b80600052600260205260ff60406000205416611b5a57506000805260016020527fa6eef7e35abe7026729641147f7915573c7e97b47efa546f5f6e3230263bcb49541690565b905090565b60405162461bcd60e51b815260206004820152601460248201527331b0b73737ba103932b1b2b4bb329022ba3432b960611b6044820152606490fd5b6000611bb181356001600160e01b031916611abb565b6001600160a01b038116151580611c2a575b15611be557818091368280378136915af43d82803e15611be1573d90f35b3d90fd5b60405162461bcd60e51b815260206004820152601d60248201527f50726f78793a20696d706c204f522070726f78792069732066616c73650000006044820152606490fd5b5060ff82541615611bc3565b803b15610e4e576000805260016020527fa6eef7e35abe7026729641147f7915573c7e97b47efa546f5f6e3230263bcb4980546001600160a01b0319166001600160a01b03831617905560018060a01b03168060005260026020526040600020600160ff198254161790557f72558d9bfba4210f9ef095c782589484151f6d90f7a81bb3cb9b33efc695d324602060405160018152a2565b60207f72558d9bfba4210f9ef095c782589484151f6d90f7a81bb3cb9b33efc695d3249160018060a01b031692836000526002825260406000209015159060ff1981541660ff8316179055604051908152a256feaf290d8680820aad922855f39b306097b20e28774d6c1ad35a20325630c3a02c12090aa55130d5a2442eb84fc286ca6e600db6c50b6c5d9b6d0d929f0e2d8ce8f6391f5c32d9c69d2a47ea670b442974b53935d1edc7fd64eb21e047a839171b05b8ccbb9d4d8fb16ea74ce3c29a41f1b461fbdaff4714a0d9a8eb05499746bca164736f6c6343000812000a",
  "linkReferences": {},
  "deployedLinkReferences": {}
}