{
  "_format": "hh-sol-artifact-1",
  "contractName": "L2RegistryV1_1",
  "sourceName": "contracts/layer2/L2RegistryV1_1.sol",
  "abi": [
    {
      "inputs": [],
      "stateMutability": "nonpayable",
      "type": "constructor"
    },
    {
      "anonymous": false,
      "inputs": [
        {
          "indexed": false,
          "internalType": "address",
          "name": "systemConfig",
          "type": "address"
        },
        {
          "indexed": false,
          "internalType": "uint8",
          "name": "type_",
          "type": "uint8"
        }
      ],
      "name": "ChangedType",
      "type": "event"
    },
    {
      "anonymous": false,
      "inputs": [
        {
          "indexed": false,
          "internalType": "address",
          "name": "systemConfig",
          "type": "address"
        },
        {
          "indexed": false,
          "internalType": "uint8",
          "name": "type_",
          "type": "uint8"
        }
      ],
      "name": "RegisteredSystemConfig",
      "type": "event"
    },
    {
      "anonymous": false,
      "inputs": [
        {
          "indexed": false,
          "internalType": "address",
          "name": "_systemConfig",
          "type": "address"
        }
      ],
      "name": "RejectedLayer2Candidate",
      "type": "event"
    },
    {
      "anonymous": false,
      "inputs": [
        {
          "indexed": false,
          "internalType": "address",
          "name": "_systemConfig",
          "type": "address"
        }
      ],
      "name": "RestoredLayer2Candidate",
      "type": "event"
    },
    {
      "anonymous": false,
      "inputs": [
        {
          "indexed": true,
          "internalType": "bytes32",
          "name": "role",
          "type": "bytes32"
        },
        {
          "indexed": true,
          "internalType": "bytes32",
          "name": "previousAdminRole",
          "type": "bytes32"
        },
        {
          "indexed": true,
          "internalType": "bytes32",
          "name": "newAdminRole",
          "type": "bytes32"
        }
      ],
      "name": "RoleAdminChanged",
      "type": "event"
    },
    {
      "anonymous": false,
      "inputs": [
        {
          "indexed": true,
          "internalType": "bytes32",
          "name": "role",
          "type": "bytes32"
        },
        {
          "indexed": true,
          "internalType": "address",
          "name": "account",
          "type": "address"
        },
        {
          "indexed": true,
          "internalType": "address",
          "name": "sender",
          "type": "address"
        }
      ],
      "name": "RoleGranted",
      "type": "event"
    },
    {
      "anonymous": false,
      "inputs": [
        {
          "indexed": true,
          "internalType": "bytes32",
          "name": "role",
          "type": "bytes32"
        },
        {
          "indexed": true,
          "internalType": "address",
          "name": "account",
          "type": "address"
        },
        {
          "indexed": true,
          "internalType": "address",
          "name": "sender",
          "type": "address"
        }
      ],
      "name": "RoleRevoked",
      "type": "event"
    },
    {
      "anonymous": false,
      "inputs": [
        {
          "indexed": false,
          "internalType": "address",
          "name": "_layer2Manager",
          "type": "address"
        },
        {
          "indexed": false,
          "internalType": "address",
          "name": "_seigManager",
          "type": "address"
        },
        {
          "indexed": false,
          "internalType": "address",
          "name": "_ton",
          "type": "address"
        }
      ],
      "name": "SetAddresses",
      "type": "event"
    },
    {
      "anonymous": false,
      "inputs": [
        {
          "indexed": false,
          "internalType": "address",
          "name": "_seigniorageCommittee",
          "type": "address"
        }
      ],
      "name": "SetSeigniorageCommittee",
      "type": "event"
    },
    {
      "inputs": [],
      "name": "DEFAULT_ADMIN_ROLE",
      "outputs": [
        {
          "internalType": "bytes32",
          "name": "",
          "type": "bytes32"
        }
      ],
      "stateMutability": "view",
      "type": "function"
    },
    {
      "inputs": [],
      "name": "MANAGER_ROLE",
      "outputs": [
        {
          "internalType": "bytes32",
          "name": "",
          "type": "bytes32"
        }
      ],
      "stateMutability": "view",
      "type": "function"
    },
    {
      "inputs": [],
      "name": "REGISTRANT_ROLE",
      "outputs": [
        {
          "internalType": "bytes32",
          "name": "",
          "type": "bytes32"
        }
      ],
      "stateMutability": "view",
      "type": "function"
    },
    {
      "inputs": [
        {
          "internalType": "address",
          "name": "account",
          "type": "address"
        }
      ],
      "name": "addAdmin",
      "outputs": [],
      "stateMutability": "nonpayable",
      "type": "function"
    },
    {
      "inputs": [
        {
          "internalType": "address",
          "name": "account",
          "type": "address"
        }
      ],
      "name": "addManager",
      "outputs": [],
      "stateMutability": "nonpayable",
      "type": "function"
    },
    {
      "inputs": [
        {
          "internalType": "address",
          "name": "account",
          "type": "address"
        }
      ],
      "name": "addRegistrant",
      "outputs": [],
      "stateMutability": "nonpayable",
      "type": "function"
    },
    {
      "inputs": [
        {
          "internalType": "address",
          "name": "",
          "type": "address"
        }
      ],
      "name": "aliveImplementation",
      "outputs": [
        {
          "internalType": "bool",
          "name": "",
          "type": "bool"
        }
      ],
      "stateMutability": "view",
      "type": "function"
    },
    {
      "inputs": [
        {
          "internalType": "address",
          "name": "_systemConfig",
          "type": "address"
        },
        {
          "internalType": "uint8",
          "name": "_type",
          "type": "uint8"
        }
      ],
      "name": "availableForRegistration",
      "outputs": [
        {
          "internalType": "bool",
          "name": "valid",
          "type": "bool"
        }
      ],
      "stateMutability": "view",
      "type": "function"
    },
    {
      "inputs": [
        {
          "internalType": "address",
          "name": "_systemConfig",
          "type": "address"
        },
        {
          "internalType": "uint8",
          "name": "_type",
          "type": "uint8"
        }
      ],
      "name": "changeType",
      "outputs": [],
      "stateMutability": "nonpayable",
      "type": "function"
    },
    {
      "inputs": [
        {
          "internalType": "bytes32",
          "name": "role",
          "type": "bytes32"
        }
      ],
      "name": "getRoleAdmin",
      "outputs": [
        {
          "internalType": "bytes32",
          "name": "",
          "type": "bytes32"
        }
      ],
      "stateMutability": "view",
      "type": "function"
    },
    {
      "inputs": [
        {
          "internalType": "bytes32",
          "name": "role",
          "type": "bytes32"
        },
        {
          "internalType": "address",
          "name": "account",
          "type": "address"
        }
      ],
      "name": "grantRole",
      "outputs": [],
      "stateMutability": "nonpayable",
      "type": "function"
    },
    {
      "inputs": [
        {
          "internalType": "bytes32",
          "name": "role",
          "type": "bytes32"
        },
        {
          "internalType": "address",
          "name": "account",
          "type": "address"
        }
      ],
      "name": "hasRole",
      "outputs": [
        {
          "internalType": "bool",
          "name": "",
          "type": "bool"
        }
      ],
      "stateMutability": "view",
      "type": "function"
    },
    {
      "inputs": [
        {
          "internalType": "address",
          "name": "account",
          "type": "address"
        }
      ],
      "name": "isAdmin",
      "outputs": [
        {
          "internalType": "bool",
          "name": "",
          "type": "bool"
        }
      ],
      "stateMutability": "view",
      "type": "function"
    },
    {
      "inputs": [
        {
          "internalType": "address",
          "name": "account",
          "type": "address"
        }
      ],
      "name": "isManager",
      "outputs": [
        {
          "internalType": "bool",
          "name": "",
          "type": "bool"
        }
      ],
      "stateMutability": "view",
      "type": "function"
    },
    {
      "inputs": [],
      "name": "isOwner",
      "outputs": [
        {
          "internalType": "bool",
          "name": "",
          "type": "bool"
        }
      ],
      "stateMutability": "view",
      "type": "function"
    },
    {
      "inputs": [
        {
          "internalType": "address",
          "name": "account",
          "type": "address"
        }
      ],
      "name": "isRegistrant",
      "outputs": [
        {
          "internalType": "bool",
          "name": "",
          "type": "bool"
        }
      ],
      "stateMutability": "view",
      "type": "function"
    },
    {
      "inputs": [
        {
          "internalType": "address",
          "name": "",
          "type": "address"
        }
      ],
      "name": "l1Bridge",
      "outputs": [
        {
          "internalType": "bool",
          "name": "",
          "type": "bool"
        }
      ],
      "stateMutability": "view",
      "type": "function"
    },
    {
      "inputs": [],
      "name": "layer2Manager",
      "outputs": [
        {
          "internalType": "address",
          "name": "",
          "type": "address"
        }
      ],
      "stateMutability": "view",
      "type": "function"
    },
    {
      "inputs": [
        {
          "internalType": "address",
          "name": "_systemConfig",
          "type": "address"
        }
      ],
      "name": "layer2TVL",
      "outputs": [
        {
          "internalType": "uint256",
          "name": "amount",
          "type": "uint256"
        }
      ],
      "stateMutability": "view",
      "type": "function"
    },
    {
      "inputs": [],
      "name": "pauseProxy",
      "outputs": [
        {
          "internalType": "bool",
          "name": "",
          "type": "bool"
        }
      ],
      "stateMutability": "view",
      "type": "function"
    },
    {
      "inputs": [
        {
          "internalType": "address",
          "name": "",
          "type": "address"
        }
      ],
      "name": "portal",
      "outputs": [
        {
          "internalType": "bool",
          "name": "",
          "type": "bool"
        }
      ],
      "stateMutability": "view",
      "type": "function"
    },
    {
      "inputs": [
        {
          "internalType": "uint256",
          "name": "",
          "type": "uint256"
        }
      ],
      "name": "proxyImplementation",
      "outputs": [
        {
          "internalType": "address",
          "name": "",
          "type": "address"
        }
      ],
      "stateMutability": "view",
      "type": "function"
    },
    {
      "inputs": [
        {
          "internalType": "address",
          "name": "_systemConfig",
          "type": "address"
        },
        {
          "internalType": "uint8",
          "name": "_type",
          "type": "uint8"
        }
      ],
      "name": "registerSystemConfig",
      "outputs": [],
      "stateMutability": "nonpayable",
      "type": "function"
    },
    {
      "inputs": [
        {
          "internalType": "address",
          "name": "_systemConfig",
          "type": "address"
        },
        {
          "internalType": "uint8",
          "name": "_type",
          "type": "uint8"
        }
      ],
      "name": "registerSystemConfigByManager",
      "outputs": [],
      "stateMutability": "nonpayable",
      "type": "function"
    },
    {
      "inputs": [
        {
          "internalType": "address",
          "name": "_systemConfig",
          "type": "address"
        }
      ],
      "name": "rejectLayer2Candidate",
      "outputs": [],
      "stateMutability": "nonpayable",
      "type": "function"
    },
    {
      "inputs": [
        {
          "internalType": "address",
          "name": "",
          "type": "address"
        }
      ],
      "name": "rejectSystemConfig",
      "outputs": [
        {
          "internalType": "bool",
          "name": "",
          "type": "bool"
        }
      ],
      "stateMutability": "view",
      "type": "function"
    },
    {
      "inputs": [
        {
          "internalType": "address",
          "name": "account",
          "type": "address"
        }
      ],
      "name": "removeAdmin",
      "outputs": [],
      "stateMutability": "nonpayable",
      "type": "function"
    },
    {
      "inputs": [
        {
          "internalType": "address",
          "name": "account",
          "type": "address"
        }
      ],
      "name": "removeManager",
      "outputs": [],
      "stateMutability": "nonpayable",
      "type": "function"
    },
    {
      "inputs": [
        {
          "internalType": "address",
          "name": "account",
          "type": "address"
        }
      ],
      "name": "removeRegistrant",
      "outputs": [],
      "stateMutability": "nonpayable",
      "type": "function"
    },
    {
      "inputs": [],
      "name": "renounceManager",
      "outputs": [],
      "stateMutability": "nonpayable",
      "type": "function"
    },
    {
      "inputs": [],
      "name": "renounceOwnership",
      "outputs": [],
      "stateMutability": "nonpayable",
      "type": "function"
    },
    {
      "inputs": [],
      "name": "renounceRegistrant",
      "outputs": [],
      "stateMutability": "nonpayable",
      "type": "function"
    },
    {
      "inputs": [
        {
          "internalType": "bytes32",
          "name": "role",
          "type": "bytes32"
        },
        {
          "internalType": "address",
          "name": "account",
          "type": "address"
        }
      ],
      "name": "renounceRole",
      "outputs": [],
      "stateMutability": "nonpayable",
      "type": "function"
    },
    {
      "inputs": [
        {
          "internalType": "address",
          "name": "_systemConfig",
          "type": "address"
        }
      ],
      "name": "restoreLayer2Candidate",
      "outputs": [],
      "stateMutability": "nonpayable",
      "type": "function"
    },
    {
      "inputs": [
        {
          "internalType": "address",
          "name": "account",
          "type": "address"
        }
      ],
      "name": "revokeManager",
      "outputs": [],
      "stateMutability": "nonpayable",
      "type": "function"
    },
    {
      "inputs": [
        {
          "internalType": "address",
          "name": "account",
          "type": "address"
        }
      ],
      "name": "revokeRegistrant",
      "outputs": [],
      "stateMutability": "nonpayable",
      "type": "function"
    },
    {
      "inputs": [
        {
          "internalType": "bytes32",
          "name": "role",
          "type": "bytes32"
        },
        {
          "internalType": "address",
          "name": "account",
          "type": "address"
        }
      ],
      "name": "revokeRole",
      "outputs": [],
      "stateMutability": "nonpayable",
      "type": "function"
    },
    {
      "inputs": [],
      "name": "seigManager",
      "outputs": [
        {
          "internalType": "address",
          "name": "",
          "type": "address"
        }
      ],
      "stateMutability": "view",
      "type": "function"
    },
    {
      "inputs": [],
      "name": "seigniorageCommittee",
      "outputs": [
        {
          "internalType": "address",
          "name": "",
          "type": "address"
        }
      ],
      "stateMutability": "view",
      "type": "function"
    },
    {
      "inputs": [
        {
          "internalType": "bytes4",
          "name": "",
          "type": "bytes4"
        }
      ],
      "name": "selectorImplementation",
      "outputs": [
        {
          "internalType": "address",
          "name": "",
          "type": "address"
        }
      ],
      "stateMutability": "view",
      "type": "function"
    },
    {
      "inputs": [
        {
          "internalType": "address",
          "name": "_layer2Manager",
          "type": "address"
        },
        {
          "internalType": "address",
          "name": "_seigManager",
          "type": "address"
        },
        {
          "internalType": "address",
          "name": "_ton",
          "type": "address"
        }
      ],
      "name": "setAddresses",
      "outputs": [],
      "stateMutability": "nonpayable",
      "type": "function"
    },
    {
      "inputs": [
        {
          "internalType": "address",
          "name": "_seigniorageCommittee",
          "type": "address"
        }
      ],
      "name": "setSeigniorageCommittee",
      "outputs": [],
      "stateMutability": "nonpayable",
      "type": "function"
    },
    {
      "inputs": [
        {
          "internalType": "bytes4",
          "name": "interfaceId",
          "type": "bytes4"
        }
      ],
      "name": "supportsInterface",
      "outputs": [
        {
          "internalType": "bool",
          "name": "",
          "type": "bool"
        }
      ],
      "stateMutability": "view",
      "type": "function"
    },
    {
      "inputs": [
        {
          "internalType": "address",
          "name": "",
          "type": "address"
        }
      ],
      "name": "systemConfigType",
      "outputs": [
        {
          "internalType": "uint8",
          "name": "",
          "type": "uint8"
        }
      ],
      "stateMutability": "view",
      "type": "function"
    },
    {
      "inputs": [],
      "name": "ton",
      "outputs": [
        {
          "internalType": "address",
          "name": "",
          "type": "address"
        }
      ],
      "stateMutability": "view",
      "type": "function"
    },
    {
      "inputs": [
        {
          "internalType": "address",
          "name": "newAdmin",
          "type": "address"
        }
      ],
      "name": "transferAdmin",
      "outputs": [],
      "stateMutability": "nonpayable",
      "type": "function"
    },
    {
      "inputs": [
        {
          "internalType": "address",
          "name": "newAdmin",
          "type": "address"
        }
      ],
      "name": "transferOwnership",
      "outputs": [],
      "stateMutability": "nonpayable",
      "type": "function"
    }
  ],
  "bytecode": "0x608080604052346100165761237e908161001c8239f35b600080fdfe60806040908082526004918236101561001757600080fd5b600092833560e01c92836301ffc9a71461160c5750826309b6600714611576578263107c142d1461143057826316b5d5bd146114075782631785f53c146113d95782631c56498514611354578263248a9ca31461132857826324d7806c146112e25782632d06177a1461122f5782632f2ff15d1461119357826335556fe31461117957826335583e6c14611150578263363bf9641461106957826336568abe14610fd8578263377e32e614610f295782634cb92d6614610de057826350d2a27614610d9b578263550d01a314610d5d57826363a8fd8914610d3b5782636f5b142b14610d125782636fb7f55814610ce95782637048027514610c42578263715018a614610c1c57826375829def14610c0057826376abdbb414610aec57826386ad05b614610a9757826386be93e314610a5957826388fd8a9114610a0e5782638cfc9347146109e05782638f32d59b146109ab57826391d1485414610964578263a217fddf14610949578263a2cc09791461090b578263ac18de43146108dd578263b30347c01461089f578263b911135f1461086b578263bbfcfc1e146107b4578263c81ae6db14610594578263c87957e71461056f578263cc48b94714610546578263d00491c614610490578263d547741f14610455578263ec87621c1461042c578263f1b538b2146103f0578263f2fde38b146102a457508163f3ae24151461024b575063f8b91abe1461022c57600080fd5b3461024857806003193601126102485761024533611c4d565b80f35b80fd5b9050346102a05760203660031901126102a0576020918161026a61168c565b91600080516020612312833981519152815260058552209060018060a01b0316600052825260ff81600020541690519015158152f35b5080fd5b9150346103ec576020806003193601126103e8576102c061168c565b6102d16102cc336116e8565b611d02565b6102dd6102cc336116e8565b6001600160a01b03169283156103a75783331461036d57508380526005815261030b60018386200154611725565b8380526005815281842083600052815260ff82600020541615610333575b8361024533611ae0565b838052600581528184206000848152915220805460ff191660011790553390826000805160206122f28339815191528180a4388080610329565b915162461bcd60e51b815291820152601660248201527520b1b1b2b9b9b4b136329d1039b0b6b29030b236b4b760511b6044820152606490fd5b915162461bcd60e51b815291820152601860248201527f41636365737369626c653a207a65726f206164647265737300000000000000006044820152606490fd5b8380fd5b8280fd5b8382346102a05760203660031901126102a05760209160ff9082906001600160a01b0361041b61168c565b168152600985522054169051908152f35b8382346102a057816003193601126102a057602090516000805160206123128339815191528152f35b9150346103ec57806003193601126103ec57610245913561048b60016104796116a2565b93838752600560205286200154611725565b611caa565b8382346102a057602090816003193601126103ec576104ad61168c565b906104ba6102cc336116e8565b60008051602061233283398151915292838552600581526104e060018387200154611725565b6000848152600582528281206001600160a01b039094168082529382528290205460ff1661050c578480f35b83600052600581528160002090836000525260002060ff1981541690553391600080516020612352833981519152600080a4818080808480f35b8382346102a057816003193601126102a05760085490516001600160a01b039091168152602090f35b8382346102a05760209061058b610585366116b8565b90612157565b90519015158152f35b9150346103ec5760209283600319360112610248576105b161168c565b928193818660018060a01b038093168086526009825260ff8787205416600181146000146106d35750865163078f29cf60e01b815292839182905afa9081156106c9579180918893869161069c575b501690818552600a835260ff8686205416610622575b50505050505b51908152f35b6024919293949596506008541693865194859384926370a0823160e01b84528301525afa918215610691579161065f575b50903880848180610616565b90508281813d831161068a575b6106768183611abe565b81010312610685575138610653565b600080fd5b503d61066c565b8351903d90823e3d90fd5b6106bc9150843d86116106c2575b6106b48183611abe565b810190612138565b38610600565b503d6106aa565b85513d86823e3d90fd5b6002919350146106e8575b505050505061061c565b8551630a49cb0360e01b8152918290859082905afa9081156106c95791809188938691610797575b501690818552600b835260ff868620541661072d575b50816106de565b6024919293949596506008541693865194859384926370a0823160e01b84528301525afa918215610691579161076a575b50903880848180610726565b90508281813d8311610790575b6107818183611abe565b8101031261068557513861075e565b503d610777565b6107ae9150843d86116106c2576106b48183611abe565b38610710565b8382346102a057602090816003193601126103ec576107d161168c565b906107de6102cc336116e8565b600080516020612332833981519152928385526005815261080460018387200154611725565b838552600581528185206001600160a01b039093166000818152938252928290205460ff1615610832578480f35b838552600581528185206000848152915220805460ff1916600117905533916000805160206122f28339815191528480a4818080808480f35b909150346103ec5760203660031901126103ec5735825260016020908152918190205490516001600160a01b039091168152f35b8382346102a05760203660031901126102a05760209160ff9082906001600160a01b036108ca61168c565b168152600a855220541690519015158152f35b8334610248576020366003190112610248576102456108fa61168c565b6109066102cc336116e8565b611c4d565b8382346102a05760203660031901126102a05760209160ff9082906001600160a01b0361093661168c565b168152600b855220541690519015158152f35b8382346102a057816003193601126102a05751908152602090f35b909150346103ec57816003193601126103ec57816020936109836116a2565b9235815260058552209060018060a01b0316600052825260ff81600020541690519015158152f35b8382346102a057816003193601126102a05780828060209452600584522033600052825260ff81600020541690519015158152f35b8334610248576020366003190112610248576102456109fd61168c565b610a096102cc336116e8565b611bbd565b8382346102a05760ff61024591610a54610a27366116b8565b939092600080516020612332833981519152875260056020528087203360005260205260002054166120dc565b611e23565b8382346102a05760203660031901126102a05760209160ff9082906001600160a01b03610a8461168c565b168152600c855220541690519015158152f35b8382346102a05760203660031901126102a05760209181610ab661168c565b91600080516020612332833981519152815260058552209060018060a01b0316600052825260ff81600020541690519015158152f35b9150346103ec5760203660031901126103ec57610b0761168c565b600d546001600160a01b0393918491610b239083163314611d95565b1692838552600c60205260ff838620541615610bce57838552600c602052828520805460ff191690556006548592911690813b156103ec57846024849283875195869485936362f47f2b60e01b85528401525af18015610bc457610bb0575b507fde4e4e86be659a4d349b01a64a310bdb59a2ea51257509607aec9e88fcaafc666020848451908152a180f35b610bb990611a94565b6103ec578238610b82565b83513d84823e3d90fd5b506020606492519162461bcd60e51b8352820152600c60248201526b1b9bdd081c995a9958dd195960a21b6044820152fd5b9150346103ec576020806003193601126103e8576102d161168c565b8334610248578060031936011261024857610c396102cc336116e8565b61024533611ae0565b8382346102a057602090816003193601126103ec57610c5f61168c565b91610c6c6102cc336116e8565b83805260058152610c8260018386200154611725565b838052600581528184206001600160a01b039093166000818152938252928290205460ff1615610cb0578380f35b838052600581528184206000848152915220805460ff191660011790553390826000805160206122f28339815191528180a48180808380f35b8382346102a057816003193601126102a05760075490516001600160a01b039091168152602090f35b8382346102a057816003193601126102a057602090516000805160206123328339815191528152f35b8382346102a057816003193601126102a05760ff602092541690519015158152f35b8382346102a05760203660031901126102a05760209160ff9082906001600160a01b03610d8861168c565b1681526002855220541690519015158152f35b909150346103ec5760203660031901126103ec573563ffffffff60e01b81168091036103ec57825260036020908152918190205490516001600160a01b039091168152f35b8390346102a057602090816003193601126103ec57610dfd61168c565b600d546001600160a01b0392918391610e199083163314611d95565b1691828552600c8452610e3260ff878720541615611dec565b8285526009845260ff868620541615610eee57828552600c8452858520805460ff191660011790556006541690813b15610eea5782602486928389519586948593635bb96f8360e01b85528401525af180156106c957610eb9575b507f1312e4b8a5cfabf5c1fdbb2410634308b68d9c1e6a7a3627533749515bb36b0e929351908152a180f35b92610ee47f1312e4b8a5cfabf5c1fdbb2410634308b68d9c1e6a7a3627533749515bb36b0e94611a94565b92610e8d565b8480fd5b855162461bcd60e51b815280830185905260156024820152743737ba103932b3b4b9ba32b932b2103630bcb2b91960591b6044820152606490fd5b8382346102a057602090816003193601126103ec57610f4661168c565b90610f536102cc336116e8565b6000805160206123128339815191529283855260058152610f7960018387200154611725565b838552600581528185206001600160a01b039093168086529281528185205460ff16610fa3578480f35b8385526005815281852083865290528320805460ff1916905533916000805160206123528339815191528480a4818080808480f35b8390346102a057826003193601126102a057610ff26116a2565b90336001600160a01b0383160361100e57906102459135611caa565b608490602085519162461bcd60e51b8352820152602f60248201527f416363657373436f6e74726f6c3a2063616e206f6e6c792072656e6f756e636560448201526e103937b632b9903337b91039b2b63360891b6064820152fd5b8382346102a05760603660031901126102a05761108461168c565b61108c6116a2565b6001600160a01b0392604435848116919082900361114c57847fbbfb274df95bebde0669697bf0d15986b4ad73e11c495ae4e2d08d1bc5c90bad9560609516936110d7851515611d5a565b166110e3811515611d5a565b6110ee831515611d5a565b868052600560205281872033885260205261110e60ff8389205416611d02565b826bffffffffffffffffffffffff60a01b8581600654161760065582816007541617600755600854161760085581519384526020840152820152a180f35b8580fd5b8382346102a057816003193601126102a057600d5490516001600160a01b039091168152602090f35b833461024857806003193601126102485761024533611bbd565b909150346103ec57816003193601126103ec5735906111b06116a2565b9082845260056020526111c860018286200154611725565b828452600560209081528185206001600160a01b039093168086529290528084205460ff16156111f6578380f35b82845260056020528084208285526020528320600160ff1982541617905533916000805160206122f28339815191528480a43880808380f35b8382346102a057602090816003193601126103ec5761124c61168c565b906112596102cc336116e8565b600080516020612312833981519152928385526005815261127f60018387200154611725565b838552600581528185206001600160a01b039093168086529281528185205460ff16156112aa578480f35b8385526005815281852083865290528320805460ff1916600117905533916000805160206122f28339815191528480a4818080808480f35b8382346102a05760203660031901126102a05760ff8160209361130361168c565b818052600586528282206001600160a01b039091168252855220549151911615158152f35b909150346103ec5760203660031901126103ec5781602093600192358152600585522001549051908152f35b8382346102a05760203660031901126102a05760207f1c7847585b331d5fb688c03d1dc8e73e13231744377f3b1e2f5c26e548c621c19161139361168c565b8480526005835281852033865283526113b160ff8387205416611d02565b600d80546001600160a01b0319166001600160a01b039290921691821790559051908152a180f35b8334610248576020366003190112610248576102456113f661168c565b6114026102cc336116e8565b611ae0565b8382346102a057816003193601126102a05760065490516001600160a01b039091168152602090f35b8390346102a057611440366116b8565b916000805160206123328339815191528452602060058152858520338652815261146f60ff87872054166120dc565b6001600160a01b038316808652600c8252868620546114919060ff1615611dec565b8086526009825260ff878720541615611544578086526009825260ff87872054169260ff86168094146115155750855260099052848420805460ff191691909117905592516001600160a01b03909316835260ff166020830152907faaca8c26723d15f66bf805bb082d6ed8661aa808aa167a822cb51bce9ccd73e290604090a180f35b875162461bcd60e51b8152908101839052600960248201526873616d65207479706560b81b6044820152606490fd5b865162461bcd60e51b8152808401839052600c60248201526b1d5b9c9959da5cdd195c995960a21b6044820152606490fd5b8390346102a057611586366116b8565b916000805160206123128339815191528452600560205284842033855260205260ff8585205416156115bd57509061024591611e23565b608490602086519162461bcd60e51b83528201526024808201527f41757468436f6e74726f6c3a2043616c6c6572206973206e6f742061206d616e60448201526330b3b2b960e11b6064820152fd5b925090346103e85760203660031901126103e85781359063ffffffff60e01b8216809203610eea57602094637965db0b60e01b8314938415611653575b5050505015158152f35b6301ffc9a760e01b8414945091929091908415611678575b5050505038808080611649565b60ff9450825285522054163880808061166b565b600435906001600160a01b038216820361068557565b602435906001600160a01b038216820361068557565b6040906003190112610685576004356001600160a01b0381168103610685579060243560ff811681036106855790565b6001600160a01b031660009081527f05b8ccbb9d4d8fb16ea74ce3c29a41f1b461fbdaff4714a0d9a8eb05499746bc602052604090205460ff1690565b60009080825260209060058252604090818420338552835260ff82852054161561174f5750505050565b81519367ffffffffffffffff336060870182811188821017611a5d578552602a87528587019385368637875115611a495760308553875191600192831015611a3557607860218a015360295b8381116119cb5750611989579085519260808401908482109082111761197557865260428352868301936060368637835115611961576030855383518210156119615790607860218501536041915b8183116118f3575050506118b1579261187f604861187097946118a3946044989785519a8b936118478b86019a7f416363657373436f6e74726f6c3a206163636f756e74200000000000000000008c525180926037880190611a71565b8401917001034b99036b4b9b9b4b733903937b6329607d1b603784015251809386840190611a71565b01036028810189520187611abe565b5194859362461bcd60e51b8552600485015251809281602486015285850190611a71565b601f01601f19168101030190fd5b60648585519062461bcd60e51b825280600483015260248201527f537472696e67733a20686578206c656e67746820696e73756666696369656e746044820152fd5b909192600f8116601081101561194d576f181899199a1a9b1b9c1cb0b131b232b360811b901a6119238587611cdb565b5360041c928015611939576000190191906117ea565b634e487b7160e01b82526011600452602482fd5b634e487b7160e01b83526032600452602483fd5b634e487b7160e01b81526032600452602490fd5b634e487b7160e01b85526041600452602485fd5b60648787519062461bcd60e51b825280600483015260248201527f537472696e67733a20686578206c656e67746820696e73756666696369656e746044820152fd5b90600f81166010811015611a21576f181899199a1a9b1b9c1cb0b131b232b360811b901a6119f9838c611cdb565b5360041c908015611a0d576000190161179b565b634e487b7160e01b86526011600452602486fd5b634e487b7160e01b87526032600452602487fd5b634e487b7160e01b85526032600452602485fd5b634e487b7160e01b84526032600452602484fd5b634e487b7160e01b84526041600452602484fd5b60005b838110611a845750506000910152565b8181015183820152602001611a74565b67ffffffffffffffff8111611aa857604052565b634e487b7160e01b600052604160045260246000fd5b90601f8019910116810190811067ffffffffffffffff821117611aa857604052565b6001600160a01b0316338103611b605760008181527f05b8ccbb9d4d8fb16ea74ce3c29a41f1b461fbdaff4714a0d9a8eb05499746bc602052604081205490919060ff16611b2c575050565b8180526005602052604082208183526020526040822060ff19815416905533916000805160206123528339815191528180a4565b60405162461bcd60e51b815260206004820152602f60248201527f416363657373436f6e74726f6c3a2063616e206f6e6c792072656e6f756e636560448201526e103937b632b9903337b91039b2b63360891b6064820152608490fd5b6001600160a01b0316338103611b605760008181527f495d3ec9f3ad8ec6f8443b0a39852d56b07f6b1efbf2c51564addb326b83978660205260408120549091906000805160206123328339815191529060ff16611c1a57505050565b8083526005602052604083208284526020526040832060ff198154169055600080516020612352833981519152339380a4565b6001600160a01b0316338103611b605760008181527f67f351182989509d05df317024ac600e03d0c404c1b07ecdc5d72ea1208a722a60205260408120549091906000805160206123128339815191529060ff16611c1a57505050565b906000918083526005602052604083209160018060a01b03169182845260205260ff604084205416611c1a57505050565b908151811015611cec570160200190565b634e487b7160e01b600052603260045260246000fd5b15611d0957565b60405162461bcd60e51b815260206004820152602360248201527f41757468436f6e74726f6c3a2043616c6c6572206973206e6f7420616e20616460448201526236b4b760e91b6064820152608490fd5b15611d6157565b60405162461bcd60e51b815260206004820152600c60248201526b7a65726f206164647265737360a01b6044820152606490fd5b15611d9c57565b60405162461bcd60e51b815260206004820152602260248201527f73656e646572206973206e6f7420736569676e696f72616765436f6d6d697474604482015261656560f01b6064820152608490fd5b15611df357565b60405162461bcd60e51b81526020600482015260086024820152671c995a9958dd195960c21b6044820152606490fd5b919060018060a01b0392838116936000948086526020600c8152604092611e5060ff858a20541615611dec565b60ff86169260018414938480156120d2575b1561209b57818a526009845260ff868b20541661206257611e838888612157565b1561201e578390828b5260098252868b209560ff19968288825416179055600014611f5a5750855163078f29cf60e01b815291829060049082905afa908115611f505798600a869594600194611f2e98947f79eefea257174230e670ff164aa671d366309ed73293a7d0c422477aeff3e2109c9d8591611f33575b501683525220918254161790555b516001600160a01b03909216825260ff90921660208201529081906040820190565b0390a1565b611f4a9150833d85116106c2576106b48183611abe565b38611efe565b85513d8b823e3d90fd5b6002915014611f95575b505050507f79eefea257174230e670ff164aa671d366309ed73293a7d0c422477aeff3e210939450611f2e90611f0c565b82600491865192838092630a49cb0360e01b82525afa908115611f505798600b869594600194611f2e98947f79eefea257174230e670ff164aa671d366309ed73293a7d0c422477aeff3e2109c9d8591612001575b501683525220918254161790559085943880611f64565b6120189150833d85116106c2576106b48183611abe565b38611fea565b855162461bcd60e51b815260048101859052601c60248201527f756e617661696c61626c6520666f7220726567697374726174696f6e000000006044820152606490fd5b855162461bcd60e51b8152600481018590526012602482015271185b1c9958591e481c9959da5cdd195c995960721b6044820152606490fd5b855162461bcd60e51b815260048101859052601060248201526f756e737570706f72746564207479706560801b6044820152606490fd5b5060028114611e62565b156120e357565b60405162461bcd60e51b815260206004820152602760248201527f41757468436f6e74726f6c3a2043616c6c6572206973206e6f742061207265676044820152661a5cdd1c985b9d60ca1b6064820152608490fd5b9081602091031261068557516001600160a01b03811681036106855790565b9060009060009260018060a01b03809116908185526020600c815260ff9260409284848920541660001461218f575050505050505090565b839495969897935163078f29cf60e01b81528381600481865afa9081156122e75790829186916122ca575b501696876121cd575b5050505050505050565b86166001810361222357505082526009815283838320541615948561220d575b5050505050612204575b38808080808080806121c3565b600191506121f7565b8252600a905220541615905038808080806121ed565b6002919297501461223a575b5050505050506121f7565b8351630a49cb0360e01b815282816004818a5afa9081156106c95784916122ad575b501694851561222f57825260098152838383205416159485612297575b505050505061228e575b38808080808061222f565b60019150612283565b8252600b90522054161590503880808080612279565b6122c49150833d85116106c2576106b48183611abe565b3861225c565b6122e19150853d87116106c2576106b48183611abe565b386121ba565b86513d87823e3d90fdfe2f8788117e7eff1d82e926ec794901d17c78024a50270940304540a733656f0daf290d8680820aad922855f39b306097b20e28774d6c1ad35a20325630c3a02c12090aa55130d5a2442eb84fc286ca6e600db6c50b6c5d9b6d0d929f0e2d8ce8f6391f5c32d9c69d2a47ea670b442974b53935d1edc7fd64eb21e047a839171ba164736f6c6343000813000a",
  "linkReferences": {},
  "deployedLinkReferences": {}
}