{
  "_format": "hh-sol-artifact-1",
  "contractName": "L2RegistryV1_1",
  "sourceName": "contracts/layer2/L2RegistryV1_1.sol",
  "abi": [
    {
      "inputs": [],
      "stateMutability": "nonpayable",
      "type": "constructor"
    },
    {
      "anonymous": false,
      "inputs": [
        {
          "indexed": false,
          "internalType": "address",
          "name": "systemConfig",
          "type": "address"
        },
        {
          "indexed": false,
          "internalType": "uint8",
          "name": "type_",
          "type": "uint8"
        }
      ],
      "name": "ChangedType",
      "type": "event"
    },
    {
      "anonymous": false,
      "inputs": [
        {
          "indexed": false,
          "internalType": "address",
          "name": "systemConfig",
          "type": "address"
        },
        {
          "indexed": false,
          "internalType": "uint8",
          "name": "type_",
          "type": "uint8"
        }
      ],
      "name": "RegisteredSystemConfig",
      "type": "event"
    },
    {
      "anonymous": false,
      "inputs": [
        {
          "indexed": true,
          "internalType": "bytes32",
          "name": "role",
          "type": "bytes32"
        },
        {
          "indexed": true,
          "internalType": "bytes32",
          "name": "previousAdminRole",
          "type": "bytes32"
        },
        {
          "indexed": true,
          "internalType": "bytes32",
          "name": "newAdminRole",
          "type": "bytes32"
        }
      ],
      "name": "RoleAdminChanged",
      "type": "event"
    },
    {
      "anonymous": false,
      "inputs": [
        {
          "indexed": true,
          "internalType": "bytes32",
          "name": "role",
          "type": "bytes32"
        },
        {
          "indexed": true,
          "internalType": "address",
          "name": "account",
          "type": "address"
        },
        {
          "indexed": true,
          "internalType": "address",
          "name": "sender",
          "type": "address"
        }
      ],
      "name": "RoleGranted",
      "type": "event"
    },
    {
      "anonymous": false,
      "inputs": [
        {
          "indexed": true,
          "internalType": "bytes32",
          "name": "role",
          "type": "bytes32"
        },
        {
          "indexed": true,
          "internalType": "address",
          "name": "account",
          "type": "address"
        },
        {
          "indexed": true,
          "internalType": "address",
          "name": "sender",
          "type": "address"
        }
      ],
      "name": "RoleRevoked",
      "type": "event"
    },
    {
      "anonymous": false,
      "inputs": [
        {
          "indexed": false,
          "internalType": "address",
          "name": "_layer2Manager",
          "type": "address"
        },
        {
          "indexed": false,
          "internalType": "address",
          "name": "_seigManager",
          "type": "address"
        },
        {
          "indexed": false,
          "internalType": "address",
          "name": "_ton",
          "type": "address"
        }
      ],
      "name": "SetAddresses",
      "type": "event"
    },
    {
      "inputs": [],
      "name": "DEFAULT_ADMIN_ROLE",
      "outputs": [
        {
          "internalType": "bytes32",
          "name": "",
          "type": "bytes32"
        }
      ],
      "stateMutability": "view",
      "type": "function"
    },
    {
      "inputs": [],
      "name": "MANAGER_ROLE",
      "outputs": [
        {
          "internalType": "bytes32",
          "name": "",
          "type": "bytes32"
        }
      ],
      "stateMutability": "view",
      "type": "function"
    },
    {
      "inputs": [],
      "name": "OPERATOR_ROLE",
      "outputs": [
        {
          "internalType": "bytes32",
          "name": "",
          "type": "bytes32"
        }
      ],
      "stateMutability": "view",
      "type": "function"
    },
    {
      "inputs": [
        {
          "internalType": "address",
          "name": "account",
          "type": "address"
        }
      ],
      "name": "addAdmin",
      "outputs": [],
      "stateMutability": "nonpayable",
      "type": "function"
    },
    {
      "inputs": [
        {
          "internalType": "address",
          "name": "account",
          "type": "address"
        }
      ],
      "name": "addManager",
      "outputs": [],
      "stateMutability": "nonpayable",
      "type": "function"
    },
    {
      "inputs": [
        {
          "internalType": "address",
          "name": "account",
          "type": "address"
        }
      ],
      "name": "addOperator",
      "outputs": [],
      "stateMutability": "nonpayable",
      "type": "function"
    },
    {
      "inputs": [
        {
          "internalType": "address",
          "name": "",
          "type": "address"
        }
      ],
      "name": "aliveImplementation",
      "outputs": [
        {
          "internalType": "bool",
          "name": "",
          "type": "bool"
        }
      ],
      "stateMutability": "view",
      "type": "function"
    },
    {
      "inputs": [
        {
          "internalType": "address",
          "name": "_systemConfig",
          "type": "address"
        },
        {
          "internalType": "uint8",
          "name": "_type",
          "type": "uint8"
        }
      ],
      "name": "availableForRegistration",
      "outputs": [
        {
          "internalType": "bool",
          "name": "valid",
          "type": "bool"
        }
      ],
      "stateMutability": "view",
      "type": "function"
    },
    {
      "inputs": [
        {
          "internalType": "address",
          "name": "_systemConfig",
          "type": "address"
        },
        {
          "internalType": "uint8",
          "name": "_type",
          "type": "uint8"
        }
      ],
      "name": "changeType",
      "outputs": [],
      "stateMutability": "nonpayable",
      "type": "function"
    },
    {
      "inputs": [
        {
          "internalType": "bytes32",
          "name": "role",
          "type": "bytes32"
        }
      ],
      "name": "getRoleAdmin",
      "outputs": [
        {
          "internalType": "bytes32",
          "name": "",
          "type": "bytes32"
        }
      ],
      "stateMutability": "view",
      "type": "function"
    },
    {
      "inputs": [
        {
          "internalType": "bytes32",
          "name": "role",
          "type": "bytes32"
        },
        {
          "internalType": "address",
          "name": "account",
          "type": "address"
        }
      ],
      "name": "grantRole",
      "outputs": [],
      "stateMutability": "nonpayable",
      "type": "function"
    },
    {
      "inputs": [
        {
          "internalType": "bytes32",
          "name": "role",
          "type": "bytes32"
        },
        {
          "internalType": "address",
          "name": "account",
          "type": "address"
        }
      ],
      "name": "hasRole",
      "outputs": [
        {
          "internalType": "bool",
          "name": "",
          "type": "bool"
        }
      ],
      "stateMutability": "view",
      "type": "function"
    },
    {
      "inputs": [
        {
          "internalType": "address",
          "name": "account",
          "type": "address"
        }
      ],
      "name": "isAdmin",
      "outputs": [
        {
          "internalType": "bool",
          "name": "",
          "type": "bool"
        }
      ],
      "stateMutability": "view",
      "type": "function"
    },
    {
      "inputs": [
        {
          "internalType": "address",
          "name": "account",
          "type": "address"
        }
      ],
      "name": "isManager",
      "outputs": [
        {
          "internalType": "bool",
          "name": "",
          "type": "bool"
        }
      ],
      "stateMutability": "view",
      "type": "function"
    },
    {
      "inputs": [
        {
          "internalType": "address",
          "name": "account",
          "type": "address"
        }
      ],
      "name": "isOperator",
      "outputs": [
        {
          "internalType": "bool",
          "name": "",
          "type": "bool"
        }
      ],
      "stateMutability": "view",
      "type": "function"
    },
    {
      "inputs": [],
      "name": "isOwner",
      "outputs": [
        {
          "internalType": "bool",
          "name": "",
          "type": "bool"
        }
      ],
      "stateMutability": "view",
      "type": "function"
    },
    {
      "inputs": [
        {
          "internalType": "address",
          "name": "",
          "type": "address"
        }
      ],
      "name": "l1Bridge",
      "outputs": [
        {
          "internalType": "bool",
          "name": "",
          "type": "bool"
        }
      ],
      "stateMutability": "view",
      "type": "function"
    },
    {
      "inputs": [],
      "name": "layer2Manager",
      "outputs": [
        {
          "internalType": "address",
          "name": "",
          "type": "address"
        }
      ],
      "stateMutability": "view",
      "type": "function"
    },
    {
      "inputs": [
        {
          "internalType": "address",
          "name": "_systemConfig",
          "type": "address"
        }
      ],
      "name": "layer2TVL",
      "outputs": [
        {
          "internalType": "uint256",
          "name": "amount",
          "type": "uint256"
        }
      ],
      "stateMutability": "view",
      "type": "function"
    },
    {
      "inputs": [],
      "name": "pauseProxy",
      "outputs": [
        {
          "internalType": "bool",
          "name": "",
          "type": "bool"
        }
      ],
      "stateMutability": "view",
      "type": "function"
    },
    {
      "inputs": [
        {
          "internalType": "address",
          "name": "",
          "type": "address"
        }
      ],
      "name": "portal",
      "outputs": [
        {
          "internalType": "bool",
          "name": "",
          "type": "bool"
        }
      ],
      "stateMutability": "view",
      "type": "function"
    },
    {
      "inputs": [
        {
          "internalType": "uint256",
          "name": "",
          "type": "uint256"
        }
      ],
      "name": "proxyImplementation",
      "outputs": [
        {
          "internalType": "address",
          "name": "",
          "type": "address"
        }
      ],
      "stateMutability": "view",
      "type": "function"
    },
    {
      "inputs": [
        {
          "internalType": "address",
          "name": "_systemConfig",
          "type": "address"
        },
        {
          "internalType": "uint8",
          "name": "_type",
          "type": "uint8"
        }
      ],
      "name": "registerSystemConfig",
      "outputs": [],
      "stateMutability": "nonpayable",
      "type": "function"
    },
    {
      "inputs": [
        {
          "internalType": "address",
          "name": "_systemConfig",
          "type": "address"
        },
        {
          "internalType": "uint8",
          "name": "_type",
          "type": "uint8"
        }
      ],
      "name": "registerSystemConfigByManager",
      "outputs": [],
      "stateMutability": "nonpayable",
      "type": "function"
    },
    {
      "inputs": [
        {
          "internalType": "address",
          "name": "account",
          "type": "address"
        }
      ],
      "name": "removeAdmin",
      "outputs": [],
      "stateMutability": "nonpayable",
      "type": "function"
    },
    {
      "inputs": [
        {
          "internalType": "address",
          "name": "account",
          "type": "address"
        }
      ],
      "name": "removeManager",
      "outputs": [],
      "stateMutability": "nonpayable",
      "type": "function"
    },
    {
      "inputs": [
        {
          "internalType": "address",
          "name": "account",
          "type": "address"
        }
      ],
      "name": "removeOperator",
      "outputs": [],
      "stateMutability": "nonpayable",
      "type": "function"
    },
    {
      "inputs": [],
      "name": "renounceManager",
      "outputs": [],
      "stateMutability": "nonpayable",
      "type": "function"
    },
    {
      "inputs": [],
      "name": "renounceOperator",
      "outputs": [],
      "stateMutability": "nonpayable",
      "type": "function"
    },
    {
      "inputs": [],
      "name": "renounceOwnership",
      "outputs": [],
      "stateMutability": "nonpayable",
      "type": "function"
    },
    {
      "inputs": [
        {
          "internalType": "bytes32",
          "name": "role",
          "type": "bytes32"
        },
        {
          "internalType": "address",
          "name": "account",
          "type": "address"
        }
      ],
      "name": "renounceRole",
      "outputs": [],
      "stateMutability": "nonpayable",
      "type": "function"
    },
    {
      "inputs": [
        {
          "internalType": "address",
          "name": "account",
          "type": "address"
        }
      ],
      "name": "revokeManager",
      "outputs": [],
      "stateMutability": "nonpayable",
      "type": "function"
    },
    {
      "inputs": [
        {
          "internalType": "address",
          "name": "account",
          "type": "address"
        }
      ],
      "name": "revokeOperator",
      "outputs": [],
      "stateMutability": "nonpayable",
      "type": "function"
    },
    {
      "inputs": [
        {
          "internalType": "bytes32",
          "name": "role",
          "type": "bytes32"
        },
        {
          "internalType": "address",
          "name": "account",
          "type": "address"
        }
      ],
      "name": "revokeRole",
      "outputs": [],
      "stateMutability": "nonpayable",
      "type": "function"
    },
    {
      "inputs": [],
      "name": "seigManager",
      "outputs": [
        {
          "internalType": "address",
          "name": "",
          "type": "address"
        }
      ],
      "stateMutability": "view",
      "type": "function"
    },
    {
      "inputs": [
        {
          "internalType": "bytes4",
          "name": "",
          "type": "bytes4"
        }
      ],
      "name": "selectorImplementation",
      "outputs": [
        {
          "internalType": "address",
          "name": "",
          "type": "address"
        }
      ],
      "stateMutability": "view",
      "type": "function"
    },
    {
      "inputs": [
        {
          "internalType": "address",
          "name": "_layer2Manager",
          "type": "address"
        },
        {
          "internalType": "address",
          "name": "_seigManager",
          "type": "address"
        },
        {
          "internalType": "address",
          "name": "_ton",
          "type": "address"
        }
      ],
      "name": "setAddresses",
      "outputs": [],
      "stateMutability": "nonpayable",
      "type": "function"
    },
    {
      "inputs": [
        {
          "internalType": "bytes4",
          "name": "interfaceId",
          "type": "bytes4"
        }
      ],
      "name": "supportsInterface",
      "outputs": [
        {
          "internalType": "bool",
          "name": "",
          "type": "bool"
        }
      ],
      "stateMutability": "view",
      "type": "function"
    },
    {
      "inputs": [
        {
          "internalType": "address",
          "name": "",
          "type": "address"
        }
      ],
      "name": "systemConfigType",
      "outputs": [
        {
          "internalType": "uint8",
          "name": "",
          "type": "uint8"
        }
      ],
      "stateMutability": "view",
      "type": "function"
    },
    {
      "inputs": [],
      "name": "ton",
      "outputs": [
        {
          "internalType": "address",
          "name": "",
          "type": "address"
        }
      ],
      "stateMutability": "view",
      "type": "function"
    },
    {
      "inputs": [
        {
          "internalType": "address",
          "name": "newAdmin",
          "type": "address"
        }
      ],
      "name": "transferAdmin",
      "outputs": [],
      "stateMutability": "nonpayable",
      "type": "function"
    },
    {
      "inputs": [
        {
          "internalType": "address",
          "name": "newAdmin",
          "type": "address"
        }
      ],
      "name": "transferOwnership",
      "outputs": [],
      "stateMutability": "nonpayable",
      "type": "function"
    }
  ],
  "bytecode": "0x6080806040523461001657611db5908161001c8239f35b600080fdfe608060408181526004918236101561001657600080fd5b600092833560e01c91826301ffc9a7146113b95750816309b66007146112f2578163107c142d146111c157816316b5d5bd146111985781631785f53c1461116a578163248a9ca31461113f57816324d7806c146110f95781632ab6f8db146110df5781632d06177a1461108f5781632f2ff15d14610ff4578163363bf96414610f0d57816336568abe14610e7b578163377e32e614610e2b57816350d2a27614610de7578163550d01a314610da957816363a8fd8914610d875781636d70f7ae14610d335781636fb7f55814610d0a5781637048027514610c67578163715018a614610c4157816375829def14610c2457816388fd8a9114610a035781638f32d59b146109d057816391d14854146109895781639870d7fe146108d6578163a217fddf146108bb578163a2cc09791461087d578163ac18de431461084f578163ac8a584a14610821578163b30347c0146107e3578163b911135f146107b0578163c81ae6db1461058a578163c87957e714610565578163cc48b9471461053c578163d547741f14610500578163ec87621c146104d7578163f1b538b21461049b578163f2fde38b1461035a57508063f3ae241514610307578063f5b541a6146102df578063f8b91abe146102bf5763fad8b32a146101f357600080fd5b346102bb57602090816003193601126102b75761020e61143d565b9061022061021b3361149e565b611ac8565b600080516020611d898339815191529283855260058152610246600183872001546114db565b838552600581528185206001600160a01b039093168086529281528185205460ff16610270578480f35b8385526005815281852083865290528320805460ff1916905533917ff6391f5c32d9c69d2a47ea670b442974b53935d1edc7fd64eb21e047a839171b8480a4388080808480f35b8280fd5b5080fd5b82346102dc57806003193601126102dc576102d933611a13565b80f35b80fd5b50346102bb57816003193601126102bb5760209051600080516020611d898339815191528152f35b50346102bb5760203660031901126102bb5760ff8160209361032761143d565b600080516020611d698339815191528252600586528282206001600160a01b039091168252855220549151911615158152f35b919050346102b7576020806003193601126104975761037761143d565b61038361021b3361149e565b61038f61021b3361149e565b6001600160a01b03169283156104565783331461041c5750838052600581526103bd600183862001546114db565b83805260058152818420838552815260ff8285205416156103e3575b836102d933611882565b8380526005815281842083855290528220805460ff19166001179055339082600080516020611d498339815191528180a43880806103d9565b915162461bcd60e51b815291820152601660248201527520b1b1b2b9b9b4b136329d1039b0b6b29030b236b4b760511b6044820152606490fd5b915162461bcd60e51b815291820152601860248201527f41636365737369626c653a207a65726f206164647265737300000000000000006044820152606490fd5b8380fd5b5050346102bb5760203660031901126102bb5760209160ff9082906001600160a01b036104c661143d565b168152600985522054169051908152f35b5050346102bb57816003193601126102bb5760209051600080516020611d698339815191528152f35b919050346102b757806003193601126102b7576102d991356105376001610525611458565b938387526005602052862001546114db565b611a70565b5050346102bb57816003193601126102bb5760085490516001600160a01b039091168152602090f35b5050346102bb5760209061058161057b3661146e565b90611bd5565b90519015158152f35b919050346102b757602092836003193601126102dc576105a861143d565b928193818660018060a01b038093168086526009825260ff8787205416600181146000146106ca5750865163078f29cf60e01b815292839182905afa9081156106c05791809188938691610693575b501690818552600a835260ff8686205416610619575b50505050505b51908152f35b6024919293949596506008541693865194859384926370a0823160e01b84528301525afa918215610688578092610658575b505090388084818061060d565b9091508382813d8311610681575b610670818361184a565b810103126102dc575051388061064b565b503d610666565b8351903d90823e3d90fd5b6106b39150843d86116106b9575b6106ab818361184a565b810190611bb6565b386105f7565b503d6106a1565b85513d86823e3d90fd5b6002919350146106df575b5050505050610613565b8551630a49cb0360e01b8152918290859082905afa9081156106c05791809188938691610793575b501690818552600b835260ff8686205416610724575b50816106d5565b6024919293949596506008541693865194859384926370a0823160e01b84528301525afa918215610688578092610763575b505090388084818061071d565b9091508382813d831161078c575b61077b818361184a565b810103126102dc5750513880610756565b503d610771565b6107aa9150843d86116106b9576106ab818361184a565b38610707565b9050346102b75760203660031901126102b75735825260016020908152918190205490516001600160a01b039091168152f35b5050346102bb5760203660031901126102bb5760209160ff9082906001600160a01b0361080e61143d565b168152600a855220541690519015158152f35b83346102dc5760203660031901126102dc576102d961083e61143d565b61084a61021b3361149e565b611971565b83346102dc5760203660031901126102dc576102d961086c61143d565b61087861021b3361149e565b611a13565b5050346102bb5760203660031901126102bb5760209160ff9082906001600160a01b036108a861143d565b168152600b855220541690519015158152f35b5050346102bb57816003193601126102bb5751908152602090f35b5050346102bb57602090816003193601126102b7576108f361143d565b9061090061021b3361149e565b600080516020611d898339815191529283855260058152610926600183872001546114db565b838552600581528185206001600160a01b039093168086529281528185205460ff1615610951578480f35b8385526005815281852083865290528320805460ff191660011790553391600080516020611d498339815191528480a4388080808480f35b9050346102b757816003193601126102b7578160209360ff926109aa611458565b90358252600586528282206001600160a01b039091168252855220549151911615158152f35b5050346102bb57816003193601126102bb5760ff8183806020955260058552818120338252855220541690519015158152f35b9050346102b757610a133661146e565b91600080516020611d8983398151915285526020600581528486203387528152610a4260ff8688205416611b5b565b60ff8416918215610bf75760028311610bc3576001600160a01b03848116808952600984528789205491929160ff16610b8b57610a7f8787611bd5565b15610b48578084918a5260098252888a2060ff19968782541617905588519283809263078f29cf60e01b82525afa908115610b3e5792610b1b9492600a927f79eefea257174230e670ff164aa671d366309ed73293a7d0c422477aeff3e21099958b91610b21575b501689525281872080549091166001179055516001600160a01b03909216825260ff90921660208201529081906040820190565b0390a180f35b610b389150833d85116106b9576106ab818361184a565b38610ae7565b87513d8a823e3d90fd5b875162461bcd60e51b8152808301859052601c60248201527f756e617661696c61626c6520666f7220726567697374726174696f6e000000006044820152606490fd5b875162461bcd60e51b81528083018590526012602482015271185b1c9958591e481c9959da5cdd195c995960721b6044820152606490fd5b60649186519162461bcd60e51b8352820152601060248201526f756e737570706f72746564207479706560801b6044820152fd5b60649186519162461bcd60e51b835282015260096024820152687a65726f207479706560b81b6044820152fd5b919050346102b7576020806003193601126104975761038361143d565b83346102dc57806003193601126102dc57610c5e61021b3361149e565b6102d933611882565b5050346102bb57602090816003193601126102b757610c8461143d565b91610c9161021b3361149e565b83805260058152610ca7600183862001546114db565b838052600581528184206001600160a01b039093168085529281528184205460ff1615610cd2578380f35b8380526005815281842083855290528220805460ff19166001179055339082600080516020611d498339815191528180a43880808380f35b5050346102bb57816003193601126102bb5760075490516001600160a01b039091168152602090f35b5050346102bb5760203660031901126102bb5760ff81602093610d5461143d565b600080516020611d898339815191528252600586528282206001600160a01b039091168252855220549151911615158152f35b5050346102bb57816003193601126102bb5760ff602092541690519015158152f35b5050346102bb5760203660031901126102bb5760209160ff9082906001600160a01b03610dd461143d565b1681526002855220541690519015158152f35b9050346102b75760203660031901126102b7573563ffffffff60e01b81168091036102b757825260036020908152918190205490516001600160a01b039091168152f35b5050346102bb57602090816003193601126102b757610e4861143d565b90610e5561021b3361149e565b600080516020611d698339815191529283855260058152610246600183872001546114db565b839150346102bb57826003193601126102bb57610e96611458565b90336001600160a01b03831603610eb257906102d99135611a70565b608490602085519162461bcd60e51b8352820152602f60248201527f416363657373436f6e74726f6c3a2063616e206f6e6c792072656e6f756e636560448201526e103937b632b9903337b91039b2b63360891b6064820152fd5b5050346102bb5760603660031901126102bb57610f2861143d565b610f30611458565b6001600160a01b03926044358481169190829003610ff057847fbbfb274df95bebde0669697bf0d15986b4ad73e11c495ae4e2d08d1bc5c90bad956060951693610f7b851515611b20565b16610f87811515611b20565b610f92831515611b20565b8680526005602052818720338852602052610fb260ff8389205416611ac8565b826bffffffffffffffffffffffff60a01b8581600654161760065582816007541617600755600854161760085581519384526020840152820152a180f35b8580fd5b9050346102b757816003193601126102b7573590611010611458565b908284526005602052611028600182862001546114db565b828452600560209081528185206001600160a01b039093168086529290528084205460ff1615611056578380f35b82845260056020528084208285526020528320600160ff198254161790553391600080516020611d498339815191528480a43880808380f35b5050346102bb57602090816003193601126102b7576110ac61143d565b906110b961021b3361149e565b600080516020611d698339815191529283855260058152610926600183872001546114db565b83346102dc57806003193601126102dc576102d933611971565b5050346102bb5760203660031901126102bb5760ff8160209361111a61143d565b818052600586528282206001600160a01b039091168252855220549151911615158152f35b9050346102b75760203660031901126102b75781602093600192358152600585522001549051908152f35b83346102dc5760203660031901126102dc576102d961118761143d565b61119361021b3361149e565b611882565b5050346102bb57816003193601126102bb5760065490516001600160a01b039091168152602090f35b839150346102bb576111d23661146e565b91600080516020611d898339815191528452602060058152858520338652815261120160ff8787205416611b5b565b6001600160a01b038316808652600982528686205460ff16156112c0578086526009825260ff87872054169260ff86168094146112915750855260099052848420805460ff1916909117905592516001600160a01b03909316835260ff166020830152907faaca8c26723d15f66bf805bb082d6ed8661aa808aa167a822cb51bce9ccd73e2908060408101610b1b565b875162461bcd60e51b8152908101839052600960248201526873616d65207479706560b81b6044820152606490fd5b865162461bcd60e51b8152808401839052600c60248201526b1d5b9c9959da5cdd195c995960a21b6044820152606490fd5b9050346102b7576113023661146e565b91600080516020611d698339815191528552602060058152848620338752815260ff85872054161561136b5760ff8416918215610bf75760028311610bc3576001600160a01b03848116808952600984528789205491929160ff16610b8b57610a7f8787611bd5565b845162461bcd60e51b8152918201526024808201527f41757468436f6e74726f6c3a2043616c6c6572206973206e6f742061206d616e60448201526330b3b2b960e11b606482015260849150fd5b849184346104975760203660031901126104975781359063ffffffff60e01b821680920361143957602094637965db0b60e01b8314938415611400575b5050505015158152f35b6301ffc9a760e01b8414945091929091908415611425575b50505050838080806113f6565b60ff94508252855220541683808080611418565b8480fd5b600435906001600160a01b038216820361145357565b600080fd5b602435906001600160a01b038216820361145357565b6040906003190112611453576004356001600160a01b0381168103611453579060243560ff811681036114535790565b6001600160a01b031660009081527f05b8ccbb9d4d8fb16ea74ce3c29a41f1b461fbdaff4714a0d9a8eb05499746bc602052604090205460ff1690565b60009080825260209060058252604090818420338552835260ff8285205416156115055750505050565b81519367ffffffffffffffff336060870182811188821017611813578552602a875285870193853686378751156117ff57603085538751916001928310156117eb57607860218a015360295b838111611781575061173f579085519260808401908482109082111761172b57865260428352868301936060368637835115611717576030855383518210156117175790607860218501536041915b8183116116a957505050611667579261163560486116269794611659946044989785519a8b936115fd8b86019a7f416363657373436f6e74726f6c3a206163636f756e74200000000000000000008c525180926037880190611827565b8401917001034b99036b4b9b9b4b733903937b6329607d1b603784015251809386840190611827565b0103602881018952018761184a565b5194859362461bcd60e51b8552600485015251809281602486015285850190611827565b601f01601f19168101030190fd5b60648585519062461bcd60e51b825280600483015260248201527f537472696e67733a20686578206c656e67746820696e73756666696369656e746044820152fd5b909192600f81166010811015611703576f181899199a1a9b1b9c1cb0b131b232b360811b901a6116d98587611aa1565b5360041c9280156116ef576000190191906115a0565b634e487b7160e01b82526011600452602482fd5b634e487b7160e01b83526032600452602483fd5b634e487b7160e01b81526032600452602490fd5b634e487b7160e01b85526041600452602485fd5b60648787519062461bcd60e51b825280600483015260248201527f537472696e67733a20686578206c656e67746820696e73756666696369656e746044820152fd5b90600f811660108110156117d7576f181899199a1a9b1b9c1cb0b131b232b360811b901a6117af838c611aa1565b5360041c9080156117c35760001901611551565b634e487b7160e01b86526011600452602486fd5b634e487b7160e01b87526032600452602487fd5b634e487b7160e01b85526032600452602485fd5b634e487b7160e01b84526032600452602484fd5b634e487b7160e01b84526041600452602484fd5b60005b83811061183a5750506000910152565b818101518382015260200161182a565b90601f8019910116810190811067ffffffffffffffff82111761186c57604052565b634e487b7160e01b600052604160045260246000fd5b6001600160a01b03163381036119145760008181527f05b8ccbb9d4d8fb16ea74ce3c29a41f1b461fbdaff4714a0d9a8eb05499746bc602052604081205490919060ff166118ce575050565b8180526005602052604082208183526020526040822060ff19815416905533917ff6391f5c32d9c69d2a47ea670b442974b53935d1edc7fd64eb21e047a839171b8180a4565b60405162461bcd60e51b815260206004820152602f60248201527f416363657373436f6e74726f6c3a2063616e206f6e6c792072656e6f756e636560448201526e103937b632b9903337b91039b2b63360891b6064820152608490fd5b6001600160a01b03163381036119145760008181527f02634a7c777b8129955fe1824eee49ef19dfa96f2f4cb63212492c3d84eb58e66020526040812054909190600080516020611d898339815191529060ff166119ce57505050565b8083526005602052604083208284526020526040832060ff1981541690557ff6391f5c32d9c69d2a47ea670b442974b53935d1edc7fd64eb21e047a839171b339380a4565b6001600160a01b03163381036119145760008181527f67f351182989509d05df317024ac600e03d0c404c1b07ecdc5d72ea1208a722a6020526040812054909190600080516020611d698339815191529060ff166119ce57505050565b906000918083526005602052604083209160018060a01b03169182845260205260ff6040842054166119ce57505050565b908151811015611ab2570160200190565b634e487b7160e01b600052603260045260246000fd5b15611acf57565b60405162461bcd60e51b815260206004820152602360248201527f41757468436f6e74726f6c3a2043616c6c6572206973206e6f7420616e20616460448201526236b4b760e91b6064820152608490fd5b15611b2757565b60405162461bcd60e51b815260206004820152600c60248201526b7a65726f206164647265737360a01b6044820152606490fd5b15611b6257565b60405162461bcd60e51b815260206004820152602660248201527f41757468436f6e74726f6c3a2043616c6c6572206973206e6f7420616e206f7060448201526532b930ba37b960d11b6064820152608490fd5b9081602091031261145357516001600160a01b03811681036114535790565b6040805163078f29cf60e01b8152600094939285916020916001600160a01b03908116918381600481865afa908115611d3e579082918691611d21575b50169586611c24575b50505050505050565b60ff1660018103611c7b57505082526009815260ff8383205416159384611c64575b50505050611c5b575b38808080808080611c1b565b60019150611c4f565b8252600a9052205460ff1615905038808080611c46565b60029192965014611c91575b5050505050611c4f565b8351630a49cb0360e01b81528281600481895afa9081156106c0578491611d04575b5016938415611c875782526009815260ff8383205416159384611ced575b50505050611ce4575b3880808080611c87565b60019150611cda565b8252600b9052205460ff1615905038808080611cd1565b611d1b9150833d85116106b9576106ab818361184a565b38611cb3565b611d389150853d87116106b9576106ab818361184a565b38611c12565b86513d87823e3d90fdfe2f8788117e7eff1d82e926ec794901d17c78024a50270940304540a733656f0daf290d8680820aad922855f39b306097b20e28774d6c1ad35a20325630c3a02c523a704056dcd17bcf83bed8b68c59416dac1119be77755efe3bde0a64e46e0ca164736f6c6343000813000a",
  "linkReferences": {},
  "deployedLinkReferences": {}
}