{
  "_format": "hh-sol-artifact-1",
  "contractName": "L2RegistryV1_1",
  "sourceName": "contracts/layer2/L2RegistryV1_1.sol",
  "abi": [
    {
      "inputs": [],
      "stateMutability": "nonpayable",
      "type": "constructor"
    },
    {
      "anonymous": false,
      "inputs": [
        {
          "indexed": false,
          "internalType": "address",
          "name": "systemConfig",
          "type": "address"
        },
        {
          "indexed": false,
          "internalType": "uint8",
          "name": "type_",
          "type": "uint8"
        }
      ],
      "name": "ChangedType",
      "type": "event"
    },
    {
      "anonymous": false,
      "inputs": [
        {
          "indexed": false,
          "internalType": "address",
          "name": "systemConfig",
          "type": "address"
        },
        {
          "indexed": false,
          "internalType": "uint8",
          "name": "type_",
          "type": "uint8"
        }
      ],
      "name": "RegisteredSystemConfig",
      "type": "event"
    },
    {
      "anonymous": false,
      "inputs": [
        {
          "indexed": true,
          "internalType": "bytes32",
          "name": "role",
          "type": "bytes32"
        },
        {
          "indexed": true,
          "internalType": "bytes32",
          "name": "previousAdminRole",
          "type": "bytes32"
        },
        {
          "indexed": true,
          "internalType": "bytes32",
          "name": "newAdminRole",
          "type": "bytes32"
        }
      ],
      "name": "RoleAdminChanged",
      "type": "event"
    },
    {
      "anonymous": false,
      "inputs": [
        {
          "indexed": true,
          "internalType": "bytes32",
          "name": "role",
          "type": "bytes32"
        },
        {
          "indexed": true,
          "internalType": "address",
          "name": "account",
          "type": "address"
        },
        {
          "indexed": true,
          "internalType": "address",
          "name": "sender",
          "type": "address"
        }
      ],
      "name": "RoleGranted",
      "type": "event"
    },
    {
      "anonymous": false,
      "inputs": [
        {
          "indexed": true,
          "internalType": "bytes32",
          "name": "role",
          "type": "bytes32"
        },
        {
          "indexed": true,
          "internalType": "address",
          "name": "account",
          "type": "address"
        },
        {
          "indexed": true,
          "internalType": "address",
          "name": "sender",
          "type": "address"
        }
      ],
      "name": "RoleRevoked",
      "type": "event"
    },
    {
      "anonymous": false,
      "inputs": [
        {
          "indexed": false,
          "internalType": "address",
          "name": "_layer2Manager",
          "type": "address"
        }
      ],
      "name": "SetLayer2Manager",
      "type": "event"
    },
    {
      "inputs": [],
      "name": "DEFAULT_ADMIN_ROLE",
      "outputs": [
        {
          "internalType": "bytes32",
          "name": "",
          "type": "bytes32"
        }
      ],
      "stateMutability": "view",
      "type": "function"
    },
    {
      "inputs": [],
      "name": "MANAGER_ROLE",
      "outputs": [
        {
          "internalType": "bytes32",
          "name": "",
          "type": "bytes32"
        }
      ],
      "stateMutability": "view",
      "type": "function"
    },
    {
      "inputs": [],
      "name": "OPERATOR_ROLE",
      "outputs": [
        {
          "internalType": "bytes32",
          "name": "",
          "type": "bytes32"
        }
      ],
      "stateMutability": "view",
      "type": "function"
    },
    {
      "inputs": [
        {
          "internalType": "address",
          "name": "account",
          "type": "address"
        }
      ],
      "name": "addAdmin",
      "outputs": [],
      "stateMutability": "nonpayable",
      "type": "function"
    },
    {
      "inputs": [
        {
          "internalType": "address",
          "name": "account",
          "type": "address"
        }
      ],
      "name": "addManager",
      "outputs": [],
      "stateMutability": "nonpayable",
      "type": "function"
    },
    {
      "inputs": [
        {
          "internalType": "address",
          "name": "account",
          "type": "address"
        }
      ],
      "name": "addOperator",
      "outputs": [],
      "stateMutability": "nonpayable",
      "type": "function"
    },
    {
      "inputs": [
        {
          "internalType": "address",
          "name": "",
          "type": "address"
        }
      ],
      "name": "aliveImplementation",
      "outputs": [
        {
          "internalType": "bool",
          "name": "",
          "type": "bool"
        }
      ],
      "stateMutability": "view",
      "type": "function"
    },
    {
      "inputs": [
        {
          "internalType": "address",
          "name": "_systemConfig",
          "type": "address"
        },
        {
          "internalType": "uint8",
          "name": "_type",
          "type": "uint8"
        }
      ],
      "name": "availableForRegistration",
      "outputs": [
        {
          "internalType": "bool",
          "name": "valid",
          "type": "bool"
        }
      ],
      "stateMutability": "view",
      "type": "function"
    },
    {
      "inputs": [
        {
          "internalType": "address",
          "name": "_systemConfig",
          "type": "address"
        },
        {
          "internalType": "uint8",
          "name": "_type",
          "type": "uint8"
        }
      ],
      "name": "changeType",
      "outputs": [],
      "stateMutability": "nonpayable",
      "type": "function"
    },
    {
      "inputs": [
        {
          "internalType": "uint256",
          "name": "amount",
          "type": "uint256"
        }
      ],
      "name": "decreaseTvl",
      "outputs": [],
      "stateMutability": "nonpayable",
      "type": "function"
    },
    {
      "inputs": [
        {
          "internalType": "bytes32",
          "name": "role",
          "type": "bytes32"
        }
      ],
      "name": "getRoleAdmin",
      "outputs": [
        {
          "internalType": "bytes32",
          "name": "",
          "type": "bytes32"
        }
      ],
      "stateMutability": "view",
      "type": "function"
    },
    {
      "inputs": [
        {
          "internalType": "bytes32",
          "name": "role",
          "type": "bytes32"
        },
        {
          "internalType": "address",
          "name": "account",
          "type": "address"
        }
      ],
      "name": "grantRole",
      "outputs": [],
      "stateMutability": "nonpayable",
      "type": "function"
    },
    {
      "inputs": [
        {
          "internalType": "bytes32",
          "name": "role",
          "type": "bytes32"
        },
        {
          "internalType": "address",
          "name": "account",
          "type": "address"
        }
      ],
      "name": "hasRole",
      "outputs": [
        {
          "internalType": "bool",
          "name": "",
          "type": "bool"
        }
      ],
      "stateMutability": "view",
      "type": "function"
    },
    {
      "inputs": [
        {
          "internalType": "uint256",
          "name": "amount",
          "type": "uint256"
        }
      ],
      "name": "increaseTvl",
      "outputs": [],
      "stateMutability": "nonpayable",
      "type": "function"
    },
    {
      "inputs": [
        {
          "internalType": "address",
          "name": "account",
          "type": "address"
        }
      ],
      "name": "isAdmin",
      "outputs": [
        {
          "internalType": "bool",
          "name": "",
          "type": "bool"
        }
      ],
      "stateMutability": "view",
      "type": "function"
    },
    {
      "inputs": [
        {
          "internalType": "address",
          "name": "account",
          "type": "address"
        }
      ],
      "name": "isManager",
      "outputs": [
        {
          "internalType": "bool",
          "name": "",
          "type": "bool"
        }
      ],
      "stateMutability": "view",
      "type": "function"
    },
    {
      "inputs": [
        {
          "internalType": "address",
          "name": "account",
          "type": "address"
        }
      ],
      "name": "isOperator",
      "outputs": [
        {
          "internalType": "bool",
          "name": "",
          "type": "bool"
        }
      ],
      "stateMutability": "view",
      "type": "function"
    },
    {
      "inputs": [],
      "name": "isOwner",
      "outputs": [
        {
          "internalType": "bool",
          "name": "",
          "type": "bool"
        }
      ],
      "stateMutability": "view",
      "type": "function"
    },
    {
      "inputs": [
        {
          "internalType": "address",
          "name": "",
          "type": "address"
        }
      ],
      "name": "l1Bridge",
      "outputs": [
        {
          "internalType": "bool",
          "name": "",
          "type": "bool"
        }
      ],
      "stateMutability": "view",
      "type": "function"
    },
    {
      "inputs": [],
      "name": "layer2Manager",
      "outputs": [
        {
          "internalType": "address",
          "name": "",
          "type": "address"
        }
      ],
      "stateMutability": "view",
      "type": "function"
    },
    {
      "inputs": [],
      "name": "pauseProxy",
      "outputs": [
        {
          "internalType": "bool",
          "name": "",
          "type": "bool"
        }
      ],
      "stateMutability": "view",
      "type": "function"
    },
    {
      "inputs": [
        {
          "internalType": "address",
          "name": "",
          "type": "address"
        }
      ],
      "name": "portal",
      "outputs": [
        {
          "internalType": "bool",
          "name": "",
          "type": "bool"
        }
      ],
      "stateMutability": "view",
      "type": "function"
    },
    {
      "inputs": [
        {
          "internalType": "uint256",
          "name": "",
          "type": "uint256"
        }
      ],
      "name": "proxyImplementation",
      "outputs": [
        {
          "internalType": "address",
          "name": "",
          "type": "address"
        }
      ],
      "stateMutability": "view",
      "type": "function"
    },
    {
      "inputs": [
        {
          "internalType": "address",
          "name": "_systemConfig",
          "type": "address"
        },
        {
          "internalType": "uint8",
          "name": "_type",
          "type": "uint8"
        }
      ],
      "name": "registerSystemConfig",
      "outputs": [],
      "stateMutability": "nonpayable",
      "type": "function"
    },
    {
      "inputs": [
        {
          "internalType": "address",
          "name": "_systemConfig",
          "type": "address"
        },
        {
          "internalType": "uint8",
          "name": "_type",
          "type": "uint8"
        }
      ],
      "name": "registerSystemConfigByManager",
      "outputs": [],
      "stateMutability": "nonpayable",
      "type": "function"
    },
    {
      "inputs": [
        {
          "internalType": "address",
          "name": "account",
          "type": "address"
        }
      ],
      "name": "removeAdmin",
      "outputs": [],
      "stateMutability": "nonpayable",
      "type": "function"
    },
    {
      "inputs": [
        {
          "internalType": "address",
          "name": "account",
          "type": "address"
        }
      ],
      "name": "removeManager",
      "outputs": [],
      "stateMutability": "nonpayable",
      "type": "function"
    },
    {
      "inputs": [
        {
          "internalType": "address",
          "name": "account",
          "type": "address"
        }
      ],
      "name": "removeOperator",
      "outputs": [],
      "stateMutability": "nonpayable",
      "type": "function"
    },
    {
      "inputs": [],
      "name": "renounceManager",
      "outputs": [],
      "stateMutability": "nonpayable",
      "type": "function"
    },
    {
      "inputs": [],
      "name": "renounceOperator",
      "outputs": [],
      "stateMutability": "nonpayable",
      "type": "function"
    },
    {
      "inputs": [],
      "name": "renounceOwnership",
      "outputs": [],
      "stateMutability": "nonpayable",
      "type": "function"
    },
    {
      "inputs": [
        {
          "internalType": "bytes32",
          "name": "role",
          "type": "bytes32"
        },
        {
          "internalType": "address",
          "name": "account",
          "type": "address"
        }
      ],
      "name": "renounceRole",
      "outputs": [],
      "stateMutability": "nonpayable",
      "type": "function"
    },
    {
      "inputs": [
        {
          "internalType": "address",
          "name": "_systemConfig",
          "type": "address"
        },
        {
          "internalType": "uint256",
          "name": "amount",
          "type": "uint256"
        }
      ],
      "name": "resetTvl",
      "outputs": [],
      "stateMutability": "nonpayable",
      "type": "function"
    },
    {
      "inputs": [
        {
          "internalType": "address",
          "name": "account",
          "type": "address"
        }
      ],
      "name": "revokeManager",
      "outputs": [],
      "stateMutability": "nonpayable",
      "type": "function"
    },
    {
      "inputs": [
        {
          "internalType": "address",
          "name": "account",
          "type": "address"
        }
      ],
      "name": "revokeOperator",
      "outputs": [],
      "stateMutability": "nonpayable",
      "type": "function"
    },
    {
      "inputs": [
        {
          "internalType": "bytes32",
          "name": "role",
          "type": "bytes32"
        },
        {
          "internalType": "address",
          "name": "account",
          "type": "address"
        }
      ],
      "name": "revokeRole",
      "outputs": [],
      "stateMutability": "nonpayable",
      "type": "function"
    },
    {
      "inputs": [
        {
          "internalType": "bytes4",
          "name": "",
          "type": "bytes4"
        }
      ],
      "name": "selectorImplementation",
      "outputs": [
        {
          "internalType": "address",
          "name": "",
          "type": "address"
        }
      ],
      "stateMutability": "view",
      "type": "function"
    },
    {
      "inputs": [
        {
          "internalType": "address",
          "name": "_layer2Manager",
          "type": "address"
        }
      ],
      "name": "setLayer2Manager",
      "outputs": [],
      "stateMutability": "nonpayable",
      "type": "function"
    },
    {
      "inputs": [
        {
          "internalType": "bytes4",
          "name": "interfaceId",
          "type": "bytes4"
        }
      ],
      "name": "supportsInterface",
      "outputs": [
        {
          "internalType": "bool",
          "name": "",
          "type": "bool"
        }
      ],
      "stateMutability": "view",
      "type": "function"
    },
    {
      "inputs": [
        {
          "internalType": "address",
          "name": "",
          "type": "address"
        }
      ],
      "name": "systemConfigType",
      "outputs": [
        {
          "internalType": "uint8",
          "name": "",
          "type": "uint8"
        }
      ],
      "stateMutability": "view",
      "type": "function"
    },
    {
      "inputs": [
        {
          "internalType": "address",
          "name": "newAdmin",
          "type": "address"
        }
      ],
      "name": "transferAdmin",
      "outputs": [],
      "stateMutability": "nonpayable",
      "type": "function"
    },
    {
      "inputs": [
        {
          "internalType": "address",
          "name": "newAdmin",
          "type": "address"
        }
      ],
      "name": "transferOwnership",
      "outputs": [],
      "stateMutability": "nonpayable",
      "type": "function"
    }
  ],
  "bytecode": "0x608060405234801561001057600080fd5b50611b11806100206000396000f3fe608060405234801561001057600080fd5b506004361061025e5760003560e01c806388fd8a9111610146578063baa12536116100c3578063f1b538b211610087578063f1b538b214610588578063f2fde38b146105bd578063f3ae2415146105d0578063f5b541a6146105e3578063f8b91abe146105f8578063fad8b32a1461060057600080fd5b8063baa1253614610527578063c87957e71461053a578063d547741f1461054d578063d8305d6014610560578063ec87621c1461057357600080fd5b8063a2cc09791161010a578063a2cc097914610492578063ac18de43146104b5578063ac8a584a146104c8578063b30347c0146104db578063b911135f146104fe57600080fd5b806388fd8a91146104495780638f32d59b1461045c57806391d14854146104645780639870d7fe14610477578063a217fddf1461048a57600080fd5b806336568abe116101df57806363a8fd89116101a357806363a8fd89146103e857806366d88b10146103f55780636d70f7ae14610408578063704802751461041b578063715018a61461042e57806375829def1461043657600080fd5b806336568abe14610363578063377e32e6146103765780633c66fad31461038957806350d2a2761461039c578063550d01a3146103c557600080fd5b8063248a9ca311610226578063248a9ca3146102f157806324d7806c146103225780632ab6f8db146103355780632d06177a1461033d5780632f2ff15d1461035057600080fd5b806301ffc9a71461026357806309b660071461028b578063107c142d146102a057806316b5d5bd146102b35780631785f53c146102de575b600080fd5b6102766102713660046117aa565b610613565b60405190151581526020015b60405180910390f35b61029e6102993660046117e9565b610624565b005b61029e6102ae3660046117e9565b61066f565b6006546102c6906001600160a01b031681565b6040516001600160a01b039091168152602001610282565b61029e6102ec366004611828565b6107ba565b6103146102ff366004611845565b60009081526005602052604090206001015490565b604051908152602001610282565b610276610330366004611828565b6107ed565b61029e6107f9565b61029e61034b366004611828565b610813565b61029e61035e36600461185e565b61084c565b61029e61037136600461185e565b610876565b61029e610384366004611828565b6108f0565b61029e610397366004611883565b61092d565b6102c66103aa3660046117aa565b6003602052600090815260409020546001600160a01b031681565b6102766103d3366004611828565b60026020526000908152604090205460ff1681565b6000546102769060ff1681565b61029e610403366004611845565b610a26565b610276610416366004611828565b610b05565b61029e610429366004611828565b610b1f565b61029e610b4f565b61029e610444366004611828565b610b7f565b61029e6104573660046117e9565b610c61565b610276610cd4565b61027661047236600461185e565b610ce5565b61029e610485366004611828565b610d10565b610314600081565b6102766104a0366004611828565b60096020526000908152604090205460ff1681565b61029e6104c3366004611828565b610d4d565b61029e6104d6366004611828565b610d8a565b6102766104e9366004611828565b60086020526000908152604090205460ff1681565b6102c661050c366004611845565b6001602052600090815260409020546001600160a01b031681565b61029e610535366004611828565b610dc7565b6102766105483660046117e9565b610ed1565b61029e61055b36600461185e565b611078565b61029e61056e366004611845565b61109d565b610314600080516020611ac583398151915281565b6105ab610596366004611828565b60076020526000908152604090205460ff1681565b60405160ff9091168152602001610282565b61029e6105cb366004611828565b61117c565b6102766105de366004611828565b6111aa565b610314600080516020611ae583398151915281565b61029e6111c4565b61029e61060e366004611828565b6111dc565b600061061e82611219565b92915050565b61063c600080516020611ac583398151915233610ce5565b6106615760405162461bcd60e51b8152600401610658906118af565b60405180910390fd5b61066b828261123e565b5050565b610687600080516020611ac583398151915233610ce5565b6106a35760405162461bcd60e51b8152600401610658906118af565b6001600160a01b03821660009081526007602052604081205460ff1690036106fc5760405162461bcd60e51b815260206004820152600c60248201526b1d5b9c9959da5cdd195c995960a21b6044820152606401610658565b6001600160a01b03821660009081526007602052604090205460ff8083169116036107555760405162461bcd60e51b815260206004820152600960248201526873616d65207479706560b81b6044820152606401610658565b6001600160a01b038216600081815260076020908152604091829020805460ff191660ff86169081179091558251938452908301527faaca8c26723d15f66bf805bb082d6ed8661aa808aa167a822cb51bce9ccd73e291015b60405180910390a15050565b6107c3336107ed565b6107df5760405162461bcd60e51b8152600401610658906118f3565b6107ea600082610876565b50565b600061061e8183610ce5565b610811600080516020611ae583398151915233610876565b565b61081c336107ed565b6108385760405162461bcd60e51b8152600401610658906118f3565b6107ea600080516020611ac5833981519152825b60008281526005602052604090206001015461086781611469565b6108718383611473565b505050565b6001600160a01b03811633146108e65760405162461bcd60e51b815260206004820152602f60248201527f416363657373436f6e74726f6c3a2063616e206f6e6c792072656e6f756e636560448201526e103937b632b9903337b91039b2b63360891b6064820152608401610658565b61066b82826114f9565b6108f9336107ed565b6109155760405162461bcd60e51b8152600401610658906118f3565b6107ea600080516020611ac583398151915282611078565b610945600080516020611ac583398151915233610ce5565b6109615760405162461bcd60e51b8152600401610658906118af565b6006546001600160a01b03166109ae5760405162461bcd60e51b81526020600482015260126024820152713d32b937903630bcb2b91926b0b730b3b2b960711b6044820152606401610658565b600654604051633c66fad360e01b81526001600160a01b0384811660048301526024820184905290911690633c66fad3906044015b6020604051808303816000875af1158015610a02573d6000803e3d6000fd5b505050506040513d601f19601f820116820180604052508101906108719190611936565b3360009081526007602052604081205460ff169003610a835760405162461bcd60e51b8152602060048201526019602482015278756e726567697374657265642073797374656d436f6e66696760381b6044820152606401610658565b8080600003610abd5760405162461bcd60e51b8152600401610658906020808252600490820152637a65726f60e01b604082015260600190565b6006546001600160a01b03161561066b576006546040516324a4b1bf60e11b8152336004820152602481018490526001600160a01b0390911690634949637e906044016109e3565b600061061e600080516020611ae583398151915283610ce5565b610b28336107ed565b610b445760405162461bcd60e51b8152600401610658906118f3565b6107ea60008261084c565b610b58336107ed565b610b745760405162461bcd60e51b8152600401610658906118f3565b610811600033610876565b610b88336107ed565b610ba45760405162461bcd60e51b8152600401610658906118f3565b6001600160a01b038116610bfa5760405162461bcd60e51b815260206004820152601860248201527f41636365737369626c653a207a65726f206164647265737300000000000000006044820152606401610658565b6001600160a01b0381163303610c4b5760405162461bcd60e51b815260206004820152601660248201527520b1b1b2b9b9b4b136329d1039b0b6b29030b236b4b760511b6044820152606401610658565b610c5660008261084c565b6107ea600033610876565b610c79600080516020611ae583398151915233610ce5565b6106615760405162461bcd60e51b815260206004820152602660248201527f41757468436f6e74726f6c3a2043616c6c6572206973206e6f7420616e206f7060448201526532b930ba37b960d11b6064820152608401610658565b6000610ce08133610ce5565b905090565b60009182526005602090815260408084206001600160a01b0393909316845291905290205460ff1690565b610d19336107ed565b610d355760405162461bcd60e51b8152600401610658906118f3565b6107ea600080516020611ae58339815191528261084c565b610d56336107ed565b610d725760405162461bcd60e51b8152600401610658906118f3565b6107ea600080516020611ac583398151915282610876565b610d93336107ed565b610daf5760405162461bcd60e51b8152600401610658906118f3565b6107ea600080516020611ae583398151915282610876565b610dd0336107ed565b610dec5760405162461bcd60e51b8152600401610658906118f3565b6001600160a01b038116610e375760405162461bcd60e51b81526020600482015260126024820152713d32b937903630bcb2b91926b0b730b3b2b960711b6044820152606401610658565b6006546001600160a01b03808316911603610e7d5760405162461bcd60e51b81526004016106589060208082526004908201526373616d6560e01b604082015260600190565b600680546001600160a01b0319166001600160a01b0383169081179091556040519081527f96278b2cc761ad66ad8593612b56ab9908140b261586a7ab6be0a5ead07bb6019060200160405180910390a150565b600080836001600160a01b031663078f29cf6040518163ffffffff1660e01b8152600401602060405180830381865afa158015610f12573d6000803e3d6000fd5b505050506040513d601f19601f82011682018060405250810190610f369190611958565b90506001600160a01b03811615611071578260ff16600103610fa3576001600160a01b03841660009081526007602052604090205460ff16158015610f9457506001600160a01b03811660009081526008602052604090205460ff16155b15610f9e57600191505b611071565b8260ff16600203611071576000846001600160a01b0316630a49cb036040518163ffffffff1660e01b8152600401602060405180830381865afa158015610fee573d6000803e3d6000fd5b505050506040513d601f19601f820116820180604052508101906110129190611958565b90506001600160a01b0381161561106f576001600160a01b03851660009081526007602052604090205460ff1615801561106557506001600160a01b03811660009081526009602052604090205460ff16155b1561106f57600192505b505b5092915050565b60008281526005602052604090206001015461109381611469565b61087183836114f9565b3360009081526007602052604081205460ff1690036110fa5760405162461bcd60e51b8152602060048201526019602482015278756e726567697374657265642073797374656d436f6e66696760381b6044820152606401610658565b80806000036111345760405162461bcd60e51b8152600401610658906020808252600490820152637a65726f60e01b604082015260600190565b6006546001600160a01b03161561066b5760065460405163e5b2353160e01b8152336004820152602481018490526001600160a01b039091169063e5b23531906044016109e3565b611185336107ed565b6111a15760405162461bcd60e51b8152600401610658906118f3565b6107ea81610b7f565b600061061e600080516020611ac583398151915283610ce5565b610811600080516020611ac583398151915233610876565b6111e5336107ed565b6112015760405162461bcd60e51b8152600401610658906118f3565b6107ea600080516020611ae583398151915282611078565b60006001600160e01b03198216637965db0b60e01b148061061e575061061e82611560565b8060ff1660000361127d5760405162461bcd60e51b81526020600482015260096024820152687a65726f207479706560b81b6044820152606401610658565b600260ff821611156112c45760405162461bcd60e51b815260206004820152601060248201526f756e737570706f72746564207479706560801b6044820152606401610658565b6001600160a01b03821660009081526007602052604090205460ff16156113225760405162461bcd60e51b8152602060048201526012602482015271185b1c9958591e481c9959da5cdd195c995960721b6044820152606401610658565b61132c8282610ed1565b6113785760405162461bcd60e51b815260206004820152601c60248201527f756e617661696c61626c6520666f7220726567697374726174696f6e000000006044820152606401610658565b6001600160a01b0382166000818152600760209081526040808320805460ff191660ff8716179055805163078f29cf60e01b8152905160019460089493909263078f29cf92600480830193928290030181865afa1580156113dd573d6000803e3d6000fd5b505050506040513d601f19601f820116820180604052508101906114019190611958565b6001600160a01b0390811682526020808301939093526040918201600020805460ff1916941515949094179093558051928516835260ff8416918301919091527f79eefea257174230e670ff164aa671d366309ed73293a7d0c422477aeff3e21091016107ae565b6107ea813361159c565b61147d8282610ce5565b61066b5760008281526005602090815260408083206001600160a01b03851684529091529020805460ff191660011790556114b53390565b6001600160a01b0316816001600160a01b0316837f2f8788117e7eff1d82e926ec794901d17c78024a50270940304540a733656f0d60405160405180910390a45050565b6115038282610ce5565b1561066b5760008281526005602090815260408083206001600160a01b0385168085529252808320805460ff1916905551339285917ff6391f5c32d9c69d2a47ea670b442974b53935d1edc7fd64eb21e047a839171b9190a45050565b60006301ffc9a760e01b6001600160e01b03198316148061061e5750506001600160e01b03191660009081526004602052604090205460ff1690565b6115a68282610ce5565b61066b576115b3816115f5565b6115be836020611607565b6040516020016115cf929190611999565b60408051601f198184030181529082905262461bcd60e51b825261065891600401611a0e565b606061061e6001600160a01b03831660145b60606000611616836002611a57565b611621906002611a6e565b67ffffffffffffffff81111561163957611639611a81565b6040519080825280601f01601f191660200182016040528015611663576020820181803683370190505b509050600360fc1b8160008151811061167e5761167e611a97565b60200101906001600160f81b031916908160001a905350600f60fb1b816001815181106116ad576116ad611a97565b60200101906001600160f81b031916908160001a90535060006116d1846002611a57565b6116dc906001611a6e565b90505b6001811115611754576f181899199a1a9b1b9c1cb0b131b232b360811b85600f166010811061171057611710611a97565b1a60f81b82828151811061172657611726611a97565b60200101906001600160f81b031916908160001a90535060049490941c9361174d81611aad565b90506116df565b5083156117a35760405162461bcd60e51b815260206004820181905260248201527f537472696e67733a20686578206c656e67746820696e73756666696369656e746044820152606401610658565b9392505050565b6000602082840312156117bc57600080fd5b81356001600160e01b0319811681146117a357600080fd5b6001600160a01b03811681146107ea57600080fd5b600080604083850312156117fc57600080fd5b8235611807816117d4565b9150602083013560ff8116811461181d57600080fd5b809150509250929050565b60006020828403121561183a57600080fd5b81356117a3816117d4565b60006020828403121561185757600080fd5b5035919050565b6000806040838503121561187157600080fd5b82359150602083013561181d816117d4565b6000806040838503121561189657600080fd5b82356118a1816117d4565b946020939093013593505050565b60208082526024908201527f41757468436f6e74726f6c3a2043616c6c6572206973206e6f742061206d616e60408201526330b3b2b960e11b606082015260800190565b60208082526023908201527f41757468436f6e74726f6c3a2043616c6c6572206973206e6f7420616e20616460408201526236b4b760e91b606082015260800190565b60006020828403121561194857600080fd5b815180151581146117a357600080fd5b60006020828403121561196a57600080fd5b81516117a3816117d4565b60005b83811015611990578181015183820152602001611978565b50506000910152565b7f416363657373436f6e74726f6c3a206163636f756e74200000000000000000008152600083516119d1816017850160208801611975565b7001034b99036b4b9b9b4b733903937b6329607d1b6017918401918201528351611a02816028840160208801611975565b01602801949350505050565b6020815260008251806020840152611a2d816040850160208701611975565b601f01601f19169190910160400192915050565b634e487b7160e01b600052601160045260246000fd5b808202811582820484141761061e5761061e611a41565b8082018082111561061e5761061e611a41565b634e487b7160e01b600052604160045260246000fd5b634e487b7160e01b600052603260045260246000fd5b600081611abc57611abc611a41565b50600019019056feaf290d8680820aad922855f39b306097b20e28774d6c1ad35a20325630c3a02c523a704056dcd17bcf83bed8b68c59416dac1119be77755efe3bde0a64e46e0ca164736f6c6343000813000a",
  "linkReferences": {},
  "deployedLinkReferences": {}
}