{
  "_format": "hh-sol-artifact-1",
  "contractName": "L2RegistryV1_1",
  "sourceName": "contracts/layer2/L2RegistryV1_1.sol",
  "abi": [
    {
      "inputs": [],
      "stateMutability": "nonpayable",
      "type": "constructor"
    },
    {
      "anonymous": false,
      "inputs": [
        {
          "indexed": false,
          "internalType": "address",
          "name": "systemConfig",
          "type": "address"
        },
        {
          "indexed": false,
          "internalType": "uint8",
          "name": "type_",
          "type": "uint8"
        }
      ],
      "name": "ChangedType",
      "type": "event"
    },
    {
      "anonymous": false,
      "inputs": [
        {
          "indexed": false,
          "internalType": "address",
          "name": "systemConfig",
          "type": "address"
        },
        {
          "indexed": false,
          "internalType": "uint8",
          "name": "type_",
          "type": "uint8"
        }
      ],
      "name": "RegisteredSystemConfig",
      "type": "event"
    },
    {
      "anonymous": false,
      "inputs": [
        {
          "indexed": true,
          "internalType": "bytes32",
          "name": "role",
          "type": "bytes32"
        },
        {
          "indexed": true,
          "internalType": "bytes32",
          "name": "previousAdminRole",
          "type": "bytes32"
        },
        {
          "indexed": true,
          "internalType": "bytes32",
          "name": "newAdminRole",
          "type": "bytes32"
        }
      ],
      "name": "RoleAdminChanged",
      "type": "event"
    },
    {
      "anonymous": false,
      "inputs": [
        {
          "indexed": true,
          "internalType": "bytes32",
          "name": "role",
          "type": "bytes32"
        },
        {
          "indexed": true,
          "internalType": "address",
          "name": "account",
          "type": "address"
        },
        {
          "indexed": true,
          "internalType": "address",
          "name": "sender",
          "type": "address"
        }
      ],
      "name": "RoleGranted",
      "type": "event"
    },
    {
      "anonymous": false,
      "inputs": [
        {
          "indexed": true,
          "internalType": "bytes32",
          "name": "role",
          "type": "bytes32"
        },
        {
          "indexed": true,
          "internalType": "address",
          "name": "account",
          "type": "address"
        },
        {
          "indexed": true,
          "internalType": "address",
          "name": "sender",
          "type": "address"
        }
      ],
      "name": "RoleRevoked",
      "type": "event"
    },
    {
      "anonymous": false,
      "inputs": [
        {
          "indexed": false,
          "internalType": "address",
          "name": "_layer2Manager",
          "type": "address"
        },
        {
          "indexed": false,
          "internalType": "address",
          "name": "_seigManager",
          "type": "address"
        },
        {
          "indexed": false,
          "internalType": "address",
          "name": "_ton",
          "type": "address"
        }
      ],
      "name": "SetAddresses",
      "type": "event"
    },
    {
      "inputs": [],
      "name": "DEFAULT_ADMIN_ROLE",
      "outputs": [
        {
          "internalType": "bytes32",
          "name": "",
          "type": "bytes32"
        }
      ],
      "stateMutability": "view",
      "type": "function"
    },
    {
      "inputs": [],
      "name": "MANAGER_ROLE",
      "outputs": [
        {
          "internalType": "bytes32",
          "name": "",
          "type": "bytes32"
        }
      ],
      "stateMutability": "view",
      "type": "function"
    },
    {
      "inputs": [],
      "name": "REGISTRANT_ROLE",
      "outputs": [
        {
          "internalType": "bytes32",
          "name": "",
          "type": "bytes32"
        }
      ],
      "stateMutability": "view",
      "type": "function"
    },
    {
      "inputs": [
        {
          "internalType": "address",
          "name": "account",
          "type": "address"
        }
      ],
      "name": "addAdmin",
      "outputs": [],
      "stateMutability": "nonpayable",
      "type": "function"
    },
    {
      "inputs": [
        {
          "internalType": "address",
          "name": "account",
          "type": "address"
        }
      ],
      "name": "addManager",
      "outputs": [],
      "stateMutability": "nonpayable",
      "type": "function"
    },
    {
      "inputs": [
        {
          "internalType": "address",
          "name": "account",
          "type": "address"
        }
      ],
      "name": "addRegistrant",
      "outputs": [],
      "stateMutability": "nonpayable",
      "type": "function"
    },
    {
      "inputs": [
        {
          "internalType": "address",
          "name": "",
          "type": "address"
        }
      ],
      "name": "aliveImplementation",
      "outputs": [
        {
          "internalType": "bool",
          "name": "",
          "type": "bool"
        }
      ],
      "stateMutability": "view",
      "type": "function"
    },
    {
      "inputs": [
        {
          "internalType": "address",
          "name": "_systemConfig",
          "type": "address"
        },
        {
          "internalType": "uint8",
          "name": "_type",
          "type": "uint8"
        }
      ],
      "name": "availableForRegistration",
      "outputs": [
        {
          "internalType": "bool",
          "name": "valid",
          "type": "bool"
        }
      ],
      "stateMutability": "view",
      "type": "function"
    },
    {
      "inputs": [
        {
          "internalType": "address",
          "name": "_systemConfig",
          "type": "address"
        },
        {
          "internalType": "uint8",
          "name": "_type",
          "type": "uint8"
        }
      ],
      "name": "changeType",
      "outputs": [],
      "stateMutability": "nonpayable",
      "type": "function"
    },
    {
      "inputs": [
        {
          "internalType": "bytes32",
          "name": "role",
          "type": "bytes32"
        }
      ],
      "name": "getRoleAdmin",
      "outputs": [
        {
          "internalType": "bytes32",
          "name": "",
          "type": "bytes32"
        }
      ],
      "stateMutability": "view",
      "type": "function"
    },
    {
      "inputs": [
        {
          "internalType": "bytes32",
          "name": "role",
          "type": "bytes32"
        },
        {
          "internalType": "address",
          "name": "account",
          "type": "address"
        }
      ],
      "name": "grantRole",
      "outputs": [],
      "stateMutability": "nonpayable",
      "type": "function"
    },
    {
      "inputs": [
        {
          "internalType": "bytes32",
          "name": "role",
          "type": "bytes32"
        },
        {
          "internalType": "address",
          "name": "account",
          "type": "address"
        }
      ],
      "name": "hasRole",
      "outputs": [
        {
          "internalType": "bool",
          "name": "",
          "type": "bool"
        }
      ],
      "stateMutability": "view",
      "type": "function"
    },
    {
      "inputs": [
        {
          "internalType": "address",
          "name": "account",
          "type": "address"
        }
      ],
      "name": "isAdmin",
      "outputs": [
        {
          "internalType": "bool",
          "name": "",
          "type": "bool"
        }
      ],
      "stateMutability": "view",
      "type": "function"
    },
    {
      "inputs": [
        {
          "internalType": "address",
          "name": "account",
          "type": "address"
        }
      ],
      "name": "isManager",
      "outputs": [
        {
          "internalType": "bool",
          "name": "",
          "type": "bool"
        }
      ],
      "stateMutability": "view",
      "type": "function"
    },
    {
      "inputs": [],
      "name": "isOwner",
      "outputs": [
        {
          "internalType": "bool",
          "name": "",
          "type": "bool"
        }
      ],
      "stateMutability": "view",
      "type": "function"
    },
    {
      "inputs": [
        {
          "internalType": "address",
          "name": "account",
          "type": "address"
        }
      ],
      "name": "isRegistrant",
      "outputs": [
        {
          "internalType": "bool",
          "name": "",
          "type": "bool"
        }
      ],
      "stateMutability": "view",
      "type": "function"
    },
    {
      "inputs": [
        {
          "internalType": "address",
          "name": "",
          "type": "address"
        }
      ],
      "name": "l1Bridge",
      "outputs": [
        {
          "internalType": "bool",
          "name": "",
          "type": "bool"
        }
      ],
      "stateMutability": "view",
      "type": "function"
    },
    {
      "inputs": [],
      "name": "layer2Manager",
      "outputs": [
        {
          "internalType": "address",
          "name": "",
          "type": "address"
        }
      ],
      "stateMutability": "view",
      "type": "function"
    },
    {
      "inputs": [
        {
          "internalType": "address",
          "name": "_systemConfig",
          "type": "address"
        }
      ],
      "name": "layer2TVL",
      "outputs": [
        {
          "internalType": "uint256",
          "name": "amount",
          "type": "uint256"
        }
      ],
      "stateMutability": "view",
      "type": "function"
    },
    {
      "inputs": [],
      "name": "pauseProxy",
      "outputs": [
        {
          "internalType": "bool",
          "name": "",
          "type": "bool"
        }
      ],
      "stateMutability": "view",
      "type": "function"
    },
    {
      "inputs": [
        {
          "internalType": "address",
          "name": "",
          "type": "address"
        }
      ],
      "name": "portal",
      "outputs": [
        {
          "internalType": "bool",
          "name": "",
          "type": "bool"
        }
      ],
      "stateMutability": "view",
      "type": "function"
    },
    {
      "inputs": [
        {
          "internalType": "uint256",
          "name": "",
          "type": "uint256"
        }
      ],
      "name": "proxyImplementation",
      "outputs": [
        {
          "internalType": "address",
          "name": "",
          "type": "address"
        }
      ],
      "stateMutability": "view",
      "type": "function"
    },
    {
      "inputs": [
        {
          "internalType": "address",
          "name": "_systemConfig",
          "type": "address"
        },
        {
          "internalType": "uint8",
          "name": "_type",
          "type": "uint8"
        }
      ],
      "name": "registerSystemConfig",
      "outputs": [],
      "stateMutability": "nonpayable",
      "type": "function"
    },
    {
      "inputs": [
        {
          "internalType": "address",
          "name": "_systemConfig",
          "type": "address"
        },
        {
          "internalType": "uint8",
          "name": "_type",
          "type": "uint8"
        }
      ],
      "name": "registerSystemConfigByManager",
      "outputs": [],
      "stateMutability": "nonpayable",
      "type": "function"
    },
    {
      "inputs": [
        {
          "internalType": "address",
          "name": "account",
          "type": "address"
        }
      ],
      "name": "removeAdmin",
      "outputs": [],
      "stateMutability": "nonpayable",
      "type": "function"
    },
    {
      "inputs": [
        {
          "internalType": "address",
          "name": "account",
          "type": "address"
        }
      ],
      "name": "removeManager",
      "outputs": [],
      "stateMutability": "nonpayable",
      "type": "function"
    },
    {
      "inputs": [
        {
          "internalType": "address",
          "name": "account",
          "type": "address"
        }
      ],
      "name": "removeRegistrant",
      "outputs": [],
      "stateMutability": "nonpayable",
      "type": "function"
    },
    {
      "inputs": [],
      "name": "renounceManager",
      "outputs": [],
      "stateMutability": "nonpayable",
      "type": "function"
    },
    {
      "inputs": [],
      "name": "renounceOwnership",
      "outputs": [],
      "stateMutability": "nonpayable",
      "type": "function"
    },
    {
      "inputs": [],
      "name": "renounceRegistrant",
      "outputs": [],
      "stateMutability": "nonpayable",
      "type": "function"
    },
    {
      "inputs": [
        {
          "internalType": "bytes32",
          "name": "role",
          "type": "bytes32"
        },
        {
          "internalType": "address",
          "name": "account",
          "type": "address"
        }
      ],
      "name": "renounceRole",
      "outputs": [],
      "stateMutability": "nonpayable",
      "type": "function"
    },
    {
      "inputs": [
        {
          "internalType": "address",
          "name": "account",
          "type": "address"
        }
      ],
      "name": "revokeManager",
      "outputs": [],
      "stateMutability": "nonpayable",
      "type": "function"
    },
    {
      "inputs": [
        {
          "internalType": "address",
          "name": "account",
          "type": "address"
        }
      ],
      "name": "revokeRegistrant",
      "outputs": [],
      "stateMutability": "nonpayable",
      "type": "function"
    },
    {
      "inputs": [
        {
          "internalType": "bytes32",
          "name": "role",
          "type": "bytes32"
        },
        {
          "internalType": "address",
          "name": "account",
          "type": "address"
        }
      ],
      "name": "revokeRole",
      "outputs": [],
      "stateMutability": "nonpayable",
      "type": "function"
    },
    {
      "inputs": [],
      "name": "seigManager",
      "outputs": [
        {
          "internalType": "address",
          "name": "",
          "type": "address"
        }
      ],
      "stateMutability": "view",
      "type": "function"
    },
    {
      "inputs": [
        {
          "internalType": "bytes4",
          "name": "",
          "type": "bytes4"
        }
      ],
      "name": "selectorImplementation",
      "outputs": [
        {
          "internalType": "address",
          "name": "",
          "type": "address"
        }
      ],
      "stateMutability": "view",
      "type": "function"
    },
    {
      "inputs": [
        {
          "internalType": "address",
          "name": "_layer2Manager",
          "type": "address"
        },
        {
          "internalType": "address",
          "name": "_seigManager",
          "type": "address"
        },
        {
          "internalType": "address",
          "name": "_ton",
          "type": "address"
        }
      ],
      "name": "setAddresses",
      "outputs": [],
      "stateMutability": "nonpayable",
      "type": "function"
    },
    {
      "inputs": [
        {
          "internalType": "bytes4",
          "name": "interfaceId",
          "type": "bytes4"
        }
      ],
      "name": "supportsInterface",
      "outputs": [
        {
          "internalType": "bool",
          "name": "",
          "type": "bool"
        }
      ],
      "stateMutability": "view",
      "type": "function"
    },
    {
      "inputs": [
        {
          "internalType": "address",
          "name": "",
          "type": "address"
        }
      ],
      "name": "systemConfigType",
      "outputs": [
        {
          "internalType": "uint8",
          "name": "",
          "type": "uint8"
        }
      ],
      "stateMutability": "view",
      "type": "function"
    },
    {
      "inputs": [],
      "name": "ton",
      "outputs": [
        {
          "internalType": "address",
          "name": "",
          "type": "address"
        }
      ],
      "stateMutability": "view",
      "type": "function"
    },
    {
      "inputs": [
        {
          "internalType": "address",
          "name": "newAdmin",
          "type": "address"
        }
      ],
      "name": "transferAdmin",
      "outputs": [],
      "stateMutability": "nonpayable",
      "type": "function"
    },
    {
      "inputs": [
        {
          "internalType": "address",
          "name": "newAdmin",
          "type": "address"
        }
      ],
      "name": "transferOwnership",
      "outputs": [],
      "stateMutability": "nonpayable",
      "type": "function"
    }
  ],
  "bytecode": "0x6080806040523461001657611dbc908161001c8239f35b600080fdfe60806040908082526004918236101561001757600080fd5b600092833560e01c92836301ffc9a7146113bf5750826309b66007146112f7578263107c142d146111c757826316b5d5bd1461119e5782631785f53c14611170578263248a9ca31461114457826324d7806c146110fe5782632d06177a146110ae5782632f2ff15d1461101257826335556fe314610ff8578263363bf96414610f1157826336568abe14610e80578263377e32e614610e3057826350d2a27614610deb578263550d01a314610dad57826363a8fd8914610d8b5782636f5b142b14610d625782636fb7f55814610d395782637048027514610c96578263715018a614610c7057826375829def14610c5457826386ad05b614610c0057826388fd8a91146109de5782638cfc9347146109b05782638f32d59b1461097d57826391d1485414610935578263a217fddf1461091a578263a2cc0979146108dc578263ac18de43146108ae578263b30347c014610870578263b911135f1461083c578263bbfcfc1e14610789578263c81ae6db14610564578263c87957e71461053f578263cc48b94714610516578263d00491c614610455578263d547741f1461041a578263ec87621c146103f1578263f1b538b2146103b5578263f2fde38b1461026c57508163f3ae241514610214575063f8b91abe146101f557600080fd5b3461021157806003193601126102115761020e33611a19565b80f35b80fd5b9050346102685760203660031901126102685760ff81602093610235611443565b600080516020611d708339815191528252600586528282206001600160a01b039091168252855220549151911615158152f35b5080fd5b9150346103b1576020806003193601126103ad57610288611443565b610299610294336114a4565b611ace565b6102a5610294336114a4565b6001600160a01b031692831561036c578333146103325750838052600581526102d3600183862001546114e1565b83805260058152818420838552815260ff8285205416156102f9575b8361020e33611888565b8380526005815281842083855290528220805460ff19166001179055339082600080516020611d508339815191528180a43880806102ef565b915162461bcd60e51b815291820152601660248201527520b1b1b2b9b9b4b136329d1039b0b6b29030b236b4b760511b6044820152606490fd5b915162461bcd60e51b815291820152601860248201527f41636365737369626c653a207a65726f206164647265737300000000000000006044820152606490fd5b8380fd5b8280fd5b8382346102685760203660031901126102685760209160ff9082906001600160a01b036103e0611443565b168152600985522054169051908152f35b83823461026857816003193601126102685760209051600080516020611d708339815191528152f35b9150346103b157806003193601126103b15761020e9135610450600161043e61145e565b938387526005602052862001546114e1565b611a76565b83823461026857602090816003193601126103b157610472611443565b9061047f610294336114a4565b600080516020611d9083398151915292838552600581526104a5600183872001546114e1565b838552600581528185206001600160a01b039093168086529281528185205460ff166104cf578480f35b8385526005815281852083865290528320805460ff1916905533917ff6391f5c32d9c69d2a47ea670b442974b53935d1edc7fd64eb21e047a839171b8480a4818080808480f35b83823461026857816003193601126102685760085490516001600160a01b039091168152602090f35b8382346102685760209061055b61055536611474565b90611bdc565b90519015158152f35b9150346103b1576020928360031936011261021157610581611443565b928193818660018060a01b038093168086526009825260ff8787205416600181146000146106a35750865163078f29cf60e01b815292839182905afa908115610699579180918893869161066c575b501690818552600a835260ff86862054166105f2575b50505050505b51908152f35b6024919293949596506008541693865194859384926370a0823160e01b84528301525afa918215610661578092610631575b50509038808481806105e6565b9091508382813d831161065a575b6106498183611850565b810103126102115750513880610624565b503d61063f565b8351903d90823e3d90fd5b61068c9150843d8611610692575b6106848183611850565b810190611bbd565b386105d0565b503d61067a565b85513d86823e3d90fd5b6002919350146106b8575b50505050506105ec565b8551630a49cb0360e01b8152918290859082905afa908115610699579180918893869161076c575b501690818552600b835260ff86862054166106fd575b50816106ae565b6024919293949596506008541693865194859384926370a0823160e01b84528301525afa91821561066157809261073c575b50509038808481806106f6565b9091508382813d8311610765575b6107548183611850565b81010312610211575051388061072f565b503d61074a565b6107839150843d8611610692576106848183611850565b386106e0565b83823461026857602090816003193601126103b1576107a6611443565b906107b3610294336114a4565b600080516020611d9083398151915292838552600581526107d9600183872001546114e1565b838552600581528185206001600160a01b039093168086529281528185205460ff1615610804578480f35b8385526005815281852083865290528320805460ff191660011790553391600080516020611d508339815191528480a4818080808480f35b909150346103b15760203660031901126103b15735825260016020908152918190205490516001600160a01b039091168152f35b8382346102685760203660031901126102685760209160ff9082906001600160a01b0361089b611443565b168152600a855220541690519015158152f35b83346102115760203660031901126102115761020e6108cb611443565b6108d7610294336114a4565b611a19565b8382346102685760203660031901126102685760209160ff9082906001600160a01b03610907611443565b168152600b855220541690519015158152f35b83823461026857816003193601126102685751908152602090f35b909150346103b157816003193601126103b1578160209360ff9261095761145e565b90358252600586528282206001600160a01b039091168252855220549151911615158152f35b83823461026857816003193601126102685760ff8183806020955260058552818120338252855220541690519015158152f35b83346102115760203660031901126102115761020e6109cd611443565b6109d9610294336114a4565b611977565b909150346103b1576109ef36611474565b91600080516020611d9083398151915285526020600581528486203387528152610a1e60ff8688205416611b61565b60ff8416918215610bd35760028311610b9f576001600160a01b03848116808952600984528789205491929160ff16610b6757610a5b8787611bdc565b15610b24578084918a5260098252888a2060ff19968782541617905588519283809263078f29cf60e01b82525afa908115610b1a5792610af79492600a927f79eefea257174230e670ff164aa671d366309ed73293a7d0c422477aeff3e21099958b91610afd575b501689525281872080549091166001179055516001600160a01b03909216825260ff90921660208201529081906040820190565b0390a180f35b610b149150833d8511610692576106848183611850565b38610ac3565b87513d8a823e3d90fd5b875162461bcd60e51b8152808301859052601c60248201527f756e617661696c61626c6520666f7220726567697374726174696f6e000000006044820152606490fd5b875162461bcd60e51b81528083018590526012602482015271185b1c9958591e481c9959da5cdd195c995960721b6044820152606490fd5b60649186519162461bcd60e51b8352820152601060248201526f756e737570706f72746564207479706560801b6044820152fd5b60649186519162461bcd60e51b835282015260096024820152687a65726f207479706560b81b6044820152fd5b8382346102685760203660031901126102685760ff81602093610c21611443565b600080516020611d908339815191528252600586528282206001600160a01b039091168252855220549151911615158152f35b9150346103b1576020806003193601126103ad57610299611443565b8334610211578060031936011261021157610c8d610294336114a4565b61020e33611888565b83823461026857602090816003193601126103b157610cb3611443565b91610cc0610294336114a4565b83805260058152610cd6600183862001546114e1565b838052600581528184206001600160a01b039093168085529281528184205460ff1615610d01578380f35b8380526005815281842083855290528220805460ff19166001179055339082600080516020611d508339815191528180a48180808380f35b83823461026857816003193601126102685760075490516001600160a01b039091168152602090f35b83823461026857816003193601126102685760209051600080516020611d908339815191528152f35b83823461026857816003193601126102685760ff602092541690519015158152f35b8382346102685760203660031901126102685760209160ff9082906001600160a01b03610dd8611443565b1681526002855220541690519015158152f35b909150346103b15760203660031901126103b1573563ffffffff60e01b81168091036103b157825260036020908152918190205490516001600160a01b039091168152f35b83823461026857602090816003193601126103b157610e4d611443565b90610e5a610294336114a4565b600080516020611d7083398151915292838552600581526104a5600183872001546114e1565b839034610268578260031936011261026857610e9a61145e565b90336001600160a01b03831603610eb6579061020e9135611a76565b608490602085519162461bcd60e51b8352820152602f60248201527f416363657373436f6e74726f6c3a2063616e206f6e6c792072656e6f756e636560448201526e103937b632b9903337b91039b2b63360891b6064820152fd5b83823461026857606036600319011261026857610f2c611443565b610f3461145e565b6001600160a01b03926044358481169190829003610ff457847fbbfb274df95bebde0669697bf0d15986b4ad73e11c495ae4e2d08d1bc5c90bad956060951693610f7f851515611b26565b16610f8b811515611b26565b610f96831515611b26565b8680526005602052818720338852602052610fb660ff8389205416611ace565b826bffffffffffffffffffffffff60a01b8581600654161760065582816007541617600755600854161760085581519384526020840152820152a180f35b8580fd5b833461021157806003193601126102115761020e33611977565b909150346103b157816003193601126103b157359061102f61145e565b908284526005602052611047600182862001546114e1565b828452600560209081528185206001600160a01b039093168086529290528084205460ff1615611075578380f35b82845260056020528084208285526020528320600160ff198254161790553391600080516020611d508339815191528480a43880808380f35b83823461026857602090816003193601126103b1576110cb611443565b906110d8610294336114a4565b600080516020611d7083398151915292838552600581526107d9600183872001546114e1565b8382346102685760203660031901126102685760ff8160209361111f611443565b818052600586528282206001600160a01b039091168252855220549151911615158152f35b909150346103b15760203660031901126103b15781602093600192358152600585522001549051908152f35b83346102115760203660031901126102115761020e61118d611443565b611199610294336114a4565b611888565b83823461026857816003193601126102685760065490516001600160a01b039091168152602090f35b839034610268576111d736611474565b91600080516020611d908339815191528452602060058152858520338652815261120660ff8787205416611b61565b6001600160a01b038316808652600982528686205460ff16156112c5578086526009825260ff87872054169260ff86168094146112965750855260099052848420805460ff1916909117905592516001600160a01b03909316835260ff166020830152907faaca8c26723d15f66bf805bb082d6ed8661aa808aa167a822cb51bce9ccd73e2908060408101610af7565b875162461bcd60e51b8152908101839052600960248201526873616d65207479706560b81b6044820152606490fd5b865162461bcd60e51b8152808401839052600c60248201526b1d5b9c9959da5cdd195c995960a21b6044820152606490fd5b909150346103b15761130836611474565b91600080516020611d708339815191528552602060058152848620338752815260ff8587205416156113715760ff8416918215610bd35760028311610b9f576001600160a01b03848116808952600984528789205491929160ff16610b6757610a5b8787611bdc565b845162461bcd60e51b8152918201526024808201527f41757468436f6e74726f6c3a2043616c6c6572206973206e6f742061206d616e60448201526330b3b2b960e11b606482015260849150fd5b925090346103ad5760203660031901126103ad5781359063ffffffff60e01b821680920361143f57602094637965db0b60e01b8314938415611406575b5050505015158152f35b6301ffc9a760e01b841494509192909190841561142b575b50505050388080806113fc565b60ff9450825285522054163880808061141e565b8480fd5b600435906001600160a01b038216820361145957565b600080fd5b602435906001600160a01b038216820361145957565b6040906003190112611459576004356001600160a01b0381168103611459579060243560ff811681036114595790565b6001600160a01b031660009081527f05b8ccbb9d4d8fb16ea74ce3c29a41f1b461fbdaff4714a0d9a8eb05499746bc602052604090205460ff1690565b60009080825260209060058252604090818420338552835260ff82852054161561150b5750505050565b81519367ffffffffffffffff336060870182811188821017611819578552602a8752858701938536863787511561180557603085538751916001928310156117f157607860218a015360295b838111611787575061174557908551926080840190848210908211176117315786526042835286830193606036863783511561171d5760308553835182101561171d5790607860218501536041915b8183116116af5750505061166d579261163b604861162c979461165f946044989785519a8b936116038b86019a7f416363657373436f6e74726f6c3a206163636f756e74200000000000000000008c52518092603788019061182d565b8401917001034b99036b4b9b9b4b733903937b6329607d1b60378401525180938684019061182d565b01036028810189520187611850565b5194859362461bcd60e51b855260048501525180928160248601528585019061182d565b601f01601f19168101030190fd5b60648585519062461bcd60e51b825280600483015260248201527f537472696e67733a20686578206c656e67746820696e73756666696369656e746044820152fd5b909192600f81166010811015611709576f181899199a1a9b1b9c1cb0b131b232b360811b901a6116df8587611aa7565b5360041c9280156116f5576000190191906115a6565b634e487b7160e01b82526011600452602482fd5b634e487b7160e01b83526032600452602483fd5b634e487b7160e01b81526032600452602490fd5b634e487b7160e01b85526041600452602485fd5b60648787519062461bcd60e51b825280600483015260248201527f537472696e67733a20686578206c656e67746820696e73756666696369656e746044820152fd5b90600f811660108110156117dd576f181899199a1a9b1b9c1cb0b131b232b360811b901a6117b5838c611aa7565b5360041c9080156117c95760001901611557565b634e487b7160e01b86526011600452602486fd5b634e487b7160e01b87526032600452602487fd5b634e487b7160e01b85526032600452602485fd5b634e487b7160e01b84526032600452602484fd5b634e487b7160e01b84526041600452602484fd5b60005b8381106118405750506000910152565b8181015183820152602001611830565b90601f8019910116810190811067ffffffffffffffff82111761187257604052565b634e487b7160e01b600052604160045260246000fd5b6001600160a01b031633810361191a5760008181527f05b8ccbb9d4d8fb16ea74ce3c29a41f1b461fbdaff4714a0d9a8eb05499746bc602052604081205490919060ff166118d4575050565b8180526005602052604082208183526020526040822060ff19815416905533917ff6391f5c32d9c69d2a47ea670b442974b53935d1edc7fd64eb21e047a839171b8180a4565b60405162461bcd60e51b815260206004820152602f60248201527f416363657373436f6e74726f6c3a2063616e206f6e6c792072656e6f756e636560448201526e103937b632b9903337b91039b2b63360891b6064820152608490fd5b6001600160a01b031633810361191a5760008181527f495d3ec9f3ad8ec6f8443b0a39852d56b07f6b1efbf2c51564addb326b8397866020526040812054909190600080516020611d908339815191529060ff166119d457505050565b8083526005602052604083208284526020526040832060ff1981541690557ff6391f5c32d9c69d2a47ea670b442974b53935d1edc7fd64eb21e047a839171b339380a4565b6001600160a01b031633810361191a5760008181527f67f351182989509d05df317024ac600e03d0c404c1b07ecdc5d72ea1208a722a6020526040812054909190600080516020611d708339815191529060ff166119d457505050565b906000918083526005602052604083209160018060a01b03169182845260205260ff6040842054166119d457505050565b908151811015611ab8570160200190565b634e487b7160e01b600052603260045260246000fd5b15611ad557565b60405162461bcd60e51b815260206004820152602360248201527f41757468436f6e74726f6c3a2043616c6c6572206973206e6f7420616e20616460448201526236b4b760e91b6064820152608490fd5b15611b2d57565b60405162461bcd60e51b815260206004820152600c60248201526b7a65726f206164647265737360a01b6044820152606490fd5b15611b6857565b60405162461bcd60e51b815260206004820152602760248201527f41757468436f6e74726f6c3a2043616c6c6572206973206e6f742061207265676044820152661a5cdd1c985b9d60ca1b6064820152608490fd5b9081602091031261145957516001600160a01b03811681036114595790565b6040805163078f29cf60e01b8152600094939285916020916001600160a01b03908116918381600481865afa908115611d45579082918691611d28575b50169586611c2b575b50505050505050565b60ff1660018103611c8257505082526009815260ff8383205416159384611c6b575b50505050611c62575b38808080808080611c22565b60019150611c56565b8252600a9052205460ff1615905038808080611c4d565b60029192965014611c98575b5050505050611c56565b8351630a49cb0360e01b81528281600481895afa908115610699578491611d0b575b5016938415611c8e5782526009815260ff8383205416159384611cf4575b50505050611ceb575b3880808080611c8e565b60019150611ce1565b8252600b9052205460ff1615905038808080611cd8565b611d229150833d8511610692576106848183611850565b38611cba565b611d3f9150853d8711610692576106848183611850565b38611c19565b86513d87823e3d90fdfe2f8788117e7eff1d82e926ec794901d17c78024a50270940304540a733656f0daf290d8680820aad922855f39b306097b20e28774d6c1ad35a20325630c3a02c12090aa55130d5a2442eb84fc286ca6e600db6c50b6c5d9b6d0d929f0e2d8ce8a164736f6c6343000813000a",
  "linkReferences": {},
  "deployedLinkReferences": {}
}