{
  "_format": "hh-sol-artifact-1",
  "contractName": "DAOCommitteeOwner",
  "sourceName": "contracts/dao/DAOCommitteeOwner.sol",
  "abi": [
    {
      "anonymous": false,
      "inputs": [
        {
          "indexed": false,
          "internalType": "uint256",
          "name": "newReward",
          "type": "uint256"
        }
      ],
      "name": "ActivityRewardChanged",
      "type": "event"
    },
    {
      "anonymous": false,
      "inputs": [
        {
          "indexed": true,
          "internalType": "uint256",
          "name": "slotIndex",
          "type": "uint256"
        },
        {
          "indexed": false,
          "internalType": "address",
          "name": "prevMember",
          "type": "address"
        },
        {
          "indexed": true,
          "internalType": "address",
          "name": "newMember",
          "type": "address"
        }
      ],
      "name": "ChangedMember",
      "type": "event"
    },
    {
      "anonymous": false,
      "inputs": [
        {
          "indexed": true,
          "internalType": "uint256",
          "name": "prevSlotMax",
          "type": "uint256"
        },
        {
          "indexed": true,
          "internalType": "uint256",
          "name": "slotMax",
          "type": "uint256"
        }
      ],
      "name": "ChangedSlotMaximum",
      "type": "event"
    },
    {
      "anonymous": false,
      "inputs": [
        {
          "indexed": false,
          "internalType": "uint256",
          "name": "newQuorum",
          "type": "uint256"
        }
      ],
      "name": "QuorumChanged",
      "type": "event"
    },
    {
      "anonymous": false,
      "inputs": [
        {
          "indexed": true,
          "internalType": "bytes32",
          "name": "role",
          "type": "bytes32"
        },
        {
          "indexed": true,
          "internalType": "bytes32",
          "name": "previousAdminRole",
          "type": "bytes32"
        },
        {
          "indexed": true,
          "internalType": "bytes32",
          "name": "newAdminRole",
          "type": "bytes32"
        }
      ],
      "name": "RoleAdminChanged",
      "type": "event"
    },
    {
      "anonymous": false,
      "inputs": [
        {
          "indexed": true,
          "internalType": "bytes32",
          "name": "role",
          "type": "bytes32"
        },
        {
          "indexed": true,
          "internalType": "address",
          "name": "account",
          "type": "address"
        },
        {
          "indexed": true,
          "internalType": "address",
          "name": "sender",
          "type": "address"
        }
      ],
      "name": "RoleGranted",
      "type": "event"
    },
    {
      "anonymous": false,
      "inputs": [
        {
          "indexed": true,
          "internalType": "bytes32",
          "name": "role",
          "type": "bytes32"
        },
        {
          "indexed": true,
          "internalType": "address",
          "name": "account",
          "type": "address"
        },
        {
          "indexed": true,
          "internalType": "address",
          "name": "sender",
          "type": "address"
        }
      ],
      "name": "RoleRevoked",
      "type": "event"
    },
    {
      "inputs": [],
      "name": "DEFAULT_ADMIN_ROLE",
      "outputs": [
        {
          "internalType": "bytes32",
          "name": "",
          "type": "bytes32"
        }
      ],
      "stateMutability": "view",
      "type": "function"
    },
    {
      "inputs": [],
      "name": "activityRewardPerSecond",
      "outputs": [
        {
          "internalType": "uint256",
          "name": "",
          "type": "uint256"
        }
      ],
      "stateMutability": "view",
      "type": "function"
    },
    {
      "inputs": [],
      "name": "agendaManager",
      "outputs": [
        {
          "internalType": "contract IDAOAgendaManager",
          "name": "",
          "type": "address"
        }
      ],
      "stateMutability": "view",
      "type": "function"
    },
    {
      "inputs": [
        {
          "internalType": "address",
          "name": "",
          "type": "address"
        }
      ],
      "name": "aliveImplementation",
      "outputs": [
        {
          "internalType": "bool",
          "name": "",
          "type": "bool"
        }
      ],
      "stateMutability": "view",
      "type": "function"
    },
    {
      "inputs": [],
      "name": "candidateAddOnFactory",
      "outputs": [
        {
          "internalType": "address",
          "name": "",
          "type": "address"
        }
      ],
      "stateMutability": "view",
      "type": "function"
    },
    {
      "inputs": [
        {
          "internalType": "address",
          "name": "_candidate",
          "type": "address"
        }
      ],
      "name": "candidateContract",
      "outputs": [
        {
          "internalType": "address",
          "name": "",
          "type": "address"
        }
      ],
      "stateMutability": "view",
      "type": "function"
    },
    {
      "inputs": [],
      "name": "candidateFactory",
      "outputs": [
        {
          "internalType": "contract ICandidateFactory",
          "name": "",
          "type": "address"
        }
      ],
      "stateMutability": "view",
      "type": "function"
    },
    {
      "inputs": [
        {
          "internalType": "address",
          "name": "_candidate",
          "type": "address"
        }
      ],
      "name": "candidateInfos",
      "outputs": [
        {
          "components": [
            {
              "internalType": "address",
              "name": "candidateContract",
              "type": "address"
            },
            {
              "internalType": "uint256",
              "name": "indexMembers",
              "type": "uint256"
            },
            {
              "internalType": "uint128",
              "name": "memberJoinedTime",
              "type": "uint128"
            },
            {
              "internalType": "uint128",
              "name": "rewardPeriod",
              "type": "uint128"
            },
            {
              "internalType": "uint128",
              "name": "claimedTimestamp",
              "type": "uint128"
            }
          ],
          "internalType": "struct StorageStateCommittee.CandidateInfo",
          "name": "",
          "type": "tuple"
        }
      ],
      "stateMutability": "view",
      "type": "function"
    },
    {
      "inputs": [
        {
          "internalType": "uint256",
          "name": "",
          "type": "uint256"
        }
      ],
      "name": "candidates",
      "outputs": [
        {
          "internalType": "address",
          "name": "",
          "type": "address"
        }
      ],
      "stateMutability": "view",
      "type": "function"
    },
    {
      "inputs": [],
      "name": "daoVault",
      "outputs": [
        {
          "internalType": "contract IDAOVault",
          "name": "",
          "type": "address"
        }
      ],
      "stateMutability": "view",
      "type": "function"
    },
    {
      "inputs": [
        {
          "internalType": "uint256",
          "name": "_reducingMemberIndex",
          "type": "uint256"
        },
        {
          "internalType": "uint256",
          "name": "_quorum",
          "type": "uint256"
        }
      ],
      "name": "decreaseMaxMember",
      "outputs": [],
      "stateMutability": "nonpayable",
      "type": "function"
    },
    {
      "inputs": [
        {
          "internalType": "bytes32",
          "name": "role",
          "type": "bytes32"
        }
      ],
      "name": "getRoleAdmin",
      "outputs": [
        {
          "internalType": "bytes32",
          "name": "",
          "type": "bytes32"
        }
      ],
      "stateMutability": "view",
      "type": "function"
    },
    {
      "inputs": [
        {
          "internalType": "bytes32",
          "name": "role",
          "type": "bytes32"
        },
        {
          "internalType": "uint256",
          "name": "index",
          "type": "uint256"
        }
      ],
      "name": "getRoleMember",
      "outputs": [
        {
          "internalType": "address",
          "name": "",
          "type": "address"
        }
      ],
      "stateMutability": "view",
      "type": "function"
    },
    {
      "inputs": [
        {
          "internalType": "bytes32",
          "name": "role",
          "type": "bytes32"
        }
      ],
      "name": "getRoleMemberCount",
      "outputs": [
        {
          "internalType": "uint256",
          "name": "",
          "type": "uint256"
        }
      ],
      "stateMutability": "view",
      "type": "function"
    },
    {
      "inputs": [
        {
          "internalType": "bytes32",
          "name": "role",
          "type": "bytes32"
        },
        {
          "internalType": "address",
          "name": "account",
          "type": "address"
        }
      ],
      "name": "grantRole",
      "outputs": [],
      "stateMutability": "nonpayable",
      "type": "function"
    },
    {
      "inputs": [
        {
          "internalType": "bytes32",
          "name": "role",
          "type": "bytes32"
        },
        {
          "internalType": "address",
          "name": "account",
          "type": "address"
        }
      ],
      "name": "hasRole",
      "outputs": [
        {
          "internalType": "bool",
          "name": "",
          "type": "bool"
        }
      ],
      "stateMutability": "view",
      "type": "function"
    },
    {
      "inputs": [
        {
          "internalType": "uint256",
          "name": "_newMaxMember",
          "type": "uint256"
        },
        {
          "internalType": "uint256",
          "name": "_quorum",
          "type": "uint256"
        }
      ],
      "name": "increaseMaxMember",
      "outputs": [],
      "stateMutability": "nonpayable",
      "type": "function"
    },
    {
      "inputs": [
        {
          "internalType": "address",
          "name": "_candidate",
          "type": "address"
        }
      ],
      "name": "isMember",
      "outputs": [
        {
          "internalType": "bool",
          "name": "",
          "type": "bool"
        }
      ],
      "stateMutability": "view",
      "type": "function"
    },
    {
      "inputs": [],
      "name": "layer2Manager",
      "outputs": [
        {
          "internalType": "address",
          "name": "",
          "type": "address"
        }
      ],
      "stateMutability": "view",
      "type": "function"
    },
    {
      "inputs": [],
      "name": "layer2Registry",
      "outputs": [
        {
          "internalType": "contract ILayer2Registry",
          "name": "",
          "type": "address"
        }
      ],
      "stateMutability": "view",
      "type": "function"
    },
    {
      "inputs": [],
      "name": "maxMember",
      "outputs": [
        {
          "internalType": "uint256",
          "name": "",
          "type": "uint256"
        }
      ],
      "stateMutability": "view",
      "type": "function"
    },
    {
      "inputs": [
        {
          "internalType": "uint256",
          "name": "",
          "type": "uint256"
        }
      ],
      "name": "members",
      "outputs": [
        {
          "internalType": "address",
          "name": "",
          "type": "address"
        }
      ],
      "stateMutability": "view",
      "type": "function"
    },
    {
      "inputs": [],
      "name": "pauseProxy",
      "outputs": [
        {
          "internalType": "bool",
          "name": "",
          "type": "bool"
        }
      ],
      "stateMutability": "view",
      "type": "function"
    },
    {
      "inputs": [
        {
          "internalType": "uint256",
          "name": "",
          "type": "uint256"
        }
      ],
      "name": "proxyImplementation",
      "outputs": [
        {
          "internalType": "address",
          "name": "",
          "type": "address"
        }
      ],
      "stateMutability": "view",
      "type": "function"
    },
    {
      "inputs": [],
      "name": "quorum",
      "outputs": [
        {
          "internalType": "uint256",
          "name": "",
          "type": "uint256"
        }
      ],
      "stateMutability": "view",
      "type": "function"
    },
    {
      "inputs": [
        {
          "internalType": "bytes32",
          "name": "role",
          "type": "bytes32"
        },
        {
          "internalType": "address",
          "name": "account",
          "type": "address"
        }
      ],
      "name": "renounceRole",
      "outputs": [],
      "stateMutability": "nonpayable",
      "type": "function"
    },
    {
      "inputs": [
        {
          "internalType": "bytes32",
          "name": "role",
          "type": "bytes32"
        },
        {
          "internalType": "address",
          "name": "account",
          "type": "address"
        }
      ],
      "name": "revokeRole",
      "outputs": [],
      "stateMutability": "nonpayable",
      "type": "function"
    },
    {
      "inputs": [],
      "name": "seigManager",
      "outputs": [
        {
          "internalType": "contract ISeigManager",
          "name": "",
          "type": "address"
        }
      ],
      "stateMutability": "view",
      "type": "function"
    },
    {
      "inputs": [
        {
          "internalType": "bytes4",
          "name": "",
          "type": "bytes4"
        }
      ],
      "name": "selectorImplementation",
      "outputs": [
        {
          "internalType": "address",
          "name": "",
          "type": "address"
        }
      ],
      "stateMutability": "view",
      "type": "function"
    },
    {
      "inputs": [
        {
          "internalType": "uint256",
          "name": "_value",
          "type": "uint256"
        }
      ],
      "name": "setActivityRewardPerSecond",
      "outputs": [],
      "stateMutability": "nonpayable",
      "type": "function"
    },
    {
      "inputs": [
        {
          "internalType": "address",
          "name": "_agendaManager",
          "type": "address"
        }
      ],
      "name": "setAgendaManager",
      "outputs": [],
      "stateMutability": "nonpayable",
      "type": "function"
    },
    {
      "inputs": [
        {
          "internalType": "uint256",
          "name": "_burnAmount",
          "type": "uint256"
        }
      ],
      "name": "setBurntAmountAtDAO",
      "outputs": [],
      "stateMutability": "nonpayable",
      "type": "function"
    },
    {
      "inputs": [
        {
          "internalType": "address",
          "name": "_candidateAddOnFactory",
          "type": "address"
        }
      ],
      "name": "setCandidateAddOnFactory",
      "outputs": [],
      "stateMutability": "nonpayable",
      "type": "function"
    },
    {
      "inputs": [
        {
          "internalType": "address",
          "name": "_candidateFactory",
          "type": "address"
        }
      ],
      "name": "setCandidateFactory",
      "outputs": [],
      "stateMutability": "nonpayable",
      "type": "function"
    },
    {
      "inputs": [
        {
          "internalType": "address[]",
          "name": "_candidateContracts",
          "type": "address[]"
        },
        {
          "internalType": "address",
          "name": "_committee",
          "type": "address"
        }
      ],
      "name": "setCandidatesCommittee",
      "outputs": [],
      "stateMutability": "nonpayable",
      "type": "function"
    },
    {
      "inputs": [
        {
          "internalType": "address[]",
          "name": "_candidateContracts",
          "type": "address[]"
        },
        {
          "internalType": "address",
          "name": "_seigManager",
          "type": "address"
        }
      ],
      "name": "setCandidatesSeigManager",
      "outputs": [],
      "stateMutability": "nonpayable",
      "type": "function"
    },
    {
      "inputs": [
        {
          "internalType": "uint256",
          "name": "_fees",
          "type": "uint256"
        }
      ],
      "name": "setCreateAgendaFees",
      "outputs": [],
      "stateMutability": "nonpayable",
      "type": "function"
    },
    {
      "inputs": [
        {
          "internalType": "address",
          "name": "_daoVault",
          "type": "address"
        }
      ],
      "name": "setDaoVault",
      "outputs": [],
      "stateMutability": "nonpayable",
      "type": "function"
    },
    {
      "inputs": [
        {
          "internalType": "uint256",
          "name": "_executingPeriodSeconds",
          "type": "uint256"
        }
      ],
      "name": "setExecutingPeriodSeconds",
      "outputs": [],
      "stateMutability": "nonpayable",
      "type": "function"
    },
    {
      "inputs": [
        {
          "internalType": "address",
          "name": "_layer2Manager",
          "type": "address"
        }
      ],
      "name": "setLayer2Manager",
      "outputs": [],
      "stateMutability": "nonpayable",
      "type": "function"
    },
    {
      "inputs": [
        {
          "internalType": "address",
          "name": "_layer2Registry",
          "type": "address"
        }
      ],
      "name": "setLayer2Registry",
      "outputs": [],
      "stateMutability": "nonpayable",
      "type": "function"
    },
    {
      "inputs": [
        {
          "internalType": "uint256",
          "name": "_minimumNoticePeriod",
          "type": "uint256"
        }
      ],
      "name": "setMinimumNoticePeriodSeconds",
      "outputs": [],
      "stateMutability": "nonpayable",
      "type": "function"
    },
    {
      "inputs": [
        {
          "internalType": "uint256",
          "name": "_minimumVotingPeriod",
          "type": "uint256"
        }
      ],
      "name": "setMinimumVotingPeriodSeconds",
      "outputs": [],
      "stateMutability": "nonpayable",
      "type": "function"
    },
    {
      "inputs": [
        {
          "internalType": "uint256",
          "name": "_quorum",
          "type": "uint256"
        }
      ],
      "name": "setQuorum",
      "outputs": [],
      "stateMutability": "nonpayable",
      "type": "function"
    },
    {
      "inputs": [
        {
          "internalType": "address",
          "name": "_seigManager",
          "type": "address"
        }
      ],
      "name": "setSeigManager",
      "outputs": [],
      "stateMutability": "nonpayable",
      "type": "function"
    },
    {
      "inputs": [],
      "name": "setSeigPause",
      "outputs": [],
      "stateMutability": "nonpayable",
      "type": "function"
    },
    {
      "inputs": [],
      "name": "setSeigUnpause",
      "outputs": [],
      "stateMutability": "nonpayable",
      "type": "function"
    },
    {
      "inputs": [
        {
          "internalType": "address",
          "name": "token",
          "type": "address"
        },
        {
          "internalType": "address",
          "name": "account",
          "type": "address"
        }
      ],
      "name": "setTargetAddMinter",
      "outputs": [],
      "stateMutability": "nonpayable",
      "type": "function"
    },
    {
      "inputs": [
        {
          "internalType": "address",
          "name": "target",
          "type": "address"
        },
        {
          "internalType": "uint256",
          "name": "globalWithdrawalDelay_",
          "type": "uint256"
        }
      ],
      "name": "setTargetGlobalWithdrawalDelay",
      "outputs": [],
      "stateMutability": "nonpayable",
      "type": "function"
    },
    {
      "inputs": [
        {
          "internalType": "address",
          "name": "target",
          "type": "address"
        },
        {
          "internalType": "uint256",
          "name": "startBlock_",
          "type": "uint256"
        }
      ],
      "name": "setTargetLayer2StartBlock",
      "outputs": [],
      "stateMutability": "nonpayable",
      "type": "function"
    },
    {
      "inputs": [
        {
          "internalType": "address",
          "name": "target",
          "type": "address"
        },
        {
          "internalType": "address",
          "name": "_seigManager",
          "type": "address"
        }
      ],
      "name": "setTargetSeigManager",
      "outputs": [],
      "stateMutability": "nonpayable",
      "type": "function"
    },
    {
      "inputs": [
        {
          "internalType": "address",
          "name": "target",
          "type": "address"
        },
        {
          "internalType": "address",
          "name": "newImplementation",
          "type": "address"
        },
        {
          "internalType": "uint256",
          "name": "index",
          "type": "uint256"
        },
        {
          "internalType": "bool",
          "name": "alive",
          "type": "bool"
        }
      ],
      "name": "setTargetSetImplementation2",
      "outputs": [],
      "stateMutability": "nonpayable",
      "type": "function"
    },
    {
      "inputs": [
        {
          "internalType": "address",
          "name": "target",
          "type": "address"
        },
        {
          "internalType": "address",
          "name": "l1BridgeRegistry_",
          "type": "address"
        }
      ],
      "name": "setTargetSetL1BridgeRegistry",
      "outputs": [],
      "stateMutability": "nonpayable",
      "type": "function"
    },
    {
      "inputs": [
        {
          "internalType": "address",
          "name": "target",
          "type": "address"
        },
        {
          "internalType": "address",
          "name": "layer2Manager_",
          "type": "address"
        }
      ],
      "name": "setTargetSetLayer2Manager",
      "outputs": [],
      "stateMutability": "nonpayable",
      "type": "function"
    },
    {
      "inputs": [
        {
          "internalType": "address",
          "name": "target",
          "type": "address"
        },
        {
          "internalType": "bytes4[]",
          "name": "_selectors",
          "type": "bytes4[]"
        },
        {
          "internalType": "address",
          "name": "_imp",
          "type": "address"
        }
      ],
      "name": "setTargetSetSelectorImplementations2",
      "outputs": [],
      "stateMutability": "nonpayable",
      "type": "function"
    },
    {
      "inputs": [
        {
          "internalType": "address",
          "name": "target",
          "type": "address"
        },
        {
          "internalType": "address",
          "name": "tonAddr",
          "type": "address"
        }
      ],
      "name": "setTargetSetTON",
      "outputs": [],
      "stateMutability": "nonpayable",
      "type": "function"
    },
    {
      "inputs": [
        {
          "internalType": "address",
          "name": "target",
          "type": "address"
        },
        {
          "internalType": "address",
          "name": "wtonAddr",
          "type": "address"
        }
      ],
      "name": "setTargetSetWTON",
      "outputs": [],
      "stateMutability": "nonpayable",
      "type": "function"
    },
    {
      "inputs": [
        {
          "internalType": "address",
          "name": "target",
          "type": "address"
        },
        {
          "internalType": "address",
          "name": "logic",
          "type": "address"
        }
      ],
      "name": "setTargetUpgradeTo",
      "outputs": [],
      "stateMutability": "nonpayable",
      "type": "function"
    },
    {
      "inputs": [
        {
          "internalType": "address",
          "name": "_ton",
          "type": "address"
        }
      ],
      "name": "setTon",
      "outputs": [],
      "stateMutability": "nonpayable",
      "type": "function"
    },
    {
      "inputs": [
        {
          "internalType": "address",
          "name": "_wton",
          "type": "address"
        }
      ],
      "name": "setWton",
      "outputs": [],
      "stateMutability": "nonpayable",
      "type": "function"
    },
    {
      "inputs": [
        {
          "internalType": "bytes4",
          "name": "interfaceId",
          "type": "bytes4"
        }
      ],
      "name": "supportsInterface",
      "outputs": [
        {
          "internalType": "bool",
          "name": "",
          "type": "bool"
        }
      ],
      "stateMutability": "view",
      "type": "function"
    },
    {
      "inputs": [],
      "name": "ton",
      "outputs": [
        {
          "internalType": "address",
          "name": "",
          "type": "address"
        }
      ],
      "stateMutability": "view",
      "type": "function"
    },
    {
      "inputs": [],
      "name": "wton",
      "outputs": [
        {
          "internalType": "address",
          "name": "",
          "type": "address"
        }
      ],
      "stateMutability": "view",
      "type": "function"
    }
  ],
  "bytecode": "0x60808060405234610052576301ffc9a760e01b600052600d6020527f49c01d976ca1c616ed1de1469e98d664903a805642011c315785aa325a483c71805460ff19166001179055612b4690816100588239f35b600080fdfe6080604081815260048036101561001557600080fd5b600092833560e01c90816301ffc9a7146126345750806303e3c9ac14612615578063047f52f2146125965780630c536c52146124e8578381630ef646ad1461244d5750806316b5d5bd146124245780631703a018146124055783816323d09fdf1461236b57508063248a9ca31461234157806327fd92fd146123185780632af60ff4146122945780632e011c1e146121cd5780632f2ff15d146120ce578063342478c214611f935780633477ee2e14611f3957806336568abe14611ea75783816338d1b17c14611e1457508063401e23e614611d9557806349c39f1414611d16578381634a15efa714611c53575080634b799db114611bd45780634d288fec14611b55578381634e24ce4914611aba5750806350d2a27614611a7757806350e8f17d146116c2578063550d01a3146116845780635903bd6c1461165b578381635c43030f14611583575080635daf08ca146115595780635ebe7622146114c357806363a8fd891461149c578063651d08cd1461146157838163691542951461137657816369b1227a146112dc575080636da8f3ce1461102e5780636fb7f5581461100557806374d58f4814610eee5780637536281914610ec55780637657f20a14610e465780637f33163614610e275783816381bfe42c14610da1575080638d62d94914610d785780639010d07c14610cdb57806391d1485414610c86578381639d65b53114610beb578163a1f3ac2a14610b5057508063a217fddf14610b35578063a230c52414610aed578063aef2c58514610a6e57838163b4f69b6a146109d457508063b5dd1158146109ab578063b911135f14610979578063baa12536146108ed57838163c0bc53041461085357508063c1ba4e59146106ec578063ca15c873146106c5578063cc48b9471461069d578063cf2a239c14610672578063d547741f146105b457838163e9152a3314610517578163e93d3a1d1461047c578163ebf97be6146103d3575063efd57979146102f057600080fd5b8291346103cf57826003193601126103cf578051632474521560e21b8152828101849052336024820152602081604481305afa9081156103c5579061033c918591610397575b506129c3565b6005546001600160a01b031691823b15610392578151638456cb5960e01b81529284918491829084905af190811561038957506103765750f35b61037f90612959565b6103865780f35b80fd5b513d84823e3d90fd5b505050fd5b6103b8915060203d81116103be575b6103b08183612989565b8101906129ab565b38610336565b503d6103a6565b82513d86823e3d90fd5b5050fd5b929050346103cf57806003193601126103cf576103ee612687565b6103f661269d565b908251632474521560e21b81528585820152336024820152602081604481305afa908115610472579061042f91879161039757506129c3565b6001600160a01b03908116803b1561046e5785928360249286519788958694631b2ce7f360e11b865216908401525af190811561038957506103765750f35b8580fd5b84513d88823e3d90fd5b929050346103cf57806003193601126103cf57610497612687565b61049f61269d565b908251632474521560e21b81528585820152336024820152602081604481305afa90811561047257906104d891879161039757506129c3565b6001600160a01b03908116803b1561046e5785928360249286519788958694630c1da8df60e01b865216908401525af190811561038957506103765750f35b929050346103cf57806003193601126103cf57610532612687565b8151632474521560e21b8152838101859052336024820152602081604481305afa9081156105aa579061056b91869161039757506129c3565b6001600160a01b031691823b15610392578392602484928451958693849263ac28e2ed60e01b84528435908401525af190811561038957506103765750f35b83513d87823e3d90fd5b5082903461066e578260031936011261066e5780356105d161269d565b91818452600c6020526002858520015484526105ff3386862060019160005201602052604060002054151590565b1561061257509061060f916127a2565b80f35b608490602086519162461bcd60e51b8352820152603060248201527f416363657373436f6e74726f6c3a2073656e646572206d75737420626520616e60448201526f2061646d696e20746f207265766f6b6560801b6064820152fd5b5080fd5b50346106995782600319360112610699575490516001600160a01b03909116815260209150f35b8280fd5b50503461066e578160031936011261066e57905490516001600160a01b039091168152602090f35b5034610699576020366003190112610699576020928291358152600c845220549051908152f35b5082903461066e5760209081600319360112610699578035908451632474521560e21b815284828201523360248201528381604481305afa908115610849579061073c91869161082c57506129c3565b600254610753906001600160a01b03161515612a5b565b6008548060011c8311156107e957821161079757507f027863d12a407097e086a48e36475bfc859d0b200b7e6f65b5fd3b218e46632e929381600a5551908152a180f35b845162461bcd60e51b8152908101839052602660248201527f44414f436f6d6d69747465653a2071756f72756d20657863656564206d61782060448201526536b2b6b132b960d11b6064820152608490fd5b855162461bcd60e51b8152808301859052601c60248201527f44414f436f6d6d69747465653a20696e76616c69642071756f72756d000000006044820152606490fd5b6108439150853d87116103be576103b08183612989565b87610336565b86513d87823e3d90fd5b929050346103cf5760203660031901126103cf578051632474521560e21b8152828101849052336024820152602081604481305afa9081156103c557906108a091859161039757506129c3565b6002546001600160a01b0316916108b8831515612a5b565b823b15610392578392602484928451958693849263302f14c160e21b84528035908401525af190811561038957506103765750f35b503461069957602036600319011261069957610907612687565b8251632474521560e21b815291820184905233602483015290602081604481305afa90811561096c57610942929350849161039757506129c3565b6001600160a01b0316610956811515612a0f565b6001600160601b0360a01b601454161760145580f35b50505051903d90823e3d90fd5b503461069957602036600319011261069957358252600e6020908152918190205490516001600160a01b039091168152f35b50503461066e578160031936011261066e5760035490516001600160a01b039091168152602090f35b929050346103cf5760203660031901126103cf578051632474521560e21b8152828101849052336024820152602081604481305afa9081156103c55790610a2191859161039757506129c3565b6002546001600160a01b031691610a39831515612a5b565b823b156103925783926024849284519586938492635a7b4db560e11b84528035908401525af190811561038957506103765750f35b503461069957602036600319011261069957610a88612687565b8251632474521560e21b815291820184905233602483015290602081604481305afa90811561096c57610ac3929350849161039757506129c3565b6001600160a01b0316610ad7811515612a0f565b6001600160601b0360a01b601354161760135580f35b50503461066e57602036600319011261066e576020916001600160801b039060029083906001600160a01b03610b21612687565b168152600986522001541615159051908152f35b50503461066e578160031936011261066e5751908152602090f35b929050346103cf57806003193601126103cf57610b6b612687565b610b7361269d565b908251632474521560e21b81528585820152336024820152602081604481305afa9081156104725790610bac91879161039757506129c3565b6001600160a01b03908116803b1561046e5785928360249286519788958694633b2bf90560e11b865216908401525af190811561038957506103765750f35b929050346103cf57806003193601126103cf57610c06612687565b610c0e61269d565b908251632474521560e21b81528585820152336024820152602081604481305afa9081156104725790610c4791879161039757506129c3565b6001600160a01b03908116803b1561046e5785928360249286519788958694634c1d96ab60e11b865216908401525af190811561038957506103765750f35b5034610699578160031936011261069957610cd29082602094610ca761269d565b92358152600c8652206001600160a01b03909116600090815260019091016020526040902054151590565b90519015158152f35b5082903461066e578260031936011261066e57826024359282358152600c60205220908282541115610d2a57602084610d148585612731565b905491519160018060a01b039160031b1c168152f35b608490602085519162461bcd60e51b8352820152602260248201527f456e756d657261626c655365743a20696e646578206f7574206f6620626f756e604482015261647360f01b6064820152fd5b50503461066e578160031936011261066e5760135490516001600160a01b039091168152602090f35b929050346103cf57826003193601126103cf578051632474521560e21b8152828101849052336024820152602081604481305afa9081156103c55790610ded91859161039757506129c3565b6005546001600160a01b031691823b15610392578151631fa5d41d60e11b81529284918491829084905af190811561038957506103765750f35b50503461066e578160031936011261066e57602090600b549051908152f35b503461069957602036600319011261069957610e60612687565b8251632474521560e21b815291820184905233602483015290602081604481305afa90811561096c57610e9b929350849161039757506129c3565b6001600160a01b0316610eaf811515612a0f565b6001600160601b0360a01b600554161760055580f35b50503461066e578160031936011261066e5760155490516001600160a01b039091168152602090f35b5082903461066e57602036600319011261066e578251632474521560e21b8152818101839052336024820152602081604481305afa908115610ffb5790610f3b918491610fdd57506129c3565b6005546001600160a01b0316908115610f8657928293823b156103925783926024849284519586938492630e9ab1e960e31b84528035908401525af190811561038957506103765750f35b608490602085519162461bcd60e51b8352820152602b60248201527f53746f726167655374617465436f6d6d69747465653a20696e76616c6964205360448201526a6569674d616e616765726560a81b6064820152fd5b610ff5915060203d81116103be576103b08183612989565b85610336565b84513d85823e3d90fd5b50503461066e578160031936011261066e5760055490516001600160a01b039091168152602090f35b5091346103865761103e36612749565b91835191632474521560e21b94858452828785015260249333858201526020908181604481305afa9081156105aa579061107e9186916112c557506129c3565b6008958654928484101561125e5784885560079788545b81548110156110f4578954600160401b8110156110e257906110d86110c3838d60016110dd960190556126e4565b81549060018060a01b039060031b1b19169055565b612b06565b611095565b634e487b7160e01b895260418d528989fd5b50878b918b8451908152898482015233838201528681604481305afa9081156112545790611128918b9161123757506129c3565b60025461113f906001600160a01b03161515612a5b565b548060011c8511156111f65784116111a7575050907f027863d12a407097e086a48e36475bfc859d0b200b7e6f65b5fd3b218e46632e929181600a5551908152a17f8c0366d1e3a335a312d012257ee764723c38ec2dd5e74cbfad372513521f97718380a380f35b60269085608494519362461bcd60e51b85528401528201527f44414f436f6d6d69747465653a2071756f72756d20657863656564206d61782060448201526536b2b6b132b960d11b6064820152fd5b50601c9085606494519362461bcd60e51b85528401528201527f44414f436f6d6d69747465653a20696e76616c69642071756f72756d000000006044820152fd5b61124e9150883d8a116103be576103b08183612989565b8b610336565b85513d8c823e3d90fd5b5162461bcd60e51b8152808a01839052603c818801527f44414f436f6d6d69747465653a20596f75206861766520746f2063616c6c206460448201527f656372656173654d61784d656d62657220746f206465637265617365000000006064820152608490fd5b6103b89150833d85116103be576103b08183612989565b929050346103cf5760203660031901126103cf578051632474521560e21b8152828101849052336024820152602081604481305afa9081156103c5579061132991859161039757506129c3565b6002546001600160a01b031691611341831515612a5b565b823b1561039257839260248492845195869384926334d8913d60e11b84528035908401525af190811561038957506103765750f35b929050346103cf576113873661275f565b83959291955190632474521560e21b825283868301526024913383820152602081604481305afa90811561084957906113c691869161039757506129c3565b6001600160a01b03908116926113dd841515612a0f565b845b8881106113ea578580f35b826113fe6113f9838c86612b15565b612b25565b16803b1561145d578686868b838c519586948593633b2bf90560e11b85528401525af180156114535790879161143f575b505061143a90612b06565b6113df565b61144890612959565b61046e57853861142f565b88513d89823e3d90fd5b8680fd5b50503461066e57602036600319011261066e576020916001600160a01b039082908261148b612687565b168152600985522054169051908152f35b50503461066e578160031936011261066e5760209060ff60115460a01c1690519015158152f35b5034610699576020366003190112610699578151632474521560e21b8152808201849052336024820152903590602081604481305afa90811561096c5792611536602093927f42bd846b3ff7895ea031753b0d8256b4816edaea44f7d8d9db60ea83b8ee5e4b95879161154257506129c3565b81600b5551908152a180f35b6103b89150853d81116103be576103b08183612989565b50346106995760203660031901126106995735916007548310156103865750610d146020926126e4565b929050346103cf576115943661275f565b83959291955190632474521560e21b825283868301526024913383820152602081604481305afa90811561084957906115d391869161039757506129c3565b6001600160a01b03908116926115ea841515612a0f565b845b8881106115f7578580f35b826116066113f9838c86612b15565b16803b1561145d578686868b838c519586948593635eed720760e11b85528401525af1801561145357908791611647575b505061164290612b06565b6115ec565b61165090612959565b61046e578538611637565b50503461066e578160031936011261066e5760015490516001600160a01b039091168152602090f35b50503461066e57602036600319011261066e5760209160ff9082906001600160a01b036116af612687565b168152600f855220541690519015158152f35b509034610699576116d236612749565b908251632474521560e21b94858252868183015260249433868401526020928381604481305afa908115611a6d5790611711918a91611a5657506129c3565b600854841015611a0b57611724846126e4565b959060018060a01b03968791549060031b1c1692838a5260098552828a209760075497600019998a8a01998a1161199f57888d87846117628e6126e4565b90549060031b1c169c83036119db575b5090506001820155600360028201918254906001600160801b0392839101541680838316116000146119c35750506117c16117e1916117b8845491808316904216612abc565b9060801c612aeb565b82546001600160801b031660809190911b6001600160801b031916178255565b80546001600160801b031916905560075480156119b1578a016118066110c3826126e4565b600755600854998a019a8a8c1161199f578b60085585519081528c8482015233838201528781604481305afa908d821561199457611859939261184e929061197d57506129c3565b600254161515612a5b565b8960011c83111561193b578983116118ea575050907f027863d12a407097e086a48e36475bfc859d0b200b7e6f65b5fd3b218e46632e84837f663b98adf1afa777e36528b3293a057803f87ed00d2d2518dccfe5d7a6e99ccf969594600a558351908152a151908152a37f8c0366d1e3a335a312d012257ee764723c38ec2dd5e74cbfad372513521f97718380a380f35b835162461bcd60e51b81529182018690526026908201527f44414f436f6d6d69747465653a2071756f72756d20657863656564206d61782060448201526536b2b6b132b960d11b6064820152608490fd5b835162461bcd60e51b8152918201869052601c908201527f44414f436f6d6d69747465653a20696e76616c69642071756f72756d000000006044820152606490fd5b6103b891508a3d8c116103be576103b08183612989565b8751903d90823e3d90fd5b634e487b7160e01b8d5260118452828dfd5b634e487b7160e01b8d5260318452828dfd5b906117b86117c1926119d6944216612abc565b6117e1565b818d6001935260098c522001556119f1896126e4565b81549060031b90848d831b921b1916179055888d87611772565b85608493602292519362461bcd60e51b85528401528201527f44414f436f6d6d69747465653a20696e76616c6964206d656d62657220696e646044820152610caf60f31b6064820152fd5b6103b89150853d87116103be576103b08183612989565b82513d8b823e3d90fd5b50503461066e57602036600319011261066e576020916001600160e01b0319611a9e612670565b168152601083528190205490516001600160a01b039091168152f35b929050346103cf57806003193601126103cf57611ad5612687565b611add61269d565b908251632474521560e21b81528585820152336024820152602081604481305afa9081156104725790611b1691879161039757506129c3565b6001600160a01b03908116803b1561046e5785928360249286519788958694635d50929b60e11b865216908401525af190811561038957506103765750f35b503461069957602036600319011261069957611b6f612687565b8251632474521560e21b815291820184905233602483015290602081604481305afa90811561096c57611baa929350849161039757506129c3565b6001600160a01b0316611bbe811515612a0f565b6001600160601b0360a01b600054161760005580f35b503461069957602036600319011261069957611bee612687565b8251632474521560e21b815291820184905233602483015290602081604481305afa90811561096c57611c29929350849161039757506129c3565b6001600160a01b0316611c3d811515612a0f565b6001600160601b0360a01b600154161760015580f35b929050346103cf5760803660031901126103cf57611c6f612687565b611c7761269d565b906064359182151580930361046e578351632474521560e21b8152858101879052336024820152602081604481305afa908115611d0c5790611cbf91889161039757506129c3565b6001600160a01b0391821690813b1561145d5786606492819587519889968795637cd5f66360e01b87521690850152604435602485015260448401525af190811561038957506103765750f35b85513d89823e3d90fd5b503461069957602036600319011261069957611d30612687565b8251632474521560e21b815291820184905233602483015290602081604481305afa90811561096c57611d6b929350849161039757506129c3565b6001600160a01b0316611d7f811515612a0f565b6001600160601b0360a01b600254161760025580f35b503461069957602036600319011261069957611daf612687565b8251632474521560e21b815291820184905233602483015290602081604481305afa90811561096c57611dea929350849161039757506129c3565b6001600160a01b0316611dfe811515612a0f565b6001600160601b0360a01b601554161760155580f35b929050346103cf57806003193601126103cf57611e2f612687565b8151632474521560e21b8152838101859052336024820152602081604481305afa9081156105aa5790611e6891869161039757506129c3565b6001600160a01b031691823b15610392578392602484928451958693849263a79da34160e01b84528435908401525af190811561038957506103765750f35b5082903461066e578260031936011261066e57611ec261269d565b90336001600160a01b03831603611ede579061060f91356127a2565b608490602085519162461bcd60e51b8352820152602f60248201527f416363657373436f6e74726f6c3a2063616e206f6e6c792072656e6f756e636560448201526e103937b632b9903337b91039b2b63360891b6064820152fd5b503461069957602036600319011261069957356006548110156106995760066000527ff652222313e28459528d920b65115c16c04f3efc82aaedc97be59f3f377c0d3f015490516001600160a01b03909116815260209150f35b5082903461066e57606036600319011261066e57611faf612687565b9260243567ffffffffffffffff81116120ca57611fcf90369084016126b3565b6044356001600160a01b0381811692918390036120a4578451632474521560e21b8152868101889052336024820152602098908981604481305afa9081156120c05790612022918a916120a957506129c3565b1696873b1561145d578451634a5df50f60e01b81529586018590526044860182905260648601939190875b8281106120795750505050849584868181958195602483015203925af190811561038957506103765750f35b9091929485359063ffffffff60e01b82168092036120a457908152820194820192919060010161204d565b600080fd5b61124e91508b3d8d116103be576103b08183612989565b87513d8b823e3d90fd5b8380fd5b50346106995781600319360112610699578035916120ea61269d565b91838552600c6020526002828620015485526121183383872060019160005201602052604060002054151590565b156121735750828452600c60205283206001600160a01b039091169061213f9082906127f8565b612147578280f35b33917f2f8788117e7eff1d82e926ec794901d17c78024a50270940304540a733656f0d8480a438808280f35b6020608492519162461bcd60e51b8352820152602f60248201527f416363657373436f6e74726f6c3a2073656e646572206d75737420626520616e60448201526e0818591b5a5b881d1bc819dc985b9d608a1b6064820152fd5b50503461066e57602036600319011261066e57608060a0926003836121f0612687565b92808583516121fe8161296d565b82815282602082015282858201528260608201520152600180881b0380941681526009602052208451926122318461296d565b8154169485845260018201549160208501928352600281015492828601906001600160801b03978880978195828916865260608b0198841c8952015416970196875283519889525160208901525116908601525116606084015251166080820152f35b509034610699576020366003190112610699576122af612687565b908051632474521560e21b81528484820152336024820152602081604481305afa91821561230f5750906122e991859161039757506129c3565b6001600160a01b03166122fd811515612a0f565b81546001600160a01b03191617905580f35b513d86823e3d90fd5b50503461066e578160031936011261066e5760025490516001600160a01b039091168152602090f35b50346106995760203660031901126106995781602093600292358152600c85522001549051908152f35b929050346103cf5760203660031901126103cf578051632474521560e21b8152828101849052336024820152602081604481305afa9081156103c557906123b891859161039757506129c3565b6002546001600160a01b0316916123d0831515612a5b565b823b1561039257839260248492845195869384926323d09fdf60e01b84528035908401525af190811561038957506103765750f35b50503461066e578160031936011261066e57602090600a549051908152f35b50503461066e578160031936011261066e5760145490516001600160a01b039091168152602090f35b929050346103cf57806003193601126103cf57612468612687565b61247061269d565b908251632474521560e21b81528585820152336024820152602081604481305afa90811561047257906124a991879161039757506129c3565b6001600160a01b03908116803b1561046e5785928360249286519788958694631186d27960e11b865216908401525af190811561038957506103765750f35b50903461069957806003193601126106995782612503612687565b61250b61269d565b8351632474521560e21b8152858101849052336024820152602081604481305afa90811561258c579061254491859161039757506129c3565b6001600160a01b0391821690813b156120ca57836024928651978895869463662d12b160e01b865216908401525af19081156103895750612583575080f35b61060f90612959565b85513d86823e3d90fd5b5034610699576020366003190112610699576125b0612687565b8251632474521560e21b815291820184905233602483015290602081604481305afa90811561096c576125eb929350849161039757506129c3565b6001600160a01b03166125ff811515612a0f565b6001600160601b0360a01b600354161760035580f35b50503461066e578160031936011261066e576020906008549051908152f35b849084346106995760203660031901126106995760209260ff91906001600160e01b0319612660612670565b168152600d855220541615158152f35b600435906001600160e01b0319821682036120a457565b600435906001600160a01b03821682036120a457565b602435906001600160a01b03821682036120a457565b9181601f840112156120a45782359167ffffffffffffffff83116120a4576020808501948460051b0101116120a457565b60075481101561271b5760076000527fa66cc928b5edb82af9bd49922954155ab7b0942694bea4ce44661d9a8736c6880190600090565b634e487b7160e01b600052603260045260246000fd5b805482101561271b5760005260206000200190600090565b60409060031901126120a4576004359060243590565b60406003198201126120a4576004359067ffffffffffffffff82116120a45761278a916004016126b3565b90916024356001600160a01b03811681036120a45790565b6000818152600c6020526040902090916001600160a01b0316906127c790829061287c565b6127cf575050565b33917ff6391f5c32d9c69d2a47ea670b442974b53935d1edc7fd64eb21e047a839171b600080a4565b600082815260018201602052604090205461287557805490600160401b82101561285f5782612848612831846001809601855584612731565b819391549060031b91821b91600019901b19161790565b905580549260005201602052604060002055600190565b634e487b7160e01b600052604160045260246000fd5b5050600090565b90600182019060009281845282602052604084205490811515600014612952576000199180830181811161293e57825484810190811161292a57906128d76128c76128319386612731565b90549060031b1c92839286612731565b9055865284602052604086205580548015612916578201916128f98383612731565b909182549160031b1b191690555582526020526040812055600190565b634e487b7160e01b86526031600452602486fd5b634e487b7160e01b88526011600452602488fd5b634e487b7160e01b87526011600452602487fd5b5050505090565b67ffffffffffffffff811161285f57604052565b60a0810190811067ffffffffffffffff82111761285f57604052565b90601f8019910116810190811067ffffffffffffffff82111761285f57604052565b908160209103126120a4575180151581036120a45790565b156129ca57565b60405162461bcd60e51b815260206004820152601760248201527f44414f436f6d6d69747465653a206e6f742061646d696e0000000000000000006044820152606490fd5b15612a1657565b60405162461bcd60e51b815260206004820152601a60248201527f44414f436f6d6d69747465653a207a65726f20616464726573730000000000006044820152606490fd5b15612a6257565b60405162461bcd60e51b815260206004820152602c60248201527f53746f726167655374617465436f6d6d69747465653a204167656e64614d616e60448201526b61676572206973207a65726f60a01b6064820152608490fd5b6001600160801b039182169082160391908211612ad557565b634e487b7160e01b600052601160045260246000fd5b9190916001600160801b0380809416911601918211612ad557565b6000198114612ad55760010190565b919081101561271b5760051b0190565b356001600160a01b03811681036120a4579056fea164736f6c6343000813000a",
  "linkReferences": {},
  "deployedLinkReferences": {}
}