{
  "_format": "hh-sol-artifact-1",
  "contractName": "DAOCommitteeOwner",
  "sourceName": "contracts/dao/DAOCommitteeOwner.sol",
  "abi": [
    {
      "anonymous": false,
      "inputs": [
        {
          "indexed": false,
          "internalType": "uint256",
          "name": "newReward",
          "type": "uint256"
        }
      ],
      "name": "ActivityRewardChanged",
      "type": "event"
    },
    {
      "anonymous": false,
      "inputs": [
        {
          "indexed": true,
          "internalType": "bytes32",
          "name": "role",
          "type": "bytes32"
        },
        {
          "indexed": true,
          "internalType": "bytes32",
          "name": "previousAdminRole",
          "type": "bytes32"
        },
        {
          "indexed": true,
          "internalType": "bytes32",
          "name": "newAdminRole",
          "type": "bytes32"
        }
      ],
      "name": "RoleAdminChanged",
      "type": "event"
    },
    {
      "anonymous": false,
      "inputs": [
        {
          "indexed": true,
          "internalType": "bytes32",
          "name": "role",
          "type": "bytes32"
        },
        {
          "indexed": true,
          "internalType": "address",
          "name": "account",
          "type": "address"
        },
        {
          "indexed": true,
          "internalType": "address",
          "name": "sender",
          "type": "address"
        }
      ],
      "name": "RoleGranted",
      "type": "event"
    },
    {
      "anonymous": false,
      "inputs": [
        {
          "indexed": true,
          "internalType": "bytes32",
          "name": "role",
          "type": "bytes32"
        },
        {
          "indexed": true,
          "internalType": "address",
          "name": "account",
          "type": "address"
        },
        {
          "indexed": true,
          "internalType": "address",
          "name": "sender",
          "type": "address"
        }
      ],
      "name": "RoleRevoked",
      "type": "event"
    },
    {
      "inputs": [],
      "name": "DEFAULT_ADMIN_ROLE",
      "outputs": [
        {
          "internalType": "bytes32",
          "name": "",
          "type": "bytes32"
        }
      ],
      "stateMutability": "view",
      "type": "function"
    },
    {
      "inputs": [],
      "name": "activityRewardPerSecond",
      "outputs": [
        {
          "internalType": "uint256",
          "name": "",
          "type": "uint256"
        }
      ],
      "stateMutability": "view",
      "type": "function"
    },
    {
      "inputs": [],
      "name": "agendaManager",
      "outputs": [
        {
          "internalType": "contract IDAOAgendaManager",
          "name": "",
          "type": "address"
        }
      ],
      "stateMutability": "view",
      "type": "function"
    },
    {
      "inputs": [
        {
          "internalType": "address",
          "name": "_candidate",
          "type": "address"
        }
      ],
      "name": "candidateContract",
      "outputs": [
        {
          "internalType": "address",
          "name": "",
          "type": "address"
        }
      ],
      "stateMutability": "view",
      "type": "function"
    },
    {
      "inputs": [],
      "name": "candidateFactory",
      "outputs": [
        {
          "internalType": "contract ICandidateFactory",
          "name": "",
          "type": "address"
        }
      ],
      "stateMutability": "view",
      "type": "function"
    },
    {
      "inputs": [
        {
          "internalType": "address",
          "name": "_candidate",
          "type": "address"
        }
      ],
      "name": "candidateInfos",
      "outputs": [
        {
          "components": [
            {
              "internalType": "address",
              "name": "candidateContract",
              "type": "address"
            },
            {
              "internalType": "uint256",
              "name": "indexMembers",
              "type": "uint256"
            },
            {
              "internalType": "uint128",
              "name": "memberJoinedTime",
              "type": "uint128"
            },
            {
              "internalType": "uint128",
              "name": "rewardPeriod",
              "type": "uint128"
            },
            {
              "internalType": "uint128",
              "name": "claimedTimestamp",
              "type": "uint128"
            }
          ],
          "internalType": "struct StorageStateCommittee.CandidateInfo",
          "name": "",
          "type": "tuple"
        }
      ],
      "stateMutability": "view",
      "type": "function"
    },
    {
      "inputs": [
        {
          "internalType": "uint256",
          "name": "",
          "type": "uint256"
        }
      ],
      "name": "candidates",
      "outputs": [
        {
          "internalType": "address",
          "name": "",
          "type": "address"
        }
      ],
      "stateMutability": "view",
      "type": "function"
    },
    {
      "inputs": [],
      "name": "daoVault",
      "outputs": [
        {
          "internalType": "contract IDAOVault",
          "name": "",
          "type": "address"
        }
      ],
      "stateMutability": "view",
      "type": "function"
    },
    {
      "inputs": [
        {
          "internalType": "bytes32",
          "name": "role",
          "type": "bytes32"
        }
      ],
      "name": "getRoleAdmin",
      "outputs": [
        {
          "internalType": "bytes32",
          "name": "",
          "type": "bytes32"
        }
      ],
      "stateMutability": "view",
      "type": "function"
    },
    {
      "inputs": [
        {
          "internalType": "bytes32",
          "name": "role",
          "type": "bytes32"
        },
        {
          "internalType": "uint256",
          "name": "index",
          "type": "uint256"
        }
      ],
      "name": "getRoleMember",
      "outputs": [
        {
          "internalType": "address",
          "name": "",
          "type": "address"
        }
      ],
      "stateMutability": "view",
      "type": "function"
    },
    {
      "inputs": [
        {
          "internalType": "bytes32",
          "name": "role",
          "type": "bytes32"
        }
      ],
      "name": "getRoleMemberCount",
      "outputs": [
        {
          "internalType": "uint256",
          "name": "",
          "type": "uint256"
        }
      ],
      "stateMutability": "view",
      "type": "function"
    },
    {
      "inputs": [
        {
          "internalType": "bytes32",
          "name": "role",
          "type": "bytes32"
        },
        {
          "internalType": "address",
          "name": "account",
          "type": "address"
        }
      ],
      "name": "grantRole",
      "outputs": [],
      "stateMutability": "nonpayable",
      "type": "function"
    },
    {
      "inputs": [
        {
          "internalType": "bytes32",
          "name": "role",
          "type": "bytes32"
        },
        {
          "internalType": "address",
          "name": "account",
          "type": "address"
        }
      ],
      "name": "hasRole",
      "outputs": [
        {
          "internalType": "bool",
          "name": "",
          "type": "bool"
        }
      ],
      "stateMutability": "view",
      "type": "function"
    },
    {
      "inputs": [
        {
          "internalType": "address",
          "name": "_candidate",
          "type": "address"
        }
      ],
      "name": "isMember",
      "outputs": [
        {
          "internalType": "bool",
          "name": "",
          "type": "bool"
        }
      ],
      "stateMutability": "view",
      "type": "function"
    },
    {
      "inputs": [],
      "name": "layer2Registry",
      "outputs": [
        {
          "internalType": "contract ILayer2Registry",
          "name": "",
          "type": "address"
        }
      ],
      "stateMutability": "view",
      "type": "function"
    },
    {
      "inputs": [],
      "name": "maxMember",
      "outputs": [
        {
          "internalType": "uint256",
          "name": "",
          "type": "uint256"
        }
      ],
      "stateMutability": "view",
      "type": "function"
    },
    {
      "inputs": [
        {
          "internalType": "uint256",
          "name": "",
          "type": "uint256"
        }
      ],
      "name": "members",
      "outputs": [
        {
          "internalType": "address",
          "name": "",
          "type": "address"
        }
      ],
      "stateMutability": "view",
      "type": "function"
    },
    {
      "inputs": [],
      "name": "pauseProxy",
      "outputs": [
        {
          "internalType": "bool",
          "name": "",
          "type": "bool"
        }
      ],
      "stateMutability": "view",
      "type": "function"
    },
    {
      "inputs": [],
      "name": "quorum",
      "outputs": [
        {
          "internalType": "uint256",
          "name": "",
          "type": "uint256"
        }
      ],
      "stateMutability": "view",
      "type": "function"
    },
    {
      "inputs": [
        {
          "internalType": "bytes32",
          "name": "role",
          "type": "bytes32"
        },
        {
          "internalType": "address",
          "name": "account",
          "type": "address"
        }
      ],
      "name": "renounceRole",
      "outputs": [],
      "stateMutability": "nonpayable",
      "type": "function"
    },
    {
      "inputs": [
        {
          "internalType": "bytes32",
          "name": "role",
          "type": "bytes32"
        },
        {
          "internalType": "address",
          "name": "account",
          "type": "address"
        }
      ],
      "name": "revokeRole",
      "outputs": [],
      "stateMutability": "nonpayable",
      "type": "function"
    },
    {
      "inputs": [],
      "name": "seigManager",
      "outputs": [
        {
          "internalType": "contract ISeigManager",
          "name": "",
          "type": "address"
        }
      ],
      "stateMutability": "view",
      "type": "function"
    },
    {
      "inputs": [
        {
          "internalType": "uint256",
          "name": "_value",
          "type": "uint256"
        }
      ],
      "name": "setActivityRewardPerSecond",
      "outputs": [],
      "stateMutability": "nonpayable",
      "type": "function"
    },
    {
      "inputs": [
        {
          "internalType": "address",
          "name": "_agendaManager",
          "type": "address"
        }
      ],
      "name": "setAgendaManager",
      "outputs": [],
      "stateMutability": "nonpayable",
      "type": "function"
    },
    {
      "inputs": [
        {
          "internalType": "address",
          "name": "_candidateFactory",
          "type": "address"
        }
      ],
      "name": "setCandidateFactory",
      "outputs": [],
      "stateMutability": "nonpayable",
      "type": "function"
    },
    {
      "inputs": [
        {
          "internalType": "address[]",
          "name": "_candidateContracts",
          "type": "address[]"
        },
        {
          "internalType": "address",
          "name": "_committee",
          "type": "address"
        }
      ],
      "name": "setCandidatesCommittee",
      "outputs": [],
      "stateMutability": "nonpayable",
      "type": "function"
    },
    {
      "inputs": [
        {
          "internalType": "address[]",
          "name": "_candidateContracts",
          "type": "address[]"
        },
        {
          "internalType": "address",
          "name": "_seigManager",
          "type": "address"
        }
      ],
      "name": "setCandidatesSeigManager",
      "outputs": [],
      "stateMutability": "nonpayable",
      "type": "function"
    },
    {
      "inputs": [
        {
          "internalType": "uint256",
          "name": "_fees",
          "type": "uint256"
        }
      ],
      "name": "setCreateAgendaFees",
      "outputs": [],
      "stateMutability": "nonpayable",
      "type": "function"
    },
    {
      "inputs": [
        {
          "internalType": "address",
          "name": "_daoVault",
          "type": "address"
        }
      ],
      "name": "setDaoVault",
      "outputs": [],
      "stateMutability": "nonpayable",
      "type": "function"
    },
    {
      "inputs": [
        {
          "internalType": "uint256",
          "name": "_executingPeriodSeconds",
          "type": "uint256"
        }
      ],
      "name": "setExecutingPeriodSeconds",
      "outputs": [],
      "stateMutability": "nonpayable",
      "type": "function"
    },
    {
      "inputs": [
        {
          "internalType": "address",
          "name": "_layer2Registry",
          "type": "address"
        }
      ],
      "name": "setLayer2Registry",
      "outputs": [],
      "stateMutability": "nonpayable",
      "type": "function"
    },
    {
      "inputs": [
        {
          "internalType": "uint256",
          "name": "_minimumNoticePeriod",
          "type": "uint256"
        }
      ],
      "name": "setMinimumNoticePeriodSeconds",
      "outputs": [],
      "stateMutability": "nonpayable",
      "type": "function"
    },
    {
      "inputs": [
        {
          "internalType": "uint256",
          "name": "_minimumVotingPeriod",
          "type": "uint256"
        }
      ],
      "name": "setMinimumVotingPeriodSeconds",
      "outputs": [],
      "stateMutability": "nonpayable",
      "type": "function"
    },
    {
      "inputs": [
        {
          "internalType": "address",
          "name": "_seigManager",
          "type": "address"
        }
      ],
      "name": "setSeigManager",
      "outputs": [],
      "stateMutability": "nonpayable",
      "type": "function"
    },
    {
      "inputs": [],
      "name": "setSeigPause",
      "outputs": [],
      "stateMutability": "nonpayable",
      "type": "function"
    },
    {
      "inputs": [],
      "name": "setSeigUnpause",
      "outputs": [],
      "stateMutability": "nonpayable",
      "type": "function"
    },
    {
      "inputs": [
        {
          "internalType": "address",
          "name": "token",
          "type": "address"
        },
        {
          "internalType": "address",
          "name": "account",
          "type": "address"
        }
      ],
      "name": "setTargetAddMinter",
      "outputs": [],
      "stateMutability": "nonpayable",
      "type": "function"
    },
    {
      "inputs": [
        {
          "internalType": "address",
          "name": "target",
          "type": "address"
        },
        {
          "internalType": "uint256",
          "name": "globalWithdrawalDelay_",
          "type": "uint256"
        }
      ],
      "name": "setTargetGlobalWithdrawalDelay",
      "outputs": [],
      "stateMutability": "nonpayable",
      "type": "function"
    },
    {
      "inputs": [
        {
          "internalType": "address",
          "name": "target",
          "type": "address"
        },
        {
          "internalType": "address",
          "name": "_seigManager",
          "type": "address"
        }
      ],
      "name": "setTargetSeigManager",
      "outputs": [],
      "stateMutability": "nonpayable",
      "type": "function"
    },
    {
      "inputs": [
        {
          "internalType": "address",
          "name": "target",
          "type": "address"
        },
        {
          "internalType": "address",
          "name": "tonAddr",
          "type": "address"
        }
      ],
      "name": "setTargetSetTON",
      "outputs": [],
      "stateMutability": "nonpayable",
      "type": "function"
    },
    {
      "inputs": [
        {
          "internalType": "address",
          "name": "target",
          "type": "address"
        },
        {
          "internalType": "address",
          "name": "logic",
          "type": "address"
        }
      ],
      "name": "setTargetUpgradeTo",
      "outputs": [],
      "stateMutability": "nonpayable",
      "type": "function"
    },
    {
      "inputs": [
        {
          "internalType": "address",
          "name": "_ton",
          "type": "address"
        }
      ],
      "name": "setTon",
      "outputs": [],
      "stateMutability": "nonpayable",
      "type": "function"
    },
    {
      "inputs": [
        {
          "internalType": "address",
          "name": "_wton",
          "type": "address"
        }
      ],
      "name": "setWton",
      "outputs": [],
      "stateMutability": "nonpayable",
      "type": "function"
    },
    {
      "inputs": [
        {
          "internalType": "bytes4",
          "name": "interfaceId",
          "type": "bytes4"
        }
      ],
      "name": "supportsInterface",
      "outputs": [
        {
          "internalType": "bool",
          "name": "",
          "type": "bool"
        }
      ],
      "stateMutability": "view",
      "type": "function"
    },
    {
      "inputs": [],
      "name": "ton",
      "outputs": [
        {
          "internalType": "address",
          "name": "",
          "type": "address"
        }
      ],
      "stateMutability": "view",
      "type": "function"
    },
    {
      "inputs": [],
      "name": "wton",
      "outputs": [
        {
          "internalType": "address",
          "name": "",
          "type": "address"
        }
      ],
      "stateMutability": "view",
      "type": "function"
    }
  ],
  "bytecode": "0x608060405234801561001057600080fd5b506100216301ffc9a760e01b610026565b6100a9565b6001600160e01b031980821690036100845760405162461bcd60e51b815260206004820152601c60248201527f4552433136353a20696e76616c696420696e7465726661636520696400000000604482015260640160405180910390fd5b6001600160e01b0319166000908152600d60205260409020805460ff19166001179055565b612155806100b86000396000f3fe608060405234801561001057600080fd5b506004361061028a5760003560e01c8063691542951161015c578063a217fddf116100ce578063ca15c87311610087578063ca15c873146106d6578063cc48b947146106e9578063cf2a239c146106fc578063d547741f1461070f578063ebf97be614610722578063efd579791461073557600080fd5b8063a217fddf1461064b578063a230c52414610653578063aef2c5851461068a578063b4f69b6a1461069d578063b5dd1158146106b0578063c0bc5304146106c357600080fd5b806381bfe42c1161012057806381bfe42c146105e45780638d62d949146105ec5780639010d07c146105ff57806391d14854146106125780639d65b53114610625578063a1f3ac2a1461063857600080fd5b8063691542951461058f57806369b1227a146105a25780636fb7f558146105b55780637657f20a146105c85780637f331636146105db57600080fd5b80633477ee2e116102005780635903bd6c116101b95780635903bd6c146105035780635c43030f146105165780635daf08ca146105295780635ebe76221461053c57806363a8fd891461054f578063651d08cd1461056357600080fd5b80633477ee2e1461049157806336568abe146104a457806338d1b17c146104b757806349c39f14146104ca5780634b799db1146104dd5780634d288fec146104f057600080fd5b806323d09fdf1161025257806323d09fdf14610319578063248a9ca31461032c57806327fd92fd1461034f5780632af60ff41461037a5780632e011c1e1461038d5780632f2ff15d1461047e57600080fd5b806301ffc9a71461028f57806303e3c9ac146102d1578063047f52f2146102e85780630ef646ad146102fd5780631703a01814610310575b600080fd5b6102bc61029d366004611e2d565b6001600160e01b0319166000908152600d602052604090205460ff1690565b60405190151581526020015b60405180910390f35b6102da60085481565b6040519081526020016102c8565b6102fb6102f6366004611e7a565b61073d565b005b6102fb61030b366004611e95565b610813565b6102da600a5481565b6102fb610327366004611ec8565b6108f6565b6102da61033a366004611ec8565b6000908152600c602052604090206002015490565b600254610362906001600160a01b031681565b6040516001600160a01b0390911681526020016102c8565b6102fb610388366004611e7a565b610a03565b61042961039b366004611e7a565b6040805160a0808201835260008083526020808401829052838501829052606080850183905260809485018390526001600160a01b0396871683526009825291859020855193840186528054909616835260018601549083015260028501546001600160801b0380821695840195909552600160801b90048416908201526003909301549091169082015290565b6040805182516001600160a01b0316815260208084015190820152828201516001600160801b03908116928201929092526060808401518316908201526080928301519091169181019190915260a0016102c8565b6102fb61048c366004611ee1565b610ad0565b61036261049f366004611ec8565b610b5e565b6102fb6104b2366004611ee1565b610b88565b6102fb6104c5366004611f04565b610c02565b6102fb6104d8366004611e7a565b610cb2565b6102fb6104eb366004611e7a565b610d7f565b6102fb6104fe366004611e7a565b610e4c565b600154610362906001600160a01b031681565b6102fb610524366004611f2e565b610f19565b610362610537366004611ec8565b611065565b6102fb61054a366004611ec8565b611075565b600e546102bc90600160a01b900460ff1681565b610362610571366004611e7a565b6001600160a01b039081166000908152600960205260409020541690565b6102fb61059d366004611f2e565b611133565b6102fb6105b0366004611ec8565b61127f565b600554610362906001600160a01b031681565b6102fb6105d6366004611e7a565b61135b565b6102da600b5481565b6102fb611428565b601054610362906001600160a01b031681565b61036261060d366004611fb2565b611515565b6102bc610620366004611ee1565b611536565b6102fb610633366004611e95565b61154e565b6102fb610646366004611e95565b6115ff565b6102da600081565b6102bc610661366004611e7a565b6001600160a01b03166000908152600960205260409020600201546001600160801b0316151590565b6102fb610698366004611e7a565b6116b0565b6102fb6106ab366004611ec8565b61177d565b600354610362906001600160a01b031681565b6102fb6106d1366004611ec8565b611859565b6102da6106e4366004611ec8565b611935565b600054610362906001600160a01b031681565b600454610362906001600160a01b031681565b6102fb61071d366004611ee1565b61194c565b6102fb610730366004611e95565b6119cd565b6102fb611a7e565b604051632474521560e21b815230906391d1485490610763906000903390600401611fd4565b602060405180830381865afa158015610780573d6000803e3d6000fd5b505050506040513d601f19601f820116820180604052508101906107a49190611feb565b6107c95760405162461bcd60e51b81526004016107c09061200d565b60405180910390fd5b806001600160a01b0381166107f05760405162461bcd60e51b81526004016107c090612044565b50600380546001600160a01b0319166001600160a01b0392909216919091179055565b604051632474521560e21b815230906391d1485490610839906000903390600401611fd4565b602060405180830381865afa158015610856573d6000803e3d6000fd5b505050506040513d601f19601f8201168201806040525081019061087a9190611feb565b6108965760405162461bcd60e51b81526004016107c09061200d565b604051631186d27960e11b81526001600160a01b03828116600483015283169063230da4f2906024015b600060405180830381600087803b1580156108da57600080fd5b505af11580156108ee573d6000803e3d6000fd5b505050505050565b604051632474521560e21b815230906391d148549061091c906000903390600401611fd4565b602060405180830381865afa158015610939573d6000803e3d6000fd5b505050506040513d601f19601f8201168201806040525081019061095d9190611feb565b6109795760405162461bcd60e51b81526004016107c09061200d565b6002546001600160a01b03166109a15760405162461bcd60e51b81526004016107c09061207b565b6002546040516323d09fdf60e01b8152600481018390526001600160a01b03909116906323d09fdf906024015b600060405180830381600087803b1580156109e857600080fd5b505af11580156109fc573d6000803e3d6000fd5b5050505050565b604051632474521560e21b815230906391d1485490610a29906000903390600401611fd4565b602060405180830381865afa158015610a46573d6000803e3d6000fd5b505050506040513d601f19601f82011682018060405250810190610a6a9190611feb565b610a865760405162461bcd60e51b81526004016107c09061200d565b806001600160a01b038116610aad5760405162461bcd60e51b81526004016107c090612044565b50600480546001600160a01b0319166001600160a01b0392909216919091179055565b6000828152600c6020526040902060020154610aec9033611536565b610b505760405162461bcd60e51b815260206004820152602f60248201527f416363657373436f6e74726f6c3a2073656e646572206d75737420626520616e60448201526e0818591b5a5b881d1bc819dc985b9d608a1b60648201526084016107c0565b610b5a8282611b51565b5050565b60068181548110610b6e57600080fd5b6000918252602090912001546001600160a01b0316905081565b6001600160a01b0381163314610bf85760405162461bcd60e51b815260206004820152602f60248201527f416363657373436f6e74726f6c3a2063616e206f6e6c792072656e6f756e636560448201526e103937b632b9903337b91039b2b63360891b60648201526084016107c0565b610b5a8282611baa565b604051632474521560e21b815230906391d1485490610c28906000903390600401611fd4565b602060405180830381865afa158015610c45573d6000803e3d6000fd5b505050506040513d601f19601f82011682018060405250810190610c699190611feb565b610c855760405162461bcd60e51b81526004016107c09061200d565b60405163a79da34160e01b8152600481018290526001600160a01b0383169063a79da341906024016108c0565b604051632474521560e21b815230906391d1485490610cd8906000903390600401611fd4565b602060405180830381865afa158015610cf5573d6000803e3d6000fd5b505050506040513d601f19601f82011682018060405250810190610d199190611feb565b610d355760405162461bcd60e51b81526004016107c09061200d565b806001600160a01b038116610d5c5760405162461bcd60e51b81526004016107c090612044565b50600280546001600160a01b0319166001600160a01b0392909216919091179055565b604051632474521560e21b815230906391d1485490610da5906000903390600401611fd4565b602060405180830381865afa158015610dc2573d6000803e3d6000fd5b505050506040513d601f19601f82011682018060405250810190610de69190611feb565b610e025760405162461bcd60e51b81526004016107c09061200d565b806001600160a01b038116610e295760405162461bcd60e51b81526004016107c090612044565b50600180546001600160a01b0319166001600160a01b0392909216919091179055565b604051632474521560e21b815230906391d1485490610e72906000903390600401611fd4565b602060405180830381865afa158015610e8f573d6000803e3d6000fd5b505050506040513d601f19601f82011682018060405250810190610eb39190611feb565b610ecf5760405162461bcd60e51b81526004016107c09061200d565b806001600160a01b038116610ef65760405162461bcd60e51b81526004016107c090612044565b50600080546001600160a01b0319166001600160a01b0392909216919091179055565b604051632474521560e21b815230906391d1485490610f3f906000903390600401611fd4565b602060405180830381865afa158015610f5c573d6000803e3d6000fd5b505050506040513d601f19601f82011682018060405250810190610f809190611feb565b610f9c5760405162461bcd60e51b81526004016107c09061200d565b806001600160a01b038116610fc35760405162461bcd60e51b81526004016107c090612044565b60005b838110156109fc57848482818110610fe057610fe06120c7565b9050602002016020810190610ff59190611e7a565b604051635eed720760e11b81526001600160a01b038581166004830152919091169063bddae40e90602401600060405180830381600087803b15801561103a57600080fd5b505af115801561104e573d6000803e3d6000fd5b50505050808061105d906120f3565b915050610fc6565b60078181548110610b6e57600080fd5b604051632474521560e21b815230906391d148549061109b906000903390600401611fd4565b602060405180830381865afa1580156110b8573d6000803e3d6000fd5b505050506040513d601f19601f820116820180604052508101906110dc9190611feb565b6110f85760405162461bcd60e51b81526004016107c09061200d565b600b8190556040518181527f42bd846b3ff7895ea031753b0d8256b4816edaea44f7d8d9db60ea83b8ee5e4b9060200160405180910390a150565b604051632474521560e21b815230906391d1485490611159906000903390600401611fd4565b602060405180830381865afa158015611176573d6000803e3d6000fd5b505050506040513d601f19601f8201168201806040525081019061119a9190611feb565b6111b65760405162461bcd60e51b81526004016107c09061200d565b806001600160a01b0381166111dd5760405162461bcd60e51b81526004016107c090612044565b60005b838110156109fc578484828181106111fa576111fa6120c7565b905060200201602081019061120f9190611e7a565b604051633b2bf90560e11b81526001600160a01b0385811660048301529190911690637657f20a90602401600060405180830381600087803b15801561125457600080fd5b505af1158015611268573d6000803e3d6000fd5b505050508080611277906120f3565b9150506111e0565b604051632474521560e21b815230906391d14854906112a5906000903390600401611fd4565b602060405180830381865afa1580156112c2573d6000803e3d6000fd5b505050506040513d601f19601f820116820180604052508101906112e69190611feb565b6113025760405162461bcd60e51b81526004016107c09061200d565b6002546001600160a01b031661132a5760405162461bcd60e51b81526004016107c09061207b565b6002546040516334d8913d60e11b8152600481018390526001600160a01b03909116906369b1227a906024016109ce565b604051632474521560e21b815230906391d1485490611381906000903390600401611fd4565b602060405180830381865afa15801561139e573d6000803e3d6000fd5b505050506040513d601f19601f820116820180604052508101906113c29190611feb565b6113de5760405162461bcd60e51b81526004016107c09061200d565b806001600160a01b0381166114055760405162461bcd60e51b81526004016107c090612044565b50600580546001600160a01b0319166001600160a01b0392909216919091179055565b604051632474521560e21b815230906391d148549061144e906000903390600401611fd4565b602060405180830381865afa15801561146b573d6000803e3d6000fd5b505050506040513d601f19601f8201168201806040525081019061148f9190611feb565b6114ab5760405162461bcd60e51b81526004016107c09061200d565b600560009054906101000a90046001600160a01b03166001600160a01b0316633f4ba83a6040518163ffffffff1660e01b8152600401600060405180830381600087803b1580156114fb57600080fd5b505af115801561150f573d6000803e3d6000fd5b50505050565b6000828152600c6020526040812061152d9083611c03565b90505b92915050565b6000828152600c6020526040812061152d9083611c0f565b604051632474521560e21b815230906391d1485490611574906000903390600401611fd4565b602060405180830381865afa158015611591573d6000803e3d6000fd5b505050506040513d601f19601f820116820180604052508101906115b59190611feb565b6115d15760405162461bcd60e51b81526004016107c09061200d565b604051634c1d96ab60e11b81526001600160a01b03828116600483015283169063983b2d56906024016108c0565b604051632474521560e21b815230906391d1485490611625906000903390600401611fd4565b602060405180830381865afa158015611642573d6000803e3d6000fd5b505050506040513d601f19601f820116820180604052508101906116669190611feb565b6116825760405162461bcd60e51b81526004016107c09061200d565b604051633b2bf90560e11b81526001600160a01b038281166004830152831690637657f20a906024016108c0565b604051632474521560e21b815230906391d14854906116d6906000903390600401611fd4565b602060405180830381865afa1580156116f3573d6000803e3d6000fd5b505050506040513d601f19601f820116820180604052508101906117179190611feb565b6117335760405162461bcd60e51b81526004016107c09061200d565b806001600160a01b03811661175a5760405162461bcd60e51b81526004016107c090612044565b50601080546001600160a01b0319166001600160a01b0392909216919091179055565b604051632474521560e21b815230906391d14854906117a3906000903390600401611fd4565b602060405180830381865afa1580156117c0573d6000803e3d6000fd5b505050506040513d601f19601f820116820180604052508101906117e49190611feb565b6118005760405162461bcd60e51b81526004016107c09061200d565b6002546001600160a01b03166118285760405162461bcd60e51b81526004016107c09061207b565b600254604051635a7b4db560e11b8152600481018390526001600160a01b039091169063b4f69b6a906024016109ce565b604051632474521560e21b815230906391d148549061187f906000903390600401611fd4565b602060405180830381865afa15801561189c573d6000803e3d6000fd5b505050506040513d601f19601f820116820180604052508101906118c09190611feb565b6118dc5760405162461bcd60e51b81526004016107c09061200d565b6002546001600160a01b03166119045760405162461bcd60e51b81526004016107c09061207b565b60025460405163302f14c160e21b8152600481018390526001600160a01b039091169063c0bc5304906024016109ce565b6000818152600c6020526040812061153090611c31565b6000828152600c60205260409020600201546119689033611536565b610bf85760405162461bcd60e51b815260206004820152603060248201527f416363657373436f6e74726f6c3a2073656e646572206d75737420626520616e60448201526f2061646d696e20746f207265766f6b6560801b60648201526084016107c0565b604051632474521560e21b815230906391d14854906119f3906000903390600401611fd4565b602060405180830381865afa158015611a10573d6000803e3d6000fd5b505050506040513d601f19601f82011682018060405250810190611a349190611feb565b611a505760405162461bcd60e51b81526004016107c09061200d565b604051631b2ce7f360e11b81526001600160a01b038281166004830152831690633659cfe6906024016108c0565b604051632474521560e21b815230906391d1485490611aa4906000903390600401611fd4565b602060405180830381865afa158015611ac1573d6000803e3d6000fd5b505050506040513d601f19601f82011682018060405250810190611ae59190611feb565b611b015760405162461bcd60e51b81526004016107c09061200d565b600560009054906101000a90046001600160a01b03166001600160a01b0316638456cb596040518163ffffffff1660e01b8152600401600060405180830381600087803b1580156114fb57600080fd5b6000828152600c60205260409020611b699082611c3b565b15610b5a5760405133906001600160a01b0383169084907f2f8788117e7eff1d82e926ec794901d17c78024a50270940304540a733656f0d90600090a45050565b6000828152600c60205260409020611bc29082611c50565b15610b5a5760405133906001600160a01b0383169084907ff6391f5c32d9c69d2a47ea670b442974b53935d1edc7fd64eb21e047a839171b90600090a45050565b600061152d8383611c65565b6001600160a01b0381166000908152600183016020526040812054151561152d565b6000611530825490565b600061152d836001600160a01b038416611ceb565b600061152d836001600160a01b038416611d3a565b81546000908210611cc35760405162461bcd60e51b815260206004820152602260248201527f456e756d657261626c655365743a20696e646578206f7574206f6620626f756e604482015261647360f01b60648201526084016107c0565b826000018281548110611cd857611cd86120c7565b9060005260206000200154905092915050565b6000818152600183016020526040812054611d3257508154600181810184556000848152602080822090930184905584548482528286019093526040902091909155611530565b506000611530565b60008181526001830160205260408120548015611e23576000611d5e60018361210c565b8554909150600090611d729060019061210c565b90506000866000018281548110611d8b57611d8b6120c7565b9060005260206000200154905080876000018481548110611dae57611dae6120c7565b600091825260209091200155611dc583600161211f565b60008281526001890160205260409020558654879080611de757611de7612132565b60019003818190600052602060002001600090559055866001016000878152602001908152602001600020600090556001945050505050611530565b6000915050611530565b600060208284031215611e3f57600080fd5b81356001600160e01b031981168114611e5757600080fd5b9392505050565b80356001600160a01b0381168114611e7557600080fd5b919050565b600060208284031215611e8c57600080fd5b61152d82611e5e565b60008060408385031215611ea857600080fd5b611eb183611e5e565b9150611ebf60208401611e5e565b90509250929050565b600060208284031215611eda57600080fd5b5035919050565b60008060408385031215611ef457600080fd5b82359150611ebf60208401611e5e565b60008060408385031215611f1757600080fd5b611f2083611e5e565b946020939093013593505050565b600080600060408486031215611f4357600080fd5b833567ffffffffffffffff80821115611f5b57600080fd5b818601915086601f830112611f6f57600080fd5b813581811115611f7e57600080fd5b8760208260051b8501011115611f9357600080fd5b602092830195509350611fa99186019050611e5e565b90509250925092565b60008060408385031215611fc557600080fd5b50508035926020909101359150565b9182526001600160a01b0316602082015260400190565b600060208284031215611ffd57600080fd5b81518015158114611e5757600080fd5b60208082526017908201527f44414f436f6d6d69747465653a206e6f742061646d696e000000000000000000604082015260600190565b6020808252601a908201527f44414f436f6d6d69747465653a207a65726f2061646472657373000000000000604082015260600190565b6020808252602c908201527f53746f726167655374617465436f6d6d69747465653a204167656e64614d616e60408201526b61676572206973207a65726f60a01b606082015260800190565b634e487b7160e01b600052603260045260246000fd5b634e487b7160e01b600052601160045260246000fd5b600060018201612105576121056120dd565b5060010190565b81810381811115611530576115306120dd565b80820180821115611530576115306120dd565b634e487b7160e01b600052603160045260246000fdfea164736f6c6343000813000a",
  "linkReferences": {},
  "deployedLinkReferences": {}
}