{
  "_format": "hh-sol-artifact-1",
  "contractName": "DAOCommitteeOwner",
  "sourceName": "contracts/dao/DAOCommitteeOwner.sol",
  "abi": [
    {
      "anonymous": false,
      "inputs": [
        {
          "indexed": true,
          "internalType": "bytes32",
          "name": "role",
          "type": "bytes32"
        },
        {
          "indexed": true,
          "internalType": "bytes32",
          "name": "previousAdminRole",
          "type": "bytes32"
        },
        {
          "indexed": true,
          "internalType": "bytes32",
          "name": "newAdminRole",
          "type": "bytes32"
        }
      ],
      "name": "RoleAdminChanged",
      "type": "event"
    },
    {
      "anonymous": false,
      "inputs": [
        {
          "indexed": true,
          "internalType": "bytes32",
          "name": "role",
          "type": "bytes32"
        },
        {
          "indexed": true,
          "internalType": "address",
          "name": "account",
          "type": "address"
        },
        {
          "indexed": true,
          "internalType": "address",
          "name": "sender",
          "type": "address"
        }
      ],
      "name": "RoleGranted",
      "type": "event"
    },
    {
      "anonymous": false,
      "inputs": [
        {
          "indexed": true,
          "internalType": "bytes32",
          "name": "role",
          "type": "bytes32"
        },
        {
          "indexed": true,
          "internalType": "address",
          "name": "account",
          "type": "address"
        },
        {
          "indexed": true,
          "internalType": "address",
          "name": "sender",
          "type": "address"
        }
      ],
      "name": "RoleRevoked",
      "type": "event"
    },
    {
      "inputs": [],
      "name": "DEFAULT_ADMIN_ROLE",
      "outputs": [
        {
          "internalType": "bytes32",
          "name": "",
          "type": "bytes32"
        }
      ],
      "stateMutability": "view",
      "type": "function"
    },
    {
      "inputs": [],
      "name": "activityRewardPerSecond",
      "outputs": [
        {
          "internalType": "uint256",
          "name": "",
          "type": "uint256"
        }
      ],
      "stateMutability": "view",
      "type": "function"
    },
    {
      "inputs": [],
      "name": "agendaManager",
      "outputs": [
        {
          "internalType": "contract IDAOAgendaManager",
          "name": "",
          "type": "address"
        }
      ],
      "stateMutability": "view",
      "type": "function"
    },
    {
      "inputs": [
        {
          "internalType": "address",
          "name": "_candidate",
          "type": "address"
        }
      ],
      "name": "candidateContract",
      "outputs": [
        {
          "internalType": "address",
          "name": "",
          "type": "address"
        }
      ],
      "stateMutability": "view",
      "type": "function"
    },
    {
      "inputs": [],
      "name": "candidateFactory",
      "outputs": [
        {
          "internalType": "contract ICandidateFactory",
          "name": "",
          "type": "address"
        }
      ],
      "stateMutability": "view",
      "type": "function"
    },
    {
      "inputs": [
        {
          "internalType": "address",
          "name": "_candidate",
          "type": "address"
        }
      ],
      "name": "candidateInfos",
      "outputs": [
        {
          "components": [
            {
              "internalType": "address",
              "name": "candidateContract",
              "type": "address"
            },
            {
              "internalType": "uint256",
              "name": "indexMembers",
              "type": "uint256"
            },
            {
              "internalType": "uint128",
              "name": "memberJoinedTime",
              "type": "uint128"
            },
            {
              "internalType": "uint128",
              "name": "rewardPeriod",
              "type": "uint128"
            },
            {
              "internalType": "uint128",
              "name": "claimedTimestamp",
              "type": "uint128"
            }
          ],
          "internalType": "struct StorageStateCommittee.CandidateInfo",
          "name": "",
          "type": "tuple"
        }
      ],
      "stateMutability": "view",
      "type": "function"
    },
    {
      "inputs": [
        {
          "internalType": "uint256",
          "name": "",
          "type": "uint256"
        }
      ],
      "name": "candidates",
      "outputs": [
        {
          "internalType": "address",
          "name": "",
          "type": "address"
        }
      ],
      "stateMutability": "view",
      "type": "function"
    },
    {
      "inputs": [],
      "name": "daoVault",
      "outputs": [
        {
          "internalType": "contract IDAOVault",
          "name": "",
          "type": "address"
        }
      ],
      "stateMutability": "view",
      "type": "function"
    },
    {
      "inputs": [
        {
          "internalType": "bytes32",
          "name": "role",
          "type": "bytes32"
        }
      ],
      "name": "getRoleAdmin",
      "outputs": [
        {
          "internalType": "bytes32",
          "name": "",
          "type": "bytes32"
        }
      ],
      "stateMutability": "view",
      "type": "function"
    },
    {
      "inputs": [
        {
          "internalType": "bytes32",
          "name": "role",
          "type": "bytes32"
        },
        {
          "internalType": "uint256",
          "name": "index",
          "type": "uint256"
        }
      ],
      "name": "getRoleMember",
      "outputs": [
        {
          "internalType": "address",
          "name": "",
          "type": "address"
        }
      ],
      "stateMutability": "view",
      "type": "function"
    },
    {
      "inputs": [
        {
          "internalType": "bytes32",
          "name": "role",
          "type": "bytes32"
        }
      ],
      "name": "getRoleMemberCount",
      "outputs": [
        {
          "internalType": "uint256",
          "name": "",
          "type": "uint256"
        }
      ],
      "stateMutability": "view",
      "type": "function"
    },
    {
      "inputs": [
        {
          "internalType": "bytes32",
          "name": "role",
          "type": "bytes32"
        },
        {
          "internalType": "address",
          "name": "account",
          "type": "address"
        }
      ],
      "name": "grantRole",
      "outputs": [],
      "stateMutability": "nonpayable",
      "type": "function"
    },
    {
      "inputs": [
        {
          "internalType": "bytes32",
          "name": "role",
          "type": "bytes32"
        },
        {
          "internalType": "address",
          "name": "account",
          "type": "address"
        }
      ],
      "name": "hasRole",
      "outputs": [
        {
          "internalType": "bool",
          "name": "",
          "type": "bool"
        }
      ],
      "stateMutability": "view",
      "type": "function"
    },
    {
      "inputs": [
        {
          "internalType": "address",
          "name": "_candidate",
          "type": "address"
        }
      ],
      "name": "isMember",
      "outputs": [
        {
          "internalType": "bool",
          "name": "",
          "type": "bool"
        }
      ],
      "stateMutability": "view",
      "type": "function"
    },
    {
      "inputs": [],
      "name": "layer2Registry",
      "outputs": [
        {
          "internalType": "contract ILayer2Registry",
          "name": "",
          "type": "address"
        }
      ],
      "stateMutability": "view",
      "type": "function"
    },
    {
      "inputs": [],
      "name": "maxMember",
      "outputs": [
        {
          "internalType": "uint256",
          "name": "",
          "type": "uint256"
        }
      ],
      "stateMutability": "view",
      "type": "function"
    },
    {
      "inputs": [
        {
          "internalType": "uint256",
          "name": "",
          "type": "uint256"
        }
      ],
      "name": "members",
      "outputs": [
        {
          "internalType": "address",
          "name": "",
          "type": "address"
        }
      ],
      "stateMutability": "view",
      "type": "function"
    },
    {
      "inputs": [],
      "name": "quorum",
      "outputs": [
        {
          "internalType": "uint256",
          "name": "",
          "type": "uint256"
        }
      ],
      "stateMutability": "view",
      "type": "function"
    },
    {
      "inputs": [
        {
          "internalType": "bytes32",
          "name": "role",
          "type": "bytes32"
        },
        {
          "internalType": "address",
          "name": "account",
          "type": "address"
        }
      ],
      "name": "renounceRole",
      "outputs": [],
      "stateMutability": "nonpayable",
      "type": "function"
    },
    {
      "inputs": [
        {
          "internalType": "bytes32",
          "name": "role",
          "type": "bytes32"
        },
        {
          "internalType": "address",
          "name": "account",
          "type": "address"
        }
      ],
      "name": "revokeRole",
      "outputs": [],
      "stateMutability": "nonpayable",
      "type": "function"
    },
    {
      "inputs": [],
      "name": "seigManager",
      "outputs": [
        {
          "internalType": "contract ISeigManager",
          "name": "",
          "type": "address"
        }
      ],
      "stateMutability": "view",
      "type": "function"
    },
    {
      "inputs": [
        {
          "internalType": "address",
          "name": "_seigManager",
          "type": "address"
        }
      ],
      "name": "setSeigManager",
      "outputs": [],
      "stateMutability": "nonpayable",
      "type": "function"
    },
    {
      "inputs": [],
      "name": "setSeigPause",
      "outputs": [],
      "stateMutability": "nonpayable",
      "type": "function"
    },
    {
      "inputs": [],
      "name": "setSeigUnpause",
      "outputs": [],
      "stateMutability": "nonpayable",
      "type": "function"
    },
    {
      "inputs": [
        {
          "internalType": "address",
          "name": "token",
          "type": "address"
        },
        {
          "internalType": "address",
          "name": "account",
          "type": "address"
        }
      ],
      "name": "setTargetAddMinter",
      "outputs": [],
      "stateMutability": "nonpayable",
      "type": "function"
    },
    {
      "inputs": [
        {
          "internalType": "address",
          "name": "target",
          "type": "address"
        },
        {
          "internalType": "uint256",
          "name": "globalWithdrawalDelay_",
          "type": "uint256"
        }
      ],
      "name": "setTargetGlobalWithdrawalDelay",
      "outputs": [],
      "stateMutability": "nonpayable",
      "type": "function"
    },
    {
      "inputs": [
        {
          "internalType": "address",
          "name": "target",
          "type": "address"
        },
        {
          "internalType": "address",
          "name": "_seigManager",
          "type": "address"
        }
      ],
      "name": "setTargetSeigManager",
      "outputs": [],
      "stateMutability": "nonpayable",
      "type": "function"
    },
    {
      "inputs": [
        {
          "internalType": "address",
          "name": "target",
          "type": "address"
        },
        {
          "internalType": "address",
          "name": "logic",
          "type": "address"
        }
      ],
      "name": "setTargetUpgradeTo",
      "outputs": [],
      "stateMutability": "nonpayable",
      "type": "function"
    },
    {
      "inputs": [],
      "name": "ton",
      "outputs": [
        {
          "internalType": "address",
          "name": "",
          "type": "address"
        }
      ],
      "stateMutability": "view",
      "type": "function"
    }
  ],
  "bytecode": "0x608060405234801561001057600080fd5b506112d7806100206000396000f3fe608060405234801561001057600080fd5b50600436106101cf5760003560e01c80637f33163611610104578063a230c524116100a2578063cf2a239c11610071578063cf2a239c1461050b578063d547741f1461051e578063ebf97be614610531578063efd579791461054457600080fd5b8063a230c52414610492578063b5dd1158146104d2578063ca15c873146104e5578063cc48b947146104f857600080fd5b806391d14854116100de57806391d14854146104415780639d65b53114610464578063a1f3ac2a14610477578063a217fddf1461048a57600080fd5b80637f3316361461041d57806381bfe42c146104265780639010d07c1461042e57600080fd5b806336568abe116101715780635daf08ca1161014b5780635daf08ca146103b8578063651d08cd146103cb5780636fb7f558146103f75780637657f20a1461040a57600080fd5b806336568abe1461037f57806338d1b17c146103925780635903bd6c146103a557600080fd5b806327fd92fd116101ad57806327fd92fd1461021c5780632e011c1e146102475780632f2ff15d146103575780633477ee2e1461036c57600080fd5b806303e3c9ac146101d45780631703a018146101f0578063248a9ca3146101f9575b600080fd5b6101dd60085481565b6040519081526020015b60405180910390f35b6101dd600a5481565b6101dd610207366004611147565b6000908152600c602052604090206002015490565b60025461022f906001600160a01b031681565b6040516001600160a01b0390911681526020016101e7565b6102f961025536600461117c565b6040805160a0808201835260008083526020808401829052838501829052606080850183905260809485018390526001600160a01b0396871683526009825291859020855193840186528054909616835260018601549083015260028501546fffffffffffffffffffffffffffffffff8082169584019590955270010000000000000000000000000000000090048416908201526003909301549091169082015290565b6040805182516001600160a01b0316815260208084015190820152828201516fffffffffffffffffffffffffffffffff908116928201929092526060808401518316908201526080928301519091169181019190915260a0016101e7565b61036a610365366004611197565b61054c565b005b61022f61037a366004611147565b6105ed565b61036a61038d366004611197565b610617565b61036a6103a03660046111c3565b61069f565b60015461022f906001600160a01b031681565b61022f6103c6366004611147565b6107aa565b61022f6103d936600461117c565b6001600160a01b039081166000908152600960205260409020541690565b60055461022f906001600160a01b031681565b61036a61041836600461117c565b6107ba565b6101dd600b5481565b61036a6108ed565b61022f61043c3660046111ed565b610a03565b61045461044f366004611197565b610a24565b60405190151581526020016101e7565b61036a61047236600461120f565b610a3c565b61036a61048536600461120f565b610b16565b6101dd600081565b6104546104a036600461117c565b6001600160a01b03166000908152600960205260409020600201546fffffffffffffffffffffffffffffffff16151590565b60035461022f906001600160a01b031681565b6101dd6104f3366004611147565b610bf0565b60005461022f906001600160a01b031681565b60045461022f906001600160a01b031681565b61036a61052c366004611197565b610c07565b61036a61053f36600461120f565b610c95565b61036a610d6f565b6000828152600c60205260409020600201546105689033610a24565b6105df5760405162461bcd60e51b815260206004820152602f60248201527f416363657373436f6e74726f6c3a2073656e646572206d75737420626520616e60448201527f2061646d696e20746f206772616e74000000000000000000000000000000000060648201526084015b60405180910390fd5b6105e98282610e6b565b5050565b600681815481106105fd57600080fd5b6000918252602090912001546001600160a01b0316905081565b6001600160a01b03811633146106955760405162461bcd60e51b815260206004820152602f60248201527f416363657373436f6e74726f6c3a2063616e206f6e6c792072656e6f756e636560448201527f20726f6c657320666f722073656c66000000000000000000000000000000000060648201526084016105d6565b6105e98282610ec4565b604051632474521560e21b81526000600482015233602482015230906391d1485490604401602060405180830381865afa1580156106e1573d6000803e3d6000fd5b505050506040513d601f19601f820116820180604052508101906107059190611239565b61074b5760405162461bcd60e51b81526020600482015260176024820152762220a7a1b7b6b6b4ba3a32b29d103737ba1030b236b4b760491b60448201526064016105d6565b60405163a79da34160e01b8152600481018290526001600160a01b0383169063a79da341906024015b600060405180830381600087803b15801561078e57600080fd5b505af11580156107a2573d6000803e3d6000fd5b505050505050565b600781815481106105fd57600080fd5b604051632474521560e21b81526000600482015233602482015230906391d1485490604401602060405180830381865afa1580156107fc573d6000803e3d6000fd5b505050506040513d601f19601f820116820180604052508101906108209190611239565b6108665760405162461bcd60e51b81526020600482015260176024820152762220a7a1b7b6b6b4ba3a32b29d103737ba1030b236b4b760491b60448201526064016105d6565b806001600160a01b0381166108bd5760405162461bcd60e51b815260206004820152601a60248201527f44414f436f6d6d69747465653a207a65726f206164647265737300000000000060448201526064016105d6565b506005805473ffffffffffffffffffffffffffffffffffffffff19166001600160a01b0392909216919091179055565b604051632474521560e21b81526000600482015233602482015230906391d1485490604401602060405180830381865afa15801561092f573d6000803e3d6000fd5b505050506040513d601f19601f820116820180604052508101906109539190611239565b6109995760405162461bcd60e51b81526020600482015260176024820152762220a7a1b7b6b6b4ba3a32b29d103737ba1030b236b4b760491b60448201526064016105d6565b600560009054906101000a90046001600160a01b03166001600160a01b0316633f4ba83a6040518163ffffffff1660e01b8152600401600060405180830381600087803b1580156109e957600080fd5b505af11580156109fd573d6000803e3d6000fd5b50505050565b6000828152600c60205260408120610a1b9083610f1d565b90505b92915050565b6000828152600c60205260408120610a1b9083610f29565b604051632474521560e21b81526000600482015233602482015230906391d1485490604401602060405180830381865afa158015610a7e573d6000803e3d6000fd5b505050506040513d601f19601f82011682018060405250810190610aa29190611239565b610ae85760405162461bcd60e51b81526020600482015260176024820152762220a7a1b7b6b6b4ba3a32b29d103737ba1030b236b4b760491b60448201526064016105d6565b604051634c1d96ab60e11b81526001600160a01b03828116600483015283169063983b2d5690602401610774565b604051632474521560e21b81526000600482015233602482015230906391d1485490604401602060405180830381865afa158015610b58573d6000803e3d6000fd5b505050506040513d601f19601f82011682018060405250810190610b7c9190611239565b610bc25760405162461bcd60e51b81526020600482015260176024820152762220a7a1b7b6b6b4ba3a32b29d103737ba1030b236b4b760491b60448201526064016105d6565b604051633b2bf90560e11b81526001600160a01b038281166004830152831690637657f20a90602401610774565b6000818152600c60205260408120610a1e90610f4b565b6000828152600c6020526040902060020154610c239033610a24565b6106955760405162461bcd60e51b815260206004820152603060248201527f416363657373436f6e74726f6c3a2073656e646572206d75737420626520616e60448201527f2061646d696e20746f207265766f6b650000000000000000000000000000000060648201526084016105d6565b604051632474521560e21b81526000600482015233602482015230906391d1485490604401602060405180830381865afa158015610cd7573d6000803e3d6000fd5b505050506040513d601f19601f82011682018060405250810190610cfb9190611239565b610d415760405162461bcd60e51b81526020600482015260176024820152762220a7a1b7b6b6b4ba3a32b29d103737ba1030b236b4b760491b60448201526064016105d6565b604051631b2ce7f360e11b81526001600160a01b038281166004830152831690633659cfe690602401610774565b604051632474521560e21b81526000600482015233602482015230906391d1485490604401602060405180830381865afa158015610db1573d6000803e3d6000fd5b505050506040513d601f19601f82011682018060405250810190610dd59190611239565b610e1b5760405162461bcd60e51b81526020600482015260176024820152762220a7a1b7b6b6b4ba3a32b29d103737ba1030b236b4b760491b60448201526064016105d6565b600560009054906101000a90046001600160a01b03166001600160a01b0316638456cb596040518163ffffffff1660e01b8152600401600060405180830381600087803b1580156109e957600080fd5b6000828152600c60205260409020610e839082610f55565b156105e95760405133906001600160a01b0383169084907f2f8788117e7eff1d82e926ec794901d17c78024a50270940304540a733656f0d90600090a45050565b6000828152600c60205260409020610edc9082610f6a565b156105e95760405133906001600160a01b0383169084907ff6391f5c32d9c69d2a47ea670b442974b53935d1edc7fd64eb21e047a839171b90600090a45050565b6000610a1b8383610f7f565b6001600160a01b03811660009081526001830160205260408120541515610a1b565b6000610a1e825490565b6000610a1b836001600160a01b038416611005565b6000610a1b836001600160a01b038416611054565b81546000908210610fdd5760405162461bcd60e51b815260206004820152602260248201527f456e756d657261626c655365743a20696e646578206f7574206f6620626f756e604482015261647360f01b60648201526084016105d6565b826000018281548110610ff257610ff2611262565b9060005260206000200154905092915050565b600081815260018301602052604081205461104c57508154600181810184556000848152602080822090930184905584548482528286019093526040902091909155610a1e565b506000610a1e565b6000818152600183016020526040812054801561113d57600061107860018361128e565b855490915060009061108c9060019061128e565b905060008660000182815481106110a5576110a5611262565b90600052602060002001549050808760000184815481106110c8576110c8611262565b6000918252602090912001556110df8360016112a1565b60008281526001890160205260409020558654879080611101576111016112b4565b60019003818190600052602060002001600090559055866001016000878152602001908152602001600020600090556001945050505050610a1e565b6000915050610a1e565b60006020828403121561115957600080fd5b5035919050565b80356001600160a01b038116811461117757600080fd5b919050565b60006020828403121561118e57600080fd5b610a1b82611160565b600080604083850312156111aa57600080fd5b823591506111ba60208401611160565b90509250929050565b600080604083850312156111d657600080fd5b6111df83611160565b946020939093013593505050565b6000806040838503121561120057600080fd5b50508035926020909101359150565b6000806040838503121561122257600080fd5b61122b83611160565b91506111ba60208401611160565b60006020828403121561124b57600080fd5b8151801515811461125b57600080fd5b9392505050565b634e487b7160e01b600052603260045260246000fd5b634e487b7160e01b600052601160045260246000fd5b81810381811115610a1e57610a1e611278565b80820180821115610a1e57610a1e611278565b634e487b7160e01b600052603160045260246000fdfea164736f6c6343000813000a",
  "linkReferences": {},
  "deployedLinkReferences": {}
}