{
  "_format": "hh-sol-artifact-1",
  "contractName": "DAOCommitteeOwner",
  "sourceName": "contracts/dao/DAOCommitteeOwner.sol",
  "abi": [
    {
      "anonymous": false,
      "inputs": [
        {
          "indexed": false,
          "internalType": "uint256",
          "name": "newReward",
          "type": "uint256"
        }
      ],
      "name": "ActivityRewardChanged",
      "type": "event"
    },
    {
      "anonymous": false,
      "inputs": [
        {
          "indexed": true,
          "internalType": "bytes32",
          "name": "role",
          "type": "bytes32"
        },
        {
          "indexed": true,
          "internalType": "bytes32",
          "name": "previousAdminRole",
          "type": "bytes32"
        },
        {
          "indexed": true,
          "internalType": "bytes32",
          "name": "newAdminRole",
          "type": "bytes32"
        }
      ],
      "name": "RoleAdminChanged",
      "type": "event"
    },
    {
      "anonymous": false,
      "inputs": [
        {
          "indexed": true,
          "internalType": "bytes32",
          "name": "role",
          "type": "bytes32"
        },
        {
          "indexed": true,
          "internalType": "address",
          "name": "account",
          "type": "address"
        },
        {
          "indexed": true,
          "internalType": "address",
          "name": "sender",
          "type": "address"
        }
      ],
      "name": "RoleGranted",
      "type": "event"
    },
    {
      "anonymous": false,
      "inputs": [
        {
          "indexed": true,
          "internalType": "bytes32",
          "name": "role",
          "type": "bytes32"
        },
        {
          "indexed": true,
          "internalType": "address",
          "name": "account",
          "type": "address"
        },
        {
          "indexed": true,
          "internalType": "address",
          "name": "sender",
          "type": "address"
        }
      ],
      "name": "RoleRevoked",
      "type": "event"
    },
    {
      "inputs": [],
      "name": "DEFAULT_ADMIN_ROLE",
      "outputs": [
        {
          "internalType": "bytes32",
          "name": "",
          "type": "bytes32"
        }
      ],
      "stateMutability": "view",
      "type": "function"
    },
    {
      "inputs": [],
      "name": "activityRewardPerSecond",
      "outputs": [
        {
          "internalType": "uint256",
          "name": "",
          "type": "uint256"
        }
      ],
      "stateMutability": "view",
      "type": "function"
    },
    {
      "inputs": [],
      "name": "agendaManager",
      "outputs": [
        {
          "internalType": "contract IDAOAgendaManager",
          "name": "",
          "type": "address"
        }
      ],
      "stateMutability": "view",
      "type": "function"
    },
    {
      "inputs": [
        {
          "internalType": "address",
          "name": "_candidate",
          "type": "address"
        }
      ],
      "name": "candidateContract",
      "outputs": [
        {
          "internalType": "address",
          "name": "",
          "type": "address"
        }
      ],
      "stateMutability": "view",
      "type": "function"
    },
    {
      "inputs": [],
      "name": "candidateFactory",
      "outputs": [
        {
          "internalType": "contract ICandidateFactory",
          "name": "",
          "type": "address"
        }
      ],
      "stateMutability": "view",
      "type": "function"
    },
    {
      "inputs": [
        {
          "internalType": "address",
          "name": "_candidate",
          "type": "address"
        }
      ],
      "name": "candidateInfos",
      "outputs": [
        {
          "components": [
            {
              "internalType": "address",
              "name": "candidateContract",
              "type": "address"
            },
            {
              "internalType": "uint256",
              "name": "indexMembers",
              "type": "uint256"
            },
            {
              "internalType": "uint128",
              "name": "memberJoinedTime",
              "type": "uint128"
            },
            {
              "internalType": "uint128",
              "name": "rewardPeriod",
              "type": "uint128"
            },
            {
              "internalType": "uint128",
              "name": "claimedTimestamp",
              "type": "uint128"
            }
          ],
          "internalType": "struct StorageStateCommittee.CandidateInfo",
          "name": "",
          "type": "tuple"
        }
      ],
      "stateMutability": "view",
      "type": "function"
    },
    {
      "inputs": [
        {
          "internalType": "uint256",
          "name": "",
          "type": "uint256"
        }
      ],
      "name": "candidates",
      "outputs": [
        {
          "internalType": "address",
          "name": "",
          "type": "address"
        }
      ],
      "stateMutability": "view",
      "type": "function"
    },
    {
      "inputs": [],
      "name": "daoVault",
      "outputs": [
        {
          "internalType": "contract IDAOVault",
          "name": "",
          "type": "address"
        }
      ],
      "stateMutability": "view",
      "type": "function"
    },
    {
      "inputs": [
        {
          "internalType": "bytes32",
          "name": "role",
          "type": "bytes32"
        }
      ],
      "name": "getRoleAdmin",
      "outputs": [
        {
          "internalType": "bytes32",
          "name": "",
          "type": "bytes32"
        }
      ],
      "stateMutability": "view",
      "type": "function"
    },
    {
      "inputs": [
        {
          "internalType": "bytes32",
          "name": "role",
          "type": "bytes32"
        },
        {
          "internalType": "uint256",
          "name": "index",
          "type": "uint256"
        }
      ],
      "name": "getRoleMember",
      "outputs": [
        {
          "internalType": "address",
          "name": "",
          "type": "address"
        }
      ],
      "stateMutability": "view",
      "type": "function"
    },
    {
      "inputs": [
        {
          "internalType": "bytes32",
          "name": "role",
          "type": "bytes32"
        }
      ],
      "name": "getRoleMemberCount",
      "outputs": [
        {
          "internalType": "uint256",
          "name": "",
          "type": "uint256"
        }
      ],
      "stateMutability": "view",
      "type": "function"
    },
    {
      "inputs": [
        {
          "internalType": "bytes32",
          "name": "role",
          "type": "bytes32"
        },
        {
          "internalType": "address",
          "name": "account",
          "type": "address"
        }
      ],
      "name": "grantRole",
      "outputs": [],
      "stateMutability": "nonpayable",
      "type": "function"
    },
    {
      "inputs": [
        {
          "internalType": "bytes32",
          "name": "role",
          "type": "bytes32"
        },
        {
          "internalType": "address",
          "name": "account",
          "type": "address"
        }
      ],
      "name": "hasRole",
      "outputs": [
        {
          "internalType": "bool",
          "name": "",
          "type": "bool"
        }
      ],
      "stateMutability": "view",
      "type": "function"
    },
    {
      "inputs": [
        {
          "internalType": "address",
          "name": "_candidate",
          "type": "address"
        }
      ],
      "name": "isMember",
      "outputs": [
        {
          "internalType": "bool",
          "name": "",
          "type": "bool"
        }
      ],
      "stateMutability": "view",
      "type": "function"
    },
    {
      "inputs": [],
      "name": "layer2Registry",
      "outputs": [
        {
          "internalType": "contract ILayer2Registry",
          "name": "",
          "type": "address"
        }
      ],
      "stateMutability": "view",
      "type": "function"
    },
    {
      "inputs": [],
      "name": "maxMember",
      "outputs": [
        {
          "internalType": "uint256",
          "name": "",
          "type": "uint256"
        }
      ],
      "stateMutability": "view",
      "type": "function"
    },
    {
      "inputs": [
        {
          "internalType": "uint256",
          "name": "",
          "type": "uint256"
        }
      ],
      "name": "members",
      "outputs": [
        {
          "internalType": "address",
          "name": "",
          "type": "address"
        }
      ],
      "stateMutability": "view",
      "type": "function"
    },
    {
      "inputs": [],
      "name": "pauseProxy",
      "outputs": [
        {
          "internalType": "bool",
          "name": "",
          "type": "bool"
        }
      ],
      "stateMutability": "view",
      "type": "function"
    },
    {
      "inputs": [],
      "name": "quorum",
      "outputs": [
        {
          "internalType": "uint256",
          "name": "",
          "type": "uint256"
        }
      ],
      "stateMutability": "view",
      "type": "function"
    },
    {
      "inputs": [
        {
          "internalType": "bytes32",
          "name": "role",
          "type": "bytes32"
        },
        {
          "internalType": "address",
          "name": "account",
          "type": "address"
        }
      ],
      "name": "renounceRole",
      "outputs": [],
      "stateMutability": "nonpayable",
      "type": "function"
    },
    {
      "inputs": [
        {
          "internalType": "bytes32",
          "name": "role",
          "type": "bytes32"
        },
        {
          "internalType": "address",
          "name": "account",
          "type": "address"
        }
      ],
      "name": "revokeRole",
      "outputs": [],
      "stateMutability": "nonpayable",
      "type": "function"
    },
    {
      "inputs": [],
      "name": "seigManager",
      "outputs": [
        {
          "internalType": "contract ISeigManager",
          "name": "",
          "type": "address"
        }
      ],
      "stateMutability": "view",
      "type": "function"
    },
    {
      "inputs": [
        {
          "internalType": "uint256",
          "name": "_value",
          "type": "uint256"
        }
      ],
      "name": "setActivityRewardPerSecond",
      "outputs": [],
      "stateMutability": "nonpayable",
      "type": "function"
    },
    {
      "inputs": [
        {
          "internalType": "address",
          "name": "_agendaManager",
          "type": "address"
        }
      ],
      "name": "setAgendaManager",
      "outputs": [],
      "stateMutability": "nonpayable",
      "type": "function"
    },
    {
      "inputs": [
        {
          "internalType": "address",
          "name": "_candidateFactory",
          "type": "address"
        }
      ],
      "name": "setCandidateFactory",
      "outputs": [],
      "stateMutability": "nonpayable",
      "type": "function"
    },
    {
      "inputs": [
        {
          "internalType": "address[]",
          "name": "_candidateContracts",
          "type": "address[]"
        },
        {
          "internalType": "address",
          "name": "_committee",
          "type": "address"
        }
      ],
      "name": "setCandidatesCommittee",
      "outputs": [],
      "stateMutability": "nonpayable",
      "type": "function"
    },
    {
      "inputs": [
        {
          "internalType": "address[]",
          "name": "_candidateContracts",
          "type": "address[]"
        },
        {
          "internalType": "address",
          "name": "_seigManager",
          "type": "address"
        }
      ],
      "name": "setCandidatesSeigManager",
      "outputs": [],
      "stateMutability": "nonpayable",
      "type": "function"
    },
    {
      "inputs": [
        {
          "internalType": "uint256",
          "name": "_fees",
          "type": "uint256"
        }
      ],
      "name": "setCreateAgendaFees",
      "outputs": [],
      "stateMutability": "nonpayable",
      "type": "function"
    },
    {
      "inputs": [
        {
          "internalType": "address",
          "name": "_daoVault",
          "type": "address"
        }
      ],
      "name": "setDaoVault",
      "outputs": [],
      "stateMutability": "nonpayable",
      "type": "function"
    },
    {
      "inputs": [
        {
          "internalType": "uint256",
          "name": "_executingPeriodSeconds",
          "type": "uint256"
        }
      ],
      "name": "setExecutingPeriodSeconds",
      "outputs": [],
      "stateMutability": "nonpayable",
      "type": "function"
    },
    {
      "inputs": [
        {
          "internalType": "address",
          "name": "_layer2Registry",
          "type": "address"
        }
      ],
      "name": "setLayer2Registry",
      "outputs": [],
      "stateMutability": "nonpayable",
      "type": "function"
    },
    {
      "inputs": [
        {
          "internalType": "uint256",
          "name": "_minimumNoticePeriod",
          "type": "uint256"
        }
      ],
      "name": "setMinimumNoticePeriodSeconds",
      "outputs": [],
      "stateMutability": "nonpayable",
      "type": "function"
    },
    {
      "inputs": [
        {
          "internalType": "uint256",
          "name": "_minimumVotingPeriod",
          "type": "uint256"
        }
      ],
      "name": "setMinimumVotingPeriodSeconds",
      "outputs": [],
      "stateMutability": "nonpayable",
      "type": "function"
    },
    {
      "inputs": [
        {
          "internalType": "address",
          "name": "_seigManager",
          "type": "address"
        }
      ],
      "name": "setSeigManager",
      "outputs": [],
      "stateMutability": "nonpayable",
      "type": "function"
    },
    {
      "inputs": [],
      "name": "setSeigPause",
      "outputs": [],
      "stateMutability": "nonpayable",
      "type": "function"
    },
    {
      "inputs": [],
      "name": "setSeigUnpause",
      "outputs": [],
      "stateMutability": "nonpayable",
      "type": "function"
    },
    {
      "inputs": [
        {
          "internalType": "address",
          "name": "token",
          "type": "address"
        },
        {
          "internalType": "address",
          "name": "account",
          "type": "address"
        }
      ],
      "name": "setTargetAddMinter",
      "outputs": [],
      "stateMutability": "nonpayable",
      "type": "function"
    },
    {
      "inputs": [
        {
          "internalType": "address",
          "name": "target",
          "type": "address"
        },
        {
          "internalType": "uint256",
          "name": "globalWithdrawalDelay_",
          "type": "uint256"
        }
      ],
      "name": "setTargetGlobalWithdrawalDelay",
      "outputs": [],
      "stateMutability": "nonpayable",
      "type": "function"
    },
    {
      "inputs": [
        {
          "internalType": "address",
          "name": "target",
          "type": "address"
        },
        {
          "internalType": "address",
          "name": "_seigManager",
          "type": "address"
        }
      ],
      "name": "setTargetSeigManager",
      "outputs": [],
      "stateMutability": "nonpayable",
      "type": "function"
    },
    {
      "inputs": [
        {
          "internalType": "address",
          "name": "target",
          "type": "address"
        },
        {
          "internalType": "address",
          "name": "tonAddr",
          "type": "address"
        }
      ],
      "name": "setTargetSetTON",
      "outputs": [],
      "stateMutability": "nonpayable",
      "type": "function"
    },
    {
      "inputs": [
        {
          "internalType": "address",
          "name": "target",
          "type": "address"
        },
        {
          "internalType": "address",
          "name": "logic",
          "type": "address"
        }
      ],
      "name": "setTargetUpgradeTo",
      "outputs": [],
      "stateMutability": "nonpayable",
      "type": "function"
    },
    {
      "inputs": [
        {
          "internalType": "address",
          "name": "_ton",
          "type": "address"
        }
      ],
      "name": "setTon",
      "outputs": [],
      "stateMutability": "nonpayable",
      "type": "function"
    },
    {
      "inputs": [
        {
          "internalType": "address",
          "name": "_wton",
          "type": "address"
        }
      ],
      "name": "setWton",
      "outputs": [],
      "stateMutability": "nonpayable",
      "type": "function"
    },
    {
      "inputs": [
        {
          "internalType": "bytes4",
          "name": "interfaceId",
          "type": "bytes4"
        }
      ],
      "name": "supportsInterface",
      "outputs": [
        {
          "internalType": "bool",
          "name": "",
          "type": "bool"
        }
      ],
      "stateMutability": "view",
      "type": "function"
    },
    {
      "inputs": [],
      "name": "ton",
      "outputs": [
        {
          "internalType": "address",
          "name": "",
          "type": "address"
        }
      ],
      "stateMutability": "view",
      "type": "function"
    },
    {
      "inputs": [],
      "name": "wton",
      "outputs": [
        {
          "internalType": "address",
          "name": "",
          "type": "address"
        }
      ],
      "stateMutability": "view",
      "type": "function"
    }
  ],
  "bytecode": "0x608060405234801561001057600080fd5b506100216301ffc9a760e01b610026565b6100a9565b6001600160e01b031980821690036100845760405162461bcd60e51b815260206004820152601c60248201527f4552433136353a20696e76616c696420696e7465726661636520696400000000604482015260640160405180910390fd5b6001600160e01b0319166000908152600d60205260409020805460ff19166001179055565b61262580620000b96000396000f3fe608060405234801561001057600080fd5b506004361061030a5760003560e01c8063691542951161019c578063a217fddf116100ee578063ca15c87311610097578063d547741f11610071578063d547741f146107c8578063ebf97be6146107db578063efd57979146107ee57600080fd5b8063ca15c8731461078f578063cc48b947146107a2578063cf2a239c146107b557600080fd5b8063b4f69b6a116100c8578063b4f69b6a14610756578063b5dd115814610769578063c0bc53041461077c57600080fd5b8063a217fddf146106fb578063a230c52414610703578063aef2c5851461074357600080fd5b806381bfe42c1161015057806391d148541161012a57806391d14854146106c25780639d65b531146106d5578063a1f3ac2a146106e857600080fd5b806381bfe42c146106945780638d62d9491461069c5780639010d07c146106af57600080fd5b80636fb7f558116101815780636fb7f558146106655780637657f20a146106785780637f3316361461068b57600080fd5b8063691542951461063f57806369b1227a1461065257600080fd5b80633477ee2e116102605780635903bd6c116102095780635ebe7622116101e35780635ebe7622146105db57806363a8fd89146105ee578063651d08cd1461061357600080fd5b80635903bd6c146105a25780635c43030f146105b55780635daf08ca146105c857600080fd5b806349c39f141161023a57806349c39f14146105695780634b799db11461057c5780634d288fec1461058f57600080fd5b80633477ee2e1461053057806336568abe1461054357806338d1b17c1461055657600080fd5b806323d09fdf116102c25780632af60ff41161029c5780632af60ff4146103fa5780632e011c1e1461040d5780632f2ff15d1461051d57600080fd5b806323d09fdf14610399578063248a9ca3146103ac57806327fd92fd146103cf57600080fd5b8063047f52f2116102f3578063047f52f2146103685780630ef646ad1461037d5780631703a0181461039057600080fd5b806301ffc9a71461030f57806303e3c9ac14610351575b600080fd5b61033c61031d36600461238e565b6001600160e01b0319166000908152600d602052604090205460ff1690565b60405190151581526020015b60405180910390f35b61035a60085481565b604051908152602001610348565b61037b6103763660046123db565b6107f6565b005b61037b61038b3660046123f6565b610903565b61035a600a5481565b61037b6103a7366004612429565b610a03565b61035a6103ba366004612429565b6000908152600c602052604090206002015490565b6002546103e2906001600160a01b031681565b6040516001600160a01b039091168152602001610348565b61037b6104083660046123db565b610b72565b6104bf61041b3660046123db565b6040805160a0808201835260008083526020808401829052838501829052606080850183905260809485018390526001600160a01b0396871683526009825291859020855193840186528054909616835260018601549083015260028501546fffffffffffffffffffffffffffffffff8082169584019590955270010000000000000000000000000000000090048416908201526003909301549091169082015290565b6040805182516001600160a01b0316815260208084015190820152828201516fffffffffffffffffffffffffffffffff908116928201929092526060808401518316908201526080928301519091169181019190915260a001610348565b61037b61052b366004612442565b610c7a565b6103e261053e366004612429565b610d16565b61037b610551366004612442565b610d40565b61037b610564366004612465565b610dc8565b61037b6105773660046123db565b610e95565b61037b61058a3660046123db565b610f9d565b61037b61059d3660046123db565b6110a5565b6001546103e2906001600160a01b031681565b61037b6105c336600461248f565b6111ad565b6103e26105d6366004612429565b611334565b61037b6105e9366004612429565b611344565b600e5461033c9074010000000000000000000000000000000000000000900460ff1681565b6103e26106213660046123db565b6001600160a01b039081166000908152600960205260409020541690565b61037b61064d36600461248f565b61141f565b61037b610660366004612429565b6115a6565b6005546103e2906001600160a01b031681565b61037b6106863660046123db565b6116e4565b61035a600b5481565b61037b6117ec565b6010546103e2906001600160a01b031681565b6103e26106bd366004612513565b6118f6565b61033c6106d0366004612442565b611917565b61037b6106e33660046123f6565b61192f565b61037b6106f63660046123f6565b6119fd565b61035a600081565b61033c6107113660046123db565b6001600160a01b03166000908152600960205260409020600201546fffffffffffffffffffffffffffffffff16151590565b61037b6107513660046123db565b611acb565b61037b610764366004612429565b611bd3565b6003546103e2906001600160a01b031681565b61037b61078a366004612429565b611d11565b61035a61079d366004612429565b611e4f565b6000546103e2906001600160a01b031681565b6004546103e2906001600160a01b031681565b61037b6107d6366004612442565b611e66565b61037b6107e93660046123f6565b611ef4565b61037b611fc2565b604051632474521560e21b81526000600482015233602482015230906391d1485490604401602060405180830381865afa158015610838573d6000803e3d6000fd5b505050506040513d601f19601f8201168201806040525081019061085c9190612535565b61089b5760405162461bcd60e51b815260206004820152601760248201526000805160206125d983398151915260448201526064015b60405180910390fd5b806001600160a01b0381166108e05760405162461bcd60e51b815260206004820152601a60248201526000805160206125f98339815191526044820152606401610892565b50600380546001600160a01b0319166001600160a01b0392909216919091179055565b604051632474521560e21b81526000600482015233602482015230906391d1485490604401602060405180830381865afa158015610945573d6000803e3d6000fd5b505050506040513d601f19601f820116820180604052508101906109699190612535565b6109a35760405162461bcd60e51b815260206004820152601760248201526000805160206125d98339815191526044820152606401610892565b604051631186d27960e11b81526001600160a01b03828116600483015283169063230da4f2906024015b600060405180830381600087803b1580156109e757600080fd5b505af11580156109fb573d6000803e3d6000fd5b505050505050565b604051632474521560e21b81526000600482015233602482015230906391d1485490604401602060405180830381865afa158015610a45573d6000803e3d6000fd5b505050506040513d601f19601f82011682018060405250810190610a699190612535565b610aa35760405162461bcd60e51b815260206004820152601760248201526000805160206125d98339815191526044820152606401610892565b6002546001600160a01b0316610b105760405162461bcd60e51b815260206004820152602c60248201527f53746f726167655374617465436f6d6d69747465653a204167656e64614d616e60448201526b61676572206973207a65726f60a01b6064820152608401610892565b6002546040516323d09fdf60e01b8152600481018390526001600160a01b03909116906323d09fdf906024015b600060405180830381600087803b158015610b5757600080fd5b505af1158015610b6b573d6000803e3d6000fd5b5050505050565b604051632474521560e21b81526000600482015233602482015230906391d1485490604401602060405180830381865afa158015610bb4573d6000803e3d6000fd5b505050506040513d601f19601f82011682018060405250810190610bd89190612535565b610c125760405162461bcd60e51b815260206004820152601760248201526000805160206125d98339815191526044820152606401610892565b806001600160a01b038116610c575760405162461bcd60e51b815260206004820152601a60248201526000805160206125f98339815191526044820152606401610892565b50600480546001600160a01b0319166001600160a01b0392909216919091179055565b6000828152600c6020526040902060020154610c969033611917565b610d085760405162461bcd60e51b815260206004820152602f60248201527f416363657373436f6e74726f6c3a2073656e646572206d75737420626520616e60448201527f2061646d696e20746f206772616e7400000000000000000000000000000000006064820152608401610892565b610d1282826120b2565b5050565b60068181548110610d2657600080fd5b6000918252602090912001546001600160a01b0316905081565b6001600160a01b0381163314610dbe5760405162461bcd60e51b815260206004820152602f60248201527f416363657373436f6e74726f6c3a2063616e206f6e6c792072656e6f756e636560448201527f20726f6c657320666f722073656c6600000000000000000000000000000000006064820152608401610892565b610d12828261210b565b604051632474521560e21b81526000600482015233602482015230906391d1485490604401602060405180830381865afa158015610e0a573d6000803e3d6000fd5b505050506040513d601f19601f82011682018060405250810190610e2e9190612535565b610e685760405162461bcd60e51b815260206004820152601760248201526000805160206125d98339815191526044820152606401610892565b60405163a79da34160e01b8152600481018290526001600160a01b0383169063a79da341906024016109cd565b604051632474521560e21b81526000600482015233602482015230906391d1485490604401602060405180830381865afa158015610ed7573d6000803e3d6000fd5b505050506040513d601f19601f82011682018060405250810190610efb9190612535565b610f355760405162461bcd60e51b815260206004820152601760248201526000805160206125d98339815191526044820152606401610892565b806001600160a01b038116610f7a5760405162461bcd60e51b815260206004820152601a60248201526000805160206125f98339815191526044820152606401610892565b50600280546001600160a01b0319166001600160a01b0392909216919091179055565b604051632474521560e21b81526000600482015233602482015230906391d1485490604401602060405180830381865afa158015610fdf573d6000803e3d6000fd5b505050506040513d601f19601f820116820180604052508101906110039190612535565b61103d5760405162461bcd60e51b815260206004820152601760248201526000805160206125d98339815191526044820152606401610892565b806001600160a01b0381166110825760405162461bcd60e51b815260206004820152601a60248201526000805160206125f98339815191526044820152606401610892565b50600180546001600160a01b0319166001600160a01b0392909216919091179055565b604051632474521560e21b81526000600482015233602482015230906391d1485490604401602060405180830381865afa1580156110e7573d6000803e3d6000fd5b505050506040513d601f19601f8201168201806040525081019061110b9190612535565b6111455760405162461bcd60e51b815260206004820152601760248201526000805160206125d98339815191526044820152606401610892565b806001600160a01b03811661118a5760405162461bcd60e51b815260206004820152601a60248201526000805160206125f98339815191526044820152606401610892565b50600080546001600160a01b0319166001600160a01b0392909216919091179055565b604051632474521560e21b81526000600482015233602482015230906391d1485490604401602060405180830381865afa1580156111ef573d6000803e3d6000fd5b505050506040513d601f19601f820116820180604052508101906112139190612535565b61124d5760405162461bcd60e51b815260206004820152601760248201526000805160206125d98339815191526044820152606401610892565b806001600160a01b0381166112925760405162461bcd60e51b815260206004820152601a60248201526000805160206125f98339815191526044820152606401610892565b60005b83811015610b6b578484828181106112af576112af612557565b90506020020160208101906112c491906123db565b604051635eed720760e11b81526001600160a01b038581166004830152919091169063bddae40e90602401600060405180830381600087803b15801561130957600080fd5b505af115801561131d573d6000803e3d6000fd5b50505050808061132c90612583565b915050611295565b60078181548110610d2657600080fd5b604051632474521560e21b81526000600482015233602482015230906391d1485490604401602060405180830381865afa158015611386573d6000803e3d6000fd5b505050506040513d601f19601f820116820180604052508101906113aa9190612535565b6113e45760405162461bcd60e51b815260206004820152601760248201526000805160206125d98339815191526044820152606401610892565b600b8190556040518181527f42bd846b3ff7895ea031753b0d8256b4816edaea44f7d8d9db60ea83b8ee5e4b9060200160405180910390a150565b604051632474521560e21b81526000600482015233602482015230906391d1485490604401602060405180830381865afa158015611461573d6000803e3d6000fd5b505050506040513d601f19601f820116820180604052508101906114859190612535565b6114bf5760405162461bcd60e51b815260206004820152601760248201526000805160206125d98339815191526044820152606401610892565b806001600160a01b0381166115045760405162461bcd60e51b815260206004820152601a60248201526000805160206125f98339815191526044820152606401610892565b60005b83811015610b6b5784848281811061152157611521612557565b905060200201602081019061153691906123db565b604051633b2bf90560e11b81526001600160a01b0385811660048301529190911690637657f20a90602401600060405180830381600087803b15801561157b57600080fd5b505af115801561158f573d6000803e3d6000fd5b50505050808061159e90612583565b915050611507565b604051632474521560e21b81526000600482015233602482015230906391d1485490604401602060405180830381865afa1580156115e8573d6000803e3d6000fd5b505050506040513d601f19601f8201168201806040525081019061160c9190612535565b6116465760405162461bcd60e51b815260206004820152601760248201526000805160206125d98339815191526044820152606401610892565b6002546001600160a01b03166116b35760405162461bcd60e51b815260206004820152602c60248201527f53746f726167655374617465436f6d6d69747465653a204167656e64614d616e60448201526b61676572206973207a65726f60a01b6064820152608401610892565b6002546040516334d8913d60e11b8152600481018390526001600160a01b03909116906369b1227a90602401610b3d565b604051632474521560e21b81526000600482015233602482015230906391d1485490604401602060405180830381865afa158015611726573d6000803e3d6000fd5b505050506040513d601f19601f8201168201806040525081019061174a9190612535565b6117845760405162461bcd60e51b815260206004820152601760248201526000805160206125d98339815191526044820152606401610892565b806001600160a01b0381166117c95760405162461bcd60e51b815260206004820152601a60248201526000805160206125f98339815191526044820152606401610892565b50600580546001600160a01b0319166001600160a01b0392909216919091179055565b604051632474521560e21b81526000600482015233602482015230906391d1485490604401602060405180830381865afa15801561182e573d6000803e3d6000fd5b505050506040513d601f19601f820116820180604052508101906118529190612535565b61188c5760405162461bcd60e51b815260206004820152601760248201526000805160206125d98339815191526044820152606401610892565b600560009054906101000a90046001600160a01b03166001600160a01b0316633f4ba83a6040518163ffffffff1660e01b8152600401600060405180830381600087803b1580156118dc57600080fd5b505af11580156118f0573d6000803e3d6000fd5b50505050565b6000828152600c6020526040812061190e9083612164565b90505b92915050565b6000828152600c6020526040812061190e9083612170565b604051632474521560e21b81526000600482015233602482015230906391d1485490604401602060405180830381865afa158015611971573d6000803e3d6000fd5b505050506040513d601f19601f820116820180604052508101906119959190612535565b6119cf5760405162461bcd60e51b815260206004820152601760248201526000805160206125d98339815191526044820152606401610892565b604051634c1d96ab60e11b81526001600160a01b03828116600483015283169063983b2d56906024016109cd565b604051632474521560e21b81526000600482015233602482015230906391d1485490604401602060405180830381865afa158015611a3f573d6000803e3d6000fd5b505050506040513d601f19601f82011682018060405250810190611a639190612535565b611a9d5760405162461bcd60e51b815260206004820152601760248201526000805160206125d98339815191526044820152606401610892565b604051633b2bf90560e11b81526001600160a01b038281166004830152831690637657f20a906024016109cd565b604051632474521560e21b81526000600482015233602482015230906391d1485490604401602060405180830381865afa158015611b0d573d6000803e3d6000fd5b505050506040513d601f19601f82011682018060405250810190611b319190612535565b611b6b5760405162461bcd60e51b815260206004820152601760248201526000805160206125d98339815191526044820152606401610892565b806001600160a01b038116611bb05760405162461bcd60e51b815260206004820152601a60248201526000805160206125f98339815191526044820152606401610892565b50601080546001600160a01b0319166001600160a01b0392909216919091179055565b604051632474521560e21b81526000600482015233602482015230906391d1485490604401602060405180830381865afa158015611c15573d6000803e3d6000fd5b505050506040513d601f19601f82011682018060405250810190611c399190612535565b611c735760405162461bcd60e51b815260206004820152601760248201526000805160206125d98339815191526044820152606401610892565b6002546001600160a01b0316611ce05760405162461bcd60e51b815260206004820152602c60248201527f53746f726167655374617465436f6d6d69747465653a204167656e64614d616e60448201526b61676572206973207a65726f60a01b6064820152608401610892565b600254604051635a7b4db560e11b8152600481018390526001600160a01b039091169063b4f69b6a90602401610b3d565b604051632474521560e21b81526000600482015233602482015230906391d1485490604401602060405180830381865afa158015611d53573d6000803e3d6000fd5b505050506040513d601f19601f82011682018060405250810190611d779190612535565b611db15760405162461bcd60e51b815260206004820152601760248201526000805160206125d98339815191526044820152606401610892565b6002546001600160a01b0316611e1e5760405162461bcd60e51b815260206004820152602c60248201527f53746f726167655374617465436f6d6d69747465653a204167656e64614d616e60448201526b61676572206973207a65726f60a01b6064820152608401610892565b60025460405163302f14c160e21b8152600481018390526001600160a01b039091169063c0bc530490602401610b3d565b6000818152600c6020526040812061191190612192565b6000828152600c6020526040902060020154611e829033611917565b610dbe5760405162461bcd60e51b815260206004820152603060248201527f416363657373436f6e74726f6c3a2073656e646572206d75737420626520616e60448201527f2061646d696e20746f207265766f6b65000000000000000000000000000000006064820152608401610892565b604051632474521560e21b81526000600482015233602482015230906391d1485490604401602060405180830381865afa158015611f36573d6000803e3d6000fd5b505050506040513d601f19601f82011682018060405250810190611f5a9190612535565b611f945760405162461bcd60e51b815260206004820152601760248201526000805160206125d98339815191526044820152606401610892565b604051631b2ce7f360e11b81526001600160a01b038281166004830152831690633659cfe6906024016109cd565b604051632474521560e21b81526000600482015233602482015230906391d1485490604401602060405180830381865afa158015612004573d6000803e3d6000fd5b505050506040513d601f19601f820116820180604052508101906120289190612535565b6120625760405162461bcd60e51b815260206004820152601760248201526000805160206125d98339815191526044820152606401610892565b600560009054906101000a90046001600160a01b03166001600160a01b0316638456cb596040518163ffffffff1660e01b8152600401600060405180830381600087803b1580156118dc57600080fd5b6000828152600c602052604090206120ca908261219c565b15610d125760405133906001600160a01b0383169084907f2f8788117e7eff1d82e926ec794901d17c78024a50270940304540a733656f0d90600090a45050565b6000828152600c6020526040902061212390826121b1565b15610d125760405133906001600160a01b0383169084907ff6391f5c32d9c69d2a47ea670b442974b53935d1edc7fd64eb21e047a839171b90600090a45050565b600061190e83836121c6565b6001600160a01b0381166000908152600183016020526040812054151561190e565b6000611911825490565b600061190e836001600160a01b03841661224c565b600061190e836001600160a01b03841661229b565b815460009082106122245760405162461bcd60e51b815260206004820152602260248201527f456e756d657261626c655365743a20696e646578206f7574206f6620626f756e604482015261647360f01b6064820152608401610892565b82600001828154811061223957612239612557565b9060005260206000200154905092915050565b600081815260018301602052604081205461229357508154600181810184556000848152602080822090930184905584548482528286019093526040902091909155611911565b506000611911565b600081815260018301602052604081205480156123845760006122bf60018361259c565b85549091506000906122d39060019061259c565b905060008660000182815481106122ec576122ec612557565b906000526020600020015490508087600001848154811061230f5761230f612557565b6000918252602090912001556123268360016125af565b60008281526001890160205260409020558654879080612348576123486125c2565b60019003818190600052602060002001600090559055866001016000878152602001908152602001600020600090556001945050505050611911565b6000915050611911565b6000602082840312156123a057600080fd5b81356001600160e01b0319811681146123b857600080fd5b9392505050565b80356001600160a01b03811681146123d657600080fd5b919050565b6000602082840312156123ed57600080fd5b61190e826123bf565b6000806040838503121561240957600080fd5b612412836123bf565b9150612420602084016123bf565b90509250929050565b60006020828403121561243b57600080fd5b5035919050565b6000806040838503121561245557600080fd5b82359150612420602084016123bf565b6000806040838503121561247857600080fd5b612481836123bf565b946020939093013593505050565b6000806000604084860312156124a457600080fd5b833567ffffffffffffffff808211156124bc57600080fd5b818601915086601f8301126124d057600080fd5b8135818111156124df57600080fd5b8760208260051b85010111156124f457600080fd5b60209283019550935061250a91860190506123bf565b90509250925092565b6000806040838503121561252657600080fd5b50508035926020909101359150565b60006020828403121561254757600080fd5b815180151581146123b857600080fd5b634e487b7160e01b600052603260045260246000fd5b634e487b7160e01b600052601160045260246000fd5b6000600182016125955761259561256d565b5060010190565b818103818111156119115761191161256d565b808201808211156119115761191161256d565b634e487b7160e01b600052603160045260246000fdfe44414f436f6d6d69747465653a206e6f742061646d696e00000000000000000044414f436f6d6d69747465653a207a65726f2061646472657373000000000000a164736f6c6343000813000a",
  "linkReferences": {},
  "deployedLinkReferences": {}
}