{
  "_format": "hh-sol-artifact-1",
  "contractName": "CandidateProxy",
  "sourceName": "contracts/dao/CandidateProxy.sol",
  "abi": [
    {
      "anonymous": false,
      "inputs": [
        {
          "indexed": true,
          "internalType": "bytes32",
          "name": "role",
          "type": "bytes32"
        },
        {
          "indexed": true,
          "internalType": "bytes32",
          "name": "previousAdminRole",
          "type": "bytes32"
        },
        {
          "indexed": true,
          "internalType": "bytes32",
          "name": "newAdminRole",
          "type": "bytes32"
        }
      ],
      "name": "RoleAdminChanged",
      "type": "event"
    },
    {
      "anonymous": false,
      "inputs": [
        {
          "indexed": true,
          "internalType": "bytes32",
          "name": "role",
          "type": "bytes32"
        },
        {
          "indexed": true,
          "internalType": "address",
          "name": "account",
          "type": "address"
        },
        {
          "indexed": true,
          "internalType": "address",
          "name": "sender",
          "type": "address"
        }
      ],
      "name": "RoleGranted",
      "type": "event"
    },
    {
      "anonymous": false,
      "inputs": [
        {
          "indexed": true,
          "internalType": "bytes32",
          "name": "role",
          "type": "bytes32"
        },
        {
          "indexed": true,
          "internalType": "address",
          "name": "account",
          "type": "address"
        },
        {
          "indexed": true,
          "internalType": "address",
          "name": "sender",
          "type": "address"
        }
      ],
      "name": "RoleRevoked",
      "type": "event"
    },
    {
      "anonymous": false,
      "inputs": [
        {
          "indexed": true,
          "internalType": "address",
          "name": "impl",
          "type": "address"
        },
        {
          "indexed": false,
          "internalType": "bool",
          "name": "alive",
          "type": "bool"
        }
      ],
      "name": "SetAliveImplementation",
      "type": "event"
    },
    {
      "anonymous": false,
      "inputs": [
        {
          "indexed": true,
          "internalType": "bytes4",
          "name": "selector",
          "type": "bytes4"
        },
        {
          "indexed": true,
          "internalType": "address",
          "name": "impl",
          "type": "address"
        }
      ],
      "name": "SetSelectorImplementation",
      "type": "event"
    },
    {
      "anonymous": false,
      "inputs": [
        {
          "indexed": true,
          "internalType": "address",
          "name": "implementation",
          "type": "address"
        }
      ],
      "name": "Upgraded",
      "type": "event"
    },
    {
      "stateMutability": "payable",
      "type": "fallback"
    },
    {
      "inputs": [],
      "name": "DEFAULT_ADMIN_ROLE",
      "outputs": [
        {
          "internalType": "bytes32",
          "name": "",
          "type": "bytes32"
        }
      ],
      "stateMutability": "view",
      "type": "function"
    },
    {
      "inputs": [],
      "name": "MINTER_ROLE",
      "outputs": [
        {
          "internalType": "bytes32",
          "name": "",
          "type": "bytes32"
        }
      ],
      "stateMutability": "view",
      "type": "function"
    },
    {
      "inputs": [
        {
          "internalType": "address",
          "name": "account",
          "type": "address"
        }
      ],
      "name": "addAdmin",
      "outputs": [],
      "stateMutability": "nonpayable",
      "type": "function"
    },
    {
      "inputs": [
        {
          "internalType": "address",
          "name": "",
          "type": "address"
        }
      ],
      "name": "aliveImplementation",
      "outputs": [
        {
          "internalType": "bool",
          "name": "",
          "type": "bool"
        }
      ],
      "stateMutability": "view",
      "type": "function"
    },
    {
      "inputs": [],
      "name": "candidate",
      "outputs": [
        {
          "internalType": "address",
          "name": "",
          "type": "address"
        }
      ],
      "stateMutability": "view",
      "type": "function"
    },
    {
      "inputs": [],
      "name": "committee",
      "outputs": [
        {
          "internalType": "address",
          "name": "",
          "type": "address"
        }
      ],
      "stateMutability": "view",
      "type": "function"
    },
    {
      "inputs": [
        {
          "internalType": "bytes32",
          "name": "role",
          "type": "bytes32"
        }
      ],
      "name": "getRoleAdmin",
      "outputs": [
        {
          "internalType": "bytes32",
          "name": "",
          "type": "bytes32"
        }
      ],
      "stateMutability": "view",
      "type": "function"
    },
    {
      "inputs": [
        {
          "internalType": "bytes4",
          "name": "_selector",
          "type": "bytes4"
        }
      ],
      "name": "getSelectorImplementation2",
      "outputs": [
        {
          "internalType": "address",
          "name": "impl",
          "type": "address"
        }
      ],
      "stateMutability": "view",
      "type": "function"
    },
    {
      "inputs": [
        {
          "internalType": "bytes32",
          "name": "role",
          "type": "bytes32"
        },
        {
          "internalType": "address",
          "name": "account",
          "type": "address"
        }
      ],
      "name": "grantRole",
      "outputs": [],
      "stateMutability": "nonpayable",
      "type": "function"
    },
    {
      "inputs": [
        {
          "internalType": "bytes32",
          "name": "role",
          "type": "bytes32"
        },
        {
          "internalType": "address",
          "name": "account",
          "type": "address"
        }
      ],
      "name": "hasRole",
      "outputs": [
        {
          "internalType": "bool",
          "name": "",
          "type": "bool"
        }
      ],
      "stateMutability": "view",
      "type": "function"
    },
    {
      "inputs": [],
      "name": "implementation",
      "outputs": [
        {
          "internalType": "address",
          "name": "",
          "type": "address"
        }
      ],
      "stateMutability": "view",
      "type": "function"
    },
    {
      "inputs": [
        {
          "internalType": "uint256",
          "name": "_index",
          "type": "uint256"
        }
      ],
      "name": "implementation2",
      "outputs": [
        {
          "internalType": "address",
          "name": "",
          "type": "address"
        }
      ],
      "stateMutability": "view",
      "type": "function"
    },
    {
      "inputs": [
        {
          "internalType": "address",
          "name": "account",
          "type": "address"
        }
      ],
      "name": "isAdmin",
      "outputs": [
        {
          "internalType": "bool",
          "name": "",
          "type": "bool"
        }
      ],
      "stateMutability": "view",
      "type": "function"
    },
    {
      "inputs": [],
      "name": "isLayer2Candidate",
      "outputs": [
        {
          "internalType": "bool",
          "name": "",
          "type": "bool"
        }
      ],
      "stateMutability": "view",
      "type": "function"
    },
    {
      "inputs": [],
      "name": "isOwner",
      "outputs": [
        {
          "internalType": "bool",
          "name": "",
          "type": "bool"
        }
      ],
      "stateMutability": "view",
      "type": "function"
    },
    {
      "inputs": [],
      "name": "memo",
      "outputs": [
        {
          "internalType": "string",
          "name": "",
          "type": "string"
        }
      ],
      "stateMutability": "view",
      "type": "function"
    },
    {
      "inputs": [],
      "name": "pauseProxy",
      "outputs": [
        {
          "internalType": "bool",
          "name": "",
          "type": "bool"
        }
      ],
      "stateMutability": "view",
      "type": "function"
    },
    {
      "inputs": [
        {
          "internalType": "uint256",
          "name": "",
          "type": "uint256"
        }
      ],
      "name": "proxyImplementation",
      "outputs": [
        {
          "internalType": "address",
          "name": "",
          "type": "address"
        }
      ],
      "stateMutability": "view",
      "type": "function"
    },
    {
      "inputs": [
        {
          "internalType": "address",
          "name": "account",
          "type": "address"
        }
      ],
      "name": "removeAdmin",
      "outputs": [],
      "stateMutability": "nonpayable",
      "type": "function"
    },
    {
      "inputs": [],
      "name": "renounceOwnership",
      "outputs": [],
      "stateMutability": "nonpayable",
      "type": "function"
    },
    {
      "inputs": [
        {
          "internalType": "bytes32",
          "name": "role",
          "type": "bytes32"
        },
        {
          "internalType": "address",
          "name": "account",
          "type": "address"
        }
      ],
      "name": "renounceRole",
      "outputs": [],
      "stateMutability": "nonpayable",
      "type": "function"
    },
    {
      "inputs": [
        {
          "internalType": "bytes32",
          "name": "role",
          "type": "bytes32"
        },
        {
          "internalType": "address",
          "name": "account",
          "type": "address"
        }
      ],
      "name": "revokeRole",
      "outputs": [],
      "stateMutability": "nonpayable",
      "type": "function"
    },
    {
      "inputs": [],
      "name": "seigManager",
      "outputs": [
        {
          "internalType": "address",
          "name": "",
          "type": "address"
        }
      ],
      "stateMutability": "view",
      "type": "function"
    },
    {
      "inputs": [
        {
          "internalType": "bytes4",
          "name": "",
          "type": "bytes4"
        }
      ],
      "name": "selectorImplementation",
      "outputs": [
        {
          "internalType": "address",
          "name": "",
          "type": "address"
        }
      ],
      "stateMutability": "view",
      "type": "function"
    },
    {
      "inputs": [
        {
          "internalType": "address",
          "name": "newImplementation",
          "type": "address"
        },
        {
          "internalType": "bool",
          "name": "_alive",
          "type": "bool"
        }
      ],
      "name": "setAliveImplementation2",
      "outputs": [],
      "stateMutability": "nonpayable",
      "type": "function"
    },
    {
      "inputs": [
        {
          "internalType": "address",
          "name": "newImplementation",
          "type": "address"
        },
        {
          "internalType": "uint256",
          "name": "_index",
          "type": "uint256"
        },
        {
          "internalType": "bool",
          "name": "_alive",
          "type": "bool"
        }
      ],
      "name": "setImplementation2",
      "outputs": [],
      "stateMutability": "nonpayable",
      "type": "function"
    },
    {
      "inputs": [
        {
          "internalType": "bool",
          "name": "_pause",
          "type": "bool"
        }
      ],
      "name": "setProxyPause",
      "outputs": [],
      "stateMutability": "nonpayable",
      "type": "function"
    },
    {
      "inputs": [
        {
          "internalType": "bytes4[]",
          "name": "_selectors",
          "type": "bytes4[]"
        },
        {
          "internalType": "address",
          "name": "_imp",
          "type": "address"
        }
      ],
      "name": "setSelectorImplementations2",
      "outputs": [],
      "stateMutability": "nonpayable",
      "type": "function"
    },
    {
      "inputs": [
        {
          "internalType": "bytes4",
          "name": "interfaceId",
          "type": "bytes4"
        }
      ],
      "name": "supportsInterface",
      "outputs": [
        {
          "internalType": "bool",
          "name": "",
          "type": "bool"
        }
      ],
      "stateMutability": "view",
      "type": "function"
    },
    {
      "inputs": [
        {
          "internalType": "address",
          "name": "newAdmin",
          "type": "address"
        }
      ],
      "name": "transferAdmin",
      "outputs": [],
      "stateMutability": "nonpayable",
      "type": "function"
    },
    {
      "inputs": [
        {
          "internalType": "address",
          "name": "newAdmin",
          "type": "address"
        }
      ],
      "name": "transferOwnership",
      "outputs": [],
      "stateMutability": "nonpayable",
      "type": "function"
    },
    {
      "inputs": [
        {
          "internalType": "address",
          "name": "impl",
          "type": "address"
        }
      ],
      "name": "upgradeTo",
      "outputs": [],
      "stateMutability": "nonpayable",
      "type": "function"
    },
    {
      "stateMutability": "payable",
      "type": "receive"
    }
  ],
  "bytecode": "0x608060405234801561001057600080fd5b5061001c600033610021565b6100d1565b61002b828261002f565b5050565b60008281526005602090815260408083206001600160a01b038516845290915290205460ff1661002b5760008281526005602090815260408083206001600160a01b03851684529091529020805460ff1916600117905561008d3390565b6001600160a01b0316816001600160a01b0316837f2f8788117e7eff1d82e926ec794901d17c78024a50270940304540a733656f0d60405160405180910390a45050565b611a8180620000e16000396000f3fe6080604052600436106101e75760003560e01c8063704802751161010257806391d1485411610095578063d539139311610064578063d53913931461069f578063d547741f146106d3578063d864e740146106f3578063f2fde38b1461071357610239565b806391d14854146105f45780639b6382681461063a578063a217fddf14610654578063b911135f1461066957610239565b80637cd5f663116100d15780637cd5f663146105505780638b8f4a65146105705780638d4fdb40146105905780638f32d59b146105b057610239565b806370480275146104db578063715018a6146104fb57806375829def146105105780637cb00d251461053057610239565b806350d2a2761161017a5780635cc797d8116101495780635cc797d81461045c57806363a8fd891461047c5780636c8381f8146104965780636fb7f558146104bb57610239565b806350d2a27614610376578063550d01a3146103c457806358c3b870146103f45780635c60da1b1461041657610239565b80632f2ff15d116101b65780632f2ff15d146102f657806336568abe146103165780633659cfe6146103365780634a5df50f1461035657610239565b806301ffc9a7146102435780631785f53c14610278578063248a9ca31461029857806324d7806c146102d657610239565b366102395760405162461bcd60e51b815260206004820152601460248201527f63616e6e6f74207265636569766520457468657200000000000000000000000060448201526064015b60405180910390fd5b610241610733565b005b34801561024f57600080fd5b5061026361025e3660046116f9565b6107dc565b60405190151581526020015b60405180910390f35b34801561028457600080fd5b5061024161029336600461173a565b6107ed565b3480156102a457600080fd5b506102c86102b3366004611755565b60009081526005602052604090206001015490565b60405190815260200161026f565b3480156102e257600080fd5b506102636102f136600461173a565b610849565b34801561030257600080fd5b5061024161031136600461176e565b610889565b34801561032257600080fd5b5061024161033136600461176e565b6108ae565b34801561034257600080fd5b5061024161035136600461173a565b61093a565b34801561036257600080fd5b5061024161037136600461179a565b610a93565b34801561038257600080fd5b506103ac6103913660046116f9565b6003602052600090815260409020546001600160a01b031681565b6040516001600160a01b03909116815260200161026f565b3480156103d057600080fd5b506102636103df36600461173a565b60026020526000908152604090205460ff1681565b34801561040057600080fd5b50610409610d40565b60405161026f9190611842565b34801561042257600080fd5b506000805260016020527fa6eef7e35abe7026729641147f7915573c7e97b47efa546f5f6e3230263bcb49546001600160a01b03166103ac565b34801561046857600080fd5b50610241610477366004611885565b610dce565b34801561048857600080fd5b506000546102639060ff1681565b3480156104a257600080fd5b506007546103ac9061010090046001600160a01b031681565b3480156104c757600080fd5b50600a546103ac906001600160a01b031681565b3480156104e757600080fd5b506102416104f636600461173a565b610e26565b34801561050757600080fd5b50610241610e7f565b34801561051c57600080fd5b5061024161052b36600461173a565b610eda565b34801561053c57600080fd5b5061024161054b3660046118af565b610fec565b34801561055c57600080fd5b5061024161056b3660046118ca565b61104d565b34801561057c57600080fd5b506103ac61058b366004611755565b6110a6565b34801561059c57600080fd5b506103ac6105ab3660046116f9565b6110c3565b3480156105bc57600080fd5b503360009081527f05b8ccbb9d4d8fb16ea74ce3c29a41f1b461fbdaff4714a0d9a8eb05499746bc602052604090205460ff16610263565b34801561060057600080fd5b5061026361060f36600461176e565b60009182526005602090815260408084206001600160a01b0393909316845291905290205460ff1690565b34801561064657600080fd5b506007546102639060ff1681565b34801561066057600080fd5b506102c8600081565b34801561067557600080fd5b506103ac610684366004611755565b6001602052600090815260409020546001600160a01b031681565b3480156106ab57600080fd5b506102c87ff0887ba65ee2024ea881d91b74c2450ef19e1557f03bed3ea9f16b037cbe2dc981565b3480156106df57600080fd5b506102416106ee36600461176e565b6111bf565b3480156106ff57600080fd5b506009546103ac906001600160a01b031681565b34801561071f57600080fd5b5061024161072e36600461173a565b6111e4565b600061074a6000356001600160e01b0319166110c3565b90506001600160a01b03811615801590610767575060005460ff16155b6107b35760405162461bcd60e51b815260206004820152601d60248201527f50726f78793a20696d706c204f522070726f78792069732066616c73650000006044820152606401610230565b3660008037600080366000845af43d6000803e8080156107d2573d6000f35b3d6000fd5b505050565b60006107e78261123b565b92915050565b6107f633610849565b61083b5760405162461bcd60e51b81526020600482015260226024820152600080516020611a5583398151915260448201526134b760f11b6064820152608401610230565b6108466000826108ae565b50565b6001600160a01b03811660009081527f05b8ccbb9d4d8fb16ea74ce3c29a41f1b461fbdaff4714a0d9a8eb05499746bc602052604081205460ff166107e7565b6000828152600560205260409020600101546108a481611260565b6107d7838361126a565b6001600160a01b038116331461092c5760405162461bcd60e51b815260206004820152602f60248201527f416363657373436f6e74726f6c3a2063616e206f6e6c792072656e6f756e636560448201527f20726f6c657320666f722073656c6600000000000000000000000000000000006064820152608401610230565b610936828261130c565b5050565b61094333610849565b6109885760405162461bcd60e51b81526020600482015260226024820152600080516020611a5583398151915260448201526134b760f11b6064820152608401610230565b6001600160a01b0381166109de5760405162461bcd60e51b815260206004820152600d60248201527f696e707574206973207a65726f000000000000000000000000000000000000006044820152606401610230565b6000805260016020527fa6eef7e35abe7026729641147f7915573c7e97b47efa546f5f6e3230263bcb49546001600160a01b03828116911603610a4f5760405162461bcd60e51b815260206004820152600960248201526839b0b6b29030b2323960b91b6044820152606401610230565b610a5c816000600161138f565b6040516001600160a01b038216907fbc7cd75a20ee27fd9adebab32041f755214dbc6bffa90cc0225b39da2e5c2d3b90600090a250565b610a9c33610849565b610ae15760405162461bcd60e51b81526020600482015260226024820152600080516020611a5583398151915260448201526134b760f11b6064820152608401610230565b81610b2e5760405162461bcd60e51b815260206004820181905260248201527f50726f78793a205f73656c6563746f727327732073697a65206973207a65726f6044820152606401610230565b6001600160a01b03811660009081526002602052604090205460ff16610b965760405162461bcd60e51b815260206004820152601860248201527f50726f78793a205f696d70206973206e6f7420616c69766500000000000000006044820152606401610230565b60005b82811015610d3a57816001600160a01b031660036000868685818110610bc157610bc16118fd565b9050602002016020810190610bd691906116f9565b6001600160e01b03191681526020810191909152604001600020546001600160a01b031603610c475760405162461bcd60e51b815260206004820152601d60248201527f4c69717569646974795661756c7450726f78793a2073616d6520696d700000006044820152606401610230565b8160036000868685818110610c5e57610c5e6118fd565b9050602002016020810190610c7391906116f9565b6001600160e01b03191681526020810191909152604001600020805473ffffffffffffffffffffffffffffffffffffffff19166001600160a01b039283161790558216848483818110610cc857610cc86118fd565b9050602002016020810190610cdd91906116f9565b7bffffffffffffffffffffffffffffffffffffffffffffffffffffffff19167f14ebc1c32aa68f4d766e89f3e546cee249f7df25183fc10ab1568d91c2ce9b7b60405160405180910390a380610d3281611929565b915050610b99565b50505050565b60088054610d4d90611942565b80601f0160208091040260200160405190810160405280929190818152602001828054610d7990611942565b8015610dc65780601f10610d9b57610100808354040283529160200191610dc6565b820191906000526020600020905b815481529060010190602001808311610da957829003601f168201915b505050505081565b610dd733610849565b610e1c5760405162461bcd60e51b81526020600482015260226024820152600080516020611a5583398151915260448201526134b760f11b6064820152608401610230565b6109368282611427565b610e2f33610849565b610e745760405162461bcd60e51b81526020600482015260226024820152600080516020611a5583398151915260448201526134b760f11b6064820152608401610230565b610846600082610889565b610e8833610849565b610ecd5760405162461bcd60e51b81526020600482015260226024820152600080516020611a5583398151915260448201526134b760f11b6064820152608401610230565b610ed86000336108ae565b565b610ee333610849565b610f285760405162461bcd60e51b81526020600482015260226024820152600080516020611a5583398151915260448201526134b760f11b6064820152608401610230565b6001600160a01b038116610f7e5760405162461bcd60e51b815260206004820152601860248201527f41636365737369626c653a207a65726f206164647265737300000000000000006044820152606401610230565b6001600160a01b0381163303610fd65760405162461bcd60e51b815260206004820152601660248201527f41636365737369626c653a2073616d652061646d696e000000000000000000006044820152606401610230565b610fe1600082610889565b6108466000336108ae565b610ff533610849565b61103a5760405162461bcd60e51b81526020600482015260226024820152600080516020611a5583398151915260448201526134b760f11b6064820152608401610230565b6000805460ff1916911515919091179055565b61105633610849565b61109b5760405162461bcd60e51b81526020600482015260226024820152600080516020611a5583398151915260448201526134b760f11b6064820152608401610230565b6107d783838361138f565b6000818152600160205260408120546001600160a01b03166107e7565b6001600160e01b031981166000908152600360205260408120546001600160a01b03166111235750506000805260016020527fa6eef7e35abe7026729641147f7915573c7e97b47efa546f5f6e3230263bcb49546001600160a01b031690565b6001600160e01b031982166000908152600360209081526040808320546001600160a01b03168352600290915290205460ff161561118157506001600160e01b0319166000908152600360205260409020546001600160a01b031690565b50506000805260016020527fa6eef7e35abe7026729641147f7915573c7e97b47efa546f5f6e3230263bcb49546001600160a01b031690565b919050565b6000828152600560205260409020600101546111da81611260565b6107d7838361130c565b6111ed33610849565b6112325760405162461bcd60e51b81526020600482015260226024820152600080516020611a5583398151915260448201526134b760f11b6064820152608401610230565b61084681610eda565b60006001600160e01b03198216637965db0b60e01b14806107e757506107e782611486565b61084681336114c2565b60008281526005602090815260408083206001600160a01b038516845290915290205460ff166109365760008281526005602090815260408083206001600160a01b03851684529091529020805460ff191660011790556112c83390565b6001600160a01b0316816001600160a01b0316837f2f8788117e7eff1d82e926ec794901d17c78024a50270940304540a733656f0d60405160405180910390a45050565b60008281526005602090815260408083206001600160a01b038516845290915290205460ff16156109365760008281526005602090815260408083206001600160a01b0385168085529252808320805460ff1916905551339285917ff6391f5c32d9c69d2a47ea670b442974b53935d1edc7fd64eb21e047a839171b9190a45050565b6001600160a01b0383163b6113e65760405162461bcd60e51b815260206004820152601b60248201527f50726f78793a206e6f7420636f6e7472616374206164647265737300000000006044820152606401610230565b8015611421576000828152600160205260409020805473ffffffffffffffffffffffffffffffffffffffff19166001600160a01b0385161790555b6107d783825b6001600160a01b038216600081815260026020908152604091829020805460ff191685151590811790915591519182527f72558d9bfba4210f9ef095c782589484151f6d90f7a81bb3cb9b33efc695d324910160405180910390a25050565b60006301ffc9a760e01b6001600160e01b0319831614806107e75750506001600160e01b03191660009081526004602052604090205460ff1690565b60008281526005602090815260408083206001600160a01b038516845290915290205460ff16610936576114f581611537565b611500836020611549565b60405160200161151192919061197c565b60408051601f198184030181529082905262461bcd60e51b825261023091600401611842565b60606107e76001600160a01b03831660145b606060006115588360026119fd565b611563906002611a14565b67ffffffffffffffff81111561157b5761157b611a27565b6040519080825280601f01601f1916602001820160405280156115a5576020820181803683370190505b509050600360fc1b816000815181106115c0576115c06118fd565b60200101906001600160f81b031916908160001a905350600f60fb1b816001815181106115ef576115ef6118fd565b60200101906001600160f81b031916908160001a90535060006116138460026119fd565b61161e906001611a14565b90505b60018111156116a3577f303132333435363738396162636465660000000000000000000000000000000085600f166010811061165f5761165f6118fd565b1a60f81b828281518110611675576116756118fd565b60200101906001600160f81b031916908160001a90535060049490941c9361169c81611a3d565b9050611621565b5083156116f25760405162461bcd60e51b815260206004820181905260248201527f537472696e67733a20686578206c656e67746820696e73756666696369656e746044820152606401610230565b9392505050565b60006020828403121561170b57600080fd5b81356001600160e01b0319811681146116f257600080fd5b80356001600160a01b03811681146111ba57600080fd5b60006020828403121561174c57600080fd5b6116f282611723565b60006020828403121561176757600080fd5b5035919050565b6000806040838503121561178157600080fd5b8235915061179160208401611723565b90509250929050565b6000806000604084860312156117af57600080fd5b833567ffffffffffffffff808211156117c757600080fd5b818601915086601f8301126117db57600080fd5b8135818111156117ea57600080fd5b8760208260051b85010111156117ff57600080fd5b6020928301955093506118159186019050611723565b90509250925092565b60005b83811015611839578181015183820152602001611821565b50506000910152565b602081526000825180602084015261186181604085016020870161181e565b601f01601f19169190910160400192915050565b803580151581146111ba57600080fd5b6000806040838503121561189857600080fd5b6118a183611723565b915061179160208401611875565b6000602082840312156118c157600080fd5b6116f282611875565b6000806000606084860312156118df57600080fd5b6118e884611723565b92506020840135915061181560408501611875565b634e487b7160e01b600052603260045260246000fd5b634e487b7160e01b600052601160045260246000fd5b60006001820161193b5761193b611913565b5060010190565b600181811c9082168061195657607f821691505b60208210810361197657634e487b7160e01b600052602260045260246000fd5b50919050565b7f416363657373436f6e74726f6c3a206163636f756e74200000000000000000008152600083516119b481601785016020880161181e565b7f206973206d697373696e6720726f6c652000000000000000000000000000000060179184019182015283516119f181602884016020880161181e565b01602801949350505050565b80820281158282048414176107e7576107e7611913565b808201808211156107e7576107e7611913565b634e487b7160e01b600052604160045260246000fd5b600081611a4c57611a4c611913565b50600019019056fe41636365737369626c653a2043616c6c6572206973206e6f7420616e2061646da164736f6c6343000813000a",
  "linkReferences": {},
  "deployedLinkReferences": {}
}