{
  "_format": "hh-sol-artifact-1",
  "contractName": "L1StakedTonToL2Proxy",
  "sourceName": "contracts/L1/L1StakedTonToL2Proxy.sol",
  "abi": [
    {
      "inputs": [],
      "stateMutability": "nonpayable",
      "type": "constructor"
    },
    {
      "anonymous": false,
      "inputs": [
        {
          "indexed": true,
          "internalType": "address",
          "name": "previousManager",
          "type": "address"
        },
        {
          "indexed": true,
          "internalType": "address",
          "name": "newManager",
          "type": "address"
        }
      ],
      "name": "ManagershipTransferred",
      "type": "event"
    },
    {
      "anonymous": false,
      "inputs": [
        {
          "indexed": true,
          "internalType": "bytes32",
          "name": "role",
          "type": "bytes32"
        },
        {
          "indexed": true,
          "internalType": "bytes32",
          "name": "previousAdminRole",
          "type": "bytes32"
        },
        {
          "indexed": true,
          "internalType": "bytes32",
          "name": "newAdminRole",
          "type": "bytes32"
        }
      ],
      "name": "RoleAdminChanged",
      "type": "event"
    },
    {
      "anonymous": false,
      "inputs": [
        {
          "indexed": true,
          "internalType": "bytes32",
          "name": "role",
          "type": "bytes32"
        },
        {
          "indexed": true,
          "internalType": "address",
          "name": "account",
          "type": "address"
        },
        {
          "indexed": true,
          "internalType": "address",
          "name": "sender",
          "type": "address"
        }
      ],
      "name": "RoleGranted",
      "type": "event"
    },
    {
      "anonymous": false,
      "inputs": [
        {
          "indexed": true,
          "internalType": "bytes32",
          "name": "role",
          "type": "bytes32"
        },
        {
          "indexed": true,
          "internalType": "address",
          "name": "account",
          "type": "address"
        },
        {
          "indexed": true,
          "internalType": "address",
          "name": "sender",
          "type": "address"
        }
      ],
      "name": "RoleRevoked",
      "type": "event"
    },
    {
      "anonymous": false,
      "inputs": [
        {
          "indexed": true,
          "internalType": "address",
          "name": "impl",
          "type": "address"
        },
        {
          "indexed": false,
          "internalType": "bool",
          "name": "alive",
          "type": "bool"
        }
      ],
      "name": "SetAliveImplementation",
      "type": "event"
    },
    {
      "anonymous": false,
      "inputs": [
        {
          "indexed": true,
          "internalType": "bytes4",
          "name": "selector",
          "type": "bytes4"
        },
        {
          "indexed": true,
          "internalType": "address",
          "name": "impl",
          "type": "address"
        }
      ],
      "name": "SetSelectorImplementation",
      "type": "event"
    },
    {
      "anonymous": false,
      "inputs": [
        {
          "indexed": true,
          "internalType": "address",
          "name": "implementation",
          "type": "address"
        }
      ],
      "name": "Upgraded",
      "type": "event"
    },
    {
      "stateMutability": "payable",
      "type": "fallback"
    },
    {
      "inputs": [],
      "name": "DEFAULT_ADMIN_ROLE",
      "outputs": [
        {
          "internalType": "bytes32",
          "name": "",
          "type": "bytes32"
        }
      ],
      "stateMutability": "view",
      "type": "function"
    },
    {
      "inputs": [],
      "name": "MINTER_ROLE",
      "outputs": [
        {
          "internalType": "bytes32",
          "name": "",
          "type": "bytes32"
        }
      ],
      "stateMutability": "view",
      "type": "function"
    },
    {
      "inputs": [],
      "name": "_manager",
      "outputs": [
        {
          "internalType": "address",
          "name": "",
          "type": "address"
        }
      ],
      "stateMutability": "view",
      "type": "function"
    },
    {
      "inputs": [
        {
          "internalType": "address",
          "name": "account",
          "type": "address"
        }
      ],
      "name": "addAdmin",
      "outputs": [],
      "stateMutability": "nonpayable",
      "type": "function"
    },
    {
      "inputs": [],
      "name": "addressManager",
      "outputs": [
        {
          "internalType": "address",
          "name": "",
          "type": "address"
        }
      ],
      "stateMutability": "view",
      "type": "function"
    },
    {
      "inputs": [
        {
          "internalType": "address",
          "name": "",
          "type": "address"
        }
      ],
      "name": "aliveImplementation",
      "outputs": [
        {
          "internalType": "bool",
          "name": "",
          "type": "bool"
        }
      ],
      "stateMutability": "view",
      "type": "function"
    },
    {
      "inputs": [
        {
          "internalType": "bytes32",
          "name": "role",
          "type": "bytes32"
        }
      ],
      "name": "getRoleAdmin",
      "outputs": [
        {
          "internalType": "bytes32",
          "name": "",
          "type": "bytes32"
        }
      ],
      "stateMutability": "view",
      "type": "function"
    },
    {
      "inputs": [
        {
          "internalType": "bytes4",
          "name": "_selector",
          "type": "bytes4"
        }
      ],
      "name": "getSelectorImplementation2",
      "outputs": [
        {
          "internalType": "address",
          "name": "impl",
          "type": "address"
        }
      ],
      "stateMutability": "view",
      "type": "function"
    },
    {
      "inputs": [
        {
          "internalType": "bytes32",
          "name": "role",
          "type": "bytes32"
        },
        {
          "internalType": "address",
          "name": "account",
          "type": "address"
        }
      ],
      "name": "grantRole",
      "outputs": [],
      "stateMutability": "nonpayable",
      "type": "function"
    },
    {
      "inputs": [
        {
          "internalType": "bytes32",
          "name": "role",
          "type": "bytes32"
        },
        {
          "internalType": "address",
          "name": "account",
          "type": "address"
        }
      ],
      "name": "hasRole",
      "outputs": [
        {
          "internalType": "bool",
          "name": "",
          "type": "bool"
        }
      ],
      "stateMutability": "view",
      "type": "function"
    },
    {
      "inputs": [],
      "name": "implementation",
      "outputs": [
        {
          "internalType": "address",
          "name": "",
          "type": "address"
        }
      ],
      "stateMutability": "view",
      "type": "function"
    },
    {
      "inputs": [
        {
          "internalType": "uint256",
          "name": "_index",
          "type": "uint256"
        }
      ],
      "name": "implementation2",
      "outputs": [
        {
          "internalType": "address",
          "name": "",
          "type": "address"
        }
      ],
      "stateMutability": "view",
      "type": "function"
    },
    {
      "inputs": [
        {
          "internalType": "address",
          "name": "account",
          "type": "address"
        }
      ],
      "name": "isAdmin",
      "outputs": [
        {
          "internalType": "bool",
          "name": "",
          "type": "bool"
        }
      ],
      "stateMutability": "view",
      "type": "function"
    },
    {
      "inputs": [],
      "name": "isOwner",
      "outputs": [
        {
          "internalType": "bool",
          "name": "",
          "type": "bool"
        }
      ],
      "stateMutability": "view",
      "type": "function"
    },
    {
      "inputs": [],
      "name": "l1StakedTonInL2",
      "outputs": [
        {
          "internalType": "address",
          "name": "",
          "type": "address"
        }
      ],
      "stateMutability": "view",
      "type": "function"
    },
    {
      "inputs": [],
      "name": "minGasLimit",
      "outputs": [
        {
          "internalType": "uint32",
          "name": "",
          "type": "uint32"
        }
      ],
      "stateMutability": "view",
      "type": "function"
    },
    {
      "inputs": [],
      "name": "pauseProxy",
      "outputs": [
        {
          "internalType": "bool",
          "name": "",
          "type": "bool"
        }
      ],
      "stateMutability": "view",
      "type": "function"
    },
    {
      "inputs": [
        {
          "internalType": "uint256",
          "name": "",
          "type": "uint256"
        }
      ],
      "name": "proxyImplementation",
      "outputs": [
        {
          "internalType": "address",
          "name": "",
          "type": "address"
        }
      ],
      "stateMutability": "view",
      "type": "function"
    },
    {
      "inputs": [],
      "name": "registry",
      "outputs": [
        {
          "internalType": "address",
          "name": "",
          "type": "address"
        }
      ],
      "stateMutability": "view",
      "type": "function"
    },
    {
      "inputs": [
        {
          "internalType": "address",
          "name": "account",
          "type": "address"
        }
      ],
      "name": "removeAdmin",
      "outputs": [],
      "stateMutability": "nonpayable",
      "type": "function"
    },
    {
      "inputs": [],
      "name": "renounceManagership",
      "outputs": [],
      "stateMutability": "nonpayable",
      "type": "function"
    },
    {
      "inputs": [],
      "name": "renounceOwnership",
      "outputs": [],
      "stateMutability": "nonpayable",
      "type": "function"
    },
    {
      "inputs": [
        {
          "internalType": "bytes32",
          "name": "role",
          "type": "bytes32"
        },
        {
          "internalType": "address",
          "name": "account",
          "type": "address"
        }
      ],
      "name": "renounceRole",
      "outputs": [],
      "stateMutability": "nonpayable",
      "type": "function"
    },
    {
      "inputs": [
        {
          "internalType": "bytes32",
          "name": "role",
          "type": "bytes32"
        },
        {
          "internalType": "address",
          "name": "account",
          "type": "address"
        }
      ],
      "name": "revokeRole",
      "outputs": [],
      "stateMutability": "nonpayable",
      "type": "function"
    },
    {
      "inputs": [],
      "name": "seigManager",
      "outputs": [
        {
          "internalType": "address",
          "name": "",
          "type": "address"
        }
      ],
      "stateMutability": "view",
      "type": "function"
    },
    {
      "inputs": [
        {
          "internalType": "bytes4",
          "name": "",
          "type": "bytes4"
        }
      ],
      "name": "selectorImplementation",
      "outputs": [
        {
          "internalType": "address",
          "name": "",
          "type": "address"
        }
      ],
      "stateMutability": "view",
      "type": "function"
    },
    {
      "inputs": [
        {
          "internalType": "address",
          "name": "addressManagerAddress",
          "type": "address"
        }
      ],
      "name": "setAddressManager",
      "outputs": [],
      "stateMutability": "nonpayable",
      "type": "function"
    },
    {
      "inputs": [
        {
          "internalType": "address",
          "name": "newImplementation",
          "type": "address"
        },
        {
          "internalType": "bool",
          "name": "_alive",
          "type": "bool"
        }
      ],
      "name": "setAliveImplementation2",
      "outputs": [],
      "stateMutability": "nonpayable",
      "type": "function"
    },
    {
      "inputs": [
        {
          "internalType": "address",
          "name": "newImplementation",
          "type": "address"
        },
        {
          "internalType": "uint256",
          "name": "_index",
          "type": "uint256"
        },
        {
          "internalType": "bool",
          "name": "_alive",
          "type": "bool"
        }
      ],
      "name": "setImplementation2",
      "outputs": [],
      "stateMutability": "nonpayable",
      "type": "function"
    },
    {
      "inputs": [
        {
          "internalType": "address",
          "name": "_l1StakedTonInL2",
          "type": "address"
        }
      ],
      "name": "setL1StakedTonInL2",
      "outputs": [],
      "stateMutability": "nonpayable",
      "type": "function"
    },
    {
      "inputs": [
        {
          "internalType": "bool",
          "name": "_pause",
          "type": "bool"
        }
      ],
      "name": "setProxyPause",
      "outputs": [],
      "stateMutability": "nonpayable",
      "type": "function"
    },
    {
      "inputs": [
        {
          "internalType": "address",
          "name": "_seigManager",
          "type": "address"
        }
      ],
      "name": "setSeigManger",
      "outputs": [],
      "stateMutability": "nonpayable",
      "type": "function"
    },
    {
      "inputs": [
        {
          "internalType": "bytes4[]",
          "name": "_selectors",
          "type": "bytes4[]"
        },
        {
          "internalType": "address",
          "name": "_imp",
          "type": "address"
        }
      ],
      "name": "setSelectorImplementations2",
      "outputs": [],
      "stateMutability": "nonpayable",
      "type": "function"
    },
    {
      "inputs": [
        {
          "internalType": "bytes4",
          "name": "interfaceId",
          "type": "bytes4"
        }
      ],
      "name": "supportsInterface",
      "outputs": [
        {
          "internalType": "bool",
          "name": "",
          "type": "bool"
        }
      ],
      "stateMutability": "view",
      "type": "function"
    },
    {
      "inputs": [
        {
          "internalType": "address",
          "name": "",
          "type": "address"
        },
        {
          "internalType": "address",
          "name": "",
          "type": "address"
        }
      ],
      "name": "syncInfo",
      "outputs": [
        {
          "internalType": "uint32",
          "name": "syncTime",
          "type": "uint32"
        },
        {
          "internalType": "uint256",
          "name": "balanceFactor",
          "type": "uint256"
        },
        {
          "internalType": "uint256",
          "name": "factor",
          "type": "uint256"
        },
        {
          "internalType": "uint256",
          "name": "stakedAmount",
          "type": "uint256"
        }
      ],
      "stateMutability": "view",
      "type": "function"
    },
    {
      "inputs": [],
      "name": "tot",
      "outputs": [
        {
          "internalType": "address",
          "name": "",
          "type": "address"
        }
      ],
      "stateMutability": "view",
      "type": "function"
    },
    {
      "inputs": [
        {
          "internalType": "address",
          "name": "newAdmin",
          "type": "address"
        }
      ],
      "name": "transferAdmin",
      "outputs": [],
      "stateMutability": "nonpayable",
      "type": "function"
    },
    {
      "inputs": [
        {
          "internalType": "address",
          "name": "newManager",
          "type": "address"
        }
      ],
      "name": "transferManagership",
      "outputs": [],
      "stateMutability": "nonpayable",
      "type": "function"
    },
    {
      "inputs": [
        {
          "internalType": "address",
          "name": "newAdmin",
          "type": "address"
        }
      ],
      "name": "transferOwnership",
      "outputs": [],
      "stateMutability": "nonpayable",
      "type": "function"
    },
    {
      "inputs": [
        {
          "internalType": "address",
          "name": "impl",
          "type": "address"
        }
      ],
      "name": "upgradeTo",
      "outputs": [],
      "stateMutability": "nonpayable",
      "type": "function"
    },
    {
      "stateMutability": "payable",
      "type": "receive"
    }
  ],
  "bytecode": "0x60806040523480156200001157600080fd5b506200001f60003362000037565b600680546001600160a01b03191633179055620000eb565b62000043828262000047565b5050565b60008281526005602090815260408083206001600160a01b038516845290915290205460ff16620000435760008281526005602090815260408083206001600160a01b03851684529091529020805460ff19166001179055620000a73390565b6001600160a01b0316816001600160a01b0316837f2f8788117e7eff1d82e926ec794901d17c78024a50270940304540a733656f0d60405160405180910390a45050565b611fb680620000fb6000396000f3fe6080604052600436106102bf5760003560e01c8063704802751161016e57806391d14854116100cb578063d53913931161007f578063d6b5046711610064578063d6b5046714610924578063f0329f6b14610944578063f2fde38b1461096457610311565b8063d5391393146108d0578063d547741f1461090457610311565b8063a217fddf116100b0578063a217fddf14610865578063b911135f1461087a578063ccc39909146108b057610311565b806391d14854146107ff578063a16d6aa71461084557610311565b80637cd5f663116101225780638c09d4ee116101075780638c09d4ee1461077b5780638d4fdb401461079b5780638f32d59b146107bb57610311565b80637cd5f6631461073b5780638b8f4a651461075b57610311565b806375829def1161015357806375829def146106db5780637b103999146106fb5780637cb00d251461071b57610311565b806370480275146106a6578063715018a6146106c657610311565b80633eba30791161021c5780635c60da1b116101d057806363a8fd89116101b557806363a8fd89146106575780636c146d9b146106715780636fb7f5581461068657610311565b80635c60da1b146105f15780635cc797d81461063757610311565b806350d2a2761161020157806350d2a27614610541578063550d01a3146105775780635aeb4d77146105a757610311565b80633eba3079146104a65780634a5df50f1461052157610311565b806324d7806c1161027357806336568abe1161025857806336568abe1461042e5780633659cfe61461044e5780633ab76e9f1461046e57610311565b806324d7806c146103ee5780632f2ff15d1461040e57610311565b80631785f53c116102a45780631785f53c14610370578063215efccc14610390578063248a9ca3146103b057610311565b806301ffc9a71461031b5780630652b57a1461035057610311565b366103115760405162461bcd60e51b815260206004820152601460248201527f63616e6e6f74207265636569766520457468657200000000000000000000000060448201526064015b60405180910390fd5b610319610984565b005b34801561032757600080fd5b5061033b610336366004611c3e565b610a2d565b60405190151581526020015b60405180910390f35b34801561035c57600080fd5b5061031961036b366004611c7f565b610a3e565b34801561037c57600080fd5b5061031961038b366004611c7f565b610aee565b34801561039c57600080fd5b506103196103ab366004611c7f565b610b4a565b3480156103bc57600080fd5b506103e06103cb366004611c9a565b60009081526005602052604090206001015490565b604051908152602001610347565b3480156103fa57600080fd5b5061033b610409366004611c7f565b610bfa565b34801561041a57600080fd5b50610319610429366004611cb3565b610c3a565b34801561043a57600080fd5b50610319610449366004611cb3565b610c5f565b34801561045a57600080fd5b50610319610469366004611c7f565b610ceb565b34801561047a57600080fd5b5060075461048e906001600160a01b031681565b6040516001600160a01b039091168152602001610347565b3480156104b257600080fd5b506104fa6104c1366004611cdf565b600c602090815260009283526040808420909152908252902080546001820154600283015460039093015463ffffffff90921692909184565b6040805163ffffffff90951685526020850193909352918301526060820152608001610347565b34801561052d57600080fd5b5061031961053c366004611d09565b610e44565b34801561054d57600080fd5b5061048e61055c366004611c3e565b6003602052600090815260409020546001600160a01b031681565b34801561058357600080fd5b5061033b610592366004611c7f565b60026020526000908152604090205460ff1681565b3480156105b357600080fd5b50600b546105dc9074010000000000000000000000000000000000000000900463ffffffff1681565b60405163ffffffff9091168152602001610347565b3480156105fd57600080fd5b506000805260016020527fa6eef7e35abe7026729641147f7915573c7e97b47efa546f5f6e3230263bcb49546001600160a01b031661048e565b34801561064357600080fd5b50610319610652366004611d9d565b6110e4565b34801561066357600080fd5b5060005461033b9060ff1681565b34801561067d57600080fd5b5061031961113c565b34801561069257600080fd5b5060085461048e906001600160a01b031681565b3480156106b257600080fd5b506103196106c1366004611c7f565b6111ce565b3480156106d257600080fd5b50610319611227565b3480156106e757600080fd5b506103196106f6366004611c7f565b611282565b34801561070757600080fd5b5060095461048e906001600160a01b031681565b34801561072757600080fd5b50610319610736366004611dc7565b611394565b34801561074757600080fd5b50610319610756366004611de2565b6113f5565b34801561076757600080fd5b5061048e610776366004611c9a565b61144e565b34801561078757600080fd5b50600b5461048e906001600160a01b031681565b3480156107a757600080fd5b5061048e6107b6366004611c3e565b61146b565b3480156107c757600080fd5b503360009081527f05b8ccbb9d4d8fb16ea74ce3c29a41f1b461fbdaff4714a0d9a8eb05499746bc602052604090205460ff1661033b565b34801561080b57600080fd5b5061033b61081a366004611cb3565b60009182526005602090815260408084206001600160a01b0393909316845291905290205460ff1690565b34801561085157600080fd5b50600a5461048e906001600160a01b031681565b34801561087157600080fd5b506103e0600081565b34801561088657600080fd5b5061048e610895366004611c9a565b6001602052600090815260409020546001600160a01b031681565b3480156108bc57600080fd5b506103196108cb366004611c7f565b611567565b3480156108dc57600080fd5b506103e07ff0887ba65ee2024ea881d91b74c2450ef19e1557f03bed3ea9f16b037cbe2dc981565b34801561091057600080fd5b5061031961091f366004611cb3565b611661565b34801561093057600080fd5b5061031961093f366004611c7f565b611686565b34801561095057600080fd5b5060065461048e906001600160a01b031681565b34801561097057600080fd5b5061031961097f366004611c7f565b611736565b600061099b6000356001600160e01b03191661146b565b90506001600160a01b038116158015906109b8575060005460ff16155b610a045760405162461bcd60e51b815260206004820152601d60248201527f50726f78793a20696d706c204f522070726f78792069732066616c73650000006044820152606401610308565b3660008037600080366000845af43d6000803e808015610a23573d6000f35b3d6000fd5b505050565b6000610a388261178d565b92915050565b6006546001600160a01b03163314610a865760405162461bcd60e51b815260206004820152600b60248201526a3737ba1036b0b730b3b2b960a91b6044820152606401610308565b6007546001600160a01b03808316911603610acc5760405162461bcd60e51b81526004016103089060208082526004908201526373616d6560e01b604082015260600190565b600780546001600160a01b0319166001600160a01b0392909216919091179055565b610af733610bfa565b610b3c5760405162461bcd60e51b81526020600482015260226024820152600080516020611f8a83398151915260448201526134b760f11b6064820152608401610308565b610b47600082610c5f565b50565b6006546001600160a01b03163314610b925760405162461bcd60e51b815260206004820152600b60248201526a3737ba1036b0b730b3b2b960a91b6044820152606401610308565b6008546001600160a01b03808316911603610bd85760405162461bcd60e51b81526004016103089060208082526004908201526373616d6560e01b604082015260600190565b600880546001600160a01b0319166001600160a01b0392909216919091179055565b6001600160a01b03811660009081527f05b8ccbb9d4d8fb16ea74ce3c29a41f1b461fbdaff4714a0d9a8eb05499746bc602052604081205460ff16610a38565b600082815260056020526040902060010154610c55816117b2565b610a2883836117bc565b6001600160a01b0381163314610cdd5760405162461bcd60e51b815260206004820152602f60248201527f416363657373436f6e74726f6c3a2063616e206f6e6c792072656e6f756e636560448201527f20726f6c657320666f722073656c6600000000000000000000000000000000006064820152608401610308565b610ce7828261185e565b5050565b610cf433610bfa565b610d395760405162461bcd60e51b81526020600482015260226024820152600080516020611f8a83398151915260448201526134b760f11b6064820152608401610308565b6001600160a01b038116610d8f5760405162461bcd60e51b815260206004820152600d60248201527f696e707574206973207a65726f000000000000000000000000000000000000006044820152606401610308565b6000805260016020527fa6eef7e35abe7026729641147f7915573c7e97b47efa546f5f6e3230263bcb49546001600160a01b03828116911603610e005760405162461bcd60e51b815260206004820152600960248201526839b0b6b29030b2323960b91b6044820152606401610308565b610e0d81600060016118e1565b6040516001600160a01b038216907fbc7cd75a20ee27fd9adebab32041f755214dbc6bffa90cc0225b39da2e5c2d3b90600090a250565b610e4d33610bfa565b610e925760405162461bcd60e51b81526020600482015260226024820152600080516020611f8a83398151915260448201526134b760f11b6064820152608401610308565b81610edf5760405162461bcd60e51b815260206004820181905260248201527f50726f78793a205f73656c6563746f727327732073697a65206973207a65726f6044820152606401610308565b6001600160a01b03811660009081526002602052604090205460ff16610f475760405162461bcd60e51b815260206004820152601860248201527f50726f78793a205f696d70206973206e6f7420616c69766500000000000000006044820152606401610308565b60005b828110156110de57816001600160a01b031660036000868685818110610f7257610f72611e15565b9050602002016020810190610f879190611c3e565b6001600160e01b03191681526020810191909152604001600020546001600160a01b031603610ff85760405162461bcd60e51b815260206004820152601d60248201527f4c69717569646974795661756c7450726f78793a2073616d6520696d700000006044820152606401610308565b816003600086868581811061100f5761100f611e15565b90506020020160208101906110249190611c3e565b6001600160e01b0319168152602081019190915260400160002080546001600160a01b0319166001600160a01b03928316179055821684848381811061106c5761106c611e15565b90506020020160208101906110819190611c3e565b7bffffffffffffffffffffffffffffffffffffffffffffffffffffffff19167f14ebc1c32aa68f4d766e89f3e546cee249f7df25183fc10ab1568d91c2ce9b7b60405160405180910390a3806110d681611e41565b915050610f4a565b50505050565b6110ed33610bfa565b6111325760405162461bcd60e51b81526020600482015260226024820152600080516020611f8a83398151915260448201526134b760f11b6064820152608401610308565b610ce7828261196c565b6006546001600160a01b031633146111845760405162461bcd60e51b815260206004820152600b60248201526a3737ba1036b0b730b3b2b960a91b6044820152606401610308565b6006546040516000916001600160a01b0316907f697e4e68d3879b0dd3414a88905117bac8f0a54b0cd8e7779f909bf1a1cf5683908390a3600680546001600160a01b0319169055565b6111d733610bfa565b61121c5760405162461bcd60e51b81526020600482015260226024820152600080516020611f8a83398151915260448201526134b760f11b6064820152608401610308565b610b47600082610c3a565b61123033610bfa565b6112755760405162461bcd60e51b81526020600482015260226024820152600080516020611f8a83398151915260448201526134b760f11b6064820152608401610308565b611280600033610c5f565b565b61128b33610bfa565b6112d05760405162461bcd60e51b81526020600482015260226024820152600080516020611f8a83398151915260448201526134b760f11b6064820152608401610308565b6001600160a01b0381166113265760405162461bcd60e51b815260206004820152601860248201527f41636365737369626c653a207a65726f206164647265737300000000000000006044820152606401610308565b6001600160a01b038116330361137e5760405162461bcd60e51b815260206004820152601660248201527f41636365737369626c653a2073616d652061646d696e000000000000000000006044820152606401610308565b611389600082610c3a565b610b47600033610c5f565b61139d33610bfa565b6113e25760405162461bcd60e51b81526020600482015260226024820152600080516020611f8a83398151915260448201526134b760f11b6064820152608401610308565b6000805460ff1916911515919091179055565b6113fe33610bfa565b6114435760405162461bcd60e51b81526020600482015260226024820152600080516020611f8a83398151915260448201526134b760f11b6064820152608401610308565b610a288383836118e1565b6000818152600160205260408120546001600160a01b0316610a38565b6001600160e01b031981166000908152600360205260408120546001600160a01b03166114cb5750506000805260016020527fa6eef7e35abe7026729641147f7915573c7e97b47efa546f5f6e3230263bcb49546001600160a01b031690565b6001600160e01b031982166000908152600360209081526040808320546001600160a01b03168352600290915290205460ff161561152957506001600160e01b0319166000908152600360205260409020546001600160a01b031690565b50506000805260016020527fa6eef7e35abe7026729641147f7915573c7e97b47efa546f5f6e3230263bcb49546001600160a01b031690565b919050565b6006546001600160a01b031633146115af5760405162461bcd60e51b815260206004820152600b60248201526a3737ba1036b0b730b3b2b960a91b6044820152606401610308565b6001600160a01b0381166116055760405162461bcd60e51b815260206004820152601f60248201527f6e6577206d616e6167657220697320746865207a65726f2061646472657373006044820152606401610308565b6006546040516001600160a01b038084169216907f697e4e68d3879b0dd3414a88905117bac8f0a54b0cd8e7779f909bf1a1cf568390600090a3600680546001600160a01b0319166001600160a01b0392909216919091179055565b60008281526005602052604090206001015461167c816117b2565b610a28838361185e565b6006546001600160a01b031633146116ce5760405162461bcd60e51b815260206004820152600b60248201526a3737ba1036b0b730b3b2b960a91b6044820152606401610308565b600b546001600160a01b038083169116036117145760405162461bcd60e51b81526004016103089060208082526004908201526373616d6560e01b604082015260600190565b600b80546001600160a01b0319166001600160a01b0392909216919091179055565b61173f33610bfa565b6117845760405162461bcd60e51b81526020600482015260226024820152600080516020611f8a83398151915260448201526134b760f11b6064820152608401610308565b610b4781611282565b60006001600160e01b03198216637965db0b60e01b1480610a385750610a38826119cb565b610b478133611a07565b60008281526005602090815260408083206001600160a01b038516845290915290205460ff16610ce75760008281526005602090815260408083206001600160a01b03851684529091529020805460ff1916600117905561181a3390565b6001600160a01b0316816001600160a01b0316837f2f8788117e7eff1d82e926ec794901d17c78024a50270940304540a733656f0d60405160405180910390a45050565b60008281526005602090815260408083206001600160a01b038516845290915290205460ff1615610ce75760008281526005602090815260408083206001600160a01b0385168085529252808320805460ff1916905551339285917ff6391f5c32d9c69d2a47ea670b442974b53935d1edc7fd64eb21e047a839171b9190a45050565b6001600160a01b0383163b6119385760405162461bcd60e51b815260206004820152601b60248201527f50726f78793a206e6f7420636f6e7472616374206164647265737300000000006044820152606401610308565b801561196657600082815260016020526040902080546001600160a01b0319166001600160a01b0385161790555b610a2883825b6001600160a01b038216600081815260026020908152604091829020805460ff191685151590811790915591519182527f72558d9bfba4210f9ef095c782589484151f6d90f7a81bb3cb9b33efc695d324910160405180910390a25050565b60006301ffc9a760e01b6001600160e01b031983161480610a385750506001600160e01b03191660009081526004602052604090205460ff1690565b60008281526005602090815260408083206001600160a01b038516845290915290205460ff16610ce757611a3a81611a7c565b611a45836020611a8e565b604051602001611a56929190611e7e565b60408051601f198184030181529082905262461bcd60e51b825261030891600401611eff565b6060610a386001600160a01b03831660145b60606000611a9d836002611f32565b611aa8906002611f49565b67ffffffffffffffff811115611ac057611ac0611f5c565b6040519080825280601f01601f191660200182016040528015611aea576020820181803683370190505b509050600360fc1b81600081518110611b0557611b05611e15565b60200101906001600160f81b031916908160001a905350600f60fb1b81600181518110611b3457611b34611e15565b60200101906001600160f81b031916908160001a9053506000611b58846002611f32565b611b63906001611f49565b90505b6001811115611be8577f303132333435363738396162636465660000000000000000000000000000000085600f1660108110611ba457611ba4611e15565b1a60f81b828281518110611bba57611bba611e15565b60200101906001600160f81b031916908160001a90535060049490941c93611be181611f72565b9050611b66565b508315611c375760405162461bcd60e51b815260206004820181905260248201527f537472696e67733a20686578206c656e67746820696e73756666696369656e746044820152606401610308565b9392505050565b600060208284031215611c5057600080fd5b81356001600160e01b031981168114611c3757600080fd5b80356001600160a01b038116811461156257600080fd5b600060208284031215611c9157600080fd5b611c3782611c68565b600060208284031215611cac57600080fd5b5035919050565b60008060408385031215611cc657600080fd5b82359150611cd660208401611c68565b90509250929050565b60008060408385031215611cf257600080fd5b611cfb83611c68565b9150611cd660208401611c68565b600080600060408486031215611d1e57600080fd5b833567ffffffffffffffff80821115611d3657600080fd5b818601915086601f830112611d4a57600080fd5b813581811115611d5957600080fd5b8760208260051b8501011115611d6e57600080fd5b602092830195509350611d849186019050611c68565b90509250925092565b8035801515811461156257600080fd5b60008060408385031215611db057600080fd5b611db983611c68565b9150611cd660208401611d8d565b600060208284031215611dd957600080fd5b611c3782611d8d565b600080600060608486031215611df757600080fd5b611e0084611c68565b925060208401359150611d8460408501611d8d565b634e487b7160e01b600052603260045260246000fd5b634e487b7160e01b600052601160045260246000fd5b600060018201611e5357611e53611e2b565b5060010190565b60005b83811015611e75578181015183820152602001611e5d565b50506000910152565b7f416363657373436f6e74726f6c3a206163636f756e7420000000000000000000815260008351611eb6816017850160208801611e5a565b7f206973206d697373696e6720726f6c65200000000000000000000000000000006017918401918201528351611ef3816028840160208801611e5a565b01602801949350505050565b6020815260008251806020840152611f1e816040850160208701611e5a565b601f01601f19169190910160400192915050565b8082028115828204841417610a3857610a38611e2b565b80820180821115610a3857610a38611e2b565b634e487b7160e01b600052604160045260246000fd5b600081611f8157611f81611e2b565b50600019019056fe41636365737369626c653a2043616c6c6572206973206e6f7420616e2061646da164736f6c6343000813000a",
  "linkReferences": {},
  "deployedLinkReferences": {}
}