{
  "_format": "hh-sol-artifact-1",
  "contractName": "L1StakedTonToL2Proxy",
  "sourceName": "contracts/L1/L1StakedTonToL2Proxy.sol",
  "abi": [
    {
      "inputs": [],
      "stateMutability": "nonpayable",
      "type": "constructor"
    },
    {
      "anonymous": false,
      "inputs": [
        {
          "indexed": true,
          "internalType": "address",
          "name": "previousManager",
          "type": "address"
        },
        {
          "indexed": true,
          "internalType": "address",
          "name": "newManager",
          "type": "address"
        }
      ],
      "name": "ManagershipTransferred",
      "type": "event"
    },
    {
      "anonymous": false,
      "inputs": [
        {
          "indexed": true,
          "internalType": "bytes32",
          "name": "role",
          "type": "bytes32"
        },
        {
          "indexed": true,
          "internalType": "bytes32",
          "name": "previousAdminRole",
          "type": "bytes32"
        },
        {
          "indexed": true,
          "internalType": "bytes32",
          "name": "newAdminRole",
          "type": "bytes32"
        }
      ],
      "name": "RoleAdminChanged",
      "type": "event"
    },
    {
      "anonymous": false,
      "inputs": [
        {
          "indexed": true,
          "internalType": "bytes32",
          "name": "role",
          "type": "bytes32"
        },
        {
          "indexed": true,
          "internalType": "address",
          "name": "account",
          "type": "address"
        },
        {
          "indexed": true,
          "internalType": "address",
          "name": "sender",
          "type": "address"
        }
      ],
      "name": "RoleGranted",
      "type": "event"
    },
    {
      "anonymous": false,
      "inputs": [
        {
          "indexed": true,
          "internalType": "bytes32",
          "name": "role",
          "type": "bytes32"
        },
        {
          "indexed": true,
          "internalType": "address",
          "name": "account",
          "type": "address"
        },
        {
          "indexed": true,
          "internalType": "address",
          "name": "sender",
          "type": "address"
        }
      ],
      "name": "RoleRevoked",
      "type": "event"
    },
    {
      "anonymous": false,
      "inputs": [
        {
          "indexed": true,
          "internalType": "address",
          "name": "impl",
          "type": "address"
        },
        {
          "indexed": false,
          "internalType": "bool",
          "name": "alive",
          "type": "bool"
        }
      ],
      "name": "SetAliveImplementation",
      "type": "event"
    },
    {
      "anonymous": false,
      "inputs": [
        {
          "indexed": true,
          "internalType": "bytes4",
          "name": "selector",
          "type": "bytes4"
        },
        {
          "indexed": true,
          "internalType": "address",
          "name": "impl",
          "type": "address"
        }
      ],
      "name": "SetSelectorImplementation",
      "type": "event"
    },
    {
      "anonymous": false,
      "inputs": [
        {
          "indexed": true,
          "internalType": "address",
          "name": "implementation",
          "type": "address"
        }
      ],
      "name": "Upgraded",
      "type": "event"
    },
    {
      "stateMutability": "payable",
      "type": "fallback"
    },
    {
      "inputs": [],
      "name": "DEFAULT_ADMIN_ROLE",
      "outputs": [
        {
          "internalType": "bytes32",
          "name": "",
          "type": "bytes32"
        }
      ],
      "stateMutability": "view",
      "type": "function"
    },
    {
      "inputs": [],
      "name": "MINTER_ROLE",
      "outputs": [
        {
          "internalType": "bytes32",
          "name": "",
          "type": "bytes32"
        }
      ],
      "stateMutability": "view",
      "type": "function"
    },
    {
      "inputs": [
        {
          "internalType": "address",
          "name": "account",
          "type": "address"
        }
      ],
      "name": "addAdmin",
      "outputs": [],
      "stateMutability": "nonpayable",
      "type": "function"
    },
    {
      "inputs": [],
      "name": "addressManager",
      "outputs": [
        {
          "internalType": "address",
          "name": "",
          "type": "address"
        }
      ],
      "stateMutability": "view",
      "type": "function"
    },
    {
      "inputs": [
        {
          "internalType": "address",
          "name": "",
          "type": "address"
        }
      ],
      "name": "aliveImplementation",
      "outputs": [
        {
          "internalType": "bool",
          "name": "",
          "type": "bool"
        }
      ],
      "stateMutability": "view",
      "type": "function"
    },
    {
      "inputs": [
        {
          "internalType": "bytes32",
          "name": "role",
          "type": "bytes32"
        }
      ],
      "name": "getRoleAdmin",
      "outputs": [
        {
          "internalType": "bytes32",
          "name": "",
          "type": "bytes32"
        }
      ],
      "stateMutability": "view",
      "type": "function"
    },
    {
      "inputs": [
        {
          "internalType": "bytes4",
          "name": "_selector",
          "type": "bytes4"
        }
      ],
      "name": "getSelectorImplementation2",
      "outputs": [
        {
          "internalType": "address",
          "name": "impl",
          "type": "address"
        }
      ],
      "stateMutability": "view",
      "type": "function"
    },
    {
      "inputs": [
        {
          "internalType": "bytes32",
          "name": "role",
          "type": "bytes32"
        },
        {
          "internalType": "address",
          "name": "account",
          "type": "address"
        }
      ],
      "name": "grantRole",
      "outputs": [],
      "stateMutability": "nonpayable",
      "type": "function"
    },
    {
      "inputs": [
        {
          "internalType": "bytes32",
          "name": "role",
          "type": "bytes32"
        },
        {
          "internalType": "address",
          "name": "account",
          "type": "address"
        }
      ],
      "name": "hasRole",
      "outputs": [
        {
          "internalType": "bool",
          "name": "",
          "type": "bool"
        }
      ],
      "stateMutability": "view",
      "type": "function"
    },
    {
      "inputs": [],
      "name": "implementation",
      "outputs": [
        {
          "internalType": "address",
          "name": "",
          "type": "address"
        }
      ],
      "stateMutability": "view",
      "type": "function"
    },
    {
      "inputs": [
        {
          "internalType": "uint256",
          "name": "_index",
          "type": "uint256"
        }
      ],
      "name": "implementation2",
      "outputs": [
        {
          "internalType": "address",
          "name": "",
          "type": "address"
        }
      ],
      "stateMutability": "view",
      "type": "function"
    },
    {
      "inputs": [
        {
          "internalType": "address",
          "name": "account",
          "type": "address"
        }
      ],
      "name": "isAdmin",
      "outputs": [
        {
          "internalType": "bool",
          "name": "",
          "type": "bool"
        }
      ],
      "stateMutability": "view",
      "type": "function"
    },
    {
      "inputs": [],
      "name": "isOwner",
      "outputs": [
        {
          "internalType": "bool",
          "name": "",
          "type": "bool"
        }
      ],
      "stateMutability": "view",
      "type": "function"
    },
    {
      "inputs": [],
      "name": "l1StakedTonInL2",
      "outputs": [
        {
          "internalType": "address",
          "name": "",
          "type": "address"
        }
      ],
      "stateMutability": "view",
      "type": "function"
    },
    {
      "inputs": [
        {
          "internalType": "address",
          "name": "",
          "type": "address"
        },
        {
          "internalType": "address",
          "name": "",
          "type": "address"
        }
      ],
      "name": "lastRegisterTime",
      "outputs": [
        {
          "internalType": "uint256",
          "name": "",
          "type": "uint256"
        }
      ],
      "stateMutability": "view",
      "type": "function"
    },
    {
      "inputs": [],
      "name": "manager",
      "outputs": [
        {
          "internalType": "address",
          "name": "",
          "type": "address"
        }
      ],
      "stateMutability": "view",
      "type": "function"
    },
    {
      "inputs": [],
      "name": "minGasLimit",
      "outputs": [
        {
          "internalType": "uint32",
          "name": "",
          "type": "uint32"
        }
      ],
      "stateMutability": "view",
      "type": "function"
    },
    {
      "inputs": [],
      "name": "pauseProxy",
      "outputs": [
        {
          "internalType": "bool",
          "name": "",
          "type": "bool"
        }
      ],
      "stateMutability": "view",
      "type": "function"
    },
    {
      "inputs": [
        {
          "internalType": "uint256",
          "name": "",
          "type": "uint256"
        }
      ],
      "name": "proxyImplementation",
      "outputs": [
        {
          "internalType": "address",
          "name": "",
          "type": "address"
        }
      ],
      "stateMutability": "view",
      "type": "function"
    },
    {
      "inputs": [],
      "name": "registry",
      "outputs": [
        {
          "internalType": "address",
          "name": "",
          "type": "address"
        }
      ],
      "stateMutability": "view",
      "type": "function"
    },
    {
      "inputs": [
        {
          "internalType": "address",
          "name": "account",
          "type": "address"
        }
      ],
      "name": "removeAdmin",
      "outputs": [],
      "stateMutability": "nonpayable",
      "type": "function"
    },
    {
      "inputs": [],
      "name": "renounceManagership",
      "outputs": [],
      "stateMutability": "nonpayable",
      "type": "function"
    },
    {
      "inputs": [],
      "name": "renounceOwnership",
      "outputs": [],
      "stateMutability": "nonpayable",
      "type": "function"
    },
    {
      "inputs": [
        {
          "internalType": "bytes32",
          "name": "role",
          "type": "bytes32"
        },
        {
          "internalType": "address",
          "name": "account",
          "type": "address"
        }
      ],
      "name": "renounceRole",
      "outputs": [],
      "stateMutability": "nonpayable",
      "type": "function"
    },
    {
      "inputs": [
        {
          "internalType": "bytes32",
          "name": "role",
          "type": "bytes32"
        },
        {
          "internalType": "address",
          "name": "account",
          "type": "address"
        }
      ],
      "name": "revokeRole",
      "outputs": [],
      "stateMutability": "nonpayable",
      "type": "function"
    },
    {
      "inputs": [],
      "name": "seigManager",
      "outputs": [
        {
          "internalType": "address",
          "name": "",
          "type": "address"
        }
      ],
      "stateMutability": "view",
      "type": "function"
    },
    {
      "inputs": [
        {
          "internalType": "bytes4",
          "name": "",
          "type": "bytes4"
        }
      ],
      "name": "selectorImplementation",
      "outputs": [
        {
          "internalType": "address",
          "name": "",
          "type": "address"
        }
      ],
      "stateMutability": "view",
      "type": "function"
    },
    {
      "inputs": [
        {
          "internalType": "address",
          "name": "newImplementation",
          "type": "address"
        },
        {
          "internalType": "bool",
          "name": "_alive",
          "type": "bool"
        }
      ],
      "name": "setAliveImplementation2",
      "outputs": [],
      "stateMutability": "nonpayable",
      "type": "function"
    },
    {
      "inputs": [
        {
          "internalType": "address",
          "name": "newImplementation",
          "type": "address"
        },
        {
          "internalType": "uint256",
          "name": "_index",
          "type": "uint256"
        },
        {
          "internalType": "bool",
          "name": "_alive",
          "type": "bool"
        }
      ],
      "name": "setImplementation2",
      "outputs": [],
      "stateMutability": "nonpayable",
      "type": "function"
    },
    {
      "inputs": [
        {
          "internalType": "bool",
          "name": "_pause",
          "type": "bool"
        }
      ],
      "name": "setProxyPause",
      "outputs": [],
      "stateMutability": "nonpayable",
      "type": "function"
    },
    {
      "inputs": [
        {
          "internalType": "bytes4[]",
          "name": "_selectors",
          "type": "bytes4[]"
        },
        {
          "internalType": "address",
          "name": "_imp",
          "type": "address"
        }
      ],
      "name": "setSelectorImplementations2",
      "outputs": [],
      "stateMutability": "nonpayable",
      "type": "function"
    },
    {
      "inputs": [
        {
          "internalType": "bytes4",
          "name": "interfaceId",
          "type": "bytes4"
        }
      ],
      "name": "supportsInterface",
      "outputs": [
        {
          "internalType": "bool",
          "name": "",
          "type": "bool"
        }
      ],
      "stateMutability": "view",
      "type": "function"
    },
    {
      "inputs": [
        {
          "internalType": "address",
          "name": "",
          "type": "address"
        },
        {
          "internalType": "address",
          "name": "",
          "type": "address"
        }
      ],
      "name": "syncInfo",
      "outputs": [
        {
          "internalType": "uint32",
          "name": "syncTime",
          "type": "uint32"
        },
        {
          "internalType": "uint256",
          "name": "balanceFactor",
          "type": "uint256"
        },
        {
          "internalType": "uint256",
          "name": "factor",
          "type": "uint256"
        },
        {
          "internalType": "uint256",
          "name": "stakedAmount",
          "type": "uint256"
        }
      ],
      "stateMutability": "view",
      "type": "function"
    },
    {
      "inputs": [],
      "name": "tot",
      "outputs": [
        {
          "internalType": "address",
          "name": "",
          "type": "address"
        }
      ],
      "stateMutability": "view",
      "type": "function"
    },
    {
      "inputs": [
        {
          "internalType": "address",
          "name": "newAdmin",
          "type": "address"
        }
      ],
      "name": "transferAdmin",
      "outputs": [],
      "stateMutability": "nonpayable",
      "type": "function"
    },
    {
      "inputs": [
        {
          "internalType": "address",
          "name": "newManager",
          "type": "address"
        }
      ],
      "name": "transferManagership",
      "outputs": [],
      "stateMutability": "nonpayable",
      "type": "function"
    },
    {
      "inputs": [
        {
          "internalType": "address",
          "name": "newAdmin",
          "type": "address"
        }
      ],
      "name": "transferOwnership",
      "outputs": [],
      "stateMutability": "nonpayable",
      "type": "function"
    },
    {
      "inputs": [
        {
          "internalType": "address",
          "name": "impl",
          "type": "address"
        }
      ],
      "name": "upgradeTo",
      "outputs": [],
      "stateMutability": "nonpayable",
      "type": "function"
    },
    {
      "stateMutability": "payable",
      "type": "receive"
    }
  ],
  "bytecode": "0x60806040523480156200001157600080fd5b506200001f60003362000037565b600680546001600160a01b03191633179055620000eb565b62000043828262000047565b5050565b60008281526005602090815260408083206001600160a01b038516845290915290205460ff16620000435760008281526005602090815260408083206001600160a01b03851684529091529020805460ff19166001179055620000a73390565b6001600160a01b0316816001600160a01b0316837f2f8788117e7eff1d82e926ec794901d17c78024a50270940304540a733656f0d60405160405180910390a45050565b611d4880620000fb6000396000f3fe6080604052600436106102895760003560e01c806370480275116101535780638f32d59b116100cb578063bd0bfecd1161007f578063d539139311610064578063d5391393146108b2578063d547741f146108e6578063f2fde38b14610906576102db565b8063bd0bfecd1461085a578063ccc3990914610892576102db565b8063a16d6aa7116100b0578063a16d6aa7146107ef578063a217fddf1461080f578063b911135f14610824576102db565b80638f32d59b1461076557806391d14854146107a9576102db565b80637cb00d25116101225780638b8f4a65116101075780638b8f4a65146107055780638c09d4ee146107255780638d4fdb4014610745576102db565b80637cb00d25146106c55780637cd5f663146106e5576102db565b80637048027514610650578063715018a61461067057806375829def146106855780637b103999146106a5576102db565b8063481c6a75116102015780635c60da1b116101b557806363a8fd891161019a57806363a8fd89146106015780636c146d9b1461061b5780636fb7f55814610630576102db565b80635c60da1b1461059b5780635cc797d8146105e1576102db565b806350d2a276116101e657806350d2a276146104eb578063550d01a3146105215780635aeb4d7714610551576102db565b8063481c6a75146104ab5780634a5df50f146104cb576102db565b80632f2ff15d116102585780633659cfe61161023d5780633659cfe6146103d85780633ab76e9f146103f85780633eba307914610430576102db565b80632f2ff15d1461039857806336568abe146103b8576102db565b806301ffc9a7146102e55780631785f53c1461031a578063248a9ca31461033a57806324d7806c14610378576102db565b366102db5760405162461bcd60e51b815260206004820152601460248201527f63616e6e6f74207265636569766520457468657200000000000000000000000060448201526064015b60405180910390fd5b6102e3610926565b005b3480156102f157600080fd5b506103056103003660046119d0565b6109cf565b60405190151581526020015b60405180910390f35b34801561032657600080fd5b506102e3610335366004611a11565b6109e0565b34801561034657600080fd5b5061036a610355366004611a2c565b60009081526005602052604090206001015490565b604051908152602001610311565b34801561038457600080fd5b50610305610393366004611a11565b610a3c565b3480156103a457600080fd5b506102e36103b3366004611a45565b610a7c565b3480156103c457600080fd5b506102e36103d3366004611a45565b610aa1565b3480156103e457600080fd5b506102e36103f3366004611a11565b610b2d565b34801561040457600080fd5b50600754610418906001600160a01b031681565b6040516001600160a01b039091168152602001610311565b34801561043c57600080fd5b5061048461044b366004611a71565b600c602090815260009283526040808420909152908252902080546001820154600283015460039093015463ffffffff90921692909184565b6040805163ffffffff90951685526020850193909352918301526060820152608001610311565b3480156104b757600080fd5b50600654610418906001600160a01b031681565b3480156104d757600080fd5b506102e36104e6366004611a9b565b610c86565b3480156104f757600080fd5b506104186105063660046119d0565b6003602052600090815260409020546001600160a01b031681565b34801561052d57600080fd5b5061030561053c366004611a11565b60026020526000908152604090205460ff1681565b34801561055d57600080fd5b50600b546105869074010000000000000000000000000000000000000000900463ffffffff1681565b60405163ffffffff9091168152602001610311565b3480156105a757600080fd5b506000805260016020527fa6eef7e35abe7026729641147f7915573c7e97b47efa546f5f6e3230263bcb49546001600160a01b0316610418565b3480156105ed57600080fd5b506102e36105fc366004611b2f565b610f26565b34801561060d57600080fd5b506000546103059060ff1681565b34801561062757600080fd5b506102e3610f7e565b34801561063c57600080fd5b50600854610418906001600160a01b031681565b34801561065c57600080fd5b506102e361066b366004611a11565b611010565b34801561067c57600080fd5b506102e3611069565b34801561069157600080fd5b506102e36106a0366004611a11565b6110c4565b3480156106b157600080fd5b50600954610418906001600160a01b031681565b3480156106d157600080fd5b506102e36106e0366004611b59565b6111d6565b3480156106f157600080fd5b506102e3610700366004611b74565b611237565b34801561071157600080fd5b50610418610720366004611a2c565b611290565b34801561073157600080fd5b50600b54610418906001600160a01b031681565b34801561075157600080fd5b506104186107603660046119d0565b6112ad565b34801561077157600080fd5b503360009081527f05b8ccbb9d4d8fb16ea74ce3c29a41f1b461fbdaff4714a0d9a8eb05499746bc602052604090205460ff16610305565b3480156107b557600080fd5b506103056107c4366004611a45565b60009182526005602090815260408084206001600160a01b0393909316845291905290205460ff1690565b3480156107fb57600080fd5b50600a54610418906001600160a01b031681565b34801561081b57600080fd5b5061036a600081565b34801561083057600080fd5b5061041861083f366004611a2c565b6001602052600090815260409020546001600160a01b031681565b34801561086657600080fd5b5061036a610875366004611a71565b600d60209081526000928352604080842090915290825290205481565b34801561089e57600080fd5b506102e36108ad366004611a11565b6113a9565b3480156108be57600080fd5b5061036a7ff0887ba65ee2024ea881d91b74c2450ef19e1557f03bed3ea9f16b037cbe2dc981565b3480156108f257600080fd5b506102e3610901366004611a45565b6114a3565b34801561091257600080fd5b506102e3610921366004611a11565b6114c8565b600061093d6000356001600160e01b0319166112ad565b90506001600160a01b0381161580159061095a575060005460ff16155b6109a65760405162461bcd60e51b815260206004820152601d60248201527f50726f78793a20696d706c204f522070726f78792069732066616c736500000060448201526064016102d2565b3660008037600080366000845af43d6000803e8080156109c5573d6000f35b3d6000fd5b505050565b60006109da8261151f565b92915050565b6109e933610a3c565b610a2e5760405162461bcd60e51b81526020600482015260226024820152600080516020611d1c83398151915260448201526134b760f11b60648201526084016102d2565b610a39600082610aa1565b50565b6001600160a01b03811660009081527f05b8ccbb9d4d8fb16ea74ce3c29a41f1b461fbdaff4714a0d9a8eb05499746bc602052604081205460ff166109da565b600082815260056020526040902060010154610a9781611544565b6109ca838361154e565b6001600160a01b0381163314610b1f5760405162461bcd60e51b815260206004820152602f60248201527f416363657373436f6e74726f6c3a2063616e206f6e6c792072656e6f756e636560448201527f20726f6c657320666f722073656c66000000000000000000000000000000000060648201526084016102d2565b610b2982826115f0565b5050565b610b3633610a3c565b610b7b5760405162461bcd60e51b81526020600482015260226024820152600080516020611d1c83398151915260448201526134b760f11b60648201526084016102d2565b6001600160a01b038116610bd15760405162461bcd60e51b815260206004820152600d60248201527f696e707574206973207a65726f0000000000000000000000000000000000000060448201526064016102d2565b6000805260016020527fa6eef7e35abe7026729641147f7915573c7e97b47efa546f5f6e3230263bcb49546001600160a01b03828116911603610c425760405162461bcd60e51b815260206004820152600960248201526839b0b6b29030b2323960b91b60448201526064016102d2565b610c4f8160006001611673565b6040516001600160a01b038216907fbc7cd75a20ee27fd9adebab32041f755214dbc6bffa90cc0225b39da2e5c2d3b90600090a250565b610c8f33610a3c565b610cd45760405162461bcd60e51b81526020600482015260226024820152600080516020611d1c83398151915260448201526134b760f11b60648201526084016102d2565b81610d215760405162461bcd60e51b815260206004820181905260248201527f50726f78793a205f73656c6563746f727327732073697a65206973207a65726f60448201526064016102d2565b6001600160a01b03811660009081526002602052604090205460ff16610d895760405162461bcd60e51b815260206004820152601860248201527f50726f78793a205f696d70206973206e6f7420616c697665000000000000000060448201526064016102d2565b60005b82811015610f2057816001600160a01b031660036000868685818110610db457610db4611ba7565b9050602002016020810190610dc991906119d0565b6001600160e01b03191681526020810191909152604001600020546001600160a01b031603610e3a5760405162461bcd60e51b815260206004820152601d60248201527f4c69717569646974795661756c7450726f78793a2073616d6520696d7000000060448201526064016102d2565b8160036000868685818110610e5157610e51611ba7565b9050602002016020810190610e6691906119d0565b6001600160e01b0319168152602081019190915260400160002080546001600160a01b0319166001600160a01b039283161790558216848483818110610eae57610eae611ba7565b9050602002016020810190610ec391906119d0565b7bffffffffffffffffffffffffffffffffffffffffffffffffffffffff19167f14ebc1c32aa68f4d766e89f3e546cee249f7df25183fc10ab1568d91c2ce9b7b60405160405180910390a380610f1881611bd3565b915050610d8c565b50505050565b610f2f33610a3c565b610f745760405162461bcd60e51b81526020600482015260226024820152600080516020611d1c83398151915260448201526134b760f11b60648201526084016102d2565b610b2982826116fe565b6006546001600160a01b03163314610fc65760405162461bcd60e51b815260206004820152600b60248201526a3737ba1036b0b730b3b2b960a91b60448201526064016102d2565b6006546040516000916001600160a01b0316907f697e4e68d3879b0dd3414a88905117bac8f0a54b0cd8e7779f909bf1a1cf5683908390a3600680546001600160a01b0319169055565b61101933610a3c565b61105e5760405162461bcd60e51b81526020600482015260226024820152600080516020611d1c83398151915260448201526134b760f11b60648201526084016102d2565b610a39600082610a7c565b61107233610a3c565b6110b75760405162461bcd60e51b81526020600482015260226024820152600080516020611d1c83398151915260448201526134b760f11b60648201526084016102d2565b6110c2600033610aa1565b565b6110cd33610a3c565b6111125760405162461bcd60e51b81526020600482015260226024820152600080516020611d1c83398151915260448201526134b760f11b60648201526084016102d2565b6001600160a01b0381166111685760405162461bcd60e51b815260206004820152601860248201527f41636365737369626c653a207a65726f2061646472657373000000000000000060448201526064016102d2565b6001600160a01b03811633036111c05760405162461bcd60e51b815260206004820152601660248201527f41636365737369626c653a2073616d652061646d696e0000000000000000000060448201526064016102d2565b6111cb600082610a7c565b610a39600033610aa1565b6111df33610a3c565b6112245760405162461bcd60e51b81526020600482015260226024820152600080516020611d1c83398151915260448201526134b760f11b60648201526084016102d2565b6000805460ff1916911515919091179055565b61124033610a3c565b6112855760405162461bcd60e51b81526020600482015260226024820152600080516020611d1c83398151915260448201526134b760f11b60648201526084016102d2565b6109ca838383611673565b6000818152600160205260408120546001600160a01b03166109da565b6001600160e01b031981166000908152600360205260408120546001600160a01b031661130d5750506000805260016020527fa6eef7e35abe7026729641147f7915573c7e97b47efa546f5f6e3230263bcb49546001600160a01b031690565b6001600160e01b031982166000908152600360209081526040808320546001600160a01b03168352600290915290205460ff161561136b57506001600160e01b0319166000908152600360205260409020546001600160a01b031690565b50506000805260016020527fa6eef7e35abe7026729641147f7915573c7e97b47efa546f5f6e3230263bcb49546001600160a01b031690565b919050565b6006546001600160a01b031633146113f15760405162461bcd60e51b815260206004820152600b60248201526a3737ba1036b0b730b3b2b960a91b60448201526064016102d2565b6001600160a01b0381166114475760405162461bcd60e51b815260206004820152601f60248201527f6e6577206d616e6167657220697320746865207a65726f20616464726573730060448201526064016102d2565b6006546040516001600160a01b038084169216907f697e4e68d3879b0dd3414a88905117bac8f0a54b0cd8e7779f909bf1a1cf568390600090a3600680546001600160a01b0319166001600160a01b0392909216919091179055565b6000828152600560205260409020600101546114be81611544565b6109ca83836115f0565b6114d133610a3c565b6115165760405162461bcd60e51b81526020600482015260226024820152600080516020611d1c83398151915260448201526134b760f11b60648201526084016102d2565b610a39816110c4565b60006001600160e01b03198216637965db0b60e01b14806109da57506109da8261175d565b610a398133611799565b60008281526005602090815260408083206001600160a01b038516845290915290205460ff16610b295760008281526005602090815260408083206001600160a01b03851684529091529020805460ff191660011790556115ac3390565b6001600160a01b0316816001600160a01b0316837f2f8788117e7eff1d82e926ec794901d17c78024a50270940304540a733656f0d60405160405180910390a45050565b60008281526005602090815260408083206001600160a01b038516845290915290205460ff1615610b295760008281526005602090815260408083206001600160a01b0385168085529252808320805460ff1916905551339285917ff6391f5c32d9c69d2a47ea670b442974b53935d1edc7fd64eb21e047a839171b9190a45050565b6001600160a01b0383163b6116ca5760405162461bcd60e51b815260206004820152601b60248201527f50726f78793a206e6f7420636f6e74726163742061646472657373000000000060448201526064016102d2565b80156116f857600082815260016020526040902080546001600160a01b0319166001600160a01b0385161790555b6109ca83825b6001600160a01b038216600081815260026020908152604091829020805460ff191685151590811790915591519182527f72558d9bfba4210f9ef095c782589484151f6d90f7a81bb3cb9b33efc695d324910160405180910390a25050565b60006301ffc9a760e01b6001600160e01b0319831614806109da5750506001600160e01b03191660009081526004602052604090205460ff1690565b60008281526005602090815260408083206001600160a01b038516845290915290205460ff16610b29576117cc8161180e565b6117d7836020611820565b6040516020016117e8929190611c10565b60408051601f198184030181529082905262461bcd60e51b82526102d291600401611c91565b60606109da6001600160a01b03831660145b6060600061182f836002611cc4565b61183a906002611cdb565b67ffffffffffffffff81111561185257611852611cee565b6040519080825280601f01601f19166020018201604052801561187c576020820181803683370190505b509050600360fc1b8160008151811061189757611897611ba7565b60200101906001600160f81b031916908160001a905350600f60fb1b816001815181106118c6576118c6611ba7565b60200101906001600160f81b031916908160001a90535060006118ea846002611cc4565b6118f5906001611cdb565b90505b600181111561197a577f303132333435363738396162636465660000000000000000000000000000000085600f166010811061193657611936611ba7565b1a60f81b82828151811061194c5761194c611ba7565b60200101906001600160f81b031916908160001a90535060049490941c9361197381611d04565b90506118f8565b5083156119c95760405162461bcd60e51b815260206004820181905260248201527f537472696e67733a20686578206c656e67746820696e73756666696369656e7460448201526064016102d2565b9392505050565b6000602082840312156119e257600080fd5b81356001600160e01b0319811681146119c957600080fd5b80356001600160a01b03811681146113a457600080fd5b600060208284031215611a2357600080fd5b6119c9826119fa565b600060208284031215611a3e57600080fd5b5035919050565b60008060408385031215611a5857600080fd5b82359150611a68602084016119fa565b90509250929050565b60008060408385031215611a8457600080fd5b611a8d836119fa565b9150611a68602084016119fa565b600080600060408486031215611ab057600080fd5b833567ffffffffffffffff80821115611ac857600080fd5b818601915086601f830112611adc57600080fd5b813581811115611aeb57600080fd5b8760208260051b8501011115611b0057600080fd5b602092830195509350611b1691860190506119fa565b90509250925092565b803580151581146113a457600080fd5b60008060408385031215611b4257600080fd5b611b4b836119fa565b9150611a6860208401611b1f565b600060208284031215611b6b57600080fd5b6119c982611b1f565b600080600060608486031215611b8957600080fd5b611b92846119fa565b925060208401359150611b1660408501611b1f565b634e487b7160e01b600052603260045260246000fd5b634e487b7160e01b600052601160045260246000fd5b600060018201611be557611be5611bbd565b5060010190565b60005b83811015611c07578181015183820152602001611bef565b50506000910152565b7f416363657373436f6e74726f6c3a206163636f756e7420000000000000000000815260008351611c48816017850160208801611bec565b7f206973206d697373696e6720726f6c65200000000000000000000000000000006017918401918201528351611c85816028840160208801611bec565b01602801949350505050565b6020815260008251806020840152611cb0816040850160208701611bec565b601f01601f19169190910160400192915050565b80820281158282048414176109da576109da611bbd565b808201808211156109da576109da611bbd565b634e487b7160e01b600052604160045260246000fd5b600081611d1357611d13611bbd565b50600019019056fe41636365737369626c653a2043616c6c6572206973206e6f7420616e2061646da164736f6c6343000813000a",
  "linkReferences": {},
  "deployedLinkReferences": {}
}