{
  "_format": "hh-sol-artifact-1",
  "contractName": "L1StakedTonToL2Proxy",
  "sourceName": "contracts/L1/L1StakedTonToL2Proxy.sol",
  "abi": [
    {
      "inputs": [],
      "stateMutability": "nonpayable",
      "type": "constructor"
    },
    {
      "anonymous": false,
      "inputs": [
        {
          "indexed": true,
          "internalType": "address",
          "name": "previousManager",
          "type": "address"
        },
        {
          "indexed": true,
          "internalType": "address",
          "name": "newManager",
          "type": "address"
        }
      ],
      "name": "ManagershipTransferred",
      "type": "event"
    },
    {
      "anonymous": false,
      "inputs": [
        {
          "indexed": true,
          "internalType": "bytes32",
          "name": "role",
          "type": "bytes32"
        },
        {
          "indexed": true,
          "internalType": "bytes32",
          "name": "previousAdminRole",
          "type": "bytes32"
        },
        {
          "indexed": true,
          "internalType": "bytes32",
          "name": "newAdminRole",
          "type": "bytes32"
        }
      ],
      "name": "RoleAdminChanged",
      "type": "event"
    },
    {
      "anonymous": false,
      "inputs": [
        {
          "indexed": true,
          "internalType": "bytes32",
          "name": "role",
          "type": "bytes32"
        },
        {
          "indexed": true,
          "internalType": "address",
          "name": "account",
          "type": "address"
        },
        {
          "indexed": true,
          "internalType": "address",
          "name": "sender",
          "type": "address"
        }
      ],
      "name": "RoleGranted",
      "type": "event"
    },
    {
      "anonymous": false,
      "inputs": [
        {
          "indexed": true,
          "internalType": "bytes32",
          "name": "role",
          "type": "bytes32"
        },
        {
          "indexed": true,
          "internalType": "address",
          "name": "account",
          "type": "address"
        },
        {
          "indexed": true,
          "internalType": "address",
          "name": "sender",
          "type": "address"
        }
      ],
      "name": "RoleRevoked",
      "type": "event"
    },
    {
      "anonymous": false,
      "inputs": [
        {
          "indexed": true,
          "internalType": "address",
          "name": "impl",
          "type": "address"
        },
        {
          "indexed": false,
          "internalType": "bool",
          "name": "alive",
          "type": "bool"
        }
      ],
      "name": "SetAliveImplementation",
      "type": "event"
    },
    {
      "anonymous": false,
      "inputs": [
        {
          "indexed": true,
          "internalType": "bytes4",
          "name": "selector",
          "type": "bytes4"
        },
        {
          "indexed": true,
          "internalType": "address",
          "name": "impl",
          "type": "address"
        }
      ],
      "name": "SetSelectorImplementation",
      "type": "event"
    },
    {
      "anonymous": false,
      "inputs": [
        {
          "indexed": true,
          "internalType": "address",
          "name": "implementation",
          "type": "address"
        }
      ],
      "name": "Upgraded",
      "type": "event"
    },
    {
      "stateMutability": "payable",
      "type": "fallback"
    },
    {
      "inputs": [],
      "name": "DEFAULT_ADMIN_ROLE",
      "outputs": [
        {
          "internalType": "bytes32",
          "name": "",
          "type": "bytes32"
        }
      ],
      "stateMutability": "view",
      "type": "function"
    },
    {
      "inputs": [],
      "name": "MINTER_ROLE",
      "outputs": [
        {
          "internalType": "bytes32",
          "name": "",
          "type": "bytes32"
        }
      ],
      "stateMutability": "view",
      "type": "function"
    },
    {
      "inputs": [
        {
          "internalType": "address",
          "name": "account",
          "type": "address"
        }
      ],
      "name": "addAdmin",
      "outputs": [],
      "stateMutability": "nonpayable",
      "type": "function"
    },
    {
      "inputs": [],
      "name": "addressManager",
      "outputs": [
        {
          "internalType": "address",
          "name": "",
          "type": "address"
        }
      ],
      "stateMutability": "view",
      "type": "function"
    },
    {
      "inputs": [
        {
          "internalType": "address",
          "name": "",
          "type": "address"
        }
      ],
      "name": "aliveImplementation",
      "outputs": [
        {
          "internalType": "bool",
          "name": "",
          "type": "bool"
        }
      ],
      "stateMutability": "view",
      "type": "function"
    },
    {
      "inputs": [
        {
          "internalType": "bytes32",
          "name": "role",
          "type": "bytes32"
        }
      ],
      "name": "getRoleAdmin",
      "outputs": [
        {
          "internalType": "bytes32",
          "name": "",
          "type": "bytes32"
        }
      ],
      "stateMutability": "view",
      "type": "function"
    },
    {
      "inputs": [
        {
          "internalType": "bytes4",
          "name": "_selector",
          "type": "bytes4"
        }
      ],
      "name": "getSelectorImplementation2",
      "outputs": [
        {
          "internalType": "address",
          "name": "impl",
          "type": "address"
        }
      ],
      "stateMutability": "view",
      "type": "function"
    },
    {
      "inputs": [
        {
          "internalType": "bytes32",
          "name": "role",
          "type": "bytes32"
        },
        {
          "internalType": "address",
          "name": "account",
          "type": "address"
        }
      ],
      "name": "grantRole",
      "outputs": [],
      "stateMutability": "nonpayable",
      "type": "function"
    },
    {
      "inputs": [
        {
          "internalType": "bytes32",
          "name": "role",
          "type": "bytes32"
        },
        {
          "internalType": "address",
          "name": "account",
          "type": "address"
        }
      ],
      "name": "hasRole",
      "outputs": [
        {
          "internalType": "bool",
          "name": "",
          "type": "bool"
        }
      ],
      "stateMutability": "view",
      "type": "function"
    },
    {
      "inputs": [],
      "name": "implementation",
      "outputs": [
        {
          "internalType": "address",
          "name": "",
          "type": "address"
        }
      ],
      "stateMutability": "view",
      "type": "function"
    },
    {
      "inputs": [
        {
          "internalType": "uint256",
          "name": "_index",
          "type": "uint256"
        }
      ],
      "name": "implementation2",
      "outputs": [
        {
          "internalType": "address",
          "name": "",
          "type": "address"
        }
      ],
      "stateMutability": "view",
      "type": "function"
    },
    {
      "inputs": [
        {
          "internalType": "address",
          "name": "account",
          "type": "address"
        }
      ],
      "name": "isAdmin",
      "outputs": [
        {
          "internalType": "bool",
          "name": "",
          "type": "bool"
        }
      ],
      "stateMutability": "view",
      "type": "function"
    },
    {
      "inputs": [],
      "name": "isOwner",
      "outputs": [
        {
          "internalType": "bool",
          "name": "",
          "type": "bool"
        }
      ],
      "stateMutability": "view",
      "type": "function"
    },
    {
      "inputs": [],
      "name": "l1StakedTonInL2",
      "outputs": [
        {
          "internalType": "address",
          "name": "",
          "type": "address"
        }
      ],
      "stateMutability": "view",
      "type": "function"
    },
    {
      "inputs": [
        {
          "internalType": "address",
          "name": "",
          "type": "address"
        },
        {
          "internalType": "address",
          "name": "",
          "type": "address"
        }
      ],
      "name": "lastRegisterTime",
      "outputs": [
        {
          "internalType": "uint256",
          "name": "",
          "type": "uint256"
        }
      ],
      "stateMutability": "view",
      "type": "function"
    },
    {
      "inputs": [],
      "name": "manager",
      "outputs": [
        {
          "internalType": "address",
          "name": "",
          "type": "address"
        }
      ],
      "stateMutability": "view",
      "type": "function"
    },
    {
      "inputs": [],
      "name": "minGasLimit",
      "outputs": [
        {
          "internalType": "uint32",
          "name": "",
          "type": "uint32"
        }
      ],
      "stateMutability": "view",
      "type": "function"
    },
    {
      "inputs": [],
      "name": "minGasLimit2",
      "outputs": [
        {
          "internalType": "uint32",
          "name": "",
          "type": "uint32"
        }
      ],
      "stateMutability": "view",
      "type": "function"
    },
    {
      "inputs": [],
      "name": "pauseProxy",
      "outputs": [
        {
          "internalType": "bool",
          "name": "",
          "type": "bool"
        }
      ],
      "stateMutability": "view",
      "type": "function"
    },
    {
      "inputs": [
        {
          "internalType": "uint256",
          "name": "",
          "type": "uint256"
        }
      ],
      "name": "proxyImplementation",
      "outputs": [
        {
          "internalType": "address",
          "name": "",
          "type": "address"
        }
      ],
      "stateMutability": "view",
      "type": "function"
    },
    {
      "inputs": [],
      "name": "registry",
      "outputs": [
        {
          "internalType": "address",
          "name": "",
          "type": "address"
        }
      ],
      "stateMutability": "view",
      "type": "function"
    },
    {
      "inputs": [
        {
          "internalType": "address",
          "name": "account",
          "type": "address"
        }
      ],
      "name": "removeAdmin",
      "outputs": [],
      "stateMutability": "nonpayable",
      "type": "function"
    },
    {
      "inputs": [],
      "name": "renounceManagership",
      "outputs": [],
      "stateMutability": "nonpayable",
      "type": "function"
    },
    {
      "inputs": [],
      "name": "renounceOwnership",
      "outputs": [],
      "stateMutability": "nonpayable",
      "type": "function"
    },
    {
      "inputs": [
        {
          "internalType": "bytes32",
          "name": "role",
          "type": "bytes32"
        },
        {
          "internalType": "address",
          "name": "account",
          "type": "address"
        }
      ],
      "name": "renounceRole",
      "outputs": [],
      "stateMutability": "nonpayable",
      "type": "function"
    },
    {
      "inputs": [
        {
          "internalType": "bytes32",
          "name": "role",
          "type": "bytes32"
        },
        {
          "internalType": "address",
          "name": "account",
          "type": "address"
        }
      ],
      "name": "revokeRole",
      "outputs": [],
      "stateMutability": "nonpayable",
      "type": "function"
    },
    {
      "inputs": [],
      "name": "seigManager",
      "outputs": [
        {
          "internalType": "address",
          "name": "",
          "type": "address"
        }
      ],
      "stateMutability": "view",
      "type": "function"
    },
    {
      "inputs": [
        {
          "internalType": "bytes4",
          "name": "",
          "type": "bytes4"
        }
      ],
      "name": "selectorImplementation",
      "outputs": [
        {
          "internalType": "address",
          "name": "",
          "type": "address"
        }
      ],
      "stateMutability": "view",
      "type": "function"
    },
    {
      "inputs": [
        {
          "internalType": "address",
          "name": "newImplementation",
          "type": "address"
        },
        {
          "internalType": "bool",
          "name": "_alive",
          "type": "bool"
        }
      ],
      "name": "setAliveImplementation2",
      "outputs": [],
      "stateMutability": "nonpayable",
      "type": "function"
    },
    {
      "inputs": [
        {
          "internalType": "address",
          "name": "newImplementation",
          "type": "address"
        },
        {
          "internalType": "uint256",
          "name": "_index",
          "type": "uint256"
        },
        {
          "internalType": "bool",
          "name": "_alive",
          "type": "bool"
        }
      ],
      "name": "setImplementation2",
      "outputs": [],
      "stateMutability": "nonpayable",
      "type": "function"
    },
    {
      "inputs": [
        {
          "internalType": "bool",
          "name": "_pause",
          "type": "bool"
        }
      ],
      "name": "setProxyPause",
      "outputs": [],
      "stateMutability": "nonpayable",
      "type": "function"
    },
    {
      "inputs": [
        {
          "internalType": "bytes4[]",
          "name": "_selectors",
          "type": "bytes4[]"
        },
        {
          "internalType": "address",
          "name": "_imp",
          "type": "address"
        }
      ],
      "name": "setSelectorImplementations2",
      "outputs": [],
      "stateMutability": "nonpayable",
      "type": "function"
    },
    {
      "inputs": [
        {
          "internalType": "bytes4",
          "name": "interfaceId",
          "type": "bytes4"
        }
      ],
      "name": "supportsInterface",
      "outputs": [
        {
          "internalType": "bool",
          "name": "",
          "type": "bool"
        }
      ],
      "stateMutability": "view",
      "type": "function"
    },
    {
      "inputs": [
        {
          "internalType": "address",
          "name": "newAdmin",
          "type": "address"
        }
      ],
      "name": "transferAdmin",
      "outputs": [],
      "stateMutability": "nonpayable",
      "type": "function"
    },
    {
      "inputs": [
        {
          "internalType": "address",
          "name": "newManager",
          "type": "address"
        }
      ],
      "name": "transferManagership",
      "outputs": [],
      "stateMutability": "nonpayable",
      "type": "function"
    },
    {
      "inputs": [
        {
          "internalType": "address",
          "name": "newAdmin",
          "type": "address"
        }
      ],
      "name": "transferOwnership",
      "outputs": [],
      "stateMutability": "nonpayable",
      "type": "function"
    },
    {
      "inputs": [
        {
          "internalType": "address",
          "name": "impl",
          "type": "address"
        }
      ],
      "name": "upgradeTo",
      "outputs": [],
      "stateMutability": "nonpayable",
      "type": "function"
    },
    {
      "stateMutability": "payable",
      "type": "receive"
    }
  ],
  "bytecode": "0x60806040523480156200001157600080fd5b506200001f60003362000037565b600680546001600160a01b03191633179055620000eb565b62000043828262000047565b5050565b60008281526005602090815260408083206001600160a01b038516845290915290205460ff16620000435760008281526005602090815260408083206001600160a01b03851684529091529020805460ff19166001179055620000a73390565b6001600160a01b0316816001600160a01b0316837f2f8788117e7eff1d82e926ec794901d17c78024a50270940304540a733656f0d60405160405180910390a45050565b611cb680620000fb6000396000f3fe60806040526004361061026e5760003560e01c806370480275116101535780638f32d59b116100cb578063bd0bfecd1161007f578063d539139311610064578063d539139314610820578063d547741f14610854578063f2fde38b14610874576102c0565b8063bd0bfecd146107c8578063ccc3990914610800576102c0565b806394d0ca38116100b057806394d0ca3814610759578063a217fddf1461077d578063b911135f14610792576102c0565b80638f32d59b146106cf57806391d1485414610713576102c0565b80637cb00d25116101225780638b8f4a65116101075780638b8f4a651461066f5780638c09d4ee1461068f5780638d4fdb40146106af576102c0565b80637cb00d251461062f5780637cd5f6631461064f576102c0565b806370480275146105ba578063715018a6146105da57806375829def146105ef5780637b1039991461060f576102c0565b80634a5df50f116101e65780635c60da1b116101b557806363a8fd891161019a57806363a8fd891461056b5780636c146d9b146105855780636fb7f5581461059a576102c0565b80635c60da1b146105055780635cc797d81461054b576102c0565b80634a5df50f1461043557806350d2a27614610455578063550d01a31461048b5780635aeb4d77146104bb576102c0565b80632f2ff15d1161023d5780633659cfe6116102225780633659cfe6146103bd5780633ab76e9f146103dd578063481c6a7514610415576102c0565b80632f2ff15d1461037d57806336568abe1461039d576102c0565b806301ffc9a7146102ca5780631785f53c146102ff578063248a9ca31461031f57806324d7806c1461035d576102c0565b366102c05760405162461bcd60e51b815260206004820152601460248201527f63616e6e6f74207265636569766520457468657200000000000000000000000060448201526064015b60405180910390fd5b6102c8610894565b005b3480156102d657600080fd5b506102ea6102e536600461193e565b61093d565b60405190151581526020015b60405180910390f35b34801561030b57600080fd5b506102c861031a36600461197f565b61094e565b34801561032b57600080fd5b5061034f61033a36600461199a565b60009081526005602052604090206001015490565b6040519081526020016102f6565b34801561036957600080fd5b506102ea61037836600461197f565b6109aa565b34801561038957600080fd5b506102c86103983660046119b3565b6109ea565b3480156103a957600080fd5b506102c86103b83660046119b3565b610a0f565b3480156103c957600080fd5b506102c86103d836600461197f565b610a9b565b3480156103e957600080fd5b506007546103fd906001600160a01b031681565b6040516001600160a01b0390911681526020016102f6565b34801561042157600080fd5b506006546103fd906001600160a01b031681565b34801561044157600080fd5b506102c86104503660046119df565b610bf4565b34801561046157600080fd5b506103fd61047036600461193e565b6003602052600090815260409020546001600160a01b031681565b34801561049757600080fd5b506102ea6104a636600461197f565b60026020526000908152604090205460ff1681565b3480156104c757600080fd5b50600a546104f09074010000000000000000000000000000000000000000900463ffffffff1681565b60405163ffffffff90911681526020016102f6565b34801561051157600080fd5b506000805260016020527fa6eef7e35abe7026729641147f7915573c7e97b47efa546f5f6e3230263bcb49546001600160a01b03166103fd565b34801561055757600080fd5b506102c8610566366004611a73565b610e94565b34801561057757600080fd5b506000546102ea9060ff1681565b34801561059157600080fd5b506102c8610eec565b3480156105a657600080fd5b506008546103fd906001600160a01b031681565b3480156105c657600080fd5b506102c86105d536600461197f565b610f7e565b3480156105e657600080fd5b506102c8610fd7565b3480156105fb57600080fd5b506102c861060a36600461197f565b611032565b34801561061b57600080fd5b506009546103fd906001600160a01b031681565b34801561063b57600080fd5b506102c861064a366004611a9d565b611144565b34801561065b57600080fd5b506102c861066a366004611ab8565b6111a5565b34801561067b57600080fd5b506103fd61068a36600461199a565b6111fe565b34801561069b57600080fd5b50600a546103fd906001600160a01b031681565b3480156106bb57600080fd5b506103fd6106ca36600461193e565b61121b565b3480156106db57600080fd5b503360009081527f05b8ccbb9d4d8fb16ea74ce3c29a41f1b461fbdaff4714a0d9a8eb05499746bc602052604090205460ff166102ea565b34801561071f57600080fd5b506102ea61072e3660046119b3565b60009182526005602090815260408084206001600160a01b0393909316845291905290205460ff1690565b34801561076557600080fd5b50600a546104f090600160c01b900463ffffffff1681565b34801561078957600080fd5b5061034f600081565b34801561079e57600080fd5b506103fd6107ad36600461199a565b6001602052600090815260409020546001600160a01b031681565b3480156107d457600080fd5b5061034f6107e3366004611aeb565b600b60209081526000928352604080842090915290825290205481565b34801561080c57600080fd5b506102c861081b36600461197f565b611317565b34801561082c57600080fd5b5061034f7ff0887ba65ee2024ea881d91b74c2450ef19e1557f03bed3ea9f16b037cbe2dc981565b34801561086057600080fd5b506102c861086f3660046119b3565b611411565b34801561088057600080fd5b506102c861088f36600461197f565b611436565b60006108ab6000356001600160e01b03191661121b565b90506001600160a01b038116158015906108c8575060005460ff16155b6109145760405162461bcd60e51b815260206004820152601d60248201527f50726f78793a20696d706c204f522070726f78792069732066616c736500000060448201526064016102b7565b3660008037600080366000845af43d6000803e808015610933573d6000f35b3d6000fd5b505050565b60006109488261148d565b92915050565b610957336109aa565b61099c5760405162461bcd60e51b81526020600482015260226024820152600080516020611c8a83398151915260448201526134b760f11b60648201526084016102b7565b6109a7600082610a0f565b50565b6001600160a01b03811660009081527f05b8ccbb9d4d8fb16ea74ce3c29a41f1b461fbdaff4714a0d9a8eb05499746bc602052604081205460ff16610948565b600082815260056020526040902060010154610a05816114b2565b61093883836114bc565b6001600160a01b0381163314610a8d5760405162461bcd60e51b815260206004820152602f60248201527f416363657373436f6e74726f6c3a2063616e206f6e6c792072656e6f756e636560448201527f20726f6c657320666f722073656c66000000000000000000000000000000000060648201526084016102b7565b610a97828261155e565b5050565b610aa4336109aa565b610ae95760405162461bcd60e51b81526020600482015260226024820152600080516020611c8a83398151915260448201526134b760f11b60648201526084016102b7565b6001600160a01b038116610b3f5760405162461bcd60e51b815260206004820152600d60248201527f696e707574206973207a65726f0000000000000000000000000000000000000060448201526064016102b7565b6000805260016020527fa6eef7e35abe7026729641147f7915573c7e97b47efa546f5f6e3230263bcb49546001600160a01b03828116911603610bb05760405162461bcd60e51b815260206004820152600960248201526839b0b6b29030b2323960b91b60448201526064016102b7565b610bbd81600060016115e1565b6040516001600160a01b038216907fbc7cd75a20ee27fd9adebab32041f755214dbc6bffa90cc0225b39da2e5c2d3b90600090a250565b610bfd336109aa565b610c425760405162461bcd60e51b81526020600482015260226024820152600080516020611c8a83398151915260448201526134b760f11b60648201526084016102b7565b81610c8f5760405162461bcd60e51b815260206004820181905260248201527f50726f78793a205f73656c6563746f727327732073697a65206973207a65726f60448201526064016102b7565b6001600160a01b03811660009081526002602052604090205460ff16610cf75760405162461bcd60e51b815260206004820152601860248201527f50726f78793a205f696d70206973206e6f7420616c697665000000000000000060448201526064016102b7565b60005b82811015610e8e57816001600160a01b031660036000868685818110610d2257610d22611b15565b9050602002016020810190610d37919061193e565b6001600160e01b03191681526020810191909152604001600020546001600160a01b031603610da85760405162461bcd60e51b815260206004820152601d60248201527f4c69717569646974795661756c7450726f78793a2073616d6520696d7000000060448201526064016102b7565b8160036000868685818110610dbf57610dbf611b15565b9050602002016020810190610dd4919061193e565b6001600160e01b0319168152602081019190915260400160002080546001600160a01b0319166001600160a01b039283161790558216848483818110610e1c57610e1c611b15565b9050602002016020810190610e31919061193e565b7bffffffffffffffffffffffffffffffffffffffffffffffffffffffff19167f14ebc1c32aa68f4d766e89f3e546cee249f7df25183fc10ab1568d91c2ce9b7b60405160405180910390a380610e8681611b41565b915050610cfa565b50505050565b610e9d336109aa565b610ee25760405162461bcd60e51b81526020600482015260226024820152600080516020611c8a83398151915260448201526134b760f11b60648201526084016102b7565b610a97828261166c565b6006546001600160a01b03163314610f345760405162461bcd60e51b815260206004820152600b60248201526a3737ba1036b0b730b3b2b960a91b60448201526064016102b7565b6006546040516000916001600160a01b0316907f697e4e68d3879b0dd3414a88905117bac8f0a54b0cd8e7779f909bf1a1cf5683908390a3600680546001600160a01b0319169055565b610f87336109aa565b610fcc5760405162461bcd60e51b81526020600482015260226024820152600080516020611c8a83398151915260448201526134b760f11b60648201526084016102b7565b6109a76000826109ea565b610fe0336109aa565b6110255760405162461bcd60e51b81526020600482015260226024820152600080516020611c8a83398151915260448201526134b760f11b60648201526084016102b7565b611030600033610a0f565b565b61103b336109aa565b6110805760405162461bcd60e51b81526020600482015260226024820152600080516020611c8a83398151915260448201526134b760f11b60648201526084016102b7565b6001600160a01b0381166110d65760405162461bcd60e51b815260206004820152601860248201527f41636365737369626c653a207a65726f2061646472657373000000000000000060448201526064016102b7565b6001600160a01b038116330361112e5760405162461bcd60e51b815260206004820152601660248201527f41636365737369626c653a2073616d652061646d696e0000000000000000000060448201526064016102b7565b6111396000826109ea565b6109a7600033610a0f565b61114d336109aa565b6111925760405162461bcd60e51b81526020600482015260226024820152600080516020611c8a83398151915260448201526134b760f11b60648201526084016102b7565b6000805460ff1916911515919091179055565b6111ae336109aa565b6111f35760405162461bcd60e51b81526020600482015260226024820152600080516020611c8a83398151915260448201526134b760f11b60648201526084016102b7565b6109388383836115e1565b6000818152600160205260408120546001600160a01b0316610948565b6001600160e01b031981166000908152600360205260408120546001600160a01b031661127b5750506000805260016020527fa6eef7e35abe7026729641147f7915573c7e97b47efa546f5f6e3230263bcb49546001600160a01b031690565b6001600160e01b031982166000908152600360209081526040808320546001600160a01b03168352600290915290205460ff16156112d957506001600160e01b0319166000908152600360205260409020546001600160a01b031690565b50506000805260016020527fa6eef7e35abe7026729641147f7915573c7e97b47efa546f5f6e3230263bcb49546001600160a01b031690565b919050565b6006546001600160a01b0316331461135f5760405162461bcd60e51b815260206004820152600b60248201526a3737ba1036b0b730b3b2b960a91b60448201526064016102b7565b6001600160a01b0381166113b55760405162461bcd60e51b815260206004820152601f60248201527f6e6577206d616e6167657220697320746865207a65726f20616464726573730060448201526064016102b7565b6006546040516001600160a01b038084169216907f697e4e68d3879b0dd3414a88905117bac8f0a54b0cd8e7779f909bf1a1cf568390600090a3600680546001600160a01b0319166001600160a01b0392909216919091179055565b60008281526005602052604090206001015461142c816114b2565b610938838361155e565b61143f336109aa565b6114845760405162461bcd60e51b81526020600482015260226024820152600080516020611c8a83398151915260448201526134b760f11b60648201526084016102b7565b6109a781611032565b60006001600160e01b03198216637965db0b60e01b14806109485750610948826116cb565b6109a78133611707565b60008281526005602090815260408083206001600160a01b038516845290915290205460ff16610a975760008281526005602090815260408083206001600160a01b03851684529091529020805460ff1916600117905561151a3390565b6001600160a01b0316816001600160a01b0316837f2f8788117e7eff1d82e926ec794901d17c78024a50270940304540a733656f0d60405160405180910390a45050565b60008281526005602090815260408083206001600160a01b038516845290915290205460ff1615610a975760008281526005602090815260408083206001600160a01b0385168085529252808320805460ff1916905551339285917ff6391f5c32d9c69d2a47ea670b442974b53935d1edc7fd64eb21e047a839171b9190a45050565b6001600160a01b0383163b6116385760405162461bcd60e51b815260206004820152601b60248201527f50726f78793a206e6f7420636f6e74726163742061646472657373000000000060448201526064016102b7565b801561166657600082815260016020526040902080546001600160a01b0319166001600160a01b0385161790555b61093883825b6001600160a01b038216600081815260026020908152604091829020805460ff191685151590811790915591519182527f72558d9bfba4210f9ef095c782589484151f6d90f7a81bb3cb9b33efc695d324910160405180910390a25050565b60006301ffc9a760e01b6001600160e01b0319831614806109485750506001600160e01b03191660009081526004602052604090205460ff1690565b60008281526005602090815260408083206001600160a01b038516845290915290205460ff16610a975761173a8161177c565b61174583602061178e565b604051602001611756929190611b7e565b60408051601f198184030181529082905262461bcd60e51b82526102b791600401611bff565b60606109486001600160a01b03831660145b6060600061179d836002611c32565b6117a8906002611c49565b67ffffffffffffffff8111156117c0576117c0611c5c565b6040519080825280601f01601f1916602001820160405280156117ea576020820181803683370190505b509050600360fc1b8160008151811061180557611805611b15565b60200101906001600160f81b031916908160001a905350600f60fb1b8160018151811061183457611834611b15565b60200101906001600160f81b031916908160001a9053506000611858846002611c32565b611863906001611c49565b90505b60018111156118e8577f303132333435363738396162636465660000000000000000000000000000000085600f16601081106118a4576118a4611b15565b1a60f81b8282815181106118ba576118ba611b15565b60200101906001600160f81b031916908160001a90535060049490941c936118e181611c72565b9050611866565b5083156119375760405162461bcd60e51b815260206004820181905260248201527f537472696e67733a20686578206c656e67746820696e73756666696369656e7460448201526064016102b7565b9392505050565b60006020828403121561195057600080fd5b81356001600160e01b03198116811461193757600080fd5b80356001600160a01b038116811461131257600080fd5b60006020828403121561199157600080fd5b61193782611968565b6000602082840312156119ac57600080fd5b5035919050565b600080604083850312156119c657600080fd5b823591506119d660208401611968565b90509250929050565b6000806000604084860312156119f457600080fd5b833567ffffffffffffffff80821115611a0c57600080fd5b818601915086601f830112611a2057600080fd5b813581811115611a2f57600080fd5b8760208260051b8501011115611a4457600080fd5b602092830195509350611a5a9186019050611968565b90509250925092565b8035801515811461131257600080fd5b60008060408385031215611a8657600080fd5b611a8f83611968565b91506119d660208401611a63565b600060208284031215611aaf57600080fd5b61193782611a63565b600080600060608486031215611acd57600080fd5b611ad684611968565b925060208401359150611a5a60408501611a63565b60008060408385031215611afe57600080fd5b611b0783611968565b91506119d660208401611968565b634e487b7160e01b600052603260045260246000fd5b634e487b7160e01b600052601160045260246000fd5b600060018201611b5357611b53611b2b565b5060010190565b60005b83811015611b75578181015183820152602001611b5d565b50506000910152565b7f416363657373436f6e74726f6c3a206163636f756e7420000000000000000000815260008351611bb6816017850160208801611b5a565b7f206973206d697373696e6720726f6c65200000000000000000000000000000006017918401918201528351611bf3816028840160208801611b5a565b01602801949350505050565b6020815260008251806020840152611c1e816040850160208701611b5a565b601f01601f19169190910160400192915050565b808202811582820484141761094857610948611b2b565b8082018082111561094857610948611b2b565b634e487b7160e01b600052604160045260246000fd5b600081611c8157611c81611b2b565b50600019019056fe41636365737369626c653a2043616c6c6572206973206e6f7420616e2061646da164736f6c6343000813000a",
  "linkReferences": {},
  "deployedLinkReferences": {}
}