{
  "_format": "hh-sol-artifact-1",
  "contractName": "CandidateAddOnFactory",
  "sourceName": "contracts/dao/factory/CandidateAddOnFactory.sol",
  "abi": [
    {
      "anonymous": false,
      "inputs": [
        {
          "indexed": false,
          "internalType": "address",
          "name": "sender",
          "type": "address"
        },
        {
          "indexed": false,
          "internalType": "address",
          "name": "layer2",
          "type": "address"
        },
        {
          "indexed": false,
          "internalType": "address",
          "name": "operator",
          "type": "address"
        },
        {
          "indexed": false,
          "internalType": "bool",
          "name": "isLayer2Candidate",
          "type": "bool"
        },
        {
          "indexed": false,
          "internalType": "string",
          "name": "name",
          "type": "string"
        },
        {
          "indexed": false,
          "internalType": "address",
          "name": "committee",
          "type": "address"
        },
        {
          "indexed": false,
          "internalType": "address",
          "name": "seigManager",
          "type": "address"
        }
      ],
      "name": "DeployedCandidate",
      "type": "event"
    },
    {
      "anonymous": false,
      "inputs": [
        {
          "indexed": true,
          "internalType": "bytes32",
          "name": "role",
          "type": "bytes32"
        },
        {
          "indexed": true,
          "internalType": "bytes32",
          "name": "previousAdminRole",
          "type": "bytes32"
        },
        {
          "indexed": true,
          "internalType": "bytes32",
          "name": "newAdminRole",
          "type": "bytes32"
        }
      ],
      "name": "RoleAdminChanged",
      "type": "event"
    },
    {
      "anonymous": false,
      "inputs": [
        {
          "indexed": true,
          "internalType": "bytes32",
          "name": "role",
          "type": "bytes32"
        },
        {
          "indexed": true,
          "internalType": "address",
          "name": "account",
          "type": "address"
        },
        {
          "indexed": true,
          "internalType": "address",
          "name": "sender",
          "type": "address"
        }
      ],
      "name": "RoleGranted",
      "type": "event"
    },
    {
      "anonymous": false,
      "inputs": [
        {
          "indexed": true,
          "internalType": "bytes32",
          "name": "role",
          "type": "bytes32"
        },
        {
          "indexed": true,
          "internalType": "address",
          "name": "account",
          "type": "address"
        },
        {
          "indexed": true,
          "internalType": "address",
          "name": "sender",
          "type": "address"
        }
      ],
      "name": "RoleRevoked",
      "type": "event"
    },
    {
      "inputs": [],
      "name": "DEFAULT_ADMIN_ROLE",
      "outputs": [
        {
          "internalType": "bytes32",
          "name": "",
          "type": "bytes32"
        }
      ],
      "stateMutability": "view",
      "type": "function"
    },
    {
      "inputs": [],
      "name": "MINTER_ROLE",
      "outputs": [
        {
          "internalType": "bytes32",
          "name": "",
          "type": "bytes32"
        }
      ],
      "stateMutability": "view",
      "type": "function"
    },
    {
      "inputs": [
        {
          "internalType": "address",
          "name": "account",
          "type": "address"
        }
      ],
      "name": "addAdmin",
      "outputs": [],
      "stateMutability": "nonpayable",
      "type": "function"
    },
    {
      "inputs": [
        {
          "internalType": "address",
          "name": "",
          "type": "address"
        }
      ],
      "name": "aliveImplementation",
      "outputs": [
        {
          "internalType": "bool",
          "name": "",
          "type": "bool"
        }
      ],
      "stateMutability": "view",
      "type": "function"
    },
    {
      "inputs": [],
      "name": "candidateAddOnImp",
      "outputs": [
        {
          "internalType": "address",
          "name": "",
          "type": "address"
        }
      ],
      "stateMutability": "view",
      "type": "function"
    },
    {
      "inputs": [],
      "name": "daoCommittee",
      "outputs": [
        {
          "internalType": "address",
          "name": "",
          "type": "address"
        }
      ],
      "stateMutability": "view",
      "type": "function"
    },
    {
      "inputs": [
        {
          "internalType": "address",
          "name": "_sender",
          "type": "address"
        },
        {
          "internalType": "string",
          "name": "_name",
          "type": "string"
        },
        {
          "internalType": "address",
          "name": "_committee",
          "type": "address"
        },
        {
          "internalType": "address",
          "name": "_seigManager",
          "type": "address"
        }
      ],
      "name": "deploy",
      "outputs": [
        {
          "internalType": "address",
          "name": "",
          "type": "address"
        }
      ],
      "stateMutability": "nonpayable",
      "type": "function"
    },
    {
      "inputs": [],
      "name": "depositManager",
      "outputs": [
        {
          "internalType": "address",
          "name": "",
          "type": "address"
        }
      ],
      "stateMutability": "view",
      "type": "function"
    },
    {
      "inputs": [
        {
          "internalType": "bytes32",
          "name": "role",
          "type": "bytes32"
        }
      ],
      "name": "getRoleAdmin",
      "outputs": [
        {
          "internalType": "bytes32",
          "name": "",
          "type": "bytes32"
        }
      ],
      "stateMutability": "view",
      "type": "function"
    },
    {
      "inputs": [
        {
          "internalType": "bytes32",
          "name": "role",
          "type": "bytes32"
        },
        {
          "internalType": "address",
          "name": "account",
          "type": "address"
        }
      ],
      "name": "grantRole",
      "outputs": [],
      "stateMutability": "nonpayable",
      "type": "function"
    },
    {
      "inputs": [
        {
          "internalType": "bytes32",
          "name": "role",
          "type": "bytes32"
        },
        {
          "internalType": "address",
          "name": "account",
          "type": "address"
        }
      ],
      "name": "hasRole",
      "outputs": [
        {
          "internalType": "bool",
          "name": "",
          "type": "bool"
        }
      ],
      "stateMutability": "view",
      "type": "function"
    },
    {
      "inputs": [
        {
          "internalType": "address",
          "name": "account",
          "type": "address"
        }
      ],
      "name": "isAdmin",
      "outputs": [
        {
          "internalType": "bool",
          "name": "",
          "type": "bool"
        }
      ],
      "stateMutability": "view",
      "type": "function"
    },
    {
      "inputs": [],
      "name": "isOwner",
      "outputs": [
        {
          "internalType": "bool",
          "name": "",
          "type": "bool"
        }
      ],
      "stateMutability": "view",
      "type": "function"
    },
    {
      "inputs": [],
      "name": "onDemandL1BridgeRegistry",
      "outputs": [
        {
          "internalType": "address",
          "name": "",
          "type": "address"
        }
      ],
      "stateMutability": "view",
      "type": "function"
    },
    {
      "inputs": [],
      "name": "pauseProxy",
      "outputs": [
        {
          "internalType": "bool",
          "name": "",
          "type": "bool"
        }
      ],
      "stateMutability": "view",
      "type": "function"
    },
    {
      "inputs": [
        {
          "internalType": "uint256",
          "name": "",
          "type": "uint256"
        }
      ],
      "name": "proxyImplementation",
      "outputs": [
        {
          "internalType": "address",
          "name": "",
          "type": "address"
        }
      ],
      "stateMutability": "view",
      "type": "function"
    },
    {
      "inputs": [
        {
          "internalType": "address",
          "name": "account",
          "type": "address"
        }
      ],
      "name": "removeAdmin",
      "outputs": [],
      "stateMutability": "nonpayable",
      "type": "function"
    },
    {
      "inputs": [],
      "name": "renounceOwnership",
      "outputs": [],
      "stateMutability": "nonpayable",
      "type": "function"
    },
    {
      "inputs": [
        {
          "internalType": "bytes32",
          "name": "role",
          "type": "bytes32"
        },
        {
          "internalType": "address",
          "name": "account",
          "type": "address"
        }
      ],
      "name": "renounceRole",
      "outputs": [],
      "stateMutability": "nonpayable",
      "type": "function"
    },
    {
      "inputs": [
        {
          "internalType": "bytes32",
          "name": "role",
          "type": "bytes32"
        },
        {
          "internalType": "address",
          "name": "account",
          "type": "address"
        }
      ],
      "name": "revokeRole",
      "outputs": [],
      "stateMutability": "nonpayable",
      "type": "function"
    },
    {
      "inputs": [
        {
          "internalType": "bytes4",
          "name": "",
          "type": "bytes4"
        }
      ],
      "name": "selectorImplementation",
      "outputs": [
        {
          "internalType": "address",
          "name": "",
          "type": "address"
        }
      ],
      "stateMutability": "view",
      "type": "function"
    },
    {
      "inputs": [
        {
          "internalType": "address",
          "name": "_depositManager",
          "type": "address"
        },
        {
          "internalType": "address",
          "name": "_daoCommittee",
          "type": "address"
        },
        {
          "internalType": "address",
          "name": "_candidateAddOnImp",
          "type": "address"
        },
        {
          "internalType": "address",
          "name": "_ton",
          "type": "address"
        },
        {
          "internalType": "address",
          "name": "_wton",
          "type": "address"
        },
        {
          "internalType": "address",
          "name": "_onDemandL1BridgeRegistry",
          "type": "address"
        }
      ],
      "name": "setAddress",
      "outputs": [],
      "stateMutability": "nonpayable",
      "type": "function"
    },
    {
      "inputs": [
        {
          "internalType": "bytes4",
          "name": "interfaceId",
          "type": "bytes4"
        }
      ],
      "name": "supportsInterface",
      "outputs": [
        {
          "internalType": "bool",
          "name": "",
          "type": "bool"
        }
      ],
      "stateMutability": "view",
      "type": "function"
    },
    {
      "inputs": [],
      "name": "ton",
      "outputs": [
        {
          "internalType": "address",
          "name": "",
          "type": "address"
        }
      ],
      "stateMutability": "view",
      "type": "function"
    },
    {
      "inputs": [
        {
          "internalType": "address",
          "name": "newAdmin",
          "type": "address"
        }
      ],
      "name": "transferAdmin",
      "outputs": [],
      "stateMutability": "nonpayable",
      "type": "function"
    },
    {
      "inputs": [
        {
          "internalType": "address",
          "name": "newAdmin",
          "type": "address"
        }
      ],
      "name": "transferOwnership",
      "outputs": [],
      "stateMutability": "nonpayable",
      "type": "function"
    },
    {
      "inputs": [],
      "name": "wton",
      "outputs": [
        {
          "internalType": "address",
          "name": "",
          "type": "address"
        }
      ],
      "stateMutability": "view",
      "type": "function"
    }
  ],
  "bytecode": "0x6080806040523461001657612e72908161001c8239f35b600080fdfe60806040818152600436101561001457600080fd5b600091823560e01c90816301ffc9a714610db757508063168d908414610d8f5780631785f53c14610d61578063248a9ca314610d3657806324d7806c14610cf15780632f2ff15d14610c4357806336568abe14610bb157806337d5af5f1461085557806350d2a27614610810578063550d01a3146107d357806363a8fd89146107b25780636c7ac9d81461078a57806370480275146106d2578063715018a6146106a957806375829def1461068d5780637debebc3146106655780638d62d9491461063d5780638f32d59b1461060957806391d14854146105c2578063a217fddf146105a8578063b911135f14610574578063cc48b9471461054c578063d539139314610512578063d547741f146104d6578063eeac9431146104ae578063f2fde38b146103505763fda725521461014b57600080fd5b3461034c5760c036600319011261034c57610164610e32565b9061016d610e48565b90610176610e5e565b9161017f610e74565b936001600160a01b03936084358581169491908590036103475760a435968688168098036103475786908980526005602052838a20336000526020526101cb60ff85600020541661141d565b16938415158061033e575b80610333575b80610328575b8061031d575b80610314575b156102ea576009549285888516148015906102dc575b80156102cc575b80156102bc575b80156102ac575b801561029e575b156102745750908680926bffffffffffffffffffffffff60a01b988996168660065416176006551684600754161760075516826008541617600855161760095581600a541617600a55600b541617600b5580f35b6064905162461bcd60e51b815260206004820152600460248201526373616d6560e01b6044820152fd5b508888600b54161415610220565b5087600854168884161415610219565b5087600754168883161415610212565b508760065416888616141561020b565b508688600a54161415610204565b6064835162461bcd60e51b81526020600482015260046024820152637a65726f60e01b6044820152fd5b508715156101ee565b5086821615156101e8565b5086811615156101e2565b5086841615156101dc565b508515156101d6565b600080fd5b5080fd5b503461034c57602090816003193601126104aa5761036c610e32565b61037d61037833610ed6565b61141d565b61038961037833610ed6565b6001600160a01b03169182156104685782331461042d57838052600581526103b660018386200154610f13565b8380526005815281842083600052815260ff826000205416156103e1575b836103de33611291565b80f35b838052600581528184206000848152915220805460ff191660011790553390827f2f8788117e7eff1d82e926ec794901d17c78024a50270940304540a733656f0d8180a43880806103d4565b606491519062461bcd60e51b82526004820152601660248201527520b1b1b2b9b9b4b136329d1039b0b6b29030b236b4b760511b6044820152fd5b606491519062461bcd60e51b82526004820152601860248201527f41636365737369626c653a207a65726f206164647265737300000000000000006044820152fd5b8280fd5b503461034c578160031936011261034c5760075490516001600160a01b039091168152602090f35b503461034c578060031936011261034c576103de9060043561050d60016104fb610e48565b93838752600560205286200154610f13565b611380565b503461034c578160031936011261034c57602090517ff0887ba65ee2024ea881d91b74c2450ef19e1557f03bed3ea9f16b037cbe2dc98152f35b503461034c578160031936011261034c5760095490516001600160a01b039091168152602090f35b503461034c57602036600319011261034c57600435825260016020908152918190205490516001600160a01b039091168152f35b503461034c578160031936011261034c5751908152602090f35b503461034c578060031936011261034c57602091816105df610e48565b91600435815260058552209060018060a01b0316600052825260ff81600020541690519015158152f35b503461034c578160031936011261034c5780828060209452600584522033600052825260ff81600020541690519015158152f35b503461034c578160031936011261034c57600a5490516001600160a01b039091168152602090f35b503461034c578160031936011261034c5760085490516001600160a01b039091168152602090f35b503461034c57602090816003193601126104aa5761037d610e32565b82346106cf57806003193601126106cf576106c661037833610ed6565b6103de33611291565b80fd5b503461034c57602090816003193601126104aa576106ee610e32565b916106fb61037833610ed6565b8380526005815261071160018386200154610f13565b838052600581528184206001600160a01b039093166000818152938252928290205460ff161561073f578380f35b838052600581528184206000848152915220805460ff191660011790553390827f2f8788117e7eff1d82e926ec794901d17c78024a50270940304540a733656f0d8180a43880808380f35b503461034c578160031936011261034c5760065490516001600160a01b039091168152602090f35b503461034c578160031936011261034c5760ff602092541690519015158152f35b503461034c57602036600319011261034c5760209160ff9082906001600160a01b036107fd610e32565b1681526002855220541690519015158152f35b503461034c57602036600319011261034c5760043563ffffffff60e01b81168091036104aa57825260036020908152918190205490516001600160a01b039091168152f35b503461034c57608036600319011261034c5761086f610e32565b916024359167ffffffffffffffff8084116104aa57366023850112156104aa57836004013594818611610b9d578251956020956108b5601f8301601f1916880189610eb4565b8188523660248383010111610b99578186926024899301838b0137880101526108dc610e5e565b6108e4610e74565b6007546001600160a01b039490851633819003610b555785841603610b18578551906119f180830191821183831017610b04579082916114758339039087f08015610afa578416958615610ab6578460085416873b1561034c57865190631b2ce7f360e11b825260048201528181602481838c5af18015610a8957610aa7575b5084600954169185600a5416883b156104aa576109a98b889385938b51958694859463020db00b60e41b8652828d16600487015260c0602487015260c486019061126c565b92818b1660448601521697886064850152608484015260a48301520381838c5af18015610a8957908291610a93575b5050863b156106cf5785516375829def60e01b815283861660048201528181602481838c5af18015610a8957610a75575b505083610a60869798997f3c4e602fb3d18b5678f3527dd1dff51d81f491ffb83393cef8fa3a3597a4c058975196868189981688528b8d89015216898701526001606087015260e0608087015260e086019061126c565b921660a084015260c08301520390a151908152f35b610a7f8291610e8a565b6106cf5780610a09565b87513d84823e3d90fd5b610a9c90610e8a565b6106cf5780386109d8565b610ab090610e8a565b38610964565b855162461bcd60e51b815260048101899052601860248201527f7a65726f2043616e6469646174654164644f6e50726f787900000000000000006044820152606490fd5b85513d88823e3d90fd5b634e487b7160e01b89526041600452602489fd5b855162461bcd60e51b8152600481018990526016602482015275646966666572656e742064616f436f6d6d697474656560501b6044820152606490fd5b865162461bcd60e51b8152600481018a9052601a60248201527f73656e646572206973206e6f742064616f436f6d6d69747465650000000000006044820152606490fd5b8580fd5b634e487b7160e01b84526041600452602484fd5b503461034c578060031936011261034c57610bca610e48565b90336001600160a01b03831603610be857506103de90600435611380565b5162461bcd60e51b815260206004820152602f60248201527f416363657373436f6e74726f6c3a2063616e206f6e6c792072656e6f756e636560448201526e103937b632b9903337b91039b2b63360891b6064820152608490fd5b503461034c578060031936011261034c5760043590610c60610e48565b908284526005602052610c7860018286200154610f13565b828452600560209081528185206001600160a01b039093168086529290528084205460ff1615610ca6578380f35b82845260056020528084208285526020528320600160ff1982541617905533917f2f8788117e7eff1d82e926ec794901d17c78024a50270940304540a733656f0d8480a43880808380f35b503461034c57602036600319011261034c5760ff81602093610d11610e32565b818052600586528282206001600160a01b039091168252855220549151911615158152f35b503461034c57602036600319011261034c576001816020936004358152600585522001549051908152f35b82346106cf5760203660031901126106cf576103de610d7e610e32565b610d8a61037833610ed6565b611291565b503461034c578160031936011261034c57600b5490516001600160a01b039091168152602090f35b905082346106cf5760203660031901126106cf5760043563ffffffff60e01b811680910361034c57602093637965db0b60e01b8214928315610dfd575b50505015158152f35b6301ffc9a760e01b8314935090918315610e1d575b505050838080610df4565b60ff9350815260048552205416838080610e12565b600435906001600160a01b038216820361034757565b602435906001600160a01b038216820361034757565b604435906001600160a01b038216820361034757565b606435906001600160a01b038216820361034757565b67ffffffffffffffff8111610e9e57604052565b634e487b7160e01b600052604160045260246000fd5b90601f8019910116810190811067ffffffffffffffff821117610e9e57604052565b6001600160a01b031660009081527f05b8ccbb9d4d8fb16ea74ce3c29a41f1b461fbdaff4714a0d9a8eb05499746bc602052604090205460ff1690565b60009080825260209060058252604092838120338252835260ff848220541615610f3d5750505050565b83519167ffffffffffffffff90336060850183811186821017611235578752602a85528585019187368437855115611221576030835385519160019283101561120d576078602188015360295b8381116111a35750611161579087519360808501908582109082111761114d57885260428452868401946060368737845115611139576030865384518210156111395790607860218601536041915b8183116110cb57505050611089576110859386936110699361105a6048946110319a519a8b957f416363657373436f6e74726f6c3a206163636f756e74200000000000000000008c8801525180926037880190611249565b8401917001034b99036b4b9b9b4b733903937b6329607d1b603784015251809386840190611249565b01036028810187520185610eb4565b5192839262461bcd60e51b84526004840152602483019061126c565b0390fd5b60648587519062461bcd60e51b825280600483015260248201527f537472696e67733a20686578206c656e67746820696e73756666696369656e746044820152fd5b909192600f81166010811015611125576f181899199a1a9b1b9c1cb0b131b232b360811b901a6110fb85886113f6565b5360041c92801561111157600019019190610fd9565b634e487b7160e01b82526011600452602482fd5b634e487b7160e01b83526032600452602483fd5b634e487b7160e01b81526032600452602490fd5b634e487b7160e01b86526041600452602486fd5b60648789519062461bcd60e51b825280600483015260248201527f537472696e67733a20686578206c656e67746820696e73756666696369656e746044820152fd5b90600f811660108110156111f9576f181899199a1a9b1b9c1cb0b131b232b360811b901a6111d1838a6113f6565b5360041c9080156111e55760001901610f8a565b634e487b7160e01b87526011600452602487fd5b634e487b7160e01b88526032600452602488fd5b634e487b7160e01b86526032600452602486fd5b634e487b7160e01b85526032600452602485fd5b634e487b7160e01b85526041600452602485fd5b60005b83811061125c5750506000910152565b818101518382015260200161124c565b9060209161128581518092818552858086019101611249565b601f01601f1916010190565b6001600160a01b03163381036113235760008181527f05b8ccbb9d4d8fb16ea74ce3c29a41f1b461fbdaff4714a0d9a8eb05499746bc602052604081205490919060ff166112dd575050565b8180526005602052604082208183526020526040822060ff19815416905533917ff6391f5c32d9c69d2a47ea670b442974b53935d1edc7fd64eb21e047a839171b8180a4565b60405162461bcd60e51b815260206004820152602f60248201527f416363657373436f6e74726f6c3a2063616e206f6e6c792072656e6f756e636560448201526e103937b632b9903337b91039b2b63360891b6064820152608490fd5b906000918083526005602052604083209160018060a01b03169182845260205260ff6040842054166113b157505050565b8083526005602052604083208284526020526040832060ff1981541690557ff6391f5c32d9c69d2a47ea670b442974b53935d1edc7fd64eb21e047a839171b339380a4565b908151811015611407570160200190565b634e487b7160e01b600052603260045260246000fd5b1561142457565b60405162461bcd60e51b815260206004820152602260248201527f41636365737369626c653a2043616c6c6572206973206e6f7420616e2061646d60448201526134b760f11b6064820152608490fdfe6080806040523461009e573360009081527f05b8ccbb9d4d8fb16ea74ce3c29a41f1b461fbdaff4714a0d9a8eb05499746bc602052604081205460ff161561004f575b5061194d90816100a48239f35b80805260056020526040812033825260205260408120600160ff19825416179055339033907f2f8788117e7eff1d82e926ec794901d17c78024a50270940304540a733656f0d8180a438610042565b600080fdfe60806040526004361015610018575b366117995761175d565b60003560e01c806301ffc9a7146102335780631785f53c1461022e578063248a9ca31461022957806324d7806c146102245780632f2ff15d1461021f57806336568abe1461021a5780633659cfe6146102155780634a5df50f1461021057806350d2a2761461020b578063550d01a31461020657806358c3b870146102015780635c60da1b146101fc5780635cc797d8146101f757806363a8fd89146101f25780636c8381f8146101ed5780636fb7f558146101e857806370480275146101e3578063715018a6146101de57806375829def146101d95780637cb00d25146101d45780637cd5f663146101cf5780638b8f4a65146101ac5780638d4fdb40146101ca5780638d62d949146101c55780638f32d59b146101c057806391d14854146101bb5780639b638268146101b6578063a217fddf146101b1578063b911135f146101ac578063cc48b947146101a7578063d5391393146101a2578063d547741f1461019d578063d864e740146101985763f2fde38b0361000e57611011565b610fe8565b610fa9565b610f6e565b610f45565b610df3565b610f29565b610f06565b610ec0565b610e89565b610e60565b610e27565b610d19565b610cc1565b610bfa565b610bd4565b610ae8565b610abf565b610a92565b610a6f565b610a18565b6109e7565b6108db565b610810565b6107ca565b6105e2565b610502565b610470565b6103a7565b610357565b610328565b6102f4565b61024f565b6001600160e01b031981160361024a57565b600080fd5b3461024a57602036600319011261024a5760043561026c81610238565b6001600160e01b031916637965db0b60e01b81148015610294575b6020906040519015158152f35b506301ffc9a760e01b811480156102af575b60209150610287565b506000526004602052602060ff604060002054166102a6565b600435906001600160a01b038216820361024a57565b602435906001600160a01b038216820361024a57565b3461024a57602036600319011261024a576103266103106102c8565b61032161031c33611032565b611520565b611278565b005b3461024a57602036600319011261024a5760043560005260056020526020600160406000200154604051908152f35b3461024a57602036600319011261024a57602060ff61039b6103776102c8565b600080526005845260406000209060018060a01b0316600052602052604060002090565b54166040519015158152f35b3461024a57604036600319011261024a576004356103c36102de565b60009180835260056020526103de6001604085200154611120565b8083526005602090815260408085206001600160a01b0385166000908152925290205460ff161561040d578280f35b8083526005602090815260408085206001600160a01b038516600090815292529020805460ff1916600117905533916001600160a01b0316907f2f8788117e7eff1d82e926ec794901d17c78024a50270940304540a733656f0d8480a438808280f35b3461024a57604036600319011261024a576104896102de565b336001600160a01b038216036104a55761032690600435611315565b60405162461bcd60e51b815260206004820152602f60248201527f416363657373436f6e74726f6c3a2063616e206f6e6c792072656e6f756e636560448201526e103937b632b9903337b91039b2b63360891b6064820152608490fd5b3461024a57602036600319011261024a5761051b6102c8565b336000908152600080516020611921833981519152602052604081209091906105499060ff905b5416611520565b6001600160a01b0381169081156105ad57828052600160205260408320546105869190610581906001600160a01b0316841415611577565b611834565b7fbc7cd75a20ee27fd9adebab32041f755214dbc6bffa90cc0225b39da2e5c2d3b8280a280f35b60405162461bcd60e51b815260206004820152600d60248201526c696e707574206973207a65726f60981b6044820152606490fd5b3461024a57604036600319011261024a5767ffffffffffffffff60043581811161024a573660238201121561024a57806004013591821161024a576024810190602436918460051b01011161024a576106396102de565b336000908152600080516020611921833981519152602052604081209093906106649060ff90610542565b80156107865761069a61069561068e84959460018060a01b03166000526002602052604060002090565b5460ff1690565b6115af565b6001600160a01b03928084169290855b8381106106b5578680f35b8061070586886106fd6106f06106d76106d2610781988c8c61160a565b61161a565b63ffffffff60e01b166000526003602052604060002090565b546001600160a01b031690565b161415611624565b6107398361071a6106d76106d2858a8a61160a565b80546001600160a01b0319166001600160a01b03909216919091179055565b8561075861074b6106d284898961160a565b6001600160e01b03191690565b7f14ebc1c32aa68f4d766e89f3e546cee249f7df25183fc10ab1568d91c2ce9b7b8a80a36115fb565b6106aa565b606460405162461bcd60e51b815260206004820152602060248201527f50726f78793a205f73656c6563746f727327732073697a65206973207a65726f6044820152fd5b3461024a57602036600319011261024a576004356107e781610238565b63ffffffff60e01b166000526003602052602060018060a01b0360406000205416604051908152f35b3461024a57602036600319011261024a576001600160a01b036108316102c8565b166000526002602052602060ff604060002054166040519015158152f35b634e487b7160e01b600052604160045260246000fd5b90601f8019910116810190811067ffffffffffffffff82111761088757604052565b61084f565b60005b83811061089f5750506000910152565b818101518382015260200161088f565b604091602082526108cf815180928160208601526020868601910161088c565b601f01601f1916010190565b3461024a576000806003193601126109e45760405190806008549060019180831c928082169283156109da575b60209283861085146109c65785885260208801949081156109a5575060011461094c575b6109488761093c81890382610865565b604051918291826108af565b0390f35b600860005294509192917ff3f7a9fe364faab93b216da50a3214154f22a0a2b415b23a84c8169e8b636ee35b838610610994575050509101905061093c82610948388061092c565b805485870152948201948101610978565b60ff191685525050505090151560051b01905061093c82610948388061092c565b634e487b7160e01b82526022600452602482fd5b93607f1693610908565b80fd5b3461024a576000806003193601126109e45780806020925260018252604060018060a01b0391205416604051908152f35b3461024a57604036600319011261024a57610a316102c8565b602435801515810361024a57336000908152600080516020611921833981519152602052604090206103269290610a6a9060ff90610542565b6118cc565b3461024a57600036600319011261024a57602060ff600054166040519015158152f35b3461024a57600036600319011261024a5760075460405160089190911c6001600160a01b03168152602090f35b3461024a57600036600319011261024a57600a546040516001600160a01b039091168152602090f35b3461024a57602036600319011261024a57610b016102c8565b610b0d61031c33611032565b600080805260056020527f05b8ccbb9d4d8fb16ea74ce3c29a41f1b461fbdaff4714a0d9a8eb05499746bd54909190610b4590611120565b8180526005602090815260408084206001600160a01b0384166000908152925290205460ff1615610b74575080f35b8180526005602090815260408084206001600160a01b038416600090815292529020805460ff1916600117905533906001600160a01b0316827f2f8788117e7eff1d82e926ec794901d17c78024a50270940304540a733656f0d8180a480f35b3461024a57600036600319011261024a57610bf161031c33611032565b61032633611278565b3461024a57602036600319011261024a57610c136102c8565b610c1f61031c33611032565b6001600160a01b0381168015610c7c573314610c3e57610bf19061105d565b60405162461bcd60e51b815260206004820152601660248201527520b1b1b2b9b9b4b136329d1039b0b6b29030b236b4b760511b6044820152606490fd5b60405162461bcd60e51b815260206004820152601860248201527f41636365737369626c653a207a65726f206164647265737300000000000000006044820152606490fd5b3461024a57602036600319011261024a5760043580151580910361024a5733600090815260008051602061192183398151915260205260408120909190610d0a9060ff90610542565b60ff8019835416911617815580f35b3461024a57606036600319011261024a57610d326102c8565b60443590811515820361024a5733600090815260008051602061192183398151915260205260408120909290610d6a9060ff90610542565b813b15610dae57610d7f9181610d82576118cc565b80f35b602435845260016020526040842080546001600160a01b0319166001600160a01b0383161790556118cc565b60405162461bcd60e51b815260206004820152601b60248201527f50726f78793a206e6f7420636f6e7472616374206164647265737300000000006044820152606490fd5b3461024a57602036600319011261024a576004356000526001602052602060018060a01b0360406000205416604051908152f35b3461024a57602036600319011261024a576020610e4e600435610e4981610238565b611670565b6040516001600160a01b039091168152f35b3461024a57600036600319011261024a57600c546040516001600160a01b039091168152602090f35b3461024a576000806003193601126109e457808052600560209081526040918290203360009081529082529190912060ff9061039b565b3461024a57604036600319011261024a57602060ff61039b610ee06102de565b6004356000526005845260406000209060018060a01b0316600052602052604060002090565b3461024a57600036600319011261024a57602060ff600754166040519015158152f35b3461024a57600036600319011261024a57602060405160008152f35b3461024a57600036600319011261024a57600b546040516001600160a01b039091168152602090f35b3461024a57600036600319011261024a5760206040517ff0887ba65ee2024ea881d91b74c2450ef19e1557f03bed3ea9f16b037cbe2dc98152f35b3461024a57604036600319011261024a57610326600435610fc86102de565b90806000526005602052610fe3600160406000200154611120565b611315565b3461024a57600036600319011261024a576009546040516001600160a01b039091168152602090f35b3461024a57602036600319011261024a5761102a6102c8565b610c1361031c335b6001600160a01b03166000908152600080516020611921833981519152602052604090205460ff1690565b600080805260056020527f05b8ccbb9d4d8fb16ea74ce3c29a41f1b461fbdaff4714a0d9a8eb05499746bd5461109290611120565b8080526005602090815260408083206001600160a01b0385166000908152925290205460ff16156110c1575050565b8080526005602090815260408083206001600160a01b038516600090815292529020805460ff1916600117905533916001600160a01b0316907f2f8788117e7eff1d82e926ec794901d17c78024a50270940304540a733656f0d8180a4565b600081815260056020908152604080832033845290915290205460ff16156111455750565b339061114f6113be565b91603061115b84611401565b5360786111678461140e565b5360295b6001811161121a576112166111d36111fe866111f06111938861118e8915611441565b61148c565b6111cd6040519586946111cd602087016017907f416363657373436f6e74726f6c3a206163636f756e742000000000000000000081520190565b90611261565b7001034b99036b4b9b9b4b733903937b6329607d1b815260110190565b03601f198101835282610865565b60405162461bcd60e51b8152918291600483016108af565b0390fd5b90600f811690601082101561125c57611257916f181899199a1a9b1b9c1cb0b131b232b360811b901a61124d848761141e565b5360041c9161142f565b61116b565b6113eb565b906112746020928281519485920161088c565b0190565b6001600160a01b0381163381036104a5576001600160a01b0382166000908152600080516020611921833981519152602052604081205490929060ff166112be57505050565b6112e5908380526005602052604084209060018060a01b0316600052602052604060002090565b805460ff1916905533917ff6391f5c32d9c69d2a47ea670b442974b53935d1edc7fd64eb21e047a839171b8180a4565b600090808252600560205260ff61134184604085209060018060a01b0316600052602052604060002090565b541661134c57505050565b8082526005602090815260408084206001600160a01b038616600090815292529020805460ff1916905533926001600160a01b0316917ff6391f5c32d9c69d2a47ea670b442974b53935d1edc7fd64eb21e047a839171b9080a4565b634e487b7160e01b600052601160045260246000fd5b604051906060820182811067ffffffffffffffff82111761088757604052602a8252604082602036910137565b634e487b7160e01b600052603260045260246000fd5b80511561125c5760200190565b80516001101561125c5760210190565b90815181101561125c570160200190565b801561143c576000190190565b6113a8565b1561144857565b606460405162461bcd60e51b815260206004820152602060248201527f537472696e67733a20686578206c656e67746820696e73756666696369656e746044820152fd5b604051906080820182811067ffffffffffffffff8211176108875760405260428252606036602084013760306114c183611401565b5360786114cd8361140e565b536041905b600182116114e8576114e5915015611441565b90565b600f811690601082101561125c5761151a916f181899199a1a9b1b9c1cb0b131b232b360811b901a61124d848661141e565b906114d2565b1561152757565b60405162461bcd60e51b815260206004820152602260248201527f41636365737369626c653a2043616c6c6572206973206e6f7420616e2061646d60448201526134b760f11b6064820152608490fd5b1561157e57565b60405162461bcd60e51b815260206004820152600960248201526839b0b6b29030b2323960b91b6044820152606490fd5b156115b657565b60405162461bcd60e51b815260206004820152601860248201527f50726f78793a205f696d70206973206e6f7420616c69766500000000000000006044820152606490fd5b600019811461143c5760010190565b919081101561125c5760051b0190565b356114e581610238565b1561162b57565b60405162461bcd60e51b815260206004820152601d60248201527f4c69717569646974795661756c7450726f78793a2073616d6520696d700000006044820152606490fd5b6001600160e01b031981166000908152600360205260409020546001600160a01b03919082166116ca57506000805260016020527fa6eef7e35abe7026729641147f7915573c7e97b47efa546f5f6e3230263bcb49541690565b60ff611709836116ed8463ffffffff60e01b166000526003602052604060002090565b54166001600160a01b0316600090815260026020526040902090565b54161561172d576001600160e01b0319166000908152600360205260409020541690565b506000805260016020527fa6eef7e35abe7026729641147f7915573c7e97b47efa546f5f6e3230263bcb49541690565b60405162461bcd60e51b815260206004820152601460248201527331b0b73737ba103932b1b2b4bb329022ba3432b960611b6044820152606490fd5b60006117af81356001600160e01b031916611670565b6001600160a01b038116151580611828575b156117e357818091368280378136915af43d82803e156117df573d90f35b3d90fd5b60405162461bcd60e51b815260206004820152601d60248201527f50726f78793a20696d706c204f522070726f78792069732066616c73650000006044820152606490fd5b5060ff825416156117c1565b803b15610dae576000805260016020527fa6eef7e35abe7026729641147f7915573c7e97b47efa546f5f6e3230263bcb4980546001600160a01b0319166001600160a01b03831617905560018060a01b03168060005260026020526040600020600160ff198254161790557f72558d9bfba4210f9ef095c782589484151f6d90f7a81bb3cb9b33efc695d324602060405160018152a2565b60207f72558d9bfba4210f9ef095c782589484151f6d90f7a81bb3cb9b33efc695d3249160018060a01b031692836000526002825260406000209015159060ff1981541660ff8316179055604051908152a256fe05b8ccbb9d4d8fb16ea74ce3c29a41f1b461fbdaff4714a0d9a8eb05499746bca164736f6c6343000813000aa164736f6c6343000813000a",
  "linkReferences": {},
  "deployedLinkReferences": {}
}