{
  "_format": "hh-sol-artifact-1",
  "contractName": "Layer2CandidateFactoryProxy",
  "sourceName": "contracts/dao/factory/Layer2CandidateFactoryProxy.sol",
  "abi": [
    {
      "anonymous": false,
      "inputs": [
        {
          "indexed": true,
          "internalType": "bytes32",
          "name": "role",
          "type": "bytes32"
        },
        {
          "indexed": true,
          "internalType": "bytes32",
          "name": "previousAdminRole",
          "type": "bytes32"
        },
        {
          "indexed": true,
          "internalType": "bytes32",
          "name": "newAdminRole",
          "type": "bytes32"
        }
      ],
      "name": "RoleAdminChanged",
      "type": "event"
    },
    {
      "anonymous": false,
      "inputs": [
        {
          "indexed": true,
          "internalType": "bytes32",
          "name": "role",
          "type": "bytes32"
        },
        {
          "indexed": true,
          "internalType": "address",
          "name": "account",
          "type": "address"
        },
        {
          "indexed": true,
          "internalType": "address",
          "name": "sender",
          "type": "address"
        }
      ],
      "name": "RoleGranted",
      "type": "event"
    },
    {
      "anonymous": false,
      "inputs": [
        {
          "indexed": true,
          "internalType": "bytes32",
          "name": "role",
          "type": "bytes32"
        },
        {
          "indexed": true,
          "internalType": "address",
          "name": "account",
          "type": "address"
        },
        {
          "indexed": true,
          "internalType": "address",
          "name": "sender",
          "type": "address"
        }
      ],
      "name": "RoleRevoked",
      "type": "event"
    },
    {
      "anonymous": false,
      "inputs": [
        {
          "indexed": true,
          "internalType": "address",
          "name": "impl",
          "type": "address"
        },
        {
          "indexed": false,
          "internalType": "bool",
          "name": "alive",
          "type": "bool"
        }
      ],
      "name": "SetAliveImplementation",
      "type": "event"
    },
    {
      "anonymous": false,
      "inputs": [
        {
          "indexed": true,
          "internalType": "bytes4",
          "name": "selector",
          "type": "bytes4"
        },
        {
          "indexed": true,
          "internalType": "address",
          "name": "impl",
          "type": "address"
        }
      ],
      "name": "SetSelectorImplementation",
      "type": "event"
    },
    {
      "anonymous": false,
      "inputs": [
        {
          "indexed": true,
          "internalType": "address",
          "name": "implementation",
          "type": "address"
        }
      ],
      "name": "Upgraded",
      "type": "event"
    },
    {
      "stateMutability": "payable",
      "type": "fallback"
    },
    {
      "inputs": [],
      "name": "DEFAULT_ADMIN_ROLE",
      "outputs": [
        {
          "internalType": "bytes32",
          "name": "",
          "type": "bytes32"
        }
      ],
      "stateMutability": "view",
      "type": "function"
    },
    {
      "inputs": [],
      "name": "MINTER_ROLE",
      "outputs": [
        {
          "internalType": "bytes32",
          "name": "",
          "type": "bytes32"
        }
      ],
      "stateMutability": "view",
      "type": "function"
    },
    {
      "inputs": [
        {
          "internalType": "address",
          "name": "account",
          "type": "address"
        }
      ],
      "name": "addAdmin",
      "outputs": [],
      "stateMutability": "nonpayable",
      "type": "function"
    },
    {
      "inputs": [
        {
          "internalType": "address",
          "name": "",
          "type": "address"
        }
      ],
      "name": "aliveImplementation",
      "outputs": [
        {
          "internalType": "bool",
          "name": "",
          "type": "bool"
        }
      ],
      "stateMutability": "view",
      "type": "function"
    },
    {
      "inputs": [],
      "name": "daoCommittee",
      "outputs": [
        {
          "internalType": "address",
          "name": "",
          "type": "address"
        }
      ],
      "stateMutability": "view",
      "type": "function"
    },
    {
      "inputs": [],
      "name": "depositManager",
      "outputs": [
        {
          "internalType": "address",
          "name": "",
          "type": "address"
        }
      ],
      "stateMutability": "view",
      "type": "function"
    },
    {
      "inputs": [
        {
          "internalType": "bytes32",
          "name": "role",
          "type": "bytes32"
        }
      ],
      "name": "getRoleAdmin",
      "outputs": [
        {
          "internalType": "bytes32",
          "name": "",
          "type": "bytes32"
        }
      ],
      "stateMutability": "view",
      "type": "function"
    },
    {
      "inputs": [
        {
          "internalType": "bytes4",
          "name": "_selector",
          "type": "bytes4"
        }
      ],
      "name": "getSelectorImplementation2",
      "outputs": [
        {
          "internalType": "address",
          "name": "impl",
          "type": "address"
        }
      ],
      "stateMutability": "view",
      "type": "function"
    },
    {
      "inputs": [
        {
          "internalType": "bytes32",
          "name": "role",
          "type": "bytes32"
        },
        {
          "internalType": "address",
          "name": "account",
          "type": "address"
        }
      ],
      "name": "grantRole",
      "outputs": [],
      "stateMutability": "nonpayable",
      "type": "function"
    },
    {
      "inputs": [
        {
          "internalType": "bytes32",
          "name": "role",
          "type": "bytes32"
        },
        {
          "internalType": "address",
          "name": "account",
          "type": "address"
        }
      ],
      "name": "hasRole",
      "outputs": [
        {
          "internalType": "bool",
          "name": "",
          "type": "bool"
        }
      ],
      "stateMutability": "view",
      "type": "function"
    },
    {
      "inputs": [],
      "name": "implementation",
      "outputs": [
        {
          "internalType": "address",
          "name": "",
          "type": "address"
        }
      ],
      "stateMutability": "view",
      "type": "function"
    },
    {
      "inputs": [
        {
          "internalType": "uint256",
          "name": "_index",
          "type": "uint256"
        }
      ],
      "name": "implementation2",
      "outputs": [
        {
          "internalType": "address",
          "name": "",
          "type": "address"
        }
      ],
      "stateMutability": "view",
      "type": "function"
    },
    {
      "inputs": [
        {
          "internalType": "address",
          "name": "account",
          "type": "address"
        }
      ],
      "name": "isAdmin",
      "outputs": [
        {
          "internalType": "bool",
          "name": "",
          "type": "bool"
        }
      ],
      "stateMutability": "view",
      "type": "function"
    },
    {
      "inputs": [],
      "name": "isOwner",
      "outputs": [
        {
          "internalType": "bool",
          "name": "",
          "type": "bool"
        }
      ],
      "stateMutability": "view",
      "type": "function"
    },
    {
      "inputs": [],
      "name": "layer2CandidateImp",
      "outputs": [
        {
          "internalType": "address",
          "name": "",
          "type": "address"
        }
      ],
      "stateMutability": "view",
      "type": "function"
    },
    {
      "inputs": [],
      "name": "onDemandL1BridgeRegistry",
      "outputs": [
        {
          "internalType": "address",
          "name": "",
          "type": "address"
        }
      ],
      "stateMutability": "view",
      "type": "function"
    },
    {
      "inputs": [],
      "name": "pauseProxy",
      "outputs": [
        {
          "internalType": "bool",
          "name": "",
          "type": "bool"
        }
      ],
      "stateMutability": "view",
      "type": "function"
    },
    {
      "inputs": [
        {
          "internalType": "uint256",
          "name": "",
          "type": "uint256"
        }
      ],
      "name": "proxyImplementation",
      "outputs": [
        {
          "internalType": "address",
          "name": "",
          "type": "address"
        }
      ],
      "stateMutability": "view",
      "type": "function"
    },
    {
      "inputs": [
        {
          "internalType": "address",
          "name": "account",
          "type": "address"
        }
      ],
      "name": "removeAdmin",
      "outputs": [],
      "stateMutability": "nonpayable",
      "type": "function"
    },
    {
      "inputs": [],
      "name": "renounceOwnership",
      "outputs": [],
      "stateMutability": "nonpayable",
      "type": "function"
    },
    {
      "inputs": [
        {
          "internalType": "bytes32",
          "name": "role",
          "type": "bytes32"
        },
        {
          "internalType": "address",
          "name": "account",
          "type": "address"
        }
      ],
      "name": "renounceRole",
      "outputs": [],
      "stateMutability": "nonpayable",
      "type": "function"
    },
    {
      "inputs": [
        {
          "internalType": "bytes32",
          "name": "role",
          "type": "bytes32"
        },
        {
          "internalType": "address",
          "name": "account",
          "type": "address"
        }
      ],
      "name": "revokeRole",
      "outputs": [],
      "stateMutability": "nonpayable",
      "type": "function"
    },
    {
      "inputs": [
        {
          "internalType": "bytes4",
          "name": "",
          "type": "bytes4"
        }
      ],
      "name": "selectorImplementation",
      "outputs": [
        {
          "internalType": "address",
          "name": "",
          "type": "address"
        }
      ],
      "stateMutability": "view",
      "type": "function"
    },
    {
      "inputs": [
        {
          "internalType": "address",
          "name": "newImplementation",
          "type": "address"
        },
        {
          "internalType": "bool",
          "name": "_alive",
          "type": "bool"
        }
      ],
      "name": "setAliveImplementation2",
      "outputs": [],
      "stateMutability": "nonpayable",
      "type": "function"
    },
    {
      "inputs": [
        {
          "internalType": "address",
          "name": "newImplementation",
          "type": "address"
        },
        {
          "internalType": "uint256",
          "name": "_index",
          "type": "uint256"
        },
        {
          "internalType": "bool",
          "name": "_alive",
          "type": "bool"
        }
      ],
      "name": "setImplementation2",
      "outputs": [],
      "stateMutability": "nonpayable",
      "type": "function"
    },
    {
      "inputs": [
        {
          "internalType": "bool",
          "name": "_pause",
          "type": "bool"
        }
      ],
      "name": "setProxyPause",
      "outputs": [],
      "stateMutability": "nonpayable",
      "type": "function"
    },
    {
      "inputs": [
        {
          "internalType": "bytes4[]",
          "name": "_selectors",
          "type": "bytes4[]"
        },
        {
          "internalType": "address",
          "name": "_imp",
          "type": "address"
        }
      ],
      "name": "setSelectorImplementations2",
      "outputs": [],
      "stateMutability": "nonpayable",
      "type": "function"
    },
    {
      "inputs": [
        {
          "internalType": "bytes4",
          "name": "interfaceId",
          "type": "bytes4"
        }
      ],
      "name": "supportsInterface",
      "outputs": [
        {
          "internalType": "bool",
          "name": "",
          "type": "bool"
        }
      ],
      "stateMutability": "view",
      "type": "function"
    },
    {
      "inputs": [],
      "name": "ton",
      "outputs": [
        {
          "internalType": "address",
          "name": "",
          "type": "address"
        }
      ],
      "stateMutability": "view",
      "type": "function"
    },
    {
      "inputs": [
        {
          "internalType": "address",
          "name": "newAdmin",
          "type": "address"
        }
      ],
      "name": "transferAdmin",
      "outputs": [],
      "stateMutability": "nonpayable",
      "type": "function"
    },
    {
      "inputs": [
        {
          "internalType": "address",
          "name": "newAdmin",
          "type": "address"
        }
      ],
      "name": "transferOwnership",
      "outputs": [],
      "stateMutability": "nonpayable",
      "type": "function"
    },
    {
      "inputs": [
        {
          "internalType": "address",
          "name": "impl",
          "type": "address"
        }
      ],
      "name": "upgradeTo",
      "outputs": [],
      "stateMutability": "nonpayable",
      "type": "function"
    },
    {
      "inputs": [],
      "name": "wton",
      "outputs": [
        {
          "internalType": "address",
          "name": "",
          "type": "address"
        }
      ],
      "stateMutability": "view",
      "type": "function"
    },
    {
      "stateMutability": "payable",
      "type": "receive"
    }
  ],
  "bytecode": "0x6080806040523461009e573360009081527f05b8ccbb9d4d8fb16ea74ce3c29a41f1b461fbdaff4714a0d9a8eb05499746bc602052604081205460ff161561004f575b5061183690816100a48239f35b80805260056020526040812033825260205260408120600160ff19825416179055339033907f2f8788117e7eff1d82e926ec794901d17c78024a50270940304540a733656f0d8180a438610042565b600080fdfe60806040526004361015610018575b3661168257611646565b60003560e01c806301ffc9a714610223578063168d90841461021e5780631785f53c14610219578063248a9ca31461021457806324d7806c1461020f5780632f2ff15d1461020a57806336568abe146102055780633659cfe6146102005780634a5df50f146101fb57806350d2a276146101f6578063550d01a3146101f15780635c60da1b146101ec5780635cc797d8146101e757806363a8fd89146101e25780636c7ac9d8146101dd57806370480275146101d8578063715018a6146101d357806375829def146101ce5780637cb00d25146101c95780637cd5f663146101c45780638b8f4a65146101a15780638c97eb6e146101bf5780638d4fdb40146101ba5780638d62d949146101b55780638f32d59b146101b057806391d14854146101ab578063a217fddf146101a6578063b911135f146101a1578063cc48b9471461019c578063d539139314610197578063d547741f14610192578063eeac94311461018d5763f2fde38b0361000e57610e6e565b610e45565b610e06565b610dcb565b610da2565b610c4a565b610d86565b610d40565b610d09565b610ce0565b610ca7565b610c7e565b610b70565b610b18565b610a51565b610a2b565b61093f565b610916565b6108f3565b61089c565b610868565b610829565b6107e3565b6105fb565b61051b565b610489565b6103c0565b610370565b610341565b61030d565b6102b8565b61023f565b6001600160e01b031981160361023a57565b600080fd5b3461023a57602036600319011261023a5760043561025c81610228565b6001600160e01b031916637965db0b60e01b81148015610284575b6020906040519015158152f35b506301ffc9a760e01b8114801561029f575b60209150610277565b506000526004602052602060ff60406000205416610296565b3461023a57600036600319011261023a57600b546040516001600160a01b039091168152602090f35b600435906001600160a01b038216820361023a57565b602435906001600160a01b038216820361023a57565b3461023a57602036600319011261023a5761033f6103296102e1565b61033a61033533610e8f565b611409565b611161565b005b3461023a57602036600319011261023a5760043560005260056020526020600160406000200154604051908152f35b3461023a57602036600319011261023a57602060ff6103b46103906102e1565b600080526005845260406000209060018060a01b0316600052602052604060002090565b54166040519015158152f35b3461023a57604036600319011261023a576004356103dc6102f7565b60009180835260056020526103f76001604085200154610f7d565b8083526005602090815260408085206001600160a01b0385166000908152925290205460ff1615610426578280f35b8083526005602090815260408085206001600160a01b038516600090815292529020805460ff1916600117905533916001600160a01b0316907f2f8788117e7eff1d82e926ec794901d17c78024a50270940304540a733656f0d8480a438808280f35b3461023a57604036600319011261023a576104a26102f7565b336001600160a01b038216036104be5761033f906004356111fe565b60405162461bcd60e51b815260206004820152602f60248201527f416363657373436f6e74726f6c3a2063616e206f6e6c792072656e6f756e636560448201526e103937b632b9903337b91039b2b63360891b6064820152608490fd5b3461023a57602036600319011261023a576105346102e1565b33600090815260008051602061180a833981519152602052604081209091906105629060ff905b5416611409565b6001600160a01b0381169081156105c6578280526001602052604083205461059f919061059a906001600160a01b0316841415611460565b61171d565b7fbc7cd75a20ee27fd9adebab32041f755214dbc6bffa90cc0225b39da2e5c2d3b8280a280f35b60405162461bcd60e51b815260206004820152600d60248201526c696e707574206973207a65726f60981b6044820152606490fd5b3461023a57604036600319011261023a5767ffffffffffffffff60043581811161023a573660238201121561023a57806004013591821161023a576024810190602436918460051b01011161023a576106526102f7565b33600090815260008051602061180a8339815191526020526040812090939061067d9060ff9061055b565b801561079f576106b36106ae6106a784959460018060a01b03166000526002602052604060002090565b5460ff1690565b611498565b6001600160a01b03928084169290855b8381106106ce578680f35b8061071e86886107166107096106f06106eb61079a988c8c6114f3565b611503565b63ffffffff60e01b166000526003602052604060002090565b546001600160a01b031690565b16141561150d565b610752836107336106f06106eb858a8a6114f3565b80546001600160a01b0319166001600160a01b03909216919091179055565b856107716107646106eb8489896114f3565b6001600160e01b03191690565b7f14ebc1c32aa68f4d766e89f3e546cee249f7df25183fc10ab1568d91c2ce9b7b8a80a36114e4565b6106c3565b606460405162461bcd60e51b815260206004820152602060248201527f50726f78793a205f73656c6563746f727327732073697a65206973207a65726f6044820152fd5b3461023a57602036600319011261023a5760043561080081610228565b63ffffffff60e01b166000526003602052602060018060a01b0360406000205416604051908152f35b3461023a57602036600319011261023a576001600160a01b0361084a6102e1565b166000526002602052602060ff604060002054166040519015158152f35b3461023a576000806003193601126108995780806020925260018252604060018060a01b0391205416604051908152f35b80fd5b3461023a57604036600319011261023a576108b56102e1565b602435801515810361023a5733600090815260008051602061180a8339815191526020526040902061033f92906108ee9060ff9061055b565b6117b5565b3461023a57600036600319011261023a57602060ff600054166040519015158152f35b3461023a57600036600319011261023a576006546040516001600160a01b039091168152602090f35b3461023a57602036600319011261023a576109586102e1565b61096461033533610e8f565b600080805260056020527f05b8ccbb9d4d8fb16ea74ce3c29a41f1b461fbdaff4714a0d9a8eb05499746bd5490919061099c90610f7d565b8180526005602090815260408084206001600160a01b0384166000908152925290205460ff16156109cb575080f35b8180526005602090815260408084206001600160a01b038416600090815292529020805460ff1916600117905533906001600160a01b0316827f2f8788117e7eff1d82e926ec794901d17c78024a50270940304540a733656f0d8180a480f35b3461023a57600036600319011261023a57610a4861033533610e8f565b61033f33611161565b3461023a57602036600319011261023a57610a6a6102e1565b610a7661033533610e8f565b6001600160a01b0381168015610ad3573314610a9557610a4890610eba565b60405162461bcd60e51b815260206004820152601660248201527520b1b1b2b9b9b4b136329d1039b0b6b29030b236b4b760511b6044820152606490fd5b60405162461bcd60e51b815260206004820152601860248201527f41636365737369626c653a207a65726f206164647265737300000000000000006044820152606490fd5b3461023a57602036600319011261023a5760043580151580910361023a5733600090815260008051602061180a83398151915260205260408120909190610b619060ff9061055b565b60ff8019835416911617815580f35b3461023a57606036600319011261023a57610b896102e1565b60443590811515820361023a5733600090815260008051602061180a83398151915260205260408120909290610bc19060ff9061055b565b813b15610c0557610bd69181610bd9576117b5565b80f35b602435845260016020526040842080546001600160a01b0319166001600160a01b0383161790556117b5565b60405162461bcd60e51b815260206004820152601b60248201527f50726f78793a206e6f7420636f6e7472616374206164647265737300000000006044820152606490fd5b3461023a57602036600319011261023a576004356000526001602052602060018060a01b0360406000205416604051908152f35b3461023a57600036600319011261023a576008546040516001600160a01b039091168152602090f35b3461023a57602036600319011261023a576020610cce600435610cc981610228565b611559565b6040516001600160a01b039091168152f35b3461023a57600036600319011261023a57600a546040516001600160a01b039091168152602090f35b3461023a5760008060031936011261089957808052600560209081526040918290203360009081529082529190912060ff906103b4565b3461023a57604036600319011261023a57602060ff6103b4610d606102f7565b6004356000526005845260406000209060018060a01b0316600052602052604060002090565b3461023a57600036600319011261023a57602060405160008152f35b3461023a57600036600319011261023a576009546040516001600160a01b039091168152602090f35b3461023a57600036600319011261023a5760206040517ff0887ba65ee2024ea881d91b74c2450ef19e1557f03bed3ea9f16b037cbe2dc98152f35b3461023a57604036600319011261023a5761033f600435610e256102f7565b90806000526005602052610e40600160406000200154610f7d565b6111fe565b3461023a57600036600319011261023a576007546040516001600160a01b039091168152602090f35b3461023a57602036600319011261023a57610e876102e1565b610a6a610335335b6001600160a01b0316600090815260008051602061180a833981519152602052604090205460ff1690565b600080805260056020527f05b8ccbb9d4d8fb16ea74ce3c29a41f1b461fbdaff4714a0d9a8eb05499746bd54610eef90610f7d565b8080526005602090815260408083206001600160a01b0385166000908152925290205460ff1615610f1e575050565b8080526005602090815260408083206001600160a01b038516600090815292529020805460ff1916600117905533916001600160a01b0316907f2f8788117e7eff1d82e926ec794901d17c78024a50270940304540a733656f0d8180a4565b600081815260056020908152604080832033845290915290205460ff1615610fa25750565b3390610fac6112a7565b916030610fb8846112ea565b536078610fc4846112f7565b5360295b600181116110775761107361103061105b8661104d610ff088610feb891561132a565b611375565b61102a60405195869461102a602087016017907f416363657373436f6e74726f6c3a206163636f756e742000000000000000000081520190565b906110e1565b7001034b99036b4b9b9b4b733903937b6329607d1b815260110190565b03601f19810183528261110e565b60405162461bcd60e51b815291829160048301611135565b0390fd5b90600f81169060108210156110b9576110b4916f181899199a1a9b1b9c1cb0b131b232b360811b901a6110aa8487611307565b5360041c91611318565b610fc8565b6112d4565b60005b8381106110d15750506000910152565b81810151838201526020016110c1565b906110f4602092828151948592016110be565b0190565b634e487b7160e01b600052604160045260246000fd5b90601f8019910116810190811067ffffffffffffffff82111761113057604052565b6110f8565b6040916020825261115581518092816020860152602086860191016110be565b601f01601f1916010190565b6001600160a01b0381163381036104be576001600160a01b038216600090815260008051602061180a833981519152602052604081205490929060ff166111a757505050565b6111ce908380526005602052604084209060018060a01b0316600052602052604060002090565b805460ff1916905533917ff6391f5c32d9c69d2a47ea670b442974b53935d1edc7fd64eb21e047a839171b8180a4565b600090808252600560205260ff61122a84604085209060018060a01b0316600052602052604060002090565b541661123557505050565b8082526005602090815260408084206001600160a01b038616600090815292529020805460ff1916905533926001600160a01b0316917ff6391f5c32d9c69d2a47ea670b442974b53935d1edc7fd64eb21e047a839171b9080a4565b634e487b7160e01b600052601160045260246000fd5b604051906060820182811067ffffffffffffffff82111761113057604052602a8252604082602036910137565b634e487b7160e01b600052603260045260246000fd5b8051156110b95760200190565b8051600110156110b95760210190565b9081518110156110b9570160200190565b8015611325576000190190565b611291565b1561133157565b606460405162461bcd60e51b815260206004820152602060248201527f537472696e67733a20686578206c656e67746820696e73756666696369656e746044820152fd5b604051906080820182811067ffffffffffffffff8211176111305760405260428252606036602084013760306113aa836112ea565b5360786113b6836112f7565b536041905b600182116113d1576113ce91501561132a565b90565b600f81169060108210156110b957611403916f181899199a1a9b1b9c1cb0b131b232b360811b901a6110aa8486611307565b906113bb565b1561141057565b60405162461bcd60e51b815260206004820152602260248201527f41636365737369626c653a2043616c6c6572206973206e6f7420616e2061646d60448201526134b760f11b6064820152608490fd5b1561146757565b60405162461bcd60e51b815260206004820152600960248201526839b0b6b29030b2323960b91b6044820152606490fd5b1561149f57565b60405162461bcd60e51b815260206004820152601860248201527f50726f78793a205f696d70206973206e6f7420616c69766500000000000000006044820152606490fd5b60001981146113255760010190565b91908110156110b95760051b0190565b356113ce81610228565b1561151457565b60405162461bcd60e51b815260206004820152601d60248201527f4c69717569646974795661756c7450726f78793a2073616d6520696d700000006044820152606490fd5b6001600160e01b031981166000908152600360205260409020546001600160a01b03919082166115b357506000805260016020527fa6eef7e35abe7026729641147f7915573c7e97b47efa546f5f6e3230263bcb49541690565b60ff6115f2836115d68463ffffffff60e01b166000526003602052604060002090565b54166001600160a01b0316600090815260026020526040902090565b541615611616576001600160e01b0319166000908152600360205260409020541690565b506000805260016020527fa6eef7e35abe7026729641147f7915573c7e97b47efa546f5f6e3230263bcb49541690565b60405162461bcd60e51b815260206004820152601460248201527331b0b73737ba103932b1b2b4bb329022ba3432b960611b6044820152606490fd5b600061169881356001600160e01b031916611559565b6001600160a01b038116151580611711575b156116cc57818091368280378136915af43d82803e156116c8573d90f35b3d90fd5b60405162461bcd60e51b815260206004820152601d60248201527f50726f78793a20696d706c204f522070726f78792069732066616c73650000006044820152606490fd5b5060ff825416156116aa565b803b15610c05576000805260016020527fa6eef7e35abe7026729641147f7915573c7e97b47efa546f5f6e3230263bcb4980546001600160a01b0319166001600160a01b03831617905560018060a01b03168060005260026020526040600020600160ff198254161790557f72558d9bfba4210f9ef095c782589484151f6d90f7a81bb3cb9b33efc695d324602060405160018152a2565b60207f72558d9bfba4210f9ef095c782589484151f6d90f7a81bb3cb9b33efc695d3249160018060a01b031692836000526002825260406000209015159060ff1981541660ff8316179055604051908152a256fe05b8ccbb9d4d8fb16ea74ce3c29a41f1b461fbdaff4714a0d9a8eb05499746bca164736f6c6343000813000a",
  "linkReferences": {},
  "deployedLinkReferences": {}
}