{
  "_format": "hh-sol-artifact-1",
  "contractName": "Layer2CandidateFactoryProxy",
  "sourceName": "contracts/dao/factory/Layer2CandidateFactoryProxy.sol",
  "abi": [
    {
      "anonymous": false,
      "inputs": [
        {
          "indexed": true,
          "internalType": "bytes32",
          "name": "role",
          "type": "bytes32"
        },
        {
          "indexed": true,
          "internalType": "bytes32",
          "name": "previousAdminRole",
          "type": "bytes32"
        },
        {
          "indexed": true,
          "internalType": "bytes32",
          "name": "newAdminRole",
          "type": "bytes32"
        }
      ],
      "name": "RoleAdminChanged",
      "type": "event"
    },
    {
      "anonymous": false,
      "inputs": [
        {
          "indexed": true,
          "internalType": "bytes32",
          "name": "role",
          "type": "bytes32"
        },
        {
          "indexed": true,
          "internalType": "address",
          "name": "account",
          "type": "address"
        },
        {
          "indexed": true,
          "internalType": "address",
          "name": "sender",
          "type": "address"
        }
      ],
      "name": "RoleGranted",
      "type": "event"
    },
    {
      "anonymous": false,
      "inputs": [
        {
          "indexed": true,
          "internalType": "bytes32",
          "name": "role",
          "type": "bytes32"
        },
        {
          "indexed": true,
          "internalType": "address",
          "name": "account",
          "type": "address"
        },
        {
          "indexed": true,
          "internalType": "address",
          "name": "sender",
          "type": "address"
        }
      ],
      "name": "RoleRevoked",
      "type": "event"
    },
    {
      "anonymous": false,
      "inputs": [
        {
          "indexed": true,
          "internalType": "address",
          "name": "impl",
          "type": "address"
        },
        {
          "indexed": false,
          "internalType": "bool",
          "name": "alive",
          "type": "bool"
        }
      ],
      "name": "SetAliveImplementation",
      "type": "event"
    },
    {
      "anonymous": false,
      "inputs": [
        {
          "indexed": true,
          "internalType": "bytes4",
          "name": "selector",
          "type": "bytes4"
        },
        {
          "indexed": true,
          "internalType": "address",
          "name": "impl",
          "type": "address"
        }
      ],
      "name": "SetSelectorImplementation",
      "type": "event"
    },
    {
      "anonymous": false,
      "inputs": [
        {
          "indexed": true,
          "internalType": "address",
          "name": "implementation",
          "type": "address"
        }
      ],
      "name": "Upgraded",
      "type": "event"
    },
    {
      "stateMutability": "payable",
      "type": "fallback"
    },
    {
      "inputs": [],
      "name": "DEFAULT_ADMIN_ROLE",
      "outputs": [
        {
          "internalType": "bytes32",
          "name": "",
          "type": "bytes32"
        }
      ],
      "stateMutability": "view",
      "type": "function"
    },
    {
      "inputs": [],
      "name": "MINTER_ROLE",
      "outputs": [
        {
          "internalType": "bytes32",
          "name": "",
          "type": "bytes32"
        }
      ],
      "stateMutability": "view",
      "type": "function"
    },
    {
      "inputs": [
        {
          "internalType": "address",
          "name": "account",
          "type": "address"
        }
      ],
      "name": "addAdmin",
      "outputs": [],
      "stateMutability": "nonpayable",
      "type": "function"
    },
    {
      "inputs": [
        {
          "internalType": "address",
          "name": "",
          "type": "address"
        }
      ],
      "name": "aliveImplementation",
      "outputs": [
        {
          "internalType": "bool",
          "name": "",
          "type": "bool"
        }
      ],
      "stateMutability": "view",
      "type": "function"
    },
    {
      "inputs": [],
      "name": "daoCommittee",
      "outputs": [
        {
          "internalType": "address",
          "name": "",
          "type": "address"
        }
      ],
      "stateMutability": "view",
      "type": "function"
    },
    {
      "inputs": [],
      "name": "depositManager",
      "outputs": [
        {
          "internalType": "address",
          "name": "",
          "type": "address"
        }
      ],
      "stateMutability": "view",
      "type": "function"
    },
    {
      "inputs": [
        {
          "internalType": "bytes32",
          "name": "role",
          "type": "bytes32"
        }
      ],
      "name": "getRoleAdmin",
      "outputs": [
        {
          "internalType": "bytes32",
          "name": "",
          "type": "bytes32"
        }
      ],
      "stateMutability": "view",
      "type": "function"
    },
    {
      "inputs": [
        {
          "internalType": "bytes4",
          "name": "_selector",
          "type": "bytes4"
        }
      ],
      "name": "getSelectorImplementation2",
      "outputs": [
        {
          "internalType": "address",
          "name": "impl",
          "type": "address"
        }
      ],
      "stateMutability": "view",
      "type": "function"
    },
    {
      "inputs": [
        {
          "internalType": "bytes32",
          "name": "role",
          "type": "bytes32"
        },
        {
          "internalType": "address",
          "name": "account",
          "type": "address"
        }
      ],
      "name": "grantRole",
      "outputs": [],
      "stateMutability": "nonpayable",
      "type": "function"
    },
    {
      "inputs": [
        {
          "internalType": "bytes32",
          "name": "role",
          "type": "bytes32"
        },
        {
          "internalType": "address",
          "name": "account",
          "type": "address"
        }
      ],
      "name": "hasRole",
      "outputs": [
        {
          "internalType": "bool",
          "name": "",
          "type": "bool"
        }
      ],
      "stateMutability": "view",
      "type": "function"
    },
    {
      "inputs": [],
      "name": "implementation",
      "outputs": [
        {
          "internalType": "address",
          "name": "",
          "type": "address"
        }
      ],
      "stateMutability": "view",
      "type": "function"
    },
    {
      "inputs": [
        {
          "internalType": "uint256",
          "name": "_index",
          "type": "uint256"
        }
      ],
      "name": "implementation2",
      "outputs": [
        {
          "internalType": "address",
          "name": "",
          "type": "address"
        }
      ],
      "stateMutability": "view",
      "type": "function"
    },
    {
      "inputs": [
        {
          "internalType": "address",
          "name": "account",
          "type": "address"
        }
      ],
      "name": "isAdmin",
      "outputs": [
        {
          "internalType": "bool",
          "name": "",
          "type": "bool"
        }
      ],
      "stateMutability": "view",
      "type": "function"
    },
    {
      "inputs": [],
      "name": "isOwner",
      "outputs": [
        {
          "internalType": "bool",
          "name": "",
          "type": "bool"
        }
      ],
      "stateMutability": "view",
      "type": "function"
    },
    {
      "inputs": [],
      "name": "layer2CandidateImp",
      "outputs": [
        {
          "internalType": "address",
          "name": "",
          "type": "address"
        }
      ],
      "stateMutability": "view",
      "type": "function"
    },
    {
      "inputs": [],
      "name": "onDemandL2Registry",
      "outputs": [
        {
          "internalType": "address",
          "name": "",
          "type": "address"
        }
      ],
      "stateMutability": "view",
      "type": "function"
    },
    {
      "inputs": [],
      "name": "pauseProxy",
      "outputs": [
        {
          "internalType": "bool",
          "name": "",
          "type": "bool"
        }
      ],
      "stateMutability": "view",
      "type": "function"
    },
    {
      "inputs": [
        {
          "internalType": "uint256",
          "name": "",
          "type": "uint256"
        }
      ],
      "name": "proxyImplementation",
      "outputs": [
        {
          "internalType": "address",
          "name": "",
          "type": "address"
        }
      ],
      "stateMutability": "view",
      "type": "function"
    },
    {
      "inputs": [
        {
          "internalType": "address",
          "name": "account",
          "type": "address"
        }
      ],
      "name": "removeAdmin",
      "outputs": [],
      "stateMutability": "nonpayable",
      "type": "function"
    },
    {
      "inputs": [],
      "name": "renounceOwnership",
      "outputs": [],
      "stateMutability": "nonpayable",
      "type": "function"
    },
    {
      "inputs": [
        {
          "internalType": "bytes32",
          "name": "role",
          "type": "bytes32"
        },
        {
          "internalType": "address",
          "name": "account",
          "type": "address"
        }
      ],
      "name": "renounceRole",
      "outputs": [],
      "stateMutability": "nonpayable",
      "type": "function"
    },
    {
      "inputs": [
        {
          "internalType": "bytes32",
          "name": "role",
          "type": "bytes32"
        },
        {
          "internalType": "address",
          "name": "account",
          "type": "address"
        }
      ],
      "name": "revokeRole",
      "outputs": [],
      "stateMutability": "nonpayable",
      "type": "function"
    },
    {
      "inputs": [
        {
          "internalType": "bytes4",
          "name": "",
          "type": "bytes4"
        }
      ],
      "name": "selectorImplementation",
      "outputs": [
        {
          "internalType": "address",
          "name": "",
          "type": "address"
        }
      ],
      "stateMutability": "view",
      "type": "function"
    },
    {
      "inputs": [
        {
          "internalType": "address",
          "name": "newImplementation",
          "type": "address"
        },
        {
          "internalType": "bool",
          "name": "_alive",
          "type": "bool"
        }
      ],
      "name": "setAliveImplementation2",
      "outputs": [],
      "stateMutability": "nonpayable",
      "type": "function"
    },
    {
      "inputs": [
        {
          "internalType": "address",
          "name": "newImplementation",
          "type": "address"
        },
        {
          "internalType": "uint256",
          "name": "_index",
          "type": "uint256"
        },
        {
          "internalType": "bool",
          "name": "_alive",
          "type": "bool"
        }
      ],
      "name": "setImplementation2",
      "outputs": [],
      "stateMutability": "nonpayable",
      "type": "function"
    },
    {
      "inputs": [
        {
          "internalType": "bool",
          "name": "_pause",
          "type": "bool"
        }
      ],
      "name": "setProxyPause",
      "outputs": [],
      "stateMutability": "nonpayable",
      "type": "function"
    },
    {
      "inputs": [
        {
          "internalType": "bytes4[]",
          "name": "_selectors",
          "type": "bytes4[]"
        },
        {
          "internalType": "address",
          "name": "_imp",
          "type": "address"
        }
      ],
      "name": "setSelectorImplementations2",
      "outputs": [],
      "stateMutability": "nonpayable",
      "type": "function"
    },
    {
      "inputs": [
        {
          "internalType": "bytes4",
          "name": "interfaceId",
          "type": "bytes4"
        }
      ],
      "name": "supportsInterface",
      "outputs": [
        {
          "internalType": "bool",
          "name": "",
          "type": "bool"
        }
      ],
      "stateMutability": "view",
      "type": "function"
    },
    {
      "inputs": [],
      "name": "ton",
      "outputs": [
        {
          "internalType": "address",
          "name": "",
          "type": "address"
        }
      ],
      "stateMutability": "view",
      "type": "function"
    },
    {
      "inputs": [
        {
          "internalType": "address",
          "name": "newAdmin",
          "type": "address"
        }
      ],
      "name": "transferAdmin",
      "outputs": [],
      "stateMutability": "nonpayable",
      "type": "function"
    },
    {
      "inputs": [
        {
          "internalType": "address",
          "name": "newAdmin",
          "type": "address"
        }
      ],
      "name": "transferOwnership",
      "outputs": [],
      "stateMutability": "nonpayable",
      "type": "function"
    },
    {
      "inputs": [
        {
          "internalType": "address",
          "name": "impl",
          "type": "address"
        }
      ],
      "name": "upgradeTo",
      "outputs": [],
      "stateMutability": "nonpayable",
      "type": "function"
    },
    {
      "inputs": [],
      "name": "wton",
      "outputs": [
        {
          "internalType": "address",
          "name": "",
          "type": "address"
        }
      ],
      "stateMutability": "view",
      "type": "function"
    },
    {
      "stateMutability": "payable",
      "type": "receive"
    }
  ],
  "bytecode": "0x608060405234801561001057600080fd5b5061001c600033610021565b6100d1565b61002b828261002f565b5050565b60008281526005602090815260408083206001600160a01b038516845290915290205460ff1661002b5760008281526005602090815260408083206001600160a01b03851684529091529020805460ff1916600117905561008d3390565b6001600160a01b0316816001600160a01b0316837f2f8788117e7eff1d82e926ec794901d17c78024a50270940304540a733656f0d60405160405180910390a45050565b611728806100e06000396000f3fe6080604052600436106101f25760003560e01c806375829def1161010d5780638f32d59b116100a0578063cc48b9471161006f578063cc48b94714610639578063d539139314610659578063d547741f1461068d578063eeac9431146106ad578063f2fde38b146106cd5761023b565b80638f32d59b146105b957806391d14854146105ce578063a217fddf146105ee578063b911135f146106035761023b565b80638c25c7b8116100dc5780638c25c7b8146105395780638c97eb6e146105595780638d4fdb40146105795780638d62d949146105995761023b565b806375829def146104b95780637cb00d25146104d95780637cd5f663146104f95780638b8f4a65146105195761023b565b806350d2a2761161018557806363a8fd891161015457806363a8fd891461044a5780636c7ac9d8146104645780637048027514610484578063715018a6146104a45761023b565b806350d2a27614610378578063550d01a3146103c65780635c60da1b146103f65780635cc797d81461042a5761023b565b80632f2ff15d116101c15780632f2ff15d146102f857806336568abe146103185780633659cfe6146103385780634a5df50f146103585761023b565b806301ffc9a7146102455780631785f53c1461027a578063248a9ca31461029a57806324d7806c146102d85761023b565b3661023b5760405162461bcd60e51b815260206004820152601460248201527331b0b73737ba103932b1b2b4bb329022ba3432b960611b60448201526064015b60405180910390fd5b6102436106ed565b005b34801561025157600080fd5b506102656102603660046113a4565b610796565b60405190151581526020015b60405180910390f35b34801561028657600080fd5b506102436102953660046113e5565b6107a7565b3480156102a657600080fd5b506102ca6102b5366004611400565b60009081526005602052604090206001015490565b604051908152602001610271565b3480156102e457600080fd5b506102656102f33660046113e5565b6107da565b34801561030457600080fd5b50610243610313366004611419565b6107e6565b34801561032457600080fd5b50610243610333366004611419565b61080b565b34801561034457600080fd5b506102436103533660046113e5565b610889565b34801561036457600080fd5b50610243610373366004611445565b610997565b34801561038457600080fd5b506103ae6103933660046113a4565b6003602052600090815260409020546001600160a01b031681565b6040516001600160a01b039091168152602001610271565b3480156103d257600080fd5b506102656103e13660046113e5565b60026020526000908152604090205460ff1681565b34801561040257600080fd5b506000805260016020526000805160206116fc833981519152546001600160a01b03166103ae565b34801561043657600080fd5b506102436104453660046114d9565b610bfe565b34801561045657600080fd5b506000546102659060ff1681565b34801561047057600080fd5b506006546103ae906001600160a01b031681565b34801561049057600080fd5b5061024361049f3660046113e5565b610c2d565b3480156104b057600080fd5b50610243610c5d565b3480156104c557600080fd5b506102436104d43660046113e5565b610c8f565b3480156104e557600080fd5b506102436104f4366004611503565b610d71565b34801561050557600080fd5b5061024361051436600461151e565b610da9565b34801561052557600080fd5b506103ae610534366004611400565b610dd9565b34801561054557600080fd5b50600b546103ae906001600160a01b031681565b34801561056557600080fd5b506008546103ae906001600160a01b031681565b34801561058557600080fd5b506103ae6105943660046113a4565b610df6565b3480156105a557600080fd5b50600a546103ae906001600160a01b031681565b3480156105c557600080fd5b50610265610ece565b3480156105da57600080fd5b506102656105e9366004611419565b610ed6565b3480156105fa57600080fd5b506102ca600081565b34801561060f57600080fd5b506103ae61061e366004611400565b6001602052600090815260409020546001600160a01b031681565b34801561064557600080fd5b506009546103ae906001600160a01b031681565b34801561066557600080fd5b506102ca7ff0887ba65ee2024ea881d91b74c2450ef19e1557f03bed3ea9f16b037cbe2dc981565b34801561069957600080fd5b506102436106a8366004611419565b610f01565b3480156106b957600080fd5b506007546103ae906001600160a01b031681565b3480156106d957600080fd5b506102436106e83660046113e5565b610f26565b60006107046000356001600160e01b031916610df6565b90506001600160a01b03811615801590610721575060005460ff16155b61076d5760405162461bcd60e51b815260206004820152601d60248201527f50726f78793a20696d706c204f522070726f78792069732066616c73650000006044820152606401610232565b3660008037600080366000845af43d6000803e80801561078c573d6000f35b3d6000fd5b505050565b60006107a182610f54565b92915050565b6107b0336107da565b6107cc5760405162461bcd60e51b815260040161023290611551565b6107d760008261080b565b50565b60006107a18183610ed6565b60008281526005602052604090206001015461080181610f79565b6107918383610f83565b6001600160a01b038116331461087b5760405162461bcd60e51b815260206004820152602f60248201527f416363657373436f6e74726f6c3a2063616e206f6e6c792072656e6f756e636560448201526e103937b632b9903337b91039b2b63360891b6064820152608401610232565b6108858282611009565b5050565b610892336107da565b6108ae5760405162461bcd60e51b815260040161023290611551565b6001600160a01b0381166108f45760405162461bcd60e51b815260206004820152600d60248201526c696e707574206973207a65726f60981b6044820152606401610232565b6000805260016020526000805160206116fc833981519152546001600160a01b038281169116036109535760405162461bcd60e51b815260206004820152600960248201526839b0b6b29030b2323960b91b6044820152606401610232565b6109608160006001611070565b6040516001600160a01b038216907fbc7cd75a20ee27fd9adebab32041f755214dbc6bffa90cc0225b39da2e5c2d3b90600090a250565b6109a0336107da565b6109bc5760405162461bcd60e51b815260040161023290611551565b81610a095760405162461bcd60e51b815260206004820181905260248201527f50726f78793a205f73656c6563746f727327732073697a65206973207a65726f6044820152606401610232565b6001600160a01b03811660009081526002602052604090205460ff16610a715760405162461bcd60e51b815260206004820152601860248201527f50726f78793a205f696d70206973206e6f7420616c69766500000000000000006044820152606401610232565b60005b82811015610bf357816001600160a01b031660036000868685818110610a9c57610a9c611593565b9050602002016020810190610ab191906113a4565b6001600160e01b03191681526020810191909152604001600020546001600160a01b031603610b225760405162461bcd60e51b815260206004820152601d60248201527f4c69717569646974795661756c7450726f78793a2073616d6520696d700000006044820152606401610232565b8160036000868685818110610b3957610b39611593565b9050602002016020810190610b4e91906113a4565b6001600160e01b0319168152602081019190915260400160002080546001600160a01b0319166001600160a01b039283161790558216848483818110610b9657610b96611593565b9050602002016020810190610bab91906113a4565b6001600160e01b0319167f14ebc1c32aa68f4d766e89f3e546cee249f7df25183fc10ab1568d91c2ce9b7b60405160405180910390a380610beb816115bf565b915050610a74565b50505050565b905090565b610c07336107da565b610c235760405162461bcd60e51b815260040161023290611551565b61088582826110fb565b610c36336107da565b610c525760405162461bcd60e51b815260040161023290611551565b6107d76000826107e6565b610c66336107da565b610c825760405162461bcd60e51b815260040161023290611551565b610c8d60003361080b565b565b610c98336107da565b610cb45760405162461bcd60e51b815260040161023290611551565b6001600160a01b038116610d0a5760405162461bcd60e51b815260206004820152601860248201527f41636365737369626c653a207a65726f206164647265737300000000000000006044820152606401610232565b6001600160a01b0381163303610d5b5760405162461bcd60e51b815260206004820152601660248201527520b1b1b2b9b9b4b136329d1039b0b6b29030b236b4b760511b6044820152606401610232565b610d666000826107e6565b6107d760003361080b565b610d7a336107da565b610d965760405162461bcd60e51b815260040161023290611551565b6000805460ff1916911515919091179055565b610db2336107da565b610dce5760405162461bcd60e51b815260040161023290611551565b610791838383611070565b6000818152600160205260408120546001600160a01b03166107a1565b6001600160e01b031981166000908152600360205260408120546001600160a01b0316610e445750506000805260016020526000805160206116fc833981519152546001600160a01b031690565b6001600160e01b031982166000908152600360209081526040808320546001600160a01b03168352600290915290205460ff1615610ea257506001600160e01b0319166000908152600360205260409020546001600160a01b031690565b50506000805260016020526000805160206116fc833981519152546001600160a01b031690565b919050565b6000610bf981335b60009182526005602090815260408084206001600160a01b0393909316845291905290205460ff1690565b600082815260056020526040902060010154610f1c81610f79565b6107918383611009565b610f2f336107da565b610f4b5760405162461bcd60e51b815260040161023290611551565b6107d781610c8f565b60006001600160e01b03198216637965db0b60e01b14806107a157506107a18261115a565b6107d78133611196565b610f8d8282610ed6565b6108855760008281526005602090815260408083206001600160a01b03851684529091529020805460ff19166001179055610fc53390565b6001600160a01b0316816001600160a01b0316837f2f8788117e7eff1d82e926ec794901d17c78024a50270940304540a733656f0d60405160405180910390a45050565b6110138282610ed6565b156108855760008281526005602090815260408083206001600160a01b0385168085529252808320805460ff1916905551339285917ff6391f5c32d9c69d2a47ea670b442974b53935d1edc7fd64eb21e047a839171b9190a45050565b6001600160a01b0383163b6110c75760405162461bcd60e51b815260206004820152601b60248201527f50726f78793a206e6f7420636f6e7472616374206164647265737300000000006044820152606401610232565b80156110f557600082815260016020526040902080546001600160a01b0319166001600160a01b0385161790555b61079183825b6001600160a01b038216600081815260026020908152604091829020805460ff191685151590811790915591519182527f72558d9bfba4210f9ef095c782589484151f6d90f7a81bb3cb9b33efc695d324910160405180910390a25050565b60006301ffc9a760e01b6001600160e01b0319831614806107a15750506001600160e01b03191660009081526004602052604090205460ff1690565b6111a08282610ed6565b610885576111ad816111ef565b6111b8836020611201565b6040516020016111c99291906115fc565b60408051601f198184030181529082905262461bcd60e51b825261023291600401611671565b60606107a16001600160a01b03831660145b606060006112108360026116a4565b61121b9060026116bb565b67ffffffffffffffff811115611233576112336116ce565b6040519080825280601f01601f19166020018201604052801561125d576020820181803683370190505b509050600360fc1b8160008151811061127857611278611593565b60200101906001600160f81b031916908160001a905350600f60fb1b816001815181106112a7576112a7611593565b60200101906001600160f81b031916908160001a90535060006112cb8460026116a4565b6112d69060016116bb565b90505b600181111561134e576f181899199a1a9b1b9c1cb0b131b232b360811b85600f166010811061130a5761130a611593565b1a60f81b82828151811061132057611320611593565b60200101906001600160f81b031916908160001a90535060049490941c93611347816116e4565b90506112d9565b50831561139d5760405162461bcd60e51b815260206004820181905260248201527f537472696e67733a20686578206c656e67746820696e73756666696369656e746044820152606401610232565b9392505050565b6000602082840312156113b657600080fd5b81356001600160e01b03198116811461139d57600080fd5b80356001600160a01b0381168114610ec957600080fd5b6000602082840312156113f757600080fd5b61139d826113ce565b60006020828403121561141257600080fd5b5035919050565b6000806040838503121561142c57600080fd5b8235915061143c602084016113ce565b90509250929050565b60008060006040848603121561145a57600080fd5b833567ffffffffffffffff8082111561147257600080fd5b818601915086601f83011261148657600080fd5b81358181111561149557600080fd5b8760208260051b85010111156114aa57600080fd5b6020928301955093506114c091860190506113ce565b90509250925092565b80358015158114610ec957600080fd5b600080604083850312156114ec57600080fd5b6114f5836113ce565b915061143c602084016114c9565b60006020828403121561151557600080fd5b61139d826114c9565b60008060006060848603121561153357600080fd5b61153c846113ce565b9250602084013591506114c0604085016114c9565b60208082526022908201527f41636365737369626c653a2043616c6c6572206973206e6f7420616e2061646d60408201526134b760f11b606082015260800190565b634e487b7160e01b600052603260045260246000fd5b634e487b7160e01b600052601160045260246000fd5b6000600182016115d1576115d16115a9565b5060010190565b60005b838110156115f35781810151838201526020016115db565b50506000910152565b7f416363657373436f6e74726f6c3a206163636f756e74200000000000000000008152600083516116348160178501602088016115d8565b7001034b99036b4b9b9b4b733903937b6329607d1b60179184019182015283516116658160288401602088016115d8565b01602801949350505050565b60208152600082518060208401526116908160408501602087016115d8565b601f01601f19169190910160400192915050565b80820281158282048414176107a1576107a16115a9565b808201808211156107a1576107a16115a9565b634e487b7160e01b600052604160045260246000fd5b6000816116f3576116f36115a9565b50600019019056fea6eef7e35abe7026729641147f7915573c7e97b47efa546f5f6e3230263bcb49a164736f6c6343000813000a",
  "linkReferences": {},
  "deployedLinkReferences": {}
}