{
  "address": "0xB88d288e2b1a76Fda3F7d998bA5A10576fAAcdE3",
  "abi": [
    {
      "anonymous": false,
      "inputs": [
        {
          "indexed": true,
          "internalType": "bytes32",
          "name": "role",
          "type": "bytes32"
        },
        {
          "indexed": true,
          "internalType": "bytes32",
          "name": "previousAdminRole",
          "type": "bytes32"
        },
        {
          "indexed": true,
          "internalType": "bytes32",
          "name": "newAdminRole",
          "type": "bytes32"
        }
      ],
      "name": "RoleAdminChanged",
      "type": "event"
    },
    {
      "anonymous": false,
      "inputs": [
        {
          "indexed": true,
          "internalType": "bytes32",
          "name": "role",
          "type": "bytes32"
        },
        {
          "indexed": true,
          "internalType": "address",
          "name": "account",
          "type": "address"
        },
        {
          "indexed": true,
          "internalType": "address",
          "name": "sender",
          "type": "address"
        }
      ],
      "name": "RoleGranted",
      "type": "event"
    },
    {
      "anonymous": false,
      "inputs": [
        {
          "indexed": true,
          "internalType": "bytes32",
          "name": "role",
          "type": "bytes32"
        },
        {
          "indexed": true,
          "internalType": "address",
          "name": "account",
          "type": "address"
        },
        {
          "indexed": true,
          "internalType": "address",
          "name": "sender",
          "type": "address"
        }
      ],
      "name": "RoleRevoked",
      "type": "event"
    },
    {
      "inputs": [],
      "name": "DEFAULT_ADMIN_ROLE",
      "outputs": [
        {
          "internalType": "bytes32",
          "name": "",
          "type": "bytes32"
        }
      ],
      "stateMutability": "view",
      "type": "function"
    },
    {
      "inputs": [],
      "name": "MINTER_ROLE",
      "outputs": [
        {
          "internalType": "bytes32",
          "name": "",
          "type": "bytes32"
        }
      ],
      "stateMutability": "view",
      "type": "function"
    },
    {
      "inputs": [
        {
          "internalType": "address",
          "name": "account",
          "type": "address"
        }
      ],
      "name": "addAdmin",
      "outputs": [],
      "stateMutability": "nonpayable",
      "type": "function"
    },
    {
      "inputs": [
        {
          "internalType": "address",
          "name": "",
          "type": "address"
        }
      ],
      "name": "aliveImplementation",
      "outputs": [
        {
          "internalType": "bool",
          "name": "",
          "type": "bool"
        }
      ],
      "stateMutability": "view",
      "type": "function"
    },
    {
      "inputs": [
        {
          "internalType": "bytes",
          "name": "data",
          "type": "bytes"
        }
      ],
      "name": "decodeSyncPackets",
      "outputs": [
        {
          "components": [
            {
              "internalType": "address",
              "name": "layer",
              "type": "address"
            },
            {
              "internalType": "uint256",
              "name": "stakedAmount",
              "type": "uint256"
            }
          ],
          "internalType": "struct LibL1StakedInfo.L1StakedPacket[]",
          "name": "packets",
          "type": "tuple[]"
        }
      ],
      "stateMutability": "pure",
      "type": "function"
    },
    {
      "inputs": [
        {
          "internalType": "address",
          "name": "layer2",
          "type": "address"
        },
        {
          "internalType": "address",
          "name": "account",
          "type": "address"
        },
        {
          "internalType": "uint256",
          "name": "swtonAmount",
          "type": "uint256"
        }
      ],
      "name": "deposit",
      "outputs": [],
      "stateMutability": "nonpayable",
      "type": "function"
    },
    {
      "inputs": [
        {
          "internalType": "bytes32",
          "name": "role",
          "type": "bytes32"
        }
      ],
      "name": "getRoleAdmin",
      "outputs": [
        {
          "internalType": "bytes32",
          "name": "",
          "type": "bytes32"
        }
      ],
      "stateMutability": "view",
      "type": "function"
    },
    {
      "inputs": [
        {
          "internalType": "bytes32",
          "name": "role",
          "type": "bytes32"
        },
        {
          "internalType": "address",
          "name": "account",
          "type": "address"
        }
      ],
      "name": "grantRole",
      "outputs": [],
      "stateMutability": "nonpayable",
      "type": "function"
    },
    {
      "inputs": [
        {
          "internalType": "bytes32",
          "name": "role",
          "type": "bytes32"
        },
        {
          "internalType": "address",
          "name": "account",
          "type": "address"
        }
      ],
      "name": "hasRole",
      "outputs": [
        {
          "internalType": "bool",
          "name": "",
          "type": "bool"
        }
      ],
      "stateMutability": "view",
      "type": "function"
    },
    {
      "inputs": [
        {
          "internalType": "address",
          "name": "l2messanger_",
          "type": "address"
        },
        {
          "internalType": "address",
          "name": "l1Register_",
          "type": "address"
        },
        {
          "internalType": "address",
          "name": "l2SeigManager_",
          "type": "address"
        }
      ],
      "name": "initialize",
      "outputs": [],
      "stateMutability": "nonpayable",
      "type": "function"
    },
    {
      "inputs": [
        {
          "internalType": "address",
          "name": "account",
          "type": "address"
        }
      ],
      "name": "isAdmin",
      "outputs": [
        {
          "internalType": "bool",
          "name": "",
          "type": "bool"
        }
      ],
      "stateMutability": "view",
      "type": "function"
    },
    {
      "inputs": [],
      "name": "isOwner",
      "outputs": [
        {
          "internalType": "bool",
          "name": "",
          "type": "bool"
        }
      ],
      "stateMutability": "view",
      "type": "function"
    },
    {
      "inputs": [],
      "name": "l1Register",
      "outputs": [
        {
          "internalType": "address",
          "name": "",
          "type": "address"
        }
      ],
      "stateMutability": "view",
      "type": "function"
    },
    {
      "inputs": [],
      "name": "l2CrossDomainMessenger",
      "outputs": [
        {
          "internalType": "address",
          "name": "",
          "type": "address"
        }
      ],
      "stateMutability": "view",
      "type": "function"
    },
    {
      "inputs": [],
      "name": "l2SeigManager",
      "outputs": [
        {
          "internalType": "address",
          "name": "",
          "type": "address"
        }
      ],
      "stateMutability": "view",
      "type": "function"
    },
    {
      "inputs": [],
      "name": "pauseProxy",
      "outputs": [
        {
          "internalType": "bool",
          "name": "",
          "type": "bool"
        }
      ],
      "stateMutability": "view",
      "type": "function"
    },
    {
      "inputs": [
        {
          "internalType": "uint256",
          "name": "",
          "type": "uint256"
        }
      ],
      "name": "proxyImplementation",
      "outputs": [
        {
          "internalType": "address",
          "name": "",
          "type": "address"
        }
      ],
      "stateMutability": "view",
      "type": "function"
    },
    {
      "inputs": [
        {
          "internalType": "address",
          "name": "layer2",
          "type": "address"
        },
        {
          "internalType": "uint256",
          "name": "sharePerRay",
          "type": "uint256"
        }
      ],
      "name": "rebaseIndex",
      "outputs": [],
      "stateMutability": "nonpayable",
      "type": "function"
    },
    {
      "inputs": [
        {
          "internalType": "bytes",
          "name": "data",
          "type": "bytes"
        }
      ],
      "name": "register",
      "outputs": [],
      "stateMutability": "nonpayable",
      "type": "function"
    },
    {
      "inputs": [
        {
          "internalType": "address",
          "name": "account",
          "type": "address"
        }
      ],
      "name": "removeAdmin",
      "outputs": [],
      "stateMutability": "nonpayable",
      "type": "function"
    },
    {
      "inputs": [],
      "name": "renounceOwnership",
      "outputs": [],
      "stateMutability": "nonpayable",
      "type": "function"
    },
    {
      "inputs": [
        {
          "internalType": "bytes32",
          "name": "role",
          "type": "bytes32"
        },
        {
          "internalType": "address",
          "name": "account",
          "type": "address"
        }
      ],
      "name": "renounceRole",
      "outputs": [],
      "stateMutability": "nonpayable",
      "type": "function"
    },
    {
      "inputs": [
        {
          "internalType": "bytes32",
          "name": "role",
          "type": "bytes32"
        },
        {
          "internalType": "address",
          "name": "account",
          "type": "address"
        }
      ],
      "name": "revokeRole",
      "outputs": [],
      "stateMutability": "nonpayable",
      "type": "function"
    },
    {
      "inputs": [
        {
          "internalType": "bytes4",
          "name": "",
          "type": "bytes4"
        }
      ],
      "name": "selectorImplementation",
      "outputs": [
        {
          "internalType": "address",
          "name": "",
          "type": "address"
        }
      ],
      "stateMutability": "view",
      "type": "function"
    },
    {
      "inputs": [
        {
          "internalType": "address",
          "name": "l1Register_",
          "type": "address"
        }
      ],
      "name": "setL1Register",
      "outputs": [],
      "stateMutability": "nonpayable",
      "type": "function"
    },
    {
      "inputs": [
        {
          "internalType": "address",
          "name": "l2SeigManager_",
          "type": "address"
        }
      ],
      "name": "setL2SeigManager",
      "outputs": [],
      "stateMutability": "nonpayable",
      "type": "function"
    },
    {
      "inputs": [
        {
          "internalType": "bytes4",
          "name": "interfaceId",
          "type": "bytes4"
        }
      ],
      "name": "supportsInterface",
      "outputs": [
        {
          "internalType": "bool",
          "name": "",
          "type": "bool"
        }
      ],
      "stateMutability": "view",
      "type": "function"
    },
    {
      "inputs": [
        {
          "internalType": "address",
          "name": "newAdmin",
          "type": "address"
        }
      ],
      "name": "transferAdmin",
      "outputs": [],
      "stateMutability": "nonpayable",
      "type": "function"
    },
    {
      "inputs": [
        {
          "internalType": "address",
          "name": "newAdmin",
          "type": "address"
        }
      ],
      "name": "transferOwnership",
      "outputs": [],
      "stateMutability": "nonpayable",
      "type": "function"
    },
    {
      "inputs": [
        {
          "internalType": "address",
          "name": "layer2",
          "type": "address"
        },
        {
          "internalType": "address",
          "name": "account",
          "type": "address"
        },
        {
          "internalType": "uint256",
          "name": "swtonAmount",
          "type": "uint256"
        }
      ],
      "name": "withdraw",
      "outputs": [],
      "stateMutability": "nonpayable",
      "type": "function"
    }
  ],
  "transactionHash": "0xfea2f40e23c4539b71ce30deae2a1c6ae86cbf902e9b3021027b144ea0bf84f5",
  "args": [],
  "numDeployments": 1,
  "solcInputHash": "e9bc916061da788929895f4e0593be18",
  "bytecode": "0x608060405234801561001057600080fd5b506119c8806100206000396000f3fe608060405234801561001057600080fd5b50600436106101da5760003560e01c806375829def11610104578063c0c53b8b116100a2578063d9caed1211610071578063d9caed12146104a5578063da6c82f0146104b8578063f2fde38b146104cb578063fbef005a146104de57600080fd5b8063c0c53b8b14610445578063d539139314610458578063d547741f1461047f578063d75bf0ce1461049257600080fd5b80638f32d59b116100de5780638f32d59b146103a457806391d14854146103db578063a217fddf14610414578063b911135f1461041c57600080fd5b806375829def1461036b57806382fbdc9c1461037e5780638340f5491461039157600080fd5b806335c49c491161017c578063550d01a31161014b578063550d01a31461032057806363a8fd89146103435780637048027514610350578063715018a61461036357600080fd5b806335c49c49146102a657806336568abe146102b957806350d2a276146102cc57806353cd4eac1461030d57600080fd5b806324d7806c116101b857806324d7806c1461024d5780632bd5a6a4146102605780632c570358146102735780632f2ff15d1461029357600080fd5b806301ffc9a7146101df5780631785f53c14610207578063248a9ca31461021c575b600080fd5b6101f26101ed366004611544565b6104f1565b60405190151581526020015b60405180910390f35b61021a61021536600461158a565b610502565b005b61023f61022a3660046115a5565b60009081526005602052604090206001015490565b6040519081526020016101fe565b6101f261025b36600461158a565b610563565b61021a61026e36600461158a565b6105a3565b6102866102813660046115d4565b610659565b6040516101fe91906116d4565b61021a6102a13660046116e7565b61076b565b61021a6102b4366004611713565b610795565b61021a6102c73660046116e7565b61080c565b6102f56102da366004611544565b6003602052600090815260409020546001600160a01b031681565b6040516001600160a01b0390911681526020016101fe565b6006546102f5906001600160a01b031681565b6101f261032e36600461158a565b60026020526000908152604090205460ff1681565b6000546101f29060ff1681565b61021a61035e36600461158a565b610898565b61021a6108f1565b61021a61037936600461158a565b61094c565b61021a61038c3660046115d4565b610a5e565b61021a61039f36600461173d565b610c04565b3360009081527f05b8ccbb9d4d8fb16ea74ce3c29a41f1b461fbdaff4714a0d9a8eb05499746bc602052604090205460ff166101f2565b6101f26103e93660046116e7565b60009182526005602090815260408084206001600160a01b0393909316845291905290205460ff1690565b61023f600081565b6102f561042a3660046115a5565b6001602052600090815260409020546001600160a01b031681565b61021a610453366004611779565b610c8a565b61023f7ff0887ba65ee2024ea881d91b74c2450ef19e1557f03bed3ea9f16b037cbe2dc981565b61021a61048d3660046116e7565b610d17565b6008546102f5906001600160a01b031681565b61021a6104b336600461173d565b610d3c565b61021a6104c636600461158a565b610d7d565b61021a6104d936600461158a565b610e33565b6007546102f5906001600160a01b031681565b60006104fc82610e8a565b92915050565b61050b33610563565b6105555760405162461bcd60e51b8152602060048201526022602482015260008051602061199c83398151915260448201526134b760f11b60648201526084015b60405180910390fd5b61056060008261080c565b50565b6001600160a01b03811660009081527f05b8ccbb9d4d8fb16ea74ce3c29a41f1b461fbdaff4714a0d9a8eb05499746bc602052604081205460ff166104fc565b6105ac33610563565b6105f15760405162461bcd60e51b8152602060048201526022602482015260008051602061199c83398151915260448201526134b760f11b606482015260840161054c565b6008546001600160a01b038083169116036106375760405162461bcd60e51b815260040161054c9060208082526004908201526373616d6560e01b604082015260600190565b600880546001600160a01b0319166001600160a01b0392909216919091179055565b6060600060349050600081845161067091906117d2565b90508067ffffffffffffffff81111561068b5761068b6115be565b6040519080825280602002602001820160405280156106d057816020015b60408051808201909152600080825260208201528152602001906001900390816106a95790505b50925060005b818110156107635760006106f56106ed85846117f4565b879086610eaf565b9050604051806040016040528061071660008461101290919063ffffffff16565b6001600160a01b0316815260200161072f8360146110e2565b8152508583815181106107445761074461180b565b602002602001018190525050808061075b90611821565b9150506106d6565b505050919050565b600082815260056020526040902060010154610786816111a2565b61079083836111ac565b505050565b6006546040516335c49c4960e01b81526001600160a01b03848116600483015260248201849052909116906335c49c49906044016020604051808303816000875af11580156107e8573d6000803e3d6000fd5b505050506040513d601f19601f82011682018060405250810190610790919061183a565b6001600160a01b038116331461088a5760405162461bcd60e51b815260206004820152602f60248201527f416363657373436f6e74726f6c3a2063616e206f6e6c792072656e6f756e636560448201527f20726f6c657320666f722073656c660000000000000000000000000000000000606482015260840161054c565b610894828261124e565b5050565b6108a133610563565b6108e65760405162461bcd60e51b8152602060048201526022602482015260008051602061199c83398151915260448201526134b760f11b606482015260840161054c565b61056060008261076b565b6108fa33610563565b61093f5760405162461bcd60e51b8152602060048201526022602482015260008051602061199c83398151915260448201526134b760f11b606482015260840161054c565b61094a60003361080c565b565b61095533610563565b61099a5760405162461bcd60e51b8152602060048201526022602482015260008051602061199c83398151915260448201526134b760f11b606482015260840161054c565b6001600160a01b0381166109f05760405162461bcd60e51b815260206004820152601860248201527f41636365737369626c653a207a65726f20616464726573730000000000000000604482015260640161054c565b6001600160a01b0381163303610a485760405162461bcd60e51b815260206004820152601660248201527f41636365737369626c653a2073616d652061646d696e00000000000000000000604482015260640161054c565b610a5360008261076b565b61056060003361080c565b6047815111610aaf5760405162461bcd60e51b815260206004820152601260248201527f77726f6e67206279746573206c656e6774680000000000000000000000000000604482015260640161054c565b6000610abb8282611012565b8251909150603490600a906000908390610ad79060149061185c565b610ae191906117d2565b90506000610aef83836117d2565b905081610afc84836117f4565b1015610b105780610b0c81611821565b9150505b60005b81811015610bfb57600081610b2886886117f4565b610b3291906117f4565b610b3d90601461186f565b90506000610b4b86886117f4565b8951909150610b5a828461186f565b1115610b7057818951610b6d919061185c565b90505b6000610b806102818b8585610eaf565b6006546040516303dffced60e51b81529192506001600160a01b031690637bff9da090610bb3908c908590600401611882565b600060405180830381600087803b158015610bcd57600080fd5b505af1158015610be1573d6000803e3d6000fd5b505050505050508080610bf390611821565b915050610b13565b50505050505050565b600654604051638340f54960e01b81526001600160a01b03858116600483015284811660248301526044820184905290911690638340f549906064015b6020604051808303816000875af1158015610c60573d6000803e3d6000fd5b505050506040513d601f19601f82011682018060405250810190610c84919061183a565b50505050565b610c9333610563565b610cd85760405162461bcd60e51b8152602060048201526022602482015260008051602061199c83398151915260448201526134b760f11b606482015260840161054c565b600780546001600160a01b039485166001600160a01b031991821617909155600880549385169382169390931790925560068054919093169116179055565b600082815260056020526040902060010154610d32816111a2565b610790838361124e565b600654604051636ce5768960e11b81526001600160a01b0385811660048301528481166024830152604482018490529091169063d9caed1290606401610c41565b610d8633610563565b610dcb5760405162461bcd60e51b8152602060048201526022602482015260008051602061199c83398151915260448201526134b760f11b606482015260840161054c565b6006546001600160a01b03808316911603610e115760405162461bcd60e51b815260040161054c9060208082526004908201526373616d6560e01b604082015260600190565b600680546001600160a01b0319166001600160a01b0392909216919091179055565b610e3c33610563565b610e815760405162461bcd60e51b8152602060048201526022602482015260008051602061199c83398151915260448201526134b760f11b606482015260840161054c565b6105608161094c565b60006001600160e01b03198216637965db0b60e01b14806104fc57506104fc826112d1565b606081610ebd81601f61186f565b1015610efc5760405162461bcd60e51b815260206004820152600e60248201526d736c6963655f6f766572666c6f7760901b604482015260640161054c565b82610f07838261186f565b1015610f465760405162461bcd60e51b815260206004820152600e60248201526d736c6963655f6f766572666c6f7760901b604482015260640161054c565b610f50828461186f565b84511015610fa05760405162461bcd60e51b815260206004820152601160248201527f736c6963655f6f75744f66426f756e6473000000000000000000000000000000604482015260640161054c565b606082158015610fbf5760405191506000825260208201604052611009565b6040519150601f8416801560200281840101858101878315602002848b0101015b81831015610ff8578051835260209283019201610fe0565b5050858452601f01601f1916604052505b50949350505050565b60008161102081601461186f565b101561106e5760405162461bcd60e51b815260206004820152601260248201527f746f416464726573735f6f766572666c6f770000000000000000000000000000604482015260640161054c565b61107982601461186f565b835110156110c95760405162461bcd60e51b815260206004820152601560248201527f746f416464726573735f6f75744f66426f756e64730000000000000000000000604482015260640161054c565b5001602001516c01000000000000000000000000900490565b6000816110f081602061186f565b101561113e5760405162461bcd60e51b815260206004820152601260248201527f746f55696e743235365f6f766572666c6f770000000000000000000000000000604482015260640161054c565b61114982602061186f565b835110156111995760405162461bcd60e51b815260206004820152601560248201527f746f55696e743235365f6f75744f66426f756e64730000000000000000000000604482015260640161054c565b50016020015190565b610560813361130d565b60008281526005602090815260408083206001600160a01b038516845290915290205460ff166108945760008281526005602090815260408083206001600160a01b03851684529091529020805460ff1916600117905561120a3390565b6001600160a01b0316816001600160a01b0316837f2f8788117e7eff1d82e926ec794901d17c78024a50270940304540a733656f0d60405160405180910390a45050565b60008281526005602090815260408083206001600160a01b038516845290915290205460ff16156108945760008281526005602090815260408083206001600160a01b0385168085529252808320805460ff1916905551339285917ff6391f5c32d9c69d2a47ea670b442974b53935d1edc7fd64eb21e047a839171b9190a45050565b60006301ffc9a760e01b6001600160e01b0319831614806104fc5750506001600160e01b03191660009081526004602052604090205460ff1690565b60008281526005602090815260408083206001600160a01b038516845290915290205460ff166108945761134081611382565b61134b836020611394565b60405160200161135c9291906118d0565b60408051601f198184030181529082905262461bcd60e51b825261054c91600401611951565b60606104fc6001600160a01b03831660145b606060006113a38360026117f4565b6113ae90600261186f565b67ffffffffffffffff8111156113c6576113c66115be565b6040519080825280601f01601f1916602001820160405280156113f0576020820181803683370190505b509050600360fc1b8160008151811061140b5761140b61180b565b60200101906001600160f81b031916908160001a905350600f60fb1b8160018151811061143a5761143a61180b565b60200101906001600160f81b031916908160001a905350600061145e8460026117f4565b61146990600161186f565b90505b60018111156114ee577f303132333435363738396162636465660000000000000000000000000000000085600f16601081106114aa576114aa61180b565b1a60f81b8282815181106114c0576114c061180b565b60200101906001600160f81b031916908160001a90535060049490941c936114e781611984565b905061146c565b50831561153d5760405162461bcd60e51b815260206004820181905260248201527f537472696e67733a20686578206c656e67746820696e73756666696369656e74604482015260640161054c565b9392505050565b60006020828403121561155657600080fd5b81356001600160e01b03198116811461153d57600080fd5b80356001600160a01b038116811461158557600080fd5b919050565b60006020828403121561159c57600080fd5b61153d8261156e565b6000602082840312156115b757600080fd5b5035919050565b634e487b7160e01b600052604160045260246000fd5b6000602082840312156115e657600080fd5b813567ffffffffffffffff808211156115fe57600080fd5b818401915084601f83011261161257600080fd5b813581811115611624576116246115be565b604051601f8201601f19908116603f0116810190838211818310171561164c5761164c6115be565b8160405282815287602084870101111561166557600080fd5b826020860160208301376000928101602001929092525095945050505050565b600081518084526020808501945080840160005b838110156116c957815180516001600160a01b031688528301518388015260409096019590820190600101611699565b509495945050505050565b60208152600061153d6020830184611685565b600080604083850312156116fa57600080fd5b8235915061170a6020840161156e565b90509250929050565b6000806040838503121561172657600080fd5b61172f8361156e565b946020939093013593505050565b60008060006060848603121561175257600080fd5b61175b8461156e565b92506117696020850161156e565b9150604084013590509250925092565b60008060006060848603121561178e57600080fd5b6117978461156e565b92506117a56020850161156e565b91506117b36040850161156e565b90509250925092565b634e487b7160e01b600052601160045260246000fd5b6000826117ef57634e487b7160e01b600052601260045260246000fd5b500490565b80820281158282048414176104fc576104fc6117bc565b634e487b7160e01b600052603260045260246000fd5b600060018201611833576118336117bc565b5060010190565b60006020828403121561184c57600080fd5b8151801515811461153d57600080fd5b818103818111156104fc576104fc6117bc565b808201808211156104fc576104fc6117bc565b6001600160a01b03831681526040602082015260006118a46040830184611685565b949350505050565b60005b838110156118c75781810151838201526020016118af565b50506000910152565b7f416363657373436f6e74726f6c3a206163636f756e74200000000000000000008152600083516119088160178501602088016118ac565b7f206973206d697373696e6720726f6c652000000000000000000000000000000060179184019182015283516119458160288401602088016118ac565b01602801949350505050565b60208152600082518060208401526119708160408501602087016118ac565b601f01601f19169190910160400192915050565b600081611993576119936117bc565b50600019019056fe41636365737369626c653a2043616c6c6572206973206e6f7420616e2061646da164736f6c6343000813000a",
  "devdoc": {
    "events": {
      "RoleAdminChanged(bytes32,bytes32,bytes32)": {
        "details": "Emitted when `newAdminRole` is set as ``role``'s admin role, replacing `previousAdminRole` `DEFAULT_ADMIN_ROLE` is the starting admin for all roles, despite {RoleAdminChanged} not being emitted signaling this. _Available since v3.1._"
      },
      "RoleGranted(bytes32,address,address)": {
        "details": "Emitted when `account` is granted `role`. `sender` is the account that originated the contract call, an admin role bearer except when using {AccessControl-_setupRole}."
      },
      "RoleRevoked(bytes32,address,address)": {
        "details": "Emitted when `account` is revoked `role`. `sender` is the account that originated the contract call:   - if using `revokeRole`, it is the admin role bearer   - if using `renounceRole`, it is the role bearer (i.e. `account`)"
      }
    },
    "kind": "dev",
    "methods": {
      "addAdmin(address)": {
        "details": "add admin",
        "params": {
          "account": "address to add"
        }
      },
      "getRoleAdmin(bytes32)": {
        "details": "Returns the admin role that controls `role`. See {grantRole} and {revokeRole}. To change a role's admin, use {_setRoleAdmin}."
      },
      "grantRole(bytes32,address)": {
        "details": "Grants `role` to `account`. If `account` had not been already granted `role`, emits a {RoleGranted} event. Requirements: - the caller must have ``role``'s admin role. May emit a {RoleGranted} event."
      },
      "hasRole(bytes32,address)": {
        "details": "Returns `true` if `account` has been granted `role`."
      },
      "isAdmin(address)": {
        "details": "whether admin",
        "params": {
          "account": "address to check"
        }
      },
      "removeAdmin(address)": {
        "details": "remove admin",
        "params": {
          "account": "address to remove"
        }
      },
      "renounceRole(bytes32,address)": {
        "details": "Revokes `role` from the calling account. Roles are often managed via {grantRole} and {revokeRole}: this function's purpose is to provide a mechanism for accounts to lose their privileges if they are compromised (such as when a trusted device is misplaced). If the calling account had been revoked `role`, emits a {RoleRevoked} event. Requirements: - the caller must be `account`. May emit a {RoleRevoked} event."
      },
      "revokeRole(bytes32,address)": {
        "details": "Revokes `role` from `account`. If `account` had been granted `role`, emits a {RoleRevoked} event. Requirements: - the caller must have ``role``'s admin role. May emit a {RoleRevoked} event."
      },
      "transferAdmin(address)": {
        "details": "transfer admin",
        "params": {
          "newAdmin": "new admin address"
        }
      }
    },
    "version": 1
  },
  "userdoc": {
    "kind": "user",
    "methods": {},
    "version": 1
  },
  "storageLayout": {
    "storage": [
      {
        "astId": 3612,
        "contract": "contracts/L2/L1StakedTonInL2.sol:L1StakedTonInL2",
        "label": "pauseProxy",
        "offset": 0,
        "slot": "0",
        "type": "t_bool"
      },
      {
        "astId": 3616,
        "contract": "contracts/L2/L1StakedTonInL2.sol:L1StakedTonInL2",
        "label": "proxyImplementation",
        "offset": 0,
        "slot": "1",
        "type": "t_mapping(t_uint256,t_address)"
      },
      {
        "astId": 3620,
        "contract": "contracts/L2/L1StakedTonInL2.sol:L1StakedTonInL2",
        "label": "aliveImplementation",
        "offset": 0,
        "slot": "2",
        "type": "t_mapping(t_address,t_bool)"
      },
      {
        "astId": 3624,
        "contract": "contracts/L2/L1StakedTonInL2.sol:L1StakedTonInL2",
        "label": "selectorImplementation",
        "offset": 0,
        "slot": "3",
        "type": "t_mapping(t_bytes4,t_address)"
      },
      {
        "astId": 674,
        "contract": "contracts/L2/L1StakedTonInL2.sol:L1StakedTonInL2",
        "label": "_supportedInterfaces",
        "offset": 0,
        "slot": "4",
        "type": "t_mapping(t_bytes4,t_bool)"
      },
      {
        "astId": 24,
        "contract": "contracts/L2/L1StakedTonInL2.sol:L1StakedTonInL2",
        "label": "_roles",
        "offset": 0,
        "slot": "5",
        "type": "t_mapping(t_bytes32,t_struct(RoleData)19_storage)"
      },
      {
        "astId": 3091,
        "contract": "contracts/L2/L1StakedTonInL2.sol:L1StakedTonInL2",
        "label": "l2SeigManager",
        "offset": 0,
        "slot": "6",
        "type": "t_address"
      },
      {
        "astId": 3093,
        "contract": "contracts/L2/L1StakedTonInL2.sol:L1StakedTonInL2",
        "label": "l2CrossDomainMessenger",
        "offset": 0,
        "slot": "7",
        "type": "t_address"
      },
      {
        "astId": 3095,
        "contract": "contracts/L2/L1StakedTonInL2.sol:L1StakedTonInL2",
        "label": "l1Register",
        "offset": 0,
        "slot": "8",
        "type": "t_address"
      }
    ],
    "types": {
      "t_address": {
        "encoding": "inplace",
        "label": "address",
        "numberOfBytes": "20"
      },
      "t_bool": {
        "encoding": "inplace",
        "label": "bool",
        "numberOfBytes": "1"
      },
      "t_bytes32": {
        "encoding": "inplace",
        "label": "bytes32",
        "numberOfBytes": "32"
      },
      "t_bytes4": {
        "encoding": "inplace",
        "label": "bytes4",
        "numberOfBytes": "4"
      },
      "t_mapping(t_address,t_bool)": {
        "encoding": "mapping",
        "key": "t_address",
        "label": "mapping(address => bool)",
        "numberOfBytes": "32",
        "value": "t_bool"
      },
      "t_mapping(t_bytes32,t_struct(RoleData)19_storage)": {
        "encoding": "mapping",
        "key": "t_bytes32",
        "label": "mapping(bytes32 => struct AccessControl.RoleData)",
        "numberOfBytes": "32",
        "value": "t_struct(RoleData)19_storage"
      },
      "t_mapping(t_bytes4,t_address)": {
        "encoding": "mapping",
        "key": "t_bytes4",
        "label": "mapping(bytes4 => address)",
        "numberOfBytes": "32",
        "value": "t_address"
      },
      "t_mapping(t_bytes4,t_bool)": {
        "encoding": "mapping",
        "key": "t_bytes4",
        "label": "mapping(bytes4 => bool)",
        "numberOfBytes": "32",
        "value": "t_bool"
      },
      "t_mapping(t_uint256,t_address)": {
        "encoding": "mapping",
        "key": "t_uint256",
        "label": "mapping(uint256 => address)",
        "numberOfBytes": "32",
        "value": "t_address"
      },
      "t_struct(RoleData)19_storage": {
        "encoding": "inplace",
        "label": "struct AccessControl.RoleData",
        "members": [
          {
            "astId": 16,
            "contract": "contracts/L2/L1StakedTonInL2.sol:L1StakedTonInL2",
            "label": "members",
            "offset": 0,
            "slot": "0",
            "type": "t_mapping(t_address,t_bool)"
          },
          {
            "astId": 18,
            "contract": "contracts/L2/L1StakedTonInL2.sol:L1StakedTonInL2",
            "label": "adminRole",
            "offset": 0,
            "slot": "1",
            "type": "t_bytes32"
          }
        ],
        "numberOfBytes": "64"
      },
      "t_uint256": {
        "encoding": "inplace",
        "label": "uint256",
        "numberOfBytes": "32"
      }
    }
  }
}