{
  "address": "0x7dC2928CEa4508fdc54da78a1c27C3B56Ba9e927",
  "abi": [
    {
      "anonymous": false,
      "inputs": [
        {
          "indexed": false,
          "internalType": "address",
          "name": "layer2",
          "type": "address"
        },
        {
          "indexed": false,
          "internalType": "address",
          "name": "account",
          "type": "address"
        },
        {
          "indexed": false,
          "internalType": "uint256",
          "name": "swtonAmount",
          "type": "uint256"
        },
        {
          "indexed": false,
          "internalType": "uint256",
          "name": "lswton",
          "type": "uint256"
        }
      ],
      "name": "Deposited",
      "type": "event"
    },
    {
      "anonymous": false,
      "inputs": [
        {
          "indexed": false,
          "internalType": "uint256",
          "name": "snapshotId",
          "type": "uint256"
        }
      ],
      "name": "OnSnapshot",
      "type": "event"
    },
    {
      "anonymous": false,
      "inputs": [
        {
          "indexed": false,
          "internalType": "address",
          "name": "layer2",
          "type": "address"
        },
        {
          "indexed": false,
          "internalType": "uint256",
          "name": "sharePerRay",
          "type": "uint256"
        },
        {
          "indexed": false,
          "internalType": "uint256",
          "name": "oldIndex",
          "type": "uint256"
        },
        {
          "indexed": false,
          "internalType": "uint256",
          "name": "newIndex",
          "type": "uint256"
        }
      ],
      "name": "RebasedIndex",
      "type": "event"
    },
    {
      "anonymous": false,
      "inputs": [
        {
          "indexed": false,
          "internalType": "address",
          "name": "layer2",
          "type": "address"
        },
        {
          "indexed": false,
          "internalType": "address",
          "name": "account",
          "type": "address"
        },
        {
          "indexed": false,
          "internalType": "uint256",
          "name": "oldLswton",
          "type": "uint256"
        },
        {
          "indexed": false,
          "internalType": "uint256",
          "name": "lswton",
          "type": "uint256"
        },
        {
          "indexed": false,
          "internalType": "uint256",
          "name": "tlswton",
          "type": "uint256"
        }
      ],
      "name": "Replaced",
      "type": "event"
    },
    {
      "anonymous": false,
      "inputs": [
        {
          "indexed": true,
          "internalType": "bytes32",
          "name": "role",
          "type": "bytes32"
        },
        {
          "indexed": true,
          "internalType": "bytes32",
          "name": "previousAdminRole",
          "type": "bytes32"
        },
        {
          "indexed": true,
          "internalType": "bytes32",
          "name": "newAdminRole",
          "type": "bytes32"
        }
      ],
      "name": "RoleAdminChanged",
      "type": "event"
    },
    {
      "anonymous": false,
      "inputs": [
        {
          "indexed": true,
          "internalType": "bytes32",
          "name": "role",
          "type": "bytes32"
        },
        {
          "indexed": true,
          "internalType": "address",
          "name": "account",
          "type": "address"
        },
        {
          "indexed": true,
          "internalType": "address",
          "name": "sender",
          "type": "address"
        }
      ],
      "name": "RoleGranted",
      "type": "event"
    },
    {
      "anonymous": false,
      "inputs": [
        {
          "indexed": true,
          "internalType": "bytes32",
          "name": "role",
          "type": "bytes32"
        },
        {
          "indexed": true,
          "internalType": "address",
          "name": "account",
          "type": "address"
        },
        {
          "indexed": true,
          "internalType": "address",
          "name": "sender",
          "type": "address"
        }
      ],
      "name": "RoleRevoked",
      "type": "event"
    },
    {
      "anonymous": false,
      "inputs": [
        {
          "indexed": false,
          "internalType": "address",
          "name": "layer2",
          "type": "address"
        },
        {
          "indexed": false,
          "internalType": "address",
          "name": "account",
          "type": "address"
        },
        {
          "indexed": false,
          "internalType": "uint256",
          "name": "swtonAmount",
          "type": "uint256"
        },
        {
          "indexed": false,
          "internalType": "uint256",
          "name": "lswton",
          "type": "uint256"
        }
      ],
      "name": "Withdrawal",
      "type": "event"
    },
    {
      "inputs": [],
      "name": "CHALLENGER_ROLE",
      "outputs": [
        {
          "internalType": "bytes32",
          "name": "",
          "type": "bytes32"
        }
      ],
      "stateMutability": "view",
      "type": "function"
    },
    {
      "inputs": [],
      "name": "DEFAULT_ADMIN_ROLE",
      "outputs": [
        {
          "internalType": "bytes32",
          "name": "",
          "type": "bytes32"
        }
      ],
      "stateMutability": "view",
      "type": "function"
    },
    {
      "inputs": [],
      "name": "DEFAULT_FACTOR",
      "outputs": [
        {
          "internalType": "uint256",
          "name": "",
          "type": "uint256"
        }
      ],
      "stateMutability": "view",
      "type": "function"
    },
    {
      "inputs": [],
      "name": "MINTER_ROLE",
      "outputs": [
        {
          "internalType": "bytes32",
          "name": "",
          "type": "bytes32"
        }
      ],
      "stateMutability": "view",
      "type": "function"
    },
    {
      "inputs": [],
      "name": "OPERATOR_ROLE",
      "outputs": [
        {
          "internalType": "bytes32",
          "name": "",
          "type": "bytes32"
        }
      ],
      "stateMutability": "view",
      "type": "function"
    },
    {
      "inputs": [],
      "name": "PAUSE_ROLE",
      "outputs": [
        {
          "internalType": "bytes32",
          "name": "",
          "type": "bytes32"
        }
      ],
      "stateMutability": "view",
      "type": "function"
    },
    {
      "inputs": [
        {
          "internalType": "address",
          "name": "account",
          "type": "address"
        }
      ],
      "name": "addAdmin",
      "outputs": [],
      "stateMutability": "nonpayable",
      "type": "function"
    },
    {
      "inputs": [
        {
          "internalType": "address",
          "name": "account",
          "type": "address"
        }
      ],
      "name": "addChallenger",
      "outputs": [],
      "stateMutability": "nonpayable",
      "type": "function"
    },
    {
      "inputs": [
        {
          "internalType": "address[]",
          "name": "layer2s",
          "type": "address[]"
        }
      ],
      "name": "addLayers",
      "outputs": [],
      "stateMutability": "nonpayable",
      "type": "function"
    },
    {
      "inputs": [
        {
          "internalType": "address",
          "name": "account",
          "type": "address"
        }
      ],
      "name": "addMinter",
      "outputs": [],
      "stateMutability": "nonpayable",
      "type": "function"
    },
    {
      "inputs": [
        {
          "internalType": "address",
          "name": "account",
          "type": "address"
        }
      ],
      "name": "addOperator",
      "outputs": [],
      "stateMutability": "nonpayable",
      "type": "function"
    },
    {
      "inputs": [
        {
          "internalType": "address",
          "name": "",
          "type": "address"
        }
      ],
      "name": "aliveImplementation",
      "outputs": [
        {
          "internalType": "bool",
          "name": "",
          "type": "bool"
        }
      ],
      "stateMutability": "view",
      "type": "function"
    },
    {
      "inputs": [
        {
          "internalType": "address",
          "name": "account",
          "type": "address"
        }
      ],
      "name": "balanceOf",
      "outputs": [
        {
          "internalType": "uint256",
          "name": "amount",
          "type": "uint256"
        }
      ],
      "stateMutability": "view",
      "type": "function"
    },
    {
      "inputs": [
        {
          "internalType": "address",
          "name": "layer2",
          "type": "address"
        },
        {
          "internalType": "address",
          "name": "account",
          "type": "address"
        }
      ],
      "name": "balanceOf",
      "outputs": [
        {
          "internalType": "uint256",
          "name": "",
          "type": "uint256"
        }
      ],
      "stateMutability": "view",
      "type": "function"
    },
    {
      "inputs": [
        {
          "internalType": "address",
          "name": "account",
          "type": "address"
        },
        {
          "internalType": "uint256",
          "name": "snapshotId",
          "type": "uint256"
        }
      ],
      "name": "balanceOfAt",
      "outputs": [
        {
          "internalType": "uint256",
          "name": "amount",
          "type": "uint256"
        }
      ],
      "stateMutability": "view",
      "type": "function"
    },
    {
      "inputs": [
        {
          "internalType": "address",
          "name": "layer2",
          "type": "address"
        },
        {
          "internalType": "address",
          "name": "account",
          "type": "address"
        },
        {
          "internalType": "uint256",
          "name": "snapshotId",
          "type": "uint256"
        }
      ],
      "name": "balanceOfAt",
      "outputs": [
        {
          "internalType": "uint256",
          "name": "amount",
          "type": "uint256"
        }
      ],
      "stateMutability": "view",
      "type": "function"
    },
    {
      "inputs": [],
      "name": "decimals",
      "outputs": [
        {
          "internalType": "uint256",
          "name": "",
          "type": "uint256"
        }
      ],
      "stateMutability": "pure",
      "type": "function"
    },
    {
      "inputs": [
        {
          "internalType": "address",
          "name": "layer2",
          "type": "address"
        },
        {
          "internalType": "address",
          "name": "account",
          "type": "address"
        },
        {
          "internalType": "uint256",
          "name": "swtonAmount",
          "type": "uint256"
        }
      ],
      "name": "deposit",
      "outputs": [
        {
          "internalType": "bool",
          "name": "",
          "type": "bool"
        }
      ],
      "stateMutability": "nonpayable",
      "type": "function"
    },
    {
      "inputs": [
        {
          "internalType": "address",
          "name": "layer2",
          "type": "address"
        }
      ],
      "name": "getIndex",
      "outputs": [
        {
          "internalType": "uint256",
          "name": "",
          "type": "uint256"
        }
      ],
      "stateMutability": "view",
      "type": "function"
    },
    {
      "inputs": [
        {
          "internalType": "address",
          "name": "layer2",
          "type": "address"
        },
        {
          "internalType": "uint256",
          "name": "snapshotId",
          "type": "uint256"
        }
      ],
      "name": "getIndexAt",
      "outputs": [
        {
          "internalType": "uint256",
          "name": "",
          "type": "uint256"
        }
      ],
      "stateMutability": "view",
      "type": "function"
    },
    {
      "inputs": [],
      "name": "getL1LayersNum",
      "outputs": [
        {
          "internalType": "uint256",
          "name": "",
          "type": "uint256"
        }
      ],
      "stateMutability": "view",
      "type": "function"
    },
    {
      "inputs": [
        {
          "internalType": "address",
          "name": "layer2",
          "type": "address"
        },
        {
          "internalType": "uint256",
          "name": "lswton_",
          "type": "uint256"
        }
      ],
      "name": "getLswtonToSwton",
      "outputs": [
        {
          "internalType": "uint256",
          "name": "",
          "type": "uint256"
        }
      ],
      "stateMutability": "view",
      "type": "function"
    },
    {
      "inputs": [
        {
          "internalType": "bytes32",
          "name": "role",
          "type": "bytes32"
        }
      ],
      "name": "getRoleAdmin",
      "outputs": [
        {
          "internalType": "bytes32",
          "name": "",
          "type": "bytes32"
        }
      ],
      "stateMutability": "view",
      "type": "function"
    },
    {
      "inputs": [
        {
          "internalType": "address",
          "name": "layer2",
          "type": "address"
        },
        {
          "internalType": "address",
          "name": "account",
          "type": "address"
        }
      ],
      "name": "getStakedInfo",
      "outputs": [
        {
          "components": [
            {
              "internalType": "uint256",
              "name": "deposit",
              "type": "uint256"
            },
            {
              "internalType": "uint256",
              "name": "lswton",
              "type": "uint256"
            }
          ],
          "internalType": "struct LibL2StakedInfo.StakedInfo",
          "name": "",
          "type": "tuple"
        }
      ],
      "stateMutability": "view",
      "type": "function"
    },
    {
      "inputs": [
        {
          "internalType": "address",
          "name": "layer2",
          "type": "address"
        },
        {
          "internalType": "address",
          "name": "account",
          "type": "address"
        },
        {
          "internalType": "uint256",
          "name": "snapshotId",
          "type": "uint256"
        }
      ],
      "name": "getStakedInfoAt",
      "outputs": [
        {
          "components": [
            {
              "internalType": "uint256",
              "name": "deposit",
              "type": "uint256"
            },
            {
              "internalType": "uint256",
              "name": "lswton",
              "type": "uint256"
            }
          ],
          "internalType": "struct LibL2StakedInfo.StakedInfo",
          "name": "",
          "type": "tuple"
        }
      ],
      "stateMutability": "view",
      "type": "function"
    },
    {
      "inputs": [
        {
          "internalType": "address",
          "name": "layer2",
          "type": "address"
        },
        {
          "internalType": "uint256",
          "name": "amount",
          "type": "uint256"
        }
      ],
      "name": "getSwtonToLswton",
      "outputs": [
        {
          "internalType": "uint256",
          "name": "",
          "type": "uint256"
        }
      ],
      "stateMutability": "view",
      "type": "function"
    },
    {
      "inputs": [
        {
          "internalType": "address",
          "name": "layer2",
          "type": "address"
        }
      ],
      "name": "getTotalLswton",
      "outputs": [
        {
          "internalType": "uint256",
          "name": "",
          "type": "uint256"
        }
      ],
      "stateMutability": "view",
      "type": "function"
    },
    {
      "inputs": [
        {
          "internalType": "address",
          "name": "layer2",
          "type": "address"
        },
        {
          "internalType": "uint256",
          "name": "snapshotId",
          "type": "uint256"
        }
      ],
      "name": "getTotalLswtonAt",
      "outputs": [
        {
          "internalType": "uint256",
          "name": "",
          "type": "uint256"
        }
      ],
      "stateMutability": "view",
      "type": "function"
    },
    {
      "inputs": [
        {
          "internalType": "bytes32",
          "name": "role",
          "type": "bytes32"
        },
        {
          "internalType": "address",
          "name": "account",
          "type": "address"
        }
      ],
      "name": "grantRole",
      "outputs": [],
      "stateMutability": "nonpayable",
      "type": "function"
    },
    {
      "inputs": [
        {
          "internalType": "bytes32",
          "name": "role",
          "type": "bytes32"
        },
        {
          "internalType": "address",
          "name": "account",
          "type": "address"
        }
      ],
      "name": "hasRole",
      "outputs": [
        {
          "internalType": "bool",
          "name": "",
          "type": "bool"
        }
      ],
      "stateMutability": "view",
      "type": "function"
    },
    {
      "inputs": [
        {
          "internalType": "address",
          "name": "",
          "type": "address"
        },
        {
          "internalType": "uint256",
          "name": "",
          "type": "uint256"
        }
      ],
      "name": "index",
      "outputs": [
        {
          "internalType": "uint256",
          "name": "",
          "type": "uint256"
        }
      ],
      "stateMutability": "view",
      "type": "function"
    },
    {
      "inputs": [
        {
          "internalType": "address",
          "name": "l1StakedTonInL2_",
          "type": "address"
        },
        {
          "internalType": "address",
          "name": "l2messanger_",
          "type": "address"
        }
      ],
      "name": "initialize",
      "outputs": [],
      "stateMutability": "nonpayable",
      "type": "function"
    },
    {
      "inputs": [
        {
          "internalType": "address",
          "name": "account",
          "type": "address"
        }
      ],
      "name": "isAdmin",
      "outputs": [
        {
          "internalType": "bool",
          "name": "",
          "type": "bool"
        }
      ],
      "stateMutability": "view",
      "type": "function"
    },
    {
      "inputs": [
        {
          "internalType": "address",
          "name": "account",
          "type": "address"
        }
      ],
      "name": "isChallenger",
      "outputs": [
        {
          "internalType": "bool",
          "name": "",
          "type": "bool"
        }
      ],
      "stateMutability": "view",
      "type": "function"
    },
    {
      "inputs": [
        {
          "internalType": "address",
          "name": "account",
          "type": "address"
        }
      ],
      "name": "isMinter",
      "outputs": [
        {
          "internalType": "bool",
          "name": "",
          "type": "bool"
        }
      ],
      "stateMutability": "view",
      "type": "function"
    },
    {
      "inputs": [
        {
          "internalType": "address",
          "name": "account",
          "type": "address"
        }
      ],
      "name": "isOperator",
      "outputs": [
        {
          "internalType": "bool",
          "name": "",
          "type": "bool"
        }
      ],
      "stateMutability": "view",
      "type": "function"
    },
    {
      "inputs": [],
      "name": "isOwner",
      "outputs": [
        {
          "internalType": "bool",
          "name": "",
          "type": "bool"
        }
      ],
      "stateMutability": "view",
      "type": "function"
    },
    {
      "inputs": [],
      "name": "l1StakedTonInL2",
      "outputs": [
        {
          "internalType": "address",
          "name": "",
          "type": "address"
        }
      ],
      "stateMutability": "view",
      "type": "function"
    },
    {
      "inputs": [
        {
          "internalType": "uint256",
          "name": "",
          "type": "uint256"
        }
      ],
      "name": "l1layer2s",
      "outputs": [
        {
          "internalType": "address",
          "name": "",
          "type": "address"
        }
      ],
      "stateMutability": "view",
      "type": "function"
    },
    {
      "inputs": [],
      "name": "l2CrossDomainMessenger",
      "outputs": [
        {
          "internalType": "address",
          "name": "",
          "type": "address"
        }
      ],
      "stateMutability": "view",
      "type": "function"
    },
    {
      "inputs": [],
      "name": "lastSnapshotId",
      "outputs": [
        {
          "internalType": "uint256",
          "name": "",
          "type": "uint256"
        }
      ],
      "stateMutability": "view",
      "type": "function"
    },
    {
      "inputs": [
        {
          "internalType": "address",
          "name": "",
          "type": "address"
        },
        {
          "internalType": "uint256",
          "name": "",
          "type": "uint256"
        }
      ],
      "name": "layerIndexSnapshotIds",
      "outputs": [
        {
          "internalType": "uint256",
          "name": "",
          "type": "uint256"
        }
      ],
      "stateMutability": "view",
      "type": "function"
    },
    {
      "inputs": [
        {
          "internalType": "address",
          "name": "",
          "type": "address"
        },
        {
          "internalType": "uint256",
          "name": "",
          "type": "uint256"
        }
      ],
      "name": "layerTlswtonSnapshotIds",
      "outputs": [
        {
          "internalType": "uint256",
          "name": "",
          "type": "uint256"
        }
      ],
      "stateMutability": "view",
      "type": "function"
    },
    {
      "inputs": [],
      "name": "name",
      "outputs": [
        {
          "internalType": "string",
          "name": "",
          "type": "string"
        }
      ],
      "stateMutability": "pure",
      "type": "function"
    },
    {
      "inputs": [],
      "name": "onSnapshot",
      "outputs": [
        {
          "internalType": "uint256",
          "name": "snapshotId",
          "type": "uint256"
        }
      ],
      "stateMutability": "nonpayable",
      "type": "function"
    },
    {
      "inputs": [],
      "name": "pauseProxy",
      "outputs": [
        {
          "internalType": "bool",
          "name": "",
          "type": "bool"
        }
      ],
      "stateMutability": "view",
      "type": "function"
    },
    {
      "inputs": [],
      "name": "progressSnapshotId",
      "outputs": [
        {
          "internalType": "uint256",
          "name": "",
          "type": "uint256"
        }
      ],
      "stateMutability": "view",
      "type": "function"
    },
    {
      "inputs": [
        {
          "internalType": "uint256",
          "name": "",
          "type": "uint256"
        }
      ],
      "name": "proxyImplementation",
      "outputs": [
        {
          "internalType": "address",
          "name": "",
          "type": "address"
        }
      ],
      "stateMutability": "view",
      "type": "function"
    },
    {
      "inputs": [
        {
          "internalType": "address",
          "name": "layer2",
          "type": "address"
        },
        {
          "internalType": "uint256",
          "name": "sharePerRay",
          "type": "uint256"
        }
      ],
      "name": "rebaseIndex",
      "outputs": [
        {
          "internalType": "bool",
          "name": "",
          "type": "bool"
        }
      ],
      "stateMutability": "nonpayable",
      "type": "function"
    },
    {
      "inputs": [
        {
          "internalType": "address",
          "name": "account",
          "type": "address"
        },
        {
          "components": [
            {
              "internalType": "address",
              "name": "layer",
              "type": "address"
            },
            {
              "internalType": "uint256",
              "name": "stakedAmount",
              "type": "uint256"
            }
          ],
          "internalType": "struct LibL1StakedInfo.L1StakedPacket[]",
          "name": "packets",
          "type": "tuple[]"
        }
      ],
      "name": "register",
      "outputs": [
        {
          "internalType": "bool",
          "name": "",
          "type": "bool"
        }
      ],
      "stateMutability": "nonpayable",
      "type": "function"
    },
    {
      "inputs": [
        {
          "internalType": "address",
          "name": "account",
          "type": "address"
        }
      ],
      "name": "removeAdmin",
      "outputs": [],
      "stateMutability": "nonpayable",
      "type": "function"
    },
    {
      "inputs": [
        {
          "internalType": "address",
          "name": "account",
          "type": "address"
        }
      ],
      "name": "removeChallenger",
      "outputs": [],
      "stateMutability": "nonpayable",
      "type": "function"
    },
    {
      "inputs": [
        {
          "internalType": "address",
          "name": "account",
          "type": "address"
        }
      ],
      "name": "removeMinter",
      "outputs": [],
      "stateMutability": "nonpayable",
      "type": "function"
    },
    {
      "inputs": [
        {
          "internalType": "address",
          "name": "account",
          "type": "address"
        }
      ],
      "name": "removeOperator",
      "outputs": [],
      "stateMutability": "nonpayable",
      "type": "function"
    },
    {
      "inputs": [],
      "name": "renounceChallenger",
      "outputs": [],
      "stateMutability": "nonpayable",
      "type": "function"
    },
    {
      "inputs": [],
      "name": "renounceMinter",
      "outputs": [],
      "stateMutability": "nonpayable",
      "type": "function"
    },
    {
      "inputs": [],
      "name": "renounceOperator",
      "outputs": [],
      "stateMutability": "nonpayable",
      "type": "function"
    },
    {
      "inputs": [],
      "name": "renounceOwnership",
      "outputs": [],
      "stateMutability": "nonpayable",
      "type": "function"
    },
    {
      "inputs": [
        {
          "internalType": "bytes32",
          "name": "role",
          "type": "bytes32"
        },
        {
          "internalType": "address",
          "name": "account",
          "type": "address"
        }
      ],
      "name": "renounceRole",
      "outputs": [],
      "stateMutability": "nonpayable",
      "type": "function"
    },
    {
      "inputs": [
        {
          "internalType": "address",
          "name": "account",
          "type": "address"
        }
      ],
      "name": "revokeChallenger",
      "outputs": [],
      "stateMutability": "nonpayable",
      "type": "function"
    },
    {
      "inputs": [
        {
          "internalType": "address",
          "name": "account",
          "type": "address"
        }
      ],
      "name": "revokeMinter",
      "outputs": [],
      "stateMutability": "nonpayable",
      "type": "function"
    },
    {
      "inputs": [
        {
          "internalType": "address",
          "name": "account",
          "type": "address"
        }
      ],
      "name": "revokeOperator",
      "outputs": [],
      "stateMutability": "nonpayable",
      "type": "function"
    },
    {
      "inputs": [
        {
          "internalType": "bytes32",
          "name": "role",
          "type": "bytes32"
        },
        {
          "internalType": "address",
          "name": "account",
          "type": "address"
        }
      ],
      "name": "revokeRole",
      "outputs": [],
      "stateMutability": "nonpayable",
      "type": "function"
    },
    {
      "inputs": [
        {
          "internalType": "bytes4",
          "name": "",
          "type": "bytes4"
        }
      ],
      "name": "selectorImplementation",
      "outputs": [
        {
          "internalType": "address",
          "name": "",
          "type": "address"
        }
      ],
      "stateMutability": "view",
      "type": "function"
    },
    {
      "inputs": [
        {
          "internalType": "address",
          "name": "",
          "type": "address"
        },
        {
          "internalType": "address",
          "name": "",
          "type": "address"
        },
        {
          "internalType": "uint256",
          "name": "",
          "type": "uint256"
        }
      ],
      "name": "stakedInfo",
      "outputs": [
        {
          "internalType": "uint256",
          "name": "deposit",
          "type": "uint256"
        },
        {
          "internalType": "uint256",
          "name": "lswton",
          "type": "uint256"
        }
      ],
      "stateMutability": "view",
      "type": "function"
    },
    {
      "inputs": [
        {
          "internalType": "address",
          "name": "",
          "type": "address"
        },
        {
          "internalType": "address",
          "name": "",
          "type": "address"
        },
        {
          "internalType": "uint256",
          "name": "",
          "type": "uint256"
        }
      ],
      "name": "stakedInfoSnapshotIds",
      "outputs": [
        {
          "internalType": "uint256",
          "name": "",
          "type": "uint256"
        }
      ],
      "stateMutability": "view",
      "type": "function"
    },
    {
      "inputs": [
        {
          "internalType": "bytes4",
          "name": "interfaceId",
          "type": "bytes4"
        }
      ],
      "name": "supportsInterface",
      "outputs": [
        {
          "internalType": "bool",
          "name": "",
          "type": "bool"
        }
      ],
      "stateMutability": "view",
      "type": "function"
    },
    {
      "inputs": [],
      "name": "symbol",
      "outputs": [
        {
          "internalType": "string",
          "name": "",
          "type": "string"
        }
      ],
      "stateMutability": "pure",
      "type": "function"
    },
    {
      "inputs": [
        {
          "internalType": "address",
          "name": "",
          "type": "address"
        },
        {
          "internalType": "uint256",
          "name": "",
          "type": "uint256"
        }
      ],
      "name": "totalLswton",
      "outputs": [
        {
          "internalType": "uint256",
          "name": "",
          "type": "uint256"
        }
      ],
      "stateMutability": "view",
      "type": "function"
    },
    {
      "inputs": [],
      "name": "totalSupply",
      "outputs": [
        {
          "internalType": "uint256",
          "name": "amount",
          "type": "uint256"
        }
      ],
      "stateMutability": "view",
      "type": "function"
    },
    {
      "inputs": [
        {
          "internalType": "address",
          "name": "layer2",
          "type": "address"
        }
      ],
      "name": "totalSupply",
      "outputs": [
        {
          "internalType": "uint256",
          "name": "amount",
          "type": "uint256"
        }
      ],
      "stateMutability": "view",
      "type": "function"
    },
    {
      "inputs": [
        {
          "internalType": "address",
          "name": "layer2",
          "type": "address"
        },
        {
          "internalType": "uint256",
          "name": "snapshotId",
          "type": "uint256"
        }
      ],
      "name": "totalSupplyAt",
      "outputs": [
        {
          "internalType": "uint256",
          "name": "amount",
          "type": "uint256"
        }
      ],
      "stateMutability": "view",
      "type": "function"
    },
    {
      "inputs": [
        {
          "internalType": "uint256",
          "name": "snapshotId",
          "type": "uint256"
        }
      ],
      "name": "totalSupplyAt",
      "outputs": [
        {
          "internalType": "uint256",
          "name": "amount",
          "type": "uint256"
        }
      ],
      "stateMutability": "view",
      "type": "function"
    },
    {
      "inputs": [
        {
          "internalType": "address",
          "name": "newAdmin",
          "type": "address"
        }
      ],
      "name": "transferAdmin",
      "outputs": [],
      "stateMutability": "nonpayable",
      "type": "function"
    },
    {
      "inputs": [
        {
          "internalType": "address",
          "name": "newAdmin",
          "type": "address"
        }
      ],
      "name": "transferOwnership",
      "outputs": [],
      "stateMutability": "nonpayable",
      "type": "function"
    },
    {
      "inputs": [
        {
          "internalType": "address",
          "name": "layer2",
          "type": "address"
        },
        {
          "internalType": "address",
          "name": "account",
          "type": "address"
        }
      ],
      "name": "viewStakedInfo",
      "outputs": [
        {
          "components": [
            {
              "internalType": "uint256",
              "name": "deposit",
              "type": "uint256"
            },
            {
              "internalType": "uint256",
              "name": "lswton",
              "type": "uint256"
            }
          ],
          "internalType": "struct LibL2StakedInfo.StakedInfo",
          "name": "",
          "type": "tuple"
        }
      ],
      "stateMutability": "view",
      "type": "function"
    },
    {
      "inputs": [
        {
          "internalType": "address",
          "name": "layer2",
          "type": "address"
        },
        {
          "internalType": "address",
          "name": "account",
          "type": "address"
        },
        {
          "internalType": "uint256",
          "name": "swtonAmount",
          "type": "uint256"
        }
      ],
      "name": "withdraw",
      "outputs": [
        {
          "internalType": "bool",
          "name": "",
          "type": "bool"
        }
      ],
      "stateMutability": "nonpayable",
      "type": "function"
    }
  ],
  "transactionHash": "0x53d89582a2ebaa07c53203685d2ba722d4cc62f05f141ce298d67c669530c955",
  "args": [],
  "numDeployments": 1,
  "solcInputHash": "638122c50927b07174622ead45e51663",
  "bytecode": "0x608060405234801561001057600080fd5b506131d1806100206000396000f3fe608060405234801561001057600080fd5b506004361061052f5760003560e01c806382799e37116102bc578063ac8a584a11610186578063d9caed12116100e3578063f5b541a611610097578063fad8b32a1161007c578063fad8b32a14610c02578063fbef005a14610c15578063fe42e55e14610c2857600080fd5b8063f5b541a614610bc8578063f7888aec14610bef57600080fd5b8063eda3e6d4116100c8578063eda3e6d414610b8f578063ef0d942414610ba2578063f2fde38b14610bb557600080fd5b8063d9caed1214610b69578063e4dc2aa414610b7c57600080fd5b8063cd10737e1161013a578063cfbfb7de1161011f578063cfbfb7de14610b1c578063d539139314610b2f578063d547741f14610b5657600080fd5b8063cd10737e14610af6578063cfbd488514610b0957600080fd5b8063b911135f1161016b578063b911135f14610aa7578063bfe64c6614610ad0578063c870ad8614610ae357600080fd5b8063ac8a584a14610a81578063b31610db14610a9457600080fd5b806395d89b41116102345780639aaa3f73116101e8578063a217fddf116101cd578063a217fddf14610a53578063a415d8dc14610a5b578063aa271e1a14610a6e57600080fd5b80639aaa3f7314610a155780639bc3db8e14610a2857600080fd5b8063983b2d5611610219578063983b2d56146109e757806398650275146109fa5780639870d7fe14610a0257600080fd5b806395d89b41146109b0578063981b24d0146109d457600080fd5b80638bf91dc41161028b5780638dccb481116102705780638dccb4811461092d5780638f32d59b1461094057806391d148541461097757600080fd5b80638bf91dc4146109075780638c09d4ee1461091a57600080fd5b806382799e371461088b5780638340f5491461089e578063837afbc0146108b15780638970eb40146108ba57600080fd5b80633da42456116103fd5780635c90b858116103755780637048027511610329578063715018a61161030e578063715018a61461085d57806375829def146108655780637bff9da01461087857600080fd5b8063704802751461083757806370a082311461084a57600080fd5b80636c578c1d1161035a5780636c578c1d146107fe5780636d4e53ce146108115780636d70f7ae1461082457600080fd5b80635c90b858146107e957806363a8fd89146107f157600080fd5b8063530adbb4116103cc57806358982503116103b157806358982503146107a357806358d00cd6146107b657806359fc1a6e146107be57600080fd5b8063530adbb414610759578063550d01a31461078057600080fd5b80633da42456146106f7578063485cc9551461070a5780634ee2cd7e1461071d57806350d2a2761461073057600080fd5b806325e90db4116104ab57806334b0157a1161045f57806336568abe1161044457806336568abe146106aa578063389ed267146106bd5780633c491173146106e457600080fd5b806334b0157a1461066c57806335c49c491461069757600080fd5b80632f2ff15d116104905780632f2ff15d1461063f5780633092afd514610652578063313ce5671461066557600080fd5b806325e90db41461062f5780632ab6f8db1461063757600080fd5b8063139770421161050257806318160ddd116104e757806318160ddd146105f1578063248a9ca3146105f957806324d7806c1461061c57600080fd5b806313977042146105cc5780631785f53c146105de57600080fd5b806301ffc9a71461053457806306fdde031461055c5780630a782189146105895780630ceb6780146105b7575b600080fd5b610547610542366004612cb8565b610c3b565b60405190151581526020015b60405180910390f35b6040805180820190915260088152675377746f6e204c3160c01b60208201525b6040516105539190612d06565b61059c610597366004612d55565b610c4c565b60408051825181526020928301519281019290925201610553565b6105ca6105c5366004612d88565b610c71565b005b6006545b604051908152602001610553565b6105ca6105ec366004612d88565b610d31565b6105d0610d61565b6105d0610607366004612da3565b60009081526005602052604090206001015490565b61054761062a366004612d88565b610dd8565b6105ca610e18565b6105ca610e44565b6105ca61064d366004612dbc565b610e6e565b6105ca610660366004612d88565b610e98565b601b6105d0565b61067f61067a366004612da3565b610ee7565b6040516001600160a01b039091168152602001610553565b6105476106a5366004612ddf565b610f11565b6105ca6106b8366004612dbc565b61105c565b6105d07ffcb9fcbfa83b897fb2d5cf4b58962164105c1e71489a37ef3ae0db3fdce576f681565b6105ca6106f2366004612d88565b6110e8565b6105ca610705366004612e9d565b611137565b6105ca610718366004612d55565b6112a7565b6105d061072b366004612ddf565b6112fa565b61067f61073e366004612cb8565b6003602052600090815260409020546001600160a01b031681565b6105d07fbf02bad7114723a857a3af46cea17b778a3a951c96f183784d9a2448cc479ab681565b61054761078e366004612d88565b60026020526000908152604090205460ff1681565b6105d06107b1366004612ddf565b611382565b6105d061138e565b6105d06107cc366004612ddf565b600a60209081526000928352604080842090915290825290205481565b6010546105d0565b6000546105479060ff1681565b6105ca61080c366004612d88565b6113dc565b6105d061081f366004612ddf565b61142b565b610547610832366004612d88565b611467565b6105ca610845366004612d88565b6114a7565b6105d0610858366004612d88565b6114d7565b6105ca61155d565b6105ca610873366004612d88565b61158d565b610547610886366004612f3a565b611676565b6105d0610899366004612ddf565b61179d565b6105476108ac366004613009565b6117ad565b6105d060065481565b6108f26108c8366004613009565b600e6020908152600093845260408085208252928452828420905282529020805460019091015482565b60408051928352602083019190915201610553565b6105d06b033b2e3c9fd0803ce800000081565b60075461067f906001600160a01b031681565b6105d061093b366004612ddf565b6118de565b3360009081527f05b8ccbb9d4d8fb16ea74ce3c29a41f1b461fbdaff4714a0d9a8eb05499746bc602052604090205460ff16610547565b610547610985366004612dbc565b60009182526005602090815260408084206001600160a01b0393909316845291905290205460ff1690565b6040805180820190915260088152675357544f4e5f4c3160c01b602082015261057c565b6105d06109e2366004612da3565b61190f565b6105ca6109f5366004612d88565b611982565b6105ca6119d1565b6105ca610a10366004612d88565b6119fb565b6105d0610a23366004612ddf565b611a4a565b6105d0610a36366004612ddf565b600c60209081526000928352604080842090915290825290205481565b6105d0600081565b610547610a69366004612d88565b611a56565b610547610a7c366004612d88565b611a96565b6105ca610a8f366004612d88565b611ad6565b6105d0610aa2366004612d88565b611b25565b61067f610ab5366004612da3565b6001602052600090815260409020546001600160a01b031681565b6105d0610ade366004613009565b611b30565b6105d0610af1366004612ddf565b611b57565b6105d0610b04366004612d88565b611b88565b6105ca610b17366004612d88565b611b93565b61059c610b2a366004612d55565b611be2565b6105d07ff0887ba65ee2024ea881d91b74c2450ef19e1557f03bed3ea9f16b037cbe2dc981565b6105ca610b64366004612dbc565b611c00565b610547610b77366004613009565b611c25565b6105d0610b8a366004612d88565b611dff565b61059c610b9d366004613009565b611e0e565b6105d0610bb0366004612ddf565b611e35565b6105ca610bc3366004612d88565b611e51565b6105d07f523a704056dcd17bcf83bed8b68c59416dac1119be77755efe3bde0a64e46e0c81565b6105d0610bfd366004612d55565b611e7f565b6105ca610c10366004612d88565b611e9c565b60085461067f906001600160a01b031681565b6105d0610c36366004613009565b611eeb565b6000610c4682611f29565b92915050565b6040805180820190915260008082526020820152610c6a8383611be2565b9392505050565b610c7a33610dd8565b80610cb357503360009081527fca0a2f641ec05ca23127d994cf03ffc453db616acae0b86cb56bb95304d06854602052604090205460ff165b610d045760405162461bcd60e51b815260206004820152601560248201527f6e6f74206f6e6c794d696e7465724f7241646d696e000000000000000000000060448201526064015b60405180910390fd5b610d2e7fbf02bad7114723a857a3af46cea17b778a3a951c96f183784d9a2448cc479ab682610e6e565b50565b610d3a33610dd8565b610d565760405162461bcd60e51b8152600401610cfb90613045565b610d2e60008261105c565b600080610d6d60105490565b905060005b81811015610dd357600060108281548110610d8f57610d8f613088565b6000918252602090912001546001600160a01b03169050610db38161081f81611b88565b610dbd90856130b4565b9350508080610dcb906130c7565b915050610d72565b505090565b6001600160a01b03811660009081527f05b8ccbb9d4d8fb16ea74ce3c29a41f1b461fbdaff4714a0d9a8eb05499746bc602052604081205460ff16610c46565b610e427fbf02bad7114723a857a3af46cea17b778a3a951c96f183784d9a2448cc479ab63361105c565b565b610e427f523a704056dcd17bcf83bed8b68c59416dac1119be77755efe3bde0a64e46e0c3361105c565b600082815260056020526040902060010154610e8981611f4e565b610e938383611f58565b505050565b610ea133610dd8565b610ebd5760405162461bcd60e51b8152600401610cfb90613045565b610d2e7ff0887ba65ee2024ea881d91b74c2450ef19e1557f03bed3ea9f16b037cbe2dc98261105c565b60108181548110610ef757600080fd5b6000918252602090912001546001600160a01b0316905081565b6007546000906001600160a01b03163314610f645760405162461bcd60e51b81526020600482015260136024820152723737ba103618a9ba30b5b2b22a37b724b7261960691b6044820152606401610cfb565b610f6d83611ffa565b6000610f7884611b88565b90506000610f8585611b25565b905060006b033b2e3c9fd0803ce8000000610fa083856130e0565b610faa91906130f7565b6b033b2e3c9fd0803ce8000000610fc187866130e0565b610fcb85876130e0565b610fd591906130b4565b610fdf91906130f7565b610fe990846130e0565b610ff391906130f7565b9050610fff8682612110565b604080516001600160a01b038816815260208101879052908101839052606081018290527f6767d13426b216a4b3263c7a79be490a2e74a93cfcd5a93a70505af3a4f79e439060800160405180910390a150600195945050505050565b6001600160a01b03811633146110da5760405162461bcd60e51b815260206004820152602f60248201527f416363657373436f6e74726f6c3a2063616e206f6e6c792072656e6f756e636560448201527f20726f6c657320666f722073656c6600000000000000000000000000000000006064820152608401610cfb565b6110e4828261219c565b5050565b6110f133610dd8565b61110d5760405162461bcd60e51b8152600401610cfb90613045565b610d2e7fbf02bad7114723a857a3af46cea17b778a3a951c96f183784d9a2448cc479ab682611c00565b61114033610dd8565b61115c5760405162461bcd60e51b8152600401610cfb90613045565b60005b81518110156110e457600082828151811061117c5761117c613088565b6020026020010151905061118f81611b25565b6000036111ac576111ac816b033b2e3c9fd0803ce8000000612110565b600f60008484815181106111c2576111c2613088565b6020908102919091018101516001600160a01b031682528101919091526040016000205460ff16611294576001600f600085858151811061120557611205613088565b60200260200101516001600160a01b03166001600160a01b0316815260200190815260200160002060006101000a81548160ff021916908315150217905550601083838151811061125857611258613088565b60209081029190910181015182546001810184556000938452919092200180546001600160a01b0319166001600160a01b039092169190911790555b508061129f816130c7565b91505061115f565b6112b033610dd8565b6112cc5760405162461bcd60e51b8152600401610cfb90613045565b600780546001600160a01b039384166001600160a01b03199182161790915560088054929093169116179055565b60008061130660105490565b905060005b8181101561137a5760006010828154811061132857611328613088565b60009182526020822001546001600160a01b03169150611349828888611e0e565b905061135982826020015161142b565b61136390866130b4565b945050508080611372906130c7565b91505061130b565b505092915050565b6000610c6a828461221f565b6006546040518181527fac3d68540f9902349c72a28dc187ad15b504d68182767a2b00a3db86880507ba9060200160405180910390a1600680549060006113d4836130c7565b919050555090565b6113e533610dd8565b6114015760405162461bcd60e51b8152600401610cfb90613045565b610d2e7fbf02bad7114723a857a3af46cea17b778a3a951c96f183784d9a2448cc479ab68261105c565b60008160000361143d57506000610c46565b6b033b2e3c9fd0803ce800000061145384611b25565b61145d90846130e0565b610c6a91906130f7565b6001600160a01b03811660009081527f02634a7c777b8129955fe1824eee49ef19dfa96f2f4cb63212492c3d84eb58e6602052604081205460ff16610c46565b6114b033610dd8565b6114cc5760405162461bcd60e51b8152600401610cfb90613045565b610d2e600082610e6e565b6000806114e360105490565b905060005b818110156115565760006010828154811061150557611505613088565b60009182526020822001546001600160a01b031691506115258287611be2565b905061153582826020015161142b565b61153f90866130b4565b94505050808061154e906130c7565b9150506114e8565b5050919050565b61156633610dd8565b6115825760405162461bcd60e51b8152600401610cfb90613045565b610e4260003361105c565b61159633610dd8565b6115b25760405162461bcd60e51b8152600401610cfb90613045565b6001600160a01b0381166116085760405162461bcd60e51b815260206004820152601860248201527f41636365737369626c653a207a65726f206164647265737300000000000000006044820152606401610cfb565b6001600160a01b03811633036116605760405162461bcd60e51b815260206004820152601660248201527f41636365737369626c653a2073616d652061646d696e000000000000000000006044820152606401610cfb565b61166b600082610e6e565b610d2e60003361105c565b6007546000906001600160a01b031633146116c95760405162461bcd60e51b81526020600482015260136024820152723737ba103618a9ba30b5b2b22a37b724b7261960691b6044820152606401610cfb565b81516000036117075760405162461bcd60e51b815260206004820152600a6024820152696e6f207061636b65747360b01b6044820152606401610cfb565b815160005b818110156117925761173a84828151811061172957611729613088565b602002602001015160000151611ffa565b61177f84828151811061174f5761174f613088565b6020026020010151600001518686848151811061176e5761176e613088565b6020026020010151602001516122c7565b508061178a816130c7565b91505061170c565b506001949350505050565b6000610c6a8361081f8585611382565b6007546000906001600160a01b031633146118005760405162461bcd60e51b81526020600482015260136024820152723737ba103618a9ba30b5b2b22a37b724b7261960691b6044820152606401610cfb565b61180984611ffa565b600061181585846118de565b905060006118238686611be2565b9050838160000181815161183791906130b4565b90525060208101805183919061184e9083906130b4565b90525060008261185d88611b88565b61186791906130b4565b90506118748787846123af565b61187e878261246e565b604080516001600160a01b03808a16825288166020820152908101869052606081018490527ff5681f9d0db1b911ac18ee83d515a1cf1051853a9eae418316a2fdf7dea427c5906080015b60405180910390a15060019695505050505050565b6000816000036118f057506000610c46565b6118f983611b25565b61145d836b033b2e3c9fd0803ce80000006130e0565b60008061191b60105490565b905060005b818110156115565760006010828154811061193d5761193d613088565b6000918252602090912001546001600160a01b031690506119628161081f8188611382565b61196c90856130b4565b935050808061197a906130c7565b915050611920565b61198b33610dd8565b6119a75760405162461bcd60e51b8152600401610cfb90613045565b610d2e7ff0887ba65ee2024ea881d91b74c2450ef19e1557f03bed3ea9f16b037cbe2dc982610e6e565b610e427ff0887ba65ee2024ea881d91b74c2450ef19e1557f03bed3ea9f16b037cbe2dc93361105c565b611a0433610dd8565b611a205760405162461bcd60e51b8152600401610cfb90613045565b610d2e7f523a704056dcd17bcf83bed8b68c59416dac1119be77755efe3bde0a64e46e0c82610e6e565b6000610c6a82846124fa565b6001600160a01b03811660009081527fedec71783a10810e436f3392a073a61717130e573433fcc6591c3061a012f767602052604081205460ff16610c46565b6001600160a01b03811660009081527fca0a2f641ec05ca23127d994cf03ffc453db616acae0b86cb56bb95304d06854602052604081205460ff16610c46565b611adf33610dd8565b611afb5760405162461bcd60e51b8152600401610cfb90613045565b610d2e7f523a704056dcd17bcf83bed8b68c59416dac1119be77755efe3bde0a64e46e0c8261105c565b6000610c46826125b8565b600080611b3e858585611e0e565b9050611b4e85826020015161142b565b95945050505050565b60096020528160005260406000208181548110611b7357600080fd5b90600052602060002001600091509150505481565b6000610c468261265e565b611b9c33610dd8565b611bb85760405162461bcd60e51b8152600401610cfb90613045565b610d2e7ff0887ba65ee2024ea881d91b74c2450ef19e1557f03bed3ea9f16b037cbe2dc982611c00565b6040805180820190915260008082526020820152610c6a83836126d5565b600082815260056020526040902060010154611c1b81611f4e565b610e93838361219c565b6007546000906001600160a01b03163314611c785760405162461bcd60e51b81526020600482015260136024820152723737ba103618a9ba30b5b2b22a37b724b7261960691b6044820152606401610cfb565b611c8184611ffa565b6000611c8d85846118de565b90506000611c9b8686611be2565b8051909150841115611cef5760405162461bcd60e51b815260206004820152601460248201527f696e73756666696369656e742062616c616e63650000000000000000000000006044820152606401610cfb565b8381600001818151611d019190613119565b9052506020810151821115611d1c5760006020820152611d32565b8181602001818151611d2e9190613119565b9052505b6000611d3d87611b88565b905080831115611d8f5760405162461bcd60e51b815260206004820152601860248201527f696e73756666696369656e7420746f74616c4c7377746f6e00000000000000006044820152606401610cfb565b611d998382613119565b9050611da68787846123af565b611db0878261246e565b604080516001600160a01b03808a16825288166020820152908101869052606081018490527fc2b4a290c20fb28939d29f102514fbffd2b73c059ffba8b78250c94161d5fcc6906080016118c9565b6000610c468261081f84611b88565b6040805180820190915260008082526020820152611e2d8285856127d7565b949350505050565b600b6020528160005260406000208181548110611b7357600080fd5b611e5a33610dd8565b611e765760405162461bcd60e51b8152600401610cfb90613045565b610d2e8161158d565b600080611e8c8484611be2565b9050611e2d84826020015161142b565b611ea533610dd8565b611ec15760405162461bcd60e51b8152600401610cfb90613045565b610d2e7f523a704056dcd17bcf83bed8b68c59416dac1119be77755efe3bde0a64e46e0c82611c00565b600d6020528260005260406000206020528160005260406000208181548110611f1357600080fd5b9060005260206000200160009250925050505481565b60006001600160e01b03198216637965db0b60e01b1480610c465750610c46826128be565b610d2e81336128fa565b60008281526005602090815260408083206001600160a01b038516845290915290205460ff166110e45760008281526005602090815260408083206001600160a01b03851684529091529020805460ff19166001179055611fb63390565b6001600160a01b0316816001600160a01b0316837f2f8788117e7eff1d82e926ec794901d17c78024a50270940304540a733656f0d60405160405180910390a45050565b600854600160a01b900460ff1615156001036120415760405162461bcd60e51b8152602060048201526006602482015265696e2075736560d01b6044820152606401610cfb565b6008805460ff60a01b1916600160a01b17905561205d81611b25565b60000361207a5761207a816b033b2e3c9fd0803ce8000000612110565b6001600160a01b0381166000908152600f602052604090205460ff16612100576001600160a01b0381166000818152600f60205260408120805460ff191660019081179091556010805491820181559091527f1b6847dc741a1b0cd08d278845f9d819d87b734759afb55fe2de5cb82a9ae6720180546001600160a01b03191690911790555b506008805460ff60a01b19169055565b600061211b60065490565b6001600160a01b038416600090815260096020526040902090915081906121419061296f565b1015612173576001600160a01b0383166000908152600960209081526040822080546001810182559083529120018190555b6001600160a01b039092166000908152600a602090815260408083209483529390529190912055565b60008281526005602090815260408083206001600160a01b038516845290915290205460ff16156110e45760008281526005602090815260408083206001600160a01b0385168085529252808320805460ff1916905551339285917ff6391f5c32d9c69d2a47ea670b442974b53935d1edc7fd64eb21e047a839171b9190a45050565b600061222a60065490565b8311156122795760405162461bcd60e51b815260206004820152601f60248201527f736e617073686f744964203e2070726f6772657373536e617073686f744964006044820152606401610cfb565b6001600160a01b0382166000908152600b6020526040812061229b90856129b1565b6001600160a01b0384166000908152600c60209081526040808320938352929052205491505092915050565b6000806122d485846118de565b905060006122e28686611be2565b90506122ed86611b88565b602082015190935083908381146123a45783156123115761230e84866130b4565b94505b8015612324576123218186613119565b94505b858352602083018490526123398888856123af565b84821461234a5761234a888661246e565b604080516001600160a01b03808b1682528916602082015290810182905260608101859052608081018690527f50b049b7a4c2f903264b5740ef6eaec8ba61d4932d2b3e7e7bc3b8570824f0499060a00160405180910390a15b505050509392505050565b60006123ba60065490565b6001600160a01b038086166000908152600d6020908152604080832093881683529290522090915081906123ed9061296f565b101561242d576001600160a01b038085166000908152600d6020908152604080832093871683529281529181208054600181018255908252919020018190555b6001600160a01b039384166000908152600e602090815260408083209590961682529384528481209181529083529290922082518155910151600190910155565b600061247960065490565b6001600160a01b0384166000908152600b60205260409020909150819061249f9061296f565b10156124d1576001600160a01b0383166000908152600b60209081526040822080546001810182559083529120018190555b6001600160a01b039092166000908152600c602090815260408083209483529390529190912055565b600061250560065490565b8311156125545760405162461bcd60e51b815260206004820152601f60248201527f736e617073686f744964203e2070726f6772657373536e617073686f744964006044820152606401610cfb565b6001600160a01b038216600090815260096020526040812061257690856129b1565b6001600160a01b0384166000908152600960205260409020805491925090829081106125a4576125a4613088565b906000526020600020015491505092915050565b6001600160a01b0381166000908152600960205260408120548015612636576001600160a01b0383166000908152600a6020908152604080832060099092528220909190612607600185613119565b8154811061261757612617613088565b9060005260206000200154815260200190815260200160002054610c6a565b50506001600160a01b03166000908152600a6020908152604080832083805290915290205490565b6001600160a01b0381166000908152600b602052604081205480156126ad576001600160a01b0383166000908152600c60209081526040808320600b9092528220909190612607600185613119565b50506001600160a01b03166000908152600c6020908152604080832083805290915290205490565b604080518082018252600080825260208083018290526001600160a01b038681168352600d82528483209086168352905291909120548015612788576001600160a01b038085166000818152600e60209081526040808320948816808452948252808320938352600d825280832094835293905291822090919061275a600185613119565b8154811061276a5761276a613088565b906000526020600020015481526020019081526020016000206127b6565b6001600160a01b038085166000908152600e6020908152604080832093871683529281528282208280529052205b60408051808201909152815481526001909101546020820152949350505050565b604080518082019091526000808252602082015260065484111561283d5760405162461bcd60e51b815260206004820152601f60248201527f736e617073686f744964203e2070726f6772657373536e617073686f744964006044820152606401610cfb565b6001600160a01b038084166000908152600d60209081526040808320938616835292905290812061286e90866129b1565b6001600160a01b039485166000908152600e602090815260408083209690971682529485528581209181529084528490208451808601909552805485526001015492840192909252509092915050565b60006301ffc9a760e01b6001600160e01b031983161480610c465750506001600160e01b03191660009081526004602052604090205460ff1690565b60008281526005602090815260408083206001600160a01b038516845290915290205460ff166110e45761292d81612afd565b612938836020612b0f565b60405160200161294992919061312c565b60408051601f198184030181529082905262461bcd60e51b8252610cfb91600401612d06565b8054600090156129a9578154829061298990600190613119565b8154811061299957612999613088565b9060005260206000200154610c46565b600092915050565b815460009081036129c457506000610c46565b825483906129d490600190613119565b815481106129e4576129e4613088565b90600052602060002001548210612a275782548390612a0590600190613119565b81548110612a1557612a15613088565b90600052602060002001549050610c46565b82600081548110612a3a57612a3a613088565b9060005260206000200154821015612a5457506000610c46565b82546000908190612a6790600190613119565b90505b81811115612ad65760006002612a8084846130b4565b612a8b9060016130b4565b612a9591906130f7565b905084868281548110612aaa57612aaa613088565b906000526020600020015411612ac257809250612ad0565b612acd600182613119565b91505b50612a6a565b848281548110612ae857612ae8613088565b90600052602060002001549250505092915050565b6060610c466001600160a01b03831660145b60606000612b1e8360026130e0565b612b299060026130b4565b67ffffffffffffffff811115612b4157612b41612e09565b6040519080825280601f01601f191660200182016040528015612b6b576020820181803683370190505b509050600360fc1b81600081518110612b8657612b86613088565b60200101906001600160f81b031916908160001a905350600f60fb1b81600181518110612bb557612bb5613088565b60200101906001600160f81b031916908160001a9053506000612bd98460026130e0565b612be49060016130b4565b90505b6001811115612c69577f303132333435363738396162636465660000000000000000000000000000000085600f1660108110612c2557612c25613088565b1a60f81b828281518110612c3b57612c3b613088565b60200101906001600160f81b031916908160001a90535060049490941c93612c62816131ad565b9050612be7565b508315610c6a5760405162461bcd60e51b815260206004820181905260248201527f537472696e67733a20686578206c656e67746820696e73756666696369656e746044820152606401610cfb565b600060208284031215612cca57600080fd5b81356001600160e01b031981168114610c6a57600080fd5b60005b83811015612cfd578181015183820152602001612ce5565b50506000910152565b6020815260008251806020840152612d25816040850160208701612ce2565b601f01601f19169190910160400192915050565b80356001600160a01b0381168114612d5057600080fd5b919050565b60008060408385031215612d6857600080fd5b612d7183612d39565b9150612d7f60208401612d39565b90509250929050565b600060208284031215612d9a57600080fd5b610c6a82612d39565b600060208284031215612db557600080fd5b5035919050565b60008060408385031215612dcf57600080fd5b82359150612d7f60208401612d39565b60008060408385031215612df257600080fd5b612dfb83612d39565b946020939093013593505050565b634e487b7160e01b600052604160045260246000fd5b6040805190810167ffffffffffffffff81118282101715612e4257612e42612e09565b60405290565b604051601f8201601f1916810167ffffffffffffffff81118282101715612e7157612e71612e09565b604052919050565b600067ffffffffffffffff821115612e9357612e93612e09565b5060051b60200190565b60006020808385031215612eb057600080fd5b823567ffffffffffffffff811115612ec757600080fd5b8301601f81018513612ed857600080fd5b8035612eeb612ee682612e79565b612e48565b81815260059190911b82018301908381019087831115612f0a57600080fd5b928401925b82841015612f2f57612f2084612d39565b82529284019290840190612f0f565b979650505050505050565b6000806040808486031215612f4e57600080fd5b612f5784612d39565b925060208085013567ffffffffffffffff811115612f7457600080fd5b8501601f81018713612f8557600080fd5b8035612f93612ee682612e79565b81815260069190911b82018301908381019089831115612fb257600080fd5b928401925b82841015612ff95785848b031215612fcf5760008081fd5b612fd7612e1f565b612fe085612d39565b8152848601358682015282529285019290840190612fb7565b8096505050505050509250929050565b60008060006060848603121561301e57600080fd5b61302784612d39565b925061303560208501612d39565b9150604084013590509250925092565b60208082526023908201527f41757468436f6e74726f6c3a2043616c6c6572206973206e6f7420616e20616460408201526236b4b760e91b606082015260800190565b634e487b7160e01b600052603260045260246000fd5b634e487b7160e01b600052601160045260246000fd5b80820180821115610c4657610c4661309e565b6000600182016130d9576130d961309e565b5060010190565b8082028115828204841417610c4657610c4661309e565b60008261311457634e487b7160e01b600052601260045260246000fd5b500490565b81810381811115610c4657610c4661309e565b7f416363657373436f6e74726f6c3a206163636f756e7420000000000000000000815260008351613164816017850160208801612ce2565b7f206973206d697373696e6720726f6c652000000000000000000000000000000060179184019182015283516131a1816028840160208801612ce2565b01602801949350505050565b6000816131bc576131bc61309e565b50600019019056fea164736f6c6343000813000a",
  "devdoc": {
    "events": {
      "RoleAdminChanged(bytes32,bytes32,bytes32)": {
        "details": "Emitted when `newAdminRole` is set as ``role``'s admin role, replacing `previousAdminRole` `DEFAULT_ADMIN_ROLE` is the starting admin for all roles, despite {RoleAdminChanged} not being emitted signaling this. _Available since v3.1._"
      },
      "RoleGranted(bytes32,address,address)": {
        "details": "Emitted when `account` is granted `role`. `sender` is the account that originated the contract call, an admin role bearer except when using {AccessControl-_setupRole}."
      },
      "RoleRevoked(bytes32,address,address)": {
        "details": "Emitted when `account` is revoked `role`. `sender` is the account that originated the contract call:   - if using `revokeRole`, it is the admin role bearer   - if using `renounceRole`, it is the role bearer (i.e. `account`)"
      }
    },
    "kind": "dev",
    "methods": {
      "addAdmin(address)": {
        "details": "add admin",
        "params": {
          "account": "address to add"
        }
      },
      "getRoleAdmin(bytes32)": {
        "details": "Returns the admin role that controls `role`. See {grantRole} and {revokeRole}. To change a role's admin, use {_setRoleAdmin}."
      },
      "grantRole(bytes32,address)": {
        "details": "Grants `role` to `account`. If `account` had not been already granted `role`, emits a {RoleGranted} event. Requirements: - the caller must have ``role``'s admin role. May emit a {RoleGranted} event."
      },
      "hasRole(bytes32,address)": {
        "details": "Returns `true` if `account` has been granted `role`."
      },
      "isAdmin(address)": {
        "details": "whether admin",
        "params": {
          "account": "address to check"
        }
      },
      "removeAdmin(address)": {
        "details": "remove admin",
        "params": {
          "account": "address to remove"
        }
      },
      "renounceRole(bytes32,address)": {
        "details": "Revokes `role` from the calling account. Roles are often managed via {grantRole} and {revokeRole}: this function's purpose is to provide a mechanism for accounts to lose their privileges if they are compromised (such as when a trusted device is misplaced). If the calling account had been revoked `role`, emits a {RoleRevoked} event. Requirements: - the caller must be `account`. May emit a {RoleRevoked} event."
      },
      "revokeRole(bytes32,address)": {
        "details": "Revokes `role` from `account`. If `account` had been granted `role`, emits a {RoleRevoked} event. Requirements: - the caller must have ``role``'s admin role. May emit a {RoleRevoked} event."
      },
      "transferAdmin(address)": {
        "details": "transfer admin",
        "params": {
          "newAdmin": "new admin address"
        }
      }
    },
    "version": 1
  },
  "userdoc": {
    "kind": "user",
    "methods": {},
    "version": 1
  },
  "storageLayout": {
    "storage": [
      {
        "astId": 3984,
        "contract": "contracts/L2/L2SeigManager.sol:L2SeigManager",
        "label": "pauseProxy",
        "offset": 0,
        "slot": "0",
        "type": "t_bool"
      },
      {
        "astId": 3988,
        "contract": "contracts/L2/L2SeigManager.sol:L2SeigManager",
        "label": "proxyImplementation",
        "offset": 0,
        "slot": "1",
        "type": "t_mapping(t_uint256,t_address)"
      },
      {
        "astId": 3992,
        "contract": "contracts/L2/L2SeigManager.sol:L2SeigManager",
        "label": "aliveImplementation",
        "offset": 0,
        "slot": "2",
        "type": "t_mapping(t_address,t_bool)"
      },
      {
        "astId": 3996,
        "contract": "contracts/L2/L2SeigManager.sol:L2SeigManager",
        "label": "selectorImplementation",
        "offset": 0,
        "slot": "3",
        "type": "t_mapping(t_bytes4,t_address)"
      },
      {
        "astId": 674,
        "contract": "contracts/L2/L2SeigManager.sol:L2SeigManager",
        "label": "_supportedInterfaces",
        "offset": 0,
        "slot": "4",
        "type": "t_mapping(t_bytes4,t_bool)"
      },
      {
        "astId": 24,
        "contract": "contracts/L2/L2SeigManager.sol:L2SeigManager",
        "label": "_roles",
        "offset": 0,
        "slot": "5",
        "type": "t_mapping(t_bytes32,t_struct(RoleData)19_storage)"
      },
      {
        "astId": 3176,
        "contract": "contracts/L2/L2SeigManager.sol:L2SeigManager",
        "label": "lastSnapshotId",
        "offset": 0,
        "slot": "6",
        "type": "t_uint256"
      },
      {
        "astId": 3178,
        "contract": "contracts/L2/L2SeigManager.sol:L2SeigManager",
        "label": "l1StakedTonInL2",
        "offset": 0,
        "slot": "7",
        "type": "t_address"
      },
      {
        "astId": 3180,
        "contract": "contracts/L2/L2SeigManager.sol:L2SeigManager",
        "label": "l2CrossDomainMessenger",
        "offset": 0,
        "slot": "8",
        "type": "t_address"
      },
      {
        "astId": 3182,
        "contract": "contracts/L2/L2SeigManager.sol:L2SeigManager",
        "label": "_lock",
        "offset": 20,
        "slot": "8",
        "type": "t_bool"
      },
      {
        "astId": 3187,
        "contract": "contracts/L2/L2SeigManager.sol:L2SeigManager",
        "label": "layerIndexSnapshotIds",
        "offset": 0,
        "slot": "9",
        "type": "t_mapping(t_address,t_array(t_uint256)dyn_storage)"
      },
      {
        "astId": 3193,
        "contract": "contracts/L2/L2SeigManager.sol:L2SeigManager",
        "label": "index",
        "offset": 0,
        "slot": "10",
        "type": "t_mapping(t_address,t_mapping(t_uint256,t_uint256))"
      },
      {
        "astId": 3198,
        "contract": "contracts/L2/L2SeigManager.sol:L2SeigManager",
        "label": "layerTlswtonSnapshotIds",
        "offset": 0,
        "slot": "11",
        "type": "t_mapping(t_address,t_array(t_uint256)dyn_storage)"
      },
      {
        "astId": 3204,
        "contract": "contracts/L2/L2SeigManager.sol:L2SeigManager",
        "label": "totalLswton",
        "offset": 0,
        "slot": "12",
        "type": "t_mapping(t_address,t_mapping(t_uint256,t_uint256))"
      },
      {
        "astId": 3211,
        "contract": "contracts/L2/L2SeigManager.sol:L2SeigManager",
        "label": "stakedInfoSnapshotIds",
        "offset": 0,
        "slot": "13",
        "type": "t_mapping(t_address,t_mapping(t_address,t_array(t_uint256)dyn_storage))"
      },
      {
        "astId": 3220,
        "contract": "contracts/L2/L2SeigManager.sol:L2SeigManager",
        "label": "stakedInfo",
        "offset": 0,
        "slot": "14",
        "type": "t_mapping(t_address,t_mapping(t_address,t_mapping(t_uint256,t_struct(StakedInfo)3709_storage)))"
      },
      {
        "astId": 3224,
        "contract": "contracts/L2/L2SeigManager.sol:L2SeigManager",
        "label": "_l1layer2s",
        "offset": 0,
        "slot": "15",
        "type": "t_mapping(t_address,t_bool)"
      },
      {
        "astId": 3227,
        "contract": "contracts/L2/L2SeigManager.sol:L2SeigManager",
        "label": "l1layer2s",
        "offset": 0,
        "slot": "16",
        "type": "t_array(t_address)dyn_storage"
      }
    ],
    "types": {
      "t_address": {
        "encoding": "inplace",
        "label": "address",
        "numberOfBytes": "20"
      },
      "t_array(t_address)dyn_storage": {
        "base": "t_address",
        "encoding": "dynamic_array",
        "label": "address[]",
        "numberOfBytes": "32"
      },
      "t_array(t_uint256)dyn_storage": {
        "base": "t_uint256",
        "encoding": "dynamic_array",
        "label": "uint256[]",
        "numberOfBytes": "32"
      },
      "t_bool": {
        "encoding": "inplace",
        "label": "bool",
        "numberOfBytes": "1"
      },
      "t_bytes32": {
        "encoding": "inplace",
        "label": "bytes32",
        "numberOfBytes": "32"
      },
      "t_bytes4": {
        "encoding": "inplace",
        "label": "bytes4",
        "numberOfBytes": "4"
      },
      "t_mapping(t_address,t_array(t_uint256)dyn_storage)": {
        "encoding": "mapping",
        "key": "t_address",
        "label": "mapping(address => uint256[])",
        "numberOfBytes": "32",
        "value": "t_array(t_uint256)dyn_storage"
      },
      "t_mapping(t_address,t_bool)": {
        "encoding": "mapping",
        "key": "t_address",
        "label": "mapping(address => bool)",
        "numberOfBytes": "32",
        "value": "t_bool"
      },
      "t_mapping(t_address,t_mapping(t_address,t_array(t_uint256)dyn_storage))": {
        "encoding": "mapping",
        "key": "t_address",
        "label": "mapping(address => mapping(address => uint256[]))",
        "numberOfBytes": "32",
        "value": "t_mapping(t_address,t_array(t_uint256)dyn_storage)"
      },
      "t_mapping(t_address,t_mapping(t_address,t_mapping(t_uint256,t_struct(StakedInfo)3709_storage)))": {
        "encoding": "mapping",
        "key": "t_address",
        "label": "mapping(address => mapping(address => mapping(uint256 => struct LibL2StakedInfo.StakedInfo)))",
        "numberOfBytes": "32",
        "value": "t_mapping(t_address,t_mapping(t_uint256,t_struct(StakedInfo)3709_storage))"
      },
      "t_mapping(t_address,t_mapping(t_uint256,t_struct(StakedInfo)3709_storage))": {
        "encoding": "mapping",
        "key": "t_address",
        "label": "mapping(address => mapping(uint256 => struct LibL2StakedInfo.StakedInfo))",
        "numberOfBytes": "32",
        "value": "t_mapping(t_uint256,t_struct(StakedInfo)3709_storage)"
      },
      "t_mapping(t_address,t_mapping(t_uint256,t_uint256))": {
        "encoding": "mapping",
        "key": "t_address",
        "label": "mapping(address => mapping(uint256 => uint256))",
        "numberOfBytes": "32",
        "value": "t_mapping(t_uint256,t_uint256)"
      },
      "t_mapping(t_bytes32,t_struct(RoleData)19_storage)": {
        "encoding": "mapping",
        "key": "t_bytes32",
        "label": "mapping(bytes32 => struct AccessControl.RoleData)",
        "numberOfBytes": "32",
        "value": "t_struct(RoleData)19_storage"
      },
      "t_mapping(t_bytes4,t_address)": {
        "encoding": "mapping",
        "key": "t_bytes4",
        "label": "mapping(bytes4 => address)",
        "numberOfBytes": "32",
        "value": "t_address"
      },
      "t_mapping(t_bytes4,t_bool)": {
        "encoding": "mapping",
        "key": "t_bytes4",
        "label": "mapping(bytes4 => bool)",
        "numberOfBytes": "32",
        "value": "t_bool"
      },
      "t_mapping(t_uint256,t_address)": {
        "encoding": "mapping",
        "key": "t_uint256",
        "label": "mapping(uint256 => address)",
        "numberOfBytes": "32",
        "value": "t_address"
      },
      "t_mapping(t_uint256,t_struct(StakedInfo)3709_storage)": {
        "encoding": "mapping",
        "key": "t_uint256",
        "label": "mapping(uint256 => struct LibL2StakedInfo.StakedInfo)",
        "numberOfBytes": "32",
        "value": "t_struct(StakedInfo)3709_storage"
      },
      "t_mapping(t_uint256,t_uint256)": {
        "encoding": "mapping",
        "key": "t_uint256",
        "label": "mapping(uint256 => uint256)",
        "numberOfBytes": "32",
        "value": "t_uint256"
      },
      "t_struct(RoleData)19_storage": {
        "encoding": "inplace",
        "label": "struct AccessControl.RoleData",
        "members": [
          {
            "astId": 16,
            "contract": "contracts/L2/L2SeigManager.sol:L2SeigManager",
            "label": "members",
            "offset": 0,
            "slot": "0",
            "type": "t_mapping(t_address,t_bool)"
          },
          {
            "astId": 18,
            "contract": "contracts/L2/L2SeigManager.sol:L2SeigManager",
            "label": "adminRole",
            "offset": 0,
            "slot": "1",
            "type": "t_bytes32"
          }
        ],
        "numberOfBytes": "64"
      },
      "t_struct(StakedInfo)3709_storage": {
        "encoding": "inplace",
        "label": "struct LibL2StakedInfo.StakedInfo",
        "members": [
          {
            "astId": 3706,
            "contract": "contracts/L2/L2SeigManager.sol:L2SeigManager",
            "label": "deposit",
            "offset": 0,
            "slot": "0",
            "type": "t_uint256"
          },
          {
            "astId": 3708,
            "contract": "contracts/L2/L2SeigManager.sol:L2SeigManager",
            "label": "lswton",
            "offset": 0,
            "slot": "1",
            "type": "t_uint256"
          }
        ],
        "numberOfBytes": "64"
      },
      "t_uint256": {
        "encoding": "inplace",
        "label": "uint256",
        "numberOfBytes": "32"
      }
    }
  }
}