{
  "_format": "hh-sol-artifact-1",
  "contractName": "TestSeigManager",
  "sourceName": "contracts/test/TestSeigManager.sol",
  "abi": [
    {
      "inputs": [],
      "stateMutability": "nonpayable",
      "type": "constructor"
    },
    {
      "anonymous": false,
      "inputs": [
        {
          "indexed": true,
          "internalType": "bytes32",
          "name": "role",
          "type": "bytes32"
        },
        {
          "indexed": true,
          "internalType": "bytes32",
          "name": "previousAdminRole",
          "type": "bytes32"
        },
        {
          "indexed": true,
          "internalType": "bytes32",
          "name": "newAdminRole",
          "type": "bytes32"
        }
      ],
      "name": "RoleAdminChanged",
      "type": "event"
    },
    {
      "anonymous": false,
      "inputs": [
        {
          "indexed": true,
          "internalType": "bytes32",
          "name": "role",
          "type": "bytes32"
        },
        {
          "indexed": true,
          "internalType": "address",
          "name": "account",
          "type": "address"
        },
        {
          "indexed": true,
          "internalType": "address",
          "name": "sender",
          "type": "address"
        }
      ],
      "name": "RoleGranted",
      "type": "event"
    },
    {
      "anonymous": false,
      "inputs": [
        {
          "indexed": true,
          "internalType": "bytes32",
          "name": "role",
          "type": "bytes32"
        },
        {
          "indexed": true,
          "internalType": "address",
          "name": "account",
          "type": "address"
        },
        {
          "indexed": true,
          "internalType": "address",
          "name": "sender",
          "type": "address"
        }
      ],
      "name": "RoleRevoked",
      "type": "event"
    },
    {
      "inputs": [],
      "name": "DEFAULT_ADMIN_ROLE",
      "outputs": [
        {
          "internalType": "bytes32",
          "name": "",
          "type": "bytes32"
        }
      ],
      "stateMutability": "view",
      "type": "function"
    },
    {
      "inputs": [],
      "name": "MINTER_ROLE",
      "outputs": [
        {
          "internalType": "bytes32",
          "name": "",
          "type": "bytes32"
        }
      ],
      "stateMutability": "view",
      "type": "function"
    },
    {
      "inputs": [
        {
          "internalType": "address",
          "name": "account",
          "type": "address"
        }
      ],
      "name": "addAdmin",
      "outputs": [],
      "stateMutability": "nonpayable",
      "type": "function"
    },
    {
      "inputs": [
        {
          "internalType": "bytes32",
          "name": "role",
          "type": "bytes32"
        }
      ],
      "name": "getRoleAdmin",
      "outputs": [
        {
          "internalType": "bytes32",
          "name": "",
          "type": "bytes32"
        }
      ],
      "stateMutability": "view",
      "type": "function"
    },
    {
      "inputs": [
        {
          "internalType": "bytes32",
          "name": "role",
          "type": "bytes32"
        },
        {
          "internalType": "address",
          "name": "account",
          "type": "address"
        }
      ],
      "name": "grantRole",
      "outputs": [],
      "stateMutability": "nonpayable",
      "type": "function"
    },
    {
      "inputs": [
        {
          "internalType": "bytes32",
          "name": "role",
          "type": "bytes32"
        },
        {
          "internalType": "address",
          "name": "account",
          "type": "address"
        }
      ],
      "name": "hasRole",
      "outputs": [
        {
          "internalType": "bool",
          "name": "",
          "type": "bool"
        }
      ],
      "stateMutability": "view",
      "type": "function"
    },
    {
      "inputs": [
        {
          "internalType": "address",
          "name": "account",
          "type": "address"
        }
      ],
      "name": "isAdmin",
      "outputs": [
        {
          "internalType": "bool",
          "name": "",
          "type": "bool"
        }
      ],
      "stateMutability": "view",
      "type": "function"
    },
    {
      "inputs": [],
      "name": "isOwner",
      "outputs": [
        {
          "internalType": "bool",
          "name": "",
          "type": "bool"
        }
      ],
      "stateMutability": "view",
      "type": "function"
    },
    {
      "inputs": [],
      "name": "newDepositManager",
      "outputs": [
        {
          "internalType": "address",
          "name": "",
          "type": "address"
        }
      ],
      "stateMutability": "view",
      "type": "function"
    },
    {
      "inputs": [],
      "name": "oldDepositManager",
      "outputs": [
        {
          "internalType": "address",
          "name": "",
          "type": "address"
        }
      ],
      "stateMutability": "view",
      "type": "function"
    },
    {
      "inputs": [
        {
          "internalType": "address",
          "name": "layer2",
          "type": "address"
        },
        {
          "internalType": "address",
          "name": "account",
          "type": "address"
        },
        {
          "internalType": "uint256",
          "name": "amount",
          "type": "uint256"
        }
      ],
      "name": "onWithdraw",
      "outputs": [
        {
          "internalType": "bool",
          "name": "",
          "type": "bool"
        }
      ],
      "stateMutability": "nonpayable",
      "type": "function"
    },
    {
      "inputs": [
        {
          "internalType": "address",
          "name": "account",
          "type": "address"
        }
      ],
      "name": "removeAdmin",
      "outputs": [],
      "stateMutability": "nonpayable",
      "type": "function"
    },
    {
      "inputs": [],
      "name": "renounceOwnership",
      "outputs": [],
      "stateMutability": "nonpayable",
      "type": "function"
    },
    {
      "inputs": [
        {
          "internalType": "bytes32",
          "name": "role",
          "type": "bytes32"
        },
        {
          "internalType": "address",
          "name": "account",
          "type": "address"
        }
      ],
      "name": "renounceRole",
      "outputs": [],
      "stateMutability": "nonpayable",
      "type": "function"
    },
    {
      "inputs": [
        {
          "internalType": "bytes32",
          "name": "role",
          "type": "bytes32"
        },
        {
          "internalType": "address",
          "name": "account",
          "type": "address"
        }
      ],
      "name": "revokeRole",
      "outputs": [],
      "stateMutability": "nonpayable",
      "type": "function"
    },
    {
      "inputs": [
        {
          "internalType": "address",
          "name": "oldDepositManager_",
          "type": "address"
        },
        {
          "internalType": "address",
          "name": "newDepositManager_",
          "type": "address"
        },
        {
          "internalType": "address",
          "name": "wton_",
          "type": "address"
        }
      ],
      "name": "setAddresses",
      "outputs": [],
      "stateMutability": "nonpayable",
      "type": "function"
    },
    {
      "inputs": [
        {
          "internalType": "bytes4",
          "name": "interfaceId",
          "type": "bytes4"
        }
      ],
      "name": "supportsInterface",
      "outputs": [
        {
          "internalType": "bool",
          "name": "",
          "type": "bool"
        }
      ],
      "stateMutability": "view",
      "type": "function"
    },
    {
      "inputs": [
        {
          "internalType": "address",
          "name": "newAdmin",
          "type": "address"
        }
      ],
      "name": "transferAdmin",
      "outputs": [],
      "stateMutability": "nonpayable",
      "type": "function"
    },
    {
      "inputs": [
        {
          "internalType": "address",
          "name": "newAdmin",
          "type": "address"
        }
      ],
      "name": "transferOwnership",
      "outputs": [],
      "stateMutability": "nonpayable",
      "type": "function"
    },
    {
      "inputs": [],
      "name": "wton",
      "outputs": [
        {
          "internalType": "address",
          "name": "",
          "type": "address"
        }
      ],
      "stateMutability": "view",
      "type": "function"
    }
  ],
  "bytecode": "0x6080806040523461001657610f1b908161001c8239f35b600080fdfe6080604081815260048036101561001557600080fd5b600092833560e01c90816301ffc9a7146108c3575080631785f53c146108955780632153c2391461086c578063248a9ca31461084357806324d7806c146107fd5780632f2ff15d14610751578063363bf964146106e357806336568abe14610651578063704802751461059c578063715018a61461057657806375829def1461055a5780637ffb862b146105315780638d62d9491461050a5780638f32d59b146104d757806391d1485414610491578063a217fddf14610476578063d539139314610437578063d547741f146103fd578063f2fde38b146102a35763f850ffaa146100ff57600080fd5b3461029f57606036600319011261029f5761011861093c565b50610121610957565b6002546001600160a01b0390811694913386900361025c57818060035416911603610219578254169383519485916370a0823160e01b83528483015281602460209788935afa91821561020e5780926101db575b50506044351161018757505160018152f35b82608492519162461bcd60e51b8352820152602a60248201527f616d6f756e742065786363656564206f6c644465706f7369744d616e6167657260448201526927732062616c616e636560b01b6064820152fd5b9091508482813d8311610207575b6101f38183610cf3565b810103126102045750513880610175565b80fd5b503d6101e9565b8451903d90823e3d90fd5b835162461bcd60e51b8152602081850181905260248201527f6163636f756e74206973206e6f74206e65774465706f7369744d616e616765726044820152606490fd5b845162461bcd60e51b8152602081860152601f60248201527f73656e646572206973206e6f74206f6c644465706f7369744d616e61676572006044820152606490fd5b8280fd5b50903461029f576020806003193601126103f9576102bf61093c565b6102d06102cb3361096d565b610eb7565b6102dc6102cb3361096d565b6001600160a01b03169283156103b85783331461037e57508380526001815261030a600183862001546109aa565b83805260018152818420838552815260ff828520541615610333575b8361033033610d2b565b80f35b8380526001815281842090838552528220600160ff198254161790553390827f2f8788117e7eff1d82e926ec794901d17c78024a50270940304540a733656f0d8180a4388080610326565b915162461bcd60e51b815291820152601660248201527520b1b1b2b9b9b4b136329d1039b0b6b29030b236b4b760511b6044820152606490fd5b915162461bcd60e51b815291820152601860248201527f41636365737369626c653a207a65726f206164647265737300000000000000006044820152606490fd5b8380fd5b50903461029f578060031936011261029f5761033091356104326001610421610957565b9383875281602052862001546109aa565b610e1a565b505034610472578160031936011261047257602090517ff0887ba65ee2024ea881d91b74c2450ef19e1557f03bed3ea9f16b037cbe2dc98152f35b5080fd5b50503461047257816003193601126104725751908152602090f35b503461029f578160031936011261029f578160209360ff926104b1610957565b90358252600186528282206001600160a01b039091168252855220549151911615158152f35b50503461047257816003193601126104725760ff8183806020955260018552818120338252855220541690519015158152f35b503461029f578260031936011261029f575490516001600160a01b03909116815260209150f35b50503461047257816003193601126104725760035490516001600160a01b039091168152602090f35b50903461029f576020806003193601126103f9576102d061093c565b83346102045780600319360112610204576105936102cb3361096d565b61033033610d2b565b505034610472576020908160031936011261029f576105b961093c565b916105c66102cb3361096d565b838052600181526105dc600183862001546109aa565b838052600181528184206001600160a01b039093168085529281528184205460ff1615610607578380f35b8380526001815281842090838552528220600160ff198254161790553390827f2f8788117e7eff1d82e926ec794901d17c78024a50270940304540a733656f0d8180a43880808380f35b5082903461047257826003193601126104725761066c610957565b90336001600160a01b0383160361068857906103309135610e1a565b608490602085519162461bcd60e51b8352820152602f60248201527f416363657373436f6e74726f6c3a2063616e206f6e6c792072656e6f756e636560448201526e103937b632b9903337b91039b2b63360891b6064820152fd5b838234610472576060366003190112610472576106fe61093c565b610706610957565b6001600160a01b0360443581811693929084900361074d57816bffffffffffffffffffffffff60a01b93168360025416176002551681600354161760035582541617905580f35b8580fd5b503461029f578160031936011261029f57359061076c610957565b908284526001602052610784600182862001546109aa565b828452600160209081528185206001600160a01b039093168086529290528084205460ff16156107b2578380f35b82845260016020528084208285526020528320600160ff1982541617905533917f2f8788117e7eff1d82e926ec794901d17c78024a50270940304540a733656f0d8480a43880808380f35b5050346104725760203660031901126104725760ff8160209361081e61093c565b818052600186528282206001600160a01b039091168252855220549151911615158152f35b503461029f57602036600319011261029f57816020936001923581528285522001549051908152f35b50503461047257816003193601126104725760025490516001600160a01b039091168152602090f35b8334610204576020366003190112610204576103306108b261093c565b6108be6102cb3361096d565b610d2b565b9184915034610472576020366003190112610472573563ffffffff60e01b811680910361047257602093637965db0b60e01b8214928315610908575b50505015158152f35b6301ffc9a760e01b8314935090918315610928575b5050508380806108ff565b60ff9350815280855220541683808061091d565b600435906001600160a01b038216820361095257565b600080fd5b602435906001600160a01b038216820361095257565b6001600160a01b031660009081527fa6eef7e35abe7026729641147f7915573c7e97b47efa546f5f6e3230263bcb49602052604090205460ff1690565b600090808252600191602091838352604091828120338252845260ff8382205416156109d7575050505050565b3391835195606087019167ffffffffffffffff9288811084821117610bfc578652602a88528688019486368737885115610cbc57603086538851831015610cbc57607860218a015360295b838111610c525750610c105790855192608084019084821090821117610bfc57865260428352868301936060368637835115610be857603085538351821015610be85790607860218501536041915b818311610b7a57505050610b385792610b066048610af79794610b2a946044989785519a8b93610ace8b86019a7f416363657373436f6e74726f6c3a206163636f756e74200000000000000000008c525180926037880190610cd0565b8401917001034b99036b4b9b9b4b733903937b6329607d1b603784015251809386840190610cd0565b01036028810189520187610cf3565b5194859362461bcd60e51b8552600485015251809281602486015285850190610cd0565b601f01601f19168101030190fd5b60648585519062461bcd60e51b825280600483015260248201527f537472696e67733a20686578206c656e67746820696e73756666696369656e746044820152fd5b909192600f81166010811015610bd4576f181899199a1a9b1b9c1cb0b131b232b360811b901a610baa8587610e90565b5360041c928015610bc057600019019190610a71565b634e487b7160e01b82526011600452602482fd5b634e487b7160e01b83526032600452602483fd5b634e487b7160e01b81526032600452602490fd5b634e487b7160e01b85526041600452602485fd5b60648787519062461bcd60e51b825280600483015260248201527f537472696e67733a20686578206c656e67746820696e73756666696369656e746044820152fd5b90600f81166010811015610ca8576f181899199a1a9b1b9c1cb0b131b232b360811b901a610c80838c610e90565b5360041c908015610c945760001901610a22565b634e487b7160e01b86526011600452602486fd5b634e487b7160e01b87526032600452602487fd5b634e487b7160e01b85526032600452602485fd5b60005b838110610ce35750506000910152565b8181015183820152602001610cd3565b90601f8019910116810190811067ffffffffffffffff821117610d1557604052565b634e487b7160e01b600052604160045260246000fd5b6001600160a01b0316338103610dbd5760008181527fa6eef7e35abe7026729641147f7915573c7e97b47efa546f5f6e3230263bcb49602052604081205490919060ff16610d77575050565b8180526001602052604082208183526020526040822060ff19815416905533917ff6391f5c32d9c69d2a47ea670b442974b53935d1edc7fd64eb21e047a839171b8180a4565b60405162461bcd60e51b815260206004820152602f60248201527f416363657373436f6e74726f6c3a2063616e206f6e6c792072656e6f756e636560448201526e103937b632b9903337b91039b2b63360891b6064820152608490fd5b906000918083526001602052604083209160018060a01b03169182845260205260ff604084205416610e4b57505050565b8083526001602052604083208284526020526040832060ff1981541690557ff6391f5c32d9c69d2a47ea670b442974b53935d1edc7fd64eb21e047a839171b339380a4565b908151811015610ea1570160200190565b634e487b7160e01b600052603260045260246000fd5b15610ebe57565b60405162461bcd60e51b815260206004820152602260248201527f41636365737369626c653a2043616c6c6572206973206e6f7420616e2061646d60448201526134b760f11b6064820152608490fdfea164736f6c6343000812000a",
  "linkReferences": {},
  "deployedLinkReferences": {}
}