{
  "_format": "hh-sol-artifact-1",
  "contractName": "TestSeigManager",
  "sourceName": "contracts/test/TestSeigManager.sol",
  "abi": [
    {
      "inputs": [],
      "stateMutability": "nonpayable",
      "type": "constructor"
    },
    {
      "anonymous": false,
      "inputs": [
        {
          "indexed": true,
          "internalType": "bytes32",
          "name": "role",
          "type": "bytes32"
        },
        {
          "indexed": true,
          "internalType": "bytes32",
          "name": "previousAdminRole",
          "type": "bytes32"
        },
        {
          "indexed": true,
          "internalType": "bytes32",
          "name": "newAdminRole",
          "type": "bytes32"
        }
      ],
      "name": "RoleAdminChanged",
      "type": "event"
    },
    {
      "anonymous": false,
      "inputs": [
        {
          "indexed": true,
          "internalType": "bytes32",
          "name": "role",
          "type": "bytes32"
        },
        {
          "indexed": true,
          "internalType": "address",
          "name": "account",
          "type": "address"
        },
        {
          "indexed": true,
          "internalType": "address",
          "name": "sender",
          "type": "address"
        }
      ],
      "name": "RoleGranted",
      "type": "event"
    },
    {
      "anonymous": false,
      "inputs": [
        {
          "indexed": true,
          "internalType": "bytes32",
          "name": "role",
          "type": "bytes32"
        },
        {
          "indexed": true,
          "internalType": "address",
          "name": "account",
          "type": "address"
        },
        {
          "indexed": true,
          "internalType": "address",
          "name": "sender",
          "type": "address"
        }
      ],
      "name": "RoleRevoked",
      "type": "event"
    },
    {
      "inputs": [],
      "name": "DEFAULT_ADMIN_ROLE",
      "outputs": [
        {
          "internalType": "bytes32",
          "name": "",
          "type": "bytes32"
        }
      ],
      "stateMutability": "view",
      "type": "function"
    },
    {
      "inputs": [],
      "name": "MINTER_ROLE",
      "outputs": [
        {
          "internalType": "bytes32",
          "name": "",
          "type": "bytes32"
        }
      ],
      "stateMutability": "view",
      "type": "function"
    },
    {
      "inputs": [
        {
          "internalType": "address",
          "name": "account",
          "type": "address"
        }
      ],
      "name": "addAdmin",
      "outputs": [],
      "stateMutability": "nonpayable",
      "type": "function"
    },
    {
      "inputs": [
        {
          "internalType": "bytes32",
          "name": "role",
          "type": "bytes32"
        }
      ],
      "name": "getRoleAdmin",
      "outputs": [
        {
          "internalType": "bytes32",
          "name": "",
          "type": "bytes32"
        }
      ],
      "stateMutability": "view",
      "type": "function"
    },
    {
      "inputs": [
        {
          "internalType": "bytes32",
          "name": "role",
          "type": "bytes32"
        },
        {
          "internalType": "address",
          "name": "account",
          "type": "address"
        }
      ],
      "name": "grantRole",
      "outputs": [],
      "stateMutability": "nonpayable",
      "type": "function"
    },
    {
      "inputs": [
        {
          "internalType": "bytes32",
          "name": "role",
          "type": "bytes32"
        },
        {
          "internalType": "address",
          "name": "account",
          "type": "address"
        }
      ],
      "name": "hasRole",
      "outputs": [
        {
          "internalType": "bool",
          "name": "",
          "type": "bool"
        }
      ],
      "stateMutability": "view",
      "type": "function"
    },
    {
      "inputs": [
        {
          "internalType": "address",
          "name": "account",
          "type": "address"
        }
      ],
      "name": "isAdmin",
      "outputs": [
        {
          "internalType": "bool",
          "name": "",
          "type": "bool"
        }
      ],
      "stateMutability": "view",
      "type": "function"
    },
    {
      "inputs": [],
      "name": "isOwner",
      "outputs": [
        {
          "internalType": "bool",
          "name": "",
          "type": "bool"
        }
      ],
      "stateMutability": "view",
      "type": "function"
    },
    {
      "inputs": [],
      "name": "newDepositManager",
      "outputs": [
        {
          "internalType": "address",
          "name": "",
          "type": "address"
        }
      ],
      "stateMutability": "view",
      "type": "function"
    },
    {
      "inputs": [],
      "name": "oldDepositManager",
      "outputs": [
        {
          "internalType": "address",
          "name": "",
          "type": "address"
        }
      ],
      "stateMutability": "view",
      "type": "function"
    },
    {
      "inputs": [
        {
          "internalType": "address",
          "name": "layer2",
          "type": "address"
        },
        {
          "internalType": "address",
          "name": "account",
          "type": "address"
        },
        {
          "internalType": "uint256",
          "name": "amount",
          "type": "uint256"
        }
      ],
      "name": "onWithdraw",
      "outputs": [
        {
          "internalType": "bool",
          "name": "",
          "type": "bool"
        }
      ],
      "stateMutability": "nonpayable",
      "type": "function"
    },
    {
      "inputs": [
        {
          "internalType": "address",
          "name": "account",
          "type": "address"
        }
      ],
      "name": "removeAdmin",
      "outputs": [],
      "stateMutability": "nonpayable",
      "type": "function"
    },
    {
      "inputs": [],
      "name": "renounceOwnership",
      "outputs": [],
      "stateMutability": "nonpayable",
      "type": "function"
    },
    {
      "inputs": [
        {
          "internalType": "bytes32",
          "name": "role",
          "type": "bytes32"
        },
        {
          "internalType": "address",
          "name": "account",
          "type": "address"
        }
      ],
      "name": "renounceRole",
      "outputs": [],
      "stateMutability": "nonpayable",
      "type": "function"
    },
    {
      "inputs": [
        {
          "internalType": "bytes32",
          "name": "role",
          "type": "bytes32"
        },
        {
          "internalType": "address",
          "name": "account",
          "type": "address"
        }
      ],
      "name": "revokeRole",
      "outputs": [],
      "stateMutability": "nonpayable",
      "type": "function"
    },
    {
      "inputs": [
        {
          "internalType": "address",
          "name": "oldDepositManager_",
          "type": "address"
        },
        {
          "internalType": "address",
          "name": "newDepositManager_",
          "type": "address"
        },
        {
          "internalType": "address",
          "name": "wton_",
          "type": "address"
        }
      ],
      "name": "setAddresses",
      "outputs": [],
      "stateMutability": "nonpayable",
      "type": "function"
    },
    {
      "inputs": [
        {
          "internalType": "bytes4",
          "name": "interfaceId",
          "type": "bytes4"
        }
      ],
      "name": "supportsInterface",
      "outputs": [
        {
          "internalType": "bool",
          "name": "",
          "type": "bool"
        }
      ],
      "stateMutability": "view",
      "type": "function"
    },
    {
      "inputs": [
        {
          "internalType": "address",
          "name": "newAdmin",
          "type": "address"
        }
      ],
      "name": "transferAdmin",
      "outputs": [],
      "stateMutability": "nonpayable",
      "type": "function"
    },
    {
      "inputs": [
        {
          "internalType": "address",
          "name": "newAdmin",
          "type": "address"
        }
      ],
      "name": "transferOwnership",
      "outputs": [],
      "stateMutability": "nonpayable",
      "type": "function"
    },
    {
      "inputs": [],
      "name": "wton",
      "outputs": [
        {
          "internalType": "address",
          "name": "",
          "type": "address"
        }
      ],
      "stateMutability": "view",
      "type": "function"
    }
  ],
  "bytecode": "0x608060405234801561001057600080fd5b50610dbd806100206000396000f3fe608060405234801561001057600080fd5b506004361061012c5760003560e01c806375829def116100ad578063a217fddf11610071578063a217fddf146102c0578063d5391393146102c8578063d547741f146102ef578063f2fde38b14610302578063f850ffaa1461031557600080fd5b806375829def1461026c5780637ffb862b1461027f5780638d62d949146102925780638f32d59b146102a557806391d14854146102ad57600080fd5b80632f2ff15d116100f45780632f2ff15d146101de578063363bf964146101f157806336568abe1461023e5780637048027514610251578063715018a61461026457600080fd5b806301ffc9a7146101315780631785f53c146101595780632153c2391461016e578063248a9ca31461019957806324d7806c146101cb575b600080fd5b61014461013f366004610ae1565b610328565b60405190151581526020015b60405180910390f35b61016c610167366004610b27565b610339565b005b600254610181906001600160a01b031681565b6040516001600160a01b039091168152602001610150565b6101bd6101a7366004610b42565b6000908152600160208190526040909120015490565b604051908152602001610150565b6101446101d9366004610b27565b610375565b61016c6101ec366004610b5b565b610381565b61016c6101ff366004610b87565b600280546001600160a01b039485166001600160a01b031991821617909155600380549385169382169390931790925560048054919093169116179055565b61016c61024c366004610b5b565b6103ac565b61016c61025f366004610b27565b61042a565b61016c61045a565b61016c61027a366004610b27565b61048c565b600354610181906001600160a01b031681565b600454610181906001600160a01b031681565b61014461056e565b6101446102bb366004610b5b565b61057f565b6101bd600081565b6101bd7ff0887ba65ee2024ea881d91b74c2450ef19e1557f03bed3ea9f16b037cbe2dc981565b61016c6102fd366004610b5b565b6105aa565b61016c610310366004610b27565b6105d0565b610144610323366004610bca565b6105fe565b600061033382610796565b92915050565b61034233610375565b6103675760405162461bcd60e51b815260040161035e90610c06565b60405180910390fd5b6103726000826103ac565b50565b6000610333818361057f565b6000828152600160208190526040909120015461039d816107bb565b6103a783836107c5565b505050565b6001600160a01b038116331461041c5760405162461bcd60e51b815260206004820152602f60248201527f416363657373436f6e74726f6c3a2063616e206f6e6c792072656e6f756e636560448201526e103937b632b9903337b91039b2b63360891b606482015260840161035e565b6104268282610830565b5050565b61043333610375565b61044f5760405162461bcd60e51b815260040161035e90610c06565b610372600082610381565b61046333610375565b61047f5760405162461bcd60e51b815260040161035e90610c06565b61048a6000336103ac565b565b61049533610375565b6104b15760405162461bcd60e51b815260040161035e90610c06565b6001600160a01b0381166105075760405162461bcd60e51b815260206004820152601860248201527f41636365737369626c653a207a65726f20616464726573730000000000000000604482015260640161035e565b6001600160a01b03811633036105585760405162461bcd60e51b815260206004820152601660248201527520b1b1b2b9b9b4b136329d1039b0b6b29030b236b4b760511b604482015260640161035e565b610563600082610381565b6103726000336103ac565b600061057a813361057f565b905090565b60009182526001602090815260408084206001600160a01b0393909316845291905290205460ff1690565b600082815260016020819052604090912001546105c6816107bb565b6103a78383610830565b6105d933610375565b6105f55760405162461bcd60e51b815260040161035e90610c06565b6103728161048c565b6002546000906001600160a01b0316331461065b5760405162461bcd60e51b815260206004820152601f60248201527f73656e646572206973206e6f74206f6c644465706f7369744d616e6167657200604482015260640161035e565b6003546001600160a01b038481169116146106b85760405162461bcd60e51b815260206004820181905260248201527f6163636f756e74206973206e6f74206e65774465706f7369744d616e61676572604482015260640161035e565b600480546002546040516370a0823160e01b81526001600160a01b039182169381019390935216906370a0823190602401602060405180830381865afa158015610706573d6000803e3d6000fd5b505050506040513d601f19601f8201168201806040525081019061072a9190610c48565b82111561078c5760405162461bcd60e51b815260206004820152602a60248201527f616d6f756e742065786363656564206f6c644465706f7369744d616e6167657260448201526927732062616c616e636560b01b606482015260840161035e565b5060019392505050565b60006001600160e01b03198216637965db0b60e01b1480610333575061033382610897565b61037281336108d3565b6107cf828261057f565b6104265760008281526001602081815260408084206001600160a01b0386168086529252808420805460ff19169093179092559051339285917f2f8788117e7eff1d82e926ec794901d17c78024a50270940304540a733656f0d9190a45050565b61083a828261057f565b156104265760008281526001602090815260408083206001600160a01b0385168085529252808320805460ff1916905551339285917ff6391f5c32d9c69d2a47ea670b442974b53935d1edc7fd64eb21e047a839171b9190a45050565b60006301ffc9a760e01b6001600160e01b0319831614806103335750506001600160e01b03191660009081526020819052604090205460ff1690565b6108dd828261057f565b610426576108ea8161092c565b6108f583602061093e565b604051602001610906929190610c85565b60408051601f198184030181529082905262461bcd60e51b825261035e91600401610cfa565b60606103336001600160a01b03831660145b6060600061094d836002610d43565b610958906002610d5a565b67ffffffffffffffff81111561097057610970610d6d565b6040519080825280601f01601f19166020018201604052801561099a576020820181803683370190505b509050600360fc1b816000815181106109b5576109b5610d83565b60200101906001600160f81b031916908160001a905350600f60fb1b816001815181106109e4576109e4610d83565b60200101906001600160f81b031916908160001a9053506000610a08846002610d43565b610a13906001610d5a565b90505b6001811115610a8b576f181899199a1a9b1b9c1cb0b131b232b360811b85600f1660108110610a4757610a47610d83565b1a60f81b828281518110610a5d57610a5d610d83565b60200101906001600160f81b031916908160001a90535060049490941c93610a8481610d99565b9050610a16565b508315610ada5760405162461bcd60e51b815260206004820181905260248201527f537472696e67733a20686578206c656e67746820696e73756666696369656e74604482015260640161035e565b9392505050565b600060208284031215610af357600080fd5b81356001600160e01b031981168114610ada57600080fd5b80356001600160a01b0381168114610b2257600080fd5b919050565b600060208284031215610b3957600080fd5b610ada82610b0b565b600060208284031215610b5457600080fd5b5035919050565b60008060408385031215610b6e57600080fd5b82359150610b7e60208401610b0b565b90509250929050565b600080600060608486031215610b9c57600080fd5b610ba584610b0b565b9250610bb360208501610b0b565b9150610bc160408501610b0b565b90509250925092565b600080600060608486031215610bdf57600080fd5b610be884610b0b565b9250610bf660208501610b0b565b9150604084013590509250925092565b60208082526022908201527f41636365737369626c653a2043616c6c6572206973206e6f7420616e2061646d60408201526134b760f11b606082015260800190565b600060208284031215610c5a57600080fd5b5051919050565b60005b83811015610c7c578181015183820152602001610c64565b50506000910152565b7f416363657373436f6e74726f6c3a206163636f756e7420000000000000000000815260008351610cbd816017850160208801610c61565b7001034b99036b4b9b9b4b733903937b6329607d1b6017918401918201528351610cee816028840160208801610c61565b01602801949350505050565b6020815260008251806020840152610d19816040850160208701610c61565b601f01601f19169190910160400192915050565b634e487b7160e01b600052601160045260246000fd5b808202811582820484141761033357610333610d2d565b8082018082111561033357610333610d2d565b634e487b7160e01b600052604160045260246000fd5b634e487b7160e01b600052603260045260246000fd5b600081610da857610da8610d2d565b50600019019056fea164736f6c6343000813000a",
  "linkReferences": {},
  "deployedLinkReferences": {}
}