{
  "_format": "hh-sol-artifact-1",
  "contractName": "ProxyL1BridgeRegistry",
  "sourceName": "contracts/proxy/ProxyL1BridgeRegistry.sol",
  "abi": [
    {
      "inputs": [],
      "stateMutability": "nonpayable",
      "type": "constructor"
    },
    {
      "anonymous": false,
      "inputs": [
        {
          "indexed": true,
          "internalType": "bytes32",
          "name": "role",
          "type": "bytes32"
        },
        {
          "indexed": true,
          "internalType": "bytes32",
          "name": "previousAdminRole",
          "type": "bytes32"
        },
        {
          "indexed": true,
          "internalType": "bytes32",
          "name": "newAdminRole",
          "type": "bytes32"
        }
      ],
      "name": "RoleAdminChanged",
      "type": "event"
    },
    {
      "anonymous": false,
      "inputs": [
        {
          "indexed": true,
          "internalType": "bytes32",
          "name": "role",
          "type": "bytes32"
        },
        {
          "indexed": true,
          "internalType": "address",
          "name": "account",
          "type": "address"
        },
        {
          "indexed": true,
          "internalType": "address",
          "name": "sender",
          "type": "address"
        }
      ],
      "name": "RoleGranted",
      "type": "event"
    },
    {
      "anonymous": false,
      "inputs": [
        {
          "indexed": true,
          "internalType": "bytes32",
          "name": "role",
          "type": "bytes32"
        },
        {
          "indexed": true,
          "internalType": "address",
          "name": "account",
          "type": "address"
        },
        {
          "indexed": true,
          "internalType": "address",
          "name": "sender",
          "type": "address"
        }
      ],
      "name": "RoleRevoked",
      "type": "event"
    },
    {
      "anonymous": false,
      "inputs": [
        {
          "indexed": true,
          "internalType": "address",
          "name": "impl",
          "type": "address"
        },
        {
          "indexed": false,
          "internalType": "bool",
          "name": "alive",
          "type": "bool"
        }
      ],
      "name": "SetAliveImplementation",
      "type": "event"
    },
    {
      "anonymous": false,
      "inputs": [
        {
          "indexed": true,
          "internalType": "bytes4",
          "name": "selector",
          "type": "bytes4"
        },
        {
          "indexed": true,
          "internalType": "address",
          "name": "impl",
          "type": "address"
        }
      ],
      "name": "SetSelectorImplementation",
      "type": "event"
    },
    {
      "anonymous": false,
      "inputs": [
        {
          "indexed": true,
          "internalType": "address",
          "name": "implementation",
          "type": "address"
        }
      ],
      "name": "Upgraded",
      "type": "event"
    },
    {
      "stateMutability": "payable",
      "type": "fallback"
    },
    {
      "inputs": [],
      "name": "DEFAULT_ADMIN_ROLE",
      "outputs": [
        {
          "internalType": "bytes32",
          "name": "",
          "type": "bytes32"
        }
      ],
      "stateMutability": "view",
      "type": "function"
    },
    {
      "inputs": [],
      "name": "MANAGER_ROLE",
      "outputs": [
        {
          "internalType": "bytes32",
          "name": "",
          "type": "bytes32"
        }
      ],
      "stateMutability": "view",
      "type": "function"
    },
    {
      "inputs": [],
      "name": "REGISTRANT_ROLE",
      "outputs": [
        {
          "internalType": "bytes32",
          "name": "",
          "type": "bytes32"
        }
      ],
      "stateMutability": "view",
      "type": "function"
    },
    {
      "inputs": [
        {
          "internalType": "address",
          "name": "account",
          "type": "address"
        }
      ],
      "name": "addAdmin",
      "outputs": [],
      "stateMutability": "nonpayable",
      "type": "function"
    },
    {
      "inputs": [
        {
          "internalType": "address",
          "name": "account",
          "type": "address"
        }
      ],
      "name": "addManager",
      "outputs": [],
      "stateMutability": "nonpayable",
      "type": "function"
    },
    {
      "inputs": [
        {
          "internalType": "address",
          "name": "account",
          "type": "address"
        }
      ],
      "name": "addRegistrant",
      "outputs": [],
      "stateMutability": "nonpayable",
      "type": "function"
    },
    {
      "inputs": [
        {
          "internalType": "address",
          "name": "",
          "type": "address"
        }
      ],
      "name": "aliveImplementation",
      "outputs": [
        {
          "internalType": "bool",
          "name": "",
          "type": "bool"
        }
      ],
      "stateMutability": "view",
      "type": "function"
    },
    {
      "inputs": [
        {
          "internalType": "bytes32",
          "name": "role",
          "type": "bytes32"
        }
      ],
      "name": "getRoleAdmin",
      "outputs": [
        {
          "internalType": "bytes32",
          "name": "",
          "type": "bytes32"
        }
      ],
      "stateMutability": "view",
      "type": "function"
    },
    {
      "inputs": [
        {
          "internalType": "bytes4",
          "name": "_selector",
          "type": "bytes4"
        }
      ],
      "name": "getSelectorImplementation2",
      "outputs": [
        {
          "internalType": "address",
          "name": "impl",
          "type": "address"
        }
      ],
      "stateMutability": "view",
      "type": "function"
    },
    {
      "inputs": [
        {
          "internalType": "bytes32",
          "name": "role",
          "type": "bytes32"
        },
        {
          "internalType": "address",
          "name": "account",
          "type": "address"
        }
      ],
      "name": "grantRole",
      "outputs": [],
      "stateMutability": "nonpayable",
      "type": "function"
    },
    {
      "inputs": [
        {
          "internalType": "bytes32",
          "name": "role",
          "type": "bytes32"
        },
        {
          "internalType": "address",
          "name": "account",
          "type": "address"
        }
      ],
      "name": "hasRole",
      "outputs": [
        {
          "internalType": "bool",
          "name": "",
          "type": "bool"
        }
      ],
      "stateMutability": "view",
      "type": "function"
    },
    {
      "inputs": [],
      "name": "implementation",
      "outputs": [
        {
          "internalType": "address",
          "name": "",
          "type": "address"
        }
      ],
      "stateMutability": "view",
      "type": "function"
    },
    {
      "inputs": [
        {
          "internalType": "uint256",
          "name": "_index",
          "type": "uint256"
        }
      ],
      "name": "implementation2",
      "outputs": [
        {
          "internalType": "address",
          "name": "",
          "type": "address"
        }
      ],
      "stateMutability": "view",
      "type": "function"
    },
    {
      "inputs": [
        {
          "internalType": "address",
          "name": "account",
          "type": "address"
        }
      ],
      "name": "isAdmin",
      "outputs": [
        {
          "internalType": "bool",
          "name": "",
          "type": "bool"
        }
      ],
      "stateMutability": "view",
      "type": "function"
    },
    {
      "inputs": [
        {
          "internalType": "address",
          "name": "account",
          "type": "address"
        }
      ],
      "name": "isManager",
      "outputs": [
        {
          "internalType": "bool",
          "name": "",
          "type": "bool"
        }
      ],
      "stateMutability": "view",
      "type": "function"
    },
    {
      "inputs": [],
      "name": "isOwner",
      "outputs": [
        {
          "internalType": "bool",
          "name": "",
          "type": "bool"
        }
      ],
      "stateMutability": "view",
      "type": "function"
    },
    {
      "inputs": [
        {
          "internalType": "address",
          "name": "account",
          "type": "address"
        }
      ],
      "name": "isRegistrant",
      "outputs": [
        {
          "internalType": "bool",
          "name": "",
          "type": "bool"
        }
      ],
      "stateMutability": "view",
      "type": "function"
    },
    {
      "inputs": [],
      "name": "pauseProxy",
      "outputs": [
        {
          "internalType": "bool",
          "name": "",
          "type": "bool"
        }
      ],
      "stateMutability": "view",
      "type": "function"
    },
    {
      "inputs": [
        {
          "internalType": "uint256",
          "name": "",
          "type": "uint256"
        }
      ],
      "name": "proxyImplementation",
      "outputs": [
        {
          "internalType": "address",
          "name": "",
          "type": "address"
        }
      ],
      "stateMutability": "view",
      "type": "function"
    },
    {
      "inputs": [
        {
          "internalType": "address",
          "name": "account",
          "type": "address"
        }
      ],
      "name": "removeAdmin",
      "outputs": [],
      "stateMutability": "nonpayable",
      "type": "function"
    },
    {
      "inputs": [
        {
          "internalType": "address",
          "name": "account",
          "type": "address"
        }
      ],
      "name": "removeManager",
      "outputs": [],
      "stateMutability": "nonpayable",
      "type": "function"
    },
    {
      "inputs": [
        {
          "internalType": "address",
          "name": "account",
          "type": "address"
        }
      ],
      "name": "removeRegistrant",
      "outputs": [],
      "stateMutability": "nonpayable",
      "type": "function"
    },
    {
      "inputs": [],
      "name": "renounceManager",
      "outputs": [],
      "stateMutability": "nonpayable",
      "type": "function"
    },
    {
      "inputs": [],
      "name": "renounceOwnership",
      "outputs": [],
      "stateMutability": "nonpayable",
      "type": "function"
    },
    {
      "inputs": [],
      "name": "renounceRegistrant",
      "outputs": [],
      "stateMutability": "nonpayable",
      "type": "function"
    },
    {
      "inputs": [
        {
          "internalType": "bytes32",
          "name": "role",
          "type": "bytes32"
        },
        {
          "internalType": "address",
          "name": "account",
          "type": "address"
        }
      ],
      "name": "renounceRole",
      "outputs": [],
      "stateMutability": "nonpayable",
      "type": "function"
    },
    {
      "inputs": [
        {
          "internalType": "address",
          "name": "account",
          "type": "address"
        }
      ],
      "name": "revokeManager",
      "outputs": [],
      "stateMutability": "nonpayable",
      "type": "function"
    },
    {
      "inputs": [
        {
          "internalType": "address",
          "name": "account",
          "type": "address"
        }
      ],
      "name": "revokeRegistrant",
      "outputs": [],
      "stateMutability": "nonpayable",
      "type": "function"
    },
    {
      "inputs": [
        {
          "internalType": "bytes32",
          "name": "role",
          "type": "bytes32"
        },
        {
          "internalType": "address",
          "name": "account",
          "type": "address"
        }
      ],
      "name": "revokeRole",
      "outputs": [],
      "stateMutability": "nonpayable",
      "type": "function"
    },
    {
      "inputs": [
        {
          "internalType": "bytes4",
          "name": "",
          "type": "bytes4"
        }
      ],
      "name": "selectorImplementation",
      "outputs": [
        {
          "internalType": "address",
          "name": "",
          "type": "address"
        }
      ],
      "stateMutability": "view",
      "type": "function"
    },
    {
      "inputs": [
        {
          "internalType": "address",
          "name": "newImplementation",
          "type": "address"
        },
        {
          "internalType": "bool",
          "name": "_alive",
          "type": "bool"
        }
      ],
      "name": "setAliveImplementation2",
      "outputs": [],
      "stateMutability": "nonpayable",
      "type": "function"
    },
    {
      "inputs": [
        {
          "internalType": "address",
          "name": "newImplementation",
          "type": "address"
        },
        {
          "internalType": "uint256",
          "name": "_index",
          "type": "uint256"
        },
        {
          "internalType": "bool",
          "name": "_alive",
          "type": "bool"
        }
      ],
      "name": "setImplementation2",
      "outputs": [],
      "stateMutability": "nonpayable",
      "type": "function"
    },
    {
      "inputs": [
        {
          "internalType": "bool",
          "name": "_pause",
          "type": "bool"
        }
      ],
      "name": "setProxyPause",
      "outputs": [],
      "stateMutability": "nonpayable",
      "type": "function"
    },
    {
      "inputs": [
        {
          "internalType": "bytes4[]",
          "name": "_selectors",
          "type": "bytes4[]"
        },
        {
          "internalType": "address",
          "name": "_imp",
          "type": "address"
        }
      ],
      "name": "setSelectorImplementations2",
      "outputs": [],
      "stateMutability": "nonpayable",
      "type": "function"
    },
    {
      "inputs": [
        {
          "internalType": "bytes4",
          "name": "interfaceId",
          "type": "bytes4"
        }
      ],
      "name": "supportsInterface",
      "outputs": [
        {
          "internalType": "bool",
          "name": "",
          "type": "bool"
        }
      ],
      "stateMutability": "view",
      "type": "function"
    },
    {
      "inputs": [
        {
          "internalType": "address",
          "name": "newAdmin",
          "type": "address"
        }
      ],
      "name": "transferAdmin",
      "outputs": [],
      "stateMutability": "nonpayable",
      "type": "function"
    },
    {
      "inputs": [
        {
          "internalType": "address",
          "name": "newAdmin",
          "type": "address"
        }
      ],
      "name": "transferOwnership",
      "outputs": [],
      "stateMutability": "nonpayable",
      "type": "function"
    },
    {
      "inputs": [
        {
          "internalType": "address",
          "name": "impl",
          "type": "address"
        }
      ],
      "name": "upgradeTo",
      "outputs": [],
      "stateMutability": "nonpayable",
      "type": "function"
    },
    {
      "stateMutability": "payable",
      "type": "receive"
    }
  ],
  "bytecode": "0x608060408181523461011257600090818052600560205280822033835260205260ff8183205416156100c7575b7faf290d8680820aad922855f39b306097b20e28774d6c1ad35a20325630c3a02c9081835260056020528260018282200181815491557fbd79b86ffe0ab8e8776151514217cd7cacd52c909f66475c3af44e129f0b00ff93848380a460017f12090aa55130d5a2442eb84fc286ca6e600db6c50b6c5d9b6d0d929f0e2d8ce8918285528420019183835493558380a4611cd090816101188239f35b8180526005602052808220338352602052808220600160ff198254161790553333837f2f8788117e7eff1d82e926ec794901d17c78024a50270940304540a733656f0d8180a461002c565b600080fdfe60806040526004361015610018575b36611abc57611a80565b60003560e01c806301ffc9a71461026e5780631785f53c14610269578063248a9ca31461026457806324d7806c1461025f5780632d06177a1461025a5780632f2ff15d1461025557806335556fe31461025057806336568abe1461024b5780633659cfe614610246578063377e32e6146101e75780634a5df50f1461024157806350d2a2761461023c578063550d01a3146102375780635c60da1b146102325780635cc797d81461022d57806363a8fd89146102285780636f5b142b14610223578063704802751461021e578063715018a61461021957806375829def146102145780637cb00d251461020f5780637cd5f6631461020a57806386ad05b6146102055780638b8f4a65146101e25780638cfc9347146102005780638d4fdb40146101fb5780638f32d59b146101f657806391d14854146101f1578063a217fddf146101ec578063ac18de43146101e7578063b911135f146101e2578063bbfcfc1e146101dd578063d00491c6146101d8578063d547741f146101d3578063ec87621c146101ce578063f2fde38b146101c9578063f3ae2415146101c45763f8b91abe0361000e57611212565b6111c0565b61119b565b611172565b611133565b6110c9565b61103a565b610ed6565b61074f565b61101e565b610fd8565b610fa1565b610f68565b610f0a565b610e84565b610daa565b610d52565b610c82565b610c68565b610b7c565b610b53565b610b30565b610ad9565b610aa5565b610a66565b610a20565b610838565b61066f565b6105dd565b6105c1565b61058a565b610489565b610439565b61040a565b61032f565b61028a565b6001600160e01b031981160361028557565b600080fd5b34610285576020366003190112610285576004356102a781610273565b6001600160e01b031916637965db0b60e01b811480156102cf575b6020906040519015158152f35b506301ffc9a760e01b811480156102ea575b602091506102c2565b506000526004602052602060ff604060002054166102e1565b600435906001600160a01b038216820361028557565b602435906001600160a01b038216820361028557565b3461028557602036600319011261028557610348610303565b61035961035433611292565b611833565b600080805260056020527f05b8ccbb9d4d8fb16ea74ce3c29a41f1b461fbdaff4714a0d9a8eb05499746bd5490919061039190611380565b8180526005602090815260408084206001600160a01b0384166000908152925290205460ff166103bf575080f35b8180526005602090815260408084206001600160a01b038416600090815292529020805460ff1916905533906001600160a01b031682600080516020611c848339815191528180a480f35b346102855760203660031901126102855760043560005260056020526020600160406000200154604051908152f35b3461028557602036600319011261028557602060ff61047d610459610303565b600080526005845260406000209060018060a01b0316600052602052604060002090565b54166040519015158152f35b34610285576020366003190112610285576104a2610303565b6104ae61035433611292565b600080516020611c44833981519152600081815260056020527f67f351182989509d05df317024ac600e03d0c404c1b07ecdc5d72ea1208a722b54909291906104f690611380565b8083526005602090815260408085206001600160a01b03851660009081529252902060ff905b541615610527578280f35b8083526005602090815260408085206001600160a01b038516600090815292529020805460ff1916600117905533916001600160a01b0316907f2f8788117e7eff1d82e926ec794901d17c78024a50270940304540a733656f0d8480a438808280f35b34610285576040366003190112610285576004356105a6610319565b60009180835260056020526104f66001604085200154611380565b34610285576000366003190112610285576105db336115ef565b005b34610285576040366003190112610285576105f6610319565b336001600160a01b03821603610612576105db9060043561168f565b60405162461bcd60e51b815260206004820152602f60248201527f416363657373436f6e74726f6c3a2063616e206f6e6c792072656e6f756e636560448201526e103937b632b9903337b91039b2b63360891b6064820152608490fd5b3461028557602036600319011261028557610688610303565b336000908152600080516020611ca4833981519152602052604081209091906106b69060ff905b5416611833565b6001600160a01b03811690811561071a57828052600160205260408320546106f391906106ee906001600160a01b03168414156118e3565b611b57565b7fbc7cd75a20ee27fd9adebab32041f755214dbc6bffa90cc0225b39da2e5c2d3b8280a280f35b60405162461bcd60e51b815260206004820152600d60248201526c696e707574206973207a65726f60981b6044820152606490fd5b3461028557602036600319011261028557610768610303565b61077461035433611292565b600080516020611c44833981519152600081815260056020527f67f351182989509d05df317024ac600e03d0c404c1b07ecdc5d72ea1208a722b54909291906107bc90611380565b8083526005602090815260408085206001600160a01b0385166000908152925290205460ff166107ea578280f35b8083526005602090815260408085206001600160a01b038516600090815292529020805460ff1916905533916001600160a01b031690600080516020611c848339815191528480a438808280f35b346102855760403660031901126102855767ffffffffffffffff6004358181116102855736602382011215610285578060040135918211610285576024810190602436918460051b0101116102855761088f610319565b336000908152600080516020611ca4833981519152602052604081209093906108ba9060ff906106af565b80156109dc576108f06108eb6108e484959460018060a01b03166000526002602052604060002090565b5460ff1690565b61191b565b6001600160a01b03928084169290855b83811061090b578680f35b8061095b868861095361094661092d6109286109d7988c8c611976565b611986565b63ffffffff60e01b166000526003602052604060002090565b546001600160a01b031690565b161415611990565b61098f8361097061092d610928858a8a611976565b80546001600160a01b0319166001600160a01b03909216919091179055565b856109ae6109a1610928848989611976565b6001600160e01b03191690565b7f14ebc1c32aa68f4d766e89f3e546cee249f7df25183fc10ab1568d91c2ce9b7b8a80a3611967565b610900565b606460405162461bcd60e51b815260206004820152602060248201527f50726f78793a205f73656c6563746f727327732073697a65206973207a65726f6044820152fd5b3461028557602036600319011261028557600435610a3d81610273565b63ffffffff60e01b166000526003602052602060018060a01b0360406000205416604051908152f35b34610285576020366003190112610285576001600160a01b03610a87610303565b166000526002602052602060ff604060002054166040519015158152f35b3461028557600080600319360112610ad65780806020925260018252604060018060a01b0391205416604051908152f35b80fd5b3461028557604036600319011261028557610af2610303565b602435801515810361028557336000908152600080516020611ca4833981519152602052604090206105db9290610b2b9060ff906106af565b611bef565b3461028557600036600319011261028557602060ff600054166040519015158152f35b34610285576000366003190112610285576020604051600080516020611c648339815191528152f35b3461028557602036600319011261028557610b95610303565b610ba161035433611292565b600080805260056020527f05b8ccbb9d4d8fb16ea74ce3c29a41f1b461fbdaff4714a0d9a8eb05499746bd54909190610bd990611380565b8180526005602090815260408084206001600160a01b0384166000908152925290205460ff1615610c08575080f35b8180526005602090815260408084206001600160a01b038416600090815292529020805460ff1916600117905533906001600160a01b0316827f2f8788117e7eff1d82e926ec794901d17c78024a50270940304540a733656f0d8180a480f35b34610285576000366003190112610285576105db33611564565b3461028557602036600319011261028557610c9b610303565b610ca761035433611292565b6001600160a01b0381168015610d0d573314610ccf57610cc6906112bd565b6105db33611564565b60405162461bcd60e51b815260206004820152601660248201527520b1b1b2b9b9b4b136329d1039b0b6b29030b236b4b760511b6044820152606490fd5b60405162461bcd60e51b815260206004820152601860248201527f41636365737369626c653a207a65726f206164647265737300000000000000006044820152606490fd5b346102855760203660031901126102855760043580151580910361028557336000908152600080516020611ca483398151915260205260408120909190610d9b9060ff906106af565b60ff8019835416911617815580f35b3461028557606036600319011261028557610dc3610303565b60443590811515820361028557336000908152600080516020611ca483398151915260205260408120909290610dfb9060ff906106af565b813b15610e3f57610e109181610e1357611bef565b80f35b602435845260016020526040842080546001600160a01b0319166001600160a01b038316179055611bef565b60405162461bcd60e51b815260206004820152601b60248201527f50726f78793a206e6f7420636f6e7472616374206164647265737300000000006044820152606490fd5b3461028557602036600319011261028557602060ff61047d610ea4610303565b600080516020611c648339815191526000526005845260406000209060018060a01b0316600052602052604060002090565b34610285576020366003190112610285576004356000526001602052602060018060a01b0360406000205416604051908152f35b34610285576020366003190112610285576105db610f26610303565b3360009081527f67f351182989509d05df317024ac600e03d0c404c1b07ecdc5d72ea1208a722a60205260409020610f639060ff905b541661188b565b6115ef565b34610285576020366003190112610285576020610f8f600435610f8a81610273565b6119dc565b6040516001600160a01b039091168152f35b3461028557600080600319360112610ad657808052600560209081526040918290203360009081529082529190912060ff9061047d565b3461028557604036600319011261028557602060ff61047d610ff8610319565b6004356000526005845260406000209060018060a01b0316600052602052604060002090565b3461028557600036600319011261028557602060405160008152f35b3461028557602036600319011261028557611053610303565b3360009081527f67f351182989509d05df317024ac600e03d0c404c1b07ecdc5d72ea1208a722a602052604081209091906110909060ff90610f5c565b600080516020611c648339815191528083526005602090815260408085206001600160a01b03851660009081529252902060ff9061051c565b34610285576020366003190112610285576105db6110e5610303565b6110f161035433611292565b600080516020611c6483398151915260005260056020527f495d3ec9f3ad8ec6f8443b0a39852d56b07f6b1efbf2c51564addb326b83978754610f6390611380565b34610285576040366003190112610285576105db600435611152610319565b9080600052600560205261116d600160406000200154611380565b61168f565b34610285576000366003190112610285576020604051600080516020611c448339815191528152f35b34610285576020366003190112610285576111b4610303565b610c9b61035433611292565b3461028557602036600319011261028557602060ff61047d6111e0610303565b600080516020611c448339815191526000526005845260406000209060018060a01b0316600052602052604060002090565b3461028557600080600319360112610ad657600080516020611c44833981519152808252600560209081526040808420336000908152925290205460ff16611258575080f35b80825260056020908152604080842033600090815292529020805460ff1916905533908190600080516020611c848339815191528480a480f35b6001600160a01b03166000908152600080516020611ca4833981519152602052604090205460ff1690565b600080805260056020527f05b8ccbb9d4d8fb16ea74ce3c29a41f1b461fbdaff4714a0d9a8eb05499746bd546112f290611380565b8080526005602090815260408083206001600160a01b0385166000908152925290205460ff1615611321575050565b8080526005602090815260408083206001600160a01b038516600090815292529020805460ff1916600117905533916001600160a01b0316907f2f8788117e7eff1d82e926ec794901d17c78024a50270940304540a733656f0d8180a4565b600081815260056020908152604080832033845290915290205460ff16156113a55750565b33906113af6116d1565b9160306113bb84611714565b5360786113c784611721565b5360295b6001811161147a5761147661143361145e866114506113f3886113ee8915611754565b61179f565b61142d60405195869461142d602087016017907f416363657373436f6e74726f6c3a206163636f756e742000000000000000000081520190565b906114e4565b7001034b99036b4b9b9b4b733903937b6329607d1b815260110190565b03601f198101835282611511565b60405162461bcd60e51b815291829160048301611538565b0390fd5b90600f81169060108210156114bc576114b7916f181899199a1a9b1b9c1cb0b131b232b360811b901a6114ad8487611731565b5360041c91611742565b6113cb565b6116fe565b60005b8381106114d45750506000910152565b81810151838201526020016114c4565b906114f7602092828151948592016114c1565b0190565b634e487b7160e01b600052604160045260246000fd5b90601f8019910116810190811067ffffffffffffffff82111761153357604052565b6114fb565b6040916020825261155881518092816020860152602086860191016114c1565b601f01601f1916010190565b6001600160a01b038116338103610612576001600160a01b0382166000908152600080516020611ca4833981519152602052604081205490929060ff166115aa57505050565b6115d1908380526005602052604084209060018060a01b0316600052602052604060002090565b805460ff191690553391600080516020611c848339815191528180a4565b6001600160a01b03811660009081527f495d3ec9f3ad8ec6f8443b0a39852d56b07f6b1efbf2c51564addb326b83978660205260408120600080516020611c648339815191529060ff905b541661164557505050565b8082526005602090815260408084206001600160a01b038616600090815292529020805460ff1916905533926001600160a01b031691600080516020611c848339815191529080a4565b600090808252600560205260ff61163a84604085209060018060a01b0316600052602052604060002090565b634e487b7160e01b600052601160045260246000fd5b604051906060820182811067ffffffffffffffff82111761153357604052602a8252604082602036910137565b634e487b7160e01b600052603260045260246000fd5b8051156114bc5760200190565b8051600110156114bc5760210190565b9081518110156114bc570160200190565b801561174f576000190190565b6116bb565b1561175b57565b606460405162461bcd60e51b815260206004820152602060248201527f537472696e67733a20686578206c656e67746820696e73756666696369656e746044820152fd5b604051906080820182811067ffffffffffffffff8211176115335760405260428252606036602084013760306117d483611714565b5360786117e083611721565b536041905b600182116117fb576117f8915015611754565b90565b600f81169060108210156114bc5761182d916f181899199a1a9b1b9c1cb0b131b232b360811b901a6114ad8486611731565b906117e5565b1561183a57565b60405162461bcd60e51b815260206004820152602360248201527f41757468436f6e74726f6c3a2043616c6c6572206973206e6f7420616e20616460448201526236b4b760e91b6064820152608490fd5b1561189257565b60405162461bcd60e51b8152602060048201526024808201527f41757468436f6e74726f6c3a2043616c6c6572206973206e6f742061206d616e60448201526330b3b2b960e11b6064820152608490fd5b156118ea57565b60405162461bcd60e51b815260206004820152600960248201526839b0b6b29030b2323960b91b6044820152606490fd5b1561192257565b60405162461bcd60e51b815260206004820152601860248201527f50726f78793a205f696d70206973206e6f7420616c69766500000000000000006044820152606490fd5b600019811461174f5760010190565b91908110156114bc5760051b0190565b356117f881610273565b1561199757565b60405162461bcd60e51b815260206004820152601d60248201527f4c69717569646974795661756c7450726f78793a2073616d6520696d700000006044820152606490fd5b6001600160e01b0319166000908152600360205260409020546001600160a01b0390811680611a3557506000805260016020527fa6eef7e35abe7026729641147f7915573c7e97b47efa546f5f6e3230263bcb49541690565b80600052600260205260ff60406000205416611a7b57506000805260016020527fa6eef7e35abe7026729641147f7915573c7e97b47efa546f5f6e3230263bcb49541690565b905090565b60405162461bcd60e51b815260206004820152601460248201527331b0b73737ba103932b1b2b4bb329022ba3432b960611b6044820152606490fd5b6000611ad281356001600160e01b0319166119dc565b6001600160a01b038116151580611b4b575b15611b0657818091368280378136915af43d82803e15611b02573d90f35b3d90fd5b60405162461bcd60e51b815260206004820152601d60248201527f50726f78793a20696d706c204f522070726f78792069732066616c73650000006044820152606490fd5b5060ff82541615611ae4565b803b15610e3f576000805260016020527fa6eef7e35abe7026729641147f7915573c7e97b47efa546f5f6e3230263bcb4980546001600160a01b0319166001600160a01b03831617905560018060a01b03168060005260026020526040600020600160ff198254161790557f72558d9bfba4210f9ef095c782589484151f6d90f7a81bb3cb9b33efc695d324602060405160018152a2565b60207f72558d9bfba4210f9ef095c782589484151f6d90f7a81bb3cb9b33efc695d3249160018060a01b031692836000526002825260406000209015159060ff1981541660ff8316179055604051908152a256feaf290d8680820aad922855f39b306097b20e28774d6c1ad35a20325630c3a02c12090aa55130d5a2442eb84fc286ca6e600db6c50b6c5d9b6d0d929f0e2d8ce8f6391f5c32d9c69d2a47ea670b442974b53935d1edc7fd64eb21e047a839171b05b8ccbb9d4d8fb16ea74ce3c29a41f1b461fbdaff4714a0d9a8eb05499746bca164736f6c6343000813000a",
  "linkReferences": {},
  "deployedLinkReferences": {}
}