{
  "_format": "hh-sol-artifact-1",
  "contractName": "AuthControlLayer2Manager",
  "sourceName": "contracts/common/AuthControlLayer2Manager.sol",
  "abi": [
    {
      "anonymous": false,
      "inputs": [
        {
          "indexed": true,
          "internalType": "bytes32",
          "name": "role",
          "type": "bytes32"
        },
        {
          "indexed": true,
          "internalType": "bytes32",
          "name": "previousAdminRole",
          "type": "bytes32"
        },
        {
          "indexed": true,
          "internalType": "bytes32",
          "name": "newAdminRole",
          "type": "bytes32"
        }
      ],
      "name": "RoleAdminChanged",
      "type": "event"
    },
    {
      "anonymous": false,
      "inputs": [
        {
          "indexed": true,
          "internalType": "bytes32",
          "name": "role",
          "type": "bytes32"
        },
        {
          "indexed": true,
          "internalType": "address",
          "name": "account",
          "type": "address"
        },
        {
          "indexed": true,
          "internalType": "address",
          "name": "sender",
          "type": "address"
        }
      ],
      "name": "RoleGranted",
      "type": "event"
    },
    {
      "anonymous": false,
      "inputs": [
        {
          "indexed": true,
          "internalType": "bytes32",
          "name": "role",
          "type": "bytes32"
        },
        {
          "indexed": true,
          "internalType": "address",
          "name": "account",
          "type": "address"
        },
        {
          "indexed": true,
          "internalType": "address",
          "name": "sender",
          "type": "address"
        }
      ],
      "name": "RoleRevoked",
      "type": "event"
    },
    {
      "inputs": [],
      "name": "DEFAULT_ADMIN_ROLE",
      "outputs": [
        {
          "internalType": "bytes32",
          "name": "",
          "type": "bytes32"
        }
      ],
      "stateMutability": "view",
      "type": "function"
    },
    {
      "inputs": [],
      "name": "MANAGER_ROLE",
      "outputs": [
        {
          "internalType": "bytes32",
          "name": "",
          "type": "bytes32"
        }
      ],
      "stateMutability": "view",
      "type": "function"
    },
    {
      "inputs": [],
      "name": "OPERATOR_ROLE",
      "outputs": [
        {
          "internalType": "bytes32",
          "name": "",
          "type": "bytes32"
        }
      ],
      "stateMutability": "view",
      "type": "function"
    },
    {
      "inputs": [
        {
          "internalType": "address",
          "name": "account",
          "type": "address"
        }
      ],
      "name": "addAdmin",
      "outputs": [],
      "stateMutability": "nonpayable",
      "type": "function"
    },
    {
      "inputs": [
        {
          "internalType": "address",
          "name": "account",
          "type": "address"
        }
      ],
      "name": "addManager",
      "outputs": [],
      "stateMutability": "nonpayable",
      "type": "function"
    },
    {
      "inputs": [
        {
          "internalType": "address",
          "name": "account",
          "type": "address"
        }
      ],
      "name": "addOperator",
      "outputs": [],
      "stateMutability": "nonpayable",
      "type": "function"
    },
    {
      "inputs": [
        {
          "internalType": "bytes32",
          "name": "role",
          "type": "bytes32"
        }
      ],
      "name": "getRoleAdmin",
      "outputs": [
        {
          "internalType": "bytes32",
          "name": "",
          "type": "bytes32"
        }
      ],
      "stateMutability": "view",
      "type": "function"
    },
    {
      "inputs": [
        {
          "internalType": "bytes32",
          "name": "role",
          "type": "bytes32"
        },
        {
          "internalType": "address",
          "name": "account",
          "type": "address"
        }
      ],
      "name": "grantRole",
      "outputs": [],
      "stateMutability": "nonpayable",
      "type": "function"
    },
    {
      "inputs": [
        {
          "internalType": "bytes32",
          "name": "role",
          "type": "bytes32"
        },
        {
          "internalType": "address",
          "name": "account",
          "type": "address"
        }
      ],
      "name": "hasRole",
      "outputs": [
        {
          "internalType": "bool",
          "name": "",
          "type": "bool"
        }
      ],
      "stateMutability": "view",
      "type": "function"
    },
    {
      "inputs": [
        {
          "internalType": "address",
          "name": "account",
          "type": "address"
        }
      ],
      "name": "isAdmin",
      "outputs": [
        {
          "internalType": "bool",
          "name": "",
          "type": "bool"
        }
      ],
      "stateMutability": "view",
      "type": "function"
    },
    {
      "inputs": [
        {
          "internalType": "address",
          "name": "account",
          "type": "address"
        }
      ],
      "name": "isManager",
      "outputs": [
        {
          "internalType": "bool",
          "name": "",
          "type": "bool"
        }
      ],
      "stateMutability": "view",
      "type": "function"
    },
    {
      "inputs": [
        {
          "internalType": "address",
          "name": "account",
          "type": "address"
        }
      ],
      "name": "isOperator",
      "outputs": [
        {
          "internalType": "bool",
          "name": "",
          "type": "bool"
        }
      ],
      "stateMutability": "view",
      "type": "function"
    },
    {
      "inputs": [],
      "name": "isOwner",
      "outputs": [
        {
          "internalType": "bool",
          "name": "",
          "type": "bool"
        }
      ],
      "stateMutability": "view",
      "type": "function"
    },
    {
      "inputs": [
        {
          "internalType": "address",
          "name": "account",
          "type": "address"
        }
      ],
      "name": "removeAdmin",
      "outputs": [],
      "stateMutability": "nonpayable",
      "type": "function"
    },
    {
      "inputs": [
        {
          "internalType": "address",
          "name": "account",
          "type": "address"
        }
      ],
      "name": "removeManager",
      "outputs": [],
      "stateMutability": "nonpayable",
      "type": "function"
    },
    {
      "inputs": [
        {
          "internalType": "address",
          "name": "account",
          "type": "address"
        }
      ],
      "name": "removeOperator",
      "outputs": [],
      "stateMutability": "nonpayable",
      "type": "function"
    },
    {
      "inputs": [],
      "name": "renounceManager",
      "outputs": [],
      "stateMutability": "nonpayable",
      "type": "function"
    },
    {
      "inputs": [],
      "name": "renounceOperator",
      "outputs": [],
      "stateMutability": "nonpayable",
      "type": "function"
    },
    {
      "inputs": [],
      "name": "renounceOwnership",
      "outputs": [],
      "stateMutability": "nonpayable",
      "type": "function"
    },
    {
      "inputs": [
        {
          "internalType": "bytes32",
          "name": "role",
          "type": "bytes32"
        },
        {
          "internalType": "address",
          "name": "account",
          "type": "address"
        }
      ],
      "name": "renounceRole",
      "outputs": [],
      "stateMutability": "nonpayable",
      "type": "function"
    },
    {
      "inputs": [
        {
          "internalType": "address",
          "name": "account",
          "type": "address"
        }
      ],
      "name": "revokeManager",
      "outputs": [],
      "stateMutability": "nonpayable",
      "type": "function"
    },
    {
      "inputs": [
        {
          "internalType": "address",
          "name": "account",
          "type": "address"
        }
      ],
      "name": "revokeOperator",
      "outputs": [],
      "stateMutability": "nonpayable",
      "type": "function"
    },
    {
      "inputs": [
        {
          "internalType": "bytes32",
          "name": "role",
          "type": "bytes32"
        },
        {
          "internalType": "address",
          "name": "account",
          "type": "address"
        }
      ],
      "name": "revokeRole",
      "outputs": [],
      "stateMutability": "nonpayable",
      "type": "function"
    },
    {
      "inputs": [
        {
          "internalType": "bytes4",
          "name": "interfaceId",
          "type": "bytes4"
        }
      ],
      "name": "supportsInterface",
      "outputs": [
        {
          "internalType": "bool",
          "name": "",
          "type": "bool"
        }
      ],
      "stateMutability": "view",
      "type": "function"
    },
    {
      "inputs": [
        {
          "internalType": "address",
          "name": "newAdmin",
          "type": "address"
        }
      ],
      "name": "transferAdmin",
      "outputs": [],
      "stateMutability": "nonpayable",
      "type": "function"
    },
    {
      "inputs": [
        {
          "internalType": "address",
          "name": "newAdmin",
          "type": "address"
        }
      ],
      "name": "transferOwnership",
      "outputs": [],
      "stateMutability": "nonpayable",
      "type": "function"
    }
  ],
  "bytecode": "0x60808060405234610016576110d9908161001c8239f35b600080fdfe608060408181526004918236101561001657600080fd5b600092833560e01c91826301ffc9a7146109b2575081631785f53c14610984578163248a9ca31461095a57816324d7806c146109145781632ab6f8db146108fa5781632d06177a146108aa5781632f2ff15d1461080f57816336568abe1461077d578163377e32e61461072d5781636d70f7ae146106d95781637048027514610636578163715018a61461061057816375829def146105f35781638f32d59b146105c057816391d14854146105795781639870d7fe146104c6578163a217fddf146104ab578163ac18de431461047d578163ac8a584a1461044f578163d547741f14610414578163ec87621c146103eb578163f2fde38b146102aa57508063f3ae241514610257578063f5b541a61461022f578063f8b91abe1461020f5763fad8b32a1461014357600080fd5b3461020b57602090816003193601126102075761015e610a2a565b9061017061016b33610a5b565b611014565b6000805160206110ad833981519152928385526001815261019660018387200154610a98565b838552600181528185206001600160a01b039093168086529281528185205460ff166101c0578480f35b8385526001815281852083865290528320805460ff1916905533917ff6391f5c32d9c69d2a47ea670b442974b53935d1edc7fd64eb21e047a839171b8480a4388080808480f35b8280fd5b5080fd5b823461022c578060031936011261022c5761022933610f5f565b80f35b80fd5b503461020b578160031936011261020b57602090516000805160206110ad8339815191528152f35b503461020b57602036600319011261020b5760ff81602093610277610a2a565b60008051602061108d8339815191528252600186528282206001600160a01b039091168252855220549151911615158152f35b91905034610207576020806003193601126103e7576102c7610a2a565b6102d361016b33610a5b565b6102df61016b33610a5b565b6001600160a01b03169283156103a65783331461036c57508380526001815261030d60018386200154610a98565b83805260018152818420838552815260ff828520541615610333575b8361022933610dce565b8380526001815281842090838552528220600160ff1982541617905533908260008051602061106d8339815191528180a4388080610329565b915162461bcd60e51b815291820152601660248201527520b1b1b2b9b9b4b136329d1039b0b6b29030b236b4b760511b6044820152606490fd5b915162461bcd60e51b815291820152601860248201527f41636365737369626c653a207a65726f206164647265737300000000000000006044820152606490fd5b8380fd5b50503461020b578160031936011261020b576020905160008051602061108d8339815191528152f35b91905034610207578060031936011261020757610229913561044a6001610439610a45565b938387528160205286200154610a98565b610fbc565b833461022c57602036600319011261022c5761022961046c610a2a565b61047861016b33610a5b565b610ebd565b833461022c57602036600319011261022c5761022961049a610a2a565b6104a661016b33610a5b565b610f5f565b50503461020b578160031936011261020b5751908152602090f35b50503461020b5760209081600319360112610207576104e3610a2a565b906104f061016b33610a5b565b6000805160206110ad833981519152928385526001815261051660018387200154610a98565b838552600181528185206001600160a01b039093168086529281528185205460ff1615610541578480f35b8385526001815281852090838652528320600160ff19825416179055339160008051602061106d8339815191528480a4388080808480f35b9050346102075781600319360112610207578160209360ff9261059a610a45565b90358252600186528282206001600160a01b039091168252855220549151911615158152f35b50503461020b578160031936011261020b5760ff8183806020955260018552818120338252855220541690519015158152f35b91905034610207576020806003193601126103e7576102d3610a2a565b833461022c578060031936011261022c5761062d61016b33610a5b565b61022933610dce565b50503461020b576020908160031936011261020757610653610a2a565b9161066061016b33610a5b565b8380526001815261067660018386200154610a98565b838052600181528184206001600160a01b039093168085529281528184205460ff16156106a1578380f35b8380526001815281842090838552528220600160ff1982541617905533908260008051602061106d8339815191528180a43880808380f35b50503461020b57602036600319011261020b5760ff816020936106fa610a2a565b6000805160206110ad8339815191528252600186528282206001600160a01b039091168252855220549151911615158152f35b50503461020b57602090816003193601126102075761074a610a2a565b9061075761016b33610a5b565b60008051602061108d833981519152928385526001815261019660018387200154610a98565b8391503461020b578260031936011261020b57610798610a45565b90336001600160a01b038316036107b457906102299135610fbc565b608490602085519162461bcd60e51b8352820152602f60248201527f416363657373436f6e74726f6c3a2063616e206f6e6c792072656e6f756e636560448201526e103937b632b9903337b91039b2b63360891b6064820152fd5b905034610207578160031936011261020757359061082b610a45565b90828452600160205261084360018286200154610a98565b828452600160209081528185206001600160a01b039093168086529290528084205460ff1615610871578380f35b82845260016020528084208285526020528320600160ff19825416179055339160008051602061106d8339815191528480a43880808380f35b50503461020b5760209081600319360112610207576108c7610a2a565b906108d461016b33610a5b565b60008051602061108d833981519152928385526001815261051660018387200154610a98565b833461022c578060031936011261022c5761022933610ebd565b50503461020b57602036600319011261020b5760ff81602093610935610a2a565b818052600186528282206001600160a01b039091168252855220549151911615158152f35b90503461020757602036600319011261020757816020936001923581528285522001549051908152f35b833461022c57602036600319011261022c576102296109a1610a2a565b6109ad61016b33610a5b565b610dce565b8484923461020b57602036600319011261020b573563ffffffff60e01b811680910361020b57602093637965db0b60e01b82149283156109f6575b50505015158152f35b6301ffc9a760e01b8314935090918315610a16575b5050508380806109ed565b60ff93508152808552205416838080610a0b565b600435906001600160a01b0382168203610a4057565b600080fd5b602435906001600160a01b0382168203610a4057565b6001600160a01b031660009081527fa6eef7e35abe7026729641147f7915573c7e97b47efa546f5f6e3230263bcb49602052604090205460ff1690565b60009080825260016020818152604093848120338252825260ff858220541615610ac3575050505050565b33855193606085019567ffffffffffffffff9686811088821117610d97578852602a86528486019288368537865115610d8357603084538651831015610d83576078602188015360295b838111610d195750610c43578751906080820182811089821117610d0557895260428252858201926060368537825115610cf157603084538251811015610cf157607860218401536041905b808211610c85575050610c435791610bd894939188936067989951968793610bae8886019a7f416363657373436f6e74726f6c3a206163636f756e74200000000000000000008c525180926037880190610dab565b8401917001034b99036b4b9b9b4b733903937b6329607d1b60378401525180936048840190610dab565b0103602881018552601f19968791011684019684881090881117610c2f575092610c2660449593601f938880975262461bcd60e51b8752600487015251809281602488015287870190610dab565b01168101030190fd5b634e487b7160e01b81526041600452602490fd5b60648589519062461bcd60e51b825280600483015260248201527f537472696e67733a20686578206c656e67746820696e73756666696369656e746044820152fd5b9091600f81166010811015610cdd576f181899199a1a9b1b9c1cb0b131b232b360811b901a610cb48486610fed565b5360041c918015610cc9576000190190610b59565b634e487b7160e01b87526011600452602487fd5b634e487b7160e01b88526032600452602488fd5b634e487b7160e01b86526032600452602486fd5b634e487b7160e01b86526041600452602486fd5b90600f81166010811015610d6f576f181899199a1a9b1b9c1cb0b131b232b360811b901a610d47838a610fed565b5360041c908015610d5b5760001901610b0d565b634e487b7160e01b86526011600452602486fd5b634e487b7160e01b87526032600452602487fd5b634e487b7160e01b85526032600452602485fd5b634e487b7160e01b85526041600452602485fd5b60005b838110610dbe5750506000910152565b8181015183820152602001610dae565b6001600160a01b0316338103610e605760008181527fa6eef7e35abe7026729641147f7915573c7e97b47efa546f5f6e3230263bcb49602052604081205490919060ff16610e1a575050565b8180526001602052604082208183526020526040822060ff19815416905533917ff6391f5c32d9c69d2a47ea670b442974b53935d1edc7fd64eb21e047a839171b8180a4565b60405162461bcd60e51b815260206004820152602f60248201527f416363657373436f6e74726f6c3a2063616e206f6e6c792072656e6f756e636560448201526e103937b632b9903337b91039b2b63360891b6064820152608490fd5b6001600160a01b0316338103610e605760008181527f8ba84450219907afe912da1ddd29b6f4e773baa5c2630d42ebe0371c91fdf9ed60205260408120549091906000805160206110ad8339815191529060ff16610f1a57505050565b8083526001602052604083208284526020526040832060ff1981541690557ff6391f5c32d9c69d2a47ea670b442974b53935d1edc7fd64eb21e047a839171b339380a4565b6001600160a01b0316338103610e605760008181527fdf0e2e391206177b5985a6e8a050b68ff49710d99d65a50c9c1ef925d8debb9c602052604081205490919060008051602061108d8339815191529060ff16610f1a57505050565b906000918083526001602052604083209160018060a01b03169182845260205260ff604084205416610f1a57505050565b908151811015610ffe570160200190565b634e487b7160e01b600052603260045260246000fd5b1561101b57565b60405162461bcd60e51b815260206004820152602360248201527f41757468436f6e74726f6c3a2043616c6c6572206973206e6f7420616e20616460448201526236b4b760e91b6064820152608490fdfe2f8788117e7eff1d82e926ec794901d17c78024a50270940304540a733656f0daf290d8680820aad922855f39b306097b20e28774d6c1ad35a20325630c3a02c523a704056dcd17bcf83bed8b68c59416dac1119be77755efe3bde0a64e46e0ca164736f6c6343000812000a",
  "linkReferences": {},
  "deployedLinkReferences": {}
}