{
  "_format": "hh-sol-artifact-1",
  "contractName": "Lib_AddressManager",
  "sourceName": "contracts/test/Lib_AddressManager.sol",
  "abi": [
    {
      "anonymous": false,
      "inputs": [
        {
          "indexed": true,
          "internalType": "string",
          "name": "_name",
          "type": "string"
        },
        {
          "indexed": false,
          "internalType": "address",
          "name": "_newAddress",
          "type": "address"
        },
        {
          "indexed": false,
          "internalType": "address",
          "name": "_oldAddress",
          "type": "address"
        }
      ],
      "name": "AddressSet",
      "type": "event"
    },
    {
      "anonymous": false,
      "inputs": [
        {
          "indexed": true,
          "internalType": "address",
          "name": "previousOwner",
          "type": "address"
        },
        {
          "indexed": true,
          "internalType": "address",
          "name": "newOwner",
          "type": "address"
        }
      ],
      "name": "OwnershipTransferred",
      "type": "event"
    },
    {
      "inputs": [
        {
          "internalType": "string",
          "name": "_name",
          "type": "string"
        }
      ],
      "name": "getAddress",
      "outputs": [
        {
          "internalType": "address",
          "name": "",
          "type": "address"
        }
      ],
      "stateMutability": "view",
      "type": "function"
    },
    {
      "inputs": [],
      "name": "owner",
      "outputs": [
        {
          "internalType": "address",
          "name": "",
          "type": "address"
        }
      ],
      "stateMutability": "view",
      "type": "function"
    },
    {
      "inputs": [],
      "name": "renounceOwnership",
      "outputs": [],
      "stateMutability": "nonpayable",
      "type": "function"
    },
    {
      "inputs": [
        {
          "internalType": "string",
          "name": "_name",
          "type": "string"
        },
        {
          "internalType": "address",
          "name": "_address",
          "type": "address"
        }
      ],
      "name": "setAddress",
      "outputs": [],
      "stateMutability": "nonpayable",
      "type": "function"
    },
    {
      "inputs": [
        {
          "internalType": "address",
          "name": "newOwner",
          "type": "address"
        }
      ],
      "name": "transferOwnership",
      "outputs": [],
      "stateMutability": "nonpayable",
      "type": "function"
    }
  ],
  "bytecode": "0x608060405234801561001057600080fd5b5061001a3361001f565b61006f565b600080546001600160a01b038381166001600160a01b0319831681178455604051919092169283917f8be0079c531659141344cd1fd0a4f28419497f9722a3daafe3b4186f6b6457e09190a35050565b6104d68061007e6000396000f3fe608060405234801561001057600080fd5b50600436106100675760003560e01c80639b2ea4bd116100505780639b2ea4bd1461009f578063bf40fac1146100b2578063f2fde38b146100c557600080fd5b8063715018a61461006c5780638da5cb5b14610076575b600080fd5b6100746100d8565b005b6000546001600160a01b03165b6040516001600160a01b03909116815260200160405180910390f35b6100746100ad3660046103ed565b6100ec565b6100836100c036600461043b565b61019a565b6100746100d3366004610478565b6101c9565b6100e0610247565b6100ea60006102a1565b565b6100f4610247565b60006100ff836102fe565b6000818152600160205260409081902080546001600160a01b0386811673ffffffffffffffffffffffffffffffffffffffff198316179092559151929350169061014a90859061049a565b604080519182900382206001600160a01b03808716845284166020840152917f9416a153a346f93d95f94b064ae3f148b6460473c6e82b3f9fc2521b873fcd6c910160405180910390a250505050565b6000600160006101a9846102fe565b81526020810191909152604001600020546001600160a01b031692915050565b6101d1610247565b6001600160a01b03811661023b5760405162461bcd60e51b815260206004820152602660248201527f4f776e61626c653a206e6577206f776e657220697320746865207a65726f206160448201526564647265737360d01b60648201526084015b60405180910390fd5b610244816102a1565b50565b6000546001600160a01b031633146100ea5760405162461bcd60e51b815260206004820181905260248201527f4f776e61626c653a2063616c6c6572206973206e6f7420746865206f776e65726044820152606401610232565b600080546001600160a01b0383811673ffffffffffffffffffffffffffffffffffffffff19831681178455604051919092169283917f8be0079c531659141344cd1fd0a4f28419497f9722a3daafe3b4186f6b6457e09190a35050565b600081604051602001610311919061049a565b604051602081830303815290604052805190602001209050919050565b634e487b7160e01b600052604160045260246000fd5b600082601f83011261035557600080fd5b813567ffffffffffffffff808211156103705761037061032e565b604051601f8301601f19908116603f011681019082821181831017156103985761039861032e565b816040528381528660208588010111156103b157600080fd5b836020870160208301376000602085830101528094505050505092915050565b80356001600160a01b03811681146103e857600080fd5b919050565b6000806040838503121561040057600080fd5b823567ffffffffffffffff81111561041757600080fd5b61042385828601610344565b925050610432602084016103d1565b90509250929050565b60006020828403121561044d57600080fd5b813567ffffffffffffffff81111561046457600080fd5b61047084828501610344565b949350505050565b60006020828403121561048a57600080fd5b610493826103d1565b9392505050565b6000825160005b818110156104bb57602081860181015185830152016104a1565b50600092019182525091905056fea164736f6c6343000813000a",
  "linkReferences": {},
  "deployedLinkReferences": {}
}