{
  "_format": "hh-sol-artifact-1",
  "contractName": "AuthControlL1BridgeRegistry",
  "sourceName": "contracts/common/AuthControlL1BridgeRegistry.sol",
  "abi": [
    {
      "anonymous": false,
      "inputs": [
        {
          "indexed": true,
          "internalType": "bytes32",
          "name": "role",
          "type": "bytes32"
        },
        {
          "indexed": true,
          "internalType": "bytes32",
          "name": "previousAdminRole",
          "type": "bytes32"
        },
        {
          "indexed": true,
          "internalType": "bytes32",
          "name": "newAdminRole",
          "type": "bytes32"
        }
      ],
      "name": "RoleAdminChanged",
      "type": "event"
    },
    {
      "anonymous": false,
      "inputs": [
        {
          "indexed": true,
          "internalType": "bytes32",
          "name": "role",
          "type": "bytes32"
        },
        {
          "indexed": true,
          "internalType": "address",
          "name": "account",
          "type": "address"
        },
        {
          "indexed": true,
          "internalType": "address",
          "name": "sender",
          "type": "address"
        }
      ],
      "name": "RoleGranted",
      "type": "event"
    },
    {
      "anonymous": false,
      "inputs": [
        {
          "indexed": true,
          "internalType": "bytes32",
          "name": "role",
          "type": "bytes32"
        },
        {
          "indexed": true,
          "internalType": "address",
          "name": "account",
          "type": "address"
        },
        {
          "indexed": true,
          "internalType": "address",
          "name": "sender",
          "type": "address"
        }
      ],
      "name": "RoleRevoked",
      "type": "event"
    },
    {
      "inputs": [],
      "name": "DEFAULT_ADMIN_ROLE",
      "outputs": [
        {
          "internalType": "bytes32",
          "name": "",
          "type": "bytes32"
        }
      ],
      "stateMutability": "view",
      "type": "function"
    },
    {
      "inputs": [],
      "name": "MANAGER_ROLE",
      "outputs": [
        {
          "internalType": "bytes32",
          "name": "",
          "type": "bytes32"
        }
      ],
      "stateMutability": "view",
      "type": "function"
    },
    {
      "inputs": [],
      "name": "REGISTRANT_ROLE",
      "outputs": [
        {
          "internalType": "bytes32",
          "name": "",
          "type": "bytes32"
        }
      ],
      "stateMutability": "view",
      "type": "function"
    },
    {
      "inputs": [
        {
          "internalType": "address",
          "name": "account",
          "type": "address"
        }
      ],
      "name": "addAdmin",
      "outputs": [],
      "stateMutability": "nonpayable",
      "type": "function"
    },
    {
      "inputs": [
        {
          "internalType": "address",
          "name": "account",
          "type": "address"
        }
      ],
      "name": "addManager",
      "outputs": [],
      "stateMutability": "nonpayable",
      "type": "function"
    },
    {
      "inputs": [
        {
          "internalType": "address",
          "name": "account",
          "type": "address"
        }
      ],
      "name": "addRegistrant",
      "outputs": [],
      "stateMutability": "nonpayable",
      "type": "function"
    },
    {
      "inputs": [
        {
          "internalType": "bytes32",
          "name": "role",
          "type": "bytes32"
        }
      ],
      "name": "getRoleAdmin",
      "outputs": [
        {
          "internalType": "bytes32",
          "name": "",
          "type": "bytes32"
        }
      ],
      "stateMutability": "view",
      "type": "function"
    },
    {
      "inputs": [
        {
          "internalType": "bytes32",
          "name": "role",
          "type": "bytes32"
        },
        {
          "internalType": "address",
          "name": "account",
          "type": "address"
        }
      ],
      "name": "grantRole",
      "outputs": [],
      "stateMutability": "nonpayable",
      "type": "function"
    },
    {
      "inputs": [
        {
          "internalType": "bytes32",
          "name": "role",
          "type": "bytes32"
        },
        {
          "internalType": "address",
          "name": "account",
          "type": "address"
        }
      ],
      "name": "hasRole",
      "outputs": [
        {
          "internalType": "bool",
          "name": "",
          "type": "bool"
        }
      ],
      "stateMutability": "view",
      "type": "function"
    },
    {
      "inputs": [
        {
          "internalType": "address",
          "name": "account",
          "type": "address"
        }
      ],
      "name": "isAdmin",
      "outputs": [
        {
          "internalType": "bool",
          "name": "",
          "type": "bool"
        }
      ],
      "stateMutability": "view",
      "type": "function"
    },
    {
      "inputs": [
        {
          "internalType": "address",
          "name": "account",
          "type": "address"
        }
      ],
      "name": "isManager",
      "outputs": [
        {
          "internalType": "bool",
          "name": "",
          "type": "bool"
        }
      ],
      "stateMutability": "view",
      "type": "function"
    },
    {
      "inputs": [],
      "name": "isOwner",
      "outputs": [
        {
          "internalType": "bool",
          "name": "",
          "type": "bool"
        }
      ],
      "stateMutability": "view",
      "type": "function"
    },
    {
      "inputs": [
        {
          "internalType": "address",
          "name": "account",
          "type": "address"
        }
      ],
      "name": "isRegistrant",
      "outputs": [
        {
          "internalType": "bool",
          "name": "",
          "type": "bool"
        }
      ],
      "stateMutability": "view",
      "type": "function"
    },
    {
      "inputs": [
        {
          "internalType": "address",
          "name": "account",
          "type": "address"
        }
      ],
      "name": "removeAdmin",
      "outputs": [],
      "stateMutability": "nonpayable",
      "type": "function"
    },
    {
      "inputs": [
        {
          "internalType": "address",
          "name": "account",
          "type": "address"
        }
      ],
      "name": "removeManager",
      "outputs": [],
      "stateMutability": "nonpayable",
      "type": "function"
    },
    {
      "inputs": [
        {
          "internalType": "address",
          "name": "account",
          "type": "address"
        }
      ],
      "name": "removeRegistrant",
      "outputs": [],
      "stateMutability": "nonpayable",
      "type": "function"
    },
    {
      "inputs": [],
      "name": "renounceManager",
      "outputs": [],
      "stateMutability": "nonpayable",
      "type": "function"
    },
    {
      "inputs": [],
      "name": "renounceOwnership",
      "outputs": [],
      "stateMutability": "nonpayable",
      "type": "function"
    },
    {
      "inputs": [],
      "name": "renounceRegistrant",
      "outputs": [],
      "stateMutability": "nonpayable",
      "type": "function"
    },
    {
      "inputs": [
        {
          "internalType": "bytes32",
          "name": "role",
          "type": "bytes32"
        },
        {
          "internalType": "address",
          "name": "account",
          "type": "address"
        }
      ],
      "name": "renounceRole",
      "outputs": [],
      "stateMutability": "nonpayable",
      "type": "function"
    },
    {
      "inputs": [
        {
          "internalType": "address",
          "name": "account",
          "type": "address"
        }
      ],
      "name": "revokeManager",
      "outputs": [],
      "stateMutability": "nonpayable",
      "type": "function"
    },
    {
      "inputs": [
        {
          "internalType": "address",
          "name": "account",
          "type": "address"
        }
      ],
      "name": "revokeRegistrant",
      "outputs": [],
      "stateMutability": "nonpayable",
      "type": "function"
    },
    {
      "inputs": [
        {
          "internalType": "bytes32",
          "name": "role",
          "type": "bytes32"
        },
        {
          "internalType": "address",
          "name": "account",
          "type": "address"
        }
      ],
      "name": "revokeRole",
      "outputs": [],
      "stateMutability": "nonpayable",
      "type": "function"
    },
    {
      "inputs": [
        {
          "internalType": "bytes4",
          "name": "interfaceId",
          "type": "bytes4"
        }
      ],
      "name": "supportsInterface",
      "outputs": [
        {
          "internalType": "bool",
          "name": "",
          "type": "bool"
        }
      ],
      "stateMutability": "view",
      "type": "function"
    },
    {
      "inputs": [
        {
          "internalType": "address",
          "name": "newAdmin",
          "type": "address"
        }
      ],
      "name": "transferAdmin",
      "outputs": [],
      "stateMutability": "nonpayable",
      "type": "function"
    },
    {
      "inputs": [
        {
          "internalType": "address",
          "name": "newAdmin",
          "type": "address"
        }
      ],
      "name": "transferOwnership",
      "outputs": [],
      "stateMutability": "nonpayable",
      "type": "function"
    }
  ],
  "bytecode": "0x60808060405234610016576110dd908161001c8239f35b600080fdfe60806040908082526004918236101561001757600080fd5b600092833560e01c92836301ffc9a7146109b6575082631785f53c14610988578263248a9ca31461095d57826324d7806c146109175782632d06177a146108c75782632f2ff15d1461082b57826335556fe31461081157826336568abe14610780578263377e32e6146107305782636f5b142b146107075782637048027514610664578263715018a61461063e57826375829def1461062257826386ad05b6146105ce5782638cfc9347146105a05782638f32d59b1461056d57826391d1485414610525578263a217fddf1461050a578263ac18de43146104dc578263bbfcfc1e14610429578263d00491c614610368578263d547741f1461032e578263ec87621c14610305578263f2fde38b146101bc57508163f3ae241514610164575063f8b91abe1461014557600080fd5b3461016157806003193601126101615761015e33610f63565b80f35b80fd5b9050346101b85760203660031901126101b85760ff81602093610185610a2e565b6000805160206110918339815191528252600186528282206001600160a01b039091168252855220549151911615158152f35b5080fd5b915034610301576020806003193601126102fd576101d8610a2e565b6101e96101e433610a5f565b611018565b6101f56101e433610a5f565b6001600160a01b03169283156102bc5783331461028257508380526001815261022360018386200154610a9c565b83805260018152818420838552815260ff828520541615610249575b8361015e33610dd2565b8380526001815281842090838552528220600160ff198254161790553390826000805160206110718339815191528180a438808061023f565b915162461bcd60e51b815291820152601660248201527520b1b1b2b9b9b4b136329d1039b0b6b29030b236b4b760511b6044820152606490fd5b915162461bcd60e51b815291820152601860248201527f41636365737369626c653a207a65726f206164647265737300000000000000006044820152606490fd5b8380fd5b8280fd5b8382346101b857816003193601126101b857602090516000805160206110918339815191528152f35b91503461030157806003193601126103015761015e91356103636001610352610a49565b938387528160205286200154610a9c565b610fc0565b8382346101b8576020908160031936011261030157610385610a2e565b906103926101e433610a5f565b6000805160206110b183398151915292838552600181526103b860018387200154610a9c565b838552600181528185206001600160a01b039093168086529281528185205460ff166103e2578480f35b8385526001815281852083865290528320805460ff1916905533917ff6391f5c32d9c69d2a47ea670b442974b53935d1edc7fd64eb21e047a839171b8480a4818080808480f35b8382346101b8576020908160031936011261030157610446610a2e565b906104536101e433610a5f565b6000805160206110b1833981519152928385526001815261047960018387200154610a9c565b838552600181528185206001600160a01b039093168086529281528185205460ff16156104a4578480f35b8385526001815281852090838652528320600160ff1982541617905533916000805160206110718339815191528480a4818080808480f35b83346101615760203660031901126101615761015e6104f9610a2e565b6105056101e433610a5f565b610f63565b8382346101b857816003193601126101b85751908152602090f35b909150346103015781600319360112610301578160209360ff92610547610a49565b90358252600186528282206001600160a01b039091168252855220549151911615158152f35b8382346101b857816003193601126101b85760ff8183806020955260018552818120338252855220541690519015158152f35b83346101615760203660031901126101615761015e6105bd610a2e565b6105c96101e433610a5f565b610ec1565b8382346101b85760203660031901126101b85760ff816020936105ef610a2e565b6000805160206110b18339815191528252600186528282206001600160a01b039091168252855220549151911615158152f35b915034610301576020806003193601126102fd576101e9610a2e565b833461016157806003193601126101615761065b6101e433610a5f565b61015e33610dd2565b8382346101b8576020908160031936011261030157610681610a2e565b9161068e6101e433610a5f565b838052600181526106a460018386200154610a9c565b838052600181528184206001600160a01b039093168085529281528184205460ff16156106cf578380f35b8380526001815281842090838552528220600160ff198254161790553390826000805160206110718339815191528180a48180808380f35b8382346101b857816003193601126101b857602090516000805160206110b18339815191528152f35b8382346101b857602090816003193601126103015761074d610a2e565b9061075a6101e433610a5f565b60008051602061109183398151915292838552600181526103b860018387200154610a9c565b8390346101b857826003193601126101b85761079a610a49565b90336001600160a01b038316036107b6579061015e9135610fc0565b608490602085519162461bcd60e51b8352820152602f60248201527f416363657373436f6e74726f6c3a2063616e206f6e6c792072656e6f756e636560448201526e103937b632b9903337b91039b2b63360891b6064820152fd5b833461016157806003193601126101615761015e33610ec1565b909150346103015781600319360112610301573590610848610a49565b90828452600160205261086060018286200154610a9c565b828452600160209081528185206001600160a01b039093168086529290528084205460ff161561088e578380f35b82845260016020528084208285526020528320600160ff1982541617905533916000805160206110718339815191528480a43880808380f35b8382346101b85760209081600319360112610301576108e4610a2e565b906108f16101e433610a5f565b600080516020611091833981519152928385526001815261047960018387200154610a9c565b8382346101b85760203660031901126101b85760ff81602093610938610a2e565b818052600186528282206001600160a01b039091168252855220549151911615158152f35b9091503461030157602036600319011261030157816020936001923581528285522001549051908152f35b83346101615760203660031901126101615761015e6109a5610a2e565b6109b16101e433610a5f565b610dd2565b908490346101b85760203660031901126101b8573563ffffffff60e01b81168091036101b857602093637965db0b60e01b82149283156109fa575b50505015158152f35b6301ffc9a760e01b8314935090918315610a1a575b5050508380806109f1565b60ff93508152808552205416838080610a0f565b600435906001600160a01b0382168203610a4457565b600080fd5b602435906001600160a01b0382168203610a4457565b6001600160a01b031660009081527fa6eef7e35abe7026729641147f7915573c7e97b47efa546f5f6e3230263bcb49602052604090205460ff1690565b60009080825260016020818152604093848120338252825260ff858220541615610ac7575050505050565b33855193606085019567ffffffffffffffff9686811088821117610d9b578852602a86528486019288368537865115610d8757603084538651831015610d87576078602188015360295b838111610d1d5750610c47578751906080820182811089821117610d0957895260428252858201926060368537825115610cf557603084538251811015610cf557607860218401536041905b808211610c89575050610c475791610bdc94939188936067989951968793610bb28886019a7f416363657373436f6e74726f6c3a206163636f756e74200000000000000000008c525180926037880190610daf565b8401917001034b99036b4b9b9b4b733903937b6329607d1b60378401525180936048840190610daf565b0103602881018552601f19968791011684019684881090881117610c33575092610c2a60449593601f938880975262461bcd60e51b8752600487015251809281602488015287870190610daf565b01168101030190fd5b634e487b7160e01b81526041600452602490fd5b60648589519062461bcd60e51b825280600483015260248201527f537472696e67733a20686578206c656e67746820696e73756666696369656e746044820152fd5b9091600f81166010811015610ce1576f181899199a1a9b1b9c1cb0b131b232b360811b901a610cb88486610ff1565b5360041c918015610ccd576000190190610b5d565b634e487b7160e01b87526011600452602487fd5b634e487b7160e01b88526032600452602488fd5b634e487b7160e01b86526032600452602486fd5b634e487b7160e01b86526041600452602486fd5b90600f81166010811015610d73576f181899199a1a9b1b9c1cb0b131b232b360811b901a610d4b838a610ff1565b5360041c908015610d5f5760001901610b11565b634e487b7160e01b86526011600452602486fd5b634e487b7160e01b87526032600452602487fd5b634e487b7160e01b85526032600452602485fd5b634e487b7160e01b85526041600452602485fd5b60005b838110610dc25750506000910152565b8181015183820152602001610db2565b6001600160a01b0316338103610e645760008181527fa6eef7e35abe7026729641147f7915573c7e97b47efa546f5f6e3230263bcb49602052604081205490919060ff16610e1e575050565b8180526001602052604082208183526020526040822060ff19815416905533917ff6391f5c32d9c69d2a47ea670b442974b53935d1edc7fd64eb21e047a839171b8180a4565b60405162461bcd60e51b815260206004820152602f60248201527f416363657373436f6e74726f6c3a2063616e206f6e6c792072656e6f756e636560448201526e103937b632b9903337b91039b2b63360891b6064820152608490fd5b6001600160a01b0316338103610e645760008181527f2b14411a1968c9c748f2698a4b51e91d68861df6c48fb45d34e0913043cc089d60205260408120549091906000805160206110b18339815191529060ff16610f1e57505050565b8083526001602052604083208284526020526040832060ff1981541690557ff6391f5c32d9c69d2a47ea670b442974b53935d1edc7fd64eb21e047a839171b339380a4565b6001600160a01b0316338103610e645760008181527fdf0e2e391206177b5985a6e8a050b68ff49710d99d65a50c9c1ef925d8debb9c60205260408120549091906000805160206110918339815191529060ff16610f1e57505050565b906000918083526001602052604083209160018060a01b03169182845260205260ff604084205416610f1e57505050565b908151811015611002570160200190565b634e487b7160e01b600052603260045260246000fd5b1561101f57565b60405162461bcd60e51b815260206004820152602360248201527f41757468436f6e74726f6c3a2043616c6c6572206973206e6f7420616e20616460448201526236b4b760e91b6064820152608490fdfe2f8788117e7eff1d82e926ec794901d17c78024a50270940304540a733656f0daf290d8680820aad922855f39b306097b20e28774d6c1ad35a20325630c3a02c12090aa55130d5a2442eb84fc286ca6e600db6c50b6c5d9b6d0d929f0e2d8ce8a164736f6c6343000813000a",
  "linkReferences": {},
  "deployedLinkReferences": {}
}