{
  "_format": "hh-sol-artifact-1",
  "contractName": "AuthControlL1BridgeRegistry",
  "sourceName": "contracts/common/AuthControlL1BridgeRegistry.sol",
  "abi": [
    {
      "anonymous": false,
      "inputs": [
        {
          "indexed": true,
          "internalType": "bytes32",
          "name": "role",
          "type": "bytes32"
        },
        {
          "indexed": true,
          "internalType": "bytes32",
          "name": "previousAdminRole",
          "type": "bytes32"
        },
        {
          "indexed": true,
          "internalType": "bytes32",
          "name": "newAdminRole",
          "type": "bytes32"
        }
      ],
      "name": "RoleAdminChanged",
      "type": "event"
    },
    {
      "anonymous": false,
      "inputs": [
        {
          "indexed": true,
          "internalType": "bytes32",
          "name": "role",
          "type": "bytes32"
        },
        {
          "indexed": true,
          "internalType": "address",
          "name": "account",
          "type": "address"
        },
        {
          "indexed": true,
          "internalType": "address",
          "name": "sender",
          "type": "address"
        }
      ],
      "name": "RoleGranted",
      "type": "event"
    },
    {
      "anonymous": false,
      "inputs": [
        {
          "indexed": true,
          "internalType": "bytes32",
          "name": "role",
          "type": "bytes32"
        },
        {
          "indexed": true,
          "internalType": "address",
          "name": "account",
          "type": "address"
        },
        {
          "indexed": true,
          "internalType": "address",
          "name": "sender",
          "type": "address"
        }
      ],
      "name": "RoleRevoked",
      "type": "event"
    },
    {
      "inputs": [],
      "name": "DEFAULT_ADMIN_ROLE",
      "outputs": [
        {
          "internalType": "bytes32",
          "name": "",
          "type": "bytes32"
        }
      ],
      "stateMutability": "view",
      "type": "function"
    },
    {
      "inputs": [],
      "name": "MANAGER_ROLE",
      "outputs": [
        {
          "internalType": "bytes32",
          "name": "",
          "type": "bytes32"
        }
      ],
      "stateMutability": "view",
      "type": "function"
    },
    {
      "inputs": [],
      "name": "REGISTRANT_ROLE",
      "outputs": [
        {
          "internalType": "bytes32",
          "name": "",
          "type": "bytes32"
        }
      ],
      "stateMutability": "view",
      "type": "function"
    },
    {
      "inputs": [
        {
          "internalType": "address",
          "name": "account",
          "type": "address"
        }
      ],
      "name": "addAdmin",
      "outputs": [],
      "stateMutability": "nonpayable",
      "type": "function"
    },
    {
      "inputs": [
        {
          "internalType": "address",
          "name": "account",
          "type": "address"
        }
      ],
      "name": "addManager",
      "outputs": [],
      "stateMutability": "nonpayable",
      "type": "function"
    },
    {
      "inputs": [
        {
          "internalType": "address",
          "name": "account",
          "type": "address"
        }
      ],
      "name": "addRegistrant",
      "outputs": [],
      "stateMutability": "nonpayable",
      "type": "function"
    },
    {
      "inputs": [
        {
          "internalType": "bytes32",
          "name": "role",
          "type": "bytes32"
        }
      ],
      "name": "getRoleAdmin",
      "outputs": [
        {
          "internalType": "bytes32",
          "name": "",
          "type": "bytes32"
        }
      ],
      "stateMutability": "view",
      "type": "function"
    },
    {
      "inputs": [
        {
          "internalType": "bytes32",
          "name": "role",
          "type": "bytes32"
        },
        {
          "internalType": "address",
          "name": "account",
          "type": "address"
        }
      ],
      "name": "grantRole",
      "outputs": [],
      "stateMutability": "nonpayable",
      "type": "function"
    },
    {
      "inputs": [
        {
          "internalType": "bytes32",
          "name": "role",
          "type": "bytes32"
        },
        {
          "internalType": "address",
          "name": "account",
          "type": "address"
        }
      ],
      "name": "hasRole",
      "outputs": [
        {
          "internalType": "bool",
          "name": "",
          "type": "bool"
        }
      ],
      "stateMutability": "view",
      "type": "function"
    },
    {
      "inputs": [
        {
          "internalType": "address",
          "name": "account",
          "type": "address"
        }
      ],
      "name": "isAdmin",
      "outputs": [
        {
          "internalType": "bool",
          "name": "",
          "type": "bool"
        }
      ],
      "stateMutability": "view",
      "type": "function"
    },
    {
      "inputs": [
        {
          "internalType": "address",
          "name": "account",
          "type": "address"
        }
      ],
      "name": "isManager",
      "outputs": [
        {
          "internalType": "bool",
          "name": "",
          "type": "bool"
        }
      ],
      "stateMutability": "view",
      "type": "function"
    },
    {
      "inputs": [],
      "name": "isOwner",
      "outputs": [
        {
          "internalType": "bool",
          "name": "",
          "type": "bool"
        }
      ],
      "stateMutability": "view",
      "type": "function"
    },
    {
      "inputs": [
        {
          "internalType": "address",
          "name": "account",
          "type": "address"
        }
      ],
      "name": "isRegistrant",
      "outputs": [
        {
          "internalType": "bool",
          "name": "",
          "type": "bool"
        }
      ],
      "stateMutability": "view",
      "type": "function"
    },
    {
      "inputs": [
        {
          "internalType": "address",
          "name": "account",
          "type": "address"
        }
      ],
      "name": "removeAdmin",
      "outputs": [],
      "stateMutability": "nonpayable",
      "type": "function"
    },
    {
      "inputs": [
        {
          "internalType": "address",
          "name": "account",
          "type": "address"
        }
      ],
      "name": "removeManager",
      "outputs": [],
      "stateMutability": "nonpayable",
      "type": "function"
    },
    {
      "inputs": [
        {
          "internalType": "address",
          "name": "account",
          "type": "address"
        }
      ],
      "name": "removeRegistrant",
      "outputs": [],
      "stateMutability": "nonpayable",
      "type": "function"
    },
    {
      "inputs": [],
      "name": "renounceManager",
      "outputs": [],
      "stateMutability": "nonpayable",
      "type": "function"
    },
    {
      "inputs": [],
      "name": "renounceOwnership",
      "outputs": [],
      "stateMutability": "nonpayable",
      "type": "function"
    },
    {
      "inputs": [],
      "name": "renounceRegistrant",
      "outputs": [],
      "stateMutability": "nonpayable",
      "type": "function"
    },
    {
      "inputs": [
        {
          "internalType": "bytes32",
          "name": "role",
          "type": "bytes32"
        },
        {
          "internalType": "address",
          "name": "account",
          "type": "address"
        }
      ],
      "name": "renounceRole",
      "outputs": [],
      "stateMutability": "nonpayable",
      "type": "function"
    },
    {
      "inputs": [
        {
          "internalType": "address",
          "name": "account",
          "type": "address"
        }
      ],
      "name": "revokeManager",
      "outputs": [],
      "stateMutability": "nonpayable",
      "type": "function"
    },
    {
      "inputs": [
        {
          "internalType": "address",
          "name": "account",
          "type": "address"
        }
      ],
      "name": "revokeRegistrant",
      "outputs": [],
      "stateMutability": "nonpayable",
      "type": "function"
    },
    {
      "inputs": [
        {
          "internalType": "bytes32",
          "name": "role",
          "type": "bytes32"
        },
        {
          "internalType": "address",
          "name": "account",
          "type": "address"
        }
      ],
      "name": "revokeRole",
      "outputs": [],
      "stateMutability": "nonpayable",
      "type": "function"
    },
    {
      "inputs": [
        {
          "internalType": "bytes4",
          "name": "interfaceId",
          "type": "bytes4"
        }
      ],
      "name": "supportsInterface",
      "outputs": [
        {
          "internalType": "bool",
          "name": "",
          "type": "bool"
        }
      ],
      "stateMutability": "view",
      "type": "function"
    },
    {
      "inputs": [
        {
          "internalType": "address",
          "name": "newAdmin",
          "type": "address"
        }
      ],
      "name": "transferAdmin",
      "outputs": [],
      "stateMutability": "nonpayable",
      "type": "function"
    },
    {
      "inputs": [
        {
          "internalType": "address",
          "name": "newAdmin",
          "type": "address"
        }
      ],
      "name": "transferOwnership",
      "outputs": [],
      "stateMutability": "nonpayable",
      "type": "function"
    }
  ],
  "bytecode": "0x608080604052346100165761118b908161001c8239f35b600080fdfe608060408181526004918236101561001657600080fd5b600092833560e01c91826301ffc9a714610990575081631785f53c146108f1578163248a9ca3146108c757816324d7806c146108815781632d06177a146108065781632f2ff15d1461075957816335556fe31461073f57816336568abe146106ad578163377e32e6146104995781636f5b142b146106845781637048027514610643578163715018a61461062957816375829def1461060057816386ad05b6146105ac5781638cfc93471461055f5781638f32d59b1461052c57816391d14854146104e5578163a217fddf146104ca578163ac18de4314610499578163bbfcfc1e146103c8578163d00491c614610374578163d547741f14610335578163ec87621c1461030c578163f2fde38b1461021157508063f3ae2415146101be5763f8b91abe1461014357600080fd5b346101ba57816003193601126101ba5760008051602061111f83398151915290818352600160205280832033845260205260ff8184205416610183578280f35b8183526001602052808320338452602052822060ff1981541690553390339060008051602061115f8339815191528480a438808280f35b5080fd5b50346101ba5760203660031901126101ba5760ff816020936101de610a08565b60008051602061111f8339815191528252600186528282206001600160a01b039091168252855220549151911615158152f35b839150346101ba5760203660031901126101ba5761022d610a08565b9061023f61023a33610a39565b610ff9565b61024b61023a33610a39565b6001600160a01b03821680156102c957331461028d575061027c600183948461028195528160205285200154610a76565b610e89565b61028a33610dac565b80f35b606490602085519162461bcd60e51b8352820152601660248201527520b1b1b2b9b9b4b136329d1039b0b6b29030b236b4b760511b6044820152fd5b845162461bcd60e51b8152602081840152601860248201527f41636365737369626c653a207a65726f206164647265737300000000000000006044820152606490fd5b5050346101ba57816003193601126101ba576020905160008051602061111f8339815191528152f35b9190503461037057806003193601126103705761028a913561036b600161035a610a23565b938387528160205286200154610a76565b610fa1565b8280fd5b5050346101ba5760203660031901126101ba5761028a906103c36001610398610a08565b926103a561023a33610a39565b60008051602061113f83398151915286528160205285200154610a76565b610f18565b5050346101ba5760209081600319360112610370576103e5610a08565b9060008051602061111f833981519152845260018352808420338552835261041260ff8286205416611051565b60008051602061113f833981519152808552600184528185206001600160a01b039093168086529284528185205490939060ff161561044f578480f35b8385526001815281852090838652528320600160ff1982541617905533917f2f8788117e7eff1d82e926ec794901d17c78024a50270940304540a733656f0d8480a4388080808480f35b83346104c75760203660031901126104c75761028a6104b6610a08565b6104c261023a33610a39565b6110a9565b80fd5b5050346101ba57816003193601126101ba5751908152602090f35b9050346103705781600319360112610370578160209360ff92610506610a23565b90358252600186528282206001600160a01b039091168252855220549151911615158152f35b5050346101ba57816003193601126101ba5760ff8183806020955260018552818120338252855220541690519015158152f35b5050346101ba5760203660031901126101ba5761028a906103c360ff610583610a08565b9260008051602061111f8339815191528652600160205280862033875260205285205416611051565b5050346101ba5760203660031901126101ba5760ff816020936105cd610a08565b60008051602061113f8339815191528252600186528282206001600160a01b039091168252855220549151911615158152f35b839150346101ba5760203660031901126101ba5761061c610a08565b9061024b61023a33610a39565b83346104c757806003193601126104c75761028a33610dac565b5050346101ba5760203660031901126101ba5761028a9061027c6001610667610a08565b9261067461023a33610a39565b8580528160205285200154610a76565b5050346101ba57816003193601126101ba576020905160008051602061113f8339815191528152f35b839150346101ba57826003193601126101ba576106c8610a23565b90336001600160a01b038316036106e4579061028a9135610fa1565b608490602085519162461bcd60e51b8352820152602f60248201527f416363657373436f6e74726f6c3a2063616e206f6e6c792072656e6f756e636560448201526e103937b632b9903337b91039b2b63360891b6064820152fd5b83346104c757806003193601126104c75761028a33610f18565b9050346103705781600319360112610370573590610775610a23565b90828452600160205261078d60018286200154610a76565b828452600160209081528185206001600160a01b039093168086529290528084205460ff16156107bb578380f35b82845260016020528084208285526020528320600160ff1982541617905533917f2f8788117e7eff1d82e926ec794901d17c78024a50270940304540a733656f0d8480a43880808380f35b5050346101ba576020908160031936011261037057610823610a08565b9061083061023a33610a39565b60008051602061111f833981519152928385526001815261085660018387200154610a76565b838552600181528185206001600160a01b039093168086529281528185205460ff161561044f578480f35b5050346101ba5760203660031901126101ba5760ff816020936108a2610a08565b818052600186528282206001600160a01b039091168252855220549151911615158152f35b90503461037057602036600319011261037057816020936001923581528285522001549051908152f35b5050346101ba57602090816003193601126103705761090e610a08565b9161091b61023a33610a39565b8380526001815261093160018386200154610a76565b838052600181528184206001600160a01b039093168085529281528184205460ff1661095b578380f35b8380526001815281842083855290528220805460ff1916905533908260008051602061115f8339815191528180a43880808380f35b848492346101ba5760203660031901126101ba573563ffffffff60e01b81168091036101ba57602093637965db0b60e01b82149283156109d4575b50505015158152f35b6301ffc9a760e01b83149350909183156109f4575b5050508380806109cb565b60ff935081528085522054168380806109e9565b600435906001600160a01b0382168203610a1e57565b600080fd5b602435906001600160a01b0382168203610a1e57565b6001600160a01b031660009081527fa6eef7e35abe7026729641147f7915573c7e97b47efa546f5f6e3230263bcb49602052604090205460ff1690565b60009080825260016020818152604093848120338252825260ff858220541615610aa1575050505050565b33855193606085019567ffffffffffffffff9686811088821117610d75578852602a86528486019288368537865115610d6157603084538651831015610d61576078602188015360295b838111610cf75750610c21578751906080820182811089821117610ce357895260428252858201926060368537825115610ccf57603084538251811015610ccf57607860218401536041905b808211610c63575050610c215791610bb694939188936067989951968793610b8c8886019a7f416363657373436f6e74726f6c3a206163636f756e74200000000000000000008c525180926037880190610d89565b8401917001034b99036b4b9b9b4b733903937b6329607d1b60378401525180936048840190610d89565b0103602881018552601f19968791011684019684881090881117610c0d575092610c0460449593601f938880975262461bcd60e51b8752600487015251809281602488015287870190610d89565b01168101030190fd5b634e487b7160e01b81526041600452602490fd5b60648589519062461bcd60e51b825280600483015260248201527f537472696e67733a20686578206c656e67746820696e73756666696369656e746044820152fd5b9091600f81166010811015610cbb576f181899199a1a9b1b9c1cb0b131b232b360811b901a610c928486610fd2565b5360041c918015610ca7576000190190610b37565b634e487b7160e01b87526011600452602487fd5b634e487b7160e01b88526032600452602488fd5b634e487b7160e01b86526032600452602486fd5b634e487b7160e01b86526041600452602486fd5b90600f81166010811015610d4d576f181899199a1a9b1b9c1cb0b131b232b360811b901a610d25838a610fd2565b5360041c908015610d395760001901610aeb565b634e487b7160e01b86526011600452602486fd5b634e487b7160e01b87526032600452602487fd5b634e487b7160e01b85526032600452602485fd5b634e487b7160e01b85526041600452602485fd5b60005b838110610d9c5750506000910152565b8181015183820152602001610d8c565b6001600160a01b0316338103610e2c5760008181527fa6eef7e35abe7026729641147f7915573c7e97b47efa546f5f6e3230263bcb49602052604081205490919060ff16610df8575050565b8180526001602052604082208183526020526040822060ff198154169055339160008051602061115f8339815191528180a4565b60405162461bcd60e51b815260206004820152602f60248201527f416363657373436f6e74726f6c3a2063616e206f6e6c792072656e6f756e636560448201526e103937b632b9903337b91039b2b63360891b6064820152608490fd5b6001600160a01b031660008181527fa6eef7e35abe7026729641147f7915573c7e97b47efa546f5f6e3230263bcb49602052604081205490919060ff1615610ecf575050565b81805260016020526040822081835260205260408220600160ff1982541617905533917f2f8788117e7eff1d82e926ec794901d17c78024a50270940304540a733656f0d8180a4565b6001600160a01b031660008181527f2b14411a1968c9c748f2698a4b51e91d68861df6c48fb45d34e0913043cc089d602052604081205490919060008051602061113f8339815191529060ff16610f6e57505050565b8083526001602052604083208284526020526040832060ff19815416905560008051602061115f833981519152339380a4565b906000918083526001602052604083209160018060a01b03169182845260205260ff604084205416610f6e57505050565b908151811015610fe3570160200190565b634e487b7160e01b600052603260045260246000fd5b1561100057565b60405162461bcd60e51b815260206004820152602360248201527f41757468436f6e74726f6c3a2043616c6c6572206973206e6f7420616e20616460448201526236b4b760e91b6064820152608490fd5b1561105857565b60405162461bcd60e51b8152602060048201526024808201527f41757468436f6e74726f6c3a2043616c6c6572206973206e6f742061206d616e60448201526330b3b2b960e11b6064820152608490fd5b60008051602061111f833981519152600081815260016020527fdf0e2e391206177b5985a6e8a050b68ff49710d99d65a50c9c1ef925d8debb9d54909291906110f190610a76565b8083526001602052604083209160018060a01b03169182845260205260ff604084205416610f6e5750505056feaf290d8680820aad922855f39b306097b20e28774d6c1ad35a20325630c3a02c12090aa55130d5a2442eb84fc286ca6e600db6c50b6c5d9b6d0d929f0e2d8ce8f6391f5c32d9c69d2a47ea670b442974b53935d1edc7fd64eb21e047a839171ba164736f6c6343000813000a",
  "linkReferences": {},
  "deployedLinkReferences": {}
}