{
  "address": "0x76C01207959DF1242C2824B4445CdE48eb55D2f1",
  "abi": [
    {
      "anonymous": false,
      "inputs": [
        {
          "indexed": true,
          "internalType": "address",
          "name": "layer2",
          "type": "address"
        },
        {
          "indexed": false,
          "internalType": "address",
          "name": "depositor",
          "type": "address"
        },
        {
          "indexed": false,
          "internalType": "uint256",
          "name": "amount",
          "type": "uint256"
        }
      ],
      "name": "Deposited",
      "type": "event"
    },
    {
      "anonymous": false,
      "inputs": [
        {
          "indexed": true,
          "internalType": "bytes32",
          "name": "role",
          "type": "bytes32"
        },
        {
          "indexed": true,
          "internalType": "bytes32",
          "name": "previousAdminRole",
          "type": "bytes32"
        },
        {
          "indexed": true,
          "internalType": "bytes32",
          "name": "newAdminRole",
          "type": "bytes32"
        }
      ],
      "name": "RoleAdminChanged",
      "type": "event"
    },
    {
      "anonymous": false,
      "inputs": [
        {
          "indexed": true,
          "internalType": "bytes32",
          "name": "role",
          "type": "bytes32"
        },
        {
          "indexed": true,
          "internalType": "address",
          "name": "account",
          "type": "address"
        },
        {
          "indexed": true,
          "internalType": "address",
          "name": "sender",
          "type": "address"
        }
      ],
      "name": "RoleGranted",
      "type": "event"
    },
    {
      "anonymous": false,
      "inputs": [
        {
          "indexed": true,
          "internalType": "bytes32",
          "name": "role",
          "type": "bytes32"
        },
        {
          "indexed": true,
          "internalType": "address",
          "name": "account",
          "type": "address"
        },
        {
          "indexed": true,
          "internalType": "address",
          "name": "sender",
          "type": "address"
        }
      ],
      "name": "RoleRevoked",
      "type": "event"
    },
    {
      "anonymous": false,
      "inputs": [
        {
          "indexed": true,
          "internalType": "address",
          "name": "layer2",
          "type": "address"
        },
        {
          "indexed": false,
          "internalType": "address",
          "name": "depositor",
          "type": "address"
        },
        {
          "indexed": false,
          "internalType": "uint256",
          "name": "amount",
          "type": "uint256"
        }
      ],
      "name": "WithdrawalProcessed",
      "type": "event"
    },
    {
      "anonymous": false,
      "inputs": [
        {
          "indexed": true,
          "internalType": "address",
          "name": "layer2",
          "type": "address"
        },
        {
          "indexed": false,
          "internalType": "address",
          "name": "depositor",
          "type": "address"
        },
        {
          "indexed": false,
          "internalType": "uint256",
          "name": "amount",
          "type": "uint256"
        }
      ],
      "name": "WithdrawalRequested",
      "type": "event"
    },
    {
      "inputs": [],
      "name": "DEFAULT_ADMIN_ROLE",
      "outputs": [
        {
          "internalType": "bytes32",
          "name": "",
          "type": "bytes32"
        }
      ],
      "stateMutability": "view",
      "type": "function"
    },
    {
      "inputs": [],
      "name": "MINTER_ROLE",
      "outputs": [
        {
          "internalType": "bytes32",
          "name": "",
          "type": "bytes32"
        }
      ],
      "stateMutability": "view",
      "type": "function"
    },
    {
      "inputs": [
        {
          "internalType": "address",
          "name": "layer2",
          "type": "address"
        },
        {
          "internalType": "address",
          "name": "account",
          "type": "address"
        }
      ],
      "name": "accStaked",
      "outputs": [
        {
          "internalType": "uint256",
          "name": "wtonAmount",
          "type": "uint256"
        }
      ],
      "stateMutability": "view",
      "type": "function"
    },
    {
      "inputs": [
        {
          "internalType": "address",
          "name": "account",
          "type": "address"
        }
      ],
      "name": "accStakedAccount",
      "outputs": [
        {
          "internalType": "uint256",
          "name": "wtonAmount",
          "type": "uint256"
        }
      ],
      "stateMutability": "view",
      "type": "function"
    },
    {
      "inputs": [
        {
          "internalType": "address",
          "name": "layer2",
          "type": "address"
        }
      ],
      "name": "accStakedLayer2",
      "outputs": [
        {
          "internalType": "uint256",
          "name": "wtonAmount",
          "type": "uint256"
        }
      ],
      "stateMutability": "view",
      "type": "function"
    },
    {
      "inputs": [
        {
          "internalType": "address",
          "name": "layer2",
          "type": "address"
        },
        {
          "internalType": "address",
          "name": "account",
          "type": "address"
        }
      ],
      "name": "accUnstaked",
      "outputs": [
        {
          "internalType": "uint256",
          "name": "wtonAmount",
          "type": "uint256"
        }
      ],
      "stateMutability": "view",
      "type": "function"
    },
    {
      "inputs": [
        {
          "internalType": "address",
          "name": "account",
          "type": "address"
        }
      ],
      "name": "accUnstakedAccount",
      "outputs": [
        {
          "internalType": "uint256",
          "name": "wtonAmount",
          "type": "uint256"
        }
      ],
      "stateMutability": "view",
      "type": "function"
    },
    {
      "inputs": [
        {
          "internalType": "address",
          "name": "layer2",
          "type": "address"
        }
      ],
      "name": "accUnstakedLayer2",
      "outputs": [
        {
          "internalType": "uint256",
          "name": "wtonAmount",
          "type": "uint256"
        }
      ],
      "stateMutability": "view",
      "type": "function"
    },
    {
      "inputs": [
        {
          "internalType": "address",
          "name": "account",
          "type": "address"
        }
      ],
      "name": "addAdmin",
      "outputs": [],
      "stateMutability": "nonpayable",
      "type": "function"
    },
    {
      "inputs": [
        {
          "internalType": "address",
          "name": "",
          "type": "address"
        }
      ],
      "name": "aliveImplementation",
      "outputs": [
        {
          "internalType": "bool",
          "name": "",
          "type": "bool"
        }
      ],
      "stateMutability": "view",
      "type": "function"
    },
    {
      "inputs": [
        {
          "internalType": "address",
          "name": "layer2",
          "type": "address"
        },
        {
          "internalType": "uint256",
          "name": "amount",
          "type": "uint256"
        }
      ],
      "name": "deposit",
      "outputs": [
        {
          "internalType": "bool",
          "name": "",
          "type": "bool"
        }
      ],
      "stateMutability": "nonpayable",
      "type": "function"
    },
    {
      "inputs": [
        {
          "internalType": "address",
          "name": "layer2",
          "type": "address"
        },
        {
          "internalType": "address[]",
          "name": "accounts",
          "type": "address[]"
        },
        {
          "internalType": "uint256[]",
          "name": "amounts",
          "type": "uint256[]"
        }
      ],
      "name": "deposit",
      "outputs": [
        {
          "internalType": "bool",
          "name": "",
          "type": "bool"
        }
      ],
      "stateMutability": "nonpayable",
      "type": "function"
    },
    {
      "inputs": [
        {
          "internalType": "address",
          "name": "layer2",
          "type": "address"
        },
        {
          "internalType": "address",
          "name": "account",
          "type": "address"
        },
        {
          "internalType": "uint256",
          "name": "amount",
          "type": "uint256"
        }
      ],
      "name": "deposit",
      "outputs": [
        {
          "internalType": "bool",
          "name": "",
          "type": "bool"
        }
      ],
      "stateMutability": "nonpayable",
      "type": "function"
    },
    {
      "inputs": [
        {
          "internalType": "address",
          "name": "layer2",
          "type": "address"
        }
      ],
      "name": "getDelayBlocks",
      "outputs": [
        {
          "internalType": "uint256",
          "name": "",
          "type": "uint256"
        }
      ],
      "stateMutability": "view",
      "type": "function"
    },
    {
      "inputs": [
        {
          "internalType": "bytes32",
          "name": "role",
          "type": "bytes32"
        }
      ],
      "name": "getRoleAdmin",
      "outputs": [
        {
          "internalType": "bytes32",
          "name": "",
          "type": "bytes32"
        }
      ],
      "stateMutability": "view",
      "type": "function"
    },
    {
      "inputs": [],
      "name": "globalWithdrawalDelay",
      "outputs": [
        {
          "internalType": "uint256",
          "name": "",
          "type": "uint256"
        }
      ],
      "stateMutability": "view",
      "type": "function"
    },
    {
      "inputs": [
        {
          "internalType": "bytes32",
          "name": "role",
          "type": "bytes32"
        },
        {
          "internalType": "address",
          "name": "account",
          "type": "address"
        }
      ],
      "name": "grantRole",
      "outputs": [],
      "stateMutability": "nonpayable",
      "type": "function"
    },
    {
      "inputs": [
        {
          "internalType": "bytes32",
          "name": "role",
          "type": "bytes32"
        },
        {
          "internalType": "address",
          "name": "account",
          "type": "address"
        }
      ],
      "name": "hasRole",
      "outputs": [
        {
          "internalType": "bool",
          "name": "",
          "type": "bool"
        }
      ],
      "stateMutability": "view",
      "type": "function"
    },
    {
      "inputs": [
        {
          "internalType": "address",
          "name": "wton_",
          "type": "address"
        },
        {
          "internalType": "address",
          "name": "registry_",
          "type": "address"
        },
        {
          "internalType": "address",
          "name": "seigManager_",
          "type": "address"
        },
        {
          "internalType": "uint256",
          "name": "globalWithdrawalDelay_",
          "type": "uint256"
        },
        {
          "internalType": "address",
          "name": "oldDepositManager_",
          "type": "address"
        }
      ],
      "name": "initialize",
      "outputs": [],
      "stateMutability": "nonpayable",
      "type": "function"
    },
    {
      "inputs": [
        {
          "internalType": "address",
          "name": "account",
          "type": "address"
        }
      ],
      "name": "isAdmin",
      "outputs": [
        {
          "internalType": "bool",
          "name": "",
          "type": "bool"
        }
      ],
      "stateMutability": "view",
      "type": "function"
    },
    {
      "inputs": [],
      "name": "isOwner",
      "outputs": [
        {
          "internalType": "bool",
          "name": "",
          "type": "bool"
        }
      ],
      "stateMutability": "view",
      "type": "function"
    },
    {
      "inputs": [
        {
          "internalType": "address",
          "name": "layer2",
          "type": "address"
        },
        {
          "internalType": "address",
          "name": "account",
          "type": "address"
        }
      ],
      "name": "numPendingRequests",
      "outputs": [
        {
          "internalType": "uint256",
          "name": "",
          "type": "uint256"
        }
      ],
      "stateMutability": "view",
      "type": "function"
    },
    {
      "inputs": [
        {
          "internalType": "address",
          "name": "layer2",
          "type": "address"
        },
        {
          "internalType": "address",
          "name": "account",
          "type": "address"
        }
      ],
      "name": "numRequests",
      "outputs": [
        {
          "internalType": "uint256",
          "name": "",
          "type": "uint256"
        }
      ],
      "stateMutability": "view",
      "type": "function"
    },
    {
      "inputs": [],
      "name": "oldDepositManager",
      "outputs": [
        {
          "internalType": "address",
          "name": "",
          "type": "address"
        }
      ],
      "stateMutability": "view",
      "type": "function"
    },
    {
      "inputs": [
        {
          "internalType": "address",
          "name": "owner",
          "type": "address"
        },
        {
          "internalType": "address",
          "name": "spender",
          "type": "address"
        },
        {
          "internalType": "uint256",
          "name": "amount",
          "type": "uint256"
        },
        {
          "internalType": "bytes",
          "name": "data",
          "type": "bytes"
        }
      ],
      "name": "onApprove",
      "outputs": [
        {
          "internalType": "bool",
          "name": "",
          "type": "bool"
        }
      ],
      "stateMutability": "nonpayable",
      "type": "function"
    },
    {
      "inputs": [],
      "name": "pauseProxy",
      "outputs": [
        {
          "internalType": "bool",
          "name": "",
          "type": "bool"
        }
      ],
      "stateMutability": "view",
      "type": "function"
    },
    {
      "inputs": [
        {
          "internalType": "address",
          "name": "layer2",
          "type": "address"
        },
        {
          "internalType": "address",
          "name": "account",
          "type": "address"
        }
      ],
      "name": "pendingUnstaked",
      "outputs": [
        {
          "internalType": "uint256",
          "name": "wtonAmount",
          "type": "uint256"
        }
      ],
      "stateMutability": "view",
      "type": "function"
    },
    {
      "inputs": [
        {
          "internalType": "address",
          "name": "account",
          "type": "address"
        }
      ],
      "name": "pendingUnstakedAccount",
      "outputs": [
        {
          "internalType": "uint256",
          "name": "wtonAmount",
          "type": "uint256"
        }
      ],
      "stateMutability": "view",
      "type": "function"
    },
    {
      "inputs": [
        {
          "internalType": "address",
          "name": "layer2",
          "type": "address"
        }
      ],
      "name": "pendingUnstakedLayer2",
      "outputs": [
        {
          "internalType": "uint256",
          "name": "wtonAmount",
          "type": "uint256"
        }
      ],
      "stateMutability": "view",
      "type": "function"
    },
    {
      "inputs": [
        {
          "internalType": "address",
          "name": "layer2",
          "type": "address"
        },
        {
          "internalType": "bool",
          "name": "receiveTON",
          "type": "bool"
        }
      ],
      "name": "processRequest",
      "outputs": [
        {
          "internalType": "bool",
          "name": "",
          "type": "bool"
        }
      ],
      "stateMutability": "nonpayable",
      "type": "function"
    },
    {
      "inputs": [
        {
          "internalType": "address",
          "name": "layer2",
          "type": "address"
        },
        {
          "internalType": "uint256",
          "name": "n",
          "type": "uint256"
        },
        {
          "internalType": "bool",
          "name": "receiveTON",
          "type": "bool"
        }
      ],
      "name": "processRequests",
      "outputs": [
        {
          "internalType": "bool",
          "name": "",
          "type": "bool"
        }
      ],
      "stateMutability": "nonpayable",
      "type": "function"
    },
    {
      "inputs": [
        {
          "internalType": "uint256",
          "name": "",
          "type": "uint256"
        }
      ],
      "name": "proxyImplementation",
      "outputs": [
        {
          "internalType": "address",
          "name": "",
          "type": "address"
        }
      ],
      "stateMutability": "view",
      "type": "function"
    },
    {
      "inputs": [
        {
          "internalType": "address",
          "name": "layer2",
          "type": "address"
        }
      ],
      "name": "redeposit",
      "outputs": [
        {
          "internalType": "bool",
          "name": "",
          "type": "bool"
        }
      ],
      "stateMutability": "nonpayable",
      "type": "function"
    },
    {
      "inputs": [
        {
          "internalType": "address",
          "name": "layer2",
          "type": "address"
        },
        {
          "internalType": "uint256",
          "name": "n",
          "type": "uint256"
        }
      ],
      "name": "redepositMulti",
      "outputs": [
        {
          "internalType": "bool",
          "name": "",
          "type": "bool"
        }
      ],
      "stateMutability": "nonpayable",
      "type": "function"
    },
    {
      "inputs": [],
      "name": "registry",
      "outputs": [
        {
          "internalType": "address",
          "name": "",
          "type": "address"
        }
      ],
      "stateMutability": "view",
      "type": "function"
    },
    {
      "inputs": [
        {
          "internalType": "address",
          "name": "account",
          "type": "address"
        }
      ],
      "name": "removeAdmin",
      "outputs": [],
      "stateMutability": "nonpayable",
      "type": "function"
    },
    {
      "inputs": [],
      "name": "renounceOwnership",
      "outputs": [],
      "stateMutability": "nonpayable",
      "type": "function"
    },
    {
      "inputs": [
        {
          "internalType": "bytes32",
          "name": "role",
          "type": "bytes32"
        },
        {
          "internalType": "address",
          "name": "account",
          "type": "address"
        }
      ],
      "name": "renounceRole",
      "outputs": [],
      "stateMutability": "nonpayable",
      "type": "function"
    },
    {
      "inputs": [
        {
          "internalType": "address",
          "name": "layer2",
          "type": "address"
        },
        {
          "internalType": "uint256",
          "name": "amount",
          "type": "uint256"
        }
      ],
      "name": "requestWithdrawal",
      "outputs": [
        {
          "internalType": "bool",
          "name": "",
          "type": "bool"
        }
      ],
      "stateMutability": "nonpayable",
      "type": "function"
    },
    {
      "inputs": [
        {
          "internalType": "address",
          "name": "layer2",
          "type": "address"
        }
      ],
      "name": "requestWithdrawalAll",
      "outputs": [
        {
          "internalType": "bool",
          "name": "",
          "type": "bool"
        }
      ],
      "stateMutability": "nonpayable",
      "type": "function"
    },
    {
      "inputs": [
        {
          "internalType": "bytes32",
          "name": "role",
          "type": "bytes32"
        },
        {
          "internalType": "address",
          "name": "account",
          "type": "address"
        }
      ],
      "name": "revokeRole",
      "outputs": [],
      "stateMutability": "nonpayable",
      "type": "function"
    },
    {
      "inputs": [],
      "name": "seigManager",
      "outputs": [
        {
          "internalType": "address",
          "name": "",
          "type": "address"
        }
      ],
      "stateMutability": "view",
      "type": "function"
    },
    {
      "inputs": [
        {
          "internalType": "bytes4",
          "name": "",
          "type": "bytes4"
        }
      ],
      "name": "selectorImplementation",
      "outputs": [
        {
          "internalType": "address",
          "name": "",
          "type": "address"
        }
      ],
      "stateMutability": "view",
      "type": "function"
    },
    {
      "inputs": [
        {
          "internalType": "uint256",
          "name": "globalWithdrawalDelay_",
          "type": "uint256"
        }
      ],
      "name": "setGlobalWithdrawalDelay",
      "outputs": [],
      "stateMutability": "nonpayable",
      "type": "function"
    },
    {
      "inputs": [
        {
          "internalType": "address",
          "name": "seigManager_",
          "type": "address"
        }
      ],
      "name": "setSeigManager",
      "outputs": [],
      "stateMutability": "nonpayable",
      "type": "function"
    },
    {
      "inputs": [
        {
          "internalType": "address",
          "name": "l2chain",
          "type": "address"
        },
        {
          "internalType": "uint256",
          "name": "withdrawalDelay_",
          "type": "uint256"
        }
      ],
      "name": "setWithdrawalDelay",
      "outputs": [],
      "stateMutability": "nonpayable",
      "type": "function"
    },
    {
      "inputs": [
        {
          "internalType": "address",
          "name": "layer2",
          "type": "address"
        },
        {
          "internalType": "address",
          "name": "recipient",
          "type": "address"
        },
        {
          "internalType": "uint256",
          "name": "amount",
          "type": "uint256"
        }
      ],
      "name": "slash",
      "outputs": [
        {
          "internalType": "bool",
          "name": "",
          "type": "bool"
        }
      ],
      "stateMutability": "nonpayable",
      "type": "function"
    },
    {
      "inputs": [
        {
          "internalType": "bytes4",
          "name": "interfaceId",
          "type": "bytes4"
        }
      ],
      "name": "supportsInterface",
      "outputs": [
        {
          "internalType": "bool",
          "name": "",
          "type": "bool"
        }
      ],
      "stateMutability": "view",
      "type": "function"
    },
    {
      "inputs": [
        {
          "internalType": "address",
          "name": "newAdmin",
          "type": "address"
        }
      ],
      "name": "transferAdmin",
      "outputs": [],
      "stateMutability": "nonpayable",
      "type": "function"
    },
    {
      "inputs": [
        {
          "internalType": "address",
          "name": "newAdmin",
          "type": "address"
        }
      ],
      "name": "transferOwnership",
      "outputs": [],
      "stateMutability": "nonpayable",
      "type": "function"
    },
    {
      "inputs": [
        {
          "internalType": "address",
          "name": "",
          "type": "address"
        }
      ],
      "name": "withdrawalDelay",
      "outputs": [
        {
          "internalType": "uint256",
          "name": "",
          "type": "uint256"
        }
      ],
      "stateMutability": "view",
      "type": "function"
    },
    {
      "inputs": [
        {
          "internalType": "address",
          "name": "layer2",
          "type": "address"
        },
        {
          "internalType": "address",
          "name": "account",
          "type": "address"
        },
        {
          "internalType": "uint256",
          "name": "index",
          "type": "uint256"
        }
      ],
      "name": "withdrawalRequest",
      "outputs": [
        {
          "internalType": "uint128",
          "name": "withdrawableBlockNumber",
          "type": "uint128"
        },
        {
          "internalType": "uint128",
          "name": "amount",
          "type": "uint128"
        },
        {
          "internalType": "bool",
          "name": "processed",
          "type": "bool"
        }
      ],
      "stateMutability": "view",
      "type": "function"
    },
    {
      "inputs": [
        {
          "internalType": "address",
          "name": "layer2",
          "type": "address"
        },
        {
          "internalType": "address",
          "name": "account",
          "type": "address"
        }
      ],
      "name": "withdrawalRequestIndex",
      "outputs": [
        {
          "internalType": "uint256",
          "name": "index",
          "type": "uint256"
        }
      ],
      "stateMutability": "view",
      "type": "function"
    },
    {
      "inputs": [],
      "name": "wton",
      "outputs": [
        {
          "internalType": "address",
          "name": "",
          "type": "address"
        }
      ],
      "stateMutability": "view",
      "type": "function"
    }
  ],
  "transactionHash": "0x4920e833984dcaa6b291fa3012891f2a56b3e0c2e32ae16274e2ad15db41b1ff",
  "args": [],
  "numDeployments": 1,
  "solcInputHash": "15e6f28fa05c5177d04c4a743d316cd5",
  "bytecode": "0x608060405234801561001057600080fd5b50613204806100206000396000f3fe608060405234801561001057600080fd5b50600436106103615760003560e01c80637657f20a116101c8578063b5f19db211610104578063d547741f116100a2578063e74f82391161007c578063e74f823914610928578063f2fde38b1461093b578063f762eb571461094e578063fb0713b11461098757600080fd5b8063d547741f146108ef578063da95ebf714610902578063dc5a709f1461091557600080fd5b8063c20a44c6116100de578063c20a44c614610853578063c647f26e14610866578063d285f78c1461089f578063d5391393146108c857600080fd5b8063b5f19db214610804578063b8bee62814610817578063b911135f1461082a57600080fd5b80638fbef2d011610171578063a0b2a9131161014b578063a0b2a91314610797578063a217fddf146107c0578063a3543989146107c8578063a79da341146107f157600080fd5b80638fbef2d0146106ea57806391d14854146107255780639d91b87b1461075e57600080fd5b80638af4a948116101a25780638af4a948146106795780638d62d949146106a25780638f32d59b146106b357600080fd5b80637657f20a146106425780637b103999146106555780638340f5491461066657600080fd5b806347e7ef24116102a257806363a8fd89116102405780636fb7f5581161021a5780636fb7f558146106035780637048027514610614578063715018a61461062757806375829def1461062f57600080fd5b806363a8fd89146105da5780636b2160b7146105e75780636ec3d5ae146105fa57600080fd5b8063530b97a41161027c578063530b97a41461057e578063550d01a314610591578063562fa0df146105b45780635c0df46b146105c757600080fd5b806347e7ef24146105225780634ce970361461053557806350d2a2761461055557600080fd5b806324d7806c1161030f5780632f2ff15d116102e95780632f2ff15d146104d657806336568abe146104e95780634273ca16146104fc578063445e83b91461050f57600080fd5b806324d7806c146104515780632638fdf5146104645780632d2fab941461049d57600080fd5b80631785f53c116103405780631785f53c146103ee5780632153c23914610403578063248a9ca31461042e57600080fd5b806255f5c114610366578063010ca390146103a257806301ffc9a7146103cb575b600080fd5b61038f610374366004612bbb565b6001600160a01b03166000908152600c602052604090205490565b6040519081526020015b60405180910390f35b61038f6103b0366004612bbb565b6001600160a01b03166000908152600b602052604090205490565b6103de6103d9366004612bd8565b61099a565b6040519015158152602001610399565b6104016103fc366004612bbb565b6109ab565b005b600954610416906001600160a01b031681565b6040516001600160a01b039091168152602001610399565b61038f61043c366004612c02565b60009081526005602052604090206001015490565b6103de61045f366004612bbb565b610a1e565b61038f610472366004612c1b565b6001600160a01b039182166000908152600d6020908152604080832093909416825291909152205490565b61038f6104ab366004612c1b565b6001600160a01b039182166000908152600a6020908152604080832093909416825291909152205490565b6104016104e4366004612c54565b610a5e565b6104016104f7366004612c54565b610a88565b6103de61050a366004612c79565b610b14565b6103de61051d366004612d18565b610bfc565b6103de610530366004612d18565b610c3e565b61038f610543366004612bbb565b60166020526000908152604090205481565b610416610563366004612bd8565b6003602052600090815260409020546001600160a01b031681565b61040161058c366004612d44565b610c5e565b6103de61059f366004612bbb565b60026020526000908152604090205460ff1681565b6103de6105c2366004612e82565b610d2a565b61038f6105d5366004612c1b565b610e2d565b6000546103de9060ff1681565b6103de6105f5366004612bbb565b610e8f565b61038f60155481565b6008546001600160a01b0316610416565b610401610622366004612bbb565b610f9c565b610401611007565b61040161063d366004612bbb565b611074565b610401610650366004612bbb565b611198565b6007546001600160a01b0316610416565b6103de610674366004612f58565b611227565b61038f610687366004612bbb565b6001600160a01b031660009081526011602052604090205490565b6006546001600160a01b0316610416565b3360009081527f05b8ccbb9d4d8fb16ea74ce3c29a41f1b461fbdaff4714a0d9a8eb05499746bc602052604090205460ff166103de565b6106fd6106f8366004612f58565b611235565b604080516001600160801b039485168152939092166020840152151590820152606001610399565b6103de610733366004612c54565b60009182526005602090815260408084206001600160a01b0393909316845291905290205460ff1690565b61038f61076c366004612c1b565b6001600160a01b03918216600090815260106020908152604080832093909416825291909152205490565b61038f6107a5366004612bbb565b6001600160a01b03166000908152600f602052604090205490565b61038f600081565b61038f6107d6366004612bbb565b6001600160a01b031660009081526012602052604090205490565b6104016107ff366004612c02565b611342565b61038f610812366004612bbb565b6113a7565b6103de610825366004612bbb565b6113ee565b610416610838366004612c02565b6001602052600090815260409020546001600160a01b031681565b6103de610861366004612fa7565b61141e565b61038f610874366004612c1b565b6001600160a01b03918216600090815260146020908152604080832093909416825291909152205490565b61038f6108ad366004612bbb565b6001600160a01b03166000908152600e602052604090205490565b61038f7ff0887ba65ee2024ea881d91b74c2450ef19e1557f03bed3ea9f16b037cbe2dc981565b6104016108fd366004612c54565b61142a565b6103de610910366004612d18565b61144f565b610401610923366004612d18565b61145f565b6103de610936366004612f58565b61148e565b610401610949366004612bbb565b6114a8565b61038f61095c366004612c1b565b6001600160a01b03918216600090815260136020908152604080832093909416825291909152205490565b6103de610995366004612fd5565b611511565b60006109a582611542565b92915050565b6109b433610a1e565b610a105760405162461bcd60e51b815260206004820152602260248201527f41636365737369626c653a2043616c6c6572206973206e6f7420616e2061646d60448201526134b760f11b60648201526084015b60405180910390fd5b610a1b600082610a88565b50565b6001600160a01b03811660009081527f05b8ccbb9d4d8fb16ea74ce3c29a41f1b461fbdaff4714a0d9a8eb05499746bc602052604081205460ff166109a5565b600082815260056020526040902060010154610a7981611567565b610a838383611571565b505050565b6001600160a01b0381163314610b065760405162461bcd60e51b815260206004820152602f60248201527f416363657373436f6e74726f6c3a2063616e206f6e6c792072656e6f756e636560448201527f20726f6c657320666f722073656c6600000000000000000000000000000000006064820152608401610a07565b610b108282611613565b5050565b6006546000906001600160a01b03163314610b975760405162461bcd60e51b815260206004820152603160248201527f4465706f7369744d616e616765723a206f6e6c79206163636570742057544f4e60448201527f20617070726f76652063616c6c6261636b0000000000000000000000000000006064820152608401610a07565b6000610bd884848080601f01602080910402602001604051908101604052809392919081815260200183838082843760009201919091525061169692505050565b9050610be68188878a6116ae565b610bef57600080fd5b5060019695505050505050565b6001600160a01b0382166000908152601460209081526040808320338452909152812054610c2b84828561193c565b610c3457600080fd5b5060019392505050565b6000610c4c833384336116ae565b610c5557600080fd5b50600192915050565b6006546001600160a01b031615610cb75760405162461bcd60e51b815260206004820152601360248201527f616c726561647920696e697469616c697a6564000000000000000000000000006044820152606401610a07565b600680546001600160a01b0380881673ffffffffffffffffffffffffffffffffffffffff1992831617909255600780548784169083161790556008805486841690831617905560158490556009805492841692909116919091179055610d23632139e50b60e11b611e9d565b5050505050565b60008251600003610d6a5760405162461bcd60e51b815260206004820152600a6024820152691b9bc81858d8dbdd5b9d60b21b6044820152606401610a07565b8151835114610dbb5760405162461bcd60e51b815260206004820152600b60248201527f77726f6e67206c656e74680000000000000000000000000000000000000000006044820152606401610a07565b60005b8351811015610e2057610e0585858381518110610ddd57610ddd613017565b6020026020010151858481518110610df757610df7613017565b6020026020010151336116ae565b610e0e57600080fd5b80610e1881613043565b915050610dbe565b50600190505b9392505050565b6001600160a01b038083166000818152601360209081526040808320948616808452948252808320549383526014825280832094835293905291822054818303610e7c576000925050506109a5565b610e86818361305c565b95945050505050565b600754604051630c39b8b760e31b81526001600160a01b03808416600483015260009284929116906361cdc5b890602401602060405180830381865afa158015610edd573d6000803e3d6000fd5b505050506040513d601f19601f82011682018060405250810190610f01919061306f565b610f0a57600080fd5b6008546040516367265c3b60e11b81526001600160a01b038581166004830152336024830152600092169063ce4cb87690604401602060405180830381865afa158015610f5b573d6000803e3d6000fd5b505050506040513d601f19601f82011682018060405250810190610f7f919061308c565b9050610f948482610f8f876113a7565b611f1c565b949350505050565b610fa533610a1e565b610ffc5760405162461bcd60e51b815260206004820152602260248201527f41636365737369626c653a2043616c6c6572206973206e6f7420616e2061646d60448201526134b760f11b6064820152608401610a07565b610a1b600082610a5e565b61101033610a1e565b6110675760405162461bcd60e51b815260206004820152602260248201527f41636365737369626c653a2043616c6c6572206973206e6f7420616e2061646d60448201526134b760f11b6064820152608401610a07565b611072600033610a88565b565b61107d33610a1e565b6110d45760405162461bcd60e51b815260206004820152602260248201527f41636365737369626c653a2043616c6c6572206973206e6f7420616e2061646d60448201526134b760f11b6064820152608401610a07565b6001600160a01b03811661112a5760405162461bcd60e51b815260206004820152601860248201527f41636365737369626c653a207a65726f206164647265737300000000000000006044820152606401610a07565b6001600160a01b03811633036111825760405162461bcd60e51b815260206004820152601660248201527f41636365737369626c653a2073616d652061646d696e000000000000000000006044820152606401610a07565b61118d600082610a5e565b610a1b600033610a88565b6111a133610a1e565b6111f85760405162461bcd60e51b815260206004820152602260248201527f41636365737369626c653a2043616c6c6572206973206e6f7420616e2061646d60448201526134b760f11b6064820152608401610a07565b6008805473ffffffffffffffffffffffffffffffffffffffff19166001600160a01b0392909216919091179055565b6000610c2b848484336116ae565b6001600160a01b03808416600090815260136020908152604080832093861683529290529081208054829182918590811061127257611272613017565b600091825260208083206002909202909101546001600160a01b03808a168452601383526040808520918a1685529252912080546001600160801b03909216945090859081106112c4576112c4613017565b60009182526020808320600292909202909101546001600160a01b038981168452601383526040808520918a168552925291208054600160801b9092046001600160801b03169350908590811061131d5761131d613017565b600091825260209091206001600290920201015492969195505060ff90911692509050565b61134b33610a1e565b6113a25760405162461bcd60e51b815260206004820152602260248201527f41636365737369626c653a2043616c6c6572206973206e6f7420616e2061646d60448201526134b760f11b6064820152608401610a07565b601555565b6001600160a01b038116600090815260166020526040812054601554116113e6576001600160a01b0382166000908152601660205260409020546109a5565b505060155490565b6001600160a01b0381166000908152601460209081526040808320338452909152812054610c4c8382600161193c565b6000610e268383612219565b60008281526005602052604090206001015461144581611567565b610a838383611613565b6000610e268383610f8f866113a7565b611469823361260c565b61147257600080fd5b6001600160a01b03909116600090815260166020526040902055565b6008546000906001600160a01b03163314610e2657600080fd5b6114b133610a1e565b6115085760405162461bcd60e51b815260206004820152602260248201527f41636365737369626c653a2043616c6c6572206973206e6f7420616e2061646d60448201526134b760f11b6064820152608401610a07565b610a1b81611074565b6000805b83811015610e20576115278584612219565b61153057600080fd5b8061153a81613043565b915050611515565b60006001600160e01b03198216637965db0b60e01b14806109a557506109a58261268c565b610a1b81336126c8565b60008281526005602090815260408083206001600160a01b038516845290915290205460ff16610b105760008281526005602090815260408083206001600160a01b03851684529091529020805460ff191660011790556115cf3390565b6001600160a01b0316816001600160a01b0316837f2f8788117e7eff1d82e926ec794901d17c78024a50270940304540a733656f0d60405160405180910390a45050565b60008281526005602090815260408083206001600160a01b038516845290915290205460ff1615610b105760008281526005602090815260408083206001600160a01b0385168085529252808320805460ff1916905551339285917ff6391f5c32d9c69d2a47ea670b442974b53935d1edc7fd64eb21e047a839171b9190a45050565b600081516020146116a657600080fd5b506020015190565b600754604051630c39b8b760e31b81526001600160a01b03808716600483015260009287929116906361cdc5b890602401602060405180830381865afa1580156116fc573d6000803e3d6000fd5b505050506040513d601f19601f82011682018060405250810190611720919061306f565b61172957600080fd5b6001600160a01b0385161580159061174057508315155b61178c5760405162461bcd60e51b815260206004820152601b60248201527f7a65726f20616d6f756e74206f72207a65726f206164647265737300000000006044820152606401610a07565b6001600160a01b038087166000908152600a60209081526040808320938916835292905220546117bd9085906130a5565b6001600160a01b038088166000818152600a60209081526040808320948b16835293815283822094909455908152600b9092529020546117fe9085906130a5565b6001600160a01b038088166000908152600b60209081526040808320949094559188168152600c90915220546118359085906130a5565b6001600160a01b038087166000908152600c6020526040902091909155600654611862911684308761273d565b604080516001600160a01b038781168252602082018790528816917f8752a472e571a816aea92eec8dae9baf628e840f4929fbcc2d155e6233ff68a7910160405180910390a2600854604051630412c6d560e41b81526001600160a01b0388811660048301528781166024830152604482018790529091169063412c6d50906064016020604051808303816000875af1158015611903573d6000803e3d6000fd5b505050506040513d601f19601f82011682018060405250810190611927919061306f565b61193057600080fd5b50600195945050505050565b600754604051630c39b8b760e31b81526001600160a01b03808616600483015260009286929116906361cdc5b890602401602060405180830381865afa15801561198a573d6000803e3d6000fd5b505050506040513d601f19601f820116820180604052508101906119ae919061306f565b6119b757600080fd5b6001600160a01b0385166000908152601360209081526040808320338452909152812054611a275760405162461bcd60e51b815260206004820152601a60248201527f4465706f7369744d616e616765723a206e6f20726571756573740000000000006044820152606401610a07565b6001600160a01b03861660009081526013602090815260408083203384529091529020548490611a5890879061305c565b1015611acc5760405162461bcd60e51b815260206004820152603160248201527f4465706f7369744d616e616765723a206e2065786365656473206e756d206f6660448201527f2070656e64696e672072657175657374730000000000000000000000000000006064820152608401610a07565b6000611ad885876130a5565b90505b80861015611c4a576001600160a01b03871660009081526013602090815260408083203384529091528120805488908110611b1857611b18613017565b6000918252602090912060029091020180546001820154919250600160801b90046001600160801b03169060ff1615611bb95760405162461bcd60e51b815260206004820152603160248201527f4465706f7369744d616e616765723a2070656e64696e6720726571756573742060448201527f616c72656164792070726f6365737365640000000000000000000000000000006064820152608401610a07565b60008111611c1a5760405162461bcd60e51b815260206004820152602860248201527f4465706f7369744d616e616765723a206e6f2076616c69642070656e64696e67604482015267081c995c5d595cdd60c21b6064820152608401610a07565b611c2481856130a5565b6001928301805460ff191690931790925550915085611c4281613043565b965050611adb565b6001600160a01b0387166000908152600a60209081526040808320338452909152902054611c799083906130a5565b6001600160a01b0388166000818152600a60209081526040808320338452825280832094909455918152600b9091522054611cb59083906130a5565b6001600160a01b0388166000908152600b6020908152604080832093909355338252600c90522054611ce89083906130a5565b336000818152600c60209081526040808320949094556001600160a01b038b168252600d8152838220928252919091522054611d2590839061305c565b6001600160a01b0388166000818152600d60209081526040808320338452825280832094909455918152600e9091522054611d6190839061305c565b6001600160a01b0388166000908152600e6020908152604080832093909355338252600f90522054611d9490839061305c565b336000818152600f60209081526040808320949094556001600160a01b038b16825260148152838220928252919091529081208054879290611dd79084906130a5565b909155505060408051338152602081018490526001600160a01b038916917f8752a472e571a816aea92eec8dae9baf628e840f4929fbcc2d155e6233ff68a7910160405180910390a2600854604051630412c6d560e41b81526001600160a01b038981166004830152336024830152604482018590529091169063412c6d50906064016020604051808303816000875af1158015611e79573d6000803e3d6000fd5b505050506040513d601f19601f82011682018060405250810190610be6919061306f565b6001600160e01b03198082169003611ef75760405162461bcd60e51b815260206004820152601c60248201527f4552433136353a20696e76616c696420696e74657266616365206964000000006044820152606401610a07565b6001600160e01b0319166000908152600460205260409020805460ff19166001179055565b600754604051630c39b8b760e31b81526001600160a01b03808616600483015260009286929116906361cdc5b890602401602060405180830381865afa158015611f6a573d6000803e3d6000fd5b505050506040513d601f19601f82011682018060405250810190611f8e919061306f565b611f9757600080fd5b60008411611ff75760405162461bcd60e51b815260206004820152602760248201527f4465706f7369744d616e616765723a20616d6f756e74206d757374206e6f74206044820152666265207a65726f60c81b6064820152608401610a07565b6001600160a01b038516600090815260136020908152604080832033845290915290819020815160608101909252908061203186436130a5565b6001600160801b039081168252878116602080840191909152600060409384018190528554600181810188559682528282208651878501518616600160801b0295169490941760029091029093019283559383015191909401805491151560ff199092169190911790556001600160a01b0388168252600d835280822033835290925220546120c19085906130a5565b6001600160a01b0386166000818152600d60209081526040808320338452825280832094909455918152600e90915220546120fd9085906130a5565b6001600160a01b0386166000908152600e6020908152604080832093909355338252600f905220546121309085906130a5565b336000818152600f60209081526040918290209390935580519182529181018690526001600160a01b038716917f04c56a409d50971e45c5a2d96e5d557d2b0f1d66d40f14b141e4c958b0f39b32910160405180910390a2600854604051637c287fd560e11b81526001600160a01b038781166004830152336024830152604482018790529091169063f850ffaa906064016020604051808303816000875af11580156121e1573d6000803e3d6000fd5b505050506040513d601f19601f82011682018060405250810190612205919061306f565b61220e57600080fd5b506001949350505050565b6001600160a01b038216600081815260146020908152604080832033808552908352818420549484526013835281842090845290915281205490919081106122b15760405162461bcd60e51b815260206004820152602560248201527f4465706f7369744d616e616765723a206e6f207265717565737420746f2070726044820152646f6365737360d81b6064820152608401610a07565b6001600160a01b038416600090815260136020908152604080832033845290915281208054839081106122e6576122e6613017565b600091825260209091206002909102018054909150436001600160801b0390911611156123675760405162461bcd60e51b815260206004820152602960248201527f4465706f7369744d616e616765723a207761697420666f72207769746864726160448201526877616c2064656c617960b81b6064820152608401610a07565b6001818101805460ff1916821790556001600160a01b0386166000908152601460209081526040808320338452909152812080549091906123a99084906130a5565b909155505080546001600160a01b0386166000908152600d60209081526040808320338452909152902054600160801b9091046001600160801b0316906123f190829061305c565b6001600160a01b0387166000818152600d60209081526040808320338452825280832094909455918152600e909152205461242d90829061305c565b6001600160a01b0387166000908152600e6020908152604080832093909355338252600f9052205461246090829061305c565b336000818152600f60209081526040808320949094556001600160a01b038a1682526010815283822092825291909152205461249d9082906130a5565b6001600160a01b0387166000818152601060209081526040808320338452825280832094909455918152601190915220546124d99082906130a5565b6001600160a01b03871660009081526011602090815260408083209390935533825260129052205461250c9082906130a5565b3360009081526012602052604090205584156125a55760065460405163e3b99e8560e01b8152336004820152602481018390526001600160a01b039091169063e3b99e85906044016020604051808303816000875af1158015612573573d6000803e3d6000fd5b505050506040513d601f19601f82011682018060405250810190612597919061306f565b6125a057600080fd5b6125bc565b6006546125bc906001600160a01b031633836127c3565b60408051338152602081018390526001600160a01b038816917fcd1fce47d5ad89dd70b04c75bd6bdb8114d4d4ff7b4393f9fb5937e733ba9582910160405180910390a250600195945050505050565b6000826001600160a01b031663570ca7356040518163ffffffff1660e01b8152600401602060405180830381865afa15801561264c573d6000803e3d6000fd5b505050506040513d601f19601f8201168201806040525081019061267091906130b8565b6001600160a01b0316826001600160a01b031614905092915050565b60006301ffc9a760e01b6001600160e01b0319831614806109a55750506001600160e01b03191660009081526004602052604090205460ff1690565b60008281526005602090815260408083206001600160a01b038516845290915290205460ff16610b10576126fb816127f3565b612706836020612805565b6040516020016127179291906130f9565b60408051601f198184030181529082905262461bcd60e51b8252610a079160040161317a565b6040516001600160a01b03808516602483015283166044820152606481018290526127bd9085906323b872dd60e01b906084015b60408051601f198184030181529190526020810180517bffffffffffffffffffffffffffffffffffffffffffffffffffffffff166001600160e01b0319909316929092179091526129ae565b50505050565b6040516001600160a01b038316602482015260448101829052610a8390849063a9059cbb60e01b90606401612771565b60606109a56001600160a01b03831660145b606060006128148360026131ad565b61281f9060026130a5565b67ffffffffffffffff81111561283757612837612dac565b6040519080825280601f01601f191660200182016040528015612861576020820181803683370190505b509050600360fc1b8160008151811061287c5761287c613017565b60200101906001600160f81b031916908160001a905350600f60fb1b816001815181106128ab576128ab613017565b60200101906001600160f81b031916908160001a90535060006128cf8460026131ad565b6128da9060016130a5565b90505b600181111561295f577f303132333435363738396162636465660000000000000000000000000000000085600f166010811061291b5761291b613017565b1a60f81b82828151811061293157612931613017565b60200101906001600160f81b031916908160001a90535060049490941c93612958816131c4565b90506128dd565b508315610e265760405162461bcd60e51b815260206004820181905260248201527f537472696e67733a20686578206c656e67746820696e73756666696369656e746044820152606401610a07565b6000612a03826040518060400160405280602081526020017f5361666545524332303a206c6f772d6c6576656c2063616c6c206661696c6564815250856001600160a01b0316612a839092919063ffffffff16565b9050805160001480612a24575080806020019051810190612a24919061306f565b610a835760405162461bcd60e51b815260206004820152602a60248201527f5361666545524332303a204552433230206f7065726174696f6e20646964206e6044820152691bdd081cdd58d8d9595960b21b6064820152608401610a07565b6060610f94848460008585600080866001600160a01b03168587604051612aaa91906131db565b60006040518083038185875af1925050503d8060008114612ae7576040519150601f19603f3d011682016040523d82523d6000602084013e612aec565b606091505b5091509150612afd87838387612b08565b979650505050505050565b60608315612b77578251600003612b70576001600160a01b0385163b612b705760405162461bcd60e51b815260206004820152601d60248201527f416464726573733a2063616c6c20746f206e6f6e2d636f6e74726163740000006044820152606401610a07565b5081610f94565b610f948383815115612b8c5781518083602001fd5b8060405162461bcd60e51b8152600401610a07919061317a565b6001600160a01b0381168114610a1b57600080fd5b600060208284031215612bcd57600080fd5b8135610e2681612ba6565b600060208284031215612bea57600080fd5b81356001600160e01b031981168114610e2657600080fd5b600060208284031215612c1457600080fd5b5035919050565b60008060408385031215612c2e57600080fd5b8235612c3981612ba6565b91506020830135612c4981612ba6565b809150509250929050565b60008060408385031215612c6757600080fd5b823591506020830135612c4981612ba6565b600080600080600060808688031215612c9157600080fd5b8535612c9c81612ba6565b94506020860135612cac81612ba6565b935060408601359250606086013567ffffffffffffffff80821115612cd057600080fd5b818801915088601f830112612ce457600080fd5b813581811115612cf357600080fd5b896020828501011115612d0557600080fd5b9699959850939650602001949392505050565b60008060408385031215612d2b57600080fd5b8235612d3681612ba6565b946020939093013593505050565b600080600080600060a08688031215612d5c57600080fd5b8535612d6781612ba6565b94506020860135612d7781612ba6565b93506040860135612d8781612ba6565b9250606086013591506080860135612d9e81612ba6565b809150509295509295909350565b634e487b7160e01b600052604160045260246000fd5b604051601f8201601f1916810167ffffffffffffffff81118282101715612deb57612deb612dac565b604052919050565b600067ffffffffffffffff821115612e0d57612e0d612dac565b5060051b60200190565b600082601f830112612e2857600080fd5b81356020612e3d612e3883612df3565b612dc2565b82815260059290921b84018101918181019086841115612e5c57600080fd5b8286015b84811015612e775780358352918301918301612e60565b509695505050505050565b600080600060608486031215612e9757600080fd5b8335612ea281612ba6565b925060208481013567ffffffffffffffff80821115612ec057600080fd5b818701915087601f830112612ed457600080fd5b8135612ee2612e3882612df3565b81815260059190911b8301840190848101908a831115612f0157600080fd5b938501935b82851015612f28578435612f1981612ba6565b82529385019390850190612f06565b965050506040870135925080831115612f4057600080fd5b5050612f4e86828701612e17565b9150509250925092565b600080600060608486031215612f6d57600080fd5b8335612f7881612ba6565b92506020840135612f8881612ba6565b929592945050506040919091013590565b8015158114610a1b57600080fd5b60008060408385031215612fba57600080fd5b8235612fc581612ba6565b91506020830135612c4981612f99565b600080600060608486031215612fea57600080fd5b8335612ff581612ba6565b925060208401359150604084013561300c81612f99565b809150509250925092565b634e487b7160e01b600052603260045260246000fd5b634e487b7160e01b600052601160045260246000fd5b6000600182016130555761305561302d565b5060010190565b818103818111156109a5576109a561302d565b60006020828403121561308157600080fd5b8151610e2681612f99565b60006020828403121561309e57600080fd5b5051919050565b808201808211156109a5576109a561302d565b6000602082840312156130ca57600080fd5b8151610e2681612ba6565b60005b838110156130f05781810151838201526020016130d8565b50506000910152565b7f416363657373436f6e74726f6c3a206163636f756e74200000000000000000008152600083516131318160178501602088016130d5565b7f206973206d697373696e6720726f6c6520000000000000000000000000000000601791840191820152835161316e8160288401602088016130d5565b01602801949350505050565b60208152600082518060208401526131998160408501602087016130d5565b601f01601f19169190910160400192915050565b80820281158282048414176109a5576109a561302d565b6000816131d3576131d361302d565b506000190190565b600082516131ed8184602087016130d5565b919091019291505056fea164736f6c6343000813000a",
  "devdoc": {
    "details": "DepositManager manages WTON deposit and withdrawal from operator and WTON holders.",
    "events": {
      "RoleAdminChanged(bytes32,bytes32,bytes32)": {
        "details": "Emitted when `newAdminRole` is set as ``role``'s admin role, replacing `previousAdminRole` `DEFAULT_ADMIN_ROLE` is the starting admin for all roles, despite {RoleAdminChanged} not being emitted signaling this. _Available since v3.1._"
      },
      "RoleGranted(bytes32,address,address)": {
        "details": "Emitted when `account` is granted `role`. `sender` is the account that originated the contract call, an admin role bearer except when using {AccessControl-_setupRole}."
      },
      "RoleRevoked(bytes32,address,address)": {
        "details": "Emitted when `account` is revoked `role`. `sender` is the account that originated the contract call:   - if using `revokeRole`, it is the admin role bearer   - if using `renounceRole`, it is the role bearer (i.e. `account`)"
      }
    },
    "kind": "dev",
    "methods": {
      "addAdmin(address)": {
        "details": "add admin",
        "params": {
          "account": "address to add"
        }
      },
      "deposit(address,uint256)": {
        "details": "deposit `amount` WTON in RAY"
      },
      "getRoleAdmin(bytes32)": {
        "details": "Returns the admin role that controls `role`. See {grantRole} and {revokeRole}. To change a role's admin, use {_setRoleAdmin}."
      },
      "grantRole(bytes32,address)": {
        "details": "Grants `role` to `account`. If `account` had not been already granted `role`, emits a {RoleGranted} event. Requirements: - the caller must have ``role``'s admin role. May emit a {RoleGranted} event."
      },
      "hasRole(bytes32,address)": {
        "details": "Returns `true` if `account` has been granted `role`."
      },
      "isAdmin(address)": {
        "details": "whether admin",
        "params": {
          "account": "address to check"
        }
      },
      "redeposit(address)": {
        "details": "re-deposit pending requests in the pending queue"
      },
      "removeAdmin(address)": {
        "details": "remove admin",
        "params": {
          "account": "address to remove"
        }
      },
      "renounceRole(bytes32,address)": {
        "details": "Revokes `role` from the calling account. Roles are often managed via {grantRole} and {revokeRole}: this function's purpose is to provide a mechanism for accounts to lose their privileges if they are compromised (such as when a trusted device is misplaced). If the calling account had been revoked `role`, emits a {RoleRevoked} event. Requirements: - the caller must be `account`. May emit a {RoleRevoked} event."
      },
      "revokeRole(bytes32,address)": {
        "details": "Revokes `role` from `account`. If `account` had been granted `role`, emits a {RoleRevoked} event. Requirements: - the caller must have ``role``'s admin role. May emit a {RoleRevoked} event."
      },
      "transferAdmin(address)": {
        "details": "transfer admin",
        "params": {
          "newAdmin": "new admin address"
        }
      }
    },
    "version": 1
  },
  "userdoc": {
    "kind": "user",
    "methods": {},
    "version": 1
  },
  "storageLayout": {
    "storage": [
      {
        "astId": 11780,
        "contract": "contracts/stake/managers/DepositManager.sol:DepositManager",
        "label": "pauseProxy",
        "offset": 0,
        "slot": "0",
        "type": "t_bool"
      },
      {
        "astId": 11784,
        "contract": "contracts/stake/managers/DepositManager.sol:DepositManager",
        "label": "proxyImplementation",
        "offset": 0,
        "slot": "1",
        "type": "t_mapping(t_uint256,t_address)"
      },
      {
        "astId": 11788,
        "contract": "contracts/stake/managers/DepositManager.sol:DepositManager",
        "label": "aliveImplementation",
        "offset": 0,
        "slot": "2",
        "type": "t_mapping(t_address,t_bool)"
      },
      {
        "astId": 11792,
        "contract": "contracts/stake/managers/DepositManager.sol:DepositManager",
        "label": "selectorImplementation",
        "offset": 0,
        "slot": "3",
        "type": "t_mapping(t_bytes4,t_address)"
      },
      {
        "astId": 1801,
        "contract": "contracts/stake/managers/DepositManager.sol:DepositManager",
        "label": "_supportedInterfaces",
        "offset": 0,
        "slot": "4",
        "type": "t_mapping(t_bytes4,t_bool)"
      },
      {
        "astId": 24,
        "contract": "contracts/stake/managers/DepositManager.sol:DepositManager",
        "label": "_roles",
        "offset": 0,
        "slot": "5",
        "type": "t_mapping(t_bytes32,t_struct(RoleData)19_storage)"
      },
      {
        "astId": 16159,
        "contract": "contracts/stake/managers/DepositManager.sol:DepositManager",
        "label": "_wton",
        "offset": 0,
        "slot": "6",
        "type": "t_address"
      },
      {
        "astId": 16161,
        "contract": "contracts/stake/managers/DepositManager.sol:DepositManager",
        "label": "_registry",
        "offset": 0,
        "slot": "7",
        "type": "t_address"
      },
      {
        "astId": 16163,
        "contract": "contracts/stake/managers/DepositManager.sol:DepositManager",
        "label": "_seigManager",
        "offset": 0,
        "slot": "8",
        "type": "t_address"
      },
      {
        "astId": 16165,
        "contract": "contracts/stake/managers/DepositManager.sol:DepositManager",
        "label": "oldDepositManager",
        "offset": 0,
        "slot": "9",
        "type": "t_address"
      },
      {
        "astId": 16171,
        "contract": "contracts/stake/managers/DepositManager.sol:DepositManager",
        "label": "_accStaked",
        "offset": 0,
        "slot": "10",
        "type": "t_mapping(t_address,t_mapping(t_address,t_uint256))"
      },
      {
        "astId": 16175,
        "contract": "contracts/stake/managers/DepositManager.sol:DepositManager",
        "label": "_accStakedLayer2",
        "offset": 0,
        "slot": "11",
        "type": "t_mapping(t_address,t_uint256)"
      },
      {
        "astId": 16179,
        "contract": "contracts/stake/managers/DepositManager.sol:DepositManager",
        "label": "_accStakedAccount",
        "offset": 0,
        "slot": "12",
        "type": "t_mapping(t_address,t_uint256)"
      },
      {
        "astId": 16185,
        "contract": "contracts/stake/managers/DepositManager.sol:DepositManager",
        "label": "_pendingUnstaked",
        "offset": 0,
        "slot": "13",
        "type": "t_mapping(t_address,t_mapping(t_address,t_uint256))"
      },
      {
        "astId": 16189,
        "contract": "contracts/stake/managers/DepositManager.sol:DepositManager",
        "label": "_pendingUnstakedLayer2",
        "offset": 0,
        "slot": "14",
        "type": "t_mapping(t_address,t_uint256)"
      },
      {
        "astId": 16193,
        "contract": "contracts/stake/managers/DepositManager.sol:DepositManager",
        "label": "_pendingUnstakedAccount",
        "offset": 0,
        "slot": "15",
        "type": "t_mapping(t_address,t_uint256)"
      },
      {
        "astId": 16199,
        "contract": "contracts/stake/managers/DepositManager.sol:DepositManager",
        "label": "_accUnstaked",
        "offset": 0,
        "slot": "16",
        "type": "t_mapping(t_address,t_mapping(t_address,t_uint256))"
      },
      {
        "astId": 16203,
        "contract": "contracts/stake/managers/DepositManager.sol:DepositManager",
        "label": "_accUnstakedLayer2",
        "offset": 0,
        "slot": "17",
        "type": "t_mapping(t_address,t_uint256)"
      },
      {
        "astId": 16207,
        "contract": "contracts/stake/managers/DepositManager.sol:DepositManager",
        "label": "_accUnstakedAccount",
        "offset": 0,
        "slot": "18",
        "type": "t_mapping(t_address,t_uint256)"
      },
      {
        "astId": 16215,
        "contract": "contracts/stake/managers/DepositManager.sol:DepositManager",
        "label": "_withdrawalRequests",
        "offset": 0,
        "slot": "19",
        "type": "t_mapping(t_address,t_mapping(t_address,t_array(t_struct(WithdrawalReqeust)16234_storage)dyn_storage))"
      },
      {
        "astId": 16221,
        "contract": "contracts/stake/managers/DepositManager.sol:DepositManager",
        "label": "_withdrawalRequestIndex",
        "offset": 0,
        "slot": "20",
        "type": "t_mapping(t_address,t_mapping(t_address,t_uint256))"
      },
      {
        "astId": 16223,
        "contract": "contracts/stake/managers/DepositManager.sol:DepositManager",
        "label": "globalWithdrawalDelay",
        "offset": 0,
        "slot": "21",
        "type": "t_uint256"
      },
      {
        "astId": 16227,
        "contract": "contracts/stake/managers/DepositManager.sol:DepositManager",
        "label": "withdrawalDelay",
        "offset": 0,
        "slot": "22",
        "type": "t_mapping(t_address,t_uint256)"
      }
    ],
    "types": {
      "t_address": {
        "encoding": "inplace",
        "label": "address",
        "numberOfBytes": "20"
      },
      "t_array(t_struct(WithdrawalReqeust)16234_storage)dyn_storage": {
        "base": "t_struct(WithdrawalReqeust)16234_storage",
        "encoding": "dynamic_array",
        "label": "struct DepositManagerStorage.WithdrawalReqeust[]",
        "numberOfBytes": "32"
      },
      "t_bool": {
        "encoding": "inplace",
        "label": "bool",
        "numberOfBytes": "1"
      },
      "t_bytes32": {
        "encoding": "inplace",
        "label": "bytes32",
        "numberOfBytes": "32"
      },
      "t_bytes4": {
        "encoding": "inplace",
        "label": "bytes4",
        "numberOfBytes": "4"
      },
      "t_mapping(t_address,t_array(t_struct(WithdrawalReqeust)16234_storage)dyn_storage)": {
        "encoding": "mapping",
        "key": "t_address",
        "label": "mapping(address => struct DepositManagerStorage.WithdrawalReqeust[])",
        "numberOfBytes": "32",
        "value": "t_array(t_struct(WithdrawalReqeust)16234_storage)dyn_storage"
      },
      "t_mapping(t_address,t_bool)": {
        "encoding": "mapping",
        "key": "t_address",
        "label": "mapping(address => bool)",
        "numberOfBytes": "32",
        "value": "t_bool"
      },
      "t_mapping(t_address,t_mapping(t_address,t_array(t_struct(WithdrawalReqeust)16234_storage)dyn_storage))": {
        "encoding": "mapping",
        "key": "t_address",
        "label": "mapping(address => mapping(address => struct DepositManagerStorage.WithdrawalReqeust[]))",
        "numberOfBytes": "32",
        "value": "t_mapping(t_address,t_array(t_struct(WithdrawalReqeust)16234_storage)dyn_storage)"
      },
      "t_mapping(t_address,t_mapping(t_address,t_uint256))": {
        "encoding": "mapping",
        "key": "t_address",
        "label": "mapping(address => mapping(address => uint256))",
        "numberOfBytes": "32",
        "value": "t_mapping(t_address,t_uint256)"
      },
      "t_mapping(t_address,t_uint256)": {
        "encoding": "mapping",
        "key": "t_address",
        "label": "mapping(address => uint256)",
        "numberOfBytes": "32",
        "value": "t_uint256"
      },
      "t_mapping(t_bytes32,t_struct(RoleData)19_storage)": {
        "encoding": "mapping",
        "key": "t_bytes32",
        "label": "mapping(bytes32 => struct AccessControl.RoleData)",
        "numberOfBytes": "32",
        "value": "t_struct(RoleData)19_storage"
      },
      "t_mapping(t_bytes4,t_address)": {
        "encoding": "mapping",
        "key": "t_bytes4",
        "label": "mapping(bytes4 => address)",
        "numberOfBytes": "32",
        "value": "t_address"
      },
      "t_mapping(t_bytes4,t_bool)": {
        "encoding": "mapping",
        "key": "t_bytes4",
        "label": "mapping(bytes4 => bool)",
        "numberOfBytes": "32",
        "value": "t_bool"
      },
      "t_mapping(t_uint256,t_address)": {
        "encoding": "mapping",
        "key": "t_uint256",
        "label": "mapping(uint256 => address)",
        "numberOfBytes": "32",
        "value": "t_address"
      },
      "t_struct(RoleData)19_storage": {
        "encoding": "inplace",
        "label": "struct AccessControl.RoleData",
        "members": [
          {
            "astId": 16,
            "contract": "contracts/stake/managers/DepositManager.sol:DepositManager",
            "label": "members",
            "offset": 0,
            "slot": "0",
            "type": "t_mapping(t_address,t_bool)"
          },
          {
            "astId": 18,
            "contract": "contracts/stake/managers/DepositManager.sol:DepositManager",
            "label": "adminRole",
            "offset": 0,
            "slot": "1",
            "type": "t_bytes32"
          }
        ],
        "numberOfBytes": "64"
      },
      "t_struct(WithdrawalReqeust)16234_storage": {
        "encoding": "inplace",
        "label": "struct DepositManagerStorage.WithdrawalReqeust",
        "members": [
          {
            "astId": 16229,
            "contract": "contracts/stake/managers/DepositManager.sol:DepositManager",
            "label": "withdrawableBlockNumber",
            "offset": 0,
            "slot": "0",
            "type": "t_uint128"
          },
          {
            "astId": 16231,
            "contract": "contracts/stake/managers/DepositManager.sol:DepositManager",
            "label": "amount",
            "offset": 16,
            "slot": "0",
            "type": "t_uint128"
          },
          {
            "astId": 16233,
            "contract": "contracts/stake/managers/DepositManager.sol:DepositManager",
            "label": "processed",
            "offset": 0,
            "slot": "1",
            "type": "t_bool"
          }
        ],
        "numberOfBytes": "64"
      },
      "t_uint128": {
        "encoding": "inplace",
        "label": "uint128",
        "numberOfBytes": "16"
      },
      "t_uint256": {
        "encoding": "inplace",
        "label": "uint256",
        "numberOfBytes": "32"
      }
    }
  }
}