{
  "_format": "hh-sol-artifact-1",
  "contractName": "CoinageFactory",
  "sourceName": "contracts/stake/factory/CoinageFactory.sol",
  "abi": [
    {
      "anonymous": false,
      "inputs": [
        {
          "indexed": true,
          "internalType": "address",
          "name": "previousOwner",
          "type": "address"
        },
        {
          "indexed": true,
          "internalType": "address",
          "name": "newOwner",
          "type": "address"
        }
      ],
      "name": "OwnershipTransferred",
      "type": "event"
    },
    {
      "inputs": [],
      "name": "autoCoinageLogic",
      "outputs": [
        {
          "internalType": "address",
          "name": "",
          "type": "address"
        }
      ],
      "stateMutability": "view",
      "type": "function"
    },
    {
      "inputs": [],
      "name": "deploy",
      "outputs": [
        {
          "internalType": "address",
          "name": "",
          "type": "address"
        }
      ],
      "stateMutability": "nonpayable",
      "type": "function"
    },
    {
      "inputs": [],
      "name": "owner",
      "outputs": [
        {
          "internalType": "address",
          "name": "",
          "type": "address"
        }
      ],
      "stateMutability": "view",
      "type": "function"
    },
    {
      "inputs": [],
      "name": "renounceOwnership",
      "outputs": [],
      "stateMutability": "nonpayable",
      "type": "function"
    },
    {
      "inputs": [
        {
          "internalType": "address",
          "name": "newLogic",
          "type": "address"
        }
      ],
      "name": "setAutoCoinageLogic",
      "outputs": [],
      "stateMutability": "nonpayable",
      "type": "function"
    },
    {
      "inputs": [
        {
          "internalType": "address",
          "name": "newOwner",
          "type": "address"
        }
      ],
      "name": "transferOwnership",
      "outputs": [],
      "stateMutability": "nonpayable",
      "type": "function"
    }
  ],
  "bytecode": "0x608060405234801561001057600080fd5b5061001a3361001f565b61006f565b600080546001600160a01b038381166001600160a01b0319831681178455604051919092169283917f8be0079c531659141344cd1fd0a4f28419497f9722a3daafe3b4186f6b6457e09190a35050565b6123fa8061007e6000396000f3fe608060405234801561001057600080fd5b50600436106100625760003560e01c8063715018a614610067578063775c300c146100715780638ad68763146100955780638da5cb5b146100a8578063989e3f28146100b9578063f2fde38b146100cc575b600080fd5b61006f6100df565b005b6100796100f3565b6040516001600160a01b03909116815260200160405180910390f35b600154610079906001600160a01b031681565b6000546001600160a01b0316610079565b61006f6100c7366004610440565b6102e1565b61006f6100da366004610440565b61030b565b6100e7610389565b6100f160006103e3565b565b60008060405161010290610433565b604051809103906000f08015801561011e573d6000803e3d6000fd5b50600154604051631b2ce7f360e11b81526001600160a01b039182166004820152919250821690633659cfe690602401600060405180830381600087803b15801561016857600080fd5b505af115801561017c573d6000803e3d6000fd5b5050604051634c1d96ab60e11b81523360048201526001600160a01b038416925063983b2d569150602401600060405180830381600087803b1580156101c157600080fd5b505af11580156101d5573d6000803e3d6000fd5b5050604051635e9d09fb60e11b815260806004820152600a60848201526929ba30b5b2b22baa27a760b11b60a482015260c06024820152600560c48201526439abaa27a760d91b60e48201526b033b2e3c9fd0803ce800000060448201523360648201526001600160a01b038416925063bd3a13f6915061010401600060405180830381600087803b15801561026a57600080fd5b505af115801561027e573d6000803e3d6000fd5b505060405163f2fde38b60e01b81523360048201526001600160a01b038416925063f2fde38b9150602401600060405180830381600087803b1580156102c357600080fd5b505af11580156102d7573d6000803e3d6000fd5b5092949350505050565b6102e9610389565b600180546001600160a01b0319166001600160a01b0392909216919091179055565b610313610389565b6001600160a01b03811661037d5760405162461bcd60e51b815260206004820152602660248201527f4f776e61626c653a206e6577206f776e657220697320746865207a65726f206160448201526564647265737360d01b60648201526084015b60405180910390fd5b610386816103e3565b50565b6000546001600160a01b031633146100f15760405162461bcd60e51b815260206004820181905260248201527f4f776e61626c653a2063616c6c6572206973206e6f7420746865206f776e65726044820152606401610374565b600080546001600160a01b038381166001600160a01b0319831681178455604051919092169283917f8be0079c531659141344cd1fd0a4f28419497f9722a3daafe3b4186f6b6457e09190a35050565b611f7d8061047183390190565b60006020828403121561045257600080fd5b81356001600160a01b038116811461046957600080fd5b939250505056fe60806040523480156200001157600080fd5b506200001f6000336200007f565b6200004c7ff0887ba65ee2024ea881d91b74c2450ef19e1557f03bed3ea9f16b037cbe2dc960006200008f565b620000797f523a704056dcd17bcf83bed8b68c59416dac1119be77755efe3bde0a64e46e0c60006200008f565b6200017e565b6200008b8282620000da565b5050565b600082815260056020526040808220600101805490849055905190918391839186917fbd79b86ffe0ab8e8776151514217cd7cacd52c909f66475c3af44e129f0b00ff9190a4505050565b60008281526005602090815260408083206001600160a01b038516845290915290205460ff166200008b5760008281526005602090815260408083206001600160a01b03851684529091529020805460ff191660011790556200013a3390565b6001600160a01b0316816001600160a01b0316837f2f8788117e7eff1d82e926ec794901d17c78024a50270940304540a733656f0d60405160405180910390a45050565b611def806200018e6000396000f3fe6080604052600436106102e75760003560e01c806370480275116101905780639870d7fe116100dc578063b911135f11610095578063d547741f1161006f578063d547741f146109d0578063f2fde38b146109f0578063f5b541a614610a10578063fad8b32a14610a3257610330565b8063b911135f14610958578063cfbd48851461098e578063d5391393146109ae57610330565b80639870d7fe1461088f578063a217fddf146108af578063aa271e1a146108c4578063ac8a584a146108e4578063b7c246d714610904578063b7d78b1a1461092457610330565b80638b8f4a651161014957806391d148541161012357806391d148541461082557806395d89b4114610845578063983b2d561461085a578063986502751461087a57610330565b80638b8f4a65146107d05780638d4fdb40146107f05780638f32d59b1461081057610330565b80637048027514610725578063715018a61461074557806375829def1461075a5780637cb00d251461077a5780637cd5f6631461079a578063837afbc0146107ba57610330565b80633659cfe61161024f5780635cc797d81161020857806363a8fd89116101e257806363a8fd89146106ab57806369f499b1146106c55780636d70f7ae146106e55780636fb7f5581461070557610330565b80635cc797d8146106375780635deaecec14610657578063614db8b21461068b57610330565b80633659cfe6146105255780634a5df50f1461054557806350d2a27614610565578063550d01a3146105b357806356fabf68146105e35780635c60da1b1461060357610330565b8063248a9ca3116102a1578063248a9ca31461046057806324d7806c146104905780632ab6f8db146104b05780632f2ff15d146104c55780633092afd5146104e557806336568abe1461050557610330565b8062d87a9c1461033a57806301ffc9a714610362578063024c2ddd146103925780630461fdc5146103ca57806306fdde031461041e5780631785f53c1461044057610330565b366103305760405162461bcd60e51b815260206004820152601460248201527331b0b73737ba103932b1b2b4bb329022ba3432b960611b60448201526064015b60405180910390fd5b610338610a52565b005b34801561034657600080fd5b5061034f600281565b6040519081526020015b60405180910390f35b34801561036e57600080fd5b5061038261037d366004611997565b610afb565b6040519015158152602001610359565b34801561039e57600080fd5b5061034f6103ad3660046119dd565b600960209081526000928352604080842090915290825290205481565b3480156103d657600080fd5b506104096103e5366004611a10565b600f6020908152600092835260408084209091529082529020805460019091015482565b60408051928352602083019190915201610359565b34801561042a57600080fd5b50610433610b0c565b6040516103599190611a5e565b34801561044c57600080fd5b5061033861045b366004611a91565b610b9a565b34801561046c57600080fd5b5061034f61047b366004611aac565b60009081526005602052604090206001015490565b34801561049c57600080fd5b506103826104ab366004611a91565b610bcd565b3480156104bc57600080fd5b50610338610bd9565b3480156104d157600080fd5b506103386104e0366004611ac5565b610bf3565b3480156104f157600080fd5b50610338610500366004611a91565b610c18565b34801561051157600080fd5b50610338610520366004611ac5565b610c51565b34801561053157600080fd5b50610338610540366004611a91565b610ccf565b34801561055157600080fd5b50610338610560366004611ae8565b610ddd565b34801561057157600080fd5b5061059b610580366004611997565b6003602052600090815260409020546001600160a01b031681565b6040516001600160a01b039091168152602001610359565b3480156105bf57600080fd5b506103826105ce366004611a91565b60026020526000908152604090205460ff1681565b3480156105ef57600080fd5b5061034f6105fe366004611aac565b61103f565b34801561060f57600080fd5b50600080526001602052600080516020611d83833981519152546001600160a01b031661059b565b34801561064357600080fd5b50610338610652366004611b7c565b611065565b34801561066357600080fd5b50610409610672366004611aac565b600d602052600090815260409020805460019091015482565b34801561069757600080fd5b5061034f6106a6366004611aac565b611094565b3480156106b757600080fd5b506000546103829060ff1681565b3480156106d157600080fd5b5061034f6106e0366004611a10565b6110a4565b3480156106f157600080fd5b50610382610700366004611a91565b6110d5565b34801561071157600080fd5b5060065461059b906001600160a01b031681565b34801561073157600080fd5b50610338610740366004611a91565b6110ef565b34801561075157600080fd5b5061033861111f565b34801561076657600080fd5b50610338610775366004611a91565b61114f565b34801561078657600080fd5b50610338610795366004611ba6565b611231565b3480156107a657600080fd5b506103386107b5366004611bc1565b611269565b3480156107c657600080fd5b5061034f60105481565b3480156107dc57600080fd5b5061059b6107eb366004611aac565b611299565b3480156107fc57600080fd5b5061059b61080b366004611997565b6112b6565b34801561081c57600080fd5b50610382611355565b34801561083157600080fd5b50610382610840366004611ac5565b61135d565b34801561085157600080fd5b50610433611388565b34801561086657600080fd5b50610338610875366004611a91565b611395565b34801561088657600080fd5b506103386113d2565b34801561089b57600080fd5b506103386108aa366004611a91565b6113ea565b3480156108bb57600080fd5b5061034f600081565b3480156108d057600080fd5b506103826108df366004611a91565b611427565b3480156108f057600080fd5b506103386108ff366004611a91565b611441565b34801561091057600080fd5b5061034f6b204fce5e3e2502611000000081565b34801561093057600080fd5b5061040961093f366004611aac565b600b602052600090815260409020805460019091015482565b34801561096457600080fd5b5061059b610973366004611aac565b6001602052600090815260409020546001600160a01b031681565b34801561099a57600080fd5b506103386109a9366004611a91565b61147e565b3480156109ba57600080fd5b5061034f600080516020611da383398151915281565b3480156109dc57600080fd5b506103386109eb366004611ac5565b6114b7565b3480156109fc57600080fd5b50610338610a0b366004611a91565b6114dc565b348015610a1c57600080fd5b5061034f600080516020611dc383398151915281565b348015610a3e57600080fd5b50610338610a4d366004611a91565b61150a565b6000610a696000356001600160e01b0319166112b6565b90506001600160a01b03811615801590610a86575060005460ff16155b610ad25760405162461bcd60e51b815260206004820152601d60248201527f50726f78793a20696d706c204f522070726f78792069732066616c73650000006044820152606401610327565b3660008037600080366000845af43d6000803e808015610af1573d6000f35b3d6000fd5b505050565b6000610b0682611547565b92915050565b60078054610b1990611bf4565b80601f0160208091040260200160405190810160405280929190818152602001828054610b4590611bf4565b8015610b925780601f10610b6757610100808354040283529160200191610b92565b820191906000526020600020905b815481529060010190602001808311610b7557829003601f168201915b505050505081565b610ba333610bcd565b610bbf5760405162461bcd60e51b815260040161032790611c2e565b610bca600082610c51565b50565b6000610b06818361135d565b610bf1600080516020611dc383398151915233610c51565b565b600082815260056020526040902060010154610c0e8161156c565b610af68383611576565b610c2133610bcd565b610c3d5760405162461bcd60e51b815260040161032790611c2e565b610bca600080516020611da3833981519152825b6001600160a01b0381163314610cc15760405162461bcd60e51b815260206004820152602f60248201527f416363657373436f6e74726f6c3a2063616e206f6e6c792072656e6f756e636560448201526e103937b632b9903337b91039b2b63360891b6064820152608401610327565b610ccb82826115fc565b5050565b610cd833610bcd565b610cf45760405162461bcd60e51b815260040161032790611c2e565b6001600160a01b038116610d3a5760405162461bcd60e51b815260206004820152600d60248201526c696e707574206973207a65726f60981b6044820152606401610327565b600080526001602052600080516020611d83833981519152546001600160a01b03828116911603610d995760405162461bcd60e51b815260206004820152600960248201526839b0b6b29030b2323960b91b6044820152606401610327565b610da68160006001611663565b6040516001600160a01b038216907fbc7cd75a20ee27fd9adebab32041f755214dbc6bffa90cc0225b39da2e5c2d3b90600090a250565b610de633610bcd565b610e025760405162461bcd60e51b815260040161032790611c2e565b81610e4f5760405162461bcd60e51b815260206004820181905260248201527f50726f78793a205f73656c6563746f727327732073697a65206973207a65726f6044820152606401610327565b6001600160a01b03811660009081526002602052604090205460ff16610eb75760405162461bcd60e51b815260206004820152601860248201527f50726f78793a205f696d70206973206e6f7420616c69766500000000000000006044820152606401610327565b60005b8281101561103957816001600160a01b031660036000868685818110610ee257610ee2611c71565b9050602002016020810190610ef79190611997565b6001600160e01b03191681526020810191909152604001600020546001600160a01b031603610f685760405162461bcd60e51b815260206004820152601d60248201527f4c69717569646974795661756c7450726f78793a2073616d6520696d700000006044820152606401610327565b8160036000868685818110610f7f57610f7f611c71565b9050602002016020810190610f949190611997565b6001600160e01b0319168152602081019190915260400160002080546001600160a01b0319166001600160a01b039283161790558216848483818110610fdc57610fdc611c71565b9050602002016020810190610ff19190611997565b6001600160e01b0319167f14ebc1c32aa68f4d766e89f3e546cee249f7df25183fc10ab1568d91c2ce9b7b60405160405180910390a38061103181611c9d565b915050610eba565b50505050565b600c818154811061104f57600080fd5b600091825260209091200154905081565b905090565b61106e33610bcd565b61108a5760405162461bcd60e51b815260040161032790611c2e565b610ccb82826116ee565b600a818154811061104f57600080fd5b600e60205281600052604060002081815481106110c057600080fd5b90600052602060002001600091509150505481565b6000610b06600080516020611dc38339815191528361135d565b6110f833610bcd565b6111145760405162461bcd60e51b815260040161032790611c2e565b610bca600082610bf3565b61112833610bcd565b6111445760405162461bcd60e51b815260040161032790611c2e565b610bf1600033610c51565b61115833610bcd565b6111745760405162461bcd60e51b815260040161032790611c2e565b6001600160a01b0381166111ca5760405162461bcd60e51b815260206004820152601860248201527f41636365737369626c653a207a65726f206164647265737300000000000000006044820152606401610327565b6001600160a01b038116330361121b5760405162461bcd60e51b815260206004820152601660248201527520b1b1b2b9b9b4b136329d1039b0b6b29030b236b4b760511b6044820152606401610327565b611226600082610bf3565b610bca600033610c51565b61123a33610bcd565b6112565760405162461bcd60e51b815260040161032790611c2e565b6000805460ff1916911515919091179055565b61127233610bcd565b61128e5760405162461bcd60e51b815260040161032790611c2e565b610af6838383611663565b6000818152600160205260408120546001600160a01b0316610b06565b6001600160e01b031981166000908152600360205260408120546001600160a01b03168061130657505060008052506001602052600080516020611d83833981519152546001600160a01b031690565b6001600160a01b03811660009081526002602052604090205460ff161561132d5792915050565b505060008052506001602052600080516020611d83833981519152546001600160a01b031690565b600061106081335b60009182526005602090815260408084206001600160a01b0393909316845291905290205460ff1690565b60088054610b1990611bf4565b61139e33610bcd565b6113ba5760405162461bcd60e51b815260040161032790611c2e565b610bca600080516020611da383398151915282610bf3565b610bf1600080516020611da383398151915233610c51565b6113f333610bcd565b61140f5760405162461bcd60e51b815260040161032790611c2e565b610bca600080516020611dc383398151915282610bf3565b6000610b06600080516020611da38339815191528361135d565b61144a33610bcd565b6114665760405162461bcd60e51b815260040161032790611c2e565b610bca600080516020611dc383398151915282610c51565b61148733610bcd565b6114a35760405162461bcd60e51b815260040161032790611c2e565b610bca600080516020611da3833981519152825b6000828152600560205260409020600101546114d28161156c565b610af683836115fc565b6114e533610bcd565b6115015760405162461bcd60e51b815260040161032790611c2e565b610bca8161114f565b61151333610bcd565b61152f5760405162461bcd60e51b815260040161032790611c2e565b610bca600080516020611dc3833981519152826114b7565b60006001600160e01b03198216637965db0b60e01b1480610b065750610b068261174d565b610bca8133611789565b611580828261135d565b610ccb5760008281526005602090815260408083206001600160a01b03851684529091529020805460ff191660011790556115b83390565b6001600160a01b0316816001600160a01b0316837f2f8788117e7eff1d82e926ec794901d17c78024a50270940304540a733656f0d60405160405180910390a45050565b611606828261135d565b15610ccb5760008281526005602090815260408083206001600160a01b0385168085529252808320805460ff1916905551339285917ff6391f5c32d9c69d2a47ea670b442974b53935d1edc7fd64eb21e047a839171b9190a45050565b6001600160a01b0383163b6116ba5760405162461bcd60e51b815260206004820152601b60248201527f50726f78793a206e6f7420636f6e7472616374206164647265737300000000006044820152606401610327565b80156116e857600082815260016020526040902080546001600160a01b0319166001600160a01b0385161790555b610af683825b6001600160a01b038216600081815260026020908152604091829020805460ff191685151590811790915591519182527f72558d9bfba4210f9ef095c782589484151f6d90f7a81bb3cb9b33efc695d324910160405180910390a25050565b60006301ffc9a760e01b6001600160e01b031983161480610b065750506001600160e01b03191660009081526004602052604090205460ff1690565b611793828261135d565b610ccb576117a0816117e2565b6117ab8360206117f4565b6040516020016117bc929190611cb6565b60408051601f198184030181529082905262461bcd60e51b825261032791600401611a5e565b6060610b066001600160a01b03831660145b60606000611803836002611d2b565b61180e906002611d42565b67ffffffffffffffff81111561182657611826611d55565b6040519080825280601f01601f191660200182016040528015611850576020820181803683370190505b509050600360fc1b8160008151811061186b5761186b611c71565b60200101906001600160f81b031916908160001a905350600f60fb1b8160018151811061189a5761189a611c71565b60200101906001600160f81b031916908160001a90535060006118be846002611d2b565b6118c9906001611d42565b90505b6001811115611941576f181899199a1a9b1b9c1cb0b131b232b360811b85600f16601081106118fd576118fd611c71565b1a60f81b82828151811061191357611913611c71565b60200101906001600160f81b031916908160001a90535060049490941c9361193a81611d6b565b90506118cc565b5083156119905760405162461bcd60e51b815260206004820181905260248201527f537472696e67733a20686578206c656e67746820696e73756666696369656e746044820152606401610327565b9392505050565b6000602082840312156119a957600080fd5b81356001600160e01b03198116811461199057600080fd5b80356001600160a01b03811681146119d857600080fd5b919050565b600080604083850312156119f057600080fd5b6119f9836119c1565b9150611a07602084016119c1565b90509250929050565b60008060408385031215611a2357600080fd5b611a2c836119c1565b946020939093013593505050565b60005b83811015611a55578181015183820152602001611a3d565b50506000910152565b6020815260008251806020840152611a7d816040850160208701611a3a565b601f01601f19169190910160400192915050565b600060208284031215611aa357600080fd5b611990826119c1565b600060208284031215611abe57600080fd5b5035919050565b60008060408385031215611ad857600080fd5b82359150611a07602084016119c1565b600080600060408486031215611afd57600080fd5b833567ffffffffffffffff80821115611b1557600080fd5b818601915086601f830112611b2957600080fd5b813581811115611b3857600080fd5b8760208260051b8501011115611b4d57600080fd5b602092830195509350611b6391860190506119c1565b90509250925092565b803580151581146119d857600080fd5b60008060408385031215611b8f57600080fd5b611b98836119c1565b9150611a0760208401611b6c565b600060208284031215611bb857600080fd5b61199082611b6c565b600080600060608486031215611bd657600080fd5b611bdf846119c1565b925060208401359150611b6360408501611b6c565b600181811c90821680611c0857607f821691505b602082108103611c2857634e487b7160e01b600052602260045260246000fd5b50919050565b60208082526023908201527f41757468436f6e74726f6c3a2043616c6c6572206973206e6f7420616e20616460408201526236b4b760e91b606082015260800190565b634e487b7160e01b600052603260045260246000fd5b634e487b7160e01b600052601160045260246000fd5b600060018201611caf57611caf611c87565b5060010190565b7f416363657373436f6e74726f6c3a206163636f756e7420000000000000000000815260008351611cee816017850160208801611a3a565b7001034b99036b4b9b9b4b733903937b6329607d1b6017918401918201528351611d1f816028840160208801611a3a565b01602801949350505050565b8082028115828204841417610b0657610b06611c87565b80820180821115610b0657610b06611c87565b634e487b7160e01b600052604160045260246000fd5b600081611d7a57611d7a611c87565b50600019019056fea6eef7e35abe7026729641147f7915573c7e97b47efa546f5f6e3230263bcb49f0887ba65ee2024ea881d91b74c2450ef19e1557f03bed3ea9f16b037cbe2dc9523a704056dcd17bcf83bed8b68c59416dac1119be77755efe3bde0a64e46e0ca164736f6c6343000813000aa164736f6c6343000813000a",
  "linkReferences": {},
  "deployedLinkReferences": {}
}