{
  "_format": "hh-sol-artifact-1",
  "contractName": "Layer2ManagerV1_1",
  "sourceName": "contracts/layer2/Layer2ManagerV1_1.sol",
  "abi": [
    {
      "inputs": [],
      "stateMutability": "nonpayable",
      "type": "constructor"
    },
    {
      "inputs": [],
      "name": "ExcludeError",
      "type": "error"
    },
    {
      "inputs": [
        {
          "internalType": "uint256",
          "name": "x",
          "type": "uint256"
        }
      ],
      "name": "OnApproveError",
      "type": "error"
    },
    {
      "inputs": [
        {
          "internalType": "uint256",
          "name": "x",
          "type": "uint256"
        }
      ],
      "name": "RegisterError",
      "type": "error"
    },
    {
      "inputs": [],
      "name": "StatusError",
      "type": "error"
    },
    {
      "inputs": [],
      "name": "ZeroAddressError",
      "type": "error"
    },
    {
      "inputs": [],
      "name": "ZeroBytesError",
      "type": "error"
    },
    {
      "anonymous": false,
      "inputs": [
        {
          "indexed": false,
          "internalType": "address",
          "name": "rollupConfig",
          "type": "address"
        },
        {
          "indexed": false,
          "internalType": "address",
          "name": "candidateAddOn",
          "type": "address"
        }
      ],
      "name": "PausedCandidateAddOn",
      "type": "event"
    },
    {
      "anonymous": false,
      "inputs": [
        {
          "indexed": false,
          "internalType": "address",
          "name": "rollupConfig",
          "type": "address"
        },
        {
          "indexed": false,
          "internalType": "uint256",
          "name": "wtonAmount",
          "type": "uint256"
        },
        {
          "indexed": false,
          "internalType": "string",
          "name": "memo",
          "type": "string"
        },
        {
          "indexed": false,
          "internalType": "address",
          "name": "operator",
          "type": "address"
        },
        {
          "indexed": false,
          "internalType": "address",
          "name": "candidateAddOn",
          "type": "address"
        }
      ],
      "name": "RegisteredCandidateAddOn",
      "type": "event"
    },
    {
      "anonymous": false,
      "inputs": [
        {
          "indexed": true,
          "internalType": "bytes32",
          "name": "role",
          "type": "bytes32"
        },
        {
          "indexed": true,
          "internalType": "bytes32",
          "name": "previousAdminRole",
          "type": "bytes32"
        },
        {
          "indexed": true,
          "internalType": "bytes32",
          "name": "newAdminRole",
          "type": "bytes32"
        }
      ],
      "name": "RoleAdminChanged",
      "type": "event"
    },
    {
      "anonymous": false,
      "inputs": [
        {
          "indexed": true,
          "internalType": "bytes32",
          "name": "role",
          "type": "bytes32"
        },
        {
          "indexed": true,
          "internalType": "address",
          "name": "account",
          "type": "address"
        },
        {
          "indexed": true,
          "internalType": "address",
          "name": "sender",
          "type": "address"
        }
      ],
      "name": "RoleGranted",
      "type": "event"
    },
    {
      "anonymous": false,
      "inputs": [
        {
          "indexed": true,
          "internalType": "bytes32",
          "name": "role",
          "type": "bytes32"
        },
        {
          "indexed": true,
          "internalType": "address",
          "name": "account",
          "type": "address"
        },
        {
          "indexed": true,
          "internalType": "address",
          "name": "sender",
          "type": "address"
        }
      ],
      "name": "RoleRevoked",
      "type": "event"
    },
    {
      "anonymous": false,
      "inputs": [
        {
          "indexed": false,
          "internalType": "address",
          "name": "_l2Register",
          "type": "address"
        },
        {
          "indexed": false,
          "internalType": "address",
          "name": "_operatorManagerFactory",
          "type": "address"
        },
        {
          "indexed": false,
          "internalType": "address",
          "name": "_ton",
          "type": "address"
        },
        {
          "indexed": false,
          "internalType": "address",
          "name": "_wton",
          "type": "address"
        },
        {
          "indexed": false,
          "internalType": "address",
          "name": "_dao",
          "type": "address"
        },
        {
          "indexed": false,
          "internalType": "address",
          "name": "_depositManager",
          "type": "address"
        },
        {
          "indexed": false,
          "internalType": "address",
          "name": "_seigManager",
          "type": "address"
        },
        {
          "indexed": false,
          "internalType": "address",
          "name": "_swapProxy",
          "type": "address"
        }
      ],
      "name": "SetAddresses",
      "type": "event"
    },
    {
      "anonymous": false,
      "inputs": [
        {
          "indexed": false,
          "internalType": "uint256",
          "name": "_minimumInitialDepositAmount",
          "type": "uint256"
        }
      ],
      "name": "SetMinimumInitialDepositAmount",
      "type": "event"
    },
    {
      "anonymous": false,
      "inputs": [
        {
          "indexed": false,
          "internalType": "address",
          "name": "_operatorManagerFactory",
          "type": "address"
        }
      ],
      "name": "SetOperatorManagerFactory",
      "type": "event"
    },
    {
      "anonymous": false,
      "inputs": [
        {
          "indexed": false,
          "internalType": "address",
          "name": "rollupConfig",
          "type": "address"
        },
        {
          "indexed": false,
          "internalType": "address",
          "name": "candidateAddOn",
          "type": "address"
        }
      ],
      "name": "UnpausedCandidateAddOn",
      "type": "event"
    },
    {
      "inputs": [],
      "name": "DEFAULT_ADMIN_ROLE",
      "outputs": [
        {
          "internalType": "bytes32",
          "name": "",
          "type": "bytes32"
        }
      ],
      "stateMutability": "view",
      "type": "function"
    },
    {
      "inputs": [],
      "name": "MINTER_ROLE",
      "outputs": [
        {
          "internalType": "bytes32",
          "name": "",
          "type": "bytes32"
        }
      ],
      "stateMutability": "view",
      "type": "function"
    },
    {
      "inputs": [
        {
          "internalType": "address",
          "name": "_rollupConfig",
          "type": "address"
        }
      ],
      "name": "_checkL1BridgeDetail",
      "outputs": [
        {
          "internalType": "bool",
          "name": "result",
          "type": "bool"
        },
        {
          "internalType": "address",
          "name": "l1Bridge",
          "type": "address"
        },
        {
          "internalType": "address",
          "name": "portal",
          "type": "address"
        },
        {
          "internalType": "address",
          "name": "l2Ton",
          "type": "address"
        },
        {
          "internalType": "uint8",
          "name": "_type",
          "type": "uint8"
        },
        {
          "internalType": "uint8",
          "name": "status",
          "type": "uint8"
        }
      ],
      "stateMutability": "view",
      "type": "function"
    },
    {
      "inputs": [
        {
          "internalType": "address",
          "name": "account",
          "type": "address"
        }
      ],
      "name": "addAdmin",
      "outputs": [],
      "stateMutability": "nonpayable",
      "type": "function"
    },
    {
      "inputs": [
        {
          "internalType": "address",
          "name": "",
          "type": "address"
        }
      ],
      "name": "aliveImplementation",
      "outputs": [
        {
          "internalType": "bool",
          "name": "",
          "type": "bool"
        }
      ],
      "stateMutability": "view",
      "type": "function"
    },
    {
      "inputs": [
        {
          "internalType": "address",
          "name": "_oper",
          "type": "address"
        }
      ],
      "name": "candidateAddOnOfOperator",
      "outputs": [
        {
          "internalType": "address",
          "name": "",
          "type": "address"
        }
      ],
      "stateMutability": "view",
      "type": "function"
    },
    {
      "inputs": [
        {
          "internalType": "address",
          "name": "_rollupConfig",
          "type": "address"
        }
      ],
      "name": "checkL1Bridge",
      "outputs": [
        {
          "internalType": "bool",
          "name": "result",
          "type": "bool"
        },
        {
          "internalType": "address",
          "name": "l1Bridge",
          "type": "address"
        },
        {
          "internalType": "address",
          "name": "portal",
          "type": "address"
        },
        {
          "internalType": "address",
          "name": "l2Ton",
          "type": "address"
        }
      ],
      "stateMutability": "view",
      "type": "function"
    },
    {
      "inputs": [
        {
          "internalType": "address",
          "name": "_rollupConfig",
          "type": "address"
        }
      ],
      "name": "checkL1BridgeDetail",
      "outputs": [
        {
          "internalType": "bool",
          "name": "result",
          "type": "bool"
        },
        {
          "internalType": "address",
          "name": "l1Bridge",
          "type": "address"
        },
        {
          "internalType": "address",
          "name": "portal",
          "type": "address"
        },
        {
          "internalType": "address",
          "name": "l2Ton",
          "type": "address"
        },
        {
          "internalType": "uint8",
          "name": "_type",
          "type": "uint8"
        },
        {
          "internalType": "uint8",
          "name": "status",
          "type": "uint8"
        }
      ],
      "stateMutability": "view",
      "type": "function"
    },
    {
      "inputs": [
        {
          "internalType": "address",
          "name": "_rollupConfig",
          "type": "address"
        }
      ],
      "name": "checkLayer2TVL",
      "outputs": [
        {
          "internalType": "bool",
          "name": "result",
          "type": "bool"
        },
        {
          "internalType": "uint256",
          "name": "amount",
          "type": "uint256"
        }
      ],
      "stateMutability": "view",
      "type": "function"
    },
    {
      "inputs": [],
      "name": "dao",
      "outputs": [
        {
          "internalType": "address",
          "name": "",
          "type": "address"
        }
      ],
      "stateMutability": "view",
      "type": "function"
    },
    {
      "inputs": [],
      "name": "depositManager",
      "outputs": [
        {
          "internalType": "address",
          "name": "",
          "type": "address"
        }
      ],
      "stateMutability": "view",
      "type": "function"
    },
    {
      "inputs": [
        {
          "internalType": "bytes32",
          "name": "role",
          "type": "bytes32"
        }
      ],
      "name": "getRoleAdmin",
      "outputs": [
        {
          "internalType": "bytes32",
          "name": "",
          "type": "bytes32"
        }
      ],
      "stateMutability": "view",
      "type": "function"
    },
    {
      "inputs": [
        {
          "internalType": "bytes32",
          "name": "role",
          "type": "bytes32"
        },
        {
          "internalType": "address",
          "name": "account",
          "type": "address"
        }
      ],
      "name": "grantRole",
      "outputs": [],
      "stateMutability": "nonpayable",
      "type": "function"
    },
    {
      "inputs": [
        {
          "internalType": "bytes32",
          "name": "role",
          "type": "bytes32"
        },
        {
          "internalType": "address",
          "name": "account",
          "type": "address"
        }
      ],
      "name": "hasRole",
      "outputs": [
        {
          "internalType": "bool",
          "name": "",
          "type": "bool"
        }
      ],
      "stateMutability": "view",
      "type": "function"
    },
    {
      "inputs": [
        {
          "internalType": "address",
          "name": "account",
          "type": "address"
        }
      ],
      "name": "isAdmin",
      "outputs": [
        {
          "internalType": "bool",
          "name": "",
          "type": "bool"
        }
      ],
      "stateMutability": "view",
      "type": "function"
    },
    {
      "inputs": [],
      "name": "isOwner",
      "outputs": [
        {
          "internalType": "bool",
          "name": "",
          "type": "bool"
        }
      ],
      "stateMutability": "view",
      "type": "function"
    },
    {
      "inputs": [],
      "name": "l1BridgeRegistry",
      "outputs": [
        {
          "internalType": "address",
          "name": "",
          "type": "address"
        }
      ],
      "stateMutability": "view",
      "type": "function"
    },
    {
      "inputs": [],
      "name": "minimumInitialDepositAmount",
      "outputs": [
        {
          "internalType": "uint256",
          "name": "",
          "type": "uint256"
        }
      ],
      "stateMutability": "view",
      "type": "function"
    },
    {
      "inputs": [
        {
          "internalType": "address",
          "name": "owner",
          "type": "address"
        },
        {
          "internalType": "address",
          "name": "spender",
          "type": "address"
        },
        {
          "internalType": "uint256",
          "name": "amount",
          "type": "uint256"
        },
        {
          "internalType": "bytes",
          "name": "data",
          "type": "bytes"
        }
      ],
      "name": "onApprove",
      "outputs": [
        {
          "internalType": "bool",
          "name": "",
          "type": "bool"
        }
      ],
      "stateMutability": "nonpayable",
      "type": "function"
    },
    {
      "inputs": [
        {
          "internalType": "address",
          "name": "",
          "type": "address"
        }
      ],
      "name": "operatorInfo",
      "outputs": [
        {
          "internalType": "address",
          "name": "rollupConfig",
          "type": "address"
        },
        {
          "internalType": "address",
          "name": "candidateAddOn",
          "type": "address"
        }
      ],
      "stateMutability": "view",
      "type": "function"
    },
    {
      "inputs": [],
      "name": "operatorManagerFactory",
      "outputs": [
        {
          "internalType": "address",
          "name": "",
          "type": "address"
        }
      ],
      "stateMutability": "view",
      "type": "function"
    },
    {
      "inputs": [
        {
          "internalType": "address",
          "name": "_rollupConfig",
          "type": "address"
        }
      ],
      "name": "operatorOfRollupConfig",
      "outputs": [
        {
          "internalType": "address",
          "name": "",
          "type": "address"
        }
      ],
      "stateMutability": "view",
      "type": "function"
    },
    {
      "inputs": [
        {
          "internalType": "address",
          "name": "rollupConfig",
          "type": "address"
        }
      ],
      "name": "pauseCandidateAddOn",
      "outputs": [],
      "stateMutability": "nonpayable",
      "type": "function"
    },
    {
      "inputs": [],
      "name": "pauseProxy",
      "outputs": [
        {
          "internalType": "bool",
          "name": "",
          "type": "bool"
        }
      ],
      "stateMutability": "view",
      "type": "function"
    },
    {
      "inputs": [
        {
          "internalType": "uint256",
          "name": "",
          "type": "uint256"
        }
      ],
      "name": "proxyImplementation",
      "outputs": [
        {
          "internalType": "address",
          "name": "",
          "type": "address"
        }
      ],
      "stateMutability": "view",
      "type": "function"
    },
    {
      "inputs": [
        {
          "internalType": "address",
          "name": "rollupConfig",
          "type": "address"
        },
        {
          "internalType": "uint256",
          "name": "amount",
          "type": "uint256"
        },
        {
          "internalType": "bool",
          "name": "flagTon",
          "type": "bool"
        },
        {
          "internalType": "string",
          "name": "memo",
          "type": "string"
        }
      ],
      "name": "registerCandidateAddOn",
      "outputs": [],
      "stateMutability": "nonpayable",
      "type": "function"
    },
    {
      "inputs": [
        {
          "internalType": "address",
          "name": "account",
          "type": "address"
        }
      ],
      "name": "removeAdmin",
      "outputs": [],
      "stateMutability": "nonpayable",
      "type": "function"
    },
    {
      "inputs": [],
      "name": "renounceOwnership",
      "outputs": [],
      "stateMutability": "nonpayable",
      "type": "function"
    },
    {
      "inputs": [
        {
          "internalType": "bytes32",
          "name": "role",
          "type": "bytes32"
        },
        {
          "internalType": "address",
          "name": "account",
          "type": "address"
        }
      ],
      "name": "renounceRole",
      "outputs": [],
      "stateMutability": "nonpayable",
      "type": "function"
    },
    {
      "inputs": [
        {
          "internalType": "bytes32",
          "name": "role",
          "type": "bytes32"
        },
        {
          "internalType": "address",
          "name": "account",
          "type": "address"
        }
      ],
      "name": "revokeRole",
      "outputs": [],
      "stateMutability": "nonpayable",
      "type": "function"
    },
    {
      "inputs": [
        {
          "internalType": "address",
          "name": "",
          "type": "address"
        }
      ],
      "name": "rollupConfigInfo",
      "outputs": [
        {
          "internalType": "uint8",
          "name": "status",
          "type": "uint8"
        },
        {
          "internalType": "address",
          "name": "operatorManager",
          "type": "address"
        }
      ],
      "stateMutability": "view",
      "type": "function"
    },
    {
      "inputs": [
        {
          "internalType": "address",
          "name": "_oper",
          "type": "address"
        }
      ],
      "name": "rollupConfigOfOperator",
      "outputs": [
        {
          "internalType": "address",
          "name": "",
          "type": "address"
        }
      ],
      "stateMutability": "view",
      "type": "function"
    },
    {
      "inputs": [],
      "name": "seigManager",
      "outputs": [
        {
          "internalType": "address",
          "name": "",
          "type": "address"
        }
      ],
      "stateMutability": "view",
      "type": "function"
    },
    {
      "inputs": [
        {
          "internalType": "bytes4",
          "name": "",
          "type": "bytes4"
        }
      ],
      "name": "selectorImplementation",
      "outputs": [
        {
          "internalType": "address",
          "name": "",
          "type": "address"
        }
      ],
      "stateMutability": "view",
      "type": "function"
    },
    {
      "inputs": [
        {
          "internalType": "address",
          "name": "_l1BridgeRegistry",
          "type": "address"
        },
        {
          "internalType": "address",
          "name": "_operatorManagerFactory",
          "type": "address"
        },
        {
          "internalType": "address",
          "name": "_ton",
          "type": "address"
        },
        {
          "internalType": "address",
          "name": "_wton",
          "type": "address"
        },
        {
          "internalType": "address",
          "name": "_dao",
          "type": "address"
        },
        {
          "internalType": "address",
          "name": "_depositManager",
          "type": "address"
        },
        {
          "internalType": "address",
          "name": "_seigManager",
          "type": "address"
        },
        {
          "internalType": "address",
          "name": "_swapProxy",
          "type": "address"
        }
      ],
      "name": "setAddresses",
      "outputs": [],
      "stateMutability": "nonpayable",
      "type": "function"
    },
    {
      "inputs": [
        {
          "internalType": "uint256",
          "name": "_minimumInitialDepositAmount",
          "type": "uint256"
        }
      ],
      "name": "setMinimumInitialDepositAmount",
      "outputs": [],
      "stateMutability": "nonpayable",
      "type": "function"
    },
    {
      "inputs": [
        {
          "internalType": "address",
          "name": "_operatorManagerFactory",
          "type": "address"
        }
      ],
      "name": "setOperatorManagerFactory",
      "outputs": [],
      "stateMutability": "nonpayable",
      "type": "function"
    },
    {
      "inputs": [
        {
          "internalType": "address",
          "name": "_rollupConfig",
          "type": "address"
        }
      ],
      "name": "statusLayer2",
      "outputs": [
        {
          "internalType": "uint8",
          "name": "",
          "type": "uint8"
        }
      ],
      "stateMutability": "view",
      "type": "function"
    },
    {
      "inputs": [
        {
          "internalType": "bytes4",
          "name": "interfaceId",
          "type": "bytes4"
        }
      ],
      "name": "supportsInterface",
      "outputs": [
        {
          "internalType": "bool",
          "name": "",
          "type": "bool"
        }
      ],
      "stateMutability": "view",
      "type": "function"
    },
    {
      "inputs": [],
      "name": "swapProxy",
      "outputs": [
        {
          "internalType": "address",
          "name": "",
          "type": "address"
        }
      ],
      "stateMutability": "view",
      "type": "function"
    },
    {
      "inputs": [],
      "name": "ton",
      "outputs": [
        {
          "internalType": "address",
          "name": "",
          "type": "address"
        }
      ],
      "stateMutability": "view",
      "type": "function"
    },
    {
      "inputs": [
        {
          "internalType": "address",
          "name": "newAdmin",
          "type": "address"
        }
      ],
      "name": "transferAdmin",
      "outputs": [],
      "stateMutability": "nonpayable",
      "type": "function"
    },
    {
      "inputs": [
        {
          "internalType": "address",
          "name": "newAdmin",
          "type": "address"
        }
      ],
      "name": "transferOwnership",
      "outputs": [],
      "stateMutability": "nonpayable",
      "type": "function"
    },
    {
      "inputs": [
        {
          "internalType": "address",
          "name": "rollupConfig",
          "type": "address"
        }
      ],
      "name": "unpauseCandidateAddOn",
      "outputs": [],
      "stateMutability": "nonpayable",
      "type": "function"
    },
    {
      "inputs": [
        {
          "internalType": "address",
          "name": "rollupConfig",
          "type": "address"
        },
        {
          "internalType": "uint256",
          "name": "amount",
          "type": "uint256"
        }
      ],
      "name": "updateSeigniorage",
      "outputs": [],
      "stateMutability": "nonpayable",
      "type": "function"
    },
    {
      "inputs": [],
      "name": "wton",
      "outputs": [
        {
          "internalType": "address",
          "name": "",
          "type": "address"
        }
      ],
      "stateMutability": "view",
      "type": "function"
    }
  ],
  "bytecode": "0x6080806040523461001657612f31908161001c8239f35b600080fdfe608060408181526004918236101561001657600080fd5b600092833560e01c91826301ffc9a714611b9c575081631785f53c14611b6e578163248a9ca314611b4357816324d7806c14611afd5781632e0f17751461139d5781632f2ff15d14611a5057816332d89cc6146118cf57816336568abe1461183d5781634162169f146118145781634273ca161461149c5781634318dc1d146114025781634cdf7b161461139d57816350c246d61461133657816350d2a276146112f2578163550d01a3146112b457816358bf884f1461126157816363a8fd891461123f5781636c7ac9d8146112165781636ec4be90146111ed5781636fb7f558146111c4578163704802751461110f578163715018a6146110e957816372898c23146110a357816375829def1461108657816379a0e6ea1461104a5781637bae05f11461100b57816389c0db6214610d5f5781638d62d94914610d365781638f32d59b14610d0357816391d1485414610cbc578163a217fddf14610ca1578163a37d6aa714610c66578163aba8e57714610c3d578163b911135f14610c0a578163c04a0a42146108ec578163c5f16b89146107ab578163c845226514610726578163cc48b947146106fd578163cf8f9110146106d4578163d523c077146105c9578163d53913931461058e578163d547741f1461055257838263d733cfd0146103df57508163e9d6ec4f146103c0578163f2fde38b14610261575063ff600b691461022157600080fd5b3461025d57602036600319011261025d576020916001600160a01b0390829082610249611c1c565b168152600f8552205460081c169051908152f35b5080fd5b919050346103bc576020806003193601126103b85761027e611c1c565b61028f61028a33611c7b565b61220c565b61029b61028a33611c7b565b6001600160a01b03169283156103775783331461033d5750838052600581526102c960018386200154611cb8565b83805260058152818420838552815260ff8285205416156102f2575b836102ef33612064565b80f35b8380526005815281842083855290528220805460ff191660011790553390827f2f8788117e7eff1d82e926ec794901d17c78024a50270940304540a733656f0d8180a43880806102e5565b915162461bcd60e51b815291820152601660248201527520b1b1b2b9b9b4b136329d1039b0b6b29030b236b4b760511b6044820152606490fd5b915162461bcd60e51b815291820152601860248201527f41636365737369626c653a207a65726f206164647265737300000000000000006044820152606490fd5b8380fd5b8280fd5b50503461025d578160031936011261025d57602090600e549051908152f35b80843461054f57610100908160031936011261054b576103fd611c1c565b610405611c37565b6001600160a01b03926044358481169081900361054757606435858116809103610543576084359186831680930361053f5760a4359387851680950361053b5760c435958887168097036105375760e43597898916809903610533578989916104a660ff7f617f1cba5d7b9d5d3c81f0d5c78720ec2be227878bac84c0851b70e4cf61cb089f8080899252600560205281812033825260205220541661220c565b16996bffffffffffffffffffffffff60a01b928b84600654161760065516918281600754161760075584816008541617600855858160095416176009558681600a541617600a558781600b541617600b558881600c541617600c55600d541617600d55815198895260208901528701526060860152608085015260a084015260c083015260e0820152a180f35b8b80fd5b8a80fd5b8980fd5b8880fd5b8780fd5b8680fd5b5050fd5b50fd5b919050346103bc57806003193601126103bc576102ef91356105896001610577611c37565b93838752600560205286200154611cb8565b612153565b50503461025d578160031936011261025d57602090517ff0887ba65ee2024ea881d91b74c2450ef19e1557f03bed3ea9f16b037cbe2dc98152f35b919050346103bc5760203660031901126103bc576105e5611c1c565b6006546001600160a01b03906105fe9082163314612263565b6011549361060f60ff8616156122ae565b600160ff1980961617601155818316808752600f60205284872091600286519361063885611ff4565b549385602060ff871692838152019560081c168552036106c657508652600f6020908152848720805487166001908117909155915183168752601081528487209091015493516001600160a01b03938416815293909116909116908201527faf0a20fb16d60a15e38b6cd70fa0cce0bd2a744265663dfcbc90a02b360caf8090604090a16011541660115580f35b855163c84d787560e01b8152fd5b50503461025d578160031936011261025d5760065490516001600160a01b039091168152602090f35b50503461025d578160031936011261025d5760085490516001600160a01b039091168152602090f35b50503461025d57602036600319011261025d5760207f2342c0559c82fec746d047e08479a8b46bf45d4265f1db1c3a685b542c06f6a291610765611c1c565b84805260058352818520338652835261078360ff838720541661220c565b600780546001600160a01b0319166001600160a01b039290921691821790559051908152a180f35b919050346103bc57806003193601126103bc576107c6611c1c565b600c546001600160a01b0390811633036108a9578491818084936009541692168352600f6020528483205460081c16828551602081019263a9059cbb60e01b8452602482015260243560448201526044815261082181612026565b51925af161082d6122e0565b81610872575b501561083d578280f35b906020606492519162461bcd60e51b8352820152600f60248201526e1514905394d1915497d19052531151608a1b6044820152fd5b8051801592508215610887575b505038610833565b81925090602091810103126103b85760206108a291016125f9565b388061087f565b825162461bcd60e51b8152602081860152601b60248201527f73656e646572206973206e6f74206120536569674d616e6167657200000000006044820152606490fd5b83833461025d57608036600319011261025d57610907611c1c565b602493604435918535918315158403610c065760643567ffffffffffffffff8111610547576109399036908301611c4d565b959094610945846125d7565b8615610bf8576001600160a01b038481168952600f6020908152838a20549092919060081c8116610be25761098461097e368b8b612310565b87612629565b5015610bcc5760095481169115610b895760085416600e548710610b73576109ae87303384612e43565b8351636eb1769f60e11b8152308682019081526001600160a01b03841660208201528490829081906040010381855afa908115610b6957918885928d948591610b34575b5010610ab4575b5090918b85518094819363e34869d760e01b83528b8a8401525af1918215610aaa578992610a74575b505015610a5e5750633b9aca0092838102938185041490151715610a4c57506102ef9495506129f3565b634e487b7160e01b8652601190528585fd5b9060078892519163472ed10360e01b8352820152fd5b90809250813d8311610aa3575b610a8b8183612042565b8101031261054357610a9c906125f9565b8980610a22565b503d610a81565b83513d8b823e3d90fd5b855163095ea7b360e01b8152878101859052600019818f015292839160449183915af18015610b2a579183918b93610af0575b929190926109f9565b8281939294503d8311610b23575b610b088183612042565b8101031261053b578991610b1c84926125f9565b508c610ae7565b503d610afe565b84513d8c823e3d90fd5b93929450505081813d8311610b62575b610b4e8183612042565b81010312610537578a91888592518f6109f2565b503d610b44565b85513d8d823e3d90fd5b835163472ed10360e01b81526006818701528b90fd5b509892919050600e54633b9aca00860410610bb857505050610bb3826102ef969730903390612e43565b6129f3565b600690519163472ed10360e01b8352820152fd5b835163472ed10360e01b81526005818701528b90fd5b835163472ed10360e01b81528086018690528b90fd5b505163111dc0fd60e31b8152fd5b8580fd5b9050346103bc5760203660031901126103bc5735825260016020908152918190205490516001600160a01b039091168152f35b50503461025d578160031936011261025d5760075490516001600160a01b039091168152602090f35b50503461025d57602036600319011261025d576020916001600160a01b0390829082610c90611c1c565b168152601085522054169051908152f35b50503461025d578160031936011261025d5751908152602090f35b9050346103bc57816003193601126103bc578160209360ff92610cdd611c37565b90358252600586528282206001600160a01b039091168252855220549151911615158152f35b50503461025d578160031936011261025d5760ff8183806020955260058552818120338252855220541690519015158152f35b50503461025d578160031936011261025d5760095490516001600160a01b039091168152602090f35b90508234610e755760208060031936011261025d57610d7c611c1c565b918093819360018060a01b0390818581600654169260248b518094819363391e3b3760e01b8352169586898301525afa9081156110015791869185938791610fc0575b5060ff1660018103610ecc5750895163078f29cf60e01b815292839182905afa908115610ec2579082918591610e8a575b50169081610e0a575b505050505b83519215158352820152f35b84965060249192949395506008541693875194859384926370a0823160e01b84528301525afa918215610e7f578092610e4c575b505060019184808080610df9565b9091508282813d8311610e78575b610e648183612042565b81010312610e755750518380610e3e565b80fd5b503d610e5a565b8451903d90823e3d90fd5b809250868092503d8311610ebb575b610ea38183612042565b810103126103b857610eb58291612355565b89610df0565b503d610e99565b88513d86823e3d90fd5b600291935014610ee1575b5050505050610dfe565b8851630a49cb0360e01b8152918290859082905afa908115610ec2579082918591610f88575b50169081610f16575b84610ed7565b84965060249192949395506008541693875194859384926370a0823160e01b84528301525afa918215610e7f578092610f58575b505060019184808080610f10565b9091508282813d8311610f81575b610f708183612042565b81010312610e755750518380610f4a565b503d610f66565b809250868092503d8311610fb9575b610fa18183612042565b810103126103b857610fb38291612355565b89610f07565b503d610f97565b92809294508391503d8311610ffa575b610fda8183612042565b81010312610ff657839160ff610ff08893612347565b90610dbf565b8480fd5b503d610fd0565b89513d87823e3d90fd5b50503461025d57602036600319011261025d576020916001600160a01b0390600190839083611038611c1c565b16815260108652200154169051908152f35b50503461025d57602036600319011261025d5760209160ff9082906001600160a01b03611075611c1c565b168152600f85522054169051908152f35b919050346103bc576020806003193601126103b85761028f611c1c565b828434610e75576020366003190112610e75576001600160a01b03908290826110ca611c1c565b168152600f60205220549082519160ff8116835260081c166020820152f35b8334610e755780600319360112610e755761110661028a33611c7b565b6102ef33612064565b50503461025d57602090816003193601126103bc5761112c611c1c565b9161113961028a33611c7b565b8380526005815261114f60018386200154611cb8565b838052600581528184206001600160a01b039093168085529281528184205460ff161561117a578380f35b8380526005815281842083855290528220805460ff191660011790553390827f2f8788117e7eff1d82e926ec794901d17c78024a50270940304540a733656f0d8180a43880808380f35b50503461025d578160031936011261025d57600c5490516001600160a01b039091168152602090f35b50503461025d578160031936011261025d57600d5490516001600160a01b039091168152602090f35b50503461025d578160031936011261025d57600b5490516001600160a01b039091168152602090f35b50503461025d578160031936011261025d5760ff602092541690519015158152f35b50503461025d57602036600319011261025d57608090611287611282611c1c565b612369565b5050845193151584526001600160a01b039283166020850152908216938301939093529091166060820152f35b50503461025d57602036600319011261025d5760209160ff9082906001600160a01b036112df611c1c565b1681526002855220541690519015158152f35b9050346103bc5760203660031901126103bc573563ffffffff60e01b81168091036103bc57825260036020908152918190205490516001600160a01b039091168152f35b828434610e75576020366003190112610e75576001600160a01b039061139990839083611361611c1c565b168152601060205220916001818454169301541692519283928390602090939293604083019460018060a01b03809216845216910152565b0390f35b50503461025d57602036600319011261025d57611399906113bf611282611c1c565b955194151585526001600160a01b0393841660208601529183166040850152909116606083015260ff908116608083015290911660a082015290819060c0820190565b919050346103bc5760203660031901126103bc57813591838052600560205281842033855260205261143960ff838620541661220c565b82600e54146114745750816020917f50e01964a144ee7e40d80d0792ff2641558654ef906fd81502421f22bf6ca92c93600e5551908152a180f35b606491519062461bcd60e51b825260208183015260248201526373616d6560e01b6044820152fd5b83833461025d57608036600319011261025d576114b7611c1c565b6114bf611c37565b9260443560643567ffffffffffffffff81116103bc576114e29036908801611c4d565b600854336001600160a01b039182161497919491881580611806575b6117ef5781309116036117d85760148511156117c1576014833560601c930194601319019561152c846125d7565b838352602098600f8a52828985205460081c166117aa57611557611551368a8a612310565b86612629565b5015611793571561174e578160095416916008541690600e548610611737578561158391309084612e43565b8751636eb1769f60e11b815230818c019081526001600160a01b03841660208201528a90829081906040010381855afa90811561172d5790869185916116fc575b501061168f575b50878460248b858b51958694859363e34869d760e01b85528401525af1908115611685578291611650575b501561163957633b9aca0092838102938185041490151715611626575061161f949596506129f3565b5160018152f35b634e487b7160e01b815260118852602490fd5b855163472ed10360e01b81526007818a0152602490fd5b90508781813d831161167e575b6116678183612042565b8101031261025d57611678906125f9565b896115f6565b503d61165d565b87513d84823e3d90fd5b888260448c868c51958694859363095ea7b360e01b855284015260001960248401525af180156116f257156115cb578881813d83116116eb575b6116d38183612042565b810103126103bc576116e4906125f9565b50896115cb565b503d6116c9565b88513d85823e3d90fd5b8092508b8092503d8311611726575b6117158183612042565b810103126103b8578590518c6115c4565b503d61170b565b89513d86823e3d90fd5b885163472ed10360e01b81526006818d0152602490fd5b91506009541697600e54633b9aca0085041061177c575082611777969798610bb3923091612e43565b61161f565b602490600688519163472ed10360e01b8352820152fd5b885163472ed10360e01b81526005818d0152602490fd5b885163472ed10360e01b8152808c018c9052602490fd5b86516350f1c44960e11b81526003818b0152602490fd5b86516350f1c44960e11b81526002818b0152602490fd5b87516350f1c44960e11b81526001818c0152602490fd5b5081600954163314156114fe565b50503461025d578160031936011261025d57600a5490516001600160a01b039091168152602090f35b8391503461025d578260031936011261025d57611858611c37565b90336001600160a01b0383160361187457906102ef9135612153565b608490602085519162461bcd60e51b8352820152602f60248201527f416363657373436f6e74726f6c3a2063616e206f6e6c792072656e6f756e636560448201526e103937b632b9903337b91039b2b63360891b6064820152fd5b9050346103bc57602091826003193601126103b8576118ec611c1c565b6006546001600160a01b039491906119079086163314612263565b6011549461191860ff8716156122ae565b600160ff1980971617601155808216808852600f8452848820600186519161193f83611ff4565b5491848760ff851692838152019360081c16835203611a405790827f14280f6eab1c847215d9714b0aa6711ad26e21304f06a85a46ad07a1f11e8370925116895260108552826001878b20015416938491611999836125d7565b8a52600f8652868a2080548a16600217905586516001600160a01b03918216815291166020820152604090a1600c541691835190810191634a39e57f60e11b83526024820152602481526060810181811067ffffffffffffffff821117611a2d57845251869283929083905af1611a0e6122e0565b5015611a205750506011541660115580f35b516316a6ca0960e21b8152fd5b634e487b7160e01b885260418652602488fd5b855163c84d787560e01b81528790fd5b9050346103bc57816003193601126103bc573590611a6c611c37565b908284526005602052611a8460018286200154611cb8565b828452600560209081528185206001600160a01b039093168086529290528084205460ff1615611ab2578380f35b82845260056020528084208285526020528320600160ff1982541617905533917f2f8788117e7eff1d82e926ec794901d17c78024a50270940304540a733656f0d8480a43880808380f35b50503461025d57602036600319011261025d5760ff81602093611b1e611c1c565b818052600586528282206001600160a01b039091168252855220549151911615158152f35b9050346103bc5760203660031901126103bc5781602093600192358152600585522001549051908152f35b8334610e75576020366003190112610e75576102ef611b8b611c1c565b611b9761028a33611c7b565b612064565b849184346103b85760203660031901126103b85781359063ffffffff60e01b8216809203610ff657602094637965db0b60e01b8314938415611be3575b5050505015158152f35b6301ffc9a760e01b8414945091929091908415611c08575b5050505083808080611bd9565b60ff94508252855220541683808080611bfb565b600435906001600160a01b0382168203611c3257565b600080fd5b602435906001600160a01b0382168203611c3257565b9181601f84011215611c325782359167ffffffffffffffff8311611c325760208381860195010111611c3257565b6001600160a01b031660009081527f05b8ccbb9d4d8fb16ea74ce3c29a41f1b461fbdaff4714a0d9a8eb05499746bc602052604090205460ff1690565b60009080825260209060058252604090818420338552835260ff828520541615611ce25750505050565b815193336060860167ffffffffffffffff811187821017611fbd578452602a86528486019284368537865115611ed55760308453865191600192831015611fa9576078602189015360295b838111611f3f5750611efd57845191611d4583612026565b60428352868301936060368637835115611ee957603085538351821015611ee95790607860218501536041915b818311611e7b57505050611e395792611e076048611df89794611e2b946044989785519a8b93611dcf8b86019a7f416363657373436f6e74726f6c3a206163636f756e74200000000000000000008c525180926037880190611fd1565b8401917001034b99036b4b9b9b4b733903937b6329607d1b603784015251809386840190611fd1565b01036028810189520187612042565b5194859362461bcd60e51b8552600485015251809281602486015285850190611fd1565b601f01601f19168101030190fd5b60648585519062461bcd60e51b825280600483015260248201527f537472696e67733a20686578206c656e67746820696e73756666696369656e746044820152fd5b909192600f81166010811015611ed5576f181899199a1a9b1b9c1cb0b131b232b360811b901a611eab85876121e5565b5360041c928015611ec157600019019190611d72565b634e487b7160e01b82526011600452602482fd5b634e487b7160e01b83526032600452602483fd5b634e487b7160e01b81526032600452602490fd5b60648686519062461bcd60e51b825280600483015260248201527f537472696e67733a20686578206c656e67746820696e73756666696369656e746044820152fd5b90600f81166010811015611f95576f181899199a1a9b1b9c1cb0b131b232b360811b901a611f6d838b6121e5565b5360041c908015611f815760001901611d2d565b634e487b7160e01b85526011600452602485fd5b634e487b7160e01b86526032600452602486fd5b634e487b7160e01b84526032600452602484fd5b634e487b7160e01b83526041600452602483fd5b60005b838110611fe45750506000910152565b8181015183820152602001611fd4565b6040810190811067ffffffffffffffff82111761201057604052565b634e487b7160e01b600052604160045260246000fd5b6080810190811067ffffffffffffffff82111761201057604052565b90601f8019910116810190811067ffffffffffffffff82111761201057604052565b6001600160a01b03163381036120f65760008181527f05b8ccbb9d4d8fb16ea74ce3c29a41f1b461fbdaff4714a0d9a8eb05499746bc602052604081205490919060ff166120b0575050565b8180526005602052604082208183526020526040822060ff19815416905533917ff6391f5c32d9c69d2a47ea670b442974b53935d1edc7fd64eb21e047a839171b8180a4565b60405162461bcd60e51b815260206004820152602f60248201527f416363657373436f6e74726f6c3a2063616e206f6e6c792072656e6f756e636560448201526e103937b632b9903337b91039b2b63360891b6064820152608490fd5b906000918083526005602052604083209160018060a01b03169182845260205260ff60408420541661218457505050565b8083526005602052604083208284526020526040832060ff1981541690557ff6391f5c32d9c69d2a47ea670b442974b53935d1edc7fd64eb21e047a839171b339380a4565b67ffffffffffffffff811161201057601f01601f191660200190565b9081518110156121f6570160200190565b634e487b7160e01b600052603260045260246000fd5b1561221357565b60405162461bcd60e51b815260206004820152602260248201527f41636365737369626c653a2043616c6c6572206973206e6f7420616e2061646d60448201526134b760f11b6064820152608490fd5b1561226a57565b606460405162461bcd60e51b815260206004820152602060248201527f73656e646572206973206e6f742061204c3142726964676552656769737472796044820152fd5b156122b557565b606460405162461bcd60e51b81526020600482015260046024820152636c6f636b60e01b6044820152fd5b3d1561230b573d906122f1826121c9565b916122ff6040519384612042565b82523d6000602084013e565b606090565b92919261231c826121c9565b9161232a6040519384612042565b829481845281830111611c32578281602093846000960137010152565b519060ff82168203611c3257565b51906001600160a01b0382168203611c3257565b6006546040805163391e3b3760e01b81526001600160a01b03938416600482018190526000958695869586959082169386929060209081886024818a5afa9788156125cd578598612596575b5087818652600f835260ff858720541697600189146123d8575b50505050505050565b855163078f29cf60e01b8152908482600481875afa91821561258c578892612555575b508582166124a4575b505060ff16600214612418575b80806123cf565b9080600492859d96979d5193848092630a49cb0360e01b82525afa93841561249b57508593612463575b50508116612458575050955b3880808080612411565b91509694509361244e565b9080929350813d8311612494575b61247b8183612042565b810103126103b85761248c90612355565b903880612442565b503d612471565b513d87823e3d90fd5b60ff83166001811490811561254a575b506124d6575b50848b166124c9575b80612404565b60019d509b5060ff6124c3565b6024919b5084908751928380926312dea97560e21b82528760048301525afa90811561254057879161250b575b5099386124ba565b90508381813d8311612539575b6125228183612042565b810103126105475761253390612355565b38612503565b503d612518565b86513d89823e3d90fd5b6002915014386124b4565b9091508481813d8311612585575b61256d8183612042565b810103126105435761257e90612355565b90386123fb565b503d612563565b87513d8a823e3d90fd5b9097508181813d83116125c6575b6125ae8183612042565b81010312610ff6576125bf90612347565b96386123b5565b503d6125a4565b84513d87823e3d90fd5b6001600160a01b0316156125e757565b604051633efa09af60e01b8152600490fd5b51908115158203611c3257565b60208151910151906020811061261a575090565b6000199060200360031b1b1690565b916000926000928360018060a01b03918260065416926040948186519163f5e9b26b60e01b835216928482602481600499888b8301525afa9081156128c95785928692612919575b5061267e61268491612606565b91612606565b0361290c5760ff166001810361279457508451809263078f29cf60e01b8252818660209586935afa90811561278a579082918591612752575b501690816126ce575b505050505050565b829496985060249192939597506008541695875196879384926370a0823160e01b84528301525afa93841561274757508193612716575b5050506001913880808080806126c6565b9091809350813d8311612740575b61272e8183612042565b81010312610e75575051388080612705565b503d612724565b51913d9150823e3d90fd5b809250848092503d8311612783575b61276b8183612042565b810103126103b85761277d8291612355565b386126bd565b503d612761565b86513d86823e3d90fd5b6002146127a3575b5050505050565b84519063078f29cf60e01b825260209283838781845afa9283156128c9578691859187956128d3575b508851630a49cb0360e01b815292839182905afa9081156128c9579082918691612891575b501691818315159182612885575b505061280c575b5061279c565b829496985060249192939597506008541695875196879384926370a0823160e01b84528301525afa93841561274757508193612854575b505050600191388080808080612806565b9091809350813d831161287e575b61286c8183612042565b81010312610e75575051388080612843565b503d612862565b161515905081386127ff565b809250858092503d83116128c2575b6128aa8183612042565b81010312610ff6576128bc8291612355565b386127f1565b503d6128a0565b87513d87823e3d90fd5b9250935081813d8311612905575b6128eb8183612042565b81010312610ff657836128fe8792612355565b93386127cc565b503d6128e1565b5050509450505090508190565b925090503d8086843e61292c8184612042565b82019160a081840312610c065761294281612347565b9061294f60208201612355565b5061295b8982016125f9565b50612968606082016125f9565b5060808101519067ffffffffffffffff8211610543570183601f8201121561054757805190612996826121c9565b946129a38b519687612042565b8286526020838301011161054357916129c961267e926126849460208089019101611fd1565b93929150612671565b908060209392818452848401376000828201840152601f01601f1916010190565b9092919260018060a01b039081600754166040938385519163f802ead360e01b83521693600496858884015260209560249987858c816000809a5af1948515612e39578695612e02575b50838516908115612dec5781875260108952848a88205416612dd6579084939291898b8d8f98600a5416908b8351809b81958294634892afd360e01b845283015288612a8d604484018d8b6129d2565b9183015203925af1958615612dcc57908a8c8a938499612d83575b50908780838b945193612aba85611ff4565b898552888382870197169889885252601090528d20925116916bffffffffffffffffffffffff60a01b9283825416178155600101925116908254161790558b51612b0381611ff4565b600181528b8101848152858b52600f8d528d8b20915160ff16825491600160a81b6101009003905160081b16916affffffffffffffffffffff60a81b16171790558b5194859485528a8c8601528c850160a0905260a0850190612b65926129d2565b9160608401526080830152037f3685763fd42e5061ff53b001782ad759eafbc93a460b368a4ce42228ec45da9891a1600954600b548851636eb1769f60e11b8152308b82019081529184166001600160a01b0381166020840152928416918990829081906040010381855afa908115612d7957878d938a8c99989796948f948491612d38575b5010612cb0575b5050505050600b5416908489612c388a5198899687958694638340f54960e01b8652850160409194939294606082019560018060a01b0380921683521660208201520152565b03925af1928315612ca4578193612c6b575b50505015612c5757505050565b600390519163472ed10360e01b8352820152fd5b9091809350813d8311612c9d575b612c838183612042565b81010312610e755750612c95906125f9565b388080612c4a565b503d612c79565b508351903d90823e3d90fd5b90604492918d99959697989951968795869463095ea7b360e01b8652850152600019908401525af18015612d2e57908794939291612cf3575b808a878d93612bf2565b9091929381813d8311612d27575b612d0b8183612042565b81010312610ff65790612d20879493926125f9565b5038612ce9565b503d612d01565b88513d87823e3d90fd5b959798999a9450505093505081813d8311612d72575b612d588183612042565b8101031261054757918a878d938a8c999897965138612beb565b503d612d4e565b8a513d89823e3d90fd5b9350509092939495965081813d8311612dc5575b612da18183612042565b810103126105435785949392918b8b87612dbb8c95612355565b9950919091612aa8565b503d612d97565b8b513d8a823e3d90fd5b895163472ed10360e01b81526002818d01528c90fd5b895163472ed10360e01b81526001818d01528c90fd5b9094508781813d8311612e32575b612e1a8183612042565b81010312610c0657612e2b90612355565b9338612a3d565b503d612e10565b89513d88823e3d90fd5b6040516323b872dd60e01b602082019081526001600160a01b039384166024830152939092166044830152606480830194909452928152600092839290918390612e8e608482612042565b51926001600160a01b03165af1612ea36122e0565b81612eed575b5015612eb157565b60405162461bcd60e51b81526020600482015260146024820152731514905394d1915497d19493d357d1905253115160621b6044820152606490fd5b8051801592508215612f02575b505038612ea9565b8192509060209181010312611c32576020612f1d91016125f9565b3880612efa56fea164736f6c6343000813000a",
  "linkReferences": {},
  "deployedLinkReferences": {}
}