{
  "_format": "hh-sol-artifact-1",
  "contractName": "Layer2ManagerV1_1",
  "sourceName": "contracts/layer2/Layer2ManagerV1_1.sol",
  "abi": [
    {
      "inputs": [],
      "stateMutability": "nonpayable",
      "type": "constructor"
    },
    {
      "inputs": [],
      "name": "ExcludeError",
      "type": "error"
    },
    {
      "inputs": [
        {
          "internalType": "uint256",
          "name": "x",
          "type": "uint256"
        }
      ],
      "name": "OnApproveError",
      "type": "error"
    },
    {
      "inputs": [
        {
          "internalType": "uint256",
          "name": "x",
          "type": "uint256"
        }
      ],
      "name": "RegisterError",
      "type": "error"
    },
    {
      "inputs": [],
      "name": "StatusError",
      "type": "error"
    },
    {
      "inputs": [],
      "name": "ZeroAddressError",
      "type": "error"
    },
    {
      "inputs": [],
      "name": "ZeroBytesError",
      "type": "error"
    },
    {
      "anonymous": false,
      "inputs": [
        {
          "indexed": false,
          "internalType": "address",
          "name": "rollupConfig",
          "type": "address"
        },
        {
          "indexed": false,
          "internalType": "address",
          "name": "candidateAddOn",
          "type": "address"
        }
      ],
      "name": "PausedCandidateAddOn",
      "type": "event"
    },
    {
      "anonymous": false,
      "inputs": [
        {
          "indexed": false,
          "internalType": "address",
          "name": "rollupConfig",
          "type": "address"
        },
        {
          "indexed": false,
          "internalType": "uint256",
          "name": "wtonAmount",
          "type": "uint256"
        },
        {
          "indexed": false,
          "internalType": "string",
          "name": "memo",
          "type": "string"
        },
        {
          "indexed": false,
          "internalType": "address",
          "name": "operator",
          "type": "address"
        },
        {
          "indexed": false,
          "internalType": "address",
          "name": "candidateAddOn",
          "type": "address"
        }
      ],
      "name": "RegisteredCandidateAddOn",
      "type": "event"
    },
    {
      "anonymous": false,
      "inputs": [
        {
          "indexed": true,
          "internalType": "bytes32",
          "name": "role",
          "type": "bytes32"
        },
        {
          "indexed": true,
          "internalType": "bytes32",
          "name": "previousAdminRole",
          "type": "bytes32"
        },
        {
          "indexed": true,
          "internalType": "bytes32",
          "name": "newAdminRole",
          "type": "bytes32"
        }
      ],
      "name": "RoleAdminChanged",
      "type": "event"
    },
    {
      "anonymous": false,
      "inputs": [
        {
          "indexed": true,
          "internalType": "bytes32",
          "name": "role",
          "type": "bytes32"
        },
        {
          "indexed": true,
          "internalType": "address",
          "name": "account",
          "type": "address"
        },
        {
          "indexed": true,
          "internalType": "address",
          "name": "sender",
          "type": "address"
        }
      ],
      "name": "RoleGranted",
      "type": "event"
    },
    {
      "anonymous": false,
      "inputs": [
        {
          "indexed": true,
          "internalType": "bytes32",
          "name": "role",
          "type": "bytes32"
        },
        {
          "indexed": true,
          "internalType": "address",
          "name": "account",
          "type": "address"
        },
        {
          "indexed": true,
          "internalType": "address",
          "name": "sender",
          "type": "address"
        }
      ],
      "name": "RoleRevoked",
      "type": "event"
    },
    {
      "anonymous": false,
      "inputs": [
        {
          "indexed": false,
          "internalType": "address",
          "name": "_l2Register",
          "type": "address"
        },
        {
          "indexed": false,
          "internalType": "address",
          "name": "_operatorManagerFactory",
          "type": "address"
        },
        {
          "indexed": false,
          "internalType": "address",
          "name": "_ton",
          "type": "address"
        },
        {
          "indexed": false,
          "internalType": "address",
          "name": "_wton",
          "type": "address"
        },
        {
          "indexed": false,
          "internalType": "address",
          "name": "_dao",
          "type": "address"
        },
        {
          "indexed": false,
          "internalType": "address",
          "name": "_depositManager",
          "type": "address"
        },
        {
          "indexed": false,
          "internalType": "address",
          "name": "_seigManager",
          "type": "address"
        },
        {
          "indexed": false,
          "internalType": "address",
          "name": "_swapProxy",
          "type": "address"
        }
      ],
      "name": "SetAddresses",
      "type": "event"
    },
    {
      "anonymous": false,
      "inputs": [
        {
          "indexed": false,
          "internalType": "uint256",
          "name": "_minimumInitialDepositAmount",
          "type": "uint256"
        }
      ],
      "name": "SetMinimumInitialDepositAmount",
      "type": "event"
    },
    {
      "anonymous": false,
      "inputs": [
        {
          "indexed": false,
          "internalType": "address",
          "name": "_operatorManagerFactory",
          "type": "address"
        }
      ],
      "name": "SetOperatorManagerFactory",
      "type": "event"
    },
    {
      "anonymous": false,
      "inputs": [
        {
          "indexed": false,
          "internalType": "address",
          "name": "rollupConfig",
          "type": "address"
        },
        {
          "indexed": false,
          "internalType": "address",
          "name": "candidateAddOn",
          "type": "address"
        }
      ],
      "name": "UnpausedCandidateAddOn",
      "type": "event"
    },
    {
      "inputs": [],
      "name": "DEFAULT_ADMIN_ROLE",
      "outputs": [
        {
          "internalType": "bytes32",
          "name": "",
          "type": "bytes32"
        }
      ],
      "stateMutability": "view",
      "type": "function"
    },
    {
      "inputs": [],
      "name": "MINTER_ROLE",
      "outputs": [
        {
          "internalType": "bytes32",
          "name": "",
          "type": "bytes32"
        }
      ],
      "stateMutability": "view",
      "type": "function"
    },
    {
      "inputs": [
        {
          "internalType": "address",
          "name": "_rollupConfig",
          "type": "address"
        }
      ],
      "name": "_checkL1BridgeDetail",
      "outputs": [
        {
          "internalType": "bool",
          "name": "result",
          "type": "bool"
        },
        {
          "internalType": "address",
          "name": "l1Bridge",
          "type": "address"
        },
        {
          "internalType": "address",
          "name": "portal",
          "type": "address"
        },
        {
          "internalType": "address",
          "name": "l2Ton",
          "type": "address"
        },
        {
          "internalType": "uint8",
          "name": "_type",
          "type": "uint8"
        },
        {
          "internalType": "uint8",
          "name": "status",
          "type": "uint8"
        },
        {
          "internalType": "bool",
          "name": "rejectedSeigs",
          "type": "bool"
        },
        {
          "internalType": "bool",
          "name": "rejectedL2Deposit",
          "type": "bool"
        }
      ],
      "stateMutability": "view",
      "type": "function"
    },
    {
      "inputs": [
        {
          "internalType": "address",
          "name": "account",
          "type": "address"
        }
      ],
      "name": "addAdmin",
      "outputs": [],
      "stateMutability": "nonpayable",
      "type": "function"
    },
    {
      "inputs": [
        {
          "internalType": "address",
          "name": "",
          "type": "address"
        }
      ],
      "name": "aliveImplementation",
      "outputs": [
        {
          "internalType": "bool",
          "name": "",
          "type": "bool"
        }
      ],
      "stateMutability": "view",
      "type": "function"
    },
    {
      "inputs": [
        {
          "internalType": "address",
          "name": "_rollupConfig",
          "type": "address"
        },
        {
          "internalType": "string",
          "name": "_name",
          "type": "string"
        }
      ],
      "name": "availableRegister",
      "outputs": [
        {
          "internalType": "bool",
          "name": "result",
          "type": "bool"
        },
        {
          "internalType": "uint256",
          "name": "amount",
          "type": "uint256"
        }
      ],
      "stateMutability": "view",
      "type": "function"
    },
    {
      "inputs": [
        {
          "internalType": "address",
          "name": "_oper",
          "type": "address"
        }
      ],
      "name": "candidateAddOnOfOperator",
      "outputs": [
        {
          "internalType": "address",
          "name": "",
          "type": "address"
        }
      ],
      "stateMutability": "view",
      "type": "function"
    },
    {
      "inputs": [
        {
          "internalType": "address",
          "name": "_rollupConfig",
          "type": "address"
        }
      ],
      "name": "checkL1Bridge",
      "outputs": [
        {
          "internalType": "bool",
          "name": "result",
          "type": "bool"
        },
        {
          "internalType": "address",
          "name": "l1Bridge",
          "type": "address"
        },
        {
          "internalType": "address",
          "name": "portal",
          "type": "address"
        },
        {
          "internalType": "address",
          "name": "l2Ton",
          "type": "address"
        }
      ],
      "stateMutability": "view",
      "type": "function"
    },
    {
      "inputs": [
        {
          "internalType": "address",
          "name": "_rollupConfig",
          "type": "address"
        }
      ],
      "name": "checkL1BridgeDetail",
      "outputs": [
        {
          "internalType": "bool",
          "name": "result",
          "type": "bool"
        },
        {
          "internalType": "address",
          "name": "l1Bridge",
          "type": "address"
        },
        {
          "internalType": "address",
          "name": "portal",
          "type": "address"
        },
        {
          "internalType": "address",
          "name": "l2Ton",
          "type": "address"
        },
        {
          "internalType": "uint8",
          "name": "_type",
          "type": "uint8"
        },
        {
          "internalType": "uint8",
          "name": "status",
          "type": "uint8"
        },
        {
          "internalType": "bool",
          "name": "rejectedSeigs",
          "type": "bool"
        },
        {
          "internalType": "bool",
          "name": "rejectedL2Deposit",
          "type": "bool"
        }
      ],
      "stateMutability": "view",
      "type": "function"
    },
    {
      "inputs": [
        {
          "internalType": "address",
          "name": "_rollupConfig",
          "type": "address"
        }
      ],
      "name": "checkLayer2TVL",
      "outputs": [
        {
          "internalType": "bool",
          "name": "result",
          "type": "bool"
        },
        {
          "internalType": "uint256",
          "name": "amount",
          "type": "uint256"
        }
      ],
      "stateMutability": "view",
      "type": "function"
    },
    {
      "inputs": [],
      "name": "dao",
      "outputs": [
        {
          "internalType": "address",
          "name": "",
          "type": "address"
        }
      ],
      "stateMutability": "view",
      "type": "function"
    },
    {
      "inputs": [],
      "name": "depositManager",
      "outputs": [
        {
          "internalType": "address",
          "name": "",
          "type": "address"
        }
      ],
      "stateMutability": "view",
      "type": "function"
    },
    {
      "inputs": [
        {
          "internalType": "bytes32",
          "name": "role",
          "type": "bytes32"
        }
      ],
      "name": "getRoleAdmin",
      "outputs": [
        {
          "internalType": "bytes32",
          "name": "",
          "type": "bytes32"
        }
      ],
      "stateMutability": "view",
      "type": "function"
    },
    {
      "inputs": [
        {
          "internalType": "bytes32",
          "name": "role",
          "type": "bytes32"
        },
        {
          "internalType": "address",
          "name": "account",
          "type": "address"
        }
      ],
      "name": "grantRole",
      "outputs": [],
      "stateMutability": "nonpayable",
      "type": "function"
    },
    {
      "inputs": [
        {
          "internalType": "bytes32",
          "name": "role",
          "type": "bytes32"
        },
        {
          "internalType": "address",
          "name": "account",
          "type": "address"
        }
      ],
      "name": "hasRole",
      "outputs": [
        {
          "internalType": "bool",
          "name": "",
          "type": "bool"
        }
      ],
      "stateMutability": "view",
      "type": "function"
    },
    {
      "inputs": [
        {
          "internalType": "address",
          "name": "account",
          "type": "address"
        }
      ],
      "name": "isAdmin",
      "outputs": [
        {
          "internalType": "bool",
          "name": "",
          "type": "bool"
        }
      ],
      "stateMutability": "view",
      "type": "function"
    },
    {
      "inputs": [],
      "name": "isOwner",
      "outputs": [
        {
          "internalType": "bool",
          "name": "",
          "type": "bool"
        }
      ],
      "stateMutability": "view",
      "type": "function"
    },
    {
      "inputs": [],
      "name": "l1BridgeRegistry",
      "outputs": [
        {
          "internalType": "address",
          "name": "",
          "type": "address"
        }
      ],
      "stateMutability": "view",
      "type": "function"
    },
    {
      "inputs": [],
      "name": "minimumInitialDepositAmount",
      "outputs": [
        {
          "internalType": "uint256",
          "name": "",
          "type": "uint256"
        }
      ],
      "stateMutability": "view",
      "type": "function"
    },
    {
      "inputs": [
        {
          "internalType": "address",
          "name": "owner",
          "type": "address"
        },
        {
          "internalType": "address",
          "name": "spender",
          "type": "address"
        },
        {
          "internalType": "uint256",
          "name": "amount",
          "type": "uint256"
        },
        {
          "internalType": "bytes",
          "name": "data",
          "type": "bytes"
        }
      ],
      "name": "onApprove",
      "outputs": [
        {
          "internalType": "bool",
          "name": "",
          "type": "bool"
        }
      ],
      "stateMutability": "nonpayable",
      "type": "function"
    },
    {
      "inputs": [
        {
          "internalType": "address",
          "name": "",
          "type": "address"
        }
      ],
      "name": "operatorInfo",
      "outputs": [
        {
          "internalType": "address",
          "name": "rollupConfig",
          "type": "address"
        },
        {
          "internalType": "address",
          "name": "candidateAddOn",
          "type": "address"
        }
      ],
      "stateMutability": "view",
      "type": "function"
    },
    {
      "inputs": [],
      "name": "operatorManagerFactory",
      "outputs": [
        {
          "internalType": "address",
          "name": "",
          "type": "address"
        }
      ],
      "stateMutability": "view",
      "type": "function"
    },
    {
      "inputs": [
        {
          "internalType": "address",
          "name": "_rollupConfig",
          "type": "address"
        }
      ],
      "name": "operatorOfRollupConfig",
      "outputs": [
        {
          "internalType": "address",
          "name": "",
          "type": "address"
        }
      ],
      "stateMutability": "view",
      "type": "function"
    },
    {
      "inputs": [
        {
          "internalType": "address",
          "name": "rollupConfig",
          "type": "address"
        }
      ],
      "name": "pauseCandidateAddOn",
      "outputs": [],
      "stateMutability": "nonpayable",
      "type": "function"
    },
    {
      "inputs": [],
      "name": "pauseProxy",
      "outputs": [
        {
          "internalType": "bool",
          "name": "",
          "type": "bool"
        }
      ],
      "stateMutability": "view",
      "type": "function"
    },
    {
      "inputs": [
        {
          "internalType": "uint256",
          "name": "",
          "type": "uint256"
        }
      ],
      "name": "proxyImplementation",
      "outputs": [
        {
          "internalType": "address",
          "name": "",
          "type": "address"
        }
      ],
      "stateMutability": "view",
      "type": "function"
    },
    {
      "inputs": [
        {
          "internalType": "address",
          "name": "rollupConfig",
          "type": "address"
        },
        {
          "internalType": "uint256",
          "name": "amount",
          "type": "uint256"
        },
        {
          "internalType": "bool",
          "name": "flagTon",
          "type": "bool"
        },
        {
          "internalType": "string",
          "name": "memo",
          "type": "string"
        }
      ],
      "name": "registerCandidateAddOn",
      "outputs": [],
      "stateMutability": "nonpayable",
      "type": "function"
    },
    {
      "inputs": [
        {
          "internalType": "address",
          "name": "account",
          "type": "address"
        }
      ],
      "name": "removeAdmin",
      "outputs": [],
      "stateMutability": "nonpayable",
      "type": "function"
    },
    {
      "inputs": [],
      "name": "renounceOwnership",
      "outputs": [],
      "stateMutability": "nonpayable",
      "type": "function"
    },
    {
      "inputs": [
        {
          "internalType": "bytes32",
          "name": "role",
          "type": "bytes32"
        },
        {
          "internalType": "address",
          "name": "account",
          "type": "address"
        }
      ],
      "name": "renounceRole",
      "outputs": [],
      "stateMutability": "nonpayable",
      "type": "function"
    },
    {
      "inputs": [
        {
          "internalType": "bytes32",
          "name": "role",
          "type": "bytes32"
        },
        {
          "internalType": "address",
          "name": "account",
          "type": "address"
        }
      ],
      "name": "revokeRole",
      "outputs": [],
      "stateMutability": "nonpayable",
      "type": "function"
    },
    {
      "inputs": [
        {
          "internalType": "address",
          "name": "",
          "type": "address"
        }
      ],
      "name": "rollupConfigInfo",
      "outputs": [
        {
          "internalType": "uint8",
          "name": "status",
          "type": "uint8"
        },
        {
          "internalType": "address",
          "name": "operatorManager",
          "type": "address"
        }
      ],
      "stateMutability": "view",
      "type": "function"
    },
    {
      "inputs": [
        {
          "internalType": "address",
          "name": "_oper",
          "type": "address"
        }
      ],
      "name": "rollupConfigOfOperator",
      "outputs": [
        {
          "internalType": "address",
          "name": "",
          "type": "address"
        }
      ],
      "stateMutability": "view",
      "type": "function"
    },
    {
      "inputs": [],
      "name": "seigManager",
      "outputs": [
        {
          "internalType": "address",
          "name": "",
          "type": "address"
        }
      ],
      "stateMutability": "view",
      "type": "function"
    },
    {
      "inputs": [
        {
          "internalType": "bytes4",
          "name": "",
          "type": "bytes4"
        }
      ],
      "name": "selectorImplementation",
      "outputs": [
        {
          "internalType": "address",
          "name": "",
          "type": "address"
        }
      ],
      "stateMutability": "view",
      "type": "function"
    },
    {
      "inputs": [
        {
          "internalType": "address",
          "name": "_l1BridgeRegistry",
          "type": "address"
        },
        {
          "internalType": "address",
          "name": "_operatorManagerFactory",
          "type": "address"
        },
        {
          "internalType": "address",
          "name": "_ton",
          "type": "address"
        },
        {
          "internalType": "address",
          "name": "_wton",
          "type": "address"
        },
        {
          "internalType": "address",
          "name": "_dao",
          "type": "address"
        },
        {
          "internalType": "address",
          "name": "_depositManager",
          "type": "address"
        },
        {
          "internalType": "address",
          "name": "_seigManager",
          "type": "address"
        },
        {
          "internalType": "address",
          "name": "_swapProxy",
          "type": "address"
        }
      ],
      "name": "setAddresses",
      "outputs": [],
      "stateMutability": "nonpayable",
      "type": "function"
    },
    {
      "inputs": [
        {
          "internalType": "uint256",
          "name": "_minimumInitialDepositAmount",
          "type": "uint256"
        }
      ],
      "name": "setMinimumInitialDepositAmount",
      "outputs": [],
      "stateMutability": "nonpayable",
      "type": "function"
    },
    {
      "inputs": [
        {
          "internalType": "address",
          "name": "_operatorManagerFactory",
          "type": "address"
        }
      ],
      "name": "setOperatorManagerFactory",
      "outputs": [],
      "stateMutability": "nonpayable",
      "type": "function"
    },
    {
      "inputs": [
        {
          "internalType": "address",
          "name": "_rollupConfig",
          "type": "address"
        }
      ],
      "name": "statusLayer2",
      "outputs": [
        {
          "internalType": "uint8",
          "name": "",
          "type": "uint8"
        }
      ],
      "stateMutability": "view",
      "type": "function"
    },
    {
      "inputs": [
        {
          "internalType": "bytes4",
          "name": "interfaceId",
          "type": "bytes4"
        }
      ],
      "name": "supportsInterface",
      "outputs": [
        {
          "internalType": "bool",
          "name": "",
          "type": "bool"
        }
      ],
      "stateMutability": "view",
      "type": "function"
    },
    {
      "inputs": [],
      "name": "swapProxy",
      "outputs": [
        {
          "internalType": "address",
          "name": "",
          "type": "address"
        }
      ],
      "stateMutability": "view",
      "type": "function"
    },
    {
      "inputs": [],
      "name": "ton",
      "outputs": [
        {
          "internalType": "address",
          "name": "",
          "type": "address"
        }
      ],
      "stateMutability": "view",
      "type": "function"
    },
    {
      "inputs": [
        {
          "internalType": "address",
          "name": "newAdmin",
          "type": "address"
        }
      ],
      "name": "transferAdmin",
      "outputs": [],
      "stateMutability": "nonpayable",
      "type": "function"
    },
    {
      "inputs": [
        {
          "internalType": "address",
          "name": "newAdmin",
          "type": "address"
        }
      ],
      "name": "transferOwnership",
      "outputs": [],
      "stateMutability": "nonpayable",
      "type": "function"
    },
    {
      "inputs": [
        {
          "internalType": "address",
          "name": "rollupConfig",
          "type": "address"
        }
      ],
      "name": "unpauseCandidateAddOn",
      "outputs": [],
      "stateMutability": "nonpayable",
      "type": "function"
    },
    {
      "inputs": [
        {
          "internalType": "address",
          "name": "rollupConfig",
          "type": "address"
        },
        {
          "internalType": "uint256",
          "name": "amount",
          "type": "uint256"
        }
      ],
      "name": "updateSeigniorage",
      "outputs": [],
      "stateMutability": "nonpayable",
      "type": "function"
    },
    {
      "inputs": [],
      "name": "wton",
      "outputs": [
        {
          "internalType": "address",
          "name": "",
          "type": "address"
        }
      ],
      "stateMutability": "view",
      "type": "function"
    }
  ],
  "bytecode": "0x608080604052346100165761344e908161001c8239f35b600080fdfe608060408181526004918236101561001657600080fd5b600092833560e01c91826301ffc9a714612401575081631785f53c146123d3578163248a9ca3146123a857816324d7806c146123625781632e0f1775146119815781632f2ff15d146122b557816332d89cc61461213457816336568abe146120a25781634162169f146120795781634273ca1614611a915781634318dc1d146119f75781634cdf7b161461198157816350c246d61461191e57816350d2a276146118da578163537671b0146115b2578163550d01a31461157457816358bf884f1461151f57816363a8fd89146114fd5781636c7ac9d8146114d45781636ec4be90146114ab5781636fb7f5581461148257816370480275146113cd578163715018a6146113a757816372898c231461136157816375829def1461134457816379a0e6ea146113085781637bae05f1146112c957816389c0db6214610ffd5781638d62d94914610fd45781638f32d59b14610fa157816391d1485414610f5a578163a217fddf14610f3f578163a37d6aa714610f04578163aba8e57714610edb578163b911135f14610ea8578163c04a0a42146108f7578163c5f16b89146107b6578163c845226514610731578163cc48b94714610708578163cf8f9110146106df578163d523c077146105d4578163d539139314610599578163d547741f1461055d57838263d733cfd0146103ea57508163e9d6ec4f146103cb578163f2fde38b1461026c575063ff600b691461022c57600080fd5b34610268576020366003190112610268576020916001600160a01b0390829082610254612481565b168152600f8552205460081c169051908152f35b5080fd5b919050346103c7576020806003193601126103c357610289612481565b61029a610295336125a3565b612aa8565b6102a6610295336125a3565b6001600160a01b0316928315610382578333146103485750838052600581526102d4600183862001546125e0565b83805260058152818420838552815260ff8285205416156102fd575b836102fa3361291c565b80f35b8380526005815281842083855290528220805460ff191660011790553390827f2f8788117e7eff1d82e926ec794901d17c78024a50270940304540a733656f0d8180a43880806102f0565b915162461bcd60e51b815291820152601660248201527520b1b1b2b9b9b4b136329d1039b0b6b29030b236b4b760511b6044820152606490fd5b915162461bcd60e51b815291820152601860248201527f41636365737369626c653a207a65726f206164647265737300000000000000006044820152606490fd5b8380fd5b8280fd5b505034610268578160031936011261026857602090600e549051908152f35b80843461055a57610100908160031936011261055657610408612481565b61041061249c565b6001600160a01b0392604435848116908190036105525760643585811680910361054e576084359186831680930361054a5760a435938785168095036105465760c435958887168097036105425760e4359789891680990361053e578989916104b160ff7f617f1cba5d7b9d5d3c81f0d5c78720ec2be227878bac84c0851b70e4cf61cb089f80808992526005602052818120338252602052205416612aa8565b16996bffffffffffffffffffffffff60a01b928b84600654161760065516918281600754161760075584816008541617600855858160095416176009558681600a541617600a558781600b541617600b558881600c541617600c55600d541617600d55815198895260208901528701526060860152608085015260a084015260c083015260e0820152a180f35b8b80fd5b8a80fd5b8980fd5b8880fd5b8780fd5b8680fd5b5050fd5b50fd5b919050346103c757806003193601126103c7576102fa9135610594600161058261249c565b938387526005602052862001546125e0565b612a0b565b505034610268578160031936011261026857602090517ff0887ba65ee2024ea881d91b74c2450ef19e1557f03bed3ea9f16b037cbe2dc98152f35b919050346103c75760203660031901126103c7576105f0612481565b6006546001600160a01b03906106099082163314612aff565b6011549361061a60ff861615612b4a565b600160ff1980961617601155818316808752600f602052848720916002865193610643856124e0565b549385602060ff871692838152019560081c168552036106d157508652600f6020908152848720805487166001908117909155915183168752601081528487209091015493516001600160a01b03938416815293909116909116908201527faf0a20fb16d60a15e38b6cd70fa0cce0bd2a744265663dfcbc90a02b360caf8090604090a16011541660115580f35b855163c84d787560e01b8152fd5b50503461026857816003193601126102685760065490516001600160a01b039091168152602090f35b50503461026857816003193601126102685760085490516001600160a01b039091168152602090f35b5050346102685760203660031901126102685760207f2342c0559c82fec746d047e08479a8b46bf45d4265f1db1c3a685b542c06f6a291610770612481565b84805260058352818520338652835261078e60ff8387205416612aa8565b600780546001600160a01b0319166001600160a01b039290921691821790559051908152a180f35b919050346103c757806003193601126103c7576107d1612481565b600c546001600160a01b0390811633036108b4578491818084936009541692168352600f6020528483205460081c16828551602081019263a9059cbb60e01b8452602482015260243560448201526044815261082c81612512565b51925af1610838612b7c565b8161087d575b5015610848578280f35b906020606492519162461bcd60e51b8352820152600f60248201526e1514905394d1915497d19052531151608a1b6044820152fd5b8051801592508215610892575b50503861083e565b81925090602091810103126103c35760206108ad9101612bce565b388061088a565b825162461bcd60e51b8152602081860152601b60248201527f73656e646572206973206e6f74206120536569674d616e6167657200000000006044820152606490fd5b83833461026857608036600319011261026857610912612481565b602493604435918535918315158403610ea45760643567ffffffffffffffff81116105525761094490369083016124b2565b95909461095084612ed9565b8615610e96576001600160a01b03848116808a52600f6020908152848b2054909392919060081c8216610e8057610988368b8b61256c565b508a908c8c846006541688519283809263f5e9b26b60e01b8252868d8301525afa908115610e16579160ff87928f94858c9692610e59575b50501660018103610cfa5750875163078f29cf60e01b815292839182905afa908115610cf0579083918d91610cb8575b501680610c57575b505b15610c415760095481169115610bfe5760085416600e548710610be857610a2387303384613360565b8351636eb1769f60e11b8152308682019081526001600160a01b03841660208201528490829081906040010381855afa908115610bde57918885928d948591610ba9575b5010610b29575b5090918b85518094819363e34869d760e01b83528b8a8401525af1918215610b1f578992610ae9575b505015610ad35750633b9aca0092838102938185041490151715610ac157506102fa949550612f1c565b634e487b7160e01b8652601190528585fd5b9060078892519163472ed10360e01b8352820152fd5b90809250813d8311610b18575b610b00818361252e565b8101031261054e57610b1190612bce565b8980610a97565b503d610af6565b83513d8b823e3d90fd5b855163095ea7b360e01b8152878101859052600019818f015292839160449183915af18015610b9f579183918b93610b65575b92919092610a6e565b8281939294503d8311610b98575b610b7d818361252e565b81010312610546578991610b918492612bce565b508c610b5c565b503d610b73565b84513d8c823e3d90fd5b93929450505081813d8311610bd7575b610bc3818361252e565b81010312610542578a91888592518f610a67565b503d610bb9565b85513d8d823e3d90fd5b835163472ed10360e01b81526006818701528b90fd5b509892919050600e54633b9aca00860410610c2d57505050610c28826102fa969730903390613360565b612f1c565b600690519163472ed10360e01b8352820152fd5b835163472ed10360e01b81526005818701528b90fd5b9050838260085416918d8751809481936370a0823160e01b83528b8301525afa8015610bde57908491610c8f575b505060018c6109f8565b813d8311610cb1575b610ca2818361252e565b8101031261054657828c610c85565b503d610c98565b809250868092503d8311610ce9575b610cd1818361252e565b8101031261053e57610ce38391612bba565b8e6109f0565b503d610cc7565b86513d8e823e3d90fd5b9092506002915014610d0d575b506109fa565b855163078f29cf60e01b81529085828981845afa918215610e1657889187918f94610e20575b508851630a49cb0360e01b815292839182905afa908115610e16579084918e91610dda575b501690838215159182610dce575b505015610d07579050838260085416918d8751809481936370a0823160e01b83528b8301525afa8015610bde57908491610da5575b505060018c610d07565b813d8311610dc7575b610db8818361252e565b8101031261054657828c610d9b565b503d610dae565b1615159050838f610d66565b809250878092503d8311610e0f575b610df3818361252e565b81010312610e0b57610e058491612bba565b8f610d58565b8c80fd5b503d610de9565b87513d8f823e3d90fd5b9250925081813d8311610e52575b610e38818361252e565b81010312610e0b5785610e4b8992612bba565b9238610d33565b503d610e2e565b610e7592503d8091833e610e6d818361252e565b810190612bdb565b505050508f806109c0565b845163472ed10360e01b81528087018790528c90fd5b505163111dc0fd60e31b8152fd5b8580fd5b9050346103c75760203660031901126103c75735825260016020908152918190205490516001600160a01b039091168152f35b50503461026857816003193601126102685760075490516001600160a01b039091168152602090f35b505034610268576020366003190112610268576020916001600160a01b0390829082610f2e612481565b168152601085522054169051908152f35b50503461026857816003193601126102685751908152602090f35b9050346103c757816003193601126103c7578160209360ff92610f7b61249c565b90358252600586528282206001600160a01b039091168252855220549151911615158152f35b50503461026857816003193601126102685760ff8183806020955260058552818120338252855220541690519015158152f35b50503461026857816003193601126102685760095490516001600160a01b039091168152602090f35b838334610268576020806003193601126103c757611019612481565b9383809560018060a01b03908185816006541692602489518094819363391e3b3760e01b83521695868a8301525afa9081156112bf5791869186938691611282575b5060ff16600181036111865750875163078f29cf60e01b815292839182905afa90811561117c579082918491611144575b501690816110bb575b50505050506110b7905b51911515825260208201929092529081906040820190565b0390f35b8496506024919294939597506008541694875195869384926370a0823160e01b84528301525afa928315611138578193611104575b505050906110b76001919084808080611095565b9091809350813d8311611131575b61111c818361252e565b8101031261112e5750518280806110f0565b80fd5b503d611112565b508351903d90823e3d90fd5b809250868092503d8311611175575b61115d818361252e565b810103126103c75761116f8291612bba565b8961108c565b503d611153565b86513d85823e3d90fd5b90925060029150146111a1575b50505050506110b79061109f565b848491875192838092630a49cb0360e01b82525afa90811561117c57908291849161124a575b5016908115611193578496506024919294939597506008541694875195869384926370a0823160e01b84528301525afa928315611138578193611219575b505050906110b76001919084808080611193565b9091809350813d8311611243575b611231818361252e565b8101031261112e575051828080611205565b503d611227565b809250868092503d831161127b575b611263818361252e565b810103126103c7576112758291612bba565b896111c7565b503d611259565b92809294508391503d83116112b8575b61129c818361252e565b810103126103c357849160ff6112b28893612bac565b9061105b565b503d611292565b87513d86823e3d90fd5b505034610268576020366003190112610268576020916001600160a01b03906001908390836112f6612481565b16815260108652200154169051908152f35b5050346102685760203660031901126102685760209160ff9082906001600160a01b03611333612481565b168152600f85522054169051908152f35b919050346103c7576020806003193601126103c35761029a612481565b82843461112e57602036600319011261112e576001600160a01b0390829082611388612481565b168152600f60205220549082519160ff8116835260081c166020820152f35b833461112e578060031936011261112e576113c4610295336125a3565b6102fa3361291c565b50503461026857602090816003193601126103c7576113ea612481565b916113f7610295336125a3565b8380526005815261140d600183862001546125e0565b838052600581528184206001600160a01b039093168085529281528184205460ff1615611438578380f35b8380526005815281842083855290528220805460ff191660011790553390827f2f8788117e7eff1d82e926ec794901d17c78024a50270940304540a733656f0d8180a43880808380f35b505034610268578160031936011261026857600c5490516001600160a01b039091168152602090f35b505034610268578160031936011261026857600d5490516001600160a01b039091168152602090f35b505034610268578160031936011261026857600b5490516001600160a01b039091168152602090f35b50503461026857816003193601126102685760ff602092541690519015158152f35b50503461026857602036600319011261026857608090611545611540612481565b612c73565b50508651951515865250506001600160a01b039283166020850152908216938301939093529091166060820152f35b5050346102685760203660031901126102685760209160ff9082906001600160a01b0361159f612481565b1681526002855220541690519015158152f35b919050346103c757806003193601126103c7576115cd612481565b60243567ffffffffffffffff81116118d657366023820112156118d6576115fd903690602481870135910161256c565b5083928460018060a01b038082816006541695602488518094819363f5e9b26b60e01b8352169889898301525afa90811561117c579060ff9184916118b8575b50166001810361174357508451809463078f29cf60e01b8252818560209788935afa90811561117c57908291849161170b575b50169081611691575050925193151584525050506020810191909152604090f35b8496506024919294939597506008541694875195869384926370a0823160e01b84528301525afa9283156111385781936116da575b505050906110b76001919038808080611095565b9091809350813d8311611704575b6116f2818361252e565b8101031261112e5750513880806116c6565b503d6116e8565b809250868092503d831161173c575b611724818361252e565b810103126103c7576117368291612bba565b38611670565b503d61171a565b600214611758575b505050506110b79061109f565b84519063078f29cf60e01b825260209485838681845afa9283156112bf5785918791869561187f575b508851630a49cb0360e01b815292839182905afa9081156112bf579082918591611847575b50169181831515918261183b575b50506117c1575b5061174b565b8496506024919294939597506008541694875195869384926370a0823160e01b84528301525afa92831561113857819361180a575b505050906110b760019190388080806117bb565b9091809350813d8311611834575b611822818361252e565b8101031261112e5750513880806117f6565b503d611818565b161515905081386117b4565b809250878092503d8311611878575b611860818361252e565b810103126103c3576118728291612bba565b386117a6565b503d611856565b9250935081813d83116118b1575b611897818361252e565b810103126103c357856118aa8692612bba565b9338611781565b503d61188d565b6118cc91503d8086833e610e6d818361252e565b505050503861163d565b8480fd5b9050346103c75760203660031901126103c7573563ffffffff60e01b81168091036103c757825260036020908152918190205490516001600160a01b039091168152f35b82843461112e57602036600319011261112e576001600160a01b03906110b790839083611949612481565b168152601060205220916001818454169301541692519283928390602090939293604083019460018060a01b03809216845216910152565b505034610268576020366003190112610268576110b7906119a3611540612481565b975196151587526001600160a01b039586166020880152938516604087015293909116606085015260ff908116608085015290911660a0830152151560c082015290151560e0820152908190610100820190565b919050346103c75760203660031901126103c7578135918380526005602052818420338552602052611a2e60ff8386205416612aa8565b82600e5414611a695750816020917f50e01964a144ee7e40d80d0792ff2641558654ef906fd81502421f22bf6ca92c93600e5551908152a180f35b606491519062461bcd60e51b825260208183015260248201526373616d6560e01b6044820152fd5b83833461026857608036600319011261026857611aac612481565b91611ab561249c565b60643567ffffffffffffffff81116103c757611ad490369087016124b2565b600854909591936001600160a01b0391821693338514158061206b575b61205457823091160361203d57601487111561202657843560601c91611b1683612ed9565b828252602097600f8952818884205460081c1661200f57601319019560140194611b4136888861256c565b50828a848660248660065416938d51948593849263f5e9b26b60e01b84528301525afa908115611ea0579060ff918691611ff1575b501660018103611eaa5750885163078f29cf60e01b81528a818d81895afa908115611ea0579084918691611e68575b501680611e0c575b505b15611df5573303611daa5780600954169060085416600e5494604435958610611d935785611bdf91309084613360565b8751636eb1769f60e11b815230818c019081526001600160a01b03841660208201528a90829081906040010381855afa908115611d89579086918591611d58575b5010611ceb575b50878460248b858b51958694859363e34869d760e01b85528401525af1908115611ce1578291611cac575b5015611c9557633b9aca0092838102938185041490151715611c825750611c7b94959650612f1c565b5160018152f35b634e487b7160e01b815260118852602490fd5b855163472ed10360e01b81526007818a0152602490fd5b90508781813d8311611cda575b611cc3818361252e565b8101031261026857611cd490612bce565b89611c52565b503d611cb9565b87513d84823e3d90fd5b888260448c868c51958694859363095ea7b360e01b855284015260001960248401525af18015611d4e5715611c27578881813d8311611d47575b611d2f818361252e565b810103126103c757611d4090612bce565b5089611c27565b503d611d25565b88513d85823e3d90fd5b8092508b8092503d8311611d82575b611d71818361252e565b810103126103c3578590518c611c20565b503d611d67565b89513d86823e3d90fd5b885163472ed10360e01b81526006818d0152602490fd5b600954600e5491169860443594925090633b9aca00850410611dde575082611dd9969798610c28923091613360565b611c7b565b602490600688519163472ed10360e01b8352820152fd5b875163472ed10360e01b81526005818c0152602490fd5b90508851906370a0823160e01b82528b8201528981602481855afa8015611d8957908a91611e3f575b505060018b611bad565b813d8311611e61575b611e52818361252e565b810103126103c757888b611e35565b503d611e48565b8092508c8092503d8311611e99575b611e81818361252e565b810103126118d657611e938491612bba565b8d611ba5565b503d611e77565b8a513d87823e3d90fd5b600203611baf57885163078f29cf60e01b81528a818d81895afa908115611ea0578591611fbc575b508951630a49cb0360e01b81528b818e818a5afa908115611fb2579085918791611f7a575b501690848215159182611f6e575b5050611f12575b50611baf565b90508851906370a0823160e01b82528b8201528981602481855afa8015611d8957908a91611f45575b505060018b611f0c565b813d8311611f67575b611f58818361252e565b810103126103c757888b611f3b565b503d611f4e565b1615159050848e611f05565b8092508d8092503d8311611fab575b611f93818361252e565b81010312610ea457611fa58591612bba565b8e611ef7565b503d611f89565b8b513d88823e3d90fd5b90508a81813d8311611fea575b611fd3818361252e565b810103126118d657611fe490612bba565b8c611ed2565b503d611fc9565b61200591503d8088833e610e6d818361252e565b505050508d611b76565b875163472ed10360e01b8152808b018b9052602490fd5b85516350f1c44960e11b81526003818a0152602490fd5b85516350f1c44960e11b81526002818a0152602490fd5b86516350f1c44960e11b81526001818b0152602490fd5b508260095416331415611af1565b505034610268578160031936011261026857600a5490516001600160a01b039091168152602090f35b839150346102685782600319360112610268576120bd61249c565b90336001600160a01b038316036120d957906102fa9135612a0b565b608490602085519162461bcd60e51b8352820152602f60248201527f416363657373436f6e74726f6c3a2063616e206f6e6c792072656e6f756e636560448201526e103937b632b9903337b91039b2b63360891b6064820152fd5b9050346103c757602091826003193601126103c357612151612481565b6006546001600160a01b0394919061216c9086163314612aff565b6011549461217d60ff871615612b4a565b600160ff1980971617601155808216808852600f845284882060018651916121a4836124e0565b5491848760ff851692838152019360081c168352036122a55790827f14280f6eab1c847215d9714b0aa6711ad26e21304f06a85a46ad07a1f11e8370925116895260108552826001878b200154169384916121fe83612ed9565b8a52600f8652868a2080548a16600217905586516001600160a01b03918216815291166020820152604090a1600c541691835190810191634a39e57f60e11b83526024820152602481526060810181811067ffffffffffffffff82111761229257845251869283929083905af1612273612b7c565b50156122855750506011541660115580f35b516316a6ca0960e21b8152fd5b634e487b7160e01b885260418652602488fd5b855163c84d787560e01b81528790fd5b9050346103c757816003193601126103c75735906122d161249c565b9082845260056020526122e9600182862001546125e0565b828452600560209081528185206001600160a01b039093168086529290528084205460ff1615612317578380f35b82845260056020528084208285526020528320600160ff1982541617905533917f2f8788117e7eff1d82e926ec794901d17c78024a50270940304540a733656f0d8480a43880808380f35b5050346102685760203660031901126102685760ff81602093612383612481565b818052600586528282206001600160a01b039091168252855220549151911615158152f35b9050346103c75760203660031901126103c75781602093600192358152600585522001549051908152f35b833461112e57602036600319011261112e576102fa6123f0612481565b6123fc610295336125a3565b61291c565b849184346103c35760203660031901126103c35781359063ffffffff60e01b82168092036118d657602094637965db0b60e01b8314938415612448575b5050505015158152f35b6301ffc9a760e01b841494509192909190841561246d575b505050508380808061243e565b60ff94508252855220541683808080612460565b600435906001600160a01b038216820361249757565b600080fd5b602435906001600160a01b038216820361249757565b9181601f840112156124975782359167ffffffffffffffff8311612497576020838186019501011161249757565b6040810190811067ffffffffffffffff8211176124fc57604052565b634e487b7160e01b600052604160045260246000fd5b6080810190811067ffffffffffffffff8211176124fc57604052565b90601f8019910116810190811067ffffffffffffffff8211176124fc57604052565b67ffffffffffffffff81116124fc57601f01601f191660200190565b92919261257882612550565b91612586604051938461252e565b829481845281830111612497578281602093846000960137010152565b6001600160a01b031660009081527f05b8ccbb9d4d8fb16ea74ce3c29a41f1b461fbdaff4714a0d9a8eb05499746bc602052604090205460ff1690565b60009080825260209060058252604090818420338552835260ff82852054161561260a5750505050565b815193336060860167ffffffffffffffff8111878210176128e5578452602a865284860192843685378651156127fd57603084538651916001928310156128d1576078602189015360295b83811161286757506128255784519161266d83612512565b60428352868301936060368637835115612811576030855383518210156128115790607860218501536041915b8183116127a357505050612761579261272f60486127209794612753946044989785519a8b936126f78b86019a7f416363657373436f6e74726f6c3a206163636f756e74200000000000000000008c5251809260378801906128f9565b8401917001034b99036b4b9b9b4b733903937b6329607d1b6037840152518093868401906128f9565b0103602881018952018761252e565b5194859362461bcd60e51b85526004850152518092816024860152858501906128f9565b601f01601f19168101030190fd5b60648585519062461bcd60e51b825280600483015260248201527f537472696e67733a20686578206c656e67746820696e73756666696369656e746044820152fd5b909192600f811660108110156127fd576f181899199a1a9b1b9c1cb0b131b232b360811b901a6127d38587612a81565b5360041c9280156127e95760001901919061269a565b634e487b7160e01b82526011600452602482fd5b634e487b7160e01b83526032600452602483fd5b634e487b7160e01b81526032600452602490fd5b60648686519062461bcd60e51b825280600483015260248201527f537472696e67733a20686578206c656e67746820696e73756666696369656e746044820152fd5b90600f811660108110156128bd576f181899199a1a9b1b9c1cb0b131b232b360811b901a612895838b612a81565b5360041c9080156128a95760001901612655565b634e487b7160e01b85526011600452602485fd5b634e487b7160e01b86526032600452602486fd5b634e487b7160e01b84526032600452602484fd5b634e487b7160e01b83526041600452602483fd5b60005b83811061290c5750506000910152565b81810151838201526020016128fc565b6001600160a01b03163381036129ae5760008181527f05b8ccbb9d4d8fb16ea74ce3c29a41f1b461fbdaff4714a0d9a8eb05499746bc602052604081205490919060ff16612968575050565b8180526005602052604082208183526020526040822060ff19815416905533917ff6391f5c32d9c69d2a47ea670b442974b53935d1edc7fd64eb21e047a839171b8180a4565b60405162461bcd60e51b815260206004820152602f60248201527f416363657373436f6e74726f6c3a2063616e206f6e6c792072656e6f756e636560448201526e103937b632b9903337b91039b2b63360891b6064820152608490fd5b906000918083526005602052604083209160018060a01b03169182845260205260ff604084205416612a3c57505050565b8083526005602052604083208284526020526040832060ff1981541690557ff6391f5c32d9c69d2a47ea670b442974b53935d1edc7fd64eb21e047a839171b339380a4565b908151811015612a92570160200190565b634e487b7160e01b600052603260045260246000fd5b15612aaf57565b60405162461bcd60e51b815260206004820152602260248201527f41636365737369626c653a2043616c6c6572206973206e6f7420616e2061646d60448201526134b760f11b6064820152608490fd5b15612b0657565b606460405162461bcd60e51b815260206004820152602060248201527f73656e646572206973206e6f742061204c3142726964676552656769737472796044820152fd5b15612b5157565b606460405162461bcd60e51b81526020600482015260046024820152636c6f636b60e01b6044820152fd5b3d15612ba7573d90612b8d82612550565b91612b9b604051938461252e565b82523d6000602084013e565b606090565b519060ff8216820361249757565b51906001600160a01b038216820361249757565b5190811515820361249757565b919060a08382031261249757612bf083612bac565b92612bfd60208201612bba565b92612c0a60408301612bce565b92612c1760608401612bce565b9260808101519067ffffffffffffffff8211612497570181601f82011215612497578051612c4481612550565b92612c52604051948561252e565b8184526020828401011161249757612c7091602080850191016128f9565b90565b600091600091828092819260018060a01b03908160065416926040948386519363f5e9b26b60e01b855216958660048501528184602481895afa948515612ece57829583958491612ea6575b5094958098808552602091600f835260ff85872054169960018b14612ce8575b50505050505050565b855163078f29cf60e01b8152908482600481875afa918215612e9c578892612e65575b50858216612db4575b505060ff16600214612d28575b8080612cdf565b9080600492969e9596855193848092630a49cb0360e01b82525afa938415612dab57508593612d73575b50508116612d68575050975b3880808080612d21565b915098965095612d5e565b9080929350813d8311612da4575b612d8b818361252e565b810103126103c357612d9c90612bba565b903880612d52565b503d612d81565b513d87823e3d90fd5b60ff831660018114908115612e5a575b50612de6575b50848d16612dd9575b80612d14565b60019f509d5060ff612dd3565b6024919d5084908751928380926312dea97560e21b82528760048301525afa908115612e50578791612e1b575b509b38612dca565b90508381813d8311612e49575b612e32818361252e565b8101031261055257612e4390612bba565b38612e13565b503d612e28565b86513d89823e3d90fd5b600291501438612dc4565b9091508481813d8311612e95575b612e7d818361252e565b8101031261054e57612e8e90612bba565b9038612d0b565b503d612e73565b87513d8a823e3d90fd5b91965050612ebf9194503d8084833e610e6d818361252e565b50959290969150959438612cbf565b5051903d90823e3d90fd5b6001600160a01b031615612ee957565b604051633efa09af60e01b8152600490fd5b908060209392818452848401376000828201840152601f01601f1916010190565b9092919260018060a01b039081600754166040938385519163f802ead360e01b83521693600496858884015260209560249987858c816000809a5af194851561335657869561331f575b508385169081156133095781875260108952848a882054166132f3579084939291898b8d8f98600a5416908b8351809b81958294634892afd360e01b845283015288612fb6604484018d8b612efb565b9183015203925af19586156132e957908a8c8a9384996132a0575b50908780838b945193612fe3856124e0565b898552888382870197169889885252601090528d20925116916bffffffffffffffffffffffff60a01b9283825416178155600101925116908254161790558b5161302c816124e0565b600181528b8101848152858b52600f8d528d8b20915160ff16825491600160a81b6101009003905160081b16916affffffffffffffffffffff60a81b16171790558b5194859485528a8c8601528c850160a0905260a085019061308e92612efb565b9160608401526080830152037f3685763fd42e5061ff53b001782ad759eafbc93a460b368a4ce42228ec45da9891a1600954600b548851636eb1769f60e11b8152308b82019081529184166001600160a01b0381166020840152928416918990829081906040010381855afa90811561329657878d938a8c99989796948f948491613255575b50106131cd575b5050505050600b54169084896131618a5198899687958694638340f54960e01b8652850160409194939294606082019560018060a01b0380921683521660208201520152565b03925af1928315611138578193613194575b5050501561318057505050565b600390519163472ed10360e01b8352820152fd5b9091809350813d83116131c6575b6131ac818361252e565b8101031261112e57506131be90612bce565b388080613173565b503d6131a2565b90604492918d99959697989951968795869463095ea7b360e01b8652850152600019908401525af1801561324b57908794939291613210575b808a878d9361311b565b9091929381813d8311613244575b613228818361252e565b810103126118d6579061323d87949392612bce565b5038613206565b503d61321e565b88513d87823e3d90fd5b959798999a9450505093505081813d831161328f575b613275818361252e565b8101031261055257918a878d938a8c999897965138613114565b503d61326b565b8a513d89823e3d90fd5b9350509092939495965081813d83116132e2575b6132be818361252e565b8101031261054e5785949392918b8b876132d88c95612bba565b9950919091612fd1565b503d6132b4565b8b513d8a823e3d90fd5b895163472ed10360e01b81526002818d01528c90fd5b895163472ed10360e01b81526001818d01528c90fd5b9094508781813d831161334f575b613337818361252e565b81010312610ea45761334890612bba565b9338612f66565b503d61332d565b89513d88823e3d90fd5b6040516323b872dd60e01b602082019081526001600160a01b0393841660248301529390921660448301526064808301949094529281526000928392909183906133ab60848261252e565b51926001600160a01b03165af16133c0612b7c565b8161340a575b50156133ce57565b60405162461bcd60e51b81526020600482015260146024820152731514905394d1915497d19493d357d1905253115160621b6044820152606490fd5b805180159250821561341f575b5050386133c6565b819250906020918101031261249757602061343a9101612bce565b388061341756fea164736f6c6343000813000a",
  "linkReferences": {},
  "deployedLinkReferences": {}
}