{
  "_format": "hh-sol-artifact-1",
  "contractName": "Layer2ManagerV1_1",
  "sourceName": "contracts/layer2/Layer2ManagerV1_1.sol",
  "abi": [
    {
      "inputs": [],
      "stateMutability": "nonpayable",
      "type": "constructor"
    },
    {
      "inputs": [],
      "name": "ExcludeError",
      "type": "error"
    },
    {
      "inputs": [
        {
          "internalType": "uint256",
          "name": "x",
          "type": "uint256"
        }
      ],
      "name": "OnApproveError",
      "type": "error"
    },
    {
      "inputs": [
        {
          "internalType": "uint256",
          "name": "x",
          "type": "uint256"
        }
      ],
      "name": "RegisterError",
      "type": "error"
    },
    {
      "inputs": [],
      "name": "StatusError",
      "type": "error"
    },
    {
      "inputs": [],
      "name": "ZeroAddressError",
      "type": "error"
    },
    {
      "inputs": [],
      "name": "ZeroBytesError",
      "type": "error"
    },
    {
      "anonymous": false,
      "inputs": [
        {
          "indexed": false,
          "internalType": "address",
          "name": "systemConfig",
          "type": "address"
        },
        {
          "indexed": false,
          "internalType": "address",
          "name": "_layer2",
          "type": "address"
        }
      ],
      "name": "PausedLayer2Candidate",
      "type": "event"
    },
    {
      "anonymous": false,
      "inputs": [
        {
          "indexed": false,
          "internalType": "address",
          "name": "systemConfig",
          "type": "address"
        },
        {
          "indexed": false,
          "internalType": "uint256",
          "name": "wtonAmount",
          "type": "uint256"
        },
        {
          "indexed": false,
          "internalType": "string",
          "name": "memo",
          "type": "string"
        },
        {
          "indexed": false,
          "internalType": "address",
          "name": "operator",
          "type": "address"
        },
        {
          "indexed": false,
          "internalType": "address",
          "name": "layer2Candidate",
          "type": "address"
        }
      ],
      "name": "RegisteredLayer2Candidate",
      "type": "event"
    },
    {
      "anonymous": false,
      "inputs": [
        {
          "indexed": true,
          "internalType": "bytes32",
          "name": "role",
          "type": "bytes32"
        },
        {
          "indexed": true,
          "internalType": "bytes32",
          "name": "previousAdminRole",
          "type": "bytes32"
        },
        {
          "indexed": true,
          "internalType": "bytes32",
          "name": "newAdminRole",
          "type": "bytes32"
        }
      ],
      "name": "RoleAdminChanged",
      "type": "event"
    },
    {
      "anonymous": false,
      "inputs": [
        {
          "indexed": true,
          "internalType": "bytes32",
          "name": "role",
          "type": "bytes32"
        },
        {
          "indexed": true,
          "internalType": "address",
          "name": "account",
          "type": "address"
        },
        {
          "indexed": true,
          "internalType": "address",
          "name": "sender",
          "type": "address"
        }
      ],
      "name": "RoleGranted",
      "type": "event"
    },
    {
      "anonymous": false,
      "inputs": [
        {
          "indexed": true,
          "internalType": "bytes32",
          "name": "role",
          "type": "bytes32"
        },
        {
          "indexed": true,
          "internalType": "address",
          "name": "account",
          "type": "address"
        },
        {
          "indexed": true,
          "internalType": "address",
          "name": "sender",
          "type": "address"
        }
      ],
      "name": "RoleRevoked",
      "type": "event"
    },
    {
      "anonymous": false,
      "inputs": [
        {
          "indexed": false,
          "internalType": "address",
          "name": "_l2Register",
          "type": "address"
        },
        {
          "indexed": false,
          "internalType": "address",
          "name": "_operatorFactory",
          "type": "address"
        },
        {
          "indexed": false,
          "internalType": "address",
          "name": "_ton",
          "type": "address"
        },
        {
          "indexed": false,
          "internalType": "address",
          "name": "_wton",
          "type": "address"
        },
        {
          "indexed": false,
          "internalType": "address",
          "name": "_dao",
          "type": "address"
        },
        {
          "indexed": false,
          "internalType": "address",
          "name": "_depositManager",
          "type": "address"
        },
        {
          "indexed": false,
          "internalType": "address",
          "name": "_seigManager",
          "type": "address"
        },
        {
          "indexed": false,
          "internalType": "address",
          "name": "_swapProxy",
          "type": "address"
        }
      ],
      "name": "SetAddresses",
      "type": "event"
    },
    {
      "anonymous": false,
      "inputs": [
        {
          "indexed": false,
          "internalType": "uint256",
          "name": "_minimumInitialDepositAmount",
          "type": "uint256"
        }
      ],
      "name": "SetMinimumInitialDepositAmount",
      "type": "event"
    },
    {
      "anonymous": false,
      "inputs": [
        {
          "indexed": false,
          "internalType": "address",
          "name": "systemConfig",
          "type": "address"
        },
        {
          "indexed": false,
          "internalType": "address",
          "name": "_layer2",
          "type": "address"
        }
      ],
      "name": "UnpausedLayer2Candidate",
      "type": "event"
    },
    {
      "inputs": [],
      "name": "DEFAULT_ADMIN_ROLE",
      "outputs": [
        {
          "internalType": "bytes32",
          "name": "",
          "type": "bytes32"
        }
      ],
      "stateMutability": "view",
      "type": "function"
    },
    {
      "inputs": [],
      "name": "MINTER_ROLE",
      "outputs": [
        {
          "internalType": "bytes32",
          "name": "",
          "type": "bytes32"
        }
      ],
      "stateMutability": "view",
      "type": "function"
    },
    {
      "inputs": [
        {
          "internalType": "address",
          "name": "account",
          "type": "address"
        }
      ],
      "name": "addAdmin",
      "outputs": [],
      "stateMutability": "nonpayable",
      "type": "function"
    },
    {
      "inputs": [
        {
          "internalType": "address",
          "name": "",
          "type": "address"
        }
      ],
      "name": "aliveImplementation",
      "outputs": [
        {
          "internalType": "bool",
          "name": "",
          "type": "bool"
        }
      ],
      "stateMutability": "view",
      "type": "function"
    },
    {
      "inputs": [
        {
          "internalType": "address",
          "name": "_systemConfig",
          "type": "address"
        }
      ],
      "name": "checkL1Bridge",
      "outputs": [
        {
          "internalType": "bool",
          "name": "result",
          "type": "bool"
        },
        {
          "internalType": "address",
          "name": "l1Bridge",
          "type": "address"
        },
        {
          "internalType": "address",
          "name": "portal",
          "type": "address"
        },
        {
          "internalType": "address",
          "name": "l2Ton",
          "type": "address"
        }
      ],
      "stateMutability": "view",
      "type": "function"
    },
    {
      "inputs": [
        {
          "internalType": "address",
          "name": "_systemConfig",
          "type": "address"
        }
      ],
      "name": "checkLayer2TVL",
      "outputs": [
        {
          "internalType": "bool",
          "name": "result",
          "type": "bool"
        },
        {
          "internalType": "uint256",
          "name": "amount",
          "type": "uint256"
        }
      ],
      "stateMutability": "view",
      "type": "function"
    },
    {
      "inputs": [],
      "name": "dao",
      "outputs": [
        {
          "internalType": "address",
          "name": "",
          "type": "address"
        }
      ],
      "stateMutability": "view",
      "type": "function"
    },
    {
      "inputs": [],
      "name": "depositManager",
      "outputs": [
        {
          "internalType": "address",
          "name": "",
          "type": "address"
        }
      ],
      "stateMutability": "view",
      "type": "function"
    },
    {
      "inputs": [
        {
          "internalType": "bytes32",
          "name": "role",
          "type": "bytes32"
        }
      ],
      "name": "getRoleAdmin",
      "outputs": [
        {
          "internalType": "bytes32",
          "name": "",
          "type": "bytes32"
        }
      ],
      "stateMutability": "view",
      "type": "function"
    },
    {
      "inputs": [
        {
          "internalType": "bytes32",
          "name": "role",
          "type": "bytes32"
        },
        {
          "internalType": "address",
          "name": "account",
          "type": "address"
        }
      ],
      "name": "grantRole",
      "outputs": [],
      "stateMutability": "nonpayable",
      "type": "function"
    },
    {
      "inputs": [
        {
          "internalType": "bytes32",
          "name": "role",
          "type": "bytes32"
        },
        {
          "internalType": "address",
          "name": "account",
          "type": "address"
        }
      ],
      "name": "hasRole",
      "outputs": [
        {
          "internalType": "bool",
          "name": "",
          "type": "bool"
        }
      ],
      "stateMutability": "view",
      "type": "function"
    },
    {
      "inputs": [
        {
          "internalType": "address",
          "name": "account",
          "type": "address"
        }
      ],
      "name": "isAdmin",
      "outputs": [
        {
          "internalType": "bool",
          "name": "",
          "type": "bool"
        }
      ],
      "stateMutability": "view",
      "type": "function"
    },
    {
      "inputs": [],
      "name": "isOwner",
      "outputs": [
        {
          "internalType": "bool",
          "name": "",
          "type": "bool"
        }
      ],
      "stateMutability": "view",
      "type": "function"
    },
    {
      "inputs": [
        {
          "internalType": "address",
          "name": "_sys",
          "type": "address"
        }
      ],
      "name": "issueStatusLayer2",
      "outputs": [
        {
          "internalType": "uint8",
          "name": "",
          "type": "uint8"
        }
      ],
      "stateMutability": "view",
      "type": "function"
    },
    {
      "inputs": [],
      "name": "l2Register",
      "outputs": [
        {
          "internalType": "address",
          "name": "",
          "type": "address"
        }
      ],
      "stateMutability": "view",
      "type": "function"
    },
    {
      "inputs": [
        {
          "internalType": "address",
          "name": "_oper",
          "type": "address"
        }
      ],
      "name": "layer2CandidateOfOperator",
      "outputs": [
        {
          "internalType": "address",
          "name": "",
          "type": "address"
        }
      ],
      "stateMutability": "view",
      "type": "function"
    },
    {
      "inputs": [],
      "name": "minimumInitialDepositAmount",
      "outputs": [
        {
          "internalType": "uint256",
          "name": "",
          "type": "uint256"
        }
      ],
      "stateMutability": "view",
      "type": "function"
    },
    {
      "inputs": [
        {
          "internalType": "address",
          "name": "owner",
          "type": "address"
        },
        {
          "internalType": "address",
          "name": "spender",
          "type": "address"
        },
        {
          "internalType": "uint256",
          "name": "amount",
          "type": "uint256"
        },
        {
          "internalType": "bytes",
          "name": "data",
          "type": "bytes"
        }
      ],
      "name": "onApprove",
      "outputs": [
        {
          "internalType": "bool",
          "name": "",
          "type": "bool"
        }
      ],
      "stateMutability": "nonpayable",
      "type": "function"
    },
    {
      "inputs": [],
      "name": "operatorFactory",
      "outputs": [
        {
          "internalType": "address",
          "name": "",
          "type": "address"
        }
      ],
      "stateMutability": "view",
      "type": "function"
    },
    {
      "inputs": [
        {
          "internalType": "address",
          "name": "",
          "type": "address"
        }
      ],
      "name": "operatorInfo",
      "outputs": [
        {
          "internalType": "address",
          "name": "systemConfig",
          "type": "address"
        },
        {
          "internalType": "address",
          "name": "layer2Candidate",
          "type": "address"
        }
      ],
      "stateMutability": "view",
      "type": "function"
    },
    {
      "inputs": [
        {
          "internalType": "address",
          "name": "_sys",
          "type": "address"
        }
      ],
      "name": "operatorOfSystemConfig",
      "outputs": [
        {
          "internalType": "address",
          "name": "",
          "type": "address"
        }
      ],
      "stateMutability": "view",
      "type": "function"
    },
    {
      "inputs": [
        {
          "internalType": "address",
          "name": "systemConfig",
          "type": "address"
        }
      ],
      "name": "pauseLayer2Candidate",
      "outputs": [],
      "stateMutability": "nonpayable",
      "type": "function"
    },
    {
      "inputs": [],
      "name": "pauseProxy",
      "outputs": [
        {
          "internalType": "bool",
          "name": "",
          "type": "bool"
        }
      ],
      "stateMutability": "view",
      "type": "function"
    },
    {
      "inputs": [
        {
          "internalType": "uint256",
          "name": "",
          "type": "uint256"
        }
      ],
      "name": "proxyImplementation",
      "outputs": [
        {
          "internalType": "address",
          "name": "",
          "type": "address"
        }
      ],
      "stateMutability": "view",
      "type": "function"
    },
    {
      "inputs": [
        {
          "internalType": "address",
          "name": "systemConfig",
          "type": "address"
        },
        {
          "internalType": "uint256",
          "name": "amount",
          "type": "uint256"
        },
        {
          "internalType": "bool",
          "name": "flagTon",
          "type": "bool"
        },
        {
          "internalType": "string",
          "name": "memo",
          "type": "string"
        }
      ],
      "name": "registerLayer2Candidate",
      "outputs": [],
      "stateMutability": "nonpayable",
      "type": "function"
    },
    {
      "inputs": [
        {
          "internalType": "address",
          "name": "account",
          "type": "address"
        }
      ],
      "name": "removeAdmin",
      "outputs": [],
      "stateMutability": "nonpayable",
      "type": "function"
    },
    {
      "inputs": [],
      "name": "renounceOwnership",
      "outputs": [],
      "stateMutability": "nonpayable",
      "type": "function"
    },
    {
      "inputs": [
        {
          "internalType": "bytes32",
          "name": "role",
          "type": "bytes32"
        },
        {
          "internalType": "address",
          "name": "account",
          "type": "address"
        }
      ],
      "name": "renounceRole",
      "outputs": [],
      "stateMutability": "nonpayable",
      "type": "function"
    },
    {
      "inputs": [
        {
          "internalType": "bytes32",
          "name": "role",
          "type": "bytes32"
        },
        {
          "internalType": "address",
          "name": "account",
          "type": "address"
        }
      ],
      "name": "revokeRole",
      "outputs": [],
      "stateMutability": "nonpayable",
      "type": "function"
    },
    {
      "inputs": [],
      "name": "seigManager",
      "outputs": [
        {
          "internalType": "address",
          "name": "",
          "type": "address"
        }
      ],
      "stateMutability": "view",
      "type": "function"
    },
    {
      "inputs": [
        {
          "internalType": "bytes4",
          "name": "",
          "type": "bytes4"
        }
      ],
      "name": "selectorImplementation",
      "outputs": [
        {
          "internalType": "address",
          "name": "",
          "type": "address"
        }
      ],
      "stateMutability": "view",
      "type": "function"
    },
    {
      "inputs": [
        {
          "internalType": "address",
          "name": "_l2Register",
          "type": "address"
        },
        {
          "internalType": "address",
          "name": "_operatorFactory",
          "type": "address"
        },
        {
          "internalType": "address",
          "name": "_ton",
          "type": "address"
        },
        {
          "internalType": "address",
          "name": "_wton",
          "type": "address"
        },
        {
          "internalType": "address",
          "name": "_dao",
          "type": "address"
        },
        {
          "internalType": "address",
          "name": "_depositManager",
          "type": "address"
        },
        {
          "internalType": "address",
          "name": "_seigManager",
          "type": "address"
        },
        {
          "internalType": "address",
          "name": "_swapProxy",
          "type": "address"
        }
      ],
      "name": "setAddresses",
      "outputs": [],
      "stateMutability": "nonpayable",
      "type": "function"
    },
    {
      "inputs": [
        {
          "internalType": "uint256",
          "name": "_minimumInitialDepositAmount",
          "type": "uint256"
        }
      ],
      "name": "setMinimumInitialDepositAmount",
      "outputs": [],
      "stateMutability": "nonpayable",
      "type": "function"
    },
    {
      "inputs": [
        {
          "internalType": "bytes4",
          "name": "interfaceId",
          "type": "bytes4"
        }
      ],
      "name": "supportsInterface",
      "outputs": [
        {
          "internalType": "bool",
          "name": "",
          "type": "bool"
        }
      ],
      "stateMutability": "view",
      "type": "function"
    },
    {
      "inputs": [],
      "name": "swapProxy",
      "outputs": [
        {
          "internalType": "address",
          "name": "",
          "type": "address"
        }
      ],
      "stateMutability": "view",
      "type": "function"
    },
    {
      "inputs": [
        {
          "internalType": "address",
          "name": "",
          "type": "address"
        }
      ],
      "name": "systemConfigInfo",
      "outputs": [
        {
          "internalType": "uint8",
          "name": "stateIssue",
          "type": "uint8"
        },
        {
          "internalType": "address",
          "name": "operator",
          "type": "address"
        }
      ],
      "stateMutability": "view",
      "type": "function"
    },
    {
      "inputs": [
        {
          "internalType": "address",
          "name": "_oper",
          "type": "address"
        }
      ],
      "name": "systemConfigOfOperator",
      "outputs": [
        {
          "internalType": "address",
          "name": "",
          "type": "address"
        }
      ],
      "stateMutability": "view",
      "type": "function"
    },
    {
      "inputs": [],
      "name": "ton",
      "outputs": [
        {
          "internalType": "address",
          "name": "",
          "type": "address"
        }
      ],
      "stateMutability": "view",
      "type": "function"
    },
    {
      "inputs": [
        {
          "internalType": "address",
          "name": "newAdmin",
          "type": "address"
        }
      ],
      "name": "transferAdmin",
      "outputs": [],
      "stateMutability": "nonpayable",
      "type": "function"
    },
    {
      "inputs": [
        {
          "internalType": "address",
          "name": "newAdmin",
          "type": "address"
        }
      ],
      "name": "transferOwnership",
      "outputs": [],
      "stateMutability": "nonpayable",
      "type": "function"
    },
    {
      "inputs": [
        {
          "internalType": "address",
          "name": "systemConfig",
          "type": "address"
        }
      ],
      "name": "unpauseLayer2Cnadidate",
      "outputs": [],
      "stateMutability": "nonpayable",
      "type": "function"
    },
    {
      "inputs": [
        {
          "internalType": "address",
          "name": "systemConfig",
          "type": "address"
        },
        {
          "internalType": "uint256",
          "name": "amount",
          "type": "uint256"
        }
      ],
      "name": "updateSeigniorage",
      "outputs": [],
      "stateMutability": "nonpayable",
      "type": "function"
    },
    {
      "inputs": [],
      "name": "wton",
      "outputs": [
        {
          "internalType": "address",
          "name": "",
          "type": "address"
        }
      ],
      "stateMutability": "view",
      "type": "function"
    }
  ],
  "bytecode": "0x60808060405234610016576128f3908161001c8239f35b600080fdfe608060408181526004908136101561001657600080fd5b600092833560e01c90816301ffc9a7146119ae575080630eaad69814611968578063153e6d7f1461192c5780631785f53c146118fe578063248a9ca3146118d357806324d7806c1461188d57806327f1470d146115b45780632f2ff15d1461150757806336568abe146114755780634162169f1461144c5780634273ca16146110f85780634318dc1d14611060578063472d1f711461103757806350c246d614610fd057806350d2a27614610f8c5780635290c24814610f63578063550d01a314610f2557806358bf884f14610cc15780635bb96f8314610b4057806362f47f2b14610a3757806363a8fd8914610a155780636c7ac9d8146109ec5780636ec4be90146109c35780636fb7f5581461099a57806370480275146108e5578063715018a6146108bf57806375829def146108a457806389c0db621461086f5780638d62d949146108465780638f32d59b1461081357806391d14854146107cc578063a1efe92014610791578063a217fddf14610776578063b17dba1b14610737578063b911135f14610704578063c5f16b89146105cd578063cc48b947146105a4578063d539139314610569578063d547741f1461052f57838163d733cfd0146103bc57508063e9d6ec4f1461039d578063ef6cf6521461035b5763f2fde38b146101ff57600080fd5b346103575760208060031936011261035357610219611a33565b61022a61022533611a92565b612007565b61023661022533611a92565b6001600160a01b0316928315610312578333146102d857508380526005815261026460018386200154611acf565b83805260058152818420838552815260ff82852054161561028d575b8361028a33611e7b565b80f35b8380526005815281842083855290528220805460ff191660011790553390827f2f8788117e7eff1d82e926ec794901d17c78024a50270940304540a733656f0d8180a4388080610280565b915162461bcd60e51b815291820152601660248201527520b1b1b2b9b9b4b136329d1039b0b6b29030b236b4b760511b6044820152606490fd5b915162461bcd60e51b815291820152601860248201527f41636365737369626c653a207a65726f206164647265737300000000000000006044820152606490fd5b8380fd5b8280fd5b838234610399576020366003190112610399576020916001600160a01b0390829082610385611a33565b168152600f8552205460081c169051908152f35b5080fd5b838234610399578160031936011261039957602090600e549051908152f35b80833461052c576101009081600319360112610528576103da611a33565b6103e2611a4e565b6001600160a01b03926044358481169081900361052457606435858116809103610520576084359186831680930361051c5760a435938785168095036105185760c435958887168097036105145760e435978989168099036105105789899161048360ff7f617f1cba5d7b9d5d3c81f0d5c78720ec2be227878bac84c0851b70e4cf61cb089f80808992526005602052818120338252602052205416612007565b16996bffffffffffffffffffffffff60a01b928b84600654161760065516918281600754161760075584816008541617600855858160095416176009558681600a541617600a558781600b541617600b558881600c541617600c55600d541617600d55815198895260208901528701526060860152608085015260a084015260c083015260e0820152a180f35b8b80fd5b8a80fd5b8980fd5b8880fd5b8780fd5b8680fd5b5050fd5b50fd5b503461035757806003193601126103575761028a91356105646001610552611a4e565b93838752600560205286200154611acf565b611f6a565b838234610399578160031936011261039957602090517ff0887ba65ee2024ea881d91b74c2450ef19e1557f03bed3ea9f16b037cbe2dc98152f35b83823461039957816003193601126103995760085490516001600160a01b039091168152602090f35b50346103575780600319360112610357576105e6611a33565b600c546001600160a01b0390811633036106c1578491818084936009541692168352600f6020528483205460081c16828551602081019263a9059cbb60e01b8452602482015260243560448201526044815261064181611e3d565b51925af161064d6120dc565b81610692575b501561065d578280f35b906020606492519162461bcd60e51b8352820152600f60248201526e1514905394d1915497d19052531151608a1b6044820152fd5b80518015925082156106a7575b505038610653565b6106ba9250602080918301019101612434565b388061069f565b825162461bcd60e51b8152602081860152601b60248201527f73656e646572206973206e6f74206120536569674d616e6167657200000000006044820152606490fd5b5090346103575760203660031901126103575735825260016020908152918190205490516001600160a01b039091168152f35b838234610399576020366003190112610399576020916001600160a01b0390600190839083610764611a33565b16815260108652200154169051908152f35b83823461039957816003193601126103995751908152602090f35b838234610399576020366003190112610399576020916001600160a01b03908290826107bb611a33565b168152601085522054169051908152f35b5090346103575781600319360112610357578160209360ff926107ed611a4e565b90358252600586528282206001600160a01b039091168252855220549151911615158152f35b83823461039957816003193601126103995760ff8183806020955260058552818120338252855220541690519015158152f35b83823461039957816003193601126103995760095490516001600160a01b039091168152602090f35b5082346108a15760203660031901126108a1575061089361088e611a33565b612176565b825191151582526020820152f35b80fd5b5034610357576020806003193601126103535761022a611a33565b83346108a157806003193601126108a1576108dc61022533611a92565b61028a33611e7b565b838234610399576020908160031936011261035757610902611a33565b9161090f61022533611a92565b8380526005815261092560018386200154611acf565b838052600581528184206001600160a01b039093168085529281528184205460ff1615610950578380f35b8380526005815281842083855290528220805460ff191660011790553390827f2f8788117e7eff1d82e926ec794901d17c78024a50270940304540a733656f0d8180a48180808380f35b838234610399578160031936011261039957600c5490516001600160a01b039091168152602090f35b838234610399578160031936011261039957600d5490516001600160a01b039091168152602090f35b838234610399578160031936011261039957600b5490516001600160a01b039091168152602090f35b83823461039957816003193601126103995760ff602092541690519015158152f35b503461035757602036600319011261035757610a51611a33565b6006546001600160a01b0390610a6a908216331461205e565b60115493610a7b60ff8616156120aa565b600160ff1980961617601155818316808752600f602052848720916002865193610aa485611e0b565b549385602060ff871692838152019560081c16855203610b3257508652600f6020908152848720805487166001908117909155915183168752601081528487209091015493516001600160a01b03938416815293909116909116908201527ffb0b61949aee7eab954246b76cca582fbeb86e22b6cb648d2883fb4f28ca2b2090604090a16011541660115580f35b855163c84d787560e01b8152fd5b509034610357576020918260031936011261035357610b5d611a33565b6006546001600160a01b03949190610b78908616331461205e565b60115494610b8960ff8716156120aa565b600160ff1980971617601155808216808852600f84528488206001865191610bb083611e0b565b5491848760ff851692838152019360081c16835203610cb15790827fe0e8cd56dca38c840201a7fa0031a9d5914368b44ddd5f3a9758a5bb010c3670925116895260108552826001878b20015416938491610c0a83612154565b8a52600f8652868a2080548a16600217905586516001600160a01b03918216815291166020820152604090a1600c541691835190810191634a39e57f60e11b83526024820152602481526060810181811067ffffffffffffffff821117610c9e57845251869283929083905af1610c7f6120dc565b5015610c915750506011541660115580f35b516316a6ca0960e21b8152fd5b634e487b7160e01b885260418652602488fd5b855163c84d787560e01b81528790fd5b5091903461039957602091826003193601126108a157610cdf611a33565b938193829083918460018060a01b0396878481600654169b60248951809481936378da9c5960e11b8352169e8f878301525afa908115610ea6578391610ef8575b508a8352600f8552600160ff888520541614610d59575b5050845197151588525085169086015283169084015216606082015260809150f35b865163078f29cf60e01b815290858284818f5afa849281610ed9575b50610e24575050608099610d876120dc565b505b73deaddeaddeaddeaddeaddeaddeaddeaddead000089891603610d37578490879a93949a5192838092630a49cb0360e01b82525afa839181610df5575b50610de65750509085809392610dda6120dc565b50975b91929338610d37565b87945084919893925092610ddd565b610e16919250853d8711610e1d575b610e0e8183611e59565b810190612135565b9038610dc6565b503d610e04565b898216610e36575b5050608099610d89565b90979060ff1660018103610eb0575050855163bce5c11f60e01b815299848b8381845afa8015610ea65760809b8491610e89575b50975b898916610e7d575b819b50610e2c565b60019a50935038610e75565b610ea09150863d8811610e1d57610e0e8183611e59565b38610e6a565b87513d85823e3d90fd5b97600260809c929903610e6d5773deaddeaddeaddeaddeaddeaddeaddeaddead00009850610e6d565b610ef1919350873d8911610e1d57610e0e8183611e59565b9138610d75565b610f189150853d8711610f1e575b610f108183611e59565b81019061211c565b38610d20565b503d610f06565b8382346103995760203660031901126103995760209160ff9082906001600160a01b03610f50611a33565b1681526002855220541690519015158152f35b83823461039957816003193601126103995760075490516001600160a01b039091168152602090f35b509034610357576020366003190112610357573563ffffffff60e01b811680910361035757825260036020908152918190205490516001600160a01b039091168152f35b5082346108a15760203660031901126108a1576001600160a01b039061103390839083610ffb611a33565b168152601060205220916001818454169301541692519283928390602090939293604083019460018060a01b03809216845216910152565b0390f35b83823461039957816003193601126103995760065490516001600160a01b039091168152602090f35b503461035757602036600319011261035757813591838052600560205281842033855260205261109560ff8386205416612007565b82600e54146110d05750816020917f50e01964a144ee7e40d80d0792ff2641558654ef906fd81502421f22bf6ca92c93600e5551908152a180f35b606491519062461bcd60e51b825260208183015260248201526373616d6560e01b6044820152fd5b5082903461039957608036600319011261039957611114611a33565b61111c611a4e565b9260443560643567ffffffffffffffff81116103575761113f9036908801611a64565b600854336001600160a01b03918216149791949188158061143e575b6114275781309116036114105760148511156113f9576014833560601c930194601319019561118984612154565b838352602098600f8a52828985205460081c166113e2576111a985612176565b50156113cb5715611381578160095416916008541690600e54861061136a57856111d59130908461280d565b8751636eb1769f60e11b815230818c019081526001600160a01b03841660208201528a90829081906040010381855afa90811561136057908691859161132f575b50106112d9575b50878460248b858b51958694859363e34869d760e01b85528401525af19081156112cf5782916112a2575b501561128b57633b9aca009283810293818504149015171561127857506112719495965061246d565b5160018152f35b634e487b7160e01b815260118852602490fd5b855163472ed10360e01b81526007818a0152602490fd5b6112c29150883d8a116112c8575b6112ba8183611e59565b810190612434565b89611248565b503d6112b0565b87513d84823e3d90fd5b888260448c868c51958694859363095ea7b360e01b855284015260001960248401525af18015611325571561121d5761131e90893d8b116112c8576112ba8183611e59565b508961121d565b88513d85823e3d90fd5b8092508b8092503d8311611359575b6113488183611e59565b81010312610353578590518c611216565b503d61133e565b89513d86823e3d90fd5b885163472ed10360e01b81526006818d0152602490fd5b91506009541697600e54633b9aca008504106113b45750826113af9697986113aa92309161280d565b61246d565b611271565b602490600688519163472ed10360e01b8352820152fd5b885163472ed10360e01b81526005818d0152602490fd5b885163472ed10360e01b8152808c018c9052602490fd5b86516350f1c44960e11b81526003818b0152602490fd5b86516350f1c44960e11b81526002818b0152602490fd5b87516350f1c44960e11b81526001818c0152602490fd5b50816009541633141561115b565b838234610399578160031936011261039957600a5490516001600160a01b039091168152602090f35b50919034610399578260031936011261039957611490611a4e565b90336001600160a01b038316036114ac579061028a9135611f6a565b608490602085519162461bcd60e51b8352820152602f60248201527f416363657373436f6e74726f6c3a2063616e206f6e6c792072656e6f756e636560448201526e103937b632b9903337b91039b2b63360891b6064820152fd5b5090346103575781600319360112610357573590611523611a4e565b90828452600560205261153b60018286200154611acf565b828452600560209081528185206001600160a01b039093168086529290528084205460ff1615611569578380f35b82845260056020528084208285526020528320600160ff1982541617905533917f2f8788117e7eff1d82e926ec794901d17c78024a50270940304540a733656f0d8480a43880808380f35b50829034610399576080366003190112610399576115d0611a33565b6024936044359185359183151584036118895760643567ffffffffffffffff8111610524576116029036908301611a64565b95909461160e84612154565b861561187b576001600160a01b038481168952600f6020908152838a20549092919060081c81166118655761164286612176565b501561184f57600954811691156118115760085416600e5487106117fb5761166c8730338461280d565b8351636eb1769f60e11b8152308682019081526001600160a01b03841660208201528490829081906040010381855afa9081156117f157918885928d9485916117bc575b5010611759575b5090918b85518094819363e34869d760e01b83528b8a8401525af191821561174f578992611732575b50501561171c5750633b9aca009283810293818504149015171561170a575061028a94955061246d565b634e487b7160e01b8652601190528585fd5b9060078892519163472ed10360e01b8352820152fd5b6117489250803d106112c8576112ba8183611e59565b89806116e0565b83513d8b823e3d90fd5b855163095ea7b360e01b8152878101859052600019818f015292839160449183915af180156117b2579183918b93611795575b929190926116b7565b6117ab90833d85116112c8576112ba8183611e59565b508c61178c565b84513d8c823e3d90fd5b93929450505081813d83116117ea575b6117d68183611e59565b81010312610514578a91888592518f6116b0565b503d6117cc565b85513d8d823e3d90fd5b835163472ed10360e01b81526006818701528b90fd5b509892919050600e54633b9aca0086041061183b575050506113aa8261028a96973090339061280d565b600690519163472ed10360e01b8352820152fd5b835163472ed10360e01b81526005818701528b90fd5b835163472ed10360e01b81528086018690528b90fd5b505163111dc0fd60e31b8152fd5b8580fd5b8382346103995760203660031901126103995760ff816020936118ae611a33565b818052600586528282206001600160a01b039091168252855220549151911615158152f35b5090346103575760203660031901126103575781602093600192358152600585522001549051908152f35b83346108a15760203660031901126108a15761028a61191b611a33565b61192761022533611a92565b611e7b565b8382346103995760203660031901126103995760209160ff9082906001600160a01b03611957611a33565b168152600f85522054169051908152f35b5082346108a15760203660031901126108a1576001600160a01b039082908261198f611a33565b168152600f60205220549082519160ff8116835260081c166020820152f35b92919050346103535760203660031901126103535781359063ffffffff60e01b8216809203611a2f57602094637965db0b60e01b83149384156119f6575b5050505015158152f35b6301ffc9a760e01b8414945091929091908415611a1b575b50505050388080806119ec565b60ff94508252855220541638808080611a0e565b8480fd5b600435906001600160a01b0382168203611a4957565b600080fd5b602435906001600160a01b0382168203611a4957565b9181601f84011215611a495782359167ffffffffffffffff8311611a495760208381860195010111611a4957565b6001600160a01b031660009081527f05b8ccbb9d4d8fb16ea74ce3c29a41f1b461fbdaff4714a0d9a8eb05499746bc602052604090205460ff1690565b60009080825260209060058252604090818420338552835260ff828520541615611af95750505050565b815193336060860167ffffffffffffffff811187821017611dd4578452602a86528486019284368537865115611cec5760308453865191600192831015611dc0576078602189015360295b838111611d565750611d1457845191611b5c83611e3d565b60428352868301936060368637835115611d0057603085538351821015611d005790607860218501536041915b818311611c9257505050611c505792611c1e6048611c0f9794611c42946044989785519a8b93611be68b86019a7f416363657373436f6e74726f6c3a206163636f756e74200000000000000000008c525180926037880190611de8565b8401917001034b99036b4b9b9b4b733903937b6329607d1b603784015251809386840190611de8565b01036028810189520187611e59565b5194859362461bcd60e51b8552600485015251809281602486015285850190611de8565b601f01601f19168101030190fd5b60648585519062461bcd60e51b825280600483015260248201527f537472696e67733a20686578206c656e67746820696e73756666696369656e746044820152fd5b909192600f81166010811015611cec576f181899199a1a9b1b9c1cb0b131b232b360811b901a611cc28587611fe0565b5360041c928015611cd857600019019190611b89565b634e487b7160e01b82526011600452602482fd5b634e487b7160e01b83526032600452602483fd5b634e487b7160e01b81526032600452602490fd5b60648686519062461bcd60e51b825280600483015260248201527f537472696e67733a20686578206c656e67746820696e73756666696369656e746044820152fd5b90600f81166010811015611dac576f181899199a1a9b1b9c1cb0b131b232b360811b901a611d84838b611fe0565b5360041c908015611d985760001901611b44565b634e487b7160e01b85526011600452602485fd5b634e487b7160e01b86526032600452602486fd5b634e487b7160e01b84526032600452602484fd5b634e487b7160e01b83526041600452602483fd5b60005b838110611dfb5750506000910152565b8181015183820152602001611deb565b6040810190811067ffffffffffffffff821117611e2757604052565b634e487b7160e01b600052604160045260246000fd5b6080810190811067ffffffffffffffff821117611e2757604052565b90601f8019910116810190811067ffffffffffffffff821117611e2757604052565b6001600160a01b0316338103611f0d5760008181527f05b8ccbb9d4d8fb16ea74ce3c29a41f1b461fbdaff4714a0d9a8eb05499746bc602052604081205490919060ff16611ec7575050565b8180526005602052604082208183526020526040822060ff19815416905533917ff6391f5c32d9c69d2a47ea670b442974b53935d1edc7fd64eb21e047a839171b8180a4565b60405162461bcd60e51b815260206004820152602f60248201527f416363657373436f6e74726f6c3a2063616e206f6e6c792072656e6f756e636560448201526e103937b632b9903337b91039b2b63360891b6064820152608490fd5b906000918083526005602052604083209160018060a01b03169182845260205260ff604084205416611f9b57505050565b8083526005602052604083208284526020526040832060ff1981541690557ff6391f5c32d9c69d2a47ea670b442974b53935d1edc7fd64eb21e047a839171b339380a4565b908151811015611ff1570160200190565b634e487b7160e01b600052603260045260246000fd5b1561200e57565b60405162461bcd60e51b815260206004820152602260248201527f41636365737369626c653a2043616c6c6572206973206e6f7420616e2061646d60448201526134b760f11b6064820152608490fd5b1561206557565b60405162461bcd60e51b815260206004820152601a60248201527f73656e646572206973206e6f742061206c3252656769737465720000000000006044820152606490fd5b156120b157565b606460405162461bcd60e51b81526020600482015260046024820152636c6f636b60e01b6044820152fd5b3d15612117573d9067ffffffffffffffff8211611e27576040519161210b601f8201601f191660200184611e59565b82523d6000602084013e565b606090565b90816020910312611a49575160ff81168103611a495790565b90816020910312611a4957516001600160a01b0381168103611a495790565b6001600160a01b03161561216457565b604051633efa09af60e01b8152600490fd5b600654604080516378da9c5960e11b81526001600160a01b0393841660048083018290526000968796909587946020949185908290602490829087165afa908115612301579060ff918791612417575b50166001810361232a5750855163078f29cf60e01b815284818581855afa86918161230b575b5061220357505050505050506122006120dc565b50565b82169182612215575b50505050505050565b84849288519586809263bce5c11f60e01b82525afa9384156123015786946122e2575b508084161561220c5760085487516347b00fb360e11b81526001600160a01b03929091168216928101928352931660208201529597509395509391929091829185918290819060400103915afa9384156122d7575081936122a6575b5050506001913880808080808061220c565b9091809350813d83116122d0575b6122be8183611e59565b810103126108a1575051388080612294565b503d6122b4565b51913d9150823e3d90fd5b6122fa919450853d8711610e1d57610e0e8183611e59565b9238612238565b87513d88823e3d90fd5b612323919250863d8811610e1d57610e0e8183611e59565b90386121ec565b9294939260021461233e575b505050505050565b828591875192838092630a49cb0360e01b82525afa8491816123f8575b5061237b5750505050505061236e6120dc565b505b388080808080612336565b168061238c575b5050505050612370565b909294965083839294965051948580926307404d9360e21b82525afa9384156122d7575081936123c7575b5050506001913880808080612382565b9091809350813d83116123f1575b6123df8183611e59565b810103126108a15750513880806123b7565b503d6123d5565b612410919250843d8611610e1d57610e0e8183611e59565b903861235b565b61242e9150863d8811610f1e57610f108183611e59565b386121c6565b90816020910312611a4957518015158103611a495790565b908060209392818452848401376000828201840152601f01601f1916010190565b9060018060a01b03928360075416926040948086519263f6ae6f1360e01b84521696600497808985015260209485856024816000809c5af19485156128035788956127e4575b508385169081895260108752848a8a2054166127cd579084939291878c8c97600a541688519889926304d0bde760e11b8452830152818d816124f9604482018b8961244c565b88602483015203925af19586156127c3579088918b976127a4575b508a8c878082519261252584611e0b565b88845286840194828d16978887528982526010905220925116916bffffffffffffffffffffffff60a01b9283825416178155600101925116908254161790558b5161256f81611e0b565b60018152898101848152858d52600f8b528d8d20915160ff16825491600160a81b6101009003905160081b16916affffffffffffffffffffff60a81b16171790558b5194859485528a8a8601528c850160a0905260a08501906125d19261244c565b9160608401526080830152037f1526ff0a0299f7312457e24a4af3d354afc4d51a22017cc0bb86b8c9fed6624091a1600954600b548851636eb1769f60e11b8152308b82019081526001600160a01b039285169283166020820152928416928790829081906040010381865afa90811561279a578796959493929189918b9161275e575b50106126f8575b5050600b548851638340f54960e01b81526001600160a01b039384168b82019081529490931660208501526040840196909652909485928390036060019183918891165af19283156126ed57926126d0575b5050156126b9575050565b906003602492519163472ed10360e01b8352820152fd5b6126e69250803d106112c8576112ba8183611e59565b38806126ae565b8451903d90823e3d90fd5b60448b8a8c98949596979851958694859363095ea7b360e01b855284015260001960248401525af1801561275457908594939291612737575b8061265c565b61274d90853d87116112c8576112ba8183611e59565b5038612731565b88513d89823e3d90fd5b9293949596978092508391503d8311612793575b61277c8183611e59565b8101031261051c5790878796959493925138612655565b503d612772565b8a513d8b823e3d90fd5b6127bc919750823d8411610e1d57610e0e8183611e59565b9538612514565b8b513d8c823e3d90fd5b895163472ed10360e01b81526002818d0152602490fd5b6127fc919550863d8811610e1d57610e0e8183611e59565b93386124b3565b89513d8a823e3d90fd5b6040516323b872dd60e01b602082019081526001600160a01b039384166024830152939092166044830152606480830194909452928152600092839290918390612858608482611e59565b51926001600160a01b03165af161286d6120dc565b816128b7575b501561287b57565b60405162461bcd60e51b81526020600482015260146024820152731514905394d1915497d19493d357d1905253115160621b6044820152606490fd5b80518015925082156128cc575b505038612873565b6128df9250602080918301019101612434565b38806128c456fea164736f6c6343000812000a",
  "linkReferences": {},
  "deployedLinkReferences": {}
}