{
  "_format": "hh-sol-artifact-1",
  "contractName": "Layer2ManagerV1_1",
  "sourceName": "contracts/layer2/Layer2ManagerV1_1.sol",
  "abi": [
    {
      "inputs": [],
      "stateMutability": "nonpayable",
      "type": "constructor"
    },
    {
      "inputs": [],
      "name": "ExcludeError",
      "type": "error"
    },
    {
      "inputs": [
        {
          "internalType": "uint256",
          "name": "x",
          "type": "uint256"
        }
      ],
      "name": "OnApproveError",
      "type": "error"
    },
    {
      "inputs": [
        {
          "internalType": "uint256",
          "name": "x",
          "type": "uint256"
        }
      ],
      "name": "RegisterError",
      "type": "error"
    },
    {
      "inputs": [],
      "name": "StatusError",
      "type": "error"
    },
    {
      "inputs": [],
      "name": "ZeroAddressError",
      "type": "error"
    },
    {
      "inputs": [],
      "name": "ZeroBytesError",
      "type": "error"
    },
    {
      "anonymous": false,
      "inputs": [
        {
          "indexed": false,
          "internalType": "address",
          "name": "rollupConfig",
          "type": "address"
        },
        {
          "indexed": false,
          "internalType": "address",
          "name": "candidateAddOn",
          "type": "address"
        }
      ],
      "name": "PausedCandidateAddOn",
      "type": "event"
    },
    {
      "anonymous": false,
      "inputs": [
        {
          "indexed": false,
          "internalType": "address",
          "name": "rollupConfig",
          "type": "address"
        },
        {
          "indexed": false,
          "internalType": "uint256",
          "name": "wtonAmount",
          "type": "uint256"
        },
        {
          "indexed": false,
          "internalType": "string",
          "name": "memo",
          "type": "string"
        },
        {
          "indexed": false,
          "internalType": "address",
          "name": "operator",
          "type": "address"
        },
        {
          "indexed": false,
          "internalType": "address",
          "name": "candidateAddOn",
          "type": "address"
        }
      ],
      "name": "RegisteredCandidateAddOn",
      "type": "event"
    },
    {
      "anonymous": false,
      "inputs": [
        {
          "indexed": true,
          "internalType": "bytes32",
          "name": "role",
          "type": "bytes32"
        },
        {
          "indexed": true,
          "internalType": "bytes32",
          "name": "previousAdminRole",
          "type": "bytes32"
        },
        {
          "indexed": true,
          "internalType": "bytes32",
          "name": "newAdminRole",
          "type": "bytes32"
        }
      ],
      "name": "RoleAdminChanged",
      "type": "event"
    },
    {
      "anonymous": false,
      "inputs": [
        {
          "indexed": true,
          "internalType": "bytes32",
          "name": "role",
          "type": "bytes32"
        },
        {
          "indexed": true,
          "internalType": "address",
          "name": "account",
          "type": "address"
        },
        {
          "indexed": true,
          "internalType": "address",
          "name": "sender",
          "type": "address"
        }
      ],
      "name": "RoleGranted",
      "type": "event"
    },
    {
      "anonymous": false,
      "inputs": [
        {
          "indexed": true,
          "internalType": "bytes32",
          "name": "role",
          "type": "bytes32"
        },
        {
          "indexed": true,
          "internalType": "address",
          "name": "account",
          "type": "address"
        },
        {
          "indexed": true,
          "internalType": "address",
          "name": "sender",
          "type": "address"
        }
      ],
      "name": "RoleRevoked",
      "type": "event"
    },
    {
      "anonymous": false,
      "inputs": [
        {
          "indexed": false,
          "internalType": "address",
          "name": "_l2Register",
          "type": "address"
        },
        {
          "indexed": false,
          "internalType": "address",
          "name": "_operatorManagerFactory",
          "type": "address"
        },
        {
          "indexed": false,
          "internalType": "address",
          "name": "_ton",
          "type": "address"
        },
        {
          "indexed": false,
          "internalType": "address",
          "name": "_wton",
          "type": "address"
        },
        {
          "indexed": false,
          "internalType": "address",
          "name": "_dao",
          "type": "address"
        },
        {
          "indexed": false,
          "internalType": "address",
          "name": "_depositManager",
          "type": "address"
        },
        {
          "indexed": false,
          "internalType": "address",
          "name": "_seigManager",
          "type": "address"
        },
        {
          "indexed": false,
          "internalType": "address",
          "name": "_swapProxy",
          "type": "address"
        }
      ],
      "name": "SetAddresses",
      "type": "event"
    },
    {
      "anonymous": false,
      "inputs": [
        {
          "indexed": false,
          "internalType": "uint256",
          "name": "_minimumInitialDepositAmount",
          "type": "uint256"
        }
      ],
      "name": "SetMinimumInitialDepositAmount",
      "type": "event"
    },
    {
      "anonymous": false,
      "inputs": [
        {
          "indexed": false,
          "internalType": "address",
          "name": "_operatorManagerFactory",
          "type": "address"
        }
      ],
      "name": "SetOperatorManagerFactory",
      "type": "event"
    },
    {
      "anonymous": false,
      "inputs": [
        {
          "indexed": false,
          "internalType": "address",
          "name": "rollupConfig",
          "type": "address"
        },
        {
          "indexed": false,
          "internalType": "address",
          "name": "candidateAddOn",
          "type": "address"
        }
      ],
      "name": "UnpausedCandidateAddOn",
      "type": "event"
    },
    {
      "inputs": [],
      "name": "DEFAULT_ADMIN_ROLE",
      "outputs": [
        {
          "internalType": "bytes32",
          "name": "",
          "type": "bytes32"
        }
      ],
      "stateMutability": "view",
      "type": "function"
    },
    {
      "inputs": [],
      "name": "MINTER_ROLE",
      "outputs": [
        {
          "internalType": "bytes32",
          "name": "",
          "type": "bytes32"
        }
      ],
      "stateMutability": "view",
      "type": "function"
    },
    {
      "inputs": [
        {
          "internalType": "address",
          "name": "_rollupConfig",
          "type": "address"
        }
      ],
      "name": "_checkL1BridgeDetail",
      "outputs": [
        {
          "internalType": "bool",
          "name": "result",
          "type": "bool"
        },
        {
          "internalType": "address",
          "name": "l1Bridge",
          "type": "address"
        },
        {
          "internalType": "address",
          "name": "portal",
          "type": "address"
        },
        {
          "internalType": "address",
          "name": "l2Ton",
          "type": "address"
        },
        {
          "internalType": "uint8",
          "name": "_type",
          "type": "uint8"
        },
        {
          "internalType": "uint8",
          "name": "status",
          "type": "uint8"
        },
        {
          "internalType": "bool",
          "name": "rejectedSeigs",
          "type": "bool"
        },
        {
          "internalType": "bool",
          "name": "rejectedL2Deposit",
          "type": "bool"
        }
      ],
      "stateMutability": "view",
      "type": "function"
    },
    {
      "inputs": [
        {
          "internalType": "address",
          "name": "account",
          "type": "address"
        }
      ],
      "name": "addAdmin",
      "outputs": [],
      "stateMutability": "nonpayable",
      "type": "function"
    },
    {
      "inputs": [
        {
          "internalType": "address",
          "name": "",
          "type": "address"
        }
      ],
      "name": "aliveImplementation",
      "outputs": [
        {
          "internalType": "bool",
          "name": "",
          "type": "bool"
        }
      ],
      "stateMutability": "view",
      "type": "function"
    },
    {
      "inputs": [
        {
          "internalType": "address",
          "name": "_rollupConfig",
          "type": "address"
        },
        {
          "internalType": "string",
          "name": "_name",
          "type": "string"
        }
      ],
      "name": "availableRegister",
      "outputs": [
        {
          "internalType": "bool",
          "name": "result",
          "type": "bool"
        },
        {
          "internalType": "uint256",
          "name": "amount",
          "type": "uint256"
        }
      ],
      "stateMutability": "view",
      "type": "function"
    },
    {
      "inputs": [
        {
          "internalType": "address",
          "name": "_oper",
          "type": "address"
        }
      ],
      "name": "candidateAddOnOfOperator",
      "outputs": [
        {
          "internalType": "address",
          "name": "",
          "type": "address"
        }
      ],
      "stateMutability": "view",
      "type": "function"
    },
    {
      "inputs": [
        {
          "internalType": "address",
          "name": "_rollupConfig",
          "type": "address"
        }
      ],
      "name": "checkL1Bridge",
      "outputs": [
        {
          "internalType": "bool",
          "name": "result",
          "type": "bool"
        },
        {
          "internalType": "address",
          "name": "l1Bridge",
          "type": "address"
        },
        {
          "internalType": "address",
          "name": "portal",
          "type": "address"
        },
        {
          "internalType": "address",
          "name": "l2Ton",
          "type": "address"
        }
      ],
      "stateMutability": "view",
      "type": "function"
    },
    {
      "inputs": [
        {
          "internalType": "address",
          "name": "_rollupConfig",
          "type": "address"
        }
      ],
      "name": "checkL1BridgeDetail",
      "outputs": [
        {
          "internalType": "bool",
          "name": "result",
          "type": "bool"
        },
        {
          "internalType": "address",
          "name": "l1Bridge",
          "type": "address"
        },
        {
          "internalType": "address",
          "name": "portal",
          "type": "address"
        },
        {
          "internalType": "address",
          "name": "l2Ton",
          "type": "address"
        },
        {
          "internalType": "uint8",
          "name": "_type",
          "type": "uint8"
        },
        {
          "internalType": "uint8",
          "name": "status",
          "type": "uint8"
        },
        {
          "internalType": "bool",
          "name": "rejectedSeigs",
          "type": "bool"
        },
        {
          "internalType": "bool",
          "name": "rejectedL2Deposit",
          "type": "bool"
        }
      ],
      "stateMutability": "view",
      "type": "function"
    },
    {
      "inputs": [
        {
          "internalType": "address",
          "name": "_rollupConfig",
          "type": "address"
        }
      ],
      "name": "checkLayer2TVL",
      "outputs": [
        {
          "internalType": "bool",
          "name": "result",
          "type": "bool"
        },
        {
          "internalType": "uint256",
          "name": "amount",
          "type": "uint256"
        }
      ],
      "stateMutability": "view",
      "type": "function"
    },
    {
      "inputs": [],
      "name": "dao",
      "outputs": [
        {
          "internalType": "address",
          "name": "",
          "type": "address"
        }
      ],
      "stateMutability": "view",
      "type": "function"
    },
    {
      "inputs": [],
      "name": "depositManager",
      "outputs": [
        {
          "internalType": "address",
          "name": "",
          "type": "address"
        }
      ],
      "stateMutability": "view",
      "type": "function"
    },
    {
      "inputs": [
        {
          "internalType": "bytes32",
          "name": "role",
          "type": "bytes32"
        }
      ],
      "name": "getRoleAdmin",
      "outputs": [
        {
          "internalType": "bytes32",
          "name": "",
          "type": "bytes32"
        }
      ],
      "stateMutability": "view",
      "type": "function"
    },
    {
      "inputs": [
        {
          "internalType": "bytes32",
          "name": "role",
          "type": "bytes32"
        },
        {
          "internalType": "address",
          "name": "account",
          "type": "address"
        }
      ],
      "name": "grantRole",
      "outputs": [],
      "stateMutability": "nonpayable",
      "type": "function"
    },
    {
      "inputs": [
        {
          "internalType": "bytes32",
          "name": "role",
          "type": "bytes32"
        },
        {
          "internalType": "address",
          "name": "account",
          "type": "address"
        }
      ],
      "name": "hasRole",
      "outputs": [
        {
          "internalType": "bool",
          "name": "",
          "type": "bool"
        }
      ],
      "stateMutability": "view",
      "type": "function"
    },
    {
      "inputs": [
        {
          "internalType": "address",
          "name": "account",
          "type": "address"
        }
      ],
      "name": "isAdmin",
      "outputs": [
        {
          "internalType": "bool",
          "name": "",
          "type": "bool"
        }
      ],
      "stateMutability": "view",
      "type": "function"
    },
    {
      "inputs": [],
      "name": "isOwner",
      "outputs": [
        {
          "internalType": "bool",
          "name": "",
          "type": "bool"
        }
      ],
      "stateMutability": "view",
      "type": "function"
    },
    {
      "inputs": [],
      "name": "l1BridgeRegistry",
      "outputs": [
        {
          "internalType": "address",
          "name": "",
          "type": "address"
        }
      ],
      "stateMutability": "view",
      "type": "function"
    },
    {
      "inputs": [],
      "name": "minimumInitialDepositAmount",
      "outputs": [
        {
          "internalType": "uint256",
          "name": "",
          "type": "uint256"
        }
      ],
      "stateMutability": "view",
      "type": "function"
    },
    {
      "inputs": [
        {
          "internalType": "address",
          "name": "owner",
          "type": "address"
        },
        {
          "internalType": "address",
          "name": "spender",
          "type": "address"
        },
        {
          "internalType": "uint256",
          "name": "amount",
          "type": "uint256"
        },
        {
          "internalType": "bytes",
          "name": "data",
          "type": "bytes"
        }
      ],
      "name": "onApprove",
      "outputs": [
        {
          "internalType": "bool",
          "name": "",
          "type": "bool"
        }
      ],
      "stateMutability": "nonpayable",
      "type": "function"
    },
    {
      "inputs": [
        {
          "internalType": "address",
          "name": "",
          "type": "address"
        }
      ],
      "name": "operatorInfo",
      "outputs": [
        {
          "internalType": "address",
          "name": "rollupConfig",
          "type": "address"
        },
        {
          "internalType": "address",
          "name": "candidateAddOn",
          "type": "address"
        }
      ],
      "stateMutability": "view",
      "type": "function"
    },
    {
      "inputs": [],
      "name": "operatorManagerFactory",
      "outputs": [
        {
          "internalType": "address",
          "name": "",
          "type": "address"
        }
      ],
      "stateMutability": "view",
      "type": "function"
    },
    {
      "inputs": [
        {
          "internalType": "address",
          "name": "_rollupConfig",
          "type": "address"
        }
      ],
      "name": "operatorOfRollupConfig",
      "outputs": [
        {
          "internalType": "address",
          "name": "",
          "type": "address"
        }
      ],
      "stateMutability": "view",
      "type": "function"
    },
    {
      "inputs": [
        {
          "internalType": "address",
          "name": "rollupConfig",
          "type": "address"
        }
      ],
      "name": "pauseCandidateAddOn",
      "outputs": [],
      "stateMutability": "nonpayable",
      "type": "function"
    },
    {
      "inputs": [],
      "name": "pauseProxy",
      "outputs": [
        {
          "internalType": "bool",
          "name": "",
          "type": "bool"
        }
      ],
      "stateMutability": "view",
      "type": "function"
    },
    {
      "inputs": [
        {
          "internalType": "uint256",
          "name": "",
          "type": "uint256"
        }
      ],
      "name": "proxyImplementation",
      "outputs": [
        {
          "internalType": "address",
          "name": "",
          "type": "address"
        }
      ],
      "stateMutability": "view",
      "type": "function"
    },
    {
      "inputs": [
        {
          "internalType": "address",
          "name": "rollupConfig",
          "type": "address"
        },
        {
          "internalType": "uint256",
          "name": "amount",
          "type": "uint256"
        },
        {
          "internalType": "bool",
          "name": "flagTon",
          "type": "bool"
        },
        {
          "internalType": "string",
          "name": "memo",
          "type": "string"
        }
      ],
      "name": "registerCandidateAddOn",
      "outputs": [],
      "stateMutability": "nonpayable",
      "type": "function"
    },
    {
      "inputs": [
        {
          "internalType": "address",
          "name": "account",
          "type": "address"
        }
      ],
      "name": "removeAdmin",
      "outputs": [],
      "stateMutability": "nonpayable",
      "type": "function"
    },
    {
      "inputs": [],
      "name": "renounceOwnership",
      "outputs": [],
      "stateMutability": "nonpayable",
      "type": "function"
    },
    {
      "inputs": [
        {
          "internalType": "bytes32",
          "name": "role",
          "type": "bytes32"
        },
        {
          "internalType": "address",
          "name": "account",
          "type": "address"
        }
      ],
      "name": "renounceRole",
      "outputs": [],
      "stateMutability": "nonpayable",
      "type": "function"
    },
    {
      "inputs": [
        {
          "internalType": "bytes32",
          "name": "role",
          "type": "bytes32"
        },
        {
          "internalType": "address",
          "name": "account",
          "type": "address"
        }
      ],
      "name": "revokeRole",
      "outputs": [],
      "stateMutability": "nonpayable",
      "type": "function"
    },
    {
      "inputs": [
        {
          "internalType": "address",
          "name": "",
          "type": "address"
        }
      ],
      "name": "rollupConfigInfo",
      "outputs": [
        {
          "internalType": "uint8",
          "name": "status",
          "type": "uint8"
        },
        {
          "internalType": "address",
          "name": "operatorManager",
          "type": "address"
        }
      ],
      "stateMutability": "view",
      "type": "function"
    },
    {
      "inputs": [
        {
          "internalType": "address",
          "name": "_oper",
          "type": "address"
        }
      ],
      "name": "rollupConfigOfOperator",
      "outputs": [
        {
          "internalType": "address",
          "name": "",
          "type": "address"
        }
      ],
      "stateMutability": "view",
      "type": "function"
    },
    {
      "inputs": [],
      "name": "seigManager",
      "outputs": [
        {
          "internalType": "address",
          "name": "",
          "type": "address"
        }
      ],
      "stateMutability": "view",
      "type": "function"
    },
    {
      "inputs": [
        {
          "internalType": "bytes4",
          "name": "",
          "type": "bytes4"
        }
      ],
      "name": "selectorImplementation",
      "outputs": [
        {
          "internalType": "address",
          "name": "",
          "type": "address"
        }
      ],
      "stateMutability": "view",
      "type": "function"
    },
    {
      "inputs": [
        {
          "internalType": "address",
          "name": "_l1BridgeRegistry",
          "type": "address"
        },
        {
          "internalType": "address",
          "name": "_operatorManagerFactory",
          "type": "address"
        },
        {
          "internalType": "address",
          "name": "_ton",
          "type": "address"
        },
        {
          "internalType": "address",
          "name": "_wton",
          "type": "address"
        },
        {
          "internalType": "address",
          "name": "_dao",
          "type": "address"
        },
        {
          "internalType": "address",
          "name": "_depositManager",
          "type": "address"
        },
        {
          "internalType": "address",
          "name": "_seigManager",
          "type": "address"
        },
        {
          "internalType": "address",
          "name": "_swapProxy",
          "type": "address"
        }
      ],
      "name": "setAddresses",
      "outputs": [],
      "stateMutability": "nonpayable",
      "type": "function"
    },
    {
      "inputs": [
        {
          "internalType": "uint256",
          "name": "_minimumInitialDepositAmount",
          "type": "uint256"
        }
      ],
      "name": "setMinimumInitialDepositAmount",
      "outputs": [],
      "stateMutability": "nonpayable",
      "type": "function"
    },
    {
      "inputs": [
        {
          "internalType": "address",
          "name": "_operatorManagerFactory",
          "type": "address"
        }
      ],
      "name": "setOperatorManagerFactory",
      "outputs": [],
      "stateMutability": "nonpayable",
      "type": "function"
    },
    {
      "inputs": [
        {
          "internalType": "address",
          "name": "_rollupConfig",
          "type": "address"
        }
      ],
      "name": "statusLayer2",
      "outputs": [
        {
          "internalType": "uint8",
          "name": "",
          "type": "uint8"
        }
      ],
      "stateMutability": "view",
      "type": "function"
    },
    {
      "inputs": [
        {
          "internalType": "bytes4",
          "name": "interfaceId",
          "type": "bytes4"
        }
      ],
      "name": "supportsInterface",
      "outputs": [
        {
          "internalType": "bool",
          "name": "",
          "type": "bool"
        }
      ],
      "stateMutability": "view",
      "type": "function"
    },
    {
      "inputs": [],
      "name": "swapProxy",
      "outputs": [
        {
          "internalType": "address",
          "name": "",
          "type": "address"
        }
      ],
      "stateMutability": "view",
      "type": "function"
    },
    {
      "inputs": [],
      "name": "ton",
      "outputs": [
        {
          "internalType": "address",
          "name": "",
          "type": "address"
        }
      ],
      "stateMutability": "view",
      "type": "function"
    },
    {
      "inputs": [
        {
          "internalType": "address",
          "name": "newAdmin",
          "type": "address"
        }
      ],
      "name": "transferAdmin",
      "outputs": [],
      "stateMutability": "nonpayable",
      "type": "function"
    },
    {
      "inputs": [
        {
          "internalType": "address",
          "name": "newAdmin",
          "type": "address"
        }
      ],
      "name": "transferOwnership",
      "outputs": [],
      "stateMutability": "nonpayable",
      "type": "function"
    },
    {
      "inputs": [
        {
          "internalType": "address",
          "name": "rollupConfig",
          "type": "address"
        }
      ],
      "name": "unpauseCandidateAddOn",
      "outputs": [],
      "stateMutability": "nonpayable",
      "type": "function"
    },
    {
      "inputs": [
        {
          "internalType": "address",
          "name": "rollupConfig",
          "type": "address"
        },
        {
          "internalType": "uint256",
          "name": "amount",
          "type": "uint256"
        }
      ],
      "name": "updateSeigniorage",
      "outputs": [],
      "stateMutability": "nonpayable",
      "type": "function"
    },
    {
      "inputs": [],
      "name": "wton",
      "outputs": [
        {
          "internalType": "address",
          "name": "",
          "type": "address"
        }
      ],
      "stateMutability": "view",
      "type": "function"
    }
  ],
  "bytecode": "0x6080806040523461001657612fe2908161001c8239f35b600080fdfe608060408181526004918236101561001657600080fd5b600092833560e01c91826301ffc9a714611c49575081631785f53c14611c1b578163248a9ca314611bf057816324d7806c14611baa5781632e0f1775146114395781632f2ff15d14611afd57816332d89cc61461197c57816336568abe146118ea5781634162169f146118c15781634273ca16146115495781634318dc1d146114af5781634cdf7b161461143957816350c246d6146113d657816350d2a27614611392578163537671b01461131f578163550d01a3146112e157816358bf884f1461128c57816363a8fd891461126a5781636c7ac9d8146112415781636ec4be90146112185781636fb7f558146111ef578163704802751461113a578163715018a61461111457816372898c23146110ce57816375829def146110b157816379a0e6ea146110755781637bae05f11461103657816389c0db6214610d6a5781638d62d94914610d415781638f32d59b14610d0e57816391d1485414610cc7578163a217fddf14610cac578163a37d6aa714610c71578163aba8e57714610c48578163b911135f14610c15578163c04a0a42146108f7578163c5f16b89146107b6578163c845226514610731578163cc48b94714610708578163cf8f9110146106df578163d523c077146105d4578163d539139314610599578163d547741f1461055d57838263d733cfd0146103ea57508163e9d6ec4f146103cb578163f2fde38b1461026c575063ff600b691461022c57600080fd5b34610268576020366003190112610268576020916001600160a01b0390829082610254611ccd565b168152600f8552205460081c169051908152f35b5080fd5b919050346103c7576020806003193601126103c357610289611ccd565b61029a61029533611def565b6122f4565b6102a661029533611def565b6001600160a01b0316928315610382578333146103485750838052600581526102d460018386200154611e2c565b83805260058152818420838552815260ff8285205416156102fd575b836102fa33612168565b80f35b8380526005815281842083855290528220805460ff191660011790553390827f2f8788117e7eff1d82e926ec794901d17c78024a50270940304540a733656f0d8180a43880806102f0565b915162461bcd60e51b815291820152601660248201527520b1b1b2b9b9b4b136329d1039b0b6b29030b236b4b760511b6044820152606490fd5b915162461bcd60e51b815291820152601860248201527f41636365737369626c653a207a65726f206164647265737300000000000000006044820152606490fd5b8380fd5b8280fd5b505034610268578160031936011261026857602090600e549051908152f35b80843461055a57610100908160031936011261055657610408611ccd565b610410611ce8565b6001600160a01b0392604435848116908190036105525760643585811680910361054e576084359186831680930361054a5760a435938785168095036105465760c435958887168097036105425760e4359789891680990361053e578989916104b160ff7f617f1cba5d7b9d5d3c81f0d5c78720ec2be227878bac84c0851b70e4cf61cb089f808089925260056020528181203382526020522054166122f4565b16996bffffffffffffffffffffffff60a01b928b84600654161760065516918281600754161760075584816008541617600855858160095416176009558681600a541617600a558781600b541617600b558881600c541617600c55600d541617600d55815198895260208901528701526060860152608085015260a084015260c083015260e0820152a180f35b8b80fd5b8a80fd5b8980fd5b8880fd5b8780fd5b8680fd5b5050fd5b50fd5b919050346103c757806003193601126103c7576102fa91356105946001610582611ce8565b93838752600560205286200154611e2c565b612257565b505034610268578160031936011261026857602090517ff0887ba65ee2024ea881d91b74c2450ef19e1557f03bed3ea9f16b037cbe2dc98152f35b919050346103c75760203660031901126103c7576105f0611ccd565b6006546001600160a01b0390610609908216331461234b565b6011549361061a60ff861615612396565b600160ff1980961617601155818316808752600f60205284872091600286519361064385611d2c565b549385602060ff871692838152019560081c168552036106d157508652600f6020908152848720805487166001908117909155915183168752601081528487209091015493516001600160a01b03938416815293909116909116908201527faf0a20fb16d60a15e38b6cd70fa0cce0bd2a744265663dfcbc90a02b360caf8090604090a16011541660115580f35b855163c84d787560e01b8152fd5b50503461026857816003193601126102685760065490516001600160a01b039091168152602090f35b50503461026857816003193601126102685760085490516001600160a01b039091168152602090f35b5050346102685760203660031901126102685760207f2342c0559c82fec746d047e08479a8b46bf45d4265f1db1c3a685b542c06f6a291610770611ccd565b84805260058352818520338652835261078e60ff83872054166122f4565b600780546001600160a01b0319166001600160a01b039290921691821790559051908152a180f35b919050346103c757806003193601126103c7576107d1611ccd565b600c546001600160a01b0390811633036108b4578491818084936009541692168352600f6020528483205460081c16828551602081019263a9059cbb60e01b8452602482015260243560448201526044815261082c81611d5e565b51925af16108386123c8565b8161087d575b5015610848578280f35b906020606492519162461bcd60e51b8352820152600f60248201526e1514905394d1915497d19052531151608a1b6044820152fd5b8051801592508215610892575b50503861083e565b81925090602091810103126103c35760206108ad910161241a565b388061088a565b825162461bcd60e51b8152602081860152601b60248201527f73656e646572206973206e6f74206120536569674d616e6167657200000000006044820152606490fd5b83833461026857608036600319011261026857610912611ccd565b602493604435918535918315158403610c115760643567ffffffffffffffff8111610552576109449036908301611cfe565b9590946109508461272d565b8615610c03576001600160a01b038481168952600f6020908152838a20549092919060081c8116610bed5761098f610989368b8b611db8565b87612772565b5015610bd75760095481169115610b945760085416600e548710610b7e576109b987303384612ef4565b8351636eb1769f60e11b8152308682019081526001600160a01b03841660208201528490829081906040010381855afa908115610b7457918885928d948591610b3f575b5010610abf575b5090918b85518094819363e34869d760e01b83528b8a8401525af1918215610ab5578992610a7f575b505015610a695750633b9aca0092838102938185041490151715610a5757506102fa949550612ab0565b634e487b7160e01b8652601190528585fd5b9060078892519163472ed10360e01b8352820152fd5b90809250813d8311610aae575b610a968183611d7a565b8101031261054e57610aa79061241a565b8980610a2d565b503d610a8c565b83513d8b823e3d90fd5b855163095ea7b360e01b8152878101859052600019818f015292839160449183915af18015610b35579183918b93610afb575b92919092610a04565b8281939294503d8311610b2e575b610b138183611d7a565b81010312610546578991610b27849261241a565b508c610af2565b503d610b09565b84513d8c823e3d90fd5b93929450505081813d8311610b6d575b610b598183611d7a565b81010312610542578a91888592518f6109fd565b503d610b4f565b85513d8d823e3d90fd5b835163472ed10360e01b81526006818701528b90fd5b509892919050600e54633b9aca00860410610bc357505050610bbe826102fa969730903390612ef4565b612ab0565b600690519163472ed10360e01b8352820152fd5b835163472ed10360e01b81526005818701528b90fd5b835163472ed10360e01b81528086018690528b90fd5b505163111dc0fd60e31b8152fd5b8580fd5b9050346103c75760203660031901126103c75735825260016020908152918190205490516001600160a01b039091168152f35b50503461026857816003193601126102685760075490516001600160a01b039091168152602090f35b505034610268576020366003190112610268576020916001600160a01b0390829082610c9b611ccd565b168152601085522054169051908152f35b50503461026857816003193601126102685751908152602090f35b9050346103c757816003193601126103c7578160209360ff92610ce8611ce8565b90358252600586528282206001600160a01b039091168252855220549151911615158152f35b50503461026857816003193601126102685760ff8183806020955260058552818120338252855220541690519015158152f35b50503461026857816003193601126102685760095490516001600160a01b039091168152602090f35b838334610268576020806003193601126103c757610d86611ccd565b9383809560018060a01b03908185816006541692602489518094819363391e3b3760e01b83521695868a8301525afa90811561102c5791869186938691610fef575b5060ff1660018103610ef35750875163078f29cf60e01b815292839182905afa908115610ee9579082918491610eb1575b50169081610e28575b5050505050610e24905b51911515825260208201929092529081906040820190565b0390f35b8496506024919294939597506008541694875195869384926370a0823160e01b84528301525afa928315610ea5578193610e71575b50505090610e246001919084808080610e02565b9091809350813d8311610e9e575b610e898183611d7a565b81010312610e9b575051828080610e5d565b80fd5b503d610e7f565b508351903d90823e3d90fd5b809250868092503d8311610ee2575b610eca8183611d7a565b810103126103c757610edc8291612406565b89610df9565b503d610ec0565b86513d85823e3d90fd5b9092506002915014610f0e575b5050505050610e2490610e0c565b848491875192838092630a49cb0360e01b82525afa908115610ee9579082918491610fb7575b5016908115610f00578496506024919294939597506008541694875195869384926370a0823160e01b84528301525afa928315610ea5578193610f86575b50505090610e246001919084808080610f00565b9091809350813d8311610fb0575b610f9e8183611d7a565b81010312610e9b575051828080610f72565b503d610f94565b809250868092503d8311610fe8575b610fd08183611d7a565b810103126103c757610fe28291612406565b89610f34565b503d610fc6565b92809294508391503d8311611025575b6110098183611d7a565b810103126103c357849160ff61101f88936123f8565b90610dc8565b503d610fff565b87513d86823e3d90fd5b505034610268576020366003190112610268576020916001600160a01b0390600190839083611063611ccd565b16815260108652200154169051908152f35b5050346102685760203660031901126102685760209160ff9082906001600160a01b036110a0611ccd565b168152600f85522054169051908152f35b919050346103c7576020806003193601126103c35761029a611ccd565b828434610e9b576020366003190112610e9b576001600160a01b03908290826110f5611ccd565b168152600f60205220549082519160ff8116835260081c166020820152f35b8334610e9b5780600319360112610e9b5761113161029533611def565b6102fa33612168565b50503461026857602090816003193601126103c757611157611ccd565b9161116461029533611def565b8380526005815261117a60018386200154611e2c565b838052600581528184206001600160a01b039093168085529281528184205460ff16156111a5578380f35b8380526005815281842083855290528220805460ff191660011790553390827f2f8788117e7eff1d82e926ec794901d17c78024a50270940304540a733656f0d8180a43880808380f35b505034610268578160031936011261026857600c5490516001600160a01b039091168152602090f35b505034610268578160031936011261026857600d5490516001600160a01b039091168152602090f35b505034610268578160031936011261026857600b5490516001600160a01b039091168152602090f35b50503461026857816003193601126102685760ff602092541690519015158152f35b505034610268576020366003190112610268576080906112b26112ad611ccd565b6124bf565b50508651951515865250506001600160a01b039283166020850152908216938301939093529091166060820152f35b5050346102685760203660031901126102685760209160ff9082906001600160a01b0361130c611ccd565b1681526002855220541690519015158152f35b9050346103c757816003193601126103c757611339611ccd565b926024359067ffffffffffffffff8211610e9b5736602383011215610e9b57509261137361137992856024610e2497369301359101611db8565b90612772565b9151901515815260208101919091529081906040820190565b9050346103c75760203660031901126103c7573563ffffffff60e01b81168091036103c757825260036020908152918190205490516001600160a01b039091168152f35b828434610e9b576020366003190112610e9b576001600160a01b0390610e2490839083611401611ccd565b168152601060205220916001818454169301541692519283928390602090939293604083019460018060a01b03809216845216910152565b50503461026857602036600319011261026857610e249061145b6112ad611ccd565b975196151587526001600160a01b039586166020880152938516604087015293909116606085015260ff908116608085015290911660a0830152151560c082015290151560e0820152908190610100820190565b919050346103c75760203660031901126103c75781359183805260056020528184203385526020526114e660ff83862054166122f4565b82600e54146115215750816020917f50e01964a144ee7e40d80d0792ff2641558654ef906fd81502421f22bf6ca92c93600e5551908152a180f35b606491519062461bcd60e51b825260208183015260248201526373616d6560e01b6044820152fd5b83833461026857608036600319011261026857611564611ccd565b61156c611ce8565b9260443560643567ffffffffffffffff81116103c75761158f9036908801611cfe565b600854336001600160a01b0391821614979194918815806118b3575b61189c57813091160361188557601485111561186e576014833560601c93019460131901956115d98461272d565b838352602098600f8a52828985205460081c16611857576116046115fe368a8a611db8565b86612772565b501561184057156117fb578160095416916008541690600e5486106117e4578561163091309084612ef4565b8751636eb1769f60e11b815230818c019081526001600160a01b03841660208201528a90829081906040010381855afa9081156117da5790869185916117a9575b501061173c575b50878460248b858b51958694859363e34869d760e01b85528401525af19081156117325782916116fd575b50156116e657633b9aca00928381029381850414901517156116d357506116cc94959650612ab0565b5160018152f35b634e487b7160e01b815260118852602490fd5b855163472ed10360e01b81526007818a0152602490fd5b90508781813d831161172b575b6117148183611d7a565b81010312610268576117259061241a565b896116a3565b503d61170a565b87513d84823e3d90fd5b888260448c868c51958694859363095ea7b360e01b855284015260001960248401525af1801561179f5715611678578881813d8311611798575b6117808183611d7a565b810103126103c7576117919061241a565b5089611678565b503d611776565b88513d85823e3d90fd5b8092508b8092503d83116117d3575b6117c28183611d7a565b810103126103c3578590518c611671565b503d6117b8565b89513d86823e3d90fd5b885163472ed10360e01b81526006818d0152602490fd5b91506009541697600e54633b9aca00850410611829575082611824969798610bbe923091612ef4565b6116cc565b602490600688519163472ed10360e01b8352820152fd5b885163472ed10360e01b81526005818d0152602490fd5b885163472ed10360e01b8152808c018c9052602490fd5b86516350f1c44960e11b81526003818b0152602490fd5b86516350f1c44960e11b81526002818b0152602490fd5b87516350f1c44960e11b81526001818c0152602490fd5b5081600954163314156115ab565b505034610268578160031936011261026857600a5490516001600160a01b039091168152602090f35b83915034610268578260031936011261026857611905611ce8565b90336001600160a01b0383160361192157906102fa9135612257565b608490602085519162461bcd60e51b8352820152602f60248201527f416363657373436f6e74726f6c3a2063616e206f6e6c792072656e6f756e636560448201526e103937b632b9903337b91039b2b63360891b6064820152fd5b9050346103c757602091826003193601126103c357611999611ccd565b6006546001600160a01b039491906119b4908616331461234b565b601154946119c560ff871615612396565b600160ff1980971617601155808216808852600f845284882060018651916119ec83611d2c565b5491848760ff851692838152019360081c16835203611aed5790827f14280f6eab1c847215d9714b0aa6711ad26e21304f06a85a46ad07a1f11e8370925116895260108552826001878b20015416938491611a468361272d565b8a52600f8652868a2080548a16600217905586516001600160a01b03918216815291166020820152604090a1600c541691835190810191634a39e57f60e11b83526024820152602481526060810181811067ffffffffffffffff821117611ada57845251869283929083905af1611abb6123c8565b5015611acd5750506011541660115580f35b516316a6ca0960e21b8152fd5b634e487b7160e01b885260418652602488fd5b855163c84d787560e01b81528790fd5b9050346103c757816003193601126103c7573590611b19611ce8565b908284526005602052611b3160018286200154611e2c565b828452600560209081528185206001600160a01b039093168086529290528084205460ff1615611b5f578380f35b82845260056020528084208285526020528320600160ff1982541617905533917f2f8788117e7eff1d82e926ec794901d17c78024a50270940304540a733656f0d8480a43880808380f35b5050346102685760203660031901126102685760ff81602093611bcb611ccd565b818052600586528282206001600160a01b039091168252855220549151911615158152f35b9050346103c75760203660031901126103c75781602093600192358152600585522001549051908152f35b8334610e9b576020366003190112610e9b576102fa611c38611ccd565b611c4461029533611def565b612168565b849184346103c35760203660031901126103c35781359063ffffffff60e01b8216809203611cc957602094637965db0b60e01b8314938415611c90575b5050505015158152f35b6301ffc9a760e01b8414945091929091908415611cb5575b5050505083808080611c86565b60ff94508252855220541683808080611ca8565b8480fd5b600435906001600160a01b0382168203611ce357565b600080fd5b602435906001600160a01b0382168203611ce357565b9181601f84011215611ce35782359167ffffffffffffffff8311611ce35760208381860195010111611ce357565b6040810190811067ffffffffffffffff821117611d4857604052565b634e487b7160e01b600052604160045260246000fd5b6080810190811067ffffffffffffffff821117611d4857604052565b90601f8019910116810190811067ffffffffffffffff821117611d4857604052565b67ffffffffffffffff8111611d4857601f01601f191660200190565b929192611dc482611d9c565b91611dd26040519384611d7a565b829481845281830111611ce3578281602093846000960137010152565b6001600160a01b031660009081527f05b8ccbb9d4d8fb16ea74ce3c29a41f1b461fbdaff4714a0d9a8eb05499746bc602052604090205460ff1690565b60009080825260209060058252604090818420338552835260ff828520541615611e565750505050565b815193336060860167ffffffffffffffff811187821017612131578452602a86528486019284368537865115612049576030845386519160019283101561211d576078602189015360295b8381116120b3575061207157845191611eb983611d5e565b6042835286830193606036863783511561205d5760308553835182101561205d5790607860218501536041915b818311611fef57505050611fad5792611f7b6048611f6c9794611f9f946044989785519a8b93611f438b86019a7f416363657373436f6e74726f6c3a206163636f756e74200000000000000000008c525180926037880190612145565b8401917001034b99036b4b9b9b4b733903937b6329607d1b603784015251809386840190612145565b01036028810189520187611d7a565b5194859362461bcd60e51b8552600485015251809281602486015285850190612145565b601f01601f19168101030190fd5b60648585519062461bcd60e51b825280600483015260248201527f537472696e67733a20686578206c656e67746820696e73756666696369656e746044820152fd5b909192600f81166010811015612049576f181899199a1a9b1b9c1cb0b131b232b360811b901a61201f85876122cd565b5360041c92801561203557600019019190611ee6565b634e487b7160e01b82526011600452602482fd5b634e487b7160e01b83526032600452602483fd5b634e487b7160e01b81526032600452602490fd5b60648686519062461bcd60e51b825280600483015260248201527f537472696e67733a20686578206c656e67746820696e73756666696369656e746044820152fd5b90600f81166010811015612109576f181899199a1a9b1b9c1cb0b131b232b360811b901a6120e1838b6122cd565b5360041c9080156120f55760001901611ea1565b634e487b7160e01b85526011600452602485fd5b634e487b7160e01b86526032600452602486fd5b634e487b7160e01b84526032600452602484fd5b634e487b7160e01b83526041600452602483fd5b60005b8381106121585750506000910152565b8181015183820152602001612148565b6001600160a01b03163381036121fa5760008181527f05b8ccbb9d4d8fb16ea74ce3c29a41f1b461fbdaff4714a0d9a8eb05499746bc602052604081205490919060ff166121b4575050565b8180526005602052604082208183526020526040822060ff19815416905533917ff6391f5c32d9c69d2a47ea670b442974b53935d1edc7fd64eb21e047a839171b8180a4565b60405162461bcd60e51b815260206004820152602f60248201527f416363657373436f6e74726f6c3a2063616e206f6e6c792072656e6f756e636560448201526e103937b632b9903337b91039b2b63360891b6064820152608490fd5b906000918083526005602052604083209160018060a01b03169182845260205260ff60408420541661228857505050565b8083526005602052604083208284526020526040832060ff1981541690557ff6391f5c32d9c69d2a47ea670b442974b53935d1edc7fd64eb21e047a839171b339380a4565b9081518110156122de570160200190565b634e487b7160e01b600052603260045260246000fd5b156122fb57565b60405162461bcd60e51b815260206004820152602260248201527f41636365737369626c653a2043616c6c6572206973206e6f7420616e2061646d60448201526134b760f11b6064820152608490fd5b1561235257565b606460405162461bcd60e51b815260206004820152602060248201527f73656e646572206973206e6f742061204c3142726964676552656769737472796044820152fd5b1561239d57565b606460405162461bcd60e51b81526020600482015260046024820152636c6f636b60e01b6044820152fd5b3d156123f3573d906123d982611d9c565b916123e76040519384611d7a565b82523d6000602084013e565b606090565b519060ff82168203611ce357565b51906001600160a01b0382168203611ce357565b51908115158203611ce357565b919060a083820312611ce35761243c836123f8565b9261244960208201612406565b926124566040830161241a565b926124636060840161241a565b9260808101519067ffffffffffffffff8211611ce3570181601f82011215611ce357805161249081611d9c565b9261249e6040519485611d7a565b81845260208284010111611ce3576124bc9160208085019101612145565b90565b600091600091828092819260018060a01b03908160065416926040948386519363f5e9b26b60e01b855216958660048501528184602481895afa948515612722578295839584916126f2575b5094958098808552602091600f835260ff85872054169960018b14612534575b50505050505050565b855163078f29cf60e01b8152908482600481875afa9182156126e85788926126b1575b50858216612600575b505060ff16600214612574575b808061252b565b9080600492969e9596855193848092630a49cb0360e01b82525afa9384156125f7575085936125bf575b505081166125b4575050975b388080808061256d565b9150989650956125aa565b9080929350813d83116125f0575b6125d78183611d7a565b810103126103c3576125e890612406565b90388061259e565b503d6125cd565b513d87823e3d90fd5b60ff8316600181149081156126a6575b50612632575b50848d16612625575b80612560565b60019f509d5060ff61261f565b6024919d5084908751928380926312dea97560e21b82528760048301525afa90811561269c578791612667575b509b38612616565b90508381813d8311612695575b61267e8183611d7a565b810103126105525761268f90612406565b3861265f565b503d612674565b86513d89823e3d90fd5b600291501438612610565b9091508481813d83116126e1575b6126c98183611d7a565b8101031261054e576126da90612406565b9038612557565b503d6126bf565b87513d8a823e3d90fd5b919650506127139194503d8084833e61270b8183611d7a565b810190612427565b5095929096915095943861250b565b5051903d90823e3d90fd5b6001600160a01b03161561273d57565b604051633efa09af60e01b8152600490fd5b602081519101519060208110612763575090565b6000199060200360031b1b1690565b916000926000928360018060a01b03918260065416926040948186519163f5e9b26b60e01b835216928482602481600499888b8301525afa908115612a125785928692612a62575b506127c76127cd9161274f565b9161274f565b03612a555760ff16600181036128dd57508451809263078f29cf60e01b8252818660209586935afa9081156128d357908291859161289b575b50169081612817575b505050505050565b829496985060249192939597506008541695875196879384926370a0823160e01b84528301525afa9384156128905750819361285f575b50505060019138808080808061280f565b9091809350813d8311612889575b6128778183611d7a565b81010312610e9b57505138808061284e565b503d61286d565b51913d9150823e3d90fd5b809250848092503d83116128cc575b6128b48183611d7a565b810103126103c3576128c68291612406565b38612806565b503d6128aa565b86513d86823e3d90fd5b6002146128ec575b5050505050565b84519063078f29cf60e01b825260209283838781845afa928315612a1257869185918795612a1c575b508851630a49cb0360e01b815292839182905afa908115612a125790829186916129da575b5016918183151591826129ce575b5050612955575b506128e5565b829496985060249192939597506008541695875196879384926370a0823160e01b84528301525afa9384156128905750819361299d575b50505060019138808080808061294f565b9091809350813d83116129c7575b6129b58183611d7a565b81010312610e9b57505138808061298c565b503d6129ab565b16151590508138612948565b809250858092503d8311612a0b575b6129f38183611d7a565b81010312611cc957612a058291612406565b3861293a565b503d6129e9565b87513d87823e3d90fd5b9250935081813d8311612a4e575b612a348183611d7a565b81010312611cc95783612a478792612406565b9338612915565b503d612a2a565b5050509450505090508190565b6127c793506127cd919250612a80903d8089833e61270b8183611d7a565b969392505050939291506127ba565b908060209392818452848401376000828201840152601f01601f1916010190565b9092919260018060a01b039081600754166040938385519163f802ead360e01b83521693600496858884015260209560249987858c816000809a5af1948515612eea578695612eb3575b50838516908115612e9d5781875260108952848a88205416612e87579084939291898b8d8f98600a5416908b8351809b81958294634892afd360e01b845283015288612b4a604484018d8b612a8f565b9183015203925af1958615612e7d57908a8c8a938499612e34575b50908780838b945193612b7785611d2c565b898552888382870197169889885252601090528d20925116916bffffffffffffffffffffffff60a01b9283825416178155600101925116908254161790558b51612bc081611d2c565b600181528b8101848152858b52600f8d528d8b20915160ff16825491600160a81b6101009003905160081b16916affffffffffffffffffffff60a81b16171790558b5194859485528a8c8601528c850160a0905260a0850190612c2292612a8f565b9160608401526080830152037f3685763fd42e5061ff53b001782ad759eafbc93a460b368a4ce42228ec45da9891a1600954600b548851636eb1769f60e11b8152308b82019081529184166001600160a01b0381166020840152928416918990829081906040010381855afa908115612e2a57878d938a8c99989796948f948491612de9575b5010612d61575b5050505050600b5416908489612cf58a5198899687958694638340f54960e01b8652850160409194939294606082019560018060a01b0380921683521660208201520152565b03925af1928315610ea5578193612d28575b50505015612d1457505050565b600390519163472ed10360e01b8352820152fd5b9091809350813d8311612d5a575b612d408183611d7a565b81010312610e9b5750612d529061241a565b388080612d07565b503d612d36565b90604492918d99959697989951968795869463095ea7b360e01b8652850152600019908401525af18015612ddf57908794939291612da4575b808a878d93612caf565b9091929381813d8311612dd8575b612dbc8183611d7a565b81010312611cc95790612dd18794939261241a565b5038612d9a565b503d612db2565b88513d87823e3d90fd5b959798999a9450505093505081813d8311612e23575b612e098183611d7a565b8101031261055257918a878d938a8c999897965138612ca8565b503d612dff565b8a513d89823e3d90fd5b9350509092939495965081813d8311612e76575b612e528183611d7a565b8101031261054e5785949392918b8b87612e6c8c95612406565b9950919091612b65565b503d612e48565b8b513d8a823e3d90fd5b895163472ed10360e01b81526002818d01528c90fd5b895163472ed10360e01b81526001818d01528c90fd5b9094508781813d8311612ee3575b612ecb8183611d7a565b81010312610c1157612edc90612406565b9338612afa565b503d612ec1565b89513d88823e3d90fd5b6040516323b872dd60e01b602082019081526001600160a01b039384166024830152939092166044830152606480830194909452928152600092839290918390612f3f608482611d7a565b51926001600160a01b03165af1612f546123c8565b81612f9e575b5015612f6257565b60405162461bcd60e51b81526020600482015260146024820152731514905394d1915497d19493d357d1905253115160621b6044820152606490fd5b8051801592508215612fb3575b505038612f5a565b8192509060209181010312611ce3576020612fce910161241a565b3880612fab56fea164736f6c6343000813000a",
  "linkReferences": {},
  "deployedLinkReferences": {}
}