{
  "_format": "hh-sol-artifact-1",
  "contractName": "Layer2ManagerV1_1",
  "sourceName": "contracts/layer2/Layer2ManagerV1_1.sol",
  "abi": [
    {
      "inputs": [],
      "stateMutability": "nonpayable",
      "type": "constructor"
    },
    {
      "anonymous": false,
      "inputs": [
        {
          "indexed": false,
          "internalType": "address",
          "name": "systemConfig",
          "type": "address"
        },
        {
          "indexed": false,
          "internalType": "address",
          "name": "_layer2",
          "type": "address"
        }
      ],
      "name": "PausedLayer2Candidate",
      "type": "event"
    },
    {
      "anonymous": false,
      "inputs": [
        {
          "indexed": false,
          "internalType": "address",
          "name": "systemConfig",
          "type": "address"
        },
        {
          "indexed": false,
          "internalType": "uint256",
          "name": "wtonAmount",
          "type": "uint256"
        },
        {
          "indexed": false,
          "internalType": "string",
          "name": "memo",
          "type": "string"
        },
        {
          "indexed": false,
          "internalType": "address",
          "name": "operator",
          "type": "address"
        },
        {
          "indexed": false,
          "internalType": "address",
          "name": "layer2Candidate",
          "type": "address"
        }
      ],
      "name": "RegisteredLayer2Candidate",
      "type": "event"
    },
    {
      "anonymous": false,
      "inputs": [
        {
          "indexed": true,
          "internalType": "bytes32",
          "name": "role",
          "type": "bytes32"
        },
        {
          "indexed": true,
          "internalType": "bytes32",
          "name": "previousAdminRole",
          "type": "bytes32"
        },
        {
          "indexed": true,
          "internalType": "bytes32",
          "name": "newAdminRole",
          "type": "bytes32"
        }
      ],
      "name": "RoleAdminChanged",
      "type": "event"
    },
    {
      "anonymous": false,
      "inputs": [
        {
          "indexed": true,
          "internalType": "bytes32",
          "name": "role",
          "type": "bytes32"
        },
        {
          "indexed": true,
          "internalType": "address",
          "name": "account",
          "type": "address"
        },
        {
          "indexed": true,
          "internalType": "address",
          "name": "sender",
          "type": "address"
        }
      ],
      "name": "RoleGranted",
      "type": "event"
    },
    {
      "anonymous": false,
      "inputs": [
        {
          "indexed": true,
          "internalType": "bytes32",
          "name": "role",
          "type": "bytes32"
        },
        {
          "indexed": true,
          "internalType": "address",
          "name": "account",
          "type": "address"
        },
        {
          "indexed": true,
          "internalType": "address",
          "name": "sender",
          "type": "address"
        }
      ],
      "name": "RoleRevoked",
      "type": "event"
    },
    {
      "anonymous": false,
      "inputs": [
        {
          "indexed": false,
          "internalType": "address",
          "name": "_l2Register",
          "type": "address"
        },
        {
          "indexed": false,
          "internalType": "address",
          "name": "_operatorFactory",
          "type": "address"
        },
        {
          "indexed": false,
          "internalType": "address",
          "name": "_ton",
          "type": "address"
        },
        {
          "indexed": false,
          "internalType": "address",
          "name": "_wton",
          "type": "address"
        },
        {
          "indexed": false,
          "internalType": "address",
          "name": "_dao",
          "type": "address"
        },
        {
          "indexed": false,
          "internalType": "address",
          "name": "_depositManager",
          "type": "address"
        },
        {
          "indexed": false,
          "internalType": "address",
          "name": "_seigManager",
          "type": "address"
        },
        {
          "indexed": false,
          "internalType": "address",
          "name": "_swapProxy",
          "type": "address"
        }
      ],
      "name": "SetAddresses",
      "type": "event"
    },
    {
      "anonymous": false,
      "inputs": [
        {
          "indexed": false,
          "internalType": "uint256",
          "name": "_minimumInitialDepositAmount",
          "type": "uint256"
        }
      ],
      "name": "SetMinimumInitialDepositAmount",
      "type": "event"
    },
    {
      "anonymous": false,
      "inputs": [
        {
          "indexed": false,
          "internalType": "address",
          "name": "systemConfig",
          "type": "address"
        },
        {
          "indexed": false,
          "internalType": "address",
          "name": "_layer2",
          "type": "address"
        }
      ],
      "name": "UnpausedLayer2Candidate",
      "type": "event"
    },
    {
      "inputs": [],
      "name": "DEFAULT_ADMIN_ROLE",
      "outputs": [
        {
          "internalType": "bytes32",
          "name": "",
          "type": "bytes32"
        }
      ],
      "stateMutability": "view",
      "type": "function"
    },
    {
      "inputs": [],
      "name": "MINTER_ROLE",
      "outputs": [
        {
          "internalType": "bytes32",
          "name": "",
          "type": "bytes32"
        }
      ],
      "stateMutability": "view",
      "type": "function"
    },
    {
      "inputs": [
        {
          "internalType": "address",
          "name": "account",
          "type": "address"
        }
      ],
      "name": "addAdmin",
      "outputs": [],
      "stateMutability": "nonpayable",
      "type": "function"
    },
    {
      "inputs": [
        {
          "internalType": "address",
          "name": "",
          "type": "address"
        }
      ],
      "name": "aliveImplementation",
      "outputs": [
        {
          "internalType": "bool",
          "name": "",
          "type": "bool"
        }
      ],
      "stateMutability": "view",
      "type": "function"
    },
    {
      "inputs": [
        {
          "internalType": "address",
          "name": "_systemConfig",
          "type": "address"
        }
      ],
      "name": "checkL1Bridge",
      "outputs": [
        {
          "internalType": "bool",
          "name": "result",
          "type": "bool"
        },
        {
          "internalType": "address",
          "name": "l1Bridge",
          "type": "address"
        },
        {
          "internalType": "address",
          "name": "l2Ton",
          "type": "address"
        }
      ],
      "stateMutability": "view",
      "type": "function"
    },
    {
      "inputs": [
        {
          "internalType": "address",
          "name": "_systemConfig",
          "type": "address"
        }
      ],
      "name": "checkLayer2TVL",
      "outputs": [
        {
          "internalType": "bool",
          "name": "result",
          "type": "bool"
        },
        {
          "internalType": "uint256",
          "name": "amount",
          "type": "uint256"
        }
      ],
      "stateMutability": "view",
      "type": "function"
    },
    {
      "inputs": [],
      "name": "dao",
      "outputs": [
        {
          "internalType": "address",
          "name": "",
          "type": "address"
        }
      ],
      "stateMutability": "view",
      "type": "function"
    },
    {
      "inputs": [],
      "name": "depositManager",
      "outputs": [
        {
          "internalType": "address",
          "name": "",
          "type": "address"
        }
      ],
      "stateMutability": "view",
      "type": "function"
    },
    {
      "inputs": [
        {
          "internalType": "bytes32",
          "name": "role",
          "type": "bytes32"
        }
      ],
      "name": "getRoleAdmin",
      "outputs": [
        {
          "internalType": "bytes32",
          "name": "",
          "type": "bytes32"
        }
      ],
      "stateMutability": "view",
      "type": "function"
    },
    {
      "inputs": [
        {
          "internalType": "bytes32",
          "name": "role",
          "type": "bytes32"
        },
        {
          "internalType": "address",
          "name": "account",
          "type": "address"
        }
      ],
      "name": "grantRole",
      "outputs": [],
      "stateMutability": "nonpayable",
      "type": "function"
    },
    {
      "inputs": [
        {
          "internalType": "bytes32",
          "name": "role",
          "type": "bytes32"
        },
        {
          "internalType": "address",
          "name": "account",
          "type": "address"
        }
      ],
      "name": "hasRole",
      "outputs": [
        {
          "internalType": "bool",
          "name": "",
          "type": "bool"
        }
      ],
      "stateMutability": "view",
      "type": "function"
    },
    {
      "inputs": [
        {
          "internalType": "address",
          "name": "account",
          "type": "address"
        }
      ],
      "name": "isAdmin",
      "outputs": [
        {
          "internalType": "bool",
          "name": "",
          "type": "bool"
        }
      ],
      "stateMutability": "view",
      "type": "function"
    },
    {
      "inputs": [],
      "name": "isOwner",
      "outputs": [
        {
          "internalType": "bool",
          "name": "",
          "type": "bool"
        }
      ],
      "stateMutability": "view",
      "type": "function"
    },
    {
      "inputs": [
        {
          "internalType": "address",
          "name": "",
          "type": "address"
        }
      ],
      "name": "issueStatusLayer2",
      "outputs": [
        {
          "internalType": "uint8",
          "name": "",
          "type": "uint8"
        }
      ],
      "stateMutability": "view",
      "type": "function"
    },
    {
      "inputs": [],
      "name": "l2Register",
      "outputs": [
        {
          "internalType": "address",
          "name": "",
          "type": "address"
        }
      ],
      "stateMutability": "view",
      "type": "function"
    },
    {
      "inputs": [
        {
          "internalType": "address",
          "name": "",
          "type": "address"
        }
      ],
      "name": "layer2CandidateOfOperator",
      "outputs": [
        {
          "internalType": "address",
          "name": "",
          "type": "address"
        }
      ],
      "stateMutability": "view",
      "type": "function"
    },
    {
      "inputs": [],
      "name": "minimumInitialDepositAmount",
      "outputs": [
        {
          "internalType": "uint256",
          "name": "",
          "type": "uint256"
        }
      ],
      "stateMutability": "view",
      "type": "function"
    },
    {
      "inputs": [
        {
          "internalType": "address",
          "name": "owner",
          "type": "address"
        },
        {
          "internalType": "address",
          "name": "spender",
          "type": "address"
        },
        {
          "internalType": "uint256",
          "name": "amount",
          "type": "uint256"
        },
        {
          "internalType": "bytes",
          "name": "data",
          "type": "bytes"
        }
      ],
      "name": "onApprove",
      "outputs": [
        {
          "internalType": "bool",
          "name": "",
          "type": "bool"
        }
      ],
      "stateMutability": "nonpayable",
      "type": "function"
    },
    {
      "inputs": [],
      "name": "operatorFactory",
      "outputs": [
        {
          "internalType": "address",
          "name": "",
          "type": "address"
        }
      ],
      "stateMutability": "view",
      "type": "function"
    },
    {
      "inputs": [
        {
          "internalType": "address",
          "name": "",
          "type": "address"
        }
      ],
      "name": "operatorOfSystemConfig",
      "outputs": [
        {
          "internalType": "address",
          "name": "",
          "type": "address"
        }
      ],
      "stateMutability": "view",
      "type": "function"
    },
    {
      "inputs": [
        {
          "internalType": "address",
          "name": "systemConfig",
          "type": "address"
        }
      ],
      "name": "pauseLayer2Candidate",
      "outputs": [],
      "stateMutability": "nonpayable",
      "type": "function"
    },
    {
      "inputs": [],
      "name": "pauseProxy",
      "outputs": [
        {
          "internalType": "bool",
          "name": "",
          "type": "bool"
        }
      ],
      "stateMutability": "view",
      "type": "function"
    },
    {
      "inputs": [
        {
          "internalType": "uint256",
          "name": "",
          "type": "uint256"
        }
      ],
      "name": "proxyImplementation",
      "outputs": [
        {
          "internalType": "address",
          "name": "",
          "type": "address"
        }
      ],
      "stateMutability": "view",
      "type": "function"
    },
    {
      "inputs": [
        {
          "internalType": "address",
          "name": "systemConfig",
          "type": "address"
        },
        {
          "internalType": "uint256",
          "name": "amount",
          "type": "uint256"
        },
        {
          "internalType": "bool",
          "name": "flagTon",
          "type": "bool"
        },
        {
          "internalType": "string",
          "name": "memo",
          "type": "string"
        }
      ],
      "name": "registerLayer2Candidate",
      "outputs": [],
      "stateMutability": "nonpayable",
      "type": "function"
    },
    {
      "inputs": [
        {
          "internalType": "address",
          "name": "account",
          "type": "address"
        }
      ],
      "name": "removeAdmin",
      "outputs": [],
      "stateMutability": "nonpayable",
      "type": "function"
    },
    {
      "inputs": [],
      "name": "renounceOwnership",
      "outputs": [],
      "stateMutability": "nonpayable",
      "type": "function"
    },
    {
      "inputs": [
        {
          "internalType": "bytes32",
          "name": "role",
          "type": "bytes32"
        },
        {
          "internalType": "address",
          "name": "account",
          "type": "address"
        }
      ],
      "name": "renounceRole",
      "outputs": [],
      "stateMutability": "nonpayable",
      "type": "function"
    },
    {
      "inputs": [
        {
          "internalType": "bytes32",
          "name": "role",
          "type": "bytes32"
        },
        {
          "internalType": "address",
          "name": "account",
          "type": "address"
        }
      ],
      "name": "revokeRole",
      "outputs": [],
      "stateMutability": "nonpayable",
      "type": "function"
    },
    {
      "inputs": [],
      "name": "seigManager",
      "outputs": [
        {
          "internalType": "address",
          "name": "",
          "type": "address"
        }
      ],
      "stateMutability": "view",
      "type": "function"
    },
    {
      "inputs": [
        {
          "internalType": "bytes4",
          "name": "",
          "type": "bytes4"
        }
      ],
      "name": "selectorImplementation",
      "outputs": [
        {
          "internalType": "address",
          "name": "",
          "type": "address"
        }
      ],
      "stateMutability": "view",
      "type": "function"
    },
    {
      "inputs": [
        {
          "internalType": "address",
          "name": "_l2Register",
          "type": "address"
        },
        {
          "internalType": "address",
          "name": "_operatorFactory",
          "type": "address"
        },
        {
          "internalType": "address",
          "name": "_ton",
          "type": "address"
        },
        {
          "internalType": "address",
          "name": "_wton",
          "type": "address"
        },
        {
          "internalType": "address",
          "name": "_dao",
          "type": "address"
        },
        {
          "internalType": "address",
          "name": "_depositManager",
          "type": "address"
        },
        {
          "internalType": "address",
          "name": "_seigManager",
          "type": "address"
        },
        {
          "internalType": "address",
          "name": "_swapProxy",
          "type": "address"
        }
      ],
      "name": "setAddresses",
      "outputs": [],
      "stateMutability": "nonpayable",
      "type": "function"
    },
    {
      "inputs": [
        {
          "internalType": "uint256",
          "name": "_minimumInitialDepositAmount",
          "type": "uint256"
        }
      ],
      "name": "setMinimumInitialDepositAmount",
      "outputs": [],
      "stateMutability": "nonpayable",
      "type": "function"
    },
    {
      "inputs": [
        {
          "internalType": "bytes4",
          "name": "interfaceId",
          "type": "bytes4"
        }
      ],
      "name": "supportsInterface",
      "outputs": [
        {
          "internalType": "bool",
          "name": "",
          "type": "bool"
        }
      ],
      "stateMutability": "view",
      "type": "function"
    },
    {
      "inputs": [],
      "name": "swapProxy",
      "outputs": [
        {
          "internalType": "address",
          "name": "",
          "type": "address"
        }
      ],
      "stateMutability": "view",
      "type": "function"
    },
    {
      "inputs": [
        {
          "internalType": "address",
          "name": "",
          "type": "address"
        }
      ],
      "name": "systemConfigOfOperator",
      "outputs": [
        {
          "internalType": "address",
          "name": "",
          "type": "address"
        }
      ],
      "stateMutability": "view",
      "type": "function"
    },
    {
      "inputs": [],
      "name": "ton",
      "outputs": [
        {
          "internalType": "address",
          "name": "",
          "type": "address"
        }
      ],
      "stateMutability": "view",
      "type": "function"
    },
    {
      "inputs": [
        {
          "internalType": "address",
          "name": "newAdmin",
          "type": "address"
        }
      ],
      "name": "transferAdmin",
      "outputs": [],
      "stateMutability": "nonpayable",
      "type": "function"
    },
    {
      "inputs": [
        {
          "internalType": "address",
          "name": "newAdmin",
          "type": "address"
        }
      ],
      "name": "transferOwnership",
      "outputs": [],
      "stateMutability": "nonpayable",
      "type": "function"
    },
    {
      "inputs": [
        {
          "internalType": "address",
          "name": "systemConfig",
          "type": "address"
        }
      ],
      "name": "unpauseLayer2Cnadidate",
      "outputs": [],
      "stateMutability": "nonpayable",
      "type": "function"
    },
    {
      "inputs": [
        {
          "internalType": "address",
          "name": "systemConfig",
          "type": "address"
        },
        {
          "internalType": "uint256",
          "name": "amount",
          "type": "uint256"
        }
      ],
      "name": "updateSeigniorage",
      "outputs": [],
      "stateMutability": "nonpayable",
      "type": "function"
    },
    {
      "inputs": [],
      "name": "wton",
      "outputs": [
        {
          "internalType": "address",
          "name": "",
          "type": "address"
        }
      ],
      "stateMutability": "view",
      "type": "function"
    }
  ],
  "bytecode": "0x6080806040523461002357600160ff196013541617601355612d3e90816100298239f35b600080fdfe6080604052600436101561001257600080fd5b60003560e01c806301ffc9a7146102a7578063153e6d7f146102a25780631785f53c1461029d578063248a9ca31461029857806324d7806c1461029357806327f1470d1461028e5780632f2ff15d1461028957806336568abe146102845780634162169f1461027f5780634273ca161461027a5780634318dc1d14610275578063472d1f711461027057806350d2a2761461026b5780635290c24814610266578063550d01a31461026157806358bf884f1461025c5780635bb96f831461025757806362f47f2b1461025257806363a8fd891461024d5780636c7ac9d8146102485780636ec4be90146102435780636fb7f5581461023e5780637048027514610239578063715018a61461023457806375829def1461022f57806389c0db621461022a5780638d62d949146102255780638f32d59b1461022057806391d148541461021b578063a1efe92014610216578063a217fddf14610211578063b17dba1b1461020c578063b911135f14610207578063c5f16b8914610202578063cc48b947146101fd578063d5391393146101f8578063d547741f146101f3578063d733cfd0146101ee578063e9d6ec4f146101e9578063ef6cf652146101e45763f2fde38b146101df57600080fd5b6117e9565b6117aa565b61178c565b61148a565b611448565b61140d565b6113e4565b611294565b611260565b611221565b611205565b6111c6565b61117c565b611142565b611119565b6110e4565b611019565b610ff3565b610f03565b610eda565b610eb1565b610e88565b610e65565b610d25565b610b6f565b610967565b610925565b6108fc565b6108c4565b61089b565b6107f6565b6106c3565b61069a565b610604565b610537565b610482565b6103f6565b6103c7565b61038f565b61034f565b6102d4565b60209060031901126102cf576004356001600160e01b0319811681036102cf5790565b600080fd5b346102cf576001600160e01b03196102eb366102ac565b16637965db0b60e01b8114801561030a575b6020906040519015158152f35b506301ffc9a760e01b81148015610325575b602091506102fd565b506000526004602052602060ff6040600020541661031c565b6001600160a01b038116036102cf57565b346102cf5760203660031901126102cf5760043561036c8161033e565b60018060a01b0316600052600f602052602060ff60406000205416604051908152f35b346102cf5760203660031901126102cf576103c56004356103af8161033e565b6103c06103bb3361180e565b611db9565b611adf565b005b346102cf5760203660031901126102cf5760043560005260056020526020600160406000200154604051908152f35b346102cf5760203660031901126102cf57602060ff61043e60043561041a8161033e565b600080526005845260406000209060018060a01b0316600052602052604060002090565b54166040519015158152f35b801515036102cf57565b9181601f840112156102cf5782359167ffffffffffffffff83116102cf57602083818601950101116102cf57565b346102cf5760803660031901126102cf5760043561049f8161033e565b6044356104ab8161044a565b60643567ffffffffffffffff81116102cf576104cb903690600401610454565b916104e06001600160a01b038516151561212b565b821561050557836104fb6104f66103c5966124f1565b6120cd565b6024359033612784565b60405162461bcd60e51b815260206004820152600a602482015269636865636b206d656d6f60b01b6044820152606490fd5b346102cf5760403660031901126102cf576004356024356105578161033e565b600091808352600560205261057260016040852001546118fc565b8083526005602090815260408085206001600160a01b0385166000908152925290205460ff16156105a1578280f35b8083526005602090815260408085206001600160a01b038516600090815292529020805460ff1916600117905533916001600160a01b0316907f2f8788117e7eff1d82e926ec794901d17c78024a50270940304540a733656f0d8480a438808280f35b346102cf5760403660031901126102cf576024356106218161033e565b336001600160a01b0382160361063d576103c590600435611b7c565b60405162461bcd60e51b815260206004820152602f60248201527f416363657373436f6e74726f6c3a2063616e206f6e6c792072656e6f756e636560448201526e103937b632b9903337b91039b2b63360891b6064820152608490fd5b346102cf5760003660031901126102cf57600a546040516001600160a01b039091168152602090f35b346102cf5760803660031901126102cf576004356106e08161033e565b6024356106ec8161033e565b6044359160643567ffffffffffffffff81116102cf57610710903690600401610454565b60085490949190610731906001600160a01b03165b6001600160a01b031690565b33148080156107d3575b61074490611fbe565b6001600160a01b039461075a908616301461200a565b610781601461076a368986612056565b610775828a1161208d565b0151958616151561208d565b61078d6104f6866124f1565b156107b857846107a8956107a09261210e565b93909261266a565b60405160018152602090f35b0390f35b846107ce956107c69261210e565b939092612627565b6107a8565b50600954610744906107ed906001600160a01b0316610725565b3314905061073b565b346102cf5760203660031901126102cf57336000908152600080516020612d1283398151915260205260409020600435906108369060ff905b5416611db9565b80600e5414610870576020817f50e01964a144ee7e40d80d0792ff2641558654ef906fd81502421f22bf6ca92c92600e55604051908152a1005b606460405162461bcd60e51b815260206004820152600460248201526373616d6560e01b6044820152fd5b346102cf5760003660031901126102cf576006546040516001600160a01b039091168152602090f35b346102cf576001600160e01b03196108db366102ac565b166000526003602052602060018060a01b0360406000205416604051908152f35b346102cf5760003660031901126102cf576007546040516001600160a01b039091168152602090f35b346102cf5760203660031901126102cf576004356109428161033e565b60018060a01b03166000526002602052602060ff604060002054166040519015158152f35b346102cf576020806003193601126102cf576004356109858161033e565b6006546000928392918391906109a590610725906001600160a01b031681565b6040516378da9c5960e11b81526001600160a01b038516600482015291908190839060249082905afa918215610aee578692610b40575b5060405163078f29cf60e01b81526001600160a01b03949092908516908284600481855afa889481610b21575b50610a4d57505050506107b49150610a1f611f42565b505b6040805193151584526001600160a01b0394851660208501529316928201929092529081906060820190565b858416610a63575b505050506107b49150610a21565b60ff9094919293941660018114600014610af3575050816004916040519283809263bce5c11f60e01b82525afa918215610aee578692610ac1575b5050915b8216610ab3575b8080808493610a55565b9250600191506107b4610aa9565b610ae09250803d10610ae7575b610ad88183611a7f565b810190612181565b3880610a9e565b503d610ace565b612175565b909492506002915003610aa2579150610b1b610b15610b1061245d565b6124ba565b60601c90565b91610aa2565b610b39919550843d8611610ae757610ad88183611a7f565b9338610a09565b81610b619293503d8411610b68575b610b598183611a7f565b81019061215c565b90386109dc565b503d610b4f565b346102cf5760203660031901126102cf57610d13600080610c727fe0e8cd56dca38c840201a7fa0031a9d5914368b44ddd5f3a9758a5bb010c3670600435610bb68161033e565b6006546001600160a01b039190610bd09083163314611e47565b601354610bdf60ff8216611e93565b60ff1916601355610c1a600160ff610c13610c0c8560018060a01b0316600052600f602052604060002090565b5460ff1690565b1614611ec5565b610c66610c3f610c4c610c3f8460018060a01b03166000526010602052604060002090565b546001600160a01b031690565b6001600160a01b0316600090815260126020526040902090565b93849283161515611f08565b6001600160a01b0381166000908152600f60205260409020610c9b90805460ff19166002179055565b604080516001600160a01b03928316815292909116602083015290a1600c546001600160a01b0316604051634a39e57f60e11b602082019081526001600160a01b0390931660248201529091908390610d0181604481015b03601f198101835282611a7f565b51925af1610d0d611f42565b50611f72565b6103c5600160ff196013541617601355565b346102cf5760203660031901126102cf57600435610d428161033e565b6006546001600160a01b0390610d5b9082163314611e47565b601354610d6a60ff8216611e93565b60ff19166013558116600052600f602052600260ff6040600020541603610e2a576001600160a01b0381166000908152600f602052604090207ffb0b61949aee7eab954246b76cca582fbeb86e22b6cb648d2883fb4f28ca2b209190610dd8905b805460ff19166001179055565b610dfd610c3f610c4c610c3f8460018060a01b03166000526010602052604060002090565b604080516001600160a01b039384168152919092166020820152a16103c5600160ff196013541617601355565b60405162461bcd60e51b81526020600482015260136024820152726e6f7420696e2070617573652073746174757360681b6044820152606490fd5b346102cf5760003660031901126102cf57602060ff600054166040519015158152f35b346102cf5760003660031901126102cf57600b546040516001600160a01b039091168152602090f35b346102cf5760003660031901126102cf57600d546040516001600160a01b039091168152602090f35b346102cf5760003660031901126102cf57600c546040516001600160a01b039091168152602090f35b346102cf5760203660031901126102cf57600435610f208161033e565b610f2c6103bb3361180e565b600080805260056020527f05b8ccbb9d4d8fb16ea74ce3c29a41f1b461fbdaff4714a0d9a8eb05499746bd54909190610f64906118fc565b8180526005602090815260408084206001600160a01b0384166000908152925290205460ff1615610f93575080f35b8180526005602090815260408084206001600160a01b038416600090815292529020805460ff1916600117905533906001600160a01b0316827f2f8788117e7eff1d82e926ec794901d17c78024a50270940304540a733656f0d8180a480f35b346102cf5760003660031901126102cf576110106103bb3361180e565b6103c533611adf565b346102cf5760203660031901126102cf576004356110368161033e565b6110426103bb3361180e565b6001600160a01b038116801561109f5733146110615761101090611839565b60405162461bcd60e51b815260206004820152601660248201527520b1b1b2b9b9b4b136329d1039b0b6b29030b236b4b760511b6044820152606490fd5b60405162461bcd60e51b815260206004820152601860248201527f41636365737369626c653a207a65726f206164647265737300000000000000006044820152606490fd5b346102cf5760203660031901126102cf57604061110b6004356111068161033e565b6121a5565b825191151582526020820152f35b346102cf5760003660031901126102cf576009546040516001600160a01b039091168152602090f35b346102cf5760008060031936011261117957808052600560209081526040918290203360009081529082529190912060ff9061043e565b80fd5b346102cf5760403660031901126102cf57602060ff61043e6024356111a08161033e565b6004356000526005845260406000209060018060a01b0316600052602052604060002090565b346102cf5760203660031901126102cf5760206004356111e58161033e565b60018060a01b038091166000526011825260406000205416604051908152f35b346102cf5760003660031901126102cf57602060405160008152f35b346102cf5760203660031901126102cf5760206004356112408161033e565b60018060a01b038091166000526012825260406000205416604051908152f35b346102cf5760203660031901126102cf576004356000526001602052602060018060a01b0360406000205416604051908152f35b346102cf5760403660031901126102cf576004356112b18161033e565b600c546001600160a01b0391908216330361139f57819081600954166000938493849316835260106020526040832054168260405161131e81610cf3602082019563a9059cbb60e01b8752602435906024840160209093929193604081019460018060a01b031681520152565b51925af161132a611f42565b81611370575b50156113395780f35b60405162461bcd60e51b815260206004820152600f60248201526e1514905394d1915497d19052531151608a1b6044820152606490fd5b8051801592508215611385575b505038611330565b61139892506020809183010191016125a2565b388061137d565b60405162461bcd60e51b815260206004820152601b60248201527f73656e646572206973206e6f74206120536569674d616e6167657200000000006044820152606490fd5b346102cf5760003660031901126102cf576008546040516001600160a01b039091168152602090f35b346102cf5760003660031901126102cf5760206040517ff0887ba65ee2024ea881d91b74c2450ef19e1557f03bed3ea9f16b037cbe2dc98152f35b346102cf5760403660031901126102cf576103c560243560043561146b8261033e565b8060005260056020526114856001604060002001546118fc565b611b7c565b346102cf576101003660031901126102cf577f617f1cba5d7b9d5d3c81f0d5c78720ec2be227878bac84c0851b70e4cf61cb086004356114c98161033e565b602435906114d68261033e565b6116ca6044356114e58161033e565b6064356114f18161033e565b6084356114fd8161033e565b60a4359061150a8261033e565b60c435926115178461033e565b60e435946115248661033e565b336000908152600080516020612d128339815191526020526040902061154c9060ff9061082f565b6006546115a4906001600160a01b03166001600160a01b039081168a82161480159190611771575b8115611756575b811561173b575b8115611720575b8115611705575b81156116ea575b81156116cf575b50611e10565b600680546001600160a01b0319166001600160a01b038a16179055600780546001600160a01b0319166001600160a01b038b16179055600880546001600160a01b0319166001600160a01b038316179055600980546001600160a01b0319166001600160a01b038416179055600a80546001600160a01b0319166001600160a01b038516179055600b80546001600160a01b0319166001600160a01b038616179055600c80546001600160a01b0319166001600160a01b038716179055600d80546001600160a01b0319166001600160a01b038816179055604080516001600160a01b03998a16815299891660208b0152908816908901528616606088015285166080870152841660a0860152831660c085015290911660e08301528190610100820190565b0390a1005b600d5489821691166001600160a01b0316141590503861159e565b600c548882169082166001600160a01b031614159150611597565b600b548782169082166001600160a01b031614159150611590565b600a548682169082166001600160a01b031614159150611589565b6009548582169082166001600160a01b031614159150611582565b6008548482169082166001600160a01b03161415915061157b565b6007548c82169082166001600160a01b031614159150611574565b346102cf5760003660031901126102cf576020600e54604051908152f35b346102cf5760203660031901126102cf5760206004356117c98161033e565b60018060a01b038091166000526010825260406000205416604051908152f35b346102cf5760203660031901126102cf576004356118068161033e565b6110366103bb335b6001600160a01b03166000908152600080516020612d12833981519152602052604090205460ff1690565b600080805260056020527f05b8ccbb9d4d8fb16ea74ce3c29a41f1b461fbdaff4714a0d9a8eb05499746bd5461186e906118fc565b8080526005602090815260408083206001600160a01b0385166000908152925290205460ff161561189d575050565b8080526005602090815260408083206001600160a01b038516600090815292529020805460ff1916600117905533916001600160a01b0316907f2f8788117e7eff1d82e926ec794901d17c78024a50270940304540a733656f0d8180a4565b600081815260056020908152604080832033845290915290205460ff16156119215750565b339061192b611c5f565b91603061193784611ca2565b53607861194384611caf565b5360295b600181116119e8576119e46119af6119cc86610cf361196f8861196a8915611cdd565b611d28565b6119a96040519586946119a9602087016017907f416363657373436f6e74726f6c3a206163636f756e742000000000000000000081520190565b90611a52565b7001034b99036b4b9b9b4b733903937b6329607d1b815260110190565b60405162461bcd60e51b815291829160048301611acb565b0390fd5b90600f8116906010821015611a2a57611a25916f181899199a1a9b1b9c1cb0b131b232b360811b901a611a1b8487611cbf565b5360041c91611cd0565b611947565b611c8c565b60005b838110611a425750506000910152565b8181015183820152602001611a32565b90611a6560209282815194859201611a2f565b0190565b634e487b7160e01b600052604160045260246000fd5b90601f8019910116810190811067ffffffffffffffff821117611aa157604052565b611a69565b90602091611abf81518092818552858086019101611a2f565b601f01601f1916010190565b906020611adc928181520190611aa6565b90565b6001600160a01b03811633810361063d576001600160a01b0382166000908152600080516020612d12833981519152602052604081205490929060ff16611b2557505050565b611b4c908380526005602052604084209060018060a01b0316600052602052604060002090565b805460ff1916905533917ff6391f5c32d9c69d2a47ea670b442974b53935d1edc7fd64eb21e047a839171b8180a4565b600090808252600560205260ff611ba884604085209060018060a01b0316600052602052604060002090565b5416611bb357505050565b8082526005602090815260408084206001600160a01b038616600090815292529020805460ff1916905533926001600160a01b0316917ff6391f5c32d9c69d2a47ea670b442974b53935d1edc7fd64eb21e047a839171b9080a4565b634e487b7160e01b600052601160045260246000fd5b90633b9aca0091828102928184041490151715611c3e57565b611c0f565b67ffffffffffffffff8111611aa157601f01601f191660200190565b604051906060820182811067ffffffffffffffff821117611aa157604052602a8252604082602036910137565b634e487b7160e01b600052603260045260246000fd5b805115611a2a5760200190565b805160011015611a2a5760210190565b908151811015611a2a570160200190565b8015611c3e576000190190565b15611ce457565b606460405162461bcd60e51b815260206004820152602060248201527f537472696e67733a20686578206c656e67746820696e73756666696369656e746044820152fd5b604051906080820182811067ffffffffffffffff821117611aa1576040526042825260603660208401376030611d5d83611ca2565b536078611d6983611caf565b536041905b60018211611d8157611adc915015611cdd565b600f8116906010821015611a2a57611db3916f181899199a1a9b1b9c1cb0b131b232b360811b901a611a1b8486611cbf565b90611d6e565b15611dc057565b60405162461bcd60e51b815260206004820152602260248201527f41636365737369626c653a2043616c6c6572206973206e6f7420616e2061646d60448201526134b760f11b6064820152608490fd5b15611e1757565b60405162461bcd60e51b8152602060048201526008602482015267616c6c2073616d6560c01b6044820152606490fd5b15611e4e57565b60405162461bcd60e51b815260206004820152601a60248201527f73656e646572206973206e6f742061206c3252656769737465720000000000006044820152606490fd5b15611e9a57565b606460405162461bcd60e51b81526020600482015260046024820152636c6f636b60e01b6044820152fd5b15611ecc57565b60405162461bcd60e51b81526020600482015260146024820152736e6f7420696e206e6f726d616c2073746174757360601b6044820152606490fd5b15611f0f57565b60405162461bcd60e51b815260206004820152600b60248201526a3d32b937903630bcb2b91960a91b6044820152606490fd5b3d15611f6d573d90611f5382611c43565b91611f616040519384611a7f565b82523d6000602084013e565b606090565b15611f7957565b60405162461bcd60e51b815260206004820152601b60248201527f6661696c206578636c75646546726f6d536569676e696f7261676500000000006044820152606490fd5b15611fc557565b60405162461bcd60e51b815260206004820152601a60248201527f73656e646572206973206e6f7420746f6e206e6f722077746f6e0000000000006044820152606490fd5b1561201157565b60405162461bcd60e51b815260206004820152601760248201527f77726f6e67207370656e64657220706172616d657465720000000000000000006044820152606490fd5b92919261206282611c43565b916120706040519384611a7f565b8294818452818301116102cf578281602093846000960137010152565b1561209457565b60405162461bcd60e51b81526020600482015260116024820152700eee4dedcce40c8c2e8c240d8cadccee8d607b1b6044820152606490fd5b156120d457565b60405162461bcd60e51b81526020600482015260126024820152713ab72b30b634b230ba32b2102630bcb2b91960711b6044820152606490fd5b90929192836014116102cf5783116102cf57601401916013190190565b1561213257565b60405162461bcd60e51b81526020600482015260026024820152612d1960f11b6044820152606490fd5b908160209103126102cf575160ff811681036102cf5790565b6040513d6000823e3d90fd5b908160209103126102cf5751611adc8161033e565b908160209103126102cf575190565b600091600080926121c361072561072560065460018060a01b031690565b604080516378da9c5960e11b81526001600160a01b0384166004808301919091526020949093909291908590829060249082905afa8015610aee5760ff918791612440575b50166001810361235f5750805163078f29cf60e01b81526001600160a01b039283169085818681855afa879181612340575b50612252575050505050505061224e611f42565b505b565b83169283612264575b50505050505050565b85859284519687809263bce5c11f60e01b82525afa948515610aee578795612321575b508416612295575b8061225b565b60085491516347b00fb360e11b81526001600160a01b0392831691810191825293909116602082015294965092945092909182918491908290819060400103915afa928315610aee57926122f4575b505060019138808080808061228f565b6123139250803d1061231a575b61230b8183611a7f565b810190612196565b38806122e4565b503d612301565b612339919550863d8811610ae757610ad88183611a7f565b9338612287565b612358919250873d8911610ae757610ad88183611a7f565b903861223a565b929392909190600214612374575b5050505050565b8151630a49cb0360e01b81526001600160a01b0391849082908790829086165afa869181612421575b506123bc575050505050506123b0611f42565b505b388080808061236d565b1690816123ce575b50505050506123b2565b516307404d9360e21b8152949650929450918291849182905afa928315610aee5792612404575b505060019138808080806123c4565b61241a9250803d1061231a5761230b8183611a7f565b38806123f5565b612439919250853d8711610ae757610ad88183611a7f565b903861239d565b6124579150863d8811610b6857610b598183611a7f565b38612208565b604051906060820182811067ffffffffffffffff821117611aa157604052602a8252690614444654144303030360b41b6040837f307844656164446541646465416464454164646561644445614444454164446560208201520152565b90602082519201516bffffffffffffffffffffffff199081811693601481106124e257505050565b60140360031b82901b16169150565b6001600160a01b038181166000908152601060205260409020541661251d57612519906121a5565b5090565b60405162461bcd60e51b8152602060048201526012602482015271185b1c9958591e481c9959da5cdd195c995960721b6044820152606490fd5b1561255e57565b606460405162461bcd60e51b815260206004820152602060248201527f756e73617469736669656420696e697469616c4465706f736974416d6f756e746044820152fd5b908160209103126102cf5751611adc8161044a565b611adc939260609260018060a01b0316825260208201528160408201520190611aa6565b156125e257565b60405162461bcd60e51b815260206004820152601860248201527f6661696c20746f207377617020746f6e20746f2077746f6e00000000000000006044820152606490fd5b926122509461265d846126649496612649600e54633b9aca0084041015612557565b6009543091906001600160a01b0316612c3a565b3691612056565b916127de565b926126a2836127229395969496612685600e54831015612557565b60085461269a906001600160a01b0316610725565b903091612c3a565b6008546020906126f7906126c090610725906001600160a01b031681565b600954600d54604080516001600160a01b03928316878201818152602081019190915290958c946000941692612705928892910190565b03601f198101875286611a7f565b60405163cae9ca5160e01b815297889586948593600485016125b7565b03925af18015610aee576122509561274961274e9261266495600091612756575b506125db565b611c25565b923691612056565b612777915060203d811161277d575b61276f8183611a7f565b8101906125a2565b38612743565b503d612765565b90939194926000146127a757906126a28561272293612685600e54831015612557565b90849261265d61225096612664946127c9600e54633b9aca0084041015612557565b60095461269a906001600160a01b0316610725565b6001600160a01b036127f3828216151561212b565b60075461280a90610725906001600160a01b031681565b60405163f6ae6f1360e01b81526001600160a01b038416600482015260009560209390928490839060249082908b905af1918215610aee578792612a6e575b508116151580612a40575b61285d90612a8d565b6001600160a01b038416600090815260106020526040902061289b9082905b80546001600160a01b0319166001600160a01b03909216919091179055565b6001600160a01b03811660009081526011602052604090206128be90859061287c565b600a546128d590610725906001600160a01b031681565b918360405180946304d0bde760e11b8252818a816128f7888860048401612aca565b03925af1928315610aee578793612a21575b506001600160a01b038216600090815260126020526040902061292d90849061287c565b600b546129449087906001600160a01b0316612b66565b600b5461295b90610725906001600160a01b031681565b604051638340f54960e01b81526001600160a01b0385811660048301528416602482015260448101889052979085908990606490829085905af18015610aee577f1526ff0a0299f7312457e24a4af3d354afc4d51a22017cc0bb86b8c9fed66240986129ff966129d29392612a04575b5050612af2565b6001600160a01b0385166000908152600f602052604090206129f390610dcb565b60405195869586612b2b565b0390a1565b612a1a9250803d1061277d5761276f8183611a7f565b38806129cb565b612a39919350843d8611610ae757610ad88183611a7f565b9138612909565b5061285d612a66610725610c3f8460018060a01b03166000526011602052604060002090565b159050612854565b612a86919250843d8611610ae757610ad88183611a7f565b9038612849565b15612a9457565b60405162461bcd60e51b815260206004820152600e60248201526d3bb937b7339037b832b930ba37b960911b6044820152606490fd5b90612ae2602091949394604084526040840190611aa6565b6001600160a01b03909416910152565b15612af957565b60405162461bcd60e51b815260206004820152600a6024820152694661696c205374616b6560b01b6044820152606490fd5b93959490612b5960809460018060a01b0394858094168852602088015260a0604088015260a0870190611aa6565b9616606085015216910152565b600954612b7d90610725906001600160a01b031681565b604051636eb1769f60e11b81523060048201526001600160a01b0383166024820152602093908481604481865afa908115610aee57600091612c1d575b5010612bc557505050565b60405163095ea7b360e01b81526001600160a01b0392909216600483015260001960248301528290829060449082906000905af18015610aee57612c07575050565b8161224e92903d1061277d5761276f8183611a7f565b612c349150853d871161231a5761230b8183611a7f565b38612bba565b6040516323b872dd60e01b602082019081526001600160a01b0393841660248301529390921660448301526064820193909352600092839290918390612c838160848101610cf3565b51926001600160a01b03165af1612c98611f42565b81612ce2575b5015612ca657565b60405162461bcd60e51b81526020600482015260146024820152731514905394d1915497d19493d357d1905253115160621b6044820152606490fd5b8051801592508215612cf7575b505038612c9e565b612d0a92506020809183010191016125a2565b3880612cef56fe05b8ccbb9d4d8fb16ea74ce3c29a41f1b461fbdaff4714a0d9a8eb05499746bca164736f6c6343000813000a",
  "linkReferences": {},
  "deployedLinkReferences": {}
}