{
  "_format": "hh-sol-artifact-1",
  "contractName": "Layer2ManagerV1_1",
  "sourceName": "contracts/layer2/Layer2ManagerV1_1.sol",
  "abi": [
    {
      "inputs": [],
      "stateMutability": "nonpayable",
      "type": "constructor"
    },
    {
      "inputs": [],
      "name": "ExcludeError",
      "type": "error"
    },
    {
      "inputs": [
        {
          "internalType": "uint256",
          "name": "x",
          "type": "uint256"
        }
      ],
      "name": "OnApproveError",
      "type": "error"
    },
    {
      "inputs": [
        {
          "internalType": "uint256",
          "name": "x",
          "type": "uint256"
        }
      ],
      "name": "RegisterError",
      "type": "error"
    },
    {
      "inputs": [],
      "name": "StatusError",
      "type": "error"
    },
    {
      "inputs": [],
      "name": "ZeroAddressError",
      "type": "error"
    },
    {
      "inputs": [],
      "name": "ZeroBytesError",
      "type": "error"
    },
    {
      "anonymous": false,
      "inputs": [
        {
          "indexed": false,
          "internalType": "address",
          "name": "rollupConfig",
          "type": "address"
        },
        {
          "indexed": false,
          "internalType": "address",
          "name": "candidateAddOn",
          "type": "address"
        }
      ],
      "name": "PausedCandidateAddOn",
      "type": "event"
    },
    {
      "anonymous": false,
      "inputs": [
        {
          "indexed": false,
          "internalType": "address",
          "name": "rollupConfig",
          "type": "address"
        },
        {
          "indexed": false,
          "internalType": "uint256",
          "name": "wtonAmount",
          "type": "uint256"
        },
        {
          "indexed": false,
          "internalType": "string",
          "name": "memo",
          "type": "string"
        },
        {
          "indexed": false,
          "internalType": "address",
          "name": "operator",
          "type": "address"
        },
        {
          "indexed": false,
          "internalType": "address",
          "name": "candidateAddOn",
          "type": "address"
        }
      ],
      "name": "RegisteredCandidateAddOn",
      "type": "event"
    },
    {
      "anonymous": false,
      "inputs": [
        {
          "indexed": true,
          "internalType": "bytes32",
          "name": "role",
          "type": "bytes32"
        },
        {
          "indexed": true,
          "internalType": "bytes32",
          "name": "previousAdminRole",
          "type": "bytes32"
        },
        {
          "indexed": true,
          "internalType": "bytes32",
          "name": "newAdminRole",
          "type": "bytes32"
        }
      ],
      "name": "RoleAdminChanged",
      "type": "event"
    },
    {
      "anonymous": false,
      "inputs": [
        {
          "indexed": true,
          "internalType": "bytes32",
          "name": "role",
          "type": "bytes32"
        },
        {
          "indexed": true,
          "internalType": "address",
          "name": "account",
          "type": "address"
        },
        {
          "indexed": true,
          "internalType": "address",
          "name": "sender",
          "type": "address"
        }
      ],
      "name": "RoleGranted",
      "type": "event"
    },
    {
      "anonymous": false,
      "inputs": [
        {
          "indexed": true,
          "internalType": "bytes32",
          "name": "role",
          "type": "bytes32"
        },
        {
          "indexed": true,
          "internalType": "address",
          "name": "account",
          "type": "address"
        },
        {
          "indexed": true,
          "internalType": "address",
          "name": "sender",
          "type": "address"
        }
      ],
      "name": "RoleRevoked",
      "type": "event"
    },
    {
      "anonymous": false,
      "inputs": [
        {
          "indexed": false,
          "internalType": "address",
          "name": "_l2Register",
          "type": "address"
        },
        {
          "indexed": false,
          "internalType": "address",
          "name": "_operatorManagerFactory",
          "type": "address"
        },
        {
          "indexed": false,
          "internalType": "address",
          "name": "_ton",
          "type": "address"
        },
        {
          "indexed": false,
          "internalType": "address",
          "name": "_wton",
          "type": "address"
        },
        {
          "indexed": false,
          "internalType": "address",
          "name": "_dao",
          "type": "address"
        },
        {
          "indexed": false,
          "internalType": "address",
          "name": "_depositManager",
          "type": "address"
        },
        {
          "indexed": false,
          "internalType": "address",
          "name": "_seigManager",
          "type": "address"
        },
        {
          "indexed": false,
          "internalType": "address",
          "name": "_swapProxy",
          "type": "address"
        }
      ],
      "name": "SetAddresses",
      "type": "event"
    },
    {
      "anonymous": false,
      "inputs": [
        {
          "indexed": false,
          "internalType": "uint256",
          "name": "_minimumInitialDepositAmount",
          "type": "uint256"
        }
      ],
      "name": "SetMinimumInitialDepositAmount",
      "type": "event"
    },
    {
      "anonymous": false,
      "inputs": [
        {
          "indexed": false,
          "internalType": "address",
          "name": "_operatorManagerFactory",
          "type": "address"
        }
      ],
      "name": "SetOperatorManagerFactory",
      "type": "event"
    },
    {
      "anonymous": false,
      "inputs": [
        {
          "indexed": false,
          "internalType": "address",
          "name": "rollupConfig",
          "type": "address"
        },
        {
          "indexed": false,
          "internalType": "address",
          "name": "candidateAddOn",
          "type": "address"
        }
      ],
      "name": "UnpausedCandidateAddOn",
      "type": "event"
    },
    {
      "inputs": [],
      "name": "DEFAULT_ADMIN_ROLE",
      "outputs": [
        {
          "internalType": "bytes32",
          "name": "",
          "type": "bytes32"
        }
      ],
      "stateMutability": "view",
      "type": "function"
    },
    {
      "inputs": [],
      "name": "MINTER_ROLE",
      "outputs": [
        {
          "internalType": "bytes32",
          "name": "",
          "type": "bytes32"
        }
      ],
      "stateMutability": "view",
      "type": "function"
    },
    {
      "inputs": [
        {
          "internalType": "address",
          "name": "_rollupConfig",
          "type": "address"
        }
      ],
      "name": "_checkL1BridgeDetail",
      "outputs": [
        {
          "internalType": "bool",
          "name": "result",
          "type": "bool"
        },
        {
          "internalType": "address",
          "name": "l1Bridge",
          "type": "address"
        },
        {
          "internalType": "address",
          "name": "portal",
          "type": "address"
        },
        {
          "internalType": "address",
          "name": "l2Ton",
          "type": "address"
        },
        {
          "internalType": "uint8",
          "name": "_type",
          "type": "uint8"
        },
        {
          "internalType": "uint8",
          "name": "status",
          "type": "uint8"
        },
        {
          "internalType": "bool",
          "name": "rejectedSeigs",
          "type": "bool"
        },
        {
          "internalType": "bool",
          "name": "rejectedL2Deposit",
          "type": "bool"
        }
      ],
      "stateMutability": "view",
      "type": "function"
    },
    {
      "inputs": [
        {
          "internalType": "address",
          "name": "account",
          "type": "address"
        }
      ],
      "name": "addAdmin",
      "outputs": [],
      "stateMutability": "nonpayable",
      "type": "function"
    },
    {
      "inputs": [
        {
          "internalType": "address",
          "name": "",
          "type": "address"
        }
      ],
      "name": "aliveImplementation",
      "outputs": [
        {
          "internalType": "bool",
          "name": "",
          "type": "bool"
        }
      ],
      "stateMutability": "view",
      "type": "function"
    },
    {
      "inputs": [
        {
          "internalType": "address",
          "name": "_rollupConfig",
          "type": "address"
        }
      ],
      "name": "availableRegister",
      "outputs": [
        {
          "internalType": "bool",
          "name": "result",
          "type": "bool"
        },
        {
          "internalType": "uint256",
          "name": "amount",
          "type": "uint256"
        }
      ],
      "stateMutability": "view",
      "type": "function"
    },
    {
      "inputs": [
        {
          "internalType": "address",
          "name": "_oper",
          "type": "address"
        }
      ],
      "name": "candidateAddOnOfOperator",
      "outputs": [
        {
          "internalType": "address",
          "name": "",
          "type": "address"
        }
      ],
      "stateMutability": "view",
      "type": "function"
    },
    {
      "inputs": [
        {
          "internalType": "address",
          "name": "_rollupConfig",
          "type": "address"
        }
      ],
      "name": "checkL1Bridge",
      "outputs": [
        {
          "internalType": "bool",
          "name": "result",
          "type": "bool"
        },
        {
          "internalType": "address",
          "name": "l1Bridge",
          "type": "address"
        },
        {
          "internalType": "address",
          "name": "portal",
          "type": "address"
        },
        {
          "internalType": "address",
          "name": "l2Ton",
          "type": "address"
        }
      ],
      "stateMutability": "view",
      "type": "function"
    },
    {
      "inputs": [
        {
          "internalType": "address",
          "name": "_rollupConfig",
          "type": "address"
        }
      ],
      "name": "checkL1BridgeDetail",
      "outputs": [
        {
          "internalType": "bool",
          "name": "result",
          "type": "bool"
        },
        {
          "internalType": "address",
          "name": "l1Bridge",
          "type": "address"
        },
        {
          "internalType": "address",
          "name": "portal",
          "type": "address"
        },
        {
          "internalType": "address",
          "name": "l2Ton",
          "type": "address"
        },
        {
          "internalType": "uint8",
          "name": "_type",
          "type": "uint8"
        },
        {
          "internalType": "uint8",
          "name": "status",
          "type": "uint8"
        },
        {
          "internalType": "bool",
          "name": "rejectedSeigs",
          "type": "bool"
        },
        {
          "internalType": "bool",
          "name": "rejectedL2Deposit",
          "type": "bool"
        }
      ],
      "stateMutability": "view",
      "type": "function"
    },
    {
      "inputs": [
        {
          "internalType": "address",
          "name": "_rollupConfig",
          "type": "address"
        }
      ],
      "name": "checkLayer2TVL",
      "outputs": [
        {
          "internalType": "bool",
          "name": "result",
          "type": "bool"
        },
        {
          "internalType": "uint256",
          "name": "amount",
          "type": "uint256"
        }
      ],
      "stateMutability": "view",
      "type": "function"
    },
    {
      "inputs": [],
      "name": "dao",
      "outputs": [
        {
          "internalType": "address",
          "name": "",
          "type": "address"
        }
      ],
      "stateMutability": "view",
      "type": "function"
    },
    {
      "inputs": [],
      "name": "depositManager",
      "outputs": [
        {
          "internalType": "address",
          "name": "",
          "type": "address"
        }
      ],
      "stateMutability": "view",
      "type": "function"
    },
    {
      "inputs": [
        {
          "internalType": "bytes32",
          "name": "role",
          "type": "bytes32"
        }
      ],
      "name": "getRoleAdmin",
      "outputs": [
        {
          "internalType": "bytes32",
          "name": "",
          "type": "bytes32"
        }
      ],
      "stateMutability": "view",
      "type": "function"
    },
    {
      "inputs": [
        {
          "internalType": "bytes32",
          "name": "role",
          "type": "bytes32"
        },
        {
          "internalType": "address",
          "name": "account",
          "type": "address"
        }
      ],
      "name": "grantRole",
      "outputs": [],
      "stateMutability": "nonpayable",
      "type": "function"
    },
    {
      "inputs": [
        {
          "internalType": "bytes32",
          "name": "role",
          "type": "bytes32"
        },
        {
          "internalType": "address",
          "name": "account",
          "type": "address"
        }
      ],
      "name": "hasRole",
      "outputs": [
        {
          "internalType": "bool",
          "name": "",
          "type": "bool"
        }
      ],
      "stateMutability": "view",
      "type": "function"
    },
    {
      "inputs": [
        {
          "internalType": "address",
          "name": "account",
          "type": "address"
        }
      ],
      "name": "isAdmin",
      "outputs": [
        {
          "internalType": "bool",
          "name": "",
          "type": "bool"
        }
      ],
      "stateMutability": "view",
      "type": "function"
    },
    {
      "inputs": [],
      "name": "isOwner",
      "outputs": [
        {
          "internalType": "bool",
          "name": "",
          "type": "bool"
        }
      ],
      "stateMutability": "view",
      "type": "function"
    },
    {
      "inputs": [],
      "name": "l1BridgeRegistry",
      "outputs": [
        {
          "internalType": "address",
          "name": "",
          "type": "address"
        }
      ],
      "stateMutability": "view",
      "type": "function"
    },
    {
      "inputs": [],
      "name": "minimumInitialDepositAmount",
      "outputs": [
        {
          "internalType": "uint256",
          "name": "",
          "type": "uint256"
        }
      ],
      "stateMutability": "view",
      "type": "function"
    },
    {
      "inputs": [
        {
          "internalType": "address",
          "name": "owner",
          "type": "address"
        },
        {
          "internalType": "address",
          "name": "spender",
          "type": "address"
        },
        {
          "internalType": "uint256",
          "name": "amount",
          "type": "uint256"
        },
        {
          "internalType": "bytes",
          "name": "data",
          "type": "bytes"
        }
      ],
      "name": "onApprove",
      "outputs": [
        {
          "internalType": "bool",
          "name": "",
          "type": "bool"
        }
      ],
      "stateMutability": "nonpayable",
      "type": "function"
    },
    {
      "inputs": [
        {
          "internalType": "address",
          "name": "",
          "type": "address"
        }
      ],
      "name": "operatorInfo",
      "outputs": [
        {
          "internalType": "address",
          "name": "rollupConfig",
          "type": "address"
        },
        {
          "internalType": "address",
          "name": "candidateAddOn",
          "type": "address"
        }
      ],
      "stateMutability": "view",
      "type": "function"
    },
    {
      "inputs": [],
      "name": "operatorManagerFactory",
      "outputs": [
        {
          "internalType": "address",
          "name": "",
          "type": "address"
        }
      ],
      "stateMutability": "view",
      "type": "function"
    },
    {
      "inputs": [
        {
          "internalType": "address",
          "name": "_rollupConfig",
          "type": "address"
        }
      ],
      "name": "operatorOfRollupConfig",
      "outputs": [
        {
          "internalType": "address",
          "name": "",
          "type": "address"
        }
      ],
      "stateMutability": "view",
      "type": "function"
    },
    {
      "inputs": [
        {
          "internalType": "address",
          "name": "rollupConfig",
          "type": "address"
        }
      ],
      "name": "pauseCandidateAddOn",
      "outputs": [],
      "stateMutability": "nonpayable",
      "type": "function"
    },
    {
      "inputs": [],
      "name": "pauseProxy",
      "outputs": [
        {
          "internalType": "bool",
          "name": "",
          "type": "bool"
        }
      ],
      "stateMutability": "view",
      "type": "function"
    },
    {
      "inputs": [
        {
          "internalType": "uint256",
          "name": "",
          "type": "uint256"
        }
      ],
      "name": "proxyImplementation",
      "outputs": [
        {
          "internalType": "address",
          "name": "",
          "type": "address"
        }
      ],
      "stateMutability": "view",
      "type": "function"
    },
    {
      "inputs": [
        {
          "internalType": "address",
          "name": "rollupConfig",
          "type": "address"
        },
        {
          "internalType": "uint256",
          "name": "amount",
          "type": "uint256"
        },
        {
          "internalType": "bool",
          "name": "flagTon",
          "type": "bool"
        },
        {
          "internalType": "string",
          "name": "memo",
          "type": "string"
        }
      ],
      "name": "registerCandidateAddOn",
      "outputs": [],
      "stateMutability": "nonpayable",
      "type": "function"
    },
    {
      "inputs": [
        {
          "internalType": "address",
          "name": "account",
          "type": "address"
        }
      ],
      "name": "removeAdmin",
      "outputs": [],
      "stateMutability": "nonpayable",
      "type": "function"
    },
    {
      "inputs": [],
      "name": "renounceOwnership",
      "outputs": [],
      "stateMutability": "nonpayable",
      "type": "function"
    },
    {
      "inputs": [
        {
          "internalType": "bytes32",
          "name": "role",
          "type": "bytes32"
        },
        {
          "internalType": "address",
          "name": "account",
          "type": "address"
        }
      ],
      "name": "renounceRole",
      "outputs": [],
      "stateMutability": "nonpayable",
      "type": "function"
    },
    {
      "inputs": [
        {
          "internalType": "bytes32",
          "name": "role",
          "type": "bytes32"
        },
        {
          "internalType": "address",
          "name": "account",
          "type": "address"
        }
      ],
      "name": "revokeRole",
      "outputs": [],
      "stateMutability": "nonpayable",
      "type": "function"
    },
    {
      "inputs": [
        {
          "internalType": "address",
          "name": "",
          "type": "address"
        }
      ],
      "name": "rollupConfigInfo",
      "outputs": [
        {
          "internalType": "uint8",
          "name": "status",
          "type": "uint8"
        },
        {
          "internalType": "address",
          "name": "operatorManager",
          "type": "address"
        }
      ],
      "stateMutability": "view",
      "type": "function"
    },
    {
      "inputs": [
        {
          "internalType": "address",
          "name": "_oper",
          "type": "address"
        }
      ],
      "name": "rollupConfigOfOperator",
      "outputs": [
        {
          "internalType": "address",
          "name": "",
          "type": "address"
        }
      ],
      "stateMutability": "view",
      "type": "function"
    },
    {
      "inputs": [],
      "name": "seigManager",
      "outputs": [
        {
          "internalType": "address",
          "name": "",
          "type": "address"
        }
      ],
      "stateMutability": "view",
      "type": "function"
    },
    {
      "inputs": [
        {
          "internalType": "bytes4",
          "name": "",
          "type": "bytes4"
        }
      ],
      "name": "selectorImplementation",
      "outputs": [
        {
          "internalType": "address",
          "name": "",
          "type": "address"
        }
      ],
      "stateMutability": "view",
      "type": "function"
    },
    {
      "inputs": [
        {
          "internalType": "address",
          "name": "_l1BridgeRegistry",
          "type": "address"
        },
        {
          "internalType": "address",
          "name": "_operatorManagerFactory",
          "type": "address"
        },
        {
          "internalType": "address",
          "name": "_ton",
          "type": "address"
        },
        {
          "internalType": "address",
          "name": "_wton",
          "type": "address"
        },
        {
          "internalType": "address",
          "name": "_dao",
          "type": "address"
        },
        {
          "internalType": "address",
          "name": "_depositManager",
          "type": "address"
        },
        {
          "internalType": "address",
          "name": "_seigManager",
          "type": "address"
        },
        {
          "internalType": "address",
          "name": "_swapProxy",
          "type": "address"
        }
      ],
      "name": "setAddresses",
      "outputs": [],
      "stateMutability": "nonpayable",
      "type": "function"
    },
    {
      "inputs": [
        {
          "internalType": "uint256",
          "name": "_minimumInitialDepositAmount",
          "type": "uint256"
        }
      ],
      "name": "setMinimumInitialDepositAmount",
      "outputs": [],
      "stateMutability": "nonpayable",
      "type": "function"
    },
    {
      "inputs": [
        {
          "internalType": "address",
          "name": "_operatorManagerFactory",
          "type": "address"
        }
      ],
      "name": "setOperatorManagerFactory",
      "outputs": [],
      "stateMutability": "nonpayable",
      "type": "function"
    },
    {
      "inputs": [
        {
          "internalType": "address",
          "name": "_rollupConfig",
          "type": "address"
        }
      ],
      "name": "statusLayer2",
      "outputs": [
        {
          "internalType": "uint8",
          "name": "",
          "type": "uint8"
        }
      ],
      "stateMutability": "view",
      "type": "function"
    },
    {
      "inputs": [
        {
          "internalType": "bytes4",
          "name": "interfaceId",
          "type": "bytes4"
        }
      ],
      "name": "supportsInterface",
      "outputs": [
        {
          "internalType": "bool",
          "name": "",
          "type": "bool"
        }
      ],
      "stateMutability": "view",
      "type": "function"
    },
    {
      "inputs": [],
      "name": "swapProxy",
      "outputs": [
        {
          "internalType": "address",
          "name": "",
          "type": "address"
        }
      ],
      "stateMutability": "view",
      "type": "function"
    },
    {
      "inputs": [],
      "name": "ton",
      "outputs": [
        {
          "internalType": "address",
          "name": "",
          "type": "address"
        }
      ],
      "stateMutability": "view",
      "type": "function"
    },
    {
      "inputs": [
        {
          "internalType": "address",
          "name": "newAdmin",
          "type": "address"
        }
      ],
      "name": "transferAdmin",
      "outputs": [],
      "stateMutability": "nonpayable",
      "type": "function"
    },
    {
      "inputs": [
        {
          "internalType": "address",
          "name": "newAdmin",
          "type": "address"
        }
      ],
      "name": "transferOwnership",
      "outputs": [],
      "stateMutability": "nonpayable",
      "type": "function"
    },
    {
      "inputs": [
        {
          "internalType": "address",
          "name": "rollupConfig",
          "type": "address"
        }
      ],
      "name": "unpauseCandidateAddOn",
      "outputs": [],
      "stateMutability": "nonpayable",
      "type": "function"
    },
    {
      "inputs": [
        {
          "internalType": "address",
          "name": "rollupConfig",
          "type": "address"
        },
        {
          "internalType": "uint256",
          "name": "amount",
          "type": "uint256"
        }
      ],
      "name": "updateSeigniorage",
      "outputs": [],
      "stateMutability": "nonpayable",
      "type": "function"
    },
    {
      "inputs": [],
      "name": "wton",
      "outputs": [
        {
          "internalType": "address",
          "name": "",
          "type": "address"
        }
      ],
      "stateMutability": "view",
      "type": "function"
    }
  ],
  "bytecode": "0x6080806040523461001657612f0b908161001c8239f35b600080fdfe608060408181526004918236101561001657600080fd5b600092833560e01c91826301ffc9a714611c00575081631785f53c14611bd2578163248a9ca314611ba757816324d7806c14611b615781632e0f1775146113fb5781632f2ff15d14611ab457816332d89cc61461193357816336568abe146118a15781634162169f146118785781634273ca161461150b5781634318dc1d146114715781634cdf7b16146113fb57816350c246d61461139857816350d2a27614611354578163550d01a31461131657816358bf884f146112c157816363a8fd891461129f5781636a9092471461125f5781636c7ac9d8146112365781636ec4be901461120d5781636fb7f558146111e4578163704802751461112f578163715018a61461110957816372898c23146110c357816375829def146110a657816379a0e6ea1461106a5781637bae05f11461102b57816389c0db6214610d5f5781638d62d94914610d365781638f32d59b14610d0357816391d1485414610cbc578163a217fddf14610ca1578163a37d6aa714610c66578163aba8e57714610c3d578163b911135f14610c0a578163c04a0a42146108f7578163c5f16b89146107b6578163c845226514610731578163cc48b94714610708578163cf8f9110146106df578163d523c077146105d4578163d539139314610599578163d547741f1461055d57838263d733cfd0146103ea57508163e9d6ec4f146103cb578163f2fde38b1461026c575063ff600b691461022c57600080fd5b34610268576020366003190112610268576020916001600160a01b0390829082610254611c84565b168152600f8552205460081c169051908152f35b5080fd5b919050346103c7576020806003193601126103c357610289611c84565b61029a61029533611ce3565b612274565b6102a661029533611ce3565b6001600160a01b0316928315610382578333146103485750838052600581526102d460018386200154611d20565b83805260058152818420838552815260ff8285205416156102fd575b836102fa336120cc565b80f35b8380526005815281842083855290528220805460ff191660011790553390827f2f8788117e7eff1d82e926ec794901d17c78024a50270940304540a733656f0d8180a43880806102f0565b915162461bcd60e51b815291820152601660248201527520b1b1b2b9b9b4b136329d1039b0b6b29030b236b4b760511b6044820152606490fd5b915162461bcd60e51b815291820152601860248201527f41636365737369626c653a207a65726f206164647265737300000000000000006044820152606490fd5b8380fd5b8280fd5b505034610268578160031936011261026857602090600e549051908152f35b80843461055a57610100908160031936011261055657610408611c84565b610410611c9f565b6001600160a01b0392604435848116908190036105525760643585811680910361054e576084359186831680930361054a5760a435938785168095036105465760c435958887168097036105425760e4359789891680990361053e578989916104b160ff7f617f1cba5d7b9d5d3c81f0d5c78720ec2be227878bac84c0851b70e4cf61cb089f80808992526005602052818120338252602052205416612274565b16996bffffffffffffffffffffffff60a01b928b84600654161760065516918281600754161760075584816008541617600855858160095416176009558681600a541617600a558781600b541617600b558881600c541617600c55600d541617600d55815198895260208901528701526060860152608085015260a084015260c083015260e0820152a180f35b8b80fd5b8a80fd5b8980fd5b8880fd5b8780fd5b8680fd5b5050fd5b50fd5b919050346103c757806003193601126103c7576102fa91356105946001610582611c9f565b93838752600560205286200154611d20565b6121bb565b505034610268578160031936011261026857602090517ff0887ba65ee2024ea881d91b74c2450ef19e1557f03bed3ea9f16b037cbe2dc98152f35b919050346103c75760203660031901126103c7576105f0611c84565b6006546001600160a01b039061060990821633146122cb565b6011549361061a60ff861615612316565b600160ff1980961617601155818316808752600f6020528487209160028651936106438561205c565b549385602060ff871692838152019560081c168552036106d157508652600f6020908152848720805487166001908117909155915183168752601081528487209091015493516001600160a01b03938416815293909116909116908201527faf0a20fb16d60a15e38b6cd70fa0cce0bd2a744265663dfcbc90a02b360caf8090604090a16011541660115580f35b855163c84d787560e01b8152fd5b50503461026857816003193601126102685760065490516001600160a01b039091168152602090f35b50503461026857816003193601126102685760085490516001600160a01b039091168152602090f35b5050346102685760203660031901126102685760207f2342c0559c82fec746d047e08479a8b46bf45d4265f1db1c3a685b542c06f6a291610770611c84565b84805260058352818520338652835261078e60ff8387205416612274565b600780546001600160a01b0319166001600160a01b039290921691821790559051908152a180f35b919050346103c757806003193601126103c7576107d1611c84565b600c546001600160a01b0390811633036108b4578491818084936009541692168352600f6020528483205460081c16828551602081019263a9059cbb60e01b8452602482015260243560448201526044815261082c8161208e565b51925af1610838612348565b8161087d575b5015610848578280f35b906020606492519162461bcd60e51b8352820152600f60248201526e1514905394d1915497d19052531151608a1b6044820152fd5b8051801592508215610892575b50503861083e565b81925090602091810103126103c35760206108ad910161239a565b388061088a565b825162461bcd60e51b8152602081860152601b60248201527f73656e646572206973206e6f74206120536569674d616e6167657200000000006044820152606490fd5b83833461026857608036600319011261026857610912611c84565b602493604435918535918315158403610c065760643567ffffffffffffffff8111610552576109449036908301611cb5565b959094610950846126ad565b8615610bf8576001600160a01b038481168952600f6020908152838a20549092919060081c8116610be257610984866126cf565b5015610bcc5760095481169115610b895760085416600e548710610b73576109ae87303384612e1d565b8351636eb1769f60e11b8152308682019081526001600160a01b03841660208201528490829081906040010381855afa908115610b6957918885928d948591610b34575b5010610ab4575b5090918b85518094819363e34869d760e01b83528b8a8401525af1918215610aaa578992610a74575b505015610a5e5750633b9aca0092838102938185041490151715610a4c57506102fa9495506129d9565b634e487b7160e01b8652601190528585fd5b9060078892519163472ed10360e01b8352820152fd5b90809250813d8311610aa3575b610a8b81836120aa565b8101031261054e57610a9c9061239a565b8980610a22565b503d610a81565b83513d8b823e3d90fd5b855163095ea7b360e01b8152878101859052600019818f015292839160449183915af18015610b2a579183918b93610af0575b929190926109f9565b8281939294503d8311610b23575b610b0881836120aa565b81010312610546578991610b1c849261239a565b508c610ae7565b503d610afe565b84513d8c823e3d90fd5b93929450505081813d8311610b62575b610b4e81836120aa565b81010312610542578a91888592518f6109f2565b503d610b44565b85513d8d823e3d90fd5b835163472ed10360e01b81526006818701528b90fd5b509892919050600e54633b9aca00860410610bb857505050610bb3826102fa969730903390612e1d565b6129d9565b600690519163472ed10360e01b8352820152fd5b835163472ed10360e01b81526005818701528b90fd5b835163472ed10360e01b81528086018690528b90fd5b505163111dc0fd60e31b8152fd5b8580fd5b9050346103c75760203660031901126103c75735825260016020908152918190205490516001600160a01b039091168152f35b50503461026857816003193601126102685760075490516001600160a01b039091168152602090f35b505034610268576020366003190112610268576020916001600160a01b0390829082610c90611c84565b168152601085522054169051908152f35b50503461026857816003193601126102685751908152602090f35b9050346103c757816003193601126103c7578160209360ff92610cdd611c9f565b90358252600586528282206001600160a01b039091168252855220549151911615158152f35b50503461026857816003193601126102685760ff8183806020955260058552818120338252855220541690519015158152f35b50503461026857816003193601126102685760095490516001600160a01b039091168152602090f35b838334610268576020806003193601126103c757610d7b611c84565b9383809560018060a01b03908185816006541692602489518094819363391e3b3760e01b83521695868a8301525afa9081156110215791869186938691610fe4575b5060ff1660018103610ee85750875163078f29cf60e01b815292839182905afa908115610ede579082918491610ea6575b50169081610e1d575b5050505050610e19905b51911515825260208201929092529081906040820190565b0390f35b8496506024919294939597506008541694875195869384926370a0823160e01b84528301525afa928315610e9a578193610e66575b50505090610e196001919084808080610df7565b9091809350813d8311610e93575b610e7e81836120aa565b81010312610e90575051828080610e52565b80fd5b503d610e74565b508351903d90823e3d90fd5b809250868092503d8311610ed7575b610ebf81836120aa565b810103126103c757610ed18291612386565b89610dee565b503d610eb5565b86513d85823e3d90fd5b9092506002915014610f03575b5050505050610e1990610e01565b848491875192838092630a49cb0360e01b82525afa908115610ede579082918491610fac575b5016908115610ef5578496506024919294939597506008541694875195869384926370a0823160e01b84528301525afa928315610e9a578193610f7b575b50505090610e196001919084808080610ef5565b9091809350813d8311610fa5575b610f9381836120aa565b81010312610e90575051828080610f67565b503d610f89565b809250868092503d8311610fdd575b610fc581836120aa565b810103126103c757610fd78291612386565b89610f29565b503d610fbb565b92809294508391503d831161101a575b610ffe81836120aa565b810103126103c357849160ff6110148893612378565b90610dbd565b503d610ff4565b87513d86823e3d90fd5b505034610268576020366003190112610268576020916001600160a01b0390600190839083611058611c84565b16815260108652200154169051908152f35b5050346102685760203660031901126102685760209160ff9082906001600160a01b03611095611c84565b168152600f85522054169051908152f35b919050346103c7576020806003193601126103c35761029a611c84565b828434610e90576020366003190112610e90576001600160a01b03908290826110ea611c84565b168152600f60205220549082519160ff8116835260081c166020820152f35b8334610e905780600319360112610e905761112661029533611ce3565b6102fa336120cc565b50503461026857602090816003193601126103c75761114c611c84565b9161115961029533611ce3565b8380526005815261116f60018386200154611d20565b838052600581528184206001600160a01b039093168085529281528184205460ff161561119a578380f35b8380526005815281842083855290528220805460ff191660011790553390827f2f8788117e7eff1d82e926ec794901d17c78024a50270940304540a733656f0d8180a43880808380f35b505034610268578160031936011261026857600c5490516001600160a01b039091168152602090f35b505034610268578160031936011261026857600d5490516001600160a01b039091168152602090f35b505034610268578160031936011261026857600b5490516001600160a01b039091168152602090f35b50503461026857602036600319011261026857610e1990611286611281611c84565b6126cf565b9151901515815260208101919091529081906040820190565b50503461026857816003193601126102685760ff602092541690519015158152f35b505034610268576020366003190112610268576080906112e76112e2611c84565b61243f565b50508651951515865250506001600160a01b039283166020850152908216938301939093529091166060820152f35b5050346102685760203660031901126102685760209160ff9082906001600160a01b03611341611c84565b1681526002855220541690519015158152f35b9050346103c75760203660031901126103c7573563ffffffff60e01b81168091036103c757825260036020908152918190205490516001600160a01b039091168152f35b828434610e90576020366003190112610e90576001600160a01b0390610e19908390836113c3611c84565b168152601060205220916001818454169301541692519283928390602090939293604083019460018060a01b03809216845216910152565b50503461026857602036600319011261026857610e199061141d6112e2611c84565b975196151587526001600160a01b039586166020880152938516604087015293909116606085015260ff908116608085015290911660a0830152151560c082015290151560e0820152908190610100820190565b919050346103c75760203660031901126103c75781359183805260056020528184203385526020526114a860ff8386205416612274565b82600e54146114e35750816020917f50e01964a144ee7e40d80d0792ff2641558654ef906fd81502421f22bf6ca92c93600e5551908152a180f35b606491519062461bcd60e51b825260208183015260248201526373616d6560e01b6044820152fd5b83833461026857608036600319011261026857611526611c84565b61152e611c9f565b9260443560643567ffffffffffffffff81116103c7576115519036908801611cb5565b600854336001600160a01b03918216149791949188158061186a575b61185357813091160361183c576014851115611825576014833560601c930194601319019561159b846126ad565b838352602098600f8a52828985205460081c1661180e576115bb856126cf565b50156117f757156117b2578160095416916008541690600e54861061179b57856115e791309084612e1d565b8751636eb1769f60e11b815230818c019081526001600160a01b03841660208201528a90829081906040010381855afa908115611791579086918591611760575b50106116f3575b50878460248b858b51958694859363e34869d760e01b85528401525af19081156116e95782916116b4575b501561169d57633b9aca009283810293818504149015171561168a5750611683949596506129d9565b5160018152f35b634e487b7160e01b815260118852602490fd5b855163472ed10360e01b81526007818a0152602490fd5b90508781813d83116116e2575b6116cb81836120aa565b81010312610268576116dc9061239a565b8961165a565b503d6116c1565b87513d84823e3d90fd5b888260448c868c51958694859363095ea7b360e01b855284015260001960248401525af18015611756571561162f578881813d831161174f575b61173781836120aa565b810103126103c7576117489061239a565b508961162f565b503d61172d565b88513d85823e3d90fd5b8092508b8092503d831161178a575b61177981836120aa565b810103126103c3578590518c611628565b503d61176f565b89513d86823e3d90fd5b885163472ed10360e01b81526006818d0152602490fd5b91506009541697600e54633b9aca008504106117e05750826117db969798610bb3923091612e1d565b611683565b602490600688519163472ed10360e01b8352820152fd5b885163472ed10360e01b81526005818d0152602490fd5b885163472ed10360e01b8152808c018c9052602490fd5b86516350f1c44960e11b81526003818b0152602490fd5b86516350f1c44960e11b81526002818b0152602490fd5b87516350f1c44960e11b81526001818c0152602490fd5b50816009541633141561156d565b505034610268578160031936011261026857600a5490516001600160a01b039091168152602090f35b839150346102685782600319360112610268576118bc611c9f565b90336001600160a01b038316036118d857906102fa91356121bb565b608490602085519162461bcd60e51b8352820152602f60248201527f416363657373436f6e74726f6c3a2063616e206f6e6c792072656e6f756e636560448201526e103937b632b9903337b91039b2b63360891b6064820152fd5b9050346103c757602091826003193601126103c357611950611c84565b6006546001600160a01b0394919061196b90861633146122cb565b6011549461197c60ff871615612316565b600160ff1980971617601155808216808852600f845284882060018651916119a38361205c565b5491848760ff851692838152019360081c16835203611aa45790827f14280f6eab1c847215d9714b0aa6711ad26e21304f06a85a46ad07a1f11e8370925116895260108552826001878b200154169384916119fd836126ad565b8a52600f8652868a2080548a16600217905586516001600160a01b03918216815291166020820152604090a1600c541691835190810191634a39e57f60e11b83526024820152602481526060810181811067ffffffffffffffff821117611a9157845251869283929083905af1611a72612348565b5015611a845750506011541660115580f35b516316a6ca0960e21b8152fd5b634e487b7160e01b885260418652602488fd5b855163c84d787560e01b81528790fd5b9050346103c757816003193601126103c7573590611ad0611c9f565b908284526005602052611ae860018286200154611d20565b828452600560209081528185206001600160a01b039093168086529290528084205460ff1615611b16578380f35b82845260056020528084208285526020528320600160ff1982541617905533917f2f8788117e7eff1d82e926ec794901d17c78024a50270940304540a733656f0d8480a43880808380f35b5050346102685760203660031901126102685760ff81602093611b82611c84565b818052600586528282206001600160a01b039091168252855220549151911615158152f35b9050346103c75760203660031901126103c75781602093600192358152600585522001549051908152f35b8334610e90576020366003190112610e90576102fa611bef611c84565b611bfb61029533611ce3565b6120cc565b849184346103c35760203660031901126103c35781359063ffffffff60e01b8216809203611c8057602094637965db0b60e01b8314938415611c47575b5050505015158152f35b6301ffc9a760e01b8414945091929091908415611c6c575b5050505083808080611c3d565b60ff94508252855220541683808080611c5f565b8480fd5b600435906001600160a01b0382168203611c9a57565b600080fd5b602435906001600160a01b0382168203611c9a57565b9181601f84011215611c9a5782359167ffffffffffffffff8311611c9a5760208381860195010111611c9a57565b6001600160a01b031660009081527f05b8ccbb9d4d8fb16ea74ce3c29a41f1b461fbdaff4714a0d9a8eb05499746bc602052604090205460ff1690565b60009080825260209060058252604090818420338552835260ff828520541615611d4a5750505050565b815193336060860167ffffffffffffffff811187821017612025578452602a86528486019284368537865115611f3d5760308453865191600192831015612011576078602189015360295b838111611fa75750611f6557845191611dad8361208e565b60428352868301936060368637835115611f5157603085538351821015611f515790607860218501536041915b818311611ee357505050611ea15792611e6f6048611e609794611e93946044989785519a8b93611e378b86019a7f416363657373436f6e74726f6c3a206163636f756e74200000000000000000008c525180926037880190612039565b8401917001034b99036b4b9b9b4b733903937b6329607d1b603784015251809386840190612039565b010360288101895201876120aa565b5194859362461bcd60e51b8552600485015251809281602486015285850190612039565b601f01601f19168101030190fd5b60648585519062461bcd60e51b825280600483015260248201527f537472696e67733a20686578206c656e67746820696e73756666696369656e746044820152fd5b909192600f81166010811015611f3d576f181899199a1a9b1b9c1cb0b131b232b360811b901a611f13858761224d565b5360041c928015611f2957600019019190611dda565b634e487b7160e01b82526011600452602482fd5b634e487b7160e01b83526032600452602483fd5b634e487b7160e01b81526032600452602490fd5b60648686519062461bcd60e51b825280600483015260248201527f537472696e67733a20686578206c656e67746820696e73756666696369656e746044820152fd5b90600f81166010811015611ffd576f181899199a1a9b1b9c1cb0b131b232b360811b901a611fd5838b61224d565b5360041c908015611fe95760001901611d95565b634e487b7160e01b85526011600452602485fd5b634e487b7160e01b86526032600452602486fd5b634e487b7160e01b84526032600452602484fd5b634e487b7160e01b83526041600452602483fd5b60005b83811061204c5750506000910152565b818101518382015260200161203c565b6040810190811067ffffffffffffffff82111761207857604052565b634e487b7160e01b600052604160045260246000fd5b6080810190811067ffffffffffffffff82111761207857604052565b90601f8019910116810190811067ffffffffffffffff82111761207857604052565b6001600160a01b031633810361215e5760008181527f05b8ccbb9d4d8fb16ea74ce3c29a41f1b461fbdaff4714a0d9a8eb05499746bc602052604081205490919060ff16612118575050565b8180526005602052604082208183526020526040822060ff19815416905533917ff6391f5c32d9c69d2a47ea670b442974b53935d1edc7fd64eb21e047a839171b8180a4565b60405162461bcd60e51b815260206004820152602f60248201527f416363657373436f6e74726f6c3a2063616e206f6e6c792072656e6f756e636560448201526e103937b632b9903337b91039b2b63360891b6064820152608490fd5b906000918083526005602052604083209160018060a01b03169182845260205260ff6040842054166121ec57505050565b8083526005602052604083208284526020526040832060ff1981541690557ff6391f5c32d9c69d2a47ea670b442974b53935d1edc7fd64eb21e047a839171b339380a4565b67ffffffffffffffff811161207857601f01601f191660200190565b90815181101561225e570160200190565b634e487b7160e01b600052603260045260246000fd5b1561227b57565b60405162461bcd60e51b815260206004820152602260248201527f41636365737369626c653a2043616c6c6572206973206e6f7420616e2061646d60448201526134b760f11b6064820152608490fd5b156122d257565b606460405162461bcd60e51b815260206004820152602060248201527f73656e646572206973206e6f742061204c3142726964676552656769737472796044820152fd5b1561231d57565b606460405162461bcd60e51b81526020600482015260046024820152636c6f636b60e01b6044820152fd5b3d15612373573d9061235982612231565b9161236760405193846120aa565b82523d6000602084013e565b606090565b519060ff82168203611c9a57565b51906001600160a01b0382168203611c9a57565b51908115158203611c9a57565b919060a083820312611c9a576123bc83612378565b926123c960208201612386565b926123d66040830161239a565b926123e36060840161239a565b9260808101519067ffffffffffffffff8211611c9a570181601f82011215611c9a57805161241081612231565b9261241e60405194856120aa565b81845260208284010111611c9a5761243c9160208085019101612039565b90565b600091600091828092819260018060a01b03908160065416926040948386519363f5e9b26b60e01b855216958660048501528184602481895afa9485156126a257829583958491612672575b5094958098808552602091600f835260ff85872054169960018b146124b4575b50505050505050565b855163078f29cf60e01b8152908482600481875afa918215612668578892612631575b50858216612580575b505060ff166002146124f4575b80806124ab565b9080600492969e9596855193848092630a49cb0360e01b82525afa9384156125775750859361253f575b50508116612534575050975b38808080806124ed565b91509896509561252a565b9080929350813d8311612570575b61255781836120aa565b810103126103c35761256890612386565b90388061251e565b503d61254d565b513d87823e3d90fd5b60ff831660018114908115612626575b506125b2575b50848d166125a5575b806124e0565b60019f509d5060ff61259f565b6024919d5084908751928380926312dea97560e21b82528760048301525afa90811561261c5787916125e7575b509b38612596565b90508381813d8311612615575b6125fe81836120aa565b810103126105525761260f90612386565b386125df565b503d6125f4565b86513d89823e3d90fd5b600291501438612590565b9091508481813d8311612661575b61264981836120aa565b8101031261054e5761265a90612386565b90386124d7565b503d61263f565b87513d8a823e3d90fd5b919650506126939194503d8084833e61268b81836120aa565b8101906123a7565b5095929096915095943861248b565b5051903d90823e3d90fd5b6001600160a01b0316156126bd57565b604051633efa09af60e01b8152600490fd5b6000916000809260018060a01b03918260065416916040938085519263f5e9b26b60e01b845216918381602481600498878a8301525afa908115612818579060ff91859161299a575b50166001810361282257508451809263078f29cf60e01b8252818660209586935afa9081156128185790829185916127e0575b5016908161275c575b505050505050565b829496985060249192939597506008541695875196879384926370a0823160e01b84528301525afa9384156127d5575081936127a4575b505050600191388080808080612754565b9091809350813d83116127ce575b6127bc81836120aa565b81010312610e90575051388080612793565b503d6127b2565b51913d9150823e3d90fd5b809250848092503d8311612811575b6127f981836120aa565b810103126103c35761280b8291612386565b3861274b565b503d6127ef565b86513d86823e3d90fd5b600214612831575b5050505050565b84519063078f29cf60e01b825260209283838781845afa92831561295757869185918795612961575b508851630a49cb0360e01b815292839182905afa90811561295757908291869161291f575b501691818315159182612913575b505061289a575b5061282a565b829496985060249192939597506008541695875196879384926370a0823160e01b84528301525afa9384156127d5575081936128e2575b505050600191388080808080612894565b9091809350813d831161290c575b6128fa81836120aa565b81010312610e905750513880806128d1565b503d6128f0565b1615159050813861288d565b809250858092503d8311612950575b61293881836120aa565b81010312611c805761294a8291612386565b3861287f565b503d61292e565b87513d87823e3d90fd5b9250935081813d8311612993575b61297981836120aa565b81010312611c80578361298c8792612386565b933861285a565b503d61296f565b6129ae91503d8087833e61268b81836120aa565b5050505038612718565b908060209392818452848401376000828201840152601f01601f1916010190565b9092919260018060a01b039081600754166040938385519163f802ead360e01b83521693600496858884015260209560249987858c816000809a5af1948515612e13578695612ddc575b50838516908115612dc65781875260108952848a88205416612db0579084939291898b8d8f98600a5416908b8351809b81958294634892afd360e01b845283015288612a73604484018d8b6129b8565b9183015203925af1958615612da657908a8c8a938499612d5d575b50908780838b945193612aa08561205c565b898552888382870197169889885252601090528d20925116916bffffffffffffffffffffffff60a01b9283825416178155600101925116908254161790558b51612ae98161205c565b600181528b8101848152858b52600f8d528d8b20915160ff16825491600160a81b6101009003905160081b16916affffffffffffffffffffff60a81b16171790558b5194859485528a8c8601528c850160a0905260a0850190612b4b926129b8565b9160608401526080830152037f3685763fd42e5061ff53b001782ad759eafbc93a460b368a4ce42228ec45da9891a1600954600b548851636eb1769f60e11b8152308b82019081529184166001600160a01b0381166020840152928416918990829081906040010381855afa908115612d5357878d938a8c99989796948f948491612d12575b5010612c8a575b5050505050600b5416908489612c1e8a5198899687958694638340f54960e01b8652850160409194939294606082019560018060a01b0380921683521660208201520152565b03925af1928315610e9a578193612c51575b50505015612c3d57505050565b600390519163472ed10360e01b8352820152fd5b9091809350813d8311612c83575b612c6981836120aa565b81010312610e905750612c7b9061239a565b388080612c30565b503d612c5f565b90604492918d99959697989951968795869463095ea7b360e01b8652850152600019908401525af18015612d0857908794939291612ccd575b808a878d93612bd8565b9091929381813d8311612d01575b612ce581836120aa565b81010312611c805790612cfa8794939261239a565b5038612cc3565b503d612cdb565b88513d87823e3d90fd5b959798999a9450505093505081813d8311612d4c575b612d3281836120aa565b8101031261055257918a878d938a8c999897965138612bd1565b503d612d28565b8a513d89823e3d90fd5b9350509092939495965081813d8311612d9f575b612d7b81836120aa565b8101031261054e5785949392918b8b87612d958c95612386565b9950919091612a8e565b503d612d71565b8b513d8a823e3d90fd5b895163472ed10360e01b81526002818d01528c90fd5b895163472ed10360e01b81526001818d01528c90fd5b9094508781813d8311612e0c575b612df481836120aa565b81010312610c0657612e0590612386565b9338612a23565b503d612dea565b89513d88823e3d90fd5b6040516323b872dd60e01b602082019081526001600160a01b039384166024830152939092166044830152606480830194909452928152600092839290918390612e686084826120aa565b51926001600160a01b03165af1612e7d612348565b81612ec7575b5015612e8b57565b60405162461bcd60e51b81526020600482015260146024820152731514905394d1915497d19493d357d1905253115160621b6044820152606490fd5b8051801592508215612edc575b505038612e83565b8192509060209181010312611c9a576020612ef7910161239a565b3880612ed456fea164736f6c6343000813000a",
  "linkReferences": {},
  "deployedLinkReferences": {}
}