{
  "_format": "hh-sol-artifact-1",
  "contractName": "Layer2ManagerV1_1",
  "sourceName": "contracts/layer2/Layer2ManagerV1_1.sol",
  "abi": [
    {
      "inputs": [],
      "stateMutability": "nonpayable",
      "type": "constructor"
    },
    {
      "anonymous": false,
      "inputs": [
        {
          "indexed": false,
          "internalType": "address",
          "name": "systemConfig",
          "type": "address"
        },
        {
          "indexed": false,
          "internalType": "uint256",
          "name": "wtonAmount",
          "type": "uint256"
        },
        {
          "indexed": false,
          "internalType": "string",
          "name": "memo",
          "type": "string"
        },
        {
          "indexed": false,
          "internalType": "address",
          "name": "operator",
          "type": "address"
        },
        {
          "indexed": false,
          "internalType": "address",
          "name": "layer2Candidate",
          "type": "address"
        }
      ],
      "name": "RegisteredLayer2Candidate",
      "type": "event"
    },
    {
      "anonymous": false,
      "inputs": [
        {
          "indexed": true,
          "internalType": "bytes32",
          "name": "role",
          "type": "bytes32"
        },
        {
          "indexed": true,
          "internalType": "bytes32",
          "name": "previousAdminRole",
          "type": "bytes32"
        },
        {
          "indexed": true,
          "internalType": "bytes32",
          "name": "newAdminRole",
          "type": "bytes32"
        }
      ],
      "name": "RoleAdminChanged",
      "type": "event"
    },
    {
      "anonymous": false,
      "inputs": [
        {
          "indexed": true,
          "internalType": "bytes32",
          "name": "role",
          "type": "bytes32"
        },
        {
          "indexed": true,
          "internalType": "address",
          "name": "account",
          "type": "address"
        },
        {
          "indexed": true,
          "internalType": "address",
          "name": "sender",
          "type": "address"
        }
      ],
      "name": "RoleGranted",
      "type": "event"
    },
    {
      "anonymous": false,
      "inputs": [
        {
          "indexed": true,
          "internalType": "bytes32",
          "name": "role",
          "type": "bytes32"
        },
        {
          "indexed": true,
          "internalType": "address",
          "name": "account",
          "type": "address"
        },
        {
          "indexed": true,
          "internalType": "address",
          "name": "sender",
          "type": "address"
        }
      ],
      "name": "RoleRevoked",
      "type": "event"
    },
    {
      "anonymous": false,
      "inputs": [
        {
          "indexed": false,
          "internalType": "address",
          "name": "_l2Register",
          "type": "address"
        },
        {
          "indexed": false,
          "internalType": "address",
          "name": "_operatorFactory",
          "type": "address"
        },
        {
          "indexed": false,
          "internalType": "address",
          "name": "_ton",
          "type": "address"
        },
        {
          "indexed": false,
          "internalType": "address",
          "name": "_wton",
          "type": "address"
        },
        {
          "indexed": false,
          "internalType": "address",
          "name": "_dao",
          "type": "address"
        },
        {
          "indexed": false,
          "internalType": "address",
          "name": "_depositManager",
          "type": "address"
        },
        {
          "indexed": false,
          "internalType": "address",
          "name": "_seigManager",
          "type": "address"
        },
        {
          "indexed": false,
          "internalType": "address",
          "name": "_swapProxy",
          "type": "address"
        }
      ],
      "name": "SetAddresses",
      "type": "event"
    },
    {
      "anonymous": false,
      "inputs": [
        {
          "indexed": false,
          "internalType": "uint256",
          "name": "_minimumInitialDepositAmount",
          "type": "uint256"
        }
      ],
      "name": "SetMinimumInitialDepositAmount",
      "type": "event"
    },
    {
      "inputs": [],
      "name": "DEFAULT_ADMIN_ROLE",
      "outputs": [
        {
          "internalType": "bytes32",
          "name": "",
          "type": "bytes32"
        }
      ],
      "stateMutability": "view",
      "type": "function"
    },
    {
      "inputs": [],
      "name": "MINTER_ROLE",
      "outputs": [
        {
          "internalType": "bytes32",
          "name": "",
          "type": "bytes32"
        }
      ],
      "stateMutability": "view",
      "type": "function"
    },
    {
      "inputs": [
        {
          "internalType": "address",
          "name": "account",
          "type": "address"
        }
      ],
      "name": "addAdmin",
      "outputs": [],
      "stateMutability": "nonpayable",
      "type": "function"
    },
    {
      "inputs": [
        {
          "internalType": "address",
          "name": "",
          "type": "address"
        }
      ],
      "name": "aliveImplementation",
      "outputs": [
        {
          "internalType": "bool",
          "name": "",
          "type": "bool"
        }
      ],
      "stateMutability": "view",
      "type": "function"
    },
    {
      "inputs": [
        {
          "internalType": "address",
          "name": "_systemConfig",
          "type": "address"
        }
      ],
      "name": "checkLayer2TVL",
      "outputs": [
        {
          "internalType": "bool",
          "name": "result",
          "type": "bool"
        },
        {
          "internalType": "uint256",
          "name": "amount",
          "type": "uint256"
        }
      ],
      "stateMutability": "view",
      "type": "function"
    },
    {
      "inputs": [],
      "name": "dao",
      "outputs": [
        {
          "internalType": "address",
          "name": "",
          "type": "address"
        }
      ],
      "stateMutability": "view",
      "type": "function"
    },
    {
      "inputs": [],
      "name": "depositManager",
      "outputs": [
        {
          "internalType": "address",
          "name": "",
          "type": "address"
        }
      ],
      "stateMutability": "view",
      "type": "function"
    },
    {
      "inputs": [
        {
          "internalType": "bytes32",
          "name": "role",
          "type": "bytes32"
        }
      ],
      "name": "getRoleAdmin",
      "outputs": [
        {
          "internalType": "bytes32",
          "name": "",
          "type": "bytes32"
        }
      ],
      "stateMutability": "view",
      "type": "function"
    },
    {
      "inputs": [
        {
          "internalType": "bytes32",
          "name": "role",
          "type": "bytes32"
        },
        {
          "internalType": "address",
          "name": "account",
          "type": "address"
        }
      ],
      "name": "grantRole",
      "outputs": [],
      "stateMutability": "nonpayable",
      "type": "function"
    },
    {
      "inputs": [
        {
          "internalType": "bytes32",
          "name": "role",
          "type": "bytes32"
        },
        {
          "internalType": "address",
          "name": "account",
          "type": "address"
        }
      ],
      "name": "hasRole",
      "outputs": [
        {
          "internalType": "bool",
          "name": "",
          "type": "bool"
        }
      ],
      "stateMutability": "view",
      "type": "function"
    },
    {
      "inputs": [
        {
          "internalType": "address",
          "name": "account",
          "type": "address"
        }
      ],
      "name": "isAdmin",
      "outputs": [
        {
          "internalType": "bool",
          "name": "",
          "type": "bool"
        }
      ],
      "stateMutability": "view",
      "type": "function"
    },
    {
      "inputs": [],
      "name": "isOwner",
      "outputs": [
        {
          "internalType": "bool",
          "name": "",
          "type": "bool"
        }
      ],
      "stateMutability": "view",
      "type": "function"
    },
    {
      "inputs": [
        {
          "internalType": "address",
          "name": "",
          "type": "address"
        }
      ],
      "name": "issueStatusLayer2",
      "outputs": [
        {
          "internalType": "uint8",
          "name": "",
          "type": "uint8"
        }
      ],
      "stateMutability": "view",
      "type": "function"
    },
    {
      "inputs": [],
      "name": "l2Register",
      "outputs": [
        {
          "internalType": "address",
          "name": "",
          "type": "address"
        }
      ],
      "stateMutability": "view",
      "type": "function"
    },
    {
      "inputs": [
        {
          "internalType": "address",
          "name": "",
          "type": "address"
        }
      ],
      "name": "layer2CandidateOfOperator",
      "outputs": [
        {
          "internalType": "address",
          "name": "",
          "type": "address"
        }
      ],
      "stateMutability": "view",
      "type": "function"
    },
    {
      "inputs": [],
      "name": "minimumInitialDepositAmount",
      "outputs": [
        {
          "internalType": "uint256",
          "name": "",
          "type": "uint256"
        }
      ],
      "stateMutability": "view",
      "type": "function"
    },
    {
      "inputs": [
        {
          "internalType": "address",
          "name": "owner",
          "type": "address"
        },
        {
          "internalType": "address",
          "name": "spender",
          "type": "address"
        },
        {
          "internalType": "uint256",
          "name": "amount",
          "type": "uint256"
        },
        {
          "internalType": "bytes",
          "name": "data",
          "type": "bytes"
        }
      ],
      "name": "onApprove",
      "outputs": [
        {
          "internalType": "bool",
          "name": "",
          "type": "bool"
        }
      ],
      "stateMutability": "nonpayable",
      "type": "function"
    },
    {
      "inputs": [],
      "name": "operatorFactory",
      "outputs": [
        {
          "internalType": "address",
          "name": "",
          "type": "address"
        }
      ],
      "stateMutability": "view",
      "type": "function"
    },
    {
      "inputs": [
        {
          "internalType": "address",
          "name": "",
          "type": "address"
        }
      ],
      "name": "operatorOfSystemConfig",
      "outputs": [
        {
          "internalType": "address",
          "name": "",
          "type": "address"
        }
      ],
      "stateMutability": "view",
      "type": "function"
    },
    {
      "inputs": [],
      "name": "pauseProxy",
      "outputs": [
        {
          "internalType": "bool",
          "name": "",
          "type": "bool"
        }
      ],
      "stateMutability": "view",
      "type": "function"
    },
    {
      "inputs": [
        {
          "internalType": "uint256",
          "name": "",
          "type": "uint256"
        }
      ],
      "name": "proxyImplementation",
      "outputs": [
        {
          "internalType": "address",
          "name": "",
          "type": "address"
        }
      ],
      "stateMutability": "view",
      "type": "function"
    },
    {
      "inputs": [
        {
          "internalType": "address",
          "name": "systemConfig",
          "type": "address"
        },
        {
          "internalType": "uint256",
          "name": "amount",
          "type": "uint256"
        },
        {
          "internalType": "bool",
          "name": "flagTon",
          "type": "bool"
        },
        {
          "internalType": "string",
          "name": "memo",
          "type": "string"
        }
      ],
      "name": "registerLayer2Candidate",
      "outputs": [],
      "stateMutability": "nonpayable",
      "type": "function"
    },
    {
      "inputs": [
        {
          "internalType": "address",
          "name": "account",
          "type": "address"
        }
      ],
      "name": "removeAdmin",
      "outputs": [],
      "stateMutability": "nonpayable",
      "type": "function"
    },
    {
      "inputs": [],
      "name": "renounceOwnership",
      "outputs": [],
      "stateMutability": "nonpayable",
      "type": "function"
    },
    {
      "inputs": [
        {
          "internalType": "bytes32",
          "name": "role",
          "type": "bytes32"
        },
        {
          "internalType": "address",
          "name": "account",
          "type": "address"
        }
      ],
      "name": "renounceRole",
      "outputs": [],
      "stateMutability": "nonpayable",
      "type": "function"
    },
    {
      "inputs": [
        {
          "internalType": "bytes32",
          "name": "role",
          "type": "bytes32"
        },
        {
          "internalType": "address",
          "name": "account",
          "type": "address"
        }
      ],
      "name": "revokeRole",
      "outputs": [],
      "stateMutability": "nonpayable",
      "type": "function"
    },
    {
      "inputs": [],
      "name": "seigManager",
      "outputs": [
        {
          "internalType": "address",
          "name": "",
          "type": "address"
        }
      ],
      "stateMutability": "view",
      "type": "function"
    },
    {
      "inputs": [
        {
          "internalType": "bytes4",
          "name": "",
          "type": "bytes4"
        }
      ],
      "name": "selectorImplementation",
      "outputs": [
        {
          "internalType": "address",
          "name": "",
          "type": "address"
        }
      ],
      "stateMutability": "view",
      "type": "function"
    },
    {
      "inputs": [
        {
          "internalType": "address",
          "name": "_l2Register",
          "type": "address"
        },
        {
          "internalType": "address",
          "name": "_operatorFactory",
          "type": "address"
        },
        {
          "internalType": "address",
          "name": "_ton",
          "type": "address"
        },
        {
          "internalType": "address",
          "name": "_wton",
          "type": "address"
        },
        {
          "internalType": "address",
          "name": "_dao",
          "type": "address"
        },
        {
          "internalType": "address",
          "name": "_depositManager",
          "type": "address"
        },
        {
          "internalType": "address",
          "name": "_seigManager",
          "type": "address"
        },
        {
          "internalType": "address",
          "name": "_swapProxy",
          "type": "address"
        }
      ],
      "name": "setAddresses",
      "outputs": [],
      "stateMutability": "nonpayable",
      "type": "function"
    },
    {
      "inputs": [
        {
          "internalType": "uint256",
          "name": "_minimumInitialDepositAmount",
          "type": "uint256"
        }
      ],
      "name": "setMinimumInitialDepositAmount",
      "outputs": [],
      "stateMutability": "nonpayable",
      "type": "function"
    },
    {
      "inputs": [
        {
          "internalType": "bytes4",
          "name": "interfaceId",
          "type": "bytes4"
        }
      ],
      "name": "supportsInterface",
      "outputs": [
        {
          "internalType": "bool",
          "name": "",
          "type": "bool"
        }
      ],
      "stateMutability": "view",
      "type": "function"
    },
    {
      "inputs": [],
      "name": "swapProxy",
      "outputs": [
        {
          "internalType": "address",
          "name": "",
          "type": "address"
        }
      ],
      "stateMutability": "view",
      "type": "function"
    },
    {
      "inputs": [
        {
          "internalType": "address",
          "name": "",
          "type": "address"
        }
      ],
      "name": "systemConfigOfOperator",
      "outputs": [
        {
          "internalType": "address",
          "name": "",
          "type": "address"
        }
      ],
      "stateMutability": "view",
      "type": "function"
    },
    {
      "inputs": [],
      "name": "ton",
      "outputs": [
        {
          "internalType": "address",
          "name": "",
          "type": "address"
        }
      ],
      "stateMutability": "view",
      "type": "function"
    },
    {
      "inputs": [
        {
          "internalType": "address",
          "name": "newAdmin",
          "type": "address"
        }
      ],
      "name": "transferAdmin",
      "outputs": [],
      "stateMutability": "nonpayable",
      "type": "function"
    },
    {
      "inputs": [
        {
          "internalType": "address",
          "name": "newAdmin",
          "type": "address"
        }
      ],
      "name": "transferOwnership",
      "outputs": [],
      "stateMutability": "nonpayable",
      "type": "function"
    },
    {
      "inputs": [
        {
          "internalType": "address",
          "name": "systemConfig",
          "type": "address"
        },
        {
          "internalType": "uint256",
          "name": "amount",
          "type": "uint256"
        }
      ],
      "name": "updateSeigniorage",
      "outputs": [],
      "stateMutability": "nonpayable",
      "type": "function"
    },
    {
      "inputs": [],
      "name": "wton",
      "outputs": [
        {
          "internalType": "address",
          "name": "",
          "type": "address"
        }
      ],
      "stateMutability": "view",
      "type": "function"
    }
  ],
  "bytecode": "0x6080806040523461002357600160ff19601354161760135561267990816100298239f35b600080fdfe6080604052600436101561001257600080fd5b60003560e01c806301ffc9a714610277578063153e6d7f146102725780631785f53c1461026d578063248a9ca31461026857806324d7806c1461026357806327f1470d1461025e5780632f2ff15d1461025957806336568abe146102545780634162169f1461024f5780634273ca161461024a5780634318dc1d14610245578063472d1f711461024057806350d2a2761461023b5780635290c24814610236578063550d01a31461023157806363a8fd891461022c5780636c7ac9d8146102275780636ec4be90146102225780636fb7f5581461021d5780637048027514610218578063715018a61461021357806375829def1461020e57806389c0db62146102095780638d62d949146102045780638f32d59b146101ff57806391d14854146101fa578063a1efe920146101f5578063a217fddf146101f0578063b17dba1b146101eb578063b911135f146101e6578063c5f16b89146101e1578063cc48b947146101dc578063d5391393146101d7578063d547741f146101d2578063d733cfd0146101cd578063e9d6ec4f146101c8578063ef6cf652146101c35763f2fde38b146101be57600080fd5b6112c5565b611286565b611268565b610f66565b610f24565b610ee9565b610ec0565b610d62565b610d2e565b610cef565b610cd3565b610c94565b610c4a565b610c10565b610be7565b610bb2565b610ae7565b610ac1565b6109d1565b6109a8565b61097f565b610956565b610933565b6108f1565b6108c8565b610890565b610867565b6107c2565b610693565b61066a565b6105d4565b610507565b610452565b6103c6565b610397565b61035f565b61031f565b6102a4565b602090600319011261029f576004356001600160e01b03198116810361029f5790565b600080fd5b3461029f576001600160e01b03196102bb3661027c565b16637965db0b60e01b811480156102da575b6020906040519015158152f35b506301ffc9a760e01b811480156102f5575b602091506102cd565b506000526004602052602060ff604060002054166102ec565b6001600160a01b0381160361029f57565b3461029f57602036600319011261029f5760043561033c8161030e565b60018060a01b0316600052600f602052602060ff60406000205416604051908152f35b3461029f57602036600319011261029f5761039560043561037f8161030e565b61039061038b336112ea565b611895565b6115bb565b005b3461029f57602036600319011261029f5760043560005260056020526020600160406000200154604051908152f35b3461029f57602036600319011261029f57602060ff61040e6004356103ea8161030e565b600080526005845260406000209060018060a01b0316600052602052604060002090565b54166040519015158152f35b8015150361029f57565b9181601f8401121561029f5782359167ffffffffffffffff831161029f576020838186019501011161029f57565b3461029f57608036600319011261029f5760043561046f8161030e565b60443561047b8161041a565b60643567ffffffffffffffff811161029f5761049b903690600401610424565b916104b06001600160a01b0385161515611a90565b82156104d557836104cb6104c661039596611e17565b611a32565b60243590336120aa565b60405162461bcd60e51b815260206004820152600a602482015269636865636b206d656d6f60b01b6044820152606490fd5b3461029f57604036600319011261029f576004356024356105278161030e565b600091808352600560205261054260016040852001546113d8565b8083526005602090815260408085206001600160a01b0385166000908152925290205460ff1615610571578280f35b8083526005602090815260408085206001600160a01b038516600090815292529020805460ff1916600117905533916001600160a01b0316907f2f8788117e7eff1d82e926ec794901d17c78024a50270940304540a733656f0d8480a438808280f35b3461029f57604036600319011261029f576024356105f18161030e565b336001600160a01b0382160361060d5761039590600435611658565b60405162461bcd60e51b815260206004820152602f60248201527f416363657373436f6e74726f6c3a2063616e206f6e6c792072656e6f756e636560448201526e103937b632b9903337b91039b2b63360891b6064820152608490fd5b3461029f57600036600319011261029f57600a546040516001600160a01b039091168152602090f35b3461029f57608036600319011261029f576004356106b08161030e565b6024356106bc8161030e565b6044359160643567ffffffffffffffff811161029f576106e0903690600401610424565b60085490949190610701906001600160a01b03165b6001600160a01b031690565b331480801561079f575b61071490611923565b6001600160a01b039461072a908616301461196f565b610751601461073a3689866119bb565b610745828a116119f2565b015195861615156119f2565b61075d6104c686611e17565b1561078457846107789561077092611a73565b939092611f90565b60405160018152602090f35b8461079a9561079292611a73565b939092611f4d565b610778565b50600954610714906107b9906001600160a01b03166106f5565b3314905061070b565b3461029f57602036600319011261029f5733600090815260008051602061264d83398151915260205260409020600435906108029060ff905b5416611895565b80600e541461083c576020817f50e01964a144ee7e40d80d0792ff2641558654ef906fd81502421f22bf6ca92c92600e55604051908152a1005b606460405162461bcd60e51b815260206004820152600460248201526373616d6560e01b6044820152fd5b3461029f57600036600319011261029f576006546040516001600160a01b039091168152602090f35b3461029f576001600160e01b03196108a73661027c565b166000526003602052602060018060a01b0360406000205416604051908152f35b3461029f57600036600319011261029f576007546040516001600160a01b039091168152602090f35b3461029f57602036600319011261029f5760043561090e8161030e565b60018060a01b03166000526002602052602060ff604060002054166040519015158152f35b3461029f57600036600319011261029f57602060ff600054166040519015158152f35b3461029f57600036600319011261029f57600b546040516001600160a01b039091168152602090f35b3461029f57600036600319011261029f57600d546040516001600160a01b039091168152602090f35b3461029f57600036600319011261029f57600c546040516001600160a01b039091168152602090f35b3461029f57602036600319011261029f576004356109ee8161030e565b6109fa61038b336112ea565b600080805260056020527f05b8ccbb9d4d8fb16ea74ce3c29a41f1b461fbdaff4714a0d9a8eb05499746bd54909190610a32906113d8565b8180526005602090815260408084206001600160a01b0384166000908152925290205460ff1615610a61575080f35b8180526005602090815260408084206001600160a01b038416600090815292529020805460ff1916600117905533906001600160a01b0316827f2f8788117e7eff1d82e926ec794901d17c78024a50270940304540a733656f0d8180a480f35b3461029f57600036600319011261029f57610ade61038b336112ea565b610395336115bb565b3461029f57602036600319011261029f57600435610b048161030e565b610b1061038b336112ea565b6001600160a01b0381168015610b6d573314610b2f57610ade90611315565b60405162461bcd60e51b815260206004820152601660248201527520b1b1b2b9b9b4b136329d1039b0b6b29030b236b4b760511b6044820152606490fd5b60405162461bcd60e51b815260206004820152601860248201527f41636365737369626c653a207a65726f206164647265737300000000000000006044820152606490fd5b3461029f57602036600319011261029f576040610bd9600435610bd48161030e565b611b3a565b825191151582526020820152f35b3461029f57600036600319011261029f576009546040516001600160a01b039091168152602090f35b3461029f57600080600319360112610c4757808052600560209081526040918290203360009081529082529190912060ff9061040e565b80fd5b3461029f57604036600319011261029f57602060ff61040e602435610c6e8161030e565b6004356000526005845260406000209060018060a01b0316600052602052604060002090565b3461029f57602036600319011261029f576020600435610cb38161030e565b60018060a01b038091166000526011825260406000205416604051908152f35b3461029f57600036600319011261029f57602060405160008152f35b3461029f57602036600319011261029f576020600435610d0e8161030e565b60018060a01b038091166000526012825260406000205416604051908152f35b3461029f57602036600319011261029f576004356000526001602052602060018060a01b0360406000205416604051908152f35b3461029f57604036600319011261029f57600435610d7f8161030e565b600c546001600160a01b03919082163303610e7b578190816009541660009384938493168352601060205260408320541682604051610dfa81610dec602082019563a9059cbb60e01b8752602435906024840160209093929193604081019460018060a01b031681520152565b03601f19810183528261155b565b51925af1610e06611b0a565b81610e4c575b5015610e155780f35b60405162461bcd60e51b815260206004820152600f60248201526e1514905394d1915497d19052531151608a1b6044820152606490fd5b8051801592508215610e61575b505038610e0c565b610e749250602080918301019101611ec8565b3880610e59565b60405162461bcd60e51b815260206004820152601b60248201527f73656e646572206973206e6f74206120536569674d616e6167657200000000006044820152606490fd5b3461029f57600036600319011261029f576008546040516001600160a01b039091168152602090f35b3461029f57600036600319011261029f5760206040517ff0887ba65ee2024ea881d91b74c2450ef19e1557f03bed3ea9f16b037cbe2dc98152f35b3461029f57604036600319011261029f57610395602435600435610f478261030e565b806000526005602052610f616001604060002001546113d8565b611658565b3461029f5761010036600319011261029f577f617f1cba5d7b9d5d3c81f0d5c78720ec2be227878bac84c0851b70e4cf61cb08600435610fa58161030e565b60243590610fb28261030e565b6111a6604435610fc18161030e565b606435610fcd8161030e565b608435610fd98161030e565b60a43590610fe68261030e565b60c43592610ff38461030e565b60e435946110008661030e565b33600090815260008051602061264d833981519152602052604090206110289060ff906107fb565b600654611080906001600160a01b03166001600160a01b039081168a8216148015919061124d575b8115611232575b8115611217575b81156111fc575b81156111e1575b81156111c6575b81156111ab575b506118ec565b600680546001600160a01b0319166001600160a01b038a16179055600780546001600160a01b0319166001600160a01b038b16179055600880546001600160a01b0319166001600160a01b038316179055600980546001600160a01b0319166001600160a01b038416179055600a80546001600160a01b0319166001600160a01b038516179055600b80546001600160a01b0319166001600160a01b038616179055600c80546001600160a01b0319166001600160a01b038716179055600d80546001600160a01b0319166001600160a01b038816179055604080516001600160a01b03998a16815299891660208b0152908816908901528616606088015285166080870152841660a0860152831660c085015290911660e08301528190610100820190565b0390a1005b600d5489821691166001600160a01b0316141590503861107a565b600c548882169082166001600160a01b031614159150611073565b600b548782169082166001600160a01b03161415915061106c565b600a548682169082166001600160a01b031614159150611065565b6009548582169082166001600160a01b03161415915061105e565b6008548482169082166001600160a01b031614159150611057565b6007548c82169082166001600160a01b031614159150611050565b3461029f57600036600319011261029f576020600e54604051908152f35b3461029f57602036600319011261029f5760206004356112a58161030e565b60018060a01b038091166000526010825260406000205416604051908152f35b3461029f57602036600319011261029f576004356112e28161030e565b610b0461038b335b6001600160a01b0316600090815260008051602061264d833981519152602052604090205460ff1690565b600080805260056020527f05b8ccbb9d4d8fb16ea74ce3c29a41f1b461fbdaff4714a0d9a8eb05499746bd5461134a906113d8565b8080526005602090815260408083206001600160a01b0385166000908152925290205460ff1615611379575050565b8080526005602090815260408083206001600160a01b038516600090815292529020805460ff1916600117905533916001600160a01b0316907f2f8788117e7eff1d82e926ec794901d17c78024a50270940304540a733656f0d8180a4565b600081815260056020908152604080832033845290915290205460ff16156113fd5750565b339061140761173b565b9160306114138461177e565b53607861141f8461178b565b5360295b600181116114c4576114c061148b6114a886610dec61144b8861144689156117b9565b611804565b611485604051958694611485602087016017907f416363657373436f6e74726f6c3a206163636f756e742000000000000000000081520190565b9061152e565b7001034b99036b4b9b9b4b733903937b6329607d1b815260110190565b60405162461bcd60e51b8152918291600483016115a7565b0390fd5b90600f811690601082101561150657611501916f181899199a1a9b1b9c1cb0b131b232b360811b901a6114f7848761179b565b5360041c916117ac565b611423565b611768565b60005b83811061151e5750506000910152565b818101518382015260200161150e565b906115416020928281519485920161150b565b0190565b634e487b7160e01b600052604160045260246000fd5b90601f8019910116810190811067ffffffffffffffff82111761157d57604052565b611545565b9060209161159b8151809281855285808601910161150b565b601f01601f1916010190565b9060206115b8928181520190611582565b90565b6001600160a01b03811633810361060d576001600160a01b038216600090815260008051602061264d833981519152602052604081205490929060ff1661160157505050565b611628908380526005602052604084209060018060a01b0316600052602052604060002090565b805460ff1916905533917ff6391f5c32d9c69d2a47ea670b442974b53935d1edc7fd64eb21e047a839171b8180a4565b600090808252600560205260ff61168484604085209060018060a01b0316600052602052604060002090565b541661168f57505050565b8082526005602090815260408084206001600160a01b038616600090815292529020805460ff1916905533926001600160a01b0316917ff6391f5c32d9c69d2a47ea670b442974b53935d1edc7fd64eb21e047a839171b9080a4565b634e487b7160e01b600052601160045260246000fd5b90633b9aca009182810292818404149015171561171a57565b6116eb565b67ffffffffffffffff811161157d57601f01601f191660200190565b604051906060820182811067ffffffffffffffff82111761157d57604052602a8252604082602036910137565b634e487b7160e01b600052603260045260246000fd5b8051156115065760200190565b8051600110156115065760210190565b908151811015611506570160200190565b801561171a576000190190565b156117c057565b606460405162461bcd60e51b815260206004820152602060248201527f537472696e67733a20686578206c656e67746820696e73756666696369656e746044820152fd5b604051906080820182811067ffffffffffffffff82111761157d5760405260428252606036602084013760306118398361177e565b5360786118458361178b565b536041905b6001821161185d576115b89150156117b9565b600f81169060108210156115065761188f916f181899199a1a9b1b9c1cb0b131b232b360811b901a6114f7848661179b565b9061184a565b1561189c57565b60405162461bcd60e51b815260206004820152602260248201527f41636365737369626c653a2043616c6c6572206973206e6f7420616e2061646d60448201526134b760f11b6064820152608490fd5b156118f357565b60405162461bcd60e51b8152602060048201526008602482015267616c6c2073616d6560c01b6044820152606490fd5b1561192a57565b60405162461bcd60e51b815260206004820152601a60248201527f73656e646572206973206e6f7420746f6e206e6f722077746f6e0000000000006044820152606490fd5b1561197657565b60405162461bcd60e51b815260206004820152601760248201527f77726f6e67207370656e64657220706172616d657465720000000000000000006044820152606490fd5b9291926119c78261171f565b916119d5604051938461155b565b82948184528183011161029f578281602093846000960137010152565b156119f957565b60405162461bcd60e51b81526020600482015260116024820152700eee4dedcce40c8c2e8c240d8cadccee8d607b1b6044820152606490fd5b15611a3957565b60405162461bcd60e51b81526020600482015260126024820152713ab72b30b634b230ba32b2102630bcb2b91960711b6044820152606490fd5b909291928360141161029f57831161029f57601401916013190190565b15611a9757565b60405162461bcd60e51b81526020600482015260026024820152612d1960f11b6044820152606490fd5b9081602091031261029f575160ff8116810361029f5790565b6040513d6000823e3d90fd5b9081602091031261029f57516115b88161030e565b9081602091031261029f575190565b3d15611b35573d90611b1b8261171f565b91611b29604051938461155b565b82523d6000602084013e565b606090565b60009160008092611b586106f56106f560065460018060a01b031690565b604080516378da9c5960e11b81526001600160a01b0384166004808301919091526020949093909291908590829060249082905afa8015611cb65760ff918791611dea575b501660018103611d095750805163078f29cf60e01b81526001600160a01b039283169085818681855afa879181611cea575b50611be75750505050505050611be3611b0a565b505b565b83169283611bf9575b50505050505050565b85859284519687809263bce5c11f60e01b82525afa948515611cb6578795611cbb575b508416611c2a575b80611bf0565b60085491516347b00fb360e11b81526001600160a01b0392831691810191825293909116602082015294965092945092909182918491908290819060400103915afa928315611cb65792611c89575b5050600191388080808080611c24565b611ca89250803d10611caf575b611ca0818361155b565b810190611afb565b3880611c79565b503d611c96565b611ada565b611cdc919550863d8811611ce3575b611cd4818361155b565b810190611ae6565b9338611c1c565b503d611cca565b611d02919250873d8911611ce357611cd4818361155b565b9038611bcf565b929392909190600214611d1e575b5050505050565b8151630a49cb0360e01b81526001600160a01b0391849082908790829086165afa869181611dcb575b50611d6657505050505050611d5a611b0a565b505b3880808080611d17565b169081611d78575b5050505050611d5c565b516307404d9360e21b8152949650929450918291849182905afa928315611cb65792611dae575b50506001913880808080611d6e565b611dc49250803d10611caf57611ca0818361155b565b3880611d9f565b611de3919250853d8711611ce357611cd4818361155b565b9038611d47565b611e0a9150863d8811611e10575b611e02818361155b565b810190611ac1565b38611b9d565b503d611df8565b6001600160a01b0381811660009081526010602052604090205416611e4357611e3f90611b3a565b5090565b60405162461bcd60e51b8152602060048201526012602482015271185b1c9958591e481c9959da5cdd195c995960721b6044820152606490fd5b15611e8457565b606460405162461bcd60e51b815260206004820152602060248201527f756e73617469736669656420696e697469616c4465706f736974416d6f756e746044820152fd5b9081602091031261029f57516115b88161041a565b6115b8939260609260018060a01b0316825260208201528160408201520190611582565b15611f0857565b60405162461bcd60e51b815260206004820152601860248201527f6661696c20746f207377617020746f6e20746f2077746f6e00000000000000006044820152606490fd5b92611be594611f8384611f8a9496611f6f600e54633b9aca0084041015611e7d565b6009543091906001600160a01b0316612575565b36916119bb565b91612104565b92611fc8836120489395969496611fab600e54831015611e7d565b600854611fc0906001600160a01b03166106f5565b903091612575565b60085460209061201d90611fe6906106f5906001600160a01b031681565b600954600d54604080516001600160a01b03928316878201818152602081019190915290958c94600094169261202b928892910190565b03601f19810187528661155b565b60405163cae9ca5160e01b81529788958694859360048501611edd565b03925af18015611cb657611be59561206f61207492611f8a9560009161207c575b50611f01565b611701565b9236916119bb565b61209d915060203d81116120a3575b612095818361155b565b810190611ec8565b38612069565b503d61208b565b90939194926000146120cd5790611fc88561204893611fab600e54831015611e7d565b908492611f83611be596611f8a946120ef600e54633b9aca0084041015611e7d565b600954611fc0906001600160a01b03166106f5565b6001600160a01b036121198282161515611a90565b600754612130906106f5906001600160a01b031681565b60405163f6ae6f1360e01b81526001600160a01b038416600482015260009560209390928490839060249082908b905af1918215611cb65787926123a9575b50811615158061236e575b612183906123c8565b6001600160a01b03841660009081526010602052604090206121c19082905b80546001600160a01b0319166001600160a01b03909216919091179055565b6001600160a01b03811660009081526011602052604090206121e49085906121a2565b600a546121fb906106f5906001600160a01b031681565b918360405180946304d0bde760e11b8252818a8161221d888860048401612405565b03925af1928315611cb657879361234f575b506001600160a01b03821660009081526012602052604090206122539084906121a2565b600b5461226a9087906001600160a01b03166124a1565b600b54612281906106f5906001600160a01b031681565b604051638340f54960e01b81526001600160a01b0385811660048301528416602482015260448101889052979085908990606490829085905af18015611cb6577f1526ff0a0299f7312457e24a4af3d354afc4d51a22017cc0bb86b8c9fed662409861232d966122f89392612332575b505061242d565b6001600160a01b0385166000908152600f6020526040902061232190805460ff19166001179055565b60405195869586612466565b0390a1565b6123489250803d106120a357612095818361155b565b38806122f1565b612367919350843d8611611ce357611cd4818361155b565b913861222f565b506121836123a16106f56123948460018060a01b03166000526011602052604060002090565b546001600160a01b031690565b15905061217a565b6123c1919250843d8611611ce357611cd4818361155b565b903861216f565b156123cf57565b60405162461bcd60e51b815260206004820152600e60248201526d3bb937b7339037b832b930ba37b960911b6044820152606490fd5b9061241d602091949394604084526040840190611582565b6001600160a01b03909416910152565b1561243457565b60405162461bcd60e51b815260206004820152600a6024820152694661696c205374616b6560b01b6044820152606490fd5b9395949061249460809460018060a01b0394858094168852602088015260a0604088015260a0870190611582565b9616606085015216910152565b6009546124b8906106f5906001600160a01b031681565b604051636eb1769f60e11b81523060048201526001600160a01b0383166024820152602093908481604481865afa908115611cb657600091612558575b501061250057505050565b60405163095ea7b360e01b81526001600160a01b0392909216600483015260001960248301528290829060449082906000905af18015611cb657612542575050565b81611be392903d106120a357612095818361155b565b61256f9150853d8711611caf57611ca0818361155b565b386124f5565b6040516323b872dd60e01b602082019081526001600160a01b03938416602483015293909216604483015260648201939093526000928392909183906125be8160848101610dec565b51926001600160a01b03165af16125d3611b0a565b8161261d575b50156125e157565b60405162461bcd60e51b81526020600482015260146024820152731514905394d1915497d19493d357d1905253115160621b6044820152606490fd5b8051801592508215612632575b5050386125d9565b6126459250602080918301019101611ec8565b388061262a56fe05b8ccbb9d4d8fb16ea74ce3c29a41f1b461fbdaff4714a0d9a8eb05499746bca164736f6c6343000813000a",
  "linkReferences": {},
  "deployedLinkReferences": {}
}