{
  "_format": "hh-sol-artifact-1",
  "contractName": "Layer2ManagerV1_1",
  "sourceName": "contracts/layer2/Layer2ManagerV1_1.sol",
  "abi": [
    {
      "inputs": [],
      "stateMutability": "nonpayable",
      "type": "constructor"
    },
    {
      "inputs": [],
      "name": "ExcludeError",
      "type": "error"
    },
    {
      "inputs": [
        {
          "internalType": "uint256",
          "name": "x",
          "type": "uint256"
        }
      ],
      "name": "OnApproveError",
      "type": "error"
    },
    {
      "inputs": [
        {
          "internalType": "uint256",
          "name": "x",
          "type": "uint256"
        }
      ],
      "name": "RegisterError",
      "type": "error"
    },
    {
      "inputs": [],
      "name": "StatusError",
      "type": "error"
    },
    {
      "inputs": [],
      "name": "ZeroAddressError",
      "type": "error"
    },
    {
      "inputs": [],
      "name": "ZeroBytesError",
      "type": "error"
    },
    {
      "anonymous": false,
      "inputs": [
        {
          "indexed": false,
          "internalType": "address",
          "name": "rollupConfig",
          "type": "address"
        },
        {
          "indexed": false,
          "internalType": "address",
          "name": "candidateAddOn",
          "type": "address"
        }
      ],
      "name": "PausedCandidateAddOn",
      "type": "event"
    },
    {
      "anonymous": false,
      "inputs": [
        {
          "indexed": false,
          "internalType": "address",
          "name": "rollupConfig",
          "type": "address"
        },
        {
          "indexed": false,
          "internalType": "uint256",
          "name": "wtonAmount",
          "type": "uint256"
        },
        {
          "indexed": false,
          "internalType": "string",
          "name": "memo",
          "type": "string"
        },
        {
          "indexed": false,
          "internalType": "address",
          "name": "operator",
          "type": "address"
        },
        {
          "indexed": false,
          "internalType": "address",
          "name": "candidateAddOn",
          "type": "address"
        }
      ],
      "name": "RegisteredCandidateAddOn",
      "type": "event"
    },
    {
      "anonymous": false,
      "inputs": [
        {
          "indexed": true,
          "internalType": "bytes32",
          "name": "role",
          "type": "bytes32"
        },
        {
          "indexed": true,
          "internalType": "bytes32",
          "name": "previousAdminRole",
          "type": "bytes32"
        },
        {
          "indexed": true,
          "internalType": "bytes32",
          "name": "newAdminRole",
          "type": "bytes32"
        }
      ],
      "name": "RoleAdminChanged",
      "type": "event"
    },
    {
      "anonymous": false,
      "inputs": [
        {
          "indexed": true,
          "internalType": "bytes32",
          "name": "role",
          "type": "bytes32"
        },
        {
          "indexed": true,
          "internalType": "address",
          "name": "account",
          "type": "address"
        },
        {
          "indexed": true,
          "internalType": "address",
          "name": "sender",
          "type": "address"
        }
      ],
      "name": "RoleGranted",
      "type": "event"
    },
    {
      "anonymous": false,
      "inputs": [
        {
          "indexed": true,
          "internalType": "bytes32",
          "name": "role",
          "type": "bytes32"
        },
        {
          "indexed": true,
          "internalType": "address",
          "name": "account",
          "type": "address"
        },
        {
          "indexed": true,
          "internalType": "address",
          "name": "sender",
          "type": "address"
        }
      ],
      "name": "RoleRevoked",
      "type": "event"
    },
    {
      "anonymous": false,
      "inputs": [
        {
          "indexed": false,
          "internalType": "address",
          "name": "_l2Register",
          "type": "address"
        },
        {
          "indexed": false,
          "internalType": "address",
          "name": "_operatorManagerFactory",
          "type": "address"
        },
        {
          "indexed": false,
          "internalType": "address",
          "name": "_ton",
          "type": "address"
        },
        {
          "indexed": false,
          "internalType": "address",
          "name": "_wton",
          "type": "address"
        },
        {
          "indexed": false,
          "internalType": "address",
          "name": "_dao",
          "type": "address"
        },
        {
          "indexed": false,
          "internalType": "address",
          "name": "_depositManager",
          "type": "address"
        },
        {
          "indexed": false,
          "internalType": "address",
          "name": "_seigManager",
          "type": "address"
        },
        {
          "indexed": false,
          "internalType": "address",
          "name": "_swapProxy",
          "type": "address"
        }
      ],
      "name": "SetAddresses",
      "type": "event"
    },
    {
      "anonymous": false,
      "inputs": [
        {
          "indexed": false,
          "internalType": "uint256",
          "name": "_minimumInitialDepositAmount",
          "type": "uint256"
        }
      ],
      "name": "SetMinimumInitialDepositAmount",
      "type": "event"
    },
    {
      "anonymous": false,
      "inputs": [
        {
          "indexed": false,
          "internalType": "address",
          "name": "rollupConfig",
          "type": "address"
        },
        {
          "indexed": false,
          "internalType": "address",
          "name": "candidateAddOn",
          "type": "address"
        }
      ],
      "name": "UnpausedCandidateAddOn",
      "type": "event"
    },
    {
      "inputs": [],
      "name": "DEFAULT_ADMIN_ROLE",
      "outputs": [
        {
          "internalType": "bytes32",
          "name": "",
          "type": "bytes32"
        }
      ],
      "stateMutability": "view",
      "type": "function"
    },
    {
      "inputs": [],
      "name": "MINTER_ROLE",
      "outputs": [
        {
          "internalType": "bytes32",
          "name": "",
          "type": "bytes32"
        }
      ],
      "stateMutability": "view",
      "type": "function"
    },
    {
      "inputs": [
        {
          "internalType": "address",
          "name": "account",
          "type": "address"
        }
      ],
      "name": "addAdmin",
      "outputs": [],
      "stateMutability": "nonpayable",
      "type": "function"
    },
    {
      "inputs": [
        {
          "internalType": "address",
          "name": "",
          "type": "address"
        }
      ],
      "name": "aliveImplementation",
      "outputs": [
        {
          "internalType": "bool",
          "name": "",
          "type": "bool"
        }
      ],
      "stateMutability": "view",
      "type": "function"
    },
    {
      "inputs": [
        {
          "internalType": "address",
          "name": "_oper",
          "type": "address"
        }
      ],
      "name": "candidateAddOnOfOperator",
      "outputs": [
        {
          "internalType": "address",
          "name": "",
          "type": "address"
        }
      ],
      "stateMutability": "view",
      "type": "function"
    },
    {
      "inputs": [
        {
          "internalType": "address",
          "name": "_rollupConfig",
          "type": "address"
        }
      ],
      "name": "checkL1Bridge",
      "outputs": [
        {
          "internalType": "bool",
          "name": "result",
          "type": "bool"
        },
        {
          "internalType": "address",
          "name": "l1Bridge",
          "type": "address"
        },
        {
          "internalType": "address",
          "name": "portal",
          "type": "address"
        },
        {
          "internalType": "address",
          "name": "l2Ton",
          "type": "address"
        }
      ],
      "stateMutability": "view",
      "type": "function"
    },
    {
      "inputs": [
        {
          "internalType": "address",
          "name": "_rollupConfig",
          "type": "address"
        }
      ],
      "name": "checkLayer2TVL",
      "outputs": [
        {
          "internalType": "bool",
          "name": "result",
          "type": "bool"
        },
        {
          "internalType": "uint256",
          "name": "amount",
          "type": "uint256"
        }
      ],
      "stateMutability": "view",
      "type": "function"
    },
    {
      "inputs": [],
      "name": "dao",
      "outputs": [
        {
          "internalType": "address",
          "name": "",
          "type": "address"
        }
      ],
      "stateMutability": "view",
      "type": "function"
    },
    {
      "inputs": [],
      "name": "depositManager",
      "outputs": [
        {
          "internalType": "address",
          "name": "",
          "type": "address"
        }
      ],
      "stateMutability": "view",
      "type": "function"
    },
    {
      "inputs": [
        {
          "internalType": "bytes32",
          "name": "role",
          "type": "bytes32"
        }
      ],
      "name": "getRoleAdmin",
      "outputs": [
        {
          "internalType": "bytes32",
          "name": "",
          "type": "bytes32"
        }
      ],
      "stateMutability": "view",
      "type": "function"
    },
    {
      "inputs": [
        {
          "internalType": "bytes32",
          "name": "role",
          "type": "bytes32"
        },
        {
          "internalType": "address",
          "name": "account",
          "type": "address"
        }
      ],
      "name": "grantRole",
      "outputs": [],
      "stateMutability": "nonpayable",
      "type": "function"
    },
    {
      "inputs": [
        {
          "internalType": "bytes32",
          "name": "role",
          "type": "bytes32"
        },
        {
          "internalType": "address",
          "name": "account",
          "type": "address"
        }
      ],
      "name": "hasRole",
      "outputs": [
        {
          "internalType": "bool",
          "name": "",
          "type": "bool"
        }
      ],
      "stateMutability": "view",
      "type": "function"
    },
    {
      "inputs": [
        {
          "internalType": "address",
          "name": "account",
          "type": "address"
        }
      ],
      "name": "isAdmin",
      "outputs": [
        {
          "internalType": "bool",
          "name": "",
          "type": "bool"
        }
      ],
      "stateMutability": "view",
      "type": "function"
    },
    {
      "inputs": [],
      "name": "isOwner",
      "outputs": [
        {
          "internalType": "bool",
          "name": "",
          "type": "bool"
        }
      ],
      "stateMutability": "view",
      "type": "function"
    },
    {
      "inputs": [],
      "name": "l1BridgeRegistry",
      "outputs": [
        {
          "internalType": "address",
          "name": "",
          "type": "address"
        }
      ],
      "stateMutability": "view",
      "type": "function"
    },
    {
      "inputs": [],
      "name": "minimumInitialDepositAmount",
      "outputs": [
        {
          "internalType": "uint256",
          "name": "",
          "type": "uint256"
        }
      ],
      "stateMutability": "view",
      "type": "function"
    },
    {
      "inputs": [
        {
          "internalType": "address",
          "name": "owner",
          "type": "address"
        },
        {
          "internalType": "address",
          "name": "spender",
          "type": "address"
        },
        {
          "internalType": "uint256",
          "name": "amount",
          "type": "uint256"
        },
        {
          "internalType": "bytes",
          "name": "data",
          "type": "bytes"
        }
      ],
      "name": "onApprove",
      "outputs": [
        {
          "internalType": "bool",
          "name": "",
          "type": "bool"
        }
      ],
      "stateMutability": "nonpayable",
      "type": "function"
    },
    {
      "inputs": [
        {
          "internalType": "address",
          "name": "",
          "type": "address"
        }
      ],
      "name": "operatorInfo",
      "outputs": [
        {
          "internalType": "address",
          "name": "rollupConfig",
          "type": "address"
        },
        {
          "internalType": "address",
          "name": "candidateAddOn",
          "type": "address"
        }
      ],
      "stateMutability": "view",
      "type": "function"
    },
    {
      "inputs": [],
      "name": "operatorManagerFactory",
      "outputs": [
        {
          "internalType": "address",
          "name": "",
          "type": "address"
        }
      ],
      "stateMutability": "view",
      "type": "function"
    },
    {
      "inputs": [
        {
          "internalType": "address",
          "name": "_rollupConfig",
          "type": "address"
        }
      ],
      "name": "operatorOfRollupConfig",
      "outputs": [
        {
          "internalType": "address",
          "name": "",
          "type": "address"
        }
      ],
      "stateMutability": "view",
      "type": "function"
    },
    {
      "inputs": [
        {
          "internalType": "address",
          "name": "rollupConfig",
          "type": "address"
        }
      ],
      "name": "pauseCandidateAddOn",
      "outputs": [],
      "stateMutability": "nonpayable",
      "type": "function"
    },
    {
      "inputs": [],
      "name": "pauseProxy",
      "outputs": [
        {
          "internalType": "bool",
          "name": "",
          "type": "bool"
        }
      ],
      "stateMutability": "view",
      "type": "function"
    },
    {
      "inputs": [
        {
          "internalType": "uint256",
          "name": "",
          "type": "uint256"
        }
      ],
      "name": "proxyImplementation",
      "outputs": [
        {
          "internalType": "address",
          "name": "",
          "type": "address"
        }
      ],
      "stateMutability": "view",
      "type": "function"
    },
    {
      "inputs": [
        {
          "internalType": "address",
          "name": "rollupConfig",
          "type": "address"
        },
        {
          "internalType": "uint256",
          "name": "amount",
          "type": "uint256"
        },
        {
          "internalType": "bool",
          "name": "flagTon",
          "type": "bool"
        },
        {
          "internalType": "string",
          "name": "memo",
          "type": "string"
        }
      ],
      "name": "registerCandidateAddOn",
      "outputs": [],
      "stateMutability": "nonpayable",
      "type": "function"
    },
    {
      "inputs": [
        {
          "internalType": "address",
          "name": "account",
          "type": "address"
        }
      ],
      "name": "removeAdmin",
      "outputs": [],
      "stateMutability": "nonpayable",
      "type": "function"
    },
    {
      "inputs": [],
      "name": "renounceOwnership",
      "outputs": [],
      "stateMutability": "nonpayable",
      "type": "function"
    },
    {
      "inputs": [
        {
          "internalType": "bytes32",
          "name": "role",
          "type": "bytes32"
        },
        {
          "internalType": "address",
          "name": "account",
          "type": "address"
        }
      ],
      "name": "renounceRole",
      "outputs": [],
      "stateMutability": "nonpayable",
      "type": "function"
    },
    {
      "inputs": [
        {
          "internalType": "bytes32",
          "name": "role",
          "type": "bytes32"
        },
        {
          "internalType": "address",
          "name": "account",
          "type": "address"
        }
      ],
      "name": "revokeRole",
      "outputs": [],
      "stateMutability": "nonpayable",
      "type": "function"
    },
    {
      "inputs": [
        {
          "internalType": "address",
          "name": "",
          "type": "address"
        }
      ],
      "name": "rollupConfigInfo",
      "outputs": [
        {
          "internalType": "uint8",
          "name": "status",
          "type": "uint8"
        },
        {
          "internalType": "address",
          "name": "operatorManager",
          "type": "address"
        }
      ],
      "stateMutability": "view",
      "type": "function"
    },
    {
      "inputs": [
        {
          "internalType": "address",
          "name": "_oper",
          "type": "address"
        }
      ],
      "name": "rollupConfigOfOperator",
      "outputs": [
        {
          "internalType": "address",
          "name": "",
          "type": "address"
        }
      ],
      "stateMutability": "view",
      "type": "function"
    },
    {
      "inputs": [],
      "name": "seigManager",
      "outputs": [
        {
          "internalType": "address",
          "name": "",
          "type": "address"
        }
      ],
      "stateMutability": "view",
      "type": "function"
    },
    {
      "inputs": [
        {
          "internalType": "bytes4",
          "name": "",
          "type": "bytes4"
        }
      ],
      "name": "selectorImplementation",
      "outputs": [
        {
          "internalType": "address",
          "name": "",
          "type": "address"
        }
      ],
      "stateMutability": "view",
      "type": "function"
    },
    {
      "inputs": [
        {
          "internalType": "address",
          "name": "_l1BridgeRegistry",
          "type": "address"
        },
        {
          "internalType": "address",
          "name": "_operatorManagerFactory",
          "type": "address"
        },
        {
          "internalType": "address",
          "name": "_ton",
          "type": "address"
        },
        {
          "internalType": "address",
          "name": "_wton",
          "type": "address"
        },
        {
          "internalType": "address",
          "name": "_dao",
          "type": "address"
        },
        {
          "internalType": "address",
          "name": "_depositManager",
          "type": "address"
        },
        {
          "internalType": "address",
          "name": "_seigManager",
          "type": "address"
        },
        {
          "internalType": "address",
          "name": "_swapProxy",
          "type": "address"
        }
      ],
      "name": "setAddresses",
      "outputs": [],
      "stateMutability": "nonpayable",
      "type": "function"
    },
    {
      "inputs": [
        {
          "internalType": "uint256",
          "name": "_minimumInitialDepositAmount",
          "type": "uint256"
        }
      ],
      "name": "setMinimumInitialDepositAmount",
      "outputs": [],
      "stateMutability": "nonpayable",
      "type": "function"
    },
    {
      "inputs": [
        {
          "internalType": "address",
          "name": "_rollupConfig",
          "type": "address"
        }
      ],
      "name": "statusLayer2",
      "outputs": [
        {
          "internalType": "uint8",
          "name": "",
          "type": "uint8"
        }
      ],
      "stateMutability": "view",
      "type": "function"
    },
    {
      "inputs": [
        {
          "internalType": "bytes4",
          "name": "interfaceId",
          "type": "bytes4"
        }
      ],
      "name": "supportsInterface",
      "outputs": [
        {
          "internalType": "bool",
          "name": "",
          "type": "bool"
        }
      ],
      "stateMutability": "view",
      "type": "function"
    },
    {
      "inputs": [],
      "name": "swapProxy",
      "outputs": [
        {
          "internalType": "address",
          "name": "",
          "type": "address"
        }
      ],
      "stateMutability": "view",
      "type": "function"
    },
    {
      "inputs": [],
      "name": "ton",
      "outputs": [
        {
          "internalType": "address",
          "name": "",
          "type": "address"
        }
      ],
      "stateMutability": "view",
      "type": "function"
    },
    {
      "inputs": [
        {
          "internalType": "address",
          "name": "newAdmin",
          "type": "address"
        }
      ],
      "name": "transferAdmin",
      "outputs": [],
      "stateMutability": "nonpayable",
      "type": "function"
    },
    {
      "inputs": [
        {
          "internalType": "address",
          "name": "newAdmin",
          "type": "address"
        }
      ],
      "name": "transferOwnership",
      "outputs": [],
      "stateMutability": "nonpayable",
      "type": "function"
    },
    {
      "inputs": [
        {
          "internalType": "address",
          "name": "rollupConfig",
          "type": "address"
        }
      ],
      "name": "unpauseCandidateAddOn",
      "outputs": [],
      "stateMutability": "nonpayable",
      "type": "function"
    },
    {
      "inputs": [
        {
          "internalType": "address",
          "name": "rollupConfig",
          "type": "address"
        },
        {
          "internalType": "uint256",
          "name": "amount",
          "type": "uint256"
        }
      ],
      "name": "updateSeigniorage",
      "outputs": [],
      "stateMutability": "nonpayable",
      "type": "function"
    },
    {
      "inputs": [],
      "name": "wton",
      "outputs": [
        {
          "internalType": "address",
          "name": "",
          "type": "address"
        }
      ],
      "stateMutability": "view",
      "type": "function"
    }
  ],
  "bytecode": "0x6080806040523461001657612909908161001c8239f35b600080fdfe608060408181526004918236101561001657600080fd5b600092833560e01c91826301ffc9a7146119bb575081631785f53c1461198d578163248a9ca31461196257816324d7806c1461191c5781632f2ff15d1461186f57816332d89cc6146116ee57816336568abe1461165c5781634162169f146116335781634273ca16146112f55781634318dc1d1461125b57816350c246d6146111f457816350d2a276146111b0578163550d01a31461117257816358bf884f14610f0b57816363a8fd8914610ee95781636c7ac9d814610ec05781636ec4be9014610e975781636fb7f55814610e6e5781637048027514610db9578163715018a614610d9357816372898c2314610d4d57816375829def14610d3057816379a0e6ea14610cf45781637bae05f114610cb557816389c0db6214610c805781638d62d94914610c575781638f32d59b14610c2457816391d1485414610bdd578163a217fddf14610bc2578163a37d6aa714610b87578163aba8e57714610b5e578163b911135f14610b2b578163c04a0a421461083e578163c5f16b8914610705578163cc48b947146106dc578163cf8f9110146106b3578163d523c077146105a8578163d53913931461056d578163d547741f1461053157838263d733cfd0146103be57508163e9d6ec4f1461039f578163f2fde38b14610240575063ff600b691461020057600080fd5b3461023c57602036600319011261023c576020916001600160a01b0390829082610228611a3f565b168152600f8552205460081c169051908152f35b5080fd5b9190503461039b576020806003193601126103975761025d611a3f565b61026e61026933611a9e565b612013565b61027a61026933611a9e565b6001600160a01b03169283156103565783331461031c5750838052600581526102a860018386200154611adb565b83805260058152818420838552815260ff8285205416156102d1575b836102ce33611e87565b80f35b8380526005815281842083855290528220805460ff191660011790553390827f2f8788117e7eff1d82e926ec794901d17c78024a50270940304540a733656f0d8180a43880806102c4565b915162461bcd60e51b815291820152601660248201527520b1b1b2b9b9b4b136329d1039b0b6b29030b236b4b760511b6044820152606490fd5b915162461bcd60e51b815291820152601860248201527f41636365737369626c653a207a65726f206164647265737300000000000000006044820152606490fd5b8380fd5b8280fd5b50503461023c578160031936011261023c57602090600e549051908152f35b80843461052e57610100908160031936011261052a576103dc611a3f565b6103e4611a5a565b6001600160a01b03926044358481169081900361052657606435858116809103610522576084359186831680930361051e5760a4359387851680950361051a5760c435958887168097036105165760e435978989168099036105125789899161048560ff7f617f1cba5d7b9d5d3c81f0d5c78720ec2be227878bac84c0851b70e4cf61cb089f80808992526005602052818120338252602052205416612013565b16996bffffffffffffffffffffffff60a01b928b84600654161760065516918281600754161760075584816008541617600855858160095416176009558681600a541617600a558781600b541617600b558881600c541617600c55600d541617600d55815198895260208901528701526060860152608085015260a084015260c083015260e0820152a180f35b8b80fd5b8a80fd5b8980fd5b8880fd5b8780fd5b8680fd5b5050fd5b50fd5b9190503461039b578060031936011261039b576102ce91356105686001610556611a5a565b93838752600560205286200154611adb565b611f76565b50503461023c578160031936011261023c57602090517ff0887ba65ee2024ea881d91b74c2450ef19e1557f03bed3ea9f16b037cbe2dc98152f35b9190503461039b57602036600319011261039b576105c4611a3f565b6006546001600160a01b03906105dd908216331461206a565b601154936105ee60ff8616156120b5565b600160ff1980961617601155818316808752600f60205284872091600286519361061785611e17565b549385602060ff871692838152019560081c168552036106a557508652600f6020908152848720805487166001908117909155915183168752601081528487209091015493516001600160a01b03938416815293909116909116908201527faf0a20fb16d60a15e38b6cd70fa0cce0bd2a744265663dfcbc90a02b360caf8090604090a16011541660115580f35b855163c84d787560e01b8152fd5b50503461023c578160031936011261023c5760065490516001600160a01b039091168152602090f35b50503461023c578160031936011261023c5760085490516001600160a01b039091168152602090f35b9190503461039b578060031936011261039b57610720611a3f565b600c546001600160a01b0390811633036107fb578491818084936009541692168352600f6020528483205460081c16828551602081019263a9059cbb60e01b8452602482015260243560448201526044815261077b81611e49565b51925af16107876120e7565b816107cc575b5015610797578280f35b906020606492519162461bcd60e51b8352820152600f60248201526e1514905394d1915497d19052531151608a1b6044820152fd5b80518015925082156107e1575b50503861078d565b6107f4925060208091830101910161241a565b38806107d9565b825162461bcd60e51b8152602081860152601b60248201527f73656e646572206973206e6f74206120536569674d616e6167657200000000006044820152606490fd5b83833461023c57608036600319011261023c57610859611a3f565b602493604435918535918315158403610b275760643567ffffffffffffffff81116105265761088b9036908301611a70565b9590946108978461215f565b8615610b19576001600160a01b038481168952600f6020908152838a20549092919060081c8116610b03576108cb86612181565b5015610aed5760095481169115610aaa5760085416600e548710610a94576108f587303384612823565b8351636eb1769f60e11b8152308682019081526001600160a01b03841660208201528490829081906040010381855afa908115610a8a57918885928d948591610a55575b50106109f2575b5090918b85518094819363e34869d760e01b83528b8a8401525af19182156109e85789926109bb575b5050156109a55750633b9aca009283810293818504149015171561099357506102ce949550612453565b634e487b7160e01b8652601190528585fd5b9060078892519163472ed10360e01b8352820152fd5b6109da9250803d106109e1575b6109d28183611e65565b81019061241a565b8980610969565b503d6109c8565b83513d8b823e3d90fd5b855163095ea7b360e01b8152878101859052600019818f015292839160449183915af18015610a4b579183918b93610a2e575b92919092610940565b610a4490833d85116109e1576109d28183611e65565b508c610a25565b84513d8c823e3d90fd5b93929450505081813d8311610a83575b610a6f8183611e65565b81010312610516578a91888592518f610939565b503d610a65565b85513d8d823e3d90fd5b835163472ed10360e01b81526006818701528b90fd5b509892919050600e54633b9aca00860410610ad957505050610ad4826102ce969730903390612823565b612453565b600690519163472ed10360e01b8352820152fd5b835163472ed10360e01b81526005818701528b90fd5b835163472ed10360e01b81528086018690528b90fd5b505163111dc0fd60e31b8152fd5b8580fd5b90503461039b57602036600319011261039b5735825260016020908152918190205490516001600160a01b039091168152f35b50503461023c578160031936011261023c5760075490516001600160a01b039091168152602090f35b50503461023c57602036600319011261023c576020916001600160a01b0390829082610bb1611a3f565b168152601085522054169051908152f35b50503461023c578160031936011261023c5751908152602090f35b90503461039b578160031936011261039b578160209360ff92610bfe611a5a565b90358252600586528282206001600160a01b039091168252855220549151911615158152f35b50503461023c578160031936011261023c5760ff8183806020955260058552818120338252855220541690519015158152f35b50503461023c578160031936011261023c5760095490516001600160a01b039091168152602090f35b828434610cb2576020366003190112610cb25750610ca4610c9f611a3f565b612181565b825191151582526020820152f35b80fd5b50503461023c57602036600319011261023c576020916001600160a01b0390600190839083610ce2611a3f565b16815260108652200154169051908152f35b50503461023c57602036600319011261023c5760209160ff9082906001600160a01b03610d1f611a3f565b168152600f85522054169051908152f35b9190503461039b576020806003193601126103975761026e611a3f565b828434610cb2576020366003190112610cb2576001600160a01b0390829082610d74611a3f565b168152600f60205220549082519160ff8116835260081c166020820152f35b8334610cb25780600319360112610cb257610db061026933611a9e565b6102ce33611e87565b50503461023c576020908160031936011261039b57610dd6611a3f565b91610de361026933611a9e565b83805260058152610df960018386200154611adb565b838052600581528184206001600160a01b039093168085529281528184205460ff1615610e24578380f35b8380526005815281842083855290528220805460ff191660011790553390827f2f8788117e7eff1d82e926ec794901d17c78024a50270940304540a733656f0d8180a43880808380f35b50503461023c578160031936011261023c57600c5490516001600160a01b039091168152602090f35b50503461023c578160031936011261023c57600d5490516001600160a01b039091168152602090f35b50503461023c578160031936011261023c57600b5490516001600160a01b039091168152602090f35b50503461023c578160031936011261023c5760ff602092541690519015158152f35b9190503461039b5760209283600319360112610cb257610f29611a3f565b9181938283918460018060a01b0396878a816006541692602489518094819363391e3b3760e01b8352169586898301525afa9081156110eb578391611145575b50818352600f8b52600160ff888520541614610fa4575b50505050906080968580938551981515895216908701521690840152166060820152f35b865163078f29cf60e01b8152908b828681865afa91821561113b57849261111c575b50898216611080575b505073deaddeaddeaddeaddeaddeaddeaddeaddead000088881614610ff5575b80610f80565b8551630a49cb0360e01b8152999398919284918b919082905afa8015611076576080998391611049575b5080881661103a5750509085809392975b9293829950610fef565b87945084919893925092611030565b6110699150843d861161106f575b6110618183611e65565b810190612140565b3861101f565b503d611057565b85513d84823e3d90fd5b90979060ff16600181036110f5575050855163bce5c11f60e01b81528a818581855afa9081156110eb5783916110ce575b50965b8888166110c2575b80610fcf565b600199509350386110bc565b6110e591508b3d8d1161106f576110618183611e65565b386110b1565b87513d85823e3d90fd5b909790600119016110b45773deaddeaddeaddeaddeaddeaddeaddeaddead000097506110b4565b6111349192508c8d3d1061106f576110618183611e65565b9038610fc6565b88513d86823e3d90fd5b61116591508b3d8d1161116b575b61115d8183611e65565b810190612127565b38610f69565b503d611153565b50503461023c57602036600319011261023c5760209160ff9082906001600160a01b0361119d611a3f565b1681526002855220541690519015158152f35b90503461039b57602036600319011261039b573563ffffffff60e01b811680910361039b57825260036020908152918190205490516001600160a01b039091168152f35b828434610cb2576020366003190112610cb2576001600160a01b03906112579083908361121f611a3f565b168152601060205220916001818454169301541692519283928390602090939293604083019460018060a01b03809216845216910152565b0390f35b9190503461039b57602036600319011261039b57813591838052600560205281842033855260205261129260ff8386205416612013565b82600e54146112cd5750816020917f50e01964a144ee7e40d80d0792ff2641558654ef906fd81502421f22bf6ca92c93600e5551908152a180f35b606491519062461bcd60e51b825260208183015260248201526373616d6560e01b6044820152fd5b83833461023c57608036600319011261023c57611310611a3f565b611318611a5a565b9260443560643567ffffffffffffffff811161039b5761133b9036908801611a70565b600854336001600160a01b039182161497919491881580611625575b61160e5781309116036115f75760148511156115e0576014833560601c93019460131901956113858461215f565b838352602098600f8a52828985205460081c166115c9576113a585612181565b50156115b2571561156d578160095416916008541690600e54861061155657856113d191309084612823565b8751636eb1769f60e11b815230818c019081526001600160a01b03841660208201528a90829081906040010381855afa90811561154c57908691859161151b575b50106114c5575b50878460248b858b51958694859363e34869d760e01b85528401525af19081156114bb57829161149e575b501561148757633b9aca0092838102938185041490151715611474575061146d94959650612453565b5160018152f35b634e487b7160e01b815260118852602490fd5b855163472ed10360e01b81526007818a0152602490fd5b6114b59150883d8a116109e1576109d28183611e65565b89611444565b87513d84823e3d90fd5b888260448c868c51958694859363095ea7b360e01b855284015260001960248401525af1801561151157156114195761150a90893d8b116109e1576109d28183611e65565b5089611419565b88513d85823e3d90fd5b8092508b8092503d8311611545575b6115348183611e65565b81010312610397578590518c611412565b503d61152a565b89513d86823e3d90fd5b885163472ed10360e01b81526006818d0152602490fd5b91506009541697600e54633b9aca0085041061159b575082611596969798610ad4923091612823565b61146d565b602490600688519163472ed10360e01b8352820152fd5b885163472ed10360e01b81526005818d0152602490fd5b885163472ed10360e01b8152808c018c9052602490fd5b86516350f1c44960e11b81526003818b0152602490fd5b86516350f1c44960e11b81526002818b0152602490fd5b87516350f1c44960e11b81526001818c0152602490fd5b508160095416331415611357565b50503461023c578160031936011261023c57600a5490516001600160a01b039091168152602090f35b8391503461023c578260031936011261023c57611677611a5a565b90336001600160a01b0383160361169357906102ce9135611f76565b608490602085519162461bcd60e51b8352820152602f60248201527f416363657373436f6e74726f6c3a2063616e206f6e6c792072656e6f756e636560448201526e103937b632b9903337b91039b2b63360891b6064820152fd5b90503461039b57602091826003193601126103975761170b611a3f565b6006546001600160a01b03949190611726908616331461206a565b6011549461173760ff8716156120b5565b600160ff1980971617601155808216808852600f8452848820600186519161175e83611e17565b5491848760ff851692838152019360081c1683520361185f5790827f14280f6eab1c847215d9714b0aa6711ad26e21304f06a85a46ad07a1f11e8370925116895260108552826001878b200154169384916117b88361215f565b8a52600f8652868a2080548a16600217905586516001600160a01b03918216815291166020820152604090a1600c541691835190810191634a39e57f60e11b83526024820152602481526060810181811067ffffffffffffffff82111761184c57845251869283929083905af161182d6120e7565b501561183f5750506011541660115580f35b516316a6ca0960e21b8152fd5b634e487b7160e01b885260418652602488fd5b855163c84d787560e01b81528790fd5b90503461039b578160031936011261039b57359061188b611a5a565b9082845260056020526118a360018286200154611adb565b828452600560209081528185206001600160a01b039093168086529290528084205460ff16156118d1578380f35b82845260056020528084208285526020528320600160ff1982541617905533917f2f8788117e7eff1d82e926ec794901d17c78024a50270940304540a733656f0d8480a43880808380f35b50503461023c57602036600319011261023c5760ff8160209361193d611a3f565b818052600586528282206001600160a01b039091168252855220549151911615158152f35b90503461039b57602036600319011261039b5781602093600192358152600585522001549051908152f35b8334610cb2576020366003190112610cb2576102ce6119aa611a3f565b6119b661026933611a9e565b611e87565b849184346103975760203660031901126103975781359063ffffffff60e01b8216809203611a3b57602094637965db0b60e01b8314938415611a02575b5050505015158152f35b6301ffc9a760e01b8414945091929091908415611a27575b50505050838080806119f8565b60ff94508252855220541683808080611a1a565b8480fd5b600435906001600160a01b0382168203611a5557565b600080fd5b602435906001600160a01b0382168203611a5557565b9181601f84011215611a555782359167ffffffffffffffff8311611a555760208381860195010111611a5557565b6001600160a01b031660009081527f05b8ccbb9d4d8fb16ea74ce3c29a41f1b461fbdaff4714a0d9a8eb05499746bc602052604090205460ff1690565b60009080825260209060058252604090818420338552835260ff828520541615611b055750505050565b815193336060860167ffffffffffffffff811187821017611de0578452602a86528486019284368537865115611cf85760308453865191600192831015611dcc576078602189015360295b838111611d625750611d2057845191611b6883611e49565b60428352868301936060368637835115611d0c57603085538351821015611d0c5790607860218501536041915b818311611c9e57505050611c5c5792611c2a6048611c1b9794611c4e946044989785519a8b93611bf28b86019a7f416363657373436f6e74726f6c3a206163636f756e74200000000000000000008c525180926037880190611df4565b8401917001034b99036b4b9b9b4b733903937b6329607d1b603784015251809386840190611df4565b01036028810189520187611e65565b5194859362461bcd60e51b8552600485015251809281602486015285850190611df4565b601f01601f19168101030190fd5b60648585519062461bcd60e51b825280600483015260248201527f537472696e67733a20686578206c656e67746820696e73756666696369656e746044820152fd5b909192600f81166010811015611cf8576f181899199a1a9b1b9c1cb0b131b232b360811b901a611cce8587611fec565b5360041c928015611ce457600019019190611b95565b634e487b7160e01b82526011600452602482fd5b634e487b7160e01b83526032600452602483fd5b634e487b7160e01b81526032600452602490fd5b60648686519062461bcd60e51b825280600483015260248201527f537472696e67733a20686578206c656e67746820696e73756666696369656e746044820152fd5b90600f81166010811015611db8576f181899199a1a9b1b9c1cb0b131b232b360811b901a611d90838b611fec565b5360041c908015611da45760001901611b50565b634e487b7160e01b85526011600452602485fd5b634e487b7160e01b86526032600452602486fd5b634e487b7160e01b84526032600452602484fd5b634e487b7160e01b83526041600452602483fd5b60005b838110611e075750506000910152565b8181015183820152602001611df7565b6040810190811067ffffffffffffffff821117611e3357604052565b634e487b7160e01b600052604160045260246000fd5b6080810190811067ffffffffffffffff821117611e3357604052565b90601f8019910116810190811067ffffffffffffffff821117611e3357604052565b6001600160a01b0316338103611f195760008181527f05b8ccbb9d4d8fb16ea74ce3c29a41f1b461fbdaff4714a0d9a8eb05499746bc602052604081205490919060ff16611ed3575050565b8180526005602052604082208183526020526040822060ff19815416905533917ff6391f5c32d9c69d2a47ea670b442974b53935d1edc7fd64eb21e047a839171b8180a4565b60405162461bcd60e51b815260206004820152602f60248201527f416363657373436f6e74726f6c3a2063616e206f6e6c792072656e6f756e636560448201526e103937b632b9903337b91039b2b63360891b6064820152608490fd5b906000918083526005602052604083209160018060a01b03169182845260205260ff604084205416611fa757505050565b8083526005602052604083208284526020526040832060ff1981541690557ff6391f5c32d9c69d2a47ea670b442974b53935d1edc7fd64eb21e047a839171b339380a4565b908151811015611ffd570160200190565b634e487b7160e01b600052603260045260246000fd5b1561201a57565b60405162461bcd60e51b815260206004820152602260248201527f41636365737369626c653a2043616c6c6572206973206e6f7420616e2061646d60448201526134b760f11b6064820152608490fd5b1561207157565b606460405162461bcd60e51b815260206004820152602060248201527f73656e646572206973206e6f742061204c3142726964676552656769737472796044820152fd5b156120bc57565b606460405162461bcd60e51b81526020600482015260046024820152636c6f636b60e01b6044820152fd5b3d15612122573d9067ffffffffffffffff8211611e335760405191612116601f8201601f191660200184611e65565b82523d6000602084013e565b606090565b90816020910312611a55575160ff81168103611a555790565b90816020910312611a5557516001600160a01b0381168103611a555790565b6001600160a01b03161561216f57565b604051633efa09af60e01b8152600490fd5b6006546040805163391e3b3760e01b81526001600160a01b0393841660048083018290526000968796909587946020949185908290602490829087165afa9081156122fe579060ff9187916123fd575b5016600181036123255750855163078f29cf60e01b815284818581855afa9081156122fe579083918791612308575b50169182612212575b50505050505050565b84849288519586809263bce5c11f60e01b82525afa9384156122fe5786946122df575b50808416156122095760085487516347b00fb360e11b81526001600160a01b03929091168216928101928352931660208201529597509395509391929091829185918290819060400103915afa9384156122d4575081936122a3575b50505060019138808080808080612209565b9091809350813d83116122cd575b6122bb8183611e65565b81010312610cb2575051388080612291565b503d6122b1565b51913d9150823e3d90fd5b6122f7919450853d871161106f576110618183611e65565b9238612235565b87513d88823e3d90fd5b61231f9150863d881161106f576110618183611e65565b38612200565b92949392600214612339575b505050505050565b828591875192838092630a49cb0360e01b82525afa9081156123f35784916123d6575b50168061236a575b80612331565b909294965083839294965051948580926307404d9360e21b82525afa9384156122d4575081936123a5575b5050506001913880808080612364565b9091809350813d83116123cf575b6123bd8183611e65565b81010312610cb2575051388080612395565b503d6123b3565b6123ed9150833d851161106f576110618183611e65565b3861235c565b86513d86823e3d90fd5b6124149150863d881161116b5761115d8183611e65565b386121d1565b90816020910312611a5557518015158103611a555790565b908060209392818452848401376000828201840152601f01601f1916010190565b9092919260018060a01b03908160075416916040938185519163f802ead360e01b83521691600496838884015260209360249985858c816000809c5af19485156128195788956127fa575b508385169081156127e45781895260108752848a8a2054166127ce579084939291878b8d8f98600a5416908d8351809b81958294634892afd360e01b8452830152886124ee604484018d8b612432565b9183015203925af19586156127c4579088918b976127a5575b508a8c878082519261251884611e17565b88845286840194828d16978887528982526010905220925116916bffffffffffffffffffffffff60a01b9283825416178155600101925116908254161790558b5161256281611e17565b60018152898101848152858d52600f8b528d8d20915160ff16825491600160a81b6101009003905160081b16916affffffffffffffffffffff60a81b16171790558b5194859485528a8a8601528c850160a0905260a08501906125c492612432565b9160608401526080830152037f3685763fd42e5061ff53b001782ad759eafbc93a460b368a4ce42228ec45da9891a1600954600b548851636eb1769f60e11b8152308b82019081529184166001600160a01b0381166020840152928416918790829081906040010381855afa90811561279b57898d938a8a99989796948f94849161275a575b50106126f0575b5050505050600b54169086896126978a5198899687958694638340f54960e01b8652850160409194939294606082019560018060a01b0380921683521660208201520152565b03925af19283156126e557926126c8575b5050156126b457505050565b600390519163472ed10360e01b8352820152fd5b6126de9250803d106109e1576109d28183611e65565b38806126a8565b8451903d90823e3d90fd5b90604492918d99959697989951968795869463095ea7b360e01b8652850152600019908401525af1801561275057908594939291612733575b808a898d93612651565b61274990853d87116109e1576109d28183611e65565b5038612729565b88513d89823e3d90fd5b959798999a9450505093505081813d8311612794575b61277a8183611e65565b8101031261051e57918a898d938a8a99989796513861264a565b503d612770565b8a513d8b823e3d90fd5b6127bd919750823d841161106f576110618183611e65565b9538612507565b8b513d8c823e3d90fd5b895163472ed10360e01b81526002818d01528c90fd5b895163472ed10360e01b81526001818d01528c90fd5b612812919550863d881161106f576110618183611e65565b933861249e565b89513d8a823e3d90fd5b6040516323b872dd60e01b602082019081526001600160a01b03938416602483015293909216604483015260648083019490945292815260009283929091839061286e608482611e65565b51926001600160a01b03165af16128836120e7565b816128cd575b501561289157565b60405162461bcd60e51b81526020600482015260146024820152731514905394d1915497d19493d357d1905253115160621b6044820152606490fd5b80518015925082156128e2575b505038612889565b6128f5925060208091830101910161241a565b38806128da56fea164736f6c6343000813000a",
  "linkReferences": {},
  "deployedLinkReferences": {}
}