{
  "_format": "hh-sol-artifact-1",
  "contractName": "Layer2ManagerV1_1",
  "sourceName": "contracts/layer2/Layer2ManagerV1_1.sol",
  "abi": [
    {
      "inputs": [],
      "stateMutability": "nonpayable",
      "type": "constructor"
    },
    {
      "anonymous": false,
      "inputs": [
        {
          "indexed": false,
          "internalType": "address",
          "name": "systemConfig",
          "type": "address"
        },
        {
          "indexed": false,
          "internalType": "uint256",
          "name": "wtonAmount",
          "type": "uint256"
        },
        {
          "indexed": false,
          "internalType": "string",
          "name": "memo",
          "type": "string"
        },
        {
          "indexed": false,
          "internalType": "address",
          "name": "operator",
          "type": "address"
        },
        {
          "indexed": false,
          "internalType": "address",
          "name": "layer2Candidate",
          "type": "address"
        }
      ],
      "name": "RegisteredLayer2Candidate",
      "type": "event"
    },
    {
      "anonymous": false,
      "inputs": [
        {
          "indexed": true,
          "internalType": "bytes32",
          "name": "role",
          "type": "bytes32"
        },
        {
          "indexed": true,
          "internalType": "bytes32",
          "name": "previousAdminRole",
          "type": "bytes32"
        },
        {
          "indexed": true,
          "internalType": "bytes32",
          "name": "newAdminRole",
          "type": "bytes32"
        }
      ],
      "name": "RoleAdminChanged",
      "type": "event"
    },
    {
      "anonymous": false,
      "inputs": [
        {
          "indexed": true,
          "internalType": "bytes32",
          "name": "role",
          "type": "bytes32"
        },
        {
          "indexed": true,
          "internalType": "address",
          "name": "account",
          "type": "address"
        },
        {
          "indexed": true,
          "internalType": "address",
          "name": "sender",
          "type": "address"
        }
      ],
      "name": "RoleGranted",
      "type": "event"
    },
    {
      "anonymous": false,
      "inputs": [
        {
          "indexed": true,
          "internalType": "bytes32",
          "name": "role",
          "type": "bytes32"
        },
        {
          "indexed": true,
          "internalType": "address",
          "name": "account",
          "type": "address"
        },
        {
          "indexed": true,
          "internalType": "address",
          "name": "sender",
          "type": "address"
        }
      ],
      "name": "RoleRevoked",
      "type": "event"
    },
    {
      "anonymous": false,
      "inputs": [
        {
          "indexed": false,
          "internalType": "address",
          "name": "_l2Register",
          "type": "address"
        },
        {
          "indexed": false,
          "internalType": "address",
          "name": "_operatorFactory",
          "type": "address"
        },
        {
          "indexed": false,
          "internalType": "address",
          "name": "_ton",
          "type": "address"
        },
        {
          "indexed": false,
          "internalType": "address",
          "name": "_wton",
          "type": "address"
        },
        {
          "indexed": false,
          "internalType": "address",
          "name": "_dao",
          "type": "address"
        },
        {
          "indexed": false,
          "internalType": "address",
          "name": "_depositManager",
          "type": "address"
        },
        {
          "indexed": false,
          "internalType": "address",
          "name": "_seigManager",
          "type": "address"
        },
        {
          "indexed": false,
          "internalType": "address",
          "name": "_swapProxy",
          "type": "address"
        }
      ],
      "name": "SetAddresses",
      "type": "event"
    },
    {
      "anonymous": false,
      "inputs": [
        {
          "indexed": false,
          "internalType": "uint256",
          "name": "_minimumInitialDepositAmount",
          "type": "uint256"
        }
      ],
      "name": "SetMinimumInitialDepositAmount",
      "type": "event"
    },
    {
      "anonymous": false,
      "inputs": [
        {
          "indexed": false,
          "internalType": "uint256",
          "name": "_minimumRelectedAmount",
          "type": "uint256"
        }
      ],
      "name": "SetMinimumRelectedAmount",
      "type": "event"
    },
    {
      "inputs": [],
      "name": "DEFAULT_ADMIN_ROLE",
      "outputs": [
        {
          "internalType": "bytes32",
          "name": "",
          "type": "bytes32"
        }
      ],
      "stateMutability": "view",
      "type": "function"
    },
    {
      "inputs": [],
      "name": "MINTER_ROLE",
      "outputs": [
        {
          "internalType": "bytes32",
          "name": "",
          "type": "bytes32"
        }
      ],
      "stateMutability": "view",
      "type": "function"
    },
    {
      "inputs": [
        {
          "internalType": "address",
          "name": "account",
          "type": "address"
        }
      ],
      "name": "addAdmin",
      "outputs": [],
      "stateMutability": "nonpayable",
      "type": "function"
    },
    {
      "inputs": [
        {
          "internalType": "address",
          "name": "",
          "type": "address"
        }
      ],
      "name": "aliveImplementation",
      "outputs": [
        {
          "internalType": "bool",
          "name": "",
          "type": "bool"
        }
      ],
      "stateMutability": "view",
      "type": "function"
    },
    {
      "inputs": [
        {
          "internalType": "address",
          "name": "_systemConfig",
          "type": "address"
        }
      ],
      "name": "checkLayer2TVL",
      "outputs": [
        {
          "internalType": "bool",
          "name": "result",
          "type": "bool"
        },
        {
          "internalType": "uint256",
          "name": "amount",
          "type": "uint256"
        }
      ],
      "stateMutability": "view",
      "type": "function"
    },
    {
      "inputs": [
        {
          "internalType": "address",
          "name": "systemConfig",
          "type": "address"
        }
      ],
      "name": "claimSeigniorage",
      "outputs": [],
      "stateMutability": "nonpayable",
      "type": "function"
    },
    {
      "inputs": [
        {
          "internalType": "address",
          "name": "systemConfig",
          "type": "address"
        }
      ],
      "name": "claimableSeigniorage",
      "outputs": [
        {
          "internalType": "uint256",
          "name": "amount",
          "type": "uint256"
        }
      ],
      "stateMutability": "view",
      "type": "function"
    },
    {
      "inputs": [
        {
          "internalType": "address",
          "name": "",
          "type": "address"
        }
      ],
      "name": "claimedAmount",
      "outputs": [
        {
          "internalType": "uint256",
          "name": "",
          "type": "uint256"
        }
      ],
      "stateMutability": "view",
      "type": "function"
    },
    {
      "inputs": [],
      "name": "dao",
      "outputs": [
        {
          "internalType": "address",
          "name": "",
          "type": "address"
        }
      ],
      "stateMutability": "view",
      "type": "function"
    },
    {
      "inputs": [
        {
          "internalType": "address",
          "name": "systemConfig",
          "type": "address"
        },
        {
          "internalType": "uint256",
          "name": "amount",
          "type": "uint256"
        }
      ],
      "name": "decreaseTvl",
      "outputs": [
        {
          "internalType": "bool",
          "name": "",
          "type": "bool"
        }
      ],
      "stateMutability": "nonpayable",
      "type": "function"
    },
    {
      "inputs": [],
      "name": "depositManager",
      "outputs": [
        {
          "internalType": "address",
          "name": "",
          "type": "address"
        }
      ],
      "stateMutability": "view",
      "type": "function"
    },
    {
      "inputs": [
        {
          "internalType": "bytes32",
          "name": "role",
          "type": "bytes32"
        }
      ],
      "name": "getRoleAdmin",
      "outputs": [
        {
          "internalType": "bytes32",
          "name": "",
          "type": "bytes32"
        }
      ],
      "stateMutability": "view",
      "type": "function"
    },
    {
      "inputs": [
        {
          "internalType": "bytes32",
          "name": "role",
          "type": "bytes32"
        },
        {
          "internalType": "address",
          "name": "account",
          "type": "address"
        }
      ],
      "name": "grantRole",
      "outputs": [],
      "stateMutability": "nonpayable",
      "type": "function"
    },
    {
      "inputs": [
        {
          "internalType": "bytes32",
          "name": "role",
          "type": "bytes32"
        },
        {
          "internalType": "address",
          "name": "account",
          "type": "address"
        }
      ],
      "name": "hasRole",
      "outputs": [
        {
          "internalType": "bool",
          "name": "",
          "type": "bool"
        }
      ],
      "stateMutability": "view",
      "type": "function"
    },
    {
      "inputs": [
        {
          "internalType": "address",
          "name": "systemConfig",
          "type": "address"
        },
        {
          "internalType": "uint256",
          "name": "amount",
          "type": "uint256"
        }
      ],
      "name": "increaseTvl",
      "outputs": [
        {
          "internalType": "bool",
          "name": "",
          "type": "bool"
        }
      ],
      "stateMutability": "nonpayable",
      "type": "function"
    },
    {
      "inputs": [
        {
          "internalType": "address",
          "name": "account",
          "type": "address"
        }
      ],
      "name": "isAdmin",
      "outputs": [
        {
          "internalType": "bool",
          "name": "",
          "type": "bool"
        }
      ],
      "stateMutability": "view",
      "type": "function"
    },
    {
      "inputs": [],
      "name": "isOwner",
      "outputs": [
        {
          "internalType": "bool",
          "name": "",
          "type": "bool"
        }
      ],
      "stateMutability": "view",
      "type": "function"
    },
    {
      "inputs": [
        {
          "internalType": "address",
          "name": "",
          "type": "address"
        }
      ],
      "name": "issueStatusLayer2",
      "outputs": [
        {
          "internalType": "uint8",
          "name": "",
          "type": "uint8"
        }
      ],
      "stateMutability": "view",
      "type": "function"
    },
    {
      "inputs": [],
      "name": "l2Register",
      "outputs": [
        {
          "internalType": "address",
          "name": "",
          "type": "address"
        }
      ],
      "stateMutability": "view",
      "type": "function"
    },
    {
      "inputs": [
        {
          "internalType": "address",
          "name": "",
          "type": "address"
        }
      ],
      "name": "l2Tvl",
      "outputs": [
        {
          "internalType": "uint256",
          "name": "",
          "type": "uint256"
        }
      ],
      "stateMutability": "view",
      "type": "function"
    },
    {
      "inputs": [],
      "name": "minimumInitialDepositAmount",
      "outputs": [
        {
          "internalType": "uint256",
          "name": "",
          "type": "uint256"
        }
      ],
      "stateMutability": "view",
      "type": "function"
    },
    {
      "inputs": [],
      "name": "minimumRelectedAmount",
      "outputs": [
        {
          "internalType": "uint256",
          "name": "",
          "type": "uint256"
        }
      ],
      "stateMutability": "view",
      "type": "function"
    },
    {
      "inputs": [
        {
          "internalType": "address",
          "name": "owner",
          "type": "address"
        },
        {
          "internalType": "address",
          "name": "spender",
          "type": "address"
        },
        {
          "internalType": "uint256",
          "name": "amount",
          "type": "uint256"
        },
        {
          "internalType": "bytes",
          "name": "data",
          "type": "bytes"
        }
      ],
      "name": "onApprove",
      "outputs": [
        {
          "internalType": "bool",
          "name": "",
          "type": "bool"
        }
      ],
      "stateMutability": "nonpayable",
      "type": "function"
    },
    {
      "inputs": [],
      "name": "operatorFactory",
      "outputs": [
        {
          "internalType": "address",
          "name": "",
          "type": "address"
        }
      ],
      "stateMutability": "view",
      "type": "function"
    },
    {
      "inputs": [
        {
          "internalType": "address",
          "name": "",
          "type": "address"
        }
      ],
      "name": "operatorOfSystemConfig",
      "outputs": [
        {
          "internalType": "address",
          "name": "",
          "type": "address"
        }
      ],
      "stateMutability": "view",
      "type": "function"
    },
    {
      "inputs": [],
      "name": "pauseProxy",
      "outputs": [
        {
          "internalType": "bool",
          "name": "",
          "type": "bool"
        }
      ],
      "stateMutability": "view",
      "type": "function"
    },
    {
      "inputs": [
        {
          "internalType": "uint256",
          "name": "",
          "type": "uint256"
        }
      ],
      "name": "proxyImplementation",
      "outputs": [
        {
          "internalType": "address",
          "name": "",
          "type": "address"
        }
      ],
      "stateMutability": "view",
      "type": "function"
    },
    {
      "inputs": [
        {
          "internalType": "address",
          "name": "systemConfig",
          "type": "address"
        },
        {
          "internalType": "uint256",
          "name": "amount",
          "type": "uint256"
        },
        {
          "internalType": "bool",
          "name": "flagTon",
          "type": "bool"
        },
        {
          "internalType": "string",
          "name": "memo",
          "type": "string"
        }
      ],
      "name": "registerLayer2Candidate",
      "outputs": [],
      "stateMutability": "nonpayable",
      "type": "function"
    },
    {
      "inputs": [
        {
          "internalType": "address",
          "name": "account",
          "type": "address"
        }
      ],
      "name": "removeAdmin",
      "outputs": [],
      "stateMutability": "nonpayable",
      "type": "function"
    },
    {
      "inputs": [],
      "name": "renounceOwnership",
      "outputs": [],
      "stateMutability": "nonpayable",
      "type": "function"
    },
    {
      "inputs": [
        {
          "internalType": "bytes32",
          "name": "role",
          "type": "bytes32"
        },
        {
          "internalType": "address",
          "name": "account",
          "type": "address"
        }
      ],
      "name": "renounceRole",
      "outputs": [],
      "stateMutability": "nonpayable",
      "type": "function"
    },
    {
      "inputs": [
        {
          "internalType": "address",
          "name": "systemConfig",
          "type": "address"
        },
        {
          "internalType": "uint256",
          "name": "amount",
          "type": "uint256"
        }
      ],
      "name": "resetTvl",
      "outputs": [
        {
          "internalType": "bool",
          "name": "",
          "type": "bool"
        }
      ],
      "stateMutability": "nonpayable",
      "type": "function"
    },
    {
      "inputs": [
        {
          "internalType": "bytes32",
          "name": "role",
          "type": "bytes32"
        },
        {
          "internalType": "address",
          "name": "account",
          "type": "address"
        }
      ],
      "name": "revokeRole",
      "outputs": [],
      "stateMutability": "nonpayable",
      "type": "function"
    },
    {
      "inputs": [],
      "name": "seigManager",
      "outputs": [
        {
          "internalType": "address",
          "name": "",
          "type": "address"
        }
      ],
      "stateMutability": "view",
      "type": "function"
    },
    {
      "inputs": [
        {
          "internalType": "bytes4",
          "name": "",
          "type": "bytes4"
        }
      ],
      "name": "selectorImplementation",
      "outputs": [
        {
          "internalType": "address",
          "name": "",
          "type": "address"
        }
      ],
      "stateMutability": "view",
      "type": "function"
    },
    {
      "inputs": [
        {
          "internalType": "address",
          "name": "_l2Register",
          "type": "address"
        },
        {
          "internalType": "address",
          "name": "_operatorFactory",
          "type": "address"
        },
        {
          "internalType": "address",
          "name": "_ton",
          "type": "address"
        },
        {
          "internalType": "address",
          "name": "_wton",
          "type": "address"
        },
        {
          "internalType": "address",
          "name": "_dao",
          "type": "address"
        },
        {
          "internalType": "address",
          "name": "_depositManager",
          "type": "address"
        },
        {
          "internalType": "address",
          "name": "_seigManager",
          "type": "address"
        },
        {
          "internalType": "address",
          "name": "_swapProxy",
          "type": "address"
        }
      ],
      "name": "setAddresses",
      "outputs": [],
      "stateMutability": "nonpayable",
      "type": "function"
    },
    {
      "inputs": [
        {
          "internalType": "uint256",
          "name": "_minimumInitialDepositAmount",
          "type": "uint256"
        }
      ],
      "name": "setMinimumInitialDepositAmount",
      "outputs": [],
      "stateMutability": "nonpayable",
      "type": "function"
    },
    {
      "inputs": [
        {
          "internalType": "uint256",
          "name": "_minimumRelectedAmount",
          "type": "uint256"
        }
      ],
      "name": "setMinimumRelectedAmount",
      "outputs": [],
      "stateMutability": "nonpayable",
      "type": "function"
    },
    {
      "inputs": [],
      "name": "shares",
      "outputs": [
        {
          "internalType": "uint256",
          "name": "",
          "type": "uint256"
        }
      ],
      "stateMutability": "view",
      "type": "function"
    },
    {
      "inputs": [
        {
          "internalType": "bytes4",
          "name": "interfaceId",
          "type": "bytes4"
        }
      ],
      "name": "supportsInterface",
      "outputs": [
        {
          "internalType": "bool",
          "name": "",
          "type": "bool"
        }
      ],
      "stateMutability": "view",
      "type": "function"
    },
    {
      "inputs": [],
      "name": "swapProxy",
      "outputs": [
        {
          "internalType": "address",
          "name": "",
          "type": "address"
        }
      ],
      "stateMutability": "view",
      "type": "function"
    },
    {
      "inputs": [
        {
          "internalType": "address",
          "name": "",
          "type": "address"
        }
      ],
      "name": "systemConfigOfOperator",
      "outputs": [
        {
          "internalType": "address",
          "name": "",
          "type": "address"
        }
      ],
      "stateMutability": "view",
      "type": "function"
    },
    {
      "inputs": [],
      "name": "ton",
      "outputs": [
        {
          "internalType": "address",
          "name": "",
          "type": "address"
        }
      ],
      "stateMutability": "view",
      "type": "function"
    },
    {
      "inputs": [],
      "name": "totalTvl",
      "outputs": [
        {
          "internalType": "uint256",
          "name": "",
          "type": "uint256"
        }
      ],
      "stateMutability": "view",
      "type": "function"
    },
    {
      "inputs": [
        {
          "internalType": "address",
          "name": "newAdmin",
          "type": "address"
        }
      ],
      "name": "transferAdmin",
      "outputs": [],
      "stateMutability": "nonpayable",
      "type": "function"
    },
    {
      "inputs": [
        {
          "internalType": "address",
          "name": "newAdmin",
          "type": "address"
        }
      ],
      "name": "transferOwnership",
      "outputs": [],
      "stateMutability": "nonpayable",
      "type": "function"
    },
    {
      "inputs": [],
      "name": "unReflectedSeigs",
      "outputs": [
        {
          "internalType": "uint256",
          "name": "",
          "type": "uint256"
        }
      ],
      "stateMutability": "view",
      "type": "function"
    },
    {
      "inputs": [
        {
          "internalType": "uint256",
          "name": "amount",
          "type": "uint256"
        }
      ],
      "name": "updateSeigniorage",
      "outputs": [],
      "stateMutability": "nonpayable",
      "type": "function"
    },
    {
      "inputs": [],
      "name": "wton",
      "outputs": [
        {
          "internalType": "address",
          "name": "",
          "type": "address"
        }
      ],
      "stateMutability": "view",
      "type": "function"
    }
  ],
  "bytecode": "0x60806040526019805460ff1916600117905534801561001d57600080fd5b50612a4b8061002d6000396000f3fe608060405234801561001057600080fd5b50600436106102bb5760003560e01c80636ec4be9011610182578063a217fddf116100e9578063d547741f116100a2578063e5b235311161007c578063e5b23531146106ce578063e9d6ec4f146106e1578063ef6cf652146106ea578063f2fde38b1461071357600080fd5b8063d547741f1461069f578063d733cfd0146106b2578063e0ca79e4146106c557600080fd5b8063a217fddf14610622578063a2eae4ce1461062a578063b911135f14610633578063b94ed2421461065c578063cc48b94714610665578063d53913931461067857600080fd5b806389c0db621161013b57806389c0db62146105815780638d62d949146105ab5780638f32d59b146105be57806391d14854146105c657806396c62f08146105d9578063a1efe920146105f957600080fd5b80636ec4be901461051a5780636fb7f5581461052d5780637048027514610540578063715018a61461055357806375829def1461055b5780637e1181dc1461056e57600080fd5b80634162169f116102265780635290c248116101df5780635290c2481461049e57806354fb2572146104b1578063550d01a3146104c45780635bc14926146104e757806363a8fd89146104fa5780636c7ac9d81461050757600080fd5b80634162169f146103fe5780634273ca16146104295780634318dc1d1461043c578063472d1f711461044f5780634949637e1461046257806350d2a2761461047557600080fd5b8063248a9ca311610278578063248a9ca31461037c57806324d7806c1461039f57806327f1470d146103b25780632f2ff15d146103c557806336568abe146103d85780633c66fad3146103eb57600080fd5b806301ffc9a7146102c0578063027aa37b146102e857806303314efa146102fd57806304e8690314610314578063153e6d7f146103345780631785f53c14610369575b600080fd5b6102d36102ce366004612443565b610726565b60405190151581526020015b60405180910390f35b6102fb6102f636600461246d565b610737565b005b61030660165481565b6040519081526020016102df565b61030661032236600461249b565b60116020526000908152604090205481565b61035761034236600461249b565b600f6020526000908152604090205460ff1681565b60405160ff90911681526020016102df565b6102fb61037736600461249b565b6107fa565b61030661038a36600461246d565b60009081526005602052604090206001015490565b6102d36103ad36600461249b565b61082a565b6102fb6103c036600461250f565b610836565b6102fb6103d3366004612582565b610910565b6102fb6103e6366004612582565b61093a565b6102d36103f93660046125b2565b6109b8565b600a54610411906001600160a01b031681565b6040516001600160a01b0390911681526020016102df565b6102d36104373660046125de565b610a3d565b6102fb61044a36600461246d565b610c75565b600654610411906001600160a01b031681565b6102d36104703660046125b2565b610d10565b610411610483366004612443565b6003602052600090815260409020546001600160a01b031681565b600754610411906001600160a01b031681565b6102fb6104bf36600461246d565b610dc0565b6102d36104d236600461249b565b60026020526000908152604090205460ff1681565b6102fb6104f536600461249b565b610e53565b6000546102d39060ff1681565b600b54610411906001600160a01b031681565b600d54610411906001600160a01b031681565b600c54610411906001600160a01b031681565b6102fb61054e36600461249b565b6110b9565b6102fb6110e9565b6102fb61056936600461249b565b61111b565b61030661057c36600461249b565b6111fd565b61059461058f36600461249b565b611283565b6040805192151583526020830191909152016102df565b600954610411906001600160a01b031681565b6102d36115b4565b6102d36105d4366004612582565b6115c5565b6103066105e736600461249b565b60146020526000908152604090205481565b61041161060736600461249b565b6012602052600090815260409020546001600160a01b031681565b610306600081565b61030660185481565b61041161064136600461246d565b6001602052600090815260409020546001600160a01b031681565b61030660175481565b600854610411906001600160a01b031681565b6103067ff0887ba65ee2024ea881d91b74c2450ef19e1557f03bed3ea9f16b037cbe2dc981565b6102fb6106ad366004612582565b6115f0565b6102fb6106c0366004612634565b611615565b61030660135481565b6102d36106dc3660046125b2565b611826565b610306600e5481565b6104116106f836600461249b565b6010602052600090815260409020546001600160a01b031681565b6102fb61072136600461249b565b611900565b60006107318261192e565b92915050565b600c546001600160a01b031633146107965760405162461bcd60e51b815260206004820152601b60248201527f73656e646572206973206e6f74206120536569674d616e61676572000000000060448201526064015b60405180910390fd5b80601760008282546107a891906126f3565b909155505060185460175411156107f7576013546017546107d190670de0b6b3a7640000612706565b6107db919061271d565b601660008282546107ec91906126f3565b909155505060006017555b50565b6108033361082a565b61081f5760405162461bcd60e51b815260040161078d9061273f565b6107f760008261093a565b600061073181836115c5565b846001600160a01b0381166108725760405162461bcd60e51b81526020600482015260026024820152612d1960f11b604482015260640161078d565b60008290036108b05760405162461bcd60e51b815260206004820152600a602482015269636865636b206d656d6f60b01b604482015260640161078d565b6108b986611953565b6108fa5760405162461bcd60e51b81526020600482015260126024820152713ab72b30b634b230ba32b2102630bcb2b91960711b604482015260640161078d565b6109083387878787876119c5565b505050505050565b60008281526005602052604090206001015461092b81611c28565b6109358383611c32565b505050565b6001600160a01b03811633146109aa5760405162461bcd60e51b815260206004820152602f60248201527f416363657373436f6e74726f6c3a2063616e206f6e6c792072656e6f756e636560448201526e103937b632b9903337b91039b2b63360891b606482015260840161078d565b6109b48282611cb8565b5050565b6006546000906001600160a01b031633146109e55760405162461bcd60e51b815260040161078d90612781565b6001600160a01b0383166000908152601460205260409020546013548190610a0e9085906126f3565b610a1891906127b8565b60135550506001600160a01b0391909116600090815260146020526040902055600190565b6008546000906001600160a01b0316331480610a6357506009546001600160a01b031633145b610aaf5760405162461bcd60e51b815260206004820152601a60248201527f73656e646572206973206e6f7420746f6e206e6f722077746f6e000000000000604482015260640161078d565b6001600160a01b0385163014610b075760405162461bcd60e51b815260206004820152601760248201527f77726f6e67207370656e64657220706172616d65746572000000000000000000604482015260640161078d565b600083838080601f016020809104026020016040519081016040528093929190818152602001838380828437600092018290525093945050601486119150610b8790505760405162461bcd60e51b81526020600482015260116024820152700eee4dedcce40c8c2e8c240d8cadccee8d607b1b604482015260640161078d565b5060148101516001600160a01b038116610bd75760405162461bcd60e51b81526020600482015260116024820152700eee4dedcce40c8c2e8c240d8cadccee8d607b1b604482015260640161078d565b610be081611953565b610c215760405162461bcd60e51b81526020600482015260126024820152713ab72b30b634b230ba32b2102630bcb2b91960711b604482015260640161078d565b6008546001600160a01b03163303610c5257610c4d8882886001610c48896014818d6127cb565b6119c5565b610c67565b610c678882886000610c48896014818d6127cb565b506001979650505050505050565b610c7e3361082a565b610c9a5760405162461bcd60e51b815260040161078d9061273f565b80600e5403610cd45760405162461bcd60e51b815260040161078d9060208082526004908201526373616d6560e01b604082015260600190565b600e8190556040518181527f50e01964a144ee7e40d80d0792ff2641558654ef906fd81502421f22bf6ca92c906020015b60405180910390a150565b60008180600003610d485760405162461bcd60e51b81526020600482015260026024820152615a3160f01b604482015260640161078d565b6006546001600160a01b03163314610d725760405162461bcd60e51b815260040161078d90612781565b8260136000828254610d8491906126f3565b90915550506001600160a01b03841660009081526014602052604081208054859290610db19084906126f3565b90915550600195945050505050565b610dc93361082a565b610de55760405162461bcd60e51b815260040161078d9061273f565b8060185403610e1f5760405162461bcd60e51b815260040161078d9060208082526004908201526373616d6560e01b604082015260600190565b60188190556040518181527e7d5dff328c2c773177653b26d6945d9f8531171ffde121e5979a4b8c90099290602001610d05565b6001600160a01b038116610e9d5760405162461bcd60e51b81526020600482015260116024820152707a65726f2073797374656d436f6e66696760781b604482015260640161078d565b6001600160a01b038082166000908152601060205260409020541680610efd5760405162461bcd60e51b81526020600482015260156024820152741e995c9bc81bdc195c985d1bdc90dbdb9d1c9858dd605a1b604482015260640161078d565b6040516336b87bd760e11b81523360048201526001600160a01b03821690636d70f7ae90602401602060405180830381865afa158015610f41573d6000803e3d6000fd5b505050506040513d601f19601f82011682018060405250810190610f6591906127f5565b610fb15760405162461bcd60e51b815260206004820152601960248201527f73656e646572206973206e6f7420616e206f70657261746f7200000000000000604482015260640161078d565b6000610fbc836111fd565b90508060000361100e5760405162461bcd60e51b815260206004820152601860248201527f6e6f20636c61696d61626c6520736569676e696f726167650000000000000000604482015260640161078d565b6001600160a01b038316600090815260116020526040812080548392906110369084906126f3565b909155505060095460405163a9059cbb60e01b81526001600160a01b038481166004830152602482018490529091169063a9059cbb906044015b6020604051808303816000875af115801561108f573d6000803e3d6000fd5b505050506040513d601f19601f820116820180604052508101906110b391906127f5565b50505050565b6110c23361082a565b6110de5760405162461bcd60e51b815260040161078d9061273f565b6107f7600082610910565b6110f23361082a565b61110e5760405162461bcd60e51b815260040161078d9061273f565b61111960003361093a565b565b6111243361082a565b6111405760405162461bcd60e51b815260040161078d9061273f565b6001600160a01b0381166111965760405162461bcd60e51b815260206004820152601860248201527f41636365737369626c653a207a65726f20616464726573730000000000000000604482015260640161078d565b6001600160a01b03811633036111e75760405162461bcd60e51b815260206004820152601660248201527520b1b1b2b9b9b4b136329d1039b0b6b29030b236b4b760511b604482015260640161078d565b6111f2600082610910565b6107f760003361093a565b6001600160a01b038116600090815260146020526040812054601654670de0b6b3a76400009161122c91612706565b611236919061271d565b6001600160a01b038316600090815260116020526040902054909150811061127b576001600160a01b03821660009081526011602052604090205461073190826127b8565b506000919050565b6006546040516378da9c5960e11b81526001600160a01b038381166004830152600092839283929091169063f1b538b290602401602060405180830381865afa1580156112d4573d6000803e3d6000fd5b505050506040513d601f19601f820116820180604052508101906112f89190612812565b90508060ff166001036114a157836001600160a01b031663078f29cf6040518163ffffffff1660e01b8152600401602060405180830381865afa92505050801561135f575060408051601f3d908101601f1916820190925261135c91810190612835565b60015b611399573d80801561138d576040519150601f19603f3d011682016040523d82523d6000602084013e611392565b606091505b50506115ae565b6001600160a01b0381161561149b576000856001600160a01b031663bce5c11f6040518163ffffffff1660e01b8152600401602060405180830381865afa1580156113e8573d6000803e3d6000fd5b505050506040513d601f19601f8201168201806040525081019061140c9190612835565b90506001600160a01b03811615611392576008546040516347b00fb360e11b81526001600160a01b039182166004820152828216602482015290831690638f601f6690604401602060405180830381865afa15801561146f573d6000803e3d6000fd5b505050506040513d601f19601f820116820180604052508101906114939190612852565b935060019450505b506115ae565b8060ff166002036115ae57836001600160a01b0316630a49cb036040518163ffffffff1660e01b8152600401602060405180830381865afa925050508015611506575060408051601f3d908101601f1916820190925261150391810190612835565b60015b611534573d80801561138d576040519150601f19603f3d011682016040523d82523d6000602084013e611392565b6001600160a01b038116156115ac57806001600160a01b0316631d01364c6040518163ffffffff1660e01b8152600401602060405180830381865afa158015611581573d6000803e3d6000fd5b505050506040513d601f19601f820116820180604052508101906115a59190612852565b9250600193505b505b50915091565b60006115c081336115c5565b905090565b60009182526005602090815260408084206001600160a01b0393909316845291905290205460ff1690565b60008281526005602052604090206001015461160b81611c28565b6109358383611cb8565b61161e3361082a565b61163a5760405162461bcd60e51b815260040161078d9061273f565b6006546001600160a01b03898116911614158061166557506007546001600160a01b03888116911614155b8061167e57506008546001600160a01b03878116911614155b8061169757506009546001600160a01b03868116911614155b806116b05750600a546001600160a01b03858116911614155b806116c95750600b546001600160a01b03848116911614155b806116e25750600c546001600160a01b03838116911614155b806116fb5750600d546001600160a01b03828116911614155b6117325760405162461bcd60e51b8152602060048201526008602482015267616c6c2073616d6560c01b604482015260640161078d565b600680546001600160a01b038a81166001600160a01b03199283168117909355600780548b83169084168117909155600880548b84169085168117909155600980548b85169086168117909155600a80548b86169087168117909155600b80548b87169088168117909155600c80548b88169089168117909155600d8054978b16979098168717909755604080519889526020890195909552938701929092526060860152608085015260a084015260c083019190915260e08201527f617f1cba5d7b9d5d3c81f0d5c78720ec2be227878bac84c0851b70e4cf61cb08906101000160405180910390a15050505050505050565b6000818060000361185e5760405162461bcd60e51b81526020600482015260026024820152615a3160f01b604482015260640161078d565b6006546001600160a01b031633146118885760405162461bcd60e51b815260040161078d90612781565b82601354101580156118b257506001600160a01b0384166000908152601460205260409020548311155b156118f65782601360008282546118c991906127b8565b90915550506001600160a01b03841660009081526014602052604081208054859290610db19084906127b8565b5060019392505050565b6119093361082a565b6119255760405162461bcd60e51b815260040161078d9061273f565b6107f78161111b565b60006001600160e01b03198216637965db0b60e01b1480610731575061073182611d1f565b6001600160a01b03818116600090815260106020526040812054909116156119b25760405162461bcd60e51b8152602060048201526012602482015271185b1c9958591e481c9959da5cdd195c995960721b604482015260640161078d565b60006119bd83611283565b509392505050565b8215611b7057600e54841015611a1d5760405162461bcd60e51b815260206004820181905260248201527f756e73617469736669656420696e697469616c4465706f736974416d6f756e74604482015260640161078d565b600854611a35906001600160a01b0316873087611d5b565b600854600954600d54604080516001600160a01b039283166020820181905281830152815180820383018152606082019283905263cae9ca5160e01b9092529382169363cae9ca5193611a8e93169189916064016128bb565b6020604051808303816000875af1158015611aad573d6000803e3d6000fd5b505050506040513d601f19601f82011682018060405250810190611ad191906127f5565b611b1d5760405162461bcd60e51b815260206004820152601860248201527f6661696c20746f207377617020746f6e20746f2077746f6e0000000000000000604482015260640161078d565b611b6b85611b2f86633b9aca00612706565b84848080601f016020809104026020016040519081016040528093929190818152602001838380828437600092019190915250611e6e92505050565b610908565b600e54611b81633b9aca008661271d565b1015611bcf5760405162461bcd60e51b815260206004820181905260248201527f756e73617469736669656420696e697469616c4465706f736974416d6f756e74604482015260640161078d565b600954611be7906001600160a01b0316873087611d5b565b610908858584848080601f016020809104026020016040519081016040528093929190818152602001838380828437600092019190915250611e6e92505050565b6107f7813361217c565b611c3c82826115c5565b6109b45760008281526005602090815260408083206001600160a01b03851684529091529020805460ff19166001179055611c743390565b6001600160a01b0316816001600160a01b0316837f2f8788117e7eff1d82e926ec794901d17c78024a50270940304540a733656f0d60405160405180910390a45050565b611cc282826115c5565b156109b45760008281526005602090815260408083206001600160a01b0385168085529252808320805460ff1916905551339285917ff6391f5c32d9c69d2a47ea670b442974b53935d1edc7fd64eb21e047a839171b9190a45050565b60006301ffc9a760e01b6001600160e01b0319831614806107315750506001600160e01b03191660009081526004602052604090205460ff1690565b604080516001600160a01b0385811660248301528481166044830152606480830185905283518084039091018152608490920183526020820180516001600160e01b03166323b872dd60e01b1790529151600092839290881691611dbf91906128eb565b6000604051808303816000865af19150503d8060008114611dfc576040519150601f19603f3d011682016040523d82523d6000602084013e611e01565b606091505b5091509150818015611e2b575080511580611e2b575080806020019051810190611e2b91906127f5565b6109085760405162461bcd60e51b81526020600482015260146024820152731514905394d1915497d19493d357d1905253115160621b604482015260640161078d565b826001600160a01b038116611eaa5760405162461bcd60e51b81526020600482015260026024820152612d1960f11b604482015260640161078d565b60075460405163f6ae6f1360e01b81526001600160a01b038681166004830152600092169063f6ae6f13906024016020604051808303816000875af1158015611ef7573d6000803e3d6000fd5b505050506040513d601f19601f82011682018060405250810190611f1b9190612835565b90506001600160a01b03811615801590611f4d57506001600160a01b0381811660009081526012602052604090205416155b611f8a5760405162461bcd60e51b815260206004820152600e60248201526d3bb937b7339037b832b930ba37b960911b604482015260640161078d565b6001600160a01b03808616600081815260106020908152604080832080548688166001600160a01b03199182168117909255908452601290925280832080549092169093179055600a5491516304d0bde760e11b8152909291909116906309a17bce90611ffd9087908690600401612907565b6020604051808303816000875af115801561201c573d6000803e3d6000fd5b505050506040513d601f19601f820116820180604052508101906120409190612835565b600b54909150612059906001600160a01b0316866121d5565b600b54604051638340f54960e01b81526001600160a01b03838116600483015284811660248301526044820188905290911690638340f549906064016020604051808303816000875af11580156120b4573d6000803e3d6000fd5b505050506040513d601f19601f820116820180604052508101906120d891906127f5565b6121115760405162461bcd60e51b815260206004820152600a6024820152694661696c205374616b6560b01b604482015260640161078d565b6001600160a01b0386166000908152600f602052604090819020805460ff19166001179055517f1526ff0a0299f7312457e24a4af3d354afc4d51a22017cc0bb86b8c9fed662409061216c9088908890889087908790612931565b60405180910390a1505050505050565b61218682826115c5565b6109b4576121938161228e565b61219e8360206122a0565b6040516020016121af929190612973565b60408051601f198184030181529082905262461bcd60e51b825261078d916004016129e8565b600954604051636eb1769f60e11b81523060048201526001600160a01b038481166024830152600092169063dd62ed3e90604401602060405180830381865afa158015612226573d6000803e3d6000fd5b505050506040513d601f19601f8201168201806040525081019061224a9190612852565b9050818110156109355760095460405163095ea7b360e01b81526001600160a01b03858116600483015260001960248301529091169063095ea7b390604401611070565b60606107316001600160a01b03831660145b606060006122af836002612706565b6122ba9060026126f3565b67ffffffffffffffff8111156122d2576122d26129fb565b6040519080825280601f01601f1916602001820160405280156122fc576020820181803683370190505b509050600360fc1b8160008151811061231757612317612a11565b60200101906001600160f81b031916908160001a905350600f60fb1b8160018151811061234657612346612a11565b60200101906001600160f81b031916908160001a905350600061236a846002612706565b6123759060016126f3565b90505b60018111156123ed576f181899199a1a9b1b9c1cb0b131b232b360811b85600f16601081106123a9576123a9612a11565b1a60f81b8282815181106123bf576123bf612a11565b60200101906001600160f81b031916908160001a90535060049490941c936123e681612a27565b9050612378565b50831561243c5760405162461bcd60e51b815260206004820181905260248201527f537472696e67733a20686578206c656e67746820696e73756666696369656e74604482015260640161078d565b9392505050565b60006020828403121561245557600080fd5b81356001600160e01b03198116811461243c57600080fd5b60006020828403121561247f57600080fd5b5035919050565b6001600160a01b03811681146107f757600080fd5b6000602082840312156124ad57600080fd5b813561243c81612486565b80151581146107f757600080fd5b60008083601f8401126124d857600080fd5b50813567ffffffffffffffff8111156124f057600080fd5b60208301915083602082850101111561250857600080fd5b9250929050565b60008060008060006080868803121561252757600080fd5b853561253281612486565b9450602086013593506040860135612549816124b8565b9250606086013567ffffffffffffffff81111561256557600080fd5b612571888289016124c6565b969995985093965092949392505050565b6000806040838503121561259557600080fd5b8235915060208301356125a781612486565b809150509250929050565b600080604083850312156125c557600080fd5b82356125d081612486565b946020939093013593505050565b6000806000806000608086880312156125f657600080fd5b853561260181612486565b9450602086013561261181612486565b935060408601359250606086013567ffffffffffffffff81111561256557600080fd5b600080600080600080600080610100898b03121561265157600080fd5b883561265c81612486565b9750602089013561266c81612486565b9650604089013561267c81612486565b9550606089013561268c81612486565b9450608089013561269c81612486565b935060a08901356126ac81612486565b925060c08901356126bc81612486565b915060e08901356126cc81612486565b809150509295985092959890939650565b634e487b7160e01b600052601160045260246000fd5b80820180821115610731576107316126dd565b8082028115828204841417610731576107316126dd565b60008261273a57634e487b7160e01b600052601260045260246000fd5b500490565b60208082526022908201527f41636365737369626c653a2043616c6c6572206973206e6f7420616e2061646d60408201526134b760f11b606082015260800190565b6020808252601a908201527f73656e646572206973206e6f742061204c325265676973746572000000000000604082015260600190565b81810381811115610731576107316126dd565b600080858511156127db57600080fd5b838611156127e857600080fd5b5050820193919092039150565b60006020828403121561280757600080fd5b815161243c816124b8565b60006020828403121561282457600080fd5b815160ff8116811461243c57600080fd5b60006020828403121561284757600080fd5b815161243c81612486565b60006020828403121561286457600080fd5b5051919050565b60005b8381101561288657818101518382015260200161286e565b50506000910152565b600081518084526128a781602086016020860161286b565b601f01601f19169290920160200192915050565b60018060a01b03841681528260208201526060604082015260006128e2606083018461288f565b95945050505050565b600082516128fd81846020870161286b565b9190910192915050565b60408152600061291a604083018561288f565b905060018060a01b03831660208301529392505050565b600060018060a01b03808816835286602084015260a0604084015261295960a084018761288f565b948116606084015292909216608090910152509392505050565b7f416363657373436f6e74726f6c3a206163636f756e74200000000000000000008152600083516129ab81601785016020880161286b565b7001034b99036b4b9b9b4b733903937b6329607d1b60179184019182015283516129dc81602884016020880161286b565b01602801949350505050565b60208152600061243c602083018461288f565b634e487b7160e01b600052604160045260246000fd5b634e487b7160e01b600052603260045260246000fd5b600081612a3657612a366126dd565b50600019019056fea164736f6c6343000813000a",
  "linkReferences": {},
  "deployedLinkReferences": {}
}