{
  "_format": "hh-sol-artifact-1",
  "contractName": "Layer2ManagerV1_1",
  "sourceName": "contracts/layer2/Layer2ManagerV1_1.sol",
  "abi": [
    {
      "inputs": [],
      "stateMutability": "nonpayable",
      "type": "constructor"
    },
    {
      "inputs": [],
      "name": "ExcludeError",
      "type": "error"
    },
    {
      "inputs": [
        {
          "internalType": "uint256",
          "name": "x",
          "type": "uint256"
        }
      ],
      "name": "OnApproveError",
      "type": "error"
    },
    {
      "inputs": [
        {
          "internalType": "uint256",
          "name": "x",
          "type": "uint256"
        }
      ],
      "name": "RegisterError",
      "type": "error"
    },
    {
      "inputs": [],
      "name": "StatusError",
      "type": "error"
    },
    {
      "inputs": [],
      "name": "ZeroAddressError",
      "type": "error"
    },
    {
      "inputs": [],
      "name": "ZeroBytesError",
      "type": "error"
    },
    {
      "anonymous": false,
      "inputs": [
        {
          "indexed": false,
          "internalType": "address",
          "name": "systemConfig",
          "type": "address"
        },
        {
          "indexed": false,
          "internalType": "address",
          "name": "_layer2",
          "type": "address"
        }
      ],
      "name": "PausedLayer2Candidate",
      "type": "event"
    },
    {
      "anonymous": false,
      "inputs": [
        {
          "indexed": false,
          "internalType": "address",
          "name": "systemConfig",
          "type": "address"
        },
        {
          "indexed": false,
          "internalType": "uint256",
          "name": "wtonAmount",
          "type": "uint256"
        },
        {
          "indexed": false,
          "internalType": "string",
          "name": "memo",
          "type": "string"
        },
        {
          "indexed": false,
          "internalType": "address",
          "name": "operator",
          "type": "address"
        },
        {
          "indexed": false,
          "internalType": "address",
          "name": "layer2Candidate",
          "type": "address"
        }
      ],
      "name": "RegisteredLayer2Candidate",
      "type": "event"
    },
    {
      "anonymous": false,
      "inputs": [
        {
          "indexed": true,
          "internalType": "bytes32",
          "name": "role",
          "type": "bytes32"
        },
        {
          "indexed": true,
          "internalType": "bytes32",
          "name": "previousAdminRole",
          "type": "bytes32"
        },
        {
          "indexed": true,
          "internalType": "bytes32",
          "name": "newAdminRole",
          "type": "bytes32"
        }
      ],
      "name": "RoleAdminChanged",
      "type": "event"
    },
    {
      "anonymous": false,
      "inputs": [
        {
          "indexed": true,
          "internalType": "bytes32",
          "name": "role",
          "type": "bytes32"
        },
        {
          "indexed": true,
          "internalType": "address",
          "name": "account",
          "type": "address"
        },
        {
          "indexed": true,
          "internalType": "address",
          "name": "sender",
          "type": "address"
        }
      ],
      "name": "RoleGranted",
      "type": "event"
    },
    {
      "anonymous": false,
      "inputs": [
        {
          "indexed": true,
          "internalType": "bytes32",
          "name": "role",
          "type": "bytes32"
        },
        {
          "indexed": true,
          "internalType": "address",
          "name": "account",
          "type": "address"
        },
        {
          "indexed": true,
          "internalType": "address",
          "name": "sender",
          "type": "address"
        }
      ],
      "name": "RoleRevoked",
      "type": "event"
    },
    {
      "anonymous": false,
      "inputs": [
        {
          "indexed": false,
          "internalType": "address",
          "name": "_l2Register",
          "type": "address"
        },
        {
          "indexed": false,
          "internalType": "address",
          "name": "_operatorFactory",
          "type": "address"
        },
        {
          "indexed": false,
          "internalType": "address",
          "name": "_ton",
          "type": "address"
        },
        {
          "indexed": false,
          "internalType": "address",
          "name": "_wton",
          "type": "address"
        },
        {
          "indexed": false,
          "internalType": "address",
          "name": "_dao",
          "type": "address"
        },
        {
          "indexed": false,
          "internalType": "address",
          "name": "_depositManager",
          "type": "address"
        },
        {
          "indexed": false,
          "internalType": "address",
          "name": "_seigManager",
          "type": "address"
        },
        {
          "indexed": false,
          "internalType": "address",
          "name": "_swapProxy",
          "type": "address"
        }
      ],
      "name": "SetAddresses",
      "type": "event"
    },
    {
      "anonymous": false,
      "inputs": [
        {
          "indexed": false,
          "internalType": "uint256",
          "name": "_minimumInitialDepositAmount",
          "type": "uint256"
        }
      ],
      "name": "SetMinimumInitialDepositAmount",
      "type": "event"
    },
    {
      "anonymous": false,
      "inputs": [
        {
          "indexed": false,
          "internalType": "address",
          "name": "systemConfig",
          "type": "address"
        },
        {
          "indexed": false,
          "internalType": "address",
          "name": "_layer2",
          "type": "address"
        }
      ],
      "name": "UnpausedLayer2Candidate",
      "type": "event"
    },
    {
      "inputs": [],
      "name": "DEFAULT_ADMIN_ROLE",
      "outputs": [
        {
          "internalType": "bytes32",
          "name": "",
          "type": "bytes32"
        }
      ],
      "stateMutability": "view",
      "type": "function"
    },
    {
      "inputs": [],
      "name": "MINTER_ROLE",
      "outputs": [
        {
          "internalType": "bytes32",
          "name": "",
          "type": "bytes32"
        }
      ],
      "stateMutability": "view",
      "type": "function"
    },
    {
      "inputs": [
        {
          "internalType": "address",
          "name": "account",
          "type": "address"
        }
      ],
      "name": "addAdmin",
      "outputs": [],
      "stateMutability": "nonpayable",
      "type": "function"
    },
    {
      "inputs": [
        {
          "internalType": "address",
          "name": "",
          "type": "address"
        }
      ],
      "name": "aliveImplementation",
      "outputs": [
        {
          "internalType": "bool",
          "name": "",
          "type": "bool"
        }
      ],
      "stateMutability": "view",
      "type": "function"
    },
    {
      "inputs": [
        {
          "internalType": "address",
          "name": "_systemConfig",
          "type": "address"
        }
      ],
      "name": "checkL1Bridge",
      "outputs": [
        {
          "internalType": "bool",
          "name": "result",
          "type": "bool"
        },
        {
          "internalType": "address",
          "name": "l1Bridge",
          "type": "address"
        },
        {
          "internalType": "address",
          "name": "portal",
          "type": "address"
        },
        {
          "internalType": "address",
          "name": "l2Ton",
          "type": "address"
        }
      ],
      "stateMutability": "view",
      "type": "function"
    },
    {
      "inputs": [
        {
          "internalType": "address",
          "name": "_systemConfig",
          "type": "address"
        }
      ],
      "name": "checkLayer2TVL",
      "outputs": [
        {
          "internalType": "bool",
          "name": "result",
          "type": "bool"
        },
        {
          "internalType": "uint256",
          "name": "amount",
          "type": "uint256"
        }
      ],
      "stateMutability": "view",
      "type": "function"
    },
    {
      "inputs": [],
      "name": "dao",
      "outputs": [
        {
          "internalType": "address",
          "name": "",
          "type": "address"
        }
      ],
      "stateMutability": "view",
      "type": "function"
    },
    {
      "inputs": [],
      "name": "depositManager",
      "outputs": [
        {
          "internalType": "address",
          "name": "",
          "type": "address"
        }
      ],
      "stateMutability": "view",
      "type": "function"
    },
    {
      "inputs": [
        {
          "internalType": "bytes32",
          "name": "role",
          "type": "bytes32"
        }
      ],
      "name": "getRoleAdmin",
      "outputs": [
        {
          "internalType": "bytes32",
          "name": "",
          "type": "bytes32"
        }
      ],
      "stateMutability": "view",
      "type": "function"
    },
    {
      "inputs": [
        {
          "internalType": "bytes32",
          "name": "role",
          "type": "bytes32"
        },
        {
          "internalType": "address",
          "name": "account",
          "type": "address"
        }
      ],
      "name": "grantRole",
      "outputs": [],
      "stateMutability": "nonpayable",
      "type": "function"
    },
    {
      "inputs": [
        {
          "internalType": "bytes32",
          "name": "role",
          "type": "bytes32"
        },
        {
          "internalType": "address",
          "name": "account",
          "type": "address"
        }
      ],
      "name": "hasRole",
      "outputs": [
        {
          "internalType": "bool",
          "name": "",
          "type": "bool"
        }
      ],
      "stateMutability": "view",
      "type": "function"
    },
    {
      "inputs": [
        {
          "internalType": "address",
          "name": "account",
          "type": "address"
        }
      ],
      "name": "isAdmin",
      "outputs": [
        {
          "internalType": "bool",
          "name": "",
          "type": "bool"
        }
      ],
      "stateMutability": "view",
      "type": "function"
    },
    {
      "inputs": [],
      "name": "isOwner",
      "outputs": [
        {
          "internalType": "bool",
          "name": "",
          "type": "bool"
        }
      ],
      "stateMutability": "view",
      "type": "function"
    },
    {
      "inputs": [
        {
          "internalType": "address",
          "name": "_sys",
          "type": "address"
        }
      ],
      "name": "issueStatusLayer2",
      "outputs": [
        {
          "internalType": "uint8",
          "name": "",
          "type": "uint8"
        }
      ],
      "stateMutability": "view",
      "type": "function"
    },
    {
      "inputs": [],
      "name": "l2Register",
      "outputs": [
        {
          "internalType": "address",
          "name": "",
          "type": "address"
        }
      ],
      "stateMutability": "view",
      "type": "function"
    },
    {
      "inputs": [
        {
          "internalType": "address",
          "name": "_oper",
          "type": "address"
        }
      ],
      "name": "layer2CandidateOfOperator",
      "outputs": [
        {
          "internalType": "address",
          "name": "",
          "type": "address"
        }
      ],
      "stateMutability": "view",
      "type": "function"
    },
    {
      "inputs": [],
      "name": "minimumInitialDepositAmount",
      "outputs": [
        {
          "internalType": "uint256",
          "name": "",
          "type": "uint256"
        }
      ],
      "stateMutability": "view",
      "type": "function"
    },
    {
      "inputs": [
        {
          "internalType": "address",
          "name": "owner",
          "type": "address"
        },
        {
          "internalType": "address",
          "name": "spender",
          "type": "address"
        },
        {
          "internalType": "uint256",
          "name": "amount",
          "type": "uint256"
        },
        {
          "internalType": "bytes",
          "name": "data",
          "type": "bytes"
        }
      ],
      "name": "onApprove",
      "outputs": [
        {
          "internalType": "bool",
          "name": "",
          "type": "bool"
        }
      ],
      "stateMutability": "nonpayable",
      "type": "function"
    },
    {
      "inputs": [],
      "name": "operatorFactory",
      "outputs": [
        {
          "internalType": "address",
          "name": "",
          "type": "address"
        }
      ],
      "stateMutability": "view",
      "type": "function"
    },
    {
      "inputs": [
        {
          "internalType": "address",
          "name": "",
          "type": "address"
        }
      ],
      "name": "operatorInfo",
      "outputs": [
        {
          "internalType": "address",
          "name": "systemConfig",
          "type": "address"
        },
        {
          "internalType": "address",
          "name": "layer2Candidate",
          "type": "address"
        }
      ],
      "stateMutability": "view",
      "type": "function"
    },
    {
      "inputs": [
        {
          "internalType": "address",
          "name": "_sys",
          "type": "address"
        }
      ],
      "name": "operatorOfSystemConfig",
      "outputs": [
        {
          "internalType": "address",
          "name": "",
          "type": "address"
        }
      ],
      "stateMutability": "view",
      "type": "function"
    },
    {
      "inputs": [
        {
          "internalType": "address",
          "name": "systemConfig",
          "type": "address"
        }
      ],
      "name": "pauseLayer2Candidate",
      "outputs": [],
      "stateMutability": "nonpayable",
      "type": "function"
    },
    {
      "inputs": [],
      "name": "pauseProxy",
      "outputs": [
        {
          "internalType": "bool",
          "name": "",
          "type": "bool"
        }
      ],
      "stateMutability": "view",
      "type": "function"
    },
    {
      "inputs": [
        {
          "internalType": "uint256",
          "name": "",
          "type": "uint256"
        }
      ],
      "name": "proxyImplementation",
      "outputs": [
        {
          "internalType": "address",
          "name": "",
          "type": "address"
        }
      ],
      "stateMutability": "view",
      "type": "function"
    },
    {
      "inputs": [
        {
          "internalType": "address",
          "name": "systemConfig",
          "type": "address"
        },
        {
          "internalType": "uint256",
          "name": "amount",
          "type": "uint256"
        },
        {
          "internalType": "bool",
          "name": "flagTon",
          "type": "bool"
        },
        {
          "internalType": "string",
          "name": "memo",
          "type": "string"
        }
      ],
      "name": "registerLayer2Candidate",
      "outputs": [],
      "stateMutability": "nonpayable",
      "type": "function"
    },
    {
      "inputs": [
        {
          "internalType": "address",
          "name": "account",
          "type": "address"
        }
      ],
      "name": "removeAdmin",
      "outputs": [],
      "stateMutability": "nonpayable",
      "type": "function"
    },
    {
      "inputs": [],
      "name": "renounceOwnership",
      "outputs": [],
      "stateMutability": "nonpayable",
      "type": "function"
    },
    {
      "inputs": [
        {
          "internalType": "bytes32",
          "name": "role",
          "type": "bytes32"
        },
        {
          "internalType": "address",
          "name": "account",
          "type": "address"
        }
      ],
      "name": "renounceRole",
      "outputs": [],
      "stateMutability": "nonpayable",
      "type": "function"
    },
    {
      "inputs": [
        {
          "internalType": "bytes32",
          "name": "role",
          "type": "bytes32"
        },
        {
          "internalType": "address",
          "name": "account",
          "type": "address"
        }
      ],
      "name": "revokeRole",
      "outputs": [],
      "stateMutability": "nonpayable",
      "type": "function"
    },
    {
      "inputs": [],
      "name": "seigManager",
      "outputs": [
        {
          "internalType": "address",
          "name": "",
          "type": "address"
        }
      ],
      "stateMutability": "view",
      "type": "function"
    },
    {
      "inputs": [
        {
          "internalType": "bytes4",
          "name": "",
          "type": "bytes4"
        }
      ],
      "name": "selectorImplementation",
      "outputs": [
        {
          "internalType": "address",
          "name": "",
          "type": "address"
        }
      ],
      "stateMutability": "view",
      "type": "function"
    },
    {
      "inputs": [
        {
          "internalType": "address",
          "name": "_l2Register",
          "type": "address"
        },
        {
          "internalType": "address",
          "name": "_operatorFactory",
          "type": "address"
        },
        {
          "internalType": "address",
          "name": "_ton",
          "type": "address"
        },
        {
          "internalType": "address",
          "name": "_wton",
          "type": "address"
        },
        {
          "internalType": "address",
          "name": "_dao",
          "type": "address"
        },
        {
          "internalType": "address",
          "name": "_depositManager",
          "type": "address"
        },
        {
          "internalType": "address",
          "name": "_seigManager",
          "type": "address"
        },
        {
          "internalType": "address",
          "name": "_swapProxy",
          "type": "address"
        }
      ],
      "name": "setAddresses",
      "outputs": [],
      "stateMutability": "nonpayable",
      "type": "function"
    },
    {
      "inputs": [
        {
          "internalType": "uint256",
          "name": "_minimumInitialDepositAmount",
          "type": "uint256"
        }
      ],
      "name": "setMinimumInitialDepositAmount",
      "outputs": [],
      "stateMutability": "nonpayable",
      "type": "function"
    },
    {
      "inputs": [
        {
          "internalType": "bytes4",
          "name": "interfaceId",
          "type": "bytes4"
        }
      ],
      "name": "supportsInterface",
      "outputs": [
        {
          "internalType": "bool",
          "name": "",
          "type": "bool"
        }
      ],
      "stateMutability": "view",
      "type": "function"
    },
    {
      "inputs": [],
      "name": "swapProxy",
      "outputs": [
        {
          "internalType": "address",
          "name": "",
          "type": "address"
        }
      ],
      "stateMutability": "view",
      "type": "function"
    },
    {
      "inputs": [
        {
          "internalType": "address",
          "name": "",
          "type": "address"
        }
      ],
      "name": "systemConfigInfo",
      "outputs": [
        {
          "internalType": "uint8",
          "name": "stateIssue",
          "type": "uint8"
        },
        {
          "internalType": "address",
          "name": "operator",
          "type": "address"
        }
      ],
      "stateMutability": "view",
      "type": "function"
    },
    {
      "inputs": [
        {
          "internalType": "address",
          "name": "_oper",
          "type": "address"
        }
      ],
      "name": "systemConfigOfOperator",
      "outputs": [
        {
          "internalType": "address",
          "name": "",
          "type": "address"
        }
      ],
      "stateMutability": "view",
      "type": "function"
    },
    {
      "inputs": [],
      "name": "ton",
      "outputs": [
        {
          "internalType": "address",
          "name": "",
          "type": "address"
        }
      ],
      "stateMutability": "view",
      "type": "function"
    },
    {
      "inputs": [
        {
          "internalType": "address",
          "name": "newAdmin",
          "type": "address"
        }
      ],
      "name": "transferAdmin",
      "outputs": [],
      "stateMutability": "nonpayable",
      "type": "function"
    },
    {
      "inputs": [
        {
          "internalType": "address",
          "name": "newAdmin",
          "type": "address"
        }
      ],
      "name": "transferOwnership",
      "outputs": [],
      "stateMutability": "nonpayable",
      "type": "function"
    },
    {
      "inputs": [
        {
          "internalType": "address",
          "name": "systemConfig",
          "type": "address"
        }
      ],
      "name": "unpauseLayer2Cnadidate",
      "outputs": [],
      "stateMutability": "nonpayable",
      "type": "function"
    },
    {
      "inputs": [
        {
          "internalType": "address",
          "name": "systemConfig",
          "type": "address"
        },
        {
          "internalType": "uint256",
          "name": "amount",
          "type": "uint256"
        }
      ],
      "name": "updateSeigniorage",
      "outputs": [],
      "stateMutability": "nonpayable",
      "type": "function"
    },
    {
      "inputs": [],
      "name": "wton",
      "outputs": [
        {
          "internalType": "address",
          "name": "",
          "type": "address"
        }
      ],
      "stateMutability": "view",
      "type": "function"
    }
  ],
  "bytecode": "0x60808060405234610016576128c2908161001c8239f35b600080fdfe608060408181526004908136101561001657600080fd5b600092833560e01c90816301ffc9a71461197d575080630eaad69814611937578063153e6d7f146118fb5780631785f53c146118cd578063248a9ca3146118a257806324d7806c1461185c57806327f1470d146115835780632f2ff15d146114d657806336568abe146114445780634162169f1461141b5780634273ca16146110d15780634318dc1d14611039578063472d1f711461101057806350c246d614610fa957806350d2a27614610f655780635290c24814610f3c578063550d01a314610efe57806358bf884f14610cc15780635bb96f8314610b4057806362f47f2b14610a3757806363a8fd8914610a155780636c7ac9d8146109ec5780636ec4be90146109c35780636fb7f5581461099a57806370480275146108e5578063715018a6146108bf57806375829def146108a457806389c0db621461086f5780638d62d949146108465780638f32d59b1461081357806391d14854146107cc578063a1efe92014610791578063a217fddf14610776578063b17dba1b14610737578063b911135f14610704578063c5f16b89146105cd578063cc48b947146105a4578063d539139314610569578063d547741f1461052f57838163d733cfd0146103bc57508063e9d6ec4f1461039d578063ef6cf6521461035b5763f2fde38b146101ff57600080fd5b346103575760208060031936011261035357610219611a02565b61022a61022533611a61565b611fd6565b61023661022533611a61565b6001600160a01b0316928315610312578333146102d857508380526005815261026460018386200154611a9e565b83805260058152818420838552815260ff82852054161561028d575b8361028a33611e4a565b80f35b8380526005815281842083855290528220805460ff191660011790553390827f2f8788117e7eff1d82e926ec794901d17c78024a50270940304540a733656f0d8180a4388080610280565b915162461bcd60e51b815291820152601660248201527520b1b1b2b9b9b4b136329d1039b0b6b29030b236b4b760511b6044820152606490fd5b915162461bcd60e51b815291820152601860248201527f41636365737369626c653a207a65726f206164647265737300000000000000006044820152606490fd5b8380fd5b8280fd5b838234610399576020366003190112610399576020916001600160a01b0390829082610385611a02565b168152600f8552205460081c169051908152f35b5080fd5b838234610399578160031936011261039957602090600e549051908152f35b80833461052c576101009081600319360112610528576103da611a02565b6103e2611a1d565b6001600160a01b03926044358481169081900361052457606435858116809103610520576084359186831680930361051c5760a435938785168095036105185760c435958887168097036105145760e435978989168099036105105789899161048360ff7f617f1cba5d7b9d5d3c81f0d5c78720ec2be227878bac84c0851b70e4cf61cb089f80808992526005602052818120338252602052205416611fd6565b16996bffffffffffffffffffffffff60a01b928b84600654161760065516918281600754161760075584816008541617600855858160095416176009558681600a541617600a558781600b541617600b558881600c541617600c55600d541617600d55815198895260208901528701526060860152608085015260a084015260c083015260e0820152a180f35b8b80fd5b8a80fd5b8980fd5b8880fd5b8780fd5b8680fd5b5050fd5b50fd5b503461035757806003193601126103575761028a91356105646001610552611a1d565b93838752600560205286200154611a9e565b611f39565b838234610399578160031936011261039957602090517ff0887ba65ee2024ea881d91b74c2450ef19e1557f03bed3ea9f16b037cbe2dc98152f35b83823461039957816003193601126103995760085490516001600160a01b039091168152602090f35b50346103575780600319360112610357576105e6611a02565b600c546001600160a01b0390811633036106c1578491818084936009541692168352600f6020528483205460081c16828551602081019263a9059cbb60e01b8452602482015260243560448201526044815261064181611e0c565b51925af161064d6120ab565b81610692575b501561065d578280f35b906020606492519162461bcd60e51b8352820152600f60248201526e1514905394d1915497d19052531151608a1b6044820152fd5b80518015925082156106a7575b505038610653565b6106ba9250602080918301019101612403565b388061069f565b825162461bcd60e51b8152602081860152601b60248201527f73656e646572206973206e6f74206120536569674d616e6167657200000000006044820152606490fd5b5090346103575760203660031901126103575735825260016020908152918190205490516001600160a01b039091168152f35b838234610399576020366003190112610399576020916001600160a01b0390600190839083610764611a02565b16815260108652200154169051908152f35b83823461039957816003193601126103995751908152602090f35b838234610399576020366003190112610399576020916001600160a01b03908290826107bb611a02565b168152601085522054169051908152f35b5090346103575781600319360112610357578160209360ff926107ed611a1d565b90358252600586528282206001600160a01b039091168252855220549151911615158152f35b83823461039957816003193601126103995760ff8183806020955260058552818120338252855220541690519015158152f35b83823461039957816003193601126103995760095490516001600160a01b039091168152602090f35b5082346108a15760203660031901126108a1575061089361088e611a02565b612145565b825191151582526020820152f35b80fd5b5034610357576020806003193601126103535761022a611a02565b83346108a157806003193601126108a1576108dc61022533611a61565b61028a33611e4a565b838234610399576020908160031936011261035757610902611a02565b9161090f61022533611a61565b8380526005815261092560018386200154611a9e565b838052600581528184206001600160a01b039093168085529281528184205460ff1615610950578380f35b8380526005815281842083855290528220805460ff191660011790553390827f2f8788117e7eff1d82e926ec794901d17c78024a50270940304540a733656f0d8180a48180808380f35b838234610399578160031936011261039957600c5490516001600160a01b039091168152602090f35b838234610399578160031936011261039957600d5490516001600160a01b039091168152602090f35b838234610399578160031936011261039957600b5490516001600160a01b039091168152602090f35b83823461039957816003193601126103995760ff602092541690519015158152f35b503461035757602036600319011261035757610a51611a02565b6006546001600160a01b0390610a6a908216331461202d565b60115493610a7b60ff861615612079565b600160ff1980961617601155818316808752600f602052848720916002865193610aa485611dda565b549385602060ff871692838152019560081c16855203610b3257508652600f6020908152848720805487166001908117909155915183168752601081528487209091015493516001600160a01b03938416815293909116909116908201527ffb0b61949aee7eab954246b76cca582fbeb86e22b6cb648d2883fb4f28ca2b2090604090a16011541660115580f35b855163c84d787560e01b8152fd5b509034610357576020918260031936011261035357610b5d611a02565b6006546001600160a01b03949190610b78908616331461202d565b60115494610b8960ff871615612079565b600160ff1980971617601155808216808852600f84528488206001865191610bb083611dda565b5491848760ff851692838152019360081c16835203610cb15790827fe0e8cd56dca38c840201a7fa0031a9d5914368b44ddd5f3a9758a5bb010c3670925116895260108552826001878b20015416938491610c0a83612123565b8a52600f8652868a2080548a16600217905586516001600160a01b03918216815291166020820152604090a1600c541691835190810191634a39e57f60e11b83526024820152602481526060810181811067ffffffffffffffff821117610c9e57845251869283929083905af1610c7f6120ab565b5015610c915750506011541660115580f35b516316a6ca0960e21b8152fd5b634e487b7160e01b885260418652602488fd5b855163c84d787560e01b81528790fd5b5082346108a1576020918260031936011261039957610cde611a02565b918093819082918360018060a01b039889958487600654169960248a51809e81936378da9c5960e11b8352169c8d878301525afa9a8b15610e7f57839b610ecf575b50875163078f29cf60e01b81529a858c84818d5afa809c859d610eb0575b50610e06575060809a508690610d526120ab565b505b169773deaddeaddeaddeaddeaddeaddeaddeaddead00008914610d8e575b5050855197151588525083169086015216908301526060820152f35b8490889a93949a5192838092630a49cb0360e01b82525afa839181610dd7575b50610dca5750508390610dbf6120ab565b50965b908980610d72565b9097935084915092610dc2565b610df8919250853d8711610dff575b610df08183611e28565b810190612104565b908b610dae565b503d610de6565b878c16610e1a575b5060809a508690610d54565b60ff1660018103610e89575050865163bce5c11f60e01b815299848b83818c5afa8015610e7f5760809b8491610e62575b50905b87821615610e0e5760019a50935086610e0e565b610e799150863d8811610dff57610df08183611e28565b8c610e4b565b88513d85823e3d90fd5b9a600260809c03610e4e5773deaddeaddeaddeaddeaddeaddeaddeaddead00009150610e4e565b610ec8919d50873d8911610dff57610df08183611e28565b9b8d610d3e565b610ef0919b50853d8711610ef7575b610ee88183611e28565b8101906120eb565b998b610d20565b503d610ede565b8382346103995760203660031901126103995760209160ff9082906001600160a01b03610f29611a02565b1681526002855220541690519015158152f35b83823461039957816003193601126103995760075490516001600160a01b039091168152602090f35b509034610357576020366003190112610357573563ffffffff60e01b811680910361035757825260036020908152918190205490516001600160a01b039091168152f35b5082346108a15760203660031901126108a1576001600160a01b039061100c90839083610fd4611a02565b168152601060205220916001818454169301541692519283928390602090939293604083019460018060a01b03809216845216910152565b0390f35b83823461039957816003193601126103995760065490516001600160a01b039091168152602090f35b503461035757602036600319011261035757813591838052600560205281842033855260205261106e60ff8386205416611fd6565b82600e54146110a95750816020917f50e01964a144ee7e40d80d0792ff2641558654ef906fd81502421f22bf6ca92c93600e5551908152a180f35b606491519062461bcd60e51b825260208183015260248201526373616d6560e01b6044820152fd5b50829034610399576080366003190112610399576110ed611a02565b6110f5611a1d565b9260443560643567ffffffffffffffff8111610357576111189036908801611a33565b600854336001600160a01b03918216149791949188158061140d575b6113f65781309116036113df5760148511156113c8576014833560601c930194601319019561116284612123565b838352602098600f8a52828985205460081c166113b15761118285612145565b501561139a5715611350578160095416916008541690600e54861061133957856111ae913090846127dc565b8751636eb1769f60e11b815230818c019081526001600160a01b03841660208201528a90829081906040010381855afa90811561132f5790869185916112fe575b50106112b2575b50878460248b858b51958694859363e34869d760e01b85528401525af19081156112a857829161127b575b501561126457633b9aca0092838102938185041490151715611251575061124a9495965061243c565b5160018152f35b634e487b7160e01b815260118852602490fd5b855163472ed10360e01b81526007818a0152602490fd5b61129b9150883d8a116112a1575b6112938183611e28565b810190612403565b89611221565b503d611289565b87513d84823e3d90fd5b888260448c868c51958694859363095ea7b360e01b855284015260001960248401525af18015610e7f57156111f6576112f790893d8b116112a1576112938183611e28565b50896111f6565b8092508b8092503d8311611328575b6113178183611e28565b81010312610353578590518c6111ef565b503d61130d565b89513d86823e3d90fd5b885163472ed10360e01b81526006818d0152602490fd5b91506009541697600e54633b9aca0085041061138357508261137e9697986113799230916127dc565b61243c565b61124a565b602490600688519163472ed10360e01b8352820152fd5b885163472ed10360e01b81526005818d0152602490fd5b885163472ed10360e01b8152808c018c9052602490fd5b86516350f1c44960e11b81526003818b0152602490fd5b86516350f1c44960e11b81526002818b0152602490fd5b87516350f1c44960e11b81526001818c0152602490fd5b508160095416331415611134565b838234610399578160031936011261039957600a5490516001600160a01b039091168152602090f35b5091903461039957826003193601126103995761145f611a1d565b90336001600160a01b0383160361147b579061028a9135611f39565b608490602085519162461bcd60e51b8352820152602f60248201527f416363657373436f6e74726f6c3a2063616e206f6e6c792072656e6f756e636560448201526e103937b632b9903337b91039b2b63360891b6064820152fd5b50903461035757816003193601126103575735906114f2611a1d565b90828452600560205261150a60018286200154611a9e565b828452600560209081528185206001600160a01b039093168086529290528084205460ff1615611538578380f35b82845260056020528084208285526020528320600160ff1982541617905533917f2f8788117e7eff1d82e926ec794901d17c78024a50270940304540a733656f0d8480a43880808380f35b508290346103995760803660031901126103995761159f611a02565b6024936044359185359183151584036118585760643567ffffffffffffffff8111610524576115d19036908301611a33565b9590946115dd84612123565b861561184a576001600160a01b038481168952600f6020908152838a20549092919060081c81166118345761161186612145565b501561181e57600954811691156117e05760085416600e5487106117ca5761163b873033846127dc565b8351636eb1769f60e11b8152308682019081526001600160a01b03841660208201528490829081906040010381855afa9081156117c057918885928d94859161178b575b5010611728575b5090918b85518094819363e34869d760e01b83528b8a8401525af191821561171e578992611701575b5050156116eb5750633b9aca00928381029381850414901517156116d9575061028a94955061243c565b634e487b7160e01b8652601190528585fd5b9060078892519163472ed10360e01b8352820152fd5b6117179250803d106112a1576112938183611e28565b89806116af565b83513d8b823e3d90fd5b855163095ea7b360e01b8152878101859052600019818f015292839160449183915af18015611781579183918b93611764575b92919092611686565b61177a90833d85116112a1576112938183611e28565b508c61175b565b84513d8c823e3d90fd5b93929450505081813d83116117b9575b6117a58183611e28565b81010312610514578a91888592518f61167f565b503d61179b565b85513d8d823e3d90fd5b835163472ed10360e01b81526006818701528b90fd5b509892919050600e54633b9aca0086041061180a575050506113798261028a9697309033906127dc565b600690519163472ed10360e01b8352820152fd5b835163472ed10360e01b81526005818701528b90fd5b835163472ed10360e01b81528086018690528b90fd5b505163111dc0fd60e31b8152fd5b8580fd5b8382346103995760203660031901126103995760ff8160209361187d611a02565b818052600586528282206001600160a01b039091168252855220549151911615158152f35b5090346103575760203660031901126103575781602093600192358152600585522001549051908152f35b83346108a15760203660031901126108a15761028a6118ea611a02565b6118f661022533611a61565b611e4a565b8382346103995760203660031901126103995760209160ff9082906001600160a01b03611926611a02565b168152600f85522054169051908152f35b5082346108a15760203660031901126108a1576001600160a01b039082908261195e611a02565b168152600f60205220549082519160ff8116835260081c166020820152f35b92919050346103535760203660031901126103535781359063ffffffff60e01b82168092036119fe57602094637965db0b60e01b83149384156119c5575b5050505015158152f35b6301ffc9a760e01b84149450919290919084156119ea575b50505050388080806119bb565b60ff945082528552205416388080806119dd565b8480fd5b600435906001600160a01b0382168203611a1857565b600080fd5b602435906001600160a01b0382168203611a1857565b9181601f84011215611a185782359167ffffffffffffffff8311611a185760208381860195010111611a1857565b6001600160a01b031660009081527f05b8ccbb9d4d8fb16ea74ce3c29a41f1b461fbdaff4714a0d9a8eb05499746bc602052604090205460ff1690565b60009080825260209060058252604090818420338552835260ff828520541615611ac85750505050565b815193336060860167ffffffffffffffff811187821017611da3578452602a86528486019284368537865115611cbb5760308453865191600192831015611d8f576078602189015360295b838111611d255750611ce357845191611b2b83611e0c565b60428352868301936060368637835115611ccf57603085538351821015611ccf5790607860218501536041915b818311611c6157505050611c1f5792611bed6048611bde9794611c11946044989785519a8b93611bb58b86019a7f416363657373436f6e74726f6c3a206163636f756e74200000000000000000008c525180926037880190611db7565b8401917001034b99036b4b9b9b4b733903937b6329607d1b603784015251809386840190611db7565b01036028810189520187611e28565b5194859362461bcd60e51b8552600485015251809281602486015285850190611db7565b601f01601f19168101030190fd5b60648585519062461bcd60e51b825280600483015260248201527f537472696e67733a20686578206c656e67746820696e73756666696369656e746044820152fd5b909192600f81166010811015611cbb576f181899199a1a9b1b9c1cb0b131b232b360811b901a611c918587611faf565b5360041c928015611ca757600019019190611b58565b634e487b7160e01b82526011600452602482fd5b634e487b7160e01b83526032600452602483fd5b634e487b7160e01b81526032600452602490fd5b60648686519062461bcd60e51b825280600483015260248201527f537472696e67733a20686578206c656e67746820696e73756666696369656e746044820152fd5b90600f81166010811015611d7b576f181899199a1a9b1b9c1cb0b131b232b360811b901a611d53838b611faf565b5360041c908015611d675760001901611b13565b634e487b7160e01b85526011600452602485fd5b634e487b7160e01b86526032600452602486fd5b634e487b7160e01b84526032600452602484fd5b634e487b7160e01b83526041600452602483fd5b60005b838110611dca5750506000910152565b8181015183820152602001611dba565b6040810190811067ffffffffffffffff821117611df657604052565b634e487b7160e01b600052604160045260246000fd5b6080810190811067ffffffffffffffff821117611df657604052565b90601f8019910116810190811067ffffffffffffffff821117611df657604052565b6001600160a01b0316338103611edc5760008181527f05b8ccbb9d4d8fb16ea74ce3c29a41f1b461fbdaff4714a0d9a8eb05499746bc602052604081205490919060ff16611e96575050565b8180526005602052604082208183526020526040822060ff19815416905533917ff6391f5c32d9c69d2a47ea670b442974b53935d1edc7fd64eb21e047a839171b8180a4565b60405162461bcd60e51b815260206004820152602f60248201527f416363657373436f6e74726f6c3a2063616e206f6e6c792072656e6f756e636560448201526e103937b632b9903337b91039b2b63360891b6064820152608490fd5b906000918083526005602052604083209160018060a01b03169182845260205260ff604084205416611f6a57505050565b8083526005602052604083208284526020526040832060ff1981541690557ff6391f5c32d9c69d2a47ea670b442974b53935d1edc7fd64eb21e047a839171b339380a4565b908151811015611fc0570160200190565b634e487b7160e01b600052603260045260246000fd5b15611fdd57565b60405162461bcd60e51b815260206004820152602260248201527f41636365737369626c653a2043616c6c6572206973206e6f7420616e2061646d60448201526134b760f11b6064820152608490fd5b1561203457565b60405162461bcd60e51b815260206004820152601a60248201527f73656e646572206973206e6f742061206c3252656769737465720000000000006044820152606490fd5b1561208057565b606460405162461bcd60e51b81526020600482015260046024820152636c6f636b60e01b6044820152fd5b3d156120e6573d9067ffffffffffffffff8211611df657604051916120da601f8201601f191660200184611e28565b82523d6000602084013e565b606090565b90816020910312611a18575160ff81168103611a185790565b90816020910312611a1857516001600160a01b0381168103611a185790565b6001600160a01b03161561213357565b604051633efa09af60e01b8152600490fd5b600654604080516378da9c5960e11b81526001600160a01b0393841660048083018290526000968796909587946020949185908290602490829087165afa9081156122d0579060ff9187916123e6575b5016600181036122f95750855163078f29cf60e01b815284818581855afa8691816122da575b506121d257505050505050506121cf6120ab565b50565b821691826121e4575b50505050505050565b84849288519586809263bce5c11f60e01b82525afa9384156122d05786946122b1575b50808416156121db5760085487516347b00fb360e11b81526001600160a01b03929091168216928101928352931660208201529597509395509391929091829185918290819060400103915afa9384156122a657508193612275575b505050600191388080808080806121db565b9091809350813d831161229f575b61228d8183611e28565b810103126108a1575051388080612263565b503d612283565b51913d9150823e3d90fd5b6122c9919450853d8711610dff57610df08183611e28565b9238612207565b87513d88823e3d90fd5b6122f2919250863d8811610dff57610df08183611e28565b90386121bb565b9294939260021461230d575b505050505050565b828591875192838092630a49cb0360e01b82525afa8491816123c7575b5061234a5750505050505061233d6120ab565b505b388080808080612305565b168061235b575b505050505061233f565b909294965083839294965051948580926307404d9360e21b82525afa9384156122a657508193612396575b5050506001913880808080612351565b9091809350813d83116123c0575b6123ae8183611e28565b810103126108a1575051388080612386565b503d6123a4565b6123df919250843d8611610dff57610df08183611e28565b903861232a565b6123fd9150863d8811610ef757610ee88183611e28565b38612195565b90816020910312611a1857518015158103611a185790565b908060209392818452848401376000828201840152601f01601f1916010190565b9060018060a01b03928360075416926040948086519263f6ae6f1360e01b84521696600497808985015260209485856024816000809c5af19485156127d25788956127b3575b508385169081895260108752848a8a20541661279c579084939291878c8c97600a541688519889926304d0bde760e11b8452830152818d816124c8604482018b8961241b565b88602483015203925af1958615612792579088918b97612773575b508a8c87808251926124f484611dda565b88845286840194828d16978887528982526010905220925116916bffffffffffffffffffffffff60a01b9283825416178155600101925116908254161790558b5161253e81611dda565b60018152898101848152858d52600f8b528d8d20915160ff16825491600160a81b6101009003905160081b16916affffffffffffffffffffff60a81b16171790558b5194859485528a8a8601528c850160a0905260a08501906125a09261241b565b9160608401526080830152037f1526ff0a0299f7312457e24a4af3d354afc4d51a22017cc0bb86b8c9fed6624091a1600954600b548851636eb1769f60e11b8152308b82019081526001600160a01b039285169283166020820152928416928790829081906040010381865afa908115612769578796959493929189918b9161272d575b50106126c7575b5050600b548851638340f54960e01b81526001600160a01b039384168b82019081529490931660208501526040840196909652909485928390036060019183918891165af19283156126bc579261269f575b505015612688575050565b906003602492519163472ed10360e01b8352820152fd5b6126b59250803d106112a1576112938183611e28565b388061267d565b8451903d90823e3d90fd5b60448b8a8c98949596979851958694859363095ea7b360e01b855284015260001960248401525af1801561272357908594939291612706575b8061262b565b61271c90853d87116112a1576112938183611e28565b5038612700565b88513d89823e3d90fd5b9293949596978092508391503d8311612762575b61274b8183611e28565b8101031261051c5790878796959493925138612624565b503d612741565b8a513d8b823e3d90fd5b61278b919750823d8411610dff57610df08183611e28565b95386124e3565b8b513d8c823e3d90fd5b895163472ed10360e01b81526002818d0152602490fd5b6127cb919550863d8811610dff57610df08183611e28565b9338612482565b89513d8a823e3d90fd5b6040516323b872dd60e01b602082019081526001600160a01b039384166024830152939092166044830152606480830194909452928152600092839290918390612827608482611e28565b51926001600160a01b03165af161283c6120ab565b81612886575b501561284a57565b60405162461bcd60e51b81526020600482015260146024820152731514905394d1915497d19493d357d1905253115160621b6044820152606490fd5b805180159250821561289b575b505038612842565b6128ae9250602080918301019101612403565b388061289356fea164736f6c6343000812000a",
  "linkReferences": {},
  "deployedLinkReferences": {}
}