{
  "_format": "hh-sol-artifact-1",
  "contractName": "Layer2ManagerV1_1",
  "sourceName": "contracts/layer2/Layer2ManagerV1_1.sol",
  "abi": [
    {
      "inputs": [],
      "stateMutability": "nonpayable",
      "type": "constructor"
    },
    {
      "anonymous": false,
      "inputs": [
        {
          "indexed": false,
          "internalType": "address",
          "name": "systemConfig",
          "type": "address"
        },
        {
          "indexed": false,
          "internalType": "uint256",
          "name": "wtonAmount",
          "type": "uint256"
        },
        {
          "indexed": false,
          "internalType": "string",
          "name": "memo",
          "type": "string"
        },
        {
          "indexed": false,
          "internalType": "address",
          "name": "operator",
          "type": "address"
        },
        {
          "indexed": false,
          "internalType": "address",
          "name": "layer2Candidate",
          "type": "address"
        }
      ],
      "name": "RegisteredLayer2Candidate",
      "type": "event"
    },
    {
      "anonymous": false,
      "inputs": [
        {
          "indexed": true,
          "internalType": "bytes32",
          "name": "role",
          "type": "bytes32"
        },
        {
          "indexed": true,
          "internalType": "bytes32",
          "name": "previousAdminRole",
          "type": "bytes32"
        },
        {
          "indexed": true,
          "internalType": "bytes32",
          "name": "newAdminRole",
          "type": "bytes32"
        }
      ],
      "name": "RoleAdminChanged",
      "type": "event"
    },
    {
      "anonymous": false,
      "inputs": [
        {
          "indexed": true,
          "internalType": "bytes32",
          "name": "role",
          "type": "bytes32"
        },
        {
          "indexed": true,
          "internalType": "address",
          "name": "account",
          "type": "address"
        },
        {
          "indexed": true,
          "internalType": "address",
          "name": "sender",
          "type": "address"
        }
      ],
      "name": "RoleGranted",
      "type": "event"
    },
    {
      "anonymous": false,
      "inputs": [
        {
          "indexed": true,
          "internalType": "bytes32",
          "name": "role",
          "type": "bytes32"
        },
        {
          "indexed": true,
          "internalType": "address",
          "name": "account",
          "type": "address"
        },
        {
          "indexed": true,
          "internalType": "address",
          "name": "sender",
          "type": "address"
        }
      ],
      "name": "RoleRevoked",
      "type": "event"
    },
    {
      "anonymous": false,
      "inputs": [
        {
          "indexed": false,
          "internalType": "address",
          "name": "_l2Register",
          "type": "address"
        },
        {
          "indexed": false,
          "internalType": "address",
          "name": "_operatorFactory",
          "type": "address"
        },
        {
          "indexed": false,
          "internalType": "address",
          "name": "_ton",
          "type": "address"
        },
        {
          "indexed": false,
          "internalType": "address",
          "name": "_wton",
          "type": "address"
        },
        {
          "indexed": false,
          "internalType": "address",
          "name": "_dao",
          "type": "address"
        },
        {
          "indexed": false,
          "internalType": "address",
          "name": "_depositManager",
          "type": "address"
        },
        {
          "indexed": false,
          "internalType": "address",
          "name": "_seigManager",
          "type": "address"
        },
        {
          "indexed": false,
          "internalType": "address",
          "name": "_swapProxy",
          "type": "address"
        }
      ],
      "name": "SetAddresses",
      "type": "event"
    },
    {
      "anonymous": false,
      "inputs": [
        {
          "indexed": false,
          "internalType": "uint256",
          "name": "_minimumInitialDepositAmount",
          "type": "uint256"
        }
      ],
      "name": "SetMinimumInitialDepositAmount",
      "type": "event"
    },
    {
      "inputs": [],
      "name": "DEFAULT_ADMIN_ROLE",
      "outputs": [
        {
          "internalType": "bytes32",
          "name": "",
          "type": "bytes32"
        }
      ],
      "stateMutability": "view",
      "type": "function"
    },
    {
      "inputs": [],
      "name": "MINTER_ROLE",
      "outputs": [
        {
          "internalType": "bytes32",
          "name": "",
          "type": "bytes32"
        }
      ],
      "stateMutability": "view",
      "type": "function"
    },
    {
      "inputs": [
        {
          "internalType": "address",
          "name": "account",
          "type": "address"
        }
      ],
      "name": "addAdmin",
      "outputs": [],
      "stateMutability": "nonpayable",
      "type": "function"
    },
    {
      "inputs": [
        {
          "internalType": "address",
          "name": "",
          "type": "address"
        }
      ],
      "name": "aliveImplementation",
      "outputs": [
        {
          "internalType": "bool",
          "name": "",
          "type": "bool"
        }
      ],
      "stateMutability": "view",
      "type": "function"
    },
    {
      "inputs": [
        {
          "internalType": "address",
          "name": "_systemConfig",
          "type": "address"
        }
      ],
      "name": "checkL1Bridge",
      "outputs": [
        {
          "internalType": "bool",
          "name": "result",
          "type": "bool"
        },
        {
          "internalType": "address",
          "name": "l1Bridge",
          "type": "address"
        },
        {
          "internalType": "address",
          "name": "l2Ton",
          "type": "address"
        }
      ],
      "stateMutability": "view",
      "type": "function"
    },
    {
      "inputs": [
        {
          "internalType": "address",
          "name": "_systemConfig",
          "type": "address"
        }
      ],
      "name": "checkLayer2TVL",
      "outputs": [
        {
          "internalType": "bool",
          "name": "result",
          "type": "bool"
        },
        {
          "internalType": "uint256",
          "name": "amount",
          "type": "uint256"
        }
      ],
      "stateMutability": "view",
      "type": "function"
    },
    {
      "inputs": [],
      "name": "dao",
      "outputs": [
        {
          "internalType": "address",
          "name": "",
          "type": "address"
        }
      ],
      "stateMutability": "view",
      "type": "function"
    },
    {
      "inputs": [],
      "name": "depositManager",
      "outputs": [
        {
          "internalType": "address",
          "name": "",
          "type": "address"
        }
      ],
      "stateMutability": "view",
      "type": "function"
    },
    {
      "inputs": [
        {
          "internalType": "bytes32",
          "name": "role",
          "type": "bytes32"
        }
      ],
      "name": "getRoleAdmin",
      "outputs": [
        {
          "internalType": "bytes32",
          "name": "",
          "type": "bytes32"
        }
      ],
      "stateMutability": "view",
      "type": "function"
    },
    {
      "inputs": [
        {
          "internalType": "bytes32",
          "name": "role",
          "type": "bytes32"
        },
        {
          "internalType": "address",
          "name": "account",
          "type": "address"
        }
      ],
      "name": "grantRole",
      "outputs": [],
      "stateMutability": "nonpayable",
      "type": "function"
    },
    {
      "inputs": [
        {
          "internalType": "bytes32",
          "name": "role",
          "type": "bytes32"
        },
        {
          "internalType": "address",
          "name": "account",
          "type": "address"
        }
      ],
      "name": "hasRole",
      "outputs": [
        {
          "internalType": "bool",
          "name": "",
          "type": "bool"
        }
      ],
      "stateMutability": "view",
      "type": "function"
    },
    {
      "inputs": [
        {
          "internalType": "address",
          "name": "account",
          "type": "address"
        }
      ],
      "name": "isAdmin",
      "outputs": [
        {
          "internalType": "bool",
          "name": "",
          "type": "bool"
        }
      ],
      "stateMutability": "view",
      "type": "function"
    },
    {
      "inputs": [],
      "name": "isOwner",
      "outputs": [
        {
          "internalType": "bool",
          "name": "",
          "type": "bool"
        }
      ],
      "stateMutability": "view",
      "type": "function"
    },
    {
      "inputs": [
        {
          "internalType": "address",
          "name": "",
          "type": "address"
        }
      ],
      "name": "issueStatusLayer2",
      "outputs": [
        {
          "internalType": "uint8",
          "name": "",
          "type": "uint8"
        }
      ],
      "stateMutability": "view",
      "type": "function"
    },
    {
      "inputs": [],
      "name": "l2Register",
      "outputs": [
        {
          "internalType": "address",
          "name": "",
          "type": "address"
        }
      ],
      "stateMutability": "view",
      "type": "function"
    },
    {
      "inputs": [
        {
          "internalType": "address",
          "name": "",
          "type": "address"
        }
      ],
      "name": "layer2CandidateOfOperator",
      "outputs": [
        {
          "internalType": "address",
          "name": "",
          "type": "address"
        }
      ],
      "stateMutability": "view",
      "type": "function"
    },
    {
      "inputs": [],
      "name": "minimumInitialDepositAmount",
      "outputs": [
        {
          "internalType": "uint256",
          "name": "",
          "type": "uint256"
        }
      ],
      "stateMutability": "view",
      "type": "function"
    },
    {
      "inputs": [
        {
          "internalType": "address",
          "name": "owner",
          "type": "address"
        },
        {
          "internalType": "address",
          "name": "spender",
          "type": "address"
        },
        {
          "internalType": "uint256",
          "name": "amount",
          "type": "uint256"
        },
        {
          "internalType": "bytes",
          "name": "data",
          "type": "bytes"
        }
      ],
      "name": "onApprove",
      "outputs": [
        {
          "internalType": "bool",
          "name": "",
          "type": "bool"
        }
      ],
      "stateMutability": "nonpayable",
      "type": "function"
    },
    {
      "inputs": [],
      "name": "operatorFactory",
      "outputs": [
        {
          "internalType": "address",
          "name": "",
          "type": "address"
        }
      ],
      "stateMutability": "view",
      "type": "function"
    },
    {
      "inputs": [
        {
          "internalType": "address",
          "name": "",
          "type": "address"
        }
      ],
      "name": "operatorOfSystemConfig",
      "outputs": [
        {
          "internalType": "address",
          "name": "",
          "type": "address"
        }
      ],
      "stateMutability": "view",
      "type": "function"
    },
    {
      "inputs": [],
      "name": "pauseProxy",
      "outputs": [
        {
          "internalType": "bool",
          "name": "",
          "type": "bool"
        }
      ],
      "stateMutability": "view",
      "type": "function"
    },
    {
      "inputs": [
        {
          "internalType": "uint256",
          "name": "",
          "type": "uint256"
        }
      ],
      "name": "proxyImplementation",
      "outputs": [
        {
          "internalType": "address",
          "name": "",
          "type": "address"
        }
      ],
      "stateMutability": "view",
      "type": "function"
    },
    {
      "inputs": [
        {
          "internalType": "address",
          "name": "systemConfig",
          "type": "address"
        },
        {
          "internalType": "uint256",
          "name": "amount",
          "type": "uint256"
        },
        {
          "internalType": "bool",
          "name": "flagTon",
          "type": "bool"
        },
        {
          "internalType": "string",
          "name": "memo",
          "type": "string"
        }
      ],
      "name": "registerLayer2Candidate",
      "outputs": [],
      "stateMutability": "nonpayable",
      "type": "function"
    },
    {
      "inputs": [
        {
          "internalType": "address",
          "name": "account",
          "type": "address"
        }
      ],
      "name": "removeAdmin",
      "outputs": [],
      "stateMutability": "nonpayable",
      "type": "function"
    },
    {
      "inputs": [],
      "name": "renounceOwnership",
      "outputs": [],
      "stateMutability": "nonpayable",
      "type": "function"
    },
    {
      "inputs": [
        {
          "internalType": "bytes32",
          "name": "role",
          "type": "bytes32"
        },
        {
          "internalType": "address",
          "name": "account",
          "type": "address"
        }
      ],
      "name": "renounceRole",
      "outputs": [],
      "stateMutability": "nonpayable",
      "type": "function"
    },
    {
      "inputs": [
        {
          "internalType": "bytes32",
          "name": "role",
          "type": "bytes32"
        },
        {
          "internalType": "address",
          "name": "account",
          "type": "address"
        }
      ],
      "name": "revokeRole",
      "outputs": [],
      "stateMutability": "nonpayable",
      "type": "function"
    },
    {
      "inputs": [],
      "name": "seigManager",
      "outputs": [
        {
          "internalType": "address",
          "name": "",
          "type": "address"
        }
      ],
      "stateMutability": "view",
      "type": "function"
    },
    {
      "inputs": [
        {
          "internalType": "bytes4",
          "name": "",
          "type": "bytes4"
        }
      ],
      "name": "selectorImplementation",
      "outputs": [
        {
          "internalType": "address",
          "name": "",
          "type": "address"
        }
      ],
      "stateMutability": "view",
      "type": "function"
    },
    {
      "inputs": [
        {
          "internalType": "address",
          "name": "_l2Register",
          "type": "address"
        },
        {
          "internalType": "address",
          "name": "_operatorFactory",
          "type": "address"
        },
        {
          "internalType": "address",
          "name": "_ton",
          "type": "address"
        },
        {
          "internalType": "address",
          "name": "_wton",
          "type": "address"
        },
        {
          "internalType": "address",
          "name": "_dao",
          "type": "address"
        },
        {
          "internalType": "address",
          "name": "_depositManager",
          "type": "address"
        },
        {
          "internalType": "address",
          "name": "_seigManager",
          "type": "address"
        },
        {
          "internalType": "address",
          "name": "_swapProxy",
          "type": "address"
        }
      ],
      "name": "setAddresses",
      "outputs": [],
      "stateMutability": "nonpayable",
      "type": "function"
    },
    {
      "inputs": [
        {
          "internalType": "uint256",
          "name": "_minimumInitialDepositAmount",
          "type": "uint256"
        }
      ],
      "name": "setMinimumInitialDepositAmount",
      "outputs": [],
      "stateMutability": "nonpayable",
      "type": "function"
    },
    {
      "inputs": [
        {
          "internalType": "bytes4",
          "name": "interfaceId",
          "type": "bytes4"
        }
      ],
      "name": "supportsInterface",
      "outputs": [
        {
          "internalType": "bool",
          "name": "",
          "type": "bool"
        }
      ],
      "stateMutability": "view",
      "type": "function"
    },
    {
      "inputs": [],
      "name": "swapProxy",
      "outputs": [
        {
          "internalType": "address",
          "name": "",
          "type": "address"
        }
      ],
      "stateMutability": "view",
      "type": "function"
    },
    {
      "inputs": [
        {
          "internalType": "address",
          "name": "",
          "type": "address"
        }
      ],
      "name": "systemConfigOfOperator",
      "outputs": [
        {
          "internalType": "address",
          "name": "",
          "type": "address"
        }
      ],
      "stateMutability": "view",
      "type": "function"
    },
    {
      "inputs": [],
      "name": "ton",
      "outputs": [
        {
          "internalType": "address",
          "name": "",
          "type": "address"
        }
      ],
      "stateMutability": "view",
      "type": "function"
    },
    {
      "inputs": [
        {
          "internalType": "address",
          "name": "newAdmin",
          "type": "address"
        }
      ],
      "name": "transferAdmin",
      "outputs": [],
      "stateMutability": "nonpayable",
      "type": "function"
    },
    {
      "inputs": [
        {
          "internalType": "address",
          "name": "newAdmin",
          "type": "address"
        }
      ],
      "name": "transferOwnership",
      "outputs": [],
      "stateMutability": "nonpayable",
      "type": "function"
    },
    {
      "inputs": [
        {
          "internalType": "address",
          "name": "systemConfig",
          "type": "address"
        },
        {
          "internalType": "uint256",
          "name": "amount",
          "type": "uint256"
        }
      ],
      "name": "updateSeigniorage",
      "outputs": [],
      "stateMutability": "nonpayable",
      "type": "function"
    },
    {
      "inputs": [],
      "name": "wton",
      "outputs": [
        {
          "internalType": "address",
          "name": "",
          "type": "address"
        }
      ],
      "stateMutability": "view",
      "type": "function"
    }
  ],
  "bytecode": "0x6080806040523461002357600160ff19601354161760135561290490816100298239f35b600080fdfe6080604052600436101561001257600080fd5b60003560e01c806301ffc9a714610287578063153e6d7f146102825780631785f53c1461027d578063248a9ca31461027857806324d7806c1461027357806327f1470d1461026e5780632f2ff15d1461026957806336568abe146102645780634162169f1461025f5780634273ca161461025a5780634318dc1d14610255578063472d1f711461025057806350d2a2761461024b5780635290c24814610246578063550d01a31461024157806358bf884f1461023c57806363a8fd89146102375780636c7ac9d8146102325780636ec4be901461022d5780636fb7f558146102285780637048027514610223578063715018a61461021e57806375829def1461021957806389c0db62146102145780638d62d9491461020f5780638f32d59b1461020a57806391d1485414610205578063a1efe92014610200578063a217fddf146101fb578063b17dba1b146101f6578063b911135f146101f1578063c5f16b89146101ec578063cc48b947146101e7578063d5391393146101e2578063d547741f146101dd578063d733cfd0146101d8578063e9d6ec4f146101d3578063ef6cf652146101ce5763f2fde38b146101c957600080fd5b6114e1565b6114a2565b611484565b611182565b611140565b611105565b6110dc565b610f7e565b610f4a565b610f0b565b610eef565b610eb0565b610e66565b610e2c565b610e03565b610dce565b610d03565b610cdd565b610bed565b610bc4565b610b9b565b610b72565b610b4f565b610947565b610905565b6108dc565b6108a4565b61087b565b6107d6565b6106a3565b61067a565b6105e4565b610517565b610462565b6103d6565b6103a7565b61036f565b61032f565b6102b4565b60209060031901126102af576004356001600160e01b0319811681036102af5790565b600080fd5b346102af576001600160e01b03196102cb3661028c565b16637965db0b60e01b811480156102ea575b6020906040519015158152f35b506301ffc9a760e01b81148015610305575b602091506102dd565b506000526004602052602060ff604060002054166102fc565b6001600160a01b038116036102af57565b346102af5760203660031901126102af5760043561034c8161031e565b60018060a01b0316600052600f602052602060ff60406000205416604051908152f35b346102af5760203660031901126102af576103a560043561038f8161031e565b6103a061039b33611506565b611ab1565b6117d7565b005b346102af5760203660031901126102af5760043560005260056020526020600160406000200154604051908152f35b346102af5760203660031901126102af57602060ff61041e6004356103fa8161031e565b600080526005845260406000209060018060a01b0316600052602052604060002090565b54166040519015158152f35b801515036102af57565b9181601f840112156102af5782359167ffffffffffffffff83116102af57602083818601950101116102af57565b346102af5760803660031901126102af5760043561047f8161031e565b60443561048b8161042a565b60643567ffffffffffffffff81116102af576104ab903690600401610434565b916104c06001600160a01b0385161515611cac565b82156104e557836104db6104d66103a5966120a2565b611c4e565b6024359033612335565b60405162461bcd60e51b815260206004820152600a602482015269636865636b206d656d6f60b01b6044820152606490fd5b346102af5760403660031901126102af576004356024356105378161031e565b600091808352600560205261055260016040852001546115f4565b8083526005602090815260408085206001600160a01b0385166000908152925290205460ff1615610581578280f35b8083526005602090815260408085206001600160a01b038516600090815292529020805460ff1916600117905533916001600160a01b0316907f2f8788117e7eff1d82e926ec794901d17c78024a50270940304540a733656f0d8480a438808280f35b346102af5760403660031901126102af576024356106018161031e565b336001600160a01b0382160361061d576103a590600435611874565b60405162461bcd60e51b815260206004820152602f60248201527f416363657373436f6e74726f6c3a2063616e206f6e6c792072656e6f756e636560448201526e103937b632b9903337b91039b2b63360891b6064820152608490fd5b346102af5760003660031901126102af57600a546040516001600160a01b039091168152602090f35b346102af5760803660031901126102af576004356106c08161031e565b6024356106cc8161031e565b6044359160643567ffffffffffffffff81116102af576106f0903690600401610434565b60085490949190610711906001600160a01b03165b6001600160a01b031690565b33148080156107b3575b61072490611b3f565b6001600160a01b039461073a9086163014611b8b565b610761601461074a368986611bd7565b610755828a11611c0e565b01519586161515611c0e565b61076d6104d6866120a2565b1561079857846107889561078092611c8f565b93909261221b565b60405160018152602090f35b0390f35b846107ae956107a692611c8f565b9390926121d8565b610788565b50600954610724906107cd906001600160a01b0316610705565b3314905061071b565b346102af5760203660031901126102af573360009081526000805160206128d883398151915260205260409020600435906108169060ff905b5416611ab1565b80600e5414610850576020817f50e01964a144ee7e40d80d0792ff2641558654ef906fd81502421f22bf6ca92c92600e55604051908152a1005b606460405162461bcd60e51b815260206004820152600460248201526373616d6560e01b6044820152fd5b346102af5760003660031901126102af576006546040516001600160a01b039091168152602090f35b346102af576001600160e01b03196108bb3661028c565b166000526003602052602060018060a01b0360406000205416604051908152f35b346102af5760003660031901126102af576007546040516001600160a01b039091168152602090f35b346102af5760203660031901126102af576004356109228161031e565b60018060a01b03166000526002602052602060ff604060002054166040519015158152f35b346102af576020806003193601126102af576004356109658161031e565b60065460009283929183919061098590610705906001600160a01b031681565b6040516378da9c5960e11b81526001600160a01b038516600482015291908190839060249082905afa918215610ace578692610b20575b5060405163078f29cf60e01b81526001600160a01b03949092908516908284600481855afa889481610b01575b50610a2d575050505061079491506109ff611d26565b505b6040805193151584526001600160a01b0394851660208501529316928201929092529081906060820190565b858416610a43575b505050506107949150610a01565b60ff9094919293941660018114600014610ad3575050816004916040519283809263bce5c11f60e01b82525afa918215610ace578692610aa1575b5050915b8216610a93575b8080808493610a35565b925060019150610794610a89565b610ac09250803d10610ac7575b610ab88183611777565b810190611d02565b3880610a7e565b503d610aae565b611cf6565b909492506002915003610a82579150610afb610af5610af061200e565b61206b565b60601c90565b91610a82565b610b19919550843d8611610ac757610ab88183611777565b93386109e9565b81610b419293503d8411610b48575b610b398183611777565b810190611cdd565b90386109bc565b503d610b2f565b346102af5760003660031901126102af57602060ff600054166040519015158152f35b346102af5760003660031901126102af57600b546040516001600160a01b039091168152602090f35b346102af5760003660031901126102af57600d546040516001600160a01b039091168152602090f35b346102af5760003660031901126102af57600c546040516001600160a01b039091168152602090f35b346102af5760203660031901126102af57600435610c0a8161031e565b610c1661039b33611506565b600080805260056020527f05b8ccbb9d4d8fb16ea74ce3c29a41f1b461fbdaff4714a0d9a8eb05499746bd54909190610c4e906115f4565b8180526005602090815260408084206001600160a01b0384166000908152925290205460ff1615610c7d575080f35b8180526005602090815260408084206001600160a01b038416600090815292529020805460ff1916600117905533906001600160a01b0316827f2f8788117e7eff1d82e926ec794901d17c78024a50270940304540a733656f0d8180a480f35b346102af5760003660031901126102af57610cfa61039b33611506565b6103a5336117d7565b346102af5760203660031901126102af57600435610d208161031e565b610d2c61039b33611506565b6001600160a01b0381168015610d89573314610d4b57610cfa90611531565b60405162461bcd60e51b815260206004820152601660248201527520b1b1b2b9b9b4b136329d1039b0b6b29030b236b4b760511b6044820152606490fd5b60405162461bcd60e51b815260206004820152601860248201527f41636365737369626c653a207a65726f206164647265737300000000000000006044820152606490fd5b346102af5760203660031901126102af576040610df5600435610df08161031e565b611d56565b825191151582526020820152f35b346102af5760003660031901126102af576009546040516001600160a01b039091168152602090f35b346102af57600080600319360112610e6357808052600560209081526040918290203360009081529082529190912060ff9061041e565b80fd5b346102af5760403660031901126102af57602060ff61041e602435610e8a8161031e565b6004356000526005845260406000209060018060a01b0316600052602052604060002090565b346102af5760203660031901126102af576020600435610ecf8161031e565b60018060a01b038091166000526011825260406000205416604051908152f35b346102af5760003660031901126102af57602060405160008152f35b346102af5760203660031901126102af576020600435610f2a8161031e565b60018060a01b038091166000526012825260406000205416604051908152f35b346102af5760203660031901126102af576004356000526001602052602060018060a01b0360406000205416604051908152f35b346102af5760403660031901126102af57600435610f9b8161031e565b600c546001600160a01b0391908216330361109757819081600954166000938493849316835260106020526040832054168260405161101681611008602082019563a9059cbb60e01b8752602435906024840160209093929193604081019460018060a01b031681520152565b03601f198101835282611777565b51925af1611022611d26565b81611068575b50156110315780f35b60405162461bcd60e51b815260206004820152600f60248201526e1514905394d1915497d19052531151608a1b6044820152606490fd5b805180159250821561107d575b505038611028565b6110909250602080918301019101612153565b3880611075565b60405162461bcd60e51b815260206004820152601b60248201527f73656e646572206973206e6f74206120536569674d616e6167657200000000006044820152606490fd5b346102af5760003660031901126102af576008546040516001600160a01b039091168152602090f35b346102af5760003660031901126102af5760206040517ff0887ba65ee2024ea881d91b74c2450ef19e1557f03bed3ea9f16b037cbe2dc98152f35b346102af5760403660031901126102af576103a56024356004356111638261031e565b80600052600560205261117d6001604060002001546115f4565b611874565b346102af576101003660031901126102af577f617f1cba5d7b9d5d3c81f0d5c78720ec2be227878bac84c0851b70e4cf61cb086004356111c18161031e565b602435906111ce8261031e565b6113c26044356111dd8161031e565b6064356111e98161031e565b6084356111f58161031e565b60a435906112028261031e565b60c4359261120f8461031e565b60e4359461121c8661031e565b3360009081526000805160206128d8833981519152602052604090206112449060ff9061080f565b60065461129c906001600160a01b03166001600160a01b039081168a82161480159190611469575b811561144e575b8115611433575b8115611418575b81156113fd575b81156113e2575b81156113c7575b50611b08565b600680546001600160a01b0319166001600160a01b038a16179055600780546001600160a01b0319166001600160a01b038b16179055600880546001600160a01b0319166001600160a01b038316179055600980546001600160a01b0319166001600160a01b038416179055600a80546001600160a01b0319166001600160a01b038516179055600b80546001600160a01b0319166001600160a01b038616179055600c80546001600160a01b0319166001600160a01b038716179055600d80546001600160a01b0319166001600160a01b038816179055604080516001600160a01b03998a16815299891660208b0152908816908901528616606088015285166080870152841660a0860152831660c085015290911660e08301528190610100820190565b0390a1005b600d5489821691166001600160a01b03161415905038611296565b600c548882169082166001600160a01b03161415915061128f565b600b548782169082166001600160a01b031614159150611288565b600a548682169082166001600160a01b031614159150611281565b6009548582169082166001600160a01b03161415915061127a565b6008548482169082166001600160a01b031614159150611273565b6007548c82169082166001600160a01b03161415915061126c565b346102af5760003660031901126102af576020600e54604051908152f35b346102af5760203660031901126102af5760206004356114c18161031e565b60018060a01b038091166000526010825260406000205416604051908152f35b346102af5760203660031901126102af576004356114fe8161031e565b610d2061039b335b6001600160a01b031660009081526000805160206128d8833981519152602052604090205460ff1690565b600080805260056020527f05b8ccbb9d4d8fb16ea74ce3c29a41f1b461fbdaff4714a0d9a8eb05499746bd54611566906115f4565b8080526005602090815260408083206001600160a01b0385166000908152925290205460ff1615611595575050565b8080526005602090815260408083206001600160a01b038516600090815292529020805460ff1916600117905533916001600160a01b0316907f2f8788117e7eff1d82e926ec794901d17c78024a50270940304540a733656f0d8180a4565b600081815260056020908152604080832033845290915290205460ff16156116195750565b3390611623611957565b91603061162f8461199a565b53607861163b846119a7565b5360295b600181116116e0576116dc6116a76116c4866110086116678861166289156119d5565b611a20565b6116a16040519586946116a1602087016017907f416363657373436f6e74726f6c3a206163636f756e742000000000000000000081520190565b9061174a565b7001034b99036b4b9b9b4b733903937b6329607d1b815260110190565b60405162461bcd60e51b8152918291600483016117c3565b0390fd5b90600f81169060108210156117225761171d916f181899199a1a9b1b9c1cb0b131b232b360811b901a61171384876119b7565b5360041c916119c8565b61163f565b611984565b60005b83811061173a5750506000910152565b818101518382015260200161172a565b9061175d60209282815194859201611727565b0190565b634e487b7160e01b600052604160045260246000fd5b90601f8019910116810190811067ffffffffffffffff82111761179957604052565b611761565b906020916117b781518092818552858086019101611727565b601f01601f1916010190565b9060206117d492818152019061179e565b90565b6001600160a01b03811633810361061d576001600160a01b03821660009081526000805160206128d8833981519152602052604081205490929060ff1661181d57505050565b611844908380526005602052604084209060018060a01b0316600052602052604060002090565b805460ff1916905533917ff6391f5c32d9c69d2a47ea670b442974b53935d1edc7fd64eb21e047a839171b8180a4565b600090808252600560205260ff6118a084604085209060018060a01b0316600052602052604060002090565b54166118ab57505050565b8082526005602090815260408084206001600160a01b038616600090815292529020805460ff1916905533926001600160a01b0316917ff6391f5c32d9c69d2a47ea670b442974b53935d1edc7fd64eb21e047a839171b9080a4565b634e487b7160e01b600052601160045260246000fd5b90633b9aca009182810292818404149015171561193657565b611907565b67ffffffffffffffff811161179957601f01601f191660200190565b604051906060820182811067ffffffffffffffff82111761179957604052602a8252604082602036910137565b634e487b7160e01b600052603260045260246000fd5b8051156117225760200190565b8051600110156117225760210190565b908151811015611722570160200190565b8015611936576000190190565b156119dc57565b606460405162461bcd60e51b815260206004820152602060248201527f537472696e67733a20686578206c656e67746820696e73756666696369656e746044820152fd5b604051906080820182811067ffffffffffffffff821117611799576040526042825260603660208401376030611a558361199a565b536078611a61836119a7565b536041905b60018211611a79576117d49150156119d5565b600f811690601082101561172257611aab916f181899199a1a9b1b9c1cb0b131b232b360811b901a61171384866119b7565b90611a66565b15611ab857565b60405162461bcd60e51b815260206004820152602260248201527f41636365737369626c653a2043616c6c6572206973206e6f7420616e2061646d60448201526134b760f11b6064820152608490fd5b15611b0f57565b60405162461bcd60e51b8152602060048201526008602482015267616c6c2073616d6560c01b6044820152606490fd5b15611b4657565b60405162461bcd60e51b815260206004820152601a60248201527f73656e646572206973206e6f7420746f6e206e6f722077746f6e0000000000006044820152606490fd5b15611b9257565b60405162461bcd60e51b815260206004820152601760248201527f77726f6e67207370656e64657220706172616d657465720000000000000000006044820152606490fd5b929192611be38261193b565b91611bf16040519384611777565b8294818452818301116102af578281602093846000960137010152565b15611c1557565b60405162461bcd60e51b81526020600482015260116024820152700eee4dedcce40c8c2e8c240d8cadccee8d607b1b6044820152606490fd5b15611c5557565b60405162461bcd60e51b81526020600482015260126024820152713ab72b30b634b230ba32b2102630bcb2b91960711b6044820152606490fd5b90929192836014116102af5783116102af57601401916013190190565b15611cb357565b60405162461bcd60e51b81526020600482015260026024820152612d1960f11b6044820152606490fd5b908160209103126102af575160ff811681036102af5790565b6040513d6000823e3d90fd5b908160209103126102af57516117d48161031e565b908160209103126102af575190565b3d15611d51573d90611d378261193b565b91611d456040519384611777565b82523d6000602084013e565b606090565b60009160008092611d7461070561070560065460018060a01b031690565b604080516378da9c5960e11b81526001600160a01b0384166004808301919091526020949093909291908590829060249082905afa8015610ace5760ff918791611ff1575b501660018103611f105750805163078f29cf60e01b81526001600160a01b039283169085818681855afa879181611ef1575b50611e035750505050505050611dff611d26565b505b565b83169283611e15575b50505050505050565b85859284519687809263bce5c11f60e01b82525afa948515610ace578795611ed2575b508416611e46575b80611e0c565b60085491516347b00fb360e11b81526001600160a01b0392831691810191825293909116602082015294965092945092909182918491908290819060400103915afa928315610ace5792611ea5575b5050600191388080808080611e40565b611ec49250803d10611ecb575b611ebc8183611777565b810190611d17565b3880611e95565b503d611eb2565b611eea919550863d8811610ac757610ab88183611777565b9338611e38565b611f09919250873d8911610ac757610ab88183611777565b9038611deb565b929392909190600214611f25575b5050505050565b8151630a49cb0360e01b81526001600160a01b0391849082908790829086165afa869181611fd2575b50611f6d57505050505050611f61611d26565b505b3880808080611f1e565b169081611f7f575b5050505050611f63565b516307404d9360e21b8152949650929450918291849182905afa928315610ace5792611fb5575b50506001913880808080611f75565b611fcb9250803d10611ecb57611ebc8183611777565b3880611fa6565b611fea919250853d8711610ac757610ab88183611777565b9038611f4e565b6120089150863d8811610b4857610b398183611777565b38611db9565b604051906060820182811067ffffffffffffffff82111761179957604052602a8252690614444654144303030360b41b6040837f307844656164446541646465416464454164646561644445614444454164446560208201520152565b90602082519201516bffffffffffffffffffffffff1990818116936014811061209357505050565b60140360031b82901b16169150565b6001600160a01b03818116600090815260106020526040902054166120ce576120ca90611d56565b5090565b60405162461bcd60e51b8152602060048201526012602482015271185b1c9958591e481c9959da5cdd195c995960721b6044820152606490fd5b1561210f57565b606460405162461bcd60e51b815260206004820152602060248201527f756e73617469736669656420696e697469616c4465706f736974416d6f756e746044820152fd5b908160209103126102af57516117d48161042a565b6117d4939260609260018060a01b031682526020820152816040820152019061179e565b1561219357565b60405162461bcd60e51b815260206004820152601860248201527f6661696c20746f207377617020746f6e20746f2077746f6e00000000000000006044820152606490fd5b92611e019461220e8461221594966121fa600e54633b9aca0084041015612108565b6009543091906001600160a01b0316612800565b3691611bd7565b9161238f565b92612253836122d39395969496612236600e54831015612108565b60085461224b906001600160a01b0316610705565b903091612800565b6008546020906122a89061227190610705906001600160a01b031681565b600954600d54604080516001600160a01b03928316878201818152602081019190915290958c9460009416926122b6928892910190565b03601f198101875286611777565b60405163cae9ca5160e01b81529788958694859360048501612168565b03925af18015610ace57611e01956122fa6122ff9261221595600091612307575b5061218c565b61191d565b923691611bd7565b612328915060203d811161232e575b6123208183611777565b810190612153565b386122f4565b503d612316565b90939194926000146123585790612253856122d393612236600e54831015612108565b90849261220e611e01966122159461237a600e54633b9aca0084041015612108565b60095461224b906001600160a01b0316610705565b6001600160a01b036123a48282161515611cac565b6007546123bb90610705906001600160a01b031681565b60405163f6ae6f1360e01b81526001600160a01b038416600482015260009560209390928490839060249082908b905af1918215610ace578792612634575b5081161515806125f9575b61240e90612653565b6001600160a01b038416600090815260106020526040902061244c9082905b80546001600160a01b0319166001600160a01b03909216919091179055565b6001600160a01b038116600090815260116020526040902061246f90859061242d565b600a5461248690610705906001600160a01b031681565b918360405180946304d0bde760e11b8252818a816124a8888860048401612690565b03925af1928315610ace5787936125da575b506001600160a01b03821660009081526012602052604090206124de90849061242d565b600b546124f59087906001600160a01b031661272c565b600b5461250c90610705906001600160a01b031681565b604051638340f54960e01b81526001600160a01b0385811660048301528416602482015260448101889052979085908990606490829085905af18015610ace577f1526ff0a0299f7312457e24a4af3d354afc4d51a22017cc0bb86b8c9fed66240986125b89661258393926125bd575b50506126b8565b6001600160a01b0385166000908152600f602052604090206125ac90805460ff19166001179055565b604051958695866126f1565b0390a1565b6125d39250803d1061232e576123208183611777565b388061257c565b6125f2919350843d8611610ac757610ab88183611777565b91386124ba565b5061240e61262c61070561261f8460018060a01b03166000526011602052604060002090565b546001600160a01b031690565b159050612405565b61264c919250843d8611610ac757610ab88183611777565b90386123fa565b1561265a57565b60405162461bcd60e51b815260206004820152600e60248201526d3bb937b7339037b832b930ba37b960911b6044820152606490fd5b906126a860209194939460408452604084019061179e565b6001600160a01b03909416910152565b156126bf57565b60405162461bcd60e51b815260206004820152600a6024820152694661696c205374616b6560b01b6044820152606490fd5b9395949061271f60809460018060a01b0394858094168852602088015260a0604088015260a087019061179e565b9616606085015216910152565b60095461274390610705906001600160a01b031681565b604051636eb1769f60e11b81523060048201526001600160a01b0383166024820152602093908481604481865afa908115610ace576000916127e3575b501061278b57505050565b60405163095ea7b360e01b81526001600160a01b0392909216600483015260001960248301528290829060449082906000905af18015610ace576127cd575050565b81611dff92903d1061232e576123208183611777565b6127fa9150853d8711611ecb57611ebc8183611777565b38612780565b6040516323b872dd60e01b602082019081526001600160a01b03938416602483015293909216604483015260648201939093526000928392909183906128498160848101611008565b51926001600160a01b03165af161285e611d26565b816128a8575b501561286c57565b60405162461bcd60e51b81526020600482015260146024820152731514905394d1915497d19493d357d1905253115160621b6044820152606490fd5b80518015925082156128bd575b505038612864565b6128d09250602080918301019101612153565b38806128b556fe05b8ccbb9d4d8fb16ea74ce3c29a41f1b461fbdaff4714a0d9a8eb05499746bca164736f6c6343000813000a",
  "linkReferences": {},
  "deployedLinkReferences": {}
}