{
  "_format": "hh-sol-artifact-1",
  "contractName": "Layer2ManagerV1_1",
  "sourceName": "contracts/layer2/Layer2ManagerV1_1.sol",
  "abi": [
    {
      "inputs": [],
      "stateMutability": "nonpayable",
      "type": "constructor"
    },
    {
      "inputs": [],
      "name": "ExcludeError",
      "type": "error"
    },
    {
      "inputs": [
        {
          "internalType": "uint256",
          "name": "x",
          "type": "uint256"
        }
      ],
      "name": "OnApproveError",
      "type": "error"
    },
    {
      "inputs": [
        {
          "internalType": "uint256",
          "name": "x",
          "type": "uint256"
        }
      ],
      "name": "RegisterError",
      "type": "error"
    },
    {
      "inputs": [],
      "name": "StatusError",
      "type": "error"
    },
    {
      "inputs": [],
      "name": "ZeroAddressError",
      "type": "error"
    },
    {
      "inputs": [],
      "name": "ZeroBytesError",
      "type": "error"
    },
    {
      "anonymous": false,
      "inputs": [
        {
          "indexed": false,
          "internalType": "address",
          "name": "rollupConfig",
          "type": "address"
        },
        {
          "indexed": false,
          "internalType": "address",
          "name": "candidateAddOn",
          "type": "address"
        }
      ],
      "name": "PausedCandidateAddOn",
      "type": "event"
    },
    {
      "anonymous": false,
      "inputs": [
        {
          "indexed": false,
          "internalType": "address",
          "name": "rollupConfig",
          "type": "address"
        },
        {
          "indexed": false,
          "internalType": "uint256",
          "name": "wtonAmount",
          "type": "uint256"
        },
        {
          "indexed": false,
          "internalType": "string",
          "name": "memo",
          "type": "string"
        },
        {
          "indexed": false,
          "internalType": "address",
          "name": "operator",
          "type": "address"
        },
        {
          "indexed": false,
          "internalType": "address",
          "name": "candidateAddOn",
          "type": "address"
        }
      ],
      "name": "RegisteredCandidateAddOn",
      "type": "event"
    },
    {
      "anonymous": false,
      "inputs": [
        {
          "indexed": true,
          "internalType": "bytes32",
          "name": "role",
          "type": "bytes32"
        },
        {
          "indexed": true,
          "internalType": "bytes32",
          "name": "previousAdminRole",
          "type": "bytes32"
        },
        {
          "indexed": true,
          "internalType": "bytes32",
          "name": "newAdminRole",
          "type": "bytes32"
        }
      ],
      "name": "RoleAdminChanged",
      "type": "event"
    },
    {
      "anonymous": false,
      "inputs": [
        {
          "indexed": true,
          "internalType": "bytes32",
          "name": "role",
          "type": "bytes32"
        },
        {
          "indexed": true,
          "internalType": "address",
          "name": "account",
          "type": "address"
        },
        {
          "indexed": true,
          "internalType": "address",
          "name": "sender",
          "type": "address"
        }
      ],
      "name": "RoleGranted",
      "type": "event"
    },
    {
      "anonymous": false,
      "inputs": [
        {
          "indexed": true,
          "internalType": "bytes32",
          "name": "role",
          "type": "bytes32"
        },
        {
          "indexed": true,
          "internalType": "address",
          "name": "account",
          "type": "address"
        },
        {
          "indexed": true,
          "internalType": "address",
          "name": "sender",
          "type": "address"
        }
      ],
      "name": "RoleRevoked",
      "type": "event"
    },
    {
      "anonymous": false,
      "inputs": [
        {
          "indexed": false,
          "internalType": "address",
          "name": "_l2Register",
          "type": "address"
        },
        {
          "indexed": false,
          "internalType": "address",
          "name": "_operatorManagerFactory",
          "type": "address"
        },
        {
          "indexed": false,
          "internalType": "address",
          "name": "_ton",
          "type": "address"
        },
        {
          "indexed": false,
          "internalType": "address",
          "name": "_wton",
          "type": "address"
        },
        {
          "indexed": false,
          "internalType": "address",
          "name": "_dao",
          "type": "address"
        },
        {
          "indexed": false,
          "internalType": "address",
          "name": "_depositManager",
          "type": "address"
        },
        {
          "indexed": false,
          "internalType": "address",
          "name": "_seigManager",
          "type": "address"
        },
        {
          "indexed": false,
          "internalType": "address",
          "name": "_swapProxy",
          "type": "address"
        }
      ],
      "name": "SetAddresses",
      "type": "event"
    },
    {
      "anonymous": false,
      "inputs": [
        {
          "indexed": false,
          "internalType": "uint256",
          "name": "_minimumInitialDepositAmount",
          "type": "uint256"
        }
      ],
      "name": "SetMinimumInitialDepositAmount",
      "type": "event"
    },
    {
      "anonymous": false,
      "inputs": [
        {
          "indexed": false,
          "internalType": "address",
          "name": "_operatorManagerFactory",
          "type": "address"
        }
      ],
      "name": "SetOperatorManagerFactory",
      "type": "event"
    },
    {
      "anonymous": false,
      "inputs": [
        {
          "indexed": false,
          "internalType": "address",
          "name": "rollupConfig",
          "type": "address"
        },
        {
          "indexed": false,
          "internalType": "address",
          "name": "candidateAddOn",
          "type": "address"
        }
      ],
      "name": "UnpausedCandidateAddOn",
      "type": "event"
    },
    {
      "inputs": [],
      "name": "DEFAULT_ADMIN_ROLE",
      "outputs": [
        {
          "internalType": "bytes32",
          "name": "",
          "type": "bytes32"
        }
      ],
      "stateMutability": "view",
      "type": "function"
    },
    {
      "inputs": [],
      "name": "MINTER_ROLE",
      "outputs": [
        {
          "internalType": "bytes32",
          "name": "",
          "type": "bytes32"
        }
      ],
      "stateMutability": "view",
      "type": "function"
    },
    {
      "inputs": [
        {
          "internalType": "address",
          "name": "_rollupConfig",
          "type": "address"
        }
      ],
      "name": "_checkL1BridgeDetail",
      "outputs": [
        {
          "internalType": "bool",
          "name": "result",
          "type": "bool"
        },
        {
          "internalType": "address",
          "name": "l1Bridge",
          "type": "address"
        },
        {
          "internalType": "address",
          "name": "portal",
          "type": "address"
        },
        {
          "internalType": "address",
          "name": "l2Ton",
          "type": "address"
        },
        {
          "internalType": "uint8",
          "name": "_type",
          "type": "uint8"
        },
        {
          "internalType": "uint8",
          "name": "status",
          "type": "uint8"
        }
      ],
      "stateMutability": "view",
      "type": "function"
    },
    {
      "inputs": [
        {
          "internalType": "address",
          "name": "account",
          "type": "address"
        }
      ],
      "name": "addAdmin",
      "outputs": [],
      "stateMutability": "nonpayable",
      "type": "function"
    },
    {
      "inputs": [
        {
          "internalType": "address",
          "name": "",
          "type": "address"
        }
      ],
      "name": "aliveImplementation",
      "outputs": [
        {
          "internalType": "bool",
          "name": "",
          "type": "bool"
        }
      ],
      "stateMutability": "view",
      "type": "function"
    },
    {
      "inputs": [
        {
          "internalType": "address",
          "name": "_oper",
          "type": "address"
        }
      ],
      "name": "candidateAddOnOfOperator",
      "outputs": [
        {
          "internalType": "address",
          "name": "",
          "type": "address"
        }
      ],
      "stateMutability": "view",
      "type": "function"
    },
    {
      "inputs": [
        {
          "internalType": "address",
          "name": "_rollupConfig",
          "type": "address"
        }
      ],
      "name": "checkL1Bridge",
      "outputs": [
        {
          "internalType": "bool",
          "name": "result",
          "type": "bool"
        },
        {
          "internalType": "address",
          "name": "l1Bridge",
          "type": "address"
        },
        {
          "internalType": "address",
          "name": "portal",
          "type": "address"
        },
        {
          "internalType": "address",
          "name": "l2Ton",
          "type": "address"
        }
      ],
      "stateMutability": "view",
      "type": "function"
    },
    {
      "inputs": [
        {
          "internalType": "address",
          "name": "_rollupConfig",
          "type": "address"
        }
      ],
      "name": "checkL1BridgeDetail",
      "outputs": [
        {
          "internalType": "bool",
          "name": "result",
          "type": "bool"
        },
        {
          "internalType": "address",
          "name": "l1Bridge",
          "type": "address"
        },
        {
          "internalType": "address",
          "name": "portal",
          "type": "address"
        },
        {
          "internalType": "address",
          "name": "l2Ton",
          "type": "address"
        },
        {
          "internalType": "uint8",
          "name": "_type",
          "type": "uint8"
        },
        {
          "internalType": "uint8",
          "name": "status",
          "type": "uint8"
        }
      ],
      "stateMutability": "view",
      "type": "function"
    },
    {
      "inputs": [
        {
          "internalType": "address",
          "name": "_rollupConfig",
          "type": "address"
        }
      ],
      "name": "checkLayer2TVL",
      "outputs": [
        {
          "internalType": "bool",
          "name": "result",
          "type": "bool"
        },
        {
          "internalType": "uint256",
          "name": "amount",
          "type": "uint256"
        }
      ],
      "stateMutability": "view",
      "type": "function"
    },
    {
      "inputs": [],
      "name": "dao",
      "outputs": [
        {
          "internalType": "address",
          "name": "",
          "type": "address"
        }
      ],
      "stateMutability": "view",
      "type": "function"
    },
    {
      "inputs": [],
      "name": "depositManager",
      "outputs": [
        {
          "internalType": "address",
          "name": "",
          "type": "address"
        }
      ],
      "stateMutability": "view",
      "type": "function"
    },
    {
      "inputs": [
        {
          "internalType": "bytes32",
          "name": "role",
          "type": "bytes32"
        }
      ],
      "name": "getRoleAdmin",
      "outputs": [
        {
          "internalType": "bytes32",
          "name": "",
          "type": "bytes32"
        }
      ],
      "stateMutability": "view",
      "type": "function"
    },
    {
      "inputs": [
        {
          "internalType": "bytes32",
          "name": "role",
          "type": "bytes32"
        },
        {
          "internalType": "address",
          "name": "account",
          "type": "address"
        }
      ],
      "name": "grantRole",
      "outputs": [],
      "stateMutability": "nonpayable",
      "type": "function"
    },
    {
      "inputs": [
        {
          "internalType": "bytes32",
          "name": "role",
          "type": "bytes32"
        },
        {
          "internalType": "address",
          "name": "account",
          "type": "address"
        }
      ],
      "name": "hasRole",
      "outputs": [
        {
          "internalType": "bool",
          "name": "",
          "type": "bool"
        }
      ],
      "stateMutability": "view",
      "type": "function"
    },
    {
      "inputs": [
        {
          "internalType": "address",
          "name": "account",
          "type": "address"
        }
      ],
      "name": "isAdmin",
      "outputs": [
        {
          "internalType": "bool",
          "name": "",
          "type": "bool"
        }
      ],
      "stateMutability": "view",
      "type": "function"
    },
    {
      "inputs": [],
      "name": "isOwner",
      "outputs": [
        {
          "internalType": "bool",
          "name": "",
          "type": "bool"
        }
      ],
      "stateMutability": "view",
      "type": "function"
    },
    {
      "inputs": [],
      "name": "l1BridgeRegistry",
      "outputs": [
        {
          "internalType": "address",
          "name": "",
          "type": "address"
        }
      ],
      "stateMutability": "view",
      "type": "function"
    },
    {
      "inputs": [],
      "name": "minimumInitialDepositAmount",
      "outputs": [
        {
          "internalType": "uint256",
          "name": "",
          "type": "uint256"
        }
      ],
      "stateMutability": "view",
      "type": "function"
    },
    {
      "inputs": [
        {
          "internalType": "address",
          "name": "owner",
          "type": "address"
        },
        {
          "internalType": "address",
          "name": "spender",
          "type": "address"
        },
        {
          "internalType": "uint256",
          "name": "amount",
          "type": "uint256"
        },
        {
          "internalType": "bytes",
          "name": "data",
          "type": "bytes"
        }
      ],
      "name": "onApprove",
      "outputs": [
        {
          "internalType": "bool",
          "name": "",
          "type": "bool"
        }
      ],
      "stateMutability": "nonpayable",
      "type": "function"
    },
    {
      "inputs": [
        {
          "internalType": "address",
          "name": "",
          "type": "address"
        }
      ],
      "name": "operatorInfo",
      "outputs": [
        {
          "internalType": "address",
          "name": "rollupConfig",
          "type": "address"
        },
        {
          "internalType": "address",
          "name": "candidateAddOn",
          "type": "address"
        }
      ],
      "stateMutability": "view",
      "type": "function"
    },
    {
      "inputs": [],
      "name": "operatorManagerFactory",
      "outputs": [
        {
          "internalType": "address",
          "name": "",
          "type": "address"
        }
      ],
      "stateMutability": "view",
      "type": "function"
    },
    {
      "inputs": [
        {
          "internalType": "address",
          "name": "_rollupConfig",
          "type": "address"
        }
      ],
      "name": "operatorOfRollupConfig",
      "outputs": [
        {
          "internalType": "address",
          "name": "",
          "type": "address"
        }
      ],
      "stateMutability": "view",
      "type": "function"
    },
    {
      "inputs": [
        {
          "internalType": "address",
          "name": "rollupConfig",
          "type": "address"
        }
      ],
      "name": "pauseCandidateAddOn",
      "outputs": [],
      "stateMutability": "nonpayable",
      "type": "function"
    },
    {
      "inputs": [],
      "name": "pauseProxy",
      "outputs": [
        {
          "internalType": "bool",
          "name": "",
          "type": "bool"
        }
      ],
      "stateMutability": "view",
      "type": "function"
    },
    {
      "inputs": [
        {
          "internalType": "uint256",
          "name": "",
          "type": "uint256"
        }
      ],
      "name": "proxyImplementation",
      "outputs": [
        {
          "internalType": "address",
          "name": "",
          "type": "address"
        }
      ],
      "stateMutability": "view",
      "type": "function"
    },
    {
      "inputs": [
        {
          "internalType": "address",
          "name": "rollupConfig",
          "type": "address"
        },
        {
          "internalType": "uint256",
          "name": "amount",
          "type": "uint256"
        },
        {
          "internalType": "bool",
          "name": "flagTon",
          "type": "bool"
        },
        {
          "internalType": "string",
          "name": "memo",
          "type": "string"
        }
      ],
      "name": "registerCandidateAddOn",
      "outputs": [],
      "stateMutability": "nonpayable",
      "type": "function"
    },
    {
      "inputs": [
        {
          "internalType": "address",
          "name": "account",
          "type": "address"
        }
      ],
      "name": "removeAdmin",
      "outputs": [],
      "stateMutability": "nonpayable",
      "type": "function"
    },
    {
      "inputs": [],
      "name": "renounceOwnership",
      "outputs": [],
      "stateMutability": "nonpayable",
      "type": "function"
    },
    {
      "inputs": [
        {
          "internalType": "bytes32",
          "name": "role",
          "type": "bytes32"
        },
        {
          "internalType": "address",
          "name": "account",
          "type": "address"
        }
      ],
      "name": "renounceRole",
      "outputs": [],
      "stateMutability": "nonpayable",
      "type": "function"
    },
    {
      "inputs": [
        {
          "internalType": "bytes32",
          "name": "role",
          "type": "bytes32"
        },
        {
          "internalType": "address",
          "name": "account",
          "type": "address"
        }
      ],
      "name": "revokeRole",
      "outputs": [],
      "stateMutability": "nonpayable",
      "type": "function"
    },
    {
      "inputs": [
        {
          "internalType": "address",
          "name": "",
          "type": "address"
        }
      ],
      "name": "rollupConfigInfo",
      "outputs": [
        {
          "internalType": "uint8",
          "name": "status",
          "type": "uint8"
        },
        {
          "internalType": "address",
          "name": "operatorManager",
          "type": "address"
        }
      ],
      "stateMutability": "view",
      "type": "function"
    },
    {
      "inputs": [
        {
          "internalType": "address",
          "name": "_oper",
          "type": "address"
        }
      ],
      "name": "rollupConfigOfOperator",
      "outputs": [
        {
          "internalType": "address",
          "name": "",
          "type": "address"
        }
      ],
      "stateMutability": "view",
      "type": "function"
    },
    {
      "inputs": [],
      "name": "seigManager",
      "outputs": [
        {
          "internalType": "address",
          "name": "",
          "type": "address"
        }
      ],
      "stateMutability": "view",
      "type": "function"
    },
    {
      "inputs": [
        {
          "internalType": "bytes4",
          "name": "",
          "type": "bytes4"
        }
      ],
      "name": "selectorImplementation",
      "outputs": [
        {
          "internalType": "address",
          "name": "",
          "type": "address"
        }
      ],
      "stateMutability": "view",
      "type": "function"
    },
    {
      "inputs": [
        {
          "internalType": "address",
          "name": "_l1BridgeRegistry",
          "type": "address"
        },
        {
          "internalType": "address",
          "name": "_operatorManagerFactory",
          "type": "address"
        },
        {
          "internalType": "address",
          "name": "_ton",
          "type": "address"
        },
        {
          "internalType": "address",
          "name": "_wton",
          "type": "address"
        },
        {
          "internalType": "address",
          "name": "_dao",
          "type": "address"
        },
        {
          "internalType": "address",
          "name": "_depositManager",
          "type": "address"
        },
        {
          "internalType": "address",
          "name": "_seigManager",
          "type": "address"
        },
        {
          "internalType": "address",
          "name": "_swapProxy",
          "type": "address"
        }
      ],
      "name": "setAddresses",
      "outputs": [],
      "stateMutability": "nonpayable",
      "type": "function"
    },
    {
      "inputs": [
        {
          "internalType": "uint256",
          "name": "_minimumInitialDepositAmount",
          "type": "uint256"
        }
      ],
      "name": "setMinimumInitialDepositAmount",
      "outputs": [],
      "stateMutability": "nonpayable",
      "type": "function"
    },
    {
      "inputs": [
        {
          "internalType": "address",
          "name": "_operatorManagerFactory",
          "type": "address"
        }
      ],
      "name": "setOperatorManagerFactory",
      "outputs": [],
      "stateMutability": "nonpayable",
      "type": "function"
    },
    {
      "inputs": [
        {
          "internalType": "address",
          "name": "_rollupConfig",
          "type": "address"
        }
      ],
      "name": "statusLayer2",
      "outputs": [
        {
          "internalType": "uint8",
          "name": "",
          "type": "uint8"
        }
      ],
      "stateMutability": "view",
      "type": "function"
    },
    {
      "inputs": [
        {
          "internalType": "bytes4",
          "name": "interfaceId",
          "type": "bytes4"
        }
      ],
      "name": "supportsInterface",
      "outputs": [
        {
          "internalType": "bool",
          "name": "",
          "type": "bool"
        }
      ],
      "stateMutability": "view",
      "type": "function"
    },
    {
      "inputs": [],
      "name": "swapProxy",
      "outputs": [
        {
          "internalType": "address",
          "name": "",
          "type": "address"
        }
      ],
      "stateMutability": "view",
      "type": "function"
    },
    {
      "inputs": [],
      "name": "ton",
      "outputs": [
        {
          "internalType": "address",
          "name": "",
          "type": "address"
        }
      ],
      "stateMutability": "view",
      "type": "function"
    },
    {
      "inputs": [
        {
          "internalType": "address",
          "name": "newAdmin",
          "type": "address"
        }
      ],
      "name": "transferAdmin",
      "outputs": [],
      "stateMutability": "nonpayable",
      "type": "function"
    },
    {
      "inputs": [
        {
          "internalType": "address",
          "name": "newAdmin",
          "type": "address"
        }
      ],
      "name": "transferOwnership",
      "outputs": [],
      "stateMutability": "nonpayable",
      "type": "function"
    },
    {
      "inputs": [
        {
          "internalType": "address",
          "name": "rollupConfig",
          "type": "address"
        }
      ],
      "name": "unpauseCandidateAddOn",
      "outputs": [],
      "stateMutability": "nonpayable",
      "type": "function"
    },
    {
      "inputs": [
        {
          "internalType": "address",
          "name": "rollupConfig",
          "type": "address"
        },
        {
          "internalType": "uint256",
          "name": "amount",
          "type": "uint256"
        }
      ],
      "name": "updateSeigniorage",
      "outputs": [],
      "stateMutability": "nonpayable",
      "type": "function"
    },
    {
      "inputs": [],
      "name": "wton",
      "outputs": [
        {
          "internalType": "address",
          "name": "",
          "type": "address"
        }
      ],
      "stateMutability": "view",
      "type": "function"
    }
  ],
  "bytecode": "0x6080806040523461001657612996908161001c8239f35b600080fdfe608060408181526004918236101561001657600080fd5b600092833560e01c91826301ffc9a7146118b2575081631785f53c14611884578163248a9ca31461185957816324d7806c146118135781632e0f1775146110ed5781632f2ff15d1461176657816332d89cc6146115e557816336568abe146115535781634162169f1461152a5781634273ca16146111ec5781634318dc1d146111525781634cdf7b16146110ed57816350c246d61461108657816350d2a27614611042578163550d01a31461100457816358bf884f14610fb157816363a8fd8914610f8f5781636c7ac9d814610f665781636ec4be9014610f3d5781636fb7f55814610f145781637048027514610e5f578163715018a614610e3957816372898c2314610df357816375829def14610dd657816379a0e6ea14610d9a5781637bae05f114610d5b57816389c0db6214610d265781638d62d94914610cfd5781638f32d59b14610cca57816391d1485414610c83578163a217fddf14610c68578163a37d6aa714610c2d578163aba8e57714610c04578163b911135f14610bd1578163c04a0a42146108e4578163c5f16b89146107ab578163c845226514610726578163cc48b947146106fd578163cf8f9110146106d4578163d523c077146105c9578163d53913931461058e578163d547741f1461055257838263d733cfd0146103df57508163e9d6ec4f146103c0578163f2fde38b14610261575063ff600b691461022157600080fd5b3461025d57602036600319011261025d576020916001600160a01b0390829082610249611936565b168152600f8552205460081c169051908152f35b5080fd5b919050346103bc576020806003193601126103b85761027e611936565b61028f61028a33611995565b611f0a565b61029b61028a33611995565b6001600160a01b03169283156103775783331461033d5750838052600581526102c9600183862001546119d2565b83805260058152818420838552815260ff8285205416156102f2575b836102ef33611d7e565b80f35b8380526005815281842083855290528220805460ff191660011790553390827f2f8788117e7eff1d82e926ec794901d17c78024a50270940304540a733656f0d8180a43880806102e5565b915162461bcd60e51b815291820152601660248201527520b1b1b2b9b9b4b136329d1039b0b6b29030b236b4b760511b6044820152606490fd5b915162461bcd60e51b815291820152601860248201527f41636365737369626c653a207a65726f206164647265737300000000000000006044820152606490fd5b8380fd5b8280fd5b50503461025d578160031936011261025d57602090600e549051908152f35b80843461054f57610100908160031936011261054b576103fd611936565b610405611951565b6001600160a01b03926044358481169081900361054757606435858116809103610543576084359186831680930361053f5760a4359387851680950361053b5760c435958887168097036105375760e43597898916809903610533578989916104a660ff7f617f1cba5d7b9d5d3c81f0d5c78720ec2be227878bac84c0851b70e4cf61cb089f80808992526005602052818120338252602052205416611f0a565b16996bffffffffffffffffffffffff60a01b928b84600654161760065516918281600754161760075584816008541617600855858160095416176009558681600a541617600a558781600b541617600b558881600c541617600c55600d541617600d55815198895260208901528701526060860152608085015260a084015260c083015260e0820152a180f35b8b80fd5b8a80fd5b8980fd5b8880fd5b8780fd5b8680fd5b5050fd5b50fd5b919050346103bc57806003193601126103bc576102ef91356105896001610577611951565b938387526005602052862001546119d2565b611e6d565b50503461025d578160031936011261025d57602090517ff0887ba65ee2024ea881d91b74c2450ef19e1557f03bed3ea9f16b037cbe2dc98152f35b919050346103bc5760203660031901126103bc576105e5611936565b6006546001600160a01b03906105fe9082163314611f61565b6011549361060f60ff861615611fac565b600160ff1980961617601155818316808752600f60205284872091600286519361063885611d0e565b549385602060ff871692838152019560081c168552036106c657508652600f6020908152848720805487166001908117909155915183168752601081528487209091015493516001600160a01b03938416815293909116909116908201527faf0a20fb16d60a15e38b6cd70fa0cce0bd2a744265663dfcbc90a02b360caf8090604090a16011541660115580f35b855163c84d787560e01b8152fd5b50503461025d578160031936011261025d5760065490516001600160a01b039091168152602090f35b50503461025d578160031936011261025d5760085490516001600160a01b039091168152602090f35b50503461025d57602036600319011261025d5760207f2342c0559c82fec746d047e08479a8b46bf45d4265f1db1c3a685b542c06f6a291610765611936565b84805260058352818520338652835261078360ff8387205416611f0a565b600780546001600160a01b0319166001600160a01b039290921691821790559051908152a180f35b919050346103bc57806003193601126103bc576107c6611936565b600c546001600160a01b0390811633036108a1578491818084936009541692168352600f6020528483205460081c16828551602081019263a9059cbb60e01b8452602482015260243560448201526044815261082181611d40565b51925af161082d611fde565b81610872575b501561083d578280f35b906020606492519162461bcd60e51b8352820152600f60248201526e1514905394d1915497d19052531151608a1b6044820152fd5b8051801592508215610887575b505038610833565b61089a92506020809183010191016124a7565b388061087f565b825162461bcd60e51b8152602081860152601b60248201527f73656e646572206973206e6f74206120536569674d616e6167657200000000006044820152606490fd5b83833461025d57608036600319011261025d576108ff611936565b602493604435918535918315158403610bcd5760643567ffffffffffffffff8111610547576109319036908301611967565b95909461093d84612283565b8615610bbf576001600160a01b038481168952600f6020908152838a20549092919060081c8116610ba957610971866122a5565b5015610b935760095481169115610b505760085416600e548710610b3a5761099b873033846128b0565b8351636eb1769f60e11b8152308682019081526001600160a01b03841660208201528490829081906040010381855afa908115610b3057918885928d948591610afb575b5010610a98575b5090918b85518094819363e34869d760e01b83528b8a8401525af1918215610a8e578992610a61575b505015610a4b5750633b9aca0092838102938185041490151715610a3957506102ef9495506124e0565b634e487b7160e01b8652601190528585fd5b9060078892519163472ed10360e01b8352820152fd5b610a809250803d10610a87575b610a788183611d5c565b8101906124a7565b8980610a0f565b503d610a6e565b83513d8b823e3d90fd5b855163095ea7b360e01b8152878101859052600019818f015292839160449183915af18015610af1579183918b93610ad4575b929190926109e6565b610aea90833d8511610a8757610a788183611d5c565b508c610acb565b84513d8c823e3d90fd5b93929450505081813d8311610b29575b610b158183611d5c565b81010312610537578a91888592518f6109df565b503d610b0b565b85513d8d823e3d90fd5b835163472ed10360e01b81526006818701528b90fd5b509892919050600e54633b9aca00860410610b7f57505050610b7a826102ef9697309033906128b0565b6124e0565b600690519163472ed10360e01b8352820152fd5b835163472ed10360e01b81526005818701528b90fd5b835163472ed10360e01b81528086018690528b90fd5b505163111dc0fd60e31b8152fd5b8580fd5b9050346103bc5760203660031901126103bc5735825260016020908152918190205490516001600160a01b039091168152f35b50503461025d578160031936011261025d5760075490516001600160a01b039091168152602090f35b50503461025d57602036600319011261025d576020916001600160a01b0390829082610c57611936565b168152601085522054169051908152f35b50503461025d578160031936011261025d5751908152602090f35b9050346103bc57816003193601126103bc578160209360ff92610ca4611951565b90358252600586528282206001600160a01b039091168252855220549151911615158152f35b50503461025d578160031936011261025d5760ff8183806020955260058552818120338252855220541690519015158152f35b50503461025d578160031936011261025d5760095490516001600160a01b039091168152602090f35b828434610d58576020366003190112610d585750610d4a610d45611936565b6122a5565b825191151582526020820152f35b80fd5b50503461025d57602036600319011261025d576020916001600160a01b0390600190839083610d88611936565b16815260108652200154169051908152f35b50503461025d57602036600319011261025d5760209160ff9082906001600160a01b03610dc5611936565b168152600f85522054169051908152f35b919050346103bc576020806003193601126103b85761028f611936565b828434610d58576020366003190112610d58576001600160a01b0390829082610e1a611936565b168152600f60205220549082519160ff8116835260081c166020820152f35b8334610d585780600319360112610d5857610e5661028a33611995565b6102ef33611d7e565b50503461025d57602090816003193601126103bc57610e7c611936565b91610e8961028a33611995565b83805260058152610e9f600183862001546119d2565b838052600581528184206001600160a01b039093168085529281528184205460ff1615610eca578380f35b8380526005815281842083855290528220805460ff191660011790553390827f2f8788117e7eff1d82e926ec794901d17c78024a50270940304540a733656f0d8180a43880808380f35b50503461025d578160031936011261025d57600c5490516001600160a01b039091168152602090f35b50503461025d578160031936011261025d57600d5490516001600160a01b039091168152602090f35b50503461025d578160031936011261025d57600b5490516001600160a01b039091168152602090f35b50503461025d578160031936011261025d5760ff602092541690519015158152f35b50503461025d57602036600319011261025d57608090610fd7610fd2611936565b612056565b5050845193151584526001600160a01b039283166020850152908216938301939093529091166060820152f35b50503461025d57602036600319011261025d5760209160ff9082906001600160a01b0361102f611936565b1681526002855220541690519015158152f35b9050346103bc5760203660031901126103bc573563ffffffff60e01b81168091036103bc57825260036020908152918190205490516001600160a01b039091168152f35b828434610d58576020366003190112610d58576001600160a01b03906110e9908390836110b1611936565b168152601060205220916001818454169301541692519283928390602090939293604083019460018060a01b03809216845216910152565b0390f35b50503461025d57602036600319011261025d576110e99061110f610fd2611936565b955194151585526001600160a01b0393841660208601529183166040850152909116606083015260ff908116608083015290911660a082015290819060c0820190565b919050346103bc5760203660031901126103bc57813591838052600560205281842033855260205261118960ff8386205416611f0a565b82600e54146111c45750816020917f50e01964a144ee7e40d80d0792ff2641558654ef906fd81502421f22bf6ca92c93600e5551908152a180f35b606491519062461bcd60e51b825260208183015260248201526373616d6560e01b6044820152fd5b83833461025d57608036600319011261025d57611207611936565b61120f611951565b9260443560643567ffffffffffffffff81116103bc576112329036908801611967565b600854336001600160a01b03918216149791949188158061151c575b6115055781309116036114ee5760148511156114d7576014833560601c930194601319019561127c84612283565b838352602098600f8a52828985205460081c166114c05761129c856122a5565b50156114a95715611464578160095416916008541690600e54861061144d57856112c8913090846128b0565b8751636eb1769f60e11b815230818c019081526001600160a01b03841660208201528a90829081906040010381855afa908115611443579086918591611412575b50106113bc575b50878460248b858b51958694859363e34869d760e01b85528401525af19081156113b2578291611395575b501561137e57633b9aca009283810293818504149015171561136b5750611364949596506124e0565b5160018152f35b634e487b7160e01b815260118852602490fd5b855163472ed10360e01b81526007818a0152602490fd5b6113ac9150883d8a11610a8757610a788183611d5c565b8961133b565b87513d84823e3d90fd5b888260448c868c51958694859363095ea7b360e01b855284015260001960248401525af1801561140857156113105761140190893d8b11610a8757610a788183611d5c565b5089611310565b88513d85823e3d90fd5b8092508b8092503d831161143c575b61142b8183611d5c565b810103126103b8578590518c611309565b503d611421565b89513d86823e3d90fd5b885163472ed10360e01b81526006818d0152602490fd5b91506009541697600e54633b9aca0085041061149257508261148d969798610b7a9230916128b0565b611364565b602490600688519163472ed10360e01b8352820152fd5b885163472ed10360e01b81526005818d0152602490fd5b885163472ed10360e01b8152808c018c9052602490fd5b86516350f1c44960e11b81526003818b0152602490fd5b86516350f1c44960e11b81526002818b0152602490fd5b87516350f1c44960e11b81526001818c0152602490fd5b50816009541633141561124e565b50503461025d578160031936011261025d57600a5490516001600160a01b039091168152602090f35b8391503461025d578260031936011261025d5761156e611951565b90336001600160a01b0383160361158a57906102ef9135611e6d565b608490602085519162461bcd60e51b8352820152602f60248201527f416363657373436f6e74726f6c3a2063616e206f6e6c792072656e6f756e636560448201526e103937b632b9903337b91039b2b63360891b6064820152fd5b9050346103bc57602091826003193601126103b857611602611936565b6006546001600160a01b0394919061161d9086163314611f61565b6011549461162e60ff871615611fac565b600160ff1980971617601155808216808852600f8452848820600186519161165583611d0e565b5491848760ff851692838152019360081c168352036117565790827f14280f6eab1c847215d9714b0aa6711ad26e21304f06a85a46ad07a1f11e8370925116895260108552826001878b200154169384916116af83612283565b8a52600f8652868a2080548a16600217905586516001600160a01b03918216815291166020820152604090a1600c541691835190810191634a39e57f60e11b83526024820152602481526060810181811067ffffffffffffffff82111761174357845251869283929083905af1611724611fde565b50156117365750506011541660115580f35b516316a6ca0960e21b8152fd5b634e487b7160e01b885260418652602488fd5b855163c84d787560e01b81528790fd5b9050346103bc57816003193601126103bc573590611782611951565b90828452600560205261179a600182862001546119d2565b828452600560209081528185206001600160a01b039093168086529290528084205460ff16156117c8578380f35b82845260056020528084208285526020528320600160ff1982541617905533917f2f8788117e7eff1d82e926ec794901d17c78024a50270940304540a733656f0d8480a43880808380f35b50503461025d57602036600319011261025d5760ff81602093611834611936565b818052600586528282206001600160a01b039091168252855220549151911615158152f35b9050346103bc5760203660031901126103bc5781602093600192358152600585522001549051908152f35b8334610d58576020366003190112610d58576102ef6118a1611936565b6118ad61028a33611995565b611d7e565b849184346103b85760203660031901126103b85781359063ffffffff60e01b821680920361193257602094637965db0b60e01b83149384156118f9575b5050505015158152f35b6301ffc9a760e01b841494509192909190841561191e575b50505050838080806118ef565b60ff94508252855220541683808080611911565b8480fd5b600435906001600160a01b038216820361194c57565b600080fd5b602435906001600160a01b038216820361194c57565b9181601f8401121561194c5782359167ffffffffffffffff831161194c576020838186019501011161194c57565b6001600160a01b031660009081527f05b8ccbb9d4d8fb16ea74ce3c29a41f1b461fbdaff4714a0d9a8eb05499746bc602052604090205460ff1690565b60009080825260209060058252604090818420338552835260ff8285205416156119fc5750505050565b815193336060860167ffffffffffffffff811187821017611cd7578452602a86528486019284368537865115611bef5760308453865191600192831015611cc3576078602189015360295b838111611c595750611c1757845191611a5f83611d40565b60428352868301936060368637835115611c0357603085538351821015611c035790607860218501536041915b818311611b9557505050611b535792611b216048611b129794611b45946044989785519a8b93611ae98b86019a7f416363657373436f6e74726f6c3a206163636f756e74200000000000000000008c525180926037880190611ceb565b8401917001034b99036b4b9b9b4b733903937b6329607d1b603784015251809386840190611ceb565b01036028810189520187611d5c565b5194859362461bcd60e51b8552600485015251809281602486015285850190611ceb565b601f01601f19168101030190fd5b60648585519062461bcd60e51b825280600483015260248201527f537472696e67733a20686578206c656e67746820696e73756666696369656e746044820152fd5b909192600f81166010811015611bef576f181899199a1a9b1b9c1cb0b131b232b360811b901a611bc58587611ee3565b5360041c928015611bdb57600019019190611a8c565b634e487b7160e01b82526011600452602482fd5b634e487b7160e01b83526032600452602483fd5b634e487b7160e01b81526032600452602490fd5b60648686519062461bcd60e51b825280600483015260248201527f537472696e67733a20686578206c656e67746820696e73756666696369656e746044820152fd5b90600f81166010811015611caf576f181899199a1a9b1b9c1cb0b131b232b360811b901a611c87838b611ee3565b5360041c908015611c9b5760001901611a47565b634e487b7160e01b85526011600452602485fd5b634e487b7160e01b86526032600452602486fd5b634e487b7160e01b84526032600452602484fd5b634e487b7160e01b83526041600452602483fd5b60005b838110611cfe5750506000910152565b8181015183820152602001611cee565b6040810190811067ffffffffffffffff821117611d2a57604052565b634e487b7160e01b600052604160045260246000fd5b6080810190811067ffffffffffffffff821117611d2a57604052565b90601f8019910116810190811067ffffffffffffffff821117611d2a57604052565b6001600160a01b0316338103611e105760008181527f05b8ccbb9d4d8fb16ea74ce3c29a41f1b461fbdaff4714a0d9a8eb05499746bc602052604081205490919060ff16611dca575050565b8180526005602052604082208183526020526040822060ff19815416905533917ff6391f5c32d9c69d2a47ea670b442974b53935d1edc7fd64eb21e047a839171b8180a4565b60405162461bcd60e51b815260206004820152602f60248201527f416363657373436f6e74726f6c3a2063616e206f6e6c792072656e6f756e636560448201526e103937b632b9903337b91039b2b63360891b6064820152608490fd5b906000918083526005602052604083209160018060a01b03169182845260205260ff604084205416611e9e57505050565b8083526005602052604083208284526020526040832060ff1981541690557ff6391f5c32d9c69d2a47ea670b442974b53935d1edc7fd64eb21e047a839171b339380a4565b908151811015611ef4570160200190565b634e487b7160e01b600052603260045260246000fd5b15611f1157565b60405162461bcd60e51b815260206004820152602260248201527f41636365737369626c653a2043616c6c6572206973206e6f7420616e2061646d60448201526134b760f11b6064820152608490fd5b15611f6857565b606460405162461bcd60e51b815260206004820152602060248201527f73656e646572206973206e6f742061204c3142726964676552656769737472796044820152fd5b15611fb357565b606460405162461bcd60e51b81526020600482015260046024820152636c6f636b60e01b6044820152fd5b3d15612019573d9067ffffffffffffffff8211611d2a576040519161200d601f8201601f191660200184611d5c565b82523d6000602084013e565b606090565b9081602091031261194c575160ff8116810361194c5790565b9081602091031261194c57516001600160a01b038116810361194c5790565b6006546040805163391e3b3760e01b81526001600160a01b03938416600482018190526000958695869586959082169386929060209081886024818a5afa97881561227957859861224a575b5087818652600f835260ff858720541697600189146120c5575b50505050505050565b855163078f29cf60e01b8152908482600481875afa918215612240578892612221575b50858216612188575b505060ff16600214612105575b80806120bc565b9080600492859d96979d5193848092630a49cb0360e01b82525afa93841561217f57508593612150575b50508116612145575050955b38808080806120fe565b91509694509361213b565b612170929350803d10612178575b6121688183611d5c565b810190612037565b90388061212f565b503d61215e565b513d87823e3d90fd5b60ff831660018114908115612216575b506121ba575b50848b166121ad575b806120f1565b60019d509b5060ff6121a7565b6024919b5084908751928380926312dea97560e21b82528760048301525afa90811561220c5787916121ef575b50993861219e565b6122069150843d8611612178576121688183611d5c565b386121e7565b86513d89823e3d90fd5b600291501438612198565b612239919250853d8711612178576121688183611d5c565b90386120e8565b87513d8a823e3d90fd5b61226b919850823d8411612272575b6122638183611d5c565b81019061201e565b96386120a2565b503d612259565b84513d87823e3d90fd5b6001600160a01b03161561229357565b604051633efa09af60e01b8152600490fd5b6000916000918260018060a01b0390818060065416604094855192839163391e3b3760e01b8352169182600483015281602460209586935afa90811561249d57839160ff918691612480575b5016600181036123dd5750855163078f29cf60e01b815291829060049082905afa9081156123d35790849184916123b6575b50169283612333575b5050505050565b90929496508291939550600854169360248651809681936370a0823160e01b835260048301525afa9384156123ab5750819361237a575b505050600191388080808061232c565b9091809350813d83116123a4575b6123928183611d5c565b81010312610d5857505138808061236a565b503d612388565b51913d9150823e3d90fd5b6123cd9150833d8511612178576121688183611d5c565b38612323565b85513d85823e3d90fd5b60029150146123ed575050505050565b81600491865192838092630a49cb0360e01b82525afa9081156123d3579084918491612463575b501692831561232c5790929496508291939550600854169360248651809681936370a0823160e01b835260048301525afa9384156123ab5750819361237a57505050600191388080808061232c565b61247a9150833d8511612178576121688183611d5c565b38612414565b6124979150833d8511612272576122638183611d5c565b386122f1565b86513d86823e3d90fd5b9081602091031261194c5751801515810361194c5790565b908060209392818452848401376000828201840152601f01601f1916010190565b9092919260018060a01b03908160075416916040938185519163f802ead360e01b83521691600496838884015260209360249985858c816000809c5af19485156128a6578895612887575b508385169081156128715781895260108752848a8a20541661285b579084939291878b8d8f98600a5416908d8351809b81958294634892afd360e01b84528301528861257b604484018d8b6124bf565b9183015203925af1958615612851579088918b97612832575b508a8c87808251926125a584611d0e565b88845286840194828d16978887528982526010905220925116916bffffffffffffffffffffffff60a01b9283825416178155600101925116908254161790558b516125ef81611d0e565b60018152898101848152858d52600f8b528d8d20915160ff16825491600160a81b6101009003905160081b16916affffffffffffffffffffff60a81b16171790558b5194859485528a8a8601528c850160a0905260a0850190612651926124bf565b9160608401526080830152037f3685763fd42e5061ff53b001782ad759eafbc93a460b368a4ce42228ec45da9891a1600954600b548851636eb1769f60e11b8152308b82019081529184166001600160a01b0381166020840152928416918790829081906040010381855afa90811561282857898d938a8a99989796948f9484916127e7575b501061277d575b5050505050600b54169086896127248a5198899687958694638340f54960e01b8652850160409194939294606082019560018060a01b0380921683521660208201520152565b03925af19283156127725792612755575b50501561274157505050565b600390519163472ed10360e01b8352820152fd5b61276b9250803d10610a8757610a788183611d5c565b3880612735565b8451903d90823e3d90fd5b90604492918d99959697989951968795869463095ea7b360e01b8652850152600019908401525af180156127dd579085949392916127c0575b808a898d936126de565b6127d690853d8711610a8757610a788183611d5c565b50386127b6565b88513d89823e3d90fd5b959798999a9450505093505081813d8311612821575b6128078183611d5c565b8101031261053f57918a898d938a8a9998979651386126d7565b503d6127fd565b8a513d8b823e3d90fd5b61284a919750823d8411612178576121688183611d5c565b9538612594565b8b513d8c823e3d90fd5b895163472ed10360e01b81526002818d01528c90fd5b895163472ed10360e01b81526001818d01528c90fd5b61289f919550863d8811612178576121688183611d5c565b933861252b565b89513d8a823e3d90fd5b6040516323b872dd60e01b602082019081526001600160a01b0393841660248301529390921660448301526064808301949094529281526000928392909183906128fb608482611d5c565b51926001600160a01b03165af1612910611fde565b8161295a575b501561291e57565b60405162461bcd60e51b81526020600482015260146024820152731514905394d1915497d19493d357d1905253115160621b6044820152606490fd5b805180159250821561296f575b505038612916565b61298292506020809183010191016124a7565b388061296756fea164736f6c6343000813000a",
  "linkReferences": {},
  "deployedLinkReferences": {}
}