{
  "_format": "hh-sol-artifact-1",
  "contractName": "Layer2ManagerV1_1",
  "sourceName": "contracts/layer2/Layer2ManagerV1_1.sol",
  "abi": [
    {
      "inputs": [],
      "stateMutability": "nonpayable",
      "type": "constructor"
    },
    {
      "inputs": [],
      "name": "ExcludeError",
      "type": "error"
    },
    {
      "inputs": [
        {
          "internalType": "uint256",
          "name": "x",
          "type": "uint256"
        }
      ],
      "name": "OnApproveError",
      "type": "error"
    },
    {
      "inputs": [
        {
          "internalType": "uint256",
          "name": "x",
          "type": "uint256"
        }
      ],
      "name": "RegisterError",
      "type": "error"
    },
    {
      "inputs": [],
      "name": "StatusError",
      "type": "error"
    },
    {
      "inputs": [],
      "name": "ZeroAddressError",
      "type": "error"
    },
    {
      "inputs": [],
      "name": "ZeroBytesError",
      "type": "error"
    },
    {
      "anonymous": false,
      "inputs": [
        {
          "indexed": false,
          "internalType": "address",
          "name": "rollupConfig",
          "type": "address"
        },
        {
          "indexed": false,
          "internalType": "address",
          "name": "candidateAddOn",
          "type": "address"
        }
      ],
      "name": "PausedCandidateAddOn",
      "type": "event"
    },
    {
      "anonymous": false,
      "inputs": [
        {
          "indexed": false,
          "internalType": "address",
          "name": "rollupConfig",
          "type": "address"
        },
        {
          "indexed": false,
          "internalType": "uint256",
          "name": "wtonAmount",
          "type": "uint256"
        },
        {
          "indexed": false,
          "internalType": "string",
          "name": "memo",
          "type": "string"
        },
        {
          "indexed": false,
          "internalType": "address",
          "name": "operator",
          "type": "address"
        },
        {
          "indexed": false,
          "internalType": "address",
          "name": "candidateAddOn",
          "type": "address"
        }
      ],
      "name": "RegisteredCandidateAddOn",
      "type": "event"
    },
    {
      "anonymous": false,
      "inputs": [
        {
          "indexed": true,
          "internalType": "bytes32",
          "name": "role",
          "type": "bytes32"
        },
        {
          "indexed": true,
          "internalType": "bytes32",
          "name": "previousAdminRole",
          "type": "bytes32"
        },
        {
          "indexed": true,
          "internalType": "bytes32",
          "name": "newAdminRole",
          "type": "bytes32"
        }
      ],
      "name": "RoleAdminChanged",
      "type": "event"
    },
    {
      "anonymous": false,
      "inputs": [
        {
          "indexed": true,
          "internalType": "bytes32",
          "name": "role",
          "type": "bytes32"
        },
        {
          "indexed": true,
          "internalType": "address",
          "name": "account",
          "type": "address"
        },
        {
          "indexed": true,
          "internalType": "address",
          "name": "sender",
          "type": "address"
        }
      ],
      "name": "RoleGranted",
      "type": "event"
    },
    {
      "anonymous": false,
      "inputs": [
        {
          "indexed": true,
          "internalType": "bytes32",
          "name": "role",
          "type": "bytes32"
        },
        {
          "indexed": true,
          "internalType": "address",
          "name": "account",
          "type": "address"
        },
        {
          "indexed": true,
          "internalType": "address",
          "name": "sender",
          "type": "address"
        }
      ],
      "name": "RoleRevoked",
      "type": "event"
    },
    {
      "anonymous": false,
      "inputs": [
        {
          "indexed": false,
          "internalType": "address",
          "name": "_l2Register",
          "type": "address"
        },
        {
          "indexed": false,
          "internalType": "address",
          "name": "_operatorManagerFactory",
          "type": "address"
        },
        {
          "indexed": false,
          "internalType": "address",
          "name": "_ton",
          "type": "address"
        },
        {
          "indexed": false,
          "internalType": "address",
          "name": "_wton",
          "type": "address"
        },
        {
          "indexed": false,
          "internalType": "address",
          "name": "_dao",
          "type": "address"
        },
        {
          "indexed": false,
          "internalType": "address",
          "name": "_depositManager",
          "type": "address"
        },
        {
          "indexed": false,
          "internalType": "address",
          "name": "_seigManager",
          "type": "address"
        },
        {
          "indexed": false,
          "internalType": "address",
          "name": "_swapProxy",
          "type": "address"
        }
      ],
      "name": "SetAddresses",
      "type": "event"
    },
    {
      "anonymous": false,
      "inputs": [
        {
          "indexed": false,
          "internalType": "uint256",
          "name": "_minimumInitialDepositAmount",
          "type": "uint256"
        }
      ],
      "name": "SetMinimumInitialDepositAmount",
      "type": "event"
    },
    {
      "anonymous": false,
      "inputs": [
        {
          "indexed": false,
          "internalType": "address",
          "name": "rollupConfig",
          "type": "address"
        },
        {
          "indexed": false,
          "internalType": "address",
          "name": "candidateAddOn",
          "type": "address"
        }
      ],
      "name": "UnpausedCandidateAddOn",
      "type": "event"
    },
    {
      "inputs": [],
      "name": "DEFAULT_ADMIN_ROLE",
      "outputs": [
        {
          "internalType": "bytes32",
          "name": "",
          "type": "bytes32"
        }
      ],
      "stateMutability": "view",
      "type": "function"
    },
    {
      "inputs": [],
      "name": "MINTER_ROLE",
      "outputs": [
        {
          "internalType": "bytes32",
          "name": "",
          "type": "bytes32"
        }
      ],
      "stateMutability": "view",
      "type": "function"
    },
    {
      "inputs": [
        {
          "internalType": "address",
          "name": "_rollupConfig",
          "type": "address"
        }
      ],
      "name": "_checkL1BridgeDetail",
      "outputs": [
        {
          "internalType": "bool",
          "name": "result",
          "type": "bool"
        },
        {
          "internalType": "address",
          "name": "l1Bridge",
          "type": "address"
        },
        {
          "internalType": "address",
          "name": "portal",
          "type": "address"
        },
        {
          "internalType": "address",
          "name": "l2Ton",
          "type": "address"
        },
        {
          "internalType": "uint8",
          "name": "_type",
          "type": "uint8"
        },
        {
          "internalType": "uint8",
          "name": "status",
          "type": "uint8"
        }
      ],
      "stateMutability": "view",
      "type": "function"
    },
    {
      "inputs": [
        {
          "internalType": "address",
          "name": "account",
          "type": "address"
        }
      ],
      "name": "addAdmin",
      "outputs": [],
      "stateMutability": "nonpayable",
      "type": "function"
    },
    {
      "inputs": [
        {
          "internalType": "address",
          "name": "",
          "type": "address"
        }
      ],
      "name": "aliveImplementation",
      "outputs": [
        {
          "internalType": "bool",
          "name": "",
          "type": "bool"
        }
      ],
      "stateMutability": "view",
      "type": "function"
    },
    {
      "inputs": [
        {
          "internalType": "address",
          "name": "_oper",
          "type": "address"
        }
      ],
      "name": "candidateAddOnOfOperator",
      "outputs": [
        {
          "internalType": "address",
          "name": "",
          "type": "address"
        }
      ],
      "stateMutability": "view",
      "type": "function"
    },
    {
      "inputs": [
        {
          "internalType": "address",
          "name": "_rollupConfig",
          "type": "address"
        }
      ],
      "name": "checkL1Bridge",
      "outputs": [
        {
          "internalType": "bool",
          "name": "result",
          "type": "bool"
        },
        {
          "internalType": "address",
          "name": "l1Bridge",
          "type": "address"
        },
        {
          "internalType": "address",
          "name": "portal",
          "type": "address"
        },
        {
          "internalType": "address",
          "name": "l2Ton",
          "type": "address"
        }
      ],
      "stateMutability": "view",
      "type": "function"
    },
    {
      "inputs": [
        {
          "internalType": "address",
          "name": "_rollupConfig",
          "type": "address"
        }
      ],
      "name": "checkL1BridgeDetail",
      "outputs": [
        {
          "internalType": "bool",
          "name": "result",
          "type": "bool"
        },
        {
          "internalType": "address",
          "name": "l1Bridge",
          "type": "address"
        },
        {
          "internalType": "address",
          "name": "portal",
          "type": "address"
        },
        {
          "internalType": "address",
          "name": "l2Ton",
          "type": "address"
        },
        {
          "internalType": "uint8",
          "name": "_type",
          "type": "uint8"
        },
        {
          "internalType": "uint8",
          "name": "status",
          "type": "uint8"
        }
      ],
      "stateMutability": "view",
      "type": "function"
    },
    {
      "inputs": [
        {
          "internalType": "address",
          "name": "_rollupConfig",
          "type": "address"
        }
      ],
      "name": "checkLayer2TVL",
      "outputs": [
        {
          "internalType": "bool",
          "name": "result",
          "type": "bool"
        },
        {
          "internalType": "uint256",
          "name": "amount",
          "type": "uint256"
        }
      ],
      "stateMutability": "view",
      "type": "function"
    },
    {
      "inputs": [],
      "name": "dao",
      "outputs": [
        {
          "internalType": "address",
          "name": "",
          "type": "address"
        }
      ],
      "stateMutability": "view",
      "type": "function"
    },
    {
      "inputs": [],
      "name": "depositManager",
      "outputs": [
        {
          "internalType": "address",
          "name": "",
          "type": "address"
        }
      ],
      "stateMutability": "view",
      "type": "function"
    },
    {
      "inputs": [
        {
          "internalType": "bytes32",
          "name": "role",
          "type": "bytes32"
        }
      ],
      "name": "getRoleAdmin",
      "outputs": [
        {
          "internalType": "bytes32",
          "name": "",
          "type": "bytes32"
        }
      ],
      "stateMutability": "view",
      "type": "function"
    },
    {
      "inputs": [
        {
          "internalType": "bytes32",
          "name": "role",
          "type": "bytes32"
        },
        {
          "internalType": "address",
          "name": "account",
          "type": "address"
        }
      ],
      "name": "grantRole",
      "outputs": [],
      "stateMutability": "nonpayable",
      "type": "function"
    },
    {
      "inputs": [
        {
          "internalType": "bytes32",
          "name": "role",
          "type": "bytes32"
        },
        {
          "internalType": "address",
          "name": "account",
          "type": "address"
        }
      ],
      "name": "hasRole",
      "outputs": [
        {
          "internalType": "bool",
          "name": "",
          "type": "bool"
        }
      ],
      "stateMutability": "view",
      "type": "function"
    },
    {
      "inputs": [
        {
          "internalType": "address",
          "name": "account",
          "type": "address"
        }
      ],
      "name": "isAdmin",
      "outputs": [
        {
          "internalType": "bool",
          "name": "",
          "type": "bool"
        }
      ],
      "stateMutability": "view",
      "type": "function"
    },
    {
      "inputs": [],
      "name": "isOwner",
      "outputs": [
        {
          "internalType": "bool",
          "name": "",
          "type": "bool"
        }
      ],
      "stateMutability": "view",
      "type": "function"
    },
    {
      "inputs": [],
      "name": "l1BridgeRegistry",
      "outputs": [
        {
          "internalType": "address",
          "name": "",
          "type": "address"
        }
      ],
      "stateMutability": "view",
      "type": "function"
    },
    {
      "inputs": [],
      "name": "minimumInitialDepositAmount",
      "outputs": [
        {
          "internalType": "uint256",
          "name": "",
          "type": "uint256"
        }
      ],
      "stateMutability": "view",
      "type": "function"
    },
    {
      "inputs": [
        {
          "internalType": "address",
          "name": "owner",
          "type": "address"
        },
        {
          "internalType": "address",
          "name": "spender",
          "type": "address"
        },
        {
          "internalType": "uint256",
          "name": "amount",
          "type": "uint256"
        },
        {
          "internalType": "bytes",
          "name": "data",
          "type": "bytes"
        }
      ],
      "name": "onApprove",
      "outputs": [
        {
          "internalType": "bool",
          "name": "",
          "type": "bool"
        }
      ],
      "stateMutability": "nonpayable",
      "type": "function"
    },
    {
      "inputs": [
        {
          "internalType": "address",
          "name": "",
          "type": "address"
        }
      ],
      "name": "operatorInfo",
      "outputs": [
        {
          "internalType": "address",
          "name": "rollupConfig",
          "type": "address"
        },
        {
          "internalType": "address",
          "name": "candidateAddOn",
          "type": "address"
        }
      ],
      "stateMutability": "view",
      "type": "function"
    },
    {
      "inputs": [],
      "name": "operatorManagerFactory",
      "outputs": [
        {
          "internalType": "address",
          "name": "",
          "type": "address"
        }
      ],
      "stateMutability": "view",
      "type": "function"
    },
    {
      "inputs": [
        {
          "internalType": "address",
          "name": "_rollupConfig",
          "type": "address"
        }
      ],
      "name": "operatorOfRollupConfig",
      "outputs": [
        {
          "internalType": "address",
          "name": "",
          "type": "address"
        }
      ],
      "stateMutability": "view",
      "type": "function"
    },
    {
      "inputs": [
        {
          "internalType": "address",
          "name": "rollupConfig",
          "type": "address"
        }
      ],
      "name": "pauseCandidateAddOn",
      "outputs": [],
      "stateMutability": "nonpayable",
      "type": "function"
    },
    {
      "inputs": [],
      "name": "pauseProxy",
      "outputs": [
        {
          "internalType": "bool",
          "name": "",
          "type": "bool"
        }
      ],
      "stateMutability": "view",
      "type": "function"
    },
    {
      "inputs": [
        {
          "internalType": "uint256",
          "name": "",
          "type": "uint256"
        }
      ],
      "name": "proxyImplementation",
      "outputs": [
        {
          "internalType": "address",
          "name": "",
          "type": "address"
        }
      ],
      "stateMutability": "view",
      "type": "function"
    },
    {
      "inputs": [
        {
          "internalType": "address",
          "name": "rollupConfig",
          "type": "address"
        },
        {
          "internalType": "uint256",
          "name": "amount",
          "type": "uint256"
        },
        {
          "internalType": "bool",
          "name": "flagTon",
          "type": "bool"
        },
        {
          "internalType": "string",
          "name": "memo",
          "type": "string"
        }
      ],
      "name": "registerCandidateAddOn",
      "outputs": [],
      "stateMutability": "nonpayable",
      "type": "function"
    },
    {
      "inputs": [
        {
          "internalType": "address",
          "name": "account",
          "type": "address"
        }
      ],
      "name": "removeAdmin",
      "outputs": [],
      "stateMutability": "nonpayable",
      "type": "function"
    },
    {
      "inputs": [],
      "name": "renounceOwnership",
      "outputs": [],
      "stateMutability": "nonpayable",
      "type": "function"
    },
    {
      "inputs": [
        {
          "internalType": "bytes32",
          "name": "role",
          "type": "bytes32"
        },
        {
          "internalType": "address",
          "name": "account",
          "type": "address"
        }
      ],
      "name": "renounceRole",
      "outputs": [],
      "stateMutability": "nonpayable",
      "type": "function"
    },
    {
      "inputs": [
        {
          "internalType": "bytes32",
          "name": "role",
          "type": "bytes32"
        },
        {
          "internalType": "address",
          "name": "account",
          "type": "address"
        }
      ],
      "name": "revokeRole",
      "outputs": [],
      "stateMutability": "nonpayable",
      "type": "function"
    },
    {
      "inputs": [
        {
          "internalType": "address",
          "name": "",
          "type": "address"
        }
      ],
      "name": "rollupConfigInfo",
      "outputs": [
        {
          "internalType": "uint8",
          "name": "status",
          "type": "uint8"
        },
        {
          "internalType": "address",
          "name": "operatorManager",
          "type": "address"
        }
      ],
      "stateMutability": "view",
      "type": "function"
    },
    {
      "inputs": [
        {
          "internalType": "address",
          "name": "_oper",
          "type": "address"
        }
      ],
      "name": "rollupConfigOfOperator",
      "outputs": [
        {
          "internalType": "address",
          "name": "",
          "type": "address"
        }
      ],
      "stateMutability": "view",
      "type": "function"
    },
    {
      "inputs": [],
      "name": "seigManager",
      "outputs": [
        {
          "internalType": "address",
          "name": "",
          "type": "address"
        }
      ],
      "stateMutability": "view",
      "type": "function"
    },
    {
      "inputs": [
        {
          "internalType": "bytes4",
          "name": "",
          "type": "bytes4"
        }
      ],
      "name": "selectorImplementation",
      "outputs": [
        {
          "internalType": "address",
          "name": "",
          "type": "address"
        }
      ],
      "stateMutability": "view",
      "type": "function"
    },
    {
      "inputs": [
        {
          "internalType": "address",
          "name": "_l1BridgeRegistry",
          "type": "address"
        },
        {
          "internalType": "address",
          "name": "_operatorManagerFactory",
          "type": "address"
        },
        {
          "internalType": "address",
          "name": "_ton",
          "type": "address"
        },
        {
          "internalType": "address",
          "name": "_wton",
          "type": "address"
        },
        {
          "internalType": "address",
          "name": "_dao",
          "type": "address"
        },
        {
          "internalType": "address",
          "name": "_depositManager",
          "type": "address"
        },
        {
          "internalType": "address",
          "name": "_seigManager",
          "type": "address"
        },
        {
          "internalType": "address",
          "name": "_swapProxy",
          "type": "address"
        }
      ],
      "name": "setAddresses",
      "outputs": [],
      "stateMutability": "nonpayable",
      "type": "function"
    },
    {
      "inputs": [
        {
          "internalType": "uint256",
          "name": "_minimumInitialDepositAmount",
          "type": "uint256"
        }
      ],
      "name": "setMinimumInitialDepositAmount",
      "outputs": [],
      "stateMutability": "nonpayable",
      "type": "function"
    },
    {
      "inputs": [
        {
          "internalType": "address",
          "name": "_rollupConfig",
          "type": "address"
        }
      ],
      "name": "statusLayer2",
      "outputs": [
        {
          "internalType": "uint8",
          "name": "",
          "type": "uint8"
        }
      ],
      "stateMutability": "view",
      "type": "function"
    },
    {
      "inputs": [
        {
          "internalType": "bytes4",
          "name": "interfaceId",
          "type": "bytes4"
        }
      ],
      "name": "supportsInterface",
      "outputs": [
        {
          "internalType": "bool",
          "name": "",
          "type": "bool"
        }
      ],
      "stateMutability": "view",
      "type": "function"
    },
    {
      "inputs": [],
      "name": "swapProxy",
      "outputs": [
        {
          "internalType": "address",
          "name": "",
          "type": "address"
        }
      ],
      "stateMutability": "view",
      "type": "function"
    },
    {
      "inputs": [],
      "name": "ton",
      "outputs": [
        {
          "internalType": "address",
          "name": "",
          "type": "address"
        }
      ],
      "stateMutability": "view",
      "type": "function"
    },
    {
      "inputs": [
        {
          "internalType": "address",
          "name": "newAdmin",
          "type": "address"
        }
      ],
      "name": "transferAdmin",
      "outputs": [],
      "stateMutability": "nonpayable",
      "type": "function"
    },
    {
      "inputs": [
        {
          "internalType": "address",
          "name": "newAdmin",
          "type": "address"
        }
      ],
      "name": "transferOwnership",
      "outputs": [],
      "stateMutability": "nonpayable",
      "type": "function"
    },
    {
      "inputs": [
        {
          "internalType": "address",
          "name": "rollupConfig",
          "type": "address"
        }
      ],
      "name": "unpauseCandidateAddOn",
      "outputs": [],
      "stateMutability": "nonpayable",
      "type": "function"
    },
    {
      "inputs": [
        {
          "internalType": "address",
          "name": "rollupConfig",
          "type": "address"
        },
        {
          "internalType": "uint256",
          "name": "amount",
          "type": "uint256"
        }
      ],
      "name": "updateSeigniorage",
      "outputs": [],
      "stateMutability": "nonpayable",
      "type": "function"
    },
    {
      "inputs": [],
      "name": "wton",
      "outputs": [
        {
          "internalType": "address",
          "name": "",
          "type": "address"
        }
      ],
      "stateMutability": "view",
      "type": "function"
    }
  ],
  "bytecode": "0x6080806040523461001657612906908161001c8239f35b600080fdfe608060408181526004918236101561001657600080fd5b600092833560e01c91826301ffc9a714611822575081631785f53c146117f4578163248a9ca3146117c957816324d7806c146117835781632e0f17751461105d5781632f2ff15d146116d657816332d89cc61461155557816336568abe146114c35781634162169f1461149a5781634273ca161461115c5781634318dc1d146110c25781634cdf7b161461105d57816350c246d614610ff657816350d2a27614610fb2578163550d01a314610f7457816358bf884f14610f2157816363a8fd8914610eff5781636c7ac9d814610ed65781636ec4be9014610ead5781636fb7f55814610e845781637048027514610dcf578163715018a614610da957816372898c2314610d6357816375829def14610d4657816379a0e6ea14610d0a5781637bae05f114610ccb57816389c0db6214610c965781638d62d94914610c6d5781638f32d59b14610c3a57816391d1485414610bf3578163a217fddf14610bd8578163a37d6aa714610b9d578163aba8e57714610b74578163b911135f14610b41578163c04a0a4214610854578163c5f16b891461071b578163cc48b947146106f2578163cf8f9110146106c9578163d523c077146105be578163d539139314610583578163d547741f1461054757838263d733cfd0146103d457508163e9d6ec4f146103b5578163f2fde38b14610256575063ff600b691461021657600080fd5b34610252576020366003190112610252576020916001600160a01b039082908261023e6118a6565b168152600f8552205460081c169051908152f35b5080fd5b919050346103b1576020806003193601126103ad576102736118a6565b61028461027f33611905565b611e7a565b61029061027f33611905565b6001600160a01b031692831561036c578333146103325750838052600581526102be60018386200154611942565b83805260058152818420838552815260ff8285205416156102e7575b836102e433611cee565b80f35b8380526005815281842083855290528220805460ff191660011790553390827f2f8788117e7eff1d82e926ec794901d17c78024a50270940304540a733656f0d8180a43880806102da565b915162461bcd60e51b815291820152601660248201527520b1b1b2b9b9b4b136329d1039b0b6b29030b236b4b760511b6044820152606490fd5b915162461bcd60e51b815291820152601860248201527f41636365737369626c653a207a65726f206164647265737300000000000000006044820152606490fd5b8380fd5b8280fd5b505034610252578160031936011261025257602090600e549051908152f35b808434610544576101009081600319360112610540576103f26118a6565b6103fa6118c1565b6001600160a01b03926044358481169081900361053c5760643585811680910361053857608435918683168093036105345760a435938785168095036105305760c4359588871680970361052c5760e435978989168099036105285789899161049b60ff7f617f1cba5d7b9d5d3c81f0d5c78720ec2be227878bac84c0851b70e4cf61cb089f80808992526005602052818120338252602052205416611e7a565b16996bffffffffffffffffffffffff60a01b928b84600654161760065516918281600754161760075584816008541617600855858160095416176009558681600a541617600a558781600b541617600b558881600c541617600c55600d541617600d55815198895260208901528701526060860152608085015260a084015260c083015260e0820152a180f35b8b80fd5b8a80fd5b8980fd5b8880fd5b8780fd5b8680fd5b5050fd5b50fd5b919050346103b157806003193601126103b1576102e4913561057e600161056c6118c1565b93838752600560205286200154611942565b611ddd565b505034610252578160031936011261025257602090517ff0887ba65ee2024ea881d91b74c2450ef19e1557f03bed3ea9f16b037cbe2dc98152f35b919050346103b15760203660031901126103b1576105da6118a6565b6006546001600160a01b03906105f39082163314611ed1565b6011549361060460ff861615611f1c565b600160ff1980961617601155818316808752600f60205284872091600286519361062d85611c7e565b549385602060ff871692838152019560081c168552036106bb57508652600f6020908152848720805487166001908117909155915183168752601081528487209091015493516001600160a01b03938416815293909116909116908201527faf0a20fb16d60a15e38b6cd70fa0cce0bd2a744265663dfcbc90a02b360caf8090604090a16011541660115580f35b855163c84d787560e01b8152fd5b50503461025257816003193601126102525760065490516001600160a01b039091168152602090f35b50503461025257816003193601126102525760085490516001600160a01b039091168152602090f35b919050346103b157806003193601126103b1576107366118a6565b600c546001600160a01b039081163303610811578491818084936009541692168352600f6020528483205460081c16828551602081019263a9059cbb60e01b8452602482015260243560448201526044815261079181611cb0565b51925af161079d611f4e565b816107e2575b50156107ad578280f35b906020606492519162461bcd60e51b8352820152600f60248201526e1514905394d1915497d19052531151608a1b6044820152fd5b80518015925082156107f7575b5050386107a3565b61080a9250602080918301019101612417565b38806107ef565b825162461bcd60e51b8152602081860152601b60248201527f73656e646572206973206e6f74206120536569674d616e6167657200000000006044820152606490fd5b8383346102525760803660031901126102525761086f6118a6565b602493604435918535918315158403610b3d5760643567ffffffffffffffff811161053c576108a190369083016118d7565b9590946108ad846121f3565b8615610b2f576001600160a01b038481168952600f6020908152838a20549092919060081c8116610b19576108e186612215565b5015610b035760095481169115610ac05760085416600e548710610aaa5761090b87303384612820565b8351636eb1769f60e11b8152308682019081526001600160a01b03841660208201528490829081906040010381855afa908115610aa057918885928d948591610a6b575b5010610a08575b5090918b85518094819363e34869d760e01b83528b8a8401525af19182156109fe5789926109d1575b5050156109bb5750633b9aca00928381029381850414901517156109a957506102e4949550612450565b634e487b7160e01b8652601190528585fd5b9060078892519163472ed10360e01b8352820152fd5b6109f09250803d106109f7575b6109e88183611ccc565b810190612417565b898061097f565b503d6109de565b83513d8b823e3d90fd5b855163095ea7b360e01b8152878101859052600019818f015292839160449183915af18015610a61579183918b93610a44575b92919092610956565b610a5a90833d85116109f7576109e88183611ccc565b508c610a3b565b84513d8c823e3d90fd5b93929450505081813d8311610a99575b610a858183611ccc565b8101031261052c578a91888592518f61094f565b503d610a7b565b85513d8d823e3d90fd5b835163472ed10360e01b81526006818701528b90fd5b509892919050600e54633b9aca00860410610aef57505050610aea826102e4969730903390612820565b612450565b600690519163472ed10360e01b8352820152fd5b835163472ed10360e01b81526005818701528b90fd5b835163472ed10360e01b81528086018690528b90fd5b505163111dc0fd60e31b8152fd5b8580fd5b9050346103b15760203660031901126103b15735825260016020908152918190205490516001600160a01b039091168152f35b50503461025257816003193601126102525760075490516001600160a01b039091168152602090f35b505034610252576020366003190112610252576020916001600160a01b0390829082610bc76118a6565b168152601085522054169051908152f35b50503461025257816003193601126102525751908152602090f35b9050346103b157816003193601126103b1578160209360ff92610c146118c1565b90358252600586528282206001600160a01b039091168252855220549151911615158152f35b50503461025257816003193601126102525760ff8183806020955260058552818120338252855220541690519015158152f35b50503461025257816003193601126102525760095490516001600160a01b039091168152602090f35b828434610cc8576020366003190112610cc85750610cba610cb56118a6565b612215565b825191151582526020820152f35b80fd5b505034610252576020366003190112610252576020916001600160a01b0390600190839083610cf86118a6565b16815260108652200154169051908152f35b5050346102525760203660031901126102525760209160ff9082906001600160a01b03610d356118a6565b168152600f85522054169051908152f35b919050346103b1576020806003193601126103ad576102846118a6565b828434610cc8576020366003190112610cc8576001600160a01b0390829082610d8a6118a6565b168152600f60205220549082519160ff8116835260081c166020820152f35b8334610cc85780600319360112610cc857610dc661027f33611905565b6102e433611cee565b50503461025257602090816003193601126103b157610dec6118a6565b91610df961027f33611905565b83805260058152610e0f60018386200154611942565b838052600581528184206001600160a01b039093168085529281528184205460ff1615610e3a578380f35b8380526005815281842083855290528220805460ff191660011790553390827f2f8788117e7eff1d82e926ec794901d17c78024a50270940304540a733656f0d8180a43880808380f35b505034610252578160031936011261025257600c5490516001600160a01b039091168152602090f35b505034610252578160031936011261025257600d5490516001600160a01b039091168152602090f35b505034610252578160031936011261025257600b5490516001600160a01b039091168152602090f35b50503461025257816003193601126102525760ff602092541690519015158152f35b50503461025257602036600319011261025257608090610f47610f426118a6565b611fc6565b5050845193151584526001600160a01b039283166020850152908216938301939093529091166060820152f35b5050346102525760203660031901126102525760209160ff9082906001600160a01b03610f9f6118a6565b1681526002855220541690519015158152f35b9050346103b15760203660031901126103b1573563ffffffff60e01b81168091036103b157825260036020908152918190205490516001600160a01b039091168152f35b828434610cc8576020366003190112610cc8576001600160a01b0390611059908390836110216118a6565b168152601060205220916001818454169301541692519283928390602090939293604083019460018060a01b03809216845216910152565b0390f35b505034610252576020366003190112610252576110599061107f610f426118a6565b955194151585526001600160a01b0393841660208601529183166040850152909116606083015260ff908116608083015290911660a082015290819060c0820190565b919050346103b15760203660031901126103b15781359183805260056020528184203385526020526110f960ff8386205416611e7a565b82600e54146111345750816020917f50e01964a144ee7e40d80d0792ff2641558654ef906fd81502421f22bf6ca92c93600e5551908152a180f35b606491519062461bcd60e51b825260208183015260248201526373616d6560e01b6044820152fd5b838334610252576080366003190112610252576111776118a6565b61117f6118c1565b9260443560643567ffffffffffffffff81116103b1576111a290369088016118d7565b600854336001600160a01b03918216149791949188158061148c575b61147557813091160361145e576014851115611447576014833560601c93019460131901956111ec846121f3565b838352602098600f8a52828985205460081c166114305761120c85612215565b501561141957156113d4578160095416916008541690600e5486106113bd578561123891309084612820565b8751636eb1769f60e11b815230818c019081526001600160a01b03841660208201528a90829081906040010381855afa9081156113b3579086918591611382575b501061132c575b50878460248b858b51958694859363e34869d760e01b85528401525af1908115611322578291611305575b50156112ee57633b9aca00928381029381850414901517156112db57506112d494959650612450565b5160018152f35b634e487b7160e01b815260118852602490fd5b855163472ed10360e01b81526007818a0152602490fd5b61131c9150883d8a116109f7576109e88183611ccc565b896112ab565b87513d84823e3d90fd5b888260448c868c51958694859363095ea7b360e01b855284015260001960248401525af1801561137857156112805761137190893d8b116109f7576109e88183611ccc565b5089611280565b88513d85823e3d90fd5b8092508b8092503d83116113ac575b61139b8183611ccc565b810103126103ad578590518c611279565b503d611391565b89513d86823e3d90fd5b885163472ed10360e01b81526006818d0152602490fd5b91506009541697600e54633b9aca008504106114025750826113fd969798610aea923091612820565b6112d4565b602490600688519163472ed10360e01b8352820152fd5b885163472ed10360e01b81526005818d0152602490fd5b885163472ed10360e01b8152808c018c9052602490fd5b86516350f1c44960e11b81526003818b0152602490fd5b86516350f1c44960e11b81526002818b0152602490fd5b87516350f1c44960e11b81526001818c0152602490fd5b5081600954163314156111be565b505034610252578160031936011261025257600a5490516001600160a01b039091168152602090f35b839150346102525782600319360112610252576114de6118c1565b90336001600160a01b038316036114fa57906102e49135611ddd565b608490602085519162461bcd60e51b8352820152602f60248201527f416363657373436f6e74726f6c3a2063616e206f6e6c792072656e6f756e636560448201526e103937b632b9903337b91039b2b63360891b6064820152fd5b9050346103b157602091826003193601126103ad576115726118a6565b6006546001600160a01b0394919061158d9086163314611ed1565b6011549461159e60ff871615611f1c565b600160ff1980971617601155808216808852600f845284882060018651916115c583611c7e565b5491848760ff851692838152019360081c168352036116c65790827f14280f6eab1c847215d9714b0aa6711ad26e21304f06a85a46ad07a1f11e8370925116895260108552826001878b2001541693849161161f836121f3565b8a52600f8652868a2080548a16600217905586516001600160a01b03918216815291166020820152604090a1600c541691835190810191634a39e57f60e11b83526024820152602481526060810181811067ffffffffffffffff8211176116b357845251869283929083905af1611694611f4e565b50156116a65750506011541660115580f35b516316a6ca0960e21b8152fd5b634e487b7160e01b885260418652602488fd5b855163c84d787560e01b81528790fd5b9050346103b157816003193601126103b15735906116f26118c1565b90828452600560205261170a60018286200154611942565b828452600560209081528185206001600160a01b039093168086529290528084205460ff1615611738578380f35b82845260056020528084208285526020528320600160ff1982541617905533917f2f8788117e7eff1d82e926ec794901d17c78024a50270940304540a733656f0d8480a43880808380f35b5050346102525760203660031901126102525760ff816020936117a46118a6565b818052600586528282206001600160a01b039091168252855220549151911615158152f35b9050346103b15760203660031901126103b15781602093600192358152600585522001549051908152f35b8334610cc8576020366003190112610cc8576102e46118116118a6565b61181d61027f33611905565b611cee565b849184346103ad5760203660031901126103ad5781359063ffffffff60e01b82168092036118a257602094637965db0b60e01b8314938415611869575b5050505015158152f35b6301ffc9a760e01b841494509192909190841561188e575b505050508380808061185f565b60ff94508252855220541683808080611881565b8480fd5b600435906001600160a01b03821682036118bc57565b600080fd5b602435906001600160a01b03821682036118bc57565b9181601f840112156118bc5782359167ffffffffffffffff83116118bc57602083818601950101116118bc57565b6001600160a01b031660009081527f05b8ccbb9d4d8fb16ea74ce3c29a41f1b461fbdaff4714a0d9a8eb05499746bc602052604090205460ff1690565b60009080825260209060058252604090818420338552835260ff82852054161561196c5750505050565b815193336060860167ffffffffffffffff811187821017611c47578452602a86528486019284368537865115611b5f5760308453865191600192831015611c33576078602189015360295b838111611bc95750611b87578451916119cf83611cb0565b60428352868301936060368637835115611b7357603085538351821015611b735790607860218501536041915b818311611b0557505050611ac35792611a916048611a829794611ab5946044989785519a8b93611a598b86019a7f416363657373436f6e74726f6c3a206163636f756e74200000000000000000008c525180926037880190611c5b565b8401917001034b99036b4b9b9b4b733903937b6329607d1b603784015251809386840190611c5b565b01036028810189520187611ccc565b5194859362461bcd60e51b8552600485015251809281602486015285850190611c5b565b601f01601f19168101030190fd5b60648585519062461bcd60e51b825280600483015260248201527f537472696e67733a20686578206c656e67746820696e73756666696369656e746044820152fd5b909192600f81166010811015611b5f576f181899199a1a9b1b9c1cb0b131b232b360811b901a611b358587611e53565b5360041c928015611b4b576000190191906119fc565b634e487b7160e01b82526011600452602482fd5b634e487b7160e01b83526032600452602483fd5b634e487b7160e01b81526032600452602490fd5b60648686519062461bcd60e51b825280600483015260248201527f537472696e67733a20686578206c656e67746820696e73756666696369656e746044820152fd5b90600f81166010811015611c1f576f181899199a1a9b1b9c1cb0b131b232b360811b901a611bf7838b611e53565b5360041c908015611c0b57600019016119b7565b634e487b7160e01b85526011600452602485fd5b634e487b7160e01b86526032600452602486fd5b634e487b7160e01b84526032600452602484fd5b634e487b7160e01b83526041600452602483fd5b60005b838110611c6e5750506000910152565b8181015183820152602001611c5e565b6040810190811067ffffffffffffffff821117611c9a57604052565b634e487b7160e01b600052604160045260246000fd5b6080810190811067ffffffffffffffff821117611c9a57604052565b90601f8019910116810190811067ffffffffffffffff821117611c9a57604052565b6001600160a01b0316338103611d805760008181527f05b8ccbb9d4d8fb16ea74ce3c29a41f1b461fbdaff4714a0d9a8eb05499746bc602052604081205490919060ff16611d3a575050565b8180526005602052604082208183526020526040822060ff19815416905533917ff6391f5c32d9c69d2a47ea670b442974b53935d1edc7fd64eb21e047a839171b8180a4565b60405162461bcd60e51b815260206004820152602f60248201527f416363657373436f6e74726f6c3a2063616e206f6e6c792072656e6f756e636560448201526e103937b632b9903337b91039b2b63360891b6064820152608490fd5b906000918083526005602052604083209160018060a01b03169182845260205260ff604084205416611e0e57505050565b8083526005602052604083208284526020526040832060ff1981541690557ff6391f5c32d9c69d2a47ea670b442974b53935d1edc7fd64eb21e047a839171b339380a4565b908151811015611e64570160200190565b634e487b7160e01b600052603260045260246000fd5b15611e8157565b60405162461bcd60e51b815260206004820152602260248201527f41636365737369626c653a2043616c6c6572206973206e6f7420616e2061646d60448201526134b760f11b6064820152608490fd5b15611ed857565b606460405162461bcd60e51b815260206004820152602060248201527f73656e646572206973206e6f742061204c3142726964676552656769737472796044820152fd5b15611f2357565b606460405162461bcd60e51b81526020600482015260046024820152636c6f636b60e01b6044820152fd5b3d15611f89573d9067ffffffffffffffff8211611c9a5760405191611f7d601f8201601f191660200184611ccc565b82523d6000602084013e565b606090565b908160209103126118bc575160ff811681036118bc5790565b908160209103126118bc57516001600160a01b03811681036118bc5790565b6006546040805163391e3b3760e01b81526001600160a01b03938416600482018190526000958695869586959082169386929060209081886024818a5afa9788156121e95785986121ba575b5087818652600f835260ff85872054169760018914612035575b50505050505050565b855163078f29cf60e01b8152908482600481875afa9182156121b0578892612191575b508582166120f8575b505060ff16600214612075575b808061202c565b9080600492859d96979d5193848092630a49cb0360e01b82525afa9384156120ef575085936120c0575b505081166120b5575050955b388080808061206e565b9150969450936120ab565b6120e0929350803d106120e8575b6120d88183611ccc565b810190611fa7565b90388061209f565b503d6120ce565b513d87823e3d90fd5b60ff831660018114908115612186575b5061212a575b50848b1661211d575b80612061565b60019d509b5060ff612117565b6024919b5084908751928380926312dea97560e21b82528760048301525afa90811561217c57879161215f575b50993861210e565b6121769150843d86116120e8576120d88183611ccc565b38612157565b86513d89823e3d90fd5b600291501438612108565b6121a9919250853d87116120e8576120d88183611ccc565b9038612058565b87513d8a823e3d90fd5b6121db919850823d84116121e2575b6121d38183611ccc565b810190611f8e565b9638612012565b503d6121c9565b84513d87823e3d90fd5b6001600160a01b03161561220357565b604051633efa09af60e01b8152600490fd5b6000916000918260018060a01b0390818060065416604094855192839163391e3b3760e01b8352169182600483015281602460209586935afa90811561240d57839160ff9186916123f0575b50166001810361234d5750855163078f29cf60e01b815291829060049082905afa908115612343579084918491612326575b501692836122a3575b5050505050565b90929496508291939550600854169360248651809681936370a0823160e01b835260048301525afa93841561231b575081936122ea575b505050600191388080808061229c565b9091809350813d8311612314575b6123028183611ccc565b81010312610cc85750513880806122da565b503d6122f8565b51913d9150823e3d90fd5b61233d9150833d85116120e8576120d88183611ccc565b38612293565b85513d85823e3d90fd5b600291501461235d575050505050565b81600491865192838092630a49cb0360e01b82525afa9081156123435790849184916123d3575b501692831561229c5790929496508291939550600854169360248651809681936370a0823160e01b835260048301525afa93841561231b575081936122ea57505050600191388080808061229c565b6123ea9150833d85116120e8576120d88183611ccc565b38612384565b6124079150833d85116121e2576121d38183611ccc565b38612261565b86513d86823e3d90fd5b908160209103126118bc575180151581036118bc5790565b908060209392818452848401376000828201840152601f01601f1916010190565b9092919260018060a01b03908160075416916040938185519163f802ead360e01b83521691600496838884015260209360249985858c816000809c5af19485156128165788956127f7575b508385169081156127e15781895260108752848a8a2054166127cb579084939291878b8d8f98600a5416908d8351809b81958294634892afd360e01b8452830152886124eb604484018d8b61242f565b9183015203925af19586156127c1579088918b976127a2575b508a8c878082519261251584611c7e565b88845286840194828d16978887528982526010905220925116916bffffffffffffffffffffffff60a01b9283825416178155600101925116908254161790558b5161255f81611c7e565b60018152898101848152858d52600f8b528d8d20915160ff16825491600160a81b6101009003905160081b16916affffffffffffffffffffff60a81b16171790558b5194859485528a8a8601528c850160a0905260a08501906125c19261242f565b9160608401526080830152037f3685763fd42e5061ff53b001782ad759eafbc93a460b368a4ce42228ec45da9891a1600954600b548851636eb1769f60e11b8152308b82019081529184166001600160a01b0381166020840152928416918790829081906040010381855afa90811561279857898d938a8a99989796948f948491612757575b50106126ed575b5050505050600b54169086896126948a5198899687958694638340f54960e01b8652850160409194939294606082019560018060a01b0380921683521660208201520152565b03925af19283156126e257926126c5575b5050156126b157505050565b600390519163472ed10360e01b8352820152fd5b6126db9250803d106109f7576109e88183611ccc565b38806126a5565b8451903d90823e3d90fd5b90604492918d99959697989951968795869463095ea7b360e01b8652850152600019908401525af1801561274d57908594939291612730575b808a898d9361264e565b61274690853d87116109f7576109e88183611ccc565b5038612726565b88513d89823e3d90fd5b959798999a9450505093505081813d8311612791575b6127778183611ccc565b8101031261053457918a898d938a8a999897965138612647565b503d61276d565b8a513d8b823e3d90fd5b6127ba919750823d84116120e8576120d88183611ccc565b9538612504565b8b513d8c823e3d90fd5b895163472ed10360e01b81526002818d01528c90fd5b895163472ed10360e01b81526001818d01528c90fd5b61280f919550863d88116120e8576120d88183611ccc565b933861249b565b89513d8a823e3d90fd5b6040516323b872dd60e01b602082019081526001600160a01b03938416602483015293909216604483015260648083019490945292815260009283929091839061286b608482611ccc565b51926001600160a01b03165af1612880611f4e565b816128ca575b501561288e57565b60405162461bcd60e51b81526020600482015260146024820152731514905394d1915497d19493d357d1905253115160621b6044820152606490fd5b80518015925082156128df575b505038612886565b6128f29250602080918301019101612417565b38806128d756fea164736f6c6343000813000a",
  "linkReferences": {},
  "deployedLinkReferences": {}
}