{
  "address": "0x70a30aeD504131c154d5Bf2eB8BBF3e088603127",
  "abi": [
    {
      "anonymous": false,
      "inputs": [
        {
          "indexed": true,
          "internalType": "bytes32",
          "name": "role",
          "type": "bytes32"
        },
        {
          "indexed": true,
          "internalType": "bytes32",
          "name": "previousAdminRole",
          "type": "bytes32"
        },
        {
          "indexed": true,
          "internalType": "bytes32",
          "name": "newAdminRole",
          "type": "bytes32"
        }
      ],
      "name": "RoleAdminChanged",
      "type": "event"
    },
    {
      "anonymous": false,
      "inputs": [
        {
          "indexed": true,
          "internalType": "bytes32",
          "name": "role",
          "type": "bytes32"
        },
        {
          "indexed": true,
          "internalType": "address",
          "name": "account",
          "type": "address"
        },
        {
          "indexed": true,
          "internalType": "address",
          "name": "sender",
          "type": "address"
        }
      ],
      "name": "RoleGranted",
      "type": "event"
    },
    {
      "anonymous": false,
      "inputs": [
        {
          "indexed": true,
          "internalType": "bytes32",
          "name": "role",
          "type": "bytes32"
        },
        {
          "indexed": true,
          "internalType": "address",
          "name": "account",
          "type": "address"
        },
        {
          "indexed": true,
          "internalType": "address",
          "name": "sender",
          "type": "address"
        }
      ],
      "name": "RoleRevoked",
      "type": "event"
    },
    {
      "anonymous": false,
      "inputs": [
        {
          "indexed": true,
          "internalType": "address",
          "name": "impl",
          "type": "address"
        },
        {
          "indexed": false,
          "internalType": "bool",
          "name": "alive",
          "type": "bool"
        }
      ],
      "name": "SetAliveImplementation",
      "type": "event"
    },
    {
      "anonymous": false,
      "inputs": [
        {
          "indexed": true,
          "internalType": "bytes4",
          "name": "selector",
          "type": "bytes4"
        },
        {
          "indexed": true,
          "internalType": "address",
          "name": "impl",
          "type": "address"
        }
      ],
      "name": "SetSelectorImplementation",
      "type": "event"
    },
    {
      "anonymous": false,
      "inputs": [
        {
          "indexed": true,
          "internalType": "address",
          "name": "implementation",
          "type": "address"
        }
      ],
      "name": "Upgraded",
      "type": "event"
    },
    {
      "stateMutability": "payable",
      "type": "fallback"
    },
    {
      "inputs": [],
      "name": "DEFAULT_ADMIN_ROLE",
      "outputs": [
        {
          "internalType": "bytes32",
          "name": "",
          "type": "bytes32"
        }
      ],
      "stateMutability": "view",
      "type": "function"
    },
    {
      "inputs": [],
      "name": "MINTER_ROLE",
      "outputs": [
        {
          "internalType": "bytes32",
          "name": "",
          "type": "bytes32"
        }
      ],
      "stateMutability": "view",
      "type": "function"
    },
    {
      "inputs": [],
      "name": "OPERATOR_ROLE",
      "outputs": [
        {
          "internalType": "bytes32",
          "name": "",
          "type": "bytes32"
        }
      ],
      "stateMutability": "view",
      "type": "function"
    },
    {
      "inputs": [
        {
          "internalType": "address",
          "name": "account",
          "type": "address"
        }
      ],
      "name": "addAdmin",
      "outputs": [],
      "stateMutability": "nonpayable",
      "type": "function"
    },
    {
      "inputs": [
        {
          "internalType": "address",
          "name": "account",
          "type": "address"
        }
      ],
      "name": "addMinter",
      "outputs": [],
      "stateMutability": "nonpayable",
      "type": "function"
    },
    {
      "inputs": [
        {
          "internalType": "address",
          "name": "account",
          "type": "address"
        }
      ],
      "name": "addOperator",
      "outputs": [],
      "stateMutability": "nonpayable",
      "type": "function"
    },
    {
      "inputs": [
        {
          "internalType": "address",
          "name": "",
          "type": "address"
        }
      ],
      "name": "aliveImplementation",
      "outputs": [
        {
          "internalType": "bool",
          "name": "",
          "type": "bool"
        }
      ],
      "stateMutability": "view",
      "type": "function"
    },
    {
      "inputs": [
        {
          "internalType": "bytes32",
          "name": "role",
          "type": "bytes32"
        }
      ],
      "name": "getRoleAdmin",
      "outputs": [
        {
          "internalType": "bytes32",
          "name": "",
          "type": "bytes32"
        }
      ],
      "stateMutability": "view",
      "type": "function"
    },
    {
      "inputs": [
        {
          "internalType": "bytes4",
          "name": "_selector",
          "type": "bytes4"
        }
      ],
      "name": "getSelectorImplementation2",
      "outputs": [
        {
          "internalType": "address",
          "name": "impl",
          "type": "address"
        }
      ],
      "stateMutability": "view",
      "type": "function"
    },
    {
      "inputs": [
        {
          "internalType": "bytes32",
          "name": "role",
          "type": "bytes32"
        },
        {
          "internalType": "address",
          "name": "account",
          "type": "address"
        }
      ],
      "name": "grantRole",
      "outputs": [],
      "stateMutability": "nonpayable",
      "type": "function"
    },
    {
      "inputs": [
        {
          "internalType": "bytes32",
          "name": "role",
          "type": "bytes32"
        },
        {
          "internalType": "address",
          "name": "account",
          "type": "address"
        }
      ],
      "name": "hasRole",
      "outputs": [
        {
          "internalType": "bool",
          "name": "",
          "type": "bool"
        }
      ],
      "stateMutability": "view",
      "type": "function"
    },
    {
      "inputs": [],
      "name": "implementation",
      "outputs": [
        {
          "internalType": "address",
          "name": "",
          "type": "address"
        }
      ],
      "stateMutability": "view",
      "type": "function"
    },
    {
      "inputs": [
        {
          "internalType": "uint256",
          "name": "_index",
          "type": "uint256"
        }
      ],
      "name": "implementation2",
      "outputs": [
        {
          "internalType": "address",
          "name": "",
          "type": "address"
        }
      ],
      "stateMutability": "view",
      "type": "function"
    },
    {
      "inputs": [
        {
          "internalType": "address",
          "name": "account",
          "type": "address"
        }
      ],
      "name": "isAdmin",
      "outputs": [
        {
          "internalType": "bool",
          "name": "",
          "type": "bool"
        }
      ],
      "stateMutability": "view",
      "type": "function"
    },
    {
      "inputs": [
        {
          "internalType": "address",
          "name": "account",
          "type": "address"
        }
      ],
      "name": "isMinter",
      "outputs": [
        {
          "internalType": "bool",
          "name": "",
          "type": "bool"
        }
      ],
      "stateMutability": "view",
      "type": "function"
    },
    {
      "inputs": [
        {
          "internalType": "address",
          "name": "account",
          "type": "address"
        }
      ],
      "name": "isOperator",
      "outputs": [
        {
          "internalType": "bool",
          "name": "",
          "type": "bool"
        }
      ],
      "stateMutability": "view",
      "type": "function"
    },
    {
      "inputs": [],
      "name": "isOwner",
      "outputs": [
        {
          "internalType": "bool",
          "name": "",
          "type": "bool"
        }
      ],
      "stateMutability": "view",
      "type": "function"
    },
    {
      "inputs": [],
      "name": "pauseProxy",
      "outputs": [
        {
          "internalType": "bool",
          "name": "",
          "type": "bool"
        }
      ],
      "stateMutability": "view",
      "type": "function"
    },
    {
      "inputs": [
        {
          "internalType": "uint256",
          "name": "",
          "type": "uint256"
        }
      ],
      "name": "proxyImplementation",
      "outputs": [
        {
          "internalType": "address",
          "name": "",
          "type": "address"
        }
      ],
      "stateMutability": "view",
      "type": "function"
    },
    {
      "inputs": [
        {
          "internalType": "address",
          "name": "account",
          "type": "address"
        }
      ],
      "name": "removeAdmin",
      "outputs": [],
      "stateMutability": "nonpayable",
      "type": "function"
    },
    {
      "inputs": [
        {
          "internalType": "address",
          "name": "account",
          "type": "address"
        }
      ],
      "name": "removeMinter",
      "outputs": [],
      "stateMutability": "nonpayable",
      "type": "function"
    },
    {
      "inputs": [
        {
          "internalType": "address",
          "name": "account",
          "type": "address"
        }
      ],
      "name": "removeOperator",
      "outputs": [],
      "stateMutability": "nonpayable",
      "type": "function"
    },
    {
      "inputs": [],
      "name": "renounceMinter",
      "outputs": [],
      "stateMutability": "nonpayable",
      "type": "function"
    },
    {
      "inputs": [],
      "name": "renounceOperator",
      "outputs": [],
      "stateMutability": "nonpayable",
      "type": "function"
    },
    {
      "inputs": [],
      "name": "renounceOwnership",
      "outputs": [],
      "stateMutability": "nonpayable",
      "type": "function"
    },
    {
      "inputs": [
        {
          "internalType": "bytes32",
          "name": "role",
          "type": "bytes32"
        },
        {
          "internalType": "address",
          "name": "account",
          "type": "address"
        }
      ],
      "name": "renounceRole",
      "outputs": [],
      "stateMutability": "nonpayable",
      "type": "function"
    },
    {
      "inputs": [
        {
          "internalType": "address",
          "name": "account",
          "type": "address"
        }
      ],
      "name": "revokeMinter",
      "outputs": [],
      "stateMutability": "nonpayable",
      "type": "function"
    },
    {
      "inputs": [
        {
          "internalType": "address",
          "name": "account",
          "type": "address"
        }
      ],
      "name": "revokeOperator",
      "outputs": [],
      "stateMutability": "nonpayable",
      "type": "function"
    },
    {
      "inputs": [
        {
          "internalType": "bytes32",
          "name": "role",
          "type": "bytes32"
        },
        {
          "internalType": "address",
          "name": "account",
          "type": "address"
        }
      ],
      "name": "revokeRole",
      "outputs": [],
      "stateMutability": "nonpayable",
      "type": "function"
    },
    {
      "inputs": [
        {
          "internalType": "bytes4",
          "name": "",
          "type": "bytes4"
        }
      ],
      "name": "selectorImplementation",
      "outputs": [
        {
          "internalType": "address",
          "name": "",
          "type": "address"
        }
      ],
      "stateMutability": "view",
      "type": "function"
    },
    {
      "inputs": [
        {
          "internalType": "address",
          "name": "newImplementation",
          "type": "address"
        },
        {
          "internalType": "bool",
          "name": "_alive",
          "type": "bool"
        }
      ],
      "name": "setAliveImplementation2",
      "outputs": [],
      "stateMutability": "nonpayable",
      "type": "function"
    },
    {
      "inputs": [
        {
          "internalType": "address",
          "name": "newImplementation",
          "type": "address"
        },
        {
          "internalType": "uint256",
          "name": "_index",
          "type": "uint256"
        },
        {
          "internalType": "bool",
          "name": "_alive",
          "type": "bool"
        }
      ],
      "name": "setImplementation2",
      "outputs": [],
      "stateMutability": "nonpayable",
      "type": "function"
    },
    {
      "inputs": [
        {
          "internalType": "bool",
          "name": "_pause",
          "type": "bool"
        }
      ],
      "name": "setProxyPause",
      "outputs": [],
      "stateMutability": "nonpayable",
      "type": "function"
    },
    {
      "inputs": [
        {
          "internalType": "bytes4[]",
          "name": "_selectors",
          "type": "bytes4[]"
        },
        {
          "internalType": "address",
          "name": "_imp",
          "type": "address"
        }
      ],
      "name": "setSelectorImplementations2",
      "outputs": [],
      "stateMutability": "nonpayable",
      "type": "function"
    },
    {
      "inputs": [
        {
          "internalType": "bytes4",
          "name": "interfaceId",
          "type": "bytes4"
        }
      ],
      "name": "supportsInterface",
      "outputs": [
        {
          "internalType": "bool",
          "name": "",
          "type": "bool"
        }
      ],
      "stateMutability": "view",
      "type": "function"
    },
    {
      "inputs": [
        {
          "internalType": "address",
          "name": "newAdmin",
          "type": "address"
        }
      ],
      "name": "transferAdmin",
      "outputs": [],
      "stateMutability": "nonpayable",
      "type": "function"
    },
    {
      "inputs": [
        {
          "internalType": "address",
          "name": "newAdmin",
          "type": "address"
        }
      ],
      "name": "transferOwnership",
      "outputs": [],
      "stateMutability": "nonpayable",
      "type": "function"
    },
    {
      "inputs": [
        {
          "internalType": "address",
          "name": "impl",
          "type": "address"
        }
      ],
      "name": "upgradeTo",
      "outputs": [],
      "stateMutability": "nonpayable",
      "type": "function"
    },
    {
      "stateMutability": "payable",
      "type": "receive"
    }
  ],
  "transactionHash": "0x211bcfd4fa91ae09742897a63a7c10451a34575b2cac53ab30a22c11edc33452",
  "args": [],
  "numDeployments": 1,
  "solcInputHash": "40d52afd18880243af7a8a2578b94577",
  "bytecode": "0x60806040523480156200001157600080fd5b506200001f6000336200007f565b6200004c7ff0887ba65ee2024ea881d91b74c2450ef19e1557f03bed3ea9f16b037cbe2dc960006200008f565b620000797f523a704056dcd17bcf83bed8b68c59416dac1119be77755efe3bde0a64e46e0c60006200008f565b6200017e565b6200008b8282620000da565b5050565b600082815260056020526040808220600101805490849055905190918391839186917fbd79b86ffe0ab8e8776151514217cd7cacd52c909f66475c3af44e129f0b00ff9190a4505050565b60008281526005602090815260408083206001600160a01b038516845290915290205460ff166200008b5760008281526005602090815260408083206001600160a01b03851684529091529020805460ff191660011790556200013a3390565b6001600160a01b0316816001600160a01b0316837f2f8788117e7eff1d82e926ec794901d17c78024a50270940304540a733656f0d60405160405180910390a45050565b611c13806200018e6000396000f3fe6080604052600436106102895760003560e01c80637cb00d2511610153578063a217fddf116100cb578063d53913931161007f578063f2fde38b11610064578063f2fde38b1461081e578063f5b541a61461083e578063fad8b32a14610872576102db565b8063d5391393146107ca578063d547741f146107fe576102db565b8063ac8a584a116100b0578063ac8a584a14610754578063b911135f14610774578063cfbd4885146107aa576102db565b8063a217fddf1461071f578063aa271e1a14610734576102db565b80638f32d59b11610122578063983b2d5611610107578063983b2d56146106ca57806398650275146106ea5780639870d7fe146106ff576102db565b80638f32d59b1461064057806391d1485414610684576102db565b80637cb00d25146105c05780637cd5f663146105e05780638b8f4a65146106005780638d4fdb4014610620576102db565b80634a5df50f1161020157806363a8fd89116101b5578063704802751161019a578063704802751461056b578063715018a61461058b57806375829def146105a0576102db565b806363a8fd89146105315780636d70f7ae1461054b576102db565b8063550d01a3116101e6578063550d01a31461049b5780635c60da1b146104cb5780635cc797d814610511576102db565b80634a5df50f1461042d57806350d2a2761461044d576102db565b80632ab6f8db116102585780633092afd51161023d5780633092afd5146103cd57806336568abe146103ed5780633659cfe61461040d576102db565b80632ab6f8db146103985780632f2ff15d146103ad576102db565b806301ffc9a7146102e55780631785f53c1461031a578063248a9ca31461033a57806324d7806c14610378576102db565b366102db5760405162461bcd60e51b815260206004820152601460248201527f63616e6e6f74207265636569766520457468657200000000000000000000000060448201526064015b60405180910390fd5b6102e3610892565b005b3480156102f157600080fd5b5061030561030036600461189d565b61093b565b60405190151581526020015b60405180910390f35b34801561032657600080fd5b506102e36103353660046118e3565b61094c565b34801561034657600080fd5b5061036a6103553660046118fe565b60009081526005602052604090206001015490565b604051908152602001610311565b34801561038457600080fd5b506103056103933660046118e3565b61097f565b3480156103a457600080fd5b506102e36109bf565b3480156103b957600080fd5b506102e36103c8366004611917565b6109eb565b3480156103d957600080fd5b506102e36103e83660046118e3565b610a10565b3480156103f957600080fd5b506102e3610408366004611917565b610a5b565b34801561041957600080fd5b506102e36104283660046118e3565b610ae7565b34801561043957600080fd5b506102e3610448366004611943565b610c17565b34801561045957600080fd5b5061048361046836600461189d565b6003602052600090815260409020546001600160a01b031681565b6040516001600160a01b039091168152602001610311565b3480156104a757600080fd5b506103056104b63660046118e3565b60026020526000908152604090205460ff1681565b3480156104d757600080fd5b506000805260016020527fa6eef7e35abe7026729641147f7915573c7e97b47efa546f5f6e3230263bcb49546001600160a01b0316610483565b34801561051d57600080fd5b506102e361052c3660046119d7565b610e9b565b34801561053d57600080fd5b506000546103059060ff1681565b34801561055757600080fd5b506103056105663660046118e3565b610eca565b34801561057757600080fd5b506102e36105863660046118e3565b610f0a565b34801561059757600080fd5b506102e3610f3a565b3480156105ac57600080fd5b506102e36105bb3660046118e3565b610f6a565b3480156105cc57600080fd5b506102e36105db366004611a01565b611053565b3480156105ec57600080fd5b506102e36105fb366004611a1c565b61108b565b34801561060c57600080fd5b5061048361061b3660046118fe565b6110bb565b34801561062c57600080fd5b5061048361063b36600461189d565b6110d8565b34801561064c57600080fd5b503360009081527f05b8ccbb9d4d8fb16ea74ce3c29a41f1b461fbdaff4714a0d9a8eb05499746bc602052604090205460ff16610305565b34801561069057600080fd5b5061030561069f366004611917565b60009182526005602090815260408084206001600160a01b0393909316845291905290205460ff1690565b3480156106d657600080fd5b506102e36106e53660046118e3565b61119b565b3480156106f657600080fd5b506102e36111ea565b34801561070b57600080fd5b506102e361071a3660046118e3565b611214565b34801561072b57600080fd5b5061036a600081565b34801561074057600080fd5b5061030561074f3660046118e3565b611263565b34801561076057600080fd5b506102e361076f3660046118e3565b6112a3565b34801561078057600080fd5b5061048361078f3660046118fe565b6001602052600090815260409020546001600160a01b031681565b3480156107b657600080fd5b506102e36107c53660046118e3565b6112f2565b3480156107d657600080fd5b5061036a7ff0887ba65ee2024ea881d91b74c2450ef19e1557f03bed3ea9f16b037cbe2dc981565b34801561080a57600080fd5b506102e3610819366004611917565b61133d565b34801561082a57600080fd5b506102e36108393660046118e3565b611362565b34801561084a57600080fd5b5061036a7f523a704056dcd17bcf83bed8b68c59416dac1119be77755efe3bde0a64e46e0c81565b34801561087e57600080fd5b506102e361088d3660046118e3565b611390565b60006108a96000356001600160e01b0319166110d8565b90506001600160a01b038116158015906108c6575060005460ff16155b6109125760405162461bcd60e51b815260206004820152601d60248201527f50726f78793a20696d706c204f522070726f78792069732066616c736500000060448201526064016102d2565b3660008037600080366000845af43d6000803e808015610931573d6000f35b3d6000fd5b505050565b6000610946826113df565b92915050565b6109553361097f565b6109715760405162461bcd60e51b81526004016102d290611a4f565b61097c600082610a5b565b50565b6001600160a01b03811660009081527f05b8ccbb9d4d8fb16ea74ce3c29a41f1b461fbdaff4714a0d9a8eb05499746bc602052604081205460ff16610946565b6109e97f523a704056dcd17bcf83bed8b68c59416dac1119be77755efe3bde0a64e46e0c33610a5b565b565b600082815260056020526040902060010154610a0681611404565b610936838361140e565b610a193361097f565b610a355760405162461bcd60e51b81526004016102d290611a4f565b61097c7ff0887ba65ee2024ea881d91b74c2450ef19e1557f03bed3ea9f16b037cbe2dc9825b6001600160a01b0381163314610ad95760405162461bcd60e51b815260206004820152602f60248201527f416363657373436f6e74726f6c3a2063616e206f6e6c792072656e6f756e636560448201527f20726f6c657320666f722073656c66000000000000000000000000000000000060648201526084016102d2565b610ae382826114b0565b5050565b610af03361097f565b610b0c5760405162461bcd60e51b81526004016102d290611a4f565b6001600160a01b038116610b625760405162461bcd60e51b815260206004820152600d60248201527f696e707574206973207a65726f0000000000000000000000000000000000000060448201526064016102d2565b6000805260016020527fa6eef7e35abe7026729641147f7915573c7e97b47efa546f5f6e3230263bcb49546001600160a01b03828116911603610bd35760405162461bcd60e51b815260206004820152600960248201526839b0b6b29030b2323960b91b60448201526064016102d2565b610be08160006001611533565b6040516001600160a01b038216907fbc7cd75a20ee27fd9adebab32041f755214dbc6bffa90cc0225b39da2e5c2d3b90600090a250565b610c203361097f565b610c3c5760405162461bcd60e51b81526004016102d290611a4f565b81610c895760405162461bcd60e51b815260206004820181905260248201527f50726f78793a205f73656c6563746f727327732073697a65206973207a65726f60448201526064016102d2565b6001600160a01b03811660009081526002602052604090205460ff16610cf15760405162461bcd60e51b815260206004820152601860248201527f50726f78793a205f696d70206973206e6f7420616c697665000000000000000060448201526064016102d2565b60005b82811015610e9557816001600160a01b031660036000868685818110610d1c57610d1c611a92565b9050602002016020810190610d31919061189d565b6001600160e01b03191681526020810191909152604001600020546001600160a01b031603610da25760405162461bcd60e51b815260206004820152601d60248201527f4c69717569646974795661756c7450726f78793a2073616d6520696d7000000060448201526064016102d2565b8160036000868685818110610db957610db9611a92565b9050602002016020810190610dce919061189d565b6001600160e01b03191681526020810191909152604001600020805473ffffffffffffffffffffffffffffffffffffffff19166001600160a01b039283161790558216848483818110610e2357610e23611a92565b9050602002016020810190610e38919061189d565b7bffffffffffffffffffffffffffffffffffffffffffffffffffffffff19167f14ebc1c32aa68f4d766e89f3e546cee249f7df25183fc10ab1568d91c2ce9b7b60405160405180910390a380610e8d81611abe565b915050610cf4565b50505050565b610ea43361097f565b610ec05760405162461bcd60e51b81526004016102d290611a4f565b610ae382826115cb565b6001600160a01b03811660009081527f02634a7c777b8129955fe1824eee49ef19dfa96f2f4cb63212492c3d84eb58e6602052604081205460ff16610946565b610f133361097f565b610f2f5760405162461bcd60e51b81526004016102d290611a4f565b61097c6000826109eb565b610f433361097f565b610f5f5760405162461bcd60e51b81526004016102d290611a4f565b6109e9600033610a5b565b610f733361097f565b610f8f5760405162461bcd60e51b81526004016102d290611a4f565b6001600160a01b038116610fe55760405162461bcd60e51b815260206004820152601860248201527f41636365737369626c653a207a65726f2061646472657373000000000000000060448201526064016102d2565b6001600160a01b038116330361103d5760405162461bcd60e51b815260206004820152601660248201527f41636365737369626c653a2073616d652061646d696e0000000000000000000060448201526064016102d2565b6110486000826109eb565b61097c600033610a5b565b61105c3361097f565b6110785760405162461bcd60e51b81526004016102d290611a4f565b6000805460ff1916911515919091179055565b6110943361097f565b6110b05760405162461bcd60e51b81526004016102d290611a4f565b610936838383611533565b6000818152600160205260408120546001600160a01b0316610946565b6001600160e01b031981166000908152600360205260408120546001600160a01b03168061113a575050600080525060016020527fa6eef7e35abe7026729641147f7915573c7e97b47efa546f5f6e3230263bcb49546001600160a01b031690565b6001600160a01b03811660009081526002602052604090205460ff16156111615792915050565b5050600080525060016020527fa6eef7e35abe7026729641147f7915573c7e97b47efa546f5f6e3230263bcb49546001600160a01b031690565b6111a43361097f565b6111c05760405162461bcd60e51b81526004016102d290611a4f565b61097c7ff0887ba65ee2024ea881d91b74c2450ef19e1557f03bed3ea9f16b037cbe2dc9826109eb565b6109e97ff0887ba65ee2024ea881d91b74c2450ef19e1557f03bed3ea9f16b037cbe2dc933610a5b565b61121d3361097f565b6112395760405162461bcd60e51b81526004016102d290611a4f565b61097c7f523a704056dcd17bcf83bed8b68c59416dac1119be77755efe3bde0a64e46e0c826109eb565b6001600160a01b03811660009081527fca0a2f641ec05ca23127d994cf03ffc453db616acae0b86cb56bb95304d06854602052604081205460ff16610946565b6112ac3361097f565b6112c85760405162461bcd60e51b81526004016102d290611a4f565b61097c7f523a704056dcd17bcf83bed8b68c59416dac1119be77755efe3bde0a64e46e0c82610a5b565b6112fb3361097f565b6113175760405162461bcd60e51b81526004016102d290611a4f565b61097c7ff0887ba65ee2024ea881d91b74c2450ef19e1557f03bed3ea9f16b037cbe2dc9825b60008281526005602052604090206001015461135881611404565b61093683836114b0565b61136b3361097f565b6113875760405162461bcd60e51b81526004016102d290611a4f565b61097c81610f6a565b6113993361097f565b6113b55760405162461bcd60e51b81526004016102d290611a4f565b61097c7f523a704056dcd17bcf83bed8b68c59416dac1119be77755efe3bde0a64e46e0c8261133d565b60006001600160e01b03198216637965db0b60e01b148061094657506109468261162a565b61097c8133611666565b60008281526005602090815260408083206001600160a01b038516845290915290205460ff16610ae35760008281526005602090815260408083206001600160a01b03851684529091529020805460ff1916600117905561146c3390565b6001600160a01b0316816001600160a01b0316837f2f8788117e7eff1d82e926ec794901d17c78024a50270940304540a733656f0d60405160405180910390a45050565b60008281526005602090815260408083206001600160a01b038516845290915290205460ff1615610ae35760008281526005602090815260408083206001600160a01b0385168085529252808320805460ff1916905551339285917ff6391f5c32d9c69d2a47ea670b442974b53935d1edc7fd64eb21e047a839171b9190a45050565b6001600160a01b0383163b61158a5760405162461bcd60e51b815260206004820152601b60248201527f50726f78793a206e6f7420636f6e74726163742061646472657373000000000060448201526064016102d2565b80156115c5576000828152600160205260409020805473ffffffffffffffffffffffffffffffffffffffff19166001600160a01b0385161790555b61093683825b6001600160a01b038216600081815260026020908152604091829020805460ff191685151590811790915591519182527f72558d9bfba4210f9ef095c782589484151f6d90f7a81bb3cb9b33efc695d324910160405180910390a25050565b60006301ffc9a760e01b6001600160e01b0319831614806109465750506001600160e01b03191660009081526004602052604090205460ff1690565b60008281526005602090815260408083206001600160a01b038516845290915290205460ff16610ae357611699816116db565b6116a48360206116ed565b6040516020016116b5929190611afb565b60408051601f198184030181529082905262461bcd60e51b82526102d291600401611b7c565b60606109466001600160a01b03831660145b606060006116fc836002611baf565b611707906002611bc6565b67ffffffffffffffff81111561171f5761171f611bd9565b6040519080825280601f01601f191660200182016040528015611749576020820181803683370190505b509050600360fc1b8160008151811061176457611764611a92565b60200101906001600160f81b031916908160001a905350600f60fb1b8160018151811061179357611793611a92565b60200101906001600160f81b031916908160001a90535060006117b7846002611baf565b6117c2906001611bc6565b90505b6001811115611847577f303132333435363738396162636465660000000000000000000000000000000085600f166010811061180357611803611a92565b1a60f81b82828151811061181957611819611a92565b60200101906001600160f81b031916908160001a90535060049490941c9361184081611bef565b90506117c5565b5083156118965760405162461bcd60e51b815260206004820181905260248201527f537472696e67733a20686578206c656e67746820696e73756666696369656e7460448201526064016102d2565b9392505050565b6000602082840312156118af57600080fd5b81356001600160e01b03198116811461189657600080fd5b80356001600160a01b03811681146118de57600080fd5b919050565b6000602082840312156118f557600080fd5b611896826118c7565b60006020828403121561191057600080fd5b5035919050565b6000806040838503121561192a57600080fd5b8235915061193a602084016118c7565b90509250929050565b60008060006040848603121561195857600080fd5b833567ffffffffffffffff8082111561197057600080fd5b818601915086601f83011261198457600080fd5b81358181111561199357600080fd5b8760208260051b85010111156119a857600080fd5b6020928301955093506119be91860190506118c7565b90509250925092565b803580151581146118de57600080fd5b600080604083850312156119ea57600080fd5b6119f3836118c7565b915061193a602084016119c7565b600060208284031215611a1357600080fd5b611896826119c7565b600080600060608486031215611a3157600080fd5b611a3a846118c7565b9250602084013591506119be604085016119c7565b60208082526023908201527f41757468436f6e74726f6c3a2043616c6c6572206973206e6f7420616e20616460408201526236b4b760e91b606082015260800190565b634e487b7160e01b600052603260045260246000fd5b634e487b7160e01b600052601160045260246000fd5b600060018201611ad057611ad0611aa8565b5060010190565b60005b83811015611af2578181015183820152602001611ada565b50506000910152565b7f416363657373436f6e74726f6c3a206163636f756e7420000000000000000000815260008351611b33816017850160208801611ad7565b7f206973206d697373696e6720726f6c65200000000000000000000000000000006017918401918201528351611b70816028840160208801611ad7565b01602801949350505050565b6020815260008251806020840152611b9b816040850160208701611ad7565b601f01601f19169190910160400192915050565b808202811582820484141761094657610946611aa8565b8082018082111561094657610946611aa8565b634e487b7160e01b600052604160045260246000fd5b600081611bfe57611bfe611aa8565b50600019019056fea164736f6c6343000813000a",
  "devdoc": {
    "events": {
      "RoleAdminChanged(bytes32,bytes32,bytes32)": {
        "details": "Emitted when `newAdminRole` is set as ``role``'s admin role, replacing `previousAdminRole` `DEFAULT_ADMIN_ROLE` is the starting admin for all roles, despite {RoleAdminChanged} not being emitted signaling this. _Available since v3.1._"
      },
      "RoleGranted(bytes32,address,address)": {
        "details": "Emitted when `account` is granted `role`. `sender` is the account that originated the contract call, an admin role bearer except when using {AccessControl-_setupRole}."
      },
      "RoleRevoked(bytes32,address,address)": {
        "details": "Emitted when `account` is revoked `role`. `sender` is the account that originated the contract call:   - if using `revokeRole`, it is the admin role bearer   - if using `renounceRole`, it is the role bearer (i.e. `account`)"
      }
    },
    "kind": "dev",
    "methods": {
      "addAdmin(address)": {
        "details": "add admin",
        "params": {
          "account": "address to add"
        }
      },
      "getRoleAdmin(bytes32)": {
        "details": "Returns the admin role that controls `role`. See {grantRole} and {revokeRole}. To change a role's admin, use {_setRoleAdmin}."
      },
      "getSelectorImplementation2(bytes4)": {
        "details": "view implementation address of selector of function",
        "params": {
          "_selector": "selector of function"
        },
        "returns": {
          "impl": "address of the implementation"
        }
      },
      "grantRole(bytes32,address)": {
        "details": "Grants `role` to `account`. If `account` had not been already granted `role`, emits a {RoleGranted} event. Requirements: - the caller must have ``role``'s admin role. May emit a {RoleGranted} event."
      },
      "hasRole(bytes32,address)": {
        "details": "Returns `true` if `account` has been granted `role`."
      },
      "implementation()": {
        "details": "returns the implementation"
      },
      "implementation2(uint256)": {
        "details": "view implementation address of the proxy[index]",
        "params": {
          "_index": "index of proxy"
        },
        "returns": {
          "_0": "address of the implementation"
        }
      },
      "isAdmin(address)": {
        "details": "whether admin",
        "params": {
          "account": "address to check"
        }
      },
      "removeAdmin(address)": {
        "details": "remove admin",
        "params": {
          "account": "address to remove"
        }
      },
      "renounceRole(bytes32,address)": {
        "details": "Revokes `role` from the calling account. Roles are often managed via {grantRole} and {revokeRole}: this function's purpose is to provide a mechanism for accounts to lose their privileges if they are compromised (such as when a trusted device is misplaced). If the calling account had been revoked `role`, emits a {RoleRevoked} event. Requirements: - the caller must be `account`. May emit a {RoleRevoked} event."
      },
      "revokeRole(bytes32,address)": {
        "details": "Revokes `role` from `account`. If `account` had been granted `role`, emits a {RoleRevoked} event. Requirements: - the caller must have ``role``'s admin role. May emit a {RoleRevoked} event."
      },
      "setAliveImplementation2(address,bool)": {
        "details": "set alive status of implementation",
        "params": {
          "_alive": "alive status",
          "newImplementation": "Address of the new implementation."
        }
      },
      "setImplementation2(address,uint256,bool)": {
        "details": "set the implementation address and status of the proxy[index]",
        "params": {
          "_alive": "_alive",
          "_index": "index",
          "newImplementation": "Address of the new implementation."
        }
      },
      "setProxyPause(bool)": {
        "params": {
          "_pause": "true:pause or false:resume"
        }
      },
      "setSelectorImplementations2(bytes4[],address)": {
        "details": "set selectors of Implementation",
        "params": {
          "_imp": "implementation address",
          "_selectors": "being added selectors"
        }
      },
      "transferAdmin(address)": {
        "details": "transfer admin",
        "params": {
          "newAdmin": "new admin address"
        }
      },
      "upgradeTo(address)": {
        "params": {
          "impl": "New implementation contract address"
        }
      }
    },
    "title": "@dev",
    "version": 1
  },
  "userdoc": {
    "kind": "user",
    "methods": {
      "setProxyPause(bool)": {
        "notice": "Set pause state"
      },
      "upgradeTo(address)": {
        "notice": "Set implementation contract"
      }
    },
    "version": 1
  },
  "storageLayout": {
    "storage": [
      {
        "astId": 11875,
        "contract": "contracts/stake/Layer2RegistryProxy.sol:Layer2RegistryProxy",
        "label": "pauseProxy",
        "offset": 0,
        "slot": "0",
        "type": "t_bool"
      },
      {
        "astId": 11879,
        "contract": "contracts/stake/Layer2RegistryProxy.sol:Layer2RegistryProxy",
        "label": "proxyImplementation",
        "offset": 0,
        "slot": "1",
        "type": "t_mapping(t_uint256,t_address)"
      },
      {
        "astId": 11883,
        "contract": "contracts/stake/Layer2RegistryProxy.sol:Layer2RegistryProxy",
        "label": "aliveImplementation",
        "offset": 0,
        "slot": "2",
        "type": "t_mapping(t_address,t_bool)"
      },
      {
        "astId": 11887,
        "contract": "contracts/stake/Layer2RegistryProxy.sol:Layer2RegistryProxy",
        "label": "selectorImplementation",
        "offset": 0,
        "slot": "3",
        "type": "t_mapping(t_bytes4,t_address)"
      },
      {
        "astId": 1801,
        "contract": "contracts/stake/Layer2RegistryProxy.sol:Layer2RegistryProxy",
        "label": "_supportedInterfaces",
        "offset": 0,
        "slot": "4",
        "type": "t_mapping(t_bytes4,t_bool)"
      },
      {
        "astId": 24,
        "contract": "contracts/stake/Layer2RegistryProxy.sol:Layer2RegistryProxy",
        "label": "_roles",
        "offset": 0,
        "slot": "5",
        "type": "t_mapping(t_bytes32,t_struct(RoleData)19_storage)"
      },
      {
        "astId": 12434,
        "contract": "contracts/stake/Layer2RegistryProxy.sol:Layer2RegistryProxy",
        "label": "_layer2s",
        "offset": 0,
        "slot": "6",
        "type": "t_mapping(t_address,t_bool)"
      },
      {
        "astId": 12436,
        "contract": "contracts/stake/Layer2RegistryProxy.sol:Layer2RegistryProxy",
        "label": "_numLayer2s",
        "offset": 0,
        "slot": "7",
        "type": "t_uint256"
      },
      {
        "astId": 12440,
        "contract": "contracts/stake/Layer2RegistryProxy.sol:Layer2RegistryProxy",
        "label": "_layer2ByIndex",
        "offset": 0,
        "slot": "8",
        "type": "t_mapping(t_uint256,t_address)"
      }
    ],
    "types": {
      "t_address": {
        "encoding": "inplace",
        "label": "address",
        "numberOfBytes": "20"
      },
      "t_bool": {
        "encoding": "inplace",
        "label": "bool",
        "numberOfBytes": "1"
      },
      "t_bytes32": {
        "encoding": "inplace",
        "label": "bytes32",
        "numberOfBytes": "32"
      },
      "t_bytes4": {
        "encoding": "inplace",
        "label": "bytes4",
        "numberOfBytes": "4"
      },
      "t_mapping(t_address,t_bool)": {
        "encoding": "mapping",
        "key": "t_address",
        "label": "mapping(address => bool)",
        "numberOfBytes": "32",
        "value": "t_bool"
      },
      "t_mapping(t_bytes32,t_struct(RoleData)19_storage)": {
        "encoding": "mapping",
        "key": "t_bytes32",
        "label": "mapping(bytes32 => struct AccessControl.RoleData)",
        "numberOfBytes": "32",
        "value": "t_struct(RoleData)19_storage"
      },
      "t_mapping(t_bytes4,t_address)": {
        "encoding": "mapping",
        "key": "t_bytes4",
        "label": "mapping(bytes4 => address)",
        "numberOfBytes": "32",
        "value": "t_address"
      },
      "t_mapping(t_bytes4,t_bool)": {
        "encoding": "mapping",
        "key": "t_bytes4",
        "label": "mapping(bytes4 => bool)",
        "numberOfBytes": "32",
        "value": "t_bool"
      },
      "t_mapping(t_uint256,t_address)": {
        "encoding": "mapping",
        "key": "t_uint256",
        "label": "mapping(uint256 => address)",
        "numberOfBytes": "32",
        "value": "t_address"
      },
      "t_struct(RoleData)19_storage": {
        "encoding": "inplace",
        "label": "struct AccessControl.RoleData",
        "members": [
          {
            "astId": 16,
            "contract": "contracts/stake/Layer2RegistryProxy.sol:Layer2RegistryProxy",
            "label": "members",
            "offset": 0,
            "slot": "0",
            "type": "t_mapping(t_address,t_bool)"
          },
          {
            "astId": 18,
            "contract": "contracts/stake/Layer2RegistryProxy.sol:Layer2RegistryProxy",
            "label": "adminRole",
            "offset": 0,
            "slot": "1",
            "type": "t_bytes32"
          }
        ],
        "numberOfBytes": "64"
      },
      "t_uint256": {
        "encoding": "inplace",
        "label": "uint256",
        "numberOfBytes": "32"
      }
    }
  }
}