{
  "address": "0x8F4659871001915940bFbcfe790C1ed4ccB1D708",
  "abi": [
    {
      "anonymous": false,
      "inputs": [
        {
          "indexed": false,
          "internalType": "address",
          "name": "layer2",
          "type": "address"
        },
        {
          "indexed": false,
          "internalType": "uint256",
          "name": "seigs",
          "type": "uint256"
        },
        {
          "indexed": false,
          "internalType": "uint256",
          "name": "operatorSeigs",
          "type": "uint256"
        },
        {
          "indexed": false,
          "internalType": "uint256",
          "name": "nextTotalSupply",
          "type": "uint256"
        },
        {
          "indexed": false,
          "internalType": "uint256",
          "name": "prevTotalSupply",
          "type": "uint256"
        }
      ],
      "name": "AddedSeigAtLayer",
      "type": "event"
    },
    {
      "anonymous": false,
      "inputs": [
        {
          "indexed": true,
          "internalType": "address",
          "name": "layer2",
          "type": "address"
        },
        {
          "indexed": false,
          "internalType": "address",
          "name": "coinage",
          "type": "address"
        }
      ],
      "name": "CoinageCreated",
      "type": "event"
    },
    {
      "anonymous": false,
      "inputs": [
        {
          "indexed": true,
          "internalType": "address",
          "name": "layer2",
          "type": "address"
        }
      ],
      "name": "Comitted",
      "type": "event"
    },
    {
      "anonymous": false,
      "inputs": [
        {
          "indexed": true,
          "internalType": "address",
          "name": "layer2",
          "type": "address"
        },
        {
          "indexed": false,
          "internalType": "uint256",
          "name": "previousRate",
          "type": "uint256"
        },
        {
          "indexed": false,
          "internalType": "uint256",
          "name": "newRate",
          "type": "uint256"
        }
      ],
      "name": "CommissionRateSet",
      "type": "event"
    },
    {
      "anonymous": false,
      "inputs": [
        {
          "indexed": false,
          "internalType": "uint256",
          "name": "snapshotId",
          "type": "uint256"
        }
      ],
      "name": "OnSnapshot",
      "type": "event"
    },
    {
      "anonymous": false,
      "inputs": [
        {
          "indexed": false,
          "internalType": "address",
          "name": "account",
          "type": "address"
        }
      ],
      "name": "Paused",
      "type": "event"
    },
    {
      "anonymous": false,
      "inputs": [
        {
          "indexed": true,
          "internalType": "bytes32",
          "name": "role",
          "type": "bytes32"
        },
        {
          "indexed": true,
          "internalType": "bytes32",
          "name": "previousAdminRole",
          "type": "bytes32"
        },
        {
          "indexed": true,
          "internalType": "bytes32",
          "name": "newAdminRole",
          "type": "bytes32"
        }
      ],
      "name": "RoleAdminChanged",
      "type": "event"
    },
    {
      "anonymous": false,
      "inputs": [
        {
          "indexed": true,
          "internalType": "bytes32",
          "name": "role",
          "type": "bytes32"
        },
        {
          "indexed": true,
          "internalType": "address",
          "name": "account",
          "type": "address"
        },
        {
          "indexed": true,
          "internalType": "address",
          "name": "sender",
          "type": "address"
        }
      ],
      "name": "RoleGranted",
      "type": "event"
    },
    {
      "anonymous": false,
      "inputs": [
        {
          "indexed": true,
          "internalType": "bytes32",
          "name": "role",
          "type": "bytes32"
        },
        {
          "indexed": true,
          "internalType": "address",
          "name": "account",
          "type": "address"
        },
        {
          "indexed": true,
          "internalType": "address",
          "name": "sender",
          "type": "address"
        }
      ],
      "name": "RoleRevoked",
      "type": "event"
    },
    {
      "anonymous": false,
      "inputs": [
        {
          "indexed": true,
          "internalType": "address",
          "name": "layer2",
          "type": "address"
        },
        {
          "indexed": false,
          "internalType": "uint256",
          "name": "totalSeig",
          "type": "uint256"
        },
        {
          "indexed": false,
          "internalType": "uint256",
          "name": "stakedSeig",
          "type": "uint256"
        },
        {
          "indexed": false,
          "internalType": "uint256",
          "name": "unstakedSeig",
          "type": "uint256"
        },
        {
          "indexed": false,
          "internalType": "uint256",
          "name": "powertonSeig",
          "type": "uint256"
        },
        {
          "indexed": false,
          "internalType": "uint256",
          "name": "daoSeig",
          "type": "uint256"
        },
        {
          "indexed": false,
          "internalType": "uint256",
          "name": "pseig",
          "type": "uint256"
        }
      ],
      "name": "SeigGiven",
      "type": "event"
    },
    {
      "anonymous": false,
      "inputs": [
        {
          "indexed": false,
          "internalType": "uint256",
          "name": "daoSeigRate",
          "type": "uint256"
        }
      ],
      "name": "SetDaoSeigRate",
      "type": "event"
    },
    {
      "anonymous": false,
      "inputs": [
        {
          "indexed": false,
          "internalType": "uint256",
          "name": "powerTONSeigRate",
          "type": "uint256"
        }
      ],
      "name": "SetPowerTONSeigRate",
      "type": "event"
    },
    {
      "anonymous": false,
      "inputs": [
        {
          "indexed": false,
          "internalType": "uint256",
          "name": "pseigRate",
          "type": "uint256"
        }
      ],
      "name": "SetPseigRate",
      "type": "event"
    },
    {
      "anonymous": false,
      "inputs": [
        {
          "indexed": false,
          "internalType": "address",
          "name": "account",
          "type": "address"
        }
      ],
      "name": "Unpaused",
      "type": "event"
    },
    {
      "anonymous": false,
      "inputs": [
        {
          "indexed": false,
          "internalType": "uint256",
          "name": "coinageBurnAmount",
          "type": "uint256"
        },
        {
          "indexed": false,
          "internalType": "uint256",
          "name": "totBurnAmount",
          "type": "uint256"
        }
      ],
      "name": "UnstakeLog",
      "type": "event"
    },
    {
      "inputs": [],
      "name": "CHALLENGER_ROLE",
      "outputs": [
        {
          "internalType": "bytes32",
          "name": "",
          "type": "bytes32"
        }
      ],
      "stateMutability": "view",
      "type": "function"
    },
    {
      "inputs": [],
      "name": "DEFAULT_ADMIN_ROLE",
      "outputs": [
        {
          "internalType": "bytes32",
          "name": "",
          "type": "bytes32"
        }
      ],
      "stateMutability": "view",
      "type": "function"
    },
    {
      "inputs": [],
      "name": "DEFAULT_FACTOR",
      "outputs": [
        {
          "internalType": "uint256",
          "name": "",
          "type": "uint256"
        }
      ],
      "stateMutability": "pure",
      "type": "function"
    },
    {
      "inputs": [],
      "name": "MAX_VALID_COMMISSION",
      "outputs": [
        {
          "internalType": "uint256",
          "name": "",
          "type": "uint256"
        }
      ],
      "stateMutability": "view",
      "type": "function"
    },
    {
      "inputs": [],
      "name": "MINTER_ROLE",
      "outputs": [
        {
          "internalType": "bytes32",
          "name": "",
          "type": "bytes32"
        }
      ],
      "stateMutability": "view",
      "type": "function"
    },
    {
      "inputs": [],
      "name": "MIN_VALID_COMMISSION",
      "outputs": [
        {
          "internalType": "uint256",
          "name": "",
          "type": "uint256"
        }
      ],
      "stateMutability": "view",
      "type": "function"
    },
    {
      "inputs": [],
      "name": "OPERATOR_ROLE",
      "outputs": [
        {
          "internalType": "bytes32",
          "name": "",
          "type": "bytes32"
        }
      ],
      "stateMutability": "view",
      "type": "function"
    },
    {
      "inputs": [],
      "name": "PAUSE_ROLE",
      "outputs": [
        {
          "internalType": "bytes32",
          "name": "",
          "type": "bytes32"
        }
      ],
      "stateMutability": "view",
      "type": "function"
    },
    {
      "inputs": [],
      "name": "RAY",
      "outputs": [
        {
          "internalType": "uint256",
          "name": "",
          "type": "uint256"
        }
      ],
      "stateMutability": "view",
      "type": "function"
    },
    {
      "inputs": [],
      "name": "accRelativeSeig",
      "outputs": [
        {
          "internalType": "uint256",
          "name": "",
          "type": "uint256"
        }
      ],
      "stateMutability": "view",
      "type": "function"
    },
    {
      "inputs": [
        {
          "internalType": "address",
          "name": "account",
          "type": "address"
        }
      ],
      "name": "addAdmin",
      "outputs": [],
      "stateMutability": "nonpayable",
      "type": "function"
    },
    {
      "inputs": [
        {
          "internalType": "address",
          "name": "account",
          "type": "address"
        }
      ],
      "name": "addChallenger",
      "outputs": [],
      "stateMutability": "nonpayable",
      "type": "function"
    },
    {
      "inputs": [
        {
          "internalType": "address",
          "name": "account",
          "type": "address"
        }
      ],
      "name": "addMinter",
      "outputs": [],
      "stateMutability": "nonpayable",
      "type": "function"
    },
    {
      "inputs": [
        {
          "internalType": "address",
          "name": "account",
          "type": "address"
        }
      ],
      "name": "addOperator",
      "outputs": [],
      "stateMutability": "nonpayable",
      "type": "function"
    },
    {
      "inputs": [
        {
          "internalType": "address",
          "name": "layer2",
          "type": "address"
        },
        {
          "internalType": "address",
          "name": "account",
          "type": "address"
        },
        {
          "internalType": "uint256",
          "name": "amount",
          "type": "uint256"
        }
      ],
      "name": "additionalTotBurnAmount",
      "outputs": [
        {
          "internalType": "uint256",
          "name": "totAmount",
          "type": "uint256"
        }
      ],
      "stateMutability": "view",
      "type": "function"
    },
    {
      "inputs": [],
      "name": "adjustCommissionDelay",
      "outputs": [
        {
          "internalType": "uint256",
          "name": "",
          "type": "uint256"
        }
      ],
      "stateMutability": "view",
      "type": "function"
    },
    {
      "inputs": [
        {
          "internalType": "address",
          "name": "",
          "type": "address"
        }
      ],
      "name": "aliveImplementation",
      "outputs": [
        {
          "internalType": "bool",
          "name": "",
          "type": "bool"
        }
      ],
      "stateMutability": "view",
      "type": "function"
    },
    {
      "inputs": [
        {
          "internalType": "address",
          "name": "layer2",
          "type": "address"
        }
      ],
      "name": "coinages",
      "outputs": [
        {
          "internalType": "address",
          "name": "",
          "type": "address"
        }
      ],
      "stateMutability": "view",
      "type": "function"
    },
    {
      "inputs": [
        {
          "internalType": "address",
          "name": "layer2",
          "type": "address"
        }
      ],
      "name": "commissionRates",
      "outputs": [
        {
          "internalType": "uint256",
          "name": "",
          "type": "uint256"
        }
      ],
      "stateMutability": "view",
      "type": "function"
    },
    {
      "inputs": [],
      "name": "dao",
      "outputs": [
        {
          "internalType": "address",
          "name": "",
          "type": "address"
        }
      ],
      "stateMutability": "view",
      "type": "function"
    },
    {
      "inputs": [],
      "name": "daoSeigRate",
      "outputs": [
        {
          "internalType": "uint256",
          "name": "",
          "type": "uint256"
        }
      ],
      "stateMutability": "view",
      "type": "function"
    },
    {
      "inputs": [
        {
          "internalType": "address",
          "name": "",
          "type": "address"
        }
      ],
      "name": "delayedCommissionBlock",
      "outputs": [
        {
          "internalType": "uint256",
          "name": "",
          "type": "uint256"
        }
      ],
      "stateMutability": "view",
      "type": "function"
    },
    {
      "inputs": [
        {
          "internalType": "address",
          "name": "",
          "type": "address"
        }
      ],
      "name": "delayedCommissionRate",
      "outputs": [
        {
          "internalType": "uint256",
          "name": "",
          "type": "uint256"
        }
      ],
      "stateMutability": "view",
      "type": "function"
    },
    {
      "inputs": [
        {
          "internalType": "address",
          "name": "",
          "type": "address"
        }
      ],
      "name": "delayedCommissionRateNegative",
      "outputs": [
        {
          "internalType": "bool",
          "name": "",
          "type": "bool"
        }
      ],
      "stateMutability": "view",
      "type": "function"
    },
    {
      "inputs": [
        {
          "internalType": "address",
          "name": "layer2",
          "type": "address"
        }
      ],
      "name": "deployCoinage",
      "outputs": [
        {
          "internalType": "bool",
          "name": "",
          "type": "bool"
        }
      ],
      "stateMutability": "nonpayable",
      "type": "function"
    },
    {
      "inputs": [],
      "name": "depositManager",
      "outputs": [
        {
          "internalType": "address",
          "name": "",
          "type": "address"
        }
      ],
      "stateMutability": "view",
      "type": "function"
    },
    {
      "inputs": [],
      "name": "factory",
      "outputs": [
        {
          "internalType": "address",
          "name": "",
          "type": "address"
        }
      ],
      "stateMutability": "view",
      "type": "function"
    },
    {
      "inputs": [
        {
          "internalType": "address",
          "name": "layer2",
          "type": "address"
        }
      ],
      "name": "getOperatorAmount",
      "outputs": [
        {
          "internalType": "uint256",
          "name": "",
          "type": "uint256"
        }
      ],
      "stateMutability": "view",
      "type": "function"
    },
    {
      "inputs": [
        {
          "internalType": "bytes32",
          "name": "role",
          "type": "bytes32"
        }
      ],
      "name": "getRoleAdmin",
      "outputs": [
        {
          "internalType": "bytes32",
          "name": "",
          "type": "bytes32"
        }
      ],
      "stateMutability": "view",
      "type": "function"
    },
    {
      "inputs": [
        {
          "internalType": "bytes32",
          "name": "role",
          "type": "bytes32"
        },
        {
          "internalType": "address",
          "name": "account",
          "type": "address"
        }
      ],
      "name": "grantRole",
      "outputs": [],
      "stateMutability": "nonpayable",
      "type": "function"
    },
    {
      "inputs": [
        {
          "internalType": "bytes32",
          "name": "role",
          "type": "bytes32"
        },
        {
          "internalType": "address",
          "name": "account",
          "type": "address"
        }
      ],
      "name": "hasRole",
      "outputs": [
        {
          "internalType": "bool",
          "name": "",
          "type": "bool"
        }
      ],
      "stateMutability": "view",
      "type": "function"
    },
    {
      "inputs": [
        {
          "internalType": "address",
          "name": "ton_",
          "type": "address"
        },
        {
          "internalType": "address",
          "name": "wton_",
          "type": "address"
        },
        {
          "internalType": "address",
          "name": "registry_",
          "type": "address"
        },
        {
          "internalType": "address",
          "name": "depositManager_",
          "type": "address"
        },
        {
          "internalType": "uint256",
          "name": "seigPerBlock_",
          "type": "uint256"
        },
        {
          "internalType": "address",
          "name": "factory_",
          "type": "address"
        },
        {
          "internalType": "uint256",
          "name": "lastSeigBlock_",
          "type": "uint256"
        }
      ],
      "name": "initialize",
      "outputs": [],
      "stateMutability": "nonpayable",
      "type": "function"
    },
    {
      "inputs": [
        {
          "internalType": "address",
          "name": "account",
          "type": "address"
        }
      ],
      "name": "isAdmin",
      "outputs": [
        {
          "internalType": "bool",
          "name": "",
          "type": "bool"
        }
      ],
      "stateMutability": "view",
      "type": "function"
    },
    {
      "inputs": [
        {
          "internalType": "address",
          "name": "account",
          "type": "address"
        }
      ],
      "name": "isChallenger",
      "outputs": [
        {
          "internalType": "bool",
          "name": "",
          "type": "bool"
        }
      ],
      "stateMutability": "view",
      "type": "function"
    },
    {
      "inputs": [
        {
          "internalType": "address",
          "name": "layer2",
          "type": "address"
        }
      ],
      "name": "isCommissionRateNegative",
      "outputs": [
        {
          "internalType": "bool",
          "name": "",
          "type": "bool"
        }
      ],
      "stateMutability": "view",
      "type": "function"
    },
    {
      "inputs": [
        {
          "internalType": "address",
          "name": "account",
          "type": "address"
        }
      ],
      "name": "isMinter",
      "outputs": [
        {
          "internalType": "bool",
          "name": "",
          "type": "bool"
        }
      ],
      "stateMutability": "view",
      "type": "function"
    },
    {
      "inputs": [
        {
          "internalType": "address",
          "name": "account",
          "type": "address"
        }
      ],
      "name": "isOperator",
      "outputs": [
        {
          "internalType": "bool",
          "name": "",
          "type": "bool"
        }
      ],
      "stateMutability": "view",
      "type": "function"
    },
    {
      "inputs": [],
      "name": "isOwner",
      "outputs": [
        {
          "internalType": "bool",
          "name": "",
          "type": "bool"
        }
      ],
      "stateMutability": "view",
      "type": "function"
    },
    {
      "inputs": [],
      "name": "l1StakedTonToL2",
      "outputs": [
        {
          "internalType": "address",
          "name": "",
          "type": "address"
        }
      ],
      "stateMutability": "view",
      "type": "function"
    },
    {
      "inputs": [
        {
          "internalType": "address",
          "name": "layer2",
          "type": "address"
        }
      ],
      "name": "lastCommitBlock",
      "outputs": [
        {
          "internalType": "uint256",
          "name": "",
          "type": "uint256"
        }
      ],
      "stateMutability": "view",
      "type": "function"
    },
    {
      "inputs": [],
      "name": "lastSeigBlock",
      "outputs": [
        {
          "internalType": "uint256",
          "name": "",
          "type": "uint256"
        }
      ],
      "stateMutability": "view",
      "type": "function"
    },
    {
      "inputs": [],
      "name": "lastSnapshotId",
      "outputs": [
        {
          "internalType": "uint256",
          "name": "",
          "type": "uint256"
        }
      ],
      "stateMutability": "view",
      "type": "function"
    },
    {
      "inputs": [],
      "name": "minimumAmount",
      "outputs": [
        {
          "internalType": "uint256",
          "name": "",
          "type": "uint256"
        }
      ],
      "stateMutability": "view",
      "type": "function"
    },
    {
      "inputs": [
        {
          "internalType": "address",
          "name": "layer2",
          "type": "address"
        },
        {
          "internalType": "address",
          "name": "account",
          "type": "address"
        },
        {
          "internalType": "uint256",
          "name": "amount",
          "type": "uint256"
        }
      ],
      "name": "onDeposit",
      "outputs": [
        {
          "internalType": "bool",
          "name": "",
          "type": "bool"
        }
      ],
      "stateMutability": "nonpayable",
      "type": "function"
    },
    {
      "inputs": [],
      "name": "onSnapshot",
      "outputs": [
        {
          "internalType": "uint256",
          "name": "snapshotId",
          "type": "uint256"
        }
      ],
      "stateMutability": "nonpayable",
      "type": "function"
    },
    {
      "inputs": [
        {
          "internalType": "address",
          "name": "sender",
          "type": "address"
        },
        {
          "internalType": "address",
          "name": "recipient",
          "type": "address"
        },
        {
          "internalType": "uint256",
          "name": "amount",
          "type": "uint256"
        }
      ],
      "name": "onTransfer",
      "outputs": [
        {
          "internalType": "bool",
          "name": "",
          "type": "bool"
        }
      ],
      "stateMutability": "nonpayable",
      "type": "function"
    },
    {
      "inputs": [
        {
          "internalType": "address",
          "name": "layer2",
          "type": "address"
        },
        {
          "internalType": "address",
          "name": "account",
          "type": "address"
        },
        {
          "internalType": "uint256",
          "name": "amount",
          "type": "uint256"
        }
      ],
      "name": "onWithdraw",
      "outputs": [
        {
          "internalType": "bool",
          "name": "",
          "type": "bool"
        }
      ],
      "stateMutability": "nonpayable",
      "type": "function"
    },
    {
      "inputs": [],
      "name": "pause",
      "outputs": [],
      "stateMutability": "nonpayable",
      "type": "function"
    },
    {
      "inputs": [],
      "name": "pauseProxy",
      "outputs": [
        {
          "internalType": "bool",
          "name": "",
          "type": "bool"
        }
      ],
      "stateMutability": "view",
      "type": "function"
    },
    {
      "inputs": [],
      "name": "paused",
      "outputs": [
        {
          "internalType": "bool",
          "name": "",
          "type": "bool"
        }
      ],
      "stateMutability": "view",
      "type": "function"
    },
    {
      "inputs": [],
      "name": "pausedBlock",
      "outputs": [
        {
          "internalType": "uint256",
          "name": "",
          "type": "uint256"
        }
      ],
      "stateMutability": "view",
      "type": "function"
    },
    {
      "inputs": [],
      "name": "powerTONSeigRate",
      "outputs": [
        {
          "internalType": "uint256",
          "name": "",
          "type": "uint256"
        }
      ],
      "stateMutability": "view",
      "type": "function"
    },
    {
      "inputs": [],
      "name": "powerton",
      "outputs": [
        {
          "internalType": "address",
          "name": "",
          "type": "address"
        }
      ],
      "stateMutability": "view",
      "type": "function"
    },
    {
      "inputs": [],
      "name": "progressSnapshotId",
      "outputs": [
        {
          "internalType": "uint256",
          "name": "",
          "type": "uint256"
        }
      ],
      "stateMutability": "view",
      "type": "function"
    },
    {
      "inputs": [
        {
          "internalType": "uint256",
          "name": "",
          "type": "uint256"
        }
      ],
      "name": "proxyImplementation",
      "outputs": [
        {
          "internalType": "address",
          "name": "",
          "type": "address"
        }
      ],
      "stateMutability": "view",
      "type": "function"
    },
    {
      "inputs": [],
      "name": "registry",
      "outputs": [
        {
          "internalType": "address",
          "name": "",
          "type": "address"
        }
      ],
      "stateMutability": "view",
      "type": "function"
    },
    {
      "inputs": [],
      "name": "relativeSeigRate",
      "outputs": [
        {
          "internalType": "uint256",
          "name": "",
          "type": "uint256"
        }
      ],
      "stateMutability": "view",
      "type": "function"
    },
    {
      "inputs": [
        {
          "internalType": "address",
          "name": "account",
          "type": "address"
        }
      ],
      "name": "removeAdmin",
      "outputs": [],
      "stateMutability": "nonpayable",
      "type": "function"
    },
    {
      "inputs": [
        {
          "internalType": "address",
          "name": "account",
          "type": "address"
        }
      ],
      "name": "removeChallenger",
      "outputs": [],
      "stateMutability": "nonpayable",
      "type": "function"
    },
    {
      "inputs": [
        {
          "internalType": "address",
          "name": "account",
          "type": "address"
        }
      ],
      "name": "removeMinter",
      "outputs": [],
      "stateMutability": "nonpayable",
      "type": "function"
    },
    {
      "inputs": [
        {
          "internalType": "address",
          "name": "account",
          "type": "address"
        }
      ],
      "name": "removeOperator",
      "outputs": [],
      "stateMutability": "nonpayable",
      "type": "function"
    },
    {
      "inputs": [],
      "name": "renounceChallenger",
      "outputs": [],
      "stateMutability": "nonpayable",
      "type": "function"
    },
    {
      "inputs": [
        {
          "internalType": "address",
          "name": "target",
          "type": "address"
        }
      ],
      "name": "renounceMinter",
      "outputs": [],
      "stateMutability": "nonpayable",
      "type": "function"
    },
    {
      "inputs": [],
      "name": "renounceMinter",
      "outputs": [],
      "stateMutability": "nonpayable",
      "type": "function"
    },
    {
      "inputs": [],
      "name": "renounceOperator",
      "outputs": [],
      "stateMutability": "nonpayable",
      "type": "function"
    },
    {
      "inputs": [
        {
          "internalType": "address",
          "name": "target",
          "type": "address"
        }
      ],
      "name": "renounceOwnership",
      "outputs": [],
      "stateMutability": "nonpayable",
      "type": "function"
    },
    {
      "inputs": [],
      "name": "renounceOwnership",
      "outputs": [],
      "stateMutability": "nonpayable",
      "type": "function"
    },
    {
      "inputs": [
        {
          "internalType": "address",
          "name": "target",
          "type": "address"
        }
      ],
      "name": "renouncePauser",
      "outputs": [],
      "stateMutability": "nonpayable",
      "type": "function"
    },
    {
      "inputs": [
        {
          "internalType": "bytes32",
          "name": "role",
          "type": "bytes32"
        },
        {
          "internalType": "address",
          "name": "account",
          "type": "address"
        }
      ],
      "name": "renounceRole",
      "outputs": [],
      "stateMutability": "nonpayable",
      "type": "function"
    },
    {
      "inputs": [],
      "name": "renounceWTONMinter",
      "outputs": [],
      "stateMutability": "nonpayable",
      "type": "function"
    },
    {
      "inputs": [
        {
          "internalType": "address",
          "name": "account",
          "type": "address"
        }
      ],
      "name": "revokeChallenger",
      "outputs": [],
      "stateMutability": "nonpayable",
      "type": "function"
    },
    {
      "inputs": [
        {
          "internalType": "address",
          "name": "account",
          "type": "address"
        }
      ],
      "name": "revokeMinter",
      "outputs": [],
      "stateMutability": "nonpayable",
      "type": "function"
    },
    {
      "inputs": [
        {
          "internalType": "address",
          "name": "account",
          "type": "address"
        }
      ],
      "name": "revokeOperator",
      "outputs": [],
      "stateMutability": "nonpayable",
      "type": "function"
    },
    {
      "inputs": [
        {
          "internalType": "bytes32",
          "name": "role",
          "type": "bytes32"
        },
        {
          "internalType": "address",
          "name": "account",
          "type": "address"
        }
      ],
      "name": "revokeRole",
      "outputs": [],
      "stateMutability": "nonpayable",
      "type": "function"
    },
    {
      "inputs": [],
      "name": "seigPerBlock",
      "outputs": [
        {
          "internalType": "uint256",
          "name": "",
          "type": "uint256"
        }
      ],
      "stateMutability": "view",
      "type": "function"
    },
    {
      "inputs": [
        {
          "internalType": "bytes4",
          "name": "",
          "type": "bytes4"
        }
      ],
      "name": "selectorImplementation",
      "outputs": [
        {
          "internalType": "address",
          "name": "",
          "type": "address"
        }
      ],
      "stateMutability": "view",
      "type": "function"
    },
    {
      "inputs": [
        {
          "internalType": "uint256",
          "name": "adjustDelay_",
          "type": "uint256"
        }
      ],
      "name": "setAdjustDelay",
      "outputs": [],
      "stateMutability": "nonpayable",
      "type": "function"
    },
    {
      "inputs": [
        {
          "internalType": "address",
          "name": "factory_",
          "type": "address"
        }
      ],
      "name": "setCoinageFactory",
      "outputs": [],
      "stateMutability": "nonpayable",
      "type": "function"
    },
    {
      "inputs": [
        {
          "internalType": "address",
          "name": "layer2",
          "type": "address"
        },
        {
          "internalType": "uint256",
          "name": "commissionRate",
          "type": "uint256"
        },
        {
          "internalType": "bool",
          "name": "isCommissionRateNegative_",
          "type": "bool"
        }
      ],
      "name": "setCommissionRate",
      "outputs": [
        {
          "internalType": "bool",
          "name": "",
          "type": "bool"
        }
      ],
      "stateMutability": "nonpayable",
      "type": "function"
    },
    {
      "inputs": [
        {
          "internalType": "address",
          "name": "daoAddress",
          "type": "address"
        }
      ],
      "name": "setDao",
      "outputs": [],
      "stateMutability": "nonpayable",
      "type": "function"
    },
    {
      "inputs": [
        {
          "internalType": "uint256",
          "name": "daoSeigRate_",
          "type": "uint256"
        }
      ],
      "name": "setDaoSeigRate",
      "outputs": [],
      "stateMutability": "nonpayable",
      "type": "function"
    },
    {
      "inputs": [
        {
          "internalType": "address",
          "name": "powerton_",
          "type": "address"
        },
        {
          "internalType": "address",
          "name": "daoAddress",
          "type": "address"
        },
        {
          "internalType": "uint256",
          "name": "powerTONSeigRate_",
          "type": "uint256"
        },
        {
          "internalType": "uint256",
          "name": "daoSeigRate_",
          "type": "uint256"
        },
        {
          "internalType": "uint256",
          "name": "relativeSeigRate_",
          "type": "uint256"
        },
        {
          "internalType": "uint256",
          "name": "adjustDelay_",
          "type": "uint256"
        },
        {
          "internalType": "uint256",
          "name": "minimumAmount_",
          "type": "uint256"
        }
      ],
      "name": "setData",
      "outputs": [],
      "stateMutability": "nonpayable",
      "type": "function"
    },
    {
      "inputs": [
        {
          "internalType": "address",
          "name": "l1StakedTonToL2_",
          "type": "address"
        }
      ],
      "name": "setL1StakedTonToL2",
      "outputs": [],
      "stateMutability": "nonpayable",
      "type": "function"
    },
    {
      "inputs": [
        {
          "internalType": "uint256",
          "name": "minimumAmount_",
          "type": "uint256"
        }
      ],
      "name": "setMinimumAmount",
      "outputs": [],
      "stateMutability": "nonpayable",
      "type": "function"
    },
    {
      "inputs": [
        {
          "internalType": "address",
          "name": "powerton_",
          "type": "address"
        }
      ],
      "name": "setPowerTON",
      "outputs": [],
      "stateMutability": "nonpayable",
      "type": "function"
    },
    {
      "inputs": [
        {
          "internalType": "uint256",
          "name": "powerTONSeigRate_",
          "type": "uint256"
        }
      ],
      "name": "setPowerTONSeigRate",
      "outputs": [],
      "stateMutability": "nonpayable",
      "type": "function"
    },
    {
      "inputs": [
        {
          "internalType": "uint256",
          "name": "pseigRate_",
          "type": "uint256"
        }
      ],
      "name": "setPseigRate",
      "outputs": [],
      "stateMutability": "nonpayable",
      "type": "function"
    },
    {
      "inputs": [
        {
          "internalType": "address",
          "name": "layer2",
          "type": "address"
        },
        {
          "internalType": "address",
          "name": "challenger",
          "type": "address"
        }
      ],
      "name": "slash",
      "outputs": [
        {
          "internalType": "bool",
          "name": "",
          "type": "bool"
        }
      ],
      "stateMutability": "nonpayable",
      "type": "function"
    },
    {
      "inputs": [
        {
          "internalType": "address",
          "name": "account",
          "type": "address"
        }
      ],
      "name": "stakeOf",
      "outputs": [
        {
          "internalType": "uint256",
          "name": "amount",
          "type": "uint256"
        }
      ],
      "stateMutability": "view",
      "type": "function"
    },
    {
      "inputs": [
        {
          "internalType": "address",
          "name": "layer2",
          "type": "address"
        },
        {
          "internalType": "address",
          "name": "account",
          "type": "address"
        }
      ],
      "name": "stakeOf",
      "outputs": [
        {
          "internalType": "uint256",
          "name": "",
          "type": "uint256"
        }
      ],
      "stateMutability": "view",
      "type": "function"
    },
    {
      "inputs": [
        {
          "internalType": "address",
          "name": "account",
          "type": "address"
        },
        {
          "internalType": "uint256",
          "name": "snapshotId",
          "type": "uint256"
        }
      ],
      "name": "stakeOfAt",
      "outputs": [
        {
          "internalType": "uint256",
          "name": "amount",
          "type": "uint256"
        }
      ],
      "stateMutability": "view",
      "type": "function"
    },
    {
      "inputs": [
        {
          "internalType": "address",
          "name": "layer2",
          "type": "address"
        },
        {
          "internalType": "address",
          "name": "account",
          "type": "address"
        },
        {
          "internalType": "uint256",
          "name": "snapshotId",
          "type": "uint256"
        }
      ],
      "name": "stakeOfAt",
      "outputs": [
        {
          "internalType": "uint256",
          "name": "amount",
          "type": "uint256"
        }
      ],
      "stateMutability": "view",
      "type": "function"
    },
    {
      "inputs": [],
      "name": "stakeOfTotal",
      "outputs": [
        {
          "internalType": "uint256",
          "name": "amount",
          "type": "uint256"
        }
      ],
      "stateMutability": "view",
      "type": "function"
    },
    {
      "inputs": [
        {
          "internalType": "uint256",
          "name": "snapshotId",
          "type": "uint256"
        }
      ],
      "name": "stakeOfTotalAt",
      "outputs": [
        {
          "internalType": "uint256",
          "name": "amount",
          "type": "uint256"
        }
      ],
      "stateMutability": "view",
      "type": "function"
    },
    {
      "inputs": [
        {
          "internalType": "bytes4",
          "name": "interfaceId",
          "type": "bytes4"
        }
      ],
      "name": "supportsInterface",
      "outputs": [
        {
          "internalType": "bool",
          "name": "",
          "type": "bool"
        }
      ],
      "stateMutability": "view",
      "type": "function"
    },
    {
      "inputs": [],
      "name": "ton",
      "outputs": [
        {
          "internalType": "address",
          "name": "",
          "type": "address"
        }
      ],
      "stateMutability": "view",
      "type": "function"
    },
    {
      "inputs": [],
      "name": "tot",
      "outputs": [
        {
          "internalType": "address",
          "name": "",
          "type": "address"
        }
      ],
      "stateMutability": "view",
      "type": "function"
    },
    {
      "inputs": [],
      "name": "totalSupplyOfTon",
      "outputs": [
        {
          "internalType": "uint256",
          "name": "tos",
          "type": "uint256"
        }
      ],
      "stateMutability": "view",
      "type": "function"
    },
    {
      "inputs": [
        {
          "internalType": "address",
          "name": "newAdmin",
          "type": "address"
        }
      ],
      "name": "transferAdmin",
      "outputs": [],
      "stateMutability": "nonpayable",
      "type": "function"
    },
    {
      "inputs": [
        {
          "internalType": "address",
          "name": "newSeigManager",
          "type": "address"
        },
        {
          "internalType": "address[]",
          "name": "coinages_",
          "type": "address[]"
        }
      ],
      "name": "transferCoinageOwnership",
      "outputs": [],
      "stateMutability": "nonpayable",
      "type": "function"
    },
    {
      "inputs": [
        {
          "internalType": "address",
          "name": "target",
          "type": "address"
        },
        {
          "internalType": "address",
          "name": "newOwner",
          "type": "address"
        }
      ],
      "name": "transferOwnership",
      "outputs": [],
      "stateMutability": "nonpayable",
      "type": "function"
    },
    {
      "inputs": [
        {
          "internalType": "address",
          "name": "newAdmin",
          "type": "address"
        }
      ],
      "name": "transferOwnership",
      "outputs": [],
      "stateMutability": "nonpayable",
      "type": "function"
    },
    {
      "inputs": [
        {
          "internalType": "address",
          "name": "layer2",
          "type": "address"
        },
        {
          "internalType": "address",
          "name": "account",
          "type": "address"
        }
      ],
      "name": "uncomittedStakeOf",
      "outputs": [
        {
          "internalType": "uint256",
          "name": "",
          "type": "uint256"
        }
      ],
      "stateMutability": "view",
      "type": "function"
    },
    {
      "inputs": [],
      "name": "unpause",
      "outputs": [],
      "stateMutability": "nonpayable",
      "type": "function"
    },
    {
      "inputs": [],
      "name": "unpausedBlock",
      "outputs": [
        {
          "internalType": "uint256",
          "name": "",
          "type": "uint256"
        }
      ],
      "stateMutability": "view",
      "type": "function"
    },
    {
      "inputs": [],
      "name": "updateSeigniorage",
      "outputs": [
        {
          "internalType": "bool",
          "name": "",
          "type": "bool"
        }
      ],
      "stateMutability": "nonpayable",
      "type": "function"
    },
    {
      "inputs": [
        {
          "internalType": "address",
          "name": "layer2",
          "type": "address"
        }
      ],
      "name": "updateSeigniorageLayer",
      "outputs": [
        {
          "internalType": "bool",
          "name": "",
          "type": "bool"
        }
      ],
      "stateMutability": "nonpayable",
      "type": "function"
    },
    {
      "inputs": [],
      "name": "wton",
      "outputs": [
        {
          "internalType": "address",
          "name": "",
          "type": "address"
        }
      ],
      "stateMutability": "view",
      "type": "function"
    }
  ],
  "transactionHash": "0x7506fb893b0aaa315e6054d00d12348cb8c347dbf8881e0339d88510c4124f67",
  "args": [],
  "numDeployments": 1,
  "solcInputHash": "c687ce91bd9936661659d5ffd53376d3",
  "bytecode": "0x608060405234801561001057600080fd5b506156eb80620000216000396000f3fe608060405234801561001057600080fd5b50600436106106b45760003560e01c80637048027511610371578063ac8a584a116101d3578063de0562201161010f578063f35c89e8116100ad578063f850ffaa11610087578063f850ffaa14610ee6578063f8951f4614610ef9578063fa9789c814610f0c578063fad8b32a14610f1f57600080fd5b8063f35c89e814610eae578063f5b541a614610eb6578063f822934814610edd57600080fd5b8063e4034832116100e9578063e403483214610e62578063eeb4a9c814610e75578063ef23914814610e88578063f2fde38b14610e9b57600080fd5b8063de05622014610e26578063df7fbef014610e39578063e2fe8fd114610e4257600080fd5b8063cbfebe621161017c578063ce6c035511610156578063ce6c035514610dd1578063cfbd488514610dd9578063d539139314610dec578063d547741f14610e1357600080fd5b8063cbfebe6214610d8d578063cc48b94714610dad578063ce4cb87614610dbe57600080fd5b8063bb0c8298116101ad578063bb0c829814610d48578063c45a015514610d51578063c59f104614610d6457600080fd5b8063ac8a584a14610d04578063ae3458f814610d17578063b911135f14610d1f57600080fd5b806391d14854116102ad578063a16d6aa71161024b578063a7dcc85011610225578063a7dcc85014610ca9578063aa271e1a14610cbb578063ac753a7a14610cce578063ac89321914610cf157600080fd5b8063a16d6aa714610c7d578063a217fddf14610c8e578063a415d8dc14610c9657600080fd5b806398650275116102875780639865027514610c3c5780639870d7fe14610c445780639c877e4714610c57578063a0474ef514610c6a57600080fd5b806391d1485414610bdd5780639328f1bc14610c16578063983b2d5614610c2957600080fd5b80637b1039991161031a5780638456cb59116102f45780638456cb5914610b7b5780638bf91dc414610b835780638d62d94914610b955780638f32d59b14610ba657600080fd5b80637b10399914610b4e578063833a774f14610b5f578063837afbc014610b7257600080fd5b8063764a78561161034b578063764a785614610b0a5780637aeccce914610b125780637b056c1b14610b2557600080fd5b80637048027514610adc578063715018a614610aef57806375829def14610af757600080fd5b80634162169f1161051a578063552033c4116104565780636304a624116103f45780636c578c1d116103ce5780636c578c1d14610a925780636c7ac9d814610aa55780636d43542114610ab65780636d70f7ae14610ac957600080fd5b80636304a62414610a6957806363a8fd8914610a725780636637b88214610a7f57600080fd5b80635a16a416116104305780635a16a41614610a155780635c975abb14610a415780635f112c6814610a4e5780635f40a34914610a6157600080fd5b8063552033c41461089457806358d00cd614610a045780635998a8d714610a0c57600080fd5b806348c8577e116104c35780634c75ab9c1161049d5780634c75ab9c1461097e57806350d2a27614610991578063530adbb4146109ba578063550d01a3146109e157600080fd5b806348c8577e1461092c5780634a3931491461093f5780634c063c191461095257600080fd5b80634224ed66116104f45780634224ed66146108f3578063426233601461090657806346a99fe71461091957600080fd5b80634162169f146108ba57806341813020146108cd57806341eb24bb146108e057600080fd5b80632d1bdec8116105f4578063389ed267116105925780633e832e1d1161056c5780633e832e1d146108675780633f4ba83a1461088c5780634123196f14610894578063412c6d50146108a757600080fd5b8063389ed2671461081a57806338bf3cfa146108415780633c4911731461085457600080fd5b80633092afd5116105ce5780633092afd5146107d957806332053c99146107ec57806332847953146107f457806336568abe1461080757600080fd5b80632d1bdec8146107a05780632f17250a146107b35780632f2ff15d146107c657600080fd5b80631e1f0b601161066157806324d7806c1161063b57806324d7806c1461077457806325374a9a1461078757806325e90db4146107905780632ab6f8db1461079857600080fd5b80631e1f0b60146107365780632428c62814610749578063248a9ca31461075157600080fd5b8063139770421161069257806313977042146107095780631785f53c1461071b5780631cc478901461072e57600080fd5b806301ffc9a7146106b957806303e1cc27146106e15780630ceb6780146106f6575b600080fd5b6106cc6106c73660046151a1565b610f32565b60405190151581526020015b60405180910390f35b6106f46106ef3660046151cb565b610f43565b005b6106f46107043660046151f9565b611023565b6020545b6040519081526020016106d8565b6106f46107293660046151f9565b6110de565b60135461070d565b6106cc6107443660046151f9565b61110e565b61070d6111c8565b61070d61075f3660046151cb565b60009081526005602052604090206001015490565b6106cc6107823660046151f9565b6113bb565b61070d601d5481565b6106f46113fb565b6106f4611427565b6106f46107ae3660046151cb565b611451565b61070d6107c13660046151f9565b61147b565b6106f46107d4366004615216565b611566565b6106f46107e73660046151f9565b611590565b60125461070d565b6106f4610802366004615246565b6115df565b6106f4610815366004615216565b61175f565b61070d7ffcb9fcbfa83b897fb2d5cf4b58962164105c1e71489a37ef3ae0db3fdce576f681565b6106f461084f3660046151f9565b6117eb565b6106f46108623660046151f9565b611866565b6008546001600160a01b03165b6040516001600160a01b0390911681526020016106d8565b6106f46118b5565b61070d6b033b2e3c9fd0803ce800000081565b6106cc6108b53660046152ce565b6119d5565b600954610874906001600160a01b031681565b6106f46108db3660046151f9565b611d2b565b6106f46108ee3660046151f9565b611d72565b6106cc61090136600461531d565b611dd2565b61070d6109143660046151f9565b61204e565b6106f461092736600461535f565b6121e9565b61070d61093a3660046152ce565b612379565b6106cc61094d3660046152ce565b61238e565b6108746109603660046151f9565b6001600160a01b039081166000908152600e60205260409020541690565b61070d61098c3660046153e3565b612444565b61087461099f3660046151a1565b6003602052600090815260409020546001600160a01b031681565b61070d7fbf02bad7114723a857a3af46cea17b778a3a951c96f183784d9a2448cc479ab681565b6106cc6109ef3660046151f9565b60026020526000908152604090205460ff1681565b61070d6125e7565b61070d601c5481565b6106cc610a233660046151f9565b6001600160a01b031660009081526015602052604090205460ff1690565b601f546106cc9060ff1681565b6106f4610a5c3660046151f9565b61263c565b60105461070d565b61070d601b5481565b6000546106cc9060ff1681565b6106f4610a8d3660046151f9565b61269c565b6106f4610aa03660046151f9565b6126e3565b6007546001600160a01b0316610874565b6106f4610ac436600461540f565b612732565b6106cc610ad73660046151f9565b6127b6565b6106f4610aea3660046151f9565b6127f6565b6106f4612826565b6106f4610b053660046151f9565b612856565b6106cc61293f565b6106cc610b2036600461540f565b612fd9565b61070d610b333660046151f9565b6001600160a01b031660009081526014602052604090205490565b6006546001600160a01b0316610874565b6106cc610b6d3660046151f9565b61314c565b61070d60205481565b6106f46132af565b6b033b2e3c9fd0803ce800000061070d565b600b546001600160a01b0316610874565b3360009081527f05b8ccbb9d4d8fb16ea74ce3c29a41f1b461fbdaff4714a0d9a8eb05499746bc602052604090205460ff166106cc565b6106cc610beb366004615216565b60009182526005602090815260408084206001600160a01b0393909316845291905290205460ff1690565b61070d610c243660046152ce565b6133cd565b6106f4610c373660046151f9565b613451565b6106f46134a0565b6106f4610c523660046151f9565b6134ca565b6106f4610c653660046151cb565b613519565b61070d610c783660046151cb565b6135e9565b600d546001600160a01b0316610874565b61070d600081565b6106cc610ca43660046151f9565b613657565b61070d6a084595161401484a00000081565b6106cc610cc93660046151f9565b613697565b6106cc610cdc3660046151f9565b60196020526000908152604090205460ff1681565b6106f4610cff3660046151f9565b6136d7565b6106f4610d123660046151f9565b61371e565b6106f461376d565b610874610d2d3660046151cb565b6001602052600090815260409020546001600160a01b031681565b61070d601a5481565b600c54610874906001600160a01b031681565b61070d610d723660046151f9565b6001600160a01b03166000908152600f602052604090205490565b61070d610d9b3660046151f9565b60176020526000908152604090205481565b600a546001600160a01b0316610874565b61070d610dcc36600461540f565b6137f6565b61070d61384f565b6106f4610de73660046151f9565b6138bd565b61070d7ff0887ba65ee2024ea881d91b74c2450ef19e1557f03bed3ea9f16b037cbe2dc981565b6106f4610e21366004615216565b613908565b602154610874906001600160a01b031681565b61070d60165481565b61070d610e503660046151f9565b60186020526000908152604090205481565b6106f4610e703660046151cb565b61392d565b6106f4610e833660046151cb565b6139fd565b6106f4610e963660046151f9565b613a27565b6106f4610ea93660046151f9565b613a6e565b60115461070d565b61070d7f523a704056dcd17bcf83bed8b68c59416dac1119be77755efe3bde0a64e46e0c81565b61070d601e5481565b6106cc610ef43660046152ce565b613a9c565b6106f4610f0736600461543d565b613f23565b61070d610f1a36600461540f565b6140b2565b6106f4610f2d3660046151f9565b614332565b6000610f3d82614381565b92915050565b610f4c336113bb565b610f715760405162461bcd60e51b8152600401610f689061549f565b60405180910390fd5b6b033b2e3c9fd0803ce8000000601d5482601b54610f8f91906154f8565b610f9991906154f8565b1115610fe75760405162461bcd60e51b815260206004820152601960248201527f657863656564656420736569676e696f726167652072617465000000000000006044820152606401610f68565b601c8190556040518181527f1140c1f14579543e61b599f8f43d0112d66ec1462431e56c97c27b47446a38ac906020015b60405180910390a150565b61102c336113bb565b8061106557503360009081527fca0a2f641ec05ca23127d994cf03ffc453db616acae0b86cb56bb95304d06854602052604090205460ff165b6110b15760405162461bcd60e51b815260206004820152601560248201527f6e6f74206f6e6c794d696e7465724f7241646d696e00000000000000000000006044820152606401610f68565b6110db7fbf02bad7114723a857a3af46cea17b778a3a951c96f183784d9a2448cc479ab682611566565b50565b6110e7336113bb565b6111035760405162461bcd60e51b8152600401610f689061549f565b6110db60008261175f565b6000816001600160a01b031663764a78566040518163ffffffff1660e01b81526004016020604051808303816000875af1158015611150573d6000803e3d6000fd5b505050506040513d601f19601f82011682018060405250810190611174919061550b565b6111c05760405162461bcd60e51b815260206004820152601660248201527f6661696c20757064617465536569676e696f72616765000000000000000000006044820152606401610f68565b506001919050565b600b54604080516318160ddd60e01b815290516000926001600160a01b0316916318160ddd9160048083019260209291908290030181865afa158015611212573d6000803e3d6000fd5b505050506040513d601f19601f820116820180604052508101906112369190615528565b600a546040516370a0823160e01b8152600160048201526001600160a01b03909116906370a0823190602401602060405180830381865afa15801561127f573d6000803e3d6000fd5b505050506040513d601f19601f820116820180604052508101906112a39190615528565b600a54600b546040516370a0823160e01b81526001600160a01b0391821660048201529116906370a0823190602401602060405180830381865afa1580156112ef573d6000803e3d6000fd5b505050506040513d601f19601f820116820180604052508101906113139190615528565b600a60009054906101000a90046001600160a01b03166001600160a01b03166318160ddd6040518163ffffffff1660e01b8152600401602060405180830381865afa158015611366573d6000803e3d6000fd5b505050506040513d601f19601f8201168201806040525081019061138a9190615528565b6113949190615541565b61139e9190615541565b6113ac90633b9aca00615554565b6113b691906154f8565b905090565b6001600160a01b03811660009081527f05b8ccbb9d4d8fb16ea74ce3c29a41f1b461fbdaff4714a0d9a8eb05499746bc602052604081205460ff16610f3d565b6114257fbf02bad7114723a857a3af46cea17b778a3a951c96f183784d9a2448cc479ab63361175f565b565b6114257f523a704056dcd17bcf83bed8b68c59416dac1119be77755efe3bde0a64e46e0c3361175f565b61145a336113bb565b6114765760405162461bcd60e51b8152600401610f689061549f565b601655565b600080336001600160a01b031663570ca7356040518163ffffffff1660e01b8152600401602060405180830381865afa1580156114bc573d6000803e3d6000fd5b505050506040513d601f19601f820116820180604052508101906114e0919061556b565b6001600160a01b038481166000908152600e6020526040908190205490516370a0823160e01b8152838316600482015292935016906370a0823190602401602060405180830381865afa15801561153b573d6000803e3d6000fd5b505050506040513d601f19601f8201168201806040525081019061155f9190615528565b9392505050565b600082815260056020526040902060010154611581816143a6565b61158b83836143b0565b505050565b611599336113bb565b6115b55760405162461bcd60e51b8152600401610f689061549f565b6110db7ff0887ba65ee2024ea881d91b74c2450ef19e1557f03bed3ea9f16b037cbe2dc98261175f565b6115e8336113bb565b6116045760405162461bcd60e51b8152600401610f689061549f565b60005b8181101561175957600083838381811061162357611623615588565b905060200201602081019061163891906151f9565b604051634c1d96ab60e11b81526001600160a01b0387811660048301529192509082169063983b2d5690602401600060405180830381600087803b15801561167f57600080fd5b505af1158015611693573d6000803e3d6000fd5b50505050806001600160a01b031663986502756040518163ffffffff1660e01b8152600401600060405180830381600087803b1580156116d257600080fd5b505af11580156116e6573d6000803e3d6000fd5b505060405163f2fde38b60e01b81526001600160a01b0388811660048301528416925063f2fde38b9150602401600060405180830381600087803b15801561172d57600080fd5b505af1158015611741573d6000803e3d6000fd5b505050505080806117519061559e565b915050611607565b50505050565b6001600160a01b03811633146117dd5760405162461bcd60e51b815260206004820152602f60248201527f416363657373436f6e74726f6c3a2063616e206f6e6c792072656e6f756e636560448201527f20726f6c657320666f722073656c6600000000000000000000000000000000006064820152608401610f68565b6117e78282614452565b5050565b6117f4336113bb565b6118105760405162461bcd60e51b8152600401610f689061549f565b806001600160a01b031663715018a66040518163ffffffff1660e01b8152600401600060405180830381600087803b15801561184b57600080fd5b505af115801561185f573d6000803e3d6000fd5b5050505050565b61186f336113bb565b61188b5760405162461bcd60e51b8152600401610f689061549f565b6110db7fbf02bad7114723a857a3af46cea17b778a3a951c96f183784d9a2448cc479ab682613908565b3360009081527f787f97f3270d439d97068e73d6d75a066b24f84c342661f177d4e43e00e9f513602052604090205460ff1661193f5760405162461bcd60e51b815260206004820152602360248201527f41757468436f6e74726f6c3a2043616c6c6572206973206e6f7420612070617560448201526239b2b960e91b6064820152608401610f68565b601f5460ff166119915760405162461bcd60e51b815260206004820152601460248201527f5061757361626c653a206e6f74207061757365640000000000000000000000006044820152606401610f68565b43601355601f805460ff191690556040513381527f5db9ee0a495bf2e6ff9c91a7834c1ba4fdd244a5e8aa4e537bd38aeae4b073aa906020015b60405180910390a1565b6007546000906001600160a01b03163314611a325760405162461bcd60e51b815260206004820152601660248201527f6e6f74206f6e6c794465706f7369744d616e61676572000000000000000000006044820152606401610f68565b6001600160a01b038085166000908152600e6020526040902054859116611ab25760405162461bcd60e51b815260206004820152602e60248201527f536569674d616e616765723a20636f696e61676520686173206e6f742062656560448201526d1b8819195c1b1bde5959081e595d60921b6064820152608401610f68565b611abc85856144d5565b15611ba1576001600160a01b038581166000908152600e60205260408082205490516370a0823160e01b81528784166004820152919286929116906370a0823190602401602060405180830381865afa158015611b1d573d6000803e3d6000fd5b505050506040513d601f19601f82011682018060405250810190611b419190615528565b611b4b91906154f8565b9050601a54811015611b9f5760405162461bcd60e51b815260206004820152601a60248201527f6d696e696d756d20616d6f756e742069732072657175697265640000000000006044820152606401610f68565b505b600d546040516340c10f1960e01b81526001600160a01b03878116600483015260248201869052909116906340c10f19906044016020604051808303816000875af1158015611bf4573d6000803e3d6000fd5b505050506040513d601f19601f82011682018060405250810190611c18919061550b565b506001600160a01b038581166000908152600e6020526040908190205490516340c10f1960e01b81528683166004820152602481018690529116906340c10f19906044016020604051808303816000875af1158015611c7b573d6000803e3d6000fd5b505050506040513d601f19601f82011682018060405250810190611c9f919061550b565b506021546001600160a01b031615611d2057602154604051638340f54960e01b81526001600160a01b03878116600483015286811660248301526044820186905290911690638340f54990606401600060405180830381600087803b158015611d0757600080fd5b505af1158015611d1b573d6000803e3d6000fd5b505050505b506001949350505050565b611d34336113bb565b611d505760405162461bcd60e51b8152600401610f689061549f565b600880546001600160a01b0319166001600160a01b0392909216919091179055565b611d7b336113bb565b611d975760405162461bcd60e51b8152600401610f689061549f565b806001600160a01b0316636ef8d66d6040518163ffffffff1660e01b8152600401600060405180830381600087803b15801561184b57600080fd5b60065460009084906001600160a01b0316331480611e625750806001600160a01b031663570ca7356040518163ffffffff1660e01b8152600401602060405180830381865afa158015611e29573d6000803e3d6000fd5b505050506040513d601f19601f82011682018060405250810190611e4d919061556b565b6001600160a01b0316336001600160a01b0316145b611eae5760405162461bcd60e51b815260206004820152601a60248201527f6e6f74206f6e6c7952656769737472794f724f70657261746f720000000000006044820152606401610f68565b831580611edd5750836a084595161401484a00000011158015611edd57506b033b2e3c9fd0803ce80000008411155b611f5d5760405162461bcd60e51b8152602060048201526044602482018190527f536569674d616e616765723a20636f6d6d697373696f6e2072617465206d7573908201527f742062652030206f72206265747765656e20312052415920616e6420302e30316064820152632052415960e01b608482015260a401610f68565b6001600160a01b038516600090815260146020526040812054601654909103611fb6576001600160a01b038616600090815260146020908152604080832088905560159091529020805460ff1916851515179055611ffe565b601654611fc390436154f8565b6001600160a01b038716600090815260176020908152604080832093909355601881528282208890556019905220805460ff19168515151790555b60408051828152602081018790526001600160a01b038816917f11841078e38c91feada06e1f8ded3697ab2dadc2583c52b14109b82ccd4f77d7910160405180910390a250600195945050505050565b600080600660009054906101000a90046001600160a01b03166001600160a01b0316630d42d4976040518163ffffffff1660e01b8152600401602060405180830381865afa1580156120a4573d6000803e3d6000fd5b505050506040513d601f19601f820116820180604052508101906120c89190615528565b905060005b818110156121e25760065460405163b7ffb17960e01b8152600481018390526000916001600160a01b03169063b7ffb17990602401602060405180830381865afa15801561211f573d6000803e3d6000fd5b505050506040513d601f19601f82011682018060405250810190612143919061556b565b6001600160a01b038181166000908152600e6020526040908190205490516370a0823160e01b8152888316600482015292935016906370a0823190602401602060405180830381865afa15801561219e573d6000803e3d6000fd5b505050506040513d601f19601f820116820180604052508101906121c29190615528565b6121cc90856154f8565b93505080806121da9061559e565b9150506120cd565b5050919050565b600a546001600160a01b03161580156122025750601154155b61224e5760405162461bcd60e51b815260206004820152601360248201527f616c726561647920696e697469616c697a6564000000000000000000000000006044820152606401610f68565b600a80546001600160a01b03808a166001600160a01b031992831617909255600b805489841690831617905560068054888416908316179055600780548784169083161790556010859055600c8054928516929091168217905560408051631dd70c0360e21b815290516000929163775c300c916004828101926020929190829003018187875af11580156122e7573d6000803e3d6000fd5b505050506040513d601f19601f8201168201806040525081019061230b919061556b565b90506001600160a01b03811661234e5760405162461bcd60e51b81526020600482015260086024820152671e995c9bc81d1bdd60c21b6044820152606401610f68565b600d80546001600160a01b0319166001600160a01b0392909216919091179055601155505050505050565b6000612386848484614555565b949350505050565b600a546000906001600160a01b03163314806123b45750600b546001600160a01b031633145b6124265760405162461bcd60e51b815260206004820152603160248201527f536569674d616e616765723a206f6e6c7920544f4e206f722057544f4e20636160448201527f6e2063616c6c206f6e5472616e736665720000000000000000000000000000006064820152608401610f68565b601f5460ff1661243a5761243861469d565b505b5060019392505050565b600080600660009054906101000a90046001600160a01b03166001600160a01b0316630d42d4976040518163ffffffff1660e01b8152600401602060405180830381865afa15801561249a573d6000803e3d6000fd5b505050506040513d601f19601f820116820180604052508101906124be9190615528565b905060005b818110156125df5760065460405163b7ffb17960e01b8152600481018390526000916001600160a01b03169063b7ffb17990602401602060405180830381865afa158015612515573d6000803e3d6000fd5b505050506040513d601f19601f82011682018060405250810190612539919061556b565b6001600160a01b038181166000908152600e60205260409081902054905163277166bf60e11b81528983166004820152602481018990529293501690634ee2cd7e90604401602060405180830381865afa15801561259b573d6000803e3d6000fd5b505050506040513d601f19601f820116820180604052508101906125bf9190615528565b6125c990856154f8565b93505080806125d79061559e565b9150506124c3565b505092915050565b6020546040517fac3d68540f9902349c72a28dc187ad15b504d68182767a2b00a3db86880507ba9061261c9083815260200190565b60405180910390a1602080549060006126348361559e565b919050555090565b612645336113bb565b6126615760405162461bcd60e51b8152600401610f689061549f565b806001600160a01b031663986502756040518163ffffffff1660e01b8152600401600060405180830381600087803b15801561184b57600080fd5b6126a5336113bb565b6126c15760405162461bcd60e51b8152600401610f689061549f565b600980546001600160a01b0319166001600160a01b0392909216919091179055565b6126ec336113bb565b6127085760405162461bcd60e51b8152600401610f689061549f565b6110db7fbf02bad7114723a857a3af46cea17b778a3a951c96f183784d9a2448cc479ab68261175f565b61273b336113bb565b6127575760405162461bcd60e51b8152600401610f689061549f565b60405163f2fde38b60e01b81526001600160a01b03828116600483015283169063f2fde38b90602401600060405180830381600087803b15801561279a57600080fd5b505af11580156127ae573d6000803e3d6000fd5b505050505050565b6001600160a01b03811660009081527f02634a7c777b8129955fe1824eee49ef19dfa96f2f4cb63212492c3d84eb58e6602052604081205460ff16610f3d565b6127ff336113bb565b61281b5760405162461bcd60e51b8152600401610f689061549f565b6110db600082611566565b61282f336113bb565b61284b5760405162461bcd60e51b8152600401610f689061549f565b61142560003361175f565b61285f336113bb565b61287b5760405162461bcd60e51b8152600401610f689061549f565b6001600160a01b0381166128d15760405162461bcd60e51b815260206004820152601860248201527f41636365737369626c653a207a65726f206164647265737300000000000000006044820152606401610f68565b6001600160a01b03811633036129295760405162461bcd60e51b815260206004820152601660248201527f41636365737369626c653a2073616d652061646d696e000000000000000000006044820152606401610f68565b612934600082611566565b6110db60003361175f565b336000818152600e60205260408120549091906001600160a01b03166129be5760405162461bcd60e51b815260206004820152602e60248201527f536569674d616e616765723a20636f696e61676520686173206e6f742062656560448201526d1b8819195c1b1bde5959081e595d60921b6064820152608401610f68565b601f5460ff16156129d157600191505090565b6011544311612a225760405162461bcd60e51b815260206004820152601b60248201527f6c617374207365696720626c6f636b206973206e6f74207061737400000000006044820152606401610f68565b6000612a2d3361147b565b9050601a54811015612a815760405162461bcd60e51b815260206004820152601d60248201527f6d696e696d756d416d6f756e7420697320696e73756666696369656e740000006044820152606401610f68565b336000908152600e60205260409020546001600160a01b0316612aa261469d565b50336000908152600f6020908152604080832043905580516318160ddd60e01b815290516001600160a01b038516926318160ddd92600480820193918290030181865afa158015612af7573d6000803e3d6000fd5b505050506040513d601f19601f82011682018060405250810190612b1b9190615528565b600d546040516370a0823160e01b81523360048201529192506000916001600160a01b03909116906370a0823190602401602060405180830381865afa158015612b69573d6000803e3d6000fd5b505050506040513d601f19601f82011682018060405250810190612b8d9190615528565b9050808210612bcd5760405133907f521cc65179761533a7c8d7a973291dd7baebb99a67edf5ef78e9c2b61a533d9590600090a260019550505050505090565b6000612bd98383615541565b90506000336001600160a01b031663570ca7356040518163ffffffff1660e01b8152600401602060405180830381865afa158015612c1b573d6000803e3d6000fd5b505050506040513d601f19601f82011682018060405250810190612c3f919061556b565b336000818152601560205260408120549293509160ff1690612c65908888878588614b7c565b8093508196505050866001600160a01b031663817e9d31612ce888888b6001600160a01b03166354f703f86040518163ffffffff1660e01b8152600401602060405180830381865afa158015612cbf573d6000803e3d6000fd5b505050506040513d601f19601f82011682018060405250810190612ce39190615528565b614d97565b6040518263ffffffff1660e01b8152600401612d0691815260200190565b6020604051808303816000875af1158015612d25573d6000803e3d6000fd5b505050506040513d601f19601f82011682018060405250810190612d49919061550b565b508115612e32578015612dbd5760405163079cc67960e41b81526001600160a01b038481166004830152602482018490528816906379cc679090604401600060405180830381600087803b158015612da057600080fd5b505af1158015612db4573d6000803e3d6000fd5b50505050612e32565b6040516340c10f1960e01b81526001600160a01b038481166004830152602482018490528816906340c10f19906044016020604051808303816000875af1158015612e0c573d6000803e3d6000fd5b505050506040513d601f19601f82011682018060405250810190612e30919061550b565b505b600b546007546040516340c10f1960e01b81526001600160a01b039182166004820152602481018790529116906340c10f19906044016020604051808303816000875af1158015612e87573d6000803e3d6000fd5b505050506040513d601f19601f82011682018060405250810190612eab919061550b565b506021546001600160a01b031615612f4f57600086612ed6866b033b2e3c9fd0803ce8000000615554565b612ee091906155b7565b90508015612f4d5760215460405163c5f16b8960e01b8152336004820152602481018390526001600160a01b039091169063c5f16b8990604401600060405180830381600087803b158015612f3457600080fd5b505af1158015612f48573d6000803e3d6000fd5b505050505b505b60405133907f521cc65179761533a7c8d7a973291dd7baebb99a67edf5ef78e9c2b61a533d9590600090a2604080513381526020810186905290810183905260608101869052608081018790527f9f0aff7defc0f0b331d66bccf1955a699b40155565289317e38b9799ddf094489060a00160405180910390a16001995050505050505050505090565b3360009081527fedec71783a10810e436f3392a073a61717130e573433fcc6591c3061a012f767602052604081205460ff166130675760405162461bcd60e51b815260206004820152602760248201527f41757468436f6e74726f6c3a2043616c6c6572206973206e6f74206120636861604482015266363632b733b2b960c91b6064820152608401610f68565b6001600160a01b038084166000908152600e60205260409020548491166130e75760405162461bcd60e51b815260206004820152602e60248201527f536569674d616e616765723a20636f696e61676520686173206e6f742062656560448201526d1b8819195c1b1bde5959081e595d60921b6064820152608401610f68565b6040516306394c9b60e01b81526001600160a01b0384811660048301528516906306394c9b90602401600060405180830381600087803b15801561312a57600080fd5b505af115801561313e573d6000803e3d6000fd5b506001979650505050505050565b6006546000906001600160a01b031633146131a95760405162461bcd60e51b815260206004820152601060248201527f6e6f74206f6e6c795265676973747279000000000000000000000000000000006044820152606401610f68565b6001600160a01b038281166000908152600e6020526040902054166111c057600c5460408051631dd70c0360e21b815290516000926001600160a01b03169163775c300c916004808301926020929190829003018187875af1158015613213573d6000803e3d6000fd5b505050506040513d601f19601f82011682018060405250810190613237919061556b565b6001600160a01b038481166000818152600f60209081526040808320439055600e82529182902080546001600160a01b03191694861694851790559051928352929350917f124cac1e701d08d642237ad795ddd275670e12f2cd956a26709721c68084c2b2910160405180910390a250506001919050565b3360009081527f787f97f3270d439d97068e73d6d75a066b24f84c342661f177d4e43e00e9f513602052604090205460ff166133395760405162461bcd60e51b815260206004820152602360248201527f41757468436f6e74726f6c3a2043616c6c6572206973206e6f7420612070617560448201526239b2b960e91b6064820152608401610f68565b601f5460ff161561338c5760405162461bcd60e51b815260206004820152601060248201527f5061757361626c653a20706175736564000000000000000000000000000000006044820152606401610f68565b43601255601f805460ff191660011790556040513381527f62e78cea01bee320cd4e420270b5ea74000d11b0c9f74754ebdbfc544b05a258906020016119cb565b6001600160a01b038381166000908152600e602052604080822054905163277166bf60e11b815285841660048201526024810185905291921690634ee2cd7e90604401602060405180830381865afa15801561342d573d6000803e3d6000fd5b505050506040513d601f19601f820116820180604052508101906123869190615528565b61345a336113bb565b6134765760405162461bcd60e51b8152600401610f689061549f565b6110db7ff0887ba65ee2024ea881d91b74c2450ef19e1557f03bed3ea9f16b037cbe2dc982611566565b6114257ff0887ba65ee2024ea881d91b74c2450ef19e1557f03bed3ea9f16b037cbe2dc93361175f565b6134d3336113bb565b6134ef5760405162461bcd60e51b8152600401610f689061549f565b6110db7f523a704056dcd17bcf83bed8b68c59416dac1119be77755efe3bde0a64e46e0c82611566565b613522336113bb565b61353e5760405162461bcd60e51b8152600401610f689061549f565b6b033b2e3c9fd0803ce8000000601d54601c548361355c91906154f8565b61356691906154f8565b11156135b45760405162461bcd60e51b815260206004820152601960248201527f657863656564656420736569676e696f726167652072617465000000000000006044820152606401610f68565b601b8190556040518181527f25826073c0320e7bfcef08488f501afb014791143befc0558b6343262751a87690602001611018565b600d54604051630981b24d60e41b8152600481018390526000916001600160a01b03169063981b24d090602401602060405180830381865afa158015613633573d6000803e3d6000fd5b505050506040513d601f19601f82011682018060405250810190610f3d9190615528565b6001600160a01b03811660009081527fedec71783a10810e436f3392a073a61717130e573433fcc6591c3061a012f767602052604081205460ff16610f3d565b6001600160a01b03811660009081527fca0a2f641ec05ca23127d994cf03ffc453db616acae0b86cb56bb95304d06854602052604081205460ff16610f3d565b6136e0336113bb565b6136fc5760405162461bcd60e51b8152600401610f689061549f565b600c80546001600160a01b0319166001600160a01b0392909216919091179055565b613727336113bb565b6137435760405162461bcd60e51b8152600401610f689061549f565b6110db7f523a704056dcd17bcf83bed8b68c59416dac1119be77755efe3bde0a64e46e0c8261175f565b613776336113bb565b6137925760405162461bcd60e51b8152600401610f689061549f565b600b60009054906101000a90046001600160a01b03166001600160a01b031663986502756040518163ffffffff1660e01b8152600401600060405180830381600087803b1580156137e257600080fd5b505af1158015611759573d6000803e3d6000fd5b6001600160a01b038281166000908152600e60205260408082205490516370a0823160e01b81528484166004820152919216906370a0823190602401602060405180830381865afa15801561153b573d6000803e3d6000fd5b600d54604080516318160ddd60e01b815290516000926001600160a01b0316916318160ddd9160048083019260209291908290030181865afa158015613899573d6000803e3d6000fd5b505050506040513d601f19601f820116820180604052508101906113b69190615528565b6138c6336113bb565b6138e25760405162461bcd60e51b8152600401610f689061549f565b6110db7ff0887ba65ee2024ea881d91b74c2450ef19e1557f03bed3ea9f16b037cbe2dc9825b600082815260056020526040902060010154613923816143a6565b61158b8383614452565b613936336113bb565b6139525760405162461bcd60e51b8152600401610f689061549f565b6b033b2e3c9fd0803ce800000081601c54601b5461397091906154f8565b61397a91906154f8565b11156139c85760405162461bcd60e51b815260206004820152601960248201527f657863656564656420736569676e696f726167652072617465000000000000006044820152606401610f68565b601d8190556040518181527f4f3f4d2a7e076fb16f4fe2fc46ac0a4050623f4a4ba0fb0e9a9d5283f192a09090602001611018565b613a06336113bb565b613a225760405162461bcd60e51b8152600401610f689061549f565b601a55565b613a30336113bb565b613a4c5760405162461bcd60e51b8152600401610f689061549f565b602180546001600160a01b0319166001600160a01b0392909216919091179055565b613a77336113bb565b613a935760405162461bcd60e51b8152600401610f689061549f565b6110db81612856565b6007546000906001600160a01b03163314613af95760405162461bcd60e51b815260206004820152601660248201527f6e6f74206f6e6c794465706f7369744d616e61676572000000000000000000006044820152606401610f68565b6001600160a01b038085166000908152600e6020526040902054859116613b795760405162461bcd60e51b815260206004820152602e60248201527f536569674d616e616765723a20636f696e61676520686173206e6f742062656560448201526d1b8819195c1b1bde5959081e595d60921b6064820152608401610f68565b6001600160a01b038581166000908152600e6020526040908190205490516370a0823160e01b81528683166004820152859291909116906370a0823190602401602060405180830381865afa158015613bd6573d6000803e3d6000fd5b505050506040513d601f19601f82011682018060405250810190613bfa9190615528565b1015613c6e5760405162461bcd60e51b815260206004820152602c60248201527f536569674d616e616765723a20696e73756666696369616e742062616c616e6360448201527f6520746f20756e7374616b6500000000000000000000000000000000000000006064820152608401610f68565b613c7885856144d5565b15613d5d576001600160a01b038581166000908152600e60205260408082205490516370a0823160e01b81528784166004820152919286929116906370a0823190602401602060405180830381865afa158015613cd9573d6000803e3d6000fd5b505050506040513d601f19601f82011682018060405250810190613cfd9190615528565b613d079190615541565b9050601a54811015613d5b5760405162461bcd60e51b815260206004820152601a60248201527f6d696e696d756d20616d6f756e742069732072657175697265640000000000006044820152606401610f68565b505b6000613d6a868686614555565b600d549091506001600160a01b03166379cc679087613d8984886154f8565b6040516001600160e01b031960e085901b1681526001600160a01b0390921660048301526024820152604401600060405180830381600087803b158015613dcf57600080fd5b505af1158015613de3573d6000803e3d6000fd5b505050506001600160a01b038681166000908152600e60205260409081902054905163079cc67960e41b81528783166004820152602481018790529116906379cc679090604401600060405180830381600087803b158015613e4457600080fd5b505af1158015613e58573d6000803e3d6000fd5b50506021546001600160a01b0316159150613ede905057602154604051636ce5768960e11b81526001600160a01b0388811660048301528781166024830152604482018790529091169063d9caed1290606401600060405180830381600087803b158015613ec557600080fd5b505af1158015613ed9573d6000803e3d6000fd5b505050505b60408051858152602081018390527f650f673bb96a43afff4620ecc3f3e38e0cbfddebde9894e951ba2ceff7472f60910160405180910390a150600195945050505050565b613f2c336113bb565b613f485760405162461bcd60e51b8152600401610f689061549f565b6b033b2e3c9fd0803ce8000000601d54601c54601b54613f6891906154f8565b613f7291906154f8565b1115613fc05760405162461bcd60e51b815260206004820152601960248201527f657863656564656420736569676e696f726167652072617465000000000000006044820152606401610f68565b600880546001600160a01b03808a166001600160a01b0319928316179092556009805492891692909116919091179055601b859055601c849055601d8390556016829055601a8190556040517f25826073c0320e7bfcef08488f501afb014791143befc0558b6343262751a8769061403b9087815260200190565b60405180910390a16040518481527f1140c1f14579543e61b599f8f43d0112d66ec1462431e56c97c27b47446a38ac9060200160405180910390a16040518481527f1140c1f14579543e61b599f8f43d0112d66ec1462431e56c97c27b47446a38ac9060200160405180910390a150505050505050565b6001600160a01b038083166000908152600e60209081526040808320548151630a9ee07f60e31b8152915193941692849284926354f703f892600480830193928290030181865afa15801561410b573d6000803e3d6000fd5b505050506040513d601f19601f8201168201806040525081019061412f9190615528565b90506000826001600160a01b03166318160ddd6040518163ffffffff1660e01b8152600401602060405180830381865afa158015614171573d6000803e3d6000fd5b505050506040513d601f19601f820116820180604052508101906141959190615528565b600d546040516370a0823160e01b81526001600160a01b038981166004830152929350600092909116906370a0823190602401602060405180830381865afa1580156141e5573d6000803e3d6000fd5b505050506040513d601f19601f820116820180604052508101906142099190615528565b90506000614218838386614d97565b6040516370a0823160e01b81526001600160a01b03898116600483015291925060009161429c91614296918916906370a0823190602401602060405180830381865afa15801561426c573d6000803e3d6000fd5b505050506040513d601f19601f820116820180604052508101906142909190615528565b87614da8565b83614dde565b6001600160a01b038a81166000908152600e6020526040908190205490516370a0823160e01b81528b8316600482015292935016906370a0823190602401602060405180830381865afa1580156142f7573d6000803e3d6000fd5b505050506040513d601f19601f8201168201806040525081019061431b9190615528565b6143259082615541565b9998505050505050505050565b61433b336113bb565b6143575760405162461bcd60e51b8152600401610f689061549f565b6110db7f523a704056dcd17bcf83bed8b68c59416dac1119be77755efe3bde0a64e46e0c82613908565b60006001600160e01b03198216637965db0b60e01b1480610f3d5750610f3d82614e11565b6110db8133614e4d565b60008281526005602090815260408083206001600160a01b038516845290915290205460ff166117e75760008281526005602090815260408083206001600160a01b03851684529091529020805460ff1916600117905561440e3390565b6001600160a01b0316816001600160a01b0316837f2f8788117e7eff1d82e926ec794901d17c78024a50270940304540a733656f0d60405160405180910390a45050565b60008281526005602090815260408083206001600160a01b038516845290915290205460ff16156117e75760008281526005602090815260408083206001600160a01b0385168085529252808320805460ff1916905551339285917ff6391f5c32d9c69d2a47ea670b442974b53935d1edc7fd64eb21e047a839171b9190a45050565b6000826001600160a01b031663570ca7356040518163ffffffff1660e01b8152600401602060405180830381865afa158015614515573d6000803e3d6000fd5b505050506040513d601f19601f82011682018060405250810190614539919061556b565b6001600160a01b0316826001600160a01b031614905092915050565b6001600160a01b038084166000908152600e602090815260408083205481516318160ddd60e01b81529151939485949116926318160ddd92600480820193918290030181865afa1580156145ad573d6000803e3d6000fd5b505050506040513d601f19601f820116820180604052508101906145d19190615528565b600d546040516370a0823160e01b81526001600160a01b038881166004830152929350600092909116906370a0823190602401602060405180830381865afa158015614621573d6000803e3d6000fd5b505050506040513d601f19601f820116820180604052508101906146459190615528565b90508082101580156146675750670de0b6b3a76400006146658284615541565b105b156146775760009250505061155f565b61469361468d6146878484615541565b86614dde565b83614da8565b9695505050505050565b600060115443116146ae5750600090565b600d60009054906101000a90046001600160a01b03166001600160a01b03166318160ddd6040518163ffffffff1660e01b8152600401602060405180830381865afa158015614701573d6000803e3d6000fd5b505050506040513d601f19601f820116820180604052508101906147259190615528565b600003614736575043601155600090565b600080600d60009054906101000a90046001600160a01b03166001600160a01b03166318160ddd6040518163ffffffff1660e01b8152600401602060405180830381865afa15801561478c573d6000803e3d6000fd5b505050506040513d601f19601f820116820180604052508101906147b09190615528565b915060006010546147bf614ec2565b6147c99190615554565b905060006147d56111c8565b9050600061485c61468d84600d60009054906101000a90046001600160a01b03166001600160a01b03166318160ddd6040518163ffffffff1660e01b8152600401602060405180830381865afa158015614833573d6000803e3d6000fd5b505050506040513d601f19601f820116820180604052508101906148579190615528565b614dde565b9050600061487561486d8386615541565b601d54614dde565b90508061488283886154f8565b61488c91906154f8565b43601155600d5460408051630a9ee07f60e31b815290519297506001600160a01b039091169163817e9d31916148ec918a918a9186916354f703f89160048083019260209291908290030181865afa158015612cbf573d6000803e3d6000fd5b6040518263ffffffff1660e01b815260040161490a91815260200190565b6020604051808303816000875af1158015614929573d6000803e3d6000fd5b505050506040513d601f19601f8201168201806040525081019061494d919061550b565b50600061495a8386615541565b600854909150600090819081906001600160a01b031615614a5c5761498184601b54614dde565b600b546008546040516340c10f1960e01b81526001600160a01b0391821660048201526024810184905292955016906340c10f19906044016020604051808303816000875af11580156149d8573d6000803e3d6000fd5b505050506040513d601f19601f820116820180604052508101906149fc919061550b565b5060085460405163027aa37b60e01b8152600481018590526001600160a01b039091169063027aa37b90602401600060405180830381600087803b158015614a4357600080fd5b505af1158015614a57573d6000803e3d6000fd5b505050505b6009546001600160a01b031615614af657614a7984601c54614dde565b600b546009546040516340c10f1960e01b81526001600160a01b0391821660048201526024810184905292945016906340c10f19906044016020604051808303816000875af1158015614ad0573d6000803e3d6000fd5b505050506040513d601f19601f82011682018060405250810190614af4919061550b565b505b601d5415614b135784905080601e54614b0f91906154f8565b601e555b6040805189815260208101889052908101859052606081018490526080810183905260a0810182905233907fa1c52db210d9232b95c07d81e0aca3d25829b70963d3c458843f9d63d1ccb9949060c00160405180910390a260019a505050505050505050505090565b6001600160a01b03861660009081526017602052604081205481904310801590614bbd57506001600160a01b03881660009081526017602052604090205415155b15614c11576001600160a01b0388166000908152601860209081526040808320546014835281842055601982528083205460158352818420805460ff191660ff909216151591909117905560179091528120555b33600090815260146020526040902054614c2b86886154f8565b925080600003614c3b5750614d8c565b84614c5e57614c4a8682614dde565b9150614c568284615541565b925050614d8c565b86600003614c6c5750614d8c565b6040516370a0823160e01b81526001600160a01b038581166004830152600091908a16906370a0823190602401602060405180830381865afa158015614cb6573d6000803e3d6000fd5b505050506040513d601f19601f82011682018060405250810190614cda9190615528565b905080600003614ceb575050614d8c565b6000614cf7828a614da8565b9050614d0c614d068983614dde565b84614dde565b935060006b033b2e3c9fd0803ce80000008214614d4757614d4285614d3d846b033b2e3c9fd0803ce8000000615541565b614da8565b614d49565b845b90506b033b2e3c9fd0803ce80000008214614d7757614d688183614dde565b614d7290866154f8565b614d79565b845b9450614d8581876154f8565b9550505050505b965096945050505050565b6000612386614da68484614dde565b855b600081614dd4614dc4856b033b2e3c9fd0803ce8000000614f18565b614dcf6002866155b7565b614f88565b61155f91906155b7565b60006b033b2e3c9fd0803ce8000000614dd4614dfa8585614f18565b614dcf60026b033b2e3c9fd0803ce80000006155b7565b60006301ffc9a760e01b6001600160e01b031983161480610f3d5750506001600160e01b03191660009081526004602052604090205460ff1690565b60008281526005602090815260408083206001600160a01b038516845290915290205460ff166117e757614e8081614fe6565b614e8b836020614ff8565b604051602001614e9c9291906155fd565b60408051601f198184030181529082905262461bcd60e51b8252610f689160040161567e565b601f5460009060ff1615614ed557600080fd5b600060115443614ee59190615541565b90506011546013541015614ef857919050565b601254601354614f089190615541565b614f129082615541565b91505090565b6000811580614f3c57508282614f2e8183615554565b9250614f3a90836155b7565b145b610f3d5760405162461bcd60e51b815260206004820152601460248201527f64732d6d6174682d6d756c2d6f766572666c6f770000000000000000000000006044820152606401610f68565b600082614f9583826154f8565b9150811015610f3d5760405162461bcd60e51b815260206004820152601460248201527f64732d6d6174682d6164642d6f766572666c6f770000000000000000000000006044820152606401610f68565b6060610f3d6001600160a01b03831660145b60606000615007836002615554565b6150129060026154f8565b67ffffffffffffffff81111561502a5761502a6156b1565b6040519080825280601f01601f191660200182016040528015615054576020820181803683370190505b509050600360fc1b8160008151811061506f5761506f615588565b60200101906001600160f81b031916908160001a905350600f60fb1b8160018151811061509e5761509e615588565b60200101906001600160f81b031916908160001a90535060006150c2846002615554565b6150cd9060016154f8565b90505b6001811115615152577f303132333435363738396162636465660000000000000000000000000000000085600f166010811061510e5761510e615588565b1a60f81b82828151811061512457615124615588565b60200101906001600160f81b031916908160001a90535060049490941c9361514b816156c7565b90506150d0565b50831561155f5760405162461bcd60e51b815260206004820181905260248201527f537472696e67733a20686578206c656e67746820696e73756666696369656e746044820152606401610f68565b6000602082840312156151b357600080fd5b81356001600160e01b03198116811461155f57600080fd5b6000602082840312156151dd57600080fd5b5035919050565b6001600160a01b03811681146110db57600080fd5b60006020828403121561520b57600080fd5b813561155f816151e4565b6000806040838503121561522957600080fd5b82359150602083013561523b816151e4565b809150509250929050565b60008060006040848603121561525b57600080fd5b8335615266816151e4565b9250602084013567ffffffffffffffff8082111561528357600080fd5b818601915086601f83011261529757600080fd5b8135818111156152a657600080fd5b8760208260051b85010111156152bb57600080fd5b6020830194508093505050509250925092565b6000806000606084860312156152e357600080fd5b83356152ee816151e4565b925060208401356152fe816151e4565b929592945050506040919091013590565b80151581146110db57600080fd5b60008060006060848603121561533257600080fd5b833561533d816151e4565b92506020840135915060408401356153548161530f565b809150509250925092565b600080600080600080600060e0888a03121561537a57600080fd5b8735615385816151e4565b96506020880135615395816151e4565b955060408801356153a5816151e4565b945060608801356153b5816151e4565b93506080880135925060a08801356153cc816151e4565b8092505060c0880135905092959891949750929550565b600080604083850312156153f657600080fd5b8235615401816151e4565b946020939093013593505050565b6000806040838503121561542257600080fd5b823561542d816151e4565b9150602083013561523b816151e4565b600080600080600080600060e0888a03121561545857600080fd5b8735615463816151e4565b96506020880135615473816151e4565b96999698505050506040850135946060810135946080820135945060a0820135935060c0909101359150565b60208082526023908201527f41757468436f6e74726f6c3a2043616c6c6572206973206e6f7420616e20616460408201526236b4b760e91b606082015260800190565b634e487b7160e01b600052601160045260246000fd5b80820180821115610f3d57610f3d6154e2565b60006020828403121561551d57600080fd5b815161155f8161530f565b60006020828403121561553a57600080fd5b5051919050565b81810381811115610f3d57610f3d6154e2565b8082028115828204841417610f3d57610f3d6154e2565b60006020828403121561557d57600080fd5b815161155f816151e4565b634e487b7160e01b600052603260045260246000fd5b6000600182016155b0576155b06154e2565b5060010190565b6000826155d457634e487b7160e01b600052601260045260246000fd5b500490565b60005b838110156155f45781810151838201526020016155dc565b50506000910152565b7f416363657373436f6e74726f6c3a206163636f756e74200000000000000000008152600083516156358160178501602088016155d9565b7f206973206d697373696e6720726f6c652000000000000000000000000000000060179184019182015283516156728160288401602088016155d9565b01602801949350505050565b602081526000825180602084015261569d8160408501602087016155d9565b601f01601f19169190910160400192915050565b634e487b7160e01b600052604160045260246000fd5b6000816156d6576156d66154e2565b50600019019056fea164736f6c6343000813000a",
  "devdoc": {
    "details": "SeigManager gives seigniorage to operator and WTON holders. For each commit by operator, operator (or user) will get seigniorage in propotion to the staked (or delegated) amount of WTON. [Tokens] - {tot} tracks total staked or delegated WTON of each Layer2 contract (and depositor?). - {coinages[layer2]} tracks staked or delegated WTON of user or operator to a Layer2 contract. For each commit by operator,  1. increases all layer2's balance of {tot} by (the staked amount of WTON) /     (total supply of TON and WTON) * (num blocks * seigniorage per block).  2. increases all depositors' blanace of {coinages[layer2]} in proportion to the staked amount of WTON,     up to the increased amount in step (1).  3. set the layer2's balance of {committed} as the layer2's {tot} balance. For each stake or delegate with amount of {v} to a Layer2,  1. mint {v} {coinages[layer2]} tokens to the account  2. mint {v} {tot} tokens to the layer2 contract For each unstake or undelegate (or get rewards) with amount of {v} to a Layer2,  1. burn {v} {coinages[layer2]} tokens from the account  2. burn {v + } {tot} tokens from the layer2 contract,   where  = SEIGS * staked ratio of the layer2 * withdrawal ratio of the account     - SEIGS                              = tot total supply - tot total supply at last commit from the layer2     - staked ratio of the layer2     = tot balance of the layer2 / tot total supply     - withdrawal ratio of the account  = amount to withdraw / total supply of coinage",
    "events": {
      "RoleAdminChanged(bytes32,bytes32,bytes32)": {
        "details": "Emitted when `newAdminRole` is set as ``role``'s admin role, replacing `previousAdminRole` `DEFAULT_ADMIN_ROLE` is the starting admin for all roles, despite {RoleAdminChanged} not being emitted signaling this. _Available since v3.1._"
      },
      "RoleGranted(bytes32,address,address)": {
        "details": "Emitted when `account` is granted `role`. `sender` is the account that originated the contract call, an admin role bearer except when using {AccessControl-_setupRole}."
      },
      "RoleRevoked(bytes32,address,address)": {
        "details": "Emitted when `account` is revoked `role`. `sender` is the account that originated the contract call:   - if using `revokeRole`, it is the admin role bearer   - if using `renounceRole`, it is the role bearer (i.e. `account`)"
      }
    },
    "kind": "dev",
    "methods": {
      "addAdmin(address)": {
        "details": "add admin",
        "params": {
          "account": "address to add"
        }
      },
      "deployCoinage(address)": {
        "details": "deploy coinage token for the layer2."
      },
      "getRoleAdmin(bytes32)": {
        "details": "Returns the admin role that controls `role`. See {grantRole} and {revokeRole}. To change a role's admin, use {_setRoleAdmin}."
      },
      "grantRole(bytes32,address)": {
        "details": "Grants `role` to `account`. If `account` had not been already granted `role`, emits a {RoleGranted} event. Requirements: - the caller must have ``role``'s admin role. May emit a {RoleGranted} event."
      },
      "hasRole(bytes32,address)": {
        "details": "Returns `true` if `account` has been granted `role`."
      },
      "isAdmin(address)": {
        "details": "whether admin",
        "params": {
          "account": "address to check"
        }
      },
      "onDeposit(address,address,uint256)": {
        "details": "Callback for a new deposit"
      },
      "onTransfer(address,address,uint256)": {
        "details": "Callback for a token transfer"
      },
      "removeAdmin(address)": {
        "details": "remove admin",
        "params": {
          "account": "address to remove"
        }
      },
      "renounceRole(bytes32,address)": {
        "details": "Revokes `role` from the calling account. Roles are often managed via {grantRole} and {revokeRole}: this function's purpose is to provide a mechanism for accounts to lose their privileges if they are compromised (such as when a trusted device is misplaced). If the calling account had been revoked `role`, emits a {RoleRevoked} event. Requirements: - the caller must be `account`. May emit a {RoleRevoked} event."
      },
      "revokeRole(bytes32,address)": {
        "details": "Revokes `role` from `account`. If `account` had been granted `role`, emits a {RoleRevoked} event. Requirements: - the caller must have ``role``'s admin role. May emit a {RoleRevoked} event."
      },
      "transferAdmin(address)": {
        "details": "transfer admin",
        "params": {
          "newAdmin": "new admin address"
        }
      },
      "unpause()": {
        "details": "Called by a pauser to unpause, returns to normal state."
      },
      "updateSeigniorage()": {
        "details": "Callback for a new commit"
      }
    },
    "version": 1
  },
  "userdoc": {
    "kind": "user",
    "methods": {},
    "version": 1
  },
  "storageLayout": {
    "storage": [
      {
        "astId": 2686,
        "contract": "contracts/stake/managers/SeigManager1.sol:SeigManager1",
        "label": "pauseProxy",
        "offset": 0,
        "slot": "0",
        "type": "t_bool"
      },
      {
        "astId": 2690,
        "contract": "contracts/stake/managers/SeigManager1.sol:SeigManager1",
        "label": "proxyImplementation",
        "offset": 0,
        "slot": "1",
        "type": "t_mapping(t_uint256,t_address)"
      },
      {
        "astId": 2694,
        "contract": "contracts/stake/managers/SeigManager1.sol:SeigManager1",
        "label": "aliveImplementation",
        "offset": 0,
        "slot": "2",
        "type": "t_mapping(t_address,t_bool)"
      },
      {
        "astId": 2698,
        "contract": "contracts/stake/managers/SeigManager1.sol:SeigManager1",
        "label": "selectorImplementation",
        "offset": 0,
        "slot": "3",
        "type": "t_mapping(t_bytes4,t_address)"
      },
      {
        "astId": 674,
        "contract": "contracts/stake/managers/SeigManager1.sol:SeigManager1",
        "label": "_supportedInterfaces",
        "offset": 0,
        "slot": "4",
        "type": "t_mapping(t_bytes4,t_bool)"
      },
      {
        "astId": 24,
        "contract": "contracts/stake/managers/SeigManager1.sol:SeigManager1",
        "label": "_roles",
        "offset": 0,
        "slot": "5",
        "type": "t_mapping(t_bytes32,t_struct(RoleData)19_storage)"
      },
      {
        "astId": 5430,
        "contract": "contracts/stake/managers/SeigManager1.sol:SeigManager1",
        "label": "_registry",
        "offset": 0,
        "slot": "6",
        "type": "t_address"
      },
      {
        "astId": 5432,
        "contract": "contracts/stake/managers/SeigManager1.sol:SeigManager1",
        "label": "_depositManager",
        "offset": 0,
        "slot": "7",
        "type": "t_address"
      },
      {
        "astId": 5434,
        "contract": "contracts/stake/managers/SeigManager1.sol:SeigManager1",
        "label": "_powerton",
        "offset": 0,
        "slot": "8",
        "type": "t_address"
      },
      {
        "astId": 5436,
        "contract": "contracts/stake/managers/SeigManager1.sol:SeigManager1",
        "label": "dao",
        "offset": 0,
        "slot": "9",
        "type": "t_address"
      },
      {
        "astId": 5438,
        "contract": "contracts/stake/managers/SeigManager1.sol:SeigManager1",
        "label": "_ton",
        "offset": 0,
        "slot": "10",
        "type": "t_address"
      },
      {
        "astId": 5440,
        "contract": "contracts/stake/managers/SeigManager1.sol:SeigManager1",
        "label": "_wton",
        "offset": 0,
        "slot": "11",
        "type": "t_address"
      },
      {
        "astId": 5442,
        "contract": "contracts/stake/managers/SeigManager1.sol:SeigManager1",
        "label": "factory",
        "offset": 0,
        "slot": "12",
        "type": "t_address"
      },
      {
        "astId": 5445,
        "contract": "contracts/stake/managers/SeigManager1.sol:SeigManager1",
        "label": "_tot",
        "offset": 0,
        "slot": "13",
        "type": "t_contract(RefactorCoinageSnapshotI)2845"
      },
      {
        "astId": 5450,
        "contract": "contracts/stake/managers/SeigManager1.sol:SeigManager1",
        "label": "_coinages",
        "offset": 0,
        "slot": "14",
        "type": "t_mapping(t_address,t_contract(RefactorCoinageSnapshotI)2845)"
      },
      {
        "astId": 5454,
        "contract": "contracts/stake/managers/SeigManager1.sol:SeigManager1",
        "label": "_lastCommitBlock",
        "offset": 0,
        "slot": "15",
        "type": "t_mapping(t_address,t_uint256)"
      },
      {
        "astId": 5456,
        "contract": "contracts/stake/managers/SeigManager1.sol:SeigManager1",
        "label": "_seigPerBlock",
        "offset": 0,
        "slot": "16",
        "type": "t_uint256"
      },
      {
        "astId": 5458,
        "contract": "contracts/stake/managers/SeigManager1.sol:SeigManager1",
        "label": "_lastSeigBlock",
        "offset": 0,
        "slot": "17",
        "type": "t_uint256"
      },
      {
        "astId": 5460,
        "contract": "contracts/stake/managers/SeigManager1.sol:SeigManager1",
        "label": "_pausedBlock",
        "offset": 0,
        "slot": "18",
        "type": "t_uint256"
      },
      {
        "astId": 5462,
        "contract": "contracts/stake/managers/SeigManager1.sol:SeigManager1",
        "label": "_unpausedBlock",
        "offset": 0,
        "slot": "19",
        "type": "t_uint256"
      },
      {
        "astId": 5466,
        "contract": "contracts/stake/managers/SeigManager1.sol:SeigManager1",
        "label": "_commissionRates",
        "offset": 0,
        "slot": "20",
        "type": "t_mapping(t_address,t_uint256)"
      },
      {
        "astId": 5470,
        "contract": "contracts/stake/managers/SeigManager1.sol:SeigManager1",
        "label": "_isCommissionRateNegative",
        "offset": 0,
        "slot": "21",
        "type": "t_mapping(t_address,t_bool)"
      },
      {
        "astId": 5472,
        "contract": "contracts/stake/managers/SeigManager1.sol:SeigManager1",
        "label": "adjustCommissionDelay",
        "offset": 0,
        "slot": "22",
        "type": "t_uint256"
      },
      {
        "astId": 5476,
        "contract": "contracts/stake/managers/SeigManager1.sol:SeigManager1",
        "label": "delayedCommissionBlock",
        "offset": 0,
        "slot": "23",
        "type": "t_mapping(t_address,t_uint256)"
      },
      {
        "astId": 5480,
        "contract": "contracts/stake/managers/SeigManager1.sol:SeigManager1",
        "label": "delayedCommissionRate",
        "offset": 0,
        "slot": "24",
        "type": "t_mapping(t_address,t_uint256)"
      },
      {
        "astId": 5484,
        "contract": "contracts/stake/managers/SeigManager1.sol:SeigManager1",
        "label": "delayedCommissionRateNegative",
        "offset": 0,
        "slot": "25",
        "type": "t_mapping(t_address,t_bool)"
      },
      {
        "astId": 5486,
        "contract": "contracts/stake/managers/SeigManager1.sol:SeigManager1",
        "label": "minimumAmount",
        "offset": 0,
        "slot": "26",
        "type": "t_uint256"
      },
      {
        "astId": 5488,
        "contract": "contracts/stake/managers/SeigManager1.sol:SeigManager1",
        "label": "powerTONSeigRate",
        "offset": 0,
        "slot": "27",
        "type": "t_uint256"
      },
      {
        "astId": 5490,
        "contract": "contracts/stake/managers/SeigManager1.sol:SeigManager1",
        "label": "daoSeigRate",
        "offset": 0,
        "slot": "28",
        "type": "t_uint256"
      },
      {
        "astId": 5492,
        "contract": "contracts/stake/managers/SeigManager1.sol:SeigManager1",
        "label": "relativeSeigRate",
        "offset": 0,
        "slot": "29",
        "type": "t_uint256"
      },
      {
        "astId": 5494,
        "contract": "contracts/stake/managers/SeigManager1.sol:SeigManager1",
        "label": "accRelativeSeig",
        "offset": 0,
        "slot": "30",
        "type": "t_uint256"
      },
      {
        "astId": 5496,
        "contract": "contracts/stake/managers/SeigManager1.sol:SeigManager1",
        "label": "paused",
        "offset": 0,
        "slot": "31",
        "type": "t_bool"
      },
      {
        "astId": 5498,
        "contract": "contracts/stake/managers/SeigManager1.sol:SeigManager1",
        "label": "lastSnapshotId",
        "offset": 0,
        "slot": "32",
        "type": "t_uint256"
      },
      {
        "astId": 5504,
        "contract": "contracts/stake/managers/SeigManager1.sol:SeigManager1",
        "label": "l1StakedTonToL2",
        "offset": 0,
        "slot": "33",
        "type": "t_address"
      }
    ],
    "types": {
      "t_address": {
        "encoding": "inplace",
        "label": "address",
        "numberOfBytes": "20"
      },
      "t_bool": {
        "encoding": "inplace",
        "label": "bool",
        "numberOfBytes": "1"
      },
      "t_bytes32": {
        "encoding": "inplace",
        "label": "bytes32",
        "numberOfBytes": "32"
      },
      "t_bytes4": {
        "encoding": "inplace",
        "label": "bytes4",
        "numberOfBytes": "4"
      },
      "t_contract(RefactorCoinageSnapshotI)2845": {
        "encoding": "inplace",
        "label": "contract RefactorCoinageSnapshotI",
        "numberOfBytes": "20"
      },
      "t_mapping(t_address,t_bool)": {
        "encoding": "mapping",
        "key": "t_address",
        "label": "mapping(address => bool)",
        "numberOfBytes": "32",
        "value": "t_bool"
      },
      "t_mapping(t_address,t_contract(RefactorCoinageSnapshotI)2845)": {
        "encoding": "mapping",
        "key": "t_address",
        "label": "mapping(address => contract RefactorCoinageSnapshotI)",
        "numberOfBytes": "32",
        "value": "t_contract(RefactorCoinageSnapshotI)2845"
      },
      "t_mapping(t_address,t_uint256)": {
        "encoding": "mapping",
        "key": "t_address",
        "label": "mapping(address => uint256)",
        "numberOfBytes": "32",
        "value": "t_uint256"
      },
      "t_mapping(t_bytes32,t_struct(RoleData)19_storage)": {
        "encoding": "mapping",
        "key": "t_bytes32",
        "label": "mapping(bytes32 => struct AccessControl.RoleData)",
        "numberOfBytes": "32",
        "value": "t_struct(RoleData)19_storage"
      },
      "t_mapping(t_bytes4,t_address)": {
        "encoding": "mapping",
        "key": "t_bytes4",
        "label": "mapping(bytes4 => address)",
        "numberOfBytes": "32",
        "value": "t_address"
      },
      "t_mapping(t_bytes4,t_bool)": {
        "encoding": "mapping",
        "key": "t_bytes4",
        "label": "mapping(bytes4 => bool)",
        "numberOfBytes": "32",
        "value": "t_bool"
      },
      "t_mapping(t_uint256,t_address)": {
        "encoding": "mapping",
        "key": "t_uint256",
        "label": "mapping(uint256 => address)",
        "numberOfBytes": "32",
        "value": "t_address"
      },
      "t_struct(RoleData)19_storage": {
        "encoding": "inplace",
        "label": "struct AccessControl.RoleData",
        "members": [
          {
            "astId": 16,
            "contract": "contracts/stake/managers/SeigManager1.sol:SeigManager1",
            "label": "members",
            "offset": 0,
            "slot": "0",
            "type": "t_mapping(t_address,t_bool)"
          },
          {
            "astId": 18,
            "contract": "contracts/stake/managers/SeigManager1.sol:SeigManager1",
            "label": "adminRole",
            "offset": 0,
            "slot": "1",
            "type": "t_bytes32"
          }
        ],
        "numberOfBytes": "64"
      },
      "t_uint256": {
        "encoding": "inplace",
        "label": "uint256",
        "numberOfBytes": "32"
      }
    }
  }
}