{
  "address": "0xA29C36A8874fC0A642b735E3730184fd9dcB98A8",
  "abi": [
    {
      "anonymous": false,
      "inputs": [
        {
          "indexed": true,
          "internalType": "address",
          "name": "layer2",
          "type": "address"
        },
        {
          "indexed": false,
          "internalType": "address",
          "name": "coinage",
          "type": "address"
        }
      ],
      "name": "CoinageCreated",
      "type": "event"
    },
    {
      "anonymous": false,
      "inputs": [
        {
          "indexed": true,
          "internalType": "address",
          "name": "layer2",
          "type": "address"
        }
      ],
      "name": "Comitted",
      "type": "event"
    },
    {
      "anonymous": false,
      "inputs": [
        {
          "indexed": true,
          "internalType": "address",
          "name": "layer2",
          "type": "address"
        },
        {
          "indexed": false,
          "internalType": "uint256",
          "name": "previousRate",
          "type": "uint256"
        },
        {
          "indexed": false,
          "internalType": "uint256",
          "name": "newRate",
          "type": "uint256"
        }
      ],
      "name": "CommissionRateSet",
      "type": "event"
    },
    {
      "anonymous": false,
      "inputs": [
        {
          "indexed": false,
          "internalType": "uint256",
          "name": "totalStakedAmount",
          "type": "uint256"
        },
        {
          "indexed": false,
          "internalType": "uint256",
          "name": "totalSupplyOfWTON",
          "type": "uint256"
        },
        {
          "indexed": false,
          "internalType": "uint256",
          "name": "prevTotalSupply",
          "type": "uint256"
        },
        {
          "indexed": false,
          "internalType": "uint256",
          "name": "nextTotalSupply",
          "type": "uint256"
        }
      ],
      "name": "CommitLog1",
      "type": "event"
    },
    {
      "anonymous": false,
      "inputs": [
        {
          "indexed": false,
          "internalType": "uint256",
          "name": "snapshotId",
          "type": "uint256"
        }
      ],
      "name": "OnSnapshot",
      "type": "event"
    },
    {
      "anonymous": false,
      "inputs": [
        {
          "indexed": false,
          "internalType": "address",
          "name": "account",
          "type": "address"
        }
      ],
      "name": "Paused",
      "type": "event"
    },
    {
      "anonymous": false,
      "inputs": [
        {
          "indexed": true,
          "internalType": "bytes32",
          "name": "role",
          "type": "bytes32"
        },
        {
          "indexed": true,
          "internalType": "bytes32",
          "name": "previousAdminRole",
          "type": "bytes32"
        },
        {
          "indexed": true,
          "internalType": "bytes32",
          "name": "newAdminRole",
          "type": "bytes32"
        }
      ],
      "name": "RoleAdminChanged",
      "type": "event"
    },
    {
      "anonymous": false,
      "inputs": [
        {
          "indexed": true,
          "internalType": "bytes32",
          "name": "role",
          "type": "bytes32"
        },
        {
          "indexed": true,
          "internalType": "address",
          "name": "account",
          "type": "address"
        },
        {
          "indexed": true,
          "internalType": "address",
          "name": "sender",
          "type": "address"
        }
      ],
      "name": "RoleGranted",
      "type": "event"
    },
    {
      "anonymous": false,
      "inputs": [
        {
          "indexed": true,
          "internalType": "bytes32",
          "name": "role",
          "type": "bytes32"
        },
        {
          "indexed": true,
          "internalType": "address",
          "name": "account",
          "type": "address"
        },
        {
          "indexed": true,
          "internalType": "address",
          "name": "sender",
          "type": "address"
        }
      ],
      "name": "RoleRevoked",
      "type": "event"
    },
    {
      "anonymous": false,
      "inputs": [
        {
          "indexed": true,
          "internalType": "address",
          "name": "layer2",
          "type": "address"
        },
        {
          "indexed": false,
          "internalType": "uint256",
          "name": "totalSeig",
          "type": "uint256"
        },
        {
          "indexed": false,
          "internalType": "uint256",
          "name": "stakedSeig",
          "type": "uint256"
        },
        {
          "indexed": false,
          "internalType": "uint256",
          "name": "unstakedSeig",
          "type": "uint256"
        },
        {
          "indexed": false,
          "internalType": "uint256",
          "name": "powertonSeig",
          "type": "uint256"
        },
        {
          "indexed": false,
          "internalType": "uint256",
          "name": "pseig",
          "type": "uint256"
        }
      ],
      "name": "SeigGiven",
      "type": "event"
    },
    {
      "anonymous": false,
      "inputs": [
        {
          "indexed": false,
          "internalType": "address",
          "name": "account",
          "type": "address"
        }
      ],
      "name": "Unpaused",
      "type": "event"
    },
    {
      "anonymous": false,
      "inputs": [
        {
          "indexed": false,
          "internalType": "uint256",
          "name": "coinageBurnAmount",
          "type": "uint256"
        },
        {
          "indexed": false,
          "internalType": "uint256",
          "name": "totBurnAmount",
          "type": "uint256"
        }
      ],
      "name": "UnstakeLog",
      "type": "event"
    },
    {
      "anonymous": false,
      "inputs": [
        {
          "indexed": true,
          "internalType": "address",
          "name": "layer2",
          "type": "address"
        },
        {
          "indexed": false,
          "internalType": "uint256",
          "name": "blockNumber",
          "type": "uint256"
        },
        {
          "indexed": false,
          "internalType": "uint256",
          "name": "prevTotal",
          "type": "uint256"
        },
        {
          "indexed": false,
          "internalType": "uint256",
          "name": "nextTotal",
          "type": "uint256"
        },
        {
          "indexed": false,
          "internalType": "uint256",
          "name": "oldTotFactor",
          "type": "uint256"
        },
        {
          "indexed": false,
          "internalType": "uint256",
          "name": "oldCoinageFactor",
          "type": "uint256"
        },
        {
          "indexed": false,
          "internalType": "uint256",
          "name": "nextTotFactor",
          "type": "uint256"
        },
        {
          "indexed": false,
          "internalType": "uint256",
          "name": "nextCoinageFactor",
          "type": "uint256"
        }
      ],
      "name": "UpdatedSeigniorage",
      "type": "event"
    },
    {
      "inputs": [],
      "name": "CHALLENGER_ROLE",
      "outputs": [
        {
          "internalType": "bytes32",
          "name": "",
          "type": "bytes32"
        }
      ],
      "stateMutability": "view",
      "type": "function"
    },
    {
      "inputs": [],
      "name": "DEFAULT_ADMIN_ROLE",
      "outputs": [
        {
          "internalType": "bytes32",
          "name": "",
          "type": "bytes32"
        }
      ],
      "stateMutability": "view",
      "type": "function"
    },
    {
      "inputs": [],
      "name": "DEFAULT_FACTOR",
      "outputs": [
        {
          "internalType": "uint256",
          "name": "",
          "type": "uint256"
        }
      ],
      "stateMutability": "pure",
      "type": "function"
    },
    {
      "inputs": [],
      "name": "MAX_VALID_COMMISSION",
      "outputs": [
        {
          "internalType": "uint256",
          "name": "",
          "type": "uint256"
        }
      ],
      "stateMutability": "view",
      "type": "function"
    },
    {
      "inputs": [],
      "name": "MINTER_ROLE",
      "outputs": [
        {
          "internalType": "bytes32",
          "name": "",
          "type": "bytes32"
        }
      ],
      "stateMutability": "view",
      "type": "function"
    },
    {
      "inputs": [],
      "name": "MIN_VALID_COMMISSION",
      "outputs": [
        {
          "internalType": "uint256",
          "name": "",
          "type": "uint256"
        }
      ],
      "stateMutability": "view",
      "type": "function"
    },
    {
      "inputs": [],
      "name": "OPERATOR_ROLE",
      "outputs": [
        {
          "internalType": "bytes32",
          "name": "",
          "type": "bytes32"
        }
      ],
      "stateMutability": "view",
      "type": "function"
    },
    {
      "inputs": [],
      "name": "PAUSE_ROLE",
      "outputs": [
        {
          "internalType": "bytes32",
          "name": "",
          "type": "bytes32"
        }
      ],
      "stateMutability": "view",
      "type": "function"
    },
    {
      "inputs": [],
      "name": "RAY",
      "outputs": [
        {
          "internalType": "uint256",
          "name": "",
          "type": "uint256"
        }
      ],
      "stateMutability": "view",
      "type": "function"
    },
    {
      "inputs": [],
      "name": "accRelativeSeig",
      "outputs": [
        {
          "internalType": "uint256",
          "name": "",
          "type": "uint256"
        }
      ],
      "stateMutability": "view",
      "type": "function"
    },
    {
      "inputs": [
        {
          "internalType": "address",
          "name": "account",
          "type": "address"
        }
      ],
      "name": "addAdmin",
      "outputs": [],
      "stateMutability": "nonpayable",
      "type": "function"
    },
    {
      "inputs": [
        {
          "internalType": "address",
          "name": "account",
          "type": "address"
        }
      ],
      "name": "addChallenger",
      "outputs": [],
      "stateMutability": "nonpayable",
      "type": "function"
    },
    {
      "inputs": [
        {
          "internalType": "address",
          "name": "account",
          "type": "address"
        }
      ],
      "name": "addMinter",
      "outputs": [],
      "stateMutability": "nonpayable",
      "type": "function"
    },
    {
      "inputs": [
        {
          "internalType": "address",
          "name": "account",
          "type": "address"
        }
      ],
      "name": "addOperator",
      "outputs": [],
      "stateMutability": "nonpayable",
      "type": "function"
    },
    {
      "inputs": [
        {
          "internalType": "address",
          "name": "layer2",
          "type": "address"
        },
        {
          "internalType": "address",
          "name": "account",
          "type": "address"
        },
        {
          "internalType": "uint256",
          "name": "amount",
          "type": "uint256"
        }
      ],
      "name": "additionalTotBurnAmount",
      "outputs": [
        {
          "internalType": "uint256",
          "name": "totAmount",
          "type": "uint256"
        }
      ],
      "stateMutability": "view",
      "type": "function"
    },
    {
      "inputs": [],
      "name": "adjustCommissionDelay",
      "outputs": [
        {
          "internalType": "uint256",
          "name": "",
          "type": "uint256"
        }
      ],
      "stateMutability": "view",
      "type": "function"
    },
    {
      "inputs": [
        {
          "internalType": "address",
          "name": "",
          "type": "address"
        }
      ],
      "name": "aliveImplementation",
      "outputs": [
        {
          "internalType": "bool",
          "name": "",
          "type": "bool"
        }
      ],
      "stateMutability": "view",
      "type": "function"
    },
    {
      "inputs": [
        {
          "internalType": "address",
          "name": "layer2",
          "type": "address"
        }
      ],
      "name": "coinages",
      "outputs": [
        {
          "internalType": "address",
          "name": "",
          "type": "address"
        }
      ],
      "stateMutability": "view",
      "type": "function"
    },
    {
      "inputs": [
        {
          "internalType": "address",
          "name": "layer2",
          "type": "address"
        }
      ],
      "name": "commissionRates",
      "outputs": [
        {
          "internalType": "uint256",
          "name": "",
          "type": "uint256"
        }
      ],
      "stateMutability": "view",
      "type": "function"
    },
    {
      "inputs": [],
      "name": "dao",
      "outputs": [
        {
          "internalType": "address",
          "name": "",
          "type": "address"
        }
      ],
      "stateMutability": "view",
      "type": "function"
    },
    {
      "inputs": [],
      "name": "daoSeigRate",
      "outputs": [
        {
          "internalType": "uint256",
          "name": "",
          "type": "uint256"
        }
      ],
      "stateMutability": "view",
      "type": "function"
    },
    {
      "inputs": [
        {
          "internalType": "address",
          "name": "",
          "type": "address"
        }
      ],
      "name": "delayedCommissionBlock",
      "outputs": [
        {
          "internalType": "uint256",
          "name": "",
          "type": "uint256"
        }
      ],
      "stateMutability": "view",
      "type": "function"
    },
    {
      "inputs": [
        {
          "internalType": "address",
          "name": "",
          "type": "address"
        }
      ],
      "name": "delayedCommissionRate",
      "outputs": [
        {
          "internalType": "uint256",
          "name": "",
          "type": "uint256"
        }
      ],
      "stateMutability": "view",
      "type": "function"
    },
    {
      "inputs": [
        {
          "internalType": "address",
          "name": "",
          "type": "address"
        }
      ],
      "name": "delayedCommissionRateNegative",
      "outputs": [
        {
          "internalType": "bool",
          "name": "",
          "type": "bool"
        }
      ],
      "stateMutability": "view",
      "type": "function"
    },
    {
      "inputs": [
        {
          "internalType": "address",
          "name": "layer2",
          "type": "address"
        }
      ],
      "name": "deployCoinage",
      "outputs": [
        {
          "internalType": "bool",
          "name": "",
          "type": "bool"
        }
      ],
      "stateMutability": "nonpayable",
      "type": "function"
    },
    {
      "inputs": [],
      "name": "depositManager",
      "outputs": [
        {
          "internalType": "address",
          "name": "",
          "type": "address"
        }
      ],
      "stateMutability": "view",
      "type": "function"
    },
    {
      "inputs": [],
      "name": "factory",
      "outputs": [
        {
          "internalType": "address",
          "name": "",
          "type": "address"
        }
      ],
      "stateMutability": "view",
      "type": "function"
    },
    {
      "inputs": [
        {
          "internalType": "address",
          "name": "layer2",
          "type": "address"
        }
      ],
      "name": "getOperatorAmount",
      "outputs": [
        {
          "internalType": "uint256",
          "name": "",
          "type": "uint256"
        }
      ],
      "stateMutability": "view",
      "type": "function"
    },
    {
      "inputs": [
        {
          "internalType": "bytes32",
          "name": "role",
          "type": "bytes32"
        }
      ],
      "name": "getRoleAdmin",
      "outputs": [
        {
          "internalType": "bytes32",
          "name": "",
          "type": "bytes32"
        }
      ],
      "stateMutability": "view",
      "type": "function"
    },
    {
      "inputs": [
        {
          "internalType": "bytes32",
          "name": "role",
          "type": "bytes32"
        },
        {
          "internalType": "address",
          "name": "account",
          "type": "address"
        }
      ],
      "name": "grantRole",
      "outputs": [],
      "stateMutability": "nonpayable",
      "type": "function"
    },
    {
      "inputs": [
        {
          "internalType": "bytes32",
          "name": "role",
          "type": "bytes32"
        },
        {
          "internalType": "address",
          "name": "account",
          "type": "address"
        }
      ],
      "name": "hasRole",
      "outputs": [
        {
          "internalType": "bool",
          "name": "",
          "type": "bool"
        }
      ],
      "stateMutability": "view",
      "type": "function"
    },
    {
      "inputs": [
        {
          "internalType": "address",
          "name": "ton_",
          "type": "address"
        },
        {
          "internalType": "address",
          "name": "wton_",
          "type": "address"
        },
        {
          "internalType": "address",
          "name": "registry_",
          "type": "address"
        },
        {
          "internalType": "address",
          "name": "depositManager_",
          "type": "address"
        },
        {
          "internalType": "uint256",
          "name": "seigPerBlock_",
          "type": "uint256"
        },
        {
          "internalType": "address",
          "name": "factory_",
          "type": "address"
        },
        {
          "internalType": "uint256",
          "name": "lastSeigBlock_",
          "type": "uint256"
        }
      ],
      "name": "initialize",
      "outputs": [],
      "stateMutability": "nonpayable",
      "type": "function"
    },
    {
      "inputs": [
        {
          "internalType": "address",
          "name": "account",
          "type": "address"
        }
      ],
      "name": "isAdmin",
      "outputs": [
        {
          "internalType": "bool",
          "name": "",
          "type": "bool"
        }
      ],
      "stateMutability": "view",
      "type": "function"
    },
    {
      "inputs": [
        {
          "internalType": "address",
          "name": "account",
          "type": "address"
        }
      ],
      "name": "isChallenger",
      "outputs": [
        {
          "internalType": "bool",
          "name": "",
          "type": "bool"
        }
      ],
      "stateMutability": "view",
      "type": "function"
    },
    {
      "inputs": [
        {
          "internalType": "address",
          "name": "layer2",
          "type": "address"
        }
      ],
      "name": "isCommissionRateNegative",
      "outputs": [
        {
          "internalType": "bool",
          "name": "",
          "type": "bool"
        }
      ],
      "stateMutability": "view",
      "type": "function"
    },
    {
      "inputs": [
        {
          "internalType": "address",
          "name": "account",
          "type": "address"
        }
      ],
      "name": "isMinter",
      "outputs": [
        {
          "internalType": "bool",
          "name": "",
          "type": "bool"
        }
      ],
      "stateMutability": "view",
      "type": "function"
    },
    {
      "inputs": [
        {
          "internalType": "address",
          "name": "account",
          "type": "address"
        }
      ],
      "name": "isOperator",
      "outputs": [
        {
          "internalType": "bool",
          "name": "",
          "type": "bool"
        }
      ],
      "stateMutability": "view",
      "type": "function"
    },
    {
      "inputs": [],
      "name": "isOwner",
      "outputs": [
        {
          "internalType": "bool",
          "name": "",
          "type": "bool"
        }
      ],
      "stateMutability": "view",
      "type": "function"
    },
    {
      "inputs": [
        {
          "internalType": "address",
          "name": "layer2",
          "type": "address"
        }
      ],
      "name": "lastCommitBlock",
      "outputs": [
        {
          "internalType": "uint256",
          "name": "",
          "type": "uint256"
        }
      ],
      "stateMutability": "view",
      "type": "function"
    },
    {
      "inputs": [],
      "name": "lastSeigBlock",
      "outputs": [
        {
          "internalType": "uint256",
          "name": "",
          "type": "uint256"
        }
      ],
      "stateMutability": "view",
      "type": "function"
    },
    {
      "inputs": [],
      "name": "minimumAmount",
      "outputs": [
        {
          "internalType": "uint256",
          "name": "",
          "type": "uint256"
        }
      ],
      "stateMutability": "view",
      "type": "function"
    },
    {
      "inputs": [
        {
          "internalType": "address",
          "name": "layer2",
          "type": "address"
        },
        {
          "internalType": "address",
          "name": "account",
          "type": "address"
        },
        {
          "internalType": "uint256",
          "name": "amount",
          "type": "uint256"
        }
      ],
      "name": "onDeposit",
      "outputs": [
        {
          "internalType": "bool",
          "name": "",
          "type": "bool"
        }
      ],
      "stateMutability": "nonpayable",
      "type": "function"
    },
    {
      "inputs": [],
      "name": "onSnapshot",
      "outputs": [
        {
          "internalType": "uint256",
          "name": "snapshotId",
          "type": "uint256"
        }
      ],
      "stateMutability": "nonpayable",
      "type": "function"
    },
    {
      "inputs": [
        {
          "internalType": "address",
          "name": "sender",
          "type": "address"
        },
        {
          "internalType": "address",
          "name": "recipient",
          "type": "address"
        },
        {
          "internalType": "uint256",
          "name": "amount",
          "type": "uint256"
        }
      ],
      "name": "onTransfer",
      "outputs": [
        {
          "internalType": "bool",
          "name": "",
          "type": "bool"
        }
      ],
      "stateMutability": "nonpayable",
      "type": "function"
    },
    {
      "inputs": [
        {
          "internalType": "address",
          "name": "layer2",
          "type": "address"
        },
        {
          "internalType": "address",
          "name": "account",
          "type": "address"
        },
        {
          "internalType": "uint256",
          "name": "amount",
          "type": "uint256"
        }
      ],
      "name": "onWithdraw",
      "outputs": [
        {
          "internalType": "bool",
          "name": "",
          "type": "bool"
        }
      ],
      "stateMutability": "nonpayable",
      "type": "function"
    },
    {
      "inputs": [],
      "name": "pause",
      "outputs": [],
      "stateMutability": "nonpayable",
      "type": "function"
    },
    {
      "inputs": [],
      "name": "pauseProxy",
      "outputs": [
        {
          "internalType": "bool",
          "name": "",
          "type": "bool"
        }
      ],
      "stateMutability": "view",
      "type": "function"
    },
    {
      "inputs": [],
      "name": "paused",
      "outputs": [
        {
          "internalType": "bool",
          "name": "",
          "type": "bool"
        }
      ],
      "stateMutability": "view",
      "type": "function"
    },
    {
      "inputs": [],
      "name": "pausedBlock",
      "outputs": [
        {
          "internalType": "uint256",
          "name": "",
          "type": "uint256"
        }
      ],
      "stateMutability": "view",
      "type": "function"
    },
    {
      "inputs": [],
      "name": "powerTONSeigRate",
      "outputs": [
        {
          "internalType": "uint256",
          "name": "",
          "type": "uint256"
        }
      ],
      "stateMutability": "view",
      "type": "function"
    },
    {
      "inputs": [],
      "name": "powerton",
      "outputs": [
        {
          "internalType": "address",
          "name": "",
          "type": "address"
        }
      ],
      "stateMutability": "view",
      "type": "function"
    },
    {
      "inputs": [
        {
          "internalType": "uint256",
          "name": "",
          "type": "uint256"
        }
      ],
      "name": "proxyImplementation",
      "outputs": [
        {
          "internalType": "address",
          "name": "",
          "type": "address"
        }
      ],
      "stateMutability": "view",
      "type": "function"
    },
    {
      "inputs": [],
      "name": "registry",
      "outputs": [
        {
          "internalType": "address",
          "name": "",
          "type": "address"
        }
      ],
      "stateMutability": "view",
      "type": "function"
    },
    {
      "inputs": [],
      "name": "relativeSeigRate",
      "outputs": [
        {
          "internalType": "uint256",
          "name": "",
          "type": "uint256"
        }
      ],
      "stateMutability": "view",
      "type": "function"
    },
    {
      "inputs": [
        {
          "internalType": "address",
          "name": "account",
          "type": "address"
        }
      ],
      "name": "removeAdmin",
      "outputs": [],
      "stateMutability": "nonpayable",
      "type": "function"
    },
    {
      "inputs": [
        {
          "internalType": "address",
          "name": "account",
          "type": "address"
        }
      ],
      "name": "removeChallenger",
      "outputs": [],
      "stateMutability": "nonpayable",
      "type": "function"
    },
    {
      "inputs": [
        {
          "internalType": "address",
          "name": "account",
          "type": "address"
        }
      ],
      "name": "removeMinter",
      "outputs": [],
      "stateMutability": "nonpayable",
      "type": "function"
    },
    {
      "inputs": [
        {
          "internalType": "address",
          "name": "account",
          "type": "address"
        }
      ],
      "name": "removeOperator",
      "outputs": [],
      "stateMutability": "nonpayable",
      "type": "function"
    },
    {
      "inputs": [],
      "name": "renounceChallenger",
      "outputs": [],
      "stateMutability": "nonpayable",
      "type": "function"
    },
    {
      "inputs": [
        {
          "internalType": "address",
          "name": "target",
          "type": "address"
        }
      ],
      "name": "renounceMinter",
      "outputs": [],
      "stateMutability": "nonpayable",
      "type": "function"
    },
    {
      "inputs": [],
      "name": "renounceMinter",
      "outputs": [],
      "stateMutability": "nonpayable",
      "type": "function"
    },
    {
      "inputs": [],
      "name": "renounceOperator",
      "outputs": [],
      "stateMutability": "nonpayable",
      "type": "function"
    },
    {
      "inputs": [
        {
          "internalType": "address",
          "name": "target",
          "type": "address"
        }
      ],
      "name": "renounceOwnership",
      "outputs": [],
      "stateMutability": "nonpayable",
      "type": "function"
    },
    {
      "inputs": [],
      "name": "renounceOwnership",
      "outputs": [],
      "stateMutability": "nonpayable",
      "type": "function"
    },
    {
      "inputs": [
        {
          "internalType": "address",
          "name": "target",
          "type": "address"
        }
      ],
      "name": "renouncePauser",
      "outputs": [],
      "stateMutability": "nonpayable",
      "type": "function"
    },
    {
      "inputs": [
        {
          "internalType": "bytes32",
          "name": "role",
          "type": "bytes32"
        },
        {
          "internalType": "address",
          "name": "account",
          "type": "address"
        }
      ],
      "name": "renounceRole",
      "outputs": [],
      "stateMutability": "nonpayable",
      "type": "function"
    },
    {
      "inputs": [],
      "name": "renounceWTONMinter",
      "outputs": [],
      "stateMutability": "nonpayable",
      "type": "function"
    },
    {
      "inputs": [
        {
          "internalType": "address",
          "name": "account",
          "type": "address"
        }
      ],
      "name": "revokeChallenger",
      "outputs": [],
      "stateMutability": "nonpayable",
      "type": "function"
    },
    {
      "inputs": [
        {
          "internalType": "address",
          "name": "account",
          "type": "address"
        }
      ],
      "name": "revokeMinter",
      "outputs": [],
      "stateMutability": "nonpayable",
      "type": "function"
    },
    {
      "inputs": [
        {
          "internalType": "address",
          "name": "account",
          "type": "address"
        }
      ],
      "name": "revokeOperator",
      "outputs": [],
      "stateMutability": "nonpayable",
      "type": "function"
    },
    {
      "inputs": [
        {
          "internalType": "bytes32",
          "name": "role",
          "type": "bytes32"
        },
        {
          "internalType": "address",
          "name": "account",
          "type": "address"
        }
      ],
      "name": "revokeRole",
      "outputs": [],
      "stateMutability": "nonpayable",
      "type": "function"
    },
    {
      "inputs": [],
      "name": "seigPerBlock",
      "outputs": [
        {
          "internalType": "uint256",
          "name": "",
          "type": "uint256"
        }
      ],
      "stateMutability": "view",
      "type": "function"
    },
    {
      "inputs": [
        {
          "internalType": "bytes4",
          "name": "",
          "type": "bytes4"
        }
      ],
      "name": "selectorImplementation",
      "outputs": [
        {
          "internalType": "address",
          "name": "",
          "type": "address"
        }
      ],
      "stateMutability": "view",
      "type": "function"
    },
    {
      "inputs": [
        {
          "internalType": "uint256",
          "name": "adjustDelay_",
          "type": "uint256"
        }
      ],
      "name": "setAdjustDelay",
      "outputs": [],
      "stateMutability": "nonpayable",
      "type": "function"
    },
    {
      "inputs": [
        {
          "internalType": "address",
          "name": "factory_",
          "type": "address"
        }
      ],
      "name": "setCoinageFactory",
      "outputs": [],
      "stateMutability": "nonpayable",
      "type": "function"
    },
    {
      "inputs": [
        {
          "internalType": "address",
          "name": "layer2",
          "type": "address"
        },
        {
          "internalType": "uint256",
          "name": "commissionRate",
          "type": "uint256"
        },
        {
          "internalType": "bool",
          "name": "isCommissionRateNegative_",
          "type": "bool"
        }
      ],
      "name": "setCommissionRate",
      "outputs": [
        {
          "internalType": "bool",
          "name": "",
          "type": "bool"
        }
      ],
      "stateMutability": "nonpayable",
      "type": "function"
    },
    {
      "inputs": [
        {
          "internalType": "address",
          "name": "daoAddress",
          "type": "address"
        }
      ],
      "name": "setDao",
      "outputs": [],
      "stateMutability": "nonpayable",
      "type": "function"
    },
    {
      "inputs": [
        {
          "internalType": "uint256",
          "name": "daoSeigRate_",
          "type": "uint256"
        }
      ],
      "name": "setDaoSeigRate",
      "outputs": [],
      "stateMutability": "nonpayable",
      "type": "function"
    },
    {
      "inputs": [
        {
          "internalType": "address",
          "name": "powerton_",
          "type": "address"
        },
        {
          "internalType": "address",
          "name": "daoAddress",
          "type": "address"
        },
        {
          "internalType": "uint256",
          "name": "powerTONSeigRate_",
          "type": "uint256"
        },
        {
          "internalType": "uint256",
          "name": "daoSeigRate_",
          "type": "uint256"
        },
        {
          "internalType": "uint256",
          "name": "relativeSeigRate_",
          "type": "uint256"
        },
        {
          "internalType": "uint256",
          "name": "adjustDelay_",
          "type": "uint256"
        },
        {
          "internalType": "uint256",
          "name": "minimumAmount_",
          "type": "uint256"
        }
      ],
      "name": "setData",
      "outputs": [],
      "stateMutability": "nonpayable",
      "type": "function"
    },
    {
      "inputs": [
        {
          "internalType": "uint256",
          "name": "minimumAmount_",
          "type": "uint256"
        }
      ],
      "name": "setMinimumAmount",
      "outputs": [],
      "stateMutability": "nonpayable",
      "type": "function"
    },
    {
      "inputs": [
        {
          "internalType": "address",
          "name": "powerton_",
          "type": "address"
        }
      ],
      "name": "setPowerTON",
      "outputs": [],
      "stateMutability": "nonpayable",
      "type": "function"
    },
    {
      "inputs": [
        {
          "internalType": "uint256",
          "name": "powerTONSeigRate_",
          "type": "uint256"
        }
      ],
      "name": "setPowerTONSeigRate",
      "outputs": [],
      "stateMutability": "nonpayable",
      "type": "function"
    },
    {
      "inputs": [
        {
          "internalType": "uint256",
          "name": "pseigRate_",
          "type": "uint256"
        }
      ],
      "name": "setPseigRate",
      "outputs": [],
      "stateMutability": "nonpayable",
      "type": "function"
    },
    {
      "inputs": [
        {
          "internalType": "address",
          "name": "layer2",
          "type": "address"
        },
        {
          "internalType": "address",
          "name": "challenger",
          "type": "address"
        }
      ],
      "name": "slash",
      "outputs": [
        {
          "internalType": "bool",
          "name": "",
          "type": "bool"
        }
      ],
      "stateMutability": "nonpayable",
      "type": "function"
    },
    {
      "inputs": [
        {
          "internalType": "address",
          "name": "account",
          "type": "address"
        }
      ],
      "name": "stakeOf",
      "outputs": [
        {
          "internalType": "uint256",
          "name": "amount",
          "type": "uint256"
        }
      ],
      "stateMutability": "view",
      "type": "function"
    },
    {
      "inputs": [
        {
          "internalType": "address",
          "name": "layer2",
          "type": "address"
        },
        {
          "internalType": "address",
          "name": "account",
          "type": "address"
        }
      ],
      "name": "stakeOf",
      "outputs": [
        {
          "internalType": "uint256",
          "name": "",
          "type": "uint256"
        }
      ],
      "stateMutability": "view",
      "type": "function"
    },
    {
      "inputs": [
        {
          "internalType": "address",
          "name": "account",
          "type": "address"
        },
        {
          "internalType": "uint256",
          "name": "snapshotId",
          "type": "uint256"
        }
      ],
      "name": "stakeOfAt",
      "outputs": [
        {
          "internalType": "uint256",
          "name": "amount",
          "type": "uint256"
        }
      ],
      "stateMutability": "view",
      "type": "function"
    },
    {
      "inputs": [],
      "name": "stakeOfTotal",
      "outputs": [
        {
          "internalType": "uint256",
          "name": "amount",
          "type": "uint256"
        }
      ],
      "stateMutability": "view",
      "type": "function"
    },
    {
      "inputs": [
        {
          "internalType": "uint256",
          "name": "snapshotId",
          "type": "uint256"
        }
      ],
      "name": "stakeOfTotalAt",
      "outputs": [
        {
          "internalType": "uint256",
          "name": "amount",
          "type": "uint256"
        }
      ],
      "stateMutability": "view",
      "type": "function"
    },
    {
      "inputs": [
        {
          "internalType": "bytes4",
          "name": "interfaceId",
          "type": "bytes4"
        }
      ],
      "name": "supportsInterface",
      "outputs": [
        {
          "internalType": "bool",
          "name": "",
          "type": "bool"
        }
      ],
      "stateMutability": "view",
      "type": "function"
    },
    {
      "inputs": [],
      "name": "ton",
      "outputs": [
        {
          "internalType": "address",
          "name": "",
          "type": "address"
        }
      ],
      "stateMutability": "view",
      "type": "function"
    },
    {
      "inputs": [],
      "name": "tot",
      "outputs": [
        {
          "internalType": "address",
          "name": "",
          "type": "address"
        }
      ],
      "stateMutability": "view",
      "type": "function"
    },
    {
      "inputs": [
        {
          "internalType": "address",
          "name": "newAdmin",
          "type": "address"
        }
      ],
      "name": "transferAdmin",
      "outputs": [],
      "stateMutability": "nonpayable",
      "type": "function"
    },
    {
      "inputs": [
        {
          "internalType": "address",
          "name": "newSeigManager",
          "type": "address"
        },
        {
          "internalType": "address[]",
          "name": "coinages_",
          "type": "address[]"
        }
      ],
      "name": "transferCoinageOwnership",
      "outputs": [],
      "stateMutability": "nonpayable",
      "type": "function"
    },
    {
      "inputs": [
        {
          "internalType": "address",
          "name": "target",
          "type": "address"
        },
        {
          "internalType": "address",
          "name": "newOwner",
          "type": "address"
        }
      ],
      "name": "transferOwnership",
      "outputs": [],
      "stateMutability": "nonpayable",
      "type": "function"
    },
    {
      "inputs": [
        {
          "internalType": "address",
          "name": "newAdmin",
          "type": "address"
        }
      ],
      "name": "transferOwnership",
      "outputs": [],
      "stateMutability": "nonpayable",
      "type": "function"
    },
    {
      "inputs": [
        {
          "internalType": "address",
          "name": "layer2",
          "type": "address"
        },
        {
          "internalType": "address",
          "name": "account",
          "type": "address"
        }
      ],
      "name": "uncomittedStakeOf",
      "outputs": [
        {
          "internalType": "uint256",
          "name": "",
          "type": "uint256"
        }
      ],
      "stateMutability": "view",
      "type": "function"
    },
    {
      "inputs": [],
      "name": "unpause",
      "outputs": [],
      "stateMutability": "nonpayable",
      "type": "function"
    },
    {
      "inputs": [],
      "name": "unpausedBlock",
      "outputs": [
        {
          "internalType": "uint256",
          "name": "",
          "type": "uint256"
        }
      ],
      "stateMutability": "view",
      "type": "function"
    },
    {
      "inputs": [],
      "name": "updateSeigniorage",
      "outputs": [
        {
          "internalType": "bool",
          "name": "",
          "type": "bool"
        }
      ],
      "stateMutability": "nonpayable",
      "type": "function"
    },
    {
      "inputs": [
        {
          "internalType": "address",
          "name": "layer2",
          "type": "address"
        }
      ],
      "name": "updateSeigniorageLayer",
      "outputs": [
        {
          "internalType": "bool",
          "name": "",
          "type": "bool"
        }
      ],
      "stateMutability": "nonpayable",
      "type": "function"
    },
    {
      "inputs": [],
      "name": "wton",
      "outputs": [
        {
          "internalType": "address",
          "name": "",
          "type": "address"
        }
      ],
      "stateMutability": "view",
      "type": "function"
    }
  ],
  "transactionHash": "0x0d18555c81c2541706d845f963d86f61f66ba4838e579de916e14a80f1753a78",
  "args": [],
  "numDeployments": 1,
  "solcInputHash": "788129922d3841cef4d3fd6850dbd1fe",
  "bytecode": "0x608060405234801561001057600080fd5b506158d080620000216000396000f3fe608060405234801561001057600080fd5b50600436106106725760003560e01c80636d70f7ae11610350578063ac893219116101c8578063d547741f11610104578063f35c89e8116100ad578063f850ffaa11610087578063f850ffaa14610e52578063f8951f4614610e65578063fa9789c814610e78578063fad8b32a14610e8b57600080fd5b8063f35c89e814610e1a578063f5b541a614610e22578063f822934814610e4957600080fd5b8063e4034832116100de578063e403483214610de1578063eeb4a9c814610df4578063f2fde38b14610e0757600080fd5b8063d547741f14610da5578063df7fbef014610db8578063e2fe8fd114610dc157600080fd5b8063c59f104611610171578063ce4cb8761161014b578063ce4cb87614610d50578063ce6c035514610d63578063cfbd488514610d6b578063d539139314610d7e57600080fd5b8063c59f104614610cf6578063cbfebe6214610d1f578063cc48b94714610d3f57600080fd5b8063b911135f116101a2578063b911135f14610cb1578063bb0c829814610cda578063c45a015514610ce357600080fd5b8063ac89321914610c83578063ac8a584a14610c96578063ae3458f814610ca957600080fd5b80638f32d59b11610297578063a0474ef511610240578063a415d8dc1161021a578063a415d8dc14610c28578063a7dcc85014610c3b578063aa271e1a14610c4d578063ac753a7a14610c6057600080fd5b8063a0474ef514610bfc578063a16d6aa714610c0f578063a217fddf14610c2057600080fd5b806398650275116102715780639865027514610bce5780639870d7fe14610bd65780639c877e4714610be957600080fd5b80638f32d59b14610b4b57806391d1485414610b82578063983b2d5614610bbb57600080fd5b80637b056c1b116102f95780638456cb59116102d35780638456cb5914610b205780638bf91dc414610b285780638d62d94914610b3a57600080fd5b80637b056c1b14610ad35780637b10399914610afc578063833a774f14610b0d57600080fd5b806375829def1161032a57806375829def14610aa5578063764a785614610ab85780637aeccce914610ac057600080fd5b80636d70f7ae14610a775780637048027514610a8a578063715018a614610a9d57600080fd5b80634162169f116104ee578063552033c41161042a5780635f40a349116103d35780636637b882116103ad5780636637b88214610a2d5780636c578c1d14610a405780636c7ac9d814610a535780636d43542114610a6457600080fd5b80635f40a34914610a0f5780636304a62414610a1757806363a8fd8914610a2057600080fd5b80635a16a416116104045780635a16a416146109c35780635c975abb146109ef5780635f112c68146109fc57600080fd5b8063552033c41461084257806358d00cd6146109b25780635998a8d7146109ba57600080fd5b806348c8577e116104975780634c75ab9c116104715780634c75ab9c1461092c57806350d2a2761461093f578063530adbb414610968578063550d01a31461098f57600080fd5b806348c8577e146108da5780634a393149146108ed5780634c063c191461090057600080fd5b80634224ed66116104c85780634224ed66146108a157806342623360146108b457806346a99fe7146108c757600080fd5b80634162169f14610868578063418130201461087b57806341eb24bb1461088e57600080fd5b80632f17250a116105bd578063389ed267116105665780633e832e1d116105405780633e832e1d146108155780633f4ba83a1461083a5780634123196f14610842578063412c6d501461085557600080fd5b8063389ed267146107c857806338bf3cfa146107ef5780633c4911731461080257600080fd5b806332053c991161059757806332053c991461079a57806332847953146107a257806336568abe146107b557600080fd5b80632f17250a146107615780632f2ff15d146107745780633092afd51461078757600080fd5b8063248a9ca31161061f57806325e90db4116105f957806325e90db41461073e5780632ab6f8db146107465780632d1bdec81461074e57600080fd5b8063248a9ca3146106ff57806324d7806c1461072257806325374a9a1461073557600080fd5b80631785f53c116106505780631785f53c146106c75780631cc47890146106da5780631e1f0b60146106ec57600080fd5b806301ffc9a71461067757806303e1cc271461069f5780630ceb6780146106b4575b600080fd5b61068a61068536600461534f565b610e9e565b60405190151581526020015b60405180910390f35b6106b26106ad366004615379565b610eaf565b005b6106b26106c23660046153a7565b610f49565b6106b26106d53660046153a7565b61107e565b6013545b604051908152602001610696565b61068a6106fa3660046153a7565b6110ae565b6106de61070d366004615379565b60009081526005602052604090206001015490565b61068a6107303660046153a7565b611168565b6106de601d5481565b6106b26111a8565b6106b26111d4565b6106b261075c366004615379565b6111fe565b6106de61076f3660046153a7565b611228565b6106b26107823660046153c4565b611313565b6106b26107953660046153a7565b61133d565b6012546106de565b6106b26107b03660046153f4565b61138c565b6106b26107c33660046153c4565b61150c565b6106de7ffcb9fcbfa83b897fb2d5cf4b58962164105c1e71489a37ef3ae0db3fdce576f681565b6106b26107fd3660046153a7565b611598565b6106b26108103660046153a7565b611613565b6008546001600160a01b03165b6040516001600160a01b039091168152602001610696565b6106b2611662565b6106de6b033b2e3c9fd0803ce800000081565b61068a61086336600461547c565b611782565b600954610822906001600160a01b031681565b6106b26108893660046153a7565b611ad8565b6106b261089c3660046153a7565b611b1f565b61068a6108af3660046154cb565b611b7f565b6106de6108c23660046153a7565b611dfb565b6106b26108d536600461550d565b611f96565b6106de6108e836600461547c565b612126565b61068a6108fb36600461547c565b61213b565b61082261090e3660046153a7565b6001600160a01b039081166000908152600e60205260409020541690565b6106de61093a366004615591565b6121f1565b61082261094d36600461534f565b6003602052600090815260409020546001600160a01b031681565b6106de7fbf02bad7114723a857a3af46cea17b778a3a951c96f183784d9a2448cc479ab681565b61068a61099d3660046153a7565b60026020526000908152604090205460ff1681565b6106de612394565b6106de601c5481565b61068a6109d13660046153a7565b6001600160a01b031660009081526015602052604090205460ff1690565b601f5461068a9060ff1681565b6106b2610a0a3660046153a7565b6125d5565b6010546106de565b6106de601b5481565b60005461068a9060ff1681565b6106b2610a3b3660046153a7565b612635565b6106b2610a4e3660046153a7565b61267c565b6007546001600160a01b0316610822565b6106b2610a723660046155bd565b6126cb565b61068a610a853660046153a7565b61274f565b6106b2610a983660046153a7565b61278f565b6106b26127bf565b6106b2610ab33660046153a7565b6127ef565b61068a6128d8565b61068a610ace3660046155bd565b6130a4565b6106de610ae13660046153a7565b6001600160a01b031660009081526014602052604090205490565b6006546001600160a01b0316610822565b61068a610b1b3660046153a7565b613217565b6106b261337a565b6b033b2e3c9fd0803ce80000006106de565b600b546001600160a01b0316610822565b3360009081527f05b8ccbb9d4d8fb16ea74ce3c29a41f1b461fbdaff4714a0d9a8eb05499746bc602052604090205460ff1661068a565b61068a610b903660046153c4565b60009182526005602090815260408084206001600160a01b0393909316845291905290205460ff1690565b6106b2610bc93660046153a7565b61349d565b6106b26134ec565b6106b2610be43660046153a7565b613516565b6106b2610bf7366004615379565b613565565b6106de610c0a366004615379565b6135f6565b600d546001600160a01b0316610822565b6106de600081565b61068a610c363660046153a7565b613664565b6106de6a084595161401484a00000081565b61068a610c5b3660046153a7565b6136a4565b61068a610c6e3660046153a7565b60196020526000908152604090205460ff1681565b6106b2610c913660046153a7565b6136e4565b6106b2610ca43660046153a7565b61372b565b6106b261377a565b610822610cbf366004615379565b6001602052600090815260409020546001600160a01b031681565b6106de601a5481565b600c54610822906001600160a01b031681565b6106de610d043660046153a7565b6001600160a01b03166000908152600f602052604090205490565b6106de610d2d3660046153a7565b60176020526000908152604090205481565b600a546001600160a01b0316610822565b6106de610d5e3660046155bd565b613803565b6106de61385c565b6106b2610d793660046153a7565b6138ca565b6106de7ff0887ba65ee2024ea881d91b74c2450ef19e1557f03bed3ea9f16b037cbe2dc981565b6106b2610db33660046153c4565b613915565b6106de60165481565b6106de610dcf3660046153a7565b60186020526000908152604090205481565b6106b2610def366004615379565b61393a565b6106b2610e02366004615379565b6139cb565b6106b2610e153660046153a7565b6139f5565b6011546106de565b6106de7f523a704056dcd17bcf83bed8b68c59416dac1119be77755efe3bde0a64e46e0c81565b6106de601e5481565b61068a610e6036600461547c565b613a23565b6106b2610e733660046155eb565b613eaa565b6106de610e863660046155bd565b613f8e565b6106b2610e993660046153a7565b61420e565b6000610ea98261425d565b92915050565b610eb833611168565b610edd5760405162461bcd60e51b8152600401610ed49061564d565b60405180910390fd5b600081118015610ef857506b033b2e3c9fd0803ce800000081105b610f445760405162461bcd60e51b815260206004820152601960248201527f657863656564656420736569676e696f726167652072617465000000000000006044820152606401610ed4565b601c55565b610f886040518060400160405280601d81526020017f6f6e6c794d696e7465724f7241646d696e206d73672e73656e6465722000000081525033614282565b3360009081527fca0a2f641ec05ca23127d994cf03ffc453db616acae0b86cb56bb95304d068546020526040902054610fc39060ff166142c7565b610fcc33611168565b8061100557503360009081527fca0a2f641ec05ca23127d994cf03ffc453db616acae0b86cb56bb95304d06854602052604090205460ff165b6110515760405162461bcd60e51b815260206004820152601560248201527f6e6f74206f6e6c794d696e7465724f7241646d696e00000000000000000000006044820152606401610ed4565b61107b7fbf02bad7114723a857a3af46cea17b778a3a951c96f183784d9a2448cc479ab682611313565b50565b61108733611168565b6110a35760405162461bcd60e51b8152600401610ed49061564d565b61107b60008261150c565b6000816001600160a01b031663764a78566040518163ffffffff1660e01b81526004016020604051808303816000875af11580156110f0573d6000803e3d6000fd5b505050506040513d601f19601f820116820180604052508101906111149190615690565b6111605760405162461bcd60e51b815260206004820152601660248201527f6661696c20757064617465536569676e696f72616765000000000000000000006044820152606401610ed4565b506001919050565b6001600160a01b03811660009081527f05b8ccbb9d4d8fb16ea74ce3c29a41f1b461fbdaff4714a0d9a8eb05499746bc602052604081205460ff16610ea9565b6111d27fbf02bad7114723a857a3af46cea17b778a3a951c96f183784d9a2448cc479ab63361150c565b565b6111d27f523a704056dcd17bcf83bed8b68c59416dac1119be77755efe3bde0a64e46e0c3361150c565b61120733611168565b6112235760405162461bcd60e51b8152600401610ed49061564d565b601655565b600080336001600160a01b031663570ca7356040518163ffffffff1660e01b8152600401602060405180830381865afa158015611269573d6000803e3d6000fd5b505050506040513d601f19601f8201168201806040525081019061128d91906156ad565b6001600160a01b038481166000908152600e6020526040908190205490516370a0823160e01b8152838316600482015292935016906370a0823190602401602060405180830381865afa1580156112e8573d6000803e3d6000fd5b505050506040513d601f19601f8201168201806040525081019061130c91906156ca565b9392505050565b60008281526005602052604090206001015461132e81614308565b6113388383614312565b505050565b61134633611168565b6113625760405162461bcd60e51b8152600401610ed49061564d565b61107b7ff0887ba65ee2024ea881d91b74c2450ef19e1557f03bed3ea9f16b037cbe2dc98261150c565b61139533611168565b6113b15760405162461bcd60e51b8152600401610ed49061564d565b60005b818110156115065760008383838181106113d0576113d06156e3565b90506020020160208101906113e591906153a7565b604051634c1d96ab60e11b81526001600160a01b0387811660048301529192509082169063983b2d5690602401600060405180830381600087803b15801561142c57600080fd5b505af1158015611440573d6000803e3d6000fd5b50505050806001600160a01b031663986502756040518163ffffffff1660e01b8152600401600060405180830381600087803b15801561147f57600080fd5b505af1158015611493573d6000803e3d6000fd5b505060405163f2fde38b60e01b81526001600160a01b0388811660048301528416925063f2fde38b9150602401600060405180830381600087803b1580156114da57600080fd5b505af11580156114ee573d6000803e3d6000fd5b505050505080806114fe9061570f565b9150506113b4565b50505050565b6001600160a01b038116331461158a5760405162461bcd60e51b815260206004820152602f60248201527f416363657373436f6e74726f6c3a2063616e206f6e6c792072656e6f756e636560448201527f20726f6c657320666f722073656c6600000000000000000000000000000000006064820152608401610ed4565b61159482826143b4565b5050565b6115a133611168565b6115bd5760405162461bcd60e51b8152600401610ed49061564d565b806001600160a01b031663715018a66040518163ffffffff1660e01b8152600401600060405180830381600087803b1580156115f857600080fd5b505af115801561160c573d6000803e3d6000fd5b5050505050565b61161c33611168565b6116385760405162461bcd60e51b8152600401610ed49061564d565b61107b7fbf02bad7114723a857a3af46cea17b778a3a951c96f183784d9a2448cc479ab682613915565b3360009081527f787f97f3270d439d97068e73d6d75a066b24f84c342661f177d4e43e00e9f513602052604090205460ff166116ec5760405162461bcd60e51b815260206004820152602360248201527f41757468436f6e74726f6c3a2043616c6c6572206973206e6f7420612070617560448201526239b2b960e91b6064820152608401610ed4565b601f5460ff1661173e5760405162461bcd60e51b815260206004820152601460248201527f5061757361626c653a206e6f74207061757365640000000000000000000000006044820152606401610ed4565b43601355601f805460ff191690556040513381527f5db9ee0a495bf2e6ff9c91a7834c1ba4fdd244a5e8aa4e537bd38aeae4b073aa906020015b60405180910390a1565b6007546000906001600160a01b031633146117df5760405162461bcd60e51b815260206004820152601660248201527f6e6f74206f6e6c794465706f7369744d616e61676572000000000000000000006044820152606401610ed4565b6001600160a01b038085166000908152600e602052604090205485911661185f5760405162461bcd60e51b815260206004820152602e60248201527f536569674d616e616765723a20636f696e61676520686173206e6f742062656560448201526d1b8819195c1b1bde5959081e595d60921b6064820152608401610ed4565b6118698585614437565b1561194e576001600160a01b038581166000908152600e60205260408082205490516370a0823160e01b81528784166004820152919286929116906370a0823190602401602060405180830381865afa1580156118ca573d6000803e3d6000fd5b505050506040513d601f19601f820116820180604052508101906118ee91906156ca565b6118f89190615728565b9050601a5481101561194c5760405162461bcd60e51b815260206004820152601a60248201527f6d696e696d756d20616d6f756e742069732072657175697265640000000000006044820152606401610ed4565b505b600d546040516340c10f1960e01b81526001600160a01b03878116600483015260248201869052909116906340c10f19906044016020604051808303816000875af11580156119a1573d6000803e3d6000fd5b505050506040513d601f19601f820116820180604052508101906119c59190615690565b506001600160a01b038581166000908152600e6020526040908190205490516340c10f1960e01b81528683166004820152602481018690529116906340c10f19906044016020604051808303816000875af1158015611a28573d6000803e3d6000fd5b505050506040513d601f19601f82011682018060405250810190611a4c9190615690565b506008546001600160a01b031615611acd57600854604051630412c6d560e41b81526001600160a01b0387811660048301528681166024830152604482018690529091169063412c6d5090606401600060405180830381600087803b158015611ab457600080fd5b505af1158015611ac8573d6000803e3d6000fd5b505050505b506001949350505050565b611ae133611168565b611afd5760405162461bcd60e51b8152600401610ed49061564d565b600880546001600160a01b0319166001600160a01b0392909216919091179055565b611b2833611168565b611b445760405162461bcd60e51b8152600401610ed49061564d565b806001600160a01b0316636ef8d66d6040518163ffffffff1660e01b8152600401600060405180830381600087803b1580156115f857600080fd5b60065460009084906001600160a01b0316331480611c0f5750806001600160a01b031663570ca7356040518163ffffffff1660e01b8152600401602060405180830381865afa158015611bd6573d6000803e3d6000fd5b505050506040513d601f19601f82011682018060405250810190611bfa91906156ad565b6001600160a01b0316336001600160a01b0316145b611c5b5760405162461bcd60e51b815260206004820152601a60248201527f6e6f74206f6e6c7952656769737472794f724f70657261746f720000000000006044820152606401610ed4565b831580611c8a5750836a084595161401484a00000011158015611c8a57506b033b2e3c9fd0803ce80000008411155b611d0a5760405162461bcd60e51b8152602060048201526044602482018190527f536569674d616e616765723a20636f6d6d697373696f6e2072617465206d7573908201527f742062652030206f72206265747765656e20312052415920616e6420302e30316064820152632052415960e01b608482015260a401610ed4565b6001600160a01b038516600090815260146020526040812054601654909103611d63576001600160a01b038616600090815260146020908152604080832088905560159091529020805460ff1916851515179055611dab565b601654611d709043615728565b6001600160a01b038716600090815260176020908152604080832093909355601881528282208890556019905220805460ff19168515151790555b60408051828152602081018790526001600160a01b038816917f11841078e38c91feada06e1f8ded3697ab2dadc2583c52b14109b82ccd4f77d7910160405180910390a250600195945050505050565b600080600660009054906101000a90046001600160a01b03166001600160a01b0316630d42d4976040518163ffffffff1660e01b8152600401602060405180830381865afa158015611e51573d6000803e3d6000fd5b505050506040513d601f19601f82011682018060405250810190611e7591906156ca565b905060005b81811015611f8f5760065460405163b7ffb17960e01b8152600481018390526000916001600160a01b03169063b7ffb17990602401602060405180830381865afa158015611ecc573d6000803e3d6000fd5b505050506040513d601f19601f82011682018060405250810190611ef091906156ad565b6001600160a01b038181166000908152600e6020526040908190205490516370a0823160e01b8152888316600482015292935016906370a0823190602401602060405180830381865afa158015611f4b573d6000803e3d6000fd5b505050506040513d601f19601f82011682018060405250810190611f6f91906156ca565b611f799085615728565b9350508080611f879061570f565b915050611e7a565b5050919050565b600a546001600160a01b0316158015611faf5750601154155b611ffb5760405162461bcd60e51b815260206004820152601360248201527f616c726561647920696e697469616c697a6564000000000000000000000000006044820152606401610ed4565b600a80546001600160a01b03808a166001600160a01b031992831617909255600b805489841690831617905560068054888416908316179055600780548784169083161790556010859055600c8054928516929091168217905560408051631dd70c0360e21b815290516000929163775c300c916004828101926020929190829003018187875af1158015612094573d6000803e3d6000fd5b505050506040513d601f19601f820116820180604052508101906120b891906156ad565b90506001600160a01b0381166120fb5760405162461bcd60e51b81526020600482015260086024820152671e995c9bc81d1bdd60c21b6044820152606401610ed4565b600d80546001600160a01b0319166001600160a01b0392909216919091179055601155505050505050565b60006121338484846144b7565b949350505050565b600a546000906001600160a01b03163314806121615750600b546001600160a01b031633145b6121d35760405162461bcd60e51b815260206004820152603160248201527f536569674d616e616765723a206f6e6c7920544f4e206f722057544f4e20636160448201527f6e2063616c6c206f6e5472616e736665720000000000000000000000000000006064820152608401610ed4565b601f5460ff166121e7576121e56145fe565b505b5060019392505050565b600080600660009054906101000a90046001600160a01b03166001600160a01b0316630d42d4976040518163ffffffff1660e01b8152600401602060405180830381865afa158015612247573d6000803e3d6000fd5b505050506040513d601f19601f8201168201806040525081019061226b91906156ca565b905060005b8181101561238c5760065460405163b7ffb17960e01b8152600481018390526000916001600160a01b03169063b7ffb17990602401602060405180830381865afa1580156122c2573d6000803e3d6000fd5b505050506040513d601f19601f820116820180604052508101906122e691906156ad565b6001600160a01b038181166000908152600e60205260409081902054905163277166bf60e11b81528983166004820152602481018990529293501690634ee2cd7e90604401602060405180830381865afa158015612348573d6000803e3d6000fd5b505050506040513d601f19601f8201168201806040525081019061236c91906156ca565b6123769085615728565b93505080806123849061570f565b915050612270565b505092915050565b600080600660009054906101000a90046001600160a01b03166001600160a01b0316630d42d4976040518163ffffffff1660e01b8152600401602060405180830381865afa1580156123ea573d6000803e3d6000fd5b505050506040513d601f19601f8201168201806040525081019061240e91906156ca565b905060005b8181101561251c5760065460405163b7ffb17960e01b8152600481018390526000916001600160a01b03169063b7ffb17990602401602060405180830381865afa158015612465573d6000803e3d6000fd5b505050506040513d601f19601f8201168201806040525081019061248991906156ad565b6001600160a01b038082166000908152600e60209081526040808320548151634b88b8ad60e11b8152915195965090931693639711715a936004808201949183900301908290875af11580156124e3573d6000803e3d6000fd5b505050506040513d601f19601f8201168201806040525081019061250791906156ca565b505080806125149061570f565b915050612413565b50600d60009054906101000a90046001600160a01b03166001600160a01b0316639711715a6040518163ffffffff1660e01b81526004016020604051808303816000875af1158015612572573d6000803e3d6000fd5b505050506040513d601f19601f8201168201806040525081019061259691906156ca565b91507fac3d68540f9902349c72a28dc187ad15b504d68182767a2b00a3db86880507ba826040516125c991815260200190565b60405180910390a15090565b6125de33611168565b6125fa5760405162461bcd60e51b8152600401610ed49061564d565b806001600160a01b031663986502756040518163ffffffff1660e01b8152600401600060405180830381600087803b1580156115f857600080fd5b61263e33611168565b61265a5760405162461bcd60e51b8152600401610ed49061564d565b600980546001600160a01b0319166001600160a01b0392909216919091179055565b61268533611168565b6126a15760405162461bcd60e51b8152600401610ed49061564d565b61107b7fbf02bad7114723a857a3af46cea17b778a3a951c96f183784d9a2448cc479ab68261150c565b6126d433611168565b6126f05760405162461bcd60e51b8152600401610ed49061564d565b60405163f2fde38b60e01b81526001600160a01b03828116600483015283169063f2fde38b90602401600060405180830381600087803b15801561273357600080fd5b505af1158015612747573d6000803e3d6000fd5b505050505050565b6001600160a01b03811660009081527f02634a7c777b8129955fe1824eee49ef19dfa96f2f4cb63212492c3d84eb58e6602052604081205460ff16610ea9565b61279833611168565b6127b45760405162461bcd60e51b8152600401610ed49061564d565b61107b600082611313565b6127c833611168565b6127e45760405162461bcd60e51b8152600401610ed49061564d565b6111d260003361150c565b6127f833611168565b6128145760405162461bcd60e51b8152600401610ed49061564d565b6001600160a01b03811661286a5760405162461bcd60e51b815260206004820152601860248201527f41636365737369626c653a207a65726f206164647265737300000000000000006044820152606401610ed4565b6001600160a01b03811633036128c25760405162461bcd60e51b815260206004820152601660248201527f41636365737369626c653a2073616d652061646d696e000000000000000000006044820152606401610ed4565b6128cd600082611313565b61107b60003361150c565b336000818152600e60205260408120549091906001600160a01b03166129575760405162461bcd60e51b815260206004820152602e60248201527f536569674d616e616765723a20636f696e61676520686173206e6f742062656560448201526d1b8819195c1b1bde5959081e595d60921b6064820152608401610ed4565b601f5460ff161561296a57600191505090565b60115443116129bb5760405162461bcd60e51b815260206004820152601b60248201527f6c617374207365696720626c6f636b206973206e6f74207061737400000000006044820152606401610ed4565b60006129c633611228565b9050601a54811015612a1a5760405162461bcd60e51b815260206004820152601d60248201527f6d696e696d756d416d6f756e7420697320696e73756666696369656e740000006044820152606401610ed4565b336000908152600e60209081526040808320548151630a9ee07f60e31b815291516001600160a01b03909116939284926354f703f892600480830193928290030181865afa158015612a70573d6000803e3d6000fd5b505050506040513d601f19601f82011682018060405250810190612a9491906156ca565b90506000600d60009054906101000a90046001600160a01b03166001600160a01b03166354f703f86040518163ffffffff1660e01b8152600401602060405180830381865afa158015612aeb573d6000803e3d6000fd5b505050506040513d601f19601f82011682018060405250810190612b0f91906156ca565b9050612b196145fe565b50336000908152600f6020908152604080832043905580516318160ddd60e01b815290516001600160a01b038716926318160ddd92600480820193918290030181865afa158015612b6e573d6000803e3d6000fd5b505050506040513d601f19601f82011682018060405250810190612b9291906156ca565b600d546040516370a0823160e01b81523360048201529192506000916001600160a01b03909116906370a0823190602401602060405180830381865afa158015612be0573d6000803e3d6000fd5b505050506040513d601f19601f82011682018060405250810190612c0491906156ca565b9050808210612c465760405133907f521cc65179761533a7c8d7a973291dd7baebb99a67edf5ef78e9c2b61a533d9590600090a2600197505050505050505090565b6000612c52838361573b565b90506000336001600160a01b031663570ca7356040518163ffffffff1660e01b8152600401602060405180830381865afa158015612c94573d6000803e3d6000fd5b505050506040513d601f19601f82011682018060405250810190612cb891906156ad565b336000818152601560205260408120549293509160ff1690612cde908a88878588614d00565b8093508196505050886001600160a01b031663817e9d31612d6188888d6001600160a01b03166354f703f86040518163ffffffff1660e01b8152600401602060405180830381865afa158015612d38573d6000803e3d6000fd5b505050506040513d601f19601f82011682018060405250810190612d5c91906156ca565b614f1b565b6040518263ffffffff1660e01b8152600401612d7f91815260200190565b6020604051808303816000875af1158015612d9e573d6000803e3d6000fd5b505050506040513d601f19601f82011682018060405250810190612dc29190615690565b508115612eab578015612e365760405163079cc67960e41b81526001600160a01b038481166004830152602482018490528a16906379cc679090604401600060405180830381600087803b158015612e1957600080fd5b505af1158015612e2d573d6000803e3d6000fd5b50505050612eab565b6040516340c10f1960e01b81526001600160a01b038481166004830152602482018490528a16906340c10f19906044016020604051808303816000875af1158015612e85573d6000803e3d6000fd5b505050506040513d601f19601f82011682018060405250810190612ea99190615690565b505b6000896001600160a01b03166354f703f86040518163ffffffff1660e01b8152600401602060405180830381865afa158015612eeb573d6000803e3d6000fd5b505050506040513d601f19601f82011682018060405250810190612f0f91906156ca565b90506000600d60009054906101000a90046001600160a01b03166001600160a01b03166354f703f86040518163ffffffff1660e01b8152600401602060405180830381865afa158015612f66573d6000803e3d6000fd5b505050506040513d601f19601f82011682018060405250810190612f8a91906156ca565b600b546007546040516340c10f1960e01b81526001600160a01b039182166004820152602481018a905292935016906340c10f19906044016020604051808303816000875af1158015612fe1573d6000803e3d6000fd5b505050506040513d601f19601f820116820180604052508101906130059190615690565b5060405133907f521cc65179761533a7c8d7a973291dd7baebb99a67edf5ef78e9c2b61a533d9590600090a260408051438152602081018a9052908101889052606081018a9052608081018b905260a0810182905260c0810183905233907fc93b8f82f3855a72b1cd7998a29e27df8650ab3c2b172a741887d950dbbad40d9060e00160405180910390a260019d505050505050505050505050505090565b3360009081527fedec71783a10810e436f3392a073a61717130e573433fcc6591c3061a012f767602052604081205460ff166131325760405162461bcd60e51b815260206004820152602760248201527f41757468436f6e74726f6c3a2043616c6c6572206973206e6f74206120636861604482015266363632b733b2b960c91b6064820152608401610ed4565b6001600160a01b038084166000908152600e60205260409020548491166131b25760405162461bcd60e51b815260206004820152602e60248201527f536569674d616e616765723a20636f696e61676520686173206e6f742062656560448201526d1b8819195c1b1bde5959081e595d60921b6064820152608401610ed4565b6040516306394c9b60e01b81526001600160a01b0384811660048301528516906306394c9b90602401600060405180830381600087803b1580156131f557600080fd5b505af1158015613209573d6000803e3d6000fd5b506001979650505050505050565b6006546000906001600160a01b031633146132745760405162461bcd60e51b815260206004820152601060248201527f6e6f74206f6e6c795265676973747279000000000000000000000000000000006044820152606401610ed4565b6001600160a01b038281166000908152600e60205260409020541661116057600c5460408051631dd70c0360e21b815290516000926001600160a01b03169163775c300c916004808301926020929190829003018187875af11580156132de573d6000803e3d6000fd5b505050506040513d601f19601f8201168201806040525081019061330291906156ad565b6001600160a01b038481166000818152600f60209081526040808320439055600e82529182902080546001600160a01b03191694861694851790559051928352929350917f124cac1e701d08d642237ad795ddd275670e12f2cd956a26709721c68084c2b2910160405180910390a250506001919050565b3360009081527f787f97f3270d439d97068e73d6d75a066b24f84c342661f177d4e43e00e9f513602052604090205460ff166134045760405162461bcd60e51b815260206004820152602360248201527f41757468436f6e74726f6c3a2043616c6c6572206973206e6f7420612070617560448201526239b2b960e91b6064820152608401610ed4565b601f5460ff16156134575760405162461bcd60e51b815260206004820152601060248201527f5061757361626c653a20706175736564000000000000000000000000000000006044820152606401610ed4565b43601255601f805460ff191660011790556040513381527f62e78cea01bee320cd4e420270b5ea74000d11b0c9f74754ebdbfc544b05a25890602001611778565b905090565b6134a633611168565b6134c25760405162461bcd60e51b8152600401610ed49061564d565b61107b7ff0887ba65ee2024ea881d91b74c2450ef19e1557f03bed3ea9f16b037cbe2dc982611313565b6111d27ff0887ba65ee2024ea881d91b74c2450ef19e1557f03bed3ea9f16b037cbe2dc93361150c565b61351f33611168565b61353b5760405162461bcd60e51b8152600401610ed49061564d565b61107b7f523a704056dcd17bcf83bed8b68c59416dac1119be77755efe3bde0a64e46e0c82611313565b61356e33611168565b61358a5760405162461bcd60e51b8152600401610ed49061564d565b6000811180156135a557506b033b2e3c9fd0803ce800000081105b6135f15760405162461bcd60e51b815260206004820152601960248201527f657863656564656420736569676e696f726167652072617465000000000000006044820152606401610ed4565b601b55565b600d54604051630981b24d60e41b8152600481018390526000916001600160a01b03169063981b24d090602401602060405180830381865afa158015613640573d6000803e3d6000fd5b505050506040513d601f19601f82011682018060405250810190610ea991906156ca565b6001600160a01b03811660009081527fedec71783a10810e436f3392a073a61717130e573433fcc6591c3061a012f767602052604081205460ff16610ea9565b6001600160a01b03811660009081527fca0a2f641ec05ca23127d994cf03ffc453db616acae0b86cb56bb95304d06854602052604081205460ff16610ea9565b6136ed33611168565b6137095760405162461bcd60e51b8152600401610ed49061564d565b600c80546001600160a01b0319166001600160a01b0392909216919091179055565b61373433611168565b6137505760405162461bcd60e51b8152600401610ed49061564d565b61107b7f523a704056dcd17bcf83bed8b68c59416dac1119be77755efe3bde0a64e46e0c8261150c565b61378333611168565b61379f5760405162461bcd60e51b8152600401610ed49061564d565b600b60009054906101000a90046001600160a01b03166001600160a01b031663986502756040518163ffffffff1660e01b8152600401600060405180830381600087803b1580156137ef57600080fd5b505af1158015611506573d6000803e3d6000fd5b6001600160a01b038281166000908152600e60205260408082205490516370a0823160e01b81528484166004820152919216906370a0823190602401602060405180830381865afa1580156112e8573d6000803e3d6000fd5b600d54604080516318160ddd60e01b815290516000926001600160a01b0316916318160ddd9160048083019260209291908290030181865afa1580156138a6573d6000803e3d6000fd5b505050506040513d601f19601f8201168201806040525081019061349891906156ca565b6138d333611168565b6138ef5760405162461bcd60e51b8152600401610ed49061564d565b61107b7ff0887ba65ee2024ea881d91b74c2450ef19e1557f03bed3ea9f16b037cbe2dc9825b60008281526005602052604090206001015461393081614308565b61133883836143b4565b61394333611168565b61395f5760405162461bcd60e51b8152600401610ed49061564d565b60008111801561397a57506b033b2e3c9fd0803ce800000081105b6139c65760405162461bcd60e51b815260206004820152601960248201527f657863656564656420736569676e696f726167652072617465000000000000006044820152606401610ed4565b601d55565b6139d433611168565b6139f05760405162461bcd60e51b8152600401610ed49061564d565b601a55565b6139fe33611168565b613a1a5760405162461bcd60e51b8152600401610ed49061564d565b61107b816127ef565b6007546000906001600160a01b03163314613a805760405162461bcd60e51b815260206004820152601660248201527f6e6f74206f6e6c794465706f7369744d616e61676572000000000000000000006044820152606401610ed4565b6001600160a01b038085166000908152600e6020526040902054859116613b005760405162461bcd60e51b815260206004820152602e60248201527f536569674d616e616765723a20636f696e61676520686173206e6f742062656560448201526d1b8819195c1b1bde5959081e595d60921b6064820152608401610ed4565b6001600160a01b038581166000908152600e6020526040908190205490516370a0823160e01b81528683166004820152859291909116906370a0823190602401602060405180830381865afa158015613b5d573d6000803e3d6000fd5b505050506040513d601f19601f82011682018060405250810190613b8191906156ca565b1015613bf55760405162461bcd60e51b815260206004820152602c60248201527f536569674d616e616765723a20696e73756666696369616e742062616c616e6360448201527f6520746f20756e7374616b6500000000000000000000000000000000000000006064820152608401610ed4565b613bff8585614437565b15613ce4576001600160a01b038581166000908152600e60205260408082205490516370a0823160e01b81528784166004820152919286929116906370a0823190602401602060405180830381865afa158015613c60573d6000803e3d6000fd5b505050506040513d601f19601f82011682018060405250810190613c8491906156ca565b613c8e919061573b565b9050601a54811015613ce25760405162461bcd60e51b815260206004820152601a60248201527f6d696e696d756d20616d6f756e742069732072657175697265640000000000006044820152606401610ed4565b505b6000613cf18686866144b7565b600d549091506001600160a01b03166379cc679087613d108488615728565b6040516001600160e01b031960e085901b1681526001600160a01b0390921660048301526024820152604401600060405180830381600087803b158015613d5657600080fd5b505af1158015613d6a573d6000803e3d6000fd5b505050506001600160a01b038681166000908152600e60205260409081902054905163079cc67960e41b81528783166004820152602481018790529116906379cc679090604401600060405180830381600087803b158015613dcb57600080fd5b505af1158015613ddf573d6000803e3d6000fd5b50506008546001600160a01b0316159150613e65905057600854604051637c287fd560e11b81526001600160a01b0388811660048301528781166024830152604482018790529091169063f850ffaa90606401600060405180830381600087803b158015613e4c57600080fd5b505af1158015613e60573d6000803e3d6000fd5b505050505b60408051858152602081018390527f650f673bb96a43afff4620ecc3f3e38e0cbfddebde9894e951ba2ceff7472f60910160405180910390a150600195945050505050565b613eb333611168565b613ecf5760405162461bcd60e51b8152600401610ed49061564d565b6b033b2e3c9fd0803ce8000000601d54601c54601b54613eef9190615728565b613ef99190615728565b1115613f475760405162461bcd60e51b815260206004820152601960248201527f657863656564656420736569676e696f726167652072617465000000000000006044820152606401610ed4565b600880546001600160a01b039889166001600160a01b0319918216179091556009805497909816961695909517909555601b92909255601c55601d55601691909155601a55565b6001600160a01b038083166000908152600e60209081526040808320548151630a9ee07f60e31b8152915193941692849284926354f703f892600480830193928290030181865afa158015613fe7573d6000803e3d6000fd5b505050506040513d601f19601f8201168201806040525081019061400b91906156ca565b90506000826001600160a01b03166318160ddd6040518163ffffffff1660e01b8152600401602060405180830381865afa15801561404d573d6000803e3d6000fd5b505050506040513d601f19601f8201168201806040525081019061407191906156ca565b600d546040516370a0823160e01b81526001600160a01b038981166004830152929350600092909116906370a0823190602401602060405180830381865afa1580156140c1573d6000803e3d6000fd5b505050506040513d601f19601f820116820180604052508101906140e591906156ca565b905060006140f4838386614f1b565b6040516370a0823160e01b81526001600160a01b03898116600483015291925060009161417891614172918916906370a0823190602401602060405180830381865afa158015614148573d6000803e3d6000fd5b505050506040513d601f19601f8201168201806040525081019061416c91906156ca565b87614f2c565b83614f62565b6001600160a01b038a81166000908152600e6020526040908190205490516370a0823160e01b81528b8316600482015292935016906370a0823190602401602060405180830381865afa1580156141d3573d6000803e3d6000fd5b505050506040513d601f19601f820116820180604052508101906141f791906156ca565b614201908261573b565b9998505050505050505050565b61421733611168565b6142335760405162461bcd60e51b8152600401610ed49061564d565b61107b7f523a704056dcd17bcf83bed8b68c59416dac1119be77755efe3bde0a64e46e0c82613915565b60006001600160e01b03198216637965db0b60e01b1480610ea95750610ea982614f95565b611594828260405160240161429892919061579e565b60408051601f198184030181529190526020810180516001600160e01b031663319af33360e01b179052614fd1565b604051811515602482015261107b9060440160408051601f198184030181529190526020810180516001600160e01b03166332458eed60e01b179052614fd1565b61107b8133614fda565b60008281526005602090815260408083206001600160a01b038516845290915290205460ff166115945760008281526005602090815260408083206001600160a01b03851684529091529020805460ff191660011790556143703390565b6001600160a01b0316816001600160a01b0316837f2f8788117e7eff1d82e926ec794901d17c78024a50270940304540a733656f0d60405160405180910390a45050565b60008281526005602090815260408083206001600160a01b038516845290915290205460ff16156115945760008281526005602090815260408083206001600160a01b0385168085529252808320805460ff1916905551339285917ff6391f5c32d9c69d2a47ea670b442974b53935d1edc7fd64eb21e047a839171b9190a45050565b6000826001600160a01b031663570ca7356040518163ffffffff1660e01b8152600401602060405180830381865afa158015614477573d6000803e3d6000fd5b505050506040513d601f19601f8201168201806040525081019061449b91906156ad565b6001600160a01b0316826001600160a01b031614905092915050565b6001600160a01b038084166000908152600e602090815260408083205481516318160ddd60e01b81529151939485949116926318160ddd92600480820193918290030181865afa15801561450f573d6000803e3d6000fd5b505050506040513d601f19601f8201168201806040525081019061453391906156ca565b600d546040516370a0823160e01b81526001600160a01b038881166004830152929350600092909116906370a0823190602401602060405180830381865afa158015614583573d6000803e3d6000fd5b505050506040513d601f19601f820116820180604052508101906145a791906156ca565b905080821180156145c85750670de0b6b3a76400006145c6828461573b565b105b156145d85760009250505061130c565b6145f46145ee6145e8848461573b565b86614f62565b83614f2c565b9695505050505050565b6000601154431161460f5750600090565b600d60009054906101000a90046001600160a01b03166001600160a01b03166318160ddd6040518163ffffffff1660e01b8152600401602060405180830381865afa158015614662573d6000803e3d6000fd5b505050506040513d601f19601f8201168201806040525081019061468691906156ca565b600003614697575043601155600090565b600080600d60009054906101000a90046001600160a01b03166001600160a01b03166318160ddd6040518163ffffffff1660e01b8152600401602060405180830381865afa1580156146ed573d6000803e3d6000fd5b505050506040513d601f19601f8201168201806040525081019061471191906156ca565b9150600060105461472061504f565b61472a91906157c9565b90506000600d60009054906101000a90046001600160a01b03166001600160a01b03166318160ddd6040518163ffffffff1660e01b8152600401602060405180830381865afa158015614781573d6000803e3d6000fd5b505050506040513d601f19601f820116820180604052508101906147a591906156ca565b600a54600b546040516370a0823160e01b81526001600160a01b0391821660048201529116906370a0823190602401602060405180830381865afa1580156147f1573d6000803e3d6000fd5b505050506040513d601f19601f8201168201806040525081019061481591906156ca565b600a60009054906101000a90046001600160a01b03166001600160a01b03166318160ddd6040518163ffffffff1660e01b8152600401602060405180830381865afa158015614868573d6000803e3d6000fd5b505050506040513d601f19601f8201168201806040525081019061488c91906156ca565b614896919061573b565b6148a490633b9aca006157c9565b6148ae9190615728565b905060006149356145ee84600d60009054906101000a90046001600160a01b03166001600160a01b03166318160ddd6040518163ffffffff1660e01b8152600401602060405180830381865afa15801561490c573d6000803e3d6000fd5b505050506040513d601f19601f8201168201806040525081019061493091906156ca565b614f62565b9050600061494e614946838661573b565b601d54614f62565b90508061495b8388615728565b6149659190615728565b43601155600d5460408051630a9ee07f60e31b815290519297506001600160a01b039091169163817e9d31916149c5918a918a9186916354f703f89160048083019260209291908290030181865afa158015612d38573d6000803e3d6000fd5b6040518263ffffffff1660e01b81526004016149e391815260200190565b6020604051808303816000875af1158015614a02573d6000803e3d6000fd5b505050506040513d601f19601f82011682018060405250810190614a269190615690565b50600d54604080516318160ddd60e01b815290517f41a79a497d1457df24c25ab99f22349ae9aef4468429f0a781216e8dcf80c628926001600160a01b0316916318160ddd9160048083019260209291908290030181865afa158015614a90573d6000803e3d6000fd5b505050506040513d601f19601f82011682018060405250810190614ab491906156ca565b604080519182526020820186905281018890526060810187905260800160405180910390a16000614ae5838661573b565b600854909150600090819081906001600160a01b031615614be757614b0c84601b54614f62565b600b546008546040516340c10f1960e01b81526001600160a01b0391821660048201526024810184905292955016906340c10f19906044016020604051808303816000875af1158015614b63573d6000803e3d6000fd5b505050506040513d601f19601f82011682018060405250810190614b879190615690565b5060085460405163027aa37b60e01b8152600481018590526001600160a01b039091169063027aa37b90602401600060405180830381600087803b158015614bce57600080fd5b505af1158015614be2573d6000803e3d6000fd5b505050505b6009546001600160a01b031615614c8157614c0484601c54614f62565b600b546009546040516340c10f1960e01b81526001600160a01b0391821660048201526024810184905292945016906340c10f19906044016020604051808303816000875af1158015614c5b573d6000803e3d6000fd5b505050506040513d601f19601f82011682018060405250810190614c7f9190615690565b505b601d5415614c9e5784905080601e54614c9a9190615728565b601e555b6040805189815260208101889052908101859052606081018490526080810182905233907f0264534168fa7304ade59fc89758924d2288c7dcfd242dd680b668c80449c2829060a00160405180910390a260019a505050505050505050505090565b6001600160a01b03861660009081526017602052604081205481904310801590614d4157506001600160a01b03881660009081526017602052604090205415155b15614d95576001600160a01b0388166000908152601860209081526040808320546014835281842055601982528083205460158352818420805460ff191660ff909216151591909117905560179091528120555b33600090815260146020526040902054614daf8688615728565b925080600003614dbf5750614f10565b84614de257614dce8682614f62565b9150614dda828461573b565b925050614f10565b86600003614df05750614f10565b6040516370a0823160e01b81526001600160a01b038581166004830152600091908a16906370a0823190602401602060405180830381865afa158015614e3a573d6000803e3d6000fd5b505050506040513d601f19601f82011682018060405250810190614e5e91906156ca565b905080600003614e6f575050614f10565b6000614e7b828a614f2c565b9050614e90614e8a8983614f62565b84614f62565b935060006b033b2e3c9fd0803ce80000008214614ecb57614ec685614ec1846b033b2e3c9fd0803ce800000061573b565b614f2c565b614ecd565b845b90506b033b2e3c9fd0803ce80000008214614efb57614eec8183614f62565b614ef69086615728565b614efd565b845b9450614f098187615728565b9550505050505b965096945050505050565b6000612133614f2a8484614f62565b855b600081614f58614f48856b033b2e3c9fd0803ce80000006150a5565b614f536002866157e0565b615115565b61130c91906157e0565b60006b033b2e3c9fd0803ce8000000614f58614f7e85856150a5565b614f5360026b033b2e3c9fd0803ce80000006157e0565b60006301ffc9a760e01b6001600160e01b031983161480610ea95750506001600160e01b03191660009081526004602052604090205460ff1690565b61107b81615173565b60008281526005602090815260408083206001600160a01b038516845290915290205460ff166115945761500d81615194565b6150188360206151a6565b604051602001615029929190615802565b60408051601f198184030181529082905262461bcd60e51b8252610ed491600401615883565b601f5460009060ff161561506257600080fd5b600060115443615072919061573b565b9050601154601354101561508557919050565b601254601354615095919061573b565b61509f908261573b565b91505090565b60008115806150c9575082826150bb81836157c9565b92506150c790836157e0565b145b610ea95760405162461bcd60e51b815260206004820152601460248201527f64732d6d6174682d6d756c2d6f766572666c6f770000000000000000000000006044820152606401610ed4565b6000826151228382615728565b9150811015610ea95760405162461bcd60e51b815260206004820152601460248201527f64732d6d6174682d6164642d6f766572666c6f770000000000000000000000006044820152606401610ed4565b60006a636f6e736f6c652e6c6f679050600080835160208501845afa505050565b6060610ea96001600160a01b03831660145b606060006151b58360026157c9565b6151c0906002615728565b67ffffffffffffffff8111156151d8576151d8615896565b6040519080825280601f01601f191660200182016040528015615202576020820181803683370190505b509050600360fc1b8160008151811061521d5761521d6156e3565b60200101906001600160f81b031916908160001a905350600f60fb1b8160018151811061524c5761524c6156e3565b60200101906001600160f81b031916908160001a90535060006152708460026157c9565b61527b906001615728565b90505b6001811115615300577f303132333435363738396162636465660000000000000000000000000000000085600f16601081106152bc576152bc6156e3565b1a60f81b8282815181106152d2576152d26156e3565b60200101906001600160f81b031916908160001a90535060049490941c936152f9816158ac565b905061527e565b50831561130c5760405162461bcd60e51b815260206004820181905260248201527f537472696e67733a20686578206c656e67746820696e73756666696369656e746044820152606401610ed4565b60006020828403121561536157600080fd5b81356001600160e01b03198116811461130c57600080fd5b60006020828403121561538b57600080fd5b5035919050565b6001600160a01b038116811461107b57600080fd5b6000602082840312156153b957600080fd5b813561130c81615392565b600080604083850312156153d757600080fd5b8235915060208301356153e981615392565b809150509250929050565b60008060006040848603121561540957600080fd5b833561541481615392565b9250602084013567ffffffffffffffff8082111561543157600080fd5b818601915086601f83011261544557600080fd5b81358181111561545457600080fd5b8760208260051b850101111561546957600080fd5b6020830194508093505050509250925092565b60008060006060848603121561549157600080fd5b833561549c81615392565b925060208401356154ac81615392565b929592945050506040919091013590565b801515811461107b57600080fd5b6000806000606084860312156154e057600080fd5b83356154eb81615392565b9250602084013591506040840135615502816154bd565b809150509250925092565b600080600080600080600060e0888a03121561552857600080fd5b873561553381615392565b9650602088013561554381615392565b9550604088013561555381615392565b9450606088013561556381615392565b93506080880135925060a088013561557a81615392565b8092505060c0880135905092959891949750929550565b600080604083850312156155a457600080fd5b82356155af81615392565b946020939093013593505050565b600080604083850312156155d057600080fd5b82356155db81615392565b915060208301356153e981615392565b600080600080600080600060e0888a03121561560657600080fd5b873561561181615392565b9650602088013561562181615392565b96999698505050506040850135946060810135946080820135945060a0820135935060c0909101359150565b60208082526023908201527f41757468436f6e74726f6c3a2043616c6c6572206973206e6f7420616e20616460408201526236b4b760e91b606082015260800190565b6000602082840312156156a257600080fd5b815161130c816154bd565b6000602082840312156156bf57600080fd5b815161130c81615392565b6000602082840312156156dc57600080fd5b5051919050565b634e487b7160e01b600052603260045260246000fd5b634e487b7160e01b600052601160045260246000fd5b600060018201615721576157216156f9565b5060010190565b80820180821115610ea957610ea96156f9565b81810381811115610ea957610ea96156f9565b60005b83811015615769578181015183820152602001615751565b50506000910152565b6000815180845261578a81602086016020860161574e565b601f01601f19169290920160200192915050565b6040815260006157b16040830185615772565b90506001600160a01b03831660208301529392505050565b8082028115828204841417610ea957610ea96156f9565b6000826157fd57634e487b7160e01b600052601260045260246000fd5b500490565b7f416363657373436f6e74726f6c3a206163636f756e742000000000000000000081526000835161583a81601785016020880161574e565b7f206973206d697373696e6720726f6c6520000000000000000000000000000000601791840191820152835161587781602884016020880161574e565b01602801949350505050565b60208152600061130c6020830184615772565b634e487b7160e01b600052604160045260246000fd5b6000816158bb576158bb6156f9565b50600019019056fea164736f6c6343000813000a",
  "devdoc": {
    "details": "SeigManager gives seigniorage to operator and WTON holders. For each commit by operator, operator (or user) will get seigniorage in propotion to the staked (or delegated) amount of WTON. [Tokens] - {tot} tracks total staked or delegated WTON of each Layer2 contract (and depositor?). - {coinages[layer2]} tracks staked or delegated WTON of user or operator to a Layer2 contract. For each commit by operator,  1. increases all layer2's balance of {tot} by (the staked amount of WTON) /     (total supply of TON and WTON) * (num blocks * seigniorage per block).  2. increases all depositors' blanace of {coinages[layer2]} in proportion to the staked amount of WTON,     up to the increased amount in step (1).  3. set the layer2's balance of {committed} as the layer2's {tot} balance. For each stake or delegate with amount of {v} to a Layer2,  1. mint {v} {coinages[layer2]} tokens to the account  2. mint {v} {tot} tokens to the layer2 contract For each unstake or undelegate (or get rewards) with amount of {v} to a Layer2,  1. burn {v} {coinages[layer2]} tokens from the account  2. burn {v + } {tot} tokens from the layer2 contract,   where  = SEIGS * staked ratio of the layer2 * withdrawal ratio of the account     - SEIGS                              = tot total supply - tot total supply at last commit from the layer2     - staked ratio of the layer2     = tot balance of the layer2 / tot total supply     - withdrawal ratio of the account  = amount to withdraw / total supply of coinage",
    "events": {
      "RoleAdminChanged(bytes32,bytes32,bytes32)": {
        "details": "Emitted when `newAdminRole` is set as ``role``'s admin role, replacing `previousAdminRole` `DEFAULT_ADMIN_ROLE` is the starting admin for all roles, despite {RoleAdminChanged} not being emitted signaling this. _Available since v3.1._"
      },
      "RoleGranted(bytes32,address,address)": {
        "details": "Emitted when `account` is granted `role`. `sender` is the account that originated the contract call, an admin role bearer except when using {AccessControl-_setupRole}."
      },
      "RoleRevoked(bytes32,address,address)": {
        "details": "Emitted when `account` is revoked `role`. `sender` is the account that originated the contract call:   - if using `revokeRole`, it is the admin role bearer   - if using `renounceRole`, it is the role bearer (i.e. `account`)"
      }
    },
    "kind": "dev",
    "methods": {
      "addAdmin(address)": {
        "details": "add admin",
        "params": {
          "account": "address to add"
        }
      },
      "deployCoinage(address)": {
        "details": "deploy coinage token for the layer2."
      },
      "getRoleAdmin(bytes32)": {
        "details": "Returns the admin role that controls `role`. See {grantRole} and {revokeRole}. To change a role's admin, use {_setRoleAdmin}."
      },
      "grantRole(bytes32,address)": {
        "details": "Grants `role` to `account`. If `account` had not been already granted `role`, emits a {RoleGranted} event. Requirements: - the caller must have ``role``'s admin role. May emit a {RoleGranted} event."
      },
      "hasRole(bytes32,address)": {
        "details": "Returns `true` if `account` has been granted `role`."
      },
      "isAdmin(address)": {
        "details": "whether admin",
        "params": {
          "account": "address to check"
        }
      },
      "onDeposit(address,address,uint256)": {
        "details": "Callback for a new deposit"
      },
      "onTransfer(address,address,uint256)": {
        "details": "Callback for a token transfer"
      },
      "removeAdmin(address)": {
        "details": "remove admin",
        "params": {
          "account": "address to remove"
        }
      },
      "renounceRole(bytes32,address)": {
        "details": "Revokes `role` from the calling account. Roles are often managed via {grantRole} and {revokeRole}: this function's purpose is to provide a mechanism for accounts to lose their privileges if they are compromised (such as when a trusted device is misplaced). If the calling account had been revoked `role`, emits a {RoleRevoked} event. Requirements: - the caller must be `account`. May emit a {RoleRevoked} event."
      },
      "revokeRole(bytes32,address)": {
        "details": "Revokes `role` from `account`. If `account` had been granted `role`, emits a {RoleRevoked} event. Requirements: - the caller must have ``role``'s admin role. May emit a {RoleRevoked} event."
      },
      "transferAdmin(address)": {
        "details": "transfer admin",
        "params": {
          "newAdmin": "new admin address"
        }
      },
      "unpause()": {
        "details": "Called by a pauser to unpause, returns to normal state."
      },
      "updateSeigniorage()": {
        "details": "Callback for a new commit"
      }
    },
    "version": 1
  },
  "userdoc": {
    "kind": "user",
    "methods": {},
    "version": 1
  },
  "storageLayout": {
    "storage": [
      {
        "astId": 11867,
        "contract": "contracts/stake/managers/SeigManager.sol:SeigManager",
        "label": "pauseProxy",
        "offset": 0,
        "slot": "0",
        "type": "t_bool"
      },
      {
        "astId": 11871,
        "contract": "contracts/stake/managers/SeigManager.sol:SeigManager",
        "label": "proxyImplementation",
        "offset": 0,
        "slot": "1",
        "type": "t_mapping(t_uint256,t_address)"
      },
      {
        "astId": 11875,
        "contract": "contracts/stake/managers/SeigManager.sol:SeigManager",
        "label": "aliveImplementation",
        "offset": 0,
        "slot": "2",
        "type": "t_mapping(t_address,t_bool)"
      },
      {
        "astId": 11879,
        "contract": "contracts/stake/managers/SeigManager.sol:SeigManager",
        "label": "selectorImplementation",
        "offset": 0,
        "slot": "3",
        "type": "t_mapping(t_bytes4,t_address)"
      },
      {
        "astId": 1801,
        "contract": "contracts/stake/managers/SeigManager.sol:SeigManager",
        "label": "_supportedInterfaces",
        "offset": 0,
        "slot": "4",
        "type": "t_mapping(t_bytes4,t_bool)"
      },
      {
        "astId": 24,
        "contract": "contracts/stake/managers/SeigManager.sol:SeigManager",
        "label": "_roles",
        "offset": 0,
        "slot": "5",
        "type": "t_mapping(t_bytes32,t_struct(RoleData)19_storage)"
      },
      {
        "astId": 18561,
        "contract": "contracts/stake/managers/SeigManager.sol:SeigManager",
        "label": "_registry",
        "offset": 0,
        "slot": "6",
        "type": "t_address"
      },
      {
        "astId": 18563,
        "contract": "contracts/stake/managers/SeigManager.sol:SeigManager",
        "label": "_depositManager",
        "offset": 0,
        "slot": "7",
        "type": "t_address"
      },
      {
        "astId": 18565,
        "contract": "contracts/stake/managers/SeigManager.sol:SeigManager",
        "label": "_powerton",
        "offset": 0,
        "slot": "8",
        "type": "t_address"
      },
      {
        "astId": 18567,
        "contract": "contracts/stake/managers/SeigManager.sol:SeigManager",
        "label": "dao",
        "offset": 0,
        "slot": "9",
        "type": "t_address"
      },
      {
        "astId": 18569,
        "contract": "contracts/stake/managers/SeigManager.sol:SeigManager",
        "label": "_ton",
        "offset": 0,
        "slot": "10",
        "type": "t_address"
      },
      {
        "astId": 18571,
        "contract": "contracts/stake/managers/SeigManager.sol:SeigManager",
        "label": "_wton",
        "offset": 0,
        "slot": "11",
        "type": "t_address"
      },
      {
        "astId": 18573,
        "contract": "contracts/stake/managers/SeigManager.sol:SeigManager",
        "label": "factory",
        "offset": 0,
        "slot": "12",
        "type": "t_address"
      },
      {
        "astId": 18576,
        "contract": "contracts/stake/managers/SeigManager.sol:SeigManager",
        "label": "_tot",
        "offset": 0,
        "slot": "13",
        "type": "t_contract(RefactorCoinageSnapshotI)13606"
      },
      {
        "astId": 18581,
        "contract": "contracts/stake/managers/SeigManager.sol:SeigManager",
        "label": "_coinages",
        "offset": 0,
        "slot": "14",
        "type": "t_mapping(t_address,t_contract(RefactorCoinageSnapshotI)13606)"
      },
      {
        "astId": 18585,
        "contract": "contracts/stake/managers/SeigManager.sol:SeigManager",
        "label": "_lastCommitBlock",
        "offset": 0,
        "slot": "15",
        "type": "t_mapping(t_address,t_uint256)"
      },
      {
        "astId": 18587,
        "contract": "contracts/stake/managers/SeigManager.sol:SeigManager",
        "label": "_seigPerBlock",
        "offset": 0,
        "slot": "16",
        "type": "t_uint256"
      },
      {
        "astId": 18589,
        "contract": "contracts/stake/managers/SeigManager.sol:SeigManager",
        "label": "_lastSeigBlock",
        "offset": 0,
        "slot": "17",
        "type": "t_uint256"
      },
      {
        "astId": 18591,
        "contract": "contracts/stake/managers/SeigManager.sol:SeigManager",
        "label": "_pausedBlock",
        "offset": 0,
        "slot": "18",
        "type": "t_uint256"
      },
      {
        "astId": 18593,
        "contract": "contracts/stake/managers/SeigManager.sol:SeigManager",
        "label": "_unpausedBlock",
        "offset": 0,
        "slot": "19",
        "type": "t_uint256"
      },
      {
        "astId": 18597,
        "contract": "contracts/stake/managers/SeigManager.sol:SeigManager",
        "label": "_commissionRates",
        "offset": 0,
        "slot": "20",
        "type": "t_mapping(t_address,t_uint256)"
      },
      {
        "astId": 18601,
        "contract": "contracts/stake/managers/SeigManager.sol:SeigManager",
        "label": "_isCommissionRateNegative",
        "offset": 0,
        "slot": "21",
        "type": "t_mapping(t_address,t_bool)"
      },
      {
        "astId": 18603,
        "contract": "contracts/stake/managers/SeigManager.sol:SeigManager",
        "label": "adjustCommissionDelay",
        "offset": 0,
        "slot": "22",
        "type": "t_uint256"
      },
      {
        "astId": 18607,
        "contract": "contracts/stake/managers/SeigManager.sol:SeigManager",
        "label": "delayedCommissionBlock",
        "offset": 0,
        "slot": "23",
        "type": "t_mapping(t_address,t_uint256)"
      },
      {
        "astId": 18611,
        "contract": "contracts/stake/managers/SeigManager.sol:SeigManager",
        "label": "delayedCommissionRate",
        "offset": 0,
        "slot": "24",
        "type": "t_mapping(t_address,t_uint256)"
      },
      {
        "astId": 18615,
        "contract": "contracts/stake/managers/SeigManager.sol:SeigManager",
        "label": "delayedCommissionRateNegative",
        "offset": 0,
        "slot": "25",
        "type": "t_mapping(t_address,t_bool)"
      },
      {
        "astId": 18617,
        "contract": "contracts/stake/managers/SeigManager.sol:SeigManager",
        "label": "minimumAmount",
        "offset": 0,
        "slot": "26",
        "type": "t_uint256"
      },
      {
        "astId": 18619,
        "contract": "contracts/stake/managers/SeigManager.sol:SeigManager",
        "label": "powerTONSeigRate",
        "offset": 0,
        "slot": "27",
        "type": "t_uint256"
      },
      {
        "astId": 18621,
        "contract": "contracts/stake/managers/SeigManager.sol:SeigManager",
        "label": "daoSeigRate",
        "offset": 0,
        "slot": "28",
        "type": "t_uint256"
      },
      {
        "astId": 18623,
        "contract": "contracts/stake/managers/SeigManager.sol:SeigManager",
        "label": "relativeSeigRate",
        "offset": 0,
        "slot": "29",
        "type": "t_uint256"
      },
      {
        "astId": 18625,
        "contract": "contracts/stake/managers/SeigManager.sol:SeigManager",
        "label": "accRelativeSeig",
        "offset": 0,
        "slot": "30",
        "type": "t_uint256"
      },
      {
        "astId": 18627,
        "contract": "contracts/stake/managers/SeigManager.sol:SeigManager",
        "label": "paused",
        "offset": 0,
        "slot": "31",
        "type": "t_bool"
      }
    ],
    "types": {
      "t_address": {
        "encoding": "inplace",
        "label": "address",
        "numberOfBytes": "20"
      },
      "t_bool": {
        "encoding": "inplace",
        "label": "bool",
        "numberOfBytes": "1"
      },
      "t_bytes32": {
        "encoding": "inplace",
        "label": "bytes32",
        "numberOfBytes": "32"
      },
      "t_bytes4": {
        "encoding": "inplace",
        "label": "bytes4",
        "numberOfBytes": "4"
      },
      "t_contract(RefactorCoinageSnapshotI)13606": {
        "encoding": "inplace",
        "label": "contract RefactorCoinageSnapshotI",
        "numberOfBytes": "20"
      },
      "t_mapping(t_address,t_bool)": {
        "encoding": "mapping",
        "key": "t_address",
        "label": "mapping(address => bool)",
        "numberOfBytes": "32",
        "value": "t_bool"
      },
      "t_mapping(t_address,t_contract(RefactorCoinageSnapshotI)13606)": {
        "encoding": "mapping",
        "key": "t_address",
        "label": "mapping(address => contract RefactorCoinageSnapshotI)",
        "numberOfBytes": "32",
        "value": "t_contract(RefactorCoinageSnapshotI)13606"
      },
      "t_mapping(t_address,t_uint256)": {
        "encoding": "mapping",
        "key": "t_address",
        "label": "mapping(address => uint256)",
        "numberOfBytes": "32",
        "value": "t_uint256"
      },
      "t_mapping(t_bytes32,t_struct(RoleData)19_storage)": {
        "encoding": "mapping",
        "key": "t_bytes32",
        "label": "mapping(bytes32 => struct AccessControl.RoleData)",
        "numberOfBytes": "32",
        "value": "t_struct(RoleData)19_storage"
      },
      "t_mapping(t_bytes4,t_address)": {
        "encoding": "mapping",
        "key": "t_bytes4",
        "label": "mapping(bytes4 => address)",
        "numberOfBytes": "32",
        "value": "t_address"
      },
      "t_mapping(t_bytes4,t_bool)": {
        "encoding": "mapping",
        "key": "t_bytes4",
        "label": "mapping(bytes4 => bool)",
        "numberOfBytes": "32",
        "value": "t_bool"
      },
      "t_mapping(t_uint256,t_address)": {
        "encoding": "mapping",
        "key": "t_uint256",
        "label": "mapping(uint256 => address)",
        "numberOfBytes": "32",
        "value": "t_address"
      },
      "t_struct(RoleData)19_storage": {
        "encoding": "inplace",
        "label": "struct AccessControl.RoleData",
        "members": [
          {
            "astId": 16,
            "contract": "contracts/stake/managers/SeigManager.sol:SeigManager",
            "label": "members",
            "offset": 0,
            "slot": "0",
            "type": "t_mapping(t_address,t_bool)"
          },
          {
            "astId": 18,
            "contract": "contracts/stake/managers/SeigManager.sol:SeigManager",
            "label": "adminRole",
            "offset": 0,
            "slot": "1",
            "type": "t_bytes32"
          }
        ],
        "numberOfBytes": "64"
      },
      "t_uint256": {
        "encoding": "inplace",
        "label": "uint256",
        "numberOfBytes": "32"
      }
    }
  }
}