{
  "_format": "hh-sol-artifact-1",
  "contractName": "ProxyStorage",
  "sourceName": "contracts/proxy/ProxyStorage.sol",
  "abi": [
    {
      "inputs": [
        {
          "internalType": "address",
          "name": "",
          "type": "address"
        }
      ],
      "name": "aliveImplementation",
      "outputs": [
        {
          "internalType": "bool",
          "name": "",
          "type": "bool"
        }
      ],
      "stateMutability": "view",
      "type": "function"
    },
    {
      "inputs": [],
      "name": "pauseProxy",
      "outputs": [
        {
          "internalType": "bool",
          "name": "",
          "type": "bool"
        }
      ],
      "stateMutability": "view",
      "type": "function"
    },
    {
      "inputs": [
        {
          "internalType": "uint256",
          "name": "",
          "type": "uint256"
        }
      ],
      "name": "proxyImplementation",
      "outputs": [
        {
          "internalType": "address",
          "name": "",
          "type": "address"
        }
      ],
      "stateMutability": "view",
      "type": "function"
    },
    {
      "inputs": [
        {
          "internalType": "bytes4",
          "name": "",
          "type": "bytes4"
        }
      ],
      "name": "selectorImplementation",
      "outputs": [
        {
          "internalType": "address",
          "name": "",
          "type": "address"
        }
      ],
      "stateMutability": "view",
      "type": "function"
    }
  ],
  "bytecode": "0x608060405234801561001057600080fd5b50610198806100206000396000f3fe608060405234801561001057600080fd5b506004361061004c5760003560e01c806350d2a27614610051578063550d01a31461009757806363a8fd89146100ca578063b911135f146100d7575b600080fd5b61007a61005f366004610100565b6003602052600090815260409020546001600160a01b031681565b6040516001600160a01b0390911681526020015b60405180910390f35b6100ba6100a5366004610149565b60026020526000908152604090205460ff1681565b604051901515815260200161008e565b6000546100ba9060ff1681565b61007a6100e5366004610172565b6001602052600090815260409020546001600160a01b031681565b60006020828403121561011257600080fd5b81357fffffffff000000000000000000000000000000000000000000000000000000008116811461014257600080fd5b9392505050565b60006020828403121561015b57600080fd5b81356001600160a01b038116811461014257600080fd5b60006020828403121561018457600080fd5b503591905056fea164736f6c6343000813000a",
  "linkReferences": {},
  "deployedLinkReferences": {}
}