{
  "_format": "hh-sol-artifact-1",
  "contractName": "ProxyStorage",
  "sourceName": "contracts/proxy/ProxyStorage.sol",
  "abi": [
    {
      "inputs": [
        {
          "internalType": "address",
          "name": "",
          "type": "address"
        }
      ],
      "name": "aliveImplementation",
      "outputs": [
        {
          "internalType": "bool",
          "name": "",
          "type": "bool"
        }
      ],
      "stateMutability": "view",
      "type": "function"
    },
    {
      "inputs": [],
      "name": "pauseProxy",
      "outputs": [
        {
          "internalType": "bool",
          "name": "",
          "type": "bool"
        }
      ],
      "stateMutability": "view",
      "type": "function"
    },
    {
      "inputs": [
        {
          "internalType": "uint256",
          "name": "",
          "type": "uint256"
        }
      ],
      "name": "proxyImplementation",
      "outputs": [
        {
          "internalType": "address",
          "name": "",
          "type": "address"
        }
      ],
      "stateMutability": "view",
      "type": "function"
    },
    {
      "inputs": [
        {
          "internalType": "bytes4",
          "name": "",
          "type": "bytes4"
        }
      ],
      "name": "selectorImplementation",
      "outputs": [
        {
          "internalType": "address",
          "name": "",
          "type": "address"
        }
      ],
      "stateMutability": "view",
      "type": "function"
    }
  ],
  "bytecode": "0x608080604052346100165761013e908161001c8239f35b600080fdfe60806040818152600436101561001457600080fd5b600091823560e01c90816350d2a276146100ea57508063550d01a3146100a657806363a8fd89146100855763b911135f1461004e57600080fd5b3461008157602036600319011261008157600435825260016020908152918190205490516001600160a01b039091168152f35b5080fd5b503461008157816003193601126100815760ff602092541690519015158152f35b5034610081576020366003190112610081576004356001600160a01b038116908190036100e657818360ff92602095526002855220541690519015158152f35b8280fd5b9050823461012e57602036600319011261012e576004359263ffffffff60e01b84168094036100815792815260036020908152929020546001600160a01b03168152f35b80fdfea164736f6c6343000813000a",
  "linkReferences": {},
  "deployedLinkReferences": {}
}