{
  "_format": "hh-sol-artifact-1",
  "contractName": "AutoCoinageSnapshot",
  "sourceName": "contracts/tokens/AutoCoinageSnapshot.sol",
  "abi": [
    {
      "inputs": [],
      "stateMutability": "nonpayable",
      "type": "constructor"
    },
    {
      "anonymous": false,
      "inputs": [
        {
          "indexed": true,
          "internalType": "bytes32",
          "name": "role",
          "type": "bytes32"
        },
        {
          "indexed": true,
          "internalType": "bytes32",
          "name": "previousAdminRole",
          "type": "bytes32"
        },
        {
          "indexed": true,
          "internalType": "bytes32",
          "name": "newAdminRole",
          "type": "bytes32"
        }
      ],
      "name": "RoleAdminChanged",
      "type": "event"
    },
    {
      "anonymous": false,
      "inputs": [
        {
          "indexed": true,
          "internalType": "bytes32",
          "name": "role",
          "type": "bytes32"
        },
        {
          "indexed": true,
          "internalType": "address",
          "name": "account",
          "type": "address"
        },
        {
          "indexed": true,
          "internalType": "address",
          "name": "sender",
          "type": "address"
        }
      ],
      "name": "RoleGranted",
      "type": "event"
    },
    {
      "anonymous": false,
      "inputs": [
        {
          "indexed": true,
          "internalType": "bytes32",
          "name": "role",
          "type": "bytes32"
        },
        {
          "indexed": true,
          "internalType": "address",
          "name": "account",
          "type": "address"
        },
        {
          "indexed": true,
          "internalType": "address",
          "name": "sender",
          "type": "address"
        }
      ],
      "name": "RoleRevoked",
      "type": "event"
    },
    {
      "anonymous": false,
      "inputs": [
        {
          "indexed": true,
          "internalType": "address",
          "name": "layer2",
          "type": "address"
        },
        {
          "indexed": false,
          "internalType": "uint256",
          "name": "id",
          "type": "uint256"
        }
      ],
      "name": "onSnapshot",
      "type": "event"
    },
    {
      "anonymous": false,
      "inputs": [
        {
          "indexed": true,
          "internalType": "address",
          "name": "layer2",
          "type": "address"
        },
        {
          "indexed": false,
          "internalType": "uint256",
          "name": "id",
          "type": "uint256"
        }
      ],
      "name": "onSyncLayer2",
      "type": "event"
    },
    {
      "anonymous": false,
      "inputs": [
        {
          "indexed": true,
          "internalType": "address",
          "name": "layer2",
          "type": "address"
        },
        {
          "indexed": false,
          "internalType": "address",
          "name": "account",
          "type": "address"
        },
        {
          "indexed": false,
          "internalType": "uint256",
          "name": "id",
          "type": "uint256"
        }
      ],
      "name": "onSyncLayer2Address",
      "type": "event"
    },
    {
      "anonymous": false,
      "inputs": [
        {
          "indexed": true,
          "internalType": "address",
          "name": "layer2",
          "type": "address"
        },
        {
          "indexed": false,
          "internalType": "uint256",
          "name": "id",
          "type": "uint256"
        }
      ],
      "name": "onSyncLayer2Batch",
      "type": "event"
    },
    {
      "inputs": [],
      "name": "ADMIN_ROLE",
      "outputs": [
        {
          "internalType": "bytes32",
          "name": "",
          "type": "bytes32"
        }
      ],
      "stateMutability": "view",
      "type": "function"
    },
    {
      "inputs": [],
      "name": "DEFAULT_ADMIN_ROLE",
      "outputs": [
        {
          "internalType": "bytes32",
          "name": "",
          "type": "bytes32"
        }
      ],
      "stateMutability": "view",
      "type": "function"
    },
    {
      "inputs": [],
      "name": "REFACTOR_BOUNDARY",
      "outputs": [
        {
          "internalType": "uint256",
          "name": "",
          "type": "uint256"
        }
      ],
      "stateMutability": "view",
      "type": "function"
    },
    {
      "inputs": [],
      "name": "REFACTOR_DIVIDER",
      "outputs": [
        {
          "internalType": "uint256",
          "name": "",
          "type": "uint256"
        }
      ],
      "stateMutability": "view",
      "type": "function"
    },
    {
      "inputs": [],
      "name": "SNAPSHOT_ROLE",
      "outputs": [
        {
          "internalType": "bytes32",
          "name": "",
          "type": "bytes32"
        }
      ],
      "stateMutability": "view",
      "type": "function"
    },
    {
      "inputs": [],
      "name": "UPDATE_ROLE",
      "outputs": [
        {
          "internalType": "bytes32",
          "name": "",
          "type": "bytes32"
        }
      ],
      "stateMutability": "view",
      "type": "function"
    },
    {
      "inputs": [
        {
          "internalType": "address",
          "name": "layer2",
          "type": "address"
        },
        {
          "internalType": "address",
          "name": "account",
          "type": "address"
        }
      ],
      "name": "addSync",
      "outputs": [
        {
          "internalType": "uint256",
          "name": "",
          "type": "uint256"
        }
      ],
      "stateMutability": "nonpayable",
      "type": "function"
    },
    {
      "inputs": [
        {
          "internalType": "address",
          "name": "owner",
          "type": "address"
        },
        {
          "internalType": "address",
          "name": "spender",
          "type": "address"
        }
      ],
      "name": "allowance",
      "outputs": [
        {
          "internalType": "uint256",
          "name": "",
          "type": "uint256"
        }
      ],
      "stateMutability": "view",
      "type": "function"
    },
    {
      "inputs": [
        {
          "internalType": "uint256",
          "name": "v",
          "type": "uint256"
        },
        {
          "internalType": "uint256",
          "name": "refactoredCount",
          "type": "uint256"
        },
        {
          "internalType": "uint256",
          "name": "_factor",
          "type": "uint256"
        },
        {
          "internalType": "uint256",
          "name": "refactorCount",
          "type": "uint256"
        }
      ],
      "name": "applyFactor",
      "outputs": [
        {
          "internalType": "uint256",
          "name": "",
          "type": "uint256"
        }
      ],
      "stateMutability": "view",
      "type": "function"
    },
    {
      "inputs": [
        {
          "internalType": "address",
          "name": "account",
          "type": "address"
        }
      ],
      "name": "balanceOf",
      "outputs": [
        {
          "internalType": "uint256",
          "name": "",
          "type": "uint256"
        }
      ],
      "stateMutability": "view",
      "type": "function"
    },
    {
      "inputs": [
        {
          "internalType": "address",
          "name": "layer2",
          "type": "address"
        },
        {
          "internalType": "address",
          "name": "account",
          "type": "address"
        }
      ],
      "name": "balanceOf",
      "outputs": [
        {
          "internalType": "uint256",
          "name": "",
          "type": "uint256"
        }
      ],
      "stateMutability": "view",
      "type": "function"
    },
    {
      "inputs": [
        {
          "internalType": "address",
          "name": "account",
          "type": "address"
        },
        {
          "internalType": "uint256",
          "name": "snashotAggregatorId",
          "type": "uint256"
        }
      ],
      "name": "balanceOfAt",
      "outputs": [
        {
          "internalType": "uint256",
          "name": "accountStaked",
          "type": "uint256"
        }
      ],
      "stateMutability": "view",
      "type": "function"
    },
    {
      "inputs": [
        {
          "internalType": "address",
          "name": "layer2",
          "type": "address"
        },
        {
          "internalType": "address",
          "name": "account",
          "type": "address"
        },
        {
          "internalType": "uint256",
          "name": "snapshotId",
          "type": "uint256"
        }
      ],
      "name": "balanceOfAt",
      "outputs": [
        {
          "internalType": "uint256",
          "name": "",
          "type": "uint256"
        }
      ],
      "stateMutability": "view",
      "type": "function"
    },
    {
      "inputs": [
        {
          "internalType": "address",
          "name": "layer2",
          "type": "address"
        },
        {
          "internalType": "address",
          "name": "account",
          "type": "address"
        }
      ],
      "name": "currentAccountBalanceSnapshots",
      "outputs": [
        {
          "internalType": "bool",
          "name": "snapshotted",
          "type": "bool"
        },
        {
          "internalType": "uint256",
          "name": "snapShotBalance",
          "type": "uint256"
        },
        {
          "internalType": "uint256",
          "name": "snapShotRefactoredCount",
          "type": "uint256"
        },
        {
          "internalType": "uint256",
          "name": "snapShotRemain",
          "type": "uint256"
        },
        {
          "internalType": "uint256",
          "name": "currentBalanceOf",
          "type": "uint256"
        },
        {
          "internalType": "uint256",
          "name": "curBalances",
          "type": "uint256"
        },
        {
          "internalType": "uint256",
          "name": "curRefactoredCounts",
          "type": "uint256"
        },
        {
          "internalType": "uint256",
          "name": "curRemains",
          "type": "uint256"
        }
      ],
      "stateMutability": "view",
      "type": "function"
    },
    {
      "inputs": [
        {
          "internalType": "address",
          "name": "layer2",
          "type": "address"
        }
      ],
      "name": "currentFactorSnapshots",
      "outputs": [
        {
          "internalType": "bool",
          "name": "snapshotted",
          "type": "bool"
        },
        {
          "internalType": "uint256",
          "name": "snapShotFactor",
          "type": "uint256"
        },
        {
          "internalType": "uint256",
          "name": "snapShotRefactorCount",
          "type": "uint256"
        },
        {
          "internalType": "uint256",
          "name": "curFactorValue",
          "type": "uint256"
        },
        {
          "internalType": "uint256",
          "name": "curFactor",
          "type": "uint256"
        },
        {
          "internalType": "uint256",
          "name": "curRefactorCount",
          "type": "uint256"
        }
      ],
      "stateMutability": "view",
      "type": "function"
    },
    {
      "inputs": [
        {
          "internalType": "address",
          "name": "",
          "type": "address"
        }
      ],
      "name": "currentLayer2SnapshotId",
      "outputs": [
        {
          "internalType": "uint256",
          "name": "",
          "type": "uint256"
        }
      ],
      "stateMutability": "view",
      "type": "function"
    },
    {
      "inputs": [
        {
          "internalType": "address",
          "name": "layer2",
          "type": "address"
        }
      ],
      "name": "currentTotalSupplySnapshots",
      "outputs": [
        {
          "internalType": "bool",
          "name": "snapshotted",
          "type": "bool"
        },
        {
          "internalType": "uint256",
          "name": "snapShotBalance",
          "type": "uint256"
        },
        {
          "internalType": "uint256",
          "name": "snapShotRefactoredCount",
          "type": "uint256"
        },
        {
          "internalType": "uint256",
          "name": "snapShotRemain",
          "type": "uint256"
        },
        {
          "internalType": "uint256",
          "name": "currentTotalSupply",
          "type": "uint256"
        },
        {
          "internalType": "uint256",
          "name": "curBalances",
          "type": "uint256"
        },
        {
          "internalType": "uint256",
          "name": "curRefactoredCounts",
          "type": "uint256"
        },
        {
          "internalType": "uint256",
          "name": "curRemains",
          "type": "uint256"
        }
      ],
      "stateMutability": "view",
      "type": "function"
    },
    {
      "inputs": [],
      "name": "decimals",
      "outputs": [
        {
          "internalType": "uint256",
          "name": "",
          "type": "uint256"
        }
      ],
      "stateMutability": "view",
      "type": "function"
    },
    {
      "inputs": [
        {
          "internalType": "address",
          "name": "",
          "type": "address"
        }
      ],
      "name": "existAccounts",
      "outputs": [
        {
          "internalType": "bool",
          "name": "",
          "type": "bool"
        }
      ],
      "stateMutability": "view",
      "type": "function"
    },
    {
      "inputs": [
        {
          "internalType": "address",
          "name": "",
          "type": "address"
        }
      ],
      "name": "existLayer2s",
      "outputs": [
        {
          "internalType": "bool",
          "name": "",
          "type": "bool"
        }
      ],
      "stateMutability": "view",
      "type": "function"
    },
    {
      "inputs": [
        {
          "internalType": "uint256",
          "name": "id",
          "type": "uint256"
        },
        {
          "internalType": "address",
          "name": "layer2",
          "type": "address"
        },
        {
          "internalType": "address",
          "name": "account",
          "type": "address"
        }
      ],
      "name": "getAccountBalanceSnapsByIds",
      "outputs": [
        {
          "internalType": "uint256",
          "name": "",
          "type": "uint256"
        },
        {
          "internalType": "uint256",
          "name": "",
          "type": "uint256"
        },
        {
          "internalType": "uint256",
          "name": "",
          "type": "uint256"
        },
        {
          "internalType": "uint256",
          "name": "",
          "type": "uint256"
        }
      ],
      "stateMutability": "view",
      "type": "function"
    },
    {
      "inputs": [
        {
          "internalType": "uint256",
          "name": "snapshotId",
          "type": "uint256"
        },
        {
          "internalType": "address",
          "name": "layer2",
          "type": "address"
        },
        {
          "internalType": "address",
          "name": "account",
          "type": "address"
        }
      ],
      "name": "getAccountBalanceSnapsBySnapshotId",
      "outputs": [
        {
          "internalType": "uint256",
          "name": "",
          "type": "uint256"
        },
        {
          "internalType": "uint256",
          "name": "",
          "type": "uint256"
        },
        {
          "internalType": "uint256",
          "name": "",
          "type": "uint256"
        },
        {
          "internalType": "uint256",
          "name": "",
          "type": "uint256"
        }
      ],
      "stateMutability": "view",
      "type": "function"
    },
    {
      "inputs": [
        {
          "internalType": "address",
          "name": "account",
          "type": "address"
        }
      ],
      "name": "getBalanceOfInTokamak",
      "outputs": [
        {
          "internalType": "uint256",
          "name": "accountAmount",
          "type": "uint256"
        }
      ],
      "stateMutability": "view",
      "type": "function"
    },
    {
      "inputs": [
        {
          "internalType": "address",
          "name": "layer2",
          "type": "address"
        }
      ],
      "name": "getCurrentLayer2SnapshotId",
      "outputs": [
        {
          "internalType": "uint256",
          "name": "",
          "type": "uint256"
        }
      ],
      "stateMutability": "view",
      "type": "function"
    },
    {
      "inputs": [
        {
          "internalType": "address",
          "name": "layer2",
          "type": "address"
        },
        {
          "internalType": "address",
          "name": "user",
          "type": "address"
        }
      ],
      "name": "getLayer2BalanceOfInTokamak",
      "outputs": [
        {
          "internalType": "uint256",
          "name": "balanceOfLayer2Amount",
          "type": "uint256"
        },
        {
          "internalType": "uint256",
          "name": "balance",
          "type": "uint256"
        },
        {
          "internalType": "uint256",
          "name": "refactoredCount",
          "type": "uint256"
        },
        {
          "internalType": "uint256",
          "name": "remain",
          "type": "uint256"
        }
      ],
      "stateMutability": "view",
      "type": "function"
    },
    {
      "inputs": [
        {
          "internalType": "address",
          "name": "layer2",
          "type": "address"
        }
      ],
      "name": "getLayer2TotalSupplyInTokamak",
      "outputs": [
        {
          "internalType": "uint256",
          "name": "totalSupplyLayer2",
          "type": "uint256"
        },
        {
          "internalType": "uint256",
          "name": "balance",
          "type": "uint256"
        },
        {
          "internalType": "uint256",
          "name": "refactoredCount",
          "type": "uint256"
        },
        {
          "internalType": "uint256",
          "name": "remain",
          "type": "uint256"
        }
      ],
      "stateMutability": "view",
      "type": "function"
    },
    {
      "inputs": [
        {
          "internalType": "bytes32",
          "name": "role",
          "type": "bytes32"
        }
      ],
      "name": "getRoleAdmin",
      "outputs": [
        {
          "internalType": "bytes32",
          "name": "",
          "type": "bytes32"
        }
      ],
      "stateMutability": "view",
      "type": "function"
    },
    {
      "inputs": [],
      "name": "getTotalStakedInTokamak",
      "outputs": [
        {
          "internalType": "uint256",
          "name": "accountAmount",
          "type": "uint256"
        }
      ],
      "stateMutability": "view",
      "type": "function"
    },
    {
      "inputs": [
        {
          "internalType": "bytes32",
          "name": "role",
          "type": "bytes32"
        },
        {
          "internalType": "address",
          "name": "account",
          "type": "address"
        }
      ],
      "name": "grantRole",
      "outputs": [],
      "stateMutability": "nonpayable",
      "type": "function"
    },
    {
      "inputs": [
        {
          "internalType": "bytes32",
          "name": "role",
          "type": "bytes32"
        },
        {
          "internalType": "address",
          "name": "account",
          "type": "address"
        }
      ],
      "name": "hasRole",
      "outputs": [
        {
          "internalType": "bool",
          "name": "",
          "type": "bool"
        }
      ],
      "stateMutability": "view",
      "type": "function"
    },
    {
      "inputs": [
        {
          "internalType": "address",
          "name": "layer2",
          "type": "address"
        }
      ],
      "name": "lastSnapShotIndex",
      "outputs": [
        {
          "internalType": "uint256",
          "name": "",
          "type": "uint256"
        }
      ],
      "stateMutability": "view",
      "type": "function"
    },
    {
      "inputs": [],
      "name": "layer2Registry",
      "outputs": [
        {
          "internalType": "address",
          "name": "",
          "type": "address"
        }
      ],
      "stateMutability": "view",
      "type": "function"
    },
    {
      "inputs": [
        {
          "internalType": "uint256",
          "name": "",
          "type": "uint256"
        }
      ],
      "name": "layer2s",
      "outputs": [
        {
          "internalType": "address",
          "name": "",
          "type": "address"
        }
      ],
      "stateMutability": "view",
      "type": "function"
    },
    {
      "inputs": [],
      "name": "migratedL2",
      "outputs": [
        {
          "internalType": "bool",
          "name": "",
          "type": "bool"
        }
      ],
      "stateMutability": "view",
      "type": "function"
    },
    {
      "inputs": [],
      "name": "name",
      "outputs": [
        {
          "internalType": "string",
          "name": "",
          "type": "string"
        }
      ],
      "stateMutability": "view",
      "type": "function"
    },
    {
      "inputs": [],
      "name": "pauseProxy",
      "outputs": [
        {
          "internalType": "bool",
          "name": "",
          "type": "bool"
        }
      ],
      "stateMutability": "view",
      "type": "function"
    },
    {
      "inputs": [
        {
          "internalType": "bytes32",
          "name": "role",
          "type": "bytes32"
        },
        {
          "internalType": "address",
          "name": "account",
          "type": "address"
        }
      ],
      "name": "renounceRole",
      "outputs": [],
      "stateMutability": "nonpayable",
      "type": "function"
    },
    {
      "inputs": [
        {
          "internalType": "bytes32",
          "name": "role",
          "type": "bytes32"
        },
        {
          "internalType": "address",
          "name": "account",
          "type": "address"
        }
      ],
      "name": "revokeRole",
      "outputs": [],
      "stateMutability": "nonpayable",
      "type": "function"
    },
    {
      "inputs": [],
      "name": "seigManager",
      "outputs": [
        {
          "internalType": "address",
          "name": "",
          "type": "address"
        }
      ],
      "stateMutability": "view",
      "type": "function"
    },
    {
      "inputs": [
        {
          "internalType": "address",
          "name": "_seigManager",
          "type": "address"
        },
        {
          "internalType": "address",
          "name": "_layer2Registry",
          "type": "address"
        }
      ],
      "name": "setAddress",
      "outputs": [],
      "stateMutability": "nonpayable",
      "type": "function"
    },
    {
      "inputs": [
        {
          "internalType": "string",
          "name": "name_",
          "type": "string"
        },
        {
          "internalType": "string",
          "name": "symbol_",
          "type": "string"
        },
        {
          "internalType": "uint256",
          "name": "decimals_",
          "type": "uint256"
        }
      ],
      "name": "setNameSymbolDecimals",
      "outputs": [],
      "stateMutability": "nonpayable",
      "type": "function"
    },
    {
      "inputs": [
        {
          "internalType": "address",
          "name": "layer2",
          "type": "address"
        }
      ],
      "name": "snapshot",
      "outputs": [
        {
          "internalType": "uint256",
          "name": "",
          "type": "uint256"
        }
      ],
      "stateMutability": "nonpayable",
      "type": "function"
    },
    {
      "inputs": [],
      "name": "snapshot",
      "outputs": [
        {
          "internalType": "uint256",
          "name": "",
          "type": "uint256"
        }
      ],
      "stateMutability": "nonpayable",
      "type": "function"
    },
    {
      "inputs": [],
      "name": "snashotAggregatorTotal",
      "outputs": [
        {
          "internalType": "uint256",
          "name": "",
          "type": "uint256"
        }
      ],
      "stateMutability": "view",
      "type": "function"
    },
    {
      "inputs": [
        {
          "internalType": "address",
          "name": "account",
          "type": "address"
        },
        {
          "internalType": "uint256",
          "name": "snashotAggregatorId",
          "type": "uint256"
        }
      ],
      "name": "stakedAmountWithSnashotAggregator",
      "outputs": [
        {
          "internalType": "uint256",
          "name": "accountStaked",
          "type": "uint256"
        },
        {
          "internalType": "uint256",
          "name": "totalStaked",
          "type": "uint256"
        }
      ],
      "stateMutability": "view",
      "type": "function"
    },
    {
      "inputs": [
        {
          "internalType": "bytes4",
          "name": "interfaceId",
          "type": "bytes4"
        }
      ],
      "name": "supportsInterface",
      "outputs": [
        {
          "internalType": "bool",
          "name": "",
          "type": "bool"
        }
      ],
      "stateMutability": "view",
      "type": "function"
    },
    {
      "inputs": [],
      "name": "symbol",
      "outputs": [
        {
          "internalType": "string",
          "name": "",
          "type": "string"
        }
      ],
      "stateMutability": "view",
      "type": "function"
    },
    {
      "inputs": [
        {
          "internalType": "address",
          "name": "layer2",
          "type": "address"
        },
        {
          "internalType": "address",
          "name": "account",
          "type": "address"
        }
      ],
      "name": "sync",
      "outputs": [
        {
          "internalType": "uint256",
          "name": "",
          "type": "uint256"
        }
      ],
      "stateMutability": "nonpayable",
      "type": "function"
    },
    {
      "inputs": [
        {
          "internalType": "address",
          "name": "layer2",
          "type": "address"
        }
      ],
      "name": "sync",
      "outputs": [
        {
          "internalType": "uint256",
          "name": "",
          "type": "uint256"
        }
      ],
      "stateMutability": "nonpayable",
      "type": "function"
    },
    {
      "inputs": [
        {
          "internalType": "address",
          "name": "layer2",
          "type": "address"
        },
        {
          "internalType": "address[]",
          "name": "accounts",
          "type": "address[]"
        },
        {
          "internalType": "uint256[]",
          "name": "balances",
          "type": "uint256[]"
        },
        {
          "internalType": "uint256[]",
          "name": "refactoredCounts",
          "type": "uint256[]"
        },
        {
          "internalType": "uint256[]",
          "name": "remains",
          "type": "uint256[]"
        },
        {
          "internalType": "uint256[3]",
          "name": "layerTotal",
          "type": "uint256[3]"
        },
        {
          "internalType": "uint256[2]",
          "name": "layerFactor",
          "type": "uint256[2]"
        }
      ],
      "name": "syncBactchOffline",
      "outputs": [
        {
          "internalType": "bool",
          "name": "",
          "type": "bool"
        }
      ],
      "stateMutability": "nonpayable",
      "type": "function"
    },
    {
      "inputs": [
        {
          "internalType": "address",
          "name": "layer2",
          "type": "address"
        },
        {
          "internalType": "address[]",
          "name": "accounts",
          "type": "address[]"
        }
      ],
      "name": "syncBatch",
      "outputs": [
        {
          "internalType": "uint256",
          "name": "",
          "type": "uint256"
        }
      ],
      "stateMutability": "nonpayable",
      "type": "function"
    },
    {
      "inputs": [],
      "name": "totalSupply",
      "outputs": [
        {
          "internalType": "uint256",
          "name": "",
          "type": "uint256"
        }
      ],
      "stateMutability": "view",
      "type": "function"
    },
    {
      "inputs": [
        {
          "internalType": "address",
          "name": "layer2",
          "type": "address"
        }
      ],
      "name": "totalSupply",
      "outputs": [
        {
          "internalType": "uint256",
          "name": "",
          "type": "uint256"
        }
      ],
      "stateMutability": "view",
      "type": "function"
    },
    {
      "inputs": [
        {
          "internalType": "address",
          "name": "layer2",
          "type": "address"
        },
        {
          "internalType": "uint256",
          "name": "snapshotId",
          "type": "uint256"
        }
      ],
      "name": "totalSupplyAt",
      "outputs": [
        {
          "internalType": "uint256",
          "name": "",
          "type": "uint256"
        }
      ],
      "stateMutability": "view",
      "type": "function"
    },
    {
      "inputs": [
        {
          "internalType": "uint256",
          "name": "snashotAggregatorId",
          "type": "uint256"
        }
      ],
      "name": "totalSupplyAt",
      "outputs": [
        {
          "internalType": "uint256",
          "name": "totalStaked",
          "type": "uint256"
        }
      ],
      "stateMutability": "view",
      "type": "function"
    },
    {
      "inputs": [
        {
          "internalType": "address",
          "name": "recipient",
          "type": "address"
        },
        {
          "internalType": "uint256",
          "name": "amount",
          "type": "uint256"
        }
      ],
      "name": "transfer",
      "outputs": [
        {
          "internalType": "bool",
          "name": "",
          "type": "bool"
        }
      ],
      "stateMutability": "nonpayable",
      "type": "function"
    },
    {
      "inputs": [
        {
          "internalType": "address",
          "name": "sender",
          "type": "address"
        },
        {
          "internalType": "address",
          "name": "recipient",
          "type": "address"
        },
        {
          "internalType": "uint256",
          "name": "amount",
          "type": "uint256"
        }
      ],
      "name": "transferFrom",
      "outputs": [
        {
          "internalType": "bool",
          "name": "",
          "type": "bool"
        }
      ],
      "stateMutability": "nonpayable",
      "type": "function"
    },
    {
      "inputs": [
        {
          "internalType": "uint256",
          "name": "",
          "type": "uint256"
        }
      ],
      "name": "uniqAccounts",
      "outputs": [
        {
          "internalType": "address",
          "name": "",
          "type": "address"
        }
      ],
      "stateMutability": "view",
      "type": "function"
    }
  ],
  "bytecode": "0x60806040526b204fce5e3e25026110000000600155600280553480156200002557600080fd5b5062000033600033620000bd565b6200005f7fa49807205ce4d355092ef5a8a18f56e8913cf4a201fbe287825b095693c2177533620000bd565b6200008b7f3ee192ac25847473237ced4bba57f848e1fd794930ff85b4282329058096720533620000bd565b620000b77f5fdbd35e8da83ee755d5e62a539e5ed7f47126abede0b8b10f9ea43dc6eed07f33620000bd565b6200016d565b620000c98282620000cd565b5050565b6000828152602081815260408083206001600160a01b038516845290915290205460ff16620000c9576000828152602081815260408083206001600160a01b03851684529091529020805460ff19166001179055620001293390565b6001600160a01b0316816001600160a01b0316837f2f8788117e7eff1d82e926ec794901d17c78024a50270940304540a733656f0d60405160405180910390a45050565b614fcf806200017d6000396000f3fe608060405234801561001057600080fd5b506004361061030b5760003560e01c80636fb7f5581161019e578063a9059cbb116100ef578063cf2a239c1161009d578063cf2a239c146107aa578063d0e0707b146107bd578063d547741f146107d0578063dd62ed3e146107e3578063e4dc2aa4146107f1578063ec477a9014610804578063f59e8bb914610817578063f7888aec1461081f57600080fd5b8063a9059cbb14610736578063ac16cd231461074c578063adc7e4f11461075f578063addf909014610772578063b7c246d71461077b578063bc5f878914610784578063bfe64c661461079757600080fd5b806391d148541161014c57806391d14854146106d357806395d89b41146106e65780639711715a146106ee578063981b24d0146106f6578063a1f5f50e14610709578063a217fddf1461071b578063a58411941461072357600080fd5b80636fb7f558146106095780637028e2cd1461061c57806370a082311461064357806373ba69881461065657806375b238fc146106985780637ae39263146106ad57806382799e37146106c057600080fd5b80632bd1f9481161026357806336568abe1161021157806336568abe146105675780633b58524d1461057a578063407faa961461058d5780634ee2cd7e146105a05780635cd3b6d7146105b357806363a8fd89146105d6578063657db629146105e35780636ec0b7f2146105f657600080fd5b80632bd1f948146104ca5780632d119773146104dd5780632f2ff15d146105055780632f5eddcb146105185780633041949b1461052b57806330b90e991461053e578063313ce5671461055e57600080fd5b80630d55c7ac116102c05780630d55c7ac1461040157806318160ddd146104515780631e3a0ddd146104595780631e4d15f71461046c57806323b872dd14610481578063248a9ca31461049457806326512160146104b757600080fd5b806249784614610310578062d87a9c1461034a578062f08e461461035357806301ffc9a714610373578063043cd82f1461039657806306fdde03146103c95780630bd4c339146103de575b600080fd5b6103377f3ee192ac25847473237ced4bba57f848e1fd794930ff85b4282329058096720581565b6040519081526020015b60405180910390f35b61033760025481565b61033761036136600461492e565b60086020526000908152604090205481565b610386610381366004614b6f565b610832565b6040519015158152602001610341565b6103a96103a4366004614966565b610869565b604080519485526020850193909352918301526060820152608001610341565b6103d1610a3c565b6040516103419190614d67565b6103866103ec36600461492e565b60166020526000908152604090205460ff1681565b61041461040f366004614966565b610aca565b6040805198151589526020890197909752958701949094526060860192909252608085015260a084015260c083015260e082015261010001610341565b610337610d19565b61033761046736600461492e565b610e54565b61047f61047a366004614b97565b610e6f565b005b61038661048f36600461499e565b610eb8565b6103376104a2366004614b33565b60009081526020819052604090206001015490565b6103376104c536600461492e565b610ec2565b6103376104d83660046149de565b610f01565b6104f06104eb366004614b08565b61146b565b60408051928352602083019190915201610341565b61047f610513366004614b4b565b61165c565b61041461052636600461492e565b611687565b610337610539366004614966565b61188b565b61055161054c366004614b33565b611d1d565b6040516103419190614d53565b61033760125481565b61047f610575366004614b4b565b611d47565b61047f610588366004614966565b611dc5565b6103a961059b366004614c72565b611e68565b6103376105ae366004614b08565b612186565b6103866105c136600461492e565b60146020526000908152604090205460ff1681565b600c546103869060ff1681565b6103866105f1366004614a2b565b6122f6565b61033761060436600461492e565b612513565b600354610551906001600160a01b031681565b6103377f5fdbd35e8da83ee755d5e62a539e5ed7f47126abede0b8b10f9ea43dc6eed07f81565b61033761065136600461492e565b61275b565b61066961066436600461492e565b612913565b6040805196151587526020870195909552938501929092526060840152608083015260a082015260c001610341565b610337600080516020614f7a83398151915281565b6105516106bb366004614b33565b612b4d565b6103376106ce366004614b08565b612b5d565b6103866106e1366004614b4b565b612be3565b6103d1612c0c565b610337612c19565b610337610704366004614b33565b6130ea565b600c5461038690610100900460ff1681565b610337600081565b61033761073136600461492e565b613229565b610386610744366004614b08565b600092915050565b61033761075a366004614cb3565b613539565b61033761076d366004614966565b61358c565b610337600b5481565b61033760015481565b6103a961079236600461492e565b613598565b6103376107a536600461499e565b61374c565b600454610551906001600160a01b031681565b6103376107cb36600461492e565b6137d3565b61047f6107de366004614b4b565b61381d565b610337610744366004614966565b6103376107ff36600461492e565b613843565b6103a9610812366004614c72565b613852565b6103376139a0565b61033761082d366004614966565b613bdb565b60006001600160e01b03198216637965db0b60e01b148061086357506301ffc9a760e01b6001600160e01b03198316145b92915050565b600354604051634c063c1960e01b815260009182918291829182916001600160a01b031690634c063c19906108a2908a90600401614d53565b60206040518083038186803b1580156108ba57600080fd5b505afa1580156108ce573d6000803e3d6000fd5b505050506040513d601f19601f820116820180604052508101906108f2919061494a565b90506001600160a01b0381166109235760405162461bcd60e51b815260040161091a90614d9a565b60405180910390fd5b6040516370a0823160e01b81526001600160a01b038216906370a082319061094f908990600401614d53565b60206040518083038186803b15801561096757600080fd5b505afa15801561097b573d6000803e3d6000fd5b505050506040513d601f19601f8201168201806040525081019061099f9190614c5a565b94506000816001600160a01b03166327e235e3886040518263ffffffff1660e01b81526004016109cf9190614d53565b60606040518083038186803b1580156109e757600080fd5b505afa1580156109fb573d6000803e3d6000fd5b505050506040513d601f19601f82011682018060405250810190610a1f9190614c00565b80516020820151604090920151979a909950909750945050505050565b60108054610a4990614ec5565b80601f0160208091040260200160405190810160405280929190818152602001828054610a7590614ec5565b8015610ac25780601f10610a9757610100808354040283529160200191610ac2565b820191906000526020600020905b815481529060010190602001808311610aa557829003601f168201915b505050505081565b600354604051634c063c1960e01b8152600091829182918291829182918291829182916001600160a01b031690634c063c1990610b0b908e90600401614d53565b60206040518083038186803b158015610b2357600080fd5b505afa158015610b37573d6000803e3d6000fd5b505050506040513d601f19601f82011682018060405250810190610b5b919061494a565b90506001600160a01b038116610b835760405162461bcd60e51b815260040161091a90614d9a565b6040516370a0823160e01b81526001600160a01b038216906370a0823190610baf908d90600401614d53565b60206040518083038186803b158015610bc757600080fd5b505afa158015610bdb573d6000803e3d6000fd5b505050506040513d601f19601f82011682018060405250810190610bff9190614c5a565b94506000816001600160a01b03166327e235e38c6040518263ffffffff1660e01b8152600401610c2f9190614d53565b60606040518083038186803b158015610c4757600080fd5b505afa158015610c5b573d6000803e3d6000fd5b505050506040513d601f19601f82011682018060405250810190610c7f9190614c00565b8051602082015160408301519197509550935090506000610c9f8d610e54565b90506000600560008f6001600160a01b03166001600160a01b0316815260200190815260200160002060008e6001600160a01b03166001600160a01b031681526020019081526020016000209050610cf88e8383613beb565b809c50819d50829e50839f5050505050505050509295985092959890939650565b6004805460408051630d42d49760e01b8152905160009384936001600160a01b031692630d42d4979281830192602092829003018186803b158015610d5d57600080fd5b505afa158015610d71573d6000803e3d6000fd5b505050506040513d601f19601f82011682018060405250810190610d959190614c5a565b90506000805b82811015610e4d576004805460405163b7ffb17960e01b81529182018390526000916001600160a01b039091169063b7ffb1799060240160206040518083038186803b158015610dea57600080fd5b505afa158015610dfe573d6000803e3d6000fd5b505050506040513d601f19601f82011682018060405250810190610e22919061494a565b9050610e2d81613843565b610e379084614e14565b9250508080610e4590614efa565b915050610d9b565b5092915050565b6001600160a01b031660009081526008602052604090205490565b600080516020614f7a833981519152610e888133613d78565b8351610e9b906010906020870190614670565b508251610eaf906011906020860190614670565b50506012555050565b60005b9392505050565b60007f5fdbd35e8da83ee755d5e62a539e5ed7f47126abede0b8b10f9ea43dc6eed07f610eef8133613d78565b610ef883613ddc565b91505b50919050565b600354604051634c063c1960e01b815260009182916001600160a01b0390911690634c063c1990610f36908790600401614d53565b60206040518083038186803b158015610f4e57600080fd5b505afa158015610f62573d6000803e3d6000fd5b505050506040513d601f19601f82011682018060405250810190610f86919061494a565b90506001600160a01b038116610fae5760405162461bcd60e51b815260040161091a90614d9a565b6000835111610fef5760405162461bcd60e51b815260206004820152600d60248201526c7a65726f206163636f756e747360981b604482015260640161091a565b6000610ffa85613ddc565b905060005b8451811015611212576000836001600160a01b03166327e235e387848151811061103957634e487b7160e01b600052603260045260246000fd5b60200260200101516040518263ffffffff1660e01b815260040161105d9190614d53565b60606040518083038186803b15801561107557600080fd5b505afa158015611089573d6000803e3d6000fd5b505050506040513d601f19601f820116820180604052508101906110ad9190614c00565b90506110ef878784815181106110d357634e487b7160e01b600052603260045260246000fd5b6020026020010151836000015184602001518560400151613e87565b6016600087848151811061111357634e487b7160e01b600052603260045260246000fd5b6020908102919091018101516001600160a01b031682528101919091526040016000205460ff166112015760016016600088858151811061116457634e487b7160e01b600052603260045260246000fd5b60200260200101516001600160a01b03166001600160a01b0316815260200190815260200160002060006101000a81548160ff02191690831515021790555060158683815181106111c557634e487b7160e01b600052603260045260246000fd5b60209081029190910181015182546001810184556000938452919092200180546001600160a01b0319166001600160a01b039092169190911790555b5061120b81614efa565b9050610fff565b506000826001600160a01b0316633eaaf86b6040518163ffffffff1660e01b815260040160606040518083038186803b15801561124e57600080fd5b505afa158015611262573d6000803e3d6000fd5b505050506040513d601f19601f820116820180604052508101906112869190614c00565b90506000816000015190506000826020015190506000836040015190506000866001600160a01b0316636d1506116040518163ffffffff1660e01b815260040160206040518083038186803b1580156112de57600080fd5b505afa1580156112f2573d6000803e3d6000fd5b505050506040513d601f19601f820116820180604052508101906113169190614c5a565b90506000876001600160a01b031663a7ac30b06040518163ffffffff1660e01b815260040160206040518083038186803b15801561135357600080fd5b505afa158015611367573d6000803e3d6000fd5b505050506040513d601f19601f8201168201806040525081019061138b9190614c5a565b6001600160a01b038c1660009081526014602052604090205490915060ff16611402576001600160a01b038b166000818152601460205260408120805460ff19166001908117909155601380549182018155909152600080516020614f5a8339815191520180546001600160a01b03191690911790555b61140e8b868686613ec1565b6114198b8383613eed565b8a6001600160a01b03167f55c675196fb2f6a62aefac4a6cd8dce7b495b583a899d94e3d8943d1412979938860405161145491815260200190565b60405180910390a250949998505050505050505050565b600b5460009081908311611655576000838152600a602090815260408083208151815460609481028201850184529281018381529093919284928491908401828280156114e157602002820191906000526020600020905b81546001600160a01b031681526001909101906020018083116114c3575b505050505081526020016001820180548060200260200160405190810160405280929190818152602001828054801561153957602002820191906000526020600020905b815481526020019060010190808311611525575b5050509190925250508151519192505061155a576000809250925050611655565b60005b815151811015611652576115c88260000151828151811061158e57634e487b7160e01b600052603260045260246000fd5b602002602001015187846020015184815181106115bb57634e487b7160e01b600052603260045260246000fd5b602002602001015161374c565b6115d29085614e14565b9350611634826000015182815181106115fb57634e487b7160e01b600052603260045260246000fd5b60200260200101518360200151838151811061162757634e487b7160e01b600052603260045260246000fd5b6020026020010151612b5d565b61163e9084614e14565b92508061164a81614efa565b91505061155d565b50505b9250929050565b6000828152602081905260409020600101546116788133613d78565b6116828383613f12565b505050565b600354604051634c063c1960e01b8152600091829182918291829182918291829182916001600160a01b031690634c063c19906116c8908d90600401614d53565b60206040518083038186803b1580156116e057600080fd5b505afa1580156116f4573d6000803e3d6000fd5b505050506040513d601f19601f82011682018060405250810190611718919061494a565b90506001600160a01b0381166117405760405162461bcd60e51b815260040161091a90614d9a565b806001600160a01b03166318160ddd6040518163ffffffff1660e01b815260040160206040518083038186803b15801561177957600080fd5b505afa15801561178d573d6000803e3d6000fd5b505050506040513d601f19601f820116820180604052508101906117b19190614c5a565b94506000816001600160a01b0316633eaaf86b6040518163ffffffff1660e01b815260040160606040518083038186803b1580156117ee57600080fd5b505afa158015611802573d6000803e3d6000fd5b505050506040513d601f19601f820116820180604052508101906118269190614c00565b80516020820151604083015191975095509350905060006118468c610e54565b6001600160a01b038d16600090815260066020526040902090915061186c8d8383613beb565b809c50819d50829e50839f505050505050505050919395975091939597565b600354604051634c063c1960e01b815260009182916001600160a01b0390911690634c063c19906118c0908790600401614d53565b60206040518083038186803b1580156118d857600080fd5b505afa1580156118ec573d6000803e3d6000fd5b505050506040513d601f19601f82011682018060405250810190611910919061494a565b90506001600160a01b0381166119385760405162461bcd60e51b815260040161091a90614d9a565b6001600160a01b03831661197d5760405162461bcd60e51b815260206004820152600c60248201526b1e995c9bc81858d8dbdd5b9d60a21b604482015260640161091a565b6040516327e235e360e01b81526000906001600160a01b038316906327e235e3906119ac908790600401614d53565b60606040518083038186803b1580156119c457600080fd5b505afa1580156119d8573d6000803e3d6000fd5b505050506040513d601f19601f820116820180604052508101906119fc9190614c00565b90506000816000015190506000826020015190506000836040015190506000856001600160a01b0316633eaaf86b6040518163ffffffff1660e01b815260040160606040518083038186803b158015611a5457600080fd5b505afa158015611a68573d6000803e3d6000fd5b505050506040513d601f19601f82011682018060405250810190611a8c9190614c00565b90506000816000015190506000826020015190506000836040015190506000896001600160a01b0316636d1506116040518163ffffffff1660e01b815260040160206040518083038186803b158015611ae457600080fd5b505afa158015611af8573d6000803e3d6000fd5b505050506040513d601f19601f82011682018060405250810190611b1c9190614c5a565b905060008a6001600160a01b031663a7ac30b06040518163ffffffff1660e01b815260040160206040518083038186803b158015611b5957600080fd5b505afa158015611b6d573d6000803e3d6000fd5b505050506040513d601f19601f82011682018060405250810190611b919190614c5a565b90506000611b9e8f613ddc565b9050611bad8f8f8c8c8c613e87565b611bb98f878787613ec1565b611bc48f8484613eed565b6001600160a01b038f166000908152601460205260409020548f9060ff16611c3a576001600160a01b0381166000818152601460205260408120805460ff19166001908117909155601380549182018155909152600080516020614f5a8339815191520180546001600160a01b03191690911790555b6001600160a01b038f166000908152601660205260409020548f9060ff16611cc2576001600160a01b0381166000818152601660205260408120805460ff191660019081179091556015805491820181559091527f55f448fdea98c4d29eb340757ef0a66cd03dbb9538908a6a81d96026b71ec4750180546001600160a01b03191690911790555b604080516001600160a01b038381168252602082018690528416917feaf565aec332d7cd567bfa2b743a7bdace638ac19ef7900d4c4d103a95be5beb910160405180910390a250909f9e505050505050505050505050505050565b60158181548110611d2d57600080fd5b6000918252602090912001546001600160a01b0316905081565b6001600160a01b0381163314611db75760405162461bcd60e51b815260206004820152602f60248201527f416363657373436f6e74726f6c3a2063616e206f6e6c792072656e6f756e636560448201526e103937b632b9903337b91039b2b63360891b606482015260840161091a565b611dc18282613f96565b5050565b600080516020614f7a833981519152611dde8133613d78565b6001600160a01b03831615801590611dfe57506001600160a01b03821615155b611e395760405162461bcd60e51b815260206004820152600c60248201526b7a65726f206164647265737360a01b604482015260640161091a565b50600380546001600160a01b039384166001600160a01b03199182161790915560048054929093169116179055565b6001600160a01b03808316600090815260056020908152604080832093851683529281528282208351815460a0938102820184019095526080810185815293948594859485948594939092849290918491840182828015611ee857602002820191906000526020600020905b815481526020019060010190808311611ed4575b5050505050815260200160018201805480602002602001604051908101604052809291908181526020018280548015611f4057602002820191906000526020600020905b815481526020019060010190808311611f2c575b5050505050815260200160028201805480602002602001604051908101604052809291908181526020018280548015611f9857602002820191906000526020600020905b815481526020019060010190808311611f84575b5050505050815260200160038201805480602002602001604051908101604052809291908181526020018280548015611ff057602002820191906000526020600020905b815481526020019060010190808311611fdc575b505050919092525050815151919250508089106120c457815180518290811061202957634e487b7160e01b600052603260045260246000fd5b60200260200101518260200151828151811061205557634e487b7160e01b600052603260045260246000fd5b60200260200101518360400151838151811061208157634e487b7160e01b600052603260045260246000fd5b6020026020010151846060015184815181106120ad57634e487b7160e01b600052603260045260246000fd5b60200260200101519550955095509550505061217d565b815180518a9081106120e657634e487b7160e01b600052603260045260246000fd5b602002602001015182602001518a8151811061211257634e487b7160e01b600052603260045260246000fd5b602002602001015183604001518b8151811061213e57634e487b7160e01b600052603260045260246000fd5b602002602001015184606001518c8151811061216a57634e487b7160e01b600052603260045260246000fd5b6020026020010151955095509550955050505b93509350935093565b6000600b548211610863576000828152600a602090815260408083208151815460609481028201850184529281018381529093919284928491908401828280156121f957602002820191906000526020600020905b81546001600160a01b031681526001909101906020018083116121db575b505050505081526020016001820180548060200260200160405190810160405280929190818152602001828054801561225157602002820191906000526020600020905b81548152602001906001019080831161223d575b5050509190925250508151519192505061226f576000915050610863565b60005b8151518110156122ee576122d0826000015182815181106122a357634e487b7160e01b600052603260045260246000fd5b602002602001015186846020015184815181106115bb57634e487b7160e01b600052603260045260246000fd5b6122da9084614e14565b9250806122e681614efa565b915050612272565b505092915050565b60007f3ee192ac25847473237ced4bba57f848e1fd794930ff85b428232905809672056123238133613d78565b865188511461236e5760405162461bcd60e51b815260206004820152601760248201527609cde40c4c2d8c2dcc6cae640e6c2daca40d8cadccee8d604b1b604482015260640161091a565b85518851146123bf5760405162461bcd60e51b815260206004820152601f60248201527f4e6f207265666163746f726564436f756e74732073616d65206c656e67746800604482015260640161091a565b84518851146124095760405162461bcd60e51b815260206004820152601660248201527509cde40e4cadac2d2dce640e6c2daca40d8cadccee8d60531b604482015260640161091a565b61241289613ddc565b5060005b88518110156124d8576124c88a8a838151811061244357634e487b7160e01b600052603260045260246000fd5b60200260200101518a848151811061246b57634e487b7160e01b600052603260045260246000fd5b60200260200101518a858151811061249357634e487b7160e01b600052603260045260246000fd5b60200260200101518a86815181106124bb57634e487b7160e01b600052603260045260246000fd5b6020026020010151613e87565b6124d181614efa565b9050612416565b508351602085015160408601516124f2928c929091613ec1565b82516020840151612504918b91613eed565b50600198975050505050505050565b6004805460408051630d42d49760e01b8152905160009384936001600160a01b031692630d42d4979281830192602092829003018186803b15801561255757600080fd5b505afa15801561256b573d6000803e3d6000fd5b505050506040513d601f19601f8201168201806040525081019061258f9190614c5a565b90506000915060005b81811015612754576004805460405163b7ffb17960e01b81529182018390526000916001600160a01b039091169063b7ffb1799060240160206040518083038186803b1580156125e757600080fd5b505afa1580156125fb573d6000803e3d6000fd5b505050506040513d601f19601f8201168201806040525081019061261f919061494a565b600354604051634c063c1960e01b81529192506000916001600160a01b0390911690634c063c1990612655908590600401614d53565b60206040518083038186803b15801561266d57600080fd5b505afa158015612681573d6000803e3d6000fd5b505050506040513d601f19601f820116820180604052508101906126a5919061494a565b90506001600160a01b0381161561273f576040516370a0823160e01b81526001600160a01b038216906370a08231906126e2908990600401614d53565b60206040518083038186803b1580156126fa57600080fd5b505afa15801561270e573d6000803e3d6000fd5b505050506040513d601f19601f820116820180604052508101906127329190614c5a565b61273c9086614e14565b94505b5050808061274c90614efa565b915050612598565b5050919050565b6004805460408051630d42d49760e01b8152905160009384936001600160a01b031692630d42d4979281830192602092829003018186803b15801561279f57600080fd5b505afa1580156127b3573d6000803e3d6000fd5b505050506040513d601f19601f820116820180604052508101906127d79190614c5a565b90506000805b8281101561290b576004805460405163b7ffb17960e01b81529182018390526000916001600160a01b039091169063b7ffb1799060240160206040518083038186803b15801561282c57600080fd5b505afa158015612840573d6000803e3d6000fd5b505050506040513d601f19601f82011682018060405250810190612864919061494a565b6003546040516367265c3b60e11b81526001600160a01b038084166004830152898116602483015292935091169063ce4cb8769060440160206040518083038186803b1580156128b357600080fd5b505afa1580156128c7573d6000803e3d6000fd5b505050506040513d601f19601f820116820180604052508101906128eb9190614c5a565b6128f59084614e14565b925050808061290390614efa565b9150506127dd565b509392505050565b600354604051634c063c1960e01b81526000918291829182918291829182916001600160a01b031690634c063c1990612950908b90600401614d53565b60206040518083038186803b15801561296857600080fd5b505afa15801561297c573d6000803e3d6000fd5b505050506040513d601f19601f820116820180604052508101906129a0919061494a565b90506001600160a01b0381166129c85760405162461bcd60e51b815260040161091a90614d9a565b806001600160a01b03166354f703f86040518163ffffffff1660e01b815260040160206040518083038186803b158015612a0157600080fd5b505afa158015612a15573d6000803e3d6000fd5b505050506040513d601f19601f82011682018060405250810190612a399190614c5a565b9350806001600160a01b0316636d1506116040518163ffffffff1660e01b815260040160206040518083038186803b158015612a7457600080fd5b505afa158015612a88573d6000803e3d6000fd5b505050506040513d601f19601f82011682018060405250810190612aac9190614c5a565b9250806001600160a01b031663a7ac30b06040518163ffffffff1660e01b815260040160206040518083038186803b158015612ae757600080fd5b505afa158015612afb573d6000803e3d6000fd5b505050506040513d601f19601f82011682018060405250810190612b1f9190614c5a565b91506000612b2c89610e54565b9050612b388982613ffb565b919b909a509098509496509294509092915050565b60138181548110611d2d57600080fd5b60008115612bdb57600080600080612b7587876140dc565b93509350935093506000806000612b8c8a8a613ffb565b925092509250868015612b9c5750825b15612bcb576000612baf87878585613539565b9050612bbb8582614e14565b9850610863975050505050505050565b6000975050505050505050610863565b506000610863565b6000918252602082815260408084206001600160a01b0393909316845291905290205460ff1690565b60118054610a4990614ec5565b6004805460408051630d42d49760e01b81529051600093849384936001600160a01b0390911692630d42d49792828101926020929190829003018186803b158015612c6357600080fd5b505afa158015612c77573d6000803e3d6000fd5b505050506040513d601f19601f82011682018060405250810190612c9b9190614c5a565b90506000816001600160401b03811115612cc557634e487b7160e01b600052604160045260246000fd5b604051908082528060200260200182016040528015612cee578160200160208202803683370190505b5090506000826001600160401b03811115612d1957634e487b7160e01b600052604160045260246000fd5b604051908082528060200260200182016040528015612d42578160200160208202803683370190505b50600b546000908152600a602090815260408083208151815460609481028201850184529281018381529596509394909284928491840182828015612db057602002820191906000526020600020905b81546001600160a01b03168152600190910190602001808311612d92575b5050505050815260200160018201805480602002602001604051908101604052809291908181526020018280548015612e0857602002820191906000526020600020905b815481526020019060010190808311612df4575b505050505081525050905060005b84811015612fe8576004805460405163b7ffb17960e01b81529182018390526000916001600160a01b039091169063b7ffb1799060240160206040518083038186803b158015612e6557600080fd5b505afa158015612e79573d6000803e3d6000fd5b505050506040513d601f19601f82011682018060405250810190612e9d919061494a565b90506000612eaa82610e54565b905081868481518110612ecd57634e487b7160e01b600052603260045260246000fd5b60200260200101906001600160a01b031690816001600160a01b03168152505080858481518110612f0e57634e487b7160e01b600052603260045260246000fd5b60209081029190910101528351518714801590612f29575087155b15612f375760019750612fd3565b87158015612f825750816001600160a01b031684600001518481518110612f6e57634e487b7160e01b600052603260045260246000fd5b60200260200101516001600160a01b031614155b15612f905760019750612fd3565b87158015612fc957508084602001518481518110612fbe57634e487b7160e01b600052603260045260246000fd5b602002602001015114155b15612fd357600197505b50508080612fe090614efa565b915050612e16565b5084156130dd57600b8054906000612fff83614efa565b9091555050600b546000908152600a60205260408120905b84518110156130da578160000185828151811061304457634e487b7160e01b600052603260045260246000fd5b60209081029190910181015182546001808201855560009485529290932090920180546001600160a01b0319166001600160a01b03909316929092179091558451908301908590839081106130a957634e487b7160e01b600052603260045260246000fd5b60209081029190910181015182546001810184556000938452919092200155806130d281614efa565b915050613017565b50505b600b549550505050505090565b6000600b548211613224576000828152600a6020908152604080832081518154606094810282018501845292810183815290939192849284919084018282801561315d57602002820191906000526020600020905b81546001600160a01b0316815260019091019060200180831161313f575b50505050508152602001600182018054806020026020016040519081016040528092919081815260200182805480156131b557602002820191906000526020600020905b8154815260200190600101908083116131a1575b505050919092525050815151919250506131d25750600092915050565b60005b81515181101561275457613206826000015182815181106115fb57634e487b7160e01b600052603260045260246000fd5b6132109084614e14565b92508061321c81614efa565b9150506131d5565b919050565b600354604051634c063c1960e01b815260009182916001600160a01b0390911690634c063c199061325e908690600401614d53565b60206040518083038186803b15801561327657600080fd5b505afa15801561328a573d6000803e3d6000fd5b505050506040513d601f19601f820116820180604052508101906132ae919061494a565b90506001600160a01b0381166132d65760405162461bcd60e51b815260040161091a90614d9a565b6000816001600160a01b0316633eaaf86b6040518163ffffffff1660e01b815260040160606040518083038186803b15801561331157600080fd5b505afa158015613325573d6000803e3d6000fd5b505050506040513d601f19601f820116820180604052508101906133499190614c00565b90506000816000015190506000826020015190506000836040015190506000856001600160a01b0316636d1506116040518163ffffffff1660e01b815260040160206040518083038186803b1580156133a157600080fd5b505afa1580156133b5573d6000803e3d6000fd5b505050506040513d601f19601f820116820180604052508101906133d99190614c5a565b90506000866001600160a01b031663a7ac30b06040518163ffffffff1660e01b815260040160206040518083038186803b15801561341657600080fd5b505afa15801561342a573d6000803e3d6000fd5b505050506040513d601f19601f8201168201806040525081019061344e9190614c5a565b6001600160a01b038a1660009081526014602052604090205490915060ff166134c5576001600160a01b0389166000818152601460205260408120805460ff19166001908117909155601380549182018155909152600080516020614f5a8339815191520180546001600160a01b03191690911790555b60006134d08a613ddc565b90506134de8a878787613ec1565b6134e98a8484613eed565b896001600160a01b03167f32a9d63c5300e91cc9c633e57c9a98fdaa33b189311e7cbe14859ad9958ecd158260405161352491815260200190565b60405180910390a29998505050505050505050565b60008461354857506000613584565b613552858461412b565b9450835b8281101561357f5760025461356b9087614e4c565b95508061357781614efa565b915050613556565b508490505b949350505050565b6000610ebb838361188b565b600354604051634c063c1960e01b815260009182918291829182916001600160a01b031690634c063c19906135d1908990600401614d53565b60206040518083038186803b1580156135e957600080fd5b505afa1580156135fd573d6000803e3d6000fd5b505050506040513d601f19601f82011682018060405250810190613621919061494a565b90506001600160a01b0381166136495760405162461bcd60e51b815260040161091a90614d9a565b806001600160a01b03166318160ddd6040518163ffffffff1660e01b815260040160206040518083038186803b15801561368257600080fd5b505afa158015613696573d6000803e3d6000fd5b505050506040513d601f19601f820116820180604052508101906136ba9190614c5a565b94506000816001600160a01b0316633eaaf86b6040518163ffffffff1660e01b815260040160606040518083038186803b1580156136f757600080fd5b505afa15801561370b573d6000803e3d6000fd5b505050506040513d601f19601f8201168201806040525081019061372f9190614c00565b805160208201516040909201519799909850909695509350505050565b600081156137cb5760008060008061376588888861414e565b9350935093509350600080600061377c8b8a613ffb565b92509250925086801561378c5750825b156137bb57600061379f87878585613539565b90506137ab8582614e14565b9850610ebb975050505050505050565b6000975050505050505050610ebb565b506000610ebb565b6001600160a01b0381166000908152600660205260408120546137f857506000919050565b6001600160a01b03821660009081526006602052604090205461086390600190614e6b565b6000828152602081905260409020600101546138398133613d78565b6116828383613f96565b6000610863826106ce84610e54565b6001600160a01b038083166000908152600560209081526040808320938516835292905290812080548291829182919061389a5760008060008094509450945094505061217d565b6000881180156138b257506138ae87610e54565b8811155b1561398c5760006138c3828a6141c1565b90508160000181815481106138e857634e487b7160e01b600052603260045260246000fd5b906000526020600020015482600101828154811061391657634e487b7160e01b600052603260045260246000fd5b906000526020600020015483600201838154811061394457634e487b7160e01b600052603260045260246000fd5b906000526020600020015484600301848154811061397257634e487b7160e01b600052603260045260246000fd5b90600052602060002001549550955095509550505061217d565b60008060008094509450945094505061217d565b6004805460408051630d42d49760e01b8152905160009384936001600160a01b031692630d42d4979281830192602092829003018186803b1580156139e457600080fd5b505afa1580156139f8573d6000803e3d6000fd5b505050506040513d601f19601f82011682018060405250810190613a1c9190614c5a565b90506000915060005b81811015613bd6576004805460405163b7ffb17960e01b81529182018390526000916001600160a01b039091169063b7ffb1799060240160206040518083038186803b158015613a7457600080fd5b505afa158015613a88573d6000803e3d6000fd5b505050506040513d601f19601f82011682018060405250810190613aac919061494a565b600354604051634c063c1960e01b81529192506000916001600160a01b0390911690634c063c1990613ae2908590600401614d53565b60206040518083038186803b158015613afa57600080fd5b505afa158015613b0e573d6000803e3d6000fd5b505050506040513d601f19601f82011682018060405250810190613b32919061494a565b90506001600160a01b03811615613bc157806001600160a01b03166318160ddd6040518163ffffffff1660e01b815260040160206040518083038186803b158015613b7c57600080fd5b505afa158015613b90573d6000803e3d6000fd5b505050506040513d601f19601f82011682018060405250810190613bb49190614c5a565b613bbe9086614e14565b94505b50508080613bce90614efa565b915050613a25565b505090565b6000610ebb83836107a586610e54565b600080600080600086118015613c095750613c0587610e54565b8611155b15613d67576000613c1a86886141c1565b8654909150811415613ce657801561398c576001868101613c3b8284614e6b565b81548110613c5957634e487b7160e01b600052603260045260246000fd5b906000526020600020015487600201600184613c759190614e6b565b81548110613c9357634e487b7160e01b600052603260045260246000fd5b906000526020600020015488600301600185613caf9190614e6b565b81548110613ccd57634e487b7160e01b600052603260045260246000fd5b906000526020600020015494509450945094505061217d565b6001866001018281548110613d0b57634e487b7160e01b600052603260045260246000fd5b9060005260206000200154876002018381548110613d3957634e487b7160e01b600052603260045260246000fd5b9060005260206000200154886003018481548110613ccd57634e487b7160e01b600052603260045260246000fd5b50600092508291508190508061217d565b613d828282612be3565b611dc157613d9a816001600160a01b031660146142f1565b613da58360206142f1565b604051602001613db6929190614ce4565b60408051601f198184030181529082905262461bcd60e51b825261091a91600401614d67565b6001600160a01b038116600090815260086020526040812080549082613e0183614efa565b90915550506001600160a01b0382166000908152600960209081526040808320600883528184205484529091528120439055613e3c83610e54565b9050826001600160a01b03167f9140ca8dada2f5d654a9719f873254e8caca2580b6b78d4944151727d6207bb182604051613e7991815260200190565b60405180910390a292915050565b6001600160a01b038086166000908152600560209081526040808320938816835292905220613eba9086908585856144d2565b5050505050565b6001600160a01b0384166000908152600660205260409020613ee79085908585856144d2565b50505050565b6001600160a01b03831660009081526007602052604090206116829084908484614555565b613f1c8282612be3565b611dc1576000828152602081815260408083206001600160a01b03851684529091529020805460ff19166001179055613f523390565b6001600160a01b0316816001600160a01b0316837f2f8788117e7eff1d82e926ec794901d17c78024a50270940304540a733656f0d60405160405180910390a45050565b613fa08282612be3565b15611dc1576000828152602081815260408083206001600160a01b0385168085529252808320805460ff1916905551339285917ff6391f5c32d9c69d2a47ea670b442974b53935d1edc7fd64eb21e047a839171b9190a45050565b6001600160a01b038216600090815260076020526040812081908190841580159061402e575061402a86610e54565b8511155b156140c857600061403f82876141c1565b825490915081141561405d57600080600094509450945050506140d5565b600182600101828154811061408257634e487b7160e01b600052603260045260246000fd5b90600052602060002001548360020183815481106140b057634e487b7160e01b600052603260045260246000fd5b906000526020600020015494509450945050506140d5565b6000806000935093509350505b9250925092565b6000806000806000806000806141178a8a600660008e6001600160a01b03166001600160a01b03168152602001908152602001600020613beb565b929d919c509a509098509650505050505050565b60006b033b2e3c9fd0803ce800000061414484846145b8565b610ebb9190614e2c565b6000806000806000806000806141ac8b8a600560008f6001600160a01b03166001600160a01b0316815260200190815260200160002060008e6001600160a01b03166001600160a01b03168152602001908152602001600020613beb565b929e919d509b50909950975050505050505050565b81546000906141d257506000610863565b825483906141e290600190614e6b565b8154811061420057634e487b7160e01b600052603260045260246000fd5b9060005260206000200154821061422657825461421f90600190614e6b565b9050610863565b8260008154811061424757634e487b7160e01b600052603260045260246000fd5b906000526020600020015482101561426157506000610863565b8254600090819061427490600190614e6b565b90505b8181111561290b576000600261428d8484614e14565b614298906001614e14565b6142a29190614e2c565b9050848682815481106142c557634e487b7160e01b600052603260045260246000fd5b9060005260206000200154116142dd578092506142eb565b6142e8600182614e6b565b91505b50614277565b60606000614300836002614e4c565b61430b906002614e14565b6001600160401b0381111561433057634e487b7160e01b600052604160045260246000fd5b6040519080825280601f01601f19166020018201604052801561435a576020820181803683370190505b509050600360fc1b8160008151811061438357634e487b7160e01b600052603260045260246000fd5b60200101906001600160f81b031916908160001a905350600f60fb1b816001815181106143c057634e487b7160e01b600052603260045260246000fd5b60200101906001600160f81b031916908160001a90535060006143e4846002614e4c565b6143ef906001614e14565b90505b6001811115614483576f181899199a1a9b1b9c1cb0b131b232b360811b85600f166010811061443157634e487b7160e01b600052603260045260246000fd5b1a60f81b82828151811061445557634e487b7160e01b600052603260045260246000fd5b60200101906001600160f81b031916908160001a90535060049490941c9361447c81614eae565b90506143f2565b508315610ebb5760405162461bcd60e51b815260206004820181905260248201527f537472696e67733a20686578206c656e67746820696e73756666696369656e74604482015260640161091a565b60006144dd86610e54565b905060006144ea8661461f565b90508181101561454c578554600181810188556000888152602080822090930185905581890180548084018255908252838220018890556002890180548084018255908252838220018790556003890180549283018155815291909120018390555b50505050505050565b600061456085610e54565b90508061456c8561461f565b1015613eba578354600180820186556000868152602080822090930193909355808601805480830182559084528284200194909455600290940180549384018155815292909220015550565b60008115806145dc575082826145ce8183614e4c565b92506145da9083614e2c565b145b6108635760405162461bcd60e51b815260206004820152601460248201527364732d6d6174682d6d756c2d6f766572666c6f7760601b604482015260640161091a565b805460009061463057506000919050565b8154829061464090600190614e6b565b8154811061465e57634e487b7160e01b600052603260045260246000fd5b90600052602060002001549050919050565b82805461467c90614ec5565b90600052602060002090601f01602090048101928261469e57600085556146e4565b82601f106146b757805160ff19168380011785556146e4565b828001600101855582156146e4579182015b828111156146e45782518255916020019190600101906146c9565b506146f09291506146f4565b5090565b5b808211156146f057600081556001016146f5565b803561322481614f41565b600082601f830112614724578081fd5b8135602061473961473483614df1565b614dc1565b80838252828201915082860187848660051b8901011115614758578586fd5b855b8581101561477f57813561476d81614f41565b8452928401929084019060010161475a565b5090979650505050505050565b600082601f83011261479c578081fd5b604051604081018181106001600160401b03821117156147be576147be614f2b565b80604052508083856040860111156147d4578384fd5b835b60028110156147f55781358352602092830192909101906001016147d6565b509195945050505050565b600082601f830112614810578081fd5b604051606081018181106001600160401b038211171561483257614832614f2b565b604052808360608101861015614846578384fd5b835b60038110156147f5578135835260209283019290910190600101614848565b600082601f830112614877578081fd5b8135602061488761473483614df1565b80838252828201915082860187848660051b89010111156148a6578586fd5b855b8581101561477f578135845292840192908401906001016148a8565b600082601f8301126148d4578081fd5b81356001600160401b038111156148ed576148ed614f2b565b614900601f8201601f1916602001614dc1565b818152846020838601011115614914578283fd5b816020850160208301379081016020019190915292915050565b60006020828403121561493f578081fd5b8135610ebb81614f41565b60006020828403121561495b578081fd5b8151610ebb81614f41565b60008060408385031215614978578081fd5b823561498381614f41565b9150602083013561499381614f41565b809150509250929050565b6000806000606084860312156149b2578081fd5b83356149bd81614f41565b925060208401356149cd81614f41565b929592945050506040919091013590565b600080604083850312156149f0578182fd5b82356149fb81614f41565b915060208301356001600160401b03811115614a15578182fd5b614a2185828601614714565b9150509250929050565b6000806000806000806000610140888a031215614a46578485fd5b614a4f88614709565b965060208801356001600160401b0380821115614a6a578687fd5b614a768b838c01614714565b975060408a0135915080821115614a8b578687fd5b614a978b838c01614867565b965060608a0135915080821115614aac578485fd5b614ab88b838c01614867565b955060808a0135915080821115614acd578485fd5b50614ada8a828b01614867565b935050614aea8960a08a01614800565b9150614afa896101008a0161478c565b905092959891949750929550565b60008060408385031215614b1a578182fd5b8235614b2581614f41565b946020939093013593505050565b600060208284031215614b44578081fd5b5035919050565b60008060408385031215614b5d578182fd5b82359150602083013561499381614f41565b600060208284031215614b80578081fd5b81356001600160e01b031981168114610ebb578182fd5b600080600060608486031215614bab578081fd5b83356001600160401b0380821115614bc1578283fd5b614bcd878388016148c4565b94506020860135915080821115614be2578283fd5b50614bef868287016148c4565b925050604084013590509250925092565b600060608284031215614c11578081fd5b604051606081018181106001600160401b0382111715614c3357614c33614f2b565b80604052508251815260208301516020820152604083015160408201528091505092915050565b600060208284031215614c6b578081fd5b5051919050565b600080600060608486031215614c86578081fd5b833592506020840135614c9881614f41565b91506040840135614ca881614f41565b809150509250925092565b60008060008060808587031215614cc8578182fd5b5050823594602084013594506040840135936060013592509050565b76020b1b1b2b9b9a1b7b73a3937b61d1030b1b1b7bab73a1604d1b815260008351614d16816017850160208801614e82565b7001034b99036b4b9b9b4b733903937b6329607d1b6017918401918201528351614d47816028840160208801614e82565b01602801949350505050565b6001600160a01b0391909116815260200190565b6020815260008251806020840152614d86816040850160208701614e82565b601f01601f19169190910160400192915050565b6020808252600d908201526c7a65726f20636f696e6167657360981b604082015260600190565b604051601f8201601f191681016001600160401b0381118282101715614de957614de9614f2b565b604052919050565b60006001600160401b03821115614e0a57614e0a614f2b565b5060051b60200190565b60008219821115614e2757614e27614f15565b500190565b600082614e4757634e487b7160e01b81526012600452602481fd5b500490565b6000816000190483118215151615614e6657614e66614f15565b500290565b600082821015614e7d57614e7d614f15565b500390565b60005b83811015614e9d578181015183820152602001614e85565b83811115613ee75750506000910152565b600081614ebd57614ebd614f15565b506000190190565b600181811c90821680614ed957607f821691505b60208210811415610efb57634e487b7160e01b600052602260045260246000fd5b6000600019821415614f0e57614f0e614f15565b5060010190565b634e487b7160e01b600052601160045260246000fd5b634e487b7160e01b600052604160045260246000fd5b6001600160a01b0381168114614f5657600080fd5b5056fe66de8ffda797e3de9c05e8fc57b3bf0ec28a930d40b0d285d93c06501cf6a090a49807205ce4d355092ef5a8a18f56e8913cf4a201fbe287825b095693c21775a2646970667358221220af26ef094ba01f91ef845171b475bf1c36016130657846ea4b7d3c5b31070c2664736f6c63430008040033",
  "linkReferences": {},
  "deployedLinkReferences": {}
}