{
  "_format": "hh-sol-artifact-1",
  "contractName": "AutoCoinageSnapshotProxy2",
  "sourceName": "contracts/tokens/AutoCoinageSnapshotProxy2.sol",
  "abi": [
    {
      "inputs": [],
      "stateMutability": "nonpayable",
      "type": "constructor"
    },
    {
      "anonymous": false,
      "inputs": [
        {
          "indexed": true,
          "internalType": "address",
          "name": "previousOwner",
          "type": "address"
        },
        {
          "indexed": true,
          "internalType": "address",
          "name": "newOwner",
          "type": "address"
        }
      ],
      "name": "OwnershipTransferred",
      "type": "event"
    },
    {
      "anonymous": false,
      "inputs": [
        {
          "indexed": true,
          "internalType": "bytes32",
          "name": "role",
          "type": "bytes32"
        },
        {
          "indexed": true,
          "internalType": "bytes32",
          "name": "previousAdminRole",
          "type": "bytes32"
        },
        {
          "indexed": true,
          "internalType": "bytes32",
          "name": "newAdminRole",
          "type": "bytes32"
        }
      ],
      "name": "RoleAdminChanged",
      "type": "event"
    },
    {
      "anonymous": false,
      "inputs": [
        {
          "indexed": true,
          "internalType": "bytes32",
          "name": "role",
          "type": "bytes32"
        },
        {
          "indexed": true,
          "internalType": "address",
          "name": "account",
          "type": "address"
        },
        {
          "indexed": true,
          "internalType": "address",
          "name": "sender",
          "type": "address"
        }
      ],
      "name": "RoleGranted",
      "type": "event"
    },
    {
      "anonymous": false,
      "inputs": [
        {
          "indexed": true,
          "internalType": "bytes32",
          "name": "role",
          "type": "bytes32"
        },
        {
          "indexed": true,
          "internalType": "address",
          "name": "account",
          "type": "address"
        },
        {
          "indexed": true,
          "internalType": "address",
          "name": "sender",
          "type": "address"
        }
      ],
      "name": "RoleRevoked",
      "type": "event"
    },
    {
      "anonymous": false,
      "inputs": [
        {
          "indexed": true,
          "internalType": "address",
          "name": "implementation",
          "type": "address"
        }
      ],
      "name": "Upgraded",
      "type": "event"
    },
    {
      "stateMutability": "payable",
      "type": "fallback"
    },
    {
      "inputs": [],
      "name": "ADMIN_ROLE",
      "outputs": [
        {
          "internalType": "bytes32",
          "name": "",
          "type": "bytes32"
        }
      ],
      "stateMutability": "view",
      "type": "function"
    },
    {
      "inputs": [],
      "name": "DEFAULT_ADMIN_ROLE",
      "outputs": [
        {
          "internalType": "bytes32",
          "name": "",
          "type": "bytes32"
        }
      ],
      "stateMutability": "view",
      "type": "function"
    },
    {
      "inputs": [],
      "name": "REFACTOR_BOUNDARY",
      "outputs": [
        {
          "internalType": "uint256",
          "name": "",
          "type": "uint256"
        }
      ],
      "stateMutability": "view",
      "type": "function"
    },
    {
      "inputs": [],
      "name": "REFACTOR_DIVIDER",
      "outputs": [
        {
          "internalType": "uint256",
          "name": "",
          "type": "uint256"
        }
      ],
      "stateMutability": "view",
      "type": "function"
    },
    {
      "inputs": [
        {
          "internalType": "address",
          "name": "_owner",
          "type": "address"
        }
      ],
      "name": "addOwner",
      "outputs": [],
      "stateMutability": "nonpayable",
      "type": "function"
    },
    {
      "inputs": [
        {
          "internalType": "address",
          "name": "",
          "type": "address"
        }
      ],
      "name": "currentLayer2SnapshotId",
      "outputs": [
        {
          "internalType": "uint256",
          "name": "",
          "type": "uint256"
        }
      ],
      "stateMutability": "view",
      "type": "function"
    },
    {
      "inputs": [],
      "name": "decimals",
      "outputs": [
        {
          "internalType": "uint256",
          "name": "",
          "type": "uint256"
        }
      ],
      "stateMutability": "view",
      "type": "function"
    },
    {
      "inputs": [
        {
          "internalType": "address",
          "name": "",
          "type": "address"
        }
      ],
      "name": "existLayer2s",
      "outputs": [
        {
          "internalType": "bool",
          "name": "",
          "type": "bool"
        }
      ],
      "stateMutability": "view",
      "type": "function"
    },
    {
      "inputs": [
        {
          "internalType": "bytes32",
          "name": "role",
          "type": "bytes32"
        }
      ],
      "name": "getRoleAdmin",
      "outputs": [
        {
          "internalType": "bytes32",
          "name": "",
          "type": "bytes32"
        }
      ],
      "stateMutability": "view",
      "type": "function"
    },
    {
      "inputs": [
        {
          "internalType": "bytes32",
          "name": "role",
          "type": "bytes32"
        },
        {
          "internalType": "address",
          "name": "account",
          "type": "address"
        }
      ],
      "name": "grantRole",
      "outputs": [],
      "stateMutability": "nonpayable",
      "type": "function"
    },
    {
      "inputs": [
        {
          "internalType": "bytes32",
          "name": "role",
          "type": "bytes32"
        },
        {
          "internalType": "address",
          "name": "account",
          "type": "address"
        }
      ],
      "name": "hasRole",
      "outputs": [
        {
          "internalType": "bool",
          "name": "",
          "type": "bool"
        }
      ],
      "stateMutability": "view",
      "type": "function"
    },
    {
      "inputs": [],
      "name": "implementation",
      "outputs": [
        {
          "internalType": "address",
          "name": "",
          "type": "address"
        }
      ],
      "stateMutability": "view",
      "type": "function"
    },
    {
      "inputs": [],
      "name": "layer2Registry",
      "outputs": [
        {
          "internalType": "address",
          "name": "",
          "type": "address"
        }
      ],
      "stateMutability": "view",
      "type": "function"
    },
    {
      "inputs": [
        {
          "internalType": "uint256",
          "name": "",
          "type": "uint256"
        }
      ],
      "name": "layer2s",
      "outputs": [
        {
          "internalType": "address",
          "name": "",
          "type": "address"
        }
      ],
      "stateMutability": "view",
      "type": "function"
    },
    {
      "inputs": [],
      "name": "migratedL2",
      "outputs": [
        {
          "internalType": "bool",
          "name": "",
          "type": "bool"
        }
      ],
      "stateMutability": "view",
      "type": "function"
    },
    {
      "inputs": [],
      "name": "name",
      "outputs": [
        {
          "internalType": "string",
          "name": "",
          "type": "string"
        }
      ],
      "stateMutability": "view",
      "type": "function"
    },
    {
      "inputs": [
        {
          "internalType": "address",
          "name": "",
          "type": "address"
        },
        {
          "internalType": "uint256",
          "name": "",
          "type": "uint256"
        }
      ],
      "name": "needSyncs",
      "outputs": [
        {
          "internalType": "address",
          "name": "",
          "type": "address"
        }
      ],
      "stateMutability": "view",
      "type": "function"
    },
    {
      "inputs": [],
      "name": "pauseProxy",
      "outputs": [
        {
          "internalType": "bool",
          "name": "",
          "type": "bool"
        }
      ],
      "stateMutability": "view",
      "type": "function"
    },
    {
      "inputs": [
        {
          "internalType": "bytes32",
          "name": "role",
          "type": "bytes32"
        },
        {
          "internalType": "address",
          "name": "account",
          "type": "address"
        }
      ],
      "name": "renounceRole",
      "outputs": [],
      "stateMutability": "nonpayable",
      "type": "function"
    },
    {
      "inputs": [
        {
          "internalType": "bytes32",
          "name": "role",
          "type": "bytes32"
        },
        {
          "internalType": "address",
          "name": "account",
          "type": "address"
        }
      ],
      "name": "revokeRole",
      "outputs": [],
      "stateMutability": "nonpayable",
      "type": "function"
    },
    {
      "inputs": [],
      "name": "seigManager",
      "outputs": [
        {
          "internalType": "address",
          "name": "",
          "type": "address"
        }
      ],
      "stateMutability": "view",
      "type": "function"
    },
    {
      "inputs": [
        {
          "internalType": "string",
          "name": "name_",
          "type": "string"
        },
        {
          "internalType": "string",
          "name": "symbol_",
          "type": "string"
        },
        {
          "internalType": "uint256",
          "name": "decimals_",
          "type": "uint256"
        }
      ],
      "name": "setNameSymbolDecimals",
      "outputs": [],
      "stateMutability": "nonpayable",
      "type": "function"
    },
    {
      "inputs": [
        {
          "internalType": "bool",
          "name": "_pause",
          "type": "bool"
        }
      ],
      "name": "setProxyPause",
      "outputs": [],
      "stateMutability": "nonpayable",
      "type": "function"
    },
    {
      "inputs": [],
      "name": "snashotAggregatorTotal",
      "outputs": [
        {
          "internalType": "uint256",
          "name": "",
          "type": "uint256"
        }
      ],
      "stateMutability": "view",
      "type": "function"
    },
    {
      "inputs": [
        {
          "internalType": "bytes4",
          "name": "interfaceId",
          "type": "bytes4"
        }
      ],
      "name": "supportsInterface",
      "outputs": [
        {
          "internalType": "bool",
          "name": "",
          "type": "bool"
        }
      ],
      "stateMutability": "view",
      "type": "function"
    },
    {
      "inputs": [],
      "name": "symbol",
      "outputs": [
        {
          "internalType": "string",
          "name": "",
          "type": "string"
        }
      ],
      "stateMutability": "view",
      "type": "function"
    },
    {
      "inputs": [
        {
          "internalType": "address",
          "name": "impl",
          "type": "address"
        }
      ],
      "name": "upgradeTo",
      "outputs": [],
      "stateMutability": "nonpayable",
      "type": "function"
    },
    {
      "stateMutability": "payable",
      "type": "receive"
    }
  ],
  "bytecode": "0x60806040526b204fce5e3e25026110000000600155600280553480156200002557600080fd5b506200005360017f360894a13ba1a3210667c828492db98dca3e2076cc3735a920a3ca505d382bbd62000189565b7f360894a13ba1a3210667c828492db98dca3e2076cc3735a920a3ca505d382bbc146200009057634e487b7160e01b600052600160045260246000fd5b6200009d600033620000d9565b620000c97fa49807205ce4d355092ef5a8a18f56e8913cf4a201fbe287825b095693c2177533620000d9565b6000600e55601b601555620001ad565b620000e58282620000e9565b5050565b6000828152602081815260408083206001600160a01b038516845290915290205460ff16620000e5576000828152602081815260408083206001600160a01b03851684529091529020805460ff19166001179055620001453390565b6001600160a01b0316816001600160a01b0316837f2f8788117e7eff1d82e926ec794901d17c78024a50270940304540a733656f0d60405160405180910390a45050565b600082821015620001a857634e487b7160e01b81526011600452602481fd5b500390565b61120980620001bd6000396000f3fe60806040526004361061016e5760003560e01c80636fb7f558116100cc57806395d89b411161007a57806395d89b4114610488578063a1f5f50e1461049d578063a217fddf146104bc578063addf9090146104d1578063b7c246d7146104e7578063cf2a239c146104fd578063d547741f1461051d576101b7565b80636fb7f558146103a65780637065cb48146103c657806375b238fc146103e65780637ae39263146104085780637cb00d25146104285780638d51c0e21461044857806391d1485414610468576101b7565b80632f2ff15d116101295780632f2ff15d146102b9578063313ce567146102d957806336568abe146102ef5780633659cfe61461030f5780635c60da1b1461032f5780635cd3b6d71461035c57806363a8fd891461038c576101b7565b8062d87a9c146101c1578062f08e46146101ea57806301ffc9a71461021757806306fdde03146102475780631e4d15f714610269578063248a9ca314610289576101b7565b366101b75760405162461bcd60e51b815260206004820152601460248201527331b0b73737ba103932b1b2b4bb329022ba3432b960611b60448201526064015b60405180910390fd5b6101bf61053d565b005b3480156101cd57600080fd5b506101d760025481565b6040519081526020015b60405180910390f35b3480156101f657600080fd5b506101d7610205366004610ef4565b600c6020526000908152604090205481565b34801561022357600080fd5b50610237610232366004610f9a565b6105d2565b60405190151581526020016101e1565b34801561025357600080fd5b5061025c610609565b6040516101e1919061109b565b34801561027557600080fd5b506101bf610284366004610fc2565b610697565b34801561029557600080fd5b506101d76102a4366004610f57565b60009081526020819052604090206001015490565b3480156102c557600080fd5b506101bf6102d4366004610f6f565b6106e0565b3480156102e557600080fd5b506101d760155481565b3480156102fb57600080fd5b506101bf61030a366004610f6f565b610706565b34801561031b57600080fd5b506101bf61032a366004610ef4565b610784565b34801561033b57600080fd5b50610344610876565b6040516001600160a01b0390911681526020016101e1565b34801561036857600080fd5b50610237610377366004610ef4565b60176020526000908152604090205460ff1681565b34801561039857600080fd5b50600f546102379060ff1681565b3480156103b257600080fd5b50600354610344906001600160a01b031681565b3480156103d257600080fd5b506101bf6103e1366004610ef4565b610885565b3480156103f257600080fd5b506101d76000805160206111b483398151915281565b34801561041457600080fd5b50610344610423366004610f57565b6108c1565b34801561043457600080fd5b506101bf610443366004610f37565b6108eb565b34801561045457600080fd5b50610344610463366004610f0e565b610918565b34801561047457600080fd5b50610237610483366004610f6f565b610950565b34801561049457600080fd5b5061025c610979565b3480156104a957600080fd5b50600f5461023790610100900460ff1681565b3480156104c857600080fd5b506101d7600081565b3480156104dd57600080fd5b506101d7600e5481565b3480156104f357600080fd5b506101d760015481565b34801561050957600080fd5b50600454610344906001600160a01b031681565b34801561052957600080fd5b506101bf610538366004610f6f565b610986565b60006105476109ac565b90506001600160a01b038116158015906105645750600f5460ff16155b6105a95760405162461bcd60e51b8152602060048201526016602482015275696d706c204f522070726f78792069732066616c736560501b60448201526064016101ae565b3660008037600080366000845af43d6000803e8080156105c8573d6000f35b3d6000fd5b505050565b60006001600160e01b03198216637965db0b60e01b148061060357506301ffc9a760e01b6001600160e01b03198316145b92915050565b601380546106169061114c565b80601f01602080910402602001604051908101604052809291908181526020018280546106429061114c565b801561068f5780601f106106645761010080835404028352916020019161068f565b820191906000526020600020905b81548152906001019060200180831161067257829003601f168201915b505050505081565b6000805160206111b48339815191526106b081336109d1565b83516106c3906013906020870190610db8565b5082516106d7906014906020860190610db8565b50506015555050565b6000828152602081905260409020600101546106fc81336109d1565b6105cd8383610a35565b6001600160a01b03811633146107765760405162461bcd60e51b815260206004820152602f60248201527f416363657373436f6e74726f6c3a2063616e206f6e6c792072656e6f756e636560448201526e103937b632b9903337b91039b2b63360891b60648201526084016101ae565b6107808282610ab9565b5050565b6000805160206111b483398151915261079d81336109d1565b6001600160a01b0382166107e35760405162461bcd60e51b815260206004820152600d60248201526c696e707574206973207a65726f60981b60448201526064016101ae565b816001600160a01b03166107f56109ac565b6001600160a01b031614156108355760405162461bcd60e51b81526004016101ae9060208082526004908201526373616d6560e01b604082015260600190565b61083e82610b1e565b6040516001600160a01b038316907fbc7cd75a20ee27fd9adebab32041f755214dbc6bffa90cc0225b39da2e5c2d3b90600090a25050565b60006108806109ac565b905090565b6000805160206111b483398151915261089e81336109d1565b6108a9600083610bc5565b6107806000805160206111b483398151915283610bc5565b601681815481106108d157600080fd5b6000918252602090912001546001600160a01b0316905081565b6000805160206111b483398151915261090481336109d1565b50600f805460ff1916911515919091179055565b6018602052816000526040600020818154811061093457600080fd5b6000918252602090912001546001600160a01b03169150829050565b6000918252602082815260408084206001600160a01b0393909316845291905290205460ff1690565b601480546106169061114c565b6000828152602081905260409020600101546109a281336109d1565b6105cd8383610ab9565b7f360894a13ba1a3210667c828492db98dca3e2076cc3735a920a3ca505d382bbc5490565b6109db8282610950565b610780576109f3816001600160a01b03166014610bcf565b6109fe836020610bcf565b604051602001610a0f92919061102c565b60408051601f198184030181529082905262461bcd60e51b82526101ae9160040161109b565b610a3f8282610950565b610780576000828152602081815260408083206001600160a01b03851684529091529020805460ff19166001179055610a753390565b6001600160a01b0316816001600160a01b0316837f2f8788117e7eff1d82e926ec794901d17c78024a50270940304540a733656f0d60405160405180910390a45050565b610ac38282610950565b15610780576000828152602081815260408083206001600160a01b0385168085529252808320805460ff1916905551339285917ff6391f5c32d9c69d2a47ea670b442974b53935d1edc7fd64eb21e047a839171b9190a45050565b803b610ba15760405162461bcd60e51b815260206004820152604660248201527f50726f7879426173653a2043616e6e6f742073657420612070726f787920696d60448201527f706c656d656e746174696f6e20746f2061206e6f6e2d636f6e7472616374206160648201526564647265737360d01b608482015260a4016101ae565b7f360894a13ba1a3210667c828492db98dca3e2076cc3735a920a3ca505d382bbc55565b6107808282610a35565b60606000610bde8360026110e6565b610be99060026110ce565b67ffffffffffffffff811115610c0f57634e487b7160e01b600052604160045260246000fd5b6040519080825280601f01601f191660200182016040528015610c39576020820181803683370190505b509050600360fc1b81600081518110610c6257634e487b7160e01b600052603260045260246000fd5b60200101906001600160f81b031916908160001a905350600f60fb1b81600181518110610c9f57634e487b7160e01b600052603260045260246000fd5b60200101906001600160f81b031916908160001a9053506000610cc38460026110e6565b610cce9060016110ce565b90505b6001811115610d62576f181899199a1a9b1b9c1cb0b131b232b360811b85600f1660108110610d1057634e487b7160e01b600052603260045260246000fd5b1a60f81b828281518110610d3457634e487b7160e01b600052603260045260246000fd5b60200101906001600160f81b031916908160001a90535060049490941c93610d5b81611135565b9050610cd1565b508315610db15760405162461bcd60e51b815260206004820181905260248201527f537472696e67733a20686578206c656e67746820696e73756666696369656e7460448201526064016101ae565b9392505050565b828054610dc49061114c565b90600052602060002090601f016020900481019282610de65760008555610e2c565b82601f10610dff57805160ff1916838001178555610e2c565b82800160010185558215610e2c579182015b82811115610e2c578251825591602001919060010190610e11565b50610e38929150610e3c565b5090565b5b80821115610e385760008155600101610e3d565b80356001600160a01b0381168114610e6857600080fd5b919050565b600082601f830112610e7d578081fd5b813567ffffffffffffffff80821115610e9857610e9861119d565b604051601f8301601f19908116603f01168101908282118183101715610ec057610ec061119d565b81604052838152866020858801011115610ed8578485fd5b8360208701602083013792830160200193909352509392505050565b600060208284031215610f05578081fd5b610db182610e51565b60008060408385031215610f20578081fd5b610f2983610e51565b946020939093013593505050565b600060208284031215610f48578081fd5b81358015158114610db1578182fd5b600060208284031215610f68578081fd5b5035919050565b60008060408385031215610f81578182fd5b82359150610f9160208401610e51565b90509250929050565b600060208284031215610fab578081fd5b81356001600160e01b031981168114610db1578182fd5b600080600060608486031215610fd6578081fd5b833567ffffffffffffffff80821115610fed578283fd5b610ff987838801610e6d565b9450602086013591508082111561100e578283fd5b5061101b86828701610e6d565b925050604084013590509250925092565b76020b1b1b2b9b9a1b7b73a3937b61d1030b1b1b7bab73a1604d1b81526000835161105e816017850160208801611105565b7001034b99036b4b9b9b4b733903937b6329607d1b601791840191820152835161108f816028840160208801611105565b01602801949350505050565b60208152600082518060208401526110ba816040850160208701611105565b601f01601f19169190910160400192915050565b600082198211156110e1576110e1611187565b500190565b600081600019048311821515161561110057611100611187565b500290565b60005b83811015611120578181015183820152602001611108565b8381111561112f576000848401525b50505050565b60008161114457611144611187565b506000190190565b600181811c9082168061116057607f821691505b6020821081141561118157634e487b7160e01b600052602260045260246000fd5b50919050565b634e487b7160e01b600052601160045260246000fd5b634e487b7160e01b600052604160045260246000fdfea49807205ce4d355092ef5a8a18f56e8913cf4a201fbe287825b095693c21775a2646970667358221220f68e5530025e79ded206fa7e2fcf3a5df19d1369446de4929d2e1b7bcc226f0464736f6c63430008040033",
  "linkReferences": {},
  "deployedLinkReferences": {}
}