{
  "_format": "hh-sol-artifact-1",
  "contractName": "AutoCoinageSnapshot2",
  "sourceName": "contracts/tokens/AutoCoinageSnapshot2.sol",
  "abi": [
    {
      "inputs": [],
      "stateMutability": "nonpayable",
      "type": "constructor"
    },
    {
      "anonymous": false,
      "inputs": [
        {
          "indexed": true,
          "internalType": "address",
          "name": "layer2",
          "type": "address"
        },
        {
          "indexed": true,
          "internalType": "address",
          "name": "account",
          "type": "address"
        }
      ],
      "name": "AddSync",
      "type": "event"
    },
    {
      "anonymous": false,
      "inputs": [
        {
          "indexed": true,
          "internalType": "bytes32",
          "name": "role",
          "type": "bytes32"
        },
        {
          "indexed": true,
          "internalType": "bytes32",
          "name": "previousAdminRole",
          "type": "bytes32"
        },
        {
          "indexed": true,
          "internalType": "bytes32",
          "name": "newAdminRole",
          "type": "bytes32"
        }
      ],
      "name": "RoleAdminChanged",
      "type": "event"
    },
    {
      "anonymous": false,
      "inputs": [
        {
          "indexed": true,
          "internalType": "bytes32",
          "name": "role",
          "type": "bytes32"
        },
        {
          "indexed": true,
          "internalType": "address",
          "name": "account",
          "type": "address"
        },
        {
          "indexed": true,
          "internalType": "address",
          "name": "sender",
          "type": "address"
        }
      ],
      "name": "RoleGranted",
      "type": "event"
    },
    {
      "anonymous": false,
      "inputs": [
        {
          "indexed": true,
          "internalType": "bytes32",
          "name": "role",
          "type": "bytes32"
        },
        {
          "indexed": true,
          "internalType": "address",
          "name": "account",
          "type": "address"
        },
        {
          "indexed": true,
          "internalType": "address",
          "name": "sender",
          "type": "address"
        }
      ],
      "name": "RoleRevoked",
      "type": "event"
    },
    {
      "anonymous": false,
      "inputs": [
        {
          "indexed": false,
          "internalType": "uint256",
          "name": "snashotAggregatorId",
          "type": "uint256"
        }
      ],
      "name": "Snapshot",
      "type": "event"
    },
    {
      "anonymous": false,
      "inputs": [
        {
          "indexed": true,
          "internalType": "address",
          "name": "layer2",
          "type": "address"
        },
        {
          "indexed": false,
          "internalType": "uint256",
          "name": "id",
          "type": "uint256"
        }
      ],
      "name": "SnapshotLayer2",
      "type": "event"
    },
    {
      "anonymous": false,
      "inputs": [
        {
          "indexed": true,
          "internalType": "address",
          "name": "layer2",
          "type": "address"
        },
        {
          "indexed": false,
          "internalType": "uint256",
          "name": "id",
          "type": "uint256"
        }
      ],
      "name": "SyncLayer2",
      "type": "event"
    },
    {
      "anonymous": false,
      "inputs": [
        {
          "indexed": true,
          "internalType": "address",
          "name": "layer2",
          "type": "address"
        },
        {
          "indexed": false,
          "internalType": "address",
          "name": "account",
          "type": "address"
        },
        {
          "indexed": false,
          "internalType": "uint256",
          "name": "id",
          "type": "uint256"
        }
      ],
      "name": "SyncLayer2Address",
      "type": "event"
    },
    {
      "anonymous": false,
      "inputs": [
        {
          "indexed": true,
          "internalType": "address",
          "name": "layer2",
          "type": "address"
        },
        {
          "indexed": false,
          "internalType": "uint256",
          "name": "id",
          "type": "uint256"
        }
      ],
      "name": "SyncLayer2Batch",
      "type": "event"
    },
    {
      "inputs": [],
      "name": "ADMIN_ROLE",
      "outputs": [
        {
          "internalType": "bytes32",
          "name": "",
          "type": "bytes32"
        }
      ],
      "stateMutability": "view",
      "type": "function"
    },
    {
      "inputs": [],
      "name": "DEFAULT_ADMIN_ROLE",
      "outputs": [
        {
          "internalType": "bytes32",
          "name": "",
          "type": "bytes32"
        }
      ],
      "stateMutability": "view",
      "type": "function"
    },
    {
      "inputs": [],
      "name": "REFACTOR_BOUNDARY",
      "outputs": [
        {
          "internalType": "uint256",
          "name": "",
          "type": "uint256"
        }
      ],
      "stateMutability": "view",
      "type": "function"
    },
    {
      "inputs": [],
      "name": "REFACTOR_DIVIDER",
      "outputs": [
        {
          "internalType": "uint256",
          "name": "",
          "type": "uint256"
        }
      ],
      "stateMutability": "view",
      "type": "function"
    },
    {
      "inputs": [
        {
          "internalType": "address[]",
          "name": "_layers",
          "type": "address[]"
        }
      ],
      "name": "addLayer2s",
      "outputs": [],
      "stateMutability": "nonpayable",
      "type": "function"
    },
    {
      "inputs": [
        {
          "internalType": "address",
          "name": "layer2",
          "type": "address"
        },
        {
          "internalType": "address",
          "name": "account",
          "type": "address"
        }
      ],
      "name": "addSync",
      "outputs": [
        {
          "internalType": "uint256",
          "name": "",
          "type": "uint256"
        }
      ],
      "stateMutability": "nonpayable",
      "type": "function"
    },
    {
      "inputs": [
        {
          "internalType": "address",
          "name": "owner",
          "type": "address"
        },
        {
          "internalType": "address",
          "name": "spender",
          "type": "address"
        }
      ],
      "name": "allowance",
      "outputs": [
        {
          "internalType": "uint256",
          "name": "",
          "type": "uint256"
        }
      ],
      "stateMutability": "view",
      "type": "function"
    },
    {
      "inputs": [
        {
          "internalType": "uint256",
          "name": "v",
          "type": "uint256"
        },
        {
          "internalType": "uint256",
          "name": "refactoredCount",
          "type": "uint256"
        },
        {
          "internalType": "uint256",
          "name": "_factor",
          "type": "uint256"
        },
        {
          "internalType": "uint256",
          "name": "refactorCount",
          "type": "uint256"
        }
      ],
      "name": "applyFactor",
      "outputs": [
        {
          "internalType": "uint256",
          "name": "",
          "type": "uint256"
        }
      ],
      "stateMutability": "view",
      "type": "function"
    },
    {
      "inputs": [
        {
          "internalType": "address",
          "name": "account",
          "type": "address"
        }
      ],
      "name": "balanceOf",
      "outputs": [
        {
          "internalType": "uint256",
          "name": "",
          "type": "uint256"
        }
      ],
      "stateMutability": "view",
      "type": "function"
    },
    {
      "inputs": [
        {
          "internalType": "address",
          "name": "layer2",
          "type": "address"
        },
        {
          "internalType": "address",
          "name": "account",
          "type": "address"
        }
      ],
      "name": "balanceOf",
      "outputs": [
        {
          "internalType": "uint256",
          "name": "",
          "type": "uint256"
        }
      ],
      "stateMutability": "view",
      "type": "function"
    },
    {
      "inputs": [
        {
          "internalType": "address",
          "name": "account",
          "type": "address"
        },
        {
          "internalType": "uint256",
          "name": "snashotAggregatorId",
          "type": "uint256"
        }
      ],
      "name": "balanceOfAt",
      "outputs": [
        {
          "internalType": "uint256",
          "name": "accountStaked",
          "type": "uint256"
        }
      ],
      "stateMutability": "view",
      "type": "function"
    },
    {
      "inputs": [
        {
          "internalType": "address",
          "name": "layer2",
          "type": "address"
        },
        {
          "internalType": "address",
          "name": "account",
          "type": "address"
        },
        {
          "internalType": "uint256",
          "name": "snapshotId",
          "type": "uint256"
        }
      ],
      "name": "balanceOfAt",
      "outputs": [
        {
          "internalType": "uint256",
          "name": "",
          "type": "uint256"
        }
      ],
      "stateMutability": "view",
      "type": "function"
    },
    {
      "inputs": [
        {
          "internalType": "address",
          "name": "layer2",
          "type": "address"
        },
        {
          "internalType": "address",
          "name": "account",
          "type": "address"
        }
      ],
      "name": "currentAccountBalanceSnapshots",
      "outputs": [
        {
          "internalType": "bool",
          "name": "",
          "type": "bool"
        },
        {
          "internalType": "uint256",
          "name": "",
          "type": "uint256"
        },
        {
          "internalType": "uint256",
          "name": "",
          "type": "uint256"
        },
        {
          "internalType": "uint256",
          "name": "",
          "type": "uint256"
        },
        {
          "internalType": "uint256",
          "name": "",
          "type": "uint256"
        },
        {
          "components": [
            {
              "internalType": "uint256",
              "name": "balance",
              "type": "uint256"
            },
            {
              "internalType": "uint256",
              "name": "refactoredCount",
              "type": "uint256"
            },
            {
              "internalType": "uint256",
              "name": "remain",
              "type": "uint256"
            }
          ],
          "internalType": "struct AutoRefactorCoinageI.Balance",
          "name": "",
          "type": "tuple"
        }
      ],
      "stateMutability": "view",
      "type": "function"
    },
    {
      "inputs": [
        {
          "internalType": "address",
          "name": "layer2",
          "type": "address"
        }
      ],
      "name": "currentFactorSnapshots",
      "outputs": [
        {
          "internalType": "bool",
          "name": "snapshotted",
          "type": "bool"
        },
        {
          "internalType": "uint256",
          "name": "snapShotFactor",
          "type": "uint256"
        },
        {
          "internalType": "uint256",
          "name": "snapShotRefactorCount",
          "type": "uint256"
        },
        {
          "internalType": "uint256",
          "name": "curFactorValue",
          "type": "uint256"
        },
        {
          "internalType": "uint256",
          "name": "curFactor",
          "type": "uint256"
        },
        {
          "internalType": "uint256",
          "name": "curRefactorCount",
          "type": "uint256"
        }
      ],
      "stateMutability": "view",
      "type": "function"
    },
    {
      "inputs": [
        {
          "internalType": "address",
          "name": "",
          "type": "address"
        }
      ],
      "name": "currentLayer2SnapshotId",
      "outputs": [
        {
          "internalType": "uint256",
          "name": "",
          "type": "uint256"
        }
      ],
      "stateMutability": "view",
      "type": "function"
    },
    {
      "inputs": [
        {
          "internalType": "address",
          "name": "layer2",
          "type": "address"
        }
      ],
      "name": "currentTotalSupplySnapshots",
      "outputs": [
        {
          "internalType": "bool",
          "name": "",
          "type": "bool"
        },
        {
          "internalType": "uint256",
          "name": "",
          "type": "uint256"
        },
        {
          "internalType": "uint256",
          "name": "",
          "type": "uint256"
        },
        {
          "internalType": "uint256",
          "name": "",
          "type": "uint256"
        },
        {
          "internalType": "uint256",
          "name": "",
          "type": "uint256"
        },
        {
          "components": [
            {
              "internalType": "uint256",
              "name": "balance",
              "type": "uint256"
            },
            {
              "internalType": "uint256",
              "name": "refactoredCount",
              "type": "uint256"
            },
            {
              "internalType": "uint256",
              "name": "remain",
              "type": "uint256"
            }
          ],
          "internalType": "struct AutoRefactorCoinageI.Balance",
          "name": "",
          "type": "tuple"
        }
      ],
      "stateMutability": "view",
      "type": "function"
    },
    {
      "inputs": [],
      "name": "decimals",
      "outputs": [
        {
          "internalType": "uint256",
          "name": "",
          "type": "uint256"
        }
      ],
      "stateMutability": "view",
      "type": "function"
    },
    {
      "inputs": [
        {
          "internalType": "address",
          "name": "_layer",
          "type": "address"
        }
      ],
      "name": "delLayer2",
      "outputs": [],
      "stateMutability": "nonpayable",
      "type": "function"
    },
    {
      "inputs": [
        {
          "internalType": "address",
          "name": "",
          "type": "address"
        }
      ],
      "name": "existLayer2s",
      "outputs": [
        {
          "internalType": "bool",
          "name": "",
          "type": "bool"
        }
      ],
      "stateMutability": "view",
      "type": "function"
    },
    {
      "inputs": [
        {
          "internalType": "uint256",
          "name": "id",
          "type": "uint256"
        },
        {
          "internalType": "address",
          "name": "layer2",
          "type": "address"
        },
        {
          "internalType": "address",
          "name": "account",
          "type": "address"
        }
      ],
      "name": "getAccountBalanceSnapsByIds",
      "outputs": [
        {
          "internalType": "uint256",
          "name": "",
          "type": "uint256"
        },
        {
          "internalType": "uint256",
          "name": "",
          "type": "uint256"
        },
        {
          "internalType": "uint256",
          "name": "",
          "type": "uint256"
        },
        {
          "internalType": "uint256",
          "name": "",
          "type": "uint256"
        }
      ],
      "stateMutability": "view",
      "type": "function"
    },
    {
      "inputs": [
        {
          "internalType": "uint256",
          "name": "snapshotId",
          "type": "uint256"
        },
        {
          "internalType": "address",
          "name": "layer2",
          "type": "address"
        },
        {
          "internalType": "address",
          "name": "account",
          "type": "address"
        }
      ],
      "name": "getAccountBalanceSnapsBySnapshotId",
      "outputs": [
        {
          "internalType": "uint256",
          "name": "",
          "type": "uint256"
        },
        {
          "internalType": "uint256",
          "name": "",
          "type": "uint256"
        },
        {
          "internalType": "uint256",
          "name": "",
          "type": "uint256"
        },
        {
          "internalType": "uint256",
          "name": "",
          "type": "uint256"
        }
      ],
      "stateMutability": "view",
      "type": "function"
    },
    {
      "inputs": [
        {
          "internalType": "address",
          "name": "account",
          "type": "address"
        }
      ],
      "name": "getBalanceOfInTokamak",
      "outputs": [
        {
          "internalType": "uint256",
          "name": "accountAmount",
          "type": "uint256"
        }
      ],
      "stateMutability": "view",
      "type": "function"
    },
    {
      "inputs": [
        {
          "internalType": "address",
          "name": "layer2",
          "type": "address"
        }
      ],
      "name": "getCurrentLayer2SnapshotId",
      "outputs": [
        {
          "internalType": "uint256",
          "name": "",
          "type": "uint256"
        }
      ],
      "stateMutability": "view",
      "type": "function"
    },
    {
      "inputs": [
        {
          "internalType": "address",
          "name": "layer2",
          "type": "address"
        },
        {
          "internalType": "address",
          "name": "user",
          "type": "address"
        }
      ],
      "name": "getLayer2BalanceOfInTokamak",
      "outputs": [
        {
          "internalType": "uint256",
          "name": "balanceOfLayer2Amount",
          "type": "uint256"
        },
        {
          "internalType": "uint256",
          "name": "balance",
          "type": "uint256"
        },
        {
          "internalType": "uint256",
          "name": "refactoredCount",
          "type": "uint256"
        },
        {
          "internalType": "uint256",
          "name": "remain",
          "type": "uint256"
        }
      ],
      "stateMutability": "view",
      "type": "function"
    },
    {
      "inputs": [
        {
          "internalType": "address",
          "name": "layer2",
          "type": "address"
        }
      ],
      "name": "getLayer2TotalSupplyInTokamak",
      "outputs": [
        {
          "internalType": "uint256",
          "name": "totalSupplyLayer2",
          "type": "uint256"
        },
        {
          "internalType": "uint256",
          "name": "balance",
          "type": "uint256"
        },
        {
          "internalType": "uint256",
          "name": "refactoredCount",
          "type": "uint256"
        },
        {
          "internalType": "uint256",
          "name": "remain",
          "type": "uint256"
        }
      ],
      "stateMutability": "view",
      "type": "function"
    },
    {
      "inputs": [
        {
          "internalType": "bytes32",
          "name": "role",
          "type": "bytes32"
        }
      ],
      "name": "getRoleAdmin",
      "outputs": [
        {
          "internalType": "bytes32",
          "name": "",
          "type": "bytes32"
        }
      ],
      "stateMutability": "view",
      "type": "function"
    },
    {
      "inputs": [],
      "name": "getTotalStakedInTokamak",
      "outputs": [
        {
          "internalType": "uint256",
          "name": "accountAmount",
          "type": "uint256"
        }
      ],
      "stateMutability": "view",
      "type": "function"
    },
    {
      "inputs": [
        {
          "internalType": "bytes32",
          "name": "role",
          "type": "bytes32"
        },
        {
          "internalType": "address",
          "name": "account",
          "type": "address"
        }
      ],
      "name": "grantRole",
      "outputs": [],
      "stateMutability": "nonpayable",
      "type": "function"
    },
    {
      "inputs": [
        {
          "internalType": "bytes32",
          "name": "role",
          "type": "bytes32"
        },
        {
          "internalType": "address",
          "name": "account",
          "type": "address"
        }
      ],
      "name": "hasRole",
      "outputs": [
        {
          "internalType": "bool",
          "name": "",
          "type": "bool"
        }
      ],
      "stateMutability": "view",
      "type": "function"
    },
    {
      "inputs": [
        {
          "internalType": "address",
          "name": "layer2",
          "type": "address"
        }
      ],
      "name": "lastSnapShotIndex",
      "outputs": [
        {
          "internalType": "uint256",
          "name": "",
          "type": "uint256"
        }
      ],
      "stateMutability": "view",
      "type": "function"
    },
    {
      "inputs": [],
      "name": "layer2Registry",
      "outputs": [
        {
          "internalType": "address",
          "name": "",
          "type": "address"
        }
      ],
      "stateMutability": "view",
      "type": "function"
    },
    {
      "inputs": [
        {
          "internalType": "uint256",
          "name": "",
          "type": "uint256"
        }
      ],
      "name": "layer2s",
      "outputs": [
        {
          "internalType": "address",
          "name": "",
          "type": "address"
        }
      ],
      "stateMutability": "view",
      "type": "function"
    },
    {
      "inputs": [
        {
          "internalType": "uint256",
          "name": "snashotAggregatorId",
          "type": "uint256"
        }
      ],
      "name": "layerSnapshotIds",
      "outputs": [
        {
          "internalType": "address[]",
          "name": "",
          "type": "address[]"
        },
        {
          "internalType": "uint256[]",
          "name": "",
          "type": "uint256[]"
        }
      ],
      "stateMutability": "view",
      "type": "function"
    },
    {
      "inputs": [],
      "name": "migratedL2",
      "outputs": [
        {
          "internalType": "bool",
          "name": "",
          "type": "bool"
        }
      ],
      "stateMutability": "view",
      "type": "function"
    },
    {
      "inputs": [],
      "name": "name",
      "outputs": [
        {
          "internalType": "string",
          "name": "",
          "type": "string"
        }
      ],
      "stateMutability": "view",
      "type": "function"
    },
    {
      "inputs": [
        {
          "internalType": "address",
          "name": "",
          "type": "address"
        },
        {
          "internalType": "uint256",
          "name": "",
          "type": "uint256"
        }
      ],
      "name": "needSyncs",
      "outputs": [
        {
          "internalType": "address",
          "name": "",
          "type": "address"
        }
      ],
      "stateMutability": "view",
      "type": "function"
    },
    {
      "inputs": [],
      "name": "pauseProxy",
      "outputs": [
        {
          "internalType": "bool",
          "name": "",
          "type": "bool"
        }
      ],
      "stateMutability": "view",
      "type": "function"
    },
    {
      "inputs": [
        {
          "internalType": "bytes32",
          "name": "role",
          "type": "bytes32"
        },
        {
          "internalType": "address",
          "name": "account",
          "type": "address"
        }
      ],
      "name": "renounceRole",
      "outputs": [],
      "stateMutability": "nonpayable",
      "type": "function"
    },
    {
      "inputs": [
        {
          "internalType": "bytes32",
          "name": "role",
          "type": "bytes32"
        },
        {
          "internalType": "address",
          "name": "account",
          "type": "address"
        }
      ],
      "name": "revokeRole",
      "outputs": [],
      "stateMutability": "nonpayable",
      "type": "function"
    },
    {
      "inputs": [],
      "name": "seigManager",
      "outputs": [
        {
          "internalType": "address",
          "name": "",
          "type": "address"
        }
      ],
      "stateMutability": "view",
      "type": "function"
    },
    {
      "inputs": [
        {
          "internalType": "address",
          "name": "_seigManager",
          "type": "address"
        },
        {
          "internalType": "address",
          "name": "_layer2Registry",
          "type": "address"
        }
      ],
      "name": "setAddress",
      "outputs": [],
      "stateMutability": "nonpayable",
      "type": "function"
    },
    {
      "inputs": [
        {
          "internalType": "string",
          "name": "name_",
          "type": "string"
        },
        {
          "internalType": "string",
          "name": "symbol_",
          "type": "string"
        },
        {
          "internalType": "uint256",
          "name": "decimals_",
          "type": "uint256"
        }
      ],
      "name": "setNameSymbolDecimals",
      "outputs": [],
      "stateMutability": "nonpayable",
      "type": "function"
    },
    {
      "inputs": [
        {
          "internalType": "address",
          "name": "layer2",
          "type": "address"
        }
      ],
      "name": "snapshot",
      "outputs": [
        {
          "internalType": "uint256",
          "name": "",
          "type": "uint256"
        }
      ],
      "stateMutability": "nonpayable",
      "type": "function"
    },
    {
      "inputs": [],
      "name": "snapshot",
      "outputs": [
        {
          "internalType": "uint256",
          "name": "",
          "type": "uint256"
        }
      ],
      "stateMutability": "nonpayable",
      "type": "function"
    },
    {
      "inputs": [],
      "name": "snashotAggregatorTotal",
      "outputs": [
        {
          "internalType": "uint256",
          "name": "",
          "type": "uint256"
        }
      ],
      "stateMutability": "view",
      "type": "function"
    },
    {
      "inputs": [
        {
          "internalType": "address",
          "name": "account",
          "type": "address"
        },
        {
          "internalType": "uint256",
          "name": "snashotAggregatorId",
          "type": "uint256"
        }
      ],
      "name": "stakedAmountWithSnashotAggregator",
      "outputs": [
        {
          "internalType": "uint256",
          "name": "accountStaked",
          "type": "uint256"
        },
        {
          "internalType": "uint256",
          "name": "totalStaked",
          "type": "uint256"
        }
      ],
      "stateMutability": "view",
      "type": "function"
    },
    {
      "inputs": [
        {
          "internalType": "bytes4",
          "name": "interfaceId",
          "type": "bytes4"
        }
      ],
      "name": "supportsInterface",
      "outputs": [
        {
          "internalType": "bool",
          "name": "",
          "type": "bool"
        }
      ],
      "stateMutability": "view",
      "type": "function"
    },
    {
      "inputs": [],
      "name": "symbol",
      "outputs": [
        {
          "internalType": "string",
          "name": "",
          "type": "string"
        }
      ],
      "stateMutability": "view",
      "type": "function"
    },
    {
      "inputs": [
        {
          "internalType": "address",
          "name": "layer2",
          "type": "address"
        },
        {
          "internalType": "address",
          "name": "account",
          "type": "address"
        }
      ],
      "name": "sync",
      "outputs": [
        {
          "internalType": "uint256",
          "name": "",
          "type": "uint256"
        }
      ],
      "stateMutability": "nonpayable",
      "type": "function"
    },
    {
      "inputs": [
        {
          "internalType": "address",
          "name": "layer2",
          "type": "address"
        }
      ],
      "name": "sync",
      "outputs": [
        {
          "internalType": "uint256",
          "name": "",
          "type": "uint256"
        }
      ],
      "stateMutability": "nonpayable",
      "type": "function"
    },
    {
      "inputs": [
        {
          "internalType": "address",
          "name": "layer2",
          "type": "address"
        },
        {
          "internalType": "address[]",
          "name": "accounts",
          "type": "address[]"
        },
        {
          "internalType": "uint256[]",
          "name": "balances",
          "type": "uint256[]"
        },
        {
          "internalType": "uint256[]",
          "name": "refactoredCounts",
          "type": "uint256[]"
        },
        {
          "internalType": "uint256[]",
          "name": "remains",
          "type": "uint256[]"
        },
        {
          "internalType": "uint256[3]",
          "name": "layerTotal",
          "type": "uint256[3]"
        },
        {
          "internalType": "uint256[2]",
          "name": "layerFactor",
          "type": "uint256[2]"
        }
      ],
      "name": "syncBactchOffline",
      "outputs": [
        {
          "internalType": "bool",
          "name": "",
          "type": "bool"
        }
      ],
      "stateMutability": "nonpayable",
      "type": "function"
    },
    {
      "inputs": [
        {
          "internalType": "address",
          "name": "layer2",
          "type": "address"
        },
        {
          "internalType": "address[]",
          "name": "accounts",
          "type": "address[]"
        }
      ],
      "name": "syncBatch",
      "outputs": [
        {
          "internalType": "uint256",
          "name": "",
          "type": "uint256"
        }
      ],
      "stateMutability": "nonpayable",
      "type": "function"
    },
    {
      "inputs": [],
      "name": "totalSupply",
      "outputs": [
        {
          "internalType": "uint256",
          "name": "",
          "type": "uint256"
        }
      ],
      "stateMutability": "view",
      "type": "function"
    },
    {
      "inputs": [
        {
          "internalType": "address",
          "name": "layer2",
          "type": "address"
        }
      ],
      "name": "totalSupply",
      "outputs": [
        {
          "internalType": "uint256",
          "name": "",
          "type": "uint256"
        }
      ],
      "stateMutability": "view",
      "type": "function"
    },
    {
      "inputs": [
        {
          "internalType": "address",
          "name": "layer2",
          "type": "address"
        },
        {
          "internalType": "uint256",
          "name": "snapshotId",
          "type": "uint256"
        }
      ],
      "name": "totalSupplyAt",
      "outputs": [
        {
          "internalType": "uint256",
          "name": "",
          "type": "uint256"
        }
      ],
      "stateMutability": "view",
      "type": "function"
    },
    {
      "inputs": [
        {
          "internalType": "uint256",
          "name": "snashotAggregatorId",
          "type": "uint256"
        }
      ],
      "name": "totalSupplyAt",
      "outputs": [
        {
          "internalType": "uint256",
          "name": "totalStaked",
          "type": "uint256"
        }
      ],
      "stateMutability": "view",
      "type": "function"
    },
    {
      "inputs": [
        {
          "internalType": "address",
          "name": "recipient",
          "type": "address"
        },
        {
          "internalType": "uint256",
          "name": "amount",
          "type": "uint256"
        }
      ],
      "name": "transfer",
      "outputs": [
        {
          "internalType": "bool",
          "name": "",
          "type": "bool"
        }
      ],
      "stateMutability": "nonpayable",
      "type": "function"
    },
    {
      "inputs": [
        {
          "internalType": "address",
          "name": "sender",
          "type": "address"
        },
        {
          "internalType": "address",
          "name": "recipient",
          "type": "address"
        },
        {
          "internalType": "uint256",
          "name": "amount",
          "type": "uint256"
        }
      ],
      "name": "transferFrom",
      "outputs": [
        {
          "internalType": "bool",
          "name": "",
          "type": "bool"
        }
      ],
      "stateMutability": "nonpayable",
      "type": "function"
    }
  ],
  "bytecode": "0x60806040526b204fce5e3e25026110000000600155600280553480156200002557600080fd5b506200003360003362000065565b6200005f7fa49807205ce4d355092ef5a8a18f56e8913cf4a201fbe287825b095693c217753362000065565b62000115565b62000071828262000075565b5050565b6000828152602081815260408083206001600160a01b038516845290915290205460ff1662000071576000828152602081815260408083206001600160a01b03851684529091529020805460ff19166001179055620000d13390565b6001600160a01b0316816001600160a01b0316837f2f8788117e7eff1d82e926ec794901d17c78024a50270940304540a733656f0d60405160405180910390a45050565b615a5f80620001256000396000f3fe608060405234801561001057600080fd5b506004361061030c5760003560e01c806370a082311161019e578063ac16cd23116100ef578063d0e0707b1161009d578063d0e0707b1461078a578063d547741f1461079d578063dd62ed3e146107b0578063dfb1387b146107be578063e4dc2aa4146107d1578063ec477a90146107e4578063f59e8bb9146107f7578063f7888aec146107ff57600080fd5b8063ac16cd2314610719578063adc7e4f11461072c578063addf90901461073f578063b7c246d714610748578063bc5f878914610751578063bfe64c6614610764578063cf2a239c1461077757600080fd5b806395d89b411161014c57806395d89b41146106b35780639711715a146106bb578063981b24d0146106c3578063a1f5f50e146106d6578063a217fddf146106e8578063a5841194146106f0578063a9059cbb1461070357600080fd5b806370a08231146105fd57806373ba69881461061057806375b238fc146106525780637ae392631461066757806382799e371461067a5780638d51c0e21461068d57806391d14854146106a057600080fd5b80632f2ff15d11610263578063407faa9611610211578063407faa961461054e5780634ee2cd7e146105615780635cd3b6d714610574578063614daee41461059757806363a8fd89146105aa578063657db629146105b75780636ec0b7f2146105ca5780636fb7f558146105dd57600080fd5b80632f2ff15d146104c55780632f5eddcb146104d85780633041949b146104eb578063313ce567146104fe57806336568abe146105075780633a30d6d71461051a5780633b58524d1461053b57600080fd5b80631e3a0ddd116102c05780631e3a0ddd146104195780631e4d15f71461042c57806323b872dd14610441578063248a9ca31461045457806326512160146104775780632bd1f9481461048a5780632d1197731461049d57600080fd5b8062d87a9c14610311578062f08e461461032d57806301ffc9a71461034d578063043cd82f1461037057806306fdde03146103a35780630d55c7ac146103b857806318160ddd14610411575b600080fd5b61031a60025481565b6040519081526020015b60405180910390f35b61031a61033b366004615313565b600c6020526000908152604090205481565b61036061035b366004615586565b610812565b6040519015158152602001610324565b61038361037e36600461534b565b610849565b604080519485526020850193909352918301526060820152608001610324565b6103ab610a1c565b60405161032491906157f4565b6103cb6103c636600461534b565b610aaa565b6040805196151587526020808801969096528681019490945260608601929092526080850152805160a08501529182015160c0840152015160e082015261010001610324565b61031a610cf1565b61031a610427366004615313565b610e2c565b61043f61043a3660046155ae565b610e47565b005b61036061044f366004615383565b610e90565b61031a61046236600461554a565b60009081526020819052604090206001015490565b61031a610485366004615313565b610e9a565b61031a6104983660046153c3565b610ea5565b6104b06104ab3660046154ed565b6112ec565b60408051928352602083019190915201610324565b61043f6104d3366004615562565b6114dd565b6103cb6104e6366004615313565b611508565b61031a6104f936600461534b565b611726565b61031a60155481565b61043f610515366004615562565b611b07565b61052d61052836600461554a565b611b85565b60405161032492919061577e565b61043f61054936600461534b565b611c6a565b61038361055c366004615689565b611d0d565b61031a61056f3660046154ed565b611f17565b610360610582366004615313565b60176020526000908152604090205460ff1681565b61043f6105a5366004615313565b612087565b600f546103609060ff1681565b6103606105c5366004615410565b612469565b61031a6105d8366004615313565b6126ea565b6003546105f0906001600160a01b031681565b604051610324919061576a565b61031a61060b366004615313565b612932565b61062361061e366004615313565b612aea565b6040805196151587526020870195909552938501929092526060840152608083015260a082015260c001610324565b61031a6000805160206159ea83398151915281565b6105f061067536600461554a565b612d24565b61031a6106883660046154ed565b612d4e565b6105f061069b3660046154ed565b612ee1565b6103606106ae366004615562565b612f19565b6103ab612f42565b61031a612f4f565b61031a6106d136600461554a565b61352e565b600f5461036090610100900460ff1681565b61031a600081565b61031a6106fe366004615313565b61366d565b6103606107113660046154ed565b600092915050565b61031a6107273660046156ca565b61397d565b61031a61073a36600461534b565b6139d0565b61031a600e5481565b61031a60015481565b61038361075f366004615313565b613bd7565b61031a610772366004615383565b613d8b565b6004546105f0906001600160a01b031681565b61031a610798366004615313565b613e12565b61043f6107ab366004615562565b613e5c565b61031a61071136600461534b565b61043f6107cc366004615518565b613e82565b61031a6107df366004615313565b613fcb565b6103836107f2366004615689565b613fda565b61031a6140e2565b61031a61080d36600461534b565b61431d565b60006001600160e01b03198216637965db0b60e01b148061084357506301ffc9a760e01b6001600160e01b03198316145b92915050565b600354604051634c063c1960e01b815260009182918291829182916001600160a01b031690634c063c1990610882908a9060040161576a565b60206040518083038186803b15801561089a57600080fd5b505afa1580156108ae573d6000803e3d6000fd5b505050506040513d601f19601f820116820180604052508101906108d2919061532f565b90506001600160a01b0381166109035760405162461bcd60e51b81526004016108fa90615827565b60405180910390fd5b6040516370a0823160e01b81526001600160a01b038216906370a082319061092f90899060040161576a565b60206040518083038186803b15801561094757600080fd5b505afa15801561095b573d6000803e3d6000fd5b505050506040513d601f19601f8201168201806040525081019061097f9190615671565b94506000816001600160a01b03166327e235e3886040518263ffffffff1660e01b81526004016109af919061576a565b60606040518083038186803b1580156109c757600080fd5b505afa1580156109db573d6000803e3d6000fd5b505050506040513d601f19601f820116820180604052508101906109ff9190615617565b80516020820151604090920151979a909950909750945050505050565b60138054610a2990615952565b80601f0160208091040260200160405190810160405280929190818152602001828054610a5590615952565b8015610aa25780601f10610a7757610100808354040283529160200191610aa2565b820191906000526020600020905b815481529060010190602001808311610a8557829003601f168201915b505050505081565b6000806000806000610ad660405180606001604052806000815260200160008152602001600081525090565b600354604051634c063c1960e01b81526000916001600160a01b031690634c063c1990610b07908c9060040161576a565b60206040518083038186803b158015610b1f57600080fd5b505afa158015610b33573d6000803e3d6000fd5b505050506040513d601f19601f82011682018060405250810190610b57919061532f565b90506001600160a01b038116610b7f5760405162461bcd60e51b81526004016108fa90615827565b6040516370a0823160e01b81526000906001600160a01b038316906370a0823190610bae908c9060040161576a565b60206040518083038186803b158015610bc657600080fd5b505afa158015610bda573d6000803e3d6000fd5b505050506040513d601f19601f82011682018060405250810190610bfe9190615671565b90506000826001600160a01b03166327e235e38b6040518263ffffffff1660e01b8152600401610c2e919061576a565b60606040518083038186803b158015610c4657600080fd5b505afa158015610c5a573d6000803e3d6000fd5b505050506040513d601f19601f82011682018060405250810190610c7e9190615617565b6001600160a01b03808d166000908152600560209081526040808320938f1683529290529081209192508b908d90808080610cc385610cbc81610e2c565b898961432d565b9350935093509350838383838c8c9f509f509f509f509f509f50505050505050505050509295509295509295565b6004805460408051630d42d49760e01b8152905160009384936001600160a01b031692630d42d4979281830192602092829003018186803b158015610d3557600080fd5b505afa158015610d49573d6000803e3d6000fd5b505050506040513d601f19601f82011682018060405250810190610d6d9190615671565b90506000805b82811015610e25576004805460405163b7ffb17960e01b81529182018390526000916001600160a01b039091169063b7ffb1799060240160206040518083038186803b158015610dc257600080fd5b505afa158015610dd6573d6000803e3d6000fd5b505050506040513d601f19601f82011682018060405250810190610dfa919061532f565b9050610e0581613fcb565b610e0f90846158a1565b9250508080610e1d9061598d565b915050610d73565b5092915050565b6001600160a01b03166000908152600c602052604090205490565b6000805160206159ea833981519152610e608133614433565b8351610e73906013906020870190615034565b508251610e87906014906020860190615034565b50506015555050565b60005b9392505050565b600061084382614497565b600354604051634c063c1960e01b815260009182916001600160a01b0390911690634c063c1990610eda90879060040161576a565b60206040518083038186803b158015610ef257600080fd5b505afa158015610f06573d6000803e3d6000fd5b505050506040513d601f19601f82011682018060405250810190610f2a919061532f565b90506001600160a01b038116610f525760405162461bcd60e51b81526004016108fa90615827565b6000835111610f935760405162461bcd60e51b815260206004820152600d60248201526c7a65726f206163636f756e747360981b60448201526064016108fa565b6000610f9e85614497565b905060005b84518110156110a6576000836001600160a01b03166327e235e3878481518110610fdd57634e487b7160e01b600052603260045260246000fd5b60200260200101516040518263ffffffff1660e01b8152600401611001919061576a565b60606040518083038186803b15801561101957600080fd5b505afa15801561102d573d6000803e3d6000fd5b505050506040513d601f19601f820116820180604052508101906110519190615617565b90506110938787848151811061107757634e487b7160e01b600052603260045260246000fd5b6020026020010151836000015184602001518560400151614517565b508061109e8161598d565b915050610fa3565b506000826001600160a01b0316633eaaf86b6040518163ffffffff1660e01b815260040160606040518083038186803b1580156110e257600080fd5b505afa1580156110f6573d6000803e3d6000fd5b505050506040513d601f19601f8201168201806040525081019061111a9190615617565b90506000836001600160a01b0316636d1506116040518163ffffffff1660e01b815260040160206040518083038186803b15801561115757600080fd5b505afa15801561116b573d6000803e3d6000fd5b505050506040513d601f19601f8201168201806040525081019061118f9190615671565b90506000846001600160a01b031663a7ac30b06040518163ffffffff1660e01b815260040160206040518083038186803b1580156111cc57600080fd5b505afa1580156111e0573d6000803e3d6000fd5b505050506040513d601f19601f820116820180604052508101906112049190615671565b905061121e88846000015185602001518660400151614552565b611229888383614585565b6001600160a01b03881660009081526017602052604090205460ff1661129d576001600160a01b0388166000818152601760205260408120805460ff19166001908117909155601680549182018155909152600080516020615a0a8339815191520180546001600160a01b03191690911790555b876001600160a01b03167f54b36655ff56a4809739822494dc31812800269f5898e01b2b0304b07292e9b5856040516112d891815260200190565b60405180910390a250919695505050505050565b600e54600090819083116114d6576000838152600d6020908152604080832081518154606094810282018501845292810183815290939192849284919084018282801561136257602002820191906000526020600020905b81546001600160a01b03168152600190910190602001808311611344575b50505050508152602001600182018054806020026020016040519081016040528092919081815260200182805480156113ba57602002820191906000526020600020905b8154815260200190600101908083116113a6575b505050919092525050815151919250506113db5760008092509250506114d6565b60005b8151518110156114d3576114498260000151828151811061140f57634e487b7160e01b600052603260045260246000fd5b6020026020010151878460200151848151811061143c57634e487b7160e01b600052603260045260246000fd5b6020026020010151613d8b565b61145390856158a1565b93506114b58260000151828151811061147c57634e487b7160e01b600052603260045260246000fd5b6020026020010151836020015183815181106114a857634e487b7160e01b600052603260045260246000fd5b6020026020010151612d4e565b6114bf90846158a1565b9250806114cb8161598d565b9150506113de565b50505b9250929050565b6000828152602081905260409020600101546114f98133614433565b61150383836145aa565b505050565b600080600080600061153460405180606001604052806000815260200160008152602001600081525090565b600354604051634c063c1960e01b81526000916001600160a01b031690634c063c1990611565908b9060040161576a565b60206040518083038186803b15801561157d57600080fd5b505afa158015611591573d6000803e3d6000fd5b505050506040513d601f19601f820116820180604052508101906115b5919061532f565b90506001600160a01b0381166115dd5760405162461bcd60e51b81526004016108fa90615827565b6000816001600160a01b03166318160ddd6040518163ffffffff1660e01b815260040160206040518083038186803b15801561161857600080fd5b505afa15801561162c573d6000803e3d6000fd5b505050506040513d601f19601f820116820180604052508101906116509190615671565b90506000826001600160a01b0316633eaaf86b6040518163ffffffff1660e01b815260040160606040518083038186803b15801561168d57600080fd5b505afa1580156116a1573d6000803e3d6000fd5b505050506040513d601f19601f820116820180604052508101906116c59190615617565b6001600160a01b038b1660009081526008602052604081209192508b908080806116fa856116f281610e2c565b88600061432d565b9350935093509350838383838b8b9e509e509e509e509e509e5050505050505050505091939550919395565b600354604051634c063c1960e01b815260009182916001600160a01b0390911690634c063c199061175b90879060040161576a565b60206040518083038186803b15801561177357600080fd5b505afa158015611787573d6000803e3d6000fd5b505050506040513d601f19601f820116820180604052508101906117ab919061532f565b90506001600160a01b0381166117d35760405162461bcd60e51b81526004016108fa90615827565b6001600160a01b0383166118185760405162461bcd60e51b815260206004820152600c60248201526b1e995c9bc81858d8dbdd5b9d60a21b60448201526064016108fa565b6040516327e235e360e01b81526000906001600160a01b038316906327e235e39061184790879060040161576a565b60606040518083038186803b15801561185f57600080fd5b505afa158015611873573d6000803e3d6000fd5b505050506040513d601f19601f820116820180604052508101906118979190615617565b90506000826001600160a01b0316633eaaf86b6040518163ffffffff1660e01b815260040160606040518083038186803b1580156118d457600080fd5b505afa1580156118e8573d6000803e3d6000fd5b505050506040513d601f19601f8201168201806040525081019061190c9190615617565b90506000836001600160a01b0316636d1506116040518163ffffffff1660e01b815260040160206040518083038186803b15801561194957600080fd5b505afa15801561195d573d6000803e3d6000fd5b505050506040513d601f19601f820116820180604052508101906119819190615671565b90506000846001600160a01b031663a7ac30b06040518163ffffffff1660e01b815260040160206040518083038186803b1580156119be57600080fd5b505afa1580156119d2573d6000803e3d6000fd5b505050506040513d601f19601f820116820180604052508101906119f69190615671565b90506000611a0389614497565b9050611a1e8989876000015188602001518960400151614517565b611a3689856000015186602001518760400151614552565b611a41898484614585565b6001600160a01b03891660009081526017602052604090205460ff16611ab5576001600160a01b0389166000818152601760205260408120805460ff19166001908117909155601680549182018155909152600080516020615a0a8339815191520180546001600160a01b03191690911790555b604080516001600160a01b038a81168252602082018490528b16917f7fdf6eb9c935ea2cf79bd25cb607af02c6a7b56b043719f9c85fb3ef40f46591910160405180910390a298975050505050505050565b6001600160a01b0381163314611b775760405162461bcd60e51b815260206004820152602f60248201527f416363657373436f6e74726f6c3a2063616e206f6e6c792072656e6f756e636560448201526e103937b632b9903337b91039b2b63360891b60648201526084016108fa565b611b81828261462e565b5050565b6000818152600d60209081526040808320815181549384028101606090810184529281018481529294859490939192918391839083880182828015611bf357602002820191906000526020600020905b81546001600160a01b03168152600190910190602001808311611bd5575b5050505050815260200160018201805480602002602001604051908101604052809291908181526020018280548015611c4b57602002820191906000526020600020905b815481526020019060010190808311611c37575b5050505050815250509050806000015181602001519250925050915091565b6000805160206159ea833981519152611c838133614433565b6001600160a01b03831615801590611ca357506001600160a01b03821615155b611cde5760405162461bcd60e51b815260206004820152600c60248201526b7a65726f206164647265737360a01b60448201526064016108fa565b50600380546001600160a01b039384166001600160a01b03199182161790915560048054929093169116179055565b6001600160a01b038083166000908152600560209081526040808320938516835292815282822083518154606093810282018401865294810185815293948594859485948594939092849290918491840182828015611d8b57602002820191906000526020600020905b815481526020019060010190808311611d77575b5050505050815260200160018201805480602002602001604051908101604052809291908181526020018280548015611de357602002820191906000526020600020905b815481526020019060010190808311611dcf575b50505091909252505081515191925050808910611e9557600080611e128a8a611e0d6001876158f8565b614693565b85519193509150611e246001856158f8565b81518110611e4257634e487b7160e01b600052603260045260246000fd5b60200260200101518460200151600185611e5c91906158f8565b81518110611e7a57634e487b7160e01b600052603260045260246000fd5b60200260200101518383975097509750975050505050611f0e565b600080611ea38a8a8d614693565b9150915083600001518b81518110611ecb57634e487b7160e01b600052603260045260246000fd5b602002602001015184602001518c81518110611ef757634e487b7160e01b600052603260045260246000fd5b602002602001015183839750975097509750505050505b93509350935093565b6000600e548211610843576000828152600d60209081526040808320815181546060948102820185018452928101838152909391928492849190840182828015611f8a57602002820191906000526020600020905b81546001600160a01b03168152600190910190602001808311611f6c575b5050505050815260200160018201805480602002602001604051908101604052809291908181526020018280548015611fe257602002820191906000526020600020905b815481526020019060010190808311611fce575b50505091909252505081515191925050612000576000915050610843565b60005b81515181101561207f576120618260000151828151811061203457634e487b7160e01b600052603260045260246000fd5b6020026020010151868460200151848151811061143c57634e487b7160e01b600052603260045260246000fd5b61206b90846158a1565b9250806120778161598d565b915050612003565b505092915050565b6000805160206159ea8339815191526120a08133614433565b6001600160a01b03821660009081526017602052604090205460ff1615611b81576001600160a01b0382166000908152601760205260409020805460ff1916905560165415611b8157816001600160a01b0316601660008154811061211557634e487b7160e01b600052603260045260246000fd5b6000918252602090912001546001600160a01b031614801561213957506016546001145b1561218357601680548061215d57634e487b7160e01b600052603160045260246000fd5b600082815260209020810160001990810180546001600160a01b03191690550190555050565b816001600160a01b031660166000815481106121af57634e487b7160e01b600052603260045260246000fd5b6000918252602090912001546001600160a01b0316141561227c57601680546121da906001906158f8565b815481106121f857634e487b7160e01b600052603260045260246000fd5b6000918252602082200154601680546001600160a01b0390921692909161222f57634e487b7160e01b600052603260045260246000fd5b9060005260206000200160006101000a8154816001600160a01b0302191690836001600160a01b03160217905550601680548061215d57634e487b7160e01b600052603160045260246000fd5b60165460009061228e906001906158f8565b9050805b801561246357836001600160a01b0316601682815481106122c357634e487b7160e01b600052603260045260246000fd5b6000918252602090912001546001600160a01b03161480156122f257506016546122ef906001906158f8565b81105b156123d35760168054612307906001906158f8565b8154811061232557634e487b7160e01b600052603260045260246000fd5b600091825260209091200154601680546001600160a01b03909216918390811061235f57634e487b7160e01b600052603260045260246000fd5b9060005260206000200160006101000a8154816001600160a01b0302191690836001600160a01b0316021790555060168054806123ac57634e487b7160e01b600052603160045260246000fd5b600082815260209020810160001990810180546001600160a01b0319169055019055612463565b836001600160a01b0316601682815481106123fe57634e487b7160e01b600052603260045260246000fd5b6000918252602090912001546001600160a01b031614801561242d575060165461242a906001906158f8565b81145b156124515760168054806123ac57634e487b7160e01b600052603160045260246000fd5b8061245b8161593b565b915050612292565b50505050565b60006000805160206159ea8339815191526124848133614433565b86518851146124cf5760405162461bcd60e51b815260206004820152601760248201527609cde40c4c2d8c2dcc6cae640e6c2daca40d8cadccee8d604b1b60448201526064016108fa565b85518851146125205760405162461bcd60e51b815260206004820152601f60248201527f4e6f207265666163746f726564436f756e74732073616d65206c656e6774680060448201526064016108fa565b845188511461256a5760405162461bcd60e51b815260206004820152601660248201527509cde40e4cadac2d2dce640e6c2daca40d8cadccee8d60531b60448201526064016108fa565b6001600160a01b03891660009081526017602052604090205460ff166125de576001600160a01b0389166000818152601760205260408120805460ff19166001908117909155601680549182018155909152600080516020615a0a8339815191520180546001600160a01b03191690911790555b6125e789614497565b5060005b88518110156126af5761269d8a8a838151811061261857634e487b7160e01b600052603260045260246000fd5b60200260200101518a848151811061264057634e487b7160e01b600052603260045260246000fd5b60200260200101518a858151811061266857634e487b7160e01b600052603260045260246000fd5b60200260200101518a868151811061269057634e487b7160e01b600052603260045260246000fd5b6020026020010151614517565b806126a78161598d565b9150506125eb565b508351602085015160408601516126c9928c929091614552565b825160208401516126db918b91614585565b50600198975050505050505050565b6004805460408051630d42d49760e01b8152905160009384936001600160a01b031692630d42d4979281830192602092829003018186803b15801561272e57600080fd5b505afa158015612742573d6000803e3d6000fd5b505050506040513d601f19601f820116820180604052508101906127669190615671565b90506000915060005b8181101561292b576004805460405163b7ffb17960e01b81529182018390526000916001600160a01b039091169063b7ffb1799060240160206040518083038186803b1580156127be57600080fd5b505afa1580156127d2573d6000803e3d6000fd5b505050506040513d601f19601f820116820180604052508101906127f6919061532f565b600354604051634c063c1960e01b81529192506000916001600160a01b0390911690634c063c199061282c90859060040161576a565b60206040518083038186803b15801561284457600080fd5b505afa158015612858573d6000803e3d6000fd5b505050506040513d601f19601f8201168201806040525081019061287c919061532f565b90506001600160a01b03811615612916576040516370a0823160e01b81526001600160a01b038216906370a08231906128b990899060040161576a565b60206040518083038186803b1580156128d157600080fd5b505afa1580156128e5573d6000803e3d6000fd5b505050506040513d601f19601f820116820180604052508101906129099190615671565b61291390866158a1565b94505b505080806129239061598d565b91505061276f565b5050919050565b6004805460408051630d42d49760e01b8152905160009384936001600160a01b031692630d42d4979281830192602092829003018186803b15801561297657600080fd5b505afa15801561298a573d6000803e3d6000fd5b505050506040513d601f19601f820116820180604052508101906129ae9190615671565b90506000805b82811015612ae2576004805460405163b7ffb17960e01b81529182018390526000916001600160a01b039091169063b7ffb1799060240160206040518083038186803b158015612a0357600080fd5b505afa158015612a17573d6000803e3d6000fd5b505050506040513d601f19601f82011682018060405250810190612a3b919061532f565b6003546040516367265c3b60e11b81526001600160a01b038084166004830152898116602483015292935091169063ce4cb8769060440160206040518083038186803b158015612a8a57600080fd5b505afa158015612a9e573d6000803e3d6000fd5b505050506040513d601f19601f82011682018060405250810190612ac29190615671565b612acc90846158a1565b9250508080612ada9061598d565b9150506129b4565b509392505050565b600354604051634c063c1960e01b81526000918291829182918291829182916001600160a01b031690634c063c1990612b27908b9060040161576a565b60206040518083038186803b158015612b3f57600080fd5b505afa158015612b53573d6000803e3d6000fd5b505050506040513d601f19601f82011682018060405250810190612b77919061532f565b90506001600160a01b038116612b9f5760405162461bcd60e51b81526004016108fa90615827565b806001600160a01b03166354f703f86040518163ffffffff1660e01b815260040160206040518083038186803b158015612bd857600080fd5b505afa158015612bec573d6000803e3d6000fd5b505050506040513d601f19601f82011682018060405250810190612c109190615671565b9350806001600160a01b0316636d1506116040518163ffffffff1660e01b815260040160206040518083038186803b158015612c4b57600080fd5b505afa158015612c5f573d6000803e3d6000fd5b505050506040513d601f19601f82011682018060405250810190612c839190615671565b9250806001600160a01b031663a7ac30b06040518163ffffffff1660e01b815260040160206040518083038186803b158015612cbe57600080fd5b505afa158015612cd2573d6000803e3d6000fd5b505050506040513d601f19601f82011682018060405250810190612cf69190615671565b91506000612d0389610e2c565b9050612d0f8982614863565b919b909a509098509496509294509092915050565b60168181548110612d3457600080fd5b6000918252602090912001546001600160a01b0316905081565b60008115612dcc57600080600080612d668787614944565b93509350935093506000806000612d7d8a8a614863565b925092509250868015612d8d5750825b15612dbc576000612da08787858561397d565b9050612dac85826158a1565b9850610843975050505050505050565b6000975050505050505050610843565b600354604051634c063c1960e01b81526000916001600160a01b031690634c063c1990612dfd90879060040161576a565b60206040518083038186803b158015612e1557600080fd5b505afa158015612e29573d6000803e3d6000fd5b505050506040513d601f19601f82011682018060405250810190612e4d919061532f565b90506001600160a01b03811615612ed757806001600160a01b03166318160ddd6040518163ffffffff1660e01b815260040160206040518083038186803b158015612e9757600080fd5b505afa158015612eab573d6000803e3d6000fd5b505050506040513d601f19601f82011682018060405250810190612ecf9190615671565b915050610843565b6000915050610843565b60186020528160005260406000208181548110612efd57600080fd5b6000918252602090912001546001600160a01b03169150829050565b6000918252602082815260408084206001600160a01b0393909316845291905290205460ff1690565b60148054610a2990615952565b6004805460408051630d42d49760e01b81529051600093849384936001600160a01b0390911692630d42d49792828101926020929190829003018186803b158015612f9957600080fd5b505afa158015612fad573d6000803e3d6000fd5b505050506040513d601f19601f82011682018060405250810190612fd19190615671565b90506000816001600160401b03811115612ffb57634e487b7160e01b600052604160045260246000fd5b604051908082528060200260200182016040528015613024578160200160208202803683370190505b5090506000826001600160401b0381111561304f57634e487b7160e01b600052604160045260246000fd5b604051908082528060200260200182016040528015613078578160200160208202803683370190505b50600e546000908152600d6020908152604080832081518154606094810282018501845292810183815295965093949092849284918401828280156130e657602002820191906000526020600020905b81546001600160a01b031681526001909101906020018083116130c8575b505050505081526020016001820180548060200260200160405190810160405280929190818152602001828054801561313e57602002820191906000526020600020905b81548152602001906001019080831161312a575b505050505081525050905060005b848110156133f1576004805460405163b7ffb17960e01b81529182018390526000916001600160a01b039091169063b7ffb1799060240160206040518083038186803b15801561319b57600080fd5b505afa1580156131af573d6000803e3d6000fd5b505050506040513d601f19601f820116820180604052508101906131d3919061532f565b6001600160a01b038116600090815260186020526040902054909150156132a75761327b8160186000846001600160a01b03166001600160a01b0316815260200190815260200160002080548060200260200160405190810160405280929190818152602001828054801561327157602002820191906000526020600020905b81546001600160a01b03168152600190910190602001808311613253575b5050505050610ea5565b508661328657600196505b6001600160a01b03811660009081526018602052604081206132a7916150b8565b60006132b282610e2c565b9050818684815181106132d557634e487b7160e01b600052603260045260246000fd5b60200260200101906001600160a01b031690816001600160a01b0316815250508085848151811061331657634e487b7160e01b600052603260045260246000fd5b6020026020010181815250508715801561333257508351518714155b1561334057600197506133dc565b8715801561338b5750816001600160a01b03168460000151848151811061337757634e487b7160e01b600052603260045260246000fd5b60200260200101516001600160a01b031614155b1561339957600197506133dc565b871580156133d2575080846020015184815181106133c757634e487b7160e01b600052603260045260246000fd5b602002602001015114155b156133dc57600197505b505080806133e99061598d565b91505061314c565b5084156134e657600e80549060006134088361598d565b9091555050600e546000908152600d60205260408120905b84518110156134e3578160000185828151811061344d57634e487b7160e01b600052603260045260246000fd5b60209081029190910181015182546001808201855560009485529290932090920180546001600160a01b0319166001600160a01b03909316929092179091558451908301908590839081106134b257634e487b7160e01b600052603260045260246000fd5b60209081029190910181015182546001810184556000938452919092200155806134db8161598d565b915050613420565b50505b7f8030e83b04d87bef53480e26263266d6ca66863aa8506aca6f2559d18aa1cb67600e5460405161351991815260200190565b60405180910390a1600e549550505050505090565b6000600e548211613668576000828152600d602090815260408083208151815460609481028201850184529281018381529093919284928491908401828280156135a157602002820191906000526020600020905b81546001600160a01b03168152600190910190602001808311613583575b50505050508152602001600182018054806020026020016040519081016040528092919081815260200182805480156135f957602002820191906000526020600020905b8154815260200190600101908083116135e5575b505050919092525050815151919250506136165750600092915050565b60005b81515181101561292b5761364a8260000151828151811061147c57634e487b7160e01b600052603260045260246000fd5b61365490846158a1565b9250806136608161598d565b915050613619565b919050565b600354604051634c063c1960e01b815260009182916001600160a01b0390911690634c063c19906136a290869060040161576a565b60206040518083038186803b1580156136ba57600080fd5b505afa1580156136ce573d6000803e3d6000fd5b505050506040513d601f19601f820116820180604052508101906136f2919061532f565b90506001600160a01b03811661371a5760405162461bcd60e51b81526004016108fa90615827565b6000816001600160a01b0316633eaaf86b6040518163ffffffff1660e01b815260040160606040518083038186803b15801561375557600080fd5b505afa158015613769573d6000803e3d6000fd5b505050506040513d601f19601f8201168201806040525081019061378d9190615617565b90506000816000015190506000826020015190506000836040015190506000856001600160a01b0316636d1506116040518163ffffffff1660e01b815260040160206040518083038186803b1580156137e557600080fd5b505afa1580156137f9573d6000803e3d6000fd5b505050506040513d601f19601f8201168201806040525081019061381d9190615671565b90506000866001600160a01b031663a7ac30b06040518163ffffffff1660e01b815260040160206040518083038186803b15801561385a57600080fd5b505afa15801561386e573d6000803e3d6000fd5b505050506040513d601f19601f820116820180604052508101906138929190615671565b6001600160a01b038a1660009081526017602052604090205490915060ff16613909576001600160a01b0389166000818152601760205260408120805460ff19166001908117909155601680549182018155909152600080516020615a0a8339815191520180546001600160a01b03191690911790555b60006139148a614497565b90506139228a878787614552565b61392d8a8484614585565b896001600160a01b03167fe139f378fc973ae310737105ff3843c7852c0e3f90d34fcb5252038e0d206a2a8260405161396891815260200190565b60405180910390a29998505050505050505050565b60008461398c575060006139c8565b6139968584614995565b9450835b828110156139c3576002546139af90876158d9565b9550806139bb8161598d565b91505061399a565b508490505b949350505050565b60006000805160206159ea8339815191526139eb8133614433565b6001600160a01b03841660009081526017602052604090205460ff16613a5f576001600160a01b0384166000818152601760205260408120805460ff19166001908117909155601680549182018155909152600080516020615a0a8339815191520180546001600160a01b03191690911790555b6001600160a01b038416600090815260186020908152604080832080548251818502810185019093528083529192909190830182828015613ac957602002820191906000526020600020905b81546001600160a01b03168152600190910190602001808311613aab575b5050505050905060005b8151811015613b5157846001600160a01b0316828281518110613b0657634e487b7160e01b600052603260045260246000fd5b60200260200101516001600160a01b03161415613b3f5750506001600160a01b0384166000908152601860205260409020549150610e25565b80613b498161598d565b915050613ad3565b506001600160a01b038581166000818152601860209081526040808320805460018101825590845291832090910180546001600160a01b0319169489169485179055517f4ffca0776989e4cc364d956bdf7e244819b0d0c044ee155726107f9ab1a9c9189190a3505050506001600160a01b031660009081526018602052604090205490565b600354604051634c063c1960e01b815260009182918291829182916001600160a01b031690634c063c1990613c1090899060040161576a565b60206040518083038186803b158015613c2857600080fd5b505afa158015613c3c573d6000803e3d6000fd5b505050506040513d601f19601f82011682018060405250810190613c60919061532f565b90506001600160a01b038116613c885760405162461bcd60e51b81526004016108fa90615827565b806001600160a01b03166318160ddd6040518163ffffffff1660e01b815260040160206040518083038186803b158015613cc157600080fd5b505afa158015613cd5573d6000803e3d6000fd5b505050506040513d601f19601f82011682018060405250810190613cf99190615671565b94506000816001600160a01b0316633eaaf86b6040518163ffffffff1660e01b815260040160606040518083038186803b158015613d3657600080fd5b505afa158015613d4a573d6000803e3d6000fd5b505050506040513d601f19601f82011682018060405250810190613d6e9190615617565b805160208201516040909201519799909850909695509350505050565b60008115613e0a57600080600080613da48888886149b8565b93509350935093506000806000613dbb8b8a614863565b925092509250868015613dcb5750825b15613dfa576000613dde8787858561397d565b9050613dea85826158a1565b9850610e93975050505050505050565b6000975050505050505050610e93565b506000610e93565b6001600160a01b038116600090815260086020526040812054613e3757506000919050565b6001600160a01b038216600090815260086020526040902054610843906001906158f8565b600082815260208190526040902060010154613e788133614433565b611503838361462e565b6000805160206159ea833981519152613e9b8133614433565b60005b82518110156115035760176000848381518110613ecb57634e487b7160e01b600052603260045260246000fd5b6020908102919091018101516001600160a01b031682528101919091526040016000205460ff16613fb957600160176000858481518110613f1c57634e487b7160e01b600052603260045260246000fd5b60200260200101516001600160a01b03166001600160a01b0316815260200190815260200160002060006101000a81548160ff0219169083151502179055506016838281518110613f7d57634e487b7160e01b600052603260045260246000fd5b60209081029190910181015182546001810184556000938452919092200180546001600160a01b0319166001600160a01b039092169190911790555b80613fc38161598d565b915050613e9e565b60006108438261068884610e2c565b6001600160a01b038083166000908152600560209081526040808320938516835292905290812080548291829182919061402257600080600080945094509450945050611f0e565b60008811801561403a575061403687610e2c565b8811155b156140ce57600061404b828a614a2c565b905060008061405b8a8a85614693565b9150915083600001838154811061408257634e487b7160e01b600052603260045260246000fd5b90600052602060002001548460010184815481106140b057634e487b7160e01b600052603260045260246000fd5b90600052602060002001548383975097509750975050505050611f0e565b600080600080945094509450945050611f0e565b6004805460408051630d42d49760e01b8152905160009384936001600160a01b031692630d42d4979281830192602092829003018186803b15801561412657600080fd5b505afa15801561413a573d6000803e3d6000fd5b505050506040513d601f19601f8201168201806040525081019061415e9190615671565b90506000915060005b81811015614318576004805460405163b7ffb17960e01b81529182018390526000916001600160a01b039091169063b7ffb1799060240160206040518083038186803b1580156141b657600080fd5b505afa1580156141ca573d6000803e3d6000fd5b505050506040513d601f19601f820116820180604052508101906141ee919061532f565b600354604051634c063c1960e01b81529192506000916001600160a01b0390911690634c063c199061422490859060040161576a565b60206040518083038186803b15801561423c57600080fd5b505afa158015614250573d6000803e3d6000fd5b505050506040513d601f19601f82011682018060405250810190614274919061532f565b90506001600160a01b0381161561430357806001600160a01b03166318160ddd6040518163ffffffff1660e01b815260040160206040518083038186803b1580156142be57600080fd5b505afa1580156142d2573d6000803e3d6000fd5b505050506040513d601f19601f820116820180604052508101906142f69190615671565b61430090866158a1565b94505b505080806143109061598d565b915050614167565b505090565b6000610e93838361077286610e2c565b60008060008060008711801561434b575061434788610e2c565b8711155b1561441b57600061435c8789614a2c565b87549091508114156143e45780156143d0576000806143818b89611e0d6001876158f8565b9092509050600189810161439582866158f8565b815481106143b357634e487b7160e01b600052603260045260246000fd5b906000526020600020015483839650965096509650505050614428565b600080600080945094509450945050614428565b6000806143f28b8985614693565b9150915060018960010184815481106143b357634e487b7160e01b600052603260045260246000fd5b5060009250829150819050805b945094509450949050565b61443d8282612f19565b611b8157614455816001600160a01b03166014614b5c565b614460836020614b5c565b6040516020016144719291906156fb565b60408051601f198184030181529082905262461bcd60e51b82526108fa916004016157f4565b6001600160a01b0381166000908152600c60205260408120805490826144bc8361598d565b919050555060006144cc83610e2c565b9050826001600160a01b03167fe0c22d2a58b4d5f2deade46cc3a0d4dd70def702dde2bb72f79e53981e1c5b208260405161450991815260200190565b60405180910390a292915050565b6001600160a01b03808616600090815260056020908152604080832093881683529290522061454b90869085858589614d3d565b5050505050565b6124638460086000876001600160a01b03166001600160a01b031681526020019081526020016000208585856000614d3d565b6001600160a01b0383166000908152600b602052604090206115039084908484614f19565b6145b48282612f19565b611b81576000828152602081815260408083206001600160a01b03851684529091529020805460ff191660011790556145ea3390565b6001600160a01b0316816001600160a01b0316837f2f8788117e7eff1d82e926ec794901d17c78024a50270940304540a733656f0d60405160405180910390a45050565b6146388282612f19565b15611b81576000828152602081815260408083206001600160a01b0385168085529252808320805460ff1916905551339285917ff6391f5c32d9c69d2a47ea670b442974b53935d1edc7fd64eb21e047a839171b9190a45050565b6000806001600160a01b038416158015906146da57506001600160a01b03808616600090815260066020908152604080832093881683529281528282208683529052205415155b15614714576001600160a01b0380861660009081526006602090815260408083209388168352928152828220868352905220549150614779565b6001600160a01b03841615801561474d57506001600160a01b038516600090815260096020908152604080832086845290915290205415155b15614779576001600160a01b038516600090815260096020908152604080832086845290915290205491505b6001600160a01b038416158015906147bd57506001600160a01b03808616600090815260076020908152604080832093881683529281528282208683529052205415155b156147f657506001600160a01b03808516600090815260076020908152604080832093871683529281528282208583529052205461485b565b6001600160a01b0384161580159061483057506001600160a01b0385166000908152600a6020908152604080832086845290915290205415155b1561485b57506001600160a01b0384166000908152600a602090815260408083208584529091529020545b935093915050565b6001600160a01b0382166000908152600b60205260408120819081908415801590614896575061489286610e2c565b8511155b156149305760006148a78287614a2c565b82549091508114156148c5576000806000945094509450505061493d565b60018260010182815481106148ea57634e487b7160e01b600052603260045260246000fd5b906000526020600020015483600201838154811061491857634e487b7160e01b600052603260045260246000fd5b9060005260206000200154945094509450505061493d565b6000806000935093509350505b9250925092565b6000806000806000806000806149818a8a600860008e6001600160a01b03166001600160a01b03168152602001908152602001600020600061432d565b929d919c509a509098509650505050505050565b60006b033b2e3c9fd0803ce80000006149ae8484614f7c565b610e9391906158b9565b600080600080600080600080614a178b8a600560008f6001600160a01b03166001600160a01b0316815260200190815260200160002060008e6001600160a01b03166001600160a01b031681526020019081526020016000208d61432d565b929e919d509b50909950975050505050505050565b8154600090614a3d57506000610843565b82548390614a4d906001906158f8565b81548110614a6b57634e487b7160e01b600052603260045260246000fd5b90600052602060002001548210614a91578254614a8a906001906158f8565b9050610843565b82600081548110614ab257634e487b7160e01b600052603260045260246000fd5b9060005260206000200154821015614acc57506000610843565b82546000908190614adf906001906158f8565b90505b81811115612ae25760006002614af884846158a1565b614b039060016158a1565b614b0d91906158b9565b905084868281548110614b3057634e487b7160e01b600052603260045260246000fd5b906000526020600020015411614b4857809250614b56565b614b536001826158f8565b91505b50614ae2565b60606000614b6b8360026158d9565b614b769060026158a1565b6001600160401b03811115614b9b57634e487b7160e01b600052604160045260246000fd5b6040519080825280601f01601f191660200182016040528015614bc5576020820181803683370190505b509050600360fc1b81600081518110614bee57634e487b7160e01b600052603260045260246000fd5b60200101906001600160f81b031916908160001a905350600f60fb1b81600181518110614c2b57634e487b7160e01b600052603260045260246000fd5b60200101906001600160f81b031916908160001a9053506000614c4f8460026158d9565b614c5a9060016158a1565b90505b6001811115614cee576f181899199a1a9b1b9c1cb0b131b232b360811b85600f1660108110614c9c57634e487b7160e01b600052603260045260246000fd5b1a60f81b828281518110614cc057634e487b7160e01b600052603260045260246000fd5b60200101906001600160f81b031916908160001a90535060049490941c93614ce78161593b565b9050614c5d565b508315610e935760405162461bcd60e51b815260206004820181905260248201527f537472696e67733a20686578206c656e67746820696e73756666696369656e7460448201526064016108fa565b6000614d4887610e2c565b90506000614d5587614fe3565b905081811015614f0f5786546001818101895560008981526020808220909301859055818a0180549283018155815291909120018690558415801590614da357506001600160a01b03831615155b15614df6576001600160a01b03808916600090815260066020908152604080832093871683529290529081208854879290614de0906001906158f8565b8152602081019190915260400160002055614e4d565b600085118015614e0d57506001600160a01b038316155b15614e4d576001600160a01b03881660009081526009602052604081208854879290614e3b906001906158f8565b81526020810191909152604001600020555b600084118015614e6557506001600160a01b03831615155b15614eb8576001600160a01b03808916600090815260076020908152604080832093871683529290529081208854869290614ea2906001906158f8565b8152602081019190915260400160002055614f0f565b600084118015614ecf57506001600160a01b038316155b15614f0f576001600160a01b0388166000908152600a602052604081208854869290614efd906001906158f8565b81526020810191909152604001600020555b5050505050505050565b6000614f2485610e2c565b905080614f3085614fe3565b101561454b578354600180820186556000868152602080822090930193909355808601805480830182559084528284200194909455600290940180549384018155815292909220015550565b6000811580614fa057508282614f9281836158d9565b9250614f9e90836158b9565b145b6108435760405162461bcd60e51b815260206004820152601460248201527364732d6d6174682d6d756c2d6f766572666c6f7760601b60448201526064016108fa565b8054600090614ff457506000919050565b81548290615004906001906158f8565b8154811061502257634e487b7160e01b600052603260045260246000fd5b90600052602060002001549050919050565b82805461504090615952565b90600052602060002090601f01602090048101928261506257600085556150a8565b82601f1061507b57805160ff19168380011785556150a8565b828001600101855582156150a8579182015b828111156150a857825182559160200191906001019061508d565b506150b49291506150d9565b5090565b50805460008255906000526020600020908101906150d691906150d9565b50565b5b808211156150b457600081556001016150da565b8035613668816159d4565b600082601f830112615109578081fd5b8135602061511e6151198361587e565b61584e565b80838252828201915082860187848660051b890101111561513d578586fd5b855b85811015615164578135615152816159d4565b8452928401929084019060010161513f565b5090979650505050505050565b600082601f830112615181578081fd5b604051604081018181106001600160401b03821117156151a3576151a36159be565b80604052508083856040860111156151b9578384fd5b835b60028110156151da5781358352602092830192909101906001016151bb565b509195945050505050565b600082601f8301126151f5578081fd5b604051606081018181106001600160401b0382111715615217576152176159be565b60405280836060810186101561522b578384fd5b835b60038110156151da57813583526020928301929091019060010161522d565b600082601f83011261525c578081fd5b8135602061526c6151198361587e565b80838252828201915082860187848660051b890101111561528b578586fd5b855b858110156151645781358452928401929084019060010161528d565b600082601f8301126152b9578081fd5b81356001600160401b038111156152d2576152d26159be565b6152e5601f8201601f191660200161584e565b8181528460208386010111156152f9578283fd5b816020850160208301379081016020019190915292915050565b600060208284031215615324578081fd5b8135610e93816159d4565b600060208284031215615340578081fd5b8151610e93816159d4565b6000806040838503121561535d578081fd5b8235615368816159d4565b91506020830135615378816159d4565b809150509250929050565b600080600060608486031215615397578081fd5b83356153a2816159d4565b925060208401356153b2816159d4565b929592945050506040919091013590565b600080604083850312156153d5578182fd5b82356153e0816159d4565b915060208301356001600160401b038111156153fa578182fd5b615406858286016150f9565b9150509250929050565b6000806000806000806000610140888a03121561542b578485fd5b615434886150ee565b965060208801356001600160401b038082111561544f578687fd5b61545b8b838c016150f9565b975060408a0135915080821115615470578687fd5b61547c8b838c0161524c565b965060608a0135915080821115615491578485fd5b61549d8b838c0161524c565b955060808a01359150808211156154b2578485fd5b506154bf8a828b0161524c565b9350506154cf8960a08a016151e5565b91506154df896101008a01615171565b905092959891949750929550565b600080604083850312156154ff578182fd5b823561550a816159d4565b946020939093013593505050565b600060208284031215615529578081fd5b81356001600160401b0381111561553e578182fd5b6139c8848285016150f9565b60006020828403121561555b578081fd5b5035919050565b60008060408385031215615574578182fd5b823591506020830135615378816159d4565b600060208284031215615597578081fd5b81356001600160e01b031981168114610e93578182fd5b6000806000606084860312156155c2578081fd5b83356001600160401b03808211156155d8578283fd5b6155e4878388016152a9565b945060208601359150808211156155f9578283fd5b50615606868287016152a9565b925050604084013590509250925092565b600060608284031215615628578081fd5b604051606081018181106001600160401b038211171561564a5761564a6159be565b80604052508251815260208301516020820152604083015160408201528091505092915050565b600060208284031215615682578081fd5b5051919050565b60008060006060848603121561569d578081fd5b8335925060208401356156af816159d4565b915060408401356156bf816159d4565b809150509250925092565b600080600080608085870312156156df578182fd5b5050823594602084013594506040840135936060013592509050565b76020b1b1b2b9b9a1b7b73a3937b61d1030b1b1b7bab73a1604d1b81526000835161572d81601785016020880161590f565b7001034b99036b4b9b9b4b733903937b6329607d1b601791840191820152835161575e81602884016020880161590f565b01602801949350505050565b6001600160a01b0391909116815260200190565b604080825283519082018190526000906020906060840190828701845b828110156157c05781516001600160a01b03168452928401929084019060010161579b565b50505083810382850152845180825285830191830190845b81811015615164578351835292840192918401916001016157d8565b602081526000825180602084015261581381604085016020870161590f565b601f01601f19169190910160400192915050565b6020808252600d908201526c7a65726f20636f696e6167657360981b604082015260600190565b604051601f8201601f191681016001600160401b0381118282101715615876576158766159be565b604052919050565b60006001600160401b03821115615897576158976159be565b5060051b60200190565b600082198211156158b4576158b46159a8565b500190565b6000826158d457634e487b7160e01b81526012600452602481fd5b500490565b60008160001904831182151516156158f3576158f36159a8565b500290565b60008282101561590a5761590a6159a8565b500390565b60005b8381101561592a578181015183820152602001615912565b838111156124635750506000910152565b60008161594a5761594a6159a8565b506000190190565b600181811c9082168061596657607f821691505b6020821081141561598757634e487b7160e01b600052602260045260246000fd5b50919050565b60006000198214156159a1576159a16159a8565b5060010190565b634e487b7160e01b600052601160045260246000fd5b634e487b7160e01b600052604160045260246000fd5b6001600160a01b03811681146150d657600080fdfea49807205ce4d355092ef5a8a18f56e8913cf4a201fbe287825b095693c21775d833147d7dc355ba459fc788f669e58cfaf9dc25ddcd0702e87d69c7b5124289a26469706673582212200593e00094d854c06b672e259b72590503ce99326e6010855d8eac4ef161ab8264736f6c63430008040033",
  "linkReferences": {},
  "deployedLinkReferences": {}
}