{
  "_format": "hh-sol-artifact-1",
  "contractName": "AutoCoinageSnapshotProxy",
  "sourceName": "contracts/tokens/AutoCoinageSnapshotProxy.sol",
  "abi": [
    {
      "inputs": [],
      "stateMutability": "nonpayable",
      "type": "constructor"
    },
    {
      "anonymous": false,
      "inputs": [
        {
          "indexed": true,
          "internalType": "address",
          "name": "previousOwner",
          "type": "address"
        },
        {
          "indexed": true,
          "internalType": "address",
          "name": "newOwner",
          "type": "address"
        }
      ],
      "name": "OwnershipTransferred",
      "type": "event"
    },
    {
      "anonymous": false,
      "inputs": [
        {
          "indexed": true,
          "internalType": "bytes32",
          "name": "role",
          "type": "bytes32"
        },
        {
          "indexed": true,
          "internalType": "bytes32",
          "name": "previousAdminRole",
          "type": "bytes32"
        },
        {
          "indexed": true,
          "internalType": "bytes32",
          "name": "newAdminRole",
          "type": "bytes32"
        }
      ],
      "name": "RoleAdminChanged",
      "type": "event"
    },
    {
      "anonymous": false,
      "inputs": [
        {
          "indexed": true,
          "internalType": "bytes32",
          "name": "role",
          "type": "bytes32"
        },
        {
          "indexed": true,
          "internalType": "address",
          "name": "account",
          "type": "address"
        },
        {
          "indexed": true,
          "internalType": "address",
          "name": "sender",
          "type": "address"
        }
      ],
      "name": "RoleGranted",
      "type": "event"
    },
    {
      "anonymous": false,
      "inputs": [
        {
          "indexed": true,
          "internalType": "bytes32",
          "name": "role",
          "type": "bytes32"
        },
        {
          "indexed": true,
          "internalType": "address",
          "name": "account",
          "type": "address"
        },
        {
          "indexed": true,
          "internalType": "address",
          "name": "sender",
          "type": "address"
        }
      ],
      "name": "RoleRevoked",
      "type": "event"
    },
    {
      "anonymous": false,
      "inputs": [
        {
          "indexed": true,
          "internalType": "address",
          "name": "implementation",
          "type": "address"
        }
      ],
      "name": "Upgraded",
      "type": "event"
    },
    {
      "stateMutability": "payable",
      "type": "fallback"
    },
    {
      "inputs": [],
      "name": "ADMIN_ROLE",
      "outputs": [
        {
          "internalType": "bytes32",
          "name": "",
          "type": "bytes32"
        }
      ],
      "stateMutability": "view",
      "type": "function"
    },
    {
      "inputs": [],
      "name": "DEFAULT_ADMIN_ROLE",
      "outputs": [
        {
          "internalType": "bytes32",
          "name": "",
          "type": "bytes32"
        }
      ],
      "stateMutability": "view",
      "type": "function"
    },
    {
      "inputs": [],
      "name": "REFACTOR_BOUNDARY",
      "outputs": [
        {
          "internalType": "uint256",
          "name": "",
          "type": "uint256"
        }
      ],
      "stateMutability": "view",
      "type": "function"
    },
    {
      "inputs": [],
      "name": "REFACTOR_DIVIDER",
      "outputs": [
        {
          "internalType": "uint256",
          "name": "",
          "type": "uint256"
        }
      ],
      "stateMutability": "view",
      "type": "function"
    },
    {
      "inputs": [],
      "name": "SNAPSHOT_ROLE",
      "outputs": [
        {
          "internalType": "bytes32",
          "name": "",
          "type": "bytes32"
        }
      ],
      "stateMutability": "view",
      "type": "function"
    },
    {
      "inputs": [],
      "name": "UPDATE_ROLE",
      "outputs": [
        {
          "internalType": "bytes32",
          "name": "",
          "type": "bytes32"
        }
      ],
      "stateMutability": "view",
      "type": "function"
    },
    {
      "inputs": [
        {
          "internalType": "address",
          "name": "_owner",
          "type": "address"
        }
      ],
      "name": "addOwner",
      "outputs": [],
      "stateMutability": "nonpayable",
      "type": "function"
    },
    {
      "inputs": [
        {
          "internalType": "address",
          "name": "",
          "type": "address"
        }
      ],
      "name": "currentLayer2SnapshotId",
      "outputs": [
        {
          "internalType": "uint256",
          "name": "",
          "type": "uint256"
        }
      ],
      "stateMutability": "view",
      "type": "function"
    },
    {
      "inputs": [],
      "name": "decimals",
      "outputs": [
        {
          "internalType": "uint256",
          "name": "",
          "type": "uint256"
        }
      ],
      "stateMutability": "view",
      "type": "function"
    },
    {
      "inputs": [
        {
          "internalType": "address",
          "name": "",
          "type": "address"
        }
      ],
      "name": "existAccounts",
      "outputs": [
        {
          "internalType": "bool",
          "name": "",
          "type": "bool"
        }
      ],
      "stateMutability": "view",
      "type": "function"
    },
    {
      "inputs": [
        {
          "internalType": "address",
          "name": "",
          "type": "address"
        }
      ],
      "name": "existLayer2s",
      "outputs": [
        {
          "internalType": "bool",
          "name": "",
          "type": "bool"
        }
      ],
      "stateMutability": "view",
      "type": "function"
    },
    {
      "inputs": [
        {
          "internalType": "bytes32",
          "name": "role",
          "type": "bytes32"
        }
      ],
      "name": "getRoleAdmin",
      "outputs": [
        {
          "internalType": "bytes32",
          "name": "",
          "type": "bytes32"
        }
      ],
      "stateMutability": "view",
      "type": "function"
    },
    {
      "inputs": [
        {
          "internalType": "bytes32",
          "name": "role",
          "type": "bytes32"
        },
        {
          "internalType": "address",
          "name": "account",
          "type": "address"
        }
      ],
      "name": "grantRole",
      "outputs": [],
      "stateMutability": "nonpayable",
      "type": "function"
    },
    {
      "inputs": [
        {
          "internalType": "bytes32",
          "name": "role",
          "type": "bytes32"
        },
        {
          "internalType": "address",
          "name": "account",
          "type": "address"
        }
      ],
      "name": "hasRole",
      "outputs": [
        {
          "internalType": "bool",
          "name": "",
          "type": "bool"
        }
      ],
      "stateMutability": "view",
      "type": "function"
    },
    {
      "inputs": [],
      "name": "implementation",
      "outputs": [
        {
          "internalType": "address",
          "name": "",
          "type": "address"
        }
      ],
      "stateMutability": "view",
      "type": "function"
    },
    {
      "inputs": [],
      "name": "layer2Registry",
      "outputs": [
        {
          "internalType": "address",
          "name": "",
          "type": "address"
        }
      ],
      "stateMutability": "view",
      "type": "function"
    },
    {
      "inputs": [
        {
          "internalType": "uint256",
          "name": "",
          "type": "uint256"
        }
      ],
      "name": "layer2s",
      "outputs": [
        {
          "internalType": "address",
          "name": "",
          "type": "address"
        }
      ],
      "stateMutability": "view",
      "type": "function"
    },
    {
      "inputs": [],
      "name": "migratedL2",
      "outputs": [
        {
          "internalType": "bool",
          "name": "",
          "type": "bool"
        }
      ],
      "stateMutability": "view",
      "type": "function"
    },
    {
      "inputs": [],
      "name": "name",
      "outputs": [
        {
          "internalType": "string",
          "name": "",
          "type": "string"
        }
      ],
      "stateMutability": "view",
      "type": "function"
    },
    {
      "inputs": [],
      "name": "pauseProxy",
      "outputs": [
        {
          "internalType": "bool",
          "name": "",
          "type": "bool"
        }
      ],
      "stateMutability": "view",
      "type": "function"
    },
    {
      "inputs": [
        {
          "internalType": "bytes32",
          "name": "role",
          "type": "bytes32"
        },
        {
          "internalType": "address",
          "name": "account",
          "type": "address"
        }
      ],
      "name": "renounceRole",
      "outputs": [],
      "stateMutability": "nonpayable",
      "type": "function"
    },
    {
      "inputs": [
        {
          "internalType": "bytes32",
          "name": "role",
          "type": "bytes32"
        },
        {
          "internalType": "address",
          "name": "account",
          "type": "address"
        }
      ],
      "name": "revokeRole",
      "outputs": [],
      "stateMutability": "nonpayable",
      "type": "function"
    },
    {
      "inputs": [],
      "name": "seigManager",
      "outputs": [
        {
          "internalType": "address",
          "name": "",
          "type": "address"
        }
      ],
      "stateMutability": "view",
      "type": "function"
    },
    {
      "inputs": [
        {
          "internalType": "string",
          "name": "name_",
          "type": "string"
        },
        {
          "internalType": "string",
          "name": "symbol_",
          "type": "string"
        },
        {
          "internalType": "uint256",
          "name": "decimals_",
          "type": "uint256"
        }
      ],
      "name": "setNameSymbolDecimals",
      "outputs": [],
      "stateMutability": "nonpayable",
      "type": "function"
    },
    {
      "inputs": [
        {
          "internalType": "bool",
          "name": "_pause",
          "type": "bool"
        }
      ],
      "name": "setProxyPause",
      "outputs": [],
      "stateMutability": "nonpayable",
      "type": "function"
    },
    {
      "inputs": [],
      "name": "snashotAggregatorTotal",
      "outputs": [
        {
          "internalType": "uint256",
          "name": "",
          "type": "uint256"
        }
      ],
      "stateMutability": "view",
      "type": "function"
    },
    {
      "inputs": [
        {
          "internalType": "bytes4",
          "name": "interfaceId",
          "type": "bytes4"
        }
      ],
      "name": "supportsInterface",
      "outputs": [
        {
          "internalType": "bool",
          "name": "",
          "type": "bool"
        }
      ],
      "stateMutability": "view",
      "type": "function"
    },
    {
      "inputs": [],
      "name": "symbol",
      "outputs": [
        {
          "internalType": "string",
          "name": "",
          "type": "string"
        }
      ],
      "stateMutability": "view",
      "type": "function"
    },
    {
      "inputs": [
        {
          "internalType": "uint256",
          "name": "",
          "type": "uint256"
        }
      ],
      "name": "uniqAccounts",
      "outputs": [
        {
          "internalType": "address",
          "name": "",
          "type": "address"
        }
      ],
      "stateMutability": "view",
      "type": "function"
    },
    {
      "inputs": [
        {
          "internalType": "address",
          "name": "impl",
          "type": "address"
        }
      ],
      "name": "upgradeTo",
      "outputs": [],
      "stateMutability": "nonpayable",
      "type": "function"
    },
    {
      "stateMutability": "payable",
      "type": "receive"
    }
  ],
  "bytecode": "0x60806040526b204fce5e3e25026110000000600155600280553480156200002557600080fd5b506200005360017f360894a13ba1a3210667c828492db98dca3e2076cc3735a920a3ca505d382bbd620001e1565b7f360894a13ba1a3210667c828492db98dca3e2076cc3735a920a3ca505d382bbc146200009057634e487b7160e01b600052600160045260246000fd5b6200009d60003362000131565b620000c97fa49807205ce4d355092ef5a8a18f56e8913cf4a201fbe287825b095693c217753362000131565b620000f57f3ee192ac25847473237ced4bba57f848e1fd794930ff85b428232905809672053362000131565b620001217f5fdbd35e8da83ee755d5e62a539e5ed7f47126abede0b8b10f9ea43dc6eed07f3362000131565b6000600b55601b60125562000205565b6200013d828262000141565b5050565b6000828152602081815260408083206001600160a01b038516845290915290205460ff166200013d576000828152602081815260408083206001600160a01b03851684529091529020805460ff191660011790556200019d3390565b6001600160a01b0316816001600160a01b0316837f2f8788117e7eff1d82e926ec794901d17c78024a50270940304540a733656f0d60405160405180910390a45050565b6000828210156200020057634e487b7160e01b81526011600452602481fd5b500390565b6112c480620002156000396000f3fe60806040526004361061018e5760003560e01c806363a8fd89116100d757806391d148541161008557806391d148541461052057806395d89b4114610540578063a1f5f50e14610555578063a217fddf14610574578063addf909014610589578063b7c246d71461059f578063cf2a239c146105b5578063d547741f146105d5576101d7565b806363a8fd89146104305780636fb7f5581461044a5780637028e2cd1461046a5780637065cb481461049e57806375b238fc146104be5780637ae39263146104e05780637cb00d2514610500576101d7565b8063248a9ca31161013f578063248a9ca31461030d5780632f2ff15d1461033d57806330b90e991461035d578063313ce5671461039557806336568abe146103ab5780633659cfe6146103cb5780635c60da1b146103eb5780635cd3b6d714610400576101d7565b8062497846146101e1578062d87a9c14610228578062f08e461461023e57806301ffc9a71461026b57806306fdde031461029b5780630bd4c339146102bd5780631e4d15f7146102ed576101d7565b366101d75760405162461bcd60e51b815260206004820152601460248201527331b0b73737ba103932b1b2b4bb329022ba3432b960611b60448201526064015b60405180910390fd5b6101df6105f5565b005b3480156101ed57600080fd5b506102157f3ee192ac25847473237ced4bba57f848e1fd794930ff85b4282329058096720581565b6040519081526020015b60405180910390f35b34801561023457600080fd5b5061021560025481565b34801561024a57600080fd5b50610215610259366004610fd8565b60086020526000908152604090205481565b34801561027757600080fd5b5061028b610286366004611055565b61068a565b604051901515815260200161021f565b3480156102a757600080fd5b506102b06106c1565b60405161021f9190611156565b3480156102c957600080fd5b5061028b6102d8366004610fd8565b60166020526000908152604090205460ff1681565b3480156102f957600080fd5b506101df61030836600461107d565b61074f565b34801561031957600080fd5b50610215610328366004611012565b60009081526020819052604090206001015490565b34801561034957600080fd5b506101df61035836600461102a565b610798565b34801561036957600080fd5b5061037d610378366004611012565b6107be565b6040516001600160a01b03909116815260200161021f565b3480156103a157600080fd5b5061021560125481565b3480156103b757600080fd5b506101df6103c636600461102a565b6107e8565b3480156103d757600080fd5b506101df6103e6366004610fd8565b610866565b3480156103f757600080fd5b5061037d610958565b34801561040c57600080fd5b5061028b61041b366004610fd8565b60146020526000908152604090205460ff1681565b34801561043c57600080fd5b50600c5461028b9060ff1681565b34801561045657600080fd5b5060035461037d906001600160a01b031681565b34801561047657600080fd5b506102157f5fdbd35e8da83ee755d5e62a539e5ed7f47126abede0b8b10f9ea43dc6eed07f81565b3480156104aa57600080fd5b506101df6104b9366004610fd8565b610967565b3480156104ca57600080fd5b5061021560008051602061126f83398151915281565b3480156104ec57600080fd5b5061037d6104fb366004611012565b6109f7565b34801561050c57600080fd5b506101df61051b366004610ff2565b610a07565b34801561052c57600080fd5b5061028b61053b36600461102a565b610a34565b34801561054c57600080fd5b506102b0610a5d565b34801561056157600080fd5b50600c5461028b90610100900460ff1681565b34801561058057600080fd5b50610215600081565b34801561059557600080fd5b50610215600b5481565b3480156105ab57600080fd5b5061021560015481565b3480156105c157600080fd5b5060045461037d906001600160a01b031681565b3480156105e157600080fd5b506101df6105f036600461102a565b610a6a565b60006105ff610a90565b90506001600160a01b0381161580159061061c5750600c5460ff16155b6106615760405162461bcd60e51b8152602060048201526016602482015275696d706c204f522070726f78792069732066616c736560501b60448201526064016101ce565b3660008037600080366000845af43d6000803e808015610680573d6000f35b3d6000fd5b505050565b60006001600160e01b03198216637965db0b60e01b14806106bb57506301ffc9a760e01b6001600160e01b03198316145b92915050565b601080546106ce90611207565b80601f01602080910402602001604051908101604052809291908181526020018280546106fa90611207565b80156107475780601f1061071c57610100808354040283529160200191610747565b820191906000526020600020905b81548152906001019060200180831161072a57829003601f168201915b505050505081565b60008051602061126f8339815191526107688133610ab5565b835161077b906010906020870190610e9c565b50825161078f906011906020860190610e9c565b50506012555050565b6000828152602081905260409020600101546107b48133610ab5565b6106858383610b19565b601581815481106107ce57600080fd5b6000918252602090912001546001600160a01b0316905081565b6001600160a01b03811633146108585760405162461bcd60e51b815260206004820152602f60248201527f416363657373436f6e74726f6c3a2063616e206f6e6c792072656e6f756e636560448201526e103937b632b9903337b91039b2b63360891b60648201526084016101ce565b6108628282610b9d565b5050565b60008051602061126f83398151915261087f8133610ab5565b6001600160a01b0382166108c55760405162461bcd60e51b815260206004820152600d60248201526c696e707574206973207a65726f60981b60448201526064016101ce565b816001600160a01b03166108d7610a90565b6001600160a01b031614156109175760405162461bcd60e51b81526004016101ce9060208082526004908201526373616d6560e01b604082015260600190565b61092082610c02565b6040516001600160a01b038316907fbc7cd75a20ee27fd9adebab32041f755214dbc6bffa90cc0225b39da2e5c2d3b90600090a25050565b6000610962610a90565b905090565b60008051602061126f8339815191526109808133610ab5565b61098b600083610ca9565b6109a360008051602061126f83398151915283610ca9565b6109cd7f3ee192ac25847473237ced4bba57f848e1fd794930ff85b4282329058096720583610ca9565b6108627f5fdbd35e8da83ee755d5e62a539e5ed7f47126abede0b8b10f9ea43dc6eed07f83610ca9565b601381815481106107ce57600080fd5b60008051602061126f833981519152610a208133610ab5565b50600c805460ff1916911515919091179055565b6000918252602082815260408084206001600160a01b0393909316845291905290205460ff1690565b601180546106ce90611207565b600082815260208190526040902060010154610a868133610ab5565b6106858383610b9d565b7f360894a13ba1a3210667c828492db98dca3e2076cc3735a920a3ca505d382bbc5490565b610abf8282610a34565b61086257610ad7816001600160a01b03166014610cb3565b610ae2836020610cb3565b604051602001610af39291906110e7565b60408051601f198184030181529082905262461bcd60e51b82526101ce91600401611156565b610b238282610a34565b610862576000828152602081815260408083206001600160a01b03851684529091529020805460ff19166001179055610b593390565b6001600160a01b0316816001600160a01b0316837f2f8788117e7eff1d82e926ec794901d17c78024a50270940304540a733656f0d60405160405180910390a45050565b610ba78282610a34565b15610862576000828152602081815260408083206001600160a01b0385168085529252808320805460ff1916905551339285917ff6391f5c32d9c69d2a47ea670b442974b53935d1edc7fd64eb21e047a839171b9190a45050565b803b610c855760405162461bcd60e51b815260206004820152604660248201527f50726f7879426173653a2043616e6e6f742073657420612070726f787920696d60448201527f706c656d656e746174696f6e20746f2061206e6f6e2d636f6e7472616374206160648201526564647265737360d01b608482015260a4016101ce565b7f360894a13ba1a3210667c828492db98dca3e2076cc3735a920a3ca505d382bbc55565b6108628282610b19565b60606000610cc28360026111a1565b610ccd906002611189565b67ffffffffffffffff811115610cf357634e487b7160e01b600052604160045260246000fd5b6040519080825280601f01601f191660200182016040528015610d1d576020820181803683370190505b509050600360fc1b81600081518110610d4657634e487b7160e01b600052603260045260246000fd5b60200101906001600160f81b031916908160001a905350600f60fb1b81600181518110610d8357634e487b7160e01b600052603260045260246000fd5b60200101906001600160f81b031916908160001a9053506000610da78460026111a1565b610db2906001611189565b90505b6001811115610e46576f181899199a1a9b1b9c1cb0b131b232b360811b85600f1660108110610df457634e487b7160e01b600052603260045260246000fd5b1a60f81b828281518110610e1857634e487b7160e01b600052603260045260246000fd5b60200101906001600160f81b031916908160001a90535060049490941c93610e3f816111f0565b9050610db5565b508315610e955760405162461bcd60e51b815260206004820181905260248201527f537472696e67733a20686578206c656e67746820696e73756666696369656e7460448201526064016101ce565b9392505050565b828054610ea890611207565b90600052602060002090601f016020900481019282610eca5760008555610f10565b82601f10610ee357805160ff1916838001178555610f10565b82800160010185558215610f10579182015b82811115610f10578251825591602001919060010190610ef5565b50610f1c929150610f20565b5090565b5b80821115610f1c5760008155600101610f21565b80356001600160a01b0381168114610f4c57600080fd5b919050565b600082601f830112610f61578081fd5b813567ffffffffffffffff80821115610f7c57610f7c611258565b604051601f8301601f19908116603f01168101908282118183101715610fa457610fa4611258565b81604052838152866020858801011115610fbc578485fd5b8360208701602083013792830160200193909352509392505050565b600060208284031215610fe9578081fd5b610e9582610f35565b600060208284031215611003578081fd5b81358015158114610e95578182fd5b600060208284031215611023578081fd5b5035919050565b6000806040838503121561103c578081fd5b8235915061104c60208401610f35565b90509250929050565b600060208284031215611066578081fd5b81356001600160e01b031981168114610e95578182fd5b600080600060608486031215611091578081fd5b833567ffffffffffffffff808211156110a8578283fd5b6110b487838801610f51565b945060208601359150808211156110c9578283fd5b506110d686828701610f51565b925050604084013590509250925092565b76020b1b1b2b9b9a1b7b73a3937b61d1030b1b1b7bab73a1604d1b8152600083516111198160178501602088016111c0565b7001034b99036b4b9b9b4b733903937b6329607d1b601791840191820152835161114a8160288401602088016111c0565b01602801949350505050565b60208152600082518060208401526111758160408501602087016111c0565b601f01601f19169190910160400192915050565b6000821982111561119c5761119c611242565b500190565b60008160001904831182151516156111bb576111bb611242565b500290565b60005b838110156111db5781810151838201526020016111c3565b838111156111ea576000848401525b50505050565b6000816111ff576111ff611242565b506000190190565b600181811c9082168061121b57607f821691505b6020821081141561123c57634e487b7160e01b600052602260045260246000fd5b50919050565b634e487b7160e01b600052601160045260246000fd5b634e487b7160e01b600052604160045260246000fdfea49807205ce4d355092ef5a8a18f56e8913cf4a201fbe287825b095693c21775a2646970667358221220c45bb2753f59ca1d1cfbfe5118832d9f33fe14828c33edb740f47777ca47015d64736f6c63430008040033",
  "linkReferences": {},
  "deployedLinkReferences": {}
}