{
  "contractName": "DAOCommitteeProxy",
  "abi": [
    {
      "inputs": [
        {
          "internalType": "address",
          "name": "_ton",
          "type": "address"
        },
        {
          "internalType": "address",
          "name": "_impl",
          "type": "address"
        },
        {
          "internalType": "address",
          "name": "_seigManager",
          "type": "address"
        },
        {
          "internalType": "address",
          "name": "_layer2Registry",
          "type": "address"
        },
        {
          "internalType": "address",
          "name": "_agendaManager",
          "type": "address"
        },
        {
          "internalType": "address",
          "name": "_candidateFactory",
          "type": "address"
        },
        {
          "internalType": "address",
          "name": "_daoVault",
          "type": "address"
        }
      ],
      "stateMutability": "nonpayable",
      "type": "constructor"
    },
    {
      "anonymous": false,
      "inputs": [
        {
          "indexed": true,
          "internalType": "bytes32",
          "name": "role",
          "type": "bytes32"
        },
        {
          "indexed": true,
          "internalType": "bytes32",
          "name": "previousAdminRole",
          "type": "bytes32"
        },
        {
          "indexed": true,
          "internalType": "bytes32",
          "name": "newAdminRole",
          "type": "bytes32"
        }
      ],
      "name": "RoleAdminChanged",
      "type": "event"
    },
    {
      "anonymous": false,
      "inputs": [
        {
          "indexed": true,
          "internalType": "bytes32",
          "name": "role",
          "type": "bytes32"
        },
        {
          "indexed": true,
          "internalType": "address",
          "name": "account",
          "type": "address"
        },
        {
          "indexed": true,
          "internalType": "address",
          "name": "sender",
          "type": "address"
        }
      ],
      "name": "RoleGranted",
      "type": "event"
    },
    {
      "anonymous": false,
      "inputs": [
        {
          "indexed": true,
          "internalType": "bytes32",
          "name": "role",
          "type": "bytes32"
        },
        {
          "indexed": true,
          "internalType": "address",
          "name": "account",
          "type": "address"
        },
        {
          "indexed": true,
          "internalType": "address",
          "name": "sender",
          "type": "address"
        }
      ],
      "name": "RoleRevoked",
      "type": "event"
    },
    {
      "anonymous": false,
      "inputs": [
        {
          "indexed": true,
          "internalType": "address",
          "name": "implementation",
          "type": "address"
        }
      ],
      "name": "Upgraded",
      "type": "event"
    },
    {
      "stateMutability": "nonpayable",
      "type": "fallback"
    },
    {
      "inputs": [],
      "name": "DEFAULT_ADMIN_ROLE",
      "outputs": [
        {
          "internalType": "bytes32",
          "name": "",
          "type": "bytes32"
        }
      ],
      "stateMutability": "view",
      "type": "function",
      "constant": true
    },
    {
      "inputs": [],
      "name": "activityRewardPerSecond",
      "outputs": [
        {
          "internalType": "uint256",
          "name": "",
          "type": "uint256"
        }
      ],
      "stateMutability": "view",
      "type": "function",
      "constant": true
    },
    {
      "inputs": [],
      "name": "agendaManager",
      "outputs": [
        {
          "internalType": "contract IDAOAgendaManager",
          "name": "",
          "type": "address"
        }
      ],
      "stateMutability": "view",
      "type": "function",
      "constant": true
    },
    {
      "inputs": [
        {
          "internalType": "address",
          "name": "_candidate",
          "type": "address"
        }
      ],
      "name": "candidateContract",
      "outputs": [
        {
          "internalType": "address",
          "name": "",
          "type": "address"
        }
      ],
      "stateMutability": "view",
      "type": "function",
      "constant": true
    },
    {
      "inputs": [],
      "name": "candidateFactory",
      "outputs": [
        {
          "internalType": "contract ICandidateFactory",
          "name": "",
          "type": "address"
        }
      ],
      "stateMutability": "view",
      "type": "function",
      "constant": true
    },
    {
      "inputs": [
        {
          "internalType": "address",
          "name": "_candidate",
          "type": "address"
        }
      ],
      "name": "candidateInfos",
      "outputs": [
        {
          "components": [
            {
              "internalType": "address",
              "name": "candidateContract",
              "type": "address"
            },
            {
              "internalType": "uint256",
              "name": "indexMembers",
              "type": "uint256"
            },
            {
              "internalType": "uint128",
              "name": "memberJoinedTime",
              "type": "uint128"
            },
            {
              "internalType": "uint128",
              "name": "rewardPeriod",
              "type": "uint128"
            },
            {
              "internalType": "uint128",
              "name": "claimedTimestamp",
              "type": "uint128"
            }
          ],
          "internalType": "struct IStorageStateCommittee.CandidateInfo",
          "name": "",
          "type": "tuple"
        }
      ],
      "stateMutability": "nonpayable",
      "type": "function"
    },
    {
      "inputs": [
        {
          "internalType": "uint256",
          "name": "",
          "type": "uint256"
        }
      ],
      "name": "candidates",
      "outputs": [
        {
          "internalType": "address",
          "name": "",
          "type": "address"
        }
      ],
      "stateMutability": "view",
      "type": "function",
      "constant": true
    },
    {
      "inputs": [],
      "name": "daoVault",
      "outputs": [
        {
          "internalType": "contract IDAOVault",
          "name": "",
          "type": "address"
        }
      ],
      "stateMutability": "view",
      "type": "function",
      "constant": true
    },
    {
      "inputs": [
        {
          "internalType": "bytes32",
          "name": "role",
          "type": "bytes32"
        }
      ],
      "name": "getRoleAdmin",
      "outputs": [
        {
          "internalType": "bytes32",
          "name": "",
          "type": "bytes32"
        }
      ],
      "stateMutability": "view",
      "type": "function",
      "constant": true
    },
    {
      "inputs": [
        {
          "internalType": "bytes32",
          "name": "role",
          "type": "bytes32"
        },
        {
          "internalType": "uint256",
          "name": "index",
          "type": "uint256"
        }
      ],
      "name": "getRoleMember",
      "outputs": [
        {
          "internalType": "address",
          "name": "",
          "type": "address"
        }
      ],
      "stateMutability": "view",
      "type": "function",
      "constant": true
    },
    {
      "inputs": [
        {
          "internalType": "bytes32",
          "name": "role",
          "type": "bytes32"
        }
      ],
      "name": "getRoleMemberCount",
      "outputs": [
        {
          "internalType": "uint256",
          "name": "",
          "type": "uint256"
        }
      ],
      "stateMutability": "view",
      "type": "function",
      "constant": true
    },
    {
      "inputs": [
        {
          "internalType": "bytes32",
          "name": "role",
          "type": "bytes32"
        },
        {
          "internalType": "address",
          "name": "account",
          "type": "address"
        }
      ],
      "name": "grantRole",
      "outputs": [],
      "stateMutability": "nonpayable",
      "type": "function"
    },
    {
      "inputs": [
        {
          "internalType": "bytes32",
          "name": "role",
          "type": "bytes32"
        },
        {
          "internalType": "address",
          "name": "account",
          "type": "address"
        }
      ],
      "name": "hasRole",
      "outputs": [
        {
          "internalType": "bool",
          "name": "",
          "type": "bool"
        }
      ],
      "stateMutability": "view",
      "type": "function",
      "constant": true
    },
    {
      "inputs": [
        {
          "internalType": "address",
          "name": "_candidate",
          "type": "address"
        }
      ],
      "name": "isMember",
      "outputs": [
        {
          "internalType": "bool",
          "name": "",
          "type": "bool"
        }
      ],
      "stateMutability": "view",
      "type": "function",
      "constant": true
    },
    {
      "inputs": [],
      "name": "layer2Registry",
      "outputs": [
        {
          "internalType": "contract ILayer2Registry",
          "name": "",
          "type": "address"
        }
      ],
      "stateMutability": "view",
      "type": "function",
      "constant": true
    },
    {
      "inputs": [],
      "name": "maxMember",
      "outputs": [
        {
          "internalType": "uint256",
          "name": "",
          "type": "uint256"
        }
      ],
      "stateMutability": "view",
      "type": "function",
      "constant": true
    },
    {
      "inputs": [
        {
          "internalType": "uint256",
          "name": "",
          "type": "uint256"
        }
      ],
      "name": "members",
      "outputs": [
        {
          "internalType": "address",
          "name": "",
          "type": "address"
        }
      ],
      "stateMutability": "view",
      "type": "function",
      "constant": true
    },
    {
      "inputs": [],
      "name": "pauseProxy",
      "outputs": [
        {
          "internalType": "bool",
          "name": "",
          "type": "bool"
        }
      ],
      "stateMutability": "view",
      "type": "function",
      "constant": true
    },
    {
      "inputs": [],
      "name": "quorum",
      "outputs": [
        {
          "internalType": "uint256",
          "name": "",
          "type": "uint256"
        }
      ],
      "stateMutability": "view",
      "type": "function",
      "constant": true
    },
    {
      "inputs": [
        {
          "internalType": "bytes32",
          "name": "role",
          "type": "bytes32"
        },
        {
          "internalType": "address",
          "name": "account",
          "type": "address"
        }
      ],
      "name": "renounceRole",
      "outputs": [],
      "stateMutability": "nonpayable",
      "type": "function"
    },
    {
      "inputs": [
        {
          "internalType": "bytes32",
          "name": "role",
          "type": "bytes32"
        },
        {
          "internalType": "address",
          "name": "account",
          "type": "address"
        }
      ],
      "name": "revokeRole",
      "outputs": [],
      "stateMutability": "nonpayable",
      "type": "function"
    },
    {
      "inputs": [],
      "name": "seigManager",
      "outputs": [
        {
          "internalType": "contract ISeigManager",
          "name": "",
          "type": "address"
        }
      ],
      "stateMutability": "view",
      "type": "function",
      "constant": true
    },
    {
      "inputs": [
        {
          "internalType": "bytes4",
          "name": "interfaceId",
          "type": "bytes4"
        }
      ],
      "name": "supportsInterface",
      "outputs": [
        {
          "internalType": "bool",
          "name": "",
          "type": "bool"
        }
      ],
      "stateMutability": "view",
      "type": "function",
      "constant": true
    },
    {
      "inputs": [],
      "name": "ton",
      "outputs": [
        {
          "internalType": "address",
          "name": "",
          "type": "address"
        }
      ],
      "stateMutability": "view",
      "type": "function",
      "constant": true
    },
    {
      "inputs": [
        {
          "internalType": "bool",
          "name": "_pause",
          "type": "bool"
        }
      ],
      "name": "setProxyPause",
      "outputs": [],
      "stateMutability": "nonpayable",
      "type": "function"
    },
    {
      "inputs": [
        {
          "internalType": "address",
          "name": "impl",
          "type": "address"
        }
      ],
      "name": "upgradeTo",
      "outputs": [],
      "stateMutability": "nonpayable",
      "type": "function"
    },
    {
      "inputs": [],
      "name": "implementation",
      "outputs": [
        {
          "internalType": "address",
          "name": "",
          "type": "address"
        }
      ],
      "stateMutability": "view",
      "type": "function",
      "constant": true
    }
  ],
  "bytecode": "0x60806040523480156200001157600080fd5b50604051620012b5380380620012b5833981016040819052620000349162000364565b620000466301ffc9a760e01b620001ac565b6001600160a01b0387161515806200006657506001600160a01b03861615155b806200007a57506001600160a01b03851615155b806200008e57506001600160a01b03841615155b80620000a257506001600160a01b03831615155b80620000b657506001600160a01b03821615155b620000de5760405162461bcd60e51b8152600401620000d590620003f8565b60405180910390fd5b600080546001600160a01b03199081166001600160a01b038a811691909117909255600e8054821689841617905560058054821688841617905560048054821687841617905560028054821686841617815560038054831686851617905560018054909216928416929092179055600a55660b43fd20b59a0a600b55620001857f4273ca16e32229270629d776700e1c07e4a1080fc9b26d21f6608efc2b31dc4d620001ac565b6200019260003362000231565b6200019f60003062000231565b505050505050506200042d565b6001600160e01b031980821614156200020c576040805162461bcd60e51b815260206004820152601c60248201527f4552433136353a20696e76616c696420696e7465726661636520696400000000604482015290519081900360640190fd5b6001600160e01b0319166000908152600d60205260409020805460ff19166001179055565b6200023d828262000241565b5050565b6000828152600c60209081526040909120620002689183906200081d620002bc821b17901c565b156200023d5762000278620002dc565b6001600160a01b0316816001600160a01b0316837f2f8788117e7eff1d82e926ec794901d17c78024a50270940304540a733656f0d60405160405180910390a45050565b6000620002d3836001600160a01b038416620002e0565b90505b92915050565b3390565b6000620002ee83836200032f565b6200032657508154600181810184556000848152602080822090930184905584548482528286019093526040902091909155620002d6565b506000620002d6565b60009081526001919091016020526040902054151590565b80516001600160a01b03811681146200035f57600080fd5b919050565b600080600080600080600060e0888a0312156200037f578283fd5b6200038a8862000347565b96506200039a6020890162000347565b9550620003aa6040890162000347565b9450620003ba6060890162000347565b9350620003ca6080890162000347565b9250620003da60a0890162000347565b9150620003ea60c0890162000347565b905092959891949750929550565b6020808252818101527f44414f436f6d6d697474656550726f78793a20696e707574206973207a65726f604082015260600190565b610e78806200043d6000396000f3fe608060405234801561001057600080fd5b50600436106101a95760003560e01c806363a8fd89116100f9578063a217fddf11610097578063ca15c87311610071578063ca15c87314610337578063cc48b9471461034a578063cf2a239c14610352578063d547741f1461035a576101a9565b8063a217fddf14610314578063a230c5241461031c578063b5dd11581461032f576101a9565b80637cb00d25116100d35780637cb00d25146102d35780637f331636146102e65780639010d07c146102ee57806391d1485414610301576101a9565b806363a8fd89146102b0578063651d08cd146102b85780636fb7f558146102cb576101a9565b80632f2ff15d116101665780633659cfe6116101405780633659cfe61461027a5780635903bd6c1461028d5780635c60da1b146102955780635daf08ca1461029d576101a9565b80632f2ff15d146102415780633477ee2e1461025457806336568abe14610267576101a9565b806301ffc9a7146101b357806303e3c9ac146101dc5780631703a018146101f1578063248a9ca3146101f957806327fd92fd1461020c5780632e011c1e14610221575b6101b161036d565b005b6101c66101c1366004610bc3565b6103e4565b6040516101d39190610bff565b60405180910390f35b6101e4610407565b6040516101d39190610c0a565b6101e461040d565b6101e4610207366004610b5f565b610413565b610214610428565b6040516101d39190610beb565b61023461022f366004610b1e565b610437565b6040516101d39190610d43565b6101b161024f366004610b77565b6104aa565b610214610262366004610b5f565b610511565b6101b1610275366004610b77565b61053b565b6101b1610288366004610b1e565b61059c565b610214610663565b610214610672565b6102146102ab366004610b5f565b610681565b6101c6610691565b6102146102c6366004610b1e565b6106a1565b6102146106bf565b6101b16102e1366004610b38565b6106ce565b6101e4610713565b6102146102fc366004610ba2565b610719565b6101c661030f366004610b77565b61073a565b6101e4610752565b6101c661032a366004610b1e565b610757565b610214610780565b6101e4610345366004610b5f565b61078f565b6102146107a6565b6102146107b5565b6101b1610368366004610b77565b6107c4565b6000610377610672565b90506001600160a01b0381161580159061039b5750600e54600160a01b900460ff16155b6103c05760405162461bcd60e51b81526004016103b790610cf2565b60405180910390fd5b3660008037600080366000845af43d6000803e8080156103df573d6000f35b3d6000fd5b6001600160e01b031981166000908152600d602052604090205460ff165b919050565b60085481565b600a5481565b6000908152600c602052604090206002015490565b6002546001600160a01b031681565b61043f610ad9565b506001600160a01b03908116600090815260096020908152604091829020825160a0810184528154909416845260018101549184019190915260028101546001600160801b0380821693850193909352600160801b9004821660608401526003015416608082015290565b6000828152600c60205260409020600201546104c89061030f610832565b6105035760405162461bcd60e51b815260040180806020018281038252602f815260200180610db5602f913960400191505060405180910390fd5b61050d8282610836565b5050565b6006818154811061052157600080fd5b6000918252602090912001546001600160a01b0316905081565b610543610832565b6001600160a01b0316816001600160a01b0316146105925760405162461bcd60e51b815260040180806020018281038252602f815260200180610e14602f913960400191505060405180910390fd5b61050d828261089f565b6105a760003361073a565b6105c35760405162461bcd60e51b81526004016103b790610c13565b600e546001600160a01b03166105eb5760405162461bcd60e51b81526004016103b790610cbd565b600e546001600160a01b03828116911614156106195760405162461bcd60e51b81526004016103b790610c60565b600e80546001600160a01b0319166001600160a01b0383169081179091556040517fbc7cd75a20ee27fd9adebab32041f755214dbc6bffa90cc0225b39da2e5c2d3b90600090a250565b6001546001600160a01b031681565b600e546001600160a01b031690565b6007818154811061052157600080fd5b600e54600160a01b900460ff1681565b6001600160a01b039081166000908152600960205260409020541690565b6005546001600160a01b031681565b6106d960003361073a565b6106f55760405162461bcd60e51b81526004016103b790610c13565b600e8054911515600160a01b0260ff60a01b19909216919091179055565b600b5481565b6000828152600c602052604081206107319083610908565b90505b92915050565b6000828152600c602052604081206107319083610914565b600081565b6001600160a01b03166000908152600960205260409020600201546001600160801b0316151590565b6003546001600160a01b031681565b6000818152600c6020526040812061073490610929565b6000546001600160a01b031681565b6004546001600160a01b031681565b6000828152600c60205260409020600201546107e29061030f610832565b6105925760405162461bcd60e51b8152600401808060200182810382526030815260200180610de46030913960400191505060405180910390fd5b6000610731836001600160a01b038416610934565b3390565b6000828152600c6020526040902061084e908261081d565b1561050d5761085b610832565b6001600160a01b0316816001600160a01b0316837f2f8788117e7eff1d82e926ec794901d17c78024a50270940304540a733656f0d60405160405180910390a45050565b6000828152600c602052604090206108b7908261097e565b1561050d576108c4610832565b6001600160a01b0316816001600160a01b0316837ff6391f5c32d9c69d2a47ea670b442974b53935d1edc7fd64eb21e047a839171b60405160405180910390a45050565b60006107318383610993565b6000610731836001600160a01b0384166109f7565b600061073482610a0f565b600061094083836109f7565b61097657508154600181810184556000848152602080822090930184905584548482528286019093526040902091909155610734565b506000610734565b6000610731836001600160a01b038416610a13565b815460009082106109d55760405162461bcd60e51b8152600401808060200182810382526022815260200180610d936022913960400191505060405180910390fd5b8260000182815481106109e457fe5b9060005260206000200154905092915050565b60009081526001919091016020526040902054151590565b5490565b60008181526001830160205260408120548015610acf5783546000198083019190810190600090879083908110610a4657fe5b9060005260206000200154905080876000018481548110610a6357fe5b600091825260208083209091019290925582815260018981019092526040902090840190558654879080610a9357fe5b60019003818190600052602060002001600090559055866001016000878152602001908152602001600020600090556001945050505050610734565b6000915050610734565b6040805160a08101825260008082526020820181905291810182905260608101829052608081019190915290565b80356001600160a01b038116811461040257600080fd5b600060208284031215610b2f578081fd5b61073182610b07565b600060208284031215610b49578081fd5b81358015158114610b58578182fd5b9392505050565b600060208284031215610b70578081fd5b5035919050565b60008060408385031215610b89578081fd5b82359150610b9960208401610b07565b90509250929050565b60008060408385031215610bb4578182fd5b50508035926020909101359150565b600060208284031215610bd4578081fd5b81356001600160e01b031981168114610b58578182fd5b6001600160a01b0391909116815260200190565b901515815260200190565b90815260200190565b6020808252602d908201527f44414f436f6d6d697474656550726f78793a206d73672e73656e64657220697360408201526c103737ba1030b71030b236b4b760991b606082015260800190565b60208082526039908201527f44414f436f6d6d697474656550726f78793a2054686520696e7075742061646460408201527f726573732069732073616d652061732074686520737461746500000000000000606082015260800190565b6020808252818101527f44414f436f6d6d697474656550726f78793a20696e707574206973207a65726f604082015260600190565b60208082526031908201527f44414f436f6d6d697474656550726f78793a20696d706c206973207a65726f206040820152704f522070726f78792069732066616c736560781b606082015260800190565b81516001600160a01b03168152602080830151908201526040808301516001600160801b0390811691830191909152606080840151821690830152608092830151169181019190915260a0019056fe456e756d657261626c655365743a20696e646578206f7574206f6620626f756e6473416363657373436f6e74726f6c3a2073656e646572206d75737420626520616e2061646d696e20746f206772616e74416363657373436f6e74726f6c3a2073656e646572206d75737420626520616e2061646d696e20746f207265766f6b65416363657373436f6e74726f6c3a2063616e206f6e6c792072656e6f756e636520726f6c657320666f722073656c66a264697066735822122047bd48edf14bdd4bee5fa6bab9fda790a3cbb002705aa7078c680873c85e11f164736f6c63430007060033",
  "immutableReferences": {},
  "source": "// SPDX-License-Identifier: MIT\npragma solidity ^0.7.6;\npragma abicoder v2;\n\nimport \"./StorageStateCommittee.sol\";\n//import \"../../node_modules/@openzeppelin/contracts/access/Ownable.sol\";\nimport \"../../node_modules/@openzeppelin/contracts/access/AccessControl.sol\";\nimport { ERC165 } from \"../../node_modules/@openzeppelin/contracts/introspection/ERC165.sol\";\n\ncontract DAOCommitteeProxy is StorageStateCommittee, AccessControl, ERC165 {\n    address internal _implementation;\n    bool public pauseProxy;\n\n    event Upgraded(address indexed implementation);\n\n    modifier onlyOwner() {\n        require(hasRole(DEFAULT_ADMIN_ROLE, msg.sender), \"DAOCommitteeProxy: msg.sender is not an admin\");\n        _;\n    }\n     \n    constructor(\n        address _ton,\n        address _impl,\n        address _seigManager,\n        address _layer2Registry,\n        address _agendaManager,\n        address _candidateFactory,\n        //address _activityRewardManager,\n        address _daoVault\n    )\n    {\n        require(\n            _ton != address(0)\n            || _impl != address(0)\n            || _seigManager != address(0)\n            || _layer2Registry != address(0)\n            || _agendaManager != address(0)\n            || _candidateFactory != address(0),\n            \"DAOCommitteeProxy: input is zero\"\n        );\n        ton = _ton;\n        _implementation = _impl;\n        seigManager = ISeigManager(_seigManager);\n        layer2Registry = ILayer2Registry(_layer2Registry);\n        agendaManager = IDAOAgendaManager(_agendaManager);\n        candidateFactory = ICandidateFactory(_candidateFactory);\n        daoVault = IDAOVault(_daoVault);\n        quorum = 2;\n        activityRewardPerSecond = 3170979198376458;\n\n        _registerInterface(bytes4(keccak256(\"onApprove(address,address,uint256,bytes)\")));\n        _setupRole(DEFAULT_ADMIN_ROLE, msg.sender);\n        _setupRole(DEFAULT_ADMIN_ROLE, address(this));\n    }\n\n    /// @notice Set pause state\n    /// @param _pause true:pause or false:resume\n    function setProxyPause(bool _pause) external onlyOwner {\n        pauseProxy = _pause;\n    }\n\n    /// @notice Set implementation contract\n    /// @param impl New implementation contract address\n    function upgradeTo(address impl) external onlyOwner {\n        require(_implementation != address(0), \"DAOCommitteeProxy: input is zero\");\n        require(_implementation != impl, \"DAOCommitteeProxy: The input address is same as the state\");\n        _implementation = impl;\n        emit Upgraded(impl);\n    }\n\n    function implementation() public view returns (address) {\n        return _implementation;\n    }\n\n    fallback() external {\n        _fallback();\n    }\n\n    function _fallback() internal {\n        address _impl = implementation();\n        require(_impl != address(0) && !pauseProxy, \"DAOCommitteeProxy: impl is zero OR proxy is false\");\n\n        assembly {\n            // Copy msg.data. We take full control of memory in this inline assembly\n            // block because it will not return to Solidity code. We overwrite the\n            // Solidity scratch pad at memory position 0.\n            calldatacopy(0, 0, calldatasize())\n\n            // Call the implementation.\n            // out and outsize are 0 because we don't know the size yet.\n            let result := delegatecall(gas(), _impl, 0, calldatasize(), 0, 0)\n\n            // Copy the returned data.\n            returndatacopy(0, 0, returndatasize())\n\n            switch result\n            // delegatecall returns 0 on error.\n            case 0 { revert(0, returndatasize()) }\n            default { return(0, returndatasize()) }\n        }\n    }\n}\n",
  "sourcePath": "/data/github/onther/tokamak-dao-contracts3/contracts/dao/DAOCommitteeProxy.sol",
  "compiler": {
    "name": "solc",
    "version": "0.7.6+commit.7338295f.Emscripten.clang"
  },
  "schemaVersion": "3.3.2",
  "updatedAt": "2021-02-26T01:24:56.118Z",
  "networkType": "ethereum",
  "devdoc": {
    "kind": "dev",
    "methods": {
      "getRoleAdmin(bytes32)": {
        "details": "Returns the admin role that controls `role`. See {grantRole} and {revokeRole}. To change a role's admin, use {_setRoleAdmin}."
      },
      "getRoleMember(bytes32,uint256)": {
        "details": "Returns one of the accounts that have `role`. `index` must be a value between 0 and {getRoleMemberCount}, non-inclusive. Role bearers are not sorted in any particular way, and their ordering may change at any point. WARNING: When using {getRoleMember} and {getRoleMemberCount}, make sure you perform all queries on the same block. See the following https://forum.openzeppelin.com/t/iterating-over-elements-on-enumerableset-in-openzeppelin-contracts/2296[forum post] for more information."
      },
      "getRoleMemberCount(bytes32)": {
        "details": "Returns the number of accounts that have `role`. Can be used together with {getRoleMember} to enumerate all bearers of a role."
      },
      "grantRole(bytes32,address)": {
        "details": "Grants `role` to `account`. If `account` had not been already granted `role`, emits a {RoleGranted} event. Requirements: - the caller must have ``role``'s admin role."
      },
      "hasRole(bytes32,address)": {
        "details": "Returns `true` if `account` has been granted `role`."
      },
      "renounceRole(bytes32,address)": {
        "details": "Revokes `role` from the calling account. Roles are often managed via {grantRole} and {revokeRole}: this function's purpose is to provide a mechanism for accounts to lose their privileges if they are compromised (such as when a trusted device is misplaced). If the calling account had been granted `role`, emits a {RoleRevoked} event. Requirements: - the caller must be `account`."
      },
      "revokeRole(bytes32,address)": {
        "details": "Revokes `role` from `account`. If `account` had been granted `role`, emits a {RoleRevoked} event. Requirements: - the caller must have ``role``'s admin role."
      },
      "setProxyPause(bool)": {
        "params": {
          "_pause": "true:pause or false:resume"
        }
      },
      "supportsInterface(bytes4)": {
        "details": "See {IERC165-supportsInterface}. Time complexity O(1), guaranteed to always use less than 30 000 gas."
      },
      "upgradeTo(address)": {
        "params": {
          "impl": "New implementation contract address"
        }
      }
    },
    "version": 1
  },
  "userdoc": {
    "kind": "user",
    "methods": {
      "setProxyPause(bool)": {
        "notice": "Set pause state"
      },
      "upgradeTo(address)": {
        "notice": "Set implementation contract"
      }
    },
    "version": 1
  }
}