{
  "_format": "hh-sol-artifact-1",
  "contractName": "DAOCommitteeExtend",
  "sourceName": "contracts/dao/DAOCommitteeExtend.sol",
  "abi": [
    {
      "anonymous": false,
      "inputs": [
        {
          "indexed": false,
          "internalType": "uint256",
          "name": "newReward",
          "type": "uint256"
        }
      ],
      "name": "ActivityRewardChanged",
      "type": "event"
    },
    {
      "anonymous": false,
      "inputs": [
        {
          "indexed": true,
          "internalType": "address",
          "name": "from",
          "type": "address"
        },
        {
          "indexed": true,
          "internalType": "uint256",
          "name": "id",
          "type": "uint256"
        },
        {
          "indexed": false,
          "internalType": "address[]",
          "name": "targets",
          "type": "address[]"
        },
        {
          "indexed": false,
          "internalType": "uint128",
          "name": "noticePeriodSeconds",
          "type": "uint128"
        },
        {
          "indexed": false,
          "internalType": "uint128",
          "name": "votingPeriodSeconds",
          "type": "uint128"
        },
        {
          "indexed": false,
          "internalType": "bool",
          "name": "atomicExecute",
          "type": "bool"
        }
      ],
      "name": "AgendaCreated",
      "type": "event"
    },
    {
      "anonymous": false,
      "inputs": [
        {
          "indexed": true,
          "internalType": "uint256",
          "name": "id",
          "type": "uint256"
        },
        {
          "indexed": false,
          "internalType": "address[]",
          "name": "target",
          "type": "address[]"
        }
      ],
      "name": "AgendaExecuted",
      "type": "event"
    },
    {
      "anonymous": false,
      "inputs": [
        {
          "indexed": true,
          "internalType": "address",
          "name": "from",
          "type": "address"
        },
        {
          "indexed": true,
          "internalType": "uint256",
          "name": "id",
          "type": "uint256"
        },
        {
          "indexed": false,
          "internalType": "uint256",
          "name": "voting",
          "type": "uint256"
        },
        {
          "indexed": false,
          "internalType": "string",
          "name": "comment",
          "type": "string"
        }
      ],
      "name": "AgendaVoteCasted",
      "type": "event"
    },
    {
      "anonymous": false,
      "inputs": [
        {
          "indexed": true,
          "internalType": "address",
          "name": "candidate",
          "type": "address"
        },
        {
          "indexed": true,
          "internalType": "address",
          "name": "candidateContract",
          "type": "address"
        },
        {
          "indexed": false,
          "internalType": "string",
          "name": "memo",
          "type": "string"
        }
      ],
      "name": "CandidateContractCreated",
      "type": "event"
    },
    {
      "anonymous": false,
      "inputs": [
        {
          "indexed": true,
          "internalType": "uint256",
          "name": "slotIndex",
          "type": "uint256"
        },
        {
          "indexed": false,
          "internalType": "address",
          "name": "prevMember",
          "type": "address"
        },
        {
          "indexed": true,
          "internalType": "address",
          "name": "newMember",
          "type": "address"
        }
      ],
      "name": "ChangedMember",
      "type": "event"
    },
    {
      "anonymous": false,
      "inputs": [
        {
          "indexed": false,
          "internalType": "address",
          "name": "candidate",
          "type": "address"
        },
        {
          "indexed": false,
          "internalType": "string",
          "name": "newMemo",
          "type": "string"
        }
      ],
      "name": "ChangedMemo",
      "type": "event"
    },
    {
      "anonymous": false,
      "inputs": [
        {
          "indexed": true,
          "internalType": "uint256",
          "name": "prevSlotMax",
          "type": "uint256"
        },
        {
          "indexed": true,
          "internalType": "uint256",
          "name": "slotMax",
          "type": "uint256"
        }
      ],
      "name": "ChangedSlotMaximum",
      "type": "event"
    },
    {
      "anonymous": false,
      "inputs": [
        {
          "indexed": true,
          "internalType": "address",
          "name": "candidate",
          "type": "address"
        },
        {
          "indexed": false,
          "internalType": "address",
          "name": "receiver",
          "type": "address"
        },
        {
          "indexed": false,
          "internalType": "uint256",
          "name": "amount",
          "type": "uint256"
        }
      ],
      "name": "ClaimedActivityReward",
      "type": "event"
    },
    {
      "anonymous": false,
      "inputs": [
        {
          "indexed": true,
          "internalType": "address",
          "name": "candidate",
          "type": "address"
        },
        {
          "indexed": true,
          "internalType": "address",
          "name": "candidateContract",
          "type": "address"
        },
        {
          "indexed": false,
          "internalType": "string",
          "name": "memo",
          "type": "string"
        }
      ],
      "name": "Layer2Registered",
      "type": "event"
    },
    {
      "anonymous": false,
      "inputs": [
        {
          "indexed": false,
          "internalType": "uint256",
          "name": "newQuorum",
          "type": "uint256"
        }
      ],
      "name": "QuorumChanged",
      "type": "event"
    },
    {
      "anonymous": false,
      "inputs": [
        {
          "indexed": true,
          "internalType": "bytes32",
          "name": "role",
          "type": "bytes32"
        },
        {
          "indexed": true,
          "internalType": "bytes32",
          "name": "previousAdminRole",
          "type": "bytes32"
        },
        {
          "indexed": true,
          "internalType": "bytes32",
          "name": "newAdminRole",
          "type": "bytes32"
        }
      ],
      "name": "RoleAdminChanged",
      "type": "event"
    },
    {
      "anonymous": false,
      "inputs": [
        {
          "indexed": true,
          "internalType": "bytes32",
          "name": "role",
          "type": "bytes32"
        },
        {
          "indexed": true,
          "internalType": "address",
          "name": "account",
          "type": "address"
        },
        {
          "indexed": true,
          "internalType": "address",
          "name": "sender",
          "type": "address"
        }
      ],
      "name": "RoleGranted",
      "type": "event"
    },
    {
      "anonymous": false,
      "inputs": [
        {
          "indexed": true,
          "internalType": "bytes32",
          "name": "role",
          "type": "bytes32"
        },
        {
          "indexed": true,
          "internalType": "address",
          "name": "account",
          "type": "address"
        },
        {
          "indexed": true,
          "internalType": "address",
          "name": "sender",
          "type": "address"
        }
      ],
      "name": "RoleRevoked",
      "type": "event"
    },
    {
      "inputs": [],
      "name": "DEFAULT_ADMIN_ROLE",
      "outputs": [
        {
          "internalType": "bytes32",
          "name": "",
          "type": "bytes32"
        }
      ],
      "stateMutability": "view",
      "type": "function"
    },
    {
      "inputs": [],
      "name": "activityRewardPerSecond",
      "outputs": [
        {
          "internalType": "uint256",
          "name": "",
          "type": "uint256"
        }
      ],
      "stateMutability": "view",
      "type": "function"
    },
    {
      "inputs": [],
      "name": "agendaManager",
      "outputs": [
        {
          "internalType": "contract IDAOAgendaManager",
          "name": "",
          "type": "address"
        }
      ],
      "stateMutability": "view",
      "type": "function"
    },
    {
      "inputs": [
        {
          "internalType": "address",
          "name": "_candidate",
          "type": "address"
        },
        {
          "internalType": "address",
          "name": "_account",
          "type": "address"
        }
      ],
      "name": "balanceOfOnCandidate",
      "outputs": [
        {
          "internalType": "uint256",
          "name": "amount",
          "type": "uint256"
        }
      ],
      "stateMutability": "view",
      "type": "function"
    },
    {
      "inputs": [
        {
          "internalType": "address",
          "name": "_candidateContract",
          "type": "address"
        },
        {
          "internalType": "address",
          "name": "_account",
          "type": "address"
        }
      ],
      "name": "balanceOfOnCandidateContract",
      "outputs": [
        {
          "internalType": "uint256",
          "name": "amount",
          "type": "uint256"
        }
      ],
      "stateMutability": "view",
      "type": "function"
    },
    {
      "inputs": [
        {
          "internalType": "address",
          "name": "_candidate",
          "type": "address"
        }
      ],
      "name": "candidateContract",
      "outputs": [
        {
          "internalType": "address",
          "name": "",
          "type": "address"
        }
      ],
      "stateMutability": "view",
      "type": "function"
    },
    {
      "inputs": [],
      "name": "candidateFactory",
      "outputs": [
        {
          "internalType": "contract ICandidateFactory",
          "name": "",
          "type": "address"
        }
      ],
      "stateMutability": "view",
      "type": "function"
    },
    {
      "inputs": [
        {
          "internalType": "address",
          "name": "_candidate",
          "type": "address"
        }
      ],
      "name": "candidateInfos",
      "outputs": [
        {
          "components": [
            {
              "internalType": "address",
              "name": "candidateContract",
              "type": "address"
            },
            {
              "internalType": "uint256",
              "name": "indexMembers",
              "type": "uint256"
            },
            {
              "internalType": "uint128",
              "name": "memberJoinedTime",
              "type": "uint128"
            },
            {
              "internalType": "uint128",
              "name": "rewardPeriod",
              "type": "uint128"
            },
            {
              "internalType": "uint128",
              "name": "claimedTimestamp",
              "type": "uint128"
            }
          ],
          "internalType": "struct StorageStateCommittee.CandidateInfo",
          "name": "",
          "type": "tuple"
        }
      ],
      "stateMutability": "view",
      "type": "function"
    },
    {
      "inputs": [
        {
          "internalType": "uint256",
          "name": "",
          "type": "uint256"
        }
      ],
      "name": "candidates",
      "outputs": [
        {
          "internalType": "address",
          "name": "",
          "type": "address"
        }
      ],
      "stateMutability": "view",
      "type": "function"
    },
    {
      "inputs": [],
      "name": "candidatesLength",
      "outputs": [
        {
          "internalType": "uint256",
          "name": "",
          "type": "uint256"
        }
      ],
      "stateMutability": "view",
      "type": "function"
    },
    {
      "inputs": [
        {
          "internalType": "uint256",
          "name": "_agendaID",
          "type": "uint256"
        },
        {
          "internalType": "uint256",
          "name": "_vote",
          "type": "uint256"
        },
        {
          "internalType": "string",
          "name": "_comment",
          "type": "string"
        }
      ],
      "name": "castVote",
      "outputs": [],
      "stateMutability": "nonpayable",
      "type": "function"
    },
    {
      "inputs": [
        {
          "internalType": "uint256",
          "name": "_memberIndex",
          "type": "uint256"
        }
      ],
      "name": "changeMember",
      "outputs": [
        {
          "internalType": "bool",
          "name": "",
          "type": "bool"
        }
      ],
      "stateMutability": "nonpayable",
      "type": "function"
    },
    {
      "inputs": [
        {
          "internalType": "address",
          "name": "_receiver",
          "type": "address"
        }
      ],
      "name": "claimActivityReward",
      "outputs": [],
      "stateMutability": "nonpayable",
      "type": "function"
    },
    {
      "inputs": [
        {
          "internalType": "string",
          "name": "_memo",
          "type": "string"
        },
        {
          "internalType": "address",
          "name": "_operatorAddress",
          "type": "address"
        }
      ],
      "name": "createCandidate",
      "outputs": [],
      "stateMutability": "nonpayable",
      "type": "function"
    },
    {
      "inputs": [
        {
          "internalType": "string",
          "name": "_memo",
          "type": "string"
        }
      ],
      "name": "createCandidate",
      "outputs": [],
      "stateMutability": "nonpayable",
      "type": "function"
    },
    {
      "inputs": [],
      "name": "daoVault",
      "outputs": [
        {
          "internalType": "contract IDAOVault",
          "name": "",
          "type": "address"
        }
      ],
      "stateMutability": "view",
      "type": "function"
    },
    {
      "inputs": [
        {
          "internalType": "uint256",
          "name": "_reducingMemberIndex",
          "type": "uint256"
        },
        {
          "internalType": "uint256",
          "name": "_quorum",
          "type": "uint256"
        }
      ],
      "name": "decreaseMaxMember",
      "outputs": [],
      "stateMutability": "nonpayable",
      "type": "function"
    },
    {
      "inputs": [
        {
          "internalType": "uint256",
          "name": "_agendaID",
          "type": "uint256"
        }
      ],
      "name": "endAgendaVoting",
      "outputs": [],
      "stateMutability": "nonpayable",
      "type": "function"
    },
    {
      "inputs": [
        {
          "internalType": "uint256",
          "name": "_agendaID",
          "type": "uint256"
        }
      ],
      "name": "executeAgenda",
      "outputs": [],
      "stateMutability": "nonpayable",
      "type": "function"
    },
    {
      "inputs": [
        {
          "internalType": "address",
          "name": "_candidate",
          "type": "address"
        }
      ],
      "name": "getClaimableActivityReward",
      "outputs": [
        {
          "internalType": "uint256",
          "name": "",
          "type": "uint256"
        }
      ],
      "stateMutability": "view",
      "type": "function"
    },
    {
      "inputs": [
        {
          "internalType": "address",
          "name": "_oldCandidate",
          "type": "address"
        }
      ],
      "name": "getOldCandidateInfos",
      "outputs": [
        {
          "components": [
            {
              "internalType": "address",
              "name": "candidateContract",
              "type": "address"
            },
            {
              "internalType": "address",
              "name": "newCandidate",
              "type": "address"
            },
            {
              "internalType": "uint256",
              "name": "indexMembers",
              "type": "uint256"
            },
            {
              "internalType": "uint128",
              "name": "memberJoinedTime",
              "type": "uint128"
            },
            {
              "internalType": "uint128",
              "name": "rewardPeriod",
              "type": "uint128"
            },
            {
              "internalType": "uint128",
              "name": "claimedTimestamp",
              "type": "uint128"
            }
          ],
          "internalType": "struct StorageStateCommitteeV2.CandidateInfo2",
          "name": "",
          "type": "tuple"
        }
      ],
      "stateMutability": "view",
      "type": "function"
    },
    {
      "inputs": [
        {
          "internalType": "bytes32",
          "name": "role",
          "type": "bytes32"
        }
      ],
      "name": "getRoleAdmin",
      "outputs": [
        {
          "internalType": "bytes32",
          "name": "",
          "type": "bytes32"
        }
      ],
      "stateMutability": "view",
      "type": "function"
    },
    {
      "inputs": [
        {
          "internalType": "bytes32",
          "name": "role",
          "type": "bytes32"
        },
        {
          "internalType": "uint256",
          "name": "index",
          "type": "uint256"
        }
      ],
      "name": "getRoleMember",
      "outputs": [
        {
          "internalType": "address",
          "name": "",
          "type": "address"
        }
      ],
      "stateMutability": "view",
      "type": "function"
    },
    {
      "inputs": [
        {
          "internalType": "bytes32",
          "name": "role",
          "type": "bytes32"
        }
      ],
      "name": "getRoleMemberCount",
      "outputs": [
        {
          "internalType": "uint256",
          "name": "",
          "type": "uint256"
        }
      ],
      "stateMutability": "view",
      "type": "function"
    },
    {
      "inputs": [
        {
          "internalType": "bytes32",
          "name": "role",
          "type": "bytes32"
        },
        {
          "internalType": "address",
          "name": "account",
          "type": "address"
        }
      ],
      "name": "grantRole",
      "outputs": [],
      "stateMutability": "nonpayable",
      "type": "function"
    },
    {
      "inputs": [
        {
          "internalType": "bytes32",
          "name": "role",
          "type": "bytes32"
        },
        {
          "internalType": "address",
          "name": "account",
          "type": "address"
        }
      ],
      "name": "hasRole",
      "outputs": [
        {
          "internalType": "bool",
          "name": "",
          "type": "bool"
        }
      ],
      "stateMutability": "view",
      "type": "function"
    },
    {
      "inputs": [
        {
          "internalType": "address",
          "name": "_candidate",
          "type": "address"
        }
      ],
      "name": "isCandidate",
      "outputs": [
        {
          "internalType": "bool",
          "name": "",
          "type": "bool"
        }
      ],
      "stateMutability": "view",
      "type": "function"
    },
    {
      "inputs": [
        {
          "internalType": "address",
          "name": "_candidate",
          "type": "address"
        }
      ],
      "name": "isExistCandidate",
      "outputs": [
        {
          "internalType": "bool",
          "name": "isExist",
          "type": "bool"
        }
      ],
      "stateMutability": "view",
      "type": "function"
    },
    {
      "inputs": [
        {
          "internalType": "address",
          "name": "_candidate",
          "type": "address"
        }
      ],
      "name": "isMember",
      "outputs": [
        {
          "internalType": "bool",
          "name": "",
          "type": "bool"
        }
      ],
      "stateMutability": "view",
      "type": "function"
    },
    {
      "inputs": [],
      "name": "layer2Registry",
      "outputs": [
        {
          "internalType": "contract ILayer2Registry",
          "name": "",
          "type": "address"
        }
      ],
      "stateMutability": "view",
      "type": "function"
    },
    {
      "inputs": [],
      "name": "maxMember",
      "outputs": [
        {
          "internalType": "uint256",
          "name": "",
          "type": "uint256"
        }
      ],
      "stateMutability": "view",
      "type": "function"
    },
    {
      "inputs": [
        {
          "internalType": "uint256",
          "name": "",
          "type": "uint256"
        }
      ],
      "name": "members",
      "outputs": [
        {
          "internalType": "address",
          "name": "",
          "type": "address"
        }
      ],
      "stateMutability": "view",
      "type": "function"
    },
    {
      "inputs": [
        {
          "internalType": "address",
          "name": "owner",
          "type": "address"
        },
        {
          "internalType": "address",
          "name": "spender",
          "type": "address"
        },
        {
          "internalType": "uint256",
          "name": "tonAmount",
          "type": "uint256"
        },
        {
          "internalType": "bytes",
          "name": "data",
          "type": "bytes"
        }
      ],
      "name": "onApprove",
      "outputs": [
        {
          "internalType": "bool",
          "name": "",
          "type": "bool"
        }
      ],
      "stateMutability": "nonpayable",
      "type": "function"
    },
    {
      "inputs": [],
      "name": "pauseProxy",
      "outputs": [
        {
          "internalType": "bool",
          "name": "",
          "type": "bool"
        }
      ],
      "stateMutability": "view",
      "type": "function"
    },
    {
      "inputs": [],
      "name": "quorum",
      "outputs": [
        {
          "internalType": "uint256",
          "name": "",
          "type": "uint256"
        }
      ],
      "stateMutability": "view",
      "type": "function"
    },
    {
      "inputs": [
        {
          "internalType": "address",
          "name": "_layer2",
          "type": "address"
        },
        {
          "internalType": "string",
          "name": "_memo",
          "type": "string"
        }
      ],
      "name": "registerLayer2Candidate",
      "outputs": [],
      "stateMutability": "nonpayable",
      "type": "function"
    },
    {
      "inputs": [
        {
          "internalType": "address",
          "name": "_operator",
          "type": "address"
        },
        {
          "internalType": "address",
          "name": "_layer2",
          "type": "address"
        },
        {
          "internalType": "string",
          "name": "_memo",
          "type": "string"
        }
      ],
      "name": "registerLayer2CandidateByOwner",
      "outputs": [],
      "stateMutability": "nonpayable",
      "type": "function"
    },
    {
      "inputs": [
        {
          "internalType": "bytes32",
          "name": "role",
          "type": "bytes32"
        },
        {
          "internalType": "address",
          "name": "account",
          "type": "address"
        }
      ],
      "name": "renounceRole",
      "outputs": [],
      "stateMutability": "nonpayable",
      "type": "function"
    },
    {
      "inputs": [],
      "name": "retireMember",
      "outputs": [
        {
          "internalType": "bool",
          "name": "",
          "type": "bool"
        }
      ],
      "stateMutability": "nonpayable",
      "type": "function"
    },
    {
      "inputs": [
        {
          "internalType": "bytes32",
          "name": "role",
          "type": "bytes32"
        },
        {
          "internalType": "address",
          "name": "account",
          "type": "address"
        }
      ],
      "name": "revokeRole",
      "outputs": [],
      "stateMutability": "nonpayable",
      "type": "function"
    },
    {
      "inputs": [],
      "name": "seigManager",
      "outputs": [
        {
          "internalType": "contract ISeigManager",
          "name": "",
          "type": "address"
        }
      ],
      "stateMutability": "view",
      "type": "function"
    },
    {
      "inputs": [
        {
          "internalType": "uint256",
          "name": "_agendaID",
          "type": "uint256"
        },
        {
          "internalType": "uint256",
          "name": "_status",
          "type": "uint256"
        },
        {
          "internalType": "uint256",
          "name": "_result",
          "type": "uint256"
        }
      ],
      "name": "setAgendaStatus",
      "outputs": [],
      "stateMutability": "nonpayable",
      "type": "function"
    },
    {
      "inputs": [
        {
          "internalType": "address",
          "name": "_candidateFactory",
          "type": "address"
        }
      ],
      "name": "setCandidateFactory",
      "outputs": [],
      "stateMutability": "nonpayable",
      "type": "function"
    },
    {
      "inputs": [
        {
          "internalType": "uint256",
          "name": "_fees",
          "type": "uint256"
        }
      ],
      "name": "setCreateAgendaFees",
      "outputs": [],
      "stateMutability": "nonpayable",
      "type": "function"
    },
    {
      "inputs": [
        {
          "internalType": "uint256",
          "name": "_executingPeriodSeconds",
          "type": "uint256"
        }
      ],
      "name": "setExecutingPeriodSeconds",
      "outputs": [],
      "stateMutability": "nonpayable",
      "type": "function"
    },
    {
      "inputs": [
        {
          "internalType": "address",
          "name": "_layer2Registry",
          "type": "address"
        }
      ],
      "name": "setLayer2Registry",
      "outputs": [],
      "stateMutability": "nonpayable",
      "type": "function"
    },
    {
      "inputs": [
        {
          "internalType": "address",
          "name": "_candidateContract",
          "type": "address"
        },
        {
          "internalType": "string",
          "name": "_memo",
          "type": "string"
        }
      ],
      "name": "setMemoOnCandidateContract",
      "outputs": [],
      "stateMutability": "nonpayable",
      "type": "function"
    },
    {
      "inputs": [
        {
          "internalType": "uint256",
          "name": "_minimumNoticePeriod",
          "type": "uint256"
        }
      ],
      "name": "setMinimumNoticePeriodSeconds",
      "outputs": [],
      "stateMutability": "nonpayable",
      "type": "function"
    },
    {
      "inputs": [
        {
          "internalType": "uint256",
          "name": "_minimumVotingPeriod",
          "type": "uint256"
        }
      ],
      "name": "setMinimumVotingPeriodSeconds",
      "outputs": [],
      "stateMutability": "nonpayable",
      "type": "function"
    },
    {
      "inputs": [
        {
          "internalType": "uint256",
          "name": "_quorum",
          "type": "uint256"
        }
      ],
      "name": "setQuorum",
      "outputs": [],
      "stateMutability": "nonpayable",
      "type": "function"
    },
    {
      "inputs": [
        {
          "internalType": "address",
          "name": "_seigManager",
          "type": "address"
        }
      ],
      "name": "setSeigManager",
      "outputs": [],
      "stateMutability": "nonpayable",
      "type": "function"
    },
    {
      "inputs": [],
      "name": "setSeigPause",
      "outputs": [],
      "stateMutability": "nonpayable",
      "type": "function"
    },
    {
      "inputs": [],
      "name": "setSeigUnpause",
      "outputs": [],
      "stateMutability": "nonpayable",
      "type": "function"
    },
    {
      "inputs": [
        {
          "internalType": "address",
          "name": "token",
          "type": "address"
        },
        {
          "internalType": "address",
          "name": "account",
          "type": "address"
        }
      ],
      "name": "setTargetAddMinter",
      "outputs": [],
      "stateMutability": "nonpayable",
      "type": "function"
    },
    {
      "inputs": [
        {
          "internalType": "address",
          "name": "target",
          "type": "address"
        },
        {
          "internalType": "uint256",
          "name": "globalWithdrawalDelay_",
          "type": "uint256"
        }
      ],
      "name": "setTargetGlobalWithdrawalDelay",
      "outputs": [],
      "stateMutability": "nonpayable",
      "type": "function"
    },
    {
      "inputs": [
        {
          "internalType": "address",
          "name": "target",
          "type": "address"
        },
        {
          "internalType": "address",
          "name": "_seigManager",
          "type": "address"
        }
      ],
      "name": "setTargetSeigManager",
      "outputs": [],
      "stateMutability": "nonpayable",
      "type": "function"
    },
    {
      "inputs": [
        {
          "internalType": "bytes4",
          "name": "interfaceId",
          "type": "bytes4"
        }
      ],
      "name": "supportsInterface",
      "outputs": [
        {
          "internalType": "bool",
          "name": "",
          "type": "bool"
        }
      ],
      "stateMutability": "view",
      "type": "function"
    },
    {
      "inputs": [],
      "name": "ton",
      "outputs": [
        {
          "internalType": "address",
          "name": "",
          "type": "address"
        }
      ],
      "stateMutability": "view",
      "type": "function"
    },
    {
      "inputs": [
        {
          "internalType": "address",
          "name": "_candidate",
          "type": "address"
        }
      ],
      "name": "totalSupplyOnCandidate",
      "outputs": [
        {
          "internalType": "uint256",
          "name": "totalsupply",
          "type": "uint256"
        }
      ],
      "stateMutability": "view",
      "type": "function"
    },
    {
      "inputs": [
        {
          "internalType": "address",
          "name": "_candidateContract",
          "type": "address"
        }
      ],
      "name": "totalSupplyOnCandidateContract",
      "outputs": [
        {
          "internalType": "uint256",
          "name": "totalsupply",
          "type": "uint256"
        }
      ],
      "stateMutability": "view",
      "type": "function"
    },
    {
      "inputs": [
        {
          "internalType": "address",
          "name": "_candidate",
          "type": "address"
        }
      ],
      "name": "updateSeigniorage",
      "outputs": [
        {
          "internalType": "bool",
          "name": "",
          "type": "bool"
        }
      ],
      "stateMutability": "nonpayable",
      "type": "function"
    },
    {
      "inputs": [
        {
          "internalType": "address[]",
          "name": "_candidates",
          "type": "address[]"
        }
      ],
      "name": "updateSeigniorages",
      "outputs": [
        {
          "internalType": "bool",
          "name": "",
          "type": "bool"
        }
      ],
      "stateMutability": "nonpayable",
      "type": "function"
    }
  ],
  "bytecode": "0x60806040523480156200001157600080fd5b50620000246301ffc9a760e01b6200002a565b620000ae565b6001600160e01b03198082169003620000895760405162461bcd60e51b815260206004820152601c60248201527f4552433136353a20696e76616c696420696e7465726661636520696400000000604482015260640160405180910390fd5b6001600160e01b0319166000908152600d60205260409020805460ff19166001179055565b615f2d80620000be6000396000f3fe608060405234801561001057600080fd5b50600436106103ba5760003560e01c80636becff27116101f4578063a1f3ac2a1161011a578063c4ef9c00116100ad578063d51b9e931161007c578063d51b9e9314610a69578063d525f04f14610a7c578063d547741f14610a8f578063efd5797914610aa257600080fd5b8063c4ef9c0014610a28578063ca15c87314610a30578063cc48b94714610a43578063cf2a239c14610a5657600080fd5b8063b4f69b6a116100e9578063b4f69b6a146109dc578063b5dd1158146109ef578063c0bc530414610a02578063c1ba4e5914610a1557600080fd5b8063a1f3ac2a14610977578063a217fddf1461098a578063a230c52414610992578063ad6675dc146109c957600080fd5b806381bfe42c1161019257806391d148541161016157806391d148541461092b5780639932e94c1461093e5780639d65b53114610951578063a1ea35251461096457600080fd5b806381bfe42c146108ea578063885b4696146108f257806389ea4300146109055780639010d07c1461091857600080fd5b8063773b7f65116101ce578063773b7f65146108b357806378767d33146108bb5780637f331636146108ce578063805aca20146108d757600080fd5b80636becff271461087a5780636fb7f5581461088d5780637657f20a146108a057600080fd5b806332a45ef6116102e457806357f0a86711610277578063607cf73411610246578063607cf7341461080357806363a8fd8914610816578063651d08cd1461083b57806369b1227a1461086757600080fd5b806357f0a867146107b75780635903bd6c146107ca5780635daf08ca146107dd5780635fba7a56146107f057600080fd5b80634273ca16116102b35780634273ca1614610750578063440b69ad1461076357806350e8f17d14610776578063561a1dab1461078957600080fd5b806332a45ef6146107045780633477ee2e1461071757806336568abe1461072a57806338d1b17c1461073d57600080fd5b8063216f486b1161035c57806327fd92fd1161032b57806327fd92fd146105c25780632af60ff4146105ed5780632e011c1e146106005780632f2ff15d146106f157600080fd5b8063216f486b1461056657806323d09fdf14610579578063248a9ca31461058c57806324f99b1e146105af57600080fd5b806311f19e041161039857806311f19e041461041357806314d3535e1461042657806316f7f9821461054a5780631703a0181461055d57600080fd5b806301ffc9a7146103bf57806303e3c9ac146103e7578063047f52f2146103fe575b600080fd5b6103d26103cd3660046151a1565b610aaa565b60405190151581526020015b60405180910390f35b6103f060085481565b6040519081526020016103de565b61041161040c3660046151e3565b610ace565b005b6103d2610421366004615200565b610b78565b6104e06104343660046151e3565b6040805160c081018252600080825260208201819052918101829052606081018290526080810182905260a0810191909152506001600160a01b039081166000908152600f6020908152604091829020825160c08101845281548516815260018201549094169184019190915260028101549183019190915260038101546001600160801b038082166060850152600160801b909104811660808401526004909101541660a082015290565b6040516103de9190600060c0820190506001600160a01b03808451168352806020850151166020840152506040830151604083015260608301516001600160801b0380821660608501528060808601511660808501528060a08601511660a0850152505092915050565b6103f0610558366004615219565b6110db565b6103f0600a5481565b610411610574366004615200565b6111a4565b610411610587366004615200565b611678565b6103f061059a366004615200565b6000908152600c602052604090206002015490565b6104116105bd36600461529b565b61175c565b6002546105d5906001600160a01b031681565b6040516001600160a01b0390911681526020016103de565b6104116105fb3660046151e3565b611c36565b61069c61060e3660046151e3565b6040805160a0808201835260008083526020808401829052838501829052606080850183905260809485018390526001600160a01b0396871683526009825291859020855193840186528054909616835260018601549083015260028501546001600160801b0380821695840195909552600160801b90048416908201526003909301549091169082015290565b6040805182516001600160a01b0316815260208084015190820152828201516001600160801b03908116928201929092526060808401518316908201526080928301519091169181019190915260a0016103de565b6104116106ff3660046152ee565b611cd7565b610411610712366004615313565b611d73565b6105d5610725366004615200565b612547565b6104116107383660046152ee565b612571565b61041161074b36600461536a565b6125f9565b6103d261075e366004615396565b61267f565b6104116107713660046154d6565b612718565b610411610784366004615538565b61289b565b6103d26107973660046151e3565b6001600160a01b0390811660009081526009602052604090205416151590565b6103d26107c536600461555a565b612b36565b6001546105d5906001600160a01b031681565b6105d56107eb366004615200565b612be7565b6104116107fe3660046155cf565b612bf7565b610411610811366004615611565b612fd6565b600e546103d29074010000000000000000000000000000000000000000900460ff1681565b6105d56108493660046151e3565b6001600160a01b039081166000908152600960205260409020541690565b610411610875366004615200565b61322d565b6104116108883660046151e3565b6132e0565b6005546105d5906001600160a01b031681565b6104116108ae3660046151e3565b613513565b6006546103f0565b6103f06108c93660046151e3565b6135b4565b6103f0600b5481565b6104116108e5366004615666565b61366e565b610411613782565b610411610900366004615200565b613813565b6103d26109133660046151e3565b613844565b6105d5610926366004615538565b6138c0565b6103d26109393660046152ee565b6138d8565b6103f061094c3660046151e3565b6138f0565b61041161095f366004615219565b6139a5565b610411610972366004615692565b6139fa565b610411610985366004615219565b613b51565b6103f0600081565b6103d26109a03660046151e3565b6001600160a01b03166000908152600960205260409020600201546001600160801b0316151590565b6103f06109d73660046151e3565b613ba6565b6104116109ea366004615200565b613bd6565b6003546105d5906001600160a01b031681565b610411610a10366004615200565b613c89565b610411610a23366004615200565b613d3c565b6103d2613eb7565b6103f0610a3e366004615200565b614180565b6000546105d5906001600160a01b031681565b6004546105d5906001600160a01b031681565b6103d2610a773660046151e3565b614197565b6103f0610a8a366004615219565b614266565b610411610a9d3660046152ee565b614297565b610411614325565b6001600160e01b031981166000908152600d602052604081205460ff165b92915050565b610ad96000336138d8565b610afe5760405162461bcd60e51b8152600401610af5906156e2565b60405180910390fd5b806001600160a01b038116610b555760405162461bcd60e51b815260206004820152601a60248201527f44414f436f6d6d69747465653a207a65726f20616464726573730000000000006044820152606401610af5565b50600380546001600160a01b0319166001600160a01b0392909216919091179055565b6000816008548110610bd75760405162461bcd60e51b815260206004820152602260248201527f44414f436f6d6d69747465653a20696e76616c6964206d656d62657220696e646044820152610caf60f31b6064820152608401610af5565b6000336001600160a01b0316636c8381f86040518163ffffffff1660e01b8152600401602060405180830381865afa158015610c17573d6000803e3d6000fd5b505050506040513d601f19601f82011682018060405250810190610c3b919061572a565b6001600160a01b0381166000908152600960209081526040918290208251631dffc87160e21b815292519394509233926377ff21c49260048083019391928290030181865afa158015610c92573d6000803e3d6000fd5b505050506040513d601f19601f82011682018060405250810190610cb69190615765565b610d285760405162461bcd60e51b815260206004820152603060248201527f44414f436f6d6d69747465653a2073656e646572206973206e6f74206120636160448201527f6e64696461746520636f6e7472616374000000000000000000000000000000006064820152608401610af5565b80546001600160a01b03163314610d925760405162461bcd60e51b815260206004820152602860248201527f44414f436f6d6d69747465653a20696e76616c69642063616e6469646174652060448201526718dbdb9d1c9858dd60c21b6064820152608401610af5565b60028101546001600160801b031615610ded5760405162461bcd60e51b815260206004820152601c60248201527f44414f436f6d6d69747465653a20616c7265616479206d656d626572000000006044820152606401610af5565b600060078681548110610e0257610e02615782565b60009182526020822001546001600160a01b03169150610e3a826001600160a01b039081166000908152600960205260409020541690565b6002840180546001600160801b031916426001600160801b03161790556001840188905560078054919250859189908110610e7757610e77615782565b600091825260209091200180546001600160a01b0319166001600160a01b039283161790558216610ef1576040516001600160a01b03838116825285169088907f663b98adf1afa777e36528b3293a057803f87ed00d2d2518dccfe5d7a6e99ccf9060200160405180910390a360019550505050506110d5565b806001600160a01b031663817b1cd26040518163ffffffff1660e01b8152600401602060405180830381865afa158015610f2f573d6000803e3d6000fd5b505050506040513d601f19601f82011682018060405250810190610f539190615798565b336001600160a01b031663817b1cd26040518163ffffffff1660e01b8152600401602060405180830381865afa158015610f91573d6000803e3d6000fd5b505050506040513d601f19601f82011682018060405250810190610fb59190615798565b116110025760405162461bcd60e51b815260206004820152601160248201527f6e6f7420656e6f75676820616d6f756e740000000000000000000000000000006044820152606401610af5565b6001600160a01b03821660009081526009602052604081206001810191909155600281015461103a906001600160801b0316426157c7565b60028201546110599190600160801b90046001600160801b03166157da565b6001600160801b0316600160801b026001600160801b03191660028201556040516001600160a01b0386169089907f663b98adf1afa777e36528b3293a057803f87ed00d2d2518dccfe5d7a6e99ccf906110c39087906001600160a01b0391909116815260200190565b60405180910390a36001965050505050505b50919050565b60006001600160a01b0383166111335760405162461bcd60e51b815260206004820152601f60248201527f54686973206163636f756e74206973206e6f7420612063616e646964617465006044820152606401610af5565b60405163af500ba360e01b81526001600160a01b03838116600483015284169063af500ba390602401602060405180830381865afa158015611179573d6000803e3d6000fd5b505050506040513d601f19601f8201168201806040525081019061119d9190615798565b9392505050565b6002546001600160a01b03166111ff5760405162461bcd60e51b815260206004820152602c6024820152600080516020615f0183398151915260448201526b61676572206973207a65726f60a01b6064820152608401610af5565b6002546040516377f28d5b60e01b8152600481018390526001600160a01b03909116906377f28d5b90602401602060405180830381865afa158015611248573d6000803e3d6000fd5b505050506040513d601f19601f8201168201806040525081019061126c9190615765565b6112c95760405162461bcd60e51b815260206004820152602860248201527f44414f436f6d6d69747465653a2063616e206e6f74206578656375746520746860448201526765206167656e646160c01b6064820152608401610af5565b6002546040516373ba374560e01b8152600481018390526000918291829182916001600160a01b03909116906373ba374590602401600060405180830381865afa15801561131b573d6000803e3d6000fd5b505050506040513d6000823e601f3d908101601f1916820160405261134391908101906158fc565b935093509350935081156114c657600254604051631b8c251960e11b8152600481018790526001600160a01b03909116906337184a3290602401600060405180830381600087803b15801561139757600080fd5b505af11580156113ab573d6000803e3d6000fd5b5050505060005b84518110156114c05760008582815181106113cf576113cf615782565b60200260200101516001600160a01b03168583815181106113f2576113f2615782565b602002602001015160405161140791906159d9565b6000604051808303816000865af19150503d8060008114611444576040519150601f19603f3d011682016040523d82523d6000602084013e611449565b606091505b50509050806114ad5760405162461bcd60e51b815260206004820152602a60248201527f44414f436f6d6d69747465653a204661696c656420746f206578656375746520604482015269746865206167656e646160b01b6064820152608401610af5565b50806114b8816159f5565b9150506113b2565b50611639565b6000815b855181101561155f57600061152c8783815181106114ea576114ea615782565b602002602001015187848151811061150457611504615782565b60200260200101515188858151811061151f5761151f615782565b602002602001015161439c565b905080156115465761153f8360016157da565b925061154c565b5061155f565b5080611557816159f5565b9150506114ca565b50600254604051632833207960e21b815260048101889052602481018390526001600160a01b039091169063a0cc81e490604401600060405180830381600087803b1580156115ad57600080fd5b505af11580156115c1573d6000803e3d6000fd5b50505050845181836115d391906157da565b0361163757600254604051631b8c251960e11b8152600481018890526001600160a01b03909116906337184a3290602401600060405180830381600087803b15801561161e57600080fd5b505af1158015611632573d6000803e3d6000fd5b505050505b505b847f785146be3266678a3f4ea454b310ff1f8c91d0ad9a7997bcd0619940d4d67fe6856040516116699190615a52565b60405180910390a25050505050565b6116836000336138d8565b61169f5760405162461bcd60e51b8152600401610af5906156e2565b6002546001600160a01b03166116fa5760405162461bcd60e51b815260206004820152602c6024820152600080516020615f0183398151915260448201526b61676572206973207a65726f60a01b6064820152608401610af5565b6002546040516323d09fdf60e01b8152600481018390526001600160a01b03909116906323d09fdf906024015b600060405180830381600087803b15801561174157600080fd5b505af1158015611755573d6000803e3d6000fd5b5050505050565b6002546001600160a01b03166117b75760405162461bcd60e51b815260206004820152602c6024820152600080516020615f0183398151915260448201526b61676572206973207a65726f60a01b6064820152608401610af5565b6000336001600160a01b0316636c8381f86040518163ffffffff1660e01b8152600401602060405180830381865afa1580156117f7573d6000803e3d6000fd5b505050506040513d601f19601f8201168201806040525081019061181b919061572a565b6001600160a01b03808216600090815260096020526040902080549293509116331461189a5760405162461bcd60e51b815260206004820152602860248201527f44414f436f6d6d69747465653a20696e76616c69642063616e6469646174652060448201526718dbdb9d1c9858dd60c21b6064820152608401610af5565b600254604051637e77eb2360e01b8152600481018890526001600160a01b0384811660248301526044820188905290911690637e77eb23906064016020604051808303816000875af11580156118f4573d6000803e3d6000fd5b505050506040513d601f19601f820116820180604052508101906119189190615765565b50600254604051635772521560e11b815260048101889052600091829182916001600160a01b03169063aee4a42a90602401606060405180830381865afa158015611967573d6000803e3d6000fd5b505050506040513d601f19601f8201168201806040525081019061198b9190615a65565b92509250925082600a5411611a6957600254604051632b0a851b60e11b81526001600160a01b03909116906356150a36906119cd908c90600190600401615aa9565b600060405180830381600087803b1580156119e757600080fd5b505af11580156119fb573d6000803e3d6000fd5b5050600254604051633625b75960e21b81526001600160a01b03909116925063d896dd649150611a32908c90600390600401615acd565b600060405180830381600087803b158015611a4c57600080fd5b505af1158015611a60573d6000803e3d6000fd5b50505050611be5565b81600a5411611b085760028054604051632b0a851b60e11b81526001600160a01b03909116916356150a3691611aa3918d91600401615aa9565b600060405180830381600087803b158015611abd57600080fd5b505af1158015611ad1573d6000803e3d6000fd5b5050600254604051633625b75960e21b81526001600160a01b03909116925063d896dd649150611a32908c90600590600401615acd565b611b1282826157da565b600a5411611be557600254604051632b0a851b60e11b81526001600160a01b03909116906356150a3690611b4d908c90600390600401615aa9565b600060405180830381600087803b158015611b6757600080fd5b505af1158015611b7b573d6000803e3d6000fd5b5050600254604051633625b75960e21b81526001600160a01b03909116925063d896dd649150611bb2908c90600590600401615acd565b600060405180830381600087803b158015611bcc57600080fd5b505af1158015611be0573d6000803e3d6000fd5b505050505b88336001600160a01b03167ffa0761008653bc7bf9fa040fb7e07672ad3e17a976eb452c44e81dd782a6214b8a8a8a604051611c2393929190615b0d565b60405180910390a3505050505050505050565b611c416000336138d8565b611c5d5760405162461bcd60e51b8152600401610af5906156e2565b806001600160a01b038116611cb45760405162461bcd60e51b815260206004820152601a60248201527f44414f436f6d6d69747465653a207a65726f20616464726573730000000000006044820152606401610af5565b50600480546001600160a01b0319166001600160a01b0392909216919091179055565b6000828152600c6020526040902060020154611cf390336138d8565b611d655760405162461bcd60e51b815260206004820152602f60248201527f416363657373436f6e74726f6c3a2073656e646572206d75737420626520616e60448201527f2061646d696e20746f206772616e7400000000000000000000000000000000006064820152608401610af5565b611d6f82826143bb565b5050565b6005546001600160a01b0316611ddf5760405162461bcd60e51b815260206004820152602b60248201527f53746f726167655374617465436f6d6d69747465653a20696e76616c6964205360448201526a6569674d616e616765726560a81b6064820152608401610af5565b6004546001600160a01b0316611e4d5760405162461bcd60e51b815260206004820152602d60248201527f53746f726167655374617465436f6d6d69747465653a20696e76616c6964204c60448201526c6179657232526567697374727960981b6064820152608401610af5565b6003546001600160a01b0316611ebf5760405162461bcd60e51b815260206004820152603160248201527f53746f726167655374617465436f6d6d69747465653a20696e76616c696420436044820152706f6d6d69747465654c32466163746f727960781b6064820152608401610af5565b611eca6000336138d8565b611ee65760405162461bcd60e51b8152600401610af5906156e2565b60035460055460405163732518fb60e11b81526000926001600160a01b039081169263e64a31f692611f2792879287928b928b923092911690600401615b30565b6020604051808303816000875af1158015611f46573d6000803e3d6000fd5b505050506040513d601f19601f82011682018060405250810190611f6a919061572a565b90506001600160a01b038116611fdb5760405162461bcd60e51b815260206004820152603060248201527f44414f436f6d6d69747465653a206465706c6f7965642063616e64696461746560448201526f436f6e7472616374206973207a65726f60801b6064820152608401610af5565b6001600160a01b038281166000908152600960205260409020541615612336576001600160a01b038281166000908152600f602052604090205416156120635760405162461bcd60e51b815260206004820152601060248201527f616c7265616479206d69677261746564000000000000000000000000000000006044820152606401610af5565b6040518060c0016040528060096000856001600160a01b03166001600160a01b0316815260200190815260200160002060000160009054906101000a90046001600160a01b03166001600160a01b03168152602001826001600160a01b0316815260200160096000856001600160a01b03166001600160a01b0316815260200190815260200160002060010154815260200160096000856001600160a01b03166001600160a01b0316815260200190815260200160002060020160009054906101000a90046001600160801b03166001600160801b0316815260200160096000856001600160a01b03166001600160a01b0316815260200190815260200160002060020160109054906101000a90046001600160801b03166001600160801b0316815260200160096000856001600160a01b03166001600160a01b0316815260200190815260200160002060030160009054906101000a90046001600160801b03166001600160801b0316815250600f6000846001600160a01b03166001600160a01b0316815260200190815260200160002060008201518160000160006101000a8154816001600160a01b0302191690836001600160a01b0316021790555060208201518160010160006101000a8154816001600160a01b0302191690836001600160a01b031602179055506040820151816002015560608201518160030160006101000a8154816001600160801b0302191690836001600160801b0316021790555060808201518160030160106101000a8154816001600160801b0302191690836001600160801b0316021790555060a08201518160040160006101000a8154816001600160801b0302191690836001600160801b031602179055509050508060096000846001600160a01b03166001600160a01b0316815260200190815260200160002060000160006101000a8154816001600160a01b0302191690836001600160a01b03160217905550612412565b6040805160a0810182526001600160a01b0383811682526000602080840182815284860183815260608601848152608087018581528a87168087526009909552978520965187546001600160a01b0319908116919097161787559151600180880191909155905191516001600160801b03928316600160801b918416919091021760028701559551600390950180546001600160801b031916959091169490941790935560068054948501815590527ff652222313e28459528d920b65115c16c04f3efc82aaedc97be59f3f377c0d3f90920180549092161790555b60048054600554604051635e58d38f60e11b81526001600160a01b0385811694820194909452908316602482015291169063bcb1a71e906044016020604051808303816000875af115801561246b573d6000803e3d6000fd5b505050506040513d601f19601f8201168201806040525081019061248f9190615765565b6124f45760405162461bcd60e51b815260206004820152603060248201527f44414f436f6d6d69747465653a206661696c656420746f20726567697374657260448201526f416e644465706c6f79436f696e61676560801b6064820152608401610af5565b806001600160a01b0316826001600160a01b03167f7cf8db18d9a5c7f44156bfabdbb59ac982a8a004e461ca1b87ee71a5cdfbc5ef8686604051612539929190615b77565b60405180910390a350505050565b6006818154811061255757600080fd5b6000918252602090912001546001600160a01b0316905081565b6001600160a01b03811633146125ef5760405162461bcd60e51b815260206004820152602f60248201527f416363657373436f6e74726f6c3a2063616e206f6e6c792072656e6f756e636560448201527f20726f6c657320666f722073656c6600000000000000000000000000000000006064820152608401610af5565b611d6f8282614414565b6126046000336138d8565b6126205760405162461bcd60e51b8152600401610af5906156e2565b60405163a79da34160e01b8152600481018290526001600160a01b0383169063a79da341906024015b600060405180830381600087803b15801561266357600080fd5b505af1158015612677573d6000803e3d6000fd5b505050505050565b600080546001600160a01b031633146126da5760405162461bcd60e51b815260206004820152601160248201527f49742773206e6f742066726f6d20544f4e0000000000000000000000000000006044820152606401610af5565b60006126e6848461446d565b905061270a87826000015183602001518460400151856060015186608001516144e9565b506001979650505050505050565b6127236000336138d8565b61273f5760405162461bcd60e51b8152600401610af5906156e2565b6005546001600160a01b03166127ab5760405162461bcd60e51b815260206004820152602b60248201527f53746f726167655374617465436f6d6d69747465653a20696e76616c6964205360448201526a6569674d616e616765726560a81b6064820152608401610af5565b6004546001600160a01b03166128195760405162461bcd60e51b815260206004820152602d60248201527f53746f726167655374617465436f6d6d69747465653a20696e76616c6964204c60448201526c6179657232526567697374727960981b6064820152608401610af5565b6003546001600160a01b031661288b5760405162461bcd60e51b815260206004820152603160248201527f53746f726167655374617465436f6d6d69747465653a20696e76616c696420436044820152706f6d6d69747465654c32466163746f727960781b6064820152608401610af5565b612896838383614621565b505050565b6128a66000336138d8565b6128c25760405162461bcd60e51b8152600401610af5906156e2565b81600854811061291f5760405162461bcd60e51b815260206004820152602260248201527f44414f436f6d6d69747465653a20696e76616c6964206d656d62657220696e646044820152610caf60f31b6064820152608401610af5565b60006007848154811061293457612934615782565b60009182526020808320909101546001600160a01b0316808352600990915260409091206007549192509061296b906001906157c7565b8514612a0d576007805460009190612985906001906157c7565b8154811061299557612995615782565b60009182526020808320909101546001600160a01b03168083526009909152604090912060018101889055600780549293509091839190899081106129dc576129dc615782565b9060005260206000200160006101000a8154816001600160a01b0302191690836001600160a01b0316021790555050505b600060018201556002810154612a2c906001600160801b0316426157c7565b6002820154612a4b9190600160801b90046001600160801b03166157da565b6001600160801b0316600160801b026001600160801b03191660028201556007805480612a7a57612a7a615b8b565b600082815260209020810160001990810180546001600160a01b0319169055019055600854612aab906001906157c7565b600855612ab784613d3c565b6040516001600160a01b038316815260009086907f663b98adf1afa777e36528b3293a057803f87ed00d2d2518dccfe5d7a6e99ccf9060200160405180910390a3600854612b068160016157da565b6040517f8c0366d1e3a335a312d012257ee764723c38ec2dd5e74cbfad372513521f977190600090a35050505050565b6000805b82811015612bdd57612b6c848483818110612b5757612b57615782565b905060200201602081019061091391906151e3565b612bcb5760405162461bcd60e51b815260206004820152602a60248201527f44414f436f6d6d69747465653a206661696c656420746f2075706461746520736044820152696569676e696f7261676560b01b6064820152608401610af5565b80612bd5816159f5565b915050612b3a565b5060019392505050565b6007818154811061255757600080fd5b336000818152600960205260409020546001600160a01b031615612c6f5760405162461bcd60e51b815260206004820152602960248201527f44414f436f6d6d69747465653a2063616e64696461746520616c7265616479206044820152681c9959da5cdd195c9960ba1b6064820152608401610af5565b60035460055460405163732518fb60e11b81526000926001600160a01b039081169263e64a31f692612cb092879287928b928b923092911690600401615b30565b6020604051808303816000875af1158015612ccf573d6000803e3d6000fd5b505050506040513d601f19601f82011682018060405250810190612cf3919061572a565b90506001600160a01b038116612d645760405162461bcd60e51b815260206004820152603060248201527f44414f436f6d6d69747465653a206465706c6f7965642063616e64696461746560448201526f436f6e7472616374206973207a65726f60801b6064820152608401610af5565b6001600160a01b038281166000908152600960205260409020541615612de55760405162461bcd60e51b815260206004820152603060248201527f44414f436f6d6d69747465653a205468652063616e64696461746520616c726560448201526f18591e481a185cc818dbdb9d1c9858dd60821b6064820152608401610af5565b60048054600554604051635e58d38f60e11b81526001600160a01b0385811694820194909452908316602482015291169063bcb1a71e906044016020604051808303816000875af1158015612e3e573d6000803e3d6000fd5b505050506040513d601f19601f82011682018060405250810190612e629190615765565b612ec75760405162461bcd60e51b815260206004820152603060248201527f44414f436f6d6d69747465653a206661696c656420746f20726567697374657260448201526f416e644465706c6f79436f696e61676560801b6064820152608401610af5565b6040805160a0810182526001600160a01b038381168083526000602080850182815285870183815260608701848152608088018581528b88168087526009909552898620985189546001600160a01b03199081169190991617895592516001808a0191909155915190516001600160801b03918216600160801b918316919091021760028901559151600390970180546001600160801b031916979092169690961790556006805495860181559091527ff652222313e28459528d920b65115c16c04f3efc82aaedc97be59f3f377c0d3f9093018054909216831790915591517f7cf8db18d9a5c7f44156bfabdbb59ac982a8a004e461ca1b87ee71a5cdfbc5ef906125399088908890615b77565b6000836001600160a01b0316636c8381f86040518163ffffffff1660e01b8152600401602060405180830381865afa158015613016573d6000803e3d6000fd5b505050506040513d601f19601f8201168201806040525081019061303a919061572a565b90506000819050846001600160a01b0316639b6382686040518163ffffffff1660e01b8152600401602060405180830381865afa15801561307f573d6000803e3d6000fd5b505050506040513d601f19601f820116820180604052508101906130a39190615765565b1561310d57816001600160a01b031663570ca7356040518163ffffffff1660e01b8152600401602060405180830381865afa1580156130e6573d6000803e3d6000fd5b505050506040513d601f19601f8201168201806040525081019061310a919061572a565b90505b336001600160a01b0382161461318b5760405162461bcd60e51b815260206004820152603a60248201527f44414f436f6d6d69747465653a2073656e646572206973206e6f74207468652060448201527f63616e646964617465206f66207468697320636f6e74726163740000000000006064820152608401610af5565b6040516325d6086160e01b81526001600160a01b038616906325d60861906131b99087908790600401615b77565b600060405180830381600087803b1580156131d357600080fd5b505af11580156131e7573d6000803e3d6000fd5b505050507fda033346b344f4675799a7ab4d837f0deb62d4afcdcaba4613913b4c25838cb382858560405161321e93929190615ba1565b60405180910390a15050505050565b6132386000336138d8565b6132545760405162461bcd60e51b8152600401610af5906156e2565b6002546001600160a01b03166132af5760405162461bcd60e51b815260206004820152602c6024820152600080516020615f0183398151915260448201526b61676572206973207a65726f60a01b6064820152608401610af5565b6002546040516334d8913d60e11b8152600481018390526001600160a01b03909116906369b1227a90602401611727565b6000336001600160a01b0316636c8381f86040518163ffffffff1660e01b8152600401602060405180830381865afa158015613320573d6000803e3d6000fd5b505050506040513d601f19601f82011682018060405250810190613344919061572a565b6001600160a01b0380821660009081526009602052604090208054929350911633146133c35760405162461bcd60e51b815260206004820152602860248201527f44414f436f6d6d69747465653a20696e76616c69642063616e6469646174652060448201526718dbdb9d1c9858dd60c21b6064820152608401610af5565b60006133ce836138f0565b9050600081116134335760405162461bcd60e51b815260206004820152602a60248201527f44414f436f6d6d69747465653a20796f7520646f6e2774206861766520636c6160448201526934b6b0b13632903a37b760b11b6064820152608401610af5565b600154604051633bc3556560e21b81526001600160a01b038681166004830152602482018490529091169063ef0d559490604401600060405180830381600087803b15801561348157600080fd5b505af1158015613495573d6000803e3d6000fd5b505050506003820180546001600160801b031916426001600160801b03908116919091179091556002830180549091169055604080516001600160a01b038681168252602082018490528516917fb15377c434dc1922cc2eb7d8950640960a05f0cf6d5dc9442de8414a9da2b308910160405180910390a250505050565b61351e6000336138d8565b61353a5760405162461bcd60e51b8152600401610af5906156e2565b806001600160a01b0381166135915760405162461bcd60e51b815260206004820152601a60248201527f44414f436f6d6d69747465653a207a65726f20616464726573730000000000006044820152606401610af5565b50600580546001600160a01b0319166001600160a01b0392909216919091179055565b60006001600160a01b03821661360c5760405162461bcd60e51b815260206004820152601f60248201527f54686973206163636f756e74206973206e6f7420612063616e646964617465006044820152606401610af5565b816001600160a01b031663817b1cd26040518163ffffffff1660e01b8152600401602060405180830381865afa15801561364a573d6000803e3d6000fd5b505050506040513d601f19601f82011682018060405250810190610ac89190615798565b6136796000336138d8565b6136955760405162461bcd60e51b8152600401610af5906156e2565b6002546001600160a01b03166356150a36848360038111156136b9576136b9615a93565b6040518363ffffffff1660e01b81526004016136d6929190615aa9565b600060405180830381600087803b1580156136f057600080fd5b505af1158015613704573d6000803e3d6000fd5b50506002546001600160a01b0316915063d896dd6490508484600581111561372e5761372e615a93565b6040518363ffffffff1660e01b815260040161374b929190615acd565b600060405180830381600087803b15801561376557600080fd5b505af1158015613779573d6000803e3d6000fd5b50505050505050565b61378d6000336138d8565b6137a95760405162461bcd60e51b8152600401610af5906156e2565b600560009054906101000a90046001600160a01b03166001600160a01b0316633f4ba83a6040518163ffffffff1660e01b8152600401600060405180830381600087803b1580156137f957600080fd5b505af115801561380d573d6000803e3d6000fd5b50505050565b60025460405163442da34b60e11b8152600481018390526001600160a01b039091169063885b469690602401611727565b6001600160a01b038082166000908152600960209081526040808320548151633b253c2b60e11b8152915193941692839263764a78569260048082019391829003018188875af115801561389c573d6000803e3d6000fd5b505050506040513d601f19601f8201168201806040525081019061119d9190615765565b6000828152600c6020526040812061119d9083614c69565b6000828152600c6020526040812061119d9083614c75565b6001600160a01b038116600090815260096020526040812060028101546001600160801b03600160801b8204811691161561399057600382015460028301546001600160801b039182169116111561396b5760028201546001600160801b031661395a42836157da565b61396491906157c7565b9050613990565b60038201546001600160801b031661398342836157da565b61398d91906157c7565b90505b600b5461399d9082615bc4565b949350505050565b6139b06000336138d8565b6139cc5760405162461bcd60e51b8152600401610af5906156e2565b604051634c1d96ab60e11b81526001600160a01b03828116600483015283169063983b2d5690602401612649565b6005546001600160a01b0316613a665760405162461bcd60e51b815260206004820152602b60248201527f53746f726167655374617465436f6d6d69747465653a20696e76616c6964205360448201526a6569674d616e616765726560a81b6064820152608401610af5565b6004546001600160a01b0316613ad45760405162461bcd60e51b815260206004820152602d60248201527f53746f726167655374617465436f6d6d69747465653a20696e76616c6964204c60448201526c6179657232526567697374727960981b6064820152608401610af5565b6003546001600160a01b0316613b465760405162461bcd60e51b815260206004820152603160248201527f53746f726167655374617465436f6d6d69747465653a20696e76616c696420436044820152706f6d6d69747465654c32466163746f727960781b6064820152608401610af5565b611d6f338383614621565b613b5c6000336138d8565b613b785760405162461bcd60e51b8152600401610af5906156e2565b604051633b2bf90560e11b81526001600160a01b038281166004830152831690637657f20a90602401612649565b600080613bcb836001600160a01b039081166000908152600960205260409020541690565b905061119d816135b4565b613be16000336138d8565b613bfd5760405162461bcd60e51b8152600401610af5906156e2565b6002546001600160a01b0316613c585760405162461bcd60e51b815260206004820152602c6024820152600080516020615f0183398151915260448201526b61676572206973207a65726f60a01b6064820152608401610af5565b600254604051635a7b4db560e11b8152600481018390526001600160a01b039091169063b4f69b6a90602401611727565b613c946000336138d8565b613cb05760405162461bcd60e51b8152600401610af5906156e2565b6002546001600160a01b0316613d0b5760405162461bcd60e51b815260206004820152602c6024820152600080516020615f0183398151915260448201526b61676572206973207a65726f60a01b6064820152608401610af5565b60025460405163302f14c160e21b8152600481018390526001600160a01b039091169063c0bc530490602401611727565b613d476000336138d8565b613d635760405162461bcd60e51b8152600401610af5906156e2565b6002546001600160a01b0316613dbe5760405162461bcd60e51b815260206004820152602c6024820152600080516020615f0183398151915260448201526b61676572206973207a65726f60a01b6064820152608401610af5565b6002600854613dcd9190615bdb565b8111613e1b5760405162461bcd60e51b815260206004820152601c60248201527f44414f436f6d6d69747465653a20696e76616c69642071756f72756d000000006044820152606401610af5565b600854811115613e7c5760405162461bcd60e51b815260206004820152602660248201527f44414f436f6d6d69747465653a2071756f72756d20657863656564206d61782060448201526536b2b6b132b960d11b6064820152608401610af5565b600a8190556040518181527f027863d12a407097e086a48e36475bfc859d0b200b7e6f65b5fd3b218e46632e9060200160405180910390a150565b600080336001600160a01b0316636c8381f86040518163ffffffff1660e01b8152600401602060405180830381865afa158015613ef8573d6000803e3d6000fd5b505050506040513d601f19601f82011682018060405250810190613f1c919061572a565b9050613f4b816001600160a01b03166000908152600960205260409020600201546001600160801b0316151590565b613fa35760405162461bcd60e51b815260206004820152602360248201527f53746f726167655374617465436f6d6d69747465653a206e6f742061206d656d6044820152623132b960e91b6064820152608401610af5565b6000336001600160a01b0316636c8381f86040518163ffffffff1660e01b8152600401602060405180830381865afa158015613fe3573d6000803e3d6000fd5b505050506040513d601f19601f82011682018060405250810190614007919061572a565b6001600160a01b0380821660009081526009602052604090208054929350911633146140865760405162461bcd60e51b815260206004820152602860248201527f44414f436f6d6d69747465653a20696e76616c69642063616e6469646174652060448201526718dbdb9d1c9858dd60c21b6064820152608401610af5565b6000600782600101548154811061409f5761409f615782565b600091825260209091200180546001600160a01b0319166001600160a01b039290921691909117905560028101546140e0906001600160801b0316426157c7565b60028201546140ff9190600160801b90046001600160801b03166157da565b6001600160801b0316600160801b026001600160801b031916600282015560018101805460009182905560405190919082907f663b98adf1afa777e36528b3293a057803f87ed00d2d2518dccfe5d7a6e99ccf9061416d9087906001600160a01b0391909116815260200190565b60405180910390a3600194505050505090565b6000818152600c60205260408120610ac890614c97565b6001600160a01b038082166000908152600960205260408120805491929091166141c45750600092915050565b80546000906141e3906001600160a01b0316631dffc87160e21b614ca1565b90508015156000036141f9575060009392505050565b815460408051631dffc87160e21b815290516001600160a01b03909216916377ff21c4916004808201926020929091908290030181865afa158015614242573d6000803e3d6000fd5b505050506040513d601f19601f8201168201806040525081019061399d9190615765565b60008061428b846001600160a01b039081166000908152600960205260409020541690565b905061399d81846110db565b6000828152600c60205260409020600201546142b390336138d8565b6125ef5760405162461bcd60e51b815260206004820152603060248201527f416363657373436f6e74726f6c3a2073656e646572206d75737420626520616e60448201527f2061646d696e20746f207265766f6b65000000000000000000000000000000006064820152608401610af5565b6143306000336138d8565b61434c5760405162461bcd60e51b8152600401610af5906156e2565b600560009054906101000a90046001600160a01b03166001600160a01b0316638456cb596040518163ffffffff1660e01b8152600401600060405180830381600087803b1580156137f957600080fd5b60008060208301600080868360008a619c405a03f19695505050505050565b6000828152600c602052604090206143d39082614cbd565b15611d6f5760405133906001600160a01b0383169084907f2f8788117e7eff1d82e926ec794901d17c78024a50270940304540a733656f0d90600090a45050565b6000828152600c6020526040902061442c9082614cd2565b15611d6f5760405133906001600160a01b0383169084907ff6391f5c32d9c69d2a47ea670b442974b53935d1edc7fd64eb21e047a839171b90600090a45050565b6144b36040518060a001604052806060815260200160006001600160801b0316815260200160006001600160801b03168152602001600015158152602001606081525090565b6144bf82840184615cb4565b6080860152151560608501526001600160801b039081166040850152166020830152815292915050565b6002546000906001600160a01b03166145475760405162461bcd60e51b815260206004820152602c6024820152600080516020615f0183398151915260448201526b61676572206973207a65726f60a01b6064820152608401610af5565b61455087614ce7565b6002546040516304a091b760e31b81526000916001600160a01b0316906325048db890614589908a908a908a908a908a90600401615dd7565b6020604051808303816000875af11580156145a8573d6000803e3d6000fd5b505050506040513d601f19601f820116820180604052508101906145cc9190615798565b905080886001600160a01b03167fcd47bcad760e912d146723a314cc78b8570ee76ec8bdd4b60335087f6c2f47d78989898960405161460e9493929190615e6d565b60405180910390a3979650505050505050565b6005546001600160a01b031661468d5760405162461bcd60e51b815260206004820152602b60248201527f53746f726167655374617465436f6d6d69747465653a20696e76616c6964205360448201526a6569674d616e616765726560a81b6064820152608401610af5565b6004546001600160a01b03166146fb5760405162461bcd60e51b815260206004820152602d60248201527f53746f726167655374617465436f6d6d69747465653a20696e76616c6964204c60448201526c6179657232526567697374727960981b6064820152608401610af5565b6003546001600160a01b031661476d5760405162461bcd60e51b815260206004820152603160248201527f53746f726167655374617465436f6d6d69747465653a20696e76616c696420436044820152706f6d6d69747465654c32466163746f727960781b6064820152608401610af5565b6001600160a01b0380831660009081526009602052604090205416156147e75760405162461bcd60e51b815260206004820152602960248201527f44414f436f6d6d69747465653a2063616e64696461746520616c7265616479206044820152681c9959da5cdd195c9960ba1b6064820152608401610af5565b6001600160a01b0382166148565760405162461bcd60e51b815260206004820152603060248201527f44414f436f6d6d69747465653a206465706c6f7965642063616e64696461746560448201526f436f6e7472616374206973207a65726f60801b6064820152608401610af5565b6001600160a01b0382811660009081526009602052604090205416156148d75760405162461bcd60e51b815260206004820152603060248201527f44414f436f6d6d69747465653a205468652063616e64696461746520616c726560448201526f18591e481a185cc818dbdb9d1c9858dd60821b6064820152608401610af5565b6000829050806001600160a01b031663882eed2c6040518163ffffffff1660e01b8152600401602060405180830381865afa15801561491a573d6000803e3d6000fd5b505050506040513d601f19601f8201168201806040525081019061493e9190615765565b6149985760405162461bcd60e51b815260206004820152602560248201527f44414f436f6d6d69747465653a20696e76616c6964206c617965723220636f6e6044820152641d1c9858dd60da1b6064820152608401610af5565b836001600160a01b0316816001600160a01b031663570ca7356040518163ffffffff1660e01b8152600401602060405180830381865afa1580156149e0573d6000803e3d6000fd5b505050506040513d601f19601f82011682018060405250810190614a04919061572a565b6001600160a01b031614614a5a5760405162461bcd60e51b815260206004820152601e60248201527f44414f436f6d6d69747465653a20696e76616c6964206f70657261746f7200006044820152606401610af5565b60035460055460405163732518fb60e11b81526000926001600160a01b039081169263e64a31f692614a999289926001928a9230921690600401615ea8565b6020604051808303816000875af1158015614ab8573d6000803e3d6000fd5b505050506040513d601f19601f82011682018060405250810190614adc919061572a565b90506001600160a01b038116614b4d5760405162461bcd60e51b815260206004820152603060248201527f44414f436f6d6d69747465653a206465706c6f7965642063616e64696461746560448201526f436f6e7472616374206973207a65726f60801b6064820152608401610af5565b6040805160a0810182526001600160a01b038381168083526000602080850182815285870183815260608701848152608088018581528d88168087526009909552898620985189546001600160a01b03199081169190991617895592516001808a0191909155915190516001600160801b03918216600160801b918316919091021760028901559151600390970180546001600160801b031916979092169690961790556006805495860181559091527ff652222313e28459528d920b65115c16c04f3efc82aaedc97be59f3f377c0d3f9093018054909216831790915591517f0f401d1bd976f5304ef9cfa87aeb24d777c0e205fb87bbae1dc0f0293ba7976a90614c5a908790615eed565b60405180910390a35050505050565b600061119d8383614f08565b6001600160a01b0381166000908152600183016020526040812054151561119d565b6000610ac8825490565b6000614cac83614f8e565b801561119d575061119d8383614fc1565b600061119d836001600160a01b03841661505f565b600061119d836001600160a01b0384166150ae565b60025460408051632522a32f60e01b815290516000926001600160a01b031691632522a32f9160048083019260209291908290030181865afa158015614d31573d6000803e3d6000fd5b505050506040513d601f19601f82011682018060405250810190614d559190615798565b6000546040516323b872dd60e01b81526001600160a01b038581166004830152306024830152604482018490529293509116906323b872dd906064016020604051808303816000875af1158015614db0573d6000803e3d6000fd5b505050506040513d601f19601f82011682018060405250810190614dd49190615765565b614e465760405162461bcd60e51b815260206004820152603160248201527f44414f436f6d6d69747465653a206661696c656420746f207472616e7366657260448201527f20746f6e2066726f6d2063726561746f720000000000000000000000000000006064820152608401610af5565b60005460405163a9059cbb60e01b815260016004820152602481018390526001600160a01b039091169063a9059cbb906044016020604051808303816000875af1158015614e98573d6000803e3d6000fd5b505050506040513d601f19601f82011682018060405250810190614ebc9190615765565b611d6f5760405162461bcd60e51b815260206004820152601c60248201527f44414f436f6d6d69747465653a206661696c656420746f206275726e000000006044820152606401610af5565b81546000908210614f665760405162461bcd60e51b815260206004820152602260248201527f456e756d657261626c655365743a20696e646578206f7574206f6620626f756e604482015261647360f01b6064820152608401610af5565b826000018281548110614f7b57614f7b615782565b9060005260206000200154905092915050565b6000614fa1826301ffc9a760e01b614fc1565b8015610ac85750614fba826001600160e01b0319614fc1565b1592915050565b604080516001600160e01b03198316602480830191909152825180830390910181526044909101909152602080820180517bffffffffffffffffffffffffffffffffffffffffffffffffffffffff166301ffc9a760e01b178152825160009392849283928392918391908a617530fa92503d91506000519050828015615048575060208210155b80156150545750600081115b979650505050505050565b60008181526001830160205260408120546150a657508154600181810184556000848152602080822090930184905584548482528286019093526040902091909155610ac8565b506000610ac8565b600081815260018301602052604081205480156151975760006150d26001836157c7565b85549091506000906150e6906001906157c7565b905060008660000182815481106150ff576150ff615782565b906000526020600020015490508087600001848154811061512257615122615782565b6000918252602090912001556151398360016157da565b6000828152600189016020526040902055865487908061515b5761515b615b8b565b60019003818190600052602060002001600090559055866001016000878152602001908152602001600020600090556001945050505050610ac8565b6000915050610ac8565b6000602082840312156151b357600080fd5b81356001600160e01b03198116811461119d57600080fd5b6001600160a01b03811681146151e057600080fd5b50565b6000602082840312156151f557600080fd5b813561119d816151cb565b60006020828403121561521257600080fd5b5035919050565b6000806040838503121561522c57600080fd5b8235615237816151cb565b91506020830135615247816151cb565b809150509250929050565b60008083601f84011261526457600080fd5b50813567ffffffffffffffff81111561527c57600080fd5b60208301915083602082850101111561529457600080fd5b9250929050565b600080600080606085870312156152b157600080fd5b8435935060208501359250604085013567ffffffffffffffff8111156152d657600080fd5b6152e287828801615252565b95989497509550505050565b6000806040838503121561530157600080fd5b823591506020830135615247816151cb565b60008060006040848603121561532857600080fd5b833567ffffffffffffffff81111561533f57600080fd5b61534b86828701615252565b909450925050602084013561535f816151cb565b809150509250925092565b6000806040838503121561537d57600080fd5b8235615388816151cb565b946020939093013593505050565b6000806000806000608086880312156153ae57600080fd5b85356153b9816151cb565b945060208601356153c9816151cb565b935060408601359250606086013567ffffffffffffffff8111156153ec57600080fd5b6153f888828901615252565b969995985093965092949392505050565b634e487b7160e01b600052604160045260246000fd5b604051601f8201601f1916810167ffffffffffffffff8111828210171561544857615448615409565b604052919050565b600067ffffffffffffffff82111561546a5761546a615409565b50601f01601f191660200190565b600061548b61548684615450565b61541f565b905082815283838301111561549f57600080fd5b828260208301376000602084830101529392505050565b600082601f8301126154c757600080fd5b61119d83833560208501615478565b6000806000606084860312156154eb57600080fd5b83356154f6816151cb565b92506020840135615506816151cb565b9150604084013567ffffffffffffffff81111561552257600080fd5b61552e868287016154b6565b9150509250925092565b6000806040838503121561554b57600080fd5b50508035926020909101359150565b6000806020838503121561556d57600080fd5b823567ffffffffffffffff8082111561558557600080fd5b818501915085601f83011261559957600080fd5b8135818111156155a857600080fd5b8660208260051b85010111156155bd57600080fd5b60209290920196919550909350505050565b600080602083850312156155e257600080fd5b823567ffffffffffffffff8111156155f957600080fd5b61560585828601615252565b90969095509350505050565b60008060006040848603121561562657600080fd5b8335615631816151cb565b9250602084013567ffffffffffffffff81111561564d57600080fd5b61565986828701615252565b9497909650939450505050565b60008060006060848603121561567b57600080fd5b505081359360208301359350604090920135919050565b600080604083850312156156a557600080fd5b82356156b0816151cb565b9150602083013567ffffffffffffffff8111156156cc57600080fd5b6156d8858286016154b6565b9150509250929050565b60208082526028908201527f44414f436f6d6d69747465653a206d73672e73656e646572206973206e6f742060408201526730b71030b236b4b760c11b606082015260800190565b60006020828403121561573c57600080fd5b815161119d816151cb565b80151581146151e057600080fd5b805161576081615747565b919050565b60006020828403121561577757600080fd5b815161119d81615747565b634e487b7160e01b600052603260045260246000fd5b6000602082840312156157aa57600080fd5b5051919050565b634e487b7160e01b600052601160045260246000fd5b81810381811115610ac857610ac86157b1565b80820180821115610ac857610ac86157b1565b600067ffffffffffffffff82111561580757615807615409565b5060051b60200190565b60005b8381101561582c578181015183820152602001615814565b50506000910152565b600082601f83011261584657600080fd5b81516020615856615486836157ed565b82815260059290921b8401810191818101908684111561587557600080fd5b8286015b848110156158f157805167ffffffffffffffff8111156158995760008081fd5b8701603f810189136158ab5760008081fd5b8481015160406158bd61548683615450565b8281528b828486010111156158d25760008081fd5b6158e183898301848701615811565b8652505050918301918301615879565b509695505050505050565b6000806000806080858703121561591257600080fd5b845167ffffffffffffffff8082111561592a57600080fd5b818701915087601f83011261593e57600080fd5b8151602061594e615486836157ed565b82815260059290921b8401810191818101908b84111561596d57600080fd5b948201945b83861015615994578551615985816151cb565b82529482019490820190615972565b918a01519198509093505050808211156159ad57600080fd5b506159ba87828801615835565b9350506159c960408601615755565b6060959095015193969295505050565b600082516159eb818460208701615811565b9190910192915050565b600060018201615a0757615a076157b1565b5060010190565b600081518084526020808501945080840160005b83811015615a475781516001600160a01b031687529582019590820190600101615a22565b509495945050505050565b60208152600061119d6020830184615a0e565b600080600060608486031215615a7a57600080fd5b8351925060208401519150604084015190509250925092565b634e487b7160e01b600052602160045260246000fd5b8281526040810160048310615ac057615ac0615a93565b8260208301529392505050565b8281526040810160068310615ac057615ac0615a93565b81835281816020850137506000828201602090810191909152601f909101601f19169091010190565b838152604060208201526000615b27604083018486615ae4565b95945050505050565b60006001600160a01b038089168352871515602084015260a06040840152615b5c60a084018789615ae4565b94811660608401529290921660809091015250949350505050565b60208152600061399d602083018486615ae4565b634e487b7160e01b600052603160045260246000fd5b6001600160a01b0384168152604060208201526000615b27604083018486615ae4565b8082028115828204841417610ac857610ac86157b1565b600082615bf857634e487b7160e01b600052601260045260246000fd5b500490565b80356001600160801b038116811461576057600080fd5b803561576081615747565b600082601f830112615c3057600080fd5b81356020615c40615486836157ed565b82815260059290921b84018101918181019086841115615c5f57600080fd5b8286015b848110156158f157803567ffffffffffffffff811115615c835760008081fd5b8701603f81018913615c955760008081fd5b615ca6898683013560408401615478565b845250918301918301615c63565b600080600080600060a08688031215615ccc57600080fd5b853567ffffffffffffffff80821115615ce457600080fd5b818801915088601f830112615cf857600080fd5b81356020615d08615486836157ed565b82815260059290921b8401810191818101908c841115615d2757600080fd5b948201945b83861015615d4e578535615d3f816151cb565b82529482019490820190615d2c565b9950615d5d90508a8201615bfd565b97505050615d6d60408901615bfd565b9450615d7b60608901615c14565b93506080880135915080821115615d9157600080fd5b50615d9e88828901615c1f565b9150509295509295909350565b60008151808452615dc3816020860160208601615811565b601f01601f19169290920160200192915050565b60a081526000615dea60a0830188615a0e565b60206001600160801b0380891682860152808816604086015250851515606085015283820360808501528185518084528284019150828160051b85010183880160005b83811015615e5b57601f19878403018552615e49838351615dab565b94860194925090850190600101615e2d565b50909c9b505050505050505050505050565b608081526000615e806080830187615a0e565b6001600160801b03958616602084015293909416604082015290151560609091015292915050565b60006001600160a01b038088168352861515602084015260a06040840152615ed360a0840187615dab565b948116606084015292909216608090910152509392505050565b60208152600061119d6020830184615dab56fe53746f726167655374617465436f6d6d69747465653a204167656e64614d616ea164736f6c6343000813000a",
  "linkReferences": {},
  "deployedLinkReferences": {}
}