{
  "_format": "hh-sol-artifact-1",
  "contractName": "DAOCommitteeExtend",
  "sourceName": "contracts/dao/DAOCommitteeExtend.sol",
  "abi": [
    {
      "anonymous": false,
      "inputs": [
        {
          "indexed": false,
          "internalType": "uint256",
          "name": "newReward",
          "type": "uint256"
        }
      ],
      "name": "ActivityRewardChanged",
      "type": "event"
    },
    {
      "anonymous": false,
      "inputs": [
        {
          "indexed": true,
          "internalType": "address",
          "name": "from",
          "type": "address"
        },
        {
          "indexed": true,
          "internalType": "uint256",
          "name": "id",
          "type": "uint256"
        },
        {
          "indexed": false,
          "internalType": "address[]",
          "name": "targets",
          "type": "address[]"
        },
        {
          "indexed": false,
          "internalType": "uint128",
          "name": "noticePeriodSeconds",
          "type": "uint128"
        },
        {
          "indexed": false,
          "internalType": "uint128",
          "name": "votingPeriodSeconds",
          "type": "uint128"
        },
        {
          "indexed": false,
          "internalType": "bool",
          "name": "atomicExecute",
          "type": "bool"
        }
      ],
      "name": "AgendaCreated",
      "type": "event"
    },
    {
      "anonymous": false,
      "inputs": [
        {
          "indexed": true,
          "internalType": "uint256",
          "name": "id",
          "type": "uint256"
        },
        {
          "indexed": false,
          "internalType": "address[]",
          "name": "target",
          "type": "address[]"
        }
      ],
      "name": "AgendaExecuted",
      "type": "event"
    },
    {
      "anonymous": false,
      "inputs": [
        {
          "indexed": true,
          "internalType": "address",
          "name": "from",
          "type": "address"
        },
        {
          "indexed": true,
          "internalType": "uint256",
          "name": "id",
          "type": "uint256"
        },
        {
          "indexed": false,
          "internalType": "uint256",
          "name": "voting",
          "type": "uint256"
        },
        {
          "indexed": false,
          "internalType": "string",
          "name": "comment",
          "type": "string"
        }
      ],
      "name": "AgendaVoteCasted",
      "type": "event"
    },
    {
      "anonymous": false,
      "inputs": [
        {
          "indexed": true,
          "internalType": "address",
          "name": "candidate",
          "type": "address"
        },
        {
          "indexed": true,
          "internalType": "address",
          "name": "candidateContract",
          "type": "address"
        },
        {
          "indexed": false,
          "internalType": "string",
          "name": "memo",
          "type": "string"
        }
      ],
      "name": "CandidateContractCreated",
      "type": "event"
    },
    {
      "anonymous": false,
      "inputs": [
        {
          "indexed": true,
          "internalType": "uint256",
          "name": "slotIndex",
          "type": "uint256"
        },
        {
          "indexed": false,
          "internalType": "address",
          "name": "prevMember",
          "type": "address"
        },
        {
          "indexed": true,
          "internalType": "address",
          "name": "newMember",
          "type": "address"
        }
      ],
      "name": "ChangedMember",
      "type": "event"
    },
    {
      "anonymous": false,
      "inputs": [
        {
          "indexed": false,
          "internalType": "address",
          "name": "candidate",
          "type": "address"
        },
        {
          "indexed": false,
          "internalType": "string",
          "name": "newMemo",
          "type": "string"
        }
      ],
      "name": "ChangedMemo",
      "type": "event"
    },
    {
      "anonymous": false,
      "inputs": [
        {
          "indexed": true,
          "internalType": "uint256",
          "name": "prevSlotMax",
          "type": "uint256"
        },
        {
          "indexed": true,
          "internalType": "uint256",
          "name": "slotMax",
          "type": "uint256"
        }
      ],
      "name": "ChangedSlotMaximum",
      "type": "event"
    },
    {
      "anonymous": false,
      "inputs": [
        {
          "indexed": true,
          "internalType": "address",
          "name": "candidate",
          "type": "address"
        },
        {
          "indexed": false,
          "internalType": "address",
          "name": "receiver",
          "type": "address"
        },
        {
          "indexed": false,
          "internalType": "uint256",
          "name": "amount",
          "type": "uint256"
        }
      ],
      "name": "ClaimedActivityReward",
      "type": "event"
    },
    {
      "anonymous": false,
      "inputs": [
        {
          "indexed": true,
          "internalType": "address",
          "name": "candidate",
          "type": "address"
        },
        {
          "indexed": true,
          "internalType": "address",
          "name": "candidateContract",
          "type": "address"
        },
        {
          "indexed": false,
          "internalType": "string",
          "name": "memo",
          "type": "string"
        }
      ],
      "name": "Layer2Registered",
      "type": "event"
    },
    {
      "anonymous": false,
      "inputs": [
        {
          "indexed": false,
          "internalType": "uint256",
          "name": "newQuorum",
          "type": "uint256"
        }
      ],
      "name": "QuorumChanged",
      "type": "event"
    },
    {
      "anonymous": false,
      "inputs": [
        {
          "indexed": true,
          "internalType": "bytes32",
          "name": "role",
          "type": "bytes32"
        },
        {
          "indexed": true,
          "internalType": "bytes32",
          "name": "previousAdminRole",
          "type": "bytes32"
        },
        {
          "indexed": true,
          "internalType": "bytes32",
          "name": "newAdminRole",
          "type": "bytes32"
        }
      ],
      "name": "RoleAdminChanged",
      "type": "event"
    },
    {
      "anonymous": false,
      "inputs": [
        {
          "indexed": true,
          "internalType": "bytes32",
          "name": "role",
          "type": "bytes32"
        },
        {
          "indexed": true,
          "internalType": "address",
          "name": "account",
          "type": "address"
        },
        {
          "indexed": true,
          "internalType": "address",
          "name": "sender",
          "type": "address"
        }
      ],
      "name": "RoleGranted",
      "type": "event"
    },
    {
      "anonymous": false,
      "inputs": [
        {
          "indexed": true,
          "internalType": "bytes32",
          "name": "role",
          "type": "bytes32"
        },
        {
          "indexed": true,
          "internalType": "address",
          "name": "account",
          "type": "address"
        },
        {
          "indexed": true,
          "internalType": "address",
          "name": "sender",
          "type": "address"
        }
      ],
      "name": "RoleRevoked",
      "type": "event"
    },
    {
      "inputs": [],
      "name": "DEFAULT_ADMIN_ROLE",
      "outputs": [
        {
          "internalType": "bytes32",
          "name": "",
          "type": "bytes32"
        }
      ],
      "stateMutability": "view",
      "type": "function"
    },
    {
      "inputs": [],
      "name": "activityRewardPerSecond",
      "outputs": [
        {
          "internalType": "uint256",
          "name": "",
          "type": "uint256"
        }
      ],
      "stateMutability": "view",
      "type": "function"
    },
    {
      "inputs": [],
      "name": "agendaManager",
      "outputs": [
        {
          "internalType": "contract IDAOAgendaManager",
          "name": "",
          "type": "address"
        }
      ],
      "stateMutability": "view",
      "type": "function"
    },
    {
      "inputs": [
        {
          "internalType": "address",
          "name": "_candidate",
          "type": "address"
        },
        {
          "internalType": "address",
          "name": "_account",
          "type": "address"
        }
      ],
      "name": "balanceOfOnCandidate",
      "outputs": [
        {
          "internalType": "uint256",
          "name": "amount",
          "type": "uint256"
        }
      ],
      "stateMutability": "view",
      "type": "function"
    },
    {
      "inputs": [
        {
          "internalType": "address",
          "name": "_candidateContract",
          "type": "address"
        },
        {
          "internalType": "address",
          "name": "_account",
          "type": "address"
        }
      ],
      "name": "balanceOfOnCandidateContract",
      "outputs": [
        {
          "internalType": "uint256",
          "name": "amount",
          "type": "uint256"
        }
      ],
      "stateMutability": "view",
      "type": "function"
    },
    {
      "inputs": [
        {
          "internalType": "address",
          "name": "_candidate",
          "type": "address"
        }
      ],
      "name": "candidateContract",
      "outputs": [
        {
          "internalType": "address",
          "name": "",
          "type": "address"
        }
      ],
      "stateMutability": "view",
      "type": "function"
    },
    {
      "inputs": [],
      "name": "candidateFactory",
      "outputs": [
        {
          "internalType": "contract ICandidateFactory",
          "name": "",
          "type": "address"
        }
      ],
      "stateMutability": "view",
      "type": "function"
    },
    {
      "inputs": [
        {
          "internalType": "address",
          "name": "_candidate",
          "type": "address"
        }
      ],
      "name": "candidateInfos",
      "outputs": [
        {
          "components": [
            {
              "internalType": "address",
              "name": "candidateContract",
              "type": "address"
            },
            {
              "internalType": "uint256",
              "name": "indexMembers",
              "type": "uint256"
            },
            {
              "internalType": "uint128",
              "name": "memberJoinedTime",
              "type": "uint128"
            },
            {
              "internalType": "uint128",
              "name": "rewardPeriod",
              "type": "uint128"
            },
            {
              "internalType": "uint128",
              "name": "claimedTimestamp",
              "type": "uint128"
            }
          ],
          "internalType": "struct StorageStateCommittee.CandidateInfo",
          "name": "",
          "type": "tuple"
        }
      ],
      "stateMutability": "view",
      "type": "function"
    },
    {
      "inputs": [
        {
          "internalType": "uint256",
          "name": "",
          "type": "uint256"
        }
      ],
      "name": "candidates",
      "outputs": [
        {
          "internalType": "address",
          "name": "",
          "type": "address"
        }
      ],
      "stateMutability": "view",
      "type": "function"
    },
    {
      "inputs": [],
      "name": "candidatesLength",
      "outputs": [
        {
          "internalType": "uint256",
          "name": "",
          "type": "uint256"
        }
      ],
      "stateMutability": "view",
      "type": "function"
    },
    {
      "inputs": [
        {
          "internalType": "uint256",
          "name": "_agendaID",
          "type": "uint256"
        },
        {
          "internalType": "uint256",
          "name": "_vote",
          "type": "uint256"
        },
        {
          "internalType": "string",
          "name": "_comment",
          "type": "string"
        }
      ],
      "name": "castVote",
      "outputs": [],
      "stateMutability": "nonpayable",
      "type": "function"
    },
    {
      "inputs": [
        {
          "internalType": "uint256",
          "name": "_memberIndex",
          "type": "uint256"
        }
      ],
      "name": "changeMember",
      "outputs": [
        {
          "internalType": "bool",
          "name": "",
          "type": "bool"
        }
      ],
      "stateMutability": "nonpayable",
      "type": "function"
    },
    {
      "inputs": [
        {
          "internalType": "address",
          "name": "_receiver",
          "type": "address"
        }
      ],
      "name": "claimActivityReward",
      "outputs": [],
      "stateMutability": "nonpayable",
      "type": "function"
    },
    {
      "inputs": [
        {
          "internalType": "string",
          "name": "_memo",
          "type": "string"
        },
        {
          "internalType": "address",
          "name": "_operatorAddress",
          "type": "address"
        }
      ],
      "name": "createCandidate",
      "outputs": [],
      "stateMutability": "nonpayable",
      "type": "function"
    },
    {
      "inputs": [
        {
          "internalType": "string",
          "name": "_memo",
          "type": "string"
        }
      ],
      "name": "createCandidate",
      "outputs": [],
      "stateMutability": "nonpayable",
      "type": "function"
    },
    {
      "inputs": [],
      "name": "daoVault",
      "outputs": [
        {
          "internalType": "contract IDAOVault",
          "name": "",
          "type": "address"
        }
      ],
      "stateMutability": "view",
      "type": "function"
    },
    {
      "inputs": [
        {
          "internalType": "uint256",
          "name": "_reducingMemberIndex",
          "type": "uint256"
        },
        {
          "internalType": "uint256",
          "name": "_quorum",
          "type": "uint256"
        }
      ],
      "name": "decreaseMaxMember",
      "outputs": [],
      "stateMutability": "nonpayable",
      "type": "function"
    },
    {
      "inputs": [
        {
          "internalType": "uint256",
          "name": "_agendaID",
          "type": "uint256"
        }
      ],
      "name": "endAgendaVoting",
      "outputs": [],
      "stateMutability": "nonpayable",
      "type": "function"
    },
    {
      "inputs": [
        {
          "internalType": "uint256",
          "name": "_agendaID",
          "type": "uint256"
        }
      ],
      "name": "executeAgenda",
      "outputs": [],
      "stateMutability": "nonpayable",
      "type": "function"
    },
    {
      "inputs": [
        {
          "internalType": "address",
          "name": "_candidate",
          "type": "address"
        }
      ],
      "name": "getClaimableActivityReward",
      "outputs": [
        {
          "internalType": "uint256",
          "name": "",
          "type": "uint256"
        }
      ],
      "stateMutability": "view",
      "type": "function"
    },
    {
      "inputs": [
        {
          "internalType": "address",
          "name": "_oldCandidate",
          "type": "address"
        }
      ],
      "name": "getOldCandidateInfos",
      "outputs": [
        {
          "components": [
            {
              "internalType": "address",
              "name": "candidateContract",
              "type": "address"
            },
            {
              "internalType": "address",
              "name": "newCandidate",
              "type": "address"
            },
            {
              "internalType": "uint256",
              "name": "indexMembers",
              "type": "uint256"
            },
            {
              "internalType": "uint128",
              "name": "memberJoinedTime",
              "type": "uint128"
            },
            {
              "internalType": "uint128",
              "name": "rewardPeriod",
              "type": "uint128"
            },
            {
              "internalType": "uint128",
              "name": "claimedTimestamp",
              "type": "uint128"
            }
          ],
          "internalType": "struct StorageStateCommitteeV2.CandidateInfo2",
          "name": "",
          "type": "tuple"
        }
      ],
      "stateMutability": "view",
      "type": "function"
    },
    {
      "inputs": [
        {
          "internalType": "bytes32",
          "name": "role",
          "type": "bytes32"
        }
      ],
      "name": "getRoleAdmin",
      "outputs": [
        {
          "internalType": "bytes32",
          "name": "",
          "type": "bytes32"
        }
      ],
      "stateMutability": "view",
      "type": "function"
    },
    {
      "inputs": [
        {
          "internalType": "bytes32",
          "name": "role",
          "type": "bytes32"
        },
        {
          "internalType": "uint256",
          "name": "index",
          "type": "uint256"
        }
      ],
      "name": "getRoleMember",
      "outputs": [
        {
          "internalType": "address",
          "name": "",
          "type": "address"
        }
      ],
      "stateMutability": "view",
      "type": "function"
    },
    {
      "inputs": [
        {
          "internalType": "bytes32",
          "name": "role",
          "type": "bytes32"
        }
      ],
      "name": "getRoleMemberCount",
      "outputs": [
        {
          "internalType": "uint256",
          "name": "",
          "type": "uint256"
        }
      ],
      "stateMutability": "view",
      "type": "function"
    },
    {
      "inputs": [
        {
          "internalType": "bytes32",
          "name": "role",
          "type": "bytes32"
        },
        {
          "internalType": "address",
          "name": "account",
          "type": "address"
        }
      ],
      "name": "grantRole",
      "outputs": [],
      "stateMutability": "nonpayable",
      "type": "function"
    },
    {
      "inputs": [
        {
          "internalType": "bytes32",
          "name": "role",
          "type": "bytes32"
        },
        {
          "internalType": "address",
          "name": "account",
          "type": "address"
        }
      ],
      "name": "hasRole",
      "outputs": [
        {
          "internalType": "bool",
          "name": "",
          "type": "bool"
        }
      ],
      "stateMutability": "view",
      "type": "function"
    },
    {
      "inputs": [
        {
          "internalType": "address",
          "name": "_candidate",
          "type": "address"
        }
      ],
      "name": "isCandidate",
      "outputs": [
        {
          "internalType": "bool",
          "name": "",
          "type": "bool"
        }
      ],
      "stateMutability": "view",
      "type": "function"
    },
    {
      "inputs": [
        {
          "internalType": "address",
          "name": "_candidate",
          "type": "address"
        }
      ],
      "name": "isExistCandidate",
      "outputs": [
        {
          "internalType": "bool",
          "name": "isExist",
          "type": "bool"
        }
      ],
      "stateMutability": "view",
      "type": "function"
    },
    {
      "inputs": [
        {
          "internalType": "address",
          "name": "_candidate",
          "type": "address"
        }
      ],
      "name": "isMember",
      "outputs": [
        {
          "internalType": "bool",
          "name": "",
          "type": "bool"
        }
      ],
      "stateMutability": "view",
      "type": "function"
    },
    {
      "inputs": [],
      "name": "layer2Registry",
      "outputs": [
        {
          "internalType": "contract ILayer2Registry",
          "name": "",
          "type": "address"
        }
      ],
      "stateMutability": "view",
      "type": "function"
    },
    {
      "inputs": [],
      "name": "maxMember",
      "outputs": [
        {
          "internalType": "uint256",
          "name": "",
          "type": "uint256"
        }
      ],
      "stateMutability": "view",
      "type": "function"
    },
    {
      "inputs": [
        {
          "internalType": "uint256",
          "name": "",
          "type": "uint256"
        }
      ],
      "name": "members",
      "outputs": [
        {
          "internalType": "address",
          "name": "",
          "type": "address"
        }
      ],
      "stateMutability": "view",
      "type": "function"
    },
    {
      "inputs": [
        {
          "internalType": "address",
          "name": "owner",
          "type": "address"
        },
        {
          "internalType": "address",
          "name": "spender",
          "type": "address"
        },
        {
          "internalType": "uint256",
          "name": "tonAmount",
          "type": "uint256"
        },
        {
          "internalType": "bytes",
          "name": "data",
          "type": "bytes"
        }
      ],
      "name": "onApprove",
      "outputs": [
        {
          "internalType": "bool",
          "name": "",
          "type": "bool"
        }
      ],
      "stateMutability": "nonpayable",
      "type": "function"
    },
    {
      "inputs": [],
      "name": "pauseProxy",
      "outputs": [
        {
          "internalType": "bool",
          "name": "",
          "type": "bool"
        }
      ],
      "stateMutability": "view",
      "type": "function"
    },
    {
      "inputs": [],
      "name": "quorum",
      "outputs": [
        {
          "internalType": "uint256",
          "name": "",
          "type": "uint256"
        }
      ],
      "stateMutability": "view",
      "type": "function"
    },
    {
      "inputs": [
        {
          "internalType": "address",
          "name": "_layer2",
          "type": "address"
        },
        {
          "internalType": "string",
          "name": "_memo",
          "type": "string"
        }
      ],
      "name": "registerLayer2Candidate",
      "outputs": [],
      "stateMutability": "nonpayable",
      "type": "function"
    },
    {
      "inputs": [
        {
          "internalType": "address",
          "name": "_operator",
          "type": "address"
        },
        {
          "internalType": "address",
          "name": "_layer2",
          "type": "address"
        },
        {
          "internalType": "string",
          "name": "_memo",
          "type": "string"
        }
      ],
      "name": "registerLayer2CandidateByOwner",
      "outputs": [],
      "stateMutability": "nonpayable",
      "type": "function"
    },
    {
      "inputs": [
        {
          "internalType": "bytes32",
          "name": "role",
          "type": "bytes32"
        },
        {
          "internalType": "address",
          "name": "account",
          "type": "address"
        }
      ],
      "name": "renounceRole",
      "outputs": [],
      "stateMutability": "nonpayable",
      "type": "function"
    },
    {
      "inputs": [],
      "name": "retireMember",
      "outputs": [
        {
          "internalType": "bool",
          "name": "",
          "type": "bool"
        }
      ],
      "stateMutability": "nonpayable",
      "type": "function"
    },
    {
      "inputs": [
        {
          "internalType": "bytes32",
          "name": "role",
          "type": "bytes32"
        },
        {
          "internalType": "address",
          "name": "account",
          "type": "address"
        }
      ],
      "name": "revokeRole",
      "outputs": [],
      "stateMutability": "nonpayable",
      "type": "function"
    },
    {
      "inputs": [],
      "name": "seigManager",
      "outputs": [
        {
          "internalType": "contract ISeigManager",
          "name": "",
          "type": "address"
        }
      ],
      "stateMutability": "view",
      "type": "function"
    },
    {
      "inputs": [
        {
          "internalType": "uint256",
          "name": "_agendaID",
          "type": "uint256"
        },
        {
          "internalType": "uint256",
          "name": "_status",
          "type": "uint256"
        },
        {
          "internalType": "uint256",
          "name": "_result",
          "type": "uint256"
        }
      ],
      "name": "setAgendaStatus",
      "outputs": [],
      "stateMutability": "nonpayable",
      "type": "function"
    },
    {
      "inputs": [
        {
          "internalType": "address",
          "name": "_candidateFactory",
          "type": "address"
        }
      ],
      "name": "setCandidateFactory",
      "outputs": [],
      "stateMutability": "nonpayable",
      "type": "function"
    },
    {
      "inputs": [
        {
          "internalType": "uint256",
          "name": "_fees",
          "type": "uint256"
        }
      ],
      "name": "setCreateAgendaFees",
      "outputs": [],
      "stateMutability": "nonpayable",
      "type": "function"
    },
    {
      "inputs": [
        {
          "internalType": "address",
          "name": "_daoVault",
          "type": "address"
        }
      ],
      "name": "setDaoVault",
      "outputs": [],
      "stateMutability": "nonpayable",
      "type": "function"
    },
    {
      "inputs": [
        {
          "internalType": "uint256",
          "name": "_executingPeriodSeconds",
          "type": "uint256"
        }
      ],
      "name": "setExecutingPeriodSeconds",
      "outputs": [],
      "stateMutability": "nonpayable",
      "type": "function"
    },
    {
      "inputs": [
        {
          "internalType": "address",
          "name": "_layer2Registry",
          "type": "address"
        }
      ],
      "name": "setLayer2Registry",
      "outputs": [],
      "stateMutability": "nonpayable",
      "type": "function"
    },
    {
      "inputs": [
        {
          "internalType": "address",
          "name": "_candidate",
          "type": "address"
        },
        {
          "internalType": "string",
          "name": "_memo",
          "type": "string"
        }
      ],
      "name": "setMemoOnCandidate",
      "outputs": [],
      "stateMutability": "nonpayable",
      "type": "function"
    },
    {
      "inputs": [
        {
          "internalType": "address",
          "name": "_candidateContract",
          "type": "address"
        },
        {
          "internalType": "string",
          "name": "_memo",
          "type": "string"
        }
      ],
      "name": "setMemoOnCandidateContract",
      "outputs": [],
      "stateMutability": "nonpayable",
      "type": "function"
    },
    {
      "inputs": [
        {
          "internalType": "uint256",
          "name": "_minimumNoticePeriod",
          "type": "uint256"
        }
      ],
      "name": "setMinimumNoticePeriodSeconds",
      "outputs": [],
      "stateMutability": "nonpayable",
      "type": "function"
    },
    {
      "inputs": [
        {
          "internalType": "uint256",
          "name": "_minimumVotingPeriod",
          "type": "uint256"
        }
      ],
      "name": "setMinimumVotingPeriodSeconds",
      "outputs": [],
      "stateMutability": "nonpayable",
      "type": "function"
    },
    {
      "inputs": [
        {
          "internalType": "uint256",
          "name": "_quorum",
          "type": "uint256"
        }
      ],
      "name": "setQuorum",
      "outputs": [],
      "stateMutability": "nonpayable",
      "type": "function"
    },
    {
      "inputs": [
        {
          "internalType": "address",
          "name": "_seigManager",
          "type": "address"
        }
      ],
      "name": "setSeigManager",
      "outputs": [],
      "stateMutability": "nonpayable",
      "type": "function"
    },
    {
      "inputs": [],
      "name": "setSeigPause",
      "outputs": [],
      "stateMutability": "nonpayable",
      "type": "function"
    },
    {
      "inputs": [],
      "name": "setSeigUnpause",
      "outputs": [],
      "stateMutability": "nonpayable",
      "type": "function"
    },
    {
      "inputs": [
        {
          "internalType": "address",
          "name": "target",
          "type": "address"
        },
        {
          "internalType": "uint256",
          "name": "globalWithdrawalDelay_",
          "type": "uint256"
        }
      ],
      "name": "setTargetGlobalWithdrawalDelay",
      "outputs": [],
      "stateMutability": "nonpayable",
      "type": "function"
    },
    {
      "inputs": [
        {
          "internalType": "address",
          "name": "target",
          "type": "address"
        },
        {
          "internalType": "address",
          "name": "_seigManager",
          "type": "address"
        }
      ],
      "name": "setTargetSeigManager",
      "outputs": [],
      "stateMutability": "nonpayable",
      "type": "function"
    },
    {
      "inputs": [
        {
          "internalType": "bytes4",
          "name": "interfaceId",
          "type": "bytes4"
        }
      ],
      "name": "supportsInterface",
      "outputs": [
        {
          "internalType": "bool",
          "name": "",
          "type": "bool"
        }
      ],
      "stateMutability": "view",
      "type": "function"
    },
    {
      "inputs": [],
      "name": "ton",
      "outputs": [
        {
          "internalType": "address",
          "name": "",
          "type": "address"
        }
      ],
      "stateMutability": "view",
      "type": "function"
    },
    {
      "inputs": [
        {
          "internalType": "address",
          "name": "_candidate",
          "type": "address"
        }
      ],
      "name": "totalSupplyOnCandidate",
      "outputs": [
        {
          "internalType": "uint256",
          "name": "totalsupply",
          "type": "uint256"
        }
      ],
      "stateMutability": "view",
      "type": "function"
    },
    {
      "inputs": [
        {
          "internalType": "address",
          "name": "_candidateContract",
          "type": "address"
        }
      ],
      "name": "totalSupplyOnCandidateContract",
      "outputs": [
        {
          "internalType": "uint256",
          "name": "totalsupply",
          "type": "uint256"
        }
      ],
      "stateMutability": "view",
      "type": "function"
    },
    {
      "inputs": [
        {
          "internalType": "address",
          "name": "_candidate",
          "type": "address"
        }
      ],
      "name": "updateSeigniorage",
      "outputs": [
        {
          "internalType": "bool",
          "name": "",
          "type": "bool"
        }
      ],
      "stateMutability": "nonpayable",
      "type": "function"
    },
    {
      "inputs": [
        {
          "internalType": "address[]",
          "name": "_candidates",
          "type": "address[]"
        }
      ],
      "name": "updateSeigniorages",
      "outputs": [
        {
          "internalType": "bool",
          "name": "",
          "type": "bool"
        }
      ],
      "stateMutability": "nonpayable",
      "type": "function"
    }
  ],
  "bytecode": "0x60806040523480156200001157600080fd5b50620000246301ffc9a760e01b6200002a565b620000ae565b6001600160e01b03198082169003620000895760405162461bcd60e51b815260206004820152601c60248201527f4552433136353a20696e76616c696420696e7465726661636520696400000000604482015260640160405180910390fd5b6001600160e01b0319166000908152600d60205260409020805460ff19166001179055565b615fbd80620000be6000396000f3fe608060405234801561001057600080fd5b50600436106103c55760003560e01c806369b1227a116101ff578063a217fddf1161011a578063c7cac42c116100ad578063d51b9e931161007c578063d51b9e9314610a87578063d525f04f14610a9a578063d547741f14610aad578063efd5797914610ac057600080fd5b8063c7cac42c14610a3b578063ca15c87314610a4e578063cc48b94714610a61578063cf2a239c14610a7457600080fd5b8063b5dd1158116100e9578063b5dd1158146109fa578063c0bc530414610a0d578063c1ba4e5914610a20578063c4ef9c0014610a3357600080fd5b8063a217fddf14610995578063a230c5241461099d578063ad6675dc146109d4578063b4f69b6a146109e757600080fd5b806381bfe42c1161019257806391d148541161016157806391d14854146109495780639932e94c1461095c578063a1ea35251461096f578063a1f3ac2a1461098257600080fd5b806381bfe42c14610908578063885b46961461091057806389ea4300146109235780639010d07c1461093657600080fd5b8063773b7f65116101ce578063773b7f65146108d157806378767d33146108d95780637f331636146108ec578063805aca20146108f557600080fd5b806369b1227a146108855780636becff27146108985780636fb7f558146108ab5780637657f20a146108be57600080fd5b806332a45ef6116102ef578063561a1dab116102825780635fba7a56116102515780635fba7a561461080e578063607cf7341461082157806363a8fd8914610834578063651d08cd1461085957600080fd5b8063561a1dab146107a757806357f0a867146107d55780635903bd6c146107e85780635daf08ca146107fb57600080fd5b80634273ca16116102be5780634273ca161461075b578063440b69ad1461076e5780634b799db11461078157806350e8f17d1461079457600080fd5b806332a45ef61461070f5780633477ee2e1461072257806336568abe1461073557806338d1b17c1461074857600080fd5b8063216f486b1161036757806327fd92fd1161033657806327fd92fd146105cd5780632af60ff4146105f85780632e011c1e1461060b5780632f2ff15d146106fc57600080fd5b8063216f486b1461057157806323d09fdf14610584578063248a9ca31461059757806324f99b1e146105ba57600080fd5b806311f19e04116103a357806311f19e041461041e57806314d3535e1461043157806316f7f982146105555780631703a0181461056857600080fd5b806301ffc9a7146103ca57806303e3c9ac146103f2578063047f52f214610409575b600080fd5b6103dd6103d8366004615231565b610ac8565b60405190151581526020015b60405180910390f35b6103fb60085481565b6040519081526020016103e9565b61041c610417366004615273565b610aec565b005b6103dd61042c366004615290565b610b96565b6104eb61043f366004615273565b6040805160c081018252600080825260208201819052918101829052606081018290526080810182905260a0810191909152506001600160a01b039081166000908152600f6020908152604091829020825160c08101845281548516815260018201549094169184019190915260028101549183019190915260038101546001600160801b038082166060850152600160801b909104811660808401526004909101541660a082015290565b6040516103e99190600060c0820190506001600160a01b03808451168352806020850151166020840152506040830151604083015260608301516001600160801b0380821660608501528060808601511660808501528060a08601511660a0850152505092915050565b6103fb6105633660046152a9565b6110f9565b6103fb600a5481565b61041c61057f366004615290565b6111c2565b61041c610592366004615290565b611696565b6103fb6105a5366004615290565b6000908152600c602052604090206002015490565b61041c6105c836600461532b565b61177a565b6002546105e0906001600160a01b031681565b6040516001600160a01b0390911681526020016103e9565b61041c610606366004615273565b611c54565b6106a7610619366004615273565b6040805160a0808201835260008083526020808401829052838501829052606080850183905260809485018390526001600160a01b0396871683526009825291859020855193840186528054909616835260018601549083015260028501546001600160801b0380821695840195909552600160801b90048416908201526003909301549091169082015290565b6040805182516001600160a01b0316815260208084015190820152828201516001600160801b03908116928201929092526060808401518316908201526080928301519091169181019190915260a0016103e9565b61041c61070a36600461537e565b611cf5565b61041c61071d3660046153a3565b611d91565b6105e0610730366004615290565b612565565b61041c61074336600461537e565b61258f565b61041c6107563660046153fa565b612617565b6103dd610769366004615426565b61269d565b61041c61077c366004615566565b612736565b61041c61078f366004615273565b6128b9565b61041c6107a23660046155c8565b61295a565b6103dd6107b5366004615273565b6001600160a01b0390811660009081526009602052604090205416151590565b6103dd6107e33660046155ea565b612bf5565b6001546105e0906001600160a01b031681565b6105e0610809366004615290565b612ca6565b61041c61081c36600461565f565b612cb6565b61041c61082f3660046156a1565b613095565b600e546103dd9074010000000000000000000000000000000000000000900460ff1681565b6105e0610867366004615273565b6001600160a01b039081166000908152600960205260409020541690565b61041c610893366004615290565b6132ec565b61041c6108a6366004615273565b61339f565b6005546105e0906001600160a01b031681565b61041c6108cc366004615273565b6135d2565b6006546103fb565b6103fb6108e7366004615273565b613673565b6103fb600b5481565b61041c6109033660046156f6565b61372d565b61041c613841565b61041c61091e366004615290565b6138d2565b6103dd610931366004615273565b613903565b6105e06109443660046155c8565b61397f565b6103dd61095736600461537e565b613997565b6103fb61096a366004615273565b6139af565b61041c61097d366004615722565b613a64565b61041c6109903660046152a9565b613bbb565b6103fb600081565b6103dd6109ab366004615273565b6001600160a01b03166000908152600960205260409020600201546001600160801b0316151590565b6103fb6109e2366004615273565b613c10565b61041c6109f5366004615290565b613c40565b6003546105e0906001600160a01b031681565b61041c610a1b366004615290565b613cf3565b61041c610a2e366004615290565b613da6565b6103dd613f21565b61041c610a493660046156a1565b6141ea565b6103fb610a5c366004615290565b614210565b6000546105e0906001600160a01b031681565b6004546105e0906001600160a01b031681565b6103dd610a95366004615273565b614227565b6103fb610aa83660046152a9565b6142f6565b61041c610abb36600461537e565b614327565b61041c6143b5565b6001600160e01b031981166000908152600d602052604081205460ff165b92915050565b610af7600033613997565b610b1c5760405162461bcd60e51b8152600401610b1390615772565b60405180910390fd5b806001600160a01b038116610b735760405162461bcd60e51b815260206004820152601a60248201527f44414f436f6d6d69747465653a207a65726f20616464726573730000000000006044820152606401610b13565b50600380546001600160a01b0319166001600160a01b0392909216919091179055565b6000816008548110610bf55760405162461bcd60e51b815260206004820152602260248201527f44414f436f6d6d69747465653a20696e76616c6964206d656d62657220696e646044820152610caf60f31b6064820152608401610b13565b6000336001600160a01b0316636c8381f86040518163ffffffff1660e01b8152600401602060405180830381865afa158015610c35573d6000803e3d6000fd5b505050506040513d601f19601f82011682018060405250810190610c5991906157ba565b6001600160a01b0381166000908152600960209081526040918290208251631dffc87160e21b815292519394509233926377ff21c49260048083019391928290030181865afa158015610cb0573d6000803e3d6000fd5b505050506040513d601f19601f82011682018060405250810190610cd491906157f5565b610d465760405162461bcd60e51b815260206004820152603060248201527f44414f436f6d6d69747465653a2073656e646572206973206e6f74206120636160448201527f6e64696461746520636f6e7472616374000000000000000000000000000000006064820152608401610b13565b80546001600160a01b03163314610db05760405162461bcd60e51b815260206004820152602860248201527f44414f436f6d6d69747465653a20696e76616c69642063616e6469646174652060448201526718dbdb9d1c9858dd60c21b6064820152608401610b13565b60028101546001600160801b031615610e0b5760405162461bcd60e51b815260206004820152601c60248201527f44414f436f6d6d69747465653a20616c7265616479206d656d626572000000006044820152606401610b13565b600060078681548110610e2057610e20615812565b60009182526020822001546001600160a01b03169150610e58826001600160a01b039081166000908152600960205260409020541690565b6002840180546001600160801b031916426001600160801b03161790556001840188905560078054919250859189908110610e9557610e95615812565b600091825260209091200180546001600160a01b0319166001600160a01b039283161790558216610f0f576040516001600160a01b03838116825285169088907f663b98adf1afa777e36528b3293a057803f87ed00d2d2518dccfe5d7a6e99ccf9060200160405180910390a360019550505050506110f3565b806001600160a01b031663817b1cd26040518163ffffffff1660e01b8152600401602060405180830381865afa158015610f4d573d6000803e3d6000fd5b505050506040513d601f19601f82011682018060405250810190610f719190615828565b336001600160a01b031663817b1cd26040518163ffffffff1660e01b8152600401602060405180830381865afa158015610faf573d6000803e3d6000fd5b505050506040513d601f19601f82011682018060405250810190610fd39190615828565b116110205760405162461bcd60e51b815260206004820152601160248201527f6e6f7420656e6f75676820616d6f756e740000000000000000000000000000006044820152606401610b13565b6001600160a01b038216600090815260096020526040812060018101919091556002810154611058906001600160801b031642615857565b60028201546110779190600160801b90046001600160801b031661586a565b6001600160801b0316600160801b026001600160801b03191660028201556040516001600160a01b0386169089907f663b98adf1afa777e36528b3293a057803f87ed00d2d2518dccfe5d7a6e99ccf906110e19087906001600160a01b0391909116815260200190565b60405180910390a36001965050505050505b50919050565b60006001600160a01b0383166111515760405162461bcd60e51b815260206004820152601f60248201527f54686973206163636f756e74206973206e6f7420612063616e646964617465006044820152606401610b13565b60405163af500ba360e01b81526001600160a01b03838116600483015284169063af500ba390602401602060405180830381865afa158015611197573d6000803e3d6000fd5b505050506040513d601f19601f820116820180604052508101906111bb9190615828565b9392505050565b6002546001600160a01b031661121d5760405162461bcd60e51b815260206004820152602c6024820152600080516020615f9183398151915260448201526b61676572206973207a65726f60a01b6064820152608401610b13565b6002546040516377f28d5b60e01b8152600481018390526001600160a01b03909116906377f28d5b90602401602060405180830381865afa158015611266573d6000803e3d6000fd5b505050506040513d601f19601f8201168201806040525081019061128a91906157f5565b6112e75760405162461bcd60e51b815260206004820152602860248201527f44414f436f6d6d69747465653a2063616e206e6f74206578656375746520746860448201526765206167656e646160c01b6064820152608401610b13565b6002546040516373ba374560e01b8152600481018390526000918291829182916001600160a01b03909116906373ba374590602401600060405180830381865afa158015611339573d6000803e3d6000fd5b505050506040513d6000823e601f3d908101601f19168201604052611361919081019061598c565b935093509350935081156114e457600254604051631b8c251960e11b8152600481018790526001600160a01b03909116906337184a3290602401600060405180830381600087803b1580156113b557600080fd5b505af11580156113c9573d6000803e3d6000fd5b5050505060005b84518110156114de5760008582815181106113ed576113ed615812565b60200260200101516001600160a01b031685838151811061141057611410615812565b60200260200101516040516114259190615a69565b6000604051808303816000865af19150503d8060008114611462576040519150601f19603f3d011682016040523d82523d6000602084013e611467565b606091505b50509050806114cb5760405162461bcd60e51b815260206004820152602a60248201527f44414f436f6d6d69747465653a204661696c656420746f206578656375746520604482015269746865206167656e646160b01b6064820152608401610b13565b50806114d681615a85565b9150506113d0565b50611657565b6000815b855181101561157d57600061154a87838151811061150857611508615812565b602002602001015187848151811061152257611522615812565b60200260200101515188858151811061153d5761153d615812565b602002602001015161442c565b905080156115645761155d83600161586a565b925061156a565b5061157d565b508061157581615a85565b9150506114e8565b50600254604051632833207960e21b815260048101889052602481018390526001600160a01b039091169063a0cc81e490604401600060405180830381600087803b1580156115cb57600080fd5b505af11580156115df573d6000803e3d6000fd5b50505050845181836115f1919061586a565b0361165557600254604051631b8c251960e11b8152600481018890526001600160a01b03909116906337184a3290602401600060405180830381600087803b15801561163c57600080fd5b505af1158015611650573d6000803e3d6000fd5b505050505b505b847f785146be3266678a3f4ea454b310ff1f8c91d0ad9a7997bcd0619940d4d67fe6856040516116879190615ae2565b60405180910390a25050505050565b6116a1600033613997565b6116bd5760405162461bcd60e51b8152600401610b1390615772565b6002546001600160a01b03166117185760405162461bcd60e51b815260206004820152602c6024820152600080516020615f9183398151915260448201526b61676572206973207a65726f60a01b6064820152608401610b13565b6002546040516323d09fdf60e01b8152600481018390526001600160a01b03909116906323d09fdf906024015b600060405180830381600087803b15801561175f57600080fd5b505af1158015611773573d6000803e3d6000fd5b5050505050565b6002546001600160a01b03166117d55760405162461bcd60e51b815260206004820152602c6024820152600080516020615f9183398151915260448201526b61676572206973207a65726f60a01b6064820152608401610b13565b6000336001600160a01b0316636c8381f86040518163ffffffff1660e01b8152600401602060405180830381865afa158015611815573d6000803e3d6000fd5b505050506040513d601f19601f8201168201806040525081019061183991906157ba565b6001600160a01b0380821660009081526009602052604090208054929350911633146118b85760405162461bcd60e51b815260206004820152602860248201527f44414f436f6d6d69747465653a20696e76616c69642063616e6469646174652060448201526718dbdb9d1c9858dd60c21b6064820152608401610b13565b600254604051637e77eb2360e01b8152600481018890526001600160a01b0384811660248301526044820188905290911690637e77eb23906064016020604051808303816000875af1158015611912573d6000803e3d6000fd5b505050506040513d601f19601f8201168201806040525081019061193691906157f5565b50600254604051635772521560e11b815260048101889052600091829182916001600160a01b03169063aee4a42a90602401606060405180830381865afa158015611985573d6000803e3d6000fd5b505050506040513d601f19601f820116820180604052508101906119a99190615af5565b92509250925082600a5411611a8757600254604051632b0a851b60e11b81526001600160a01b03909116906356150a36906119eb908c90600190600401615b39565b600060405180830381600087803b158015611a0557600080fd5b505af1158015611a19573d6000803e3d6000fd5b5050600254604051633625b75960e21b81526001600160a01b03909116925063d896dd649150611a50908c90600390600401615b5d565b600060405180830381600087803b158015611a6a57600080fd5b505af1158015611a7e573d6000803e3d6000fd5b50505050611c03565b81600a5411611b265760028054604051632b0a851b60e11b81526001600160a01b03909116916356150a3691611ac1918d91600401615b39565b600060405180830381600087803b158015611adb57600080fd5b505af1158015611aef573d6000803e3d6000fd5b5050600254604051633625b75960e21b81526001600160a01b03909116925063d896dd649150611a50908c90600590600401615b5d565b611b30828261586a565b600a5411611c0357600254604051632b0a851b60e11b81526001600160a01b03909116906356150a3690611b6b908c90600390600401615b39565b600060405180830381600087803b158015611b8557600080fd5b505af1158015611b99573d6000803e3d6000fd5b5050600254604051633625b75960e21b81526001600160a01b03909116925063d896dd649150611bd0908c90600590600401615b5d565b600060405180830381600087803b158015611bea57600080fd5b505af1158015611bfe573d6000803e3d6000fd5b505050505b88336001600160a01b03167ffa0761008653bc7bf9fa040fb7e07672ad3e17a976eb452c44e81dd782a6214b8a8a8a604051611c4193929190615b9d565b60405180910390a3505050505050505050565b611c5f600033613997565b611c7b5760405162461bcd60e51b8152600401610b1390615772565b806001600160a01b038116611cd25760405162461bcd60e51b815260206004820152601a60248201527f44414f436f6d6d69747465653a207a65726f20616464726573730000000000006044820152606401610b13565b50600480546001600160a01b0319166001600160a01b0392909216919091179055565b6000828152600c6020526040902060020154611d119033613997565b611d835760405162461bcd60e51b815260206004820152602f60248201527f416363657373436f6e74726f6c3a2073656e646572206d75737420626520616e60448201527f2061646d696e20746f206772616e7400000000000000000000000000000000006064820152608401610b13565b611d8d828261444b565b5050565b6005546001600160a01b0316611dfd5760405162461bcd60e51b815260206004820152602b60248201527f53746f726167655374617465436f6d6d69747465653a20696e76616c6964205360448201526a6569674d616e616765726560a81b6064820152608401610b13565b6004546001600160a01b0316611e6b5760405162461bcd60e51b815260206004820152602d60248201527f53746f726167655374617465436f6d6d69747465653a20696e76616c6964204c60448201526c6179657232526567697374727960981b6064820152608401610b13565b6003546001600160a01b0316611edd5760405162461bcd60e51b815260206004820152603160248201527f53746f726167655374617465436f6d6d69747465653a20696e76616c696420436044820152706f6d6d69747465654c32466163746f727960781b6064820152608401610b13565b611ee8600033613997565b611f045760405162461bcd60e51b8152600401610b1390615772565b60035460055460405163732518fb60e11b81526000926001600160a01b039081169263e64a31f692611f4592879287928b928b923092911690600401615bc0565b6020604051808303816000875af1158015611f64573d6000803e3d6000fd5b505050506040513d601f19601f82011682018060405250810190611f8891906157ba565b90506001600160a01b038116611ff95760405162461bcd60e51b815260206004820152603060248201527f44414f436f6d6d69747465653a206465706c6f7965642063616e64696461746560448201526f436f6e7472616374206973207a65726f60801b6064820152608401610b13565b6001600160a01b038281166000908152600960205260409020541615612354576001600160a01b038281166000908152600f602052604090205416156120815760405162461bcd60e51b815260206004820152601060248201527f616c7265616479206d69677261746564000000000000000000000000000000006044820152606401610b13565b6040518060c0016040528060096000856001600160a01b03166001600160a01b0316815260200190815260200160002060000160009054906101000a90046001600160a01b03166001600160a01b03168152602001826001600160a01b0316815260200160096000856001600160a01b03166001600160a01b0316815260200190815260200160002060010154815260200160096000856001600160a01b03166001600160a01b0316815260200190815260200160002060020160009054906101000a90046001600160801b03166001600160801b0316815260200160096000856001600160a01b03166001600160a01b0316815260200190815260200160002060020160109054906101000a90046001600160801b03166001600160801b0316815260200160096000856001600160a01b03166001600160a01b0316815260200190815260200160002060030160009054906101000a90046001600160801b03166001600160801b0316815250600f6000846001600160a01b03166001600160a01b0316815260200190815260200160002060008201518160000160006101000a8154816001600160a01b0302191690836001600160a01b0316021790555060208201518160010160006101000a8154816001600160a01b0302191690836001600160a01b031602179055506040820151816002015560608201518160030160006101000a8154816001600160801b0302191690836001600160801b0316021790555060808201518160030160106101000a8154816001600160801b0302191690836001600160801b0316021790555060a08201518160040160006101000a8154816001600160801b0302191690836001600160801b031602179055509050508060096000846001600160a01b03166001600160a01b0316815260200190815260200160002060000160006101000a8154816001600160a01b0302191690836001600160a01b03160217905550612430565b6040805160a0810182526001600160a01b0383811682526000602080840182815284860183815260608601848152608087018581528a87168087526009909552978520965187546001600160a01b0319908116919097161787559151600180880191909155905191516001600160801b03928316600160801b918416919091021760028701559551600390950180546001600160801b031916959091169490941790935560068054948501815590527ff652222313e28459528d920b65115c16c04f3efc82aaedc97be59f3f377c0d3f90920180549092161790555b60048054600554604051635e58d38f60e11b81526001600160a01b0385811694820194909452908316602482015291169063bcb1a71e906044016020604051808303816000875af1158015612489573d6000803e3d6000fd5b505050506040513d601f19601f820116820180604052508101906124ad91906157f5565b6125125760405162461bcd60e51b815260206004820152603060248201527f44414f436f6d6d69747465653a206661696c656420746f20726567697374657260448201526f416e644465706c6f79436f696e61676560801b6064820152608401610b13565b806001600160a01b0316826001600160a01b03167f7cf8db18d9a5c7f44156bfabdbb59ac982a8a004e461ca1b87ee71a5cdfbc5ef8686604051612557929190615c07565b60405180910390a350505050565b6006818154811061257557600080fd5b6000918252602090912001546001600160a01b0316905081565b6001600160a01b038116331461260d5760405162461bcd60e51b815260206004820152602f60248201527f416363657373436f6e74726f6c3a2063616e206f6e6c792072656e6f756e636560448201527f20726f6c657320666f722073656c6600000000000000000000000000000000006064820152608401610b13565b611d8d82826144a4565b612622600033613997565b61263e5760405162461bcd60e51b8152600401610b1390615772565b60405163a79da34160e01b8152600481018290526001600160a01b0383169063a79da341906024015b600060405180830381600087803b15801561268157600080fd5b505af1158015612695573d6000803e3d6000fd5b505050505050565b600080546001600160a01b031633146126f85760405162461bcd60e51b815260206004820152601160248201527f49742773206e6f742066726f6d20544f4e0000000000000000000000000000006044820152606401610b13565b600061270484846144fd565b90506127288782600001518360200151846040015185606001518660800151614579565b506001979650505050505050565b612741600033613997565b61275d5760405162461bcd60e51b8152600401610b1390615772565b6005546001600160a01b03166127c95760405162461bcd60e51b815260206004820152602b60248201527f53746f726167655374617465436f6d6d69747465653a20696e76616c6964205360448201526a6569674d616e616765726560a81b6064820152608401610b13565b6004546001600160a01b03166128375760405162461bcd60e51b815260206004820152602d60248201527f53746f726167655374617465436f6d6d69747465653a20696e76616c6964204c60448201526c6179657232526567697374727960981b6064820152608401610b13565b6003546001600160a01b03166128a95760405162461bcd60e51b815260206004820152603160248201527f53746f726167655374617465436f6d6d69747465653a20696e76616c696420436044820152706f6d6d69747465654c32466163746f727960781b6064820152608401610b13565b6128b48383836146b1565b505050565b6128c4600033613997565b6128e05760405162461bcd60e51b8152600401610b1390615772565b806001600160a01b0381166129375760405162461bcd60e51b815260206004820152601a60248201527f44414f436f6d6d69747465653a207a65726f20616464726573730000000000006044820152606401610b13565b50600180546001600160a01b0319166001600160a01b0392909216919091179055565b612965600033613997565b6129815760405162461bcd60e51b8152600401610b1390615772565b8160085481106129de5760405162461bcd60e51b815260206004820152602260248201527f44414f436f6d6d69747465653a20696e76616c6964206d656d62657220696e646044820152610caf60f31b6064820152608401610b13565b6000600784815481106129f3576129f3615812565b60009182526020808320909101546001600160a01b03168083526009909152604090912060075491925090612a2a90600190615857565b8514612acc576007805460009190612a4490600190615857565b81548110612a5457612a54615812565b60009182526020808320909101546001600160a01b0316808352600990915260409091206001810188905560078054929350909183919089908110612a9b57612a9b615812565b9060005260206000200160006101000a8154816001600160a01b0302191690836001600160a01b0316021790555050505b600060018201556002810154612aeb906001600160801b031642615857565b6002820154612b0a9190600160801b90046001600160801b031661586a565b6001600160801b0316600160801b026001600160801b03191660028201556007805480612b3957612b39615c1b565b600082815260209020810160001990810180546001600160a01b0319169055019055600854612b6a90600190615857565b600855612b7684613da6565b6040516001600160a01b038316815260009086907f663b98adf1afa777e36528b3293a057803f87ed00d2d2518dccfe5d7a6e99ccf9060200160405180910390a3600854612bc581600161586a565b6040517f8c0366d1e3a335a312d012257ee764723c38ec2dd5e74cbfad372513521f977190600090a35050505050565b6000805b82811015612c9c57612c2b848483818110612c1657612c16615812565b90506020020160208101906109319190615273565b612c8a5760405162461bcd60e51b815260206004820152602a60248201527f44414f436f6d6d69747465653a206661696c656420746f2075706461746520736044820152696569676e696f7261676560b01b6064820152608401610b13565b80612c9481615a85565b915050612bf9565b5060019392505050565b6007818154811061257557600080fd5b336000818152600960205260409020546001600160a01b031615612d2e5760405162461bcd60e51b815260206004820152602960248201527f44414f436f6d6d69747465653a2063616e64696461746520616c7265616479206044820152681c9959da5cdd195c9960ba1b6064820152608401610b13565b60035460055460405163732518fb60e11b81526000926001600160a01b039081169263e64a31f692612d6f92879287928b928b923092911690600401615bc0565b6020604051808303816000875af1158015612d8e573d6000803e3d6000fd5b505050506040513d601f19601f82011682018060405250810190612db291906157ba565b90506001600160a01b038116612e235760405162461bcd60e51b815260206004820152603060248201527f44414f436f6d6d69747465653a206465706c6f7965642063616e64696461746560448201526f436f6e7472616374206973207a65726f60801b6064820152608401610b13565b6001600160a01b038281166000908152600960205260409020541615612ea45760405162461bcd60e51b815260206004820152603060248201527f44414f436f6d6d69747465653a205468652063616e64696461746520616c726560448201526f18591e481a185cc818dbdb9d1c9858dd60821b6064820152608401610b13565b60048054600554604051635e58d38f60e11b81526001600160a01b0385811694820194909452908316602482015291169063bcb1a71e906044016020604051808303816000875af1158015612efd573d6000803e3d6000fd5b505050506040513d601f19601f82011682018060405250810190612f2191906157f5565b612f865760405162461bcd60e51b815260206004820152603060248201527f44414f436f6d6d69747465653a206661696c656420746f20726567697374657260448201526f416e644465706c6f79436f696e61676560801b6064820152608401610b13565b6040805160a0810182526001600160a01b038381168083526000602080850182815285870183815260608701848152608088018581528b88168087526009909552898620985189546001600160a01b03199081169190991617895592516001808a0191909155915190516001600160801b03918216600160801b918316919091021760028901559151600390970180546001600160801b031916979092169690961790556006805495860181559091527ff652222313e28459528d920b65115c16c04f3efc82aaedc97be59f3f377c0d3f9093018054909216831790915591517f7cf8db18d9a5c7f44156bfabdbb59ac982a8a004e461ca1b87ee71a5cdfbc5ef906125579088908890615c07565b6000836001600160a01b0316636c8381f86040518163ffffffff1660e01b8152600401602060405180830381865afa1580156130d5573d6000803e3d6000fd5b505050506040513d601f19601f820116820180604052508101906130f991906157ba565b90506000819050846001600160a01b0316639b6382686040518163ffffffff1660e01b8152600401602060405180830381865afa15801561313e573d6000803e3d6000fd5b505050506040513d601f19601f8201168201806040525081019061316291906157f5565b156131cc57816001600160a01b031663570ca7356040518163ffffffff1660e01b8152600401602060405180830381865afa1580156131a5573d6000803e3d6000fd5b505050506040513d601f19601f820116820180604052508101906131c991906157ba565b90505b336001600160a01b0382161461324a5760405162461bcd60e51b815260206004820152603a60248201527f44414f436f6d6d69747465653a2073656e646572206973206e6f74207468652060448201527f63616e646964617465206f66207468697320636f6e74726163740000000000006064820152608401610b13565b6040516325d6086160e01b81526001600160a01b038616906325d60861906132789087908790600401615c07565b600060405180830381600087803b15801561329257600080fd5b505af11580156132a6573d6000803e3d6000fd5b505050507fda033346b344f4675799a7ab4d837f0deb62d4afcdcaba4613913b4c25838cb38285856040516132dd93929190615c31565b60405180910390a15050505050565b6132f7600033613997565b6133135760405162461bcd60e51b8152600401610b1390615772565b6002546001600160a01b031661336e5760405162461bcd60e51b815260206004820152602c6024820152600080516020615f9183398151915260448201526b61676572206973207a65726f60a01b6064820152608401610b13565b6002546040516334d8913d60e11b8152600481018390526001600160a01b03909116906369b1227a90602401611745565b6000336001600160a01b0316636c8381f86040518163ffffffff1660e01b8152600401602060405180830381865afa1580156133df573d6000803e3d6000fd5b505050506040513d601f19601f8201168201806040525081019061340391906157ba565b6001600160a01b0380821660009081526009602052604090208054929350911633146134825760405162461bcd60e51b815260206004820152602860248201527f44414f436f6d6d69747465653a20696e76616c69642063616e6469646174652060448201526718dbdb9d1c9858dd60c21b6064820152608401610b13565b600061348d836139af565b9050600081116134f25760405162461bcd60e51b815260206004820152602a60248201527f44414f436f6d6d69747465653a20796f7520646f6e2774206861766520636c6160448201526934b6b0b13632903a37b760b11b6064820152608401610b13565b600154604051633bc3556560e21b81526001600160a01b038681166004830152602482018490529091169063ef0d559490604401600060405180830381600087803b15801561354057600080fd5b505af1158015613554573d6000803e3d6000fd5b505050506003820180546001600160801b031916426001600160801b03908116919091179091556002830180549091169055604080516001600160a01b038681168252602082018490528516917fb15377c434dc1922cc2eb7d8950640960a05f0cf6d5dc9442de8414a9da2b308910160405180910390a250505050565b6135dd600033613997565b6135f95760405162461bcd60e51b8152600401610b1390615772565b806001600160a01b0381166136505760405162461bcd60e51b815260206004820152601a60248201527f44414f436f6d6d69747465653a207a65726f20616464726573730000000000006044820152606401610b13565b50600580546001600160a01b0319166001600160a01b0392909216919091179055565b60006001600160a01b0382166136cb5760405162461bcd60e51b815260206004820152601f60248201527f54686973206163636f756e74206973206e6f7420612063616e646964617465006044820152606401610b13565b816001600160a01b031663817b1cd26040518163ffffffff1660e01b8152600401602060405180830381865afa158015613709573d6000803e3d6000fd5b505050506040513d601f19601f82011682018060405250810190610ae69190615828565b613738600033613997565b6137545760405162461bcd60e51b8152600401610b1390615772565b6002546001600160a01b03166356150a368483600381111561377857613778615b23565b6040518363ffffffff1660e01b8152600401613795929190615b39565b600060405180830381600087803b1580156137af57600080fd5b505af11580156137c3573d6000803e3d6000fd5b50506002546001600160a01b0316915063d896dd649050848460058111156137ed576137ed615b23565b6040518363ffffffff1660e01b815260040161380a929190615b5d565b600060405180830381600087803b15801561382457600080fd5b505af1158015613838573d6000803e3d6000fd5b50505050505050565b61384c600033613997565b6138685760405162461bcd60e51b8152600401610b1390615772565b600560009054906101000a90046001600160a01b03166001600160a01b0316633f4ba83a6040518163ffffffff1660e01b8152600401600060405180830381600087803b1580156138b857600080fd5b505af11580156138cc573d6000803e3d6000fd5b50505050565b60025460405163442da34b60e11b8152600481018390526001600160a01b039091169063885b469690602401611745565b6001600160a01b038082166000908152600960209081526040808320548151633b253c2b60e11b8152915193941692839263764a78569260048082019391829003018188875af115801561395b573d6000803e3d6000fd5b505050506040513d601f19601f820116820180604052508101906111bb91906157f5565b6000828152600c602052604081206111bb9083614cf9565b6000828152600c602052604081206111bb9083614d05565b6001600160a01b038116600090815260096020526040812060028101546001600160801b03600160801b82048116911615613a4f57600382015460028301546001600160801b0391821691161115613a2a5760028201546001600160801b0316613a19428361586a565b613a239190615857565b9050613a4f565b60038201546001600160801b0316613a42428361586a565b613a4c9190615857565b90505b600b54613a5c9082615c54565b949350505050565b6005546001600160a01b0316613ad05760405162461bcd60e51b815260206004820152602b60248201527f53746f726167655374617465436f6d6d69747465653a20696e76616c6964205360448201526a6569674d616e616765726560a81b6064820152608401610b13565b6004546001600160a01b0316613b3e5760405162461bcd60e51b815260206004820152602d60248201527f53746f726167655374617465436f6d6d69747465653a20696e76616c6964204c60448201526c6179657232526567697374727960981b6064820152608401610b13565b6003546001600160a01b0316613bb05760405162461bcd60e51b815260206004820152603160248201527f53746f726167655374617465436f6d6d69747465653a20696e76616c696420436044820152706f6d6d69747465654c32466163746f727960781b6064820152608401610b13565b611d8d3383836146b1565b613bc6600033613997565b613be25760405162461bcd60e51b8152600401610b1390615772565b604051633b2bf90560e11b81526001600160a01b038281166004830152831690637657f20a90602401612667565b600080613c35836001600160a01b039081166000908152600960205260409020541690565b90506111bb81613673565b613c4b600033613997565b613c675760405162461bcd60e51b8152600401610b1390615772565b6002546001600160a01b0316613cc25760405162461bcd60e51b815260206004820152602c6024820152600080516020615f9183398151915260448201526b61676572206973207a65726f60a01b6064820152608401610b13565b600254604051635a7b4db560e11b8152600481018390526001600160a01b039091169063b4f69b6a90602401611745565b613cfe600033613997565b613d1a5760405162461bcd60e51b8152600401610b1390615772565b6002546001600160a01b0316613d755760405162461bcd60e51b815260206004820152602c6024820152600080516020615f9183398151915260448201526b61676572206973207a65726f60a01b6064820152608401610b13565b60025460405163302f14c160e21b8152600481018390526001600160a01b039091169063c0bc530490602401611745565b613db1600033613997565b613dcd5760405162461bcd60e51b8152600401610b1390615772565b6002546001600160a01b0316613e285760405162461bcd60e51b815260206004820152602c6024820152600080516020615f9183398151915260448201526b61676572206973207a65726f60a01b6064820152608401610b13565b6002600854613e379190615c6b565b8111613e855760405162461bcd60e51b815260206004820152601c60248201527f44414f436f6d6d69747465653a20696e76616c69642071756f72756d000000006044820152606401610b13565b600854811115613ee65760405162461bcd60e51b815260206004820152602660248201527f44414f436f6d6d69747465653a2071756f72756d20657863656564206d61782060448201526536b2b6b132b960d11b6064820152608401610b13565b600a8190556040518181527f027863d12a407097e086a48e36475bfc859d0b200b7e6f65b5fd3b218e46632e9060200160405180910390a150565b600080336001600160a01b0316636c8381f86040518163ffffffff1660e01b8152600401602060405180830381865afa158015613f62573d6000803e3d6000fd5b505050506040513d601f19601f82011682018060405250810190613f8691906157ba565b9050613fb5816001600160a01b03166000908152600960205260409020600201546001600160801b0316151590565b61400d5760405162461bcd60e51b815260206004820152602360248201527f53746f726167655374617465436f6d6d69747465653a206e6f742061206d656d6044820152623132b960e91b6064820152608401610b13565b6000336001600160a01b0316636c8381f86040518163ffffffff1660e01b8152600401602060405180830381865afa15801561404d573d6000803e3d6000fd5b505050506040513d601f19601f8201168201806040525081019061407191906157ba565b6001600160a01b0380821660009081526009602052604090208054929350911633146140f05760405162461bcd60e51b815260206004820152602860248201527f44414f436f6d6d69747465653a20696e76616c69642063616e6469646174652060448201526718dbdb9d1c9858dd60c21b6064820152608401610b13565b6000600782600101548154811061410957614109615812565b600091825260209091200180546001600160a01b0319166001600160a01b0392909216919091179055600281015461414a906001600160801b031642615857565b60028201546141699190600160801b90046001600160801b031661586a565b6001600160801b0316600160801b026001600160801b031916600282015560018101805460009182905560405190919082907f663b98adf1afa777e36528b3293a057803f87ed00d2d2518dccfe5d7a6e99ccf906141d79087906001600160a01b0391909116815260200190565b60405180910390a3600194505050505090565b6001600160a01b03838116600090815260096020526040902054166138cc818484613095565b6000818152600c60205260408120610ae690614d27565b6001600160a01b038082166000908152600960205260408120805491929091166142545750600092915050565b8054600090614273906001600160a01b0316631dffc87160e21b614d31565b9050801515600003614289575060009392505050565b815460408051631dffc87160e21b815290516001600160a01b03909216916377ff21c4916004808201926020929091908290030181865afa1580156142d2573d6000803e3d6000fd5b505050506040513d601f19601f82011682018060405250810190613a5c91906157f5565b60008061431b846001600160a01b039081166000908152600960205260409020541690565b9050613a5c81846110f9565b6000828152600c60205260409020600201546143439033613997565b61260d5760405162461bcd60e51b815260206004820152603060248201527f416363657373436f6e74726f6c3a2073656e646572206d75737420626520616e60448201527f2061646d696e20746f207265766f6b65000000000000000000000000000000006064820152608401610b13565b6143c0600033613997565b6143dc5760405162461bcd60e51b8152600401610b1390615772565b600560009054906101000a90046001600160a01b03166001600160a01b0316638456cb596040518163ffffffff1660e01b8152600401600060405180830381600087803b1580156138b857600080fd5b60008060208301600080868360008a619c405a03f19695505050505050565b6000828152600c602052604090206144639082614d4d565b15611d8d5760405133906001600160a01b0383169084907f2f8788117e7eff1d82e926ec794901d17c78024a50270940304540a733656f0d90600090a45050565b6000828152600c602052604090206144bc9082614d62565b15611d8d5760405133906001600160a01b0383169084907ff6391f5c32d9c69d2a47ea670b442974b53935d1edc7fd64eb21e047a839171b90600090a45050565b6145436040518060a001604052806060815260200160006001600160801b0316815260200160006001600160801b03168152602001600015158152602001606081525090565b61454f82840184615d44565b6080860152151560608501526001600160801b039081166040850152166020830152815292915050565b6002546000906001600160a01b03166145d75760405162461bcd60e51b815260206004820152602c6024820152600080516020615f9183398151915260448201526b61676572206973207a65726f60a01b6064820152608401610b13565b6145e087614d77565b6002546040516304a091b760e31b81526000916001600160a01b0316906325048db890614619908a908a908a908a908a90600401615e67565b6020604051808303816000875af1158015614638573d6000803e3d6000fd5b505050506040513d601f19601f8201168201806040525081019061465c9190615828565b905080886001600160a01b03167fcd47bcad760e912d146723a314cc78b8570ee76ec8bdd4b60335087f6c2f47d78989898960405161469e9493929190615efd565b60405180910390a3979650505050505050565b6005546001600160a01b031661471d5760405162461bcd60e51b815260206004820152602b60248201527f53746f726167655374617465436f6d6d69747465653a20696e76616c6964205360448201526a6569674d616e616765726560a81b6064820152608401610b13565b6004546001600160a01b031661478b5760405162461bcd60e51b815260206004820152602d60248201527f53746f726167655374617465436f6d6d69747465653a20696e76616c6964204c60448201526c6179657232526567697374727960981b6064820152608401610b13565b6003546001600160a01b03166147fd5760405162461bcd60e51b815260206004820152603160248201527f53746f726167655374617465436f6d6d69747465653a20696e76616c696420436044820152706f6d6d69747465654c32466163746f727960781b6064820152608401610b13565b6001600160a01b0380831660009081526009602052604090205416156148775760405162461bcd60e51b815260206004820152602960248201527f44414f436f6d6d69747465653a2063616e64696461746520616c7265616479206044820152681c9959da5cdd195c9960ba1b6064820152608401610b13565b6001600160a01b0382166148e65760405162461bcd60e51b815260206004820152603060248201527f44414f436f6d6d69747465653a206465706c6f7965642063616e64696461746560448201526f436f6e7472616374206973207a65726f60801b6064820152608401610b13565b6001600160a01b0382811660009081526009602052604090205416156149675760405162461bcd60e51b815260206004820152603060248201527f44414f436f6d6d69747465653a205468652063616e64696461746520616c726560448201526f18591e481a185cc818dbdb9d1c9858dd60821b6064820152608401610b13565b6000829050806001600160a01b031663882eed2c6040518163ffffffff1660e01b8152600401602060405180830381865afa1580156149aa573d6000803e3d6000fd5b505050506040513d601f19601f820116820180604052508101906149ce91906157f5565b614a285760405162461bcd60e51b815260206004820152602560248201527f44414f436f6d6d69747465653a20696e76616c6964206c617965723220636f6e6044820152641d1c9858dd60da1b6064820152608401610b13565b836001600160a01b0316816001600160a01b031663570ca7356040518163ffffffff1660e01b8152600401602060405180830381865afa158015614a70573d6000803e3d6000fd5b505050506040513d601f19601f82011682018060405250810190614a9491906157ba565b6001600160a01b031614614aea5760405162461bcd60e51b815260206004820152601e60248201527f44414f436f6d6d69747465653a20696e76616c6964206f70657261746f7200006044820152606401610b13565b60035460055460405163732518fb60e11b81526000926001600160a01b039081169263e64a31f692614b299289926001928a9230921690600401615f38565b6020604051808303816000875af1158015614b48573d6000803e3d6000fd5b505050506040513d601f19601f82011682018060405250810190614b6c91906157ba565b90506001600160a01b038116614bdd5760405162461bcd60e51b815260206004820152603060248201527f44414f436f6d6d69747465653a206465706c6f7965642063616e64696461746560448201526f436f6e7472616374206973207a65726f60801b6064820152608401610b13565b6040805160a0810182526001600160a01b038381168083526000602080850182815285870183815260608701848152608088018581528d88168087526009909552898620985189546001600160a01b03199081169190991617895592516001808a0191909155915190516001600160801b03918216600160801b918316919091021760028901559151600390970180546001600160801b031916979092169690961790556006805495860181559091527ff652222313e28459528d920b65115c16c04f3efc82aaedc97be59f3f377c0d3f9093018054909216831790915591517f0f401d1bd976f5304ef9cfa87aeb24d777c0e205fb87bbae1dc0f0293ba7976a90614cea908790615f7d565b60405180910390a35050505050565b60006111bb8383614f98565b6001600160a01b038116600090815260018301602052604081205415156111bb565b6000610ae6825490565b6000614d3c8361501e565b80156111bb57506111bb8383615051565b60006111bb836001600160a01b0384166150ef565b60006111bb836001600160a01b03841661513e565b60025460408051632522a32f60e01b815290516000926001600160a01b031691632522a32f9160048083019260209291908290030181865afa158015614dc1573d6000803e3d6000fd5b505050506040513d601f19601f82011682018060405250810190614de59190615828565b6000546040516323b872dd60e01b81526001600160a01b038581166004830152306024830152604482018490529293509116906323b872dd906064016020604051808303816000875af1158015614e40573d6000803e3d6000fd5b505050506040513d601f19601f82011682018060405250810190614e6491906157f5565b614ed65760405162461bcd60e51b815260206004820152603160248201527f44414f436f6d6d69747465653a206661696c656420746f207472616e7366657260448201527f20746f6e2066726f6d2063726561746f720000000000000000000000000000006064820152608401610b13565b60005460405163a9059cbb60e01b815260016004820152602481018390526001600160a01b039091169063a9059cbb906044016020604051808303816000875af1158015614f28573d6000803e3d6000fd5b505050506040513d601f19601f82011682018060405250810190614f4c91906157f5565b611d8d5760405162461bcd60e51b815260206004820152601c60248201527f44414f436f6d6d69747465653a206661696c656420746f206275726e000000006044820152606401610b13565b81546000908210614ff65760405162461bcd60e51b815260206004820152602260248201527f456e756d657261626c655365743a20696e646578206f7574206f6620626f756e604482015261647360f01b6064820152608401610b13565b82600001828154811061500b5761500b615812565b9060005260206000200154905092915050565b6000615031826301ffc9a760e01b615051565b8015610ae6575061504a826001600160e01b0319615051565b1592915050565b604080516001600160e01b03198316602480830191909152825180830390910181526044909101909152602080820180517bffffffffffffffffffffffffffffffffffffffffffffffffffffffff166301ffc9a760e01b178152825160009392849283928392918391908a617530fa92503d915060005190508280156150d8575060208210155b80156150e45750600081115b979650505050505050565b600081815260018301602052604081205461513657508154600181810184556000848152602080822090930184905584548482528286019093526040902091909155610ae6565b506000610ae6565b60008181526001830160205260408120548015615227576000615162600183615857565b855490915060009061517690600190615857565b9050600086600001828154811061518f5761518f615812565b90600052602060002001549050808760000184815481106151b2576151b2615812565b6000918252602090912001556151c983600161586a565b600082815260018901602052604090205586548790806151eb576151eb615c1b565b60019003818190600052602060002001600090559055866001016000878152602001908152602001600020600090556001945050505050610ae6565b6000915050610ae6565b60006020828403121561524357600080fd5b81356001600160e01b0319811681146111bb57600080fd5b6001600160a01b038116811461527057600080fd5b50565b60006020828403121561528557600080fd5b81356111bb8161525b565b6000602082840312156152a257600080fd5b5035919050565b600080604083850312156152bc57600080fd5b82356152c78161525b565b915060208301356152d78161525b565b809150509250929050565b60008083601f8401126152f457600080fd5b50813567ffffffffffffffff81111561530c57600080fd5b60208301915083602082850101111561532457600080fd5b9250929050565b6000806000806060858703121561534157600080fd5b8435935060208501359250604085013567ffffffffffffffff81111561536657600080fd5b615372878288016152e2565b95989497509550505050565b6000806040838503121561539157600080fd5b8235915060208301356152d78161525b565b6000806000604084860312156153b857600080fd5b833567ffffffffffffffff8111156153cf57600080fd5b6153db868287016152e2565b90945092505060208401356153ef8161525b565b809150509250925092565b6000806040838503121561540d57600080fd5b82356154188161525b565b946020939093013593505050565b60008060008060006080868803121561543e57600080fd5b85356154498161525b565b945060208601356154598161525b565b935060408601359250606086013567ffffffffffffffff81111561547c57600080fd5b615488888289016152e2565b969995985093965092949392505050565b634e487b7160e01b600052604160045260246000fd5b604051601f8201601f1916810167ffffffffffffffff811182821017156154d8576154d8615499565b604052919050565b600067ffffffffffffffff8211156154fa576154fa615499565b50601f01601f191660200190565b600061551b615516846154e0565b6154af565b905082815283838301111561552f57600080fd5b828260208301376000602084830101529392505050565b600082601f83011261555757600080fd5b6111bb83833560208501615508565b60008060006060848603121561557b57600080fd5b83356155868161525b565b925060208401356155968161525b565b9150604084013567ffffffffffffffff8111156155b257600080fd5b6155be86828701615546565b9150509250925092565b600080604083850312156155db57600080fd5b50508035926020909101359150565b600080602083850312156155fd57600080fd5b823567ffffffffffffffff8082111561561557600080fd5b818501915085601f83011261562957600080fd5b81358181111561563857600080fd5b8660208260051b850101111561564d57600080fd5b60209290920196919550909350505050565b6000806020838503121561567257600080fd5b823567ffffffffffffffff81111561568957600080fd5b615695858286016152e2565b90969095509350505050565b6000806000604084860312156156b657600080fd5b83356156c18161525b565b9250602084013567ffffffffffffffff8111156156dd57600080fd5b6156e9868287016152e2565b9497909650939450505050565b60008060006060848603121561570b57600080fd5b505081359360208301359350604090920135919050565b6000806040838503121561573557600080fd5b82356157408161525b565b9150602083013567ffffffffffffffff81111561575c57600080fd5b61576885828601615546565b9150509250929050565b60208082526028908201527f44414f436f6d6d69747465653a206d73672e73656e646572206973206e6f742060408201526730b71030b236b4b760c11b606082015260800190565b6000602082840312156157cc57600080fd5b81516111bb8161525b565b801515811461527057600080fd5b80516157f0816157d7565b919050565b60006020828403121561580757600080fd5b81516111bb816157d7565b634e487b7160e01b600052603260045260246000fd5b60006020828403121561583a57600080fd5b5051919050565b634e487b7160e01b600052601160045260246000fd5b81810381811115610ae657610ae6615841565b80820180821115610ae657610ae6615841565b600067ffffffffffffffff82111561589757615897615499565b5060051b60200190565b60005b838110156158bc5781810151838201526020016158a4565b50506000910152565b600082601f8301126158d657600080fd5b815160206158e66155168361587d565b82815260059290921b8401810191818101908684111561590557600080fd5b8286015b8481101561598157805167ffffffffffffffff8111156159295760008081fd5b8701603f8101891361593b5760008081fd5b84810151604061594d615516836154e0565b8281528b828486010111156159625760008081fd5b615971838983018487016158a1565b8652505050918301918301615909565b509695505050505050565b600080600080608085870312156159a257600080fd5b845167ffffffffffffffff808211156159ba57600080fd5b818701915087601f8301126159ce57600080fd5b815160206159de6155168361587d565b82815260059290921b8401810191818101908b8411156159fd57600080fd5b948201945b83861015615a24578551615a158161525b565b82529482019490820190615a02565b918a0151919850909350505080821115615a3d57600080fd5b50615a4a878288016158c5565b935050615a59604086016157e5565b6060959095015193969295505050565b60008251615a7b8184602087016158a1565b9190910192915050565b600060018201615a9757615a97615841565b5060010190565b600081518084526020808501945080840160005b83811015615ad75781516001600160a01b031687529582019590820190600101615ab2565b509495945050505050565b6020815260006111bb6020830184615a9e565b600080600060608486031215615b0a57600080fd5b8351925060208401519150604084015190509250925092565b634e487b7160e01b600052602160045260246000fd5b8281526040810160048310615b5057615b50615b23565b8260208301529392505050565b8281526040810160068310615b5057615b50615b23565b81835281816020850137506000828201602090810191909152601f909101601f19169091010190565b838152604060208201526000615bb7604083018486615b74565b95945050505050565b60006001600160a01b038089168352871515602084015260a06040840152615bec60a084018789615b74565b94811660608401529290921660809091015250949350505050565b602081526000613a5c602083018486615b74565b634e487b7160e01b600052603160045260246000fd5b6001600160a01b0384168152604060208201526000615bb7604083018486615b74565b8082028115828204841417610ae657610ae6615841565b600082615c8857634e487b7160e01b600052601260045260246000fd5b500490565b80356001600160801b03811681146157f057600080fd5b80356157f0816157d7565b600082601f830112615cc057600080fd5b81356020615cd06155168361587d565b82815260059290921b84018101918181019086841115615cef57600080fd5b8286015b8481101561598157803567ffffffffffffffff811115615d135760008081fd5b8701603f81018913615d255760008081fd5b615d36898683013560408401615508565b845250918301918301615cf3565b600080600080600060a08688031215615d5c57600080fd5b853567ffffffffffffffff80821115615d7457600080fd5b818801915088601f830112615d8857600080fd5b81356020615d986155168361587d565b82815260059290921b8401810191818101908c841115615db757600080fd5b948201945b83861015615dde578535615dcf8161525b565b82529482019490820190615dbc565b9950615ded90508a8201615c8d565b97505050615dfd60408901615c8d565b9450615e0b60608901615ca4565b93506080880135915080821115615e2157600080fd5b50615e2e88828901615caf565b9150509295509295909350565b60008151808452615e538160208601602086016158a1565b601f01601f19169290920160200192915050565b60a081526000615e7a60a0830188615a9e565b60206001600160801b0380891682860152808816604086015250851515606085015283820360808501528185518084528284019150828160051b85010183880160005b83811015615eeb57601f19878403018552615ed9838351615e3b565b94860194925090850190600101615ebd565b50909c9b505050505050505050505050565b608081526000615f106080830187615a9e565b6001600160801b03958616602084015293909416604082015290151560609091015292915050565b60006001600160a01b038088168352861515602084015260a06040840152615f6360a0840187615e3b565b948116606084015292909216608090910152509392505050565b6020815260006111bb6020830184615e3b56fe53746f726167655374617465436f6d6d69747465653a204167656e64614d616ea164736f6c6343000813000a",
  "linkReferences": {},
  "deployedLinkReferences": {}
}