{
  "contractName": "DAOCommittee",
  "abi": [
    {
      "anonymous": false,
      "inputs": [
        {
          "indexed": false,
          "internalType": "uint256",
          "name": "newReward",
          "type": "uint256"
        }
      ],
      "name": "ActivityRewardChanged",
      "type": "event"
    },
    {
      "anonymous": false,
      "inputs": [
        {
          "indexed": true,
          "internalType": "address",
          "name": "from",
          "type": "address"
        },
        {
          "indexed": true,
          "internalType": "uint256",
          "name": "id",
          "type": "uint256"
        },
        {
          "indexed": false,
          "internalType": "address[]",
          "name": "targets",
          "type": "address[]"
        },
        {
          "indexed": false,
          "internalType": "uint128",
          "name": "noticePeriodSeconds",
          "type": "uint128"
        },
        {
          "indexed": false,
          "internalType": "uint128",
          "name": "votingPeriodSeconds",
          "type": "uint128"
        },
        {
          "indexed": false,
          "internalType": "bool",
          "name": "atomicExecute",
          "type": "bool"
        }
      ],
      "name": "AgendaCreated",
      "type": "event"
    },
    {
      "anonymous": false,
      "inputs": [
        {
          "indexed": true,
          "internalType": "uint256",
          "name": "id",
          "type": "uint256"
        },
        {
          "indexed": false,
          "internalType": "address[]",
          "name": "target",
          "type": "address[]"
        }
      ],
      "name": "AgendaExecuted",
      "type": "event"
    },
    {
      "anonymous": false,
      "inputs": [
        {
          "indexed": true,
          "internalType": "address",
          "name": "from",
          "type": "address"
        },
        {
          "indexed": true,
          "internalType": "uint256",
          "name": "id",
          "type": "uint256"
        },
        {
          "indexed": false,
          "internalType": "uint256",
          "name": "voting",
          "type": "uint256"
        },
        {
          "indexed": false,
          "internalType": "string",
          "name": "comment",
          "type": "string"
        }
      ],
      "name": "AgendaVoteCasted",
      "type": "event"
    },
    {
      "anonymous": false,
      "inputs": [
        {
          "indexed": true,
          "internalType": "address",
          "name": "candidate",
          "type": "address"
        },
        {
          "indexed": true,
          "internalType": "address",
          "name": "candidateContract",
          "type": "address"
        },
        {
          "indexed": false,
          "internalType": "string",
          "name": "memo",
          "type": "string"
        }
      ],
      "name": "CandidateContractCreated",
      "type": "event"
    },
    {
      "anonymous": false,
      "inputs": [
        {
          "indexed": true,
          "internalType": "uint256",
          "name": "slotIndex",
          "type": "uint256"
        },
        {
          "indexed": false,
          "internalType": "address",
          "name": "prevMember",
          "type": "address"
        },
        {
          "indexed": true,
          "internalType": "address",
          "name": "newMember",
          "type": "address"
        }
      ],
      "name": "ChangedMember",
      "type": "event"
    },
    {
      "anonymous": false,
      "inputs": [
        {
          "indexed": false,
          "internalType": "address",
          "name": "candidate",
          "type": "address"
        },
        {
          "indexed": false,
          "internalType": "string",
          "name": "newMemo",
          "type": "string"
        }
      ],
      "name": "ChangedMemo",
      "type": "event"
    },
    {
      "anonymous": false,
      "inputs": [
        {
          "indexed": true,
          "internalType": "uint256",
          "name": "prevSlotMax",
          "type": "uint256"
        },
        {
          "indexed": true,
          "internalType": "uint256",
          "name": "slotMax",
          "type": "uint256"
        }
      ],
      "name": "ChangedSlotMaximum",
      "type": "event"
    },
    {
      "anonymous": false,
      "inputs": [
        {
          "indexed": true,
          "internalType": "address",
          "name": "candidate",
          "type": "address"
        },
        {
          "indexed": false,
          "internalType": "address",
          "name": "receiver",
          "type": "address"
        },
        {
          "indexed": false,
          "internalType": "uint256",
          "name": "amount",
          "type": "uint256"
        }
      ],
      "name": "ClaimedActivityReward",
      "type": "event"
    },
    {
      "anonymous": false,
      "inputs": [
        {
          "indexed": true,
          "internalType": "address",
          "name": "candidate",
          "type": "address"
        },
        {
          "indexed": true,
          "internalType": "address",
          "name": "candidateContract",
          "type": "address"
        },
        {
          "indexed": false,
          "internalType": "string",
          "name": "memo",
          "type": "string"
        }
      ],
      "name": "Layer2Registered",
      "type": "event"
    },
    {
      "anonymous": false,
      "inputs": [
        {
          "indexed": false,
          "internalType": "uint256",
          "name": "newQuorum",
          "type": "uint256"
        }
      ],
      "name": "QuorumChanged",
      "type": "event"
    },
    {
      "anonymous": false,
      "inputs": [
        {
          "indexed": true,
          "internalType": "bytes32",
          "name": "role",
          "type": "bytes32"
        },
        {
          "indexed": true,
          "internalType": "bytes32",
          "name": "previousAdminRole",
          "type": "bytes32"
        },
        {
          "indexed": true,
          "internalType": "bytes32",
          "name": "newAdminRole",
          "type": "bytes32"
        }
      ],
      "name": "RoleAdminChanged",
      "type": "event"
    },
    {
      "anonymous": false,
      "inputs": [
        {
          "indexed": true,
          "internalType": "bytes32",
          "name": "role",
          "type": "bytes32"
        },
        {
          "indexed": true,
          "internalType": "address",
          "name": "account",
          "type": "address"
        },
        {
          "indexed": true,
          "internalType": "address",
          "name": "sender",
          "type": "address"
        }
      ],
      "name": "RoleGranted",
      "type": "event"
    },
    {
      "anonymous": false,
      "inputs": [
        {
          "indexed": true,
          "internalType": "bytes32",
          "name": "role",
          "type": "bytes32"
        },
        {
          "indexed": true,
          "internalType": "address",
          "name": "account",
          "type": "address"
        },
        {
          "indexed": true,
          "internalType": "address",
          "name": "sender",
          "type": "address"
        }
      ],
      "name": "RoleRevoked",
      "type": "event"
    },
    {
      "inputs": [],
      "name": "DEFAULT_ADMIN_ROLE",
      "outputs": [
        {
          "internalType": "bytes32",
          "name": "",
          "type": "bytes32"
        }
      ],
      "stateMutability": "view",
      "type": "function",
      "constant": true
    },
    {
      "inputs": [],
      "name": "activityRewardPerSecond",
      "outputs": [
        {
          "internalType": "uint256",
          "name": "",
          "type": "uint256"
        }
      ],
      "stateMutability": "view",
      "type": "function",
      "constant": true
    },
    {
      "inputs": [],
      "name": "agendaManager",
      "outputs": [
        {
          "internalType": "contract IDAOAgendaManager",
          "name": "",
          "type": "address"
        }
      ],
      "stateMutability": "view",
      "type": "function",
      "constant": true
    },
    {
      "inputs": [
        {
          "internalType": "address",
          "name": "_candidate",
          "type": "address"
        }
      ],
      "name": "candidateContract",
      "outputs": [
        {
          "internalType": "address",
          "name": "",
          "type": "address"
        }
      ],
      "stateMutability": "view",
      "type": "function",
      "constant": true
    },
    {
      "inputs": [],
      "name": "candidateFactory",
      "outputs": [
        {
          "internalType": "contract ICandidateFactory",
          "name": "",
          "type": "address"
        }
      ],
      "stateMutability": "view",
      "type": "function",
      "constant": true
    },
    {
      "inputs": [
        {
          "internalType": "address",
          "name": "_candidate",
          "type": "address"
        }
      ],
      "name": "candidateInfos",
      "outputs": [
        {
          "components": [
            {
              "internalType": "address",
              "name": "candidateContract",
              "type": "address"
            },
            {
              "internalType": "uint256",
              "name": "indexMembers",
              "type": "uint256"
            },
            {
              "internalType": "uint128",
              "name": "memberJoinedTime",
              "type": "uint128"
            },
            {
              "internalType": "uint128",
              "name": "rewardPeriod",
              "type": "uint128"
            },
            {
              "internalType": "uint128",
              "name": "claimedTimestamp",
              "type": "uint128"
            }
          ],
          "internalType": "struct IStorageStateCommittee.CandidateInfo",
          "name": "",
          "type": "tuple"
        }
      ],
      "stateMutability": "nonpayable",
      "type": "function"
    },
    {
      "inputs": [
        {
          "internalType": "uint256",
          "name": "",
          "type": "uint256"
        }
      ],
      "name": "candidates",
      "outputs": [
        {
          "internalType": "address",
          "name": "",
          "type": "address"
        }
      ],
      "stateMutability": "view",
      "type": "function",
      "constant": true
    },
    {
      "inputs": [],
      "name": "daoVault",
      "outputs": [
        {
          "internalType": "contract IDAOVault",
          "name": "",
          "type": "address"
        }
      ],
      "stateMutability": "view",
      "type": "function",
      "constant": true
    },
    {
      "inputs": [
        {
          "internalType": "bytes32",
          "name": "role",
          "type": "bytes32"
        }
      ],
      "name": "getRoleAdmin",
      "outputs": [
        {
          "internalType": "bytes32",
          "name": "",
          "type": "bytes32"
        }
      ],
      "stateMutability": "view",
      "type": "function",
      "constant": true
    },
    {
      "inputs": [
        {
          "internalType": "bytes32",
          "name": "role",
          "type": "bytes32"
        },
        {
          "internalType": "uint256",
          "name": "index",
          "type": "uint256"
        }
      ],
      "name": "getRoleMember",
      "outputs": [
        {
          "internalType": "address",
          "name": "",
          "type": "address"
        }
      ],
      "stateMutability": "view",
      "type": "function",
      "constant": true
    },
    {
      "inputs": [
        {
          "internalType": "bytes32",
          "name": "role",
          "type": "bytes32"
        }
      ],
      "name": "getRoleMemberCount",
      "outputs": [
        {
          "internalType": "uint256",
          "name": "",
          "type": "uint256"
        }
      ],
      "stateMutability": "view",
      "type": "function",
      "constant": true
    },
    {
      "inputs": [
        {
          "internalType": "bytes32",
          "name": "role",
          "type": "bytes32"
        },
        {
          "internalType": "address",
          "name": "account",
          "type": "address"
        }
      ],
      "name": "grantRole",
      "outputs": [],
      "stateMutability": "nonpayable",
      "type": "function"
    },
    {
      "inputs": [
        {
          "internalType": "bytes32",
          "name": "role",
          "type": "bytes32"
        },
        {
          "internalType": "address",
          "name": "account",
          "type": "address"
        }
      ],
      "name": "hasRole",
      "outputs": [
        {
          "internalType": "bool",
          "name": "",
          "type": "bool"
        }
      ],
      "stateMutability": "view",
      "type": "function",
      "constant": true
    },
    {
      "inputs": [
        {
          "internalType": "address",
          "name": "_candidate",
          "type": "address"
        }
      ],
      "name": "isMember",
      "outputs": [
        {
          "internalType": "bool",
          "name": "",
          "type": "bool"
        }
      ],
      "stateMutability": "view",
      "type": "function",
      "constant": true
    },
    {
      "inputs": [],
      "name": "layer2Registry",
      "outputs": [
        {
          "internalType": "contract ILayer2Registry",
          "name": "",
          "type": "address"
        }
      ],
      "stateMutability": "view",
      "type": "function",
      "constant": true
    },
    {
      "inputs": [],
      "name": "maxMember",
      "outputs": [
        {
          "internalType": "uint256",
          "name": "",
          "type": "uint256"
        }
      ],
      "stateMutability": "view",
      "type": "function",
      "constant": true
    },
    {
      "inputs": [
        {
          "internalType": "uint256",
          "name": "",
          "type": "uint256"
        }
      ],
      "name": "members",
      "outputs": [
        {
          "internalType": "address",
          "name": "",
          "type": "address"
        }
      ],
      "stateMutability": "view",
      "type": "function",
      "constant": true
    },
    {
      "inputs": [],
      "name": "quorum",
      "outputs": [
        {
          "internalType": "uint256",
          "name": "",
          "type": "uint256"
        }
      ],
      "stateMutability": "view",
      "type": "function",
      "constant": true
    },
    {
      "inputs": [
        {
          "internalType": "bytes32",
          "name": "role",
          "type": "bytes32"
        },
        {
          "internalType": "address",
          "name": "account",
          "type": "address"
        }
      ],
      "name": "renounceRole",
      "outputs": [],
      "stateMutability": "nonpayable",
      "type": "function"
    },
    {
      "inputs": [
        {
          "internalType": "bytes32",
          "name": "role",
          "type": "bytes32"
        },
        {
          "internalType": "address",
          "name": "account",
          "type": "address"
        }
      ],
      "name": "revokeRole",
      "outputs": [],
      "stateMutability": "nonpayable",
      "type": "function"
    },
    {
      "inputs": [],
      "name": "seigManager",
      "outputs": [
        {
          "internalType": "contract ISeigManager",
          "name": "",
          "type": "address"
        }
      ],
      "stateMutability": "view",
      "type": "function",
      "constant": true
    },
    {
      "inputs": [],
      "name": "ton",
      "outputs": [
        {
          "internalType": "address",
          "name": "",
          "type": "address"
        }
      ],
      "stateMutability": "view",
      "type": "function",
      "constant": true
    },
    {
      "inputs": [
        {
          "internalType": "address",
          "name": "_seigManager",
          "type": "address"
        }
      ],
      "name": "setSeigManager",
      "outputs": [],
      "stateMutability": "nonpayable",
      "type": "function"
    },
    {
      "inputs": [
        {
          "internalType": "address[]",
          "name": "_candidateContracts",
          "type": "address[]"
        },
        {
          "internalType": "address",
          "name": "_seigManager",
          "type": "address"
        }
      ],
      "name": "setCandidatesSeigManager",
      "outputs": [],
      "stateMutability": "nonpayable",
      "type": "function"
    },
    {
      "inputs": [
        {
          "internalType": "address[]",
          "name": "_candidateContracts",
          "type": "address[]"
        },
        {
          "internalType": "address",
          "name": "_committee",
          "type": "address"
        }
      ],
      "name": "setCandidatesCommittee",
      "outputs": [],
      "stateMutability": "nonpayable",
      "type": "function"
    },
    {
      "inputs": [
        {
          "internalType": "address",
          "name": "_daoVault",
          "type": "address"
        }
      ],
      "name": "setDaoVault",
      "outputs": [],
      "stateMutability": "nonpayable",
      "type": "function"
    },
    {
      "inputs": [
        {
          "internalType": "address",
          "name": "_layer2Registry",
          "type": "address"
        }
      ],
      "name": "setLayer2Registry",
      "outputs": [],
      "stateMutability": "nonpayable",
      "type": "function"
    },
    {
      "inputs": [
        {
          "internalType": "address",
          "name": "_agendaManager",
          "type": "address"
        }
      ],
      "name": "setAgendaManager",
      "outputs": [],
      "stateMutability": "nonpayable",
      "type": "function"
    },
    {
      "inputs": [
        {
          "internalType": "address",
          "name": "_candidateFactory",
          "type": "address"
        }
      ],
      "name": "setCandidateFactory",
      "outputs": [],
      "stateMutability": "nonpayable",
      "type": "function"
    },
    {
      "inputs": [
        {
          "internalType": "address",
          "name": "_ton",
          "type": "address"
        }
      ],
      "name": "setTon",
      "outputs": [],
      "stateMutability": "nonpayable",
      "type": "function"
    },
    {
      "inputs": [
        {
          "internalType": "uint256",
          "name": "_value",
          "type": "uint256"
        }
      ],
      "name": "setActivityRewardPerSecond",
      "outputs": [],
      "stateMutability": "nonpayable",
      "type": "function"
    },
    {
      "inputs": [
        {
          "internalType": "uint256",
          "name": "_newMaxMember",
          "type": "uint256"
        },
        {
          "internalType": "uint256",
          "name": "_quorum",
          "type": "uint256"
        }
      ],
      "name": "increaseMaxMember",
      "outputs": [],
      "stateMutability": "nonpayable",
      "type": "function"
    },
    {
      "inputs": [
        {
          "internalType": "string",
          "name": "_memo",
          "type": "string"
        }
      ],
      "name": "createCandidate",
      "outputs": [],
      "stateMutability": "nonpayable",
      "type": "function"
    },
    {
      "inputs": [
        {
          "internalType": "address",
          "name": "_layer2",
          "type": "address"
        },
        {
          "internalType": "string",
          "name": "_memo",
          "type": "string"
        }
      ],
      "name": "registerLayer2Candidate",
      "outputs": [],
      "stateMutability": "nonpayable",
      "type": "function"
    },
    {
      "inputs": [
        {
          "internalType": "address",
          "name": "_operator",
          "type": "address"
        },
        {
          "internalType": "address",
          "name": "_layer2",
          "type": "address"
        },
        {
          "internalType": "string",
          "name": "_memo",
          "type": "string"
        }
      ],
      "name": "registerLayer2CandidateByOwner",
      "outputs": [],
      "stateMutability": "nonpayable",
      "type": "function"
    },
    {
      "inputs": [
        {
          "internalType": "uint256",
          "name": "_memberIndex",
          "type": "uint256"
        }
      ],
      "name": "changeMember",
      "outputs": [
        {
          "internalType": "bool",
          "name": "",
          "type": "bool"
        }
      ],
      "stateMutability": "nonpayable",
      "type": "function"
    },
    {
      "inputs": [],
      "name": "retireMember",
      "outputs": [
        {
          "internalType": "bool",
          "name": "",
          "type": "bool"
        }
      ],
      "stateMutability": "nonpayable",
      "type": "function"
    },
    {
      "inputs": [
        {
          "internalType": "address",
          "name": "_candidate",
          "type": "address"
        },
        {
          "internalType": "string",
          "name": "_memo",
          "type": "string"
        }
      ],
      "name": "setMemoOnCandidate",
      "outputs": [],
      "stateMutability": "nonpayable",
      "type": "function"
    },
    {
      "inputs": [
        {
          "internalType": "address",
          "name": "_candidateContract",
          "type": "address"
        },
        {
          "internalType": "string",
          "name": "_memo",
          "type": "string"
        }
      ],
      "name": "setMemoOnCandidateContract",
      "outputs": [],
      "stateMutability": "nonpayable",
      "type": "function"
    },
    {
      "inputs": [
        {
          "internalType": "uint256",
          "name": "_reducingMemberIndex",
          "type": "uint256"
        },
        {
          "internalType": "uint256",
          "name": "_quorum",
          "type": "uint256"
        }
      ],
      "name": "decreaseMaxMember",
      "outputs": [],
      "stateMutability": "nonpayable",
      "type": "function"
    },
    {
      "inputs": [
        {
          "internalType": "address",
          "name": "owner",
          "type": "address"
        },
        {
          "internalType": "address",
          "name": "spender",
          "type": "address"
        },
        {
          "internalType": "uint256",
          "name": "tonAmount",
          "type": "uint256"
        },
        {
          "internalType": "bytes",
          "name": "data",
          "type": "bytes"
        }
      ],
      "name": "onApprove",
      "outputs": [
        {
          "internalType": "bool",
          "name": "",
          "type": "bool"
        }
      ],
      "stateMutability": "nonpayable",
      "type": "function"
    },
    {
      "inputs": [
        {
          "internalType": "uint256",
          "name": "_quorum",
          "type": "uint256"
        }
      ],
      "name": "setQuorum",
      "outputs": [],
      "stateMutability": "nonpayable",
      "type": "function"
    },
    {
      "inputs": [
        {
          "internalType": "uint256",
          "name": "_fees",
          "type": "uint256"
        }
      ],
      "name": "setCreateAgendaFees",
      "outputs": [],
      "stateMutability": "nonpayable",
      "type": "function"
    },
    {
      "inputs": [
        {
          "internalType": "uint256",
          "name": "_minimumNoticePeriod",
          "type": "uint256"
        }
      ],
      "name": "setMinimumNoticePeriodSeconds",
      "outputs": [],
      "stateMutability": "nonpayable",
      "type": "function"
    },
    {
      "inputs": [
        {
          "internalType": "uint256",
          "name": "_minimumVotingPeriod",
          "type": "uint256"
        }
      ],
      "name": "setMinimumVotingPeriodSeconds",
      "outputs": [],
      "stateMutability": "nonpayable",
      "type": "function"
    },
    {
      "inputs": [
        {
          "internalType": "uint256",
          "name": "_executingPeriodSeconds",
          "type": "uint256"
        }
      ],
      "name": "setExecutingPeriodSeconds",
      "outputs": [],
      "stateMutability": "nonpayable",
      "type": "function"
    },
    {
      "inputs": [
        {
          "internalType": "uint256",
          "name": "_agendaID",
          "type": "uint256"
        },
        {
          "internalType": "uint256",
          "name": "_vote",
          "type": "uint256"
        },
        {
          "internalType": "string",
          "name": "_comment",
          "type": "string"
        }
      ],
      "name": "castVote",
      "outputs": [],
      "stateMutability": "nonpayable",
      "type": "function"
    },
    {
      "inputs": [
        {
          "internalType": "uint256",
          "name": "_agendaID",
          "type": "uint256"
        }
      ],
      "name": "endAgendaVoting",
      "outputs": [],
      "stateMutability": "nonpayable",
      "type": "function"
    },
    {
      "inputs": [
        {
          "internalType": "uint256",
          "name": "_agendaID",
          "type": "uint256"
        }
      ],
      "name": "executeAgenda",
      "outputs": [],
      "stateMutability": "nonpayable",
      "type": "function"
    },
    {
      "inputs": [
        {
          "internalType": "uint256",
          "name": "_agendaID",
          "type": "uint256"
        },
        {
          "internalType": "uint256",
          "name": "_status",
          "type": "uint256"
        },
        {
          "internalType": "uint256",
          "name": "_result",
          "type": "uint256"
        }
      ],
      "name": "setAgendaStatus",
      "outputs": [],
      "stateMutability": "nonpayable",
      "type": "function"
    },
    {
      "inputs": [
        {
          "internalType": "address",
          "name": "_candidate",
          "type": "address"
        }
      ],
      "name": "updateSeigniorage",
      "outputs": [
        {
          "internalType": "bool",
          "name": "",
          "type": "bool"
        }
      ],
      "stateMutability": "nonpayable",
      "type": "function"
    },
    {
      "inputs": [
        {
          "internalType": "address[]",
          "name": "_candidates",
          "type": "address[]"
        }
      ],
      "name": "updateSeigniorages",
      "outputs": [
        {
          "internalType": "bool",
          "name": "",
          "type": "bool"
        }
      ],
      "stateMutability": "nonpayable",
      "type": "function"
    },
    {
      "inputs": [
        {
          "internalType": "address",
          "name": "_receiver",
          "type": "address"
        }
      ],
      "name": "claimActivityReward",
      "outputs": [],
      "stateMutability": "nonpayable",
      "type": "function"
    },
    {
      "inputs": [
        {
          "internalType": "address",
          "name": "_candidate",
          "type": "address"
        }
      ],
      "name": "isCandidate",
      "outputs": [
        {
          "internalType": "bool",
          "name": "",
          "type": "bool"
        }
      ],
      "stateMutability": "view",
      "type": "function",
      "constant": true
    },
    {
      "inputs": [
        {
          "internalType": "address",
          "name": "_candidate",
          "type": "address"
        }
      ],
      "name": "totalSupplyOnCandidate",
      "outputs": [
        {
          "internalType": "uint256",
          "name": "totalsupply",
          "type": "uint256"
        }
      ],
      "stateMutability": "view",
      "type": "function",
      "constant": true
    },
    {
      "inputs": [
        {
          "internalType": "address",
          "name": "_candidate",
          "type": "address"
        },
        {
          "internalType": "address",
          "name": "_account",
          "type": "address"
        }
      ],
      "name": "balanceOfOnCandidate",
      "outputs": [
        {
          "internalType": "uint256",
          "name": "amount",
          "type": "uint256"
        }
      ],
      "stateMutability": "view",
      "type": "function",
      "constant": true
    },
    {
      "inputs": [
        {
          "internalType": "address",
          "name": "_candidateContract",
          "type": "address"
        }
      ],
      "name": "totalSupplyOnCandidateContract",
      "outputs": [
        {
          "internalType": "uint256",
          "name": "totalsupply",
          "type": "uint256"
        }
      ],
      "stateMutability": "view",
      "type": "function",
      "constant": true
    },
    {
      "inputs": [
        {
          "internalType": "address",
          "name": "_candidateContract",
          "type": "address"
        },
        {
          "internalType": "address",
          "name": "_account",
          "type": "address"
        }
      ],
      "name": "balanceOfOnCandidateContract",
      "outputs": [
        {
          "internalType": "uint256",
          "name": "amount",
          "type": "uint256"
        }
      ],
      "stateMutability": "view",
      "type": "function",
      "constant": true
    },
    {
      "inputs": [],
      "name": "candidatesLength",
      "outputs": [
        {
          "internalType": "uint256",
          "name": "",
          "type": "uint256"
        }
      ],
      "stateMutability": "view",
      "type": "function",
      "constant": true
    },
    {
      "inputs": [
        {
          "internalType": "address",
          "name": "_candidate",
          "type": "address"
        }
      ],
      "name": "isExistCandidate",
      "outputs": [
        {
          "internalType": "bool",
          "name": "isExist",
          "type": "bool"
        }
      ],
      "stateMutability": "view",
      "type": "function",
      "constant": true
    },
    {
      "inputs": [
        {
          "internalType": "address",
          "name": "_candidate",
          "type": "address"
        }
      ],
      "name": "getClaimableActivityReward",
      "outputs": [
        {
          "internalType": "uint256",
          "name": "",
          "type": "uint256"
        }
      ],
      "stateMutability": "view",
      "type": "function",
      "constant": true
    }
  ],
  "bytecode": "0x608060405234801561001057600080fd5b5061564180620000216000396000f3fe608060405234801561001057600080fd5b50600436106103af5760003560e01c806369154295116101f4578063a1ea35251161011a578063c4ef9c00116100ad578063cf2a239c1161007c578063cf2a239c146107b5578063d51b9e93146107bd578063d525f04f146107d0578063d547741f146107e3576103af565b8063c4ef9c001461077f578063c7cac42c14610787578063ca15c8731461079a578063cc48b947146107ad576103af565b8063b4f69b6a116100e9578063b4f69b6a1461073e578063b5dd115814610751578063c0bc530414610759578063c1ba4e591461076c576103af565b8063a1ea3525146106fd578063a217fddf14610710578063a230c52414610718578063ad6675dc1461072b576103af565b806378767d331161019257806389ea43001161016157806389ea4300146106b15780639010d07c146106c457806391d14854146106d75780639932e94c146106ea576103af565b806378767d33146106705780637f33163614610683578063805aca201461068b578063885b46961461069e576103af565b80636da8f3ce116101ce5780636da8f3ce1461063a5780636fb7f5581461064d5780637657f20a14610655578063773b7f6514610668576103af565b8063691542951461060157806369b1227a146106145780636becff2714610627576103af565b80634273ca16116102d957806357f0a867116102775780635ebe7622116102465780635ebe7622146105b55780635fba7a56146105c8578063607cf734146105db578063651d08cd146105ee576103af565b806357f0a867146105745780635903bd6c146105875780635c43030f1461058f5780635daf08ca146105a2576103af565b80634b799db1116102b35780634b799db1146105285780634d288fec1461053b57806350e8f17d1461054e578063561a1dab14610561576103af565b80634273ca16146104ef578063440b69ad1461050257806349c39f1414610515576103af565b8063248a9ca3116103515780632e011c1e116103205780632e011c1e146104965780632f2ff15d146104b65780633477ee2e146104c957806336568abe146104dc576103af565b8063248a9ca31461044857806324f99b1e1461045b57806327fd92fd1461046e5780632af60ff414610483576103af565b806316f7f9821161038d57806316f7f982146104075780631703a0181461041a578063216f486b1461042257806323d09fdf14610435576103af565b806303e3c9ac146103b4578063047f52f2146103d257806311f19e04146103e7575b600080fd5b6103bc6107f6565b6040516103c99190614b71565b60405180910390f35b6103e56103e036600461430a565b6107fc565b005b6103fa6103f5366004614765565b610876565b6040516103c99190614b66565b6103bc610415366004614342565b610c97565b6103bc610d44565b6103e5610430366004614765565b610d4a565b6103e5610443366004614765565b611163565b6103bc610456366004614765565b611217565b6103e561046936600461480d565b61122f565b6104766116bf565b6040516103c9919061496a565b6103e561049136600461430a565b6116ce565b6104a96104a436600461430a565b61173f565b6040516103c991906153a5565b6103e56104c436600461477d565b6117b2565b6104766104d7366004614765565b611819565b6103e56104ea36600461477d565b611843565b6103fa6104fd3660046143d9565b6118a4565b6103e561051036600461437a565b6118e3565b6103e561052336600461430a565b611992565b6103e561053636600461430a565b611a03565b6103e561054936600461430a565b611a74565b6103e561055c3660046147a1565b611ae5565b6103fa61056f36600461430a565b611cfd565b6103fa6105823660046144e8565b611d1d565b610476611d7b565b6103e561059d366004614527565b611d8a565b6104766105b0366004614765565b611e6d565b6103e56105c3366004614765565b611e7d565b6103e56105d63660046147c2565b611ee4565b6103e56105e9366004614449565b612238565b6104766105fc36600461430a565b612466565b6103e561060f366004614527565b612484565b6103e5610622366004614765565b612567565b6103e561063536600461430a565b6125e6565b6103e56106483660046147a1565b6127a1565b610476612834565b6103e561066336600461430a565b612843565b6103bc6128b4565b6103bc61067e36600461430a565b6128ba565b6103bc612953565b6103e561069936600461485d565b612959565b6103e56106ac366004614765565b612a61565b6103fa6106bf36600461430a565b612a91565b6104766106d23660046147a1565b612b23565b6103fa6106e536600461477d565b612b3b565b6103bc6106f836600461430a565b612b53565b6103e561070b36600461449b565b612c06565b6103bc612c89565b6103fa61072636600461430a565b612c8e565b6103bc61073936600461430a565b612cb7565b6103e561074c366004614765565b612cce565b610476612d4d565b6103e5610767366004614765565b612d5c565b6103e561077a366004614765565b612ddb565b6103fa612ead565b6103e5610795366004614449565b6130bd565b6103bc6107a8366004614765565b6130db565b6104766130f2565b610476613101565b6103fa6107cb36600461430a565b613110565b6103bc6107de366004614342565b6131eb565b6103e56107f136600461477d565b613203565b60085481565b610807600033612b3b565b61082c5760405162461bcd60e51b815260040161082390614f87565b60405180910390fd5b806001600160a01b0381166108535760405162461bcd60e51b81526004016108239061531e565b50600380546001600160a01b0319166001600160a01b0392909216919091179055565b600081600854811061089a5760405162461bcd60e51b815260040161082390614df2565b6000336001600160a01b0316636c8381f86040518163ffffffff1660e01b815260040160206040518083038186803b1580156108d557600080fd5b505afa1580156108e9573d6000803e3d6000fd5b505050506040513d601f19601f8201168201806040525081019061090d9190614326565b6001600160a01b0381166000908152600960209081526040918290208251631dffc87160e21b815292519394509233926377ff21c4926004808301939192829003018186803b15801561095f57600080fd5b505afa158015610973573d6000803e3d6000fd5b505050506040513d601f19601f820116820180604052508101906109979190614749565b6109b35760405162461bcd60e51b815260040161082390615227565b80546001600160a01b031633146109dc5760405162461bcd60e51b815260040161082390614c97565b60028101546001600160801b031615610a075760405162461bcd60e51b815260040161082390614f00565b600060078681548110610a1657fe5b60009182526020822001546001600160a01b03169150610a3582612466565b6002840180546001600160801b031916426001600160801b03161790556001840188905560078054919250859189908110610a6c57fe5b600091825260209091200180546001600160a01b0319166001600160a01b039283161790558216610ad457836001600160a01b03168760008051602061559c83398151915284604051610abf919061496a565b60405180910390a36001955050505050610c91565b806001600160a01b031663817b1cd26040518163ffffffff1660e01b815260040160206040518083038186803b158015610b0d57600080fd5b505afa158015610b21573d6000803e3d6000fd5b505050506040513d601f19601f82011682018060405250810190610b4591906147f5565b336001600160a01b031663817b1cd26040518163ffffffff1660e01b815260040160206040518083038186803b158015610b7e57600080fd5b505afa158015610b92573d6000803e3d6000fd5b505050506040513d601f19601f82011682018060405250810190610bb691906147f5565b11610bd35760405162461bcd60e51b815260040161082390614cdf565b6001600160a01b038216600090815260096020526040812060018101919091556002810154610c2b90610c109042906001600160801b031661325c565b6002830154600160801b90046001600160801b03169061329e565b6002820180546001600160801b03928316600160801b029216919091176001600160801b03191690556040516001600160a01b03861690899060008051602061559c83398151915290610c7f90879061496a565b60405180910390a36001965050505050505b50919050565b60006001600160a01b038316610cbf5760405162461bcd60e51b815260040161082390614e34565b60405163af500ba360e01b81526001600160a01b0384169063af500ba390610ceb90859060040161496a565b60206040518083038186803b158015610d0357600080fd5b505afa158015610d17573d6000803e3d6000fd5b505050506040513d601f19601f82011682018060405250810190610d3b91906147f5565b90505b92915050565b600a5481565b6002546001600160a01b0316610d725760405162461bcd60e51b815260040161082390615192565b6002546040516377f28d5b60e01b81526001600160a01b03909116906377f28d5b90610da2908490600401614b71565b60206040518083038186803b158015610dba57600080fd5b505afa158015610dce573d6000803e3d6000fd5b505050506040513d601f19601f82011682018060405250810190610df29190614749565b610e0e5760405162461bcd60e51b815260040161082390614fcf565b6002546040516373ba374560e01b81526000918291829182916001600160a01b03909116906373ba374590610e47908890600401614b71565b60006040518083038186803b158015610e5f57600080fd5b505afa158015610e73573d6000803e3d6000fd5b505050506040513d6000823e601f3d908101601f19168201604052610e9b919081019061457b565b93509350935093508115610fc957600254604051631b8c251960e11b81526001600160a01b03909116906337184a3290610ed9908890600401614b71565b600060405180830381600087803b158015610ef357600080fd5b505af1158015610f07573d6000803e3d6000fd5b5050505060005b8451811015610fc3576000858281518110610f2557fe5b60200260200101516001600160a01b0316858381518110610f4257fe5b6020026020010151604051610f57919061494e565b6000604051808303816000865af19150503d8060008114610f94576040519150601f19603f3d011682016040523d82523d6000602084013e610f99565b606091505b5050905080610fba5760405162461bcd60e51b815260040161082390615277565b50600101610f0e565b50611124565b6000815b855181101561104657600061101d878381518110610fe757fe5b6020026020010151878481518110610ffb57fe5b60200260200101515188858151811061101057fe5b60200260200101516132f8565b905080156110375761103083600161329e565b925061103d565b50611046565b50600101610fcd565b50600254604051632833207960e21b81526001600160a01b039091169063a0cc81e490611079908990859060040161545c565b600060405180830381600087803b15801561109357600080fd5b505af11580156110a7573d6000803e3d6000fd5b5050865191506110b99050838361329e565b141561112257600254604051631b8c251960e11b81526001600160a01b03909116906337184a32906110ef908990600401614b71565b600060405180830381600087803b15801561110957600080fd5b505af115801561111d573d6000803e3d6000fd5b505050505b505b847f785146be3266678a3f4ea454b310ff1f8c91d0ad9a7997bcd0619940d4d67fe6856040516111549190614a84565b60405180910390a25050505050565b61116e600033612b3b565b61118a5760405162461bcd60e51b815260040161082390614f87565b6002546001600160a01b03166111b25760405162461bcd60e51b815260040161082390615192565b6002546040516323d09fdf60e01b81526001600160a01b03909116906323d09fdf906111e2908490600401614b71565b600060405180830381600087803b1580156111fc57600080fd5b505af1158015611210573d6000803e3d6000fd5b5050505050565b6000818152600c60205260409020600201545b919050565b6002546001600160a01b03166112575760405162461bcd60e51b815260040161082390615192565b6000336001600160a01b0316636c8381f86040518163ffffffff1660e01b815260040160206040518083038186803b15801561129257600080fd5b505afa1580156112a6573d6000803e3d6000fd5b505050506040513d601f19601f820116820180604052508101906112ca9190614326565b6001600160a01b0380821660009081526009602052604090208054929350911633146113085760405162461bcd60e51b815260040161082390614c97565b600254604051637e77eb2360e01b81526001600160a01b0390911690637e77eb239061133c90899086908a906004016153f4565b602060405180830381600087803b15801561135657600080fd5b505af115801561136a573d6000803e3d6000fd5b505050506040513d601f19601f8201168201806040525081019061138e9190614749565b50600254604051635772521560e11b8152600091829182916001600160a01b03169063aee4a42a906113c4908c90600401614b71565b60606040518083038186803b1580156113dc57600080fd5b505afa1580156113f0573d6000803e3d6000fd5b505050506040513d601f19601f820116820180604052508101906114149190614888565b92509250925082600a54116114f257600254604051632b0a851b60e11b81526001600160a01b03909116906356150a3690611456908c90600190600401615413565b600060405180830381600087803b15801561147057600080fd5b505af1158015611484573d6000803e3d6000fd5b5050600254604051633625b75960e21b81526001600160a01b03909116925063d896dd6491506114bb908c90600390600401615431565b600060405180830381600087803b1580156114d557600080fd5b505af11580156114e9573d6000803e3d6000fd5b5050505061166e565b81600a54116115915760028054604051632b0a851b60e11b81526001600160a01b03909116916356150a369161152c918d91600401615413565b600060405180830381600087803b15801561154657600080fd5b505af115801561155a573d6000803e3d6000fd5b5050600254604051633625b75960e21b81526001600160a01b03909116925063d896dd6491506114bb908c90600590600401615431565b61159b818361329e565b600a541161166e57600254604051632b0a851b60e11b81526001600160a01b03909116906356150a36906115d6908c90600390600401615413565b600060405180830381600087803b1580156115f057600080fd5b505af1158015611604573d6000803e3d6000fd5b5050600254604051633625b75960e21b81526001600160a01b03909116925063d896dd64915061163b908c90600590600401615431565b600060405180830381600087803b15801561165557600080fd5b505af1158015611669573d6000803e3d6000fd5b505050505b88336001600160a01b03167ffa0761008653bc7bf9fa040fb7e07672ad3e17a976eb452c44e81dd782a6214b8a8a8a6040516116ac93929190615442565b60405180910390a3505050505050505050565b6002546001600160a01b031681565b6116d9600033612b3b565b6116f55760405162461bcd60e51b815260040161082390614f87565b806001600160a01b03811661171c5760405162461bcd60e51b81526004016108239061531e565b50600480546001600160a01b0319166001600160a01b0392909216919091179055565b611747614089565b506001600160a01b03908116600090815260096020908152604091829020825160a0810184528154909416845260018101549184019190915260028101546001600160801b0380821693850193909352600160801b9004821660608401526003015416608082015290565b6000828152600c60205260409020600201546117d0906106e5613317565b61180b5760405162461bcd60e51b815260040180806020018281038252602f81526020018061553d602f913960400191505060405180910390fd5b611815828261331b565b5050565b6006818154811061182957600080fd5b6000918252602090912001546001600160a01b0316905081565b61184b613317565b6001600160a01b0316816001600160a01b03161461189a5760405162461bcd60e51b815260040180806020018281038252602f8152602001806155dd602f913960400191505060405180910390fd5b6118158282613384565b6000806118b184846133ed565b90506118d5878260000151836020015184604001518560600151866080015161342b565b506001979650505050505050565b6118ee600033612b3b565b61190a5760405162461bcd60e51b815260040161082390614f87565b6005546001600160a01b03166119325760405162461bcd60e51b815260040161082390614eb5565b6004546001600160a01b031661195a5760405162461bcd60e51b8152600401610823906150b1565b6003546001600160a01b03166119825760405162461bcd60e51b815260040161082390614da1565b61198d83838361353f565b505050565b61199d600033612b3b565b6119b95760405162461bcd60e51b815260040161082390614f87565b806001600160a01b0381166119e05760405162461bcd60e51b81526004016108239061531e565b50600280546001600160a01b0319166001600160a01b0392909216919091179055565b611a0e600033612b3b565b611a2a5760405162461bcd60e51b815260040161082390614f87565b806001600160a01b038116611a515760405162461bcd60e51b81526004016108239061531e565b50600180546001600160a01b0319166001600160a01b0392909216919091179055565b611a7f600033612b3b565b611a9b5760405162461bcd60e51b815260040161082390614f87565b806001600160a01b038116611ac25760405162461bcd60e51b81526004016108239061531e565b50600080546001600160a01b0319166001600160a01b0392909216919091179055565b611af0600033612b3b565b611b0c5760405162461bcd60e51b815260040161082390614f87565b816008548110611b2e5760405162461bcd60e51b815260040161082390614df2565b600060078481548110611b3d57fe5b60009182526020808320909101546001600160a01b03168083526009909152604090912060075491925090600019018514611bfa5760078054600091906000198101908110611b8857fe5b60009182526020808320909101546001600160a01b0316808352600990915260409091206001810188905560078054929350909183919089908110611bc957fe5b9060005260206000200160006101000a8154816001600160a01b0302191690836001600160a01b0316021790555050505b600060018201556002810154611c1e90610c109042906001600160801b031661325c565b6002820180546001600160801b03928316600160801b029216919091176001600160801b03191690556007805480611c5257fe5b600082815260209020810160001990810180546001600160a01b0319169055019055600854611c8290600161325c565b600855611c8e84612ddb565b60006001600160a01b03168560008051602061559c83398151915284604051611cb7919061496a565b60405180910390a3600854611ccd81600161329e565b6040517f8c0366d1e3a335a312d012257ee764723c38ec2dd5e74cbfad372513521f977190600090a35050505050565b6001600160a01b0390811660009081526009602052604090205416151590565b6000805b82811015611d7157611d4d848483818110611d3857fe5b90506020020160208101906106bf919061430a565b611d695760405162461bcd60e51b815260040161082390615067565b600101611d21565b5060019392505050565b6001546001600160a01b031681565b611d95600033612b3b565b611db15760405162461bcd60e51b815260040161082390614f87565b806001600160a01b038116611dd85760405162461bcd60e51b81526004016108239061531e565b60005b8381101561121057848482818110611def57fe5b9050602002016020810190611e04919061430a565b6001600160a01b031663bddae40e846040518263ffffffff1660e01b8152600401611e2f919061496a565b600060405180830381600087803b158015611e4957600080fd5b505af1158015611e5d573d6000803e3d6000fd5b505060019092019150611ddb9050565b6007818154811061182957600080fd5b611e88600033612b3b565b611ea45760405162461bcd60e51b815260040161082390614f87565b600b8190556040517f42bd846b3ff7895ea031753b0d8256b4816edaea44f7d8d9db60ea83b8ee5e4b90611ed9908390614b71565b60405180910390a150565b6005546001600160a01b0316611f0c5760405162461bcd60e51b815260040161082390614eb5565b6004546001600160a01b0316611f345760405162461bcd60e51b8152600401610823906150b1565b6003546001600160a01b0316611f5c5760405162461bcd60e51b815260040161082390614da1565b611f6533611cfd565b15611f825760405162461bcd60e51b8152600401610823906151de565b60035460055460405163732518fb60e11b81526000926001600160a01b039081169263e64a31f692611fc392339287928a928a92309291169060040161497e565b602060405180830381600087803b158015611fdd57600080fd5b505af1158015611ff1573d6000803e3d6000fd5b505050506040513d601f19601f820116820180604052508101906120159190614326565b90506001600160a01b03811661203d5760405162461bcd60e51b815260040161082390614f37565b336000908152600960205260409020546001600160a01b0316156120735760405162461bcd60e51b815260040161082390615355565b60048054600554604051635e58d38f60e11b81526001600160a01b039283169363bcb1a71e936120a8938793911691016149dd565b602060405180830381600087803b1580156120c257600080fd5b505af11580156120d6573d6000803e3d6000fd5b505050506040513d601f19601f820116820180604052508101906120fa9190614749565b6121165760405162461bcd60e51b815260040161082390615017565b6040805160a0810182526001600160a01b038084168083526000602080850182815285870183815260608701848152608088018581523380875260099095528986209851895498166001600160a01b031998891617895592516001808a0191909155915160028901805492516001600160801b03908116600160801b029281166001600160801b03199485161781169290921790559251600390980180549890931697169690961790556006805495860181559091527ff652222313e28459528d920b65115c16c04f3efc82aaedc97be59f3f377c0d3f9093018054909216831790915591517f7cf8db18d9a5c7f44156bfabdbb59ac982a8a004e461ca1b87ee71a5cdfbc5ef9061222b9087908790614b7a565b60405180910390a3505050565b6000836001600160a01b0316636c8381f86040518163ffffffff1660e01b815260040160206040518083038186803b15801561227357600080fd5b505afa158015612287573d6000803e3d6000fd5b505050506040513d601f19601f820116820180604052508101906122ab9190614326565b90506000819050846001600160a01b0316639b6382686040518163ffffffff1660e01b815260040160206040518083038186803b1580156122eb57600080fd5b505afa1580156122ff573d6000803e3d6000fd5b505050506040513d601f19601f820116820180604052508101906123239190614749565b1561239c57816001600160a01b031663570ca7356040518163ffffffff1660e01b815260040160206040518083038186803b15801561236157600080fd5b505afa158015612375573d6000803e3d6000fd5b505050506040513d601f19601f820116820180604052508101906123999190614326565b90505b336001600160a01b038216146123c45760405162461bcd60e51b815260040161082390615135565b6040516325d6086160e01b81526001600160a01b038616906325d60861906123f29087908790600401614b7a565b600060405180830381600087803b15801561240c57600080fd5b505af1158015612420573d6000803e3d6000fd5b505050507fda033346b344f4675799a7ab4d837f0deb62d4afcdcaba4613913b4c25838cb382858560405161245793929190614a5f565b60405180910390a15050505050565b6001600160a01b039081166000908152600960205260409020541690565b61248f600033612b3b565b6124ab5760405162461bcd60e51b815260040161082390614f87565b806001600160a01b0381166124d25760405162461bcd60e51b81526004016108239061531e565b60005b83811015611210578484828181106124e957fe5b90506020020160208101906124fe919061430a565b6001600160a01b0316637657f20a846040518263ffffffff1660e01b8152600401612529919061496a565b600060405180830381600087803b15801561254357600080fd5b505af1158015612557573d6000803e3d6000fd5b5050600190920191506124d59050565b612572600033612b3b565b61258e5760405162461bcd60e51b815260040161082390614f87565b6002546001600160a01b03166125b65760405162461bcd60e51b815260040161082390615192565b6002546040516334d8913d60e11b81526001600160a01b03909116906369b1227a906111e2908490600401614b71565b6000336001600160a01b0316636c8381f86040518163ffffffff1660e01b815260040160206040518083038186803b15801561262157600080fd5b505afa158015612635573d6000803e3d6000fd5b505050506040513d601f19601f820116820180604052508101906126599190614326565b6001600160a01b0380821660009081526009602052604090208054929350911633146126975760405162461bcd60e51b815260040161082390614c97565b60006126a283612b53565b9050600081116126c45760405162461bcd60e51b815260040161082390614e6b565b600154604051633bc3556560e21b81526001600160a01b039091169063ef0d5594906126f690879085906004016149c4565b600060405180830381600087803b15801561271057600080fd5b505af1158015612724573d6000803e3d6000fd5b505050506003820180546001600160801b031916426001600160801b039081169190911790915560028301805490911690556040516001600160a01b038416907fb15377c434dc1922cc2eb7d8950640960a05f0cf6d5dc9442de8414a9da2b3089061279390879085906149c4565b60405180910390a250505050565b6127ac600033612b3b565b6127c85760405162461bcd60e51b815260040161082390614f87565b81600854106127e95760405162461bcd60e51b8152600401610823906152c1565b60088054908390556127f961394b565b61280282612ddb565b604051839082907f8c0366d1e3a335a312d012257ee764723c38ec2dd5e74cbfad372513521f977190600090a3505050565b6005546001600160a01b031681565b61284e600033612b3b565b61286a5760405162461bcd60e51b815260040161082390614f87565b806001600160a01b0381166128915760405162461bcd60e51b81526004016108239061531e565b50600580546001600160a01b0319166001600160a01b0392909216919091179055565b60065490565b60006001600160a01b0382166128e25760405162461bcd60e51b815260040161082390614e34565b816001600160a01b031663817b1cd26040518163ffffffff1660e01b815260040160206040518083038186803b15801561291b57600080fd5b505afa15801561292f573d6000803e3d6000fd5b505050506040513d601f19601f82011682018060405250810190610d3e91906147f5565b600b5481565b612964600033612b3b565b6129805760405162461bcd60e51b815260040161082390614f87565b6002546001600160a01b03166356150a368483600381111561299e57fe5b6040518363ffffffff1660e01b81526004016129bb929190615413565b600060405180830381600087803b1580156129d557600080fd5b505af11580156129e9573d6000803e3d6000fd5b50506002546001600160a01b0316915063d896dd64905084846005811115612a0d57fe5b6040518363ffffffff1660e01b8152600401612a2a929190615431565b600060405180830381600087803b158015612a4457600080fd5b505af1158015612a58573d6000803e3d6000fd5b50505050505050565b60025460405163442da34b60e11b81526001600160a01b039091169063885b4696906111e2908490600401614b71565b6001600160a01b038082166000908152600960209081526040808320548151633b253c2b60e11b8152915193941692839263764a7856926004808201939182900301818887803b158015612ae457600080fd5b505af1158015612af8573d6000803e3d6000fd5b505050506040513d601f19601f82011682018060405250810190612b1c9190614749565b9392505050565b6000828152600c60205260408120610d3b90836139a3565b6000828152600c60205260408120610d3b90836139af565b6001600160a01b038116600090815260096020526040812060028101546001600160801b03600160801b82048116911615612bf057600382015460028301546001600160801b0391821691161115612bd0576002820154612bc990612bc29042906001600160801b031661325c565b829061329e565b9050612bf0565b6003820154612bed90612bc29042906001600160801b031661325c565b90505b600b54612bfe9082906139c4565b949350505050565b6005546001600160a01b0316612c2e5760405162461bcd60e51b815260040161082390614eb5565b6004546001600160a01b0316612c565760405162461bcd60e51b8152600401610823906150b1565b6003546001600160a01b0316612c7e5760405162461bcd60e51b815260040161082390614da1565b61181533838361353f565b600081565b6001600160a01b03166000908152600960205260409020600201546001600160801b0316151590565b600080612cc383612466565b9050612b1c816128ba565b612cd9600033612b3b565b612cf55760405162461bcd60e51b815260040161082390614f87565b6002546001600160a01b0316612d1d5760405162461bcd60e51b815260040161082390615192565b600254604051635a7b4db560e11b81526001600160a01b039091169063b4f69b6a906111e2908490600401614b71565b6003546001600160a01b031681565b612d67600033612b3b565b612d835760405162461bcd60e51b815260040161082390614f87565b6002546001600160a01b0316612dab5760405162461bcd60e51b815260040161082390615192565b60025460405163302f14c160e21b81526001600160a01b039091169063c0bc5304906111e2908490600401614b71565b612de6600033612b3b565b612e025760405162461bcd60e51b815260040161082390614f87565b6002546001600160a01b0316612e2a5760405162461bcd60e51b815260040161082390615192565b600854612e38906002613a1d565b8111612e565760405162461bcd60e51b815260040161082390614bd8565b600854811115612e785760405162461bcd60e51b815260040161082390614d0a565b600a8190556040517f027863d12a407097e086a48e36475bfc859d0b200b7e6f65b5fd3b218e46632e90611ed9908390614b71565b600080336001600160a01b0316636c8381f86040518163ffffffff1660e01b815260040160206040518083038186803b158015612ee957600080fd5b505afa158015612efd573d6000803e3d6000fd5b505050506040513d601f19601f82011682018060405250810190612f219190614326565b9050612f2c81612c8e565b612f485760405162461bcd60e51b815260040161082390614c54565b6000336001600160a01b0316636c8381f86040518163ffffffff1660e01b815260040160206040518083038186803b158015612f8357600080fd5b505afa158015612f97573d6000803e3d6000fd5b505050506040513d601f19601f82011682018060405250810190612fbb9190614326565b6001600160a01b038082166000908152600960205260409020805492935091163314612ff95760405162461bcd60e51b815260040161082390614c97565b6000600782600101548154811061300c57fe5b600091825260209091200180546001600160a01b0319166001600160a01b0392909216919091179055600281015461305290610c109042906001600160801b031661325c565b6002820180546001600160801b03928316600160801b029216919091176001600160801b0319169055600181018054600091829055604051909190829060008051602061559c833981519152906130aa90879061496a565b60405180910390a3600194505050505090565b60006130c884612466565b90506130d5818484612238565b50505050565b6000818152600c60205260408120610d3e90613a5f565b6000546001600160a01b031681565b6004546001600160a01b031681565b6001600160a01b0380821660009081526009602052604081208054919290911661313e57600091505061122a565b805460009061315d906001600160a01b0316631dffc87160e21b613a6a565b90508061316f5760009250505061122a565b815460408051631dffc87160e21b815290516001600160a01b03909216916377ff21c491600480820192602092909190829003018186803b1580156131b357600080fd5b505afa1580156131c7573d6000803e3d6000fd5b505050506040513d601f19601f82011682018060405250810190612bfe9190614749565b6000806131f784612466565b9050612bfe8184610c97565b6000828152600c6020526040902060020154613221906106e5613317565b61189a5760405162461bcd60e51b815260040180806020018281038252603081526020018061556c6030913960400191505060405180910390fd5b6000610d3b83836040518060400160405280601e81526020017f536166654d6174683a207375627472616374696f6e206f766572666c6f770000815250613a86565b600082820183811015610d3b576040805162461bcd60e51b815260206004820152601b60248201527f536166654d6174683a206164646974696f6e206f766572666c6f770000000000604482015290519081900360640190fd5b60008060208301600080868360008a619c405a03f19695505050505050565b3390565b6000828152600c602052604090206133339082613b1d565b1561181557613340613317565b6001600160a01b0316816001600160a01b0316837f2f8788117e7eff1d82e926ec794901d17c78024a50270940304540a733656f0d60405160405180910390a45050565b6000828152600c6020526040902061339c9082613b32565b15611815576133a9613317565b6001600160a01b0316816001600160a01b0316837ff6391f5c32d9c69d2a47ea670b442974b53935d1edc7fd64eb21e047a839171b60405160405180910390a45050565b6133f56140b7565b61340182840184614655565b6080860152151560608501526001600160801b039081166040850152166020830152815292915050565b6002546000906001600160a01b03166134565760405162461bcd60e51b815260040161082390615192565b61345f87613b47565b6002546040516304a091b760e31b81526000916001600160a01b0316906325048db890613498908a908a908a908a908a90600401614ad2565b602060405180830381600087803b1580156134b257600080fd5b505af11580156134c6573d6000803e3d6000fd5b505050506040513d601f19601f820116820180604052508101906134ea91906147f5565b905080886001600160a01b03167fcd47bcad760e912d146723a314cc78b8570ee76ec8bdd4b60335087f6c2f47d78989898960405161352c9493929190614a97565b60405180910390a3979650505050505050565b6005546001600160a01b03166135675760405162461bcd60e51b815260040161082390614eb5565b6004546001600160a01b031661358f5760405162461bcd60e51b8152600401610823906150b1565b6003546001600160a01b03166135b75760405162461bcd60e51b815260040161082390614da1565b6135c082611cfd565b156135dd5760405162461bcd60e51b8152600401610823906151de565b6001600160a01b0382166136035760405162461bcd60e51b815260040161082390614f37565b6001600160a01b03828116600090815260096020526040902054161561363b5760405162461bcd60e51b815260040161082390615355565b6000829050806001600160a01b031663882eed2c6040518163ffffffff1660e01b815260040160206040518083038186803b15801561367957600080fd5b505afa15801561368d573d6000803e3d6000fd5b505050506040513d601f19601f820116820180604052508101906136b19190614749565b6136cd5760405162461bcd60e51b815260040161082390614c0f565b836001600160a01b0316816001600160a01b031663570ca7356040518163ffffffff1660e01b815260040160206040518083038186803b15801561371057600080fd5b505afa158015613724573d6000803e3d6000fd5b505050506040513d601f19601f820116820180604052508101906137489190614326565b6001600160a01b03161461376e5760405162461bcd60e51b8152600401610823906150fe565b60035460055460405163732518fb60e11b81526000926001600160a01b039081169263e64a31f6926137ad9289926001928a9230921690600401614a1b565b602060405180830381600087803b1580156137c757600080fd5b505af11580156137db573d6000803e3d6000fd5b505050506040513d601f19601f820116820180604052508101906137ff9190614326565b90506001600160a01b0381166138275760405162461bcd60e51b815260040161082390614f37565b6040805160a0810182526001600160a01b038084168083526000602080850182815285870183815260608701848152608088018581528d881680875260099095528986209851895498166001600160a01b031998891617895592516001808a0191909155915160028901805492516001600160801b03908116600160801b029281166001600160801b03199485161781169290921790559251600390980180549890931697169690961790556006805495860181559091527ff652222313e28459528d920b65115c16c04f3efc82aaedc97be59f3f377c0d3f9093018054909216831790915591517f0f401d1bd976f5304ef9cfa87aeb24d777c0e205fb87bbae1dc0f0293ba7976a9061393c908790614b8e565b60405180910390a35050505050565b6007545b6008548110156139a05760078054600181810183556000929092527fa66cc928b5edb82af9bd49922954155ab7b0942694bea4ce44661d9a8736c6880180546001600160a01b03191690550161394f565b50565b6000610d3b8383613d08565b6000610d3b836001600160a01b038416613d6c565b6000826139d357506000610d3e565b828202828482816139e057fe5b0414610d3b5760405162461bcd60e51b81526004018080602001828103825260218152602001806155bc6021913960400191505060405180910390fd5b6000610d3b83836040518060400160405280601a81526020017f536166654d6174683a206469766973696f6e206279207a65726f000000000000815250613d84565b6000610d3e82613de9565b6000613a7583613ded565b8015610d3b5750610d3b8383613e20565b60008184841115613b155760405162461bcd60e51b81526004018080602001828103825283818151815260200191508051906020019080838360005b83811015613ada578181015183820152602001613ac2565b50505050905090810190601f168015613b075780820380516001836020036101000a031916815260200191505b509250505060405180910390fd5b505050900390565b6000610d3b836001600160a01b038416613e46565b6000610d3b836001600160a01b038416613e90565b60025460408051632522a32f60e01b815290516000926001600160a01b031691632522a32f916004808301926020929190829003018186803b158015613b8c57600080fd5b505afa158015613ba0573d6000803e3d6000fd5b505050506040513d601f19601f82011682018060405250810190613bc491906147f5565b6000546040516323b872dd60e01b81529192506001600160a01b0316906323b872dd90613bf9908590309086906004016149f7565b602060405180830381600087803b158015613c1357600080fd5b505af1158015613c27573d6000803e3d6000fd5b505050506040513d601f19601f82011682018060405250810190613c4b9190614749565b613c675760405162461bcd60e51b815260040161082390614d50565b60005460405163a9059cbb60e01b81526001600160a01b039091169063a9059cbb90613c9a9060019085906004016149c4565b602060405180830381600087803b158015613cb457600080fd5b505af1158015613cc8573d6000803e3d6000fd5b505050506040513d601f19601f82011682018060405250810190613cec9190614749565b6118155760405162461bcd60e51b815260040161082390614ba1565b81546000908210613d4a5760405162461bcd60e51b815260040180806020018281038252602281526020018061551b6022913960400191505060405180910390fd5b826000018281548110613d5957fe5b9060005260206000200154905092915050565b60009081526001919091016020526040902054151590565b60008183613dd35760405162461bcd60e51b8152602060048201818152835160248401528351909283926044909101919085019080838360008315613ada578181015183820152602001613ac2565b506000838581613ddf57fe5b0495945050505050565b5490565b6000613e00826301ffc9a760e01b613e20565b8015610d3e5750613e19826001600160e01b0319613e20565b1592915050565b6000806000613e2f8585613f56565b91509150818015613e3d5750805b95945050505050565b6000613e528383613d6c565b613e8857508154600181810184556000848152602080822090930184905584548482528286019093526040902091909155610d3e565b506000610d3e565b60008181526001830160205260408120548015613f4c5783546000198083019190810190600090879083908110613ec357fe5b9060005260206000200154905080876000018481548110613ee057fe5b600091825260208083209091019290925582815260018981019092526040902090840190558654879080613f1057fe5b60019003818190600052602060002001600090559055866001016000878152602001908152602001600020600090556001945050505050610d3e565b6000915050610d3e565b604080516001600160e01b0319831660248083019190915282518083039091018152604490910182526020810180516001600160e01b03166301ffc9a760e01b17815291518151600093849392849283926001600160a01b038a169261753092879282918083835b60208310613fdd5780518252601f199092019160209182019101613fbe565b6001836020036101000a0380198251168184511680821785525050505050509050019150506000604051808303818686fa925050503d806000811461403e576040519150601f19603f3d011682016040523d82523d6000602084013e614043565b606091505b50915091506020815110156140615760008094509450505050614082565b8181806020019051602081101561407757600080fd5b505190955093505050505b9250929050565b6040805160a08101825260008082526020820181905291810182905260608101829052608081019190915290565b6040518060a001604052806060815260200160006001600160801b0316815260200160006001600160801b03168152602001600015158152602001606081525090565b600061410d614108846154aa565b61546a565b905082815283838301111561412157600080fd5b828260208301376000602084830101529392505050565b60008083601f840112614149578182fd5b5081356001600160401b0381111561415f578182fd5b602083019150836020808302850101111561408257600080fd5b600082601f830112614189578081fd5b813560206141996141088361548d565b82815281810190858301855b858110156141e3578135880189603f8201126141bf578788fd5b6141d08a87830135604084016140fa565b85525092840192908401906001016141a5565b5090979650505050505050565b600082601f830112614200578081fd5b815160206142106141088361548d565b82815281810190858301855b858110156141e3578151880189603f820112614236578788fd5b858101516040614248614108836154aa565b8281528c8284860101111561425b578a8bfd5b61426a838a83018487016154cb565b8752505050928401929084019060010161421c565b803561122a8161550c565b805161122a8161550c565b60008083601f8401126142a6578182fd5b5081356001600160401b038111156142bc578182fd5b60208301915083602082850101111561408257600080fd5b600082601f8301126142e4578081fd5b610d3b838335602085016140fa565b80356001600160801b038116811461122a57600080fd5b60006020828403121561431b578081fd5b8135610d3b816154f7565b600060208284031215614337578081fd5b8151610d3b816154f7565b60008060408385031215614354578081fd5b823561435f816154f7565b9150602083013561436f816154f7565b809150509250929050565b60008060006060848603121561438e578081fd5b8335614399816154f7565b925060208401356143a9816154f7565b915060408401356001600160401b038111156143c3578182fd5b6143cf868287016142d4565b9150509250925092565b6000806000806000608086880312156143f0578283fd5b85356143fb816154f7565b9450602086013561440b816154f7565b93506040860135925060608601356001600160401b0381111561442c578182fd5b61443888828901614295565b969995985093965092949392505050565b60008060006040848603121561445d578081fd5b8335614468816154f7565b925060208401356001600160401b03811115614482578182fd5b61448e86828701614295565b9497909650939450505050565b600080604083850312156144ad578182fd5b82356144b8816154f7565b915060208301356001600160401b038111156144d2578182fd5b6144de858286016142d4565b9150509250929050565b600080602083850312156144fa578182fd5b82356001600160401b0381111561450f578283fd5b61451b85828601614138565b90969095509350505050565b60008060006040848603121561453b578081fd5b83356001600160401b03811115614550578182fd5b61455c86828701614138565b9094509250506020840135614570816154f7565b809150509250925092565b60008060008060808587031215614590578182fd5b84516001600160401b03808211156145a6578384fd5b818701915087601f8301126145b9578384fd5b815160206145c96141088361548d565b82815281810190858301838502870184018d10156145e5578889fd5b8896505b848710156146105780516145fc816154f7565b8352600196909601959183019183016145e9565b50918a0151919850909350505080821115614629578384fd5b50614636878288016141f0565b9350506146456040860161428a565b6060959095015193969295505050565b600080600080600060a0868803121561466c578283fd5b85356001600160401b0380821115614682578485fd5b818801915088601f830112614695578485fd5b813560206146a56141088361548d565b82815281810190858301838502870184018e10156146c157898afd5b8996505b848710156146ec5780356146d8816154f7565b8352600196909601959183019183016146c5565b5099506146fc90508a82016142f3565b9750505061470c604089016142f3565b945061471a6060890161427f565b9350608088013591508082111561472f578283fd5b5061473c88828901614179565b9150509295509295909350565b60006020828403121561475a578081fd5b8151610d3b8161550c565b600060208284031215614776578081fd5b5035919050565b6000806040838503121561478f578182fd5b82359150602083013561436f816154f7565b600080604083850312156147b3578182fd5b50508035926020909101359150565b600080602083850312156147d4578182fd5b82356001600160401b038111156147e9578283fd5b61451b85828601614295565b600060208284031215614806578081fd5b5051919050565b60008060008060608587031215614822578182fd5b843593506020850135925060408501356001600160401b03811115614845578283fd5b61485187828801614295565b95989497509550505050565b600080600060608486031215614871578081fd5b505081359360208301359350604090920135919050565b60008060006060848603121561489c578081fd5b8351925060208401519150604084015190509250925092565b6000815180845260208085019450808401835b838110156148ed5781516001600160a01b0316875295820195908201906001016148c8565b509495945050505050565b600081518084526149108160208601602086016154cb565b601f01601f19169290920160200192915050565b60008284528282602086013780602084860101526020601f19601f85011685010190509392505050565b600082516149608184602087016154cb565b9190910192915050565b6001600160a01b0391909116815260200190565b600060018060a01b038089168352871515602084015260a060408401526149a960a084018789614924565b94811660608401529290921660809091015250949350505050565b6001600160a01b03929092168252602082015260400190565b6001600160a01b0392831681529116602082015260400190565b6001600160a01b039384168152919092166020820152604081019190915260600190565b600060018060a01b038088168352861515602084015260a06040840152614a4560a08401876148f8565b948116606084015292909216608090910152509392505050565b6001600160a01b0384168152604060208201819052600090613e3d9083018486614924565b600060208252610d3b60208301846148b5565b600060808252614aaa60808301876148b5565b6001600160801b03958616602084015293909416604082015290151560609091015292915050565b600060a08252614ae560a08301886148b5565b60206001600160801b038089168286015280881660408601525085151560608501528382036080850152818551808452828401915082838202850101838801865b83811015614b5457601f19878403018552614b428383516148f8565b94860194925090850190600101614b26565b50909c9b505050505050505050505050565b901515815260200190565b90815260200190565b600060208252612bfe602083018486614924565b600060208252610d3b60208301846148f8565b6020808252601c908201527f44414f436f6d6d69747465653a206661696c656420746f206275726e00000000604082015260600190565b6020808252601c908201527f44414f436f6d6d69747465653a20696e76616c69642071756f72756d00000000604082015260600190565b60208082526025908201527f44414f436f6d6d69747465653a20696e76616c6964206c617965723220636f6e6040820152641d1c9858dd60da1b606082015260800190565b60208082526023908201527f53746f726167655374617465436f6d6d69747465653a206e6f742061206d656d6040820152623132b960e91b606082015260800190565b60208082526028908201527f44414f436f6d6d69747465653a20696e76616c69642063616e6469646174652060408201526718dbdb9d1c9858dd60c21b606082015260800190565b6020808252601190820152701b9bdd08195b9bdd59da08185b5bdd5b9d607a1b604082015260600190565b60208082526026908201527f44414f436f6d6d69747465653a2071756f72756d20657863656564206d61782060408201526536b2b6b132b960d11b606082015260800190565b60208082526031908201527f44414f436f6d6d69747465653a206661696c656420746f207472616e73666572604082015270103a37b710333937b69031b932b0ba37b960791b606082015260800190565b60208082526031908201527f53746f726167655374617465436f6d6d69747465653a20696e76616c696420436040820152706f6d6d69747465654c32466163746f727960781b606082015260800190565b60208082526022908201527f44414f436f6d6d69747465653a20696e76616c6964206d656d62657220696e646040820152610caf60f31b606082015260800190565b6020808252601f908201527f54686973206163636f756e74206973206e6f7420612063616e64696461746500604082015260600190565b6020808252602a908201527f44414f436f6d6d69747465653a20796f7520646f6e2774206861766520636c6160408201526934b6b0b13632903a37b760b11b606082015260800190565b6020808252602b908201527f53746f726167655374617465436f6d6d69747465653a20696e76616c6964205360408201526a6569674d616e616765726560a81b606082015260800190565b6020808252601c908201527f44414f436f6d6d69747465653a20616c7265616479206d656d62657200000000604082015260600190565b60208082526030908201527f44414f436f6d6d69747465653a206465706c6f7965642063616e64696461746560408201526f436f6e7472616374206973207a65726f60801b606082015260800190565b60208082526028908201527f44414f436f6d6d69747465653a206d73672e73656e646572206973206e6f742060408201526730b71030b236b4b760c11b606082015260800190565b60208082526028908201527f44414f436f6d6d69747465653a2063616e206e6f74206578656375746520746860408201526765206167656e646160c01b606082015260800190565b60208082526030908201527f44414f436f6d6d69747465653a206661696c656420746f20726567697374657260408201526f416e644465706c6f79436f696e61676560801b606082015260800190565b6020808252602a908201527f44414f436f6d6d69747465653a206661696c656420746f2075706461746520736040820152696569676e696f7261676560b01b606082015260800190565b6020808252602d908201527f53746f726167655374617465436f6d6d69747465653a20696e76616c6964204c60408201526c6179657232526567697374727960981b606082015260800190565b6020808252601e908201527f44414f436f6d6d69747465653a20696e76616c6964206f70657261746f720000604082015260600190565b6020808252603a908201527f44414f436f6d6d69747465653a2073656e646572206973206e6f74207468652060408201527f63616e646964617465206f66207468697320636f6e7472616374000000000000606082015260800190565b6020808252602c908201527f53746f726167655374617465436f6d6d69747465653a204167656e64614d616e60408201526b61676572206973207a65726f60a01b606082015260800190565b60208082526029908201527f44414f436f6d6d69747465653a2063616e64696461746520616c7265616479206040820152681c9959da5cdd195c9960ba1b606082015260800190565b60208082526030908201527f44414f436f6d6d69747465653a2073656e646572206973206e6f74206120636160408201526f1b991a59185d194818dbdb9d1c9858dd60821b606082015260800190565b6020808252602a908201527f44414f436f6d6d69747465653a204661696c656420746f206578656375746520604082015269746865206167656e646160b01b606082015260800190565b6020808252603c908201527f44414f436f6d6d69747465653a20596f75206861766520746f2063616c6c206460408201527f656372656173654d61784d656d62657220746f20646563726561736500000000606082015260800190565b6020808252601a908201527f44414f436f6d6d69747465653a207a65726f2061646472657373000000000000604082015260600190565b60208082526030908201527f44414f436f6d6d69747465653a205468652063616e64696461746520616c726560408201526f18591e481a185cc818dbdb9d1c9858dd60821b606082015260800190565b81516001600160a01b03168152602080830151908201526040808301516001600160801b0390811691830191909152606080840151821690830152608092830151169181019190915260a00190565b9283526001600160a01b03919091166020830152604082015260600190565b828152604081016004831061542457fe5b8260208301529392505050565b828152604081016006831061542457fe5b600084825260406020830152613e3d604083018486614924565b918252602082015260400190565b6040518181016001600160401b038111828210171561548557fe5b604052919050565b60006001600160401b038211156154a057fe5b5060209081020190565b60006001600160401b038211156154bd57fe5b50601f01601f191660200190565b60005b838110156154e65781810151838201526020016154ce565b838111156130d55750506000910152565b6001600160a01b03811681146139a057600080fd5b80151581146139a057600080fdfe456e756d657261626c655365743a20696e646578206f7574206f6620626f756e6473416363657373436f6e74726f6c3a2073656e646572206d75737420626520616e2061646d696e20746f206772616e74416363657373436f6e74726f6c3a2073656e646572206d75737420626520616e2061646d696e20746f207265766f6b65663b98adf1afa777e36528b3293a057803f87ed00d2d2518dccfe5d7a6e99ccf536166654d6174683a206d756c7469706c69636174696f6e206f766572666c6f77416363657373436f6e74726f6c3a2063616e206f6e6c792072656e6f756e636520726f6c657320666f722073656c66a2646970667358221220f0b6599afd28cb7796d88f66a18e480acf363b96c806b7730d3f35701d1322fe64736f6c63430007060033",
  "immutableReferences": {},
  "source": "// SPDX-License-Identifier: MIT\npragma solidity ^0.7.6;\npragma abicoder v2;\n\nimport \"../../node_modules/@openzeppelin/contracts/access/AccessControl.sol\";\nimport \"./StorageStateCommittee.sol\";\n\nimport { SafeMath } from \"../../node_modules/@openzeppelin/contracts/math/SafeMath.sol\";\nimport { IERC20 } from  \"../../node_modules/@openzeppelin/contracts/token/ERC20/IERC20.sol\";\nimport { IDAOCommittee } from \"../interfaces/IDAOCommittee.sol\";\nimport { ICandidate } from \"../interfaces/ICandidate.sol\";\nimport { ILayer2 } from \"../interfaces/ILayer2.sol\";\nimport { IDAOAgendaManager } from \"../interfaces/IDAOAgendaManager.sol\";\nimport { LibAgenda } from \"../lib/Agenda.sol\";\nimport { ERC165Checker } from \"../../node_modules/@openzeppelin/contracts/introspection/ERC165Checker.sol\";\n\ncontract DAOCommittee is StorageStateCommittee, AccessControl, IDAOCommittee {\n    using SafeMath for uint256;\n    using LibAgenda for *;\n     \n    enum ApplyResult { NONE, SUCCESS, NOT_ELECTION, ALREADY_COMMITTEE, SLOT_INVALID, ADDMEMBER_FAIL, LOW_BALANCE }\n\n    struct AgendaCreatingData {\n        address[] target;\n        uint128 noticePeriodSeconds;\n        uint128 votingPeriodSeconds;\n        bool atomicExecute;\n        bytes[] functionBytecode;\n    }\n\n    //////////////////////////////\n    // Events\n    //////////////////////////////\n\n    event QuorumChanged(\n        uint256 newQuorum\n    );\n\n    event AgendaCreated(\n        address indexed from,\n        uint256 indexed id,\n        address[] targets,\n        uint128 noticePeriodSeconds,\n        uint128 votingPeriodSeconds,\n        bool atomicExecute\n    );\n\n    event AgendaVoteCasted(\n        address indexed from,\n        uint256 indexed id,\n        uint256 voting,\n        string comment\n    );\n\n    event AgendaExecuted(\n        uint256 indexed id,\n        address[] target\n    );\n\n    event CandidateContractCreated(\n        address indexed candidate,\n        address indexed candidateContract,\n        string memo\n    );\n\n    event Layer2Registered(\n        address indexed candidate,\n        address indexed candidateContract,\n        string memo\n    );\n\n    event ChangedMember(\n        uint256 indexed slotIndex,\n        address prevMember,\n        address indexed newMember\n    );\n\n    event ChangedSlotMaximum(\n        uint256 indexed prevSlotMax,\n        uint256 indexed slotMax\n    );\n\n    event ClaimedActivityReward(\n        address indexed candidate,\n        address receiver,\n        uint256 amount\n    );\n\n    event ChangedMemo(\n        address candidate,\n        string newMemo\n    );\n\n    event ActivityRewardChanged(\n        uint256 newReward\n    );\n    \n    modifier onlyOwner() {\n        require(hasRole(DEFAULT_ADMIN_ROLE, msg.sender), \"DAOCommittee: msg.sender is not an admin\");\n        _;\n    }\n\n    modifier validMemberIndex(uint256 _index) {\n        require(_index < maxMember, \"DAOCommittee: invalid member index\");\n        _;\n    }\n\n    modifier nonZero(address _addr) {\n        require(_addr != address(0), \"DAOCommittee: zero address\");\n        _;\n    }\n\n    //////////////////////////////////////////////////////////////////////\n    // setters\n\n    /// @notice Set SeigManager contract address\n    /// @param _seigManager New SeigManager contract address\n    function setSeigManager(address _seigManager) external override onlyOwner nonZero(_seigManager) {\n        seigManager = ISeigManager(_seigManager);\n    }\n     \n    /// @notice Set SeigManager contract address on candidate contracts\n    /// @param _candidateContracts Candidate contracts to be set\n    /// @param _seigManager New SeigManager contract address\n    function setCandidatesSeigManager(\n        address[] calldata _candidateContracts,\n        address _seigManager\n    )\n        external\n        override\n        onlyOwner\n        nonZero(_seigManager)\n    {\n        for (uint256 i = 0; i < _candidateContracts.length; i++) {\n            ICandidate(_candidateContracts[i]).setSeigManager(_seigManager);\n        }\n    }\n\n    /// @notice Set DAOCommitteeProxy contract address on candidate contracts\n    /// @param _candidateContracts Candidate contracts to be set\n    /// @param _committee New DAOCommitteeProxy contract address\n    function setCandidatesCommittee(\n        address[] calldata _candidateContracts,\n        address _committee\n    )\n        external\n        override\n        onlyOwner\n        nonZero(_committee)\n    {\n        for (uint256 i = 0; i < _candidateContracts.length; i++) {\n            ICandidate(_candidateContracts[i]).setCommittee(_committee);\n        }\n    }\n\n    /// @notice Set DAOVault contract address\n    /// @param _daoVault New DAOVault contract address\n    function setDaoVault(address _daoVault) external override onlyOwner nonZero(_daoVault) {\n        daoVault = IDAOVault(_daoVault);\n    }\n\n    /// @notice Set Layer2Registry contract address\n    /// @param _layer2Registry New Layer2Registry contract address\n    function setLayer2Registry(address _layer2Registry) external override onlyOwner nonZero(_layer2Registry) {\n        layer2Registry = ILayer2Registry(_layer2Registry);\n    }\n\n    /// @notice Set DAOAgendaManager contract address\n    /// @param _agendaManager New DAOAgendaManager contract address\n    function setAgendaManager(address _agendaManager) external override onlyOwner nonZero(_agendaManager) {\n        agendaManager = IDAOAgendaManager(_agendaManager);\n    }\n\n    /// @notice Set CandidateFactory contract address\n    /// @param _candidateFactory New CandidateFactory contract address\n    function setCandidateFactory(address _candidateFactory) external override onlyOwner nonZero(_candidateFactory) {\n        candidateFactory = ICandidateFactory(_candidateFactory);\n    }\n\n    /// @notice Set TON contract address\n    /// @param _ton New TON contract address\n    function setTon(address _ton) external override onlyOwner nonZero(_ton) {\n        ton = _ton;\n    }\n\n    /// @notice Set activity reward amount\n    /// @param _value New activity reward per second\n    function setActivityRewardPerSecond(uint256 _value) external override onlyOwner {\n        activityRewardPerSecond = _value;\n        emit ActivityRewardChanged(_value);\n    }\n\n    /// @notice Increases the number of member slot\n    /// @param _newMaxMember New number of member slot\n    /// @param _quorum New quorum\n    function increaseMaxMember(\n        uint256 _newMaxMember,\n        uint256 _quorum\n    )\n        external\n        override\n        onlyOwner\n    {\n        require(maxMember < _newMaxMember, \"DAOCommittee: You have to call decreaseMaxMember to decrease\");\n        uint256 prevMaxMember = maxMember;\n        maxMember = _newMaxMember;\n        fillMemberSlot();\n        setQuorum(_quorum);\n        emit ChangedSlotMaximum(prevMaxMember, _newMaxMember);\n    }\n\n    //////////////////////////////////////////////////////////////////////\n    // Managing members\n\n    /// @notice Creates a candidate contract and register it on SeigManager\n    /// @param _memo A memo for the candidate\n    function createCandidate(string calldata _memo)\n        external\n        override\n        validSeigManager\n        validLayer2Registry\n        validCommitteeL2Factory\n    {\n        require(!isExistCandidate(msg.sender), \"DAOCommittee: candidate already registerd\");\n\n        // Candidate\n        address candidateContract = candidateFactory.deploy(\n            msg.sender,\n            false,\n            _memo,\n            address(this),\n            address(seigManager)\n        );\n\n        require(\n            candidateContract != address(0),\n            \"DAOCommittee: deployed candidateContract is zero\"\n        );\n        require(\n            _candidateInfos[msg.sender].candidateContract == address(0),\n            \"DAOCommittee: The candidate already has contract\"\n        );\n        require(\n            layer2Registry.registerAndDeployCoinage(candidateContract, address(seigManager)),\n            \"DAOCommittee: failed to registerAndDeployCoinage\"\n        );\n\n        _candidateInfos[msg.sender] = CandidateInfo({\n            candidateContract: candidateContract,\n            memberJoinedTime: 0,\n            indexMembers: 0,\n            rewardPeriod: 0,\n            claimedTimestamp: 0\n        });\n\n        candidates.push(msg.sender);\n       \n        emit CandidateContractCreated(msg.sender, candidateContract, _memo);\n    }\n\n    /// @notice Registers the exist layer2 on DAO\n    /// @param _layer2 Layer2 contract address to be registered\n    /// @param _memo A memo for the candidate\n    function registerLayer2Candidate(address _layer2, string memory _memo)\n        external\n        override\n        validSeigManager\n        validLayer2Registry\n        validCommitteeL2Factory\n    {\n        _registerLayer2Candidate(msg.sender, _layer2, _memo);\n    }\n\n    /// @notice Registers the exist layer2 on DAO by owner\n    /// @param _operator Operator address of the layer2 contract\n    /// @param _layer2 Layer2 contract address to be registered\n    /// @param _memo A memo for the candidate\n    function registerLayer2CandidateByOwner(address _operator, address _layer2, string memory _memo)\n        external\n        override\n        onlyOwner\n        validSeigManager\n        validLayer2Registry\n        validCommitteeL2Factory\n    {\n        _registerLayer2Candidate(_operator, _layer2, _memo);\n    }\n\n    /// @notice Replaces an existing member\n    /// @param _memberIndex The member slot index to be replaced\n    /// @return Whether or not the execution succeeded\n    function changeMember(\n        uint256 _memberIndex\n    )\n        external\n        override\n        validMemberIndex(_memberIndex)\n        returns (bool)\n    {\n        address newMember = ICandidate(msg.sender).candidate();\n        CandidateInfo storage candidateInfo = _candidateInfos[newMember];\n        require(\n            ICandidate(msg.sender).isCandidateContract(),\n            \"DAOCommittee: sender is not a candidate contract\"\n        );\n        require(\n            candidateInfo.candidateContract == msg.sender,\n            \"DAOCommittee: invalid candidate contract\"\n        );\n        require(\n            candidateInfo.memberJoinedTime == 0,\n            \"DAOCommittee: already member\"\n        );\n        \n        address prevMember = members[_memberIndex];\n        address prevMemberContract = candidateContract(prevMember);\n\n        candidateInfo.memberJoinedTime = uint128(block.timestamp);\n        candidateInfo.indexMembers = _memberIndex;\n\n        members[_memberIndex] = newMember;\n\n        if (prevMember == address(0)) {\n            emit ChangedMember(_memberIndex, prevMember, newMember);\n            return true;\n        }\n\n        require(\n            ICandidate(msg.sender).totalStaked() > ICandidate(prevMemberContract).totalStaked(),\n            \"not enough amount\"\n        );\n\n        CandidateInfo storage prevCandidateInfo = _candidateInfos[prevMember];\n        prevCandidateInfo.indexMembers = 0;\n        prevCandidateInfo.rewardPeriod = uint128(uint256(prevCandidateInfo.rewardPeriod).add(block.timestamp.sub(prevCandidateInfo.memberJoinedTime)));\n        prevCandidateInfo.memberJoinedTime = 0;\n\n        emit ChangedMember(_memberIndex, prevMember, newMember);\n\n        return true;\n    }\n    \n    /// @notice Retires member\n    /// @return Whether or not the execution succeeded\n    function retireMember() onlyMemberContract external override returns (bool) {\n        address candidate = ICandidate(msg.sender).candidate();\n        CandidateInfo storage candidateInfo = _candidateInfos[candidate];\n        require(\n            candidateInfo.candidateContract == msg.sender,\n            \"DAOCommittee: invalid candidate contract\"\n        );\n        members[candidateInfo.indexMembers] = address(0);\n        candidateInfo.rewardPeriod = uint128(uint256(candidateInfo.rewardPeriod).add(block.timestamp.sub(candidateInfo.memberJoinedTime)));\n        candidateInfo.memberJoinedTime = 0;\n\n        uint256 prevIndex = candidateInfo.indexMembers;\n        candidateInfo.indexMembers = 0;\n        emit ChangedMember(prevIndex, candidate, address(0));\n\n        return true;\n    }\n\n    /// @notice Set memo\n    /// @param _candidate candidate address\n    /// @param _memo New memo on this candidate\n    function setMemoOnCandidate(\n        address _candidate,\n        string calldata _memo\n    )\n        external\n        override\n    {\n        address candidateContract = candidateContract(_candidate);\n        setMemoOnCandidateContract(candidateContract, _memo);\n    }\n\n    /// @notice Set memo\n    /// @param _candidateContract candidate contract address\n    /// @param _memo New memo on this candidate\n    function setMemoOnCandidateContract(\n        address _candidateContract,\n        string calldata _memo\n    )\n        public\n        override\n    {\n        address candidate = ICandidate(_candidateContract).candidate();\n        address contractOwner = candidate;\n        if (ICandidate(_candidateContract).isLayer2Candidate()) {\n            contractOwner = ILayer2(candidate).operator();\n        }\n        require(\n            msg.sender == contractOwner,\n            \"DAOCommittee: sender is not the candidate of this contract\"\n        );\n\n        ICandidate(_candidateContract).setMemo(_memo);\n        emit ChangedMemo(candidate, _memo);\n    }\n\n    /// @notice Decreases the number of member slot\n    /// @param _reducingMemberIndex Reducing member slot index\n    /// @param _quorum New quorum\n    function decreaseMaxMember(\n        uint256 _reducingMemberIndex,\n        uint256 _quorum\n    )\n        external\n        override\n        onlyOwner\n        validMemberIndex(_reducingMemberIndex)\n    {\n        address reducingMember = members[_reducingMemberIndex];\n        CandidateInfo storage reducingCandidate = _candidateInfos[reducingMember];\n\n        if (_reducingMemberIndex != members.length - 1) {\n            address tailmember = members[members.length - 1];\n            CandidateInfo storage tailCandidate = _candidateInfos[tailmember];\n\n            tailCandidate.indexMembers = _reducingMemberIndex;\n            members[_reducingMemberIndex] = tailmember;\n        }\n        reducingCandidate.indexMembers = 0;\n        reducingCandidate.rewardPeriod = uint128(uint256(reducingCandidate.rewardPeriod).add(block.timestamp.sub(reducingCandidate.memberJoinedTime)));\n        reducingCandidate.memberJoinedTime = 0;\n\n        members.pop();\n        maxMember = maxMember.sub(1);\n        setQuorum(_quorum);\n\n        emit ChangedMember(_reducingMemberIndex, reducingMember, address(0));\n        emit ChangedSlotMaximum(maxMember.add(1), maxMember);\n    }\n\n    //////////////////////////////////////////////////////////////////////\n    // Managing agenda\n\n    function onApprove(\n        address owner,\n        address spender,\n        uint256 tonAmount,\n        bytes calldata data\n    ) external override returns (bool) {\n        AgendaCreatingData memory agendaData = _decodeAgendaData(data);\n\n        _createAgenda(\n            owner,\n            agendaData.target,\n            agendaData.noticePeriodSeconds,\n            agendaData.votingPeriodSeconds,\n            agendaData.atomicExecute,\n            agendaData.functionBytecode\n        );\n\n        return true;\n    }\n\n    /// @notice Set new quorum\n    /// @param _quorum New quorum\n    function setQuorum(\n        uint256 _quorum\n    )\n        public\n        override\n        onlyOwner\n        validAgendaManager\n    {\n        require(_quorum > maxMember.div(2), \"DAOCommittee: invalid quorum\");\n        require(_quorum <= maxMember, \"DAOCommittee: quorum exceed max member\");\n        quorum = _quorum;\n        emit QuorumChanged(quorum);\n    }\n\n    /// @notice Set fee amount of creating an agenda\n    /// @param _fees Fee amount on TON\n    function setCreateAgendaFees(\n        uint256 _fees\n    )\n        external\n        override\n        onlyOwner\n        validAgendaManager\n    {\n        agendaManager.setCreateAgendaFees(_fees);\n    }\n\n    /// @notice Set the minimum notice period\n    /// @param _minimumNoticePeriod New minimum notice period in second\n    function setMinimumNoticePeriodSeconds(\n        uint256 _minimumNoticePeriod\n    )\n        external\n        override\n        onlyOwner\n        validAgendaManager\n    {\n        agendaManager.setMinimumNoticePeriodSeconds(_minimumNoticePeriod);\n    }\n\n    /// @notice Set the minimum voting period\n    /// @param _minimumVotingPeriod New minimum voting period in second\n    function setMinimumVotingPeriodSeconds(\n        uint256 _minimumVotingPeriod\n    )\n        external\n        override\n        onlyOwner\n        validAgendaManager\n    {\n        agendaManager.setMinimumVotingPeriodSeconds(_minimumVotingPeriod);\n    }\n\n    /// @notice Set the executing period\n    /// @param _executingPeriodSeconds New executing period in second\n    function setExecutingPeriodSeconds(\n        uint256 _executingPeriodSeconds\n    )\n        external\n        override\n        onlyOwner\n        validAgendaManager\n    {\n        agendaManager.setExecutingPeriodSeconds(_executingPeriodSeconds);\n    }\n\n    /// @notice Vote on an agenda\n    /// @param _agendaID The agenda ID\n    /// @param _vote voting type\n    /// @param _comment voting comment\n    function castVote(\n        uint256 _agendaID,\n        uint256 _vote,\n        string calldata _comment\n    )\n        external \n        override\n        validAgendaManager\n    {\n        address candidate = ICandidate(msg.sender).candidate();\n        CandidateInfo storage candidateInfo = _candidateInfos[candidate];\n        require(\n            candidateInfo.candidateContract == msg.sender,\n            \"DAOCommittee: invalid candidate contract\"\n        );\n        \n        agendaManager.castVote(\n            _agendaID,\n            candidate,\n            _vote\n        );\n\n        (uint256 yes, uint256 no, uint256 abstain) = agendaManager.getVotingCount(_agendaID);\n\n        if (quorum <= yes) {\n            // yes\n            agendaManager.setResult(_agendaID, LibAgenda.AgendaResult.ACCEPT);\n            agendaManager.setStatus(_agendaID, LibAgenda.AgendaStatus.WAITING_EXEC);\n        } else if (quorum <= no) {\n            // no\n            agendaManager.setResult(_agendaID, LibAgenda.AgendaResult.REJECT);\n            agendaManager.setStatus(_agendaID, LibAgenda.AgendaStatus.ENDED);\n        } else if (quorum <= abstain.add(no) ) {\n            // dismiss\n            agendaManager.setResult(_agendaID, LibAgenda.AgendaResult.DISMISS);\n            agendaManager.setStatus(_agendaID, LibAgenda.AgendaStatus.ENDED);\n        }\n        \n        emit AgendaVoteCasted(msg.sender, _agendaID, _vote, _comment);\n    }\n\n    /// @notice Set the agenda status as ended(denied or dismissed)\n    /// @param _agendaID Agenda ID\n    function endAgendaVoting(uint256 _agendaID) external override {\n        agendaManager.endAgendaVoting(_agendaID);\n    }\n\n    /// @notice Execute the accepted agenda\n    /// @param _agendaID Agenda ID\n    function executeAgenda(uint256 _agendaID) external override validAgendaManager {\n        require(\n            agendaManager.canExecuteAgenda(_agendaID),\n            \"DAOCommittee: can not execute the agenda\"\n        );\n        \n         (address[] memory target,\n             bytes[] memory functionBytecode,\n             bool atomicExecute,\n             uint256 executeStartFrom\n         ) = agendaManager.getExecutionInfo(_agendaID);\n       \n        if (atomicExecute) {\n            agendaManager.setExecutedAgenda(_agendaID);\n            for (uint256 i = 0; i < target.length; i++) {\n                (bool success, ) = address(target[i]).call(functionBytecode[i]);\n                require(success, \"DAOCommittee: Failed to execute the agenda\");\n            }\n        } else {\n            uint256 succeeded = 0;\n            for (uint256 i = executeStartFrom; i < target.length; i++) {\n                bool success = _call(target[i], functionBytecode[i].length, functionBytecode[i]);\n                if (success) {\n                    succeeded = succeeded.add(1);\n                } else {\n                    break;\n                }\n            }\n\n            agendaManager.setExecutedCount(_agendaID, succeeded);\n            if (executeStartFrom.add(succeeded) == target.length) {\n                agendaManager.setExecutedAgenda(_agendaID);\n            }\n        }\n\n        emit AgendaExecuted(_agendaID, target);\n    }\n\n    /// @notice Set status and result of specific agenda\n    /// @param _agendaID Agenda ID\n    /// @param _status New status\n    /// @param _result New result\n    function setAgendaStatus(uint256 _agendaID, uint256 _status, uint256 _result) external override onlyOwner {\n        agendaManager.setResult(_agendaID, LibAgenda.AgendaResult(_result));\n        agendaManager.setStatus(_agendaID, LibAgenda.AgendaStatus(_status));\n    }\n     \n    /// @notice Call updateSeigniorage on SeigManager\n    /// @param _candidate Candidate address to be updated\n    /// @return Whether or not the execution succeeded\n    function updateSeigniorage(address _candidate) public override returns (bool) {\n        address candidateContract = _candidateInfos[_candidate].candidateContract;\n        return ICandidate(candidateContract).updateSeigniorage();\n    }\n\n    /// @notice Call updateSeigniorage on SeigManager\n    /// @param _candidates Candidate addresses to be updated\n    /// @return Whether or not the execution succeeded\n    function updateSeigniorages(address[] calldata _candidates) external override returns (bool) {\n        for (uint256 i = 0; i < _candidates.length; i++) {\n            require(\n                updateSeigniorage(_candidates[i]),\n                \"DAOCommittee: failed to update seigniorage\"\n            );\n        }\n\n        return true;\n    }\n\n    /// @notice Claims the activity reward for member\n    function claimActivityReward(address _receiver) external override {\n        address candidate = ICandidate(msg.sender).candidate();\n        CandidateInfo storage candidateInfo = _candidateInfos[candidate];\n        require(\n            candidateInfo.candidateContract == msg.sender,\n            \"DAOCommittee: invalid candidate contract\"\n        );\n\n        uint256 amount = getClaimableActivityReward(candidate);\n        require(amount > 0, \"DAOCommittee: you don't have claimable ton\");\n\n        daoVault.claimTON(_receiver, amount);\n        candidateInfo.claimedTimestamp = uint128(block.timestamp);\n        candidateInfo.rewardPeriod = 0;\n\n        emit ClaimedActivityReward(candidate, _receiver, amount);\n    }\n\n    function _registerLayer2Candidate(address _operator, address _layer2, string memory _memo)\n        internal\n        validSeigManager\n        validLayer2Registry\n        validCommitteeL2Factory\n    {\n        require(!isExistCandidate(_layer2), \"DAOCommittee: candidate already registerd\");\n\n        require(\n            _layer2 != address(0),\n            \"DAOCommittee: deployed candidateContract is zero\"\n        );\n        require(\n            _candidateInfos[_layer2].candidateContract == address(0),\n            \"DAOCommittee: The candidate already has contract\"\n        );\n        ILayer2 layer2 = ILayer2(_layer2);\n        require(\n            layer2.isLayer2(),\n            \"DAOCommittee: invalid layer2 contract\"\n        );\n        require(\n            layer2.operator() == _operator,\n            \"DAOCommittee: invalid operator\"\n        );\n\n        address candidateContract = candidateFactory.deploy(\n            _layer2,\n            true,\n            _memo,\n            address(this),\n            address(seigManager)\n        );\n\n        require(\n            candidateContract != address(0),\n            \"DAOCommittee: deployed candidateContract is zero\"\n        );\n\n        _candidateInfos[_layer2] = CandidateInfo({\n            candidateContract: candidateContract,\n            memberJoinedTime: 0,\n            indexMembers: 0,\n            rewardPeriod: 0,\n            claimedTimestamp: 0\n        });\n\n        candidates.push(_layer2);\n       \n        emit Layer2Registered(_layer2, candidateContract, _memo);\n    }\n\n    function fillMemberSlot() internal {\n        for (uint256 i = members.length; i < maxMember; i++) {\n            members.push(address(0));\n        }\n    }\n\n    function _decodeAgendaData(bytes calldata input)\n        internal\n        view\n        returns (AgendaCreatingData memory data)\n    {\n        (data.target, data.noticePeriodSeconds, data.votingPeriodSeconds, data.atomicExecute, data.functionBytecode) = \n            abi.decode(input, (address[], uint128, uint128, bool, bytes[]));\n    }\n\n    function payCreatingAgendaFee(address _creator) internal {\n        uint256 fee = agendaManager.createAgendaFees();\n\n        require(IERC20(ton).transferFrom(_creator, address(this), fee), \"DAOCommittee: failed to transfer ton from creator\");\n        require(IERC20(ton).transfer(address(1), fee), \"DAOCommittee: failed to burn\");\n    }\n   \n    function _createAgenda(\n        address _creator,\n        address[] memory _targets,\n        uint128 _noticePeriodSeconds,\n        uint128 _votingPeriodSeconds,\n        bool _atomicExecute,\n        bytes[] memory _functionBytecodes\n    )\n        internal\n        validAgendaManager\n        returns (uint256)\n    {\n        // pay to create agenda, burn ton.\n        payCreatingAgendaFee(_creator);\n\n        uint256 agendaID = agendaManager.newAgenda(\n            _targets,\n            _noticePeriodSeconds,\n            _votingPeriodSeconds,\n            _atomicExecute,\n            _functionBytecodes\n        );\n          \n        emit AgendaCreated(\n            _creator,\n            agendaID,\n            _targets,\n            _noticePeriodSeconds,\n            _votingPeriodSeconds,\n            _atomicExecute\n        );\n\n        return agendaID;\n    }\n\n    function _call(address target, uint256 paramLength, bytes memory param) internal returns (bool) {\n        bool result;\n        assembly {\n            let data := add(param, 32)\n            result := call(sub(gas(), 40000), target, 0, data, paramLength, 0, 0)\n        }\n\n        return result;\n    }\n\n    function isCandidate(address _candidate) external view override returns (bool) {\n        CandidateInfo storage info = _candidateInfos[_candidate];\n\n        if (info.candidateContract == address(0)) {\n            return false;\n        }\n\n        bool supportIsCandidateContract = ERC165Checker.supportsInterface(\n            info.candidateContract,\n            ICandidate(info.candidateContract).isCandidateContract.selector\n        );\n\n        if (supportIsCandidateContract == false) {\n            return false;\n        }\n\n        return ICandidate(info.candidateContract).isCandidateContract();\n    }\n    \n    function totalSupplyOnCandidate(\n        address _candidate\n    )\n        external\n        override\n        view\n        returns (uint256 totalsupply)\n    {\n        address candidateContract = candidateContract(_candidate);\n        return totalSupplyOnCandidateContract(candidateContract);\n    }\n\n    function balanceOfOnCandidate(\n        address _candidate,\n        address _account\n    )\n        external\n        override\n        view\n        returns (uint256 amount)\n    {\n        address candidateContract = candidateContract(_candidate);\n        return balanceOfOnCandidateContract(candidateContract, _account);\n    }\n    \n    function totalSupplyOnCandidateContract(\n        address _candidateContract\n    )\n        public\n        override\n        view\n        returns (uint256 totalsupply)\n    {\n        require(_candidateContract != address(0), \"This account is not a candidate\");\n\n        return ICandidate(_candidateContract).totalStaked();\n    }\n\n    function balanceOfOnCandidateContract(\n        address _candidateContract,\n        address _account\n    )\n        public\n        override\n        view\n        returns (uint256 amount)\n    {\n        require(_candidateContract != address(0), \"This account is not a candidate\");\n\n        return ICandidate(_candidateContract).stakedOf(_account);\n    }\n\n    function candidatesLength() external view override returns (uint256) {\n        return candidates.length;\n    }\n\n    function isExistCandidate(address _candidate) public view override returns (bool isExist) {\n        return _candidateInfos[_candidate].candidateContract != address(0);\n    }\n\n    function getClaimableActivityReward(address _candidate) public view override returns (uint256) {\n        CandidateInfo storage info = _candidateInfos[_candidate];\n        uint256 period = info.rewardPeriod;\n\n        if (info.memberJoinedTime > 0) {\n            if (info.memberJoinedTime > info.claimedTimestamp) {\n                period = period.add(block.timestamp.sub(info.memberJoinedTime));\n            } else {\n                period = period.add(block.timestamp.sub(info.claimedTimestamp));\n            }\n        }\n\n        return period.mul(activityRewardPerSecond);\n    }\n}\n",
  "sourcePath": "/data/github/onther/tokamak-dao-contracts3/contracts/dao/DAOCommittee.sol",
  "compiler": {
    "name": "solc",
    "version": "0.7.6+commit.7338295f.Emscripten.clang"
  },
  "schemaVersion": "3.3.2",
  "updatedAt": "2021-02-26T01:25:11.039Z",
  "networkType": "ethereum",
  "devdoc": {
    "kind": "dev",
    "methods": {
      "castVote(uint256,uint256,string)": {
        "params": {
          "_agendaID": "The agenda ID",
          "_comment": "voting comment",
          "_vote": "voting type"
        }
      },
      "changeMember(uint256)": {
        "params": {
          "_memberIndex": "The member slot index to be replaced"
        },
        "returns": {
          "_0": "Whether or not the execution succeeded"
        }
      },
      "createCandidate(string)": {
        "params": {
          "_memo": "A memo for the candidate"
        }
      },
      "decreaseMaxMember(uint256,uint256)": {
        "params": {
          "_quorum": "New quorum",
          "_reducingMemberIndex": "Reducing member slot index"
        }
      },
      "endAgendaVoting(uint256)": {
        "params": {
          "_agendaID": "Agenda ID"
        }
      },
      "executeAgenda(uint256)": {
        "params": {
          "_agendaID": "Agenda ID"
        }
      },
      "getRoleAdmin(bytes32)": {
        "details": "Returns the admin role that controls `role`. See {grantRole} and {revokeRole}. To change a role's admin, use {_setRoleAdmin}."
      },
      "getRoleMember(bytes32,uint256)": {
        "details": "Returns one of the accounts that have `role`. `index` must be a value between 0 and {getRoleMemberCount}, non-inclusive. Role bearers are not sorted in any particular way, and their ordering may change at any point. WARNING: When using {getRoleMember} and {getRoleMemberCount}, make sure you perform all queries on the same block. See the following https://forum.openzeppelin.com/t/iterating-over-elements-on-enumerableset-in-openzeppelin-contracts/2296[forum post] for more information."
      },
      "getRoleMemberCount(bytes32)": {
        "details": "Returns the number of accounts that have `role`. Can be used together with {getRoleMember} to enumerate all bearers of a role."
      },
      "grantRole(bytes32,address)": {
        "details": "Grants `role` to `account`. If `account` had not been already granted `role`, emits a {RoleGranted} event. Requirements: - the caller must have ``role``'s admin role."
      },
      "hasRole(bytes32,address)": {
        "details": "Returns `true` if `account` has been granted `role`."
      },
      "increaseMaxMember(uint256,uint256)": {
        "params": {
          "_newMaxMember": "New number of member slot",
          "_quorum": "New quorum"
        }
      },
      "registerLayer2Candidate(address,string)": {
        "params": {
          "_layer2": "Layer2 contract address to be registered",
          "_memo": "A memo for the candidate"
        }
      },
      "registerLayer2CandidateByOwner(address,address,string)": {
        "params": {
          "_layer2": "Layer2 contract address to be registered",
          "_memo": "A memo for the candidate",
          "_operator": "Operator address of the layer2 contract"
        }
      },
      "renounceRole(bytes32,address)": {
        "details": "Revokes `role` from the calling account. Roles are often managed via {grantRole} and {revokeRole}: this function's purpose is to provide a mechanism for accounts to lose their privileges if they are compromised (such as when a trusted device is misplaced). If the calling account had been granted `role`, emits a {RoleRevoked} event. Requirements: - the caller must be `account`."
      },
      "retireMember()": {
        "returns": {
          "_0": "Whether or not the execution succeeded"
        }
      },
      "revokeRole(bytes32,address)": {
        "details": "Revokes `role` from `account`. If `account` had been granted `role`, emits a {RoleRevoked} event. Requirements: - the caller must have ``role``'s admin role."
      },
      "setActivityRewardPerSecond(uint256)": {
        "params": {
          "_value": "New activity reward per second"
        }
      },
      "setAgendaManager(address)": {
        "params": {
          "_agendaManager": "New DAOAgendaManager contract address"
        }
      },
      "setAgendaStatus(uint256,uint256,uint256)": {
        "params": {
          "_agendaID": "Agenda ID",
          "_result": "New result",
          "_status": "New status"
        }
      },
      "setCandidateFactory(address)": {
        "params": {
          "_candidateFactory": "New CandidateFactory contract address"
        }
      },
      "setCandidatesCommittee(address[],address)": {
        "params": {
          "_candidateContracts": "Candidate contracts to be set",
          "_committee": "New DAOCommitteeProxy contract address"
        }
      },
      "setCandidatesSeigManager(address[],address)": {
        "params": {
          "_candidateContracts": "Candidate contracts to be set",
          "_seigManager": "New SeigManager contract address"
        }
      },
      "setCreateAgendaFees(uint256)": {
        "params": {
          "_fees": "Fee amount on TON"
        }
      },
      "setDaoVault(address)": {
        "params": {
          "_daoVault": "New DAOVault contract address"
        }
      },
      "setExecutingPeriodSeconds(uint256)": {
        "params": {
          "_executingPeriodSeconds": "New executing period in second"
        }
      },
      "setLayer2Registry(address)": {
        "params": {
          "_layer2Registry": "New Layer2Registry contract address"
        }
      },
      "setMemoOnCandidate(address,string)": {
        "params": {
          "_candidate": "candidate address",
          "_memo": "New memo on this candidate"
        }
      },
      "setMemoOnCandidateContract(address,string)": {
        "params": {
          "_candidateContract": "candidate contract address",
          "_memo": "New memo on this candidate"
        }
      },
      "setMinimumNoticePeriodSeconds(uint256)": {
        "params": {
          "_minimumNoticePeriod": "New minimum notice period in second"
        }
      },
      "setMinimumVotingPeriodSeconds(uint256)": {
        "params": {
          "_minimumVotingPeriod": "New minimum voting period in second"
        }
      },
      "setQuorum(uint256)": {
        "params": {
          "_quorum": "New quorum"
        }
      },
      "setSeigManager(address)": {
        "params": {
          "_seigManager": "New SeigManager contract address"
        }
      },
      "setTon(address)": {
        "params": {
          "_ton": "New TON contract address"
        }
      },
      "updateSeigniorage(address)": {
        "params": {
          "_candidate": "Candidate address to be updated"
        },
        "returns": {
          "_0": "Whether or not the execution succeeded"
        }
      },
      "updateSeigniorages(address[])": {
        "params": {
          "_candidates": "Candidate addresses to be updated"
        },
        "returns": {
          "_0": "Whether or not the execution succeeded"
        }
      }
    },
    "version": 1
  },
  "userdoc": {
    "kind": "user",
    "methods": {
      "castVote(uint256,uint256,string)": {
        "notice": "Vote on an agenda"
      },
      "changeMember(uint256)": {
        "notice": "Replaces an existing member"
      },
      "claimActivityReward(address)": {
        "notice": "Claims the activity reward for member"
      },
      "createCandidate(string)": {
        "notice": "Creates a candidate contract and register it on SeigManager"
      },
      "decreaseMaxMember(uint256,uint256)": {
        "notice": "Decreases the number of member slot"
      },
      "endAgendaVoting(uint256)": {
        "notice": "Set the agenda status as ended(denied or dismissed)"
      },
      "executeAgenda(uint256)": {
        "notice": "Execute the accepted agenda"
      },
      "increaseMaxMember(uint256,uint256)": {
        "notice": "Increases the number of member slot"
      },
      "registerLayer2Candidate(address,string)": {
        "notice": "Registers the exist layer2 on DAO"
      },
      "registerLayer2CandidateByOwner(address,address,string)": {
        "notice": "Registers the exist layer2 on DAO by owner"
      },
      "retireMember()": {
        "notice": "Retires member"
      },
      "setActivityRewardPerSecond(uint256)": {
        "notice": "Set activity reward amount"
      },
      "setAgendaManager(address)": {
        "notice": "Set DAOAgendaManager contract address"
      },
      "setAgendaStatus(uint256,uint256,uint256)": {
        "notice": "Set status and result of specific agenda"
      },
      "setCandidateFactory(address)": {
        "notice": "Set CandidateFactory contract address"
      },
      "setCandidatesCommittee(address[],address)": {
        "notice": "Set DAOCommitteeProxy contract address on candidate contracts"
      },
      "setCandidatesSeigManager(address[],address)": {
        "notice": "Set SeigManager contract address on candidate contracts"
      },
      "setCreateAgendaFees(uint256)": {
        "notice": "Set fee amount of creating an agenda"
      },
      "setDaoVault(address)": {
        "notice": "Set DAOVault contract address"
      },
      "setExecutingPeriodSeconds(uint256)": {
        "notice": "Set the executing period"
      },
      "setLayer2Registry(address)": {
        "notice": "Set Layer2Registry contract address"
      },
      "setMemoOnCandidate(address,string)": {
        "notice": "Set memo"
      },
      "setMemoOnCandidateContract(address,string)": {
        "notice": "Set memo"
      },
      "setMinimumNoticePeriodSeconds(uint256)": {
        "notice": "Set the minimum notice period"
      },
      "setMinimumVotingPeriodSeconds(uint256)": {
        "notice": "Set the minimum voting period"
      },
      "setQuorum(uint256)": {
        "notice": "Set new quorum"
      },
      "setSeigManager(address)": {
        "notice": "Set SeigManager contract address"
      },
      "setTon(address)": {
        "notice": "Set TON contract address"
      },
      "updateSeigniorage(address)": {
        "notice": "Call updateSeigniorage on SeigManager"
      },
      "updateSeigniorages(address[])": {
        "notice": "Call updateSeigniorage on SeigManager"
      }
    },
    "version": 1
  }
}