{
  "_format": "hh-sol-artifact-1",
  "contractName": "DepositManagerProxy",
  "sourceName": "contracts/stake/managers/DepositManagerProxy.sol",
  "abi": [
    {
      "anonymous": false,
      "inputs": [
        {
          "indexed": true,
          "internalType": "bytes32",
          "name": "role",
          "type": "bytes32"
        },
        {
          "indexed": true,
          "internalType": "bytes32",
          "name": "previousAdminRole",
          "type": "bytes32"
        },
        {
          "indexed": true,
          "internalType": "bytes32",
          "name": "newAdminRole",
          "type": "bytes32"
        }
      ],
      "name": "RoleAdminChanged",
      "type": "event"
    },
    {
      "anonymous": false,
      "inputs": [
        {
          "indexed": true,
          "internalType": "bytes32",
          "name": "role",
          "type": "bytes32"
        },
        {
          "indexed": true,
          "internalType": "address",
          "name": "account",
          "type": "address"
        },
        {
          "indexed": true,
          "internalType": "address",
          "name": "sender",
          "type": "address"
        }
      ],
      "name": "RoleGranted",
      "type": "event"
    },
    {
      "anonymous": false,
      "inputs": [
        {
          "indexed": true,
          "internalType": "bytes32",
          "name": "role",
          "type": "bytes32"
        },
        {
          "indexed": true,
          "internalType": "address",
          "name": "account",
          "type": "address"
        },
        {
          "indexed": true,
          "internalType": "address",
          "name": "sender",
          "type": "address"
        }
      ],
      "name": "RoleRevoked",
      "type": "event"
    },
    {
      "anonymous": false,
      "inputs": [
        {
          "indexed": true,
          "internalType": "address",
          "name": "impl",
          "type": "address"
        },
        {
          "indexed": false,
          "internalType": "bool",
          "name": "alive",
          "type": "bool"
        }
      ],
      "name": "SetAliveImplementation",
      "type": "event"
    },
    {
      "anonymous": false,
      "inputs": [
        {
          "indexed": true,
          "internalType": "bytes4",
          "name": "selector",
          "type": "bytes4"
        },
        {
          "indexed": true,
          "internalType": "address",
          "name": "impl",
          "type": "address"
        }
      ],
      "name": "SetSelectorImplementation",
      "type": "event"
    },
    {
      "anonymous": false,
      "inputs": [
        {
          "indexed": true,
          "internalType": "address",
          "name": "implementation",
          "type": "address"
        }
      ],
      "name": "Upgraded",
      "type": "event"
    },
    {
      "stateMutability": "payable",
      "type": "fallback"
    },
    {
      "inputs": [],
      "name": "DEFAULT_ADMIN_ROLE",
      "outputs": [
        {
          "internalType": "bytes32",
          "name": "",
          "type": "bytes32"
        }
      ],
      "stateMutability": "view",
      "type": "function"
    },
    {
      "inputs": [],
      "name": "MINTER_ROLE",
      "outputs": [
        {
          "internalType": "bytes32",
          "name": "",
          "type": "bytes32"
        }
      ],
      "stateMutability": "view",
      "type": "function"
    },
    {
      "inputs": [
        {
          "internalType": "address",
          "name": "account",
          "type": "address"
        }
      ],
      "name": "addAdmin",
      "outputs": [],
      "stateMutability": "nonpayable",
      "type": "function"
    },
    {
      "inputs": [
        {
          "internalType": "address",
          "name": "",
          "type": "address"
        }
      ],
      "name": "aliveImplementation",
      "outputs": [
        {
          "internalType": "bool",
          "name": "",
          "type": "bool"
        }
      ],
      "stateMutability": "view",
      "type": "function"
    },
    {
      "inputs": [
        {
          "internalType": "bytes32",
          "name": "role",
          "type": "bytes32"
        }
      ],
      "name": "getRoleAdmin",
      "outputs": [
        {
          "internalType": "bytes32",
          "name": "",
          "type": "bytes32"
        }
      ],
      "stateMutability": "view",
      "type": "function"
    },
    {
      "inputs": [
        {
          "internalType": "bytes4",
          "name": "_selector",
          "type": "bytes4"
        }
      ],
      "name": "getSelectorImplementation2",
      "outputs": [
        {
          "internalType": "address",
          "name": "impl",
          "type": "address"
        }
      ],
      "stateMutability": "view",
      "type": "function"
    },
    {
      "inputs": [],
      "name": "globalWithdrawalDelay",
      "outputs": [
        {
          "internalType": "uint256",
          "name": "",
          "type": "uint256"
        }
      ],
      "stateMutability": "view",
      "type": "function"
    },
    {
      "inputs": [
        {
          "internalType": "bytes32",
          "name": "role",
          "type": "bytes32"
        },
        {
          "internalType": "address",
          "name": "account",
          "type": "address"
        }
      ],
      "name": "grantRole",
      "outputs": [],
      "stateMutability": "nonpayable",
      "type": "function"
    },
    {
      "inputs": [
        {
          "internalType": "bytes32",
          "name": "role",
          "type": "bytes32"
        },
        {
          "internalType": "address",
          "name": "account",
          "type": "address"
        }
      ],
      "name": "hasRole",
      "outputs": [
        {
          "internalType": "bool",
          "name": "",
          "type": "bool"
        }
      ],
      "stateMutability": "view",
      "type": "function"
    },
    {
      "inputs": [],
      "name": "implementation",
      "outputs": [
        {
          "internalType": "address",
          "name": "",
          "type": "address"
        }
      ],
      "stateMutability": "view",
      "type": "function"
    },
    {
      "inputs": [
        {
          "internalType": "uint256",
          "name": "_index",
          "type": "uint256"
        }
      ],
      "name": "implementation2",
      "outputs": [
        {
          "internalType": "address",
          "name": "",
          "type": "address"
        }
      ],
      "stateMutability": "view",
      "type": "function"
    },
    {
      "inputs": [
        {
          "internalType": "address",
          "name": "account",
          "type": "address"
        }
      ],
      "name": "isAdmin",
      "outputs": [
        {
          "internalType": "bool",
          "name": "",
          "type": "bool"
        }
      ],
      "stateMutability": "view",
      "type": "function"
    },
    {
      "inputs": [],
      "name": "isOwner",
      "outputs": [
        {
          "internalType": "bool",
          "name": "",
          "type": "bool"
        }
      ],
      "stateMutability": "view",
      "type": "function"
    },
    {
      "inputs": [],
      "name": "oldDepositManager",
      "outputs": [
        {
          "internalType": "address",
          "name": "",
          "type": "address"
        }
      ],
      "stateMutability": "view",
      "type": "function"
    },
    {
      "inputs": [],
      "name": "pauseProxy",
      "outputs": [
        {
          "internalType": "bool",
          "name": "",
          "type": "bool"
        }
      ],
      "stateMutability": "view",
      "type": "function"
    },
    {
      "inputs": [
        {
          "internalType": "uint256",
          "name": "",
          "type": "uint256"
        }
      ],
      "name": "proxyImplementation",
      "outputs": [
        {
          "internalType": "address",
          "name": "",
          "type": "address"
        }
      ],
      "stateMutability": "view",
      "type": "function"
    },
    {
      "inputs": [
        {
          "internalType": "address",
          "name": "account",
          "type": "address"
        }
      ],
      "name": "removeAdmin",
      "outputs": [],
      "stateMutability": "nonpayable",
      "type": "function"
    },
    {
      "inputs": [],
      "name": "renounceOwnership",
      "outputs": [],
      "stateMutability": "nonpayable",
      "type": "function"
    },
    {
      "inputs": [
        {
          "internalType": "bytes32",
          "name": "role",
          "type": "bytes32"
        },
        {
          "internalType": "address",
          "name": "account",
          "type": "address"
        }
      ],
      "name": "renounceRole",
      "outputs": [],
      "stateMutability": "nonpayable",
      "type": "function"
    },
    {
      "inputs": [
        {
          "internalType": "bytes32",
          "name": "role",
          "type": "bytes32"
        },
        {
          "internalType": "address",
          "name": "account",
          "type": "address"
        }
      ],
      "name": "revokeRole",
      "outputs": [],
      "stateMutability": "nonpayable",
      "type": "function"
    },
    {
      "inputs": [
        {
          "internalType": "bytes4",
          "name": "",
          "type": "bytes4"
        }
      ],
      "name": "selectorImplementation",
      "outputs": [
        {
          "internalType": "address",
          "name": "",
          "type": "address"
        }
      ],
      "stateMutability": "view",
      "type": "function"
    },
    {
      "inputs": [
        {
          "internalType": "address",
          "name": "newImplementation",
          "type": "address"
        },
        {
          "internalType": "bool",
          "name": "_alive",
          "type": "bool"
        }
      ],
      "name": "setAliveImplementation2",
      "outputs": [],
      "stateMutability": "nonpayable",
      "type": "function"
    },
    {
      "inputs": [
        {
          "internalType": "address",
          "name": "newImplementation",
          "type": "address"
        },
        {
          "internalType": "uint256",
          "name": "_index",
          "type": "uint256"
        },
        {
          "internalType": "bool",
          "name": "_alive",
          "type": "bool"
        }
      ],
      "name": "setImplementation2",
      "outputs": [],
      "stateMutability": "nonpayable",
      "type": "function"
    },
    {
      "inputs": [
        {
          "internalType": "bool",
          "name": "_pause",
          "type": "bool"
        }
      ],
      "name": "setProxyPause",
      "outputs": [],
      "stateMutability": "nonpayable",
      "type": "function"
    },
    {
      "inputs": [
        {
          "internalType": "bytes4[]",
          "name": "_selectors",
          "type": "bytes4[]"
        },
        {
          "internalType": "address",
          "name": "_imp",
          "type": "address"
        }
      ],
      "name": "setSelectorImplementations2",
      "outputs": [],
      "stateMutability": "nonpayable",
      "type": "function"
    },
    {
      "inputs": [
        {
          "internalType": "bytes4",
          "name": "interfaceId",
          "type": "bytes4"
        }
      ],
      "name": "supportsInterface",
      "outputs": [
        {
          "internalType": "bool",
          "name": "",
          "type": "bool"
        }
      ],
      "stateMutability": "view",
      "type": "function"
    },
    {
      "inputs": [
        {
          "internalType": "address",
          "name": "newAdmin",
          "type": "address"
        }
      ],
      "name": "transferAdmin",
      "outputs": [],
      "stateMutability": "nonpayable",
      "type": "function"
    },
    {
      "inputs": [
        {
          "internalType": "address",
          "name": "newAdmin",
          "type": "address"
        }
      ],
      "name": "transferOwnership",
      "outputs": [],
      "stateMutability": "nonpayable",
      "type": "function"
    },
    {
      "inputs": [
        {
          "internalType": "address",
          "name": "impl",
          "type": "address"
        }
      ],
      "name": "upgradeTo",
      "outputs": [],
      "stateMutability": "nonpayable",
      "type": "function"
    },
    {
      "inputs": [
        {
          "internalType": "address",
          "name": "",
          "type": "address"
        }
      ],
      "name": "withdrawalDelay",
      "outputs": [
        {
          "internalType": "uint256",
          "name": "",
          "type": "uint256"
        }
      ],
      "stateMutability": "view",
      "type": "function"
    },
    {
      "stateMutability": "payable",
      "type": "receive"
    }
  ],
  "bytecode": "0x6080806040523461009e573360009081527f05b8ccbb9d4d8fb16ea74ce3c29a41f1b461fbdaff4714a0d9a8eb05499746bc602052604081205460ff161561004f575b5061188290816100a48239f35b80805260056020526040812033825260205260408120600160ff19825416179055339033907f2f8788117e7eff1d82e926ec794901d17c78024a50270940304540a733656f0d8180a438610042565b600080fdfe60806040526004361015610018575b366116e15761169c565b60003560e01c806301ffc9a7146101f35780631785f53c146101ee5780632153c239146101e9578063248a9ca3146101e457806324d7806c146101df5780632f2ff15d146101da57806336568abe146101d55780633659cfe6146101d05780634a5df50f146101cb5780634ce97036146101c657806350d2a276146101c1578063550d01a3146101bc5780635c60da1b146101b75780635cc797d8146101b257806363a8fd89146101ad5780636ec3d5ae146101a857806370480275146101a3578063715018a61461019e57806375829def146101995780637cb00d25146101945780637cd5f6631461018f5780638b8f4a65146101765780638d4fdb401461018a5780638f32d59b1461018557806391d1485414610180578063a217fddf1461017b578063b911135f14610176578063d539139314610171578063d547741f1461016c5763f2fde38b0361000e57610ea0565b610e61565b610e26565b610d18565b610e0a565b610dc3565b610d85565b610d4d565b610c31565b610bd9565b610aee565b610aab565b610996565b610978565b610955565b6108fe565b6108ca565b61088b565b610844565b61080a565b610625565b610521565b610481565b6103ac565b61035b565b61032c565b610305565b6102b4565b61020f565b6001600160e01b031981160361020a57565b600080fd5b3461020a57602036600319011261020a5760043561022c816101f8565b6001600160e01b031916637965db0b60e01b81148015610254575b6020906040519015158152f35b506301ffc9a760e01b8114801561026f575b60209150610247565b506000526004602052602060ff60406000205416610266565b600435906001600160a01b038216820361020a57565b602435906001600160a01b038216820361020a57565b3461020a57602036600319011261020a576103036102d0610288565b33600090815260008051602061185683398151915260205260409020546102fe9060ff1661145f565b61145f565b6111b1565b005b3461020a57600036600319011261020a5760206001600160a01b0360095416604051908152f35b3461020a57602036600319011261020a5760043560005260056020526020600160406000200154604051908152f35b3461020a57602036600319011261020a57602060ff6103a061037b610288565b60008052600584526040600020906001600160a01b0316600052602052604060002090565b54166040519015158152f35b3461020a57604036600319011261020a576004356103c861029e565b60009180835260056020526103e36001604085200154610fb1565b808352600560205260ff61040d8360408620906001600160a01b0316600052602052604060002090565b541615610418578280f35b80835260056020526104408260408520906001600160a01b0316600052602052604060002090565b805460ff1916600117905533916001600160a01b0316907f2f8788117e7eff1d82e926ec794901d17c78024a50270940304540a733656f0d8480a438808280f35b3461020a57604036600319011261020a5761049a61029e565b336001600160a01b038216036104b6576103039060043561124f565b60405162461bcd60e51b815260206004820152602f60248201527f416363657373436f6e74726f6c3a2063616e206f6e6c792072656e6f756e636560448201527f20726f6c657320666f722073656c6600000000000000000000000000000000006064820152608490fd5b3461020a57602036600319011261020a5761053a610288565b336000908152600080516020611856833981519152602052604081209091906105689060ff905b541661145f565b6001600160a01b0381169081156105e0576105b99083805260016020526105b4836105ad6105a1604088206001600160a01b0390541690565b6001600160a01b031690565b14156114b6565b61177c565b7fbc7cd75a20ee27fd9adebab32041f755214dbc6bffa90cc0225b39da2e5c2d3b8280a280f35b60405162461bcd60e51b815260206004820152600d60248201527f696e707574206973207a65726f000000000000000000000000000000000000006044820152606490fd5b3461020a57604036600319011261020a5767ffffffffffffffff60043581811161020a573660238201121561020a57806004013591821161020a576024810190602436918460051b01011161020a5761067c61029e565b336000908152600080516020611856833981519152602052604081209093906106a79060ff90610561565b80156107c6576106de6106d96106d28495946001600160a01b03166000526002602052604060002090565b5460ff1690565b6114ee565b83916001600160a01b0393848116935b8381106106f9578680f35b80610749868861074161073461071b6107166107c1988c8c611549565b611559565b63ffffffff60e01b166000526003602052604060002090565b546001600160a01b031690565b161415611563565b6107798361075e61071b610716858a8a611549565b906001600160a01b03166001600160a01b0319825416179055565b8561079861078b610716848989611549565b6001600160e01b03191690565b7f14ebc1c32aa68f4d766e89f3e546cee249f7df25183fc10ab1568d91c2ce9b7b8a80a361153a565b6106ee565b606460405162461bcd60e51b815260206004820152602060248201527f50726f78793a205f73656c6563746f727327732073697a65206973207a65726f6044820152fd5b3461020a57602036600319011261020a576001600160a01b0361082b610288565b1660005260166020526020604060002054604051908152f35b3461020a57602036600319011261020a57600435610861816101f8565b63ffffffff60e01b16600052600360205260206001600160a01b0360406000205416604051908152f35b3461020a57602036600319011261020a576001600160a01b036108ac610288565b166000526002602052602060ff604060002054166040519015158152f35b3461020a576000806003193601126108fb576001600160a01b03604082806020945260018452205416604051908152f35b80fd5b3461020a57604036600319011261020a57610917610288565b602435801515810361020a573360009081526000805160206118568339815191526020526040902061030392906109509060ff90610561565b611800565b3461020a57600036600319011261020a57602060ff600054166040519015158152f35b3461020a57600036600319011261020a576020601554604051908152f35b3461020a57602036600319011261020a576109af610288565b33600090815260008051602061185683398151915260205260409020546109d89060ff1661145f565b600080805260056020527f05b8ccbb9d4d8fb16ea74ce3c29a41f1b461fbdaff4714a0d9a8eb05499746bd54909190610a1090610fb1565b818052600560205260ff610a3a8260408520906001600160a01b0316600052602052604060002090565b541615610a45575080f35b8180526005602052610a6d8160408420906001600160a01b0316600052602052604060002090565b805460ff1916600117905533906001600160a01b0316827f2f8788117e7eff1d82e926ec794901d17c78024a50270940304540a733656f0d8180a480f35b3461020a57600036600319011261020a573360009081526000805160206118568339815191526020526040902054610ae59060ff1661145f565b610303336111b1565b3461020a57602036600319011261020a57610b07610288565b3360009081526000805160206118568339815191526020526040902054610b309060ff1661145f565b6001600160a01b0381168015610b94573314610b4f57610ae590610ee2565b60405162461bcd60e51b815260206004820152601660248201527f41636365737369626c653a2073616d652061646d696e000000000000000000006044820152606490fd5b60405162461bcd60e51b815260206004820152601860248201527f41636365737369626c653a207a65726f206164647265737300000000000000006044820152606490fd5b3461020a57602036600319011261020a5760043580151580910361020a5733600090815260008051602061185683398151915260205260408120909190610c229060ff90610561565b60ff8019835416911617815580f35b3461020a57606036600319011261020a57610c4a610288565b60443590811515820361020a5733600090815260008051602061185683398151915260205260408120909290610c829060ff90610561565b813b15610cd357610c979181610c9a57611800565b80f35b6024358452600160205260408420805473ffffffffffffffffffffffffffffffffffffffff19166001600160a01b038316179055611800565b60405162461bcd60e51b815260206004820152601b60248201527f50726f78793a206e6f7420636f6e7472616374206164647265737300000000006044820152606490fd5b3461020a57602036600319011261020a57600435600052600160205260206001600160a01b0360406000205416604051908152f35b3461020a57602036600319011261020a576020610d74600435610d6f816101f8565b6115af565b6001600160a01b0360405191168152f35b3461020a576000806003193601126108fb5760ff6103a0828060209452600584526040339120906001600160a01b0316600052602052604060002090565b3461020a57604036600319011261020a57602060ff6103a0610de361029e565b600435600052600584526040600020906001600160a01b0316600052602052604060002090565b3461020a57600036600319011261020a57602060405160008152f35b3461020a57600036600319011261020a5760206040517ff0887ba65ee2024ea881d91b74c2450ef19e1557f03bed3ea9f16b037cbe2dc98152f35b3461020a57604036600319011261020a57610303600435610e8061029e565b90806000526005602052610e9b600160406000200154610fb1565b61124f565b3461020a57602036600319011261020a57610eb9610288565b3360009081526000805160206118568339815191526020526040902054610b079060ff166102f9565b600080805260056020527f05b8ccbb9d4d8fb16ea74ce3c29a41f1b461fbdaff4714a0d9a8eb05499746bd54610f1790610fb1565b808052600560205260ff610f418360408420906001600160a01b0316600052602052604060002090565b541615610f4c575050565b8080526005602052610f748260408320906001600160a01b0316600052602052604060002090565b805460ff1916600117905533916001600160a01b0316907f2f8788117e7eff1d82e926ec794901d17c78024a50270940304540a733656f0d8180a4565b80600052600560205260ff610fdd336040600020906001600160a01b0316600052602052604060002090565b541615610fe75750565b3390610ff16112fe565b916030610ffd84611341565b5360786110098461134e565b5360295b600181116110c8576110c46110756110ac8661109e611035886110308915611381565b6113cc565b61106f60405195869461106f602087016017907f416363657373436f6e74726f6c3a206163636f756e742000000000000000000081520190565b90611131565b7f206973206d697373696e6720726f6c6520000000000000000000000000000000815260110190565b03601f19810183528261115e565b60405162461bcd60e51b815291829160048301611185565b0390fd5b90600f8116906010821015611109576f181899199a1a9b1b9c1cb0b131b232b360811b611104921a6110fa848761135e565b5360041c9161136f565b61100d565b61132b565b60005b8381106111215750506000910152565b8181015183820152602001611111565b906111446020928281519485920161110e565b0190565b634e487b7160e01b600052604160045260246000fd5b90601f8019910116810190811067ffffffffffffffff82111761118057604052565b611148565b604091602082526111a5815180928160208601526020868601910161110e565b601f01601f1916010190565b6001600160a01b0381163381036104b6576001600160a01b0382166000908152600080516020611856833981519152602052604081205490929060ff166111f757505050565b61121f90838052600560205260408420906001600160a01b0316600052602052604060002090565b805460ff1916905533917ff6391f5c32d9c69d2a47ea670b442974b53935d1edc7fd64eb21e047a839171b8180a4565b600090808252600560205260ff61127c8460408520906001600160a01b0316600052602052604060002090565b541661128757505050565b80825260056020526112af8360408420906001600160a01b0316600052602052604060002090565b60ff1981541690557ff6391f5c32d9c69d2a47ea670b442974b53935d1edc7fd64eb21e047a839171b6001600160a01b033394169280a4565b634e487b7160e01b600052601160045260246000fd5b604051906060820182811067ffffffffffffffff82111761118057604052602a8252604082602036910137565b634e487b7160e01b600052603260045260246000fd5b8051156111095760200190565b8051600110156111095760210190565b908151811015611109570160200190565b801561137c576000190190565b6112e8565b1561138857565b606460405162461bcd60e51b815260206004820152602060248201527f537472696e67733a20686578206c656e67746820696e73756666696369656e746044820152fd5b604051906080820182811067ffffffffffffffff82111761118057604052604282526060366020840137603061140183611341565b53607861140d8361134e565b536041905b6001821161142857611425915015611381565b90565b600f8116906010821015611109576f181899199a1a9b1b9c1cb0b131b232b360811b611459921a6110fa848661135e565b90611412565b1561146657565b60405162461bcd60e51b815260206004820152602260248201527f41636365737369626c653a2043616c6c6572206973206e6f7420616e2061646d60448201526134b760f11b6064820152608490fd5b156114bd57565b60405162461bcd60e51b815260206004820152600960248201526839b0b6b29030b2323960b91b6044820152606490fd5b156114f557565b60405162461bcd60e51b815260206004820152601860248201527f50726f78793a205f696d70206973206e6f7420616c69766500000000000000006044820152606490fd5b600019811461137c5760010190565b91908110156111095760051b0190565b35611425816101f8565b1561156a57565b60405162461bcd60e51b815260206004820152601d60248201527f4c69717569646974795661756c7450726f78793a2073616d6520696d700000006044820152606490fd5b63ffffffff60e01b811660005260036020526001600160a01b039081604060002054161560001461160a57506000805260016020527fa6eef7e35abe7026729641147f7915573c7e97b47efa546f5f6e3230263bcb49541690565b60ff6116488361162d8463ffffffff60e01b166000526003602052604060002090565b54166001600160a01b03166000526002602052604060002090565b54161561166c576001600160e01b0319166000908152600360205260409020541690565b506000805260016020527fa6eef7e35abe7026729641147f7915573c7e97b47efa546f5f6e3230263bcb49541690565b60405162461bcd60e51b815260206004820152601460248201527f63616e6e6f7420726563656976652045746865720000000000000000000000006044820152606490fd5b60006116f781356001600160e01b0319166115af565b6001600160a01b038116151580611770575b1561172b57818091368280378136915af43d82803e15611727573d90f35b3d90fd5b60405162461bcd60e51b815260206004820152601d60248201527f50726f78793a20696d706c204f522070726f78792069732066616c73650000006044820152606490fd5b5060ff82541615611709565b803b15610cd3576001600160a01b03906000805260016020526117b9816040600020906001600160a01b03166001600160a01b0319825416179055565b168060005260026020526040600020600160ff198254161790557f72558d9bfba4210f9ef095c782589484151f6d90f7a81bb3cb9b33efc695d324602060405160018152a2565b60206001600160a01b037f72558d9bfba4210f9ef095c782589484151f6d90f7a81bb3cb9b33efc695d324921692836000526002825260406000209015159060ff1981541660ff8316179055604051908152a256fe05b8ccbb9d4d8fb16ea74ce3c29a41f1b461fbdaff4714a0d9a8eb05499746bca164736f6c6343000813000a",
  "linkReferences": {},
  "deployedLinkReferences": {}
}