{
  "_format": "hh-sol-artifact-1",
  "contractName": "DepositManager_setWithdrawalDelay",
  "sourceName": "contracts/stake/managers/DepositManager_setWithdrawalDelay.sol",
  "abi": [
    {
      "anonymous": false,
      "inputs": [
        {
          "indexed": true,
          "internalType": "bytes32",
          "name": "role",
          "type": "bytes32"
        },
        {
          "indexed": true,
          "internalType": "bytes32",
          "name": "previousAdminRole",
          "type": "bytes32"
        },
        {
          "indexed": true,
          "internalType": "bytes32",
          "name": "newAdminRole",
          "type": "bytes32"
        }
      ],
      "name": "RoleAdminChanged",
      "type": "event"
    },
    {
      "anonymous": false,
      "inputs": [
        {
          "indexed": true,
          "internalType": "bytes32",
          "name": "role",
          "type": "bytes32"
        },
        {
          "indexed": true,
          "internalType": "address",
          "name": "account",
          "type": "address"
        },
        {
          "indexed": true,
          "internalType": "address",
          "name": "sender",
          "type": "address"
        }
      ],
      "name": "RoleGranted",
      "type": "event"
    },
    {
      "anonymous": false,
      "inputs": [
        {
          "indexed": true,
          "internalType": "bytes32",
          "name": "role",
          "type": "bytes32"
        },
        {
          "indexed": true,
          "internalType": "address",
          "name": "account",
          "type": "address"
        },
        {
          "indexed": true,
          "internalType": "address",
          "name": "sender",
          "type": "address"
        }
      ],
      "name": "RoleRevoked",
      "type": "event"
    },
    {
      "anonymous": false,
      "inputs": [
        {
          "indexed": true,
          "internalType": "address",
          "name": "layer2",
          "type": "address"
        },
        {
          "indexed": false,
          "internalType": "uint256",
          "name": "withdrawalDelay_",
          "type": "uint256"
        }
      ],
      "name": "SetWithdrawalDelay",
      "type": "event"
    },
    {
      "anonymous": false,
      "inputs": [
        {
          "indexed": true,
          "internalType": "address",
          "name": "layer2",
          "type": "address"
        },
        {
          "indexed": false,
          "internalType": "uint256",
          "name": "withdrawalDelay_",
          "type": "uint256"
        }
      ],
      "name": "SetWithdrawalDelayByOwner",
      "type": "event"
    },
    {
      "inputs": [],
      "name": "DEFAULT_ADMIN_ROLE",
      "outputs": [
        {
          "internalType": "bytes32",
          "name": "",
          "type": "bytes32"
        }
      ],
      "stateMutability": "view",
      "type": "function"
    },
    {
      "inputs": [],
      "name": "MAX_DELAY_BLOCKS",
      "outputs": [
        {
          "internalType": "uint256",
          "name": "",
          "type": "uint256"
        }
      ],
      "stateMutability": "view",
      "type": "function"
    },
    {
      "inputs": [],
      "name": "MINTER_ROLE",
      "outputs": [
        {
          "internalType": "bytes32",
          "name": "",
          "type": "bytes32"
        }
      ],
      "stateMutability": "view",
      "type": "function"
    },
    {
      "inputs": [
        {
          "internalType": "address",
          "name": "account",
          "type": "address"
        }
      ],
      "name": "addAdmin",
      "outputs": [],
      "stateMutability": "nonpayable",
      "type": "function"
    },
    {
      "inputs": [
        {
          "internalType": "address",
          "name": "",
          "type": "address"
        }
      ],
      "name": "aliveImplementation",
      "outputs": [
        {
          "internalType": "bool",
          "name": "",
          "type": "bool"
        }
      ],
      "stateMutability": "view",
      "type": "function"
    },
    {
      "inputs": [
        {
          "internalType": "bytes32",
          "name": "role",
          "type": "bytes32"
        }
      ],
      "name": "getRoleAdmin",
      "outputs": [
        {
          "internalType": "bytes32",
          "name": "",
          "type": "bytes32"
        }
      ],
      "stateMutability": "view",
      "type": "function"
    },
    {
      "inputs": [],
      "name": "globalWithdrawalDelay",
      "outputs": [
        {
          "internalType": "uint256",
          "name": "",
          "type": "uint256"
        }
      ],
      "stateMutability": "view",
      "type": "function"
    },
    {
      "inputs": [
        {
          "internalType": "bytes32",
          "name": "role",
          "type": "bytes32"
        },
        {
          "internalType": "address",
          "name": "account",
          "type": "address"
        }
      ],
      "name": "grantRole",
      "outputs": [],
      "stateMutability": "nonpayable",
      "type": "function"
    },
    {
      "inputs": [
        {
          "internalType": "bytes32",
          "name": "role",
          "type": "bytes32"
        },
        {
          "internalType": "address",
          "name": "account",
          "type": "address"
        }
      ],
      "name": "hasRole",
      "outputs": [
        {
          "internalType": "bool",
          "name": "",
          "type": "bool"
        }
      ],
      "stateMutability": "view",
      "type": "function"
    },
    {
      "inputs": [
        {
          "internalType": "address",
          "name": "account",
          "type": "address"
        }
      ],
      "name": "isAdmin",
      "outputs": [
        {
          "internalType": "bool",
          "name": "",
          "type": "bool"
        }
      ],
      "stateMutability": "view",
      "type": "function"
    },
    {
      "inputs": [],
      "name": "isOwner",
      "outputs": [
        {
          "internalType": "bool",
          "name": "",
          "type": "bool"
        }
      ],
      "stateMutability": "view",
      "type": "function"
    },
    {
      "inputs": [],
      "name": "oldDepositManager",
      "outputs": [
        {
          "internalType": "address",
          "name": "",
          "type": "address"
        }
      ],
      "stateMutability": "view",
      "type": "function"
    },
    {
      "inputs": [],
      "name": "pauseProxy",
      "outputs": [
        {
          "internalType": "bool",
          "name": "",
          "type": "bool"
        }
      ],
      "stateMutability": "view",
      "type": "function"
    },
    {
      "inputs": [
        {
          "internalType": "uint256",
          "name": "",
          "type": "uint256"
        }
      ],
      "name": "proxyImplementation",
      "outputs": [
        {
          "internalType": "address",
          "name": "",
          "type": "address"
        }
      ],
      "stateMutability": "view",
      "type": "function"
    },
    {
      "inputs": [
        {
          "internalType": "address",
          "name": "account",
          "type": "address"
        }
      ],
      "name": "removeAdmin",
      "outputs": [],
      "stateMutability": "nonpayable",
      "type": "function"
    },
    {
      "inputs": [],
      "name": "renounceOwnership",
      "outputs": [],
      "stateMutability": "nonpayable",
      "type": "function"
    },
    {
      "inputs": [
        {
          "internalType": "bytes32",
          "name": "role",
          "type": "bytes32"
        },
        {
          "internalType": "address",
          "name": "account",
          "type": "address"
        }
      ],
      "name": "renounceRole",
      "outputs": [],
      "stateMutability": "nonpayable",
      "type": "function"
    },
    {
      "inputs": [
        {
          "internalType": "bytes32",
          "name": "role",
          "type": "bytes32"
        },
        {
          "internalType": "address",
          "name": "account",
          "type": "address"
        }
      ],
      "name": "revokeRole",
      "outputs": [],
      "stateMutability": "nonpayable",
      "type": "function"
    },
    {
      "inputs": [
        {
          "internalType": "bytes4",
          "name": "",
          "type": "bytes4"
        }
      ],
      "name": "selectorImplementation",
      "outputs": [
        {
          "internalType": "address",
          "name": "",
          "type": "address"
        }
      ],
      "stateMutability": "view",
      "type": "function"
    },
    {
      "inputs": [
        {
          "internalType": "address",
          "name": "l2chain",
          "type": "address"
        },
        {
          "internalType": "uint256",
          "name": "withdrawalDelay_",
          "type": "uint256"
        }
      ],
      "name": "setWithdrawalDelay",
      "outputs": [],
      "stateMutability": "nonpayable",
      "type": "function"
    },
    {
      "inputs": [
        {
          "internalType": "address",
          "name": "l2chain",
          "type": "address"
        },
        {
          "internalType": "uint256",
          "name": "withdrawalDelay_",
          "type": "uint256"
        }
      ],
      "name": "setWithdrawalDelayByOwner",
      "outputs": [],
      "stateMutability": "nonpayable",
      "type": "function"
    },
    {
      "inputs": [
        {
          "internalType": "bytes4",
          "name": "interfaceId",
          "type": "bytes4"
        }
      ],
      "name": "supportsInterface",
      "outputs": [
        {
          "internalType": "bool",
          "name": "",
          "type": "bool"
        }
      ],
      "stateMutability": "view",
      "type": "function"
    },
    {
      "inputs": [
        {
          "internalType": "address",
          "name": "newAdmin",
          "type": "address"
        }
      ],
      "name": "transferAdmin",
      "outputs": [],
      "stateMutability": "nonpayable",
      "type": "function"
    },
    {
      "inputs": [
        {
          "internalType": "address",
          "name": "newAdmin",
          "type": "address"
        }
      ],
      "name": "transferOwnership",
      "outputs": [],
      "stateMutability": "nonpayable",
      "type": "function"
    },
    {
      "inputs": [
        {
          "internalType": "address",
          "name": "",
          "type": "address"
        }
      ],
      "name": "withdrawalDelay",
      "outputs": [
        {
          "internalType": "uint256",
          "name": "",
          "type": "uint256"
        }
      ],
      "stateMutability": "view",
      "type": "function"
    }
  ],
  "bytecode": "0x60808060405234610016576110e4908161001c8239f35b600080fdfe608060408181526004908136101561001657600080fd5b600092833560e01c90816301ffc9a714610a8a575080631785f53c14610a2d5780631c28e8b714610a0f5780632153c239146109e7578063248a9ca3146109bc57806324d7806c146109775780632f2ff15d146108cc57806336568abe1461083a578063377db38b146107bd5780634ce970361461078657806350d2a27614610744578063550d01a31461070857806363a8fd89146106e65780636ec3d5ae146106c757806370480275146105e2578063715018a61461058a57806375829def146105675780638f32d59b1461053457806391d14854146104ee578063a217fddf146104d3578063b911135f146104a2578063d539139314610463578063d547741f14610429578063dc5a709f146102f35763f2fde38b1461013757600080fd5b346102ef576020806003193601126102eb576001600160a01b03610159610b0f565b3360009081527f05b8ccbb9d4d8fb16ea74ce3c29a41f1b461fbdaff4714a0d9a8eb05499746bc60205260409020546101949060ff16611080565b3360009081527f05b8ccbb9d4d8fb16ea74ce3c29a41f1b461fbdaff4714a0d9a8eb05499746bc60205260409020546101cf9060ff16611080565b169283156102aa578333146102695750838052600581526101f560018386200154610b40565b83805260058152818420838552815260ff82852054161561021e575b8361021b33610ef3565b80f35b8380526005815281842083855290528220805460ff191660011790553390827f2f8788117e7eff1d82e926ec794901d17c78024a50270940304540a733656f0d8180a4388080610211565b915162461bcd60e51b815291820152601660248201527f41636365737369626c653a2073616d652061646d696e000000000000000000006044820152606490fd5b915162461bcd60e51b815291820152601860248201527f41636365737369626c653a207a65726f206164647265737300000000000000006044820152606490fd5b8380fd5b8280fd5b50346102ef57806003193601126102ef5761030c610b0f565b815163570ca73560e01b81526001600160a01b0391821693602093602435939092858184818a5afa90811561041f5788916103e5575b501633036103e1576015548311806103d4575b156103935750907f0d0e452c080431dce3a66249b1137d7b01b7e8e10fd04789028041b3ae05213c929184865260168352818187205551908152a280f35b83606492519162461bcd60e51b8352820152600e60248201527f4e6f742061636365707461626c650000000000000000000000000000000000006044820152fd5b5062034bc0831115610355565b8580fd5b90508581813d8311610418575b6103fc8183610ebb565b81010312610414575181811681036104145738610342565b8780fd5b503d6103f2565b84513d8a823e3d90fd5b50346102ef57806003193601126102ef5761021b913561045e600161044c610b2a565b93838752600560205286200154610b40565b610fe2565b83823461049e578160031936011261049e57602090517ff0887ba65ee2024ea881d91b74c2450ef19e1557f03bed3ea9f16b037cbe2dc98152f35b5080fd5b5090346102ef5760203660031901126102ef57816020936001600160a01b0392358152600185522054169051908152f35b83823461049e578160031936011261049e5751908152602090f35b5090346102ef57816003193601126102ef578160209360ff9261050f610b2a565b90358252600586526001600160a01b0383832091168252855220541690519015158152f35b83823461049e578160031936011261049e5760ff8183806020955260058552818120338252855220541690519015158152f35b50346102ef576020806003193601126102eb576001600160a01b03610194610b0f565b83346105df57806003193601126105df573360009081527f05b8ccbb9d4d8fb16ea74ce3c29a41f1b461fbdaff4714a0d9a8eb05499746bc60205260409020546105d69060ff16611080565b61021b33610ef3565b80fd5b83823461049e57602090816003193601126102ef576105ff610b0f565b3360009081527f05b8ccbb9d4d8fb16ea74ce3c29a41f1b461fbdaff4714a0d9a8eb05499746bc602052604090205490929061063d9060ff16611080565b8380526005815261065360018386200154610b40565b838052600581526001600160a01b03828520931692838552815260ff82852054161561067d578380f35b8380526005815281842083855290528220805460ff191660011790553390827f2f8788117e7eff1d82e926ec794901d17c78024a50270940304540a733656f0d8180a48180808380f35b83823461049e578160031936011261049e576020906015549051908152f35b83823461049e578160031936011261049e5760ff602092541690519015158152f35b83823461049e57602036600319011261049e5760ff816020936001600160a01b03610731610b0f565b1681526002855220541690519015158152f35b5090346102ef5760203660031901126102ef573563ffffffff60e01b81168091036102ef5781836001600160a01b039260209552600385522054169051908152f35b83823461049e57602036600319011261049e57806020926001600160a01b036107ad610b0f565b1681526016845220549051908152f35b83823461049e578060031936011261049e577f30fb6a0aa6371e83167efc7468d444e7612317cd8fdaeb0b4608b8c1f4c124ae60206107fa610b0f565b6001600160a01b036024359186805260058452858720338852845261082460ff8789205416611080565b169384865260168352818187205551908152a280f35b5091903461049e578260031936011261049e57610855610b2a565b90336001600160a01b03831603610871579061021b9135610fe2565b608490602085519162461bcd60e51b8352820152602f60248201527f416363657373436f6e74726f6c3a2063616e206f6e6c792072656e6f756e636560448201526e103937b632b9903337b91039b2b63360891b6064820152fd5b5090346102ef57816003193601126102ef5735906108e8610b2a565b90828452600560205261090060018286200154610b40565b82845260056020526001600160a01b0381852092169182855260205260ff81852054161561092c578380f35b82845260056020528084208285526020528320600160ff1982541617905533917f2f8788117e7eff1d82e926ec794901d17c78024a50270940304540a733656f0d8480a43880808380f35b83823461049e57602036600319011261049e5760ff81602093610998610b0f565b818052600586526001600160a01b0383832091168252855220541690519015158152f35b5090346102ef5760203660031901126102ef5781602093600192358152600585522001549051908152f35b83823461049e578160031936011261049e576020906001600160a01b03600954169051908152f35b83823461049e578160031936011261049e576020905162034bc08152f35b83346105df5760203660031901126105df5761021b610a4a610b0f565b3360009081527f05b8ccbb9d4d8fb16ea74ce3c29a41f1b461fbdaff4714a0d9a8eb05499746bc6020526040902054610a859060ff16611080565b610ef3565b92919050346102eb5760203660031901126102eb5781359063ffffffff60e01b8216809203610b0b57602094637965db0b60e01b8314938415610ad2575b5050505015158152f35b6301ffc9a760e01b8414945091929091908415610af7575b5050505038808080610ac8565b60ff94508252855220541638808080610aea565b8480fd5b600435906001600160a01b0382168203610b2557565b600080fd5b602435906001600160a01b0382168203610b2557565b60009080825260209060058252604090818420338552835260ff828520541615610b6a5750505050565b81519367ffffffffffffffff336060870182811188821017610e84578552602a87528587019385368637875115610e705760308553875191600192831015610e5c57607860218a015360295b838111610df25750610db05790855192608084019084821090821117610d9c57865260428352868301936060368637835115610d8857603085538351821015610d885790607860218501536041915b818311610d1a57505050610cd85792610ca66048610c979794610cca946044989785519a8b93610c628b86019a7f416363657373436f6e74726f6c3a206163636f756e74200000000000000000008c525180926037880190610e98565b8401917f206973206d697373696e6720726f6c6520000000000000000000000000000000603784015251809386840190610e98565b01036028810189520187610ebb565b5194859362461bcd60e51b8552600485015251809281602486015285850190610e98565b601f01601f19168101030190fd5b60648585519062461bcd60e51b825280600483015260248201527f537472696e67733a20686578206c656e67746820696e73756666696369656e746044820152fd5b909192600f81166010811015610d74576f181899199a1a9b1b9c1cb0b131b232b360811b901a610d4a8587611059565b5360041c928015610d6057600019019190610c05565b634e487b7160e01b82526011600452602482fd5b634e487b7160e01b83526032600452602483fd5b634e487b7160e01b81526032600452602490fd5b634e487b7160e01b85526041600452602485fd5b60648787519062461bcd60e51b825280600483015260248201527f537472696e67733a20686578206c656e67746820696e73756666696369656e746044820152fd5b90600f81166010811015610e48576f181899199a1a9b1b9c1cb0b131b232b360811b901a610e20838c611059565b5360041c908015610e345760001901610bb6565b634e487b7160e01b86526011600452602486fd5b634e487b7160e01b87526032600452602487fd5b634e487b7160e01b85526032600452602485fd5b634e487b7160e01b84526032600452602484fd5b634e487b7160e01b84526041600452602484fd5b60005b838110610eab5750506000910152565b8181015183820152602001610e9b565b90601f8019910116810190811067ffffffffffffffff821117610edd57604052565b634e487b7160e01b600052604160045260246000fd5b6001600160a01b0316338103610f855760008181527f05b8ccbb9d4d8fb16ea74ce3c29a41f1b461fbdaff4714a0d9a8eb05499746bc602052604081205490919060ff16610f3f575050565b8180526005602052604082208183526020526040822060ff19815416905533917ff6391f5c32d9c69d2a47ea670b442974b53935d1edc7fd64eb21e047a839171b8180a4565b60405162461bcd60e51b815260206004820152602f60248201527f416363657373436f6e74726f6c3a2063616e206f6e6c792072656e6f756e636560448201526e103937b632b9903337b91039b2b63360891b6064820152608490fd5b9060009180835260056020526001600160a01b036040842092169182845260205260ff60408420541661101457505050565b8083526005602052604083208284526020526040832060ff1981541690557ff6391f5c32d9c69d2a47ea670b442974b53935d1edc7fd64eb21e047a839171b339380a4565b90815181101561106a570160200190565b634e487b7160e01b600052603260045260246000fd5b1561108757565b60405162461bcd60e51b815260206004820152602260248201527f41636365737369626c653a2043616c6c6572206973206e6f7420616e2061646d60448201526134b760f11b6064820152608490fdfea164736f6c6343000813000a",
  "linkReferences": {},
  "deployedLinkReferences": {}
}