{
  "_format": "hh-sol-artifact-1",
  "contractName": "ERC20C",
  "sourceName": "contracts/tokens/ERC20C.sol",
  "abi": [
    {
      "inputs": [
        {
          "internalType": "string",
          "name": "_name",
          "type": "string"
        },
        {
          "internalType": "string",
          "name": "_symbol",
          "type": "string"
        },
        {
          "internalType": "uint256",
          "name": "initialSupply",
          "type": "uint256"
        },
        {
          "internalType": "address",
          "name": "_owner",
          "type": "address"
        }
      ],
      "stateMutability": "nonpayable",
      "type": "constructor"
    },
    {
      "anonymous": false,
      "inputs": [
        {
          "indexed": true,
          "internalType": "address",
          "name": "owner",
          "type": "address"
        },
        {
          "indexed": true,
          "internalType": "address",
          "name": "spender",
          "type": "address"
        },
        {
          "indexed": false,
          "internalType": "uint256",
          "name": "value",
          "type": "uint256"
        }
      ],
      "name": "Approval",
      "type": "event"
    },
    {
      "anonymous": false,
      "inputs": [
        {
          "indexed": true,
          "internalType": "bytes32",
          "name": "role",
          "type": "bytes32"
        },
        {
          "indexed": true,
          "internalType": "bytes32",
          "name": "previousAdminRole",
          "type": "bytes32"
        },
        {
          "indexed": true,
          "internalType": "bytes32",
          "name": "newAdminRole",
          "type": "bytes32"
        }
      ],
      "name": "RoleAdminChanged",
      "type": "event"
    },
    {
      "anonymous": false,
      "inputs": [
        {
          "indexed": true,
          "internalType": "bytes32",
          "name": "role",
          "type": "bytes32"
        },
        {
          "indexed": true,
          "internalType": "address",
          "name": "account",
          "type": "address"
        },
        {
          "indexed": true,
          "internalType": "address",
          "name": "sender",
          "type": "address"
        }
      ],
      "name": "RoleGranted",
      "type": "event"
    },
    {
      "anonymous": false,
      "inputs": [
        {
          "indexed": true,
          "internalType": "bytes32",
          "name": "role",
          "type": "bytes32"
        },
        {
          "indexed": true,
          "internalType": "address",
          "name": "account",
          "type": "address"
        },
        {
          "indexed": true,
          "internalType": "address",
          "name": "sender",
          "type": "address"
        }
      ],
      "name": "RoleRevoked",
      "type": "event"
    },
    {
      "anonymous": false,
      "inputs": [
        {
          "indexed": true,
          "internalType": "address",
          "name": "from",
          "type": "address"
        },
        {
          "indexed": true,
          "internalType": "address",
          "name": "to",
          "type": "address"
        },
        {
          "indexed": false,
          "internalType": "uint256",
          "name": "value",
          "type": "uint256"
        }
      ],
      "name": "Transfer",
      "type": "event"
    },
    {
      "inputs": [],
      "name": "DEFAULT_ADMIN_ROLE",
      "outputs": [
        {
          "internalType": "bytes32",
          "name": "",
          "type": "bytes32"
        }
      ],
      "stateMutability": "view",
      "type": "function"
    },
    {
      "inputs": [],
      "name": "MINTER_ROLE",
      "outputs": [
        {
          "internalType": "bytes32",
          "name": "",
          "type": "bytes32"
        }
      ],
      "stateMutability": "view",
      "type": "function"
    },
    {
      "inputs": [],
      "name": "_INTERFACE_ID_ERC20",
      "outputs": [
        {
          "internalType": "bytes4",
          "name": "",
          "type": "bytes4"
        }
      ],
      "stateMutability": "view",
      "type": "function"
    },
    {
      "inputs": [
        {
          "internalType": "bytes4",
          "name": "",
          "type": "bytes4"
        }
      ],
      "name": "_supportedInterfaces",
      "outputs": [
        {
          "internalType": "bool",
          "name": "",
          "type": "bool"
        }
      ],
      "stateMutability": "view",
      "type": "function"
    },
    {
      "inputs": [
        {
          "internalType": "address",
          "name": "owner",
          "type": "address"
        },
        {
          "internalType": "address",
          "name": "spender",
          "type": "address"
        }
      ],
      "name": "allowance",
      "outputs": [
        {
          "internalType": "uint256",
          "name": "",
          "type": "uint256"
        }
      ],
      "stateMutability": "view",
      "type": "function"
    },
    {
      "inputs": [
        {
          "internalType": "address",
          "name": "spender",
          "type": "address"
        },
        {
          "internalType": "uint256",
          "name": "amount",
          "type": "uint256"
        }
      ],
      "name": "approve",
      "outputs": [
        {
          "internalType": "bool",
          "name": "",
          "type": "bool"
        }
      ],
      "stateMutability": "nonpayable",
      "type": "function"
    },
    {
      "inputs": [
        {
          "internalType": "address",
          "name": "spender",
          "type": "address"
        },
        {
          "internalType": "uint256",
          "name": "amount",
          "type": "uint256"
        },
        {
          "internalType": "bytes",
          "name": "data",
          "type": "bytes"
        }
      ],
      "name": "approveAndCall",
      "outputs": [
        {
          "internalType": "bool",
          "name": "",
          "type": "bool"
        }
      ],
      "stateMutability": "nonpayable",
      "type": "function"
    },
    {
      "inputs": [
        {
          "internalType": "address",
          "name": "account",
          "type": "address"
        }
      ],
      "name": "balanceOf",
      "outputs": [
        {
          "internalType": "uint256",
          "name": "",
          "type": "uint256"
        }
      ],
      "stateMutability": "view",
      "type": "function"
    },
    {
      "inputs": [
        {
          "internalType": "uint256",
          "name": "amount",
          "type": "uint256"
        }
      ],
      "name": "burn",
      "outputs": [],
      "stateMutability": "nonpayable",
      "type": "function"
    },
    {
      "inputs": [
        {
          "internalType": "address",
          "name": "account",
          "type": "address"
        },
        {
          "internalType": "uint256",
          "name": "amount",
          "type": "uint256"
        }
      ],
      "name": "burnFrom",
      "outputs": [],
      "stateMutability": "nonpayable",
      "type": "function"
    },
    {
      "inputs": [],
      "name": "decimals",
      "outputs": [
        {
          "internalType": "uint8",
          "name": "",
          "type": "uint8"
        }
      ],
      "stateMutability": "view",
      "type": "function"
    },
    {
      "inputs": [
        {
          "internalType": "address",
          "name": "spender",
          "type": "address"
        },
        {
          "internalType": "uint256",
          "name": "subtractedValue",
          "type": "uint256"
        }
      ],
      "name": "decreaseAllowance",
      "outputs": [
        {
          "internalType": "bool",
          "name": "",
          "type": "bool"
        }
      ],
      "stateMutability": "nonpayable",
      "type": "function"
    },
    {
      "inputs": [
        {
          "internalType": "bytes32",
          "name": "role",
          "type": "bytes32"
        }
      ],
      "name": "getRoleAdmin",
      "outputs": [
        {
          "internalType": "bytes32",
          "name": "",
          "type": "bytes32"
        }
      ],
      "stateMutability": "view",
      "type": "function"
    },
    {
      "inputs": [
        {
          "internalType": "bytes32",
          "name": "role",
          "type": "bytes32"
        },
        {
          "internalType": "address",
          "name": "account",
          "type": "address"
        }
      ],
      "name": "grantRole",
      "outputs": [],
      "stateMutability": "nonpayable",
      "type": "function"
    },
    {
      "inputs": [
        {
          "internalType": "bytes32",
          "name": "role",
          "type": "bytes32"
        },
        {
          "internalType": "address",
          "name": "account",
          "type": "address"
        }
      ],
      "name": "hasRole",
      "outputs": [
        {
          "internalType": "bool",
          "name": "",
          "type": "bool"
        }
      ],
      "stateMutability": "view",
      "type": "function"
    },
    {
      "inputs": [
        {
          "internalType": "address",
          "name": "spender",
          "type": "address"
        },
        {
          "internalType": "uint256",
          "name": "addedValue",
          "type": "uint256"
        }
      ],
      "name": "increaseAllowance",
      "outputs": [
        {
          "internalType": "bool",
          "name": "",
          "type": "bool"
        }
      ],
      "stateMutability": "nonpayable",
      "type": "function"
    },
    {
      "inputs": [
        {
          "internalType": "address",
          "name": "account",
          "type": "address"
        },
        {
          "internalType": "uint256",
          "name": "amount",
          "type": "uint256"
        }
      ],
      "name": "mint",
      "outputs": [
        {
          "internalType": "bool",
          "name": "",
          "type": "bool"
        }
      ],
      "stateMutability": "nonpayable",
      "type": "function"
    },
    {
      "inputs": [],
      "name": "name",
      "outputs": [
        {
          "internalType": "string",
          "name": "",
          "type": "string"
        }
      ],
      "stateMutability": "view",
      "type": "function"
    },
    {
      "inputs": [
        {
          "internalType": "bytes32",
          "name": "role",
          "type": "bytes32"
        },
        {
          "internalType": "address",
          "name": "account",
          "type": "address"
        }
      ],
      "name": "renounceRole",
      "outputs": [],
      "stateMutability": "nonpayable",
      "type": "function"
    },
    {
      "inputs": [
        {
          "internalType": "bytes32",
          "name": "role",
          "type": "bytes32"
        },
        {
          "internalType": "address",
          "name": "account",
          "type": "address"
        }
      ],
      "name": "revokeRole",
      "outputs": [],
      "stateMutability": "nonpayable",
      "type": "function"
    },
    {
      "inputs": [
        {
          "internalType": "address",
          "name": "recipient",
          "type": "address"
        },
        {
          "internalType": "uint256",
          "name": "amount",
          "type": "uint256"
        }
      ],
      "name": "safeTransfer",
      "outputs": [],
      "stateMutability": "nonpayable",
      "type": "function"
    },
    {
      "inputs": [
        {
          "internalType": "address",
          "name": "recipient",
          "type": "address"
        },
        {
          "internalType": "uint256",
          "name": "amount",
          "type": "uint256"
        },
        {
          "internalType": "bytes",
          "name": "data",
          "type": "bytes"
        }
      ],
      "name": "safeTransfer",
      "outputs": [],
      "stateMutability": "nonpayable",
      "type": "function"
    },
    {
      "inputs": [
        {
          "internalType": "address",
          "name": "sender",
          "type": "address"
        },
        {
          "internalType": "address",
          "name": "recipient",
          "type": "address"
        },
        {
          "internalType": "uint256",
          "name": "amount",
          "type": "uint256"
        }
      ],
      "name": "safeTransferFrom",
      "outputs": [],
      "stateMutability": "nonpayable",
      "type": "function"
    },
    {
      "inputs": [
        {
          "internalType": "address",
          "name": "sender",
          "type": "address"
        },
        {
          "internalType": "address",
          "name": "recipient",
          "type": "address"
        },
        {
          "internalType": "uint256",
          "name": "amount",
          "type": "uint256"
        },
        {
          "internalType": "bytes",
          "name": "data",
          "type": "bytes"
        }
      ],
      "name": "safeTransferFrom",
      "outputs": [],
      "stateMutability": "nonpayable",
      "type": "function"
    },
    {
      "inputs": [
        {
          "internalType": "bytes4",
          "name": "interfaceId",
          "type": "bytes4"
        }
      ],
      "name": "supportsInterface",
      "outputs": [
        {
          "internalType": "bool",
          "name": "",
          "type": "bool"
        }
      ],
      "stateMutability": "view",
      "type": "function"
    },
    {
      "inputs": [],
      "name": "symbol",
      "outputs": [
        {
          "internalType": "string",
          "name": "",
          "type": "string"
        }
      ],
      "stateMutability": "view",
      "type": "function"
    },
    {
      "inputs": [],
      "name": "totalSupply",
      "outputs": [
        {
          "internalType": "uint256",
          "name": "",
          "type": "uint256"
        }
      ],
      "stateMutability": "view",
      "type": "function"
    },
    {
      "inputs": [
        {
          "internalType": "address",
          "name": "recipient",
          "type": "address"
        },
        {
          "internalType": "uint256",
          "name": "amount",
          "type": "uint256"
        }
      ],
      "name": "transfer",
      "outputs": [
        {
          "internalType": "bool",
          "name": "",
          "type": "bool"
        }
      ],
      "stateMutability": "nonpayable",
      "type": "function"
    },
    {
      "inputs": [
        {
          "internalType": "address",
          "name": "sender",
          "type": "address"
        },
        {
          "internalType": "address",
          "name": "recipient",
          "type": "address"
        },
        {
          "internalType": "uint256",
          "name": "amount",
          "type": "uint256"
        }
      ],
      "name": "transferFrom",
      "outputs": [
        {
          "internalType": "bool",
          "name": "",
          "type": "bool"
        }
      ],
      "stateMutability": "nonpayable",
      "type": "function"
    }
  ],
  "bytecode": "0x60806040523480156200001157600080fd5b506040516200200538038062002005833981016040819052620000349162000457565b8351849084906200004d906004906020850190620002fe565b50805162000063906005906020840190620002fe565b506200007a9150636578737160e01b9050620000ed565b6200008c6301ffc9a760e01b620000ed565b62000098818362000172565b620000a560008262000258565b620000d17f9f2df0fed2c77648de5860a4cc508cd0818c85b8b8a1ab4ceeef8d981c8956a68262000258565b620000e3634fc3585960e01b620000ed565b5050505062000560565b6001600160e01b031980821614156200014d5760405162461bcd60e51b815260206004820152601c60248201527f4552433136353a20696e76616c696420696e746572666163652069640000000060448201526064015b60405180910390fd5b6001600160e01b0319166000908152600660205260409020805460ff19166001179055565b6001600160a01b038216620001ca5760405162461bcd60e51b815260206004820152601f60248201527f45524332303a206d696e7420746f20746865207a65726f206164647265737300604482015260640162000144565b8060036000828254620001de9190620004e8565b90915550506001600160a01b038216600090815260016020526040812080548392906200020d908490620004e8565b90915550506040518181526001600160a01b038316906000907fddf252ad1be2c89b69c2b068fc378daa952ba7f163c4a11628f55a4df523b3ef9060200160405180910390a35b5050565b6200025482826000828152602081815260408083206001600160a01b038516845290915290205460ff1662000254576000828152602081815260408083206001600160a01b03851684529091529020805460ff19166001179055620002ba3390565b6001600160a01b0316816001600160a01b0316837f2f8788117e7eff1d82e926ec794901d17c78024a50270940304540a733656f0d60405160405180910390a45050565b8280546200030c906200050d565b90600052602060002090601f0160209004810192826200033057600085556200037b565b82601f106200034b57805160ff19168380011785556200037b565b828001600101855582156200037b579182015b828111156200037b5782518255916020019190600101906200035e565b50620003899291506200038d565b5090565b5b808211156200038957600081556001016200038e565b600082601f830112620003b5578081fd5b81516001600160401b0380821115620003d257620003d26200054a565b604051601f8301601f19908116603f01168101908282118183101715620003fd57620003fd6200054a565b8160405283815260209250868385880101111562000419578485fd5b8491505b838210156200043c57858201830151818301840152908201906200041d565b838211156200044d57848385830101525b9695505050505050565b600080600080608085870312156200046d578384fd5b84516001600160401b038082111562000484578586fd5b6200049288838901620003a4565b95506020870151915080821115620004a8578485fd5b50620004b787828801620003a4565b60408701516060880151919550935090506001600160a01b0381168114620004dd578182fd5b939692955090935050565b600082198211156200050857634e487b7160e01b81526011600452602481fd5b500190565b600181811c908216806200052257607f821691505b602082108114156200054457634e487b7160e01b600052602260045260246000fd5b50919050565b634e487b7160e01b600052604160045260246000fd5b611a9580620005706000396000f3fe608060405234801561001057600080fd5b506004361061018f5760003560e01c806370a08231116100e4578063a9059cbb11610092578063a9059cbb1461034f578063b88d4fde14610362578063cae9ca5114610375578063d539139314610388578063d547741f146103af578063dd62ed3e146103c2578063eb795549146103fb578063ef1944351461040e57600080fd5b806370a08231146102c257806379cc6790146102eb57806391d14854146102fe5780639321478c1461031157806395d89b411461032c578063a217fddf14610334578063a457c2d71461033c57600080fd5b8063313ce56711610141578063313ce5671461024157806336568abe14610250578063395093511461026357806340c10f1914610276578063423f6cef1461028957806342842e0e1461029c57806342966c68146102af57600080fd5b806301ffc9a71461019457806306fdde03146101bc578063095ea7b3146101d157806318160ddd146101e457806323b872dd146101f6578063248a9ca3146102095780632f2ff15d1461022c575b600080fd5b6101a76101a2366004611797565b610431565b60405190151581526020015b60405180910390f35b6101c4610463565b6040516101b391906118ce565b6101a76101df3660046116bf565b6104f5565b6003545b6040519081526020016101b3565b6101a761020436600461161e565b61050b565b6101e861021736600461175d565b60009081526020819052604090206001015490565b61023f61023a366004611775565b6105ba565b005b604051601281526020016101b3565b61023f61025e366004611775565b6105e5565b6101a76102713660046116bf565b610663565b6101a76102843660046116bf565b61069f565b61023f6102973660046116bf565b6106e0565b61023f6102aa36600461161e565b6106fa565b61023f6102bd36600461175d565b610715565b6101e86102d03660046115d2565b6001600160a01b031660009081526001602052604090205490565b61023f6102f93660046116bf565b610722565b6101a761030c366004611775565b6107a3565b61031f636578737160e01b81565b6040516101b391906118b9565b6101c46107cc565b6101e8600081565b6101a761034a3660046116bf565b6107db565b6101a761035d3660046116bf565b61086a565b61023f610370366004611659565b610877565b6101a76103833660046116e8565b6108b1565b6101e87f9f2df0fed2c77648de5860a4cc508cd0818c85b8b8a1ab4ceeef8d981c8956a681565b61023f6103bd366004611775565b6108d2565b6101e86103d03660046115ec565b6001600160a01b03918216600090815260026020908152604080832093909416825291909152205490565b61023f6104093660046116e8565b6108f8565b6101a761041c366004611797565b60066020526000908152604090205460ff1681565b6001600160e01b0319811660009081526006602052604081205460ff168061045d575061045d8261092b565b92915050565b606060048054610472906119c2565b80601f016020809104026020016040519081016040528092919081815260200182805461049e906119c2565b80156104eb5780601f106104c0576101008083540402835291602001916104eb565b820191906000526020600020905b8154815290600101906020018083116104ce57829003601f168201915b5050505050905090565b6000610502338484610960565b50600192915050565b6000610518848484610a84565b6001600160a01b0384166000908152600260209081526040808320338452909152902054828110156105a25760405162461bcd60e51b815260206004820152602860248201527f45524332303a207472616e7366657220616d6f756e74206578636565647320616044820152676c6c6f77616e636560c01b60648201526084015b60405180910390fd5b6105af8533858403610960565b506001949350505050565b6000828152602081905260409020600101546105d68133610c40565b6105e08383610ca4565b505050565b6001600160a01b03811633146106555760405162461bcd60e51b815260206004820152602f60248201527f416363657373436f6e74726f6c3a2063616e206f6e6c792072656e6f756e636560448201526e103937b632b9903337b91039b2b63360891b6064820152608401610599565b61065f8282610d28565b5050565b3360008181526002602090815260408083206001600160a01b0387168452909152812054909161050291859061069a908690611931565b610960565b60007f9f2df0fed2c77648de5860a4cc508cd0818c85b8b8a1ab4ceeef8d981c8956a66106cc8133610c40565b6106d68484610d8d565b5060019392505050565b61065f8282604051806020016040528060008152506108f8565b6105e083838360405180602001604052806000815250610877565b61071f3382610e5a565b50565b600061072e83336103d0565b90508181101561078c5760405162461bcd60e51b8152602060048201526024808201527f45524332303a206275726e20616d6f756e74206578636565647320616c6c6f77604482015263616e636560e01b6064820152608401610599565b6107998333848403610960565b6105e08383610e5a565b6000918252602082815260408084206001600160a01b0393909316845291905290205460ff1690565b606060058054610472906119c2565b3360009081526002602090815260408083206001600160a01b03861684529091528120548281101561085d5760405162461bcd60e51b815260206004820152602560248201527f45524332303a2064656372656173656420616c6c6f77616e63652062656c6f77604482015264207a65726f60d81b6064820152608401610599565b6106d63385858403610960565b6000610502338484610a84565b61088284848461050b565b5061088f84848484610f96565b6108ab5760405162461bcd60e51b8152600401610599906118e1565b50505050565b60006108bd84846104f5565b6108c657600080fd5b6106d633858585611055565b6000828152602081905260409020600101546108ee8133610c40565b6105e08383610d28565b610902838361086a565b5061090f33848484610f96565b6105e05760405162461bcd60e51b8152600401610599906118e1565b60006001600160e01b03198216637965db0b60e01b148061045d57506301ffc9a760e01b6001600160e01b031983161461045d565b6001600160a01b0383166109c25760405162461bcd60e51b8152602060048201526024808201527f45524332303a20617070726f76652066726f6d20746865207a65726f206164646044820152637265737360e01b6064820152608401610599565b6001600160a01b038216610a235760405162461bcd60e51b815260206004820152602260248201527f45524332303a20617070726f766520746f20746865207a65726f206164647265604482015261737360f01b6064820152608401610599565b6001600160a01b0383811660008181526002602090815260408083209487168084529482529182902085905590518481527f8c5be1e5ebec7d5bd14f71427d1e84f3dd0314c0f7b2291e5b200ac8c7c3b925910160405180910390a3505050565b6001600160a01b038316610ae85760405162461bcd60e51b815260206004820152602560248201527f45524332303a207472616e736665722066726f6d20746865207a65726f206164604482015264647265737360d81b6064820152608401610599565b6001600160a01b038216610b4a5760405162461bcd60e51b815260206004820152602360248201527f45524332303a207472616e7366657220746f20746865207a65726f206164647260448201526265737360e81b6064820152608401610599565b6001600160a01b03831660009081526001602052604090205481811015610bc25760405162461bcd60e51b815260206004820152602660248201527f45524332303a207472616e7366657220616d6f756e7420657863656564732062604482015265616c616e636560d01b6064820152608401610599565b6001600160a01b03808516600090815260016020526040808220858503905591851681529081208054849290610bf9908490611931565b92505081905550826001600160a01b0316846001600160a01b0316600080516020611a4083398151915284604051610c3391815260200190565b60405180910390a36108ab565b610c4a82826107a3565b61065f57610c62816001600160a01b03166014611206565b610c6d836020611206565b604051602001610c7e929190611817565b60408051601f198184030181529082905262461bcd60e51b8252610599916004016118ce565b610cae82826107a3565b61065f576000828152602081815260408083206001600160a01b03851684529091529020805460ff19166001179055610ce43390565b6001600160a01b0316816001600160a01b0316837f2f8788117e7eff1d82e926ec794901d17c78024a50270940304540a733656f0d60405160405180910390a45050565b610d3282826107a3565b1561065f576000828152602081815260408083206001600160a01b0385168085529252808320805460ff1916905551339285917ff6391f5c32d9c69d2a47ea670b442974b53935d1edc7fd64eb21e047a839171b9190a45050565b6001600160a01b038216610de35760405162461bcd60e51b815260206004820152601f60248201527f45524332303a206d696e7420746f20746865207a65726f2061646472657373006044820152606401610599565b8060036000828254610df59190611931565b90915550506001600160a01b03821660009081526001602052604081208054839290610e22908490611931565b90915550506040518181526001600160a01b03831690600090600080516020611a408339815191529060200160405180910390a35050565b6001600160a01b038216610eba5760405162461bcd60e51b815260206004820152602160248201527f45524332303a206275726e2066726f6d20746865207a65726f206164647265736044820152607360f81b6064820152608401610599565b6001600160a01b03821660009081526001602052604090205481811015610f2e5760405162461bcd60e51b815260206004820152602260248201527f45524332303a206275726e20616d6f756e7420657863656564732062616c616e604482015261636560f01b6064820152608401610599565b6001600160a01b0383166000908152600160205260408120838303905560038054849290610f5d908490611968565b90915550506040518281526000906001600160a01b03851690600080516020611a408339815191529060200160405180910390a3505050565b60006001600160a01b0384163b610faf5750600161104d565b604051634fc3585960e01b81526000906001600160a01b03861690634fc3585990610fe49033908a9089908990600401611886565b602060405180830381600087803b158015610ffe57600080fd5b505af1158015611012573d6000803e3d6000fd5b505050506040513d601f19601f8201168201806040525081019061103691906117b3565b6001600160e01b031916634fc3585960e01b149150505b949350505050565b632139e50b60e11b61106784826113ef565b6110cd5760405162461bcd60e51b815260206004820152603160248201527f617070726f7665416e6443616c6c3a207370656e64657220646f65736e277420604482015270737570706f7274206f6e417070726f766560781b6064820152608401610599565b600080856001600160a01b031683888888886040516024016110f29493929190611886565b60408051601f198184030181529181526020820180516001600160e01b03166001600160e01b031990941693909317909252905161113091906117fb565b6000604051808303816000865af19150503d806000811461116d576040519150601f19603f3d011682016040523d82523d6000602084013e611172565b606091505b50915091508181906111975760405162461bcd60e51b815260040161059991906118ce565b5060208101519150816111fd5760405162461bcd60e51b815260206004820152602860248201527f617070726f7665416e6443616c6c3a206661696c656420746f2063616c6c206f6044820152676e417070726f766560c01b6064820152608401610599565b50505050505050565b60606000611215836002611949565b611220906002611931565b67ffffffffffffffff81111561124657634e487b7160e01b600052604160045260246000fd5b6040519080825280601f01601f191660200182016040528015611270576020820181803683370190505b509050600360fc1b8160008151811061129957634e487b7160e01b600052603260045260246000fd5b60200101906001600160f81b031916908160001a905350600f60fb1b816001815181106112d657634e487b7160e01b600052603260045260246000fd5b60200101906001600160f81b031916908160001a90535060006112fa846002611949565b611305906001611931565b90505b6001811115611399576f181899199a1a9b1b9c1cb0b131b232b360811b85600f166010811061134757634e487b7160e01b600052603260045260246000fd5b1a60f81b82828151811061136b57634e487b7160e01b600052603260045260246000fd5b60200101906001600160f81b031916908160001a90535060049490941c93611392816119ab565b9050611308565b5083156113e85760405162461bcd60e51b815260206004820181905260248201527f537472696e67733a20686578206c656e67746820696e73756666696369656e746044820152606401610599565b9392505050565b60006113fa8361140b565b80156113e857506113e8838361143e565b600061141e826301ffc9a760e01b61143e565b801561045d5750611437826001600160e01b031961143e565b1592915050565b6000806301ffc9a760e01b8360405160240161145a91906118b9565b604051602081830303815290604052906001600160e01b0319166020820180516001600160e01b0383818316178352505050509050600080856001600160a01b0316617530846040516114ad91906117fb565b6000604051808303818686fa925050503d80600081146114e9576040519150601f19603f3d011682016040523d82523d6000602084013e6114ee565b606091505b5091509150602081511015611509576000935050505061045d565b818015611525575080806020019051810190611525919061173d565b9695505050505050565b80356001600160a01b038116811461154657600080fd5b919050565b600082601f83011261155b578081fd5b813567ffffffffffffffff8082111561157657611576611a13565b604051601f8301601f19908116603f0116810190828211818310171561159e5761159e611a13565b816040528381528660208588010111156115b6578485fd5b8360208701602083013792830160200193909352509392505050565b6000602082840312156115e3578081fd5b6113e88261152f565b600080604083850312156115fe578081fd5b6116078361152f565b91506116156020840161152f565b90509250929050565b600080600060608486031215611632578081fd5b61163b8461152f565b92506116496020850161152f565b9150604084013590509250925092565b6000806000806080858703121561166e578081fd5b6116778561152f565b93506116856020860161152f565b925060408501359150606085013567ffffffffffffffff8111156116a7578182fd5b6116b38782880161154b565b91505092959194509250565b600080604083850312156116d1578182fd5b6116da8361152f565b946020939093013593505050565b6000806000606084860312156116fc578283fd5b6117058461152f565b925060208401359150604084013567ffffffffffffffff811115611727578182fd5b6117338682870161154b565b9150509250925092565b60006020828403121561174e578081fd5b815180151581146113e8578182fd5b60006020828403121561176e578081fd5b5035919050565b60008060408385031215611787578182fd5b823591506116156020840161152f565b6000602082840312156117a8578081fd5b81356113e881611a29565b6000602082840312156117c4578081fd5b81516113e881611a29565b600081518084526117e781602086016020860161197f565b601f01601f19169290920160200192915050565b6000825161180d81846020870161197f565b9190910192915050565b76020b1b1b2b9b9a1b7b73a3937b61d1030b1b1b7bab73a1604d1b81526000835161184981601785016020880161197f565b7001034b99036b4b9b9b4b733903937b6329607d1b601791840191820152835161187a81602884016020880161197f565b01602801949350505050565b6001600160a01b0385811682528416602082015260408101839052608060608201819052600090611525908301846117cf565b6001600160e01b031991909116815260200190565b6020815260006113e860208301846117cf565b60208082526030908201527f45524332303a207472616e7366657220746f206e6f6e2045524332305265636560408201526f34bb32b91034b6b83632b6b2b73a32b960811b606082015260800190565b60008219821115611944576119446119fd565b500190565b6000816000190483118215151615611963576119636119fd565b500290565b60008282101561197a5761197a6119fd565b500390565b60005b8381101561199a578181015183820152602001611982565b838111156108ab5750506000910152565b6000816119ba576119ba6119fd565b506000190190565b600181811c908216806119d657607f821691505b602082108114156119f757634e487b7160e01b600052602260045260246000fd5b50919050565b634e487b7160e01b600052601160045260246000fd5b634e487b7160e01b600052604160045260246000fd5b6001600160e01b03198116811461071f57600080fdfeddf252ad1be2c89b69c2b068fc378daa952ba7f163c4a11628f55a4df523b3efa26469706673582212209a105b7889c74122bbb79c33cc8ed44211839b5725596759cf3b74ec84392a6d64736f6c63430008040033",
  "linkReferences": {},
  "deployedLinkReferences": {}
}