{
  "_format": "hh-sol-artifact-1",
  "contractName": "ERC20CFactory",
  "sourceName": "contracts/factory/ERC20CFactory.sol",
  "abi": [
    {
      "inputs": [],
      "stateMutability": "nonpayable",
      "type": "constructor"
    },
    {
      "anonymous": false,
      "inputs": [
        {
          "indexed": false,
          "internalType": "address",
          "name": "contractAddress",
          "type": "address"
        },
        {
          "indexed": false,
          "internalType": "string",
          "name": "name",
          "type": "string"
        },
        {
          "indexed": false,
          "internalType": "string",
          "name": "symbol",
          "type": "string"
        }
      ],
      "name": "CreatedERC20C",
      "type": "event"
    },
    {
      "anonymous": false,
      "inputs": [
        {
          "indexed": true,
          "internalType": "bytes32",
          "name": "role",
          "type": "bytes32"
        },
        {
          "indexed": true,
          "internalType": "bytes32",
          "name": "previousAdminRole",
          "type": "bytes32"
        },
        {
          "indexed": true,
          "internalType": "bytes32",
          "name": "newAdminRole",
          "type": "bytes32"
        }
      ],
      "name": "RoleAdminChanged",
      "type": "event"
    },
    {
      "anonymous": false,
      "inputs": [
        {
          "indexed": true,
          "internalType": "bytes32",
          "name": "role",
          "type": "bytes32"
        },
        {
          "indexed": true,
          "internalType": "address",
          "name": "account",
          "type": "address"
        },
        {
          "indexed": true,
          "internalType": "address",
          "name": "sender",
          "type": "address"
        }
      ],
      "name": "RoleGranted",
      "type": "event"
    },
    {
      "anonymous": false,
      "inputs": [
        {
          "indexed": true,
          "internalType": "bytes32",
          "name": "role",
          "type": "bytes32"
        },
        {
          "indexed": true,
          "internalType": "address",
          "name": "account",
          "type": "address"
        },
        {
          "indexed": true,
          "internalType": "address",
          "name": "sender",
          "type": "address"
        }
      ],
      "name": "RoleRevoked",
      "type": "event"
    },
    {
      "inputs": [],
      "name": "DEFAULT_ADMIN_ROLE",
      "outputs": [
        {
          "internalType": "bytes32",
          "name": "",
          "type": "bytes32"
        }
      ],
      "stateMutability": "view",
      "type": "function"
    },
    {
      "inputs": [],
      "name": "MINTER_ROLE",
      "outputs": [
        {
          "internalType": "bytes32",
          "name": "",
          "type": "bytes32"
        }
      ],
      "stateMutability": "view",
      "type": "function"
    },
    {
      "inputs": [
        {
          "internalType": "string",
          "name": "name",
          "type": "string"
        },
        {
          "internalType": "string",
          "name": "symbol",
          "type": "string"
        },
        {
          "internalType": "uint256",
          "name": "initialSupply",
          "type": "uint256"
        },
        {
          "internalType": "address",
          "name": "owner",
          "type": "address"
        }
      ],
      "name": "create",
      "outputs": [
        {
          "internalType": "address",
          "name": "",
          "type": "address"
        }
      ],
      "stateMutability": "nonpayable",
      "type": "function"
    },
    {
      "inputs": [
        {
          "internalType": "uint256",
          "name": "",
          "type": "uint256"
        }
      ],
      "name": "createdContracts",
      "outputs": [
        {
          "internalType": "address",
          "name": "contractAddress",
          "type": "address"
        },
        {
          "internalType": "string",
          "name": "name",
          "type": "string"
        },
        {
          "internalType": "string",
          "name": "symbol",
          "type": "string"
        }
      ],
      "stateMutability": "view",
      "type": "function"
    },
    {
      "inputs": [
        {
          "internalType": "uint256",
          "name": "_index",
          "type": "uint256"
        }
      ],
      "name": "getContracts",
      "outputs": [
        {
          "internalType": "address",
          "name": "contractAddress",
          "type": "address"
        },
        {
          "internalType": "string",
          "name": "name",
          "type": "string"
        },
        {
          "internalType": "string",
          "name": "symbol",
          "type": "string"
        }
      ],
      "stateMutability": "view",
      "type": "function"
    },
    {
      "inputs": [
        {
          "internalType": "bytes32",
          "name": "role",
          "type": "bytes32"
        }
      ],
      "name": "getRoleAdmin",
      "outputs": [
        {
          "internalType": "bytes32",
          "name": "",
          "type": "bytes32"
        }
      ],
      "stateMutability": "view",
      "type": "function"
    },
    {
      "inputs": [
        {
          "internalType": "bytes32",
          "name": "role",
          "type": "bytes32"
        },
        {
          "internalType": "address",
          "name": "account",
          "type": "address"
        }
      ],
      "name": "grantRole",
      "outputs": [],
      "stateMutability": "nonpayable",
      "type": "function"
    },
    {
      "inputs": [
        {
          "internalType": "bytes32",
          "name": "role",
          "type": "bytes32"
        },
        {
          "internalType": "address",
          "name": "account",
          "type": "address"
        }
      ],
      "name": "hasRole",
      "outputs": [
        {
          "internalType": "bool",
          "name": "",
          "type": "bool"
        }
      ],
      "stateMutability": "view",
      "type": "function"
    },
    {
      "inputs": [],
      "name": "lastestCreated",
      "outputs": [
        {
          "internalType": "address",
          "name": "contractAddress",
          "type": "address"
        },
        {
          "internalType": "string",
          "name": "name",
          "type": "string"
        },
        {
          "internalType": "string",
          "name": "symbol",
          "type": "string"
        }
      ],
      "stateMutability": "view",
      "type": "function"
    },
    {
      "inputs": [
        {
          "internalType": "bytes32",
          "name": "role",
          "type": "bytes32"
        },
        {
          "internalType": "address",
          "name": "account",
          "type": "address"
        }
      ],
      "name": "renounceRole",
      "outputs": [],
      "stateMutability": "nonpayable",
      "type": "function"
    },
    {
      "inputs": [
        {
          "internalType": "bytes32",
          "name": "role",
          "type": "bytes32"
        },
        {
          "internalType": "address",
          "name": "account",
          "type": "address"
        }
      ],
      "name": "revokeRole",
      "outputs": [],
      "stateMutability": "nonpayable",
      "type": "function"
    },
    {
      "inputs": [
        {
          "internalType": "bytes4",
          "name": "interfaceId",
          "type": "bytes4"
        }
      ],
      "name": "supportsInterface",
      "outputs": [
        {
          "internalType": "bool",
          "name": "",
          "type": "bool"
        }
      ],
      "stateMutability": "view",
      "type": "function"
    },
    {
      "inputs": [],
      "name": "totalCreatedContracts",
      "outputs": [
        {
          "internalType": "uint256",
          "name": "",
          "type": "uint256"
        }
      ],
      "stateMutability": "view",
      "type": "function"
    }
  ],
  "bytecode": "0x608060405234801561001057600080fd5b5061001c600033610026565b60006001556100d2565b6100308282610034565b5050565b6000828152602081815260408083206001600160a01b038516845290915290205460ff16610030576000828152602081815260408083206001600160a01b03851684529091529020805460ff1916600117905561008e3390565b6001600160a01b0316816001600160a01b0316837f2f8788117e7eff1d82e926ec794901d17c78024a50270940304540a733656f0d60405160405180910390a45050565b613460806100e16000396000f3fe60806040523480156200001157600080fd5b5060043610620000cf5760003560e01c8063439e23fd1162000086578063439e23fd14620001975780634692ed6714620001ae57806391d1485414620001de578063a217fddf14620001f5578063d052618714620001fe578063d53913931462000208578063d547741f146200023057600080fd5b806301ffc9a714620000d4578063088113971462000100578063248a9ca314620001285780632f2ff15d146200015d578063338bad5f146200017657806336568abe1462000180575b600080fd5b620000eb620000e53660046200109e565b62000247565b60405190151581526020015b60405180910390f35b620001176200011136600462001057565b6200027f565b604051620000f79392919062001268565b6200014e6200013936600462001057565b60009081526020819052604090206001015490565b604051908152602001620000f7565b620001746200016e36600462001070565b620003cc565b005b62000117620003fb565b620001746200019136600462001070565b620005e0565b62000117620001a836600462001057565b62000666565b620001c5620001bf366004620010c8565b620007fb565b6040516001600160a01b039091168152602001620000f7565b620000eb620001ef36600462001070565b62000b8d565b6200014e600081565b6200014e60015481565b6200014e7f9f2df0fed2c77648de5860a4cc508cd0818c85b8b8a1ab4ceeef8d981c8956a681565b620001746200024136600462001070565b62000bb6565b60006001600160e01b03198216637965db0b60e01b14806200027957506301ffc9a760e01b6001600160e01b03198316145b92915050565b600260205260009081526040902080546001820180546001600160a01b039092169291620002ad90620013b4565b80601f0160208091040260200160405190810160405280929190818152602001828054620002db90620013b4565b80156200032c5780601f1062000300576101008083540402835291602001916200032c565b820191906000526020600020905b8154815290600101906020018083116200030e57829003601f168201915b5050505050908060020180546200034390620013b4565b80601f01602080910402602001604051908101604052809291908181526020018280546200037190620013b4565b8015620003c25780601f106200039657610100808354040283529160200191620003c2565b820191906000526020600020905b815481529060010190602001808311620003a457829003601f168201915b5050505050905083565b600082815260208190526040902060010154620003ea813362000be0565b620003f6838362000c4f565b505050565b600060608060006001541115620005bc5760026000600180546200042091906200134d565b81526020810191909152604001600090812054600180546001600160a01b0390921692600292909162000453916200134d565b815260200190815260200160002060010160026000600180546200047891906200134d565b81526020019081526020016000206002018180546200049790620013b4565b80601f0160208091040260200160405190810160405280929190818152602001828054620004c590620013b4565b8015620005165780601f10620004ea5761010080835404028352916020019162000516565b820191906000526020600020905b815481529060010190602001808311620004f857829003601f168201915b505050505091508080546200052b90620013b4565b80601f01602080910402602001604051908101604052809291908181526020018280546200055990620013b4565b8015620005aa5780601f106200057e57610100808354040283529160200191620005aa565b820191906000526020600020905b8154815290600101906020018083116200058c57829003601f168201915b50505050509050925092509250909192565b50506040805160208082018352600080835283519182019093528281529193909250565b6001600160a01b0381163314620006565760405162461bcd60e51b815260206004820152602f60248201527f416363657373436f6e74726f6c3a2063616e206f6e6c792072656e6f756e636560448201526e103937b632b9903337b91039b2b63360891b60648201526084015b60405180910390fd5b62000662828262000cd7565b5050565b6000606080600154841015620007d257600084815260026020819052604090912080546001820180546001600160a01b0390921693909201908290620006ac90620013b4565b80601f0160208091040260200160405190810160405280929190818152602001828054620006da90620013b4565b80156200072b5780601f10620006ff576101008083540402835291602001916200072b565b820191906000526020600020905b8154815290600101906020018083116200070d57829003601f168201915b505050505091508080546200074090620013b4565b80601f01602080910402602001604051908101604052809291908181526020018280546200076e90620013b4565b8015620007bf5780601f106200079357610100808354040283529160200191620007bf565b820191906000526020600020905b815481529060010190602001808311620007a157829003601f168201915b50505050509050925092509250620007f4565b5050604080516020808201835260008083528351918201909352828152919250905b9193909250565b60006001600160a01b038216620008455760405162461bcd60e51b815260206004820152600d60248201526c6f776e6572206973207a65726f60981b60448201526064016200064d565b85620008845760405162461bcd60e51b815260206004820152600d60248201526c6e616d6520697320656d70747960981b60448201526064016200064d565b83620008c55760405162461bcd60e51b815260206004820152600f60248201526e73796d626f6c20697320656d70747960881b60448201526064016200064d565b6000878787878787604051620008db9062000f3c565b620008ec96959493929190620012ac565b604051809103906000f08015801562000909573d6000803e3d6000fd5b5090506001600160a01b038116620009515760405162461bcd60e51b815260206004820152600a602482015269746f6b656e207a65726f60b01b60448201526064016200064d565b604051631b2b455f60e11b81527f9f2df0fed2c77648de5860a4cc508cd0818c85b8b8a1ab4ceeef8d981c8956a660048201523060248201526001600160a01b038216906336568abe90604401600060405180830381600087803b158015620009b957600080fd5b505af1158015620009ce573d6000803e3d6000fd5b5050604051631b2b455f60e11b8152600060048201523060248201526001600160a01b03841692506336568abe9150604401600060405180830381600087803b15801562000a1b57600080fd5b505af115801562000a30573d6000803e3d6000fd5b505050506040518060600160405280826001600160a01b0316815260200189898080601f016020809104026020016040519081016040528093929190818152602001838380828437600092019190915250505090825250604080516020601f8a01819004810282018101909252888152918101919089908990819084018382808284376000920182905250939094525050600180548252600260209081526040909220845181546001600160a01b0319166001600160a01b0390911617815584830151805191945062000b099392850192019062000f4a565b506040820151805162000b2791600284019160209091019062000f4a565b5050600180549150600062000b3c83620013f1565b91905055507f9e79d915d10d3978b029cdc05c14595ddb9f1e382ae10d123fa590c89684d3e2818989898960405162000b7a95949392919062001220565b60405180910390a1979650505050505050565b6000918252602082815260408084206001600160a01b0393909316845291905290205460ff1690565b60008281526020819052604090206001015462000bd4813362000be0565b620003f6838362000cd7565b62000bec828262000b8d565b620006625762000c07816001600160a01b0316601462000d3f565b62000c1483602062000d3f565b60405160200162000c27929190620011ad565b60408051601f198184030181529082905262461bcd60e51b82526200064d91600401620012fb565b62000c5b828262000b8d565b62000662576000828152602081815260408083206001600160a01b03851684529091529020805460ff1916600117905562000c933390565b6001600160a01b0316816001600160a01b0316837f2f8788117e7eff1d82e926ec794901d17c78024a50270940304540a733656f0d60405160405180910390a45050565b62000ce3828262000b8d565b1562000662576000828152602081815260408083206001600160a01b0385168085529252808320805460ff1916905551339285917ff6391f5c32d9c69d2a47ea670b442974b53935d1edc7fd64eb21e047a839171b9190a45050565b6060600062000d508360026200132b565b62000d5d90600262001310565b67ffffffffffffffff81111562000d8457634e487b7160e01b600052604160045260246000fd5b6040519080825280601f01601f19166020018201604052801562000daf576020820181803683370190505b509050600360fc1b8160008151811062000dd957634e487b7160e01b600052603260045260246000fd5b60200101906001600160f81b031916908160001a905350600f60fb1b8160018151811062000e1757634e487b7160e01b600052603260045260246000fd5b60200101906001600160f81b031916908160001a905350600062000e3d8460026200132b565b62000e4a90600162001310565b90505b600181111562000ee4576f181899199a1a9b1b9c1cb0b131b232b360811b85600f166010811062000e8e57634e487b7160e01b600052603260045260246000fd5b1a60f81b82828151811062000eb357634e487b7160e01b600052603260045260246000fd5b60200101906001600160f81b031916908160001a90535060049490941c9362000edc816200139a565b905062000e4d565b50831562000f355760405162461bcd60e51b815260206004820181905260248201527f537472696e67733a20686578206c656e67746820696e73756666696369656e7460448201526064016200064d565b9392505050565b612005806200142683390190565b82805462000f5890620013b4565b90600052602060002090601f01602090048101928262000f7c576000855562000fc7565b82601f1062000f9757805160ff191683800117855562000fc7565b8280016001018555821562000fc7579182015b8281111562000fc757825182559160200191906001019062000faa565b5062000fd592915062000fd9565b5090565b5b8082111562000fd5576000815560010162000fda565b80356001600160a01b03811681146200100857600080fd5b919050565b60008083601f8401126200101f578182fd5b50813567ffffffffffffffff81111562001037578182fd5b6020830191508360208285010111156200105057600080fd5b9250929050565b60006020828403121562001069578081fd5b5035919050565b6000806040838503121562001083578081fd5b82359150620010956020840162000ff0565b90509250929050565b600060208284031215620010b0578081fd5b81356001600160e01b03198116811462000f35578182fd5b60008060008060008060808789031215620010e1578182fd5b863567ffffffffffffffff80821115620010f9578384fd5b620011078a838b016200100d565b9098509650602089013591508082111562001120578384fd5b506200112f89828a016200100d565b909550935050604087013591506200114a6060880162000ff0565b90509295509295509295565b81835281816020850137506000828201602090810191909152601f909101601f19169091010190565b600081518084526200119981602086016020860162001367565b601f01601f19169290920160200192915050565b76020b1b1b2b9b9a1b7b73a3937b61d1030b1b1b7bab73a1604d1b815260008351620011e181601785016020880162001367565b7001034b99036b4b9b9b4b733903937b6329607d1b60179184019182015283516200121481602884016020880162001367565b01602801949350505050565b6001600160a01b038616815260606020820181905260009062001247908301868862001156565b82810360408401526200125c81858762001156565b98975050505050505050565b6001600160a01b03841681526060602082018190526000906200128e908301856200117f565b8281036040840152620012a281856200117f565b9695505050505050565b608081526000620012c260808301888a62001156565b8281036020840152620012d781878962001156565b604084019590955250506001600160a01b0391909116606090910152949350505050565b60208152600062000f3560208301846200117f565b600082198211156200132657620013266200140f565b500190565b60008160001904831182151516156200134857620013486200140f565b500290565b6000828210156200136257620013626200140f565b500390565b60005b83811015620013845781810151838201526020016200136a565b8381111562001394576000848401525b50505050565b600081620013ac57620013ac6200140f565b506000190190565b600181811c90821680620013c957607f821691505b60208210811415620013eb57634e487b7160e01b600052602260045260246000fd5b50919050565b60006000198214156200140857620014086200140f565b5060010190565b634e487b7160e01b600052601160045260246000fdfe60806040523480156200001157600080fd5b506040516200200538038062002005833981016040819052620000349162000457565b8351849084906200004d906004906020850190620002fe565b50805162000063906005906020840190620002fe565b506200007a9150636578737160e01b9050620000ed565b6200008c6301ffc9a760e01b620000ed565b62000098818362000172565b620000a560008262000258565b620000d17f9f2df0fed2c77648de5860a4cc508cd0818c85b8b8a1ab4ceeef8d981c8956a68262000258565b620000e3634fc3585960e01b620000ed565b5050505062000560565b6001600160e01b031980821614156200014d5760405162461bcd60e51b815260206004820152601c60248201527f4552433136353a20696e76616c696420696e746572666163652069640000000060448201526064015b60405180910390fd5b6001600160e01b0319166000908152600660205260409020805460ff19166001179055565b6001600160a01b038216620001ca5760405162461bcd60e51b815260206004820152601f60248201527f45524332303a206d696e7420746f20746865207a65726f206164647265737300604482015260640162000144565b8060036000828254620001de9190620004e8565b90915550506001600160a01b038216600090815260016020526040812080548392906200020d908490620004e8565b90915550506040518181526001600160a01b038316906000907fddf252ad1be2c89b69c2b068fc378daa952ba7f163c4a11628f55a4df523b3ef9060200160405180910390a35b5050565b6200025482826000828152602081815260408083206001600160a01b038516845290915290205460ff1662000254576000828152602081815260408083206001600160a01b03851684529091529020805460ff19166001179055620002ba3390565b6001600160a01b0316816001600160a01b0316837f2f8788117e7eff1d82e926ec794901d17c78024a50270940304540a733656f0d60405160405180910390a45050565b8280546200030c906200050d565b90600052602060002090601f0160209004810192826200033057600085556200037b565b82601f106200034b57805160ff19168380011785556200037b565b828001600101855582156200037b579182015b828111156200037b5782518255916020019190600101906200035e565b50620003899291506200038d565b5090565b5b808211156200038957600081556001016200038e565b600082601f830112620003b5578081fd5b81516001600160401b0380821115620003d257620003d26200054a565b604051601f8301601f19908116603f01168101908282118183101715620003fd57620003fd6200054a565b8160405283815260209250868385880101111562000419578485fd5b8491505b838210156200043c57858201830151818301840152908201906200041d565b838211156200044d57848385830101525b9695505050505050565b600080600080608085870312156200046d578384fd5b84516001600160401b038082111562000484578586fd5b6200049288838901620003a4565b95506020870151915080821115620004a8578485fd5b50620004b787828801620003a4565b60408701516060880151919550935090506001600160a01b0381168114620004dd578182fd5b939692955090935050565b600082198211156200050857634e487b7160e01b81526011600452602481fd5b500190565b600181811c908216806200052257607f821691505b602082108114156200054457634e487b7160e01b600052602260045260246000fd5b50919050565b634e487b7160e01b600052604160045260246000fd5b611a9580620005706000396000f3fe608060405234801561001057600080fd5b506004361061018f5760003560e01c806370a08231116100e4578063a9059cbb11610092578063a9059cbb1461034f578063b88d4fde14610362578063cae9ca5114610375578063d539139314610388578063d547741f146103af578063dd62ed3e146103c2578063eb795549146103fb578063ef1944351461040e57600080fd5b806370a08231146102c257806379cc6790146102eb57806391d14854146102fe5780639321478c1461031157806395d89b411461032c578063a217fddf14610334578063a457c2d71461033c57600080fd5b8063313ce56711610141578063313ce5671461024157806336568abe14610250578063395093511461026357806340c10f1914610276578063423f6cef1461028957806342842e0e1461029c57806342966c68146102af57600080fd5b806301ffc9a71461019457806306fdde03146101bc578063095ea7b3146101d157806318160ddd146101e457806323b872dd146101f6578063248a9ca3146102095780632f2ff15d1461022c575b600080fd5b6101a76101a2366004611797565b610431565b60405190151581526020015b60405180910390f35b6101c4610463565b6040516101b391906118ce565b6101a76101df3660046116bf565b6104f5565b6003545b6040519081526020016101b3565b6101a761020436600461161e565b61050b565b6101e861021736600461175d565b60009081526020819052604090206001015490565b61023f61023a366004611775565b6105ba565b005b604051601281526020016101b3565b61023f61025e366004611775565b6105e5565b6101a76102713660046116bf565b610663565b6101a76102843660046116bf565b61069f565b61023f6102973660046116bf565b6106e0565b61023f6102aa36600461161e565b6106fa565b61023f6102bd36600461175d565b610715565b6101e86102d03660046115d2565b6001600160a01b031660009081526001602052604090205490565b61023f6102f93660046116bf565b610722565b6101a761030c366004611775565b6107a3565b61031f636578737160e01b81565b6040516101b391906118b9565b6101c46107cc565b6101e8600081565b6101a761034a3660046116bf565b6107db565b6101a761035d3660046116bf565b61086a565b61023f610370366004611659565b610877565b6101a76103833660046116e8565b6108b1565b6101e87f9f2df0fed2c77648de5860a4cc508cd0818c85b8b8a1ab4ceeef8d981c8956a681565b61023f6103bd366004611775565b6108d2565b6101e86103d03660046115ec565b6001600160a01b03918216600090815260026020908152604080832093909416825291909152205490565b61023f6104093660046116e8565b6108f8565b6101a761041c366004611797565b60066020526000908152604090205460ff1681565b6001600160e01b0319811660009081526006602052604081205460ff168061045d575061045d8261092b565b92915050565b606060048054610472906119c2565b80601f016020809104026020016040519081016040528092919081815260200182805461049e906119c2565b80156104eb5780601f106104c0576101008083540402835291602001916104eb565b820191906000526020600020905b8154815290600101906020018083116104ce57829003601f168201915b5050505050905090565b6000610502338484610960565b50600192915050565b6000610518848484610a84565b6001600160a01b0384166000908152600260209081526040808320338452909152902054828110156105a25760405162461bcd60e51b815260206004820152602860248201527f45524332303a207472616e7366657220616d6f756e74206578636565647320616044820152676c6c6f77616e636560c01b60648201526084015b60405180910390fd5b6105af8533858403610960565b506001949350505050565b6000828152602081905260409020600101546105d68133610c40565b6105e08383610ca4565b505050565b6001600160a01b03811633146106555760405162461bcd60e51b815260206004820152602f60248201527f416363657373436f6e74726f6c3a2063616e206f6e6c792072656e6f756e636560448201526e103937b632b9903337b91039b2b63360891b6064820152608401610599565b61065f8282610d28565b5050565b3360008181526002602090815260408083206001600160a01b0387168452909152812054909161050291859061069a908690611931565b610960565b60007f9f2df0fed2c77648de5860a4cc508cd0818c85b8b8a1ab4ceeef8d981c8956a66106cc8133610c40565b6106d68484610d8d565b5060019392505050565b61065f8282604051806020016040528060008152506108f8565b6105e083838360405180602001604052806000815250610877565b61071f3382610e5a565b50565b600061072e83336103d0565b90508181101561078c5760405162461bcd60e51b8152602060048201526024808201527f45524332303a206275726e20616d6f756e74206578636565647320616c6c6f77604482015263616e636560e01b6064820152608401610599565b6107998333848403610960565b6105e08383610e5a565b6000918252602082815260408084206001600160a01b0393909316845291905290205460ff1690565b606060058054610472906119c2565b3360009081526002602090815260408083206001600160a01b03861684529091528120548281101561085d5760405162461bcd60e51b815260206004820152602560248201527f45524332303a2064656372656173656420616c6c6f77616e63652062656c6f77604482015264207a65726f60d81b6064820152608401610599565b6106d63385858403610960565b6000610502338484610a84565b61088284848461050b565b5061088f84848484610f96565b6108ab5760405162461bcd60e51b8152600401610599906118e1565b50505050565b60006108bd84846104f5565b6108c657600080fd5b6106d633858585611055565b6000828152602081905260409020600101546108ee8133610c40565b6105e08383610d28565b610902838361086a565b5061090f33848484610f96565b6105e05760405162461bcd60e51b8152600401610599906118e1565b60006001600160e01b03198216637965db0b60e01b148061045d57506301ffc9a760e01b6001600160e01b031983161461045d565b6001600160a01b0383166109c25760405162461bcd60e51b8152602060048201526024808201527f45524332303a20617070726f76652066726f6d20746865207a65726f206164646044820152637265737360e01b6064820152608401610599565b6001600160a01b038216610a235760405162461bcd60e51b815260206004820152602260248201527f45524332303a20617070726f766520746f20746865207a65726f206164647265604482015261737360f01b6064820152608401610599565b6001600160a01b0383811660008181526002602090815260408083209487168084529482529182902085905590518481527f8c5be1e5ebec7d5bd14f71427d1e84f3dd0314c0f7b2291e5b200ac8c7c3b925910160405180910390a3505050565b6001600160a01b038316610ae85760405162461bcd60e51b815260206004820152602560248201527f45524332303a207472616e736665722066726f6d20746865207a65726f206164604482015264647265737360d81b6064820152608401610599565b6001600160a01b038216610b4a5760405162461bcd60e51b815260206004820152602360248201527f45524332303a207472616e7366657220746f20746865207a65726f206164647260448201526265737360e81b6064820152608401610599565b6001600160a01b03831660009081526001602052604090205481811015610bc25760405162461bcd60e51b815260206004820152602660248201527f45524332303a207472616e7366657220616d6f756e7420657863656564732062604482015265616c616e636560d01b6064820152608401610599565b6001600160a01b03808516600090815260016020526040808220858503905591851681529081208054849290610bf9908490611931565b92505081905550826001600160a01b0316846001600160a01b0316600080516020611a4083398151915284604051610c3391815260200190565b60405180910390a36108ab565b610c4a82826107a3565b61065f57610c62816001600160a01b03166014611206565b610c6d836020611206565b604051602001610c7e929190611817565b60408051601f198184030181529082905262461bcd60e51b8252610599916004016118ce565b610cae82826107a3565b61065f576000828152602081815260408083206001600160a01b03851684529091529020805460ff19166001179055610ce43390565b6001600160a01b0316816001600160a01b0316837f2f8788117e7eff1d82e926ec794901d17c78024a50270940304540a733656f0d60405160405180910390a45050565b610d3282826107a3565b1561065f576000828152602081815260408083206001600160a01b0385168085529252808320805460ff1916905551339285917ff6391f5c32d9c69d2a47ea670b442974b53935d1edc7fd64eb21e047a839171b9190a45050565b6001600160a01b038216610de35760405162461bcd60e51b815260206004820152601f60248201527f45524332303a206d696e7420746f20746865207a65726f2061646472657373006044820152606401610599565b8060036000828254610df59190611931565b90915550506001600160a01b03821660009081526001602052604081208054839290610e22908490611931565b90915550506040518181526001600160a01b03831690600090600080516020611a408339815191529060200160405180910390a35050565b6001600160a01b038216610eba5760405162461bcd60e51b815260206004820152602160248201527f45524332303a206275726e2066726f6d20746865207a65726f206164647265736044820152607360f81b6064820152608401610599565b6001600160a01b03821660009081526001602052604090205481811015610f2e5760405162461bcd60e51b815260206004820152602260248201527f45524332303a206275726e20616d6f756e7420657863656564732062616c616e604482015261636560f01b6064820152608401610599565b6001600160a01b0383166000908152600160205260408120838303905560038054849290610f5d908490611968565b90915550506040518281526000906001600160a01b03851690600080516020611a408339815191529060200160405180910390a3505050565b60006001600160a01b0384163b610faf5750600161104d565b604051634fc3585960e01b81526000906001600160a01b03861690634fc3585990610fe49033908a9089908990600401611886565b602060405180830381600087803b158015610ffe57600080fd5b505af1158015611012573d6000803e3d6000fd5b505050506040513d601f19601f8201168201806040525081019061103691906117b3565b6001600160e01b031916634fc3585960e01b149150505b949350505050565b632139e50b60e11b61106784826113ef565b6110cd5760405162461bcd60e51b815260206004820152603160248201527f617070726f7665416e6443616c6c3a207370656e64657220646f65736e277420604482015270737570706f7274206f6e417070726f766560781b6064820152608401610599565b600080856001600160a01b031683888888886040516024016110f29493929190611886565b60408051601f198184030181529181526020820180516001600160e01b03166001600160e01b031990941693909317909252905161113091906117fb565b6000604051808303816000865af19150503d806000811461116d576040519150601f19603f3d011682016040523d82523d6000602084013e611172565b606091505b50915091508181906111975760405162461bcd60e51b815260040161059991906118ce565b5060208101519150816111fd5760405162461bcd60e51b815260206004820152602860248201527f617070726f7665416e6443616c6c3a206661696c656420746f2063616c6c206f6044820152676e417070726f766560c01b6064820152608401610599565b50505050505050565b60606000611215836002611949565b611220906002611931565b67ffffffffffffffff81111561124657634e487b7160e01b600052604160045260246000fd5b6040519080825280601f01601f191660200182016040528015611270576020820181803683370190505b509050600360fc1b8160008151811061129957634e487b7160e01b600052603260045260246000fd5b60200101906001600160f81b031916908160001a905350600f60fb1b816001815181106112d657634e487b7160e01b600052603260045260246000fd5b60200101906001600160f81b031916908160001a90535060006112fa846002611949565b611305906001611931565b90505b6001811115611399576f181899199a1a9b1b9c1cb0b131b232b360811b85600f166010811061134757634e487b7160e01b600052603260045260246000fd5b1a60f81b82828151811061136b57634e487b7160e01b600052603260045260246000fd5b60200101906001600160f81b031916908160001a90535060049490941c93611392816119ab565b9050611308565b5083156113e85760405162461bcd60e51b815260206004820181905260248201527f537472696e67733a20686578206c656e67746820696e73756666696369656e746044820152606401610599565b9392505050565b60006113fa8361140b565b80156113e857506113e8838361143e565b600061141e826301ffc9a760e01b61143e565b801561045d5750611437826001600160e01b031961143e565b1592915050565b6000806301ffc9a760e01b8360405160240161145a91906118b9565b604051602081830303815290604052906001600160e01b0319166020820180516001600160e01b0383818316178352505050509050600080856001600160a01b0316617530846040516114ad91906117fb565b6000604051808303818686fa925050503d80600081146114e9576040519150601f19603f3d011682016040523d82523d6000602084013e6114ee565b606091505b5091509150602081511015611509576000935050505061045d565b818015611525575080806020019051810190611525919061173d565b9695505050505050565b80356001600160a01b038116811461154657600080fd5b919050565b600082601f83011261155b578081fd5b813567ffffffffffffffff8082111561157657611576611a13565b604051601f8301601f19908116603f0116810190828211818310171561159e5761159e611a13565b816040528381528660208588010111156115b6578485fd5b8360208701602083013792830160200193909352509392505050565b6000602082840312156115e3578081fd5b6113e88261152f565b600080604083850312156115fe578081fd5b6116078361152f565b91506116156020840161152f565b90509250929050565b600080600060608486031215611632578081fd5b61163b8461152f565b92506116496020850161152f565b9150604084013590509250925092565b6000806000806080858703121561166e578081fd5b6116778561152f565b93506116856020860161152f565b925060408501359150606085013567ffffffffffffffff8111156116a7578182fd5b6116b38782880161154b565b91505092959194509250565b600080604083850312156116d1578182fd5b6116da8361152f565b946020939093013593505050565b6000806000606084860312156116fc578283fd5b6117058461152f565b925060208401359150604084013567ffffffffffffffff811115611727578182fd5b6117338682870161154b565b9150509250925092565b60006020828403121561174e578081fd5b815180151581146113e8578182fd5b60006020828403121561176e578081fd5b5035919050565b60008060408385031215611787578182fd5b823591506116156020840161152f565b6000602082840312156117a8578081fd5b81356113e881611a29565b6000602082840312156117c4578081fd5b81516113e881611a29565b600081518084526117e781602086016020860161197f565b601f01601f19169290920160200192915050565b6000825161180d81846020870161197f565b9190910192915050565b76020b1b1b2b9b9a1b7b73a3937b61d1030b1b1b7bab73a1604d1b81526000835161184981601785016020880161197f565b7001034b99036b4b9b9b4b733903937b6329607d1b601791840191820152835161187a81602884016020880161197f565b01602801949350505050565b6001600160a01b0385811682528416602082015260408101839052608060608201819052600090611525908301846117cf565b6001600160e01b031991909116815260200190565b6020815260006113e860208301846117cf565b60208082526030908201527f45524332303a207472616e7366657220746f206e6f6e2045524332305265636560408201526f34bb32b91034b6b83632b6b2b73a32b960811b606082015260800190565b60008219821115611944576119446119fd565b500190565b6000816000190483118215151615611963576119636119fd565b500290565b60008282101561197a5761197a6119fd565b500390565b60005b8381101561199a578181015183820152602001611982565b838111156108ab5750506000910152565b6000816119ba576119ba6119fd565b506000190190565b600181811c908216806119d657607f821691505b602082108114156119f757634e487b7160e01b600052602260045260246000fd5b50919050565b634e487b7160e01b600052601160045260246000fd5b634e487b7160e01b600052604160045260246000fd5b6001600160e01b03198116811461071f57600080fdfeddf252ad1be2c89b69c2b068fc378daa952ba7f163c4a11628f55a4df523b3efa26469706673582212209a105b7889c74122bbb79c33cc8ed44211839b5725596759cf3b74ec84392a6d64736f6c63430008040033a26469706673582212203d88e110145b142bc48439a89a74b662684406abf73ac600e1bac5d0f85cdd2b64736f6c63430008040033",
  "linkReferences": {},
  "deployedLinkReferences": {}
}