{
  "_format": "hh-sol-artifact-1",
  "contractName": "ERC20B",
  "sourceName": "contracts/tokens/ERC20B.sol",
  "abi": [
    {
      "inputs": [
        {
          "internalType": "string",
          "name": "_name",
          "type": "string"
        },
        {
          "internalType": "string",
          "name": "_symbol",
          "type": "string"
        },
        {
          "internalType": "uint256",
          "name": "initialSupply",
          "type": "uint256"
        },
        {
          "internalType": "address",
          "name": "_owner",
          "type": "address"
        }
      ],
      "stateMutability": "nonpayable",
      "type": "constructor"
    },
    {
      "anonymous": false,
      "inputs": [
        {
          "indexed": true,
          "internalType": "address",
          "name": "owner",
          "type": "address"
        },
        {
          "indexed": true,
          "internalType": "address",
          "name": "spender",
          "type": "address"
        },
        {
          "indexed": false,
          "internalType": "uint256",
          "name": "value",
          "type": "uint256"
        }
      ],
      "name": "Approval",
      "type": "event"
    },
    {
      "anonymous": false,
      "inputs": [
        {
          "indexed": true,
          "internalType": "bytes32",
          "name": "role",
          "type": "bytes32"
        },
        {
          "indexed": true,
          "internalType": "bytes32",
          "name": "previousAdminRole",
          "type": "bytes32"
        },
        {
          "indexed": true,
          "internalType": "bytes32",
          "name": "newAdminRole",
          "type": "bytes32"
        }
      ],
      "name": "RoleAdminChanged",
      "type": "event"
    },
    {
      "anonymous": false,
      "inputs": [
        {
          "indexed": true,
          "internalType": "bytes32",
          "name": "role",
          "type": "bytes32"
        },
        {
          "indexed": true,
          "internalType": "address",
          "name": "account",
          "type": "address"
        },
        {
          "indexed": true,
          "internalType": "address",
          "name": "sender",
          "type": "address"
        }
      ],
      "name": "RoleGranted",
      "type": "event"
    },
    {
      "anonymous": false,
      "inputs": [
        {
          "indexed": true,
          "internalType": "bytes32",
          "name": "role",
          "type": "bytes32"
        },
        {
          "indexed": true,
          "internalType": "address",
          "name": "account",
          "type": "address"
        },
        {
          "indexed": true,
          "internalType": "address",
          "name": "sender",
          "type": "address"
        }
      ],
      "name": "RoleRevoked",
      "type": "event"
    },
    {
      "anonymous": false,
      "inputs": [
        {
          "indexed": false,
          "internalType": "uint256",
          "name": "id",
          "type": "uint256"
        }
      ],
      "name": "Snapshot",
      "type": "event"
    },
    {
      "anonymous": false,
      "inputs": [
        {
          "indexed": true,
          "internalType": "address",
          "name": "from",
          "type": "address"
        },
        {
          "indexed": true,
          "internalType": "address",
          "name": "to",
          "type": "address"
        },
        {
          "indexed": false,
          "internalType": "uint256",
          "name": "value",
          "type": "uint256"
        }
      ],
      "name": "Transfer",
      "type": "event"
    },
    {
      "inputs": [],
      "name": "DEFAULT_ADMIN_ROLE",
      "outputs": [
        {
          "internalType": "bytes32",
          "name": "",
          "type": "bytes32"
        }
      ],
      "stateMutability": "view",
      "type": "function"
    },
    {
      "inputs": [],
      "name": "MINTER_ROLE",
      "outputs": [
        {
          "internalType": "bytes32",
          "name": "",
          "type": "bytes32"
        }
      ],
      "stateMutability": "view",
      "type": "function"
    },
    {
      "inputs": [],
      "name": "SNAPSHOT_ROLE",
      "outputs": [
        {
          "internalType": "bytes32",
          "name": "",
          "type": "bytes32"
        }
      ],
      "stateMutability": "view",
      "type": "function"
    },
    {
      "inputs": [],
      "name": "_INTERFACE_ID_ERC20",
      "outputs": [
        {
          "internalType": "bytes4",
          "name": "",
          "type": "bytes4"
        }
      ],
      "stateMutability": "view",
      "type": "function"
    },
    {
      "inputs": [
        {
          "internalType": "bytes4",
          "name": "",
          "type": "bytes4"
        }
      ],
      "name": "_supportedInterfaces",
      "outputs": [
        {
          "internalType": "bool",
          "name": "",
          "type": "bool"
        }
      ],
      "stateMutability": "view",
      "type": "function"
    },
    {
      "inputs": [
        {
          "internalType": "address",
          "name": "owner",
          "type": "address"
        },
        {
          "internalType": "address",
          "name": "spender",
          "type": "address"
        }
      ],
      "name": "allowance",
      "outputs": [
        {
          "internalType": "uint256",
          "name": "",
          "type": "uint256"
        }
      ],
      "stateMutability": "view",
      "type": "function"
    },
    {
      "inputs": [
        {
          "internalType": "address",
          "name": "spender",
          "type": "address"
        },
        {
          "internalType": "uint256",
          "name": "amount",
          "type": "uint256"
        }
      ],
      "name": "approve",
      "outputs": [
        {
          "internalType": "bool",
          "name": "",
          "type": "bool"
        }
      ],
      "stateMutability": "nonpayable",
      "type": "function"
    },
    {
      "inputs": [
        {
          "internalType": "address",
          "name": "spender",
          "type": "address"
        },
        {
          "internalType": "uint256",
          "name": "amount",
          "type": "uint256"
        },
        {
          "internalType": "bytes",
          "name": "data",
          "type": "bytes"
        }
      ],
      "name": "approveAndCall",
      "outputs": [
        {
          "internalType": "bool",
          "name": "",
          "type": "bool"
        }
      ],
      "stateMutability": "nonpayable",
      "type": "function"
    },
    {
      "inputs": [
        {
          "internalType": "address",
          "name": "account",
          "type": "address"
        }
      ],
      "name": "balanceOf",
      "outputs": [
        {
          "internalType": "uint256",
          "name": "",
          "type": "uint256"
        }
      ],
      "stateMutability": "view",
      "type": "function"
    },
    {
      "inputs": [
        {
          "internalType": "address",
          "name": "account",
          "type": "address"
        },
        {
          "internalType": "uint256",
          "name": "snapshotId",
          "type": "uint256"
        }
      ],
      "name": "balanceOfAt",
      "outputs": [
        {
          "internalType": "uint256",
          "name": "",
          "type": "uint256"
        }
      ],
      "stateMutability": "view",
      "type": "function"
    },
    {
      "inputs": [
        {
          "internalType": "uint256",
          "name": "amount",
          "type": "uint256"
        }
      ],
      "name": "burn",
      "outputs": [],
      "stateMutability": "nonpayable",
      "type": "function"
    },
    {
      "inputs": [
        {
          "internalType": "address",
          "name": "account",
          "type": "address"
        },
        {
          "internalType": "uint256",
          "name": "amount",
          "type": "uint256"
        }
      ],
      "name": "burnFrom",
      "outputs": [],
      "stateMutability": "nonpayable",
      "type": "function"
    },
    {
      "inputs": [],
      "name": "currentSnapshotId",
      "outputs": [
        {
          "internalType": "uint256",
          "name": "",
          "type": "uint256"
        }
      ],
      "stateMutability": "view",
      "type": "function"
    },
    {
      "inputs": [],
      "name": "decimals",
      "outputs": [
        {
          "internalType": "uint8",
          "name": "",
          "type": "uint8"
        }
      ],
      "stateMutability": "view",
      "type": "function"
    },
    {
      "inputs": [
        {
          "internalType": "address",
          "name": "spender",
          "type": "address"
        },
        {
          "internalType": "uint256",
          "name": "subtractedValue",
          "type": "uint256"
        }
      ],
      "name": "decreaseAllowance",
      "outputs": [
        {
          "internalType": "bool",
          "name": "",
          "type": "bool"
        }
      ],
      "stateMutability": "nonpayable",
      "type": "function"
    },
    {
      "inputs": [
        {
          "internalType": "bytes32",
          "name": "role",
          "type": "bytes32"
        }
      ],
      "name": "getRoleAdmin",
      "outputs": [
        {
          "internalType": "bytes32",
          "name": "",
          "type": "bytes32"
        }
      ],
      "stateMutability": "view",
      "type": "function"
    },
    {
      "inputs": [
        {
          "internalType": "bytes32",
          "name": "role",
          "type": "bytes32"
        },
        {
          "internalType": "address",
          "name": "account",
          "type": "address"
        }
      ],
      "name": "grantRole",
      "outputs": [],
      "stateMutability": "nonpayable",
      "type": "function"
    },
    {
      "inputs": [
        {
          "internalType": "bytes32",
          "name": "role",
          "type": "bytes32"
        },
        {
          "internalType": "address",
          "name": "account",
          "type": "address"
        }
      ],
      "name": "hasRole",
      "outputs": [
        {
          "internalType": "bool",
          "name": "",
          "type": "bool"
        }
      ],
      "stateMutability": "view",
      "type": "function"
    },
    {
      "inputs": [
        {
          "internalType": "address",
          "name": "spender",
          "type": "address"
        },
        {
          "internalType": "uint256",
          "name": "addedValue",
          "type": "uint256"
        }
      ],
      "name": "increaseAllowance",
      "outputs": [
        {
          "internalType": "bool",
          "name": "",
          "type": "bool"
        }
      ],
      "stateMutability": "nonpayable",
      "type": "function"
    },
    {
      "inputs": [
        {
          "internalType": "address",
          "name": "account",
          "type": "address"
        },
        {
          "internalType": "uint256",
          "name": "amount",
          "type": "uint256"
        }
      ],
      "name": "mint",
      "outputs": [
        {
          "internalType": "bool",
          "name": "",
          "type": "bool"
        }
      ],
      "stateMutability": "nonpayable",
      "type": "function"
    },
    {
      "inputs": [],
      "name": "name",
      "outputs": [
        {
          "internalType": "string",
          "name": "",
          "type": "string"
        }
      ],
      "stateMutability": "view",
      "type": "function"
    },
    {
      "inputs": [
        {
          "internalType": "bytes32",
          "name": "role",
          "type": "bytes32"
        },
        {
          "internalType": "address",
          "name": "account",
          "type": "address"
        }
      ],
      "name": "renounceRole",
      "outputs": [],
      "stateMutability": "nonpayable",
      "type": "function"
    },
    {
      "inputs": [
        {
          "internalType": "bytes32",
          "name": "role",
          "type": "bytes32"
        },
        {
          "internalType": "address",
          "name": "account",
          "type": "address"
        }
      ],
      "name": "revokeRole",
      "outputs": [],
      "stateMutability": "nonpayable",
      "type": "function"
    },
    {
      "inputs": [
        {
          "internalType": "address",
          "name": "recipient",
          "type": "address"
        },
        {
          "internalType": "uint256",
          "name": "amount",
          "type": "uint256"
        }
      ],
      "name": "safeTransfer",
      "outputs": [],
      "stateMutability": "nonpayable",
      "type": "function"
    },
    {
      "inputs": [
        {
          "internalType": "address",
          "name": "recipient",
          "type": "address"
        },
        {
          "internalType": "uint256",
          "name": "amount",
          "type": "uint256"
        },
        {
          "internalType": "bytes",
          "name": "data",
          "type": "bytes"
        }
      ],
      "name": "safeTransfer",
      "outputs": [],
      "stateMutability": "nonpayable",
      "type": "function"
    },
    {
      "inputs": [
        {
          "internalType": "address",
          "name": "sender",
          "type": "address"
        },
        {
          "internalType": "address",
          "name": "recipient",
          "type": "address"
        },
        {
          "internalType": "uint256",
          "name": "amount",
          "type": "uint256"
        }
      ],
      "name": "safeTransferFrom",
      "outputs": [],
      "stateMutability": "nonpayable",
      "type": "function"
    },
    {
      "inputs": [
        {
          "internalType": "address",
          "name": "sender",
          "type": "address"
        },
        {
          "internalType": "address",
          "name": "recipient",
          "type": "address"
        },
        {
          "internalType": "uint256",
          "name": "amount",
          "type": "uint256"
        },
        {
          "internalType": "bytes",
          "name": "data",
          "type": "bytes"
        }
      ],
      "name": "safeTransferFrom",
      "outputs": [],
      "stateMutability": "nonpayable",
      "type": "function"
    },
    {
      "inputs": [],
      "name": "snapshot",
      "outputs": [
        {
          "internalType": "uint256",
          "name": "",
          "type": "uint256"
        }
      ],
      "stateMutability": "nonpayable",
      "type": "function"
    },
    {
      "inputs": [
        {
          "internalType": "bytes4",
          "name": "interfaceId",
          "type": "bytes4"
        }
      ],
      "name": "supportsInterface",
      "outputs": [
        {
          "internalType": "bool",
          "name": "",
          "type": "bool"
        }
      ],
      "stateMutability": "view",
      "type": "function"
    },
    {
      "inputs": [],
      "name": "symbol",
      "outputs": [
        {
          "internalType": "string",
          "name": "",
          "type": "string"
        }
      ],
      "stateMutability": "view",
      "type": "function"
    },
    {
      "inputs": [],
      "name": "totalSupply",
      "outputs": [
        {
          "internalType": "uint256",
          "name": "",
          "type": "uint256"
        }
      ],
      "stateMutability": "view",
      "type": "function"
    },
    {
      "inputs": [
        {
          "internalType": "uint256",
          "name": "snapshotId",
          "type": "uint256"
        }
      ],
      "name": "totalSupplyAt",
      "outputs": [
        {
          "internalType": "uint256",
          "name": "",
          "type": "uint256"
        }
      ],
      "stateMutability": "view",
      "type": "function"
    },
    {
      "inputs": [
        {
          "internalType": "address",
          "name": "recipient",
          "type": "address"
        },
        {
          "internalType": "uint256",
          "name": "amount",
          "type": "uint256"
        }
      ],
      "name": "transfer",
      "outputs": [
        {
          "internalType": "bool",
          "name": "",
          "type": "bool"
        }
      ],
      "stateMutability": "nonpayable",
      "type": "function"
    },
    {
      "inputs": [
        {
          "internalType": "address",
          "name": "sender",
          "type": "address"
        },
        {
          "internalType": "address",
          "name": "recipient",
          "type": "address"
        },
        {
          "internalType": "uint256",
          "name": "amount",
          "type": "uint256"
        }
      ],
      "name": "transferFrom",
      "outputs": [
        {
          "internalType": "bool",
          "name": "",
          "type": "bool"
        }
      ],
      "stateMutability": "nonpayable",
      "type": "function"
    }
  ],
  "bytecode": "0x60806040523480156200001157600080fd5b506040516200274838038062002748833981016040819052620000349162000624565b8351849084906200004d906004906020850190620004cb565b50805162000063906005906020840190620004cb565b506200007a9150636578737160e01b905062000119565b6200008c6301ffc9a760e01b62000119565b6200009881836200019e565b620000a560008262000292565b620000d17f9f2df0fed2c77648de5860a4cc508cd0818c85b8b8a1ab4ceeef8d981c8956a68262000292565b620000fd7f5fdbd35e8da83ee755d5e62a539e5ed7f47126abede0b8b10f9ea43dc6eed07f8262000292565b6200010f634fc3585960e01b62000119565b5050505062000753565b6001600160e01b03198082161415620001795760405162461bcd60e51b815260206004820152601c60248201527f4552433136353a20696e76616c696420696e746572666163652069640000000060448201526064015b60405180910390fd5b6001600160e01b0319166000908152600660205260409020805460ff19166001179055565b6001600160a01b038216620001f65760405162461bcd60e51b815260206004820152601f60248201527f45524332303a206d696e7420746f20746865207a65726f206164647265737300604482015260640162000170565b62000204600083836200029e565b8060036000828254620002189190620006b5565b90915550506001600160a01b0382166000908152600160205260408120805483929062000247908490620006b5565b90915550506040518181526001600160a01b038316906000907fddf252ad1be2c89b69c2b068fc378daa952ba7f163c4a11628f55a4df523b3ef9060200160405180910390a35b5050565b6200028e82826200030f565b620002b6838383620002da60201b6200065e1760201c565b6001600160a01b038316620002df57620002d082620003af565b620002da620003f4565b505050565b6001600160a01b038216620002f957620002d083620003af565b6200030483620003af565b620002da82620003af565b6000828152602081815260408083206001600160a01b038516845290915290205460ff166200028e576000828152602081815260408083206001600160a01b03851684529091529020805460ff191660011790556200036b3390565b6001600160a01b0316816001600160a01b0316837f2f8788117e7eff1d82e926ec794901d17c78024a50270940304540a733656f0d60405160405180910390a45050565b620003f1620003d2826001600160a01b0316600090815260076020526040902090565b6001600160a01b03831660009081526001602052604090205462000405565b50565b62000403600860035462000405565b565b60006200041162000454565b9050806200041f8462000472565b1015620002da578254600180820185556000858152602080822090930193909355938401805494850181558252902090910155565b60006200046d600a620004c760201b62000a691760201c565b905090565b80546000906200048457506000919050565b815482906200049690600190620006d0565b81548110620004b557634e487b7160e01b600052603260045260246000fd5b90600052602060002001549050919050565b5490565b828054620004d990620006ea565b90600052602060002090601f016020900481019282620004fd576000855562000548565b82601f106200051857805160ff191683800117855562000548565b8280016001018555821562000548579182015b82811115620005485782518255916020019190600101906200052b565b50620005569291506200055a565b5090565b5b808211156200055657600081556001016200055b565b600082601f83011262000582578081fd5b81516001600160401b03808211156200059f576200059f6200073d565b604051601f8301601f19908116603f01168101908282118183101715620005ca57620005ca6200073d565b81604052838152602092508683858801011115620005e6578485fd5b8491505b83821015620006095785820183015181830184015290820190620005ea565b838211156200061a57848385830101525b9695505050505050565b600080600080608085870312156200063a578384fd5b84516001600160401b038082111562000651578586fd5b6200065f8883890162000571565b9550602087015191508082111562000675578485fd5b50620006848782880162000571565b60408701516060880151919550935090506001600160a01b0381168114620006aa578182fd5b939692955090935050565b60008219821115620006cb57620006cb62000727565b500190565b600082821015620006e557620006e562000727565b500390565b600181811c90821680620006ff57607f821691505b602082108114156200072157634e487b7160e01b600052602260045260246000fd5b50919050565b634e487b7160e01b600052601160045260246000fd5b634e487b7160e01b600052604160045260246000fd5b611fe580620007636000396000f3fe608060405234801561001057600080fd5b50600436106101c65760003560e01c806379cc6790116100fa578063a457c2d71161009d578063a457c2d7146103ba578063a9059cbb146103cd578063b88d4fde146103e0578063cae9ca51146103f3578063d539139314610406578063d547741f1461042d578063dd62ed3e14610440578063eb79554914610479578063ef1944351461048c57600080fd5b806379cc67901461034657806391d14854146103595780639321478c1461036c57806395d89b4114610387578063970875ce1461038f5780639711715a14610397578063981b24d01461039f578063a217fddf146103b257600080fd5b806336568abe1161016d57806336568abe14610287578063395093511461029a57806340c10f19146102ad578063423f6cef146102c057806342842e0e146102d357806342966c68146102e65780634ee2cd7e146102f95780637028e2cd1461030c57806370a082311461033357600080fd5b806301ffc9a7146101cb57806306fdde03146101f3578063095ea7b31461020857806318160ddd1461021b57806323b872dd1461022d578063248a9ca3146102405780632f2ff15d14610263578063313ce56714610278575b600080fd5b6101de6101d9366004611cc7565b6104af565b60405190151581526020015b60405180910390f35b6101fb6104e1565b6040516101ea9190611dfe565b6101de610216366004611bef565b610573565b6003545b6040519081526020016101ea565b6101de61023b366004611b4e565b610589565b61021f61024e366004611c8d565b60009081526020819052604090206001015490565b610276610271366004611ca5565b610638565b005b604051601281526020016101ea565b610276610295366004611ca5565b610663565b6101de6102a8366004611bef565b6106e1565b6101de6102bb366004611bef565b61071d565b6102766102ce366004611bef565b61075e565b6102766102e1366004611b4e565b610778565b6102766102f4366004611c8d565b610793565b61021f610307366004611bef565b6107a0565b61021f7f5fdbd35e8da83ee755d5e62a539e5ed7f47126abede0b8b10f9ea43dc6eed07f81565b61021f610341366004611b02565b6107d1565b610276610354366004611bef565b6107ec565b6101de610367366004611ca5565b61086d565b61037a636578737160e01b81565b6040516101ea9190611de9565b6101fb610896565b61021f6108a5565b61021f6108b5565b61021f6103ad366004611c8d565b6108f0565b61021f600081565b6101de6103c8366004611bef565b610919565b6101de6103db366004611bef565b6109a8565b6102766103ee366004611b89565b6109b5565b6101de610401366004611c18565b6109ef565b61021f7f9f2df0fed2c77648de5860a4cc508cd0818c85b8b8a1ab4ceeef8d981c8956a681565b61027661043b366004611ca5565b610a10565b61021f61044e366004611b1c565b6001600160a01b03918216600090815260026020908152604080832093909416825291909152205490565b610276610487366004611c18565b610a36565b6101de61049a366004611cc7565b60066020526000908152604090205460ff1681565b6001600160e01b0319811660009081526006602052604081205460ff16806104db57506104db82610a6d565b92915050565b6060600480546104f090611f12565b80601f016020809104026020016040519081016040528092919081815260200182805461051c90611f12565b80156105695780601f1061053e57610100808354040283529160200191610569565b820191906000526020600020905b81548152906001019060200180831161054c57829003601f168201915b5050505050905090565b6000610580338484610aa2565b50600192915050565b6000610596848484610bc6565b6001600160a01b0384166000908152600260209081526040808320338452909152902054828110156106205760405162461bcd60e51b815260206004820152602860248201527f45524332303a207472616e7366657220616d6f756e74206578636565647320616044820152676c6c6f77616e636560c01b60648201526084015b60405180910390fd5b61062d8533858403610aa2565b506001949350505050565b6000828152602081905260409020600101546106548133610d8d565b61065e8383610df1565b505050565b6001600160a01b03811633146106d35760405162461bcd60e51b815260206004820152602f60248201527f416363657373436f6e74726f6c3a2063616e206f6e6c792072656e6f756e636560448201526e103937b632b9903337b91039b2b63360891b6064820152608401610617565b6106dd8282610e75565b5050565b3360008181526002602090815260408083206001600160a01b03871684529091528120549091610580918590610718908690611e61565b610aa2565b60007f9f2df0fed2c77648de5860a4cc508cd0818c85b8b8a1ab4ceeef8d981c8956a661074a8133610d8d565b6107548484610eda565b5060019392505050565b6106dd828260405180602001604052806000815250610a36565b61065e838383604051806020016040528060008152506109b5565b61079d3382610fb3565b50565b60008060006107af85856110fb565b91509150816107c6576107c1856107d1565b6107c8565b805b95945050505050565b6001600160a01b031660009081526001602052604090205490565b60006107f8833361044e565b9050818110156108565760405162461bcd60e51b8152602060048201526024808201527f45524332303a206275726e20616d6f756e74206578636565647320616c6c6f77604482015263616e636560e01b6064820152608401610617565b6108638333848403610aa2565b61065e8383610fb3565b6000918252602082815260408084206001600160a01b0393909316845291905290205460ff1690565b6060600580546104f090611f12565b60006108b0600a5490565b905090565b60007f5fdbd35e8da83ee755d5e62a539e5ed7f47126abede0b8b10f9ea43dc6eed07f6108e28133610d8d565b6108ea611133565b91505090565b60008060006108fe8461118d565b915091508161090f57600354610911565b805b949350505050565b3360009081526002602090815260408083206001600160a01b03861684529091528120548281101561099b5760405162461bcd60e51b815260206004820152602560248201527f45524332303a2064656372656173656420616c6c6f77616e63652062656c6f77604482015264207a65726f60d81b6064820152608401610617565b6107543385858403610aa2565b6000610580338484610bc6565b6109c0848484610589565b506109cd848484846111aa565b6109e95760405162461bcd60e51b815260040161061790611e11565b50505050565b60006109fb8484610573565b610a0457600080fd5b61075433858585611268565b600082815260208190526040902060010154610a2c8133610d8d565b61065e8383610e75565b610a4083836109a8565b50610a4d338484846111aa565b61065e5760405162461bcd60e51b815260040161061790611e11565b5490565b60006001600160e01b03198216637965db0b60e01b14806104db57506301ffc9a760e01b6001600160e01b03198316146104db565b6001600160a01b038316610b045760405162461bcd60e51b8152602060048201526024808201527f45524332303a20617070726f76652066726f6d20746865207a65726f206164646044820152637265737360e01b6064820152608401610617565b6001600160a01b038216610b655760405162461bcd60e51b815260206004820152602260248201527f45524332303a20617070726f766520746f20746865207a65726f206164647265604482015261737360f01b6064820152608401610617565b6001600160a01b0383811660008181526002602090815260408083209487168084529482529182902085905590518481527f8c5be1e5ebec7d5bd14f71427d1e84f3dd0314c0f7b2291e5b200ac8c7c3b925910160405180910390a3505050565b6001600160a01b038316610c2a5760405162461bcd60e51b815260206004820152602560248201527f45524332303a207472616e736665722066726f6d20746865207a65726f206164604482015264647265737360d81b6064820152608401610617565b6001600160a01b038216610c8c5760405162461bcd60e51b815260206004820152602360248201527f45524332303a207472616e7366657220746f20746865207a65726f206164647260448201526265737360e81b6064820152608401610617565b610c97838383611419565b6001600160a01b03831660009081526001602052604090205481811015610d0f5760405162461bcd60e51b815260206004820152602660248201527f45524332303a207472616e7366657220616d6f756e7420657863656564732062604482015265616c616e636560d01b6064820152608401610617565b6001600160a01b03808516600090815260016020526040808220858503905591851681529081208054849290610d46908490611e61565b92505081905550826001600160a01b0316846001600160a01b0316600080516020611f9083398151915284604051610d8091815260200190565b60405180910390a36109e9565b610d97828261086d565b6106dd57610daf816001600160a01b03166014611461565b610dba836020611461565b604051602001610dcb929190611d47565b60408051601f198184030181529082905262461bcd60e51b825261061791600401611dfe565b610dfb828261086d565b6106dd576000828152602081815260408083206001600160a01b03851684529091529020805460ff19166001179055610e313390565b6001600160a01b0316816001600160a01b0316837f2f8788117e7eff1d82e926ec794901d17c78024a50270940304540a733656f0d60405160405180910390a45050565b610e7f828261086d565b156106dd576000828152602081815260408083206001600160a01b0385168085529252808320805460ff1916905551339285917ff6391f5c32d9c69d2a47ea670b442974b53935d1edc7fd64eb21e047a839171b9190a45050565b6001600160a01b038216610f305760405162461bcd60e51b815260206004820152601f60248201527f45524332303a206d696e7420746f20746865207a65726f2061646472657373006044820152606401610617565b610f3c60008383611419565b8060036000828254610f4e9190611e61565b90915550506001600160a01b03821660009081526001602052604081208054839290610f7b908490611e61565b90915550506040518181526001600160a01b03831690600090600080516020611f908339815191529060200160405180910390a35050565b6001600160a01b0382166110135760405162461bcd60e51b815260206004820152602160248201527f45524332303a206275726e2066726f6d20746865207a65726f206164647265736044820152607360f81b6064820152608401610617565b61101f82600083611419565b6001600160a01b038216600090815260016020526040902054818110156110935760405162461bcd60e51b815260206004820152602260248201527f45524332303a206275726e20616d6f756e7420657863656564732062616c616e604482015261636560f01b6064820152608401610617565b6001600160a01b03831660009081526001602052604081208383039055600380548492906110c2908490611eb8565b90915550506040518281526000906001600160a01b03851690600080516020611f908339815191529060200160405180910390a3505050565b6001600160a01b038216600090815260076020526040812081908190819061112490869061164a565b909450925050505b9250929050565b6000611143600a80546001019055565b600061114d6108a5565b90507f8030e83b04d87bef53480e26263266d6ca66863aa8506aca6f2559d18aa1cb678160405161118091815260200190565b60405180910390a1919050565b60008060008061119e85600861164a565b90969095509350505050565b60006001600160a01b0384163b6111c357506001610911565b604051634fc3585960e01b81526000906001600160a01b03861690634fc35859906111f89033908a9089908990600401611db6565b602060405180830381600087803b15801561121257600080fd5b505af1158015611226573d6000803e3d6000fd5b505050506040513d601f19601f8201168201806040525081019061124a9190611ce3565b6001600160e01b031916634fc3585960e01b14915050949350505050565b632139e50b60e11b61127a848261174c565b6112e05760405162461bcd60e51b815260206004820152603160248201527f617070726f7665416e6443616c6c3a207370656e64657220646f65736e277420604482015270737570706f7274206f6e417070726f766560781b6064820152608401610617565b600080856001600160a01b031683888888886040516024016113059493929190611db6565b60408051601f198184030181529181526020820180516001600160e01b03166001600160e01b03199094169390931790925290516113439190611d2b565b6000604051808303816000865af19150503d8060008114611380576040519150601f19603f3d011682016040523d82523d6000602084013e611385565b606091505b50915091508181906113aa5760405162461bcd60e51b81526004016106179190611dfe565b5060208101519150816114105760405162461bcd60e51b815260206004820152602860248201527f617070726f7665416e6443616c6c3a206661696c656420746f2063616c6c206f6044820152676e417070726f766560c01b6064820152608401610617565b50505050505050565b6001600160a01b0383166114385761143082611768565b61065e611797565b6001600160a01b03821661144f5761143083611768565b61145883611768565b61065e82611768565b60606000611470836002611e99565b61147b906002611e61565b67ffffffffffffffff8111156114a157634e487b7160e01b600052604160045260246000fd5b6040519080825280601f01601f1916602001820160405280156114cb576020820181803683370190505b509050600360fc1b816000815181106114f457634e487b7160e01b600052603260045260246000fd5b60200101906001600160f81b031916908160001a905350600f60fb1b8160018151811061153157634e487b7160e01b600052603260045260246000fd5b60200101906001600160f81b031916908160001a9053506000611555846002611e99565b611560906001611e61565b90505b60018111156115f4576f181899199a1a9b1b9c1cb0b131b232b360811b85600f16601081106115a257634e487b7160e01b600052603260045260246000fd5b1a60f81b8282815181106115c657634e487b7160e01b600052603260045260246000fd5b60200101906001600160f81b031916908160001a90535060049490941c936115ed81611efb565b9050611563565b5083156116435760405162461bcd60e51b815260206004820181905260248201527f537472696e67733a20686578206c656e67746820696e73756666696369656e746044820152606401610617565b9392505050565b600080600084116116965760405162461bcd60e51b815260206004820152601660248201527504552433230536e617073686f743a20696420697320360541b6044820152606401610617565b61169e6108a5565b8411156116ed5760405162461bcd60e51b815260206004820152601d60248201527f4552433230536e617073686f743a206e6f6e6578697374656e742069640000006044820152606401610617565b60006116f984866117a6565b845490915081141561171257600080925092505061112c565b600184600101828154811061173757634e487b7160e01b600052603260045260246000fd5b9060005260206000200154925092505061112c565b600061175783611885565b8015611643575061164383836118b8565b61079d611789826001600160a01b0316600090815260076020526040902090565b611792836107d1565b6119a9565b6117a460086003546119a9565b565b81546000906117b7575060006104db565b82546000905b808210156118215760006117d183836119f3565b9050848682815481106117f457634e487b7160e01b600052603260045260246000fd5b9060005260206000200154111561180d5780915061181b565b611818816001611e61565b92505b506117bd565b60008211801561186457508385611839600185611eb8565b8154811061185757634e487b7160e01b600052603260045260246000fd5b9060005260206000200154145b1561187d57611874600183611eb8565b925050506104db565b5090506104db565b6000611898826301ffc9a760e01b6118b8565b80156104db57506118b1826001600160e01b03196118b8565b1592915050565b6000806301ffc9a760e01b836040516024016118d49190611de9565b604051602081830303815290604052906001600160e01b0319166020820180516001600160e01b0383818316178352505050509050600080856001600160a01b0316617530846040516119279190611d2b565b6000604051808303818686fa925050503d8060008114611963576040519150601f19603f3d011682016040523d82523d6000602084013e611968565b606091505b509150915060208151101561198357600093505050506104db565b81801561199f57508080602001905181019061199f9190611c6d565b9695505050505050565b60006119b36108a5565b9050806119bf84611a0e565b101561065e578254600180820185556000858152602080822090930193909355938401805494850181558252902090910155565b6000611a026002848418611e79565b61164390848416611e61565b8054600090611a1f57506000919050565b81548290611a2f90600190611eb8565b81548110611a4d57634e487b7160e01b600052603260045260246000fd5b90600052602060002001549050919050565b919050565b80356001600160a01b0381168114611a5f57600080fd5b600082601f830112611a8b578081fd5b813567ffffffffffffffff80821115611aa657611aa6611f63565b604051601f8301601f19908116603f01168101908282118183101715611ace57611ace611f63565b81604052838152866020858801011115611ae6578485fd5b8360208701602083013792830160200193909352509392505050565b600060208284031215611b13578081fd5b61164382611a64565b60008060408385031215611b2e578081fd5b611b3783611a64565b9150611b4560208401611a64565b90509250929050565b600080600060608486031215611b62578081fd5b611b6b84611a64565b9250611b7960208501611a64565b9150604084013590509250925092565b60008060008060808587031215611b9e578081fd5b611ba785611a64565b9350611bb560208601611a64565b925060408501359150606085013567ffffffffffffffff811115611bd7578182fd5b611be387828801611a7b565b91505092959194509250565b60008060408385031215611c01578182fd5b611c0a83611a64565b946020939093013593505050565b600080600060608486031215611c2c578283fd5b611c3584611a64565b925060208401359150604084013567ffffffffffffffff811115611c57578182fd5b611c6386828701611a7b565b9150509250925092565b600060208284031215611c7e578081fd5b81518015158114611643578182fd5b600060208284031215611c9e578081fd5b5035919050565b60008060408385031215611cb7578182fd5b82359150611b4560208401611a64565b600060208284031215611cd8578081fd5b813561164381611f79565b600060208284031215611cf4578081fd5b815161164381611f79565b60008151808452611d17816020860160208601611ecf565b601f01601f19169290920160200192915050565b60008251611d3d818460208701611ecf565b9190910192915050565b76020b1b1b2b9b9a1b7b73a3937b61d1030b1b1b7bab73a1604d1b815260008351611d79816017850160208801611ecf565b7001034b99036b4b9b9b4b733903937b6329607d1b6017918401918201528351611daa816028840160208801611ecf565b01602801949350505050565b6001600160a01b038581168252841660208201526040810183905260806060820181905260009061199f90830184611cff565b6001600160e01b031991909116815260200190565b6020815260006116436020830184611cff565b60208082526030908201527f45524332303a207472616e7366657220746f206e6f6e2045524332305265636560408201526f34bb32b91034b6b83632b6b2b73a32b960811b606082015260800190565b60008219821115611e7457611e74611f4d565b500190565b600082611e9457634e487b7160e01b81526012600452602481fd5b500490565b6000816000190483118215151615611eb357611eb3611f4d565b500290565b600082821015611eca57611eca611f4d565b500390565b60005b83811015611eea578181015183820152602001611ed2565b838111156109e95750506000910152565b600081611f0a57611f0a611f4d565b506000190190565b600181811c90821680611f2657607f821691505b60208210811415611f4757634e487b7160e01b600052602260045260246000fd5b50919050565b634e487b7160e01b600052601160045260246000fd5b634e487b7160e01b600052604160045260246000fd5b6001600160e01b03198116811461079d57600080fdfeddf252ad1be2c89b69c2b068fc378daa952ba7f163c4a11628f55a4df523b3efa26469706673582212205de1ac99655a37e97ac209777f279aa9a243acb2989604dae9c97c9c2cf9275d64736f6c63430008040033",
  "linkReferences": {},
  "deployedLinkReferences": {}
}