{
  "_format": "hh-sol-artifact-1",
  "contractName": "ERC20SimpleFactory",
  "sourceName": "contracts/factory/ERC20SimpleFactory.sol",
  "abi": [
    {
      "inputs": [],
      "stateMutability": "nonpayable",
      "type": "constructor"
    },
    {
      "anonymous": false,
      "inputs": [
        {
          "indexed": false,
          "internalType": "address",
          "name": "contractAddress",
          "type": "address"
        },
        {
          "indexed": false,
          "internalType": "string",
          "name": "name",
          "type": "string"
        },
        {
          "indexed": false,
          "internalType": "string",
          "name": "symbol",
          "type": "string"
        },
        {
          "indexed": false,
          "internalType": "uint256",
          "name": "initialSupply",
          "type": "uint256"
        }
      ],
      "name": "CreatedERC20Simple",
      "type": "event"
    },
    {
      "anonymous": false,
      "inputs": [
        {
          "indexed": true,
          "internalType": "bytes32",
          "name": "role",
          "type": "bytes32"
        },
        {
          "indexed": true,
          "internalType": "bytes32",
          "name": "previousAdminRole",
          "type": "bytes32"
        },
        {
          "indexed": true,
          "internalType": "bytes32",
          "name": "newAdminRole",
          "type": "bytes32"
        }
      ],
      "name": "RoleAdminChanged",
      "type": "event"
    },
    {
      "anonymous": false,
      "inputs": [
        {
          "indexed": true,
          "internalType": "bytes32",
          "name": "role",
          "type": "bytes32"
        },
        {
          "indexed": true,
          "internalType": "address",
          "name": "account",
          "type": "address"
        },
        {
          "indexed": true,
          "internalType": "address",
          "name": "sender",
          "type": "address"
        }
      ],
      "name": "RoleGranted",
      "type": "event"
    },
    {
      "anonymous": false,
      "inputs": [
        {
          "indexed": true,
          "internalType": "bytes32",
          "name": "role",
          "type": "bytes32"
        },
        {
          "indexed": true,
          "internalType": "address",
          "name": "account",
          "type": "address"
        },
        {
          "indexed": true,
          "internalType": "address",
          "name": "sender",
          "type": "address"
        }
      ],
      "name": "RoleRevoked",
      "type": "event"
    },
    {
      "inputs": [],
      "name": "DEFAULT_ADMIN_ROLE",
      "outputs": [
        {
          "internalType": "bytes32",
          "name": "",
          "type": "bytes32"
        }
      ],
      "stateMutability": "view",
      "type": "function"
    },
    {
      "inputs": [],
      "name": "SNAPSHOT_ROLE",
      "outputs": [
        {
          "internalType": "bytes32",
          "name": "",
          "type": "bytes32"
        }
      ],
      "stateMutability": "view",
      "type": "function"
    },
    {
      "inputs": [
        {
          "internalType": "string",
          "name": "name",
          "type": "string"
        },
        {
          "internalType": "string",
          "name": "symbol",
          "type": "string"
        },
        {
          "internalType": "uint256",
          "name": "initialSupply",
          "type": "uint256"
        },
        {
          "internalType": "address",
          "name": "owner",
          "type": "address"
        }
      ],
      "name": "create",
      "outputs": [
        {
          "internalType": "address",
          "name": "",
          "type": "address"
        }
      ],
      "stateMutability": "nonpayable",
      "type": "function"
    },
    {
      "inputs": [
        {
          "internalType": "uint256",
          "name": "",
          "type": "uint256"
        }
      ],
      "name": "createdContracts",
      "outputs": [
        {
          "internalType": "address",
          "name": "contractAddress",
          "type": "address"
        },
        {
          "internalType": "string",
          "name": "name",
          "type": "string"
        },
        {
          "internalType": "string",
          "name": "symbol",
          "type": "string"
        }
      ],
      "stateMutability": "view",
      "type": "function"
    },
    {
      "inputs": [
        {
          "internalType": "uint256",
          "name": "_index",
          "type": "uint256"
        }
      ],
      "name": "getContracts",
      "outputs": [
        {
          "internalType": "address",
          "name": "contractAddress",
          "type": "address"
        },
        {
          "internalType": "string",
          "name": "name",
          "type": "string"
        },
        {
          "internalType": "string",
          "name": "symbol",
          "type": "string"
        }
      ],
      "stateMutability": "view",
      "type": "function"
    },
    {
      "inputs": [
        {
          "internalType": "bytes32",
          "name": "role",
          "type": "bytes32"
        }
      ],
      "name": "getRoleAdmin",
      "outputs": [
        {
          "internalType": "bytes32",
          "name": "",
          "type": "bytes32"
        }
      ],
      "stateMutability": "view",
      "type": "function"
    },
    {
      "inputs": [
        {
          "internalType": "bytes32",
          "name": "role",
          "type": "bytes32"
        },
        {
          "internalType": "address",
          "name": "account",
          "type": "address"
        }
      ],
      "name": "grantRole",
      "outputs": [],
      "stateMutability": "nonpayable",
      "type": "function"
    },
    {
      "inputs": [
        {
          "internalType": "bytes32",
          "name": "role",
          "type": "bytes32"
        },
        {
          "internalType": "address",
          "name": "account",
          "type": "address"
        }
      ],
      "name": "hasRole",
      "outputs": [
        {
          "internalType": "bool",
          "name": "",
          "type": "bool"
        }
      ],
      "stateMutability": "view",
      "type": "function"
    },
    {
      "inputs": [],
      "name": "lastestCreated",
      "outputs": [
        {
          "internalType": "address",
          "name": "contractAddress",
          "type": "address"
        },
        {
          "internalType": "string",
          "name": "name",
          "type": "string"
        },
        {
          "internalType": "string",
          "name": "symbol",
          "type": "string"
        }
      ],
      "stateMutability": "view",
      "type": "function"
    },
    {
      "inputs": [
        {
          "internalType": "bytes32",
          "name": "role",
          "type": "bytes32"
        },
        {
          "internalType": "address",
          "name": "account",
          "type": "address"
        }
      ],
      "name": "renounceRole",
      "outputs": [],
      "stateMutability": "nonpayable",
      "type": "function"
    },
    {
      "inputs": [
        {
          "internalType": "bytes32",
          "name": "role",
          "type": "bytes32"
        },
        {
          "internalType": "address",
          "name": "account",
          "type": "address"
        }
      ],
      "name": "revokeRole",
      "outputs": [],
      "stateMutability": "nonpayable",
      "type": "function"
    },
    {
      "inputs": [
        {
          "internalType": "bytes4",
          "name": "interfaceId",
          "type": "bytes4"
        }
      ],
      "name": "supportsInterface",
      "outputs": [
        {
          "internalType": "bool",
          "name": "",
          "type": "bool"
        }
      ],
      "stateMutability": "view",
      "type": "function"
    },
    {
      "inputs": [],
      "name": "totalCreatedContracts",
      "outputs": [
        {
          "internalType": "uint256",
          "name": "",
          "type": "uint256"
        }
      ],
      "stateMutability": "view",
      "type": "function"
    }
  ],
  "bytecode": "0x608060405234801561001057600080fd5b5061001c600033610026565b60006001556100d2565b6100308282610034565b5050565b6000828152602081815260408083206001600160a01b038516845290915290205460ff16610030576000828152602081815260408083206001600160a01b03851684529091529020805460ff1916600117905561008e3390565b6001600160a01b0316816001600160a01b0316837f2f8788117e7eff1d82e926ec794901d17c78024a50270940304540a733656f0d60405160405180910390a45050565b61443580620000e26000396000f3fe60806040523480156200001157600080fd5b5060043610620000cf5760003560e01c8063439e23fd1162000086578063439e23fd14620001975780634692ed6714620001ae5780637028e2cd14620001de57806391d148541462000206578063a217fddf146200021d578063d05261871462000226578063d547741f146200023057600080fd5b806301ffc9a714620000d4578063088113971462000100578063248a9ca314620001285780632f2ff15d146200015d578063338bad5f146200017657806336568abe1462000180575b600080fd5b620000eb620000e5366004620011e9565b62000247565b60405190151581526020015b60405180910390f35b6200011762000111366004620011a2565b6200027f565b604051620000f793929190620013bb565b6200014e62000139366004620011a2565b60009081526020819052604090206001015490565b604051908152602001620000f7565b620001746200016e366004620011bb565b620003cc565b005b62000117620003fb565b6200017462000191366004620011bb565b620005e0565b62000117620001a8366004620011a2565b62000666565b620001c5620001bf36600462001213565b620007fb565b6040516001600160a01b039091168152602001620000f7565b6200014e7f5fdbd35e8da83ee755d5e62a539e5ed7f47126abede0b8b10f9ea43dc6eed07f81565b620000eb62000217366004620011bb565b62000cb6565b6200014e600081565b6200014e60015481565b6200017462000241366004620011bb565b62000cdf565b60006001600160e01b03198216637965db0b60e01b14806200027957506301ffc9a760e01b6001600160e01b03198316145b92915050565b600260205260009081526040902080546001820180546001600160a01b039092169291620002ad90620014f6565b80601f0160208091040260200160405190810160405280929190818152602001828054620002db90620014f6565b80156200032c5780601f1062000300576101008083540402835291602001916200032c565b820191906000526020600020905b8154815290600101906020018083116200030e57829003601f168201915b5050505050908060020180546200034390620014f6565b80601f01602080910402602001604051908101604052809291908181526020018280546200037190620014f6565b8015620003c25780601f106200039657610100808354040283529160200191620003c2565b820191906000526020600020905b815481529060010190602001808311620003a457829003601f168201915b5050505050905083565b600082815260208190526040902060010154620003ea813362000d09565b620003f6838362000d78565b505050565b600060608060006001541115620005bc5760026000600180546200042091906200148f565b81526020810191909152604001600090812054600180546001600160a01b0390921692600292909162000453916200148f565b815260200190815260200160002060010160026000600180546200047891906200148f565b81526020019081526020016000206002018180546200049790620014f6565b80601f0160208091040260200160405190810160405280929190818152602001828054620004c590620014f6565b8015620005165780601f10620004ea5761010080835404028352916020019162000516565b820191906000526020600020905b815481529060010190602001808311620004f857829003601f168201915b505050505091508080546200052b90620014f6565b80601f01602080910402602001604051908101604052809291908181526020018280546200055990620014f6565b8015620005aa5780601f106200057e57610100808354040283529160200191620005aa565b820191906000526020600020905b8154815290600101906020018083116200058c57829003601f168201915b50505050509050925092509250909192565b50506040805160208082018352600080835283519182019093528281529193909250565b6001600160a01b0381163314620006565760405162461bcd60e51b815260206004820152602f60248201527f416363657373436f6e74726f6c3a2063616e206f6e6c792072656e6f756e636560448201526e103937b632b9903337b91039b2b63360891b60648201526084015b60405180910390fd5b62000662828262000e00565b5050565b6000606080600154841015620007d257600084815260026020819052604090912080546001820180546001600160a01b0390921693909201908290620006ac90620014f6565b80601f0160208091040260200160405190810160405280929190818152602001828054620006da90620014f6565b80156200072b5780601f10620006ff576101008083540402835291602001916200072b565b820191906000526020600020905b8154815290600101906020018083116200070d57829003601f168201915b505050505091508080546200074090620014f6565b80601f01602080910402602001604051908101604052809291908181526020018280546200076e90620014f6565b8015620007bf5780601f106200079357610100808354040283529160200191620007bf565b820191906000526020600020905b815481529060010190602001808311620007a157829003601f168201915b50505050509050925092509250620007f4565b5050604080516020808201835260008083528351918201909352828152919250905b9193909250565b60006001600160a01b038216620008455760405162461bcd60e51b815260206004820152600d60248201526c6f776e6572206973207a65726f60981b60448201526064016200064d565b85620008845760405162461bcd60e51b815260206004820152600d60248201526c6e616d6520697320656d70747960981b60448201526064016200064d565b83620008c55760405162461bcd60e51b815260206004820152600f60248201526e73796d626f6c20697320656d70747960881b60448201526064016200064d565b600083116200090a5760405162461bcd60e51b815260206004820152601060248201526f7a65726f20746f74616c537570706c7960801b60448201526064016200064d565b600087878787876040516200091f9062001065565b6200092f959493929190620013ff565b604051809103906000f0801580156200094c573d6000803e3d6000fd5b5090506001600160a01b038116620009945760405162461bcd60e51b815260206004820152600a602482015269746f6b656e207a65726f60b01b60448201526064016200064d565b604051630e0cb96960e31b81526001600160a01b038481166004830152821690637065cb4890602401600060405180830381600087803b158015620009d857600080fd5b505af1158015620009ed573d6000803e3d6000fd5b505060405163a9059cbb60e01b81526001600160a01b038681166004830152602482018890528416925063a9059cbb9150604401602060405180830381600087803b15801562000a3c57600080fd5b505af115801562000a51573d6000803e3d6000fd5b505050506040513d601f19601f8201168201806040525081019062000a77919062001180565b50604051631b2b455f60e11b81527f5fdbd35e8da83ee755d5e62a539e5ed7f47126abede0b8b10f9ea43dc6eed07f60048201523060248201526001600160a01b038216906336568abe90604401600060405180830381600087803b15801562000ae057600080fd5b505af115801562000af5573d6000803e3d6000fd5b5050604051631b2b455f60e11b8152600060048201523060248201526001600160a01b03841692506336568abe9150604401600060405180830381600087803b15801562000b4257600080fd5b505af115801562000b57573d6000803e3d6000fd5b505050506040518060600160405280826001600160a01b0316815260200189898080601f016020809104026020016040519081016040528093929190818152602001838380828437600092019190915250505090825250604080516020601f8a01819004810282018101909252888152918101919089908990819084018382808284376000920182905250939094525050600180548252600260209081526040909220845181546001600160a01b0319166001600160a01b0390911617815584830151805191945062000c309392850192019062001073565b506040820151805162000c4e91600284019160209091019062001073565b5050600180549150600062000c638362001533565b91905055507f7d66f7c308ec5eb78436a250a24ff10d143714bd0f8ca29d0059c89a26509d4581898989898960405162000ca3969594939291906200136b565b60405180910390a1979650505050505050565b6000918252602082815260408084206001600160a01b0393909316845291905290205460ff1690565b60008281526020819052604090206001015462000cfd813362000d09565b620003f6838362000e00565b62000d15828262000cb6565b620006625762000d30816001600160a01b0316601462000e68565b62000d3d83602062000e68565b60405160200162000d50929190620012f8565b60408051601f198184030181529082905262461bcd60e51b82526200064d916004016200143d565b62000d84828262000cb6565b62000662576000828152602081815260408083206001600160a01b03851684529091529020805460ff1916600117905562000dbc3390565b6001600160a01b0316816001600160a01b0316837f2f8788117e7eff1d82e926ec794901d17c78024a50270940304540a733656f0d60405160405180910390a45050565b62000e0c828262000cb6565b1562000662576000828152602081815260408083206001600160a01b0385168085529252808320805460ff1916905551339285917ff6391f5c32d9c69d2a47ea670b442974b53935d1edc7fd64eb21e047a839171b9190a45050565b6060600062000e798360026200146d565b62000e8690600262001452565b67ffffffffffffffff81111562000ead57634e487b7160e01b600052604160045260246000fd5b6040519080825280601f01601f19166020018201604052801562000ed8576020820181803683370190505b509050600360fc1b8160008151811062000f0257634e487b7160e01b600052603260045260246000fd5b60200101906001600160f81b031916908160001a905350600f60fb1b8160018151811062000f4057634e487b7160e01b600052603260045260246000fd5b60200101906001600160f81b031916908160001a905350600062000f668460026200146d565b62000f7390600162001452565b90505b60018111156200100d576f181899199a1a9b1b9c1cb0b131b232b360811b85600f166010811062000fb757634e487b7160e01b600052603260045260246000fd5b1a60f81b82828151811062000fdc57634e487b7160e01b600052603260045260246000fd5b60200101906001600160f81b031916908160001a90535060049490941c936200100581620014dc565b905062000f76565b5083156200105e5760405162461bcd60e51b815260206004820181905260248201527f537472696e67733a20686578206c656e67746820696e73756666696369656e7460448201526064016200064d565b9392505050565b612e98806200156883390190565b8280546200108190620014f6565b90600052602060002090601f016020900481019282620010a55760008555620010f0565b82601f10620010c057805160ff1916838001178555620010f0565b82800160010185558215620010f0579182015b82811115620010f0578251825591602001919060010190620010d3565b50620010fe92915062001102565b5090565b5b80821115620010fe576000815560010162001103565b80356001600160a01b03811681146200113157600080fd5b919050565b60008083601f84011262001148578182fd5b50813567ffffffffffffffff81111562001160578182fd5b6020830191508360208285010111156200117957600080fd5b9250929050565b60006020828403121562001192578081fd5b815180151581146200105e578182fd5b600060208284031215620011b4578081fd5b5035919050565b60008060408385031215620011ce578081fd5b82359150620011e06020840162001119565b90509250929050565b600060208284031215620011fb578081fd5b81356001600160e01b0319811681146200105e578182fd5b600080600080600080608087890312156200122c578182fd5b863567ffffffffffffffff8082111562001244578384fd5b620012528a838b0162001136565b909850965060208901359150808211156200126b578384fd5b506200127a89828a0162001136565b90955093505060408701359150620012956060880162001119565b90509295509295509295565b81835281816020850137506000828201602090810191909152601f909101601f19169091010190565b60008151808452620012e4816020860160208601620014a9565b601f01601f19169290920160200192915050565b76020b1b1b2b9b9a1b7b73a3937b61d1030b1b1b7bab73a1604d1b8152600083516200132c816017850160208801620014a9565b7001034b99036b4b9b9b4b733903937b6329607d1b60179184019182015283516200135f816028840160208801620014a9565b01602801949350505050565b6001600160a01b0387168152608060208201819052600090620013929083018789620012a1565b8281036040840152620013a7818688620012a1565b915050826060830152979650505050505050565b6001600160a01b0384168152606060208201819052600090620013e190830185620012ca565b8281036040840152620013f58185620012ca565b9695505050505050565b60608152600062001415606083018789620012a1565b82810360208401526200142a818688620012a1565b9150508260408301529695505050505050565b6020815260006200105e6020830184620012ca565b6000821982111562001468576200146862001551565b500190565b60008160001904831182151516156200148a576200148a62001551565b500290565b600082821015620014a457620014a462001551565b500390565b60005b83811015620014c6578181015183820152602001620014ac565b83811115620014d6576000848401525b50505050565b600081620014ee57620014ee62001551565b506000190190565b600181811c908216806200150b57607f821691505b602082108114156200152d57634e487b7160e01b600052602260045260246000fd5b50919050565b60006000198214156200154a576200154a62001551565b5060010190565b634e487b7160e01b600052601160045260246000fdfe6101606040527f6e71edae12b1b97f4d1f60370fef10105fa2faae0126114a169c64845d6126c9610140523480156200003757600080fd5b5060405162002e9838038062002e988339810160408190526200005a91620006d3565b82604051806040016040528060018152602001603160f81b815250818186868160049080519060200190620000919291906200057a565b508051620000a79060059060208401906200057a565b50620000be9150636578737160e01b9050620001ca565b620000d06301ffc9a760e01b620001ca565b815160208084019190912082518383012060e08290526101008190524660a0818152604080517f8b73c3c69bb8fe3d512ecc4cf759cc79239f7b179b0ffacaa9a75d522b39400f81880181905281830187905260608201869052608082019490945230818401528151808203909301835260c00190528051940193909320919290916080523060601b60c052610120525062000177945060009350339250506200024f9050565b620001a37f5fdbd35e8da83ee755d5e62a539e5ed7f47126abede0b8b10f9ea43dc6eed07f336200024f565b620001af33826200025f565b620001c1634fc3585960e01b620001ca565b505050620007e1565b6001600160e01b031980821614156200022a5760405162461bcd60e51b815260206004820152601c60248201527f4552433136353a20696e76616c696420696e746572666163652069640000000060448201526064015b60405180910390fd5b6001600160e01b0319166000908152600660205260409020805460ff19166001179055565b6200025b828262000352565b5050565b6001600160a01b038216620002b75760405162461bcd60e51b815260206004820152601f60248201527f45524332303a206d696e7420746f20746865207a65726f206164647265737300604482015260640162000221565b620002c560008383620003f2565b8060036000828254620002d9919062000743565b90915550506001600160a01b038216600090815260016020526040812080548392906200030890849062000743565b90915550506040518181526001600160a01b038316906000907fddf252ad1be2c89b69c2b068fc378daa952ba7f163c4a11628f55a4df523b3ef9060200160405180910390a35050565b6000828152602081815260408083206001600160a01b038516845290915290205460ff166200025b576000828152602081815260408083206001600160a01b03851684529091529020805460ff19166001179055620003ae3390565b6001600160a01b0316816001600160a01b0316837f2f8788117e7eff1d82e926ec794901d17c78024a50270940304540a733656f0d60405160405180910390a45050565b6200040a8383836200042e60201b620006e61760201c565b6001600160a01b038316620004335762000424826200045e565b6200042e620004a3565b505050565b6001600160a01b0382166200044d5762000424836200045e565b62000458836200045e565b6200042e825b620004a062000481826001600160a01b0316600090815260086020526040902090565b6001600160a01b038316600090815260016020526040902054620004b4565b50565b620004b26009600354620004b4565b565b6000620004c062000503565b905080620004ce8462000521565b10156200042e578254600180820185556000858152602080822090930193909355938401805494850181558252902090910155565b60006200051c600b6200057660201b62000b221760201c565b905090565b80546000906200053357506000919050565b8154829062000545906001906200075e565b815481106200056457634e487b7160e01b600052603260045260246000fd5b90600052602060002001549050919050565b5490565b828054620005889062000778565b90600052602060002090601f016020900481019282620005ac5760008555620005f7565b82601f10620005c757805160ff1916838001178555620005f7565b82800160010185558215620005f7579182015b82811115620005f7578251825591602001919060010190620005da565b506200060592915062000609565b5090565b5b808211156200060557600081556001016200060a565b600082601f83011262000631578081fd5b81516001600160401b03808211156200064e576200064e620007cb565b604051601f8301601f19908116603f01168101908282118183101715620006795762000679620007cb565b8160405283815260209250868385880101111562000695578485fd5b8491505b83821015620006b8578582018301518183018401529082019062000699565b83821115620006c957848385830101525b9695505050505050565b600080600060608486031215620006e8578283fd5b83516001600160401b0380821115620006ff578485fd5b6200070d8783880162000620565b9450602086015191508082111562000723578384fd5b50620007328682870162000620565b925050604084015190509250925092565b60008219821115620007595762000759620007b5565b500190565b600082821015620007735762000773620007b5565b500390565b600181811c908216806200078d57607f821691505b60208210811415620007af57634e487b7160e01b600052602260045260246000fd5b50919050565b634e487b7160e01b600052601160045260246000fd5b634e487b7160e01b600052604160045260246000fd5b60805160a05160c05160601c60e051610100516101205161014051612652620008466000396000818161040c015261159901526000610fca0152600061101901526000610ff401526000610f4d01526000610f7701526000610fa101526126526000f3fe608060405234801561001057600080fd5b50600436106102125760003560e01c80637ecebe0011610120578063a457c2d7116100b8578063d505accf1161007c578063d505accf146104a2578063d547741f146104b5578063dd62ed3e146104c8578063eb79554914610501578063ef1944351461051457600080fd5b8063a457c2d714610436578063a9059cbb14610449578063b88d4fde1461045c578063b9844d8d1461046f578063cae9ca511461048f57600080fd5b80637ecebe001461039b57806391d14854146103ae5780639321478c146103c157806395d89b41146103dc578063970875ce146103e45780639711715a146103ec578063981b24d0146103f4578063982aaf6b14610407578063a217fddf1461042e57600080fd5b806336568abe116101ae5780634ee2cd7e116101725780634ee2cd7e1461033a5780637028e2cd1461034d5780637065cb481461036257806370a082311461037557806379cc67901461038857600080fd5b806336568abe146102db57806339509351146102ee578063423f6cef1461030157806342842e0e1461031457806342966c681461032757600080fd5b806301ffc9a71461021757806306fdde031461023f578063095ea7b31461025457806318160ddd1461026757806323b872dd14610279578063248a9ca31461028c5780632f2ff15d146102af578063313ce567146102c45780633644e515146102d3575b600080fd5b61022a61022536600461233a565b610537565b60405190151581526020015b60405180910390f35b610247610569565b6040516102369190612471565b61022a610262366004612262565b6105fb565b6003545b604051908152602001610236565b61022a610287366004612150565b610611565b61026b61029a366004612300565b60009081526020819052604090206001015490565b6102c26102bd366004612318565b6106c0565b005b60405160128152602001610236565b61026b6106eb565b6102c26102e9366004612318565b6106fa565b61022a6102fc366004612262565b610778565b6102c261030f366004612262565b6107b4565b6102c2610322366004612150565b6107ce565b6102c2610335366004612300565b6107e9565b61026b610348366004612262565b6107f6565b61026b6000805160206125fd83398151915281565b6102c2610370366004612104565b610827565b61026b610383366004612104565b610856565b6102c2610396366004612262565b610871565b61026b6103a9366004612104565b6108f2565b61022a6103bc366004612318565b610910565b6103cf636578737160e01b81565b604051610236919061245c565b610247610939565b61026b610948565b61026b610953565b61026b610402366004612300565b61097c565b61026b7f000000000000000000000000000000000000000000000000000000000000000081565b61026b600081565b61022a610444366004612262565b6109a5565b61022a610457366004612262565b610a3e565b6102c261046a36600461218b565b610a4b565b61026b61047d366004612104565b60076020526000908152604090205481565b61022a61049d36600461228b565b610a85565b6102c26104b03660046121f1565b610aa6565b6102c26104c3366004612318565b610ac9565b61026b6104d636600461211e565b6001600160a01b03918216600090815260026020908152604080832093909416825291909152205490565b6102c261050f36600461228b565b610aef565b61022a61052236600461233a565b60066020526000908152604090205460ff1681565b6001600160e01b0319811660009081526006602052604081205460ff1680610563575061056382610b26565b92915050565b60606004805461057890612585565b80601f01602080910402602001604051908101604052809291908181526020018280546105a490612585565b80156105f15780601f106105c6576101008083540402835291602001916105f1565b820191906000526020600020905b8154815290600101906020018083116105d457829003601f168201915b5050505050905090565b6000610608338484610b5b565b50600192915050565b600061061e848484610c7f565b6001600160a01b0384166000908152600260209081526040808320338452909152902054828110156106a85760405162461bcd60e51b815260206004820152602860248201527f45524332303a207472616e7366657220616d6f756e74206578636565647320616044820152676c6c6f77616e636560c01b60648201526084015b60405180910390fd5b6106b58533858403610b5b565b506001949350505050565b6000828152602081905260409020600101546106dc8133610e58565b6106e68383610ebc565b505050565b60006106f5610f40565b905090565b6001600160a01b038116331461076a5760405162461bcd60e51b815260206004820152602f60248201527f416363657373436f6e74726f6c3a2063616e206f6e6c792072656e6f756e636560448201526e103937b632b9903337b91039b2b63360891b606482015260840161069f565b6107748282611067565b5050565b3360008181526002602090815260408083206001600160a01b038716845290915281205490916106089185906107af9086906124d4565b610b5b565b610774828260405180602001604052806000815250610aef565b6106e683838360405180602001604052806000815250610a4b565b6107f333826110cc565b50565b60008060006108058585611226565b915091508161081c5761081785610856565b61081e565b805b95945050505050565b60006108338133610e58565b61083e60008361125e565b6107746000805160206125fd8339815191528361125e565b6001600160a01b031660009081526001602052604090205490565b600061087d83336104d6565b9050818110156108db5760405162461bcd60e51b8152602060048201526024808201527f45524332303a206275726e20616d6f756e74206578636565647320616c6c6f77604482015263616e636560e01b606482015260840161069f565b6108e88333848403610b5b565b6106e683836110cc565b6001600160a01b038116600090815260076020526040812054610563565b6000918252602082815260408084206001600160a01b0393909316845291905290205460ff1690565b60606005805461057890612585565b60006106f5600b5490565b60006000805160206125fd83398151915261096e8133610e58565b610976611268565b91505090565b600080600061098a846112c2565b915091508161099b5760035461099d565b805b949350505050565b3360009081526002602090815260408083206001600160a01b038616845290915281205482811015610a275760405162461bcd60e51b815260206004820152602560248201527f45524332303a2064656372656173656420616c6c6f77616e63652062656c6f77604482015264207a65726f60d81b606482015260840161069f565b610a343385858403610b5b565b5060019392505050565b6000610608338484610c7f565b610a56848484610611565b50610a63848484846112df565b610a7f5760405162461bcd60e51b815260040161069f90612484565b50505050565b6000610a9184846105fb565b610a9a57600080fd5b610a343385858561139d565b610ab587878787878787611545565b610ac0878787610b5b565b50505050505050565b600082815260208190526040902060010154610ae58133610e58565b6106e68383611067565b610af98383610a3e565b50610b06338484846112df565b6106e65760405162461bcd60e51b815260040161069f90612484565b5490565b60006001600160e01b03198216637965db0b60e01b148061056357506301ffc9a760e01b6001600160e01b0319831614610563565b6001600160a01b038316610bbd5760405162461bcd60e51b8152602060048201526024808201527f45524332303a20617070726f76652066726f6d20746865207a65726f206164646044820152637265737360e01b606482015260840161069f565b6001600160a01b038216610c1e5760405162461bcd60e51b815260206004820152602260248201527f45524332303a20617070726f766520746f20746865207a65726f206164647265604482015261737360f01b606482015260840161069f565b6001600160a01b0383811660008181526002602090815260408083209487168084529482529182902085905590518481527f8c5be1e5ebec7d5bd14f71427d1e84f3dd0314c0f7b2291e5b200ac8c7c3b925910160405180910390a3505050565b6001600160a01b038316610ce35760405162461bcd60e51b815260206004820152602560248201527f45524332303a207472616e736665722066726f6d20746865207a65726f206164604482015264647265737360d81b606482015260840161069f565b6001600160a01b038216610d455760405162461bcd60e51b815260206004820152602360248201527f45524332303a207472616e7366657220746f20746865207a65726f206164647260448201526265737360e81b606482015260840161069f565b610d5083838361169e565b6001600160a01b03831660009081526001602052604090205481811015610dc85760405162461bcd60e51b815260206004820152602660248201527f45524332303a207472616e7366657220616d6f756e7420657863656564732062604482015265616c616e636560d01b606482015260840161069f565b6001600160a01b03808516600090815260016020526040808220858503905591851681529081208054849290610dff9084906124d4565b92505081905550826001600160a01b0316846001600160a01b03167fddf252ad1be2c89b69c2b068fc378daa952ba7f163c4a11628f55a4df523b3ef84604051610e4b91815260200190565b60405180910390a3610a7f565b610e628282610910565b61077457610e7a816001600160a01b031660146116e6565b610e858360206116e6565b604051602001610e969291906123ba565b60408051601f198184030181529082905262461bcd60e51b825261069f91600401612471565b610ec68282610910565b610774576000828152602081815260408083206001600160a01b03851684529091529020805460ff19166001179055610efc3390565b6001600160a01b0316816001600160a01b0316837f2f8788117e7eff1d82e926ec794901d17c78024a50270940304540a733656f0d60405160405180910390a45050565b6000306001600160a01b037f000000000000000000000000000000000000000000000000000000000000000016148015610f9957507f000000000000000000000000000000000000000000000000000000000000000046145b15610fc357507f000000000000000000000000000000000000000000000000000000000000000090565b50604080517f00000000000000000000000000000000000000000000000000000000000000006020808301919091527f0000000000000000000000000000000000000000000000000000000000000000828401527f000000000000000000000000000000000000000000000000000000000000000060608301524660808301523060a0808401919091528351808403909101815260c0909201909252805191012090565b6110718282610910565b15610774576000828152602081815260408083206001600160a01b0385168085529252808320805460ff1916905551339285917ff6391f5c32d9c69d2a47ea670b442974b53935d1edc7fd64eb21e047a839171b9190a45050565b6001600160a01b03821661112c5760405162461bcd60e51b815260206004820152602160248201527f45524332303a206275726e2066726f6d20746865207a65726f206164647265736044820152607360f81b606482015260840161069f565b6111388260008361169e565b6001600160a01b038216600090815260016020526040902054818110156111ac5760405162461bcd60e51b815260206004820152602260248201527f45524332303a206275726e20616d6f756e7420657863656564732062616c616e604482015261636560f01b606482015260840161069f565b6001600160a01b03831660009081526001602052604081208383039055600380548492906111db90849061252b565b90915550506040518281526000906001600160a01b038516907fddf252ad1be2c89b69c2b068fc378daa952ba7f163c4a11628f55a4df523b3ef9060200160405180910390a3505050565b6001600160a01b038216600090815260086020526040812081908190819061124f9086906118cf565b909450925050505b9250929050565b6107748282610ebc565b6000611278600b80546001019055565b6000611282610948565b90507f8030e83b04d87bef53480e26263266d6ca66863aa8506aca6f2559d18aa1cb67816040516112b591815260200190565b60405180910390a1919050565b6000806000806112d38560096118cf565b90969095509350505050565b60006001600160a01b0384163b6112f85750600161099d565b604051634fc3585960e01b81526000906001600160a01b03861690634fc358599061132d9033908a9089908990600401612429565b602060405180830381600087803b15801561134757600080fd5b505af115801561135b573d6000803e3d6000fd5b505050506040513d601f19601f8201168201806040525081019061137f9190612356565b6001600160e01b031916634fc3585960e01b14915050949350505050565b632139e50b60e11b6113af84826119d1565b6114155760405162461bcd60e51b815260206004820152603160248201527f617070726f7665416e6443616c6c3a207370656e64657220646f65736e277420604482015270737570706f7274206f6e417070726f766560781b606482015260840161069f565b600080856001600160a01b0316838888888860405160240161143a9493929190612429565b60408051601f198184030181529181526020820180516001600160e01b03166001600160e01b0319909416939093179092529051611478919061239e565b6000604051808303816000865af19150503d80600081146114b5576040519150601f19603f3d011682016040523d82523d6000602084013e6114ba565b606091505b50915091508181906114df5760405162461bcd60e51b815260040161069f9190612471565b506020810151915081610ac05760405162461bcd60e51b815260206004820152602860248201527f617070726f7665416e6443616c6c3a206661696c656420746f2063616c6c206f6044820152676e417070726f766560c01b606482015260840161069f565b834211156115955760405162461bcd60e51b815260206004820152601d60248201527f45524332305065726d69743a206578706972656420646561646c696e65000000604482015260640161069f565b60007f00000000000000000000000000000000000000000000000000000000000000008888886115c48c6119ed565b6040805160208101969096526001600160a01b0394851690860152929091166060840152608083015260a082015260c0810186905260e001604051602081830303815290604052805190602001209050600061161f82611a15565b9050600061162f82878787611a63565b9050896001600160a01b0316816001600160a01b0316146116925760405162461bcd60e51b815260206004820152601e60248201527f45524332305065726d69743a20696e76616c6964207369676e61747572650000604482015260640161069f565b50505050505050505050565b6001600160a01b0383166116bd576116b582611a8b565b6106e6611aba565b6001600160a01b0382166116d4576116b583611a8b565b6116dd83611a8b565b6106e682611a8b565b606060006116f583600261250c565b6117009060026124d4565b67ffffffffffffffff81111561172657634e487b7160e01b600052604160045260246000fd5b6040519080825280601f01601f191660200182016040528015611750576020820181803683370190505b509050600360fc1b8160008151811061177957634e487b7160e01b600052603260045260246000fd5b60200101906001600160f81b031916908160001a905350600f60fb1b816001815181106117b657634e487b7160e01b600052603260045260246000fd5b60200101906001600160f81b031916908160001a90535060006117da84600261250c565b6117e59060016124d4565b90505b6001811115611879576f181899199a1a9b1b9c1cb0b131b232b360811b85600f166010811061182757634e487b7160e01b600052603260045260246000fd5b1a60f81b82828151811061184b57634e487b7160e01b600052603260045260246000fd5b60200101906001600160f81b031916908160001a90535060049490941c936118728161256e565b90506117e8565b5083156118c85760405162461bcd60e51b815260206004820181905260248201527f537472696e67733a20686578206c656e67746820696e73756666696369656e74604482015260640161069f565b9392505050565b6000806000841161191b5760405162461bcd60e51b815260206004820152601660248201527504552433230536e617073686f743a20696420697320360541b604482015260640161069f565b611923610948565b8411156119725760405162461bcd60e51b815260206004820152601d60248201527f4552433230536e617073686f743a206e6f6e6578697374656e74206964000000604482015260640161069f565b600061197e8486611ac9565b8454909150811415611997576000809250925050611257565b60018460010182815481106119bc57634e487b7160e01b600052603260045260246000fd5b90600052602060002001549250925050611257565b60006119dc83611ba8565b80156118c857506118c88383611bdb565b6001600160a01b03811660009081526007602052604090208054600181018255905b50919050565b6000610563611a22610f40565b8360405161190160f01b6020820152602281018390526042810182905260009060620160405160208183030381529060405280519060200120905092915050565b6000806000611a7487878787611ccc565b91509150611a8181611daf565b5095945050505050565b6107f3611aac826001600160a01b0316600090815260086020526040902090565b611ab583610856565b611fab565b611ac76009600354611fab565b565b8154600090611ada57506000610563565b82546000905b80821015611b44576000611af48383611ff5565b905084868281548110611b1757634e487b7160e01b600052603260045260246000fd5b90600052602060002001541115611b3057809150611b3e565b611b3b8160016124d4565b92505b50611ae0565b600082118015611b8757508385611b5c60018561252b565b81548110611b7a57634e487b7160e01b600052603260045260246000fd5b9060005260206000200154145b15611ba057611b9760018361252b565b92505050610563565b509050610563565b6000611bbb826301ffc9a760e01b611bdb565b80156105635750611bd4826001600160e01b0319611bdb565b1592915050565b6000806301ffc9a760e01b83604051602401611bf7919061245c565b604051602081830303815290604052906001600160e01b0319166020820180516001600160e01b0383818316178352505050509050600080856001600160a01b031661753084604051611c4a919061239e565b6000604051808303818686fa925050503d8060008114611c86576040519150601f19603f3d011682016040523d82523d6000602084013e611c8b565b606091505b5091509150602081511015611ca65760009350505050610563565b818015611cc2575080806020019051810190611cc291906122e0565b9695505050505050565b6000806fa2a8918ca85bafe22016d0b997e4df60600160ff1b03831115611cf95750600090506003611da6565b8460ff16601b14158015611d1157508460ff16601c14155b15611d225750600090506004611da6565b6040805160008082526020820180845289905260ff881692820192909252606081018690526080810185905260019060a0016020604051602081039080840390855afa158015611d76573d6000803e3d6000fd5b5050604051601f1901519150506001600160a01b038116611d9f57600060019250925050611da6565b9150600090505b94509492505050565b6000816004811115611dd157634e487b7160e01b600052602160045260246000fd5b1415611dda5750565b6001816004811115611dfc57634e487b7160e01b600052602160045260246000fd5b1415611e455760405162461bcd60e51b815260206004820152601860248201527745434453413a20696e76616c6964207369676e617475726560401b604482015260640161069f565b6002816004811115611e6757634e487b7160e01b600052602160045260246000fd5b1415611eb55760405162461bcd60e51b815260206004820152601f60248201527f45434453413a20696e76616c6964207369676e6174757265206c656e67746800604482015260640161069f565b6003816004811115611ed757634e487b7160e01b600052602160045260246000fd5b1415611f305760405162461bcd60e51b815260206004820152602260248201527f45434453413a20696e76616c6964207369676e6174757265202773272076616c604482015261756560f01b606482015260840161069f565b6004816004811115611f5257634e487b7160e01b600052602160045260246000fd5b14156107f35760405162461bcd60e51b815260206004820152602260248201527f45434453413a20696e76616c6964207369676e6174757265202776272076616c604482015261756560f01b606482015260840161069f565b6000611fb5610948565b905080611fc184612010565b10156106e6578254600180820185556000858152602080822090930193909355938401805494850181558252902090910155565b600061200460028484186124ec565b6118c8908484166124d4565b805460009061202157506000919050565b815482906120319060019061252b565b8154811061204f57634e487b7160e01b600052603260045260246000fd5b90600052602060002001549050919050565b919050565b80356001600160a01b038116811461206157600080fd5b600082601f83011261208d578081fd5b813567ffffffffffffffff808211156120a8576120a86125d0565b604051601f8301601f19908116603f011681019082821181831017156120d0576120d06125d0565b816040528381528660208588010111156120e8578485fd5b8360208701602083013792830160200193909352509392505050565b600060208284031215612115578081fd5b6118c882612066565b60008060408385031215612130578081fd5b61213983612066565b915061214760208401612066565b90509250929050565b600080600060608486031215612164578081fd5b61216d84612066565b925061217b60208501612066565b9150604084013590509250925092565b600080600080608085870312156121a0578081fd5b6121a985612066565b93506121b760208601612066565b925060408501359150606085013567ffffffffffffffff8111156121d9578182fd5b6121e58782880161207d565b91505092959194509250565b600080600080600080600060e0888a03121561220b578283fd5b61221488612066565b965061222260208901612066565b95506040880135945060608801359350608088013560ff81168114612245578384fd5b9699959850939692959460a0840135945060c09093013592915050565b60008060408385031215612274578182fd5b61227d83612066565b946020939093013593505050565b60008060006060848603121561229f578283fd5b6122a884612066565b925060208401359150604084013567ffffffffffffffff8111156122ca578182fd5b6122d68682870161207d565b9150509250925092565b6000602082840312156122f1578081fd5b815180151581146118c8578182fd5b600060208284031215612311578081fd5b5035919050565b6000806040838503121561232a578182fd5b8235915061214760208401612066565b60006020828403121561234b578081fd5b81356118c8816125e6565b600060208284031215612367578081fd5b81516118c8816125e6565b6000815180845261238a816020860160208601612542565b601f01601f19169290920160200192915050565b600082516123b0818460208701612542565b9190910192915050565b76020b1b1b2b9b9a1b7b73a3937b61d1030b1b1b7bab73a1604d1b8152600083516123ec816017850160208801612542565b7001034b99036b4b9b9b4b733903937b6329607d1b601791840191820152835161241d816028840160208801612542565b01602801949350505050565b6001600160a01b0385811682528416602082015260408101839052608060608201819052600090611cc290830184612372565b6001600160e01b031991909116815260200190565b6020815260006118c86020830184612372565b60208082526030908201527f45524332303a207472616e7366657220746f206e6f6e2045524332305265636560408201526f34bb32b91034b6b83632b6b2b73a32b960811b606082015260800190565b600082198211156124e7576124e76125ba565b500190565b60008261250757634e487b7160e01b81526012600452602481fd5b500490565b6000816000190483118215151615612526576125266125ba565b500290565b60008282101561253d5761253d6125ba565b500390565b60005b8381101561255d578181015183820152602001612545565b83811115610a7f5750506000910152565b60008161257d5761257d6125ba565b506000190190565b600181811c9082168061259957607f821691505b60208210811415611a0f57634e487b7160e01b600052602260045260246000fd5b634e487b7160e01b600052601160045260246000fd5b634e487b7160e01b600052604160045260246000fd5b6001600160e01b0319811681146107f357600080fdfe5fdbd35e8da83ee755d5e62a539e5ed7f47126abede0b8b10f9ea43dc6eed07fa264697066735822122067bceed4f06f82580cc5e9d0cf58255b7ed68d745e27a173080f34f53cfc3ee664736f6c63430008040033a2646970667358221220818a45975209ad7a56ca551751a613fd9ce085fa4714295112ec281da7dc200064736f6c63430008040033",
  "linkReferences": {},
  "deployedLinkReferences": {}
}