{
  "_format": "hh-sol-artifact-1",
  "contractName": "ERC20A",
  "sourceName": "contracts/tokens/ERC20A.sol",
  "abi": [
    {
      "inputs": [
        {
          "internalType": "string",
          "name": "_name",
          "type": "string"
        },
        {
          "internalType": "string",
          "name": "_symbol",
          "type": "string"
        }
      ],
      "stateMutability": "nonpayable",
      "type": "constructor"
    },
    {
      "anonymous": false,
      "inputs": [
        {
          "indexed": true,
          "internalType": "address",
          "name": "owner",
          "type": "address"
        },
        {
          "indexed": true,
          "internalType": "address",
          "name": "spender",
          "type": "address"
        },
        {
          "indexed": false,
          "internalType": "uint256",
          "name": "value",
          "type": "uint256"
        }
      ],
      "name": "Approval",
      "type": "event"
    },
    {
      "anonymous": false,
      "inputs": [
        {
          "indexed": true,
          "internalType": "bytes32",
          "name": "role",
          "type": "bytes32"
        },
        {
          "indexed": true,
          "internalType": "bytes32",
          "name": "previousAdminRole",
          "type": "bytes32"
        },
        {
          "indexed": true,
          "internalType": "bytes32",
          "name": "newAdminRole",
          "type": "bytes32"
        }
      ],
      "name": "RoleAdminChanged",
      "type": "event"
    },
    {
      "anonymous": false,
      "inputs": [
        {
          "indexed": true,
          "internalType": "bytes32",
          "name": "role",
          "type": "bytes32"
        },
        {
          "indexed": true,
          "internalType": "address",
          "name": "account",
          "type": "address"
        },
        {
          "indexed": true,
          "internalType": "address",
          "name": "sender",
          "type": "address"
        }
      ],
      "name": "RoleGranted",
      "type": "event"
    },
    {
      "anonymous": false,
      "inputs": [
        {
          "indexed": true,
          "internalType": "bytes32",
          "name": "role",
          "type": "bytes32"
        },
        {
          "indexed": true,
          "internalType": "address",
          "name": "account",
          "type": "address"
        },
        {
          "indexed": true,
          "internalType": "address",
          "name": "sender",
          "type": "address"
        }
      ],
      "name": "RoleRevoked",
      "type": "event"
    },
    {
      "anonymous": false,
      "inputs": [
        {
          "indexed": false,
          "internalType": "uint256",
          "name": "id",
          "type": "uint256"
        }
      ],
      "name": "Snapshot",
      "type": "event"
    },
    {
      "anonymous": false,
      "inputs": [
        {
          "indexed": true,
          "internalType": "address",
          "name": "from",
          "type": "address"
        },
        {
          "indexed": true,
          "internalType": "address",
          "name": "to",
          "type": "address"
        },
        {
          "indexed": false,
          "internalType": "uint256",
          "name": "value",
          "type": "uint256"
        }
      ],
      "name": "Transfer",
      "type": "event"
    },
    {
      "inputs": [],
      "name": "DEFAULT_ADMIN_ROLE",
      "outputs": [
        {
          "internalType": "bytes32",
          "name": "",
          "type": "bytes32"
        }
      ],
      "stateMutability": "view",
      "type": "function"
    },
    {
      "inputs": [],
      "name": "DOMAIN_SEPARATOR",
      "outputs": [
        {
          "internalType": "bytes32",
          "name": "",
          "type": "bytes32"
        }
      ],
      "stateMutability": "view",
      "type": "function"
    },
    {
      "inputs": [],
      "name": "MINTER_ROLE",
      "outputs": [
        {
          "internalType": "bytes32",
          "name": "",
          "type": "bytes32"
        }
      ],
      "stateMutability": "view",
      "type": "function"
    },
    {
      "inputs": [],
      "name": "SNAPSHOT_ROLE",
      "outputs": [
        {
          "internalType": "bytes32",
          "name": "",
          "type": "bytes32"
        }
      ],
      "stateMutability": "view",
      "type": "function"
    },
    {
      "inputs": [],
      "name": "_INTERFACE_ID_ERC20",
      "outputs": [
        {
          "internalType": "bytes4",
          "name": "",
          "type": "bytes4"
        }
      ],
      "stateMutability": "view",
      "type": "function"
    },
    {
      "inputs": [],
      "name": "_PERMIT_TYPEHASH",
      "outputs": [
        {
          "internalType": "bytes32",
          "name": "",
          "type": "bytes32"
        }
      ],
      "stateMutability": "view",
      "type": "function"
    },
    {
      "inputs": [
        {
          "internalType": "address",
          "name": "",
          "type": "address"
        }
      ],
      "name": "_nonces",
      "outputs": [
        {
          "internalType": "uint256",
          "name": "_value",
          "type": "uint256"
        }
      ],
      "stateMutability": "view",
      "type": "function"
    },
    {
      "inputs": [
        {
          "internalType": "bytes4",
          "name": "",
          "type": "bytes4"
        }
      ],
      "name": "_supportedInterfaces",
      "outputs": [
        {
          "internalType": "bool",
          "name": "",
          "type": "bool"
        }
      ],
      "stateMutability": "view",
      "type": "function"
    },
    {
      "inputs": [
        {
          "internalType": "address",
          "name": "_owner",
          "type": "address"
        }
      ],
      "name": "addOwner",
      "outputs": [],
      "stateMutability": "nonpayable",
      "type": "function"
    },
    {
      "inputs": [
        {
          "internalType": "address",
          "name": "owner",
          "type": "address"
        },
        {
          "internalType": "address",
          "name": "spender",
          "type": "address"
        }
      ],
      "name": "allowance",
      "outputs": [
        {
          "internalType": "uint256",
          "name": "",
          "type": "uint256"
        }
      ],
      "stateMutability": "view",
      "type": "function"
    },
    {
      "inputs": [
        {
          "internalType": "address",
          "name": "spender",
          "type": "address"
        },
        {
          "internalType": "uint256",
          "name": "amount",
          "type": "uint256"
        }
      ],
      "name": "approve",
      "outputs": [
        {
          "internalType": "bool",
          "name": "",
          "type": "bool"
        }
      ],
      "stateMutability": "nonpayable",
      "type": "function"
    },
    {
      "inputs": [
        {
          "internalType": "address",
          "name": "spender",
          "type": "address"
        },
        {
          "internalType": "uint256",
          "name": "amount",
          "type": "uint256"
        },
        {
          "internalType": "bytes",
          "name": "data",
          "type": "bytes"
        }
      ],
      "name": "approveAndCall",
      "outputs": [
        {
          "internalType": "bool",
          "name": "",
          "type": "bool"
        }
      ],
      "stateMutability": "nonpayable",
      "type": "function"
    },
    {
      "inputs": [
        {
          "internalType": "address",
          "name": "account",
          "type": "address"
        }
      ],
      "name": "balanceOf",
      "outputs": [
        {
          "internalType": "uint256",
          "name": "",
          "type": "uint256"
        }
      ],
      "stateMutability": "view",
      "type": "function"
    },
    {
      "inputs": [
        {
          "internalType": "address",
          "name": "account",
          "type": "address"
        },
        {
          "internalType": "uint256",
          "name": "snapshotId",
          "type": "uint256"
        }
      ],
      "name": "balanceOfAt",
      "outputs": [
        {
          "internalType": "uint256",
          "name": "",
          "type": "uint256"
        }
      ],
      "stateMutability": "view",
      "type": "function"
    },
    {
      "inputs": [
        {
          "internalType": "uint256",
          "name": "amount",
          "type": "uint256"
        }
      ],
      "name": "burn",
      "outputs": [],
      "stateMutability": "nonpayable",
      "type": "function"
    },
    {
      "inputs": [
        {
          "internalType": "address",
          "name": "account",
          "type": "address"
        },
        {
          "internalType": "uint256",
          "name": "amount",
          "type": "uint256"
        }
      ],
      "name": "burnFrom",
      "outputs": [],
      "stateMutability": "nonpayable",
      "type": "function"
    },
    {
      "inputs": [],
      "name": "currentSnapshotId",
      "outputs": [
        {
          "internalType": "uint256",
          "name": "",
          "type": "uint256"
        }
      ],
      "stateMutability": "view",
      "type": "function"
    },
    {
      "inputs": [],
      "name": "decimals",
      "outputs": [
        {
          "internalType": "uint8",
          "name": "",
          "type": "uint8"
        }
      ],
      "stateMutability": "view",
      "type": "function"
    },
    {
      "inputs": [
        {
          "internalType": "address",
          "name": "spender",
          "type": "address"
        },
        {
          "internalType": "uint256",
          "name": "subtractedValue",
          "type": "uint256"
        }
      ],
      "name": "decreaseAllowance",
      "outputs": [
        {
          "internalType": "bool",
          "name": "",
          "type": "bool"
        }
      ],
      "stateMutability": "nonpayable",
      "type": "function"
    },
    {
      "inputs": [
        {
          "internalType": "bytes32",
          "name": "role",
          "type": "bytes32"
        }
      ],
      "name": "getRoleAdmin",
      "outputs": [
        {
          "internalType": "bytes32",
          "name": "",
          "type": "bytes32"
        }
      ],
      "stateMutability": "view",
      "type": "function"
    },
    {
      "inputs": [
        {
          "internalType": "bytes32",
          "name": "role",
          "type": "bytes32"
        },
        {
          "internalType": "address",
          "name": "account",
          "type": "address"
        }
      ],
      "name": "grantRole",
      "outputs": [],
      "stateMutability": "nonpayable",
      "type": "function"
    },
    {
      "inputs": [
        {
          "internalType": "bytes32",
          "name": "role",
          "type": "bytes32"
        },
        {
          "internalType": "address",
          "name": "account",
          "type": "address"
        }
      ],
      "name": "hasRole",
      "outputs": [
        {
          "internalType": "bool",
          "name": "",
          "type": "bool"
        }
      ],
      "stateMutability": "view",
      "type": "function"
    },
    {
      "inputs": [
        {
          "internalType": "address",
          "name": "spender",
          "type": "address"
        },
        {
          "internalType": "uint256",
          "name": "addedValue",
          "type": "uint256"
        }
      ],
      "name": "increaseAllowance",
      "outputs": [
        {
          "internalType": "bool",
          "name": "",
          "type": "bool"
        }
      ],
      "stateMutability": "nonpayable",
      "type": "function"
    },
    {
      "inputs": [
        {
          "internalType": "address",
          "name": "account",
          "type": "address"
        },
        {
          "internalType": "uint256",
          "name": "amount",
          "type": "uint256"
        }
      ],
      "name": "mint",
      "outputs": [
        {
          "internalType": "bool",
          "name": "",
          "type": "bool"
        }
      ],
      "stateMutability": "nonpayable",
      "type": "function"
    },
    {
      "inputs": [],
      "name": "name",
      "outputs": [
        {
          "internalType": "string",
          "name": "",
          "type": "string"
        }
      ],
      "stateMutability": "view",
      "type": "function"
    },
    {
      "inputs": [
        {
          "internalType": "address",
          "name": "owner",
          "type": "address"
        }
      ],
      "name": "nonces",
      "outputs": [
        {
          "internalType": "uint256",
          "name": "",
          "type": "uint256"
        }
      ],
      "stateMutability": "view",
      "type": "function"
    },
    {
      "inputs": [
        {
          "internalType": "address",
          "name": "owner",
          "type": "address"
        },
        {
          "internalType": "address",
          "name": "spender",
          "type": "address"
        },
        {
          "internalType": "uint256",
          "name": "value",
          "type": "uint256"
        },
        {
          "internalType": "uint256",
          "name": "deadline",
          "type": "uint256"
        },
        {
          "internalType": "uint8",
          "name": "v",
          "type": "uint8"
        },
        {
          "internalType": "bytes32",
          "name": "r",
          "type": "bytes32"
        },
        {
          "internalType": "bytes32",
          "name": "s",
          "type": "bytes32"
        }
      ],
      "name": "permit",
      "outputs": [],
      "stateMutability": "nonpayable",
      "type": "function"
    },
    {
      "inputs": [
        {
          "internalType": "bytes32",
          "name": "role",
          "type": "bytes32"
        },
        {
          "internalType": "address",
          "name": "account",
          "type": "address"
        }
      ],
      "name": "renounceRole",
      "outputs": [],
      "stateMutability": "nonpayable",
      "type": "function"
    },
    {
      "inputs": [
        {
          "internalType": "bytes32",
          "name": "role",
          "type": "bytes32"
        },
        {
          "internalType": "address",
          "name": "account",
          "type": "address"
        }
      ],
      "name": "revokeRole",
      "outputs": [],
      "stateMutability": "nonpayable",
      "type": "function"
    },
    {
      "inputs": [
        {
          "internalType": "address",
          "name": "recipient",
          "type": "address"
        },
        {
          "internalType": "uint256",
          "name": "amount",
          "type": "uint256"
        }
      ],
      "name": "safeTransfer",
      "outputs": [],
      "stateMutability": "nonpayable",
      "type": "function"
    },
    {
      "inputs": [
        {
          "internalType": "address",
          "name": "recipient",
          "type": "address"
        },
        {
          "internalType": "uint256",
          "name": "amount",
          "type": "uint256"
        },
        {
          "internalType": "bytes",
          "name": "data",
          "type": "bytes"
        }
      ],
      "name": "safeTransfer",
      "outputs": [],
      "stateMutability": "nonpayable",
      "type": "function"
    },
    {
      "inputs": [
        {
          "internalType": "address",
          "name": "sender",
          "type": "address"
        },
        {
          "internalType": "address",
          "name": "recipient",
          "type": "address"
        },
        {
          "internalType": "uint256",
          "name": "amount",
          "type": "uint256"
        }
      ],
      "name": "safeTransferFrom",
      "outputs": [],
      "stateMutability": "nonpayable",
      "type": "function"
    },
    {
      "inputs": [
        {
          "internalType": "address",
          "name": "sender",
          "type": "address"
        },
        {
          "internalType": "address",
          "name": "recipient",
          "type": "address"
        },
        {
          "internalType": "uint256",
          "name": "amount",
          "type": "uint256"
        },
        {
          "internalType": "bytes",
          "name": "data",
          "type": "bytes"
        }
      ],
      "name": "safeTransferFrom",
      "outputs": [],
      "stateMutability": "nonpayable",
      "type": "function"
    },
    {
      "inputs": [],
      "name": "snapshot",
      "outputs": [
        {
          "internalType": "uint256",
          "name": "",
          "type": "uint256"
        }
      ],
      "stateMutability": "nonpayable",
      "type": "function"
    },
    {
      "inputs": [
        {
          "internalType": "bytes4",
          "name": "interfaceId",
          "type": "bytes4"
        }
      ],
      "name": "supportsInterface",
      "outputs": [
        {
          "internalType": "bool",
          "name": "",
          "type": "bool"
        }
      ],
      "stateMutability": "view",
      "type": "function"
    },
    {
      "inputs": [],
      "name": "symbol",
      "outputs": [
        {
          "internalType": "string",
          "name": "",
          "type": "string"
        }
      ],
      "stateMutability": "view",
      "type": "function"
    },
    {
      "inputs": [],
      "name": "totalSupply",
      "outputs": [
        {
          "internalType": "uint256",
          "name": "",
          "type": "uint256"
        }
      ],
      "stateMutability": "view",
      "type": "function"
    },
    {
      "inputs": [
        {
          "internalType": "uint256",
          "name": "snapshotId",
          "type": "uint256"
        }
      ],
      "name": "totalSupplyAt",
      "outputs": [
        {
          "internalType": "uint256",
          "name": "",
          "type": "uint256"
        }
      ],
      "stateMutability": "view",
      "type": "function"
    },
    {
      "inputs": [
        {
          "internalType": "address",
          "name": "recipient",
          "type": "address"
        },
        {
          "internalType": "uint256",
          "name": "amount",
          "type": "uint256"
        }
      ],
      "name": "transfer",
      "outputs": [
        {
          "internalType": "bool",
          "name": "",
          "type": "bool"
        }
      ],
      "stateMutability": "nonpayable",
      "type": "function"
    },
    {
      "inputs": [
        {
          "internalType": "address",
          "name": "sender",
          "type": "address"
        },
        {
          "internalType": "address",
          "name": "recipient",
          "type": "address"
        },
        {
          "internalType": "uint256",
          "name": "amount",
          "type": "uint256"
        }
      ],
      "name": "transferFrom",
      "outputs": [
        {
          "internalType": "bool",
          "name": "",
          "type": "bool"
        }
      ],
      "stateMutability": "nonpayable",
      "type": "function"
    }
  ],
  "bytecode": "0x6101606040527f6e71edae12b1b97f4d1f60370fef10105fa2faae0126114a169c64845d6126c9610140523480156200003757600080fd5b5060405162002d8038038062002d808339810160408190526200005a9162000476565b81604051806040016040528060018152602001603160f81b815250818185858160049080519060200190620000919291906200031d565b508051620000a79060059060208401906200031d565b50620000be9150636578737160e01b9050620001e9565b620000d06301ffc9a760e01b620001e9565b815160208084019190912082518383012060e08290526101008190524660a0818152604080517f8b73c3c69bb8fe3d512ecc4cf759cc79239f7b179b0ffacaa9a75d522b39400f81880181905281830187905260608201869052608082019490945230818401528151808203909301835260c00190528051940193909320919290916080523060601b60c052610120525062000177945060009350339250506200026d9050565b620001a37f9f2df0fed2c77648de5860a4cc508cd0818c85b8b8a1ab4ceeef8d981c8956a6336200026d565b620001cf7f5fdbd35e8da83ee755d5e62a539e5ed7f47126abede0b8b10f9ea43dc6eed07f336200026d565b620001e1634fc3585960e01b620001e9565b505062000530565b6001600160e01b03198082161415620002485760405162461bcd60e51b815260206004820152601c60248201527f4552433136353a20696e76616c696420696e7465726661636520696400000000604482015260640160405180910390fd5b6001600160e01b0319166000908152600660205260409020805460ff19166001179055565b6200027982826200027d565b5050565b6000828152602081815260408083206001600160a01b038516845290915290205460ff1662000279576000828152602081815260408083206001600160a01b03851684529091529020805460ff19166001179055620002d93390565b6001600160a01b0316816001600160a01b0316837f2f8788117e7eff1d82e926ec794901d17c78024a50270940304540a733656f0d60405160405180910390a45050565b8280546200032b90620004dd565b90600052602060002090601f0160209004810192826200034f57600085556200039a565b82601f106200036a57805160ff19168380011785556200039a565b828001600101855582156200039a579182015b828111156200039a5782518255916020019190600101906200037d565b50620003a8929150620003ac565b5090565b5b80821115620003a85760008155600101620003ad565b600082601f830112620003d4578081fd5b81516001600160401b0380821115620003f157620003f16200051a565b604051601f8301601f19908116603f011681019082821181831017156200041c576200041c6200051a565b8160405283815260209250868385880101111562000438578485fd5b8491505b838210156200045b57858201830151818301840152908201906200043c565b838211156200046c57848385830101525b9695505050505050565b6000806040838503121562000489578182fd5b82516001600160401b0380821115620004a0578384fd5b620004ae86838701620003c3565b93506020850151915080821115620004c4578283fd5b50620004d385828601620003c3565b9150509250929050565b600181811c90821680620004f257607f821691505b602082108114156200051457634e487b7160e01b600052602260045260246000fd5b50919050565b634e487b7160e01b600052604160045260246000fd5b60805160a05160c05160601c60e0516101005161012051610140516127eb620005956000396000818161045501526116f20152600061105c015260006110ab0152600061108601526000610fdf015260006110090152600061103301526127eb6000f3fe608060405234801561001057600080fd5b50600436106102485760003560e01c80637ecebe001161013b578063a9059cbb116100b8578063d53913931161007c578063d5391393146104fe578063d547741f14610513578063dd62ed3e14610526578063eb7955491461055f578063ef1944351461057257600080fd5b8063a9059cbb14610492578063b88d4fde146104a5578063b9844d8d146104b8578063cae9ca51146104d8578063d505accf146104eb57600080fd5b80639711715a116100ff5780639711715a14610435578063981b24d01461043d578063982aaf6b14610450578063a217fddf14610477578063a457c2d71461047f57600080fd5b80637ecebe00146103e457806391d14854146103f75780639321478c1461040a57806395d89b4114610425578063970875ce1461042d57600080fd5b806339509351116101c95780634ee2cd7e1161018d5780634ee2cd7e146103835780637028e2cd146103965780637065cb48146103ab57806370a08231146103be57806379cc6790146103d157600080fd5b8063395093511461032457806340c10f1914610337578063423f6cef1461034a57806342842e0e1461035d57806342966c681461037057600080fd5b8063248a9ca311610210578063248a9ca3146102c25780632f2ff15d146102e5578063313ce567146102fa5780633644e5151461030957806336568abe1461031157600080fd5b806301ffc9a71461024d57806306fdde0314610275578063095ea7b31461028a57806318160ddd1461029d57806323b872dd146102af575b600080fd5b61026061025b366004612493565b610595565b60405190151581526020015b60405180910390f35b61027d6105c7565b60405161026c91906125ca565b6102606102983660046123bb565b610659565b6003545b60405190815260200161026c565b6102606102bd3660046122a9565b61066f565b6102a16102d0366004612459565b60009081526020819052604090206001015490565b6102f86102f3366004612471565b61071e565b005b6040516012815260200161026c565b6102a1610749565b6102f861031f366004612471565b610758565b6102606103323660046123bb565b6107d6565b6102606103453660046123bb565b610812565b6102f86103583660046123bb565b610841565b6102f861036b3660046122a9565b61085b565b6102f861037e366004612459565b610876565b6102a16103913660046123bb565b610883565b6102a160008051602061275683398151915281565b6102f86103b936600461225d565b6108b4565b6102a16103cc36600461225d565b610908565b6102f86103df3660046123bb565b610923565b6102a16103f236600461225d565b6109a4565b610260610405366004612471565b6109c2565b610418636578737160e01b81565b60405161026c91906125b5565b61027d6109eb565b6102a16109fa565b6102a1610a05565b6102a161044b366004612459565b610a2e565b6102a17f000000000000000000000000000000000000000000000000000000000000000081565b6102a1600081565b61026061048d3660046123bb565b610a57565b6102606104a03660046123bb565b610ae6565b6102f86104b33660046122e4565b610af3565b6102a16104c636600461225d565b60076020526000908152604090205481565b6102606104e63660046123e4565b610b2d565b6102f86104f936600461234a565b610b4e565b6102a160008051602061277683398151915281565b6102f8610521366004612471565b610b71565b6102a1610534366004612277565b6001600160a01b03918216600090815260026020908152604080832093909416825291909152205490565b6102f861056d3660046123e4565b610b97565b610260610580366004612493565b60066020526000908152604090205460ff1681565b6001600160e01b0319811660009081526006602052604081205460ff16806105c157506105c182610bca565b92915050565b6060600480546105d6906126de565b80601f0160208091040260200160405190810160405280929190818152602001828054610602906126de565b801561064f5780601f106106245761010080835404028352916020019161064f565b820191906000526020600020905b81548152906001019060200180831161063257829003601f168201915b5050505050905090565b6000610666338484610bff565b50600192915050565b600061067c848484610d23565b6001600160a01b0384166000908152600260209081526040808320338452909152902054828110156107065760405162461bcd60e51b815260206004820152602860248201527f45524332303a207472616e7366657220616d6f756e74206578636565647320616044820152676c6c6f77616e636560c01b60648201526084015b60405180910390fd5b6107138533858403610bff565b506001949350505050565b60008281526020819052604090206001015461073a8133610eea565b6107448383610f4e565b505050565b6000610753610fd2565b905090565b6001600160a01b03811633146107c85760405162461bcd60e51b815260206004820152602f60248201527f416363657373436f6e74726f6c3a2063616e206f6e6c792072656e6f756e636560448201526e103937b632b9903337b91039b2b63360891b60648201526084016106fd565b6107d282826110f9565b5050565b3360008181526002602090815260408083206001600160a01b0387168452909152812054909161066691859061080d90869061262d565b610bff565b600060008051602061277683398151915261082d8133610eea565b610837848461115e565b5060019392505050565b6107d2828260405180602001604052806000815250610b97565b61074483838360405180602001604052806000815250610af3565b6108803382611237565b50565b6000806000610892858561137f565b91509150816108a9576108a485610908565b6108ab565b805b95945050505050565b6000805160206127768339815191526108cd8133610eea565b6108d86000836113b7565b6108f0600080516020612776833981519152836113b7565b6107d2600080516020612756833981519152836113b7565b6001600160a01b031660009081526001602052604090205490565b600061092f8333610534565b90508181101561098d5760405162461bcd60e51b8152602060048201526024808201527f45524332303a206275726e20616d6f756e74206578636565647320616c6c6f77604482015263616e636560e01b60648201526084016106fd565b61099a8333848403610bff565b6107448383611237565b6001600160a01b0381166000908152600760205260408120546105c1565b6000918252602082815260408084206001600160a01b0393909316845291905290205460ff1690565b6060600580546105d6906126de565b6000610753600b5490565b6000600080516020612756833981519152610a208133610eea565b610a286113c1565b91505090565b6000806000610a3c8461141b565b9150915081610a4d57600354610a4f565b805b949350505050565b3360009081526002602090815260408083206001600160a01b038616845290915281205482811015610ad95760405162461bcd60e51b815260206004820152602560248201527f45524332303a2064656372656173656420616c6c6f77616e63652062656c6f77604482015264207a65726f60d81b60648201526084016106fd565b6108373385858403610bff565b6000610666338484610d23565b610afe84848461066f565b50610b0b84848484611438565b610b275760405162461bcd60e51b81526004016106fd906125dd565b50505050565b6000610b398484610659565b610b4257600080fd5b610837338585856114f6565b610b5d8787878787878761169e565b610b68878787610bff565b50505050505050565b600082815260208190526040902060010154610b8d8133610eea565b61074483836110f9565b610ba18383610ae6565b50610bae33848484611438565b6107445760405162461bcd60e51b81526004016106fd906125dd565b60006001600160e01b03198216637965db0b60e01b14806105c157506301ffc9a760e01b6001600160e01b03198316146105c1565b6001600160a01b038316610c615760405162461bcd60e51b8152602060048201526024808201527f45524332303a20617070726f76652066726f6d20746865207a65726f206164646044820152637265737360e01b60648201526084016106fd565b6001600160a01b038216610cc25760405162461bcd60e51b815260206004820152602260248201527f45524332303a20617070726f766520746f20746865207a65726f206164647265604482015261737360f01b60648201526084016106fd565b6001600160a01b0383811660008181526002602090815260408083209487168084529482529182902085905590518481527f8c5be1e5ebec7d5bd14f71427d1e84f3dd0314c0f7b2291e5b200ac8c7c3b925910160405180910390a3505050565b6001600160a01b038316610d875760405162461bcd60e51b815260206004820152602560248201527f45524332303a207472616e736665722066726f6d20746865207a65726f206164604482015264647265737360d81b60648201526084016106fd565b6001600160a01b038216610de95760405162461bcd60e51b815260206004820152602360248201527f45524332303a207472616e7366657220746f20746865207a65726f206164647260448201526265737360e81b60648201526084016106fd565b610df48383836117f7565b6001600160a01b03831660009081526001602052604090205481811015610e6c5760405162461bcd60e51b815260206004820152602660248201527f45524332303a207472616e7366657220616d6f756e7420657863656564732062604482015265616c616e636560d01b60648201526084016106fd565b6001600160a01b03808516600090815260016020526040808220858503905591851681529081208054849290610ea390849061262d565b92505081905550826001600160a01b0316846001600160a01b031660008051602061279683398151915284604051610edd91815260200190565b60405180910390a3610b27565b610ef482826109c2565b6107d257610f0c816001600160a01b0316601461183f565b610f1783602061183f565b604051602001610f28929190612513565b60408051601f198184030181529082905262461bcd60e51b82526106fd916004016125ca565b610f5882826109c2565b6107d2576000828152602081815260408083206001600160a01b03851684529091529020805460ff19166001179055610f8e3390565b6001600160a01b0316816001600160a01b0316837f2f8788117e7eff1d82e926ec794901d17c78024a50270940304540a733656f0d60405160405180910390a45050565b6000306001600160a01b037f00000000000000000000000000000000000000000000000000000000000000001614801561102b57507f000000000000000000000000000000000000000000000000000000000000000046145b1561105557507f000000000000000000000000000000000000000000000000000000000000000090565b50604080517f00000000000000000000000000000000000000000000000000000000000000006020808301919091527f0000000000000000000000000000000000000000000000000000000000000000828401527f000000000000000000000000000000000000000000000000000000000000000060608301524660808301523060a0808401919091528351808403909101815260c0909201909252805191012090565b61110382826109c2565b156107d2576000828152602081815260408083206001600160a01b0385168085529252808320805460ff1916905551339285917ff6391f5c32d9c69d2a47ea670b442974b53935d1edc7fd64eb21e047a839171b9190a45050565b6001600160a01b0382166111b45760405162461bcd60e51b815260206004820152601f60248201527f45524332303a206d696e7420746f20746865207a65726f20616464726573730060448201526064016106fd565b6111c0600083836117f7565b80600360008282546111d2919061262d565b90915550506001600160a01b038216600090815260016020526040812080548392906111ff90849061262d565b90915550506040518181526001600160a01b038316906000906000805160206127968339815191529060200160405180910390a35050565b6001600160a01b0382166112975760405162461bcd60e51b815260206004820152602160248201527f45524332303a206275726e2066726f6d20746865207a65726f206164647265736044820152607360f81b60648201526084016106fd565b6112a3826000836117f7565b6001600160a01b038216600090815260016020526040902054818110156113175760405162461bcd60e51b815260206004820152602260248201527f45524332303a206275726e20616d6f756e7420657863656564732062616c616e604482015261636560f01b60648201526084016106fd565b6001600160a01b0383166000908152600160205260408120838303905560038054849290611346908490612684565b90915550506040518281526000906001600160a01b038516906000805160206127968339815191529060200160405180910390a3505050565b6001600160a01b03821660009081526008602052604081208190819081906113a8908690611a28565b909450925050505b9250929050565b6107d28282610f4e565b60006113d1600b80546001019055565b60006113db6109fa565b90507f8030e83b04d87bef53480e26263266d6ca66863aa8506aca6f2559d18aa1cb678160405161140e91815260200190565b60405180910390a1919050565b60008060008061142c856009611a28565b90969095509350505050565b60006001600160a01b0384163b61145157506001610a4f565b604051634fc3585960e01b81526000906001600160a01b03861690634fc35859906114869033908a9089908990600401612582565b602060405180830381600087803b1580156114a057600080fd5b505af11580156114b4573d6000803e3d6000fd5b505050506040513d601f19601f820116820180604052508101906114d891906124af565b6001600160e01b031916634fc3585960e01b14915050949350505050565b632139e50b60e11b6115088482611b2a565b61156e5760405162461bcd60e51b815260206004820152603160248201527f617070726f7665416e6443616c6c3a207370656e64657220646f65736e277420604482015270737570706f7274206f6e417070726f766560781b60648201526084016106fd565b600080856001600160a01b031683888888886040516024016115939493929190612582565b60408051601f198184030181529181526020820180516001600160e01b03166001600160e01b03199094169390931790925290516115d191906124f7565b6000604051808303816000865af19150503d806000811461160e576040519150601f19603f3d011682016040523d82523d6000602084013e611613565b606091505b50915091508181906116385760405162461bcd60e51b81526004016106fd91906125ca565b506020810151915081610b685760405162461bcd60e51b815260206004820152602860248201527f617070726f7665416e6443616c6c3a206661696c656420746f2063616c6c206f6044820152676e417070726f766560c01b60648201526084016106fd565b834211156116ee5760405162461bcd60e51b815260206004820152601d60248201527f45524332305065726d69743a206578706972656420646561646c696e6500000060448201526064016106fd565b60007f000000000000000000000000000000000000000000000000000000000000000088888861171d8c611b46565b6040805160208101969096526001600160a01b0394851690860152929091166060840152608083015260a082015260c0810186905260e001604051602081830303815290604052805190602001209050600061177882611b6e565b9050600061178882878787611bbc565b9050896001600160a01b0316816001600160a01b0316146117eb5760405162461bcd60e51b815260206004820152601e60248201527f45524332305065726d69743a20696e76616c6964207369676e6174757265000060448201526064016106fd565b50505050505050505050565b6001600160a01b0383166118165761180e82611be4565b610744611c13565b6001600160a01b03821661182d5761180e83611be4565b61183683611be4565b61074482611be4565b6060600061184e836002612665565b61185990600261262d565b67ffffffffffffffff81111561187f57634e487b7160e01b600052604160045260246000fd5b6040519080825280601f01601f1916602001820160405280156118a9576020820181803683370190505b509050600360fc1b816000815181106118d257634e487b7160e01b600052603260045260246000fd5b60200101906001600160f81b031916908160001a905350600f60fb1b8160018151811061190f57634e487b7160e01b600052603260045260246000fd5b60200101906001600160f81b031916908160001a9053506000611933846002612665565b61193e90600161262d565b90505b60018111156119d2576f181899199a1a9b1b9c1cb0b131b232b360811b85600f166010811061198057634e487b7160e01b600052603260045260246000fd5b1a60f81b8282815181106119a457634e487b7160e01b600052603260045260246000fd5b60200101906001600160f81b031916908160001a90535060049490941c936119cb816126c7565b9050611941565b508315611a215760405162461bcd60e51b815260206004820181905260248201527f537472696e67733a20686578206c656e67746820696e73756666696369656e7460448201526064016106fd565b9392505050565b60008060008411611a745760405162461bcd60e51b815260206004820152601660248201527504552433230536e617073686f743a20696420697320360541b60448201526064016106fd565b611a7c6109fa565b841115611acb5760405162461bcd60e51b815260206004820152601d60248201527f4552433230536e617073686f743a206e6f6e6578697374656e7420696400000060448201526064016106fd565b6000611ad78486611c22565b8454909150811415611af05760008092509250506113b0565b6001846001018281548110611b1557634e487b7160e01b600052603260045260246000fd5b906000526020600020015492509250506113b0565b6000611b3583611d01565b8015611a215750611a218383611d34565b6001600160a01b03811660009081526007602052604090208054600181018255905b50919050565b60006105c1611b7b610fd2565b8360405161190160f01b6020820152602281018390526042810182905260009060620160405160208183030381529060405280519060200120905092915050565b6000806000611bcd87878787611e25565b91509150611bda81611f08565b5095945050505050565b610880611c05826001600160a01b0316600090815260086020526040902090565b611c0e83610908565b612104565b611c206009600354612104565b565b8154600090611c33575060006105c1565b82546000905b80821015611c9d576000611c4d838361214e565b905084868281548110611c7057634e487b7160e01b600052603260045260246000fd5b90600052602060002001541115611c8957809150611c97565b611c9481600161262d565b92505b50611c39565b600082118015611ce057508385611cb5600185612684565b81548110611cd357634e487b7160e01b600052603260045260246000fd5b9060005260206000200154145b15611cf957611cf0600183612684565b925050506105c1565b5090506105c1565b6000611d14826301ffc9a760e01b611d34565b80156105c15750611d2d826001600160e01b0319611d34565b1592915050565b6000806301ffc9a760e01b83604051602401611d5091906125b5565b604051602081830303815290604052906001600160e01b0319166020820180516001600160e01b0383818316178352505050509050600080856001600160a01b031661753084604051611da391906124f7565b6000604051808303818686fa925050503d8060008114611ddf576040519150601f19603f3d011682016040523d82523d6000602084013e611de4565b606091505b5091509150602081511015611dff57600093505050506105c1565b818015611e1b575080806020019051810190611e1b9190612439565b9695505050505050565b6000806fa2a8918ca85bafe22016d0b997e4df60600160ff1b03831115611e525750600090506003611eff565b8460ff16601b14158015611e6a57508460ff16601c14155b15611e7b5750600090506004611eff565b6040805160008082526020820180845289905260ff881692820192909252606081018690526080810185905260019060a0016020604051602081039080840390855afa158015611ecf573d6000803e3d6000fd5b5050604051601f1901519150506001600160a01b038116611ef857600060019250925050611eff565b9150600090505b94509492505050565b6000816004811115611f2a57634e487b7160e01b600052602160045260246000fd5b1415611f335750565b6001816004811115611f5557634e487b7160e01b600052602160045260246000fd5b1415611f9e5760405162461bcd60e51b815260206004820152601860248201527745434453413a20696e76616c6964207369676e617475726560401b60448201526064016106fd565b6002816004811115611fc057634e487b7160e01b600052602160045260246000fd5b141561200e5760405162461bcd60e51b815260206004820152601f60248201527f45434453413a20696e76616c6964207369676e6174757265206c656e6774680060448201526064016106fd565b600381600481111561203057634e487b7160e01b600052602160045260246000fd5b14156120895760405162461bcd60e51b815260206004820152602260248201527f45434453413a20696e76616c6964207369676e6174757265202773272076616c604482015261756560f01b60648201526084016106fd565b60048160048111156120ab57634e487b7160e01b600052602160045260246000fd5b14156108805760405162461bcd60e51b815260206004820152602260248201527f45434453413a20696e76616c6964207369676e6174757265202776272076616c604482015261756560f01b60648201526084016106fd565b600061210e6109fa565b90508061211a84612169565b1015610744578254600180820185556000858152602080822090930193909355938401805494850181558252902090910155565b600061215d6002848418612645565b611a219084841661262d565b805460009061217a57506000919050565b8154829061218a90600190612684565b815481106121a857634e487b7160e01b600052603260045260246000fd5b90600052602060002001549050919050565b919050565b80356001600160a01b03811681146121ba57600080fd5b600082601f8301126121e6578081fd5b813567ffffffffffffffff8082111561220157612201612729565b604051601f8301601f19908116603f0116810190828211818310171561222957612229612729565b81604052838152866020858801011115612241578485fd5b8360208701602083013792830160200193909352509392505050565b60006020828403121561226e578081fd5b611a21826121bf565b60008060408385031215612289578081fd5b612292836121bf565b91506122a0602084016121bf565b90509250929050565b6000806000606084860312156122bd578081fd5b6122c6846121bf565b92506122d4602085016121bf565b9150604084013590509250925092565b600080600080608085870312156122f9578081fd5b612302856121bf565b9350612310602086016121bf565b925060408501359150606085013567ffffffffffffffff811115612332578182fd5b61233e878288016121d6565b91505092959194509250565b600080600080600080600060e0888a031215612364578283fd5b61236d886121bf565b965061237b602089016121bf565b95506040880135945060608801359350608088013560ff8116811461239e578384fd5b9699959850939692959460a0840135945060c09093013592915050565b600080604083850312156123cd578182fd5b6123d6836121bf565b946020939093013593505050565b6000806000606084860312156123f8578283fd5b612401846121bf565b925060208401359150604084013567ffffffffffffffff811115612423578182fd5b61242f868287016121d6565b9150509250925092565b60006020828403121561244a578081fd5b81518015158114611a21578182fd5b60006020828403121561246a578081fd5b5035919050565b60008060408385031215612483578182fd5b823591506122a0602084016121bf565b6000602082840312156124a4578081fd5b8135611a218161273f565b6000602082840312156124c0578081fd5b8151611a218161273f565b600081518084526124e381602086016020860161269b565b601f01601f19169290920160200192915050565b6000825161250981846020870161269b565b9190910192915050565b76020b1b1b2b9b9a1b7b73a3937b61d1030b1b1b7bab73a1604d1b81526000835161254581601785016020880161269b565b7001034b99036b4b9b9b4b733903937b6329607d1b601791840191820152835161257681602884016020880161269b565b01602801949350505050565b6001600160a01b0385811682528416602082015260408101839052608060608201819052600090611e1b908301846124cb565b6001600160e01b031991909116815260200190565b602081526000611a2160208301846124cb565b60208082526030908201527f45524332303a207472616e7366657220746f206e6f6e2045524332305265636560408201526f34bb32b91034b6b83632b6b2b73a32b960811b606082015260800190565b6000821982111561264057612640612713565b500190565b60008261266057634e487b7160e01b81526012600452602481fd5b500490565b600081600019048311821515161561267f5761267f612713565b500290565b60008282101561269657612696612713565b500390565b60005b838110156126b657818101518382015260200161269e565b83811115610b275750506000910152565b6000816126d6576126d6612713565b506000190190565b600181811c908216806126f257607f821691505b60208210811415611b6857634e487b7160e01b600052602260045260246000fd5b634e487b7160e01b600052601160045260246000fd5b634e487b7160e01b600052604160045260246000fd5b6001600160e01b03198116811461088057600080fdfe5fdbd35e8da83ee755d5e62a539e5ed7f47126abede0b8b10f9ea43dc6eed07f9f2df0fed2c77648de5860a4cc508cd0818c85b8b8a1ab4ceeef8d981c8956a6ddf252ad1be2c89b69c2b068fc378daa952ba7f163c4a11628f55a4df523b3efa26469706673582212204b7c468a53a1ab35f467791d25b2ce68c6ca901259dbce1f25a7b60a77a3d4ff64736f6c63430008040033",
  "linkReferences": {},
  "deployedLinkReferences": {}
}