{
  "_format": "hh-sol-artifact-1",
  "contractName": "PowerTONSwapper1",
  "sourceName": "contracts/powerton/PowerTONSwapper1.sol",
  "abi": [
    {
      "inputs": [],
      "stateMutability": "nonpayable",
      "type": "constructor"
    },
    {
      "anonymous": false,
      "inputs": [
        {
          "indexed": false,
          "internalType": "uint256",
          "name": "tosAmount",
          "type": "uint256"
        }
      ],
      "name": "Burned",
      "type": "event"
    },
    {
      "anonymous": false,
      "inputs": [
        {
          "indexed": true,
          "internalType": "address",
          "name": "account",
          "type": "address"
        },
        {
          "indexed": false,
          "internalType": "uint256",
          "name": "amountToMint",
          "type": "uint256"
        },
        {
          "indexed": false,
          "internalType": "uint256",
          "name": "amountToBurn",
          "type": "uint256"
        }
      ],
      "name": "OnChangeAmountInRecoder",
      "type": "event"
    },
    {
      "anonymous": false,
      "inputs": [
        {
          "indexed": false,
          "internalType": "address",
          "name": "layer2",
          "type": "address"
        },
        {
          "indexed": true,
          "internalType": "address",
          "name": "account",
          "type": "address"
        },
        {
          "indexed": false,
          "internalType": "uint256",
          "name": "amount",
          "type": "uint256"
        }
      ],
      "name": "OnDeposit",
      "type": "event"
    },
    {
      "anonymous": false,
      "inputs": [
        {
          "indexed": false,
          "internalType": "address",
          "name": "layer2",
          "type": "address"
        },
        {
          "indexed": true,
          "internalType": "address",
          "name": "account",
          "type": "address"
        },
        {
          "indexed": false,
          "internalType": "uint256",
          "name": "amount",
          "type": "uint256"
        }
      ],
      "name": "OnWithdraw",
      "type": "event"
    },
    {
      "anonymous": false,
      "inputs": [
        {
          "indexed": true,
          "internalType": "bytes32",
          "name": "role",
          "type": "bytes32"
        },
        {
          "indexed": true,
          "internalType": "bytes32",
          "name": "previousAdminRole",
          "type": "bytes32"
        },
        {
          "indexed": true,
          "internalType": "bytes32",
          "name": "newAdminRole",
          "type": "bytes32"
        }
      ],
      "name": "RoleAdminChanged",
      "type": "event"
    },
    {
      "anonymous": false,
      "inputs": [
        {
          "indexed": true,
          "internalType": "bytes32",
          "name": "role",
          "type": "bytes32"
        },
        {
          "indexed": true,
          "internalType": "address",
          "name": "account",
          "type": "address"
        },
        {
          "indexed": true,
          "internalType": "address",
          "name": "sender",
          "type": "address"
        }
      ],
      "name": "RoleGranted",
      "type": "event"
    },
    {
      "anonymous": false,
      "inputs": [
        {
          "indexed": true,
          "internalType": "bytes32",
          "name": "role",
          "type": "bytes32"
        },
        {
          "indexed": true,
          "internalType": "address",
          "name": "account",
          "type": "address"
        },
        {
          "indexed": true,
          "internalType": "address",
          "name": "sender",
          "type": "address"
        }
      ],
      "name": "RoleRevoked",
      "type": "event"
    },
    {
      "anonymous": false,
      "inputs": [
        {
          "indexed": false,
          "internalType": "uint256",
          "name": "wtonAmount",
          "type": "uint256"
        },
        {
          "indexed": false,
          "internalType": "uint256",
          "name": "tosAmount",
          "type": "uint256"
        }
      ],
      "name": "Swapped",
      "type": "event"
    },
    {
      "inputs": [],
      "name": "ADMIN_ROLE",
      "outputs": [
        {
          "internalType": "bytes32",
          "name": "",
          "type": "bytes32"
        }
      ],
      "stateMutability": "view",
      "type": "function"
    },
    {
      "inputs": [],
      "name": "BURNER_ROLE",
      "outputs": [
        {
          "internalType": "bytes32",
          "name": "",
          "type": "bytes32"
        }
      ],
      "stateMutability": "view",
      "type": "function"
    },
    {
      "inputs": [],
      "name": "DEFAULT_ADMIN_ROLE",
      "outputs": [
        {
          "internalType": "bytes32",
          "name": "",
          "type": "bytes32"
        }
      ],
      "stateMutability": "view",
      "type": "function"
    },
    {
      "inputs": [],
      "name": "MINTER_ROLE",
      "outputs": [
        {
          "internalType": "bytes32",
          "name": "",
          "type": "bytes32"
        }
      ],
      "stateMutability": "view",
      "type": "function"
    },
    {
      "inputs": [
        {
          "internalType": "int24",
          "name": "_tick",
          "type": "int24"
        },
        {
          "internalType": "int24",
          "name": "_tickSpacings",
          "type": "int24"
        }
      ],
      "name": "acceptMaxTick",
      "outputs": [
        {
          "internalType": "int24",
          "name": "",
          "type": "int24"
        }
      ],
      "stateMutability": "nonpayable",
      "type": "function"
    },
    {
      "inputs": [
        {
          "internalType": "int24",
          "name": "_tick",
          "type": "int24"
        },
        {
          "internalType": "int24",
          "name": "_tickSpacings",
          "type": "int24"
        }
      ],
      "name": "acceptMinTick",
      "outputs": [
        {
          "internalType": "int24",
          "name": "",
          "type": "int24"
        }
      ],
      "stateMutability": "nonpayable",
      "type": "function"
    },
    {
      "inputs": [
        {
          "internalType": "address",
          "name": "account",
          "type": "address"
        }
      ],
      "name": "addAdmin",
      "outputs": [],
      "stateMutability": "nonpayable",
      "type": "function"
    },
    {
      "inputs": [],
      "name": "approveToUniswap",
      "outputs": [],
      "stateMutability": "nonpayable",
      "type": "function"
    },
    {
      "inputs": [],
      "name": "autocoinageSnapshot",
      "outputs": [
        {
          "internalType": "address",
          "name": "",
          "type": "address"
        }
      ],
      "stateMutability": "view",
      "type": "function"
    },
    {
      "inputs": [],
      "name": "currentRound",
      "outputs": [
        {
          "internalType": "uint256",
          "name": "",
          "type": "uint256"
        }
      ],
      "stateMutability": "pure",
      "type": "function"
    },
    {
      "inputs": [],
      "name": "currentTick",
      "outputs": [
        {
          "internalType": "uint160",
          "name": "sqrtPriceX96",
          "type": "uint160"
        },
        {
          "internalType": "int24",
          "name": "tick",
          "type": "int24"
        }
      ],
      "stateMutability": "view",
      "type": "function"
    },
    {
      "inputs": [],
      "name": "endRound",
      "outputs": [],
      "stateMutability": "nonpayable",
      "type": "function"
    },
    {
      "inputs": [
        {
          "internalType": "address",
          "name": "token0",
          "type": "address"
        },
        {
          "internalType": "address",
          "name": "token1",
          "type": "address"
        }
      ],
      "name": "getDecimals",
      "outputs": [
        {
          "internalType": "uint256",
          "name": "token0Decimals",
          "type": "uint256"
        },
        {
          "internalType": "uint256",
          "name": "token1Decimals",
          "type": "uint256"
        }
      ],
      "stateMutability": "view",
      "type": "function"
    },
    {
      "inputs": [
        {
          "internalType": "int24",
          "name": "tickSpacings",
          "type": "int24"
        }
      ],
      "name": "getMaxTick",
      "outputs": [
        {
          "internalType": "int24",
          "name": "",
          "type": "int24"
        }
      ],
      "stateMutability": "view",
      "type": "function"
    },
    {
      "inputs": [
        {
          "internalType": "int24",
          "name": "tickSpacings",
          "type": "int24"
        }
      ],
      "name": "getMiniTick",
      "outputs": [
        {
          "internalType": "int24",
          "name": "",
          "type": "int24"
        }
      ],
      "stateMutability": "view",
      "type": "function"
    },
    {
      "inputs": [],
      "name": "getPoolAddress",
      "outputs": [
        {
          "internalType": "address",
          "name": "",
          "type": "address"
        }
      ],
      "stateMutability": "view",
      "type": "function"
    },
    {
      "inputs": [
        {
          "internalType": "uint160",
          "name": "sqrtPriceX96",
          "type": "uint160"
        }
      ],
      "name": "getPriceX96FromSqrtPriceX96",
      "outputs": [
        {
          "internalType": "uint256",
          "name": "priceX96",
          "type": "uint256"
        }
      ],
      "stateMutability": "pure",
      "type": "function"
    },
    {
      "inputs": [
        {
          "internalType": "int24",
          "name": "tick",
          "type": "int24"
        },
        {
          "internalType": "uint128",
          "name": "amountIn",
          "type": "uint128"
        },
        {
          "internalType": "address",
          "name": "baseToken",
          "type": "address"
        },
        {
          "internalType": "address",
          "name": "quoteToken",
          "type": "address"
        }
      ],
      "name": "getQuoteAtTick",
      "outputs": [
        {
          "internalType": "uint256",
          "name": "amountOut",
          "type": "uint256"
        }
      ],
      "stateMutability": "view",
      "type": "function"
    },
    {
      "inputs": [
        {
          "internalType": "bytes32",
          "name": "role",
          "type": "bytes32"
        }
      ],
      "name": "getRoleAdmin",
      "outputs": [
        {
          "internalType": "bytes32",
          "name": "",
          "type": "bytes32"
        }
      ],
      "stateMutability": "view",
      "type": "function"
    },
    {
      "inputs": [
        {
          "internalType": "uint24",
          "name": "_fee",
          "type": "uint24"
        }
      ],
      "name": "getTickSpacing",
      "outputs": [
        {
          "internalType": "int24",
          "name": "tickSpacings",
          "type": "int24"
        }
      ],
      "stateMutability": "nonpayable",
      "type": "function"
    },
    {
      "inputs": [],
      "name": "getWTONBalance",
      "outputs": [
        {
          "internalType": "uint256",
          "name": "",
          "type": "uint256"
        }
      ],
      "stateMutability": "view",
      "type": "function"
    },
    {
      "inputs": [
        {
          "internalType": "bytes32",
          "name": "role",
          "type": "bytes32"
        },
        {
          "internalType": "address",
          "name": "account",
          "type": "address"
        }
      ],
      "name": "grantRole",
      "outputs": [],
      "stateMutability": "nonpayable",
      "type": "function"
    },
    {
      "inputs": [
        {
          "internalType": "bytes32",
          "name": "role",
          "type": "bytes32"
        },
        {
          "internalType": "address",
          "name": "account",
          "type": "address"
        }
      ],
      "name": "hasRole",
      "outputs": [
        {
          "internalType": "bool",
          "name": "",
          "type": "bool"
        }
      ],
      "stateMutability": "view",
      "type": "function"
    },
    {
      "inputs": [],
      "name": "init",
      "outputs": [],
      "stateMutability": "nonpayable",
      "type": "function"
    },
    {
      "inputs": [
        {
          "internalType": "address",
          "name": "account",
          "type": "address"
        }
      ],
      "name": "isAdmin",
      "outputs": [
        {
          "internalType": "bool",
          "name": "",
          "type": "bool"
        }
      ],
      "stateMutability": "view",
      "type": "function"
    },
    {
      "inputs": [],
      "name": "layer2Registry",
      "outputs": [
        {
          "internalType": "address",
          "name": "",
          "type": "address"
        }
      ],
      "stateMutability": "view",
      "type": "function"
    },
    {
      "inputs": [
        {
          "internalType": "uint256",
          "name": "amountIn",
          "type": "uint256"
        },
        {
          "internalType": "address",
          "name": "_pool",
          "type": "address"
        },
        {
          "internalType": "address",
          "name": "token0",
          "type": "address"
        },
        {
          "internalType": "address",
          "name": "token1",
          "type": "address"
        },
        {
          "internalType": "int24",
          "name": "acceptTickCounts",
          "type": "int24"
        }
      ],
      "name": "limitPrameters",
      "outputs": [
        {
          "internalType": "uint256",
          "name": "amountOutMinimum",
          "type": "uint256"
        },
        {
          "internalType": "uint256",
          "name": "priceLimit",
          "type": "uint256"
        },
        {
          "internalType": "uint160",
          "name": "sqrtPriceX96Limit",
          "type": "uint160"
        }
      ],
      "stateMutability": "view",
      "type": "function"
    },
    {
      "inputs": [],
      "name": "migratedL2",
      "outputs": [
        {
          "internalType": "bool",
          "name": "",
          "type": "bool"
        }
      ],
      "stateMutability": "view",
      "type": "function"
    },
    {
      "inputs": [
        {
          "internalType": "address",
          "name": "layer2",
          "type": "address"
        },
        {
          "internalType": "address",
          "name": "account",
          "type": "address"
        },
        {
          "internalType": "uint256",
          "name": "amount",
          "type": "uint256"
        }
      ],
      "name": "onDeposit",
      "outputs": [],
      "stateMutability": "nonpayable",
      "type": "function"
    },
    {
      "inputs": [
        {
          "internalType": "address",
          "name": "layer2",
          "type": "address"
        },
        {
          "internalType": "address",
          "name": "account",
          "type": "address"
        },
        {
          "internalType": "uint256",
          "name": "amount",
          "type": "uint256"
        }
      ],
      "name": "onWithdraw",
      "outputs": [],
      "stateMutability": "nonpayable",
      "type": "function"
    },
    {
      "inputs": [],
      "name": "pauseProxy",
      "outputs": [
        {
          "internalType": "bool",
          "name": "",
          "type": "bool"
        }
      ],
      "stateMutability": "view",
      "type": "function"
    },
    {
      "inputs": [
        {
          "internalType": "address",
          "name": "account",
          "type": "address"
        }
      ],
      "name": "powerOf",
      "outputs": [
        {
          "internalType": "uint256",
          "name": "",
          "type": "uint256"
        }
      ],
      "stateMutability": "pure",
      "type": "function"
    },
    {
      "inputs": [
        {
          "internalType": "address",
          "name": "account",
          "type": "address"
        }
      ],
      "name": "removeAdmin",
      "outputs": [],
      "stateMutability": "nonpayable",
      "type": "function"
    },
    {
      "inputs": [
        {
          "internalType": "bytes32",
          "name": "role",
          "type": "bytes32"
        },
        {
          "internalType": "address",
          "name": "account",
          "type": "address"
        }
      ],
      "name": "renounceRole",
      "outputs": [],
      "stateMutability": "nonpayable",
      "type": "function"
    },
    {
      "inputs": [
        {
          "internalType": "bytes32",
          "name": "role",
          "type": "bytes32"
        },
        {
          "internalType": "address",
          "name": "account",
          "type": "address"
        }
      ],
      "name": "revokeRole",
      "outputs": [],
      "stateMutability": "nonpayable",
      "type": "function"
    },
    {
      "inputs": [],
      "name": "roundDuration",
      "outputs": [
        {
          "internalType": "uint256",
          "name": "",
          "type": "uint256"
        }
      ],
      "stateMutability": "pure",
      "type": "function"
    },
    {
      "inputs": [],
      "name": "seigManager",
      "outputs": [
        {
          "internalType": "address",
          "name": "",
          "type": "address"
        }
      ],
      "stateMutability": "view",
      "type": "function"
    },
    {
      "inputs": [
        {
          "internalType": "int24",
          "name": "_interval",
          "type": "int24"
        }
      ],
      "name": "setAcceptTickChangeInterval",
      "outputs": [],
      "stateMutability": "nonpayable",
      "type": "function"
    },
    {
      "inputs": [
        {
          "internalType": "address",
          "name": "_autocoinageSnapshot",
          "type": "address"
        }
      ],
      "name": "setAutocoinageSnapshot",
      "outputs": [],
      "stateMutability": "nonpayable",
      "type": "function"
    },
    {
      "inputs": [
        {
          "internalType": "address",
          "name": "_wton",
          "type": "address"
        },
        {
          "internalType": "address",
          "name": "_tos",
          "type": "address"
        },
        {
          "internalType": "address",
          "name": "_uniswapRouter",
          "type": "address"
        },
        {
          "internalType": "address",
          "name": "_autocoinageSnapshot",
          "type": "address"
        },
        {
          "internalType": "address",
          "name": "_layer2Registry",
          "type": "address"
        },
        {
          "internalType": "address",
          "name": "_seigManager",
          "type": "address"
        }
      ],
      "name": "setInfo",
      "outputs": [],
      "stateMutability": "nonpayable",
      "type": "function"
    },
    {
      "inputs": [
        {
          "internalType": "int24",
          "name": "_interval",
          "type": "int24"
        }
      ],
      "name": "setMinimumTickInterval",
      "outputs": [],
      "stateMutability": "nonpayable",
      "type": "function"
    },
    {
      "inputs": [],
      "name": "start",
      "outputs": [],
      "stateMutability": "nonpayable",
      "type": "function"
    },
    {
      "inputs": [
        {
          "internalType": "bytes4",
          "name": "interfaceId",
          "type": "bytes4"
        }
      ],
      "name": "supportsInterface",
      "outputs": [
        {
          "internalType": "bool",
          "name": "",
          "type": "bool"
        }
      ],
      "stateMutability": "view",
      "type": "function"
    },
    {
      "inputs": [
        {
          "internalType": "uint256",
          "name": "_amountIn",
          "type": "uint256"
        }
      ],
      "name": "swap",
      "outputs": [],
      "stateMutability": "nonpayable",
      "type": "function"
    },
    {
      "inputs": [],
      "name": "tos",
      "outputs": [
        {
          "internalType": "contract ITOS",
          "name": "",
          "type": "address"
        }
      ],
      "stateMutability": "view",
      "type": "function"
    },
    {
      "inputs": [],
      "name": "totalDeposits",
      "outputs": [
        {
          "internalType": "uint256",
          "name": "",
          "type": "uint256"
        }
      ],
      "stateMutability": "pure",
      "type": "function"
    },
    {
      "inputs": [
        {
          "internalType": "address",
          "name": "newAdmin",
          "type": "address"
        }
      ],
      "name": "transferAdmin",
      "outputs": [],
      "stateMutability": "nonpayable",
      "type": "function"
    },
    {
      "inputs": [],
      "name": "uniswapRouter",
      "outputs": [
        {
          "internalType": "contract ISwapRouter",
          "name": "",
          "type": "address"
        }
      ],
      "stateMutability": "view",
      "type": "function"
    },
    {
      "inputs": [
        {
          "internalType": "uint256",
          "name": "round",
          "type": "uint256"
        }
      ],
      "name": "winnerOf",
      "outputs": [
        {
          "internalType": "address",
          "name": "",
          "type": "address"
        }
      ],
      "stateMutability": "pure",
      "type": "function"
    },
    {
      "inputs": [],
      "name": "wton",
      "outputs": [
        {
          "internalType": "address",
          "name": "",
          "type": "address"
        }
      ],
      "stateMutability": "view",
      "type": "function"
    }
  ],
  "bytecode": "0x608060405234801561001057600080fd5b50612eb4806100206000396000f3fe608060405234801561001057600080fd5b50600436106102b65760003560e01c806375829def11610172578063a217fddf116100d9578063d539139311610092578063d53913931461063d578063d547741f14610664578063e1c7392a14610320578063ea86681514610677578063f586c6d91461068a578063f7cb789a1461055c578063f850ffaa1461043b57600080fd5b8063a217fddf146105e9578063a22f84f0146105f1578063aec1375814610604578063b9c56c8c14610617578063be9a655514610320578063cf2a239c1461062a57600080fd5b80638a19c8bc1161012b5780638a19c8bc1461055c5780638cb5d700146105895780638d62d9491461059757806391d14854146105af57806394b918de146105c2578063a1f5f50e146105d557600080fd5b806375829def146104fd57806375b238fc146105105780637c2c89e2146105255780637d8820971461055c578063826bd4bf1461056357806389f395de1461057657600080fd5b80633452f3c511610221578063591666bb116101da578063591666bb1461047c57806363a8fd891461048f5780636fb7f5581461049c57806370480275146104af578063735de9f7146104c2578063740fcd20146104d5578063749aa2d91461032057600080fd5b80633452f3c51461042057806336568abe14610428578063412c6d501461043b57806343c57a271461044e578063442ff62d146104615780634e09a6101461046957600080fd5b80631ac84690116102735780631ac846901461036e578063248a9ca31461039057806324d7806c146103b3578063282c51f3146103c65780632f2ff15d146103ed578063309d72731461040057600080fd5b806301ffc9a7146102bb578063065e5360146102e3578063073c80541461030d5780630f36edbf146103225780631373fa94146103485780631785f53c1461035b575b600080fd5b6102ce6102c93660046126e9565b610692565b60405190151581526020015b60405180910390f35b6102eb6106c9565b604080516001600160a01b03909316835260029190910b6020830152016102da565b61032061031b366004612711565b610778565b005b61033561033036600461272d565b610823565b60405160029190910b81526020016102da565b610320610356366004612497565b610870565b610320610369366004612497565b6108b7565b61038261037c366004612497565b50600090565b6040519081526020016102da565b61038261039e3660046126ad565b60009081526006602052604090206001015490565b6102ce6103c1366004612497565b6108f7565b6103827f9667e80708b6eeeb0053fa0cca44e028ff548e2a9f029edfeac87c118b08b7c881565b6103206103fb3660046126c5565b610911565b600354610413906001600160a01b031681565b6040516102da919061298e565b61032061093c565b6103206104363660046126c5565b6109ca565b610320610449366004612588565b610a48565b61038261045c36600461275a565b610b5f565b610382610b76565b610382610477366004612497565b610c00565b61032061048a366004612507565b610c1a565b6000546102ce9060ff1681565b600554610413906001600160a01b031681565b6103206104bd366004612497565b610cb9565b600254610413906001600160a01b031681565b6104e86104e33660046124cf565b610cf6565b604080519283526020830191909152016102da565b61032061050b366004612497565b610de6565b610382600080516020612e5f83398151915281565b61053861053336600461288c565b610ede565b6040805193845260208401929092526001600160a01b0316908201526060016102da565b6000610382565b610335610571366004612711565b61103d565b600154610413906001600160a01b031681565b61041361037c3660046126ad565b6000546104139061010090046001600160a01b031681565b6102ce6105bd3660046126c5565b611058565b6103206105d03660046126ad565b611083565b6005546102ce90600160a01b900460ff1681565b610382600081565b6103356105ff366004612711565b611664565b61033561061236600461272d565b61167f565b610320610625366004612711565b6116cc565b600454610413906001600160a01b031681565b6103827ff0887ba65ee2024ea881d91b74c2450ef19e1557f03bed3ea9f16b037cbe2dc981565b6103206106723660046126c5565b61175e565b610335610685366004612851565b611784565b6104136117cc565b60006001600160e01b03198216637965db0b60e01b14806106c357506301ffc9a760e01b6001600160e01b03198316145b92915050565b60008060006106d66117cc565b90506001600160a01b0381161561076d57600080826001600160a01b0316633850c7bd6040518163ffffffff1660e01b815260040160e06040518083038186803b15801561072357600080fd5b505afa158015610737573d6000803e3d6000fd5b505050506040513d601f19601f8201168201806040525081019061075b91906127c0565b50949a93995092975050505050505050565b506000928392509050565b610781336108f7565b6107a65760405162461bcd60e51b815260040161079d90612a3f565b60405180910390fd5b60008160020b136107c95760405162461bcd60e51b815260040161079d90612a21565b600754600282810b6301000000909204810b900b14156107fb5760405162461bcd60e51b815260040161079d90612a81565b6007805460029290920b62ffffff1663010000000265ffffff00000019909216919091179055565b60008061082f8361103d565b6007549091506000906108459060020b85612bd5565b61084f9086612c7d565b90508060020b8260020b12156108685791506106c39050565b509392505050565b610879336108f7565b6108955760405162461bcd60e51b815260040161079d90612a3f565b600380546001600160a01b0319166001600160a01b0392909216919091179055565b6108c0336108f7565b6108dc5760405162461bcd60e51b815260040161079d90612a3f565b6108f4600080516020612e5f833981519152826109ca565b50565b60006106c3600080516020612e5f83398151915283611058565b60008281526006602052604090206001015461092d813361187b565b61093783836118df565b505050565b60005460025460405163095ea7b360e01b81526001600160a01b0391821660048201526000196024820152610100909204169063095ea7b390604401602060405180830381600087803b15801561099257600080fd5b505af11580156109a6573d6000803e3d6000fd5b505050506040513d601f19601f820116820180604052508101906108f49190612693565b6001600160a01b0381163314610a3a5760405162461bcd60e51b815260206004820152602f60248201527f416363657373436f6e74726f6c3a2063616e206f6e6c792072656e6f756e636560448201526e103937b632b9903337b91039b2b63360891b606482015260840161079d565b610a448282611965565b5050565b610a51336108f7565b80610a6657506005546001600160a01b031633145b610ad25760405162461bcd60e51b815260206004820152603760248201527f506f776572544f4e537761707065723a2073656e646572206973206e6f74207360448201527632b4b3a6b0b730b3b2b91037b9103737ba1030b236b4b760491b606482015260840161079d565b60035460405163adc7e4f160e01b81526001600160a01b03858116600483015284811660248301529091169063adc7e4f190604401602060405180830381600087803b158015610b2157600080fd5b505af1158015610b35573d6000803e3d6000fd5b505050506040513d601f19601f82011682018060405250810190610b599190612874565b50505050565b6000610b6d858585856119cc565b95945050505050565b600080546040516370a0823160e01b81526101009091046001600160a01b0316906370a0823190610bab90309060040161298e565b60206040518083038186803b158015610bc357600080fd5b505afa158015610bd7573d6000803e3d6000fd5b505050506040513d601f19601f82011682018060405250810190610bfb9190612874565b905090565b60006106c36001600160a01b03831680600160601b611ad5565b610c23336108f7565b610c3f5760405162461bcd60e51b815260040161079d90612a3f565b600080546001600160a01b0397881661010002610100600160a81b0319909116179055600180549587166001600160a01b0319968716179055600280549487169486169490941790935560038054928616928516929092179091556004805491851691841691909117905560058054919093169116179055565b610cc2336108f7565b610cde5760405162461bcd60e51b815260040161079d90612a3f565b6108f4600080516020612e5f83398151915282610911565b600080836001600160a01b031663313ce5676040518163ffffffff1660e01b815260040160206040518083038186803b158015610d3257600080fd5b505afa158015610d46573d6000803e3d6000fd5b505050506040513d601f19601f82011682018060405250810190610d6a9190612874565b836001600160a01b031663313ce5676040518163ffffffff1660e01b815260040160206040518083038186803b158015610da357600080fd5b505afa158015610db7573d6000803e3d6000fd5b505050506040513d601f19601f82011682018060405250810190610ddb9190612874565b915091509250929050565b610def336108f7565b610e0b5760405162461bcd60e51b815260040161079d90612a3f565b6001600160a01b038116610e5c5760405162461bcd60e51b815260206004820152601860248201527741636365737369626c653a207a65726f206164647265737360401b604482015260640161079d565b336001600160a01b0382161415610eae5760405162461bcd60e51b815260206004820152601660248201527520b1b1b2b9b9b4b136329d1039b0b6b29030b236b4b760511b604482015260640161079d565b610ec6600080516020612e5f83398151915282610911565b6108f4600080516020612e5f833981519152336109ca565b600080600080879050600080826001600160a01b0316633850c7bd6040518163ffffffff1660e01b815260040160e06040518083038186803b158015610f2357600080fd5b505afa158015610f37573d6000803e3d6000fd5b505050506040513d601f19601f82011682018060405250810190610f5b91906127c0565b5050505050915091506000819050886001600160a01b03168a6001600160a01b03161015610fb657610f8e88603c612bd5565b610f989083612c7d565b9050620d89e719600282900b1215610fb15750620d89e7195b610ff7565b610fc188603c612bd5565b610fcb9083612af4565b9050610fda620d89e719612dbd565b60020b8160020b1315610ff757610ff4620d89e719612dbd565b90505b888a611005838f8385610b5f565b61101d846b033b2e3c9fd0803ce80000008486610b5f565b61102685611b9f565b985098509850505050505050955095509592505050565b60008161104e81620d89e719612b52565b6106c39190612bd5565b60009182526006602090815260408084206001600160a01b0393909316845291905290205460ff1690565b61108b610b76565b8111156110d15760405162461bcd60e51b81526020600482015260146024820152731ddd1bdb881a5cc81a5b9cdd59999a58da595b9d60621b604482015260640161079d565b600754600290810b900b6110ef576007805462ffffff191660081790555b60075463010000009004600290810b900b61111a576007805465ffffff000000191663120000001790555b60006111246117cc565b90506001600160a01b0381166111705760405162461bcd60e51b81526020600482015260116024820152701c1bdbdb08191a591b89dd08195e1a5cdd607a1b604482015260640161079d565b6000819050600080826001600160a01b0316633850c7bd6040518163ffffffff1660e01b815260040160e06040518083038186803b1580156111b157600080fd5b505afa1580156111c5573d6000803e3d6000fd5b505050506040513d601f19601f820116820180604052508101906111e991906127c0565b5050505050915091506000826001600160a01b0316116112455760405162461bcd60e51b81526020600482015260176024820152761c1bdbdb081a5cc81b9bdd081a5b9a5d1a585b1a5e9959604a1b604482015260640161079d565b6000611252856078611fb2565b90508160020b61126382603c610823565b60020b13158015611283575061127a81603c61167f565b60020b8260020b125b6112db5760405162461bcd60e51b8152602060048201526024808201527f49742773206e6f7420616c6c6f776564206368616e676564207469636b2072616044820152633733b29760e11b606482015260840161079d565b6000805460015460075483928392611314928c928c926001600160a01b036101009092048216929116906301000000900460020b610ede565b604080516101008082018352600080546001600160a01b03929004821683526001549091166020830152610bb89282019290925230606082015293965091945092509060808101611366426014612b3a565b815260208082018d905260408083018890526001600160a01b03868116606094850152600254825163414bf38960e01b815286518316600482015293860151821660248501529185015162ffffff16604484015292840151831660648301526080840151608483015260a084015160a483015260c084015160c483015260e0840151831660e48301529293506000929091169063414bf3899061010401602060405180830381600087803b15801561141d57600080fd5b505af1158015611431573d6000803e3d6000fd5b505050506040513d601f19601f820116820180604052508101906114559190612874565b604080518d8152602081018390529192507f5a6443be634d8594e0dff76c972a6a74f88bf761fb6e334d88dd979516f3bc8f910160405180910390a16114bf6040518060400160405280600c81526020016b5f616d6f756e74496e20257360a01b8152508c6121b5565b6114ed6040518060400160405280600c81526020016b616d6f756e744f757420257360a01b815250826121b5565b6001546040516370a0823160e01b81526000916001600160a01b0316906370a082319061151e90309060040161298e565b60206040518083038186803b15801561153657600080fd5b505afa15801561154a573d6000803e3d6000fd5b505050506040513d601f19601f8201168201806040525081019061156e9190612874565b600154604051632770a7eb60e21b8152306004820152602481018390529192506001600160a01b031690639dc29fac90604401602060405180830381600087803b1580156115bb57600080fd5b505af11580156115cf573d6000803e3d6000fd5b505050506040513d601f19601f820116820180604052508101906115f39190612693565b506116236040518060400160405280600d81526020016c6275726e416d6f756e7420257360981b815250826121b5565b6040518181527fd83c63197e8e676d80ab0122beba9a9d20f3828839e9a1d6fe81d242e9cd7e6e9060200160405180910390a1505050505050505050505050565b60008180611675620d89e719612dbd565b61104e9190612b52565b60008061168b83611664565b6007549091506000906116a19060020b85612bd5565b6116ab9086612af4565b90508060020b8260020b12156116c3575090506106c3565b91506106c39050565b6116d5336108f7565b6116f15760405162461bcd60e51b815260040161079d90612a3f565b60008160020b136117145760405162461bcd60e51b815260040161079d90612a21565b600754600282810b91810b900b141561173f5760405162461bcd60e51b815260040161079d90612a81565b6007805460029290920b62ffffff1662ffffff19909216919091179055565b60008281526006602052604090206001015461177a813361187b565b6109378383611965565b60008162ffffff166101f4141561179d5750600a919050565b8162ffffff16610bb814156117b45750603c919050565b8162ffffff1661271014156117c7575060c85b919050565b60008054600154604051630b4c774160e11b81526001600160a01b036101009093048316600482015291166024820152610bb86044820152731f98431c8ad98523631ae4a59f267346ea31f984908190631698ee829060640160206040518083038186803b15801561183d57600080fd5b505afa158015611851573d6000803e3d6000fd5b505050506040513d601f19601f8201168201806040525081019061187591906124b3565b91505090565b6118858282611058565b610a445761189d816001600160a01b031660146121fa565b6118a88360206121fa565b6040516020016118b992919061291f565b60408051601f198184030181529082905262461bcd60e51b825261079d916004016129ec565b6118e98282611058565b610a445760008281526006602090815260408083206001600160a01b03851684529091529020805460ff191660011790556119213390565b6001600160a01b0316816001600160a01b0316837f2f8788117e7eff1d82e926ec794901d17c78024a50270940304540a733656f0d60405160405180910390a45050565b61196f8282611058565b15610a445760008281526006602090815260408083206001600160a01b0385168085529252808320805460ff1916905551339285917ff6391f5c32d9c69d2a47ea670b442974b53935d1edc7fd64eb21e047a839171b9190a45050565b6000806119d886611b9f565b90506001600160801b036001600160a01b03821611611a5e576000611a066001600160a01b03831680612c5e565b9050836001600160a01b0316856001600160a01b031610611a3e57611a39600160c01b876001600160801b031683611ad5565b611a56565b611a5681876001600160801b0316600160c01b611ad5565b925050611acc565b6000611a786001600160a01b03831680600160401b611ad5565b9050836001600160a01b0316856001600160a01b031610611ab057611aab600160801b876001600160801b031683611ad5565b611ac8565b611ac881876001600160801b0316600160801b611ad5565b9250505b50949350505050565b6000808211611ae357600080fd5b6000806000198587098587029250828110838203039150508060001415611b0f57508290049050611b98565b808411611b1b57600080fd5b600084868809808403938111909203919050600085611b3c81600019612d09565b611b47906001612b3a565b16958690049560026003880281188089028203028089028203028089028203028089028203028089028203028089029091030260008290038290046001019490940294049390931791909102925050505b9392505050565b60008060008360020b12611bb6578260020b611bc3565b8260020b611bc390612dde565b9050611bd2620d89e719612dbd565b60020b811115611c085760405162461bcd60e51b81526020600482015260016024820152601560fa1b604482015260640161079d565b600060018216611c1c57600160801b611c2e565b6ffffcb933bd6fad37aa2d162d1a5940015b6001600160881b031690506002821615611c63576080611c5e826ffff97272373d413259a46990580e213a612c5e565b901c90505b6004821615611c8d576080611c88826ffff2e50f5f656932ef12357cf3c7fdcc612c5e565b901c90505b6008821615611cb7576080611cb2826fffe5caca7e10e4e61c3624eaa0941cd0612c5e565b901c90505b6010821615611ce1576080611cdc826fffcb9843d60f6159c9db58835c926644612c5e565b901c90505b6020821615611d0b576080611d06826fff973b41fa98c081472e6896dfb254c0612c5e565b901c90505b6040821615611d35576080611d30826fff2ea16466c96a3843ec78b326b52861612c5e565b901c90505b6080821615611d5f576080611d5a826ffe5dee046a99a2a811c461f1969c3053612c5e565b901c90505b610100821615611d8a576080611d85826ffcbe86c7900a88aedcffc83b479aa3a4612c5e565b901c90505b610200821615611db5576080611db0826ff987a7253ac413176f2b074cf7815e54612c5e565b901c90505b610400821615611de0576080611ddb826ff3392b0822b70005940c7a398e4b70f3612c5e565b901c90505b610800821615611e0b576080611e06826fe7159475a2c29b7443b29c7fa6e889d9612c5e565b901c90505b611000821615611e36576080611e31826fd097f3bdfd2022b8845ad8f792aa5825612c5e565b901c90505b612000821615611e61576080611e5c826fa9f746462d870fdf8a65dc1f90e061e5612c5e565b901c90505b614000821615611e8c576080611e87826f70d869a156d2a1b890bb3df62baf32f7612c5e565b901c90505b618000821615611eb7576080611eb2826f31be135f97d08fd981231505542fcfa6612c5e565b901c90505b62010000821615611ee3576080611ede826f09aa508b5b7a84e1c677de54f3e99bc9612c5e565b901c90505b62020000821615611f0e576080611f09826e5d6af8dedb81196699c329225ee604612c5e565b901c90505b62040000821615611f38576080611f33826d2216e584f5fa1ea926041bedfe98612c5e565b901c90505b62080000821615611f60576080611f5b826b048a170391f7dc42444e8fa2612c5e565b901c90505b60008460020b1315611f7b57611f7881600019612bc1565b90505b611f8a64010000000082612da9565b15611f96576001611f99565b60005b611faa9060ff16602083901c612b3a565b949350505050565b600063ffffffff8216611fec5760405162461bcd60e51b8152602060048201526002602482015261042560f41b604482015260640161079d565b604080516002808252606082018352600092602083019080368337019050509050828160008151811061202f57634e487b7160e01b600052603260045260246000fd5b602002602001019063ffffffff16908163ffffffff168152505060008160018151811061206c57634e487b7160e01b600052603260045260246000fd5b63ffffffff9092166020928302919091019091015260405163883bdbfd60e01b81526000906001600160a01b0386169063883bdbfd906120b09085906004016129a2565b60006040518083038186803b1580156120c857600080fd5b505afa1580156120dc573d6000803e3d6000fd5b505050506040513d6000823e601f3d908101601f1916820160405261210491908101906125c8565b50905060008160008151811061212a57634e487b7160e01b600052603260045260246000fd5b60200260200101518260018151811061215357634e487b7160e01b600052603260045260246000fd5b60200260200101516121659190612cc4565b9050612175600386900b82612b8c565b935060008160060b1280156121995750612193600386900b82612d87565b60060b15155b156121ac57836121a881612d4c565b9450505b50505092915050565b610a4482826040516024016121cb9291906129ff565b60408051601f198184030181529190526020810180516001600160e01b03166309710a9d60e41b1790526123dc565b60606000612209836002612c5e565b612214906002612b3a565b67ffffffffffffffff81111561223a57634e487b7160e01b600052604160045260246000fd5b6040519080825280601f01601f191660200182016040528015612264576020820181803683370190505b509050600360fc1b8160008151811061228d57634e487b7160e01b600052603260045260246000fd5b60200101906001600160f81b031916908160001a905350600f60fb1b816001815181106122ca57634e487b7160e01b600052603260045260246000fd5b60200101906001600160f81b031916908160001a90535060006122ee846002612c5e565b6122f9906001612b3a565b90505b600181111561238d576f181899199a1a9b1b9c1cb0b131b232b360811b85600f166010811061233b57634e487b7160e01b600052603260045260246000fd5b1a60f81b82828151811061235f57634e487b7160e01b600052603260045260246000fd5b60200101906001600160f81b031916908160001a90535060049490941c9361238681612d70565b90506122fc565b508315611b985760405162461bcd60e51b815260206004820181905260248201527f537472696e67733a20686578206c656e67746820696e73756666696369656e74604482015260640161079d565b80516a636f6e736f6c652e6c6f67602083016000808483855afa5050505050565b600082601f83011261240d578081fd5b8151602061242261241d83612ad0565b612a9f565b80838252828201915082860187848660051b8901011115612441578586fd5b855b8581101561246857815161245681612e3a565b84529284019290840190600101612443565b5090979650505050505050565b805180151581146117c757600080fd5b805161ffff811681146117c757600080fd5b6000602082840312156124a8578081fd5b8135611b9881612e3a565b6000602082840312156124c4578081fd5b8151611b9881612e3a565b600080604083850312156124e1578081fd5b82356124ec81612e3a565b915060208301356124fc81612e3a565b809150509250929050565b60008060008060008060c0878903121561251f578182fd5b863561252a81612e3a565b9550602087013561253a81612e3a565b9450604087013561254a81612e3a565b9350606087013561255a81612e3a565b9250608087013561256a81612e3a565b915060a087013561257a81612e3a565b809150509295509295509295565b60008060006060848603121561259c578283fd5b83356125a781612e3a565b925060208401356125b781612e3a565b929592945050506040919091013590565b600080604083850312156125da578182fd5b825167ffffffffffffffff808211156125f1578384fd5b818501915085601f830112612604578384fd5b8151602061261461241d83612ad0565b8083825282820191508286018a848660051b8901011115612633578889fd5b8896505b848710156126635780518060060b811461264f57898afd5b835260019690960195918301918301612637565b509188015191965090935050508082111561267c578283fd5b50612689858286016123fd565b9150509250929050565b6000602082840312156126a4578081fd5b611b9882612475565b6000602082840312156126be578081fd5b5035919050565b600080604083850312156126d7578182fd5b8235915060208301356124fc81612e3a565b6000602082840312156126fa578081fd5b81356001600160e01b031981168114611b98578182fd5b600060208284031215612722578081fd5b8135611b9881612e4f565b6000806040838503121561273f578182fd5b823561274a81612e4f565b915060208301356124fc81612e4f565b6000806000806080858703121561276f578182fd5b843561277a81612e4f565b935060208501356001600160801b0381168114612795578283fd5b925060408501356127a581612e3a565b915060608501356127b581612e3a565b939692955090935050565b600080600080600080600060e0888a0312156127da578485fd5b87516127e581612e3a565b60208901519097506127f681612e4f565b955061280460408901612485565b945061281260608901612485565b935061282060808901612485565b925060a088015160ff81168114612835578182fd5b915061284360c08901612475565b905092959891949750929550565b600060208284031215612862578081fd5b813562ffffff81168114611b98578182fd5b600060208284031215612885578081fd5b5051919050565b600080600080600060a086880312156128a3578283fd5b8535945060208601356128b581612e3a565b935060408601356128c581612e3a565b925060608601356128d581612e3a565b915060808601356128e581612e4f565b809150509295509295909350565b6000815180845261290b816020860160208601612d20565b601f01601f19169290920160200192915050565b76020b1b1b2b9b9a1b7b73a3937b61d1030b1b1b7bab73a1604d1b815260008351612951816017850160208801612d20565b7001034b99036b4b9b9b4b733903937b6329607d1b6017918401918201528351612982816028840160208801612d20565b01602801949350505050565b6001600160a01b0391909116815260200190565b6020808252825182820181905260009190848201906040850190845b818110156129e057835163ffffffff16835292840192918401916001016129be565b50909695505050505050565b602081526000611b9860208301846128f3565b604081526000612a1260408301856128f3565b90508260208301529392505050565b6020808252600490820152637a65726f60e01b604082015260600190565b60208082526022908201527f41636365737369626c653a2043616c6c6572206973206e6f7420616e2061646d60408201526134b760f11b606082015260800190565b60208082526004908201526373616d6560e01b604082015260600190565b604051601f8201601f1916810167ffffffffffffffff81118282101715612ac857612ac8612e24565b604052919050565b600067ffffffffffffffff821115612aea57612aea612e24565b5060051b60200190565b60008160020b8360020b82821282627fffff03821381151615612b1957612b19612df8565b82627fffff19038212811615612b3157612b31612df8565b50019392505050565b60008219821115612b4d57612b4d612df8565b500190565b60008160020b8360020b80612b6957612b69612e0e565b627fffff19821460001982141615612b8357612b83612df8565b90059392505050565b60008160060b8360060b80612ba357612ba3612e0e565b667fffffffffffff19821460001982141615612b8357612b83612df8565b600082612bd057612bd0612e0e565b500490565b60008160020b8360020b627fffff83821384841383830485118282161615612bff57612bff612df8565b627fffff1986851282811687830587121615612c1d57612c1d612df8565b878712925085820587128484161615612c3857612c38612df8565b85850587128184161615612c4e57612c4e612df8565b5050509290910295945050505050565b6000816000190483118215151615612c7857612c78612df8565b500290565b60008160020b8360020b82811281627fffff1901831281151615612ca357612ca3612df8565b81627fffff018313811615612cba57612cba612df8565b5090039392505050565b60008160060b8360060b82811281667fffffffffffff1901831281151615612cee57612cee612df8565b81667fffffffffffff018313811615612cba57612cba612df8565b600082821015612d1b57612d1b612df8565b500390565b60005b83811015612d3b578181015183820152602001612d23565b83811115610b595750506000910152565b60008160020b627fffff19811415612d6657612d66612df8565b6000190192915050565b600081612d7f57612d7f612df8565b506000190190565b60008260060b80612d9a57612d9a612e0e565b808360060b0791505092915050565b600082612db857612db8612e0e565b500690565b60008160020b627fffff19811415612dd757612dd7612df8565b9003919050565b6000600160ff1b821415612df457612df4612df8565b0390565b634e487b7160e01b600052601160045260246000fd5b634e487b7160e01b600052601260045260246000fd5b634e487b7160e01b600052604160045260246000fd5b6001600160a01b03811681146108f457600080fd5b8060020b81146108f457600080fdfedf8b4c520ffe197c5343c6f5aec59570151ef9a492f2c624fd45ddde6135ec42a2646970667358221220df1d63c85966ce7e5cdcdafdf7f486f26fbfd66f5cf5b054cda766cb22b06bb964736f6c63430008040033",
  "linkReferences": {},
  "deployedLinkReferences": {}
}