{
  "_format": "hh-sol-artifact-1",
  "contractName": "PowerTONHammerDAO",
  "sourceName": "contracts/powerton/PowerTONHammerDAO.sol",
  "abi": [
    {
      "inputs": [],
      "stateMutability": "nonpayable",
      "type": "constructor"
    },
    {
      "anonymous": false,
      "inputs": [
        {
          "indexed": false,
          "internalType": "address",
          "name": "token",
          "type": "address"
        },
        {
          "indexed": false,
          "internalType": "uint256",
          "name": "amount",
          "type": "uint256"
        }
      ],
      "name": "Distributed",
      "type": "event"
    },
    {
      "anonymous": false,
      "inputs": [
        {
          "indexed": true,
          "internalType": "address",
          "name": "account",
          "type": "address"
        },
        {
          "indexed": false,
          "internalType": "uint256",
          "name": "amountToMint",
          "type": "uint256"
        },
        {
          "indexed": false,
          "internalType": "uint256",
          "name": "amountToBurn",
          "type": "uint256"
        }
      ],
      "name": "OnChangeAmountInRecoder",
      "type": "event"
    },
    {
      "anonymous": false,
      "inputs": [
        {
          "indexed": false,
          "internalType": "address",
          "name": "layer2",
          "type": "address"
        },
        {
          "indexed": true,
          "internalType": "address",
          "name": "account",
          "type": "address"
        },
        {
          "indexed": false,
          "internalType": "uint256",
          "name": "amount",
          "type": "uint256"
        }
      ],
      "name": "OnDeposit",
      "type": "event"
    },
    {
      "anonymous": false,
      "inputs": [
        {
          "indexed": false,
          "internalType": "address",
          "name": "layer2",
          "type": "address"
        },
        {
          "indexed": true,
          "internalType": "address",
          "name": "account",
          "type": "address"
        },
        {
          "indexed": false,
          "internalType": "uint256",
          "name": "amount",
          "type": "uint256"
        }
      ],
      "name": "OnWithdraw",
      "type": "event"
    },
    {
      "anonymous": false,
      "inputs": [
        {
          "indexed": true,
          "internalType": "bytes32",
          "name": "role",
          "type": "bytes32"
        },
        {
          "indexed": true,
          "internalType": "bytes32",
          "name": "previousAdminRole",
          "type": "bytes32"
        },
        {
          "indexed": true,
          "internalType": "bytes32",
          "name": "newAdminRole",
          "type": "bytes32"
        }
      ],
      "name": "RoleAdminChanged",
      "type": "event"
    },
    {
      "anonymous": false,
      "inputs": [
        {
          "indexed": true,
          "internalType": "bytes32",
          "name": "role",
          "type": "bytes32"
        },
        {
          "indexed": true,
          "internalType": "address",
          "name": "account",
          "type": "address"
        },
        {
          "indexed": true,
          "internalType": "address",
          "name": "sender",
          "type": "address"
        }
      ],
      "name": "RoleGranted",
      "type": "event"
    },
    {
      "anonymous": false,
      "inputs": [
        {
          "indexed": true,
          "internalType": "bytes32",
          "name": "role",
          "type": "bytes32"
        },
        {
          "indexed": true,
          "internalType": "address",
          "name": "account",
          "type": "address"
        },
        {
          "indexed": true,
          "internalType": "address",
          "name": "sender",
          "type": "address"
        }
      ],
      "name": "RoleRevoked",
      "type": "event"
    },
    {
      "anonymous": false,
      "inputs": [
        {
          "indexed": false,
          "internalType": "uint256",
          "name": "amount",
          "type": "uint256"
        }
      ],
      "name": "Swapped",
      "type": "event"
    },
    {
      "inputs": [],
      "name": "ADMIN_ROLE",
      "outputs": [
        {
          "internalType": "bytes32",
          "name": "",
          "type": "bytes32"
        }
      ],
      "stateMutability": "view",
      "type": "function"
    },
    {
      "inputs": [],
      "name": "BURNER_ROLE",
      "outputs": [
        {
          "internalType": "bytes32",
          "name": "",
          "type": "bytes32"
        }
      ],
      "stateMutability": "view",
      "type": "function"
    },
    {
      "inputs": [],
      "name": "DEFAULT_ADMIN_ROLE",
      "outputs": [
        {
          "internalType": "bytes32",
          "name": "",
          "type": "bytes32"
        }
      ],
      "stateMutability": "view",
      "type": "function"
    },
    {
      "inputs": [],
      "name": "MINTER_ROLE",
      "outputs": [
        {
          "internalType": "bytes32",
          "name": "",
          "type": "bytes32"
        }
      ],
      "stateMutability": "view",
      "type": "function"
    },
    {
      "inputs": [
        {
          "internalType": "address",
          "name": "account",
          "type": "address"
        }
      ],
      "name": "addAdmin",
      "outputs": [],
      "stateMutability": "nonpayable",
      "type": "function"
    },
    {
      "inputs": [],
      "name": "approveToUniswap",
      "outputs": [],
      "stateMutability": "nonpayable",
      "type": "function"
    },
    {
      "inputs": [],
      "name": "autocoinageSnapshot",
      "outputs": [
        {
          "internalType": "address",
          "name": "",
          "type": "address"
        }
      ],
      "stateMutability": "view",
      "type": "function"
    },
    {
      "inputs": [],
      "name": "currentRound",
      "outputs": [
        {
          "internalType": "uint256",
          "name": "",
          "type": "uint256"
        }
      ],
      "stateMutability": "pure",
      "type": "function"
    },
    {
      "inputs": [],
      "name": "distribute",
      "outputs": [],
      "stateMutability": "nonpayable",
      "type": "function"
    },
    {
      "inputs": [],
      "name": "dividiedPool",
      "outputs": [
        {
          "internalType": "contract ILockTOSDividend",
          "name": "",
          "type": "address"
        }
      ],
      "stateMutability": "view",
      "type": "function"
    },
    {
      "inputs": [],
      "name": "endRound",
      "outputs": [],
      "stateMutability": "nonpayable",
      "type": "function"
    },
    {
      "inputs": [
        {
          "internalType": "bytes32",
          "name": "role",
          "type": "bytes32"
        }
      ],
      "name": "getRoleAdmin",
      "outputs": [
        {
          "internalType": "bytes32",
          "name": "",
          "type": "bytes32"
        }
      ],
      "stateMutability": "view",
      "type": "function"
    },
    {
      "inputs": [],
      "name": "getWTONBalance",
      "outputs": [
        {
          "internalType": "uint256",
          "name": "",
          "type": "uint256"
        }
      ],
      "stateMutability": "view",
      "type": "function"
    },
    {
      "inputs": [
        {
          "internalType": "bytes32",
          "name": "role",
          "type": "bytes32"
        },
        {
          "internalType": "address",
          "name": "account",
          "type": "address"
        }
      ],
      "name": "grantRole",
      "outputs": [],
      "stateMutability": "nonpayable",
      "type": "function"
    },
    {
      "inputs": [
        {
          "internalType": "bytes32",
          "name": "role",
          "type": "bytes32"
        },
        {
          "internalType": "address",
          "name": "account",
          "type": "address"
        }
      ],
      "name": "hasRole",
      "outputs": [
        {
          "internalType": "bool",
          "name": "",
          "type": "bool"
        }
      ],
      "stateMutability": "view",
      "type": "function"
    },
    {
      "inputs": [],
      "name": "init",
      "outputs": [],
      "stateMutability": "nonpayable",
      "type": "function"
    },
    {
      "inputs": [
        {
          "internalType": "address",
          "name": "account",
          "type": "address"
        }
      ],
      "name": "isAdmin",
      "outputs": [
        {
          "internalType": "bool",
          "name": "",
          "type": "bool"
        }
      ],
      "stateMutability": "view",
      "type": "function"
    },
    {
      "inputs": [],
      "name": "layer2Registry",
      "outputs": [
        {
          "internalType": "address",
          "name": "",
          "type": "address"
        }
      ],
      "stateMutability": "view",
      "type": "function"
    },
    {
      "inputs": [],
      "name": "migratedL2",
      "outputs": [
        {
          "internalType": "bool",
          "name": "",
          "type": "bool"
        }
      ],
      "stateMutability": "view",
      "type": "function"
    },
    {
      "inputs": [
        {
          "internalType": "address",
          "name": "layer2",
          "type": "address"
        },
        {
          "internalType": "address",
          "name": "account",
          "type": "address"
        },
        {
          "internalType": "uint256",
          "name": "amount",
          "type": "uint256"
        }
      ],
      "name": "onDeposit",
      "outputs": [],
      "stateMutability": "nonpayable",
      "type": "function"
    },
    {
      "inputs": [
        {
          "internalType": "address",
          "name": "layer2",
          "type": "address"
        },
        {
          "internalType": "address",
          "name": "account",
          "type": "address"
        },
        {
          "internalType": "uint256",
          "name": "amount",
          "type": "uint256"
        }
      ],
      "name": "onWithdraw",
      "outputs": [],
      "stateMutability": "nonpayable",
      "type": "function"
    },
    {
      "inputs": [],
      "name": "pauseProxy",
      "outputs": [
        {
          "internalType": "bool",
          "name": "",
          "type": "bool"
        }
      ],
      "stateMutability": "view",
      "type": "function"
    },
    {
      "inputs": [
        {
          "internalType": "address",
          "name": "account",
          "type": "address"
        }
      ],
      "name": "powerOf",
      "outputs": [
        {
          "internalType": "uint256",
          "name": "",
          "type": "uint256"
        }
      ],
      "stateMutability": "pure",
      "type": "function"
    },
    {
      "inputs": [
        {
          "internalType": "address",
          "name": "account",
          "type": "address"
        }
      ],
      "name": "removeAdmin",
      "outputs": [],
      "stateMutability": "nonpayable",
      "type": "function"
    },
    {
      "inputs": [
        {
          "internalType": "bytes32",
          "name": "role",
          "type": "bytes32"
        },
        {
          "internalType": "address",
          "name": "account",
          "type": "address"
        }
      ],
      "name": "renounceRole",
      "outputs": [],
      "stateMutability": "nonpayable",
      "type": "function"
    },
    {
      "inputs": [
        {
          "internalType": "bytes32",
          "name": "role",
          "type": "bytes32"
        },
        {
          "internalType": "address",
          "name": "account",
          "type": "address"
        }
      ],
      "name": "revokeRole",
      "outputs": [],
      "stateMutability": "nonpayable",
      "type": "function"
    },
    {
      "inputs": [],
      "name": "roundDuration",
      "outputs": [
        {
          "internalType": "uint256",
          "name": "",
          "type": "uint256"
        }
      ],
      "stateMutability": "pure",
      "type": "function"
    },
    {
      "inputs": [],
      "name": "seigManager",
      "outputs": [
        {
          "internalType": "address",
          "name": "",
          "type": "address"
        }
      ],
      "stateMutability": "view",
      "type": "function"
    },
    {
      "inputs": [
        {
          "internalType": "address",
          "name": "_autocoinageSnapshot",
          "type": "address"
        }
      ],
      "name": "setAutocoinageSnapshot",
      "outputs": [],
      "stateMutability": "nonpayable",
      "type": "function"
    },
    {
      "inputs": [
        {
          "internalType": "address",
          "name": "_wton",
          "type": "address"
        },
        {
          "internalType": "address",
          "name": "_autocoinageSnapshot",
          "type": "address"
        },
        {
          "internalType": "address",
          "name": "_seigManager",
          "type": "address"
        },
        {
          "internalType": "address",
          "name": "_dividiedPool",
          "type": "address"
        }
      ],
      "name": "setInfo",
      "outputs": [],
      "stateMutability": "nonpayable",
      "type": "function"
    },
    {
      "inputs": [],
      "name": "start",
      "outputs": [],
      "stateMutability": "nonpayable",
      "type": "function"
    },
    {
      "inputs": [
        {
          "internalType": "bytes4",
          "name": "interfaceId",
          "type": "bytes4"
        }
      ],
      "name": "supportsInterface",
      "outputs": [
        {
          "internalType": "bool",
          "name": "",
          "type": "bool"
        }
      ],
      "stateMutability": "view",
      "type": "function"
    },
    {
      "inputs": [],
      "name": "tos",
      "outputs": [
        {
          "internalType": "contract ITOS",
          "name": "",
          "type": "address"
        }
      ],
      "stateMutability": "view",
      "type": "function"
    },
    {
      "inputs": [],
      "name": "totalDeposits",
      "outputs": [
        {
          "internalType": "uint256",
          "name": "",
          "type": "uint256"
        }
      ],
      "stateMutability": "pure",
      "type": "function"
    },
    {
      "inputs": [
        {
          "internalType": "address",
          "name": "newAdmin",
          "type": "address"
        }
      ],
      "name": "transferAdmin",
      "outputs": [],
      "stateMutability": "nonpayable",
      "type": "function"
    },
    {
      "inputs": [],
      "name": "uniswapRouter",
      "outputs": [
        {
          "internalType": "contract ISwapRouter",
          "name": "",
          "type": "address"
        }
      ],
      "stateMutability": "view",
      "type": "function"
    },
    {
      "inputs": [
        {
          "internalType": "uint256",
          "name": "round",
          "type": "uint256"
        }
      ],
      "name": "winnerOf",
      "outputs": [
        {
          "internalType": "address",
          "name": "",
          "type": "address"
        }
      ],
      "stateMutability": "pure",
      "type": "function"
    },
    {
      "inputs": [],
      "name": "wton",
      "outputs": [
        {
          "internalType": "address",
          "name": "",
          "type": "address"
        }
      ],
      "stateMutability": "view",
      "type": "function"
    }
  ],
  "bytecode": "0x608060405234801561001057600080fd5b50611295806100206000396000f3fe608060405234801561001057600080fd5b50600436106102125760003560e01c806375b238fc11610120578063a217fddf116100b8578063e1c7392a1161007c578063e1c7392a14610252578063e4fc6b6d1461048f578063f129d55714610497578063f7cb789a146103d3578063f850ffaa1461033757600080fd5b8063a217fddf1461043a578063be9a655514610252578063cf2a239c14610442578063d539139314610455578063d547741f1461047c57600080fd5b806375b238fc146103ab578063784330c0146103c05780637d882097146103d357806389f395de146103da5780638a19c8bc146103d35780638cb5d700146103ed5780638d62d949146103fb57806391d1485414610413578063a1f5f50e1461042657600080fd5b80633452f3c5116101ae5780636fb7f558116101725780636fb7f5581461035f5780637048027514610372578063735de9f714610385578063749aa2d91461025257806375829def1461039857600080fd5b80633452f3c51461025257806336568abe14610324578063412c6d5014610337578063442ff62d1461034a57806363a8fd891461035257600080fd5b806301ffc9a7146102175780631373fa941461023f5780631785f53c146102545780631ac8469014610267578063248a9ca31461028957806324d7806c146102ac578063282c51f3146102bf5780632f2ff15d146102e6578063309d7273146102f9575b600080fd5b61022a610225366004611072565b6104aa565b60405190151581526020015b60405180910390f35b61025261024d366004610f67565b6104e1565b005b610252610262366004610f67565b610531565b61027b610275366004610f67565b50600090565b604051908152602001610236565b61027b61029736600461102f565b60009081526006602052604090206001015490565b61022a6102ba366004610f67565b610571565b61027b7f9667e80708b6eeeb0053fa0cca44e028ff548e2a9f029edfeac87c118b08b7c881565b6102526102f4366004611047565b61058b565b60035461030c906001600160a01b031681565b6040516001600160a01b039091168152602001610236565b610252610332366004611047565b6105b6565b610252610345366004610fd4565b610634565b61027b61074d565b60005461022a9060ff1681565b60055461030c906001600160a01b031681565b610252610380366004610f67565b6107d2565b60025461030c906001600160a01b031681565b6102526103a6366004610f67565b61080f565b61027b60008051602061124083398151915281565b60075461030c906001600160a01b031681565b600061027b565b60015461030c906001600160a01b031681565b61030c61027536600461102f565b60005461030c9061010090046001600160a01b031681565b61022a610421366004611047565b610907565b60055461022a90600160a01b900460ff1681565b61027b600081565b60045461030c906001600160a01b031681565b61027b7ff0887ba65ee2024ea881d91b74c2450ef19e1557f03bed3ea9f16b037cbe2dc981565b61025261048a366004611047565b610932565b610252610958565b6102526104a5366004610f81565b610b04565b60006001600160e01b03198216637965db0b60e01b14806104db57506301ffc9a760e01b6001600160e01b03198316145b92915050565b6104ea33610571565b61050f5760405162461bcd60e51b81526004016105069061116d565b60405180910390fd5b600380546001600160a01b0319166001600160a01b0392909216919091179055565b61053a33610571565b6105565760405162461bcd60e51b81526004016105069061116d565b61056e600080516020611240833981519152826105b6565b50565b60006104db60008051602061124083398151915283610907565b6000828152600660205260409020600101546105a78133610b82565b6105b18383610be6565b505050565b6001600160a01b03811633146106265760405162461bcd60e51b815260206004820152602f60248201527f416363657373436f6e74726f6c3a2063616e206f6e6c792072656e6f756e636560448201526e103937b632b9903337b91039b2b63360891b6064820152608401610506565b6106308282610c6c565b5050565b61063d33610571565b8061065257506005546001600160a01b031633145b6106c05760405162461bcd60e51b815260206004820152603960248201527f506f776572544f4e48616d6d657244414f3a2073656e646572206973206e6f746044820152781039b2b4b3a6b0b730b3b2b91037b9103737ba1030b236b4b760391b6064820152608401610506565b60035460405163adc7e4f160e01b81526001600160a01b03858116600483015284811660248301529091169063adc7e4f190604401602060405180830381600087803b15801561070f57600080fd5b505af1158015610723573d6000803e3d6000fd5b505050506040513d601f19601f82011682018060405250810190610747919061109a565b50505050565b600080546040516370a0823160e01b81523060048201526101009091046001600160a01b0316906370a082319060240160206040518083038186803b15801561079557600080fd5b505afa1580156107a9573d6000803e3d6000fd5b505050506040513d601f19601f820116820180604052508101906107cd919061109a565b905090565b6107db33610571565b6107f75760405162461bcd60e51b81526004016105069061116d565b61056e6000805160206112408339815191528261058b565b61081833610571565b6108345760405162461bcd60e51b81526004016105069061116d565b6001600160a01b0381166108855760405162461bcd60e51b815260206004820152601860248201527741636365737369626c653a207a65726f206164647265737360401b6044820152606401610506565b336001600160a01b03821614156108d75760405162461bcd60e51b815260206004820152601660248201527520b1b1b2b9b9b4b136329d1039b0b6b29030b236b4b760511b6044820152606401610506565b6108ef6000805160206112408339815191528261058b565b61056e600080516020611240833981519152336105b6565b60009182526006602090815260408084206001600160a01b0393909316845291905290205460ff1690565b60008281526006602052604090206001015461094e8133610b82565b6105b18383610c6c565b600061096261074d565b9050600081116109ab5760405162461bcd60e51b8152602060048201526014602482015273062616c616e6365206f662057544f4e20697320360641b6044820152606401610506565b600054600754604051636eb1769f60e11b81523060048201526001600160a01b039182166024820152610100909204169063dd62ed3e9060440160206040518083038186803b1580156109fd57600080fd5b505afa158015610a11573d6000803e3d6000fd5b505050506040513d601f19601f82011682018060405250810190610a35919061109a565b811115610a4457610a44610cd3565b600754600054604051631f72642160e31b81526001600160a01b039283169263fb93210892610a8192610100909104909116908590600401611121565b600060405180830381600087803b158015610a9b57600080fd5b505af1158015610aaf573d6000803e3d6000fd5b505050507fb649c98f58055c520df0dcb5709eff2e931217ff2fb1e21376130d31bbb1c0af600060019054906101000a90046001600160a01b031682604051610af9929190611121565b60405180910390a150565b610b0d33610571565b610b295760405162461bcd60e51b81526004016105069061116d565b600080546001600160a01b0395861661010002610100600160a81b0319909116179055600380549385166001600160a01b0319948516179055600580549285169284169290921790915560078054919093169116179055565b610b8c8282610907565b61063057610ba4816001600160a01b03166014610d62565b610baf836020610d62565b604051602001610bc09291906110b2565b60408051601f198184030181529082905262461bcd60e51b82526105069160040161113a565b610bf08282610907565b6106305760008281526006602090815260408083206001600160a01b03851684529091529020805460ff19166001179055610c283390565b6001600160a01b0316816001600160a01b0316837f2f8788117e7eff1d82e926ec794901d17c78024a50270940304540a733656f0d60405160405180910390a45050565b610c768282610907565b156106305760008281526006602090815260408083206001600160a01b0385168085529252808320805460ff1916905551339285917ff6391f5c32d9c69d2a47ea670b442974b53935d1edc7fd64eb21e047a839171b9190a45050565b60005460075460405163095ea7b360e01b81526001600160a01b0361010090930483169263095ea7b392610d109291169060001990600401611121565b602060405180830381600087803b158015610d2a57600080fd5b505af1158015610d3e573d6000803e3d6000fd5b505050506040513d601f19601f8201168201806040525081019061056e919061100f565b60606000610d718360026111c7565b610d7c9060026111af565b67ffffffffffffffff811115610da257634e487b7160e01b600052604160045260246000fd5b6040519080825280601f01601f191660200182016040528015610dcc576020820181803683370190505b509050600360fc1b81600081518110610df557634e487b7160e01b600052603260045260246000fd5b60200101906001600160f81b031916908160001a905350600f60fb1b81600181518110610e3257634e487b7160e01b600052603260045260246000fd5b60200101906001600160f81b031916908160001a9053506000610e568460026111c7565b610e619060016111af565b90505b6001811115610ef5576f181899199a1a9b1b9c1cb0b131b232b360811b85600f1660108110610ea357634e487b7160e01b600052603260045260246000fd5b1a60f81b828281518110610ec757634e487b7160e01b600052603260045260246000fd5b60200101906001600160f81b031916908160001a90535060049490941c93610eee81611212565b9050610e64565b508315610f445760405162461bcd60e51b815260206004820181905260248201527f537472696e67733a20686578206c656e67746820696e73756666696369656e746044820152606401610506565b9392505050565b80356001600160a01b0381168114610f6257600080fd5b919050565b600060208284031215610f78578081fd5b610f4482610f4b565b60008060008060808587031215610f96578283fd5b610f9f85610f4b565b9350610fad60208601610f4b565b9250610fbb60408601610f4b565b9150610fc960608601610f4b565b905092959194509250565b600080600060608486031215610fe8578283fd5b610ff184610f4b565b9250610fff60208501610f4b565b9150604084013590509250925092565b600060208284031215611020578081fd5b81518015158114610f44578182fd5b600060208284031215611040578081fd5b5035919050565b60008060408385031215611059578182fd5b8235915061106960208401610f4b565b90509250929050565b600060208284031215611083578081fd5b81356001600160e01b031981168114610f44578182fd5b6000602082840312156110ab578081fd5b5051919050565b76020b1b1b2b9b9a1b7b73a3937b61d1030b1b1b7bab73a1604d1b8152600083516110e48160178501602088016111e6565b7001034b99036b4b9b9b4b733903937b6329607d1b60179184019182015283516111158160288401602088016111e6565b01602801949350505050565b6001600160a01b03929092168252602082015260400190565b60208152600082518060208401526111598160408501602087016111e6565b601f01601f19169190910160400192915050565b60208082526022908201527f41636365737369626c653a2043616c6c6572206973206e6f7420616e2061646d60408201526134b760f11b606082015260800190565b600082198211156111c2576111c2611229565b500190565b60008160001904831182151516156111e1576111e1611229565b500290565b60005b838110156112015781810151838201526020016111e9565b838111156107475750506000910152565b60008161122157611221611229565b506000190190565b634e487b7160e01b600052601160045260246000fdfedf8b4c520ffe197c5343c6f5aec59570151ef9a492f2c624fd45ddde6135ec42a2646970667358221220c275989a2339227131ea689de21c93eee3280579b8895dce2ad3f0822e66411464736f6c63430008040033",
  "linkReferences": {},
  "deployedLinkReferences": {}
}