{
  "_format": "hh-sol-artifact-1",
  "contractName": "PowerTONSwapperProxy",
  "sourceName": "contracts/powerton/PowerTONSwapperProxy.sol",
  "abi": [
    {
      "inputs": [
        {
          "internalType": "address",
          "name": "_impl",
          "type": "address"
        },
        {
          "internalType": "address",
          "name": "_wton",
          "type": "address"
        },
        {
          "internalType": "address",
          "name": "_tos",
          "type": "address"
        },
        {
          "internalType": "address",
          "name": "_uniswapRouter",
          "type": "address"
        },
        {
          "internalType": "address",
          "name": "_autocoinageSnapshot",
          "type": "address"
        },
        {
          "internalType": "address",
          "name": "_layer2Registry",
          "type": "address"
        },
        {
          "internalType": "address",
          "name": "_seigManager",
          "type": "address"
        }
      ],
      "stateMutability": "nonpayable",
      "type": "constructor"
    },
    {
      "anonymous": false,
      "inputs": [
        {
          "indexed": true,
          "internalType": "bytes32",
          "name": "role",
          "type": "bytes32"
        },
        {
          "indexed": true,
          "internalType": "bytes32",
          "name": "previousAdminRole",
          "type": "bytes32"
        },
        {
          "indexed": true,
          "internalType": "bytes32",
          "name": "newAdminRole",
          "type": "bytes32"
        }
      ],
      "name": "RoleAdminChanged",
      "type": "event"
    },
    {
      "anonymous": false,
      "inputs": [
        {
          "indexed": true,
          "internalType": "bytes32",
          "name": "role",
          "type": "bytes32"
        },
        {
          "indexed": true,
          "internalType": "address",
          "name": "account",
          "type": "address"
        },
        {
          "indexed": true,
          "internalType": "address",
          "name": "sender",
          "type": "address"
        }
      ],
      "name": "RoleGranted",
      "type": "event"
    },
    {
      "anonymous": false,
      "inputs": [
        {
          "indexed": true,
          "internalType": "bytes32",
          "name": "role",
          "type": "bytes32"
        },
        {
          "indexed": true,
          "internalType": "address",
          "name": "account",
          "type": "address"
        },
        {
          "indexed": true,
          "internalType": "address",
          "name": "sender",
          "type": "address"
        }
      ],
      "name": "RoleRevoked",
      "type": "event"
    },
    {
      "anonymous": false,
      "inputs": [
        {
          "indexed": true,
          "internalType": "address",
          "name": "implementation",
          "type": "address"
        }
      ],
      "name": "Upgraded",
      "type": "event"
    },
    {
      "stateMutability": "payable",
      "type": "fallback"
    },
    {
      "inputs": [],
      "name": "ADMIN_ROLE",
      "outputs": [
        {
          "internalType": "bytes32",
          "name": "",
          "type": "bytes32"
        }
      ],
      "stateMutability": "view",
      "type": "function"
    },
    {
      "inputs": [],
      "name": "BURNER_ROLE",
      "outputs": [
        {
          "internalType": "bytes32",
          "name": "",
          "type": "bytes32"
        }
      ],
      "stateMutability": "view",
      "type": "function"
    },
    {
      "inputs": [],
      "name": "DEFAULT_ADMIN_ROLE",
      "outputs": [
        {
          "internalType": "bytes32",
          "name": "",
          "type": "bytes32"
        }
      ],
      "stateMutability": "view",
      "type": "function"
    },
    {
      "inputs": [],
      "name": "MINTER_ROLE",
      "outputs": [
        {
          "internalType": "bytes32",
          "name": "",
          "type": "bytes32"
        }
      ],
      "stateMutability": "view",
      "type": "function"
    },
    {
      "inputs": [
        {
          "internalType": "address",
          "name": "account",
          "type": "address"
        }
      ],
      "name": "addAdmin",
      "outputs": [],
      "stateMutability": "nonpayable",
      "type": "function"
    },
    {
      "inputs": [],
      "name": "autocoinageSnapshot",
      "outputs": [
        {
          "internalType": "address",
          "name": "",
          "type": "address"
        }
      ],
      "stateMutability": "view",
      "type": "function"
    },
    {
      "inputs": [
        {
          "internalType": "bytes32",
          "name": "role",
          "type": "bytes32"
        }
      ],
      "name": "getRoleAdmin",
      "outputs": [
        {
          "internalType": "bytes32",
          "name": "",
          "type": "bytes32"
        }
      ],
      "stateMutability": "view",
      "type": "function"
    },
    {
      "inputs": [
        {
          "internalType": "bytes32",
          "name": "role",
          "type": "bytes32"
        },
        {
          "internalType": "address",
          "name": "account",
          "type": "address"
        }
      ],
      "name": "grantRole",
      "outputs": [],
      "stateMutability": "nonpayable",
      "type": "function"
    },
    {
      "inputs": [
        {
          "internalType": "bytes32",
          "name": "role",
          "type": "bytes32"
        },
        {
          "internalType": "address",
          "name": "account",
          "type": "address"
        }
      ],
      "name": "hasRole",
      "outputs": [
        {
          "internalType": "bool",
          "name": "",
          "type": "bool"
        }
      ],
      "stateMutability": "view",
      "type": "function"
    },
    {
      "inputs": [],
      "name": "implementation",
      "outputs": [
        {
          "internalType": "address",
          "name": "",
          "type": "address"
        }
      ],
      "stateMutability": "view",
      "type": "function"
    },
    {
      "inputs": [
        {
          "internalType": "address",
          "name": "account",
          "type": "address"
        }
      ],
      "name": "isAdmin",
      "outputs": [
        {
          "internalType": "bool",
          "name": "",
          "type": "bool"
        }
      ],
      "stateMutability": "view",
      "type": "function"
    },
    {
      "inputs": [],
      "name": "layer2Registry",
      "outputs": [
        {
          "internalType": "address",
          "name": "",
          "type": "address"
        }
      ],
      "stateMutability": "view",
      "type": "function"
    },
    {
      "inputs": [],
      "name": "migratedL2",
      "outputs": [
        {
          "internalType": "bool",
          "name": "",
          "type": "bool"
        }
      ],
      "stateMutability": "view",
      "type": "function"
    },
    {
      "inputs": [],
      "name": "pauseProxy",
      "outputs": [
        {
          "internalType": "bool",
          "name": "",
          "type": "bool"
        }
      ],
      "stateMutability": "view",
      "type": "function"
    },
    {
      "inputs": [
        {
          "internalType": "address",
          "name": "account",
          "type": "address"
        }
      ],
      "name": "removeAdmin",
      "outputs": [],
      "stateMutability": "nonpayable",
      "type": "function"
    },
    {
      "inputs": [
        {
          "internalType": "bytes32",
          "name": "role",
          "type": "bytes32"
        },
        {
          "internalType": "address",
          "name": "account",
          "type": "address"
        }
      ],
      "name": "renounceRole",
      "outputs": [],
      "stateMutability": "nonpayable",
      "type": "function"
    },
    {
      "inputs": [
        {
          "internalType": "bytes32",
          "name": "role",
          "type": "bytes32"
        },
        {
          "internalType": "address",
          "name": "account",
          "type": "address"
        }
      ],
      "name": "revokeRole",
      "outputs": [],
      "stateMutability": "nonpayable",
      "type": "function"
    },
    {
      "inputs": [],
      "name": "seigManager",
      "outputs": [
        {
          "internalType": "address",
          "name": "",
          "type": "address"
        }
      ],
      "stateMutability": "view",
      "type": "function"
    },
    {
      "inputs": [
        {
          "internalType": "bool",
          "name": "_pause",
          "type": "bool"
        }
      ],
      "name": "setProxyPause",
      "outputs": [],
      "stateMutability": "nonpayable",
      "type": "function"
    },
    {
      "inputs": [
        {
          "internalType": "bytes4",
          "name": "interfaceId",
          "type": "bytes4"
        }
      ],
      "name": "supportsInterface",
      "outputs": [
        {
          "internalType": "bool",
          "name": "",
          "type": "bool"
        }
      ],
      "stateMutability": "view",
      "type": "function"
    },
    {
      "inputs": [],
      "name": "tos",
      "outputs": [
        {
          "internalType": "contract ITOS",
          "name": "",
          "type": "address"
        }
      ],
      "stateMutability": "view",
      "type": "function"
    },
    {
      "inputs": [
        {
          "internalType": "address",
          "name": "newAdmin",
          "type": "address"
        }
      ],
      "name": "transferAdmin",
      "outputs": [],
      "stateMutability": "nonpayable",
      "type": "function"
    },
    {
      "inputs": [],
      "name": "uniswapRouter",
      "outputs": [
        {
          "internalType": "contract ISwapRouter",
          "name": "",
          "type": "address"
        }
      ],
      "stateMutability": "view",
      "type": "function"
    },
    {
      "inputs": [
        {
          "internalType": "address",
          "name": "impl",
          "type": "address"
        }
      ],
      "name": "upgradeTo",
      "outputs": [],
      "stateMutability": "nonpayable",
      "type": "function"
    },
    {
      "inputs": [],
      "name": "wton",
      "outputs": [
        {
          "internalType": "address",
          "name": "",
          "type": "address"
        }
      ],
      "stateMutability": "view",
      "type": "function"
    },
    {
      "stateMutability": "payable",
      "type": "receive"
    }
  ],
  "bytecode": "0x60806040523480156200001157600080fd5b506040516200153538038062001535833981016040819052620000349162000383565b6200006160017f360894a13ba1a3210667c828492db98dca3e2076cc3735a920a3ca505d382bbd62000417565b600080516020620014f5833981519152146200008d57634e487b7160e01b600052600160045260246000fd5b6001600160a01b038716620000f55760405162461bcd60e51b815260206004820152602360248201527f506f776572544f4e5377617070657250726f78793a206c6f676963206973207a60448201526265726f60e81b60648201526084015b60405180910390fd5b6200010087620001b5565b6200011b600080516020620015158339815191528062000261565b620001366000805160206200151583398151915233620002ac565b600080546001600160a01b0397881661010002610100600160a81b0319909116179055600180549587166001600160a01b0319968716179055600280549487169486169490941790935560038054928616928516929092179091556004805491851691841691909117905560058054919093169116179055506200043b565b620001cb81620002bc60201b62000a0f1760201c565b6200024e5760405162461bcd60e51b815260206004820152604660248201527f50726f7879426173653a2043616e6e6f742073657420612070726f787920696d60448201527f706c656d656e746174696f6e20746f2061206e6f6e2d636f6e7472616374206160648201526564647265737360d01b608482015260a401620000ec565b600080516020620014f583398151915255565b600082815260066020526040808220600101805490849055905190918391839186917fbd79b86ffe0ab8e8776151514217cd7cacd52c909f66475c3af44e129f0b00ff9190a4505050565b620002b88282620002c2565b5050565b3b151590565b60008281526006602090815260408083206001600160a01b038516845290915290205460ff16620002b85760008281526006602090815260408083206001600160a01b03851684529091529020805460ff19166001179055620003223390565b6001600160a01b0316816001600160a01b0316837f2f8788117e7eff1d82e926ec794901d17c78024a50270940304540a733656f0d60405160405180910390a45050565b80516001600160a01b03811681146200037e57600080fd5b919050565b600080600080600080600060e0888a0312156200039e578283fd5b620003a98862000366565b9650620003b96020890162000366565b9550620003c96040890162000366565b9450620003d96060890162000366565b9350620003e96080890162000366565b9250620003f960a0890162000366565b91506200040960c0890162000366565b905092959891949750929550565b6000828210156200043657634e487b7160e01b81526011600452602481fd5b500390565b6110aa806200044b6000396000f3fe60806040526004361061015a5760003560e01c806370480275116100c15780638d62d9491161007a5780638d62d9491461043d57806391d1485414610462578063a1f5f50e14610482578063a217fddf146104a3578063cf2a239c146104b8578063d5391393146104d8578063d547741f1461050c576101a3565b8063704802751461037b578063735de9f71461039b57806375829def146103bb57806375b238fc146103db5780637cb00d25146103fd57806389f395de1461041d576101a3565b8063309d727311610113578063309d7273146102b457806336568abe146102ec5780633659cfe61461030c5780635c60da1b1461032c57806363a8fd89146103415780636fb7f5581461035b576101a3565b806301ffc9a7146101ad5780631785f53c146101e2578063248a9ca31461020257806324d7806c14610240578063282c51f3146102605780632f2ff15d14610294576101a3565b366101a35760405162461bcd60e51b815260206004820152601460248201527331b0b73737ba103932b1b2b4bb329022ba3432b960611b60448201526064015b60405180910390fd5b6101ab61052c565b005b3480156101b957600080fd5b506101cd6101c8366004610eb4565b6105dd565b60405190151581526020015b60405180910390f35b3480156101ee57600080fd5b506101ab6101fd366004610e37565b610614565b34801561020e57600080fd5b5061023261021d366004610e71565b60009081526006602052604090206001015490565b6040519081526020016101d9565b34801561024c57600080fd5b506101cd61025b366004610e37565b610654565b34801561026c57600080fd5b506102327f9667e80708b6eeeb0053fa0cca44e028ff548e2a9f029edfeac87c118b08b7c881565b3480156102a057600080fd5b506101ab6102af366004610e89565b61066e565b3480156102c057600080fd5b506003546102d4906001600160a01b031681565b6040516001600160a01b0390911681526020016101d9565b3480156102f857600080fd5b506101ab610307366004610e89565b610694565b34801561031857600080fd5b506101ab610327366004610e37565b610712565b34801561033857600080fd5b506102d4610842565b34801561034d57600080fd5b506000546101cd9060ff1681565b34801561036757600080fd5b506005546102d4906001600160a01b031681565b34801561038757600080fd5b506101ab610396366004610e37565b610851565b3480156103a757600080fd5b506002546102d4906001600160a01b031681565b3480156103c757600080fd5b506101ab6103d6366004610e37565b61088e565b3480156103e757600080fd5b5061023260008051602061105583398151915281565b34801561040957600080fd5b506101ab610418366004610e51565b610986565b34801561042957600080fd5b506001546102d4906001600160a01b031681565b34801561044957600080fd5b506000546102d49061010090046001600160a01b031681565b34801561046e57600080fd5b506101cd61047d366004610e89565b6109be565b34801561048e57600080fd5b506005546101cd90600160a01b900460ff1681565b3480156104af57600080fd5b50610232600081565b3480156104c457600080fd5b506004546102d4906001600160a01b031681565b3480156104e457600080fd5b506102327ff0887ba65ee2024ea881d91b74c2450ef19e1557f03bed3ea9f16b037cbe2dc981565b34801561051857600080fd5b506101ab610527366004610e89565b6109e9565b6000610536610a15565b90506001600160a01b03811615801590610553575060005460ff16155b6105b45760405162461bcd60e51b815260206004820152602c60248201527f506f776572544f4e5377617070657250726f78793a20696d706c204f5220707260448201526b6f78792069732066616c736560a01b606482015260840161019a565b3660008037600080366000845af43d6000803e8080156105d3573d6000f35b3d6000fd5b505050565b60006001600160e01b03198216637965db0b60e01b148061060e57506301ffc9a760e01b6001600160e01b03198316145b92915050565b61061d33610654565b6106395760405162461bcd60e51b815260040161019a90610f7e565b61065160008051602061105583398151915282610694565b50565b600061060e600080516020611055833981519152836109be565b60008281526006602052604090206001015461068a8133610a3a565b6105d88383610a9e565b6001600160a01b03811633146107045760405162461bcd60e51b815260206004820152602f60248201527f416363657373436f6e74726f6c3a2063616e206f6e6c792072656e6f756e636560448201526e103937b632b9903337b91039b2b63360891b606482015260840161019a565b61070e8282610b24565b5050565b61071b33610654565b6107375760405162461bcd60e51b815260040161019a90610f7e565b6001600160a01b0381166107995760405162461bcd60e51b815260206004820152602360248201527f506f776572544f4e5377617070657250726f78793a20696e707574206973207a60448201526265726f60e81b606482015260840161019a565b806001600160a01b03166107ab610a15565b6001600160a01b031614156108025760405162461bcd60e51b815260206004820152601a60248201527f506f776572544f4e5377617070657250726f78793a2073616d65000000000000604482015260640161019a565b61080b81610b8b565b6040516001600160a01b038216907fbc7cd75a20ee27fd9adebab32041f755214dbc6bffa90cc0225b39da2e5c2d3b90600090a250565b600061084c610a15565b905090565b61085a33610654565b6108765760405162461bcd60e51b815260040161019a90610f7e565b6106516000805160206110558339815191528261066e565b61089733610654565b6108b35760405162461bcd60e51b815260040161019a90610f7e565b6001600160a01b0381166109045760405162461bcd60e51b815260206004820152601860248201527741636365737369626c653a207a65726f206164647265737360401b604482015260640161019a565b336001600160a01b03821614156109565760405162461bcd60e51b815260206004820152601660248201527520b1b1b2b9b9b4b136329d1039b0b6b29030b236b4b760511b604482015260640161019a565b61096e6000805160206110558339815191528261066e565b61065160008051602061105583398151915233610694565b61098f33610654565b6109ab5760405162461bcd60e51b815260040161019a90610f7e565b6000805460ff1916911515919091179055565b60009182526006602090815260408084206001600160a01b0393909316845291905290205460ff1690565b600082815260066020526040902060010154610a058133610a3a565b6105d88383610b24565b3b151590565b7f360894a13ba1a3210667c828492db98dca3e2076cc3735a920a3ca505d382bbc5490565b610a4482826109be565b61070e57610a5c816001600160a01b03166014610c32565b610a67836020610c32565b604051602001610a78929190610edc565b60408051601f198184030181529082905262461bcd60e51b825261019a91600401610f4b565b610aa882826109be565b61070e5760008281526006602090815260408083206001600160a01b03851684529091529020805460ff19166001179055610ae03390565b6001600160a01b0316816001600160a01b0316837f2f8788117e7eff1d82e926ec794901d17c78024a50270940304540a733656f0d60405160405180910390a45050565b610b2e82826109be565b1561070e5760008281526006602090815260408083206001600160a01b0385168085529252808320805460ff1916905551339285917ff6391f5c32d9c69d2a47ea670b442974b53935d1edc7fd64eb21e047a839171b9190a45050565b803b610c0e5760405162461bcd60e51b815260206004820152604660248201527f50726f7879426173653a2043616e6e6f742073657420612070726f787920696d60448201527f706c656d656e746174696f6e20746f2061206e6f6e2d636f6e7472616374206160648201526564647265737360d01b608482015260a40161019a565b7f360894a13ba1a3210667c828492db98dca3e2076cc3735a920a3ca505d382bbc55565b60606000610c41836002610fd8565b610c4c906002610fc0565b67ffffffffffffffff811115610c7257634e487b7160e01b600052604160045260246000fd5b6040519080825280601f01601f191660200182016040528015610c9c576020820181803683370190505b509050600360fc1b81600081518110610cc557634e487b7160e01b600052603260045260246000fd5b60200101906001600160f81b031916908160001a905350600f60fb1b81600181518110610d0257634e487b7160e01b600052603260045260246000fd5b60200101906001600160f81b031916908160001a9053506000610d26846002610fd8565b610d31906001610fc0565b90505b6001811115610dc5576f181899199a1a9b1b9c1cb0b131b232b360811b85600f1660108110610d7357634e487b7160e01b600052603260045260246000fd5b1a60f81b828281518110610d9757634e487b7160e01b600052603260045260246000fd5b60200101906001600160f81b031916908160001a90535060049490941c93610dbe81611027565b9050610d34565b508315610e145760405162461bcd60e51b815260206004820181905260248201527f537472696e67733a20686578206c656e67746820696e73756666696369656e74604482015260640161019a565b9392505050565b80356001600160a01b0381168114610e3257600080fd5b919050565b600060208284031215610e48578081fd5b610e1482610e1b565b600060208284031215610e62578081fd5b81358015158114610e14578182fd5b600060208284031215610e82578081fd5b5035919050565b60008060408385031215610e9b578081fd5b82359150610eab60208401610e1b565b90509250929050565b600060208284031215610ec5578081fd5b81356001600160e01b031981168114610e14578182fd5b76020b1b1b2b9b9a1b7b73a3937b61d1030b1b1b7bab73a1604d1b815260008351610f0e816017850160208801610ff7565b7001034b99036b4b9b9b4b733903937b6329607d1b6017918401918201528351610f3f816028840160208801610ff7565b01602801949350505050565b6020815260008251806020840152610f6a816040850160208701610ff7565b601f01601f19169190910160400192915050565b60208082526022908201527f41636365737369626c653a2043616c6c6572206973206e6f7420616e2061646d60408201526134b760f11b606082015260800190565b60008219821115610fd357610fd361103e565b500190565b6000816000190483118215151615610ff257610ff261103e565b500290565b60005b83811015611012578181015183820152602001610ffa565b83811115611021576000848401525b50505050565b6000816110365761103661103e565b506000190190565b634e487b7160e01b600052601160045260246000fdfedf8b4c520ffe197c5343c6f5aec59570151ef9a492f2c624fd45ddde6135ec42a264697066735822122024a802d0bb4ef1babcebcd7527530cc5ca79d5eb7dff4f4a5f3f39e2003e7e7764736f6c63430008040033360894a13ba1a3210667c828492db98dca3e2076cc3735a920a3ca505d382bbcdf8b4c520ffe197c5343c6f5aec59570151ef9a492f2c624fd45ddde6135ec42",
  "linkReferences": {},
  "deployedLinkReferences": {}
}