{
  "_format": "hh-sol-artifact-1",
  "contractName": "ProjectToken",
  "sourceName": "contracts/tokens/ProjectToken.sol",
  "abi": [
    {
      "inputs": [
        {
          "internalType": "string",
          "name": "name_",
          "type": "string"
        },
        {
          "internalType": "string",
          "name": "symbol_",
          "type": "string"
        }
      ],
      "stateMutability": "nonpayable",
      "type": "constructor"
    },
    {
      "anonymous": false,
      "inputs": [
        {
          "indexed": true,
          "internalType": "address",
          "name": "owner",
          "type": "address"
        },
        {
          "indexed": true,
          "internalType": "address",
          "name": "approved",
          "type": "address"
        },
        {
          "indexed": true,
          "internalType": "uint256",
          "name": "tokenId",
          "type": "uint256"
        }
      ],
      "name": "Approval",
      "type": "event"
    },
    {
      "anonymous": false,
      "inputs": [
        {
          "indexed": true,
          "internalType": "address",
          "name": "owner",
          "type": "address"
        },
        {
          "indexed": true,
          "internalType": "address",
          "name": "operator",
          "type": "address"
        },
        {
          "indexed": false,
          "internalType": "bool",
          "name": "approved",
          "type": "bool"
        }
      ],
      "name": "ApprovalForAll",
      "type": "event"
    },
    {
      "anonymous": false,
      "inputs": [
        {
          "indexed": true,
          "internalType": "address",
          "name": "from",
          "type": "address"
        },
        {
          "indexed": true,
          "internalType": "address",
          "name": "to",
          "type": "address"
        },
        {
          "indexed": true,
          "internalType": "uint256",
          "name": "tokenId",
          "type": "uint256"
        }
      ],
      "name": "Transfer",
      "type": "event"
    },
    {
      "inputs": [],
      "name": "_ERC721_RECEIVED",
      "outputs": [
        {
          "internalType": "bytes4",
          "name": "",
          "type": "bytes4"
        }
      ],
      "stateMutability": "view",
      "type": "function"
    },
    {
      "inputs": [],
      "name": "_INTERFACE_ID_ERC721",
      "outputs": [
        {
          "internalType": "bytes4",
          "name": "",
          "type": "bytes4"
        }
      ],
      "stateMutability": "view",
      "type": "function"
    },
    {
      "inputs": [],
      "name": "_INTERFACE_ID_ERC721_ENUMERABLE",
      "outputs": [
        {
          "internalType": "bytes4",
          "name": "",
          "type": "bytes4"
        }
      ],
      "stateMutability": "view",
      "type": "function"
    },
    {
      "inputs": [],
      "name": "_INTERFACE_ID_ERC721_METADATA",
      "outputs": [
        {
          "internalType": "bytes4",
          "name": "",
          "type": "bytes4"
        }
      ],
      "stateMutability": "view",
      "type": "function"
    },
    {
      "inputs": [
        {
          "internalType": "uint256",
          "name": "",
          "type": "uint256"
        }
      ],
      "name": "_allTokens",
      "outputs": [
        {
          "internalType": "uint256",
          "name": "",
          "type": "uint256"
        }
      ],
      "stateMutability": "view",
      "type": "function"
    },
    {
      "inputs": [
        {
          "internalType": "uint256",
          "name": "",
          "type": "uint256"
        }
      ],
      "name": "_allTokensIndex",
      "outputs": [
        {
          "internalType": "uint256",
          "name": "",
          "type": "uint256"
        }
      ],
      "stateMutability": "view",
      "type": "function"
    },
    {
      "inputs": [],
      "name": "_baseURI",
      "outputs": [
        {
          "internalType": "string",
          "name": "",
          "type": "string"
        }
      ],
      "stateMutability": "view",
      "type": "function"
    },
    {
      "inputs": [],
      "name": "_name",
      "outputs": [
        {
          "internalType": "string",
          "name": "",
          "type": "string"
        }
      ],
      "stateMutability": "view",
      "type": "function"
    },
    {
      "inputs": [
        {
          "internalType": "address",
          "name": "",
          "type": "address"
        },
        {
          "internalType": "address",
          "name": "",
          "type": "address"
        }
      ],
      "name": "_operatorApprovals",
      "outputs": [
        {
          "internalType": "bool",
          "name": "",
          "type": "bool"
        }
      ],
      "stateMutability": "view",
      "type": "function"
    },
    {
      "inputs": [
        {
          "internalType": "address",
          "name": "",
          "type": "address"
        },
        {
          "internalType": "uint256",
          "name": "",
          "type": "uint256"
        }
      ],
      "name": "_ownedTokens",
      "outputs": [
        {
          "internalType": "uint256",
          "name": "",
          "type": "uint256"
        }
      ],
      "stateMutability": "view",
      "type": "function"
    },
    {
      "inputs": [
        {
          "internalType": "address",
          "name": "",
          "type": "address"
        }
      ],
      "name": "_ownedTokensCount",
      "outputs": [
        {
          "internalType": "uint256",
          "name": "_value",
          "type": "uint256"
        }
      ],
      "stateMutability": "view",
      "type": "function"
    },
    {
      "inputs": [
        {
          "internalType": "uint256",
          "name": "",
          "type": "uint256"
        }
      ],
      "name": "_ownedTokensIndex",
      "outputs": [
        {
          "internalType": "uint256",
          "name": "",
          "type": "uint256"
        }
      ],
      "stateMutability": "view",
      "type": "function"
    },
    {
      "inputs": [],
      "name": "_owner",
      "outputs": [
        {
          "internalType": "address",
          "name": "",
          "type": "address"
        }
      ],
      "stateMutability": "view",
      "type": "function"
    },
    {
      "inputs": [],
      "name": "_symbol",
      "outputs": [
        {
          "internalType": "string",
          "name": "",
          "type": "string"
        }
      ],
      "stateMutability": "view",
      "type": "function"
    },
    {
      "inputs": [
        {
          "internalType": "uint256",
          "name": "",
          "type": "uint256"
        }
      ],
      "name": "_tokenApprovals",
      "outputs": [
        {
          "internalType": "address",
          "name": "",
          "type": "address"
        }
      ],
      "stateMutability": "view",
      "type": "function"
    },
    {
      "inputs": [
        {
          "internalType": "uint256",
          "name": "",
          "type": "uint256"
        }
      ],
      "name": "_tokenOwner",
      "outputs": [
        {
          "internalType": "address",
          "name": "",
          "type": "address"
        }
      ],
      "stateMutability": "view",
      "type": "function"
    },
    {
      "inputs": [
        {
          "internalType": "uint256",
          "name": "",
          "type": "uint256"
        }
      ],
      "name": "_tokenURIs",
      "outputs": [
        {
          "internalType": "string",
          "name": "",
          "type": "string"
        }
      ],
      "stateMutability": "view",
      "type": "function"
    },
    {
      "inputs": [
        {
          "internalType": "address",
          "name": "to",
          "type": "address"
        },
        {
          "internalType": "uint256",
          "name": "tokenId",
          "type": "uint256"
        }
      ],
      "name": "approve",
      "outputs": [],
      "stateMutability": "nonpayable",
      "type": "function"
    },
    {
      "inputs": [
        {
          "internalType": "address",
          "name": "owner_",
          "type": "address"
        }
      ],
      "name": "balanceOf",
      "outputs": [
        {
          "internalType": "uint256",
          "name": "",
          "type": "uint256"
        }
      ],
      "stateMutability": "view",
      "type": "function"
    },
    {
      "inputs": [],
      "name": "baseURI",
      "outputs": [
        {
          "internalType": "string",
          "name": "",
          "type": "string"
        }
      ],
      "stateMutability": "view",
      "type": "function"
    },
    {
      "inputs": [
        {
          "internalType": "address",
          "name": "owner_",
          "type": "address"
        },
        {
          "internalType": "uint256",
          "name": "tokenId",
          "type": "uint256"
        }
      ],
      "name": "burn",
      "outputs": [],
      "stateMutability": "nonpayable",
      "type": "function"
    },
    {
      "inputs": [
        {
          "internalType": "uint256",
          "name": "tokenId",
          "type": "uint256"
        }
      ],
      "name": "getApproved",
      "outputs": [
        {
          "internalType": "address",
          "name": "",
          "type": "address"
        }
      ],
      "stateMutability": "view",
      "type": "function"
    },
    {
      "inputs": [
        {
          "internalType": "address",
          "name": "owner_",
          "type": "address"
        },
        {
          "internalType": "address",
          "name": "operator",
          "type": "address"
        }
      ],
      "name": "isApprovedForAll",
      "outputs": [
        {
          "internalType": "bool",
          "name": "",
          "type": "bool"
        }
      ],
      "stateMutability": "view",
      "type": "function"
    },
    {
      "inputs": [
        {
          "internalType": "address",
          "name": "addr",
          "type": "address"
        }
      ],
      "name": "isOwner",
      "outputs": [
        {
          "internalType": "bool",
          "name": "",
          "type": "bool"
        }
      ],
      "stateMutability": "view",
      "type": "function"
    },
    {
      "inputs": [
        {
          "internalType": "string",
          "name": "tokenURI_",
          "type": "string"
        },
        {
          "internalType": "bytes",
          "name": "_data",
          "type": "bytes"
        }
      ],
      "name": "mint",
      "outputs": [],
      "stateMutability": "nonpayable",
      "type": "function"
    },
    {
      "inputs": [
        {
          "internalType": "string",
          "name": "tokenURI_",
          "type": "string"
        }
      ],
      "name": "mint",
      "outputs": [],
      "stateMutability": "nonpayable",
      "type": "function"
    },
    {
      "inputs": [],
      "name": "name",
      "outputs": [
        {
          "internalType": "string",
          "name": "",
          "type": "string"
        }
      ],
      "stateMutability": "view",
      "type": "function"
    },
    {
      "inputs": [],
      "name": "owner",
      "outputs": [
        {
          "internalType": "address",
          "name": "",
          "type": "address"
        }
      ],
      "stateMutability": "view",
      "type": "function"
    },
    {
      "inputs": [
        {
          "internalType": "uint256",
          "name": "tokenId",
          "type": "uint256"
        }
      ],
      "name": "ownerOf",
      "outputs": [
        {
          "internalType": "address",
          "name": "",
          "type": "address"
        }
      ],
      "stateMutability": "view",
      "type": "function"
    },
    {
      "inputs": [],
      "name": "pauseProxy",
      "outputs": [
        {
          "internalType": "bool",
          "name": "",
          "type": "bool"
        }
      ],
      "stateMutability": "view",
      "type": "function"
    },
    {
      "inputs": [
        {
          "internalType": "address",
          "name": "from",
          "type": "address"
        },
        {
          "internalType": "address",
          "name": "to",
          "type": "address"
        },
        {
          "internalType": "uint256",
          "name": "tokenId",
          "type": "uint256"
        }
      ],
      "name": "safeTransferFrom",
      "outputs": [],
      "stateMutability": "nonpayable",
      "type": "function"
    },
    {
      "inputs": [
        {
          "internalType": "address",
          "name": "from",
          "type": "address"
        },
        {
          "internalType": "address",
          "name": "to",
          "type": "address"
        },
        {
          "internalType": "uint256",
          "name": "tokenId",
          "type": "uint256"
        },
        {
          "internalType": "bytes",
          "name": "_data",
          "type": "bytes"
        }
      ],
      "name": "safeTransferFrom",
      "outputs": [],
      "stateMutability": "nonpayable",
      "type": "function"
    },
    {
      "inputs": [
        {
          "internalType": "address",
          "name": "operator",
          "type": "address"
        },
        {
          "internalType": "bool",
          "name": "approved",
          "type": "bool"
        }
      ],
      "name": "setApprovalForAll",
      "outputs": [],
      "stateMutability": "nonpayable",
      "type": "function"
    },
    {
      "inputs": [
        {
          "internalType": "string",
          "name": "baseURI_",
          "type": "string"
        }
      ],
      "name": "setBaseURI",
      "outputs": [],
      "stateMutability": "nonpayable",
      "type": "function"
    },
    {
      "inputs": [
        {
          "internalType": "uint256",
          "name": "tokenId",
          "type": "uint256"
        },
        {
          "internalType": "string",
          "name": "_tokenURI",
          "type": "string"
        }
      ],
      "name": "setTokenURI",
      "outputs": [],
      "stateMutability": "nonpayable",
      "type": "function"
    },
    {
      "inputs": [
        {
          "internalType": "bytes4",
          "name": "interfaceId",
          "type": "bytes4"
        }
      ],
      "name": "supportsInterface",
      "outputs": [
        {
          "internalType": "bool",
          "name": "",
          "type": "bool"
        }
      ],
      "stateMutability": "view",
      "type": "function"
    },
    {
      "inputs": [
        {
          "internalType": "string",
          "name": "_source",
          "type": "string"
        }
      ],
      "name": "svgToBase64",
      "outputs": [
        {
          "internalType": "string",
          "name": "",
          "type": "string"
        }
      ],
      "stateMutability": "pure",
      "type": "function"
    },
    {
      "inputs": [
        {
          "internalType": "string",
          "name": "_source",
          "type": "string"
        }
      ],
      "name": "svgToImageURI",
      "outputs": [
        {
          "internalType": "string",
          "name": "",
          "type": "string"
        }
      ],
      "stateMutability": "pure",
      "type": "function"
    },
    {
      "inputs": [],
      "name": "symbol",
      "outputs": [
        {
          "internalType": "string",
          "name": "",
          "type": "string"
        }
      ],
      "stateMutability": "view",
      "type": "function"
    },
    {
      "inputs": [
        {
          "internalType": "uint256",
          "name": "index",
          "type": "uint256"
        }
      ],
      "name": "tokenByIndex",
      "outputs": [
        {
          "internalType": "uint256",
          "name": "",
          "type": "uint256"
        }
      ],
      "stateMutability": "view",
      "type": "function"
    },
    {
      "inputs": [
        {
          "internalType": "address",
          "name": "owner_",
          "type": "address"
        },
        {
          "internalType": "uint256",
          "name": "index",
          "type": "uint256"
        }
      ],
      "name": "tokenOfOwnerByIndex",
      "outputs": [
        {
          "internalType": "uint256",
          "name": "",
          "type": "uint256"
        }
      ],
      "stateMutability": "view",
      "type": "function"
    },
    {
      "inputs": [
        {
          "internalType": "uint256",
          "name": "tokenId",
          "type": "uint256"
        }
      ],
      "name": "tokenURI",
      "outputs": [
        {
          "internalType": "string",
          "name": "",
          "type": "string"
        }
      ],
      "stateMutability": "view",
      "type": "function"
    },
    {
      "inputs": [
        {
          "internalType": "uint256",
          "name": "tokenId",
          "type": "uint256"
        }
      ],
      "name": "tokenURIValue",
      "outputs": [
        {
          "internalType": "string",
          "name": "",
          "type": "string"
        }
      ],
      "stateMutability": "view",
      "type": "function"
    },
    {
      "inputs": [
        {
          "internalType": "address",
          "name": "owner_",
          "type": "address"
        }
      ],
      "name": "tokensOfOwner",
      "outputs": [
        {
          "internalType": "uint256[]",
          "name": "",
          "type": "uint256[]"
        }
      ],
      "stateMutability": "view",
      "type": "function"
    },
    {
      "inputs": [],
      "name": "totalSupply",
      "outputs": [
        {
          "internalType": "uint256",
          "name": "",
          "type": "uint256"
        }
      ],
      "stateMutability": "view",
      "type": "function"
    },
    {
      "inputs": [
        {
          "internalType": "address",
          "name": "from",
          "type": "address"
        },
        {
          "internalType": "address",
          "name": "to",
          "type": "address"
        },
        {
          "internalType": "uint256",
          "name": "tokenId",
          "type": "uint256"
        }
      ],
      "name": "transferFrom",
      "outputs": [],
      "stateMutability": "nonpayable",
      "type": "function"
    }
  ],
  "bytecode": "0x60806040523480156200001157600080fd5b5060405162002a8c38038062002a8c83398101604081905262000034916200028d565b620000466301ffc9a760e01b620000b0565b81516200005b90600290602085019062000134565b5080516200007190600390602084019062000134565b50620000846380ac58cd60e01b620000b0565b62000096635b5e139f60e01b620000b0565b620000a863780e9d6360e01b620000b0565b505062000347565b6001600160e01b031980821614156200010f5760405162461bcd60e51b815260206004820152601c60248201527f4552433136353a20696e76616c696420696e7465726661636520696400000000604482015260640160405180910390fd5b6001600160e01b0319166000908152602081905260409020805460ff19166001179055565b8280546200014290620002f4565b90600052602060002090601f016020900481019282620001665760008555620001b1565b82601f106200018157805160ff1916838001178555620001b1565b82800160010185558215620001b1579182015b82811115620001b157825182559160200191906001019062000194565b50620001bf929150620001c3565b5090565b5b80821115620001bf5760008155600101620001c4565b600082601f830112620001eb578081fd5b81516001600160401b038082111562000208576200020862000331565b604051601f8301601f19908116603f0116810190828211818310171562000233576200023362000331565b816040528381526020925086838588010111156200024f578485fd5b8491505b8382101562000272578582018301518183018401529082019062000253565b838211156200028357848385830101525b9695505050505050565b60008060408385031215620002a0578182fd5b82516001600160401b0380821115620002b7578384fd5b620002c586838701620001da565b93506020850151915080821115620002db578283fd5b50620002ea85828601620001da565b9150509250929050565b600181811c908216806200030957607f821691505b602082108114156200032b57634e487b7160e01b600052602260045260246000fd5b50919050565b634e487b7160e01b600052604160045260246000fd5b61273580620003576000396000f3fe608060405234801561001057600080fd5b506004361061028a5760003560e01c8063796db3121161015c578063aa5965ae116100ce578063d28d885211610087578063d28d8852146105fa578063d85d3d2714610602578063dece685414610615578063e985e9c514610623578063edc3bc3f14610636578063f66317181461066457600080fd5b8063aa5965ae14610598578063b01ac591146105ab578063b09f1266146105b9578063b2bdfa7b146105c1578063b88d4fde146105d4578063c87b56dd146105e757600080fd5b806395d89b411161012057806395d89b41146105015780639dc29fac14610509578063a22cb4651461051c578063a2e9b4391461052f578063a72636651461054f578063a7cc01361461056f57600080fd5b8063796db312146104725780638462151c1461049b57806388290adc146104bb5780638da5cb5b146104e257806394a509dd146104f357600080fd5b806342842e0e1161020057806356b08e9c116101b957806356b08e9c1461041c5780636352211e1461042f57806363a8fd89146104425780636c0360eb1461044f57806370a0823114610457578063743976a01461046a57600080fd5b806342842e0e146103aa5780634737576e146103bd5780634d860c25146103d05780634f3c5f06146103e35780634f6ccce7146103f657806355f804b31461040957600080fd5b8063162094c411610252578063162094c41461033957806318160ddd1461034c57806323b872dd1461035e5780632f54bf6e146103715780632f745c591461038457806330d871c61461039757600080fd5b806301ffc9a71461028f57806306fdde03146102d1578063081812fc146102e6578063095ea7b3146103115780630bb78ec114610326575b600080fd5b6102bc61029d3660046120ce565b6001600160e01b03191660009081526020819052604090205460ff1690565b60405190151581526020015b60405180910390f35b6102d9610684565b6040516102c89190612410565b6102f96102f43660046121dc565b610716565b6040516001600160a01b0390911681526020016102c8565b61032461031f3660046120a5565b6107a9565b005b6102d96103343660046121dc565b6108c5565b6103246103473660046121f4565b61095f565b600c545b6040519081526020016102c8565b61032461036c366004611fcb565b610997565b6102bc61037f366004611f7f565b6109c8565b6103506103923660046120a5565b6109f6565b6102d96103a53660046121aa565b610aaa565b6103246103b8366004611fcb565b610b3d565b6103246103cb366004612145565b610b58565b6102d96103de3660046121aa565b610b90565b6103506103f13660046120a5565b610bac565b6103506104043660046121dc565b610bdd565b6103246104173660046121aa565b610c7a565b6102d961042a3660046121dc565b610cb0565b6102f961043d3660046121dc565b610d75565b600e546102bc9060ff1681565b6102d9610df2565b610350610465366004611f7f565b610e01565b6102d9610e90565b6102f96104803660046121dc565b6006602052600090815260409020546001600160a01b031681565b6104ae6104a9366004611f7f565b610e9d565b6040516102c891906123cc565b6104c9630a85bd0160e11b81565b6040516001600160e01b031990911681526020016102c8565b6001546001600160a01b03166102f9565b6104c9635b5e139f60e01b81565b6102d9610f08565b6103246105173660046120a5565b610f17565b61032461052a36600461206b565b610f43565b61035061053d3660046121dc565b600b6020526000908152604090205481565b61035061055d3660046121dc565b600d6020526000908152604090205481565b6102f961057d3660046121dc565b6007602052600090815260409020546001600160a01b031681565b6103506105a63660046121dc565b611008565b6104c963780e9d6360e01b81565b6102d9611029565b6001546102f9906001600160a01b031681565b6103246105e2366004612006565b611036565b6102d96105f53660046121dc565b61106e565b6102d96110e4565b610324610610366004612106565b6110f1565b6104c96380ac58cd60e01b81565b6102bc610631366004611f99565b611121565b6102bc610644366004611f99565b600960209081526000928352604080842090915290825290205460ff1681565b610350610672366004611f7f565b60086020526000908152604090205481565b606060028054610693906125ea565b80601f01602080910402602001604051908101604052809291908181526020018280546106bf906125ea565b801561070c5780601f106106e15761010080835404028352916020019161070c565b820191906000526020600020905b8154815290600101906020018083116106ef57829003601f168201915b5050505050905090565b60006107218261114f565b61078d5760405162461bcd60e51b815260206004820152603260248201527f50726f6a656374546f6b656e3a20617070726f76656420717565727920666f72604482015271103737b732bc34b9ba32b73a103a37b5b2b760711b60648201526084015b60405180910390fd5b506000908152600760205260409020546001600160a01b031690565b60006107b482610d75565b9050806001600160a01b0316836001600160a01b031614156108285760405162461bcd60e51b815260206004820152602760248201527f50726f6a656374546f6b656e3a20617070726f76616c20746f2063757272656e6044820152663a1037bbb732b960c91b6064820152608401610784565b336001600160a01b038216148061084457506108448133611121565b6108b65760405162461bcd60e51b815260206004820152603e60248201527f50726f6a656374546f6b656e3a20617070726f76652063616c6c65722069732060448201527f6e6f74206f776e6572206e6f7220617070726f76656420666f7220616c6c00006064820152608401610784565b6108c0838361116c565b505050565b600460205260009081526040902080546108de906125ea565b80601f016020809104026020016040519081016040528092919081815260200182805461090a906125ea565b80156109575780601f1061092c57610100808354040283529160200191610957565b820191906000526020600020905b81548152906001019060200180831161093a57829003601f168201915b505050505081565b6001546001600160a01b031633146109895760405162461bcd60e51b815260040161078490612470565b610993828261095f565b5050565b6109a133826111da565b6109bd5760405162461bcd60e51b8152600401610784906124a1565b6108c08383836112aa565b6001546000906001600160a01b03838116911614156109e957506001919050565b506000919050565b919050565b6000610a0183610e01565b8210610a5f5760405162461bcd60e51b815260206004820152602760248201527f50726f6a656374546f6b656e3a206f776e657220696e646578206f7574206f6660448201526620626f756e647360c81b6064820152608401610784565b6001600160a01b0383166000908152600a60205260409020805483908110610a9757634e487b7160e01b600052603260045260246000fd5b9060005260206000200154905092915050565b606060006040518060400160405280601a81526020017f646174613a696d6167652f7376672b786d6c3b6261736536342c00000000000081525090506000610b1084604051602001610afc9190612264565b60405160208183030381529060405261144c565b90508181604051602001610b25929190612280565b60405160208183030381529060405292505050919050565b6108c083838360405180602001604052806000815250611036565b6000610b63600c5490565b9050610b703382846115bf565b6000818152600460205260409020610b89908585611d8f565b5050505050565b6060610ba682604051602001610afc9190612264565b92915050565b600a6020528160005260406000208181548110610bc857600080fd5b90600052602060002001600091509150505481565b6000610be8600c5490565b8210610c475760405162461bcd60e51b815260206004820152602860248201527f50726f6a656374546f6b656e3a20676c6f62616c20696e646578206f7574206f6044820152676620626f756e647360c01b6064820152608401610784565b600c8281548110610c6857634e487b7160e01b600052603260045260246000fd5b90600052602060002001549050919050565b6001546001600160a01b03163314610ca45760405162461bcd60e51b815260040161078490612470565b610cad81611644565b50565b6060610cbb8261114f565b610cd75760405162461bcd60e51b815260040161078490612423565b60008281526004602052604090208054610cf0906125ea565b80601f0160208091040260200160405190810160405280929190818152602001828054610d1c906125ea565b8015610d695780601f10610d3e57610100808354040283529160200191610d69565b820191906000526020600020905b815481529060010190602001808311610d4c57829003601f168201915b50505050509050919050565b6000818152600660205260408120546001600160a01b031680610ba65760405162461bcd60e51b815260206004820152602f60248201527f50726f6a656374546f6b656e3a206f776e657220717565727920666f72206e6f60448201526e3732bc34b9ba32b73a103a37b5b2b760891b6064820152608401610784565b606060058054610693906125ea565b60006001600160a01b038216610e725760405162461bcd60e51b815260206004820152603060248201527f50726f6a656374546f6b656e3a2062616c616e636520717565727920666f722060448201526f746865207a65726f206164647265737360801b6064820152608401610784565b6001600160a01b038216600090815260086020526040902054610ba6565b600580546108de906125ea565b6001600160a01b0381166000908152600a6020908152604091829020805483518184028101840190945280845260609392830182828015610d6957602002820191906000526020600020905b815481526020019060010190808311610ee95750505050509050919050565b606060038054610693906125ea565b610f218282611657565b610f2b8282611741565b6000818152600b602052604081205561099381611879565b6001600160a01b038216331415610f9c5760405162461bcd60e51b815260206004820152601f60248201527f50726f6a656374546f6b656e3a20617070726f766520746f2063616c6c6572006044820152606401610784565b3360008181526009602090815260408083206001600160a01b03871680855290835292819020805460ff191686151590811790915590519081529192917f17307eab39ab6107e8899845ad3d59bd9653f200f220920489ca2b5937696c31910160405180910390a35050565b600c818154811061101857600080fd5b600091825260209091200154905081565b600380546108de906125ea565b61104033836111da565b61105c5760405162461bcd60e51b8152600401610784906124a1565b61106884848484611963565b50505050565b60606110798261114f565b6110955760405162461bcd60e51b815260040161078490612423565b600082815260046020908152604080832090516110b792610afc9291016122af565b90506000816040516020016110cc919061234a565b60408051601f19818403018152919052949350505050565b600280546108de906125ea565b60006110fc600c5490565b90506111083382611996565b6000818152600460205260409020611068908484611d8f565b6001600160a01b03918216600090815260096020908152604080832093909416825291909152205460ff1690565b6000908152600660205260409020546001600160a01b0316151590565b600081815260076020526040902080546001600160a01b0319166001600160a01b03841690811790915581906111a182610d75565b6001600160a01b03167f8c5be1e5ebec7d5bd14f71427d1e84f3dd0314c0f7b2291e5b200ac8c7c3b92560405160405180910390a45050565b60006111e58261114f565b61124c5760405162461bcd60e51b815260206004820152603260248201527f50726f6a656374546f6b656e3a206f70657261746f7220717565727920666f72604482015271103737b732bc34b9ba32b73a103a37b5b2b760711b6064820152608401610784565b600061125783610d75565b9050806001600160a01b0316846001600160a01b031614806112925750836001600160a01b031661128784610716565b6001600160a01b0316145b806112a257506112a28185611121565b949350505050565b826001600160a01b03166112bd82610d75565b6001600160a01b03161461132b5760405162461bcd60e51b815260206004820152602f60248201527f50726f6a656374546f6b656e3a207472616e73666572206f6620746f6b656e2060448201526e3a3430ba1034b9903737ba1037bbb760891b6064820152608401610784565b6001600160a01b0382166113945760405162461bcd60e51b815260206004820152602a60248201527f50726f6a656374546f6b656e3a207472616e7366657220746f20746865207a65604482015269726f206164647265737360b01b6064820152608401610784565b61139d816119b0565b6001600160a01b03831660009081526008602052604090206113be906119eb565b6001600160a01b038216600090815260086020526040902080546001019055600081815260066020526040902080546001600160a01b0319166001600160a01b03841617905561140e8382611741565b6114188282611a42565b80826001600160a01b0316846001600160a01b03166000805160206126a883398151915260405160405180910390a4505050565b80516060908061146c575050604080516020810190915260008152919050565b6000600361147b836002612550565b6114859190612568565b611490906004612588565b9050600061149f826020612550565b6001600160401b038111156114c457634e487b7160e01b600052604160045260246000fd5b6040519080825280601f01601f1916602001820160405280156114ee576020820181803683370190505b5090506000604051806060016040528060408152602001612668604091399050600181016020830160005b8681101561157a576003818a01810151603f601282901c8116860151600c83901c8216870151600684901c831688015192909316870151600891821b60ff94851601821b92841692909201901b91160160e01b835260049092019101611519565b50600386066001811461159457600281146115a5576115b1565b613d3d60f01b6001198301526115b1565b603d60f81b6000198301525b505050918152949350505050565b6115c98383611a80565b6115d38383611a42565b61161b82600c80546000838152600d60205260408120829055600182018355919091527fdf6966c971051c3d54ec59162606531493a51404a002842f56009d7e5cf4a8c70155565b6116286000848484611ba0565b6108c05760405162461bcd60e51b8152600401610784906124f8565b8051610993906005906020840190611e13565b816001600160a01b031661166a82610d75565b6001600160a01b0316146116d45760405162461bcd60e51b815260206004820152602b60248201527f50726f6a656374546f6b656e3a206275726e206f6620746f6b656e207468617460448201526a1034b9903737ba1037bbb760a91b6064820152608401610784565b6116dd816119b0565b6001600160a01b03821660009081526008602052604090206116fe906119eb565b60008181526006602052604080822080546001600160a01b0319169055518291906001600160a01b038516906000805160206126a8833981519152908390a45050565b6001600160a01b0382166000908152600a6020526040812054611765906001611c71565b6000838152600b6020526040902054909150808214611828576001600160a01b0384166000908152600a602052604081208054849081106117b657634e487b7160e01b600052603260045260246000fd5b9060005260206000200154905080600a6000876001600160a01b03166001600160a01b03168152602001908152602001600020838154811061180857634e487b7160e01b600052603260045260246000fd5b6000918252602080832090910192909255918252600b9052604090208190555b6001600160a01b0384166000908152600a6020526040902080548061185d57634e487b7160e01b600052603160045260246000fd5b6001900381819060005260206000200160009055905550505050565b600c5460009061188a906001611c71565b6000838152600d6020526040812054600c80549394509092849081106118c057634e487b7160e01b600052603260045260246000fd5b9060005260206000200154905080600c83815481106118ef57634e487b7160e01b600052603260045260246000fd5b6000918252602080832090910192909255828152600d90915260409020829055600c80548061192e57634e487b7160e01b600052603160045260246000fd5b600190038181906000526020600020016000905590556000600d60008681526020019081526020016000208190555050505050565b61196e8484846112aa565b61197a84848484611ba0565b6110685760405162461bcd60e51b8152600401610784906124f8565b6109938282604051806020016040528060008152506115bf565b6000818152600760205260409020546001600160a01b031615610cad57600090815260076020526040902080546001600160a01b0319169055565b805480611a3a5760405162461bcd60e51b815260206004820152601b60248201527f436f756e7465723a2064656372656d656e74206f766572666c6f7700000000006044820152606401610784565b600019019055565b6001600160a01b039091166000908152600a602081815260408084208054868652600b84529185208290559282526001810183559183529091200155565b6001600160a01b038216611ae55760405162461bcd60e51b815260206004820152602660248201527f50726f6a656374546f6b656e3a206d696e7420746f20746865207a65726f206160448201526564647265737360d01b6064820152608401610784565b611aee8161114f565b15611b465760405162461bcd60e51b815260206004820152602260248201527f50726f6a656374546f6b656e3a20746f6b656e20616c7265616479206d696e74604482015261195960f21b6064820152608401610784565b600081815260066020908152604080832080546001600160a01b0319166001600160a01b038716908117909155808452600890925280832080546001019055518392906000805160206126a8833981519152908290a45050565b60006001600160a01b0384163b611bb9575060016112a2565b6000611c3a63150b7a0260e01b33888787604051602401611bdd949392919061238f565b604051602081830303815290604052906001600160e01b0319166020820180516001600160e01b0383818316178352505050506040518060600160405280603881526020016126c8603891396001600160a01b0388169190611c84565b9050600081806020019051810190611c5291906120ea565b6001600160e01b031916630a85bd0160e11b1492505050949350505050565b6000611c7d82846125a7565b9392505050565b60606112a2848460008585843b611cdd5760405162461bcd60e51b815260206004820152601d60248201527f416464726573733a2063616c6c20746f206e6f6e2d636f6e74726163740000006044820152606401610784565b600080866001600160a01b03168587604051611cf99190612264565b60006040518083038185875af1925050503d8060008114611d36576040519150601f19603f3d011682016040523d82523d6000602084013e611d3b565b606091505b5091509150611d4b828286611d56565b979650505050505050565b60608315611d65575081611c7d565b825115611d755782518084602001fd5b8160405162461bcd60e51b81526004016107849190612410565b828054611d9b906125ea565b90600052602060002090601f016020900481019282611dbd5760008555611e03565b82601f10611dd65782800160ff19823516178555611e03565b82800160010185558215611e03579182015b82811115611e03578235825591602001919060010190611de8565b50611e0f929150611e87565b5090565b828054611e1f906125ea565b90600052602060002090601f016020900481019282611e415760008555611e03565b82601f10611e5a57805160ff1916838001178555611e03565b82800160010185558215611e03579182015b82811115611e03578251825591602001919060010190611e6c565b5b80821115611e0f5760008155600101611e88565b80356001600160a01b03811681146109f157600080fd5b600082601f830112611ec3578081fd5b81356001600160401b0380821115611edd57611edd61263b565b604051601f8301601f19908116603f01168101908282118183101715611f0557611f0561263b565b81604052838152866020858801011115611f1d578485fd5b8360208701602083013792830160200193909352509392505050565b60008083601f840112611f4a578182fd5b5081356001600160401b03811115611f60578182fd5b602083019150836020828501011115611f7857600080fd5b9250929050565b600060208284031215611f90578081fd5b611c7d82611e9c565b60008060408385031215611fab578081fd5b611fb483611e9c565b9150611fc260208401611e9c565b90509250929050565b600080600060608486031215611fdf578081fd5b611fe884611e9c565b9250611ff660208501611e9c565b9150604084013590509250925092565b6000806000806080858703121561201b578081fd5b61202485611e9c565b935061203260208601611e9c565b92506040850135915060608501356001600160401b03811115612053578182fd5b61205f87828801611eb3565b91505092959194509250565b6000806040838503121561207d578182fd5b61208683611e9c565b91506020830135801515811461209a578182fd5b809150509250929050565b600080604083850312156120b7578182fd5b6120c083611e9c565b946020939093013593505050565b6000602082840312156120df578081fd5b8135611c7d81612651565b6000602082840312156120fb578081fd5b8151611c7d81612651565b60008060208385031215612118578182fd5b82356001600160401b0381111561212d578283fd5b61213985828601611f39565b90969095509350505050565b600080600060408486031215612159578283fd5b83356001600160401b038082111561216f578485fd5b61217b87838801611f39565b90955093506020860135915080821115612193578283fd5b506121a086828701611eb3565b9150509250925092565b6000602082840312156121bb578081fd5b81356001600160401b038111156121d0578182fd5b6112a284828501611eb3565b6000602082840312156121ed578081fd5b5035919050565b60008060408385031215612206578182fd5b8235915060208301356001600160401b03811115612222578182fd5b61222e85828601611eb3565b9150509250929050565b600081518084526122508160208601602086016125be565b601f01601f19169290920160200192915050565b600082516122768184602087016125be565b9190910192915050565b600083516122928184602088016125be565b8351908301906122a68183602088016125be565b01949350505050565b600080835482600182811c9150808316806122cb57607f831692505b60208084108214156122eb57634e487b7160e01b87526022600452602487fd5b8180156122ff57600181146123105761233c565b60ff1986168952848901965061233c565b60008a815260209020885b868110156123345781548b82015290850190830161231b565b505084890196505b509498975050505050505050565b7f646174613a6170706c69636174696f6e2f6a736f6e3b6261736536342c00000081526000825161238281601d8501602087016125be565b91909101601d0192915050565b6001600160a01b03858116825284166020820152604081018390526080606082018190526000906123c290830184612238565b9695505050505050565b6020808252825182820181905260009190848201906040850190845b81811015612404578351835292840192918401916001016123e8565b50909695505050505050565b602081526000611c7d6020830184612238565b6020808252602d908201527f50726f6a656374546f6b656e3a2055524920717565727920666f72206e6f6e6560408201526c3c34b9ba32b73a103a37b5b2b760991b606082015260800190565b60208082526017908201527631b0b63632b91034b9903737ba103a34329037bbb732b960491b604082015260600190565b60208082526037908201527f50726f6a656374546f6b656e3a207472616e736665722063616c6c6572206973604082015276081b9bdd081bdddb995c881b9bdc88185c1c1c9bdd9959604a1b606082015260800190565b60208082526038908201527f50726f6a656374546f6b656e3a207472616e7366657220746f206e6f6e204552604082015277219b9918a932b1b2b4bb32b91034b6b83632b6b2b73a32b960411b606082015260800190565b6000821982111561256357612563612625565b500190565b60008261258357634e487b7160e01b81526012600452602481fd5b500490565b60008160001904831182151516156125a2576125a2612625565b500290565b6000828210156125b9576125b9612625565b500390565b60005b838110156125d95781810151838201526020016125c1565b838111156110685750506000910152565b600181811c908216806125fe57607f821691505b6020821081141561261f57634e487b7160e01b600052602260045260246000fd5b50919050565b634e487b7160e01b600052601160045260246000fd5b634e487b7160e01b600052604160045260246000fd5b6001600160e01b031981168114610cad57600080fdfe4142434445464748494a4b4c4d4e4f505152535455565758595a6162636465666768696a6b6c6d6e6f707172737475767778797a303132333435363738392b2fddf252ad1be2c89b69c2b068fc378daa952ba7f163c4a11628f55a4df523b3ef50726f6a656374546f6b656e3a207472616e7366657220746f206e6f6e20455243373231526563656976657220696d706c656d656e746572a26469706673582212207652e359a0d2c7b107792a197ff10f1e92e37051bb542e8ea88968dcb5eb5b1b64736f6c63430008040033",
  "linkReferences": {},
  "deployedLinkReferences": {}
}