{
  "_format": "hh-sol-artifact-1",
  "contractName": "ProjectTokenProxy",
  "sourceName": "contracts/tokens/ProjectTokenProxy.sol",
  "abi": [
    {
      "inputs": [
        {
          "internalType": "string",
          "name": "name_",
          "type": "string"
        },
        {
          "internalType": "string",
          "name": "symbol_",
          "type": "string"
        }
      ],
      "stateMutability": "nonpayable",
      "type": "constructor"
    },
    {
      "anonymous": false,
      "inputs": [
        {
          "indexed": true,
          "internalType": "address",
          "name": "previousOwner",
          "type": "address"
        },
        {
          "indexed": true,
          "internalType": "address",
          "name": "newOwner",
          "type": "address"
        }
      ],
      "name": "OwnershipTransferred",
      "type": "event"
    },
    {
      "anonymous": false,
      "inputs": [
        {
          "indexed": true,
          "internalType": "address",
          "name": "implementation",
          "type": "address"
        }
      ],
      "name": "Upgraded",
      "type": "event"
    },
    {
      "stateMutability": "payable",
      "type": "fallback"
    },
    {
      "inputs": [],
      "name": "_ERC721_RECEIVED",
      "outputs": [
        {
          "internalType": "bytes4",
          "name": "",
          "type": "bytes4"
        }
      ],
      "stateMutability": "view",
      "type": "function"
    },
    {
      "inputs": [],
      "name": "_INTERFACE_ID_ERC721",
      "outputs": [
        {
          "internalType": "bytes4",
          "name": "",
          "type": "bytes4"
        }
      ],
      "stateMutability": "view",
      "type": "function"
    },
    {
      "inputs": [],
      "name": "_INTERFACE_ID_ERC721_ENUMERABLE",
      "outputs": [
        {
          "internalType": "bytes4",
          "name": "",
          "type": "bytes4"
        }
      ],
      "stateMutability": "view",
      "type": "function"
    },
    {
      "inputs": [],
      "name": "_INTERFACE_ID_ERC721_METADATA",
      "outputs": [
        {
          "internalType": "bytes4",
          "name": "",
          "type": "bytes4"
        }
      ],
      "stateMutability": "view",
      "type": "function"
    },
    {
      "inputs": [
        {
          "internalType": "uint256",
          "name": "",
          "type": "uint256"
        }
      ],
      "name": "_allTokens",
      "outputs": [
        {
          "internalType": "uint256",
          "name": "",
          "type": "uint256"
        }
      ],
      "stateMutability": "view",
      "type": "function"
    },
    {
      "inputs": [
        {
          "internalType": "uint256",
          "name": "",
          "type": "uint256"
        }
      ],
      "name": "_allTokensIndex",
      "outputs": [
        {
          "internalType": "uint256",
          "name": "",
          "type": "uint256"
        }
      ],
      "stateMutability": "view",
      "type": "function"
    },
    {
      "inputs": [],
      "name": "_baseURI",
      "outputs": [
        {
          "internalType": "string",
          "name": "",
          "type": "string"
        }
      ],
      "stateMutability": "view",
      "type": "function"
    },
    {
      "inputs": [],
      "name": "_name",
      "outputs": [
        {
          "internalType": "string",
          "name": "",
          "type": "string"
        }
      ],
      "stateMutability": "view",
      "type": "function"
    },
    {
      "inputs": [
        {
          "internalType": "address",
          "name": "",
          "type": "address"
        },
        {
          "internalType": "address",
          "name": "",
          "type": "address"
        }
      ],
      "name": "_operatorApprovals",
      "outputs": [
        {
          "internalType": "bool",
          "name": "",
          "type": "bool"
        }
      ],
      "stateMutability": "view",
      "type": "function"
    },
    {
      "inputs": [
        {
          "internalType": "address",
          "name": "",
          "type": "address"
        },
        {
          "internalType": "uint256",
          "name": "",
          "type": "uint256"
        }
      ],
      "name": "_ownedTokens",
      "outputs": [
        {
          "internalType": "uint256",
          "name": "",
          "type": "uint256"
        }
      ],
      "stateMutability": "view",
      "type": "function"
    },
    {
      "inputs": [
        {
          "internalType": "address",
          "name": "",
          "type": "address"
        }
      ],
      "name": "_ownedTokensCount",
      "outputs": [
        {
          "internalType": "uint256",
          "name": "_value",
          "type": "uint256"
        }
      ],
      "stateMutability": "view",
      "type": "function"
    },
    {
      "inputs": [
        {
          "internalType": "uint256",
          "name": "",
          "type": "uint256"
        }
      ],
      "name": "_ownedTokensIndex",
      "outputs": [
        {
          "internalType": "uint256",
          "name": "",
          "type": "uint256"
        }
      ],
      "stateMutability": "view",
      "type": "function"
    },
    {
      "inputs": [],
      "name": "_owner",
      "outputs": [
        {
          "internalType": "address",
          "name": "",
          "type": "address"
        }
      ],
      "stateMutability": "view",
      "type": "function"
    },
    {
      "inputs": [],
      "name": "_symbol",
      "outputs": [
        {
          "internalType": "string",
          "name": "",
          "type": "string"
        }
      ],
      "stateMutability": "view",
      "type": "function"
    },
    {
      "inputs": [
        {
          "internalType": "uint256",
          "name": "",
          "type": "uint256"
        }
      ],
      "name": "_tokenApprovals",
      "outputs": [
        {
          "internalType": "address",
          "name": "",
          "type": "address"
        }
      ],
      "stateMutability": "view",
      "type": "function"
    },
    {
      "inputs": [
        {
          "internalType": "uint256",
          "name": "",
          "type": "uint256"
        }
      ],
      "name": "_tokenOwner",
      "outputs": [
        {
          "internalType": "address",
          "name": "",
          "type": "address"
        }
      ],
      "stateMutability": "view",
      "type": "function"
    },
    {
      "inputs": [
        {
          "internalType": "uint256",
          "name": "",
          "type": "uint256"
        }
      ],
      "name": "_tokenURIs",
      "outputs": [
        {
          "internalType": "string",
          "name": "",
          "type": "string"
        }
      ],
      "stateMutability": "view",
      "type": "function"
    },
    {
      "inputs": [],
      "name": "implementation",
      "outputs": [
        {
          "internalType": "address",
          "name": "",
          "type": "address"
        }
      ],
      "stateMutability": "view",
      "type": "function"
    },
    {
      "inputs": [],
      "name": "pauseProxy",
      "outputs": [
        {
          "internalType": "bool",
          "name": "",
          "type": "bool"
        }
      ],
      "stateMutability": "view",
      "type": "function"
    },
    {
      "inputs": [],
      "name": "renounceOwnership",
      "outputs": [],
      "stateMutability": "nonpayable",
      "type": "function"
    },
    {
      "inputs": [
        {
          "internalType": "bool",
          "name": "_pause",
          "type": "bool"
        }
      ],
      "name": "setProxyPause",
      "outputs": [],
      "stateMutability": "nonpayable",
      "type": "function"
    },
    {
      "inputs": [
        {
          "internalType": "bytes4",
          "name": "interfaceId",
          "type": "bytes4"
        }
      ],
      "name": "supportsInterface",
      "outputs": [
        {
          "internalType": "bool",
          "name": "",
          "type": "bool"
        }
      ],
      "stateMutability": "view",
      "type": "function"
    },
    {
      "inputs": [
        {
          "internalType": "address",
          "name": "newOwner",
          "type": "address"
        }
      ],
      "name": "transferOwnership",
      "outputs": [],
      "stateMutability": "nonpayable",
      "type": "function"
    },
    {
      "inputs": [
        {
          "internalType": "address",
          "name": "impl",
          "type": "address"
        }
      ],
      "name": "upgradeTo",
      "outputs": [],
      "stateMutability": "nonpayable",
      "type": "function"
    },
    {
      "stateMutability": "payable",
      "type": "receive"
    }
  ],
  "bytecode": "0x60806040523480156200001157600080fd5b506040516200109538038062001095833981016040819052620000349162000336565b620000466301ffc9a760e01b62000159565b6200007360017f360894a13ba1a3210667c828492db98dca3e2076cc3735a920a3ca505d382bbd6200039d565b7f360894a13ba1a3210667c828492db98dca3e2076cc3735a920a3ca505d382bbc14620000b057634e487b7160e01b600052600160045260246000fd5b600180546001600160a01b031916331790558151620000d7906002906020850190620001dd565b508051620000ed906003906020840190620001dd565b50620001006380ac58cd60e01b62000159565b62000112635b5e139f60e01b62000159565b6200012463780e9d6360e01b62000159565b60405133906000907f8be0079c531659141344cd1fd0a4f28419497f9722a3daafe3b4186f6b6457e0908290a3505062000414565b6001600160e01b03198082161415620001b85760405162461bcd60e51b815260206004820152601c60248201527f4552433136353a20696e76616c696420696e7465726661636520696400000000604482015260640160405180910390fd5b6001600160e01b0319166000908152602081905260409020805460ff19166001179055565b828054620001eb90620003c1565b90600052602060002090601f0160209004810192826200020f57600085556200025a565b82601f106200022a57805160ff19168380011785556200025a565b828001600101855582156200025a579182015b828111156200025a5782518255916020019190600101906200023d565b50620002689291506200026c565b5090565b5b808211156200026857600081556001016200026d565b600082601f83011262000294578081fd5b81516001600160401b0380821115620002b157620002b1620003fe565b604051601f8301601f19908116603f01168101908282118183101715620002dc57620002dc620003fe565b81604052838152602092508683858801011115620002f8578485fd5b8491505b838210156200031b5785820183015181830184015290820190620002fc565b838211156200032c57848385830101525b9695505050505050565b6000806040838503121562000349578182fd5b82516001600160401b038082111562000360578384fd5b6200036e8683870162000283565b9350602085015191508082111562000384578283fd5b50620003938582860162000283565b9150509250929050565b600082821015620003bc57634e487b7160e01b81526011600452602481fd5b500390565b600181811c90821680620003d657607f821691505b60208210811415620003f857634e487b7160e01b600052602260045260246000fd5b50919050565b634e487b7160e01b600052604160045260246000fd5b610c7180620004246000396000f3fe60806040526004361061014f5760003560e01c8063a2e9b439116100b6578063b2bdfa7b1161006f578063b2bdfa7b14610462578063d28d885214610482578063dece685414610497578063edc3bc3f146104b2578063f2fde38b146104ed578063f66317181461050d57610198565b8063a2e9b43914610382578063a7263665146103af578063a7cc0136146103dc578063aa5965ae14610412578063b01ac59114610432578063b09f12661461044d57610198565b8063715018a611610108578063715018a6146102b3578063743976a0146102c8578063796db312146102dd5780637cb00d251461031357806388290adc1461033357806394a509dd1461036757610198565b806301ffc9a7146101a25780630bb78ec1146101f15780633659cfe61461021e5780634f3c5f061461023e5780635c60da1b1461026c57806363a8fd891461029957610198565b366101985760405162461bcd60e51b815260206004820152601460248201527331b0b73737ba103932b1b2b4bb329022ba3432b960611b60448201526064015b60405180910390fd5b6101a061053a565b005b3480156101ae57600080fd5b506101dc6101bd366004610b3c565b6001600160e01b03191660009081526020819052604090205460ff1690565b60405190151581526020015b60405180910390f35b3480156101fd57600080fd5b5061021161020c366004610b64565b6105dd565b6040516101e89190610b7c565b34801561022a57600080fd5b506101a0610239366004610aa0565b610677565b34801561024a57600080fd5b5061025e610259366004610af3565b610794565b6040519081526020016101e8565b34801561027857600080fd5b506102816107c5565b6040516001600160a01b0390911681526020016101e8565b3480156102a557600080fd5b50600e546101dc9060ff1681565b3480156102bf57600080fd5b506101a06107d4565b3480156102d457600080fd5b50610211610848565b3480156102e957600080fd5b506102816102f8366004610b64565b6006602052600090815260409020546001600160a01b031681565b34801561031f57600080fd5b506101a061032e366004610b1c565b610855565b34801561033f57600080fd5b5061034e630a85bd0160e11b81565b6040516001600160e01b031990911681526020016101e8565b34801561037357600080fd5b5061034e635b5e139f60e01b81565b34801561038e57600080fd5b5061025e61039d366004610b64565b600b6020526000908152604090205481565b3480156103bb57600080fd5b5061025e6103ca366004610b64565b600d6020526000908152604090205481565b3480156103e857600080fd5b506102816103f7366004610b64565b6007602052600090815260409020546001600160a01b031681565b34801561041e57600080fd5b5061025e61042d366004610b64565b610892565b34801561043e57600080fd5b5061034e63780e9d6360e01b81565b34801561045957600080fd5b506102116108b3565b34801561046e57600080fd5b50600154610281906001600160a01b031681565b34801561048e57600080fd5b506102116108c0565b3480156104a357600080fd5b5061034e6380ac58cd60e01b81565b3480156104be57600080fd5b506101dc6104cd366004610ac1565b600960209081526000928352604080842090915290825290205460ff1681565b3480156104f957600080fd5b506101a0610508366004610aa0565b6108cd565b34801561051957600080fd5b5061025e610528366004610aa0565b60086020526000908152604090205481565b60006105446109b8565b90506001600160a01b038116158015906105615750600e5460ff16155b6105b95760405162461bcd60e51b815260206004820152602360248201527f45524337323150726f78793a20696d706c204f522070726f78792069732066616044820152626c736560e81b606482015260840161018f565b3660008037600080366000845af43d6000803e8080156105d8573d6000f35b3d6000fd5b600460205260009081526040902080546105f690610c00565b80601f016020809104026020016040519081016040528092919081815260200182805461062290610c00565b801561066f5780601f106106445761010080835404028352916020019161066f565b820191906000526020600020905b81548152906001019060200180831161065257829003601f168201915b505050505081565b6001546001600160a01b031633146106a15760405162461bcd60e51b815260040161018f90610bcf565b6001600160a01b0381166106f75760405162461bcd60e51b815260206004820152601a60248201527f45524337323150726f78793a20696e707574206973207a65726f000000000000604482015260640161018f565b806001600160a01b03166107096109b8565b6001600160a01b031614156107545760405162461bcd60e51b815260206004820152601160248201527045524337323150726f78793a2073616d6560781b604482015260640161018f565b61075d816109dd565b6040516001600160a01b038216907fbc7cd75a20ee27fd9adebab32041f755214dbc6bffa90cc0225b39da2e5c2d3b90600090a250565b600a60205281600052604060002081815481106107b057600080fd5b90600052602060002001600091509150505481565b60006107cf6109b8565b905090565b6001546001600160a01b031633146107fe5760405162461bcd60e51b815260040161018f90610bcf565b6001546040516000916001600160a01b0316907f8be0079c531659141344cd1fd0a4f28419497f9722a3daafe3b4186f6b6457e0908390a3600180546001600160a01b0319169055565b600580546105f690610c00565b6001546001600160a01b0316331461087f5760405162461bcd60e51b815260040161018f90610bcf565b600e805460ff1916911515919091179055565b600c81815481106108a257600080fd5b600091825260209091200154905081565b600380546105f690610c00565b600280546105f690610c00565b6001546001600160a01b031633146108f75760405162461bcd60e51b815260040161018f90610bcf565b6001600160a01b03811661095c5760405162461bcd60e51b815260206004820152602660248201527f4f776e61626c653a206e6577206f776e657220697320746865207a65726f206160448201526564647265737360d01b606482015260840161018f565b6001546040516001600160a01b038084169216907f8be0079c531659141344cd1fd0a4f28419497f9722a3daafe3b4186f6b6457e090600090a3600180546001600160a01b0319166001600160a01b0392909216919091179055565b7f360894a13ba1a3210667c828492db98dca3e2076cc3735a920a3ca505d382bbc5490565b803b610a605760405162461bcd60e51b815260206004820152604660248201527f50726f7879426173653a2043616e6e6f742073657420612070726f787920696d60448201527f706c656d656e746174696f6e20746f2061206e6f6e2d636f6e7472616374206160648201526564647265737360d01b608482015260a40161018f565b7f360894a13ba1a3210667c828492db98dca3e2076cc3735a920a3ca505d382bbc55565b80356001600160a01b0381168114610a9b57600080fd5b919050565b600060208284031215610ab1578081fd5b610aba82610a84565b9392505050565b60008060408385031215610ad3578081fd5b610adc83610a84565b9150610aea60208401610a84565b90509250929050565b60008060408385031215610b05578182fd5b610b0e83610a84565b946020939093013593505050565b600060208284031215610b2d578081fd5b81358015158114610aba578182fd5b600060208284031215610b4d578081fd5b81356001600160e01b031981168114610aba578182fd5b600060208284031215610b75578081fd5b5035919050565b6000602080835283518082850152825b81811015610ba857858101830151858201604001528201610b8c565b81811115610bb95783604083870101525b50601f01601f1916929092016040019392505050565b60208082526017908201527631b0b63632b91034b9903737ba103a34329037bbb732b960491b604082015260600190565b600181811c90821680610c1457607f821691505b60208210811415610c3557634e487b7160e01b600052602260045260246000fd5b5091905056fea264697066735822122010d2ab87569a610d2882fe74000d98f2f6d637a7d10d150c07dfa1cfcbd3c44164736f6c63430008040033",
  "linkReferences": {},
  "deployedLinkReferences": {}
}