{
  "_format": "hh-sol-artifact-1",
  "contractName": "RefactorCoinageSnapshot",
  "sourceName": "contracts/stake/tokens/RefactorCoinageSnapshot.sol",
  "abi": [
    {
      "anonymous": false,
      "inputs": [
        {
          "indexed": true,
          "internalType": "address",
          "name": "account",
          "type": "address"
        },
        {
          "components": [
            {
              "internalType": "uint256",
              "name": "balance",
              "type": "uint256"
            },
            {
              "internalType": "uint256",
              "name": "refactoredCount",
              "type": "uint256"
            }
          ],
          "indexed": false,
          "internalType": "struct RefactorCoinageSnapshotStorage.Balance",
          "name": "oldBalance",
          "type": "tuple"
        },
        {
          "components": [
            {
              "internalType": "uint256",
              "name": "balance",
              "type": "uint256"
            },
            {
              "internalType": "uint256",
              "name": "refactoredCount",
              "type": "uint256"
            }
          ],
          "indexed": false,
          "internalType": "struct RefactorCoinageSnapshotStorage.Balance",
          "name": "newBalance",
          "type": "tuple"
        },
        {
          "components": [
            {
              "internalType": "uint256",
              "name": "balance",
              "type": "uint256"
            },
            {
              "internalType": "uint256",
              "name": "refactoredCount",
              "type": "uint256"
            }
          ],
          "indexed": false,
          "internalType": "struct RefactorCoinageSnapshotStorage.Balance",
          "name": "oldTotalBalance",
          "type": "tuple"
        },
        {
          "components": [
            {
              "internalType": "uint256",
              "name": "balance",
              "type": "uint256"
            },
            {
              "internalType": "uint256",
              "name": "refactoredCount",
              "type": "uint256"
            }
          ],
          "indexed": false,
          "internalType": "struct RefactorCoinageSnapshotStorage.Balance",
          "name": "newTotalBalance",
          "type": "tuple"
        }
      ],
      "name": "ChangedBalance",
      "type": "event"
    },
    {
      "anonymous": false,
      "inputs": [
        {
          "components": [
            {
              "internalType": "uint256",
              "name": "factor",
              "type": "uint256"
            },
            {
              "internalType": "uint256",
              "name": "refactorCount",
              "type": "uint256"
            }
          ],
          "indexed": false,
          "internalType": "struct RefactorCoinageSnapshotStorage.Factor",
          "name": "previous",
          "type": "tuple"
        },
        {
          "components": [
            {
              "internalType": "uint256",
              "name": "factor",
              "type": "uint256"
            },
            {
              "internalType": "uint256",
              "name": "refactorCount",
              "type": "uint256"
            }
          ],
          "indexed": false,
          "internalType": "struct RefactorCoinageSnapshotStorage.Factor",
          "name": "next",
          "type": "tuple"
        }
      ],
      "name": "ChangedFactor",
      "type": "event"
    },
    {
      "anonymous": false,
      "inputs": [
        {
          "indexed": false,
          "internalType": "uint256",
          "name": "previous",
          "type": "uint256"
        },
        {
          "indexed": false,
          "internalType": "uint256",
          "name": "current",
          "type": "uint256"
        },
        {
          "indexed": false,
          "internalType": "uint256",
          "name": "shiftCount",
          "type": "uint256"
        }
      ],
      "name": "FactorSet",
      "type": "event"
    },
    {
      "anonymous": false,
      "inputs": [
        {
          "indexed": true,
          "internalType": "bytes32",
          "name": "role",
          "type": "bytes32"
        },
        {
          "indexed": true,
          "internalType": "bytes32",
          "name": "previousAdminRole",
          "type": "bytes32"
        },
        {
          "indexed": true,
          "internalType": "bytes32",
          "name": "newAdminRole",
          "type": "bytes32"
        }
      ],
      "name": "RoleAdminChanged",
      "type": "event"
    },
    {
      "anonymous": false,
      "inputs": [
        {
          "indexed": true,
          "internalType": "bytes32",
          "name": "role",
          "type": "bytes32"
        },
        {
          "indexed": true,
          "internalType": "address",
          "name": "account",
          "type": "address"
        },
        {
          "indexed": true,
          "internalType": "address",
          "name": "sender",
          "type": "address"
        }
      ],
      "name": "RoleGranted",
      "type": "event"
    },
    {
      "anonymous": false,
      "inputs": [
        {
          "indexed": true,
          "internalType": "bytes32",
          "name": "role",
          "type": "bytes32"
        },
        {
          "indexed": true,
          "internalType": "address",
          "name": "account",
          "type": "address"
        },
        {
          "indexed": true,
          "internalType": "address",
          "name": "sender",
          "type": "address"
        }
      ],
      "name": "RoleRevoked",
      "type": "event"
    },
    {
      "anonymous": false,
      "inputs": [
        {
          "indexed": false,
          "internalType": "uint256",
          "name": "id",
          "type": "uint256"
        }
      ],
      "name": "Snapshotted",
      "type": "event"
    },
    {
      "anonymous": false,
      "inputs": [
        {
          "indexed": true,
          "internalType": "address",
          "name": "from",
          "type": "address"
        },
        {
          "indexed": true,
          "internalType": "address",
          "name": "to",
          "type": "address"
        },
        {
          "indexed": false,
          "internalType": "uint256",
          "name": "value",
          "type": "uint256"
        }
      ],
      "name": "Transfer",
      "type": "event"
    },
    {
      "inputs": [],
      "name": "DEFAULT_ADMIN_ROLE",
      "outputs": [
        {
          "internalType": "bytes32",
          "name": "",
          "type": "bytes32"
        }
      ],
      "stateMutability": "view",
      "type": "function"
    },
    {
      "inputs": [],
      "name": "MINTER_ROLE",
      "outputs": [
        {
          "internalType": "bytes32",
          "name": "",
          "type": "bytes32"
        }
      ],
      "stateMutability": "view",
      "type": "function"
    },
    {
      "inputs": [],
      "name": "OPERATOR_ROLE",
      "outputs": [
        {
          "internalType": "bytes32",
          "name": "",
          "type": "bytes32"
        }
      ],
      "stateMutability": "view",
      "type": "function"
    },
    {
      "inputs": [],
      "name": "REFACTOR_BOUNDARY",
      "outputs": [
        {
          "internalType": "uint256",
          "name": "",
          "type": "uint256"
        }
      ],
      "stateMutability": "view",
      "type": "function"
    },
    {
      "inputs": [],
      "name": "REFACTOR_DIVIDER",
      "outputs": [
        {
          "internalType": "uint256",
          "name": "",
          "type": "uint256"
        }
      ],
      "stateMutability": "view",
      "type": "function"
    },
    {
      "inputs": [
        {
          "internalType": "address",
          "name": "",
          "type": "address"
        },
        {
          "internalType": "address",
          "name": "",
          "type": "address"
        }
      ],
      "name": "_allowances",
      "outputs": [
        {
          "internalType": "uint256",
          "name": "",
          "type": "uint256"
        }
      ],
      "stateMutability": "view",
      "type": "function"
    },
    {
      "inputs": [
        {
          "internalType": "uint256",
          "name": "snapshotId",
          "type": "uint256"
        },
        {
          "internalType": "address",
          "name": "account",
          "type": "address"
        }
      ],
      "name": "_valueAtAccount",
      "outputs": [
        {
          "internalType": "bool",
          "name": "snapshotted",
          "type": "bool"
        },
        {
          "components": [
            {
              "internalType": "uint256",
              "name": "balance",
              "type": "uint256"
            },
            {
              "internalType": "uint256",
              "name": "refactoredCount",
              "type": "uint256"
            }
          ],
          "internalType": "struct RefactorCoinageSnapshotStorage.Balance",
          "name": "balance",
          "type": "tuple"
        }
      ],
      "stateMutability": "view",
      "type": "function"
    },
    {
      "inputs": [
        {
          "internalType": "address",
          "name": "account",
          "type": "address"
        }
      ],
      "name": "_valueAtAccountBalanceLast",
      "outputs": [
        {
          "components": [
            {
              "internalType": "uint256",
              "name": "balance",
              "type": "uint256"
            },
            {
              "internalType": "uint256",
              "name": "refactoredCount",
              "type": "uint256"
            }
          ],
          "internalType": "struct RefactorCoinageSnapshotStorage.Balance",
          "name": "",
          "type": "tuple"
        }
      ],
      "stateMutability": "view",
      "type": "function"
    },
    {
      "inputs": [
        {
          "internalType": "uint256",
          "name": "snapshotId",
          "type": "uint256"
        }
      ],
      "name": "_valueAtFactor",
      "outputs": [
        {
          "internalType": "bool",
          "name": "snapshotted",
          "type": "bool"
        },
        {
          "components": [
            {
              "internalType": "uint256",
              "name": "factor",
              "type": "uint256"
            },
            {
              "internalType": "uint256",
              "name": "refactorCount",
              "type": "uint256"
            }
          ],
          "internalType": "struct RefactorCoinageSnapshotStorage.Factor",
          "name": "factor_",
          "type": "tuple"
        }
      ],
      "stateMutability": "view",
      "type": "function"
    },
    {
      "inputs": [],
      "name": "_valueAtFactorLast",
      "outputs": [
        {
          "components": [
            {
              "internalType": "uint256",
              "name": "factor",
              "type": "uint256"
            },
            {
              "internalType": "uint256",
              "name": "refactorCount",
              "type": "uint256"
            }
          ],
          "internalType": "struct RefactorCoinageSnapshotStorage.Factor",
          "name": "",
          "type": "tuple"
        }
      ],
      "stateMutability": "view",
      "type": "function"
    },
    {
      "inputs": [
        {
          "internalType": "uint256",
          "name": "snapshotId",
          "type": "uint256"
        }
      ],
      "name": "_valueAtTotalSupply",
      "outputs": [
        {
          "internalType": "bool",
          "name": "snapshotted",
          "type": "bool"
        },
        {
          "components": [
            {
              "internalType": "uint256",
              "name": "balance",
              "type": "uint256"
            },
            {
              "internalType": "uint256",
              "name": "refactoredCount",
              "type": "uint256"
            }
          ],
          "internalType": "struct RefactorCoinageSnapshotStorage.Balance",
          "name": "balance",
          "type": "tuple"
        }
      ],
      "stateMutability": "view",
      "type": "function"
    },
    {
      "inputs": [],
      "name": "_valueAtTotalSupplyLast",
      "outputs": [
        {
          "components": [
            {
              "internalType": "uint256",
              "name": "balance",
              "type": "uint256"
            },
            {
              "internalType": "uint256",
              "name": "refactoredCount",
              "type": "uint256"
            }
          ],
          "internalType": "struct RefactorCoinageSnapshotStorage.Balance",
          "name": "",
          "type": "tuple"
        }
      ],
      "stateMutability": "view",
      "type": "function"
    },
    {
      "inputs": [
        {
          "internalType": "address",
          "name": "",
          "type": "address"
        },
        {
          "internalType": "uint256",
          "name": "",
          "type": "uint256"
        }
      ],
      "name": "accountBalanceIds",
      "outputs": [
        {
          "internalType": "uint256",
          "name": "",
          "type": "uint256"
        }
      ],
      "stateMutability": "view",
      "type": "function"
    },
    {
      "inputs": [
        {
          "internalType": "address",
          "name": "",
          "type": "address"
        },
        {
          "internalType": "uint256",
          "name": "",
          "type": "uint256"
        }
      ],
      "name": "accountBalanceSnapshots",
      "outputs": [
        {
          "internalType": "uint256",
          "name": "balance",
          "type": "uint256"
        },
        {
          "internalType": "uint256",
          "name": "refactoredCount",
          "type": "uint256"
        }
      ],
      "stateMutability": "view",
      "type": "function"
    },
    {
      "inputs": [
        {
          "internalType": "address",
          "name": "account",
          "type": "address"
        }
      ],
      "name": "addAdmin",
      "outputs": [],
      "stateMutability": "nonpayable",
      "type": "function"
    },
    {
      "inputs": [
        {
          "internalType": "address",
          "name": "account",
          "type": "address"
        }
      ],
      "name": "addMinter",
      "outputs": [],
      "stateMutability": "nonpayable",
      "type": "function"
    },
    {
      "inputs": [
        {
          "internalType": "address",
          "name": "account",
          "type": "address"
        }
      ],
      "name": "addOperator",
      "outputs": [],
      "stateMutability": "nonpayable",
      "type": "function"
    },
    {
      "inputs": [
        {
          "internalType": "address",
          "name": "",
          "type": "address"
        }
      ],
      "name": "aliveImplementation",
      "outputs": [
        {
          "internalType": "bool",
          "name": "",
          "type": "bool"
        }
      ],
      "stateMutability": "view",
      "type": "function"
    },
    {
      "inputs": [
        {
          "components": [
            {
              "internalType": "uint256",
              "name": "balance",
              "type": "uint256"
            },
            {
              "internalType": "uint256",
              "name": "refactoredCount",
              "type": "uint256"
            }
          ],
          "internalType": "struct RefactorCoinageSnapshotStorage.Balance",
          "name": "_balance",
          "type": "tuple"
        }
      ],
      "name": "applyFactor",
      "outputs": [
        {
          "internalType": "uint256",
          "name": "amount",
          "type": "uint256"
        }
      ],
      "stateMutability": "view",
      "type": "function"
    },
    {
      "inputs": [
        {
          "internalType": "address",
          "name": "account",
          "type": "address"
        }
      ],
      "name": "balanceOf",
      "outputs": [
        {
          "internalType": "uint256",
          "name": "amount",
          "type": "uint256"
        }
      ],
      "stateMutability": "view",
      "type": "function"
    },
    {
      "inputs": [
        {
          "internalType": "address",
          "name": "account",
          "type": "address"
        },
        {
          "internalType": "uint256",
          "name": "snapshotId",
          "type": "uint256"
        }
      ],
      "name": "balanceOfAt",
      "outputs": [
        {
          "internalType": "uint256",
          "name": "amount",
          "type": "uint256"
        }
      ],
      "stateMutability": "view",
      "type": "function"
    },
    {
      "inputs": [
        {
          "internalType": "uint256",
          "name": "amount",
          "type": "uint256"
        }
      ],
      "name": "burn",
      "outputs": [],
      "stateMutability": "nonpayable",
      "type": "function"
    },
    {
      "inputs": [
        {
          "internalType": "address",
          "name": "account",
          "type": "address"
        },
        {
          "internalType": "uint256",
          "name": "amount",
          "type": "uint256"
        }
      ],
      "name": "burnFrom",
      "outputs": [],
      "stateMutability": "nonpayable",
      "type": "function"
    },
    {
      "inputs": [],
      "name": "decimals",
      "outputs": [
        {
          "internalType": "uint8",
          "name": "",
          "type": "uint8"
        }
      ],
      "stateMutability": "pure",
      "type": "function"
    },
    {
      "inputs": [],
      "name": "factor",
      "outputs": [
        {
          "internalType": "uint256",
          "name": "",
          "type": "uint256"
        }
      ],
      "stateMutability": "view",
      "type": "function"
    },
    {
      "inputs": [
        {
          "internalType": "uint256",
          "name": "",
          "type": "uint256"
        }
      ],
      "name": "factorSnapshotIds",
      "outputs": [
        {
          "internalType": "uint256",
          "name": "",
          "type": "uint256"
        }
      ],
      "stateMutability": "view",
      "type": "function"
    },
    {
      "inputs": [
        {
          "internalType": "uint256",
          "name": "",
          "type": "uint256"
        }
      ],
      "name": "factorSnapshots",
      "outputs": [
        {
          "internalType": "uint256",
          "name": "factor",
          "type": "uint256"
        },
        {
          "internalType": "uint256",
          "name": "refactorCount",
          "type": "uint256"
        }
      ],
      "stateMutability": "view",
      "type": "function"
    },
    {
      "inputs": [
        {
          "internalType": "bytes32",
          "name": "role",
          "type": "bytes32"
        }
      ],
      "name": "getRoleAdmin",
      "outputs": [
        {
          "internalType": "bytes32",
          "name": "",
          "type": "bytes32"
        }
      ],
      "stateMutability": "view",
      "type": "function"
    },
    {
      "inputs": [
        {
          "internalType": "bytes32",
          "name": "role",
          "type": "bytes32"
        },
        {
          "internalType": "address",
          "name": "account",
          "type": "address"
        }
      ],
      "name": "grantRole",
      "outputs": [],
      "stateMutability": "nonpayable",
      "type": "function"
    },
    {
      "inputs": [
        {
          "internalType": "bytes32",
          "name": "role",
          "type": "bytes32"
        },
        {
          "internalType": "address",
          "name": "account",
          "type": "address"
        }
      ],
      "name": "hasRole",
      "outputs": [
        {
          "internalType": "bool",
          "name": "",
          "type": "bool"
        }
      ],
      "stateMutability": "view",
      "type": "function"
    },
    {
      "inputs": [
        {
          "internalType": "string",
          "name": "name_",
          "type": "string"
        },
        {
          "internalType": "string",
          "name": "symbol_",
          "type": "string"
        },
        {
          "internalType": "uint256",
          "name": "factor_",
          "type": "uint256"
        }
      ],
      "name": "initialize",
      "outputs": [],
      "stateMutability": "nonpayable",
      "type": "function"
    },
    {
      "inputs": [
        {
          "internalType": "address",
          "name": "account",
          "type": "address"
        }
      ],
      "name": "isAdmin",
      "outputs": [
        {
          "internalType": "bool",
          "name": "",
          "type": "bool"
        }
      ],
      "stateMutability": "view",
      "type": "function"
    },
    {
      "inputs": [
        {
          "internalType": "address",
          "name": "account",
          "type": "address"
        }
      ],
      "name": "isMinter",
      "outputs": [
        {
          "internalType": "bool",
          "name": "",
          "type": "bool"
        }
      ],
      "stateMutability": "view",
      "type": "function"
    },
    {
      "inputs": [
        {
          "internalType": "address",
          "name": "account",
          "type": "address"
        }
      ],
      "name": "isOperator",
      "outputs": [
        {
          "internalType": "bool",
          "name": "",
          "type": "bool"
        }
      ],
      "stateMutability": "view",
      "type": "function"
    },
    {
      "inputs": [],
      "name": "isOwner",
      "outputs": [
        {
          "internalType": "bool",
          "name": "",
          "type": "bool"
        }
      ],
      "stateMutability": "view",
      "type": "function"
    },
    {
      "inputs": [],
      "name": "lastSnapshotId",
      "outputs": [
        {
          "internalType": "uint256",
          "name": "",
          "type": "uint256"
        }
      ],
      "stateMutability": "view",
      "type": "function"
    },
    {
      "inputs": [
        {
          "internalType": "address",
          "name": "account",
          "type": "address"
        },
        {
          "internalType": "uint256",
          "name": "amount",
          "type": "uint256"
        }
      ],
      "name": "mint",
      "outputs": [
        {
          "internalType": "bool",
          "name": "",
          "type": "bool"
        }
      ],
      "stateMutability": "nonpayable",
      "type": "function"
    },
    {
      "inputs": [],
      "name": "name",
      "outputs": [
        {
          "internalType": "string",
          "name": "",
          "type": "string"
        }
      ],
      "stateMutability": "view",
      "type": "function"
    },
    {
      "inputs": [],
      "name": "pauseProxy",
      "outputs": [
        {
          "internalType": "bool",
          "name": "",
          "type": "bool"
        }
      ],
      "stateMutability": "view",
      "type": "function"
    },
    {
      "inputs": [],
      "name": "progressSnapshotId",
      "outputs": [
        {
          "internalType": "uint256",
          "name": "",
          "type": "uint256"
        }
      ],
      "stateMutability": "view",
      "type": "function"
    },
    {
      "inputs": [
        {
          "internalType": "uint256",
          "name": "",
          "type": "uint256"
        }
      ],
      "name": "proxyImplementation",
      "outputs": [
        {
          "internalType": "address",
          "name": "",
          "type": "address"
        }
      ],
      "stateMutability": "view",
      "type": "function"
    },
    {
      "inputs": [
        {
          "internalType": "address",
          "name": "account",
          "type": "address"
        }
      ],
      "name": "removeAdmin",
      "outputs": [],
      "stateMutability": "nonpayable",
      "type": "function"
    },
    {
      "inputs": [
        {
          "internalType": "address",
          "name": "account",
          "type": "address"
        }
      ],
      "name": "removeMinter",
      "outputs": [],
      "stateMutability": "nonpayable",
      "type": "function"
    },
    {
      "inputs": [
        {
          "internalType": "address",
          "name": "account",
          "type": "address"
        }
      ],
      "name": "removeOperator",
      "outputs": [],
      "stateMutability": "nonpayable",
      "type": "function"
    },
    {
      "inputs": [],
      "name": "renounceMinter",
      "outputs": [],
      "stateMutability": "nonpayable",
      "type": "function"
    },
    {
      "inputs": [],
      "name": "renounceOperator",
      "outputs": [],
      "stateMutability": "nonpayable",
      "type": "function"
    },
    {
      "inputs": [],
      "name": "renounceOwnership",
      "outputs": [],
      "stateMutability": "nonpayable",
      "type": "function"
    },
    {
      "inputs": [
        {
          "internalType": "bytes32",
          "name": "role",
          "type": "bytes32"
        },
        {
          "internalType": "address",
          "name": "account",
          "type": "address"
        }
      ],
      "name": "renounceRole",
      "outputs": [],
      "stateMutability": "nonpayable",
      "type": "function"
    },
    {
      "inputs": [
        {
          "internalType": "address",
          "name": "account",
          "type": "address"
        }
      ],
      "name": "revokeMinter",
      "outputs": [],
      "stateMutability": "nonpayable",
      "type": "function"
    },
    {
      "inputs": [
        {
          "internalType": "address",
          "name": "account",
          "type": "address"
        }
      ],
      "name": "revokeOperator",
      "outputs": [],
      "stateMutability": "nonpayable",
      "type": "function"
    },
    {
      "inputs": [
        {
          "internalType": "bytes32",
          "name": "role",
          "type": "bytes32"
        },
        {
          "internalType": "address",
          "name": "account",
          "type": "address"
        }
      ],
      "name": "revokeRole",
      "outputs": [],
      "stateMutability": "nonpayable",
      "type": "function"
    },
    {
      "inputs": [
        {
          "internalType": "bytes4",
          "name": "",
          "type": "bytes4"
        }
      ],
      "name": "selectorImplementation",
      "outputs": [
        {
          "internalType": "address",
          "name": "",
          "type": "address"
        }
      ],
      "stateMutability": "view",
      "type": "function"
    },
    {
      "inputs": [
        {
          "internalType": "uint256",
          "name": "factor_",
          "type": "uint256"
        }
      ],
      "name": "setFactor",
      "outputs": [
        {
          "internalType": "bool",
          "name": "",
          "type": "bool"
        }
      ],
      "stateMutability": "nonpayable",
      "type": "function"
    },
    {
      "inputs": [],
      "name": "snapshot",
      "outputs": [
        {
          "internalType": "uint256",
          "name": "id",
          "type": "uint256"
        }
      ],
      "stateMutability": "nonpayable",
      "type": "function"
    },
    {
      "inputs": [
        {
          "internalType": "bytes4",
          "name": "interfaceId",
          "type": "bytes4"
        }
      ],
      "name": "supportsInterface",
      "outputs": [
        {
          "internalType": "bool",
          "name": "",
          "type": "bool"
        }
      ],
      "stateMutability": "view",
      "type": "function"
    },
    {
      "inputs": [],
      "name": "symbol",
      "outputs": [
        {
          "internalType": "string",
          "name": "",
          "type": "string"
        }
      ],
      "stateMutability": "view",
      "type": "function"
    },
    {
      "inputs": [],
      "name": "totalSupply",
      "outputs": [
        {
          "internalType": "uint256",
          "name": "amount",
          "type": "uint256"
        }
      ],
      "stateMutability": "view",
      "type": "function"
    },
    {
      "inputs": [
        {
          "internalType": "uint256",
          "name": "snapshotId",
          "type": "uint256"
        }
      ],
      "name": "totalSupplyAt",
      "outputs": [
        {
          "internalType": "uint256",
          "name": "amount",
          "type": "uint256"
        }
      ],
      "stateMutability": "view",
      "type": "function"
    },
    {
      "inputs": [
        {
          "internalType": "uint256",
          "name": "",
          "type": "uint256"
        }
      ],
      "name": "totalSupplySnapshotIds",
      "outputs": [
        {
          "internalType": "uint256",
          "name": "",
          "type": "uint256"
        }
      ],
      "stateMutability": "view",
      "type": "function"
    },
    {
      "inputs": [
        {
          "internalType": "uint256",
          "name": "",
          "type": "uint256"
        }
      ],
      "name": "totalSupplySnapshots",
      "outputs": [
        {
          "internalType": "uint256",
          "name": "balance",
          "type": "uint256"
        },
        {
          "internalType": "uint256",
          "name": "refactoredCount",
          "type": "uint256"
        }
      ],
      "stateMutability": "view",
      "type": "function"
    },
    {
      "inputs": [
        {
          "internalType": "address",
          "name": "newAdmin",
          "type": "address"
        }
      ],
      "name": "transferAdmin",
      "outputs": [],
      "stateMutability": "nonpayable",
      "type": "function"
    },
    {
      "inputs": [
        {
          "internalType": "address",
          "name": "newAdmin",
          "type": "address"
        }
      ],
      "name": "transferOwnership",
      "outputs": [],
      "stateMutability": "nonpayable",
      "type": "function"
    }
  ],
  "bytecode": "0x60806040526b204fce5e3e25026110000000600655600260075534801561002557600080fd5b50612d1f806100356000396000f3fe608060405234801561001057600080fd5b50600436106103b95760003560e01c80636d70f7ae116101f45780639870d7fe1161011a578063b911135f116100ad578063de4c56151161007c578063de4c5615146108e3578063f2fde38b146108f6578063f5b541a614610909578063fad8b32a1461093057600080fd5b8063b911135f1461086d578063cfbd488514610896578063d5391393146108a9578063d547741f146108d057600080fd5b8063ac8a584a116100e9578063ac8a584a14610817578063b119490e1461082a578063b7c246d71461083d578063b7d78b1a1461084657600080fd5b80639870d7fe146107e1578063a15150c5146107f4578063a217fddf146107fc578063aa271e1a1461080457600080fd5b8063837afbc0116101925780639711715a116101615780639711715a146107ab578063981b24d0146107b3578063983b2d56146107c657806398650275146107d957600080fd5b8063837afbc01461072a5780638f32d59b1461073357806391d148541461076a57806395d89b41146107a357600080fd5b8063715018a6116101ce578063715018a6146106e957806375829def146106f157806379cc679014610704578063817e9d311461071757600080fd5b80636d70f7ae146106b057806370480275146106c357806370a08231146106d657600080fd5b8063313ce567116102e4578063550d01a311610277578063614db8b211610246578063614db8b21461066a57806363a8fd891461067d57806369f499b11461068a5780636d628f981461069d57600080fd5b8063550d01a3146105ec57806356fabf681461060f5780635deaecec146106225780636078f8b01461064957600080fd5b80634ee2cd7e116102b35780634ee2cd7e1461057d57806350d2a2761461059057806353b290f6146105d157806354f703f8146105e457600080fd5b8063313ce5671461053557806336568abe1461054457806340c10f191461055757806342966c681461056a57600080fd5b80631785f53c1161035c5780632ab6f8db1161032b5780632ab6f8db146104f25780632d3af710146104fa5780632f2ff15d1461050f5780633092afd51461052257600080fd5b80631785f53c1461049f57806318160ddd146104b4578063248a9ca3146104bc57806324d7806c146104df57600080fd5b8063024c2ddd11610398578063024c2ddd146104105780630461fdc51461043b57806306fdde0314610482578063139770421461049757600080fd5b8062d87a9c146103be57806301f6a80a146103da57806301ffc9a7146103ed575b600080fd5b6103c760075481565b6040519081526020015b60405180910390f35b6103c76103e836600461262a565b610943565b6104006103fb366004612679565b61095d565b60405190151581526020016103d1565b6103c761041e3660046126ba565b600a60209081526000928352604080842090915290825290205481565b61046d6104493660046126ed565b60106020908152600092835260408084209091529082529020805460019091015482565b604080519283526020830191909152016103d1565b61048a610968565b6040516103d1919061273b565b6011546103c7565b6104b26104ad36600461276e565b6109f6565b005b6103c7610a32565b6103c76104ca366004612789565b60009081526005602052604090206001015490565b6104006104ed36600461276e565b610a44565b6104b2610a84565b610502610ab0565b6040516103d191906127a2565b6104b261051d3660046127b9565b610aff565b6104b261053036600461276e565b610b29565b604051601b81526020016103d1565b6104b26105523660046127b9565b610b74565b6104006105653660046126ed565b610c00565b6104b2610578366004612789565b610c9d565b6103c761058b3660046126ed565b610ca7565b6105b961059e366004612679565b6003602052600090815260409020546001600160a01b031681565b6040516001600160a01b0390911681526020016103d1565b6105026105df36600461276e565b610cd8565b6103c7610d63565b6104006105fa36600461276e565b60026020526000908152604090205460ff1681565b6103c761061d366004612789565b610d94565b61046d610630366004612789565b600e602052600090815260409020805460019091015482565b61065c6106573660046127b9565b610db5565b6040516103d19291906127dc565b6103c7610678366004612789565b610f0e565b6000546104009060ff1681565b6103c76106983660046126ed565b610f1e565b61065c6106ab366004612789565b610f4f565b6104006106be36600461276e565b6110b8565b6104b26106d136600461276e565b6110f8565b6103c76106e436600461276e565b611128565b6104b2611136565b6104b26106ff36600461276e565b611166565b6104b26107123660046126ed565b61124f565b610400610725366004612789565b6112e3565b6103c760115481565b3360009081527f05b8ccbb9d4d8fb16ea74ce3c29a41f1b461fbdaff4714a0d9a8eb05499746bc602052604090205460ff16610400565b6104006107783660046127b9565b60009182526005602090815260408084206001600160a01b0393909316845291905290205460ff1690565b61048a6113a9565b6103c76113b6565b6103c76107c1366004612789565b61148f565b6104b26107d436600461276e565b6114be565b6104b261150d565b6104b26107ef36600461276e565b611537565b610502611586565b6103c7600081565b61040061081236600461276e565b6115d5565b6104b261082536600461276e565b611615565b6104b2610838366004612889565b611664565b6103c760065481565b61046d610854366004612789565b600c602052600090815260409020805460019091015482565b6105b961087b366004612789565b6001602052600090815260409020546001600160a01b031681565b6104b26108a436600461276e565b61175f565b6103c77ff0887ba65ee2024ea881d91b74c2450ef19e1557f03bed3ea9f16b037cbe2dc981565b6104b26108de3660046127b9565b6117aa565b61065c6108f1366004612789565b6117cf565b6104b261090436600461276e565b611930565b6103c77f523a704056dcd17bcf83bed8b68c59416dac1119be77755efe3bde0a64e46e0c81565b6104b261093e36600461276e565b61195e565b6000610957826000015183602001516119ad565b92915050565b600061095782611a13565b60088054610975906128f6565b80601f01602080910402602001604051908101604052809291908181526020018280546109a1906128f6565b80156109ee5780601f106109c3576101008083540402835291602001916109ee565b820191906000526020600020905b8154815290600101906020018083116109d157829003601f168201915b505050505081565b6109ff33610a44565b610a245760405162461bcd60e51b8152600401610a1b90612930565b60405180910390fd5b610a2f600082610b74565b50565b6000610a3f6103e8611586565b905090565b6001600160a01b03811660009081527f05b8ccbb9d4d8fb16ea74ce3c29a41f1b461fbdaff4714a0d9a8eb05499746bc602052604081205460ff16610957565b610aae7f523a704056dcd17bcf83bed8b68c59416dac1119be77755efe3bde0a64e46e0c33610b74565b565b6040805180820190915260008082526020820152600d5460009015610ad45750600d545b6000908152600e60209081526040918290208251808401909352805483526001015490820152919050565b600082815260056020526040902060010154610b1a81611a38565b610b248383611a42565b505050565b610b3233610a44565b610b4e5760405162461bcd60e51b8152600401610a1b90612930565b610a2f7ff0887ba65ee2024ea881d91b74c2450ef19e1557f03bed3ea9f16b037cbe2dc9825b6001600160a01b0381163314610bf25760405162461bcd60e51b815260206004820152602f60248201527f416363657373436f6e74726f6c3a2063616e206f6e6c792072656e6f756e636560448201527f20726f6c657320666f722073656c6600000000000000000000000000000000006064820152608401610a1b565b610bfc8282611ae4565b5050565b3360009081527fca0a2f641ec05ca23127d994cf03ffc453db616acae0b86cb56bb95304d06854602052604081205460ff16610c8a5760405162461bcd60e51b815260206004820152602360248201527f41757468436f6e74726f6c3a2043616c6c6572206973206e6f742061206d696e6044820152623a32b960e91b6064820152608401610a1b565b610c948383611b67565b50600192915050565b610a2f3382611d09565b600080610cb48385610db5565b9150506000610cc284610f4f565b915050610ccf8282611f08565b95945050505050565b60408051808201909152600080825260208201526001600160a01b0382166000908152600f602052604081205415610d2557506001600160a01b0382166000908152600f60205260409020545b6001600160a01b0390921660009081526010602090815260408083209483529381529083902083518085019094528054845260010154908301525090565b600080610d6e610ab0565b90508060200151600754610d829190612a65565b8151610d8e9190612a71565b91505090565b600d8181548110610da457600080fd5b600091825260209091200154905081565b6000610dd4604051806040016040528060008152602001600081525090565b83600003610e33576000610de760115490565b1115610e2e5750506001600160a01b038116600090815260106020908152604080832083805282529182902082518084019093528054835260019081015491830191909152905b610f07565b6011548411610f07576001600160a01b0383166000908152600f60205260408120610e5e9086611f69565b6001600160a01b0385166000908152600f602052604090205490915015610ec5576001600160a01b03841660009081526010602090815260408083208484528252918290208251808401909352805483526001908101549183019190915293509150610f05565b6001600160a01b03841660009081526010602090815260408083208380528252808320815180830190925280548252600101549181019190915290935091505b505b9250929050565b600b8181548110610da457600080fd5b600f6020528160005260406000208181548110610f3a57600080fd5b90600052602060002001600091509150505481565b6000610f6e604051806040016040528060008152602001600081525090565b82600003610ff4576000610f8160115490565b1115610fef57505060008052600e6020908152604080518082019091527fe710864318d4a32f37d6ce54cb3fadbef648dd12d8dbdf53973564d56b7f881c5481527fe710864318d4a32f37d6ce54cb3fadbef648dd12d8dbdf53973564d56b7f881d54918101919091526001905b915091565b6011548311610fef57600061100a600d85611f69565b600d5490915015611049576000818152600e602090815260409182902082518084019093528054835260019081015491830191909152935091506110b2565b6000808052600e6020908152604080518082019091527fe710864318d4a32f37d6ce54cb3fadbef648dd12d8dbdf53973564d56b7f881c5481527fe710864318d4a32f37d6ce54cb3fadbef648dd12d8dbdf53973564d56b7f881d549181019190915290935091505b50915091565b6001600160a01b03811660009081527f02634a7c777b8129955fe1824eee49ef19dfa96f2f4cb63212492c3d84eb58e6602052604081205460ff16610957565b61110133610a44565b61111d5760405162461bcd60e51b8152600401610a1b90612930565b610a2f600082610aff565b60006109576103e883610cd8565b61113f33610a44565b61115b5760405162461bcd60e51b8152600401610a1b90612930565b610aae600033610b74565b61116f33610a44565b61118b5760405162461bcd60e51b8152600401610a1b90612930565b6001600160a01b0381166111e15760405162461bcd60e51b815260206004820152601860248201527f41636365737369626c653a207a65726f206164647265737300000000000000006044820152606401610a1b565b6001600160a01b03811633036112395760405162461bcd60e51b815260206004820152601660248201527f41636365737369626c653a2073616d652061646d696e000000000000000000006044820152606401610a1b565b611244600082610aff565b610a2f600033610b74565b3360009081527fca0a2f641ec05ca23127d994cf03ffc453db616acae0b86cb56bb95304d06854602052604090205460ff166112d95760405162461bcd60e51b815260206004820152602360248201527f41757468436f6e74726f6c3a2043616c6c6572206973206e6f742061206d696e6044820152623a32b960e91b6064820152608401610a1b565b610bfc8282611d09565b60006112ee33610a44565b61130a5760405162461bcd60e51b8152600401610a1b90612930565b6000611314610ab0565b90506000835b6006548110611345578161132d81612a88565b9250506007548161133e9190612aa1565b905061131a565b6040805180820190915281815260208101839052611362816120b5565b7f29ca2230155ed7b305631c2160bcce185fe471567c0e99ae17de3b6a909a838d8482604051611393929190612ac3565b60405180910390a160019450505050505b919050565b60098054610975906128f6565b3360009081527fca0a2f641ec05ca23127d994cf03ffc453db616acae0b86cb56bb95304d06854602052604081205460ff166114405760405162461bcd60e51b815260206004820152602360248201527f41757468436f6e74726f6c3a2043616c6c6572206973206e6f742061206d696e6044820152623a32b960e91b6064820152608401610a1b565b506011546040518181527fa9753703265e0f229ce5dff377b7451cb17e9480c9dab3b34bea25ab061484d69060200160405180910390a16011805490600061148783612a88565b919050555090565b60008061149b836117cf565b91505060006114a984610f4f565b9150506114b68282611f08565b949350505050565b6114c733610a44565b6114e35760405162461bcd60e51b8152600401610a1b90612930565b610a2f7ff0887ba65ee2024ea881d91b74c2450ef19e1557f03bed3ea9f16b037cbe2dc982610aff565b610aae7ff0887ba65ee2024ea881d91b74c2450ef19e1557f03bed3ea9f16b037cbe2dc933610b74565b61154033610a44565b61155c5760405162461bcd60e51b8152600401610a1b90612930565b610a2f7f523a704056dcd17bcf83bed8b68c59416dac1119be77755efe3bde0a64e46e0c82610aff565b6040805180820190915260008082526020820152600b54600090156115aa5750600b545b6000908152600c60209081526040918290208251808401909352805483526001015490820152919050565b6001600160a01b03811660009081527fca0a2f641ec05ca23127d994cf03ffc453db616acae0b86cb56bb95304d06854602052604081205460ff16610957565b61161e33610a44565b61163a5760405162461bcd60e51b8152600401610a1b90612930565b610a2f7f523a704056dcd17bcf83bed8b68c59416dac1119be77755efe3bde0a64e46e0c82610b74565b60008052600e6020527fe710864318d4a32f37d6ce54cb3fadbef648dd12d8dbdf53973564d56b7f881c54156116dc5760405162461bcd60e51b815260206004820152601360248201527f616c726561647920696e697469616c697a6564000000000000000000000000006044820152606401610a1b565b60086116e88482612b37565b5060096116f58382612b37565b506040805180820190915290815260006020808301828152918052600e905290517fe710864318d4a32f37d6ce54cb3fadbef648dd12d8dbdf53973564d56b7f881c55517fe710864318d4a32f37d6ce54cb3fadbef648dd12d8dbdf53973564d56b7f881d555050565b61176833610a44565b6117845760405162461bcd60e51b8152600401610a1b90612930565b610a2f7ff0887ba65ee2024ea881d91b74c2450ef19e1557f03bed3ea9f16b037cbe2dc9825b6000828152600560205260409020600101546117c581611a38565b610b248383611ae4565b60006117ee604051806040016040528060008152602001600081525090565b8260000361187157600061180160115490565b1115610fef5750506000805250600c6020908152604080518082019091527f13649b2456f1b42fef0f0040b3aaeabcd21a76a0f3f5defd4f583839455116e85481527f13649b2456f1b42fef0f0040b3aaeabcd21a76a0f3f5defd4f583839455116e95491810191909152600191565b6011548311610fef576000611887600b85611f69565b600b54909150156118c6576000818152600c602090815260409182902082518084019093528054835260019081015491830191909152935091506110b2565b60008052600c6020908152604080518082019091527f13649b2456f1b42fef0f0040b3aaeabcd21a76a0f3f5defd4f583839455116e85481527f13649b2456f1b42fef0f0040b3aaeabcd21a76a0f3f5defd4f583839455116e95491810191909152915050915091565b61193933610a44565b6119555760405162461bcd60e51b8152600401610a1b90612930565b610a2f81611166565b61196733610a44565b6119835760405162461bcd60e51b8152600401610a1b90612930565b610a2f7f523a704056dcd17bcf83bed8b68c59416dac1119be77755efe3bde0a64e46e0c826117aa565b6000826000036119bf57506000610957565b60006119c9610ab0565b90506119d984826000015161212f565b9350825b8160200151811015611a0a576007546119f69086612a71565b945080611a0281612a88565b9150506119dd565b50929392505050565b60006001600160e01b03198216637965db0b60e01b1480610957575061095782612159565b610a2f8133612195565b60008281526005602090815260408083206001600160a01b038516845290915290205460ff16610bfc5760008281526005602090815260408083206001600160a01b03851684529091529020805460ff19166001179055611aa03390565b6001600160a01b0316816001600160a01b0316837f2f8788117e7eff1d82e926ec794901d17c78024a50270940304540a733656f0d60405160405180910390a45050565b60008281526005602090815260408083206001600160a01b038516845290915290205460ff1615610bfc5760008281526005602090815260408083206001600160a01b0385168085529252808320805460ff1916905551339285917ff6391f5c32d9c69d2a47ea670b442974b53935d1edc7fd64eb21e047a839171b9190a45050565b6001600160a01b038216611be35760405162461bcd60e51b815260206004820152602d60248201527f4175746f5265666163746f72436f696e6167653a206d696e7420746f2074686560448201527f207a65726f2061646472657373000000000000000000000000000000000000006064820152608401610a1b565b6000611bed611586565b90506000611bfa84610cd8565b90506000611c0782610943565b90506000611c1484610943565b90506000611c2a611c258785612bf7565b61220a565b90506000611c3b611c258885612bf7565b6040805180820182528481526020888101518183015282518084019093528383528981015190830152919250611c7582828c60018061221e565b896001600160a01b03167f452b30c947ea249a4a1a2c0410f1780e479e022d06691644108f38c3b3e17c4788848b85604051611cb49493929190612c0a565b60405180910390a26040518981526001600160a01b038b16906000907fddf252ad1be2c89b69c2b068fc378daa952ba7f163c4a11628f55a4df523b3ef9060200160405180910390a350505050505050505050565b6001600160a01b038216611d855760405162461bcd60e51b815260206004820152602f60248201527f4175746f5265666163746f72436f696e6167653a206275726e2066726f6d207460448201527f6865207a65726f206164647265737300000000000000000000000000000000006064820152608401610a1b565b6000611d8f611586565b90506000611d9c84610cd8565b90506000611da982610943565b90506000611db684610943565b9050848210158015611dc85750848110155b611e145760405162461bcd60e51b815260206004820152601460248201527f696e73756666696369656e742062616c616e63650000000000000000000000006044820152606401610a1b565b60006040518060400160405280611e308886611c259190612c51565b81526020018560200151815250905060006040518060400160405280611e5b8986611c259190612c51565b81526020888101519101529050611e7682828a60018061221e565b876001600160a01b03167f452b30c947ea249a4a1a2c0410f1780e479e022d06691644108f38c3b3e17c4786848985604051611eb59493929190612c0a565b60405180910390a26040518781526000906001600160a01b038a16907fddf252ad1be2c89b69c2b068fc378daa952ba7f163c4a11628f55a4df523b3ef9060200160405180910390a35050505050505050565b81516000908103611f1b57506000610957565b82518251611f29919061212f565b835260208301515b8260200151811015611f60576007548451611f4c9190612a71565b845280611f5881612a88565b915050611f31565b50509051919050565b81546000908103611f7c57506000610957565b82548390611f8c90600190612c51565b81548110611f9c57611f9c612c64565b90600052602060002001548210611fdf5782548390611fbd90600190612c51565b81548110611fcd57611fcd612c64565b90600052602060002001549050610957565b82600081548110611ff257611ff2612c64565b906000526020600020015482101561200c57506000610957565b8254600090819061201f90600190612c51565b90505b8181111561208e57600060026120388484612bf7565b612043906001612bf7565b61204d9190612aa1565b90508486828154811061206257612062612c64565b90600052602060002001541161207a57809250612088565b612085600182612c51565b91505b50612022565b8482815481106120a0576120a0612c64565b90600052602060002001549250505092915050565b60006120c060115490565b905060006120ce600d61238e565b90508181101561210e57600d80546001810182556000919091527fd7b6990105719101dabeb77144f2a3385c8033acd3af97e9423a695e81ad1eb5018290555b506000908152600e6020908152604090912082518155910151600190910155565b60006b033b2e3c9fd0803ce800000061214884846123d0565b6121529190612aa1565b9392505050565b60006301ffc9a760e01b6001600160e01b0319831614806109575750506001600160e01b03191660009081526004602052604090205460ff1690565b60008281526005602090815260408083206001600160a01b038516845290915290205460ff16610bfc576121c881612440565b6121d3836020612452565b6040516020016121e4929190612c7a565b60408051601f198184030181529082905262461bcd60e51b8252610a1b9160040161273b565b600061095782612218610ab0565b516125fb565b600061222960115490565b6001600160a01b0385166000908152600f602052604081209192509061224e9061238e565b9050600061225c600b61238e565b90508415612320576001600160a01b0386166122ba5760405162461bcd60e51b815260206004820152600c60248201527f7a65726f206163636f756e7400000000000000000000000000000000000000006044820152606401610a1b565b828210156122ee576001600160a01b0386166000908152600f60209081526040822080546001810182559083529120018390555b6001600160a01b0386166000908152601060209081526040808320868452825290912089518155908901516001909101555b8315612384578281101561236457600b80546001810182556000919091527f0175b7a638427703f0dbe7bb9bbf987a2551717b34e79f33b5b1008d1fa01db9018390555b6000838152600c6020908152604090912088518155908801516001909101555b5050505050505050565b8054600090156123c857815482906123a890600190612c51565b815481106123b8576123b8612c64565b9060005260206000200154610957565b600092915050565b60008115806123f4575082826123e68183612a71565b92506123f29083612aa1565b145b6109575760405162461bcd60e51b815260206004820152601460248201527f64732d6d6174682d6d756c2d6f766572666c6f770000000000000000000000006044820152606401610a1b565b60606109576001600160a01b03831660145b60606000612461836002612a71565b61246c906002612bf7565b67ffffffffffffffff81111561248457612484612614565b6040519080825280601f01601f1916602001820160405280156124ae576020820181803683370190505b509050600360fc1b816000815181106124c9576124c9612c64565b60200101906001600160f81b031916908160001a905350600f60fb1b816001815181106124f8576124f8612c64565b60200101906001600160f81b031916908160001a905350600061251c846002612a71565b612527906001612bf7565b90505b60018111156125ac577f303132333435363738396162636465660000000000000000000000000000000085600f166010811061256857612568612c64565b1a60f81b82828151811061257e5761257e612c64565b60200101906001600160f81b031916908160001a90535060049490941c936125a581612cfb565b905061252a565b5083156121525760405162461bcd60e51b815260206004820181905260248201527f537472696e67733a20686578206c656e67746820696e73756666696369656e746044820152606401610a1b565b600081612148846b033b2e3c9fd0803ce80000006123d0565b634e487b7160e01b600052604160045260246000fd5b60006040828403121561263c57600080fd5b6040516040810181811067ffffffffffffffff8211171561265f5761265f612614565b604052823581526020928301359281019290925250919050565b60006020828403121561268b57600080fd5b81356001600160e01b03198116811461215257600080fd5b80356001600160a01b03811681146113a457600080fd5b600080604083850312156126cd57600080fd5b6126d6836126a3565b91506126e4602084016126a3565b90509250929050565b6000806040838503121561270057600080fd5b612709836126a3565b946020939093013593505050565b60005b8381101561273257818101518382015260200161271a565b50506000910152565b602081526000825180602084015261275a816040850160208701612717565b601f01601f19169190910160400192915050565b60006020828403121561278057600080fd5b612152826126a3565b60006020828403121561279b57600080fd5b5035919050565b815181526020808301519082015260408101610957565b600080604083850312156127cc57600080fd5b823591506126e4602084016126a3565b821515815260608101612152602083018480518252602090810151910152565b600082601f83011261280d57600080fd5b813567ffffffffffffffff8082111561282857612828612614565b604051601f8301601f19908116603f0116810190828211818310171561285057612850612614565b8160405283815286602085880101111561286957600080fd5b836020870160208301376000602085830101528094505050505092915050565b60008060006060848603121561289e57600080fd5b833567ffffffffffffffff808211156128b657600080fd5b6128c2878388016127fc565b945060208601359150808211156128d857600080fd5b506128e5868287016127fc565b925050604084013590509250925092565b600181811c9082168061290a57607f821691505b60208210810361292a57634e487b7160e01b600052602260045260246000fd5b50919050565b60208082526023908201527f41757468436f6e74726f6c3a2043616c6c6572206973206e6f7420616e20616460408201526236b4b760e91b606082015260800190565b634e487b7160e01b600052601160045260246000fd5b600181815b80851115610f055781600019048211156129aa576129aa612973565b808516156129b757918102915b93841c939080029061298e565b6000826129d357506001610957565b816129e057506000610957565b81600181146129f65760028114612a0057612a1c565b6001915050610957565b60ff841115612a1157612a11612973565b50506001821b610957565b5060208310610133831016604e8410600b8410161715612a3f575081810a610957565b612a498383612989565b8060001904821115612a5d57612a5d612973565b029392505050565b600061215283836129c4565b808202811582820484141761095757610957612973565b600060018201612a9a57612a9a612973565b5060010190565b600082612abe57634e487b7160e01b600052601260045260246000fd5b500490565b825181526020808401518183015282516040830152820151606082015260808101612152565b601f821115610b2457600081815260208120601f850160051c81016020861015612b105750805b601f850160051c820191505b81811015612b2f57828155600101612b1c565b505050505050565b815167ffffffffffffffff811115612b5157612b51612614565b612b6581612b5f84546128f6565b84612ae9565b602080601f831160018114612b9a5760008415612b825750858301515b600019600386901b1c1916600185901b178555612b2f565b600085815260208120601f198616915b82811015612bc957888601518255948401946001909101908401612baa565b5085821015612be75787850151600019600388901b60f8161c191681555b5050505050600190811b01905550565b8082018082111561095757610957612973565b845181526020808601518183015284516040830152848101516060830152835160808301528381015160a0830152825160c083015282015160e08201526101008101610ccf565b8181038181111561095757610957612973565b634e487b7160e01b600052603260045260246000fd5b7f416363657373436f6e74726f6c3a206163636f756e7420000000000000000000815260008351612cb2816017850160208801612717565b7f206973206d697373696e6720726f6c65200000000000000000000000000000006017918401918201528351612cef816028840160208801612717565b01602801949350505050565b600081612d0a57612d0a612973565b50600019019056fea164736f6c6343000813000a",
  "linkReferences": {},
  "deployedLinkReferences": {}
}