{
  "_format": "hh-sol-artifact-1",
  "contractName": "RefactorCoinageSnapshot",
  "sourceName": "contracts/stake/tokens/RefactorCoinageSnapshot.sol",
  "abi": [
    {
      "anonymous": false,
      "inputs": [
        {
          "indexed": true,
          "internalType": "address",
          "name": "account",
          "type": "address"
        },
        {
          "components": [
            {
              "internalType": "uint256",
              "name": "balance",
              "type": "uint256"
            },
            {
              "internalType": "uint256",
              "name": "refactoredCount",
              "type": "uint256"
            }
          ],
          "indexed": false,
          "internalType": "struct RefactorCoinageSnapshotStorage.Balance",
          "name": "oldBalance",
          "type": "tuple"
        },
        {
          "components": [
            {
              "internalType": "uint256",
              "name": "balance",
              "type": "uint256"
            },
            {
              "internalType": "uint256",
              "name": "refactoredCount",
              "type": "uint256"
            }
          ],
          "indexed": false,
          "internalType": "struct RefactorCoinageSnapshotStorage.Balance",
          "name": "newBalance",
          "type": "tuple"
        },
        {
          "components": [
            {
              "internalType": "uint256",
              "name": "balance",
              "type": "uint256"
            },
            {
              "internalType": "uint256",
              "name": "refactoredCount",
              "type": "uint256"
            }
          ],
          "indexed": false,
          "internalType": "struct RefactorCoinageSnapshotStorage.Balance",
          "name": "oldTotalBalance",
          "type": "tuple"
        },
        {
          "components": [
            {
              "internalType": "uint256",
              "name": "balance",
              "type": "uint256"
            },
            {
              "internalType": "uint256",
              "name": "refactoredCount",
              "type": "uint256"
            }
          ],
          "indexed": false,
          "internalType": "struct RefactorCoinageSnapshotStorage.Balance",
          "name": "newTotalBalance",
          "type": "tuple"
        }
      ],
      "name": "ChangedBalance",
      "type": "event"
    },
    {
      "anonymous": false,
      "inputs": [
        {
          "components": [
            {
              "internalType": "uint256",
              "name": "factor",
              "type": "uint256"
            },
            {
              "internalType": "uint256",
              "name": "refactorCount",
              "type": "uint256"
            }
          ],
          "indexed": false,
          "internalType": "struct RefactorCoinageSnapshotStorage.Factor",
          "name": "previous",
          "type": "tuple"
        },
        {
          "components": [
            {
              "internalType": "uint256",
              "name": "factor",
              "type": "uint256"
            },
            {
              "internalType": "uint256",
              "name": "refactorCount",
              "type": "uint256"
            }
          ],
          "indexed": false,
          "internalType": "struct RefactorCoinageSnapshotStorage.Factor",
          "name": "next",
          "type": "tuple"
        }
      ],
      "name": "ChangedFactor",
      "type": "event"
    },
    {
      "anonymous": false,
      "inputs": [
        {
          "indexed": false,
          "internalType": "uint256",
          "name": "previous",
          "type": "uint256"
        },
        {
          "indexed": false,
          "internalType": "uint256",
          "name": "current",
          "type": "uint256"
        },
        {
          "indexed": false,
          "internalType": "uint256",
          "name": "shiftCount",
          "type": "uint256"
        }
      ],
      "name": "FactorSet",
      "type": "event"
    },
    {
      "anonymous": false,
      "inputs": [
        {
          "indexed": true,
          "internalType": "bytes32",
          "name": "role",
          "type": "bytes32"
        },
        {
          "indexed": true,
          "internalType": "bytes32",
          "name": "previousAdminRole",
          "type": "bytes32"
        },
        {
          "indexed": true,
          "internalType": "bytes32",
          "name": "newAdminRole",
          "type": "bytes32"
        }
      ],
      "name": "RoleAdminChanged",
      "type": "event"
    },
    {
      "anonymous": false,
      "inputs": [
        {
          "indexed": true,
          "internalType": "bytes32",
          "name": "role",
          "type": "bytes32"
        },
        {
          "indexed": true,
          "internalType": "address",
          "name": "account",
          "type": "address"
        },
        {
          "indexed": true,
          "internalType": "address",
          "name": "sender",
          "type": "address"
        }
      ],
      "name": "RoleGranted",
      "type": "event"
    },
    {
      "anonymous": false,
      "inputs": [
        {
          "indexed": true,
          "internalType": "bytes32",
          "name": "role",
          "type": "bytes32"
        },
        {
          "indexed": true,
          "internalType": "address",
          "name": "account",
          "type": "address"
        },
        {
          "indexed": true,
          "internalType": "address",
          "name": "sender",
          "type": "address"
        }
      ],
      "name": "RoleRevoked",
      "type": "event"
    },
    {
      "anonymous": false,
      "inputs": [
        {
          "indexed": false,
          "internalType": "uint256",
          "name": "id",
          "type": "uint256"
        }
      ],
      "name": "Snapshotted",
      "type": "event"
    },
    {
      "anonymous": false,
      "inputs": [
        {
          "indexed": true,
          "internalType": "address",
          "name": "from",
          "type": "address"
        },
        {
          "indexed": true,
          "internalType": "address",
          "name": "to",
          "type": "address"
        },
        {
          "indexed": false,
          "internalType": "uint256",
          "name": "value",
          "type": "uint256"
        }
      ],
      "name": "Transfer",
      "type": "event"
    },
    {
      "inputs": [],
      "name": "DEFAULT_ADMIN_ROLE",
      "outputs": [
        {
          "internalType": "bytes32",
          "name": "",
          "type": "bytes32"
        }
      ],
      "stateMutability": "view",
      "type": "function"
    },
    {
      "inputs": [],
      "name": "MINTER_ROLE",
      "outputs": [
        {
          "internalType": "bytes32",
          "name": "",
          "type": "bytes32"
        }
      ],
      "stateMutability": "view",
      "type": "function"
    },
    {
      "inputs": [],
      "name": "OPERATOR_ROLE",
      "outputs": [
        {
          "internalType": "bytes32",
          "name": "",
          "type": "bytes32"
        }
      ],
      "stateMutability": "view",
      "type": "function"
    },
    {
      "inputs": [],
      "name": "REFACTOR_BOUNDARY",
      "outputs": [
        {
          "internalType": "uint256",
          "name": "",
          "type": "uint256"
        }
      ],
      "stateMutability": "view",
      "type": "function"
    },
    {
      "inputs": [],
      "name": "REFACTOR_DIVIDER",
      "outputs": [
        {
          "internalType": "uint256",
          "name": "",
          "type": "uint256"
        }
      ],
      "stateMutability": "view",
      "type": "function"
    },
    {
      "inputs": [
        {
          "internalType": "address",
          "name": "",
          "type": "address"
        },
        {
          "internalType": "address",
          "name": "",
          "type": "address"
        }
      ],
      "name": "_allowances",
      "outputs": [
        {
          "internalType": "uint256",
          "name": "",
          "type": "uint256"
        }
      ],
      "stateMutability": "view",
      "type": "function"
    },
    {
      "inputs": [
        {
          "internalType": "address",
          "name": "",
          "type": "address"
        },
        {
          "internalType": "uint256",
          "name": "",
          "type": "uint256"
        }
      ],
      "name": "accountBalanceIds",
      "outputs": [
        {
          "internalType": "uint256",
          "name": "",
          "type": "uint256"
        }
      ],
      "stateMutability": "view",
      "type": "function"
    },
    {
      "inputs": [
        {
          "internalType": "address",
          "name": "",
          "type": "address"
        },
        {
          "internalType": "uint256",
          "name": "",
          "type": "uint256"
        }
      ],
      "name": "accountBalanceSnapshots",
      "outputs": [
        {
          "internalType": "uint256",
          "name": "balance",
          "type": "uint256"
        },
        {
          "internalType": "uint256",
          "name": "refactoredCount",
          "type": "uint256"
        }
      ],
      "stateMutability": "view",
      "type": "function"
    },
    {
      "inputs": [
        {
          "internalType": "address",
          "name": "account",
          "type": "address"
        }
      ],
      "name": "addAdmin",
      "outputs": [],
      "stateMutability": "nonpayable",
      "type": "function"
    },
    {
      "inputs": [
        {
          "internalType": "address",
          "name": "account",
          "type": "address"
        }
      ],
      "name": "addMinter",
      "outputs": [],
      "stateMutability": "nonpayable",
      "type": "function"
    },
    {
      "inputs": [
        {
          "internalType": "address",
          "name": "account",
          "type": "address"
        }
      ],
      "name": "addOperator",
      "outputs": [],
      "stateMutability": "nonpayable",
      "type": "function"
    },
    {
      "inputs": [
        {
          "internalType": "address",
          "name": "",
          "type": "address"
        }
      ],
      "name": "aliveImplementation",
      "outputs": [
        {
          "internalType": "bool",
          "name": "",
          "type": "bool"
        }
      ],
      "stateMutability": "view",
      "type": "function"
    },
    {
      "inputs": [
        {
          "components": [
            {
              "internalType": "uint256",
              "name": "balance",
              "type": "uint256"
            },
            {
              "internalType": "uint256",
              "name": "refactoredCount",
              "type": "uint256"
            }
          ],
          "internalType": "struct RefactorCoinageSnapshotStorage.Balance",
          "name": "_balance",
          "type": "tuple"
        }
      ],
      "name": "applyFactor",
      "outputs": [
        {
          "internalType": "uint256",
          "name": "amount",
          "type": "uint256"
        }
      ],
      "stateMutability": "view",
      "type": "function"
    },
    {
      "inputs": [
        {
          "internalType": "address",
          "name": "account",
          "type": "address"
        }
      ],
      "name": "balanceOf",
      "outputs": [
        {
          "internalType": "uint256",
          "name": "amount",
          "type": "uint256"
        }
      ],
      "stateMutability": "view",
      "type": "function"
    },
    {
      "inputs": [
        {
          "internalType": "address",
          "name": "account",
          "type": "address"
        },
        {
          "internalType": "uint256",
          "name": "snapshotId",
          "type": "uint256"
        }
      ],
      "name": "balanceOfAt",
      "outputs": [
        {
          "internalType": "uint256",
          "name": "amount",
          "type": "uint256"
        }
      ],
      "stateMutability": "view",
      "type": "function"
    },
    {
      "inputs": [
        {
          "internalType": "uint256",
          "name": "amount",
          "type": "uint256"
        }
      ],
      "name": "burn",
      "outputs": [],
      "stateMutability": "nonpayable",
      "type": "function"
    },
    {
      "inputs": [
        {
          "internalType": "address",
          "name": "account",
          "type": "address"
        },
        {
          "internalType": "uint256",
          "name": "amount",
          "type": "uint256"
        }
      ],
      "name": "burnFrom",
      "outputs": [],
      "stateMutability": "nonpayable",
      "type": "function"
    },
    {
      "inputs": [],
      "name": "decimals",
      "outputs": [
        {
          "internalType": "uint8",
          "name": "",
          "type": "uint8"
        }
      ],
      "stateMutability": "view",
      "type": "function"
    },
    {
      "inputs": [],
      "name": "factor",
      "outputs": [
        {
          "internalType": "uint256",
          "name": "",
          "type": "uint256"
        }
      ],
      "stateMutability": "view",
      "type": "function"
    },
    {
      "inputs": [
        {
          "internalType": "uint256",
          "name": "",
          "type": "uint256"
        }
      ],
      "name": "factorSnapshotIds",
      "outputs": [
        {
          "internalType": "uint256",
          "name": "",
          "type": "uint256"
        }
      ],
      "stateMutability": "view",
      "type": "function"
    },
    {
      "inputs": [
        {
          "internalType": "uint256",
          "name": "",
          "type": "uint256"
        }
      ],
      "name": "factorSnapshots",
      "outputs": [
        {
          "internalType": "uint256",
          "name": "factor",
          "type": "uint256"
        },
        {
          "internalType": "uint256",
          "name": "refactorCount",
          "type": "uint256"
        }
      ],
      "stateMutability": "view",
      "type": "function"
    },
    {
      "inputs": [
        {
          "internalType": "bytes32",
          "name": "role",
          "type": "bytes32"
        }
      ],
      "name": "getRoleAdmin",
      "outputs": [
        {
          "internalType": "bytes32",
          "name": "",
          "type": "bytes32"
        }
      ],
      "stateMutability": "view",
      "type": "function"
    },
    {
      "inputs": [
        {
          "internalType": "bytes32",
          "name": "role",
          "type": "bytes32"
        },
        {
          "internalType": "address",
          "name": "account",
          "type": "address"
        }
      ],
      "name": "grantRole",
      "outputs": [],
      "stateMutability": "nonpayable",
      "type": "function"
    },
    {
      "inputs": [
        {
          "internalType": "bytes32",
          "name": "role",
          "type": "bytes32"
        },
        {
          "internalType": "address",
          "name": "account",
          "type": "address"
        }
      ],
      "name": "hasRole",
      "outputs": [
        {
          "internalType": "bool",
          "name": "",
          "type": "bool"
        }
      ],
      "stateMutability": "view",
      "type": "function"
    },
    {
      "inputs": [
        {
          "internalType": "string",
          "name": "name_",
          "type": "string"
        },
        {
          "internalType": "string",
          "name": "symbol_",
          "type": "string"
        },
        {
          "internalType": "uint256",
          "name": "factor_",
          "type": "uint256"
        }
      ],
      "name": "initialize",
      "outputs": [],
      "stateMutability": "nonpayable",
      "type": "function"
    },
    {
      "inputs": [
        {
          "internalType": "address",
          "name": "account",
          "type": "address"
        }
      ],
      "name": "isAdmin",
      "outputs": [
        {
          "internalType": "bool",
          "name": "",
          "type": "bool"
        }
      ],
      "stateMutability": "view",
      "type": "function"
    },
    {
      "inputs": [
        {
          "internalType": "address",
          "name": "account",
          "type": "address"
        }
      ],
      "name": "isMinter",
      "outputs": [
        {
          "internalType": "bool",
          "name": "",
          "type": "bool"
        }
      ],
      "stateMutability": "view",
      "type": "function"
    },
    {
      "inputs": [
        {
          "internalType": "address",
          "name": "account",
          "type": "address"
        }
      ],
      "name": "isOperator",
      "outputs": [
        {
          "internalType": "bool",
          "name": "",
          "type": "bool"
        }
      ],
      "stateMutability": "view",
      "type": "function"
    },
    {
      "inputs": [],
      "name": "isOwner",
      "outputs": [
        {
          "internalType": "bool",
          "name": "",
          "type": "bool"
        }
      ],
      "stateMutability": "view",
      "type": "function"
    },
    {
      "inputs": [],
      "name": "lastSnapshotId",
      "outputs": [
        {
          "internalType": "uint256",
          "name": "",
          "type": "uint256"
        }
      ],
      "stateMutability": "view",
      "type": "function"
    },
    {
      "inputs": [
        {
          "internalType": "address",
          "name": "account",
          "type": "address"
        },
        {
          "internalType": "uint256",
          "name": "amount",
          "type": "uint256"
        }
      ],
      "name": "mint",
      "outputs": [
        {
          "internalType": "bool",
          "name": "",
          "type": "bool"
        }
      ],
      "stateMutability": "nonpayable",
      "type": "function"
    },
    {
      "inputs": [],
      "name": "name",
      "outputs": [
        {
          "internalType": "string",
          "name": "",
          "type": "string"
        }
      ],
      "stateMutability": "view",
      "type": "function"
    },
    {
      "inputs": [],
      "name": "pauseProxy",
      "outputs": [
        {
          "internalType": "bool",
          "name": "",
          "type": "bool"
        }
      ],
      "stateMutability": "view",
      "type": "function"
    },
    {
      "inputs": [],
      "name": "progressSnapshotId",
      "outputs": [
        {
          "internalType": "uint256",
          "name": "",
          "type": "uint256"
        }
      ],
      "stateMutability": "view",
      "type": "function"
    },
    {
      "inputs": [
        {
          "internalType": "uint256",
          "name": "",
          "type": "uint256"
        }
      ],
      "name": "proxyImplementation",
      "outputs": [
        {
          "internalType": "address",
          "name": "",
          "type": "address"
        }
      ],
      "stateMutability": "view",
      "type": "function"
    },
    {
      "inputs": [
        {
          "internalType": "address",
          "name": "account",
          "type": "address"
        }
      ],
      "name": "removeAdmin",
      "outputs": [],
      "stateMutability": "nonpayable",
      "type": "function"
    },
    {
      "inputs": [
        {
          "internalType": "address",
          "name": "account",
          "type": "address"
        }
      ],
      "name": "removeMinter",
      "outputs": [],
      "stateMutability": "nonpayable",
      "type": "function"
    },
    {
      "inputs": [
        {
          "internalType": "address",
          "name": "account",
          "type": "address"
        }
      ],
      "name": "removeOperator",
      "outputs": [],
      "stateMutability": "nonpayable",
      "type": "function"
    },
    {
      "inputs": [],
      "name": "renounceMinter",
      "outputs": [],
      "stateMutability": "nonpayable",
      "type": "function"
    },
    {
      "inputs": [],
      "name": "renounceOperator",
      "outputs": [],
      "stateMutability": "nonpayable",
      "type": "function"
    },
    {
      "inputs": [],
      "name": "renounceOwnership",
      "outputs": [],
      "stateMutability": "nonpayable",
      "type": "function"
    },
    {
      "inputs": [
        {
          "internalType": "bytes32",
          "name": "role",
          "type": "bytes32"
        },
        {
          "internalType": "address",
          "name": "account",
          "type": "address"
        }
      ],
      "name": "renounceRole",
      "outputs": [],
      "stateMutability": "nonpayable",
      "type": "function"
    },
    {
      "inputs": [
        {
          "internalType": "address",
          "name": "account",
          "type": "address"
        }
      ],
      "name": "revokeMinter",
      "outputs": [],
      "stateMutability": "nonpayable",
      "type": "function"
    },
    {
      "inputs": [
        {
          "internalType": "address",
          "name": "account",
          "type": "address"
        }
      ],
      "name": "revokeOperator",
      "outputs": [],
      "stateMutability": "nonpayable",
      "type": "function"
    },
    {
      "inputs": [
        {
          "internalType": "bytes32",
          "name": "role",
          "type": "bytes32"
        },
        {
          "internalType": "address",
          "name": "account",
          "type": "address"
        }
      ],
      "name": "revokeRole",
      "outputs": [],
      "stateMutability": "nonpayable",
      "type": "function"
    },
    {
      "inputs": [
        {
          "internalType": "bytes4",
          "name": "",
          "type": "bytes4"
        }
      ],
      "name": "selectorImplementation",
      "outputs": [
        {
          "internalType": "address",
          "name": "",
          "type": "address"
        }
      ],
      "stateMutability": "view",
      "type": "function"
    },
    {
      "inputs": [
        {
          "internalType": "uint256",
          "name": "factor_",
          "type": "uint256"
        }
      ],
      "name": "setFactor",
      "outputs": [
        {
          "internalType": "bool",
          "name": "",
          "type": "bool"
        }
      ],
      "stateMutability": "nonpayable",
      "type": "function"
    },
    {
      "inputs": [],
      "name": "snapshot",
      "outputs": [
        {
          "internalType": "uint256",
          "name": "id",
          "type": "uint256"
        }
      ],
      "stateMutability": "nonpayable",
      "type": "function"
    },
    {
      "inputs": [
        {
          "internalType": "bytes4",
          "name": "interfaceId",
          "type": "bytes4"
        }
      ],
      "name": "supportsInterface",
      "outputs": [
        {
          "internalType": "bool",
          "name": "",
          "type": "bool"
        }
      ],
      "stateMutability": "view",
      "type": "function"
    },
    {
      "inputs": [],
      "name": "symbol",
      "outputs": [
        {
          "internalType": "string",
          "name": "",
          "type": "string"
        }
      ],
      "stateMutability": "view",
      "type": "function"
    },
    {
      "inputs": [],
      "name": "totalSupply",
      "outputs": [
        {
          "internalType": "uint256",
          "name": "amount",
          "type": "uint256"
        }
      ],
      "stateMutability": "view",
      "type": "function"
    },
    {
      "inputs": [
        {
          "internalType": "uint256",
          "name": "snapshotId",
          "type": "uint256"
        }
      ],
      "name": "totalSupplyAt",
      "outputs": [
        {
          "internalType": "uint256",
          "name": "amount",
          "type": "uint256"
        }
      ],
      "stateMutability": "view",
      "type": "function"
    },
    {
      "inputs": [
        {
          "internalType": "uint256",
          "name": "",
          "type": "uint256"
        }
      ],
      "name": "totalSupplySnapshotIds",
      "outputs": [
        {
          "internalType": "uint256",
          "name": "",
          "type": "uint256"
        }
      ],
      "stateMutability": "view",
      "type": "function"
    },
    {
      "inputs": [
        {
          "internalType": "uint256",
          "name": "",
          "type": "uint256"
        }
      ],
      "name": "totalSupplySnapshots",
      "outputs": [
        {
          "internalType": "uint256",
          "name": "balance",
          "type": "uint256"
        },
        {
          "internalType": "uint256",
          "name": "refactoredCount",
          "type": "uint256"
        }
      ],
      "stateMutability": "view",
      "type": "function"
    },
    {
      "inputs": [
        {
          "internalType": "address",
          "name": "newAdmin",
          "type": "address"
        }
      ],
      "name": "transferAdmin",
      "outputs": [],
      "stateMutability": "nonpayable",
      "type": "function"
    },
    {
      "inputs": [
        {
          "internalType": "address",
          "name": "newAdmin",
          "type": "address"
        }
      ],
      "name": "transferOwnership",
      "outputs": [],
      "stateMutability": "nonpayable",
      "type": "function"
    }
  ],
  "bytecode": "0x60806040526b204fce5e3e25026110000000600655600260075534801561002557600080fd5b50612c2f806100356000396000f3fe608060405234801561001057600080fd5b50600436106103775760003560e01c806370480275116101d35780639870d7fe11610104578063b911135f116100a2578063d547741f1161007c578063d547741f1461082a578063f2fde38b1461083d578063f5b541a614610850578063fad8b32a1461087757600080fd5b8063b911135f146107c7578063cfbd4885146107f0578063d53913931461080357600080fd5b8063ac8a584a116100de578063ac8a584a14610771578063b119490e14610784578063b7c246d714610797578063b7d78b1a146107a057600080fd5b80639870d7fe14610743578063a217fddf14610756578063aa271e1a1461075e57600080fd5b80638f32d59b116101715780639711715a1161014b5780639711715a1461070d578063981b24d014610715578063983b2d5614610728578063986502751461073b57600080fd5b80638f32d59b1461069557806391d14854146106cc57806395d89b411461070557600080fd5b806375829def116101ad57806375829def1461065357806379cc679014610666578063817e9d3114610679578063837afbc01461068c57600080fd5b8063704802751461062557806370a0823114610638578063715018a61461064b57600080fd5b8063313ce567116102ad578063550d01a31161024b578063614db8b211610225578063614db8b2146105df57806363a8fd89146105f257806369f499b1146105ff5780636d70f7ae1461061257600080fd5b8063550d01a31461058257806356fabf68146105a55780635deaecec146105b857600080fd5b806342966c681161028757806342966c68146105135780634ee2cd7e1461052657806350d2a2761461053957806354f703f81461057a57600080fd5b8063313ce567146104de57806336568abe146104ed57806340c10f191461050057600080fd5b80631785f53c1161031a57806324d7806c116102f457806324d7806c1461049d5780632ab6f8db146104b05780632f2ff15d146104b85780633092afd5146104cb57600080fd5b80631785f53c1461045d57806318160ddd14610472578063248a9ca31461047a57600080fd5b8063024c2ddd11610356578063024c2ddd146103ce5780630461fdc5146103f957806306fdde0314610440578063139770421461045557600080fd5b8062d87a9c1461037c57806301f6a80a1461039857806301ffc9a7146103ab575b600080fd5b61038560075481565b6040519081526020015b60405180910390f35b6103856103a6366004612571565b61088a565b6103be6103b93660046125c0565b6108a4565b604051901515815260200161038f565b6103856103dc366004612601565b600a60209081526000928352604080842090915290825290205481565b61042b610407366004612634565b60106020908152600092835260408084209091529082529020805460019091015482565b6040805192835260208301919091520161038f565b6104486108af565b60405161038f9190612682565b601154610385565b61047061046b3660046126b5565b61093d565b005b610385610979565b6103856104883660046126d0565b60009081526005602052604090206001015490565b6103be6104ab3660046126b5565b61098b565b6104706109cb565b6104706104c63660046126e9565b6109f7565b6104706104d93660046126b5565b610a21565b604051601b815260200161038f565b6104706104fb3660046126e9565b610a6c565b6103be61050e366004612634565b610af8565b6104706105213660046126d0565b610b95565b610385610534366004612634565b610b9f565b6105626105473660046125c0565b6003602052600090815260409020546001600160a01b031681565b6040516001600160a01b03909116815260200161038f565b610385610bd0565b6103be6105903660046126b5565b60026020526000908152604090205460ff1681565b6103856105b33660046126d0565b610c01565b61042b6105c63660046126d0565b600e602052600090815260409020805460019091015482565b6103856105ed3660046126d0565b610c22565b6000546103be9060ff1681565b61038561060d366004612634565b610c32565b6103be6106203660046126b5565b610c63565b6104706106333660046126b5565b610ca3565b6103856106463660046126b5565b610cd3565b610470610ce1565b6104706106613660046126b5565b610d11565b610470610674366004612634565b610dfa565b6103be6106873660046126d0565b610e8e565b61038560115481565b3360009081527f05b8ccbb9d4d8fb16ea74ce3c29a41f1b461fbdaff4714a0d9a8eb05499746bc602052604090205460ff166103be565b6103be6106da3660046126e9565b60009182526005602090815260408084206001600160a01b0393909316845291905290205460ff1690565b610448610f54565b610385610f61565b6103856107233660046126d0565b61103a565b6104706107363660046126b5565b611069565b6104706110b8565b6104706107513660046126b5565b6110e2565b610385600081565b6103be61076c3660046126b5565b611131565b61047061077f3660046126b5565b611171565b610470610792366004612799565b6111c0565b61038560065481565b61042b6107ae3660046126d0565b600c602052600090815260409020805460019091015482565b6105626107d53660046126d0565b6001602052600090815260409020546001600160a01b031681565b6104706107fe3660046126b5565b6112bb565b6103857ff0887ba65ee2024ea881d91b74c2450ef19e1557f03bed3ea9f16b037cbe2dc981565b6104706108383660046126e9565b611306565b61047061084b3660046126b5565b61132b565b6103857f523a704056dcd17bcf83bed8b68c59416dac1119be77755efe3bde0a64e46e0c81565b6104706108853660046126b5565b611359565b600061089e826000015183602001516113a8565b92915050565b600061089e8261140e565b600880546108bc90612806565b80601f01602080910402602001604051908101604052809291908181526020018280546108e890612806565b80156109355780601f1061090a57610100808354040283529160200191610935565b820191906000526020600020905b81548152906001019060200180831161091857829003601f168201915b505050505081565b6109463361098b565b61096b5760405162461bcd60e51b815260040161096290612840565b60405180910390fd5b610976600082610a6c565b50565b60006109866103a6611433565b905090565b6001600160a01b03811660009081527f05b8ccbb9d4d8fb16ea74ce3c29a41f1b461fbdaff4714a0d9a8eb05499746bc602052604081205460ff1661089e565b6109f57f523a704056dcd17bcf83bed8b68c59416dac1119be77755efe3bde0a64e46e0c33610a6c565b565b600082815260056020526040902060010154610a1281611482565b610a1c838361148c565b505050565b610a2a3361098b565b610a465760405162461bcd60e51b815260040161096290612840565b6109767ff0887ba65ee2024ea881d91b74c2450ef19e1557f03bed3ea9f16b037cbe2dc9825b6001600160a01b0381163314610aea5760405162461bcd60e51b815260206004820152602f60248201527f416363657373436f6e74726f6c3a2063616e206f6e6c792072656e6f756e636560448201527f20726f6c657320666f722073656c6600000000000000000000000000000000006064820152608401610962565b610af4828261152e565b5050565b3360009081527fca0a2f641ec05ca23127d994cf03ffc453db616acae0b86cb56bb95304d06854602052604081205460ff16610b825760405162461bcd60e51b815260206004820152602360248201527f41757468436f6e74726f6c3a2043616c6c6572206973206e6f742061206d696e6044820152623a32b960e91b6064820152608401610962565b610b8c83836115b1565b50600192915050565b6109763382611753565b600080610bac8385611952565b9150506000610bba84611aab565b915050610bc78282611c14565b95945050505050565b600080610bdb611c75565b90508060200151600754610bef9190612975565b8151610bfb9190612981565b91505090565b600d8181548110610c1157600080fd5b600091825260209091200154905081565b600b8181548110610c1157600080fd5b600f6020528160005260406000208181548110610c4e57600080fd5b90600052602060002001600091509150505481565b6001600160a01b03811660009081527f02634a7c777b8129955fe1824eee49ef19dfa96f2f4cb63212492c3d84eb58e6602052604081205460ff1661089e565b610cac3361098b565b610cc85760405162461bcd60e51b815260040161096290612840565b6109766000826109f7565b600061089e6103a683611cc4565b610cea3361098b565b610d065760405162461bcd60e51b815260040161096290612840565b6109f5600033610a6c565b610d1a3361098b565b610d365760405162461bcd60e51b815260040161096290612840565b6001600160a01b038116610d8c5760405162461bcd60e51b815260206004820152601860248201527f41636365737369626c653a207a65726f206164647265737300000000000000006044820152606401610962565b6001600160a01b0381163303610de45760405162461bcd60e51b815260206004820152601660248201527f41636365737369626c653a2073616d652061646d696e000000000000000000006044820152606401610962565b610def6000826109f7565b610976600033610a6c565b3360009081527fca0a2f641ec05ca23127d994cf03ffc453db616acae0b86cb56bb95304d06854602052604090205460ff16610e845760405162461bcd60e51b815260206004820152602360248201527f41757468436f6e74726f6c3a2043616c6c6572206973206e6f742061206d696e6044820152623a32b960e91b6064820152608401610962565b610af48282611753565b6000610e993361098b565b610eb55760405162461bcd60e51b815260040161096290612840565b6000610ebf611c75565b90506000835b6006548110610ef05781610ed881612998565b92505060075481610ee991906129b1565b9050610ec5565b6040805180820190915281815260208101839052610f0d81611d4f565b7f29ca2230155ed7b305631c2160bcce185fe471567c0e99ae17de3b6a909a838d8482604051610f3e9291906129d3565b60405180910390a160019450505050505b919050565b600980546108bc90612806565b3360009081527fca0a2f641ec05ca23127d994cf03ffc453db616acae0b86cb56bb95304d06854602052604081205460ff16610feb5760405162461bcd60e51b815260206004820152602360248201527f41757468436f6e74726f6c3a2043616c6c6572206973206e6f742061206d696e6044820152623a32b960e91b6064820152608401610962565b506011546040518181527fa9753703265e0f229ce5dff377b7451cb17e9480c9dab3b34bea25ab061484d69060200160405180910390a16011805490600061103283612998565b919050555090565b60008061104683611dc9565b915050600061105484611aab565b9150506110618282611c14565b949350505050565b6110723361098b565b61108e5760405162461bcd60e51b815260040161096290612840565b6109767ff0887ba65ee2024ea881d91b74c2450ef19e1557f03bed3ea9f16b037cbe2dc9826109f7565b6109f57ff0887ba65ee2024ea881d91b74c2450ef19e1557f03bed3ea9f16b037cbe2dc933610a6c565b6110eb3361098b565b6111075760405162461bcd60e51b815260040161096290612840565b6109767f523a704056dcd17bcf83bed8b68c59416dac1119be77755efe3bde0a64e46e0c826109f7565b6001600160a01b03811660009081527fca0a2f641ec05ca23127d994cf03ffc453db616acae0b86cb56bb95304d06854602052604081205460ff1661089e565b61117a3361098b565b6111965760405162461bcd60e51b815260040161096290612840565b6109767f523a704056dcd17bcf83bed8b68c59416dac1119be77755efe3bde0a64e46e0c82610a6c565b60008052600e6020527fe710864318d4a32f37d6ce54cb3fadbef648dd12d8dbdf53973564d56b7f881c54156112385760405162461bcd60e51b815260206004820152601360248201527f616c726561647920696e697469616c697a6564000000000000000000000000006044820152606401610962565b60086112448482612a47565b5060096112518382612a47565b506040805180820190915290815260006020808301828152918052600e905290517fe710864318d4a32f37d6ce54cb3fadbef648dd12d8dbdf53973564d56b7f881c55517fe710864318d4a32f37d6ce54cb3fadbef648dd12d8dbdf53973564d56b7f881d555050565b6112c43361098b565b6112e05760405162461bcd60e51b815260040161096290612840565b6109767ff0887ba65ee2024ea881d91b74c2450ef19e1557f03bed3ea9f16b037cbe2dc9825b60008281526005602052604090206001015461132181611482565b610a1c838361152e565b6113343361098b565b6113505760405162461bcd60e51b815260040161096290612840565b61097681610d11565b6113623361098b565b61137e5760405162461bcd60e51b815260040161096290612840565b6109767f523a704056dcd17bcf83bed8b68c59416dac1119be77755efe3bde0a64e46e0c82611306565b6000826000036113ba5750600061089e565b60006113c4611c75565b90506113d4848260000151611f2a565b9350825b8160200151811015611405576007546113f19086612981565b9450806113fd81612998565b9150506113d8565b50929392505050565b60006001600160e01b03198216637965db0b60e01b148061089e575061089e82611f54565b6040805180820190915260008082526020820152600b54600090156114575750600b545b6000908152600c60209081526040918290208251808401909352805483526001015490820152919050565b6109768133611f90565b60008281526005602090815260408083206001600160a01b038516845290915290205460ff16610af45760008281526005602090815260408083206001600160a01b03851684529091529020805460ff191660011790556114ea3390565b6001600160a01b0316816001600160a01b0316837f2f8788117e7eff1d82e926ec794901d17c78024a50270940304540a733656f0d60405160405180910390a45050565b60008281526005602090815260408083206001600160a01b038516845290915290205460ff1615610af45760008281526005602090815260408083206001600160a01b0385168085529252808320805460ff1916905551339285917ff6391f5c32d9c69d2a47ea670b442974b53935d1edc7fd64eb21e047a839171b9190a45050565b6001600160a01b03821661162d5760405162461bcd60e51b815260206004820152602d60248201527f4175746f5265666163746f72436f696e6167653a206d696e7420746f2074686560448201527f207a65726f2061646472657373000000000000000000000000000000000000006064820152608401610962565b6000611637611433565b9050600061164484611cc4565b905060006116518261088a565b9050600061165e8461088a565b9050600061167461166f8785612b07565b612005565b9050600061168561166f8885612b07565b60408051808201825284815260208881015181830152825180840190935283835289810151908301529192506116bf82828c600180612019565b896001600160a01b03167f452b30c947ea249a4a1a2c0410f1780e479e022d06691644108f38c3b3e17c4788848b856040516116fe9493929190612b1a565b60405180910390a26040518981526001600160a01b038b16906000907fddf252ad1be2c89b69c2b068fc378daa952ba7f163c4a11628f55a4df523b3ef9060200160405180910390a350505050505050505050565b6001600160a01b0382166117cf5760405162461bcd60e51b815260206004820152602f60248201527f4175746f5265666163746f72436f696e6167653a206275726e2066726f6d207460448201527f6865207a65726f206164647265737300000000000000000000000000000000006064820152608401610962565b60006117d9611433565b905060006117e684611cc4565b905060006117f38261088a565b905060006118008461088a565b90508482101580156118125750848110155b61185e5760405162461bcd60e51b815260206004820152601460248201527f696e73756666696369656e742062616c616e63650000000000000000000000006044820152606401610962565b6000604051806040016040528061187a888661166f9190612b61565b815260200185602001518152509050600060405180604001604052806118a5898661166f9190612b61565b815260208881015191015290506118c082828a600180612019565b876001600160a01b03167f452b30c947ea249a4a1a2c0410f1780e479e022d06691644108f38c3b3e17c47868489856040516118ff9493929190612b1a565b60405180910390a26040518781526000906001600160a01b038a16907fddf252ad1be2c89b69c2b068fc378daa952ba7f163c4a11628f55a4df523b3ef9060200160405180910390a35050505050505050565b6000611971604051806040016040528060008152602001600081525090565b836000036119d057600061198460115490565b11156119cb5750506001600160a01b038116600090815260106020908152604080832083805282529182902082518084019093528054835260019081015491830191909152905b611aa4565b6011548411611aa4576001600160a01b0383166000908152600f602052604081206119fb9086612189565b6001600160a01b0385166000908152600f602052604090205490915015611a62576001600160a01b03841660009081526010602090815260408083208484528252918290208251808401909352805483526001908101549183019190915293509150611aa2565b6001600160a01b03841660009081526010602090815260408083208380528252808320815180830190925280548252600101549181019190915290935091505b505b9250929050565b6000611aca604051806040016040528060008152602001600081525090565b82600003611b50576000611add60115490565b1115611b4b57505060008052600e6020908152604080518082019091527fe710864318d4a32f37d6ce54cb3fadbef648dd12d8dbdf53973564d56b7f881c5481527fe710864318d4a32f37d6ce54cb3fadbef648dd12d8dbdf53973564d56b7f881d54918101919091526001905b915091565b6011548311611b4b576000611b66600d85612189565b600d5490915015611ba5576000818152600e60209081526040918290208251808401909352805483526001908101549183019190915293509150611c0e565b6000808052600e6020908152604080518082019091527fe710864318d4a32f37d6ce54cb3fadbef648dd12d8dbdf53973564d56b7f881c5481527fe710864318d4a32f37d6ce54cb3fadbef648dd12d8dbdf53973564d56b7f881d549181019190915290935091505b50915091565b81516000908103611c275750600061089e565b82518251611c359190611f2a565b835260208301515b8260200151811015611c6c576007548451611c589190612981565b845280611c6481612998565b915050611c3d565b50509051919050565b6040805180820190915260008082526020820152600d5460009015611c995750600d545b6000908152600e60209081526040918290208251808401909352805483526001015490820152919050565b60408051808201909152600080825260208201526001600160a01b0382166000908152600f602052604081205415611d1157506001600160a01b0382166000908152600f60205260409020545b6001600160a01b0390921660009081526010602090815260408083209483529381529083902083518085019094528054845260010154908301525090565b6000611d5a60115490565b90506000611d68600d6122d5565b905081811015611da857600d80546001810182556000919091527fd7b6990105719101dabeb77144f2a3385c8033acd3af97e9423a695e81ad1eb5018290555b506000908152600e6020908152604090912082518155910151600190910155565b6000611de8604051806040016040528060008152602001600081525090565b82600003611e6b576000611dfb60115490565b1115611b4b5750506000805250600c6020908152604080518082019091527f13649b2456f1b42fef0f0040b3aaeabcd21a76a0f3f5defd4f583839455116e85481527f13649b2456f1b42fef0f0040b3aaeabcd21a76a0f3f5defd4f583839455116e95491810191909152600191565b6011548311611b4b576000611e81600b85612189565b600b5490915015611ec0576000818152600c60209081526040918290208251808401909352805483526001908101549183019190915293509150611c0e565b60008052600c6020908152604080518082019091527f13649b2456f1b42fef0f0040b3aaeabcd21a76a0f3f5defd4f583839455116e85481527f13649b2456f1b42fef0f0040b3aaeabcd21a76a0f3f5defd4f583839455116e95491810191909152915050915091565b60006b033b2e3c9fd0803ce8000000611f438484612317565b611f4d91906129b1565b9392505050565b60006301ffc9a760e01b6001600160e01b03198316148061089e5750506001600160e01b03191660009081526004602052604090205460ff1690565b60008281526005602090815260408083206001600160a01b038516845290915290205460ff16610af457611fc381612387565b611fce836020612399565b604051602001611fdf929190612b74565b60408051601f198184030181529082905262461bcd60e51b825261096291600401612682565b600061089e82612013611c75565b51612542565b600061202460115490565b6001600160a01b0385166000908152600f6020526040812091925090612049906122d5565b90506000612057600b6122d5565b9050841561211b576001600160a01b0386166120b55760405162461bcd60e51b815260206004820152600c60248201527f7a65726f206163636f756e7400000000000000000000000000000000000000006044820152606401610962565b828210156120e9576001600160a01b0386166000908152600f60209081526040822080546001810182559083529120018390555b6001600160a01b0386166000908152601060209081526040808320868452825290912089518155908901516001909101555b831561217f578281101561215f57600b80546001810182556000919091527f0175b7a638427703f0dbe7bb9bbf987a2551717b34e79f33b5b1008d1fa01db9018390555b6000838152600c6020908152604090912088518155908801516001909101555b5050505050505050565b8154600090810361219c5750600061089e565b825483906121ac90600190612b61565b815481106121bc576121bc612bf5565b906000526020600020015482106121ff57825483906121dd90600190612b61565b815481106121ed576121ed612bf5565b9060005260206000200154905061089e565b8260008154811061221257612212612bf5565b906000526020600020015482101561222c5750600061089e565b8254600090819061223f90600190612b61565b90505b818111156122ae57600060026122588484612b07565b612263906001612b07565b61226d91906129b1565b90508486828154811061228257612282612bf5565b90600052602060002001541161229a578092506122a8565b6122a5600182612b61565b91505b50612242565b8482815481106122c0576122c0612bf5565b90600052602060002001549250505092915050565b80546000901561230f57815482906122ef90600190612b61565b815481106122ff576122ff612bf5565b906000526020600020015461089e565b600092915050565b600081158061233b5750828261232d8183612981565b925061233990836129b1565b145b61089e5760405162461bcd60e51b815260206004820152601460248201527f64732d6d6174682d6d756c2d6f766572666c6f770000000000000000000000006044820152606401610962565b606061089e6001600160a01b03831660145b606060006123a8836002612981565b6123b3906002612b07565b67ffffffffffffffff8111156123cb576123cb61255b565b6040519080825280601f01601f1916602001820160405280156123f5576020820181803683370190505b509050600360fc1b8160008151811061241057612410612bf5565b60200101906001600160f81b031916908160001a905350600f60fb1b8160018151811061243f5761243f612bf5565b60200101906001600160f81b031916908160001a9053506000612463846002612981565b61246e906001612b07565b90505b60018111156124f3577f303132333435363738396162636465660000000000000000000000000000000085600f16601081106124af576124af612bf5565b1a60f81b8282815181106124c5576124c5612bf5565b60200101906001600160f81b031916908160001a90535060049490941c936124ec81612c0b565b9050612471565b508315611f4d5760405162461bcd60e51b815260206004820181905260248201527f537472696e67733a20686578206c656e67746820696e73756666696369656e746044820152606401610962565b600081611f43846b033b2e3c9fd0803ce8000000612317565b634e487b7160e01b600052604160045260246000fd5b60006040828403121561258357600080fd5b6040516040810181811067ffffffffffffffff821117156125a6576125a661255b565b604052823581526020928301359281019290925250919050565b6000602082840312156125d257600080fd5b81356001600160e01b031981168114611f4d57600080fd5b80356001600160a01b0381168114610f4f57600080fd5b6000806040838503121561261457600080fd5b61261d836125ea565b915061262b602084016125ea565b90509250929050565b6000806040838503121561264757600080fd5b612650836125ea565b946020939093013593505050565b60005b83811015612679578181015183820152602001612661565b50506000910152565b60208152600082518060208401526126a181604085016020870161265e565b601f01601f19169190910160400192915050565b6000602082840312156126c757600080fd5b611f4d826125ea565b6000602082840312156126e257600080fd5b5035919050565b600080604083850312156126fc57600080fd5b8235915061262b602084016125ea565b600082601f83011261271d57600080fd5b813567ffffffffffffffff808211156127385761273861255b565b604051601f8301601f19908116603f011681019082821181831017156127605761276061255b565b8160405283815286602085880101111561277957600080fd5b836020870160208301376000602085830101528094505050505092915050565b6000806000606084860312156127ae57600080fd5b833567ffffffffffffffff808211156127c657600080fd5b6127d28783880161270c565b945060208601359150808211156127e857600080fd5b506127f58682870161270c565b925050604084013590509250925092565b600181811c9082168061281a57607f821691505b60208210810361283a57634e487b7160e01b600052602260045260246000fd5b50919050565b60208082526023908201527f41757468436f6e74726f6c3a2043616c6c6572206973206e6f7420616e20616460408201526236b4b760e91b606082015260800190565b634e487b7160e01b600052601160045260246000fd5b600181815b80851115611aa25781600019048211156128ba576128ba612883565b808516156128c757918102915b93841c939080029061289e565b6000826128e35750600161089e565b816128f05750600061089e565b816001811461290657600281146129105761292c565b600191505061089e565b60ff84111561292157612921612883565b50506001821b61089e565b5060208310610133831016604e8410600b841016171561294f575081810a61089e565b6129598383612899565b806000190482111561296d5761296d612883565b029392505050565b6000611f4d83836128d4565b808202811582820484141761089e5761089e612883565b6000600182016129aa576129aa612883565b5060010190565b6000826129ce57634e487b7160e01b600052601260045260246000fd5b500490565b825181526020808401518183015282516040830152820151606082015260808101611f4d565b601f821115610a1c57600081815260208120601f850160051c81016020861015612a205750805b601f850160051c820191505b81811015612a3f57828155600101612a2c565b505050505050565b815167ffffffffffffffff811115612a6157612a6161255b565b612a7581612a6f8454612806565b846129f9565b602080601f831160018114612aaa5760008415612a925750858301515b600019600386901b1c1916600185901b178555612a3f565b600085815260208120601f198616915b82811015612ad957888601518255948401946001909101908401612aba565b5085821015612af75787850151600019600388901b60f8161c191681555b5050505050600190811b01905550565b8082018082111561089e5761089e612883565b845181526020808601518183015284516040830152848101516060830152835160808301528381015160a0830152825160c083015282015160e08201526101008101610bc7565b8181038181111561089e5761089e612883565b7f416363657373436f6e74726f6c3a206163636f756e7420000000000000000000815260008351612bac81601785016020880161265e565b7f206973206d697373696e6720726f6c65200000000000000000000000000000006017918401918201528351612be981602884016020880161265e565b01602801949350505050565b634e487b7160e01b600052603260045260246000fd5b600081612c1a57612c1a612883565b50600019019056fea164736f6c6343000813000a",
  "linkReferences": {},
  "deployedLinkReferences": {}
}