{
  "_format": "hh-sol-artifact-1",
  "contractName": "TokenDividendPool",
  "sourceName": "contracts/stake/TokenDividendPool.sol",
  "abi": [
    {
      "anonymous": false,
      "inputs": [
        {
          "indexed": true,
          "internalType": "address",
          "name": "token",
          "type": "address"
        },
        {
          "indexed": false,
          "internalType": "uint256",
          "name": "amount",
          "type": "uint256"
        },
        {
          "indexed": false,
          "internalType": "uint256",
          "name": "snapshotId",
          "type": "uint256"
        }
      ],
      "name": "Claim",
      "type": "event"
    },
    {
      "anonymous": false,
      "inputs": [
        {
          "indexed": true,
          "internalType": "address",
          "name": "token",
          "type": "address"
        },
        {
          "indexed": false,
          "internalType": "uint256",
          "name": "amount",
          "type": "uint256"
        },
        {
          "indexed": false,
          "internalType": "uint256",
          "name": "snapshotId",
          "type": "uint256"
        }
      ],
      "name": "Distribute",
      "type": "event"
    },
    {
      "anonymous": false,
      "inputs": [
        {
          "indexed": true,
          "internalType": "bytes32",
          "name": "role",
          "type": "bytes32"
        },
        {
          "indexed": true,
          "internalType": "bytes32",
          "name": "previousAdminRole",
          "type": "bytes32"
        },
        {
          "indexed": true,
          "internalType": "bytes32",
          "name": "newAdminRole",
          "type": "bytes32"
        }
      ],
      "name": "RoleAdminChanged",
      "type": "event"
    },
    {
      "anonymous": false,
      "inputs": [
        {
          "indexed": true,
          "internalType": "bytes32",
          "name": "role",
          "type": "bytes32"
        },
        {
          "indexed": true,
          "internalType": "address",
          "name": "account",
          "type": "address"
        },
        {
          "indexed": true,
          "internalType": "address",
          "name": "sender",
          "type": "address"
        }
      ],
      "name": "RoleGranted",
      "type": "event"
    },
    {
      "anonymous": false,
      "inputs": [
        {
          "indexed": true,
          "internalType": "bytes32",
          "name": "role",
          "type": "bytes32"
        },
        {
          "indexed": true,
          "internalType": "address",
          "name": "account",
          "type": "address"
        },
        {
          "indexed": true,
          "internalType": "address",
          "name": "sender",
          "type": "address"
        }
      ],
      "name": "RoleRevoked",
      "type": "event"
    },
    {
      "inputs": [],
      "name": "ADMIN_ROLE",
      "outputs": [
        {
          "internalType": "bytes32",
          "name": "",
          "type": "bytes32"
        }
      ],
      "stateMutability": "view",
      "type": "function"
    },
    {
      "inputs": [],
      "name": "BURNER_ROLE",
      "outputs": [
        {
          "internalType": "bytes32",
          "name": "",
          "type": "bytes32"
        }
      ],
      "stateMutability": "view",
      "type": "function"
    },
    {
      "inputs": [],
      "name": "DEFAULT_ADMIN_ROLE",
      "outputs": [
        {
          "internalType": "bytes32",
          "name": "",
          "type": "bytes32"
        }
      ],
      "stateMutability": "view",
      "type": "function"
    },
    {
      "inputs": [],
      "name": "MINTER_ROLE",
      "outputs": [
        {
          "internalType": "bytes32",
          "name": "",
          "type": "bytes32"
        }
      ],
      "stateMutability": "view",
      "type": "function"
    },
    {
      "inputs": [
        {
          "internalType": "address",
          "name": "account",
          "type": "address"
        }
      ],
      "name": "addAdmin",
      "outputs": [],
      "stateMutability": "nonpayable",
      "type": "function"
    },
    {
      "inputs": [
        {
          "internalType": "address",
          "name": "_token",
          "type": "address"
        }
      ],
      "name": "claim",
      "outputs": [],
      "stateMutability": "nonpayable",
      "type": "function"
    },
    {
      "inputs": [
        {
          "internalType": "address[]",
          "name": "_tokens",
          "type": "address[]"
        }
      ],
      "name": "claimBatch",
      "outputs": [],
      "stateMutability": "nonpayable",
      "type": "function"
    },
    {
      "inputs": [
        {
          "internalType": "address",
          "name": "_token",
          "type": "address"
        },
        {
          "internalType": "uint256",
          "name": "_endSnapshotId",
          "type": "uint256"
        }
      ],
      "name": "claimUpTo",
      "outputs": [],
      "stateMutability": "nonpayable",
      "type": "function"
    },
    {
      "inputs": [
        {
          "internalType": "address",
          "name": "_token",
          "type": "address"
        },
        {
          "internalType": "address",
          "name": "_account",
          "type": "address"
        }
      ],
      "name": "claimable",
      "outputs": [
        {
          "internalType": "uint256",
          "name": "",
          "type": "uint256"
        }
      ],
      "stateMutability": "view",
      "type": "function"
    },
    {
      "inputs": [
        {
          "internalType": "address",
          "name": "_token",
          "type": "address"
        },
        {
          "internalType": "address",
          "name": "_account",
          "type": "address"
        },
        {
          "internalType": "uint256",
          "name": "_endSnapshotId",
          "type": "uint256"
        }
      ],
      "name": "claimableUpTo",
      "outputs": [
        {
          "internalType": "uint256",
          "name": "",
          "type": "uint256"
        }
      ],
      "stateMutability": "view",
      "type": "function"
    },
    {
      "inputs": [
        {
          "internalType": "address",
          "name": "_token",
          "type": "address"
        },
        {
          "internalType": "uint256",
          "name": "_amount",
          "type": "uint256"
        }
      ],
      "name": "distribute",
      "outputs": [],
      "stateMutability": "nonpayable",
      "type": "function"
    },
    {
      "inputs": [
        {
          "internalType": "uint256",
          "name": "",
          "type": "uint256"
        }
      ],
      "name": "distributedTokens",
      "outputs": [
        {
          "internalType": "address",
          "name": "",
          "type": "address"
        }
      ],
      "stateMutability": "view",
      "type": "function"
    },
    {
      "inputs": [
        {
          "internalType": "address",
          "name": "",
          "type": "address"
        }
      ],
      "name": "distributions",
      "outputs": [
        {
          "internalType": "bool",
          "name": "exists",
          "type": "bool"
        },
        {
          "internalType": "uint256",
          "name": "totalDistribution",
          "type": "uint256"
        },
        {
          "internalType": "uint256",
          "name": "lastBalance",
          "type": "uint256"
        }
      ],
      "stateMutability": "view",
      "type": "function"
    },
    {
      "inputs": [],
      "name": "erc20DividendAddress",
      "outputs": [
        {
          "internalType": "address",
          "name": "",
          "type": "address"
        }
      ],
      "stateMutability": "view",
      "type": "function"
    },
    {
      "inputs": [
        {
          "internalType": "address",
          "name": "_account",
          "type": "address"
        }
      ],
      "name": "getAvailableClaims",
      "outputs": [
        {
          "internalType": "address[]",
          "name": "claimableTokens",
          "type": "address[]"
        },
        {
          "internalType": "uint256[]",
          "name": "claimableAmounts",
          "type": "uint256[]"
        }
      ],
      "stateMutability": "view",
      "type": "function"
    },
    {
      "inputs": [
        {
          "internalType": "bytes32",
          "name": "role",
          "type": "bytes32"
        }
      ],
      "name": "getRoleAdmin",
      "outputs": [
        {
          "internalType": "bytes32",
          "name": "",
          "type": "bytes32"
        }
      ],
      "stateMutability": "view",
      "type": "function"
    },
    {
      "inputs": [
        {
          "internalType": "bytes32",
          "name": "role",
          "type": "bytes32"
        },
        {
          "internalType": "address",
          "name": "account",
          "type": "address"
        }
      ],
      "name": "grantRole",
      "outputs": [],
      "stateMutability": "nonpayable",
      "type": "function"
    },
    {
      "inputs": [
        {
          "internalType": "bytes32",
          "name": "role",
          "type": "bytes32"
        },
        {
          "internalType": "address",
          "name": "account",
          "type": "address"
        }
      ],
      "name": "hasRole",
      "outputs": [
        {
          "internalType": "bool",
          "name": "",
          "type": "bool"
        }
      ],
      "stateMutability": "view",
      "type": "function"
    },
    {
      "inputs": [
        {
          "internalType": "address",
          "name": "account",
          "type": "address"
        }
      ],
      "name": "isAdmin",
      "outputs": [
        {
          "internalType": "bool",
          "name": "",
          "type": "bool"
        }
      ],
      "stateMutability": "view",
      "type": "function"
    },
    {
      "inputs": [],
      "name": "migratedL2",
      "outputs": [
        {
          "internalType": "bool",
          "name": "",
          "type": "bool"
        }
      ],
      "stateMutability": "view",
      "type": "function"
    },
    {
      "inputs": [],
      "name": "pauseProxy",
      "outputs": [
        {
          "internalType": "bool",
          "name": "",
          "type": "bool"
        }
      ],
      "stateMutability": "view",
      "type": "function"
    },
    {
      "inputs": [
        {
          "internalType": "address",
          "name": "account",
          "type": "address"
        }
      ],
      "name": "removeAdmin",
      "outputs": [],
      "stateMutability": "nonpayable",
      "type": "function"
    },
    {
      "inputs": [
        {
          "internalType": "bytes32",
          "name": "role",
          "type": "bytes32"
        },
        {
          "internalType": "address",
          "name": "account",
          "type": "address"
        }
      ],
      "name": "renounceRole",
      "outputs": [],
      "stateMutability": "nonpayable",
      "type": "function"
    },
    {
      "inputs": [
        {
          "internalType": "bytes32",
          "name": "role",
          "type": "bytes32"
        },
        {
          "internalType": "address",
          "name": "account",
          "type": "address"
        }
      ],
      "name": "revokeRole",
      "outputs": [],
      "stateMutability": "nonpayable",
      "type": "function"
    },
    {
      "inputs": [
        {
          "internalType": "bytes4",
          "name": "interfaceId",
          "type": "bytes4"
        }
      ],
      "name": "supportsInterface",
      "outputs": [
        {
          "internalType": "bool",
          "name": "",
          "type": "bool"
        }
      ],
      "stateMutability": "view",
      "type": "function"
    },
    {
      "inputs": [
        {
          "internalType": "address",
          "name": "_token",
          "type": "address"
        }
      ],
      "name": "totalDistribution",
      "outputs": [
        {
          "internalType": "uint256",
          "name": "",
          "type": "uint256"
        }
      ],
      "stateMutability": "view",
      "type": "function"
    },
    {
      "inputs": [
        {
          "internalType": "address",
          "name": "newAdmin",
          "type": "address"
        }
      ],
      "name": "transferAdmin",
      "outputs": [],
      "stateMutability": "nonpayable",
      "type": "function"
    }
  ],
  "bytecode": "0x6080604052600160035534801561001557600080fd5b50611c55806100256000396000f3fe608060405234801561001057600080fd5b50600436106101795760003560e01c806370480275116100d9578063d4570c1c11610087578063d4570c1c146103b7578063d4abe717146103ca578063d5391393146103dd578063d547741f14610404578063e3ba18a514610417578063f2cf0aca1461042a578063fb9321081461043d57600080fd5b806370480275146102fe57806375829def1461031157806375b238fc1461032457806391d14854146103395780639353b9df1461034c578063a1f5f50e1461039d578063a217fddf146103af57600080fd5b806324d7806c1161013657806324d7806c1461025d578063282c51f3146102705780632f2ff15d1461029757806336568abe146102aa57806337a15503146102bd57806362e40c24146102d057806363a8fd89146102f157600080fd5b806301ffc9a71461017e57806304e44f5d146101a65780630a41dcd6146101e15780631785f53c146102125780631e83409a14610227578063248a9ca31461023a575b600080fd5b61019161018c3660046118d2565b610450565b60405190151581526020015b60405180910390f35b6101d36101b4366004611758565b6001600160a01b03166000908152600160208190526040909120015490565b60405190815260200161019d565b6000546101fa906201000090046001600160a01b031681565b6040516001600160a01b03909116815260200161019d565b610225610220366004611758565b610487565b005b610225610235366004611758565b6104d0565b6101d3610248366004611898565b60009081526004602052604090206001015490565b61019161026b366004611758565b6104f9565b6101d37f9667e80708b6eeeb0053fa0cca44e028ff548e2a9f029edfeac87c118b08b7c881565b6102256102a53660046118b0565b610513565b6102256102b83660046118b0565b61053e565b6101fa6102cb366004611898565b6105bc565b6102e36102de366004611758565b6105e6565b60405161019d929190611981565b6000546101919060ff1681565b61022561030c366004611758565b6108e1565b61022561031f366004611758565b61091e565b6101d3600080516020611c0083398151915281565b6101916103473660046118b0565b610a16565b61038061035a366004611758565b600160208190526000918252604090912080549181015460029091015460ff9092169183565b60408051931515845260208401929092529082015260600161019d565b60005461019190610100900460ff1681565b6101d3600081565b6101d36103c5366004611772565b610a41565b6102256103d8366004611808565b610a8a565b6101d37ff0887ba65ee2024ea881d91b74c2450ef19e1557f03bed3ea9f16b037cbe2dc981565b6102256104123660046118b0565b610add565b6102256104253660046117df565b610b03565b6101d36104383660046117a4565b610b7c565b61022561044b3660046117df565b610c03565b60006001600160e01b03198216637965db0b60e01b148061048157506301ffc9a760e01b6001600160e01b03198316145b92915050565b610490336104f9565b6104b55760405162461bcd60e51b81526004016104ac90611a37565b60405180910390fd5b6104cd600080516020611c008339815191528261053e565b50565b6001600160a01b0381166000908152600160205260409020600501546104cd9082903390610fcd565b6000610481600080516020611c0083398151915283610a16565b60008281526004602052604090206001015461052f8133611146565b61053983836111aa565b505050565b6001600160a01b03811633146105ae5760405162461bcd60e51b815260206004820152602f60248201527f416363657373436f6e74726f6c3a2063616e206f6e6c792072656e6f756e636560448201526e103937b632b9903337b91039b2b63360891b60648201526084016104ac565b6105b88282611230565b5050565b600281815481106105cc57600080fd5b6000918252602090912001546001600160a01b0316905081565b606080600060028054905067ffffffffffffffff81111561061757634e487b7160e01b600052604160045260246000fd5b604051908082528060200260200182016040528015610640578160200160208202803683370190505b5090506000805b60025481101561070a576106906002828154811061067557634e487b7160e01b600052603260045260246000fd5b6000918252602090912001546001600160a01b031687610a41565b8382815181106106b057634e487b7160e01b600052603260045260246000fd5b60200260200101818152505060008382815181106106de57634e487b7160e01b600052603260045260246000fd5b602002602001015111156106fa576106f7600183611b19565b91505b61070381611bce565b9050610647565b508067ffffffffffffffff81111561073257634e487b7160e01b600052604160045260246000fd5b60405190808252806020026020018201604052801561075b578160200160208202803683370190505b5092508067ffffffffffffffff81111561078557634e487b7160e01b600052604160045260246000fd5b6040519080825280602002602001820160405280156107ae578160200160208202803683370190505b5093506000805b6002548110156108d85760008482815181106107e157634e487b7160e01b600052603260045260246000fd5b602002602001015111156108c85783818151811061080f57634e487b7160e01b600052603260045260246000fd5b602002602001015185838151811061083757634e487b7160e01b600052603260045260246000fd5b6020026020010181815250506002818154811061086457634e487b7160e01b600052603260045260246000fd5b9060005260206000200160009054906101000a90046001600160a01b03168683815181106108a257634e487b7160e01b600052603260045260246000fd5b6001600160a01b0390921660209283029190910190910152816108c481611bce565b9250505b6108d181611bce565b90506107b5565b50505050915091565b6108ea336104f9565b6109065760405162461bcd60e51b81526004016104ac90611a37565b6104cd600080516020611c0083398151915282610513565b610927336104f9565b6109435760405162461bcd60e51b81526004016104ac90611a37565b6001600160a01b0381166109945760405162461bcd60e51b815260206004820152601860248201527741636365737369626c653a207a65726f206164647265737360401b60448201526064016104ac565b336001600160a01b03821614156109e65760405162461bcd60e51b815260206004820152601660248201527520b1b1b2b9b9b4b136329d1039b0b6b29030b236b4b760511b60448201526064016104ac565b6109fe600080516020611c0083398151915282610513565b6104cd600080516020611c008339815191523361053e565b60009182526004602090815260408084206001600160a01b0393909316845291905290205460ff1690565b6001600160a01b0380831660009081526001602090815260408083209385168352600484019091528120546005830154919291610a8086868484611297565b9695505050505050565b60005b8181101561053957610acd838383818110610ab857634e487b7160e01b600052603260045260246000fd5b90506020020160208101906102359190611758565b610ad681611bce565b9050610a8d565b600082815260046020526040902060010154610af98133611146565b6105398383611230565b6000610b10833384610b7c565b11610b2d5760405162461bcd60e51b81526004016104ac90611a79565b600080610b3a8484611364565b9150915081610b5b5760405162461bcd60e51b81526004016104ac90611ab0565b6000610b68826001611b19565b9050610b75853383610fcd565b5050505050565b6000806000610b8b8685611364565b9150915081610bac5760405162461bcd60e51b81526004016104ac90611ab0565b6000610bb9826001611b19565b6001600160a01b038089166000908152600160209081526040808320938b1683526004840190915290205491925090610bf489898386611297565b955050505050505b9392505050565b600354600114610c255760405162461bcd60e51b81526004016104ac90611ae7565b600060038190555060008060029054906101000a90046001600160a01b03166001600160a01b03166318160ddd6040518163ffffffff1660e01b815260040160206040518083038186803b158015610c7c57600080fd5b505afa158015610c90573d6000803e3d6000fd5b505050506040513d601f19601f82011682018060405250810190610cb491906118fa565b11610cf85760405162461bcd60e51b8152602060048201526014602482015273546f74616c20537570706c79206973207a65726f60601b60448201526064016104ac565b6001600160a01b0382166000818152600160205260409081902090516323b872dd60e01b8152336004820152306024820152604481018490529091906323b872dd90606401602060405180830381600087803b158015610d5757600080fd5b505af1158015610d6b573d6000803e3d6000fd5b505050506040513d601f19601f82011682018060405250810190610d8f9190611878565b50805460ff16610de557600280546001810182556000919091527f405787fa12a823e0f2b7631cc41b3ba8828b3321ca811111fa75cd3aa3bb5ace0180546001600160a01b0319166001600160a01b0385161790555b6040516370a0823160e01b81523060048201526000906001600160a01b038516906370a082319060240160206040518083038186803b158015610e2757600080fd5b505afa158015610e3b573d6000803e3d6000fd5b505050506040513d601f19601f82011682018060405250810190610e5f91906118fa565b90506000826002015482610e739190611b70565b835460ff19166001908117855560028501849055840154909150610e98908290611b19565b836001018190555060008060029054906101000a90046001600160a01b03166001600160a01b0316639711715a6040518163ffffffff1660e01b8152600401602060405180830381600087803b158015610ef157600080fd5b505af1158015610f05573d6000803e3d6000fd5b505050506040513d601f19601f82011682018060405250810190610f2991906118fa565b6040805160608101825282815260208082018681524283850190815260058a01805460018082018355600092835291859020955160039091029095019485559151918401919091555160029092019190915581518881529081018390529192506001600160a01b038816917f7b6bd1e44b882fc3c6db03de18818ba27f347f200076803dce3e72303b0ca71691015b60405180910390a25050600160035550505050565b600354600114610fef5760405162461bcd60e51b81526004016104ac90611ae7565b600060038190556001600160a01b038085168252600160209081526040808420928616845260048301909152822054909161102c86868487611297565b90506000811161104e5760405162461bcd60e51b81526004016104ac90611a79565b60405163a9059cbb60e01b8152336004820152602481018290526001600160a01b0387169063a9059cbb90604401602060405180830381600087803b15801561109657600080fd5b505af11580156110aa573d6000803e3d6000fd5b505050506040513d601f19601f820116820180604052508101906110ce9190611878565b506001600160a01b03851660009081526004840160205260408120859055600284018054839290611100908490611b70565b909155505060408051828152602081018690526001600160a01b038816917f34fcbac0073d7c3d388e51312faf357774904998eeb8fca628b9e6f65ee1cbf79101610fb8565b6111508282610a16565b6105b857611168816001600160a01b03166014611415565b611173836020611415565b604051602001611184929190611912565b60408051601f198184030181529082905262461bcd60e51b82526104ac91600401611a04565b6111b48282610a16565b6105b85760008281526004602090815260408083206001600160a01b03851684529091529020805460ff191660011790556111ec3390565b6001600160a01b0316816001600160a01b0316837f2f8788117e7eff1d82e926ec794901d17c78024a50270940304540a733656f0d60405160405180910390a45050565b61123a8282610a16565b156105b85760008281526004602090815260408083206001600160a01b0385168085529252808320805460ff1916905551339285917ff6391f5c32d9c69d2a47ea670b442974b53935d1edc7fd64eb21e047a839171b9190a45050565b6001600160a01b038416600090815260016020526040812081845b848110156113595760008360050182815481106112df57634e487b7160e01b600052603260045260246000fd5b9060005260206000209060030201600001549050600084600501838154811061131857634e487b7160e01b600052603260045260246000fd5b90600052602060002090600302016001015490506113378983836115f7565b6113419085611b19565b935050508060016113529190611b19565b90506112b2565b509695505050505050565b6001600160a01b0382166000908152600160205260408120600501805482919061139557600080925092505061140e565b80546113a390600190611b70565b91505b838183815481106113c757634e487b7160e01b600052603260045260246000fd5b90600052602060002090600302016000015414156113e957600192505061140e565b816113f357611405565b816113fd81611bb7565b9250506113a6565b60008092509250505b9250929050565b60606000611424836002611b51565b61142f906002611b19565b67ffffffffffffffff81111561145557634e487b7160e01b600052604160045260246000fd5b6040519080825280601f01601f19166020018201604052801561147f576020820181803683370190505b509050600360fc1b816000815181106114a857634e487b7160e01b600052603260045260246000fd5b60200101906001600160f81b031916908160001a905350600f60fb1b816001815181106114e557634e487b7160e01b600052603260045260246000fd5b60200101906001600160f81b031916908160001a9053506000611509846002611b51565b611514906001611b19565b90505b60018111156115a8576f181899199a1a9b1b9c1cb0b131b232b360811b85600f166010811061155657634e487b7160e01b600052603260045260246000fd5b1a60f81b82828151811061157a57634e487b7160e01b600052603260045260246000fd5b60200101906001600160f81b031916908160001a90535060049490941c936115a181611bb7565b9050611517565b508315610bfc5760405162461bcd60e51b815260206004820181905260248201527f537472696e67733a20686578206c656e67746820696e73756666696369656e7460448201526064016104ac565b6000805460405163277166bf60e11b81526001600160a01b0386811660048301526024820186905283926201000090041690634ee2cd7e9060440160206040518083038186803b15801561164a57600080fd5b505afa15801561165e573d6000803e3d6000fd5b505050506040513d601f19601f8201168201806040525081019061168291906118fa565b905080611693576000915050610bfc565b60008054604051630981b24d60e41b815260048101879052620100009091046001600160a01b03169063981b24d09060240160206040518083038186803b1580156116dd57600080fd5b505afa1580156116f1573d6000803e3d6000fd5b505050506040513d601f19601f8201168201806040525081019061171591906118fa565b90508061172757600092505050610bfc565b806117328386611b51565b610a809190611b31565b80356001600160a01b038116811461175357600080fd5b919050565b600060208284031215611769578081fd5b610bfc8261173c565b60008060408385031215611784578081fd5b61178d8361173c565b915061179b6020840161173c565b90509250929050565b6000806000606084860312156117b8578081fd5b6117c18461173c565b92506117cf6020850161173c565b9150604084013590509250925092565b600080604083850312156117f1578182fd5b6117fa8361173c565b946020939093013593505050565b6000806020838503121561181a578182fd5b823567ffffffffffffffff80821115611831578384fd5b818501915085601f830112611844578384fd5b813581811115611852578485fd5b8660208260051b8501011115611866578485fd5b60209290920196919550909350505050565b600060208284031215611889578081fd5b81518015158114610bfc578182fd5b6000602082840312156118a9578081fd5b5035919050565b600080604083850312156118c2578182fd5b8235915061179b6020840161173c565b6000602082840312156118e3578081fd5b81356001600160e01b031981168114610bfc578182fd5b60006020828403121561190b578081fd5b5051919050565b76020b1b1b2b9b9a1b7b73a3937b61d1030b1b1b7bab73a1604d1b815260008351611944816017850160208801611b87565b7001034b99036b4b9b9b4b733903937b6329607d1b6017918401918201528351611975816028840160208801611b87565b01602801949350505050565b604080825283519082018190526000906020906060840190828701845b828110156119c35781516001600160a01b03168452928401929084019060010161199e565b50505083810382850152845180825285830191830190845b818110156119f7578351835292840192918401916001016119db565b5090979650505050505050565b6020815260008251806020840152611a23816040850160208701611b87565b601f01601f19169190910160400192915050565b60208082526022908201527f41636365737369626c653a2043616c6c6572206973206e6f7420616e2061646d60408201526134b760f11b606082015260800190565b6020808252601c908201527f416d6f756e7420746f20626520636c61696d6564206973207a65726f00000000604082015260600190565b6020808252601c908201527f4e6f207375636820736e617073686f7420494420697320666f756e6400000000604082015260600190565b6020808252601890820152774c6f636b496420697320616c726561647920696e2075736560401b604082015260600190565b60008219821115611b2c57611b2c611be9565b500190565b600082611b4c57634e487b7160e01b81526012600452602481fd5b500490565b6000816000190483118215151615611b6b57611b6b611be9565b500290565b600082821015611b8257611b82611be9565b500390565b60005b83811015611ba2578181015183820152602001611b8a565b83811115611bb1576000848401525b50505050565b600081611bc657611bc6611be9565b506000190190565b6000600019821415611be257611be2611be9565b5060010190565b634e487b7160e01b600052601160045260246000fdfedf8b4c520ffe197c5343c6f5aec59570151ef9a492f2c624fd45ddde6135ec42a26469706673582212206b703579a73bb7910ad5eef266b2dd02834e0694917764e261f33038edddb38c64736f6c63430008040033",
  "linkReferences": {},
  "deployedLinkReferences": {}
}